1                        J E S 2  J O B  L O G  --  S Y S T E M  S Y S B  --  N O D E  R L G
0
 12.54.03 JOB03560 ---- MONDAY,    15 MAR 2004 ----
 12.54.03 JOB03560  ICH70001I GG$SLP   LAST ACCESS AT 12:53:33 ON MONDAY, MARCH 15, 2004
 12.54.03 JOB03560  $HASP373 WYL#SAM  STARTED - INIT 6    - CLASS B - SYS SYSB
 12.54.03 JOB03560  ***  HCMD      STEP $$QUIET
 12.54.03 JOB03560  PUR * Q OUT MUL
 12.54.03 JOB03560  JOB 5423 WYL#SAM  WILL BE PURGED
 12.54.04 JOB03560  WYL#SAM .$$QUIET .         RC=Zero TapeIO=0000 DiskIO=0000 CPU=  .01s Elapsed=43.11s
 12.54.24 JOB03560  WYL#SAM .ASM     .         RC=Zero TapeIO=0000 DiskIO=0996 CPU= 9.07s Elapsed=44.18s
 12.54.26 JOB03560  WYL#SAM .EDIT    .         RC=Zero TapeIO=0000 DiskIO=0464 CPU= 1.37s Elapsed=64.65s
 12.54.26 JOB03560  WYL#SAM  Ended.  Name=Assemble SAM                   Total CPU=10.45s Elapsed=43.11s
 12.54.26 JOB03560
 12.54.26 JOB03560  Execution charges   Priority=Standard   Block=Day
 12.54.26 JOB03560
 12.54.26 JOB03560  CPU Usage         193.87         $120.19   Standard Processing Unit Equivalent
 12.54.26 JOB03560                                   =======
 12.54.26 JOB03560                                   $120.19   Total Job execution charge
 12.54.26 JOB03560
 12.54.26 JOB03560  See back separator page for print charges
 12.54.26 JOB03560
 12.54.26 JOB03560  $HASP395 WYL#SAM  ENDED  ASM=0, EDIT=0
1        1 //WYL#SAM JOB SLP$GG,'Assemble SAM',TIME=4,REGION=4M                    JOB03560
           //*
           /*JOBPARM LINES=99,COPIES=1
           /*JOBPARM FORMS=3HOL,PFORMAT=LAND,CHARS=BD13,DUPLEX=YES,FLASH=BAR4
           //*
           /*JOBPARM NOTIFY=GG.SLP,HOLD=OUTPUT                                     WYLGEN
         2 //$$QUIET EXEC PGM=HCMDX,PARM='PUR * Q OUT MUL'
           //*
         3 //ASM    EXEC PGM=ASMA90,REGION=8M,
           //            PARM=('NORENT,TERM,FLAG(NOCONT),US(MAP,WARN(10)),NODECK',
           //            'LC(32767),XREF(SHORT),ESD,DXREF,NOOBJECT')
         4 //STEPLIB DD DSN=SYS3.IS.TESTASM,DISP=SHR
         5 //SYSLIB   DD  DSN=WYL.GS.WYL.WYLBUR.MACLIB,DISP=SHR
         6 //         DD  DSN=WYL.GG.SYS.MACLIB,DISP=SHR
         7 //         DD  DSN=SYS3.IS.MACLIB,DISP=SHR
         8 //         DD  DSN=SYS3.MACLIB,DISP=SHR
         9 //         DD  DSN=SYS1.MACLIB,DISP=SHR
        10 //         DD  DSN=SYS1.MODGEN,DISP=SHR
        11 //SYSUT1   DD DSN=&&SYSUT1,UNIT=VIO,DISP=(,DELETE),
           //            SPACE=(4088,(500,250),,CONTIG,ROUND)
        12 //SYSTERM  DD SYSOUT=T
        13 //SYSPRINT DD DSN=&&PRINT,UNIT=SYSDA,DISP=(,PASS),
           //            SPACE=(6650,(250,250),RLSE),
           //            DCB=(BLKSIZE=6650,LRECL=133,RECFM=FB)
        14 //SYSUDUMP DD SYSOUT=A
        15 //SYSIN    DD  DSN=WYL.GS.WYL.WYLBUR.SOURCE(SAM),DISP=SHR
           //*
        16 //EDIT    EXEC PGM=ASMEDIT,TIME=2,REGION=4000K,
           //             PARM='STMT'
        17 //STEPLIB  DD  DSN=WYL.GG.SYS.LINKLIB,DISP=SHR
        18 //ASMOUT   DD  DSN=&PRINT,DISP=(OLD,DELETE)
        19 //SYSPRINT DD  SYSOUT=A
1 STMT NO. MESSAGE
 -
        11 IGD01010I STORCLAS= TEMP STORGROUP =
        11 IGD01010I STORGRP=VIO ASSIGNED.
        13 IGD01010I STORCLAS= TEMP STORGROUP =
        13 IGD01010I STORGRP=VIO ASSIGNED.
 ICH70001I GG$SLP   LAST ACCESS AT 12:53:33 ON MONDAY, MARCH 15, 2004
 IEF142I WYL#SAM $$QUIET - STEP WAS EXECUTED - COND CODE 0000
 *********************************************************************************
 *   WYL#SAM /$$QUIET /                    Return Code      Zero                 *
 *   Region used      260K (16K user + 244K system)                              *
 *   Extended region  9692K (4K user + 9688K system)                             *
 *                                                                               *
 *   Paging              In      Out                                             *
 *   Private <-> Aux      0        0       CPU time (TCB)   00:00:00.01          *
 *   Private <-> Exp      0        0       CPU time (SRB)   00:00:00.00          *
 *   VIO                  0        0       Elapsed time    917:33:49.85          *
 *   Common               0      ---                                             *
 *                                                                               *
 *                                                                               *
 *   CPU Usage          0.18         $0.11  Standard Processing Unit Equivalent  *
 *                                   $0.11  Total Step execution charge          *
 *                                                                               *
 *    I/O count  DDname   Type Addr           I/O count  DDname   Type Addr      *
 *                         *** No I/O for this step ***                          *
 *********************************************************************************
 IEF373I STEP/$$QUIET /START 2004075.1254
 IEF374I STEP/$$QUIET /STOP  2004075.1254 CPU    0MIN 00.01SEC SRB    0MIN 00.00SEC VIRT    16K SYS   244K EXT       4K SYS    9688K
 IEF236I ALLOC. FOR WYL#SAM ASM
 IEF237I 04DC ALLOCATED TO STEPLIB
 IEF237I 04DC ALLOCATED TO SYSLIB
 IEF237I 04DC ALLOCATED TO
 IEF237I 04DC ALLOCATED TO
 IEF237I 0402 ALLOCATED TO
 IEF237I 04A0 ALLOCATED TO
 IEF237I 04A0 ALLOCATED TO
 IGD101I SMS ALLOCATED TO DDNAME (SYSUT1  )
         DSN (SYS04075.T125403.RA000.WYL#SAM.SYSUT1.H01   )
         STORCLAS (TEMP) MGMTCLAS (        ) DATACLAS (        )
         VOL SER NOS= VIO
 IEF237I JES2 ALLOCATED TO SYSTERM
 IGD101I SMS ALLOCATED TO DDNAME (SYSPRINT)
         DSN (SYS04075.T125403.RA000.WYL#SAM.PRINT.H01    )
         STORCLAS (TEMP) MGMTCLAS (        ) DATACLAS (        )
         VOL SER NOS= SCR101
 IEF237I JES2 ALLOCATED TO SYSUDUMP
 IEF237I 04DC ALLOCATED TO SYSIN
 IEF142I WYL#SAM ASM - STEP WAS EXECUTED - COND CODE 0000
 IEF285I   SYS3.IS.TESTASM                              KEPT
 IEF285I   VOL SER NOS= SYSB05.
 IEF285I   WYL.GS.WYL.WYLBUR.MACLIB                     KEPT
 IEF285I   VOL SER NOS= SYSB05.
 IEF285I   WYL.GG.SYS.MACLIB                            KEPT
 IEF285I   VOL SER NOS= SYSB05.
 IEF285I   SYS3.IS.MACLIB                               KEPT
 IEF285I   VOL SER NOS= SYSB05.
 IEF285I   SYS3.MACLIB                                  KEPT
 IEF285I   VOL SER NOS= SYSB02.
 IEF285I   SYS1.MACLIB                                  KEPT
 IEF285I   VOL SER NOS= MVSBR9.
 IEF285I   SYS1.MODGEN                                  KEPT
 IEF285I   VOL SER NOS= MVSBR9.
 IGD105I SYS04075.T125403.RA000.WYL#SAM.SYSUT1.H01    DELETED,   DDNAME=SYSUT1
 IEF285I   GG$SLP.WYL#SAM.JOB03560.D0000101.?           SYSOUT
 IGD106I SYS04075.T125403.RA000.WYL#SAM.PRINT.H01     PASSED,    DDNAME=SYSPRINT
 IEF285I   GG$SLP.WYL#SAM.JOB03560.D0000102.?           SYSOUT
 IEF285I   WYL.GS.WYL.WYLBUR.SOURCE                     KEPT
 IEF285I   VOL SER NOS= SYSB05.
 *********************************************************************************
 *   WYL#SAM /ASM     /                    Return Code      Zero                 *
 *   Region used      4376K (4096K user + 280K system)                           *
 *   Extended region  10308K (412K user + 9896K system)                          *
 *                                                                               *
 *   Paging              In      Out                                             *
 *   Private <-> Aux      0        0       CPU time (TCB)   00:00:09.00          *
 *   Private <-> Exp      0        0       CPU time (SRB)   00:00:00.07          *
 *   VIO                  0        0       Elapsed time    917:33:48.78          *
 *   Common               0      ---                                             *
 *                                                                               *
 *                                                                               *
 *   CPU Usage        168.75       $104.62  Standard Processing Unit Equivalent  *
 *                                 $104.62  Total Step execution charge          *
 *                                                                               *
 *    I/O count  DDname   Type Addr           I/O count  DDname   Type Addr      *
 *           94  STEPLIB  Disk 04DC                 356  SYSLIB   Disk 04DC      *
 *            0  SYSLIB   Disk 04DC                   0  SYSLIB   Disk 04DC      *
 *            0  SYSLIB   Disk 0402                  68  SYSLIB   Disk 04A0      *
 *            0  SYSLIB   Disk 04A0                 926  SYSUT1   VIO  ----      *
 *            0  SYSTERM       ----                 461  SYSPRINT Disk 04E3      *
 *            0  SYSUDUMP      ----                  17  SYSIN    Disk 04DC      *
 *********************************************************************************
 IEF373I STEP/ASM     /START 2004075.1254
 IEF374I STEP/ASM     /STOP  2004075.1254 CPU    0MIN 09.00SEC SRB    0MIN 00.07SEC VIRT  4096K SYS   280K EXT     412K SYS    9896K
 IEF236I ALLOC. FOR WYL#SAM EDIT
 IEF237I 0402 ALLOCATED TO STEPLIB
 IGD103I SMS ALLOCATED TO DDNAME ASMOUT
 IEF237I JES2 ALLOCATED TO SYSPRINT
 IEF142I WYL#SAM EDIT - STEP WAS EXECUTED - COND CODE 0000
 IEF285I   WYL.GG.SYS.LINKLIB                           KEPT
 IEF285I   VOL SER NOS= SYSB02.
 IGD105I SYS04075.T125403.RA000.WYL#SAM.PRINT.H01     DELETED,   DDNAME=ASMOUT
 IEF285I   GG$SLP.WYL#SAM.JOB03560.D0000103.?           SYSOUT
 *********************************************************************************
 *   WYL#SAM /EDIT    /                    Return Code      Zero                 *
 *   Region used      384K (120K user + 264K system)                             *
 *   Extended region  9816K (4K user + 9812K system)                             *
 *                                                                               *
 *   Paging              In      Out                                             *
 *   Private <-> Aux      0        0       CPU time (TCB)   00:00:01.33          *
 *   Private <-> Exp      0        0       CPU time (SRB)   00:00:00.04          *
 *   VIO                  0        0       Elapsed time    917:33:28.31          *
 *   Common               0      ---                                             *
 *                                                                               *
 *                                                                               *
 *   CPU Usage         24.93        $15.45  Standard Processing Unit Equivalent  *
 *                                  $15.45  Total Step execution charge          *
 *                                                                               *
 *    I/O count  DDname   Type Addr           I/O count  DDname   Type Addr      *
 *            2  STEPLIB  Disk 0402                 462  ASMOUT   Disk 04E3      *
 *            0  SYSPRINT      ----                                              *
 *********************************************************************************
 IEF373I STEP/EDIT    /START 2004075.1254
 IEF374I STEP/EDIT    /STOP  2004075.1254 CPU    0MIN 01.33SEC SRB    0MIN 00.04SEC VIRT   120K SYS   264K EXT       4K SYS    9812K
 *********************************************************************************
 *                                                                               *
 *                      S t a n f o r d   U n i v e r s i t y                    *
 *                                                                               *
 *                              *** Job Summary ***                              *
 *                                                                               *
 *   System Id      SYSB                   Input time     12:39:26  Mar 15, 2004 *
 *                                                                               *
 *   System Release SP6.1.0                Start time     12:54:03  Mar 15, 2004 *
 *                                                                               *
 *   Job name       WYL#SAM                Stop  time     00:00:00  Mar 15, 2004 *
 *                                                                               *
 *   Account        SLP$GG                 Elapsed time  917:33:49.85            *
 *                                                                               *
 *   User Name      Assemble SAM           CPU time       00:00:10.34            *
 *                                                                               *
 *   Job class      B                      SRB Time       00:00:00.11            *
 *                                                                               *
 *********************************************************************************
 IEF375I  JOB/WYL#SAM /START 2004075.1254
 IEF376I  JOB/WYL#SAM /STOP  2004075.1254 CPU    0MIN 10.34SEC SRB    0MIN 00.11SEC
1Assembler Done SAM No Statements Flagged
1         High Level Assembler Option Summary                   (PTF P72483 )                                               Page    1
-                                                                                            HLASM R4.0  2004/03/15 12.54
0  No Overriding ASMAOPT Parameters
   Overriding Parameters-  NORENT,TERM,FLAG(NOCONT),US(MAP,WARN(10)),NODECK,LC(32767),XREF(SHORT),ESD,DXREF,NOOBJECT
   No Process Statements


   Options for this Assembly
0  NOADATA
     ALIGN
   NOASA
     BATCH
     CODEPAGE(047C)
   NOCOMPAT
   NODBCS
 3 NODECK
 3   DXREF
 3   ESD
   NOEXIT
 3   FLAG(0,ALIGN,NOCONT,NOIMPLEN,NOPAGE0,PUSH,RECORD,NOSUBSTR,USING0)
   NOFOLD
   NOGOFF
   NOINFO
     LANGUAGE(EN)
   NOLIBMAC
 3   LINECOUNT(32767)
     LIST(121)
     MXREF(SOURCE)
 3 NOOBJECT
     OPTABLE(UNI,NOLIST)
   NOPCONTROL
   NOPESTOP
   NOPROFILE
   NORA2
 3 NORENT
     RLD
     RXREF
     SIZE(MAX)
     SYSPARM()
 3   TERM(WIDE)
   NOTEST
     THREAD
   NOTRANSLATE
 3   USING(NOLIMIT,MAP,WARN(10))
 3   XREF(SHORT)

   No Overriding DD Names

1SAM      External Symbol Dictionary                                                                                        Page    2
-Symbol   Type   Id     Address  Length     LD ID  Flags Alias-of                            HLASM R4.0  2004/03/15 12.54
0WYLSAM    SD 00000001 00000000 00007D00             00
 SAM2193   LD          00000000           00000001
 SETSAM    LD          00000016           00000001
 MPINT     ER 00000002
 MTOKEN    ER 00000003
 MALL      ER 00000004
 NOTVALID  ER 00000005
 SHOWSAM   LD          000008EC           00000001
 NSCAN     ER 00000006
 SCANCHK   ER 00000007
 SAMINIT   ER 00000008
 SEGCR     ER 00000009
 SEG       ER 0000000A
 LRTRIM    ER 0000000B
 SEGT      ER 0000000C
 SEGDC     ER 0000000D
 LOCALTOD  ER 0000000E
 FMTTIME   ER 0000000F
 SEGB      ER 00000010
 MIXFMT    ER 00000011
 MICRO     LD          000015C4           00000001
 SAMSON    LD          000016D4           00000001
 MKFFINFO  ER 00000012
 SEGWR     ER 00000013
 SAMINIT   LD          000018F6           00000001
 SAMPARMS  LD          0000193A           00000001
 MARKHEAP  ER 00000014
 GETHEAP   ER 00000015
 SEGINIT   ER 00000016
 SEGINITR  ER 00000017
 WAITER    ER 00000018
 FMTCLCK   ER 00000019
 FMTXDATE  ER 0000001A
 GETDATA   ER 0000001B
 SAVEDATA  ER 0000001C
 UPDCPSIB  ER 0000001D
 RELHEAP   ER 0000001E
 MPARM     ER 0000001F
 SCNNOOP   ER 00000020
 SAMSCR    LD          000028AE           00000001
 SAMREN    LD          00002C1A           00000001
 SAMDIR    LD          00002FA2           00000001
 SAMTEST   LD          000032F8           00000001
 NRESOLVE  ER 00000021
 SAMRESLV  ER 00000022
 SAMOPEN   LD          000035CE           00000001
 SAMREAD   LD          00004440           00000001
 SAMWRITE  LD          00004538           00000001
 SAMCLOSE  LD          0000485E           00000001
 SAMDIALG  LD          0000497C           00000001
 SAMECHO   LD          00004CE4           00000001
 UNFORML   ER 00000023
 YESNO     ER 00000024
 CVEXNO    ER 00000025
 TOEBCDIC  ER 00000026
1SAM      External Symbol Dictionary                                                                                        Page    3
 SEGCLR    ER 00000027
 SEGMARK   ER 00000028
 TREAD     ER 00000029
 SAMRESLV  LD          00004FB2           00000001
 NPATALLO  ER 0000002A
 NPATOPEN  ER 0000002B
 SETSCKEY  ER 0000002C
 NPATWAIT  ER 0000002D
 NPATCTRL  ER 0000002E
 NPATREAD  ER 0000002F
 NPATXRD   ER 00000030
 FORMATL   ER 00000031
 TOASCII   ER 00000032
 NPATCLS   ER 00000033
 SEGHX     ER 00000034
 DETAB     ER 00000035
 XTB       ER 00000036
 HEXCONV   ER 00000037
 BTX       ER 00000038
 RTRIM     ER 00000039

1SAM      WYLBUR's Samson Support                                                                                           Page    4
0Loc    Object Code    Addr1 Addr2  Stmt Lv Lineno    Source Statement                    (Asmedit 3.3)  HLASM R4.0  2004/03/15 12.54
+___    ______ ____    _____ _____  ____ __ ______    ______ _________
0                                      2              *******************************************************************
                                       3              *                                                                 *
                                       4              *     WYLBUR/370 - Release VI - Class I - Stanford Proprietary    *
                                       5              *                                                                 *
                                       6              *******************************************************************
                                       7              *
                                       8              *  Things to do:
                                       9              *
                                      10              *  -  Re-write "INTEXT" routine so that it can accept an arbitrarily
                                      11              *     large group of continuation packets (see line !! TEMP !! for
                                      12              *     problem area).
                                      13              *
                                      14              *  -  There should be a CPFNOBREAK flag which we can use instead of
                                      15              *     CPFCLEAN.  CLEAN prevents interleaved TO messages between
                                      16              *     packet writes which Samson can handle if we let it.
                                      17              *
                                      18                       HIBAL
                                     999
                                    1000                       SYSDEFN
-000000                00000 07D00  1002              WYLSAM   CSECT
                                    1006
                                    1007              SAM      IDENT 2193                15:11:48 07/12/02  (SLP)
                                    1010             +
                                    1011    01-IDENT +         ENTRY SAM2193
                                    1012             +
 000000 15E2C1D4F2F1F9F3            1013    01-IDENT +SAM2193  DC    AL1(21),C'SAM2193,15MAR04,12:54'
                                    1014             +*
                                    1016                       REGS  FSR,,,,,,,BR,(WAR,LSR),PAR,PBR,CPR,CVR,SPR,RAR
                                    1152
                                    1153                       PUSH  DSECTS
 USING  CP,R11                      1164             =         USING (CP),(CV)
 USING  CV,R12
 000016                00000 07D00  1183             =         POP   PRINT
1SAM      (SAM2193) (12:54) (15MAR04) Common Control Blocks                                                                 Page    5
0Current Usings:  (CP,R11) (CV,R12)
0Loc    Object Code    Addr1 Addr2  Stmt Lv Lineno    Source Statement           (Hibal 5, Asmedit 3.3)  HLASM R4.0  2004/03/15 12.54
+___    ______ ____    _____ _____  ____ __ ______    ______ _________
0000000                00000 0000A  7474              SSAMWA   RECORD BEGIN
 000000 00                          7482  1           SSAMFLAG   FLAG
 SSAMFLAG.SSAMFSET 80 ONES          7486  1                      FLAG  SSAMFSET            - Need to set new Samson parms
 SSAMFLAG.SSAMFRES 40 ONES          7491  1                      FLAG  SSAMFRESET          - Reset any old Samson settings
 SSAMFLAG.SSAMFTIM 20 ONES          7496  1                      FLAG  SSAMFTIME           - Set time/date
 SSAMFLAG.SSAMFUBU 10 ONES          7501  1                      FLAG  SSAMFUBUFFER        - Buffer value is explicit
 SSAMFLAG.SSAMFUTM 08 ONES          7506  1                      FLAG  SSAMFUTMOUT         - Timeout value is explicit
 SSAMFLAG.SSAMFUEN 04 ONES          7511  1                      FLAG  SSAMFUENCODE        - Encoding value is explicit
 SSAMFLAG.SSAMFUCH 02 ONES          7516  1                      FLAG  SSAMFUCHECK         - Checking value is explicit
                                    7521  1
 000001                             7522  1           SSAMCODE   DS    X                   Packet encoding options
 000004                             7523  1           SSAMBUFF   DS    F                   New buffer size
 000008                             7524  1           SSAMTMO    DS    H                   New timeout value
 00000A                0000A 0000A  7525                       END
-                                   7535              ¿þþþþþþþþþþþþþþþþþþþþþþþþþþþþþþþþþþþþþþþþþþþþþþþþþþþþþþþþþþþþþþþþþþþþþÜ
                                    7536              Ÿ                                                                     Ÿ
                                    7537              Ÿ  SETSAM -- SET SAMSON Command.                                      Ÿ
                                    7538              Ÿ                                                                     Ÿ
                                                      ¾þþþþþþþþþþþþþþþþþþþþþþþþþþþþþþþþþþþþþþþþþþþþþþþþþþþþþþþþþþþþþþþþþþþþþ»
0000016 50E0 D000/9008_      00000  7539              SETSAM   XPROC SSAMWA
 USING  *,R7
 USING  SSAMWA-(4+36),R8
 000030 4160 8028            00000  7590                       LA    R6,SSAMWA
 USING  SSAMWA,R6                   7591                       USING SSAMWA,R6
 000034 D709 6000 6000 00000 00000  7600                       CLEAR SSAMWA
                                    7607
 00003A D203 6004 BAA8 00004 00AA8  7608                       MVC   SSAMBUFF,CPSAMBUFF  Current buffer size
 000040 D201 6008 BA98 00008 00A98  7609                       MVC   SSAMTMO,CPSAMTMO    Current timeout value
 000046 D200 6001 BA22 00001 00A22  7610                       MVC   SSAMCODE,CPSAMCOD   Current packet encoding
                                    7611                       ¿þþþþþþþþþþþþþþþþþþþþþþþþþþþþþþþþþþþþþþþþÜ
                                    7612                       Ÿ  Scan for SET SAMSON command options.  Ÿ
                                    7613                       ¾þþþþþþþþþþþþþþþþþþþþþþþþþþþþþþþþþþþþþþþþ»
 00004C 5810 B08C/1B00_      0008C  7614                       SCAN  SETPRT              SET SAMSON Options
 00009E 58E0 7F58/0DEE       00F88  7646                       SCANCHK
                                    7651                       ¿þþþþþþþþþþþþþþþþþþþþþþþþþþþþþþþþþþþþÜ
                                    7652                       Ÿ  Handle 'SET SAMSON RESET' first.  Ÿ
                                    7653                       ¾þþþþþþþþþþþþþþþþþþþþþþþþþþþþþþþþþþþþ»
 0000A4 9140 6000/47E0_00000        7654                       IF    SSAMFRESET,'VCALL SAMINIT'  Reinitialize settings
                                    7678                       ¿þþþþþþþþþþþþþþþþþþþþþþþþþþþÜ
                                    7679                       Ÿ  Set new Samson options.  Ÿ
                                    7680                       ¾þþþþþþþþþþþþþþþþþþþþþþþþþþþ»
 0000B2 9180 6000/47E0_00000        7681                       IF    SSAMFSET,BEGIN      Set new options...
 0000BA D203 BAA8 6004 00AA8 00004  7696  1                      MVC   CPSAMBUFF,SSAMBUFF  Set new buffer size
 0000C0 D201 BA98 6008 00A98 00008  7697  1                      MVC   CPSAMTMO,SSAMTMO    Set new timeout value
 0000C6 D200 BA22 6001 00A22 00001  7698  1                      MVC   CPSAMCOD,SSAMCODE   Set new encoding flags
 0000CC 9110 6000/47E0_00000        7699  1                      IF    SSAMFUBUFFER,'SET CPSAMFUBUFFER'  Explicit buffer
 0000D8 9108 6000/47E0_00000        7725  1                      IF    SSAMFUTMOUT,'SET CPSAMFUTMOUT'  Explicit timeout
 0000E4 9104 6000/47E0_00000        7751  1                      IF    SSAMFUENCODE,'SET CPSAMFUENCODE'  Explicit encoding
 0000F0 9102 6000/47E0_00000        7777  1                      IF    SSAMFUCHECK,'SET CPSAMFUCHECK'  Explicit checking
 0000FC 947F BA21      00A21        7803  1                      CLEAR CPSAMFDEF           Force new SAMPARMS check
 000100 1B00                        7810  1                      CLEAR R0                  Don't set the time/date
1SAM      (SAM2193) (12:54) (15MAR04) Common Control Blocks                                                                 Page    6
0Current Usings:  (SSAMWA,R6) (*,R7) (SSAMWA-(4+36),R8) (CP,R11) (CV,R12)
0Loc    Object Code    Addr1 Addr2  Stmt Lv Lineno    Source Statement           (Hibal 5, Asmedit 3.3)  HLASM R4.0  2004/03/15 12.54
+___    ______ ____    _____ _____  ____ __ ______    ______ _________
0                                   7814  1           *         IF    SSAMFTIME,'LA R0,1'  Set the time/date
 000102 58E0 7F60/0DEE       00F90  7815  1                      ACALL SAMPARMS            Set new parameters
 000108                             7819                       END
                                    7823
 000108 47F0 C7DE            007DE  7824                       B     CVNEXT
 00010C 18D8/9808 D004_             7825                       PEND
 DROP   SSAMWA-(4+36),R8
 DROP   *,R7
1SAM      (SAM2193) (12:54) (15MAR04) Common Control Blocks                                                                 Page    7
0Current Usings:  (SSAMWA,R6) (CP,R11) (CV,R12)
0Loc    Object Code    Addr1 Addr2  Stmt Lv Lineno    Source Statement           (Hibal 5, Asmedit 3.3)  HLASM R4.0  2004/03/15 12.54
+___    ______ ____    _____ _____  ____ __ ______    ______ _________
0                                   7851              ***
                                    7852              ***  SET SAMSON Options
                                    7853              ***
 00011C C2E4C6C6C5D94040_           7854              SETPRT   SCKW  BUFFER,SXBUF,(A,P,PI),32767
 000144 E3C9D4C540404040_           7869                       SCKW  TIME,SXTIME,A       (Must come before "TIMEOUT")
 00016C C4C1E3C540404040_           7884                       SCKW  DATE,SXTIME,A
 000194 D9C5E2C5E3404040_           7899                       SCKW  RESET,SXRESET,A
 0001BC E3C9D4C5D6E4E340_           7914                       SCKW  TIMEOUT,SXTMOUT,(A,P,PI),32767
 0001E4 D5D6E3C9D4C5D6E4_           7929                       SCKW  NOTIMEOUT,SXNOTMO
 00020C F7C2C9E340404040_           7944                       SCKW  7BIT,SX7BIT,A
 000234 D5C1D4C2C9C34040_           7959                       SCKW  NAMBIC,SX7BIT       (For Aaron)
 00025C D7C1C3D2C5C44040_           7974                       SCKW  PACKED,SXPACKED,A
 000284 F8C2C9E340404040_           7989                       SCKW  8BIT,SX8BIT,A
 0002AC C8C5E74040404040_           8004                       SCKW  HEX,SXHEX
 0002D4 C3D9C34040404040_           8019                       SCKW  CRC,SXCRC
 0002FC C3C8C5C3D2E2E4D4_           8034                       SCKW  CHECKSUM,SXCHECK,A
 000324 D5D6C3C8C5C3D240_           8049                       SCKW  NOCHECK,SXNOCHK,A
 00034C E2D3D6E6C6E3D740_           8064                       SCKW  SLOWFTP,SXSLOW,A
 000374 C6C1E2E3C6E3D740_           8079                       SCKW  FASTFTP,SXFAST,A
 00039C C6E3D7C3D9E8D7E3_           8094                       SCKW  FTPCRYPT,SXCRYPT,A
 0003C4 D5D6C6E3D7C3D9E8_           8109                       SCKW  NOFTPCRYPT,SXNCRYPT,A
 0003EC C4C5C2E4C7404040_           8124                       SCKW  DEBUG,SXDEBUG,A
 000414 D5D6C4C5C2E4C740_           8139                       SCKW  NODEBUG,SXNODBUG,A
 00043C E3D9C1C3C5404040_           8154                       SCKW  TRACE,SXTRC,A
 000464 D5D6E3D9C1C3C540_           8169                       SCKW  NOTRACE,SXNOTRC,A
 00048C E3C3D3C5C1D94040_           8184                       SCKW  TCLEAR,SXTCLR,A
 0004B4 4040404040404040_           8199                       SCKW  ,V(NOTVALID)
                                    8214              *
                                    8215              *
 0004DC 50E0 D000/9008_      00000  8216              SXBUF    PROC
 USING  *,R7
 0004F6 9680 6000      00000        8255                       SET   SSAMFSET
 0004FA 5000 6004            00004  8261                       ST    R0,SSAMBUFF         Save new buffer size
 0004FE 9610 6000      00000        8262                       SET   SSAMFUBUFFER        Explicit buffer now set
 000502 18D8/9808 D004_             8268                       PEND
 DROP   *,R7
                                    8288
 000510 50E0 D000/9008_      00000  8289              SXNOTMO  PROC
 USING  *,R7
 00052A 1B00                        8328                       CLEAR R0                  No timeouts
 00052C 58E0 7A6A/0DEE       00F94  8332                       ACALL SXTMOUT
 000532 18D8/9808 D004_             8336                       PEND
 DROP   *,R7
                                    8356
 000540 50E0 D000/9008_      00000  8357              SXTMOUT  PROC
 USING  *,R7
 00055A 9680 6000      00000        8396                       SET   SSAMFSET
 00055E 4000 6008            00008  8402                       STH   R0,SSAMTMO          Save new timeout time
 000562 9608 6000      00000        8403                       SET   SSAMFUTMOUT         Explicit timeout now set
 000566 18D8/9808 D004_             8409                       PEND
 DROP   *,R7
                                    8429
 000574 50E0 D000/9008_      00000  8430              SXRESET  PROC
 USING  *,R7
1SAM      (SAM2193) (12:54) (15MAR04) Common Control Blocks                                                                 Page    8
0Current Usings:  (SSAMWA,R6) (*,R7) (CP,R11) (CV,R12)
0Loc    Object Code    Addr1 Addr2  Stmt Lv Lineno    Source Statement           (Hibal 5, Asmedit 3.3)  HLASM R4.0  2004/03/15 12.54
+___    ______ ____    _____ _____  ____ __ ______    ______ _________
000058E 9640 6000      00000        8469                       SET   SSAMFRESET          Reset previous Samson settings
 000592 9680 6000      00000        8475                       SET   SSAMFSET
 000596 18D8/9808 D004_             8481                       PEND
 DROP   *,R7
                                    8501
 0005A4 50E0 D000/9008_      00000  8502              SX7BIT   PROC
 USING  *,R7
 0005BE 9680 6000      00000        8541                       SET   SSAMFSET
 0005C2 94F3 6001      00001        8547                       CLEAR SSAMCODE.CPSAMFEMASK
 0005C6 960C 6001      00001        8554                       SET   SSAMCODE.CPSAMF7BIT  7-bit mode
 0005CA 9604 6000      00000        8560                       SET   SSAMFUENCODE        Explicit encoding now set
 0005CE 18D8/9808 D004_             8566                       PEND
 DROP   *,R7
                                    8586
 0005DC 50E0 D000/9008_      00000  8587              SXPACKED PROC
 USING  *,R7
 0005F6 9680 6000      00000        8626                       SET   SSAMFSET
 0005FA 94F3 6001      00001        8632                       CLEAR SSAMCODE.CPSAMFEMASK
 0005FE 9604 6001      00001        8639                       SET   SSAMCODE.CPSAMFPCK   Packed mode
 000602 9604 6000      00000        8645                       SET   SSAMFUENCODE        Explicit encoding now set
 000606 18D8/9808 D004_             8651                       PEND
 DROP   *,R7
                                    8671
 000614 50E0 D000/9008_      00000  8672              SX8BIT   PROC
 USING  *,R7
 00062E 9680 6000      00000        8711                       SET   SSAMFSET
 000632 94F3 6001      00001        8717                       CLEAR SSAMCODE.CPSAMFEMASK  Default ("8bit") mode
 000636 9604 6000      00000        8724                       SET   SSAMFUENCODE        Explicit encoding now set
 00063A 18D8/9808 D004_             8730                       PEND
 DROP   *,R7
                                    8750
 000648 50E0 D000/9008_      00000  8751              SXHEX    PROC
 USING  *,R7
 000662 9680 6000      00000        8790                       SET   SSAMFSET
 000666 94F3 6001      00001        8796                       CLEAR SSAMCODE.CPSAMFEMASK
 00066A 9608 6001      00001        8803                       SET   SSAMCODE.CPSAMFHEX   Hex mode
 00066E 9604 6000      00000        8809                       SET   SSAMFUENCODE        Explicit encoding now set
 000672 18D8/9808 D004_             8815                       PEND
 DROP   *,R7
                                    8835
 000680 50E0 D000/9008_      00000  8836              SXCRC    PROC
 USING  *,R7
 00069A 9680 6000      00000        8875                       SET   SSAMFSET
 00069E 94FC 6001      00001        8881                       CLEAR SSAMCODE.CPSAMFCMASK
 0006A2 9601 6001      00001        8888                       SET   SSAMCODE.CPSAMFCRC   Set CRC
 0006A6 9602 6000      00000        8894                       SET   SSAMFUCHECK         Explicit checking now set
 0006AA 18D8/9808 D004_             8900                       PEND
 DROP   *,R7
                                    8920
 0006B8 50E0 D000/9008_      00000  8921              SXCHECK  PROC
 USING  *,R7
 0006D2 9680 6000      00000        8960                       SET   SSAMFSET
 0006D6 94FC 6001      00001        8966                       CLEAR SSAMCODE.CPSAMFCMASK
 0006DA 9602 6001      00001        8973                       SET   SSAMCODE.CPSAMFCKS   Set Checksum
1SAM      (SAM2193) (12:54) (15MAR04) Common Control Blocks                                                                 Page    9
0Current Usings:  (SSAMWA,R6) (*,R7) (CP,R11) (CV,R12)
0Loc    Object Code    Addr1 Addr2  Stmt Lv Lineno    Source Statement           (Hibal 5, Asmedit 3.3)  HLASM R4.0  2004/03/15 12.54
+___    ______ ____    _____ _____  ____ __ ______    ______ _________
00006DE 9602 6000      00000        8979                       SET   SSAMFUCHECK         Explicit checking now set
 0006E2 18D8/9808 D004_             8985                       PEND
 DROP   *,R7
                                    9005
 0006F0 50E0 D000/9008_      00000  9006              SXNOCHK  PROC  ,
 USING  *,R7
 00070A 9680 6000      00000        9045                       SET   SSAMFSET
 00070E 94FC 6001      00001        9051                       CLEAR SSAMCODE.CPSAMFCMASK  No error checking
 000712 9602 6000      00000        9058                       SET   SSAMFUCHECK         Explicit checking now set
 000716 18D8/9808 D004_             9064                       PEND
 DROP   *,R7
                                    9084
 000724 50E0 D000/9008_      00000  9085              SXTIME   PROC  ,
 USING  *,R7
 00073E 96A0 6000      00000        9124                       SET   SSAMFSET+SSAMFTIME
 000742 18D8/9808 D004_             9133                       PEND
 DROP   *,R7
                                    9153
 000750 50E0 D000/9008_      00000  9154              SXSLOW   PROC  ,
 USING  *,R7
 00076A 9608 B47D      0047D        9193                       SET   CPGFSAMSLOW
 00076E 18D8/9808 D004_             9199                       PEND
 DROP   *,R7
                                    9219
 00077C 50E0 D000/9008_      00000  9220              SXFAST   PROC
 USING  *,R7
 000796 94F7 B47D      0047D        9259                       CLEAR CPGFSAMSLOW
 00079A 18D8/9808 D004_             9266                       PEND
 DROP   *,R7
                                    9286
 0007A8 50E0 D000/9008_      00000  9287              SXCRYPT  PROC
 USING  *,R7
 0007C2 94FB B47D      0047D        9326                       CLEAR CPGFSAMNFTPCRYPT
 0007C6 18D8/9808 D004_             9333                       PEND
 DROP   *,R7
                                    9353
 0007D4 50E0 D000/9008_      00000  9354              SXNCRYPT PROC
 USING  *,R7
 0007EE 9604 B47D      0047D        9393                       SET   CPGFSAMNFTPCRYPT
 0007F2 18D8/9808 D004_             9399                       PEND
 DROP   *,R7
                                    9419
 000800 50E0 D000/9008_      00000  9420              SXDEBUG  PROC
 USING  *,R7
 00081A 9610 B47D      0047D        9459                       SET   CPGFSAMD
 00081E 18D8/9808 D004_             9465                       PEND
 DROP   *,R7
                                    9485
 00082C 50E0 D000/9008_      00000  9486              SXNODBUG PROC
 USING  *,R7
 000846 94EF B47D      0047D        9525                       CLEAR CPGFSAMD
 00084A 18D8/9808 D004_             9532                       PEND
 DROP   *,R7
                                    9552
1SAM      (SAM2193) (12:54) (15MAR04) Common Control Blocks                                                                 Page   10
0Current Usings:  (SSAMWA,R6) (*,R7) (CP,R11) (CV,R12)
0Loc    Object Code    Addr1 Addr2  Stmt Lv Lineno    Source Statement           (Hibal 5, Asmedit 3.3)  HLASM R4.0  2004/03/15 12.54
+___    ______ ____    _____ _____  ____ __ ______    ______ _________
0000858 50E0 D000/9008_      00000  9553              SXTRC    PROC
 USING  *,R7
 000872 9620 B47D      0047D        9592                       SET   CPGFSAMT
 000876 18D8/9808 D004_             9598                       PEND
 DROP   *,R7
                                    9618
 000884 50E0 D000/9008_      00000  9619              SXNOTRC  PROC
 USING  *,R7
 00089E 94DF B47D      0047D        9658                       CLEAR CPGFSAMT
 0008A2 18D8/9808 D004_             9665                       PEND
 DROP   *,R7
                                    9685
 0008B0 50E0 D000/9008_      00000  9686              SXTCLR   PROC
 USING  *,R7
 0008CA 5810 C2AC/1211_      002AC  9725                       WHILE ('LT R1,CVXTRCP',NZ),BEGIN  Free all trace entries...
 0008D4 58E0 76CE/0DEE       00F98  9743  1                      ACALL FREEXTRC            Free this entry
 0008DA 47F0 7000            008CA  9747                       END
 0008DE 18D8/9808 D004_             9752                       PEND
 DROP   *,R7
                                    9772              *
                                    9773              *
 DROP   SSAMWA,R6                   9774                       DROP  R6
1SAM      (SAM2193) (12:54) (15MAR04) Common Control Blocks                                                                 Page   11
0Current Usings:  (CP,R11) (CV,R12)
0Loc    Object Code    Addr1 Addr2  Stmt Lv Lineno    Source Statement           (Hibal 5, Asmedit 3.3)  HLASM R4.0  2004/03/15 12.54
+___    ______ ____    _____ _____  ____ __ ______    ______ _________
0                                   9782              ¿þþþþþþþþþþþþþþþþþþþþþþþþþþþþþþþþþþþþþþþþþþþþþþþþþþþþþþþþþþþþþþþþþþþþþÜ
                                    9783              Ÿ                                                                     Ÿ
                                    9784              Ÿ  SHOWSAM -- SHOW SAMSON Command.                                    Ÿ
                                    9785              Ÿ                                                                     Ÿ
                                                      ¾þþþþþþþþþþþþþþþþþþþþþþþþþþþþþþþþþþþþþþþþþþþþþþþþþþþþþþþþþþþþþþþþþþþþþ»
00008EC 50E0 D000/9008_      00000  9786              SHOWSAM  XPROC
 USING  *,R7
 000906 5810 B08C/1B00_      0008C  9826                       SCAN  SHOWPRT             SHOW SAMSON Options
 000958 58E0 7682/0DEE       00F88  9858                       SCANCHK
                                    9863                       ¿þþþþþþþþþþþþþþþþþþþþþþþþþþÜ
                                    9864                       Ÿ  Not a Samson terminal.  Ÿ
                                    9865                       ¾þþþþþþþþþþþþþþþþþþþþþþþþþþ»
 00095E 9140 B3EA/4710_003EA        9866                       IF    ~CPSFSAM,BEGIN      Not a Samson terminal...
 000966 4110 76BC/4100_      00FC2  9881  1                      TSEG  'Not a Samson terminal.',,CR
 000978 4110 760A/4100_      00F10  9899  1                      TSEG  'If you are using Samson '
 00098A 4110 7622/4100_      00F28  9917  1                      TSEG  'issue the "SET TERMINAL SAMSON" command.',,CR
 00099C 1B00/41F0 B050_             9935  1                      TCR
 0009A8                             9960                       END
                                    9964
 0009A8 4110 7714/4100_      0101A  9965                       TSEG  'Samson options:',,CR
                                    9983
 0009BA 4110 7723/4100_      01029  9984                       TSEG  '  Type='
 0009CC 4110 BA23/4100_      00A23 10002                       SETMSG CPSAMTYP
 0009D4 D60F BA23 BA23_00A23 00A23 10016                       IF    (CPSAMTYP,Z),'CLEAR R0'
 0009E0 58E0 76A2/0DEE       00FA8 10041                       VCALL LRTRIM
 0009E6 1200/4770 70EE_            10045                       IF    (R0,Z),'SETMSG "(n/a)"'
 0009F4 41F0 B050/58E0_      00050 10068                       TSEG  (R1),(R0),T
                                   10092
 0009FE 4110 772F/4100_      01035 10093                       TSEG  ' Version='
 000A10 4110 BA33/4100_      00A33 10111                       SETMSG CPSAMVER
 000A18 D60F BA33 BA33_00A33 00A33 10125                       IF    (CPSAMVER,Z),'CLEAR R0'
 000A24 58E0 76A2/0DEE       00FA8 10150                       VCALL LRTRIM
 000A2A 1200/4770 7132_            10154                       IF    (R0,Z),'SETMSG "(n/a)"'
 000A38 41F0 B050/58E0_      00050 10177                       TSEG  (R1),(R0),T
                                   10201
 000A42 4110 76AA/4100_      00FB0 10202                       TSEG  ' OS='
 000A54 4110 BA43/4100_      00A43 10220                       SETMSG CPSAMOS
 000A5C D60F BA43 BA43_00A43 00A43 10234                       IF    (CPSAMOS,Z),'CLEAR R0'
 000A68 58E0 76A2/0DEE       00FA8 10259                       VCALL LRTRIM
 000A6E 1200/4770 7176_            10263                       IF    (R0,Z),'SETMSG "(n/a)"'
 000A7C 41F0 B050/58E0_      00050 10286                       TSEG  (R1),(R0),T
                                   10310
 000A86 4110 76D2/4100_      00FD8 10311                       TSEG  ' Terminal='
 000A98 4110 BA53/4100_      00A53 10329                       SETMSG CPSAMTRM
 000AA0 D607 BA53 BA53_00A53 00A53 10343                       IF    (CPSAMTRM,Z),'CLEAR R0'
 000AAC 58E0 76A2/0DEE       00FA8 10368                       VCALL LRTRIM
 000AB2 1200/4770 71BA_            10372                       IF    (R0,Z),'SETMSG "(n/a)"'
 000AC0 41F0 B050/58E0_      00050 10395                       TSEG  (R1),(R0),T
                                   10419
 000ACA 4110 76DC/4100_      00FE2 10420                       TSEG  ' Font='
 000ADC 4110 BA73/4100_      00A73 10438                       SETMSG CPSAMFONT
 000AE4 D60F BA73 BA73_00A73 00A73 10452                       IF    (CPSAMFONT,Z),'CLEAR R0'
 000AF0 58E0 76A2/0DEE       00FA8 10477                       VCALL LRTRIM
1SAM      (SAM2193) (12:54) (15MAR04) Common Control Blocks                                                                 Page   12
0Current Usings:  (*,R7) (CP,R11) (CV,R12)
0Loc    Object Code    Addr1 Addr2  Stmt Lv Lineno    Source Statement           (Hibal 5, Asmedit 3.3)  HLASM R4.0  2004/03/15 12.54
+___    ______ ____    _____ _____  ____ __ ______    ______ _________
0000AF6 1200/4770 71FE_            10481                       IF    (R0,Z),'SETMSG "(n/a)"'
 000B04 41F0 B050/58E0_      00050 10504                       TSEG  (R1),(R0),T
 000B0E 1B00/41F0 B050_            10528                       TCR
                                   10553
 000B1A 4110 76E2/4100_      00FE8 10554                       TSEG  '  Printer='
 000B2C 4110 BA5B/4100_      00A5B 10572                       SETMSG CPSAMLPR
 000B34 D617 BA5B BA5B_00A5B 00A5B 10586                       IF    (CPSAMLPR,Z),'CLEAR R0'
 000B40 58E0 76A2/0DEE       00FA8 10611                       VCALL LRTRIM
 000B46 1200/4770 724E_            10615                       IF    (R0,Z),'SETMSG "(n/a)"'
 000B54 41F0 B050/58E0_      00050 10638                       TSEG  (R1),(R0),T
                                   10662
 000B5E 4110 7738/4100_      0103E 10663                       TSEG  '  Protocol='
 000B70 4810 BA94/1B00_      00A94 10681                       TNUM  LH:CPSAMPRO
                                   10702
 000B80 4110 764A/4100_      00F50 10703                       TSEG  ' Dialog='
 000B92 4810 BAA4/1B00_      00AA4 10721                       TNUM  LH:CPSAMDV
                                   10742
 000BA2 4110 7652/4100_      00F58 10743                       TSEG  ' Buffer='
 000BB4 5810 BAA8/1B00_      00AA8 10761                       TNUM  L:CPSAMBUFF
                                   10783
 000BC4 D601 BA98 BA98_00A98 00A98 10784                       IF    (CPSAMTMO,Z),'TSEG " NoTimeout"'
 000BE0 72DE/47F0 7300 00BE0 00BCC 10823                       ELSE  BEGIN
 000BE4 4110 7743/4100_      01049 10834  1                      TSEG  ' Timeout='
 000BF6 4810 BA98/1B00_      00A98 10852  1                      TNUM  LH:CPSAMTMO
 000C06                            10873                       END
                                   10877
 000C06 D601 BAA2 BAA2_00AA2 00AA2 10878                       IF    (CPSAMSPD,Z),'TSEG " NoSpeed"'
 000C22 7320/47F0 7344 00C22 00C0E 10917                       ELSE  BEGIN
 000C26 4110 774C/4100_      01052 10928  1                      TSEG  ' Speed='
 000C38 1F11/BF13 BAA2_            10946  1                      TNUM  L2:CPSAMSPD
 000C4A                            10974                       END
                                   10978
 000C4A 4110 7753/4100_      01059 10979                       SETMSG ' 8bit'
 000C52 910C BA22/47E0_00A22       10983                       IF    CPSAMF7BIT,'SETMSG " 7bit"'
 000C62 7360/47F0 7370_00C62 00C58 11007                       ELSEIF CPSAMFPCK,'SETMSG " Packed"'
 000C76 7374/47F0 7384_00C76 00C6C 11040                       ELSEIF CPSAMFHEX,'SETMSG " Hex"'
 000C8A 41F0 B050/58E0_      00050 11073                       TSEG  (R1),(R0)
                                   11097
 000C94 4110 7662/4100_      00F68 11098                       SETMSG ' NoCheck'
 000C9C 9102 BA22/47E0_00A22       11102                       IF    CPSAMFCKS,'SETMSG " Checksum"'
 000CAC 73AA/47F0 73BA_00CAC 00CA2 11126                       ELSEIF CPSAMFCRC,'SETMSG " CRC"'
 000CC0 41F0 B050/58E0_      00050 11159                       TSEG  (R1),(R0)
 000CCA 1B00/41F0 B050_            11183                       TCR
                                   11208
 000CD6 4110 C4D8/4100_      004D8 11209                       SETMSG CVBLANKS,2
 000CDE D601 BA9A BA9A_00A9A 00A9A 11225                       IF    (CPSAMHEI,NZ),BEGIN
 000CE8 41F0 B050/58E0_      00050 11241  1                      TSEG  (R1),(R0)
 000CF2 4110 776D/4100_      01073 11265  1                      TSEG  'Height='
 000D04 4810 BA9A/1B00_      00A9A 11283  1                      TNUM  LH:CPSAMHEI
 000D14 4110 C4D8/4100_      004D8 11304  1                      SETMSG CVBLANKS,1
 000D1C                            11320                       END
                                   11324
 000D1C D601 BA9C BA9C_00A9C 00A9C 11325                       IF    (CPSAMWID,NZ),BEGIN
 000D26 41F0 B050/58E0_      00050 11341  1                      TSEG  (R1),(R0)
1SAM      (SAM2193) (12:54) (15MAR04) Common Control Blocks                                                                 Page   13
0Current Usings:  (*,R7) (CP,R11) (CV,R12)
0Loc    Object Code    Addr1 Addr2  Stmt Lv Lineno    Source Statement           (Hibal 5, Asmedit 3.3)  HLASM R4.0  2004/03/15 12.54
+___    ______ ____    _____ _____  ____ __ ______    ______ _________
0000D30 4110 76F6/4100_      00FFC 11365  1                      TSEG  'Width='
 000D42 4810 BA9C/1B00_      00A9C 11383  1                      TNUM  LH:CPSAMWID
 000D52 4110 C4D8/4100_      004D8 11404  1                      SETMSG CVBLANKS,1
 000D5A                            11420                       END
                                   11424
 000D5A D601 BA9E BA9E_00A9E 00A9E 11425                       IF    (CPSAMALH,NZ),BEGIN
 000D64 41F0 B050/58E0_      00050 11441  1                      TSEG  (R1),(R0)
 000D6E 4110 7774/4100_      0107A 11465  1                      TSEG  'Alt-height='
 000D80 4810 BA9E/1B00_      00A9E 11483  1                      TNUM  LH:CPSAMALH
 000D90 4110 C4D8/4100_      004D8 11504  1                      SETMSG CVBLANKS,1
 000D98                            11520                       END
                                   11524
 000D98 D601 BAA0 BAA0_00AA0 00AA0 11525                       IF    (CPSAMALW,NZ),BEGIN
 000DA2 41F0 B050/58E0_      00050 11541  1                      TSEG  (R1),(R0)
 000DAC 4110 76FC/4100_      01002 11565  1                      TSEG  'Alt-width='
 000DBE 4810 BAA0/1B00_      00AA0 11583  1                      TNUM  LH:CPSAMALW
 000DCE 4110 C4D8/4100_      004D8 11604  1                      SETMSG CVBLANKS,1
 000DD6                            11620                       END
 000DD6 D603 B05C B05C_0005C 0005C 11624                       TCCR
                                   11686
 000DF6 4110 C4D8/4100_      004D8 11687                       TSEG  CVBLANKS,2
 000E08 9108 B47D/47E0_0047D       11717                       IF    CPGFSAMSLOW,'TSEG "SlowFTP "'
 000E22 7520/47F0 7532_00E22 00E0E 11755                       ELSE  'TSEG "FastFTP "'
                                   11789
 000E38 9104 B47D/47E0_0047D       11790                       IF    CPGFSAMNFTPCRYPT,'TSEG "NoFTPCrypt "'
                                   11828
 000E52 9110 B47D/4710_0047D       11829                       IF    ~CPGFSAMD,'TSEG "No"'
 000E6C 4110 7708/4100_      0100E 11867                       TSEG  'Debug '
                                   11885
 000E7E 9120 B47D/4710_0047D       11886                       IF    ~CPGFSAMT,'TSEG "No"'
 000E98 4110 770E/4100_      01014 11924                       TSEG  'Trace '
                                   11942
 000EAA 47F0 C7DE            007DE 11943                       B     CVNEXT
 000EAE 18D8/9808 D004_            11944                       PEND
 DROP   *,R7
                                   11964                       ¿þþþþþþþþþþþþþþþþþþþþþþþÜ
                                   11965                       Ÿ  SHOW SAMSON Options  Ÿ
                                   11966                       ¾þþþþþþþþþþþþþþþþþþþþþþþ»
 000EBC E3D9C1C3C5404040_          11967              SHOWPRT  SCKW  TRACE,SHOWTRC,A
 000EE4 4040404040404040_          11982                       SCKW  ,V(NOTVALID)
                                   11997
                                   11998                       QLTORG
                                   12059
1SAM      (SAM2193) (12:54) (15MAR04) Common Control Blocks                                                                 Page   14
0Current Usings:  (CP,R11) (CV,R12)
0Loc    Object Code    Addr1 Addr2  Stmt Lv Lineno    Source Statement           (Hibal 5, Asmedit 3.3)  HLASM R4.0  2004/03/15 12.54
+___    ______ ____    _____ _____  ____ __ ______    ______ _________
0                                  12061              ¿þþþþþþþþþþþþþþþþþþþþþþþþþþþþþþþþþþþþþþþþþþþþþþþþþþþþþþþþþþþþþþþþþþþþþÜ
                                   12062              Ÿ                                                                     Ÿ
                                   12063              Ÿ  XTRC -- Samson file-transfer trace entry                           Ÿ
                                   12064              Ÿ                                                                     Ÿ
                                                      ¾þþþþþþþþþþþþþþþþþþþþþþþþþþþþþþþþþþþþþþþþþþþþþþþþþþþþþþþþþþþþþþþþþþþþþ»
0000000                00000 0001A 12065              XTRC     RECORD BEGIN
 000000                            12073  1           XTRCSTRT   DS    CL4'XTRC'           Self identification
 000004                            12074  1           XTRCLINK   DS    A                   Next XTRC ptr (or zero)
 000008                            12075  1           XTRCCLCK   DS    D                   Time stamp
                                   12076  1
 000010                            12077  1           XTRCSNO    DS    H                   Session number
 000012                            12078  1           XTRCACCT   DS    CL5                 Session account (uuugg)
                                   12079  1
 000017 00                         12080  1           XTRCFLAG   FLAG
 XTRCFLAG.XTRCFOUT 80 ONES         12084  1                      FLAG  XTRCFOUT            - Input buffer
 XTRCFLAG.XTRCFIN  40 ONES         12089  1                      FLAG  XTRCFIN             - Output buffer
 XTRCFLAG.XTRCFMSG 20 ONES         12094  1                      FLAG  XTRCFMSG            - Message text
                                   12099  1
 000018                            12100  1           XTRCDLEN   DS    H                   Data length
                                   12101  1           XTRCHDR    EQU   XTRCSTRT,*-XTRCSTRT,C'X'
                                   12102  1
 00001A                            12103  1           XTRCDATA   DS    0X                  Data starts here (variable len)
 00001A                0001A 0001A 12104                       END
1SAM      (SAM2193) (12:54) (15MAR04) Common Control Blocks                                                                 Page   15
0Current Usings:  (CP,R11) (CV,R12)
0Loc    Object Code    Addr1 Addr2  Stmt Lv Lineno    Source Statement           (Hibal 5, Asmedit 3.3)  HLASM R4.0  2004/03/15 12.54
+___    ______ ____    _____ _____  ____ __ ______    ______ _________
0                                  12114              ¿þþþþþþþþþþþþþþþþþþþþþþþþþþþþþþþþþþþþþþþþþþþþþþþþþþþþþþþþþþþþþþþþþþþþþÜ
                                   12115              Ÿ                                                                     Ÿ
                                   12116              Ÿ  SAMTRC -- Routine to queue a trace buffer for debugging (if        Ÿ
                                   12117              Ÿ    the user has set Samson tracing).                                Ÿ
                                   12118              Ÿ                                                                     Ÿ
                                   12119              Ÿ    On entry:                                                        Ÿ
                                   12120              Ÿ      R1,R0 - data loc, len                                          Ÿ
                                   12121              Ÿ      R15 - type of trace:                                           Ÿ
                                   12122              Ÿ              0 - output buffer                                      Ÿ
                                   12123              Ÿ              1 - input buffer                                       Ÿ
                                   12124              Ÿ              2 - message text                                       Ÿ
                                   12125              Ÿ                                                                     Ÿ
                                                      ¾þþþþþþþþþþþþþþþþþþþþþþþþþþþþþþþþþþþþþþþþþþþþþþþþþþþþþþþþþþþþþþþþþþþþþ»
0001090 50E0 D000/9008_      00000 12126              SAMTRC   PROC
 USING  *,R7
                                   12165                       ¿þþþþþþþþþþþþþþþþþþþþþþþþþþþþþþþþþþþþþþþþþþþþþþþþþþþþþþþþÜ
                                   12166                       Ÿ  Only save the buffer if Samson tracing is requested.  Ÿ
                                   12167                       ¾þþþþþþþþþþþþþþþþþþþþþþþþþþþþþþþþþþþþþþþþþþþþþþþþþþþþþþþþ»
 0010AA 9120 B47D/47E0_0047D       12168                       IF    CPGFSAMT,BEGIN      Samson tracing...
 0010B2 185F                       12183  1                      LR    R5,R15
 0010B4 1841                       12184  1                      LR    R4,R1
 0010B6 1830                       12185  1                      LR    R3,R0
                                   12186  1
 0010B8 4A00 7486            01530 12187  1                      AH    R0,=AL2(L'XTRCHDR)  Get a new trace buffer
 0010BC 4510 7016/0A0A       010C0 12188  1                      GETMAIN R,LV=(0)
 0010C2 1861                       12192  1                      LR    R6,R1
 USING  XTRC,R6                    12193  1                      WITH  (XTRC,R6)
 0010C4 D719 6000 6000 00000 00000 12206  1                      CLEAR XTRCHDR
 0010CA D203 6000 743E 00000 014E8 12213  1                      MVC   XTRC(4),=C'XTRC'    Set self-identification
 0010D0 D203 6004 C2AC 00004 002AC 12214  1                      MVC   XTRCLINK,CVXTRCP    Set our queue link ptr
 0010D6 58E0 7442/0DEE       014EC 12215  1                      VCALL LOCALTOD            Time stamp
 0010DC 9001 6008            00008 12219  1                      STM   R0,R1,XTRCCLCK
                                   12220  1
 0010E0 5950 7446/4770_      014F0 12221  1                      IF    (R5,EQ,0),'SET XTRCFOUT'  Terminal output buffer
 0010EC 5950 744A/4770_      014F4 12249  1                      IF    (R5,EQ,1),'SET XTRCFIN'   Terminal input buffer
 0010F8 5950 744E/4770_      014F8 12277  1                      IF    (R5,EQ,2),'SET XTRCFMSG'  Message text
                                   12305  1
 001104 58F0 C1C8            001C8 12306  1                      L     R15,CVCURJCB
 001108 D201 6010 F048 00010 00048 12307  1                      WITH  (JCB,R15),'MVC XTRCSNO,JCBSEQ'  Save session number
 USING  JCB,R15
 DROP   JCB,R15
 00110E D204 6012 B3B4 00012 003B4 12331  1                      MVC   XTRCACCT,CPSACCT    Save account
                                   12332  1
 001114 4030 6018            00018 12333  1                      STH   R3,XTRCDLEN         Save data length
 001118 41E0 601A/18F3_      0001A 12334  1                      MOVEL XTRCDATA,(R4),(R3)  Save data
                                   12354  1                      ¿þþþþþþþþþþþþþþþþþþþþþþþþþþþþþþþþþþþþþþþþþÜ
                                   12355  1                      Ÿ  Now link this new Samson trace entry.  Ÿ
                                   12356  1                      ¾þþþþþþþþþþþþþþþþþþþþþþþþþþþþþþþþþþþþþþþþþ»
 001124 5060 C2AC            002AC 12357  1                      ST    R6,CVXTRCP          Set new Samson trace queue head
                                   12358  1
 001128 41F0 0001/4AF0_      00001 12359  1                      INCR  R15,CVXNTRC         Keep count of number of entries
1SAM      (SAM2193) (12:54) (15MAR04) Common Control Blocks                                                                 Page   16
0Current Usings:  (XTRC,R6) (*,R7) (CP,R11) (CV,R12)
0Loc    Object Code    Addr1 Addr2  Stmt Lv Lineno    Source Statement           (Hibal 5, Asmedit 3.3)  HLASM R4.0  2004/03/15 12.54
+___    ______ ____    _____ _____  ____ __ ______    ______ _________
0                                  12365  1                      ¿þþþþþþþþþþþþþþþþþþþþþþþþÜ
                                   12366  1                      Ÿ  Free oldest entries.  Ÿ
                                   12367  1                      ¾þþþþþþþþþþþþþþþþþþþþþþþþ»
 001134 D501 7488 C2B0_01532 002B0 12368  1                      WHILE (CVXNTRC,GT,=Y(CVXTRC#)),'CLEAR R1; LCALL FREEXTRC'
 DROP   XTRC,R6                    12399                       END
 001148 18D8/9808 D004_            12408                       PEND
 DROP   *,R7
1SAM      (SAM2193) (12:54) (15MAR04) Common Control Blocks                                                                 Page   17
0Current Usings:  (CP,R11) (CV,R12)
0Loc    Object Code    Addr1 Addr2  Stmt Lv Lineno    Source Statement           (Hibal 5, Asmedit 3.3)  HLASM R4.0  2004/03/15 12.54
+___    ______ ____    _____ _____  ____ __ ______    ______ _________
0                                  12429              ¿þþþþþþþþþþþþþþþþþþþþþþþþþþþþþþþþþþþþþþþþþþþþþþþþþþþþþþþþþþþþþþþþþþþþþÜ
                                   12430              Ÿ                                                                     Ÿ
                                   12431              Ÿ  FREEXTRC -- Routine to free a trace entry.                         Ÿ
                                   12432              Ÿ                                                                     Ÿ
                                   12433              Ÿ    On entry:                                                        Ÿ
                                   12434              Ÿ      R1 - XTRC ptr of entry to free;                                Ÿ
                                   12435              Ÿ             or zero to free last (oldest) entry.                    Ÿ
                                   12436              Ÿ                                                                     Ÿ
                                   12437              Ÿ    On exit, R15 (and cc):                                           Ÿ
                                   12438              Ÿ      0 - no entries left in trace queue                             Ÿ
                                   12439              Ÿ      nz- there are still entries in the trace queue                 Ÿ
                                   12440              Ÿ                                                                     Ÿ
                                                      ¾þþþþþþþþþþþþþþþþþþþþþþþþþþþþþþþþþþþþþþþþþþþþþþþþþþþþþþþþþþþþþþþþþþþþþ»
0001156 50E0 D000/9008_      00000 12441              FREEXTRC PROC
 USING  *,R7
 001170 1861                       12480                       LR    R6,R1               XTRC ptr
                                   12481                       ¿þþþþþþþþþþþþþþþþþþþþþþþþþþþþþþþþþþþþþþþþþþþþþþþþþþþþþþþþþþþþþÜ
                                   12482                       Ÿ  Find the previous XTRC entry so we can unlink this entry.  Ÿ
                                   12483                       ¾þþþþþþþþþþþþþþþþþþþþþþþþþþþþþþþþþþþþþþþþþþþþþþþþþþþþþþþþþþþþþ»
 001172 1B55                       12484                       CLEAR R5                  Previous entry ptr
 001174 58F0 C2AC/12FF       002AC 12488                       LT    R15,CVXTRCP         First entry ptr
 00117A 4770 7026/900F_      01196 12492                       FAIL  Z,XTRCERR1,'Free XTRC logic error.'
                                   12515
 001196                            12516                       LOOP  BEGIN               Go through XTRC entries...
 USING  XTRC,R15                   12522  1                      WITH  (XTRC,R15)
                                   12535  1
 001196 1266/4770 703C_            12536  1                      IF    ((R6,Z),AND,(XTRCLINK,Z)),BEGIN  Free last entry...
 0011A6 186F                       12565  2                        LR    R6,R15              Set current ptr to last entry
 0011A8 47F0 706A            011DA 12566  2                        B     FXTRCOM
 0011AC                            12567  1                      END
                                   12571  1
 0011AC 196F/4780 706A             12572  1                      IF    (R6,EQ,R15),FXTRCOM  Matched the entry, scram
                                   12590  1
 0011B2 185F                       12591  1                      LR    R5,R15              Save previous entry ptr
 0011B4 58F0 F004/12FF       00004 12592  1                      LT    R15,XTRCLINK        Next XTRC entry
 0011BA 4770 7066/900F_      011D6 12596  1                      FAIL  Z,XTRCERR2,'Free XTRC logic error.'
 0011D6 47F0 7026            01196 12619                       END
 DROP   XTRC,R15
                                   12629                       ¿þþþþþþþþþþþþþþþþþþþþþþþþþþþÜ
                                   12630                       Ÿ  Dequeue our XTRC entry.  Ÿ
                                   12631                       ¾þþþþþþþþþþþþþþþþþþþþþþþþþþþ»
 0011DA 1255/4770 7076             12632              FXTRCOM  IF    (R5,Z),BEGIN        We are removing the 1st entry...
 0011E0 D203 C2AC 6004 002AC 00004 12647  1                      MVC   CVXTRCP,XTRCLINK-XTRC(R6)  Set new queue head
 0011E6                            12648                       END
                                   12652
 0011E6 707A/47F0 70A2 011E6 011DE 12653                       ELSE  BEGIN               Dequeue...
 USING  XTRC,R5                    12664  1                      WITH  (XTRC,R5)
 0011EA D503 7378 5000_014E8 00000 12677  1                      FAIL  (XTRC,NE,'XTRC'),XTRCERR3,'Free XTRC logic error.'
 00120C D203 5004 6004 00004 00004 12706  1                      MVC   XTRCLINK,XTRCLINK-XTRC(R6)  Dequeue our entry
 DROP   XTRC,R5                    12707                       END
1SAM      (SAM2193) (12:54) (15MAR04) Common Control Blocks                                                                 Page   18
0Current Usings:  (*,R7) (CP,R11) (CV,R12)
0Loc    Object Code    Addr1 Addr2  Stmt Lv Lineno    Source Statement           (Hibal 5, Asmedit 3.3)  HLASM R4.0  2004/03/15 12.54
+___    ______ ____    _____ _____  ____ __ ______    ______ _________
0                                  12716                       ¿þþþþþþþþþþþþþþþþþþþþþþþþÜ
                                   12717                       Ÿ  Free the XTRC entry.  Ÿ
                                   12718                       ¾þþþþþþþþþþþþþþþþþþþþþþþþ»
 USING  XTRC,R6                    12719                       WITH  (XTRC,R6),BEGIN
 001212 D503 7378 6000_014E8 00000 12733  1                      FAIL  (XTRC,NE,'XTRC'),XTRCERR4,'Free XTRC logic error.'
 001234 D203 6000 738C 00000 014FC 12762  1                      MVC   XTRC(4),=C'OXTR'    Neatness
 00123A D203 6004 7390 00004 01500 12763  1                      MVC   XTRCLINK,=F'-1'     (Ditto)
                                   12764  1
 001240 4110 6000            00000 12765  1                      LA    R1,XTRC
 001244 4100 001A            0001A 12766  1                      LA    R0,L'XTRCHDR        XTRC header...
 001248 4A00 6018            00018 12767  1                      AH    R0,XTRCDLEN         ...plus buffer (variable length)
 00124C 4110 1000/0A0A       00000 12768  1                      FREEMAIN R,A=(1),LV=(0)
                                   12772  1
 001252 48F0 C2B0/06F0_      002B0 12773  1                      DECR  R15,CVXNTRC         Decrement number of trace entries
 DROP   XTRC,R6                    12778                       END
                                   12786
 00125C 58F0 C2AC            002AC 12787                       L     R15,CVXTRCP         Set CC for caller
 001260 18D8/9808 D004_            12788                       PEND
 DROP   *,R7
1SAM      (SAM2193) (12:54) (15MAR04) Common Control Blocks                                                                 Page   19
0Current Usings:  (CP,R11) (CV,R12)
0Loc    Object Code    Addr1 Addr2  Stmt Lv Lineno    Source Statement           (Hibal 5, Asmedit 3.3)  HLASM R4.0  2004/03/15 12.54
+___    ______ ____    _____ _____  ____ __ ______    ______ _________
0                                  12809              ¿þþþþþþþþþþþþþþþþþþþþþþþþþþþþþþþþþþþþþþþþþþþþþþþþþþþþþþþþþþþþþþþþþþþþþÜ
                                   12810              Ÿ                                                                     Ÿ
                                   12811              Ÿ  SHOWTRC -- SHOW SAMSON TRACE Routine.                              Ÿ
                                   12812              Ÿ                                                                     Ÿ
                                                      ¾þþþþþþþþþþþþþþþþþþþþþþþþþþþþþþþþþþþþþþþþþþþþþþþþþþþþþþþþþþþþþþþþþþþþþ»
000126E 50E0 D000/9008_      00000 12813              SHOWTRC  PROC
 USING  *,R7
 001288 9120 B3BE/4710_003BE       12852                       IF    ~CPSFSPR,'VCALL NOTVALID'  Priv'd
                                   12876                       ¿þþþþþþþþþþþþþþþÜ
                                   12877                       Ÿ  Title line.  Ÿ
                                   12878                       ¾þþþþþþþþþþþþþþþ»
 001296 D603 C2AC C2AC_002AC 002AC 12879                       IF    (CVXTRCP,Z),BEGIN   No trace entries...
 0012A0 4110 72D6/4100_      0155E 12895  1                      SETMSG 'Samson buffer trace table is empty.'
 0012A8 47F0 C7D0            007D0 12899  1                      B     CVNXTMSG
 0012AC                            12900                       END
                                   12904
 0012AC 4110 72F9/4100_      01581 12905                       TSEG  'Samson buffer trace',,CR
                                   12923                       ¿þþþþþþþþþþþþþþþþþþþþþþþþþþþþþþþþþþþþþþþÜ
                                   12924                       Ÿ  Step through the trace entry queue.  Ÿ
                                   12925                       ¾þþþþþþþþþþþþþþþþþþþþþþþþþþþþþþþþþþþþþþþ»
 0012BE 4160 C2A8            002A8 12926                       LA    R6,CVXTRCP-(XTRCLINK-XTRC)  Dummy first link
 0012C2                            12927                       LOOP  BEGIN
 USING  XTRC,R6                    12933  1                      WITH  (XTRC,R6)
 0012C2 5860 6004/1266_      00004 12946  1                      WHILE ('LT R6,XTRCLINK',NZ)  Go through buffers...
 0012CC 4110 730C/4100_      01594 12963  1                      TSEG  '-------------------',,CR
 0012DE 1B00/41F0 B050_            12981  1                      TCR
                                   13006  1                      ¿þþþþþþþþþþþþþþþþþþþþþþþþþþþÜ
                                   13007  1                      Ÿ  Format the trace entry.  Ÿ
                                   13008  1                      ¾þþþþþþþþþþþþþþþþþþþþþþþþþþþ»
 0012EA D503 7260 6000_014E8 00000 13009  1                      IF    (XTRC,NE,'XTRC'),BEGIN  Shucks...
 0012F4 4110 72AC/4100_      01534 13026  2                        SETMSG 'Bad trace entry queue!'
 0012FC 47F0 C7D0            007D0 13030  2                        B     CVNXTMSG
 001300                            13031  1                      END
                                   13035  1
 001300 9801 6008            00008 13036  1                      LM    R0,R1,XTRCCLCK      Get time stamp
 001304 18FD/41D0 D00C             13037  1                      XPUSH ,,11,PTR=R15
 00130A 58E0 7284/0DEE       0150C 13040  1                      VCALL FMTTIME             Get "hh:mm:ss.th"
 001310 41F0 B050/58E0_      00050 13044  1                      TSEG  (R1),(R0),B
 00131A 4110 731F/4100_      015A7 13068  1                      TSEG  'Line '
 00132C 4810 6010/4100_      00010 13086  1                      TNUM  LH:XTRCSNO,3        Session number
 00133E 4110 C4D8/4100_      004D8 13110  1                      TSEG  CVBLANKS,1
 001350 4110 6015/4100_      00015 13140  1                      TSEG  XTRCACCT+3,2        gg
 001362 4110 7324/4100_      015AC 13170  1                      TSEG  '.'
 001374 4110 6012/4100_      00012 13188  1                      TSEG  XTRCACCT,3          uuu
                                   13218  1
 001386 4110 72C2/4100_      0154A 13219  1                      SETMSG '  ??? '
 00138E 9180 6017/47E0_00017       13223  1                      IF    XTRCFOUT,'SETMSG "  OUTPUT "'
 00139E 9140 6017/47E0_00017       13247  1                      IF    XTRCFIN,'SETMSG "  INPUT "'
 0013AE 9120 6017/47E0_00017       13271  1                      IF    XTRCFMSG,'SETMSG "  MESSAGE "'
 0013BE 41F0 B050/58E0_      00050 13295  1                      TSEG  (R1),(R0)
                                   13319  1
 0013C8 4110 732E/4100_      015B6 13320  1                      TSEG  '('
 0013DA 4810 6018/1B00_      00018 13338  1                      TNUM  LH:XTRCDLEN
1SAM      (SAM2193) (12:54) (15MAR04) Common Control Blocks                                                                 Page   20
0Current Usings:  (XTRC,R6) (*,R7) (CP,R11) (CV,R12)
0Loc    Object Code    Addr1 Addr2  Stmt Lv Lineno    Source Statement           (Hibal 5, Asmedit 3.3)  HLASM R4.0  2004/03/15 12.54
+___    ______ ____    _____ _____  ____ __ ______    ______ _________
00013EA 4110 732F/4100_      015B7 13359  1                      TSEG  ' chars)',,CR
 0013FC 1B00/41F0 B050_            13377  1                      TCR
                                   13402  1
 001408 4820 6018            00018 13403  1                      LH    R2,XTRCDLEN
 00140C 5920 7294/47D0_      0151C 13404  1                      CEIL  R2,4000             Be reasonable
 001418 183D/1AD2/41D0_            13423  1                      XPUSH ,,(R2),PTR=R3
 001424 18E3/18F2/4100_            13428  1                      MOVEL (R3),XTRCDATA,(R2)  Copy trace data
                                   13448  1                      ¿þþþþþþþþþþþþþþþþþþþþþþþþþþþþþþþþþþþþþþþþþþþþþþþþþþþþþþþþÜ
                                   13449  1                      Ÿ  Trace data is in ASCII.  Convert it to EBCDIC before  Ÿ
                                   13450  1                      Ÿ    printing.                                           Ÿ
                                   13451  1                      ¾þþþþþþþþþþþþþþþþþþþþþþþþþþþþþþþþþþþþþþþþþþþþþþþþþþþþþþþþ»
 001430 9120 6017/4710_00017       13452  1                      IF    ~XTRCFMSG,BEGIN     Don't translate message...
 001438 9023 D000/41D0_      00000 13467  2                        XPUSH R2,R3
                                   13470  2
 001440 5840 C8B4            008B4 13471  2                        L     R4,CVEBCTBL         ASCII to EBCDIC translate table
 001444 1222/47D0 71E2             13472  2                        WHILE (R2,POS),BEGIN      Convert to EBCDIC...
 00144A 18F2                       13488  3                          LR    R15,R2              Length
 00144C 59F0 729C/47D0_      01524 13489  3                          CEIL  R15,256             Not too much
 001458 06F0/44F0 7336_            13508  3                          DEX   R15,'TR @R3(0),@R4'    Translate a bit at a time
                                   13527  3
 00145E 4130 3100            00100 13528  3                          LA    R3,@R3+256
 001462 4B20 72D2            0155A 13529  3                          SH    R2,=H'256'
 001466 47F0 71BC            01444 13530  2                        END
                                   13535  2
 00146A 4BD0 72D4/9823_      0155C 13536  2                        XPOP  R2,R3
 001472                            13539  1                      END
                                   13543  1
 001472 1853                       13544  1                      LR    R5,R3
 001474 1842                       13545  1                      LR    R4,R2
 001476 1244/47D0 7234             13546  1                      WHILE (R4,POS),BEGIN      Write a bit at a time...
 00147C 1824                       13562  2                        LR    R2,R4
 00147E 5920 72A0/47D0_      01528 13563  2                        CEIL  R2,64
 00148A 1813/1802                  13582  2                        SETMSG (R3),(R2)           EBCDIC data
 00148E 58E0 72A4/0DEE       0152C 13594  2                        VCALL MIXFMT              Display buffer text
 001494 D603 B05C B05C_0005C 0005C 13598  2                        TCCR
 0014B4 1A32                       13660  2                        AR    R3,R2               Skip past displayed stuff
 0014B6 1B42                       13661  2                        SR    R4,R2               Reduce length
 0014B8 47F0 71EE            01476 13662  1                      END
                                   13667  1
 0014BC 1B00/41F0 B050_            13668  1                      TCR
                                   13693  1
 0014C8 18D5                       13694  1                      XPOP  PTR=R5              Restore stack
 0014CA 47F0 703A            012C2 13696                       END
 DROP   XTRC,R6
                                   13706
 0014CE 47F0 C7DE            007DE 13707                       B     CVNEXT
 0014D2 18D8/9808 D004_            13708                       PEND  ,
 DROP   *,R7
                                   13728
                                   13729                       QLTORG
1SAM      (SAM2193) (12:54) (15MAR04) Common Control Blocks                                                                 Page   21
0Current Usings:  (CP,R11) (CV,R12)
0Loc    Object Code    Addr1 Addr2  Stmt Lv Lineno    Source Statement           (Hibal 5, Asmedit 3.3)  HLASM R4.0  2004/03/15 12.54
+___    ______ ____    _____ _____  ____ __ ______    ______ _________
0                                  13776              ¿þþþþþþþþþþþþþþþþþþþþþþþþþþþþþþþþþþþþþþþþþþþþþþþþþþþþþþþþþþþþþþþþþþþþþÜ
                                   13777              Ÿ                                                                     Ÿ
                                   13778              Ÿ  Samson Device Work Area                                            Ÿ
                                   13779              Ÿ                                                                     Ÿ
                                                      ¾þþþþþþþþþþþþþþþþþþþþþþþþþþþþþþþþþþþþþþþþþþþþþþþþþþþþþþþþþþþþþþþþþþþþþ»
0000000                00000 02ACC 13780              SAMWA    RECORD BEGIN
 000000                            13788  1                      DS    C'SAM '
                                   13789  1
 000004 00                         13790  1           SAMFLAG    FLAG
 SAMFLAG.SAMFOPEN  80 ONES         13794  1                      FLAG  SAMFOPEN            - File is open
 SAMFLAG.SAMFWRITE 40 ONES         13799  1                      FLAG  SAMFWRITE           - File write operation (SAVE)
 SAMFLAG.SAMFFAST  20 ONES         13804  1                      FLAG  SAMFFAST            - Use fast file transfer
 SAMFLAG.SAMFASCII 10 ONES         13809  1                      FLAG  SAMFASCII8          - Data is 8-bit ASCII
 SAMFLAG.SAMFNETHD 08 ONES         13814  1                      FLAG  SAMFNETHDR          - SAMDATA header needed
 SAMFLAG.SAMFERET  04 ONES         13819  1                      FLAG  SAMFERET            - Return even if error packet
 SAMFLAG.SAMFERC   02 ONES         13824  1                      FLAG  SAMFERC             - Packet error received
 SAMFLAG.SAMFBREAK 01 ONES         13829  1                      FLAG  SAMFBREAK           - Packet BREAK receieved
                                   13834  1
 000005 00                         13835  1           SAMFLAG2   FLAG
 SAMFLAG2.SAMFWEOL 80 ONES         13839  1                      FLAG  SAMFWEOL            - End of line terminator needed
 SAMFLAG2.SAMFWTXT 40 ONES         13844  1                      FLAG  SAMFWTXT            - Last last was a "text" line
 SAMFLAG2.SAMFEOF  20 ONES         13849  1                      FLAG  SAMFEOF             - This packet ends with eof
 SAMFLAG2.SAMFNORE 10 ONES         13854  1                      FLAG  SAMFNORETRY         - No packet retrying wanted
                                   13859  1
 000006 00                         13860  1           SAMFLAG3   FLAG
 SAMFLAG3.SAMFTRAN 80 ONES         13864  1                      FLAG  SAMFTRAN            - Transparent
 SAMFLAG3.SAMFDTRA 40 ONES         13869  1                      FLAG  SAMFDTRAN           - Data transparent
 SAMFLAG3.SAMFSTRM 20 ONES         13874  1                      FLAG  SAMFSTRM            - Stream
 SAMFLAG3.SAMFASCI 10 ONES         13879  1                      FLAG  SAMFASCII           - Ascii
 SAMFLAG3.SAMFEBCD 08 ONES         13884  1                      FLAG  SAMFEBCDIC          - Ebcdic
 SAMFLAG3.SAMFUFMT 04 ONES         13889  1                      FLAG  SAMFUFMT            - Unformatted
 SAMFLAG3.SAMFTEXT 02 ONES         13894  1                      FLAG  SAMFTEXTONLY        - Text Only
                                   13899  1
 000007 00                         13900  1           SAMFLAG4   FLAG
 SAMFLAG4.SAMFSPLT 80 ONES         13904  1                      FLAG  SAMFSPLT            - Wrap at blank
 SAMFLAG4.SAMFAPP  40 ONES         13909  1                      FLAG  SAMFAPP             - Append
 SAMFLAG4.SAMFTABS 20 ONES         13914  1                      FLAG  SAMFTABS            - Allow tabs, do not expand
                                   13919  1
 000008                            13920  1           SAMFNAMEL   DS   F                   File name length
 00000C                            13921  1           SAMFNAME   DS    XL(L'FFNAME)        File name
                                   13922  1
 00008C                            13923  1           SAMOLDFNL   DS   F                   Old file name length (rename)
 000090                            13924  1           SAMOLDFN   DS    A                   Old file name location
 000094                            13925  1           SAMNEWFNL   DS   F                   New file name length (rename)
 000098                            13926  1           SAMNEWFN   DS    A                   New file name location
 00009C                            13927  1           SAMLIKLN   DS    F                   Like string length (show dir)
 0000A0                            13928  1           SAMLIKE    DS    A                   Like string location
 0000A4                            13929  1           SAMFRMLN   DS    F                   From string length (show dir)
 0000A8                            13930  1           SAMFROM    DS    A                   From string location
 0000AC                            13931  1           SAMTOLN    DS    F                   To string length (show dir)
 0000B0                            13932  1           SAMTO      DS    A                   To string location
                                   13933  1
 0000B4                            13934  1           SAMOHEAP   DS    F                   Old heap ptr
1SAM      (SAM2193) (12:54) (15MAR04) Common Control Blocks                                                                 Page   22
0Current Usings:  (CP,R11) (CV,R12)
0Loc    Object Code    Addr1 Addr2  Stmt Lv Lineno    Source Statement           (Hibal 5, Asmedit 3.3)  HLASM R4.0  2004/03/15 12.54
+___    ______ ____    _____ _____  ____ __ ______    ______ _________
00000B8                            13935  1           SAMNHEAP   DS    F                   Current heap ptr
                                   13936  1
 0000BC                            13937  1           SAMSEED    DS    CL32                Encryption seed
                                   13938  1
 0000DC                            13939  1           SAMWRAPL   DS    H                   Wrap length
                                   13940  1
 0000DE 00                         13941  1           SAMSGFLG   FLAG  ,                   Seg flags
 SAMSGFLG.SAMFDATA 80 ONES         13945  1                      FLAG  SAMFDATA            - Writing packet data
 SAMSGFLG.SAMFCTRL 40 ONES         13950  1                      FLAG  SAMFCTRL            - Writing control data
 SAMSGFLG.SAMFSGTR 20 ONES         13955  1                      FLAG  SAMFSGTRAN          - Transparent mode
 SAMSGFLG.SAMFSHIF 10 ONES         13960  1                      FLAG  SAMFSHIFT           - Shift-in sequence was sent
 SAMSGFLG.SAMFMSB  08 ONES         13965  1                      FLAG  SAMFMSB             - MSB-on sequence was sent
                                   13970  1
 0000E0                            13971  1           SAMSGDL    DS    F                   Data length
 0000E4                            13972  1           SAMSGSUM   DS    F                   Data checksum or CRC
                                   13973  1           SAMSINIT   EQU   SAMSGFLG,*-SAMSGFLG,C'X'
                                   13974  1
                                   13975  1           SAMSG      SEGCB
 0000E8 00                         13976  1 01-SEGCB +$$$SEGCB235   DS 0F
 SAMSGCOD.SAMSGSEG 01 EQ
 SAMSGCOD.SAMSGWR  02 EQ
 SAMSGCOD.SAMSGCLR 03 EQ
 SAMSGCOD.SAMSGSPP 04 EQ
 SAMSGCOD.SAMSGOVF 05 EQ
 SAMSGCOD.SAMSGCR  06 EQ
 SAMSGCOD.SAMSGMAR 07 EQ
 0000E9 00                         14051  1 01-SEGCB +           DC    X'00'               Reserved
 0000EA 0000                              1          +
 0000EC 00000000                   14052  1 01-SEGCB +SAMSGMAXF   DC   A(0)                Maximum buffer length
 0000F0 00000000                   14053  1 01-SEGCB +SAMSGMRKF   DC   A(0)                Length at last mark
 0000F4 00000000                   14054  1 01-SEGCB +SAMSGLENF   DC   A(0)                Current length
 0000F8 00000000                   14055  1 01-SEGCB +SAMSGINDF   DC   A(0)                Overflow/indent count
 0000FC 00000000                   14056  1 01-SEGCB +SAMSGERR   DC    A(0)                Address of error recovery routine
 000100 0000000000000000           14057  1 01-SEGCB +           DC    2F'0'               Reserved
 000108 00000000                   14058  1 01-SEGCB +SAMSGLOC   DC    A(0)                Location of buffer
 00010C 00000000                   14059  1 01-SEGCB +SAMSGRTN   DC    A(0)                Processing routine
 000110 0000000000000000           14060  1 01-SEGCB +           DC    4F'0'               Reserved
 000120 00000000                   14061  1 01-SEGCB +SAMSGUSR   DC    A(0)                USER field
                                   14062  1 01-SEGCB +SAMSG      EQU   $$$SEGCB235,*-$$$SEGCB235,C'X'
                                   14063  1                      ¿þþþþþþþþþþþþþþþþþþþþþþþþþþþþÜ
                                   14064  1                      Ÿ  Send packet information.  Ÿ
                                   14065  1                      ¾þþþþþþþþþþþþþþþþþþþþþþþþþþþþ»
 000124                            14066  1           SAMSCMD    DS    CL2                 Send packet command/option
                                   14067  1
 000126                            14068  1           SAMSSEQ    DS    H                   Send packet sequence number
                                   14069  1                      ¿þþþþþþþþþþþþþþþþþþþþþþþþþþþþþþþÜ
                                   14070  1                      Ÿ  Receive packet information.  Ÿ
                                   14071  1                      ¾þþþþþþþþþþþþþþþþþþþþþþþþþþþþþþþ»
 000128 00                         14072  1           SAMRFLAG   FLAG
 SAMRFLAG.SAMFIN8B 80 ONES         14076  1                      FLAG  SAMFIN8BIT          - Input 8-bit mode (for packed)
 SAMRFLAG.SAMFINMS 40 ONES         14081  1                      FLAG  SAMFINMSB           - Input MSB on mode (for 7bit)
                                   14086  1
 000129 00                         14087  1           SAMRCODE   FLAG  ,                   Received packet encoding
 SAMRCODE.SAMRF7BI 0C ONES         14091  1                      FLAG  (SAMRF7BIT,12,ONES) - Expect data in 7-bit format
1SAM      (SAM2193) (12:54) (15MAR04) Common Control Blocks                                                                 Page   23
0Current Usings:  (CP,R11) (CV,R12)
0Loc    Object Code    Addr1 Addr2  Stmt Lv Lineno    Source Statement           (Hibal 5, Asmedit 3.3)  HLASM R4.0  2004/03/15 12.54
+___    ______ ____    _____ _____  ____ __ ______    ______ _________
0SAMRCODE.SAMRFHEX 08 ONES         14101  1                      FLAG  (SAMRFHEX,8)        - Expect data in hex format
 SAMRCODE.SAMRFPCK 04 ONES         14110  1                      FLAG  (SAMRFPCK,4)        - Expect data in packed format
 SAMRCODE.SAMRFCKS 02 ONES         14119  1                      FLAG  (SAMRFCKS,2)        - Expect one byte checksum
 SAMRCODE.SAMRFCRC 01 ONES         14128  1                      FLAG  (SAMRFCRC,1)        - Expect two byte CRC
                                   14137  1
 00012A                            14138  1           SAMRCMD    DS    CL2                 Received packet command/option
                                   14139  1
 00012C                            14140  1           SAMRSEQ    DS    H                   Received packet sequence number
                                   14141  1
 00012E                            14142  1           SAMRCNT    DS    H                   No. resends (clr'd by good packet)
 000130                            14143  1           SAMLNO     DS    F                   Working line-number
 000134                            14144  1           SAMRDLOC   DS    A                   Working read buffer ptr
 000138                            14145  1           SAMRDLEN   DS    H                   Working read buffer len
                                   14146  1
 00013A                            14147  1           SAMRNAME   DS    CL(L'UNETRNAME)     Remote's IP address
 00018C                            14148  1           SAMUNET    DS    A                   UNET ptr (for fast FTP)
                                   14149  1
                                   14150  1           SAMINSG    SEGCB SAMINBUF            Working input buffer
 000190 00                         14151  1 01-SEGCB +$$$SEGCB248   DS 0F
 SAMINSGCOD.SAMINS 01 EQ
 SAMINSGCOD.SAMINS 02 EQ
 SAMINSGCOD.SAMINS 03 EQ
 SAMINSGCOD.SAMINS 04 EQ
 SAMINSGCOD.SAMINS 05 EQ
 SAMINSGCOD.SAMINS 06 EQ
 SAMINSGCOD.SAMINS 07 EQ
 000191 00                         14226  1 01-SEGCB +           DC    X'00'               Reserved
 000192 0000                              1          +
 000194 00001000                   14227  1 01-SEGCB +SAMINSGMAXF   DC A(L'SAMINBUF)       Maximum buffer length
 000198 00000000                   14228  1 01-SEGCB +SAMINSGMRKF   DC A(0)                Length at last mark
 00019C 00000000                   14229  1 01-SEGCB +SAMINSGLENF   DC A(0)                Current length
 0001A0 00000000                   14230  1 01-SEGCB +SAMINSGINDF   DC A(0)                Overflow/indent count
 0001A4 00000000                   14231  1 01-SEGCB +SAMINSGERR   DC  A(0)                Address of error recovery routine
 0001A8 0000000000000000           14232  1 01-SEGCB +           DC    2F'0'               Reserved
 0001B0 00001ACC                   14233  1 01-SEGCB +SAMINSGLOC   DC  A(SAMINBUF)         Location of buffer
 0001B4 00000000                   14234  1 01-SEGCB +SAMINSGRTN   DC  A(0)                Processing routine
 0001B8 0000000000000000           14235  1 01-SEGCB +           DC    4F'0'               Reserved
 0001C8 00000000                   14236  1 01-SEGCB +SAMINSGUSR   DC  A(0)                USER field
                                   14237  1 01-SEGCB +SAMINSG    EQU   $$$SEGCB248,*-$$$SEGCB248,C'X'
                                   14238  1           SAMCLEAR   EQU   SAMFLAG,*-SAMFLAG,C'X'
                                   14239  1                      ¿þþþþþþþþþþþþþþþþþþþþÜ
                                   14240  1                      Ÿ  Working buffers.  Ÿ
                                   14241  1                      ¾þþþþþþþþþþþþþþþþþþþþ»
                                   14242  1           SAMLINE    DS    CL(&LINESZ)         Working line area
 0001CC                                   1          +SAMLINE    DS    CL(235)             Working line area
                                   14243  1                      DS    XL(&PRESSZ-&LINESZ)
 0002B7                                   1          +           DS    XL(256-235)
                                   14244  1
 0002CC                            14245  1           SAMWKBUF   DS    XL2048              Working SAMSEG buffer
 000ACC                            14246  1           SAMWRBUF   DS    XL2048              Working write buffer
 0012CC                            14247  1           SAMRDBUF   DS    XL2048              Working read buffer
 001ACC                            14248  1           SAMINBUF   DS    XL4096              Working input buffer
 002ACC                02ACC 02ACC 14249                       END
1SAM      (SAM2193) (12:54) (15MAR04) Common Control Blocks                                                                 Page   24
0Current Usings:  (CP,R11) (CV,R12)
0Loc    Object Code    Addr1 Addr2  Stmt Lv Lineno    Source Statement           (Hibal 5, Asmedit 3.3)  HLASM R4.0  2004/03/15 12.54
+___    ______ ____    _____ _____  ____ __ ______    ______ _________
0                                  14259                       SEGDEF SAMSG              (General assumption)
                                   14260              ¿þþþþþþþþþþþþþþþþþþþþþþþþþþþþþþþþþþþþþþþþþþþþþþþþþþþþþþþþþþþþþþþþþþþþþÜ
                                   14261              Ÿ                                                                     Ÿ
                                   14262              Ÿ  MICRO -- MICRO Command.                                            Ÿ
                                   14263              Ÿ                                                                     Ÿ
                                                      ¾þþþþþþþþþþþþþþþþþþþþþþþþþþþþþþþþþþþþþþþþþþþþþþþþþþþþþþþþþþþþþþþþþþþþþ»
00015C4 50E0 D000/9008_      00000 14264              MICRO    XPROC
 USING  *,R7
 0015DE 9140 B3EA/4710_003EA       14304                       IF    ~CPSFSAM,BEGIN      Not a Samson terminal...
 0015E6 4110 72A8/4100_      01886 14319  1                      TSEG  'Please issue a SET TERMINAL SAMSON command '
 0015F8 4110 72D3/4100_      018B1 14337  1                      TSEG  'before using the MICRO command.',,CR
 00160A D207 B886 721A_00886 017F8 14355  1                      ABORT 'Type ? for more information.',,MICROTRM
 00161C                            14363                       END
                                   14367
                                   14368                       COMMENT                   Get FFINFO dsect for SAMOPEN
 00161C 58E0 727E/0DEE       0185C 14369                       VCALL MKFFINFO
 001622 5810 BE54            00E54 14373                       L     R1,CPFINFOP
                                   14374
                                   14375                       COMMENT                   Open samson connection
 001626 58E0 7282/0DEE       01860 14376                       ACALL SAMOPEN
 00162C 5860 BE58            00E58 14380                       L     R6,CPDEVP
 USING  SAMWA,R6                   14381                       USING SAMWA,R6
                                   14390                       ¿þþþþþþþþþþþþþþþþþþþþþþÜ
                                   14391                       Ÿ  Send command text.  Ÿ
                                   14392                       ¾þþþþþþþþþþþþþþþþþþþþþþ»
 001630 58F0 C1C8            001C8 14393                       L     R15,CVCURJCB
 001634 9640 F065      00065       14394                       WITH  (JCB,R15),'SET JCBSFMIC'  Micro mode
 USING  JCB,R15
 DROP   JCB,R15
                                   14423
 001638 D201 6124 72A2 00124 01880 14424                       MVC   SAMSCMD,=C'CP'      Command parameters
 00163E 58E0 7286/0DEE       01864 14425                       ACALL SEGHEAD
                                   14429
 001644 58E0 B08C/581E_      0008C 14430                       SCINFO
 001652 58E0 728A/0DEE       01868 14439                       ACALL SAMTRIM
 001658 1200/4770 7088_            14443                       IF    (R0,Z),'SETMSG "EXIT"'  Default command
 001666 9001 D000/41D0_      00000 14466                       XPUSH R0,R1
 00166E 4110 7292/4100_      01870 14469                       SEG   'CMD='
 001680 4BD0 72A4/9801_      01882 14486                       XPOP  R0,R1
 001688 41F0 60E8/58E0_      000E8 14489                       SEGT  (R1),(R0)           Add command text to packet
                                   14513
 001692 58E0 729A/0DEE       01878 14514                       ACALL SEGTRAIL
 001698 1B00/41F0 60E8_            14518                       SEGWR
                                   14542
 0016A4 D201 6124 72A6 00124 01884 14543                       MVC   SAMSCMD,=C'PC'
 0016AA 58E0 7286/0DEE       01864 14544                       ACALL SEGHEAD
 0016B0 58E0 729A/0DEE       01878 14548                       ACALL SEGTRAIL            Path close (same as SAMCLOSE)
 0016B6 1B00/41F0 60E8_            14552                       SEGWR
                                   14576
 0016C2 47F0 C7DE            007DE 14577                       B     CVNEXT
                                   14578
 0016C6 18D8/9808 D004_            14579                       PEND
 DROP   *,R7
1SAM      (SAM2193) (12:54) (15MAR04) Common Control Blocks                                                                 Page   25
0Current Usings:  (CP,R11) (CV,R12)
0Loc    Object Code    Addr1 Addr2  Stmt Lv Lineno    Source Statement           (Hibal 5, Asmedit 3.3)  HLASM R4.0  2004/03/15 12.54
+___    ______ ____    _____ _____  ____ __ ______    ______ _________
0DROP   SAMWA,R6                   14599                       DROP  R6
1SAM      (SAM2193) (12:54) (15MAR04) Common Control Blocks                                                                 Page   26
0Current Usings:  (CP,R11) (CV,R12)
0Loc    Object Code    Addr1 Addr2  Stmt Lv Lineno    Source Statement           (Hibal 5, Asmedit 3.3)  HLASM R4.0  2004/03/15 12.54
+___    ______ ____    _____ _____  ____ __ ______    ______ _________
0                                  14607              ¿þþþþþþþþþþþþþþþþþþþþþþþþþþþþþþþþþþþþþþþþþþþþþþþþþþþþþþþþþþþþþþþþþþþþþÜ
                                   14608              Ÿ                                                                     Ÿ
                                   14609              Ÿ  SAMSON -- SAMSON Command.                                          Ÿ
                                   14610              Ÿ                                                                     Ÿ
                                                      ¾þþþþþþþþþþþþþþþþþþþþþþþþþþþþþþþþþþþþþþþþþþþþþþþþþþþþþþþþþþþþþþþþþþþþþ»
00016D4 50E0 D000/9008_      00000 14611              SAMSON   XPROC
 USING  *,R7
 0016EE 9140 B3EA/4710_003EA       14651                       IF    ~CPSFSAM,BEGIN      Not a Samson terminal...
 0016F6 4110 7198/4100_      01886 14666  1                      TSEG  'Please issue a SET TERMINAL SAMSON command '
 001708 4110 7112/4100_      01800 14684  1                      TSEG  'before using the SAMSON command.',,CR
 00171A D207 B886 710A_00886 017F8 14702  1                      ABORT 'Type ? for more information.',,MICROTRM
 00172C                            14710                       END
                                   14714                       ¿þþþþþþþþþþþþþþþþþþþþþþþþþþþþÜ
                                   14715                       Ÿ  Samson command required.  Ÿ
                                   14716                       ¾þþþþþþþþþþþþþþþþþþþþþþþþþþþþ»
 00172C 58E0 B08C/581E_      0008C 14717                       SCINFO
 00173A 58E0 717A/0DEE       01868 14726                       ACALL SAMTRIM
 001740 1200/4720 7076             14730                       IF    (R0,NP),BEGIN
 001746 4110 7132/4100_      01820 14744  1                      TSEG  'Missing SAMSON command; '
 001758 4110 71E2/4100_      018D0 14762  1                      ERROR 'expecting ''SAMSON sam-command''.'
 001764                            14769                       END
 001764 1841                       14773                       LR    R4,R1
 001766 1830                       14774                       LR    R3,R0
                                   14775
                                   14776                       COMMENT                   Get FFINFO dsect for SAMOPEN
 001768 58E0 716E/0DEE       0185C 14777                       VCALL MKFFINFO
 00176E 5810 BE54            00E54 14781                       L     R1,CPFINFOP
                                   14782
                                   14783                       COMMENT                   Open samson connection
 001772 58E0 7172/0DEE       01860 14784                       ACALL SAMOPEN
 001778 5860 BE58            00E58 14788                       L     R6,CPDEVP
 USING  SAMWA,R6                   14789                       USING SAMWA,R6
                                   14798                       ¿þþþþþþþþþþþþþþþþþþþþþþÜ
                                   14799                       Ÿ  Send command text.  Ÿ
                                   14800                       ¾þþþþþþþþþþþþþþþþþþþþþþ»
 00177C 58F0 C1C8            001C8 14801                       L     R15,CVCURJCB
 001780 9640 F065      00065       14802                       WITH  (JCB,R15),'SET JCBSFMIC'  Micro mode
 USING  JCB,R15
 DROP   JCB,R15
                                   14831
 001784 D201 6124 7192 00124 01880 14832                       MVC   SAMSCMD,=C'CP'      Command parameters
 00178A 58E0 7176/0DEE       01864 14833                       ACALL SEGHEAD
 001790 4110 7201/4100_      018EF 14837                       SEG   'SAMCMD='
 0017A2 1814/1803/41F0_            14854                       SEGT  (R4),(R3)           Add command text to packet
                                   14880
 0017B0 58E0 718A/0DEE       01878 14881                       ACALL SEGTRAIL
 0017B6 1B00/41F0 60E8_            14885                       SEGWR
                                   14909
 0017C2 D201 6124 7196 00124 01884 14910                       MVC   SAMSCMD,=C'PC'
 0017C8 58E0 7176/0DEE       01864 14911                       ACALL SEGHEAD
 0017CE 58E0 718A/0DEE       01878 14915                       ACALL SEGTRAIL            Path close (same as SAMCLOSE)
 0017D4 1B00/41F0 60E8_            14919                       SEGWR
                                   14943
1SAM      (SAM2193) (12:54) (15MAR04) Common Control Blocks                                                                 Page   27
0Current Usings:  (SAMWA,R6) (*,R7) (CP,R11) (CV,R12)
0Loc    Object Code    Addr1 Addr2  Stmt Lv Lineno    Source Statement           (Hibal 5, Asmedit 3.3)  HLASM R4.0  2004/03/15 12.54
+___    ______ ____    _____ _____  ____ __ ______    ______ _________
00017E0 47F0 C7DE            007DE 14944                       B     CVNEXT
                                   14945
 0017E4 18D8/9808 D004_            14946                       PEND
 DROP   *,R7
 DROP   SAMWA,R6                   14966                       DROP  R6
                                   14973
                                   14974                       QLTORG
1SAM      (SAM2193) (12:54) (15MAR04) Samson Interface Routines                                                             Page   28
0Current Usings:  (CP,R11) (CV,R12)
0Loc    Object Code    Addr1 Addr2  Stmt Lv Lineno    Source Statement           (Hibal 5, Asmedit 3.3)  HLASM R4.0  2004/03/15 12.54
+___    ______ ____    _____ _____  ____ __ ______    ______ _________
0                                  15009              ¿þþþþþþþþþþþþþþþþþþþþþþþþþþþþþþþþþþþþþþþþþþþþþþþþþþþþþþþþþþþþþþþþþþþþþÜ
                                   15010              Ÿ                                                                     Ÿ
                                   15011              Ÿ  SAMINIT -- Routine to initialize the Samson saved information      Ÿ
                                   15012              Ÿ    to the initial logon values.  (Called by signon and when         Ÿ
                                   15013              Ÿ    changing terminal types.)                                        Ÿ
                                   15014              Ÿ                                                                     Ÿ
                                                      ¾þþþþþþþþþþþþþþþþþþþþþþþþþþþþþþþþþþþþþþþþþþþþþþþþþþþþþþþþþþþþþþþþþþþþþ»
00018F6 50E0 D000/9008_      00000 15015              SAMINIT  XPROC
 USING  *,R7
 001910 D78A BA21 BA21 00A21 00A21 15055                       CLEAR CPSAM               Reset Samson information
 001916 D201 BA94 770C 00A94 0201C 15062                       MVC   CPSAMPRO,=H'1'      Protocol version 1
 00191C D201 BAA4 770C 00AA4 0201C 15063                       MVC   CPSAMDV,=H'1'       Dialog version 1
 001922 D203 BAA8 7698 00AA8 01FA8 15064                       MVC   CPSAMBUFF,=F'800'   Default buffer size
 001928 9602 BA22      00A22       15065                       SET   CPSAMFCKS           Use checksum (for version 1)
 00192C 18D8/9808 D004_            15071                       PEND
 DROP   *,R7
1SAM      (SAM2193) (12:54) (15MAR04) Samson Interface Routines                                                             Page   29
0Current Usings:  (CP,R11) (CV,R12)
0Loc    Object Code    Addr1 Addr2  Stmt Lv Lineno    Source Statement           (Hibal 5, Asmedit 3.3)  HLASM R4.0  2004/03/15 12.54
+___    ______ ____    _____ _____  ____ __ ______    ______ _________
0                                  15092              ¿þþþþþþþþþþþþþþþþþþþþþþþþþþþþþþþþþþþþþþþþþþþþþþþþþþþþþþþþþþþþþþþþþþþþþÜ
                                   15093              Ÿ                                                                     Ÿ
                                   15094              Ÿ  SAMPARMS -- Routine to get and save parameters returned by         Ÿ
                                   15095              Ÿ    Samson.                                                          Ÿ
                                   15096              Ÿ                                                                     Ÿ
                                   15097              Ÿ    On entry:                                                        Ÿ
                                   15098              Ÿ      R0 - 0 = don't set time/date                                   Ÿ
                                   15099              Ÿ           1 = set the time/date                                     Ÿ
                                   15100              Ÿ      FFINFO dsect contains information about the file               Ÿ
                                   15101              Ÿ                                                                     Ÿ
                                   15102              Ÿ    On exit, R15 (and cc):                                           Ÿ
                                   15103              Ÿ      0 - opened successfully                                        Ÿ
                                   15104              Ÿ      4 - not opened (CPERRID contains error id)                     Ÿ
                                   15105              Ÿ                                                                     Ÿ
                                                      ¾þþþþþþþþþþþþþþþþþþþþþþþþþþþþþþþþþþþþþþþþþþþþþþþþþþþþþþþþþþþþþþþþþþþþþ»
0000000                00000 001B4 15106              SAMPWA   RECORD BEGIN
 000000                            15114  1           SAMPVAL    DS    F                   R0 parm on entry
 000004                            15115  1           SAMPRC     DS    F                   Return code
 000008                            15116  1           SAMPSTM    DS    H                   Saved timeout value
                                   15117  1
 00000A                            15118  1           SAMPWORK   DS    CL64                Date formatting work area
                                   15119  1
                                   15120  1           SAMPSG     SEGCB
 00004C 00                         15121  1 01-SEGCB +$$$SEGCB269   DS 0F
 SAMPSGCOD.SAMPSGS 01 EQ
 SAMPSGCOD.SAMPSGW 02 EQ
 SAMPSGCOD.SAMPSGC 03 EQ
 SAMPSGCOD.SAMPSGS 04 EQ
 SAMPSGCOD.SAMPSGO 05 EQ
 SAMPSGCOD.SAMPSGC 06 EQ
 SAMPSGCOD.SAMPSGM 07 EQ
 00004D 00                         15196  1 01-SEGCB +           DC    X'00'               Reserved
 00004E 0000                              1          +
 000050 00000000                   15197  1 01-SEGCB +SAMPSGMAXF   DC  A(0)                Maximum buffer length
 000054 00000000                   15198  1 01-SEGCB +SAMPSGMRKF   DC  A(0)                Length at last mark
 000058 00000000                   15199  1 01-SEGCB +SAMPSGLENF   DC  A(0)                Current length
 00005C 00000000                   15200  1 01-SEGCB +SAMPSGINDF   DC  A(0)                Overflow/indent count
 000060 00000000                   15201  1 01-SEGCB +SAMPSGERR   DC   A(0)                Address of error recovery routine
 000064 0000000000000000           15202  1 01-SEGCB +           DC    2F'0'               Reserved
 00006C 00000000                   15203  1 01-SEGCB +SAMPSGLOC   DC   A(0)                Location of buffer
 000070 00000000                   15204  1 01-SEGCB +SAMPSGRTN   DC   A(0)                Processing routine
 000074 0000000000000000           15205  1 01-SEGCB +           DC    4F'0'               Reserved
 000084 00000000                   15206  1 01-SEGCB +SAMPSGUSR   DC   A(0)                USER field
                                   15207  1 01-SEGCB +SAMPSG     EQU   $$$SEGCB269,*-$$$SEGCB269,C'X'
 000088                            15208  1           SAMPBUF    DS    CL300               Working line area
                                   15209  1
 0001B4                001B4 001B4 15210                       END
                                   15219              þþþþ
 00193A 50E0 D000/9008_      00000 15220              SAMPARMS XPROC SAMPWA
 USING  *,R7
 USING  SAMPWA-(4+36),R8
 001954 4150 8028            00000 15271                       LA    R5,SAMPWA
 USING  SAMPWA,R5                  15272                       USING SAMPWA,R5
1SAM      (SAM2193) (12:54) (15MAR04) Samson Interface Routines                                                             Page   30
0Current Usings:  (SAMPWA,R5) (*,R7) (SAMPWA-(4+36),R8) (CP,R11) (CV,R12)
0Loc    Object Code    Addr1 Addr2  Stmt Lv Lineno    Source Statement           (Hibal 5, Asmedit 3.3)  HLASM R4.0  2004/03/15 12.54
+___    ______ ____    _____ _____  ____ __ ______    ______ _________
0001958 D7FF 5000 5000_00000 00000 15281                       CLEAR SAMPWA
 001964 5000 5000            00000 15289                       ST    R0,SAMPVAL          Save R0 parm
 001968 58E0 B08C/D2AF_      0008C 15290                       SCPUSH
                                   15296                       ¿þþþþþþþþþþþþþþþþþþþþþþþþþþþþþþþþþþþþþþþþþþþþþþþþþþþþþþþþþþþþÜ
                                   15297                       Ÿ  Only get parameters from Samson once (unless SAMINIT has  Ÿ
                                   15298                       Ÿ    been called, which resets CPSAMFDEF).                   Ÿ
                                   15299                       ¾þþþþþþþþþþþþþþþþþþþþþþþþþþþþþþþþþþþþþþþþþþþþþþþþþþþþþþþþþþþþ»
 001976 9180 BA21/4710_00A21       15300                       IF    CPSAMFDEF,SAMPEXIT  Already defined, scram
 00197E 9680 BA21      00A21       15318                       SET   CPSAMFDEF           Values have now been defined
                                   15324
 001982 58F0 BAA8            00AA8 15325                       L     R15,CPSAMBUFF       Get suggested buffer size
 001986 12FF/4770 703C_            15326                       IF    (R15,Z),'LA R15,800'  Default buffer size
 001990 59F0 7658/47B0_      01FAC 15346                       IF    (R15,LT,128),'LA R15,128'  Minimum we allow
 00199C 59F0 765C/47D0_      01FB0 15369                       IF    (R15,GT,1200),'LA R15,1200'  Maximum we allow
 0019A8 50F0 BAA8            00AA8 15392                       ST    R15,CPSAMBUFF       Save buffer size
                                   15393
 0019AC 58E0 7660/0DEE       01FB4 15394                       VCALL MARKHEAP            Get current heap ptr
 0019B2 182F                       15398                       LR    R2,R15
                                   15399
 0019B4 4800 76CA            0201E 15400                       LH    R0,=AL2(L'SAMWA)
 0019B8 58E0 7664/0DEE       01FB8 15401                       VCALL GETHEAP             Get work area
 0019BE 5010 BE58            00E58 15405                       ST    R1,CPDEVP
 0019C2 1861                       15406                       LR    R6,R1
 USING  SAMWA,R6                   15407                       WITH  (SAMWA,R6)
 0019C4 D7FF 6004 6004_00004 00004 15420                       CLEAR SAMCLEAR
 0019D0 D202 6000 7702 00000 02056 15428                       MVC   SAMWA(3),=C'SAM'    Id
                                   15429
 0019D6 5020 60B4            000B4 15430                       ST    R2,SAMOHEAP         Save old heap ptr
 0019DA 58E0 7660/0DEE       01FB4 15431                       VCALL MARKHEAP            Get current heap ptr
 0019E0 50F0 60B8            000B8 15435                       ST    R15,SAMNHEAP        Save new heap ptr
                                   15436
 0019E4 4110 6ACC/4100_      00ACC 15437                       SEGINIT SAMWRBUF,,SAMSG,RTN=SAMSEG
                                   15479
 001A04 4110 6000            00000 15480                       LA    R1,SAMWA
 001A08 4A10 76CC            02020 15481                       AH    R1,=AL2(SAMINBUF-SAMWA)
 001A0C 4800 76CE            02022 15482                       LH    R0,=AL2(L'SAMINBUF)
 001A10 41F0 6190/58E0_      00190 15483                       SEGINIT (R1),(R0),.SAMINSG  Initialize input seg buffer
                                   15506                       ¿þþþþþþþþþþþþþþþþþþþÜ
                                   15507                       Ÿ  Send path open.  Ÿ
                                   15508                       ¾þþþþþþþþþþþþþþþþþþþ»
 001A1A 4140 0002            00002 15509                       LA    R4,2                Retry count
                                   15510
 001A1E D201 6124 76D0 00124 02024 15511              SAMPLOOP MVC   SAMSCMD,=C'PO'      Path open
 001A24 58E0 7674/0DEE       01FC8 15512                       ACALL SEGHEAD             Seg packet header
 001A2A 58E0 7678/0DEE       01FCC 15516                       ACALL SEGTRAIL            Seg packet trailer
 001A30 9610 6005      00005       15520                       SET   SAMFNORETRY         No retry logic wanted
 001A34 D201 5008 BA98 00008 00A98 15526                       MVC   SAMPSTM,CPSAMTMO    Save previous timeout value
 001A3A 9108 BA21/4710_00A21       15527                       IF    ~CPSAMFUTMOUT,'MVC CPSAMTMO,=H"10"'  10 sec timeout
 001A48 1B00/41F0 60E8_            15548                       SEGWR
1SAM      (SAM2193) (12:54) (15MAR04) Samson Interface Routines                                                             Page   31
0Current Usings:  (SAMPWA,R5) (SAMWA,R6) (*,R7) (SAMPWA-(4+36),R8) (CP,R11) (CV,R12)
0Loc    Object Code    Addr1 Addr2  Stmt Lv Lineno    Source Statement           (Hibal 5, Asmedit 3.3)  HLASM R4.0  2004/03/15 12.54
+___    ______ ____    _____ _____  ____ __ ______    ______ _________
0                                  15572                       ¿þþþþþþþþþþþþþþþþþþþþþþþþþþþþþþþþþþþþþþþþþþþþþþþþþþþþþþþþþþþþþÜ
                                   15573                       Ÿ  It is possible that the user has done a "SET TERMINAL      Ÿ
                                   15574                       Ÿ    SAMSON" on a non-Samson terminal.  In this case we will  Ÿ
                                   15575                       Ÿ    get a packet send error here.  The logic is to then      Ÿ
                                   15576                       Ÿ    try sending a path close which presumably will fail      Ÿ
                                   15577                       Ÿ    also.  If for some reason the path close works, then we  Ÿ
                                   15578                       Ÿ    will retry the path open.                                Ÿ
                                   15579                       ¾þþþþþþþþþþþþþþþþþþþþþþþþþþþþþþþþþþþþþþþþþþþþþþþþþþþþþþþþþþþþþ»
 001A54 4780 7148            01A9C 15580                       IF    NZ,BEGIN            Packet send error...
 001A58 41F0 00C8            000C8 15591  1                      LA    R15,200             Wait 2 second without reading
 001A5C 58E0 7680/0DEE       01FD4 15592  1                      VCALL WAITER              Sit it out
                                   15596  1
 001A62 D201 6124 76D4 00124 02028 15597  1                      MVC   SAMSCMD,=C'PC'      Path close
 001A68 58E0 7674/0DEE       01FC8 15598  1                      ACALL SEGHEAD             Seg packet header
 001A6E 58E0 7678/0DEE       01FCC 15602  1                      ACALL SEGTRAIL            Seg packet trailer
 001A74 1B00/41F0 60E8_            15606  1                      SEGWR ,                   Try sending the path close
                                   15630  1
 001A80 D201 BA98 5008 00A98 00008 15631  1                      MVC   CPSAMTMO,SAMPSTM    Restore timeout value
 001A86 94EF 6005      00005       15632  1                      CLEAR SAMFNORETRY         Clear no retry flag
                                   15639  1
 001A8A 12FF/4770 7140             15640  1                      IF    (R15,Z),BEGIN       Hmm, this time SEGWR worked...
 001A90 4640 70CA            01A1E 15654  2                        BCT   R4,SAMPLOOP         Go back and try it again
                                   15655  2           *  If we fall through then it means that we give up.
 001A94                            15656  1                      END
                                   15660  1
 001A94 41F0 0004            00004 15661  1                      LA    R15,4               Bad return code
 001A98 47F0 75D4            01F28 15662  1                      B     SAMPDONE            Scram
 001A9C                            15663                       END
                                   15667
 001A9C D201 BA98 5008 00A98 00008 15668                       MVC   CPSAMTMO,SAMPSTM    Restore timeout value
 001AA2 94EF 6005      00005       15669                       CLEAR SAMFNORETRY         Clear no retry flag
                                   15676                       ¿þþþþþþþþþþþþþþþþþþþþþþþþþþþþþþþþþþþþÜ
                                   15677                       Ÿ  Now send path parameters packet.  Ÿ
                                   15678                       ¾þþþþþþþþþþþþþþþþþþþþþþþþþþþþþþþþþþþþ»
 001AA6 D201 6124 76D6 00124 0202A 15679                       MVC   SAMSCMD,=C'PP'      Path parameters
 001AAC 58E0 7674/0DEE       01FC8 15680                       ACALL SEGHEAD             Seg packet header
 001AB2 58E0 7678/0DEE       01FCC 15684                       ACALL SEGTRAIL            Seg packet trailer
                                   15688
 001AB8 D201 5008 BA98 00008 00A98 15689                       MVC   SAMPSTM,CPSAMTMO    Save timeout value
 001ABE 9108 BA21/4710_00A21       15690                       IF    ~CPSAMFUTMOUT,'MVC CPSAMTMO,=H"10"'  10 sec timeout
 001ACC 1B00/41F0 60E8_            15711                       SEGWR
 001AD8 D201 BA98 5008 00A98 00008 15735                       MVC   CPSAMTMO,SAMPSTM    Restore old timeout value
                                   15736                       ¿þþþþþþþþþþþþþþþþþþþþþþþþþþþþþþþþþþþþþþþþþþþþþþþþþþþþþþþþþþÜ
                                   15737                       Ÿ  Process path parameter information which was returned.  Ÿ
                                   15738                       ¾þþþþþþþþþþþþþþþþþþþþþþþþþþþþþþþþþþþþþþþþþþþþþþþþþþþþþþþþþþ»
 001ADE D601 6138 6138_00138 00138 15739                       IF    (SAMRDLEN,NZ),BEGIN
 001AE8                            15755  1                      LOOP  BEGIN
 001AE8 58E0 7684/0DEE       01FD8 15761  2                        ACALL INLINE              Get enviornment options
 001AEE 4770 7204            01B58 15765  2                        IF    NZ,EXIT             Nothing left, scram
                                   15779  2
 001AF2 58E0 B08C/501E_      0008C 15780  2                        SCINIT (R1),(R0)
 001B00 5810 B08C/1B00_      0008C 15800  2                        SCAN  SAMPPRT             Process return parameters
 001B52 1BFF                       15832  2                        CLEAR R15                 Ignore any errors
 001B54 47F0 7194            01AE8 15836  1                      END
1SAM      (SAM2193) (12:54) (15MAR04) Samson Interface Routines                                                             Page   32
0Current Usings:  (SAMPWA,R5) (SAMWA,R6) (*,R7) (SAMPWA-(4+36),R8) (CP,R11) (CV,R12)
0Loc    Object Code    Addr1 Addr2  Stmt Lv Lineno    Source Statement           (Hibal 5, Asmedit 3.3)  HLASM R4.0  2004/03/15 12.54
+___    ______ ____    _____ _____  ____ __ ______    ______ _________
0001B58                            15841                       END
                                   15845                       ¿þþþþþþþþþþþþþþþþþþþþþþþþþþþþþþþþþþþþþþþþþþþþþþþþþþþþþþþþþþþþþÜ
                                   15846                       Ÿ  Try sending an echo packet to see if the high bit in the   Ÿ
                                   15847                       Ÿ    data gets corrupted.  If it does then we will switch to  Ÿ
                                   15848                       Ÿ    7-bit mode.                                              Ÿ
                                   15849                       ¾þþþþþþþþþþþþþþþþþþþþþþþþþþþþþþþþþþþþþþþþþþþþþþþþþþþþþþþþþþþþþ»
 001B58 94BF BA21      00A21       15850                       CLEAR CPSAMFBADECHO
                                   15857
 001B5C D501 76DA BA94_0202E 00A94 15858                       IF    (CPSAMPRO,GE,2),BEGIN  Only for version 2...
 001B66 183D/41D0 D040             15876  1                      XPUSH ,,64,PTR=R3
 001B6C D209 3000 76DC 00000 02030 15879  1                      MVC   @R3(10),=C'Echo test='
 001B72 58F0 C8B0            008B0 15880  1                      L     R15,CVASCTBL
 001B76 DC09 3000 F000 00000 00000 15881  1                      TR    @R3(10),@R15        Convert text to ASCII
 001B7C D203 300A 7690 0000A 01FE4 15882  1                      MVC   @R3+10(4),=X'3133B2B5'  Test pattern with MSB mixed
                                   15883  1
 001B82 1813/4100 000E             15884  1                      SETMSG (R3),14             Echo text
 001B88 58E0 7694/0DEE       01FE8 15898  1                      ACALL SAMECHO             Try the echo
 001B8E 4770 724C            01BA0 15902  1                      IF    Z,BEGIN             We got something back...
 001B92 D50D 1000 3000 00000 00000 15913  2                        CLC   @R1(14),@R3
 001B98 4780 724C/9640_      01BA0 15914  2                        IF    NE,'SET CPSAMFBADECHO'  MSB problems, probably
 001BA0                            15936  1                      END
                                   15940  1
 001BA0 4BD0 76E6            0203A 15941  1                      XPOP  ,,64
                                   15943  1                      ¿þþþþþþþþþþþþþþþþþþþþþþþþþþþþþþþþþþþþþþþþþþþþþþþþþþþþþþþþþþþþþÜ
                                   15944  1                      Ÿ  Adjust encoding settings based on the results of the echo  Ÿ
                                   15945  1                      Ÿ    test.                                                    Ÿ
                                   15946  1                      ¾þþþþþþþþþþþþþþþþþþþþþþþþþþþþþþþþþþþþþþþþþþþþþþþþþþþþþþþþþþþþþ»
 001BA4 9140 BA21/47E0_00A21       15947  1                      IF    CPSAMFBADECHO,BEGIN  Can't do 8-bit transfers...
 001BAC 910C BA22/4780_00A22       15962  2                        IF    (CPSAMF8BIT,OR,CPSAMFPCK),BEGIN  Change mode...
 001BBC 94F3 BA22      00A22       15991  3                          CLEAR CPSAMFEMASK         Reset encoding
 001BC0 960C BA22      00A22       15998  3                          SET   CPSAMF7BIT          Use 7-bit encoding
 001BC4                            16004  2                        END
 001BC4                            16008  1                      END
                                   16012  1                      ¿þþþþþþþþþþþþþþþþþþþþþþþþþþþþþþþþþþþþþþþþþþþþþþþþþþþþþþÜ
                                   16013  1                      Ÿ  Now send path settings packet and process results.  Ÿ
                                   16014  1                      Ÿ    Note:  This is for version 2 protocol only.       Ÿ
                                   16015  1                      ¾þþþþþþþþþþþþþþþþþþþþþþþþþþþþþþþþþþþþþþþþþþþþþþþþþþþþþþ»
 001BC4 D504 7705 BA33_02059 00A33 16016  1                      IF    (CPSAMVER,EQ,'2.95 '),EXIT   !!  Temporary  !!
 001BCE D504 770A BA33_0205E 00A33 16036  1                      IF    (CPSAMVER,EQ,'2.96 '),EXIT   !!  Temporary  !!
 001BD8 D504 770F BA33_02063 00A33 16056  1                      IF    (CPSAMVER,EQ,'2.97 '),EXIT   !!  Temporary  !!
 001BE2 D504 7714 BA33_02068 00A33 16076  1                      IF    (CPSAMVER,EQ,'2.98 '),EXIT   !!  Temporary  !!
                                   16096  1
 001BEC D201 6124 76E8 00124 0203C 16097  1                      MVC   SAMSCMD,=C'PS'      Path settings
 001BF2 58E0 7674/0DEE       01FC8 16098  1                      ACALL SEGHEAD             Seg packet header
                                   16102  1                      ¿þþþþþþþþþþþþþþþþþþþþþþÜ
                                   16103  1                      Ÿ  Send our settings.  Ÿ
                                   16104  1                      ¾þþþþþþþþþþþþþþþþþþþþþþ»
 001BF8 4110 7719/4100_      0206D 16105  1                      SEG   'BUFFER='           Requested buffer size
 001C0A 5810 BAA8/1B00_      00AA8 16122  1                      SEGDC L:CPSAMBUFF
 001C1A 58E0 76A0/0DEE       01FF4 16143  1                      ACALL SEGSEP
                                   16147  1
 001C20 D603 5000 5000_00000 00000 16148  1                      IF    (SAMPVAL,NZ),BEGIN  Set the time/date...
 001C2A 58E0 76A4/0DEE       01FF8 16164  2                        VCALL LOCALTOD            Get current time/date
 001C30 41F0 500A            0000A 16168  2                        LA    R15,SAMPWORK        Return area
1SAM      (SAM2193) (12:54) (15MAR04) Samson Interface Routines                                                             Page   33
0Current Usings:  (SAMPWA,R5) (SAMWA,R6) (*,R7) (SAMPWA-(4+36),R8) (CP,R11) (CV,R12)
0Loc    Object Code    Addr1 Addr2  Stmt Lv Lineno    Source Statement           (Hibal 5, Asmedit 3.3)  HLASM R4.0  2004/03/15 12.54
+___    ______ ____    _____ _____  ____ __ ______    ______ _________
0001C34 58E0 76A8/0DEE       01FFC 16169  2                        VCALL FMTCLCK             Format "hh:mm:ss mm/dd/yyyy.."
 001C3A 1821                       16173  2                        LR    R2,R1                       0123456789.12345678
 001C3C 4110 7720/4100_      02074 16174  2                        SEG   'TIME='
 001C4E 4110 2011/4100_      00011 16191  2                        SEG   @R2+17,2            "yy"
 001C60 4110 7725/4100_      02079 16220  2                        SEG   '.'
 001C72 4110 2009/4100_      00009 16237  2                        SEG   @R2+9,2             "mm"
 001C84 4110 7725/4100_      02079 16266  2                        SEG   '.'
 001C96 4110 200C/4100_      0000C 16283  2                        SEG   @R2+12,2            "dd"
 001CA8 4110 7725/4100_      02079 16312  2                        SEG   '.'
 001CBA 1812/4100 0002_            16329  2                        SEG   @R2,2               "hh"
 001CCA 4110 7725/4100_      02079 16358  2                        SEG   '.'
 001CDC 4110 2003/4100_      00003 16375  2                        SEG   @R2+3,2             "mm"
 001CEE 4110 7725/4100_      02079 16404  2                        SEG   '.'
 001D00 4110 2006/4100_      00006 16421  2                        SEG   @R2+6,2             "ss"
                                   16450  2
 001D12 4110 7726/4100_      0207A 16451  2                        SEG   ','
 001D24 58E0 76A4/0DEE       01FF8 16468  2                        VCALL LOCALTOD            Get current date
 001D2A 41F0 500A            0000A 16472  2                        LA    R15,SAMPWORK        Output area
 001D2E 58E0 76AC/0DEE       02000 16473  2                        VCALL FMTXDATE            day, dd mon yy hh:mm:ss zon
 001D34 4110 101A/4100_      0001A 16477  2                        SEG   @R1+26,3            Send the timezone
 001D46 58E0 76A0/0DEE       01FF4 16506  2                        ACALL SEGSEP
 001D4C                            16510  1                      END
                                   16514  1
 001D4C 58E0 7678/0DEE       01FCC 16515  1                      ACALL SEGTRAIL            Seg packet trailer
 001D52 1B00/41F0 60E8_            16519  1                      SEGWR
                                   16543  1                      ¿þþþþþþþþþþþþþþþþþþþþþþþþþþþþþþþþþþþþþþþþþþþþþþþþþþþþþþþþþÜ
                                   16544  1                      Ÿ  Process path settings information which was returned.  Ÿ
                                   16545  1                      ¾þþþþþþþþþþþþþþþþþþþþþþþþþþþþþþþþþþþþþþþþþþþþþþþþþþþþþþþþþ»
 001D5E D601 6138 6138_00138 00138 16546  1                      IF    (SAMRDLEN,NZ),BEGIN
 001D68                            16562  2                        LOOP  BEGIN
 001D68 58E0 7684/0DEE       01FD8 16568  3                          ACALL INLINE              Get enviornment options
 001D6E 4770 7484            01DD8 16572  3                          IF    NZ,EXIT             Nothing left, scram
                                   16586  3
 001D72 58E0 B08C/501E_      0008C 16587  3                          SCINIT (R1),(R0)
 001D80 5810 B08C/1B00_      0008C 16607  3                          SCAN  SAMPPRT             Process return parameters
 001DD2 1BFF                       16639  3                          CLEAR R15                 Ignore any errors
 001DD4 47F0 7414            01D68 16643  2                        END
 001DD8                            16648  1                      END
 001DD8                            16652                       END
                                   16656                       ¿þþþþþþþþþþþþþþþþþþþÜ
                                   16657                       Ÿ  Now close path.  Ÿ
                                   16658                       ¾þþþþþþþþþþþþþþþþþþþ»
 001DD8 D201 6124 76D4 00124 02028 16659                       MVC   SAMSCMD,=C'PC'      Path close
 001DDE 58E0 7674/0DEE       01FC8 16660                       ACALL SEGHEAD             Seg packet header
 001DE4 58E0 7678/0DEE       01FCC 16664                       ACALL SEGTRAIL            Seg packet trailer
                                   16668
 001DEA D201 5008 BA98 00008 00A98 16669                       MVC   SAMPSTM,CPSAMTMO    Save timeout value
 001DF0 D201 BA98 76D2 00A98 02026 16670                       MVC   CPSAMTMO,=H'10'     Set 10 second timeout
 001DF6 1B00/41F0 60E8_            16671                       SEGWR
 001E02 D201 BA98 5008 00A98 00008 16695                       MVC   CPSAMTMO,SAMPSTM    Restore old timeout value
1SAM      (SAM2193) (12:54) (15MAR04) Samson Interface Routines                                                             Page   34
0Current Usings:  (SAMPWA,R5) (SAMWA,R6) (*,R7) (SAMPWA-(4+36),R8) (CP,R11) (CV,R12)
0Loc    Object Code    Addr1 Addr2  Stmt Lv Lineno    Source Statement           (Hibal 5, Asmedit 3.3)  HLASM R4.0  2004/03/15 12.54
+___    ______ ____    _____ _____  ____ __ ______    ______ _________
0                                  16696                       ¿þþþþþþþþþþþþþþþþþþþþþþþþþþþþþþþþþþþþþþþþþþþþþþþþþþþþþþþþþÜ
                                   16697                       Ÿ  Set the printer type (for LPRINT) if the user has not  Ÿ
                                   16698                       Ÿ    already set a specific printer type.                 Ÿ
                                   16699                       ¾þþþþþþþþþþþþþþþþþþþþþþþþþþþþþþþþþþþþþþþþþþþþþþþþþþþþþþþþþ»
 001E08 D617 BA5B BA5B_00A5B 00A5B 16700                       IF    (CPSAMLPR,NZ),BEGIN  Samson knows printer type...
 001E12 181D/41D0 D0EC             16716  1                      XPUSH ,,&LINESZ,PTR=R1
 001E18 4100 00EB            000EB 16719  1                      LA    R0,&LINESZ
 001E1C 4120 761C            01F70 16720  1                      LA    R2,=CL16'SYS.LPRINTER'
 001E20 58E0 76B0/0DEE       02004 16721  1                      VCALL GETDATA             Get lprinter info
 001E26 4770 74DC/1200_      01E30 16725  1                      IF    (NZ,OR,(R0,Z)),BEGIN  Nothing previously set...
 001E30 4110 BA5B/4100_      00A5B 16749  2                        SETMSG CPSAMLPR            Lprinter info from Samson
 001E38 58E0 76B4/0DEE       02008 16763  2                        VCALL LRTRIM
 001E3E 1200/4780 74FA             16767  2                        IF    (R0,Z),EXIT         Nothing, forget it
 001E44 4120 761C            01F70 16784  2                        LA    R2,=CL16'SYS.LPRINTER'
 001E48 58E0 76B8/0DEE       0200C 16785  2                        VCALL SAVEDATA            Save lprinter info
 001E4E                            16789  1                      END
                                   16793  1
 001E4E 4BD0 76EA            0203E 16794  1                      XPOP  ,,&LINESZ
 001E52                            16796                       END
                                   16800                       ¿þþþþþþþþþþþþþþþþþþþþþþþþþþþþþþþþþÜ
                                   16801                       Ÿ  Now do compatability fix ups.  Ÿ
                                   16802                       ¾þþþþþþþþþþþþþþþþþþþþþþþþþþþþþþþþþ»
 001E52 D505 76EC BA23_02040 00A23 16803                       IF    (CPSAMTYP,EQ,'IBMPC '),'MVC CPSAMTYP(6),=C"SAMSON"'
                                   16826
 001E62 D601 BA9A BA9A_00A9A 00A9A 16827                       IF    (CPSAMHEI,Z),BEGIN  No explicit height...
 001E6C D506 7727 BA23_0207B 00A23 16843  1                      IF    (CPSAMTYP,NE,'SAMSON '),EXIT  IBM Samson
 001E76 D502 772E BA33_02082 00A33 16863  1                      IF    (CPSAMVER,NE,'2.9'),EXIT   Version 2.9
 001E80 D201 BA9A 76F8 00A9A 0204C 16883  1                      MVC   CPSAMHEI,=H'24'     Explicitly use 24 lines
 001E86                            16884                       END
                                   16888
 001E86 D503 76BC BA23_02010 00A23 16889                       IF    (CPSAMTYP,EQ,'MAC '),BEGIN
 001E90 D501 76DA BA94_0202E 00A94 16906  1                      IF    (CPSAMPRO,GE,2),EXIT  Only version 1 compatability
 001E9A D208 BA23 7731 00A23 02085 16927  1                      MVC   CPSAMTYP(9),=C'MACSAMSON'
 001EA0 94FC BA22      00A22       16928  1                      CLEAR CPSAMFCMASK
 001EA4 9602 BA22      00A22       16935  1                      SET   CPSAMFCKS           Set Checksum
 001EA8 D503 76BC BA53_02010 00A53 16941  1                      IF    (CPSAMTRM,EQ,'MAC '),'MVC CPSAMTRM(6),=C"MACSAM"'
 001EB8                            16964                       END
                                   16968
 001EB8 D507 762C BA23_01F80 00A23 16969                       IF    (CPSAMTYP,EQ,'HP150PC '),BEGIN
 001EC2 D207 BA23 7634 00A23 01F88 16986  1                      MVC   CPSAMTYP(8),=C'HPSAMSON'
 001EC8                            16987                       END
                                   16991
 001EC8 D60F BA73 BA73_00A73 00A73 16992                       IF    (CPSAMFONT,Z),BEGIN  Set default font name...
 001ED2 D20F BA73 763C 00A73 01F90 17008  1                      MVC   CPSAMFONT,=CL(L'CPSAMFONT)'SAMFONT'
 001ED8                            17009                       END
                                   17013                       ¿þþþþþþþþþþþþþþþþþþþþþþþþþþþþþþþþþþþþþþþþþþþþþþþþþþþþþþþþþÜ
                                   17014                       Ÿ  If Samson told us that it supports an extended font,   Ÿ
                                   17015                       Ÿ    then set a flag in the SIB telling Milten that it's  Ÿ
                                   17016                       Ÿ    OK to use the extended font.                         Ÿ
                                   17017                       ¾þþþþþþþþþþþþþþþþþþþþþþþþþþþþþþþþþþþþþþþþþþþþþþþþþþþþþþþþþ»
 001ED8 4140 0064            00064 17018                       LA    R4,100              Max loop count
 001EDC 1244/47D0 75CE             17019              SFONTLP  WHILE (R4,POS),BEGIN      Try to update SIB...
 001EE2 D60F BA73 BA73_00A73 00A73 17036  1                      IF    ((CPSAMFONT,Z),OR,(CPSAMFONT,EQ,'SAMFONT ')),BEGIN
 001EF6 9180 B3F9/47E0_003F9       17068  2                        IF    ~CPSFSAMFONT,EXIT,SFONTLP  Already cleared
1SAM      (SAM2193) (12:54) (15MAR04) Samson Interface Routines                                                             Page   35
0Current Usings:  (SAMPWA,R5) (SAMWA,R6) (*,R7) (SAMPWA-(4+36),R8) (CP,R11) (CV,R12)
0Loc    Object Code    Addr1 Addr2  Stmt Lv Lineno    Source Statement           (Hibal 5, Asmedit 3.3)  HLASM R4.0  2004/03/15 12.54
+___    ______ ____    _____ _____  ____ __ ______    ______ _________
0001EFE 947F B3F9      003F9       17086  2                        CLEAR CPSFSAMFONT         Reset
 001F02                            17093  1                      END
                                   17097  1
 001F02 75B2/47F0 75BE 01F02 01EF4 17098  1                      ELSE  BEGIN               We want extended Samson font...
 001F06 9180 B3F9/4710_003F9       17109  2                        IF    CPSFSAMFONT,EXIT,SFONTLP  Already set
 001F0E 9680 B3F9      003F9       17127  2                        SET   CPSFSAMFONT         Set
 001F12                            17133  1                      END
                                   17137  1
 001F12 58E0 76C0/0DEE       02014 17138  1                      VCALL UPDCPSIB            Update SIB
 001F18 4780 75CE            01F22 17142  1                      IF    Z,EXIT              OK, scram
                                   17156  1
 001F1C 0640                       17157  1                      DECR  R4                  Decr max loop count
 001F1E 47F0 7588            01EDC 17159                       END
                                   17164
 001F22 1BFF                       17165                       CLEAR R15                 Aok
 001F24 47F0 75D4            01F28 17169                       B     SAMPDONE
                                   17170                       ¿þþþþþþþþþþþþþþþþþþþþþþþþþþþþþþÜ
                                   17171                       Ÿ  Release SAMWA if possible.  Ÿ
                                   17172                       ¾þþþþþþþþþþþþþþþþþþþþþþþþþþþþþþ»
 001F28 50F0 5004            00004 17173              SAMPDONE ST    R15,SAMPRC          Save return code
                                   17174
 001F2C D202 6000 773A 00000 0208E 17175                       MVC   SAMWA(3),=C'OSM'    Invalidate SAMWA
 001F32 D703 BE58 BE58 00E58 00E58 17176                       CLEAR CPDEVP
 001F38 58E0 7660/0DEE       01FB4 17183                       VCALL MARKHEAP            Get current heap ptr
 001F3E 59F0 60B8/4770_      000B8 17187                       IF    (R15,EQ,SAMNHEAP),BEGIN  We can reduce the heap...
 001F46 58F0 60B4            000B4 17204  1                      L     R15,SAMOHEAP
 001F4A 58E0 76C4/0DEE       02018 17205  1                      VCALL RELHEAP             Release SAMWA
 001F50                            17209                       END
                                   17213
 DROP   SAMWA,R6                   17214                       DROP  SAMWA               (Keeps us honest)
                                   17222                       ¿þþþþþþþþþþþþþþþþþþþþÜ
                                   17223                       Ÿ  Build log entry.  Ÿ
                                   17224                       ¾þþþþþþþþþþþþþþþþþþþþ»
                                   17225                       AGO   .NSAMLOG
                                   17226              .NSAMLOG ANOP
                                   17227
 001F50 58E0 B08C/4BD0_      0008C 17228              SAMPEXIT SCPOP
 001F5E 58F0 5004            00004 17234                       L     R15,SAMPRC          Restore return code
 001F62 18D8/9808 D004_            17235                       PEND
 DROP   SAMPWA-(4+36),R8
 DROP   *,R7
                                   17262
                                   17263                       QLTORG
1SAM      (SAM2193) (12:54) (15MAR04) Samson Interface Routines                                                             Page   36
0Current Usings:  (SAMPWA,R5) (CP,R11) (CV,R12)
0Loc    Object Code    Addr1 Addr2  Stmt Lv Lineno    Source Statement           (Hibal 5, Asmedit 3.3)  HLASM R4.0  2004/03/15 12.54
+___    ______ ____    _____ _____  ____ __ ______    ______ _________
0                                  17342                       ¿þþþþþþþþþþþþþþþþþþþþþþþþþþþþþþþþþþÜ
                                   17343                       Ÿ  Samson path parameter options.  Ÿ
                                   17344                       ¾þþþþþþþþþþþþþþþþþþþþþþþþþþþþþþþþþþ»
 002094 E3E8D7C540404040_          17345              SAMPPRT  SCKW  TYPE,PTYPE
 0020BC D4C9C3D9D6404040_          17360                       SCKW  MICRO,PTYPE         (Version 1 Samson sent this)
 0020E4 D6E2404040404040_          17375                       SCKW  OS,POS
 00210C C3C8C1D9E2C5E340_          17390                       SCKW  CHARSET,PCHARSET
 002134 C6D6D5E340404040_          17405                       SCKW  FONT,PFONT
 00215C D7D9D6E3D6404040_          17420                       SCKW  PROTO,PPROTO,(P,I)
 002184 C2E4C6C6C5D94040_          17435                       SCKW  BUFFER,PBUF,(P,I)
 0021AC E2D7C5C5C4404040_          17450                       SCKW  SPEED,PSPEED,(P,I)
 0021D4 E5C5D9E2C9D6D540_          17465                       SCKW  VERSION,PVERSION
 0021FC E3C5D9D440404040_          17480                       SCKW  TERM,PTERM
 002224 E3C5D9D4C9D5C1D3_          17495                       SCKW  TERMINAL,PTERM
 00224C D7D9C9D5E3C5D940_          17510                       SCKW  PRINTER,PPRINT
 002274 C8C5C9C7C8E34040_          17525                       SCKW  HEIGHT,PHEIGHT,(P,I)
 00229C E6C9C4E3C8404040_          17540                       SCKW  WIDTH,PWIDTH,(P,I)
 0022C4 C5D5C3D6C4C9D5C7_          17555                       SCKW  ENCODING,PENCODE,P
 0022EC C3C8C5C3D2C9D5C7_          17570                       SCKW  CHECKING,PCHECK,P
 002314 C4C9C1D3D6C74040_          17585                       SCKW  DIALOG,PDIALOG,(P,I)
 00233C 4040404040404040_          17600                       SCKW  ,V(SCNNOOP)         Ignore unrecognized stuff
                                   17615
 002364 50E0 D000/9008_      00000 17616              PTYPE    PROC
 USING  *,R7
 00237E 58E0 B08C/581E_      0008C 17655                       SCINFO
 00238C D20F BA23 C4D8 00A23 004D8 17664                       MVC   CPSAMTYP,CVBLANKS   Pre-blank
 002392 58E0 74C2/0DEE       02840 17665                       ACALL SAMTRIM
 002398 18F0                       17669                       LR    R15,R0
 00239A 59F0 74C6/47D0_      02844 17670                       CEIL  R15,L'CPSAMTYP
 0023A6 06F0/12FF/4740_            17689                       MOVE  R15,CPSAMTYP,@R1    Save Samson PC type
                                   17727                       COMMENT ** DEBUG ** IS THIS OK, WE STOP SCANNING FOR MORE
 0023B2 41F0 0004            00004 17728                       LA    R15,4
 0023B6 18D8/9808 D004_            17729                       PEND
 DROP   *,R7
                                   17749
 0023C4 50E0 D000/9008_      00000 17750              POS      PROC
 USING  *,R7
 0023DE 58E0 B08C/581E_      0008C 17789                       SCINFO
 0023EC D20F BA43 C4D8 00A43 004D8 17798                       MVC   CPSAMOS,CVBLANKS    Pre-blank
 0023F2 58E0 7462/0DEE       02840 17799                       ACALL SAMTRIM
 0023F8 18F0                       17803                       LR    R15,R0
 0023FA 59F0 746A/47D0_      02848 17804                       CEIL  R15,L'CPSAMOS
 002406 06F0/12FF/4740_            17823                       MOVE  R15,CPSAMOS,@R1     Save operating system
                                   17861                       COMMENT ** DEBUG ** IS THIS OK, WE STOP SCANNING FOR MORE
 002412 41F0 0004            00004 17862                       LA    R15,4
 002416 18D8/9808 D004_            17863                       PEND
 DROP   *,R7
                                   17883
 002424 50E0 D000/9008_      00000 17884              PVERSION PROC
 USING  *,R7
 00243E 58E0 B08C/581E_      0008C 17923                       SCINFO
 00244C D20F BA33 C4D8 00A33 004D8 17932                       MVC   CPSAMVER,CVBLANKS   Pre-blank
 002452 58E0 7402/0DEE       02840 17933                       ACALL SAMTRIM
 002458 18F0                       17937                       LR    R15,R0
1SAM      (SAM2193) (12:54) (15MAR04) Samson Interface Routines                                                             Page   37
0Current Usings:  (SAMPWA,R5) (*,R7) (CP,R11) (CV,R12)
0Loc    Object Code    Addr1 Addr2  Stmt Lv Lineno    Source Statement           (Hibal 5, Asmedit 3.3)  HLASM R4.0  2004/03/15 12.54
+___    ______ ____    _____ _____  ____ __ ______    ______ _________
000245A 59F0 740E/47D0_      0284C 17938                       CEIL  R15,L'CPSAMVER
 002466 06F0/12FF/4740_            17957                       MOVE  R15,CPSAMVER,@R1    Save Samson version
                                   17995                       COMMENT ** DEBUG ** IS THIS OK, WE STOP SCANNING FOR MORE
 002472 41F0 0004            00004 17996                       LA    R15,4
 002476 18D8/9808 D004_            17997                       PEND
 DROP   *,R7
                                   18017
 002484 50E0 D000/9008_      00000 18018              PPROTO   PROC
 USING  *,R7
 00249E 4000 BA94            00A94 18057                       STH   R0,CPSAMPRO         Save Samson protocol version
 0024A2 18D8/9808 D004_            18058                       PEND
 DROP   *,R7
                                   18078
 0024B0 50E0 D000/9008_      00000 18079              PDIALOG  PROC
 USING  *,R7
 0024CA 4000 BAA4            00AA4 18118                       STH   R0,CPSAMDV          Save dialog support version
 0024CE 18D8/9808 D004_            18119                       PEND
 DROP   *,R7
                                   18139
 0024DC 50E0 D000/9008_      00000 18140              PBUF     PROC
 USING  *,R7
 0024F6 5000 BAA8            00AA8 18179                       ST    R0,CPSAMBUFF        Save buffer size
 0024FA 18D8/9808 D004_            18180                       PEND
 DROP   *,R7
                                   18200
 002508 50E0 D000/9008_      00000 18201              PSPEED   PROC
 USING  *,R7
 002522 4000 BAA2            00AA2 18240                       STH   R0,CPSAMSPD        Save line speed
                                   18241                       ¿þþþþþþþþþþþþþþþþþþþþþþþþþþþþþþþþþþþþþþþþþþþþþþþþþþþþþþþþþþþþÜ
                                   18242                       Ÿ  Set buffer size and timeout value based on line speed as  Ÿ
                                   18243                       Ÿ    follows:                                                Ÿ
                                   18244                       Ÿ                                                            Ÿ
                                   18245                       Ÿ      under 1200 baud       buffer=256, timeout=15          Ÿ
                                   18246                       Ÿ      1200, 2400 baud       buffer=400, timeout=15          Ÿ
                                   18247                       Ÿ      4800, 9600 baud       buffer=960, timeout=15          Ÿ
                                   18248                       Ÿ     (0 baud) network       buffer=1200, timeout=60         Ÿ
                                   18249                       ¾þþþþþþþþþþþþþþþþþþþþþþþþþþþþþþþþþþþþþþþþþþþþþþþþþþþþþþþþþþþþ»
 002526 1200/4770 7012_            18250                       IF    (R0,Z),'LA R2,1200; LA R3,60'
 002534 7016/47F0 7022_02534 0252A 18271                       ELSEIF (R0,LLT,1200),'LA R2,256' LA R3,15'
 002544 7026/47F0 7036_02544 0253E 18303                       ELSEIF (R0,LLT,4800),'LA R2,400; LA R3,15'
 002558 703A/47F0 7042_02558 0254E 18336                       ELSE  'LA R2,960; LA R3,15'
                                   18354
 002564 9110 BA21/4710_00A21       18355                       IF    ~CPSAMFUBUFFER,'ST R2,CPSAMBUFF' Set new buffer size
 002570 9108 BA21/4710_00A21       18376                       IF    ~CPSAMFUTMOUT,'STH R3,CPSAMTMO'  Set new timeout size
 00257C 1BFF                       18397                       CLEAR R15
 00257E 18D8/9808 D004_            18401                       PEND
 DROP   *,R7
                                   18421
 00258C 50E0 D000/9008_      00000 18422              PTERM    PROC
 USING  *,R7
 0025A6 58E0 B08C/581E_      0008C 18461                       SCINFO
 0025B4 D207 BA53 C4D8 00A53 004D8 18470                       MVC   CPSAMTRM,CVBLANKS   Pre-blank
 0025BA 58E0 729A/0DEE       02840 18471                       ACALL SAMTRIM
 0025C0 18F0                       18475                       LR    R15,R0
1SAM      (SAM2193) (12:54) (15MAR04) Samson Interface Routines                                                             Page   38
0Current Usings:  (SAMPWA,R5) (*,R7) (CP,R11) (CV,R12)
0Loc    Object Code    Addr1 Addr2  Stmt Lv Lineno    Source Statement           (Hibal 5, Asmedit 3.3)  HLASM R4.0  2004/03/15 12.54
+___    ______ ____    _____ _____  ____ __ ______    ______ _________
00025C2 59F0 72B2/47D0_      02858 18476                       CEIL  R15,L'CPSAMTRM
 0025CE 06F0/12FF/4740_            18495                       MOVE  R15,CPSAMTRM,@R1    Save Samson terminal type
                                   18533                       COMMENT ** DEBUG ** IS THIS OK, WE STOP SCANNING FOR MORE
 0025DA 41F0 0004            00004 18534                       LA    R15,4
 0025DE 18D8/9808 D004_            18535                       PEND
 DROP   *,R7
                                   18555
 0025EC 50E0 D000/9008_      00000 18556              PCHARSET PROC
 USING  *,R7
 002606 58E0 B08C/581E_      0008C 18595                       SCINFO
 002614 D20F BA73 C4D8 00A73 004D8 18604                       MVC   CPSAMFONT,CVBLANKS  Pre-blank
 00261A 58E0 723A/0DEE       02840 18605                       ACALL SAMTRIM
 002620 18F0                       18609                       LR    R15,R0
 002622 D206 BA73 726A 00A73 02870 18610                       MVC   CPSAMFONT(7),=C'SAMFONT'
 002628 59F0 7256/47D0_      0285C 18611                       CEIL  R15,L'CPSAMFONT-7
 002634 06F0/12FF/4740_            18630                       MOVE  R15,CPSAMFONT+7,@R1 Save Samson font suffix
                                   18668                       COMMENT ** DEBUG ** IS THIS OK, WE STOP SCANNING FOR MORE
 002640 41F0 0004            00004 18669                       LA    R15,4
 002644 18D8/9808 D004_            18670                       PEND
 DROP   *,R7
                                   18690
 002652 50E0 D000/9008_      00000 18691              PFONT    PROC
 USING  *,R7
 00266C 58E0 B08C/581E_      0008C 18730                       SCINFO
 00267A D20F BA73 C4D8 00A73 004D8 18739                       MVC   CPSAMFONT,CVBLANKS  Pre-blank
 002680 58E0 71D4/0DEE       02840 18740                       ACALL SAMTRIM
 002686 18F0                       18744                       LR    R15,R0
 002688 59F0 71F4/47D0_      02860 18745                       CEIL  R15,L'CPSAMFONT
 002694 06F0/12FF/4740_            18764                       MOVE  R15,CPSAMFONT,@R1   Save Samson font
                                   18802                       COMMENT ** DEBUG ** IS THIS OK, WE STOP SCANNING FOR MORE
 0026A0 41F0 0004            00004 18803                       LA    R15,4
 0026A4 18D8/9808 D004_            18804                       PEND
 DROP   *,R7
                                   18824
 0026B2 50E0 D000/9008_      00000 18825              PPRINT   PROC
 USING  *,R7
 0026CC 58E0 B08C/581E_      0008C 18864                       SCINFO
 0026DA D217 BA5B C4D8 00A5B 004D8 18873                       MVC   CPSAMLPR,CVBLANKS   Pre-blank
 0026E0 58E0 7174/0DEE       02840 18874                       ACALL SAMTRIM
 0026E6 18F0                       18878                       LR    R15,R0
 0026E8 59F0 7198/47D0_      02864 18879                       CEIL  R15,L'CPSAMLPR
 0026F4 06F0/12FF/4740_            18898                       MOVE  R15,CPSAMLPR,@R1    Save Samson printer type
                                   18936                       COMMENT ** DEBUG ** IS THIS OK, WE STOP SCANNING FOR MORE
 002700 41F0 0004            00004 18937                       LA    R15,4
 002704 18D8/9808 D004_            18938                       PEND
 DROP   *,R7
                                   18958
 002712 50E0 D000/9008_      00000 18959              PHEIGHT  PROC
 USING  *,R7
 00272C 4000 BA9A            00A9A 18998                       STH   R0,CPSAMHEI         Save Samson height
 002730 18D8/9808 D004_            18999                       PEND
 DROP   *,R7
                                   19019
 00273E 50E0 D000/9008_      00000 19020              PWIDTH   PROC
1SAM      (SAM2193) (12:54) (15MAR04) Samson Interface Routines                                                             Page   39
0Current Usings:  (SAMPWA,R5) (*,R7) (CP,R11) (CV,R12)
0Loc    Object Code    Addr1 Addr2  Stmt Lv Lineno    Source Statement           (Hibal 5, Asmedit 3.3)  HLASM R4.0  2004/03/15 12.54
+___    ______ ____    _____ _____  ____ __ ______    ______ _________
0USING  *,R7
 002758 4000 BA9C            00A9C 19059                       STH   R0,CPSAMWID         Save Samson width
 00275C 18D8/9808 D004_            19060                       PEND
 DROP   *,R7
                                   19080
 00276A 50E0 D000/9008_      00000 19081              PENCODE  PROC
 USING  *,R7
 002784 58F0 B08C/41FF_      0008C 19120                       SCUPTOK (R15)
 00278C 9104 BA21/4710_00A21       19124                       IF    ~CPSAMFUENCODE,BEGIN  Ok to set different encoding...
 002794 94F3 BA22      00A22       19139  1                      CLEAR CPSAMFEMASK         Default is 8-bit mode
 002798 D506 70F3 F000_02877 00000 19146  1                      IF    (@R15,EQ,'PACKED '),'SET CPSAMFPCK'  Packed
 0027A6 7026/47F0 7034_027A6 027A0 19173  1                      ELSEIF (@R15,EQ,'7BIT '),'SET CPSAMF7BIT'  7-bit
 0027B8 7038/47F0 7046_027B8 027B2 19209  1                      ELSEIF (@R15,EQ,'HEX '),'SET CPSAMFHEX'    Hex
 0027CA                            19245                       END
 0027CA 1BFF                       19249                       CLEAR R15
 0027CC 18D8/9808 D004_            19253                       PEND
 DROP   *,R7
                                   19273
 0027DA 50E0 D000/9008_      00000 19274              PCHECK   PROC
 USING  *,R7
 0027F4 58F0 B08C/41FF_      0008C 19313                       SCUPTOK (R15)
 0027FC 9102 BA21/4710_00A21       19317                       IF    ~CPSAMFUCHECK,BEGIN  Ok to set different encoding...
 002804 94FC BA22      00A22       19332  1                      CLEAR CPSAMFCMASK         No error checking
 002808 D507 7044 F000_02838 00000 19339  1                      IF    (@R15,EQ,'CHECKSUM'),'SET CPSAMFCKS'  Checksum
 002816 7026/47F0 7034_02816 02810 19366  1                      ELSEIF (@R15,EQ,'CRC '),'SET CPSAMFCRC'     CRC
 002828                            19402                       END
 002828 1BFF                       19406                       CLEAR R15
 00282A 18D8/9808 D004_            19410                       PEND
 DROP   *,R7
                                   19430
 DROP   SAMPWA,R5                  19431                       DROP   R5
                                   19438                       SEGDEF DUMMY              (Safety)
                                   19439
                                   19440                       QLTORG
1SAM      (SAM2193) (12:54) (15MAR04) Samson Interface Routines                                                             Page   40
0Current Usings:  (CP,R11) (CV,R12)
0Loc    Object Code    Addr1 Addr2  Stmt Lv Lineno    Source Statement           (Hibal 5, Asmedit 3.3)  HLASM R4.0  2004/03/15 12.54
+___    ______ ____    _____ _____  ____ __ ______    ______ _________
0                                  19469              ¿þþþþþþþþþþþþþþþþþþþþþþþþþþþþþþþþþþþþþþþþþþþþþþþþþþþþþþþþþþþþþþþþþþþþþÜ
                                   19470              Ÿ                                                                     Ÿ
                                   19471              Ÿ  SAMSCR -- Routine to scratch a Samson file.                        Ÿ
                                   19472              Ÿ                                                                     Ÿ
                                   19473              Ÿ    On entry:                                                        Ÿ
                                   19474              Ÿ      FFINFO dsect contains information about the file               Ÿ
                                   19475              Ÿ                                                                     Ÿ
                                   19476              Ÿ    On exit, R15 (and cc):                                           Ÿ
                                   19477              Ÿ      0 - scratched successfully                                     Ÿ
                                   19478              Ÿ      4 - not scratched (CPERRID contains error id)                  Ÿ
                                   19479              Ÿ                                                                     Ÿ
                                                      ¾þþþþþþþþþþþþþþþþþþþþþþþþþþþþþþþþþþþþþþþþþþþþþþþþþþþþþþþþþþþþþþþþþþþþþ»
00028AE 50E0 D000/9008_      00000 19480              SAMSCR   XPROC
 USING  *,R7
 0028C8 5850 BE54            00E54 19520                       L     R5,CPFINFOP
 USING  FFINFO,R5                  19521                       USING FFINFO,R5
                                   19530                       ¿þþþþþþþþþþþþþþþþÜ
                                   19531                       Ÿ  Do the open.  Ÿ
                                   19532                       ¾þþþþþþþþþþþþþþþþ»
 0028CC 58E0 7C50/0DEE       03518 19533                       VCALL MARKHEAP            Get current heap ptr
 0028D2 182F                       19537                       LR    R2,R15
                                   19538
 0028D4 4800 7CC0            03588 19539                       LH    R0,=AL2(L'SAMWA)
 0028D8 58E0 7C54/0DEE       0351C 19540                       VCALL GETHEAP             Get work area
 0028DE 5010 BE58            00E58 19544                       ST    R1,CPDEVP
 0028E2 1861                       19545                       LR    R6,R1
 USING  SAMWA,R6                   19546                       WITH  (SAMWA,R6)
 0028E4 D7FF 6004 6004_00004 00004 19559                       CLEAR SAMCLEAR
 0028F0 D202 6000 7CDE 00000 035A6 19567                       MVC   SAMWA(3),=C'SAM'    Id
                                   19568
 0028F6 5020 60B4            000B4 19569                       ST    R2,SAMOHEAP         Save old heap ptr
 0028FA 58E0 7C50/0DEE       03518 19570                       VCALL MARKHEAP            Get current heap ptr
 002900 50F0 60B8            000B8 19574                       ST    R15,SAMNHEAP        Save new heap ptr
                                   19575
                                   19576                       COMMENT                   SCAN SAM OPTIONS
 002904 58E0 B08C/D2AF_      0008C 19577                       SCPUSH
 002912 4110 5114/5800_      00114 19583                       SCINIT FFOPTS,L:FFOPTSL
 002928 5810 B08C/1B00_      0008C 19607                       SCAN  SAMSPRT
 00297A 58E0 7C60/0DEE       03528 19639                       SCANCHK                   ERROR EXIT FROM HERE !
 002980 58E0 B08C/4BD0_      0008C 19644                       SCPOP
                                   19650
                                   19651                       COMMENT                   RESOLVE NAME
 00298E 58E0 7C64/0DEE       0352C 19652                       VCALL NRESOLVE
                                   19656
                                   19657                       COMMENT                   SET FILE, HOST NAME
 002994 58E0 7C68/0DEE       03530 19658                       ACALL SETFNAME
                                   19662
 00299A 4110 6ACC/4100_      00ACC 19663                       SEGINIT SAMWRBUF,,SAMSG,RTN=SAMSEG
                                   19705
 0029BA 4110 6000            00000 19706                       LA    R1,SAMWA
 0029BE 4A10 7CC6            0358E 19707                       AH    R1,=AL2(SAMINBUF-SAMWA)
 0029C2 4800 7CC8            03590 19708                       LH    R0,=AL2(L'SAMINBUF)
 0029C6 41F0 6190/58E0_      00190 19709                       SEGINIT (R1),(R0),.SAMINSG  Initialize input seg buffer
1SAM      (SAM2193) (12:54) (15MAR04) Samson Interface Routines                                                             Page   41
0Current Usings:  (FFINFO,R5) (SAMWA,R6) (*,R7) (CP,R11) (CV,R12)
0Loc    Object Code    Addr1 Addr2  Stmt Lv Lineno    Source Statement           (Hibal 5, Asmedit 3.3)  HLASM R4.0  2004/03/15 12.54
+___    ______ ____    _____ _____  ____ __ ______    ______ _________
0                                  19732                       ¿þþþþþþþþþþþþþþþþþþþþþþþþþþÜ
                                   19733                       Ÿ  Send path open packet.  Ÿ
                                   19734                       ¾þþþþþþþþþþþþþþþþþþþþþþþþþþ»
 0029D0 D201 6124 7CCA 00124 03592 19735                       MVC   SAMSCMD,=C'PO'      Path open
                                   19736                       ¿þþþþþþþþþþþþþþþþþþþþþþþþþþþþþþþþþþþþþþþþþþþþþþþþþþþþþþþþþþþþÜ
                                   19737                       Ÿ  Version 1 CRC calculation was not correct, so we can not  Ÿ
                                   19738                       Ÿ    request it.                                             Ÿ
                                   19739                       ¾þþþþþþþþþþþþþþþþþþþþþþþþþþþþþþþþþþþþþþþþþþþþþþþþþþþþþþþþþþþþ»
 0029D6 D501 7CCC BA94_03594 00A94 19740                       IF    (CPSAMPRO,LT,2),BEGIN  No CRC in version 1...
 0029E0 94FB BA22      00A22       19758  1                      CLEAR CPSAMFPCK           Version 1 can not do packed
 0029E4 94FE BA22      00A22       19765  1                      CLEAR CPSAMFCRC           Version 1 can not do CRC
 0029E8                            19772                       END
                                   19776
 0029E8 58E0 7C78/0DEE       03540 19777                       ACALL SEGHEAD             Seg packet header
 0029EE 58E0 7C7C/0DEE       03544 19781                       ACALL SEGTRAIL            Seg packet trailer
 0029F4 1B00/41F0 60E8_            19785                       SEGWR
                                   19809
 002A00 9608 BF37      00F37       19810                       SET   DSNFSTAT            Give "in progress" status msgs
                                   19816                       ¿þþþþþþþþþþþþþþþþþþþþþþþþþþþþþþþþþþþþÜ
                                   19817                       Ÿ  Send file delete request packet.  Ÿ
                                   19818                       ¾þþþþþþþþþþþþþþþþþþþþþþþþþþþþþþþþþþþþ»
 002A04 D201 6124 7CCE 00124 03596 19819                       MVC   SAMSCMD,=C'FD'      File delete parameters
 002A0A 58E0 7C78/0DEE       03540 19820                       ACALL SEGHEAD             Seg packet header
                                   19824
                                   19825                       COMMENT                   Specify file
 002A10 4110 7CE1/4100_      035A9 19826                       SEG   'FILE='
 002A22 4110 600C/5800_      0000C 19843                       SEG   SAMFNAME,L:SAMFNAMEL
                                   19870
 002A34 58E0 7C88/0DEE       03550 19871                       ACALL SEGEOD              End of parameters
                                   19875
 002A3A 58E0 7C7C/0DEE       03544 19876                       ACALL SEGTRAIL            Seg packet trailer
 002A40 9604 6004      00004       19880                       SET   SAMFERET            Return even if error
 002A44 1B00/41F0 60E8_            19886                       SEGWR
                                   19910                       ¿þþþþþþþþþþþþþþþþþþþþþþþþþþþþþþþþþþþþþþþþþþþþþþþþþþþþþþþþþþþÜ
                                   19911                       Ÿ  Process open error.                                      Ÿ
                                   19912                       Ÿ    CPERRID has the error id and the TSEG buffer contains  Ÿ
                                   19913                       Ÿ    the msg.                                               Ÿ
                                   19914                       ¾þþþþþþþþþþþþþþþþþþþþþþþþþþþþþþþþþþþþþþþþþþþþþþþþþþþþþþþþþþþ»
 002A50 94FB 6004      00004       19915                       CLEAR SAMFERET            Reset error trapping
 002A54 9102 6004/47E0_00004       19922                       IF    SAMFERC,'LA R15,4; B SAMSEXIT'  Open error
                                   19944                       ¿þþþþþþþþþþþþþþþþþþþþþþþþþþþþþþþþþþþþþþþþÜ
                                   19945                       Ÿ  Process scratch enviornment options.  Ÿ
                                   19946                       ¾þþþþþþþþþþþþþþþþþþþþþþþþþþþþþþþþþþþþþþþþ»
 002A64 D601 6138 6138_00138 00138 19947                       IF    (SAMRDLEN,NZ),BEGIN
 002A6E                            19963  1                      LOOP  BEGIN
 002A6E 58E0 7C8C/0DEE       03554 19969  2                        ACALL INLINE              Get enviornment options
 002A74 4770 7216            02ADE 19973  2                        IF    NZ,EXIT             Nothing left, scram
                                   19987  2
 002A78 58E0 B08C/501E_      0008C 19988  2                        SCINIT (R1),(R0)
 002A86 5810 B08C/1B00_      0008C 20008  2                        SCAN  SAMRSPRT             Process enviornment options
 002AD8 1BFF                       20040  2                        CLEAR R15                 Ignore errors
 002ADA 47F0 71A6            02A6E 20044  1                      END
 002ADE                            20049                       END
1SAM      (SAM2193) (12:54) (15MAR04) Samson Interface Routines                                                             Page   42
0Current Usings:  (FFINFO,R5) (SAMWA,R6) (*,R7) (CP,R11) (CV,R12)
0Loc    Object Code    Addr1 Addr2  Stmt Lv Lineno    Source Statement           (Hibal 5, Asmedit 3.3)  HLASM R4.0  2004/03/15 12.54
+___    ______ ____    _____ _____  ____ __ ______    ______ _________
0                                  20053                       ¿þþþþþþþþþþþþþþþþþþþÜ
                                   20054                       Ÿ  Now close path.  Ÿ
                                   20055                       ¾þþþþþþþþþþþþþþþþþþþ»
 002ADE D201 6124 7CD0 00124 03598 20056                       MVC   SAMSCMD,=C'PC'      Path close
 002AE4 58E0 7C78/0DEE       03540 20057                       ACALL SEGHEAD             Seg packet header
 002AEA 58E0 7C7C/0DEE       03544 20061                       ACALL SEGTRAIL            Seg packet trailer
 002AF0 1B00/41F0 60E8_            20065                       SEGWR
                                   20089
 002AFC 1BFF                       20090                       CLEAR R15                 A-ok
 002AFE 47F0 723A            02B02 20094                       B     SAMSEXIT
                                   20095                       ¿þþþþþþþþþþþþþþþþþþþþþþþþþþþþþþÜ
                                   20096                       Ÿ  Release SAMWA if possible.  Ÿ
                                   20097                       ¾þþþþþþþþþþþþþþþþþþþþþþþþþþþþþþ»
 002B02 50F0 D000/41D0_      00000 20098              SAMSEXIT XPUSH R15                 Save return code
                                   20101
 002B0A D202 6000 7CE6 00000 035AE 20102                       MVC   SAMWA(3),=C'OSM'    Invalidate SAMWA
 002B10 D703 BE58 BE58 00E58 00E58 20103                       CLEAR CPDEVP
 002B16 58E0 7C50/0DEE       03518 20110                       VCALL MARKHEAP            Get current heap ptr
 002B1C 59F0 60B8/4770_      000B8 20114                       IF    (R15,EQ,SAMNHEAP),BEGIN  We can reduce the heap...
 002B24 58F0 60B4            000B4 20131  1                      L     R15,SAMOHEAP
 002B28 58E0 7C94/0DEE       0355C 20132  1                      VCALL RELHEAP             Release SAMWA
 002B2E                            20136                       END
                                   20140
 002B2E 4BD0 7CD2/58F0_      0359A 20141                       XPOP  R15                 Return code
 002B36 18D8/9808 D004_            20144                       PEND
 DROP   SAMWA,R6
 DROP   *,R7
1SAM      (SAM2193) (12:54) (15MAR04) Samson Interface Routines                                                             Page   43
0Current Usings:  (FFINFO,R5) (CP,R11) (CV,R12)
0Loc    Object Code    Addr1 Addr2  Stmt Lv Lineno    Source Statement           (Hibal 5, Asmedit 3.3)  HLASM R4.0  2004/03/15 12.54
+___    ______ ____    _____ _____  ____ __ ______    ______ _________
0                                  20170              *
                                   20171              *   Scratch open options
                                   20172              *   None.
                                   20173              *
 002B44 4040404040404040_          20174              SAMSPRT  SCKW  ,V(NOTVALID)
                                   20189              *
                                   20190              *
                                   20191              *   Scratch enviornment options.
                                   20192              *   Returned from micro
                                   20193              *
                                   20194              *
 002B6C C6C9D3C540404040_          20195              SAMRSPRT SCKW  FILE,SFILE
 002B94 4040404040404040_          20210                       SCKW  ,V(SCNNOOP)         Ignore unrecognized stuff
                                   20225              *
                                   20226              *
 002BBC 50E0 D000/9008_      00000 20227              SFILE    PROC
 USING  *,R7
 002BD6 58E0 B08C/581E_      0008C 20266                       SCINFO
 002BE4 58E0 798A/0DEE       03560 20275                       ACALL SAMTRIM
                                   20279
                                   20280                       COMMENT                   Save fully resolved name
 002BEA 1820                       20281                       LR    R2,R0
 002BEC 5920 798E/47D0_      03564 20282                       CEIL  R2,L'FFRNAME
 002BF8 5020 5214            00214 20301                       ST    R2,FFRNAMEL
 002BFC 0620/1222/4740_            20302                       MOVE  R2,FFRNAME,@R1
                                   20340
 002C08 41F0 0004            00004 20341                       LA    R15,4
 002C0C 18D8/9808 D004_            20342                       PEND
 DROP   *,R7
 DROP   FFINFO,R5                  20362                       DROP  R5
1SAM      (SAM2193) (12:54) (15MAR04) Samson Interface Routines                                                             Page   44
0Current Usings:  (CP,R11) (CV,R12)
0Loc    Object Code    Addr1 Addr2  Stmt Lv Lineno    Source Statement           (Hibal 5, Asmedit 3.3)  HLASM R4.0  2004/03/15 12.54
+___    ______ ____    _____ _____  ____ __ ______    ______ _________
0                                  20370              ¿þþþþþþþþþþþþþþþþþþþþþþþþþþþþþþþþþþþþþþþþþþþþþþþþþþþþþþþþþþþþþþþþþþþþþÜ
                                   20371              Ÿ                                                                     Ÿ
                                   20372              Ÿ  SAMREN -- Routine to rename a Samson file.                         Ÿ
                                   20373              Ÿ                                                                     Ÿ
                                   20374              Ÿ    On entry:                                                        Ÿ
                                   20375              Ÿ      R1,R0 - fully resolved old file name loc, len                  Ÿ
                                   20376              Ÿ      R2,R3 - fully resolved new file name loc, len                  Ÿ
                                   20377              Ÿ      FFINFO dsect contains information about the file               Ÿ
                                   20378              Ÿ                                                                     Ÿ
                                   20379              Ÿ    On exit, R15 (and cc):                                           Ÿ
                                   20380              Ÿ      0 - renamed successfully                                       Ÿ
                                   20381              Ÿ      4 - not renamed (CPERRID contains error id)                    Ÿ
                                   20382              Ÿ                                                                     Ÿ
                                   20383              Ÿ                                                                     Ÿ
                                                      ¾þþþþþþþþþþþþþþþþþþþþþþþþþþþþþþþþþþþþþþþþþþþþþþþþþþþþþþþþþþþþþþþþþþþþþ»
0002C1A 50E0 D000/9008_      00000 20384              SAMREN   XPROC
 USING  *,R7
                                   20424
 002C34 9003 D000/41D0_      00000 20425                       XPUSH R0,R3               Save file name pointers
                                   20428
 002C3C 5850 BE54            00E54 20429                       L     R5,CPFINFOP
 USING  FFINFO,R5                  20430                       USING FFINFO,R5
                                   20439                       ¿þþþþþþþþþþþþþþþþÜ
                                   20440                       Ÿ  Do the open.  Ÿ
                                   20441                       ¾þþþþþþþþþþþþþþþþ»
 002C40 58E0 78E4/0DEE       03518 20442                       VCALL MARKHEAP            Get current heap ptr
 002C46 182F                       20446                       LR    R2,R15
                                   20447
 002C48 4800 7954            03588 20448                       LH    R0,=AL2(L'SAMWA)
 002C4C 58E0 78E8/0DEE       0351C 20449                       VCALL GETHEAP             Get work area
 002C52 5010 BE58            00E58 20453                       ST    R1,CPDEVP
 002C56 1861                       20454                       LR    R6,R1
 USING  SAMWA,R6                   20455                       WITH  (SAMWA,R6)
 002C58 D7FF 6004 6004_00004 00004 20468                       CLEAR SAMCLEAR
 002C64 D202 6000 7972 00000 035A6 20476                       MVC   SAMWA(3),=C'SAM'    Id
                                   20477
 002C6A 5020 60B4            000B4 20478                       ST    R2,SAMOHEAP         Save old heap ptr
 002C6E 58E0 78E4/0DEE       03518 20479                       VCALL MARKHEAP            Get current heap ptr
 002C74 50F0 60B8            000B8 20483                       ST    R15,SAMNHEAP        Save new heap ptr
                                   20484
                                   20485                       COMMENT                   Save samson file names
 002C78 4BD0 7968/9803_      0359C 20486                       XPOP  R0,R3
 002C80 5000 608C            0008C 20489                       ST    R0,SAMOLDFNL
 002C84 5010 6090            00090 20490                       ST    R1,SAMOLDFN
 002C88 5020 6098            00098 20491                       ST    R2,SAMNEWFN
 002C8C 5030 6094            00094 20492                       ST    R3,SAMNEWFNL
                                   20493
 002C90 4110 6ACC/4100_      00ACC 20494                       SEGINIT SAMWRBUF,,SAMSG,RTN=SAMSEG
                                   20536
 002CB0 4110 6000            00000 20537                       LA    R1,SAMWA
 002CB4 4A10 795A            0358E 20538                       AH    R1,=AL2(SAMINBUF-SAMWA)
 002CB8 4800 795C            03590 20539                       LH    R0,=AL2(L'SAMINBUF)
 002CBC 41F0 6190/58E0_      00190 20540                       SEGINIT (R1),(R0),.SAMINSG  Initialize input seg buffer
1SAM      (SAM2193) (12:54) (15MAR04) Samson Interface Routines                                                             Page   45
0Current Usings:  (FFINFO,R5) (SAMWA,R6) (*,R7) (CP,R11) (CV,R12)
0Loc    Object Code    Addr1 Addr2  Stmt Lv Lineno    Source Statement           (Hibal 5, Asmedit 3.3)  HLASM R4.0  2004/03/15 12.54
+___    ______ ____    _____ _____  ____ __ ______    ______ _________
0                                  20563                       ¿þþþþþþþþþþþþþþþþþþþþþþþþþþÜ
                                   20564                       Ÿ  Send path open packet.  Ÿ
                                   20565                       ¾þþþþþþþþþþþþþþþþþþþþþþþþþþ»
 002CC6 D201 6124 795E 00124 03592 20566                       MVC   SAMSCMD,=C'PO'      Path open
                                   20567                       ¿þþþþþþþþþþþþþþþþþþþþþþþþþþþþþþþþþþþþþþþþþþþþþþþþþþþþþþþþþþþþÜ
                                   20568                       Ÿ  Version 1 CRC calculation was not correct, so we can not  Ÿ
                                   20569                       Ÿ    request it.                                             Ÿ
                                   20570                       ¾þþþþþþþþþþþþþþþþþþþþþþþþþþþþþþþþþþþþþþþþþþþþþþþþþþþþþþþþþþþþ»
 002CCC D501 7960 BA94_03594 00A94 20571                       IF    (CPSAMPRO,LT,2),BEGIN  No CRC in version 1...
 002CD6 94FB BA22      00A22       20589  1                      CLEAR CPSAMFPCK           Version 1 can not do packed
 002CDA 94FE BA22      00A22       20596  1                      CLEAR CPSAMFCRC           Version 1 can not do CRC
 002CDE                            20603                       END
                                   20607
 002CDE 58E0 790C/0DEE       03540 20608                       ACALL SEGHEAD             Seg packet header
 002CE4 58E0 7910/0DEE       03544 20612                       ACALL SEGTRAIL            Seg packet trailer
 002CEA 1B00/41F0 60E8_            20616                       SEGWR
                                   20640
 002CF6 9608 BF37      00F37       20641                       SET   DSNFSTAT            Give "in progress" status msgs
                                   20647                       ¿þþþþþþþþþþþþþþþþþþþþþþþþþþþþþþþþþþþþÜ
                                   20648                       Ÿ  Send file rename request packet.  Ÿ
                                   20649                       ¾þþþþþþþþþþþþþþþþþþþþþþþþþþþþþþþþþþþþ»
 002CFA D201 6124 796A 00124 0359E 20650                       MVC   SAMSCMD,=C'FR'      File rename parameters
 002D00 58E0 790C/0DEE       03540 20651                       ACALL SEGHEAD             Seg packet header
                                   20655
                                   20656                       COMMENT                   Specify file
 002D06 4110 7975/4100_      035A9 20657                       SEG   'FILE='
 002D18 5810 6090/5800_      00090 20674                       SEG   L:SAMOLDFN,L:SAMOLDFNL
 002D2A 58E0 7934/0DEE       03568 20699                       ACALL SEGSEP
                                   20703
 002D30 4110 78DC/4100_      03510 20704                       SEG   'NEWFILE='          New file name
 002D42 5810 6098/5800_      00098 20721                       SEG   L:SAMNEWFN,L:SAMNEWFNL
                                   20746
 002D54 58E0 791C/0DEE       03550 20747                       ACALL SEGEOD              End of parameters
                                   20751
 002D5A 58E0 7910/0DEE       03544 20752                       ACALL SEGTRAIL            Seg packet trailer
 002D60 9604 6004      00004       20756                       SET   SAMFERET            Return even if error
 002D64 1B00/41F0 60E8_            20762                       SEGWR
                                   20786                       ¿þþþþþþþþþþþþþþþþþþþþþþþþþþþþþþþþþþþþþþþþþþþþþþþþþþþþþþþþþþþÜ
                                   20787                       Ÿ  Process open error.                                      Ÿ
                                   20788                       Ÿ    CPERRID has the error id and the TSEG buffer contains  Ÿ
                                   20789                       Ÿ    the msg.                                               Ÿ
                                   20790                       ¾þþþþþþþþþþþþþþþþþþþþþþþþþþþþþþþþþþþþþþþþþþþþþþþþþþþþþþþþþþþ»
 002D70 94FB 6004      00004       20791                       CLEAR SAMFERET            Reset error trapping
 002D74 9102 6004/47E0_00004       20798                       IF    SAMFERC,'LA R15,4; B SAMNEXIT'  Open error
                                   20820                       ¿þþþþþþþþþþþþþþþþþþþþþþþþþþþþþþþþþþþþþþþÜ
                                   20821                       Ÿ  Process rename enviornment options.  Ÿ
                                   20822                       ¾þþþþþþþþþþþþþþþþþþþþþþþþþþþþþþþþþþþþþþþ»
 002D84 D601 6138 6138_00138 00138 20823                       IF    (SAMRDLEN,NZ),BEGIN
 002D8E                            20839  1                      LOOP  BEGIN
 002D8E 58E0 7920/0DEE       03554 20845  2                        ACALL INLINE              Get enviornment options
 002D94 4770 71CA            02DFE 20849  2                        IF    NZ,EXIT             Nothing left, scram
                                   20863  2
 002D98 58E0 B08C/501E_      0008C 20864  2                        SCINIT (R1),(R0)
 002DA6 5810 B08C/1B00_      0008C 20884  2                        SCAN  SAMRRPRT            Process enviornment options
1SAM      (SAM2193) (12:54) (15MAR04) Samson Interface Routines                                                             Page   46
0Current Usings:  (FFINFO,R5) (SAMWA,R6) (*,R7) (CP,R11) (CV,R12)
0Loc    Object Code    Addr1 Addr2  Stmt Lv Lineno    Source Statement           (Hibal 5, Asmedit 3.3)  HLASM R4.0  2004/03/15 12.54
+___    ______ ____    _____ _____  ____ __ ______    ______ _________
0002DF8 1BFF                       20916  2                        CLEAR R15                 Ignore errors
 002DFA 47F0 715A            02D8E 20920  1                      END
 002DFE                            20925                       END
                                   20929                       ¿þþþþþþþþþþþþþþþþþþþÜ
                                   20930                       Ÿ  Now close path.  Ÿ
                                   20931                       ¾þþþþþþþþþþþþþþþþþþþ»
 002DFE D201 6124 7964 00124 03598 20932                       MVC   SAMSCMD,=C'PC'      Path close
 002E04 58E0 790C/0DEE       03540 20933                       ACALL SEGHEAD             Seg packet header
 002E0A 58E0 7910/0DEE       03544 20937                       ACALL SEGTRAIL            Seg packet trailer
 002E10 1B00/41F0 60E8_            20941                       SEGWR
                                   20965
 002E1C 1BFF                       20966                       CLEAR R15                 A-ok
 002E1E 47F0 71EE            02E22 20970                       B     SAMNEXIT
                                   20971                       ¿þþþþþþþþþþþþþþþþþþþþþþþþþþþþþþÜ
                                   20972                       Ÿ  Release SAMWA if possible.  Ÿ
                                   20973                       ¾þþþþþþþþþþþþþþþþþþþþþþþþþþþþþþ»
 002E22 50F0 D000/41D0_      00000 20974              SAMNEXIT XPUSH R15                 Save return code
                                   20977
 002E2A D202 6000 797A 00000 035AE 20978                       MVC   SAMWA(3),=C'OSM'    Invalidate SAMWA
 002E30 D703 BE58 BE58 00E58 00E58 20979                       CLEAR CPDEVP
 002E36 58E0 78E4/0DEE       03518 20986                       VCALL MARKHEAP            Get current heap ptr
 002E3C 59F0 60B8/4770_      000B8 20990                       IF    (R15,EQ,SAMNHEAP),BEGIN  We can reduce the heap...
 002E44 58F0 60B4            000B4 21007  1                      L     R15,SAMOHEAP
 002E48 58E0 7928/0DEE       0355C 21008  1                      VCALL RELHEAP             Release SAMWA
 002E4E                            21012                       END
                                   21016
 002E4E 4BD0 7966/58F0_      0359A 21017                       XPOP  R15                 Return code
 002E56 18D8/9808 D004_            21020                       PEND
 DROP   SAMWA,R6
 DROP   *,R7
1SAM      (SAM2193) (12:54) (15MAR04) Samson Interface Routines                                                             Page   47
0Current Usings:  (FFINFO,R5) (CP,R11) (CV,R12)
0Loc    Object Code    Addr1 Addr2  Stmt Lv Lineno    Source Statement           (Hibal 5, Asmedit 3.3)  HLASM R4.0  2004/03/15 12.54
+___    ______ ____    _____ _____  ____ __ ______    ______ _________
0                                  21046              *
                                   21047              *   Rename open options
                                   21048              *   None.
                                   21049              *
 002E64 4040404040404040_          21050              SAMRPRT  SCKW  ,V(NOTVALID)
                                   21065              *
                                   21066              *
                                   21067              *   Rename enviornment options.
                                   21068              *   Returned from micro
                                   21069              *
                                   21070              *
 002E8C C6C9D3C540404040_          21071              SAMRRPRT SCKW  FILE,RFILE
 002EB4 D5C5E6C6C9D3C540_          21086                       SCKW  NEWFILE,RNEWFILE
 002EDC 4040404040404040_          21101                       SCKW  ,V(SCNNOOP)
                                   21116              *
                                   21117              *
 002F04 50E0 D000/9008_      00000 21118              RFILE    PROC
 USING  *,R7
 002F1E 58E0 B08C/581E_      0008C 21157                       SCINFO
 002F2C 58E0 7642/0DEE       03560 21166                       ACALL SAMTRIM
                                   21170
                                   21171                       COMMENT                   We ignore full resolved old name
                                   21172
 002F32 41F0 0004            00004 21173                       LA    R15,4
 002F36 18D8/9808 D004_            21174                       PEND
 DROP   *,R7
                                   21194              *
                                   21195              *
 002F44 50E0 D000/9008_      00000 21196              RNEWFILE PROC
 USING  *,R7
 002F5E 58E0 B08C/581E_      0008C 21235                       SCINFO
 002F6C 58E0 7602/0DEE       03560 21244                       ACALL SAMTRIM
                                   21248
                                   21249                       COMMENT                   Save fully resolved new name
 002F72 1820                       21250                       LR    R2,R0
 002F74 5920 7606/47D0_      03564 21251                       CEIL  R2,L'FFRNAME
 002F80 5020 5214            00214 21270                       ST    R2,FFRNAMEL
 002F84 0620/1222/4740_            21271                       MOVE  R2,FFRNAME,@R1
                                   21309
 002F90 41F0 0004            00004 21310                       LA    R15,4
 002F94 18D8/9808 D004_            21311                       PEND
 DROP   *,R7
 DROP   FFINFO,R5                  21331                       DROP  R5
1SAM      (SAM2193) (12:54) (15MAR04) Samson Interface Routines                                                             Page   48
0Current Usings:  (CP,R11) (CV,R12)
0Loc    Object Code    Addr1 Addr2  Stmt Lv Lineno    Source Statement           (Hibal 5, Asmedit 3.3)  HLASM R4.0  2004/03/15 12.54
+___    ______ ____    _____ _____  ____ __ ______    ______ _________
0                                  21339              ¿þþþþþþþþþþþþþþþþþþþþþþþþþþþþþþþþþþþþþþþþþþþþþþþþþþþþþþþþþþþþþþþþþþþþþÜ
                                   21340              Ÿ                                                                     Ÿ
                                   21341              Ÿ  SAMDIR -- Routine to show directory in a Samson file system.       Ÿ
                                   21342              Ÿ                                                                     Ÿ
                                   21343              Ÿ    On entry:                                                        Ÿ
                                   21344              Ÿ      FFINFO dsect contains information about the file               Ÿ
                                   21345              Ÿ      R1,R0 describe the LIKE string                                 Ÿ
                                   21346              Ÿ                                                                     Ÿ
                                   21347              Ÿ    On exit, R15 (and cc):                                           Ÿ
                                   21348              Ÿ      0 - command successful                                         Ÿ
                                   21349              Ÿ      4 - error (CPERRID contains error id)                          Ÿ
                                   21350              Ÿ                                                                     Ÿ
                                                      ¾þþþþþþþþþþþþþþþþþþþþþþþþþþþþþþþþþþþþþþþþþþþþþþþþþþþþþþþþþþþþþþþþþþþþþ»
0002FA2 50E0 D000/9008_      00000 21351              SAMDIR   XPROC
 USING  *,R7
 002FBC 5850 BE54            00E54 21391                       L     R5,CPFINFOP
 USING  FFINFO,R5                  21392                       USING FFINFO,R5
 002FC0 1830                       21401                       LR    R3,R0               Save LIKE string data
 002FC2 1841                       21402                       LR    R4,R1
                                   21403                       ¿þþþþþþþþþþþþþþþþÜ
                                   21404                       Ÿ  Do the open.  Ÿ
                                   21405                       ¾þþþþþþþþþþþþþþþþ»
 002FC4 58E0 755C/0DEE       03518 21406                       VCALL MARKHEAP            Get current heap ptr
 002FCA 182F                       21410                       LR    R2,R15
                                   21411
 002FCC 4800 75CC            03588 21412                       LH    R0,=AL2(L'SAMWA)
 002FD0 58E0 7560/0DEE       0351C 21413                       VCALL GETHEAP             Get work area
 002FD6 5010 BE58            00E58 21417                       ST    R1,CPDEVP
 002FDA 1861                       21418                       LR    R6,R1
 USING  SAMWA,R6                   21419                       WITH  (SAMWA,R6)
 002FDC D7FF 6004 6004_00004 00004 21432                       CLEAR SAMCLEAR
 002FE8 D202 6000 75EA 00000 035A6 21440                       MVC   SAMWA(3),=C'SAM'    Id
                                   21441
 002FEE 5020 60B4            000B4 21442                       ST    R2,SAMOHEAP         Save old heap ptr
 002FF2 58E0 755C/0DEE       03518 21443                       VCALL MARKHEAP            Get current heap ptr
 002FF8 50F0 60B8            000B8 21447                       ST    R15,SAMNHEAP        Save new heap ptr
                                   21448
 002FFC 9034 609C            0009C 21449                       STM   R3,R4,SAMLIKLN      Save LIKE parameter values
                                   21450
                                   21451                       COMMENT                   SCAN SAM OPTIONS
 003000 58E0 B08C/D2AF_      0008C 21452                       SCPUSH
 00300E 4110 5114/5800_      00114 21458                       SCINIT FFOPTS,L:FFOPTSL
 003024 5810 B08C/1B00_      0008C 21482                       SCAN  SAMDPRT
 003076 58E0 756C/0DEE       03528 21514                       SCANCHK                   ERROR EXIT FROM HERE !
 00307C 58E0 B08C/4BD0_      0008C 21519                       SCPOP
                                   21525              *
                                   21526              *        COMMENT                   IF DIRECTORY FILE NAME GIVEN
                                   21527              *        IF    (FFNAMEL,NZ),BEGIN
                                   21528              *        COMMENT                   RESOLVE NAME
 00308A 4110 5000            00000 21529                       LA    R1,FFINFO
 00308E 58E0 75B8/0DEE       03574 21530                       VCALL SAMRESLV
                                   21534              *        COMMENT                   SET FILE, HOST NAME
 003094 58E0 7574/0DEE       03530 21535                       ACALL SETFNAME
1SAM      (SAM2193) (12:54) (15MAR04) Samson Interface Routines                                                             Page   49
0Current Usings:  (FFINFO,R5) (SAMWA,R6) (*,R7) (CP,R11) (CV,R12)
0Loc    Object Code    Addr1 Addr2  Stmt Lv Lineno    Source Statement           (Hibal 5, Asmedit 3.3)  HLASM R4.0  2004/03/15 12.54
+___    ______ ____    _____ _____  ____ __ ______    ______ _________
0                                  21539              *        END
                                   21540              *
 00309A 4110 6ACC/4100_      00ACC 21541                       SEGINIT SAMWRBUF,,SAMSG,RTN=SAMSEG
                                   21583
 0030BA 4110 6000            00000 21584                       LA    R1,SAMWA
 0030BE 4A10 75D2            0358E 21585                       AH    R1,=AL2(SAMINBUF-SAMWA)
 0030C2 4800 75D4            03590 21586                       LH    R0,=AL2(L'SAMINBUF)
 0030C6 41F0 6190/58E0_      00190 21587                       SEGINIT (R1),(R0),.SAMINSG  Initialize input seg buffer
                                   21610                       ¿þþþþþþþþþþþþþþþþþþþþþþþþþþÜ
                                   21611                       Ÿ  Send path open packet.  Ÿ
                                   21612                       ¾þþþþþþþþþþþþþþþþþþþþþþþþþþ»
 0030D0 D201 6124 75D6 00124 03592 21613                       MVC   SAMSCMD,=C'PO'      Path open
                                   21614                       ¿þþþþþþþþþþþþþþþþþþþþþþþþþþþþþþþþþþþþþþþþþþþþþþþþþþþþþþþþþþþþÜ
                                   21615                       Ÿ  Version 1 CRC calculation was not correct, so we can not  Ÿ
                                   21616                       Ÿ    request it.                                             Ÿ
                                   21617                       ¾þþþþþþþþþþþþþþþþþþþþþþþþþþþþþþþþþþþþþþþþþþþþþþþþþþþþþþþþþþþþ»
 0030D6 D501 75D8 BA94_03594 00A94 21618                       IF    (CPSAMPRO,LT,2),BEGIN  No CRC in version 1...
 0030E0 94FB BA22      00A22       21636  1                      CLEAR CPSAMFPCK           Version 1 can not do packed
 0030E4 94FE BA22      00A22       21643  1                      CLEAR CPSAMFCRC           Version 1 can not do CRC
 0030E8                            21650                       END
                                   21654
 0030E8 58E0 7584/0DEE       03540 21655                       ACALL SEGHEAD             Seg packet header
 0030EE 58E0 7588/0DEE       03544 21659                       ACALL SEGTRAIL            Seg packet trailer
 0030F4 1B00/41F0 60E8_            21663                       SEGWR
                                   21687
 003100 9608 BF37      00F37       21688                       SET   DSNFSTAT            Give "in progress" status msgs
                                   21694                       ¿þþþþþþþþþþþþþþþþþþþþþþþþþþþþþþþþþþþþþþþÜ
                                   21695                       Ÿ  Send file direcotry request packet.  Ÿ
                                   21696                       ¾þþþþþþþþþþþþþþþþþþþþþþþþþþþþþþþþþþþþþþþ»
 003104 D201 6124 75E4 00124 035A0 21697                       MVC   SAMSCMD,=C'FS'      File show directory parameters
 00310A 58E0 7584/0DEE       03540 21698                       ACALL SEGHEAD             Seg packet header
                                   21702
                                   21703                       COMMENT                   Specify file
 003110 4110 75ED/4100_      035A9 21704                       SEG   'FILE='
 003122 4110 600C/5800_      0000C 21721                       SEG   SAMFNAME,L:SAMFNAMEL
                                   21748
 003134 D603 609C 609C_0009C 0009C 21749                       IF (SAMLIKLN,NZ),BEGIN
 00313E 58E0 75AC/0DEE       03568 21765  1                      ACALL SEGSEP
 003144 4110 75F5/4100_      035B1 21769  1                      SEG   'LIKE='
 003156 5810 60A0/5800_      000A0 21786  1                      SEG   L:SAMLIKE,L:SAMLIKLN
 003168                            21811                       END
                                   21815
 003168 58E0 7594/0DEE       03550 21816                       ACALL SEGEOD              End of parameters
                                   21820
 00316E 58E0 7588/0DEE       03544 21821                       ACALL SEGTRAIL            Seg packet trailer
 003174 9604 6004      00004       21825                       SET   SAMFERET            Return even if error
 003178 1B00/41F0 60E8_            21831                       SEGWR
1SAM      (SAM2193) (12:54) (15MAR04) Samson Interface Routines                                                             Page   50
0Current Usings:  (FFINFO,R5) (SAMWA,R6) (*,R7) (CP,R11) (CV,R12)
0Loc    Object Code    Addr1 Addr2  Stmt Lv Lineno    Source Statement           (Hibal 5, Asmedit 3.3)  HLASM R4.0  2004/03/15 12.54
+___    ______ ____    _____ _____  ____ __ ______    ______ _________
0                                  21855                       ¿þþþþþþþþþþþþþþþþþþþþþþþþþþþþþþþþþþþþþþþþþþþþþþþþþþÜ
                                   21856                       Ÿ  Process open error.                             Ÿ
                                   21857                       Ÿ    CPERRID has the error id and the TSEG buffer  Ÿ
                                   21858                       Ÿ    contains the msg.                             Ÿ
                                   21859                       ¾þþþþþþþþþþþþþþþþþþþþþþþþþþþþþþþþþþþþþþþþþþþþþþþþþþ»
 003184 94FB 6004      00004       21860                       CLEAR SAMFERET            Reset error trapping
 003188 9102 6004/47E0_00004       21867                       IF    SAMFERC,'LA R15,4; B SAMDEXIT'  Open error
                                   21889                       ¿þþþþþþþþþþþþþþþþþþþþþþþþþþþþþþþþþþþþþþþþþÜ
                                   21890                       Ÿ  Process directory environment options  Ÿ
                                   21891                       ¾þþþþþþþþþþþþþþþþþþþþþþþþþþþþþþþþþþþþþþþþþ»
 003198 D601 6138 6138_00138 00138 21892                       IF    (SAMRDLEN,NZ),BEGIN
 0031A2                            21908  1                      LOOP  BEGIN
 0031A2 58E0 7598/0DEE       03554 21914  2                        ACALL INLINE              Get an options line
 0031A8 4770 7256            03212 21918  2                        IF    NZ,EXIT             Nothing left, exit loop
                                   21932  2
 0031AC 58E0 B08C/501E_      0008C 21933  2                        SCINIT (R1),(R0)
 0031BA 5810 B08C/1B00_      0008C 21953  2                        SCAN   SAMRDPRT           Process options
 00320C 1BFF                       21985  2                        CLEAR  R15
 00320E 47F0 71E6            031A2 21989  1                      END
 003212                            21994                       END
                                   21998                       ¿þþþþþþþþþþþþþþþþþþþþþþþþþþþþÜ
                                   21999                       Ÿ  Process directory lines.  Ÿ
                                   22000                       ¾þþþþþþþþþþþþþþþþþþþþþþþþþþþþ»
 003212 D201 6124 75E6 00124 035A2 22001                       MVC   SAMSCMD,=C'FL'      Indicate we want file lines now
                                   22002
 003218                            22003                       LOOP  BEGIN
 003218 58E0 7598/0DEE       03554 22009  1                      ACALL INLINE              Get a file line
 00321E 4720 7286            03242 22013  1                      IF    P,EXIT              Nothing left, scram
 003222 4770 7274            03230 22027  1                      IF    Z,BEGIN
 003226 41F0 B050/58E0_      00050 22038  2                        TSEG  (R1),(R0),CR
 003230                            22062  1                      END
 003230 7278/47F0 7282 03230 03224 22066  1                      ELSE  BEGIN              Partial line
 003234 41F0 B050/58E0_      00050 22077  2                        TSEG  (R1),(R0)
 00323E                            22101  1                      END
 00323E 47F0 725C            03218 22105                       END
                                   22110                       ¿þþþþþþþþþþþþþþþþþþþÜ
                                   22111                       Ÿ  Now close path.  Ÿ
                                   22112                       ¾þþþþþþþþþþþþþþþþþþþ»
 003242 D201 6124 75DC 00124 03598 22113                       MVC   SAMSCMD,=C'PC'      Path close
 003248 58E0 7584/0DEE       03540 22114                       ACALL SEGHEAD             Seg packet header
 00324E 58E0 7588/0DEE       03544 22118                       ACALL SEGTRAIL            Seg packet trailer
 003254 1B00/41F0 60E8_            22122                       SEGWR
                                   22146
 003260 1BFF                       22147                       CLEAR R15                 A-ok
 003262 47F0 72AA            03266 22151                       B     SAMDEXIT
                                   22152                       ¿þþþþþþþþþþþþþþþþþþþþþþþþþþþþþþÜ
                                   22153                       Ÿ  Release SAMWA if possible.  Ÿ
                                   22154                       ¾þþþþþþþþþþþþþþþþþþþþþþþþþþþþþþ»
 003266 50F0 D000/41D0_      00000 22155              SAMDEXIT XPUSH R15                 Save return code
                                   22158
 00326E D202 6000 75F2 00000 035AE 22159                       MVC   SAMWA(3),=C'OSM'    Invalidate SAMWA
 003274 D703 BE58 BE58 00E58 00E58 22160                       CLEAR CPDEVP
 00327A 58E0 755C/0DEE       03518 22167                       VCALL MARKHEAP            Get current heap ptr
 003280 59F0 60B8/4770_      000B8 22171                       IF    (R15,EQ,SAMNHEAP),BEGIN  We can reduce the heap...
1SAM      (SAM2193) (12:54) (15MAR04) Samson Interface Routines                                                             Page   51
0Current Usings:  (FFINFO,R5) (SAMWA,R6) (*,R7) (CP,R11) (CV,R12)
0Loc    Object Code    Addr1 Addr2  Stmt Lv Lineno    Source Statement           (Hibal 5, Asmedit 3.3)  HLASM R4.0  2004/03/15 12.54
+___    ______ ____    _____ _____  ____ __ ______    ______ _________
0003288 58F0 60B4            000B4 22188  1                      L     R15,SAMOHEAP
 00328C 58E0 75A0/0DEE       0355C 22189  1                      VCALL RELHEAP             Release SAMWA
 003292                            22193                       END
                                   22197
 003292 4BD0 75DE/58F0_      0359A 22198                       XPOP  R15                 Return code
 00329A 18D8/9808 D004_            22201                       PEND
 DROP   SAMWA,R6
 DROP   *,R7
 DROP   FFINFO,R5                  22226                       DROP  R5
1SAM      (SAM2193) (12:54) (15MAR04) Samson Interface Routines                                                             Page   52
0Current Usings:  (CP,R11) (CV,R12)
0Loc    Object Code    Addr1 Addr2  Stmt Lv Lineno    Source Statement           (Hibal 5, Asmedit 3.3)  HLASM R4.0  2004/03/15 12.54
+___    ______ ____    _____ _____  ____ __ ______    ______ _________
0                                  22234              *
                                   22235              *   Show directory open options
                                   22236              *   None.
                                   22237              *
 0032A8 4040404040404040_          22238              SAMDPRT  SCKW  ,V(NOTVALID)
                                   22253              *
                                   22254              *
                                   22255              *   Show directory environment options.
                                   22256              *   Returned from micro
                                   22257              *   We don't currently process them.
                                   22258              *
 0032D0 4040404040404040_          22259              SAMRDPRT SCKW ,V(SCNNOOP)
1SAM      (SAM2193) (12:54) (15MAR04) Samson Interface Routines                                                             Page   53
0Current Usings:  (CP,R11) (CV,R12)
0Loc    Object Code    Addr1 Addr2  Stmt Lv Lineno    Source Statement           (Hibal 5, Asmedit 3.3)  HLASM R4.0  2004/03/15 12.54
+___    ______ ____    _____ _____  ____ __ ______    ______ _________
0                                  22275              ¿þþþþþþþþþþþþþþþþþþþþþþþþþþþþþþþþþþþþþþþþþþþþþþþþþþþþþþþþþþþþþþþþþþþþþÜ
                                   22276              Ÿ                                                                     Ÿ
                                   22277              Ÿ  SAMTEST -- This is just a debugging routine right now, it          Ÿ
                                   22278              Ÿ    tests what Samson will do when it gets an "XX" packet type.      Ÿ
                                   22279              Ÿ                                                                     Ÿ
                                   22280              Ÿ    On entry:                                                        Ÿ
                                   22281              Ÿ      FFINFO dsect contains information about the file               Ÿ
                                   22282              Ÿ                                                                     Ÿ
                                   22283              Ÿ    On exit, R15 (and cc):                                           Ÿ
                                   22284              Ÿ      0 - successful                                                 Ÿ
                                   22285              Ÿ      4 - not successful (CPERRID contains error id)                 Ÿ
                                   22286              Ÿ                                                                     Ÿ
                                                      ¾þþþþþþþþþþþþþþþþþþþþþþþþþþþþþþþþþþþþþþþþþþþþþþþþþþþþþþþþþþþþþþþþþþþþþ»
00032F8 50E0 D000/9008_      00000 22287              SAMTEST  XPROC
 USING  *,R7
                                   22327                       ¿þþþþþþþþþþþþþþþþÜ
                                   22328                       Ÿ  Do the open.  Ÿ
                                   22329                       ¾þþþþþþþþþþþþþþþþ»
 003312 58E0 7206/0DEE       03518 22330                       VCALL MARKHEAP            Get current heap ptr
 003318 182F                       22334                       LR    R2,R15
                                   22335
 00331A 4800 7276            03588 22336                       LH    R0,=AL2(L'SAMWA)
 00331E 58E0 720A/0DEE       0351C 22337                       VCALL GETHEAP             Get work area
 003324 5010 BE58            00E58 22341                       ST    R1,CPDEVP
 003328 1861                       22342                       LR    R6,R1
 USING  SAMWA,R6                   22343                       WITH  (SAMWA,R6)
 00332A D7FF 6004 6004_00004 00004 22356                       CLEAR SAMCLEAR
 003336 D202 6000 7294 00000 035A6 22364                       MVC   SAMWA(3),=C'SAM'    Id
                                   22365
 00333C 5020 60B4            000B4 22366                       ST    R2,SAMOHEAP         Save old heap ptr
 003340 58E0 7206/0DEE       03518 22367                       VCALL MARKHEAP            Get current heap ptr
 003346 50F0 60B8            000B8 22371                       ST    R15,SAMNHEAP        Save new heap ptr
                                   22372
 00334A 4110 6ACC/4100_      00ACC 22373                       SEGINIT SAMWRBUF,,SAMSG,RTN=SAMSEG
                                   22415
 00336A 4110 6000            00000 22416                       LA    R1,SAMWA
 00336E 4A10 727C            0358E 22417                       AH    R1,=AL2(SAMINBUF-SAMWA)
 003372 4800 727E            03590 22418                       LH    R0,=AL2(L'SAMINBUF)
 003376 41F0 6190/58E0_      00190 22419                       SEGINIT (R1),(R0),.SAMINSG  Initialize input seg buffer
                                   22442                       ¿þþþþþþþþþþþþþþþþþþþþþþþþþþÜ
                                   22443                       Ÿ  Send path open packet.  Ÿ
                                   22444                       ¾þþþþþþþþþþþþþþþþþþþþþþþþþþ»
 003380 D201 6124 7280 00124 03592 22445                       MVC   SAMSCMD,=C'PO'      Path open
                                   22446                       ¿þþþþþþþþþþþþþþþþþþþþþþþþþþþþþþþþþþþþþþþþþþþþþþþþþþþþþþþþþþþþÜ
                                   22447                       Ÿ  Version 1 CRC calculation was not correct, so we can not  Ÿ
                                   22448                       Ÿ    request it.                                             Ÿ
                                   22449                       ¾þþþþþþþþþþþþþþþþþþþþþþþþþþþþþþþþþþþþþþþþþþþþþþþþþþþþþþþþþþþþ»
 003386 D501 7282 BA94_03594 00A94 22450                       IF    (CPSAMPRO,LT,2),BEGIN  No CRC in version 1...
 003390 94FB BA22      00A22       22468  1                      CLEAR CPSAMFPCK           Version 1 can not do packed
 003394 94FE BA22      00A22       22475  1                      CLEAR CPSAMFCRC           Version 1 can not do CRC
 003398                            22482                       END
                                   22486
 003398 58E0 722E/0DEE       03540 22487                       ACALL SEGHEAD             Seg packet header
1SAM      (SAM2193) (12:54) (15MAR04) Samson Interface Routines                                                             Page   54
0Current Usings:  (SAMWA,R6) (*,R7) (CP,R11) (CV,R12)
0Loc    Object Code    Addr1 Addr2  Stmt Lv Lineno    Source Statement           (Hibal 5, Asmedit 3.3)  HLASM R4.0  2004/03/15 12.54
+___    ______ ____    _____ _____  ____ __ ______    ______ _________
000339E 58E0 7232/0DEE       03544 22491                       ACALL SEGTRAIL            Seg packet trailer
 0033A4 1B00/41F0 60E8_            22495                       SEGWR
                                   22519
 0033B0 9608 BF37      00F37       22520                       SET   DSNFSTAT            Give "in progress" status msgs
                                   22526                       ¿þþþþþþþþþþþþþþþþþþþÜ
                                   22527                       Ÿ  Send XX packet.  Ÿ
                                   22528                       ¾þþþþþþþþþþþþþþþþþþþ»
 0033B4 D201 6124 7292 00124 035A4 22529                       MVC   SAMSCMD,=C'XX'      Ba ba ba boom
 0033BA 58E0 722E/0DEE       03540 22530                       ACALL SEGHEAD             Seg packet header
                                   22534
 0033C0 4110 72A4/4100_      035B6 22535                       SEGT  'TEST PACKET'
                                   22553
 0033D2 58E0 723E/0DEE       03550 22554                       ACALL SEGEOD              End of parameters
                                   22558
 0033D8 58E0 7232/0DEE       03544 22559                       ACALL SEGTRAIL            Seg packet trailer
 0033DE 9604 6004      00004       22563                       SET   SAMFERET            Return even if error
 0033E2 1B00/41F0 60E8_            22569                       SEGWR
                                   22593                    ¿þþþþþþþþþþþþþþþþþþþþþþþþþþþþþþþþþþþþþþþþþþþþþþþþþþþþþþþþþþþþþþþþþþÜ
                                   22594                    Ÿ     Process open error.                                          Ÿ
                                   22595                    Ÿ  CPERRID has the error id and the TSEG buffer contains the msg.  Ÿ
                                   22596                    ¾þþþþþþþþþþþþþþþþþþþþþþþþþþþþþþþþþþþþþþþþþþþþþþþþþþþþþþþþþþþþþþþþþþ»
 0033EE 94FB 6004      00004       22597                       CLEAR SAMFERET            Reset error trapping
 0033F2 9102 6004/47E0_00004       22604                       IF    SAMFERC,'LA R15,4; B SAMTEXIT'  Open error
                                   22626                       ¿þþþþþþþþþþþþþþþþþþþþþþþþþþþþþþþþþþþþþþþþÜ
                                   22627                       Ÿ  Process scratch enviornment options.  Ÿ
                                   22628                       ¾þþþþþþþþþþþþþþþþþþþþþþþþþþþþþþþþþþþþþþþþ»
 003402 D601 6138 6138_00138 00138 22629                       IF    (SAMRDLEN,NZ),BEGIN
 00340C                            22645  1                      LOOP  BEGIN
 00340C 58E0 7242/0DEE       03554 22651  2                        ACALL INLINE              Get enviornment options
 003412 4770 716A            0347C 22655  2                        IF    NZ,EXIT             Nothing left, scram
                                   22669  2
 003416 58E0 B08C/501E_      0008C 22670  2                        SCINIT (R1),(R0)
 003424 5810 B08C/1B00_      0008C 22690  2                        SCAN  SAMRTPRT            Process enviornment options
 003476 1BFF                       22722  2                        CLEAR R15                 Ignore errors
 003478 47F0 70FA            0340C 22726  1                      END
 00347C                            22731                       END
                                   22735                       ¿þþþþþþþþþþþþþþþþþþþÜ
                                   22736                       Ÿ  Now close path.  Ÿ
                                   22737                       ¾þþþþþþþþþþþþþþþþþþþ»
 00347C D201 6124 7286 00124 03598 22738                       MVC   SAMSCMD,=C'PC'      Path close
 003482 58E0 722E/0DEE       03540 22739                       ACALL SEGHEAD             Seg packet header
 003488 58E0 7232/0DEE       03544 22743                       ACALL SEGTRAIL            Seg packet trailer
 00348E 1B00/41F0 60E8_            22747                       SEGWR
                                   22771
 00349A 1BFF                       22772                       CLEAR R15                 A-ok
 00349C 47F0 718E            034A0 22776                       B     SAMTEXIT
                                   22777                       ¿þþþþþþþþþþþþþþþþþþþþþþþþþþþþþþÜ
                                   22778                       Ÿ  Release SAMWA if possible.  Ÿ
                                   22779                       ¾þþþþþþþþþþþþþþþþþþþþþþþþþþþþþþ»
 0034A0 50F0 D000/41D0_      00000 22780              SAMTEXIT XPUSH R15                 Save return code
                                   22783
 0034A8 D202 6000 729C 00000 035AE 22784                       MVC   SAMWA(3),=C'OSM'    Invalidate SAMWA
 0034AE D703 BE58 BE58 00E58 00E58 22785                       CLEAR CPDEVP
 0034B4 58E0 7206/0DEE       03518 22792                       VCALL MARKHEAP            Get current heap ptr
1SAM      (SAM2193) (12:54) (15MAR04) Samson Interface Routines                                                             Page   55
0Current Usings:  (SAMWA,R6) (*,R7) (CP,R11) (CV,R12)
0Loc    Object Code    Addr1 Addr2  Stmt Lv Lineno    Source Statement           (Hibal 5, Asmedit 3.3)  HLASM R4.0  2004/03/15 12.54
+___    ______ ____    _____ _____  ____ __ ______    ______ _________
00034BA 59F0 60B8/4770_      000B8 22796                       IF    (R15,EQ,SAMNHEAP),BEGIN  We can reduce the heap...
 0034C2 58F0 60B4            000B4 22813  1                      L     R15,SAMOHEAP
 0034C6 58E0 724A/0DEE       0355C 22814  1                      VCALL RELHEAP             Release SAMWA
 0034CC                            22818                       END
                                   22822
 0034CC 4BD0 7288/58F0_      0359A 22823                       XPOP  R15                 Return code
 0034D4 18D8/9808 D004_            22826                       PEND
 DROP   SAMWA,R6
 DROP   *,R7
1SAM      (SAM2193) (12:54) (15MAR04) Samson Interface Routines                                                             Page   56
0Current Usings:  (CP,R11) (CV,R12)
0Loc    Object Code    Addr1 Addr2  Stmt Lv Lineno    Source Statement           (Hibal 5, Asmedit 3.3)  HLASM R4.0  2004/03/15 12.54
+___    ______ ____    _____ _____  ____ __ ______    ______ _________
0                                  22852              *
                                   22853              *   Test enviornment options.
                                   22854              *   Returned from micro
                                   22855              *
                                   22856              *
 0034E4 4040404040404040_          22857              SAMRTPRT SCKW  ,V(SCNNOOP)
                                   22872
                                   22873                       QLTORG
1SAM      (SAM2193) (12:54) (15MAR04) Samson Interface Routines                                                             Page   57
0Current Usings:  (CP,R11) (CV,R12)
0Loc    Object Code    Addr1 Addr2  Stmt Lv Lineno    Source Statement           (Hibal 5, Asmedit 3.3)  HLASM R4.0  2004/03/15 12.54
+___    ______ ____    _____ _____  ____ __ ______    ______ _________
0                                  22935              ¿þþþþþþþþþþþþþþþþþþþþþþþþþþþþþþþþþþþþþþþþþþþþþþþþþþþþþþþþþþþþþþþþþþþþþÜ
                                   22936              Ÿ                                                                     Ÿ
                                   22937              Ÿ  SAMOPEN -- Routine to open a Samson file.                          Ÿ
                                   22938              Ÿ                                                                     Ÿ
                                   22939              Ÿ    On entry:                                                        Ÿ
                                   22940              Ÿ      R1 - FILE INFO DSECT                                           Ÿ
                                   22941              Ÿ                                                                     Ÿ
                                   22942              Ÿ    On exit, R15 (and cc):                                           Ÿ
                                   22943              Ÿ      0 - opened successfully                                        Ÿ
                                   22944              Ÿ      4 - not opened (CPERRID contains error id)                     Ÿ
                                   22945              Ÿ                                                                     Ÿ
                                                      ¾þþþþþþþþþþþþþþþþþþþþþþþþþþþþþþþþþþþþþþþþþþþþþþþþþþþþþþþþþþþþþþþþþþþþþ»
00035CE 50E0 D000/9008_      00000 22946              SAMOPEN  XPROC
 USING  *,R7
 0035E8 1851                       22986                       LR    R5,R1
 USING  FFINFO,R5                  22987                       USING FFINFO,R5
                                   22996                       ¿þþþþþþþþþþþþþþþþþþþþÜ
                                   22997                       Ÿ  Now do the open.  Ÿ
                                   22998                       ¾þþþþþþþþþþþþþþþþþþþþ»
 0035EA 58E0 7CF8/0DEE       042E0 22999                       VCALL MARKHEAP            Get current heap ptr
 0035F0 182F                       23003                       LR    R2,R15
                                   23004
 0035F2 4800 7D68            04350 23005                       LH    R0,=AL2(L'SAMWA)
 0035F6 58E0 7CFC/0DEE       042E4 23006                       VCALL GETHEAP             Get work area
 0035FC 5010 BE58            00E58 23010                       ST    R1,CPDEVP
 003600 1861                       23011                       LR    R6,R1
 USING  SAMWA,R6                   23012                       USING SAMWA,R6
 003602 D7FF 6004 6004_00004 00004 23021                       CLEAR SAMCLEAR
 00360E D202 6000 7DD4 00000 043BC 23029                       MVC   SAMWA(3),=C'SAM'    Id
                                   23030
 003614 5020 60B4            000B4 23031                       ST    R2,SAMOHEAP         Save old heap ptr
 003618 58E0 7CF8/0DEE       042E0 23032                       VCALL MARKHEAP            Get current heap ptr
 00361E 50F0 60B8            000B8 23036                       ST    R15,SAMNHEAP        Save new heap ptr
                                   23037
                                   23038                       COMMENT                   SCAN SAM OPTIONS
 003622 58E0 B08C/D2AF_      0008C 23039                       SCPUSH
 003630 4110 5114/5800_      00114 23045                       SCINIT FFOPTS,L:FFOPTSL
 003646 5810 B08C/1B00_      0008C 23069                       SCAN  SAMOPRT
 003698 58E0 7D08/0DEE       042F0 23101                       SCANCHK                   ERROR EXIT FROM HERE !
 00369E 58E0 B08C/4BD0_      0008C 23106                       SCPOP
                                   23112
                                   23113                       COMMENT                   VALIDITY CHECK SOME OPTIONS
 0036AC 9110 6006/4710_00006       23114                       IF    ((SAMFASCII,OR,SAMFEBCDIC),AND,~SAMFTRAN),BEGIN
 0036C4 4110 7D6E/4100_      04356 23157  1                      TSEG  'TRANSPARENT must be specified '
 0036D6 4110 7DD7/4100_      043BF 23175  1                      ERROR 'if ASCII/EBCDIC is specified.'
 0036E2                            23182                       END
 0036E2 9502 5001/4780_00001       23186                       IF    (FFFWRITE,OR,FFFREPL,OR,FFFAPPD),BEGIN
 0036FA 9104 6006/47E0_00006       23227  1                      IF    SAMFUFMT,BEGIN      Unformatted...
 003702 4110 7D8C/4100_      04374 23242  2                        ERROR 'UNFORMATTED option not allowed for file write.'
 00370E                            23249  1                      END
 00370E 9102 6006/47E0_00006       23253  1                      IF    SAMFTEXTONLY,BEGIN  Textonly...
 003716 4110 7DF4/4100_      043DC 23268  2                        ERROR 'TEXTONLY option not allowed for file write.'
 003722                            23275  1                      END
1SAM      (SAM2193) (12:54) (15MAR04) Samson Interface Routines                                                             Page   58
0Current Usings:  (FFINFO,R5) (SAMWA,R6) (*,R7) (CP,R11) (CV,R12)
0Loc    Object Code    Addr1 Addr2  Stmt Lv Lineno    Source Statement           (Hibal 5, Asmedit 3.3)  HLASM R4.0  2004/03/15 12.54
+___    ______ ____    _____ _____  ____ __ ______    ______ _________
0003722                            23279                       END
                                   23283
                                   23284                       COMMENT                   IF FILE RELATED OPEN, ...
 003722 D603 5008 5008_00008 00008 23285                       IF    (FFNAMEL,NZ),BEGIN
                                   23301  1                      COMMENT                   RESOLVE NAME
 00372C 58E0 7D10/0DEE       042F8 23302  1                      VCALL NRESOLVE
                                   23306  1                      COMMENT                   SET FILE, HOST NAME
 003732 58E0 7D14/0DEE       042FC 23307  1                      ACALL SETFNAME
 003738                            23311                       END
                                   23315
 003738 4110 6ACC/4100_      00ACC 23316                       SEGINIT SAMWRBUF,,SAMSG,RTN=SAMSEG
                                   23358
 003758 4110 6000            00000 23359                       LA    R1,SAMWA
 00375C 4A10 7DBA            043A2 23360                       AH    R1,=AL2(SAMINBUF-SAMWA)
 003760 4800 7DBC            043A4 23361                       LH    R0,=AL2(L'SAMINBUF)
 003764 41F0 6190/58E0_      00190 23362                       SEGINIT (R1),(R0),.SAMINSG  Initialize input seg buffer
                                   23385                       ¿þþþþþþþþþþþþþþþþþþþþÜ
                                   23386                       Ÿ  Set up defaults.  Ÿ
                                   23387                       ¾þþþþþþþþþþþþþþþþþþþþ»
 00376E D601 60DC 60DC_000DC 000DC 23388                       IF    (SAMWRAPL,Z),'MVC SAMWRAPL,=H"230"'  Set splitlength
                                   23410                       ¿þþþþþþþþþþþþþþþþþþþþþþþþþþÜ
                                   23411                       Ÿ  Send path open packet.  Ÿ
                                   23412                       ¾þþþþþþþþþþþþþþþþþþþþþþþþþþ»
 00377E D201 6124 7DC0 00124 043A8 23413                       MVC   SAMSCMD,=C'PO'      Path open
                                   23414                       ¿þþþþþþþþþþþþþþþþþþþþþþþþþþþþþþþþþþþþþþþþþþþþþþþþþþþþþþþþþþþþÜ
                                   23415                       Ÿ  Version 1 CRC calculation was not correct, so we can not  Ÿ
                                   23416                       Ÿ    request it.                                             Ÿ
                                   23417                       ¾þþþþþþþþþþþþþþþþþþþþþþþþþþþþþþþþþþþþþþþþþþþþþþþþþþþþþþþþþþþþ»
 003784 D501 7DC2 BA94_043AA 00A94 23418                       IF    (CPSAMPRO,LT,2),BEGIN  No CRC in version 1...
 00378E 94FB BA22      00A22       23436  1                      CLEAR CPSAMFPCK           Version 1 can not do packed
 003792 94FE BA22      00A22       23443  1                      CLEAR CPSAMFCRC           Version 1 can not do CRC
 003796                            23450                       END
                                   23454
 003796 58E0 7D24/0DEE       0430C 23455                       ACALL SEGHEAD             Seg packet header
 00379C 58E0 7D28/0DEE       04310 23459                       ACALL SEGTRAIL            Seg packet trailer
 0037A2 1B00/41F0 60E8_            23463                       SEGWR
                                   23487
 0037AE D502 7E1F BD24_04407 00D24 23488                       IF    (CPCMNM,EQ,'MIC'),SAMOEXIT  No FFINFO if MICRO cmd
 0037B8 D502 7DD4 BD24_043BC 00D24 23508                       IF    (CPCMNM,EQ,'SAM'),SAMOEXIT  No FFINFO if SAMSON cmd
                                   23528
 0037C2 9608 BF37      00F37       23529                       SET   DSNFSTAT            Give "in progress" status msgs
 0037C6 D502 7E22 BD24_0440A 00D24 23535                       IF    (CPCMNM,EQ,'SAV'),'SET SAMFWRITE'  Write operation
 0037D4 D504 7E25 B3B4_0440D 003B4 23563                       IF    (CPSACCT,EQ,'JDNGG'),'SET SAMFASCII8'  Testing!!!
                                   23591                       ¿þþþþþþþþþþþþþþþþþþþþþþþþþþþþþþþþþþþþþþþþÜ
                                   23592                       Ÿ  Send read/write file request packet.  Ÿ
                                   23593                       ¾þþþþþþþþþþþþþþþþþþþþþþþþþþþþþþþþþþþþþþþþ»
 0037E2 D201 6124 7DC4 00124 043AC 23594                       MVC   SAMSCMD,=C'RP'      Read file parameters
 0037E8 9140 6004/47E0_00004       23595                       IF    SAMFWRITE,'MVI SAMSCMD,C"W"'  Write file
 0037F4 58E0 7D24/0DEE       0430C 23616                       ACALL SEGHEAD             Seg packet header
                                   23620
                                   23621                       COMMENT                   Specify file
 0037FA 4110 7E2A/4100_      04412 23622                       SEG   'FILE='
 00380C 4110 600C/5800_      0000C 23639                       SEG   SAMFNAME,L:SAMFNAMEL
1SAM      (SAM2193) (12:54) (15MAR04) Samson Interface Routines                                                             Page   59
0Current Usings:  (FFINFO,R5) (SAMWA,R6) (*,R7) (CP,R11) (CV,R12)
0Loc    Object Code    Addr1 Addr2  Stmt Lv Lineno    Source Statement           (Hibal 5, Asmedit 3.3)  HLASM R4.0  2004/03/15 12.54
+___    ______ ____    _____ _____  ____ __ ______    ______ _________
0                                  23666                       ¿þþþþþþþþþþþþþþþþþþþþþþþþþþþþþþþþþþþþþþþþþþþþþþþþþþþþþþþþþþþþþþþÜ
                                   23667                       Ÿ  Wylbur now handles WRAP and SPLIT itself.  We only need to   Ÿ
                                   23668                       Ÿ   send it to Samson if the version 1 protocol is being used.  Ÿ
                                   23669                       ¾þþþþþþþþþþþþþþþþþþþþþþþþþþþþþþþþþþþþþþþþþþþþþþþþþþþþþþþþþþþþþþþ»
 00381E D501 7DC2 BA94_043AA 00A94 23670                       IF    (CPSAMPRO,LT,2),BEGIN  Version 1 only...
 003828 58E0 7D30/0DEE       04318 23688  1                      ACALL SEGSEP
 00382E 4110 7E2F/4100_      04417 23692  1                      SETMSG 'WRAP='
 003836 9180 6007/47E0_00007       23696  1                      IF    SAMFSPLT,'SETMSG "SPLIT="'
 003846 41F0 60E8/58E0_      000E8 23720  1                      SEG   (R1),(R0)
 003850 4810 60DC/1B00_      000DC 23743  1                      SEGDC LH:SAMWRAPL         Wrap length
 003860                            23763                       END
                                   23767
 003860 9180 6006/47E0_00006       23768                       IF    SAMFTRAN,'ACALL SEGSEP; SEG "TRANSPARENT"'
 003880 9140 6006/47E0_00006       23809                       IF    SAMFDTRAN,'ACALL SEGSEP; SEG "DTRANSPARENT"'
                                   23850
 0038A0 9140 BD51/47E0_00D51       23851                       IF    CPLFLG2.CPFSCRTC,'ACALL SEGSEP; SEG "REPLACE"'
                                   23893
 0038C0 9140 6007/47E0_00007       23894                       IF    SAMFAPP,'ACALL SEGSEP; SEG "APPEND"'
                                   23935
 0038E0 58E0 7D44/0DEE       0432C 23936                       ACALL SEGEOD              End of parameters
                                   23940
 0038E6 58E0 7D28/0DEE       04310 23941                       ACALL SEGTRAIL            Seg packet trailer
 0038EC 9604 6004      00004       23945                       SET   SAMFERET            Return even if error
 0038F0 1B00/41F0 60E8_            23951                       SEGWR
                                   23975                       ¿þþþþþþþþþþþþþþþþþþþþþþþþþþþþþþþþþþþþþþþþþþþþþþþþþþþþþþþþþþþÜ
                                   23976                       Ÿ  Process open error.                                      Ÿ
                                   23977                       Ÿ    CPERRID has the error id and the TSEG buffer contains  Ÿ
                                   23978                       Ÿ    the msg.                                               Ÿ
                                   23979                       ¾þþþþþþþþþþþþþþþþþþþþþþþþþþþþþþþþþþþþþþþþþþþþþþþþþþþþþþþþþþþ»
 0038FC 94FB 6004      00004       23980                       CLEAR SAMFERET            Reset error trapping
 003900 9102 6004/47E0_00004       23987                       IF    SAMFERC,'LA R15,4; B SAMOEXIT'  Open error
                                   24009                       ¿þþþþþþþþþþþþþþþþþþþþþþþþþþþþþþþþþþþþþþþþþþþÜ
                                   24010                       Ÿ  Process read/write enviornment options.  Ÿ
                                   24011                       ¾þþþþþþþþþþþþþþþþþþþþþþþþþþþþþþþþþþþþþþþþþþþ»
 003910 D601 6138 6138_00138 00138 24012                       IF    (SAMRDLEN,NZ),BEGIN
 00391A                            24028  1                      LOOP  BEGIN
 00391A 58E0 7D48/0DEE       04330 24034  2                        ACALL INLINE              Get enviornment options
 003920 4770 73A2            0398A 24038  2                        IF    NZ,EXIT             Nothing left, scram
                                   24052  2
 003924 58E0 B08C/501E_      0008C 24053  2                        SCINIT (R1),(R0)
 003932 5810 B08C/1B00_      0008C 24073  2                        SCAN  SAMROPRT            Process enviornment options
 003984 1BFF                       24105  2                        CLEAR R15                 Ignore errors
 003986 47F0 7332            0391A 24109  1                      END
 00398A                            24114                       END
                                   24118                       ¿þþþþþþþþþþþþþþþþþþþþþþþþþþþþþþþþþþþþþþþþþþþþþþþþþþþþþþþþþÜ
                                   24119                       Ÿ  Prepare for regular file transfer (which will involve  Ÿ
                                   24120                       Ÿ    sending block read/write packets).                   Ÿ
                                   24121                       ¾þþþþþþþþþþþþþþþþþþþþþþþþþþþþþþþþþþþþþþþþþþþþþþþþþþþþþþþþþ»
 00398A 92C4 6125      00125       24122                       MVI   SAMSCMD+1,C'D'      Read/write data
1SAM      (SAM2193) (12:54) (15MAR04) Samson Interface Routines                                                             Page   60
0Current Usings:  (FFINFO,R5) (SAMWA,R6) (*,R7) (CP,R11) (CV,R12)
0Loc    Object Code    Addr1 Addr2  Stmt Lv Lineno    Source Statement           (Hibal 5, Asmedit 3.3)  HLASM R4.0  2004/03/15 12.54
+___    ______ ____    _____ _____  ____ __ ______    ______ _________
0                                  24123                       ¿þþþþþþþþþþþþþþþþþþþþþþþþþþþþþþþþþþþþþþþþþþþþþþþþþþþþþþþþþþþþÜ
                                   24124                       Ÿ  For "fast ftp" connections the data is sent over a        Ÿ
                                   24125                       Ÿ    separate direct TCP connection.  In the read/write      Ÿ
                                   24126                       Ÿ    parameters Samson returns, Samson tells us that it can  Ÿ
                                   24127                       Ÿ    accept a "fast ftp" connection.  We then open the TCP   Ÿ
                                   24128                       Ÿ    connection and wait for Samson to open it's side.       Ÿ
                                   24129                       ¾þþþþþþþþþþþþþþþþþþþþþþþþþþþþþþþþþþþþþþþþþþþþþþþþþþþþþþþþþþþþ»
 00398E 9120 6004/47E0_00004       24130                       IF    SAMFFAST,BEGIN      Open fast ftp connection...
 003996 58E0 7D50/0DEE       04338 24145  1                      ACALL SNETOPEN            Open connection
 00399C 4770 73C2            039AA 24149  1                      BNZ   SAMOEXIT            Trouble, scram
 0039A0                            24150                       END
                                   24154                       ¿þþþþþþþþþþþþþþþþþþþþþþþþþþþÜ
                                   24155                       Ÿ  Normal open completion.  Ÿ
                                   24156                       ¾þþþþþþþþþþþþþþþþþþþþþþþþþþþ»
 0039A0 9680 6004      00004       24157                       SET   SAMFOPEN            File is open
 0039A4 1BFF                       24163                       CLEAR R15                 A-ok
 0039A6 47F0 73C2            039AA 24167                       B     SAMOEXIT
                                   24168
 0039AA 18D8/9808 D004_            24169              SAMOEXIT PEND
 DROP   *,R7
1SAM      (SAM2193) (12:54) (15MAR04) Samson Interface Routines                                                             Page   61
0Current Usings:  (FFINFO,R5) (SAMWA,R6) (CP,R11) (CV,R12)
0Loc    Object Code    Addr1 Addr2  Stmt Lv Lineno    Source Statement           (Hibal 5, Asmedit 3.3)  HLASM R4.0  2004/03/15 12.54
+___    ______ ____    _____ _____  ____ __ ______    ______ _________
0                                  24191              *
                                   24192              *  File open options
                                   24193              *
                                   24194              *
 0039B8 E3C1C2E240404040_          24195              SAMOPRT  SCKW  TABS,TABS,A
 0039E0 D5D6E3C1C2E24040_          24210                       SCKW  NOTABS,NOTABS,A
 003A08 E4D5C6D6D9D4C1E3_          24225                       SCKW  UNFORMATTED,UNFMT,A
 003A30 C6D6D9D4C1E3E3C5_          24240                       SCKW  FORMATTED,FMT,A
 003A58 E3C5E7E3D6D5D3E8_          24255                       SCKW  TEXTONLY,TEXTONLY,A
 003A80 E3D9C1D5E2D7C1D9_          24270                       SCKW  TRANSPARENT,TRANS,A
 003AA8 C4E3D9C1D5E2D7C1_          24285                       SCKW  DTRANSPARENT,DTRANS,A
 003AD0 C1E2C3C9C9404040_          24300                       SCKW  ASCII,ASCII,A
 003AF8 C5C2C3C4C9C34040_          24315                       SCKW  EBCDIC,EBCDIC,A
 003B20 E2E3D9C5C1D44040_          24330                       SCKW  STREAM,STREAM,A
 003B48 E6D9C1D740404040_          24345                       SCKW  WRAP,WRAP,(A,P,PI),&LINESZ
 003B70 E2D7D3C9E3404040_          24360                       SCKW  SPLIT,SPLIT,(A,P,PI),&LINESZ
 003B98 4040404040404040_          24375                       SCKW  ,V(NOTVALID)
                                   24390
 003BC0 50E0 D000/9008_      00000 24391              TABS     DPROC ,
 USING  *,R7
 003BDA 9620 6007      00007       24431                       SET   SAMFTABS            Keep TAB characters in data
 003BDE 18D8/9808 D004_            24437                       PEND  ,
 DROP   *,R7
                                   24457
 003BEC 50E0 D000/9008_      00000 24458              NOTABS   DPROC ,
 USING  *,R7
 003C06 94DF 6007      00007       24498                       CLEAR SAMFTABS            Expand TAB characters in data
 003C0A 18D8/9808 D004_            24505                       PEND  ,
 DROP   *,R7
                                   24525
 003C18 50E0 D000/9008_      00000 24526              FMT      DPROC ,
 USING  *,R7
 003C32 94FB 6006      00006       24566                       CLEAR SAMFUFMT            FORMATTED
 003C36 94DF 6007      00007       24573                       CLEAR SAMFTABS
 003C3A 18D8/9808 D004_            24580                       PEND  ,
 DROP   *,R7
                                   24600
 003C48 50E0 D000/9008_      00000 24601              UNFMT    DPROC ,
 USING  *,R7
 003C62 9604 6006      00006       24641                       SET   SAMFUFMT            UNFORMATTED
 003C66 9620 6007      00007       24647                       SET   SAMFTABS
 003C6A 18D8/9808 D004_            24653                       PEND  ,
 DROP   *,R7
                                   24673
 003C78 50E0 D000/9008_      00000 24674              TEXTONLY DPROC ,
 USING  *,R7
 003C92 9602 6006      00006       24714                       SET   SAMFTEXTONLY        TEXTONLY
 003C96 18D8/9808 D004_            24720                       PEND  ,
 DROP   *,R7
                                   24740
 003CA4 50E0 D000/9008_      00000 24741              TRANS    DPROC
 USING  *,R7
 003CBE 9680 6006      00006       24781                       SET   SAMFTRAN            Set TRANSPARENT format
 003CC2 18D8/9808 D004_            24787                       PEND
1SAM      (SAM2193) (12:54) (15MAR04) Samson Interface Routines                                                             Page   62
0Current Usings:  (FFINFO,R5) (SAMWA,R6) (CP,R11) (CV,R12)
0Loc    Object Code    Addr1 Addr2  Stmt Lv Lineno    Source Statement           (Hibal 5, Asmedit 3.3)  HLASM R4.0  2004/03/15 12.54
+___    ______ ____    _____ _____  ____ __ ______    ______ _________
0DROP   *,R7
                                   24807
 003CD0 50E0 D000/9008_      00000 24808              DTRANS   DPROC
 USING  *,R7
 003CEA 96C0 6006      00006       24848                       SET   SAMFDTRAN+SAMFTRAN  Set DTRANSPARENT format
 003CEE 18D8/9808 D004_            24857                       PEND
 DROP   *,R7
                                   24877
 003CFC 50E0 D000/9008_      00000 24878              ASCII    DPROC
 USING  *,R7
 003D16 9610 6006      00006       24918                       SET   SAMFASCII           ASCII
 003D1A 94F7 6006      00006       24924                       CLEAR SAMFEBCDIC          Not EBCDIC
 003D1E 18D8/9808 D004_            24931                       PEND
 DROP   *,R7
                                   24951
 003D2C 50E0 D000/9008_      00000 24952              EBCDIC   DPROC
 USING  *,R7
 003D46 9608 6006      00006       24992                       SET   SAMFEBCDIC          EBCDIC
 003D4A 94EF 6006      00006       24998                       CLEAR SAMFASCII           Not ASCII
 003D4E 18D8/9808 D004_            25005                       PEND
 DROP   *,R7
                                   25025
 003D5C 50E0 D000/9008_      00000 25026              STREAM   DPROC
 USING  *,R7
 003D76 9620 6006      00006       25066                       SET   SAMFSTRM
 003D7A 18D8/9808 D004_            25072                       PEND
 DROP   *,R7
                                   25092
 003D88 50E0 D000/9008_      00000 25093              WRAP     PROC
 USING  *,R7
 003DA2 D502 7668 BD24_0440A 00D24 25132                       IF    (CPCMNM,EQ,'SAV'),BEGIN    WRAP invalid on SAVE
 003DAC 58E0 759A/0DEE       0433C 25149  1                      VCALL NOTVALID
 003DB2                            25153                       END
 003DB2 947F 6007      00007       25157                       CLEAR SAMFSPLT            WRAP, not SPLIT
 003DB6 4000 60DC            000DC 25164                       STH   R0,SAMWRAPL         Save WRAP length
 003DBA 1BFF                       25165                       CLEAR R15
 003DBC 18D8/9808 D004_            25169                       PEND
 DROP   *,R7
                                   25189
 003DCA 50E0 D000/9008_      00000 25190              SPLIT    PROC  ,
 USING  *,R7
 003DE4 D502 7626 BD24_0440A 00D24 25229                       IF    (CPCMNM,EQ,'SAV'),BEGIN    SPLIT invalid on SAVE
 003DEE 58E0 7558/0DEE       0433C 25246  1                      VCALL NOTVALID
 003DF4                            25250                       END
 003DF4 9680 6007      00007       25254                       SET   SAMFSPLT            SPLIT, not WRAP
 003DF8 4000 60DC            000DC 25260                       STH   R0,SAMWRAPL         Save WRAP length
 003DFC 1BFF                       25261                       CLEAR R15
 003DFE 18D8/9808 D004_            25265                       PEND  ,
 DROP   *,R7
                                   25285              **
1SAM      (SAM2193) (12:54) (15MAR04) Samson Interface Routines                                                             Page   63
0Current Usings:  (FFINFO,R5) (SAMWA,R6) (CP,R11) (CV,R12)
0Loc    Object Code    Addr1 Addr2  Stmt Lv Lineno    Source Statement           (Hibal 5, Asmedit 3.3)  HLASM R4.0  2004/03/15 12.54
+___    ______ ____    _____ _____  ____ __ ______    ______ _________
0                                  25287              **
                                   25288              **  Enviornment options.
                                   25289              **  Returned from micro after open.
                                   25290              **
                                   25291              **
 003E0C C6C9D3C540404040_          25292              SAMROPRT SCKW  FILE,OFILE
 003E34 E3D9C1D5E2D7C1D9_          25307                       SCKW  TRANSPARENT,OTRAN
 003E5C C4E3D9C1D5E2D7C1_          25322                       SCKW  DTRANSPARENT,ODTRAN
 003E84 D5D6E3D9C1D5E2D7_          25337                       SCKW  NOTRANSPARENT,ONOTRAN
 003EAC C1D7D7D3C5C1E2C3_          25352                       SCKW  APPLEASCII,OASCII8
 003ED4 C1E2C3C9C9F84040_          25367                       SCKW  ASCII8,OASCII8
 003EFC D9C5D7D3C1C3C540_          25382                       SCKW  REPLACE,OREP
 003F24 D5D6D9C5D7D3C1C3_          25397                       SCKW  NOREPLACE,ONOREP
 003F4C C1D7D7C5D5C44040_          25412                       SCKW  APPEND,OAPP
 003F74 D5D6C1D7D7C5D5C4_          25427                       SCKW  NOAPPEND,ONOAPP
 003F9C C9D7C1C4C4D94040_          25442                       SCKW  IPADDR,OIPADDR
 003FC4 E2C5C5C440404040_          25457                       SCKW  SEED,OSEED
 003FEC 4040404040404040_          25472                       SCKW  ,V(SCNNOOP)
                                   25487              þþþþ
 004014 50E0 D000/9008_      00000 25488              OFILE    PROC
 USING  *,R7
 00402E 58E0 B08C/581E_      0008C 25527                       SCINFO
 00403C 58E0 7312/0DEE       04340 25536                       ACALL SAMTRIM
                                   25540
                                   25541                       COMMENT                   Save fully resolved name
 004042 1820                       25542                       LR    R2,R0
 004044 5920 7316/47D0_      04344 25543                       CEIL  R2,L'FFRNAME
 004050 5020 5214            00214 25562                       ST    R2,FFRNAMEL
 004054 0620/1222/4740_            25563                       MOVE  R2,FFRNAME,@R1
                                   25601
 004060 41F0 0004            00004 25602                       LA    R15,4
 004064 18D8/9808 D004_            25603                       PEND
 DROP   *,R7
                                   25623
 004072 50E0 D000/9008_      00000 25624              OTRAN    PROC  ,
 USING  *,R7
 00408C 9680 6006      00006       25663                       SET   SAMFTRAN            Transparent (no translation)
 004090 18D8/9808 D004_            25669                       PEND
 DROP   *,R7
                                   25689
 00409E 50E0 D000/9008_      00000 25690              ODTRAN   PROC  ,
 USING  *,R7
 0040B8 96C0 6006      00006       25729                       SET   SAMFDTRAN+SAMFTRAN  Data transparent
 0040BC 18D8/9808 D004_            25738                       PEND
 DROP   *,R7
                                   25758
 0040CA 50E0 D000/9008_      00000 25759              ONOTRAN  PROC
 USING  *,R7
 0040E4 947F 6006      00006       25798                       CLEAR SAMFTRAN            Not transparent
 0040E8 18D8/9808 D004_            25805                       PEND
 DROP   *,R7
                                   25825
 0040F6 50E0 D000/9008_      00000 25826              OASCII8  PROC  ,
 USING  *,R7
1SAM      (SAM2193) (12:54) (15MAR04) Samson Interface Routines                                                             Page   64
0Current Usings:  (FFINFO,R5) (SAMWA,R6) (*,R7) (CP,R11) (CV,R12)
0Loc    Object Code    Addr1 Addr2  Stmt Lv Lineno    Source Statement           (Hibal 5, Asmedit 3.3)  HLASM R4.0  2004/03/15 12.54
+___    ______ ____    _____ _____  ____ __ ______    ______ _________
0004110 9610 6004      00004       25865                       SET   SAMFASCII8          Set 8 bit ASCII mode
 004114 18D8/9808 D004_            25871                       PEND
 DROP   *,R7
                                   25891
 004122 50E0 D000/9008_      00000 25892              OREP     PROC  ,
 USING  *,R7
 00413C 9640 BD51      00D51       25931                       SET   CPLFLG2.CPFSCRTC    Replacing file
 004140 18D8/9808 D004_            25938                       PEND
 DROP   *,R7
                                   25958
 00414E 50E0 D000/9008_      00000 25959              ONOREP   PROC  ,
 USING  *,R7
 004168 94BF BD51      00D51       25998                       CLEAR CPLFLG2.CPFSCRTC    Not replacing file
 00416C 94BF 6007      00007       26006                       CLEAR SAMFAPP             No append
 004170 18D8/9808 D004_            26013                       PEND
 DROP   *,R7
                                   26033
 00417E 50E0 D000/9008_      00000 26034              OAPP     PROC  ,
 USING  *,R7
 004198 9640 6007      00007       26073                       SET   SAMFAPP             Appending to file
 00419C 18D8/9808 D004_            26079                       PEND
 DROP   *,R7
                                   26099
 0041AA 50E0 D000/9008_      00000 26100              ONOAPP   PROC  ,
 USING  *,R7
 0041C4 94BF 6007      00007       26139                       CLEAR SAMFAPP             Not appending to file
 0041C8 18D8/9808 D004_            26146                       PEND
 DROP   *,R7
                                   26166
 0041D6 50E0 D000/9008_      00000 26167              OIPADDR  PROC
 USING  *,R7
 0041F0 9108 B47D/4710_0047D       26206                       IF    CPGFSAMSLOW,OIPADONE  No fast FTPs allowed, scram
                                   26224                       ¿þþþþþþþþþþþþþþþþþþþþþþþþþþþþþþþþþþþþþþþþþþþþþþþþþþþþþþÜ
                                   26225                       Ÿ  Temporarily switch to SLOW FTP if WRAP=x or STREAM  Ÿ
                                   26226                       Ÿ  options are specified.                              Ÿ
                                   26227                       ¾þþþþþþþþþþþþþþþþþþþþþþþþþþþþþþþþþþþþþþþþþþþþþþþþþþþþþþ»
 0041F8 D501 71CA 60DC_043BA 000DC 26228                       IF    (SAMWRAPL,NE,230),OIPADONE  !!!!
 004202 9120 6006/4710_00006       26249                       IF    SAMFSTRM,OIPADONE           !!!!
                                   26267
 00420A 58E0 B08C/581E_      0008C 26268                       SCINFO
 004218 58E0 7150/0DEE       04340 26277                       ACALL SAMTRIM
 00421E 9620 6004      00004       26281                       SET   SAMFFAST            Fast ftp mode
 004222 D24F 613A C4D8 0013A 004D8 26287                       MVC   SAMRNAME,CVBLANKS
 004228 18F0                       26288                       LR    R15,R0
 00422A 59F0 7158/47D0_      04348 26289                       CEIL  R15,L'SAMRNAME
 004236 06F0/12FF/4740_            26308                       MOVE  R15,SAMRNAME,@R1    Remote host's IP address
 004242 41F0 0004            00004 26346              OIPADONE LA    R15,4
 004246 18D8/9808 D004_            26347                       PEND
 DROP   *,R7
                                   26367
 004254 50E0 D000/9008_      00000 26368              OSEED    PROC
 USING  *,R7
 00426E 58E0 B08C/581E_      0008C 26407                       SCINFO
 00427C 58E0 70D2/0DEE       04340 26416                       ACALL SAMTRIM
1SAM      (SAM2193) (12:54) (15MAR04) Samson Interface Routines                                                             Page   65
0Current Usings:  (FFINFO,R5) (SAMWA,R6) (*,R7) (CP,R11) (CV,R12)
0Loc    Object Code    Addr1 Addr2  Stmt Lv Lineno    Source Statement           (Hibal 5, Asmedit 3.3)  HLASM R4.0  2004/03/15 12.54
+___    ______ ____    _____ _____  ____ __ ______    ______ _________
0004282 D21F 60BC 7052 000BC 042C0 26420                       MVC   SAMSEED,=C'124 blackburn and 2781 ross road'
 004288 18F0                       26421                       LR    R15,R0
 00428A 59F0 70DE/47D0_      0434C 26422                       CEIL  R15,L'SAMSEED
 004296 06F0/12FF/4740_            26441                       MOVE  R15,SAMSEED,@R1     Set seed
 0042A2 58F0 C8B0            008B0 26479                       L     R15,CVASCTBL
 0042A6 DC1F 60BC F000 000BC 00000 26480                       TR    SAMSEED,@R15        Now translate to ASCII
 0042AC 41F0 0004            00004 26481                       LA    R15,4
 0042B0 18D8/9808 D004_            26482                       PEND
 DROP   *,R7
                                   26502
 DROP   FFINFO,R5                  26503                       DROP  R5
 DROP   SAMWA,R6                   26510                       DROP  R6
                                   26517
                                   26518                       QLTORG
1SAM      (SAM2193) (12:54) (15MAR04) Samson Interface Routines                                                             Page   66
0Current Usings:  (CP,R11) (CV,R12)
0Loc    Object Code    Addr1 Addr2  Stmt Lv Lineno    Source Statement           (Hibal 5, Asmedit 3.3)  HLASM R4.0  2004/03/15 12.54
+___    ______ ____    _____ _____  ____ __ ______    ______ _________
0                                  26582              ¿þþþþþþþþþþþþþþþþþþþþþþþþþþþþþþþþþþþþþþþþþþþþþþþþþþþþþþþþþþþþþþþþþþþþþÜ
                                   26583              Ÿ                                                                     Ÿ
                                   26584              Ÿ  SAMREAD -- Routine to read the next line from a Samson file.       Ÿ
                                   26585              Ÿ                                                                     Ÿ
                                   26586              Ÿ    On entry:                                                        Ÿ
                                   26587              Ÿ      R1,R0 - loc, len of line area                                  Ÿ
                                   26588              Ÿ      Device work area - file info ..                                Ÿ
                                   26589              Ÿ                                                                     Ÿ
                                   26590              Ÿ    On exit:                                                         Ÿ
                                   26591              Ÿ      R1, R0 - loc len of text                                       Ÿ
                                   26592              Ÿ      R2 - line number                                               Ÿ
                                   26593              Ÿ      R15=ZERO, line returned.  R15=NZ, end of file.                 Ÿ
                                   26594              Ÿ                                                                     Ÿ
                                                      ¾þþþþþþþþþþþþþþþþþþþþþþþþþþþþþþþþþþþþþþþþþþþþþþþþþþþþþþþþþþþþþþþþþþþþþ»
0000000                00000 00008 26595              SRDWA    RECORD BEGIN
 000000                            26603  1           SRDLOC     DS    F
 000004                            26604  1           SRDLEN     DS    F
 000008                00008 00008 26605                       END
                                   26614
 004440 50E0 D000/9008_      00000 26615              SAMREAD  XPROC SRDWA
 USING  *,R7
 USING  SRDWA-(4+36),R8
                                   26666
 00445A 5010 8028            00000 26667                       ST    R1,SRDLOC
 00445E 5000 802C            00004 26668                       ST    R0,SRDLEN
                                   26669
 004462 5860 BE58            00E58 26670                       L     R6,CPDEVP           SAMWA ptr
 USING  SAMWA,R6                   26671                       WITH  (SAMWA,R6)
 004466 D502 7ACE 6000_04F28 00000 26684                       FAIL  (SAMWA,NE,'SAM'),BADSAM,'Bad SAMWA ptr'
                                   26713                       ¿þþþþþþþþþþþþþþþþþþþþþþþþþþþþþþþþþþþþÜ
                                   26714                       Ÿ  Handle fast ftp read separately.  Ÿ
                                   26715                       ¾þþþþþþþþþþþþþþþþþþþþþþþþþþþþþþþþþþþþ»
 004488 9120 6004/47E0_00004       26716                       IF    SAMFFAST,BEGIN      Fast ftp style...
 004490 4DE0 7EF0            0534A 26731  1                      LCALL SNETREAD
 004494 47F0 70A8            04502 26733  1                      B     SAMREXIT
 004498                            26734                       END
                                   26738                       ¿þþþþþþþþþþþþþþþþþþþþþþþþþþþþþþþþþþþþþþþþþþÜ
                                   26739                       Ÿ  Get the next line in transparent mode.  Ÿ
                                   26740                       ¾þþþþþþþþþþþþþþþþþþþþþþþþþþþþþþþþþþþþþþþþþþ»
 004498 9180 6006/47E0_00006       26741                       IF    SAMFTRAN,BEGIN      Transparent mode...
                                   26756  1                      ¿þþþþþþþþþþþþþþþþþþþþþþþþþþþþþþþþþþþþþþþþþþþþþþþþþþþþþþþþþþþþþÜ
                                   26757  1                      Ÿ  Compatability note:                                        Ÿ
                                   26758  1                      Ÿ    In version 1 of the file transfer protocol Samson built  Ÿ
                                   26759  1                      Ÿ    the transparent text lines itself, so we treat it like   Ÿ
                                   26760  1                      Ÿ    regular text.  In version 2 and above Samson sends a     Ÿ
                                   26761  1                      Ÿ    continuous data stream with the transparent text in it.  Ÿ
                                   26762  1                      ¾þþþþþþþþþþþþþþþþþþþþþþþþþþþþþþþþþþþþþþþþþþþþþþþþþþþþþþþþþþþþþ»
 0044A0 D501 7AB2 BA94_04F0C 00A94 26763  1                      IF    (CPSAMPRO,LT,2),BEGIN  Old style transparent...
 0044AA 58E0 7A36/0DEE       04E90 26781  2                        ACALL INLINE              Get the next line segment
 0044B0 47D0 7060/1BFF_      044BA 26785  2                        IF    POS,'CLEAR R15; B SAMREXIT'  End of file, scram
 0044BA                            26806  1                      END
                                   26810  1
 0044BA 7064/47F0 7076 044BA 044A8 26811  1                      ELSE  BEGIN               New style transparent...
1SAM      (SAM2193) (12:54) (15MAR04) Samson Interface Routines                                                             Page   67
0Current Usings:  (SAMWA,R6) (*,R7) (SRDWA-(4+36),R8) (CP,R11) (CV,R12)
0Loc    Object Code    Addr1 Addr2  Stmt Lv Lineno    Source Statement           (Hibal 5, Asmedit 3.3)  HLASM R4.0  2004/03/15 12.54
+___    ______ ____    _____ _____  ____ __ ______    ______ _________
00044BE 58E0 7A3A/0DEE       04E94 26822  2                        ACALL INTRAN              Transparent mode read
 0044C4 47D0 7076/41F0_      044D0 26826  2                        IF    POS,'LA R15,4; B SAMREXIT'  End of file, scram
 0044D0                            26844  1                      END
 0044D0                            26848                       END
                                   26852                       ¿þþþþþþþþþþþþþþþþþþþþþþþþþþþþþþþþþþþÜ
                                   26853                       Ÿ  Get the next line in text mode.  Ÿ
                                   26854                       ¾þþþþþþþþþþþþþþþþþþþþþþþþþþþþþþþþþþþ»
 0044D0 707A/47F0 708C 044D0 0449E 26855                       ELSE  BEGIN               Text mode...
 0044D4 58E0 7A3E/0DEE       04E98 26866  1                      ACALL INTEXT              Get the next text line
 0044DA 47D0 708C/41F0_      044E6 26870  1                      IF    POS,'LA R15,4; B SAMREXIT'  End of file, scram
 0044E6                            26888                       END
                                   26892                       ¿þþþþþþþþþþþþþþþþþþþþþþþþþþþþþþþþþþþþþþþþþþþþþþþþþþþþþþþþÜ
                                   26893                       Ÿ  If user tried to stop the file transfer then set the  Ÿ
                                   26894                       Ÿ    ATTN flag now.                                      Ÿ
                                   26895                       ¾þþþþþþþþþþþþþþþþþþþþþþþþþþþþþþþþþþþþþþþþþþþþþþþþþþþþþþþþ»
 0044E6 9101 6004/47E0_00004       26896                       IF    SAMFBREAK,BEGIN     Stop the file transfer...
 0044EE 5820 C1C8            001C8 26911  1                      L     R2,CVCURJCB
 USING  JCB,R2                     26912  1                      WITH  (JCB,R2)
 0044F2 9602 2062      00062       26925  1                      SET   JCBFATTN            Set ATTN
 DROP   JCB,R2                     26931                       END
                                   26940                       ¿þþþþþþþþþþþþþþþþþþþþþþþþþþþþþþþþþþþþþþþþþþþþþþþÜ
                                   26941                       Ÿ  Press the line and return it to the caller.  Ÿ
                                   26942                       ¾þþþþþþþþþþþþþþþþþþþþþþþþþþþþþþþþþþþþþþþþþþþþþþþ»
 0044F6 5820 6130            00130 26943                       L     R2,SAMLNO
 0044FA 5A20 B738            00738 26944                       A     R2,CPDELTA
 0044FE 5020 6130            00130 26945                       ST    R2,SAMLNO          New lineno
                                   26946
 004502                            26947              SAMREXIT LABEL ,
 004502 12FF/4770 70D0             26949                       IF    (R15,Z),BEGIN       RETURN TEXT, LINE NUMBER
 004508 5820 8028            00000 26963  1                      L     R2,SRDLOC           MOVE TEXT TO LINE BUFFER
 00450C 5830 802C            00004 26964  1                      L     R3,SRDLEN
 004510 1841                       26965  1                      LR    R4,R1
 004512 1850                       26966  1                      LR    R5,R0
 004514 1953/47D0 70C2_            26967  1                      IF    (R5,GT,R3),'LR R5,R3'
 00451C 0E24                       26988  1                      MVCL  R2,R4
 00451E 5810 8028            00000 26989  1                      L     R1,SRDLOC           RETURN LOC,LEN,LNO
 004522 5820 6130            00130 26990  1                      L     R2,SAMLNO
 004526 9002 8004            00004 26991  1                      PRETURN (R0,R2)
 00452A                            26993                       END
 00452A 18D8/9808 D004_            26997                       PEND
 DROP   SAMWA,R6
 DROP   SRDWA-(4+36),R8
 DROP   *,R7
1SAM      (SAM2193) (12:54) (15MAR04) Samson Interface Routines                                                             Page   68
0Current Usings:  (CP,R11) (CV,R12)
0Loc    Object Code    Addr1 Addr2  Stmt Lv Lineno    Source Statement           (Hibal 5, Asmedit 3.3)  HLASM R4.0  2004/03/15 12.54
+___    ______ ____    _____ _____  ____ __ ______    ______ _________
0                                  27028              ¿þþþþþþþþþþþþþþþþþþþþþþþþþþþþþþþþþþþþþþþþþþþþþþþþþþþþþþþþþþþþþþþþþþþþþÜ
                                   27029              Ÿ                                                                     Ÿ
                                   27030              Ÿ  SAMWRITE -- Routine to write the next line to a Samson file.       Ÿ
                                   27031              Ÿ                                                                     Ÿ
                                   27032              Ÿ    On entry:                                                        Ÿ
                                   27033              Ÿ      R1,R0 - line location, length                                  Ÿ
                                   27034              Ÿ      R2 - line number (ignored)                                     Ÿ
                                   27035              Ÿ      Device work area contains information about the file.          Ÿ
                                   27036              Ÿ                                                                     Ÿ
                                   27037              Ÿ    Only returns if ok.                                              Ÿ
                                   27038              Ÿ                                                                     Ÿ
                                                      ¾þþþþþþþþþþþþþþþþþþþþþþþþþþþþþþþþþþþþþþþþþþþþþþþþþþþþþþþþþþþþþþþþþþþþþ»
0004538 50E0 D000/9008_      00000 27039              SAMWRITE XPROC
 USING  *,R7
 004552 5860 BE58            00E58 27079                       L     R6,CPDEVP           SAMWA ptr
 USING  SAMWA,R6                   27080                       WITH  (SAMWA,R6)
 004556 D502 79D6 6000_04F28 00000 27093                       FAIL  (SAMWA,NE,'SAM'),BADSAM,'Bad SAMWA ptr'
                                   27122
 004578 1211/4770 7044_            27123                       FAIL  (R1,Z),SAMERR1,'Samson interface error.'
                                   27149              *
                                   27150              * ** DEBUG ** SAMLINE buffer was formerly used as an unpress buffer.
                                   27151              * we may be able to delete all samline buffer usage. but for now we
                                   27152              * play it safe.
                                   27153              *
                                   27154                       COMMENT                   MOVE TEXT TO SAMLINE
 004596 D2EA 61CC C4D8 001CC 004D8 27155                       MVC   SAMLINE,CVBLANKS
 00459C 18F0                       27156                       LR    R15,R0
 00459E 06F0/12FF/4740_            27157                       MOVE  R15,SAMLINE,@R1
                                   27195                       ¿þþþþþþþþþþþþþþþþþþþþþþþþþþþþþþþþþþþþþþþþþþþþþþþþþþþþþþþþþþþþÜ
                                   27196                       Ÿ  Convert our representation of special characters to real  Ÿ
                                   27197                       Ÿ    special characters if we are dealing with APPLEASCII.   Ÿ
                                   27198                       ¾þþþþþþþþþþþþþþþþþþþþþþþþþþþþþþþþþþþþþþþþþþþþþþþþþþþþþþþþþþþþ»
 0045AA 9110 6004/47E0_00004       27199                       IF    SAMFASCII8,BEGIN    Appleascii...
 0045B2 9180 6006/4710_00006       27214  1                      IF    (SAMFTRAN,OR,SAMFUFMT),EXIT  Transparent or Unfmt
                                   27246  1                      SETMSG (R1),(R0)
 0045C2 41F0 00EB            000EB 27256  1                      LA    R15,&LINESZ         Maximum line length
 0045C6 4120 0002            00002 27257  1                      LA    R2,2                Use APPLEASCII table
 0045CA 58E0 794A/0DEE       04E9C 27258  1                      VCALL UNFORML             Convert sequences to chars
 0045D0                            27262                       END
                                   27266
 0045D0 1841                       27267                       LR    R4,R1               Save line loc...
 0045D2 1830                       27268                       LR    R3,R0               ...and len
                                   27269                       ¿þþþþþþþþþþþþþþþþþþþþþþþþþþþþþþþþþþþþþÜ
                                   27270                       Ÿ  Handle fast ftp write separately.  Ÿ
                                   27271                       ¾þþþþþþþþþþþþþþþþþþþþþþþþþþþþþþþþþþþþþ»
 0045D4 9120 6004/47E0_00004       27272                       IF    SAMFFAST,BEGIN      Fast ftp style...
 0045DC 4DE0 7F42            05494 27287  1                      LCALL SNETWR
 0045E0 47F0 72FE            04850 27289  1                      B     SAMWEXIT
 0045E4                            27290                       END
1SAM      (SAM2193) (12:54) (15MAR04) Samson Interface Routines                                                             Page   69
0Current Usings:  (SAMWA,R6) (*,R7) (CP,R11) (CV,R12)
0Loc    Object Code    Addr1 Addr2  Stmt Lv Lineno    Source Statement           (Hibal 5, Asmedit 3.3)  HLASM R4.0  2004/03/15 12.54
+___    ______ ____    _____ _____  ____ __ ______    ______ _________
0                                  27294                       ¿þþþþþþþþþþþþþþþþþþþþþþþþþþþþþþþþþþþþþþþþþþþþþþþþþþþþþþþþþþþþþþÜ
                                   27295                       Ÿ  Ask the user if he wants to stop if ATTN has been pressed.  Ÿ
                                   27296                       ¾þþþþþþþþþþþþþþþþþþþþþþþþþþþþþþþþþþþþþþþþþþþþþþþþþþþþþþþþþþþþþþ»
 0045E4 9101 6004/47E0_00004       27297                       IF    SAMFBREAK,BEGIN     Attn received...
 0045EC 94FE 6004      00004       27312  1                      CLEAR SAMFBREAK           Reset ATTN flag
                                   27319  1                      ¿þþþþþþþþþþþþþþþþþþþþþþþþþþþþþþþþþþþþþþþþþþþþþþþþþþþþþþþþþþþþþþþÜ
                                   27320  1                      Ÿ  Our message will erase the "(xxx lines written)" status      Ÿ
                                   27321  1                      Ÿ    message, so we reset the flag saying a status message has  Ÿ
                                   27322  1                      Ÿ    been written.                                              Ÿ
                                   27323  1                      ¾þþþþþþþþþþþþþþþþþþþþþþþþþþþþþþþþþþþþþþþþþþþþþþþþþþþþþþþþþþþþþþþ»
 0045F0 94F7 BC7D      00C7D       27324  1                      CLEAR CPFSTMSG            Turn off status message flag
                                   27331  1                      ¿þþþþþþþþþþþþþþþþþþþþþþþþþþþþþþÜ
                                   27332  1                      Ÿ  Write out our own message.  Ÿ
                                   27333  1                      ¾þþþþþþþþþþþþþþþþþþþþþþþþþþþþþþ»
 0045F4 5810 BF50/1B00_      00F50 27334  1                      TNUM  L:DSNLCNT           Current number of lines
 004604 D603 BF54 BF54_00F54 00F54 27356  1                      IF    (DSNLTOT,NZ),BEGIN  Give total line count too...
 00460E 4110 7952/4100_      04EA4 27372  2                        TSEG  ' of '
 004620 5810 BF54/1B00_      00F54 27390  2                        TNUM  L:DSNLTOT
 004630                            27412  1                      END
 004630 4110 78BE/4100_      04E10 27416  1                      TSEG  ' lines have been written so far.'
 004642 4110 C4D8/4100_      004D8 27434  1                      TSEG  CVBLANKS,20,CR      (Extra padding erases old msg)
                                   27464  1
 004654 4110 78DE/4100_      04E30 27465  1                      SETMSG 'Do you want to continue saving this file'
 00465C 58E0 795E/0DEE       04EB0 27469  1                      VCALL YESNO               We want a YES or a NO
 004662 4780 7132            04684 27473  1                      IF    Z,EXIT              Yes, scram
                                   27487  1
 004666 4110 79D9/4100_      04F2B 27488  1                      TSEG  'File transfer stopped, your file is only '
 004678 4110 7906/4100_      04E58 27506  1                      ABORT 'partially saved.'
 004684                            27513                       END
                                   27517                       ¿þþþþþþþþþþþþþþþþþþþþþþþþþþþþþþþþþÜ
                                   27518                       Ÿ  Seg write data packet header.  Ÿ
                                   27519                       ¾þþþþþþþþþþþþþþþþþþþþþþþþþþþþþþþþþ»
 004684 D603 60F4 60F4_000F4 000F4 27520                       IF    (SAMSGLENF,Z),'ACALL SEGHEAD'  Packet header
                                   27545                       ¿þþþþþþþþþþþþþþþþþþþþþþþþþþþÜ
                                   27546                       Ÿ  Transparent write data.  Ÿ
                                   27547                       ¾þþþþþþþþþþþþþþþþþþþþþþþþþþþ»
 004694 9180 6006/47E0_00006       27548                       IF    SAMFTRAN,BEGIN      Transparent mode...
 00469C 18F4                       27563  1                      LR    R15,R4              R4 = first character on line
 00469E 1AF3                       27564  1                      AR    R15,R3
 0046A0 06F0                       27565  1                      DECR  R15                 R15 = last character on line
                                   27567  1         C            IF    ((R3,LT,2),OR,
                                          1         C                  ('CLC @R4(1),@R15',NE),OR,
                                          1         C                  ((@R4,NE,'|'),AND,(@R4,NE,'@'),AND,
 0046A2 5930 7966/4740_      04EB8        1                            (@R4,NE,'-'),AND,(@R4,NE,X'2D'))),BEGIN
 0046D4 4110 7A02/4100_      04F54 27650  2                        TSEG  'Line '
 0046E6 5800 B73C            0073C 27668  2                        L     R0,CPLCNO
 0046EA 58E0 796A/0DEE       04EBC 27669  2                        VCALL CVEXNO
 0046F0 41F0 B050/58E0_      00050 27673  2                        TSEG  (R1),(R0)
 0046FA 4110 7A07/4100_      04F59 27697  2                        TSEG  ' is not valid TRANSPARENT data.',,CR
 00470C 4110 7916/4100_      04E68 27715  2                        ABORT 'SAVE command incomplete.'
 004718                            27722  1                      END
1SAM      (SAM2193) (12:54) (15MAR04) Samson Interface Routines                                                             Page   70
0Current Usings:  (SAMWA,R6) (*,R7) (CP,R11) (CV,R12)
0Loc    Object Code    Addr1 Addr2  Stmt Lv Lineno    Source Statement           (Hibal 5, Asmedit 3.3)  HLASM R4.0  2004/03/15 12.54
+___    ______ ____    _____ _____  ____ __ ______    ______ _________
0                                  27726  1                      ¿þþþþþþþþþþþþþþþþþþþþþþþþþþþþþþþþþþþþþþþþþþþþþþþþþþþþþþþþþþþþþþþÜ
                                   27727  1                      Ÿ  This is a little tricky:                                     Ÿ
                                   27728  1                      Ÿ                                                               Ÿ
                                   27729  1                      Ÿ  If the first character is an "@" then the data is in ASCII,  Ÿ
                                   27730  1                      Ÿ     and if the first character is a "|" then it is in         Ÿ
                                   27731  1                      Ÿ     EBCDIC.                                                   Ÿ
                                   27732  1                      Ÿ                                                               Ÿ
                                   27733  1                      Ÿ  For the Macintosh, if the first character is X'2D' then      Ÿ
                                   27734  1                      Ÿ    the data is in ASCII, and if the first character is a "-"  Ÿ
                                   27735  1                      Ÿ    then it is in EBCDIC.                                      Ÿ
                                   27736  1                      Ÿ                                                               Ÿ
                                   27737  1                      Ÿ  We want it in EBCDIC so that it can later be translated to   Ÿ
                                   27738  1                      Ÿ    ASCII by the seg routines.                                 Ÿ
                                   27739  1                      Ÿ                                                               Ÿ
                                   27740  1                      Ÿ  A key factor here is that our ASCII to EBCDIC tables         Ÿ
                                   27741  1                      Ÿ    provide a 1-to-1 translation.                              Ÿ
                                   27742  1                      ¾þþþþþþþþþþþþþþþþþþþþþþþþþþþþþþþþþþþþþþþþþþþþþþþþþþþþþþþþþþþþþþþ»
 004718 957C 4000/4780_00000       27743  1                      IF    ((@R4,EQ,'@'),OR,(@R4,EQ,X'2D')),BEGIN  ASCII...
 004728 58E0 796E/0DEE       04EC0 27774  2                        VCALL TOEBCDIC            If ASCII, convert
 00472E                            27778  1                      END
                                   27782  1                     ¿þþþþþþþþþþþþþþþþþþþþþþþþþþþþþþþþþþþþþþþþþþþþþþþþþþþþþþþþþþþþþþþþÜ
                                   27783  1                     Ÿ  Compatability note:  Samson file transfer protocol version 1  Ÿ
                                   27784  1                     Ÿ    expected the "guard" characters to be present in the data   Ÿ
                                   27785  1                     Ÿ    that was transferred down and also line separators between  Ÿ
                                   27786  1                     Ÿ    each line.                                                  Ÿ
                                   27787  1                     ¾þþþþþþþþþþþþþþþþþþþþþþþþþþþþþþþþþþþþþþþþþþþþþþþþþþþþþþþþþþþþþþþþ»
 00472E D501 79BA BA94_04F0C 00A94 27788  1                      IF    (CPSAMPRO,LT,2),BEGIN  Version 1...
 004738 1814/1803/41F0_            27806  2                        SEG   (R4),(R3)           Write data
 004746 9640 60DE      000DE       27831  2                        SET   SAMFCTRL
 00474A 4110 79BC/4100_      04F0E 27837  2                        SEG   '\;'                Hard CR
 00475C 94BF 60DE      000DE       27854  2                        CLEAR SAMFCTRL
 004760                            27861  1                      END
                                   27865  1
 004760 7212/47F0 7228 04760 04736 27866  1                      ELSE  BEGIN               Version 2 and above...
 004764 4140 4001            00001 27877  2                        LA    R4,@R4+1            Skip over leading guard char
 004768 4B30 79BE            04F10 27878  2                        SH    R3,=H'2'            Adjust length so no trailing
 00476C 1814/1803/41F0_            27879  2                        SEG   (R4),(R3)           Just the data
 00477A                            27904  1                      END
                                   27908  1                      ¿þþþþþþþþþþþþþþþþþþþþþþþþþþþþþþþþþþþþþþþþþþþþþþþþÜ
                                   27909  1                      Ÿ  Write current packet out if it is too large.  Ÿ
                                   27910  1                      ¾þþþþþþþþþþþþþþþþþþþþþþþþþþþþþþþþþþþþþþþþþþþþþþþþ»
 00477A D503 60F4 BAA8_000F4 00AA8 27911  1                      IF    (SAMSGLENF,GT,CPSAMBUFF),BEGIN  Write the packet...
 004784 58E0 7972/0DEE       04EC4 27929  2                        ACALL SEGTRAIL            Seg packet trailer
 00478A 1B00/41F0 60E8_            27933  2                        SEGWR ,                   Write packet
 004796 58E0 7962/0DEE       04EB4 27957  2                        ACALL SEGHEAD             Seg new packet header
 00479C                            27961  1                      END
 00479C                            27965                       END
                                   27969                       ¿þþþþþþþþþþþþþþþþþþþþÜ
                                   27970                       Ÿ  Text write data.  Ÿ
                                   27971                       ¾þþþþþþþþþþþþþþþþþþþþ»
 00479C 724E/47F0 72FE 0479C 0469A 27972                       ELSE  BEGIN               Text mode...
1SAM      (SAM2193) (12:54) (15MAR04) Samson Interface Routines                                                             Page   71
0Current Usings:  (SAMWA,R6) (*,R7) (CP,R11) (CV,R12)
0Loc    Object Code    Addr1 Addr2  Stmt Lv Lineno    Source Statement           (Hibal 5, Asmedit 3.3)  HLASM R4.0  2004/03/15 12.54
+___    ______ ____    _____ _____  ____ __ ______    ______ _________
0                                  27983  1                      ¿þþþþþþþþþþþþþþþþþþþþþþþþþþþþþþþþþþþþþþþþÜ
                                   27984  1                      Ÿ  Seg end of previous line indication.  Ÿ
                                   27985  1                      ¾þþþþþþþþþþþþþþþþþþþþþþþþþþþþþþþþþþþþþþþþ»
 0047A0 9180 6005/47E0_00005       27986  1                      IF    SAMFWEOL,BEGIN      End of line needed...
 0047A8 1B22                       28001  2                        CLEAR R2                  Assume hard CR needed
 0047AA 9120 6006/47E0_00006       28005  2                        IF    SAMFSTRM,BEGIN      Write in STREAM format...
 0047B2 9180 6006/4710_00006       28020  3                          IF    SAMFTRAN,EXIT       Ignore STREAM if TRANSPARENT
 0047BA 9140 6005/47E0_00005       28038  3                          IF    (SAMFWTXT,AND,(SAMLINE,NE,' ')),'LA R2,1'
 0047CE                            28075  2                        END
                                   28079  2
 0047CE 1222/4780 7294_            28080  2                        IF    (R2,NZ),'SEG CVBLANKS,1'  Add a blank (soft CR)
 0047E6 9640 60DE      000DE       28128  2                        SET   SAMFCTRL
 0047EA 4110 79BC/4100_      04F0E 28134  2                        SETMSG '\;'                Assume hard CR
 0047F2 1222/4780 72AE_            28138  2                        IF    (R2,NZ),'SETMSG "\,"'  Soft CR
 004800 41F0 60E8/58E0_      000E8 28161  2                        SEG   (R1),(R0)           End of line terminator
 00480A 94BF 60DE      000DE       28184  2                        CLEAR SAMFCTRL
                                   28191  2
 00480E 943F 6005      00005       28192  2                        CLEAR SAMFWEOL+SAMFWTXT   Clear flags
                                   28202  2                        ¿þþþþþþþþþþþþþþþþþþþþþþþþþþþþþþþþþþþþþþþþþþþþþþþþÜ
                                   28203  2                        Ÿ  Write current packet out if it is too large.  Ÿ
                                   28204  2                        ¾þþþþþþþþþþþþþþþþþþþþþþþþþþþþþþþþþþþþþþþþþþþþþþþþ»
 004812 D503 60F4 BAA8_000F4 00AA8 28205  2                        IF    (SAMSGLENF,GT,CPSAMBUFF),BEGIN  Write the packet...
 00481C 58E0 7972/0DEE       04EC4 28223  3                          ACALL SEGTRAIL            Seg packet trailer
 004822 1B00/41F0 60E8_            28227  3                          SEGWR ,                   Write packet
 00482E 58E0 7962/0DEE       04EB4 28251  3                          ACALL SEGHEAD             Seg new packet header
 004834                            28255  2                        END
 004834                            28259  1                      END
                                   28263  1                      ¿þþþþþþþþþþþþþþþþþþþþþþþþÜ
                                   28264  1                      Ÿ  Write the line text.  Ÿ
                                   28265  1                      ¾þþþþþþþþþþþþþþþþþþþþþþþþ»
 004834 1814/1803/41F0_            28266  1                      SEG   (R4),(R3)           Line text
                                   28291  1
 004842 9680 6005      00005       28292  1                      SET   SAMFWEOL            Need to write line terminator
 004846 1233/4780 72FE_            28298  1                      IF    (R3,NZ),'SET SAMFWTXT'  This line had some text on it
 004850                            28323                       END
                                   28327
 004850 18D8/9808 D004_            28328              SAMWEXIT PEND
 DROP   SAMWA,R6
 DROP   *,R7
1SAM      (SAM2193) (12:54) (15MAR04) Samson Interface Routines                                                             Page   72
0Current Usings:  (CP,R11) (CV,R12)
0Loc    Object Code    Addr1 Addr2  Stmt Lv Lineno    Source Statement           (Hibal 5, Asmedit 3.3)  HLASM R4.0  2004/03/15 12.54
+___    ______ ____    _____ _____  ____ __ ______    ______ _________
0                                  28355              ¿þþþþþþþþþþþþþþþþþþþþþþþþþþþþþþþþþþþþþþþþþþþþþþþþþþþþþþþþþþþþþþþþþþþþþÜ
                                   28356              Ÿ                                                                     Ÿ
                                   28357              Ÿ  SAMCLOSE -- Routine to close a Samson file.                        Ÿ
                                   28358              Ÿ                                                                     Ÿ
                                   28359              Ÿ    On entry:                                                        Ÿ
                                   28360              Ÿ      FFINFO dsect contains information about the file.              Ÿ
                                   28361              Ÿ                                                                     Ÿ
                                                      ¾þþþþþþþþþþþþþþþþþþþþþþþþþþþþþþþþþþþþþþþþþþþþþþþþþþþþþþþþþþþþþþþþþþþþþ»
000485E 50E0 D000/9008_      00000 28362              SAMCLOSE XPROC
 USING  *,R7
 004878 5860 BE58            00E58 28402                       L     R6,CPDEVP           SAMWA ptr
 USING  SAMWA,R6                   28403                       WITH  (SAMWA,R6)
 00487C D502 76B0 6000_04F28 00000 28416                       FAIL  (SAMWA,NE,'SAM'),BADSAM,'Bad SAMWA ptr'
                                   28445                       ¿þþþþþþþþþþþþþþþþþþþþþþþþþÜ
                                   28446                       Ÿ  Fast ftp style close.  Ÿ
                                   28447                       ¾þþþþþþþþþþþþþþþþþþþþþþþþþ»
 00489E 9120 6004/47E0_00004       28448                       IF    SAMFFAST,BEGIN      Fast ftp style...
 0048A6 4DE0 7E00            05678 28463  1                      LCALL SNETCLS
 0048AA                            28465                       END
                                   28469                       ¿þþþþþþþþþþþþþþþþþþþþþþþþþþþþþþþþþþþþþþþþþþþþþÜ
                                   28470                       Ÿ  Write final write data packet (if write).  Ÿ
                                   28471                       ¾þþþþþþþþþþþþþþþþþþþþþþþþþþþþþþþþþþþþþþþþþþþþþ»
 0048AA 7036/47F0 70B0 048AA 048A4 28472                       ELSE  BEGIN               Regular style...
 0048AE 9180 6004/47E0_00004       28483  1                      IF    SAMFOPEN,BEGIN      File is open...
 0048B6 9140 6004/47E0_00004       28498  2                        IF    ~SAMFWRITE,EXIT     Not writing, scram
                                   28516  2
 0048BE 9180 6005/47E0_00005       28517  2                        IF    SAMFWEOL,BEGIN      End of line terminator needed...
 0048C6 9640 60DE      000DE       28532  3                          SET   SAMFCTRL
 0048CA 4110 7696/4100_      04F0E 28538  3                          SEG   '\;'                Always end with a HARD CR
 0048DC 94BF 60DE      000DE       28555  3                          CLEAR SAMFCTRL
 0048E0 943F 6005      00005       28562  3                          CLEAR SAMFWEOL+SAMFWTXT   Clear eol flags
                                   28572  3
 0048E4 D503 60F4 BAA8_000F4 00AA8 28573  3                          IF    (SAMSGLENF,GT,CPSAMBUFF),BEGIN  Write the packet...
 0048EE 58E0 764C/0DEE       04EC4 28591  4                            ACALL SEGTRAIL            Seg packet trailer
 0048F4 1B00/41F0 60E8_            28595  4                            SEGWR
 004900                            28619  3                          END
 004900                            28623  2                        END
                                   28627  2
 004900 D603 60F4 60F4_000F4 000F4 28628  2                        IF    (SAMSGLENF,Z),'ACALL SEGHEAD'  Packet header
                                   28653  2
 004910 58E0 7654/0DEE       04ECC 28654  2                        ACALL SEGEOD              End of file
                                   28658  2
 004916 58E0 764C/0DEE       04EC4 28659  2                        ACALL SEGTRAIL            Write packet trailer
 00491C 1B00/41F0 60E8_            28663  2                        SEGWR
 004928                            28687  1                      END
 004928                            28691                       END
                                   28695                       ¿þþþþþþþþþþþþþþþþþþþþþþþþþþþÜ
                                   28696                       Ÿ  Send path close packet.  Ÿ
                                   28697                       ¾þþþþþþþþþþþþþþþþþþþþþþþþþþþ»
 004928 947F 6004      00004       28698                       CLEAR SAMFOPEN            File is closed
                                   28705
 00492C D201 6124 769C 00124 04F14 28706                       MVC   SAMSCMD,=C'PC'      Path close
 004932 58E0 763C/0DEE       04EB4 28707                       ACALL SEGHEAD             Seg packet header
1SAM      (SAM2193) (12:54) (15MAR04) Samson Interface Routines                                                             Page   73
0Current Usings:  (SAMWA,R6) (*,R7) (CP,R11) (CV,R12)
0Loc    Object Code    Addr1 Addr2  Stmt Lv Lineno    Source Statement           (Hibal 5, Asmedit 3.3)  HLASM R4.0  2004/03/15 12.54
+___    ______ ____    _____ _____  ____ __ ______    ______ _________
0004938 58E0 764C/0DEE       04EC4 28711                       ACALL SEGTRAIL            Seg packet trailer
 00493E 1B00/41F0 60E8_            28715                       SEGWR
                                   28739                       ¿þþþþþþþþþþþþþþþþþþþþþþþþþþþþþþÜ
                                   28740                       Ÿ  Release SAMWA if possible.  Ÿ
                                   28741                       ¾þþþþþþþþþþþþþþþþþþþþþþþþþþþþþþ»
 00494A D202 6000 7700 00000 04F78 28742                       MVC   SAMWA(3),=C'OSM'    Invalidate SAMWA
 004950 D703 BE58 BE58 00E58 00E58 28743                       CLEAR CPDEVP
 004956 58E0 7658/0DEE       04ED0 28750                       VCALL MARKHEAP            Get current heap ptr
 00495C 59F0 60B8/4770_      000B8 28754                       IF    (R15,EQ,SAMNHEAP),BEGIN  We can reduce the heap...
 004964 58F0 60B4            000B4 28771  1                      L     R15,SAMOHEAP
 004968 58E0 765C/0DEE       04ED4 28772  1                      VCALL RELHEAP             Release SAMWA
 00496E                            28776                       END
                                   28780
 00496E 18D8/9808 D004_            28781                       PEND
 DROP   SAMWA,R6
 DROP   *,R7
1SAM      (SAM2193) (12:54) (15MAR04) Samson Interface Routines                                                             Page   74
0Current Usings:  (CP,R11) (CV,R12)
0Loc    Object Code    Addr1 Addr2  Stmt Lv Lineno    Source Statement           (Hibal 5, Asmedit 3.3)  HLASM R4.0  2004/03/15 12.54
+___    ______ ____    _____ _____  ____ __ ______    ______ _________
0                                  28807              ¿þþþþþþþþþþþþþþþþþþþþþþþþþþþþþþþþþþþþþþþþþþþþþþþþþþþþþþþþþþþþþþþþþþþþþÜ
                                   28808              Ÿ                                                                     Ÿ
                                   28809              Ÿ  SAMDIALG -- Routine to send a Samson dialog packet and             Ÿ
                                   28810              Ÿ    return the reply.                                                Ÿ
                                   28811              Ÿ                                                                     Ÿ
                                   28812              Ÿ    On entry:                                                        Ÿ
                                   28813              Ÿ       @R1 - SAMDPARM ptr                                            Ÿ
                                   28814              Ÿ                                                                     Ÿ
                                   28815              Ÿ    On exit, R15 (and cc):                                           Ÿ
                                   28816              Ÿ       0 - OK;      R1,R0 - returned data loc, len                   Ÿ
                                   28817              Ÿ      nz - trouble; R1,R0 - error message                            Ÿ
                                   28818              Ÿ                                                                     Ÿ
                                                      ¾þþþþþþþþþþþþþþþþþþþþþþþþþþþþþþþþþþþþþþþþþþþþþþþþþþþþþþþþþþþþþþþþþþþþþ»
0000000                00000 00040 28819              SAMDPWA  RECORD BEGIN
 000000                            28827  1           SAMDPTYP   DS    2A                  Type text len, loc
 000008                            28828  1           SAMDPMSG   DS    2A                  Message text len, loc
 000010                            28829  1           SAMDPPRM   DS    2A                  Prompt text len, loc
 000018                            28830  1           SAMDPOPT   DS    2A                  Option text len, loc
 000020                            28831  1           SAMDPRCD   DS    2A                  Return code area len, loc
 000028                            28832  1           SAMDPRTX   DS    2A                  Return text area len, len
                                   28833  1           SAMDPARM   EQU   SAMDPTYP,*-SAMDPTYP,C'X'
                                   28834  1
 000030                            28835  1           SAMDXRC    DS    2A                  Actual return code ptrs
 000038                            28836  1           SAMDXRT    DS    2A                  Actual return text ptrs
 000040                00040 00040 28837                       END
                                   28846              þþþþ
 00497C 50E0 D000/9008_      00000 28847              SAMDIALG XPROC SAMDPWA
 USING  *,R7
 USING  SAMDPWA-(4+36),R8
 004996 4150 8028            00000 28898                       LA    R5,SAMDPWA
 USING  SAMDPWA,R5                 28899                       USING SAMDPWA,R5
 00499A D73F 5000 5000 00000 00000 28908                       CLEAR SAMDPWA
                                   28915
 0049A0 D22F 5000 1000 00000 00000 28916                       MVC   SAMDPARM,@R1        Save parameters
                                   28917                       ¿þþþþþþþþþþþþþþþþþþþþþþþþþþþþþþþþþþþþþþÜ
                                   28918                       Ÿ  Must be at least dialog version 2.  Ÿ
                                   28919                       ¾þþþþþþþþþþþþþþþþþþþþþþþþþþþþþþþþþþþþþþ»
 0049A6 D501 7576 BAA4_04F0C 00AA4 28920                       IF    (CPSAMDV,LT,2),BEGIN  Non-samson or early Samson...
 0049B0 4110 75E5/4100_      04F7B 28938  1                      SETMSG 'NOT SUPPORTED'
 0049B8 41F0 0001            00001 28942  1                      LA    R15,1
 0049BC 47F0 7204            04B9A 28943  1                      B     SAMDIXIT
 0049C0                            28944                       END
                                   28948                       ¿þþþþþþþþþþþþþþþþþþþþþþþþþþþþþþþþþþþÜ
                                   28949                       Ÿ  Format a Samson dialog request.  Ÿ
                                   28950                       ¾þþþþþþþþþþþþþþþþþþþþþþþþþþþþþþþþþþþ»
 0049C0 58E0 753A/0DEE       04ED0 28951                       VCALL MARKHEAP            Get current heap ptr
 0049C6 182F                       28955                       LR    R2,R15
                                   28956
 0049C8 4800 7580            04F16 28957                       LH    R0,=AL2(L'SAMWA)
 0049CC 58E0 7542/0DEE       04ED8 28958                       VCALL GETHEAP             Get work area
 0049D2 5010 BE58            00E58 28962                       ST    R1,CPDEVP
 0049D6 1861                       28963                       LR    R6,R1
 USING  SAMWA,R6                   28964                       WITH  (SAMWA,R6)
1SAM      (SAM2193) (12:54) (15MAR04) Samson Interface Routines                                                             Page   75
0Current Usings:  (SAMDPWA,R5) (SAMWA,R6) (*,R7) (SAMDPWA-(4+36),R8) (CP,R11) (CV,R12)
0Loc    Object Code    Addr1 Addr2  Stmt Lv Lineno    Source Statement           (Hibal 5, Asmedit 3.3)  HLASM R4.0  2004/03/15 12.54
+___    ______ ____    _____ _____  ____ __ ______    ______ _________
00049D8 D7FF 6004 6004_00004 00004 28977                       CLEAR SAMCLEAR
 0049E4 D202 6000 7592 00000 04F28 28985                       MVC   SAMWA(3),=C'SAM'    Id
                                   28986
 0049EA 5020 60B4            000B4 28987                       ST    R2,SAMOHEAP         Save old heap ptr
 0049EE 58E0 753A/0DEE       04ED0 28988                       VCALL MARKHEAP            Get current heap ptr
 0049F4 50F0 60B8            000B8 28992                       ST    R15,SAMNHEAP        Save new heap ptr
                                   28993
 0049F8 4110 6ACC/4100_      00ACC 28994                       SEGINIT SAMWRBUF,,SAMSG,RTN=SAMSEG
                                   29036
 004A18 4110 6000            00000 29037                       LA    R1,SAMWA
 004A1C 4A10 7582            04F18 29038                       AH    R1,=AL2(SAMINBUF-SAMWA)
 004A20 4800 7584            04F1A 29039                       LH    R0,=AL2(L'SAMINBUF)
 004A24 41F0 6190/58E0_      00190 29040                       SEGINIT (R1),(R0),.SAMINSG  Initialize input seg buffer
                                   29063                       ¿þþþþþþþþþþþþþþþþþþþþþþþþþþþÜ
                                   29064                       Ÿ  Send dialog parameters.  Ÿ
                                   29065                       ¾þþþþþþþþþþþþþþþþþþþþþþþþþþþ»
 004A2E D201 6124 7586 00124 04F1C 29066                       MVC   SAMSCMD,=C'DP'      Dialog parameters
                                   29067                       ¿þþþþþþþþþþþþþþþþþþþþþþþþþþþþþþþþþþþþþþþþþþþþþþþþþþþþþþþþþþþþÜ
                                   29068                       Ÿ  Version 1 CRC calculation was not correct, so we can not  Ÿ
                                   29069                       Ÿ    request it.                                             Ÿ
                                   29070                       ¾þþþþþþþþþþþþþþþþþþþþþþþþþþþþþþþþþþþþþþþþþþþþþþþþþþþþþþþþþþþþ»
 004A34 D501 7576 BA94_04F0C 00A94 29071                       IF    (CPSAMPRO,LT,2),BEGIN  No CRC in version 1...
 004A3E 94FB BA22      00A22       29089  1                      CLEAR CPSAMFPCK           Version 1 can not do packed
 004A42 94FE BA22      00A22       29096  1                      CLEAR CPSAMFCRC           Version 1 can not do CRC
 004A46                            29103                       END
                                   29107
 004A46 58E0 751E/0DEE       04EB4 29108                       ACALL SEGHEAD             Seg packet header
                                   29112
 004A4C 4110 75F2/4100_      04F88 29113                       SEG   'TYPE='
 004A5E 9801 5000            00000 29130                       LM    R0,R1,SAMDPTYP      Dialog type
 004A62 41F0 60E8/58E0_      000E8 29131                       SEG   (R1),(R0)
 004A6C 58E0 7552/0DEE       04EE8 29154                       ACALL SEGSEP
                                   29158
 004A72 4110 74EA/4100_      04E80 29159                       SEG   'MESSAGE='
 004A84 9801 5008            00008 29176                       LM    R0,R1,SAMDPMSG      Message text
 004A88 41F0 60E8/58E0_      000E8 29177                       SEG   (R1),(R0)
 004A92 58E0 7552/0DEE       04EE8 29200                       ACALL SEGSEP
                                   29204
 004A98 4110 75F7/4100_      04F8D 29205                       SEG   'PROMPT='
 004AAA 9801 5010            00010 29222                       LM    R0,R1,SAMDPPRM      Prompt text
 004AAE 41F0 60E8/58E0_      000E8 29223                       SEG   (R1),(R0)
 004AB8 58E0 7552/0DEE       04EE8 29246                       ACALL SEGSEP
                                   29250
 004ABE 4110 74F2/4100_      04E88 29251                       SEG   'OPTIONS='
 004AD0 9801 5018            00018 29268                       LM    R0,R1,SAMDPOPT      Options text
 004AD4 41F0 60E8/58E0_      000E8 29269                       SEG   (R1),(R0)
 004ADE 58E0 7552/0DEE       04EE8 29292                       ACALL SEGSEP
                                   29296
 004AE4 58E0 7536/0DEE       04ECC 29297                       ACALL SEGEOD
 004AEA 58E0 752E/0DEE       04EC4 29301                       ACALL SEGTRAIL            Seg packet trailer
 004AF0 1B00/41F0 60E8_            29305                       SEGWR
1SAM      (SAM2193) (12:54) (15MAR04) Samson Interface Routines                                                             Page   76
0Current Usings:  (SAMDPWA,R5) (SAMWA,R6) (*,R7) (SAMDPWA-(4+36),R8) (CP,R11) (CV,R12)
0Loc    Object Code    Addr1 Addr2  Stmt Lv Lineno    Source Statement           (Hibal 5, Asmedit 3.3)  HLASM R4.0  2004/03/15 12.54
+___    ______ ____    _____ _____  ____ __ ______    ______ _________
0                                  29329                       ¿þþþþþþþþþþþþþþþþþþþþþÜ
                                   29330                       Ÿ  Process response.  Ÿ
                                   29331                       ¾þþþþþþþþþþþþþþþþþþþþþ»
 004AFC D601 6138 6138_00138 00138 29332                       IF    (SAMRDLEN,NZ),BEGIN  Process response...
 004B06                            29348  1                      LOOP  BEGIN
 004B06 58E0 74FA/0DEE       04E90 29354  2                        ACALL INLINE              Get enviornment options
 004B0C 4770 71E0            04B76 29358  2                        IF    NZ,EXIT             Nothing left, scram
                                   29372  2
 004B10 58E0 B08C/501E_      0008C 29373  2                        SCINIT (R1),(R0)
 004B1E 5810 B08C/1B00_      0008C 29393  2                        SCAN  SAMDIPRT            Process dialog info returned
 004B70 1BFF                       29425  2                        CLEAR R15                 Ignore errors
 004B72 47F0 7170            04B06 29429  1                      END
 004B76                            29434                       END
                                   29438
 004B76 41F0 0002            00002 29439                       LA    R15,2               Assume error
 004B7A 9801 5030            00030 29440                       LM    R0,R1,SAMDXRC       Error code string ptr
                                   29441
 004B7E 5900 7522/4770_      04EB8 29442                       IF    ((R0,EQ,2),AND,(@R1,EQ,'OK')),BEGIN
 004B90 1BFF                       29474  1                      CLEAR R15                 A-ok
 004B92 9801 5038            00038 29478  1                      LM    R0,R1,SAMDXRT       Return code text ptr
 004B96                            29479                       END
                                   29483
 004B96 47F0 7204            04B9A 29484                       B     SAMDIXIT            Return
                                   29485              *
                                   29486              *
 004B9A 9001 8004            00004 29487              SAMDIXIT PRETURN (R0,R1)           Return string ptrs
 004B9E 18D8/9808 D004_            29489                       PEND
 DROP   SAMWA,R6
 DROP   SAMDPWA-(4+36),R8
 DROP   *,R7
                                   29519                       ¿þþþþþþþþþþþþþþþþþþþþþþþþþþþþþþþþÜ
                                   29520                       Ÿ  Returned DIALOG information.  Ÿ
                                   29521                       ¾þþþþþþþþþþþþþþþþþþþþþþþþþþþþþþþþ»
 004BAC D9C3404040404040_          29522              SAMDIPRT SCKW  RC,SAMDIRC
 004BD4 E3C5E7E340404040_          29537                       SCKW  TEXT,SAMDITX
 004BFC 4040404040404040_          29552                       SCKW  ,V(SCNNOOP)
                                   29567              *
                                   29568              *
 004C24 50E0 D000/9008_      00000 29569              SAMDIRC  PROC
 USING  *,R7
 004C3E 58E0 B08C/581E_      0008C 29608                       SCINFO
 004C4C 58E0 72B6/0DEE       04EF4 29617                       ACALL SAMTRIM
 004C52 9823 5020            00020 29621                       LM    R2,R3,SAMDPRCD      Return code area
 004C56 18F0                       29622                       LR    R15,R0
 004C58 19F2/47D0 7022_            29623                       CEIL  R15,R2
 004C60 06F0/12FF/4740_            29629                       MOVE  R15,@R3,@R1         Save return code text
 004C6C 1813                       29667                       LR    R1,R3
 004C6E 9001 5030            00030 29668                       STM   R0,R1,SAMDXRC       Save return code ptrs
 004C72 41F0 0004            00004 29669                       LA    R15,4
 004C76 18D8/9808 D004_            29670                       PEND
 DROP   *,R7
                                   29690              *
                                   29691              *
 004C84 50E0 D000/9008_      00000 29692              SAMDITX  PROC  ,
1SAM      (SAM2193) (12:54) (15MAR04) Samson Interface Routines                                                             Page   77
0Current Usings:  (SAMDPWA,R5) (*,R7) (CP,R11) (CV,R12)
0Loc    Object Code    Addr1 Addr2  Stmt Lv Lineno    Source Statement           (Hibal 5, Asmedit 3.3)  HLASM R4.0  2004/03/15 12.54
+___    ______ ____    _____ _____  ____ __ ______    ______ _________
0USING  *,R7
 004C9E 58E0 B08C/581E_      0008C 29731                       SCINFO
 004CAC 58E0 7256/0DEE       04EF4 29740                       ACALL SAMTRIM
 004CB2 9823 5028            00028 29744                       LM    R2,R3,SAMDPRTX      Return code area
 004CB6 18F0                       29745                       LR    R15,R0
 004CB8 19F2/47D0 7022_            29746                       CEIL  R15,R2
 004CC0 06F0/12FF/4740_            29752                       MOVE  R15,@R3,@R1         Save return code text
 004CCC 1813                       29790                       LR    R1,R3
 004CCE 9001 5038            00038 29791                       STM   R0,R1,SAMDXRT       Save return code ptrs
 004CD2 41F0 0004            00004 29792                       LA    R15,4
 004CD6 18D8/9808 D004_            29793                       PEND
 DROP   *,R7
                                   29813
 DROP   SAMDPWA,R5                 29814                       DROP  R5
1SAM      (SAM2193) (12:54) (15MAR04) Samson Interface Routines                                                             Page   78
0Current Usings:  (CP,R11) (CV,R12)
0Loc    Object Code    Addr1 Addr2  Stmt Lv Lineno    Source Statement           (Hibal 5, Asmedit 3.3)  HLASM R4.0  2004/03/15 12.54
+___    ______ ____    _____ _____  ____ __ ______    ______ _________
0                                  29822              ¿þþþþþþþþþþþþþþþþþþþþþþþþþþþþþþþþþþþþþþþþþþþþþþþþþþþþþþþþþþþþþþþþþþþþþÜ
                                   29823              Ÿ                                                                     Ÿ
                                   29824              Ÿ  SAMECHO -- Routine to send a Samson echo packet and return         Ÿ
                                   29825              Ÿ    the reply.                                                       Ÿ
                                   29826              Ÿ                                                                     Ÿ
                                   29827              Ÿ    On entry:                                                        Ÿ
                                   29828              Ÿ      R1,R0 - location, length of text to send (in ASCII)            Ÿ
                                   29829              Ÿ                                                                     Ÿ
                                   29830              Ÿ    On exit, R15 (and cc):                                           Ÿ
                                   29831              Ÿ       0 - OK; R1,R0 - returned data loc, len                        Ÿ
                                   29832              Ÿ      nz - trouble                                                   Ÿ
                                   29833              Ÿ                                                                     Ÿ
                                                      ¾þþþþþþþþþþþþþþþþþþþþþþþþþþþþþþþþþþþþþþþþþþþþþþþþþþþþþþþþþþþþþþþþþþþþþ»
0000000                00000 0000E 29834              SECHWA   RECORD BEGIN
 000000                            29842  1           SECHTRM    DS    XL(L'CPTRM)         Saved CPTRM flags
 00000E                0000E 0000E 29843                       END
                                   29852              þþþþ
 004CE4 50E0 D000/9008_      00000 29853              SAMECHO  XPROC SECHWA
 USING  *,R7
 USING  SECHWA-(4+36),R8
 004CFE 1851                       29904                       LR    R5,R1               Data loc ptr
 004D00 1840                       29905                       LR    R4,R0               Data len
                                   29906
 004D02 41F0 B050/58E0_      00050 29907                       TCLEAR
 004D0C D20D 8028 BC7A 00000 00C7A 29921                       MVC   SECHTRM,CPTRM       Save terminal I/O options
 004D12 D70D BC7A BC7A 00C7A 00C7A 29922                       CLEAR CPTRM               Set our options
 004D18 9680 BC7C/9610_00C7C       29929                       SET   CPFTRAN,CPFNMOD,CPFNONL,CPFNTYPE
 004D28 9680 BC7B/9640_00C7B       29947                       SET   CPFCLEAN,CPFNECHO,CPFNPAU
 004D34 D201 BC80 7224 00C80 04F22 29961                       MVC   CPTRMIN,=H'256'     Maximum amount of terminal input
                                   29962                       ¿þþþþþþþþþþþþþþþþþþþþþþþþþþþþþþþþþþþþþþþþþþþþþþþþþþþþþÜ
                                   29963                       Ÿ  Try to send the echo packet and get the response.  Ÿ
                                   29964                       ¾þþþþþþþþþþþþþþþþþþþþþþþþþþþþþþþþþþþþþþþþþþþþþþþþþþþþþ»
 004D3A 4130 0003            00003 29965                       LA    R3,3                Maximum loop count
 004D3E 1233/47D0 70DA             29966                       WHILE (R3,POS),BEGIN      Retry 3 times...
 004D44 4110 7296/4100_      04F94 29982  1                      TSEG  X'1B5C5C4545'       Echo packet (<esc>\\EE)
                                   30000  1
 004D56 1815/1804/41F0_            30001  1                      TSEG  (R5),(R4)           Echo data
 004D64 4110 729B/4100_      04F99 30027  1                      TSEG  X'0D'               End of packet (CR)
 004D76 41F0 B050/58E0_      00050 30045  1                      TMARK
                                   30059  1
 004D80 1BFF                       30060  1                      CLEAR R15                 Output buffer
 004D82 5810 B070/5800_      00070 30064  1                      SETMSG L:CPSEGLOC,L:CPSEGLENF  Output packet
 004D8A 58E0 7202/0DEE       04F00 30076  1                      ACALL SAMTRC              Save buffer for trace
                                   30080  1                      ¿þþþþþþþþþþþþþþþþþþþþþþÜ
                                   30081  1                      Ÿ  Get echo response.  Ÿ
                                   30082  1                      ¾þþþþþþþþþþþþþþþþþþþþþþ»
 004D90 1B00/41F0 03E8_            30083  1                      TREAD TIMEOUT=1000        Read and timeout in 10 secs
 004D9C 4740 70F4            04DF2 30100  1                      BM    SECHEXIT            Trouble, scram
                                   30101  1
 004DA0 90F1 D000/41D0_      00000 30102  1                      XPUSH R15,R1
 004DA8 41F0 0001            00001 30105  1                      LA    R15,1               Input buffer
 004DAC 58E0 7202/0DEE       04F00 30106  1                      ACALL SAMTRC              Save buffer for trace
 004DB2 4BD0 7226/98F1_      04F24 30110  1                      XPOP  R15,R1
1SAM      (SAM2193) (12:54) (15MAR04) Samson Interface Routines                                                             Page   79
0Current Usings:  (*,R7) (SECHWA-(4+36),R8) (CP,R11) (CV,R12)
0Loc    Object Code    Addr1 Addr2  Stmt Lv Lineno    Source Statement           (Hibal 5, Asmedit 3.3)  HLASM R4.0  2004/03/15 12.54
+___    ______ ____    _____ _____  ____ __ ______    ______ _________
0                                  30113  1
 004DBA 5900 720A/4750_      04F08 30114  1                      IF    (R0,GE,6),BEGIN     Long enough to be valid...
 004DC2 D404 1000 729C 00000 04F9A 30131  2                        NC    @R1(5),=5X'7F'      Turn of MSB
 004DC8 D504 7296 1000_04F94 00000 30132  2                        IF    (@R1,EQ,=X'1B5C5C4545'),SECHRESP  We have a response
 004DD2                            30151  1                      END
                                   30155  1
 004DD2 0630                       30156  1                      DECR  R3                  Countdown retries
 004DD4 47F0 7040            04D3E 30158                       END
                                   30163
 004DD8 1B00/1B11                  30164                       CLEAR R0,R1               Nothing
 004DDC 41F0 03E7            003E7 30170                       LA    R15,999             Couldn't get a response RC
 004DE0 47F0 70F4            04DF2 30171                       B     SECHEXIT            Scram
                                   30172                       ¿þþþþþþþþþþþþþþþþþþþþþþþþÜ
                                   30173                       Ÿ  Check echo response.  Ÿ
                                   30174                       ¾þþþþþþþþþþþþþþþþþþþþþþþþ»
 004DE4 4110 1005            00005 30175              SECHRESP LA    R1,@R1+5            Skip over "<esc>\\EE"
 004DE8 4B00 7228            04F26 30176                       SH    R0,=H'5'            Keep length accurate
 004DEC 47D0 70F4/0600       04DF2 30177                       IF    POS,'DECR R0'       Take off trailing CR
                                   30195
 004DF2 D20D BC7A 8028 00C7A 00000 30196              SECHEXIT MVC   CPTRM,SECHTRM       Restore terminal I/O opts
 004DF8 9001 8004            00004 30197                       PRETURN (R0,R1)           Return echoed data ptrs
 004DFC 18D8/9808 D004_            30199                       PEND
 DROP   SECHWA-(4+36),R8
 DROP   *,R7
                                   30224
                                   30225                       QLTORG
1SAM      (SAM2193) (12:54) (15MAR04) Samson Interface Routines                                                             Page   80
0Current Usings:  (CP,R11) (CV,R12)
0Loc    Object Code    Addr1 Addr2  Stmt Lv Lineno    Source Statement           (Hibal 5, Asmedit 3.3)  HLASM R4.0  2004/03/15 12.54
+___    ______ ____    _____ _____  ____ __ ______    ______ _________
0                                  30300              *
                                   30301              *  RESOLVE SAMSON NAME
                                   30302              *
                                   30303              *  PROCESS FILE NAME IN FFNAME IN FFINFO DSECT
                                   30304              *  WE HAVE A FEW SIMPLE RULES (COMPARED TO IBM FILES):
                                   30305              *    IF QUOTED, WE UNQUOTE.
                                   30306              *    IF '*', WE EXPAND.
                                   30307              *    IF VOLUME NAME IN FFHOST, PREPEND TO FILE NAME.
                                   30308              *
                                   30309              *  NOTE:
                                   30310              *  CANONICAL FILE SAMSON FILE NAME INCLUDES <VOL>: PREFIX.
                                   30311              *
                                   30312              *  NOTE/CAUTION:
                                   30313              *  'C:*' AND '* ON C' ARE NOT VALID FILE NAMES.
                                   30314              *
 000000                00000 00110 30315              SMRWA    RECORD BEGIN
 000000                            30323  1           SMRNAME    DS    XL(L'FFHOST+L'FFNAME+16)
 000110                00110 00110 30324                       END
                                   30333              *
                                   30334              *
 004FB2 50E0 D000/9008_      00000 30335              SAMRESLV XPROC SMRWA
 USING  *,R7
 USING  SMRWA-(4+36),R8
 004FCC 1861                       30386                       LR    R6,R1
 USING  FFINFO,R6                  30387                       WITH  (FFINFO,R6)
                                   30400
                                   30401                       COMMENT                   NORMAL RESOLVED NAME IS FNAME
 004FCE 5820 6008            00008 30402                       L     R2,FFNAMEL
 004FD2 5020 6214            00214 30403                       ST    R2,FFRNAMEL
 004FD6 0620/1222/4740_            30404                       MOVE  R2,FFRNAME,FFNAME
                                   30442
                                   30443                       COMMENT                   IF VOLUME, PREPEND
                                   30444                       COMMENT ,                  (E.G. C:FILENAME)
 004FE2 D603 608C 608C_0008C 0008C 30445                       IF    (FFHOSTL,NZ),BEGIN
 004FEC 4110 8028            00000 30461  1                      LA    R1,SMRNAME          BUILD NAME IN SMRNAME
 004FF0 5820 608C            0008C 30462  1                      L     R2,FFHOSTL
 004FF4 0620/1222/4740_            30463  1                      MOVE  R2,@R1,FFHOST
 005000 5A10 608C            0008C 30501  1                      A     R1,FFHOSTL
 005004 927A 1000      00000       30502  1                      MVI   @R1,C':'
 005008 5E10 7A9C            05A68 30503  1                      INCR  R1
 00500C 5820 6008            00008 30506  1                      L     R2,FFNAMEL
 005010 0620/1222/4740_            30507  1                      MOVE  R2,@R1,FFNAME
 00501C 5820 608C            0008C 30545  1                      L     R2,FFHOSTL          CALC NEW NAME LENGTH
 005020 5A20 6008            00008 30546  1                      A     R2,FFNAMEL
 005024 5E20 7A9C            05A68 30547  1                      INCR  R2
 005028 5920 7AA0/47D0_      05A6C 30550  1                      CEIL  R2,L'FFRNAME
 005034 5020 6214            00214 30569  1                      ST    R2,FFRNAMEL         MOVE NAME INTO FFRNAME
 005038 0620/1222/4740_            30570  1                      MOVE  R2,FFRNAME,SMRNAME
 005044                            30608                       END
                                   30612
                                   30613                       COMMENT                   IF *, EXPAND FILE NAME, AND
                                   30614                       COMMENT                     HOST NAME TOO IF NEEDED
 005044 4110 600C/5800_      0000C 30615                       SETMSG FFNAME,L:FFNAMEL
 00504C 5900 7A9C/4770_      05A68 30629                       IF    ((R0,EQ,1),AND,(@R1,EQ,'*')),BEGIN
1SAM      (SAM2193) (12:54) (15MAR04) Samson Interface Routines                                                             Page   81
0Current Usings:  (FFINFO,R6) (*,R7) (SMRWA-(4+36),R8) (CP,R11) (CV,R12)
0Loc    Object Code    Addr1 Addr2  Stmt Lv Lineno    Source Statement           (Hibal 5, Asmedit 3.3)  HLASM R4.0  2004/03/15 12.54
+___    ______ ____    _____ _____  ____ __ ______    ______ _________
000505C 5820 6298            00298 30661  1                      L     R2,FFPNAMEL
 005060 5020 6214            00214 30662  1                      ST    R2,FFRNAMEL
 005064 0620/1222/4740_            30663  1                      MOVE  R2,FFRNAME,FFPNAME
 005070                            30701                       END
                                   30705
                                   30706                       COMMENT                   IF QUOTED
 005070 4110 600C/5800_      0000C 30707                       SETMSG FFNAME,L:FFNAMEL
 005078 1200/47D0 70DC             30721                       IF    (R0,POS),BEGIN
 00507E 957D 1000/4780_00000       30735  1                      IF    ((@R1,EQ,''''),OR,(@R1,EQ,'"')),BEGIN
 00508E 5E10 7A9C            05A68 30766  2                        INCR  R1
 005092 0600                       30769  2                        DECR  R0
 005094 0600                       30771  2                        DECR  R0
 005096 5000 6214            00214 30773  2                        ST    R0,FFRNAMEL
 00509A 1820                       30774  2                        LR    R2,R0
 00509C 0620/1222/4740_            30775  2                        MOVE  R2,FFRNAME,@R1
 0050A8                            30813  1                      END
 0050A8                            30817                       END
                                   30821
 0050A8 18D8/9808 D004_            30822                       PEND
 DROP   FFINFO,R6
 DROP   SMRWA-(4+36),R8
 DROP   *,R7
1SAM      (SAM2193) (12:54) (15MAR04) Samson Interface Routines                                                             Page   82
0Current Usings:  (CP,R11) (CV,R12)
0Loc    Object Code    Addr1 Addr2  Stmt Lv Lineno    Source Statement           (Hibal 5, Asmedit 3.3)  HLASM R4.0  2004/03/15 12.54
+___    ______ ____    _____ _____  ____ __ ______    ______ _________
0                                  30853              *
                                   30854              *  SET FNAME
                                   30855              *
                                   30856              *  USE RESOLVED FILE NAME. SET VALUE IN SAMWA DSECT.
                                   30857              *
                                   30858              *  NOTE/CAUTION !
                                   30859              *  SET FNAME USES RESOLVED FORM OF SAM FILE NAME SO
                                   30860              *  NAME RESOLVE MUST BE CALLED PRIOR TO THIS CALL.
                                   30861              *  WOULD IT NOT BE BETTER JUST TO ISSUE NRESOLVE CALL
                                   30862              *  FROM THIS ROUTINE.  BE BETTER TO BUNDLE THEM UP
                                   30863              *  TOGETHER. ??
                                   30864              *
                                   30865              *
 0050B6 50E0 D000/9008_      00000 30866              SETFNAME PROC
 USING  *,R7
 0050D0 5860 BE54            00E54 30905                       L     R6,CPFINFOP
 USING  FFINFO,R6                  30906                       WITH  (FFINFO,R6)
 0050D4 5850 BE58            00E58 30919                       L     R5,CPDEVP
 USING  SAMWA,R5                   30920                       WITH  (SAMWA,R5)
                                   30933
 0050D8 5820 6214            00214 30934                       L     R2,FFRNAMEL
 0050DC 5020 5008            00008 30935                       ST    R2,SAMFNAMEL
 0050E0 0620/1222/4740_            30936                       MOVE  R2,SAMFNAME,FFRNAME
                                   30974
 0050EC 18D8/9808 D004_            30975                       PEND
 DROP   SAMWA,R5
 DROP   FFINFO,R6
 DROP   *,R7
1SAM      (SAM2193) (12:54) (15MAR04) Samson Interface Routines                                                             Page   83
0Current Usings:  (CP,R11) (CV,R12)
0Loc    Object Code    Addr1 Addr2  Stmt Lv Lineno    Source Statement           (Hibal 5, Asmedit 3.3)  HLASM R4.0  2004/03/15 12.54
+___    ______ ____    _____ _____  ____ __ ______    ______ _________
0                                  31006              ¿þþþþþþþþþþþþþþþþþþþþþþþþþþþþþþþþþþþþþþþþþþþþþþþþþþþþþþþþþþþþþþþþþþþþþÜ
                                   31007              Ÿ                                                                     Ÿ
                                   31008              Ÿ  SNETOPEN -- Routine to open a fast ftp network connection.         Ÿ
                                   31009              Ÿ    Called from SAMOPEN.                                             Ÿ
                                   31010              Ÿ                                                                     Ÿ
                                                      ¾þþþþþþþþþþþþþþþþþþþþþþþþþþþþþþþþþþþþþþþþþþþþþþþþþþþþþþþþþþþþþþþþþþþþþ»
00050FA 50E0 D000/9008_      00000 31011              SNETOPEN PROC
 USING  *,R7
 USING  SAMWA,R6                   31050                       WITH  (SAMWA,R6)          Entry assumption
                                   31063
 005114 41F0 0002            00002 31064                       LA    R15,2
 005118 4110 786C/4100_      05980 31065                       SETMSG '[Opening direct TCP connection.]'
 005120 58E0 795C/0DEE       05A70 31069                       ACALL SAMTRC              Save buffer for trace
                                   31073
 005126 1B00                       31074                       CLEAR R0                  User UNET
 005128 58E0 7960/0DEE       05A74 31078                       VCALL NPATALLO            Allocate network path
 00512E 4770 71D0            052E4 31082                       BNZ   SNOPNERR            Trouble, scram
 005132 5010 618C            0018C 31083                       ST    R1,SAMUNET          Save UNET ptr
                                   31084
 005136 1851                       31085                       LR    R5,R1
 USING  UNET,R5                    31086                       WITH  (UNET,R5)
 005138 D24F 517C 613A 0017C 0013A 31099                       MVC   UNETRNAME,SAMRNAME  Set remote host IP addr
 00513E 41F0 5000            00000 31100                       LA    R15,UNET
 005142 58E0 7964/0DEE       05A78 31101                       VCALL NPATOPEN            Passive open of network path
 005148 4770 71D0            052E4 31105                       BNZ   SNOPNERR            Trouble, scram
                                   31106                       ¿þþþþþþþþþþþþþþþþþþþþþþþþþþþþþþþþþþþþþþÜ
                                   31107                       Ÿ  Initialize encryption information.  Ÿ
                                   31108                       ¾þþþþþþþþþþþþþþþþþþþþþþþþþþþþþþþþþþþþþþ»
 00514C D61F 60BC 60BC_000BC 000BC 31109                       IF    (SAMSEED,NZ),BEGIN  Do encryption...
 005156 9104 B47D/4710_0047D       31125  1                      IF    CPGFSAMNFTPCRYPT,EXIT  Skip crypt, even if requested
                                   31143  1
 00515E 4110 60BC            000BC 31144  1                      LA    R1,SAMSEED
 005162 4120 507C            0007C 31145  1                      LA    R2,UNETINCRYPT
 005166 58E0 7968/0DEE       05A7C 31146  1                      VCALL SETSCKEY            Initialize input encryption
                                   31150  1
 00516C 4110 60BC            000BC 31151  1                      LA    R1,SAMSEED
 005170 4120 50BC            000BC 31152  1                      LA    R2,UNETOUTCRYPT
 005174 58E0 7968/0DEE       05A7C 31153  1                      VCALL SETSCKEY            Initialize output encryption
                                   31157  1
 00517A 9680 502D      0002D       31158  1                      SET   UNETFCRYPT          Encryption/decryption now needed
 00517E                            31164                       END
                                   31168                       ¿þþþþþþþþþþþþþþþþþþþþþþþþþþþþþþþþþþþþþþþþþþþþþþþþþþþþþþþþþþÜ
                                   31169                       Ÿ  Set appropriate NPATREAD options based on our options.  Ÿ
                                   31170                       ¾þþþþþþþþþþþþþþþþþþþþþþþþþþþþþþþþþþþþþþþþþþþþþþþþþþþþþþþþþþ»
 00517E 9110 6004/47E0_00004       31171                       IF    SAMFASCII8,'SET UNETFASCII8'  Set corresponding flag
 00518A 9120 6007/4710_00007       31197                       IF    (SAMFTABS,OR,SAMFUFMT),'SET UNETFKEEPTABS'
                                   31237                       ¿þþþþþþþþþþþþþþþþþþþþþþþþþþþþþþþþþþþþþþþþþþþþþþþþþþþþþþþþÜ
                                   31238                       Ÿ  Set flag to check for (or send) the SAMDATA: header.  Ÿ
                                   31239                       ¾þþþþþþþþþþþþþþþþþþþþþþþþþþþþþþþþþþþþþþþþþþþþþþþþþþþþþþþþ»
 00519E 9608 6004      00004       31240                       SET   SAMFNETHDR          "SAMDATA:" header needed
1SAM      (SAM2193) (12:54) (15MAR04) Samson Interface Routines                                                             Page   84
0Current Usings:  (UNET,R5) (SAMWA,R6) (*,R7) (CP,R11) (CV,R12)
0Loc    Object Code    Addr1 Addr2  Stmt Lv Lineno    Source Statement           (Hibal 5, Asmedit 3.3)  HLASM R4.0  2004/03/15 12.54
+___    ______ ____    _____ _____  ____ __ ______    ______ _________
0                                  31246                       ¿þþþþþþþþþþþþþþþþþþþþþþþþþþþþþþþþþþþþþþþþþþþþþþþþþþþþþþþþþÜ
                                   31247                       Ÿ  For READ TRANSPARENT the checking is done in the NPAT  Ÿ
                                   31248                       Ÿ    routine (hence the flag UNETFSAMDATA is set).        Ÿ
                                   31249                       ¾þþþþþþþþþþþþþþþþþþþþþþþþþþþþþþþþþþþþþþþþþþþþþþþþþþþþþþþþþ»
 0051A2 95D9 6124/4770_00124       31250                       IF    (SAMSCMD,EQ,'R'),BEGIN  Read...
 0051AA 9180 6006/47E0_00006       31267  1                      IF    SAMFTRAN,BEGIN      Read transparent...
 0051B2 94F7 6004      00004       31282  2                        CLEAR SAMFNETHDR
 0051B6 9640 502D      0002D       31289  2                        SET   UNETFSAMDATA        Have low level routines check
 0051BA                            31295  1                      END
 0051BA                            31299                       END
                                   31303                       ¿þþþþþþþþþþþþþþþþþþþþþþþþþþþþþþþþþþþþþþþþþþþþþþþþþþþþþþþþþþþþÜ
                                   31304                       Ÿ  Now send control packet to get Samson to read/write from  Ÿ
                                   31305                       Ÿ    the separate TCP path.                                  Ÿ
                                   31306                       ¾þþþþþþþþþþþþþþþþþþþþþþþþþþþþþþþþþþþþþþþþþþþþþþþþþþþþþþþþþþþþ»
 0051BA 92C3 6125      00125       31307                       MVI   SAMSCMD+1,C'C'      Read/write control
 0051BE 58E0 796C/0DEE       05A80 31308                       ACALL SEGHEAD
 0051C4 4110 7A2E/4100_      05B42 31312                       SEG   'IPADDR='
 0051D6 1F11/4310 5174_            31329                       SEGDC LC:UNETLIP          Our IP address
 0051E8 4110 7A35/4100_      05B49 31355                       SEG   '.'
 0051FA 1F11/4310 5175_            31372                       SEGDC LC:UNETLIP+1
 00520C 4110 7A35/4100_      05B49 31398                       SEG   '.'
 00521E 1F11/4310 5176_            31415                       SEGDC LC:UNETLIP+2
 005230 4110 7A35/4100_      05B49 31441                       SEG   '.'
 005242 1F11/4310 5177_            31458                       SEGDC LC:UNETLIP+3
 005254 4110 7A36/4100_      05B4A 31484                       SEG   ','
 005266 5810 5178/1B00_      00178 31501                       SEGDC L:UNETLPORT         Our port number
                                   31522
 005276 9180 502D/47E0_0002D       31523                       IF    UNETFCRYPT,'ACALL SEGSEP; SEG "CRYPT=1"'  Encryption
                                   31564
 005296 58E0 797C/0DEE       05A90 31565                       ACALL SEGEOD              End of parameters
                                   31569
 00529C 58E0 7980/0DEE       05A94 31570                       ACALL SEGTRAIL            Seg packet trailer
 0052A2 9604 6004      00004       31574                       SET   SAMFERET            Return even if error
 0052A6 1B00/41F0 60E8_            31580                       SEGWR
 0052B2 94FB 6004      00004       31604                       CLEAR SAMFERET            Reset error trapping
 0052B6 9102 6004/47E0_00004       31611                       IF    SAMFERC,BEGIN       Open error...
                                   31626  1           *
                                   31627  1           * Don't close the path here. That sets up a failsoft when the EXT
                                   31628  1           * module closes the path due to the open error.
                                   31629  1           * (EXTOPEN->EXTCLOSE->SAMCLOSE->SNETCLS).
                                   31630  1           *
                                   31631  1           *        LA    R15,UNET
                                   31632  1           *        VCALL NPATCLS             Close network path
 0052BE 41F0 0004            00004 31633  1                      LA    R15,4               Open error
 0052C2 47F0 7228            0533C 31634  1                      B     SNOPEXIT            Scram
 0052C6                            31635                       END
                                   31639                       ¿þþþþþþþþþþþþþþþþþþþþþþþþþþþþþþþþþþþþþþþþþþþþþþþþþþþþþþþþÜ
                                   31640                       Ÿ  Wait for Samson to actually open the TCP connection.  Ÿ
                                   31641                       ¾þþþþþþþþþþþþþþþþþþþþþþþþþþþþþþþþþþþþþþþþþþþþþþþþþþþþþþþþ»
 0052C6 4110 0004            00004 31642                       LA    R1,UNETSFOPEN       Wait for other side to open
 0052CA 41F0 5000            00000 31643                       LA    R15,UNET
 0052CE 58E0 7988/0DEE       05A9C 31644                       VCALL NPATWAIT            Wait for open completion
 0052D4 4770 71D0            052E4 31648                       BNZ   SNOPNERR            Trouble, scram
                                   31649
1SAM      (SAM2193) (12:54) (15MAR04) Samson Interface Routines                                                             Page   85
0Current Usings:  (UNET,R5) (SAMWA,R6) (*,R7) (CP,R11) (CV,R12)
0Loc    Object Code    Addr1 Addr2  Stmt Lv Lineno    Source Statement           (Hibal 5, Asmedit 3.3)  HLASM R4.0  2004/03/15 12.54
+___    ______ ____    _____ _____  ____ __ ______    ______ _________
00052D8 D201 6124 79D4 00124 05AE8 31650                       MVC   SAMSCMD,=C'XX'      Safety -- force error
 0052DE 1BFF                       31651                       CLEAR R15                 A-ok
 0052E0 47F0 7228            0533C 31655                       B     SNOPEXIT
                                   31656                       ¿þþþþþþþþþþþþþþþþþþþþþþþþþþþþþþþþþþþþþþþþþþþþþþþþÜ
                                   31657                       Ÿ  Network error opening direct TCP connection.  Ÿ
                                   31658                       ¾þþþþþþþþþþþþþþþþþþþþþþþþþþþþþþþþþþþþþþþþþþþþþþþþ»
 0052E4 94DF 6004      00004       31659              SNOPNERR CLEAR SAMFFAST            Reset fast mode flag
 0052E8 9001 D000/41D0_      00000 31667                       XPUSH R0,R1
 0052F0 4110 788C/4100_      059A0 31670                       TSEG  'Samson error opening network fast file transfer '
 005302 4110 798C/4100_      05AA0 31688                       TSEG  'connection ('
 005314 4BD0 79D6/9801_      05AEA 31706                       XPOP  R0,R1
 00531C 41F0 B050/58E0_      00050 31709                       TSEG  (R1),(R0)
 005326 4110 79D8/4100_      05AEC 31733                       TSEG  ').',,CR
 005338 47F0 C7DA            007DA 31751                       B     CVABORT
                                   31752
 00533C 18D8/9808 D004_            31753              SNOPEXIT PEND
 DROP   UNET,R5
 DROP   SAMWA,R6
 DROP   *,R7
1SAM      (SAM2193) (12:54) (15MAR04) Samson Interface Routines                                                             Page   86
0Current Usings:  (CP,R11) (CV,R12)
0Loc    Object Code    Addr1 Addr2  Stmt Lv Lineno    Source Statement           (Hibal 5, Asmedit 3.3)  HLASM R4.0  2004/03/15 12.54
+___    ______ ____    _____ _____  ____ __ ______    ______ _________
0                                  31785              ¿þþþþþþþþþþþþþþþþþþþþþþþþþþþþþþþþþþþþþþþþþþþþþþþþþþþþþþþþþþþþþþþþþþþþþÜ
                                   31786              Ÿ                                                                     Ÿ
                                   31787              Ÿ  SNETREAD -- Routine to read the next line from the fast ftp        Ÿ
                                   31788              Ÿ    network connection.  Called from SAMREAD.                        Ÿ
                                   31789              Ÿ                                                                     Ÿ
                                   31790              Ÿ    On entry:                                                        Ÿ
                                   31791              Ÿ      DEVICE work area contains information about the file.          Ÿ
                                   31792              Ÿ                                                                     Ÿ
                                   31793              Ÿ    On exit, R15 (and cc):                                           Ÿ
                                   31794              Ÿ      R15=ZERO - address of pressed line (before lineno)             Ÿ
                                   31795              Ÿ      R15=NZ - end of file                                           Ÿ
                                   31796              Ÿ                                                                     Ÿ
                                                      ¾þþþþþþþþþþþþþþþþþþþþþþþþþþþþþþþþþþþþþþþþþþþþþþþþþþþþþþþþþþþþþþþþþþþþþ»
000534A 50E0 D000/9008_      00000 31797              SNETREAD PROC
 USING  *,R7
 USING  SAMWA,R6                   31836                       WITH  (SAMWA,R6)          Entry assumption
                                   31849                       ¿þþþþþþþþþþþþþþþþþþþþþþþþþþþþþþþþþþþþþþþþþþþþþþþþþþþþþþþþþþþþÜ
                                   31850                       Ÿ  For read operations send an end of file on our side       Ÿ
                                   31851                       Ÿ    right away (this makes cleanup a little faster          Ÿ
                                   31852                       Ÿ    and clues AMELIA in that we won't be sending any data;  Ÿ
                                   31853                       Ÿ    so Amelia need not delay it's ACKs of incoming data.    Ÿ
                                   31854                       ¾þþþþþþþþþþþþþþþþþþþþþþþþþþþþþþþþþþþþþþþþþþþþþþþþþþþþþþþþþþþþ»
 005364 5850 618C            0018C 31855                       L     R5,SAMUNET
 USING  UNET,R5                    31856                       WITH  (UNET,R5),BEGIN
 005368 9140 5164/4710_00164       31870  1                      IF    ~UNETFOUTEOF,BEGIN  Send our end of file...
 005370 4110 77EE            05B52 31885  2                        LA    R1,=C'EOF'          Normal end of file
 005374 41F0 5000            00000 31886  2                        LA    R15,UNET
 005378 58E0 774C/0DEE       05AB0 31887  2                        VCALL NPATCTRL            Send it
 00537E                            31891  1                      END
 DROP   UNET,R5                    31895                       END
                                   31903                       ¿þþþþþþþþþþþþþþþþþþþþþþÜ
                                   31904                       Ÿ  Get the next line.  Ÿ
                                   31905                       ¾þþþþþþþþþþþþþþþþþþþþþþ»
 00537E                            31906              NETRLOOP LOOP  BEGIN
 00537E 1B00                       31913  1                      CLEAR R0                  0 = EBCDIC mode
 005380 9110 6006/47E0_00006       31917  1                      IF    SAMFASCII,'LA R0,1'  1 = ASCII mode
 00538C 58F0 618C            0018C 31938  1                      L     R15,SAMUNET
 005390 58E0 7750            05AB4 31939  1                      L     RAR,=V(NPATREAD)    Regular text mode
 005394 9180 6006/47E0_00006       31940  1                      IF    SAMFTRAN,'L RAR,=V(NPATXRD)'  Transparent
 0053A0 0DEE                       31961  1                      BASR  RAR,RAR             Get the next line
 0053A2 12FF/4780 708E             31962  1                      IF    (R15,Z),EXIT        We have the line, scram
                                   31979  1                      ¿þþþþþþþþþþþþþþþþþþþþþþþÜ
                                   31980  1                      Ÿ  Normal end of file.  Ÿ
                                   31981  1                      ¾þþþþþþþþþþþþþþþþþþþþþþþ»
 0053A8 D50A 77F1 1000_05B55 00000 31982  1                      IF    (@R1,EQ,'END OF FILE'),BEGIN  End of file...
 0053B2 41F0 0004            00004 31998  2                        LA    R15,4
 0053B6 47F0 711E            05482 31999  2                        B     NETREXIT
 0053BA                            32000  1                      END
1SAM      (SAM2193) (12:54) (15MAR04) Samson Interface Routines                                                             Page   87
0Current Usings:  (SAMWA,R6) (*,R7) (CP,R11) (CV,R12)
0Loc    Object Code    Addr1 Addr2  Stmt Lv Lineno    Source Statement           (Hibal 5, Asmedit 3.3)  HLASM R4.0  2004/03/15 12.54
+___    ______ ____    _____ _____  ____ __ ______    ______ _________
0                                  32004  1                      ¿þþþþþþþþþþþþþþþþþþþþþþþþþþþþþþþÜ
                                   32005  1                      Ÿ  Network error of some sort.  Ÿ
                                   32006  1                      ¾þþþþþþþþþþþþþþþþþþþþþþþþþþþþþþþ»
 0053BA 9001 D000/41D0_      00000 32007  1                      XPUSH R0,R1
 0053C2 4110 77FC/4100_      05B60 32010  1                      TSEG  'Network error while reading -- '
 0053D4 4BD0 7786/9801_      05AEA 32028  1                      XPOP  R0,R1
 0053DC 41F0 B050/58E0_      00050 32031  1                      TSEG  (R1),(R0),WR
 0053E6 41F0 0004            00004 32055  1                      LA    R15,4
 0053EA 47F0 711E            05482 32056  1                      B     NETREXIT
 0053EE 47F0 701A            0537E 32057                       END
                                   32062                       ¿þþþþþþþþþþþþþþþþþþþþþþþþþþþþþþþþþþþþþþþþþþþþþþþþþþþþþþþþþþÜ
                                   32063                       Ÿ  The data sent via the direct TCP connection begins      Ÿ
                                   32064                       Ÿ    with the text "SAMDATA:" (provides a simple validity  Ÿ
                                   32065                       Ÿ    check).                                               Ÿ
                                   32066                       ¾þþþþþþþþþþþþþþþþþþþþþþþþþþþþþþþþþþþþþþþþþþþþþþþþþþþþþþþþþþ»
 0053F2 9108 6004/47E0_00004       32067                       IF    SAMFNETHDR,BEGIN    Check for Samson header...
 0053FA 5900 7758/4740_      05ABC 32082  1                      IF    ((R0,LT,8),OR,(@R1,NE,'SAMDATA:')),BEGIN
 00540C 4110 781B/4100_      05B7F 32114  2                        TSEG  'Network file transfer error, '
 00541E 4110 7838/4100_      05B9C 32132  2                        TSEG  'Samson protocol data header is missing.',,WR
 005430 41F0 0004            00004 32150  2                        LA    R15,4
 005434 47F0 711E            05482 32151  2                        B     NETREXIT
 005438                            32152  1                      END
                                   32156  1
 005438 4110 1008            00008 32157  1                      LA    R1,@R1+8            Skip past header
 00543C 4B00 778A            05AEE 32158  1                      SH    R0,=H'8'
 005440 94F7 6004      00004       32159  1                      CLEAR SAMFNETHDR
 005444                            32166                       END
                                   32170                       ¿þþþþþþþþþþþþþþþþþþþþþþþþþþþþþþþþþþþþþþþþþþþþþþþþþþþþþþþþþþÜ
                                   32171                       Ÿ  Do formatting character expansion for APPLEASCII data.  Ÿ
                                   32172                       ¾þþþþþþþþþþþþþþþþþþþþþþþþþþþþþþþþþþþþþþþþþþþþþþþþþþþþþþþþþþ»
 005444 9110 6004/47E0_00004       32173                       IF    SAMFASCII8,BEGIN    Appleascii...
 00544C 9180 6006/4710_00006       32188  1                      IF    SAMFTRAN,EXIT       Transparent, don't do anything
 005454 9104 6006/4710_00006       32206  1                      IF    SAMFUFMT,EXIT       Unformatted, don't do anything
                                   32224  1                      SETMSG (R1),(R0)
 00545C 4120 0002            00002 32234  1                      LA    R2,2                Use APPLEASCII table
 005460 9102 6006/47E0_00006       32235  1                      IF    SAMFTEXTONLY,'LCR R2,R2'  We want TEXTONLY form
 00546A 48F0 778C            05AF0 32256  1                      LH    R15,=AL2(UNETBUF#-32)  Maximum line size
 00546E 58E0 775C/0DEE       05AC0 32257  1                      VCALL FORMATL             Format special characters
 005474                            32261                       END
                                   32265                       ¿þþþþþþþþþþþþþþþþþþþþþþþþþÜ
                                   32266                       Ÿ  Return line to caller  Ÿ
                                   32267                       ¾þþþþþþþþþþþþþþþþþþþþþþþþþ»
 005474 5820 6130            00130 32268                       L      R2,SAMLNO
 005478 5A20 B738            00738 32269                       A      R2,CPDELTA
 00547C 5020 6130            00130 32270                       ST     R2,SAMLNO         New lineno
 005480 1BFF                       32271                       CLEAR  R15               Return pressed line ptr
                                   32275
 005482                            32276              NETREXIT LABEL  ,
 005482 9001 8004            00004 32278                       PRETURN (R0,R1)
 005486 18D8/9808 D004_            32280                       PEND
 DROP   SAMWA,R6
 DROP   *,R7
1SAM      (SAM2193) (12:54) (15MAR04) Samson Interface Routines                                                             Page   88
0Current Usings:  (CP,R11) (CV,R12)
0Loc    Object Code    Addr1 Addr2  Stmt Lv Lineno    Source Statement           (Hibal 5, Asmedit 3.3)  HLASM R4.0  2004/03/15 12.54
+___    ______ ____    _____ _____  ____ __ ______    ______ _________
0                                  32306              ¿þþþþþþþþþþþþþþþþþþþþþþþþþþþþþþþþþþþþþþþþþþþþþþþþþþþþþþþþþþþþþþþþþþþþþÜ
                                   32307              Ÿ                                                                     Ÿ
                                   32308              Ÿ  SNETWR -- Routine to write the next line to the fast ftp           Ÿ
                                   32309              Ÿ    network connection.  Called from SAMWRITE.                       Ÿ
                                   32310              Ÿ                                                                     Ÿ
                                   32311              Ÿ    On entry:                                                        Ÿ
                                   32312              Ÿ      R1,R0 - line location, length                                  Ÿ
                                   32313              Ÿ      FFINFO dsect contains information about the file.              Ÿ
                                   32314              Ÿ                                                                     Ÿ
                                   32315              Ÿ    Only returns if ok.                                              Ÿ
                                   32316              Ÿ                                                                     Ÿ
                                                      ¾þþþþþþþþþþþþþþþþþþþþþþþþþþþþþþþþþþþþþþþþþþþþþþþþþþþþþþþþþþþþþþþþþþþþþ»
0005494 50E0 D000/9008_      00000 32317              SNETWR   PROC
 USING  *,R7
 USING  SAMWA,R6                   32356                       WITH  (SAMWA,R6)          Entry assumption
                                   32369
 0054AE 5850 618C            0018C 32370                       L     R5,SAMUNET
 USING  UNET,R5                    32371                       WITH  (UNET,R5)
                                   32384                       SEGDEF UNETOUTSG          Network output SEGCB
                                   32385                       ¿þþþþþþþþþþþþþþþþþþþþþþþþþþþþþþþþþþþþþþþþþþþþþþþþþþþþþþþþþþÜ
                                   32386                       Ÿ  The data sent via the direct TCP connection must begin  Ÿ
                                   32387                       Ÿ    with the text "SAMDATA:" (provides a simple validity  Ÿ
                                   32388                       Ÿ    check).                                               Ÿ
                                   32389                       ¾þþþþþþþþþþþþþþþþþþþþþþþþþþþþþþþþþþþþþþþþþþþþþþþþþþþþþþþþþþ»
 0054B2 9108 6004/47E0_00004       32390                       IF    SAMFNETHDR,BEGIN    Start data with network header...
 0054BA 9001 D000/41D0_      00000 32405  1                      XPUSH R0,R1
 0054C2 4110 7522/4100_      059D0 32408  1                      SEG   'SAMDATA:'          Add header first
 0054D4 94F7 6004      00004       32425  1                      CLEAR SAMFNETHDR
 0054D8 4BD0 763C/9801_      05AEA 32432  1                      XPOP  R0,R1
 0054E0                            32435                       END
                                   32439                       ¿þþþþþþþþþþþþþþþþþþþþþþþþþþþþþþþþþþþþþþþþþþþþþþþþþþþþþÜ
                                   32440                       Ÿ  Add the new data line to the seg buffer.  The seg  Ÿ
                                   32441                       Ÿ    routines will automatically write the buffer if  Ÿ
                                   32442                       Ÿ    it overflows.                                    Ÿ
                                   32443                       ¾þþþþþþþþþþþþþþþþþþþþþþþþþþþþþþþþþþþþþþþþþþþþþþþþþþþþþ»
 0054E0 9180 6006/4710_00006       32444                       IF    ~SAMFTRAN,BEGIN     Normal text mode...
 0054E8 41F0 510C/58E0_      0010C 32459  1                      SEG   (R1),(R0)           Write line
 0054F2 4110 7715/4100_      05BC3 32482  1                      SEG   X'0D'               CR
 005504                            32499                       END
                                   32503                       ¿þþþþþþþþþþþþþþþþþþþþþþþþþþþÜ
                                   32504                       Ÿ  Transparent write data.  Ÿ
                                   32505                       ¾þþþþþþþþþþþþþþþþþþþþþþþþþþþ»
 005504 705A/47F0 7118 05504 054E6 32506                       ELSE  BEGIN               Transparent mode...
 005508 18F1                       32517  1                      LR    R15,R1              R1 = first character on line
 00550A 1AF0                       32518  1                      AR    R15,R0
 00550C 06F0                       32519  1                      DECR  R15                 R15 = last character on line
                                   32521  1         C            IF    ((R0,LT,2),OR,
                                          1         C                  ('CLC @R1(1),@R15',NE),OR,
 00550E 5900 7616/4740_      05AC4        1                            ((@R1,NE,'|'),AND,(@R1,NE,'@'))),BEGIN
 005530 4110 7716/4100_      05BC4 32578  2                        TSEG  'Line '
 005542 5800 B73C            0073C 32596  2                        L     R0,CPLCNO
 005546 58E0 761A/0DEE       05AC8 32597  2                        VCALL CVEXNO
 00554C 41F0 B050/58E0_      00050 32601  2                        TSEG  (R1),(R0)
1SAM      (SAM2193) (12:54) (15MAR04) Samson Interface Routines                                                             Page   89
0Current Usings:  (UNET,R5) (SAMWA,R6) (*,R7) (CP,R11) (CV,R12)
0Loc    Object Code    Addr1 Addr2  Stmt Lv Lineno    Source Statement           (Hibal 5, Asmedit 3.3)  HLASM R4.0  2004/03/15 12.54
+___    ______ ____    _____ _____  ____ __ ______    ______ _________
0005556 4110 771B/4100_      05BC9 32625  2                        SETMSG ' is not valid TRANSPARENT data.'
 00555E 9560 4000/4780_00000       32629  2                        IF    ((@R4,EQ,'-'),OR,(@R4,EQ,X'2D')),BEGIN
 00556E 4110 7644/4100_      05AF2 32660  3                          TSEG  ' has Macintosh transparent data which can not '
 005580 4110 7672/4100_      05B20 32678  3                          SETMSG 'be saved over the net.'
 005588                            32682  2                        END
 005588 41F0 B050/58E0_      00050 32686  2                        TSEG  (R1),(R0),CR
 005592 4110 752A/4100_      059D8 32710  2                        ABORT 'SAVE command incomplete.'
 00559E                            32717  1                      END
                                   32721  1                      ¿þþþþþþþþþþþþþþþþþþþþþþþþþþþþþþþþþþþþþþþþþþþþþþþþþþþþþþþþþþþþþþþÜ
                                   32722  1                      Ÿ  If the first character is an "@" then the data is in ASCII,  Ÿ
                                   32723  1                      Ÿ    and if the first character is a "|" then it is in EBCDIC.  Ÿ
                                   32724  1                      ¾þþþþþþþþþþþþþþþþþþþþþþþþþþþþþþþþþþþþþþþþþþþþþþþþþþþþþþþþþþþþþþþ»
 00559E 954F 1000/4770_00000       32725  1                      IF    (@R1,EQ,'|'),BEGIN  ASCII...
 0055A6 58E0 761E/0DEE       05ACC 32741  2                        VCALL TOASCII             If EBCDIC, convert to ASCII
 0055AC                            32745  1                      END
                                   32749  1
 0055AC 9640 5104      00104       32750  1                      SET   UNETFNOXL           Don't translate data
 0055B0 4B00 7688            05B36 32756  1                      SH    R0,=H'2'            Deduct len of guard chars
 0055B4 4110 1001/41F0_      00001 32757  1                      SEG   @R1+1,(R0)          Write line w/o translation
 0055C2 94BF 5104      00104       32783  1                      CLEAR UNETFNOXL           Reset
 0055C6                            32790                       END
                                   32794                       ¿þþþþþþþþþþþþþþþþþþþþþþþþþþþþþþþþþþþþþþþþþþþþþþþþþþþþþþþþþþþþþþÜ
                                   32795                       Ÿ  Ask the user if he wants to stop if ATTN has been pressed.  Ÿ
                                   32796                       ¾þþþþþþþþþþþþþþþþþþþþþþþþþþþþþþþþþþþþþþþþþþþþþþþþþþþþþþþþþþþþþþ»
 0055C6 5850 C1C8            001C8 32797                       L     R5,CVCURJCB
 DROP   UNET,R5                    32798                       WITH  (JCB,R5),BEGIN
 USING  JCB,R5
 0055CA 9102 5062/47E0_00062       32815  1                      IF    JCBFATTN,BEGIN      Attn received...
 0055D2 94FD 5062      00062       32830  2                        CLEAR JCBFATTN            Reset ATTN flag
                                   32837  2                        ¿þþþþþþþþþþþþþþþþþþþþþþþþþþþþþþþþþþþþþþþþþþþþþþþþþþþþþþþþþþþÜ
                                   32838  2                        Ÿ  Our message will erase the "(xxx lines written)" status  Ÿ
                                   32839  2                        Ÿ    message, so we reset the flag saying a status message  Ÿ
                                   32840  2                        Ÿ    has been written.                                      Ÿ
                                   32841  2                        ¾þþþþþþþþþþþþþþþþþþþþþþþþþþþþþþþþþþþþþþþþþþþþþþþþþþþþþþþþþþþ»
 0055D6 94F7 BC7D      00C7D       32842  2                        CLEAR CPFSTMSG            Turn off status message flag
                                   32849  2                        ¿þþþþþþþþþþþþþþþþþþþþþþþþþþþþþþÜ
                                   32850  2                        Ÿ  Write out our own message.  Ÿ
                                   32851  2                        ¾þþþþþþþþþþþþþþþþþþþþþþþþþþþþþþ»
 0055DA 5810 BF50/1B00_      00F50 32852  2                        TNUM  L:DSNLCNT           Current number of lines
 0055EA D603 BF54 BF54_00F54 00F54 32874  2                        IF    (DSNLTOT,NZ),BEGIN  Give total line count too...
 0055F4 4110 7622/4100_      05AD0 32890  3                          TSEG  ' of '
 005606 5810 BF54/1B00_      00F54 32908  3                          TNUM  L:DSNLTOT
 005616                            32930  2                        END
 005616 4110 7542/4100_      059F0 32934  2                        TSEG  ' lines have been written so far.'
 005628 4110 C4D8/4100_      004D8 32952  2                        TSEG  CVBLANKS,20,CR      (Extra padding erases old msg)
                                   32982  2
 00563A 4110 7562/4100_      05A10 32983  2                        SETMSG 'Do you want to continue saving this file'
 005642 58E0 7626/0DEE       05AD4 32987  2                        VCALL YESNO               We want a YES or a NO
 005648 4780 71BC            0566A 32991  2                        IF    Z,EXIT              Yes, scram
                                   33005  2
 00564C 4110 773A/4100_      05BE8 33006  2                        TSEG  'File transfer stopped, your file is only '
 00565E 4110 758A/4100_      05A38 33024  2                        ABORT 'partially saved.'
 00566A                            33031  1                      END
 DROP   JCB,R5                     33035                       END
1SAM      (SAM2193) (12:54) (15MAR04) Samson Interface Routines                                                             Page   90
0Current Usings:  (UNET,R5) (SAMWA,R6) (*,R7) (CP,R11) (CV,R12)
0Loc    Object Code    Addr1 Addr2  Stmt Lv Lineno    Source Statement           (Hibal 5, Asmedit 3.3)  HLASM R4.0  2004/03/15 12.54
+___    ______ ____    _____ _____  ____ __ ______    ______ _________
0USING  UNET,R5
                                   33050
 00566A 18D8/9808 D004_            33051                       PEND
 DROP   UNET,R5
 DROP   SAMWA,R6
 DROP   *,R7
                                   33081
                                   33082                       SEGDEF DUMMY              (Neatness)
1SAM      (SAM2193) (12:54) (15MAR04) Samson Interface Routines                                                             Page   91
0Current Usings:  (CP,R11) (CV,R12)
0Loc    Object Code    Addr1 Addr2  Stmt Lv Lineno    Source Statement           (Hibal 5, Asmedit 3.3)  HLASM R4.0  2004/03/15 12.54
+___    ______ ____    _____ _____  ____ __ ______    ______ _________
0                                  33084              ¿þþþþþþþþþþþþþþþþþþþþþþþþþþþþþþþþþþþþþþþþþþþþþþþþþþþþþþþþþþþþþþþþþþþþþÜ
                                   33085              Ÿ                                                                     Ÿ
                                   33086              Ÿ  SNETCLS -- Routine to close a fast ftp network connection.         Ÿ
                                   33087              Ÿ                                                                     Ÿ
                                   33088              Ÿ    On entry:                                                        Ÿ
                                   33089              Ÿ      FFINFO dsect contains information about the file.              Ÿ
                                   33090              Ÿ                                                                     Ÿ
                                                      ¾þþþþþþþþþþþþþþþþþþþþþþþþþþþþþþþþþþþþþþþþþþþþþþþþþþþþþþþþþþþþþþþþþþþþþ»
0005678 50E0 D000/9008_      00000 33091              SNETCLS  PROC
 USING  *,R7
 USING  SAMWA,R6                   33130                       WITH  (SAMWA,R6)          Entry assumption
                                   33143                       ¿þþþþþþþþþþþþþþþþþþþþþþþþþþþþþþÜ
                                   33144                       Ÿ  Close any data connection.  Ÿ
                                   33145                       ¾þþþþþþþþþþþþþþþþþþþþþþþþþþþþþþ»
 005692 5850 618C/1255_      0018C 33146                       IF    ('LT R5,SAMUNET',NZ),BEGIN  Data connection...
 USING  UNET,R5                    33162  1                      WITH  (UNET,R5)
                                   33175  1
 00569C 41F0 0002            00002 33176  1                      LA    R15,2
 0056A0 4110 73B6/4100_      05A48 33177  1                      SETMSG '[Closing direct TCP connection.]'
 0056A8 58E0 73DE/0DEE       05A70 33181  1                      ACALL SAMTRC              Save buffer for trace
                                   33185  1                      ¿þþþþþþþþþþþþþþþþþþþþþþþþþþþþþþþþþþþþþþþþþÜ
                                   33186  1                      Ÿ  Send an end of file now if necessary.  Ÿ
                                   33187  1                      ¾þþþþþþþþþþþþþþþþþþþþþþþþþþþþþþþþþþþþþþþþþ»
 0056AE 9160 5164/4770_00164       33188  1                      IF    (UNETFOUTEOF+UNETFOUTABORT,Z),BEGIN  Still active...
 0056B6 9140 6004/47E0_00004       33208  2                        IF    SAMFWRITE,BEGIN     Write last buffer...
 0056BE D603 5118 5118_00118 00118 33223  3                          IF    (UNETOUTSGLENF,NZ),'SEGWR ,,UNETOUTSG'  Write buffer
 0056D4                            33268  2                        END
 0056D4 41F0 510C/58E0_      0010C 33272  2                        SEGCLR ,UNETOUTSG         (Neatness)
                                   33285  2
 0056DE 4110 74C0            05B52 33286  2                        LA    R1,=C'EOF'          Normal end of file
 0056E2 41F0 5000            00000 33287  2                        LA    R15,UNET
 0056E6 58E0 741E/0DEE       05AB0 33288  2                        VCALL NPATCTRL            Send our end of file
 0056EC                            33292  1                      END
                                   33296  1                      ¿þþþþþþþþþþþþþþþþþþþþþþþþþþþþþþþþþþþþþþþþþþþþþþþþþÜ
                                   33297  1                      Ÿ  Wait for an end of file from the remote host.  Ÿ
                                   33298  1                      ¾þþþþþþþþþþþþþþþþþþþþþþþþþþþþþþþþþþþþþþþþþþþþþþþþþ»
 0056EC 9104 5164/4710_00164       33299  1                      IF    ~UNETFINEOF,BEGIN   Wait for remote end of file...
 0056F4 1B00                       33314  2                        CLEAR R0                  No timeout
 0056F6 4110 0006            00006 33318  2                        LA    R1,UNETSFDATA       Wait for abort or close
 0056FA 41F0 5000            00000 33319  2                        LA    R15,UNET
 0056FE 58E0 740A/0DEE       05A9C 33320  2                        VCALL NPATWAIT            Wait for close
 005704 4780 70A2            05734 33324  2                        IF    NZ,BEGIN            Screwy error...
 005708 9001 D000/41D0_      00000 33335  3                          XPUSH R0,R1
 005710 4110 757F/4100_      05C11 33338  3                          TSEG  'Samson fast ftp error: '
 005722 4BD0 7458/9801_      05AEA 33356  3                          XPOP  R0,R1
 00572A 41F0 B050/58E0_      00050 33359  3                          TSEG  (R1),(R0),WR
 005734                            33383  2                        END
 005734                            33387  1                      END
1SAM      (SAM2193) (12:54) (15MAR04) Samson Interface Routines                                                             Page   92
0Current Usings:  (UNET,R5) (SAMWA,R6) (*,R7) (CP,R11) (CV,R12)
0Loc    Object Code    Addr1 Addr2  Stmt Lv Lineno    Source Statement           (Hibal 5, Asmedit 3.3)  HLASM R4.0  2004/03/15 12.54
+___    ______ ____    _____ _____  ____ __ ______    ______ _________
0                                  33391  1                      ¿þþþþþþþþþþþþþþþþþþþþþþþþþþþþþþþþþþþþþþþÜ
                                   33392  1                      Ÿ  Close and free the data connection.  Ÿ
                                   33393  1                      ¾þþþþþþþþþþþþþþþþþþþþþþþþþþþþþþþþþþþþþþþ»
 005734 41F0 5000            00000 33394  1                      LA    R15,UNET
 005738 58E0 744A/0DEE       05ADC 33395  1                      VCALL NPATCLS             Close and free data path
                                   33399  1                      ¿þþþþþþþþþþþþþþþþþþþþþþþþþþþþþþþþþþþþþþþþþþþÜ
                                   33400  1                      Ÿ  Now send the read/write status request.  Ÿ
                                   33401  1                      ¾þþþþþþþþþþþþþþþþþþþþþþþþþþþþþþþþþþþþþþþþþþþ»
 00573E D201 6124 74A6 00124 05B38 33402  1                      MVC   SAMSCMD,=C'RS'      Assume "read status" packet
 005744 D502 7596 BD24_05C28 00D24 33403  1                      IF    (CPCMNM,EQ,'SAV'),'MVC SAMSCMD,=C"WS"'  It's write
 005754 41F0 60E8/58E0_      000E8 33426  1                      SEGCLR SAMSG              No options
 00575E 58E0 73EE/0DEE       05A80 33439  1                      ACALL SEGHEAD
 005764 58E0 7402/0DEE       05A94 33443  1                      ACALL SEGTRAIL            Read/write status packet
 00576A 1B00/41F0 60E8_            33447  1                      SEGWR
 DROP   UNET,R5                    33471                       END
                                   33480
 005776 1BFF                       33481                       CLEAR R15                 A-ok
 005778 18D8/9808 D004_            33485                       PEND
 DROP   SAMWA,R6
 DROP   *,R7
                                   33510
                                   33511                       SEGDEF DUMMY              (Neatness)
1SAM      (SAM2193) (12:54) (15MAR04) Samson Interface Routines                                                             Page   93
0Current Usings:  (CP,R11) (CV,R12)
0Loc    Object Code    Addr1 Addr2  Stmt Lv Lineno    Source Statement           (Hibal 5, Asmedit 3.3)  HLASM R4.0  2004/03/15 12.54
+___    ______ ____    _____ _____  ____ __ ______    ______ _________
0                                  33513              ¿þþþþþþþþþþþþþþþþþþþþþþþþþþþþþþþþþþþþþþþþþþþþþþþþþþþþþþþþþþþþþþþþþþþþþÜ
                                   33514              Ÿ                                                                     Ÿ
                                   33515              Ÿ  SEGHEAD -- Local routine to seg the Samson packet header.          Ÿ
                                   33516              Ÿ                                                                     Ÿ
                                                      ¾þþþþþþþþþþþþþþþþþþþþþþþþþþþþþþþþþþþþþþþþþþþþþþþþþþþþþþþþþþþþþþþþþþþþþ»
0005786 50E0 D000/9008_      00000 33517              SEGHEAD  PROC
 USING  *,R7
 USING  SAMWA,R6                   33556                       WITH  (SAMWA,R6)          (Entry assumption)
                                   33569                       SEGDEF SAMSG
                                   33570
 0057A0 41F0 60E8/58E0_      000E8 33571                       SEGCLR
                                   33584
 0057AA 4110 748B/4100_      05C2B 33585                       SEG   X'27'               [ESC]
 0057BC 4110 7340/4100_      05AE0 33602                       SEG   '\\SS'              Start of packet
                                   33619
 0057CE 4810 6126/4100_      00126 33620                       SEGHX LH:SAMSSEQ,1        Sequence number
 0057E0 1F11/4310 BA22_            33643                       SEGHX LC:CPSAMCOD,1       Encoding
 0057F4 4110 6124/4100_      00124 33672                       SEG   SAMSCMD             Command/option
                                   33699
 005806 4810 6126/4100_      00126 33700                       SEGHX LH:SAMSSEQ,1        Duplicate...
 005818 1F11/4310 BA22_            33723                       SEGHX LC:CPSAMCOD,1       ...header
 00582C 4110 6124/4100_      00124 33752                       SEG   SAMSCMD             ...information
                                   33779
 00583E 4110 748C/4100_      05C2C 33780                       SEG   ':'                 End of header
                                   33797
 005850 9680 60DE      000DE       33798                       SET   SAMFDATA            Packet data follows
 005854 18D8/9808 D004_            33804                       PEND
 DROP   SAMWA,R6
 DROP   *,R7
1SAM      (SAM2193) (12:54) (15MAR04) Samson Interface Routines                                                             Page   94
0Current Usings:  (CP,R11) (CV,R12)
0Loc    Object Code    Addr1 Addr2  Stmt Lv Lineno    Source Statement           (Hibal 5, Asmedit 3.3)  HLASM R4.0  2004/03/15 12.54
+___    ______ ____    _____ _____  ____ __ ______    ______ _________
0                                  33830              ¿þþþþþþþþþþþþþþþþþþþþþþþþþþþþþþþþþþþþþþþþþþþþþþþþþþþþþþþþþþþþþþþþþþþþþÜ
                                   33831              Ÿ                                                                     Ÿ
                                   33832              Ÿ  SEGSEP -- Local routine to add a line separator to the packet.     Ÿ
                                   33833              Ÿ                                                                     Ÿ
                                                      ¾þþþþþþþþþþþþþþþþþþþþþþþþþþþþþþþþþþþþþþþþþþþþþþþþþþþþþþþþþþþþþþþþþþþþþ»
0005862 50E0 D000/9008_      00000 33834              SEGSEP   PROC
 USING  *,R7
 USING  SAMWA,R6                   33873                       WITH  (SAMWA,R6)          (Entry assumption)
                                   33886
 00587C 9640 60DE      000DE       33887                       SET   SAMFCTRL
 005880 4110 72C0/4100_      05B3C 33893                       SEG   '\;'
 005892 94BF 60DE      000DE       33910                       CLEAR SAMFCTRL
 005896 18D8/9808 D004_            33917                       PEND
 DROP   SAMWA,R6
 DROP   *,R7
-                                  33943              ¿þþþþþþþþþþþþþþþþþþþþþþþþþþþþþþþþþþþþþþþþþþþþþþþþþþþþþþþþþþþþþþþþþþþþþÜ
                                   33944              Ÿ                                                                     Ÿ
                                   33945              Ÿ  SEGEOD -- Local routine to add a logical end of data to the        Ÿ
                                   33946              Ÿ    packet.                                                          Ÿ
                                   33947              Ÿ                                                                     Ÿ
                                                      ¾þþþþþþþþþþþþþþþþþþþþþþþþþþþþþþþþþþþþþþþþþþþþþþþþþþþþþþþþþþþþþþþþþþþþþ»
00058A4 50E0 D000/9008_      00000 33948              SEGEOD   PROC
 USING  *,R7
 USING  SAMWA,R6                   33987                       WITH  (SAMWA,R6)          (Entry assumption)
                                   34000
 0058BE 9640 60DE      000DE       34001                       SET   SAMFCTRL
 0058C2 4110 7280/4100_      05B3E 34007                       SEG   '\.'
 0058D4 94BF 60DE      000DE       34024                       CLEAR SAMFCTRL
 0058D8 18D8/9808 D004_            34031                       PEND
 DROP   SAMWA,R6
 DROP   *,R7
1SAM      (SAM2193) (12:54) (15MAR04) Samson Interface Routines                                                             Page   95
0Current Usings:  (CP,R11) (CV,R12)
0Loc    Object Code    Addr1 Addr2  Stmt Lv Lineno    Source Statement           (Hibal 5, Asmedit 3.3)  HLASM R4.0  2004/03/15 12.54
+___    ______ ____    _____ _____  ____ __ ______    ______ _________
0                                  34057              ¿þþþþþþþþþþþþþþþþþþþþþþþþþþþþþþþþþþþþþþþþþþþþþþþþþþþþþþþþþþþþþþþþþþþþþÜ
                                   34058              Ÿ                                                                     Ÿ
                                   34059              Ÿ  SEGTRAIL -- Local routine to seg the Samson packet trailer.        Ÿ
                                   34060              Ÿ                                                                     Ÿ
                                                      ¾þþþþþþþþþþþþþþþþþþþþþþþþþþþþþþþþþþþþþþþþþþþþþþþþþþþþþþþþþþþþþþþþþþþþþ»
00058E6 50E0 D000/9008_      00000 34061              SEGTRAIL PROC
 USING  *,R7
 USING  SAMWA,R6                   34100                       WITH  (SAMWA,R6)          (Entry assumption)
                                   34113
 005900 947F 60DE      000DE       34114                       CLEAR SAMFDATA            No longer in data mode
                                   34121
 005904 4110 7240/4100_      05B40 34122                       SEG   '\:'                Packet trailer
                                   34139
 005916 5810 60E0/4100_      000E0 34140                       SEGHX L:SAMSGDL,2         Data length (low byte only)
                                   34164
 005928 58F0 60E4            000E4 34165                       L     R15,SAMSGSUM        Checksum/CRC
 00592C 9102 BA22/47E0_00A22       34166                       IF    CPSAMFCKS,'SEGHX (R15),2'  One byte checksum
 005944 7048/47F0 7060_05944 05932 34210                       ELSEIF CPSAMFCRC,'SEGHX (R15),4'  Two byte CRC
                                   34263
 005960 4110 72C3/4100_      05BC3 34264                       SEG   X'0D'               CR
 005972 18D8/9808 D004_            34281                       PEND
 DROP   SAMWA,R6
 DROP   *,R7
                                   34306
                                   34307                       SEGDEF DUMMY              (Neatness)
                                   34308
                                   34309                       QLTORG
1SAM      (SAM2193) (12:54) (15MAR04) Samson Interface Routines                                                             Page   96
0Current Usings:  (CP,R11) (CV,R12)
0Loc    Object Code    Addr1 Addr2  Stmt Lv Lineno    Source Statement           (Hibal 5, Asmedit 3.3)  HLASM R4.0  2004/03/15 12.54
+___    ______ ____    _____ _____  ____ __ ______    ______ _________
0                                  34390              ¿þþþþþþþþþþþþþþþþþþþþþþþþþþþþþþþþþþþþþþþþþþþþþþþþþþþþþþþþþþþþþþþþþþþþþÜ
                                   34391              Ÿ                                                                     Ÿ
                                   34392              Ÿ  SAMSEG -- Local routine to write the SAMWA seg buffer as a         Ÿ
                                   34393              Ÿ    Samson packet.                                                   Ÿ
                                   34394              Ÿ                                                                     Ÿ
                                   34395              Ÿ    On entry:                                                        Ÿ
                                   34396              Ÿ      R15 - SEGCB ptr                                                Ÿ
                                   34397              Ÿ                                                                     Ÿ
                                                      ¾þþþþþþþþþþþþþþþþþþþþþþþþþþþþþþþþþþþþþþþþþþþþþþþþþþþþþþþþþþþþþþþþþþþþþ»
0000000                00000 00052 34398              SSGWA    RECORD BEGIN
 000000 00                         34406  1           SSGFLAG    FLAG
 SSGFLAG.SSGFQUIET 80 ONES         34410  1                      FLAG  SSGFQUIET           - It was QUIET mode
                                   34415  1
 000004                            34416  1           SSGTMOUT   DS    F                   Timeout value (for read packet)
                                   34417  1
                                   34418  1           SSGCB      SEGCB ,                   Saved CPSEG
 000008 00                         34419  1 01-SEGCB +$$$SEGCB793   DS 0F
 SSGCBCOD.SSGCBSEG 01 EQ
 SSGCBCOD.SSGCBWR  02 EQ
 SSGCBCOD.SSGCBCLR 03 EQ
 SSGCBCOD.SSGCBSPP 04 EQ
 SSGCBCOD.SSGCBOVF 05 EQ
 SSGCBCOD.SSGCBCR  06 EQ
 SSGCBCOD.SSGCBMAR 07 EQ
 000009 00                         34494  1 01-SEGCB +           DC    X'00'               Reserved
 00000A 0000                              1          +
 00000C 00000000                   34495  1 01-SEGCB +SSGCBMAXF   DC   A(0)                Maximum buffer length
 000010 00000000                   34496  1 01-SEGCB +SSGCBMRKF   DC   A(0)                Length at last mark
 000014 00000000                   34497  1 01-SEGCB +SSGCBLENF   DC   A(0)                Current length
 000018 00000000                   34498  1 01-SEGCB +SSGCBINDF   DC   A(0)                Overflow/indent count
 00001C 00000000                   34499  1 01-SEGCB +SSGCBERR   DC    A(0)                Address of error recovery routine
 000020 0000000000000000           34500  1 01-SEGCB +           DC    2F'0'               Reserved
 000028 00000000                   34501  1 01-SEGCB +SSGCBLOC   DC    A(0)                Location of buffer
 00002C 00000000                   34502  1 01-SEGCB +SSGCBRTN   DC    A(0)                Processing routine
 000030 0000000000000000           34503  1 01-SEGCB +           DC    4F'0'               Reserved
 000040 00000000                   34504  1 01-SEGCB +SSGCBUSR   DC    A(0)                USER field
                                   34505  1 01-SEGCB +SSGCB      EQU   $$$SEGCB793,*-$$$SEGCB793,C'X'
                                   34506  1
 000044                            34507  1           SSGTRM     DS    XL(L'CPTRM)         Saved CPTRM flags
 000052                00052 00052 34508                       END
                                   34517              þþþþ
 005C58 50E0 D000/9028_      00000 34518              SAMSEG   PROC  (R2,LSR),SSGWA
 USING  *,R7
 USING  SSGWA-(4+28),R8
 005C72 D751 8020 8020 00000 00000 34567                       CLEAR SSGWA
                                   34574
 005C78 5860 BE58            00E58 34575                       L     R6,CPDEVP
 USING  SAMWA,R6                   34576                       WITH  (SAMWA,R6)
 005C7C D502 7552 6000_061C4 00000 34589                       FAIL  (SAMWA,NE,'SAM'),BADSAM,'Bad SAMWA ptr'
                                   34618                       SEGDEF SAMSG              (General default)
                                   34619
 005C9E 185F                       34620                       LR    R5,R15              SEGCB ptr
 USING  SEGCB,R5                   34621                       WITH  (SEGCB,R5)
1SAM      (SAM2193) (12:54) (15MAR04) Samson Interface Routines                                                             Page   97
0Current Usings:  (SEGCB,R5) (SAMWA,R6) (*,R7) (SSGWA-(4+28),R8) (CP,R11) (CV,R12)
0Loc    Object Code    Addr1 Addr2  Stmt Lv Lineno    Source Statement           (Hibal 5, Asmedit 3.3)  HLASM R4.0  2004/03/15 12.54
+___    ______ ____    _____ _____  ____ __ ______    ______ _________
0                                  34634              ***
                                   34635              ***  SEG
                                   34636              ***
 005CA0 9501 5000/4770_00000       34637                       IF    SEGCBSEG,BEGIN      SEG...
 005CA8 9120 60DE/4710_000DE       34652  1                      IF    ~SAMFSGTRAN,BEGIN   Translate to ASCII...
 005CB0 5900 74E6/47D0_      06158 34667  2                        FAIL  (R0,GT,L'SAMWKBUF),SAMERR2,'Samson interface error.'
                                   34696  2
 005CD0 1840                       34697  2                        LR    R4,R0               Save text length
 005CD2 41E0 62CC/18F4_      002CC 34698  2                        MOVEL SAMWKBUF,@R1,(R4)   Copy text
                                   34720  2                        ¿þþþþþþþþþþþþþþþþþþþþþþþþþþþþþÜ
                                   34721  2                        Ÿ  First translate to ASCII.  Ÿ
                                   34722  2                        ¾þþþþþþþþþþþþþþþþþþþþþþþþþþþþþ»
 005CDE 4110 62CC/1804       002CC 34723  2                        SETMSG SAMWKBUF,(R4)
 005CE4 58E0 74EA/0DEE       0615C 34737  2                        ACALL OUTTRAN             Translate to ASCII
 005CEA                            34741  1                      END
                                   34745  1                      ¿þþþþþþþþþþþþþþþþþþþþþþþþþþþþþþþþþþþþþþþþþþþþþþþþþþÜ
                                   34746  1                      Ÿ  If it's packet data, do the required encoding.  Ÿ
                                   34747  1                      ¾þþþþþþþþþþþþþþþþþþþþþþþþþþþþþþþþþþþþþþþþþþþþþþþþþþ»
 005CEA 9180 60DE/47E0_000DE       34748  1                      IF    SAMFDATA,BEGIN      Packet data...
 005CF2 9140 60DE/4710_000DE       34763  2                        IF    ~SAMFCTRL,BEGIN     Compress non-control data...
 005CFA 910C BA22/47E0_00A22       34778  3                          IF    CPSAMF7BIT,'ACALL OUT7BIT'  7-bit format
 005D08 709A/47F0 70A8_05D08 05D00 34802  3                          ELSEIF CPSAMFPCK,'ACALL OUTPACK'  Packed format
 005D1A 70AC/47F0 70BA_05D1A 05D12 34835  3                          ELSEIF CPSAMFHEX,'ACALL OUTHEX'  Hex format
 005D2C 70BE/47F0 70C4_05D2C 05D24 34868  3                          ELSE  'ACALL OUTDATA'     Standard data format
 005D36                            34888  2                        END
                                   34892  2                        ¿þþþþþþþþþþþþþþþþþþþþþþþþþþþþþþþþþþþþþþþþþþþÜ
                                   34893  2                        Ÿ  Calculate checksum/CRC for packet data.  Ÿ
                                   34894  2                        ¾þþþþþþþþþþþþþþþþþþþþþþþþþþþþþþþþþþþþþþþþþþþ»
 005D36 58F0 60E0            000E0 34895  2                        L     R15,SAMSGDL
 005D3A 1AF0                       34896  2                        AR    R15,R0
 005D3C 50F0 60E0            000E0 34897  2                        ST    R15,SAMSGDL         Keep data length accurate
                                   34898  2
 005D40 58F0 60E4            000E4 34899  2                        L     R15,SAMSGSUM
 005D44 9102 BA22/47E0_00A22       34900  2                        IF    CPSAMFCKS,'ACALL CHECKSUM'  Calc checksum
 005D52 70E4/47F0 70F2_05D52 05D4A 34924  2                        ELSEIF CPSAMFCRC,'ACALL CHECKCRC'  Calc CRC
 005D64 50F0 60E4            000E4 34957  2                        ST    R15,SAMSGSUM        Save new checksum/CRC
 005D68                            34958  1                      END
                                   34962  1
 005D68 47F0 737C            05FEE 34963  1                      B     SEGEXIT
 005D6C                            34964                       END
                                   34968              ***
                                   34969              ***  SEGWR
                                   34970              ***
 005D6C 9502 5000/4770_00000       34971                       IF    SEGCBWR,BEGIN       SEGWR...
 005D74 48F0 BA98            00A98 34986  1                      LH    R15,CPSAMTMO        Get timeout value
 005D78 4CF0 754E            061C0 34987  1                      MH    R15,=H'100'         Convert to .01 second increments
 005D7C 50F0 8024            00004 34988  1                      ST    R15,SSGTMOUT        Save timeout value for below
 005D80 47F0 7128            05D9A 34989  1                      B     SEGSEND
1SAM      (SAM2193) (12:54) (15MAR04) Samson Interface Routines                                                             Page   98
0Current Usings:  (SEGCB,R5) (SAMWA,R6) (*,R7) (SSGWA-(4+28),R8) (CP,R11) (CV,R12)
0Loc    Object Code    Addr1 Addr2  Stmt Lv Lineno    Source Statement           (Hibal 5, Asmedit 3.3)  HLASM R4.0  2004/03/15 12.54
+___    ______ ____    _____ _____  ____ __ ______    ______ _________
0                                  34990  1                      ¿þþþþþþþþþþþþþþþþþþþþþþþþþþþþþþþþþþþþþþþþþþþþþþþþþþþþþþþþþþþþþþÜ
                                   34991  1                      Ÿ  If we are going to resend the last packet, then call        Ÿ
                                   34992  1                      Ÿ    INREADY to wait until no more data is being transmitted.  Ÿ
                                   34993  1                      ¾þþþþþþþþþþþþþþþþþþþþþþþþþþþþþþþþþþþþþþþþþþþþþþþþþþþþþþþþþþþþþþ»
 005D84 9110 6005/47E0_00005       34994  1           SEGRSEND   IF    SAMFNORETRY,BEGIN   No retrying wanted...
 005D8C 41F0 0004            00004 35010  2                        LA    R15,4               Bad return code
 005D90 47F0 737C            05FEE 35011  2                        B     SEGEXIT             Scram
 005D94                            35012  1                      END
                                   35016  1
 005D94 58E0 7506/0DEE       06178 35017  1                      ACALL INREADY             Wait for input to stop
                                   35021  1                      ¿þþþþþþþþþþþþþþþþþþþþþþþþþþþþþÜ
                                   35022  1                      Ÿ  Do output buffer tracing.  Ÿ
                                   35023  1                      ¾þþþþþþþþþþþþþþþþþþþþþþþþþþþþþ»
 005D9A 1BFF                       35024  1           SEGSEND    CLEAR R15                 Output buffer
 005D9C 5810 5020/5800_      00020 35029  1                      SETMSG L:SEGCBLOC,L:SEGCBLENF  Output packet
 005DA4 58E0 750A/0DEE       0617C 35041  1                      ACALL SAMTRC              Save buffer for trace
                                   35045  1                      ¿þþþþþþþþþþþþþþþþþþþþþþþþþþþÜ
                                   35046  1                      Ÿ  Send the Samson packet.  Ÿ
                                   35047  1                      ¾þþþþþþþþþþþþþþþþþþþþþþþþþþþ»
 005DAA D23B 8028 B050 00008 00050 35048  1                      MVC   SSGCB,CPSEG         Save standard seg buffer info
                                   35049  1
 005DB0 4110 62CC/4100_      002CC 35050  1                      SEGINIT SAMWKBUF,,.CPSEG
 005DC2 D203 B074 804C 00074 0002C 35077  1                      MVC   CPSEGRTN,SSGCBRTN   Set appropriate rtn
                                   35078  1
 005DC8 D20D 8064 BC7A 00044 00C7A 35079  1                      MVC   SSGTRM,CPTRM        Save terminal I/O options
 005DCE 9140 BD55/47E0_00D55       35080  1                      IF    CPFQUIET,'SET SSGFQUIET'  It was QUIET
 005DDA D70D BC7A BC7A 00C7A 00C7A 35106  1                      CLEAR CPTRM               Set our options
 005DE0 94BF BD55      00D55       35113  1                      CLEAR CPFQUIET            Reset quiet
 005DE4 9680 BC7C/9610_00C7C       35120  1                      SET   CPFTRAN,CPFNMOD,CPFNONL,CPFNTYPE
 005DF4 9680 BC7B/9640_00C7B       35138  1                      SET   CPFCLEAN,CPFNECHO,CPFNPAU
                                   35152  1                      ¿þþþþþþþþþþþþþþþþþþþþþþþþþþþþþþþþþþþþþþþþþþþþþþþþþþþþþþþþþþþþþþþÜ
                                   35153  1                      Ÿ  Write all of the packet data except the last character,      Ÿ
                                   35154  1                      Ÿ     the last character of the packet (a CR) will then be      Ÿ
                                   35155  1                      Ÿ     used as prompt data.                                      Ÿ
                                   35156  1                      Ÿ                                                               Ÿ
                                   35157  1                      Ÿ    The two exceptions are (1) if the amount of data is small  Ÿ
                                   35158  1                      Ÿ     then write the packet as the prompt data; and (2) if it   Ÿ
                                   35159  1                      Ÿ     is a high speed connection (speed=0) then write the       Ÿ
                                   35160  1                      Ÿ     packet the prompt data (better performance).              Ÿ
                                   35161  1                      ¾þþþþþþþþþþþþþþþþþþþþþþþþþþþþþþþþþþþþþþþþþþþþþþþþþþþþþþþþþþþþþþþ»
 005E00 5810 5020/5800_      00020 35162  1                      SETMSG L:SEGCBLOC,L:SEGCBLENF  Packet data
                                   35174  1
 005E08 5900 7512/47D0_      06184 35175  1                      IF    (R0,GT,64),BEGIN    We have a longish packet...
 005E10 D601 BAA2 BAA2_00AA2 00AA2 35192  2                        IF    (CPSAMSPD,Z),EXIT   If network, then write as prompt
 005E1A 0600                       35211  2                        DECR  R0                  Don't write last byte
 005E1C 1821                       35213  2                        LR    R2,R1
 005E1E 1A20                       35214  2                        AR    R2,R0               R2 = addr of last char
 005E20 41F0 B050/58E0_      00050 35215  2                        TSEG  (R1),(R0),WR        Write all except last byte
 005E2A 4740 C7DA            007DA 35239  2                        BM    CVABORT             Logging off, scram
 005E2E 47D0 71C0            05E32 35240  2                        IF    POS,BEGIN           Write attn...
 005E32                            35251  2                        END
                                   35255  2
 005E32 1812/4100 0001             35256  2                        SETMSG @R2,1               Last character of packet
 005E38                            35272  1                      END
1SAM      (SAM2193) (12:54) (15MAR04) Samson Interface Routines                                                             Page   99
0Current Usings:  (SEGCB,R5) (SAMWA,R6) (*,R7) (SSGWA-(4+28),R8) (CP,R11) (CV,R12)
0Loc    Object Code    Addr1 Addr2  Stmt Lv Lineno    Source Statement           (Hibal 5, Asmedit 3.3)  HLASM R4.0  2004/03/15 12.54
+___    ______ ____    _____ _____  ____ __ ______    ______ _________
0                                  35276  1
 005E38 41F0 B050/58E0_      00050 35277  1                      TSEG  (R1),(R0)           Add packet (or last char)
 005E42 41F0 B050/58E0_      00050 35301  1                      TMARK
                                   35315  1                      ¿þþþþþþþþþþþþþþþþþþþþþþþþþÜ
                                   35316  1                      Ÿ  Read response packet.  Ÿ
                                   35317  1                      ¾þþþþþþþþþþþþþþþþþþþþþþþþþ»
 005E4C 1B00/58F0 8024_            35318  1           SEGSREAD   TREAD TIMEOUT=L:SSGTMOUT  Send and wait for response
                                   35334  1
 005E58 D23B B050 8028 00050 00008 35335  1                      MVC   CPSEG,SSGCB         Restore standard seg buffer info
 005E5E D20D BC7A 8064 00C7A 00044 35336  1                      MVC   CPTRM,SSGTRM        Restore terminal I/O options too
 005E64 9180 8020/47E0_00000       35337  1                      IF    SSGFQUIET,'SET CPFQUIET'  Restore QUIET
                                   35363  1
 005E70 122F                       35364  1                      LTR   R2,R15              Test read return code
 005E72 47D0 722E            05EA0 35365  1                      IF    POS,BEGIN           Something is wrong...
 005E76 4110 74B6            06128 35376  2                        LA    R1,=CL16'ATTN'      Assume attn
 005E7A 12FF/47B0 7212_            35377  2                        IF    (R15,NEG),'LA R1,=CL16"DISCONNECT"'  Disconnect
 005E84 59F0 7526/4770_      06198 35397  2                        IF    (R15,EQ,101),'LA R1,=CL16"TIMEOUT"'  Timed out
 005E90 58E0 752A/0DEE       0619C 35420  2                        ACALL INPRETRY            Do error logging, etc.
 005E96 1222/4740 C7DA             35424  2                        IF    (R2,NEG),CVABORT    Always abort if logging off
 005E9C 47F0 7112            05D84 35441  2                        B     SEGRSEND
 005EA0                            35442  1                      END
                                   35446  1                      ¿þþþþþþþþþþþþþþþþþþþþþþþþþþþþþþþþþþþþþþþÜ
                                   35447  1                      Ÿ  Process the Samson response packet.  Ÿ
                                   35448  1                      ¾þþþþþþþþþþþþþþþþþþþþþþþþþþþþþþþþþþþþþþþ»
 005EA0 58E0 752E/0DEE       061A0 35449  1                      ACALL INPROC              Process response packet
 005EA6 4720 7112            05D84 35453  1                      BP    SEGRSEND            Bad stuff, resend packet
 005EAA 47B0 72A0            05F12 35454  1                      IF    NEG,BEGIN           Do another read...
                                   35465  2                        ¿þþþþþþþþþþþþþþþþþþþþþÜ
                                   35466  2                        Ÿ  Continue reading.  Ÿ
                                   35467  2                        ¾þþþþþþþþþþþþþþþþþþþþþ»
 005EAE 59F0 7532/4770_      061A4 35468  2                        IF    (R15,EQ,-8),'CLEAR SSGTMOUT'  ACK'd, no timeout now
                                   35496  2
 005EBC D23B 8028 B050 00008 00050 35497  2                        MVC   SSGCB,CPSEG         Save standard seg buffer info
 005EC2 4110 62CC/4100_      002CC 35498  2                        SEGINIT SAMWKBUF,,.CPSEG
 005ED4 D203 B074 804C 00074 0002C 35525  2                        MVC   CPSEGRTN,SSGCBRTN   Set appropriate routine
 005EDA D20D 8064 BC7A 00044 00C7A 35526  2                        MVC   SSGTRM,CPTRM        Save terminal I/O options
 005EE0 9140 BD55/47E0_00D55       35527  2                        IF    CPFQUIET,'SET SSGFQUIET'  Remember if it was QUIET
 005EEC D70D BC7A BC7A 00C7A 00C7A 35553  2                        CLEAR CPTRM               Set our options
 005EF2 9680 BC7C/9610_00C7C       35560  2                        SET   CPFTRAN,CPFNMOD,CPFNONL  (Typeahead is OK here)
 005EFE 9680 BC7B/9640_00C7B       35574  2                        SET   CPFCLEAN,CPFNECHO,CPFNPAU
 005F0A 94BF BD55      00D55       35588  2                        CLEAR CPFQUIET            Reset QUIET
                                   35595  2
 005F0E 47F0 71DA            05E4C 35596  2                        B     SEGSREAD            Try reading again
 005F12                            35597  1                      END
                                   35601  1                      ¿þþþþþþþþþþþþþþþþþþþþþþþþþþþþþþþþÜ
                                   35602  1                      Ÿ  Kick packet sequence number.  Ÿ
                                   35603  1                      ¾þþþþþþþþþþþþþþþþþþþþþþþþþþþþþþþþ»
 005F12 48F0 6126            00126 35604  1                      LH    R15,SAMSSEQ
 005F16 41F0 F001            00001 35605  1                      LA    R15,@R15+1          Kick sequence number
 005F1A 54F0 7536            061A8 35606  1                      N     R15,=A(X'F')        Modulo 16
 005F1E 40F0 6126            00126 35607  1                      STH   R15,SAMSSEQ         Save new sequence number
1SAM      (SAM2193) (12:54) (15MAR04) Samson Interface Routines                                                             Page  100
0Current Usings:  (SEGCB,R5) (SAMWA,R6) (*,R7) (SSGWA-(4+28),R8) (CP,R11) (CV,R12)
0Loc    Object Code    Addr1 Addr2  Stmt Lv Lineno    Source Statement           (Hibal 5, Asmedit 3.3)  HLASM R4.0  2004/03/15 12.54
+___    ______ ____    _____ _____  ____ __ ______    ______ _________
0                                  35608  1                      ¿þþþþþþþþþþþþþþþþþþþþþþþþþÜ
                                   35609  1                      Ÿ  Process error packet.  Ÿ
                                   35610  1                      ¾þþþþþþþþþþþþþþþþþþþþþþþþþ»
 005F22 D501 6124 612A_00124 0012A 35611  1                      IF    (SAMSCMD,NE,SAMRCMD),BEGIN  Received different type...
 005F2C 95D7 612A/4770_0012A       35629  2                        IF    (SAMRCMD,EQ,'P'),BEGIN  Path status packet...
 005F34 95D9 612B/4780_0012B       35646  3                          IF    (SAMRCMD+1,EQ,'R'),SEGRSEND  Resend previous
                                   35666  3
 005F3C D603 B05C B05C_0005C 0005C 35667  3                          TCCR
 005F5C 1BFF                       35729  3                          CLEAR R15
 005F5E 58E0 753E/0DEE       061B0 35733  3                          ACALL INLINE              Get packet text
 005F64 5900 7542/47D0_      061B4 35737  3                          IF    (R0,GT,8),BEGIN     We have a message...
 005F6C D507 1000 C4D8_00000 004D8 35754  4                            IF    ('CLC @R1(8),CVBLANKS',NE),'MVC CPERRID,@R1'
 005F7C 4110 1008            00008 35773  4                            LA    R1,@R1+8
 005F80 4B00 7550            061C2 35774  4                            SH    R0,=H'8'
 005F84 41F0 B050/58E0_      00050 35775  4                            TSEG  (R1),(R0)           Error message
 005F8E                            35799  3                          END
                                   35803  3
 005F8E 41F0 60E8/58E0_      000E8 35804  3                          SEGCLR
 005F98 9602 6004      00004       35817  3                          SET   SAMFERC             An error occurred
 005F9C 95C5 612B/4770_0012B       35823  3                          IF    (SAMRCMD+1,EQ,'E'),'SET CPFERROR+CPFABORT'
 005FA8 95C1 612B/4770_0012B       35854  3                          IF    (SAMRCMD+1,EQ,'A'),'SET CPFABORT'
 005FB4 9104 6004/4710_00004       35882  3                          IF    SAMFERET,SEGEXIT    Return to caller
 005FBC 47F0 C7DE            007DE 35900  3                          B     CVNEXT              Scram
 005FC0                            35901  2                        END
                                   35905  2
 005FC0 41F0 60E8/58E0_      000E8 35906  2                        SEGCLR
 005FCA 4110 7555/4100_      061C7 35919  2                        ABORT 'Samson interface error.'
 005FD6                            35926  1                      END
 005FD6                            35930                       END
                                   35934              ***
                                   35935              ***  SEGWR/SEGCLR
                                   35936              ***
 005FD6 9502 5000/4780_00000       35937                       IF    (SEGCBWR,OR,SEGCBCLR),BEGIN  SEGWR/SEGCLR...
 005FE6 D709 60DE 60DE 000DE 000DE 35966  1                      CLEAR SAMSINIT
 005FEC 1BFF                       35973  1                      CLEAR R15                 Assume A-OK
 005FEE                            35977                       END
                                   35981
 005FEE 18D8/9828 D004_            35982              SEGEXIT  PEND
 DROP   SEGCB,R5
 DROP   SAMWA,R6
 DROP   SSGWA-(4+28),R8
 DROP   *,R7
1SAM      (SAM2193) (12:54) (15MAR04) Samson Interface Routines                                                             Page  101
0Current Usings:  (CP,R11) (CV,R12)
0Loc    Object Code    Addr1 Addr2  Stmt Lv Lineno    Source Statement           (Hibal 5, Asmedit 3.3)  HLASM R4.0  2004/03/15 12.54
+___    ______ ____    _____ _____  ____ __ ______    ______ _________
0                                  36019              ¿þþþþþþþþþþþþþþþþþþþþþþþþþþþþþþþþþþþþþþþþþþþþþþþþþþþþþþþþþþþþþþþþþþþþþÜ
                                   36020              Ÿ                                                                     Ÿ
                                   36021              Ÿ  INTEXT -- Local routine to get the next "text line" from a         Ÿ
                                   36022              Ÿ    Samson file.  This routine handles all splitting/wrapping        Ÿ
                                   36023              Ÿ    lines that are too long.  This routine also handles assembling   Ÿ
                                   36024              Ÿ    lines that are split between multiple packets.                   Ÿ
                                   36025              Ÿ                                                                     Ÿ
                                   36026              Ÿ    On entry:                                                        Ÿ
                                   36027              Ÿ      SAMWA contains current buffer                                  Ÿ
                                   36028              Ÿ                                                                     Ÿ
                                   36029              Ÿ    On exit, R15 (and cc):                                           Ÿ
                                   36030              Ÿ      0 - ok; R1,R0 - line loc, len                                  Ÿ
                                   36031              Ÿ      4 - end of file                                                Ÿ
                                   36032              Ÿ                                                                     Ÿ
                                                      ¾þþþþþþþþþþþþþþþþþþþþþþþþþþþþþþþþþþþþþþþþþþþþþþþþþþþþþþþþþþþþþþþþþþþþþ»
0005FFC 50E0 D000/9008_      00000 36033              INTEXT   PROC
 USING  *,R7
 006016 5860 BE58            00E58 36072                       L     R6,CPDEVP
 USING  SAMWA,R6                   36073                       WITH  (SAMWA,R6)
 00601A D502 71AE 6000_061C4 00000 36086                       FAIL  (SAMWA,NE,'SAM'),BADSAM,'Bad SAMWA ptr'
                                   36115
                                   36116                       SEGDEF SAMINSG            Our input seg buffer
                                   36117                       ¿þþþþþþþþþþþþþþþþþþþþþþþþþþþþþþþþþþþþþþþþþþÜ
                                   36118                       Ÿ  Get the next data buffer if necessary.  Ÿ
                                   36119                       ¾þþþþþþþþþþþþþþþþþþþþþþþþþþþþþþþþþþþþþþþþþþ»
 00603C D603 619C 619C_0019C 0019C 36120                       IF    (SAMINSGLENF,Z),BEGIN  Get a new buffer...
 006046 58E0 719A/0DEE       061B0 36136  1                      ACALL INLINE              Get the next line segment
 00604C 4720 7100            06116 36140  1                      BP    INTXEXIT            End of file, scram
                                   36141  1
 006050 185F                       36142  1                      LR    R5,R15              Save return code
                                   36143  1
 006052 41F0 6190/58E0_      00190 36144  1                      SEG   (R1),(R0)           Save line (or line segment)
                                   36167  1                      ¿þþþþþþþþþþþþþþþþþþþþþþþþþþþþþþþþþþþþþþþþþþþþþþþþþþþþþþþþþÜ
                                   36168  1                      Ÿ  Handle partial line (continuation lines will follow).  Ÿ
                                   36169  1                      ¾þþþþþþþþþþþþþþþþþþþþþþþþþþþþþþþþþþþþþþþþþþþþþþþþþþþþþþþþþ»
 00605C 1255/47B0 706C             36170  1                      WHILE (R5,NEG),BEGIN      Partial line...
 006062 D503 71A6 619C_061BC 0019C 36186  2                        IF    (SAMINSGLENF,GT,3500),EXIT  !! TEMP !!
 00606C 58E0 719A/0DEE       061B0 36207  2                        ACALL INLINE              Get the next line segment
 006072 185F                       36211  2                        LR    R5,R15              Save return code
 006074 41F0 6190/58E0_      00190 36212  2                        SEG   (R1),(R0)           Add in next segment
 00607E 47F0 7046            0605C 36235  1                      END
 006082                            36240                       END
                                   36244
 006082 5810 61B0/5800_      001B0 36245                       SETMSG L:SAMINSGLOC,L:SAMINSGLENF  Current line
                                   36257                       ¿þþþþþþþþþþþþþþþþþþþþþþþþþþþþþþþþþþþþþþþþþþþþþþþþþþþþþþþþþþþþþþþÜ
                                   36258                       Ÿ  Handle split and wrap here.  Split means split the line at   Ÿ
                                   36259                       Ÿ    length SAMWRAPL and wrap means split the line at the last  Ÿ
                                   36260                       Ÿ    blank before or at SAMWRAPL.                               Ÿ
                                   36261                       ¾þþþþþþþþþþþþþþþþþþþþþþþþþþþþþþþþþþþþþþþþþþþþþþþþþþþþþþþþþþþþþþþ»
 00608A 4850 60DC            000DC 36262                       LH    R5,SAMWRAPL         Get WRAP length
 00608E 1905/4730 7084             36263                       IF    (R0,LE,R5),BEGIN    No need to split/wrap...
 006094 D703 619C 619C 0019C 0019C 36278  1                      CLEAR SAMINSGLENF         Reset seg buffer
 00609A                            36285                       END
1SAM      (SAM2193) (12:54) (15MAR04) Samson Interface Routines                                                             Page  102
0Current Usings:  (SAMWA,R6) (*,R7) (CP,R11) (CV,R12)
0Loc    Object Code    Addr1 Addr2  Stmt Lv Lineno    Source Statement           (Hibal 5, Asmedit 3.3)  HLASM R4.0  2004/03/15 12.54
+___    ______ ____    _____ _____  ____ __ ______    ______ _________
0                                  36289                       ¿þþþþþþþþþþþþÜ
                                   36290                       Ÿ  Do wrap.  Ÿ
                                   36291                       ¾þþþþþþþþþþþþ»
 00609A 7088/47F0 70FE 0609A 06092 36292                       ELSE  BEGIN               Need to split/wrap...
 00609E 9180 6007/4710_00007       36303  1                      IF    ~SAMFSPLT,BEGIN     Wrap at a blank...
 0060A6 4125 1000            00000 36318  2                        LA    R2,@R1(R5)          Last+1 position
 0060AA 1255/47D0 70AA             36319  2                        WHILE (R5,POS),BEGIN      Backscan for blank...
 0060B0 9540 2000/4780_00000       36335  3                          IF    (@R2,EQ,' '),EXIT   Got it, scram
 0060B8 0620                       36354  3                          DECR  R2                  Back up
 0060BA 0650                       36356  3                          DECR  R5                  One less char now
 0060BC 47F0 7094            060AA 36358  2                        END
 0060C0 1255/4770 70B4_            36363  2                        IF    (R5,Z),'LH R5,SAMWRAPL'  If no blanks, use split len
 0060CA                            36383  1                      END
                                   36387  1
 0060CA 1821                       36388  1                      LR    R2,R1
 0060CC 41E0 62CC/18F5_      002CC 36389  1                      MOVEL SAMWKBUF,@R2,(R5)   Save our line
                                   36411  1
 0060D8 5800 61B0            001B0 36412  1                      L     R0,SAMINSGLOC       R0 = start of buffer
 0060DC 1820                       36413  1                      LR    R2,R0
 0060DE 1A25                       36414  1                      AR    R2,R5               R2 = unprocessed stuff in buffer
 0060E0 5810 619C            0019C 36415  1                      L     R1,SAMINSGLENF
 0060E4 1B15                       36416  1                      SR    R1,R5               R1 = length of remaining text
                                   36417  1
 0060E6 9180 6007/4710_00007       36418  1                      IF    ~SAMFSPLT,BEGIN     Handle text after a wrap...
 0060EE 1211/47D0 70F0             36433  2                        WHILE (R1,POS),BEGIN      Trim leading blanks...
 0060F4 9540 2000/4770_00000       36449  3                          IF    (@R2,NE,' '),EXIT   Stop at non-blank
 0060FC 4120 2001            00001 36468  3                          LA    R2,@R2+1            Next char
 006100 0610                       36469  3                          DECR  R1                  One less now
 006102 47F0 70D8            060EE 36471  2                        END
 006106                            36476  1                      END
                                   36480  1
 006106 5010 619C            0019C 36481  1                      ST    R1,SAMINSGLENF
 00610A 1831                       36482  1                      LR    R3,R1
 00610C 0E02                       36483  1                      MVCL  R0,R2               Move data over
                                   36484  1
 00610E 4110 62CC/1805       002CC 36485  1                      SETMSG SAMWKBUF,(R5)       This line
 006114                            36499                       END
                                   36503
 006114 1BFF                       36504                       CLEAR R15                 Set A-ok return code
                                   36508              *
                                   36509              *
 006116 9001 8004            00004 36510              INTXEXIT PRETURN (R0,R1)           Return data ptrs
 00611A 18D8/9808 D004_            36512                       PEND
 DROP   SAMWA,R6
 DROP   *,R7
                                   36537
                                   36538                       QLTORG
                                   36583
                                   36584                       SEGDEF SAMSG              (General default)
1SAM      (SAM2193) (12:54) (15MAR04) Samson Interface Routines                                                             Page  103
0Current Usings:  (CP,R11) (CV,R12)
0Loc    Object Code    Addr1 Addr2  Stmt Lv Lineno    Source Statement           (Hibal 5, Asmedit 3.3)  HLASM R4.0  2004/03/15 12.54
+___    ______ ____    _____ _____  ____ __ ______    ______ _________
0                                  36586              ¿þþþþþþþþþþþþþþþþþþþþþþþþþþþþþþþþþþþþþþþþþþþþþþþþþþþþþþþþþþþþþþþþþþþþþÜ
                                   36587              Ÿ                                                                     Ÿ
                                   36588              Ÿ  INTRAN -- Local routine to read the next transparent line from     Ÿ
                                   36589              Ÿ    a Samson file.  (This routine will get another packet if         Ÿ
                                   36590              Ÿ    necessary.)                                                      Ÿ
                                   36591              Ÿ                                                                     Ÿ
                                   36592              Ÿ    On entry:                                                        Ÿ
                                   36593              Ÿ      SAMWA contains current buffer                                  Ÿ
                                   36594              Ÿ                                                                     Ÿ
                                   36595              Ÿ    On exit, R15 (and cc):                                           Ÿ
                                   36596              Ÿ      0 - ok; R1,R0 - line loc, len                                  Ÿ
                                   36597              Ÿ      4 - end of file                                                Ÿ
                                   36598              Ÿ                                                                     Ÿ
                                                      ¾þþþþþþþþþþþþþþþþþþþþþþþþþþþþþþþþþþþþþþþþþþþþþþþþþþþþþþþþþþþþþþþþþþþþþ»
0000000                00000 0009E 36599              INTWA    RECORD BEGIN
                                   36607  1           INTSG      SEGCB ,                   Working segcb
 000000 00                         36608  1 01-SEGCB +$$$SEGCB864   DS 0F
 INTSGCOD.INTSGSEG 01 EQ
 INTSGCOD.INTSGWR  02 EQ
 INTSGCOD.INTSGCLR 03 EQ
 INTSGCOD.INTSGSPP 04 EQ
 INTSGCOD.INTSGOVF 05 EQ
 INTSGCOD.INTSGCR  06 EQ
 INTSGCOD.INTSGMAR 07 EQ
 000001 00                         36683  1 01-SEGCB +           DC    X'00'               Reserved
 000002 0000                              1          +
 000004 00000000                   36684  1 01-SEGCB +INTSGMAXF   DC   A(0)                Maximum buffer length
 000008 00000000                   36685  1 01-SEGCB +INTSGMRKF   DC   A(0)                Length at last mark
 00000C 00000000                   36686  1 01-SEGCB +INTSGLENF   DC   A(0)                Current length
 000010 00000000                   36687  1 01-SEGCB +INTSGINDF   DC   A(0)                Overflow/indent count
 000014 00000000                   36688  1 01-SEGCB +INTSGERR   DC    A(0)                Address of error recovery routine
 000018 0000000000000000           36689  1 01-SEGCB +           DC    2F'0'               Reserved
 000020 00000000                   36690  1 01-SEGCB +INTSGLOC   DC    A(0)                Location of buffer
 000024 00000000                   36691  1 01-SEGCB +INTSGRTN   DC    A(0)                Processing routine
 000028 0000000000000000           36692  1 01-SEGCB +           DC    4F'0'               Reserved
 000038 00000000                   36693  1 01-SEGCB +INTSGUSR   DC    A(0)                USER field
                                   36694  1 01-SEGCB +INTSG      EQU   $$$SEGCB864,*-$$$SEGCB864,C'X'
                                   36695  1
 00003C                            36696  1           INTEOFC    DS    CL2                 Work area for eof checking
 00003E                            36697  1           INTBUF     DS    CL96                Must be at least 66 chars
 00009E                0009E 0009E 36698                       END
                                   36707              þþþþ
 0061DE 50E0 D000/9008_      00000 36708              INTRAN   PROC  INTWA
 USING  *,R7
 USING  INTWA-(4+36),R8
 0061F8 D79D 8028 8028 00000 00000 36758                       CLEAR INTWA
                                   36765
 0061FE 5860 BE58            00E58 36766                       L     R6,CPDEVP
 USING  SAMWA,R6                   36767                       WITH  (SAMWA,R6)
 006202 D502 7B1C 6000_06D14 00000 36780                       FAIL  (SAMWA,NE,'SAM'),BADSAM,'Bad SAMWA ptr'
                                   36809
 006224 4110 8066/4100_      0003E 36810                       SEGINIT INTBUF,,INTSG
1SAM      (SAM2193) (12:54) (15MAR04) Samson Interface Routines                                                             Page  104
0Current Usings:  (SAMWA,R6) (*,R7) (INTWA-(4+36),R8) (CP,R11) (CV,R12)
0Loc    Object Code    Addr1 Addr2  Stmt Lv Lineno    Source Statement           (Hibal 5, Asmedit 3.3)  HLASM R4.0  2004/03/15 12.54
+___    ______ ____    _____ _____  ____ __ ______    ______ _________
0                                  36837                       ¿þþþþþþþþþþþþþþþþþþþþþþþþþþþþþþþþþþþþþþþþþþþþþþþþþþþþþþþþþÜ
                                   36838                       Ÿ  Keep adding data to our "INTBUF" buffer until we have  Ÿ
                                   36839                       Ÿ    64 bytes.                                            Ÿ
                                   36840                       ¾þþþþþþþþþþþþþþþþþþþþþþþþþþþþþþþþþþþþþþþþþþþþþþþþþþþþþþþþþ»
 006236 D503 7A3C 8034_06C34 0000C 36841                       WHILE (INTSGLENF,LT,64),BEGIN  More work...
 006240 5850 61B0            001B0 36861  1                      L     R5,SAMINSGLOC       Input buffer ptr
 006244 5840 619C            0019C 36862  1                      L     R4,SAMINSGLENF      Remaining input buffer length
 006248 41F0 0040            00040 36863  1                      LA    R15,64
 00624C 5BF0 8034            0000C 36864  1                      S     R15,INTSGLENF       Number of bytes we want
 006250 194F/47D0 7060_            36865  1                      CEIL  R4,R15              We only need this much
 006258 1815/1804/41F0_            36871  1                      SEG   (R5),(R4)           Add transparent data
                                   36896  1
 006266 1A54                       36897  1                      AR    R5,R4
 006268 5050 61B0            001B0 36898  1                      ST    R5,SAMINSGLOC       Kick input buffer ptr
 00626C 58F0 619C            0019C 36899  1                      L     R15,SAMINSGLENF
 006270 1BF4                       36900  1                      SR    R15,R4
 006272 50F0 619C            0019C 36901  1                      ST    R15,SAMINSGLENF     Adjust remaining length
                                   36902  1                      ¿þþþþþþþþþþþþþþþþþþþþþþþþþþþþþþþþþþþþþþþþþþþþþþþþþþþþþþþþÜ
                                   36903  1                      Ÿ  Convert data from read buffer in to unpacked data in  Ÿ
                                   36904  1                      Ÿ    input buffer.                                       Ÿ
                                   36905  1                      ¾þþþþþþþþþþþþþþþþþþþþþþþþþþþþþþþþþþþþþþþþþþþþþþþþþþþþþþþþ»
 006276 12FF/4720 7184             36906  1                      IF    (R15,NP),BEGIN      Nothing left, get more data...
 00627C D601 6138 6138_00138 00138 36920  2                        IF    (SAMRDLEN,Z),BEGIN  Get a new buffer...
 006286 9120 6005/4710_00005       36936  3                          IF    SAMFEOF,INTEOF      We are at the end of file, scram
                                   36954  3
 00628E 58E0 7A44/0DEE       06C3C 36955  3                          ACALL SEGHEAD             Send another request packet
 006294 58E0 7A48/0DEE       06C40 36959  3                          ACALL SEGTRAIL
 00629A 1B00/41F0 60E8_            36963  3                          SEGWR ,,.SAMSG
                                   36987  3
 0062A6 D601 6138 6138_00138 00138 36988  3                          IF    (SAMRDLEN,Z),BEGIN  This is odd...
 0062B0 4110 7B1F/4100_      06D17 37004  4                            TSEG  'Samson file transfer logic error '
 0062C2 4110 7B40/4100_      06D38 37022  4                            ABORT '(null data packet).'
 0062CE                            37029  3                          END
                                   37033  3
 0062CE 5850 6134            00134 37034  3                          L     R5,SAMRDLOC         R5 = read data location
 0062D2 4840 6138            00138 37035  3                          LH    R4,SAMRDLEN         R4 = read data length
 0062D6 5940 7A50/4750_      06C48 37036  3                          IF    (R4,GE,2),BEGIN     Check for "\." eof sequence...
 0062DE 4124 5000            00000 37053  4                            LA    R2,@R5(R4)          R2 = end of buffer
 0062E2 4B20 7ACC            06CC4 37054  4                            SH    R2,=H'2'            Back up two chars
 0062E6 D201 8064 2000 0003C 00000 37055  4                            MVC   INTEOFC,@R2
 0062EC D401 8064 7ACE 0003C 06CC6 37056  4                            NC    INTEOFC,=X'7F7F'
 0062F2 D501 7AD0 8064_06CC8 0003C 37057  4                            IF    (INTEOFC,EQ,X'5C2E'),BEGIN  It's eof if it's "\."...
 0062FC 4B40 7ACC            06CC4 37074  5                              SH    R4,=H'2'            Don't count eof chars in length
 006300 4040 6138            00138 37075  5                              STH   R4,SAMRDLEN         Save length w/o eof chars
 006304 9620 6005      00005       37076  5                              SET   SAMFEOF             Remember we are at eof
 006308                            37082  4                            END
 006308                            37086  3                          END
 006308                            37090  2                        END
                                   37094  2
 006308 5850 6134            00134 37095  2                        L     R5,SAMRDLOC         R5 = read data location
 00630C 4840 6138            00138 37096  2                        LH    R4,SAMRDLEN         R4 = read data length
                                   37097  2           *!!TEMP!!CEIL  R4,512              Take a fair sized chunk
 006310 4130 6000            00000 37098  2                        LA    R3,SAMWA
 006314 4A30 7AD2            06CCA 37099  2                        AH    R3,=AL2(SAMINBUF-SAMWA)  Addr of SAMINBUF
1SAM      (SAM2193) (12:54) (15MAR04) Samson Interface Routines                                                             Page  105
0Current Usings:  (SAMWA,R6) (*,R7) (INTWA-(4+36),R8) (CP,R11) (CV,R12)
0Loc    Object Code    Addr1 Addr2  Stmt Lv Lineno    Source Statement           (Hibal 5, Asmedit 3.3)  HLASM R4.0  2004/03/15 12.54
+___    ______ ____    _____ _____  ____ __ ______    ______ _________
0006318 18E3/18F4/1805_            37100  2                        MOVEL @R3,@R5,(R4)        Copy in read buffer text
                                   37122  2
 006322 4154 5000            00000 37123  2                        LA    R5,@R5(R4)
 006326 5050 6134            00134 37124  2                        ST    R5,SAMRDLOC         Update current rdloc ptr
 00632A 48F0 6138            00138 37125  2                        LH    R15,SAMRDLEN
 00632E 1BF4                       37126  2                        SR    R15,R4
 006330 40F0 6138            00138 37127  2                        STH   R15,SAMRDLEN        Adjust current rdlen count
                                   37128  2                        ¿þþþþþþþþþþþþþþþþþþþþþþþþþþþþþþþþþþþþþþþþþþþþþþþþÜ
                                   37129  2                        Ÿ  Do the required decoding of the packet data.  Ÿ
                                   37130  2                        ¾þþþþþþþþþþþþþþþþþþþþþþþþþþþþþþþþþþþþþþþþþþþþþþþþ»
 006334 1813/1804                  37131  2                        SETMSG (R3),(R4)           Line work area
 006338 910C 6129/47E0_00129       37143  2                        IF    SAMRF7BIT,'ACALL IN7BIT'  7-bit format
 006346 7152/47F0 7160_06346 0633E 37167  2                        ELSEIF SAMRFPCK,'ACALL INPACK'  Packed format
 006358 7164/47F0 7172_06358 06350 37200  2                        ELSEIF SAMRFHEX,'ACALL INHEX'  Hex format
 00636A 7176/47F0 717C_0636A 06362 37233  2                        ELSE  'ACALL INDATA'
 006374 5010 61B0            001B0 37253  2                        ST    R1,SAMINSGLOC       Save input line...
 006378 5000 619C            0019C 37254  2                        ST    R0,SAMINSGLENF      ...ptrs
 00637C                            37255  1                      END
 00637C 47F0 703E            06236 37259                       END
                                   37264                       ¿þþþþþþþþþþþþþþþþþþþþþþþþþþþþþþþþþþþþþþþþþþþþþþþþÜ
                                   37265                       Ÿ  Build the "transparent line" for the caller.  Ÿ
                                   37266                       ¾þþþþþþþþþþþþþþþþþþþþþþþþþþþþþþþþþþþþþþþþþþþþþþþþ»
 006380 5850 8048            00020 37267              INTFLIN  L     R5,INTSGLOC
 006384 5840 8034            0000C 37268                       L     R4,INTSGLENF
                                   37269
 006388 927C 62CC      002CC       37270                       MVI   SAMWKBUF,C'@'       Starting guard character
 00638C D23F 62CD 5000 002CD 00000 37271                       MVC   SAMWKBUF+1(64),@R5  Copy in transparent line
 006392 4124 62CD            002CD 37272                       LA    R2,SAMWKBUF+1(R4)
 006396 927C 2000      00000       37273                       MVI   @R2,C'@'            Ending guard character
                                   37274
 00639A 4110 62CC/4100_      002CC 37275                       SETMSG SAMWKBUF,@R4+2      Returned line loc, len
 0063A2 9110 6006/4710_00006       37291                       IF    ~SAMFASCII,'VCALL TOEBCDIC'  Convert to EBCDIC
                                   37315
 0063B0 9001 8004            00004 37316                       PRETURN (R0,R1)           Return data ptrs
 0063B4 1BFF                       37318                       CLEAR R15                 A-ok
 0063B6 47F0 71D0            063C8 37322                       B     INTEXIT             Scram
                                   37323                       ¿þþþþþþþþþþþþþþþþþþþþþþþþÜ
                                   37324                       Ÿ  End of file reached.  Ÿ
                                   37325                       ¾þþþþþþþþþþþþþþþþþþþþþþþþ»
 0063BA 41F0 0004            00004 37326              INTEOF   LA    R15,4               Assume eof return code
 0063BE D603 8034 8034_0000C 0000C 37327                       IF    (INTSGLENF,NZ),INTFLIN  We have some data
                                   37346
 0063C8 18D8/9808 D004_            37347              INTEXIT  PEND
 DROP   SAMWA,R6
 DROP   INTWA-(4+36),R8
 DROP   *,R7
                                   37378
                                   37379                       SEGDEF SAMSG              (General default)
1SAM      (SAM2193) (12:54) (15MAR04) Samson Interface Routines                                                             Page  106
0Current Usings:  (CP,R11) (CV,R12)
0Loc    Object Code    Addr1 Addr2  Stmt Lv Lineno    Source Statement           (Hibal 5, Asmedit 3.3)  HLASM R4.0  2004/03/15 12.54
+___    ______ ____    _____ _____  ____ __ ______    ______ _________
0                                  37381              ¿þþþþþþþþþþþþþþþþþþþþþþþþþþþþþþþþþþþþþþþþþþþþþþþþþþþþþþþþþþþþþþþþþþþþþÜ
                                   37382              Ÿ                                                                     Ÿ
                                   37383              Ÿ  INLINE -- Local routine to read the next line from a Samson        Ÿ
                                   37384              Ÿ    file.  (This routine will get another packet if necessary.)      Ÿ
                                   37385              Ÿ                                                                     Ÿ
                                   37386              Ÿ    On entry:                                                        Ÿ
                                   37387              Ÿ      SAMWA contains current buffer                                  Ÿ
                                   37388              Ÿ                                                                     Ÿ
                                   37389              Ÿ    On exit, R15 (and cc):                                           Ÿ
                                   37390              Ÿ      0 - ok; R1,R0 - line loc, len                                  Ÿ
                                   37391              Ÿ     -4 - R1,R0 - partial loc, len (next line will contain rem)      Ÿ
                                   37392              Ÿ      4 - end of file                                                Ÿ
                                   37393              Ÿ                                                                     Ÿ
                                                      ¾þþþþþþþþþþþþþþþþþþþþþþþþþþþþþþþþþþþþþþþþþþþþþþþþþþþþþþþþþþþþþþþþþþþþþ»
0000000                00000 00003 37394              INLWA    RECORD BEGIN
 000000 00                         37402  1           INLFLAG    FLAG
 INLFLAG.INLFCONT  80 ONES         37406  1                      FLAG  INLFCONT            - Line is continued
                                   37411  1
 000001                            37412  1           INLSEP     DS    CL2                 Working line separator chars
 000003                00003 00003 37413                       END
                                   37422              þþþþ
 0063D6 50E0 D000/9008_      00000 37423              INLINE   PROC  INLWA
 USING  *,R7
 USING  INLWA-(4+36),R8
 0063F0 D702 8028 8028 00000 00000 37473                       CLEAR INLWA
                                   37480
 0063F6 5860 BE58            00E58 37481                       L     R6,CPDEVP
 USING  SAMWA,R6                   37482                       WITH  (SAMWA,R6)
 0063FA D502 7924 6000_06D14 00000 37495                       FAIL  (SAMWA,NE,'SAM'),BADSAM,'Bad SAMWA ptr'
                                   37524                       ¿þþþþþþþþþþþþþþþþþþþþþþþþþþþþþþþþþþþþþþþþþþÜ
                                   37525                       Ÿ  Get the next data buffer if necessary.  Ÿ
                                   37526                       ¾þþþþþþþþþþþþþþþþþþþþþþþþþþþþþþþþþþþþþþþþþþ»
 00641C D601 6138 6138_00138 00138 37527                       IF    (SAMRDLEN,Z),BEGIN  Get a new buffer...
 006426 58E0 784C/0DEE       06C3C 37543  1                      ACALL SEGHEAD             Send another request packet
 00642C 58E0 7850/0DEE       06C40 37547  1                      ACALL SEGTRAIL
 006432 1B00/41F0 60E8_            37551  1                      SEGWR
 00643E D601 6138 6138_00138 00138 37575  1                      IF    (SAMRDLEN,Z),BEGIN  This is odd...
 006448 4110 7927/4100_      06D17 37591  2                        TSEG  'Samson file transfer logic error '
 00645A 4110 7948/4100_      06D38 37609  2                        ABORT '(null data packet).'
 006466                            37616  1                      END
 006466                            37620                       END
                                   37624                       ¿þþþþþþþþþþþþþþþþþþþþþþþþþþþþþþþþþþþþþþþþþÜ
                                   37625                       Ÿ  Get the next line in the data buffer.  Ÿ
                                   37626                       ¾þþþþþþþþþþþþþþþþþþþþþþþþþþþþþþþþþþþþþþþþþ»
 006466 5850 6134            00134 37627                       L     R5,SAMRDLOC
 00646A 4840 6138            00138 37628                       LH    R4,SAMRDLEN
 00646E 1244/47D0 7126             37629                       WHILE (R4,POS),BEGIN      Look for line terminator...
 006474 18F4                       37645  1                      LR    R15,R4
 006476 59F0 7870/47D0_      06C60 37646  1                      CEIL  R15,256
 006482 411F 5000            00000 37665  1                      LA    R1,@R5(R15)
 006486 58E0 7874            06C64 37666  1                      L     R14,=A(ASCSTRT)
 00648A 06F0/44F0 797C_            37667  1                      DEX   R15,'TRT @R5(0),@R14'  Find ASCII \
 006490 1B15                       37686  1                      SR    R1,R5
1SAM      (SAM2193) (12:54) (15MAR04) Samson Interface Routines                                                             Page  107
0Current Usings:  (SAMWA,R6) (*,R7) (INLWA-(4+36),R8) (CP,R11) (CV,R12)
0Loc    Object Code    Addr1 Addr2  Stmt Lv Lineno    Source Statement           (Hibal 5, Asmedit 3.3)  HLASM R4.0  2004/03/15 12.54
+___    ______ ____    _____ _____  ____ __ ______    ______ _________
0                                  37687  1
 006492 1A51                       37688  1                      AR    R5,R1               Kick...
 006494 1B41                       37689  1                      SR    R4,R1               ...buffer ptrs
 006496 47D0 7126            06516 37690  1                      IF    NP,EXIT
                                   37704  1
 00649A D201 8029 5000 00001 00000 37705  1                      MVC   INLSEP,@R5
 0064A0 58F0 C8C0            008C0 37706  1                      L     R15,CVEB7TBL
 0064A4 DC01 8029 F000 00001 00000 37707  1                      TR    INLSEP,@R15         Translate to EBCDIC
 0064AA 95E0 8029/4770_00001       37708  1                      IF    (INLSEP,EQ,'\'),BEGIN  Special sequence...
 0064B2 4150 5001            00001 37725  2                        LA    R5,@R5+1            Skip...
 0064B6 0640                       37726  2                        DECR  R4                  ...past \
                                   37728  2                        ¿þþþþþþþþþþþþþþþþþþþþþþþþþþþþþþþþþþþþþþþþþþþþÜ
                                   37729  2                        Ÿ  "\;" and "\," are end of line sequences.  Ÿ
                                   37730  2                        ¾þþþþþþþþþþþþþþþþþþþþþþþþþþþþþþþþþþþþþþþþþþþþ»
 0064B8 1BFF                       37731  2                        CLEAR R15
 0064BA 955E 802A/4780_00002       37735  2                        IF    ((INLSEP+1,EQ,';'),OR,(INLSEP+1,EQ,',')),'LA R15,1'
 0064CE 12FF/4780 7106             37774  2                        IF    (R15,NZ),BEGIN      End of line...
 0064D4 4150 5001            00001 37788  3                          LA    R5,@R5+1            Skip...
 0064D8 0640                       37789  3                          DECR  R4                  ...past ;
                                   37791  3
 0064DA 5830 6134            00134 37792  3                          L     R3,SAMRDLOC         Line location...
 0064DE 1825                       37793  3                          LR    R2,R5
 0064E0 1B23                       37794  3                          SR    R2,R3
 0064E2 4B20 78D4            06CC4 37795  3                          SH    R2,=H'2'            ... and length
 0064E6 41E0 62CC/18F2_      002CC 37796  3                          MOVEL SAMWKBUF,@R3,(R2)
 0064F2 47F0 7144            06534 37818  3                          B     INLCOM
 0064F6                            37819  2                        END
                                   37823  2                        ¿þþþþþþþþþþþþþþþþþþþþþþþþÜ
                                   37824  2                        Ÿ  "\." is end of file.  Ÿ
                                   37825  2                        ¾þþþþþþþþþþþþþþþþþþþþþþþþ»
 0064F6 954B 802A/4770_00002       37826  2                        IF    (INLSEP+1,EQ,'.'),BEGIN  End of file...
 0064FE 1B00/1B11/5010_            37843  3                          CLEAR R0,R1,SAMRDLOC,SAMRDLEN
 00650A 41F0 0004            00004 37859  3                          LA    R15,4               End of file
 00650E 47F0 7240            06630 37860  3                          B     INLEXIT
 006512                            37861  2                        END
 006512                            37865  1                      END
 006512 47F0 707E            0646E 37869                       END
                                   37874                       ¿þþþþþþþþþþþþþþþþþþþþþþþþþþþþþþþþþþþþþÜ
                                   37875                       Ÿ  Packet ended with a partial line.  Ÿ
                                   37876                       ¾þþþþþþþþþþþþþþþþþþþþþþþþþþþþþþþþþþþþþ»
 006516 5830 6134            00134 37877                       L     R3,SAMRDLOC         Line location...
 00651A 1825                       37878                       LR    R2,R5
 00651C 1B23                       37879                       SR    R2,R3               ...and length
                                   37880
 00651E 1222/47D0 7144             37881                       IF    (R2,POS),BEGIN      We have some text...
 006524 9680 8028      00000       37895  1                      SET   INLFCONT            The line is incomplete
 006528 41E0 62CC/18F2_      002CC 37901  1                      MOVEL SAMWKBUF,@R3,(R2)   Save the text
 006534                            37923                       END
                                   37927              *
                                   37928              *
 006534 5050 6134            00134 37929              INLCOM   ST    R5,SAMRDLOC         Save updated...
 006538 4040 6138            00138 37930                       STH   R4,SAMRDLEN         ...buffer ptrs
1SAM      (SAM2193) (12:54) (15MAR04) Samson Interface Routines                                                             Page  108
0Current Usings:  (SAMWA,R6) (*,R7) (INLWA-(4+36),R8) (CP,R11) (CV,R12)
0Loc    Object Code    Addr1 Addr2  Stmt Lv Lineno    Source Statement           (Hibal 5, Asmedit 3.3)  HLASM R4.0  2004/03/15 12.54
+___    ______ ____    _____ _____  ____ __ ______    ______ _________
0                                  37931                       ¿þþþþþþþþþþþþþþþþþþþþþþþþþþþþþþþþþþþþþþþþþþþþþþþþÜ
                                   37932                       Ÿ  Do the required decoding of the packet data.  Ÿ
                                   37933                       ¾þþþþþþþþþþþþþþþþþþþþþþþþþþþþþþþþþþþþþþþþþþþþþþþþ»
 00653C 4110 62CC/1802       002CC 37934                       SETMSG SAMWKBUF,(R2)       Line work area
 006542 910C 6129/47E0_00129       37948                       IF    SAMRF7BIT,'ACALL IN7BIT'  7-bit format
 006550 7164/47F0 7172_06550 06548 37972                       ELSEIF SAMRFPCK,'ACALL INPACK'  Packed format
 006562 7176/47F0 7184_06562 0655A 38005                       ELSEIF SAMRFHEX,'ACALL INHEX'  Hex format
 006574 7188/47F0 718E_06574 0656C 38038                       ELSE  'ACALL INDATA'
                                   38058                       ¿þþþþþþþþþþþþþþþþþþþþþþþþþþþþþþþþþþþþþþþþþþþþþÜ
                                   38059                       Ÿ  Finally, convert to EBCDIC if neccessary.  Ÿ
                                   38060                       ¾þþþþþþþþþþþþþþþþþþþþþþþþþþþþþþþþþþþþþþþþþþþþþ»
 00657E 9001 D000/41D0_      00000 38061                       XPUSH R0,R1               Save text ptrs
                                   38064
 006586 5820 C8C0            008C0 38065                       L     R2,CVEB7TBL         ASCII to EBCDIC xl table
 00658A 9110 6004/47E0_00004       38066                       IF    SAMFASCII8,'L R2,CVEBCTBL'  8-bit ASCII version
 006596 9180 6006/47E0_00006       38087                       IF    SAMFTRAN,'L R2,CVEBCTBL'  For version 1 TRANSPARENT
 0065A2 1200/47D0 71D8             38108                       WHILE (R0,POS),BEGIN      Translate text...
 0065A8 18F0                       38124  1                      LR    R15,R0
 0065AA 59F0 7870/47D0_      06C60 38125  1                      CEIL  R15,256
 0065B6 06F0/44F0 7982_            38144  1                      DEX   R15,'TR @R1(0),@R2'    To EBCDIC
                                   38163  1
 0065BC 4110 1100            00100 38164  1                      LA    R1,@R1+256
 0065C0 4B00 78DC            06CCC 38165  1                      SH    R0,=H'256'
 0065C4 47F0 71B2            065A2 38166                       END
                                   38171
 0065C8 4BD0 78DE/9801_      06CCE 38172                       XPOP  R0,R1               Restore text ptrs
                                   38175                       ¿þþþþþþþþþþþþþþþþþþþþþþþþþþþþþþþþþþþþþþþþþþþþþþþþþþþþþþþþþþþþþþþÜ
                                   38176                       Ÿ  Usually INTRAN handles reading transparent lines and this    Ÿ
                                   38177                       Ÿ    routine handles reading text lines.  However, for version  Ÿ
                                   38178                       Ÿ    1 style transparent lines this routine is still called.    Ÿ
                                   38179                       Ÿ    That is why we have to check for TRANSPARENT here and      Ÿ
                                   38180                       Ÿ    skip the text line processing.                             Ÿ
                                   38181                       ¾þþþþþþþþþþþþþþþþþþþþþþþþþþþþþþþþþþþþþþþþþþþþþþþþþþþþþþþþþþþþþþþ»
 0065D0 9180 6006/4710_00006       38182                       IF    SAMFTRAN,INLFIN     No text processing if transparent
                                   38200                       ¿þþþþþþþþþþþþþþþþþþþþþÜ
                                   38201                       Ÿ  Do tab expansion.  Ÿ
                                   38202                       ¾þþþþþþþþþþþþþþþþþþþþþ»
 0065D8 9120 6007/4710_00007       38203                       IF    (~SAMFTABS,AND,~SAMFUFMT),BEGIN  Expand tabs...
                                   38232  1                      SETMSG (R1),(R0)
 0065E8 48F0 78E0            06CD0 38242  1                      LH    R15,=AL2(L'SAMWKBUF)  Maximum line size
 0065EC 58E0 7878/0DEE       06C68 38243  1                      VCALL DETAB               Expand tabs
 0065F2                            38247                       END
                                   38251                       ¿þþþþþþþþþþþþþþþþþþþþþþþþþþþþþþþþþþþþþþþþþþþþþþþþþþþþþþþþþþÜ
                                   38252                       Ÿ  Do formatting character expansion for APPLEASCII data.  Ÿ
                                   38253                       ¾þþþþþþþþþþþþþþþþþþþþþþþþþþþþþþþþþþþþþþþþþþþþþþþþþþþþþþþþþþ»
 0065F2 9110 6004/47E0_00004       38254                       IF    SAMFASCII8,BEGIN    Appleascii...
 0065FA 9180 6006/4710_00006       38269  1                      IF    SAMFTRAN,EXIT       Transparent, don't do anything
 006602 9104 6006/4710_00006       38287  1                      IF    SAMFUFMT,EXIT       Unformatted, don't do anything
                                   38305  1                      SETMSG (R1),(R0)
 00660A 4120 0002            00002 38315  1                      LA    R2,2                Use APPLEASCII table
 00660E 9102 6006/47E0_00006       38316  1                      IF    SAMFTEXTONLY,'LCR R2,R2'  We want TEXTONLY form
 006618 48F0 78E0            06CD0 38337  1                      LH    R15,=AL2(L'SAMWKBUF)  Maximum line size
 00661C 58E0 787C/0DEE       06C6C 38338  1                      VCALL FORMATL             Format special characters
 006622                            38342                       END
1SAM      (SAM2193) (12:54) (15MAR04) Samson Interface Routines                                                             Page  109
0Current Usings:  (SAMWA,R6) (*,R7) (INLWA-(4+36),R8) (CP,R11) (CV,R12)
0Loc    Object Code    Addr1 Addr2  Stmt Lv Lineno    Source Statement           (Hibal 5, Asmedit 3.3)  HLASM R4.0  2004/03/15 12.54
+___    ______ ____    _____ _____  ____ __ ______    ______ _________
0                                  38346
 006622 1BFF                       38347              INLFIN   CLEAR R15                 Set Rc
 006624 9180 8028/47E0_00000       38352                       IF    INLFCONT,'LH R15,=H"-4"'  Continuation Rc
                                   38373
 006630 9001 8004            00004 38374              INLEXIT  PRETURN (R0,R1)           Return data ptrs
 006634 18D8/9808 D004_            38376                       PEND
 DROP   SAMWA,R6
 DROP   INLWA-(4+36),R8
 DROP   *,R7
1SAM      (SAM2193) (12:54) (15MAR04) Samson Interface Routines                                                             Page  110
0Current Usings:  (CP,R11) (CV,R12)
0Loc    Object Code    Addr1 Addr2  Stmt Lv Lineno    Source Statement           (Hibal 5, Asmedit 3.3)  HLASM R4.0  2004/03/15 12.54
+___    ______ ____    _____ _____  ____ __ ______    ______ _________
0                                  38407              ¿þþþþþþþþþþþþþþþþþþþþþþþþþþþþþþþþþþþþþþþþþþþþþþþþþþþþþþþþþþþþþþþþþþþþþÜ
                                   38408              Ÿ                                                                     Ÿ
                                   38409              Ÿ  INREADY -- Local routine to do a terminal read for a few           Ÿ
                                   38410              Ÿ    seconds and confirm that no new input data has been sent.        Ÿ
                                   38411              Ÿ    This indicates that we are ready to resend a garbled packet.     Ÿ
                                   38412              Ÿ                                                                     Ÿ
                                   38413              Ÿ    On exit, R15 (and cc):                                           Ÿ
                                   38414              Ÿ      0 - ok                                                         Ÿ
                                   38415              Ÿ      4 - data still coming, timed out                               Ÿ
                                   38416              Ÿ                                                                     Ÿ
                                                      ¾þþþþþþþþþþþþþþþþþþþþþþþþþþþþþþþþþþþþþþþþþþþþþþþþþþþþþþþþþþþþþþþþþþþþþ»
0000000                00000 0004A 38417              INRYWA   RECORD BEGIN
                                   38425  1           INRYSG     SEGCB ,                   Saved CPSEG
 000000 00                         38426  1 01-SEGCB +$$$SEGCB931   DS 0F
 INRYSGCOD.INRYSGS 01 EQ
 INRYSGCOD.INRYSGW 02 EQ
 INRYSGCOD.INRYSGC 03 EQ
 INRYSGCOD.INRYSGS 04 EQ
 INRYSGCOD.INRYSGO 05 EQ
 INRYSGCOD.INRYSGC 06 EQ
 INRYSGCOD.INRYSGM 07 EQ
 000001 00                         38501  1 01-SEGCB +           DC    X'00'               Reserved
 000002 0000                              1          +
 000004 00000000                   38502  1 01-SEGCB +INRYSGMAXF   DC  A(0)                Maximum buffer length
 000008 00000000                   38503  1 01-SEGCB +INRYSGMRKF   DC  A(0)                Length at last mark
 00000C 00000000                   38504  1 01-SEGCB +INRYSGLENF   DC  A(0)                Current length
 000010 00000000                   38505  1 01-SEGCB +INRYSGINDF   DC  A(0)                Overflow/indent count
 000014 00000000                   38506  1 01-SEGCB +INRYSGERR   DC   A(0)                Address of error recovery routine
 000018 0000000000000000           38507  1 01-SEGCB +           DC    2F'0'               Reserved
 000020 00000000                   38508  1 01-SEGCB +INRYSGLOC   DC   A(0)                Location of buffer
 000024 00000000                   38509  1 01-SEGCB +INRYSGRTN   DC   A(0)                Processing routine
 000028 0000000000000000           38510  1 01-SEGCB +           DC    4F'0'               Reserved
 000038 00000000                   38511  1 01-SEGCB +INRYSGUSR   DC   A(0)                USER field
                                   38512  1 01-SEGCB +INRYSG     EQU   $$$SEGCB931,*-$$$SEGCB931,C'X'
                                   38513  1
 00003C                            38514  1           INRYTRM    DS    XL(L'CPTRM)         Saved CPTRM flags
 00004A                0004A 0004A 38515                       END
                                   38524              þþþþ
 006642 50E0 D000/9008_      00000 38525              INREADY  PROC  INRYWA
 USING  *,R7
 USING  INRYWA-(4+36),R8
 USING  SAMWA,R6                   38575                       WITH  (SAMWA,R6)          (Entry assumption)
 00665C D502 76B8 6000_06D14 00000 38588                       FAIL  (SAMWA,NE,'SAM'),BADSAM,'Bad SAMWA ptr.'
                                   38617
 00667E D23B 8028 B050 00000 00050 38618                       MVC   INRYSG,CPSEG        Save standard seg buffer info
                                   38619
 006684 4110 62CC/4100_      002CC 38620                       SEGINIT SAMWKBUF,,.CPSEG
 006696 D203 B074 804C 00074 00024 38647                       MVC   CPSEGRTN,INRYSGRTN  Set appropriate rtn
                                   38648
 00669C D20D 8064 BC7A 0003C 00C7A 38649                       MVC   INRYTRM,CPTRM       Save terminal I/O options
 0066A2 D70D BC7A BC7A 00C7A 00C7A 38650                       CLEAR CPTRM               Set our options
 0066A8 9680 BC7C/9610_00C7C       38657                       SET   CPFTRAN,CPFNMOD,CPFNONL,CPFNTYPE
 0066B8 9680 BC7B/9640_00C7B       38675                       SET   CPFCLEAN,CPFNECHO,CPFNPAU
1SAM      (SAM2193) (12:54) (15MAR04) Samson Interface Routines                                                             Page  111
0Current Usings:  (SAMWA,R6) (*,R7) (INRYWA-(4+36),R8) (CP,R11) (CV,R12)
0Loc    Object Code    Addr1 Addr2  Stmt Lv Lineno    Source Statement           (Hibal 5, Asmedit 3.3)  HLASM R4.0  2004/03/15 12.54
+___    ______ ____    _____ _____  ____ __ ______    ______ _________
0                                  38689                       ¿þþþþþþþþþþþþþþþþþþþþþþþþþþþþþþþþþþþÜ
                                   38690                       Ÿ  Read with timeout of 3 seconds.  Ÿ
                                   38691                       ¾þþþþþþþþþþþþþþþþþþþþþþþþþþþþþþþþþþþ»
 0066C4 4150 000A            0000A 38692                       LA    R5,10               Maximum retry count
 0066C8 1255/47D0 70A8             38693              INRYLOOP WHILE (R5,POS),BEGIN      Keep looping...
 0066CE 1B00/41F0 012C_            38710  1                      TREAD TIMEOUT=300         Read and wait for 3 seconds
 0066DA 12FF/4740 70AC             38727  1                      IF    (R15,NEG),INRYDONE  Logging off, scram
                                   38744  1
 0066E0 59F0 7618/4770_      06C74 38745  1                      IF    ((R15,EQ,101),AND,(R0,Z)),BEGIN  We got data...
 0066EE 1BFF                       38775  2                        CLEAR R15                 Set A-ok return code
 0066F0 47F0 70AC            06708 38779  2                        B     INRYDONE
 0066F4                            38780  1                      END
                                   38784  1
 0066F4 41F0 012C            0012C 38785  1                      LA    R15,300             Wait 3 second without reading
 0066F8 58E0 761C/0DEE       06C78 38786  1                      VCALL WAITER              Sit it out
                                   38790  1
 0066FE 0650                       38791  1                      DECR  R5                  One less retry
 006700 47F0 706C            066C8 38793                       END
                                   38798
 006704 41F0 0004            00004 38799                       LA    R15,4               We give up, timeout return code
                                   38800
 006708 D23B B050 8028 00050 00000 38801              INRYDONE MVC   CPSEG,INRYSG        Restore standard seg buffer info
 00670E D20D BC7A 8064 00C7A 0003C 38802                       MVC   CPTRM,INRYTRM       Restore terminal I/O options too
                                   38803
 006714 12FF                       38804                       LTR   R15,R15             Return code
 006716 4740 C7DA            007DA 38805                       BM    CVABORT             Logging off, scram
                                   38806
 00671A 18D8/9808 D004_            38807                       PEND
 DROP   SAMWA,R6
 DROP   INRYWA-(4+36),R8
 DROP   *,R7
1SAM      (SAM2193) (12:54) (15MAR04) Samson Interface Routines                                                             Page  112
0Current Usings:  (CP,R11) (CV,R12)
0Loc    Object Code    Addr1 Addr2  Stmt Lv Lineno    Source Statement           (Hibal 5, Asmedit 3.3)  HLASM R4.0  2004/03/15 12.54
+___    ______ ____    _____ _____  ____ __ ______    ______ _________
0                                  38838              ¿þþþþþþþþþþþþþþþþþþþþþþþþþþþþþþþþþþþþþþþþþþþþþþþþþþþþþþþþþþþþþþþþþþþþþÜ
                                   38839              Ÿ                                                                     Ÿ
                                   38840              Ÿ  INPROC -- Local routine to process a response packet.              Ÿ
                                   38841              Ÿ                                                                     Ÿ
                                   38842              Ÿ    On entry:                                                        Ÿ
                                   38843              Ÿ      R1,R0 - packet loc, len                                        Ÿ
                                   38844              Ÿ                                                                     Ÿ
                                   38845              Ÿ    On exit, R15 (and cc):                                           Ÿ
                                   38846              Ÿ      0 - ok; SAMWA contains response data buffer                    Ÿ
                                   38847              Ÿ      4 - packet is no good, get it again                            Ÿ
                                   38848              Ÿ     -4 - keep waiting for response packet                           Ÿ
                                   38849              Ÿ     -8 - don't timeout, keep waiting for response                   Ÿ
                                   38850              Ÿ                                                                     Ÿ
                                                      ¾þþþþþþþþþþþþþþþþþþþþþþþþþþþþþþþþþþþþþþþþþþþþþþþþþþþþþþþþþþþþþþþþþþþþþ»
0000000                00000 00017 38851              INPWA    RECORD BEGIN
 000000 00                         38859  1           INPFLAG    FLAG
                                   38863  1
 000001 00                         38864  1           INPFOPT    FLAG  ,                   Options flag (from header)
                                   38868  1
 000002                            38869  1           INPHEAD    DS    XL13                Working packet header
                                   38870  1           INPHOPT    EQU   INPHEAD+4,4,C'X'
                                   38871  1           INPHDUP    EQU   INPHEAD+8,4,C'X'
                                   38872  1
 00000F                            38873  1           INPTRAIL   DS    XL8                 Working packet trailer
                                   38874  1           INPINIT    EQU   INPFLAG,*-INPFLAG,C'X'
 000017                00017 00017 38875                       END
                                   38884              þþþþ
                                   38885                       MACRO
                                   38886              &L       INERROR &ID
                                   38887              &L       LA    R1,=CL16'&ID'
                                   38888                       LCALL INPRETRY
                                   38889                       LA    R15,4
                                   38890                       B     INPEXIT
                                   38891                       MEND
                                   38892              þþþþ
 006728 50E0 D000/9008_      00000 38893              INPROC   PROC  INPWA
 USING  *,R7
 USING  INPWA-(4+36),R8
 USING  SAMWA,R6                   38943                       WITH  (SAMWA,R6)          (Entry assumption)
                                   38956
 006742 D716 8028 8028 00000 00000 38957                       CLEAR INPINIT
                                   38964                       ¿þþþþþþþþþþþþþþþþþþþþþþþþþþþþÜ
                                   38965                       Ÿ  Do input packet tracing.  Ÿ
                                   38966                       ¾þþþþþþþþþþþþþþþþþþþþþþþþþþþþ»
 006748 41F0 0001            00001 38967                       LA    R15,1               Input buffer
                                   38968                       SETMSG (R1),(R0)           Input packet loc, len
 00674C 58E0 753A/0DEE       06C7C 38978                       ACALL SAMTRC              Make a trace entry
                                   38982                       ¿þþþþþþþþþþþþþþþþþþþþþþþþþþþþþþþþþþþþþþþþþþþþþþþþþþþþþþþþþþþþþÜ
                                   38983                       Ÿ  Look for the response packet (ignore leading characters).  Ÿ
                                   38984                       ¾þþþþþþþþþþþþþþþþþþþþþþþþþþþþþþþþþþþþþþþþþþþþþþþþþþþþþþþþþþþþþ»
 006752 1851                       38985                       LR    R5,R1
 006754 1840                       38986                       LR    R4,R0
                                   38987
1SAM      (SAM2193) (12:54) (15MAR04) Samson Interface Routines                                                             Page  113
0Current Usings:  (SAMWA,R6) (*,R7) (INPWA-(4+36),R8) (CP,R11) (CV,R12)
0Loc    Object Code    Addr1 Addr2  Stmt Lv Lineno    Source Statement           (Hibal 5, Asmedit 3.3)  HLASM R4.0  2004/03/15 12.54
+___    ______ ____    _____ _____  ____ __ ______    ______ _________
0006756 1244/47D0 703E             38988                       WHILE (R4,POS),BEGIN      Go through data...
 00675C D20C 802A 5000 00002 00000 39004  1                      MVC   INPHEAD,@R5
 006762 58F0 C8C0            008C0 39005  1                      L     R15,CVEB7TBL
 006766 DC0C 802A F000 00002 00000 39006  1                      TR    INPHEAD,@R15        Translate to EBCDIC
 00676C D501 7592 802A_06CD4 00002 39007  1                      IF    (INPHEAD,EQ,'\\'),EXIT  Got header, scram
                                   39027  1
 006776 4150 5001            00001 39028  1                      LA    R5,@R5+1
 00677A 0640                       39029  1                      DECR  R4
 00677C 47F0 7014            06756 39031                       END
                                   39036
 006780 5940 753E/47B0_      06C80 39037                       IF    (R4,LT,4),'INERROR TOOSHORT'  Bad packet
                                   39065                       ¿þþþþþþþþþþþþþþþþþþþþþþþþþþþÜ
                                   39066                       Ÿ  Handle ACK packet type.  Ÿ
                                   39067                       ¾þþþþþþþþþþþþþþþþþþþþþþþþþþþ»
 006798 D503 7542 802A_06C84 00002 39068                       IF    (INPHEAD,EQ,'\\AA'),BEGIN  Explicit acknowledge...
 0067A2 48F0 7594            06CD6 39085  1                      LH    R15,=H'-8'          No timeouts now, go wait
 0067A6 47F0 7306            06A48 39086  1                      B     INPEXIT
 0067AA                            39087                       END
                                   39091                       ¿þþþþþþþþþþþþþþþþþþþþþþþþþþþÜ
                                   39092                       Ÿ  Handle NAK packet type.  Ÿ
                                   39093                       ¾þþþþþþþþþþþþþþþþþþþþþþþþþþþ»
 0067AA D503 7546 802A_06C88 00002 39094                       IF    (INPHEAD,EQ,'\\NN'),BEGIN  Explicit nak...
 0067B4 41F0 0004            00004 39111  1                      LA    R15,4               Retransmit our packet
 0067B8 47F0 7306            06A48 39112  1                      B     INPEXIT
 0067BC                            39113                       END
                                   39117                       ¿þþþþþþþþþþþþþþþþþþþþþþþþþþþþþþþÜ
                                   39118                       Ÿ  Handle "BREAK" packet type.  Ÿ
                                   39119                       ¾þþþþþþþþþþþþþþþþþþþþþþþþþþþþþþþ»
 0067BC D503 754A 802A_06C8C 00002 39120                       IF    (INPHEAD,EQ,'\\BB'),BEGIN  Break...
 0067C6 9601 6004      00004       39137  1                      SET   SAMFBREAK           Set BREAK request received
                                   39143  1
 0067CA 48F0 7590            06CD2 39144  1                      LH    R15,=H'-4'          Wait for something new
 0067CE 47F0 7306            06A48 39145  1                      B     INPEXIT
 0067D2                            39146                       END
                                   39150                       ¿þþþþþþþþþþþþþþþþþþþþþþþþþþþþþþþþþþþþþþþþþþþþþþþþþþþþþþþÜ
                                   39151                       Ÿ  Handle Response packet type (the most common case).  Ÿ
                                   39152                       ¾þþþþþþþþþþþþþþþþþþþþþþþþþþþþþþþþþþþþþþþþþþþþþþþþþþþþþþþ»
 0067D2 D503 754E 802A_06C90 00002 39153                       IF    (INPHEAD,NE,'\\RR'),'INERROR BADPTYPE'  Bad ptype
 0067EC 5940 7552/47B0_      06C94 39181                       IF    (R4,LT,L'INPHEAD),'INERROR NOHDR'  No header
                                   39209                       ¿þþþþþþþþþþþþþþþþþþþþþþþþþþþþþþþþþþþþþþþÜ
                                   39210                       Ÿ  Process the response packet header.  Ÿ
                                   39211                       ¾þþþþþþþþþþþþþþþþþþþþþþþþþþþþþþþþþþþþþþþ»
 006804 D503 802E 8032_00006 0000A 39212                       IF    (INPHOPT,NE,INPHDUP),'INERROR BADHDR'  Bad header
                                   39241
 00681E 4110 802F/4100_      00007 39242                       XTB   INPHOPT+1,1         Options flag
 00682C 4780 70FE/4110_      06840 39263                       IF    NZ,'INERROR BAD-OPT-HEX'  Bad hex, scram
 006840 42F0 8029            00001 39285                       STC   R15,INPFOPT         Save it
                                   39286
 006844 4110 802E/4100_      00006 39287                       XTB   INPHOPT,1           Sequence number
 006852 4780 7124/4110_      06866 39308                       IF    NZ,'INERROR BAD-SEQ-HEX'  Bad hex, scram
                                   39330
 006866 49F0 6126/4780_      00126 39331                       IF    (R15,NE,SAMSSEQ),BEGIN  Out of sequence...
 00686E 49F0 612C/4770_      0012C 39348  1                      IF    (R15,EQ,SAMRSEQ),'INERROR PREV-SEQNO'  Got prev again
 006886 4110 746E/4DE0_      06BB0 39376  1                      INERROR BAD-SEQNO         Shouldn't ever happen
1SAM      (SAM2193) (12:54) (15MAR04) Samson Interface Routines                                                             Page  114
0Current Usings:  (SAMWA,R6) (*,R7) (INPWA-(4+36),R8) (CP,R11) (CV,R12)
0Loc    Object Code    Addr1 Addr2  Stmt Lv Lineno    Source Statement           (Hibal 5, Asmedit 3.3)  HLASM R4.0  2004/03/15 12.54
+___    ______ ____    _____ _____  ____ __ ______    ______ _________
0006896                            39382                       END
                                   39386
 006896 957A 8036/4780_0000E       39387                       IF    (INPHEAD+12,NE,':'),'INERROR BADFMT'  Bad format
                                   39415
 0068AE 4150 500D            0000D 39416                       LA    R5,@R5+L'INPHEAD    Skip past header
 0068B2 4B40 7596            06CD8 39417                       SH    R4,=AL2(L'INPHEAD)
                                   39418                       ¿þþþþþþþþþþþþþþþþþþþþþþþþþþþþþþþþþþþþþþþþþþþþþþþþþþþþþþþþþþþþþÜ
                                   39419                       Ÿ  Process the response packet trailer (which contains CRC).  Ÿ
                                   39420                       ¾þþþþþþþþþþþþþþþþþþþþþþþþþþþþþþþþþþþþþþþþþþþþþþþþþþþþþþþþþþþþþ»
 0068B6 4B40 7582            06CC4 39421                       SH    R4,=H'2'
                                   39422
 0068BA                            39423                       LOOP  BEGIN
 0068BA 1244/47B0 718E_            39429  1                      IF    (R4,NEG),'INERROR NOTRAILER'  No trailer
                                   39454  1
 0068D0 4114 5000            00000 39455  1                      LA    R1,@R5(R4)
 0068D4 D207 8037 1000 0000F 00000 39456  1                      MVC   INPTRAIL,@R1
 0068DA 58F0 C8C0            008C0 39457  1                      L     R15,CVEB7TBL
 0068DE DC07 8037 F000 0000F 00000 39458  1                      TR    INPTRAIL,@R15       Translate to EBCDIC
 0068E4 D501 7598 8037_06CDA 0000F 39459  1                      IF    (INPTRAIL,EQ,'\:'),EXIT  Got trailer, scram
                                   39479  1
 0068EE 0640                       39480  1                      DECR  R4
 0068F0 47F0 7178            068BA 39482                       END
                                   39487                       ¿þþþþþþþþþþþþþþþþþþþþþþþþþþþþÜ
                                   39488                       Ÿ  Check for data accuracy.  Ÿ
                                   39489                       ¾þþþþþþþþþþþþþþþþþþþþþþþþþþþþ»
 0068F4 4110 8039/4100_      00011 39490                       XTB   INPTRAIL+2,2        Data length (low byte only)
 006902 4780 71D4/4110_      06916 39511                       IF    NZ,'INERROR BADHEX'  Bad hex
 006916 1804                       39533                       LR    R0,R4
 006918 5400 755A            06C9C 39534                       N     R0,=A(X'FF')
 00691C 190F/4780 71F0_            39535                       IF    (R0,NE,R15),'INERROR BADLEN'  Bad data length
                                   39561                       ¿þþþþþþþþþþþþþþþþþþþþþþþþþþþþþþþþþþþþþþþþþþþþþþþþþþþþþþþþþþþþþþÜ
                                   39562                       Ÿ  Strip high data bit if data path doesn't preserve the full  Ÿ
                                   39563                       Ÿ    byte (as is the case with TELENET).                       Ÿ
                                   39564                       ¾þþþþþþþþþþþþþþþþþþþþþþþþþþþþþþþþþþþþþþþþþþþþþþþþþþþþþþþþþþþþþþ»
 006932 910C 8029/4710_00001       39565                       IF    (INPFOPT.SAMRF7BIT,OR,INPFOPT.SAMRFHEX),BEGIN
 006942 1815/1804                  39594  1                      SETMSG (R5),(R4)
 006946 58E0 755E/0DEE       06CA0 39606  1                      ACALL CLRHIBIT            Clear high bit on all data bytes
 00694C                            39610                       END
                                   39614                       ¿þþþþþþþþþþþþþþþþþþþþþþþþþþþþþÜ
                                   39615                       Ÿ  Verify data checksum/CRC.  Ÿ
                                   39616                       ¾þþþþþþþþþþþþþþþþþþþþþþþþþþþþþ»
 00694C 1BFF                       39617                       CLEAR R15
 00694E 1815/1804                  39621                       SETMSG (R5),(R4)           Packet data
                                   39633
 006952 9101 8029/47E0_00001       39634                       IF    INPFOPT.SAMRFCRC,BEGIN  Check CRC...
 00695A 58E0 7562/0DEE       06CA4 39649  1                      ACALL CHECKCRC
 006960 182F                       39653  1                      LR    R2,R15              Save calculated CRC
 006962 4110 803B/4100_      00013 39654  1                      XTB   INPTRAIL+4,4        Two byte CRC
 006970 192F/4780 7244_            39675  1                      IF    (R2,NE,R15),'INERROR CRC-ERROR'  CRC error
 006986                            39701                       END
                                   39705
 006986 7248/47F0 727C_06986 06958 39706                       ELSEIF INPFOPT.SAMRFCKS,BEGIN  Check checksum...
 006992 58E0 7566/0DEE       06CA8 39730  1                      ACALL CHECKSUM
 006998 182F                       39734  1                      LR    R2,R15              Save calculated checksum
1SAM      (SAM2193) (12:54) (15MAR04) Samson Interface Routines                                                             Page  115
0Current Usings:  (SAMWA,R6) (*,R7) (INPWA-(4+36),R8) (CP,R11) (CV,R12)
0Loc    Object Code    Addr1 Addr2  Stmt Lv Lineno    Source Statement           (Hibal 5, Asmedit 3.3)  HLASM R4.0  2004/03/15 12.54
+___    ______ ____    _____ _____  ____ __ ______    ______ _________
000699A 4110 803B/4100_      00013 39735  1                      XTB   INPTRAIL+4,2        One byte checksum
 0069A8 192F/4780 727C_            39756  1                      IF    (R2,NE,R15),'INERROR CKSUM-ERROR'  Checksum error
 0069BE                            39782                       END
                                   39786                    ¿þþþþþþþþþþþþþþþþþþþþþþþþþþþþþþþþþþþþþþþþþþþþþþþþþþþþþþþþþþþþþþþþþþÜ
                                   39787                    Ÿ  The packet has been received accurately, save header and data.  Ÿ
                                   39788                    ¾þþþþþþþþþþþþþþþþþþþþþþþþþþþþþþþþþþþþþþþþþþþþþþþþþþþþþþþþþþþþþþþþþþ»
 0069BE 4110 802E/4100_      00006 39789                       XTB   INPHOPT,1           Sequence number
 0069CC 40F0 612C            0012C 39810                       STH   R15,SAMRSEQ
 0069D0 9200 6128      00128       39811                       CLEAR SAMRFLAG            Clear our input state flags
 0069D4 D200 6129 8029 00129 00001 39818                       MVC   SAMRCODE,INPFOPT    Save encoding options
 0069DA D201 612A 8030 0012A 00008 39819                       MVC   SAMRCMD,INPHOPT+2   Save commands/options
                                   39820
 0069E0 5940 756A/47D0_      06CAC 39821                       FAIL  (R4,GT,L'SAMRDBUF),SAMERR3,'Samson interface error.'
 006A00 4120 6AFC            00AFC 39850                       LA    R2,SAMRDBUF-2000
 006A04 4A20 759A            06CDC 39851                       AH    R2,=H'2000'
 006A08 18E2/18F4/1805_            39852                       MOVEL @R2,@R5,(R4)        Save packet data
                                   39874
 006A12 5020 6134            00134 39875                       ST    R2,SAMRDLOC         Save data loc...
 006A16 4040 6138            00138 39876                       STH   R4,SAMRDLEN         ...and len
                                   39877                       ¿þþþþþþþþþþþþþþþþþþþþþþþþþþþþþþþþþþþþþþþþþþþþþþþþþþþþþþþþþþþþþþþÜ
                                   39878                       Ÿ  We save this packet's encoding flags as OUR encoding flags,  Ÿ
                                   39879                       Ÿ  so we will always send back packets in the form they were    Ÿ
                                   39880                       Ÿ  sent to us.                                                  Ÿ
                                   39881                       Ÿ                                                               Ÿ
                                   39882                       Ÿ  Note:                                                        Ÿ
                                   39883                       Ÿ    For version 1 compatability some versions of Samson will   Ÿ
                                   39884                       Ÿ    set "7BIT,NOCHECK" encoding when sending a "Path           Ÿ
                                   39885                       Ÿ    parameters" packet response.  We will accept that packet,  Ÿ
                                   39886                       Ÿ    but not latch the encoding to 7BIT,NOCHECK.  (Talk to Niz  Ÿ
                                   39887                       Ÿ    or Aaron for more details as to why this is necessary.     Ÿ
                                   39888                       Ÿ    If Version 1 of Samson has been stamped out then we        Ÿ
                                   39889                       Ÿ    would not need to play these games.)                       Ÿ
                                   39890                       ¾þþþþþþþþþþþþþþþþþþþþþþþþþþþþþþþþþþþþþþþþþþþþþþþþþþþþþþþþþþþþþþþ»
 006A1A D501 759C 612A_06CDE 0012A 39891                       IF    (SAMRCMD,NE,'PP'),BEGIN  Use received encoding...
                                   39908  1                      ¿þþþþþþþþþþþþþþþþþþþþþþþþþþþþþþþþþþþþþþþþþþþþþþþþþþþþþþþþþþþÜ
                                   39909  1                      Ÿ  This corrects a MacSamson 1.1 bug where encoding type 0  Ÿ
                                   39910  1                      Ÿ  can be incorrectly returned...                           Ÿ
                                   39911  1                      ¾þþþþþþþþþþþþþþþþþþþþþþþþþþþþþþþþþþþþþþþþþþþþþþþþþþþþþþþþþþþ»
 006A24 D501 759E BA94_06CE0 00A94 39912  1                      IF    ((CPSAMPRO,LT,2),AND,(CPSAMTYP,EQ,'MACSAM')),EXIT
                                   39949  1
 006A38 D200 BA22 6129 00A22 00129 39950  1                      MVC   CPSAMCOD,SAMRCODE   Use this encoding ourselves
 006A3E                            39951                       END
                                   39955
 006A3E 1BFF/40F0 612E             39956                       CLEAR R15,SAMRCNT         Set rc & clear bad packet counter
 006A44 47F0 7306            06A48 39965                       B     INPEXIT
                                   39966
 006A48 18D8/9808 D004_            39967              INPEXIT  PEND
 DROP   SAMWA,R6
 DROP   INPWA-(4+36),R8
 DROP   *,R7
1SAM      (SAM2193) (12:54) (15MAR04) Samson Interface Routines                                                             Page  116
0Current Usings:  (CP,R11) (CV,R12)
0Loc    Object Code    Addr1 Addr2  Stmt Lv Lineno    Source Statement           (Hibal 5, Asmedit 3.3)  HLASM R4.0  2004/03/15 12.54
+___    ______ ____    _____ _____  ____ __ ______    ______ _________
0                                  39999              ¿þþþþþþþþþþþþþþþþþþþþþþþþþþþþþþþþþþþþþþþþþþþþþþþþþþþþþþþþþþþþþþþþþþþþþÜ
                                   40000              Ÿ                                                                     Ÿ
                                   40001              Ÿ  INPRETRY -- Local routine to handle a packet error condition       Ÿ
                                   40002              Ÿ     and abort the command if too many consecutive errors have       Ÿ
                                   40003              Ÿ     occurred.  This routine also logs the type of error in the      Ÿ
                                   40004              Ÿ     WLOG.                                                           Ÿ
                                   40005              Ÿ                                                                     Ÿ
                                   40006              Ÿ     On entry:                                                       Ÿ
                                   40007              Ÿ       R1 - 16 character error id                                    Ÿ
                                   40008              Ÿ                                                                     Ÿ
                                                      ¾þþþþþþþþþþþþþþþþþþþþþþþþþþþþþþþþþþþþþþþþþþþþþþþþþþþþþþþþþþþþþþþþþþþþþ»
0006A56 50E0 D000/9008_      00000 40009              INPRETRY PROC
 USING  *,R7
 USING  SAMWA,R6                   40048                       WITH  (SAMWA,R6)          (Entry assumption)
                                   40061
 006A70 1821                       40062                       LR    R2,R1
                                   40063
 006A72 1812/4100 0010_            40064                       TSEG  @R2,16,T            Error code
 006A82 4110 7278/4100_      06CE8 40094                       TSEG  ' packet receive error.'
                                   40112                       ¿þþþþþþþþþþþþþþþþþþþþþþþþþþþþþþþþþþþþþþþþþþþþþþþþþþþþþþþþþþþþþÜ
                                   40113                       Ÿ  If SAMSON DEBUG is set then also write the message out to  Ÿ
                                   40114                       Ÿ    the user.                                                Ÿ
                                   40115                       ¾þþþþþþþþþþþþþþþþþþþþþþþþþþþþþþþþþþþþþþþþþþþþþþþþþþþþþþþþþþþþþ»
 006A94 9120 BA21/47E0_00A21       40116                       IF    CPSAMFDEBUG,'TWRITE'  If debug, write to term too
 006AA8 703C/47F0 7046_06AA8 06A9A 40161                       ELSE  'TCLEAR'            Not debugging
                                   40191                       ¿þþþþþþþþþþþþþþþþþþþþþþþþþþþþþþþþþþþþþþþþþþþþþþþþþþþþþþþþþþþþþÜ
                                   40192                       Ÿ  Count the number of consecutive errors and abort if there  Ÿ
                                   40193                       Ÿ    is no hope.                                              Ÿ
                                   40194                       ¾þþþþþþþþþþþþþþþþþþþþþþþþþþþþþþþþþþþþþþþþþþþþþþþþþþþþþþþþþþþþþ»
 006AB6 41F0 0001/4AF0_      00001 40195                       INCR  R15,SAMRCNT         Packet retry counter
 006AC2 1BEE                       40201                       CLEAR R14
 006AC4 5DE0 7248            06CB8 40205                       D     R14,=F'5'           Modulo 5
 006AC8 12EE/4770 70BE             40206                       IF    (R14,Z),BEGIN       Too many retransmissions...
 006ACE D603 B05C B05C_0005C 0005C 40220  1                      TCCR
 006AEE 4110 71B0/4100_      06C20 40282  1                      TSEG  'There have been '
 006B00 4810 612E/1B00_      0012E 40300  1                      TNUM  LH:SAMRCNT
 006B10 4110 72DB/4100_      06D4B 40321  1                      TSEG  ' consecutive transmission errors.',,CR
 006B22 4110 728E/4100_      06CFE 40339  1                      ABORT 'File transfer stopped.'
 006B2E                            40346                       END
                                   40350
 006B2E 18D8/9808 D004_            40351                       PEND
 DROP   SAMWA,R6
 DROP   *,R7
                                   40376
                                   40377                       QLTORG
1SAM      (SAM2193) (12:54) (15MAR04) Samson Interface Routines                                                             Page  117
0Current Usings:  (CP,R11) (CV,R12)
0Loc    Object Code    Addr1 Addr2  Stmt Lv Lineno    Source Statement           (Hibal 5, Asmedit 3.3)  HLASM R4.0  2004/03/15 12.54
+___    ______ ____    _____ _____  ____ __ ______    ______ _________
0                                  40464              ¿þþþþþþþþþþþþþþþþþþþþþþþþþþþþþþþþþþþþþþþþþþþþþþþþþþþþþþþþþþþþþþþþþþþþþÜ
                                   40465              Ÿ                                                                     Ÿ
                                   40466              Ÿ  INDATA -- Local routine to convert standard packet data into       Ÿ
                                   40467              Ÿ    ASCII text.                                                      Ÿ
                                   40468              Ÿ                                                                     Ÿ
                                   40469              Ÿ    On entry:                                                        Ÿ
                                   40470              Ÿ      R1,R0 - text loc, len                                          Ÿ
                                   40471              Ÿ                                                                     Ÿ
                                   40472              Ÿ    On exit:                                                         Ÿ
                                   40473              Ÿ      R1,R0 - converted text loc, len                                Ÿ
                                   40474              Ÿ              (the text is converted in place)                       Ÿ
                                   40475              Ÿ                                                                     Ÿ
                                                      ¾þþþþþþþþþþþþþþþþþþþþþþþþþþþþþþþþþþþþþþþþþþþþþþþþþþþþþþþþþþþþþþþþþþþþþ»
0000000                00000 0000A 40476              INDWA    RECORD BEGIN
 000000                            40484  1           INDPTRS    DS    2A                  Data len, loc
                                   40485  1
 000008                            40486  1           INDHEX     DS    CL2                 Working hex convert area
 00000A                0000A 0000A 40487                       END
                                   40496              þþþþ
 006D78 50E0 D000/9008_      00000 40497              INDATA   PROC  INDWA
 USING  *,R7
 USING  INDWA-(4+36),R8
                                   40547
 006D92 9001 8028            00000 40548                       STM   R0,R1,INDPTRS
 006D96 1851                       40549                       LR    R5,R1
 006D98 1840                       40550                       LR    R4,R0
                                   40551                       ¿þþþþþþþþþþþþþþþþþþþþþþþþþþþþþþþþþþþþþþþþþþþþþþþþþþþþþþþþÜ
                                   40552                       Ÿ  Convert any "\hex" characters back to their original  Ÿ
                                   40553                       Ÿ    format.                                             Ÿ
                                   40554                       ¾þþþþþþþþþþþþþþþþþþþþþþþþþþþþþþþþþþþþþþþþþþþþþþþþþþþþþþþþ»
 006D9A 1244/47D0 708A             40555                       WHILE (R4,POS),BEGIN      Go through data...
 006DA0 18F4                       40571  1                      LR    R15,R4
 006DA2 59F0 79C6/47D0_      07758 40572  1                      CEIL  R15,256
 006DAE 411F 5000            00000 40591  1                      LA    R1,@R5(R15)
 006DB2 06F0/44F0 7A02_            40592  1                      DEX   R15,'TRT @R5(0),ASCSTRT'  Look for ASCII \
 006DB8 1B15                       40611  1                      SR    R1,R5               Number of chars until special
                                   40612  1
 006DBA 1A51                       40613  1                      AR    R5,R1               Kick working text ptrs
 006DBC 1B41                       40614  1                      SR    R4,R1
 006DBE 5940 79CA/4740_      0775C 40615  1                      IF    (R4,LT,3),EXIT
                                   40635  1
 006DC6 D201 8030 5001 00008 00001 40636  1                      MVC   INDHEX,@R5+1        Save "hex" after "\"
 006DCC 58F0 C8C0            008C0 40637  1                      L     R15,CVEB7TBL
 006DD0 DC01 8030 F000 00008 00000 40638  1                      TR    INDHEX,@R15         Translate to EBCDIC
 006DD6 4110 8030/4100_      00008 40639  1                      XTB   INDHEX,2
 006DE4 4780 705C            06DEE 40660  1                      IF    NZ,BEGIN            Bad hex, shouldn't happen...
 006DE8 4150 5001            00001 40671  2                        LA    R5,@R5+1            Skip past \
 006DEC 0640                       40672  2                        DECR  R4
 006DEE                            40674  1                      END
                                   40678  1
 006DEE 7060/47F0 7086 06DEE 06DE6 40679  1                      ELSE  BEGIN               Process "\hh"...
 006DF2 42F0 5000            00000 40690  2                        STC   R15,@R5             Save byte
 006DF6 4B40 79F6            07788 40691  2                        SH    R4,=H'2'            Buffer is now two chars shorter
1SAM      (SAM2193) (12:54) (15MAR04) Samson Interface Routines                                                             Page  118
0Current Usings:  (*,R7) (INDWA-(4+36),R8) (CP,R11) (CV,R12)
0Loc    Object Code    Addr1 Addr2  Stmt Lv Lineno    Source Statement           (Hibal 5, Asmedit 3.3)  HLASM R4.0  2004/03/15 12.54
+___    ______ ____    _____ _____  ____ __ ______    ______ _________
0006DFA 41E0 5001/18F4_      00001 40692  2                        MOVEL @R5+1,@R5+3,(R4)    Move text over
 006E08 4150 5001            00001 40714  2                        LA    R5,@R5+1            Next char
                                   40715  2
 006E0C 58F0 8028            00000 40716  2                        L     R15,INDPTRS
 006E10 4BF0 79F6            07788 40717  2                        SH    R15,=H'2'
 006E14 50F0 8028            00000 40718  2                        ST    R15,INDPTRS         Keep total length accurate
 006E18                            40719  1                      END
 006E18 47F0 7008            06D9A 40723                       END
                                   40728
 006E1C 9801 8028            00000 40729                       LM    R0,R1,INDPTRS       Converted data len, loc
 006E20 9001 8004            00004 40730                       PRETURN (R0,R1)
 006E24 18D8/9808 D004_            40732                       PEND
 DROP   INDWA-(4+36),R8
 DROP   *,R7
1SAM      (SAM2193) (12:54) (15MAR04) Samson Interface Routines                                                             Page  119
0Current Usings:  (CP,R11) (CV,R12)
0Loc    Object Code    Addr1 Addr2  Stmt Lv Lineno    Source Statement           (Hibal 5, Asmedit 3.3)  HLASM R4.0  2004/03/15 12.54
+___    ______ ____    _____ _____  ____ __ ______    ______ _________
0                                  40758              ¿þþþþþþþþþþþþþþþþþþþþþþþþþþþþþþþþþþþþþþþþþþþþþþþþþþþþþþþþþþþþþþþþþþþþþÜ
                                   40759              Ÿ                                                                     Ÿ
                                   40760              Ÿ  INPACK -- Local routine to convert packed packet data into         Ÿ
                                   40761              Ÿ    ASCII text.                                                      Ÿ
                                   40762              Ÿ                                                                     Ÿ
                                   40763              Ÿ    On entry:                                                        Ÿ
                                   40764              Ÿ      R1,R0 - text loc, len                                          Ÿ
                                   40765              Ÿ                                                                     Ÿ
                                   40766              Ÿ    On exit:                                                         Ÿ
                                   40767              Ÿ      R1,R0 - converted text loc, len                                Ÿ
                                   40768              Ÿ              (the text is converted in place)                       Ÿ
                                   40769              Ÿ                                                                     Ÿ
                                                      ¾þþþþþþþþþþþþþþþþþþþþþþþþþþþþþþþþþþþþþþþþþþþþþþþþþþþþþþþþþþþþþþþþþþþþþ»
0000000                00000 0080A 40770              INXWA    RECORD BEGIN
 000000 00                         40778  1           INXFLAG    FLAG
                                   40782  1
 000004                            40783  1           INXORIG    DS    A                   Data ptr on entry
                                   40784  1
 000008                            40785  1           INXHEX     DS    CL2                 Working hex convert area
                                   40786  1           INXINIT    EQU   INXFLAG,*-INXFLAG,C'X'
                                   40787  1
 00000A                            40788  1           INXBUF     DS    CL2048              Working buffer
 00080A                0080A 0080A 40789                       END
                                   40798              þþþþ
 006E32 50E0 D000/9008_      00000 40799              INPACK   PROC  INXWA
 USING  *,R7
 USING  INXWA-(4+36),R8
 006E4C 5860 BE58            00E58 40849                       L     R6,CPDEVP           SAMWA ptr
 USING  SAMWA,R6                   40850                       WITH  (SAMWA,R6)
 006E50 D502 7944 6000_07790 00000 40863                       FAIL  (SAMWA,NE,'SAM'),BADSAM,'Bad SAMWA ptr'
                                   40892
 006E72 D709 8028 8028 00000 00000 40893                       CLEAR INXINIT
 006E78 5010 802C            00004 40900                       ST    R1,INXORIG          Save data ptr for later
                                   40901
 006E7C 1830                       40902                       LR    R3,R0               R3 = remaining length
 006E7E 1841                       40903                       LR    R4,R1               R4 = output buffer ptr
                                   40904                       ¿þþþþþþþþþþþþþþþþþþþþþþþþþþþþþþþþþþþþþþþþþþþÜ
                                   40905                       Ÿ  Copy the text in to our working buffer.  Ÿ
                                   40906                       ¾þþþþþþþþþþþþþþþþþþþþþþþþþþþþþþþþþþþþþþþþþþþ»
 006E80 41E0 8032/18F3_      0000A 40907                       MOVEL INXBUF,@R4,(R3)     Save source buffer
 006E8C 4150 8032            0000A 40929                       LA    R5,INXBUF           R5 = source buffer ptr
                                   40930                       ¿þþþþþþþþþþþþþþþþÜ
                                   40931                       Ÿ  Unpack data.  Ÿ
                                   40932                       ¾þþþþþþþþþþþþþþþþ»
 006E90 1233/47D0 7104             40933              INXLOOP  WHILE (R3,POS),BEGIN      Go through data...
                                   40950  1                      ¿þþþþþþþþþþþþþþþþþþþþþþþþþþþþþþþþþþþþþþþþþþþþþþþþþþþþþþþþþþþþþþÜ
                                   40951  1                      Ÿ  Check for a "\", which starts all Samson escape sequences.  Ÿ
                                   40952  1                      ¾þþþþþþþþþþþþþþþþþþþþþþþþþþþþþþþþþþþþþþþþþþþþþþþþþþþþþþþþþþþþþþ»
 006E96 955C 5000/4780_00000       40953  1                      IF    ((@R5,EQ,X'5C'),OR,(@R5,EQ,X'DC')),BEGIN  \...
 006EA6 D201 8030 5001 00008 00001 40984  2                        MVC   INXHEX,@R5+1        Save possible "hex" digits
 006EAC D401 8030 793E 00008 0778A 40985  2                        NC    INXHEX,=X'7F7F'     Throw away MSBs
1SAM      (SAM2193) (12:54) (15MAR04) Samson Interface Routines                                                             Page  120
0Current Usings:  (SAMWA,R6) (*,R7) (INXWA-(4+36),R8) (CP,R11) (CV,R12)
0Loc    Object Code    Addr1 Addr2  Stmt Lv Lineno    Source Statement           (Hibal 5, Asmedit 3.3)  HLASM R4.0  2004/03/15 12.54
+___    ______ ____    _____ _____  ____ __ ______    ______ _________
0                                  40986  2                        ¿þþþþþþþþþþþþþþþþþþþþþþþþþþþþþþþþþþþþþþþþþþþþþþþþþþþþþþþþþþþÜ
                                   40987  2                        Ÿ  Check for shift-in ("\(") or shift-out ("\)") sequence.  Ÿ
                                   40988  2                        ¾þþþþþþþþþþþþþþþþþþþþþþþþþþþþþþþþþþþþþþþþþþþþþþþþþþþþþþþþþþþ»
 006EB2 9528 8030/4780_00008       40989  2                        IF    ((INXHEX,EQ,X'28'),OR,(INXHEX,EQ,X'29')),BEGIN
 006EC2 947F 6128      00128       41022  3                          CLEAR SAMFIN8BIT          Assume not in 8-bit mode
 006EC6 9528 8030/4770_00008       41029  3                          IF    (INXHEX,EQ,X'28'),'SET SAMFIN8BIT'  We are in 8-bit
                                   41057  3
 006ED2 4150 5002            00002 41058  3                          LA    R5,@R5+2            Skip past "\(" or "\)"
 006ED6 4B30 793C            07788 41059  3                          SH    R3,=H'2'            Adjust remaining length
 006EDA 47F0 7044            06E90 41060  3                          B     INXLOOP
 006EDE                            41061  2                        END
                                   41065  2                        ¿þþþþþþþþþþþþþþþþþþþþþþþþþþþþþþþþþþþþÜ
                                   41066  2                        Ÿ  Check for hex character ("\hh").  Ÿ
                                   41067  2                        ¾þþþþþþþþþþþþþþþþþþþþþþþþþþþþþþþþþþþþ»
 006EDE 58F0 C8C0            008C0 41068  2                        L     R15,CVEB7TBL
 006EE2 DC01 8030 F000 00008 00000 41069  2                        TR    INXHEX,@R15         Convert hex digits to EBCDIC
 006EE8 4110 8030/4100_      00008 41070  2                        XTB   INXHEX,2            Convert to binary
 006EF6 4780 70B8            06F04 41091  2                        IF    NZ,BEGIN            Bad hex...
 006EFA 4150 5001            00001 41102  3                          LA    R5,@R5+1            Skip past \
 006EFE 0630                       41103  3                          DECR  R3                  Decrement remaining length
 006F00 47F0 7044            06E90 41105  3                          B     INXLOOP
 006F04                            41106  2                        END
                                   41110  2
 006F04 42F0 4000            00000 41111  2                        STC   R15,@R4             Save data byte
 006F08 4140 4001            00001 41112  2                        LA    R4,@R4+1            Kick output buffer ptr
 006F0C 4150 5003            00003 41113  2                        LA    R5,@R5+3            Kick input buffer ptr
 006F10 4B30 7940            0778C 41114  2                        SH    R3,=H'3'            Decrement remaining length
 006F14 47F0 7044            06E90 41115  2                        B     INXLOOP
 006F18                            41116  1                      END
                                   41120  1                      ¿þþþþþþþþþþþþþþþþþþþþþþþþþþþþþþþþþþþþÜ
                                   41121  1                      Ÿ  Check out data byte with MSB on.  Ÿ
                                   41122  1                      ¾þþþþþþþþþþþþþþþþþþþþþþþþþþþþþþþþþþþþ»
 006F18 1FFF/43F0 5000             41123  1                      LC    R15,@R5             Get data byte
 006F1E 59F0 7918/4750_      07764 41130  1                      IF    (R15,GE,X'80'),BEGIN  MSB is on...
 006F26 9180 6128/4710_00128       41147  2                        IF    SAMFIN8BIT,EXIT     We are in 8-bit mode, scram
 006F2E 54F0 791C            07768 41165  2                        N     R15,=A(X'7F')
 006F32 42F0 4000            00000 41166  2                        STC   R15,@R4             Save byte w/o MSB
 006F36 4140 4001            00001 41167  2                        LA    R4,@R4+1            Kick output buffer ptr
                                   41168  2
 006F3A 41F0 0020            00020 41169  2                        LA    R15,X'20'           ASCII blank follows this char
 006F3E                            41170  1                      END
                                   41174  1
 006F3E 42F0 4000            00000 41175  1                      STC   R15,@R4             Save byte in output buffer
 006F42 4140 4001            00001 41176  1                      LA    R4,@R4+1            Kick output buffer ptr
 006F46 4150 5001            00001 41177  1                      LA    R5,@R5+1            Kick input buffer ptr
 006F4A 0630                       41178  1                      DECR  R3                  Decrement remaining length
 006F4C 47F0 7044            06E90 41180                       END
                                   41185              *
                                   41186              *
 006F50 5810 802C            00004 41187                       L     R1,INXORIG          Return unpacked buffer loc...
 006F54 1804                       41188                       LR    R0,R4
 006F56 1B01                       41189                       SR    R0,R1               ...and length
 006F58 5500 7920/47D0_      0776C 41190                       FAIL  (R0,LGT,2048),SAMERR4,'Samson interface error.'
 006F78 9001 8004            00004 41219                       PRETURN (R0,R1)
1SAM      (SAM2193) (12:54) (15MAR04) Samson Interface Routines                                                             Page  121
0Current Usings:  (SAMWA,R6) (*,R7) (INXWA-(4+36),R8) (CP,R11) (CV,R12)
0Loc    Object Code    Addr1 Addr2  Stmt Lv Lineno    Source Statement           (Hibal 5, Asmedit 3.3)  HLASM R4.0  2004/03/15 12.54
+___    ______ ____    _____ _____  ____ __ ______    ______ _________
0                                  41221
 006F7C 18D8/9808 D004_            41222                       PEND
 DROP   SAMWA,R6
 DROP   INXWA-(4+36),R8
 DROP   *,R7
1SAM      (SAM2193) (12:54) (15MAR04) Samson Interface Routines                                                             Page  122
0Current Usings:  (CP,R11) (CV,R12)
0Loc    Object Code    Addr1 Addr2  Stmt Lv Lineno    Source Statement           (Hibal 5, Asmedit 3.3)  HLASM R4.0  2004/03/15 12.54
+___    ______ ____    _____ _____  ____ __ ______    ______ _________
0                                  41253              ¿þþþþþþþþþþþþþþþþþþþþþþþþþþþþþþþþþþþþþþþþþþþþþþþþþþþþþþþþþþþþþþþþþþþþþÜ
                                   41254              Ÿ                                                                     Ÿ
                                   41255              Ÿ  IN7BIT -- Local routine to convert 7-bit packet data into          Ÿ
                                   41256              Ÿ    ASCII text.                                                      Ÿ
                                   41257              Ÿ                                                                     Ÿ
                                   41258              Ÿ    On entry:                                                        Ÿ
                                   41259              Ÿ      R1,R0 - text loc, len                                          Ÿ
                                   41260              Ÿ                                                                     Ÿ
                                   41261              Ÿ    On exit:                                                         Ÿ
                                   41262              Ÿ      R1,R0 - converted text loc, len                                Ÿ
                                   41263              Ÿ              (the text is converted in place)                       Ÿ
                                   41264              Ÿ                                                                     Ÿ
                                                      ¾þþþþþþþþþþþþþþþþþþþþþþþþþþþþþþþþþþþþþþþþþþþþþþþþþþþþþþþþþþþþþþþþþþþþþ»
0000000                00000 0080A 41265              IN7WA    RECORD BEGIN
 000000 00                         41273  1           IN7FLAG    FLAG
                                   41277  1
 000004                            41278  1           IN7ORIG    DS    A                   Data ptr on entry
                                   41279  1
 000008                            41280  1           IN7HEX     DS    CL2                 Working hex convert area
                                   41281  1           IN7INIT    EQU   IN7FLAG,*-IN7FLAG,C'X'
                                   41282  1
 00000A                            41283  1           IN7BUF     DS    CL2048              Working buffer
 00080A                0080A 0080A 41284                       END
                                   41293              þþþþ
 006F8A 50E0 D000/9008_      00000 41294              IN7BIT   PROC  IN7WA
 USING  *,R7
 USING  IN7WA-(4+36),R8
 006FA4 5860 BE58            00E58 41344                       L     R6,CPDEVP           SAMWA ptr
 USING  SAMWA,R6                   41345                       WITH  (SAMWA,R6)
 006FA8 D502 77EC 6000_07790 00000 41358                       FAIL  (SAMWA,NE,'SAM'),BADSAM,'Bad SAMWA ptr'
                                   41387
 006FCA D709 8028 8028 00000 00000 41388                       CLEAR IN7INIT
 006FD0 5010 802C            00004 41395                       ST    R1,IN7ORIG          Save data ptr for later
                                   41396
 006FD4 1830                       41397                       LR    R3,R0               R3 = remaining length
 006FD6 1841                       41398                       LR    R4,R1               R4 = output buffer ptr
                                   41399                       ¿þþþþþþþþþþþþþþþþþþþþþþþþþþþþþþþþþþþþþþþþþþþþþþþþþþþþþþþþþþþþþþþÜ
                                   41400                       Ÿ  Copy the text in to our working buffer.                      Ÿ
                                   41401                       Ÿ                                                               Ÿ
                                   41402                       Ÿ    Note:  The MSB off all data bytes has already been zeroed  Ÿ
                                   41403                       Ÿ     by INPROC calling CLRHIBIT.                               Ÿ
                                   41404                       ¾þþþþþþþþþþþþþþþþþþþþþþþþþþþþþþþþþþþþþþþþþþþþþþþþþþþþþþþþþþþþþþþ»
 006FD8 41E0 8032/18F3_      0000A 41405                       MOVEL IN7BUF,@R4,(R3)     Save source buffer
 006FE4 4150 8032            0000A 41427                       LA    R5,IN7BUF           R5 = source buffer ptr
                                   41428                       ¿þþþþþþþþþþþþþþþþþþþþþþÜ
                                   41429                       Ÿ  Unpack 7-bit data.  Ÿ
                                   41430                       ¾þþþþþþþþþþþþþþþþþþþþþþ»
 006FE8 1233/47D0 70DE             41431              IN7LOOP  WHILE (R3,POS),BEGIN      Go through data...
1SAM      (SAM2193) (12:54) (15MAR04) Samson Interface Routines                                                             Page  123
0Current Usings:  (SAMWA,R6) (*,R7) (IN7WA-(4+36),R8) (CP,R11) (CV,R12)
0Loc    Object Code    Addr1 Addr2  Stmt Lv Lineno    Source Statement           (Hibal 5, Asmedit 3.3)  HLASM R4.0  2004/03/15 12.54
+___    ______ ____    _____ _____  ____ __ ______    ______ _________
0                                  41448  1                      ¿þþþþþþþþþþþþþþþþþþþþþþþþþþþþþþþþþþþþþþþþþþþþþþþþþþþþþþþþþþþþþþÜ
                                   41449  1                      Ÿ  Check for a "\", which starts all Samson escape sequences.  Ÿ
                                   41450  1                      ¾þþþþþþþþþþþþþþþþþþþþþþþþþþþþþþþþþþþþþþþþþþþþþþþþþþþþþþþþþþþþþþ»
 006FEE 955C 5000/4770_00000       41451  1                      IF    (@R5,EQ,X'5C'),BEGIN  \...
                                   41467  2                        ¿þþþþþþþþþþþþþþþþþþþþþþþþþþþþþþþþþþþþþþþþþþþþþþþþþþþþþþþÜ
                                   41468  2                        Ÿ  Check for msb-on ("\+") or msb-off ("\-") sequence.  Ÿ
                                   41469  2                        ¾þþþþþþþþþþþþþþþþþþþþþþþþþþþþþþþþþþþþþþþþþþþþþþþþþþþþþþþ»
 006FF6 952B 5001/4780_00001       41470  2                        IF    ((@R5+1,EQ,X'2B'),OR,(@R5+1,EQ,X'2D')),BEGIN
 007006 94BF 6128      00128       41501  3                          CLEAR SAMFINMSB           Assume msb is not on
 00700A 952B 5001/4770_00001       41508  3                          IF    (@R5+1,EQ,X'2B'),'SET SAMFINMSB'  Msb is on
                                   41535  3
 007016 4150 5002            00002 41536  3                          LA    R5,@R5+2            Skip past "\+" or "\+"
 00701A 4B30 77E4            07788 41537  3                          SH    R3,=H'2'            Adjust remaining length
 00701E 47F0 7044            06FE8 41538  3                          B     IN7LOOP
 007022                            41539  2                        END
                                   41543  2                        ¿þþþþþþþþþþþþþþþþþþþþþþþþþþþþþþþþþþþþÜ
                                   41544  2                        Ÿ  Check for hex character ("\hh").  Ÿ
                                   41545  2                        ¾þþþþþþþþþþþþþþþþþþþþþþþþþþþþþþþþþþþþ»
 007022 D201 8030 5001 00008 00001 41546  2                        MVC   IN7HEX,@R5+1        Save possible "hex" digits
 007028 58F0 C8C0            008C0 41547  2                        L     R15,CVEB7TBL
 00702C DC01 8030 F000 00008 00000 41548  2                        TR    IN7HEX,@R15         Convert hex digits to EBCDIC
 007032 4110 8030/4100_      00008 41549  2                        XTB   IN7HEX,2            Convert to binary
 007040 4780 70AA            0704E 41570  2                        IF    NZ,BEGIN            Bad hex...
 007044 4150 5001            00001 41581  3                          LA    R5,@R5+1            Skip past \
 007048 0630                       41582  3                          DECR  R3                  Decrement remaining length
 00704A 47F0 7044            06FE8 41584  3                          B     IN7LOOP
 00704E                            41585  2                        END
                                   41589  2
 00704E 42F0 4000            00000 41590  2                        STC   R15,@R4             Save data byte
 007052 4140 4001            00001 41591  2                        LA    R4,@R4+1            Kick output buffer ptr
 007056 4150 5003            00003 41592  2                        LA    R5,@R5+3            Kick input buffer ptr
 00705A 4B30 77E8            0778C 41593  2                        SH    R3,=H'3'            Decrement remaining length
 00705E 47F0 7044            06FE8 41594  2                        B     IN7LOOP
 007062                            41595  1                      END
                                   41599  1                      ¿þþþþþþþþþþþþþþþþþþþþþþþþþþþþþþþþþþþþþþþþþþþþþþþÜ
                                   41600  1                      Ÿ  Store data byte (and add MSB if necessary).  Ÿ
                                   41601  1                      ¾þþþþþþþþþþþþþþþþþþþþþþþþþþþþþþþþþþþþþþþþþþþþþþþ»
 007062 D200 4000 5000 00000 00000 41602  1                      MVC   @R4(1),@R5          Save byte in output buffer
 007068 9140 6128/47E0_00128       41603  1                      IF    SAMFINMSB,'SET @R4.X"80"'  Turn on MSB
 007074 4140 4001            00001 41630  1                      LA    R4,@R4+1            Kick output buffer ptr
 007078 4150 5001            00001 41631  1                      LA    R5,@R5+1            Kick input buffer ptr
 00707C 0630                       41632  1                      DECR  R3                  Decrement remaining length
 00707E 47F0 7044            06FE8 41634                       END
                                   41639              *
                                   41640              *
 007082 5810 802C            00004 41641                       L     R1,IN7ORIG          Return unpacked buffer loc...
 007086 1804                       41642                       LR    R0,R4
 007088 1B01                       41643                       SR    R0,R1               ...and length
 00708A 5500 77C8/47D0_      0776C 41644                       FAIL  (R0,LGT,2048),SAMERR4,'Samson interface error.'
 0070AA 9001 8004            00004 41673                       PRETURN (R0,R1)
                                   41675
 0070AE 18D8/9808 D004_            41676                       PEND
 DROP   SAMWA,R6
 DROP   IN7WA-(4+36),R8
1SAM      (SAM2193) (12:54) (15MAR04) Samson Interface Routines                                                             Page  124
0Current Usings:  (CP,R11) (CV,R12)
0Loc    Object Code    Addr1 Addr2  Stmt Lv Lineno    Source Statement           (Hibal 5, Asmedit 3.3)  HLASM R4.0  2004/03/15 12.54
+___    ______ ____    _____ _____  ____ __ ______    ______ _________
0DROP   *,R7
1SAM      (SAM2193) (12:54) (15MAR04) Samson Interface Routines                                                             Page  125
0Current Usings:  (CP,R11) (CV,R12)
0Loc    Object Code    Addr1 Addr2  Stmt Lv Lineno    Source Statement           (Hibal 5, Asmedit 3.3)  HLASM R4.0  2004/03/15 12.54
+___    ______ ____    _____ _____  ____ __ ______    ______ _________
0                                  41707              ¿þþþþþþþþþþþþþþþþþþþþþþþþþþþþþþþþþþþþþþþþþþþþþþþþþþþþþþþþþþþþþþþþþþþþþÜ
                                   41708              Ÿ                                                                     Ÿ
                                   41709              Ÿ  INHEX -- Local routine to convert ASCII hex digits into ASCII      Ÿ
                                   41710              Ÿ    text.                                                            Ÿ
                                   41711              Ÿ                                                                     Ÿ
                                   41712              Ÿ    On entry:                                                        Ÿ
                                   41713              Ÿ      R1,R0 - text loc, len                                          Ÿ
                                   41714              Ÿ                                                                     Ÿ
                                   41715              Ÿ    On exit:                                                         Ÿ
                                   41716              Ÿ      R1,R0 - converted text loc, len                                Ÿ
                                   41717              Ÿ              (the text is converted in place)                       Ÿ
                                   41718              Ÿ                                                                     Ÿ
                                                      ¾þþþþþþþþþþþþþþþþþþþþþþþþþþþþþþþþþþþþþþþþþþþþþþþþþþþþþþþþþþþþþþþþþþþþþ»
00070BC 50E0 D000/9028_      00000 41719              INHEX    PROC  (R2,LSR)
 USING  *,R7
 0070D6 58E0 769A/0DEE       07770 41758                       VCALL TOEBCDIC            Convert to EBCDIC
 0070DC 58E0 769E/0DEE       07774 41762                       VCALL HEXCONV             Hex to binary
 0070E2 18D8/9828 D004_            41766                       PEND
 DROP   *,R7
1SAM      (SAM2193) (12:54) (15MAR04) Samson Interface Routines                                                             Page  126
0Current Usings:  (CP,R11) (CV,R12)
0Loc    Object Code    Addr1 Addr2  Stmt Lv Lineno    Source Statement           (Hibal 5, Asmedit 3.3)  HLASM R4.0  2004/03/15 12.54
+___    ______ ____    _____ _____  ____ __ ______    ______ _________
0                                  41787              ¿þþþþþþþþþþþþþþþþþþþþþþþþþþþþþþþþþþþþþþþþþþþþþþþþþþþþþþþþþþþþþþþþþþþþþÜ
                                   41788              Ÿ                                                                     Ÿ
                                   41789              Ÿ  OUTDATA -- Local routine to convert ASCII text into it's           Ÿ
                                   41790              Ÿ    standard packed data format.                                     Ÿ
                                   41791              Ÿ                                                                     Ÿ
                                   41792              Ÿ    On entry:                                                        Ÿ
                                   41793              Ÿ      R1,R0 - text loc, len                                          Ÿ
                                   41794              Ÿ                                                                     Ÿ
                                   41795              Ÿ    On exit:                                                         Ÿ
                                   41796              Ÿ      R1,R0 - converted text loc, len                                Ÿ
                                   41797              Ÿ              (the text is converted in place)                       Ÿ
                                   41798              Ÿ                                                                     Ÿ
                                                      ¾þþþþþþþþþþþþþþþþþþþþþþþþþþþþþþþþþþþþþþþþþþþþþþþþþþþþþþþþþþþþþþþþþþþþþ»
0000000                00000 0080C 41799              OUTDWA   RECORD BEGIN
 000000 00                         41807  1           OUTDFLAG   FLAG
                                   41811  1
 000004                            41812  1           OUTDPTRS   DS    2A                  Text len, loc
                                   41813  1           OUTDINIT   EQU   OUTDFLAG,*-OUTDFLAG,C'X'
                                   41814  1
 00000C                            41815  1           OUTDBUF    DS    XL2048              Working buffer
 00080C                0080C 0080C 41816                       END
                                   41825              þþþþ
 0070F0 50E0 D000/9008_      00000 41826              OUTDATA  PROC  OUTDWA
 USING  *,R7
 USING  OUTDWA-(4+36),R8
 00710A D70B 8028 8028 00000 00000 41876                       CLEAR OUTDINIT
                                   41883
 007110 9001 802C            00004 41884                       STM   R0,R1,OUTDPTRS      Save text ptrs for later
                                   41885                       ¿þþþþþþþþþþþþþþþþþþþþþþþþþþþþþþþþþþþþþþþþþþþþþþþþþþþþþþþþþþÜ
                                   41886                       Ÿ  Convert any "unsendable" characters to their alternate  Ÿ
                                   41887                       Ÿ    notation.                                             Ÿ
                                   41888                       ¾þþþþþþþþþþþþþþþþþþþþþþþþþþþþþþþþþþþþþþþþþþþþþþþþþþþþþþþþþþ»
 007114 1851                       41889                       LR    R5,R1
 007116 1840                       41890                       LR    R4,R0
 007118 1244/47D0 7096             41891                       WHILE (R4,POS),BEGIN      Go through text...
 00711E 18F4                       41907  1                      LR    R15,R4
 007120 59F0 764E/47D0_      07758 41908  1                      CEIL  R15,256
 00712C 1B22                       41927  1                      CLEAR R2
 00712E 411F 5000            00000 41931  1                      LA    R1,@R5(R15)
 007132 06F0/44F0 7690_            41932  1                      DEX   R15,'TRT @R5(0),SPECTRT'  Look for special chars
 007138 1B15                       41951  1                      SR    R1,R5               No. of chars until special
                                   41952  1
 00713A 1A51                       41953  1                      AR    R5,R1               Kick working text ptrs
 00713C 1B41                       41954  1                      SR    R4,R1
                                   41955  1
 00713E 1222/4780 7092             41956  1                      IF    (R2,NZ),BEGIN       Found a special char...
 007144 1F22/4320 5000             41970  2                        LC    R2,@R5              Special char
 00714A 1835                       41977  2                        LR    R3,R5
 00714C 4150 5001            00001 41978  2                        LA    R5,@R5+1            Skip past special char
 007150 0640                       41979  2                        DECR  R4
 007152 41E0 8034/18F4_      0000C 41981  2                        MOVEL OUTDBUF,@R5,(R4)    Save remaining text
                                   42003  2
 00715E 92E0 3000      00000       42004  2                        MVI   @R3,C'\'            Convert to "\hex"
1SAM      (SAM2193) (12:54) (15MAR04) Samson Interface Routines                                                             Page  127
0Current Usings:  (*,R7) (OUTDWA-(4+36),R8) (CP,R11) (CV,R12)
0Loc    Object Code    Addr1 Addr2  Stmt Lv Lineno    Source Statement           (Hibal 5, Asmedit 3.3)  HLASM R4.0  2004/03/15 12.54
+___    ______ ____    _____ _____  ____ __ ______    ______ _________
0007162 18F2/4100 0002_            42005  2                        BTX   @R3+1,2,(R2)
 007172 1813/4100 0003             42028  2                        SETMSG @R3,3
 007178 58E0 7672/0DEE       0777C 42044  2                        ACALL OUTTRAN             Convert to ASCII
                                   42048  2
 00717E 41E0 5002/18F4_      00002 42049  2                        MOVEL @R5+2,OUTDBUF,(R4)  Restore remaining text
 00718C 4150 5002            00002 42071  2                        LA    R5,@R5+2
 007190 58F0 802C            00004 42072  2                        L     R15,OUTDPTRS        Adjust total text length
 007194 41F0 F002            00002 42073  2                        LA    R15,@R15+2
 007198 50F0 802C            00004 42074  2                        ST    R15,OUTDPTRS
 00719C                            42075  1                      END
 00719C 47F0 700E            07118 42079                       END
                                   42084
 0071A0 9801 802C            00004 42085                       LM    R0,R1,OUTDPTRS      Restore text ptrs
 0071A4 5500 7662/47D0_      0776C 42086                       FAIL  (R0,LGT,2048),SAMERR5,'Samson interface error.'
 0071C4 9001 8004            00004 42115                       PRETURN (R0,R1)           Return ptrs
 0071C8 18D8/9808 D004_            42117                       PEND
 DROP   OUTDWA-(4+36),R8
 DROP   *,R7
1SAM      (SAM2193) (12:54) (15MAR04) Samson Interface Routines                                                             Page  128
0Current Usings:  (CP,R11) (CV,R12)
0Loc    Object Code    Addr1 Addr2  Stmt Lv Lineno    Source Statement           (Hibal 5, Asmedit 3.3)  HLASM R4.0  2004/03/15 12.54
+___    ______ ____    _____ _____  ____ __ ______    ______ _________
0                                  42143              ¿þþþþþþþþþþþþþþþþþþþþþþþþþþþþþþþþþþþþþþþþþþþþþþþþþþþþþþþþþþþþþþþþþþþþþÜ
                                   42144              Ÿ                                                                     Ÿ
                                   42145              Ÿ  OUTPACK -- Local routine to convert ASCII text into it's           Ÿ
                                   42146              Ÿ    packed format.                                                   Ÿ
                                   42147              Ÿ                                                                     Ÿ
                                   42148              Ÿ    On entry:                                                        Ÿ
                                   42149              Ÿ      R1,R0 - text loc, len                                          Ÿ
                                   42150              Ÿ                                                                     Ÿ
                                   42151              Ÿ    On exit:                                                         Ÿ
                                   42152              Ÿ      R1,R0 - packed text loc, len                                   Ÿ
                                   42153              Ÿ              (the text is packed in place)                          Ÿ
                                   42154              Ÿ                                                                     Ÿ
                                                      ¾þþþþþþþþþþþþþþþþþþþþþþþþþþþþþþþþþþþþþþþþþþþþþþþþþþþþþþþþþþþþþþþþþþþþþ»
0000000                00000 00808 42155              OUTXWA   RECORD BEGIN
 000000 00                         42163  1           OUTXFLAG   FLAG
                                   42167  1
 000004                            42168  1           OUTXORIG   DS    A                   Data ptr on entry
                                   42169  1           OUTXINIT   EQU   OUTXFLAG,*-OUTXFLAG,C'X'
                                   42170  1
 000008                            42171  1           OUTXBUF    DS    XL2048              Working buffer
 000808                00808 00808 42172                       END
                                   42181              þþþþ
 0071D6 50E0 D000/9008_      00000 42182              OUTPACK  PROC  OUTXWA
 USING  *,R7
 USING  OUTXWA-(4+36),R8
 0071F0 5860 BE58            00E58 42232                       L     R6,CPDEVP           SAMWA ptr
 USING  SAMWA,R6                   42233                       WITH  (SAMWA,R6)
 0071F4 D502 75A0 6000_07790 00000 42246                       FAIL  (SAMWA,NE,'SAM'),BADSAM,'Bad SAMWA ptr'
                                   42275
 007216 D707 8028 8028 00000 00000 42276                       CLEAR OUTXINIT
 00721C 5010 802C            00004 42283                       ST    R1,OUTXORIG         Save data ptr for later
                                   42284
 007220 1830                       42285                       LR    R3,R0               R3 = remaining length
 007222 1841                       42286                       LR    R4,R1               R4 = output buffer ptr
                                   42287                       ¿þþþþþþþþþþþþþþþþþþþþþþþþþþþþþþþþþþþþþþþþþþþÜ
                                   42288                       Ÿ  Copy the text in to our working buffer.  Ÿ
                                   42289                       ¾þþþþþþþþþþþþþþþþþþþþþþþþþþþþþþþþþþþþþþþþþþþ»
 007224 41E0 8030/18F3_      00008 42290                       MOVEL OUTXBUF,@R4,(R3)    Save source buffer
 007230 4150 8030            00008 42312                       LA    R5,OUTXBUF          R5 = source buffer ptr
                                   42313
 007234 9110 60DE/4710_000DE       42314                       IF    SAMFSHIFT,OUTX8LP   We are in shifted mode now
                                   42332              ***
                                   42333              ***  Send the data in packed mode.
                                   42334              ***
 00723C 1233/47D0 7122             42335              OUTXLOOP WHILE (R3,POS),BEGIN      Go through text...
                                   42352  1                      ¿þþþþþþþþþþþþþþþþþþþþþþþþþþþþþþþþþþþþþþþþþþþþþþþþþþþþþþþþþþþþÜ
                                   42353  1                      Ÿ  Check for special character which must be sent as "\hh".  Ÿ
                                   42354  1                      ¾þþþþþþþþþþþþþþþþþþþþþþþþþþþþþþþþþþþþþþþþþþþþþþþþþþþþþþþþþþþþ»
 007242 1FFF/43F0 5000             42355  1                      LC    R15,@R5             Get character
 007248 1FEE/43EF 7960             42362  1                      LC    R14,SPECTRT(R15)    Is it a special charcter?
 00724E 12EE/4780 708E             42369  1                      IF    (R14,NZ),BEGIN      Yes, send it as hex...
 007254 92E0 4000      00000       42383  2                        MVI   @R4,C'\'            Backslash
 007258 4100 0002/4110_      00002 42384  2                        BTX   @R4+1,2,(R15)       Hex
1SAM      (SAM2193) (12:54) (15MAR04) Samson Interface Routines                                                             Page  129
0Current Usings:  (SAMWA,R6) (*,R7) (OUTXWA-(4+36),R8) (CP,R11) (CV,R12)
0Loc    Object Code    Addr1 Addr2  Stmt Lv Lineno    Source Statement           (Hibal 5, Asmedit 3.3)  HLASM R4.0  2004/03/15 12.54
+___    ______ ____    _____ _____  ____ __ ______    ______ _________
0007266 58E0 C8B0            008B0 42406  2                        L     R14,CVASCTBL
 00726A DC02 4000 E000 00000 00000 42407  2                        TR    @R4(3),@R14         Translate to ASCII
 007270 4140 4003            00003 42408  2                        LA    R4,@R4+3            Kick output data ptr
 007274 4150 5001            00001 42409  2                        LA    R5,@R5+1            Kick input data ptr
 007278 0630                       42410  2                        DECR  R3                  Decrement remaining length
 00727A 47F0 704C            0723C 42412  2                        B     OUTXLOOP
 00727E                            42413  1                      END
                                   42417  1                      ¿þþþþþþþþþþþþþþþþþþþþþþþþþþþþþþþþþþþþþþþþþþþþþþþþþþþþþþþþþþþþþþþÜ
                                   42418  1                      Ÿ  For packed data we use the MSB to indicate that a blank is   Ÿ
                                   42419  1                      Ÿ    to follow this byte.  If the data byte itself already has  Ÿ
                                   42420  1                      Ÿ    the MSB on then we must either send that byte as "\hh" or  Ÿ
                                   42421  1                      Ÿ    shift in to 8-bit mode with the "\(" sequence.             Ÿ
                                   42422  1                      ¾þþþþþþþþþþþþþþþþþþþþþþþþþþþþþþþþþþþþþþþþþþþþþþþþþþþþþþþþþþþþþþþ»
 00727E 9180 5000/4710_00000       42423  1                      IF    ~@R5.X'80',BEGIN    MSB is not on in data byte...
 007286 D200 4000 5000 00000 00000 42439  2                        MVC   @R4(1),@R5          Put the byte in the output buffer
 00728C 5930 7590/47D0_      07780 42440  2                        IF    ((R3,GT,1),AND,(@R5+1,EQ,X'20')),BEGIN  Compress...
 00729C 9680 4000      00000       42472  3                          SET   @R4.X'80'           Turn the MSB on
 0072A0 4140 4001            00001 42479  3                          LA    R4,@R4+1            Kick output data ptr
 0072A4 4150 5002            00002 42480  3                          LA    R5,@R5+2            Kick input data ptr
 0072A8 4B30 7598            07788 42481  3                          SH    R3,=H'2'            Decrement remaining length
 0072AC 47F0 704C            0723C 42482  3                          B     OUTXLOOP
 0072B0                            42483  2                        END
                                   42487  2
 0072B0 4140 4001            00001 42488  2                        LA    R4,@R4+1            Kick output data ptr
 0072B4 4150 5001            00001 42489  2                        LA    R5,@R5+1            Kick input data ptr
 0072B8 0630                       42490  2                        DECR  R3                  Decrement remaining length
 0072BA 47F0 704C            0723C 42492  2                        B     OUTXLOOP
 0072BE                            42493  1                      END
                                   42497  1                      ¿þþþþþþþþþþþþþþþþþþþþþþþþþþþþþþþþþþþþþþþþþþþþþþþþþþþþþþþþþþþþþþÜ
                                   42498  1                      Ÿ  This byte must be sent in an alternate mode, if any of the  Ÿ
                                   42499  1                      Ÿ    next three bytes also need to be sent in an alternate     Ÿ
                                   42500  1                      Ÿ    mode then switch to 8-bit mode.  Otherwise, just send     Ÿ
                                   42501  1                      Ÿ    this byte using the "\hh" notation.                       Ÿ
                                   42502  1                      ¾þþþþþþþþþþþþþþþþþþþþþþþþþþþþþþþþþþþþþþþþþþþþþþþþþþþþþþþþþþþþþþ»
 0072BE 5930 756C/47D0_      0775C 42503  1                      IF    (R3,GT,3),BEGIN     Maybe we should switch modes...
 0072C6 9180 5001/4710_00001       42520  2                        IF    @R5+1.X'80',OUTX8BIT
 0072CE 9180 5002/4710_00002       42539  2                        IF    @R5+2.X'80',OUTX8BIT
 0072D6 9180 5003/4710_00003       42558  2                        IF    @R5+3.X'80',OUTX8BIT
 0072DE                            42577  1                      END
                                   42581  1           *
                                   42582  1           *
 0072DE 1FFF/43F0 5000             42583  1                      LC    R15,@R5             Get character
 0072E4 92E0 4000      00000       42590  1                      MVI   @R4,C'\'            Backslash
 0072E8 4100 0002/4110_      00002 42591  1                      BTX   @R4+1,2,(R15)       Hex
 0072F6 58E0 C8B0            008B0 42613  1                      L     R14,CVASCTBL
 0072FA DC02 4000 E000 00000 00000 42614  1                      TR    @R4(3),@R14         Translate to ASCII
 007300 4140 4003            00003 42615  1                      LA    R4,@R4+3            Kick output data ptr
 007304 4150 5001            00001 42616  1                      LA    R5,@R5+1            Kick input data ptr
 007308 0630                       42617  1                      DECR  R3                  Decrement remaining length
 00730A 47F0 704C            0723C 42619  1                      B     OUTXLOOP
 00730E 47F0 704C            0723C 42620                       END
 007312 47F0 71C8            073B8 42625                       B     OUTXDONE
                                   42626              ***
                                   42627              ***  Send the data in 8-bit mode.
1SAM      (SAM2193) (12:54) (15MAR04) Samson Interface Routines                                                             Page  130
0Current Usings:  (SAMWA,R6) (*,R7) (OUTXWA-(4+36),R8) (CP,R11) (CV,R12)
0Loc    Object Code    Addr1 Addr2  Stmt Lv Lineno    Source Statement           (Hibal 5, Asmedit 3.3)  HLASM R4.0  2004/03/15 12.54
+___    ______ ____    _____ _____  ____ __ ______    ______ _________
0                                  42628              ***
 007316 925C 4000      00000       42629              OUTX8BIT MVI   @R4,X'5C'           Ascii "\"
 00731A 9228 4001      00001       42630                       MVI   @R4+1,X'28'         Ascii "("
 00731E 4140 4002            00002 42631                       LA    R4,@R4+2            Kick ptr
 007322 9610 60DE      000DE       42632                       SET   SAMFSHIFT           Remember we are 'shifted' now
                                   42638              *
                                   42639              *
 007326 1233/47D0 71C8             42640              OUTX8LP  WHILE (R3,POS),BEGIN      Go through text...
                                   42657  1                      ¿þþþþþþþþþþþþþþþþþþþþþþþþþþþþþþþþþþþþþþþþþþþþþþþþþþþþþþþþþþþþÜ
                                   42658  1                      Ÿ  Check for special character which must be sent as "\hh".  Ÿ
                                   42659  1                      ¾þþþþþþþþþþþþþþþþþþþþþþþþþþþþþþþþþþþþþþþþþþþþþþþþþþþþþþþþþþþþ»
 00732C 1FFF/43F0 5000             42660  1                      LC    R15,@R5             Get character
 007332 1FEE/43EF 7960             42667  1                      LC    R14,SPECTRT(R15)    Is it a special charcter?
 007338 12EE/4780 7178             42674  1                      IF    (R14,NZ),BEGIN      Yes, send it as hex...
 00733E 92E0 4000      00000       42688  2                        MVI   @R4,C'\'            Backslash
 007342 4100 0002/4110_      00002 42689  2                        BTX   @R4+1,2,(R15)       Hex
 007350 58E0 C8B0            008B0 42711  2                        L     R14,CVASCTBL
 007354 DC02 4000 E000 00000 00000 42712  2                        TR    @R4(3),@R14         Translate to ASCII
 00735A 4140 4003            00003 42713  2                        LA    R4,@R4+3            Kick output data ptr
 00735E 4150 5001            00001 42714  2                        LA    R5,@R5+1            Kick input data ptr
 007362 0630                       42715  2                        DECR  R3                  Decrement remaining length
 007364 47F0 7136            07326 42717  2                        B     OUTX8LP
 007368                            42718  1                      END
                                   42722  1
 007368 D200 4000 5000 00000 00000 42723  1                      MVC   @R4(1),@R5          Put the byte in the output buffer
 00736E 4140 4001            00001 42724  1                      LA    R4,@R4+1            Kick output data ptr
 007372 4150 5001            00001 42725  1                      LA    R5,@R5+1            Kick input data ptr
 007376 0630                       42726  1                      DECR  R3                  Decrement remaining length
                                   42728  1                      ¿þþþþþþþþþþþþþþþþþþþþþþþþþþþþþþþþþþþþþþþþþþþþþþþþþþþþþþþþþþÜ
                                   42729  1                      Ÿ  If none of the next 4 characters have the MSB on, then  Ÿ
                                   42730  1                      Ÿ    switch back to packed mode.                           Ÿ
                                   42731  1                      ¾þþþþþþþþþþþþþþþþþþþþþþþþþþþþþþþþþþþþþþþþþþþþþþþþþþþþþþþþþþ»
 007378 5930 7594/4740_      07784 42732  1                      IF    (R3,LT,4),OUTX8LP
 007380 9180 5000/4710_00000       42752  1                      IF    @R5.X'80',OUTX8LP
 007388 9180 5001/4710_00001       42771  1                      IF    @R5+1.X'80',OUTX8LP
 007390 9180 5002/4710_00002       42790  1                      IF    @R5+2.X'80',OUTX8LP
 007398 9180 5003/4710_00003       42809  1                      IF    @R5+3.X'80',OUTX8LP
                                   42828  1
 0073A0 925C 4000      00000       42829  1                      MVI   @R4,X'5C'           Ascii "\"
 0073A4 9229 4001      00001       42830  1                      MVI   @R4+1,X'29'         Ascii ")"
 0073A8 4140 4002            00002 42831  1                      LA    R4,@R4+2            Kick ptr
 0073AC 94EF 60DE      000DE       42832  1                      CLEAR SAMFSHIFT           Remember we are not 'shifted'
 0073B0 47F0 704C            0723C 42839  1                      B     OUTXLOOP            Go back to packed mode
 0073B4 47F0 7136            07326 42840                       END
                                   42845              *
                                   42846              *
 0073B8 5810 802C            00004 42847              OUTXDONE L     R1,OUTXORIG         Return packed buffer loc...
 0073BC 1804                       42848                       LR    R0,R4
 0073BE 1B01                       42849                       SR    R0,R1               ...and length
 0073C0 5500 757C/47D0_      0776C 42850                       FAIL  (R0,LGT,2048),SAMERR6,'Samson interface error.'
                                   42879
 0073E0 9001 8004            00004 42880                       PRETURN (R0,R1)
 0073E4 18D8/9808 D004_            42882                       PEND
 DROP   SAMWA,R6
1SAM      (SAM2193) (12:54) (15MAR04) Samson Interface Routines                                                             Page  131
0Current Usings:  (CP,R11) (CV,R12)
0Loc    Object Code    Addr1 Addr2  Stmt Lv Lineno    Source Statement           (Hibal 5, Asmedit 3.3)  HLASM R4.0  2004/03/15 12.54
+___    ______ ____    _____ _____  ____ __ ______    ______ _________
0DROP   OUTXWA-(4+36),R8
 DROP   *,R7
1SAM      (SAM2193) (12:54) (15MAR04) Samson Interface Routines                                                             Page  132
0Current Usings:  (CP,R11) (CV,R12)
0Loc    Object Code    Addr1 Addr2  Stmt Lv Lineno    Source Statement           (Hibal 5, Asmedit 3.3)  HLASM R4.0  2004/03/15 12.54
+___    ______ ____    _____ _____  ____ __ ______    ______ _________
0                                  42913              ¿þþþþþþþþþþþþþþþþþþþþþþþþþþþþþþþþþþþþþþþþþþþþþþþþþþþþþþþþþþþþþþþþþþþþþÜ
                                   42914              Ÿ                                                                     Ÿ
                                   42915              Ÿ  OUT7BIT -- Local routine to convert ASCII text into it's           Ÿ
                                   42916              Ÿ    7-bit format.                                                    Ÿ
                                   42917              Ÿ                                                                     Ÿ
                                   42918              Ÿ    On entry:                                                        Ÿ
                                   42919              Ÿ      R1,R0 - text loc, len                                          Ÿ
                                   42920              Ÿ                                                                     Ÿ
                                   42921              Ÿ    On exit:                                                         Ÿ
                                   42922              Ÿ      R1,R0 - packed text loc, len                                   Ÿ
                                   42923              Ÿ              (the text is packed in place)                          Ÿ
                                   42924              Ÿ                                                                     Ÿ
                                                      ¾þþþþþþþþþþþþþþþþþþþþþþþþþþþþþþþþþþþþþþþþþþþþþþþþþþþþþþþþþþþþþþþþþþþþþ»
0000000                00000 00808 42925              OUT7WA   RECORD BEGIN
 000000 00                         42933  1           OUT7FLAG   FLAG
                                   42937  1
 000004                            42938  1           OUT7ORIG   DS    A                   Data ptr on entry
                                   42939  1           OUT7INIT   EQU   OUT7FLAG,*-OUT7FLAG,C'X'
                                   42940  1
 000008                            42941  1           OUT7BUF    DS    XL2048              Working buffer
 000808                00808 00808 42942                       END
                                   42951              þþþþ
 0073F2 50E0 D000/9008_      00000 42952              OUT7BIT  PROC  OUT7WA
 USING  *,R7
 USING  OUT7WA-(4+36),R8
 00740C 5860 BE58            00E58 43002                       L     R6,CPDEVP           SAMWA ptr
 USING  SAMWA,R6                   43003                       WITH  (SAMWA,R6)
 007410 D502 7384 6000_07790 00000 43016                       FAIL  (SAMWA,NE,'SAM'),BADSAM,'Bad SAMWA ptr'
                                   43045
 007432 D707 8028 8028 00000 00000 43046                       CLEAR OUT7INIT
 007438 5010 802C            00004 43053                       ST    R1,OUT7ORIG         Save data ptr for later
                                   43054
 00743C 1830                       43055                       LR    R3,R0               R3 = remaining length
 00743E 1841                       43056                       LR    R4,R1               R4 = output buffer ptr
                                   43057                       ¿þþþþþþþþþþþþþþþþþþþþþþþþþþþþþþþþþþþþþþþþþþþÜ
                                   43058                       Ÿ  Copy the text in to our working buffer.  Ÿ
                                   43059                       ¾þþþþþþþþþþþþþþþþþþþþþþþþþþþþþþþþþþþþþþþþþþþ»
 007440 41E0 8030/18F3_      00008 43060                       MOVEL OUT7BUF,@R4,(R3)    Save source buffer
 00744C 4150 8030            00008 43082                       LA    R5,OUT7BUF          R5 = source buffer ptr
                                   43083              ***
                                   43084              ***  Send the data in 7-bit mode.
                                   43085              ***
 007450 1233/47D0 70DC             43086              OUT7LOOP WHILE (R3,POS),BEGIN      Go through text...
                                   43103  1                      ¿þþþþþþþþþþþþþþþþþþþþþþþþþþþþþþþþþþþþþþþþþþþþþþþþþþþþþþþþþþþþÜ
                                   43104  1                      Ÿ  Check for special character which must be sent as "\hh".  Ÿ
                                   43105  1                      ¾þþþþþþþþþþþþþþþþþþþþþþþþþþþþþþþþþþþþþþþþþþþþþþþþþþþþþþþþþþþþ»
 007456 1F22/4320 5000             43106  1                      LC    R2,@R5              Get character
 00745C 1FEE/43E2 7744             43113  1                      LC    R14,SPECTRT(R2)     Is it a special charcter?
 007462 12EE/4780 7088             43120  1                      IF    (R14,NZ),BEGIN      Yes, send it as hex...
 007468 92E0 4000      00000       43134  2                        MVI   @R4,C'\'            Backslash
 00746C 18F2/4100 0002_            43135  2                        BTX   @R4+1,2,(R2)        Hex
 00747C 58E0 C8B0            008B0 43158  2                        L     R14,CVASCTBL
 007480 DC02 4000 E000 00000 00000 43159  2                        TR    @R4(3),@R14         Translate to ASCII
1SAM      (SAM2193) (12:54) (15MAR04) Samson Interface Routines                                                             Page  133
0Current Usings:  (SAMWA,R6) (*,R7) (OUT7WA-(4+36),R8) (CP,R11) (CV,R12)
0Loc    Object Code    Addr1 Addr2  Stmt Lv Lineno    Source Statement           (Hibal 5, Asmedit 3.3)  HLASM R4.0  2004/03/15 12.54
+___    ______ ____    _____ _____  ____ __ ______    ______ _________
0007486 4140 4003            00003 43160  2                        LA    R4,@R4+3            Kick output data ptr
 00748A 4150 5001            00001 43161  2                        LA    R5,@R5+1            Kick input data ptr
 00748E 0630                       43162  2                        DECR  R3                  Decrement remaining length
 007490 47F0 7044            07450 43164  2                        B     OUT7LOOP
 007494                            43165  1                      END
                                   43169  1                      ¿þþþþþþþþþþþþþþþþþþþþþþþþþþþþþþþþþþþþþþþþþþþþþþþþþþþþþþþþþþþÜ
                                   43170  1                      Ÿ  If the data byte has the high order bit set when we are  Ÿ
                                   43171  1                      Ÿ     not in "msb on" mode (or vice-versa).                 Ÿ
                                   43172  1                      ¾þþþþþþþþþþþþþþþþþþþþþþþþþþþþþþþþþþþþþþþþþþþþþþþþþþþþþþþþþþþ»
                                   43173  1         C            IF    ((SAMFMSB,AND,(R2,LT,X'80')),OR,
 007494 9108 60DE/47E0_000DE              1                            (~SAMFMSB,AND,(R2,GE,X'80'))),BEGIN
 0074B4 9708 60DE      000DE       43234  2                        FLIP  SAMFMSB             Toggle MSB on/off switch
                                   43240  2
 0074B8 925C 4000      00000       43241  2                        MVI   @R4,X'5C'           \
 0074BC 922D 4001      00001       43242  2                        MVI   @R4+1,X'2D'                "-"
 0074C0 9108 60DE/47E0_000DE       43243  2                        IF    SAMFMSB,'MVI @R4+1,X"2B"'  "+"
 0074CC 4140 4002            00002 43264  2                        LA    R4,@R4+2            Skip past "\+" or "\-"
 0074D0                            43265  1                      END
                                   43269  1
 0074D0 D200 4000 5000 00000 00000 43270  1                      MVC   @R4(1),@R5          Save output data byte
 0074D6 947F 4000      00000       43271  1                      NI    @R4,X'7F'           MSB is never set in 7bit mode
 0074DA 4140 4001            00001 43272  1                      LA    R4,@R4+1            Kick output data ptr
 0074DE 4150 5001            00001 43273  1                      LA    R5,@R5+1            Kick input data ptr
 0074E2 0630                       43274  1                      DECR  R3                  Decrement remaining length
 0074E4 47F0 7044            07450 43276                       END
                                   43281              *
                                   43282              *
 0074E8 5810 802C            00004 43283                       L     R1,OUT7ORIG         Return packed buffer loc...
 0074EC 1804                       43284                       LR    R0,R4
 0074EE 1B01                       43285                       SR    R0,R1               ...and length
 0074F0 5500 7360/47D0_      0776C 43286                       FAIL  (R0,LGT,2048),SAMERR6,'Samson interface error.'
                                   43315
 007510 9001 8004            00004 43316                       PRETURN (R0,R1)
 007514 18D8/9808 D004_            43318                       PEND
 DROP   SAMWA,R6
 DROP   OUT7WA-(4+36),R8
 DROP   *,R7
1SAM      (SAM2193) (12:54) (15MAR04) Samson Interface Routines                                                             Page  134
0Current Usings:  (CP,R11) (CV,R12)
0Loc    Object Code    Addr1 Addr2  Stmt Lv Lineno    Source Statement           (Hibal 5, Asmedit 3.3)  HLASM R4.0  2004/03/15 12.54
+___    ______ ____    _____ _____  ____ __ ______    ______ _________
0                                  43349              ¿þþþþþþþþþþþþþþþþþþþþþþþþþþþþþþþþþþþþþþþþþþþþþþþþþþþþþþþþþþþþþþþþþþþþþÜ
                                   43350              Ÿ                                                                     Ÿ
                                   43351              Ÿ  OUTHEX -- Local routine to convert ASCII text to hex format.       Ÿ
                                   43352              Ÿ                                                                     Ÿ
                                   43353              Ÿ    On entry:                                                        Ÿ
                                   43354              Ÿ      R1,R0 - text loc, len                                          Ÿ
                                   43355              Ÿ                                                                     Ÿ
                                   43356              Ÿ    On exit:                                                         Ÿ
                                   43357              Ÿ      R1,R0 - converted text loc, len                                Ÿ
                                   43358              Ÿ              (the text is expanded in place)                        Ÿ
                                   43359              Ÿ                                                                     Ÿ
                                                      ¾þþþþþþþþþþþþþþþþþþþþþþþþþþþþþþþþþþþþþþþþþþþþþþþþþþþþþþþþþþþþþþþþþþþþþ»
0000000                00000 00814 43360              OUTHWA   RECORD BEGIN
 000000 00                         43368  1           OUTHFLAG   FLAG
                                   43372  1
 000004                            43373  1           OUTHPTRS   DS    2A                  Text len, loc
                                   43374  1           OUTHINIT   EQU   OUTHFLAG,*-OUTHFLAG,C'X'
                                   43375  1
 00000C                            43376  1           OUTHWORK   DS    CL8                 BTX work area
                                   43377  1
 000014                            43378  1           OUTHBUF    DS    XL2048              Working buffer
 000814                00814 00814 43379                       END
                                   43388              þþþþ
 007522 50E0 D000/9008_      00000 43389              OUTHEX   PROC  OUTHWA
 USING  *,R7
 USING  OUTHWA-(4+36),R8
 00753C D70B 8028 8028 00000 00000 43439                       CLEAR OUTHINIT
                                   43446
 007542 1831                       43447                       LR    R3,R1
 007544 1840                       43448                       LR    R4,R0
 007546 9001 802C            00004 43449                       STM   R0,R1,OUTHPTRS      Save text ptrs for later
                                   43450                       ¿þþþþþþþþþþþþþþþþþþþþþþþþþþþþþþþþþþþþþþþþþþÜ
                                   43451                       Ÿ  Copy the text into our working buffer.  Ÿ
                                   43452                       ¾þþþþþþþþþþþþþþþþþþþþþþþþþþþþþþþþþþþþþþþþþþ»
 00754A 41E0 803C/18F4_      00014 43453                       MOVEL OUTHBUF,@R3,(R4)
                                   43475                       ¿þþþþþþþþþþþþþþþþþþþþþþþþþþþþþþþþþþþþþþþþþþþþÜ
                                   43476                       Ÿ  Convert the text to (EBCDIC) hex digits.  Ÿ
                                   43477                       ¾þþþþþþþþþþþþþþþþþþþþþþþþþþþþþþþþþþþþþþþþþþþþ»
 007556 4150 803C            00014 43478                       LA    R5,OUTHBUF          Source buffer
 00755A 1244/47D0 705C             43479                       WHILE (R4,POS),BEGIN      Go through text...
 007560 58F0 5000/4100_      00000 43495  1                      BTX   OUTHWORK,,L:@R5
 007572 1824                       43516  1                      LR    R2,R4
 007574 5920 7248/47D0_      07784 43517  1                      CEIL  R2,4                Maximum number of bytes
                                   43536  1
 007580 18F2                       43537  1                      LR    R15,R2
 007582 1AFF                       43538  1                      AR    R15,R15             Digit count
 007584 06F0/44F0 7264_            43539  1                      DEX   R15,'MVC @R3(0),OUTHWORK'  Save digits
 00758A 4133 F001            00001 43558  1                      LA    R3,@R15+1(R3)
                                   43559  1
 00758E 4152 5000            00000 43560  1                      LA    R5,@R5(R2)
 007592 1B42                       43561  1                      SR    R4,R2
 007594 47F0 701E            0755A 43562                       END
1SAM      (SAM2193) (12:54) (15MAR04) Samson Interface Routines                                                             Page  135
0Current Usings:  (*,R7) (OUTHWA-(4+36),R8) (CP,R11) (CV,R12)
0Loc    Object Code    Addr1 Addr2  Stmt Lv Lineno    Source Statement           (Hibal 5, Asmedit 3.3)  HLASM R4.0  2004/03/15 12.54
+___    ______ ____    _____ _____  ____ __ ______    ______ _________
0                                  43567                       ¿þþþþþþþþþþþþþþþþþþþþþþþþþþþþþþþþþþþþþþþþþþþþþþþþþþÜ
                                   43568                       Ÿ  Convert EBCDIC hex digits to ASCII hex digits.  Ÿ
                                   43569                       ¾þþþþþþþþþþþþþþþþþþþþþþþþþþþþþþþþþþþþþþþþþþþþþþþþþþ»
 007598 9801 802C            00004 43570                       LM    R0,R1,OUTHPTRS
 00759C 1A00                       43571                       AR    R0,R0               Text length has doubled
 00759E 58E0 7240/0DEE       0777C 43572                       ACALL OUTTRAN             Convert to ASCII
 0075A4 9001 8004            00004 43576                       PRETURN (R0,R1)
 0075A8 18D8/9808 D004_            43578                       PEND
 DROP   OUTHWA-(4+36),R8
 DROP   *,R7
1SAM      (SAM2193) (12:54) (15MAR04) Samson Interface Routines                                                             Page  136
0Current Usings:  (CP,R11) (CV,R12)
0Loc    Object Code    Addr1 Addr2  Stmt Lv Lineno    Source Statement           (Hibal 5, Asmedit 3.3)  HLASM R4.0  2004/03/15 12.54
+___    ______ ____    _____ _____  ____ __ ______    ______ _________
0                                  43604              ¿þþþþþþþþþþþþþþþþþþþþþþþþþþþþþþþþþþþþþþþþþþþþþþþþþþþþþþþþþþþþþþþþþþþþþÜ
                                   43605              Ÿ                                                                     Ÿ
                                   43606              Ÿ  OUTTRAN -- Local routine to translate EBCDIC text to ASCII.        Ÿ
                                   43607              Ÿ                                                                     Ÿ
                                   43608              Ÿ    On entry:                                                        Ÿ
                                   43609              Ÿ      R1,R0 - text loc, len                                          Ÿ
                                   43610              Ÿ                                                                     Ÿ
                                   43611              Ÿ    On exit:                                                         Ÿ
                                   43612              Ÿ      R1,R0 - translated text loc, len                               Ÿ
                                   43613              Ÿ              (the text is translated in place)                      Ÿ
                                   43614              Ÿ                                                                     Ÿ
                                                      ¾þþþþþþþþþþþþþþþþþþþþþþþþþþþþþþþþþþþþþþþþþþþþþþþþþþþþþþþþþþþþþþþþþþþþþ»
00075B6 50E0 D000/9008_      00000 43615              OUTTRAN  PROC
 USING  *,R7
 0075D0 5820 C8B0            008B0 43654                       L     R2,CVASCTBL         ASCII translate table
                                   43655
 0075D4 1200/47D0 702A             43656                       WHILE (R0,POS),BEGIN      Translate text...
 0075DA 18F0                       43672  1                      LR    R15,R0
 0075DC 59F0 7188/47D0_      07758 43673  1                      CEIL  R15,256
 0075E8 06F0/44F0 71D6_            43692  1                      DEX   R15,'TR @R1(0),@R2'    To ASCII
                                   43711  1
 0075EE 4110 1100            00100 43712  1                      LA    R1,@R1+256
 0075F2 4B00 71BE            0778E 43713  1                      SH    R0,=H'256'
 0075F6 47F0 7004            075D4 43714                       END
                                   43719
 0075FA 18D8/9808 D004_            43720                       PEND
 DROP   *,R7
1SAM      (SAM2193) (12:54) (15MAR04) Samson Interface Routines                                                             Page  137
0Current Usings:  (CP,R11) (CV,R12)
0Loc    Object Code    Addr1 Addr2  Stmt Lv Lineno    Source Statement           (Hibal 5, Asmedit 3.3)  HLASM R4.0  2004/03/15 12.54
+___    ______ ____    _____ _____  ____ __ ______    ______ _________
0                                  43741              ¿þþþþþþþþþþþþþþþþþþþþþþþþþþþþþþþþþþþþþþþþþþþþþþþþþþþþþþþþþþþþþþþþþþþþþÜ
                                   43742              Ÿ                                                                     Ÿ
                                   43743              Ÿ  CLRHIBIT -- Local routine to clear the high (x'80') bit on         Ÿ
                                   43744              Ÿ    all bytes.                                                       Ÿ
                                   43745              Ÿ                                                                     Ÿ
                                   43746              Ÿ    On entry:                                                        Ÿ
                                   43747              Ÿ      R1,R0 - data loc, len                                          Ÿ
                                   43748              Ÿ                                                                     Ÿ
                                   43749              Ÿ    On exit:                                                         Ÿ
                                   43750              Ÿ      R1,R0 - modified data loc, len (same ptrs as on entry)         Ÿ
                                   43751              Ÿ                                                                     Ÿ
                                                      ¾þþþþþþþþþþþþþþþþþþþþþþþþþþþþþþþþþþþþþþþþþþþþþþþþþþþþþþþþþþþþþþþþþþþþþ»
0007608 50E0 D000/9008_      00000 43752              CLRHIBIT PROC
 USING  *,R7
 007622 1200/47D0 7026             43791                       WHILE (R0,POS),BEGIN      Go through data bytes...
 007628 18F0                       43807  1                      LR    R15,R0
 00762A 59F0 7136/47D0_      07758 43808  1                      CEIL  R15,256             Not too much
                                   43827  1
 007636 06F0/44F0 718A_            43828  1                      DEX   R15,'NC @R1(0),=256X"7F"'  Clear high bit
                                   43847  1
 00763C 4110 1100            00100 43848  1                      LA    R1,@R1+256          Kick ptr
 007640 4B00 716C            0778E 43849  1                      SH    R0,=H'256'          Decr remaining length
 007644 47F0 7000            07622 43850                       END
                                   43855
 007648 18D8/9808 D004_            43856                       PEND
 DROP   *,R7
                                   43876
                                   43877                       QLTORG
                                   43907              ¿þþþþþþþþþþþþþþþþþþþþþþþþþþþþþþþþþþþþþþþþþþþþþþþþþþþþþþþþþþþþþþþþþþþþþÜ
                                   43908              Ÿ                                                                     Ÿ
                                   43909              Ÿ  Stop on ASCII \ Table                                              Ÿ
                                   43910              Ÿ                                                                     Ÿ
                                                      ¾þþþþþþþþþþþþþþþþþþþþþþþþþþþþþþþþþþþþþþþþþþþþþþþþþþþþþþþþþþþþþþþþþþþþþ»
00077B2 0000000000000000           43911              ASCSTRT  DC    XL256'00'
 0078B2                078B2 0780E 43912                       ORG   ASCSTRT+X'5C'
 00780E FF                         43913                       DC    X'FF'               ASCII \ (parity off)
 00780F                0780F 0788E 43914                       ORG   ASCSTRT+X'DC'
 00788E FF                         43915                       DC    X'FF'               ASCII \ (parity on)
 00788F                0788F 078B2 43916                       ORG
1SAM      (SAM2193) (12:54) (15MAR04) Samson Interface Routines                                                             Page  138
0Current Usings:  (CP,R11) (CV,R12)
0Loc    Object Code    Addr1 Addr2  Stmt Lv Lineno    Source Statement           (Hibal 5, Asmedit 3.3)  HLASM R4.0  2004/03/15 12.54
+___    ______ ____    _____ _____  ____ __ ______    ______ _________
0                                  43918              ¿þþþþþþþþþþþþþþþþþþþþþþþþþþþþþþþþþþþþþþþþþþþþþþþþþþþþþþþþþþþþþþþþþþþþþÜ
                                   43919              Ÿ                                                                     Ÿ
                                   43920              Ÿ  CHECKSUM -- Local routine to perform an 8-bit additive checksum.   Ÿ
                                   43921              Ÿ                                                                     Ÿ
                                   43922              Ÿ    On entry:                                                        Ÿ
                                   43923              Ÿ      R15 - old checksum                                             Ÿ
                                   43924              Ÿ      R1,R0 - data loc, len                                          Ÿ
                                   43925              Ÿ                                                                     Ÿ
                                   43926              Ÿ    On exit:                                                         Ÿ
                                   43927              Ÿ      R15 - new checksum                                             Ÿ
                                   43928              Ÿ      R1,R0 - unchanged from entry                                   Ÿ
                                   43929              Ÿ                                                                     Ÿ
                                                      ¾þþþþþþþþþþþþþþþþþþþþþþþþþþþþþþþþþþþþþþþþþþþþþþþþþþþþþþþþþþþþþþþþþþþþþ»
00078B2 50E0 D000/9008_      00000 43930              CHECKSUM PROC
 USING  *,R7
 0078CC 1B22                       43969                       CLEAR R2                  (For IC later)
                                   43973
 0078CE 1200/47D0 7018             43974                       WHILE (R0,POS),BEGIN      Go through data...
 0078D4 4320 1000            00000 43990  1                      IC    R2,@R1
 0078D8 1AF2                       43991  1                      AR    R15,R2              Sum the byte
                                   43992  1
 0078DA 4110 1001            00001 43993  1                      LA    R1,@R1+1
 0078DE 0600                       43994  1                      DECR  R0
 0078E0 47F0 7002            078CE 43996                       END
                                   44001
 0078E4 54F0 73DC            07CA8 44002                       N     R15,=A(X'FF')       Only keep the low byte
 0078E8 18D8/9808 D004_            44003                       PEND
 DROP   *,R7
1SAM      (SAM2193) (12:54) (15MAR04) Samson Interface Routines                                                             Page  139
0Current Usings:  (CP,R11) (CV,R12)
0Loc    Object Code    Addr1 Addr2  Stmt Lv Lineno    Source Statement           (Hibal 5, Asmedit 3.3)  HLASM R4.0  2004/03/15 12.54
+___    ______ ____    _____ _____  ____ __ ______    ______ _________
0                                  44024              ¿þþþþþþþþþþþþþþþþþþþþþþþþþþþþþþþþþþþþþþþþþþþþþþþþþþþþþþþþþþþþþþþþþþþþþÜ
                                   44025              Ÿ                                                                     Ÿ
                                   44026              Ÿ  CHECKCRC -- Local routine to perform a 16-bit polynomial           Ÿ
                                   44027              Ÿ    cyclic redundancy check.  (This is supposed to be a              Ÿ
                                   44028              Ÿ    "standard CRC-16" calculation, those who are really curious      Ÿ
                                   44029              Ÿ    about this code should talk with Mike Durket.)                   Ÿ
                                   44030              Ÿ                                                                     Ÿ
                                   44031              Ÿ    On entry:                                                        Ÿ
                                   44032              Ÿ      R15 - old CRC                                                  Ÿ
                                   44033              Ÿ      R1,R0 - data loc, len                                          Ÿ
                                   44034              Ÿ                                                                     Ÿ
                                   44035              Ÿ    On exit:                                                         Ÿ
                                   44036              Ÿ      R15 - new CRC                                                  Ÿ
                                   44037              Ÿ      R1,R0 - unchanged from entry                                   Ÿ
                                   44038              Ÿ                                                                     Ÿ
                                                      ¾þþþþþþþþþþþþþþþþþþþþþþþþþþþþþþþþþþþþþþþþþþþþþþþþþþþþþþþþþþþþþþþþþþþþþ»
00078F6 50E0 D000/9008_      00000 44039              CHECKCRC PROC
 USING  *,R7
 007910 185F                       44078                       LR    R5,R15              Current CRC
                                   44079                       ¿þþþþþþþþþþþþþþþþþþþþþþþþþþþþÜ
                                   44080                       Ÿ  Calculate CRC from data.  Ÿ
                                   44081                       ¾þþþþþþþþþþþþþþþþþþþþþþþþþþþþ»
 007912 1200/47D0 702C             44082                       WHILE (R0,POS),BEGIN      Go through data...
                                   44098  1                      ¿þþþþþþþþþþþþþþþþþþþþþþþþþþþþþþþþþþþþþþþþþþþþþþþþþþþþþþþþþþþþÜ
                                   44099  1                      Ÿ  Step 1:                                                   Ÿ
                                   44100  1                      Ÿ    Exclusive-OR the input byte with the low-order byte of  Ÿ
                                   44101  1                      Ÿ    the old CRC to get X.                                   Ÿ
                                   44102  1                      ¾þþþþþþþþþþþþþþþþþþþþþþþþþþþþþþþþþþþþþþþþþþþþþþþþþþþþþþþþþþþþ»
 007918 4320 1000            00000 44103  1                      IC    R2,@R1              Input byte in low byte of R2
 00791C 1725                       44104  1                      XR    R2,R5               Exclusive or with old CRC
 00791E 5420 7398            07CA8 44105  1                      N     R2,=A(X'FF')        Only keep low byte of R2
                                   44106  1                      ¿þþþþþþþþþþþþþþþþþþþþþþþþþþþþþþþþþþþþþþþþþþþþþþþþþþþÜ
                                   44107  1                      Ÿ  Step 2:                                          Ÿ
                                   44108  1                      Ÿ    Shift the old CRC eight bits to the right.     Ÿ
                                   44109  1                      Ÿ    Note:  This shift is logical, not arithmetic.  Ÿ
                                   44110  1                      ¾þþþþþþþþþþþþþþþþþþþþþþþþþþþþþþþþþþþþþþþþþþþþþþþþþþþ»
 007922 8850 0008            00008 44111  1                      SRL   R5,8
                                   44112  1                      ¿þþþþþþþþþþþþþþþþþþþþþþþþþþþþþþþþþþþþþþþþþþþþþþþþþþþþþþþþþþþþþþþÜ
                                   44113  1                      Ÿ  Step 3:                                                      Ÿ
                                   44114  1                      Ÿ  Exclusive-OR the old CRC with the contents of the CRC table  Ÿ
                                   44115  1                      Ÿ    entry for "X" we calculated in step 1.                     Ÿ
                                   44116  1                      ¾þþþþþþþþþþþþþþþþþþþþþþþþþþþþþþþþþþþþþþþþþþþþþþþþþþþþþþþþþþþþþþþ»
 007926 1A22                       44117  1                      AR    R2,R2               Times 2 for halfword offset
 007928 48F2 7040            07950 44118  1                      LH    R15,CRCTABLE(R2)    Get CRC entry
 00792C 54F0 739C            07CAC 44119  1                      N     R15,=A(X'FFFF')     We don't want sign propagation
 007930 175F                       44120  1                      XR    R5,R15              Exclusive or with old CRC
                                   44121  1
 007932 4110 1001            00001 44122  1                      LA    R1,@R1+1            Next char
 007936 0600                       44123  1                      DECR  R0
 007938 47F0 7002            07912 44125                       END
                                   44130              *
                                   44131              *
 00793C 18F5                       44132                       LR    R15,R5              Return CRC
1SAM      (SAM2193) (12:54) (15MAR04) Samson Interface Routines                                                             Page  140
0Current Usings:  (CP,R11) (CV,R12)
0Loc    Object Code    Addr1 Addr2  Stmt Lv Lineno    Source Statement           (Hibal 5, Asmedit 3.3)  HLASM R4.0  2004/03/15 12.54
+___    ______ ____    _____ _____  ____ __ ______    ______ _________
000793E 18D8/9808 D004_            44133                       PEND
 DROP   *,R7
1SAM      (SAM2193) (12:54) (15MAR04) Samson Interface Routines                                                             Page  141
0Current Usings:  (CP,R11) (CV,R12)
0Loc    Object Code    Addr1 Addr2  Stmt Lv Lineno    Source Statement           (Hibal 5, Asmedit 3.3)  HLASM R4.0  2004/03/15 12.54
+___    ______ ____    _____ _____  ____ __ ______    ______ _________
0                                  44154              ¿þþþþþþþþþþþþþþþþþþþþþþþþþþþþþþþþþþþþþþþþþþþþþþþþþþþþþþþþþþþþþþþþþþþþþÜ
                                   44155              Ÿ                                                                     Ÿ
                                   44156              Ÿ  CRCTABLE -- Halfword table used for CRC-16 calculations.           Ÿ
                                   44157              Ÿ                                                                     Ÿ
                                                      ¾þþþþþþþþþþþþþþþþþþþþþþþþþþþþþþþþþþþþþþþþþþþþþþþþþþþþþþþþþþþþþþþþþþþþþ»
0007950                            44158              CRCTABLE DS    0D
                                   44159              *                   0   1   2   3       4   5   6   7
 007950 0000C0C1C1810140           44160                       DC    X'0000C0C1C1810140',X'C30103C00280C241'   0 -
 007960 C60106C00780C741           44161                       DC    X'C60106C00780C741',X'0500C5C1C4810440'     -  F
 007970 CC010CC00D80CD41           44162                       DC    X'CC010CC00D80CD41',X'0F00CFC1CE810E40'  10 -
 007980 0A00CAC1CB810B40           44163                       DC    X'0A00CAC1CB810B40',X'C90109C00880C841'     - 1F
 007990 D80118C01980D941           44164                       DC    X'D80118C01980D941',X'1B00DBC1DA811A40'  20 -
 0079A0 1E00DEC1DF811F40           44165                       DC    X'1E00DEC1DF811F40',X'DD011DC01C80DC41'     - 2F
 0079B0 1400D4C1D5811540           44166                       DC    X'1400D4C1D5811540',X'D70117C01680D641'  30 -
 0079C0 D20112C01380D341           44167                       DC    X'D20112C01380D341',X'1100D1C1D0811040'     - 3F
 0079D0 F00130C03180F141           44168                       DC    X'F00130C03180F141',X'3300F3C1F2813240'  40 -
 0079E0 3600F6C1F7813740           44169                       DC    X'3600F6C1F7813740',X'F50135C03480F441'     - 4F
 0079F0 3C00FCC1FD813D40           44170                       DC    X'3C00FCC1FD813D40',X'FF013FC03E80FE41'  50 -
 007A00 FA013AC03B80FB41           44171                       DC    X'FA013AC03B80FB41',X'3900F9C1F8813840'     - 5F
 007A10 2800E8C1E9812940           44172                       DC    X'2800E8C1E9812940',X'EB012BC02A80EA41'  60 -
 007A20 EE012EC02F80EF41           44173                       DC    X'EE012EC02F80EF41',X'2D00EDC1EC812C40'     - 6F
 007A30 E40124C02580E541           44174                       DC    X'E40124C02580E541',X'2700E7C1E6812640'  70 -
 007A40 2200E2C1E3812340           44175                       DC    X'2200E2C1E3812340',X'E10121C02080E041'     - 7F
                                   44176              *                   0   1   2   3       4   5   6   7
 007A50 A00160C06180A141           44177                       DC    X'A00160C06180A141',X'6300A3C1A2816240'  80 -
 007A60 6600A6C1A7816740           44178                       DC    X'6600A6C1A7816740',X'A50165C06480A441'     - 8F
 007A70 6C00ACC1AD816D40           44179                       DC    X'6C00ACC1AD816D40',X'AF016FC06E80AE41'  90 -
 007A80 AA016AC06B80AB41           44180                       DC    X'AA016AC06B80AB41',X'6900A9C1A8816840'     - 9F
 007A90 7800B8C1B9817940           44181                       DC    X'7800B8C1B9817940',X'BB017BC07A80BA41'  A0 -
 007AA0 BE017EC07F80BF41           44182                       DC    X'BE017EC07F80BF41',X'7D00BDC1BC817C40'     - AF
 007AB0 B40174C07580B541           44183                       DC    X'B40174C07580B541',X'7700B7C1B6817640'  B0 -
 007AC0 7200B2C1B3817340           44184                       DC    X'7200B2C1B3817340',X'B10171C07080B041'     - BF
 007AD0 500090C191815140           44185                       DC    X'500090C191815140',X'930153C052809241'  C0 -
 007AE0 960156C057809741           44186                       DC    X'960156C057809741',X'550095C194815440'     - CF
 007AF0 9C015CC05D809D41           44187                       DC    X'9C015CC05D809D41',X'5F009FC19E815E40'  D0 -
 007B00 5A009AC19B815B40           44188                       DC    X'5A009AC19B815B40',X'990159C058809841'     - DF
 007B10 880148C049808941           44189                       DC    X'880148C049808941',X'4B008BC18A814A40'  E0 -
 007B20 4E008EC18F814F40           44190                       DC    X'4E008EC18F814F40',X'8D014DC04C808C41'     - EF
 007B30 440084C185814540           44191                       DC    X'440084C185814540',X'870147C046808641'  F0 -
 007B40 820142C043808341           44192                       DC    X'820142C043808341',X'410081C180814040'     - FF
1SAM      (SAM2193) (12:54) (15MAR04) Samson Interface Routines                                                             Page  142
0Current Usings:  (CP,R11) (CV,R12)
0Loc    Object Code    Addr1 Addr2  Stmt Lv Lineno    Source Statement           (Hibal 5, Asmedit 3.3)  HLASM R4.0  2004/03/15 12.54
+___    ______ ____    _____ _____  ____ __ ______    ______ _________
0                                  44194                       ¿þþþþþþþþþþþþþþþþþþþþþþþþþþþþþþþþþþþþþþþþþþþÜ
                                   44195                       Ÿ  SPECTRT -- Special character TRT table.  Ÿ
                                   44196                       ¾þþþþþþþþþþþþþþþþþþþþþþþþþþþþþþþþþþþþþþþþþþþ»
 007B50 0000000000000000           44197              SPECTRT  DC    XL256'00'
 007C50                07C50 07B5A 44198                       ORG   SPECTRT+X'0A'       LF (Ctrl-J)
 007B5A FF                         44199                       DC    X'FF'
 007B5B                07B5B 07BDA 44200                       ORG   SPECTRT+X'8A'
 007BDA FF                         44201                       DC    X'FF'
                                   44202
 007BDB                07BDB 07B5D 44203                       ORG   SPECTRT+X'0D'       CR (Ctrl-M)
 007B5D FF                         44204                       DC    X'FF'
 007B5E                07B5E 07BDD 44205                       ORG   SPECTRT+X'8D'
 007BDD FF                         44206                       DC    X'FF'
                                   44207
 007BDE                07BDE 07BAC 44208                       ORG   SPECTRT+X'5C'       \
 007BAC FF                         44209                       DC    X'FF'
 007BAD                07BAD 07C2C 44210                       ORG   SPECTRT+X'DC'
 007C2C FF                         44211                       DC    X'FF'
                                   44212
 007C2D                07C2D 07B61 44213                       ORG   SPECTRT+X'11'       XON/XOFF (Ctrl-Q,S)
 007B61 FF00FF                     44214                       DC    X'FF00FF'
 007B64                07B64 07BE1 44215                       ORG   SPECTRT+X'91'
 007BE1 FF00FF                     44216                       DC    X'FF00FF'
                                   44217
 007BE4                07BE4 07B6C 44218                       ORG   SPECTRT+X'1C'       TIP esc (Ctrl-^ and friends)
 007B6C FFFFFFFF                   44219                       DC    X'FFFFFFFF'
 007B70                07B70 07BEC 44220                       ORG   SPECTRT+X'9C'
 007BEC FFFFFFFF                   44221                       DC    X'FFFFFFFF'
                                   44222
 007BF0                07BF0 07B53 44223                       ORG   SPECTRT+X'03'       Ctrl-C
 007B53 FF                         44224                       DC    X'FF'
 007B54                07B54 07BD3 44225                       ORG   SPECTRT+X'83'
 007BD3 FF                         44226                       DC    X'FF'
                                   44227
 007BD4                07BD4 07C50 44228                       ORG
1SAM      (SAM2193) (12:54) (15MAR04) Samson Interface Routines                                                             Page  143
0Current Usings:  (CP,R11) (CV,R12)
0Loc    Object Code    Addr1 Addr2  Stmt Lv Lineno    Source Statement           (Hibal 5, Asmedit 3.3)  HLASM R4.0  2004/03/15 12.54
+___    ______ ____    _____ _____  ____ __ ______    ______ _________
0                                  44230              *
                                   44231              *  SAMTRIM
                                   44232              *
                                   44233              *  THIS IS THE SAME AS LRTRIM, EXCEPT IT ALSO TRIMS
                                   44234              *  LEADING '=' TOO.
                                   44235              *
 007C50 50E0 D000/9008_      00000 44236              SAMTRIM  PROC
 USING  *,R7
 007C6A 1200/47D0 7020_            44275                       WHILE ((R0,POS),AND,((@R1,EQ,'='),OR,(@R1,EQ,' '))),BEGIN
 007C80 5E10 7046            07CB0 44321  1                      INCR  R1
 007C84 0600                       44324  1                      DECR  R0
 007C86 47F0 7000            07C6A 44326                       END
 007C8A 58E0 704A/0DEE       07CB4 44331                       VCALL RTRIM
 007C90 9001 8004            00004 44335                       PRETURN (R0,R1)
 007C94 18D8/9808 D004_            44337                       PEND
 DROP   *,R7
                                   44357
                                   44358                       QLTORG
                                   44374
                                   44375                       VLTORG
 007D00                07D00 07D00 44387                       END   .

1SAM      (SAM2193) (12:54) (15MAR04) Relocation Dictionary                                                                 Page  144
-   Pos.Id   Rel.Id   Flags    Address                                                       HLASM R4.0  2004/03/15 12.54
0  00000001 00000001    0C    00000140
   00000001 00000001    0C    00000168
   00000001 00000001    0C    00000190
   00000001 00000001    0C    000001B8
   00000001 00000001    0C    000001E0
   00000001 00000001    0C    00000208
   00000001 00000001    0C    00000230
   00000001 00000001    0C    00000258
   00000001 00000001    0C    00000280
   00000001 00000001    0C    000002A8
   00000001 00000001    0C    000002D0
   00000001 00000001    0C    000002F8
   00000001 00000001    0C    00000320
   00000001 00000001    0C    00000348
   00000001 00000001    0C    00000370
   00000001 00000001    0C    00000398
   00000001 00000001    0C    000003C0
   00000001 00000001    0C    000003E8
   00000001 00000001    0C    00000410
   00000001 00000001    0C    00000438
   00000001 00000001    0C    00000460
   00000001 00000001    0C    00000488
   00000001 00000001    0C    000004B0
   00000001 00000001    0C    00000EE0
   00000001 00000001    0C    00000F80
   00000001 00000001    0C    00000F90
   00000001 00000001    0C    00000F94
   00000001 00000001    0C    00000F98
   00000001 00000001    0C    00000F9C
   00000001 00000001    08    00001193
   00000001 00000001    08    000011D3
   00000001 00000001    08    00001209
   00000001 00000001    08    00001231
   00000001 00000001    0C    00001860
   00000001 00000001    0C    00001864
   00000001 00000001    0C    00001868
   00000001 00000001    0C    00001878
   00000001 00000001    0C    00001FC0
   00000001 00000001    0C    00001FC8
   00000001 00000001    0C    00001FCC
   00000001 00000001    0C    00001FD8
   00000001 00000001    0C    00001FDC
   00000001 00000001    0C    00001FE8
   00000001 00000001    0C    00001FF4
   00000001 00000001    0C    000020B8
   00000001 00000001    0C    000020E0
   00000001 00000001    0C    00002108
   00000001 00000001    0C    00002130
   00000001 00000001    0C    00002158
   00000001 00000001    0C    00002180
   00000001 00000001    0C    000021A8
   00000001 00000001    0C    000021D0
   00000001 00000001    0C    000021F8
   00000001 00000001    0C    00002220
   00000001 00000001    0C    00002248
1SAM      (SAM2193) (12:54) (15MAR04) Relocation Dictionary                                                                 Page  145
   00000001 00000001    0C    00002270
   00000001 00000001    0C    00002298
   00000001 00000001    0C    000022C0
   00000001 00000001    0C    000022E8
   00000001 00000001    0C    00002310
   00000001 00000001    0C    00002338
   00000001 00000001    0C    00002840
   00000001 00000001    0C    00002B90
   00000001 00000001    0C    00002EB0
   00000001 00000001    0C    00002ED8
   00000001 00000001    0C    00003520
   00000001 00000001    0C    00003530
   00000001 00000001    0C    00003538
   00000001 00000001    0C    00003540
   00000001 00000001    0C    00003544
   00000001 00000001    0C    00003550
   00000001 00000001    0C    00003554
   00000001 00000001    0C    00003558
   00000001 00000001    0C    00003560
   00000001 00000001    0C    00003568
   00000001 00000001    0C    0000356C
   00000001 00000001    0C    00003570
   00000001 00000001    0C    00003578
   00000001 00000001    0C    00003584
   00000001 00000001    0C    000039DC
   00000001 00000001    0C    00003A04
   00000001 00000001    0C    00003A2C
   00000001 00000001    0C    00003A54
   00000001 00000001    0C    00003A7C
   00000001 00000001    0C    00003AA4
   00000001 00000001    0C    00003ACC
   00000001 00000001    0C    00003AF4
   00000001 00000001    0C    00003B1C
   00000001 00000001    0C    00003B44
   00000001 00000001    0C    00003B6C
   00000001 00000001    0C    00003B94
   00000001 00000001    0C    00003E30
   00000001 00000001    0C    00003E58
   00000001 00000001    0C    00003E80
   00000001 00000001    0C    00003EA8
   00000001 00000001    0C    00003ED0
   00000001 00000001    0C    00003EF8
   00000001 00000001    0C    00003F20
   00000001 00000001    0C    00003F48
   00000001 00000001    0C    00003F70
   00000001 00000001    0C    00003F98
   00000001 00000001    0C    00003FC0
   00000001 00000001    0C    00003FE8
   00000001 00000001    0C    000042E8
   00000001 00000001    0C    000042FC
   00000001 00000001    0C    00004304
   00000001 00000001    0C    0000430C
   00000001 00000001    0C    00004310
   00000001 00000001    0C    00004318
   00000001 00000001    0C    0000432C
   00000001 00000001    0C    00004330
   00000001 00000001    0C    00004334
   00000001 00000001    0C    00004338
   00000001 00000001    0C    00004340
1SAM      (SAM2193) (12:54) (15MAR04) Relocation Dictionary                                                                 Page  146
   00000001 00000001    08    00004485
   00000001 00000001    08    00004575
   00000001 00000001    08    00004593
   00000001 00000001    08    0000489B
   00000001 00000001    0C    00004BD0
   00000001 00000001    0C    00004BF8
   00000001 00000001    0C    00004E90
   00000001 00000001    0C    00004E94
   00000001 00000001    0C    00004E98
   00000001 00000001    0C    00004EB4
   00000001 00000001    0C    00004EC4
   00000001 00000001    0C    00004ECC
   00000001 00000001    0C    00004EE0
   00000001 00000001    0C    00004EE8
   00000001 00000001    0C    00004EEC
   00000001 00000001    0C    00004EF4
   00000001 00000001    0C    00004F00
   00000001 00000001    0C    00005A70
   00000001 00000001    0C    00005A80
   00000001 00000001    0C    00005A8C
   00000001 00000001    0C    00005A90
   00000001 00000001    0C    00005A94
   00000001 00000001    08    00005C9B
   00000001 00000001    08    00005CCD
   00000001 00000001    08    00006039
   00000001 00000001    0C    0000615C
   00000001 00000001    0C    00006160
   00000001 00000001    0C    00006164
   00000001 00000001    0C    00006168
   00000001 00000001    0C    0000616C
   00000001 00000001    0C    00006170
   00000001 00000001    0C    00006174
   00000001 00000001    0C    00006178
   00000001 00000001    0C    0000617C
   00000001 00000001    0C    0000619C
   00000001 00000001    0C    000061A0
   00000001 00000001    0C    000061B0
   00000001 00000001    08    00006221
   00000001 00000001    08    00006419
   00000001 00000001    08    0000667B
   00000001 00000001    08    000069FD
   00000001 00000001    0C    00006C3C
   00000001 00000001    0C    00006C40
   00000001 00000001    0C    00006C4C
   00000001 00000001    0C    00006C50
   00000001 00000001    0C    00006C54
   00000001 00000001    0C    00006C58
   00000001 00000001    0C    00006C64
   00000001 00000001    0C    00006C7C
   00000001 00000001    0C    00006CA0
   00000001 00000001    0C    00006CA4
   00000001 00000001    0C    00006CA8
   00000001 00000001    08    00006E6F
   00000001 00000001    08    00006F75
   00000001 00000001    08    00006FC7
   00000001 00000001    08    000070A7
   00000001 00000001    08    000071C1
   00000001 00000001    08    00007213
   00000001 00000001    08    000073DD
1SAM      (SAM2193) (12:54) (15MAR04) Relocation Dictionary                                                                 Page  147
   00000001 00000001    08    0000742F
   00000001 00000001    08    0000750D
   00000001 00000001    0C    0000777C
   00000001 00000002    1C    0000013C
   00000001 00000002    1C    000001DC
   00000001 00000002    1C    0000217C
   00000001 00000002    1C    000021A4
   00000001 00000002    1C    000021CC
   00000001 00000002    1C    00002294
   00000001 00000002    1C    000022BC
   00000001 00000002    1C    00002334
   00000001 00000002    1C    00003B68
   00000001 00000002    1C    00003B90
   00000001 00000003    1C    00000164
   00000001 00000003    1C    0000018C
   00000001 00000003    1C    000001B4
   00000001 00000003    1C    00000204
   00000001 00000003    1C    0000022C
   00000001 00000003    1C    00000254
   00000001 00000003    1C    0000027C
   00000001 00000003    1C    000002A4
   00000001 00000003    1C    000002CC
   00000001 00000003    1C    000002F4
   00000001 00000003    1C    0000031C
   00000001 00000003    1C    00000344
   00000001 00000003    1C    0000036C
   00000001 00000003    1C    00000394
   00000001 00000003    1C    000003BC
   00000001 00000003    1C    000003E4
   00000001 00000003    1C    0000040C
   00000001 00000003    1C    00000434
   00000001 00000003    1C    0000045C
   00000001 00000003    1C    00000484
   00000001 00000003    1C    000004AC
   00000001 00000003    1C    00000EDC
   00000001 00000003    1C    000020B4
   00000001 00000003    1C    000020DC
   00000001 00000003    1C    00002104
   00000001 00000003    1C    0000212C
   00000001 00000003    1C    00002154
   00000001 00000003    1C    000021F4
   00000001 00000003    1C    0000221C
   00000001 00000003    1C    00002244
   00000001 00000003    1C    0000226C
   00000001 00000003    1C    00002B8C
   00000001 00000003    1C    00002EAC
   00000001 00000003    1C    00002ED4
   00000001 00000003    1C    000039D8
   00000001 00000003    1C    00003A00
   00000001 00000003    1C    00003A28
   00000001 00000003    1C    00003A50
   00000001 00000003    1C    00003A78
   00000001 00000003    1C    00003AA0
   00000001 00000003    1C    00003AC8
   00000001 00000003    1C    00003AF0
   00000001 00000003    1C    00003B18
   00000001 00000003    1C    00003B40
   00000001 00000003    1C    00003E2C
   00000001 00000003    1C    00003E54
1SAM      (SAM2193) (12:54) (15MAR04) Relocation Dictionary                                                                 Page  148
   00000001 00000003    1C    00003E7C
   00000001 00000003    1C    00003EA4
   00000001 00000003    1C    00003ECC
   00000001 00000003    1C    00003EF4
   00000001 00000003    1C    00003F1C
   00000001 00000003    1C    00003F44
   00000001 00000003    1C    00003F6C
   00000001 00000003    1C    00003F94
   00000001 00000003    1C    00003FBC
   00000001 00000003    1C    00003FE4
   00000001 00000003    1C    00004BCC
   00000001 00000003    1C    00004BF4
   00000001 00000004    1C    000004D4
   00000001 00000004    1C    00000F04
   00000001 00000004    1C    0000235C
   00000001 00000004    1C    00002B64
   00000001 00000004    1C    00002BB4
   00000001 00000004    1C    00002E84
   00000001 00000004    1C    00002EFC
   00000001 00000004    1C    000032C8
   00000001 00000004    1C    000032F0
   00000001 00000004    1C    00003504
   00000001 00000004    1C    00003BB8
   00000001 00000004    1C    0000400C
   00000001 00000004    1C    00004C1C
   00000001 00000005    1C    000004D8
   00000001 00000005    1C    00000F08
   00000001 00000005    1C    00001504
   00000001 00000005    1C    00002B68
   00000001 00000005    1C    00002E88
   00000001 00000005    1C    000032CC
   00000001 00000005    1C    00003BBC
   00000001 00000005    1C    0000433C
   00000001 00000006    1C    00000F84
   00000001 00000006    1C    00001FE0
   00000001 00000006    1C    00003524
   00000001 00000006    1C    000042EC
   00000001 00000006    1C    00004EF0
   00000001 00000007    1C    00000F88
   00000001 00000007    1C    00003528
   00000001 00000007    1C    000042F0
   00000001 00000008    1C    00000F8C
   00000001 00000009    1C    00000FA0
   00000001 00000009    1C    00001508
   00000001 00000009    1C    0000183C
   00000001 00000009    1C    0000357C
   00000001 00000009    1C    00004EAC
   00000001 00000009    1C    00005AAC
   00000001 00000009    1C    000061AC
   00000001 00000009    1C    00006CBC
   00000001 0000000A    1C    00000FA4
   00000001 0000000A    1C    00001514
   00000001 0000000A    1C    00001838
   00000001 0000000A    1C    00001FEC
   00000001 0000000A    1C    0000354C
   00000001 0000000A    1C    000042F4
   00000001 0000000A    1C    00004EA8
   00000001 0000000A    1C    00005A84
   00000001 0000000A    1C    0000618C
1SAM      (SAM2193) (12:54) (15MAR04) Relocation Dictionary                                                                 Page  149
   00000001 0000000A    1C    00006C38
   00000001 0000000B    1C    00000FA8
   00000001 0000000B    1C    00002008
   00000001 0000000C    1C    00000FAC
   00000001 0000000C    1C    00001874
   00000001 0000000C    1C    00003580
   00000001 0000000C    1C    00006CB0
   00000001 0000000D    1C    00000FB4
   00000001 0000000D    1C    00001518
   00000001 0000000D    1C    00001FF0
   00000001 0000000D    1C    0000431C
   00000001 0000000D    1C    00004EA0
   00000001 0000000D    1C    00005A88
   00000001 0000000D    1C    00006CC0
   00000001 0000000E    1C    000014EC
   00000001 0000000E    1C    00001FF8
   00000001 0000000F    1C    0000150C
   00000001 00000010    1C    00001510
   00000001 00000011    1C    0000152C
   00000001 00000012    1C    0000185C
   00000001 00000013    1C    0000187C
   00000001 00000013    1C    00001FD0
   00000001 00000013    1C    00003548
   00000001 00000013    1C    00004314
   00000001 00000013    1C    00004EC8
   00000001 00000013    1C    00005A98
   00000001 00000013    1C    00006188
   00000001 00000013    1C    00006C44
   00000001 00000014    1C    00001FB4
   00000001 00000014    1C    00003518
   00000001 00000014    1C    000042E0
   00000001 00000014    1C    00004ED0
   00000001 00000015    1C    00001FB8
   00000001 00000015    1C    0000351C
   00000001 00000015    1C    000042E4
   00000001 00000015    1C    00004ED8
   00000001 00000016    1C    00001FBC
   00000001 00000016    1C    00003534
   00000001 00000016    1C    00004300
   00000001 00000016    1C    00004EDC
   00000001 00000016    1C    00006180
   00000001 00000016    1C    00006C30
   00000001 00000017    1C    00001FC4
   00000001 00000017    1C    0000353C
   00000001 00000017    1C    00004308
   00000001 00000017    1C    00004EE4
   00000001 00000018    1C    00001FD4
   00000001 00000018    1C    00006C78
   00000001 00000019    1C    00001FFC
   00000001 0000001A    1C    00002000
   00000001 0000001B    1C    00002004
   00000001 0000001C    1C    0000200C
   00000001 0000001D    1C    00002014
   00000001 0000001E    1C    00002018
   00000001 0000001E    1C    0000355C
   00000001 0000001E    1C    00004ED4
   00000001 0000001F    1C    000022E4
   00000001 0000001F    1C    0000230C
   00000001 00000020    1C    00002360
1SAM      (SAM2193) (12:54) (15MAR04) Relocation Dictionary                                                                 Page  150
   00000001 00000020    1C    00002BB8
   00000001 00000020    1C    00002F00
   00000001 00000020    1C    000032F4
   00000001 00000020    1C    00003508
   00000001 00000020    1C    00004010
   00000001 00000020    1C    00004C20
   00000001 00000021    1C    0000352C
   00000001 00000021    1C    000042F8
   00000001 00000022    1C    00003574
   00000001 00000023    1C    00004E9C
   00000001 00000024    1C    00004EB0
   00000001 00000024    1C    00005AD4
   00000001 00000025    1C    00004EBC
   00000001 00000025    1C    00005AC8
   00000001 00000026    1C    00004EC0
   00000001 00000026    1C    00006C5C
   00000001 00000026    1C    00007770
   00000001 00000027    1C    00004EF8
   00000001 00000027    1C    00005AD8
   00000001 00000027    1C    000061B8
   00000001 00000027    1C    00006CB4
   00000001 00000028    1C    00004EFC
   00000001 00000028    1C    00006190
   00000001 00000029    1C    00004F04
   00000001 00000029    1C    00006194
   00000001 00000029    1C    00006C70
   00000001 0000002A    1C    00005A74
   00000001 0000002B    1C    00005A78
   00000001 0000002C    1C    00005A7C
   00000001 0000002D    1C    00005A9C
   00000001 0000002E    1C    00005AB0
   00000001 0000002F    1C    00005AB4
   00000001 00000030    1C    00005AB8
   00000001 00000031    1C    00005AC0
   00000001 00000031    1C    00006C6C
   00000001 00000032    1C    00005ACC
   00000001 00000033    1C    00005ADC
   00000001 00000034    1C    00005AE4
   00000001 00000035    1C    00006C68
   00000001 00000036    1C    00006C98
   00000001 00000036    1C    00007760
   00000001 00000037    1C    00007774
   00000001 00000038    1C    00007778
   00000001 00000039    1C    00007CB4

1SAM      (SAM2193) (12:54) (15MAR04) Ordinary Symbol and Literal Cross Reference                                           Page  151
-Symbol   Length   Value     Id    R Type   Defn References                                  HLASM R4.0  2004/03/15 12.54
0$$$@R0        1 00000000 FFFFFFFE     J     716  1029
 $$$@R10       1 00000000 FFFFFFF4     J     846  1093
 $$$@R11       1 00000000 FFFFFFF3     J     859  1106
 $$$@R12       1 00000000 FFFFFFF2     J     872  1119
 $$$@R13       1 00000000 FFFFFFF1     J     885  1132
 $$$@R14       1 00000000 FFFFFFF0     J     898  1145
 $$$@R7        1 00000000 FFFFFFF7     J     807  1042
 $$$@R8        1 00000000 FFFFFFF6     J     820  1055   1067
 $$$@R9        1 00000000 FFFFFFF5     J     833  1080
 $$$C1WYLSAM
               1 00001090 00000001     J   12054 12056  12111  13525
 $$$C10WYLSAM
               1 000061DE 00000001     J   36578 36580  36705  37420  37684  38161  38522  38882
 $$$C11WYLSAM
               1 00006D78 00000001     J   40458 40460  40494  40609  40796  41291  41823  41949  42179  42949  43386
                                                 43556  43709  43845
 $$$C12WYLSAM
               1 000077B2 00000001     J   43902 43904
 $$$C13WYLSAM
               1 00007CB8 00000001     J   44369 44371
 $$$C14WYLSAM
               1 00007D00 00000001     J   44390 44392
 $$$C2WYLSAM
               1 000015C4 00000001     J   13770 13772  14256
 $$$C3WYLSAM
               1 000018F6 00000001     J   15003 15005  15217
 $$$C4WYLSAM
               1 00002091 00000001     J   17336 17338  17721  17855  17989  18527  18662  18796  18930
 $$$C5WYLSAM
               1 000028AE 00000001     J   19463 19465  20334  21303
 $$$C6WYLSAM
               1 000035CE 00000001     J   22929 22931  25595  26340  26473
 $$$C7WYLSAM
               1 00004440 00000001     J   26576 26578  26612  27189  28844  29661  29784  29850
 $$$C8WYLSAM
               1 00004FB2 00000001     J   30294 30296  30331  30436  30495  30539  30602  30695  30807  30968
 $$$C9WYLSAM
               1 00005C58 00000001     J   34384 34386  34515
 $$$D1WYLSAM
               1 000015BE 00000001     J   12055 13514
 $$$D10WYLSAM
               1 00006D6C 00000001     J   36579 37673  38150
 $$$D11WYLSAM
               1 00007793 00000001     J   40459 40598  41938  43545  43698  43834
 $$$D4WYLSAM
               1 00002883 00000001     J   17337 17710  17844  17978  18516  18651  18785  18919
 $$$D5WYLSAM
               1 000035C1 00000001     J   19464 20323  21292
 $$$D6WYLSAM
               1 0000442E 00000001     J   22930 25584  26329  26462
 $$$D7WYLSAM
               1 00004F9F 00000001     J   26577 27178  29650  29773
 $$$D8WYLSAM
               1 00005C2D 00000001     J   30295 30425  30484  30528  30591  30684  30796  30957
 $$$RCP        1 00000000 FFFFFFEC     J    2463  4723   6197   6197
1SAM      (SAM2193) (12:54) (15MAR04) Ordinary Symbol and Literal Cross Reference                                           Page  152
 $$$RCV        1 00000000 FFFFFFEE     J    1188  2373   2373
 $$$RDEV       1 00000000 FFFFFFEB     J    4677  4722   4722
 $$$RFFINFO
               1 00000000 FFFFFFE8     J    6611  6820   6820
 $$$RINDWA
               1 00000000 FFFFFFD7     J   40478 40493  40493
 $$$RINLWA
               1 00000000 FFFFFFDA     J   37396 37419  37419
 $$$RINPWA
               1 00000000 FFFFFFD8     J   38853 38881  38881
 $$$RINRYWA
               1 00000000 FFFFFFD9     J   38419 38521  38521
 $$$RINTWA
               1 00000000 FFFFFFDB     J   36601 36704  36704
 $$$RINXWA
               1 00000000 FFFFFFD6     J   40772 40795  40795
 $$$RIN7WA
               1 00000000 FFFFFFD5     J   41267 41290  41290
 $$$RJCB       1 00000000 FFFFFFE9     J    6315  6589   6589
 $$$RNSCNCB
               1 00000000 FFFFFFED     J    2384  2457   2457
 $$$ROUTDWA
               1 00000000 FFFFFFD4     J   41801 41822  41822
 $$$ROUTHWA
               1 00000000 FFFFFFD1     J   43362 43385  43385
 $$$ROUTXWA
               1 00000000 FFFFFFD3     J   42157 42178  42178
 $$$ROUT7WA
               1 00000000 FFFFFFD2     J   42927 42948  42948
 $$$RSAMDPWA
               1 00000000 FFFFFFDF     J   28821 28843  28843
 $$$RSAMPWA
               1 00000000 FFFFFFE1     J   15108 15216  15216
 $$$RSAMWA
               1 00000000 FFFFFFE2     J   13782 14255  14255
 $$$RSECHWA
               1 00000000 FFFFFFDE     J   29836 29849  29849
 $$$RSEGCB
               1 00000000 FFFFFFE5     J    7365  7465   7465
 $$$RSIN       1 00000000 FFFFFFE6     J    7288  7359   7359
 $$$RSMRWA
               1 00000000 FFFFFFDD     J   30317 30330  30330
 $$$RSRDWA
               1 00000000 FFFFFFE0     J   26597 26611  26611
 $$$RSSAMWA
               1 00000000 FFFFFFE4     J    7476  7531   7531
 $$$RSSGWA
               1 00000000 FFFFFFDC     J   34400 34514  34514
 $$$RTTYPE
               1 00000000 FFFFFFEA     J    6208  6309   6309
 $$$RUNET      1 00000000 FFFFFFE7     J    6826  7282   7282
 $$$RXTRC      1 00000000 FFFFFFE3     J   12067 12110  12110
 $$$SEGCB0
               4 00000050 FFFFFFEC     F    2494  2580   2580
 $$$SEGCB235
               4 000000E8 FFFFFFE2     F   13976 14062  14062
 $$$SEGCB248
               4 00000190 FFFFFFE2     F   14151 14237  14237
 $$$SEGCB269
1SAM      (SAM2193) (12:54) (15MAR04) Ordinary Symbol and Literal Cross Reference                                           Page  153
               4 0000004C FFFFFFE1     F   15121 15207  15207
 $$$SEGCB56
               4 0000010C FFFFFFE7     F    6964  7050   7050
 $$$SEGCB793
               4 00000008 FFFFFFDC     F   34419 34505  34505
 $$$SEGCB864
               4 00000000 FFFFFFDB     F   36608 36694  36694
 $$$SEGCB931
               4 00000000 FFFFFFD9     F   38426 38512  38512
 $$$V01       22 00007CB8 00000001     C   44381 12510  12614  12701  12757
 $$$V02       13 00007CCE 00000001     C   44382 26708  27117  28440  34613  36110  36804  37519  40887  41382  42270
                                                 43040
 $$$V03       23 00007CDB 00000001     C   44383 27144  34691  39845  41214  41668  42110  42874  43310
 $$$V04       14 00007CF2 00000001     C   44384 38612
 $$$1000       1 0000005C 00000001 A   U   40754 40751  40753
 $$$1002B      1 00006E4C 00000001     X   40824 40831U
 $$$1003F      2 00006E72 00000001     H   40891 40876B
 $$$1004F      2 00006F50 00000001     H   41184 40945B
 $$$1004S      2 00006E90 00000001     H   40939 41183B
 $$$1006F      2 00006F18 00000001     H   41119 40979B
 $$$1006T      2 00006EA6 00000001     H   40982 40968B
 $$$1008F      2 00006EDE 00000001     H   41064 41017B
 $$$1008T      2 00006EC2 00000001     H   41020 41005B
 $$$101B       1 000005F6 00000001     X    8610  8617U
 $$$1010F      2 00006ED2 00000001     H   41056 41041B
 $$$1011F      2 00006F04 00000001     H   41109 41097B
 $$$1012F      2 00006F3E 00000001     H   41173 41142B 41159B
 $$$1014F      2 00006F78 00000001     H   41218 41203B
 $$$1015       1 0000085C 00000001 A   U   41249 41246  41248
 $$$1017B      1 00006FA4 00000001     X   41319 41326U
 $$$1018F      2 00006FCA 00000001     H   41386 41371B
 $$$1019F      2 00007082 00000001     H   41638 41443B
 $$$1019S      2 00006FE8 00000001     H   41437 41637B
 $$$102        1 00000050 00000001 A   U    8668  8665   8667
 $$$1021F      2 00007062 00000001     H   41598 41462B
 $$$1022F      2 00007022 00000001     H   41542 41496B
 $$$1022T      2 00007006 00000001     H   41499 41485B
 $$$1024F      2 00007016 00000001     H   41534 41519B
 $$$1025F      2 0000704E 00000001     H   41588 41576B
 $$$1026F      2 00007074 00000001     H   41629 41613B
 $$$1028F      2 000070AA 00000001     H   41672 41657B
 $$$1029       1 0000085C 00000001 A   U   41703 41700  41702
 $$$1031B      1 000070D6 00000001     X   41742 41749U
 $$$1032       1 00000040 00000001 A   U   41783 41780  41782
 $$$1034B      1 0000710A 00000001     X   41851 41858U
 $$$1035F      2 000071A0 00000001     H   42083 41902B
 $$$1035S      2 00007118 00000001     H   41896 42082B
 $$$1037F      2 0000712C 00000001     H   41926 41917B
 $$$1038       6 0000779A 00000001     I   41944 41936X
 $$$1039       6 0000779A 00000001     I   41943 41944  41944
 $$$104B       1 0000062E 00000001     X    8695  8702U
 $$$1040F      2 0000719C 00000001     H   42078 41965B
 $$$1041F      2 000071C4 00000001     H   42114 42099B
 $$$1042       1 0000085C 00000001 A   U   42139 42136  42138
 $$$1044B      1 000071F0 00000001     X   42207 42214U
 $$$1045F      2 00007216 00000001     H   42274 42259B
 $$$1047F      2 00007312 00000001     H   42624 42347B
 $$$1047S      2 0000723C 00000001     H   42341 42623B
 $$$1049F      2 0000727E 00000001     H   42416 42378B
1SAM      (SAM2193) (12:54) (15MAR04) Ordinary Symbol and Literal Cross Reference                                           Page  154
 $$$105        1 00000050 00000001 A   U    8747  8744   8746
 $$$1050F      2 000072BE 00000001     H   42496 42434B
 $$$1052F      2 000072B0 00000001     H   42486 42454B 42467B
 $$$1055F      2 000072DE 00000001     H   42580 42515B
 $$$1062F      2 000073B8 00000001     H   42844 42652B
 $$$1062S      2 00007326 00000001     H   42646 42843B
 $$$1064F      2 00007368 00000001     H   42721 42683B
 $$$107B       1 00000662 00000001     X    8774  8781U
 $$$1074F      2 000073E0 00000001     H   42878 42863B
 $$$1075       1 00000858 00000001 A   U   42909 42906  42908
 $$$1077B      1 0000740C 00000001     X   42977 42984U
 $$$1078F      2 00007432 00000001     H   43044 43029B
 $$$1079F      2 000074E8 00000001     H   43280 43098B
 $$$1079S      2 00007450 00000001     H   43092 43279B
 $$$108        1 00000050 00000001 A   U    8832  8829   8831
 $$$1081F      2 00007494 00000001     H   43168 43129B
 $$$1082F      2 000074D0 00000001     H   43268 43215B 43229B
 $$$1082T      2 000074B4 00000001     H   43232 43203B
 $$$1083F      2 000074A4 00000001     H   43206 43187B
 $$$1086F      2 000074CC 00000001     H   43263 43253B
 $$$1087F      2 00007510 00000001     H   43314 43299B
 $$$1088       1 00000858 00000001 A   U   43345 43342  43344
 $$$1090B      1 0000753C 00000001     X   43414 43421U
 $$$1091F      2 00007598 00000001     H   43566 43490B
 $$$1091S      2 0000755A 00000001     H   43484 43565B
 $$$1093F      2 00007580 00000001     H   43535 43526B
 $$$1094       6 000077A0 00000001     I   43551 43543X
 $$$1095       6 000077A0 00000001     I   43550 43551  43551
 $$$1096       1 00000864 00000001 A   U   43600 43597  43599
 $$$1098B      1 000075D0 00000001     X   43638 43645U
 $$$1099F      2 000075FA 00000001     H   43718 43667B
 $$$1099S      2 000075D4 00000001     H   43661 43717B
 $$$110B       1 0000069A 00000001     X    8859  8866U
 $$$1101F      2 000075E8 00000001     H   43691 43682B
 $$$1102       6 000077A6 00000001     I   43704 43696X
 $$$1103       6 000077A6 00000001     I   43703 43704  43704
 $$$1104       1 00000050 00000001 A   U   43737 43734  43736
 $$$1106B      1 00007622 00000001     X   43775 43782U
 $$$1107F      2 00007648 00000001     H   43854 43802B
 $$$1107S      2 00007622 00000001     H   43796 43853B
 $$$1109F      2 00007636 00000001     H   43826 43817B
 $$$111        1 00000050 00000001 A   U    8917  8914   8916
 $$$1110       6 000077AC 00000001     I   43840 43832X
 $$$1111       6 000077AC 00000001     I   43839 43840  43840
 $$$1112       1 00000050 00000001 A   U   43873 43870  43872
 $$$1114B      1 000078CC 00000001     X   43953 43960U
 $$$1115F      2 000078E4 00000001     H   44000 43985B
 $$$1115S      2 000078CE 00000001     H   43979 43999B
 $$$1117       1 00000050 00000001 A   U   44020 44017  44019
 $$$1119B      1 00007910 00000001     X   44062 44069U
 $$$1120F      2 0000793C 00000001     H   44129 44093B
 $$$1120S      2 00007912 00000001     H   44087 44128B
 $$$1122       1 00000050 00000001 A   U   44150 44147  44149
 $$$1124B      1 00007C6A 00000001     X   44259 44266U
 $$$1125F      2 00007C8A 00000001     H   44330 44288B 44316B
 $$$1125S      2 00007C6A 00000001     H   44280 44329B
 $$$1125T      2 00007C80 00000001     H   44319 44305B
 $$$1129       1 00000050 00000001 A   U   44354 44351  44353
 $$$113B       1 000006D2 00000001     X    8944  8951U
1SAM      (SAM2193) (12:54) (15MAR04) Ordinary Symbol and Literal Cross Reference                                           Page  155
 $$$114        1 00000050 00000001 A   U    9002  8999   9001
 $$$116B       1 0000070A 00000001     X    9029  9036U
 $$$117        1 00000050 00000001 A   U    9081  9078   9080
 $$$119B       1 0000073E 00000001     X    9108  9115U
 $$$120        1 00000050 00000001 A   U    9150  9147   9149
 $$$122B       1 0000076A 00000001     X    9177  9184U
 $$$123        1 00000050 00000001 A   U    9216  9213   9215
 $$$125B       1 00000796 00000001     X    9243  9250U
 $$$126        1 00000050 00000001 A   U    9283  9280   9282
 $$$128B       1 000007C2 00000001     X    9310  9317U
 $$$129        1 00000050 00000001 A   U    9350  9347   9349
 $$$131B       1 000007EE 00000001     X    9377  9384U
 $$$132        1 00000050 00000001 A   U    9416  9413   9415
 $$$134B       1 0000081A 00000001     X    9443  9450U
 $$$135        1 00000050 00000001 A   U    9482  9479   9481
 $$$137B       1 00000846 00000001     X    9509  9516U
 $$$138        1 00000050 00000001 A   U    9549  9546   9548
 $$$140B       1 00000872 00000001     X    9576  9583U
 $$$141        1 00000050 00000001 A   U    9615  9612   9614
 $$$143B       1 0000089E 00000001     X    9642  9649U
 $$$144        1 00000050 00000001 A   U    9682  9679   9681
 $$$146B       1 000008CA 00000001     X    9709  9716U
 $$$147F       2 000008DE 00000001     H    9751  9738B
 $$$147S       2 000008CA 00000001     H    9730  9750B
 $$$149        1 00000050 00000001 A   U    9769  9766   9768
 $$$151B       1 00000906 00000001     X    9810  9817U
 $$$152F       2 000009A8 00000001     H    9963  9876B
 $$$153F       2 000009E0 00000001     H   10040 10027B
 $$$154F       2 000009F4 00000001     H   10067 10054B
 $$$155F       2 00000A24 00000001     H   10149 10136B
 $$$156F       2 00000A38 00000001     H   10176 10163B
 $$$157F       2 00000A68 00000001     H   10258 10245B
 $$$158F       2 00000A7C 00000001     H   10285 10272B
 $$$159F       2 00000AAC 00000001     H   10367 10354B
 $$$160F       2 00000AC0 00000001     H   10394 10381B
 $$$161F       2 00000AF0 00000001     H   10476 10463B
 $$$162F       2 00000B04 00000001     H   10503 10490B
 $$$163F       2 00000B40 00000001     H   10610 10597B
 $$$164F       2 00000B54 00000001     H   10637 10624B
 $$$165B       4 00000BCA 00000001     I   10795 10825
 $$$165F       2 00000BE0 00000001     H   10822 10795B 10824
 $$$166E       2 00000BE4 00000001     H   10832 10826
 $$$166F       2 00000C06 00000001     H   10876 10828B
 $$$167B       4 00000C0C 00000001     I   10889 10919
 $$$167F       2 00000C22 00000001     H   10916 10889B 10918
 $$$168E       2 00000C26 00000001     H   10926 10920
 $$$168F       2 00000C4A 00000001     H   10977 10922B
 $$$169B       4 00000C56 00000001     I   10993 11010
 $$$169F       2 00000C62 00000001     H   11006 10993B 11009
 $$$170B       4 00000C6A 00000001     I   11026 11043
 $$$170E       2 00000C66 00000001     H   11017 11011
 $$$170F       2 00000C76 00000001     H   11039 11013B 11026B 11042
 $$$172E       2 00000C7A 00000001     H   11050 11044
 $$$172F       2 00000C8A 00000001     H   11072 11046B 11059B
 $$$174B       4 00000CA0 00000001     I   11112 11129
 $$$174F       2 00000CAC 00000001     H   11125 11112B 11128
 $$$175E       2 00000CB0 00000001     H   11136 11130
 $$$175F       2 00000CC0 00000001     H   11158 11132B 11145B
 $$$177F       2 00000D1C 00000001     H   11323 11236B
1SAM      (SAM2193) (12:54) (15MAR04) Ordinary Symbol and Literal Cross Reference                                           Page  156
 $$$178F       2 00000D5A 00000001     H   11423 11336B
 $$$179F       2 00000D98 00000001     H   11523 11436B
 $$$180F       2 00000DD6 00000001     H   11623 11536B
 $$$181F       2 00000DF6 00000001     H   11685 11638B 11653B
 $$$183B       4 00000E0C 00000001     I   11727 11757
 $$$183F       2 00000E22 00000001     H   11754 11727B 11756
 $$$184E       2 00000E26 00000001     H   11764 11758
 $$$184F       2 00000E38 00000001     H   11788 11760B
 $$$185F       2 00000E52 00000001     H   11827 11800B
 $$$186F       2 00000E6C 00000001     H   11866 11839B
 $$$187F       2 00000E98 00000001     H   11923 11896B
 $$$188        1 00000050 00000001 A   U   11961 11958  11960
 $$$190B       1 000010AA 00000001     X   12149 12156U
 $$$191F       2 00001148 00000001     H   12407 12178B
 $$$192F       2 000010EC 00000001     H   12248 12233B
 $$$193F       2 000010F8 00000001     H   12276 12261B
 $$$194F       2 00001104 00000001     H   12304 12289B
 $$$195F       2 00001148 00000001     H   12398 12382B
 $$$195S       2 00001134 00000001     H   12373 12397B
 $$$197        1 00000050 00000001 A   U   12425 12422  12424
 $$$199B       1 00001170 00000001     X   12464 12471U
 $$$200F       2 00001196 00000001     H   12514 12499B
 $$$201S       2 00001196 00000001     H   12520 12627B
 $$$202F       2 000011AC 00000001     H   12570 12547B 12560B
 $$$205F       2 000011D6 00000001     H   12618 12603B
 $$$206B       4 000011DC 00000001     I   12642 12655
 $$$206F       2 000011E6 00000001     H   12651 12642B 12654
 $$$207E       2 000011EA 00000001     H   12662 12656
 $$$207F       2 00001212 00000001     H   12715 12658B
 $$$208F       2 0000120C 00000001     H   12705 12690B
 $$$209F       2 00001234 00000001     H   12761 12746B
 $$$210        1 00000050 00000001 A   U   12805 12802  12804
 $$$212B       1 00001288 00000001     X   12836 12843U
 $$$213F       2 00001296 00000001     H   12875 12862B
 $$$214F       2 000012AC 00000001     H   12903 12890B
 $$$215F       2 000014CE 00000001     H   13705 12958B
 $$$215S       2 000012C2 00000001     H   12931 13704B
 $$$218F       2 00001300 00000001     H   13034 13021B
 $$$219F       2 0000139E 00000001     H   13246 13233B
 $$$220F       2 000013AE 00000001     H   13270 13257B
 $$$221F       2 000013BE 00000001     H   13294 13281B
 $$$222F       2 00001418 00000001     H   13422 13413B
 $$$223F       2 00001472 00000001     H   13542 13462B
 $$$224F       2 0000146A 00000001     H   13534 13483B
 $$$224S       2 00001444 00000001     H   13477 13533B
 $$$226F       2 00001458 00000001     H   13507 13498B
 $$$227        6 000015BE 00000001     I   13520 13512X
 $$$228        6 000015BE 00000001     I   13519 13520  13520
 $$$229F       2 000014BC 00000001     H   13666 13557B
 $$$229S       2 00001476 00000001     H   13551 13665B
 $$$231F       2 0000148A 00000001     H   13581 13572B
 $$$232F       2 000014B4 00000001     H   13659 13612B 13627B
 $$$234        1 00000050 00000001 A   U   13725 13722  13724
 $$$257B       1 000015DE 00000001     X   14288 14295U
 $$$258F       2 0000161C 00000001     H   14366 14314B
 $$$259F       2 00001666 00000001     H   14465 14452B
 $$$260        1 00000050 00000001 A   U   14596 14593  14595
 $$$262B       1 000016EE 00000001     X   14635 14642U
 $$$263F       2 0000172C 00000001     H   14713 14661B
1SAM      (SAM2193) (12:54) (15MAR04) Ordinary Symbol and Literal Cross Reference                                           Page  157
 $$$264F       2 00001764 00000001     H   14772 14739B
 $$$265        1 00000050 00000001 A   U   14963 14960  14962
 $$$267B       1 00001910 00000001     X   15039 15046U
 $$$268        1 00000050 00000001 A   U   15088 15085  15087
 $$$278B       1 00001954 00000001     X   15246 15253U
 $$$280F       2 00001990 00000001     H   15345 15335B
 $$$281F       2 0000199C 00000001     H   15368 15358B
 $$$282F       2 000019A8 00000001     H   15391 15381B
 $$$283F       2 00001A48 00000001     H   15547 15537B
 $$$284F       2 00001A9C 00000001     H   15666 15586B
 $$$285F       2 00001A94 00000001     H   15659 15649B
 $$$286F       2 00001ACC 00000001     H   15710 15700B
 $$$287F       2 00001B58 00000001     H   15844 15750B
 $$$288F       2 00001B58 00000001     H   15840 15773B
 $$$288S       2 00001AE8 00000001     H   15759 15839B
 $$$290F       2 00001DD8 00000001     H   16655 15871B 16030B 16050B 16070B 16090B
 $$$291F       2 00001BA0 00000001     H   15939 15908B
 $$$292F       2 00001BA0 00000001     H   15935 15920B
 $$$293F       2 00001BC4 00000001     H   16011 15957B
 $$$294F       2 00001BC4 00000001     H   16007 15986B
 $$$294T       2 00001BBC 00000001     H   15989 15976B
 $$$300F       2 00001D4C 00000001     H   16513 16159B
 $$$301F       2 00001DD8 00000001     H   16651 16557B
 $$$302F       2 00001DD8 00000001     H   16647 16580B
 $$$302S       2 00001D68 00000001     H   16566 16646B
 $$$304F       2 00001E52 00000001     H   16799 16711B
 $$$305F       2 00001E4E 00000001     H   16792 16744B 16778B
 $$$305T       2 00001E30 00000001     H   16747 16735B
 $$$308F       2 00001E62 00000001     H   16825 16815B
 $$$309F       2 00001E86 00000001     H   16887 16838B 16857B 16877B
 $$$312F       2 00001EB8 00000001     H   16967 16901B 16921B
 $$$314F       2 00001EB8 00000001     H   16963 16953B
 $$$315F       2 00001EC8 00000001     H   16990 16981B
 $$$316F       2 00001ED8 00000001     H   17012 17003B
 $$$317F       2 00001F22 00000001     H   17163 17031B 17080B 17121B 17150B
 $$$317S       2 00001EDC 00000001     H   17025 17162B
 $$$319B       4 00001EF2 00000001     I   17063 17100
 $$$319F       2 00001F02 00000001     H   17096 17063B 17099
 $$$319T       2 00001EF6 00000001     H   17066 17051B
 $$$322E       2 00001F06 00000001     H   17107 17101
 $$$322F       2 00001F12 00000001     H   17136 17103B
 $$$325F       2 00001F50 00000001     H   17212 17199B
 $$$326        1 00000204 00000001 A   U   17259 17256  17258
 $$$328B       1 0000237E 00000001     X   17639 17646U
 $$$329F       2 000023A6 00000001     H   17688 17679B
 $$$330F       2 000023B2 00000001     H   17726 17702B
 $$$331        6 00002884 00000001     I   17716 17708X
 $$$332        6 00002884 00000001     I   17715 17716  17716
 $$$333        1 00000050 00000001 A   U   17746 17743  17745
 $$$335B       1 000023DE 00000001     X   17773 17780U
 $$$336F       2 00002406 00000001     H   17822 17813B
 $$$337F       2 00002412 00000001     H   17860 17836B
 $$$338        6 0000288A 00000001     I   17850 17842X
 $$$339        6 0000288A 00000001     I   17849 17850  17850
 $$$340        1 00000050 00000001 A   U   17880 17877  17879
 $$$342B       1 0000243E 00000001     X   17907 17914U
 $$$343F       2 00002466 00000001     H   17956 17947B
 $$$344F       2 00002472 00000001     H   17994 17970B
 $$$345        6 00002890 00000001     I   17984 17976X
1SAM      (SAM2193) (12:54) (15MAR04) Ordinary Symbol and Literal Cross Reference                                           Page  158
 $$$346        6 00002890 00000001     I   17983 17984  17984
 $$$347        1 00000050 00000001 A   U   18014 18011  18013
 $$$349B       1 0000249E 00000001     X   18041 18048U
 $$$350        1 00000050 00000001 A   U   18075 18072  18074
 $$$352B       1 000024CA 00000001     X   18102 18109U
 $$$353        1 00000050 00000001 A   U   18136 18133  18135
 $$$355B       1 000024F6 00000001     X   18163 18170U
 $$$356        1 00000050 00000001 A   U   18197 18194  18196
 $$$358B       1 00002522 00000001     X   18224 18231U
 $$$359B       4 00002528 00000001     I   18259 18274
 $$$359F       2 00002534 00000001     H   18270 18259B 18273
 $$$360B       4 0000253C 00000001     I   18292 18306
 $$$360E       2 00002538 00000001     H   18281 18275
 $$$360F       2 00002544 00000001     H   18302 18277B 18292B 18305
 $$$362B       4 0000254C 00000001     I   18324 18338
 $$$362E       2 00002548 00000001     H   18313 18307
 $$$362F       2 00002558 00000001     H   18335 18309B 18324B 18337
 $$$364E       2 0000255C 00000001     H   18345 18339
 $$$364F       2 00002564 00000001     H   18353 18341B
 $$$365F       2 00002570 00000001     H   18375 18365B
 $$$366F       2 0000257C 00000001     H   18396 18386B
 $$$367        1 00000050 00000001 A   U   18418 18415  18417
 $$$369B       1 000025A6 00000001     X   18445 18452U
 $$$370F       2 000025CE 00000001     H   18494 18485B
 $$$371F       2 000025DA 00000001     H   18532 18508B
 $$$372        6 00002896 00000001     I   18522 18514X
 $$$373        6 00002896 00000001     I   18521 18522  18522
 $$$374        1 00000050 00000001 A   U   18552 18549  18551
 $$$376B       1 00002606 00000001     X   18579 18586U
 $$$377F       2 00002634 00000001     H   18629 18620B
 $$$378F       2 00002640 00000001     H   18667 18643B
 $$$379        6 0000289C 00000001     I   18657 18649X
 $$$380        6 0000289C 00000001     I   18656 18657  18657
 $$$381        1 00000050 00000001 A   U   18687 18684  18686
 $$$383B       1 0000266C 00000001     X   18714 18721U
 $$$384F       2 00002694 00000001     H   18763 18754B
 $$$385F       2 000026A0 00000001     H   18801 18777B
 $$$386        6 000028A2 00000001     I   18791 18783X
 $$$387        6 000028A2 00000001     I   18790 18791  18791
 $$$388        1 00000050 00000001 A   U   18821 18818  18820
 $$$390B       1 000026CC 00000001     X   18848 18855U
 $$$391F       2 000026F4 00000001     H   18897 18888B
 $$$392F       2 00002700 00000001     H   18935 18911B
 $$$393        6 000028A8 00000001     I   18925 18917X
 $$$394        6 000028A8 00000001     I   18924 18925  18925
 $$$395        1 00000050 00000001 A   U   18955 18952  18954
 $$$397B       1 0000272C 00000001     X   18982 18989U
 $$$398        1 00000050 00000001 A   U   19016 19013  19015
 $$$400B       1 00002758 00000001     X   19043 19050U
 $$$401        1 00000050 00000001 A   U   19077 19074  19076
 $$$403B       1 00002784 00000001     X   19104 19111U
 $$$404F       2 000027CA 00000001     H   19248 19134B
 $$$405B       4 0000279E 00000001     I   19157 19176
 $$$405F       2 000027A6 00000001     H   19172 19157B 19175
 $$$406B       4 000027B0 00000001     I   19193 19212
 $$$406E       2 000027AA 00000001     H   19183 19177
 $$$406F       2 000027B8 00000001     H   19208 19179B 19193B 19211
 $$$408E       2 000027BC 00000001     H   19219 19213
 $$$408F       2 000027CA 00000001     H   19244 19215B 19229B
1SAM      (SAM2193) (12:54) (15MAR04) Ordinary Symbol and Literal Cross Reference                                           Page  159
 $$$410        1 00000050 00000001 A   U   19270 19267  19269
 $$$412B       1 000027F4 00000001     X   19297 19304U
 $$$413F       2 00002828 00000001     H   19405 19327B
 $$$414B       4 0000280E 00000001     I   19350 19369
 $$$414F       2 00002816 00000001     H   19365 19350B 19368
 $$$415E       2 0000281A 00000001     H   19376 19370
 $$$415F       2 00002828 00000001     H   19401 19372B 19386B
 $$$417        1 00000050 00000001 A   U   19427 19424  19426
 $$$419B       1 000028C8 00000001     X   19504 19511U
 $$$420F       2 000029E8 00000001     H   19775 19753B
 $$$421F       2 00002A64 00000001     H   19943 19932B
 $$$422F       2 00002ADE 00000001     H   20052 19958B
 $$$423F       2 00002ADE 00000001     H   20048 19981B
 $$$423S       2 00002A6E 00000001     H   19967 20047B
 $$$425F       2 00002B2E 00000001     H   20139 20126B
 $$$426        1 00000050 00000001 A   U   20166 20163  20165
 $$$428B       1 00002BD6 00000001     X   20250 20257U
 $$$429F       2 00002BF8 00000001     H   20300 20291B
 $$$430F       2 00002C08 00000001     H   20339 20315B
 $$$431        6 000035C2 00000001     I   20329 20321X
 $$$432        6 000035C2 00000001     I   20328 20329  20329
 $$$433        1 00000050 00000001 A   U   20359 20356  20358
 $$$435B       1 00002C34 00000001     X   20408 20415U
 $$$436F       2 00002CDE 00000001     H   20606 20584B
 $$$437F       2 00002D84 00000001     H   20819 20808B
 $$$438F       2 00002DFE 00000001     H   20928 20834B
 $$$439F       2 00002DFE 00000001     H   20924 20857B
 $$$439S       2 00002D8E 00000001     H   20843 20923B
 $$$441F       2 00002E4E 00000001     H   21015 21002B
 $$$442        1 00000050 00000001 A   U   21042 21039  21041
 $$$444B       1 00002F1E 00000001     X   21141 21148U
 $$$445        1 00000050 00000001 A   U   21191 21188  21190
 $$$447B       1 00002F5E 00000001     X   21219 21226U
 $$$448F       2 00002F80 00000001     H   21269 21260B
 $$$449F       2 00002F90 00000001     H   21308 21284B
 $$$450        6 000035C8 00000001     I   21298 21290X
 $$$451        6 000035C8 00000001     I   21297 21298  21298
 $$$452        1 00000050 00000001 A   U   21328 21325  21327
 $$$454B       1 00002FBC 00000001     X   21375 21382U
 $$$455F       2 000030E8 00000001     H   21653 21631B
 $$$456F       2 00003168 00000001     H   21814 21760B
 $$$457F       2 00003198 00000001     H   21888 21877B
 $$$458F       2 00003212 00000001     H   21997 21903B
 $$$459F       2 00003212 00000001     H   21993 21926B
 $$$459S       2 000031A2 00000001     H   21912 21992B
 $$$461F       2 00003242 00000001     H   22109 22021B
 $$$461S       2 00003218 00000001     H   22007 22108B
 $$$463B       4 00003222 00000001     I   22033 22068
 $$$463F       2 00003230 00000001     H   22065 22033B 22067
 $$$464E       2 00003234 00000001     H   22075 22069
 $$$464F       2 0000323E 00000001     H   22104 22071B
 $$$465F       2 00003292 00000001     H   22196 22183B
 $$$466        1 00000050 00000001 A   U   22223 22220  22222
 $$$468B       1 00003312 00000001     X   22311 22318U
 $$$469F       2 00003398 00000001     H   22485 22463B
 $$$470F       2 00003402 00000001     H   22625 22614B
 $$$471F       2 0000347C 00000001     H   22734 22640B
 $$$472F       2 0000347C 00000001     H   22730 22663B
 $$$472S       2 0000340C 00000001     H   22649 22729B
1SAM      (SAM2193) (12:54) (15MAR04) Ordinary Symbol and Literal Cross Reference                                           Page  160
 $$$474F       2 000034CC 00000001     H   22821 22808B
 $$$475        1 00000050 00000001 A   U   22848 22845  22847
 $$$477B       1 000035E8 00000001     X   22970 22977U
 $$$478F       2 000036E2 00000001     H   23185 23140B 23152B
 $$$479T       2 000036BC 00000001     H   23145 23130B
 $$$481F       2 00003722 00000001     H   23282 23222B
 $$$481T       2 000036FA 00000001     H   23225 23200B 23212B
 $$$484F       2 0000370E 00000001     H   23252 23237B
 $$$485F       2 00003722 00000001     H   23278 23263B
 $$$486F       2 00003738 00000001     H   23314 23296B
 $$$487F       2 0000377E 00000001     H   23409 23399B
 $$$488F       2 00003796 00000001     H   23453 23431B
 $$$491F       2 000037D4 00000001     H   23562 23547B
 $$$492F       2 000037E2 00000001     H   23590 23575B
 $$$493F       2 000037F4 00000001     H   23615 23605B
 $$$494F       2 00003860 00000001     H   23766 23683B
 $$$495F       2 00003846 00000001     H   23719 23706B
 $$$496F       2 00003880 00000001     H   23808 23778B
 $$$497F       2 000038A0 00000001     H   23849 23819B
 $$$498F       2 000038C0 00000001     H   23892 23862B
 $$$500F       2 000038E0 00000001     H   23934 23904B
 $$$501F       2 00003910 00000001     H   24008 23997B
 $$$502F       2 0000398A 00000001     H   24117 24023B
 $$$503F       2 0000398A 00000001     H   24113 24046B
 $$$503S       2 0000391A 00000001     H   24032 24112B
 $$$505F       2 000039A0 00000001     H   24153 24140B
 $$$506        1 00000050 00000001 A   U   24187 24184  24186
 $$$508B       1 00003BDA 00000001     X   24415 24422U
 $$$509        1 00000050 00000001 A   U   24454 24451  24453
 $$$511B       1 00003C06 00000001     X   24482 24489U
 $$$512        1 00000050 00000001 A   U   24522 24519  24521
 $$$514B       1 00003C32 00000001     X   24550 24557U
 $$$515        1 00000050 00000001 A   U   24597 24594  24596
 $$$517B       1 00003C62 00000001     X   24625 24632U
 $$$518        1 00000050 00000001 A   U   24670 24667  24669
 $$$520B       1 00003C92 00000001     X   24698 24705U
 $$$521        1 00000050 00000001 A   U   24737 24734  24736
 $$$523B       1 00003CBE 00000001     X   24765 24772U
 $$$524        1 00000050 00000001 A   U   24804 24801  24803
 $$$526B       1 00003CEA 00000001     X   24832 24839U
 $$$527        1 00000050 00000001 A   U   24874 24871  24873
 $$$529B       1 00003D16 00000001     X   24902 24909U
 $$$530        1 00000050 00000001 A   U   24948 24945  24947
 $$$532B       1 00003D46 00000001     X   24976 24983U
 $$$533        1 00000050 00000001 A   U   25022 25019  25021
 $$$535B       1 00003D76 00000001     X   25050 25057U
 $$$536        1 00000050 00000001 A   U   25089 25086  25088
 $$$538B       1 00003DA2 00000001     X   25116 25123U
 $$$539F       2 00003DB2 00000001     H   25156 25144B
 $$$540        1 00000050 00000001 A   U   25186 25183  25185
 $$$542B       1 00003DE4 00000001     X   25213 25220U
 $$$543F       2 00003DF4 00000001     H   25253 25241B
 $$$544        1 00000050 00000001 A   U   25282 25279  25281
 $$$546B       1 0000402E 00000001     X   25511 25518U
 $$$547F       2 00004050 00000001     H   25561 25552B
 $$$548F       2 00004060 00000001     H   25600 25576B
 $$$549        6 0000442E 00000001     I   25590 25582X
 $$$550        6 0000442E 00000001     I   25589 25590  25590
 $$$551        1 00000050 00000001 A   U   25620 25617  25619
1SAM      (SAM2193) (12:54) (15MAR04) Ordinary Symbol and Literal Cross Reference                                           Page  161
 $$$553B       1 0000408C 00000001     X   25647 25654U
 $$$554        1 00000050 00000001 A   U   25686 25683  25685
 $$$556B       1 000040B8 00000001     X   25713 25720U
 $$$557        1 00000050 00000001 A   U   25755 25752  25754
 $$$559B       1 000040E4 00000001     X   25782 25789U
 $$$560        1 00000050 00000001 A   U   25822 25819  25821
 $$$562B       1 00004110 00000001     X   25849 25856U
 $$$563        1 00000050 00000001 A   U   25888 25885  25887
 $$$565B       1 0000413C 00000001     X   25915 25922U
 $$$567        1 00000050 00000001 A   U   25955 25952  25954
 $$$569B       1 00004168 00000001     X   25982 25989U
 $$$571        1 00000050 00000001 A   U   26030 26027  26029
 $$$573B       1 00004198 00000001     X   26057 26064U
 $$$574        1 00000050 00000001 A   U   26096 26093  26095
 $$$576B       1 000041C4 00000001     X   26123 26130U
 $$$577        1 00000050 00000001 A   U   26163 26160  26162
 $$$579B       1 000041F0 00000001     X   26190 26197U
 $$$583F       2 00004236 00000001     H   26307 26298B
 $$$584F       2 00004242 00000001     H   26345 26321B
 $$$585        6 00004434 00000001     I   26335 26327X
 $$$586        6 00004434 00000001     I   26334 26335  26335
 $$$587        1 00000050 00000001 A   U   26364 26361  26363
 $$$589B       1 0000426E 00000001     X   26391 26398U
 $$$590F       2 00004296 00000001     H   26440 26431B
 $$$591F       2 000042A2 00000001     H   26478 26454B
 $$$592        6 0000443A 00000001     I   26468 26460X
 $$$593        6 0000443A 00000001     I   26467 26468  26468
 $$$594        1 00000050 00000001 A   U   26499 26496  26498
 $$$596B       1 0000445A 00000001     X   26641 26648U
 $$$597F       2 00004488 00000001     H   26712 26697B
 $$$598F       2 00004498 00000001     H   26737 26726B
 $$$599B       4 0000449C 00000001     I   26751 26857
 $$$599F       2 000044D0 00000001     H   26851 26751B 26856
 $$$600B       4 000044A6 00000001     I   26776 26813
 $$$600F       2 000044BA 00000001     H   26809 26776B 26812
 $$$601F       2 000044BA 00000001     H   26805 26791B
 $$$602E       2 000044BE 00000001     H   26820 26814
 $$$602F       2 000044D0 00000001     H   26847 26816B
 $$$603F       2 000044D0 00000001     H   26843 26832B
 $$$604E       2 000044D4 00000001     H   26864 26858
 $$$604F       2 000044E6 00000001     H   26891 26860B
 $$$605F       2 000044E6 00000001     H   26887 26876B
 $$$606F       2 000044F6 00000001     H   26939 26906B
 $$$607F       2 0000452A 00000001     H   26996 26958B
 $$$608F       2 0000451C 00000001     H   26987 26977B
 $$$609        1 00000058 00000001 A   U   27024 27021  27023
 $$$611B       1 00004552 00000001     X   27063 27070U
 $$$612F       2 00004578 00000001     H   27121 27106B
 $$$613F       2 00004596 00000001     H   27148 27133B
 $$$614F       2 000045AA 00000001     H   27194 27170B
 $$$615        6 00004FA0 00000001     I   27184 27176X
 $$$616        6 00004FA0 00000001     I   27183 27184  27184
 $$$617F       2 000045D0 00000001     H   27265 27209B 27228B 27240B
 $$$620F       2 000045E4 00000001     H   27293 27282B
 $$$621F       2 00004684 00000001     H   27516 27307B 27481B
 $$$622F       2 00004630 00000001     H   27415 27367B
 $$$624F       2 00004694 00000001     H   27544 27531B
 $$$625B       4 00004698 00000001     I   27558 27974
 $$$625F       2 0000479C 00000001     H   27968 27558B 27973
1SAM      (SAM2193) (12:54) (15MAR04) Ordinary Symbol and Literal Cross Reference                                           Page  162
 $$$626F       2 00004718 00000001     H   27725 27606B 27619B 27632B 27645B
 $$$626T       2 000046D4 00000001     H   27648 27583B 27593B
 $$$632F       2 0000472E 00000001     H   27781 27769B
 $$$632T       2 00004728 00000001     H   27772 27758B
 $$$634B       4 00004734 00000001     I   27801 27868
 $$$634F       2 00004760 00000001     H   27864 27801B 27867
 $$$635E       2 00004764 00000001     H   27875 27869
 $$$635F       2 0000477A 00000001     H   27907 27871B
 $$$636F       2 0000479C 00000001     H   27964 27924B
 $$$637E       2 000047A0 00000001     H   27981 27975
 $$$637F       2 00004850 00000001     H   28326 27977B
 $$$638F       2 00004834 00000001     H   28262 27996B
 $$$639F       2 000047CE 00000001     H   28078 28015B 28032B
 $$$641F       2 000047CE 00000001     H   28074 28050B 28064B
 $$$643F       2 000047E6 00000001     H   28127 28089B
 $$$644F       2 00004800 00000001     H   28160 28147B
 $$$645F       2 00004834 00000001     H   28258 28218B
 $$$646F       2 00004850 00000001     H   28322 28307B
 $$$647        1 00000050 00000001 A   U   28351 28348  28350
 $$$649B       1 00004878 00000001     X   28386 28393U
 $$$650F       2 0000489E 00000001     H   28444 28429B
 $$$651B       4 000048A2 00000001     I   28458 28474
 $$$651F       2 000048AA 00000001     H   28468 28458B 28473
 $$$652E       2 000048AE 00000001     H   28481 28475
 $$$652F       2 00004928 00000001     H   28694 28477B
 $$$653F       2 00004928 00000001     H   28690 28493B 28510B
 $$$655F       2 00004900 00000001     H   28626 28527B
 $$$656F       2 00004900 00000001     H   28622 28586B
 $$$657F       2 00004910 00000001     H   28652 28639B
 $$$658F       2 0000496E 00000001     H   28779 28766B
 $$$659        1 00000050 00000001 A   U   28803 28800  28802
 $$$661B       1 00004996 00000001     X   28873 28880U
 $$$662F       2 000049C0 00000001     H   28947 28933B
 $$$663F       2 00004A46 00000001     H   29106 29084B
 $$$664F       2 00004B76 00000001     H   29437 29343B
 $$$665F       2 00004B76 00000001     H   29433 29366B
 $$$665S       2 00004B06 00000001     H   29352 29432B
 $$$667F       2 00004B96 00000001     H   29482 29456B 29469B
 $$$669        1 00000090 00000001 A   U   29516 29513  29515
 $$$671B       1 00004C3E 00000001     X   29592 29599U
 $$$672F       2 00004C6C 00000001     H   29666 29642B
 $$$673        6 00004FA6 00000001     I   29656 29648X
 $$$674        6 00004FA6 00000001     I   29655 29656  29656
 $$$675        1 00000050 00000001 A   U   29687 29684  29686
 $$$677B       1 00004C9E 00000001     X   29715 29722U
 $$$678F       2 00004CCC 00000001     H   29789 29765B
 $$$679        6 00004FAC 00000001     I   29779 29771X
 $$$680        6 00004FAC 00000001     I   29778 29779  29779
 $$$681        1 00000050 00000001 A   U   29810 29807  29809
 $$$683B       1 00004CFE 00000001     X   29879 29886U
 $$$684F       2 00004DD8 00000001     H   30162 29977B
 $$$684S       2 00004D3E 00000001     H   29971 30161B
 $$$686F       2 00004DD2 00000001     H   30154 30126B
 $$$688F       2 00004DF2 00000001     H   30194 30183B
 $$$689        1 00000060 00000001 A   U   30221 30218  30220
 $$$691B       1 00004FCC 00000001     X   30361 30368U
 $$$692F       2 00004FE2 00000001     H   30441 30417B
 $$$693        6 00005C2E 00000001     I   30431 30423X
 $$$694        6 00005C2E 00000001     I   30430 30431  30431
1SAM      (SAM2193) (12:54) (15MAR04) Ordinary Symbol and Literal Cross Reference                                           Page  163
 $$$695F       2 00005044 00000001     H   30611 30456B
 $$$696F       2 00005000 00000001     H   30500 30476B
 $$$697        6 00005C34 00000001     I   30490 30482X
 $$$698        6 00005C34 00000001     I   30489 30490  30490
 $$$699F       2 0000501C 00000001     H   30544 30520B
 $$$700        6 00005C3A 00000001     I   30534 30526X
 $$$701        6 00005C3A 00000001     I   30533 30534  30534
 $$$702F       2 00005034 00000001     H   30568 30559B
 $$$703F       2 00005044 00000001     H   30607 30583B
 $$$704        6 00005C40 00000001     I   30597 30589X
 $$$705        6 00005C40 00000001     I   30596 30597  30597
 $$$706F       2 00005070 00000001     H   30704 30643B 30656B
 $$$708F       2 00005070 00000001     H   30700 30676B
 $$$709        6 00005C46 00000001     I   30690 30682X
 $$$710        6 00005C46 00000001     I   30689 30690  30690
 $$$711F       2 000050A8 00000001     H   30820 30730B
 $$$712F       2 000050A8 00000001     H   30816 30761B
 $$$712T       2 0000508E 00000001     H   30764 30750B
 $$$714F       2 000050A8 00000001     H   30812 30788B
 $$$715        6 00005C4C 00000001     I   30802 30794X
 $$$716        6 00005C4C 00000001     I   30801 30802  30802
 $$$717        1 00000160 00000001 A   U   30849 30846  30848
 $$$719B       1 000050D0 00000001     X   30889 30896U
 $$$720F       2 000050EC 00000001     H   30973 30949B
 $$$721        6 00005C52 00000001     I   30963 30955X
 $$$722        6 00005C52 00000001     I   30962 30963  30963
 $$$723        1 00000050 00000001 A   U   31002 30999  31001
 $$$725B       1 00005114 00000001     X   31034 31041U
 $$$726F       2 0000517E 00000001     H   31167 31120B 31137B
 $$$728F       2 0000518A 00000001     H   31196 31181B
 $$$729F       2 0000519E 00000001     H   31236 31221B
 $$$729T       2 0000519A 00000001     H   31224 31211B
 $$$731F       2 000051BA 00000001     H   31302 31262B
 $$$732F       2 000051BA 00000001     H   31298 31277B
 $$$733F       2 00005296 00000001     H   31563 31533B
 $$$734F       2 000052C6 00000001     H   31638 31621B
 $$$735        1 00000050 00000001 A   U   31781 31778  31780
 $$$737B       1 00005364 00000001     X   31820 31827U
 $$$738F       2 0000537E 00000001     H   31894 31880B
 $$$739F       2 000053F2 00000001     H   32061 31973B
 $$$739S       2 0000537E 00000001     H   31911 32060B
 $$$740F       2 0000538C 00000001     H   31937 31927B
 $$$741F       2 000053A0 00000001     H   31960 31950B
 $$$743F       2 000053BA 00000001     H   32003 31993B
 $$$744F       2 00005444 00000001     H   32169 32077B
 $$$745F       2 00005438 00000001     H   32155 32109B
 $$$745T       2 0000540C 00000001     H   32112 32098B
 $$$747F       2 00005474 00000001     H   32264 32183B 32200B 32218B
 $$$750F       2 0000546A 00000001     H   32255 32245B
 $$$751        1 00000050 00000001 A   U   32302 32299  32301
 $$$753B       1 000054AE 00000001     X   32340 32347U
 $$$754F       2 000054E0 00000001     H   32438 32400B
 $$$755B       4 000054E4 00000001     I   32454 32508
 $$$755F       2 00005504 00000001     H   32502 32454B 32507
 $$$756E       2 00005508 00000001     H   32515 32509
 $$$756F       2 000055C6 00000001     H   32793 32511B
 $$$757F       2 0000559E 00000001     H   32720 32560B 32573B
 $$$757T       2 00005530 00000001     H   32576 32537B 32547B
 $$$761F       2 00005588 00000001     H   32685 32655B
1SAM      (SAM2193) (12:54) (15MAR04) Ordinary Symbol and Literal Cross Reference                                           Page  164
 $$$761T       2 0000556E 00000001     H   32658 32644B
 $$$763F       2 000055AC 00000001     H   32748 32736B
 $$$764F       2 0000566A 00000001     H   33034 32825B 32999B
 $$$765F       2 00005616 00000001     H   32933 32885B
 $$$767        1 00000050 00000001 A   U   33078 33075  33077
 $$$769B       1 00005692 00000001     X   33114 33121U
 $$$77B        1 00000030 00000001     X    7565  7572U
 $$$770F       2 00005776 00000001     H   33479 33157B
 $$$771F       2 000056EC 00000001     H   33295 33203B
 $$$772F       2 000056D4 00000001     H   33271 33218B
 $$$773F       2 000056D4 00000001     H   33267 33234B
 $$$774F       2 00005734 00000001     H   33390 33309B
 $$$775F       2 00005734 00000001     H   33386 33330B
 $$$776F       2 00005754 00000001     H   33425 33415B
 $$$777        1 00000050 00000001 A   U   33507 33504  33506
 $$$779B       1 000057A0 00000001     X   33540 33547U
 $$$78F        2 000000B2 00000001     H    7677  7664B
 $$$780        1 00000050 00000001 A   U   33826 33823  33825
 $$$782B       1 0000587C 00000001     X   33857 33864U
 $$$783        1 00000050 00000001 A   U   33939 33936  33938
 $$$785B       1 000058BE 00000001     X   33971 33978U
 $$$786        1 00000050 00000001 A   U   34053 34050  34052
 $$$788B       1 00005900 00000001     X   34084 34091U
 $$$789B       4 00005930 00000001     I   34176 34213
 $$$789F       2 00005944 00000001     H   34209 34176B 34212
 $$$79F        2 00000108 00000001     H    7822  7691B
 $$$790E       2 00005948 00000001     H   34220 34214
 $$$790F       2 00005960 00000001     H   34262 34216B 34229B
 $$$792        1 00000050 00000001 A   U   34303 34300  34302
 $$$80F        2 000000D8 00000001     H    7724  7709B
 $$$802B       1 00005C72 00000001     X   34542 34549U
 $$$803F       2 00005C9E 00000001     H   34617 34602B
 $$$804F       2 00005D6C 00000001     H   34967 34647B
 $$$805F       2 00005CEA 00000001     H   34744 34662B
 $$$806F       2 00005CD0 00000001     H   34695 34680B
 $$$807F       2 00005D68 00000001     H   34961 34758B
 $$$808F       2 00005D36 00000001     H   34891 34773B
 $$$809B       4 00005CFE 00000001     I   34788 34805
 $$$809F       2 00005D08 00000001     H   34801 34788B 34804
 $$$81F        2 000000E4 00000001     H    7750  7735B
 $$$810B       4 00005D10 00000001     I   34821 34838
 $$$810E       2 00005D0C 00000001     H   34812 34806
 $$$810F       2 00005D1A 00000001     H   34834 34808B 34821B 34837
 $$$812B       4 00005D22 00000001     I   34854 34870
 $$$812E       2 00005D1E 00000001     H   34845 34839
 $$$812F       2 00005D2C 00000001     H   34867 34841B 34854B 34869
 $$$814E       2 00005D30 00000001     H   34877 34871
 $$$814F       2 00005D36 00000001     H   34887 34873B
 $$$815B       4 00005D48 00000001     I   34910 34927
 $$$815F       2 00005D52 00000001     H   34923 34910B 34926
 $$$816E       2 00005D56 00000001     H   34934 34928
 $$$816F       2 00005D64 00000001     H   34956 34930B 34943B
 $$$818F       2 00005FD6 00000001     H   35933 34981B
 $$$819F       2 00005D94 00000001     H   35015 35005B
 $$$82F        2 000000F0 00000001     H    7776  7761B
 $$$820F       2 00005DDA 00000001     H   35105 35090B
 $$$821F       2 00005E38 00000001     H   35275 35187B 35205B
 $$$823F       2 00005E32 00000001     H   35254 35246B
 $$$824F       2 00005E70 00000001     H   35362 35347B
1SAM      (SAM2193) (12:54) (15MAR04) Ordinary Symbol and Literal Cross Reference                                           Page  165
 $$$825F       2 00005EA0 00000001     H   35445 35371B
 $$$826F       2 00005E84 00000001     H   35396 35386B
 $$$827F       2 00005E90 00000001     H   35419 35409B
 $$$829F       2 00005F12 00000001     H   35600 35460B
 $$$83F        2 000000FC 00000001     H    7802  7787B
 $$$830F       2 00005EBC 00000001     H   35495 35479B
 $$$831F       2 00005EEC 00000001     H   35552 35537B
 $$$832F       2 00005FD6 00000001     H   35929 35624B
 $$$833F       2 00005FC0 00000001     H   35904 35641B
 $$$835F       2 00005F5C 00000001     H   35728 35681B 35696B
 $$$837F       2 00005F8E 00000001     H   35802 35749B
 $$$838F       2 00005F7C 00000001     H   35772 35762B
 $$$839F       2 00005FA8 00000001     H   35853 35835B
 $$$84         1 0000005C 00000001 A   U    7847  7844   7846
 $$$840F       2 00005FB4 00000001     H   35881 35866B
 $$$842F       2 00005FEE 00000001     H   35980 35961B
 $$$842T       2 00005FE6 00000001     H   35964 35951B
 $$$844        1 00000094 00000001 A   U   36015 36012  36014
 $$$846B       1 00006016 00000001     X   36056 36063U
 $$$847F       2 0000603C 00000001     H   36114 36099B
 $$$848F       2 00006082 00000001     H   36243 36131B
 $$$849F       2 00006082 00000001     H   36239 36181B 36201B
 $$$849S       2 0000605C 00000001     H   36175 36238B
 $$$852B       4 00006090 00000001     I   36273 36294
 $$$852F       2 0000609A 00000001     H   36288 36273B 36293
 $$$853E       2 0000609E 00000001     H   36301 36295
 $$$853F       2 00006114 00000001     H   36502 36297B
 $$$854F       2 000060CA 00000001     H   36386 36313B
 $$$855F       2 000060C0 00000001     H   36362 36330B 36348B
 $$$855S       2 000060AA 00000001     H   36324 36361B
 $$$858F       2 000060CA 00000001     H   36382 36372B
 $$$859F       2 00006106 00000001     H   36479 36428B
 $$$86B        1 000004F6 00000001     X    8239  8246U
 $$$860F       2 00006106 00000001     H   36475 36444B 36462B
 $$$860S       2 000060EE 00000001     H   36438 36474B
 $$$863        1 00000050 00000001 A   U   36534 36531  36533
 $$$87         1 00000050 00000001 A   U    8285  8282   8284
 $$$873B       1 000061F8 00000001     X   36733 36740U
 $$$874F       2 00006224 00000001     H   36808 36793B
 $$$875F       2 00006380 00000001     H   37263 36856B
 $$$875S       2 00006236 00000001     H   36846 37262B
 $$$877F       2 0000637C 00000001     H   37258 36915B
 $$$878F       2 00006308 00000001     H   37093 36931B
 $$$880F       2 000062CE 00000001     H   37032 36999B
 $$$881F       2 00006308 00000001     H   37089 37048B
 $$$882F       2 00006308 00000001     H   37085 37069B
 $$$883B       4 0000633C 00000001     I   37153 37170
 $$$883F       2 00006346 00000001     H   37166 37153B 37169
 $$$884B       4 0000634E 00000001     I   37186 37203
 $$$884E       2 0000634A 00000001     H   37177 37171
 $$$884F       2 00006358 00000001     H   37199 37173B 37186B 37202
 $$$886B       4 00006360 00000001     I   37219 37235
 $$$886E       2 0000635C 00000001     H   37210 37204
 $$$886F       2 0000636A 00000001     H   37232 37206B 37219B 37234
 $$$888E       2 0000636E 00000001     H   37242 37236
 $$$888F       2 00006374 00000001     H   37252 37238B
 $$$889F       2 000063B0 00000001     H   37314 37301B
 $$$89B        1 0000052A 00000001     X    8312  8319U
 $$$891        1 000000F0 00000001 A   U   37375 37372  37374
1SAM      (SAM2193) (12:54) (15MAR04) Ordinary Symbol and Literal Cross Reference                                           Page  166
 $$$893B       1 000063F0 00000001     X   37448 37455U
 $$$894F       2 0000641C 00000001     H   37523 37508B
 $$$895F       2 00006466 00000001     H   37623 37538B
 $$$896F       2 00006466 00000001     H   37619 37586B
 $$$897F       2 00006516 00000001     H   37873 37640B 37698B
 $$$897S       2 0000646E 00000001     H   37634 37872B
 $$$899F       2 00006482 00000001     H   37664 37655B
 $$$90         1 00000050 00000001 A   U    8353  8350   8352
 $$$900        6 00006D6C 00000001     I   37679 37671X
 $$$901        6 00006D6C 00000001     I   37678 37679  37679
 $$$903F       2 00006512 00000001     H   37868 37720B
 $$$904F       2 000064CE 00000001     H   37773 37763B
 $$$904T       2 000064CA 00000001     H   37766 37751B
 $$$906F       2 000064F6 00000001     H   37822 37783B
 $$$907F       2 00006512 00000001     H   37864 37838B
 $$$908F       2 00006534 00000001     H   37926 37890B
 $$$909B       4 00006546 00000001     I   37958 37975
 $$$909F       2 00006550 00000001     H   37971 37958B 37974
 $$$910B       4 00006558 00000001     I   37991 38008
 $$$910E       2 00006554 00000001     H   37982 37976
 $$$910F       2 00006562 00000001     H   38004 37978B 37991B 38007
 $$$912B       4 0000656A 00000001     I   38024 38040
 $$$912E       2 00006566 00000001     H   38015 38009
 $$$912F       2 00006574 00000001     H   38037 38011B 38024B 38039
 $$$914E       2 00006578 00000001     H   38047 38041
 $$$914F       2 0000657E 00000001     H   38057 38043B
 $$$915F       2 00006596 00000001     H   38086 38076B
 $$$916F       2 000065A2 00000001     H   38107 38097B
 $$$917F       2 000065C8 00000001     H   38170 38119B
 $$$917S       2 000065A2 00000001     H   38113 38169B
 $$$919F       2 000065B6 00000001     H   38143 38134B
 $$$92B        1 0000055A 00000001     X    8380  8387U
 $$$920        6 00006D72 00000001     I   38156 38148X
 $$$921        6 00006D72 00000001     I   38155 38156  38156
 $$$923F       2 000065F2 00000001     H   38250 38215B 38227B
 $$$925F       2 00006622 00000001     H   38345 38264B 38281B 38299B
 $$$928F       2 00006618 00000001     H   38336 38326B
 $$$929F       2 00006630 00000001     H   38372 38362B
 $$$93         1 00000050 00000001 A   U    8426  8423   8425
 $$$930        1 00000054 00000001 A   U   38403 38400  38402
 $$$940B       1 0000665C 00000001     X   38550 38557U
 $$$941F       2 0000667E 00000001     H   38616 38601B
 $$$942F       2 00006704 00000001     H   38797 38705B
 $$$942S       2 000066C8 00000001     H   38699 38796B
 $$$945F       2 000066F4 00000001     H   38783 38759B 38770B
 $$$947        1 0000009C 00000001 A   U   38834 38831  38833
 $$$949B       1 00006742 00000001     X   38918 38925U
 $$$95B        1 0000058E 00000001     X    8453  8460U
 $$$950F       2 00006780 00000001     H   39035 38999B 39021B
 $$$950S       2 00006756 00000001     H   38993 39034B
 $$$953F       2 00006798 00000001     H   39064 39049B
 $$$954F       2 000067AA 00000001     H   39090 39080B
 $$$955F       2 000067BC 00000001     H   39116 39106B
 $$$956F       2 000067D2 00000001     H   39149 39132B
 $$$957F       2 000067EC 00000001     H   39180 39165B
 $$$958F       2 00006804 00000001     H   39208 39193B
 $$$959F       2 0000681E 00000001     H   39240 39225B
 $$$96         1 00000050 00000001 A   U    8498  8495   8497
 $$$960F       2 00006840 00000001     H   39284 39269B
1SAM      (SAM2193) (12:54) (15MAR04) Ordinary Symbol and Literal Cross Reference                                           Page  167
 $$$961F       2 00006866 00000001     H   39329 39314B
 $$$962F       2 00006896 00000001     H   39385 39343B
 $$$963F       2 00006886 00000001     H   39375 39360B
 $$$964F       2 000068AE 00000001     H   39414 39399B
 $$$965F       2 000068F4 00000001     H   39486 39473B
 $$$965S       2 000068BA 00000001     H   39427 39485B
 $$$966F       2 000068D0 00000001     H   39453 39438B
 $$$968F       2 00006916 00000001     H   39532 39517B
 $$$969F       2 00006932 00000001     H   39560 39545B
 $$$970F       2 0000694C 00000001     H   39613 39589B
 $$$970T       2 00006942 00000001     H   39592 39579B
 $$$972B       4 00006956 00000001     I   39644 39709
 $$$972F       2 00006986 00000001     H   39704 39644B 39708
 $$$973F       2 00006986 00000001     H   39700 39685B
 $$$974E       2 0000698A 00000001     H   39716 39710
 $$$974F       2 000069BE 00000001     H   39785 39712B 39725B
 $$$976F       2 000069BE 00000001     H   39781 39766B
 $$$977F       2 00006A00 00000001     H   39849 39834B
 $$$978F       2 00006A3E 00000001     H   39954 39903B 39943B
 $$$979F       2 00006A38 00000001     H   39946 39927B
 $$$98B        1 000005BE 00000001     X    8525  8532U
 $$$981        1 00000068 00000001 A   U   39995 39992  39994
 $$$983B       1 00006A70 00000001     X   40032 40039U
 $$$984B       4 00006A98 00000001     I   40126 40163
 $$$984F       2 00006AA8 00000001     H   40160 40126B 40162
 $$$985E       2 00006AAC 00000001     H   40170 40164
 $$$985F       2 00006AB6 00000001     H   40190 40166B
 $$$986F       2 00006B2E 00000001     H   40349 40215B
 $$$987F       2 00006AEE 00000001     H   40281 40234B 40249B
 $$$989        1 00000050 00000001 A   U   40373 40370  40372
 $$$99         1 00000050 00000001 A   U    8583  8580   8582
 $$$991B       1 00006D92 00000001     X   40522 40529U
 $$$992F       2 00006E1C 00000001     H   40727 40566B 40629B
 $$$992S       2 00006D9A 00000001     H   40560 40726B
 $$$994F       2 00006DAE 00000001     H   40590 40581B
 $$$995        6 00007794 00000001     I   40604 40596X
 $$$996        6 00007794 00000001     I   40603 40604  40604
 $$$998B       4 00006DE4 00000001     I   40666 40681
 $$$998F       2 00006DEE 00000001     H   40677 40666B 40680
 $$$999E       2 00006DF2 00000001     H   40688 40682
 $$$999F       2 00006E18 00000001     H   40722 40684B
 @RAR          0 00000000 FFFFFFF0     @    1146  2171   2179B
 @R0           0 00000000 FFFFFFFE     @     717   993U
 @R1           0 00000000 FFFFFFFD     @     730   989U  2177   2178  10957U 15913  16486  17715  17849  17983  18521
                                                 18656  18790  18924  20328  21297  25589  26334  26467  27183  28916
                                                 29468  29655  29778  30131M 30142  30175  30489M 30502M 30533M 30655
                                                 30747  30760  30801  31338U 31381U 31424U 31467U 31992  32108  32157
                                                 32544  32559  32572  32735  32766  33652U 33732U 35761  35768  35773
                                                 36318  38155M 38164  39456  43703M 43712  43839M 43848  43990  43993
                                                 44103  44122  44302  44315
 @R10          0 00000000 FFFFFFF4     @     847   953U
 @R11          0 00000000 FFFFFFF3     @     860   949U
 @R12          0 00000000 FFFFFFF2     @     873   945U
 @R13          0 00000000 FFFFFFF1     @     886   941U 17233  19649  21524  23111
 @R14          0 00000000 FFFFFFF0     @     899   937U 37678  42368U 42407  42614  42673U 42712  43119U 43159
 @R15          0 00000000 FFFFFFEF     @     912   933U 12329U 12624U 14421U 14829U 15881  19156  19192  19228  19349
                                                 19385  26480  27590  32544  35605  37707  39006  39458  40638  41069
                                                 41129U 41548  42073  42361U 42589U 42666U 43558
 @R2           0 00000000 FFFFFFFC     @     743   985U 16200  16246  16292  16384  16430  26936U 36345  36459  36468
1SAM      (SAM2193) (12:54) (15MAR04) Ordinary Symbol and Literal Cross Reference                                           Page  168
                                                 37055  37273M 38155  41976U 43112U 43703
 @R3           0 00000000 FFFFFFFB     @     756   981U 13519M 13528  15879M 15881M 15882M 15913  29655M 29778M 42004M
                                                 42023  43550M
 @R4           0 00000000 FFFFFFFA     @     769   977U 13519  27590  27605  27618  27631  27644  27755  27768  27877
                                                 32641  32654  37290  41111M 41112  41166M 41167  41175M 41176  41590M
                                                 41591  41602M 41625M 41630  42383M 42401  42407M 42408  42439M 42478M
                                                 42479  42488  42590M 42608  42614M 42615  42629M 42630M 42631  42688M
                                                 42706  42712M 42713  42723M 42724  42829M 42830M 42831  43134M 43153
                                                 43159M 43160  43241M 43242M 43259M 43264  43270M 43271M 43272
 @R5           0 00000000 FFFFFFF9     @     782   973U 12712U 19436U 20367U 21336U 22231U 26508U 29819U 30981U 31760U
                                                 31901U 32807U 33045U 33057U 33476U 35989U 37053  37123  37271  37665
                                                 37678  37705  37725  37788  39004  39028  39416  39455  40591  40603
                                                 40636  40671  40690M 40699  40711  40714  40965  40978  40984  41058
                                                 41102  41113  41128  41177  41461  41482  41495  41518  41536  41546
                                                 41581  41592  41602  41631  41931  41943  41975  41978  42056  42071
                                                 42360  42409  42433  42439  42466  42480  42489  42530  42549  42568
                                                 42588  42616  42665  42714  42723  42725  42762  42781  42800  42819
                                                 43111  43161  43270  43273  43499  43560
 @R6           0 00000000 FFFFFFF8     @     795   969U  9779U 12404U 12784U 13701U 14604U 14971U 17220U 20150U 21026U
                                                 22207U 22832U 26515U 27003U 28335U 28787U 29495U 30828U 30986U 31765U
                                                 32286U 33062U 33491U 33810U 33923U 34037U 34287U 35994U 36518U 37354U
                                                 38382U 38813U 39974U 40357U 41228U 41682U 42888U 43324U
 @R7           0 00000000 FFFFFFF7     @     808   965U  7836U  8274U  8342U  8415U  8487U  8572U  8657U  8736U  8821U
                                                  8906U  8991U  9070U  9139U  9205U  9272U  9339U  9405U  9471U  9538U
                                                  9604U  9671U  9758U 11950U 12414U 12794U 13714U 14585U 14952U 15077U
                                                 17248U 17735U 17869U 18003U 18064U 18125U 18186U 18407U 18541U 18676U
                                                 18810U 18944U 19005U 19066U 19259U 19416U 20155U 20348U 21031U 21180U
                                                 21317U 22212U 22837U 24176U 24443U 24511U 24586U 24659U 24726U 24793U
                                                 24863U 24937U 25011U 25078U 25175U 25271U 25609U 25675U 25744U 25811U
                                                 25877U 25944U 26019U 26085U 26152U 26353U 26488U 27013U 28340U 28792U
                                                 29505U 29676U 29799U 30210U 30838U 30991U 31770U 32291U 33067U 33496U
                                                 33815U 33928U 34042U 34292U 36004U 36523U 37364U 38392U 38823U 39984U
                                                 40362U 40743U 41238U 41692U 41772U 42128U 42898U 43334U 43589U 43726U
                                                 43862U 44009U 44139U 44343U
 @R8           0 00000000 FFFFFFF6     @     821   961U  7831U 17243U 27008U 29500U 30205U 30833U 35999U 37359U 38387U
                                                 38818U 39979U 40738U 41233U 41687U 42123U 42893U 43329U 43584U
 @R9           0 00000000 FFFFFFF5     @     834   957U
 ABSCENT       1 00000000 00000000 A   T    2187  2187
 ASCII         2 00003CFC 00000001     H   24883 24314
 ASCSTRT     256 000077B2 00000001     X   43911 40412  40603  43912  43914
 ASCTBL        1 00000000 00000000 A   T    2195  2195
 BLTBL         1 00000000 00000000 A   T    2197  2197
 BR            7 00000007 00000001 A   #    1036  7560M  8234M  8307M  8375M  8448M  8520M  8605M  8690M  8769M  8854M
                                                  8939M  9024M  9103M  9172M  9238M  9305M  9372M  9438M  9504M  9571M
                                                  9637M  9704M  9805M 12144M 12459M 12831M 14283M 14630M 15034M 15241M
                                                 17634M 17768M 17902M 18036M 18097M 18158M 18219M 18440M 18574M 18709M
                                                 18843M 18977M 19038M 19099M 19292M 19499M 20245M 20403M 21136M 21214M
                                                 21370M 22306M 22965M 24410M 24477M 24545M 24620M 24693M 24760M 24827M
                                                 24897M 24971M 25045M 25111M 25208M 25506M 25642M 25708M 25777M 25844M
                                                 25910M 25977M 26052M 26118M 26185M 26386M 26636M 27058M 28381M 28868M
                                                 29587M 29710M 29874M 30356M 30884M 31029M 31815M 32335M 33109M 33535M
                                                 33852M 33966M 34079M 34537M 36051M 36728M 37443M 38545M 38913M 40027M
                                                 40517M 40819M 41314M 41737M 41846M 42202M 42972M 43409M 43633M 43770M
                                                 43948M 44057M 44254M
 BTX           1 00000000 00000038     T   43893 43893
 CHECKCRC      2 000078F6 00000001     H   44043 36555  40428
 CHECKIOB      1 00000000 00000000 A   T    2243  2243
 CHECKSUM      2 000078B2 00000001     H   43934 36554  40429
 CLRHIBIT      2 00007608 00000001     H   43756 40427
1SAM      (SAM2193) (12:54) (15MAR04) Ordinary Symbol and Literal Cross Reference                                           Page  169
 COMMAND       1 00000000 00000000 A   T    2183  2183
 COMMSEG       1 00000000 00000000 A   T    2184  2184
 CP         4096 00000000 FFFFFFEC     J    6197  1172U
 CP#XSTK       1 00000010 FFFFFFEC A   U    3929  3930
 CPACFLG       1 000005D5 FFFFFFEC     R    4032  4036   4041   4046   4051   4056
 CPACFLN       4 000005C4 FFFFFFEC     F    4024  4059   4059
 CPAFLAG       1 000005C3 FFFFFFEC     R    3996  4000   4005   4010   4015
 CPANAME       8 00000588 FFFFFFEC     C    3978  4074   4074
 CPAUTFLG      1 000008A9 FFFFFFEC     R    4342  4346   4351   4356   4361
 CPCHFLAG      1 00000B68 FFFFFFEC     R    4969  4973
 CPCMNM        3 00000D24 FFFFFFEC     C    5295 23499  23519  23546  25143  25240  33414
 CPDELTA       4 00000738 FFFFFFEC     F    4081 26944  32269
 CPDEVP        4 00000E58 FFFFFFEC     A    5829 14380  14788  15405M 17182M 17182  19544M 20109M 20109  20453M 20985M
                                                 20985  21417M 22166M 22166  22341M 22791M 22791  23010M 26670  27079
                                                 28402  28749M 28749  28962M 30919  34575  36072  36766  37481  40849
                                                 41344  42232  43002
 CPDFLG        1 0000084C FFFFFFEC     R    4229  4233   4238   4243   4248   4253
 CPDFLG2       1 0000084D FFFFFFEC     R    4258  4262   4267   4272   4277   4282   4287
 CPERRID       8 00000886 FFFFFFEC     C    4328 14357M 14704M 35768M
 CPEXFLG       1 00000758 FFFFFFEC     R    4098  4102
 CPEXFLG2      1 00000759 FFFFFFEC     R    4108  4117   4127
 CPEXFLG3      1 0000075A FFFFFFEC     R    4134  4138   4143
 CPEXTFLG      1 00000E28 FFFFFFEC     R    5780  5784   5789   5794   5799   5804   5809
 CPFABORT    128 00000D5A FFFFFFEC         5546  2147M  2147   2152M  2152  35848  35848  35877M
 CPFCLEAN    128 00000C7B FFFFFFEC         5099 29952M 35143M 35579M 38680M
 CPFERROR     64 00000D5A FFFFFFEC         5551  2146M  2146   2151M  2151  35848  35848  35849M
 CPFINFOP      4 00000E54 FFFFFFEC     A    5828 14373  14781  19520  20429  21391  30905
 CPFNECHO     64 00000C7B FFFFFFEC         5104 29956M 35147M 35583M 38684M
 CPFNMOD      16 00000C7C FFFFFFEC         5149 29938M 35129M 35569M 38666M
 CPFNONL     128 00000C7A FFFFFFEC         5079 29942M 35133M 35573M 38670M
 CPFNPAU     128 00000C7D FFFFFFEC         5174 29960M 35151M 35587M 38688M
 CPFNTEX       1 00000040 FFFFFFEC A   U    5398  5399
 CPFNTYPE     64 00000C7C FFFFFFEC         5139 29946M 35137M 38674M
 CPFQUIET     64 00000D55 FFFFFFEC         5416 35089  35119M 35358M 35536  35594M
 CPFRDRNG      1 00000D88 FFFFFFEC     R    5666  5670   5675   5680   5685   5690   5695   5700
 CPFRDSRC      1 00000D89 FFFFFFEC     R    5705  5714   5724   5734
 CPFSCRTC      1 00000040 FFFFFFEC A   U    5321 23859  25935  26003
 CPFSTMSG      8 00000C7D FFFFFFEC         5194 27330M 32848M
 CPFTRAN     128 00000C7C FFFFFFEC         5134 29934M 35125M 35565M 38662M
 CPFUNUM       1 00000080 FFFFFFEC A   U    5397  5399
 CPFXDFLG      1 000007E4 FFFFFFEC     R    4176  4180   4185
 CPGFLG1       1 00000474 FFFFFFEC     R    3539  3543   3548   3553   3558   3563   3893   3893
 CPGFLG10      1 0000047D FFFFFFEC     R    3776  3780   3785   3790   3795   3800   3805
 CPGFLG11      1 0000047E FFFFFFEC     R    3811  3815   3820
 CPGFLG12      1 0000047F FFFFFFEC     R    3826  3830   3835   3840
 CPGFLG13      1 00000480 FFFFFFEC     R    3846  3850
 CPGFLG14      1 00000481 FFFFFFEC     R    3856  3860   3865   3870   3875   3880
 CPGFLG4       1 00000477 FFFFFFEC     R    3592  3603   3612   3621   3630   3639
 CPGFLG5       1 00000478 FFFFFFEC     R    3645  3649   3654   3659   3664   3669   3674   3679   3684
 CPGFLG6       1 00000479 FFFFFFEC     R    3690  3694   3699   3704
 CPGFLG7       1 0000047A FFFFFFEC     R    3710  3714   3719   3724   3729
 CPGFLG8       1 0000047B FFFFFFEC     R    3735  3739   3744   3749   3754
 CPGFLG9       1 0000047C FFFFFFEC     R    3760  3764   3770
 CPGFSAMD     16 0000047D FFFFFFEC         3795  9464M  9531M 11838
 CPGFSAMNFTPCRYPT
               4 0000047D FFFFFFEC         3805  9332M  9398M 11799  31134
 CPGFSAMSLOW
               8 0000047D FFFFFFEC         3800  9198M  9265M 11726  26215
 CPGFSAMT     32 0000047D FFFFFFEC         3790  9597M  9664M 11895  12177
1SAM      (SAM2193) (12:54) (15MAR04) Ordinary Symbol and Literal Cross Reference                                           Page  170
 CPINIT        1 00000174 FFFFFFEC     U    2709  6166
 CPJESFLG      1 000009E1 FFFFFFEC     R    4441  4445   4450   4455   4460   4465   4470   4475   4480
 CPJESFLY      1 000009FD FFFFFFEC     R    4491  4495   4500   4505
 CPJESHFL      1 000009E0 FFFFFFEC     R    4426  4430   4435   4514   4514
 CPLCNO        4 0000073C FFFFFFEC     F    4083 27668  32596
 CPLFLG10      1 00000D59 FFFFFFEC     R    5532  5536
 CPLFLG11      1 00000D5A FFFFFFEC     R    5542  5546   5551   5556   5561
 CPLFLG12      1 00000D5B FFFFFFEC     R    5567  5571
 CPLFLG14      1 00000D5C FFFFFFEC     R    5577  5581   5586   5591   5596   5601
 CPLFLG2       1 00000D51 FFFFFFEC     R    5319 23861  25937M 26005M
 CPLFLG6       1 00000D55 FFFFFFEC     R    5407  5411   5416   5421   5426   5431   5436
 CPLFLG7       1 00000D56 FFFFFFEC     R    5442  5446   5451   5456   5461   5466
 CPLFLG8       1 00000D57 FFFFFFEC     R    5472  5476   5481   5486   5491
 CPLFLG9       1 00000D58 FFFFFFEC     R    5497  5501   5506   5511   5516   5521   5526
 CPLOCALZ      1 00000C48 FFFFFFEC     U    4999  6160   6160
 CPMFLG        1 0000084F FFFFFFEC     R    4296  4300
 CPMODFLG      1 00000C78 FFFFFFEC     R    5027  5031   5036   5041   5046   5051
 CPNAMELN      1 00000010 FFFFFFEC A   U    3922  4169
 CPNEDPFX     10 00000E29 FFFFFFEC     X    5813  5814   5815
 CPNSCANP      4 0000008C FFFFFFEC     A    2582  7616   7623   7639   9828   9835   9851  14432  14719  15292  15793
                                                 15802  15809  15825  16600  16609  16616  16632  17230  17657  17791
                                                 17925  18463  18597  18732  18866  19122  19315  19579  19600  19609
                                                 19616  19632  19646  20001  20010  20017  20033  20268  20877  20886
                                                 20893  20909  21159  21237  21454  21475  21484  21491  21507  21521
                                                 21946  21955  21962  21978  22683  22692  22699  22715  23041  23062
                                                 23071  23078  23094  23108  24066  24075  24082  24098  25529  26270
                                                 26409  29386  29395  29402  29418  29610  29733
 CPNUMFLG      1 00000C79 FFFFFFEC     R    5057  5069
 CPORVCMD      1 00000140 FFFFFFEC     R    2591  2595   2600   2605   2610   2615   2620   2625   2630   2635   2635
                                                  2686   2686
 CPORVFLG      1 00000149 FFFFFFEC     R    2642  2646   2651   2656   2661   2666   2671   2676   2681
 CPORVWF       1 00000150 FFFFFFEC     R    2694  2698
 CPOSCANX      4 00000CA8 FFFFFFEC     F    5226  5293   5293
 CPR          11 0000000B 00000001 A   #    1100  1172U
 CPRACBAD     16 000001FC FFFFFFEC         2760  2794   2794   2795   2795
 CPRACF1       1 000001FC FFFFFFEC     R    2741  2745   2750   2755   2760   2765   2770   2775   2780   2796
 CPRACPSW     32 000001FC FFFFFFEC         2755  2793   2793   2795   2795
 CPRACUND     64 000001FC FFFFFFEC         2750  2793   2793   2794   2794
 CPRCVCUR      4 00000730 FFFFFFEC     A    4077  4079   4079
 CPRFLG        1 000008AA FFFFFFEC     R    4367  4371   4376   4381   4386   4391   4396
 CPS         254 00000344 FFFFFFEC     X    3511  3514   3515   3517   3517
 CPSACCT       5 000003B4 FFFFFFEC     C    3110  3273   3273  12331  23574
 CPSAM       139 00000A21 FFFFFFEC     X    4668 15061M 15061
 CPSAMALH      2 00000A9E FFFFFFEC     H    4662 11435M 11435  11487
 CPSAMALW      2 00000AA0 FFFFFFEC     H    4663 11535M 11535  11587
 CPSAMBUFF
               4 00000AA8 FFFFFFEC     F    4667  7608   7696M 10766  15064M 15325  15392M 16126  18179M 18371M 27923
                                                 28217  28585
 CPSAMCOD      1 00000A22 FFFFFFEC     R    4563  4571   4581   4591   4600   4609   4618   4628   4637   4646   7610
                                                  7698M 33651  33731  39950M
 CPSAMDV       2 00000AA4 FFFFFFEC     H    4665 10725  15063M 18118M 28932
 CPSAMFBADECHO
              64 00000A21 FFFFFFEC         4532 15856M 15931M 15956
 CPSAMFCKS
               2 00000A22 FFFFFFEC         4637 11111  15070M 16940M 19361M 34175  34909
 CPSAMFCMASK
               3 00000A22 FFFFFFEC         4618 16934M 19338M
 CPSAMFCRC
               1 00000A22 FFFFFFEC         4646 11144  19397M 19771M 20602M 21649M 22481M 23449M 29102M 34228  34942
1SAM      (SAM2193) (12:54) (15MAR04) Ordinary Symbol and Literal Cross Reference                                           Page  171
 CPSAMFDEBUG
              32 00000A21 FFFFFFEC         4537 40125
 CPSAMFDEF
             128 00000A21 FFFFFFEC         4527  7809M 15309  15323M
 CPSAMFEMASK
              12 00000A22 FFFFFFEC         4571 15997M 19145M
 CPSAMFHEX
               8 00000A22 FFFFFFEC         4600 11058  19240M 34853
 CPSAMFLG      1 00000A21 FFFFFFEC     R    4523  4527   4532   4537   4542   4547   4552   4557   4668   4668
 CPSAMFONT
              16 00000A73 FFFFFFEC     C    4655 10446  10451  10462M 10462  17002M 17002  17008M 17048M 17048  17062
                                                 17273  18604M 18610M 18656M 18739M 18790M 19455  19456
 CPSAMFPCK
               4 00000A22 FFFFFFEC         4609 11025  15985  19168M 19764M 20595M 21642M 22474M 23442M 29095M 34820
 CPSAMFUBUFFER
              16 00000A21 FFFFFFEC         4542  7720M 18364
 CPSAMFUCHECK
               2 00000A21 FFFFFFEC         4557  7798M 19326
 CPSAMFUENCODE
               4 00000A21 FFFFFFEC         4552  7772M 19133
 CPSAMFUTMOUT
               8 00000A21 FFFFFFEC         4547  7746M 15536  15699  18385
 CPSAMF7BIT
              12 00000A22 FFFFFFEC         4591 10992  16003M 19204M 34787
 CPSAMF8BIT
              12 00000A22 FFFFFFEC     ‚    4581 15973
 CPSAMHEI      2 00000A9A FFFFFFEC     H    4660 11235M 11235  11287  16837M 16837  16883M 18998M
 CPSAMLPR     24 00000A5B FFFFFFEC     C    4654 10580  10585  10596M 10596  16710M 16710  16757  16762  18873M 18924M
                                                 19457
 CPSAMOS      16 00000A43 FFFFFFEC     C    4652 10228  10233  10244M 10244  17798M 17849M 19450
 CPSAMPRO      2 00000A94 FFFFFFEC     H    4657 10685  15062M 15870  16918  18057M 19752  20583  21630  22462  23430
                                                 23682  26775  27800  29083  39926
 CPSAMSPD      2 00000AA2 FFFFFFEC     H    4664 10888M 10888  10956  18240M 35202M 35202
 CPSAMTMO      2 00000A98 FFFFFFEC     H    4659  7609   7697M 10794M 10794  10856  15526  15543M 15631M 15668M 15689
                                                 15706M 15735M 16669  16670M 16695M 18392M 34986
 CPSAMTRM      8 00000A53 FFFFFFEC     C    4653 10337  10342  10353M 10353  16952  16959M 18470M 18521M 19454
 CPSAMTYP     16 00000A23 FFFFFFEC     C    4650 10010  10015  10026M 10026  16814  16821M 16854  16900  16927M 16980
                                                 16986M 17664M 17715M 19449  39940
 CPSAMVER     16 00000A33 FFFFFFEC     C    4651 10119  10124  10135M 10135  16027  16047  16067  16087  16874  17932M
                                                 17983M 19451
 CPSAMWID      2 00000A9C FFFFFFEC     H    4661 11335M 11335  11387  19059M
 CPSCNFLG      1 00000CD0 FFFFFFEC     R    5239  5250   5259   5270
 CPSCNF2       1 00000CD1 FFFFFFEC     R    5275  5279
 CPSCNMAX      1 00000014 FFFFFFEC A   U    5291  5292
 CPSCRI        2 00000434 FFFFFFEC     H    3500  3505   3505
 CPSEG        60 00000050 FFFFFFEC     X    2580  9894   9912   9930   9955   9978   9997  10087  10106  10196  10215
                                                 10305  10324  10414  10433  10523  10548  10567  10657  10676  10697
                                                 10716  10737  10756  10778  10814  10847  10868  10908  10941  10969
                                                 11092  11178  11203  11260  11278  11299  11360  11378  11399  11460
                                                 11478  11499  11560  11578  11599  11677  11712  11746  11780  11819
                                                 11858  11880  11915  11937  12918  12976  13001  13063  13081  13105
                                                 13135  13165  13183  13213  13314  13333  13354  13372  13397  13651
                                                 13688  14332  14350  14679  14697  14757  22057  22096  23170  27351
                                                 27385  27407  27429  27459  27501  27663  27692  27710  29916  29995
                                                 30022  30040  30054  31683  31701  31728  31746  32023  32050  32127
                                                 32145  32591  32620  32673  32705  32869  32903  32925  32947  32977
                                                 33019  33351  33378  35048  35072  35234  35296  35310  35335M 35497
                                                 35520  35720  35794  37017  37604  38618  38642  38801M 40089  40107
                                                 40152  40182  40273  40295  40316  40334
1SAM      (SAM2193) (12:54) (15MAR04) Ordinary Symbol and Literal Cross Reference                                           Page  172
 CPSEGCOD      1 00000050 FFFFFFEC     R    2497  2506   2516   2526   2536   2546   2556   2566
 CPSEGLENF
               4 0000005C FFFFFFEC     A    2572 11637M 11637  11652  13611M 13611  13626  30075  35680M 35680  35695
                                                 40233M 40233  40248
 CPSEGLOC      4 00000070 FFFFFFEC     A    2576 30070
 CPSEGMRKF
               4 00000058 FFFFFFEC     A    2571 11652  13626  35695  40248
 CPSEGRTN      4 00000074 FFFFFFEC     A    2577 35077M 35525M 38647M
 CPSFL         1 00000384 FFFFFFEC     R    2848  2852   2857   2862   2867   2872
 CPSFLG        1 000003F8 FFFFFFEC     R    3388  3392   3397   3402   3407   3412   3417   3422   3427
 CPSFLG2       1 000003F9 FFFFFFEC     R    3433  3437   3442   3447
 CPSFL2        1 00000385 FFFFFFEC     R    2878  2882   2887   2892   2897
 CPSFL3        1 00000386 FFFFFFEC     R    2903  2907   2912   2917
 CPSFL4        1 00000387 FFFFFFEC     R    2923  2927   2932   2937
 CPSFL5        1 00000388 FFFFFFEC     R    2943  2947   2952   2957
 CPSFSAM      64 000003EA FFFFFFEC         3294  9875  14313  14660
 CPSFSAMFONT
             128 000003F9 FFFFFFEC         3437 17077  17092M 17118  17132M
 CPSFSPR      32 000003BE FFFFFFEC         3213 12861
 CPSKAFL       1 000003BF FFFFFFEC     R    3244  3248   3253   3258   3263   3268
 CPSKIFL       1 000003BE FFFFFFEC     R    3199  3203   3208   3213   3218   3223   3228   3233   3238
 CPSOF         1 000001F8 FFFFFFEC     X    2731  2733   2733
 CPSOFLAG      1 00000416 FFFFFFEC     R    3458  3462   3467   3472   3477   3482
 CPSOPST       4 000003C4 FFFFFFEC     F    3278  3507   3507
 CPSPORT       8 00000354 FFFFFFEC     C    2842  2962   2962
 CPSQFLG       1 000003EC FFFFFFEC     R    3307  3311
 CPSSFLG       1 000003BB FFFFFFEC     R    3117  3121   3126   3131   3136   3141   3146
 CPSSTART      4 00000344 FFFFFFEC     F    2834  2838   2838   3274   3274   3379   3379   3511   3511
 CPSSTAT       1 0000038F FFFFFFEC     R    3054  3058   3063   3068   3073   3078   3083   3088
 CPSTACF       1 000003BC FFFFFFEC     R    3152  3156   3161   3166   3171   3176   3181   3186   3191
 CPSTART       4 00000000 FFFFFFEC     C    2470  6164   6168
 CPSTFLAG      1 000003EA FFFFFFEC     R    3285  3289   3294   3299
 CPSTYPE       1 0000038C FFFFFFEC     R    2967  2976   2986   2996   3006   3016   3026   3036   3046
 CPSUFLG       1 000003EE FFFFFFEC     R    3322  3326   3331   3336   3341   3346   3351   3356   3361
 CPSUFLG2      1 000003EF FFFFFFEC     R    3367  3371   3376
 CPSVPGM       8 0000039C FFFFFFEC     C    3100  3106   3106
 CPS1ST        4 0000038C FFFFFFEC     F    2964  3509   3509
 CPTEMPP#      1 0000005F FFFFFFEC A   U    4417  4419
 CPTRM        14 00000C7A FFFFFFEC     X    5213 29842  29921  29928M 29928  30196M 34507  35079  35112M 35112  35336M
                                                 35526  35559M 35559  38514  38649  38656M 38656  38802M
 CPTRMFL1      1 00000C7A FFFFFFEC     R    5075  5079   5084   5089   5213   5213
 CPTRMFL2      1 00000C7B FFFFFFEC     R    5095  5099   5104   5109   5114   5119   5124
 CPTRMFL3      1 00000C7C FFFFFFEC     R    5130  5134   5139   5144   5149   5154   5159   5164
 CPTRMFL4      1 00000C7D FFFFFFEC     R    5170  5174   5179   5184   5189   5194   5199   5204
 CPTRMIN       2 00000C80 FFFFFFEC     H    5210 29961M
 CPUSED        1 00000FBC FFFFFFEC A   U    6164  6165
 CPVACURS      8 00000AF0 FFFFFFEC     D    4942  4943   4944
 CPVCURS       8 00000AE0 FFFFFFEC     D    4936  4937   4938
 CPVFLAG       1 00000AC8 FFFFFFEC     R    4737  4741   4746   4751   4756   4761
 CPVFLAG2      1 00000AC9 FFFFFFEC     R    4767  4771   4776   4781   4786   4791   4796
 CPVFLAG3      1 00000ACA FFFFFFEC     R    4802  4806   4811   4816   4821   4826   4831
 CPVFLAG4      1 00000ACB FFFFFFEC     R    4837  4841   4846   4851
 CPVLFLAG      1 00000ACE FFFFFFEC     R    4906  4910   4915   4920
 CPVMODE       1 00000ACC FFFFFFEC     R    4859  4863   4868   4873   4878   4883   4888   4893   4898
 CPVTWID       2 00000AD0 FFFFFFEC     H    4926  4929   4929
 CPWK1         4 00000D60 FFFFFFEC     F    5610  5625   5648
 CPWK2         4 00000D64 FFFFFFEC     F    5611  5626   5640
 CPWK3         4 00000D68 FFFFFFEC     F    5612  5627   5641
 CPWK4         4 00000D6C FFFFFFEC     F    5613  5628   5642
1SAM      (SAM2193) (12:54) (15MAR04) Ordinary Symbol and Literal Cross Reference                                           Page  173
 CPWK5         4 00000D70 FFFFFFEC     F    5614  5630   5635   5643
 CPWK6         4 00000D74 FFFFFFEC     F    5615  5631   5636   5644   5651   5653
 CPWK7         4 00000D78 FFFFFFEC     F    5616  5629   5645
 CPXFLAG       1 000007FD FFFFFFEC     R    4204  4208
 CPXSTATE      4 000007F8 FFFFFFEC     F    4198  4211   4211
 CRCTABLE      8 00007950 00000001     D   44158 44118
 CV         4016 00000000 FFFFFFEE     J    2373  1181U
 CVABORT       4 000007DA FFFFFFEE     I    2152 31751B 35239B 35435B 38805B
 CVABSRTN      4 0000088C FFFFFFEE     V    2187  2162
 CVABTMSG      4 000007CC FFFFFFEE     I    2147 14362B 14709B 27512B 27721B 32716B 33030B 35925B 37028B 37615B 40345B
 CVASCTBL      4 000008B0 FFFFFFEE     V    2195 15880  26479  42406  42613  42711  43158  43654
 CVBLANKS    235 000004D8 FFFFFFEE     C    1967 11217  11312  11412  11512  11612  11697  13120  17664  17798  17932
                                                 18470  18604  18739  18873  26287  27155  27444  28104  32962  35761
 CVBRMSK       1 00000751 FFFFFFEE     X    2103  2104   2105
 CVCFLAG       1 00000A00 FFFFFFEE     R    2268  2272   2277   2282   2287   2292
 CVCHKST       8 000009F0 FFFFFFEE     D    2258  2348   2348
 CVCHKST2      8 00000E28 FFFFFFEE     D    2351  2354   2354
 CVCOMRTN      4 0000087C FFFFFFEE     V    2183  2153
 CVCURJCB      4 000001C8 FFFFFFEE     A    1452 12306  14393  14801  26911  32797
 CVDBGFLG      1 000004CC FFFFFFEE     R    1957  1961
 CVEBCTBL      4 000008B4 FFFFFFEE     V    2196 13471  38082  38103
 CVEB7TBL      4 000008C0 FFFFFFEE     V    2199 37706  38065  39005  39457  40637  41068  41547
 CVENT         4 0000074C FFFFFFEE     I    2101  7560B  8234B  8307B  8375B  8448B  8520B  8605B  8690B  8769B  8854B
                                                  8939B  9024B  9103B  9172B  9238B  9305B  9372B  9438B  9504B  9571B
                                                  9637B  9704B  9805B 12144B 12459B 12831B 14283B 14630B 15034B 15241B
                                                 17634B 17768B 17902B 18036B 18097B 18158B 18219B 18440B 18574B 18709B
                                                 18843B 18977B 19038B 19099B 19292B 19499B 20245B 20403B 21136B 21214B
                                                 21370B 22306B 22965B 24410B 24477B 24545B 24620B 24693B 24760B 24827B
                                                 24897B 24971B 25045B 25111B 25208B 25506B 25642B 25708B 25777B 25844B
                                                 25910B 25977B 26052B 26118B 26185B 26386B 26636B 27058B 28381B 28868B
                                                 29587B 29710B 29874B 30356B 30884B 31029B 31815B 32335B 33109B 33535B
                                                 33852B 33966B 34079B 34537B 36051B 36728B 37443B 38545B 38913B 40027B
                                                 40517B 40819B 41314B 41737B 41846B 42202B 42972B 43409B 43633B 43770B
                                                 43948B 44057B 44254B
 CVENTBR       2 00000750 FFFFFFEE     I    2102  2103
 CVERRMSG      4 000007C8 FFFFFFEE     I    2146 14768B 23181B 23248B 23274B
 CVERROR       4 000007D6 FFFFFFEE     I    2151  2167B
 CVEXIRTN      4 0000077C FFFFFFEE     V    2131  2127
 CVEXNO        1 00000000 00000025     T   30249 30249  34346
 CVFCHRKBPR
               8 000004C9 FFFFFFEE         1872  1888   1888
 CVFCHRKBSE
               4 000004C9 FFFFFFEE         1877  1888   1888
 CVFCHRKCPR
               2 000004C9 FFFFFFEE         1894  1910   1910
 CVFCHRKCSE
               1 000004C9 FFFFFFEE         1899  1910   1910
 CVFCHRUBPR
             128 000004C9 FFFFFFEE         1828  1844   1844
 CVFCHRUBSE
              64 000004C9 FFFFFFEE         1833  1844   1844
 CVFCHRUCPR
              32 000004C9 FFFFFFEE         1850  1866   1866
 CVFCHRUCSE
              16 000004C9 FFFFFFEE         1855  1866   1866
 CVFL          1 000004C4 FFFFFFEE     R    1624  1628   1633   1638   1643   1648   1653   1658   1663
 CVFL2         1 000004C5 FFFFFFEE     R    1669  1673   1678   1683   1688   1693   1698   1703   1708
 CVFL3         1 000004C6 FFFFFFEE     R    1714  1718   1723   1728   1733   1738   1743   1748   1753
 CVFL4         1 000004C7 FFFFFFEE     R    1759  1763   1768   1773   1778   1783   1788   1793
1SAM      (SAM2193) (12:54) (15MAR04) Ordinary Symbol and Literal Cross Reference                                           Page  174
 CVFL5         1 000004C8 FFFFFFEE     R    1799  1803   1808   1813   1818
 CVFL6         1 000004C9 FFFFFFEE     R    1824  1828   1833   1845   1850   1855   1867   1872   1877   1889   1894
                                                  1899   1911
 CVHEAP#       1 00000200 FFFFFFEE A   U    1530  1531
 CVINVRTN      4 00000888 FFFFFFEE     V    2186  2156
 CVJESFLG      1 000004CA FFFFFFEE     R    1917  1921
 CVLNKRGS      4 00000780 FFFFFFEE     F    2133  2108M  2134  12507M 12611M 12698M 12754M 26705M 27114M 27141M 28437M
                                                 34610M 34688M 36107M 36801M 37516M 38609M 39842M 40884M 41211M 41379M
                                                 41665M 42107M 42267M 42871M 43037M 43307M
 CVLNKRTN      4 000007B0 FFFFFFEE     U    2134  2123M
 CVLOCK1       1 00000088 FFFFFFEE     R    1275  1279   1284
 CVLOCK2       1 00000089 FFFFFFEE     R    1289  1293
 CVLOCK3       1 0000008A FFFFFFEE     R    1298  1302
 CVLOCK4       1 0000008B FFFFFFEE     R    1307  1311
 CVLOGMOD      1 00000068 FFFFFFEE     R    1262  1266
 CVMACH        1 00000067 FFFFFFEE     R    1222  1226   1231   1236   1241   1246   1251   1256
 CVMILRTN      4 00000884 FFFFFFEE     V    2185  2165
 CVNEXT        4 000007DE FFFFFFEE     I    2153  7824B 11943B 13707B 14577B 14944B 35900B
 CVNOARTN      4 00000890 FFFFFFEE     V    2188  2159
 CVNWDATE      4 00000608 FFFFFFEE     F    1990  1994   1994
 CVNWMPG#      1 00000008 FFFFFFEE A   U    1992  1993
 CVNXTMSG      4 000007D0 FFFFFFEE     I    2148 12899B 13030B
 CVPFXRTN      1 00000000 00000000 A   T    2131  2131
 CVPGFLAG      1 00000A01 FFFFFFEE     R    2298  2302   2307   2312
 CVPIOSZ       1 00004F80 FFFFFFEE A   U    1361  1363
 CVPPDBQH      4 0000009C FFFFFFEE     A    1319  1320
 CVPSFNO       1 000003E9 FFFFFFEE A   N    1483  1485
 CVPSLNO       1 000007CF FFFFFFEE A   N    1484  1485
 CVPXSZ        1 00000008 FFFFFFEE A   U    1362  1363
 CVR          12 0000000C 00000001 A   #    1113  1181U
 CVRKEY        1 00000008 FFFFFFEE A   U    2056  2057
 CVSEGRTN      4 00000880 FFFFFFEE     V    2184  2148
 CVSTACK#      1 00000080 FFFFFFEE A   U    1522  1523
 CVSTART       4 00000000 FFFFFFEE     C    1195  2366
 CVTRC         4 00000768 FFFFFFEE     I    2123  2109B 12508B 12612B 12699B 12755B 26706B 27115B 27142B 28438B 34611B
                                                 34689B 36108B 36802B 37517B 38610B 39843B 40885B 41212B 41380B 41666B
                                                 42108B 42268B 42872B 43038B 43308B
 CVTRCRTN      4 00000778 FFFFFFEE     V    2130  2124
 CVUSFNO       1 00000001 FFFFFFEE A   N    1490  1492
 CVUSLNO       1 000003E7 FFFFFFEE A   N    1491  1492
 CVVOL#        1 00000005 FFFFFFEE A   U    2341  2342
 CVWTOFLG      1 000004CB FFFFFFEE     R    1927  1931   1936   1941   1946   1951
 CVXNTRC       2 000002B0 FFFFFFEE     H    1555 12363  12364M 12381  12775  12777M
 CVXTRC#       1 00000032 FFFFFFEE A   U    1553 13756
 CVXTRCP       4 000002AC FFFFFFEE     A    1554  9736  12214  12357M 12490  12647M 12787  12889M 12889  12926
 DEBUGSG       1 00000000 00000000 A   T    2084  2084
 DETAB         1 00000000 00000035     T   40413 40413
 DEV          12 00000000 FFFFFFEB     J    4722  4730
 DEVMAX#       1 00000002 FFFFFFEC A   U    4673  4730
 DEVTYPE       1 00000001 FFFFFFEB     R    4690  4699   4709
 DOTTBL        1 00000000 00000000 A   T    2200  2200
 DRENCFLG      1 00000F9F FFFFFFEC     R    6128  6132   6137   6142   6147   6152
 DRENPROT      1 00000F9E FFFFFFEC     R    6115  6123
 DSNFSTAT      8 00000F37 FFFFFFEC         5927 19815M 20646M 21693M 22525M 23534M
 DSNLCNT       4 00000F50 FFFFFFEC     F    6077 27339  32857
 DSNLTOT       4 00000F54 FFFFFFEC     F    6078 27366M 27366  27395  32884M 32884  32913
 DSNON        40 00000E90 FFFFFFEC     C    5848  5849
 DSNWADSN     44 00000E5C FFFFFFEC     C    5835  5836   5837   5838   5847   5855   6086   6092   6094   6100   6103
                                                  6105   6108   6157
1SAM      (SAM2193) (12:54) (15MAR04) Ordinary Symbol and Literal Cross Reference                                           Page  175
 DSNWAF4       1 00000F37 FFFFFFEC     R    5903  5907   5912   5917   5922   5927   5932   5937   5942
 DSNWAF5       1 00000F38 FFFFFFEC     R    5948  5952   5957   5962   5967   5972   5977   5982   5987
 DSNWAF6       1 00000F39 FFFFFFEC     R    5993  5997   6002   6007   6012   6017   6022   6027   6032
 DSNWAF7       1 00000F3A FFFFFFEC     R    6038  6042   6047   6052   6057
 DSNXG         1 00000004 FFFFFFEC A   U    5840  5842
 DSNXGL        1 00000003 FFFFFFEC A   U    5841  5842
 DSNXU         1 00000007 FFFFFFEC A   U    5842  5844
 DSNXUL        1 00000004 FFFFFFEC A   U    5843  5844
 DSSIZ         1 00000108 FFFFFFEC A   U    6086  6094   6103   6108
 DTRANS        2 00003CD0 00000001     H   24813 24299
 EBCDIC        2 00003D2C 00000001     H   24957 24329
 EBCTBL        1 00000000 00000000 A   T    2196  2196
 EBCTBL7       1 00000000 00000000 A   T    2199  2199
 ECBLIST       1 00000000 00000000 A   T    2059  2059
 EPARTBL       1 00000000 00000000 A   T    2191  2191
 FFFAPPD       4 00000001 FFFFFFE8         6702 23221
 FFFREPL       8 00000001 FFFFFFE8         6712 23209
 FFFWRITE      2 00000001 FFFFFFE8         6692 23197
 FFHOST      128 00000090 FFFFFFE8     C    6805 30323  30489
 FFHOSTL       4 0000008C FFFFFFE8     F    6804 30455M 30455  30462  30501  30545
 FFINFO      928 00000000 FFFFFFE8     J    6820 19528U 20437U 21399U 21529  22994U 30396U 30915U
 FFMISC        1 00000002 FFFFFFE8     R    6717  6721   6726   6731   6736   6741
 FFNAME      128 0000000C FFFFFFE8     C    6803 13921  30323  30430  30533  30623  30715
 FFNAMEL       4 00000008 FFFFFFE8     F    6802 23295M 23295  30402  30506  30546  30628  30720
 FFOPTS      256 00000114 FFFFFFE8     C    6807 19593  21468  23055
 FFOPTSL       4 00000110 FFFFFFE8     F    6806 19598  21473  23060
 FFPNAME     128 0000029C FFFFFFE8     C    6811 30689
 FFPNAMEL      4 00000298 FFFFFFE8     F    6810 30661
 FFPTYPE       1 00000003 FFFFFFE8     R    6746  6755   6765   6775   6785   6795
 FFRNAME     128 00000218 FFFFFFE8     C    6809 20328M 21297M 22900  25589M 26549  30430M 30596M 30689M 30801M 30962
                                                 34325
 FFRNAMEL      4 00000214 FFFFFFE8     F    6808 20301M 21270M 25562M 30403M 30569M 30662M 30773M 30934
 FFRQTYPE      1 00000001 FFFFFFE8     R    6673  6682   6692   6702   6712
 FFTYPE        1 00000000 FFFFFFE8     R    6619  6628   6638   6648   6658   6668
 FMT           2 00003C18 00000001     H   24531 24254
 FMTCLCK       1 00000000 00000019     T   17296 17296
 FMTTIME       1 00000000 0000000F     T   13746 13746
 FMTXDATE      1 00000000 0000001A     T   17297 17297
 FORMATL       1 00000000 00000031     T   34344 34344  40414
 FREEXTRC      2 00001156 00000001     H   12445 12019  12393B
 FSR           0 00000000 00000001 A   #    1023  7554   7844M  8229   8282M  8302   8350M  8370   8423M  8443   8495M
                                                  8515   8580M  8600   8665M  8685   8744M  8764   8829M  8849   8914M
                                                  8934   8999M  9019   9078M  9098   9147M  9167   9213M  9233   9280M
                                                  9300   9347M  9367   9413M  9433   9479M  9499   9546M  9566   9612M
                                                  9632   9679M  9699   9766M  9800  11958M 12139  12422M 12454  12802M
                                                 12826  13722M 14278  14593M 14625  14960M 15029  15085M 15235  17256M
                                                 17629  17743M 17763  17877M 17897  18011M 18031  18072M 18092  18133M
                                                 18153  18194M 18214  18415M 18435  18549M 18569  18684M 18704  18818M
                                                 18838  18952M 18972  19013M 19033  19074M 19094  19267M 19287  19424M
                                                 19494  20163M 20240  20356M 20398  21039M 21131  21188M 21209  21325M
                                                 21365  22220M 22301  22845M 22960  24184M 24405  24451M 24472  24519M
                                                 24540  24594M 24615  24667M 24688  24734M 24755  24801M 24822  24871M
                                                 24892  24945M 24966  25019M 25040  25086M 25106  25183M 25203  25279M
                                                 25501  25617M 25637  25683M 25703  25752M 25772  25819M 25839  25885M
                                                 25905  25952M 25972  26027M 26047  26093M 26113  26160M 26180  26361M
                                                 26381  26496M 26630  26992M 27021M 27053  28348M 28376  28800M 28862
                                                 29488M 29513M 29582  29684M 29705  29807M 29868  30198M 30218M 30350
                                                 30846M 30879  30999M 31024  31778M 31810  32279M 32299M 32330  33075M
                                                 33104  33504M 33530  33823M 33847  33936M 33961  34050M 34074  34300M
1SAM      (SAM2193) (12:54) (15MAR04) Ordinary Symbol and Literal Cross Reference                                           Page  176
                                                 36046  36511M 36531M 36722  37317M 37372M 37437  38375M 38400M 38539
                                                 38831M 38907  39992M 40022  40370M 40511  40731M 40751M 40813  41220M
                                                 41246M 41308  41674M 41700M 41840  42116M 42136M 42196  42881M 42906M
                                                 42966  43317M 43342M 43403  43577M 43597M 43628  43734M 43765  43870M
                                                 43943  44017M 44052  44147M 44249  44336M 44351M
 FXTRCOM       2 000011DA 00000001     H   12634 12566B 12584B
 GETDATA       1 00000000 0000001B     T   17298 17298
 GETHEAP       1 00000000 00000015     T   17279 17279  22882  26527  30256
 HEXCONV       1 00000000 00000037     T   43892 43892
 HIBAL         1 00000000 FFFFFFFF     J     702   718    731    744    757    770    783    796    809    822    835
                                                   848    861    874    887    900    913
 INDATA        2 00006D78 00000001     H   40501 40409
 INDHEX        2 00000008 FFFFFFD7     C   40486 40636M 40638M 40648
 INDPTRS       4 00000000 FFFFFFD7     A   40484 40548M 40716  40718M 40729
 INDWA        10 00000000 FFFFFFD7     J   40493 40514  40543U 40751  40753  40754
 INHEX         2 000070BC 00000001     H   41723 40408
 INLCOM        4 00006534 00000001     I   37929 37818B
 INLEXIT       4 00006630 00000001     I   38375 37860B
 INLFCONT    128 00000000 FFFFFFDA        37408 37900M 38361
 INLFIN        2 00006622 00000001     H   38349 38194B
 INLFLAG       1 00000000 FFFFFFDA     R   37404 37408
 INLINE        2 000063D6 00000001     H   37427 17287  22896  26544  30238  36570
 INLSEP        2 00000001 FFFFFFDA     C   37412 37705M 37707M 37719  37748  37762  37837
 INLWA         3 00000000 FFFFFFDA     J   37419 37440  37469U 37479M 37479  38400  38402  38403
 INPACK        2 00006E32 00000001     H   40803 40407
 INPEXIT       2 00006A48 00000001     H   39970 39060B 39086B 39112B 39145B 39176B 39204B 39236B 39280B 39325B 39371B
                                                 39381B 39410B 39449B 39528B 39556B 39696B 39777B 39965B
 INPFLAG       1 00000000 FFFFFFD8     R   38861 38874  38874
 INPFOPT       1 00000001 FFFFFFD8     R   38866 39285M 39576  39588  39643  39724  39818
 INPHDUP       4 0000000A FFFFFFD8     X   38871 39224
 INPHEAD      13 00000002 FFFFFFD8     X   38869 38870  38871  39004M 39006M 39018  39079  39105  39131  39164  39398
                                                 39416  40424  40446
 INPHOPT       4 00000006 FFFFFFD8     X   38870 39224  39251  39296  39798  39819
 INPINIT      23 00000000 FFFFFFD8     X   38874 38963M 38963
 INPRETRY      2 00006A56 00000001     H   40013 36565  39058B 39174B 39202B 39234B 39278B 39323B 39369B 39379B 39408B
                                                 39447B 39526B 39554B 39694B 39775B
 INPROC        2 00006728 00000001     H   38897 36566
 INPTRAIL      8 0000000F FFFFFFD8     X   38873 39456M 39458M 39470  39499  39663  39744
 INPWA        23 00000000 FFFFFFD8     J   38881 38910  38939U 39992  39994  39995
 INREADY       2 00006642 00000001     H   38529 36556
 INRYDONE      6 00006708 00000001     I   38801 38738B 38779B
 INRYSG       60 00000000 FFFFFFD9     X   38512 38618M 38801
 INRYSGCOD
               1 00000000 FFFFFFD9     R   38429 38438  38448  38458  38468  38478  38488  38498
 INRYSGRTN
               4 00000024 FFFFFFD9     A   38509 38647
 INRYTRM      14 0000003C FFFFFFD9     X   38514 38649M 38802
 INRYWA       74 00000000 FFFFFFD9     J   38521 38542  38571U 38831  38833  38834
 INTBUF       96 0000003E FFFFFFDB     C   36697 36819  36824
 INTEOF        4 000063BA 00000001     I   37326 36948B
 INTEOFC       2 0000003C FFFFFFDB     C   36696 37055M 37056M 37068
 INTEXIT       2 000063C8 00000001     H   37350 37322B
 INTEXT        2 00005FFC 00000001     H   36037 30240
 INTFLIN       4 00006380 00000001     I   37267 37340B
 INTRAN        2 000061DE 00000001     H   36712 30239
 INTSG        60 00000000 FFFFFFDB     X   36694 36832  36891
 INTSGCOD      1 00000000 FFFFFFDB     R   36611 36620  36630  36640  36650  36660  36670  36680
 INTSGLENF
               4 0000000C FFFFFFDB     A   36686 36855  36864  37268  37337M 37337
1SAM      (SAM2193) (12:54) (15MAR04) Ordinary Symbol and Literal Cross Reference                                           Page  177
 INTSGLOC      4 00000020 FFFFFFDB     A   36690 37267
 INTWA       158 00000000 FFFFFFDB     J   36704 36725  36754U 36764M 36764  37372  37374  37375
 INTXEXIT      4 00006116 00000001     I   36511 36140B
 INVALID       1 00000000 00000000 A   T    2186  2186
 INXBUF     2048 0000000A FFFFFFD6     C   40788 40914  40929
 INXFLAG       1 00000000 FFFFFFD6     R   40780 40786  40786
 INXHEX        2 00000008 FFFFFFD6     C   40785 40984M 40985M 41002  41016  41040  41069M 41079
 INXINIT      10 00000000 FFFFFFD6     X   40786 40899M 40899
 INXLOOP       2 00006E90 00000001     H   40936 41060B 41105B 41115B
 INXORIG       4 00000004 FFFFFFD6     A   40783 40900M 41187
 INXWA      2058 00000000 FFFFFFD6     J   40795 40816  40845U 41246  41248  41249
 IN7BIT        2 00006F8A 00000001     H   41298 40406
 IN7BUF     2048 0000000A FFFFFFD5     C   41283 41412  41427
 IN7FLAG       1 00000000 FFFFFFD5     R   41275 41281  41281
 IN7HEX        2 00000008 FFFFFFD5     C   41280 41546M 41548M 41558
 IN7INIT      10 00000000 FFFFFFD5     X   41281 41394M 41394
 IN7LOOP       2 00006FE8 00000001     H   41434 41538B 41584B 41594B
 IN7ORIG       4 00000004 FFFFFFD5     A   41278 41395M 41641
 IN7WA      2058 00000000 FFFFFFD5     J   41290 41311  41340U 41700  41702  41703
 JCB         208 00000000 FFFFFFE9     J    6589 12316U 14403U 14811U 26921U 32810U
 JCBAFL        1 00000062 FFFFFFE9     R    6434  6438   6443   6448   6453   6458   6463   6468   6473
 JCBBFL        1 00000063 FFFFFFE9     R    6479  6483   6488   6493   6498   6503   6508   6513
 JCBBILLX      8 00000088 FFFFFFE9     D    6564  6572   6572
 JCBFATTN      2 00000062 FFFFFFE9         6468 26930M 32824  32836M
 JCBRSCF1      1 00000064 FFFFFFE9     R    6519  6523   6528   6533
 JCBSEQ        2 00000048 FFFFFFE9     H    6350 12322
 JCBSFLG1      1 00000065 FFFFFFE9     R    6539  6543   6548
 JCBSFMIC     64 00000065 FFFFFFE9         6548 14414M 14822M
 JCBWFL        1 00000060 FFFFFFE9     R    6363  6367   6372   6377   6382   6387   6392   6397   6402   6430
 JCBWWFL       1 00000061 FFFFFFE9     R    6408  6412   6417   6422   6427
 LOCALTOD      1 00000000 0000000E     T   13738 13738  17295
 LOWTBL        1 00000000 00000000 A   T    2194  2194
 LRTRIM        1 00000000 0000000B     T   12023 12023  17299
 LSR           8 00000008 00000001 A   #    1061  7554   7844M  8229   8282M  8302   8350M  8370   8423M  8443   8495M
                                                  8515   8580M  8600   8665M  8685   8744M  8764   8829M  8849   8914M
                                                  8934   8999M  9019   9078M  9098   9147M  9167   9213M  9233   9280M
                                                  9300   9347M  9367   9413M  9433   9479M  9499   9546M  9566   9612M
                                                  9632   9679M  9699   9766M  9800  11958M 12139  12422M 12454  12802M
                                                 12826  13722M 14278  14593M 14625  14960M 15029  15085M 15235  17256M
                                                 17629  17743M 17763  17877M 17897  18011M 18031  18072M 18092  18133M
                                                 18153  18194M 18214  18415M 18435  18549M 18569  18684M 18704  18818M
                                                 18838  18952M 18972  19013M 19033  19074M 19094  19267M 19287  19424M
                                                 19494  20163M 20240  20356M 20398  21039M 21131  21188M 21209  21325M
                                                 21365  22220M 22301  22845M 22960  24184M 24405  24451M 24472  24519M
                                                 24540  24594M 24615  24667M 24688  24734M 24755  24801M 24822  24871M
                                                 24892  24945M 24966  25019M 25040  25086M 25106  25183M 25203  25279M
                                                 25501  25617M 25637  25683M 25703  25752M 25772  25819M 25839  25885M
                                                 25905  25952M 25972  26027M 26047  26093M 26113  26160M 26180  26361M
                                                 26381  26496M 26630  27021M 27053  28348M 28376  28800M 28862  29513M
                                                 29582  29684M 29705  29807M 29868  30218M 30350  30846M 30879  30999M
                                                 31024  31778M 31810  32299M 32330  33075M 33104  33504M 33530  33823M
                                                 33847  33936M 33961  34050M 34074  34300M 34531  36012M 36046  36531M
                                                 36722  37372M 37437  38400M 38539  38831M 38907  39992M 40022  40370M
                                                 40511  40751M 40813  41246M 41308  41700M 41732  41780M 41840  42136M
                                                 42196  42906M 42966  43342M 43403  43597M 43628  43734M 43765  43870M
                                                 43943  44017M 44052  44147M 44249  44351M
 MALL          1 00000000 00000004     T    8212  8212  11995  17613  20187  20223  21063  21114  22251  22272  22870
                                                 24388  25485  29565
 MARKHEAP      1 00000000 00000014     T   17278 17278  22881  26526  30254
1SAM      (SAM2193) (12:54) (15MAR04) Ordinary Symbol and Literal Cross Reference                                           Page  178
 MICRO         2 000015C4 00000001     H   14269 14265
 MILERR        1 00000000 00000000 A   T    2185  2185
 MIXFMT        1 00000000 00000011     T   13754 13754
 MKFFINFO      1 00000000 00000012     T   14987 14987
 MPARM         1 00000000 0000001F     T   17568 17568  17583
 MPINT         1 00000000 00000002     T    7867  7867   7927  17433  17448  17463  17538  17553  17598  24358  24373
 MTOKEN        1 00000000 00000003     T    7882  7882   7897   7912   7942   7957   7972   7987   8002   8017   8032
                                                  8047   8062   8077   8092   8107   8122   8137   8152   8167   8182
                                                  8197  11980  17358  17373  17388  17403  17418  17478  17493  17508
                                                 17523  20208  21084  21099  24208  24223  24238  24253  24268  24283
                                                 24298  24313  24328  24343  25305  25320  25335  25350  25365  25380
                                                 25395  25410  25425  25440  25455  25470  29535  29550
 NBLTBL        1 00000000 00000000 A   T    2198  2198
 NETREXIT      2 00005482 00000001     H   32277 31999B 32056B 32151B
 NOACTION      1 00000000 00000000 A   T    2188  2188
 NOTABS        2 00003BEC 00000001     H   24463 24224
 NOTVALID      1 00000000 00000005     T    8213  8213  11996  13744  20188  21064  22252  24389  26547
 NPARTBL       1 00000000 00000000 A   T    2192  2192
 NPATALLO      1 00000000 0000002A     T   34327 34327
 NPATCLS       1 00000000 00000033     T   34351 34351
 NPATCTRL      1 00000000 0000002E     T   34340 34340
 NPATOPEN      1 00000000 0000002B     T   34328 34328
 NPATREAD      1 00000000 0000002F     T   34341 34341
 NPATWAIT      1 00000000 0000002D     T   34337 34337
 NPATXRD       1 00000000 00000030     T   34342 34342
 NRESOLVE      1 00000000 00000021     T   22886 22886  26532
 NSCAN         1 00000000 00000006     T   12014 12014  17289  22884  26529  30262
 NSCNCB      176 00000000 FFFFFFED     J    2457  2583   7624   7625   7626   7629M  7630M  7632M  7642M  7643M  7644M
                                                  9836   9837   9838   9841M  9842M  9844M  9854M  9855M  9856M 14433
                                                 14434  14720  14721  15293  15295  15794M 15795M 15810  15811  15812
                                                 15815M 15816M 15818M 15828M 15829M 15830M 16601M 16602M 16617  16618
                                                 16619  16622M 16623M 16625M 16635M 16636M 16637M 17233  17322  17658
                                                 17659  17792  17793  17926  17927  18464  18465  18598  18599  18733
                                                 18734  18867  18868  19123  19316  19580  19582  19601M 19602M 19617
                                                 19618  19619  19622M 19623M 19625M 19635M 19636M 19637M 19649  20002M
                                                 20003M 20018  20019  20020  20023M 20024M 20026M 20036M 20037M 20038M
                                                 20269  20270  20878M 20879M 20894  20895  20896  20899M 20900M 20902M
                                                 20912M 20913M 20914M 21160  21161  21238  21239  21455  21457  21476M
                                                 21477M 21492  21493  21494  21497M 21498M 21500M 21510M 21511M 21512M
                                                 21524  21947M 21948M 21963  21964  21965  21968M 21969M 21971M 21981M
                                                 21982M 21983M 22684M 22685M 22700  22701  22702  22705M 22706M 22708M
                                                 22718M 22719M 22720M 22911  23042  23044  23063M 23064M 23079  23080
                                                 23081  23084M 23085M 23087M 23097M 23098M 23099M 23111  24067M 24068M
                                                 24083  24084  24085  24088M 24089M 24091M 24101M 24102M 24103M 25530
                                                 25531  26271  26272  26410  26411  26554  29387M 29388M 29403  29404
                                                 29405  29408M 29409M 29411M 29421M 29422M 29423M 29611  29612  29734
                                                 29735
 NSCNFLGS      1 00000008 FFFFFFED     R    2394  2398   2403
 NSCNKWS       4 00000028 FFFFFFED     A    2443  7624   7632M  7642M  9836   9844M  9854M 15810  15818M 15828M 16617
                                                 16625M 16635M 19617  19625M 19635M 20018  20026M 20036M 20894  20902M
                                                 20912M 21492  21500M 21510M 21963  21971M 21981M 22700  22708M 22718M
                                                 23079  23087M 23097M 24083  24091M 24101M 29403  29411M 29421M
 NSCNLEN       4 00000004 FFFFFFED     F    2391 14434  14721  15795M 16602M 17659  17793  17927  18465  18599  18734
                                                 18868  19602M 20003M 20270  20879M 21161  21239  21477M 21948M 22685M
                                                 23064M 24068M 25531  26272  26411  29388M 29612  29735
 NSCNLOC       4 00000000 FFFFFFED     A    2390 14433  14720  15794M 16601M 17658  17792  17926  18464  18598  18733
                                                 18867  19601M 20002M 20269  20878M 21160  21238  21476M 21947M 22684M
                                                 23063M 24067M 25530  26271  26410  29387M 29611  29734
 NSCNSKIP      4 00000024 FFFFFFED     A    2442  7625   7629M  7643M  9837   9841M  9855M 15811  15815M 15829M 16618
1SAM      (SAM2193) (12:54) (15MAR04) Ordinary Symbol and Literal Cross Reference                                           Page  179
                                                 16622M 16636M 19618  19622M 19636M 20019  20023M 20037M 20895  20899M
                                                 20913M 21493  21497M 21511M 21964  21968M 21982M 22701  22705M 22719M
                                                 23080  23084M 23098M 24084  24088M 24102M 29404  29408M 29422M
 NSCNSTOP      4 00000020 FFFFFFED     A    2441  7626   7630M  7644M  9838   9842M  9856M 15812  15816M 15830M 16619
                                                 16623M 16637M 19619  19623M 19637M 20020  20024M 20038M 20896  20900M
                                                 20914M 21494  21498M 21512M 21965  21969M 21983M 22702  22706M 22720M
                                                 23081  23085M 23099M 24085  24089M 24103M 29405  29409M 29423M
 NSCNTOK      16 00000030 FFFFFFED     C    2445 19123  19316
 NSCNTYPE      1 00000018 FFFFFFED     R    2412  2416   2421   2426   2431   2436
 OAPP          2 0000417E 00000001     H   26038 25426
 OASCII8       2 000040F6 00000001     H   25830 25366  25381
 ODTRAN        2 0000409E 00000001     H   25694 25336
 OFILE         2 00004014 00000001     H   25492 25306
 OIPADDR       2 000041D6 00000001     H   26171 25456
 OIPADONE      4 00004242 00000001     I   26346 26218B 26243B 26261B
 ONOAPP        2 000041AA 00000001     H   26104 25441
 ONOREP        2 0000414E 00000001     H   25963 25411
 ONOTRAN       2 000040CA 00000001     H   25763 25351
 OREP          2 00004122 00000001     H   25896 25396
 OSEED         2 00004254 00000001     H   26372 25471
 OTRAN         2 00004072 00000001     H   25628 25321
 OUTDATA       2 000070F0 00000001     H   41830 36553
 OUTDBUF    2048 0000000C FFFFFFD4     X   41815 41988  42068
 OUTDFLAG      1 00000000 FFFFFFD4     R   41809 41813  41813
 OUTDINIT     12 00000000 FFFFFFD4     X   41813 41882M 41882
 OUTDPTRS      4 00000004 FFFFFFD4     A   41812 41884M 42072  42074M 42085
 OUTDWA     2060 00000000 FFFFFFD4     J   41822 41843  41872U 42136  42138  42139
 OUTHBUF    2048 00000014 FFFFFFD1     X   43378 43460  43478
 OUTHEX        2 00007522 00000001     H   43393 36552
 OUTHFLAG      1 00000000 FFFFFFD1     R   43370 43374  43374
 OUTHINIT     12 00000000 FFFFFFD1     X   43374 43445M 43445
 OUTHPTRS      4 00000004 FFFFFFD1     A   43373 43449M 43570
 OUTHWA     2068 00000000 FFFFFFD1     J   43385 43406  43435U 43597  43599  43600
 OUTHWORK      8 0000000C FFFFFFD1     C   43376 43504  43511  43550
 OUTPACK       2 000071D6 00000001     H   42186 36551
 OUTTRAN       2 000075B6 00000001     H   43619 36549  43894
 OUTXBUF    2048 00000008 FFFFFFD3     X   42171 42297  42312
 OUTXDONE      4 000073B8 00000001     I   42847 42625B
 OUTXFLAG      1 00000000 FFFFFFD3     R   42165 42169  42169
 OUTXINIT      8 00000000 FFFFFFD3     X   42169 42282M 42282
 OUTXLOOP      2 0000723C 00000001     H   42338 42412B 42482B 42492B 42619B 42839B
 OUTXORIG      4 00000004 FFFFFFD3     A   42168 42283M 42847
 OUTXWA     2056 00000000 FFFFFFD3     J   42178 42199  42228U 42906  42908  42909
 OUTX8BIT      4 00007316 00000001     I   42629 42533B 42552B 42571B
 OUTX8LP       2 00007326 00000001     H   42643 42326B 42717B 42746B 42765B 42784B 42803B 42822B
 OUT7BIT       2 000073F2 00000001     H   42956 36550
 OUT7BUF    2048 00000008 FFFFFFD2     X   42941 43067  43082
 OUT7FLAG      1 00000000 FFFFFFD2     R   42935 42939  42939
 OUT7INIT      8 00000000 FFFFFFD2     X   42939 43052M 43052
 OUT7LOOP      2 00007450 00000001     H   43089 43164B
 OUT7ORIG      4 00000004 FFFFFFD2     A   42938 43053M 43283
 OUT7WA     2056 00000000 FFFFFFD2     J   42948 42969  42998U 43342  43344  43345
 PBUF          2 000024DC 00000001     H   18144 17449
 PCHARSET      2 000025EC 00000001     H   18560 17404
 PCHECK        2 000027DA 00000001     H   19278 17584
 PDIALOG       2 000024B0 00000001     H   18083 17599
 PENCODE       2 0000276A 00000001     H   19085 17569
 PFONT         2 00002652 00000001     H   18695 17419
 PHEIGHT       2 00002712 00000001     H   18963 17539
1SAM      (SAM2193) (12:54) (15MAR04) Ordinary Symbol and Literal Cross Reference                                           Page  180
 POS           2 000023C4 00000001     H   17754 17389
 PPRINT        2 000026B2 00000001     H   18829 17524
 PPROTO        2 00002484 00000001     H   18022 17434
 PSPEED        2 00002508 00000001     H   18205 17464
 PTERM         2 0000258C 00000001     H   18426 17494  17509
 PTYPE         2 00002364 00000001     H   17620 17359  17374
 PVERSION      2 00002424 00000001     H   17888 17479
 PWIDTH        2 0000273E 00000001     H   19024 17554
 RAR          14 0000000E 00000001 A   #    1139  2123   2124M  2125B  2127M  2128B  2148M  2149B  2153M  2154B  2156M
                                                  2157B  2159M  2160B  2162M  2163B  2165M  2166M  2166B  2172   7551
                                                  7635M  7636M  7636B  7649M  7650M  7650B  7672M  7673M  7673B  7817M
                                                  7818M  7818B  7846M  7849B  8226   8284M  8287B  8299   8334M  8335M
                                                  8335B  8352M  8355B  8367   8425M  8428B  8440   8497M  8500B  8512
                                                  8582M  8585B  8597   8667M  8670B  8682   8746M  8749B  8761   8831M
                                                  8834B  8846   8916M  8919B  8931   9001M  9004B  9016   9080M  9083B
                                                  9095   9149M  9152B  9164   9215M  9218B  9230   9282M  9285B  9297
                                                  9349M  9352B  9364   9415M  9418B  9430   9481M  9484B  9496   9548M
                                                  9551B  9563   9614M  9617B  9629   9681M  9684B  9696   9745M  9746M
                                                  9746B  9768M  9771B  9797   9847M  9848M  9848B  9861M  9862M  9862B
                                                  9897M  9898M  9898B  9915M  9916M  9916B  9933M  9934M  9934B  9958M
                                                  9959M  9959B  9981M  9982M  9982B 10000M 10001M 10001B 10043M 10044M
                                                 10044B 10090M 10091M 10091B 10109M 10110M 10110B 10152M 10153M 10153B
                                                 10199M 10200M 10200B 10218M 10219M 10219B 10261M 10262M 10262B 10308M
                                                 10309M 10309B 10327M 10328M 10328B 10370M 10371M 10371B 10417M 10418M
                                                 10418B 10436M 10437M 10437B 10479M 10480M 10480B 10526M 10527M 10527B
                                                 10551M 10552M 10552B 10570M 10571M 10571B 10613M 10614M 10614B 10660M
                                                 10661M 10661B 10679M 10680M 10680B 10700M 10701M 10701B 10719M 10720M
                                                 10720B 10740M 10741M 10741B 10759M 10760M 10760B 10781M 10782M 10782B
                                                 10817M 10818M 10818B 10850M 10851M 10851B 10871M 10872M 10872B 10911M
                                                 10912M 10912B 10944M 10945M 10945B 10972M 10973M 10973B 11095M 11096M
                                                 11096B 11181M 11182M 11182B 11206M 11207M 11207B 11263M 11264M 11264B
                                                 11281M 11282M 11282B 11302M 11303M 11303B 11363M 11364M 11364B 11381M
                                                 11382M 11382B 11402M 11403M 11403B 11463M 11464M 11464B 11481M 11482M
                                                 11482B 11502M 11503M 11503B 11563M 11564M 11564B 11581M 11582M 11582B
                                                 11602M 11603M 11603B 11680M 11681M 11681B 11715M 11716M 11716B 11749M
                                                 11750M 11750B 11783M 11784M 11784B 11822M 11823M 11823B 11861M 11862M
                                                 11862B 11883M 11884M 11884B 11918M 11919M 11919B 11940M 11941M 11941B
                                                 11960M 11963B 12136  12217M 12218M 12218B 12393M 12424M 12427B 12451
                                                 12804M 12807B 12823  12870M 12871M 12871B 12921M 12922M 12922B 12979M
                                                 12980M 12980B 13004M 13005M 13005B 13042M 13043M 13043B 13066M 13067M
                                                 13067B 13084M 13085M 13085B 13108M 13109M 13109B 13138M 13139M 13139B
                                                 13168M 13169M 13169B 13186M 13187M 13187B 13216M 13217M 13217B 13317M
                                                 13318M 13318B 13336M 13337M 13337B 13357M 13358M 13358B 13375M 13376M
                                                 13376B 13400M 13401M 13401B 13596M 13597M 13597B 13654M 13655M 13655B
                                                 13691M 13692M 13692B 13724M 13727B 14275  14335M 14336M 14336B 14353M
                                                 14354M 14354B 14371M 14372M 14372B 14378M 14379M 14379B 14427M 14428M
                                                 14428B 14441M 14442M 14442B 14484M 14485M 14485B 14511M 14512M 14512B
                                                 14516M 14517M 14517B 14540M 14541M 14541B 14546M 14547M 14547B 14550M
                                                 14551M 14551B 14574M 14575M 14575B 14595M 14598B 14622  14682M 14683M
                                                 14683B 14700M 14701M 14701B 14728M 14729M 14729B 14760M 14761M 14761B
                                                 14779M 14780M 14780B 14786M 14787M 14787B 14835M 14836M 14836B 14852M
                                                 14853M 14853B 14878M 14879M 14879B 14883M 14884M 14884B 14907M 14908M
                                                 14908B 14913M 14914M 14914B 14917M 14918M 14918B 14941M 14942M 14942B
                                                 14962M 14965B 15026  15087M 15090B 15232  15396M 15397M 15397B 15403M
                                                 15404M 15404B 15433M 15434M 15434B 15462M 15463M 15463B 15477M 15478M
                                                 15478B 15504M 15505M 15505B 15514M 15515M 15515B 15518M 15519M 15519B
                                                 15570M 15571M 15571B 15594M 15595M 15595B 15600M 15601M 15601B 15604M
                                                 15605M 15605B 15628M 15629M 15629B 15682M 15683M 15683B 15686M 15687M
                                                 15687B 15733M 15734M 15734B 15763M 15764M 15764B 15821M 15822M 15822B
1SAM      (SAM2193) (12:54) (15MAR04) Ordinary Symbol and Literal Cross Reference                                           Page  181
                                                 15900M 15901M 15901B 16100M 16101M 16101B 16120M 16121M 16121B 16141M
                                                 16142M 16142B 16145M 16146M 16146B 16166M 16167M 16167B 16171M 16172M
                                                 16172B 16189M 16190M 16190B 16218M 16219M 16219B 16235M 16236M 16236B
                                                 16264M 16265M 16265B 16281M 16282M 16282B 16310M 16311M 16311B 16327M
                                                 16328M 16328B 16356M 16357M 16357B 16373M 16374M 16374B 16402M 16403M
                                                 16403B 16419M 16420M 16420B 16448M 16449M 16449B 16466M 16467M 16467B
                                                 16470M 16471M 16471B 16475M 16476M 16476B 16504M 16505M 16505B 16508M
                                                 16509M 16509B 16517M 16518M 16518B 16541M 16542M 16542B 16570M 16571M
                                                 16571B 16628M 16629M 16629B 16662M 16663M 16663B 16666M 16667M 16667B
                                                 16693M 16694M 16694B 16723M 16724M 16724B 16765M 16766M 16766B 16787M
                                                 16788M 16788B 17140M 17141M 17141B 17185M 17186M 17186B 17207M 17208M
                                                 17208B 17258M 17261B 17626  17667M 17668M 17668B 17745M 17748B 17760
                                                 17801M 17802M 17802B 17879M 17882B 17894  17935M 17936M 17936B 18013M
                                                 18016B 18028  18074M 18077B 18089  18135M 18138B 18150  18196M 18199B
                                                 18211  18417M 18420B 18432  18473M 18474M 18474B 18551M 18554B 18566
                                                 18607M 18608M 18608B 18686M 18689B 18701  18742M 18743M 18743B 18820M
                                                 18823B 18835  18876M 18877M 18877B 18954M 18957B 18969  19015M 19018B
                                                 19030  19076M 19079B 19091  19269M 19272B 19284  19426M 19429B 19491
                                                 19535M 19536M 19536B 19542M 19543M 19543B 19572M 19573M 19573B 19628M
                                                 19629M 19629B 19642M 19643M 19643B 19654M 19655M 19655B 19660M 19661M
                                                 19661B 19688M 19689M 19689B 19703M 19704M 19704B 19730M 19731M 19731B
                                                 19779M 19780M 19780B 19783M 19784M 19784B 19807M 19808M 19808B 19822M
                                                 19823M 19823B 19841M 19842M 19842B 19868M 19869M 19869B 19873M 19874M
                                                 19874B 19878M 19879M 19879B 19908M 19909M 19909B 19971M 19972M 19972B
                                                 20029M 20030M 20030B 20059M 20060M 20060B 20063M 20064M 20064B 20087M
                                                 20088M 20088B 20112M 20113M 20113B 20134M 20135M 20135B 20165M 20168B
                                                 20237  20277M 20278M 20278B 20358M 20361B 20395  20444M 20445M 20445B
                                                 20451M 20452M 20452B 20481M 20482M 20482B 20519M 20520M 20520B 20534M
                                                 20535M 20535B 20561M 20562M 20562B 20610M 20611M 20611B 20614M 20615M
                                                 20615B 20638M 20639M 20639B 20653M 20654M 20654B 20672M 20673M 20673B
                                                 20697M 20698M 20698B 20701M 20702M 20702B 20719M 20720M 20720B 20744M
                                                 20745M 20745B 20749M 20750M 20750B 20754M 20755M 20755B 20784M 20785M
                                                 20785B 20847M 20848M 20848B 20905M 20906M 20906B 20935M 20936M 20936B
                                                 20939M 20940M 20940B 20963M 20964M 20964B 20988M 20989M 20989B 21010M
                                                 21011M 21011B 21041M 21044B 21128  21168M 21169M 21169B 21190M 21193B
                                                 21206  21246M 21247M 21247B 21327M 21330B 21362  21408M 21409M 21409B
                                                 21415M 21416M 21416B 21445M 21446M 21446B 21503M 21504M 21504B 21517M
                                                 21518M 21518B 21532M 21533M 21533B 21537M 21538M 21538B 21566M 21567M
                                                 21567B 21581M 21582M 21582B 21608M 21609M 21609B 21657M 21658M 21658B
                                                 21661M 21662M 21662B 21685M 21686M 21686B 21700M 21701M 21701B 21719M
                                                 21720M 21720B 21746M 21747M 21747B 21767M 21768M 21768B 21784M 21785M
                                                 21785B 21809M 21810M 21810B 21818M 21819M 21819B 21823M 21824M 21824B
                                                 21853M 21854M 21854B 21916M 21917M 21917B 21974M 21975M 21975B 22011M
                                                 22012M 22012B 22060M 22061M 22061B 22099M 22100M 22100B 22116M 22117M
                                                 22117B 22120M 22121M 22121B 22144M 22145M 22145B 22169M 22170M 22170B
                                                 22191M 22192M 22192B 22222M 22225B 22298  22332M 22333M 22333B 22339M
                                                 22340M 22340B 22369M 22370M 22370B 22398M 22399M 22399B 22413M 22414M
                                                 22414B 22440M 22441M 22441B 22489M 22490M 22490B 22493M 22494M 22494B
                                                 22517M 22518M 22518B 22532M 22533M 22533B 22551M 22552M 22552B 22556M
                                                 22557M 22557B 22561M 22562M 22562B 22591M 22592M 22592B 22653M 22654M
                                                 22654B 22711M 22712M 22712B 22741M 22742M 22742B 22745M 22746M 22746B
                                                 22769M 22770M 22770B 22794M 22795M 22795B 22816M 22817M 22817B 22847M
                                                 22850B 22957  23001M 23002M 23002B 23008M 23009M 23009B 23034M 23035M
                                                 23035B 23090M 23091M 23091B 23104M 23105M 23105B 23173M 23174M 23174B
                                                 23304M 23305M 23305B 23309M 23310M 23310B 23341M 23342M 23342B 23356M
                                                 23357M 23357B 23383M 23384M 23384B 23457M 23458M 23458B 23461M 23462M
                                                 23462B 23485M 23486M 23486B 23618M 23619M 23619B 23637M 23638M 23638B
                                                 23664M 23665M 23665B 23690M 23691M 23691B 23741M 23742M 23742B 23761M
                                                 23762M 23762B 23786M 23787M 23787B 23803M 23804M 23804B 23827M 23828M
1SAM      (SAM2193) (12:54) (15MAR04) Ordinary Symbol and Literal Cross Reference                                           Page  182
                                                 23828B 23844M 23845M 23845B 23870M 23871M 23871B 23887M 23888M 23888B
                                                 23912M 23913M 23913B 23929M 23930M 23930B 23938M 23939M 23939B 23943M
                                                 23944M 23944B 23973M 23974M 23974B 24036M 24037M 24037B 24094M 24095M
                                                 24095B 24147M 24148M 24148B 24186M 24189B 24402  24453M 24456B 24469
                                                 24521M 24524B 24537  24596M 24599B 24612  24669M 24672B 24685  24736M
                                                 24739B 24752  24803M 24806B 24819  24873M 24876B 24889  24947M 24950B
                                                 24963  25021M 25024B 25037  25088M 25091B 25103  25151M 25152M 25152B
                                                 25185M 25188B 25200  25248M 25249M 25249B 25281M 25284B 25498  25538M
                                                 25539M 25539B 25619M 25622B 25634  25685M 25688B 25700  25754M 25757B
                                                 25769  25821M 25824B 25836  25887M 25890B 25902  25954M 25957B 25969
                                                 26029M 26032B 26044  26095M 26098B 26110  26162M 26165B 26177  26279M
                                                 26280M 26280B 26363M 26366B 26378  26418M 26419M 26419B 26498M 26501B
                                                 26627  26732M 26783M 26784M 26784B 26824M 26825M 26825B 26868M 26869M
                                                 26869B 27023M 27026B 27050  27260M 27261M 27261B 27288M 27354M 27355M
                                                 27355B 27388M 27389M 27389B 27410M 27411M 27411B 27432M 27433M 27433B
                                                 27462M 27463M 27463B 27471M 27472M 27472B 27504M 27505M 27505B 27539M
                                                 27540M 27540B 27666M 27667M 27667B 27671M 27672M 27672B 27695M 27696M
                                                 27696B 27713M 27714M 27714B 27776M 27777M 27777B 27829M 27830M 27830B
                                                 27852M 27853M 27853B 27902M 27903M 27903B 27931M 27932M 27932B 27955M
                                                 27956M 27956B 27959M 27960M 27960B 28122M 28123M 28123B 28182M 28183M
                                                 28183B 28225M 28226M 28226B 28249M 28250M 28250B 28253M 28254M 28254B
                                                 28289M 28290M 28290B 28350M 28353B 28373  28464M 28553M 28554M 28554B
                                                 28593M 28594M 28594B 28617M 28618M 28618B 28647M 28648M 28648B 28656M
                                                 28657M 28657B 28661M 28662M 28662B 28685M 28686M 28686B 28709M 28710M
                                                 28710B 28713M 28714M 28714B 28737M 28738M 28738B 28752M 28753M 28753B
                                                 28774M 28775M 28775B 28802M 28805B 28859  28953M 28954M 28954B 28960M
                                                 28961M 28961B 28990M 28991M 28991B 29019M 29020M 29020B 29034M 29035M
                                                 29035B 29061M 29062M 29062B 29110M 29111M 29111B 29128M 29129M 29129B
                                                 29152M 29153M 29153B 29156M 29157M 29157B 29174M 29175M 29175B 29198M
                                                 29199M 29199B 29202M 29203M 29203B 29220M 29221M 29221B 29244M 29245M
                                                 29245B 29248M 29249M 29249B 29266M 29267M 29267B 29290M 29291M 29291B
                                                 29294M 29295M 29295B 29299M 29300M 29300B 29303M 29304M 29304B 29327M
                                                 29328M 29328B 29356M 29357M 29357B 29414M 29415M 29415B 29515M 29518B
                                                 29579  29619M 29620M 29620B 29686M 29689B 29702  29742M 29743M 29743B
                                                 29809M 29812B 29865  29919M 29920M 29920B 29998M 29999M 29999B 30025M
                                                 30026M 30026B 30043M 30044M 30044B 30057M 30058M 30058B 30078M 30079M
                                                 30079B 30098M 30099M 30099B 30108M 30109M 30109B 30220M 30223B 30347
                                                 30848M 30851B 30876  31001M 31004B 31021  31071M 31072M 31072B 31080M
                                                 31081M 31081B 31103M 31104M 31104B 31148M 31149M 31149B 31155M 31156M
                                                 31156B 31310M 31311M 31311B 31327M 31328M 31328B 31353M 31354M 31354B
                                                 31370M 31371M 31371B 31396M 31397M 31397B 31413M 31414M 31414B 31439M
                                                 31440M 31440B 31456M 31457M 31457B 31482M 31483M 31483B 31499M 31500M
                                                 31500B 31520M 31521M 31521B 31541M 31542M 31542B 31558M 31559M 31559B
                                                 31567M 31568M 31568B 31572M 31573M 31573B 31602M 31603M 31603B 31646M
                                                 31647M 31647B 31686M 31687M 31687B 31704M 31705M 31705B 31731M 31732M
                                                 31732B 31749M 31750M 31750B 31780M 31783B 31807  31889M 31890M 31890B
                                                 31939M 31956M 31961M 31961B 32026M 32027M 32027B 32053M 32054M 32054B
                                                 32130M 32131M 32131B 32148M 32149M 32149B 32259M 32260M 32260B 32301M
                                                 32304B 32327  32423M 32424M 32424B 32480M 32481M 32481B 32497M 32498M
                                                 32498B 32594M 32595M 32595B 32599M 32600M 32600B 32623M 32624M 32624B
                                                 32676M 32677M 32677B 32708M 32709M 32709B 32743M 32744M 32744B 32781M
                                                 32782M 32782B 32872M 32873M 32873B 32906M 32907M 32907B 32928M 32929M
                                                 32929B 32950M 32951M 32951B 32980M 32981M 32981B 32989M 32990M 32990B
                                                 33022M 33023M 33023B 33077M 33080B 33101  33183M 33184M 33184B 33262M
                                                 33263M 33263B 33283M 33284M 33284B 33290M 33291M 33291B 33322M 33323M
                                                 33323B 33354M 33355M 33355B 33381M 33382M 33382B 33397M 33398M 33398B
                                                 33437M 33438M 33438B 33441M 33442M 33442B 33445M 33446M 33446B 33469M
                                                 33470M 33470B 33506M 33509B 33527  33582M 33583M 33583B 33600M 33601M
                                                 33601B 33617M 33618M 33618B 33641M 33642M 33642B 33670M 33671M 33671B
1SAM      (SAM2193) (12:54) (15MAR04) Ordinary Symbol and Literal Cross Reference                                           Page  183
                                                 33697M 33698M 33698B 33721M 33722M 33722B 33750M 33751M 33751B 33777M
                                                 33778M 33778B 33795M 33796M 33796B 33825M 33828B 33844  33908M 33909M
                                                 33909B 33938M 33941B 33958  34022M 34023M 34023B 34052M 34055B 34071
                                                 34137M 34138M 34138B 34162M 34163M 34163B 34204M 34205M 34205B 34257M
                                                 34258M 34258B 34279M 34280M 34280B 34302M 34305B 34528  34739M 34740M
                                                 34740B 34796M 34797M 34797B 34829M 34830M 34830B 34862M 34863M 34863B
                                                 34882M 34883M 34883B 34918M 34919M 34919B 34951M 34952M 34952B 35019M
                                                 35020M 35020B 35043M 35044M 35044B 35075M 35076M 35076B 35237M 35238M
                                                 35238B 35299M 35300M 35300B 35313M 35314M 35314B 35332M 35333M 35333B
                                                 35422M 35423M 35423B 35451M 35452M 35452B 35523M 35524M 35524B 35723M
                                                 35724M 35724B 35735M 35736M 35736B 35797M 35798M 35798B 35815M 35816M
                                                 35816B 35917M 35918M 35918B 36014M 36017B 36043  36138M 36139M 36139B
                                                 36165M 36166M 36166B 36209M 36210M 36210B 36233M 36234M 36234B 36533M
                                                 36536B 36719  36835M 36836M 36836B 36894M 36895M 36895B 36957M 36958M
                                                 36958B 36961M 36962M 36962B 36985M 36986M 36986B 37020M 37021M 37021B
                                                 37161M 37162M 37162B 37194M 37195M 37195B 37227M 37228M 37228B 37247M
                                                 37248M 37248B 37309M 37310M 37310B 37374M 37377B 37434  37545M 37546M
                                                 37546B 37549M 37550M 37550B 37573M 37574M 37574B 37607M 37608M 37608B
                                                 37966M 37967M 37967B 37999M 38000M 38000B 38032M 38033M 38033B 38052M
                                                 38053M 38053B 38245M 38246M 38246B 38340M 38341M 38341B 38402M 38405B
                                                 38536  38645M 38646M 38646B 38725M 38726M 38726B 38788M 38789M 38789B
                                                 38833M 38836B 38904  38980M 38981M 38981B 39058M 39174M 39202M 39234M
                                                 39261M 39262M 39262B 39278M 39306M 39307M 39307B 39323M 39369M 39379M
                                                 39408M 39447M 39509M 39510M 39510B 39526M 39554M 39608M 39609M 39609B
                                                 39651M 39652M 39652B 39673M 39674M 39674B 39694M 39732M 39733M 39733B
                                                 39754M 39755M 39755B 39775M 39808M 39809M 39809B 39994M 39997B 40019
                                                 40092M 40093M 40093B 40110M 40111M 40111B 40155M 40156M 40156B 40185M
                                                 40186M 40186B 40276M 40277M 40277B 40298M 40299M 40299B 40319M 40320M
                                                 40320B 40337M 40338M 40338B 40372M 40375B 40508  40658M 40659M 40659B
                                                 40753M 40756B 40810  41089M 41090M 41090B 41248M 41251B 41305  41568M
                                                 41569M 41569B 41702M 41705B 41729  41760M 41761M 41761B 41764M 41765M
                                                 41765B 41782M 41785B 41837  42026M 42027M 42027B 42046M 42047M 42047B
                                                 42138M 42141B 42193  42404M 42405M 42405B 42611M 42612M 42612B 42709M
                                                 42710M 42710B 42908M 42911B 42963  43156M 43157M 43157B 43344M 43347B
                                                 43400  43514M 43515M 43515B 43574M 43575M 43575B 43599M 43602B 43625
                                                 43736M 43739B 43762  43872M 43875B 43940  44019M 44022B 44049  44149M
                                                 44152B 44246  44333M 44334M 44334B 44353M 44356B
 RELHEAP       1 00000000 0000001E     T   17303 17303  22898  30255
 RFILE         2 00002F04 00000001     H   21122 21085
 RNEWFILE      2 00002F44 00000001     H   21200 21100
 RTRIM         1 00000000 00000039     T   44368 44368
 R0            0 00000000 FFFFFFFF A   #     710  2108   2177M  7620M  7620   7629   7630   7813M  7813   8261   8331M
                                                  8331   8402   9832M  9832   9841   9842   9886M  9904M  9922M  9947M
                                                  9947   9970M  9989M 10015M 10036M 10036  10053M 10053  10063M 10098M
                                                 10124M 10145M 10145  10162M 10162  10172M 10207M 10233M 10254M 10254
                                                 10271M 10271  10281M 10316M 10342M 10363M 10363  10380M 10380  10390M
                                                 10425M 10451M 10472M 10472  10489M 10489  10499M 10540M 10540  10559M
                                                 10585M 10606M 10606  10623M 10623  10633M 10668M 10689M 10689  10708M
                                                 10729M 10729  10748M 10770M 10770  10806M 10839M 10860M 10860  10900M
                                                 10933M 10961M 10961  10982M 11002M 11035M 11068M 11101M 11121M 11154M
                                                 11195M 11195  11224M 11270M 11291M 11291  11319M 11370M 11391M 11391
                                                 11419M 11470M 11491M 11491  11519M 11570M 11591M 11591  11619M 11669M
                                                 11669  11704M 11738M 11772M 11811M 11850M 11872M 11907M 11929M 12185
                                                 12187M 12219  12351M 12352M 12353M 12507  12611  12698  12754  12766M
                                                 12767M 12898M 12910M 12968M 12993M 12993  13029M 13036M 13073M 13097M
                                                 13127M 13157M 13175M 13205M 13222M 13242M 13266M 13290M 13325M 13346M
                                                 13346  13364M 13389M 13389  13445M 13446M 13447M 13593M 13643M 13643
                                                 13680M 13680  14324M 14342M 14361M 14434M 14451M 14451  14461M 14467
                                                 14468  14468  14468  14473M 14488M 14529M 14529  14563M 14563  14671M
1SAM      (SAM2193) (12:54) (15MAR04) Ordinary Symbol and Literal Cross Reference                                           Page  184
                                                 14689M 14708M 14721M 14738M 14738  14749M 14767M 14774  14841M 14867M
                                                 14896M 14896  14930M 14930  14997  14997  14997  15289  15400M 15451M
                                                 15466M 15482M 15559M 15559  15617M 15617  15722M 15722  15795  15806M
                                                 15806  15815  15816  15897M 16109M 16130M 16130  16178M 16207M 16224M
                                                 16253M 16270M 16299M 16316M 16345M 16362M 16391M 16408M 16437M 16455M
                                                 16493M 16530M 16530  16602  16613M 16613  16622  16623  16682M 16682
                                                 16719M 16743M 16743  16762M 16775M 16775  17659M 17669  17793M 17803
                                                 17927M 17937  18057  18118  18179  18240  18258M 18258  18291  18323
                                                 18465M 18475  18599M 18609  18734M 18744  18868M 18878  18998  19059
                                                 19539M 19598M 19602  19613M 19613  19622  19623  19677M 19692M 19708M
                                                 19796M 19796  19830M 19857M 19897M 19897  20003  20014M 20014  20023
                                                 20024  20076M 20076  20270M 20281  20426  20427  20427  20427  20448M
                                                 20488M 20489  20508M 20523M 20539M 20627M 20627  20661M 20686M 20708M
                                                 20733M 20773M 20773  20879  20890M 20890  20899  20900  20952M 20952
                                                 21161M 21239M 21250  21401  21412M 21473M 21477  21488M 21488  21497
                                                 21498  21555M 21570M 21586M 21674M 21674  21708M 21735M 21773M 21798M
                                                 21842M 21842  21948  21959M 21959  21968  21969  22133M 22133  22336M
                                                 22387M 22402M 22418M 22506M 22506  22540M 22580M 22580  22685  22696M
                                                 22696  22705  22706  22758M 22758  22919  22919  22919  23005M 23060M
                                                 23064  23075M 23075  23084  23085  23162M 23180M 23247M 23273M 23330M
                                                 23345M 23361M 23474M 23474  23626M 23653M 23695M 23715M 23750M 23750
                                                 23792M 23833M 23876M 23918M 23962M 23962  24068  24079M 24079  24088
                                                 24089  25164  25260  25531M 25542  26272M 26288  26411M 26421  26668
                                                 26705  26966  26992  26992M 27114  27141  27156  27268  27343M 27343
                                                 27377M 27399M 27399  27421M 27451M 27468M 27493M 27511M 27655M 27668M
                                                 27702M 27720M 27818M 27841M 27891M 27944M 27944  28111M 28137M 28156M
                                                 28238M 28238  28278M 28437  28542M 28606M 28606  28674M 28674  28726M
                                                 28726  28941M 28957M 29008M 29023M 29039M 29117M 29130M 29163M 29176M
                                                 29209M 29222M 29255M 29268M 29316M 29316  29388  29399M 29399  29408
                                                 29409  29440M 29455  29478M 29488  29488M 29612M 29622  29668  29735M
                                                 29745  29791  29905  29987M 30014M 30032M 30075M 30088M 30088  30125
                                                 30167M 30167  30176M 30190M 30198  30198M 30628M 30642  30720M 30729M
                                                 30729  30770M 30772M 30773  30774  31068M 31077M 31077  31316M 31342M
                                                 31342  31359M 31385M 31385  31402M 31428M 31428  31445M 31471M 31471
                                                 31488M 31509M 31509  31547M 31591M 31591  31668  31669  31669  31669
                                                 31675M 31693M 31708M 31738M 31916M 31916  31933M 32008  32009  32009
                                                 32009  32015M 32030M 32095  32119M 32137M 32158M 32279  32279M 32406
                                                 32407  32407  32407  32412M 32434M 32486M 32518  32534  32583M 32596M
                                                 32628M 32665M 32681M 32715M 32756M 32861M 32861  32895M 32917M 32917
                                                 32939M 32969M 32986M 33011M 33029M 33180M 33251M 33251  33317M 33317
                                                 33336  33337  33337  33337  33343M 33358M 33458M 33458  33589M 33606M
                                                 33630M 33659M 33686M 33710M 33739M 33766M 33784M 33897M 34011M 34126M
                                                 34151M 34193M 34246M 34268M 34355  34355  34355  34610  34679  34688
                                                 34697  34717M 34718M 34719M 34736M 34896  35040M 35064M 35173M 35186
                                                 35212M 35214  35271M 35324M 35324  35512M 35712M 35712  35748  35774M
                                                 35924M 36107  36256M 36272  36408M 36409M 36410M 36412M 36413  36483M
                                                 36498M 36511  36511M 36801  36824M 36883M 36974M 36974  37009M 37027M
                                                 37119M 37120M 37121M 37142M 37254  37290M 37317  37317M 37516  37562M
                                                 37562  37596M 37614M 37815M 37816M 37817M 37846M 37846  37920M 37921M
                                                 37922M 37947M 38062  38063  38063  38063  38118M 38118  38124  38165M
                                                 38174M 38375  38375M 38609  38634M 38715M 38715  38769M 38769  38986
                                                 39258M 39303M 39506M 39533M 39534M 39544  39605M 39632M 39670M 39751M
                                                 39805M 39842  39871M 39872M 39873M 40081M 40099M 40144M 40144  40265M
                                                 40265  40287M 40308M 40308  40326M 40344M 40441  40441  40441  40548
                                                 40550  40655M 40711M 40712M 40713M 40729M 40731  40731M 40884  40902
                                                 40926M 40927M 40928M 41086M 41188M 41189M 41202  41211  41220  41220M
                                                 41379  41397  41424M 41425M 41426M 41565M 41642M 41643M 41656  41665
                                                 41674  41674M 41884  41890  42000M 42001M 42002M 42016M 42043M 42068M
                                                 42069M 42070M 42085M 42098  42107  42116  42116M 42267  42285  42309M
1SAM      (SAM2193) (12:54) (15MAR04) Ordinary Symbol and Literal Cross Reference                                           Page  185
                                                 42310M 42311M 42394M 42601M 42699M 42848M 42849M 42862  42871  42881
                                                 42881M 43037  43055  43079M 43080M 43081M 43146M 43284M 43285M 43298
                                                 43307  43317  43317M 43448  43449  43472M 43473M 43474M 43504M 43570M
                                                 43571M 43571  43577  43577M 43666M 43666  43672  43713M 43801M 43801
                                                 43807  43849M 43984M 43984  43995M 44092M 44092  44124M 44287M 44287
                                                 44325M 44336  44336M
 R1            1 00000001 FFFFFFFF A   #     723  2171M  2172M  2178M  7616M  7629   7630   7632   9736M  9737M  9737
                                                  9828M  9841   9842   9844   9885M  9903M  9921M  9969M  9988M 10010M
                                                 10062M 10097M 10119M 10171M 10206M 10228M 10280M 10315M 10337M 10389M
                                                 10424M 10446M 10498M 10558M 10580M 10632M 10667M 10685M 10707M 10725M
                                                 10747M 10766M 10805M 10838M 10856M 10899M 10932M 10956M 10981M 11001M
                                                 11034M 11067M 11100M 11120M 11153M 11217M 11269M 11287M 11312M 11369M
                                                 11387M 11412M 11469M 11487M 11512M 11569M 11587M 11612M 11697M 11737M
                                                 11771M 11810M 11849M 11871M 11906M 11928M 12184  12192  12219  12391M
                                                 12391  12480  12765M 12897M 12909M 12967M 13028M 13036M 13072M 13090M
                                                 13120M 13150M 13174M 13198M 13221M 13241M 13265M 13289M 13324M 13342M
                                                 13363M 13588M 14323M 14341M 14360M 14373M 14433M 14460M 14467  14468
                                                 14468  14468  14472M 14488M 14670M 14688M 14707M 14720M 14748M 14766M
                                                 14773  14781M 14840M 14862M 14997  14997  14997  15405  15406  15446M
                                                 15480M 15481M 15794  15802M 15815  15816  15818  15890M 16108M 16126M
                                                 16173  16177M 16200M 16223M 16246M 16269M 16292M 16315M 16338M 16361M
                                                 16384M 16407M 16430M 16454M 16486M 16601  16609M 16622  16623  16625
                                                 16717M 16757M 17658M 17792M 17926M 18464M 18598M 18733M 18867M 19544
                                                 19545  19593M 19601  19609M 19622  19623  19625  19672M 19706M 19707M
                                                 19829M 19852M 20002  20010M 20023  20024  20026  20269M 20453  20454
                                                 20490  20503M 20537M 20538M 20660M 20681M 20707M 20728M 20878  20886M
                                                 20899  20900  20902  21160M 21238M 21402  21417  21418  21468M 21476
                                                 21484M 21497  21498  21500  21529M 21550M 21584M 21585M 21707M 21730M
                                                 21772M 21793M 21947  21955M 21968  21969  21971  22341  22342  22382M
                                                 22416M 22417M 22539M 22684  22692M 22705  22706  22708  22986  23010
                                                 23011  23055M 23063  23071M 23084  23085  23087  23161M 23179M 23246M
                                                 23272M 23325M 23359M 23360M 23625M 23648M 23694M 23714M 23746M 23791M
                                                 23832M 23875M 23917M 24067  24075M 24088  24089  24091  25530M 26271M
                                                 26410M 26667  26965  26989M 27132M 27132  27267  27339M 27376M 27395M
                                                 27420M 27444M 27467M 27492M 27510M 27654M 27701M 27719M 27813M 27840M
                                                 27886M 28104M 28136M 28155M 28273M 28541M 28940M 28962  28963  29003M
                                                 29037M 29038M 29116M 29130M 29162M 29176M 29208M 29222M 29254M 29268M
                                                 29387  29395M 29408  29409  29411  29440M 29478M 29488  29611M 29667M
                                                 29668  29734M 29790M 29791  29904  29986M 30009M 30031M 30070M 30103
                                                 30104  30104  30104  30112M 30169M 30169  30175M 30198  30281  30281
                                                 30281  30386  30461M 30501M 30505M 30623M 30715M 30768M 31067M 31083
                                                 31085  31144M 31151M 31315M 31337M 31358M 31380M 31401M 31423M 31444M
                                                 31466M 31487M 31505M 31546M 31642M 31668  31669  31669  31669  31674M
                                                 31692M 31708M 31737M 31885M 32008  32009  32009  32009  32014M 32030M
                                                 32118M 32136M 32157M 32279  32406  32407  32407  32407  32411M 32434M
                                                 32485M 32517  32582M 32627M 32664M 32680M 32714M 32766M 32857M 32894M
                                                 32913M 32938M 32962M 32985M 33010M 33028M 33179M 33286M 33318M 33336
                                                 33337  33337  33337  33342M 33358M 33588M 33605M 33623M 33651M 33681M
                                                 33703M 33731M 33761M 33783M 33896M 34010M 34125M 34144M 34186M 34239M
                                                 34267M 34355  34355  34355  34731M 35035M 35059M 35168M 35213  35264M
                                                 35376M 35392M 35415M 35507M 35773M 35923M 36251M 36388  36415M 36416M
                                                 36443M 36443  36470M 36481  36482  36493M 36511  36819M 36878M 37008M
                                                 37026M 37137M 37253  37283M 37317  37595M 37613M 37665M 37686M 37688
                                                 37689  37848M 37848  37942M 38062  38063  38063  38063  38164M 38174M
                                                 38375  38629M 38985  39056M 39172M 39200M 39232M 39251M 39276M 39296M
                                                 39321M 39367M 39377M 39406M 39445M 39455M 39499M 39524M 39552M 39600M
                                                 39627M 39663M 39692M 39744M 39773M 39798M 40062  40074M 40098M 40286M
                                                 40304M 40325M 40343M 40441  40441  40441  40548  40549  40591M 40611M
                                                 40613  40614  40648M 40729M 40731  40900  40903  41079M 41187M 41189
1SAM      (SAM2193) (12:54) (15MAR04) Ordinary Symbol and Literal Cross Reference                                           Page  186
                                                 41220  41395  41398  41558M 41641M 41643  41674  41884  41889  41931M
                                                 41951M 41953  41954  42023M 42036M 42085M 42116  42283  42286  42401M
                                                 42608M 42706M 42847M 42849  42881  43053  43056  43153M 43283M 43285
                                                 43317  43447  43449  43511M 43570M 43577  43712M 43848M 43993M 44122M
                                                 44323M 44336
 R12          12 0000000C FFFFFFFF A   #     866  2134
 R13          13 0000000D FFFFFFFF A   #     879  7624   7625   7626   7642   7643   7644   9836   9837   9838   9854
                                                  9855   9856  15293  15810  15811  15812  15828  15829  15830  16617
                                                 16618  16619  16635  16636  16637  19580  19617  19618  19619  19635
                                                 19636  19637  20018  20019  20020  20036  20037  20038  20894  20895
                                                 20896  20912  20913  20914  21455  21492  21493  21494  21510  21511
                                                 21512  21963  21964  21965  21981  21982  21983  22700  22701  22702
                                                 22718  22719  22720  23042  23079  23080  23081  23097  23098  23099
                                                 24083  24084  24085  24101  24102  24103  29403  29404  29405  29421
                                                 29422  29423
 R14          14 0000000E FFFFFFFF A   #     892  2109M  7623M  7624   7625   7626   7631M  7632   7639M  7642   7643
                                                  7644   9835M  9836   9837   9838   9843M  9844   9851M  9854   9855
                                                  9856  12341M 12346M 12352  12353M 12508M 12612M 12699M 12755M 13433M
                                                 13438M 13446  13447M 14432M 14433  14434  14438M 14438  14719M 14720
                                                 14721  14725M 14725  15292M 15293  15793M 15794  15795  15799M 15799
                                                 15809M 15810  15811  15812  15817M 15818  15825M 15828  15829  15830
                                                 16600M 16601  16602  16606M 16606  16616M 16617  16618  16619  16624M
                                                 16625  16632M 16635  16636  16637  17230M 17233  17657M 17658  17659
                                                 17663M 17663  17791M 17792  17793  17797M 17797  17925M 17926  17927
                                                 17931M 17931  18463M 18464  18465  18469M 18469  18597M 18598  18599
                                                 18603M 18603  18732M 18733  18734  18738M 18738  18866M 18867  18868
                                                 18872M 18872  19579M 19580  19600M 19601  19602  19606M 19606  19616M
                                                 19617  19618  19619  19624M 19625  19632M 19635  19636  19637  19646M
                                                 19649  20001M 20002  20003  20007M 20007  20017M 20018  20019  20020
                                                 20025M 20026  20033M 20036  20037  20038  20268M 20269  20270  20274M
                                                 20274  20877M 20878  20879  20883M 20883  20893M 20894  20895  20896
                                                 20901M 20902  20909M 20912  20913  20914  21159M 21160  21161  21165M
                                                 21165  21237M 21238  21239  21243M 21243  21454M 21455  21475M 21476
                                                 21477  21481M 21481  21491M 21492  21493  21494  21499M 21500  21507M
                                                 21510  21511  21512  21521M 21524  21946M 21947  21948  21952M 21952
                                                 21962M 21963  21964  21965  21970M 21971  21978M 21981  21982  21983
                                                 22683M 22684  22685  22689M 22689  22699M 22700  22701  22702  22707M
                                                 22708  22715M 22718  22719  22720  23041M 23042  23062M 23063  23064
                                                 23068M 23068  23078M 23079  23080  23081  23086M 23087  23094M 23097
                                                 23098  23099  23108M 23111  24066M 24067  24068  24072M 24072  24082M
                                                 24083  24084  24085  24090M 24091  24098M 24101  24102  24103  25529M
                                                 25530  25531  25535M 25535  26270M 26271  26272  26276M 26276  26409M
                                                 26410  26411  26415M 26415  26706M 27115M 27142M 28438M 29386M 29387
                                                 29388  29392M 29392  29402M 29403  29404  29405  29410M 29411  29418M
                                                 29421  29422  29423  29610M 29611  29612  29616M 29616  29733M 29734
                                                 29735  29739M 29739  34611M 34689M 34705M 34710M 34718  34719M 36108M
                                                 36396M 36401M 36409  36410M 36802M 37107M 37112M 37120  37121M 37517M
                                                 37666M 37803M 37808M 37816  37817M 37908M 37913M 37921  37922M 38610M
                                                 39843M 39859M 39864M 39872  39873M 40204M 40204  40205M 40214M 40214
                                                 40699M 40704M 40712  40713M 40885M 40914M 40919M 40927  40928M 41212M
                                                 41380M 41412M 41417M 41425  41426M 41666M 41988M 41993M 42001  42002M
                                                 42056M 42061M 42069  42070M 42108M 42268M 42297M 42302M 42310  42311M
                                                 42367M 42377M 42377  42406M 42613M 42672M 42682M 42682  42711M 42872M
                                                 43038M 43067M 43072M 43080  43081M 43118M 43128M 43128  43158M 43308M
                                                 43460M 43465M 43473  43474M
 R15          15 0000000F FFFFFFFF A   #     905  2108   7645M  7645   7848M  7848   8286M  8286   8354M  8354   8427M
                                                  8427   8499M  8499   8584M  8584   8669M  8669   8748M  8748   8833M
                                                  8833   8918M  8918   9003M  9003   9082M  9082   9151M  9151   9217M
                                                  9217   9284M  9284   9351M  9351   9417M  9417   9483M  9483   9550M
1SAM      (SAM2193) (12:54) (15MAR04) Ordinary Symbol and Literal Cross Reference                                           Page  187
                                                  9550   9616M  9616   9683M  9683   9770M  9770   9857M  9857   9894M
                                                  9912M  9930M  9955M  9978M  9997M 10087M 10106M 10196M 10215M 10305M
                                                 10324M 10414M 10433M 10523M 10548M 10567M 10657M 10676M 10697M 10716M
                                                 10737M 10756M 10778M 10814M 10847M 10868M 10908M 10941M 10969M 11092M
                                                 11178M 11203M 11260M 11278M 11299M 11360M 11378M 11399M 11460M 11478M
                                                 11499M 11560M 11578M 11599M 11677M 11712M 11746M 11780M 11819M 11858M
                                                 11880M 11915M 11937M 11962M 11962  12183  12306M 12316U 12362M 12363M
                                                 12364  12426M 12426  12490M 12491M 12491  12507  12531U 12565  12581
                                                 12591  12594M 12595M 12595  12611  12698  12754  12775M 12776M 12777
                                                 12787M 12806M 12806  12918M 12976M 13001M 13038M 13063M 13081M 13105M
                                                 13135M 13165M 13183M 13213M 13314M 13333M 13354M 13372M 13397M 13488M
                                                 13491  13503M 13510M 13512  13651M 13688M 13726M 13726  14332M 14350M
                                                 14393M 14403U 14481M 14508M 14537M 14571M 14597M 14597  14679M 14697M
                                                 14757M 14801M 14811U 14849M 14875M 14904M 14938M 14964M 14964  15089M
                                                 15089  15325M 15334M 15334  15341M 15357  15364M 15380  15387M 15392
                                                 15398  15435  15459M 15474M 15501M 15567M 15591M 15625M 15648M 15648
                                                 15661M 15730M 15831M 15831  15835M 15835  15880M 16117M 16138M 16168M
                                                 16186M 16215M 16232M 16261M 16278M 16307M 16324M 16353M 16370M 16399M
                                                 16416M 16445M 16463M 16472M 16501M 16538M 16638M 16638  16642M 16642
                                                 16690M 17168M 17168  17173  17198  17204M 17234M 17260M 17260  17669M
                                                 17672  17684M 17692M 17701M 17701  17708  17728M 17747M 17747  17803M
                                                 17806  17818M 17826M 17835M 17835  17842  17862M 17881M 17881  17937M
                                                 17940  17952M 17960M 17969M 17969  17976  17996M 18015M 18015  18076M
                                                 18076  18137M 18137  18198M 18198  18400M 18400  18419M 18419  18475M
                                                 18478  18490M 18498M 18507M 18507  18514  18534M 18553M 18553  18609M
                                                 18613  18625M 18633M 18642M 18642  18649  18669M 18688M 18688  18744M
                                                 18747  18759M 18767M 18776M 18776  18783  18803M 18822M 18822  18878M
                                                 18881  18893M 18901M 18910M 18910  18917  18937M 18956M 18956  19017M
                                                 19017  19078M 19078  19122M 19123M 19123  19252M 19252  19271M 19271
                                                 19315M 19316M 19316  19409M 19409  19428M 19428  19537  19574  19638M
                                                 19638  19685M 19700M 19727M 19804M 19838M 19865M 19905M 19938M 20039M
                                                 20039  20043M 20043  20084M 20093M 20093  20099  20125  20131M 20143M
                                                 20167M 20167  20341M 20360M 20360  20446  20483  20516M 20531M 20558M
                                                 20635M 20669M 20694M 20716M 20741M 20781M 20814M 20915M 20915  20919M
                                                 20919  20960M 20969M 20969  20975  21001  21007M 21019M 21043M 21043
                                                 21173M 21192M 21192  21310M 21329M 21329  21410  21447  21513M 21513
                                                 21563M 21578M 21605M 21682M 21716M 21743M 21781M 21806M 21850M 21883M
                                                 21984M 21984  21988M 21988  22057M 22096M 22141M 22150M 22150  22156
                                                 22182  22188M 22200M 22224M 22224  22334  22371  22395M 22410M 22437M
                                                 22514M 22548M 22588M 22620M 22721M 22721  22725M 22725  22766M 22775M
                                                 22775  22781  22807  22813M 22825M 22849M 22849  23003  23036  23100M
                                                 23100  23170M 23338M 23353M 23380M 23482M 23634M 23661M 23738M 23758M
                                                 23800M 23841M 23884M 23926M 23970M 24003M 24104M 24104  24108M 24108
                                                 24166M 24166  24188M 24188  24455M 24455  24523M 24523  24598M 24598
                                                 24671M 24671  24738M 24738  24805M 24805  24875M 24875  24949M 24949
                                                 25023M 25023  25090M 25090  25168M 25168  25187M 25187  25264M 25264
                                                 25283M 25283  25602M 25621M 25621  25687M 25687  25756M 25756  25823M
                                                 25823  25889M 25889  25956M 25956  26031M 26031  26097M 26097  26164M
                                                 26164  26288M 26291  26303M 26311M 26320M 26320  26327  26346M 26365M
                                                 26365  26421M 26424  26436M 26444M 26453M 26453  26460  26479M 26481M
                                                 26500M 26500  26705  26800M 26800  26838M 26882M 26957M 26957  27025M
                                                 27025  27114  27141  27156M 27160M 27169M 27169  27176  27256M 27351M
                                                 27385M 27407M 27429M 27459M 27501M 27563M 27564M 27566M 27663M 27692M
                                                 27710M 27826M 27849M 27899M 27952M 28119M 28179M 28246M 28286M 28352M
                                                 28352  28437  28550M 28614M 28682M 28734M 28765  28771M 28804M 28804
                                                 28942M 28955  28992  29016M 29031M 29058M 29125M 29149M 29171M 29195M
                                                 29217M 29241M 29263M 29287M 29324M 29424M 29424  29428M 29428  29439M
                                                 29477M 29477  29517M 29517  29622M 29626  29628M 29632M 29641M 29641
                                                 29648  29669M 29688M 29688  29745M 29749  29751M 29755M 29764M 29764
1SAM      (SAM2193) (12:54) (15MAR04) Ordinary Symbol and Literal Cross Reference                                           Page  188
                                                 29771  29792M 29811M 29811  29916M 29995M 30022M 30040M 30054M 30063M
                                                 30063  30095M 30103  30104  30104  30104  30105M 30112M 30170M 30222M
                                                 30222  30281  30281  30281  30850M 30850  31003M 31003  31064M 31100M
                                                 31324M 31350M 31367M 31393M 31410M 31436M 31453M 31479M 31496M 31517M
                                                 31555M 31599M 31633M 31643M 31654M 31654  31683M 31701M 31728M 31746M
                                                 31782M 31782  31886M 31938M 31970M 31970  31998M 32023M 32050M 32055M
                                                 32127M 32145M 32150M 32256M 32274M 32274  32303M 32303  32420M 32477M
                                                 32494M 32517M 32518M 32520M 32591M 32620M 32673M 32705M 32778M 32869M
                                                 32903M 32925M 32947M 32977M 33019M 33079M 33079  33176M 33259M 33280M
                                                 33287M 33319M 33351M 33378M 33394M 33434M 33466M 33484M 33484  33508M
                                                 33508  33579M 33597M 33614M 33638M 33667M 33694M 33718M 33747M 33774M
                                                 33792M 33827M 33827  33905M 33940M 33940  34019M 34054M 34054  34134M
                                                 34159M 34165M 34186  34201M 34239  34254M 34276M 34304M 34304  34610
                                                 34620  34688  34895M 34896M 34897  34899M 34957  34986M 34987M 34988
                                                 35010M 35028M 35028  35072M 35234M 35296M 35310M 35329M 35364  35385M
                                                 35385  35408  35478  35520M 35604M 35605M 35606M 35607  35720M 35732M
                                                 35732  35794M 35812M 35914M 35976M 35976  36016M 36016  36107  36142
                                                 36162M 36211  36230M 36507M 36507  36535M 36535  36801  36832M 36863M
                                                 36864M 36868  36870  36891M 36899M 36900M 36901  36914M 36914  36982M
                                                 37017M 37125M 37126M 37127  37321M 37321  37326M 37376M 37376  37516
                                                 37570M 37604M 37645M 37648  37660M 37665  37669M 37671  37706M 37734M
                                                 37734  37769M 37782M 37782  37859M 38124M 38127  38139M 38146M 38148
                                                 38242M 38337M 38351M 38351  38368M 38404M 38404  38609  38642M 38722M
                                                 38735M 38735  38758  38778M 38778  38785M 38799M 38804M 38804  38835M
                                                 38835  38967M 39005M 39059M 39085M 39111M 39144M 39175M 39203M 39235M
                                                 39279M 39285  39324M 39342  39359  39370M 39380M 39409M 39448M 39457M
                                                 39527M 39544  39555M 39620M 39620  39653  39684  39695M 39734  39765
                                                 39776M 39810  39842  39959M 39959  39996M 39996  40089M 40107M 40152M
                                                 40182M 40198M 40199M 40200  40273M 40295M 40316M 40334M 40374M 40374
                                                 40571M 40574  40586M 40591  40594M 40596  40637M 40690  40716M 40717M
                                                 40718  40755M 40755  40884  41068M 41111  41128M 41141  41165M 41166
                                                 41169M 41175  41211  41250M 41250  41379  41547M 41590  41665  41704M
                                                 41704  41784M 41784  41907M 41910  41922M 41931  41934M 41936  42009M
                                                 42072M 42073M 42074  42107  42140M 42140  42267  42360M 42367  42588M
                                                 42665M 42672  42871  42910M 42910  43037  43139M 43307  43346M 43346
                                                 43499M 43537M 43538M 43538  43541M 43543  43601M 43601  43672M 43675
                                                 43687M 43694M 43696  43738M 43738  43807M 43810  43822M 43830M 43832
                                                 43874M 43874  43991M 44002M 44021M 44021  44078  44118M 44119M 44120
                                                 44132M 44151M 44151  44355M 44355
 R2            2 00000002 FFFFFFFF A   #     736 13403M 13406  13418M 13425  13438  13468  13469  13469  13469  13482M
                                                 13482  13488  13529M 13538M 13545  13562M 13565  13577M 13593  13660
                                                 13661  13761  13761  13761  15398M 15430  16173M 16720M 16784M 18265M
                                                 18298M 18330M 18348M 18371  19537M 19569  20281M 20284  20296M 20301
                                                 20305M 20314M 20314  20321  20446M 20478  20491  21250M 21253  21265M
                                                 21270  21274M 21283M 21283  21290  21410M 21442  22334M 22366  23003M
                                                 23031  25542M 25545  25557M 25562  25566M 25575M 25575  25582  26911M
                                                 26921U 26943M 26944M 26945  26963M 26988M 26990M 26992  27257M 28004M
                                                 28004  28070M 28088M 28088  28146M 28146  28955M 28987  29621M 29626
                                                 29628  29744M 29749  29751  30402M 30403  30407M 30416M 30416  30423
                                                 30462M 30466M 30475M 30475  30482  30506M 30510M 30519M 30519  30526
                                                 30545M 30546M 30549M 30552  30564M 30569  30573M 30582M 30582  30589
                                                 30661M 30662  30666M 30675M 30675  30682  30774M 30778M 30787M 30787
                                                 30794  30934M 30935  30939M 30948M 30948  30955  31145M 31152M 32234M
                                                 32251M 32251  32268M 32269M 32270  34531  35213M 35214M 35364M 35432M
                                                 35432  36012M 36318M 36355M 36388M 36413M 36414M 36468M 36483M 37053M
                                                 37054M 37272M 37793M 37794M 37795M 37808  37878M 37879M 37889M 37889
                                                 37913  37947  38065M 38082M 38103M 38315M 38332M 38332  39653M 39684
                                                 39734M 39765  39850M 39851M 39875  40062M 41732  41780M 41930M 41930
                                                 41964M 41964  41975M 42009  43111M 43118  43139  43200  43228  43516M
1SAM      (SAM2193) (12:54) (15MAR04) Ordinary Symbol and Literal Cross Reference                                           Page  189
                                                 43519  43531M 43537  43560  43561  43654M 43972M 43972  43990M 43991
                                                 44103M 44104M 44105M 44117M 44117  44118
 R3            3 00000003 FFFFFFFF A   #     749 12185M 12333  12346  13424M 13433  13468  13469  13469  13469  13528M
                                                 13538M 13544  13588  13660M 13761  13761  13761  14774M 14867  15877M
                                                 15890  18266M 18331M 18349M 18392  20426  20427  20427  20427  20488M
                                                 20492  21401M 21449  22919  22919  22919  26964M 26976  26983  27268M
                                                 27564  27580  27818  27878M 27891  28278  28306M 28306  29621M 29667
                                                 29744M 29790  29965M 29976M 29976  30157M 36482M 37098M 37099M 37137
                                                 37792M 37794  37877M 37879  40902M 40919  40944M 40944  41059M 41104M
                                                 41114M 41179M 41397M 41417  41442M 41442  41537M 41583M 41593M 41633M
                                                 41977M 42285M 42302  42346M 42346  42411M 42453  42481M 42491M 42514
                                                 42618M 42651M 42651  42716M 42727M 42743  43055M 43072  43097M 43097
                                                 43163M 43275M 43447M 43558M 43558
 R4            4 00000004 FFFFFFFF A   #     762 12184M 12351  13471M 13545M 13556M 13556  13562  13661M 14773M 14862
                                                 15509M 15654M 17018M 17030M 17030  17158M 21402M 21449  26965M 26988M
                                                 27267M 27563  27813  27877M 27886  28273  29905M 30014  34697M 34710
                                                 34736  36862M 36868  36870M 36883  36897  36900  37035M 37047  37053
                                                 37074M 37075  37096M 37112  37123  37126  37142  37268M 37272  37628M
                                                 37639M 37639  37645  37689M 37727M 37790M 37930  38986M 38998M 38998
                                                 39030M 39048  39192  39417M 39421M 39437M 39437  39455  39481M 39533
                                                 39605  39632  39833  39864  39876  40550M 40565M 40565  40571  40614M
                                                 40626  40673M 40691M 40704  40903M 41112M 41167M 41176M 41188  41398M
                                                 41591M 41630M 41642  41890M 41901M 41901  41907  41954M 41980M 41993
                                                 42061  42286M 42408M 42479M 42488M 42615M 42631M 42713M 42724M 42831M
                                                 42848  43056M 43160M 43264M 43272M 43284  43448M 43465  43489M 43489
                                                 43516  43561M
 R5            5 00000005 FFFFFFFF A   #     775 12183M 12232  12260  12288  12487M 12487  12591M 12641M 12641  12673U
                                                 13544M 13695  15271M 15279U 19520M 19528U 20429M 20437U 21391M 21399U
                                                 22986M 22994U 26966M 26976  26983M 28898M 28906U 29904M 30009  30919M
                                                 30929U 31085M 31095U 31855M 31865U 32370M 32380U 32797M 32810U 33155M
                                                 33156M 33156  33171U 34620M 34630U 36142M 36180M 36180  36211M 36262M
                                                 36272  36318  36329M 36329  36357M 36371M 36371  36378M 36401  36414
                                                 36416  36498  36861M 36878  36897M 36898  37034M 37095M 37123M 37124
                                                 37267M 37627M 37686  37688M 37725M 37788M 37793  37878  37929  38692M
                                                 38704M 38704  38792M 38985M 39028M 39416M 39600  39627  40549M 40611
                                                 40613M 40671M 40714M 40929M 41058M 41102M 41113M 41177M 41427M 41536M
                                                 41581M 41592M 41631M 41889M 41951  41953M 41977  41978M 42071M 42312M
                                                 42409M 42480M 42489M 42616M 42714M 42725M 43082M 43161M 43273M 43478M
                                                 43560M 44078M 44104  44111M 44120M 44132
 R6            6 00000006 FFFFFFFF A   #     788  7590M  7598U 12192M 12202U 12357  12480M 12546M 12546  12565M 12581
                                                 12647  12706  12728U 12926M 12942U 12956M 12957M 12957  14380M 14388U
                                                 14788M 14796U 15406M 15416U 19545M 19555U 20454M 20464U 21418M 21428U
                                                 22342M 22352U 23011M 23019U 26670M 26680U 27079M 27089U 28402M 28412U
                                                 28963M 28973U 30386M 30396U 30905M 30915U 31059U 31845U 32365U 33139U
                                                 33565U 33882U 33996U 34109U 34575M 34585U 36072M 36082U 36766M 36776U
                                                 37481M 37491U 38584U 38952U 40057U 40849M 40859U 41344M 41354U 42232M
                                                 42242U 43002M 43012U
 R7            7 00000007 FFFFFFFF A   #     801  2101M  2101   2102B  2114B
 R8            8 00000008 FFFFFFFF A   #     814  7586U 15267U 26662U 28894U 29900U 30382U 34563U 36754U 37469U 38571U
                                                 38939U 40543U 40845U 41340U 41872U 42228U 42998U 43435U
 SAMCLEAR    456 00000004 FFFFFFE2     X   14238 15426M 15426  15427M 15427  19565M 19565  19566M 19566  20474M 20474
                                                 20475M 20475  21438M 21438  21439M 21439  22362M 22362  22363M 22363
                                                 23027M 23027  23028M 23028  28983M 28983  28984M 28984
 SAMCLOSE      2 0000485E 00000001     H   28367 28363
 SAMDEXIT      4 00003266 00000001     I   22156 21884B 22151B
 SAMDIALG      2 0000497C 00000001     H   28852 28848
 SAMDIPRT      4 00004BAC 00000001     F   29524 30261
 SAMDIR        2 00002FA2 00000001     H   21356 21352
 SAMDIRC       2 00004C24 00000001     H   29573 29536
1SAM      (SAM2193) (12:54) (15MAR04) Ordinary Symbol and Literal Cross Reference                                           Page  190
 SAMDITX       2 00004C84 00000001     H   29696 29551
 SAMDIXIT      4 00004B9A 00000001     I   29488 28943B 29484B
 SAMDPARM     48 00000000 FFFFFFDF     X   28833 28916M
 SAMDPMSG      4 00000008 FFFFFFDF     A   28828 29176
 SAMDPOPT      4 00000018 FFFFFFDF     A   28830 29268
 SAMDPPRM      4 00000010 FFFFFFDF     A   28829 29222
 SAMDPRCD      4 00000020 FFFFFFDF     A   28831 29621
 SAMDPRT       4 000032A8 00000001     F   22240 22903
 SAMDPRTX      4 00000028 FFFFFFDF     A   28832 29744
 SAMDPTYP      4 00000000 FFFFFFDF     A   28827 28833  28833  29130
 SAMDPWA      64 00000000 FFFFFFDF     J   28843 28865  28894U 28898  28906U 28914M 28914  29513  29515  29516
 SAMDXRC       4 00000030 FFFFFFDF     A   28835 29440  29668M
 SAMDXRT       4 00000038 FFFFFFDF     A   28836 29478  29791M
 SAMECHO       2 00004CE4 00000001     H   29858 17291  29854
 SAMFAPP      64 00000007 FFFFFFE2        13911 23903  26012M 26078M 26145M
 SAMFASCII
              16 00000006 FFFFFFE2        13881 23127  24923M 25004M 31926  37300
 SAMFASCII8
              16 00000004 FFFFFFE2        13811 23586M 25870M 27208  31180  32182  38075  38263
 SAMFBREAK
               1 00000004 FFFFFFE2        13831 26905  27306  27318M 39142M
 SAMFCTRL     64 000000DE FFFFFFE2        13952 27836M 27860M 28133M 28190M 28537M 28561M 33892M 33916M 34006M 34030M
                                                 34772
 SAMFDATA    128 000000DE FFFFFFE2        13947 33803M 34120M 34757
 SAMFDTRAN
              64 00000006 FFFFFFE2        13871 23818  24855  24855  24856M 25736  25736  25737M
 SAMFEBCDIC
               8 00000006 FFFFFFE2        13886 23139  24930M 24997M
 SAMFEOF      32 00000005 FFFFFFE2        13851 36945  37081M
 SAMFERC       2 00000004 FFFFFFE2        13826 19931  20807  21876  22613  23996  31620  35822M
 SAMFERET      4 00000004 FFFFFFE2        13821 19885M 19921M 20761M 20797M 21830M 21866M 22568M 22603M 23950M 23986M
                                                 31579M 31610M 35891
 SAMFFAST     32 00000004 FFFFFFE2        13806 24139  26286M 26725  27281  28457  31666M
 SAMFINMSB
              64 00000128 FFFFFFE2        14083 41507M 41530M 41612
 SAMFIN8BIT
             128 00000128 FFFFFFE2        14078 41028M 41052M 41156
 SAMFLAG       1 00000004 FFFFFFE2     R   13792 13796  13801  13806  13811  13816  13821  13826  13831  14238  14238
 SAMFLAG2      1 00000005 FFFFFFE2     R   13837 13841  13846  13851  13856
 SAMFLAG3      1 00000006 FFFFFFE2     R   13862 13866  13871  13876  13881  13886  13891  13896
 SAMFLAG4      1 00000007 FFFFFFE2     R   13902 13906  13911  13916
 SAMFMSB       8 000000DE FFFFFFE2        13967 43186  43214  43239M 43252
 SAMFNAME    128 0000000C FFFFFFE2     X   13921 19852  21730  23648  30962M
 SAMFNAMEL
               4 00000008 FFFFFFE2     F   13920 19857  21735  23653  30935M
 SAMFNETHDR
               8 00000004 FFFFFFE2        13816 31245M 31288M 32076  32165M 32399  32431M
 SAMFNORETRY
              16 00000005 FFFFFFE2        13856 15525M 15638M 15675M 35004
 SAMFOPEN    128 00000004 FFFFFFE2        13796 24162M 28492  28704M
 SAMFSGTRAN
              32 000000DE FFFFFFE2        13957 34661
 SAMFSHIFT
              16 000000DE FFFFFFE2        13962 42323  42637M 42838M
 SAMFSPLT    128 00000007 FFFFFFE2        13906 23705  25163M 25259M 36312  36427
 SAMFSTRM     32 00000006 FFFFFFE2        13876 25071M 26258  28014
 SAMFTABS     32 00000007 FFFFFFE2        13916 24436M 24504M 24579M 24652M 31208  38214
 SAMFTEXTONLY
               2 00000006 FFFFFFE2        13896 23262  24719M 32244  38325
1SAM      (SAM2193) (12:54) (15MAR04) Ordinary Symbol and Literal Cross Reference                                           Page  191
 SAMFTRAN    128 00000006 FFFFFFE2        13866 23151  23777  24786M 24855  24855  25668M 25736  25736  25804M 26750
                                                 27225  27557  28029  31276  31949  32197  32453  38096  38191  38278
 SAMFUFMT      4 00000006 FFFFFFE2        13891 23236  24572M 24646M 27237  31220  32215  38226  38296
 SAMFWEOL    128 00000005 FFFFFFE2        13841 27995  28200  28200  28201M 28297M 28526  28570  28570  28571M
 SAMFWRITE
              64 00000004 FFFFFFE2        13801 23558M 23604  28507  33217
 SAMFWTXT     64 00000005 FFFFFFE2        13846 28049  28200  28200  28318M 28570  28570
 SAMINBUF   4096 00001ACC FFFFFFE2     X   14248 14227  14233  17306  17307  22912  22913  26557  26558  30275  30276
                                                 40439
 SAMINIT       2 000018F6 00000001     H   15020 15016
 SAMINIT       1 00000000 00000008     T   12016 12016
 SAMINSG      60 00000190 FFFFFFE2     X   14237 15501  19727  20558  21605  22437  23380  29058  36162  36230
 SAMINSGCOD
               1 00000190 FFFFFFE2     R   14154 14163  14173  14183  14193  14203  14213  14223
 SAMINSGLENF
               4 0000019C FFFFFFE2     A   14229 36130M 36130  36198  36256  36284M 36284  36415  36481M 36862  36899
                                                 36901M 37254M
 SAMINSGLOC
               4 000001B0 FFFFFFE2     A   14233 36251  36412  36861  36898M 37253M
 SAMLIKE       4 000000A0 FFFFFFE2     A   13928 21793
 SAMLIKLN      4 0000009C FFFFFFE2     F   13927 21449M 21759M 21759  21798
 SAMLINE     235 000001CC FFFFFFE2     C   14242 27155M 27183M 28063
 SAMLNO        4 00000130 FFFFFFE2     F   14143 26943  26945M 26990  32268  32270M
 SAMNEWFN      4 00000098 FFFFFFE2     A   13926 20491M 20728
 SAMNEWFNL
               4 00000094 FFFFFFE2     F   13925 20492M 20733
 SAMNEXIT      4 00002E22 00000001     I   20975 20815B 20970B
 SAMNHEAP      4 000000B8 FFFFFFE2     F   13935 15435M 17198  19574M 20125  20483M 21001  21447M 22182  22371M 22807
                                                 23036M 28765  28992M
 SAMOEXIT      2 000039AA 00000001     H   24172 23502B 23522B 24004B 24149B 24167B
 SAMOHEAP      4 000000B4 FFFFFFE2     F   13934 15430M 17204  19569M 20131  20478M 21007  21442M 22188  22366M 22813
                                                 23031M 28771  28987M
 SAMOLDFN      4 00000090 FFFFFFE2     A   13924 20490M 20681
 SAMOLDFNL
               4 0000008C FFFFFFE2     F   13923 20489M 20686
 SAMOPEN       2 000035CE 00000001     H   22951 14988  22947
 SAMOPRT       4 000039B8 00000001     F   24197 26528
 SAMPARMS      2 0000193A 00000001     H   15225 12017  15221
 SAMPDONE      4 00001F28 00000001     I   17173 15662B 17169B
 SAMPEXIT      4 00001F50 00000001     I   17230 15312B
 SAMPLOOP      6 00001A1E 00000001     I   15511 15654B
 SAMPPRT       4 00002094 00000001     F   17347 17288
 SAMPRC        4 00000004 FFFFFFE1     F   15115 17173M 17234
 SAMPSGCOD
               1 0000004C FFFFFFE1     R   15124 15133  15143  15153  15163  15173  15183  15193
 SAMPSTM       2 00000008 FFFFFFE1     H   15116 15526M 15631  15668  15689M 15735  16669M 16695
 SAMPVAL       4 00000000 FFFFFFE1     F   15114 15289M 16158M 16158
 SAMPWA      436 00000000 FFFFFFE1     J   15216 15238  15267U 15271  15279U 15287M 15287  15288M 15288  17256  17258
                                                 17259
 SAMPWORK     64 0000000A FFFFFFE1     C   15118 16168  16472
 SAMRCMD       2 0000012A FFFFFFE2     C   14138 35623  35640  35657  35834  35865  39819M 39902
 SAMRCNT       2 0000012E FFFFFFE2     H   14142 39964M 40199  40200M 40304
 SAMRCODE      1 00000129 FFFFFFE2     R   14089 14098  14107  14116  14125  14134  39818M 39950
 SAMRDBUF   2048 000012CC FFFFFFE2     X   14247 39850  40430
 SAMRDLEN      2 00000138 FFFFFFE2     H   14145 15749M 15749  16556M 16556  19957M 19957  20833M 20833  21902M 21902
                                                 22639M 22639  24022M 24022  29342M 29342  36930M 36930  36998M 36998
                                                 37035  37075M 37096  37125  37127M 37537M 37537  37585M 37585  37628
                                                 37858M 37930M 39876M
 SAMRDLOC      4 00000134 FFFFFFE2     A   14144 37034  37095  37124M 37627  37792  37853M 37877  37929M 39875M
1SAM      (SAM2193) (12:54) (15MAR04) Ordinary Symbol and Literal Cross Reference                                           Page  192
 SAMRDPRT      4 000032D0 00000001     F   22261 22905
 SAMREAD       2 00004440 00000001     H   26620 26616
 SAMREN        2 00002C1A 00000001     H   20389 20385
 SAMRESLV      2 00004FB2 00000001     H   30340 30336
 SAMRESLV      1 00000000 00000022     T   22904 22904
 SAMREXIT      2 00004502 00000001     H   26948 26733B 26801B 26839B 26883B
 SAMRFHEX      8 00000129 FFFFFFE2        14107 37218  38023
 SAMRFLAG      1 00000128 FFFFFFE2     R   14074 14078  14083  39817M
 SAMRFPCK      4 00000129 FFFFFFE2        14116 37185  37990
 SAMRF7BIT
              12 00000129 FFFFFFE2        14098 37152  37957
 SAMRNAME     80 0000013A FFFFFFE2     C   14147 26287M 26334M 26550  31099
 SAMROPRT      4 00003E0C 00000001     F   25294 26545
 SAMRRPRT      4 00002E8C 00000001     F   21073 22902
 SAMRSEQ       2 0000012C FFFFFFE2     H   14140 39359  39810M
 SAMRSPRT      4 00002B6C 00000001     F   20197 22897
 SAMRTPRT      4 000034E4 00000001     F   22859 22908
 SAMSCMD       2 00000124 FFFFFFE2     C   14066 14424M 14543M 14832M 14910M 15511M 15597M 15679M 16097M 16659M 19735M
                                                 19819M 20056M 20566M 20650M 20932M 21613M 21697M 22001M 22113M 22445M
                                                 22529M 22738M 23413M 23594M 23611M 24122M 28706M 29066M 31261  31307M
                                                 31650M 33402M 33421M 33681  33686  33761  33766  35623
 SAMSCR        2 000028AE 00000001     H   19485 19481
 SAMSEED      32 000000BC FFFFFFE2     C   13937 26420M 26467M 26480M 26551  31119M 31119  31144  31151
 SAMSEG        2 00005C58 00000001     H   34522 17281  22889  26535  30258
 SAMSEXIT      4 00002B02 00000001     I   20099 19939B 20094B
 SAMSG        60 000000E8 FFFFFFE2     X   14062 14481  14508  14537  14571  14849  14875  14904  14938  15459  15474
                                                 15567  15625  15730  16117  16138  16186  16215  16232  16261  16278
                                                 16307  16324  16353  16370  16399  16416  16445  16463  16501  16538
                                                 16690  19685  19700  19804  19838  19865  19905  20084  20516  20531
                                                 20635  20669  20694  20716  20741  20781  20960  21563  21578  21682
                                                 21716  21743  21781  21806  21850  22141  22395  22410  22514  22548
                                                 22588  22766  23338  23353  23482  23634  23661  23738  23758  23800
                                                 23841  23884  23926  23970  27826  27849  27899  27952  28119  28179
                                                 28246  28286  28550  28614  28682  28734  29016  29031  29125  29149
                                                 29171  29195  29217  29241  29263  29287  29324  31324  31350  31367
                                                 31393  31410  31436  31453  31479  31496  31517  31555  31599  33434
                                                 33466  33579  33597  33614  33638  33667  33694  33718  33747  33774
                                                 33792  33905  34019  34134  34159  34201  34254  34276  35812  35914
                                                 36982  37570
 SAMSGCOD      1 000000E8 FFFFFFE2     R   13979 13988  13998  14008  14018  14028  14038  14048
 SAMSGDL       4 000000E0 FFFFFFE2     F   13971 34144  34895  34897M
 SAMSGFLG      1 000000DE FFFFFFE2     R   13943 13947  13952  13957  13962  13967  13973  13973
 SAMSGLENF
               4 000000F4 FFFFFFE2     A   14054 27530M 27530  27923  28217  28585  28638M 28638
 SAMSGSUM      4 000000E4 FFFFFFE2     F   13972 34165  34899  34957M
 SAMSINIT     10 000000DE FFFFFFE2     X   13973 35972M 35972
 SAMSON        2 000016D4 00000001     H   14616 14612
 SAMSPRT       4 00002B44 00000001     F   20176 22883
 SAMSSEQ       2 00000126 FFFFFFE2     H   14068 33623  33703  35604  35607M 39342
 SAMTEST       2 000032F8 00000001     H   22292 22288
 SAMTEXIT      4 000034A0 00000001     I   22781 22621B 22776B
 SAMTRC        2 00001090 00000001     H   12130 30266  34326  36557  40418
 SAMTRIM       2 00007C50 00000001     H   44240 14990  19448  22899  26548  30263
 SAMUNET       4 0000018C FFFFFFE2     A   14148 31083M 31855  31938  32370  33155
 SAMWA     10956 00000000 FFFFFFE2     J   14255 14388U 14796U 15416U 15428M 15480  17175M 17305  17306  19555U 19567M
                                                 19706  20102M 20464U 20476M 20537  20978M 21428U 21440M 21584  22159M
                                                 22352U 22364M 22416  22784M 22909  22912  23019U 23029M 23359  26552
                                                 26557  26680U 26696  27089U 27105  28412U 28428  28742M 28973U 28985M
                                                 29037  30274  30275  30929U 31059U 31845U 32365U 33139U 33565U 33882U
1SAM      (SAM2193) (12:54) (15MAR04) Ordinary Symbol and Literal Cross Reference                                           Page  193
                                                 33996U 34109U 34585U 34601  36082U 36098  36776U 36792  37098  37491U
                                                 37507  38584U 38600  38952U 40057U 40439  40859U 40875  41354U 41370
                                                 42242U 42258  43012U 43028
 SAMWEXIT      2 00004850 00000001     H   28331 27289B
 SAMWKBUF   2048 000002CC FFFFFFE2     X   14245 34705  34731  35059  35064  35507  35512  36396  36493  36548  37270M
                                                 37271M 37272  37283  37803  37908  37942  38629  38634  40442
 SAMWRAPL      2 000000DC FFFFFFE2     H   13939 23398M 23398  23405M 23746  25164M 25260M 26240  36262  36378
 SAMWRBUF   2048 00000ACC FFFFFFE2     X   14246 15446  15451  19672  19677  20503  20508  21550  21555  22382  22387
                                                 23325  23330  29003  29008
 SAMWRITE      2 00004538 00000001     H   27044 27040
 SAM2193       1 00000000 00000001     R    1013  1011
 SAVEDATA      1 00000000 0000001C     T   17300 17300
 SCANCHK       1 00000000 00000007     T   12015 12015  22885  26530
 SCNNOOP       1 00000000 00000020     T   17614 17614  20224  21115  22273  22871  25486  29566
 SDSNQSZ       1 0000002C FFFFFFEC A   U    6089  6090   6091
 SECHEXIT      6 00004DF2 00000001     I   30196 30100B 30171B
 SECHRESP      4 00004DE4 00000001     I   30175 30145B
 SECHTRM      14 00000000 FFFFFFDE     X   29842 29921M 30196
 SECHWA       14 00000000 FFFFFFDE     J   29849 29871  29900U 30218  30220  30221
 SEG           1 00000000 0000000A     T   12022 12022  13748  14984  17292  22894  26531  30244  34331  36561  40401
 SEGB          1 00000000 00000010     T   13747 13747
 SEGCB        60 00000000 FFFFFFE5     J    7465 34630U
 SEGCBCLR      3 00000000 FFFFFFE5         7405 35960
 SEGCBCOD      1 00000000 FFFFFFE5     R    7376  7385   7395   7405   7415   7425   7435   7445
 SEGCBLENF
               4 0000000C FFFFFFE5     A    7451 35040  35173
 SEGCBLOC      4 00000020 FFFFFFE5     A    7455 35035  35168
 SEGCBSEG      1 00000000 FFFFFFE5         7385 34646
 SEGCBWR       2 00000000 FFFFFFE5         7395 34980  35948
 SEGCLR        1 00000000 00000027     T   30264 30264  34350  36572  40432
 SEGCR         1 00000000 00000009     T   12021 12021  13745  14985  22906  30245  34339  36569  40434
 SEGDC         1 00000000 0000000D     T   12026 12026  13749  17293  26541  30242  34332  40435
 SEGEOD        2 000058A4 00000001     H   33952 22895  26543  30253  34334
 SEGEXIT       2 00005FEE 00000001     H   35985 34963B 35011B 35894B
 SEGHEAD       2 00005786 00000001     H   33521 14989  17283  22891  26537  30247  34330  40402
 SEGHX         1 00000000 00000034     T   34353 34353
 SEGINIT       1 00000000 00000016     T   17280 17280  22888  26534  30257  36558  40399
 SEGINITR      1 00000000 00000017     T   17282 17282  22890  26536  30259
 SEGMARK       1 00000000 00000028     T   30265 30265  36562
 SEGRSEND      2 00005D84 00000001     H   34996 35441B 35453B 35660B
 SEGSEND       2 00005D9A 00000001     H   35026 34989B
 SEGSEP        2 00005862 00000001     H   33838 17294  22901  26540  30260  34333
 SEGSREAD      2 00005E4C 00000001     H   35320 35596B
 SEGT          1 00000000 0000000C     T   12024 12024  14993  22907  40431
 SEGTRAIL      2 000058E6 00000001     H   34065 14994  17284  22892  26538  30251  34335  40403
 SEGWR         1 00000000 00000013     T   14995 14995  17285  22893  26539  30252  34336  36560  40404
 SETFNAME      2 000050B6 00000001     H   30870 22887  26533
 SETPRT        4 0000011C 00000001     F    7856 12013
 SETSAM        2 00000016 00000001     H    7544  7540
 SETSCKEY      1 00000000 0000002C     T   34329 34329
 SFILE         2 00002BBC 00000001     H   20231 20209
 SHOWPRT       4 00000EBC 00000001     F   11969 12020
 SHOWSAM       2 000008EC 00000001     H    9791  9787
 SHOWTRC       2 0000126E 00000001     H   12817 11981
 SINVPGM       8 00000098 FFFFFFE6     C    7327  7333   7333
 SMRNAME     272 00000000 FFFFFFDD     X   30323 30461  30596
 SMRWA       272 00000000 FFFFFFDD     J   30330 30353  30382U 30846  30848  30849
 SNETCLS       2 00005678 00000001     H   33095 28464B
 SNETOPEN      2 000050FA 00000001     H   31015 26546
1SAM      (SAM2193) (12:54) (15MAR04) Ordinary Symbol and Literal Cross Reference                                           Page  194
 SNETREAD      2 0000534A 00000001     H   31801 26732B
 SNETWR        2 00005494 00000001     H   32321 27288B
 SNOPEXIT      2 0000533C 00000001     H   31756 31634B 31655B
 SNOPNERR      2 000052E4 00000001     H   31661 31082B 31105B 31648B
 SPECTRT     256 00007B50 00000001     X   44197 41943  42367  42672  43118  44198  44200  44203  44205  44208  44210
                                                 44213  44215  44218  44220  44223  44225
 SPLIT         2 00003DCA 00000001     H   25194 24374
 SPR          13 0000000D 00000001 A   #    1126  7551   7554   7556   7557M  7557   7840M  7844   7846   8226   8229
                                                  8230   8231M  8231   8278M  8282   8284   8299   8302   8303   8304M
                                                  8304   8346M  8350   8352   8367   8370   8371   8372M  8372   8419M
                                                  8423   8425   8440   8443   8444   8445M  8445   8491M  8495   8497
                                                  8512   8515   8516   8517M  8517   8576M  8580   8582   8597   8600
                                                  8601   8602M  8602   8661M  8665   8667   8682   8685   8686   8687M
                                                  8687   8740M  8744   8746   8761   8764   8765   8766M  8766   8825M
                                                  8829   8831   8846   8849   8850   8851M  8851   8910M  8914   8916
                                                  8931   8934   8935   8936M  8936   8995M  8999   9001   9016   9019
                                                  9020   9021M  9021   9074M  9078   9080   9095   9098   9099   9100M
                                                  9100   9143M  9147   9149   9164   9167   9168   9169M  9169   9209M
                                                  9213   9215   9230   9233   9234   9235M  9235   9276M  9280   9282
                                                  9297   9300   9301   9302M  9302   9343M  9347   9349   9364   9367
                                                  9368   9369M  9369   9409M  9413   9415   9430   9433   9434   9435M
                                                  9435   9475M  9479   9481   9496   9499   9500   9501M  9501   9542M
                                                  9546   9548   9563   9566   9567   9568M  9568   9608M  9612   9614
                                                  9629   9632   9633   9634M  9634   9675M  9679   9681   9696   9699
                                                  9700   9701M  9701   9762M  9766   9768   9797   9800   9801   9802M
                                                  9802  11954M 11958  11960  12136  12139  12140  12141M 12141  12418M
                                                 12422  12424  12451  12454  12455  12456M 12456  12798M 12802  12804
                                                 12823  12826  12827  12828M 12828  13718M 13722  13724  14275  14278
                                                 14279  14280M 14280  14589M 14593  14595  14622  14625  14626  14627M
                                                 14627  14956M 14960  14962  15026  15029  15030  15031M 15031  15081M
                                                 15085  15087  15232  15235  15237  15238M 15238  17252M 17256  17258
                                                 17626  17629  17630  17631M 17631  17739M 17743  17745  17760  17763
                                                 17764  17765M 17765  17873M 17877  17879  17894  17897  17898  17899M
                                                 17899  18007M 18011  18013  18028  18031  18032  18033M 18033  18068M
                                                 18072  18074  18089  18092  18093  18094M 18094  18129M 18133  18135
                                                 18150  18153  18154  18155M 18155  18190M 18194  18196  18211  18214
                                                 18215  18216M 18216  18411M 18415  18417  18432  18435  18436  18437M
                                                 18437  18545M 18549  18551  18566  18569  18570  18571M 18571  18680M
                                                 18684  18686  18701  18704  18705  18706M 18706  18814M 18818  18820
                                                 18835  18838  18839  18840M 18840  18948M 18952  18954  18969  18972
                                                 18973  18974M 18974  19009M 19013  19015  19030  19033  19034  19035M
                                                 19035  19070M 19074  19076  19091  19094  19095  19096M 19096  19263M
                                                 19267  19269  19284  19287  19288  19289M 19289  19420M 19424  19426
                                                 19491  19494  19495  19496M 19496  20159M 20163  20165  20237  20240
                                                 20241  20242M 20242  20352M 20356  20358  20395  20398  20399  20400M
                                                 20400  21035M 21039  21041  21128  21131  21132  21133M 21133  21184M
                                                 21188  21190  21206  21209  21210  21211M 21211  21321M 21325  21327
                                                 21362  21365  21366  21367M 21367  22216M 22220  22222  22298  22301
                                                 22302  22303M 22303  22841M 22845  22847  22957  22960  22961  22962M
                                                 22962  24180M 24184  24186  24402  24405  24406  24407M 24407  24447M
                                                 24451  24453  24469  24472  24473  24474M 24474  24515M 24519  24521
                                                 24537  24540  24541  24542M 24542  24590M 24594  24596  24612  24615
                                                 24616  24617M 24617  24663M 24667  24669  24685  24688  24689  24690M
                                                 24690  24730M 24734  24736  24752  24755  24756  24757M 24757  24797M
                                                 24801  24803  24819  24822  24823  24824M 24824  24867M 24871  24873
                                                 24889  24892  24893  24894M 24894  24941M 24945  24947  24963  24966
                                                 24967  24968M 24968  25015M 25019  25021  25037  25040  25041  25042M
                                                 25042  25082M 25086  25088  25103  25106  25107  25108M 25108  25179M
                                                 25183  25185  25200  25203  25204  25205M 25205  25275M 25279  25281
1SAM      (SAM2193) (12:54) (15MAR04) Ordinary Symbol and Literal Cross Reference                                           Page  195
                                                 25498  25501  25502  25503M 25503  25613M 25617  25619  25634  25637
                                                 25638  25639M 25639  25679M 25683  25685  25700  25703  25704  25705M
                                                 25705  25748M 25752  25754  25769  25772  25773  25774M 25774  25815M
                                                 25819  25821  25836  25839  25840  25841M 25841  25881M 25885  25887
                                                 25902  25905  25906  25907M 25907  25948M 25952  25954  25969  25972
                                                 25973  25974M 25974  26023M 26027  26029  26044  26047  26048  26049M
                                                 26049  26089M 26093  26095  26110  26113  26114  26115M 26115  26156M
                                                 26160  26162  26177  26180  26181  26182M 26182  26357M 26361  26363
                                                 26378  26381  26382  26383M 26383  26492M 26496  26498  26627  26630
                                                 26632  26633M 26633  27017M 27021  27023  27050  27053  27054  27055M
                                                 27055  28344M 28348  28350  28373  28376  28377  28378M 28378  28796M
                                                 28800  28802  28859  28862  28864  28865M 28865  29509M 29513  29515
                                                 29579  29582  29583  29584M 29584  29680M 29684  29686  29702  29705
                                                 29706  29707M 29707  29803M 29807  29809  29865  29868  29870  29871M
                                                 29871  30214M 30218  30220  30347  30350  30352  30353M 30353  30842M
                                                 30846  30848  30876  30879  30880  30881M 30881  30995M 30999  31001
                                                 31021  31024  31025  31026M 31026  31774M 31778  31780  31807  31810
                                                 31811  31812M 31812  32295M 32299  32301  32327  32330  32331  32332M
                                                 32332  33071M 33075  33077  33101  33104  33105  33106M 33106  33500M
                                                 33504  33506  33527  33530  33531  33532M 33532  33819M 33823  33825
                                                 33844  33847  33848  33849M 33849  33932M 33936  33938  33958  33961
                                                 33962  33963M 33963  34046M 34050  34052  34071  34074  34075  34076M
                                                 34076  34296M 34300  34302  34528  34531  34533  34534M 34534  36008M
                                                 36012  36014  36043  36046  36047  36048M 36048  36527M 36531  36533
                                                 36719  36722  36724  36725M 36725  37368M 37372  37374  37434  37437
                                                 37439  37440M 37440  38396M 38400  38402  38536  38539  38541  38542M
                                                 38542  38827M 38831  38833  38904  38907  38909  38910M 38910  39988M
                                                 39992  39994  40019  40022  40023  40024M 40024  40366M 40370  40372
                                                 40508  40511  40513  40514M 40514  40747M 40751  40753  40810  40813
                                                 40815  40816M 40816  41242M 41246  41248  41305  41308  41310  41311M
                                                 41311  41696M 41700  41702  41729  41732  41733  41734M 41734  41776M
                                                 41780  41782  41837  41840  41842  41843M 41843  42132M 42136  42138
                                                 42193  42196  42198  42199M 42199  42902M 42906  42908  42963  42966
                                                 42968  42969M 42969  43338M 43342  43344  43400  43403  43405  43406M
                                                 43406  43593M 43597  43599  43625  43628  43629  43630M 43630  43730M
                                                 43734  43736  43762  43765  43766  43767M 43767  43866M 43870  43872
                                                 43940  43943  43944  43945M 43945  44013M 44017  44019  44049  44052
                                                 44053  44054M 44054  44143M 44147  44149  44246  44249  44250  44251M
                                                 44251  44347M 44351  44353
 SRDLEN        4 00000004 FFFFFFE0     F   26604 26668M 26964
 SRDLOC        4 00000000 FFFFFFE0     F   26603 26667M 26963  26989
 SRDWA         8 00000000 FFFFFFE0     J   26611 26633  26662U 27021  27023  27024
 SSAMBUFF      4 00000004 FFFFFFE4     F    7523  7608M  7696   8261M
 SSAMCODE      1 00000001 FFFFFFE4     X    7522  7610M  7698   8553M  8559M  8638M  8644M  8723M  8802M  8808M  8887M
                                                  8893M  8972M  8978M  9057M
 SSAMFLAG      1 00000000 FFFFFFE4     R    7484  7488   7493   7498   7503   7508   7513   7518
 SSAMFRESET
              64 00000000 FFFFFFE4         7493  7663   8474M
 SSAMFSET    128 00000000 FFFFFFE4         7488  7690   8260M  8401M  8480M  8546M  8631M  8716M  8795M  8880M  8965M
                                                  9050M  9131   9131   9132M
 SSAMFTIME
              32 00000000 FFFFFFE4         7498  9131   9131
 SSAMFUBUFFER
              16 00000000 FFFFFFE4         7503  7708   8267M
 SSAMFUCHECK
               2 00000000 FFFFFFE4         7518  7786   8899M  8984M  9063M
 SSAMFUENCODE
               4 00000000 FFFFFFE4         7513  7760   8565M  8650M  8729M  8814M
 SSAMFUTMOUT
1SAM      (SAM2193) (12:54) (15MAR04) Ordinary Symbol and Literal Cross Reference                                           Page  196
               8 00000000 FFFFFFE4         7508  7734   8408M
 SSAMTMO       2 00000008 FFFFFFE4     H    7524  7609M  7697   8402M
 SSAMWA       10 00000000 FFFFFFE4     J    7531  7557   7586U  7590   7598U  7606M  7606   7844   7846   7847
 SSGCB        60 00000008 FFFFFFDC     X   34505 35048M 35335  35497M
 SSGCBCOD      1 00000008 FFFFFFDC     R   34422 34431  34441  34451  34461  34471  34481  34491
 SSGCBRTN      4 0000002C FFFFFFDC     A   34502 35077  35525
 SSGFLAG       1 00000000 FFFFFFDC     R   34408 34412
 SSGFQUIET
             128 00000000 FFFFFFDC        34412 35101M 35346  35548M
 SSGTMOUT      4 00000004 FFFFFFDC     F   34416 34988M 35329  35491M 35491
 SSGTRM       14 00000044 FFFFFFDC     X   34507 35079M 35336  35526M
 SSGWA        82 00000000 FFFFFFDC     J   34514 34534  34563U 34573M 34573  36012  36014  36015
 STREAM        2 00003D5C 00000001     H   25031 24344
 SXBUF         2 000004DC 00000001     H    8220  7868
 SXCHECK       2 000006B8 00000001     H    8925  8048
 SXCRC         2 00000680 00000001     H    8840  8033
 SXCRYPT       2 000007A8 00000001     H    9291  8108
 SXDEBUG       2 00000800 00000001     H    9424  8138
 SXFAST        2 0000077C 00000001     H    9224  8093
 SXHEX         2 00000648 00000001     H    8755  8018
 SXNCRYPT      2 000007D4 00000001     H    9358  8123
 SXNOCHK       2 000006F0 00000001     H    9010  8063
 SXNODBUG      2 0000082C 00000001     H    9490  8153
 SXNOTMO       2 00000510 00000001     H    8293  7943
 SXNOTRC       2 00000884 00000001     H    9623  8183
 SXPACKED      2 000005DC 00000001     H    8591  7988
 SXRESET       2 00000574 00000001     H    8434  7913
 SXSLOW        2 00000750 00000001     H    9158  8078
 SXTCLR        2 000008B0 00000001     H    9690  8198
 SXTIME        2 00000724 00000001     H    9089  7883   7898
 SXTMOUT       2 00000540 00000001     H    8361  7928  12018
 SXTRC         2 00000858 00000001     H    9557  8168
 SX7BIT        2 000005A4 00000001     H    8506  7958   7973
 SX8BIT        2 00000614 00000001     H    8676  8003
 TABS          2 00003BC0 00000001     H   24396 24209
 TEXTONLY      2 00003C78 00000001     H   24679 24269
 TOASCII       1 00000000 00000032     T   34347 34347
 TOEBCDIC      1 00000000 00000026     T   30250 30250  40410  43891
 TRANS         2 00003CA4 00000001     H   24746 24284
 TRC           1 00000000 00000000 A   T    2130  2130
 TREAD         1 00000000 00000029     T   30267 30267  36563  40415
 TTYFLAG       1 00000004 FFFFFFEA     R    6218  6222
 TTYMAX#       1 00000006 FFFFFFEA A   U    6274  6275
 TTYTFLAG      1 00000005 FFFFFFEA     R    6228  6232   6237   6242   6247   6252   6257   6262
 UNET        632 00000000 FFFFFFE7     J    7282 31095U 31100  31643  31865U 31886  32380U 33048U 33171U 33287  33319
                                                 33394
 UNETACCT      5 00000004 FFFFFFE7     C    6839  6840   6841
 UNETAFLG1
               1 00000163 FFFFFFE7     R    7084  7088   7093   7098
 UNETAFLG2
               1 00000164 FFFFFFE7     R    7104  7108   7113   7118   7123   7128   7133   7138   7143
 UNETAFLG3
               1 00000165 FFFFFFE7     R    7149  7153   7158   7163
 UNETBUF#      1 00000FA0 FFFFFFE7 A   N    6931 34358
 UNETFASCII8
              32 0000002D FFFFFFE7         6910 31192M
 UNETFCRYPT
             128 0000002D FFFFFFE7         6900 31163M 31532
 UNETFINEOF
1SAM      (SAM2193) (12:54) (15MAR04) Ordinary Symbol and Literal Cross Reference                                           Page  197
               4 00000164 FFFFFFE7         7133 33308
 UNETFKEEPTABS
              32 00000165 FFFFFFE7         7163 31232M
 UNETFLG1      1 0000002C FFFFFFE7     R    6856  6860   6865   6870   6875   6880   6885   6890
 UNETFLG2      1 0000002D FFFFFFE7     R    6896  6900   6905   6910   6915
 UNETFNOXL
              64 00000104 FFFFFFE7         6946 32755M 32789M
 UNETFOUTABORT
              32 00000164 FFFFFFE7         7118 33201  33201
 UNETFOUTEOF
              64 00000164 FFFFFFE7         7113 31879  33201  33201  33202
 UNETFSAMDATA
              64 0000002D FFFFFFE7         6905 31294M
 UNETINCRYPT
              64 0000007C FFFFFFE7     X    6926 31145
 UNETINMODE
               1 00000166 FFFFFFE7     R    7169  7178   7188
 UNETLIP       4 00000174 FFFFFFE7     F    7223 31337  31380  31423  31466
 UNETLPORT
               4 00000178 FFFFFFE7     F    7224 31505
 UNETOUTCRYPT
              64 000000BC FFFFFFE7     X    6927 31152
 UNETOUTMODE
               1 00000167 FFFFFFE7     R    7194  7203   7213
 UNETOUTSG
              60 0000010C FFFFFFE7     X    7050 32420  32477  32494  32778  33259  33280
 UNETOUTSGCOD
               1 0000010C FFFFFFE7     R    6967  6976   6986   6996   7006   7016   7026   7036
 UNETOUTSGLENF
               4 00000118 FFFFFFE7     A    7042 33233M 33233
 UNETRNAME
              80 0000017C FFFFFFE7     C    7226 14147  31099M
 UNETSFDATA
               1 00000006 FFFFFFE7 A   U    7069 33318
 UNETSFOPEN
               1 00000004 FFFFFFE7 A   U    7067 31642
 UNETSGFLG
               1 00000104 FFFFFFE7     R    6937  6941   6946   6951   6956   6959   6959
 UNETVFLG1
               1 0000021C FFFFFFE7     R    7242  7246
 UNFMT         2 00003C48 00000001     H   24606 24239
 UNFORML       1 00000000 00000023     T   30241 30241
 UPDCPSIB      1 00000000 0000001D     T   17302 17302
 UPPTBL        1 00000000 00000000 A   T    2193  2193
 WAITER        1 00000000 00000018     T   17286 17286  40417
 WAR           8 00000008 00000001 A   #    1049  7556M  7840   8230M  8278   8303M  8346   8371M  8419   8444M  8491
                                                  8516M  8576   8601M  8661   8686M  8740   8765M  8825   8850M  8910
                                                  8935M  8995   9020M  9074   9099M  9143   9168M  9209   9234M  9276
                                                  9301M  9343   9368M  9409   9434M  9475   9500M  9542   9567M  9608
                                                  9633M  9675   9700M  9762   9801M 11954  12140M 12418  12455M 12798
                                                 12827M 13718  14279M 14589  14626M 14956  15030M 15081  15237M 17252
                                                 17630M 17739  17764M 17873  17898M 18007  18032M 18068  18093M 18129
                                                 18154M 18190  18215M 18411  18436M 18545  18570M 18680  18705M 18814
                                                 18839M 18948  18973M 19009  19034M 19070  19095M 19263  19288M 19420
                                                 19495M 20159  20241M 20352  20399M 21035  21132M 21184  21210M 21321
                                                 21366M 22216  22302M 22841  22961M 24180  24406M 24447  24473M 24515
                                                 24541M 24590  24616M 24663  24689M 24730  24756M 24797  24823M 24867
                                                 24893M 24941  24967M 25015  25041M 25082  25107M 25179  25204M 25275
                                                 25502M 25613  25638M 25679  25704M 25748  25773M 25815  25840M 25881
1SAM      (SAM2193) (12:54) (15MAR04) Ordinary Symbol and Literal Cross Reference                                           Page  198
                                                 25906M 25948  25973M 26023  26048M 26089  26114M 26156  26181M 26357
                                                 26382M 26492  26632M 26992  27017  27054M 28344  28377M 28796  28864M
                                                 29488  29509  29583M 29680  29706M 29803  29870M 30198  30214  30352M
                                                 30842  30880M 30995  31025M 31774  31811M 32279  32295  32331M 33071
                                                 33105M 33500  33531M 33819  33848M 33932  33962M 34046  34075M 34296
                                                 34533M 36008  36047M 36511  36527  36724M 37317  37368  37439M 38375
                                                 38396  38541M 38827  38909M 39988  40023M 40366  40513M 40731  40747
                                                 40815M 41220  41242  41310M 41674  41696  41733M 41776  41842M 42116
                                                 42132  42198M 42881  42902  42968M 43317  43338  43405M 43577  43593
                                                 43629M 43730  43766M 43866  43944M 44013  44053M 44143  44250M 44336
                                                 44347
 WRAP          2 00003D88 00000001     H   25097 24359
 WTOSG         1 00000000 00000000 A   T    2090  2090
 WYLSAM        1 00000000 00000001     J    1003  1005   1031   1044   1057   1069   1082   1095   1108   1121   1134
                                                  1147   2374   2458   6198   6310   6590   6821   7283   7360   7466
                                                  7471   7532
 XTB           1 00000000 00000036     T   40425 40425  43887
 XTRC         26 00000000 FFFFFFE3     J   12110 12202U 12213M 12531U 12647  12673U 12689  12706  12728U 12745  12762M
                                                 12765  12926  12942U 13020
 XTRCACCT      5 00000012 FFFFFFE3     C   12078 12331M 13150  13198
 XTRCCLCK      8 00000008 FFFFFFE3     D   12075 12219M 13036
 XTRCDATA      1 0000001A FFFFFFE3     X   12103 12341  13445
 XTRCDLEN      2 00000018 FFFFFFE3     H   12100 12333M 12767  13342  13403
 XTRCFIN      64 00000017 FFFFFFE3        12091 12272M 13256
 XTRCFLAG      1 00000017 FFFFFFE3     R   12082 12086  12091  12096
 XTRCFMSG     32 00000017 FFFFFFE3        12096 12300M 13280  13461
 XTRCFOUT    128 00000017 FFFFFFE3        12086 12244M 13232
 XTRCHDR      26 00000000 FFFFFFE3     X   12101 12212M 12212  12766  13755
 XTRCLINK      4 00000004 FFFFFFE3     A   12074 12214M 12559M 12559  12594  12647  12706M 12706  12763M 12926  12956
 XTRCSNO       2 00000010 FFFFFFE3     H   12077 12322M 13090
 XTRCSTRT      4 00000000 FFFFFFE3     C   12073 12101  12101
 YESNO         1 00000000 00000024     T   30246 30246  34349
 =A(-8)        4 000061A4 00000001     A   36567 35478
 =A(ASCSTRT)
               4 00006C64 00000001     A   40412 37666
 =A(CHECKCRC)
               4 00006174 00000001     A   36555 34951
 =A(CHECKCRC)
               4 00006CA4 00000001     A   40428 39651
 =A(CHECKSUM)
               4 00006170 00000001     A   36554 34918
 =A(CHECKSUM)
               4 00006CA8 00000001     A   40429 39732
 =A(CLRHIBIT)
               4 00006CA0 00000001     A   40427 39608
 =A(FREEXTRC)
               4 00000F98 00000001     A   12019  9745
 =A(INDATA)
               4 00006C58 00000001     A   40409 37247  38052
 =A(INHEX)
               4 00006C54 00000001     A   40408 37227  38032
 =A(INLINE)
               4 00001FD8 00000001     A   17287 15763  16570
 =A(INLINE)
               4 00003554 00000001     A   22896 19971  20847  21916  22011  22653
 =A(INLINE)
               4 00004330 00000001     A   26544 24036
 =A(INLINE)
               4 00004E90 00000001     A   30238 26783  29356
1SAM      (SAM2193) (12:54) (15MAR04) Ordinary Symbol and Literal Cross Reference                                           Page  199
 =A(INLINE)
               4 000061B0 00000001     A   36570 35735  36138  36209
 =A(INPACK)
               4 00006C50 00000001     A   40407 37194  37999
 =A(INPRETRY)
               4 0000619C 00000001     A   36565 35422
 =A(INPROC)
               4 000061A0 00000001     A   36566 35451
 =A(INREADY)
               4 00006178 00000001     A   36556 35019
 =A(INTEXT)
               4 00004E98 00000001     A   30240 26868
 =A(INTRAN)
               4 00004E94 00000001     A   30239 26824
 =A(IN7BIT)
               4 00006C4C 00000001     A   40406 37161  37966
 =A(L'CPSAMFONT)
               4 00002860 00000001     A   19456 18747  18759
 =A(L'CPSAMFONT-7)
               4 0000285C 00000001     A   19455 18613  18625
 =A(L'CPSAMLPR)
               4 00002864 00000001     A   19457 18881  18893
 =A(L'CPSAMOS)
               4 00002848 00000001     A   19450 17806  17818
 =A(L'CPSAMTRM)
               4 00002858 00000001     A   19454 18478  18490
 =A(L'CPSAMTYP)
               4 00002844 00000001     A   19449 17672  17684
 =A(L'CPSAMVER)
               4 0000284C 00000001     A   19451 17940  17952
 =A(L'FFRNAME)
               4 00003564 00000001     A   22900 20284  20296  21253  21265
 =A(L'FFRNAME)
               4 00004344 00000001     A   26549 25545  25557
 =A(L'FFRNAME)
               4 00005A6C 00000001     A   34325 30552  30564
 =A(L'INPHEAD)
               4 00006C94 00000001     A   40424 39192
 =A(L'SAMRDBUF)
               4 00006CAC 00000001     A   40430 39833
 =A(L'SAMRNAME)
               4 00004348 00000001     A   26550 26291  26303
 =A(L'SAMSEED)
               4 0000434C 00000001     A   26551 26424  26436
 =A(L'SAMWKBUF)
               4 00006158 00000001     A   36548 34679
 =A(OUTDATA)
               4 0000616C 00000001     A   36553 34882
 =A(OUTHEX)
               4 00006168 00000001     A   36552 34862
 =A(OUTPACK)
               4 00006164 00000001     A   36551 34829
 =A(OUTTRAN)
               4 0000615C 00000001     A   36549 34739
 =A(OUTTRAN)
               4 0000777C 00000001     A   43894 42046  43574
 =A(OUT7BIT)
               4 00006160 00000001     A   36550 34796
 =A(SAMDIPRT)
1SAM      (SAM2193) (12:54) (15MAR04) Ordinary Symbol and Literal Cross Reference                                           Page  200
               4 00004EEC 00000001     A   30261 29410
 =A(SAMDPRT)
               4 00003570 00000001     A   22903 21499
 =A(SAMECHO)
               4 00001FE8 00000001     A   17291 15900
 =A(SAMOPEN)
               4 00001860 00000001     A   14988 14378  14786
 =A(SAMOPRT)
               4 000042E8 00000001     A   26528 23086
 =A(SAMPARMS)
               4 00000F90 00000001     A   12017  7817
 =A(SAMPPRT)
               4 00001FDC 00000001     A   17288 15817  16624
 =A(SAMRDPRT)
               4 00003578 00000001     A   22905 21970
 =A(SAMROPRT)
               4 00004334 00000001     A   26545 24090
 =A(SAMRRPRT)
               4 0000356C 00000001     A   22902 20901
 =A(SAMRSPRT)
               4 00003558 00000001     A   22897 20025
 =A(SAMRTPRT)
               4 00003584 00000001     A   22908 22707
 =A(SAMSEG)
               4 00001FC0 00000001     A   17281 15466
 =A(SAMSEG)
               4 00003538 00000001     A   22889 19692  20523  21570  22402
 =A(SAMSEG)
               4 00004304 00000001     A   26535 23345
 =A(SAMSEG)
               4 00004EE0 00000001     A   30258 29023
 =A(SAMSPRT)
               4 00003520 00000001     A   22883 19624
 =A(SAMTRC)
               4 00004F00 00000001     A   30266 30078  30108
 =A(SAMTRC)
               4 00005A70 00000001     A   34326 31071  33183
 =A(SAMTRC)
               4 0000617C 00000001     A   36557 35043
 =A(SAMTRC)
               4 00006C7C 00000001     A   40418 38980
 =A(SAMTRIM)
               4 00001868 00000001     A   14990 14441  14728
 =A(SAMTRIM)
               4 00002840 00000001     A   19448 17667  17801  17935  18473  18607  18742  18876
 =A(SAMTRIM)
               4 00003560 00000001     A   22899 20277  21168  21246
 =A(SAMTRIM)
               4 00004340 00000001     A   26548 25538  26279  26418
 =A(SAMTRIM)
               4 00004EF4 00000001     A   30263 29619  29742
 =A(SEGEOD)
               4 00003550 00000001     A   22895 19873  20749  21818  22556
 =A(SEGEOD)
               4 0000432C 00000001     A   26543 23938
 =A(SEGEOD)
               4 00004ECC 00000001     A   30253 28656  29299
 =A(SEGEOD)
               4 00005A90 00000001     A   34334 31567
1SAM      (SAM2193) (12:54) (15MAR04) Ordinary Symbol and Literal Cross Reference                                           Page  201
 =A(SEGHEAD)
               4 00001864 00000001     A   14989 14427  14546  14835  14913
 =A(SEGHEAD)
               4 00001FC8 00000001     A   17283 15514  15600  15682  16100  16662
 =A(SEGHEAD)
               4 00003540 00000001     A   22891 19779  19822  20059  20610  20653  20935  21657  21700  22116  22489
                                                 22532  22741
 =A(SEGHEAD)
               4 0000430C 00000001     A   26537 23457  23618
 =A(SEGHEAD)
               4 00004EB4 00000001     A   30247 27539  27959  28253  28647  28709  29110
 =A(SEGHEAD)
               4 00005A80 00000001     A   34330 31310  33441
 =A(SEGHEAD)
               4 00006C3C 00000001     A   40402 36957  37545
 =A(SEGSEP)
               4 00001FF4 00000001     A   17294 16145  16508
 =A(SEGSEP)
               4 00003568 00000001     A   22901 20701  21767
 =A(SEGSEP)
               4 00004318 00000001     A   26540 23690  23786  23827  23870  23912
 =A(SEGSEP)
               4 00004EE8 00000001     A   30260 29156  29202  29248  29294
 =A(SEGSEP)
               4 00005A8C 00000001     A   34333 31541
 =A(SEGTRAIL)
               4 00001878 00000001     A   14994 14516  14550  14883  14917
 =A(SEGTRAIL)
               4 00001FCC 00000001     A   17284 15518  15604  15686  16517  16666
 =A(SEGTRAIL)
               4 00003544 00000001     A   22892 19783  19878  20063  20614  20754  20939  21661  21823  22120  22493
                                                 22561  22745
 =A(SEGTRAIL)
               4 00004310 00000001     A   26538 23461  23943
 =A(SEGTRAIL)
               4 00004EC4 00000001     A   30251 27931  28225  28593  28661  28713  29303
 =A(SEGTRAIL)
               4 00005A94 00000001     A   34335 31572  33445
 =A(SEGTRAIL)
               4 00006C40 00000001     A   40403 36961  37549
 =A(SETFNAME)
               4 00003530 00000001     A   22887 19660  21537
 =A(SETFNAME)
               4 000042FC 00000001     A   26533 23309
 =A(SETPRT)
               4 00000F80 00000001     A   12013  7631
 =A(SHOWPRT)
               4 00000F9C 00000001     A   12020  9843
 =A(SNETOPEN)
               4 00004338 00000001     A   26546 24147
 =A(SXTMOUT)
               4 00000F94 00000001     A   12018  8334
 =A(X'F')      4 000061A8 00000001     A   36568 35606
 =A(X'FF')
               4 00006C9C 00000001     A   40426 39534
 =A(X'FF')
               4 00007CA8 00000001     A   44365 44002  44105
 =A(X'FFFF')
               4 00007CAC 00000001     A   44366 44119
1SAM      (SAM2193) (12:54) (15MAR04) Ordinary Symbol and Literal Cross Reference                                           Page  202
 =A(X'7F')
               4 00007768 00000001     A   43889 41165
 =A(X'80')
               4 00007764 00000001     A   43888 41141  43200  43228
 =A(0)         4 000014F0 00000001     A   13739 12232
 =A(1)         4 000014F4 00000001     A   13740 12260
 =A(1)         4 00005A68 00000001     A   34324 30505  30549  30642  30768
 =A(1)         4 00007780 00000001     A   43895 42453
 =A(1)         4 00007CB0 00000001     A   44367 44323
 =A(101)       4 00006198 00000001     A   36564 35408
 =A(101)       4 00006C74 00000001     A   40416 38758
 =A(1200)      4 00001FB0 00000001     A   17277 15380
 =A(1200)      4 00002850 00000001     A   19452 18291
 =A(128)       4 00001FAC 00000001     A   17276 15357
 =A(2)         4 000014F8 00000001     A   13741 12288
 =A(2)         4 00004EB8 00000001     A   30248 27580  29455
 =A(2)         4 00005AC4 00000001     A   34345 32534
 =A(2)         4 00006C48 00000001     A   40405 37047
 =A(2048)      4 0000776C 00000001     A   43890 41202  41656  42098  42862  43298
 =A(256)       4 00001524 00000001     A   13752 13491  13503
 =A(256)       4 00006C60 00000001     A   40411 37648  37660  38127  38139
 =A(256)       4 00007758 00000001     A   43885 40574  40586  41910  41922  43675  43687  43810  43822
 =A(3)         4 0000775C 00000001     A   43886 40626  42514
 =A(4)         4 00006C80 00000001     A   40419 39048
 =A(4)         4 00007784 00000001     A   43896 42743  43519  43531
 =A(4000)      4 0000151C 00000001     A   13750 13406  13418
 =A(4800)      4 00002854 00000001     A   19453 18323
 =A(6)         4 00004F08 00000001     A   30268 30125
 =A(64)        4 00001528 00000001     A   13753 13565  13577
 =A(64)        4 00006184 00000001     A   36559 35186
 =A(8)         4 00005ABC 00000001     A   34343 32095
 =A(8)         4 000061B4 00000001     A   36571 35748
 =AL2(L'INPHEAD)
               2 00006CD8 00000001     R   40446 39417
 =AL2(L'SAMINBUF)
               2 00002022 00000001     R   17307 15482
 =AL2(L'SAMINBUF)
               2 00003590 00000001     R   22913 19708  20539  21586  22418
 =AL2(L'SAMINBUF)
               2 000043A4 00000001     R   26558 23361
 =AL2(L'SAMINBUF)
               2 00004F1A 00000001     R   30276 29039
 =AL2(L'SAMWA)
               2 0000201E 00000001     R   17305 15400
 =AL2(L'SAMWA)
               2 00003588 00000001     R   22909 19539  20448  21412  22336
 =AL2(L'SAMWA)
               2 00004350 00000001     R   26552 23005
 =AL2(L'SAMWA)
               2 00004F16 00000001     R   30274 28957
 =AL2(L'SAMWKBUF)
               2 00006CD0 00000001     R   40442 38242  38337
 =AL2(L'XTRCHDR)
               2 00001530 00000001     R   13755 12187
 =AL2(SAMINBUF-SAMWA)
               2 00002020 00000001     R   17306 15481
 =AL2(SAMINBUF-SAMWA)
               2 0000358E 00000001     R   22912 19707  20538  21585  22417
 =AL2(SAMINBUF-SAMWA)
1SAM      (SAM2193) (12:54) (15MAR04) Ordinary Symbol and Literal Cross Reference                                           Page  203
               2 000043A2 00000001     R   26557 23360
 =AL2(SAMINBUF-SAMWA)
               2 00004F18 00000001     R   30275 29038
 =AL2(SAMINBUF-SAMWA)
               2 00006CCA 00000001     R   40439 37099
 =AL2(UNETBUF#-32)
               2 00005AF0 00000001     R   34358 32256
 =AL2(2)       2 0000202E 00000001     R   17313 15870  16918
 =AL2(2)       2 00003594 00000001     R   22915 19752  20583  21630  22462
 =AL2(2)       2 000043AA 00000001     R   26561 23430  23682
 =AL2(2)       2 00004F0C 00000001     R   30269 26775  27800  28932  29083
 =AL2(2)       2 00006CE0 00000001     R   40450 39926
 =AL2(230)
               2 000043BA 00000001     R   26565 26240
 =AL4(3500)
               4 000061BC 00000001     R   36573 36198
 =AL4(64)      4 00006C34 00000001     R   40400 36855
 =C'  ??? '
               6 0000154A 00000001     C   13758 13221
 =C'  INPUT '
               8 000014E0 00000001     C   13736 13265
 =C'  MESSAGE '
              10 00001550 00000001     C   13759 13289
 =C'  OUTPUT '
               9 000015AD 00000001     C   13767 13241
 =C'  Printer='
              10 00000FE8 00000001     C   12033 10558
 =C'  Protocol='
              11 0000103E 00000001     C   12044 10667
 =C'  Type='
               7 00001029 00000001     C   12041  9988
 =C' chars)'
               7 000015B7 00000001     C   13769 13363
 =C' consecutive transmission errors.'
              33 00006D4B 00000001     C   40457 40325
 =C' has Macintosh transparent data which can not '
              46 00005AF2 00000001     C   34359 32664
 =C' is not valid TRANSPARENT data.'
              31 00004F59 00000001     C   30286 27701
 =C' is not valid TRANSPARENT data.'
              31 00005BC9 00000001     C   34378 32627
 =C' lines have been written so far.'
              32 00004E10 00000001     C   30232 27420
 =C' lines have been written so far.'
              32 000059F0 00000001     C   34320 32938
 =C' of '      4 00004EA4 00000001     C   30243 27376
 =C' of '      4 00005AD0 00000001     C   34348 32894
 =C' packet receive error.'
              22 00006CE8 00000001     C   40452 40098
 =C' Buffer='
               8 00000F58 00000001     C   12008 10747
 =C' Checksum'
               9 0000106A 00000001     C   12050 11120
 =C' CRC'      4 00000FBC 00000001     C   12028 11153
 =C' Dialog='
               8 00000F50 00000001     C   12007 10707
 =C' Font='
               6 00000FE2 00000001     C   12032 10424
 =C' Hex'      4 00000FB8 00000001     C   12027 11067
1SAM      (SAM2193) (12:54) (15MAR04) Ordinary Symbol and Literal Cross Reference                                           Page  204
 =C' NoCheck'
               8 00000F68 00000001     C   12010 11100
 =C' NoSpeed'
               8 00000F60 00000001     C   12009 10899
 =C' NoTimeout'
              10 00000FF2 00000001     C   12034 10805
 =C' OS='      4 00000FB0 00000001     C   12025 10206
 =C' Packed'
               7 00001063 00000001     C   12049 11034
 =C' Speed='
               7 00001052 00000001     C   12046 10932
 =C' Terminal='
              10 00000FD8 00000001     C   12031 10315
 =C' Timeout='
               9 00001049 00000001     C   12045 10838
 =C' Version='
               9 00001035 00000001     C   12043 10097
 =C' 7bit'
               5 0000105E 00000001     C   12048 11001
 =C' 8bit'
               5 00001059 00000001     C   12047 10981
 =C'.'         1 000015AC 00000001     C   13766 13174
 =C'.'         1 00002079 00000001     C   17330 16223  16269  16315  16361  16407
 =C'.'         1 00005B49 00000001     C   34368 31358  31401  31444
 =C'('         1 000015B6 00000001     C   13768 13324
 =C'(n/a)'
               5 00001030 00000001     C   12042 10062  10171  10280  10389  10498  10632
 =C'(null data packet).'
              19 00006D38 00000001     C   40456 37026  37613
 =C').'        2 00005AEC 00000001     C   34356 31737
 =C'-------------------'
              19 00001594 00000001     C   13764 12967
 =C','         1 0000207A 00000001     C   17331 16454
 =C','         1 00005B4A 00000001     C   34369 31487
 =C':'         1 00005C2C 00000001     C   34383 33783
 =C'be saved over the net.'
              22 00005B20 00000001     C   34360 32680
 =C'before using the MICRO command.'
              31 000018B1 00000001     C   15000 14341
 =C'before using the SAMSON command.'
              32 00001800 00000001     C   14982 14688
 =C'connection ('
              12 00005AA0 00000001     C   34338 31692
 =C'expecting ''SAMSON sam-command''.'
              31 000018D0 00000001     C   15001 14766
 =C'if ASCII/EBCDIC is specified.'
              29 000043BF 00000001     C   26567 23179
 =C'issue the "SET TERMINAL SAMSON" command.'
              40 00000F28 00000001     C   12006  9921
 =C'partially saved.'
              16 00004E58 00000001     C   30234 27510
 =C'partially saved.'
              16 00005A38 00000001     C   34322 33028
 =C'[Closing direct TCP connection.]'
              32 00005A48 00000001     C   34323 33179
 =C'[Opening direct TCP connection.]'
              32 00005980 00000001     C   34316 31067
 =C'Alt-height='
              11 0000107A 00000001     C   12052 11469
1SAM      (SAM2193) (12:54) (15MAR04) Ordinary Symbol and Literal Cross Reference                                           Page  205
 =C'Alt-width='
              10 00001002 00000001     C   12036 11569
 =C'APPEND'
               6 000043B4 00000001     C   26564 23917
 =C'Bad trace entry queue!'
              22 00001534 00000001     C   13757 13028
 =C'BUFFER='
               7 0000206D 00000001     C   17328 16108
 =C'CHECKSUM'
               8 00002838 00000001     C   19447 19349
 =C'CMD='      4 00001870 00000001     C   14992 14472
 =C'CP'        2 00001880 00000001     C   14996 14424  14832
 =C'CRC '      4 0000286C 00000001     C   19459 19385
 =C'CRYPT=1'
               7 00005B4B 00000001     C   34370 31546
 =C'Debug '
               6 0000100E 00000001     C   12038 11871
 =C'Do you want to continue saving this file'
              40 00004E30 00000001     C   30233 27467
 =C'Do you want to continue saving this file'
              40 00005A10 00000001     C   34321 32985
 =C'DP'        2 00004F1C 00000001     C   30277 29066
 =C'DTRANSPARENT'
              12 00004320 00000001     C   26542 23832
 =C'Echo test='
              10 00002030 00000001     C   17314 15879
 =C'END OF FILE'
              11 00005B55 00000001     C   34372 31992
 =C'EOF'       3 00005B52 00000001     C   34371 31885  33286
 =C'EXIT'      4 0000186C 00000001     C   14991 14460
 =C'FastFTP '
               8 00000F78 00000001     C   12012 11771
 =C'File transfer stopped.'
              22 00006CFE 00000001     C   40453 40343
 =C'File transfer stopped, your file is only '
              41 00004F2B 00000001     C   30284 27492
 =C'File transfer stopped, your file is only '
              41 00005BE8 00000001     C   34379 33010
 =C'FD'        2 00003596 00000001     C   22916 19819
 =C'FILE='
               5 000035A9 00000001     C   22925 19829  20660  21707
 =C'FILE='
               5 00004412 00000001     C   26572 23625
 =C'FL'        2 000035A2 00000001     C   22922 22001
 =C'FR'        2 0000359E 00000001     C   22920 20650
 =C'FS'        2 000035A0 00000001     C   22921 21697
 =C'Height='
               7 00001073 00000001     C   12051 11269
 =C'HEX '      4 00002868 00000001     C   19458 19228
 =C'HPSAMSON'
               8 00001F88 00000001     C   17272 16986
 =C'HP150PC '
               8 00001F80 00000001     C   17271 16980
 =C'If you are using Samson '
              24 00000F10 00000001     C   12005  9903
 =C'IBMPC '
               6 00002040 00000001     C   17318 16814
 =C'IPADDR='
               7 00005B42 00000001     C   34367 31315
1SAM      (SAM2193) (12:54) (15MAR04) Ordinary Symbol and Literal Cross Reference                                           Page  206
 =C'JDNGG'
               5 0000440D 00000001     C   26571 23574
 =C'Line '
               5 000015A7 00000001     C   13765 13072
 =C'Line '
               5 00004F54 00000001     C   30285 27654
 =C'Line '
               5 00005BC4 00000001     C   34377 32582
 =C'LIKE='
               5 000035B1 00000001     C   22927 21772
 =C'Missing SAMSON command; '
              24 00001820 00000001     C   14983 14748
 =C'MAC '      4 00002010 00000001     C   17301 16900  16952
 =C'MACSAM'
               6 0000204E 00000001     C   17321 16959
 =C'MACSAM'
               6 00006CE2 00000001     C   40451 39940
 =C'MACSAMSON'
               9 00002085 00000001     C   17334 16927
 =C'MESSAGE='
               8 00004E80 00000001     C   30236 29162
 =C'MIC'       3 00004407 00000001     C   26569 23499
 =C'Network error while reading -- '
              31 00005B60 00000001     C   34373 32014
 =C'Network file transfer error, '
              29 00005B7F 00000001     C   34374 32118
 =C'No'        2 0000100C 00000001     C   12037 11849  11906
 =C'Not a Samson terminal.'
              22 00000FC2 00000001     C   12030  9885
 =C'NoFTPCrypt '
              11 00001085 00000001     C   12053 11810
 =C'NEWFILE='
               8 00003510 00000001     C   22880 20707
 =C'NOT SUPPORTED'
              13 00004F7B 00000001     C   30288 28940
 =C'OK'        2 00004F20 00000001     C   30279 29468
 =C'OPTIONS='
               8 00004E88 00000001     C   30237 29254
 =C'OSM'       3 0000208E 00000001     C   17335 17175
 =C'OSM'       3 000035AE 00000001     C   22926 20102  20978  22159  22784
 =C'OSM'       3 00004F78 00000001     C   30287 28742
 =C'OXTR'      4 000014FC 00000001     C   13742 12762
 =C'Please issue a SET TERMINAL SAMSON command '
              43 00001886 00000001     C   14999 14323  14670
 =C'PACKED '
               7 00002877 00000001     C   19461 19156
 =C'PC'        2 00001884 00000001     C   14998 14543  14910
 =C'PC'        2 00002028 00000001     C   17310 15597  16659
 =C'PC'        2 00003598 00000001     C   22917 20056  20932  22113  22738
 =C'PC'        2 00004F14 00000001     C   30273 28706
 =C'PO'        2 00002024 00000001     C   17308 15511
 =C'PO'        2 00003592 00000001     C   22914 19735  20566  21613  22445
 =C'PO'        2 000043A8 00000001     C   26560 23413
 =C'PP'        2 0000202A 00000001     C   17311 15679
 =C'PP'        2 00006CDE 00000001     C   40449 39902
 =C'PROMPT='
               7 00004F8D 00000001     C   30290 29208
 =C'PS'        2 0000203C 00000001     C   17316 16097
 =C'REPLACE'
1SAM      (SAM2193) (12:54) (15MAR04) Ordinary Symbol and Literal Cross Reference                                           Page  207
               7 00004427 00000001     C   26575 23875
 =C'RP'        2 000043AC 00000001     C   26562 23594
 =C'RS'        2 00005B38 00000001     C   34362 33402
 =C'\.'        2 00005B3E 00000001     C   34365 34010
 =C'\;'        2 00004F0E 00000001     C   30270 27840  28136  28541
 =C'\;'        2 00005B3C 00000001     C   34364 33896
 =C'\,'        2 00004F12 00000001     C   30272 28155
 =C'\:'        2 00005B40 00000001     C   34366 34125
 =C'\:'        2 00006CDA 00000001     C   40447 39470
 =C'\\'        2 00006CD4 00000001     C   40444 39018
 =C'\\AA'      4 00006C84 00000001     C   40420 39079
 =C'\\BB'      4 00006C8C 00000001     C   40422 39131
 =C'\\NN'      4 00006C88 00000001     C   40421 39105
 =C'\\RR'      4 00006C90 00000001     C   40423 39164
 =C'\\SS'      4 00005AE0 00000001     C   34352 33605
 =C'Samson buffer trace table is empty.'
              35 0000155E 00000001     C   13762 12897
 =C'Samson buffer trace'
              19 00001581 00000001     C   13763 12909
 =C'Samson error opening network fast file transfer '
              48 000059A0 00000001     C   34317 31674
 =C'Samson fast ftp error: '
              23 00005C11 00000001     C   34380 33342
 =C'Samson file transfer logic error '
              33 00006D17 00000001     C   40455 37008  37595
 =C'Samson interface error.'
              23 000061C7 00000001     C   36577 35923
 =C'Samson options:'
              15 0000101A 00000001     C   12040  9969
 =C'Samson protocol data header is missing.'
              39 00005B9C 00000001     C   34375 32136
 =C'SlowFTP '
               8 00000F70 00000001     C   12011 11737
 =C'SAM'       3 00002056 00000001     C   17323 15428
 =C'SAM'       3 000035A6 00000001     C   22924 19567  20476  21440  22364
 =C'SAM'       3 000043BC 00000001     C   26566 23029  23519
 =C'SAM'       3 00004F28 00000001     C   30283 26696  27105  28428  28985
 =C'SAM'       3 000061C4 00000001     C   36576 34601  36098
 =C'SAM'       3 00006D14 00000001     C   40454 36792  37507  38600
 =C'SAM'       3 00007790 00000001     C   43901 40875  41370  42258  43028
 =C'SAMCMD='
               7 000018EF 00000001     C   15002 14840
 =C'SAMDATA:'
               8 000059D0 00000001     C   34318 32108  32411
 =C'SAMFONT '
               8 00001FA0 00000001     C   17274 17062
 =C'SAMFONT'
               7 00002870 00000001     C   19460 18610
 =C'SAMSON '
               7 0000207B 00000001     C   17332 16854
 =C'SAMSON'
               6 00002046 00000001     C   17319 16821
 =C'SAV'       3 0000440A 00000001     C   26570 23546  25143  25240
 =C'SAV'       3 00005C28 00000001     C   34381 33414
 =C'SAVE command incomplete.'
              24 00004E68 00000001     C   30235 27719
 =C'SAVE command incomplete.'
              24 000059D8 00000001     C   34319 32714
 =C'SPLIT='
1SAM      (SAM2193) (12:54) (15MAR04) Ordinary Symbol and Literal Cross Reference                                           Page  208
               6 000043AE 00000001     C   26563 23714
 =C'There have been '
              16 00006C20 00000001     C   40398 40286
 =C'Trace '
               6 00001014 00000001     C   12039 11928
 =C'Type ? for more information.'
              28 00001840 00000001     C   14986 14360  14707
 =C'TEST PACKET'
              11 000035B6 00000001     C   22928 22539
 =C'TEXTONLY option not allowed for file write.'
              43 000043DC 00000001     C   26568 23272
 =C'TIME='
               5 00002074 00000001     C   17329 16177
 =C'TRANSPARENT must be specified '
              30 00004356 00000001     C   26555 23161
 =C'TRANSPARENT'
              11 0000441C 00000001     C   26574 23791
 =C'TYPE='
               5 00004F88 00000001     C   30289 29116
 =C'UNFORMATTED option not allowed for file write.'
              46 00004374 00000001     C   26556 23246
 =C'Width='
               6 00000FFC 00000001     C   12035 11369
 =C'WRAP='
               5 00004417 00000001     C   26573 23694
 =C'WS'        2 00005B3A 00000001     C   34363 33421
 =C'XTRC'      4 000014E8 00000001     C   13737 12213  12689  12745  13020
 =C'XX'        2 000035A4 00000001     C   22923 22529
 =C'XX'        2 00005AE8 00000001     C   34354 31650
 =C'124 blackburn and 2781 ross road'
              32 000042C0 00000001     C   26525 26420
 =C'2.9'       3 00002082 00000001     C   17333 16874
 =C'2.95 '
               5 00002059 00000001     C   17324 16027
 =C'2.96 '
               5 0000205E 00000001     C   17325 16047
 =C'2.97 '
               5 00002063 00000001     C   17326 16067
 =C'2.98 '
               5 00002068 00000001     C   17327 16087
 =C'7BIT '
               5 0000287E 00000001     C   19462 19192
 =CL(L'CPSAMFONT)'SAMFONT'
              16 00001F90 00000001     C   17273 17008
 =CL16'ATTN'
              16 00006128 00000001     C   36545 35376
 =CL16'BAD-OPT-HEX'
              16 00006B80 00000001     C   40388 39276
 =CL16'BAD-SEQ-HEX'
              16 00006B90 00000001     C   40389 39321
 =CL16'BAD-SEQNO'
              16 00006BB0 00000001     C   40391 39377
 =CL16'BADFMT'
              16 00006BC0 00000001     C   40392 39406
 =CL16'BADHDR'
              16 00006B70 00000001     C   40387 39232
 =CL16'BADHEX'
              16 00006BE0 00000001     C   40394 39524
 =CL16'BADLEN'
1SAM      (SAM2193) (12:54) (15MAR04) Ordinary Symbol and Literal Cross Reference                                           Page  209
              16 00006BF0 00000001     C   40395 39552
 =CL16'BADPTYPE'
              16 00006B50 00000001     C   40385 39172
 =CL16'CKSUM-ERROR'
              16 00006C10 00000001     C   40397 39773
 =CL16'CRC-ERROR'
              16 00006C00 00000001     C   40396 39692
 =CL16'DISCONNECT'
              16 00006138 00000001     C   36546 35392
 =CL16'NOHDR'
              16 00006B60 00000001     C   40386 39200
 =CL16'NOTRAILER'
              16 00006BD0 00000001     C   40393 39445
 =CL16'PREV-SEQNO'
              16 00006BA0 00000001     C   40390 39367
 =CL16'SYS.LPRINTER'
              16 00001F70 00000001     C   17270 16720  16784
 =CL16'TIMEOUT'
              16 00006148 00000001     C   36547 35415
 =CL16'TOOSHORT'
              16 00006B40 00000001     C   40384 39056
 =CL8'MICROTRM'
               8 000017F8 00000001     C   14981 14357  14704
 =F'-1'        4 00001500 00000001     F   13743 12763
 =F'-4'        4 00001520 00000001     F   13751 13427
 =F'5'         4 00006CB8 00000001     F   40433 40205
 =F'800'       4 00001FA8 00000001     F   17275 15064
 =H'-4'        2 00006CD2 00000001     H   40443 38368  39144
 =H'-8'        2 00006CD6 00000001     H   40445 39085
 =H'1'         2 0000201C 00000001     H   17304 15062  15063
 =H'10'        2 00002026 00000001     H   17309 15543  15706  16670
 =H'100'       2 000061C0 00000001     H   36574 34987
 =H'2'         2 00004F10 00000001     H   30271 27878
 =H'2'         2 00005B36 00000001     H   34361 32756
 =H'2'         2 00006CC4 00000001     H   40436 37054  37074  37795  39421
 =H'2'         2 00007788 00000001     H   43897 40691  40717  41059  41537  42481
 =H'2000'      2 00006CDC 00000001     H   40448 39851
 =H'230'       2 000043A6 00000001     H   26559 23405
 =H'24'        2 0000204C 00000001     H   17320 16883
 =H'256'       2 0000155A 00000001     H   13760 13529
 =H'256'       2 00004F22 00000001     H   30280 29961
 =H'256'       2 00006CCC 00000001     H   40440 38165
 =H'256'       2 0000778E 00000001     H   43900 43713  43849
 =H'3'         2 0000778C 00000001     H   43899 41114  41593
 =H'5'         2 00004F26 00000001     H   30282 30176
 =H'8'         2 00005AEE 00000001     H   34357 32158
 =H'8'         2 000061C2 00000001     H   36575 35774
 =V(BTX)       4 00007778 00000001     V   43893 42026  42404  42611  42709  43156  43514
 =V(CVEXNO)
               4 00004EBC 00000001     V   30249 27671
 =V(CVEXNO)
               4 00005AC8 00000001     V   34346 32599
 =V(DETAB)
               4 00006C68 00000001     V   40413 38245
 =V(FMTCLCK)
               4 00001FFC 00000001     V   17296 16171
 =V(FMTTIME)
               4 0000150C 00000001     V   13746 13042
 =V(FMTXDATE)
1SAM      (SAM2193) (12:54) (15MAR04) Ordinary Symbol and Literal Cross Reference                                           Page  210
               4 00002000 00000001     V   17297 16475
 =V(FORMATL)
               4 00005AC0 00000001     V   34344 32259
 =V(FORMATL)
               4 00006C6C 00000001     V   40414 38340
 =V(GETDATA)
               4 00002004 00000001     V   17298 16723
 =V(GETHEAP)
               4 00001FB8 00000001     V   17279 15403
 =V(GETHEAP)
               4 0000351C 00000001     V   22882 19542  20451  21415  22339
 =V(GETHEAP)
               4 000042E4 00000001     V   26527 23008
 =V(GETHEAP)
               4 00004ED8 00000001     V   30256 28960
 =V(HEXCONV)
               4 00007774 00000001     V   43892 41764
 =V(LOCALTOD)
               4 000014EC 00000001     V   13738 12217
 =V(LOCALTOD)
               4 00001FF8 00000001     V   17295 16166  16470
 =V(LRTRIM)
               4 00000FA8 00000001     V   12023 10043  10152  10261  10370  10479  10613
 =V(LRTRIM)
               4 00002008 00000001     V   17299 16765
 =V(MARKHEAP)
               4 00001FB4 00000001     V   17278 15396  15433  17185
 =V(MARKHEAP)
               4 00003518 00000001     V   22881 19535  19572  20112  20444  20481  20988  21408  21445  22169  22332
                                                 22369  22794
 =V(MARKHEAP)
               4 000042E0 00000001     V   26526 23001  23034
 =V(MARKHEAP)
               4 00004ED0 00000001     V   30254 28752  28953  28990
 =V(MIXFMT)
               4 0000152C 00000001     V   13754 13596
 =V(MKFFINFO)
               4 0000185C 00000001     V   14987 14371  14779
 =V(NOTVALID)
               4 00001504 00000001     V   13744 12870
 =V(NOTVALID)
               4 0000433C 00000001     V   26547 25151  25248
 =V(NPATALLO)
               4 00005A74 00000001     V   34327 31080
 =V(NPATCLS)
               4 00005ADC 00000001     V   34351 33397
 =V(NPATCTRL)
               4 00005AB0 00000001     V   34340 31889  33290
 =V(NPATOPEN)
               4 00005A78 00000001     V   34328 31103
 =V(NPATREAD)
               4 00005AB4 00000001     V   34341 31939
 =V(NPATWAIT)
               4 00005A9C 00000001     V   34337 31646  33322
 =V(NPATXRD)
               4 00005AB8 00000001     V   34342 31956
 =V(NRESOLVE)
               4 0000352C 00000001     V   22886 19654
 =V(NRESOLVE)
1SAM      (SAM2193) (12:54) (15MAR04) Ordinary Symbol and Literal Cross Reference                                           Page  211
               4 000042F8 00000001     V   26532 23304
 =V(NSCAN)
               4 00000F84 00000001     V   12014  7635   9847
 =V(NSCAN)
               4 00001FE0 00000001     V   17289 15821  16628
 =V(NSCAN)
               4 00003524 00000001     V   22884 19628  20029  20905  21503  21974  22711
 =V(NSCAN)
               4 000042EC 00000001     V   26529 23090  24094
 =V(NSCAN)
               4 00004EF0 00000001     V   30262 29414
 =V(RELHEAP)
               4 00002018 00000001     V   17303 17207
 =V(RELHEAP)
               4 0000355C 00000001     V   22898 20134  21010  22191  22816
 =V(RELHEAP)
               4 00004ED4 00000001     V   30255 28774
 =V(RTRIM)
               4 00007CB4 00000001     V   44368 44333
 =V(SAMINIT)
               4 00000F8C 00000001     V   12016  7672
 =V(SAMRESLV)
               4 00003574 00000001     V   22904 21532
 =V(SAVEDATA)
               4 0000200C 00000001     V   17300 16787
 =V(SCANCHK)
               4 00000F88 00000001     V   12015  7649   9861
 =V(SCANCHK)
               4 00003528 00000001     V   22885 19642  21517
 =V(SCANCHK)
               4 000042F0 00000001     V   26530 23104
 =V(SEG)       4 00000FA4 00000001     V   12022  9915  10000  10109  10218  10327  10436  10570  10679  10719  10759
                                                 10817  10850  10911  10944  11095  11181  11263  11281  11363  11381
                                                 11463  11481  11563  11581  11715  11749  11783  11822  11861  11883
                                                 11918  11940
 =V(SEG)       4 00001514 00000001     V   13748 13084  13138  13168  13186  13216  13317  13336
 =V(SEG)       4 00001838 00000001     V   14984 14335  14484  14682  14760  14852
 =V(SEG)       4 00001FEC 00000001     V   17292 16120  16189  16218  16235  16264  16281  16310  16327  16356  16373
                                                 16402  16419  16448  16466  16504
 =V(SEG)       4 0000354C 00000001     V   22894 19841  19868  20672  20697  20719  20744  21719  21746  21784  21809
                                                 22099
 =V(SEG)       4 000042F4 00000001     V   26531 23173  23637  23664  23741  23803  23844  23887  23929
 =V(SEG)       4 00004EA8 00000001     V   30244 27388  27432  27504  27666  27695  27829  27852  27902  28122  28182
                                                 28289  28553  29128  29152  29174  29198  29220  29244  29266  29290
                                                 29998  30025  30043
 =V(SEG)       4 00005A84 00000001     V   34331 31327  31370  31413  31456  31499  31558  31686  31704  31731  32026
                                                 32130  32423  32480  32497  32594  32623  32676  32781  32906  32950
                                                 33022  33354  33600  33617  33697  33777  33795  33908  34022  34137
                                                 34279
 =V(SEG)       4 0000618C 00000001     V   36561 35299  35797  36165  36233
 =V(SEG)       4 00006C38 00000001     V   40401 36894  37020  37607  40110  40298
 =V(SEGB)      4 00001510 00000001     V   13747 13066
 =V(SEGCLR)
               4 00004EF8 00000001     V   30264 29919
 =V(SEGCLR)
               4 00005AD8 00000001     V   34350 33283  33437  33582
 =V(SEGCLR)
               4 000061B8 00000001     V   36572 35815  35917
 =V(SEGCLR)
1SAM      (SAM2193) (12:54) (15MAR04) Ordinary Symbol and Literal Cross Reference                                           Page  212
               4 00006CB4 00000001     V   40432 40185
 =V(SEGCR)
               4 00000FA0 00000001     V   12021  9897   9933   9958   9981  10551  11206  11680
 =V(SEGCR)
               4 00001508 00000001     V   13745 12921  12979  13004  13375  13400  13654  13691
 =V(SEGCR)
               4 0000183C 00000001     V   14985 14353  14700
 =V(SEGCR)
               4 0000357C 00000001     V   22906 22060
 =V(SEGCR)
               4 00004EAC 00000001     V   30245 27462  27713
 =V(SEGCR)
               4 00005AAC 00000001     V   34339 31749  32708  32980
 =V(SEGCR)
               4 000061AC 00000001     V   36569 35723
 =V(SEGCR)
               4 00006CBC 00000001     V   40434 40276  40337
 =V(SEGDC)
               4 00000FB4 00000001     V   12026 10700  10740  10781  10871  10972  11302  11402  11502  11602
 =V(SEGDC)
               4 00001518 00000001     V   13749 13108  13357
 =V(SEGDC)
               4 00001FF0 00000001     V   17293 16141
 =V(SEGDC)
               4 0000431C 00000001     V   26541 23761
 =V(SEGDC)
               4 00004EA0 00000001     V   30242 27354  27410
 =V(SEGDC)
               4 00005A88 00000001     V   34332 31353  31396  31439  31482  31520  32872  32928
 =V(SEGDC)
               4 00006CC0 00000001     V   40435 40319
 =V(SEGHX)
               4 00005AE4 00000001     V   34353 33641  33670  33721  33750  34162  34204  34257
 =V(SEGINIT)
               4 00001FBC 00000001     V   17280 15462  15504
 =V(SEGINIT)
               4 00003534 00000001     V   22888 19688  19730  20519  20561  21566  21608  22398  22440
 =V(SEGINIT)
               4 00004300 00000001     V   26534 23341  23383
 =V(SEGINIT)
               4 00004EDC 00000001     V   30257 29019  29061
 =V(SEGINIT)
               4 00006180 00000001     V   36558 35075  35523
 =V(SEGINIT)
               4 00006C30 00000001     V   40399 36835  38645
 =V(SEGINITR)
               4 00001FC4 00000001     V   17282 15477
 =V(SEGINITR)
               4 0000353C 00000001     V   22890 19703  20534  21581  22413
 =V(SEGINITR)
               4 00004308 00000001     V   26536 23356
 =V(SEGINITR)
               4 00004EE4 00000001     V   30259 29034
 =V(SEGMARK)
               4 00004EFC 00000001     V   30265 30057
 =V(SEGMARK)
               4 00006190 00000001     V   36562 35313
 =V(SEGT)      4 00000FAC 00000001     V   12024 10090  10199  10308  10417  10526  10660
 =V(SEGT)      4 00001874 00000001     V   14993 14511  14878
1SAM      (SAM2193) (12:54) (15MAR04) Ordinary Symbol and Literal Cross Reference                                           Page  213
 =V(SEGT)      4 00003580 00000001     V   22907 22551
 =V(SEGT)      4 00006CB0 00000001     V   40431 40092
 =V(SEGWR)
               4 0000187C 00000001     V   14995 14540  14574  14907  14941
 =V(SEGWR)
               4 00001FD0 00000001     V   17285 15570  15628  15733  16541  16693
 =V(SEGWR)
               4 00003548 00000001     V   22893 19807  19908  20087  20638  20784  20963  21685  21853  22144  22517
                                                 22591  22769
 =V(SEGWR)
               4 00004314 00000001     V   26539 23485  23973
 =V(SEGWR)
               4 00004EC8 00000001     V   30252 27955  28249  28617  28685  28737  29327
 =V(SEGWR)
               4 00005A98 00000001     V   34336 31602  32053  32148  33262  33381  33469
 =V(SEGWR)
               4 00006188 00000001     V   36560 35237
 =V(SEGWR)
               4 00006C44 00000001     V   40404 36985  37573  40155
 =V(SETSCKEY)
               4 00005A7C 00000001     V   34329 31148  31155
 =V(TOASCII)
               4 00005ACC 00000001     V   34347 32743
 =V(TOEBCDIC)
               4 00004EC0 00000001     V   30250 27776
 =V(TOEBCDIC)
               4 00006C5C 00000001     V   40410 37309
 =V(TOEBCDIC)
               4 00007770 00000001     V   43891 41760
 =V(TREAD)
               4 00004F04 00000001     V   30267 30098
 =V(TREAD)
               4 00006194 00000001     V   36563 35332
 =V(TREAD)
               4 00006C70 00000001     V   40415 38725
 =V(UNFORML)
               4 00004E9C 00000001     V   30241 27260
 =V(UPDCPSIB)
               4 00002014 00000001     V   17302 17140
 =V(WAITER)
               4 00001FD4 00000001     V   17286 15594
 =V(WAITER)
               4 00006C78 00000001     V   40417 38788
 =V(XTB)       4 00006C98 00000001     V   40425 39261  39306  39509  39673  39754  39808
 =V(XTB)       4 00007760 00000001     V   43887 40658  41089  41568
 =V(YESNO)
               4 00004EB0 00000001     V   30246 27471
 =V(YESNO)
               4 00005AD4 00000001     V   34349 32989
 =X'0D'        1 00004F99 00000001     X   30292 30031
 =X'0D'        1 00005BC3 00000001     X   34376 32485  34267
 =X'1B5C5C4545'
               5 00004F94 00000001     X   30291 29986  30142
 =X'27'        1 00005C2B 00000001     X   34382 33588
 =X'3133B2B5'
               4 00001FE4 00000001     X   17290 15882
 =X'5C2E'      2 00006CC8 00000001     X   40438 37068
 =X'7F7F'      2 00006CC6 00000001     X   40437 37056
 =X'7F7F'      2 0000778A 00000001     X   43898 40985
1SAM      (SAM2193) (12:54) (15MAR04) Ordinary Symbol and Literal Cross Reference                                           Page  214
 =Y((L'NSCNCB+3)/4*4)
               2 00002054 00000001     Y   17322 17232
 =Y((L'NSCNCB+3)/4*4)
               2 0000358C 00000001     Y   22911 19648  21523
 =Y((L'NSCNCB+3)/4*4)
               2 00004354 00000001     Y   26554 23110
 =Y((R1+1-(R0)+16*((R0)/(R1+1))/((R0)/(R1+1)))*4)
               2 00001882 00000001     Y   14997 14487
 =Y((R1+1-(R0)+16*((R0)/(R1+1))/((R0)/(R1+1)))*4)
               2 00005AEA 00000001     Y   34355 31707  32029  32433  33357
 =Y((R1+1-(R0)+16*((R0)/(R1+1))/((R0)/(R1+1)))*4)
               2 00006CCE 00000001     Y   40441 38173
 =Y((R1+1-(R15)+16*((R15)/(R1+1))/((R15)/(R1+1)))*4)
               2 00004F24 00000001     Y   30281 30111
 =Y((R3+1-(R0)+16*((R0)/(R3+1))/((R0)/(R3+1)))*4)
               2 0000359C 00000001     Y   22919 20487
 =Y((R3+1-(R2)+16*((R2)/(R3+1))/((R2)/(R3+1)))*4)
               2 0000155C 00000001     Y   13761 13537
 =Y((12+3)/4*4)
               2 00000FC0 00000001     Y   12029  7641   9853
 =Y((12+3)/4*4)
               2 0000202C 00000001     Y   17312 15827  16634
 =Y((12+3)/4*4)
               2 0000358A 00000001     Y   22910 19634  20035  20911  21509  21980  22717
 =Y((12+3)/4*4)
               2 00004352 00000001     Y   26553 23096  24100
 =Y((12+3)/4*4)
               2 00004F1E 00000001     Y   30278 29420
 =Y((235+3)/4*4)
               2 0000203E 00000001     Y   17317 16795
 =Y((64+3)/4*4)
               2 0000203A 00000001     Y   17315 15942
 =Y(CVXTRC#)
               2 00001532 00000001     Y   13756 12381
 =Y(4)         2 0000359A 00000001     Y   22918 20142  21018  22199  22824
 =256X'7F'
               1 00007658 00000001     X   43884 43839
 =5X'7F'       1 00004F9A 00000001     X   30293 30131

1SAM      (SAM2193) (12:54) (15MAR04) Macro and Copy Code Source Summary                                                    Page  215
- Con Source                                        Volume    Members                        HLASM R4.0  2004/03/15 12.54
0     PRIMARY INPUT                                           CSECT    DROP     END      EX       INERROR  LTORG    POP
                                                              PRINT    PUSH     START    USING
   L1 WYL.GS.WYL.WYLBUR.MACLIB                      SYSB05    ABORT    AINFO    BASE     BTX      COLINFO  COMMENT
                                                              CONTROL  CP       CPLOCAL  CV       CVLOCAL  ERROR    FAIL
                                                              FFINFO   JCB      KAPUT    LOADRTNP RG       SCAN
                                                              SCANCB   SCANCHK  SCCBADR  SCINFO   SCINIT   SCKW
                                                              SCPOP    SCPUSH   SCUPTOK  SEGINIT  TCCR     TCLEAR   TCR
                                                              TMARK    TNUM     TREAD    TSEG     TTYPE    TWRITE   UNET
                                                              VLTORG   XTB      XTRACE
   L2 WYL.GG.SYS.MACLIB                             SYSB05    $BC      $BFLKUP  $BV      $CCLKUP  $CRS     $CSS     $L
                                                              $LA      $LBLAD   $LEXP    $LOR     $REL     $RGLKUP
                                                              $USLKUP  ACALL    BEGIN    CEIL     CLEAR    COMPROC
                                                              CSECT    DATA     DECR     DEFCC    DEX      DPROC    DROP
                                                              DTEX     ELSE     ELSEIF   END      EX       FLAG     FLIP
                                                              GEN      HIBAL    IDENT    IF       INCR     LABEL    LC
                                                              LCALL    LCM      LOOP     LS       LT       LTORG    L2
                                                              MOVE     MOVEL    PEND     POP      PRETURN  PRINT    PROC
                                                              PUSH     QLTORG   RECORD   REG      REGS     SET
                                                              SETMSG   START    USING    VCALL    WHILE    WITH
                                                              XPROC
   L3 SYS3.IS.MACLIB                                SYSB05    SEG      SEGCB    SEGCLR   SEGCR    SEGDC    SEGDEF
                                                              SEGHX    SEGLD    SEGMARK  SEGT     SEGWR    SIB      SIN
                                                              SYSDEFN  XPOP     XPUSH
   L5 SYS1.MACLIB                                   MVSBR9    FREEMAIN GETMAIN  SYSSTATE

1SAM      (SAM2193) (12:54) (15MAR04) Dsect Cross Reference                                                                 Page  216
-Dsect     Length      Id       Defn                                                         HLASM R4.0  2004/03/15 12.54
0$$$@R0   00000000  FFFFFFFE     716
 $$$@R1   00000000  FFFFFFFD     729
 $$$@R10  00000000  FFFFFFF4     846
 $$$@R11  00000000  FFFFFFF3     859
 $$$@R12  00000000  FFFFFFF2     872
 $$$@R13  00000000  FFFFFFF1     885
 $$$@R14  00000000  FFFFFFF0     898
 $$$@R15  00000000  FFFFFFEF     911
 $$$@R2   00000000  FFFFFFFC     742
 $$$@R3   00000000  FFFFFFFB     755
 $$$@R4   00000000  FFFFFFFA     768
 $$$@R5   00000000  FFFFFFF9     781
 $$$@R6   00000000  FFFFFFF8     794
 $$$@R7   00000000  FFFFFFF7     807
 $$$@R8   00000000  FFFFFFF6     820
 $$$@R9   00000000  FFFFFFF5     833
 $$$RCP   00001000  FFFFFFEC    2463
 $$$RCV   00000FB0  FFFFFFEE    1188
 $$$RDEV  0000000C  FFFFFFEB    4677
 $$$RFFINFO
          000003A0  FFFFFFE8    6611
 $$$RINDWA
          0000000A  FFFFFFD7   40478
 $$$RINLWA
          00000003  FFFFFFDA   37396
 $$$RINPWA
          00000017  FFFFFFD8   38853
 $$$RINRYWA
          0000004A  FFFFFFD9   38419
 $$$RINTWA
          0000009E  FFFFFFDB   36601
 $$$RINXWA
          0000080A  FFFFFFD6   40772
 $$$RIN7WA
          0000080A  FFFFFFD5   41267
 $$$RJCB  000000D0  FFFFFFE9    6315
 $$$RNSCNCB
          000000B0  FFFFFFED    2384
 $$$ROUTDWA
          0000080C  FFFFFFD4   41801
 $$$ROUTHWA
          00000814  FFFFFFD1   43362
 $$$ROUTXWA
          00000808  FFFFFFD3   42157
 $$$ROUT7WA
          00000808  FFFFFFD2   42927
 $$$RSAMDPWA
          00000040  FFFFFFDF   28821
 $$$RSAMPWA
          000001B4  FFFFFFE1   15108
 $$$RSAMWA
          00002ACC  FFFFFFE2   13782
 $$$RSECHWA
          0000000E  FFFFFFDE   29836
 $$$RSEGCB
1SAM      (SAM2193) (12:54) (15MAR04) Dsect Cross Reference                                                                 Page  217
          0000003C  FFFFFFE5    7365
 $$$RSIN  000000E0  FFFFFFE6    7288
 $$$RSMRWA
          00000110  FFFFFFDD   30317
 $$$RSRDWA
          00000008  FFFFFFE0   26597
 $$$RSSAMWA
          0000000A  FFFFFFE4    7476
 $$$RSSGWA
          00000052  FFFFFFDC   34400
 $$$RTTYPE
          0000010C  FFFFFFEA    6208
 $$$RUNET 00000278  FFFFFFE7    6826
 $$$RXTRC 0000001A  FFFFFFE3   12067
 HIBAL    00000000  FFFFFFFF     702

1SAM      (SAM2193) (12:54) (15MAR04) Using Map                                                                             Page  218
-                                                                                            HLASM R4.0  2004/03/15 12.54
   Stmt  -----Location----- Action ----------------Using----------------- Reg Max    Last  Label and Using Text
           Count      Id           Type          Value    Range     Id        Disp   Stmt
0   933  00000000  FFFFFFFF USING  ORDINARY    00000000 00001000 FFFFFFEF  15 000          @R15,15
    937  00000000  FFFFFFFF USING  ORDINARY    00000000 00001000 FFFFFFF0  14 002   37678  @R14,14
    941  00000000  FFFFFFFF USING  ORDINARY    00000000 00001000 FFFFFFF1  13 000   23111  @R13,13
    945  00000000  FFFFFFFF USING  ORDINARY    00000000 00001000 FFFFFFF2  12 000          @R12,12
    949  00000000  FFFFFFFF USING  ORDINARY    00000000 00001000 FFFFFFF3  11 000          @R11,11
    953  00000000  FFFFFFFF USING  ORDINARY    00000000 00001000 FFFFFFF4  10 000          @R10,10
    957  00000000  FFFFFFFF USING  ORDINARY    00000000 00001000 FFFFFFF5   9 000          @R9,9
    961  00000000  FFFFFFFF USING  ORDINARY    00000000 00001000 FFFFFFF6   8 000          @R8,8
    965  00000000  FFFFFFFF USING  ORDINARY    00000000 00001000 FFFFFFF7   7 000          @R7,7
    969  00000000  FFFFFFFF USING  ORDINARY    00000000 00001000 FFFFFFF8   6 000          @R6,6
    973  00000000  FFFFFFFF USING  ORDINARY    00000000 00001000 FFFFFFF9   5 000          @R5,5
    977  00000000  FFFFFFFF USING  ORDINARY    00000000 00001000 FFFFFFFA   4 003   43272  @R4,4
    981  00000000  FFFFFFFF USING  ORDINARY    00000000 00001000 FFFFFFFB   3 100   43550  @R3,3
    985  00000000  FFFFFFFF USING  ORDINARY    00000000 00001000 FFFFFFFC   2 011   16430  @R2,2
    989  00000000  FFFFFFFF USING  ORDINARY    00000000 00001000 FFFFFFFD   1 001    2178  @R1,1
    993  00000000  FFFFFFFF USING  ORDINARY    00000000 00001000 FFFFFFFE   0 000          @R0,0
    994  00000000  FFFFFFFF DROP                                            0              0
   1172  00000016  00000001 USING  ORDINARY    00000000 00001000 FFFFFFEC  11 F54   43002  CP,CPR
   1181  00000016  00000001 USING  ORDINARY    00000000 00001000 FFFFFFEE  12 8C0   44254  CV,CVR
   7572  00000030  00000001 USING  ORDINARY    00000030 00001000 00000001   7 F90    7817  $$$77B,7
   7586  00000030  00000001 USING  ORDINARY    FFFFFFD8 00001000 FFFFFFE4   8 028    7590  SSAMWA-(4+36),R8
   7598  00000034  00000001 USING  ORDINARY    00000000 00001000 FFFFFFE4   6 008    9132  SSAMWA,R6
   7831  0000010C  00000001 USING  ORDINARY    00000000 00001000 FFFFFFF6   8 000          @R8,8
   7836  0000010C  00000001 USING  ORDINARY    00000000 00001000 FFFFFFF7   7 000          @R7,7
   8246  000004F6  00000001 USING  ORDINARY    000004F6 00001000 00000001   7 000          $$$86B,7
   8274  00000502  00000001 USING  ORDINARY    00000000 00001000 FFFFFFF7   7 000          @R7,7
   8319  0000052A  00000001 USING  ORDINARY    0000052A 00001000 00000001   7 A6A    8334  $$$89B,7
   8342  00000532  00000001 USING  ORDINARY    00000000 00001000 FFFFFFF7   7 000          @R7,7
   8387  0000055A  00000001 USING  ORDINARY    0000055A 00001000 00000001   7 000          $$$92B,7
   8415  00000566  00000001 USING  ORDINARY    00000000 00001000 FFFFFFF7   7 000          @R7,7
   8460  0000058E  00000001 USING  ORDINARY    0000058E 00001000 00000001   7 000          $$$95B,7
   8487  00000596  00000001 USING  ORDINARY    00000000 00001000 FFFFFFF7   7 000          @R7,7
   8532  000005BE  00000001 USING  ORDINARY    000005BE 00001000 00000001   7 000          $$$98B,7
   8572  000005CE  00000001 USING  ORDINARY    00000000 00001000 FFFFFFF7   7 000          @R7,7
   8617  000005F6  00000001 USING  ORDINARY    000005F6 00001000 00000001   7 000          $$$101B,7
   8657  00000606  00000001 USING  ORDINARY    00000000 00001000 FFFFFFF7   7 000          @R7,7
   8702  0000062E  00000001 USING  ORDINARY    0000062E 00001000 00000001   7 000          $$$104B,7
   8736  0000063A  00000001 USING  ORDINARY    00000000 00001000 FFFFFFF7   7 000          @R7,7
   8781  00000662  00000001 USING  ORDINARY    00000662 00001000 00000001   7 000          $$$107B,7
   8821  00000672  00000001 USING  ORDINARY    00000000 00001000 FFFFFFF7   7 000          @R7,7
   8866  0000069A  00000001 USING  ORDINARY    0000069A 00001000 00000001   7 000          $$$110B,7
   8906  000006AA  00000001 USING  ORDINARY    00000000 00001000 FFFFFFF7   7 000          @R7,7
   8951  000006D2  00000001 USING  ORDINARY    000006D2 00001000 00000001   7 000          $$$113B,7
   8991  000006E2  00000001 USING  ORDINARY    00000000 00001000 FFFFFFF7   7 000          @R7,7
   9036  0000070A  00000001 USING  ORDINARY    0000070A 00001000 00000001   7 000          $$$116B,7
   9070  00000716  00000001 USING  ORDINARY    00000000 00001000 FFFFFFF7   7 000          @R7,7
   9115  0000073E  00000001 USING  ORDINARY    0000073E 00001000 00000001   7 000          $$$119B,7
   9139  00000742  00000001 USING  ORDINARY    00000000 00001000 FFFFFFF7   7 000          @R7,7
   9184  0000076A  00000001 USING  ORDINARY    0000076A 00001000 00000001   7 000          $$$122B,7
   9205  0000076E  00000001 USING  ORDINARY    00000000 00001000 FFFFFFF7   7 000          @R7,7
   9250  00000796  00000001 USING  ORDINARY    00000796 00001000 00000001   7 000          $$$125B,7
   9272  0000079A  00000001 USING  ORDINARY    00000000 00001000 FFFFFFF7   7 000          @R7,7
   9317  000007C2  00000001 USING  ORDINARY    000007C2 00001000 00000001   7 000          $$$128B,7
1SAM      (SAM2193) (12:54) (15MAR04) Using Map                                                                             Page  219
   9339  000007C6  00000001 USING  ORDINARY    00000000 00001000 FFFFFFF7   7 000          @R7,7
   9384  000007EE  00000001 USING  ORDINARY    000007EE 00001000 00000001   7 000          $$$131B,7
   9405  000007F2  00000001 USING  ORDINARY    00000000 00001000 FFFFFFF7   7 000          @R7,7
   9450  0000081A  00000001 USING  ORDINARY    0000081A 00001000 00000001   7 000          $$$134B,7
   9471  0000081E  00000001 USING  ORDINARY    00000000 00001000 FFFFFFF7   7 000          @R7,7
   9516  00000846  00000001 USING  ORDINARY    00000846 00001000 00000001   7 000          $$$137B,7
   9538  0000084A  00000001 USING  ORDINARY    00000000 00001000 FFFFFFF7   7 000          @R7,7
   9583  00000872  00000001 USING  ORDINARY    00000872 00001000 00000001   7 000          $$$140B,7
   9604  00000876  00000001 USING  ORDINARY    00000000 00001000 FFFFFFF7   7 000          @R7,7
   9649  0000089E  00000001 USING  ORDINARY    0000089E 00001000 00000001   7 000          $$$143B,7
   9671  000008A2  00000001 USING  ORDINARY    00000000 00001000 FFFFFFF7   7 000          @R7,7
   9716  000008CA  00000001 USING  ORDINARY    000008CA 00001000 00000001   7 6CE    9750  $$$146B,7
   9758  000008DE  00000001 USING  ORDINARY    00000000 00001000 FFFFFFF7   7 000          @R7,7
   9779  000008EC  00000001 USING  ORDINARY    00000000 00001000 FFFFFFF8   6 000          @R6,6
   9817  00000906  00000001 USING  ORDINARY    00000906 00001000 00000001   7 77F   11940  $$$151B,7
  10953  00000C38  00000001 DROP                                            1              1
  10957  00000C3E  00000001 USING  ORDINARY    00000000 00001000 FFFFFFFD   1 01A   30801  @R1,1
  11950  00000EAE  00000001 USING  ORDINARY    00000000 00001000 FFFFFFF7   7 000          @R7,7
  12156  000010AA  00000001 USING  ORDINARY    000010AA 00001000 00000001   7 488   12397  $$$190B,7
  12202  000010C4  00000001 USING  ORDINARY    00000000 00001000 FFFFFFE3   6 01A   12341  XTRC,R6
  12316  00001108  00000001 USING  ORDINARY    00000000 00001000 FFFFFFE9  15 048   12322  JCB,R15
  12329  0000110E  00000001 USING  ORDINARY    00000000 00001000 FFFFFFEF  15 000          @R15,15
  12404  00001148  00000001 USING  ORDINARY    00000000 00001000 FFFFFFF8   6 000          @R6,6
  12414  00001148  00000001 USING  ORDINARY    00000000 00001000 FFFFFFF7   7 000          @R7,7
  12471  00001170  00000001 USING  ORDINARY    00001170 00001000 00000001   7 390   12763  $$$199B,7
  12531  00001196  00000001 USING  ORDINARY    00000000 00001000 FFFFFFE3  15 004   12594  XTRC,R15
  12624  000011D6  00000001 USING  ORDINARY    00000000 00001000 FFFFFFEF  15 000          @R15,15
  12673  000011EA  00000001 USING  ORDINARY    00000000 00001000 FFFFFFE3   5 004   12706  XTRC,R5
  12712  00001212  00000001 USING  ORDINARY    00000000 00001000 FFFFFFF9   5 000          @R5,5
  12728  00001212  00000001 USING  ORDINARY    00000000 00001000 FFFFFFE3   6 018   12767  XTRC,R6
  12784  0000125C  00000001 USING  ORDINARY    00000000 00001000 FFFFFFF8   6 000          @R6,6
  12794  00001260  00000001 USING  ORDINARY    00000000 00001000 FFFFFFF7   7 000          @R7,7
  12843  00001288  00000001 USING  ORDINARY    00001288 00001000 00000001   7 336   13704  $$$212B,7
  12942  000012C2  00000001 USING  ORDINARY    00000000 00001000 FFFFFFE3   6 01A   13461  XTRC,R6
  13701  000014CA  00000001 USING  ORDINARY    00000000 00001000 FFFFFFF8   6 000          @R6,6
  13714  000014D2  00000001 USING  ORDINARY    00000000 00001000 FFFFFFF7   7 000          @R7,7
  14295  000015DE  00000001 USING  ORDINARY    000015DE 00001000 00000001   7 2D3   14574  $$$257B,7
  14388  00001630  00000001 USING  ORDINARY    00000000 00001000 FFFFFFE2   6 124   14571  SAMWA,R6
  14403  00001634  00000001 USING  ORDINARY    00000000 00001000 FFFFFFE9  15 065   14414  JCB,R15
  14421  00001638  00000001 USING  ORDINARY    00000000 00001000 FFFFFFEF  15 000          @R15,15
  14585  000016C6  00000001 USING  ORDINARY    00000000 00001000 FFFFFFF7   7 000          @R7,7
  14604  000016D4  00000001 USING  ORDINARY    00000000 00001000 FFFFFFF8   6 000          @R6,6
  14642  000016EE  00000001 USING  ORDINARY    000016EE 00001000 00000001   7 201   14941  $$$262B,7
  14796  0000177C  00000001 USING  ORDINARY    00000000 00001000 FFFFFFE2   6 124   14938  SAMWA,R6
  14811  00001780  00000001 USING  ORDINARY    00000000 00001000 FFFFFFE9  15 065   14822  JCB,R15
  14829  00001784  00000001 USING  ORDINARY    00000000 00001000 FFFFFFEF  15 001   41069  @R15,15
  14952  000017E4  00000001 USING  ORDINARY    00000000 00001000 FFFFFFF7   7 000          @R7,7
  14971  000017F2  00000001 USING  ORDINARY    00000000 00001000 FFFFFFF8   6 000          @R6,6
  15046  00001910  00000001 USING  ORDINARY    00001910 00001000 00000001   7 70C   15064  $$$267B,7
  15077  0000192C  00000001 USING  ORDINARY    00000000 00001000 FFFFFFF7   7 000          @R7,7
  15253  00001954  00000001 USING  ORDINARY    00001954 00001000 00000001   7 73A   17232  $$$278B,7
  15267  00001954  00000001 USING  ORDINARY    FFFFFFD8 00001000 FFFFFFE1   8 028   15271  SAMPWA-(4+36),R8
  15279  00001958  00000001 USING  ORDINARY    00000000 00001000 FFFFFFE1   5 100   17234  SAMPWA,R5
  15416  000019C4  00000001 USING  ORDINARY    00000000 00001000 FFFFFFE2   6 ACC   17204  SAMWA,R6
  17220  00001F50  00000001 USING  ORDINARY    00000000 00001000 FFFFFFF8   6 000          @R6,6
  17243  00001F62  00000001 USING  ORDINARY    00000000 00001000 FFFFFFF6   8 000          @R8,8
  17248  00001F62  00000001 USING  ORDINARY    00000000 00001000 FFFFFFF7   7 000          @R7,7
  17646  0000237E  00000001 USING  ORDINARY    0000237E 00001000 00000001   7 506   17708  $$$328B,7
  17735  000023B6  00000001 USING  ORDINARY    00000000 00001000 FFFFFFF7   7 000          @R7,7
1SAM      (SAM2193) (12:54) (15MAR04) Using Map                                                                             Page  220
  17780  000023DE  00000001 USING  ORDINARY    000023DE 00001000 00000001   7 4AC   17842  $$$335B,7
  17869  00002416  00000001 USING  ORDINARY    00000000 00001000 FFFFFFF7   7 000          @R7,7
  17914  0000243E  00000001 USING  ORDINARY    0000243E 00001000 00000001   7 452   17976  $$$342B,7
  18003  00002476  00000001 USING  ORDINARY    00000000 00001000 FFFFFFF7   7 000          @R7,7
  18048  0000249E  00000001 USING  ORDINARY    0000249E 00001000 00000001   7 000          $$$349B,7
  18064  000024A2  00000001 USING  ORDINARY    00000000 00001000 FFFFFFF7   7 000          @R7,7
  18109  000024CA  00000001 USING  ORDINARY    000024CA 00001000 00000001   7 000          $$$352B,7
  18125  000024CE  00000001 USING  ORDINARY    00000000 00001000 FFFFFFF7   7 000          @R7,7
  18170  000024F6  00000001 USING  ORDINARY    000024F6 00001000 00000001   7 000          $$$355B,7
  18186  000024FA  00000001 USING  ORDINARY    00000000 00001000 FFFFFFF7   7 000          @R7,7
  18231  00002522  00000001 USING  ORDINARY    00002522 00001000 00000001   7 332   18386  $$$358B,7
  18407  0000257E  00000001 USING  ORDINARY    00000000 00001000 FFFFFFF7   7 000          @R7,7
  18452  000025A6  00000001 USING  ORDINARY    000025A6 00001000 00000001   7 2F0   18514  $$$369B,7
  18541  000025DE  00000001 USING  ORDINARY    00000000 00001000 FFFFFFF7   7 000          @R7,7
  18586  00002606  00000001 USING  ORDINARY    00002606 00001000 00000001   7 296   18649  $$$376B,7
  18676  00002644  00000001 USING  ORDINARY    00000000 00001000 FFFFFFF7   7 000          @R7,7
  18721  0000266C  00000001 USING  ORDINARY    0000266C 00001000 00000001   7 236   18783  $$$383B,7
  18810  000026A4  00000001 USING  ORDINARY    00000000 00001000 FFFFFFF7   7 000          @R7,7
  18855  000026CC  00000001 USING  ORDINARY    000026CC 00001000 00000001   7 1DC   18917  $$$390B,7
  18944  00002704  00000001 USING  ORDINARY    00000000 00001000 FFFFFFF7   7 000          @R7,7
  18989  0000272C  00000001 USING  ORDINARY    0000272C 00001000 00000001   7 000          $$$397B,7
  19005  00002730  00000001 USING  ORDINARY    00000000 00001000 FFFFFFF7   7 000          @R7,7
  19050  00002758  00000001 USING  ORDINARY    00002758 00001000 00000001   7 000          $$$400B,7
  19066  0000275C  00000001 USING  ORDINARY    00000000 00001000 FFFFFFF7   7 000          @R7,7
  19111  00002784  00000001 USING  ORDINARY    00002784 00001000 00000001   7 0FA   19229  $$$403B,7
  19259  000027CC  00000001 USING  ORDINARY    00000000 00001000 FFFFFFF7   7 000          @R7,7
  19304  000027F4  00000001 USING  ORDINARY    000027F4 00001000 00000001   7 078   19386  $$$412B,7
  19416  0000282A  00000001 USING  ORDINARY    00000000 00001000 FFFFFFF7   7 000          @R7,7
  19436  00002838  00000001 USING  ORDINARY    00000000 00001000 FFFFFFF9   5 000          @R5,5
  19511  000028C8  00000001 USING  ORDINARY    000028C8 00001000 00000001   7 CE6   20142  $$$419B,7
  19528  000028CC  00000001 USING  ORDINARY    00000000 00001000 FFFFFFE8   5 218   20328  FFINFO,R5
  19555  000028E4  00000001 USING  ORDINARY    00000000 00001000 FFFFFFE2   6 ACC   20131  SAMWA,R6
  20150  00002B36  00000001 USING  ORDINARY    00000000 00001000 FFFFFFF8   6 000          @R6,6
  20155  00002B36  00000001 USING  ORDINARY    00000000 00001000 FFFFFFF7   7 000          @R7,7
  20257  00002BD6  00000001 USING  ORDINARY    00002BD6 00001000 00000001   7 9EC   20321  $$$428B,7
  20348  00002C0C  00000001 USING  ORDINARY    00000000 00001000 FFFFFFF7   7 000          @R7,7
  20367  00002C1A  00000001 USING  ORDINARY    00000000 00001000 FFFFFFF9   5 000          @R5,5
  20415  00002C34  00000001 USING  ORDINARY    00002C34 00001000 00000001   7 97A   21018  $$$435B,7
  20437  00002C40  00000001 USING  ORDINARY    00000000 00001000 FFFFFFE8   5 218   21297  FFINFO,R5
  20464  00002C58  00000001 USING  ORDINARY    00000000 00001000 FFFFFFE2   6 ACC   21007  SAMWA,R6
  21026  00002E56  00000001 USING  ORDINARY    00000000 00001000 FFFFFFF8   6 000          @R6,6
  21031  00002E56  00000001 USING  ORDINARY    00000000 00001000 FFFFFFF7   7 000          @R7,7
  21148  00002F1E  00000001 USING  ORDINARY    00002F1E 00001000 00000001   7 642   21168  $$$444B,7
  21180  00002F36  00000001 USING  ORDINARY    00000000 00001000 FFFFFFF7   7 000          @R7,7
  21226  00002F5E  00000001 USING  ORDINARY    00002F5E 00001000 00000001   7 66A   21290  $$$447B,7
  21317  00002F94  00000001 USING  ORDINARY    00000000 00001000 FFFFFFF7   7 000          @R7,7
  21336  00002FA2  00000001 USING  ORDINARY    00000000 00001000 FFFFFFF9   5 000          @R5,5
  21382  00002FBC  00000001 USING  ORDINARY    00002FBC 00001000 00000001   7 5F5   22199  $$$454B,7
  21399  00002FC0  00000001 USING  ORDINARY    00000000 00001000 FFFFFFE8   5 114   21529  FFINFO,R5
  21428  00002FDC  00000001 USING  ORDINARY    00000000 00001000 FFFFFFE2   6 ACC   22188  SAMWA,R6
  22207  0000329A  00000001 USING  ORDINARY    00000000 00001000 FFFFFFF8   6 000          @R6,6
  22212  0000329A  00000001 USING  ORDINARY    00000000 00001000 FFFFFFF7   7 000          @R7,7
  22231  000032A8  00000001 USING  ORDINARY    00000000 00001000 FFFFFFF9   5 000          @R5,5
  22318  00003312  00000001 USING  ORDINARY    00003312 00001000 00000001   7 2A4   22824  $$$468B,7
  22352  0000332A  00000001 USING  ORDINARY    00000000 00001000 FFFFFFE2   6 ACC   22813  SAMWA,R6
  22832  000034D4  00000001 USING  ORDINARY    00000000 00001000 FFFFFFF8   6 000          @R6,6
  22837  000034D4  00000001 USING  ORDINARY    00000000 00001000 FFFFFFF7   7 000          @R7,7
  22977  000035E8  00000001 USING  ORDINARY    000035E8 00001000 00000001   7 E3F   24167  $$$477B,7
  22994  000035EA  00000001 USING  ORDINARY    00000000 00001000 FFFFFFE8   5 218   25589  FFINFO,R5
1SAM      (SAM2193) (12:54) (15MAR04) Using Map                                                                             Page  221
  23019  00003602  00000001 USING  ORDINARY    00000000 00001000 FFFFFFE2   6 ACC   26480  SAMWA,R6
  24176  000039AA  00000001 USING  ORDINARY    00000000 00001000 FFFFFFF7   7 000          @R7,7
  24422  00003BDA  00000001 USING  ORDINARY    00003BDA 00001000 00000001   7 000          $$$508B,7
  24443  00003BDE  00000001 USING  ORDINARY    00000000 00001000 FFFFFFF7   7 000          @R7,7
  24489  00003C06  00000001 USING  ORDINARY    00003C06 00001000 00000001   7 000          $$$511B,7
  24511  00003C0A  00000001 USING  ORDINARY    00000000 00001000 FFFFFFF7   7 000          @R7,7
  24557  00003C32  00000001 USING  ORDINARY    00003C32 00001000 00000001   7 000          $$$514B,7
  24586  00003C3A  00000001 USING  ORDINARY    00000000 00001000 FFFFFFF7   7 000          @R7,7
  24632  00003C62  00000001 USING  ORDINARY    00003C62 00001000 00000001   7 000          $$$517B,7
  24659  00003C6A  00000001 USING  ORDINARY    00000000 00001000 FFFFFFF7   7 000          @R7,7
  24705  00003C92  00000001 USING  ORDINARY    00003C92 00001000 00000001   7 000          $$$520B,7
  24726  00003C96  00000001 USING  ORDINARY    00000000 00001000 FFFFFFF7   7 000          @R7,7
  24772  00003CBE  00000001 USING  ORDINARY    00003CBE 00001000 00000001   7 000          $$$523B,7
  24793  00003CC2  00000001 USING  ORDINARY    00000000 00001000 FFFFFFF7   7 000          @R7,7
  24839  00003CEA  00000001 USING  ORDINARY    00003CEA 00001000 00000001   7 000          $$$526B,7
  24863  00003CEE  00000001 USING  ORDINARY    00000000 00001000 FFFFFFF7   7 000          @R7,7
  24909  00003D16  00000001 USING  ORDINARY    00003D16 00001000 00000001   7 000          $$$529B,7
  24937  00003D1E  00000001 USING  ORDINARY    00000000 00001000 FFFFFFF7   7 000          @R7,7
  24983  00003D46  00000001 USING  ORDINARY    00003D46 00001000 00000001   7 000          $$$532B,7
  25011  00003D4E  00000001 USING  ORDINARY    00000000 00001000 FFFFFFF7   7 000          @R7,7
  25057  00003D76  00000001 USING  ORDINARY    00003D76 00001000 00000001   7 000          $$$535B,7
  25078  00003D7A  00000001 USING  ORDINARY    00000000 00001000 FFFFFFF7   7 000          @R7,7
  25123  00003DA2  00000001 USING  ORDINARY    00003DA2 00001000 00000001   7 668   25151  $$$538B,7
  25175  00003DBC  00000001 USING  ORDINARY    00000000 00001000 FFFFFFF7   7 000          @R7,7
  25220  00003DE4  00000001 USING  ORDINARY    00003DE4 00001000 00000001   7 626   25248  $$$542B,7
  25271  00003DFE  00000001 USING  ORDINARY    00000000 00001000 FFFFFFF7   7 000          @R7,7
  25518  0000402E  00000001 USING  ORDINARY    0000402E 00001000 00000001   7 400   25582  $$$546B,7
  25609  00004064  00000001 USING  ORDINARY    00000000 00001000 FFFFFFF7   7 000          @R7,7
  25654  0000408C  00000001 USING  ORDINARY    0000408C 00001000 00000001   7 000          $$$553B,7
  25675  00004090  00000001 USING  ORDINARY    00000000 00001000 FFFFFFF7   7 000          @R7,7
  25720  000040B8  00000001 USING  ORDINARY    000040B8 00001000 00000001   7 000          $$$556B,7
  25744  000040BC  00000001 USING  ORDINARY    00000000 00001000 FFFFFFF7   7 000          @R7,7
  25789  000040E4  00000001 USING  ORDINARY    000040E4 00001000 00000001   7 000          $$$559B,7
  25811  000040E8  00000001 USING  ORDINARY    00000000 00001000 FFFFFFF7   7 000          @R7,7
  25856  00004110  00000001 USING  ORDINARY    00004110 00001000 00000001   7 000          $$$562B,7
  25877  00004114  00000001 USING  ORDINARY    00000000 00001000 FFFFFFF7   7 000          @R7,7
  25922  0000413C  00000001 USING  ORDINARY    0000413C 00001000 00000001   7 000          $$$565B,7
  25944  00004140  00000001 USING  ORDINARY    00000000 00001000 FFFFFFF7   7 000          @R7,7
  25989  00004168  00000001 USING  ORDINARY    00004168 00001000 00000001   7 000          $$$569B,7
  26019  00004170  00000001 USING  ORDINARY    00000000 00001000 FFFFFFF7   7 000          @R7,7
  26064  00004198  00000001 USING  ORDINARY    00004198 00001000 00000001   7 000          $$$573B,7
  26085  0000419C  00000001 USING  ORDINARY    00000000 00001000 FFFFFFF7   7 000          @R7,7
  26130  000041C4  00000001 USING  ORDINARY    000041C4 00001000 00000001   7 000          $$$576B,7
  26152  000041C8  00000001 USING  ORDINARY    00000000 00001000 FFFFFFF7   7 000          @R7,7
  26197  000041F0  00000001 USING  ORDINARY    000041F0 00001000 00000001   7 244   26327  $$$579B,7
  26353  00004246  00000001 USING  ORDINARY    00000000 00001000 FFFFFFF7   7 000          @R7,7
  26398  0000426E  00000001 USING  ORDINARY    0000426E 00001000 00000001   7 1CC   26460  $$$589B,7
  26488  000042B0  00000001 USING  ORDINARY    00000000 00001000 FFFFFFF7   7 000          @R7,7
  26508  000042BE  00000001 USING  ORDINARY    00000000 00001000 FFFFFFF9   5 000          @R5,5
  26515  000042BE  00000001 USING  ORDINARY    00000000 00001000 FFFFFFF8   6 000          @R6,6
  26648  0000445A  00000001 USING  ORDINARY    0000445A 00001000 00000001   7 EF0   26977  $$$596B,7
  26662  0000445A  00000001 USING  ORDINARY    FFFFFFD8 00001000 FFFFFFE0   8 02C   26989  SRDWA-(4+36),R8
  26680  00004466  00000001 USING  ORDINARY    00000000 00001000 FFFFFFE2   6 130   26990  SAMWA,R6
  26921  000044F2  00000001 USING  ORDINARY    00000000 00001000 FFFFFFE9   2 062   26930  JCB,R2
  26936  000044F6  00000001 USING  ORDINARY    00000000 00001000 FFFFFFFC   2 001   38155  @R2,2
  27003  0000452A  00000001 USING  ORDINARY    00000000 00001000 FFFFFFF8   6 000          @R6,6
  27008  0000452A  00000001 USING  ORDINARY    00000000 00001000 FFFFFFF6   8 000          @R8,8
  27013  0000452A  00000001 USING  ORDINARY    00000000 00001000 FFFFFFF7   7 000          @R7,7
  27070  00004552  00000001 USING  ORDINARY    00004552 00001000 00000001   7 F42   28307  $$$611B,7
1SAM      (SAM2193) (12:54) (15MAR04) Using Map                                                                             Page  222
  27089  00004556  00000001 USING  ORDINARY    00000000 00001000 FFFFFFE2   6 1CC   28318  SAMWA,R6
  28335  00004850  00000001 USING  ORDINARY    00000000 00001000 FFFFFFF8   6 000          @R6,6
  28340  00004850  00000001 USING  ORDINARY    00000000 00001000 FFFFFFF7   7 000          @R7,7
  28393  00004878  00000001 USING  ORDINARY    00004878 00001000 00000001   7 E00   28774  $$$649B,7
  28412  0000487C  00000001 USING  ORDINARY    00000000 00001000 FFFFFFE2   6 124   28771  SAMWA,R6
  28787  0000496E  00000001 USING  ORDINARY    00000000 00001000 FFFFFFF8   6 000          @R6,6
  28792  0000496E  00000001 USING  ORDINARY    00000000 00001000 FFFFFFF7   7 000          @R7,7
  28880  00004996  00000001 USING  ORDINARY    00004996 00001000 00000001   7 5F7   29484  $$$661B,7
  28894  00004996  00000001 USING  ORDINARY    FFFFFFD8 00001000 FFFFFFDF   8 028   28898  SAMDPWA-(4+36),R8
  28906  0000499A  00000001 USING  ORDINARY    00000000 00001000 FFFFFFDF   5 038   29791  SAMDPWA,R5
  28973  000049D8  00000001 USING  ORDINARY    00000000 00001000 FFFFFFE2   6 ACC   29342  SAMWA,R6
  29495  00004B9E  00000001 USING  ORDINARY    00000000 00001000 FFFFFFF8   6 000          @R6,6
  29500  00004B9E  00000001 USING  ORDINARY    00000000 00001000 FFFFFFF6   8 000          @R8,8
  29505  00004B9E  00000001 USING  ORDINARY    00000000 00001000 FFFFFFF7   7 000          @R7,7
  29599  00004C3E  00000001 USING  ORDINARY    00004C3E 00001000 00000001   7 368   29648  $$$671B,7
  29676  00004C76  00000001 USING  ORDINARY    00000000 00001000 FFFFFFF7   7 000          @R7,7
  29722  00004C9E  00000001 USING  ORDINARY    00004C9E 00001000 00000001   7 30E   29771  $$$677B,7
  29799  00004CD6  00000001 USING  ORDINARY    00000000 00001000 FFFFFFF7   7 000          @R7,7
  29819  00004CE4  00000001 USING  ORDINARY    00000000 00001000 FFFFFFF9   5 000          @R5,5
  29886  00004CFE  00000001 USING  ORDINARY    00004CFE 00001000 00000001   7 29C   30183  $$$683B,7
  29900  00004CFE  00000001 USING  ORDINARY    FFFFFFD8 00001000 FFFFFFDE   8 028   30196  SECHWA-(4+36),R8
  30205  00004DFC  00000001 USING  ORDINARY    00000000 00001000 FFFFFFF6   8 000          @R8,8
  30210  00004DFC  00000001 USING  ORDINARY    00000000 00001000 FFFFFFF7   7 000          @R7,7
  30368  00004FCC  00000001 USING  ORDINARY    00004FCC 00001000 00000001   7 C80   30794  $$$691B,7
  30382  00004FCC  00000001 USING  ORDINARY    FFFFFFD8 00001000 FFFFFFDD   8 028   30596  SMRWA-(4+36),R8
  30396  00004FCE  00000001 USING  ORDINARY    00000000 00001000 FFFFFFE8   6 29C   30801  FFINFO,R6
  30828  000050A8  00000001 USING  ORDINARY    00000000 00001000 FFFFFFF8   6 000          @R6,6
  30833  000050A8  00000001 USING  ORDINARY    00000000 00001000 FFFFFFF6   8 000          @R8,8
  30838  000050A8  00000001 USING  ORDINARY    00000000 00001000 FFFFFFF7   7 000          @R7,7
  30896  000050D0  00000001 USING  ORDINARY    000050D0 00001000 00000001   7 B82   30955  $$$719B,7
  30915  000050D4  00000001 USING  ORDINARY    00000000 00001000 FFFFFFE8   6 218   30962  FFINFO,R6
  30929  000050D8  00000001 USING  ORDINARY    00000000 00001000 FFFFFFE2   5 00C   30962  SAMWA,R5
  30981  000050EC  00000001 USING  ORDINARY    00000000 00001000 FFFFFFF9   5 000          @R5,5
  30986  000050EC  00000001 USING  ORDINARY    00000000 00001000 FFFFFFF8   6 000          @R6,6
  30991  000050EC  00000001 USING  ORDINARY    00000000 00001000 FFFFFFF7   7 000          @R7,7
  31041  00005114  00000001 USING  ORDINARY    00005114 00001000 00000001   7 A37   31749  $$$725B,7
  31059  00005114  00000001 USING  ORDINARY    00000000 00001000 FFFFFFE2   6 18C   31666  SAMWA,R6
  31095  00005138  00000001 USING  ORDINARY    00000000 00001000 FFFFFFE7   5 17C   31643  UNET,R5
  31334  000051D6  00000001 DROP                                            1              1
  31338  000051DC  00000001 USING  ORDINARY    00000000 00001000 FFFFFFFD   1 000          @R1,1
  31377  000051FA  00000001 DROP                                            1              1
  31381  00005200  00000001 USING  ORDINARY    00000000 00001000 FFFFFFFD   1 000          @R1,1
  31420  0000521E  00000001 DROP                                            1              1
  31424  00005224  00000001 USING  ORDINARY    00000000 00001000 FFFFFFFD   1 000          @R1,1
  31463  00005242  00000001 DROP                                            1              1
  31467  00005248  00000001 USING  ORDINARY    00000000 00001000 FFFFFFFD   1 008   32766  @R1,1
  31760  0000533C  00000001 USING  ORDINARY    00000000 00001000 FFFFFFF9   5 000          @R5,5
  31765  0000533C  00000001 USING  ORDINARY    00000000 00001000 FFFFFFF8   6 000          @R6,6
  31770  0000533C  00000001 USING  ORDINARY    00000000 00001000 FFFFFFF7   7 000          @R7,7
  31827  00005364  00000001 USING  ORDINARY    00005364 00001000 00000001   7 838   32259  $$$737B,7
  31845  00005364  00000001 USING  ORDINARY    00000000 00001000 FFFFFFE2   6 18C   32270  SAMWA,R6
  31865  00005368  00000001 USING  ORDINARY    00000000 00001000 FFFFFFE7   5 164   31886  UNET,R5
  31901  0000537E  00000001 USING  ORDINARY    00000000 00001000 FFFFFFF9   5 000          @R5,5
  32286  00005486  00000001 USING  ORDINARY    00000000 00001000 FFFFFFF8   6 000          @R6,6
  32291  00005486  00000001 USING  ORDINARY    00000000 00001000 FFFFFFF7   7 000          @R7,7
  32347  000054AE  00000001 USING  ORDINARY    000054AE 00001000 00000001   7 73A   33028  $$$753B,7
  32365  000054AE  00000001 USING  ORDINARY    00000000 00001000 FFFFFFE2   6 18C   32453  SAMWA,R6
  32380  000054B2  00000001 USING  ORDINARY    00000000 00001000 FFFFFFE7   5 10C   32789  UNET,R5
  32807  000055CA  00000001 USING  ORDINARY    00000000 00001000 FFFFFFF9   5 000          @R5,5
1SAM      (SAM2193) (12:54) (15MAR04) Using Map                                                                             Page  223
  32810  000055CA  00000001 USING  ORDINARY    00000000 00001000 FFFFFFE9   5 062   32836  JCB,R5
  33045  0000566A  00000001 USING  ORDINARY    00000000 00001000 FFFFFFF9   5 000          @R5,5
  33048  0000566A  00000001 USING  ORDINARY    00000000 00001000 FFFFFFE7   5 000          UNET,5
  33057  0000566A  00000001 USING  ORDINARY    00000000 00001000 FFFFFFF9   5 000          @R5,5
  33062  0000566A  00000001 USING  ORDINARY    00000000 00001000 FFFFFFF8   6 000          @R6,6
  33067  0000566A  00000001 USING  ORDINARY    00000000 00001000 FFFFFFF7   7 000          @R7,7
  33121  00005692  00000001 USING  ORDINARY    00005692 00001000 00000001   7 596   33469  $$$769B,7
  33139  00005692  00000001 USING  ORDINARY    00000000 00001000 FFFFFFE2   6 18C   33466  SAMWA,R6
  33171  0000569C  00000001 USING  ORDINARY    00000000 00001000 FFFFFFE7   5 164   33394  UNET,R5
  33476  00005776  00000001 USING  ORDINARY    00000000 00001000 FFFFFFF9   5 000          @R5,5
  33491  00005778  00000001 USING  ORDINARY    00000000 00001000 FFFFFFF8   6 000          @R6,6
  33496  00005778  00000001 USING  ORDINARY    00000000 00001000 FFFFFFF7   7 000          @R7,7
  33547  000057A0  00000001 USING  ORDINARY    000057A0 00001000 00000001   7 48C   33795  $$$779B,7
  33565  000057A0  00000001 USING  ORDINARY    00000000 00001000 FFFFFFE2   6 126   33803  SAMWA,R6
  33648  000057E0  00000001 DROP                                            1              1
  33652  000057E6  00000001 USING  ORDINARY    00000000 00001000 FFFFFFFD   1 000          @R1,1
  33728  00005818  00000001 DROP                                            1              1
  33732  0000581E  00000001 USING  ORDINARY    00000000 00001000 FFFFFFFD   1 100   44315  @R1,1
  33810  00005854  00000001 USING  ORDINARY    00000000 00001000 FFFFFFF8   6 000          @R6,6
  33815  00005854  00000001 USING  ORDINARY    00000000 00001000 FFFFFFF7   7 000          @R7,7
  33864  0000587C  00000001 USING  ORDINARY    0000587C 00001000 00000001   7 2C0   33908  $$$782B,7
  33882  0000587C  00000001 USING  ORDINARY    00000000 00001000 FFFFFFE2   6 0E8   33916  SAMWA,R6
  33923  00005896  00000001 USING  ORDINARY    00000000 00001000 FFFFFFF8   6 000          @R6,6
  33928  00005896  00000001 USING  ORDINARY    00000000 00001000 FFFFFFF7   7 000          @R7,7
  33978  000058BE  00000001 USING  ORDINARY    000058BE 00001000 00000001   7 280   34022  $$$785B,7
  33996  000058BE  00000001 USING  ORDINARY    00000000 00001000 FFFFFFE2   6 0E8   34030  SAMWA,R6
  34037  000058D8  00000001 USING  ORDINARY    00000000 00001000 FFFFFFF8   6 000          @R6,6
  34042  000058D8  00000001 USING  ORDINARY    00000000 00001000 FFFFFFF7   7 000          @R7,7
  34091  00005900  00000001 USING  ORDINARY    00005900 00001000 00000001   7 2C3   34279  $$$788B,7
  34109  00005900  00000001 USING  ORDINARY    00000000 00001000 FFFFFFE2   6 0E8   34276  SAMWA,R6
  34287  00005972  00000001 USING  ORDINARY    00000000 00001000 FFFFFFF8   6 000          @R6,6
  34292  00005972  00000001 USING  ORDINARY    00000000 00001000 FFFFFFF7   7 000          @R7,7
  34549  00005C72  00000001 USING  ORDINARY    00005C72 00001000 00000001   7 555   35961  $$$802B,7
  34563  00005C72  00000001 USING  ORDINARY    FFFFFFE0 00001000 FFFFFFDC   8 064   35548  SSGWA-(4+28),R8
  34585  00005C7C  00000001 USING  ORDINARY    00000000 00001000 FFFFFFE2   6 2CC   35972  SAMWA,R6
  34630  00005CA0  00000001 USING  ORDINARY    00000000 00001000 FFFFFFE5   5 020   35960  SEGCB,R5
  35989  00005FEE  00000001 USING  ORDINARY    00000000 00001000 FFFFFFF9   5 00D   43560  @R5,5
  35994  00005FEE  00000001 USING  ORDINARY    00000000 00001000 FFFFFFF8   6 000          @R6,6
  35999  00005FEE  00000001 USING  ORDINARY    00000000 00001000 FFFFFFF6   8 000          @R8,8
  36004  00005FEE  00000001 USING  ORDINARY    00000000 00001000 FFFFFFF7   7 000          @R7,7
  36063  00006016  00000001 USING  ORDINARY    00006016 00001000 00000001   7 1AE   36474  $$$846B,7
  36082  0000601A  00000001 USING  ORDINARY    00000000 00001000 FFFFFFE2   6 2CC   36493  SAMWA,R6
  36518  0000611A  00000001 USING  ORDINARY    00000000 00001000 FFFFFFF8   6 000          @R6,6
  36523  0000611A  00000001 USING  ORDINARY    00000000 00001000 FFFFFFF7   7 000          @R7,7
  36740  000061F8  00000001 USING  ORDINARY    000061F8 00001000 00000001   7 B40   37340  $$$873B,7
  36754  000061F8  00000001 USING  ORDINARY    FFFFFFD8 00001000 FFFFFFDB   8 066   37337  INTWA-(4+36),R8
  36776  00006202  00000001 USING  ORDINARY    00000000 00001000 FFFFFFE2   6 2CD   37300  SAMWA,R6
  37354  000063C8  00000001 USING  ORDINARY    00000000 00001000 FFFFFFF8   6 000          @R6,6
  37359  000063C8  00000001 USING  ORDINARY    00000000 00001000 FFFFFFF6   8 000          @R8,8
  37364  000063C8  00000001 USING  ORDINARY    00000000 00001000 FFFFFFF7   7 000          @R7,7
  37455  000063F0  00000001 USING  ORDINARY    000063F0 00001000 00000001   7 982   38368  $$$893B,7
  37469  000063F0  00000001 USING  ORDINARY    FFFFFFD8 00001000 FFFFFFDA   8 02A   38361  INLWA-(4+36),R8
  37491  000063FA  00000001 USING  ORDINARY    00000000 00001000 FFFFFFE2   6 2CC   38325  SAMWA,R6
  38382  00006634  00000001 USING  ORDINARY    00000000 00001000 FFFFFFF8   6 000          @R6,6
  38387  00006634  00000001 USING  ORDINARY    00000000 00001000 FFFFFFF6   8 000          @R8,8
  38392  00006634  00000001 USING  ORDINARY    00000000 00001000 FFFFFFF7   7 000          @R7,7
  38557  0000665C  00000001 USING  ORDINARY    0000665C 00001000 00000001   7 6B8   38796  $$$940B,7
  38571  0000665C  00000001 USING  ORDINARY    FFFFFFD8 00001000 FFFFFFD9   8 064   38802  INRYWA-(4+36),R8
  38584  0000665C  00000001 USING  ORDINARY    00000000 00001000 FFFFFFE2   6 2CC   38629  SAMWA,R6
1SAM      (SAM2193) (12:54) (15MAR04) Using Map                                                                             Page  224
  38813  0000671A  00000001 USING  ORDINARY    00000000 00001000 FFFFFFF8   6 000          @R6,6
  38818  0000671A  00000001 USING  ORDINARY    00000000 00001000 FFFFFFF6   8 000          @R8,8
  38823  0000671A  00000001 USING  ORDINARY    00000000 00001000 FFFFFFF7   7 000          @R7,7
  38925  00006742  00000001 USING  ORDINARY    00006742 00001000 00000001   7 5A0   39965  $$$949B,7
  38939  00006742  00000001 USING  ORDINARY    FFFFFFD8 00001000 FFFFFFD8   8 03B   39819  INPWA-(4+36),R8
  38952  00006742  00000001 USING  ORDINARY    00000000 00001000 FFFFFFE2   6 AFC   39964  SAMWA,R6
  39974  00006A48  00000001 USING  ORDINARY    00000000 00001000 FFFFFFF8   6 000          @R6,6
  39979  00006A48  00000001 USING  ORDINARY    00000000 00001000 FFFFFFF6   8 000          @R8,8
  39984  00006A48  00000001 USING  ORDINARY    00000000 00001000 FFFFFFF7   7 000          @R7,7
  40039  00006A70  00000001 USING  ORDINARY    00006A70 00001000 00000001   7 2DB   40343  $$$983B,7
  40057  00006A70  00000001 USING  ORDINARY    00000000 00001000 FFFFFFE2   6 12E   40304  SAMWA,R6
  40357  00006B2E  00000001 USING  ORDINARY    00000000 00001000 FFFFFFF8   6 000          @R6,6
  40362  00006B2E  00000001 USING  ORDINARY    00000000 00001000 FFFFFFF7   7 000          @R7,7
  40529  00006D92  00000001 USING  ORDINARY    00006D92 00001000 00000001   7 A20   40726  $$$991B,7
  40543  00006D92  00000001 USING  ORDINARY    FFFFFFD8 00001000 FFFFFFD7   8 030   40729  INDWA-(4+36),R8
  40738  00006E24  00000001 USING  ORDINARY    00000000 00001000 FFFFFFF6   8 000          @R8,8
  40743  00006E24  00000001 USING  ORDINARY    00000000 00001000 FFFFFFF7   7 000          @R7,7
  40831  00006E4C  00000001 USING  ORDINARY    00006E4C 00001000 00000001   7 944   41203  $$$1002B,7
  40845  00006E4C  00000001 USING  ORDINARY    FFFFFFD8 00001000 FFFFFFD6   8 032   41187  INXWA-(4+36),R8
  40859  00006E50  00000001 USING  ORDINARY    00000000 00001000 FFFFFFE2   6 128   41156  SAMWA,R6
  41125  00006F18  00000001 DROP                                           15              15
  41129  00006F1E  00000001 USING  ORDINARY    00000000 00001000 FFFFFFEF  15 002   42073  @R15,15
  41228  00006F7C  00000001 USING  ORDINARY    00000000 00001000 FFFFFFF8   6 000          @R6,6
  41233  00006F7C  00000001 USING  ORDINARY    00000000 00001000 FFFFFFF6   8 000          @R8,8
  41238  00006F7C  00000001 USING  ORDINARY    00000000 00001000 FFFFFFF7   7 000          @R7,7
  41326  00006FA4  00000001 USING  ORDINARY    00006FA4 00001000 00000001   7 7EC   41657  $$$1017B,7
  41340  00006FA4  00000001 USING  ORDINARY    FFFFFFD8 00001000 FFFFFFD5   8 032   41641  IN7WA-(4+36),R8
  41354  00006FA8  00000001 USING  ORDINARY    00000000 00001000 FFFFFFE2   6 128   41612  SAMWA,R6
  41682  000070AE  00000001 USING  ORDINARY    00000000 00001000 FFFFFFF8   6 000          @R6,6
  41687  000070AE  00000001 USING  ORDINARY    00000000 00001000 FFFFFFF6   8 000          @R8,8
  41692  000070AE  00000001 USING  ORDINARY    00000000 00001000 FFFFFFF7   7 000          @R7,7
  41749  000070D6  00000001 USING  ORDINARY    000070D6 00001000 00000001   7 69E   41764  $$$1031B,7
  41772  000070E2  00000001 USING  ORDINARY    00000000 00001000 FFFFFFF7   7 000          @R7,7
  41858  0000710A  00000001 USING  ORDINARY    0000710A 00001000 00000001   7 A46   42099  $$$1034B,7
  41872  0000710A  00000001 USING  ORDINARY    FFFFFFD8 00001000 FFFFFFD4   8 034   42085  OUTDWA-(4+36),R8
  41972  00007144  00000001 DROP                                            2              2
  41976  0000714A  00000001 USING  ORDINARY    00000000 00001000 FFFFFFFC   2 000          @R2,2
  42123  000071C8  00000001 USING  ORDINARY    00000000 00001000 FFFFFFF6   8 000          @R8,8
  42128  000071C8  00000001 USING  ORDINARY    00000000 00001000 FFFFFFF7   7 000          @R7,7
  42214  000071F0  00000001 USING  ORDINARY    000071F0 00001000 00000001   7 960   42863  $$$1044B,7
  42228  000071F0  00000001 USING  ORDINARY    FFFFFFD8 00001000 FFFFFFD3   8 030   42847  OUTXWA-(4+36),R8
  42242  000071F4  00000001 USING  ORDINARY    00000000 00001000 FFFFFFE2   6 0DE   42838  SAMWA,R6
  42357  00007242  00000001 DROP                                           15              15
  42361  00007248  00000001 USING  ORDINARY    00000000 00001000 FFFFFFEF  15 000          @R15,15
  42364  00007248  00000001 DROP                                           14              14
  42368  0000724E  00000001 USING  ORDINARY    00000000 00001000 FFFFFFF0  14 000   42614  @R14,14
  42585  000072DE  00000001 DROP                                           15              15
  42589  000072E4  00000001 USING  ORDINARY    00000000 00001000 FFFFFFEF  15 000          @R15,15
  42662  0000732C  00000001 DROP                                           15              15
  42666  00007332  00000001 USING  ORDINARY    00000000 00001000 FFFFFFEF  15 001   43558  @R15,15
  42669  00007332  00000001 DROP                                           14              14
  42673  00007338  00000001 USING  ORDINARY    00000000 00001000 FFFFFFF0  14 000   42712  @R14,14
  42888  000073E4  00000001 USING  ORDINARY    00000000 00001000 FFFFFFF8   6 000          @R6,6
  42893  000073E4  00000001 USING  ORDINARY    00000000 00001000 FFFFFFF6   8 000          @R8,8
  42898  000073E4  00000001 USING  ORDINARY    00000000 00001000 FFFFFFF7   7 000          @R7,7
  42984  0000740C  00000001 USING  ORDINARY    0000740C 00001000 00000001   7 744   43299  $$$1077B,7
  42998  0000740C  00000001 USING  ORDINARY    FFFFFFD8 00001000 FFFFFFD2   8 030   43283  OUT7WA-(4+36),R8
  43012  00007410  00000001 USING  ORDINARY    00000000 00001000 FFFFFFE2   6 0DE   43252  SAMWA,R6
  43108  00007456  00000001 DROP                                            2              2
1SAM      (SAM2193) (12:54) (15MAR04) Using Map                                                                             Page  225
  43112  0000745C  00000001 USING  ORDINARY    00000000 00001000 FFFFFFFC   2 000   43703  @R2,2
  43115  0000745C  00000001 DROP                                           14              14
  43119  00007462  00000001 USING  ORDINARY    00000000 00001000 FFFFFFF0  14 000   43159  @R14,14
  43324  00007514  00000001 USING  ORDINARY    00000000 00001000 FFFFFFF8   6 000          @R6,6
  43329  00007514  00000001 USING  ORDINARY    00000000 00001000 FFFFFFF6   8 000          @R8,8
  43334  00007514  00000001 USING  ORDINARY    00000000 00001000 FFFFFFF7   7 000          @R7,7
  43421  0000753C  00000001 USING  ORDINARY    0000753C 00001000 00000001   7 264   43574  $$$1090B,7
  43435  0000753C  00000001 USING  ORDINARY    FFFFFFD8 00001000 FFFFFFD1   8 03C   43570  OUTHWA-(4+36),R8
  43584  000075A8  00000001 USING  ORDINARY    00000000 00001000 FFFFFFF6   8 000          @R8,8
  43589  000075A8  00000001 USING  ORDINARY    00000000 00001000 FFFFFFF7   7 000          @R7,7
  43645  000075D0  00000001 USING  ORDINARY    000075D0 00001000 00000001   7 1D6   43717  $$$1098B,7
  43726  000075FA  00000001 USING  ORDINARY    00000000 00001000 FFFFFFF7   7 000          @R7,7
  43782  00007622  00000001 USING  ORDINARY    00007622 00001000 00000001   7 18A   43853  $$$1106B,7
  43862  00007648  00000001 USING  ORDINARY    00000000 00001000 FFFFFFF7   7 000          @R7,7
  43960  000078CC  00000001 USING  ORDINARY    000078CC 00001000 00000001   7 3DC   44002  $$$1114B,7
  44009  000078E8  00000001 USING  ORDINARY    00000000 00001000 FFFFFFF7   7 000          @R7,7
  44069  00007910  00000001 USING  ORDINARY    00007910 00001000 00000001   7 39C   44128  $$$1119B,7
  44139  0000793E  00000001 USING  ORDINARY    00000000 00001000 FFFFFFF7   7 000          @R7,7
  44266  00007C6A  00000001 USING  ORDINARY    00007C6A 00001000 00000001   7 04A   44333  $$$1124B,7
  44343  00007C94  00000001 USING  ORDINARY    00000000 00001000 FFFFFFF7   7 000          @R7,7

1         (SAM2193) (12:54) (15MAR04) General Purpose Register Cross Reference                                              Page  226
- Register  References (M=modified, B=branch, U=USING, D=DROP, N=index)                      HLASM R4.0  2004/03/15 12.54
0    0(0)      993U   994D  2108   2176M  2176   2177M  7554   7620M  7620   7629   7630   7813M  7813   7844M  8229
              8261   8282M  8302   8331M  8331   8350M  8370   8402   8423M  8443   8495M  8515   8580M  8600   8665M
              8685   8744M  8764   8829M  8849   8914M  8934   8999M  9019   9078M  9098   9147M  9167   9213M  9233
              9280M  9300   9347M  9367   9413M  9433   9479M  9499   9546M  9566   9612M  9632   9679M  9699   9766M
              9800   9832M  9832   9841   9842   9886M  9904M  9922M  9947M  9947   9970M  9989M 10015M 10036M 10036
             10053M 10053  10063M 10098M 10124M 10145M 10145  10162M 10162  10172M 10207M 10233M 10254M 10254  10271M
             10271  10281M 10316M 10342M 10363M 10363  10380M 10380  10390M 10425M 10451M 10472M 10472  10489M 10489
             10499M 10540M 10540  10559M 10585M 10606M 10606  10623M 10623  10633M 10668M 10689M 10689  10708M 10729M
             10729  10748M 10770M 10770  10806M 10839M 10860M 10860  10900M 10933M 10961M 10961  10982M 11002M 11035M
             11068M 11101M 11121M 11154M 11195M 11195  11224M 11270M 11291M 11291  11319M 11370M 11391M 11391  11419M
             11470M 11491M 11491  11519M 11570M 11591M 11591  11619M 11669M 11669  11704M 11738M 11772M 11811M 11850M
             11872M 11907M 11929M 11958M 12139  12185  12187M 12219  12351M 12353M 12422M 12454  12507  12611  12698
             12754  12766M 12767M 12802M 12826  12898M 12910M 12968M 12993M 12993  13029M 13036M 13073M 13097M 13127M
             13157M 13175M 13205M 13222M 13242M 13266M 13290M 13325M 13346M 13346  13364M 13389M 13389  13445M 13447M
             13593M 13643M 13643  13680M 13680  13722M 14278  14324M 14342M 14361M 14434M 14451M 14451  14461M 14467
             14473M 14488M 14529M 14529  14563M 14563  14593M 14625  14671M 14689M 14708M 14721M 14738M 14738  14749M
             14767M 14774  14841M 14867M 14896M 14896  14930M 14930  14960M 15029  15085M 15235  15289  15400M 15451M
             15466M 15482M 15559M 15559  15617M 15617  15722M 15722  15795  15806M 15806  15815  15816  15897M 16109M
             16130M 16130  16178M 16207M 16224M 16253M 16270M 16299M 16316M 16345M 16362M 16391M 16408M 16437M 16455M
             16493M 16530M 16530  16602  16613M 16613  16622  16623  16682M 16682  16719M 16743M 16743  16762M 16775M
             16775  17256M 17629  17659M 17669  17743M 17763  17793M 17803  17877M 17897  17927M 17937  18011M 18031
             18057  18072M 18092  18118  18133M 18153  18179  18194M 18214  18240  18258M 18258  18291  18323  18415M
             18435  18465M 18475  18549M 18569  18599M 18609  18684M 18704  18734M 18744  18818M 18838  18868M 18878
             18952M 18972  18998  19013M 19033  19059  19074M 19094  19267M 19287  19424M 19494  19539M 19598M 19602
             19613M 19613  19622  19623  19677M 19692M 19708M 19796M 19796  19830M 19857M 19897M 19897  20003  20014M
             20014  20023  20024  20076M 20076  20163M 20240  20270M 20281  20356M 20398  20426  20448M 20488M 20489
             20508M 20523M 20539M 20627M 20627  20661M 20686M 20708M 20733M 20773M 20773  20879  20890M 20890  20899
             20900  20952M 20952  21039M 21131  21161M 21188M 21209  21239M 21250  21325M 21365  21401  21412M 21473M
             21477  21488M 21488  21497  21498  21555M 21570M 21586M 21674M 21674  21708M 21735M 21773M 21798M 21842M
             21842  21948  21959M 21959  21968  21969  22133M 22133  22220M 22301  22336M 22387M 22402M 22418M 22506M
             22506  22540M 22580M 22580  22685  22696M 22696  22705  22706  22758M 22758  22845M 22960  23005M 23060M
             23064  23075M 23075  23084  23085  23162M 23180M 23247M 23273M 23330M 23345M 23361M 23474M 23474  23626M
             23653M 23695M 23715M 23750M 23750  23792M 23833M 23876M 23918M 23962M 23962  24068  24079M 24079  24088
             24089  24184M 24405  24451M 24472  24519M 24540  24594M 24615  24667M 24688  24734M 24755  24801M 24822
             24871M 24892  24945M 24966  25019M 25040  25086M 25106  25164  25183M 25203  25260  25279M 25501  25531M
             25542  25617M 25637  25683M 25703  25752M 25772  25819M 25839  25885M 25905  25952M 25972  26027M 26047
             26093M 26113  26160M 26180  26272M 26288  26361M 26381  26411M 26421  26496M 26630  26668  26705  26966
             26992  27021M 27053  27114  27141  27156  27268  27343M 27343  27377M 27399M 27399  27421M 27451M 27468M
             27493M 27511M 27655M 27668M 27702M 27720M 27818M 27841M 27891M 27944M 27944  28111M 28137M 28156M 28238M
             28238  28278M 28348M 28376  28437  28542M 28606M 28606  28674M 28674  28726M 28726  28800M 28862  28941M
             28957M 29008M 29023M 29039M 29117M 29130M 29163M 29176M 29209M 29222M 29255M 29268M 29316M 29316  29388
             29399M 29399  29408  29409  29440M 29455  29478M 29488  29513M 29582  29612M 29622  29668  29684M 29705
             29735M 29745  29791  29807M 29868  29905  29987M 30014M 30032M 30075M 30088M 30088  30103  30112M 30125
             30167M 30167  30176M 30190M 30198  30218M 30350  30628M 30642  30720M 30729M 30729  30770M 30772M 30773
             30774  30846M 30879  30999M 31024  31068M 31077M 31077  31316M 31342M 31342  31359M 31385M 31385  31402M
             31428M 31428  31445M 31471M 31471  31488M 31509M 31509  31547M 31591M 31591  31668  31675M 31693M 31708M
             31738M 31778M 31810  31916M 31916  31933M 32008  32015M 32030M 32095  32119M 32137M 32158M 32279  32299M
             32330  32406  32412M 32434M 32486M 32518  32534  32583M 32596M 32628M 32665M 32681M 32715M 32756M 32861M
             32861  32895M 32917M 32917  32939M 32969M 32986M 33011M 33029M 33075M 33104  33180M 33251M 33251  33317M
             33317  33336  33343M 33358M 33458M 33458  33504M 33530  33589M 33606M 33630M 33659M 33686M 33710M 33739M
             33766M 33784M 33823M 33847  33897M 33936M 33961  34011M 34050M 34074  34126M 34151M 34193M 34246M 34268M
             34300M 34610  34679  34688  34697  34717M 34719M 34736M 34896  35040M 35064M 35173M 35186  35212M 35214
             35271M 35324M 35324  35512M 35712M 35712  35748  35774M 35924M 36046  36107  36256M 36272  36408M 36410M
             36412M 36413  36483M 36498M 36511  36531M 36722  36801  36824M 36883M 36974M 36974  37009M 37027M 37119M
             37121M 37142M 37254  37290M 37317  37372M 37437  37516  37562M 37562  37596M 37614M 37815M 37817M 37846M
1         (SAM2193) (12:54) (15MAR04) General Purpose Register Cross Reference                                              Page  227
             37846  37920M 37922M 37947M 38062  38118M 38118  38124  38165M 38174M 38375  38400M 38539  38609  38634M
             38715M 38715  38769M 38769  38831M 38907  38986  39258M 39303M 39506M 39533M 39534M 39544  39605M 39632M
             39670M 39751M 39805M 39842  39871M 39873M 39992M 40022  40081M 40099M 40144M 40144  40265M 40265  40287M
             40308M 40308  40326M 40344M 40370M 40511  40548  40550  40655M 40711M 40713M 40729M 40731  40751M 40813
             40884  40902  40926M 40928M 41086M 41188M 41189M 41202  41211  41220  41246M 41308  41379  41397  41424M
             41426M 41565M 41642M 41643M 41656  41665  41674  41700M 41840  41884  41890  42000M 42002M 42016M 42043M
             42068M 42070M 42085M 42098  42107  42116  42136M 42196  42267  42285  42309M 42311M 42394M 42601M 42699M
             42848M 42849M 42862  42871  42881  42906M 42966  43037  43055  43079M 43081M 43146M 43284M 43285M 43298
             43307  43317  43342M 43403  43448  43449  43472M 43474M 43504M 43570M 43571M 43571  43577  43597M 43628
             43666M 43666  43672  43713M 43734M 43765  43801M 43801  43807  43849M 43870M 43943  43984M 43984  43995M
             44017M 44052  44092M 44092  44124M 44147M 44249  44287M 44287  44325M 44336  44351M
     1(1)      989U  2108   2171M  2172M  2178M  7554   7616M  7629N  7630N  7632N  7844M  8229   8282M  8302   8350M
              8370   8423M  8443   8495M  8515   8580M  8600   8665M  8685   8744M  8764   8829M  8849   8914M  8934
              8999M  9019   9078M  9098   9147M  9167   9213M  9233   9280M  9300   9347M  9367   9413M  9433   9479M
              9499   9546M  9566   9612M  9632   9679M  9699   9736M  9737M  9737   9766M  9800   9828M  9841N  9842N
              9844N  9885M  9903M  9921M  9969M  9988M 10010M 10062M 10097M 10119M 10171M 10206M 10228M 10280M 10315M
             10337M 10389M 10424M 10446M 10498M 10558M 10580M 10632M 10667M 10685M 10707M 10725M 10747M 10766M 10805M
             10838M 10856M 10899M 10932M 10953D 10955M 10955  10956M 10957U 10981M 11001M 11034M 11067M 11100M 11120M
             11153M 11217M 11269M 11287M 11312M 11369M 11387M 11412M 11469M 11487M 11512M 11569M 11587M 11612M 11697M
             11737M 11771M 11810M 11849M 11871M 11906M 11928M 11958M 12139  12184  12190M 12192  12219  12352M 12353M
             12391M 12391  12422M 12454  12480  12507  12611  12698  12754  12765M 12770M 12770  12802M 12826  12897M
             12909M 12967M 13028M 13036M 13072M 13090M 13120M 13150M 13174M 13198M 13221M 13241M 13265M 13289M 13324M
             13342M 13363M 13446M 13447M 13588M 13722M 14278  14323M 14341M 14360M 14373M 14433M 14460M 14467  14472M
             14488M 14593M 14625  14670M 14688M 14707M 14720M 14748M 14766M 14773  14781M 14840M 14862M 14960M 15029
             15085M 15235  15405  15406  15446M 15480M 15481M 15794  15802M 15815N 15816N 15818N 15890M 16108M 16126M
             16173  16177M 16200M 16223M 16246M 16269M 16292M 16315M 16338M 16361M 16384M 16407M 16430M 16454M 16486M
             16601  16609M 16622N 16623N 16625N 16717M 16757M 17256M 17629  17658M 17743M 17763  17792M 17877M 17897
             17926M 18011M 18031  18072M 18092  18133M 18153  18194M 18214  18415M 18435  18464M 18549M 18569  18598M
             18684M 18704  18733M 18818M 18838  18867M 18952M 18972  19013M 19033  19074M 19094  19267M 19287  19424M
             19494  19544  19545  19593M 19601  19609M 19622N 19623N 19625N 19672M 19706M 19707M 19829M 19852M 20002
             20010M 20023N 20024N 20026N 20163M 20240  20269M 20356M 20398  20426  20453  20454  20488M 20490  20503M
             20537M 20538M 20660M 20681M 20707M 20728M 20878  20886M 20899N 20900N 20902N 21039M 21131  21160M 21188M
             21209  21238M 21325M 21365  21402  21417  21418  21468M 21476  21484M 21497N 21498N 21500N 21529M 21550M
             21584M 21585M 21707M 21730M 21772M 21793M 21947  21955M 21968N 21969N 21971N 22220M 22301  22341  22342
             22382M 22416M 22417M 22539M 22684  22692M 22705N 22706N 22708N 22845M 22960  22986  23010  23011  23055M
             23063  23071M 23084N 23085N 23087N 23161M 23179M 23246M 23272M 23325M 23359M 23360M 23625M 23648M 23694M
             23714M 23746M 23791M 23832M 23875M 23917M 24067  24075M 24088N 24089N 24091N 24184M 24405  24451M 24472
             24519M 24540  24594M 24615  24667M 24688  24734M 24755  24801M 24822  24871M 24892  24945M 24966  25019M
             25040  25086M 25106  25183M 25203  25279M 25501  25530M 25617M 25637  25683M 25703  25752M 25772  25819M
             25839  25885M 25905  25952M 25972  26027M 26047  26093M 26113  26160M 26180  26271M 26361M 26381  26410M
             26496M 26630  26667  26705  26965  26989M 26992  27021M 27053  27114  27132M 27132  27141  27267  27339M
             27376M 27395M 27420M 27444M 27467M 27492M 27510M 27654M 27701M 27719M 27813M 27840M 27886M 28104M 28136M
             28155M 28273M 28348M 28376  28437  28541M 28800M 28862  28940M 28962  28963  29003M 29037M 29038M 29116M
             29130M 29162M 29176M 29208M 29222M 29254M 29268M 29387  29395M 29408N 29409N 29411N 29440M 29478M 29488
             29513M 29582  29611M 29667M 29668  29684M 29705  29734M 29790M 29791  29807M 29868  29904  29986M 30009M
             30031M 30070M 30103  30112M 30169M 30169  30175M 30198  30218M 30350  30386  30461M 30501M 30505M 30623M
             30715M 30768M 30846M 30879  30999M 31024  31067M 31083  31085  31144M 31151M 31315M 31334D 31336M 31336
             31337M 31338U 31358M 31377D 31379M 31379  31380M 31381U 31401M 31420D 31422M 31422  31423M 31424U 31444M
             31463D 31465M 31465  31466M 31467U 31487M 31505M 31546M 31642M 31668  31674M 31692M 31708M 31737M 31778M
             31810  31885M 32008  32014M 32030M 32118M 32136M 32157M 32279  32299M 32330  32406  32411M 32434M 32485M
             32517  32582M 32627M 32664M 32680M 32714M 32766M 32857M 32894M 32913M 32938M 32962M 32985M 33010M 33028M
             33075M 33104  33179M 33286M 33318M 33336  33342M 33358M 33504M 33530  33588M 33605M 33623M 33648D 33650M
             33650  33651M 33652U 33681M 33703M 33728D 33730M 33730  33731M 33732U 33761M 33783M 33823M 33847  33896M
             33936M 33961  34010M 34050M 34074  34125M 34144M 34186M 34239M 34267M 34300M 34610  34688  34717  34718M
             34719M 34731M 35035M 35059M 35168M 35213  35264M 35376M 35392M 35415M 35507M 35773M 35923M 36046  36107
             36251M 36388  36409M 36410M 36415M 36416M 36443M 36443  36470M 36481  36482  36483M 36493M 36511  36531M
             36722  36801  36819M 36878M 37008M 37026M 37120M 37121M 37137M 37253  37283M 37317  37372M 37437  37516
             37595M 37613M 37665M 37678M 37686M 37688  37689  37816M 37817M 37848M 37848  37853  37858  37921M 37922M
             37942M 38062  38164M 38174M 38375  38400M 38539  38609  38629M 38831M 38907  38985  39056M 39172M 39200M
1         (SAM2193) (12:54) (15MAR04) General Purpose Register Cross Reference                                              Page  228
             39232M 39251M 39276M 39296M 39321M 39367M 39377M 39406M 39445M 39455M 39499M 39524M 39552M 39600M 39627M
             39663M 39692M 39744M 39773M 39798M 39842  39872M 39873M 39992M 40022  40062  40074M 40098M 40286M 40304M
             40325M 40343M 40370M 40511  40548  40549  40591M 40603M 40611M 40613  40614  40648M 40712M 40713M 40729M
             40731  40751M 40813  40884  40900  40903  40927M 40928M 41079M 41187M 41189  41211  41220  41246M 41308
             41379  41395  41398  41425M 41426M 41558M 41641M 41643  41665  41674  41700M 41840  41884  41889  41931M
             41943M 41951M 41953  41954  42001M 42002M 42023M 42036M 42069M 42070M 42085M 42107  42116  42136M 42196
             42267  42283  42286  42310M 42311M 42401M 42608M 42706M 42847M 42849  42871  42881  42906M 42966  43037
             43053  43056  43080M 43081M 43153M 43283M 43285  43307  43317  43342M 43403  43447  43449  43473M 43474M
             43511M 43570M 43577  43597M 43628  43712M 43734M 43765  43848M 43870M 43943  43993M 44017M 44052  44122M
             44147M 44249  44323M 44336  44351M
     2(2)      985U  2108   7554   7844M  8229   8282M  8302   8350M  8370   8423M  8443   8495M  8515   8580M  8600
              8665M  8685   8744M  8764   8829M  8849   8914M  8934   8999M  9019   9078M  9098   9147M  9167   9213M
              9233   9280M  9300   9347M  9367   9413M  9433   9479M  9499   9546M  9566   9612M  9632   9679M  9699
              9766M  9800  11958M 12139  12422M 12454  12507  12611  12698  12754  12802M 12826  13403M 13406  13418M
             13425  13438  13468  13482M 13482  13488  13529M 13538M 13545  13562M 13565  13577M 13593  13660  13661
             13722M 14278  14593M 14625  14960M 15029  15085M 15235  15398M 15430  16173M 16338  16720M 16784M 17256M
             17629  17743M 17763  17877M 17897  18011M 18031  18072M 18092  18133M 18153  18194M 18214  18265M 18298M
             18330M 18348M 18371  18415M 18435  18549M 18569  18684M 18704  18818M 18838  18952M 18972  19013M 19033
             19074M 19094  19267M 19287  19424M 19494  19537M 19569  20163M 20240  20281M 20284  20296M 20301  20305M
             20314M 20314  20321  20356M 20398  20426  20446M 20478  20488M 20491  21039M 21131  21188M 21209  21250M
             21253  21265M 21270  21274M 21283M 21283  21290  21325M 21365  21410M 21442  22220M 22301  22334M 22366
             22845M 22960  23003M 23031  24184M 24405  24451M 24472  24519M 24540  24594M 24615  24667M 24688  24734M
             24755  24801M 24822  24871M 24892  24945M 24966  25019M 25040  25086M 25106  25183M 25203  25279M 25501
             25542M 25545  25557M 25562  25566M 25575M 25575  25582  25617M 25637  25683M 25703  25752M 25772  25819M
             25839  25885M 25905  25952M 25972  26027M 26047  26093M 26113  26160M 26180  26361M 26381  26496M 26630
             26705  26911M 26921U 26936U 26943M 26944M 26945  26963M 26988M 26990M 26992  27021M 27053  27114  27141
             27257M 28004M 28004  28070M 28088M 28088  28146M 28146  28348M 28376  28437  28800M 28862  28955M 28987
             29513M 29582  29621M 29626  29628  29684M 29705  29744M 29749  29751  29807M 29868  30218M 30350  30402M
             30403  30407M 30416M 30416  30423  30462M 30466M 30475M 30475  30482  30506M 30510M 30519M 30519  30526
             30545M 30546M 30549M 30552  30564M 30569  30573M 30582M 30582  30589  30661M 30662  30666M 30675M 30675
             30682  30774M 30778M 30787M 30787  30794  30846M 30879  30934M 30935  30939M 30948M 30948  30955  30999M
             31024  31145M 31152M 31778M 31810  32234M 32251M 32251  32268M 32269M 32270  32299M 32330  33075M 33104
             33504M 33530  33823M 33847  33936M 33961  34050M 34074  34300M 34531  34610  34688  35213M 35214M 35264
             35364M 35432M 35432  36012M 36046  36107  36318M 36355M 36388M 36408  36413M 36414M 36468M 36483M 36531M
             36722  36801  37053M 37054M 37272M 37372M 37437  37516  37678M 37793M 37794M 37795M 37808  37878M 37879M
             37889M 37889  37913  37947  38065M 38082M 38103M 38315M 38332M 38332  38400M 38539  38609  38831M 38907
             39653M 39684  39734M 39765  39842  39850M 39851M 39859  39875  39992M 40022  40062M 40074  40370M 40511
             40603M 40751M 40813  40884  41211  41246M 41308  41379  41665  41700M 41732  41780M 41840  41930M 41930
             41943M 41964M 41964  41972D 41974M 41974  41975M 41976U 42009  42107  42136M 42196  42267  42871  42906M
             42966  43037  43108D 43110M 43110  43111M 43112U 43118N 43139  43200  43228  43307  43342M 43403  43516M
             43519  43531M 43537  43560N 43561  43597M 43628  43654M 43734M 43765  43870M 43943  43972M 43972  43990M
             43991  44017M 44052  44103M 44104M 44105M 44117M 44117  44118N 44147M 44249  44351M
     3(3)      981U  2108   7554   7844M  8229   8282M  8302   8350M  8370   8423M  8443   8495M  8515   8580M  8600
              8665M  8685   8744M  8764   8829M  8849   8914M  8934   8999M  9019   9078M  9098   9147M  9167   9213M
              9233   9280M  9300   9347M  9367   9413M  9433   9479M  9499   9546M  9566   9612M  9632   9679M  9699
              9766M  9800  11958M 12139  12185M 12333  12346  12422M 12454  12507  12611  12698  12754  12802M 12826
             13424M 13433  13468  13528M 13538M 13544  13588  13660M 13722M 14278  14593M 14625  14774M 14867  14960M
             15029  15085M 15235  15877M 15890  17256M 17629  17743M 17763  17877M 17897  18011M 18031  18072M 18092
             18133M 18153  18194M 18214  18266M 18331M 18349M 18392  18415M 18435  18549M 18569  18684M 18704  18818M
             18838  18952M 18972  19013M 19033  19074M 19094  19267M 19287  19424M 19494  20163M 20240  20356M 20398
             20426  20488M 20492  21039M 21131  21188M 21209  21325M 21365  21401M 21449  22220M 22301  22845M 22960
             24184M 24405  24451M 24472  24519M 24540  24594M 24615  24667M 24688  24734M 24755  24801M 24822  24871M
             24892  24945M 24966  25019M 25040  25086M 25106  25183M 25203  25279M 25501  25617M 25637  25683M 25703
             25752M 25772  25819M 25839  25885M 25905  25952M 25972  26027M 26047  26093M 26113  26160M 26180  26361M
             26381  26496M 26630  26705  26964M 26976  26983  26988M 27021M 27053  27114  27141  27268M 27564  27580
             27818  27878M 27891  28278  28306M 28306  28348M 28376  28437  28800M 28862  29513M 29582  29621M 29667
             29684M 29705  29744M 29790  29807M 29868  29965M 29976M 29976  30157M 30218M 30350  30846M 30879  30999M
             31024  31778M 31810  32299M 32330  33075M 33104  33504M 33530  33823M 33847  33936M 33961  34050M 34074
             34300M 34531  34610  34688  36012M 36046  36107  36482M 36483M 36531M 36722  36801  37098M 37099M 37107
1         (SAM2193) (12:54) (15MAR04) General Purpose Register Cross Reference                                              Page  229
             37137  37372M 37437  37516  37792M 37794  37815  37877M 37879  37920  38400M 38539  38609  38831M 38907
             39842  39992M 40022  40370M 40511  40751M 40813  40884  40902M 40919  40944M 40944  41059M 41104M 41114M
             41179M 41211  41246M 41308  41379  41397M 41417  41442M 41442  41537M 41583M 41593M 41633M 41665  41700M
             41732  41780M 41840  41977M 42036  42107  42136M 42196  42267  42285M 42302  42346M 42346  42411M 42453
             42481M 42491M 42514  42618M 42651M 42651  42716M 42727M 42743  42871  42906M 42966  43037  43055M 43072
             43097M 43097  43163M 43275M 43307  43342M 43403  43447M 43472  43558M 43558N 43597M 43628  43734M 43765
             43870M 43943  44017M 44052  44147M 44249  44351M
     4(4)      977U  2108   7554   7844M  8229   8282M  8302   8350M  8370   8423M  8443   8495M  8515   8580M  8600
              8665M  8685   8744M  8764   8829M  8849   8914M  8934   8999M  9019   9078M  9098   9147M  9167   9213M
              9233   9280M  9300   9347M  9367   9413M  9433   9479M  9499   9546M  9566   9612M  9632   9679M  9699
              9766M  9800  11958M 12139  12184M 12351  12422M 12454  12507  12611  12698  12754  12802M 12826  13471M
             13545M 13556M 13556  13562  13661M 13722M 14278  14593M 14625  14773M 14862  14960M 15029  15085M 15235
             15509M 15654M 17018M 17030M 17030  17158M 17256M 17629  17743M 17763  17877M 17897  18011M 18031  18072M
             18092  18133M 18153  18194M 18214  18415M 18435  18549M 18569  18684M 18704  18818M 18838  18952M 18972
             19013M 19033  19074M 19094  19267M 19287  19424M 19494  20163M 20240  20356M 20398  21039M 21131  21188M
             21209  21325M 21365  21402M 21449  22220M 22301  22845M 22960  24184M 24405  24451M 24472  24519M 24540
             24594M 24615  24667M 24688  24734M 24755  24801M 24822  24871M 24892  24945M 24966  25019M 25040  25086M
             25106  25183M 25203  25279M 25501  25617M 25637  25683M 25703  25752M 25772  25819M 25839  25885M 25905
             25952M 25972  26027M 26047  26093M 26113  26160M 26180  26361M 26381  26496M 26630  26705  26965M 26988M
             27021M 27053  27114  27141  27267M 27563  27813  27877M 27886  28273  28348M 28376  28437  28800M 28862
             29513M 29582  29684M 29705  29807M 29868  29905M 30014  30218M 30350  30846M 30879  30999M 31024  31778M
             31810  32299M 32330  33075M 33104  33504M 33530  33823M 33847  33936M 33961  34050M 34074  34300M 34531
             34610  34688  34697M 34710  34736  36012M 36046  36107  36531M 36722  36801  36862M 36868  36870M 36883
             36897  36900  37035M 37047  37053N 37074M 37075  37096M 37112  37123N 37126  37142  37268M 37272N 37372M
             37437  37516  37628M 37639M 37639  37645  37689M 37727M 37790M 37930  38400M 38539  38609  38831M 38907
             38986M 38998M 38998  39030M 39048  39192  39417M 39421M 39437M 39437  39455N 39481M 39533  39605  39632
             39833  39842  39864  39876  39992M 40022  40370M 40511  40550M 40565M 40565  40571  40614M 40626  40673M
             40691M 40704  40751M 40813  40884  40903M 40926  41112M 41167M 41176M 41188  41211  41246M 41308  41379
             41398M 41424  41591M 41630M 41642  41665  41700M 41732  41780M 41840  41890M 41901M 41901  41907  41954M
             41980M 41993  42061  42107  42136M 42196  42267  42286M 42309  42408M 42479M 42488M 42615M 42631M 42713M
             42724M 42831M 42848  42871  42906M 42966  43037  43056M 43079  43160M 43264M 43272M 43284  43307  43342M
             43403  43448M 43465  43489M 43489  43516  43561M 43597M 43628  43734M 43765  43870M 43943  44017M 44052
             44147M 44249  44351M
     5(5)      973U  2108   7554   7844M  8229   8282M  8302   8350M  8370   8423M  8443   8495M  8515   8580M  8600
              8665M  8685   8744M  8764   8829M  8849   8914M  8934   8999M  9019   9078M  9098   9147M  9167   9213M
              9233   9280M  9300   9347M  9367   9413M  9433   9479M  9499   9546M  9566   9612M  9632   9679M  9699
              9766M  9800  11958M 12139  12183M 12232  12260  12288  12422M 12454  12487M 12487  12507  12591M 12611
             12641M 12641  12673U 12698  12712U 12754  12802M 12826  13544M 13695  13722M 14278  14593M 14625  14960M
             15029  15085M 15235  15271M 15279U 17256M 17629  17743M 17763  17877M 17897  18011M 18031  18072M 18092
             18133M 18153  18194M 18214  18415M 18435  18549M 18569  18684M 18704  18818M 18838  18952M 18972  19013M
             19033  19074M 19094  19267M 19287  19424M 19436U 19494  19520M 19528U 20163M 20240  20356M 20367U 20398
             20429M 20437U 21039M 21131  21188M 21209  21325M 21336U 21365  21391M 21399U 22220M 22231U 22301  22845M
             22960  22986M 22994U 24184M 24405  24451M 24472  24519M 24540  24594M 24615  24667M 24688  24734M 24755
             24801M 24822  24871M 24892  24945M 24966  25019M 25040  25086M 25106  25183M 25203  25279M 25501  25617M
             25637  25683M 25703  25752M 25772  25819M 25839  25885M 25905  25952M 25972  26027M 26047  26093M 26113
             26160M 26180  26361M 26381  26496M 26508U 26630  26705  26966M 26976  26983M 26988M 27021M 27053  27114
             27141  28348M 28376  28437  28800M 28862  28898M 28906U 29513M 29582  29684M 29705  29807M 29819U 29868
             29904M 30009  30218M 30350  30846M 30879  30919M 30929U 30981U 30999M 31024  31085M 31095U 31760U 31778M
             31810  31855M 31865U 31901U 32299M 32330  32370M 32380U 32797M 32807U 32810U 33045U 33048U 33057U 33075M
             33104  33155M 33156M 33156  33171U 33476U 33504M 33530  33823M 33847  33936M 33961  34050M 34074  34300M
             34531  34610  34620M 34630U 34688  35989U 36012M 36046  36107  36142M 36180M 36180  36211M 36262M 36272
             36318N 36329M 36329  36357M 36371M 36371  36378M 36401  36414  36416  36498  36531M 36722  36801  36861M
             36878  36897M 36898  37034M 37095M 37119  37123M 37124  37267M 37372M 37437  37516  37627M 37686  37688M
             37725M 37788M 37793  37878  37929  38400M 38539  38609  38692M 38704M 38704  38792M 38831M 38907  38985M
             39028M 39416M 39600  39627  39842  39871  39992M 40022  40370M 40511  40549M 40611  40613M 40671M 40714M
             40751M 40813  40884  40929M 41058M 41102M 41113M 41177M 41211  41246M 41308  41379  41427M 41536M 41581M
             41592M 41631M 41665  41700M 41732  41780M 41840  41889M 41951  41953M 41977  41978M 42000  42071M 42107
             42136M 42196  42267  42312M 42409M 42480M 42489M 42616M 42714M 42725M 42871  42906M 42966  43037  43082M
             43161M 43273M 43307  43342M 43403  43478M 43560M 43597M 43628  43734M 43765  43870M 43943  44017M 44052
1         (SAM2193) (12:54) (15MAR04) General Purpose Register Cross Reference                                              Page  230
             44078M 44104  44111M 44120M 44132  44147M 44249  44351M
     6(6)      969U  2108   7554   7590M  7598U  7844M  8229   8282M  8302   8350M  8370   8423M  8443   8495M  8515
              8580M  8600   8665M  8685   8744M  8764   8829M  8849   8914M  8934   8999M  9019   9078M  9098   9147M
              9167   9213M  9233   9280M  9300   9347M  9367   9413M  9433   9479M  9499   9546M  9566   9612M  9632
              9679M  9699   9766M  9779U  9800  11958M 12139  12192M 12202U 12357  12404U 12422M 12454  12480M 12507
             12546M 12546  12565M 12581  12611  12647  12698  12706  12728U 12754  12784U 12802M 12826  12926M 12942U
             12956M 12957M 12957  13701U 13722M 14278  14380M 14388U 14593M 14604U 14625  14788M 14796U 14960M 14971U
             15029  15085M 15235  15406M 15416U 17220U 17256M 17629  17743M 17763  17877M 17897  18011M 18031  18072M
             18092  18133M 18153  18194M 18214  18415M 18435  18549M 18569  18684M 18704  18818M 18838  18952M 18972
             19013M 19033  19074M 19094  19267M 19287  19424M 19494  19545M 19555U 20150U 20163M 20240  20356M 20398
             20454M 20464U 21026U 21039M 21131  21188M 21209  21325M 21365  21418M 21428U 22207U 22220M 22301  22342M
             22352U 22832U 22845M 22960  23011M 23019U 24184M 24405  24451M 24472  24519M 24540  24594M 24615  24667M
             24688  24734M 24755  24801M 24822  24871M 24892  24945M 24966  25019M 25040  25086M 25106  25183M 25203
             25279M 25501  25617M 25637  25683M 25703  25752M 25772  25819M 25839  25885M 25905  25952M 25972  26027M
             26047  26093M 26113  26160M 26180  26361M 26381  26496M 26515U 26630  26670M 26680U 26705  27003U 27021M
             27053  27079M 27089U 27114  27141  28335U 28348M 28376  28402M 28412U 28437  28787U 28800M 28862  28963M
             28973U 29495U 29513M 29582  29684M 29705  29807M 29868  30218M 30350  30386M 30396U 30828U 30846M 30879
             30905M 30915U 30986U 30999M 31024  31059U 31765U 31778M 31810  31845U 32286U 32299M 32330  32365U 33062U
             33075M 33104  33139U 33491U 33504M 33530  33565U 33810U 33823M 33847  33882U 33923U 33936M 33961  33996U
             34037U 34050M 34074  34109U 34287U 34300M 34531  34575M 34585U 34610  34688  35994U 36012M 36046  36072M
             36082U 36107  36518U 36531M 36722  36766M 36776U 36801  37354U 37372M 37437  37481M 37491U 37516  38382U
             38400M 38539  38584U 38609  38813U 38831M 38907  38952U 39842  39974U 39992M 40022  40057U 40357U 40370M
             40511  40751M 40813  40849M 40859U 40884  41211  41228U 41246M 41308  41344M 41354U 41379  41665  41682U
             41700M 41732  41780M 41840  42107  42136M 42196  42232M 42242U 42267  42871  42888U 42906M 42966  43002M
             43012U 43037  43307  43324U 43342M 43403  43597M 43628  43734M 43765  43870M 43943  44017M 44052  44147M
             44249  44351M
     7(7)      965U  2101M  2101   2102B  2108   2114B  7554   7560M  7572U  7836U  7844M  8229   8234M  8246U  8274U
              8282M  8302   8307M  8319U  8342U  8350M  8370   8375M  8387U  8415U  8423M  8443   8448M  8460U  8487U
              8495M  8515   8520M  8532U  8572U  8580M  8600   8605M  8617U  8657U  8665M  8685   8690M  8702U  8736U
              8744M  8764   8769M  8781U  8821U  8829M  8849   8854M  8866U  8906U  8914M  8934   8939M  8951U  8991U
              8999M  9019   9024M  9036U  9070U  9078M  9098   9103M  9115U  9139U  9147M  9167   9172M  9184U  9205U
              9213M  9233   9238M  9250U  9272U  9280M  9300   9305M  9317U  9339U  9347M  9367   9372M  9384U  9405U
              9413M  9433   9438M  9450U  9471U  9479M  9499   9504M  9516U  9538U  9546M  9566   9571M  9583U  9604U
              9612M  9632   9637M  9649U  9671U  9679M  9699   9704M  9716U  9758U  9766M  9800   9805M  9817U 11950U
             11958M 12139  12144M 12156U 12414U 12422M 12454  12459M 12471U 12507  12611  12698  12754  12794U 12802M
             12826  12831M 12843U 13714U 13722M 14278  14283M 14295U 14585U 14593M 14625  14630M 14642U 14952U 14960M
             15029  15034M 15046U 15077U 15085M 15235  15241M 15253U 17248U 17256M 17629  17634M 17646U 17735U 17743M
             17763  17768M 17780U 17869U 17877M 17897  17902M 17914U 18003U 18011M 18031  18036M 18048U 18064U 18072M
             18092  18097M 18109U 18125U 18133M 18153  18158M 18170U 18186U 18194M 18214  18219M 18231U 18407U 18415M
             18435  18440M 18452U 18541U 18549M 18569  18574M 18586U 18676U 18684M 18704  18709M 18721U 18810U 18818M
             18838  18843M 18855U 18944U 18952M 18972  18977M 18989U 19005U 19013M 19033  19038M 19050U 19066U 19074M
             19094  19099M 19111U 19259U 19267M 19287  19292M 19304U 19416U 19424M 19494  19499M 19511U 20155U 20163M
             20240  20245M 20257U 20348U 20356M 20398  20403M 20415U 21031U 21039M 21131  21136M 21148U 21180U 21188M
             21209  21214M 21226U 21317U 21325M 21365  21370M 21382U 22212U 22220M 22301  22306M 22318U 22837U 22845M
             22960  22965M 22977U 24176U 24184M 24405  24410M 24422U 24443U 24451M 24472  24477M 24489U 24511U 24519M
             24540  24545M 24557U 24586U 24594M 24615  24620M 24632U 24659U 24667M 24688  24693M 24705U 24726U 24734M
             24755  24760M 24772U 24793U 24801M 24822  24827M 24839U 24863U 24871M 24892  24897M 24909U 24937U 24945M
             24966  24971M 24983U 25011U 25019M 25040  25045M 25057U 25078U 25086M 25106  25111M 25123U 25175U 25183M
             25203  25208M 25220U 25271U 25279M 25501  25506M 25518U 25609U 25617M 25637  25642M 25654U 25675U 25683M
             25703  25708M 25720U 25744U 25752M 25772  25777M 25789U 25811U 25819M 25839  25844M 25856U 25877U 25885M
             25905  25910M 25922U 25944U 25952M 25972  25977M 25989U 26019U 26027M 26047  26052M 26064U 26085U 26093M
             26113  26118M 26130U 26152U 26160M 26180  26185M 26197U 26353U 26361M 26381  26386M 26398U 26488U 26496M
             26630  26636M 26648U 26705  27013U 27021M 27053  27058M 27070U 27114  27141  28340U 28348M 28376  28381M
             28393U 28437  28792U 28800M 28862  28868M 28880U 29505U 29513M 29582  29587M 29599U 29676U 29684M 29705
             29710M 29722U 29799U 29807M 29868  29874M 29886U 30210U 30218M 30350  30356M 30368U 30838U 30846M 30879
             30884M 30896U 30991U 30999M 31024  31029M 31041U 31770U 31778M 31810  31815M 31827U 32291U 32299M 32330
             32335M 32347U 33067U 33075M 33104  33109M 33121U 33496U 33504M 33530  33535M 33547U 33815U 33823M 33847
             33852M 33864U 33928U 33936M 33961  33966M 33978U 34042U 34050M 34074  34079M 34091U 34292U 34300M 34531
             34537M 34549U 34610  34688  36004U 36012M 36046  36051M 36063U 36107  36523U 36531M 36722  36728M 36740U
1         (SAM2193) (12:54) (15MAR04) General Purpose Register Cross Reference                                              Page  231
             36801  37364U 37372M 37437  37443M 37455U 37516  38392U 38400M 38539  38545M 38557U 38609  38823U 38831M
             38907  38913M 38925U 39842  39984U 39992M 40022  40027M 40039U 40362U 40370M 40511  40517M 40529U 40743U
             40751M 40813  40819M 40831U 40884  41211  41238U 41246M 41308  41314M 41326U 41379  41665  41692U 41700M
             41732  41737M 41749U 41772U 41780M 41840  41846M 41858U 42107  42128U 42136M 42196  42202M 42214U 42267
             42871  42898U 42906M 42966  42972M 42984U 43037  43307  43334U 43342M 43403  43409M 43421U 43589U 43597M
             43628  43633M 43645U 43726U 43734M 43765  43770M 43782U 43862U 43870M 43943  43948M 43960U 44009U 44017M
             44052  44057M 44069U 44139U 44147M 44249  44254M 44266U 44343U 44351M
     8(8)      961U  2108   7554   7556M  7586U  7831U  7840   7844M  8229   8230M  8278   8282M  8302   8303M  8346
              8350M  8370   8371M  8419   8423M  8443   8444M  8491   8495M  8515   8516M  8576   8580M  8600   8601M
              8661   8665M  8685   8686M  8740   8744M  8764   8765M  8825   8829M  8849   8850M  8910   8914M  8934
              8935M  8995   8999M  9019   9020M  9074   9078M  9098   9099M  9143   9147M  9167   9168M  9209   9213M
              9233   9234M  9276   9280M  9300   9301M  9343   9347M  9367   9368M  9409   9413M  9433   9434M  9475
              9479M  9499   9500M  9542   9546M  9566   9567M  9608   9612M  9632   9633M  9675   9679M  9699   9700M
              9762   9766M  9800   9801M 11954  11958M 12139  12140M 12418  12422M 12454  12455M 12507  12611  12698
             12754  12798  12802M 12826  12827M 13718  13722M 14278  14279M 14589  14593M 14625  14626M 14956  14960M
             15029  15030M 15081  15085M 15235  15237M 15267U 17243U 17252  17256M 17629  17630M 17739  17743M 17763
             17764M 17873  17877M 17897  17898M 18007  18011M 18031  18032M 18068  18072M 18092  18093M 18129  18133M
             18153  18154M 18190  18194M 18214  18215M 18411  18415M 18435  18436M 18545  18549M 18569  18570M 18680
             18684M 18704  18705M 18814  18818M 18838  18839M 18948  18952M 18972  18973M 19009  19013M 19033  19034M
             19070  19074M 19094  19095M 19263  19267M 19287  19288M 19420  19424M 19494  19495M 20159  20163M 20240
             20241M 20352  20356M 20398  20399M 21035  21039M 21131  21132M 21184  21188M 21209  21210M 21321  21325M
             21365  21366M 22216  22220M 22301  22302M 22841  22845M 22960  22961M 24180  24184M 24405  24406M 24447
             24451M 24472  24473M 24515  24519M 24540  24541M 24590  24594M 24615  24616M 24663  24667M 24688  24689M
             24730  24734M 24755  24756M 24797  24801M 24822  24823M 24867  24871M 24892  24893M 24941  24945M 24966
             24967M 25015  25019M 25040  25041M 25082  25086M 25106  25107M 25179  25183M 25203  25204M 25275  25279M
             25501  25502M 25613  25617M 25637  25638M 25679  25683M 25703  25704M 25748  25752M 25772  25773M 25815
             25819M 25839  25840M 25881  25885M 25905  25906M 25948  25952M 25972  25973M 26023  26027M 26047  26048M
             26089  26093M 26113  26114M 26156  26160M 26180  26181M 26357  26361M 26381  26382M 26492  26496M 26630
             26632M 26662U 26705  26992  27008U 27017  27021M 27053  27054M 27114  27141  28344  28348M 28376  28377M
             28437  28796  28800M 28862  28864M 28894U 29488  29500U 29509  29513M 29582  29583M 29680  29684M 29705
             29706M 29803  29807M 29868  29870M 29900U 30198  30205U 30214  30218M 30350  30352M 30382U 30833U 30842
             30846M 30879  30880M 30995  30999M 31024  31025M 31774  31778M 31810  31811M 32279  32295  32299M 32330
             32331M 33071  33075M 33104  33105M 33500  33504M 33530  33531M 33819  33823M 33847  33848M 33932  33936M
             33961  33962M 34046  34050M 34074  34075M 34296  34300M 34531  34533M 34563U 34610  34688  35999U 36008
             36012M 36046  36047M 36107  36511  36527  36531M 36722  36724M 36754U 36801  37317  37359U 37368  37372M
             37437  37439M 37469U 37516  38375  38387U 38396  38400M 38539  38541M 38571U 38609  38818U 38827  38831M
             38907  38909M 38939U 39842  39979U 39988  39992M 40022  40023M 40366  40370M 40511  40513M 40543U 40731
             40738U 40747  40751M 40813  40815M 40845U 40884  41211  41220  41233U 41242  41246M 41308  41310M 41340U
             41379  41665  41674  41687U 41696  41700M 41732  41733M 41776  41780M 41840  41842M 41872U 42107  42116
             42123U 42132  42136M 42196  42198M 42228U 42267  42871  42881  42893U 42902  42906M 42966  42968M 42998U
             43037  43307  43317  43329U 43338  43342M 43403  43405M 43435U 43577  43584U 43593  43597M 43628  43629M
             43730  43734M 43765  43766M 43866  43870M 43943  43944M 44013  44017M 44052  44053M 44143  44147M 44249
             44250M 44336  44347  44351M
     9(9)      957U  2108  12507  12611  12698  12754  26705  27114  27141  28437  34610  34688  36107  36801  37516
             38609  39842  40884  41211  41379  41665  42107  42267  42871  43037  43307
    10(A)      953U  2108  12507  12611  12698  12754  26705  27114  27141  28437  34610  34688  36107  36801  37516
             38609  39842  40884  41211  41379  41665  42107  42267  42871  43037  43307
    11(B)      949U  1172U  2108  12507  12611  12698  12754  26705  27114  27141  28437  34610  34688  36107  36801
             37516  38609  39842  40884  41211  41379  41665  42107  42267  42871  43037  43307
    12(C)      945U  1181U  2108  12507  12611  12698  12754  26705  27114  27141  28437  34610  34688  36107  36801
             37516  38609  39842  40884  41211  41379  41665  42107  42267  42871  43037  43307
    13(D)      941U  2108   7551   7554   7556   7557M  7557   7624   7625   7626   7628M  7628   7641M  7642   7643
              7644   7840M  7844   7846   8226   8229   8230   8231M  8231   8278M  8282   8284   8299   8302   8303
              8304M  8304   8346M  8350   8352   8367   8370   8371   8372M  8372   8419M  8423   8425   8440   8443
              8444   8445M  8445   8491M  8495   8497   8512   8515   8516   8517M  8517   8576M  8580   8582   8597
              8600   8601   8602M  8602   8661M  8665   8667   8682   8685   8686   8687M  8687   8740M  8744   8746
              8761   8764   8765   8766M  8766   8825M  8829   8831   8846   8849   8850   8851M  8851   8910M  8914
              8916   8931   8934   8935   8936M  8936   8995M  8999   9001   9016   9019   9020   9021M  9021   9074M
              9078   9080   9095   9098   9099   9100M  9100   9143M  9147   9149   9164   9167   9168   9169M  9169
1         (SAM2193) (12:54) (15MAR04) General Purpose Register Cross Reference                                              Page  232
              9209M  9213   9215   9230   9233   9234   9235M  9235   9276M  9280   9282   9297   9300   9301   9302M
              9302   9343M  9347   9349   9364   9367   9368   9369M  9369   9409M  9413   9415   9430   9433   9434
              9435M  9435   9475M  9479   9481   9496   9499   9500   9501M  9501   9542M  9546   9548   9563   9566
              9567   9568M  9568   9608M  9612   9614   9629   9632   9633   9634M  9634   9675M  9679   9681   9696
              9699   9700   9701M  9701   9762M  9766   9768   9797   9800   9801   9802M  9802   9836   9837   9838
              9840M  9840   9853M  9854   9855   9856  11954M 11958  11960  12136  12139  12140  12141M 12141  12418M
             12422  12424  12451  12454  12455  12456M 12456  12507  12611  12698  12754  12798M 12802  12804  12823
             12826  12827  12828M 12828  13038  13039M 13039  13424  13425M 13426M 13426  13427M 13468  13469M 13469
             13537M 13538  13695M 13718M 13722  13724  14275  14278  14279  14280M 14280  14467  14468M 14468  14487M
             14488  14589M 14593  14595  14622  14625  14626  14627M 14627  14956M 14960  14962  15026  15029  15030
             15031M 15031  15081M 15085  15087  15232  15235  15237  15238M 15238  15293  15295M 15295  15810  15811
             15812  15814M 15814  15827M 15828  15829  15830  15877  15878M 15878  15942M 16617  16618  16619  16621M
             16621  16634M 16635  16636  16637  16717  16718M 16718  16795M 17232M 17252M 17256  17258  17626  17629
             17630  17631M 17631  17739M 17743  17745  17760  17763  17764  17765M 17765  17873M 17877  17879  17894
             17897  17898  17899M 17899  18007M 18011  18013  18028  18031  18032  18033M 18033  18068M 18072  18074
             18089  18092  18093  18094M 18094  18129M 18133  18135  18150  18153  18154  18155M 18155  18190M 18194
             18196  18211  18214  18215  18216M 18216  18411M 18415  18417  18432  18435  18436  18437M 18437  18545M
             18549  18551  18566  18569  18570  18571M 18571  18680M 18684  18686  18701  18704  18705  18706M 18706
             18814M 18818  18820  18835  18838  18839  18840M 18840  18948M 18952  18954  18969  18972  18973  18974M
             18974  19009M 19013  19015  19030  19033  19034  19035M 19035  19070M 19074  19076  19091  19094  19095
             19096M 19096  19263M 19267  19269  19284  19287  19288  19289M 19289  19420M 19424  19426  19491  19494
             19495  19496M 19496  19580  19582M 19582  19617  19618  19619  19621M 19621  19634M 19635  19636  19637
             19648M 20018  20019  20020  20022M 20022  20035M 20036  20037  20038  20099  20100M 20100  20142M 20143
             20159M 20163  20165  20237  20240  20241  20242M 20242  20352M 20356  20358  20395  20398  20399  20400M
             20400  20426  20427M 20427  20487M 20488  20894  20895  20896  20898M 20898  20911M 20912  20913  20914
             20975  20976M 20976  21018M 21019  21035M 21039  21041  21128  21131  21132  21133M 21133  21184M 21188
             21190  21206  21209  21210  21211M 21211  21321M 21325  21327  21362  21365  21366  21367M 21367  21455
             21457M 21457  21492  21493  21494  21496M 21496  21509M 21510  21511  21512  21523M 21963  21964  21965
             21967M 21967  21980M 21981  21982  21983  22156  22157M 22157  22199M 22200  22216M 22220  22222  22298
             22301  22302  22303M 22303  22700  22701  22702  22704M 22704  22717M 22718  22719  22720  22781  22782M
             22782  22824M 22825  22841M 22845  22847  22957  22960  22961  22962M 22962  23042  23044M 23044  23079
             23080  23081  23083M 23083  23096M 23097  23098  23099  23110M 24083  24084  24085  24087M 24087  24100M
             24101  24102  24103  24180M 24184  24186  24402  24405  24406  24407M 24407  24447M 24451  24453  24469
             24472  24473  24474M 24474  24515M 24519  24521  24537  24540  24541  24542M 24542  24590M 24594  24596
             24612  24615  24616  24617M 24617  24663M 24667  24669  24685  24688  24689  24690M 24690  24730M 24734
             24736  24752  24755  24756  24757M 24757  24797M 24801  24803  24819  24822  24823  24824M 24824  24867M
             24871  24873  24889  24892  24893  24894M 24894  24941M 24945  24947  24963  24966  24967  24968M 24968
             25015M 25019  25021  25037  25040  25041  25042M 25042  25082M 25086  25088  25103  25106  25107  25108M
             25108  25179M 25183  25185  25200  25203  25204  25205M 25205  25275M 25279  25281  25498  25501  25502
             25503M 25503  25613M 25617  25619  25634  25637  25638  25639M 25639  25679M 25683  25685  25700  25703
             25704  25705M 25705  25748M 25752  25754  25769  25772  25773  25774M 25774  25815M 25819  25821  25836
             25839  25840  25841M 25841  25881M 25885  25887  25902  25905  25906  25907M 25907  25948M 25952  25954
             25969  25972  25973  25974M 25974  26023M 26027  26029  26044  26047  26048  26049M 26049  26089M 26093
             26095  26110  26113  26114  26115M 26115  26156M 26160  26162  26177  26180  26181  26182M 26182  26357M
             26361  26363  26378  26381  26382  26383M 26383  26492M 26496  26498  26627  26630  26632  26633M 26633
             26705  27017M 27021  27023  27050  27053  27054  27055M 27055  27114  27141  28344M 28348  28350  28373
             28376  28377  28378M 28378  28437  28796M 28800  28802  28859  28862  28864  28865M 28865  29403  29404
             29405  29407M 29407  29420M 29421  29422  29423  29509M 29513  29515  29579  29582  29583  29584M 29584
             29680M 29684  29686  29702  29705  29706  29707M 29707  29803M 29807  29809  29865  29868  29870  29871M
             29871  30103  30104M 30104  30111M 30112  30214M 30218  30220  30347  30350  30352  30353M 30353  30842M
             30846  30848  30876  30879  30880  30881M 30881  30995M 30999  31001  31021  31024  31025  31026M 31026
             31668  31669M 31669  31707M 31708  31774M 31778  31780  31807  31810  31811  31812M 31812  32008  32009M
             32009  32029M 32030  32295M 32299  32301  32327  32330  32331  32332M 32332  32406  32407M 32407  32433M
             32434  33071M 33075  33077  33101  33104  33105  33106M 33106  33336  33337M 33337  33357M 33358  33500M
             33504  33506  33527  33530  33531  33532M 33532  33819M 33823  33825  33844  33847  33848  33849M 33849
             33932M 33936  33938  33958  33961  33962  33963M 33963  34046M 34050  34052  34071  34074  34075  34076M
             34076  34296M 34300  34302  34528  34531  34533  34534M 34534  34610  34688  36008M 36012  36014  36043
             36046  36047  36048M 36048  36107  36527M 36531  36533  36719  36722  36724  36725M 36725  36801  37368M
             37372  37374  37434  37437  37439  37440M 37440  37516  38062  38063M 38063  38173M 38174  38396M 38400
1         (SAM2193) (12:54) (15MAR04) General Purpose Register Cross Reference                                              Page  233
             38402  38536  38539  38541  38542M 38542  38609  38827M 38831  38833  38904  38907  38909  38910M 38910
             39842  39988M 39992  39994  40019  40022  40023  40024M 40024  40366M 40370  40372  40508  40511  40513
             40514M 40514  40747M 40751  40753  40810  40813  40815  40816M 40816  40884  41211  41242M 41246  41248
             41305  41308  41310  41311M 41311  41379  41665  41696M 41700  41702  41729  41732  41733  41734M 41734
             41776M 41780  41782  41837  41840  41842  41843M 41843  42107  42132M 42136  42138  42193  42196  42198
             42199M 42199  42267  42871  42902M 42906  42908  42963  42966  42968  42969M 42969  43037  43307  43338M
             43342  43344  43400  43403  43405  43406M 43406  43593M 43597  43599  43625  43628  43629  43630M 43630
             43730M 43734  43736  43762  43765  43766  43767M 43767  43866M 43870  43872  43940  43943  43944  43945M
             43945  44013M 44017  44019  44049  44052  44053  44054M 44054  44143M 44147  44149  44246  44249  44250
             44251M 44251  44347M 44351  44353
    14(E)      937U  2108   2109M  2123   2124M  2125B  2127M  2128B  2148M  2149B  2153M  2154B  2156M  2157B  2159M
              2160B  2162M  2163B  2165M  2166M  2166B  2172   7551   7623M  7624   7625   7626   7631M  7632   7635M
              7636M  7636B  7639M  7642   7643   7644   7649M  7650M  7650B  7672M  7673M  7673B  7817M  7818M  7818B
              7846M  7849B  8226   8284M  8287B  8299   8334M  8335M  8335B  8352M  8355B  8367   8425M  8428B  8440
              8497M  8500B  8512   8582M  8585B  8597   8667M  8670B  8682   8746M  8749B  8761   8831M  8834B  8846
              8916M  8919B  8931   9001M  9004B  9016   9080M  9083B  9095   9149M  9152B  9164   9215M  9218B  9230
              9282M  9285B  9297   9349M  9352B  9364   9415M  9418B  9430   9481M  9484B  9496   9548M  9551B  9563
              9614M  9617B  9629   9681M  9684B  9696   9745M  9746M  9746B  9768M  9771B  9797   9835M  9836   9837
              9838   9843M  9844   9847M  9848M  9848B  9851M  9854   9855   9856   9861M  9862M  9862B  9897M  9898M
              9898B  9915M  9916M  9916B  9933M  9934M  9934B  9958M  9959M  9959B  9981M  9982M  9982B 10000M 10001M
             10001B 10043M 10044M 10044B 10090M 10091M 10091B 10109M 10110M 10110B 10152M 10153M 10153B 10199M 10200M
             10200B 10218M 10219M 10219B 10261M 10262M 10262B 10308M 10309M 10309B 10327M 10328M 10328B 10370M 10371M
             10371B 10417M 10418M 10418B 10436M 10437M 10437B 10479M 10480M 10480B 10526M 10527M 10527B 10551M 10552M
             10552B 10570M 10571M 10571B 10613M 10614M 10614B 10660M 10661M 10661B 10679M 10680M 10680B 10700M 10701M
             10701B 10719M 10720M 10720B 10740M 10741M 10741B 10759M 10760M 10760B 10781M 10782M 10782B 10817M 10818M
             10818B 10850M 10851M 10851B 10871M 10872M 10872B 10911M 10912M 10912B 10944M 10945M 10945B 10972M 10973M
             10973B 11095M 11096M 11096B 11181M 11182M 11182B 11206M 11207M 11207B 11263M 11264M 11264B 11281M 11282M
             11282B 11302M 11303M 11303B 11363M 11364M 11364B 11381M 11382M 11382B 11402M 11403M 11403B 11463M 11464M
             11464B 11481M 11482M 11482B 11502M 11503M 11503B 11563M 11564M 11564B 11581M 11582M 11582B 11602M 11603M
             11603B 11680M 11681M 11681B 11715M 11716M 11716B 11749M 11750M 11750B 11783M 11784M 11784B 11822M 11823M
             11823B 11861M 11862M 11862B 11883M 11884M 11884B 11918M 11919M 11919B 11940M 11941M 11941B 11960M 11963B
             12136  12217M 12218M 12218B 12341M 12353M 12393M 12424M 12427B 12451  12507  12508M 12611  12612M 12698
             12699M 12754  12755M 12804M 12807B 12823  12870M 12871M 12871B 12921M 12922M 12922B 12979M 12980M 12980B
             13004M 13005M 13005B 13042M 13043M 13043B 13066M 13067M 13067B 13084M 13085M 13085B 13108M 13109M 13109B
             13138M 13139M 13139B 13168M 13169M 13169B 13186M 13187M 13187B 13216M 13217M 13217B 13317M 13318M 13318B
             13336M 13337M 13337B 13357M 13358M 13358B 13375M 13376M 13376B 13400M 13401M 13401B 13433M 13447M 13596M
             13597M 13597B 13654M 13655M 13655B 13691M 13692M 13692B 13724M 13727B 14275  14335M 14336M 14336B 14353M
             14354M 14354B 14371M 14372M 14372B 14378M 14379M 14379B 14427M 14428M 14428B 14432M 14433N 14434N 14438M
             14438  14441M 14442M 14442B 14484M 14485M 14485B 14511M 14512M 14512B 14516M 14517M 14517B 14540M 14541M
             14541B 14546M 14547M 14547B 14550M 14551M 14551B 14574M 14575M 14575B 14595M 14598B 14622  14682M 14683M
             14683B 14700M 14701M 14701B 14719M 14720N 14721N 14725M 14725  14728M 14729M 14729B 14760M 14761M 14761B
             14779M 14780M 14780B 14786M 14787M 14787B 14835M 14836M 14836B 14852M 14853M 14853B 14878M 14879M 14879B
             14883M 14884M 14884B 14907M 14908M 14908B 14913M 14914M 14914B 14917M 14918M 14918B 14941M 14942M 14942B
             14962M 14965B 15026  15087M 15090B 15232  15292M 15293  15396M 15397M 15397B 15403M 15404M 15404B 15433M
             15434M 15434B 15462M 15463M 15463B 15477M 15478M 15478B 15504M 15505M 15505B 15514M 15515M 15515B 15518M
             15519M 15519B 15570M 15571M 15571B 15594M 15595M 15595B 15600M 15601M 15601B 15604M 15605M 15605B 15628M
             15629M 15629B 15682M 15683M 15683B 15686M 15687M 15687B 15733M 15734M 15734B 15763M 15764M 15764B 15793M
             15794N 15795N 15799M 15799  15809M 15810  15811  15812  15817M 15818  15821M 15822M 15822B 15825M 15828
             15829  15830  15900M 15901M 15901B 16100M 16101M 16101B 16120M 16121M 16121B 16141M 16142M 16142B 16145M
             16146M 16146B 16166M 16167M 16167B 16171M 16172M 16172B 16189M 16190M 16190B 16218M 16219M 16219B 16235M
             16236M 16236B 16264M 16265M 16265B 16281M 16282M 16282B 16310M 16311M 16311B 16327M 16328M 16328B 16356M
             16357M 16357B 16373M 16374M 16374B 16402M 16403M 16403B 16419M 16420M 16420B 16448M 16449M 16449B 16466M
             16467M 16467B 16470M 16471M 16471B 16475M 16476M 16476B 16504M 16505M 16505B 16508M 16509M 16509B 16517M
             16518M 16518B 16541M 16542M 16542B 16570M 16571M 16571B 16600M 16601N 16602N 16606M 16606  16616M 16617
             16618  16619  16624M 16625  16628M 16629M 16629B 16632M 16635  16636  16637  16662M 16663M 16663B 16666M
             16667M 16667B 16693M 16694M 16694B 16723M 16724M 16724B 16765M 16766M 16766B 16787M 16788M 16788B 17140M
             17141M 17141B 17185M 17186M 17186B 17207M 17208M 17208B 17230M 17233  17258M 17261B 17626  17657M 17658N
             17659N 17663M 17663  17667M 17668M 17668B 17745M 17748B 17760  17791M 17792N 17793N 17797M 17797  17801M
             17802M 17802B 17879M 17882B 17894  17925M 17926N 17927N 17931M 17931  17935M 17936M 17936B 18013M 18016B
1         (SAM2193) (12:54) (15MAR04) General Purpose Register Cross Reference                                              Page  234
             18028  18074M 18077B 18089  18135M 18138B 18150  18196M 18199B 18211  18417M 18420B 18432  18463M 18464N
             18465N 18469M 18469  18473M 18474M 18474B 18551M 18554B 18566  18597M 18598N 18599N 18603M 18603  18607M
             18608M 18608B 18686M 18689B 18701  18732M 18733N 18734N 18738M 18738  18742M 18743M 18743B 18820M 18823B
             18835  18866M 18867N 18868N 18872M 18872  18876M 18877M 18877B 18954M 18957B 18969  19015M 19018B 19030
             19076M 19079B 19091  19269M 19272B 19284  19426M 19429B 19491  19535M 19536M 19536B 19542M 19543M 19543B
             19572M 19573M 19573B 19579M 19580  19600M 19601N 19602N 19606M 19606  19616M 19617  19618  19619  19624M
             19625  19628M 19629M 19629B 19632M 19635  19636  19637  19642M 19643M 19643B 19646M 19649  19654M 19655M
             19655B 19660M 19661M 19661B 19688M 19689M 19689B 19703M 19704M 19704B 19730M 19731M 19731B 19779M 19780M
             19780B 19783M 19784M 19784B 19807M 19808M 19808B 19822M 19823M 19823B 19841M 19842M 19842B 19868M 19869M
             19869B 19873M 19874M 19874B 19878M 19879M 19879B 19908M 19909M 19909B 19971M 19972M 19972B 20001M 20002N
             20003N 20007M 20007  20017M 20018  20019  20020  20025M 20026  20029M 20030M 20030B 20033M 20036  20037
             20038  20059M 20060M 20060B 20063M 20064M 20064B 20087M 20088M 20088B 20112M 20113M 20113B 20134M 20135M
             20135B 20165M 20168B 20237  20268M 20269N 20270N 20274M 20274  20277M 20278M 20278B 20358M 20361B 20395
             20444M 20445M 20445B 20451M 20452M 20452B 20481M 20482M 20482B 20519M 20520M 20520B 20534M 20535M 20535B
             20561M 20562M 20562B 20610M 20611M 20611B 20614M 20615M 20615B 20638M 20639M 20639B 20653M 20654M 20654B
             20672M 20673M 20673B 20697M 20698M 20698B 20701M 20702M 20702B 20719M 20720M 20720B 20744M 20745M 20745B
             20749M 20750M 20750B 20754M 20755M 20755B 20784M 20785M 20785B 20847M 20848M 20848B 20877M 20878N 20879N
             20883M 20883  20893M 20894  20895  20896  20901M 20902  20905M 20906M 20906B 20909M 20912  20913  20914
             20935M 20936M 20936B 20939M 20940M 20940B 20963M 20964M 20964B 20988M 20989M 20989B 21010M 21011M 21011B
             21041M 21044B 21128  21159M 21160N 21161N 21165M 21165  21168M 21169M 21169B 21190M 21193B 21206  21237M
             21238N 21239N 21243M 21243  21246M 21247M 21247B 21327M 21330B 21362  21408M 21409M 21409B 21415M 21416M
             21416B 21445M 21446M 21446B 21454M 21455  21475M 21476N 21477N 21481M 21481  21491M 21492  21493  21494
             21499M 21500  21503M 21504M 21504B 21507M 21510  21511  21512  21517M 21518M 21518B 21521M 21524  21532M
             21533M 21533B 21537M 21538M 21538B 21566M 21567M 21567B 21581M 21582M 21582B 21608M 21609M 21609B 21657M
             21658M 21658B 21661M 21662M 21662B 21685M 21686M 21686B 21700M 21701M 21701B 21719M 21720M 21720B 21746M
             21747M 21747B 21767M 21768M 21768B 21784M 21785M 21785B 21809M 21810M 21810B 21818M 21819M 21819B 21823M
             21824M 21824B 21853M 21854M 21854B 21916M 21917M 21917B 21946M 21947N 21948N 21952M 21952  21962M 21963
             21964  21965  21970M 21971  21974M 21975M 21975B 21978M 21981  21982  21983  22011M 22012M 22012B 22060M
             22061M 22061B 22099M 22100M 22100B 22116M 22117M 22117B 22120M 22121M 22121B 22144M 22145M 22145B 22169M
             22170M 22170B 22191M 22192M 22192B 22222M 22225B 22298  22332M 22333M 22333B 22339M 22340M 22340B 22369M
             22370M 22370B 22398M 22399M 22399B 22413M 22414M 22414B 22440M 22441M 22441B 22489M 22490M 22490B 22493M
             22494M 22494B 22517M 22518M 22518B 22532M 22533M 22533B 22551M 22552M 22552B 22556M 22557M 22557B 22561M
             22562M 22562B 22591M 22592M 22592B 22653M 22654M 22654B 22683M 22684N 22685N 22689M 22689  22699M 22700
             22701  22702  22707M 22708  22711M 22712M 22712B 22715M 22718  22719  22720  22741M 22742M 22742B 22745M
             22746M 22746B 22769M 22770M 22770B 22794M 22795M 22795B 22816M 22817M 22817B 22847M 22850B 22957  23001M
             23002M 23002B 23008M 23009M 23009B 23034M 23035M 23035B 23041M 23042  23062M 23063N 23064N 23068M 23068
             23078M 23079  23080  23081  23086M 23087  23090M 23091M 23091B 23094M 23097  23098  23099  23104M 23105M
             23105B 23108M 23111  23173M 23174M 23174B 23304M 23305M 23305B 23309M 23310M 23310B 23341M 23342M 23342B
             23356M 23357M 23357B 23383M 23384M 23384B 23457M 23458M 23458B 23461M 23462M 23462B 23485M 23486M 23486B
             23618M 23619M 23619B 23637M 23638M 23638B 23664M 23665M 23665B 23690M 23691M 23691B 23741M 23742M 23742B
             23761M 23762M 23762B 23786M 23787M 23787B 23803M 23804M 23804B 23827M 23828M 23828B 23844M 23845M 23845B
             23870M 23871M 23871B 23887M 23888M 23888B 23912M 23913M 23913B 23929M 23930M 23930B 23938M 23939M 23939B
             23943M 23944M 23944B 23973M 23974M 23974B 24036M 24037M 24037B 24066M 24067N 24068N 24072M 24072  24082M
             24083  24084  24085  24090M 24091  24094M 24095M 24095B 24098M 24101  24102  24103  24147M 24148M 24148B
             24186M 24189B 24402  24453M 24456B 24469  24521M 24524B 24537  24596M 24599B 24612  24669M 24672B 24685
             24736M 24739B 24752  24803M 24806B 24819  24873M 24876B 24889  24947M 24950B 24963  25021M 25024B 25037
             25088M 25091B 25103  25151M 25152M 25152B 25185M 25188B 25200  25248M 25249M 25249B 25281M 25284B 25498
             25529M 25530N 25531N 25535M 25535  25538M 25539M 25539B 25619M 25622B 25634  25685M 25688B 25700  25754M
             25757B 25769  25821M 25824B 25836  25887M 25890B 25902  25954M 25957B 25969  26029M 26032B 26044  26095M
             26098B 26110  26162M 26165B 26177  26270M 26271N 26272N 26276M 26276  26279M 26280M 26280B 26363M 26366B
             26378  26409M 26410N 26411N 26415M 26415  26418M 26419M 26419B 26498M 26501B 26627  26705  26706M 26732M
             26783M 26784M 26784B 26824M 26825M 26825B 26868M 26869M 26869B 27023M 27026B 27050  27114  27115M 27141
             27142M 27260M 27261M 27261B 27288M 27354M 27355M 27355B 27388M 27389M 27389B 27410M 27411M 27411B 27432M
             27433M 27433B 27462M 27463M 27463B 27471M 27472M 27472B 27504M 27505M 27505B 27539M 27540M 27540B 27666M
             27667M 27667B 27671M 27672M 27672B 27695M 27696M 27696B 27713M 27714M 27714B 27776M 27777M 27777B 27829M
             27830M 27830B 27852M 27853M 27853B 27902M 27903M 27903B 27931M 27932M 27932B 27955M 27956M 27956B 27959M
             27960M 27960B 28122M 28123M 28123B 28182M 28183M 28183B 28225M 28226M 28226B 28249M 28250M 28250B 28253M
             28254M 28254B 28289M 28290M 28290B 28350M 28353B 28373  28437  28438M 28464M 28553M 28554M 28554B 28593M
             28594M 28594B 28617M 28618M 28618B 28647M 28648M 28648B 28656M 28657M 28657B 28661M 28662M 28662B 28685M
1         (SAM2193) (12:54) (15MAR04) General Purpose Register Cross Reference                                              Page  235
             28686M 28686B 28709M 28710M 28710B 28713M 28714M 28714B 28737M 28738M 28738B 28752M 28753M 28753B 28774M
             28775M 28775B 28802M 28805B 28859  28953M 28954M 28954B 28960M 28961M 28961B 28990M 28991M 28991B 29019M
             29020M 29020B 29034M 29035M 29035B 29061M 29062M 29062B 29110M 29111M 29111B 29128M 29129M 29129B 29152M
             29153M 29153B 29156M 29157M 29157B 29174M 29175M 29175B 29198M 29199M 29199B 29202M 29203M 29203B 29220M
             29221M 29221B 29244M 29245M 29245B 29248M 29249M 29249B 29266M 29267M 29267B 29290M 29291M 29291B 29294M
             29295M 29295B 29299M 29300M 29300B 29303M 29304M 29304B 29327M 29328M 29328B 29356M 29357M 29357B 29386M
             29387N 29388N 29392M 29392  29402M 29403  29404  29405  29410M 29411  29414M 29415M 29415B 29418M 29421
             29422  29423  29515M 29518B 29579  29610M 29611N 29612N 29616M 29616  29619M 29620M 29620B 29686M 29689B
             29702  29733M 29734N 29735N 29739M 29739  29742M 29743M 29743B 29809M 29812B 29865  29919M 29920M 29920B
             29998M 29999M 29999B 30025M 30026M 30026B 30043M 30044M 30044B 30057M 30058M 30058B 30078M 30079M 30079B
             30098M 30099M 30099B 30108M 30109M 30109B 30220M 30223B 30347  30848M 30851B 30876  31001M 31004B 31021
             31071M 31072M 31072B 31080M 31081M 31081B 31103M 31104M 31104B 31148M 31149M 31149B 31155M 31156M 31156B
             31310M 31311M 31311B 31327M 31328M 31328B 31353M 31354M 31354B 31370M 31371M 31371B 31396M 31397M 31397B
             31413M 31414M 31414B 31439M 31440M 31440B 31456M 31457M 31457B 31482M 31483M 31483B 31499M 31500M 31500B
             31520M 31521M 31521B 31541M 31542M 31542B 31558M 31559M 31559B 31567M 31568M 31568B 31572M 31573M 31573B
             31602M 31603M 31603B 31646M 31647M 31647B 31686M 31687M 31687B 31704M 31705M 31705B 31731M 31732M 31732B
             31749M 31750M 31750B 31780M 31783B 31807  31889M 31890M 31890B 31939M 31956M 31961M 31961B 32026M 32027M
             32027B 32053M 32054M 32054B 32130M 32131M 32131B 32148M 32149M 32149B 32259M 32260M 32260B 32301M 32304B
             32327  32423M 32424M 32424B 32480M 32481M 32481B 32497M 32498M 32498B 32594M 32595M 32595B 32599M 32600M
             32600B 32623M 32624M 32624B 32676M 32677M 32677B 32708M 32709M 32709B 32743M 32744M 32744B 32781M 32782M
             32782B 32872M 32873M 32873B 32906M 32907M 32907B 32928M 32929M 32929B 32950M 32951M 32951B 32980M 32981M
             32981B 32989M 32990M 32990B 33022M 33023M 33023B 33077M 33080B 33101  33183M 33184M 33184B 33262M 33263M
             33263B 33283M 33284M 33284B 33290M 33291M 33291B 33322M 33323M 33323B 33354M 33355M 33355B 33381M 33382M
             33382B 33397M 33398M 33398B 33437M 33438M 33438B 33441M 33442M 33442B 33445M 33446M 33446B 33469M 33470M
             33470B 33506M 33509B 33527  33582M 33583M 33583B 33600M 33601M 33601B 33617M 33618M 33618B 33641M 33642M
             33642B 33670M 33671M 33671B 33697M 33698M 33698B 33721M 33722M 33722B 33750M 33751M 33751B 33777M 33778M
             33778B 33795M 33796M 33796B 33825M 33828B 33844  33908M 33909M 33909B 33938M 33941B 33958  34022M 34023M
             34023B 34052M 34055B 34071  34137M 34138M 34138B 34162M 34163M 34163B 34204M 34205M 34205B 34257M 34258M
             34258B 34279M 34280M 34280B 34302M 34305B 34528  34610  34611M 34688  34689M 34705M 34719M 34739M 34740M
             34740B 34796M 34797M 34797B 34829M 34830M 34830B 34862M 34863M 34863B 34882M 34883M 34883B 34918M 34919M
             34919B 34951M 34952M 34952B 35019M 35020M 35020B 35043M 35044M 35044B 35075M 35076M 35076B 35237M 35238M
             35238B 35299M 35300M 35300B 35313M 35314M 35314B 35332M 35333M 35333B 35422M 35423M 35423B 35451M 35452M
             35452B 35523M 35524M 35524B 35723M 35724M 35724B 35735M 35736M 35736B 35797M 35798M 35798B 35815M 35816M
             35816B 35917M 35918M 35918B 36014M 36017B 36043  36107  36108M 36138M 36139M 36139B 36165M 36166M 36166B
             36209M 36210M 36210B 36233M 36234M 36234B 36396M 36410M 36533M 36536B 36719  36801  36802M 36835M 36836M
             36836B 36894M 36895M 36895B 36957M 36958M 36958B 36961M 36962M 36962B 36985M 36986M 36986B 37020M 37021M
             37021B 37107M 37121M 37161M 37162M 37162B 37194M 37195M 37195B 37227M 37228M 37228B 37247M 37248M 37248B
             37309M 37310M 37310B 37374M 37377B 37434  37516  37517M 37545M 37546M 37546B 37549M 37550M 37550B 37573M
             37574M 37574B 37607M 37608M 37608B 37666M 37803M 37817M 37908M 37922M 37966M 37967M 37967B 37999M 38000M
             38000B 38032M 38033M 38033B 38052M 38053M 38053B 38245M 38246M 38246B 38340M 38341M 38341B 38402M 38405B
             38536  38609  38610M 38645M 38646M 38646B 38725M 38726M 38726B 38788M 38789M 38789B 38833M 38836B 38904
             38980M 38981M 38981B 39058M 39174M 39202M 39234M 39261M 39262M 39262B 39278M 39306M 39307M 39307B 39323M
             39369M 39379M 39408M 39447M 39509M 39510M 39510B 39526M 39554M 39608M 39609M 39609B 39651M 39652M 39652B
             39673M 39674M 39674B 39694M 39732M 39733M 39733B 39754M 39755M 39755B 39775M 39808M 39809M 39809B 39842
             39843M 39859M 39873M 39994M 39997B 40019  40092M 40093M 40093B 40110M 40111M 40111B 40155M 40156M 40156B
             40185M 40186M 40186B 40204M 40204  40205M 40214M 40214  40276M 40277M 40277B 40298M 40299M 40299B 40319M
             40320M 40320B 40337M 40338M 40338B 40372M 40375B 40508  40658M 40659M 40659B 40699M 40713M 40753M 40756B
             40810  40884  40885M 40914M 40928M 41089M 41090M 41090B 41211  41212M 41248M 41251B 41305  41379  41380M
             41412M 41426M 41568M 41569M 41569B 41665  41666M 41702M 41705B 41729  41760M 41761M 41761B 41764M 41765M
             41765B 41782M 41785B 41837  41988M 42002M 42026M 42027M 42027B 42046M 42047M 42047B 42056M 42070M 42107
             42108M 42138M 42141B 42193  42267  42268M 42297M 42311M 42364D 42366M 42366  42367M 42368U 42377M 42377
             42404M 42405M 42405B 42406M 42611M 42612M 42612B 42613M 42669D 42671M 42671  42672M 42673U 42682M 42682
             42709M 42710M 42710B 42711M 42871  42872M 42908M 42911B 42963  43037  43038M 43067M 43081M 43115D 43117M
             43117  43118M 43119U 43128M 43128  43156M 43157M 43157B 43158M 43307  43308M 43344M 43347B 43400  43460M
             43474M 43514M 43515M 43515B 43574M 43575M 43575B 43599M 43602B 43625  43736M 43739B 43762  43872M 43875B
             43940  44019M 44022B 44049  44149M 44152B 44246  44333M 44334M 44334B 44353M 44356B
    15(F)      933U  2108   7645M  7645   7848M  7848   8286M  8286   8354M  8354   8427M  8427   8499M  8499   8584M
              8584   8669M  8669   8748M  8748   8833M  8833   8918M  8918   9003M  9003   9082M  9082   9151M  9151
              9217M  9217   9284M  9284   9351M  9351   9417M  9417   9483M  9483   9550M  9550   9616M  9616   9683M
1         (SAM2193) (12:54) (15MAR04) General Purpose Register Cross Reference                                              Page  236
              9683   9770M  9770   9857M  9857   9894M  9912M  9930M  9955M  9978M  9997M 10087M 10106M 10196M 10215M
             10305M 10324M 10414M 10433M 10523M 10548M 10567M 10657M 10676M 10697M 10716M 10737M 10756M 10778M 10814M
             10847M 10868M 10908M 10941M 10969M 11092M 11178M 11203M 11260M 11278M 11299M 11360M 11378M 11399M 11460M
             11478M 11499M 11560M 11578M 11599M 11677M 11712M 11746M 11780M 11819M 11858M 11880M 11915M 11937M 11962M
             11962  12183  12306M 12316U 12329U 12346M 12352  12353M 12362M 12363M 12364  12426M 12426  12490M 12491M
             12491  12507  12531U 12565  12581  12591  12594M 12595M 12595  12611  12624U 12698  12754  12775M 12776M
             12777  12787M 12806M 12806  12918M 12976M 13001M 13038M 13063M 13081M 13105M 13135M 13165M 13183M 13213M
             13314M 13333M 13354M 13372M 13397M 13438M 13446  13447M 13488M 13491  13503M 13510M 13512  13651M 13688M
             13726M 13726  14332M 14350M 14393M 14403U 14421U 14481M 14508M 14537M 14571M 14597M 14597  14679M 14697M
             14757M 14801M 14811U 14829U 14849M 14875M 14904M 14938M 14964M 14964  15089M 15089  15325M 15334M 15334
             15341M 15357  15364M 15380  15387M 15392  15398  15435  15459M 15474M 15501M 15567M 15591M 15625M 15648M
             15648  15661M 15730M 15831M 15831  15835M 15835  15880M 16117M 16138M 16168M 16186M 16215M 16232M 16261M
             16278M 16307M 16324M 16353M 16370M 16399M 16416M 16445M 16463M 16472M 16501M 16538M 16638M 16638  16642M
             16642  16690M 17168M 17168  17173  17198  17204M 17234M 17260M 17260  17669M 17672  17684M 17692M 17701M
             17701  17708  17728M 17747M 17747  17803M 17806  17818M 17826M 17835M 17835  17842  17862M 17881M 17881
             17937M 17940  17952M 17960M 17969M 17969  17976  17996M 18015M 18015  18076M 18076  18137M 18137  18198M
             18198  18400M 18400  18419M 18419  18475M 18478  18490M 18498M 18507M 18507  18514  18534M 18553M 18553
             18609M 18613  18625M 18633M 18642M 18642  18649  18669M 18688M 18688  18744M 18747  18759M 18767M 18776M
             18776  18783  18803M 18822M 18822  18878M 18881  18893M 18901M 18910M 18910  18917  18937M 18956M 18956
             19017M 19017  19078M 19078  19122M 19123M 19123N 19252M 19252  19271M 19271  19315M 19316M 19316N 19409M
             19409  19428M 19428  19537  19574  19638M 19638  19685M 19700M 19727M 19804M 19838M 19865M 19905M 19938M
             20039M 20039  20043M 20043  20084M 20093M 20093  20099  20125  20131M 20143M 20167M 20167  20341M 20360M
             20360  20446  20483  20516M 20531M 20558M 20635M 20669M 20694M 20716M 20741M 20781M 20814M 20915M 20915
             20919M 20919  20960M 20969M 20969  20975  21001  21007M 21019M 21043M 21043  21173M 21192M 21192  21310M
             21329M 21329  21410  21447  21513M 21513  21563M 21578M 21605M 21682M 21716M 21743M 21781M 21806M 21850M
             21883M 21984M 21984  21988M 21988  22057M 22096M 22141M 22150M 22150  22156  22182  22188M 22200M 22224M
             22224  22334  22371  22395M 22410M 22437M 22514M 22548M 22588M 22620M 22721M 22721  22725M 22725  22766M
             22775M 22775  22781  22807  22813M 22825M 22849M 22849  23003  23036  23100M 23100  23170M 23338M 23353M
             23380M 23482M 23634M 23661M 23738M 23758M 23800M 23841M 23884M 23926M 23970M 24003M 24104M 24104  24108M
             24108  24166M 24166  24188M 24188  24455M 24455  24523M 24523  24598M 24598  24671M 24671  24738M 24738
             24805M 24805  24875M 24875  24949M 24949  25023M 25023  25090M 25090  25168M 25168  25187M 25187  25264M
             25264  25283M 25283  25602M 25621M 25621  25687M 25687  25756M 25756  25823M 25823  25889M 25889  25956M
             25956  26031M 26031  26097M 26097  26164M 26164  26288M 26291  26303M 26311M 26320M 26320  26327  26346M
             26365M 26365  26421M 26424  26436M 26444M 26453M 26453  26460  26479M 26481M 26500M 26500  26705  26800M
             26800  26838M 26882M 26957M 26957  27025M 27025  27114  27141  27156M 27160M 27169M 27169  27176  27256M
             27351M 27385M 27407M 27429M 27459M 27501M 27563M 27564M 27566M 27663M 27692M 27710M 27826M 27849M 27899M
             27952M 28119M 28179M 28246M 28286M 28352M 28352  28437  28550M 28614M 28682M 28734M 28765  28771M 28804M
             28804  28942M 28955  28992  29016M 29031M 29058M 29125M 29149M 29171M 29195M 29217M 29241M 29263M 29287M
             29324M 29424M 29424  29428M 29428  29439M 29477M 29477  29517M 29517  29622M 29626  29628M 29632M 29641M
             29641  29648  29669M 29688M 29688  29745M 29749  29751M 29755M 29764M 29764  29771  29792M 29811M 29811
             29916M 29995M 30022M 30040M 30054M 30063M 30063  30095M 30103  30105M 30112M 30170M 30222M 30222  30850M
             30850  31003M 31003  31064M 31100M 31324M 31350M 31367M 31393M 31410M 31436M 31453M 31479M 31496M 31517M
             31555M 31599M 31633M 31643M 31654M 31654  31683M 31701M 31728M 31746M 31782M 31782  31886M 31938M 31970M
             31970  31998M 32023M 32050M 32055M 32127M 32145M 32150M 32256M 32274M 32274  32303M 32303  32420M 32477M
             32494M 32517M 32518M 32520M 32591M 32620M 32673M 32705M 32778M 32869M 32903M 32925M 32947M 32977M 33019M
             33079M 33079  33176M 33259M 33280M 33287M 33319M 33351M 33378M 33394M 33434M 33466M 33484M 33484  33508M
             33508  33579M 33597M 33614M 33638M 33667M 33694M 33718M 33747M 33774M 33792M 33827M 33827  33905M 33940M
             33940  34019M 34054M 34054  34134M 34159M 34165M 34186  34201M 34239  34254M 34276M 34304M 34304  34610
             34620  34688  34710M 34718  34719M 34895M 34896M 34897  34899M 34957  34986M 34987M 34988  35010M 35028M
             35028  35072M 35234M 35296M 35310M 35329M 35364  35385M 35385  35408  35478  35520M 35604M 35605M 35606M
             35607  35720M 35732M 35732  35794M 35812M 35914M 35976M 35976  36016M 36016  36107  36142  36162M 36211
             36230M 36401M 36409  36410M 36507M 36507  36535M 36535  36801  36832M 36863M 36864M 36868  36870  36891M
             36899M 36900M 36901  36914M 36914  36982M 37017M 37112M 37120  37121M 37125M 37126M 37127  37321M 37321
             37326M 37376M 37376  37516  37570M 37604M 37645M 37648  37660M 37665N 37669M 37671  37706M 37734M 37734
             37769M 37782M 37782  37808M 37816  37817M 37859M 37913M 37921  37922M 38124M 38127  38139M 38146M 38148
             38242M 38337M 38351M 38351  38368M 38404M 38404  38609  38642M 38722M 38735M 38735  38758  38778M 38778
             38785M 38799M 38804M 38804  38835M 38835  38967M 39005M 39059M 39085M 39111M 39144M 39175M 39203M 39235M
             39279M 39285  39324M 39342  39359  39370M 39380M 39409M 39448M 39457M 39527M 39544  39555M 39620M 39620
             39653  39684  39695M 39734  39765  39776M 39810  39842  39864M 39872  39873M 39959M 39959  39964  39996M
1         (SAM2193) (12:54) (15MAR04) General Purpose Register Cross Reference                                              Page  237
             39996  40089M 40107M 40152M 40182M 40198M 40199M 40200  40205M 40273M 40295M 40316M 40334M 40374M 40374
             40571M 40574  40586M 40591N 40594M 40596  40637M 40690  40704M 40712  40713M 40716M 40717M 40718  40755M
             40755  40884  40919M 40927  40928M 41068M 41111  41125D 41127M 41127  41128M 41129U 41141  41165M 41166
             41169M 41175  41211  41250M 41250  41379  41417M 41425  41426M 41547M 41590  41665  41704M 41704  41784M
             41784  41907M 41910  41922M 41931N 41934M 41936  41993M 42001  42002M 42009M 42061M 42069  42070M 42072M
             42073M 42074  42107  42140M 42140  42267  42302M 42310  42311M 42357D 42359M 42359  42360M 42361U 42367N
             42585D 42587M 42587  42588M 42589U 42662D 42664M 42664  42665M 42666U 42672N 42871  42910M 42910  43037
             43072M 43080  43081M 43139M 43307  43346M 43346  43465M 43473  43474M 43499M 43537M 43538M 43538  43541M
             43543  43601M 43601  43672M 43675  43687M 43694M 43696  43738M 43738  43807M 43810  43822M 43830M 43832
             43874M 43874  43991M 44002M 44021M 44021  44078  44118M 44119M 44120  44132M 44151M 44151  44355M 44355

1SAM      (SAM2193) (12:54) (15MAR04) Diagnostic Cross Reference and Assembler Summary                                      Page  238
-                                                                                            HLASM R4.0  2004/03/15 12.54
0     No Statements Flagged in this Assembly
 HIGH LEVEL ASSEMBLER, 5696-234, RELEASE 4.0, PTF P72483
0SYSTEM: OS/390 02.10.00            JOBNAME: WYL#SAM     STEPNAME: ASM        PROCSTEP: (NOPROC)
0Datasets Allocated for this Assembly
  Con DDname   Dataset Name                                 Volume  Member
   P1 SYSIN    WYL.GS.WYL.WYLBUR.SOURCE                     SYSB05  SAM
   L1 SYSLIB   WYL.GS.WYL.WYLBUR.MACLIB                     SYSB05
   L2          WYL.GG.SYS.MACLIB                            SYSB05
   L3          SYS3.IS.MACLIB                               SYSB05
   L4          SYS3.MACLIB                                  SYSB02
   L5          SYS1.MACLIB                                  MVSBR9
   L6          SYS1.MODGEN                                  MVSBR9
      SYSPRINT SYS04075.T125403.RA000.WYL#SAM.PRINT.H01     SCR101
      SYSTERM  GG$SLP.WYL#SAM.JOB03560.D0000101.?

    3668K allocated to Buffer Pool,         5593K would be required for this to be an In-Storage Assembly
    5374 Primary Input Records Read        12495 Library Records Read                441 Work File Reads
       0 ASMAOPT Records Read              23017 Primary Print Records Written       485 Work File Writes
       0 Punch Records Written                 0 ADATA Records Written
0Assembly Start Time: 12.54.04 Stop Time: 12.54.24 Processor Time: 00.00.08.8919
 Return Code 000
