1                        J E S 2  J O B  L O G  --  S Y S T E M  S Y S B  --  N O D E  R L G
0
 12.49.45 JOB03547 ---- MONDAY,    15 MAR 2004 ----
 12.49.45 JOB03547  ICH70001I GG$SLP   LAST ACCESS AT 12:49:30 ON MONDAY, MARCH 15, 2004
 12.49.45 JOB03547  $HASP373 WYL#NEWS STARTED - INIT 9    - CLASS B - SYS SYSB
 12.49.45 JOB03547  ***  HCMD      STEP $$QUIET
 12.49.45 JOB03547  PUR * Q OUT MUL
 12.49.45 JOB03547  JOB 5408 WYL#NEWS WILL BE PURGED
 12.49.46 JOB03547  WYL#NEWS.$$QUIET .         RC=Zero TapeIO=0000 DiskIO=0000 CPU=  .01s Elapsed=85.87s
 12.49.54 JOB03547  WYL#NEWS.ASM     .         RC=Zero TapeIO=0000 DiskIO=0548 CPU= 2.12s Elapsed=87.36s
 12.49.54 JOB03547  WYL#NEWS.EDIT    .         RC=Zero TapeIO=0000 DiskIO=0067 CPU=  .22s Elapsed=94.28s
 12.49.54 JOB03547  WYL#NEWS Ended.  Name=Assemble NEWS                  Total CPU= 2.35s Elapsed=85.87s
 12.49.54 JOB03547
 12.49.54 JOB03547  Execution charges   Priority=Standard   Block=Day
 12.49.54 JOB03547
 12.49.54 JOB03547  CPU Usage          42.75          $26.50   Standard Processing Unit Equivalent
 12.49.54 JOB03547                                   =======
 12.49.54 JOB03547                                    $26.50   Total Job execution charge
 12.49.54 JOB03547
 12.49.54 JOB03547  See back separator page for print charges
 12.49.54 JOB03547
 12.49.54 JOB03547  $HASP395 WYL#NEWS ENDED  ASM=0, EDIT=0
1        1 //WYL#NEWS JOB SLP$GG,'Assemble NEWS',TIME=4,REGION=4M                  JOB03547
           //*
           /*JOBPARM LINES=99,COPIES=1
           /*JOBPARM FORMS=3HOL,PFORMAT=LAND,CHARS=BD13,DUPLEX=YES,FLASH=BAR4
           //*
           /*JOBPARM NOTIFY=GG.SLP,HOLD=OUTPUT                                     WYLGEN
         2 //$$QUIET EXEC PGM=HCMDX,PARM='PUR * Q OUT MUL'
           //*
         3 //ASM    EXEC PGM=ASMA90,REGION=8M,
           //            PARM=('NORENT,TERM,FLAG(NOCONT),US(MAP,WARN(10)),NODECK',
           //            'LC(32767),XREF(SHORT),ESD,DXREF,NOOBJECT')
         4 //STEPLIB DD DSN=SYS3.IS.TESTASM,DISP=SHR
         5 //SYSLIB   DD  DSN=WYL.GS.WYL.WYLBUR.MACLIB,DISP=SHR
         6 //         DD  DSN=WYL.GG.SYS.MACLIB,DISP=SHR
         7 //         DD  DSN=SYS3.IS.MACLIB,DISP=SHR
         8 //         DD  DSN=SYS3.MACLIB,DISP=SHR
         9 //         DD  DSN=SYS1.MACLIB,DISP=SHR
        10 //         DD  DSN=SYS1.MODGEN,DISP=SHR
        11 //SYSUT1   DD DSN=&&SYSUT1,UNIT=VIO,DISP=(,DELETE),
           //            SPACE=(4088,(500,250),,CONTIG,ROUND)
        12 //SYSTERM  DD SYSOUT=T
        13 //SYSPRINT DD DSN=&&PRINT,UNIT=SYSDA,DISP=(,PASS),
           //            SPACE=(6650,(250,250),RLSE),
           //            DCB=(BLKSIZE=6650,LRECL=133,RECFM=FB)
        14 //SYSUDUMP DD SYSOUT=A
        15 //SYSIN    DD  DSN=WYL.GS.WYL.WYLBUR.SOURCE(NEWS),DISP=SHR
           //*
        16 //EDIT    EXEC PGM=ASMEDIT,TIME=2,REGION=4000K,
           //             PARM='STMT'
        17 //STEPLIB  DD  DSN=WYL.GG.SYS.LINKLIB,DISP=SHR
        18 //ASMOUT   DD  DSN=&PRINT,DISP=(OLD,DELETE)
        19 //SYSPRINT DD  SYSOUT=A
1 STMT NO. MESSAGE
 -
        11 IGD01010I STORCLAS= TEMP STORGROUP =
        11 IGD01010I STORGRP=VIO ASSIGNED.
        13 IGD01010I STORCLAS= TEMP STORGROUP =
        13 IGD01010I STORGRP=VIO ASSIGNED.
 ICH70001I GG$SLP   LAST ACCESS AT 12:49:30 ON MONDAY, MARCH 15, 2004
 IEF142I WYL#NEWS $$QUIET - STEP WAS EXECUTED - COND CODE 0000
 *********************************************************************************
 *   WYL#NEWS/$$QUIET /                    Return Code      Zero                 *
 *   Region used      260K (16K user + 244K system)                              *
 *   Extended region  9464K (4K user + 9460K system)                             *
 *                                                                               *
 *   Paging              In      Out                                             *
 *   Private <-> Aux      0        0       CPU time (TCB)   00:00:00.01          *
 *   Private <-> Exp      0        0       CPU time (SRB)   00:00:00.00          *
 *   VIO                  0        0       Elapsed time    917:38:07.09          *
 *   Common               0      ---                                             *
 *                                                                               *
 *                                                                               *
 *   CPU Usage          0.18         $0.11  Standard Processing Unit Equivalent  *
 *                                   $0.11  Total Step execution charge          *
 *                                                                               *
 *    I/O count  DDname   Type Addr           I/O count  DDname   Type Addr      *
 *                         *** No I/O for this step ***                          *
 *********************************************************************************
 IEF373I STEP/$$QUIET /START 2004075.1249
 IEF374I STEP/$$QUIET /STOP  2004075.1249 CPU    0MIN 00.01SEC SRB    0MIN 00.00SEC VIRT    16K SYS   244K EXT       4K SYS    9460K
 IEF236I ALLOC. FOR WYL#NEWS ASM
 IEF237I 04DC ALLOCATED TO STEPLIB
 IEF237I 04DC ALLOCATED TO SYSLIB
 IEF237I 04DC ALLOCATED TO
 IEF237I 04DC ALLOCATED TO
 IEF237I 0402 ALLOCATED TO
 IEF237I 04A0 ALLOCATED TO
 IEF237I 04A0 ALLOCATED TO
 IGD101I SMS ALLOCATED TO DDNAME (SYSUT1  )
         DSN (SYS04075.T124945.RA000.WYL#NEWS.SYSUT1.H01  )
         STORCLAS (TEMP) MGMTCLAS (        ) DATACLAS (        )
         VOL SER NOS= VIO
 IEF237I JES2 ALLOCATED TO SYSTERM
 IGD101I SMS ALLOCATED TO DDNAME (SYSPRINT)
         DSN (SYS04075.T124945.RA000.WYL#NEWS.PRINT.H01   )
         STORCLAS (TEMP) MGMTCLAS (        ) DATACLAS (        )
         VOL SER NOS= SCR101
 IEF237I JES2 ALLOCATED TO SYSUDUMP
 IEF237I 04DC ALLOCATED TO SYSIN
 IEF142I WYL#NEWS ASM - STEP WAS EXECUTED - COND CODE 0000
 IEF285I   SYS3.IS.TESTASM                              KEPT
 IEF285I   VOL SER NOS= SYSB05.
 IEF285I   WYL.GS.WYL.WYLBUR.MACLIB                     KEPT
 IEF285I   VOL SER NOS= SYSB05.
 IEF285I   WYL.GG.SYS.MACLIB                            KEPT
 IEF285I   VOL SER NOS= SYSB05.
 IEF285I   SYS3.IS.MACLIB                               KEPT
 IEF285I   VOL SER NOS= SYSB05.
 IEF285I   SYS3.MACLIB                                  KEPT
 IEF285I   VOL SER NOS= SYSB02.
 IEF285I   SYS1.MACLIB                                  KEPT
 IEF285I   VOL SER NOS= MVSBR9.
 IEF285I   SYS1.MODGEN                                  KEPT
 IEF285I   VOL SER NOS= MVSBR9.
 IGD105I SYS04075.T124945.RA000.WYL#NEWS.SYSUT1.H01   DELETED,   DDNAME=SYSUT1
 IEF285I   GG$SLP.WYL#NEWS.JOB03547.D0000101.?          SYSOUT
 IGD106I SYS04075.T124945.RA000.WYL#NEWS.PRINT.H01    PASSED,    DDNAME=SYSPRINT
 IEF285I   GG$SLP.WYL#NEWS.JOB03547.D0000102.?          SYSOUT
 IEF285I   WYL.GS.WYL.WYLBUR.SOURCE                     KEPT
 IEF285I   VOL SER NOS= SYSB05.
 *********************************************************************************
 *   WYL#NEWS/ASM     /                    Return Code      Zero                 *
 *   Region used      4376K (4096K user + 280K system)                           *
 *   Extended region  10064K (412K user + 9652K system)                          *
 *                                                                               *
 *   Paging              In      Out                                             *
 *   Private <-> Aux      0        0       CPU time (TCB)   00:00:02.06          *
 *   Private <-> Exp      0        0       CPU time (SRB)   00:00:00.06          *
 *   VIO                  0        0       Elapsed time    917:38:05.60          *
 *   Common               0      ---                                             *
 *                                                                               *
 *                                                                               *
 *   CPU Usage         38.62        $23.94  Standard Processing Unit Equivalent  *
 *                                  $23.94  Total Step execution charge          *
 *                                                                               *
 *    I/O count  DDname   Type Addr           I/O count  DDname   Type Addr      *
 *           85  STEPLIB  Disk 04DC                 326  SYSLIB   Disk 04DC      *
 *            0  SYSLIB   Disk 04DC                   0  SYSLIB   Disk 04DC      *
 *            2  SYSLIB   Disk 0402                  68  SYSLIB   Disk 04A0      *
 *            0  SYSLIB   Disk 04A0                   0  SYSUT1   VIO  ----      *
 *            0  SYSTERM       ----                  64  SYSPRINT Disk 04E3      *
 *            0  SYSUDUMP      ----                   3  SYSIN    Disk 04DC      *
 *********************************************************************************
 IEF373I STEP/ASM     /START 2004075.1249
 IEF374I STEP/ASM     /STOP  2004075.1249 CPU    0MIN 02.06SEC SRB    0MIN 00.06SEC VIRT  4096K SYS   280K EXT     412K SYS    9652K
 IEF236I ALLOC. FOR WYL#NEWS EDIT
 IEF237I 0402 ALLOCATED TO STEPLIB
 IGD103I SMS ALLOCATED TO DDNAME ASMOUT
 IEF237I JES2 ALLOCATED TO SYSPRINT
 IEF142I WYL#NEWS EDIT - STEP WAS EXECUTED - COND CODE 0000
 IEF285I   WYL.GG.SYS.LINKLIB                           KEPT
 IEF285I   VOL SER NOS= SYSB02.
 IGD105I SYS04075.T124945.RA000.WYL#NEWS.PRINT.H01    DELETED,   DDNAME=ASMOUT
 IEF285I   GG$SLP.WYL#NEWS.JOB03547.D0000103.?          SYSOUT
 *********************************************************************************
 *   WYL#NEWS/EDIT    /                    Return Code      Zero                 *
 *   Region used      380K (116K user + 264K system)                             *
 *   Extended region  9588K (4K user + 9584K system)                             *
 *                                                                               *
 *   Paging              In      Out                                             *
 *   Private <-> Aux      0        0       CPU time (TCB)   00:00:00.21          *
 *   Private <-> Exp      0        0       CPU time (SRB)   00:00:00.01          *
 *   VIO                  0        0       Elapsed time    917:37:58.68          *
 *   Common               0      ---                                             *
 *                                                                               *
 *                                                                               *
 *   CPU Usage          3.93         $2.43  Standard Processing Unit Equivalent  *
 *                                   $2.43  Total Step execution charge          *
 *                                                                               *
 *    I/O count  DDname   Type Addr           I/O count  DDname   Type Addr      *
 *            2  STEPLIB  Disk 0402                  65  ASMOUT   Disk 04E3      *
 *            0  SYSPRINT      ----                                              *
 *********************************************************************************
 IEF373I STEP/EDIT    /START 2004075.1249
 IEF374I STEP/EDIT    /STOP  2004075.1249 CPU    0MIN 00.21SEC SRB    0MIN 00.01SEC VIRT   116K SYS   264K EXT       4K SYS    9584K
 *********************************************************************************
 *                                                                               *
 *                      S t a n f o r d   U n i v e r s i t y                    *
 *                                                                               *
 *                              *** Job Summary ***                              *
 *                                                                               *
 *   System Id      SYSB                   Input time     12:39:22  Mar 15, 2004 *
 *                                                                               *
 *   System Release SP6.1.0                Start time     12:49:45  Mar 15, 2004 *
 *                                                                               *
 *   Job name       WYL#NEWS               Stop  time     00:00:00  Mar 15, 2004 *
 *                                                                               *
 *   Account        SLP$GG                 Elapsed time  917:38:07.09            *
 *                                                                               *
 *   User Name      Assemble NEWS          CPU time       00:00:02.28            *
 *                                                                               *
 *   Job class      B                      SRB Time       00:00:00.07            *
 *                                                                               *
 *********************************************************************************
 IEF375I  JOB/WYL#NEWS/START 2004075.1249
 IEF376I  JOB/WYL#NEWS/STOP  2004075.1249 CPU    0MIN 02.28SEC SRB    0MIN 00.07SEC
1Assembler Done NEWS No Statements Flagged
1         High Level Assembler Option Summary                   (PTF P72483 )                                               Page    1
-                                                                                            HLASM R4.0  2004/03/15 12.49
0  No Overriding ASMAOPT Parameters
   Overriding Parameters-  NORENT,TERM,FLAG(NOCONT),US(MAP,WARN(10)),NODECK,LC(32767),XREF(SHORT),ESD,DXREF,NOOBJECT
   No Process Statements


   Options for this Assembly
0  NOADATA
     ALIGN
   NOASA
     BATCH
     CODEPAGE(047C)
   NOCOMPAT
   NODBCS
 3 NODECK
 3   DXREF
 3   ESD
   NOEXIT
 3   FLAG(0,ALIGN,NOCONT,NOIMPLEN,NOPAGE0,PUSH,RECORD,NOSUBSTR,USING0)
   NOFOLD
   NOGOFF
   NOINFO
     LANGUAGE(EN)
   NOLIBMAC
 3   LINECOUNT(32767)
     LIST(121)
     MXREF(SOURCE)
 3 NOOBJECT
     OPTABLE(UNI,NOLIST)
   NOPCONTROL
   NOPESTOP
   NOPROFILE
   NORA2
 3 NORENT
     RLD
     RXREF
     SIZE(MAX)
     SYSPARM()
 3   TERM(WIDE)
   NOTEST
     THREAD
   NOTRANSLATE
 3   USING(NOLIMIT,MAP,WARN(10))
 3   XREF(SHORT)

   No Overriding DD Names

1NEWS     External Symbol Dictionary                                                                                        Page    2
-Symbol   Type   Id     Address  Length     LD ID  Flags Alias-of                            HLASM R4.0  2004/03/15 12.49
0WYLNEWS   SD 00000001 00000000 00000E50             00
 NEWS2193  LD          00000000           00000001
 SETWNEWS  LD          00000018           00000001
 SHOWNEWS  LD          000004F8           00000001
 MTOKEN    ER 00000002
 VERPSH    ER 00000003
 COLLPSH   ER 00000004
 MALL      ER 00000005
 NOTVALID  ER 00000006
 NEWSDISP  LD          0000076A           00000001
 SEGCR     ER 00000007
 SEG       ER 00000008
 EXIT0     ER 00000009
 DOFNAME   ER 0000000A
 FNAMOPTS  ER 0000000B
 FNAMEFIN  ER 0000000C
 ZDETRNG   ER 0000000D
 EXTOPEN   ER 0000000E
 DESPOT    ER 0000000F
 EXTCLOSE  ER 00000010
 DTB       ER 00000011
 SEGB      ER 00000012
 CVEXNO    ER 00000013
 NSCAN     ER 00000014
 SCANCHK   ER 00000015
 KWIO      ER 00000016
 SEGDC     ER 00000017
 LRTRIM    ER 00000018
 YESRTN    ER 00000019

1NEWS     WYLBUR's News Facility                                                                                            Page    3
0Loc    Object Code    Addr1 Addr2  Stmt Lv Lineno    Source Statement                    (Asmedit 3.3)  HLASM R4.0  2004/03/15 12.49
+___    ______ ____    _____ _____  ____ __ ______    ______ _________
0                                      2              *******************************************************************
                                       3              *                                                                 *
                                       4              *     WYLBUR/370 - Release VI - Class I - Stanford Proprietary    *
                                       5              *                                                                 *
                                       6              *******************************************************************
                                       7                       HIBAL
                                     988
 000000                00000 00E50   989              WYLNEWS  CSECT
                                     993              NEWS     IDENT 2193                15:11:46 07/12/02  (SLP)
                                     996             +
                                     997    01-IDENT +         ENTRY NEWS2193
                                     998             +
 000000 16D5C5E6E2F2F1F9             999    01-IDENT +NEWS2193 DC    AL1(22),C'NEWS2193,15MAR04,12:49'
                                    1000             +*
                                    1002                       REGS  FSR,,,,,,,BR,(WAR,LSR),PAR,PBR,CPR,CVR,SPR,RAR
                                    1138
                                    1139                       GBLC  &INSTALN            (See SYSDEFN macro)
-                                   1141                       SYSDEFN ,                 Define installation params
-                                   1143                       PUSH  DSECTS
 USING  CP,R11                      1155             =         USING (CP),(CV)
 USING  CV,R12
 000017                00000 00E50  1174             =         POP   PRINT
1NEWS     (NEWS2193) (12:49) (15MAR04) News Update Routine                                                                  Page    4
0Current Usings:  (CP,R11) (CV,R12)
0Loc    Object Code    Addr1 Addr2  Stmt Lv Lineno    Source Statement           (Hibal 5, Asmedit 3.3)  HLASM R4.0  2004/03/15 12.49
+___    ______ ____    _____ _____  ____ __ ______    ______ _________
0                                   6978              ***
                                    6979              ***  Historical Note (the best kind!):
                                    6980              ***
                                    6981              ***         At one time (before 3/30/85) this code put the news
                                    6982              ***         text in "shared" text pages.  The support for shared
                                    6983              ***         pages has been removed from the dispatcher (to improve
                                    6984              ***         performance and greatly simplifies the logic).
                                    6985              ***
                                    6986              ***         The news text is now simply kept in virtual memory,
                                    6987              ***         but the old logic of keeping separate "pagenos" (now
                                    6988              ***         addresses) and "offsets" still remains in the SHOW
                                    6989              ***         NEWS code which follows.
                                    6990              ***                                                        "Niz"
                                    6991              ***
-000000                00000 00074  6993              NDIR     RECORD BEGIN
 000000                             7001  1           NDIRDATE   DS    F          (First)  Date of news item
 000004                             7002  1           NDIRLINS   DS    H                   Number of lines
 000008                             7003  1           NDIRPG     DS    F                   Page which contains news text
 00000C                             7004  1           NDIRPGO    DS    H                   Offset in page to text
 00000E                             7005  1                      DS    H                   Reserved
 000010                             7006  1           NDIRTITL   DS    CL100               Title
                                    7007  1           NDIRNEXT   EQU   *,4,C'F'
 000074                00074 00074  7008                       END
-000000                00000 000AA  7018              NEWSWA   RECORD BEGIN
 000000 00                          7026  1           NEWSFLAG   FLAG
                                    7030  1
 000004                             7031  1           NEWSDATE   DS    F                   Date (yymmddnn)
 000008                             7032  1           NEWSPG     DS    (CVNWMPG#)F         News pages
                                    7033  1           NEWSINFO   EQU   NEWSDATE,*-NEWSDATE,C'X'
                                    7034  1
 000028                             7035  1           NEWSNPG    DS    H                   Current offset from NEWSPG
 00002A                             7036  1           NEWSPGO    DS    H                   Current offset in dir page
 00002C                             7037  1           NEWSTX     DS    F                   Current text page
 000030                             7038  1           NEWSTXO    DS    H                   Current offset in text page
 000032                             7039  1           NEWSNLC    DS    H                   No. of pending nl's
 000034                             7040  1           NEWSSDC    DS    H                   No. of titles with same date
 000036                             7041  1           NEWSNDIR   DS    XL(L'NDIR)
 0000AA                000AA 000AA  7042                       END
1NEWS     (NEWS2193) (12:49) (15MAR04) News Update Routine                                                                  Page    5
0Current Usings:  (CP,R11) (CV,R12)
0Loc    Object Code    Addr1 Addr2  Stmt Lv Lineno    Source Statement           (Hibal 5, Asmedit 3.3)  HLASM R4.0  2004/03/15 12.49
+___    ______ ____    _____ _____  ____ __ ______    ______ _________
0                                   7052              ¿þþþþþþþþþþþþþþþþþþþþþþþþþþþþþþþþþþþþþþþþþþþþþþþþþþþþþþþþþþþþþþþþþþþþþÜ
                                    7053              Ÿ                                                                     Ÿ
                                    7054              Ÿ  SETWNEWS -- SET WNEWS Command.  (Priv'd.)                          Ÿ
                                    7055              Ÿ                                                                     Ÿ
                                    7056              Ÿ    Note:  This routine is also called after a successful save of    Ÿ
                                    7057              Ÿ      NEWS PUBLIC.                                                   Ÿ
                                    7058              Ÿ                                                                     Ÿ
                                    7059              Ÿ                                                                     Ÿ
                                                      ¾þþþþþþþþþþþþþþþþþþþþþþþþþþþþþþþþþþþþþþþþþþþþþþþþþþþþþþþþþþþþþþþþþþþþþ»
0000018 188D/4570 C74C_             7060              SETWNEWS GENTER
 USING  *,R7
 000026 95E6 BD24/4780_00D24        7077                       IF    (CPCMNM,NE,'W'),BEGIN  Entered after SAVE...
 00002E D603 B05C B05C_0005C 0005C  7094  1                      TCCR
 00004E 4110 7C56/4100_      00C7C  7156  1                      TSEG  'Type SET WNEWS to reset WYLBUR news.'
 000060 47F0 C7DE            007DE  7174  1                      B     CVNEXT
 000064                             7175                       END
 000064 7042/47F0 704C 00064 0002C  7179                       ELSE  BEGIN               Command entry...
 000068 D501 7D3A B3B7_00D60 003B7  7190  1                      IF    (CPSGRP,EQ,'GA'),EXIT  Allow User Services
                                    7210  1           *DONT:   IF    ~CPSFSPR,CVNVALID   Sorry pal
 000072                             7211                       END
                                    7215
 000072 4100 0007            00007  7216                       LA    R0,SDSNNEWS         Want the NEWS dsn
 000076 58E0 7C7E/0DEE       00CA4  7217                       VCALL EXIT0               LOCAL exit - format system dsname
                                    7221
                                    7222                       AIF   ('&INSTALN' NE 'STANFORD').NOTNEW
                                    7223              *  The RLG and SYSC news data sets are also referenced in "FILE".
 00007C 9110 C4C4/47E0_004C4        7224                       IF    CVFRLG,BEGIN        RLG News dsn...
 000084 4110 7DAA/4100_      00DD0  7239  1                      SETMSG '$WYL.GA.PUB.RLGNEWS'
 00008C                             7243                       END
                                    7247
 00008C D504 7DBD C00C_00DE3 0000C  7248                       IF    (CVMACHID,EQ,'SYSC '),BEGIN  SUH News dsn...
 000096 4110 7C82/4100_      00CA8  7265  1                      SETMSG '$WYL.GA.PUB.SUH.NEWS'
 00009E                             7269                       END
                                    7273              .NOTNEW  ANOP
                                    7274
 00009E 58E0 B08C/501E_      0008C  7275                       SCINIT (R1),(R0)
                                    7295
 0000AC 58E0 7C96/0DEE       00CBC  7296                       VCALL DOFNAME
 0000B2 58E0 7C9A/0DEE       00CC0  7300                       VCALL FNAMOPTS
 0000B8 58E0 7C9E/0DEE       00CC4  7304                       VCALL FNAMEFIN
 0000BE 9610 BD50      00D50        7308                       SET   CPLFLG1.CPFALL
 0000C2 9203 BD89      00D89        7315                       SET   CPFRDEXT
 0000C6 58E0 7CA2/0DEE       00CC8  7321                       VCALL ZDETRNG
                                    7325
 0000CC 188D/41D0 D0AC              7326                       XPUSH ,,L'NEWSWA,PTR=WAR
 USING  NEWSWA,R8                   7329                       USING NEWSWA,WAR
 0000D2 D7A9 8000 8000 00000 00000  7338                       CLEAR NEWSWA
 0000D8 5080 BCA4            00CA4  7345                       ST    WAR,CPCWA
 0000DC 58E0 7CA6/0DEE       00CCC  7346                       VCALL EXTOPEN             Open data set
 0000E2 12FF/4770 C7DE              7350                       IF    (R15,NZ),CVNEXT
                                    7367
 0000E8 58E0 7CAA/0DEE       00CD0  7368                       ACALL GETNPG
 0000EE D203 1000 7CAE 00000 00CD4  7372                       MVC   @R1(4),=F'-1'       Init dir
1NEWS     (NEWS2193) (12:49) (15MAR04) News Update Routine                                                                  Page    6
0Current Usings:  (*,R7) (NEWSWA,R8) (CP,R11) (CV,R12)
0Loc    Object Code    Addr1 Addr2  Stmt Lv Lineno    Source Statement           (Hibal 5, Asmedit 3.3)  HLASM R4.0  2004/03/15 12.49
+___    ______ ____    _____ _____  ____ __ ______    ______ _________
00000F4 5010 8008            00008  7373                       ST    R1,NEWSPG           Save ptr
 0000F8 D201 8028 7D3C 00028 00D62  7374                       MVC   NEWSNPG,=H'4'       And set offset
                                    7375
 0000FE 58F0 7216            0023C  7376                       L     R15,NEWSWRK
 000102 58E0 7CB2/0DEE       00CD8  7377                       VCALL DESPOT              (Co-routine is NEWSRTN)
 000108 58E0 7CB6/0DEE       00CDC  7381                       VCALL EXTCLOSE
 00010E 4110 7DC2/4100_      00DE8  7385                       SETMSG '*69/99/99 EOF'     Dummy eof line
 000116 4DE0 721A            00240  7389                       LCALL NEWSRTN
 00011A 5850 8008/1255_      00008  7391              NRTNDIR  IF    ('LT R5,NEWSPG',NZ),BEGIN  Dir must be sorted...
 000124 D503 7CAE 5000_00CD4 00000  7408  1                      IF    (@R5,EQ,=F'-1'),BEGIN   Empty dir...
 00012E 1815                        7424  2                        LR    R1,R5
 000130 58E0 7CBA/0DEE       00CE0  7425  2                        ACALL FREENPG             Free news page
 000136 D723 8004 8004 00004 00004  7429  2                        CLEAR NEWSINFO
 00013C 47F0 71BE            001E4  7436  2                        EXIT  NRTNDIR
 000140                             7439  1                      END
                                    7443  1
 000140 5850 8008            00008  7444  1           NRTNSORT   L     R5,NEWSPG
 000144                             7445  1                      LOOP  BEGIN               Sort NDIR entries...
 USING  NDIR,R5                     7451  2                        WITH  (NDIR,R5)
 000144 5840 5000            00000  7464  2                        L     R4,NDIRDATE
 000148 5540 5074/47D0_      00074  7465  2                        IF    (R4,LGT,NDIRNEXT),'FLIP (NDIR,NDIRNEXT); B NRTNSORT'
 000166 4150 5074            00074  7495  2                        LA    R5,NDIRNEXT
 00016A D503 7CAE 5000_00CD4 00000  7496  2                        UNTIL (NDIRDATE,EQ,=F'-1')
 000174 47F0 711E            00144  7517  1                      END
 DROP   NDIR,R5
                                    7527  1
 000178 5850 8008            00008  7528  1                      L     R5,NEWSPG
 00017C                             7529  1                      LOOP  BEGIN
 USING  NDIR,R5                     7535  2                        WITH  (NDIR,R5)
 00017C D502 5000 5074_00000 00074  7548  2                        IF    ('CLC NDIR(3),NDIRNEXT',EQ),BEGIN  Same date...
 000186 41F0 0001            00001  7561  3                          LA    R15,1
 00018A 4130 5074            00074  7562  3                          LA    R3,NDIRNEXT
 00018E D502 5000 3000_00000 00000  7563  3                          WHILE ('CLC NDIR(3),@R3',EQ),'LA R15,@R15+1; LA R3,@R3+L"NDIR'
 0001A4 4110 0001            00001  7586  3                          LA    R1,1
 0001A8                             7587  3                          LOOP  BEGIN
 0001A8 4210 5003            00003  7593  4                            STC   R1,NDIRDATE+3       Save id count
 0001AC 5840 5000            00000  7594  4                            L     R4,NDIRDATE         Possible newest date
 0001B0 4150 5074            00074  7595  4                            LA    R5,NDIRNEXT
 0001B4 4110 1001            00001  7596  4                            LA    R1,@R1+1
 0001B8 191F/4720 719C              7597  4                            UNTIL (R1,GT,R15)
 0001BE 47F0 7182            001A8  7616  3                          END
 0001C2                             7621  2                        END
 0001C2 71A0/47F0 71AC_001C2 00184  7625  2                        ELSE  'MVI NDIRDATE+3,1; L R4,NDIRDATE; LA R5,NDIRNEXT'
 0001D2 D503 7CAE 5000_00CD4 00000  7644  2                        UNTIL (NDIRDATE,EQ,=F'-1')
 0001DC 47F0 7156            0017C  7665  1                      END
 DROP   NDIR,R5
                                    7675  1
 0001E0 5040 8004            00004  7676  1                      ST    R4,NEWSDATE         Latest date
 0001E4                             7677                       END
1NEWS     (NEWS2193) (12:49) (15MAR04) News Update Routine                                                                  Page    7
0Current Usings:  (*,R7) (NEWSWA,R8) (CP,R11) (CV,R12)
0Loc    Object Code    Addr1 Addr2  Stmt Lv Lineno    Source Statement           (Hibal 5, Asmedit 3.3)  HLASM R4.0  2004/03/15 12.49
+___    ______ ____    _____ _____  ____ __ ______    ______ _________
0                                   7681                 ¿þþþþþþþþþþþþþþþþþþþþþþþþþþþþþþþþþþþþþþþþþþþþþþþþþþþþþþþþþþþþþþþþþþþþþþÜ
                                    7682                 Ÿ  Now that the news info has been successfully built, make the pages  Ÿ
                                    7683                 Ÿ   shared and replace the CV news directory with the new directory.   Ÿ
                                    7684                 Ÿ  Then delete the old news pages (because the pages are shared they   Ÿ
                                    7685                 Ÿ  will not actually be available for re-use until the use count goes  Ÿ
                                    7686                 Ÿ        to zero).                                                     Ÿ
                                    7687                 ¾þþþþþþþþþþþþþþþþþþþþþþþþþþþþþþþþþþþþþþþþþþþþþþþþþþþþþþþþþþþþþþþþþþþþþþ»
 0001E4 4140 0008            00008  7688                       LA    R4,CVNWMPG#
 0001E8 4150 8008            00008  7689                       LA    R5,NEWSPG
 0001EC 5810 5000/1211_      00000  7690              NRTNSLOP IF    ('LT R1,@R5',NZ),BEGIN
 0001F6 58E0 7CBE/0DEE       00CE4  7707  1                      ACALL ALLONPG
 0001FC 4150 5004            00004  7711  1                      LA    R5,@R5+4
 000200 4640 71C6            001EC  7712  1                      BCT   R4,NRTNSLOP
 000204                             7713                       END
 000204 D723 8004 C608_00004 00608  7717                       FLIP  (NEWSINFO,CVNWINFO)  News is now available
                                    7724
 000216 4140 0008            00008  7725                       LA    R4,CVNWMPG#
 00021A 4150 8008            00008  7726                       LA    R5,NEWSPG
 00021E 5810 5000/1211_      00000  7727              NRTNFLOP IF    ('LT R1,@R5',NZ),BEGIN
 000228 58E0 7CC2/0DEE       00CE8  7744  1                      ACALL RELNPG
 00022E 4150 5004            00004  7748  1                      LA    R5,@R5+4
 000232 4640 71F8            0021E  7749  1                      BCT   R4,NRTNFLOP
 000236                             7750                       END
 000236 47F0 C7DE            007DE  7754                       B     CVNEXT
 DROP   *,R7                        7755                       DROP  BR,NEWSWA
 DROP   NEWSWA,R8
                                    7769
 00023C                             7770                       DS    0F
 00023C E1000240                    7771              NEWSWRK  DC    AL1(DESRTRN+LXCATRTN+UNPRST),AL3(NEWSRTN)
1NEWS     (NEWS2193) (12:49) (15MAR04) News Update Routine                                                                  Page    8
0Current Usings:  (CP,R11) (CV,R12)
0Loc    Object Code    Addr1 Addr2  Stmt Lv Lineno    Source Statement           (Hibal 5, Asmedit 3.3)  HLASM R4.0  2004/03/15 12.49
+___    ______ ____    _____ _____  ____ __ ______    ______ _________
0                                   7773              *
                                    7774              * Called by the range processor with line loc in R1 and len in R0.
                                    7775              *
 000240 50E0 D000/9028_      00000  7776              NEWSRTN  XENTER R2,R8,,LOCAL
 USING  *,R7
 00025A 5860 BCA4            00CA4  7794                       L     R6,CPCWA            NEWSWA ptr
 USING  NEWSWA,R6                   7795                       USING NEWSWA,R6
 00025E 12F0/47D0 701A              7804                       IF    ('LTR R15,R0',POS),BEGIN  Trim trailing blanks...
 000264 1AF1                        7817  1                      AR    R15,R1
 000266 06F0                        7818  1           NRTNTLP    DECR  R15
 000268 9540 F000/4770_00000        7820  1                      IF    (@R15,NE,' '),EXIT
 000270 4600 700C            00266  7839  1                      BCT   R0,NRTNTLP
 000274                             7840                       END
 000274 1851                        7844                       LR    R5,R1               Save line loc
 000276 1840                        7845                       LR    R4,R0               ... and len
                                    7846
 000278 955C 5000/4770_00000        7847                       IF    (@R5,NE,'*'),NRTNTEXT
 000280 5940 7A92/4740_      00CEC  7866                       IF    (R4,LT,11),NRTNTEXT  Not long enough to be a title line
 000288 9561 5003/4770_00003        7886                       IF    ((@R5+3,NE,'/'),OR,(@R5+6,NE,'/')),NRTNTEXT
 000298 4110 5007/4100_      00007  7920                       SETMSG @R5+7,2             Year (yy)
 0002A0 58E0 7A96/0DEE_      00CF0  7936                       IF    ('VCALL DTB',NEG),NRTNTEXT
 0002AA 182F                        7955                       LR    R2,R15
 0002AC 5920 7A9A/47B0_      00CF4  7956                       IF    (R2,LT,=F'70'),BEGIN
 0002B4 5A20 7A9E            00CF8  7972  1                      A     R2,=F'100'
 0002B8                             7973                       END
 0002B8 8920 0008            00008  7977                       SLL   R2,8
 0002BC 4110 5001/4100_      00001  7978                       SETMSG @R5+1,2             Month (mm)
 0002C4 58E0 7A96/0DEE_      00CF0  7994                       IF    ('VCALL DTB',NEG),NRTNTEXT
 0002CE 1A2F                        8013                       AR    R2,R15
 0002D0 8920 0008            00008  8014                       SLL   R2,8
 0002D4 4110 5004/4100_      00004  8015                       SETMSG @R5+4,2             Day (dd)
 0002DC 58E0 7A96/0DEE_      00CF0  8031                       IF    ('VCALL DTB',NEG),NRTNTEXT
 0002E6 1A2F                        8050                       AR    R2,R15
 0002E8 8920 0008            00008  8051                       SLL   R2,8
 0002EC 1222/4780 7132              8052                       IF    (R2,Z),NRTNTEXT
 0002F2 48F0 6034            00034  8069                       LH    R15,NEWSSDC         Item id for items with same date
 0002F6 06F0                        8070                       DECR  R15
 0002F8 BD2E 6036            00036  8072                       CLM   R2,B'1110',NEWSNDIR Same date as before?
 0002FC 4780 70AA/41F0_      00304  8073                       IF    NE,'LA R15,255'     Yes
 000304 40F0 6034            00034  8090                       STH   R15,NEWSSDC         Save id
 000308 1A2F                        8091                       AR    R2,R15              Add in "id"
 00030A D603 6036 6036_00036 00036  8092                       IF    ('OC NEWSNDIR(4),NEWSNDIR',NZ),BEGIN  Add prev NDIR...
 000314 D603 603E 603E 0003E 0003E  8105  1                      OC    NEWSNDIR+(NDIRPG-NDIR)(4),NEWSNDIR+(NDIRPG-NDIR)
 00031A 4780 70D0/48F0_      0032A  8106  1                      IF    NZ,'LH R15,NEWSTXO; LA R15,@R15+5; STH R15,NEWSTXO'
                                    8125  1
 00032A 58F0 6008            00008  8126  1                      L     R15,NEWSPG
 00032E 4830 602A            0002A  8127  1                      LH    R3,NEWSPGO          Current offset in dir page
 000332 1AF3                        8128  1                      AR    R15,R3
 000334 D273 F000 6036 00000 00036  8129  1                      WITH  (NDIR,R15),'MVC NDIR,NEWSNDIR'  Move in entry
 USING  NDIR,R15
 DROP   NDIR,R15
 00033A 4130 3074            00074  8153  1                      LA    R3,@R3+L'NDIR       New offset
 00033E 4030 602A            0002A  8154  1                      STH   R3,NEWSPGO
 000342 41F0 F074            00074  8155  1                      LA    R15,@R15+L'NDIR
1NEWS     (NEWS2193) (12:49) (15MAR04) News Update Routine                                                                  Page    9
0Current Usings:  (NEWSWA,R6) (*,R7) (CP,R11) (CV,R12)
0Loc    Object Code    Addr1 Addr2  Stmt Lv Lineno    Source Statement           (Hibal 5, Asmedit 3.3)  HLASM R4.0  2004/03/15 12.49
+___    ______ ____    _____ _____  ____ __ ______    ______ _________
0000346 D203 F000 7A7A 00000 00CD4  8156  1                      MVC   @R15(4),=F'-1'      Mark end
 00034C 5930 7AA2/4720_      00CFC  8157  1                      IF    (R3,GT,CVNWSIZ#-L'NDIR-4),NDIRFUL  No space in dir
 000354 D773 6036 6036_00036 00036  8177  1                      CLEAR NEWSNDIR,NEWSNLC    Reset entry, etc.
 000360                             8189                       END
                                    8193
 000360 4130 6036            00036  8194                       LA    R3,NEWSNDIR
 USING  NDIR,R3                     8195                       WITH  (NDIR,R3),BEGIN
 000364 5020 3000            00000  8209  1                      ST    R2,NDIRDATE         Fill in date
 000368 D263 3010 C4D8 00010 004D8  8210  1                      MVC   NDIRTITL,CVBLANKS
 00036E 0640                        8211  1                      DECR  R4                  (For leading "*")
 000370 5940 7AA6/47D0_      00D00  8213  1                      CEIL  R4,L'NDIRTITL
 00037C 0640/1244/4740_             8232  1                      MOVE  R4,NDIRTITL,@R5+1
 DROP   NDIR,R3                     8270                       END
 000388 47F0 723C            00496  8278                       B     NRTNEXIT
                                    8279
 00038C 4130 6036            00036  8280              NRTNTEXT LA    R3,NEWSNDIR
 USING  NDIR,R3                     8281                       USING NDIR,R3
 000390 D603 3000 3000_00000 00000  8290                       IF    (NDIRDATE,Z),NRTNEXIT  Text before any titles -- ignore
 00039A 1244/4770 7160              8309                       IF    (R4,Z),BEGIN        Null line...
 0003A0 D603 3008 3008_00008 00008  8323  1                      IF    (NDIRPG,Z),NRTNEXIT  Ignore leading null lines
 0003AA 4100 0001/4A00_      00001  8342  1                      INCR  R0,NEWSNLC
 0003B6 47F0 723C            00496  8348  1                      B     NRTNEXIT
 0003BA                             8349                       END
                                    8353
 0003BA D603 602C 602C_0002C 0002C  8354                       IF    (NEWSTX,Z),BEGIN
 0003C4 4820 6028            00028  8370  1                      LH    R2,NEWSNPG
 0003C8 5920 7AAA/47A0_      00D04  8371  1                      IF    (R2,GE,CVNWMPG#*4),NMORSPA
 0003D0 58E0 7A76/0DEE       00CD0  8391  1                      ACALL GETNPG
 0003D6 5012 6008            00008  8395  1           NRTNRTRY   ST    R1,NEWSPG(R2)       Save pageno in list
 0003DA 5010 602C            0002C  8396  1                      ST    R1,NEWSTX           Save new pageno
 0003DE D701 6030 6030 00030 00030  8397  1                      CLEAR NEWSTXO             Reset offset
 0003E4 4120 2004            00004  8404  1                      LA    R2,@R2+4            Kick dir offset
 0003E8 4020 6028            00028  8405  1                      STH   R2,NEWSNPG
 0003EC                             8406                       END
                                    8410
 0003EC D603 3008 3008_00008 00008  8411                       IF    (NDIRPG,Z),'MVC NDIRPG(6),NEWSTX'
                                    8433
 0003FC 4820 6032            00032  8434                       LH    R2,NEWSNLC          Pending new line count
 000400 D701 6032 6032 00032 00032  8435                       CLEAR NEWSNLC             Reset
 000406 5920 7AAE/47D0_      00D08  8442                       CEIL  R2,3                Max of 3
                                    8461              *
                                    8462              * NEWS BUG 9/16/86
                                    8463              * UNDER CERTAIN CIRCUMSTANCES, NEWS USED TO CLOBBER 'ENDOFNEW'
                                    8464              * CONSTANT AT END OF NEWS PAGE.  WHEN WE CHECK TO SEE IF THE NEW
                                    8465              * LINE WILL FIT WE MUST ALLOW FOR THE FOLLOWING:
                                    8466              *    1 BYTE LEN, R2 - BYTES NL, R4-BYTES TEXT, 5 BYTES END OF
                                    8467              *    TEXT, 5 BYTES NEXT PAGE LINK, AND 6 BYTES FUDGE !
                                    8468              *
                                    8469              *        LA    R15,1+@R2+8(R4)     Len required for line  (OLD CHECK)
                                    8470              *
 000412 41F4 2011            00011  8471                       LA    R15,1+@R2+16(R4)    Len required for line  (NEW CHECK)
 000416 4AF0 6030            00030  8472                       AH    R15,NEWSTXO         Add in prev stuff
 00041A 59F0 7AB2/47D0_      00D0C  8473                       IF    (R15,GT,CVNWSIZ#),BEGIN  Wont fit on this page...
 000422 4820 6028            00028  8490  1                      LH    R2,NEWSNPG
1NEWS     (NEWS2193) (12:49) (15MAR04) News Update Routine                                                                  Page   10
0Current Usings:  (NDIR,R3) (NEWSWA,R6) (*,R7) (CP,R11) (CV,R12)
0Loc    Object Code    Addr1 Addr2  Stmt Lv Lineno    Source Statement           (Hibal 5, Asmedit 3.3)  HLASM R4.0  2004/03/15 12.49
+___    ______ ____    _____ _____  ____ __ ______    ______ _________
0000426 5920 7AB6/47A0_      00D10  8491  1                      IF    (R2,GE,CVNWMPG#*2),NMORSPA  All out of pages
 00042E 58E0 7A76/0DEE       00CD0  8511  1                      ACALL GETNPG              Get new page
 000434 48F0 6030            00030  8515  1                      LH    R15,NEWSTXO
 000438 5AF0 602C            0002C  8516  1                      A     R15,NEWSTX
 00043C 92FF F000      00000        8517  1                      MVI   @R15,X'FF'          Mark as continuation
 000440 BE1F F001            00001  8518  1                      ST4   R1,@R15+1           Addr of new page
 000444 47F0 717C            003D6  8520  1                      B     NRTNRTRY
 000448                             8521                       END
                                    8525
 000448 5810 602C            0002C  8526                       L     R1,NEWSTX
 00044C 4A10 6030            00030  8527                       AH    R1,NEWSTXO          Insertion point
 000450 41F4 2000            00000  8528                       LA    R15,@R2(R4)         Line len (including any NL's)
 000454 42F0 1000            00000  8529                       STC   R15,@R1             Save it
 000458 4AF0 6030            00030  8530                       AH    R15,NEWSTXO
 00045C 41F0 F001            00001  8531                       LA    R15,@R15+1          Len byte
 000460 40F0 6030            00030  8532                       STH   R15,NEWSTXO
 000464 41F1 2001            00001  8533                       LA    R15,1+@R2(R1)       Text will go here
 000468 0620/1222/4740_             8534                       MOVE  R2,@R1+1,=X'151515' Move in any NL's
 000474 0640/1244/4740_             8572                       MOVE  R4,@R15,@R5         Move in text
 000480 4120 2002            00002  8610                       LA    R2,@R2+1+1          No. of lines
 000484 4A20 3004            00004  8611                       AH    R2,NDIRLINS         Add to line count
 000488 4020 3004            00004  8612                       STH   R2,NDIRLINS         Update count
 DROP   NDIR,R3                     8613                       DROP  NDIR
 00048C 41FF 4001            00001  8621                       LA    R15,@R4+1(R15)
 000490 D204 F000 7B9E 00000 00DF8  8622                       MVC   @R15(5),=X'FF00000000'  End of text marker
 000496 18D8/58E0 D000_             8623              NRTNEXIT XEXIT
                                    8628
 0004A2 4110 7BA3/4100_      00DFD  8629              NMORSPA  SETMSG 'News too big, at line'
 0004AA 47F0 725C            004B6  8633                       B     NERRLINE
                                    8634
 0004AE 4110 79DE/4100_      00C38  8635              NDIRFUL  SETMSG 'Too many titles, at line'
 0004B6 41F0 B050/58E0_      00050  8639              NERRLINE TSEG  (R1),(R0),B
 0004C0 5800 B73C            0073C  8664                       L     R0,CPLCNO
 0004C4 58E0 7ABE/0DEE       00D18  8665                       VCALL CVEXNO
 0004CA 41F0 B050/58E0_      00050  8669              NERROR   TSEG  (R1),(R0),CR
 0004D4 4150 6008            00008  8694                       LA    R5,NEWSPG
 0004D8 4140 0008            00008  8695                       LA    R4,CVNWMPG#
 0004DC 5810 5000/1211_      00000  8696              NRTNELOP IF    ('LT R1,@R5',NZ),BEGIN
 0004E6 58E0 7A86/0DEE       00CE0  8713  1                      ACALL FREENPG
 0004EC 4150 5004            00004  8717  1                      LA    R5,@R5+4
 0004F0 4640 7282            004DC  8718  1                      BCT   R4,NRTNELOP
 0004F4                             8719                       END
 0004F4 47F0 C7D6            007D6  8723                       B     CVERROR
                                    8724
 DROP   *,R7                        8725                       DROP  BR,NEWSWA
 DROP   NEWSWA,R6
1NEWS     (NEWS2193) (12:49) (15MAR04) SHOW NEWS Command                                                                    Page   11
0Current Usings:  (CP,R11) (CV,R12)
0Loc    Object Code    Addr1 Addr2  Stmt Lv Lineno    Source Statement           (Hibal 5, Asmedit 3.3)  HLASM R4.0  2004/03/15 12.49
+___    ______ ____    _____ _____  ____ __ ______    ______ _________
0                                   8740              ¿þþþþþþþþþþþþþþþþþþþþþþþþþþþþþþþþþþþþþþþþþþþþþþþþþþþþþþþþþþþþþþþþþþþþþÜ
                                    8741              Ÿ                                                                     Ÿ
                                    8742              Ÿ  SHOWNEWS -- SHOW NEWS command.                                     Ÿ
                                    8743              Ÿ                                                                     Ÿ
                                                      ¾þþþþþþþþþþþþþþþþþþþþþþþþþþþþþþþþþþþþþþþþþþþþþþþþþþþþþþþþþþþþþþþþþþþþþ»
00004F8 188D/4570 C74C_             8744              SHOWNEWS GENTER
 USING  *,R7
 000506 5860 77CE            00CD4  8761                       L     R6,=F'-1'           Show unread news only
 00050A 4150 0001            00001  8762                       LA    R5,1                Display title and prompt for text
 00050E 9620 BD58      00D58        8763                       SET   CPFVER              Assume verify
 000512 5810 B08C/1B00_      0008C  8769                       SCAN  SHNWPRT
 000564 58E0 781E/0DEE       00D24  8801                       SCANCHK
 00056A 9180 BD55/47E0_00D55        8806                       IF    CPFDUMP,'CLEAR CPFVER'  Dump implies noverify
 000576 5960 7822/4780_      00D28  8833                       IF    (R6,NE,-1),BEGIN    Explicit date given...
 00057E 1805                        8849  1                      LR    R0,R5
 000580 1816                        8850  1                      LR    R1,R6
 000582 4DE0 7264            0076A  8851  1                      LCALL NEWSDISP            Display news
 000586 4770 7110            00616  8853  1                      BNZ   SHNONEWS
 00058A 7088/47F0 710C 0058A 0057C  8854                       END   ELSE,BEGIN          Show news since last read...
 00058E 184D/41D0 D1F8              8869  1                      XPUSH ,,L'KWR,PTR=R4
 USING  KWR,R4                      8872  1                      WITH  (KWR,R4)
 000594 D7FF 4000 4000_00000 00000  8885  1                      CLEAR KWR
 0005A0 D201 4003 B3B7 00003 003B7  8893  1                      MVC   KWRGRP,CPSGRP
 0005A6 D202 4000 B3B4 00000 003B4  8894  1                      MVC   KWRUSER,CPSUSER
 0005AC 1814/4100 0040_             8895  1                      KREAD KWR
 0005B8 9180 41F4/4710_001F4        8908  1                      IF    ~KWRHFL.KWRHFCK,BEGIN
 0005C0 D207 B886 774A_00886 00C50  8924  2                        ABORT 'No account file.  Request aborted.',,NOKWFILE
 0005D2                             8932  1                      END
 0005D2 1805                        8936  1                      LR    R0,R5
 0005D4 5810 40B4            000B4  8937  1                      L     R1,KWRNEWDT         Show news after this date
 0005D8 4DE0 7264            0076A  8938  1                      LCALL NEWSDISP
 0005DC 4770 7110            00616  8940  1                      BNZ   SHNONEWS
 0005E0 5910 40B4/4780_      000B4  8941  1                      IF    (R1,NE,KWRNEWDT),BEGIN
 0005E8 1861                        8958  2                        LR    R6,R1
 0005EA                             8959  2                        LOOP  BEGIN
 0005EA 5060 40B4            000B4  8965  3                          ST    R6,KWRNEWDT         Update date read
 0005EE 1814/4100 0080_             8966  3                          KWRITE KWR
 0005FA 9140 41F4/4710_001F4        8979  3                          UNTIL KWRHFL.KWRHFUOK
 000602 47F0 70E4            005EA  8999  2                        END
 000606                             9004  1                      END
 000606 D7FF 4000 4000_00000 00000  9008  1                      CLEAR KWR                 Tidy up
 DROP   KWR,R4                      9016                       END
 000612 47F0 C7DE            007DE  9025                       B     CVNEXT
                                    9026
 000616 4110 7882/4100_      00D88  9027              SHNONEWS SETMSG 'No recent news.  Type SHOW NEWS ALL for all items.'
 00061E D207 B886 7752 00886 00C58  9031                       MVC   CPERRID,=CL8'NONEWNEW'
 000624 59F0 782A/4780_      00D30  9032                       IF (R15,NE,4),'MVC CPERRID,=CL8"NONEWS"; SETMSG "No news."'
 00063A 47F0 C7D0            007D0  9059                       B     CVNXTMSG
 DROP   *,R7                        9060                       DROP  BR
-000640 C1D3D34040404040_           9068              SHNWPRT  SCKW  ALL,SHNWALL
 000668 E2E4D4D4C1D9E840_           9083                       SCKW  SUMMARY,SHNWSUM,A
1NEWS     (NEWS2193) (12:49) (15MAR04) SHOW NEWS Command                                                                    Page   12
0Current Usings:  (CP,R11) (CV,R12)
0Loc    Object Code    Addr1 Addr2  Stmt Lv Lineno    Source Statement           (Hibal 5, Asmedit 3.3)  HLASM R4.0  2004/03/15 12.49
+___    ______ ____    _____ _____  ____ __ ______    ______ _________
0000690 4040404040404040_           9098                       SCKW  ,V(VERPSH),PUSH
 0006B8 4040404040404040_           9113                       SCKW  ,V(COLLPSH),PUSH
 0006E0 4040404040404040_           9128                       SCKW  ,V(NOTVALID)
                                    9143
 000708 50E0 D000/9008_      00000  9144              SHNWALL  PROC  ,
 USING  *,R7
 000722 1B66                        9183                       CLEAR R6                  Date=0 will get everything
 000724 5650 7612            00D34  9187                       O     R5,=A(L'SHNFREV)    Display items from new to old
 000728 9056 8018            00018  9188                       PRETURN (R5,R6)
 00072C 18D8/9808 D004_             9190                       PEND
 DROP   *,R7
                                    9210
 00073A 50E0 D000/9008_      00000  9211              SHNWSUM  PROC  ,
 USING  *,R7
 000754 5650 75E4            00D38  9250                       O     R5,=A(L'SHNFSUM)    Summary only
 000758 5058 0018            00018  9251                       PRETURN (R5)
 00075C 18D8/9808 D004_             9253                       PEND
 DROP   *,R7
                                    9273
1NEWS     (NEWS2193) (12:49) (15MAR04) SHOW NEWS Command                                                                    Page   13
0Current Usings:  (CP,R11) (CV,R12)
0Loc    Object Code    Addr1 Addr2  Stmt Lv Lineno    Source Statement           (Hibal 5, Asmedit 3.3)  HLASM R4.0  2004/03/15 12.49
+___    ______ ____    _____ _____  ____ __ ______    ______ _________
0                                   9275              ¿þþþþþþþþþþþþþþþþþþþþþþþþþþþþþþþþþþþþþþþþþþþþþþþþþþþþþþþþþþþþþþþþþþþþþÜ
                                    9276              Ÿ                                                                     Ÿ
                                    9277              Ÿ  NEWSDISP -- Routine to display news information.  This routine is  Ÿ
                                    9278              Ÿ    either called at logon (if auto news is in effect) or by the     Ÿ
                                    9279              Ÿ    SHOW NEWS command.                                               Ÿ
                                    9280              Ÿ                                                                     Ÿ
                                    9281              Ÿ    On entry:                                                        Ÿ
                                    9282              Ÿ      R0  =  flag byte (see SHNFLAG below)                           Ÿ
                                    9283              Ÿ      R1  =  show items after this date                              Ÿ
                                    9284              Ÿ                                                                     Ÿ
                                    9285              Ÿ    On exit:                                                         Ÿ
                                    9286              Ÿ      R1  =  date of last news item read                             Ÿ
                                    9287              Ÿ      R15 =  0 - ok; 4 - no recent news; 8 - no news                 Ÿ
                                    9288              Ÿ                                                                     Ÿ
                                                      ¾þþþþþþþþþþþþþþþþþþþþþþþþþþþþþþþþþþþþþþþþþþþþþþþþþþþþþþþþþþþþþþþþþþþþþ»
0000000                00000 00133  9289              SHNWA    RECORD BEGIN
                                    9297  1                      XSA   R2,R8
 000000 0000000000000000            9298  1 01-XSA   +           DC    (R8+2-(R2))A(0)
 000020                             9299  1           SHNMODE    DS    XL3                 Option mode   (R0 on entry)
 000023 00                          9300  1           SHNFLAG    FLAG
 SHNFLAG.SHNFSUM   80 ONES          9304  1                      FLAG  SHNFSUM             - Only display titles
 SHNFLAG.SHNFREV   40 ONES          9309  1                      FLAG  SHNFREV             - Display items from new to old
 000024                             9314  1           SHNDATE    DS    F                   Minimum date  (R1 on entry)
 000028                             9315  1           SHNWPG     DS    (CVNWMPG#)F         Copy of news dir
                                    9316  1
                                    9317  1           SHNLINE    DS    CL(&LINESZ)         Copy of a news line
 000048                                   1          +SHNLINE    DS    CL(235)             Copy of a news line
 000133                00133 00133  9318                       END
                                    9327
 00076A 50E0 D000/9028_      00000  9328              NEWSDISP XENTER R2,R8,L'SHNWA
 USING  *,R7
 USING  SHNWA,R8                    9347                       USING SHNWA,WAR
 000784 9001 8020            00020  9356                       STM   R0,R1,SHNMODE       Save options
 000788 D703 8028 8028 00028 00028  9357                       CLEAR SHNWPG              Zot first entry
 00078E D603 C60C C60C_0060C 0060C  9364                       IF    (CVNWPG,Z),'LA R15,8; B NEWSEXIT'
 0007A0 D503 8024 C608_00024 00608  9387                       IF    (SHNDATE,GE,CVNWDATE),'LA R15,4; B NEWSEXIT'
                                    9412
 0007B2 9640 BC7D      00C7D        9413                       SET   CPFNPT              Don't allow p/p text
                                    9419                       ¿þþþþþþþþþþþþþþþþþþþþþþþþþþþþþþþÜ
                                    9420                       Ÿ  Allocate shared news pages.  Ÿ
                                    9421                       ¾þþþþþþþþþþþþþþþþþþþþþþþþþþþþþþþ»
 0007B6 4150 C60C            0060C  9422                       LA    R5,CVNWPG           Start of news pageno's
 0007BA 4140 0008            00008  9423                       LA    R4,CVNWMPG#         Max no of pages allowed
 0007BE 5810 5000/1211_      00000  9424              NALLOCLP IF    ('LT R1,@R5',NZ),BEGIN
 0007C8 58E0 7560/0DEE       00CE4  9441  1                      ACALL ALLONPG             Kick use count
 0007CE 4150 5004            00004  9445  1                      LA    R5,@R5+4
 0007D2 4640 703A            007BE  9446  1                      BCT   R4,NALLOCLP
 0007D6                             9447                       END
                                    9451
 0007D6 D21F 8028 C60C 00028 0060C  9452                       MVC   SHNWPG(CVNWMPG#*4),CVNWPG  Save copy of dir at start
 0007DC 5860 8028            00028  9453                       L     R6,SHNWPG
 USING  NDIR,R6                     9454                       WITH  (NDIR,R6),BEGIN
 0007E0 D503 8024 6000_00024 00000  9468  1                      WHILE (SHNDATE,GE,NDIRDATE),'LA R6,NDIRNEXT'
1NEWS     (NEWS2193) (12:49) (15MAR04) SHOW NEWS Command                                                                    Page   14
0Current Usings:  (NDIR,R6) (*,R7) (SHNWA,R8) (CP,R11) (CV,R12)
0Loc    Object Code    Addr1 Addr2  Stmt Lv Lineno    Source Statement           (Hibal 5, Asmedit 3.3)  HLASM R4.0  2004/03/15 12.49
+___    ______ ____    _____ _____  ____ __ ______    ______ _________
00007F2 D503 7550 6000_00CD4 00000  9495  1                      IF    (NDIRDATE,EQ,=F'-1'),'LA R15,4; B NEWSEXIT'
 000804 4110 768E/4100_      00E12  9519  1                      TSEG  'System News ('
 000816 1856                        9537  1                      LR    R5,R6
 000818 1B22                        9538  1                      CLEAR R2
 00081A D503 7550 6000_00CD4 00000  9542  1                      WHILE (NDIRDATE,NE,=F'-1'),'LA R2,@R2+1; LA R6,NDIRNEXT'
 000830 9140 8023/47E0_00023        9569  1                      IF    SHNFREV,'LR R5,R6; SH R5,=AL2(L"NDIR)'
 00083E 1865                        9591  1                      LR    R6,R5
 000840 1812/1B00/41F0_             9592  1                      TNUM  (R2)
 00084E 4110 7638/4100_      00DBC  9614  1                      SETMSG ' items'
 000856 5920 75BC/4770_      00D40  9618  1                      IF    (R2,EQ,1),'DECR R0'
 000860 41F0 B050/58E0_      00050  9642  1                      TSEG  (R1),(R0)
 00086A 4110 763E/4100_      00DC2  9666  1                      TSEG  '):',,CR
 00087C 1B00/41F0 B050_             9684  1                      TCR
                                    9709  1
 000888 D263 8048 6010 00048 00010  9710  1           NEWSLP     MVC   SHNLINE(L'NDIRTITL),NDIRTITL
 00088E 4110 8048/4100_      00048  9711  1                      SETMSG SHNLINE,L'NDIRTITL
 000896 58E0 75C0/0DEE       00D44  9727  1                      VCALL LRTRIM
                                    9731  1
 00089C 4850 6004            00004  9732  1                      LH    R5,NDIRLINS         No. of text lines
                                    9733  1
 0008A0 41F0 B050/58E0_      00050  9734  1                      TSEG  (R1),(R0)
 DROP   NDIR,R6                     9758                       END
                                    9766
 0008AA 1255/4780 7244              9767                       IF    (R5,NZ),BEGIN       OK to read...
 0008B0 4110 769B/4100_      00E1F  9781  1                      TSEG  ';',,B
 0008C2 1815/1B00/41F0_             9799  1                      TNUM  (R5)
 0008D0 4110 7640/4100_      00DC4  9821  1                      TSEG  ' lines'
 0008E2 9180 8023/4710_00023        9839  1                      IF    SHNFSUM,NEWSSUM     Summary, scram
 0008EA 9120 BD58/47E0_00D58        9857  1                      IF    CPFVER,BEGIN
 0008F2 4110 769C/4100_      00E20  9872  2                        TSEG  ',',,B
 000904 4110 75C4/4100_      00D48  9890  2                        SETMSG 'read'
 00090C 1300                        9894  2                        LCR   R0,R0               Don't add "yes/no"
 00090E 58E0 75C8/0DEE       00D4C  9895  2                        VCALL YESRTN              Prompt
 000914 47B0 71A0            00924  9899  2                        IF    NEG,BEGIN           Attn response...
 000918 58F0 C1C8            001C8  9910  3                          L     R15,CVCURJCB
 00091C 94FD F062      00062        9911  3                          WITH  (JCB,R15),'CLEAR JCBFATTN'  No Exec break
 USING  JCB,R15
 DROP   JCB,R15
 000920 47F0 728A            00A0E  9941  3                          B     NEWSDONE
 000924                             9942  2                        END
 000924 47D0 71AC/4800_      00930  9946  2                        IF    POS,'LH R0,=H"-1"; B NEWSNEXT'  User doesn't want text
 000930                             9964  1                      END
 000930 71B0/47F0 71BC_00930 008F0  9968  1                      ELSE  'TCR'
 000940 5850 6008            00008 10009  1                      L     R5,@R6+(NDIRPG-NDIR)  Page no
 000944 4840 600C            0000C 10010  1                      LH    R4,@R6+(NDIRPGO-NDIR) Text offset
                                   10011  1
 000948                            10012  1           NEWSTEXT   LOOP  BEGIN
 000948 1FFF/43F5 4000             10019  2                        LC    R15,@R4(R5)         Len byte or FF
 00094E 59F0 75CC/4770_      00D50 10026  2                        IF    (R15,EQ,X'FF'),BEGIN
 000956 4155 4001            00001 10043  3                          LA    R5,@R4+1(R5)
 00095A 5850 5000            00000 10044  3                          L     R5,@R5              Continuation pageno or zero
 00095E 1255/4770 71EC_            10045  3                          IF    (R5,Z),'SETMSG CVBLANKS,1; EXIT NEWSTEXT'  End of text
 000970 1B44                       10083  3                          CLEAR R4                  Reset offset
 000972 47F0 71C4            00948 10087  3                          NEXT  NEWSTEXT
1NEWS     (NEWS2193) (12:49) (15MAR04) SHOW NEWS Command                                                                    Page   15
0Current Usings:  (*,R7) (SHNWA,R8) (CP,R11) (CV,R12)
0Loc    Object Code    Addr1 Addr2  Stmt Lv Lineno    Source Statement           (Hibal 5, Asmedit 3.3)  HLASM R4.0  2004/03/15 12.49
+___    ______ ____    _____ _____  ____ __ ______    ______ _________
0000976                            10090  2                        END
                                   10094  2
 000976 180F                       10095  2                        LR    R0,R15
 000978 59F0 75D0/47D0_      00D54 10096  2                        CEIL  R15,L'SHNLINE
 000984 4115 4001            00001 10115  2                        LA    R1,@R4+1(R5)
 000988 06F0/12FF/4740_            10116  2                        MOVE  R15,SHNLINE,@R1
 000994 4140 4001            00001 10154  2                        LA    R4,@R4+1            Len byte
 000998 1A40                       10155  2                        AR    R4,R0               Text
 00099A 4110 8048/41F0_      00048 10156  2                        TSEG  SHNLINE,(R0),CR
 0009A8 4780 7240            009C4 10183  2                        IF    NZ,BEGIN
 0009AC 9120 BD58/47E0_00D58       10194  3                          IF    CPFVER,'SETMSG CVBLANKS,1; EXIT NEWSTEXT'  Next item
 0009C0 47F0 728A            00A0E 10233  3                          B     NEWSDONE
 0009C4                            10234  2                        END
 0009C4 47F0 71C4            00948 10238  1                      END
 0009C8                            10243                       END
                                   10247
 0009C8 7248/47F0 724A 009C8 008AE 10248                       ELSE  BEGIN
 0009CC 1B00                       10259  1           NEWSSUM    CLEAR R0
 0009CE                            10264                       END
                                   10268
 USING  NDIR,R6                    10269                       WITH  (NDIR,R6),BEGIN
 0009CE D203 8024 6000 00024 00000 10283  1           NEWSNEXT   MVC   SHNDATE,NDIRDATE
                                   10284  1
 0009D4 9140 8023/47E0_00023       10285  1                      IF    SHNFREV,BEGIN
 0009DC 4B60 7636            00DBA 10300  2                        SH    R6,=AL2(L'NDIR)     Previous entry
 0009E0 5960 8028/4740_      00028 10301  2                        IF    (R6,LT,SHNWPG),NEWSDONE  Before first, we're done
 0009E8                            10321  1                      END
                                   10325  1
 0009E8 7268/47F0 7276 009E8 009DA 10326  1                      ELSE  BEGIN
 0009EC 4160 6074            00074 10337  2                        LA    R6,NDIRNEXT         Next entry
 0009F0 D503 7550 6000_00CD4 00000 10338  2                        IF    (NDIRDATE,EQ,=F'-1'),NEWSDONE  After last entry
 0009FA                            10358  1                      END
 0009FA 1200/4740 7286_            10362  1                      IF    (R0,~NEG),'TSEG (R1),(R0),CR'
 000A0A 47F0 7104            00888 10405  1                      B     NEWSLP
 DROP   NDIR,R6                    10406                       END
                                   10414
 000A0E 1BFF                       10415              NEWSDONE CLEAR R15
 000A10 186F                       10420              NEWSEXIT LR    R6,R15              Save return code
                                   10421
 000A12 4140 0008            00008 10422                       LA    R4,CVNWMPG#
 000A16 4150 8028            00028 10423                       LA    R5,SHNWPG           Start of news pageno's
 000A1A 5810 5000/1211_      00000 10424              NFREELP  IF    ('LT R1,@R5',NZ),BEGIN
 000A24 58E0 7564/0DEE       00CE8 10441  1                      ACALL RELNPG              Release news pages
 000A2A 4150 5004            00004 10445  1                      LA    R5,@R5+4
 000A2E 4640 7296            00A1A 10446  1                      BCT   R4,NFREELP
 000A32                            10447                       END
                                   10451
 000A32 94BF BC7D      00C7D       10452                       CLEAR CPFNPT              Reset
                                   10459
 000A36 5810 8024            00024 10460                       L     R1,SHNDATE          Date
 000A3A 12F6                       10461                       LTR   R15,R6              Return code
 000A3C 18D8/58E0 D000_            10462                       XEXIT
 DROP   SHNWA,R8                   10467                       DROP  SHNWA,BR
 DROP   *,R7
1NEWS     (NEWS2193) (12:49) (15MAR04) SHOW NEWS Command                                                                    Page   16
0Current Usings:  (CP,R11) (CV,R12)
0Loc    Object Code    Addr1 Addr2  Stmt Lv Lineno    Source Statement           (Hibal 5, Asmedit 3.3)  HLASM R4.0  2004/03/15 12.49
+___    ______ ____    _____ _____  ____ __ ______    ______ _________
0                                  10482              ¿þþþþþþþþþþþþþþþþþþþþþþþþþþþþþþþþþþþþþþþþþþþþþþþþþþþþþþþþþþþþþþþþþþþþþÜ
                                   10483              Ÿ                                                                     Ÿ
                                   10484              Ÿ  GETNPG -- Routine to get memory for a news page.                   Ÿ
                                   10485              Ÿ                                                                     Ÿ
                                   10486              Ÿ    On exit:                                                         Ÿ
                                   10487              Ÿ      R1 - returned buffer ptr                                       Ÿ
                                   10488              Ÿ                                                                     Ÿ
                                                      ¾þþþþþþþþþþþþþþþþþþþþþþþþþþþþþþþþþþþþþþþþþþþþþþþþþþþþþþþþþþþþþþþþþþþþþ»
0000A48 50E0 D000/9028_      00000 10489              GETNPG   XENTER R2,R8,,LOCAL
 USING  *,R7
 000A62 0700/4510 700A_            10507                       GETMAIN R,LV=CVNWSIZ#+16  Get a news page
 000A72 D203 1000 72F6 00000 00D58 10514                       MVC   @R1(4),=C'NPG '
 000A78 D703 1004 1004 00004 00004 10515                       CLEAR (@R1+4,4)           Clear use count
                                   10522
 000A7E 1821                       10523                       LR    R2,R1
 000A80 4A20 736A            00DCC 10524                       AH    R2,=AL2(CVNWSIZ#+8)  Point to suffix
 000A84 D207 2000 720E 00000 00C70 10525                       MVC   @R2(8),=C'ENDOFNEW'
                                   10526
 000A8A 4110 1008            00008 10527                       LA    R1,@R1+8
 000A8E 18D8/58E0 D000_            10528                       XEXIT
 DROP   *,R7                       10533                       DROP  BR
1NEWS     (NEWS2193) (12:49) (15MAR04) SHOW NEWS Command                                                                    Page   17
0Current Usings:  (CP,R11) (CV,R12)
0Loc    Object Code    Addr1 Addr2  Stmt Lv Lineno    Source Statement           (Hibal 5, Asmedit 3.3)  HLASM R4.0  2004/03/15 12.49
+___    ______ ____    _____ _____  ____ __ ______    ______ _________
0                                  10541              ¿þþþþþþþþþþþþþþþþþþþþþþþþþþþþþþþþþþþþþþþþþþþþþþþþþþþþþþþþþþþþþþþþþþþþþÜ
                                   10542              Ÿ                                                                     Ÿ
                                   10543              Ÿ  FREENPG -- Routine to free memory for a news page.                 Ÿ
                                   10544              Ÿ                                                                     Ÿ
                                   10545              Ÿ    On entry:                                                        Ÿ
                                   10546              Ÿ      R1 - news buffer ptr                                           Ÿ
                                   10547              Ÿ                                                                     Ÿ
                                                      ¾þþþþþþþþþþþþþþþþþþþþþþþþþþþþþþþþþþþþþþþþþþþþþþþþþþþþþþþþþþþþþþþþþþþþþ»
0000A9A 50E0 D000/9028_      00000 10548              FREENPG  XENTER R2,R8,,LOCAL
 USING  *,R7
 000AB4 4B10 731A            00DCE 10566                       SH    R1,=H'8'            Backup to prefix
 000AB8 D503 72A4 1000_00D58 00000 10567                       FAIL  (@R1,NE,'NPG '),FREENPG,'SHOW NEWS logic error.'
 000ADA D203 1000 72A8 00000 00D5C 10595                       MVC   @R1(4),=C'ONPG'     Change id
                                   10596
 000AE0 1821                       10597                       LR    R2,R1
 000AE2 4A20 7318            00DCC 10598                       AH    R2,=AL2(CVNWSIZ#+8)  Point to suffix
 000AE6 D507 71BC 2000_00C70 00000 10599                       FAIL  (@R2,NE,'ENDOFNEW'),FREENPG2,'SHOW NEWS logic error.'
                                   10627
 000B08 47F0 705C/0000_      00B10 10628                       FREEMAIN R,A=(1),LV=CVNWSIZ#+16  Free news page
 000B1A 18D8/58E0 D000_            10636                       XEXIT
 DROP   *,R7                       10641                       DROP  BR
1NEWS     (NEWS2193) (12:49) (15MAR04) SHOW NEWS Command                                                                    Page   18
0Current Usings:  (CP,R11) (CV,R12)
0Loc    Object Code    Addr1 Addr2  Stmt Lv Lineno    Source Statement           (Hibal 5, Asmedit 3.3)  HLASM R4.0  2004/03/15 12.49
+___    ______ ____    _____ _____  ____ __ ______    ______ _________
0                                  10649              ¿þþþþþþþþþþþþþþþþþþþþþþþþþþþþþþþþþþþþþþþþþþþþþþþþþþþþþþþþþþþþþþþþþþþþþÜ
                                   10650              Ÿ                                                                     Ÿ
                                   10651              Ÿ  ALLONPG -- Routine to allocate a news page (i.e., kicks the        Ÿ
                                   10652              Ÿ    use count).                                                      Ÿ
                                   10653              Ÿ                                                                     Ÿ
                                   10654              Ÿ    On entry:                                                        Ÿ
                                   10655              Ÿ      R1 - news buffer ptr                                           Ÿ
                                   10656              Ÿ                                                                     Ÿ
                                                      ¾þþþþþþþþþþþþþþþþþþþþþþþþþþþþþþþþþþþþþþþþþþþþþþþþþþþþþþþþþþþþþþþþþþþþþ»
0000B26 50E0 D000/9028_      00000 10657              ALLONPG  XENTER R2,R8,,LOCAL
 USING  *,R7
 000B40 4B10 728E            00DCE 10675                       SH    R1,=H'8'            Backup to prefix
 000B44 D503 7218 1000_00D58 00000 10676                       FAIL  (@R1,NE,'NPG '),ALLONPG,'SHOW NEWS logic error.'
                                   10704
 000B66 1821                       10705                       LR    R2,R1
 000B68 4A20 728C            00DCC 10706                       AH    R2,=AL2(CVNWSIZ#+8)  Point to suffix
 000B6C D507 7130 2000_00C70 00000 10707                       FAIL  (@R2,NE,'ENDOFNEW'),ALLONPG2,'SHOW NEWS logic error.'
                                   10735
 000B8E 41F0 0001            00001 10736                       LA    R15,1
 000B92 5AF0 1004            00004 10737                       A     R15,@R1+4           Kick use count
 000B96 50F0 1004            00004 10738                       ST    R15,@R1+4
 000B9A 18D8/58E0 D000_            10739                       XEXIT
 DROP   *,R7                       10744                       DROP  BR
1NEWS     (NEWS2193) (12:49) (15MAR04) SHOW NEWS Command                                                                    Page   19
0Current Usings:  (CP,R11) (CV,R12)
0Loc    Object Code    Addr1 Addr2  Stmt Lv Lineno    Source Statement           (Hibal 5, Asmedit 3.3)  HLASM R4.0  2004/03/15 12.49
+___    ______ ____    _____ _____  ____ __ ______    ______ _________
0                                  10752              ¿þþþþþþþþþþþþþþþþþþþþþþþþþþþþþþþþþþþþþþþþþþþþþþþþþþþþþþþþþþþþþþþþþþþþþÜ
                                   10753              Ÿ                                                                     Ÿ
                                   10754              Ÿ  RELNPG -- Routine to release a news page.  This routine will       Ÿ
                                   10755              Ÿ    free the news page if the use count goes to zero.                Ÿ
                                   10756              Ÿ                                                                     Ÿ
                                   10757              Ÿ    On entry:                                                        Ÿ
                                   10758              Ÿ      R1 - news buffer ptr                                           Ÿ
                                   10759              Ÿ                                                                     Ÿ
                                                      ¾þþþþþþþþþþþþþþþþþþþþþþþþþþþþþþþþþþþþþþþþþþþþþþþþþþþþþþþþþþþþþþþþþþþþþ»
0000BA6 50E0 D000/9028_      00000 10760              RELNPG   XENTER R2,R8,,LOCAL
 USING  *,R7
 000BC0 1821                       10778                       LR    R2,R1
 000BC2 4B20 720E            00DCE 10779                       SH    R2,=H'8'            Backup to prefix
 000BC6 D503 7198 2000_00D58 00000 10780                       FAIL  (@R2,NE,'NPG '),RELNPG,'SHOW NEWS logic error.'
 000BE8 58F0 2004            00004 10808                       L     R15,@R2+4           Current use count
 000BEC 06F0                       10809                       DECR  R15                 Decr
 000BEE 50F0 2004            00004 10811                       ST    R15,@R2+4           Save new use count
                                   10812
 000BF2 1832                       10813                       LR    R3,R2
 000BF4 4A30 720C            00DCC 10814                       AH    R3,=AL2(CVNWSIZ#+8)  Point to suffix
 000BF8 D507 70B0 3000_00C70 00000 10815                       FAIL  (@R3,NE,'ENDOFNEW'),ALLONPG3,'SHOW NEWS logic error.'
                                   10843
 000C1A 12FF/4720 7066_            10844                       IF    (R15,NP),'ACALL FREENPG'  Free NPG
 000C26 18D8/58E0 D000_            10867                       XEXIT
 DROP   *,R7                       10872                       DROP  BR
                                   10879
                                   10880                       QLTORG
                                   10965                       VLTORG
 000E50                00E50 00E50 10974                       END   .

1NEWS     (NEWS2193) (12:49) (15MAR04) Relocation Dictionary                                                                Page   20
-   Pos.Id   Rel.Id   Flags    Address                                                       HLASM R4.0  2004/03/15 12.49
0  00000001 00000001    08    0000023D
   00000001 00000001    0C    00000664
   00000001 00000001    0C    0000068C
   00000001 00000001    08    00000AD7
   00000001 00000001    08    00000B05
   00000001 00000001    08    00000B63
   00000001 00000001    08    00000B8B
   00000001 00000001    08    00000BE5
   00000001 00000001    08    00000C17
   00000001 00000001    0C    00000CD0
   00000001 00000001    0C    00000CE0
   00000001 00000001    0C    00000CE4
   00000001 00000001    0C    00000CE8
   00000001 00000001    0C    00000D1C
   00000001 00000002    1C    00000660
   00000001 00000002    1C    00000688
   00000001 00000003    1C    000006B4
   00000001 00000004    1C    000006DC
   00000001 00000005    1C    00000700
   00000001 00000006    1C    00000704
   00000001 00000007    1C    00000C78
   00000001 00000008    1C    00000CA0
   00000001 00000009    1C    00000CA4
   00000001 0000000A    1C    00000CBC
   00000001 0000000B    1C    00000CC0
   00000001 0000000C    1C    00000CC4
   00000001 0000000D    1C    00000CC8
   00000001 0000000E    1C    00000CCC
   00000001 0000000F    1C    00000CD8
   00000001 00000010    1C    00000CDC
   00000001 00000011    1C    00000CF0
   00000001 00000012    1C    00000D14
   00000001 00000013    1C    00000D18
   00000001 00000014    1C    00000D20
   00000001 00000015    1C    00000D24
   00000001 00000016    1C    00000D2C
   00000001 00000017    1C    00000D3C
   00000001 00000018    1C    00000D44
   00000001 00000019    1C    00000D4C

1NEWS     (NEWS2193) (12:49) (15MAR04) Ordinary Symbol and Literal Cross Reference                                          Page   21
-Symbol   Length   Value     Id    R Type   Defn References                                  HLASM R4.0  2004/03/15 12.49
0$$$@R0        1 00000000 FFFFFFFE     J     705  1015
 $$$@R10       1 00000000 FFFFFFF4     J     835  1079
 $$$@R11       1 00000000 FFFFFFF3     J     848  1092
 $$$@R12       1 00000000 FFFFFFF2     J     861  1105
 $$$@R13       1 00000000 FFFFFFF1     J     874  1118
 $$$@R14       1 00000000 FFFFFFF0     J     887  1131
 $$$@R7        1 00000000 FFFFFFF7     J     796  1028
 $$$@R8        1 00000000 FFFFFFF6     J     809  1041   1053
 $$$@R9        1 00000000 FFFFFFF5     J     822  1066
 $$$C1WYLNEWS
               1 00000E3A 00000001     J   10960 10962
 $$$C2WYLNEWS
               1 00000E50 00000001     J   10977 10979
 $$$D0WYLNEWS
               1 00000E21 00000001     J     991  8253   8555   8593  10137
 $$$RCP        1 00000000 FFFFFFEC     J    2454  4714   6188   6188
 $$$RCV        1 00000000 FFFFFFEE     J    1179  2364   2364
 $$$RDEV       1 00000000 FFFFFFEB     J    4668  4713   4713
 $$$RJCB       1 00000000 FFFFFFE8     J    6589  6863   6863
 $$$RKWR       1 00000000 FFFFFFE9     J    6378  6583   6583
 $$$RNDIR      1 00000000 FFFFFFE6     J    6995  7014   7014
 $$$RNEWSWA
               1 00000000 FFFFFFE5     J    7020  7048   7048
 $$$RNSCNCB
               1 00000000 FFFFFFED     J    2375  2448   2448
 $$$RSEGCB
               1 00000000 FFFFFFE7     J    6869  6969   6969
 $$$RSHNWA
               1 00000000 FFFFFFE4     J    9291  9324   9324
 $$$RTTYPE
               1 00000000 FFFFFFEA     J    6199  6300   6300
 $$$SEGCB0
               4 00000050 FFFFFFEC     F    2485  2571   2571
 $$$V01       22 00000E3A 00000001     C   10971 10590  10622  10699  10730  10803  10838
 $$$101F       2 000003EC 00000001     H    8409  8365B
 $$$103F       2 000003FC 00000001     H    8432  8422B
 $$$104F       2 00000412 00000001     H    8460  8451B
 $$$105F       2 00000448 00000001     H    8524  8485B
 $$$107F       2 00000474 00000001     H    8571  8547B
 $$$108        6 00000E28 00000001     I    8561  8553X
 $$$109        6 00000E28 00000001     I    8560  8561   8561
 $$$110F       2 00000480 00000001     H    8609  8585B
 $$$111        6 00000E2E 00000001     I    8599  8591X
 $$$112        6 00000E2E 00000001     I    8598  8599   8599
 $$$113F       2 000004F4 00000001     H    8722  8708B
 $$$114B       1 00000506 00000001     X    8752  8759U
 $$$115F       2 00000576 00000001     H    8832  8816B
 $$$116B       4 0000057A 00000001     I    8844  8860
 $$$116F       2 0000058A 00000001     H    8857  8844B  8859
 $$$117E       2 0000058E 00000001     H    8867  8861
 $$$117F       2 00000612 00000001     H    9024  8863B
 $$$118F       2 000005D2 00000001     H    8935  8919B
 $$$120F       2 00000606 00000001     H    9007  8953B
 $$$121F       2 00000606 00000001     H    9003  8994B
 $$$121S       2 000005EA 00000001     H    8963  9002B
1NEWS     (NEWS2193) (12:49) (15MAR04) Ordinary Symbol and Literal Cross Reference                                          Page   22
 $$$125F       2 0000063A 00000001     H    9058  9044B
 $$$127B       1 00000722 00000001     X    9167  9174U
 $$$128        1 00000050 00000001 A   U    9207  9204   9206
 $$$130B       1 00000754 00000001     X    9234  9241U
 $$$131        1 00000050 00000001 A   U    9270  9267   9269
 $$$132B       1 00000784 00000001     X    9338  9345U
 $$$133F       2 000007A0 00000001     H    9386  9375B
 $$$134F       2 000007B2 00000001     H    9411  9400B
 $$$135F       2 000007D6 00000001     H    9450  9436B
 $$$136F       2 000007F2 00000001     H    9494  9483B
 $$$136S       2 000007E0 00000001     H    9473  9493B
 $$$138F       2 00000804 00000001     H    9518  9507B
 $$$139F       2 00000830 00000001     H    9568  9556B
 $$$139S       2 0000081A 00000001     H    9547  9567B
 $$$141F       2 0000083E 00000001     H    9590  9579B
 $$$142F       2 00000860 00000001     H    9641  9630B
 $$$143B       4 000008AC 00000001     I    9776 10250
 $$$143F       2 000009C8 00000001     H   10246  9776B 10249
 $$$145B       4 000008EE 00000001     I    9867  9970
 $$$145F       2 00000930 00000001     H    9967  9867B  9969
 $$$146F       2 00000924 00000001     H    9945  9905B
 $$$147F       2 00000930 00000001     H    9963  9952B
 $$$148E       2 00000934 00000001     H    9977  9971
 $$$148F       2 00000940 00000001     H   10008  9973B
 $$$149F       2 000009C8 00000001     H   10242 10078B 10228B
 $$$149S       2 00000948 00000001     H   10017 10089B 10241B
 $$$150F       2 00000976 00000001     H   10093 10038B
 $$$151F       2 00000970 00000001     H   10082 10054B
 $$$152F       2 00000984 00000001     H   10114 10105B
 $$$153F       2 00000994 00000001     H   10153 10129B
 $$$154        6 00000E34 00000001     I   10143 10135X
 $$$155        6 00000E34 00000001     I   10142 10143  10143
 $$$156F       2 000009C4 00000001     H   10237 10189B
 $$$157F       2 000009C0 00000001     H   10232 10204B
 $$$158E       2 000009CC 00000001     H   10257 10251
 $$$158F       2 000009CE 00000001     H   10267 10253B
 $$$159B       4 000009D8 00000001     I   10295 10328
 $$$159F       2 000009E8 00000001     H   10324 10295B 10327
 $$$161E       2 000009EC 00000001     H   10335 10329
 $$$161F       2 000009FA 00000001     H   10361 10331B
 $$$163F       2 00000A0A 00000001     H   10404 10371B
 $$$164F       2 00000A32 00000001     H   10450 10436B
 $$$165B       1 00000A62 00000001     X   10498 10505U
 $$$167B       1 00000AB4 00000001     X   10557 10564U
 $$$168F       2 00000ADA 00000001     H   10594 10579B
 $$$169F       2 00000B08 00000001     H   10626 10611B
 $$$170B       1 00000B40 00000001     X   10666 10673U
 $$$171F       2 00000B66 00000001     H   10703 10688B
 $$$172F       2 00000B8E 00000001     H   10734 10719B
 $$$173B       1 00000BC0 00000001     X   10769 10776U
 $$$174F       2 00000BE8 00000001     H   10807 10792B
 $$$175F       2 00000C1A 00000001     H   10842 10827B
 $$$176F       2 00000C26 00000001     H   10866 10853B
 $$$50B        1 00000026 00000001     X    7068  7075U
 $$$51B        4 0000002A 00000001     I    7089  7181
 $$$51F        2 00000064 00000001     H    7178  7089B  7180
 $$$52F        2 0000004E 00000001     H    7155  7108B  7123B
 $$$54E        2 00000068 00000001     H    7188  7182
 $$$54F        2 00000072 00000001     H    7214  7184B  7204B
1NEWS     (NEWS2193) (12:49) (15MAR04) Ordinary Symbol and Literal Cross Reference                                          Page   23
 $$$56F        2 0000008C 00000001     H    7246  7234B
 $$$57F        2 0000009E 00000001     H    7272  7260B
 $$$60F        2 000001E4 00000001     H    7680  7403B  7438B
 $$$61F        2 00000140 00000001     H    7442  7419B
 $$$62F        2 00000178 00000001     H    7526  7512B
 $$$62S        2 00000144 00000001     H    7449  7525B
 $$$63F        2 00000166 00000001     H    7494  7477B
 $$$66F        2 000001E0 00000001     H    7674  7660B
 $$$66S        2 0000017C 00000001     H    7533  7673B
 $$$67B        4 00000182 00000001     I    7556  7627
 $$$67F        2 000001C2 00000001     H    7624  7556B  7626
 $$$68F        2 000001A4 00000001     H    7585  7573B
 $$$68S        2 0000018E 00000001     H    7568  7584B
 $$$70F        2 000001C2 00000001     H    7620  7611B
 $$$70S        2 000001A8 00000001     H    7591  7619B
 $$$73E        2 000001C6 00000001     H    7634  7628
 $$$73F        2 000001D2 00000001     H    7643  7630B
 $$$76F        2 00000204 00000001     H    7716  7702B
 $$$77F        2 00000236 00000001     H    7753  7739B
 $$$78B        1 0000025A 00000001     X    7785  7792U
 $$$79F        2 00000274 00000001     H    7843  7812B  7833B
 $$$86F        2 000002B8 00000001     H    7976  7967B
 $$$90F        2 00000304 00000001     H    8089  8079B
 $$$91F        2 00000360 00000001     H    8192  8100B
 $$$92F        2 0000032A 00000001     H    8124  8112B
 $$$94F        2 0000037C 00000001     H    8231  8222B
 $$$95F        2 00000388 00000001     H    8269  8245B
 $$$96         6 00000E22 00000001     I    8259  8251X
 $$$97         6 00000E22 00000001     I    8258  8259   8259
 $$$99F        2 000003BA 00000001     H    8352  8318B
 $USINTMS      1 00000004 00000001 A   U    6330  6341
 $USINTSY      1 00000008 00000001 A   U    6332  6341
 $USINTUS      1 00000002 00000001 A   U    6328  6341
 $USSTC        1 00000020 00000001 A   U    6336  6341
 @RAR          0 00000000 FFFFFFF0     @    1132  2162   2170B
 @R0           0 00000000 FFFFFFFE     @     706   982U
 @R1           0 00000000 FFFFFFFD     @     719   978U  2168   2169   7372M  7596   8529M  8560M 10142  10514M 10521M
                                                 10521  10527  10578  10595M 10687  10737  10738M
 @R10          0 00000000 FFFFFFF4     @     836   942U
 @R11          0 00000000 FFFFFFF3     @     849   938U
 @R12          0 00000000 FFFFFFF2     @     862   934U
 @R13          0 00000000 FFFFFFF1     @     875   930U  7777M  9330M 10490M 10549M 10658M 10761M
 @R14          0 00000000 FFFFFFF0     @     888   926U
 @R15          0 00000000 FFFFFFEF     @     901   922U  7579   7830   8119   8151U  8155   8156M  8517M  8519M  8531
                                                  8598M  8622M  9939U 10025U
 @R2           0 00000000 FFFFFFFC     @     732   974U  8404   8471   8528   8533   8610   9562  10525M 10610  10718
                                                 10791  10808  10811M
 @R3           0 00000000 FFFFFFFB     @     745   970U  7572   7580   8153   8276U  8619U 10826
 @R4           0 00000000 FFFFFFFA     @     758   966U  8621   9021U 10024  10043  10115  10154
 @R5           0 00000000 FFFFFFF9     @     771   962U  7418   7522U  7670U  7700   7711   7737   7748   7857   7898
                                                  7911   7928   7986   8023   8258   8598   8706   8717   9434   9445
                                                 10044  10434  10445
 @R6           0 00000000 FFFFFFF8     @     784   958U  8737U  9764U 10009  10010  10412U
 @R7           0 00000000 FFFFFFF7     @     797   954U  7760U  8730U  9065U  9196U  9259U 10479U 10538U 10646U 10749U
                                                 10877U
 @R8           0 00000000 FFFFFFF6     @     810   950U  7767U 10473U
 @R9           0 00000000 FFFFFFF5     @     823   946U
 ABSCENT       1 00000000 00000000 A   T    2178  2178
 ALLONPG       4 00000B26 00000001     I   10658 10908
1NEWS     (NEWS2193) (12:49) (15MAR04) Ordinary Symbol and Literal Cross Reference                                          Page   24
 ASCTBL        1 00000000 00000000 A   T    2186  2186
 BLTBL         1 00000000 00000000 A   T    2188  2188
 BR            7 00000007 00000001 A   #    1022  7782M  7792U  9162M  9229M  9335M  9345U 10495M 10505U 10554M 10564U
                                                 10663M 10673U 10766M 10776U
 CHECKIOB      1 00000000 00000000 A   T    2234  2234
 COLLPSH       1 00000000 00000004     T    9127  9127
 COMMAND       1 00000000 00000000 A   T    2174  2174
 COMMSEG       1 00000000 00000000 A   T    2175  2175
 CP         4096 00000000 FFFFFFEC     J    6188  1163U
 CP#XSTK       1 00000010 FFFFFFEC A   U    3920  3921
 CPACFLG       1 000005D5 FFFFFFEC     R    4023  4027   4032   4037   4042   4047
 CPACFLN       4 000005C4 FFFFFFEC     F    4015  4050   4050
 CPAFLAG       1 000005C3 FFFFFFEC     R    3987  3991   3996   4001   4006
 CPANAME       8 00000588 FFFFFFEC     C    3969  4065   4065
 CPAUTFLG      1 000008A9 FFFFFFEC     R    4333  4337   4342   4347   4352
 CPCHFLAG      1 00000B68 FFFFFFEC     R    4960  4964
 CPCMNM        3 00000D24 FFFFFFEC     C    5286  7088
 CPCWA         4 00000CA4 FFFFFFEC     F    5212  7345M  7794
 CPDFLG        1 0000084C FFFFFFEC     R    4220  4224   4229   4234   4239   4244
 CPDFLG2       1 0000084D FFFFFFEC     R    4249  4253   4258   4263   4268   4273   4278
 CPERRID       8 00000886 FFFFFFEC     C    4319  8926M  9031M  9050M
 CPEXFLG       1 00000758 FFFFFFEC     R    4089  4093
 CPEXFLG2      1 00000759 FFFFFFEC     R    4099  4108   4118
 CPEXFLG3      1 0000075A FFFFFFEC     R    4125  4129   4134
 CPEXTFLG      1 00000E28 FFFFFFEC     R    5771  5775   5780   5785   5790   5795   5800
 CPFABORT    128 00000D5A FFFFFFEC         5537  2138M  2138   2143M  2143
 CPFALL        1 00000010 FFFFFFEC A   U    5303  7312
 CPFDUMP     128 00000D55 FFFFFFEC         5402  8815
 CPFERROR     64 00000D5A FFFFFFEC         5542  2137M  2137   2142M  2142
 CPFNPT       64 00000C7D FFFFFFEC         5170  9418M 10458M
 CPFNTEX       1 00000040 FFFFFFEC A   U    5389  5390
 CPFRDEXT      3 00000D89 FFFFFFEC         5725  7320M
 CPFRDRNG      1 00000D88 FFFFFFEC     R    5657  5661   5666   5671   5676   5681   5686   5691
 CPFRDSRC      1 00000D89 FFFFFFEC     R    5696  5705   5715   5725
 CPFUNUM       1 00000080 FFFFFFEC A   U    5388  5390
 CPFVER       32 00000D58 FFFFFFEC         5502  8768M  8828M  9866  10203
 CPFXDFLG      1 000007E4 FFFFFFEC     R    4167  4171   4176
 CPGFLG1       1 00000474 FFFFFFEC     R    3530  3534   3539   3544   3549   3554   3884   3884
 CPGFLG10      1 0000047D FFFFFFEC     R    3767  3771   3776   3781   3786   3791   3796
 CPGFLG11      1 0000047E FFFFFFEC     R    3802  3806   3811
 CPGFLG12      1 0000047F FFFFFFEC     R    3817  3821   3826   3831
 CPGFLG13      1 00000480 FFFFFFEC     R    3837  3841
 CPGFLG14      1 00000481 FFFFFFEC     R    3847  3851   3856   3861   3866   3871
 CPGFLG4       1 00000477 FFFFFFEC     R    3583  3594   3603   3612   3621   3630
 CPGFLG5       1 00000478 FFFFFFEC     R    3636  3640   3645   3650   3655   3660   3665   3670   3675
 CPGFLG6       1 00000479 FFFFFFEC     R    3681  3685   3690   3695
 CPGFLG7       1 0000047A FFFFFFEC     R    3701  3705   3710   3715   3720
 CPGFLG8       1 0000047B FFFFFFEC     R    3726  3730   3735   3740   3745
 CPGFLG9       1 0000047C FFFFFFEC     R    3751  3755   3761
 CPINIT        1 00000174 FFFFFFEC     U    2700  6157
 CPJESFLG      1 000009E1 FFFFFFEC     R    4432  4436   4441   4446   4451   4456   4461   4466   4471
 CPJESFLY      1 000009FD FFFFFFEC     R    4482  4486   4491   4496
 CPJESHFL      1 000009E0 FFFFFFEC     R    4417  4421   4426   4505   4505
 CPLCNO        4 0000073C FFFFFFEC     F    4074  8664
 CPLFLG1       1 00000D50 FFFFFFEC     R    5300  7314M
 CPLFLG10      1 00000D59 FFFFFFEC     R    5523  5527
 CPLFLG11      1 00000D5A FFFFFFEC     R    5533  5537   5542   5547   5552
 CPLFLG12      1 00000D5B FFFFFFEC     R    5558  5562
 CPLFLG14      1 00000D5C FFFFFFEC     R    5568  5572   5577   5582   5587   5592
1NEWS     (NEWS2193) (12:49) (15MAR04) Ordinary Symbol and Literal Cross Reference                                          Page   25
 CPLFLG6       1 00000D55 FFFFFFEC     R    5398  5402   5407   5412   5417   5422   5427
 CPLFLG7       1 00000D56 FFFFFFEC     R    5433  5437   5442   5447   5452   5457
 CPLFLG8       1 00000D57 FFFFFFEC     R    5463  5467   5472   5477   5482
 CPLFLG9       1 00000D58 FFFFFFEC     R    5488  5492   5497   5502   5507   5512   5517
 CPLOCALZ      1 00000C48 FFFFFFEC     U    4990  6151   6151
 CPMFLG        1 0000084F FFFFFFEC     R    4287  4291
 CPMODFLG      1 00000C78 FFFFFFEC     R    5018  5022   5027   5032   5037   5042
 CPNAMELN      1 00000010 FFFFFFEC A   U    3913  4160
 CPNEDPFX     10 00000E29 FFFFFFEC     X    5804  5805   5806
 CPNSCANP      4 0000008C FFFFFFEC     A    2573  7288   8771   8778   8794
 CPNUMFLG      1 00000C79 FFFFFFEC     R    5048  5060
 CPORVCMD      1 00000140 FFFFFFEC     R    2582  2586   2591   2596   2601   2606   2611   2616   2621   2626   2626
                                                  2677   2677
 CPORVFLG      1 00000149 FFFFFFEC     R    2633  2637   2642   2647   2652   2657   2662   2667   2672
 CPORVWF       1 00000150 FFFFFFEC     R    2685  2689
 CPOSCANX      4 00000CA8 FFFFFFEC     F    5217  5284   5284
 CPR          11 0000000B 00000001 A   #    1086  1163U
 CPRACBAD     16 000001FC FFFFFFEC         2751  2785   2785   2786   2786
 CPRACF1       1 000001FC FFFFFFEC     R    2732  2736   2741   2746   2751   2756   2761   2766   2771   2787
 CPRACPSW     32 000001FC FFFFFFEC         2746  2784   2784   2786   2786
 CPRACUND     64 000001FC FFFFFFEC         2741  2784   2784   2785   2785
 CPRCVCUR      4 00000730 FFFFFFEC     A    4068  4070   4070
 CPRFLG        1 000008AA FFFFFFEC     R    4358  4362   4367   4372   4377   4382   4387
 CPS         254 00000344 FFFFFFEC     X    3502  3505   3506   3508   3508
 CPSACCT       5 000003B4 FFFFFFEC     C    3101  3264   3264
 CPSAMCOD      1 00000A22 FFFFFFEC     R    4554  4562   4572   4582   4591   4600   4609   4619   4628   4637
 CPSAMFLG      1 00000A21 FFFFFFEC     R    4514  4518   4523   4528   4533   4538   4543   4548   4659   4659
 CPSCNFLG      1 00000CD0 FFFFFFEC     R    5230  5241   5250   5261
 CPSCNF2       1 00000CD1 FFFFFFEC     R    5266  5270
 CPSCNMAX      1 00000014 FFFFFFEC A   U    5282  5283
 CPSCRI        2 00000434 FFFFFFEC     H    3491  3496   3496
 CPSEG        60 00000050 FFFFFFEC     X    2571  7147   7169   8659   8689   9532   9609   9661   9679   9704   9753
                                                  9794   9816   9834   9885  10000  10178  10396
 CPSEGCOD      1 00000050 FFFFFFEC     R    2488  2497   2507   2517   2527   2537   2547   2557
 CPSEGLENF
               4 0000005C FFFFFFEC     A    2563  7107M  7107   7122
 CPSEGMRKF
               4 00000058 FFFFFFEC     A    2562  7122
 CPSFL         1 00000384 FFFFFFEC     R    2839  2843   2848   2853   2858   2863
 CPSFLG        1 000003F8 FFFFFFEC     R    3379  3383   3388   3393   3398   3403   3408   3413   3418
 CPSFLG2       1 000003F9 FFFFFFEC     R    3424  3428   3433   3438
 CPSFL2        1 00000385 FFFFFFEC     R    2869  2873   2878   2883   2888
 CPSFL3        1 00000386 FFFFFFEC     R    2894  2898   2903   2908
 CPSFL4        1 00000387 FFFFFFEC     R    2914  2918   2923   2928
 CPSFL5        1 00000388 FFFFFFEC     R    2934  2938   2943   2948
 CPSGRP        2 000003B7 FFFFFFEC     C    3103  7201   8893
 CPSKAFL       1 000003BF FFFFFFEC     R    3235  3239   3244   3249   3254   3259
 CPSKIFL       1 000003BE FFFFFFEC     R    3190  3194   3199   3204   3209   3214   3219   3224   3229
 CPSOF         1 000001F8 FFFFFFEC     X    2722  2724   2724
 CPSOFLAG      1 00000416 FFFFFFEC     R    3449  3453   3458   3463   3468   3473
 CPSOPST       4 000003C4 FFFFFFEC     F    3269  3498   3498
 CPSPORT       8 00000354 FFFFFFEC     C    2833  2953   2953
 CPSQFLG       1 000003EC FFFFFFEC     R    3298  3302
 CPSSFLG       1 000003BB FFFFFFEC     R    3108  3112   3117   3122   3127   3132   3137
 CPSSTART      4 00000344 FFFFFFEC     F    2825  2829   2829   3265   3265   3370   3370   3502   3502
 CPSSTAT       1 0000038F FFFFFFEC     R    3045  3049   3054   3059   3064   3069   3074   3079
 CPSTACF       1 000003BC FFFFFFEC     R    3143  3147   3152   3157   3162   3167   3172   3177   3182
 CPSTART       4 00000000 FFFFFFEC     C    2461  6155   6159
 CPSTFLAG      1 000003EA FFFFFFEC     R    3276  3280   3285   3290
1NEWS     (NEWS2193) (12:49) (15MAR04) Ordinary Symbol and Literal Cross Reference                                          Page   26
 CPSTYPE       1 0000038C FFFFFFEC     R    2958  2967   2977   2987   2997   3007   3017   3027   3037
 CPSUFLG       1 000003EE FFFFFFEC     R    3313  3317   3322   3327   3332   3337   3342   3347   3352
 CPSUFLG2      1 000003EF FFFFFFEC     R    3358  3362   3367
 CPSUSER       3 000003B4 FFFFFFEC     C    3102  8894
 CPSVPGM       8 0000039C FFFFFFEC     C    3091  3097   3097
 CPS1ST        4 0000038C FFFFFFEC     F    2955  3500   3500
 CPTEMPP#      1 0000005F FFFFFFEC A   U    4408  4410
 CPTRMFL1      1 00000C7A FFFFFFEC     R    5066  5070   5075   5080   5204   5204
 CPTRMFL2      1 00000C7B FFFFFFEC     R    5086  5090   5095   5100   5105   5110   5115
 CPTRMFL3      1 00000C7C FFFFFFEC     R    5121  5125   5130   5135   5140   5145   5150   5155
 CPTRMFL4      1 00000C7D FFFFFFEC     R    5161  5165   5170   5175   5180   5185   5190   5195
 CPUSED        1 00000FBC FFFFFFEC A   U    6155  6156
 CPVACURS      8 00000AF0 FFFFFFEC     D    4933  4934   4935
 CPVCURS       8 00000AE0 FFFFFFEC     D    4927  4928   4929
 CPVFLAG       1 00000AC8 FFFFFFEC     R    4728  4732   4737   4742   4747   4752
 CPVFLAG2      1 00000AC9 FFFFFFEC     R    4758  4762   4767   4772   4777   4782   4787
 CPVFLAG3      1 00000ACA FFFFFFEC     R    4793  4797   4802   4807   4812   4817   4822
 CPVFLAG4      1 00000ACB FFFFFFEC     R    4828  4832   4837   4842
 CPVLFLAG      1 00000ACE FFFFFFEC     R    4897  4901   4906   4911
 CPVMODE       1 00000ACC FFFFFFEC     R    4850  4854   4859   4864   4869   4874   4879   4884   4889
 CPVTWID       2 00000AD0 FFFFFFEC     H    4917  4920   4920
 CPWK1         4 00000D60 FFFFFFEC     F    5601  5616   5639
 CPWK2         4 00000D64 FFFFFFEC     F    5602  5617   5631
 CPWK3         4 00000D68 FFFFFFEC     F    5603  5618   5632
 CPWK4         4 00000D6C FFFFFFEC     F    5604  5619   5633
 CPWK5         4 00000D70 FFFFFFEC     F    5605  5621   5626   5634
 CPWK6         4 00000D74 FFFFFFEC     F    5606  5622   5627   5635   5642   5644
 CPWK7         4 00000D78 FFFFFFEC     F    5607  5620   5636
 CPXFLAG       1 000007FD FFFFFFEC     R    4195  4199
 CPXSTATE      4 000007F8 FFFFFFEC     F    4189  4202   4202
 CV         4016 00000000 FFFFFFEE     J    2364  1172U
 CVABSRTN      4 0000088C FFFFFFEE     V    2178  2153
 CVABTMSG      4 000007CC FFFFFFEE     I    2138  8931B
 CVBLANKS    235 000004D8 FFFFFFEE     C    1958  8210  10068  10218
 CVBRMSK       1 00000751 FFFFFFEE     X    2094  2095   2096
 CVCFLAG       1 00000A00 FFFFFFEE     R    2259  2263   2268   2273   2278   2283
 CVCHKST       8 000009F0 FFFFFFEE     D    2249  2339   2339
 CVCHKST2      8 00000E28 FFFFFFEE     D    2342  2345   2345
 CVCOMRTN      4 0000087C FFFFFFEE     V    2174  2144
 CVCURJCB      4 000001C8 FFFFFFEE     A    1443  9910
 CVDBGFLG      1 000004CC FFFFFFEE     R    1948  1952
 CVENT         4 0000074C FFFFFFEE     I    2092  7065B  7782B  8749B  9162B  9229B  9335B 10495B 10554B 10663B 10766B
 CVENTBR       2 00000750 FFFFFFEE     I    2093  2094
 CVERROR       4 000007D6 FFFFFFEE     I    2142  2158B  8723B
 CVEXIRTN      4 0000077C FFFFFFEE     V    2122  2118
 CVEXNO        1 00000000 00000013     T   10921 10921
 CVFCHRKBPR
               8 000004C9 FFFFFFEE         1863  1879   1879
 CVFCHRKBSE
               4 000004C9 FFFFFFEE         1868  1879   1879
 CVFCHRKCPR
               2 000004C9 FFFFFFEE         1885  1901   1901
 CVFCHRKCSE
               1 000004C9 FFFFFFEE         1890  1901   1901
 CVFCHRUBPR
             128 000004C9 FFFFFFEE         1819  1835   1835
 CVFCHRUBSE
              64 000004C9 FFFFFFEE         1824  1835   1835
 CVFCHRUCPR
1NEWS     (NEWS2193) (12:49) (15MAR04) Ordinary Symbol and Literal Cross Reference                                          Page   27
              32 000004C9 FFFFFFEE         1841  1857   1857
 CVFCHRUCSE
              16 000004C9 FFFFFFEE         1846  1857   1857
 CVFL          1 000004C4 FFFFFFEE     R    1615  1619   1624   1629   1634   1639   1644   1649   1654
 CVFL2         1 000004C5 FFFFFFEE     R    1660  1664   1669   1674   1679   1684   1689   1694   1699
 CVFL3         1 000004C6 FFFFFFEE     R    1705  1709   1714   1719   1724   1729   1734   1739   1744
 CVFL4         1 000004C7 FFFFFFEE     R    1750  1754   1759   1764   1769   1774   1779   1784
 CVFL5         1 000004C8 FFFFFFEE     R    1790  1794   1799   1804   1809
 CVFL6         1 000004C9 FFFFFFEE     R    1815  1819   1824   1836   1841   1846   1858   1863   1868   1880   1885
                                                  1890   1902
 CVFRLG       16 000004C4 FFFFFFEE         1634  7233
 CVHEAP#       1 00000200 FFFFFFEE A   U    1521  1522
 CVINVRTN      4 00000888 FFFFFFEE     V    2177  2147
 CVJESFLG      1 000004CA FFFFFFEE     R    1908  1912
 CVLNKRGS      4 00000780 FFFFFFEE     F    2124  2099M  2125  10587M 10619M 10696M 10727M 10800M 10835M
 CVLNKRTN      4 000007B0 FFFFFFEE     U    2125  2114M
 CVLOCK1       1 00000088 FFFFFFEE     R    1266  1270   1275
 CVLOCK2       1 00000089 FFFFFFEE     R    1280  1284
 CVLOCK3       1 0000008A FFFFFFEE     R    1289  1293
 CVLOCK4       1 0000008B FFFFFFEE     R    1298  1302
 CVLOGMOD      1 00000068 FFFFFFEE     R    1253  1257
 CVMACH        1 00000067 FFFFFFEE     R    1213  1217   1222   1227   1232   1237   1242   1247
 CVMACHID      8 0000000C FFFFFFEE     C    1193  7259
 CVMILRTN      4 00000884 FFFFFFEE     V    2176  2156
 CVNEXT        4 000007DE FFFFFFEE     I    2144  7174B  7361B  7754B  9025B
 CVNOARTN      4 00000890 FFFFFFEE     V    2179  2150
 CVNWDATE      4 00000608 FFFFFFEE     F    1981  1985   1985   9399
 CVNWINFO     36 00000608 FFFFFFEE     X    1985  7721   7722M  7723
 CVNWMPG#      1 00000008 FFFFFFEE A   U    1983  1984   7032   7688   7725   8695   9315   9423   9452  10422  10916
                                                 10919
 CVNWPG        4 0000060C FFFFFFEE     F    1984  9374M  9374   9422   9452
 CVNWSIZ#      1 00003FF0 FFFFFFEE A   U    1982 10511  10632  10914  10918  10949
 CVNXTMSG      4 000007D0 FFFFFFEE     I    2139  9059B
 CVPFXRTN      1 00000000 00000000 A   T    2122  2122
 CVPGFLAG      1 00000A01 FFFFFFEE     R    2289  2293   2298   2303
 CVPIOSZ       1 00004F80 FFFFFFEE A   U    1352  1354
 CVPPDBQH      4 0000009C FFFFFFEE     A    1310  1311
 CVPSFNO       1 000003E9 FFFFFFEE A   N    1474  1476
 CVPSLNO       1 000007CF FFFFFFEE A   N    1475  1476
 CVPXSZ        1 00000008 FFFFFFEE A   U    1353  1354
 CVR          12 0000000C 00000001 A   #    1099  1172U
 CVRKEY        1 00000008 FFFFFFEE A   U    2047  2048
 CVSEGRTN      4 00000880 FFFFFFEE     V    2175  2139
 CVSTACK#      1 00000080 FFFFFFEE A   U    1513  1514
 CVSTART       4 00000000 FFFFFFEE     C    1186  2357
 CVTRC         4 00000768 FFFFFFEE     I    2114  2100B 10588B 10620B 10697B 10728B 10801B 10836B
 CVTRCRTN      4 00000778 FFFFFFEE     V    2121  2115
 CVUSFNO       1 00000001 FFFFFFEE A   N    1481  1483
 CVUSLNO       1 000003E7 FFFFFFEE A   N    1482  1483
 CVVOL#        1 00000005 FFFFFFEE A   U    2332  2333
 CVWTOFLG      1 000004CB FFFFFFEE     R    1918  1922   1927   1932   1937   1942
 DEBUGSG       1 00000000 00000000 A   T    2075  2075
 DESPOT        1 00000000 0000000F     T   10905 10905
 DESRTRN       1 00000080 FFFFFFEC A   U    6164  7771
 DEV          12 00000000 FFFFFFEB     J    4713  4721
 DEVMAX#       1 00000002 FFFFFFEC A   U    4664  4721
 DEVTYPE       1 00000001 FFFFFFEB     R    4681  4690   4700
 DOFNAME       1 00000000 0000000A     T   10898 10898
 DOTTBL        1 00000000 00000000 A   T    2191  2191
1NEWS     (NEWS2193) (12:49) (15MAR04) Ordinary Symbol and Literal Cross Reference                                          Page   28
 DRENCFLG      1 00000F9F FFFFFFEC     R    6119  6123   6128   6133   6138   6143
 DRENPROT      1 00000F9E FFFFFFEC     R    6106  6114
 DSNON        40 00000E90 FFFFFFEC     C    5839  5840
 DSNWADSN     44 00000E5C FFFFFFEC     C    5826  5827   5828   5829   5838   5846   6077   6083   6085   6091   6094
                                                  6096   6099   6148
 DSNWAF4       1 00000F37 FFFFFFEC     R    5894  5898   5903   5908   5913   5918   5923   5928   5933
 DSNWAF5       1 00000F38 FFFFFFEC     R    5939  5943   5948   5953   5958   5963   5968   5973   5978
 DSNWAF6       1 00000F39 FFFFFFEC     R    5984  5988   5993   5998   6003   6008   6013   6018   6023
 DSNWAF7       1 00000F3A FFFFFFEC     R    6029  6033   6038   6043   6048
 DSNXG         1 00000004 FFFFFFEC A   U    5831  5833
 DSNXGL        1 00000003 FFFFFFEC A   U    5832  5833
 DSNXU         1 00000007 FFFFFFEC A   U    5833  5835
 DSNXUL        1 00000004 FFFFFFEC A   U    5834  5835
 DSSIZ         1 00000108 FFFFFFEC A   U    6077  6085   6094   6099
 DTB           1 00000000 00000011     T   10911 10911
 EBCTBL        1 00000000 00000000 A   T    2187  2187
 EBCTBL7       1 00000000 00000000 A   T    2190  2190
 ECBLIST       1 00000000 00000000 A   T    2050  2050
 EPARTBL       1 00000000 00000000 A   T    2182  2182
 EXIT0         1 00000000 00000009     T   10896 10896
 EXTCLOSE      1 00000000 00000010     T   10906 10906
 EXTOPEN       1 00000000 0000000E     T   10902 10902
 FNAMEFIN      1 00000000 0000000C     T   10900 10900
 FNAMOPTS      1 00000000 0000000B     T   10899 10899
 FREENPG       4 00000A9A 00000001     I   10549 10907
 FSR           0 00000000 00000001 A   #    1009  9157   9189M  9204M  9224   9252M  9267M
 GETNPG        4 00000A48 00000001     I   10490 10903
 HIBAL         1 00000000 FFFFFFFF     J     691   707    720    733    746    759    772    785    798    811    824
                                                   837    850    863    876    889    902
 INVALID       1 00000000 00000000 A   T    2177  2177
 JCB         208 00000000 FFFFFFE8     J    6863  9920U
 JCBAFL        1 00000062 FFFFFFE8     R    6708  6712   6717   6722   6727   6732   6737   6742   6747
 JCBBFL        1 00000063 FFFFFFE8     R    6753  6757   6762   6767   6772   6777   6782   6787
 JCBBILLX      8 00000088 FFFFFFE8     D    6838  6846   6846
 JCBFATTN      2 00000062 FFFFFFE8         6742  9932M
 JCBRSCF1      1 00000064 FFFFFFE8     R    6793  6797   6802   6807
 JCBSFLG1      1 00000065 FFFFFFE8     R    6813  6817   6822
 JCBWFL        1 00000060 FFFFFFE8     R    6637  6641   6646   6651   6656   6661   6666   6671   6676   6704
 JCBWWFL       1 00000061 FFFFFFE8     R    6682  6686   6691   6696   6701
 KWIO          1 00000000 00000016     T   10926 10926
 KWR         504 00000000 FFFFFFE9     J    6583  8871   8881U  8891M  8891   8892M  8892   9014M  9014   9015M  9015
 KWRCRD        1 00000040 FFFFFFE9 A   U    6575  8903
 KWRCWR        1 00000080 FFFFFFE9 A   U    6574  8974
 KWRDSTRT      1 00000005 FFFFFFE9     U    6394  6556   6556
 KWRGRP        2 00000003 FFFFFFE9     C    6391  8893M
 KWRHFCK       1 00000080 FFFFFFE9 A   U    6561  8916
 KWRHFL        1 000001F4 FFFFFFE9     X    6560  8918   8993
 KWRHFUOK      1 00000040 FFFFFFE9 A   U    6562  8991
 KWRNEWDT      4 000000B4 FFFFFFE9     F    6536  8937   8952   8965M
 KWRSTART      4 00000000 FFFFFFE9     F    6389  6570
 KWRUSER       3 00000000 FFFFFFE9     C    6390  6392   6392   8894M
 LOWTBL        1 00000000 00000000 A   T    2185  2185
 LRTRIM        1 00000000 00000018     T   10932 10932
 LSR           8 00000008 00000001 A   #    1047  9157   9204M  9224   9267M
 LXCATRTN      1 00000060 FFFFFFEC A   U    6167  7771
 MALL          1 00000000 00000005     T    9141  9141
 MILERR        1 00000000 00000000 A   T    2176  2176
 MTOKEN        1 00000000 00000002     T    9081  9081   9096
 NALLOCLP      2 000007BE 00000001     H    9426  9446B
1NEWS     (NEWS2193) (12:49) (15MAR04) Ordinary Symbol and Literal Cross Reference                                          Page   29
 NBLTBL        1 00000000 00000000 A   T    2189  2189
 NDIR        116 00000000 FFFFFFE6     J    7014  7041   7460U  7487   7487M  7488   7488   7489   7489M  7544U  7555
                                                  7572   7580   8105M  8105   8138U  8144M  8153   8155   8204U  8288U
                                                  9463U 10009  10010  10278U 10914  10944
 NDIRDATE      4 00000000 FFFFFFE6     F    7001  7464   7511   7593M  7594   7637M  7638   7659   8209M  8300M  8300
                                                  9482   9506   9555  10283  10349
 NDIRFUL       4 000004AE 00000001     I    8637  8171B
 NDIRLINS      2 00000004 FFFFFFE6     H    7002  8611   8612M  9732
 NDIRNEXT      4 00000074 FFFFFFE6     F    7007  7476   7487   7488M  7489   7495   7555   7562   7595   7639   9489
                                                  9563  10337
 NDIRPG        4 00000008 FFFFFFE6     F    7003  8105M  8105   8333M  8333   8421M  8421   8428M 10009
 NDIRPGO       2 0000000C FFFFFFE6     H    7004 10010
 NDIRTITL    100 00000010 FFFFFFE6     C    7006  8210M  8258M  9710   9710   9726  10915
 NERRLINE      2 000004B6 00000001     H    8647  8633B
 NEWSDATE      4 00000004 FFFFFFE5     F    7031  7033   7033   7676M
 NEWSDISP      4 0000076A 00000001     I    9330  8852B  8939B  9329
 NEWSDONE      2 00000A0E 00000001     H   10417  9941B 10233B 10315B 10352B
 NEWSEXIT      2 00000A10 00000001     I   10420  9382B  9407B  9514B
 NEWSINFO     36 00000004 FFFFFFE5     X    7033  7435M  7435   7721   7721M  7722   7722   7723   7723M
 NEWSLP        6 00000888 00000001     I    9710 10405B
 NEWSNDIR    116 00000036 FFFFFFE5     X    7041  8072   8099M  8099   8105M  8105   8144   8183M  8183   8194   8280
 NEWSNEXT      6 000009CE 00000001     I   10283  9959B
 NEWSNLC       2 00000032 FFFFFFE5     H    7039  8188M  8188   8346   8347M  8434   8441M  8441
 NEWSNPG       2 00000028 FFFFFFE5     H    7035  7374M  8370   8405M  8490
 NEWSPG        4 00000008 FFFFFFE5     F    7032  7373M  7401   7444   7528   7689   7726   8126   8395M  8694
 NEWSPGO       2 0000002A FFFFFFE5     H    7036  8127   8154M
 NEWSRTN       4 00000240 00000001     I    7777  7390B  7771
 NEWSSDC       2 00000034 FFFFFFE5     H    7040  8069   8090M
 NEWSSUM       2 000009CC 00000001     H   10261  9851B
 NEWSTX        4 0000002C FFFFFFE5     F    7037  8364M  8364   8396M  8428   8516   8526
 NEWSTXO       2 00000030 FFFFFFE5     H    7038  8118   8120M  8403M  8403   8472   8515   8527   8530   8532M
 NEWSWA      170 00000000 FFFFFFE5     J    7048  7328   7336U  7344M  7344   7802U
 NEWSWRK       1 0000023C 00000001     R    7771  7376
 NEWS2193      1 00000000 00000001     R     999   997
 NFREELP       2 00000A1A 00000001     H   10426 10446B
 NMORSPA       4 000004A2 00000001     I    8631  8385B  8505B
 NOACTION      1 00000000 00000000 A   T    2179  2179
 NOTVALID      1 00000000 00000006     T    9142  9142
 NPARTBL       1 00000000 00000000 A   T    2183  2183
 NRTNELOP      2 000004DC 00000001     H    8698  8718B
 NRTNEXIT      2 00000496 00000001     I    8624  8278B  8303B  8336B  8348B
 NRTNFLOP      2 0000021E 00000001     H    7729  7749B
 NRTNRTRY      4 000003D6 00000001     I    8395  8520B
 NRTNSLOP      2 000001EC 00000001     H    7692  7712B
 NRTNSORT      4 00000140 00000001     I    7444  7490B
 NRTNTEXT      4 0000038C 00000001     I    8280  7860B  7880B  7901B  7914B  7949B  8007B  8044B  8063B
 NRTNTLP       2 00000266 00000001     I    7819  7839B
 NSCAN         1 00000000 00000014     T   10923 10923
 NSCNCB      176 00000000 FFFFFFED     J    2448  2574   7289M  7290M  8779   8780   8781   8784M  8785M  8787M  8797M
                                                  8798M  8799M
 NSCNFLGS      1 00000008 FFFFFFED     R    2385  2389   2394
 NSCNKWS       4 00000028 FFFFFFED     A    2434  8779   8787M  8797M
 NSCNLEN       4 00000004 FFFFFFED     F    2382  7290M
 NSCNLOC       4 00000000 FFFFFFED     A    2381  7289M
 NSCNSKIP      4 00000024 FFFFFFED     A    2433  8780   8784M  8798M
 NSCNSTOP      4 00000020 FFFFFFED     A    2432  8781   8785M  8799M
 NSCNTYPE      1 00000018 FFFFFFED     R    2403  2407   2412   2417   2422   2427
 RAR          14 0000000E 00000001 A   #    1125  2114   2115M  2116B  2118M  2119B  2139M  2140B  2144M  2145B  2147M
                                                  2148B  2150M  2151B  2153M  2154B  2156M  2157M  2157B  2163   7150M
1NEWS     (NEWS2193) (12:49) (15MAR04) Ordinary Symbol and Literal Cross Reference                                          Page   30
                                                  7151M  7151B  7172M  7173M  7173B  7219M  7220M  7220B  7298M  7299M
                                                  7299B  7302M  7303M  7303B  7306M  7307M  7307B  7323M  7324M  7324B
                                                  7348M  7349M  7349B  7370M  7371M  7371B  7379M  7380M  7380B  7383M
                                                  7384M  7384B  7390M  7427M  7428M  7428B  7709M  7710M  7710B  7746M
                                                  7747M  7747B  7945M  7946M  7946B  8003M  8004M  8004B  8040M  8041M
                                                  8041B  8393M  8394M  8394B  8513M  8514M  8514B  8662M  8663M  8663B
                                                  8667M  8668M  8668B  8692M  8693M  8693B  8715M  8716M  8716B  8790M
                                                  8791M  8791B  8804M  8805M  8805B  8852M  8906M  8907M  8907B  8939M
                                                  8977M  8978M  8978B  9154   9206M  9209B  9221   9269M  9272B  9443M
                                                  9444M  9444B  9535M  9536M  9536B  9612M  9613M  9613B  9664M  9665M
                                                  9665B  9682M  9683M  9683B  9707M  9708M  9708B  9729M  9730M  9730B
                                                  9756M  9757M  9757B  9797M  9798M  9798B  9819M  9820M  9820B  9837M
                                                  9838M  9838B  9888M  9889M  9889B  9897M  9898M  9898B 10003M 10004M
                                                 10004B 10181M 10182M 10182B 10399M 10400M 10400B 10443M 10444M 10444B
                                                 10861M 10862M 10862B
 RELNPG        4 00000BA6 00000001     I   10761 10909
 R0            0 00000000 FFFFFFFF A   #     699  2099   2168M  7139M  7139   7161M  7216M  7242M  7268M  7290   7388M
                                                  7811   7839M  7845   7935M  7993M  8030M  8345M  8346M  8347   8632M
                                                  8638M  8664M  8775M  8775   8784   8785   8849M  8930M  8936M  9030M
                                                  9054M  9356   9524M  9601M  9601   9617M  9637M  9671M  9696M  9696
                                                  9726M  9786M  9808M  9808   9826M  9877M  9893M  9894M  9894   9958M
                                                  9992M  9992  10075M 10095M 10155  10225M 10263M 10263  10370M 10370
                                                 10587  10619  10696  10727  10800  10835
 R1            1 00000001 FFFFFFFF A   #     712  2162M  2163M  2169M  7160M  7241M  7267M  7289   7373   7387M  7424M
                                                  7586M  7593   7596M  7610   7700M  7701M  7701   7737M  7738M  7738
                                                  7817   7844   7928M  7986M  8023M  8395   8396   8519   8526M  8527M
                                                  8533   8631M  8637M  8706M  8707M  8707   8771M  8784   8785   8787
                                                  8850M  8902M  8929M  8937M  8952   8958   8973M  9029M  9053M  9356
                                                  9434M  9435M  9435   9523M  9597M  9616M  9670M  9719M  9785M  9804M
                                                  9825M  9876M  9892M 10068M 10115M 10166M 10218M 10434M 10435M 10435
                                                 10460M 10523  10527M 10566M 10597  10675M 10705  10778
 R12          12 0000000C FFFFFFFF A   #     855  2125
 R13          13 0000000D FFFFFFFF A   #     868  7064   8748   8779   8780   8781   8797   8798   8799
 R14          14 0000000E FFFFFFFF A   #     881  2100M  7288M  7289   7290   7294M  7294   7777   8778M  8779   8780
                                                  8781   8786M  8787   8794M  8797   8798   8799   9330  10490  10549
                                                 10588M 10620M 10658  10697M 10728M 10761  10801M 10836M
 R15          15 0000000F FFFFFFFF A   #     894  2099   7147M  7169M  7358M  7358   7376M  7561M  7579M  7610   7811M
                                                  7817M  7819M  7955   8013   8050   8069M  8071M  8085M  8090   8091
                                                  8118M  8119M  8120   8126M  8128M  8138U  8155M  8471M  8472M  8484
                                                  8515M  8516M  8528M  8529   8530M  8531M  8532   8533M  8621M  8621
                                                  8659M  8689M  8800M  8800   9043   9208M  9208   9271M  9271   9381M
                                                  9406M  9513M  9532M  9609M  9661M  9679M  9704M  9753M  9794M  9816M
                                                  9834M  9885M  9910M  9920U 10000M 10024M 10037  10095  10098  10110M
                                                 10119M 10128M 10128  10135  10178M 10396M 10419M 10419  10420  10461M
                                                 10587  10619  10696  10727  10736M 10737M 10738  10800  10808M 10810M
                                                 10811  10835  10852M 10852
 R2            2 00000002 FFFFFFFF A   #     725  7779   7781   7781   7781   7955M  7966   7972M  7977M  8013M  8014M
                                                  8050M  8051M  8060M  8060   8072   8091M  8209   8370M  8382   8395
                                                  8404M  8405   8434M  8444   8456M  8490M  8502   8537M  8546M  8546
                                                  8553   8610M  8611M  8612   9298   9332   9541M  9541   9562M  9597
                                                  9629  10492  10494  10494  10494  10523M 10524M 10551  10553  10553
                                                 10553  10597M 10598M 10660  10662  10662  10662  10705M 10706M 10763
                                                 10765  10765  10765  10778M 10779M 10813
 R3            3 00000003 FFFFFFFF A   #     738  7562M  7580M  8127M  8128   8153M  8154   8168   8194M  8204U  8280M
                                                  8288U 10813M 10814M
 R4            4 00000004 FFFFFFFF A   #     751  7464M  7476   7594M  7638M  7676   7688M  7712M  7725M  7749M  7845M
                                                  7877   8212M  8215   8227M  8235M  8244M  8244   8251   8317M  8317
                                                  8471   8528   8575M  8584M  8584   8591   8695M  8718M  8870M  8881U
                                                  9423M  9446M 10010M 10086M 10086  10154M 10155M 10422M 10446M
1NEWS     (NEWS2193) (12:49) (15MAR04) Ordinary Symbol and Literal Cross Reference                                          Page   31
 R5            5 00000005 FFFFFFFF A   #     764  7401M  7402M  7402   7424   7444M  7460U  7495M  7528M  7544U  7595M
                                                  7639M  7689M  7711M  7726M  7748M  7844M  8694M  8717M  8762M  8849
                                                  8936   9187M  9189   9189M  9250M  9252   9252M  9422M  9445M  9537M
                                                  9585M  9586M  9591   9732M  9775M  9775   9804  10009M 10024  10043M
                                                 10043  10044M 10053M 10053  10115  10423M 10445M
 R6            6 00000006 FFFFFFFF A   #     777  7794M  7802U  8761M  8843   8850   8958M  8965   9186M  9186   9189
                                                  9453M  9463U  9489M  9537   9563M  9585   9591M 10278U 10300M 10312
                                                 10337M 10420M 10461
 R7            7 00000007 FFFFFFFF A   #     790  2092M  2092   2093B  2105B  7065M  7075U  8749M  8759U
 R8            8 00000008 FFFFFFFF A   #     803  7064M  7779   7780M  7781   7781   7781   8748M  9298   9332   9333M
                                                 10492  10493M 10494  10494  10494  10551  10552M 10553  10553  10553
                                                 10660  10661M 10662  10662  10662  10763  10764M 10765  10765  10765
 SCANCHK       1 00000000 00000015     T   10924 10924
 SDSNNEWS      1 00000007 00000001 A   U    6312  7216
 SDSNQSZ       1 0000002C FFFFFFEC A   U    6080  6081   6082
 SEG           1 00000000 00000008     T   10895 10895
 SEGB          1 00000000 00000012     T   10920 10920
 SEGCBCOD      1 00000000 FFFFFFE7     R    6880  6889   6899   6909   6919   6929   6939   6949
 SEGCR         1 00000000 00000007     T   10893 10893
 SEGDC         1 00000000 00000017     T   10930 10930
 SETWNEWS      2 00000018 00000001     H    7063  7061
 SHNDATE       4 00000024 FFFFFFE4     F    9314  9399   9482  10283M 10460
 SHNFLAG       1 00000023 FFFFFFE4     R    9302  9306   9311
 SHNFREV      64 00000023 FFFFFFE4         9311  9578  10294  10928
 SHNFSUM     128 00000023 FFFFFFE4         9306  9848  10929
 SHNLINE     235 00000048 FFFFFFE4     C    9317  9710M  9719  10142M 10166  10936
 SHNMODE       3 00000020 FFFFFFE4     X    9299  9356M
 SHNONEWS      4 00000616 00000001     I    9029  8853B  8940B
 SHNWA       307 00000000 FFFFFFE4     J    9324  9334   9354U
 SHNWALL       2 00000708 00000001     H    9148  9082
 SHNWPG        4 00000028 FFFFFFE4     F    9315  9363M  9363   9452M  9453  10312  10423
 SHNWPRT       4 00000640 00000001     F    9070 10922
 SHNWSUM       2 0000073A 00000001     H    9215  9097
 SHOWNEWS      2 000004F8 00000001     H    8747  8745
 SPR          13 0000000D 00000001 A   #    1112  9154   9157   9158   9159M  9159   9200M  9204   9206   9221   9224
                                                  9225   9226M  9226   9263M  9267   9269
 TRC           1 00000000 00000000 A   T    2121  2121
 TTYFLAG       1 00000004 FFFFFFEA     R    6209  6213
 TTYMAX#       1 00000006 FFFFFFEA A   U    6265  6266
 TTYTFLAG      1 00000005 FFFFFFEA     R    6219  6223   6228   6233   6238   6243   6248   6253
 UNPRST        1 00000001 FFFFFFEC A   U    6169  7771
 UPPTBL        1 00000000 00000000 A   T    2184  2184
 VERPSH        1 00000000 00000003     T    9112  9112
 WAR           8 00000008 00000001 A   #    1035  7327M  7336U  7345   9158M  9189   9200   9225M  9252   9263   9354U
 WTOSG         1 00000000 00000000 A   T    2081  2081
 WYLNEWS       1 00000000 00000001     J     990   992   1017   1030   1043   1055   1068   1081   1094   1107   1120
                                                  1133   2365   2449   6189   6301   6584   6864   6970   6975   7015
                                                  7049   8264   8566   8604   9325  10148
 YESRTN        1 00000000 00000019     T   10934 10934
 ZDETRNG       1 00000000 0000000D     T   10901 10901
 =A(-1)        4 00000D28 00000001     A   10925  8843
 =A(ALLONPG)
               4 00000CE4 00000001     A   10908  7709   9443
 =A(CVNWMPG#*2)
               4 00000D10 00000001     A   10919  8502
 =A(CVNWMPG#*4)
               4 00000D04 00000001     A   10916  8382
 =A(CVNWSIZ#)
               4 00000D0C 00000001     A   10918  8484
1NEWS     (NEWS2193) (12:49) (15MAR04) Ordinary Symbol and Literal Cross Reference                                          Page   32
 =A(CVNWSIZ#-L'NDIR-4)
               4 00000CFC 00000001     A   10914  8168
 =A(FREENPG)
               4 00000CE0 00000001     A   10907  7427   8715  10861
 =A(GETNPG)
               4 00000CD0 00000001     A   10903  7370   8393   8513
 =A(L'NDIRTITL)
               4 00000D00 00000001     A   10915  8215   8227
 =A(L'SHNFREV)
               4 00000D34 00000001     A   10928  9187
 =A(L'SHNFSUM)
               4 00000D38 00000001     A   10929  9250
 =A(L'SHNLINE)
               4 00000D54 00000001     A   10936 10098  10110
 =A(RELNPG)
               4 00000CE8 00000001     A   10909  7746  10443
 =A(SHNWPRT)
               4 00000D1C 00000001     A   10922  8786
 =A(X'FF')
               4 00000D50 00000001     A   10935 10037
 =A(1)         4 00000D40 00000001     A   10931  9629
 =A(11)        4 00000CEC 00000001     A   10910  7877
 =A(3)         4 00000D08 00000001     A   10917  8444   8456
 =A(4)         4 00000D30 00000001     A   10927  9043
 =AL2(CVNWSIZ#+8)
               2 00000DCC 00000001     R   10949 10524  10598  10706  10814
 =AL2(L'NDIR)
               2 00000DBA 00000001     R   10944  9586  10300
 =C' items'
               6 00000DBC 00000001     C   10945  9616
 =C' lines'
               6 00000DC4 00000001     C   10947  9825
 =C'$WYL.GA.PUB.RLGNEWS'
              19 00000DD0 00000001     C   10951  7241
 =C'$WYL.GA.PUB.SUH.NEWS'
              20 00000CA8 00000001     C   10897  7267
 =C'*69/99/99 EOF'
              13 00000DE8 00000001     C   10953  7387
 =C'):'        2 00000DC2 00000001     C   10946  9670
 =C';'         1 00000E1F 00000001     C   10958  9785
 =C','         1 00000E20 00000001     C   10959  9876
 =C'read'      4 00000D48 00000001     C   10933  9892
 =C'ENDOFNEW'
               8 00000C70 00000001     C   10892 10525  10610  10718  10826
 =C'GA'        2 00000D60 00000001     C   10939  7201
 =C'News too big, at line'
              21 00000DFD 00000001     C   10956  8631
 =C'No account file.  Request aborted.'
              34 00000D66 00000001     C   10942  8929
 =C'No news.'
               8 00000C68 00000001     C   10891  9053
 =C'No recent news.  Type SHOW NEWS ALL for all items.'
              50 00000D88 00000001     C   10943  9029
 =C'NPG '      4 00000D58 00000001     C   10937 10514  10578  10687  10791
 =C'ONPG'      4 00000D5C 00000001     C   10938 10595
 =C'System News ('
              13 00000E12 00000001     C   10957  9523
 =C'SYSC '
               5 00000DE3 00000001     C   10952  7259
1NEWS     (NEWS2193) (12:49) (15MAR04) Ordinary Symbol and Literal Cross Reference                                          Page   33
 =C'Too many titles, at line'
              24 00000C38 00000001     C   10887  8637
 =C'Type SET WNEWS to reset WYLBUR news.'
              36 00000C7C 00000001     C   10894  7160
 =CL8'NOKWFILE'
               8 00000C50 00000001     C   10888  8926
 =CL8'NONEWNEW'
               8 00000C58 00000001     C   10889  9031
 =CL8'NONEWS'
               8 00000C60 00000001     C   10890  9050
 =F'-1'        4 00000CD4 00000001     F   10904  7372   7418   7511   7659   8156   8761   9506   9555  10349
 =F'100'       4 00000CF8 00000001     F   10913  7972
 =F'70'        4 00000CF4 00000001     F   10912  7966
 =H'-1'        2 00000DCA 00000001     H   10948  9958
 =H'4'         2 00000D62 00000001     H   10940  7374
 =H'8'         2 00000DCE 00000001     H   10950 10566  10675  10779
 =V(CVEXNO)
               4 00000D18 00000001     V   10921  8667
 =V(DESPOT)
               4 00000CD8 00000001     V   10905  7379
 =V(DOFNAME)
               4 00000CBC 00000001     V   10898  7298
 =V(DTB)       4 00000CF0 00000001     V   10911  7945   8003   8040
 =V(EXIT0)
               4 00000CA4 00000001     V   10896  7219
 =V(EXTCLOSE)
               4 00000CDC 00000001     V   10906  7383
 =V(EXTOPEN)
               4 00000CCC 00000001     V   10902  7348
 =V(FNAMEFIN)
               4 00000CC4 00000001     V   10900  7306
 =V(FNAMOPTS)
               4 00000CC0 00000001     V   10899  7302
 =V(KWIO)      4 00000D2C 00000001     V   10926  8906   8977
 =V(LRTRIM)
               4 00000D44 00000001     V   10932  9729
 =V(NSCAN)
               4 00000D20 00000001     V   10923  8790
 =V(SCANCHK)
               4 00000D24 00000001     V   10924  8804
 =V(SEG)       4 00000CA0 00000001     V   10895  7172   9535   9664   9756   9837
 =V(SEGB)      4 00000D14 00000001     V   10920  8662   9797   9888
 =V(SEGCR)
               4 00000C78 00000001     V   10893  7150   8692   9682   9707  10003  10181  10399
 =V(SEGDC)
               4 00000D3C 00000001     V   10930  9612   9819
 =V(YESRTN)
               4 00000D4C 00000001     V   10934  9897
 =V(ZDETRNG)
               4 00000CC8 00000001     V   10901  7323
 =X'FF00000000'
               5 00000DF8 00000001     X   10955  8622
 =X'151515'
               3 00000DF5 00000001     X   10954  8560
 =Y((12+3)/4*4)
               2 00000D64 00000001     Y   10941  8796

1NEWS     (NEWS2193) (12:49) (15MAR04) Macro and Copy Code Source Summary                                                   Page   34
- Con Source                                        Volume    Members                        HLASM R4.0  2004/03/15 12.49
0     PRIMARY INPUT                                           CSECT    DROP     END      EX       LTORG    POP
                                                              PRINT    PUSH     START    USING
   L1 WYL.GS.WYL.WYLBUR.MACLIB                      SYSB05    ABORT    AINFO    BASE     COLINFO  CONTROL  CP
                                                              CPLOCAL  CV       CVLOCAL  FAIL     GENTER   JCB
                                                              KAPUT    KREAD    KWRITE   RG       RTNCODES SCAN
                                                              SCANCB   SCANCHK  SCCBADR  SCINIT   SCKW     SCPOP
                                                              SCPUSH   SYSDSNS  TCCR     TCR      TNUM     TSEG
                                                              TTYPE    VLTORG   XENTER   XEXIT    XSA      XTRACE
   L2 WYL.GG.SYS.MACLIB                             SYSB05    $BC      $BFLKUP  $BV      $CCLKUP  $CRS     $CSS     $L
                                                              $LA      $LBLAD   $LEXP    $LOR     $REL     $RGLKUP
                                                              $USLKUP  ACALL    BEGIN    CEIL     CLEAR    COMPROC
                                                              CSECT    DATA     DECR     DEFCC    DROP     DTEX     ELSE
                                                              END      EX       EXIT     FLAG     FLIP     GEN
                                                              HIBAL    IDENT    IF       INCR     LABEL    LC
                                                              LCALL    LOOP     LS       LT       LTORG    MOVE     NEXT
                                                              PEND     POP      PRETURN  PRINT    PROC     PUSH
                                                              QLTORG   RECORD   REG      REGS     SET      SETMSG
                                                              START    ST4      UNTIL    USING    VCALL    WHILE    WITH
   L3 SYS3.IS.MACLIB                                SYSB05    KWR      SEG      SEGCB    SEGCR    SEGDC    SEGLD    SIB
                                                              SYSDEFN  XPOP     XPUSH
   L4 SYS3.MACLIB                                   SYSB02    UTYPDEFN
   L5 SYS1.MACLIB                                   MVSBR9    FREEMAIN GETMAIN  SYSSTATE

1NEWS     (NEWS2193) (12:49) (15MAR04) Dsect Cross Reference                                                                Page   35
-Dsect     Length      Id       Defn                                                         HLASM R4.0  2004/03/15 12.49
0$$$@R0   00000000  FFFFFFFE     705
 $$$@R1   00000000  FFFFFFFD     718
 $$$@R10  00000000  FFFFFFF4     835
 $$$@R11  00000000  FFFFFFF3     848
 $$$@R12  00000000  FFFFFFF2     861
 $$$@R13  00000000  FFFFFFF1     874
 $$$@R14  00000000  FFFFFFF0     887
 $$$@R15  00000000  FFFFFFEF     900
 $$$@R2   00000000  FFFFFFFC     731
 $$$@R3   00000000  FFFFFFFB     744
 $$$@R4   00000000  FFFFFFFA     757
 $$$@R5   00000000  FFFFFFF9     770
 $$$@R6   00000000  FFFFFFF8     783
 $$$@R7   00000000  FFFFFFF7     796
 $$$@R8   00000000  FFFFFFF6     809
 $$$@R9   00000000  FFFFFFF5     822
 $$$RCP   00001000  FFFFFFEC    2454
 $$$RCV   00000FB0  FFFFFFEE    1179
 $$$RDEV  0000000C  FFFFFFEB    4668
 $$$RJCB  000000D0  FFFFFFE8    6589
 $$$RKWR  000001F8  FFFFFFE9    6378
 $$$RNDIR 00000074  FFFFFFE6    6995
 $$$RNEWSWA
          000000AA  FFFFFFE5    7020
 $$$RNSCNCB
          000000B0  FFFFFFED    2375
 $$$RSEGCB
          0000003C  FFFFFFE7    6869
 $$$RSHNWA
          00000133  FFFFFFE4    9291
 $$$RTTYPE
          0000010C  FFFFFFEA    6199
 HIBAL    00000000  FFFFFFFF     691

1NEWS     (NEWS2193) (12:49) (15MAR04) Using Map                                                                            Page   36
-                                                                                            HLASM R4.0  2004/03/15 12.49
   Stmt  -----Location----- Action ----------------Using----------------- Reg Max    Last  Label and Using Text
           Count      Id           Type          Value    Range     Id        Disp   Stmt
0   922  00000000  FFFFFFFF USING  ORDINARY    00000000 00001000 FFFFFFEF  15 005    8119  @R15,15
    926  00000000  FFFFFFFF USING  ORDINARY    00000000 00001000 FFFFFFF0  14 002    2170  @R14,14
    930  00000000  FFFFFFFF USING  ORDINARY    00000000 00001000 FFFFFFF1  13 000   10761  @R13,13
    934  00000000  FFFFFFFF USING  ORDINARY    00000000 00001000 FFFFFFF2  12 000          @R12,12
    938  00000000  FFFFFFFF USING  ORDINARY    00000000 00001000 FFFFFFF3  11 000          @R11,11
    942  00000000  FFFFFFFF USING  ORDINARY    00000000 00001000 FFFFFFF4  10 000          @R10,10
    946  00000000  FFFFFFFF USING  ORDINARY    00000000 00001000 FFFFFFF5   9 000          @R9,9
    950  00000000  FFFFFFFF USING  ORDINARY    00000000 00001000 FFFFFFF6   8 000          @R8,8
    954  00000000  FFFFFFFF USING  ORDINARY    00000000 00001000 FFFFFFF7   7 000          @R7,7
    958  00000000  FFFFFFFF USING  ORDINARY    00000000 00001000 FFFFFFF8   6 000          @R6,6
    962  00000000  FFFFFFFF USING  ORDINARY    00000000 00001000 FFFFFFF9   5 000    7418  @R5,5
    966  00000000  FFFFFFFF USING  ORDINARY    00000000 00001000 FFFFFFFA   4 001    8621  @R4,4
    970  00000000  FFFFFFFF USING  ORDINARY    00000000 00001000 FFFFFFFB   3 074    8153  @R3,3
    974  00000000  FFFFFFFF USING  ORDINARY    00000000 00001000 FFFFFFFC   2 011   10811  @R2,2
    978  00000000  FFFFFFFF USING  ORDINARY    00000000 00001000 FFFFFFFD   1 008   10738  @R1,1
    982  00000000  FFFFFFFF USING  ORDINARY    00000000 00001000 FFFFFFFE   0 000          @R0,0
    983  00000000  FFFFFFFF DROP                                            0              0
   1163  00000017  00000001 USING  ORDINARY    00000000 00001000 FFFFFFEC  11 D89   10458  CP,CPR
   1172  00000017  00000001 USING  ORDINARY    00000000 00001000 FFFFFFEE  12 890   10836  CV,CVR
   7075  00000026  00000001 USING  ORDINARY    00000026 00001000 00000001   7 DC2    7749  $$$50B,R7
   7336  000000D2  00000001 USING  ORDINARY    00000000 00001000 FFFFFFE5   8 028    7726  NEWSWA,WAR
   7460  00000144  00000001 USING  ORDINARY    00000000 00001000 FFFFFFE6   5 074    7511  NDIR,R5
   7522  00000174  00000001 USING  ORDINARY    00000000 00001000 FFFFFFF9   5 000          @R5,5
   7544  0000017C  00000001 USING  ORDINARY    00000000 00001000 FFFFFFE6   5 074    7659  NDIR,R5
   7670  000001DC  00000001 USING  ORDINARY    00000000 00001000 FFFFFFF9   5 007   10445  @R5,5
   7760  0000023A  00000001 USING  ORDINARY    00000000 00001000 FFFFFFF7   7 000          @R7,7
   7767  0000023A  00000001 USING  ORDINARY    00000000 00001000 FFFFFFF6   8 000          @R8,8
   7792  0000025A  00000001 USING  ORDINARY    0000025A 00001000 00000001   7 BD4    8718  $$$78B,BR
   7802  0000025E  00000001 USING  ORDINARY    00000000 00001000 FFFFFFE5   6 03E    8694  NEWSWA,R6
   8138  00000334  00000001 USING  ORDINARY    00000000 00001000 FFFFFFE6  15 000    8144  NDIR,R15
   8151  0000033A  00000001 USING  ORDINARY    00000000 00001000 FFFFFFEF  15 074    8622  @R15,15
   8204  00000364  00000001 USING  ORDINARY    00000000 00001000 FFFFFFE6   3 010    8258  NDIR,R3
   8276  00000388  00000001 USING  ORDINARY    00000000 00001000 FFFFFFFB   3 000          @R3,3
   8288  00000390  00000001 USING  ORDINARY    00000000 00001000 FFFFFFE6   3 008    8612  NDIR,R3
   8619  0000048C  00000001 USING  ORDINARY    00000000 00001000 FFFFFFFB   3 000   10826  @R3,3
   8730  000004F8  00000001 USING  ORDINARY    00000000 00001000 FFFFFFF7   7 000          @R7,7
   8737  000004F8  00000001 USING  ORDINARY    00000000 00001000 FFFFFFF8   6 000          @R6,6
   8759  00000506  00000001 USING  ORDINARY    00000506 00001000 00000001   7 882    9053  $$$114B,R7
   8881  00000594  00000001 USING  ORDINARY    00000000 00001000 FFFFFFE9   4 1F4    9015  KWR,R4
   9021  00000612  00000001 USING  ORDINARY    00000000 00001000 FFFFFFFA   4 001   10154  @R4,4
   9065  0000063E  00000001 USING  ORDINARY    00000000 00001000 FFFFFFF7   7 000          @R7,7
   9174  00000722  00000001 USING  ORDINARY    00000722 00001000 00000001   7 612    9187  $$$127B,7
   9196  0000072C  00000001 USING  ORDINARY    00000000 00001000 FFFFFFF7   7 000          @R7,7
   9241  00000754  00000001 USING  ORDINARY    00000754 00001000 00000001   7 5E4    9250  $$$130B,7
   9259  0000075C  00000001 USING  ORDINARY    00000000 00001000 FFFFFFF7   7 000          @R7,7
   9345  00000784  00000001 USING  ORDINARY    00000784 00001000 00000001   7 6B0   10446  $$$132B,BR
   9354  00000784  00000001 USING  ORDINARY    00000000 00001000 FFFFFFE4   8 048   10460  SHNWA,WAR
   9463  000007E0  00000001 USING  ORDINARY    00000000 00001000 FFFFFFE6   6 074    9732  NDIR,R6
   9764  000008AA  00000001 USING  ORDINARY    00000000 00001000 FFFFFFF8   6 00C   10010  @R6,6
   9920  0000091C  00000001 USING  ORDINARY    00000000 00001000 FFFFFFE8  15 062    9932  JCB,R15
   9939  00000920  00000001 USING  ORDINARY    00000000 00001000 FFFFFFEF  15 000          @R15,15
  10021  00000948  00000001 DROP                                           15              15
  10025  0000094E  00000001 USING  ORDINARY    00000000 00001000 FFFFFFEF  15 000          @R15,15
1NEWS     (NEWS2193) (12:49) (15MAR04) Using Map                                                                            Page   37
  10278  000009CE  00000001 USING  ORDINARY    00000000 00001000 FFFFFFE6   6 074   10349  NDIR,R6
  10412  00000A0E  00000001 USING  ORDINARY    00000000 00001000 FFFFFFF8   6 000          @R6,6
  10473  00000A48  00000001 USING  ORDINARY    00000000 00001000 FFFFFFF6   8 000          @R8,8
  10479  00000A48  00000001 USING  ORDINARY    00000000 00001000 FFFFFFF7   7 000          @R7,7
  10505  00000A62  00000001 USING  ORDINARY    00000A62 00001000 00000001   7 36A   10525  $$$165B,BR
  10538  00000A9A  00000001 USING  ORDINARY    00000000 00001000 FFFFFFF7   7 000          @R7,7
  10564  00000AB4  00000001 USING  ORDINARY    00000AB4 00001000 00000001   7 31A   10633  $$$167B,BR
  10646  00000B26  00000001 USING  ORDINARY    00000000 00001000 FFFFFFF7   7 000          @R7,7
  10673  00000B40  00000001 USING  ORDINARY    00000B40 00001000 00000001   7 28E   10719  $$$170B,BR
  10749  00000BA6  00000001 USING  ORDINARY    00000000 00001000 FFFFFFF7   7 000          @R7,7
  10776  00000BC0  00000001 USING  ORDINARY    00000BC0 00001000 00000001   7 20E   10861  $$$173B,BR
  10877  00000C32  00000001 USING  ORDINARY    00000000 00001000 FFFFFFF7   7 000          @R7,7

1         (NEWS2193) (12:49) (15MAR04) General Purpose Register Cross Reference                                             Page   38
- Register  References (M=modified, B=branch, U=USING, D=DROP, N=index)                      HLASM R4.0  2004/03/15 12.49
0    0(0)      982U   983D  2099   2167M  2167   2168M  7139M  7139   7161M  7216M  7242M  7268M  7290   7388M  7811
              7839M  7845   7935M  7993M  8030M  8345M  8346M  8347   8632M  8638M  8664M  8775M  8775   8784   8785
              8849M  8903M  8930M  8936M  8974M  9030M  9054M  9157   9204M  9224   9267M  9356   9524M  9601M  9601
              9617M  9637M  9671M  9696M  9696   9726M  9786M  9808M  9808   9826M  9877M  9893M  9894M  9894   9958M
              9992M  9992  10075M 10095M 10155  10225M 10263M 10263  10370M 10370  10512M 10587  10619  10633M 10696
             10727  10800  10835
     1(1)      978U  2099   2162M  2163M  2169M  7160M  7241M  7267M  7289   7373   7387M  7424M  7586M  7593   7596M
              7610   7700M  7701M  7701   7737M  7738M  7738   7817   7844   7928M  7986M  8023M  8395   8396   8519
              8526M  8527M  8533N  8631M  8637M  8706M  8707M  8707   8771M  8784N  8785N  8787N  8850M  8902M  8929M
              8937M  8952   8958   8973M  9029M  9053M  9157   9204M  9224   9267M  9356   9434M  9435M  9435   9523M
              9597M  9616M  9670M  9719M  9785M  9804M  9825M  9876M  9892M 10068M 10115M 10166M 10218M 10434M 10435M
             10435  10460M 10510M 10512  10523  10527M 10566M 10587  10597  10619  10634M 10634  10675M 10696  10705
             10727  10778  10800  10835
     2(2)      974U  2099   7779   7955M  7966   7972M  7977M  8013M  8014M  8050M  8051M  8060M  8060   8072   8091M
              8209   8370M  8382   8395N  8404M  8405   8434M  8444   8456M  8490M  8502   8537M  8546M  8546   8553
              8610M  8611M  8612   8626M  9157   9204M  9224   9267M  9332   9541M  9541   9562M  9597   9629  10465M
             10492  10523M 10524M 10531M 10551  10587  10597M 10598M 10619  10639M 10660  10696  10705M 10706M 10727
             10742M 10763  10778M 10779M 10800  10813  10835  10870M
     3(3)      970U  2099   7562M  7580M  7779   8127M  8128   8153M  8154   8168   8194M  8204U  8276U  8280M  8288U
              8619U  8626M  9157   9204M  9224   9267M  9332  10465M 10492  10531M 10551  10587  10619  10639M 10660
             10696  10727  10742M 10763  10800  10813M 10814M 10835  10870M
     4(4)      966U  2099   7464M  7476   7594M  7638M  7676   7688M  7712M  7725M  7749M  7779   7845M  7877   8212M
              8215   8227M  8235M  8244M  8244   8251   8317M  8317   8471N  8528N  8575M  8584M  8584   8591   8626M
              8695M  8718M  8870M  8881U  8902   8973   9021U  9157   9204M  9224   9267M  9332   9423M  9446M 10010M
             10086M 10086  10154M 10155M 10422M 10446M 10465M 10492  10531M 10551  10587  10619  10639M 10660  10696
             10727  10742M 10763  10800  10835  10870M
     5(5)      962U  2099   7401M  7402M  7402   7424   7444M  7460U  7495M  7522U  7528M  7544U  7595M  7639M  7670U
              7689M  7711M  7726M  7748M  7779   7844M  8626M  8694M  8717M  8762M  8849   8936   9157   9187M  9189
              9204M  9224   9250M  9252   9267M  9332   9422M  9445M  9537M  9585M  9586M  9591   9732M  9775M  9775
              9804  10009M 10024N 10043M 10043N 10044M 10053M 10053  10115N 10423M 10445M 10465M 10492  10531M 10551
             10587  10619  10639M 10660  10696  10727  10742M 10763  10800  10835  10870M
     6(6)      958U  2099   7779   7794M  7802U  8626M  8737U  8761M  8843   8850   8958M  8965   9157   9186M  9186
              9189   9204M  9224   9267M  9332   9453M  9463U  9489M  9537   9563M  9585   9591M  9764U 10278U 10300M
             10312  10337M 10412U 10420M 10461  10465M 10492  10531M 10551  10587  10619  10639M 10660  10696  10727
             10742M 10763  10800  10835  10870M
     7(7)      954U  2092M  2092   2093B  2099   2105B  7065M  7075U  7760U  7779   7782M  7792U  8626M  8730U  8749M
              8759U  9065U  9157   9162M  9174U  9196U  9204M  9224   9229M  9241U  9259U  9267M  9332   9335M  9345U
             10465M 10479U 10492  10495M 10505U 10531M 10538U 10551  10554M 10564U 10587  10619  10639M 10646U 10660
             10663M 10673U 10696  10727  10742M 10749U 10763  10766M 10776U 10800  10835  10870M 10877U
     8(8)      950U  2099   7064M  7327M  7336U  7345   7767U  7779   7780M  8624   8626M  8748M  9157   9158M  9189
              9200   9204M  9224   9225M  9252N  9263   9267M  9332   9333M  9354U 10463  10465M 10473U 10492  10493M
             10529  10531M 10551  10552M 10587  10619  10637  10639M 10660  10661M 10696  10727  10740  10742M 10763
             10764M 10800  10835  10868  10870M
     9(9)      946U  2099  10587  10619  10696  10727  10800  10835
    10(A)      942U  2099  10587  10619  10696  10727  10800  10835
    11(B)      938U  1163U  2099  10587  10619  10696  10727  10800  10835
    12(C)      934U  1172U  2099  10587  10619  10696  10727  10800  10835
    13(D)      930U  2099   7064   7327   7328M  7328   7779   7780   7781M  7781   8624M  8625   8626   8748   8779
              8780   8781   8783M  8783   8796M  8797   8798   8799   8870   8871M  8871   9154   9157   9158   9159M
              9159   9200M  9204   9206   9221   9224   9225   9226M  9226   9263M  9267   9269   9332   9333   9334M
              9334  10463M 10464  10465  10492  10493  10494M 10494  10529M 10530  10531  10551  10552  10553M 10553
             10587  10619  10637M 10638  10639  10660  10661  10662M 10662  10696  10727  10740M 10741  10742  10763
             10764  10765M 10765  10800  10835  10868M 10869  10870
    14(E)      926U  2099   2100M  2114   2115M  2116B  2118M  2119B  2139M  2140B  2144M  2145B  2147M  2148B  2150M
              2151B  2153M  2154B  2156M  2157M  2157B  2163   7150M  7151M  7151B  7172M  7173M  7173B  7219M  7220M
1         (NEWS2193) (12:49) (15MAR04) General Purpose Register Cross Reference                                             Page   39
              7220B  7288M  7289N  7290N  7294M  7294   7298M  7299M  7299B  7302M  7303M  7303B  7306M  7307M  7307B
              7323M  7324M  7324B  7348M  7349M  7349B  7370M  7371M  7371B  7379M  7380M  7380B  7383M  7384M  7384B
              7390M  7427M  7428M  7428B  7709M  7710M  7710B  7746M  7747M  7747B  7777   7945M  7946M  7946B  8003M
              8004M  8004B  8040M  8041M  8041B  8393M  8394M  8394B  8513M  8514M  8514B  8625M  8627B  8662M  8663M
              8663B  8667M  8668M  8668B  8692M  8693M  8693B  8715M  8716M  8716B  8778M  8779   8780   8781   8786M
              8787   8790M  8791M  8791B  8794M  8797   8798   8799   8804M  8805M  8805B  8852M  8906M  8907M  8907B
              8939M  8977M  8978M  8978B  9154   9206M  9209B  9221   9269M  9272B  9330   9443M  9444M  9444B  9535M
              9536M  9536B  9612M  9613M  9613B  9664M  9665M  9665B  9682M  9683M  9683B  9707M  9708M  9708B  9729M
              9730M  9730B  9756M  9757M  9757B  9797M  9798M  9798B  9819M  9820M  9820B  9837M  9838M  9838B  9888M
              9889M  9889B  9897M  9898M  9898B 10003M 10004M 10004B 10181M 10182M 10182B 10399M 10400M 10400B 10443M
             10444M 10444B 10464M 10466B 10490  10530M 10532B 10549  10587  10588M 10619  10620M 10638M 10640B 10658
             10696  10697M 10727  10728M 10741M 10743B 10761  10800  10801M 10835  10836M 10861M 10862M 10862B 10869M
             10871B
    15(F)      922U  2099   7147M  7169M  7358M  7358   7376M  7561M  7579M  7610   7811M  7817M  7819M  7955   8013
              8050   8069M  8071M  8085M  8090   8091   8118M  8119M  8120   8126M  8128M  8138U  8151U  8155M  8471M
              8472M  8484   8515M  8516M  8528M  8529   8530M  8531M  8532   8533M  8621M  8621N  8659M  8689M  8800M
              8800   9043   9208M  9208   9271M  9271   9381M  9406M  9513M  9532M  9609M  9661M  9679M  9704M  9753M
              9794M  9816M  9834M  9885M  9910M  9920U  9939U 10000M 10021D 10023M 10023  10024M 10025U 10037  10095
             10098  10110M 10119M 10128M 10128  10135  10178M 10396M 10419M 10419  10420  10461M 10587  10619  10696
             10727  10736M 10737M 10738  10800  10808M 10810M 10811  10835  10852M 10852

1NEWS     (NEWS2193) (12:49) (15MAR04) Diagnostic Cross Reference and Assembler Summary                                     Page   40
-                                                                                            HLASM R4.0  2004/03/15 12.49
0     No Statements Flagged in this Assembly
 HIGH LEVEL ASSEMBLER, 5696-234, RELEASE 4.0, PTF P72483
0SYSTEM: OS/390 02.10.00            JOBNAME: WYL#NEWS    STEPNAME: ASM        PROCSTEP: (NOPROC)
0Datasets Allocated for this Assembly
  Con DDname   Dataset Name                                 Volume  Member
   P1 SYSIN    WYL.GS.WYL.WYLBUR.SOURCE                     SYSB05  NEWS
   L1 SYSLIB   WYL.GS.WYL.WYLBUR.MACLIB                     SYSB05
   L2          WYL.GG.SYS.MACLIB                            SYSB05
   L3          SYS3.IS.MACLIB                               SYSB05
   L4          SYS3.MACLIB                                  SYSB02
   L5          SYS1.MACLIB                                  MVSBR9
   L6          SYS1.MODGEN                                  MVSBR9
      SYSPRINT SYS04075.T124945.RA000.WYL#NEWS.PRINT.H01    SCR101
      SYSTERM  GG$SLP.WYL#NEWS.JOB03547.D0000101.?

    3668K allocated to Buffer Pool,         1945K would be required for this to be an In-Storage Assembly
     666 Primary Input Records Read        12379 Library Records Read                  0 Work File Reads
       0 ASMAOPT Records Read               3156 Primary Print Records Written         0 Work File Writes
       0 Punch Records Written                 0 ADATA Records Written
0Assembly Start Time: 12.49.47 Stop Time: 12.49.54 Processor Time: 00.00.01.9618
 Return Code 000
