1                        J E S 2  J O B  L O G  --  S Y S T E M  S Y S B  --  N O D E  R L G
0
 12.46.34 JOB03530 ---- MONDAY,    15 MAR 2004 ----
 12.46.34 JOB03530  ICH70001I GG$SLP   LAST ACCESS AT 12:46:22 ON MONDAY, MARCH 15, 2004
 12.46.34 JOB03530  $HASP373 WYL#HELP STARTED - INIT 9    - CLASS B - SYS SYSB
 12.46.34 JOB03530  ***  HCMD      STEP $$QUIET
 12.46.34 JOB03530  PUR * Q OUT MUL
 12.46.34 JOB03530  JOB 5394 WYL#HELP WILL BE PURGED
 12.46.35 JOB03530  WYL#HELP.$$QUIET .         RC=Zero TapeIO=0000 DiskIO=0000 CPU=  .01s Elapsed=94.09s
 12.46.42 JOB03530  WYL#HELP.ASM     .         RC=Zero TapeIO=0000 DiskIO=0590 CPU= 2.40s Elapsed=95.13s
 12.46.43 JOB03530  WYL#HELP.EDIT    .         RC=Zero TapeIO=0000 DiskIO=0095 CPU=  .29s Elapsed= 2.87s
 12.46.43 JOB03530  WYL#HELP Ended.  Name=Assemble HELP                  Total CPU= 2.70s Elapsed=94.09s
 12.46.43 JOB03530
 12.46.43 JOB03530  Execution charges   Priority=Standard   Block=Day
 12.46.43 JOB03530
 12.46.43 JOB03530  CPU Usage          49.50          $30.69   Standard Processing Unit Equivalent
 12.46.43 JOB03530                                   =======
 12.46.43 JOB03530                                    $30.69   Total Job execution charge
 12.46.43 JOB03530
 12.46.43 JOB03530  See back separator page for print charges
 12.46.43 JOB03530
 12.46.43 JOB03530  $HASP395 WYL#HELP ENDED  ASM=0, EDIT=0
1        1 //WYL#HELP JOB SLP$GG,'Assemble HELP',TIME=4,REGION=4M                  JOB03530
           //*
           /*JOBPARM LINES=99,COPIES=1
           /*JOBPARM FORMS=3HOL,PFORMAT=LAND,CHARS=BD13,DUPLEX=YES,FLASH=BAR4
           //*
           /*JOBPARM NOTIFY=GG.SLP,HOLD=OUTPUT                                     WYLGEN
         2 //$$QUIET EXEC PGM=HCMDX,PARM='PUR * Q OUT MUL'
           //*
         3 //ASM    EXEC PGM=ASMA90,REGION=8M,
           //            PARM=('NORENT,TERM,FLAG(NOCONT),US(MAP,WARN(10)),NODECK',
           //            'LC(32767),XREF(SHORT),ESD,DXREF,NOOBJECT')
         4 //STEPLIB DD DSN=SYS3.IS.TESTASM,DISP=SHR
         5 //SYSLIB   DD  DSN=WYL.GS.WYL.WYLBUR.MACLIB,DISP=SHR
         6 //         DD  DSN=WYL.GG.SYS.MACLIB,DISP=SHR
         7 //         DD  DSN=SYS3.IS.MACLIB,DISP=SHR
         8 //         DD  DSN=SYS3.MACLIB,DISP=SHR
         9 //         DD  DSN=SYS1.MACLIB,DISP=SHR
        10 //         DD  DSN=SYS1.MODGEN,DISP=SHR
        11 //SYSUT1   DD DSN=&&SYSUT1,UNIT=VIO,DISP=(,DELETE),
           //            SPACE=(4088,(500,250),,CONTIG,ROUND)
        12 //SYSTERM  DD SYSOUT=T
        13 //SYSPRINT DD DSN=&&PRINT,UNIT=SYSDA,DISP=(,PASS),
           //            SPACE=(6650,(250,250),RLSE),
           //            DCB=(BLKSIZE=6650,LRECL=133,RECFM=FB)
        14 //SYSUDUMP DD SYSOUT=A
        15 //SYSIN    DD  DSN=WYL.GS.WYL.WYLBUR.SOURCE(HELP),DISP=SHR
           //*
        16 //EDIT    EXEC PGM=ASMEDIT,TIME=2,REGION=4000K,
           //             PARM='STMT'
        17 //STEPLIB  DD  DSN=WYL.GG.SYS.LINKLIB,DISP=SHR
        18 //ASMOUT   DD  DSN=&PRINT,DISP=(OLD,DELETE)
        19 //SYSPRINT DD  SYSOUT=A
1 STMT NO. MESSAGE
 -
        11 IGD01010I STORCLAS= TEMP STORGROUP =
        11 IGD01010I STORGRP=VIO ASSIGNED.
        13 IGD01010I STORCLAS= TEMP STORGROUP =
        13 IGD01010I STORGRP=VIO ASSIGNED.
 ICH70001I GG$SLP   LAST ACCESS AT 12:46:22 ON MONDAY, MARCH 15, 2004
 IEF142I WYL#HELP $$QUIET - STEP WAS EXECUTED - COND CODE 0000
 *********************************************************************************
 *   WYL#HELP/$$QUIET /                    Return Code      Zero                 *
 *   Region used      260K (16K user + 244K system)                              *
 *   Extended region  9464K (4K user + 9460K system)                             *
 *                                                                               *
 *   Paging              In      Out                                             *
 *   Private <-> Aux      0        0       CPU time (TCB)   00:00:00.01          *
 *   Private <-> Exp      0        0       CPU time (SRB)   00:00:00.00          *
 *   VIO                  0        0       Elapsed time    917:41:18.87          *
 *   Common               0      ---                                             *
 *                                                                               *
 *                                                                               *
 *   CPU Usage          0.18         $0.11  Standard Processing Unit Equivalent  *
 *                                   $0.11  Total Step execution charge          *
 *                                                                               *
 *    I/O count  DDname   Type Addr           I/O count  DDname   Type Addr      *
 *                         *** No I/O for this step ***                          *
 *********************************************************************************
 IEF373I STEP/$$QUIET /START 2004075.1246
 IEF374I STEP/$$QUIET /STOP  2004075.1246 CPU    0MIN 00.01SEC SRB    0MIN 00.00SEC VIRT    16K SYS   244K EXT       4K SYS    9460K
 IEF236I ALLOC. FOR WYL#HELP ASM
 IEF237I 04DC ALLOCATED TO STEPLIB
 IEF237I 04DC ALLOCATED TO SYSLIB
 IEF237I 04DC ALLOCATED TO
 IEF237I 04DC ALLOCATED TO
 IEF237I 0402 ALLOCATED TO
 IEF237I 04A0 ALLOCATED TO
 IEF237I 04A0 ALLOCATED TO
 IGD101I SMS ALLOCATED TO DDNAME (SYSUT1  )
         DSN (SYS04075.T124634.RA000.WYL#HELP.SYSUT1.H01  )
         STORCLAS (TEMP) MGMTCLAS (        ) DATACLAS (        )
         VOL SER NOS= VIO
 IEF237I JES2 ALLOCATED TO SYSTERM
 IGD101I SMS ALLOCATED TO DDNAME (SYSPRINT)
         DSN (SYS04075.T124634.RA000.WYL#HELP.PRINT.H01   )
         STORCLAS (TEMP) MGMTCLAS (        ) DATACLAS (        )
         VOL SER NOS= SCR100
 IEF237I JES2 ALLOCATED TO SYSUDUMP
 IEF237I 04DC ALLOCATED TO SYSIN
 IEF142I WYL#HELP ASM - STEP WAS EXECUTED - COND CODE 0000
 IEF285I   SYS3.IS.TESTASM                              KEPT
 IEF285I   VOL SER NOS= SYSB05.
 IEF285I   WYL.GS.WYL.WYLBUR.MACLIB                     KEPT
 IEF285I   VOL SER NOS= SYSB05.
 IEF285I   WYL.GG.SYS.MACLIB                            KEPT
 IEF285I   VOL SER NOS= SYSB05.
 IEF285I   SYS3.IS.MACLIB                               KEPT
 IEF285I   VOL SER NOS= SYSB05.
 IEF285I   SYS3.MACLIB                                  KEPT
 IEF285I   VOL SER NOS= SYSB02.
 IEF285I   SYS1.MACLIB                                  KEPT
 IEF285I   VOL SER NOS= MVSBR9.
 IEF285I   SYS1.MODGEN                                  KEPT
 IEF285I   VOL SER NOS= MVSBR9.
 IGD105I SYS04075.T124634.RA000.WYL#HELP.SYSUT1.H01   DELETED,   DDNAME=SYSUT1
 IEF285I   GG$SLP.WYL#HELP.JOB03530.D0000101.?          SYSOUT
 IGD106I SYS04075.T124634.RA000.WYL#HELP.PRINT.H01    PASSED,    DDNAME=SYSPRINT
 IEF285I   GG$SLP.WYL#HELP.JOB03530.D0000102.?          SYSOUT
 IEF285I   WYL.GS.WYL.WYLBUR.SOURCE                     KEPT
 IEF285I   VOL SER NOS= SYSB05.
 *********************************************************************************
 *   WYL#HELP/ASM     /                    Return Code      Zero                 *
 *   Region used      4376K (4096K user + 280K system)                           *
 *   Extended region  10064K (412K user + 9652K system)                          *
 *                                                                               *
 *   Paging              In      Out                                             *
 *   Private <-> Aux      0        0       CPU time (TCB)   00:00:02.35          *
 *   Private <-> Exp      0        0       CPU time (SRB)   00:00:00.05          *
 *   VIO                  0        0       Elapsed time    917:41:17.83          *
 *   Common               0      ---                                             *
 *                                                                               *
 *                                                                               *
 *   CPU Usage         44.06        $27.31  Standard Processing Unit Equivalent  *
 *                                  $27.31  Total Step execution charge          *
 *                                                                               *
 *    I/O count  DDname   Type Addr           I/O count  DDname   Type Addr      *
 *           86  STEPLIB  Disk 04DC                 335  SYSLIB   Disk 04DC      *
 *            0  SYSLIB   Disk 04DC                   0  SYSLIB   Disk 04DC      *
 *            5  SYSLIB   Disk 0402                  68  SYSLIB   Disk 04A0      *
 *            0  SYSLIB   Disk 04A0                   0  SYSUT1   VIO  ----      *
 *            0  SYSTERM       ----                  92  SYSPRINT Disk 038B      *
 *            0  SYSUDUMP      ----                   4  SYSIN    Disk 04DC      *
 *********************************************************************************
 IEF373I STEP/ASM     /START 2004075.1246
 IEF374I STEP/ASM     /STOP  2004075.1246 CPU    0MIN 02.35SEC SRB    0MIN 00.05SEC VIRT  4096K SYS   280K EXT     412K SYS    9652K
 IEF236I ALLOC. FOR WYL#HELP EDIT
 IEF237I 0402 ALLOCATED TO STEPLIB
 IGD103I SMS ALLOCATED TO DDNAME ASMOUT
 IEF237I JES2 ALLOCATED TO SYSPRINT
 IEF142I WYL#HELP EDIT - STEP WAS EXECUTED - COND CODE 0000
 IEF285I   WYL.GG.SYS.LINKLIB                           KEPT
 IEF285I   VOL SER NOS= SYSB02.
 IGD105I SYS04075.T124634.RA000.WYL#HELP.PRINT.H01    DELETED,   DDNAME=ASMOUT
 IEF285I   GG$SLP.WYL#HELP.JOB03530.D0000103.?          SYSOUT
 *********************************************************************************
 *   WYL#HELP/EDIT    /                    Return Code      Zero                 *
 *   Region used      380K (116K user + 264K system)                             *
 *   Extended region  9584K (4K user + 9580K system)                             *
 *                                                                               *
 *   Paging              In      Out                                             *
 *   Private <-> Aux      0        0       CPU time (TCB)   00:00:00.28          *
 *   Private <-> Exp      0        0       CPU time (SRB)   00:00:00.01          *
 *   VIO                  0        0       Elapsed time    917:41:10.09          *
 *   Common               0      ---                                             *
 *                                                                               *
 *                                                                               *
 *   CPU Usage          5.25         $3.25  Standard Processing Unit Equivalent  *
 *                                   $3.25  Total Step execution charge          *
 *                                                                               *
 *    I/O count  DDname   Type Addr           I/O count  DDname   Type Addr      *
 *            2  STEPLIB  Disk 0402                  93  ASMOUT   Disk 038B      *
 *            0  SYSPRINT      ----                                              *
 *********************************************************************************
 IEF373I STEP/EDIT    /START 2004075.1246
 IEF374I STEP/EDIT    /STOP  2004075.1246 CPU    0MIN 00.28SEC SRB    0MIN 00.01SEC VIRT   116K SYS   264K EXT       4K SYS    9580K
 *********************************************************************************
 *                                                                               *
 *                      S t a n f o r d   U n i v e r s i t y                    *
 *                                                                               *
 *                              *** Job Summary ***                              *
 *                                                                               *
 *   System Id      SYSB                   Input time     12:39:19  Mar 15, 2004 *
 *                                                                               *
 *   System Release SP6.1.0                Start time     12:46:34  Mar 15, 2004 *
 *                                                                               *
 *   Job name       WYL#HELP               Stop  time     00:00:00  Mar 15, 2004 *
 *                                                                               *
 *   Account        SLP$GG                 Elapsed time  917:41:18.87            *
 *                                                                               *
 *   User Name      Assemble HELP          CPU time       00:00:02.64            *
 *                                                                               *
 *   Job class      B                      SRB Time       00:00:00.06            *
 *                                                                               *
 *********************************************************************************
 IEF375I  JOB/WYL#HELP/START 2004075.1246
 IEF376I  JOB/WYL#HELP/STOP  2004075.1246 CPU    0MIN 02.64SEC SRB    0MIN 00.06SEC
1Assembler Done HELP No Statements Flagged
1         High Level Assembler Option Summary                   (PTF P72483 )                                               Page    1
-                                                                                            HLASM R4.0  2004/03/15 12.46
0  No Overriding ASMAOPT Parameters
   Overriding Parameters-  NORENT,TERM,FLAG(NOCONT),US(MAP,WARN(10)),NODECK,LC(32767),XREF(SHORT),ESD,DXREF,NOOBJECT
   No Process Statements


   Options for this Assembly
0  NOADATA
     ALIGN
   NOASA
     BATCH
     CODEPAGE(047C)
   NOCOMPAT
   NODBCS
 3 NODECK
 3   DXREF
 3   ESD
   NOEXIT
 3   FLAG(0,ALIGN,NOCONT,NOIMPLEN,NOPAGE0,PUSH,RECORD,NOSUBSTR,USING0)
   NOFOLD
   NOGOFF
   NOINFO
     LANGUAGE(EN)
   NOLIBMAC
 3   LINECOUNT(32767)
     LIST(121)
     MXREF(SOURCE)
 3 NOOBJECT
     OPTABLE(UNI,NOLIST)
   NOPCONTROL
   NOPESTOP
   NOPROFILE
   NORA2
 3 NORENT
     RLD
     RXREF
     SIZE(MAX)
     SYSPARM()
 3   TERM(WIDE)
   NOTEST
     THREAD
   NOTRANSLATE
 3   USING(NOLIMIT,MAP,WARN(10))
 3   XREF(SHORT)

   No Overriding DD Names

1HELP     External Symbol Dictionary                                                                                        Page    2
-Symbol   Type   Id     Address  Length     LD ID  Flags Alias-of                            HLASM R4.0  2004/03/15 12.46
0WYLHELP   SD 00000001 00000000 00001578             00
 HELP2010  LD          00000000           00000001
 SETWHELP  LD          00000018           00000001
 MTOKEN    ER 00000002
 MALL      ER 00000003
 SEGCR     ER 00000004
 SEG       ER 00000005
 EXIT0     ER 00000006
 DOFNAME   ER 00000007
 FNAMOPTS  ER 00000008
 FNAMEFIN  ER 00000009
 NDETRNG   ER 0000000A
 EXTOPEN   ER 0000000B
 RDRNG     ER 0000000C
 EXTCLOSE  ER 0000000D
 NSCAN     ER 0000000E
 LRTRIM    ER 0000000F
 DEQUOTE   ER 00000010
 SCANCHK   ER 00000011
 HELP      LD          00000588           00000001
 COLLPSH   ER 00000012
 INVALID   ER 00000013
 MPARM     ER 00000014
 PAGERES   ER 00000015
 EXTOPENE  ER 00000016
 SEGCLR    ER 00000017
 SEGB      ER 00000018
 DTB       ER 00000019
 YESRTN    ER 0000001A
 TREAD     ER 0000001B

1HELP     WYLBUR's External Data Set Facilities                                                                             Page    3
0Loc    Object Code    Addr1 Addr2  Stmt Lv Lineno    Source Statement                    (Asmedit 3.3)  HLASM R4.0  2004/03/15 12.46
+___    ______ ____    _____ _____  ____ __ ______    ______ _________
0                                      2              *******************************************************************
                                       3              *                                                                 *
                                       4              *     WYLBUR/370 - Release VI - Class I - Stanford Proprietary    *
                                       5              *                                                                 *
                                       6              *******************************************************************
                                       7                       HIBAL
                                     988
 000000                00000 01578   989              WYLHELP  CSECT
                                     993              HELP     IDENT 2010                10:26:03 01/10/02  (SLP)
                                     996             +
                                     997    01-IDENT +         ENTRY HELP2010
                                     998             +
 000000 16C8C5D3D7F2F0F1             999    01-IDENT +HELP2010 DC    AL1(22),C'HELP2010,15MAR04,12:46'
                                    1000             +*
                                    1002                       REGS  FSR,,,,,,,BR,(WAR,LSR),PAR,PBR,CPR,CVR,SPR,RAR
                                    1138
                                    1139                       SYSDEFN ,                 Define installation params
-                                   1141                       PUSH  DSECTS
 USING  CP,R11                      1153             =         USING (CP),(CV)
 USING  CV,R12
 000017                00000 01578  1172             =         POP   PRINT
1HELP     (HELP2010) (12:46) (15MAR04) SET WHELP Command                                                                    Page    4
0Current Usings:  (CP,R11) (CV,R12)
0Loc    Object Code    Addr1 Addr2  Stmt Lv Lineno    Source Statement           (Hibal 5, Asmedit 3.3)  HLASM R4.0  2004/03/15 12.46
+___    ______ ____    _____ _____  ____ __ ______    ______ _________
0000000                00000 00072  6976              HDIR     RECORD BEGIN
 000000                             6984  1           HDIRLINK   DS    F                   Next HDIR ptr (or zero)
 000004                             6985  1           HDIRWCNT   DS    X                   No. of words in this entry
                                    6986  1           *                                  eg, CARRIAGE CONTROL CHARACTERS
                                    6987  1           *                                  looks for three words
                                    6988  1           *
                                    6989  1           HDIRMAXW   EQU   6                   Maximum no. of words any entry
 000005                             6990  1           HDIRWORD   DS    (HDIRMAXW)CL(1+8)   Flag+word
                                    6991  1           HDIRQUOT   EQU   X'01'               Quoted - don't abbreviate
                                    6992  1
 00003B 00                          6993  1           HDIRFLAG   FLAG
 HDIRFLAG.HDIRPRIV 80 ONES          6997  1                      FLAG  HDIRPRIV            Privileged entry follows
                                    7002  1
 00003C                             7003  1           HDIRDSN    DS    CL54                Dsname (including member, etc.)
 000072                00072 00072  7004                       END
-000000                00000 0007A  7014              SHLPWA   RECORD BEGIN
 000000                             7022  1           SHLPFPTR   DS    A                   First HDIR ptr
 000004                             7023  1           SHLPLPTR   DS    A                   Last HDIR ptr
                                    7024  1
 000008                             7025  1           SHLPHDIR   DS    XL(L'HDIR)          Working HDIR entry
 00007A                0007A 0007A  7026                       END
1HELP     (HELP2010) (12:46) (15MAR04) SET WHELP Command                                                                    Page    5
0Current Usings:  (CP,R11) (CV,R12)
0Loc    Object Code    Addr1 Addr2  Stmt Lv Lineno    Source Statement           (Hibal 5, Asmedit 3.3)  HLASM R4.0  2004/03/15 12.46
+___    ______ ____    _____ _____  ____ __ ______    ______ _________
0                                   7036                       COPY  FFINFO
                                    7037             =*
                                    7038             =*
                                    7039             =*  FILE INFO DSECT
                                    7040             =*
                                    7041             =*  THIS DSECT CONTAINS THE INFO NEEDED TO OPEN FILES.
                                    7042             =*  IT CONTAINS THE FILE NAME, FILE OPTIONS, FILE SYSTEM
                                    7043             =*  NAME AND FILE SYSTEM OPTIONS. THIS DSECT SHOULD CONTAIN
                                    7044             =*  ONLY DESCRIPTIVE INFO NEEDED TO OPEN THE FILE.
                                    7045             =*
                                    7046             =*
                                    7047             =FNAMELN  EQU   128                 MAXIMUM FILE NAME LENGTH
                                    7048             =FSYSLN   EQU   128                 MAXIMUM FILE SYSTEM LENGTH
                                    7049             =FHOSTLN  EQU   128                 MAXIMUM FILE SYSTEM HOST LENGTH
                                    7050             =*
                                    7051             =*
 000000                00000 003A0  7052             =FFINFO   RECORD BEGIN
 000000 00                          7060  1          =FFTYPE     FLAG  ,                   FILE SYSTEM TYPE FLAGS
 FFTYPE.FFFWINGS   01 EQ            7064  1          =           FLAG  (FFFWINGS,1,EQ)     WINGS
 FFTYPE.FFFUNIX    02 EQ            7074  1          =           FLAG  (FFFUNIX,2,EQ)      UNIX (NOT IMPLEMENTED)
 FFTYPE.FFFSAM     03 EQ            7084  1          =           FLAG  (FFFSAM,3,EQ)       SAMSON
 FFTYPE.FFFNET     04 EQ            7094  1          =           FLAG  (FFFNET,4,EQ)       NET
 FFTYPE.FFFOLD     05 EQ            7104  1          =           FLAG  (FFFOLD,5,EQ)       OLD IBM
 000001 00                          7114  1          =FFRQTYPE   FLAG  ,                   REQUEST TYPE FLAGS
 FFRQTYPE.FFFREAD  01 EQ            7118  1          =           FLAG  (FFFREAD,1,EQ)      READ (DEFAULT)
 FFRQTYPE.FFFWRITE 02 EQ            7128  1          =           FLAG  (FFFWRITE,2,EQ)     WRITE
 FFRQTYPE.FFFAPPD  04 EQ            7138  1          =           FLAG  (FFFAPPD,4,EQ)      APPEND
 FFRQTYPE.FFFREPL  08 EQ            7148  1          =           FLAG  (FFFREPL,8,EQ)      REPLACE
 000002 00                          7158  1          =FFMISC     FLAG  ,                   MISC FLAGS
 FFMISC.FFFPASSW   80 ONES          7162  1          =           FLAG  FFFPASSW            PASSWORD ACCESS OK
 FFMISC.FFFDIFFV   40 ONES          7167  1          =           FLAG  FFFDIFFV            DIFFERENT VOL SAVE OK
 FFMISC.FFFCHFMT   20 ONES          7172  1          =           FLAG  FFFCHFMT            CHANGE DSN FORMAT OK
 FFMISC.FFFNRACF   10 ONES          7177  1          =           FLAG  FFFNRACF            NO RACF PROCESSING
 FFMISC.FFFPDS     08 ONES          7182  1          =           FLAG  FFFPDS              OP APPLIES TO PDS
 000003 00                          7187  1          =FFPTYPE    FLAG  ,                   PREVIOUS FILE TYPE
 FFPTYPE.FFFPWINGS 01 EQ            7191  1          =           FLAG  (FFFPWINGS,1,EQ)    WINGS
 FFPTYPE.FFFPUNIX  02 EQ            7201  1          =           FLAG  (FFFPUNIX,2,EQ)     UNIX (NOT IMPLEMENTED)
 FFPTYPE.FFFPSAM   03 EQ            7211  1          =           FLAG  (FFFPSAM,3,EQ)      SAMSON
 FFPTYPE.FFFPNET   04 EQ            7221  1          =           FLAG  (FFFPNET,4,EQ)      NET
 FFPTYPE.FFFPOLD   05 EQ            7231  1          =           FLAG  (FFFPOLD,5,EQ)      OLD IBM
 000004 00                          7241  1          =FFFLAG4    FLAG  ,
 000008                             7245  1          =FFNAMEL    DS    F                   FILE NAME
 00000C                             7246  1          =FFNAME     DS    CL128
 00008C                             7247  1          =FFHOSTL    DS    F                   FILE HOST
 000090                             7248  1          =FFHOST     DS    CL128
 000110                             7249  1          =FFOPTSL    DS    F                   FILE OPTIONS (FORMAT ETC)
 000114                             7250  1          =FFOPTS     DS    CL256
 000214                             7251  1          =FFRNAMEL   DS    F                   RESOLVED FULL FILE NAME
 000218                             7252  1          =FFRNAME    DS    CL128
 000298                             7253  1          =FFPNAMEL   DS    F                   PREVIOUS FILE NAME (IE. *)
 00029C                             7254  1          =FFPNAME    DS    CL128
 00031C                             7255  1          =FFPHOSTL   DS    F                   PREVIOUS HOST
 000320                             7256  1          =FFPHOST    DS    CL128
 0003A0                003A0 003A0  7257             =         END   ,
1HELP     (HELP2010) (12:46) (15MAR04) SET WHELP Command                                                                    Page    6
0Current Usings:  (CP,R11) (CV,R12)
0Loc    Object Code    Addr1 Addr2  Stmt Lv Lineno    Source Statement           (Hibal 5, Asmedit 3.3)  HLASM R4.0  2004/03/15 12.46
+___    ______ ____    _____ _____  ____ __ ______    ______ _________
0                                   7267              ¿þþþþþþþþþþþþþþþþþþþþþþþþþþþþþþþþþþþþþþþþþþþþþþþþþþþþþþþþþþþþþþþþþþþþþÜ
                                    7268              Ÿ                                                                     Ÿ
                                    7269              Ÿ  SETWHELP -- SET WHELP Command.  (Priv'd.)                          Ÿ
                                    7270              Ÿ                                                                     Ÿ
                                    7271              Ÿ    Note:  This routine is also called after a successful save of    Ÿ
                                    7272              Ÿ           HELP PUBLIC.                                              Ÿ
                                    7273              Ÿ                                                                     Ÿ
                                                      ¾þþþþþþþþþþþþþþþþþþþþþþþþþþþþþþþþþþþþþþþþþþþþþþþþþþþþþþþþþþþþþþþþþþþþþ»
0000018 188D/4570 C74C_             7274              SETWHELP GENTER
 USING  *,R7
 000026 95E6 BD24/4780_00D24        7291                       IF    (CPCMNM,NE,'W'),BEGIN  Entered after SAVE...
 00002E D603 B05C B05C_0005C 0005C  7308  1                      TCCR
 00004E 4110 733E/4100_      00364  7370  1                      TSEG  'Type SET WHELP to reset help tables.'
 000060 47F0 C7DE            007DE  7388  1                      B     CVNEXT
 000064                             7389                       END
 000064 7042/47F0 7042 00064 0002C  7393                       ELSE  BEGIN               Command entry...
                                    7404  1           *  De-privileged on 9/12/88 by Niz (what harm can it do if someone
                                    7405  1           *    tries this).
                                    7406  1           ****     IF    ~CPSFSPR,CVNVALID
 000068                             7407                       END
                                    7411
 000068 94FD BD50      00D50        7412                       CLEAR CPLFLG1.CPFDSN1
 00006C 4100 0000            00000  7420                       LA    R0,SDSNHDIR         Want HELP dir. dsn
 000070 58E0 7366/0DEE       0038C  7421                       VCALL EXIT0               LOCAL exit - format system dsname
 000076 58E0 B08C/501E_      0008C  7425                       SCINIT (R1),(R0)
 000084 58E0 736A/0DEE       00390  7445                       VCALL DOFNAME             Scan HELP dir file name
 00008A 58E0 736E/0DEE       00394  7449                       VCALL FNAMOPTS            Scan for file name options
 000090 58E0 7372/0DEE       00398  7453                       VCALL FNAMEFIN            Determine file type from name
                                    7457
 000096 9610 BD50      00D50        7458                       SET   CPLFLG1.CPFALL
 00009A 9203 BD89      00D89        7465                       SET   CPFRDEXT
 00009E 58E0 7376/0DEE       0039C  7471                       VCALL NDETRNG
                                    7475
 0000A4 188D/41D0 D07C              7476                       XPUSH ,,L'SHLPWA,PTR=WAR
 USING  SHLPWA,R8                   7479                       USING SHLPWA,WAR
 0000AA D779 8000 8000 00000 00000  7488                       CLEAR SHLPWA
 0000B0 5080 BCA4            00CA4  7495                       ST    WAR,CPCWA
                                    7496
 0000B4 58E0 737A/0DEE       003A0  7497                       VCALL EXTOPEN
 0000BA 12FF/4770 C7DE              7501                       IF    (R15,NZ),CVNEXT
                                    7518                       ¿þþþþþþþþþþþþþþþþþþþþþþþþþþþþþþþþþþþþþþþþþþþþþþþþþþÜ
                                    7519                       Ÿ  Go process HELP directory lines to make table.  Ÿ
                                    7520                       ¾þþþþþþþþþþþþþþþþþþþþþþþþþþþþþþþþþþþþþþþþþþþþþþþþþþ»
 0000C0 5800 737E/5810_      003A4  7521                       RDRNG SHLPRTN,(DESRTRN+LXCATRTN+UNPRST)
                                    7528
 0000CE 58E0 738A/0DEE       003B0  7529                       VCALL EXTCLOSE
                                    7533                       ¿þþþþþþþþþþþþþþþþþþþþþþþþþþþþþþþþþþþþþþþþþþþþþþþþþþþþþþþþþþþþÜ
                                    7534                       Ÿ  Now make the new HELP directory the default and free the  Ÿ
                                    7535                       Ÿ    old one.                                                Ÿ
                                    7536                       ¾þþþþþþþþþþþþþþþþþþþþþþþþþþþþþþþþþþþþþþþþþþþþþþþþþþþþþþþþþþþþ»
 0000D4 58F0 8000/12FF       00000  7537                       LT    R15,SHLPFPTR
 0000DA 4770 70C4            000EA  7541                       IF    Z,BEGIN             Nothing in new dir...
 0000DE 4110 73AE/4100_      003D4  7552  1                      SETMSG 'No help directory entries.'
1HELP     (HELP2010) (12:46) (15MAR04) SET WHELP Command                                                                    Page    7
0Current Usings:  (*,R7) (SHLPWA,R8) (CP,R11) (CV,R12)
0Loc    Object Code    Addr1 Addr2  Stmt Lv Lineno    Source Statement           (Hibal 5, Asmedit 3.3)  HLASM R4.0  2004/03/15 12.46
+___    ______ ____    _____ _____  ____ __ ______    ______ _________
00000E6 47F0 C7CC            007CC  7556  1                      B     CVABTMSG
 0000EA                             7557                       END
                                    7561
 0000EA 5850 C5FC            005FC  7562                       L     R5,CVHLPPTR         Old dir ptr
 0000EE 50F0 C5FC            005FC  7563                       ST    R15,CVHLPPTR        New dir ptr
                                    7564
 0000F2 1255/4780 70F6              7565                       WHILE (R5,NZ),BEGIN       Free old dir...
 USING  HDIR,R5                     7581  1                      WITH  (HDIR,R5)
 0000F8 5830 5000            00000  7594  1                      L     R3,HDIRLINK         Next entry ptr
 0000FC D203 5000 738E 00000 003B4  7595  1                      MVC   HDIRLINK,=F'-1'     (Safety)
 000102 0700/47F0 70E6_             7596  1                      FREEMAIN R,A=(R5),LV=L'HDIR
                                    7604  1
 000116 1853                        7605  1                      LR    R5,R3
 000118 47F0 70CC            000F2  7606                       END
 DROP   HDIR,R5
                                    7616
 00011C 47F0 C7DE            007DE  7617                       B     CVNEXT
                                    7618
 DROP   *,R7                        7619                       DROP  BR,SHLPWA
 DROP   SHLPWA,R8
                                    7633
 000120                             7634                       DS    0F
1HELP     (HELP2010) (12:46) (15MAR04) SET WHELP Command                                                                    Page    8
0Current Usings:  (CP,R11) (CV,R12)
0Loc    Object Code    Addr1 Addr2  Stmt Lv Lineno    Source Statement           (Hibal 5, Asmedit 3.3)  HLASM R4.0  2004/03/15 12.46
+___    ______ ____    _____ _____  ____ __ ______    ______ _________
0                                   7636              ¿þþþþþþþþþþþþþþþþþþþþþþþþþþþþþþþþþþþþþþþþþþþþþþþþþþþþþþþþþþþþþþþþþþþþþÜ
                                    7637              Ÿ                                                                     Ÿ
                                    7638              Ÿ  SHLPRTN -- Routine to process help directory lines.                Ÿ
                                    7639              Ÿ                                                                     Ÿ
                                    7640              Ÿ    On entry:                                                        Ÿ
                                    7641              Ÿ      R1,R0 - line loc, len                                          Ÿ
                                    7642              Ÿ                                                                     Ÿ
                                                      ¾þþþþþþþþþþþþþþþþþþþþþþþþþþþþþþþþþþþþþþþþþþþþþþþþþþþþþþþþþþþþþþþþþþþþþ»
0000120 50E0 D000/9028_      00000  7643              SHLPRTN  XENTER R2,R8,*,LOCAL
 USING  *,R7
 00013A 5860 BCA4            00CA4  7661                       L     R6,CPCWA            SHLPWA ptr
 USING  SHLPWA,R6                   7662                       USING SHLPWA,R6
 00013E 4150 6008            00008  7671                       LA    R5,SHLPHDIR
 USING  HDIR,R5                     7672                       USING HDIR,R5
 000142 D771 5000 5000 00000 00000  7681                       CLEAR HDIR
                                    7688
 000148 58E0 B08C/501E_      0008C  7689                       SCINIT (R1),(R0)
 000156 5810 B08C/1B00_      0008C  7709                       SCAN  SHLPPRT             DONT check for errors
 0001A8 18D8/58E0 D000_             7741                       XEXIT
 DROP   *,R7                        7746                       DROP  BR
                                    7753
 0001B4 7A40404040404040_           7754              SHLPPRT  SCKW  :,SHLPDSN
 0001DC 4E40404040404040_           7769                       SCKW  +,SHLPDSN           PRIV TEXT FOLLOWS THIS PUB TEXT
 000204 4040404040404040_           7784                       SCKW  ,SHLPWORD
                                    7799
 00022C 50E0 D000/9008_      00000  7800              SHLPDSN  PROC  ,
 USING  *,R7
 000246 954E 1000/4770_00000        7839                       IF    (@R1,EQ,'+'),BEGIN
 00024E 9680 503B      0003B        7855  1                      SET   HDIRPRIV
 000252                             7861                       END   ,
 000252 58E0 B08C/581E_      0008C  7865                       SCINFO
 000260 58E0 717A/0DEE       003C0  7874                       VCALL LRTRIM
 000266 1200/47D0 707E              7878                       IF    (R0,NP),SHLDEXIT
 00026C 5900 717E/47D0_      003C4  7895                       CEIL  R0,L'HDIRDSN
 000278 D235 503C C4D8 0003C 004D8  7914                       MVC   HDIRDSN,CVBLANKS
 00027E 18F0                        7915                       LR    R15,R0
 000280 06F0/12FF/4740_             7916                       MOVE  R15,HDIRDSN,@R1
                                    7954                       ¿þþþþþþþþþþþþþþþþþþþþþþþþþþþþþþþþÜ
                                    7955                       Ÿ  Add HDIR entry to the queue.  Ÿ
                                    7956                       ¾þþþþþþþþþþþþþþþþþþþþþþþþþþþþþþþþ»
 00028C 4510 704E/0000_      00294  7957                       GETMAIN R,LV=L'HDIR
 00029A D271 1000 5000 00000 00000  7964                       MVC   @R1(L'HDIR),HDIR    Use working HDIR entry
 0002A0 1851                        7965                       LR    R5,R1
                                    7966
 0002A2 D603 6000 6000_00000 00000  7967                       IF    (SHLPFPTR,Z),BEGIN  First entry...
 0002AC 5050 6000            00000  7983  1                      ST    R5,SHLPFPTR         First entry ptr
 0002B0 5050 6004            00004  7984  1                      ST    R5,SHLPLPTR         Last entry ptr
 0002B4                             7985                       END
 0002B4 7072/47F0 707E 002B4 002AA  7989                       ELSE  BEGIN               Link up entry...
 0002B8 58F0 6004            00004  8000  1                      L     R15,SHLPLPTR        Last entry
 0002BC 5050 F000            00000  8001  1                      WITH  (HDIR,R15),'ST R5,HDIRLINK'  link to new entry
 USING  HDIR,R15
 DROP   HDIR,R15
1HELP     (HELP2010) (12:46) (15MAR04) SET WHELP Command                                                                    Page    9
0Current Usings:  (HDIR,R5) (SHLPWA,R6) (*,R7) (CP,R11) (CV,R12)
0Loc    Object Code    Addr1 Addr2  Stmt Lv Lineno    Source Statement           (Hibal 5, Asmedit 3.3)  HLASM R4.0  2004/03/15 12.46
+___    ______ ____    _____ _____  ____ __ ______    ______ _________
00002C0 5050 6004            00004  8025  1                      ST    R5,SHLPLPTR         New last entry
 0002C4                             8026                       END
 0002C4                             8030              SHLDEXIT LABEL ,
 0002C4 41F0 0004            00004  8032                       LA    R15,4               Terminate scan
 0002C8 18D8/9808 D004_             8033                       PEND  ,
 DROP   *,R7
                                    8053
 0002D6 50E0 D000/9008_      00000  8054              SHLPWORD PROC
 USING  *,R7
 0002F0 1F33/4330 5004              8093                       LC    R3,HDIRWCNT
 0002F6 5930 70D8/4750_      003C8  8100                       IF    (R3,GE,HDIRMAXW),BEGIN
 0002FE 41F0 0004            00004  8117  1                      LA    R15,4
 000302 47F0 705C            0034C  8118  1                      B     SHLWEXIT
 000306                             8119                       END
 000306 1823                        8123                       LR    R2,R3
 000308 4C20 7100            003F0  8124                       MH    R2,=AL2(L'HDIRWORD)
 00030C 4122 5005            00005  8125                       LA    R2,HDIRWORD(R2)
 000310 9200 2000      00000        8126                       MVI   @R2,0               Flag: abbreviatable
 000314 D207 2001 C4D8 00001 004D8  8127                       MVC   @R2+1(L'HDIRWORD-1),CVBLANKS
 00031A 58E0 70DC/0DEE       003CC  8128                       VCALL DEQUOTE
 000320 4740 7038/9601_      00328  8132                       IF    ~NEG,'OI @R2,HDIRQUOT' quoted means non-abbreviatable
 000328 18F0                        8149                       LR    R15,R0
 00032A 59F0 70E0/47D0_      003D0  8150                       CEIL  R15,L'HDIRWORD-1
 000336 06F0/12FF/4740_             8169                       MOVE  R15,@R2+1,@R1
 000342 4130 3001            00001  8207                       LA    R3,@R3+1
 000346 4230 5004            00004  8208                       STC   R3,HDIRWCNT
 00034A 1BFF                        8209                       CLEAR R15
 00034C                             8213              SHLWEXIT LABEL ,
 00034C 18D8/9808 D004_             8215                       PEND  ,
 DROP   *,R7
                                    8235
 DROP   HDIR,R5                     8236                       DROP  HDIR,SHLPWA
 DROP   SHLPWA,R6
                                    8251
                                    8252                       QLTORG
                                    8288              ¿þþþþþþþþþþþþþþþþþþþþþþþþþþþþþþþþþþþþþþþþþþþþþþþþþþþþþþþþþþþþþþþþþþþþþÜ
                                    8289              Ÿ                                                                     Ÿ
                                    8290              Ÿ  GETHDIR -- Local routine to match the command text with an HDIR    Ÿ
                                    8291              Ÿ    entry.                                                           Ÿ
                                    8292              Ÿ                                                                     Ÿ
                                    8293              Ÿ    On entry:                                                        Ÿ
                                    8294              Ÿ      scanner points to start of text                                Ÿ
                                    8295              Ÿ                                                                     Ÿ
                                    8296              Ÿ    On exit, R15 (and cc):                                           Ÿ
                                    8297              Ÿ      0 - no match                                                   Ÿ
                                    8298              Ÿ      nz- matched; R15 contains HDIR ptr                             Ÿ
                                    8299              Ÿ                                                                     Ÿ
                                                      ¾þþþþþþþþþþþþþþþþþþþþþþþþþþþþþþþþþþþþþþþþþþþþþþþþþþþþþþþþþþþþþþþþþþþþþ»
0000000                00000 000B0  8300              GHWA     RECORD BEGIN
 000000                             8308  1           GHWORDS    DS    XL(L'NSCNCB)
 0000B0                000B0 000B0  8309                       END
                                    8318              *
                                    8319              *
1HELP     (HELP2010) (12:46) (15MAR04) SET WHELP Command                                                                    Page   10
0Current Usings:  (*,R7) (GHWA-(4+36),R8) (CP,R11) (CV,R12)
0Loc    Object Code    Addr1 Addr2  Stmt Lv Lineno    Source Statement           (Hibal 5, Asmedit 3.3)  HLASM R4.0  2004/03/15 12.46
+___    ______ ____    _____ _____  ____ __ ______    ______ _________
00003FE 50E0 D000/9008_      00000  8320              GETHDIR  PROC  GHWA
 USING  *,R7
 USING  GHWA-(4+36),R8
 000418 58E0 B08C/D2AF_      0008C  8370                       SCSAVE AREA=GHWORDS
                                    8379
 000424 4150 C5FC            005FC  8380                       LA    R5,CVHLPPTR-(HDIRLINK-HDIR)
 000428                             8381              GETHLP   LOOP  BEGIN               go through HDIR's...
 USING  HDIR,R5                     8388  1                      WITH  (HDIR,R5)
 000428 5850 5000/1255_      00000  8401  1                      WHILE ('LT R5,HDIRLINK',NZ)
 000432 1B22                        8418  1                      CLEAR R2
 000434 1F33/4330 5004              8422  1                      LC    R3,HDIRWCNT         Word count
 00043A 58E0 B08C/D2AF_      0008C  8429  1                      SCRSTR AREA=GHWORDS
                                    8438  1                      ¿þþþþþþþþþþþþþþþþþþþþþþþþþþþþþþþÜ
                                    8439  1                      Ÿ  Match HELP with no options.  Ÿ
                                    8440  1                      ¾þþþþþþþþþþþþþþþþþþþþþþþþþþþþþþþ»
 000446 1233/4770 708E              8441  1                      IF    (R3,Z),BEGIN        No words...
 00044C 5810 B08C/1B00_      0008C  8455  2                        SCAN
 00049A 58E0 715C/0DEE       00574  8486  2                        SCANCHK
 0004A0 1200/4770 7010              8491  2                        IF    (R0,NZ),GETHLP
 0004A6                             8508  1                      END
                                    8512  1                      ¿þþþþþþþþþþþþþþþþþþþþþþþþþþþþþþþþþþþþþþþþþþþþþþþþþþþþþþþþþþþÜ
                                    8513  1                      Ÿ  Match the words in the directory with the user's input.  Ÿ
                                    8514  1                      ¾þþþþþþþþþþþþþþþþþþþþþþþþþþþþþþþþþþþþþþþþþþþþþþþþþþþþþþþþþþþ»
 0004A6 7092/47F0 7140 004A6 0044A  8515  1                      ELSE  BEGIN               Match words...
 0004AA 4140 5005            00005  8526  2                        LA    R4,HDIRWORD
                                    8527  2
 0004AE 1923/47B0 7140              8528  2                        WHILE (R2,LT,R3),BEGIN  go through words...
 0004B4 5810 B08C/1B00_      0008C  8545  3                          SCAN
 000502 58E0 715C/0DEE       00574  8576  3                          SCANCHK
 000508 58F0 B08C/41FF_      0008C  8581  3                          SCUPTOK (R15)
 000510 1810                        8585  3                          LR    R1,R0
 000512 5910 7160/47B0_      00578  8586  3                          FLOOR R1,3                At least 3 chars
 00051E 5910 7164/47D0_      0057C  8605  3                          CEIL  R1,8
 00052A 0610/1211/4740_             8624  3                          CMPR  R1,@R15,@R4+1       Does what the user typed match?
 000536 4770 7010            00428  8662  3                          BNE   GETHLP              Not even close
 00053A 9501 4000/4770_00000        8663  3                          IF    (@R4,EQ,HDIRQUOT),BEGIN  Must be an exact match...
 000542 D507 F000 4001_00000 00001  8680  4                            IF    ('CLC @R15(8),@R4+1',NE),GETHLP  go try next entry
 00054C                             8696  3                          END
 00054C 4140 4009            00009  8700  3                          LA    R4,@R4+L'HDIRWORD
 000550 4120 2001            00001  8701  3                          LA    R2,@R2+1
 000554 47F0 7096            004AE  8702  2                        END
 000558                             8707  1                      END
 000558 47F0 7148            00560  8711  1                      EXIT
 00055C 47F0 7010            00428  8714                       END
 DROP   HDIR,R5
                                    8724
 000560 12F5                        8725                       LTR   R15,R5
 000562 18D8/9808 D004_             8726                       PEND
 DROP   GHWA-(4+36),R8
 DROP   *,R7
                                    8751                       QLTORG
1HELP     (HELP2010) (12:46) (15MAR04) HELP Command                                                                         Page   11
0Current Usings:  (CP,R11) (CV,R12)
0Loc    Object Code    Addr1 Addr2  Stmt Lv Lineno    Source Statement           (Hibal 5, Asmedit 3.3)  HLASM R4.0  2004/03/15 12.46
+___    ______ ____    _____ _____  ____ __ ______    ______ _________
0000000                00000 0023C  8770              HELPWA   RECORD BEGIN
 000000 00                          8778  1           HELPFLAG   FLAG
 HELPFLAG.HELFQ    80 ONES          8782  1                      FLAG  HELFQ               - ? command
 HELPFLAG.HELFPUB  40 ONES          8787  1                      FLAG  HELFPUB             - Allow this help before logon
 HELPFLAG.HELFSOME 20 ONES          8792  1                      FLAG  HELFSOME            - Have 1st help page
 HELPFLAG.HELFMAT  10 ONES          8797  1                      FLAG  HELFMAT             - Current section is matched
 HELPFLAG.HELFSKIP 08 ONES          8802  1                      FLAG  HELFSKIP            - Skip text lines
 HELPFLAG.HELFALL  04 ONES          8807  1                      FLAG  HELFALL             - Display everything
 HELPFLAG.HELFFND  02 ONES          8812  1                      FLAG  HELFFND             - At least one option was found
                                    8817  1
 000001                             8818  1           HELPBLNK   DS    C                   Blank char
                                    8819  1
 000002                             8820  1           HELPDSN    DS    CL(L'HDIRDSN)       Dsname for help
                                    8821  1
 000038                             8822  1           HELPTNO    DS    H                   Number of tokens in table
                                    8823  1           HELPMAX#   EQU   16                  Max no. of tokens
 00003A                             8824  1           HELPTOK    DS    (HELPMAX#)CL(1+8)   Token table
                                    8825  1
 0000CA                             8826  1           HELPBCNT   DS    H                   Working blank line count
 0000CC                             8827  1           HELPFNO    DS    H                   Working field number
 0000D0                             8828  1           HELPPTRS   DS    2F                  Working scan ptrs
 0000D8                             8829  1           HELPDIR    DS    F                   Addr of matching HELPDIR entry
 0000DC                             8830  1           HELPCMD    DS    XL(L'NSCNCB)        Help command text
 00018C                             8831  1           HELPOPTS   DS    XL(L'NSCNCB)        Help command options
 00023C                0023C 0023C  8832                       END
-                                   8842              ¿þþþþþþþþþþþþþþþþþþþþþþþþþþþþþþþþþþþþþþþþþþþþþþþþþþþþþþþþþþþþþþþþþþþþþÜ
                                    8843              Ÿ                                                                     Ÿ
                                    8844              Ÿ  HELP -- HELP/? Commands.                                           Ÿ
                                    8845              Ÿ                                                                     Ÿ
                                                      ¾þþþþþþþþþþþþþþþþþþþþþþþþþþþþþþþþþþþþþþþþþþþþþþþþþþþþþþþþþþþþþþþþþþþþþ»
0000588 188D/41D0 D23C_             8846              HELP     GENTER L'HELPWA
 USING  *,R7
 00059A 1868                        8865                       LR    R6,WAR
 00059C 5060 BCA4            00CA4  8866                       ST    R6,CPCWA
 USING  HELPWA,R6                   8867                       USING HELPWA,R6
 0005A0 D7FF 6000 6000_00000 00000  8876                       CLEAR HELPWA
 0005B2 92E0 6001      00001        8885                       MVI   HELPBLNK,X'E0'      Default blank char is backslash
                                    8886
 0005B6 D502 7F44 BD24_014DE 00D24  8887                       IF    (CPCMNM,EQ,'DES'),BEGIN  Describe...
 0005C0 4110 7F47/4100_      014E1  8904  1                      TSEG  'Please use the HELP command instead of the '
 0005D2 4110 7F72/4100_      0150C  8922  1                      ERROR 'DESCRIBE command.'
 0005DE                             8929                       END
                                    8933
 0005DE 956F 1000/4770_00000        8934                       IF    (@R1,EQ,'?'),'SET HELFQ'  ? command
                                    8961
 0005EA 58E0 7E32/0DEE       013CC  8962                       VCALL PAGERES             *** Reset Page mode always ***
                                    8966
 0005F0 D202 BD24 7F83 00D24 0151D  8967                       MVC   CPCMNM,=C'HEL'
 0005F6 9610 6000      00000        8968                       SET   HELFMAT             Start off matched
 0005FA D235 6002 C4D8 00002 004D8  8974                       MVC   HELPDSN,CVBLANKS
1HELP     (HELP2010) (12:46) (15MAR04) HELP Command                                                                         Page   12
0Current Usings:  (HELPWA,R6) (*,R7) (CP,R11) (CV,R12)
0Loc    Object Code    Addr1 Addr2  Stmt Lv Lineno    Source Statement           (Hibal 5, Asmedit 3.3)  HLASM R4.0  2004/03/15 12.46
+___    ______ ____    _____ _____  ____ __ ______    ______ _________
0                                   8975                       ¿þþþþþþþþþþþþþþþþþþþþþþþþþþþþþÜ
                                    8976                       Ÿ  Set up for the ? command.  Ÿ
                                    8977                       ¾þþþþþþþþþþþþþþþþþþþþþþþþþþþþþ»
 000600 9180 6000/47E0_00000        8978                       IF    HELFQ,BEGIN         ? command...
 000608 D607 B88E B88E_0088E 0088E  8993  1                      IF    (CPOERRID,Z),BEGIN
 000612 4110 7E36/4100_      013D0  9009  2                        TSEG  'No help available.  '
 000624 4110 7ECE/4100_      01468  9027  2                        ABORT 'Type HELP for general information.'
 000630                             9034  1                      END
 000630 4100 0002            00002  9038  1                      LA    R0,SDSNERR          Want the ERRORS dsn
 000634 58E0 7E4A/0DEE       013E4  9039  1                      VCALL EXIT0               LOCAL exit - format system dsname
 00063A 1820                        9043  1                      LR    R2,R0               Copy dsname length
 00063C 1222/47D0 70AE_             9044  1                      TDEX  R2,'MVC HELPDSN(0),@R1' Copy dsname
 000648 4120 6002            00002  9082  1                      LA    R2,HELPDSN          Point to start of dsname
 00064C 1A20                        9083  1                      AR    R2,R0               Point to end+1
 00064E 927B 2000      00000        9084  1                      MVI   @R2,C'#'            Add member
 000652 D207 2001 B88E 00001 0088E  9085  1                      MVC   @R2+1(8),CPOERRID
 000658                             9086                       END
                                    9090                       ¿þþþþþþþþþþþþþþþþþþþþþþþþþþþþþþþþþþþþþþþþþþþþþþþÜ
                                    9091                       Ÿ  Otherwise, initialize for the HELP command.  Ÿ
                                    9092                       ¾þþþþþþþþþþþþþþþþþþþþþþþþþþþþþþþþþþþþþþþþþþþþþþþ»
 000658 70C2/47F0 7272 00658 00606  9093                       ELSE  BEGIN               Help...
 00065C 58E0 B08C/D2AF_      0008C  9104  1                      SCSAVE AREA=HELPCMD
 000668 5810 B08C/1B00_      0008C  9113  1                      SCAN
 0006B6 58E0 7E52/0DEE       013EC  9144  1                      SCANCHK
 0006BC 1200/4770 7128              9149  1                      IF    (R0,Z),BEGIN        No options...
                                    9163  2           *******  IF    CPVFPAGE,'SCINIT "PAGE INTRO"'  Page mode default
 0006C2                             9164  1                      END
                                    9168  1
 0006C2 712C/47F0 7160 006C2 006C0  9169  1                      ELSE  BEGIN               We have options...
 0006C6 58E0 7E56/0DEE       013F0  9180  2                        VCALL DEQUOTE             Dequote if quoted
 0006CC 47B0 7142            006DC  9184  2                        IF    NEG,BEGIN           Not quoted
 0006D0 58E0 B08C/D2AF_      0008C  9195  3                          SCRSTR AREA=HELPCMD
 0006DC                             9204  2                        END
 0006DC 7146/47F0 7160 006DC 006CE  9208  2                        ELSE  BEGIN               Quoted...
 0006E0 58E0 B08C/D2AF_      0008C  9219  3                          SCSAVE AREA=HELPOPTS
 0006EC 58E0 B08C/501E_      0008C  9228  3                          SCINIT (R1),(R0)
 0006FA                             9248  2                        END
 0006FA                             9252  1                      END
                                    9256  1
 0006FA 58E0 7E5A/0DEE       013F4  9257  1                      ACALL GETHDIR             Match text
 000700 4770 71B2            0074C  9261  1                      IF    Z,BEGIN
 000704 4110 7EF2/4100_      0148C  9272  2                        TSEG  'No help available for '
 000716 58E0 B08C/D2AF_      0008C  9290  2                        SCRSTR AREA=HELPCMD
 000722 58E0 B08C/581E_      0008C  9299  2                        SCINFO
 000730 58E0 7E5E/0DEE       013F8  9308  2                        VCALL LRTRIM
 000736 41F0 B050/58E0_      00050  9312  2                        TSEG  (R1),(R0),CR
 000740 4110 7ECE/4100_      01468  9336  2                        ERROR 'Type HELP for general information.'
 00074C                             9343  1                      END
                                    9347  1
 00074C 50F0 60D8            000D8  9348  1                      ST    R15,HELPDIR         Save addr of matching entry
 000750 D235 6002 F03C 00002 0003C  9349  1                      WITH  (HDIR,R15),'MVC HELPDSN,HDIRDSN'
 USING  HDIR,R15
 DROP   HDIR,R15
1HELP     (HELP2010) (12:46) (15MAR04) HELP Command                                                                         Page   13
0Current Usings:  (HELPWA,R6) (*,R7) (CP,R11) (CV,R12)
0Loc    Object Code    Addr1 Addr2  Stmt Lv Lineno    Source Statement           (Hibal 5, Asmedit 3.3)  HLASM R4.0  2004/03/15 12.46
+___    ______ ____    _____ _____  ____ __ ______    ______ _________
0                                   9373  1                      ¿þþþþþþþþþþþþþþþþþþþþþþþþþþþþþþþþþþþþþþþþþþþþþþþþÜ
                                    9374  1                      Ÿ  Save the remaining words in the token table.  Ÿ
                                    9375  1                      ¾þþþþþþþþþþþþþþþþþþþþþþþþþþþþþþþþþþþþþþþþþþþþþþþþ»
 000756 1B22                        9376  1                      CLEAR R2
 000758 4130 603A            0003A  9380  1                      LA    R3,HELPTOK          Start of table
                                    9381  1
 00075C                             9382  1           HELPSTAB   LOOP  BEGIN
 00075C 5810 B08C/1B00_      0008C  9389  2                        SCAN
 0007AA 58E0 7E52/0DEE       013EC  9420  2                        SCANCHK
 0007B0 1200/4780 7262              9425  2                        IF    (R0,Z),EXIT         All done, scram
 0007B6 5810 B08C/4111_      0008C  9442  2                        SCUPTOK (R1)
 0007BE 18F1                        9446  2                        LR    R15,R1
 0007C0 D503 7E66 F000_01400 00000  9447  2                        IF    (@R15,EQ,'ALL '),'SET HELFALL; EXIT HELPSTAB'
 0007D2 5900 7E6A/47D0_      01404  9477  2                        CEIL  R0,8
 0007DE 4200 3000            00000  9496  2                        STC   R0,@R3              Save length
 0007E2 D207 3001 F000 00001 00000  9497  2                        MVC   @R3+1(8),@R15       Save token
                                    9498  2
 0007E8 4130 3009            00009  9499  2                        LA    R3,@R3+L'HELPTOK
 0007EC 4120 2001            00001  9500  2                        LA    R2,@R2+1
 0007F0 5920 7E6E/47A0_      01408  9501  2                        IF    (R2,GE,HELPMAX#),EXIT  all done, scram
 0007F8 47F0 71C2            0075C  9521  1                      END
                                    9526  1
 0007FC 4020 6038            00038  9527  1                      STH   R2,HELPTNO          Save no. of tokens
                                    9528  1
 000800 58E0 B08C/D2AF_      0008C  9529  1                      SCRSTR AREA=HELPOPTS
 00080C                             9538                       END
                                    9542                       ¿þþþþþþþþþþþþþþþþþþþþþþþþþþþþþþþþþþÜ
                                    9543                       Ÿ  Scan for HELP command options.  Ÿ
                                    9544                       ¾þþþþþþþþþþþþþþþþþþþþþþþþþþþþþþþþþþ»
 00080C 5810 B08C/1B00_      0008C  9545                       SCAN  HELPPRT
 00085E 58E0 7E52/0DEE       013EC  9577                       SCANCHK
                                    9582                       ¿þþþþþþþþþþþþþþþþþþþþþþþþþþþþþþþþþþþþþþþþþþþþþþþþþþþþþþþþþþþÜ
                                    9583                       Ÿ  Now initialize and process the text from the help file.  Ÿ
                                    9584                       ¾þþþþþþþþþþþþþþþþþþþþþþþþþþþþþþþþþþþþþþþþþþþþþþþþþþþþþþþþþþþ»
 000864 4110 6002/4100_      00002  9585                       SCINIT HELPDSN
 00087A 58E0 7E76/0DEE       01410  9609                       VCALL DOFNAME             Scan dsname and place in FFINFO
 000880 58E0 7E7A/0DEE       01414  9613                       VCALL FNAMOPTS            Look for options with dsn
 000886 58E0 7E7E/0DEE       01418  9617                       VCALL FNAMEFIN            Find file type for dsn
 00088C 9610 BD50      00D50        9621                       SET   CPLFLG1.CPFALL      Read the entire range
 000890 9203 BD89      00D89        9628                       SET   CPFRDEXT            From an external file
 000894 58E0 7E82/0DEE       0141C  9634                       VCALL NDETRNG
                                    9638
 00089A 58E0 7E86/0DEE       01420  9639                       VCALL EXTOPENE            Open file
 0008A0 12FF/4780 734A              9643                       IF    (R15,NZ),BEGIN
 0008A6 D507 7E0E B886_013A8 00886  9657  1                      IF    (CPERRID,EQ,'NOACCESS'),BEGIN
 0008B0 0ADE/08200000B_             9674  2                        QSNAP CPCMD,32
 0008B8 41F0 B050/58E0_      00050  9678  2                        TCLEAR
 0008C2 4110 7E36/4100_      013D0  9692  2                        TSEG  'No help available.  '
 0008D4 4110 7ECE/4100_      01468  9710  2                        ABORT 'Type HELP for general information.'
 0008E0                             9717  1                      END
 0008E0 47F0 C7DE            007DE  9721  1                      B     CVNEXT
 0008E4                             9722                       END
1HELP     (HELP2010) (12:46) (15MAR04) HELP Command                                                                         Page   14
0Current Usings:  (HELPWA,R6) (*,R7) (CP,R11) (CV,R12)
0Loc    Object Code    Addr1 Addr2  Stmt Lv Lineno    Source Statement           (Hibal 5, Asmedit 3.3)  HLASM R4.0  2004/03/15 12.46
+___    ______ ____    _____ _____  ____ __ ______    ______ _________
0                                   9726                       ¿þþþþþþþþþþþþþþþþþþþþþþþþþþþþþþþþþþþþþþþþþþþþþþþþþþþþþþþþþþþþÜ
                                    9727                       Ÿ  RDRNG will call a routine in ACT to read through the      Ÿ
                                    9728                       Ÿ  external file, calling HELPRTN as a co-routine for        Ÿ
                                    9729                       Ÿ  each line it finds in the external file.  (Just in case   Ÿ
                                    9730                       Ÿ  you, too, were banging your head against the monitor      Ÿ
                                    9731                       Ÿ  trying to find where the next line gets read!)            Ÿ
                                    9732                       Ÿ                                                            Ÿ
                                    9733                       Ÿ  [For those who worked on WYLBUR in the 1970s, this        Ÿ
                                    9734                       Ÿ  replaces the old DESPOT interface.  That's really asking  Ÿ
                                    9735                       Ÿ  a lot of old gray cells...]                               Ÿ
                                    9736                       ¾þþþþþþþþþþþþþþþþþþþþþþþþþþþþþþþþþþþþþþþþþþþþþþþþþþþþþþþþþþþþ»
 0008E4 5800 7E8E/5810_      01428  9737                       RDRNG HELPRTN,(DESRTRN+LXCATRTN+UNPRST+DESABORT)
 0008F2 4780 736A/41F0_      00904  9744                       IF    NZ,'TCLEAR; B CVABORT'
 000904 58E0 7E9A/0DEE       01434  9775                       VCALL EXTCLOSE            Close current HELP so we can
                                    9779              *                                   open next if necessary
                                    9780                       ¿þþþþþþþþþþþþþþþþþþþþþþþþþþþþþþþþþþþþþþþþþþþþþþþþþþþþþþþþÜ
                                    9781                       Ÿ  If command has privileged parts, consider displaying  Ÿ
                                    9782                       Ÿ  them now.                                             Ÿ
                                    9783                       ¾þþþþþþþþþþþþþþþþþþþþþþþþþþþþþþþþþþþþþþþþþþþþþþþþþþþþþþþþ»
 00090A 58F0 60D8            000D8  9784                       L     R15,HELPDIR         Get back HELPDIR entry
 USING  HDIR,R15                    9785                       USING HDIR,R15
 00090E 9180 F03B/47E0_0003B        9794                       IF    HDIRPRIV,BEGIN
 000916 9120 B3BE/4710_003BE        9809  1                      IF    (CPSFSPR,OR,CPSFOPR),BEGIN   Show only to priv users
 000926 58F0 F000            00000  9838  2                        L     R15,HDIRLINK        Point at privileged entry
                                    9839  2           *                                  no checking for valid HELPDIR...
 00092A D235 6002 F03C 00002 0003C  9840  2                        MVC   HELPDSN,HDIRDSN     Set next HELP to display
 DROP   HDIR,R15                    9841  2                        DROP  R15
                                    9848  2                        ¿þþþþþþþþþþþþþþþþþþþþþþþþþþþþþþþþþþþþþþþþþþþþþþþþþþþþþþþþþþþÜ
                                    9849  2                        Ÿ  Now initialize and process the text from the privileged  Ÿ
                                    9850  2                        Ÿ  help file.                                               Ÿ
                                    9851  2                        ¾þþþþþþþþþþþþþþþþþþþþþþþþþþþþþþþþþþþþþþþþþþþþþþþþþþþþþþþþþþþ»
 000930 4110 6002/4100_      00002  9852  2                        SCINIT HELPDSN
 000946 58E0 7E76/0DEE       01410  9876  2                        VCALL DOFNAME             Scan dsname and place in FFINFO
 00094C 58F0 BE54            00E54  9880  2                        L     R15,CPFINFOP
 USING  FFINFO,R15                  9881  2                        USING FFINFO,R15
 000950 D703 F110 F110 00110 00110  9890  2                        XC    FFOPTSL,FFOPTSL     Clear options from previous
 000956 D7FF F114 F114 00114 00114  9891  2                        XC    FFOPTS,FFOPTS        file name
 DROP   FFINFO,R15                  9892  2                        DROP  R15
 00095C 58E0 7E7A/0DEE       01414  9899  2                        VCALL FNAMOPTS            Look for options with dsn
 000962 58E0 7E7E/0DEE       01418  9903  2                        VCALL FNAMEFIN            Find file type for dsn
 000968 9610 BD50      00D50        9907  2                        SET   CPLFLG1.CPFALL      Read the entire range
 00096C 9203 BD89      00D89        9914  2                        SET   CPFRDEXT            From an external file
 000970 58E0 7E82/0DEE       0141C  9920  2                        VCALL NDETRNG
                                    9924  2
 000976 58E0 7E86/0DEE       01420  9925  2                        VCALL EXTOPENE            Open file
 00097C 12FF/4770 7428              9929  2                        IF    (R15,Z),BEGIN        and if okay, do coroutine
 000982 9102 6000/47E0_00000        9943  3                          IF    HELFFND,BEGIN       If some HELP already given,
 00098A 1B00/41F0 B050_             9958  4                            TCR   ,                    inSert blank line
 000996 1B00/41F0 B050_             9983  4                            TCR   ,
 0009A2                            10008  3                          END   ,
 0009A2 5800 7E8E/5810_      01428 10012  3                          RDRNG HELPRTN,(DESRTRN+LXCATRTN+UNPRST+DESABORT)
 0009B0 4780 7428/41F0_      009C2 10019  3                          IF    NZ,'TCLEAR; B CVABORT'
 0009C2                            10050  2                        END   ,
 0009C2 742C/47F0 743E_009C2 00980 10054  2                        ELSEIF (CPERRID,EQ,'NOACCESS'),BEGIN
1HELP     (HELP2010) (12:46) (15MAR04) HELP Command                                                                         Page   15
0Current Usings:  (HELPWA,R6) (*,R7) (CP,R11) (CV,R12)
0Loc    Object Code    Addr1 Addr2  Stmt Lv Lineno    Source Statement           (Hibal 5, Asmedit 3.3)  HLASM R4.0  2004/03/15 12.46
+___    ______ ____    _____ _____  ____ __ ______    ______ _________
00009D0 0ADE/08200000B_            10080  3                          QSNAP CPCMD,32
 0009D8                            10084  2                        END   ,
 0009D8                            10088  1                      END   ,
 0009D8                            10092                       END   ,
                                   10096                       ¿þþþþþþþþþþþþþþþþþþþþþþþþþþþþþþþþþþþþþþþþþþþþþþþþþþþþþÜ
                                   10097                       Ÿ  If none of the options were found mention it now.  Ÿ
                                   10098                       ¾þþþþþþþþþþþþþþþþþþþþþþþþþþþþþþþþþþþþþþþþþþþþþþþþþþþþþ»
 0009D8 9102 6000/4710_00000       10099                       IF    ~HELFFND,BEGIN      Nothing...
 0009E0 D601 6038 6038_00038 00038 10114  1                      IF    (HELPTNO,Z),EXIT
 0009EA 1B00/41F0 B050_            10133  1                      TCR
 0009F6 4110 7F86/4100_      01520 10158  1                      TSEG  'There is no information available for: '
                                   10176  1
 000A08 4820 6038            00038 10177  1                      LH    R2,HELPTNO
 000A0C 4130 603A            0003A 10178  1                      LA    R3,HELPTOK
                                   10179  1
 000A10                            10180  1                      LOOP  BEGIN
 000A10 4110 3001/1F00_      00001 10186  2                        TSEG  @R3+1,LC:@R3,B
 000A24 4130 3009            00009 10217  2                        LA    R3,@R3+L'HELPTOK
 000A28 0620                       10218  2                        DECR  R2
 000A2A 1222/47D0 749A             10220  2                        UNTIL (R2,NP)
 000A30 47F0 7476            00A10 10238  1                      END
 000A34                            10243                       END
 000A34 47F0 C7DE            007DE 10247                       B     CVNEXT
                                   10248              *
                                   10249              *
 000A38 4040404040404040_          10250              HELPPRT  SCKW  ,V(COLLPSH),PUSH
 000A60 4040404040404040_          10265                       SCKW  ,V(INVALID)
                                   10280
 DROP   *,R7                       10281                       DROP  BR
1HELP     (HELP2010) (12:46) (15MAR04) HELP Command                                                                         Page   16
0Current Usings:  (HELPWA,R6) (CP,R11) (CV,R12)
0Loc    Object Code    Addr1 Addr2  Stmt Lv Lineno    Source Statement           (Hibal 5, Asmedit 3.3)  HLASM R4.0  2004/03/15 12.46
+___    ______ ____    _____ _____  ____ __ ______    ______ _________
0                                  10289              ¿þþþþþþþþþþþþþþþþþþþþþþþþþþþþþþþþþþþþþþþþþþþþþþþþþþþþþþþþþþþþþþþþþþþþþÜ
                                   10290              Ÿ                                                                     Ÿ
                                   10291              Ÿ  HELPRTN -- Routine to process lines from the help data set.        Ÿ
                                   10292              Ÿ                                                                     Ÿ
                                   10293              Ÿ    On entry:                                                        Ÿ
                                   10294              Ÿ      R1,R0 - line loc, len                                          Ÿ
                                   10295              Ÿ                                                                     Ÿ
                                                      ¾þþþþþþþþþþþþþþþþþþþþþþþþþþþþþþþþþþþþþþþþþþþþþþþþþþþþþþþþþþþþþþþþþþþþþ»
0000A88 50E0 D000/9028_      00000 10296              HELPRTN  XENTER R2,R8,,LOCAL
 USING  *,R7
 000AA2 5860 BCA4            00CA4 10314                       L     R6,CPCWA
                                   10315                       USING HELPWA,R6
                                   10317
 000AA6 9001 60D0            000D0 10318                       STM   R0,R1,HELPPTRS
                                   10319                       ¿þþþþþþþþþþþþþþþþþþþþþþþþþþþþþþþþÜ
                                   10320                       Ÿ  Check for internal .* lines.  Ÿ
                                   10321                       ¾þþþþþþþþþþþþþþþþþþþþþþþþþþþþþþþþ»
 000AAA 5900 799A/4750_      0143C 10322                       IF    ((R0,GE,2),AND,(@R1,EQ,'.*')),BEGIN
 000ABC 4B00 7A02            014A4 10354  1                      SH    R0,=H'2'
 000AC0 4110 1002/58E0_      00002 10355  1                      SCINIT @R1+2,(R0)
 000AD2 5810 B08C/1B00_      0008C 10378  1                      SCAN  HOPPRT              Look for control card words
 000B24 47F0 7278            00D1A 10410  1                      B     HOPEXIT             DONT check for errors
 000B28                            10411                       END
                                   10415                 ¿þþþþþþþþþþþþþþþþþþþþþþþþþþþþþþþþþþþþþþþþþþþþþþþþþþþþþþþþþþþþþþþþþþþþþþÜ
                                   10416                 Ÿ  Check for conditional sections.  Special conditional sections are:  Ÿ
                                   10417                 Ÿ          .cs 1     - never display this text.                        Ÿ
                                   10418                 Ÿ          .cs 7     - only display this text if privileged account.   Ÿ
                                   10419                 Ÿ          .cs 8     - only display this text if in line mode.         Ÿ
                                   10420                 Ÿ          .cs 9     - only display this text if in page mode.         Ÿ
                                   10421                 Ÿ          .cs 10-19 - never display this text.                        Ÿ
                                   10422                 ¾þþþþþþþþþþþþþþþþþþþþþþþþþþþþþþþþþþþþþþþþþþþþþþþþþþþþþþþþþþþþþþþþþþþþþþ»
 000B28 D207 BC88 1000 00C88 00000 10423                       MVC   CPDOUB,@R1          Retrieve the control token
 000B2E D607 BC88 C4D8 00C88 004D8 10424                       OC    CPDOUB,CVBLANKS     and uppercase it
 000B34 5900 79A2/4750_      01444 10425                       IF    ((R0,GE,3),AND,(CPDOUB,EQ,'.CS')),BEGIN
 000B46 4B00 7A04            014A6 10458  1                      SH    R0,=H'3'            If we have a .cs card
 000B4A 4110 1003/58E0_      00003 10459  1                      SCINIT @R1+3,(R0)         look for the .cs number
 000B5C 5810 B08C/1B00_      0008C 10482  1                      SCAN
 000BAA 12FF/4770 7278_            10513  1                      IF    ((R15,NZ),OR,(R0,Z)),HOPEXIT
 000BB6 58E0 79A6/0DEE       01448 10543  1                      DTB   (R1),(R0)           Convert .cs number to binary
 000BBC 4770 7278            00D1A 10558  1                      BNZ   HOPEXIT
 000BC0 182F                       10559  1                      LR    R2,R15              Save .cs number for later
                                   10560  1
 000BC2 5810 B08C/1B00_      0008C 10561  1                      SCAN
 000C10 12FF/4770 7278_            10592  1                      IF    ((R15,NZ),OR,(R0,Z)),HOPEXIT
 000C1C 5810 B08C/4111_      0008C 10622  1                      SCUPTOK (R1)
                                   10626  1           *
                                   10627  1           *                                  If .cs 1 or 10-19,
 000C24 5920 79AA/4780_      0144C 10628  1                      IF    ((R2,EQ,1),OR,((R2,GE,10),AND,(R2,LE,19))),BEGIN
 000C3C 94F7 6000      00000       10677  2                        CLEAR HELFSKIP
 000C40 D501 7A06 1000_014A8 00000 10684  2                        IF    (@R1,EQ,'ON'),'SET HELFSKIP'  skip this section
 000C4E                            10711  1                      END
                                   10715  1           *
                                   10716  1           *                                  If .cs 7, allow
1HELP     (HELP2010) (12:46) (15MAR04) HELP Command                                                                         Page   17
0Current Usings:  (HELPWA,R6) (*,R7) (CP,R11) (CV,R12)
0Loc    Object Code    Addr1 Addr2  Stmt Lv Lineno    Source Statement           (Hibal 5, Asmedit 3.3)  HLASM R4.0  2004/03/15 12.46
+___    ______ ____    _____ _____  ____ __ ______    ______ _________
0000C4E 5920 79B6/4770_      01458 10717  1                      IF    (R2,EQ,7),BEGIN      privileged accounts only...
 000C56 94F7 6000      00000       10734  2                        CLEAR HELFSKIP
 000C5A D501 7A06 1000_014A8 00000 10741  2                        IF    (@R1,EQ,'ON'),BEGIN
 000C64 9120 B3BE/4710_003BE       10757  3                          IF    (~CPSFSPR,AND,~CPSFOPR),'SET HELFSKIP'  skip it
 000C78                            10797  2                        END
 000C78                            10801  1                      END
                                   10805  1
 000C78 5920 7962/4770_      01404 10806  1                      IF    (R2,EQ,8),BEGIN     Line mode only...
 000C80 94F7 6000      00000       10823  2                        CLEAR HELFSKIP
 000C84 D501 7A06 1000_014A8 00000 10830  2                        IF    (@R1,EQ,'ON'),BEGIN
 000C8E 9180 BAC8/47E0_00AC8       10846  3                          IF    CPVFPAGE,'SET HELFSKIP'  skip if in page mode
 000C9A                            10872  2                        END
 000C9A                            10876  1                      END
                                   10880  1
 000C9A 5920 79BA/4770_      0145C 10881  1                      IF    (R2,EQ,9),BEGIN     Page mode only...
 000CA2 94F7 6000      00000       10898  2                        CLEAR HELFSKIP
 000CA6 D501 7A06 1000_014A8 00000 10905  2                        IF    (@R1,EQ,'ON'),BEGIN
 000CB0 9180 BAC8/4710_00AC8       10921  3                          IF    ~CPVFPAGE,'SET HELFSKIP'  skip if in line mode
 000CBC                            10947  2                        END
 000CBC                            10951  1                      END
 000CBC 47F0 7278            00D1A 10955  1                      B     HOPEXIT
 000CC0                            10956                       END
                                   10960                       ¿þþþþþþþþþþþþþþþþþþþþþþþþþþþþþþþþþþþþþþþþþþþÜ
                                   10961                       Ÿ  Skip text which is not to be displayed.  Ÿ
                                   10962                       ¾þþþþþþþþþþþþþþþþþþþþþþþþþþþþþþþþþþþþþþþþþþþ»
 000CC0 1200/47D0 723C             10963                       IF    (R0,POS),BEGIN
 000CC6 954B 1000/4780_00000       10977  1                      IF    (@R1,EQ,'.'),HOPEXIT
 000CCE 956B 1000/4780_00000       10996  1                      IF    (@R1,EQ,','),HOPEXIT
 000CD6 957A 1000/4780_00000       11015  1                      IF    (@R1,EQ,':'),HOPEXIT
 000CDE                            11034                       END
                                   11038                       ¿þþþþþþþþþþþþþþþþþþþþþþþþþþþþþþþþþþþþþþþþþþþþþþþþþþþÜ
                                   11039                       Ÿ  Don't display non-public help if not logged on.  Ÿ
                                   11040                       ¾þþþþþþþþþþþþþþþþþþþþþþþþþþþþþþþþþþþþþþþþþþþþþþþþþþþ»
 000CDE D604 B3B4 B3B4_003B4 003B4 11041                       IF    (CPSACCT,Z),BEGIN   Not logged on...
 000CE8 9140 6000/4710_00000       11057  1                      IF    HELFPUB,EXIT        It's ok to display public help
 000CF0 4110 7AA8/4100_      0154A 11075  1                      ABORT 'Please logon first.'
 000CFC                            11082                       END
                                   11086                       ¿þþþþþþþþþþþþþþþþþþþþþþþþþþþþþþþþþþþþþþþþþþþþþþþþþþþþþþþþþþþþþþÜ
                                   11087                       Ÿ  Now write the line, if it is from the appropriate section.  Ÿ
                                   11088                       ¾þþþþþþþþþþþþþþþþþþþþþþþþþþþþþþþþþþþþþþþþþþþþþþþþþþþþþþþþþþþþþþ»
 000CFC 9110 6000/47E0_00000       11089                       IF    (HELFMAT,AND,~HELFSKIP),BEGIN  Matched...
 000D0C 4DE0 7840            012E2 11118  1                      LCALL HTXTFMT             Do any re-formatting
                                   11120  1
 000D10 4DE0 7890            01332 11121  1                      LCALL HTXTLINE            Write line out in line mode
                                   11123  1
 000D14 D701 60CC 60CC 000CC 000CC 11124  1                      CLEAR HELPFNO             Reset working field number
 000D1A                            11131                       END
                                   11135
 000D1A                            11136              HOPEXIT  LABEL ,
 000D1A 18D8/58E0 D000_            11138                       XEXIT
 DROP   *,R7                       11143                       DROP  BR
1HELP     (HELP2010) (12:46) (15MAR04) HELP Command                                                                         Page   18
0Current Usings:  (HELPWA,R6) (CP,R11) (CV,R12)
0Loc    Object Code    Addr1 Addr2  Stmt Lv Lineno    Source Statement           (Hibal 5, Asmedit 3.3)  HLASM R4.0  2004/03/15 12.46
+___    ______ ____    _____ _____  ____ __ ______    ______ _________
0                                  11151              **
                                   11152              **  .* Control Lines
                                   11153              **
-000D28 D7E4C2D3C9C34040_          11155              HOPPRT   SCKW  PUBLIC,HOPPUB,A
 000D50 C4C5E2C3D9C9D7E3_          11170                       SCKW  DESCRIPTION,HOPDESC,A
 000D78 C6E4D5C3E3C9D6D5_          11185                       SCKW  FUNCTION,HOPDESC,A  (compatability)
 000DA0 D6D7E3C9D6D54040_          11200                       SCKW  OPTION,HOPOPTN,A
 000DC8 C2D3C1D5D2404040_          11215                       SCKW  BLANK,HOPBLANK,(A,P)
 000DF0 D5D6C2D3C1D5D240_          11230                       SCKW  NOBLANK,HOPNBLNK,A
 000E18 D7D9D6D4D7E34040_          11245                       SCKW  PROMPT,HOPPRMPT,(A,P)
 000E40 E2C5D3C5C3E34040_          11260                       SCKW  SELECT,HOPSEL,(A,P)
 000E68 4040404040404040_          11275                       SCKW  ,HOPDONE
1HELP     (HELP2010) (12:46) (15MAR04) HELP Command                                                                         Page   19
0Current Usings:  (HELPWA,R6) (CP,R11) (CV,R12)
0Loc    Object Code    Addr1 Addr2  Stmt Lv Lineno    Source Statement           (Hibal 5, Asmedit 3.3)  HLASM R4.0  2004/03/15 12.46
+___    ______ ____    _____ _____  ____ __ ______    ______ _________
0                                  11291              **
                                   11292              **
                                   11293              **
 000E90 50E0 D000/9008_      00000 11294              HOPDONE  PROC ,
 USING  *,R7
 000EAA 41F0 0004            00004 11333                       LA    R15,4
 000EAE 18D8/9808 D004_            11334                       PEND
 DROP   *,R7
                                   11354              **
                                   11355              **  .* PUBLIC control line.
                                   11356              **
 000EBC 50E0 D000/9008_      00000 11357              HOPPUB   PROC  ,
 USING  *,R7
 000ED6 9640 6000      00000       11396                       SET   HELFPUB             Allow this help before logon
 000EDA 41F0 0004            00004 11402                       LA    R15,4
 000EDE 18D8/9808 D004_            11403                       PEND
 DROP   *,R7
-                                  11424              **
                                   11425              **  .* DESCRIPTION control line.
                                   11426              **
 000EEC 50E0 D000/9008_      00000 11427              HOPDESC  PROC  ,
 USING  *,R7
 000F06 94EF 6000      00000       11466                       CLEAR HELFMAT
 000F0A D601 6038 6038_00038 00038 11473                       IF    (HELPTNO,Z),'SET HELFMAT'
 000F18 41F0 0004            00004 11500                       LA    R15,4
 000F1C 18D8/9808 D004_            11501                       PEND
 DROP   *,R7
-                                  11522              **
                                   11523              **  .* OPTION control line.
                                   11524              **
 000F2A 50E0 D000/9008_      00000 11525              HOPOPTN  PROC  ,
 USING  *,R7
 000F44 94EF 6000      00000       11564                       CLEAR HELFMAT             Assume no match
 000F48 9104 6000/47E0_00000       11571                       IF    HELFALL,'SET HELFMAT+HELFFND; B HOPOEXIT'  Everything
                                   11601
 000F58 5810 B08C/1B00_      0008C 11602                       SCAN  ,
 000FA6 12FF/4770 713E_            11633                       WHILE ((R15,Z),AND,(R0,POS)),BEGIN  Try to match an option..
 000FB2 4140 0003            00003 11662  1                      LA    R4,3
 000FB6 58E0 74AC/0DEE       013F0 11663  1                      VCALL DEQUOTE             De-quote, if needed
 000FBC 4740 7080/4140_      00FC4 11667  1                      IF    ~NEG,'LA R4,8'      Quoted means asis
 000FC4 7084/47F0 708C_00FC4 00FBE 11684  1                      ELSE  'SCUPTOK (R1)'      Not quoted use upper case
 000FD0 D207 BC88 C4D8 00C88 004D8 11704  1                      MVC   CPDOUB,CVBLANKS
 000FD6 18F0                       11705  1                      LR    R15,R0
 000FD8 59F0 74C0/47D0_      01404 11706  1                      CEIL  R15,8
 000FE4 06F0/12FF/4740_            11725  1                      MOVE  R15,CPDOUB,@R1
                                   11763  1
 000FF0 1B22                       11764  1                      CLEAR R2
 000FF2 4130 603A            0003A 11768  1                      LA    R3,HELPTOK
 000FF6 4920 6038/47B0_      00038 11769  1                      WHILE (R2,LT,HELPTNO),BEGIN  Go through tokens...
 000FFE 1FFF/43F0 3000             11788  2                        LC    R15,@R3             Saved token length
1HELP     (HELP2010) (12:46) (15MAR04) HELP Command                                                                         Page   20
0Current Usings:  (HELPWA,R6) (*,R7) (CP,R11) (CV,R12)
0Loc    Object Code    Addr1 Addr2  Stmt Lv Lineno    Source Statement           (Hibal 5, Asmedit 3.3)  HLASM R4.0  2004/03/15 12.46
+___    ______ ____    _____ _____  ____ __ ______    ______ _________
0001004 19F4/47B0 70C8_            11795  2                        FLOOR R15,R4              Allow abbreviations
 00100C 06F0/12FF/4740_            11801  2                        CMPR  R15,CPDOUB,@R3+1
 001018 4770 70E0/9612_      01024 11839  2                        IF    EQ,'SET HELFMAT+HELFFND; B HOPOEXIT'  Matched, scram
                                   11865  2
 001024 4130 3009            00009 11866  2                        LA    R3,@R3+L'HELPTOK
 001028 4120 2001            00001 11867  2                        LA    R2,@R2+1
 00102C 47F0 70B2            00FF6 11868  1                      END
 001030 5810 B08C/1B00_      0008C 11873  1                      SCAN  ,
 00107E 47F0 7062            00FA6 11904                       END
                                   11909
 001082 41F0 0004            00004 11910              HOPOEXIT LA    R15,4
 001086 18D8/9808 D004_            11911                       PEND  ,
 DROP   *,R7
1HELP     (HELP2010) (12:46) (15MAR04) HELP Command                                                                         Page   21
0Current Usings:  (HELPWA,R6) (CP,R11) (CV,R12)
0Loc    Object Code    Addr1 Addr2  Stmt Lv Lineno    Source Statement           (Hibal 5, Asmedit 3.3)  HLASM R4.0  2004/03/15 12.46
+___    ______ ____    _____ _____  ____ __ ______    ______ _________
0                                  11932              **
                                   11933              **  .BLANK/.NOBLANK control lines.
                                   11934              **
 001094 50E0 D000/9008_      00000 11935              HOPBLANK PROC  ,
 USING  *,R7
 0010AE 58E0 7342/0DEE       013F0 11974                       VCALL DEQUOTE             De-quote, if quoted
 0010B4 4780 7022            010D0 11978                       BZ    HOPNBLNK
 0010B8 D200 6001 1000 00001 00000 11979                       MVC   HELPBLNK,@R1        New blank char
 0010BE 41F0 0004            00004 11980                       LA    R15,4
 0010C2 18D8/9808 D004_            11981                       PEND
 DROP   *,R7
                                   12001
 0010D0 50E0 D000/9008_      00000 12002              HOPNBLNK PROC  ,
 USING  *,R7
 0010EA 9200 6001      00001       12041                       CLEAR HELPBLNK            No blank char
 0010EE 41F0 0004            00004 12048                       LA    R15,4
 0010F2 18D8/9808 D004_            12049                       PEND
 DROP   *,R7
1HELP     (HELP2010) (12:46) (15MAR04) HELP Command                                                                         Page   22
0Current Usings:  (HELPWA,R6) (CP,R11) (CV,R12)
0Loc    Object Code    Addr1 Addr2  Stmt Lv Lineno    Source Statement           (Hibal 5, Asmedit 3.3)  HLASM R4.0  2004/03/15 12.46
+___    ______ ____    _____ _____  ____ __ ______    ______ _________
0                                  12070              **
                                   12071              **  .* PROMPT control line.
                                   12072              **
 001100 50E0 D000/9008_      00000 12073              HOPPRMPT PROC  ,
 USING  *,R7
 00111A 9110 6000/47E0_00000       12112                       IF    (HELFMAT,AND,~HELFSKIP),BEGIN  Matched...
 00112A 9180 BD55/4710_00D55       12141  1                      IF    CPFDUMP,EXIT        Skip if collecting text
                                   12159  1
 001132 58E0 72D6/0DEE       013F0 12160  1                      VCALL DEQUOTE             De-quote, if quoted
 001138 58E0 7346/0DEE       01460 12164  1                      VCALL YESRTN              Get a yes/no
 00113E 4740 C7DA            007DA 12168  1                      BM    CVABORT             Attn, scram
 001142 47D0 7030/94EF_      0114A 12169  1                      IF    POS,'CLEAR HELFMAT'  Skip the rest of the section
 00114A                            12192                       END
 00114A 41F0 0004            00004 12196                       LA    R15,4
 00114E 18D8/9808 D004_            12197                       PEND  ,
 DROP   *,R7
1HELP     (HELP2010) (12:46) (15MAR04) HELP Command                                                                         Page   23
0Current Usings:  (HELPWA,R6) (CP,R11) (CV,R12)
0Loc    Object Code    Addr1 Addr2  Stmt Lv Lineno    Source Statement           (Hibal 5, Asmedit 3.3)  HLASM R4.0  2004/03/15 12.46
+___    ______ ____    _____ _____  ____ __ ______    ______ _________
0                                  12218              **
                                   12219              **  .* SELECT control line.
                                   12220              **
 00115C 50E0 D000/9008_      00000 12221              HOPSEL   PROC  ,
 USING  *,R7
 001176 9110 6000/47E0_00000       12260                       IF    (HELFMAT,AND,~HELFSKIP),BEGIN
 001186 9180 BD55/4710_00D55       12289  1                      IF    CPFDUMP,EXIT        Skip if collecting text
 00118E 9180 BAC8/4710_00AC8       12307  1                      IF    CPVFPAGE,EXIT       Skip if in page mode
 001196 D601 6038 6038_00038 00038 12325  1                      IF    (HELPTNO,NZ),EXIT   Skip if there are some words
 0011A0 9104 6000/4710_00000       12344  1                      IF    HELFALL,EXIT        Show everything
                                   12362  1
 0011A8 9180 BD55/47E0_00D55       12363  1                      IF    CPFDUMP,'SET HELFALL; B HOPSEXIT'
                                   12390  1
 0011B8 9001 D000/41D0_      00000 12391  1                      XPUSH R0,R1
 0011C0 D701 60CA 60CA 000CA 000CA 12394  1                      CLEAR HELPBCNT            Zot any pending CRs
 0011C6 1B00/41F0 B050_            12401  1                      TCR
 0011D2 4110 7334/4100_      014AA 12426  1                      TSEG  'Type any options you would like to get information'
 0011E4 4110 73E7/4100_      0155D 12444  1                      TSEG  ' about.',,CR
                                   12462  1
 0011F6 4BD0 7366/9801_      014DC 12463  1                      XPOP  R0,R1
 0011FE 58E0 727A/0DEE       013F0 12466  1                      VCALL DEQUOTE             De-quote, if quoted
 001204 41F0 B050/58E0_      00050 12470  1                      TSEG  (R1),(R0)
 00120E 4110 723A/4100_      013B0 12494  1                      TREAD ' (<RETURN>=everything)? '
 00121E 4770 C7DE            007DE 12508  1                      BNZ   CVNEXT
                                   12509  1                      ¿þþþþþþþþþþþþþþþþþþþþþþþþþþþþþþþþþþþþþþÜ
                                   12510  1                      Ÿ  Save the words in the token table.  Ÿ
                                   12511  1                      ¾þþþþþþþþþþþþþþþþþþþþþþþþþþþþþþþþþþþþþþ»
 001222 58E0 B08C/501E_      0008C 12512  1                      SCINIT (R1),(R0)
                                   12532  1
 001230 1B22                       12533  1                      CLEAR R2
 001232 4130 603A            0003A 12537  1                      LA    R3,HELPTOK          Start of table
                                   12538  1
 001236                            12539  1                      LOOP  BEGIN
 001236 5810 B08C/1B00_      0008C 12545  2                        SCAN
 001284 58E0 7276/0DEE       013EC 12576  2                        SCANCHK
 00128A 58F0 B08C/41FF_      0008C 12581  2                        SCUPTOK (R15)
 001292 1200/4780 714C             12585  2                        IF    (R0,Z),EXIT              All done, scram
 001298 5900 728E/47D0_      01404 12602  2                        CEIL  R0,8
 0012A4 4200 3000            00000 12621  2                        STC   R0,@R3              Save length
 0012A8 D207 3001 F000 00001 00000 12622  2                        MVC   @R3+1(8),@R15       Save token
                                   12623  2
 0012AE 4130 3009            00009 12624  2                        LA    R3,@R3+L'HELPTOK
 0012B2 4120 2001            00001 12625  2                        LA    R2,@R2+1
 0012B6 5920 7292/47A0_      01408 12626  2                        IF    (R2,GE,HELPMAX#),EXIT  all done, scram
 0012BE 47F0 70C0            01236 12646  1                      END
                                   12651  1
 0012C2 4020 6038            00038 12652  1                      STH   R2,HELPTNO          Save no. of tokens
 0012C6 1222/4770 715A_            12653  1                      IF    (R2,Z),'SET HELFALL'  Display everything
 0012D0                            12678                       END
                                   12682
 0012D0                            12683              HOPSEXIT LABEL ,
 0012D0 41F0 0004            00004 12685                       LA    R15,4
 0012D4 18D8/9808 D004_            12686                       PEND
 DROP   *,R7
1HELP     (HELP2010) (12:46) (15MAR04) HELP Command                                                                         Page   24
0Current Usings:  (HELPWA,R6) (CP,R11) (CV,R12)
0Loc    Object Code    Addr1 Addr2  Stmt Lv Lineno    Source Statement           (Hibal 5, Asmedit 3.3)  HLASM R4.0  2004/03/15 12.46
+___    ______ ____    _____ _____  ____ __ ______    ______ _________
0                                  12707              ¿þþþþþþþþþþþþþþþþþþþþþþþþþþþþþþþþþþþþþþþþþþþþþþþþþþþþþþþþþþþþþþþþþþþþþÜ
                                   12708              Ÿ                                                                     Ÿ
                                   12709              Ÿ  HTXTFMT -- Local routine to do any re-formatting of a line of      Ÿ
                                   12710              Ÿ    help text.                                                       Ÿ
                                   12711              Ÿ                                                                     Ÿ
                                   12712              Ÿ    On entry:                                                        Ÿ
                                   12713              Ÿ      R1,R0 - line loc, len                                          Ÿ
                                   12714              Ÿ                                                                     Ÿ
                                                      ¾þþþþþþþþþþþþþþþþþþþþþþþþþþþþþþþþþþþþþþþþþþþþþþþþþþþþþþþþþþþþþþþþþþþþþ»
00012E2 50E0 D000/9028_      00000 12715              HTXTFMT  XENTER R2,R8,,LOCAL
 USING  *,R7
 0012FC 9500 6001/4780_00001       12733                       IF    (HELPBLNK,NZ),BEGIN  Blank char...
 001304 1831                       12749  1                      LR    R3,R1
 001306 1820                       12750  1                      LR    R2,R0
                                   12751  1
 001308 1222/47D0 702A             12752  1                      WHILE (R2,POS),BEGIN
 00130E D500 6001 3000_00001 00000 12768  2                        IF    (@R3,EQ,HELPBLNK),'MVI @R3,C" "'  blank out
 00131C 4130 3001            00001 12791  2                        LA    R3,@R3+1
 001320 0620                       12792  2                        DECR  R2
 001322 47F0 700C            01308 12794  1                      END
 001326                            12799                       END
 001326 18D8/58E0 D000_            12803                       XEXIT
 DROP   *,R7                       12808                       DROP  BR
1HELP     (HELP2010) (12:46) (15MAR04) HELP Command                                                                         Page   25
0Current Usings:  (HELPWA,R6) (CP,R11) (CV,R12)
0Loc    Object Code    Addr1 Addr2  Stmt Lv Lineno    Source Statement           (Hibal 5, Asmedit 3.3)  HLASM R4.0  2004/03/15 12.46
+___    ______ ____    _____ _____  ____ __ ______    ______ _________
0                                  12816              ¿þþþþþþþþþþþþþþþþþþþþþþþþþþþþþþþþþþþþþþþþþþþþþþþþþþþþþþþþþþþþþþþþþþþþþÜ
                                   12817              Ÿ                                                                     Ÿ
                                   12818              Ÿ  HTXTLINE -- Local routine to display a line of help text in line   Ÿ
                                   12819              Ÿ    mode.                                                            Ÿ
                                   12820              Ÿ                                                                     Ÿ
                                   12821              Ÿ    On entry:                                                        Ÿ
                                   12822              Ÿ      R1,R0 - line loc, len                                          Ÿ
                                   12823              Ÿ                                                                     Ÿ
                                                      ¾þþþþþþþþþþþþþþþþþþþþþþþþþþþþþþþþþþþþþþþþþþþþþþþþþþþþþþþþþþþþþþþþþþþþþ»
0001332 50E0 D000/9028_      00000 12824              HTXTLINE XENTER R2,R8,,LOCAL
 USING  *,R7
 00134C 1200/4770 7012_            12842                       IF    (R0,Z),'INCR R15,HELPBCNT'  blank line count
                                   12867
 00135E 7016/47F0 704E 0135E 01350 12868                       ELSE  BEGIN
 001362 1851                       12879  1                      LR    R5,R1
 001364 1840                       12880  1                      LR    R4,R0
                                   12881  1
 001366 4820 60CA            000CA 12882  1                      LH    R2,HELPBCNT
 00136A 1222/47D0 7036_            12883  1                      WHILE (R2,POS),'TCR; DECR R2'
 001382 D701 60CA 60CA 000CA 000CA 12932  1                      CLEAR HELPBCNT
                                   12939  1
 001388 1815/1804/41F0_            12940  1                      TSEG  (R5),(R4),CR        Write out the line
 001396 4770 C7DA            007DA 12966  1                      BNZ   CVABORT
 00139A                            12967                       END
                                   12971
 00139A 18D8/58E0 D000_            12972                       XEXIT
 DROP   *,R7                       12977                       DROP  BR
                                   12984
 DROP   HELPWA,R6                  12985                       DROP  HELPWA
                                   12993
                                   12994                       QLTORG
                                   13061                       VLTORG
 001578                01578 01578 13069                       END   .

1HELP     (HELP2010) (12:46) (15MAR04) Relocation Dictionary                                                                Page   26
-   Pos.Id   Rel.Id   Flags    Address                                                       HLASM R4.0  2004/03/15 12.46
0  00000001 00000001    0C    000001D8
   00000001 00000001    0C    00000200
   00000001 00000001    0C    00000228
   00000001 00000001    0C    000003A8
   00000001 00000001    0C    000003B8
   00000001 00000001    0C    00000D4C
   00000001 00000001    0C    00000D74
   00000001 00000001    0C    00000D9C
   00000001 00000001    0C    00000DC4
   00000001 00000001    0C    00000DEC
   00000001 00000001    0C    00000E14
   00000001 00000001    0C    00000E3C
   00000001 00000001    0C    00000E64
   00000001 00000001    0C    00000E8C
   00000001 00000001    0C    000013F4
   00000001 00000001    0C    0000140C
   00000001 00000001    0C    0000142C
   00000001 00000001    0C    00001440
   00000001 00000002    1C    000001D4
   00000001 00000002    1C    000001FC
   00000001 00000002    1C    00000D48
   00000001 00000002    1C    00000D70
   00000001 00000002    1C    00000D98
   00000001 00000002    1C    00000DC0
   00000001 00000002    1C    00000E10
   00000001 00000003    1C    00000224
   00000001 00000003    1C    00000A80
   00000001 00000003    1C    00000E88
   00000001 00000004    1C    00000360
   00000001 00000004    1C    000013FC
   00000001 00000005    1C    00000388
   00000001 00000005    1C    000013C8
   00000001 00000006    1C    0000038C
   00000001 00000006    1C    000013E4
   00000001 00000007    1C    00000390
   00000001 00000007    1C    00001410
   00000001 00000008    1C    00000394
   00000001 00000008    1C    00001414
   00000001 00000009    1C    00000398
   00000001 00000009    1C    00001418
   00000001 0000000A    1C    0000039C
   00000001 0000000A    1C    0000141C
   00000001 0000000B    1C    000003A0
   00000001 0000000C    1C    000003AC
   00000001 0000000C    1C    00001430
   00000001 0000000D    1C    000003B0
   00000001 0000000D    1C    00001434
   00000001 0000000E    1C    000003BC
   00000001 0000000E    1C    00000570
   00000001 0000000E    1C    000013E8
   00000001 0000000F    1C    000003C0
   00000001 0000000F    1C    000013F8
   00000001 00000010    1C    000003CC
   00000001 00000010    1C    000013F0
   00000001 00000011    1C    00000574
1HELP     (HELP2010) (12:46) (15MAR04) Relocation Dictionary                                                                Page   27
   00000001 00000011    1C    000013EC
   00000001 00000012    1C    00000A5C
   00000001 00000013    1C    00000A84
   00000001 00000014    1C    00000DE8
   00000001 00000014    1C    00000E38
   00000001 00000014    1C    00000E60
   00000001 00000015    1C    000013CC
   00000001 00000016    1C    00001420
   00000001 00000017    1C    00001424
   00000001 00000018    1C    00001438
   00000001 00000019    1C    00001448
   00000001 0000001A    1C    00001460
   00000001 0000001B    1C    00001464

1HELP     (HELP2010) (12:46) (15MAR04) Ordinary Symbol and Literal Cross Reference                                          Page   28
-Symbol   Length   Value     Id    R Type   Defn References                                  HLASM R4.0  2004/03/15 12.46
0$$$@R0        1 00000000 FFFFFFFE     J     705  1015
 $$$@R10       1 00000000 FFFFFFF4     J     835  1079
 $$$@R11       1 00000000 FFFFFFF3     J     848  1092
 $$$@R12       1 00000000 FFFFFFF2     J     861  1105
 $$$@R13       1 00000000 FFFFFFF1     J     874  1118
 $$$@R14       1 00000000 FFFFFFF0     J     887  1131
 $$$@R7        1 00000000 FFFFFFF7     J     796  1028
 $$$@R8        1 00000000 FFFFFFF6     J     809  1041   1053
 $$$@R9        1 00000000 FFFFFFF5     J     822  1066
 $$$C1WYLHELP
               1 000003FE 00000001     J    8283  8285   8316   8656
 $$$C2WYLHELP
               1 00000588 00000001     J    8763  8765   8839   9076  11757  11833
 $$$C3WYLHELP
               1 00001576 00000001     J   13056 13058
 $$$C4WYLHELP
               1 00001578 00000001     J   13072 13074
 $$$D0WYLHELP
               1 000003F2 00000001     J     991  7937   8190
 $$$D1WYLHELP
               1 00000582 00000001     J    8284  8645
 $$$D2WYLHELP
               1 00001564 00000001     J    8764  9065  11746  11822
 $$$RCP        1 00000000 FFFFFFEC     J    2452  4712   6186   6186
 $$$RCV        1 00000000 FFFFFFEE     J    1177  2362   2362
 $$$RDEV       1 00000000 FFFFFFEB     J    4666  4711   4711
 $$$RFFINFO
               1 00000000 FFFFFFE4     J    7054  7263   7263
 $$$RGHWA      1 00000000 FFFFFFE3     J    8302  8315   8315
 $$$RHDIR      1 00000000 FFFFFFE6     J    6978  7010   7010
 $$$RHELPWA
               1 00000000 FFFFFFE2     J    8772  8838   8838
 $$$RJCB       1 00000000 FFFFFFE8     J    6587  6861   6861
 $$$RKWR       1 00000000 FFFFFFE9     J    6376  6581   6581
 $$$RNSCNCB
               1 00000000 FFFFFFED     J    2373  2446   2446
 $$$RSEGCB
               1 00000000 FFFFFFE7     J    6867  6967   6967
 $$$RSHLPWA
               1 00000000 FFFFFFE5     J    7016  7032   7032
 $$$RTTYPE
               1 00000000 FFFFFFEA     J    6197  6298   6298
 $$$SEGCB0
               4 00000050 FFFFFFEC     F    2483  2569   2569
 $$$101B       4 00000448 00000001     I    8450  8517
 $$$101F       2 000004A6 00000001     H    8511  8450B  8516
 $$$103E       2 000004AA 00000001     H    8524  8518
 $$$103F       2 00000558 00000001     H    8710  8520B
 $$$104F       2 00000558 00000001     H    8706  8540B
 $$$104S       2 000004AE 00000001     H    8533  8705B
 $$$106F       2 0000051E 00000001     H    8604  8595B
 $$$107F       2 0000052A 00000001     H    8623  8614B
 $$$108F       2 00000536 00000001     H    8661  8637B
 $$$109        6 00000582 00000001     I    8651  8643X
 $$$110        6 00000582 00000001     I    8650  8651   8651
1HELP     (HELP2010) (12:46) (15MAR04) Ordinary Symbol and Literal Cross Reference                                          Page   29
 $$$111F       2 0000054C 00000001     H    8699  8675B
 $$$113        1 00000100 00000001 A   U    8748  8745   8747
 $$$114B       1 0000059A 00000001     X    8856  8863U
 $$$115F       2 000005DE 00000001     H    8932  8899B
 $$$116F       2 000005EA 00000001     H    8960  8945B
 $$$117B       4 00000604 00000001     I    8988  9095
 $$$117F       2 00000658 00000001     H    9089  8988B  9094
 $$$118F       2 00000630 00000001     H    9037  9004B
 $$$119F       2 00000648 00000001     H    9081  9054B
 $$$120        6 00001564 00000001     I    9071  9063X
 $$$121        6 00001564 00000001     I    9070  9071   9071
 $$$122E       2 0000065C 00000001     H    9102  9096
 $$$122F       2 0000080C 00000001     H    9541  9098B
 $$$123B       4 000006BE 00000001     I    9158  9171
 $$$123F       2 000006C2 00000001     H    9167  9158B  9170
 $$$124E       2 000006C6 00000001     H    9178  9172
 $$$124F       2 000006FA 00000001     H    9255  9174B
 $$$125B       4 000006CC 00000001     I    9190  9210
 $$$125F       2 000006DC 00000001     H    9207  9190B  9209
 $$$126E       2 000006E0 00000001     H    9217  9211
 $$$126F       2 000006FA 00000001     H    9251  9213B
 $$$127F       2 0000074C 00000001     H    9346  9267B
 $$$128F       2 000007FC 00000001     H    9525  9436B  9472B  9515B
 $$$128S       2 0000075C 00000001     H    9387  9524B
 $$$130F       2 000007D2 00000001     H    9476  9458B
 $$$131F       2 000007DE 00000001     H    9495  9486B
 $$$134F       2 000008E4 00000001     H    9725  9652B
 $$$135F       2 000008E0 00000001     H    9720  9669B
 $$$136F       2 00000904 00000001     H    9774  9750B
 $$$137F       2 000009D8 00000001     H   10095  9804B
 $$$138F       2 000009D8 00000001     H   10091  9833B
 $$$138T       2 00000926 00000001     H    9836  9823B
 $$$141B       4 0000097E 00000001     I    9938 10057
 $$$141F       2 000009C2 00000001     H   10053  9938B 10056
 $$$142F       2 000009A2 00000001     H   10011  9953B
 $$$143F       2 000009C2 00000001     H   10049 10025B
 $$$144E       2 000009C6 00000001     H   10064 10058
 $$$144F       2 000009D8 00000001     H   10087 10060B 10075B
 $$$146F       2 00000A34 00000001     H   10246 10109B 10127B
 $$$148F       2 00000A34 00000001     H   10242 10233B
 $$$148S       2 00000A10 00000001     H   10184 10241B
 $$$151B       1 00000AA2 00000001     X   10305 10312U
 $$$152F       2 00000B28 00000001     H   10414 10336B 10349B
 $$$154F       2 00000CC0 00000001     H   10959 10439B 10453B
 $$$160F       2 00000C4E 00000001     H   10714 10658B 10672B
 $$$160T       2 00000C3C 00000001     H   10675 10644B
 $$$163F       2 00000C4E 00000001     H   10710 10695B
 $$$164F       2 00000C78 00000001     H   10804 10729B
 $$$165F       2 00000C78 00000001     H   10800 10752B
 $$$166F       2 00000C78 00000001     H   10796 10769B 10781B
 $$$168F       2 00000C9A 00000001     H   10879 10818B
 $$$169F       2 00000C9A 00000001     H   10875 10841B
 $$$170F       2 00000C9A 00000001     H   10871 10856B
 $$$171F       2 00000CBC 00000001     H   10954 10893B
 $$$172F       2 00000CBC 00000001     H   10950 10916B
 $$$173F       2 00000CBC 00000001     H   10946 10931B
 $$$174F       2 00000CDE 00000001     H   11037 10972B
 $$$178F       2 00000CFC 00000001     H   11085 11052B 11069B
 $$$180F       2 00000D1A 00000001     H   11134 11101B 11113B
1HELP     (HELP2010) (12:46) (15MAR04) Ordinary Symbol and Literal Cross Reference                                          Page   30
 $$$183B       1 00000EAA 00000001     X   11317 11324U
 $$$184        1 00000050 00000001 A   U   11351 11348  11350
 $$$186B       1 00000ED6 00000001     X   11380 11387U
 $$$187        1 00000050 00000001 A   U   11420 11417  11419
 $$$189B       1 00000F06 00000001     X   11450 11457U
 $$$190F       2 00000F18 00000001     H   11499 11484B
 $$$191        1 00000050 00000001 A   U   11518 11515  11517
 $$$193B       1 00000F44 00000001     X   11548 11555U
 $$$194F       2 00000F58 00000001     H   11600 11581B
 $$$195F       2 00001082 00000001     H   11908 11646B 11657B
 $$$195S       2 00000FA6 00000001     H   11638 11907B
 $$$198B       4 00000FBC 00000001     I   11673 11686
 $$$198F       2 00000FC4 00000001     H   11683 11673B 11685
 $$$199E       2 00000FC8 00000001     H   11693 11687
 $$$199F       2 00000FD0 00000001     H   11703 11689B
 $$$200F       2 00000FE4 00000001     H   11724 11715B
 $$$201F       2 00000FF0 00000001     H   11762 11738B
 $$$202        6 0000156A 00000001     I   11752 11744X
 $$$203        6 0000156A 00000001     I   11751 11752  11752
 $$$204F       2 00001030 00000001     H   11872 11783B
 $$$204S       2 00000FF6 00000001     H   11774 11871B
 $$$206F       2 00001018 00000001     H   11838 11814B
 $$$207        6 00001570 00000001     I   11828 11820X
 $$$208        6 00001570 00000001     I   11827 11828  11828
 $$$209F       2 00001024 00000001     H   11864 11845B
 $$$210        1 00000050 00000001 A   U   11928 11925  11927
 $$$212B       1 000010AE 00000001     X   11958 11965U
 $$$213        1 00000050 00000001 A   U   11998 11995  11997
 $$$215B       1 000010EA 00000001     X   12025 12032U
 $$$216        1 00000050 00000001 A   U   12066 12063  12065
 $$$218B       1 0000111A 00000001     X   12096 12103U
 $$$219F       2 0000114A 00000001     H   12195 12124B 12136B 12153B
 $$$222F       2 0000114A 00000001     H   12191 12175B
 $$$223        1 00000050 00000001 A   U   12214 12211  12213
 $$$225B       1 00001176 00000001     X   12244 12251U
 $$$226F       2 000012D0 00000001     H   12681 12272B 12284B 12301B 12319B 12338B 12356B
 $$$232F       2 000011B8 00000001     H   12389 12373B
 $$$233F       2 000012C2 00000001     H   12650 12596B 12640B
 $$$233S       2 00001236 00000001     H   12543 12649B
 $$$235F       2 000012A4 00000001     H   12620 12611B
 $$$237F       2 000012D0 00000001     H   12677 12662B
 $$$238        1 00000050 00000001 A   U   12703 12700  12702
 $$$239B       1 000012FC 00000001     X   12724 12731U
 $$$240F       2 00001326 00000001     H   12802 12744B
 $$$241F       2 00001326 00000001     H   12798 12763B
 $$$241S       2 00001308 00000001     H   12757 12797B
 $$$243F       2 0000131C 00000001     H   12790 12780B
 $$$244B       1 0000134C 00000001     X   12833 12840U
 $$$245B       4 0000134E 00000001     I   12851 12870
 $$$245F       2 0000135E 00000001     H   12866 12851B 12869
 $$$246E       2 00001362 00000001     H   12877 12871
 $$$246F       2 0000139A 00000001     H   12970 12873B
 $$$247F       2 00001382 00000001     H   12931 12894B
 $$$247S       2 0000136A 00000001     H   12888 12930B
 $$$64B        1 00000026 00000001     X    7282  7289U
 $$$65B        4 0000002A 00000001     I    7303  7395
 $$$65F        2 00000064 00000001     H    7392  7303B  7394
 $$$66F        2 0000004E 00000001     H    7369  7322B  7337B
 $$$68E        2 00000068 00000001     H    7402  7396
1HELP     (HELP2010) (12:46) (15MAR04) Ordinary Symbol and Literal Cross Reference                                          Page   31
 $$$68F        2 00000068 00000001     H    7410  7398B
 $$$72F        2 000000EA 00000001     H    7560  7547B
 $$$73F        2 0000011C 00000001     H    7615  7576B
 $$$73S        2 000000F2 00000001     H    7570  7614B
 $$$75B        1 0000013A 00000001     X    7652  7659U
 $$$77B        1 00000246 00000001     X    7823  7830U
 $$$78F        2 00000252 00000001     H    7864  7850B
 $$$80F        2 00000278 00000001     H    7913  7904B
 $$$81F        2 0000028C 00000001     H    7953  7929B
 $$$82         6 000003F2 00000001     I    7943  7935X
 $$$83         6 000003F2 00000001     I    7942  7943   7943
 $$$84B        4 000002A8 00000001     I    7978  7991
 $$$84F        2 000002B4 00000001     H    7988  7978B  7990
 $$$85E        2 000002B8 00000001     H    7998  7992
 $$$85F        2 000002C4 00000001     H    8029  7994B
 $$$86         1 00000050 00000001 A   U    8050  8047   8049
 $$$88B        1 000002F0 00000001     X    8077  8084U
 $$$89F        2 00000306 00000001     H    8122  8112B
 $$$90F        2 00000328 00000001     H    8148  8138B
 $$$91F        2 00000336 00000001     H    8168  8159B
 $$$92F        2 00000342 00000001     H    8206  8182B
 $$$93         6 000003F8 00000001     I    8196  8188X
 $$$94         6 000003F8 00000001     I    8195  8196   8196
 $$$95         1 00000050 00000001 A   U    8232  8229   8231
 $$$97B        1 00000418 00000001     X    8345  8352U
 $$$98F        2 00000560 00000001     H    8723  8413B  8713B
 $$$98S        2 00000428 00000001     H    8386  8722B
 $USINTMS      1 00000004 00000001 A   U    6328  6339
 $USINTSY      1 00000008 00000001 A   U    6330  6339
 $USINTUS      1 00000002 00000001 A   U    6326  6339
 $USSTC        1 00000020 00000001 A   U    6334  6339
 @RAR          0 00000000 FFFFFFF0     @    1132  2160   2168B
 @R0           0 00000000 FFFFFFFE     @     706   982U
 @R1           0 00000000 FFFFFFFD     @     719   978U  2166   2167   7849   7942   7964M  8195   8944   9070  10348
                                                 10365  10423  10469  10694  10751  10840  10915  10987  11006  11025
                                                 11751  11979
 @R10          0 00000000 FFFFFFF4     @     836   942U
 @R11          0 00000000 FFFFFFF3     @     849   938U
 @R12          0 00000000 FFFFFFF2     @     862   934U
 @R13          0 00000000 FFFFFFF1     @     875   930U  7644M 10297M 12716M 12825M
 @R14          0 00000000 FFFFFFF0     @     888   926U  8374   8433M  9108   9199M  9223   9294M  9533M
 @R15          0 00000000 FFFFFFEF     @     901   922U  8023U  8650   8687   9371U  9457   9497   9846U  9897U 11794U
                                                 12622
 @R2           0 00000000 FFFFFFFC     @     732   974U  8126M  8127M  8144M  8195M  8701   9084M  9085M  9500  11867
                                                 12625
 @R3           0 00000000 FFFFFFFB     @     745   970U  8099U  8207   8428U  9496M  9497M  9499  10196  10204  10217
                                                 11793  11827  11866  12621M 12622M 12624  12779  12786M 12791
 @R4           0 00000000 FFFFFFFA     @     758   966U  8650   8674   8687   8700
 @R5           0 00000000 FFFFFFF9     @     771   962U  7611U  8242U  8719U
 @R6           0 00000000 FFFFFFF8     @     784   958U  8249U 12991U
 @R7           0 00000000 FFFFFFF7     @     797   954U  7624U  7751U  8039U  8221U  8737U 10286U 11148U 11340U 11409U
                                                 11507U 11917U 11987U 12055U 12203U 12692U 12813U 12982U
 @R8           0 00000000 FFFFFFF6     @     810   950U  7631U  8732U
 @R9           0 00000000 FFFFFFF5     @     823   946U
 ABSCENT       1 00000000 00000000 A   T    2176  2176
 ASCTBL        1 00000000 00000000 A   T    2184  2184
 BLTBL         1 00000000 00000000 A   T    2186  2186
 BR            7 00000007 00000001 A   #    1022  7649M  7659U  7818M  8072M  8340M 10302M 10312U 11312M 11375M 11445M
                                                 11543M 11953M 12020M 12091M 12239M 12721M 12731U 12830M 12840U
1HELP     (HELP2010) (12:46) (15MAR04) Ordinary Symbol and Literal Cross Reference                                          Page   32
 CHECKIOB      1 00000000 00000000 A   T    2232  2232
 COLLPSH       1 00000000 00000012     T   10264 10264
 COMMAND       1 00000000 00000000 A   T    2172  2172
 COMMSEG       1 00000000 00000000 A   T    2173  2173
 CP         4096 00000000 FFFFFFEC     J    6186  1161U
 CP#XSTK       1 00000010 FFFFFFEC A   U    3918  3919
 CPACFLG       1 000005D5 FFFFFFEC     R    4021  4025   4030   4035   4040   4045
 CPACFLN       4 000005C4 FFFFFFEC     F    4013  4048   4048
 CPAFLAG       1 000005C3 FFFFFFEC     R    3985  3989   3994   3999   4004
 CPANAME       8 00000588 FFFFFFEC     C    3967  4063   4063
 CPAUTFLG      1 000008A9 FFFFFFEC     R    4331  4335   4340   4345   4350
 CPCHFLAG      1 00000B68 FFFFFFEC     R    4958  4962
 CPCMD       235 00000242 FFFFFFEC     C    2811  9677  10083
 CPCMNM        3 00000D24 FFFFFFEC     C    5284  7302   8898   8967M
 CPCWA         4 00000CA4 FFFFFFEC     F    5210  7495M  7661   8866M 10314
 CPDFLG        1 0000084C FFFFFFEC     R    4218  4222   4227   4232   4237   4242
 CPDFLG2       1 0000084D FFFFFFEC     R    4247  4251   4256   4261   4266   4271   4276
 CPDOUB        8 00000C88 FFFFFFEC     D    5204 10423M 10424M 10452  11704M 11751M 11827
 CPERRID       8 00000886 FFFFFFEC     C    4317  9668  10074
 CPEXFLG       1 00000758 FFFFFFEC     R    4087  4091
 CPEXFLG2      1 00000759 FFFFFFEC     R    4097  4106   4116
 CPEXFLG3      1 0000075A FFFFFFEC     R    4123  4127   4132
 CPEXTFLG      1 00000E28 FFFFFFEC     R    5769  5773   5778   5783   5788   5793   5798
 CPFABORT    128 00000D5A FFFFFFEC         5535  2136M  2136   2141M  2141
 CPFALL        1 00000010 FFFFFFEC A   U    5301  7462   9625   9911
 CPFDSN1       1 00000002 FFFFFFEC A   U    5303  7417
 CPFDUMP     128 00000D55 FFFFFFEC         5400 12150  12298  12372
 CPFERROR     64 00000D5A FFFFFFEC         5540  2135M  2135   2140M  2140
 CPFINFOP      4 00000E54 FFFFFFEC     A    5817  9880
 CPFNTEX       1 00000040 FFFFFFEC A   U    5387  5388
 CPFRDEXT      3 00000D89 FFFFFFEC         5723  7470M  9633M  9919M
 CPFRDRNG      1 00000D88 FFFFFFEC     R    5655  5659   5664   5669   5674   5679   5684   5689
 CPFRDSRC      1 00000D89 FFFFFFEC     R    5694  5703   5713   5723
 CPFUNUM       1 00000080 FFFFFFEC A   U    5386  5388
 CPFXDFLG      1 000007E4 FFFFFFEC     R    4165  4169   4174
 CPGFLG1       1 00000474 FFFFFFEC     R    3528  3532   3537   3542   3547   3552   3882   3882
 CPGFLG10      1 0000047D FFFFFFEC     R    3765  3769   3774   3779   3784   3789   3794
 CPGFLG11      1 0000047E FFFFFFEC     R    3800  3804   3809
 CPGFLG12      1 0000047F FFFFFFEC     R    3815  3819   3824   3829
 CPGFLG13      1 00000480 FFFFFFEC     R    3835  3839
 CPGFLG14      1 00000481 FFFFFFEC     R    3845  3849   3854   3859   3864   3869
 CPGFLG4       1 00000477 FFFFFFEC     R    3581  3592   3601   3610   3619   3628
 CPGFLG5       1 00000478 FFFFFFEC     R    3634  3638   3643   3648   3653   3658   3663   3668   3673
 CPGFLG6       1 00000479 FFFFFFEC     R    3679  3683   3688   3693
 CPGFLG7       1 0000047A FFFFFFEC     R    3699  3703   3708   3713   3718
 CPGFLG8       1 0000047B FFFFFFEC     R    3724  3728   3733   3738   3743
 CPGFLG9       1 0000047C FFFFFFEC     R    3749  3753   3759
 CPINIT        1 00000174 FFFFFFEC     U    2698  6155
 CPJESFLG      1 000009E1 FFFFFFEC     R    4430  4434   4439   4444   4449   4454   4459   4464   4469
 CPJESFLY      1 000009FD FFFFFFEC     R    4480  4484   4489   4494
 CPJESHFL      1 000009E0 FFFFFFEC     R    4415  4419   4424   4503   4503
 CPLFLG1       1 00000D50 FFFFFFEC     R    5298  7419M  7464M  9627M  9913M
 CPLFLG10      1 00000D59 FFFFFFEC     R    5521  5525
 CPLFLG11      1 00000D5A FFFFFFEC     R    5531  5535   5540   5545   5550
 CPLFLG12      1 00000D5B FFFFFFEC     R    5556  5560
 CPLFLG14      1 00000D5C FFFFFFEC     R    5566  5570   5575   5580   5585   5590
 CPLFLG6       1 00000D55 FFFFFFEC     R    5396  5400   5405   5410   5415   5420   5425
 CPLFLG7       1 00000D56 FFFFFFEC     R    5431  5435   5440   5445   5450   5455
 CPLFLG8       1 00000D57 FFFFFFEC     R    5461  5465   5470   5475   5480
1HELP     (HELP2010) (12:46) (15MAR04) Ordinary Symbol and Literal Cross Reference                                          Page   33
 CPLFLG9       1 00000D58 FFFFFFEC     R    5486  5490   5495   5500   5505   5510   5515
 CPLOCALZ      1 00000C48 FFFFFFEC     U    4988  6149   6149
 CPMFLG        1 0000084F FFFFFFEC     R    4285  4289
 CPMODFLG      1 00000C78 FFFFFFEC     R    5016  5020   5025   5030   5035   5040
 CPNAMELN      1 00000010 FFFFFFEC A   U    3911  4158
 CPNEDPFX     10 00000E29 FFFFFFEC     X    5802  5803   5804
 CPNSCANP      4 0000008C FFFFFFEC     A    2571  7438   7702   7711   7718   7734   7867   8373   8432   8457   8464
                                                  8479   8547   8554   8569   8583   9107   9115   9122   9137   9198
                                                  9222   9241   9293   9301   9391   9398   9413   9444   9532   9547
                                                  9554   9570   9602   9869  10371  10380  10387  10403  10475  10484
                                                 10491  10506  10563  10570  10585  10624  11604  11611  11626  11698
                                                 11875  11882  11897  12525  12547  12554  12569  12583
 CPNUMFLG      1 00000C79 FFFFFFEC     R    5046  5058
 CPOERRID      8 0000088E FFFFFFEC     C    4318  9003M  9003   9085
 CPORVCMD      1 00000140 FFFFFFEC     R    2580  2584   2589   2594   2599   2604   2609   2614   2619   2624   2624
                                                  2675   2675
 CPORVFLG      1 00000149 FFFFFFEC     R    2631  2635   2640   2645   2650   2655   2660   2665   2670
 CPORVWF       1 00000150 FFFFFFEC     R    2683  2687
 CPOSCANX      4 00000CA8 FFFFFFEC     F    5215  5282   5282
 CPR          11 0000000B 00000001 A   #    1086  1161U
 CPRACBAD     16 000001FC FFFFFFEC         2749  2783   2783   2784   2784
 CPRACF1       1 000001FC FFFFFFEC     R    2730  2734   2739   2744   2749   2754   2759   2764   2769   2785
 CPRACPSW     32 000001FC FFFFFFEC         2744  2782   2782   2784   2784
 CPRACUND     64 000001FC FFFFFFEC         2739  2782   2782   2783   2783
 CPRCVCUR      4 00000730 FFFFFFEC     A    4066  4068   4068
 CPRFLG        1 000008AA FFFFFFEC     R    4356  4360   4365   4370   4375   4380   4385
 CPS         254 00000344 FFFFFFEC     X    3500  3503   3504   3506   3506
 CPSACCT       5 000003B4 FFFFFFEC     C    3099  3262   3262  11051M 11051
 CPSAMCOD      1 00000A22 FFFFFFEC     R    4552  4560   4570   4580   4589   4598   4607   4617   4626   4635
 CPSAMFLG      1 00000A21 FFFFFFEC     R    4512  4516   4521   4526   4531   4536   4541   4546   4657   4657
 CPSCNFLG      1 00000CD0 FFFFFFEC     R    5228  5239   5248   5259
 CPSCNF2       1 00000CD1 FFFFFFEC     R    5264  5268
 CPSCNMAX      1 00000014 FFFFFFEC A   U    5280  5281
 CPSCRI        2 00000434 FFFFFFEC     H    3489  3494   3494
 CPSEG        60 00000050 FFFFFFEC     X    2569  7361   7383   8917   9022   9285   9331   9687   9705   9765   9978
                                                 10003  10040  10153  10171  10212  12421  12439  12457  12489  12920
                                                 12961
 CPSEGCOD      1 00000050 FFFFFFEC     R    2486  2495   2505   2515   2525   2535   2545   2555
 CPSEGLENF
               4 0000005C FFFFFFEC     A    2561  7321M  7321   7336
 CPSEGMRKF
               4 00000058 FFFFFFEC     A    2560  7336
 CPSFL         1 00000384 FFFFFFEC     R    2837  2841   2846   2851   2856   2861
 CPSFLG        1 000003F8 FFFFFFEC     R    3377  3381   3386   3391   3396   3401   3406   3411   3416
 CPSFLG2       1 000003F9 FFFFFFEC     R    3422  3426   3431   3436
 CPSFL2        1 00000385 FFFFFFEC     R    2867  2871   2876   2881   2886
 CPSFL3        1 00000386 FFFFFFEC     R    2892  2896   2901   2906
 CPSFL4        1 00000387 FFFFFFEC     R    2912  2916   2921   2926
 CPSFL5        1 00000388 FFFFFFEC     R    2932  2936   2941   2946
 CPSFOPR      16 000003BE FFFFFFEC         3207  9832  10780
 CPSFSPR      32 000003BE FFFFFFEC         3202  9820  10768
 CPSKAFL       1 000003BF FFFFFFEC     R    3233  3237   3242   3247   3252   3257
 CPSKIFL       1 000003BE FFFFFFEC     R    3188  3192   3197   3202   3207   3212   3217   3222   3227
 CPSOF         1 000001F8 FFFFFFEC     X    2720  2722   2722
 CPSOFLAG      1 00000416 FFFFFFEC     R    3447  3451   3456   3461   3466   3471
 CPSOPST       4 000003C4 FFFFFFEC     F    3267  3496   3496
 CPSPORT       8 00000354 FFFFFFEC     C    2831  2951   2951
 CPSQFLG       1 000003EC FFFFFFEC     R    3296  3300
 CPSSFLG       1 000003BB FFFFFFEC     R    3106  3110   3115   3120   3125   3130   3135
1HELP     (HELP2010) (12:46) (15MAR04) Ordinary Symbol and Literal Cross Reference                                          Page   34
 CPSSTART      4 00000344 FFFFFFEC     F    2823  2827   2827   3263   3263   3368   3368   3500   3500
 CPSSTAT       1 0000038F FFFFFFEC     R    3043  3047   3052   3057   3062   3067   3072   3077
 CPSTACF       1 000003BC FFFFFFEC     R    3141  3145   3150   3155   3160   3165   3170   3175   3180
 CPSTART       4 00000000 FFFFFFEC     C    2459  6153   6157
 CPSTFLAG      1 000003EA FFFFFFEC     R    3274  3278   3283   3288
 CPSTYPE       1 0000038C FFFFFFEC     R    2956  2965   2975   2985   2995   3005   3015   3025   3035
 CPSUFLG       1 000003EE FFFFFFEC     R    3311  3315   3320   3325   3330   3335   3340   3345   3350
 CPSUFLG2      1 000003EF FFFFFFEC     R    3356  3360   3365
 CPSVPGM       8 0000039C FFFFFFEC     C    3089  3095   3095
 CPS1ST        4 0000038C FFFFFFEC     F    2953  3498   3498
 CPTEMPP#      1 0000005F FFFFFFEC A   U    4406  4408
 CPTRMFL1      1 00000C7A FFFFFFEC     R    5064  5068   5073   5078   5202   5202
 CPTRMFL2      1 00000C7B FFFFFFEC     R    5084  5088   5093   5098   5103   5108   5113
 CPTRMFL3      1 00000C7C FFFFFFEC     R    5119  5123   5128   5133   5138   5143   5148   5153
 CPTRMFL4      1 00000C7D FFFFFFEC     R    5159  5163   5168   5173   5178   5183   5188   5193
 CPUSED        1 00000FBC FFFFFFEC A   U    6153  6154
 CPVACURS      8 00000AF0 FFFFFFEC     D    4931  4932   4933
 CPVCURS       8 00000AE0 FFFFFFEC     D    4925  4926   4927
 CPVFLAG       1 00000AC8 FFFFFFEC     R    4726  4730   4735   4740   4745   4750
 CPVFLAG2      1 00000AC9 FFFFFFEC     R    4756  4760   4765   4770   4775   4780   4785
 CPVFLAG3      1 00000ACA FFFFFFEC     R    4791  4795   4800   4805   4810   4815   4820
 CPVFLAG4      1 00000ACB FFFFFFEC     R    4826  4830   4835   4840
 CPVFPAGE    128 00000AC8 FFFFFFEC         4730 10855  10930  12316
 CPVLFLAG      1 00000ACE FFFFFFEC     R    4895  4899   4904   4909
 CPVMODE       1 00000ACC FFFFFFEC     R    4848  4852   4857   4862   4867   4872   4877   4882   4887
 CPVTWID       2 00000AD0 FFFFFFEC     H    4915  4918   4918
 CPWK1         4 00000D60 FFFFFFEC     F    5599  5614   5637
 CPWK2         4 00000D64 FFFFFFEC     F    5600  5615   5629
 CPWK3         4 00000D68 FFFFFFEC     F    5601  5616   5630
 CPWK4         4 00000D6C FFFFFFEC     F    5602  5617   5631
 CPWK5         4 00000D70 FFFFFFEC     F    5603  5619   5624   5632
 CPWK6         4 00000D74 FFFFFFEC     F    5604  5620   5625   5633   5640   5642
 CPWK7         4 00000D78 FFFFFFEC     F    5605  5618   5634
 CPXFLAG       1 000007FD FFFFFFEC     R    4193  4197
 CPXSTATE      4 000007F8 FFFFFFEC     F    4187  4200   4200
 CV         4016 00000000 FFFFFFEE     J    2362  1170U
 CVABORT       4 000007DA FFFFFFEE     I    2141  9770B 10045B 12168B 12966B
 CVABSRTN      4 0000088C FFFFFFEE     V    2176  2151
 CVABTMSG      4 000007CC FFFFFFEE     I    2136  7556B  9033B  9716B 11081B
 CVBLANKS    235 000004D8 FFFFFFEE     C    1956  7914   8127   8974  10424  11704
 CVBRMSK       1 00000751 FFFFFFEE     X    2092  2093   2094
 CVCFLAG       1 00000A00 FFFFFFEE     R    2257  2261   2266   2271   2276   2281
 CVCHKST       8 000009F0 FFFFFFEE     D    2247  2337   2337
 CVCHKST2      8 00000E28 FFFFFFEE     D    2340  2343   2343
 CVCOMRTN      4 0000087C FFFFFFEE     V    2172  2142
 CVDBGFLG      1 000004CC FFFFFFEE     R    1946  1950
 CVENT         4 0000074C FFFFFFEE     I    2090  7279B  7649B  7818B  8072B  8340B  8853B 10302B 11312B 11375B 11445B
                                                 11543B 11953B 12020B 12091B 12239B 12721B 12830B
 CVENTBR       2 00000750 FFFFFFEE     I    2091  2092
 CVERRMSG      4 000007C8 FFFFFFEE     I    2135  8928B  9342B
 CVERROR       4 000007D6 FFFFFFEE     I    2140  2156B
 CVEXIRTN      4 0000077C FFFFFFEE     V    2120  2116
 CVFCHRKBPR
               8 000004C9 FFFFFFEE         1861  1877   1877
 CVFCHRKBSE
               4 000004C9 FFFFFFEE         1866  1877   1877
 CVFCHRKCPR
               2 000004C9 FFFFFFEE         1883  1899   1899
 CVFCHRKCSE
1HELP     (HELP2010) (12:46) (15MAR04) Ordinary Symbol and Literal Cross Reference                                          Page   35
               1 000004C9 FFFFFFEE         1888  1899   1899
 CVFCHRUBPR
             128 000004C9 FFFFFFEE         1817  1833   1833
 CVFCHRUBSE
              64 000004C9 FFFFFFEE         1822  1833   1833
 CVFCHRUCPR
              32 000004C9 FFFFFFEE         1839  1855   1855
 CVFCHRUCSE
              16 000004C9 FFFFFFEE         1844  1855   1855
 CVFL          1 000004C4 FFFFFFEE     R    1613  1617   1622   1627   1632   1637   1642   1647   1652
 CVFL2         1 000004C5 FFFFFFEE     R    1658  1662   1667   1672   1677   1682   1687   1692   1697
 CVFL3         1 000004C6 FFFFFFEE     R    1703  1707   1712   1717   1722   1727   1732   1737   1742
 CVFL4         1 000004C7 FFFFFFEE     R    1748  1752   1757   1762   1767   1772   1777   1782
 CVFL5         1 000004C8 FFFFFFEE     R    1788  1792   1797   1802   1807
 CVFL6         1 000004C9 FFFFFFEE     R    1813  1817   1822   1834   1839   1844   1856   1861   1866   1878   1883
                                                  1888   1900
 CVHEAP#       1 00000200 FFFFFFEE A   U    1519  1520
 CVHLPPTR      4 000005FC FFFFFFEE     A    1972  7562   7563M  8380
 CVINVRTN      4 00000888 FFFFFFEE     V    2175  2145
 CVJESFLG      1 000004CA FFFFFFEE     R    1906  1910
 CVLNKRGS      4 00000780 FFFFFFEE     F    2122  2097M  2123
 CVLNKRTN      4 000007B0 FFFFFFEE     U    2123  2112M
 CVLOCK1       1 00000088 FFFFFFEE     R    1264  1268   1273
 CVLOCK2       1 00000089 FFFFFFEE     R    1278  1282
 CVLOCK3       1 0000008A FFFFFFEE     R    1287  1291
 CVLOCK4       1 0000008B FFFFFFEE     R    1296  1300
 CVLOGMOD      1 00000068 FFFFFFEE     R    1251  1255
 CVMACH        1 00000067 FFFFFFEE     R    1211  1215   1220   1225   1230   1235   1240   1245
 CVMILRTN      4 00000884 FFFFFFEE     V    2174  2154
 CVNEXT        4 000007DE FFFFFFEE     I    2142  7388B  7512B  7617B  9721B 10247B 12508B
 CVNOARTN      4 00000890 FFFFFFEE     V    2177  2148
 CVNWDATE      4 00000608 FFFFFFEE     F    1979  1983   1983
 CVNWMPG#      1 00000008 FFFFFFEE A   U    1981  1982
 CVPFXRTN      1 00000000 00000000 A   T    2120  2120
 CVPGFLAG      1 00000A01 FFFFFFEE     R    2287  2291   2296   2301
 CVPIOSZ       1 00004F80 FFFFFFEE A   U    1350  1352
 CVPPDBQH      4 0000009C FFFFFFEE     A    1308  1309
 CVPSFNO       1 000003E9 FFFFFFEE A   N    1472  1474
 CVPSLNO       1 000007CF FFFFFFEE A   N    1473  1474
 CVPXSZ        1 00000008 FFFFFFEE A   U    1351  1352
 CVR          12 0000000C 00000001 A   #    1099  1170U
 CVRKEY        1 00000008 FFFFFFEE A   U    2045  2046
 CVSEGRTN      4 00000880 FFFFFFEE     V    2173  2137
 CVSTACK#      1 00000080 FFFFFFEE A   U    1511  1512
 CVSTART       4 00000000 FFFFFFEE     C    1184  2355
 CVTRC         4 00000768 FFFFFFEE     I    2112  2098B
 CVTRCRTN      4 00000778 FFFFFFEE     V    2119  2113
 CVUSFNO       1 00000001 FFFFFFEE A   N    1479  1481
 CVUSLNO       1 000003E7 FFFFFFEE A   N    1480  1481
 CVVOL#        1 00000005 FFFFFFEE A   U    2330  2331
 CVWTOFLG      1 000004CB FFFFFFEE     R    1916  1920   1925   1930   1935   1940
 DEBUGSG       1 00000000 00000000 A   T    2073  2073
 DEQUOTE       1 00000000 00000010     T    8278  8278  13009
 DESABORT      1 00000004 FFFFFFEC A   U    6169 13023
 DESRTRN       1 00000080 FFFFFFEC A   U    6162  8268  13023
 DEV          12 00000000 FFFFFFEB     J    4711  4719
 DEVMAX#       1 00000002 FFFFFFEC A   U    4662  4719
 DEVTYPE       1 00000001 FFFFFFEB     R    4679  4688   4698
 DOFNAME       1 00000000 00000007     T    8263  8263  13017
1HELP     (HELP2010) (12:46) (15MAR04) Ordinary Symbol and Literal Cross Reference                                          Page   36
 DOTTBL        1 00000000 00000000 A   T    2189  2189
 DRENCFLG      1 00000F9F FFFFFFEC     R    6117  6121   6126   6131   6136   6141
 DRENPROT      1 00000F9E FFFFFFEC     R    6104  6112
 DSNON        40 00000E90 FFFFFFEC     C    5837  5838
 DSNWADSN     44 00000E5C FFFFFFEC     C    5824  5825   5826   5827   5836   5844   6075   6081   6083   6089   6092
                                                  6094   6097   6146
 DSNWAF4       1 00000F37 FFFFFFEC     R    5892  5896   5901   5906   5911   5916   5921   5926   5931
 DSNWAF5       1 00000F38 FFFFFFEC     R    5937  5941   5946   5951   5956   5961   5966   5971   5976
 DSNWAF6       1 00000F39 FFFFFFEC     R    5982  5986   5991   5996   6001   6006   6011   6016   6021
 DSNWAF7       1 00000F3A FFFFFFEC     R    6027  6031   6036   6041   6046
 DSNXG         1 00000004 FFFFFFEC A   U    5829  5831
 DSNXGL        1 00000003 FFFFFFEC A   U    5830  5831
 DSNXU         1 00000007 FFFFFFEC A   U    5831  5833
 DSNXUL        1 00000004 FFFFFFEC A   U    5832  5833
 DSSIZ         1 00000108 FFFFFFEC A   U    6075  6083   6092   6097
 DTB           1 00000000 00000019     T   13031 13031
 EBCTBL        1 00000000 00000000 A   T    2185  2185
 EBCTBL7       1 00000000 00000000 A   T    2188  2188
 ECBLIST       1 00000000 00000000 A   T    2048  2048
 EPARTBL       1 00000000 00000000 A   T    2180  2180
 EXIT0         1 00000000 00000006     T    8262  8262  13006
 EXTCLOSE      1 00000000 0000000D     T    8271  8271  13026
 EXTOPEN       1 00000000 0000000B     T    8267  8267
 EXTOPENE      1 00000000 00000016     T   13021 13021
 FFINFO      928 00000000 FFFFFFE4     J    7263  9888U
 FFMISC        1 00000002 FFFFFFE4     R    7160  7164   7169   7174   7179   7184
 FFOPTS      256 00000114 FFFFFFE4     C    7250  9891M  9891
 FFOPTSL       4 00000110 FFFFFFE4     F    7249  9890M  9890
 FFPTYPE       1 00000003 FFFFFFE4     R    7189  7198   7208   7218   7228   7238
 FFRQTYPE      1 00000001 FFFFFFE4     R    7116  7125   7135   7145   7155
 FFTYPE        1 00000000 FFFFFFE4     R    7062  7071   7081   7091   7101   7111
 FNAMEFIN      1 00000000 00000009     T    8265  8265  13019
 FNAMOPTS      1 00000000 00000008     T    8264  8264  13018
 FSR           0 00000000 00000001 A   #    1009  7813   8047M  8067   8229M  8334   8745M 11307  11348M 11370  11417M
                                                 11440  11515M 11538  11925M 11948  11995M 12015  12063M 12086  12211M
                                                 12234  12700M
 GETHDIR       2 000003FE 00000001     H    8324 13010
 GETHLP        2 00000428 00000001     H    8383  8502B  8662B  8690B
 GHWA        176 00000000 FFFFFFE3     J    8315  8337   8366U  8745   8747   8748
 GHWORDS     176 00000000 FFFFFFE3     X    8308  8374M  8433
 HDIR        114 00000000 FFFFFFE6     J    7010  7025   7590U  7600   7679U  7687M  7687   7961   7964   7964   8010U
                                                  8380   8397U  9358U  9792U
 HDIRDSN      54 0000003C FFFFFFE6     C    7003  7914M  7942M  8276   8820   9364   9840
 HDIRFLAG      1 0000003B FFFFFFE6     R    6995  6999
 HDIRLINK      4 00000000 FFFFFFE6     F    6984  7594   7595M  8016M  8380   8411   9838
 HDIRMAXW      1 00000006 FFFFFFE6 A   U    6989  6990   8277
 HDIRPRIV    128 0000003B FFFFFFE6         6999  7860M  9803
 HDIRQUOT      1 00000001 FFFFFFE6 A   U    6991  8144   8674
 HDIRWCNT      1 00000004 FFFFFFE6     X    6985  8098   8208M  8427
 HDIRWORD      9 00000005 FFFFFFE6     C    6990  8125   8127   8279   8282   8526   8700
 HELFALL       4 00000000 FFFFFFE2         8809  9469M 11580  12353  12384M 12673M
 HELFFND       2 00000000 FFFFFFE2         8814  9952  10108  11594  11594  11858  11858
 HELFMAT      16 00000000 FFFFFFE2         8799  8973M 11100  11472M 11495M 11570M 11594  11594  11595M 11858  11858
                                                 11859M 12123  12187M 12271
 HELFPUB      64 00000000 FFFFFFE2         8789 11066  11401M
 HELFQ       128 00000000 FFFFFFE2         8784  8956M  8987
 HELFSKIP      8 00000000 FFFFFFE2         8804 10683M 10706M 10740M 10792M 10829M 10867M 10904M 10942M 11112  12135
                                                 12283
 HELP          2 00000588 00000001     H    8849  8847
1HELP     (HELP2010) (12:46) (15MAR04) Ordinary Symbol and Literal Cross Reference                                          Page   37
 HELPBCNT      2 000000CA FFFFFFE2     H    8826 12400M 12400  12861  12862M 12882  12938M 12938
 HELPBLNK      1 00000001 FFFFFFE2     C    8818  8885M 11979M 12047M 12743  12779
 HELPCMD     176 000000DC FFFFFFE2     X    8830  9108M  9199   9294
 HELPDIR       4 000000D8 FFFFFFE2     F    8829  9348M  9784
 HELPDSN      54 00000002 FFFFFFE2     C    8820  8974M  9070M  9082   9364M  9595   9600   9840M  9862   9867
 HELPFLAG      1 00000000 FFFFFFE2     R    8780  8784   8789   8794   8799   8804   8809   8814
 HELPFNO       2 000000CC FFFFFFE2     H    8827 11130M 11130
 HELPMAX#      1 00000010 FFFFFFE2 A   U    8823  8824  13015
 HELPOPTS    176 0000018C FFFFFFE2     X    8831  9223M  9533
 HELPPRT       4 00000A38 00000001     F   10252 13016
 HELPPTRS      4 000000D0 FFFFFFE2     F    8828 10318M
 HELPRTN       4 00000A88 00000001     I   10297 13024
 HELPTNO       2 00000038 FFFFFFE2     H    8822  9527M 10124M 10124  10177  11483M 11483  11782  12335M 12335  12652M
 HELPTOK       9 0000003A FFFFFFE2     C    8824  9380   9499  10178  10217  11768  11866  12537  12624
 HELPWA      572 00000000 FFFFFFE2     J    8838  8852   8874U  8882M  8882   8883M  8883   8884M  8884
 HELP2010      1 00000000 00000001     R     999   997
 HIBAL         1 00000000 FFFFFFFF     J     691   707    720    733    746    759    772    785    798    811    824
                                                   837    850    863    876    889    902
 HOPBLANK      2 00001094 00000001     H   11939 11229
 HOPDESC       2 00000EEC 00000001     H   11431 11184  11199
 HOPDONE       2 00000E90 00000001     H   11298 11289
 HOPEXIT       2 00000D1A 00000001     H   11137 10410B 10526B 10537B 10558B 10605B 10616B 10955B 10990B 11009B 11028B
 HOPNBLNK      2 000010D0 00000001     H   12006 11244  11978B
 HOPOEXIT      4 00001082 00000001     I   11910 11596B 11860B
 HOPOPTN       2 00000F2A 00000001     H   11529 11214
 HOPPRMPT      2 00001100 00000001     H   12077 11259
 HOPPRT        4 00000D28 00000001     F   11157 13029
 HOPPUB        2 00000EBC 00000001     H   11361 11169
 HOPSEL        2 0000115C 00000001     H   12225 11274
 HOPSEXIT      2 000012D0 00000001     H   12684 12385B
 HTXTFMT       4 000012E2 00000001     I   12716 11119B
 HTXTLINE      4 00001332 00000001     I   12825 11122B
 INVALID       1 00000000 00000013     T    2175  2175  10279
 JCBAFL        1 00000062 FFFFFFE8     R    6706  6710   6715   6720   6725   6730   6735   6740   6745
 JCBBFL        1 00000063 FFFFFFE8     R    6751  6755   6760   6765   6770   6775   6780   6785
 JCBBILLX      8 00000088 FFFFFFE8     D    6836  6844   6844
 JCBRSCF1      1 00000064 FFFFFFE8     R    6791  6795   6800   6805
 JCBSFLG1      1 00000065 FFFFFFE8     R    6811  6815   6820
 JCBWFL        1 00000060 FFFFFFE8     R    6635  6639   6644   6649   6654   6659   6664   6669   6674   6702
 JCBWWFL       1 00000061 FFFFFFE8     R    6680  6684   6689   6694   6699
 KWRDSTRT      1 00000005 FFFFFFE9     U    6392  6554   6554
 KWRSTART      4 00000000 FFFFFFE9     F    6387  6568
 KWRUSER       3 00000000 FFFFFFE9     C    6388  6390   6390
 LOWTBL        1 00000000 00000000 A   T    2183  2183
 LRTRIM        1 00000000 0000000F     T    8275  8275  13011
 LSR           8 00000008 00000001 A   #    1047  7813   8047M  8067   8229M  8334   8745M 11307  11348M 11370  11417M
                                                 11440  11515M 11538  11925M 11948  11995M 12015  12063M 12086  12211M
                                                 12234  12700M
 LXCATRTN      1 00000060 FFFFFFEC A   U    6165  8268  13023
 MALL          1 00000000 00000003     T    7797  7797  10278  11288
 MILERR        1 00000000 00000000 A   T    2174  2174
 MPARM         1 00000000 00000014     T   11228 11228  11258  11273
 MTOKEN        1 00000000 00000002     T    7767  7767   7782  11168  11183  11198  11213  11243
 NBLTBL        1 00000000 00000000 A   T    2187  2187
 NDETRNG       1 00000000 0000000A     T    8266  8266  13020
 NOACTION      1 00000000 00000000 A   T    2177  2177
 NPARTBL       1 00000000 00000000 A   T    2181  2181
 NSCAN         1 00000000 0000000E     T    8274  8274   8758  13007
 NSCNCB      176 00000000 FFFFFFED     J    2446  2572   7439M  7440M  7703M  7704M  7719   7720   7721   7724M  7725M
1HELP     (HELP2010) (12:46) (15MAR04) Ordinary Symbol and Literal Cross Reference                                          Page   38
                                                  7727M  7737M  7738M  7739M  7868   7869   8308   8374   8433   8465
                                                  8466   8467   8470M  8471M  8472M  8482M  8483M  8484M  8555   8556
                                                  8557   8560M  8561M  8562M  8572M  8573M  8574M  8584   8830   8831
                                                  9108   9123   9124   9125   9128M  9129M  9130M  9140M  9141M  9142M
                                                  9199   9223   9242M  9243M  9294   9302   9303   9399   9400   9401
                                                  9404M  9405M  9406M  9416M  9417M  9418M  9445   9533   9555   9556
                                                  9557   9560M  9561M  9563M  9573M  9574M  9575M  9603M  9604M  9870M
                                                  9871M 10372M 10373M 10388  10389  10390  10393M 10394M 10396M 10406M
                                                 10407M 10408M 10476M 10477M 10492  10493  10494  10497M 10498M 10499M
                                                 10509M 10510M 10511M 10571  10572  10573  10576M 10577M 10578M 10588M
                                                 10589M 10590M 10625  11612  11613  11614  11617M 11618M 11619M 11629M
                                                 11630M 11631M 11699  11883  11884  11885  11888M 11889M 11890M 11900M
                                                 11901M 11902M 12526M 12527M 12555  12556  12557  12560M 12561M 12562M
                                                 12572M 12573M 12574M 12584
 NSCNFLGS      1 00000008 FFFFFFED     R    2383  2387   2392
 NSCNKWS       4 00000028 FFFFFFED     A    2432  7719   7727M  7737M  8465   8472M  8482M  8555   8562M  8572M  9123
                                                  9130M  9140M  9399   9406M  9416M  9555   9563M  9573M 10388  10396M
                                                 10406M 10492  10499M 10509M 10571  10578M 10588M 11612  11619M 11629M
                                                 11883  11890M 11900M 12555  12562M 12572M
 NSCNLEN       4 00000004 FFFFFFED     F    2380  7440M  7704M  7869   9243M  9303   9604M  9871M 10373M 10477M 12527M
 NSCNLOC       4 00000000 FFFFFFED     A    2379  7439M  7703M  7868   9242M  9302   9603M  9870M 10372M 10476M 12526M
 NSCNSKIP      4 00000024 FFFFFFED     A    2431  7720   7724M  7738M  8466   8470M  8483M  8556   8560M  8573M  9124
                                                  9128M  9141M  9400   9404M  9417M  9556   9560M  9574M 10389  10393M
                                                 10407M 10493  10497M 10510M 10572  10576M 10589M 11613  11617M 11630M
                                                 11884  11888M 11901M 12556  12560M 12573M
 NSCNSTOP      4 00000020 FFFFFFED     A    2430  7721   7725M  7739M  8467   8471M  8484M  8557   8561M  8574M  9125
                                                  9129M  9142M  9401   9405M  9418M  9557   9561M  9575M 10390  10394M
                                                 10408M 10494  10498M 10511M 10573  10577M 10590M 11614  11618M 11631M
                                                 11885  11889M 11902M 12557  12561M 12574M
 NSCNTOK      16 00000030 FFFFFFED     C    2434  8584   9445  10625  11699  12584
 NSCNTYPE      1 00000018 FFFFFFED     R    2401  2405   2410   2415   2420   2425
 PAGERES       1 00000000 00000015     T   13004 13004
 RAR          14 0000000E 00000001 A   #    1125  2112   2113M  2114B  2116M  2117B  2137M  2138B  2142M  2143B  2145M
                                                  2146B  2148M  2149B  2151M  2152B  2154M  2155M  2155B  2161   7364M
                                                  7365M  7365B  7386M  7387M  7387B  7423M  7424M  7424B  7447M  7448M
                                                  7448B  7451M  7452M  7452B  7455M  7456M  7456B  7473M  7474M  7474B
                                                  7499M  7500M  7500B  7526M  7527M  7527B  7531M  7532M  7532B  7730M
                                                  7731M  7731B  7810   7876M  7877M  7877B  8049M  8052B  8064   8130M
                                                  8131M  8131B  8231M  8234B  8331   8475M  8476M  8476B  8489M  8490M
                                                  8490B  8565M  8566M  8566B  8579M  8580M  8580B  8747M  8750B  8920M
                                                  8921M  8921B  8964M  8965M  8965B  9025M  9026M  9026B  9041M  9042M
                                                  9042B  9133M  9134M  9134B  9147M  9148M  9148B  9182M  9183M  9183B
                                                  9259M  9260M  9260B  9288M  9289M  9289B  9310M  9311M  9311B  9334M
                                                  9335M  9335B  9409M  9410M  9410B  9423M  9424M  9424B  9566M  9567M
                                                  9567B  9580M  9581M  9581B  9611M  9612M  9612B  9615M  9616M  9616B
                                                  9619M  9620M  9620B  9636M  9637M  9637B  9641M  9642M  9642B  9690M
                                                  9691M  9691B  9708M  9709M  9709B  9742M  9743M  9743B  9768M  9769M
                                                  9769B  9777M  9778M  9778B  9878M  9879M  9879B  9901M  9902M  9902B
                                                  9905M  9906M  9906B  9922M  9923M  9923B  9927M  9928M  9928B  9981M
                                                  9982M  9982B 10006M 10007M 10007B 10017M 10018M 10018B 10043M 10044M
                                                 10044B 10156M 10157M 10157B 10174M 10175M 10175B 10215M 10216M 10216B
                                                 10399M 10400M 10400B 10502M 10503M 10503B 10556M 10557M 10557B 10581M
                                                 10582M 10582B 11119M 11122M 11304  11350M 11353B 11367  11419M 11422B
                                                 11437  11517M 11520B 11535  11622M 11623M 11623B 11665M 11666M 11666B
                                                 11893M 11894M 11894B 11927M 11930B 11945  11976M 11977M 11977B 11997M
                                                 12000B 12012  12065M 12068B 12083  12162M 12163M 12163B 12166M 12167M
                                                 12167B 12213M 12216B 12231  12424M 12425M 12425B 12442M 12443M 12443B
                                                 12460M 12461M 12461B 12468M 12469M 12469B 12492M 12493M 12493B 12506M
                                                 12507M 12507B 12565M 12566M 12566B 12579M 12580M 12580B 12702M 12705B
1HELP     (HELP2010) (12:46) (15MAR04) Ordinary Symbol and Literal Cross Reference                                          Page   39
                                                 12923M 12924M 12924B 12964M 12965M 12965B
 RDRNG         1 00000000 0000000C     T    8270  8270  13025
 R0            0 00000000 FFFFFFFF A   #     699  2097   2166M  7353M  7353   7375M  7420M  7440   7522M  7555M  7704
                                                  7715M  7715   7724   7725   7869M  7886M  7886   7897   7909M  7915
                                                  8149   8461M  8461   8470   8471   8472   8499M  8499   8551M  8551
                                                  8560   8561   8562   8585   8909M  8927M  9014M  9032M  9038M  9043
                                                  9083   9119M  9119   9128   9129   9130   9157M  9157   9243   9277M
                                                  9303M  9341M  9395M  9395   9404   9405   9406   9433M  9433   9479
                                                  9491M  9496   9551M  9551   9560   9561   9600M  9604   9697M  9715M
                                                  9738M  9867M  9871   9970M  9970   9995M  9995  10013M 10145M 10145
                                                 10163M 10204M 10318  10335  10354M 10373  10384M 10384  10393  10394
                                                 10438  10458M 10477  10488M 10488  10497  10498  10499  10534M 10534
                                                 10567M 10567  10576  10577  10578  10613M 10613  10971M 10971  11080M
                                                 11608M 11608  11617  11618  11619  11656M 11656  11705  11879M 11879
                                                 11888  11889  11890  12392  12393  12393  12393  12413M 12413  12431M
                                                 12449M 12465M 12499M 12527  12551M 12551  12560  12561  12562  12593M
                                                 12593  12604  12616M 12621  12750  12850M 12850  12880  12912M 12912
                                                 12953M 13047  13047  13047
 R1            1 00000001 FFFFFFFF A   #     712  2160M  2161M  2167M  7374M  7439   7523M  7554M  7703   7711M  7724
                                                  7725   7727   7868M  7965   8457M  8470   8471   8472   8547M  8560
                                                  8561   8562   8585M  8588   8600M  8607   8619M  8627M  8636M  8636
                                                  8643   8908M  8926M  9013M  9031M  9115M  9128   9129   9130   9242
                                                  9276M  9302M  9340M  9391M  9404   9405   9406   9444M  9445M  9445
                                                  9446   9547M  9560   9561   9563   9595M  9603   9696M  9714M  9739M
                                                  9862M  9870  10014M 10162M 10196M 10318  10365M 10372  10380M 10393
                                                 10394  10396  10469M 10476  10484M 10497  10498  10499  10563M 10576
                                                 10577  10578  10624M 10625M 10625  11079M 11604M 11617  11618  11619
                                                 11698M 11699M 11699  11875M 11888  11889  11890  12392  12393  12393
                                                 12393  12430M 12448M 12465M 12498M 12526  12547M 12560  12561  12562
                                                 12749  12879  12948M 13047  13047  13047
 R12          12 0000000C FFFFFFFF A   #     855  2123
 R13          13 0000000D FFFFFFFF A   #     868  7278   7719   7720   7721   7737   7738   7739   8465   8466   8467
                                                  8482   8483   8484   8555   8556   8557   8572   8573   8574   8850
                                                  9123   9124   9125   9140   9141   9142   9399   9400   9401   9416
                                                  9417   9418   9555   9556   9557   9573   9574   9575  10388  10389
                                                 10390  10406  10407  10408  10492  10493  10494  10509  10510  10511
                                                 10571  10572  10573  10588  10589  10590  11612  11613  11614  11629
                                                 11630  11631  11883  11884  11885  11900  11901  11902  12555  12556
                                                 12557  12572  12573  12574
 R14          14 0000000E FFFFFFFF A   #     881  2098M  7438M  7439   7440   7444M  7444   7644   7702M  7703   7704
                                                  7708M  7708   7718M  7719   7720   7721   7726M  7727   7734M  7737
                                                  7738   7739   7867M  7868   7869   7873M  7873   8373M  8378M  8378
                                                  8432M  8437M  8437   8464M  8465   8466   8467   8479M  8482   8483
                                                  8484   8554M  8555   8556   8557   8569M  8572   8573   8574   9107M
                                                  9112M  9112   9122M  9123   9124   9125   9137M  9140   9141   9142
                                                  9198M  9203M  9203   9222M  9227M  9227   9241M  9242   9243   9247M
                                                  9247   9293M  9298M  9298   9301M  9302   9303   9307M  9307   9398M
                                                  9399   9400   9401   9413M  9416   9417   9418   9532M  9537M  9537
                                                  9554M  9555   9556   9557   9562M  9563   9570M  9573   9574   9575
                                                  9602M  9603   9604   9608M  9608   9869M  9870   9871   9875M  9875
                                                 10297  10371M 10372  10373  10377M 10377  10387M 10388  10389  10390
                                                 10395M 10396  10403M 10406  10407  10408  10475M 10476  10477  10481M
                                                 10481  10491M 10492  10493  10494  10506M 10509  10510  10511  10570M
                                                 10571  10572  10573  10585M 10588  10589  10590  11611M 11612  11613
                                                 11614  11626M 11629  11630  11631  11882M 11883  11884  11885  11897M
                                                 11900  11901  11902  12525M 12526  12527  12531M 12531  12554M 12555
                                                 12556  12557  12569M 12572  12573  12574  12716  12825
 R15          15 0000000F FFFFFFFF A   #     894  2097   7361M  7383M  7509M  7509   7539M  7540M  7540   7563   7740M
                                                  7740   7915M  7919M  7928M  7928   7935   8000M  8010U  8032M  8051M
1HELP     (HELP2010) (12:46) (15MAR04) Ordinary Symbol and Literal Cross Reference                                          Page   40
                                                  8051   8117M  8149M  8152   8164M  8172M  8181M  8181   8188   8212M
                                                  8212   8233M  8233   8485M  8485   8575M  8575   8583M  8584M  8584
                                                  8725M  8749M  8749   8917M  9022M  9143M  9143   9285M  9331M  9348
                                                  9358U  9419M  9419   9446M  9576M  9576   9651M  9651   9687M  9705M
                                                  9765M  9784M  9792U  9838M  9880M  9888U  9937M  9937   9978M 10003M
                                                 10040M 10153M 10171M 10212M 10409M 10409  10512M 10512  10523M 10523
                                                 10559  10591M 10591  10602M 10602  11333M 11352M 11352  11402M 11421M
                                                 11421  11500M 11519M 11519  11632M 11632  11645M 11645  11705M 11708
                                                 11720M 11728M 11737M 11737  11744  11793M 11798  11800M 11804M 11813M
                                                 11813  11820  11903M 11903  11910M 11929M 11929  11980M 11999M 11999
                                                 12048M 12067M 12067  12196M 12215M 12215  12421M 12439M 12457M 12489M
                                                 12503M 12503  12575M 12575  12583M 12584M 12584  12685M 12704M 12704
                                                 12860M 12861M 12862  12920M 12961M
 R2            2 00000002 FFFFFFFF A   #     725  7646   7648   7648   7648   8123M  8124M  8125M  8125   8421M  8421
                                                  8539   8701M  9043M  9053M  9053   9061M  9063   9082M  9083M  9379M
                                                  9379   9500M  9512   9527  10177M 10219M 10232M 10232  10299  10301
                                                 10301  10301  10559M 10641  10657  10671  10728  10817  10892  11767M
                                                 11767  11782  11867M 12536M 12536  12625M 12637  12652  12661M 12661
                                                 12718  12720  12720  12720  12750M 12762M 12762  12793M 12827  12829
                                                 12829  12829  12882M 12893M 12893  12926M
 R3            3 00000003 FFFFFFFF A   #     738  7594M  7605   8098M  8111   8123   8207M  8208   8427M  8449M  8449
                                                  8539   9380M  9499M 10178M 10217M 11768M 11866M 12537M 12624M 12749M
                                                 12791M
 R4            4 00000004 FFFFFFFF A   #     751  8526M  8700M 11662M 11679M 11798  11800  12880M 12953
 R5            5 00000005 FFFFFFFF A   #     764  7562M  7575M  7575   7590U  7602   7605M  7671M  7679U  7965M  7983
                                                  7984   8016   8025   8380M  8397U  8411M  8412M  8412   8725  12879M
                                                 12948
 R6            6 00000006 FFFFFFFF A   #     777  7661M  7669U  8865M  8866   8874U 10314M
 R7            7 00000007 FFFFFFFF A   #     790  2090M  2090   2091B  2103B  7279M  7289U  8853M  8863U
 R8            8 00000008 FFFFFFFF A   #     803  7278M  7646   7647M  7648   7648   7648   8366U  8850M 10299  10300M
                                                 10301  10301  10301  12718  12719M 12720  12720  12720  12827  12828M
                                                 12829  12829  12829
 SCANCHK       1 00000000 00000011     T    8759  8759  13008
 SDSNERR       1 00000002 00000001 A   U    6305  9038
 SDSNHDIR      1 00000000 00000001 A   U    6303  7420
 SDSNQSZ       1 0000002C FFFFFFEC A   U    6078  6079   6080
 SEG           1 00000000 00000005     T    8261  8261  13003
 SEGB          1 00000000 00000018     T   13027 13027
 SEGCBCOD      1 00000000 FFFFFFE7     R    6878  6887   6897   6907   6917   6927   6937   6947
 SEGCLR        1 00000000 00000017     T   13022 13022
 SEGCR         1 00000000 00000004     T    8259  8259  13012
 SETWHELP      2 00000018 00000001     H    7277  7275
 SHLDEXIT      2 000002C4 00000001     H    8031  7889B
 SHLPDSN       2 0000022C 00000001     H    7804  7768   7783
 SHLPFPTR      4 00000000 FFFFFFE5     A    7022  7539   7977M  7977   7983M
 SHLPHDIR    114 00000008 FFFFFFE5     X    7025  7671
 SHLPLPTR      4 00000004 FFFFFFE5     A    7023  7984M  8000   8025M
 SHLPPRT       4 000001B4 00000001     F    7756  8273
 SHLPRTN       4 00000120 00000001     I    7644  8269
 SHLPWA      122 00000000 FFFFFFE5     J    7032  7478   7486U  7494M  7494   7669U
 SHLPWORD      2 000002D6 00000001     H    8058  7798
 SHLWEXIT      2 0000034C 00000001     H    8214  8118B
 SPR          13 0000000D 00000001 A   #    1112  7810   7813   7814   7815M  7815   8043M  8047   8049   8064   8067
                                                  8068   8069M  8069   8225M  8229   8231   8331   8334   8336   8337M
                                                  8337   8741M  8745   8747  11304  11307  11308  11309M 11309  11344M
                                                 11348  11350  11367  11370  11371  11372M 11372  11413M 11417  11419
                                                 11437  11440  11441  11442M 11442  11511M 11515  11517  11535  11538
                                                 11539  11540M 11540  11921M 11925  11927  11945  11948  11949  11950M
                                                 11950  11991M 11995  11997  12012  12015  12016  12017M 12017  12059M
1HELP     (HELP2010) (12:46) (15MAR04) Ordinary Symbol and Literal Cross Reference                                          Page   41
                                                 12063  12065  12083  12086  12087  12088M 12088  12207M 12211  12213
                                                 12231  12234  12235  12236M 12236  12696M 12700  12702
 TRC           1 00000000 00000000 A   T    2119  2119
 TREAD         1 00000000 0000001B     T   13038 13038
 TTYFLAG       1 00000004 FFFFFFEA     R    6207  6211
 TTYMAX#       1 00000006 FFFFFFEA A   U    6263  6264
 TTYTFLAG      1 00000005 FFFFFFEA     R    6217  6221   6226   6231   6236   6241   6246   6251
 UNPRST        1 00000001 FFFFFFEC A   U    6167  8268  13023
 UPPTBL        1 00000000 00000000 A   T    2182  2182
 WAR           8 00000008 00000001 A   #    1035  7477M  7486U  7495   7814M  8043   8068M  8225   8336M  8741   8865
                                                 11308M 11344  11371M 11413  11441M 11511  11539M 11921  11949M 11991
                                                 12016M 12059  12087M 12207  12235M 12696
 WTOSG         1 00000000 00000000 A   T    2079  2079
 WYLHELP       1 00000000 00000001     J     990   992   1017   1030   1043   1055   1068   1081   1094   1107   1120
                                                  1133   2363   2447   6187   6299   6582   6862   6968   6973   7011
                                                  7033   7264   7948   8201
 YESRTN        1 00000000 0000001A     T   13037 13037
 =A((DESRTRN+LXCATRTN+UNPRST+DESABORT))
               4 00001428 00000001     A   13023  9738  10013
 =A((DESRTRN+LXCATRTN+UNPRST))
               4 000003A4 00000001     A    8268  7522
 =A(GETHDIR)
               4 000013F4 00000001     A   13010  9259
 =A(HDIRMAXW)
               4 000003C8 00000001     A    8277  8111
 =A(HELPMAX#)
               4 00001408 00000001     A   13015  9512  12637
 =A(HELPPRT)
               4 0000140C 00000001     A   13016  9562
 =A(HELPRTN)
               4 0000142C 00000001     A   13024  9739  10014
 =A(HOPPRT)
               4 00001440 00000001     A   13029 10395
 =A(L'HDIRDSN)
               4 000003C4 00000001     A    8276  7897   7909
 =A(L'HDIRWORD-1)
               4 000003D0 00000001     A    8279  8152   8164
 =A(SHLPPRT)
               4 000003B8 00000001     A    8273  7726
 =A(SHLPRTN)
               4 000003A8 00000001     A    8269  7523
 =A(1)         4 0000144C 00000001     A   13032 10641
 =A(10)        4 00001450 00000001     A   13033 10657
 =A(19)        4 00001454 00000001     A   13034 10671
 =A(2)         4 0000143C 00000001     A   13028 10335
 =A(3)         4 00000578 00000001     A    8760  8588   8600
 =A(3)         4 00001444 00000001     A   13030 10438
 =A(7)         4 00001458 00000001     A   13035 10728
 =A(8)         4 0000057C 00000001     A    8761  8607   8619
 =A(8)         4 00001404 00000001     A   13014  9479   9491  10817  11708  11720  12604  12616
 =A(9)         4 0000145C 00000001     A   13036 10892
 =AL2(L'HDIRWORD)
               2 000003F0 00000001     R    8282  8124
 =C' (<RETURN>=everything)? '
              24 000013B0 00000001     C   13002 12498
 =C' about.'
               7 0000155D 00000001     C   13055 12448
 =C'.*'        2 000014A2 00000001     C   13042 10348
 =C'.CS'       3 00001547 00000001     C   13053 10452
1HELP     (HELP2010) (12:46) (15MAR04) Ordinary Symbol and Literal Cross Reference                                          Page   42
 =C'ALL '      4 00001400 00000001     C   13013  9457
 =C'DES'       3 000014DE 00000001     C   13048  8898
 =C'DESCRIBE command.'
              17 0000150C 00000001     C   13050  8926
 =C'HEL'       3 0000151D 00000001     C   13051  8967
 =C'No help available for '
              22 0000148C 00000001     C   13041  9276
 =C'No help available.  '
              20 000013D0 00000001     C   13005  9013   9696
 =C'No help directory entries.'
              26 000003D4 00000001     C    8280  7554
 =C'NOACCESS'
               8 000013A8 00000001     C   13001  9668  10074
 =C'ON'        2 000014A8 00000001     C   13045 10694  10751  10840  10915
 =C'Please logon first.'
              19 0000154A 00000001     C   13054 11079
 =C'Please use the HELP command instead of the '
              43 000014E1 00000001     C   13049  8908
 =C'There is no information available for: '
              39 00001520 00000001     C   13052 10162
 =C'Type any options you would like to get information'
              50 000014AA 00000001     C   13046 12430
 =C'Type HELP for general information.'
              34 00001468 00000001     C   13039  9031   9340   9714
 =C'Type SET WHELP to reset help tables.'
              36 00000364 00000001     C    8260  7374
 =F'-1'        4 000003B4 00000001     F    8272  7595
 =H'2'         2 000014A4 00000001     H   13043 10354
 =H'3'         2 000014A6 00000001     H   13044 10458
 =V(DEQUOTE)
               4 000003CC 00000001     V    8278  8130
 =V(DEQUOTE)
               4 000013F0 00000001     V   13009  9182  11665  11976  12162  12468
 =V(DOFNAME)
               4 00000390 00000001     V    8263  7447
 =V(DOFNAME)
               4 00001410 00000001     V   13017  9611   9878
 =V(DTB)       4 00001448 00000001     V   13031 10556
 =V(EXIT0)
               4 0000038C 00000001     V    8262  7423
 =V(EXIT0)
               4 000013E4 00000001     V   13006  9041
 =V(EXTCLOSE)
               4 000003B0 00000001     V    8271  7531
 =V(EXTCLOSE)
               4 00001434 00000001     V   13026  9777
 =V(EXTOPEN)
               4 000003A0 00000001     V    8267  7499
 =V(EXTOPENE)
               4 00001420 00000001     V   13021  9641   9927
 =V(FNAMEFIN)
               4 00000398 00000001     V    8265  7455
 =V(FNAMEFIN)
               4 00001418 00000001     V   13019  9619   9905
 =V(FNAMOPTS)
               4 00000394 00000001     V    8264  7451
 =V(FNAMOPTS)
               4 00001414 00000001     V   13018  9615   9901
 =V(LRTRIM)
1HELP     (HELP2010) (12:46) (15MAR04) Ordinary Symbol and Literal Cross Reference                                          Page   43
               4 000003C0 00000001     V    8275  7876
 =V(LRTRIM)
               4 000013F8 00000001     V   13011  9310
 =V(NDETRNG)
               4 0000039C 00000001     V    8266  7473
 =V(NDETRNG)
               4 0000141C 00000001     V   13020  9636   9922
 =V(NSCAN)
               4 000003BC 00000001     V    8274  7730
 =V(NSCAN)
               4 00000570 00000001     V    8758  8475   8565
 =V(NSCAN)
               4 000013E8 00000001     V   13007  9133   9409   9566  10399  10502  10581  11622  11893  12565
 =V(PAGERES)
               4 000013CC 00000001     V   13004  8964
 =V(RDRNG)
               4 000003AC 00000001     V    8270  7526
 =V(RDRNG)
               4 00001430 00000001     V   13025  9742  10017
 =V(SCANCHK)
               4 00000574 00000001     V    8759  8489   8579
 =V(SCANCHK)
               4 000013EC 00000001     V   13008  9147   9423   9580  12579
 =V(SEG)       4 00000388 00000001     V    8261  7386
 =V(SEG)       4 000013C8 00000001     V   13003  8920   9025   9288   9708  10174  12442  12492
 =V(SEGB)      4 00001438 00000001     V   13027 10215
 =V(SEGCLR)
               4 00001424 00000001     V   13022  9690   9768  10043
 =V(SEGCR)
               4 00000360 00000001     V    8259  7364
 =V(SEGCR)
               4 000013FC 00000001     V   13012  9334   9981  10006  10156  12424  12460  12923  12964
 =V(TREAD)
               4 00001464 00000001     V   13038 12506
 =V(YESRTN)
               4 00001460 00000001     V   13037 12166
 =Y((R1+1-(R0)+16*((R0)/(R1+1))/((R0)/(R1+1)))*4)
               2 000014DC 00000001     Y   13047 12464
 =Y((12+3)/4*4)
               2 000003EE 00000001     Y    8281  7736
 =Y((12+3)/4*4)
               2 00000580 00000001     Y    8762  8481   8571
 =Y((12+3)/4*4)
               2 0000148A 00000001     Y   13040  9139   9415   9572  10405  10508  10587  11628  11899  12571

1HELP     (HELP2010) (12:46) (15MAR04) Macro and Copy Code Source Summary                                                   Page   44
- Con Source                                        Volume    Members                        HLASM R4.0  2004/03/15 12.46
0     PRIMARY INPUT                                           CSECT    DROP     END      EX       LTORG    POP
                                                              PRINT    PUSH     START    USING
   L1 WYL.GS.WYL.WYLBUR.MACLIB                      SYSB05    ABORT    AINFO    BASE     COLINFO  CONTROL  CP
                                                              CPLOCAL  CV       CVLOCAL  DTB      ERROR    FFINFO
                                                              GENTER   JCB      RDRNG    RG       RTNCODES SCAN
                                                              SCANCB   SCANCHK  SCCBADR  SCINFO   SCINIT   SCKW
                                                              SCPOP    SCPUSH   SCRSTR   SCSAVE   SCUPTOK  SYSDSNS  TCCR
                                                              TCLEAR   TCR      TREAD    TSEG     TTYPE    VLTORG
                                                              XENTER   XEXIT    XTRACE
   L2 WYL.GG.SYS.MACLIB                             SYSB05    $BC      $BFLKUP  $BV      $CCLKUP  $CRS     $CSS     $L
                                                              $LA      $LBLAD   $LEXP    $LOR     $REL     $RGLKUP
                                                              $USLKUP  ACALL    BEGIN    CEIL     CLEAR    CMPR
                                                              COMPROC  CSECT    DATA     DECR     DEFCC    DEX      DROP
                                                              DTEX     ELSE     ELSEIF   END      EX       EXIT     FLAG
                                                              FLOOR    GEN      HIBAL    IDENT    IF       INCR
                                                              LABEL    LC       LCALL    LOOP     LS       LT
                                                              LTORG    MOVE     PEND     POP      PRINT    PROC     PUSH
                                                              QLTORG   RECORD   REG      REGS     SET      SETMSG
                                                              START    TDEX     UNTIL    USING    VCALL    WHILE    WITH
   L3 SYS3.IS.MACLIB                                SYSB05    KWR      SEG      SEGCB    SEGCLR   SEGCR    SEGLD    SIB
                                                              SYSDEFN  XPOP     XPUSH
   L4 SYS3.MACLIB                                   SYSB02    QSNAP    UTYPDEFN
   L5 SYS1.MACLIB                                   MVSBR9    FREEMAIN GETMAIN  SYSSTATE

1HELP     (HELP2010) (12:46) (15MAR04) Dsect Cross Reference                                                                Page   45
-Dsect     Length      Id       Defn                                                         HLASM R4.0  2004/03/15 12.46
0$$$@R0   00000000  FFFFFFFE     705
 $$$@R1   00000000  FFFFFFFD     718
 $$$@R10  00000000  FFFFFFF4     835
 $$$@R11  00000000  FFFFFFF3     848
 $$$@R12  00000000  FFFFFFF2     861
 $$$@R13  00000000  FFFFFFF1     874
 $$$@R14  00000000  FFFFFFF0     887
 $$$@R15  00000000  FFFFFFEF     900
 $$$@R2   00000000  FFFFFFFC     731
 $$$@R3   00000000  FFFFFFFB     744
 $$$@R4   00000000  FFFFFFFA     757
 $$$@R5   00000000  FFFFFFF9     770
 $$$@R6   00000000  FFFFFFF8     783
 $$$@R7   00000000  FFFFFFF7     796
 $$$@R8   00000000  FFFFFFF6     809
 $$$@R9   00000000  FFFFFFF5     822
 $$$RCP   00001000  FFFFFFEC    2452
 $$$RCV   00000FB0  FFFFFFEE    1177
 $$$RDEV  0000000C  FFFFFFEB    4666
 $$$RFFINFO
          000003A0  FFFFFFE4    7054
 $$$RGHWA 000000B0  FFFFFFE3    8302
 $$$RHDIR 00000072  FFFFFFE6    6978
 $$$RHELPWA
          0000023C  FFFFFFE2    8772
 $$$RJCB  000000D0  FFFFFFE8    6587
 $$$RKWR  000001F8  FFFFFFE9    6376
 $$$RNSCNCB
          000000B0  FFFFFFED    2373
 $$$RSEGCB
          0000003C  FFFFFFE7    6867
 $$$RSHLPWA
          0000007A  FFFFFFE5    7016
 $$$RTTYPE
          0000010C  FFFFFFEA    6197
 HIBAL    00000000  FFFFFFFF     691

1HELP     (HELP2010) (12:46) (15MAR04) Using Map                                                                            Page   46
-                                                                                            HLASM R4.0  2004/03/15 12.46
   Stmt  -----Location----- Action ----------------Using----------------- Reg Max    Last  Label and Using Text
           Count      Id           Type          Value    Range     Id        Disp   Stmt
0   922  00000000  FFFFFFFF USING  ORDINARY    00000000 00001000 FFFFFFEF  15 000          @R15,15
    926  00000000  FFFFFFFF USING  ORDINARY    00000000 00001000 FFFFFFF0  14 002    9533  @R14,14
    930  00000000  FFFFFFFF USING  ORDINARY    00000000 00001000 FFFFFFF1  13 000   12825  @R13,13
    934  00000000  FFFFFFFF USING  ORDINARY    00000000 00001000 FFFFFFF2  12 000          @R12,12
    938  00000000  FFFFFFFF USING  ORDINARY    00000000 00001000 FFFFFFF3  11 000          @R11,11
    942  00000000  FFFFFFFF USING  ORDINARY    00000000 00001000 FFFFFFF4  10 000          @R10,10
    946  00000000  FFFFFFFF USING  ORDINARY    00000000 00001000 FFFFFFF5   9 000          @R9,9
    950  00000000  FFFFFFFF USING  ORDINARY    00000000 00001000 FFFFFFF6   8 000          @R8,8
    954  00000000  FFFFFFFF USING  ORDINARY    00000000 00001000 FFFFFFF7   7 000          @R7,7
    958  00000000  FFFFFFFF USING  ORDINARY    00000000 00001000 FFFFFFF8   6 000          @R6,6
    962  00000000  FFFFFFFF USING  ORDINARY    00000000 00001000 FFFFFFF9   5 000          @R5,5
    966  00000000  FFFFFFFF USING  ORDINARY    00000000 00001000 FFFFFFFA   4 009    8700  @R4,4
    970  00000000  FFFFFFFF USING  ORDINARY    00000000 00001000 FFFFFFFB   3 000          @R3,3
    974  00000000  FFFFFFFF USING  ORDINARY    00000000 00001000 FFFFFFFC   2 001   12625  @R2,2
    978  00000000  FFFFFFFF USING  ORDINARY    00000000 00001000 FFFFFFFD   1 003   11979  @R1,1
    982  00000000  FFFFFFFF USING  ORDINARY    00000000 00001000 FFFFFFFE   0 000          @R0,0
    983  00000000  FFFFFFFF DROP                                            0              0
   1161  00000017  00000001 USING  ORDINARY    00000000 00001000 FFFFFFEC  11 E54   12961  CP,CPR
   1170  00000017  00000001 USING  ORDINARY    00000000 00001000 FFFFFFEE  12 890   12966  CV,CVR
   7289  00000026  00000001 USING  ORDINARY    00000026 00001000 00000001   7 3AE    7614  $$$64B,R7
   7486  000000AA  00000001 USING  ORDINARY    00000000 00001000 FFFFFFE5   8 000    7539  SHLPWA,WAR
   7590  000000F8  00000001 USING  ORDINARY    00000000 00001000 FFFFFFE6   5 000    7595  HDIR,R5
   7611  00000118  00000001 USING  ORDINARY    00000000 00001000 FFFFFFF9   5 000          @R5,5
   7624  00000120  00000001 USING  ORDINARY    00000000 00001000 FFFFFFF7   7 000          @R7,7
   7631  00000120  00000001 USING  ORDINARY    00000000 00001000 FFFFFFF6   8 000          @R8,8
   7659  0000013A  00000001 USING  ORDINARY    0000013A 00001000 00000001   7 2B4    7736  $$$75B,BR
   7669  0000013E  00000001 USING  ORDINARY    00000000 00001000 FFFFFFE5   6 008    8025  SHLPWA,R6
   7679  00000142  00000001 USING  ORDINARY    00000000 00001000 FFFFFFE6   5 03C    8208  HDIR,R5
   7751  000001B4  00000001 USING  ORDINARY    00000000 00001000 FFFFFFF7   7 000          @R7,7
   7830  00000246  00000001 USING  ORDINARY    00000246 00001000 00000001   7 1AC    7994  $$$77B,7
   8010  000002BC  00000001 USING  ORDINARY    00000000 00001000 FFFFFFE6  15 000    8016  HDIR,R15
   8023  000002C0  00000001 USING  ORDINARY    00000000 00001000 FFFFFFEF  15 000    8687  @R15,15
   8039  000002C8  00000001 USING  ORDINARY    00000000 00001000 FFFFFFF7   7 000          @R7,7
   8084  000002F0  00000001 USING  ORDINARY    000002F0 00001000 00000001   7 108    8188  $$$88B,7
   8095  000002F0  00000001 DROP                                            3              3
   8099  000002F6  00000001 USING  ORDINARY    00000000 00001000 FFFFFFFB   3 001    8207  @R3,3
   8221  0000034C  00000001 USING  ORDINARY    00000000 00001000 FFFFFFF7   7 000          @R7,7
   8242  0000035A  00000001 USING  ORDINARY    00000000 00001000 FFFFFFF9   5 000          @R5,5
   8249  0000035A  00000001 USING  ORDINARY    00000000 00001000 FFFFFFF8   6 000          @R6,6
   8352  00000418  00000001 USING  ORDINARY    00000418 00001000 00000001   7 16A    8722  $$$97B,7
   8366  00000418  00000001 USING  ORDINARY    FFFFFFD8 00001000 FFFFFFE3   8 028    8433  GHWA-(4+36),R8
   8397  00000428  00000001 USING  ORDINARY    00000000 00001000 FFFFFFE6   5 005    8526  HDIR,R5
   8424  00000434  00000001 DROP                                            3              3
   8428  0000043A  00000001 USING  ORDINARY    00000000 00001000 FFFFFFFB   3 009   12791  @R3,3
   8719  0000055C  00000001 USING  ORDINARY    00000000 00001000 FFFFFFF9   5 000          @R5,5
   8732  00000562  00000001 USING  ORDINARY    00000000 00001000 FFFFFFF6   8 000          @R8,8
   8737  00000562  00000001 USING  ORDINARY    00000000 00001000 FFFFFFF7   7 000          @R7,7
   8863  0000059A  00000001 USING  ORDINARY    0000059A 00001000 00000001   7 FCA   10241  $$$114B,R7
   8874  000005A0  00000001 USING  ORDINARY    00000000 00001000 FFFFFFE2   6 200   12938  HELPWA,R6
   9358  00000750  00000001 USING  ORDINARY    00000000 00001000 FFFFFFE6  15 03C    9364  HDIR,R15
   9371  00000756  00000001 USING  ORDINARY    00000000 00001000 FFFFFFEF  15 000    9497  @R15,15
   9792  0000090E  00000001 USING  ORDINARY    00000000 00001000 FFFFFFE6  15 03C    9840  HDIR,R15
   9846  00000930  00000001 USING  ORDINARY    00000000 00001000 FFFFFFEF  15 000          @R15,15
1HELP     (HELP2010) (12:46) (15MAR04) Using Map                                                                            Page   47
   9888  00000950  00000001 USING  ORDINARY    00000000 00001000 FFFFFFE4  15 114    9891  FFINFO,R15
   9897  0000095C  00000001 USING  ORDINARY    00000000 00001000 FFFFFFEF  15 000          @R15,15
  10286  00000A88  00000001 USING  ORDINARY    00000000 00001000 FFFFFFF7   7 000          @R7,7
  10312  00000AA2  00000001 USING  ORDINARY    00000AA2 00001000 00000001   7 AA8   11122  $$$151B,BR
  11148  00000D26  00000001 USING  ORDINARY    00000000 00001000 FFFFFFF7   7 000          @R7,7
  11324  00000EAA  00000001 USING  ORDINARY    00000EAA 00001000 00000001   7 000          $$$183B,7
  11340  00000EAE  00000001 USING  ORDINARY    00000000 00001000 FFFFFFF7   7 000          @R7,7
  11387  00000ED6  00000001 USING  ORDINARY    00000ED6 00001000 00000001   7 000          $$$186B,7
  11409  00000EDE  00000001 USING  ORDINARY    00000000 00001000 FFFFFFF7   7 000          @R7,7
  11457  00000F06  00000001 USING  ORDINARY    00000F06 00001000 00000001   7 012   11484  $$$189B,7
  11507  00000F1C  00000001 USING  ORDINARY    00000000 00001000 FFFFFFF7   7 000          @R7,7
  11555  00000F44  00000001 USING  ORDINARY    00000F44 00001000 00000001   7 62C   11907  $$$193B,7
  11790  00000FFE  00000001 DROP                                           15              15
  11794  00001004  00000001 USING  ORDINARY    00000000 00001000 FFFFFFEF  15 000   12622  @R15,15
  11917  00001086  00000001 USING  ORDINARY    00000000 00001000 FFFFFFF7   7 000          @R7,7
  11965  000010AE  00000001 USING  ORDINARY    000010AE 00001000 00000001   7 342   11978  $$$212B,7
  11987  000010C2  00000001 USING  ORDINARY    00000000 00001000 FFFFFFF7   7 000          @R7,7
  12032  000010EA  00000001 USING  ORDINARY    000010EA 00001000 00000001   7 000          $$$215B,7
  12055  000010F2  00000001 USING  ORDINARY    00000000 00001000 FFFFFFF7   7 000          @R7,7
  12103  0000111A  00000001 USING  ORDINARY    0000111A 00001000 00000001   7 346   12175  $$$218B,7
  12203  0000114E  00000001 USING  ORDINARY    00000000 00001000 FFFFFFF7   7 000          @R7,7
  12251  00001176  00000001 USING  ORDINARY    00001176 00001000 00000001   7 3E7   12662  $$$225B,7
  12692  000012D4  00000001 USING  ORDINARY    00000000 00001000 FFFFFFF7   7 000          @R7,7
  12731  000012FC  00000001 USING  ORDINARY    000012FC 00001000 00000001   7 02A   12797  $$$239B,BR
  12813  00001332  00000001 USING  ORDINARY    00000000 00001000 FFFFFFF7   7 000          @R7,7
  12840  0000134C  00000001 USING  ORDINARY    0000134C 00001000 00000001   7 0B0   12964  $$$244B,BR
  12982  000013A6  00000001 USING  ORDINARY    00000000 00001000 FFFFFFF7   7 000          @R7,7
  12991  000013A6  00000001 USING  ORDINARY    00000000 00001000 FFFFFFF8   6 000          @R6,6

1         (HELP2010) (12:46) (15MAR04) General Purpose Register Cross Reference                                             Page   48
- Register  References (M=modified, B=branch, U=USING, D=DROP, N=index)                      HLASM R4.0  2004/03/15 12.46
0    0(0)      982U   983D  2097   2165M  2165   2166M  7353M  7353   7375M  7420M  7440   7522M  7555M  7601M  7704
              7715M  7715   7724   7725   7813   7869M  7886M  7886   7897   7909M  7915   7962M  8047M  8067   8149
              8229M  8334   8461M  8461   8470   8471   8472   8499M  8499   8551M  8551   8560   8561   8562   8585
              8745M  8909M  8927M  9014M  9032M  9038M  9043   9083   9119M  9119   9128   9129   9130   9157M  9157
              9243   9277M  9303M  9341M  9395M  9395   9404   9405   9406   9433M  9433   9479   9491M  9496   9551M
              9551   9560   9561   9600M  9604   9697M  9715M  9738M  9867M  9871   9970M  9970   9995M  9995  10013M
             10145M 10145  10163M 10203M 10203  10204M 10318  10335  10354M 10373  10384M 10384  10393  10394  10438
             10458M 10477  10488M 10488  10497  10498  10499  10534M 10534  10567M 10567  10576  10577  10578  10613M
             10613  10971M 10971  11080M 11307  11348M 11370  11417M 11440  11515M 11538  11608M 11608  11617  11618
             11619  11656M 11656  11705  11879M 11879  11888  11889  11890  11925M 11948  11995M 12015  12063M 12086
             12211M 12234  12392  12413M 12413  12431M 12449M 12465M 12499M 12527  12551M 12551  12560  12561  12562
             12593M 12593  12604  12616M 12621  12700M 12750  12850M 12850  12880  12912M 12912  12953M
     1(1)      978U  2097   2160M  2161M  2167M  7374M  7439   7523M  7554M  7602M  7703   7711M  7724N  7725N  7727N
              7813   7868M  7960M  7962   7965   8047M  8067   8229M  8334   8457M  8470N  8471N  8472N  8547M  8560N
              8561N  8562N  8585M  8588   8600M  8607   8619M  8627M  8636M  8636   8643   8745M  8908M  8926M  9013M
              9031M  9115M  9128N  9129N  9130N  9242   9276M  9302M  9340M  9391M  9404N  9405N  9406N  9444M  9445M
              9445N  9446   9547M  9560N  9561N  9563N  9595M  9603   9696M  9714M  9739M  9862M  9870  10014M 10162M
             10196M 10318  10365M 10372  10380M 10393N 10394N 10396N 10469M 10476  10484M 10497N 10498N 10499N 10563M
             10576N 10577N 10578N 10624M 10625M 10625N 11079M 11307  11348M 11370  11417M 11440  11515M 11538  11604M
             11617N 11618N 11619N 11698M 11699M 11699N 11875M 11888N 11889N 11890N 11925M 11948  11995M 12015  12063M
             12086  12211M 12234  12392  12430M 12448M 12465M 12498M 12526  12547M 12560N 12561N 12562N 12700M 12749
             12879  12948M
     2(2)      974U  2097   7646   7744M  7813   8047M  8067   8123M  8124M  8125M  8125N  8229M  8334   8421M  8421
              8539   8701M  8745M  9043M  9053M  9053   9061M  9063   9082M  9083M  9379M  9379   9500M  9512   9527
             10177M 10219M 10232M 10232  10299  10559M 10641  10657  10671  10728  10817  10892  11141M 11307  11348M
             11370  11417M 11440  11515M 11538  11767M 11767  11782  11867M 11925M 11948  11995M 12015  12063M 12086
             12211M 12234  12536M 12536  12625M 12637  12652  12661M 12661  12700M 12718  12750M 12762M 12762  12793M
             12806M 12827  12882M 12893M 12893  12926M 12975M
     3(3)      970U  2097   7594M  7605   7646   7744M  7813   8047M  8067   8095D  8097M  8097   8098M  8099U  8111
              8123   8207M  8208   8229M  8334   8424D  8426M  8426   8427M  8428U  8449M  8449   8539   8745M  9380M
              9499M 10178M 10217M 10299  11141M 11307  11348M 11370  11417M 11440  11515M 11538  11768M 11866M 11925M
             11948  11995M 12015  12063M 12086  12211M 12234  12537M 12624M 12700M 12718  12749M 12791M 12806M 12827
             12975M
     4(4)      966U  2097   7646   7744M  7813   8047M  8067   8229M  8334   8526M  8700M  8745M 10299  11141M 11307
             11348M 11370  11417M 11440  11515M 11538  11662M 11679M 11798  11800  11925M 11948  11995M 12015  12063M
             12086  12211M 12234  12700M 12718  12806M 12827  12880M 12953  12975M
     5(5)      962U  2097   7562M  7575M  7575   7590U  7602   7605M  7611U  7646   7671M  7679U  7744M  7813   7965M
              7983   7984   8016   8025   8047M  8067   8229M  8242U  8334   8380M  8397U  8411M  8412M  8412   8719U
              8725   8745M 10299  11141M 11307  11348M 11370  11417M 11440  11515M 11538  11925M 11948  11995M 12015
             12063M 12086  12211M 12234  12700M 12718  12806M 12827  12879M 12948  12975M
     6(6)      958U  2097   7646   7661M  7669U  7744M  7813   8047M  8067   8229M  8249U  8334   8745M  8865M  8866
              8874U 10299  10314M 11141M 11307  11348M 11370  11417M 11440  11515M 11538  11925M 11948  11995M 12015
             12063M 12086  12211M 12234  12700M 12718  12806M 12827  12975M 12991U
     7(7)      954U  2090M  2090   2091B  2097   2103B  7279M  7289U  7624U  7646   7649M  7659U  7744M  7751U  7813
              7818M  7830U  8039U  8047M  8067   8072M  8084U  8221U  8229M  8334   8340M  8352U  8737U  8745M  8853M
              8863U 10286U 10299  10302M 10312U 11141M 11148U 11307  11312M 11324U 11340U 11348M 11370  11375M 11387U
             11409U 11417M 11440  11445M 11457U 11507U 11515M 11538  11543M 11555U 11917U 11925M 11948  11953M 11965U
             11987U 11995M 12015  12020M 12032U 12055U 12063M 12086  12091M 12103U 12203U 12211M 12234  12239M 12251U
             12692U 12700M 12718  12721M 12731U 12806M 12813U 12827  12830M 12840U 12975M 12982U
     8(8)      950U  2097   7278M  7477M  7486U  7495   7631U  7646   7647M  7742   7744M  7813   7814M  8043   8047M
              8067   8068M  8225   8229M  8334   8336M  8366U  8732U  8741   8745M  8850M  8865  10299  10300M 11139
             11141M 11307  11308M 11344  11348M 11370  11371M 11413  11417M 11440  11441M 11511  11515M 11538  11539M
             11921  11925M 11948  11949M 11991  11995M 12015  12016M 12059  12063M 12086  12087M 12207  12211M 12234
             12235M 12696  12700M 12718  12719M 12804  12806M 12827  12828M 12973  12975M
     9(9)      946U  2097
1         (HELP2010) (12:46) (15MAR04) General Purpose Register Cross Reference                                             Page   49
    10(A)      942U  2097
    11(B)      938U  1161U  2097
    12(C)      934U  1170U  2097
    13(D)      930U  2097   7278   7477   7478M  7478   7646   7647   7648M  7648   7719   7720   7721   7723M  7723
              7736M  7737   7738   7739   7742M  7743   7744   7810   7813   7814   7815M  7815   8043M  8047   8049
              8064   8067   8068   8069M  8069   8225M  8229   8231   8331   8334   8336   8337M  8337   8465   8466
              8467   8469M  8469   8481M  8482   8483   8484   8555   8556   8557   8559M  8559   8571M  8572   8573
              8574   8741M  8745   8747   8850   8852M  8852   9123   9124   9125   9127M  9127   9139M  9140   9141
              9142   9399   9400   9401   9403M  9403   9415M  9416   9417   9418   9555   9556   9557   9559M  9559
              9572M  9573   9574   9575  10299  10300  10301M 10301  10388  10389  10390  10392M 10392  10405M 10406
             10407  10408  10492  10493  10494  10496M 10496  10508M 10509  10510  10511  10571  10572  10573  10575M
             10575  10587M 10588  10589  10590  11139M 11140  11141  11304  11307  11308  11309M 11309  11344M 11348
             11350  11367  11370  11371  11372M 11372  11413M 11417  11419  11437  11440  11441  11442M 11442  11511M
             11515  11517  11535  11538  11539  11540M 11540  11612  11613  11614  11616M 11616  11628M 11629  11630
             11631  11883  11884  11885  11887M 11887  11899M 11900  11901  11902  11921M 11925  11927  11945  11948
             11949  11950M 11950  11991M 11995  11997  12012  12015  12016  12017M 12017  12059M 12063  12065  12083
             12086  12087  12088M 12088  12207M 12211  12213  12231  12234  12235  12236M 12236  12392  12393M 12393
             12464M 12465  12555  12556  12557  12559M 12559  12571M 12572  12573  12574  12696M 12700  12702  12718
             12719  12720M 12720  12804M 12805  12806  12827  12828  12829M 12829  12973M 12974  12975
    14(E)      926U  2097   2098M  2112   2113M  2114B  2116M  2117B  2137M  2138B  2142M  2143B  2145M  2146B  2148M
              2149B  2151M  2152B  2154M  2155M  2155B  2161   7364M  7365M  7365B  7386M  7387M  7387B  7423M  7424M
              7424B  7438M  7439N  7440N  7444M  7444   7447M  7448M  7448B  7451M  7452M  7452B  7455M  7456M  7456B
              7473M  7474M  7474B  7499M  7500M  7500B  7526M  7527M  7527B  7531M  7532M  7532B  7644   7702M  7703N
              7704N  7708M  7708   7718M  7719   7720   7721   7726M  7727   7730M  7731M  7731B  7734M  7737   7738
              7739   7743M  7745B  7810   7867M  7868N  7869N  7873M  7873   7876M  7877M  7877B  8049M  8052B  8064
              8130M  8131M  8131B  8231M  8234B  8331   8373M  8378M  8378   8432M  8437M  8437   8464M  8465   8466
              8467   8475M  8476M  8476B  8479M  8482   8483   8484   8489M  8490M  8490B  8554M  8555   8556   8557
              8565M  8566M  8566B  8569M  8572   8573   8574   8579M  8580M  8580B  8747M  8750B  8920M  8921M  8921B
              8964M  8965M  8965B  9025M  9026M  9026B  9041M  9042M  9042B  9107M  9112M  9112   9122M  9123   9124
              9125   9133M  9134M  9134B  9137M  9140   9141   9142   9147M  9148M  9148B  9182M  9183M  9183B  9198M
              9203M  9203   9222M  9227M  9227   9241M  9242N  9243N  9247M  9247   9259M  9260M  9260B  9288M  9289M
              9289B  9293M  9298M  9298   9301M  9302N  9303N  9307M  9307   9310M  9311M  9311B  9334M  9335M  9335B
              9398M  9399   9400   9401   9409M  9410M  9410B  9413M  9416   9417   9418   9423M  9424M  9424B  9532M
              9537M  9537   9554M  9555   9556   9557   9562M  9563   9566M  9567M  9567B  9570M  9573   9574   9575
              9580M  9581M  9581B  9602M  9603N  9604N  9608M  9608   9611M  9612M  9612B  9615M  9616M  9616B  9619M
              9620M  9620B  9636M  9637M  9637B  9641M  9642M  9642B  9690M  9691M  9691B  9708M  9709M  9709B  9742M
              9743M  9743B  9768M  9769M  9769B  9777M  9778M  9778B  9869M  9870N  9871N  9875M  9875   9878M  9879M
              9879B  9901M  9902M  9902B  9905M  9906M  9906B  9922M  9923M  9923B  9927M  9928M  9928B  9981M  9982M
              9982B 10006M 10007M 10007B 10017M 10018M 10018B 10043M 10044M 10044B 10156M 10157M 10157B 10174M 10175M
             10175B 10215M 10216M 10216B 10297  10371M 10372N 10373N 10377M 10377  10387M 10388  10389  10390  10395M
             10396  10399M 10400M 10400B 10403M 10406  10407  10408  10475M 10476N 10477N 10481M 10481  10491M 10492
             10493  10494  10502M 10503M 10503B 10506M 10509  10510  10511  10556M 10557M 10557B 10570M 10571  10572
             10573  10581M 10582M 10582B 10585M 10588  10589  10590  11119M 11122M 11140M 11142B 11304  11350M 11353B
             11367  11419M 11422B 11437  11517M 11520B 11535  11611M 11612  11613  11614  11622M 11623M 11623B 11626M
             11629  11630  11631  11665M 11666M 11666B 11882M 11883  11884  11885  11893M 11894M 11894B 11897M 11900
             11901  11902  11927M 11930B 11945  11976M 11977M 11977B 11997M 12000B 12012  12065M 12068B 12083  12162M
             12163M 12163B 12166M 12167M 12167B 12213M 12216B 12231  12424M 12425M 12425B 12442M 12443M 12443B 12460M
             12461M 12461B 12468M 12469M 12469B 12492M 12493M 12493B 12506M 12507M 12507B 12525M 12526N 12527N 12531M
             12531  12554M 12555  12556  12557  12565M 12566M 12566B 12569M 12572  12573  12574  12579M 12580M 12580B
             12702M 12705B 12716  12805M 12807B 12825  12923M 12924M 12924B 12964M 12965M 12965B 12974M 12976B
    15(F)      922U  2097   7361M  7383M  7509M  7509   7539M  7540M  7540   7563   7740M  7740   7915M  7919M  7928M
              7928   7935   8000M  8010U  8023U  8032M  8051M  8051   8117M  8149M  8152   8164M  8172M  8181M  8181
              8188   8212M  8212   8233M  8233   8485M  8485   8575M  8575   8583M  8584M  8584N  8725M  8749M  8749
              8917M  9022M  9143M  9143   9285M  9331M  9348   9358U  9371U  9419M  9419   9446M  9576M  9576   9651M
              9651   9687M  9705M  9765M  9784M  9792U  9838M  9846U  9880M  9888U  9897U  9937M  9937   9978M 10003M
             10040M 10153M 10171M 10212M 10409M 10409  10512M 10512  10523M 10523  10559  10591M 10591  10602M 10602
             11333M 11352M 11352  11402M 11421M 11421  11500M 11519M 11519  11632M 11632  11645M 11645  11705M 11708
             11720M 11728M 11737M 11737  11744  11790D 11792M 11792  11793M 11794U 11798  11800M 11804M 11813M 11813
             11820  11903M 11903  11910M 11929M 11929  11980M 11999M 11999  12048M 12067M 12067  12196M 12215M 12215
1         (HELP2010) (12:46) (15MAR04) General Purpose Register Cross Reference                                             Page   50
             12421M 12439M 12457M 12489M 12503M 12503  12575M 12575  12583M 12584M 12584N 12685M 12704M 12704  12860M
             12861M 12862  12920M 12961M

1HELP     (HELP2010) (12:46) (15MAR04) Diagnostic Cross Reference and Assembler Summary                                     Page   51
-                                                                                            HLASM R4.0  2004/03/15 12.46
0     No Statements Flagged in this Assembly
 HIGH LEVEL ASSEMBLER, 5696-234, RELEASE 4.0, PTF P72483
0SYSTEM: OS/390 02.10.00            JOBNAME: WYL#HELP    STEPNAME: ASM        PROCSTEP: (NOPROC)
0Datasets Allocated for this Assembly
  Con DDname   Dataset Name                                 Volume  Member
   P1 SYSIN    WYL.GS.WYL.WYLBUR.SOURCE                     SYSB05  HELP
   L1 SYSLIB   WYL.GS.WYL.WYLBUR.MACLIB                     SYSB05
   L2          WYL.GG.SYS.MACLIB                            SYSB05
   L3          SYS3.IS.MACLIB                               SYSB05
   L4          SYS3.MACLIB                                  SYSB02
   L5          SYS1.MACLIB                                  MVSBR9
   L6          SYS1.MODGEN                                  MVSBR9
      SYSPRINT SYS04075.T124634.RA000.WYL#HELP.PRINT.H01    SCR100
      SYSTERM  GG$SLP.WYL#HELP.JOB03530.D0000101.?

    3668K allocated to Buffer Pool,         2173K would be required for this to be an In-Storage Assembly
     823 Primary Input Records Read        12531 Library Records Read                  0 Work File Reads
       0 ASMAOPT Records Read               4557 Primary Print Records Written         0 Work File Writes
       0 Punch Records Written                 0 ADATA Records Written
0Assembly Start Time: 12.46.35 Stop Time: 12.46.42 Processor Time: 00.00.02.2435
 Return Code 000
