1                        J E S 2  J O B  L O G  --  S Y S T E M  S Y S B  --  N O D E  R L G
0
 13.01.26 JOB03591 ---- MONDAY,    15 MAR 2004 ----
 13.01.26 JOB03591  ICH70001I GG$SLP   LAST ACCESS AT 13:01:06 ON MONDAY, MARCH 15, 2004
 13.01.26 JOB03591  $HASP373 WYL#XCAL STARTED - INIT 6    - CLASS B - SYS SYSB
 13.01.26 JOB03591  ***  HCMD      STEP $$QUIET
 13.01.26 JOB03591  PUR * Q OUT MUL
 13.01.26 JOB03591  JOB 5456 WYL#XCAL WILL BE PURGED
 13.01.27 JOB03591  WYL#XCAL.$$QUIET .         RC=Zero TapeIO=0000 DiskIO=0000 CPU=  .01s Elapsed=86.28s
 13.01.42 JOB03591  WYL#XCAL.ASM     .         RC=Zero TapeIO=0000 DiskIO=0892 CPU= 7.08s Elapsed=87.34s
 13.01.46 JOB03591  WYL#XCAL.EDIT    .         RC=Zero TapeIO=0000 DiskIO=0444 CPU= 1.42s Elapsed=02.72s
 13.01.46 JOB03591  WYL#XCAL Ended.  Name=Assemble XCALL                 Total CPU= 8.51s Elapsed=86.28s
 13.01.46 JOB03591
 13.01.46 JOB03591  Execution charges   Priority=Standard   Block=Day
 13.01.46 JOB03591
 13.01.46 JOB03591  CPU Usage         157.68          $97.76   Standard Processing Unit Equivalent
 13.01.46 JOB03591                                   =======
 13.01.46 JOB03591                                    $97.76   Total Job execution charge
 13.01.46 JOB03591
 13.01.46 JOB03591  See back separator page for print charges
 13.01.46 JOB03591
 13.01.46 JOB03591  $HASP395 WYL#XCAL ENDED  ASM=0, EDIT=0
1        1 //WYL#XCAL JOB SLP$GG,'Assemble XCALL',TIME=4,REGION=4M                 JOB03591
           //*
           /*JOBPARM LINES=99,COPIES=1
           /*JOBPARM FORMS=3HOL,PFORMAT=LAND,CHARS=BD13,DUPLEX=YES,FLASH=BAR4
           //*
           /*JOBPARM NOTIFY=GG.SLP,HOLD=OUTPUT                                     WYLGEN
         2 //$$QUIET EXEC PGM=HCMDX,PARM='PUR * Q OUT MUL'
           //*
         3 //ASM    EXEC PGM=ASMA90,REGION=8M,
           //            PARM=('NORENT,TERM,FLAG(NOCONT),US(MAP,WARN(10)),NODECK',
           //            'LC(32767),XREF(SHORT),ESD,DXREF,NOOBJECT')
         4 //STEPLIB DD DSN=SYS3.IS.TESTASM,DISP=SHR
         5 //SYSLIB   DD  DSN=WYL.GS.WYL.WYLBUR.MACLIB,DISP=SHR
         6 //         DD  DSN=WYL.GG.SYS.MACLIB,DISP=SHR
         7 //         DD  DSN=SYS3.IS.MACLIB,DISP=SHR
         8 //         DD  DSN=SYS3.MACLIB,DISP=SHR
         9 //         DD  DSN=SYS1.MACLIB,DISP=SHR
        10 //         DD  DSN=SYS1.MODGEN,DISP=SHR
        11 //SYSUT1   DD DSN=&&SYSUT1,UNIT=VIO,DISP=(,DELETE),
           //            SPACE=(4088,(500,250),,CONTIG,ROUND)
        12 //SYSTERM  DD SYSOUT=T
        13 //SYSPRINT DD DSN=&&PRINT,UNIT=SYSDA,DISP=(,PASS),
           //            SPACE=(6650,(250,250),RLSE),
           //            DCB=(BLKSIZE=6650,LRECL=133,RECFM=FB)
        14 //SYSUDUMP DD SYSOUT=A
        15 //SYSIN    DD  DSN=WYL.GS.WYL.WYLBUR.SOURCE(XCALL),DISP=SHR
           //*
        16 //EDIT    EXEC PGM=ASMEDIT,TIME=2,REGION=4000K,
           //             PARM='STMT'
        17 //STEPLIB  DD  DSN=WYL.GG.SYS.LINKLIB,DISP=SHR
        18 //ASMOUT   DD  DSN=&PRINT,DISP=(OLD,DELETE)
        19 //SYSPRINT DD  SYSOUT=A
1 STMT NO. MESSAGE
 -
        11 IGD01010I STORCLAS= TEMP STORGROUP =
        11 IGD01010I STORGRP=VIO ASSIGNED.
        13 IGD01010I STORCLAS= TEMP STORGROUP =
        13 IGD01010I STORGRP=VIO ASSIGNED.
 ICH70001I GG$SLP   LAST ACCESS AT 13:01:06 ON MONDAY, MARCH 15, 2004
 IEF142I WYL#XCAL $$QUIET - STEP WAS EXECUTED - COND CODE 0000
 *********************************************************************************
 *   WYL#XCAL/$$QUIET /                    Return Code      Zero                 *
 *   Region used      260K (16K user + 244K system)                              *
 *   Extended region  9692K (4K user + 9688K system)                             *
 *                                                                               *
 *   Paging              In      Out                                             *
 *   Private <-> Aux      0        0       CPU time (TCB)   00:00:00.01          *
 *   Private <-> Exp      0        0       CPU time (SRB)   00:00:00.00          *
 *   VIO                  0        0       Elapsed time    917:26:26.68          *
 *   Common               0      ---                                             *
 *                                                                               *
 *                                                                               *
 *   CPU Usage          0.18         $0.11  Standard Processing Unit Equivalent  *
 *                                   $0.11  Total Step execution charge          *
 *                                                                               *
 *    I/O count  DDname   Type Addr           I/O count  DDname   Type Addr      *
 *                         *** No I/O for this step ***                          *
 *********************************************************************************
 IEF373I STEP/$$QUIET /START 2004075.1301
 IEF374I STEP/$$QUIET /STOP  2004075.1301 CPU    0MIN 00.01SEC SRB    0MIN 00.00SEC VIRT    16K SYS   244K EXT       4K SYS    9688K
 IEF236I ALLOC. FOR WYL#XCAL ASM
 IEF237I 04DC ALLOCATED TO STEPLIB
 IEF237I 04DC ALLOCATED TO SYSLIB
 IEF237I 04DC ALLOCATED TO
 IEF237I 04DC ALLOCATED TO
 IEF237I 0402 ALLOCATED TO
 IEF237I 04A0 ALLOCATED TO
 IEF237I 04A0 ALLOCATED TO
 IGD101I SMS ALLOCATED TO DDNAME (SYSUT1  )
         DSN (SYS04075.T130126.RA000.WYL#XCAL.SYSUT1.H01  )
         STORCLAS (TEMP) MGMTCLAS (        ) DATACLAS (        )
         VOL SER NOS= VIO
 IEF237I JES2 ALLOCATED TO SYSTERM
 IGD101I SMS ALLOCATED TO DDNAME (SYSPRINT)
         DSN (SYS04075.T130126.RA000.WYL#XCAL.PRINT.H01   )
         STORCLAS (TEMP) MGMTCLAS (        ) DATACLAS (        )
         VOL SER NOS= SCR101
 IEF237I JES2 ALLOCATED TO SYSUDUMP
 IEF237I 04DC ALLOCATED TO SYSIN
 IEF142I WYL#XCAL ASM - STEP WAS EXECUTED - COND CODE 0000
 IEF285I   SYS3.IS.TESTASM                              KEPT
 IEF285I   VOL SER NOS= SYSB05.
 IEF285I   WYL.GS.WYL.WYLBUR.MACLIB                     KEPT
 IEF285I   VOL SER NOS= SYSB05.
 IEF285I   WYL.GG.SYS.MACLIB                            KEPT
 IEF285I   VOL SER NOS= SYSB05.
 IEF285I   SYS3.IS.MACLIB                               KEPT
 IEF285I   VOL SER NOS= SYSB05.
 IEF285I   SYS3.MACLIB                                  KEPT
 IEF285I   VOL SER NOS= SYSB02.
 IEF285I   SYS1.MACLIB                                  KEPT
 IEF285I   VOL SER NOS= MVSBR9.
 IEF285I   SYS1.MODGEN                                  KEPT
 IEF285I   VOL SER NOS= MVSBR9.
 IGD105I SYS04075.T130126.RA000.WYL#XCAL.SYSUT1.H01   DELETED,   DDNAME=SYSUT1
 IEF285I   GG$SLP.WYL#XCAL.JOB03591.D0000101.?          SYSOUT
 IGD106I SYS04075.T130126.RA000.WYL#XCAL.PRINT.H01    PASSED,    DDNAME=SYSPRINT
 IEF285I   GG$SLP.WYL#XCAL.JOB03591.D0000102.?          SYSOUT
 IEF285I   WYL.GS.WYL.WYLBUR.SOURCE                     KEPT
 IEF285I   VOL SER NOS= SYSB05.
 *********************************************************************************
 *   WYL#XCAL/ASM     /                    Return Code      Zero                 *
 *   Region used      4376K (4096K user + 280K system)                           *
 *   Extended region  10300K (412K user + 9888K system)                          *
 *                                                                               *
 *   Paging              In      Out                                             *
 *   Private <-> Aux      0        0       CPU time (TCB)   00:00:07.02          *
 *   Private <-> Exp      0        0       CPU time (SRB)   00:00:00.06          *
 *   VIO                  0        0       Elapsed time    917:26:25.62          *
 *   Common               0      ---                                             *
 *                                                                               *
 *                                                                               *
 *   CPU Usage        131.62        $81.60  Standard Processing Unit Equivalent  *
 *                                  $81.60  Total Step execution charge          *
 *                                                                               *
 *    I/O count  DDname   Type Addr           I/O count  DDname   Type Addr      *
 *           93  STEPLIB  Disk 04DC                 339  SYSLIB   Disk 04DC      *
 *            0  SYSLIB   Disk 04DC                   0  SYSLIB   Disk 04DC      *
 *            0  SYSLIB   Disk 0402                   0  SYSLIB   Disk 04A0      *
 *            0  SYSLIB   Disk 04A0                 291  SYSUT1   VIO  ----      *
 *            0  SYSTERM       ----                 441  SYSPRINT Disk 04E3      *
 *            0  SYSUDUMP      ----                  19  SYSIN    Disk 04DC      *
 *********************************************************************************
 IEF373I STEP/ASM     /START 2004075.1301
 IEF374I STEP/ASM     /STOP  2004075.1301 CPU    0MIN 07.02SEC SRB    0MIN 00.06SEC VIRT  4096K SYS   280K EXT     412K SYS    9888K
 IEF236I ALLOC. FOR WYL#XCAL EDIT
 IEF237I 0402 ALLOCATED TO STEPLIB
 IGD103I SMS ALLOCATED TO DDNAME ASMOUT
 IEF237I JES2 ALLOCATED TO SYSPRINT
 IEF142I WYL#XCAL EDIT - STEP WAS EXECUTED - COND CODE 0000
 IEF285I   WYL.GG.SYS.LINKLIB                           KEPT
 IEF285I   VOL SER NOS= SYSB02.
 IGD105I SYS04075.T130126.RA000.WYL#XCAL.PRINT.H01    DELETED,   DDNAME=ASMOUT
 IEF285I   GG$SLP.WYL#XCAL.JOB03591.D0000103.?          SYSOUT
 *********************************************************************************
 *   WYL#XCAL/EDIT    /                    Return Code      Zero                 *
 *   Region used      384K (120K user + 264K system)                             *
 *   Extended region  9812K (4K user + 9808K system)                             *
 *                                                                               *
 *   Paging              In      Out                                             *
 *   Private <-> Aux      0        0       CPU time (TCB)   00:00:01.38          *
 *   Private <-> Exp      0        0       CPU time (SRB)   00:00:00.04          *
 *   VIO                  0        0       Elapsed time    917:26:10.24          *
 *   Common               0      ---                                             *
 *                                                                               *
 *                                                                               *
 *   CPU Usage         25.87        $16.03  Standard Processing Unit Equivalent  *
 *                                  $16.03  Total Step execution charge          *
 *                                                                               *
 *    I/O count  DDname   Type Addr           I/O count  DDname   Type Addr      *
 *            2  STEPLIB  Disk 0402                 442  ASMOUT   Disk 04E3      *
 *            0  SYSPRINT      ----                                              *
 *********************************************************************************
 IEF373I STEP/EDIT    /START 2004075.1301
 IEF374I STEP/EDIT    /STOP  2004075.1301 CPU    0MIN 01.38SEC SRB    0MIN 00.04SEC VIRT   120K SYS   264K EXT       4K SYS    9808K
 *********************************************************************************
 *                                                                               *
 *                      S t a n f o r d   U n i v e r s i t y                    *
 *                                                                               *
 *                              *** Job Summary ***                              *
 *                                                                               *
 *   System Id      SYSB                   Input time     12:39:39  Mar 15, 2004 *
 *                                                                               *
 *   System Release SP6.1.0                Start time     13:01:26  Mar 15, 2004 *
 *                                                                               *
 *   Job name       WYL#XCAL               Stop  time     00:00:00  Mar 15, 2004 *
 *                                                                               *
 *   Account        SLP$GG                 Elapsed time  917:26:26.68            *
 *                                                                               *
 *   User Name      Assemble XCALL         CPU time       00:00:08.41            *
 *                                                                               *
 *   Job class      B                      SRB Time       00:00:00.10            *
 *                                                                               *
 *********************************************************************************
 IEF375I  JOB/WYL#XCAL/START 2004075.1301
 IEF376I  JOB/WYL#XCAL/STOP  2004075.1301 CPU    0MIN 08.41SEC SRB    0MIN 00.10SEC
1Assembler Done XCALL No Statements Flagged
1         High Level Assembler Option Summary                   (PTF P72483 )                                               Page    1
-                                                                                            HLASM R4.0  2004/03/15 13.01
0  No Overriding ASMAOPT Parameters
   Overriding Parameters-  NORENT,TERM,FLAG(NOCONT),US(MAP,WARN(10)),NODECK,LC(32767),XREF(SHORT),ESD,DXREF,NOOBJECT
   No Process Statements


   Options for this Assembly
0  NOADATA
     ALIGN
   NOASA
     BATCH
     CODEPAGE(047C)
   NOCOMPAT
   NODBCS
 3 NODECK
 3   DXREF
 3   ESD
   NOEXIT
 3   FLAG(0,ALIGN,NOCONT,NOIMPLEN,NOPAGE0,PUSH,RECORD,NOSUBSTR,USING0)
   NOFOLD
   NOGOFF
   NOINFO
     LANGUAGE(EN)
   NOLIBMAC
 3   LINECOUNT(32767)
     LIST(121)
     MXREF(SOURCE)
 3 NOOBJECT
     OPTABLE(UNI,NOLIST)
   NOPCONTROL
   NOPESTOP
   NOPROFILE
   NORA2
 3 NORENT
     RLD
     RXREF
     SIZE(MAX)
     SYSPARM()
 3   TERM(WIDE)
   NOTEST
     THREAD
   NOTRANSLATE
 3   USING(NOLIMIT,MAP,WARN(10))
 3   XREF(SHORT)

   No Overriding DD Names

1XCALL    External Symbol Dictionary                                                                                        Page    2
-Symbol   Type   Id     Address  Length     LD ID  Flags Alias-of                            HLASM R4.0  2004/03/15 13.01
0WYLXCALL  SD 00000001 00000000 00006490             00
 XCAL2025  LD          00000000           00000001
 INITXCAL  LD          00000026           00000001
 XCALL     LD          0000005A           00000001
 XCACTIVE  LD          000002F6           00000001
 MKFFINFO  ER 00000002
 INITERR   ER 00000003
 INITATTN  ER 00000004
 INITXDMP  ER 00000005
 EXRESET   ER 00000006
 GTNEWSET  ER 00000007
 CLRVSETS  ER 00000008
 GTXNLIST  ER 00000009
 SAVEVSTK  ER 0000000A
 PUSHON    ER 0000000B
 PUSHERR   ER 0000000C
 GETSTATE  ER 0000000D
 DBCALL    ER 0000000E
 XRETURN   LD          0000048E           00000001
 XRETOPTS  LD          0000066E           00000001
 MTOKEN    ER 0000000F
 MALL      ER 00000010
 MPARM     ER 00000011
 SCNINVAL  ER 00000012
 DBRET     ER 00000013
 LRTRIM    ER 00000014
 GETVSTK   ER 00000015
 SEGVNAME  ER 00000016
 POPON     ER 00000017
 POPERR    ER 00000018
 NSCAN     ER 00000019
 SCANCHK   ER 0000001A
 SEGCR     ER 0000001B
 SAVEDATA  ER 0000001C
 NOTVALID  ER 0000001D
 DEQUOTE   ER 0000001E
 SEG       ER 0000001F
 SEGWR     ER 00000020
 CVEXNO    ER 00000021
 PCALL     LD          000010F0           00000001
 PRETURN   LD          000012EE           00000001
 SCNPNAME  ER 00000022
 CHKPDEF   ER 00000023
 SEGT      ER 00000024
 GTPNLIST  ER 00000025
 SYSCALL   LD          00001C18           00000001
 XLOAD     LD          00001D5E           00000001
 PUBLOAD   LD          00001DB6           00000001
 LDABORT   LD          000023CA           00000001
 GETPROCP  ER 00000026
 NOOPTS    ER 00000027
 EXTOPEN   ER 00000028
 LOCALTOD  ER 00000029
 EXTCLOSE  ER 0000002A
 FLOWCTRL  ER 0000002B
1XCALL    External Symbol Dictionary                                                                                        Page    3
 ACTCHK    ER 0000002C
 XDELSET   ER 0000002D
 NDETRNG   ER 0000002E
 RDRNG     ER 0000002F
 RTRIM     ER 00000030
 XSETSET   ER 00000031
 XPUT      ER 00000032
 SHXLOAD   LD          000026BE           00000001
 SHPBLOAD  LD          000027A2           00000001
 XGETFRST  ER 00000033
 FMTCLCK   ER 00000034
 BTD       ER 00000035
 XGETNEXT  ER 00000036
 XPROC     LD          000028E2           00000001
 XSCAN     LD          0000297E           00000001
 XFORMAT   LD          000029BC           00000001
 MPINT     ER 00000037
 XCONVERT  LD          00002BE0           00000001
 XXXEXIT   LD          00002C14           00000001
 FFORMAT   ER 00000038
 GETXNAME  LD          00003520           00000001
 XGET      ER 00000039
 XDELETE   ER 0000003A
 GETDATA   ER 0000003B
 XLISTCLR  LD          000036D0           00000001
 CLRALIST  LD          000039B6           00000001
 FNAMPSHF  ER 0000003C
 DOFNAME   ER 0000003D
 FILEOPTS  ER 0000003E
 FNAMEFIN  ER 0000003F
 NRESOLVE  ER 00000040
 SCDQUOTE  ER 00000041
 FILFOPTS  ER 00000042
 PSCNPARM  LD          00004600           00000001
 SCNNLIST  LD          00004766           00000001
 SEGINIT   ER 00000043
 CHECKEND  ER 00000044
 SCNPDESC  LD          00004E94           00000001
 SCNVNAME  ER 00000045
 GETSUBS   ER 00000046
 GETVAR    ER 00000047
 EVALEXPR  ER 00000048
 VCLEAR    ER 00000049
 VINTEGER  ER 0000004A
 VNAME     ER 0000004B
 SAVEVAR   ER 0000004C
 VSTRING   ER 0000004D
 GETSTATE  LD          00005914           00000001
 EDTCOM    ER 0000004E
 GTXSCOPE  ER 0000004F
 GTPSCOPE  ER 00000050
 SETXNAME  LD          00005E8A           00000001
 MRKNAME   LD          00005EEE           00000001
 RSETNAME  LD          00005F26           00000001
 SEGXLINE  LD          00005F5C           00000001
 SEGXLNO   LD          00006008           00000001
 SEGXNAME  LD          000060D8           00000001
 SEGXDSN   LD          000061C0           00000001
 SEGFDSN   LD          0000628E           00000001
1XCALL    External Symbol Dictionary                                                                                        Page    4
 SEGDC     ER 00000051
 SEGVAR    ER 00000052
 SEGVALUE  ER 00000053
 EXSPGET   ER 00000054
 RETFNAME  ER 00000055
 RETFMEM   ER 00000056

1XCALL    WYLBUR XCALL, PCALL Commands                                                                                      Page    5
0Loc    Object Code    Addr1 Addr2  Stmt Lv Lineno    Source Statement                    (Asmedit 3.3)  HLASM R4.0  2004/03/15 13.01
+___    ______ ____    _____ _____  ____ __ ______    ______ _________
0                                      2              *******************************************************************
                                       3              *                                                                 *
                                       4              *     WYLBUR/370 - Release VI - Class I - Stanford Proprietary    *
                                       5              *                                                                 *
                                       6              *******************************************************************
                                       7                       HIBAL
                                     988
1XCALL    WYLBUR XCALL, PCALL Commands                                                                                      Page    6
0D-Loc  Object Code    Addr1 Addr2  Stmt Lv Lineno    Source Statement           (Hibal 5, Asmedit 3.3)  HLASM R4.0  2004/03/15 13.01
+_____  ______ ____    _____ _____  ____ __ ______    ______ _________
0000000                00000 06490   990              WYLXCALL CSECT
                                     994                       REGS  FSR,,,,,,,BR,(WAR,LSR),PAR,PBR,CPR,CVR,SPR,RAR
                                    1130
                                    1131              XCAL     IDENT 2025                11:49:39 01/25/02  (SLP)
                                    1134             +
                                    1135    01-IDENT +         ENTRY XCAL2025
                                    1136             +
 000000 16E7C3C1D3F2F0F2            1137    01-IDENT +XCAL2025 DC    AL1(22),C'XCAL2025,15MAR04,13:01'
                                    1138             +*
                                    1140              *
                                    1141                       SYSDEFN ,                 Define installation values
                                    1142
                                    1143                       PUSH  DSECTS
 USING  CP,R11                      1155             =         USING (CP),(CV)
 USING  CV,R12
 000017                00000 06490  1174             =         POP   PRINT
 000017                00000 06490  6818              WYLXCALL CSECT
 000017 E39640A3888540D4            6820                       DC    C'To the MAX !!!!'
                                    6821
1XCALL    (XCAL2025) (13:01) (15MAR04) DSECTS                                                                               Page    7
0Current Usings:  (CP,R11) (CV,R12)
0Loc    Object Code    Addr1 Addr2  Stmt Lv Lineno    Source Statement           (Hibal 5, Asmedit 3.3)  HLASM R4.0  2004/03/15 13.01
+___    ______ ____    _____ _____  ____ __ ______    ______ _________
0                                   6823                       ¿þþþþþþþþþþþþþþþþþþþþÜ
                                    6824                       Ÿ  CP, CV ADDITIONS  Ÿ
                                    6825                       Ÿ                    Ÿ
                                    6826                       ¾þþþþþþþþþþþþþþþþþþþþ»
 000026                             6827                       DS    0S(CV#FEXEC-CP#FEXEC-CPMAXXCT)
1XCALL    (XCAL2025) (13:01) (15MAR04) DSECTS                                                                               Page    8
0Current Usings:  (CP,R11) (CV,R12)
0Loc    Object Code    Addr1 Addr2  Stmt Lv Lineno    Source Statement           (Hibal 5, Asmedit 3.3)  HLASM R4.0  2004/03/15 13.01
+___    ______ ____    _____ _____  ____ __ ______    ______ _________
0                                   6829                       ¿þþþþþþþþþþþþþþþþþþþþþþþÜ
                                    6830                       Ÿ  COPY DSECTS TO HERE  Ÿ
                                    6831                       ¾þþþþþþþþþþþþþþþþþþþþþþþ»
1XCALL    (XCAL2025) (13:01) (15MAR04) DSECTS                                                                               Page    9
0Current Usings:  (CP,R11) (CV,R12)
0Loc    Object Code    Addr1 Addr2  Stmt Lv Lineno    Source Statement           (Hibal 5, Asmedit 3.3)  HLASM R4.0  2004/03/15 13.01
+___    ______ ____    _____ _____  ____ __ ______    ______ _________
0                                   6833                       COPY  XDSNAME
                                    6834=            =   ¿þþþþþþþþþþþþþþþþþþþþþþþþþþþþþþþþþþþþþþþþþþþþþþþþþþþþþþþþþþÜ
                                    6835=            =   Ÿ                                                          Ÿ
                                    6836=            =   Ÿ  XDSNAME - EXEC NAME DSECT                               Ÿ
                                    6837=            =   Ÿ                                                          Ÿ
                                    6838=            =   Ÿ  EXEC NAME DSECT.  THIS DSECT PROVIDES A UNIFORM NAME    Ÿ
                                    6839=            =   Ÿ  FORMAT FOR EXEC FILES.  TO PROPERLY SET THE EXEC NAME   Ÿ
                                    6840=            =   Ÿ  YOU MUST USE THE 'SETXNAME' ROUTINE FOUND IN THE XCALL  Ÿ
                                    6841=            =   Ÿ  MODULE.  THE 'SETXNAME' ROUTINE INSURES PROPER THE      Ÿ
                                    6842=            =   Ÿ  PROPER SETTING OF ALL FIELDS AND ALLOWS EXEC NAME       Ÿ
                                    6843=            =   Ÿ  COMPARISONS TO WORK AS EXPECTED.                        Ÿ
                                    6844=            =   Ÿ                                                          Ÿ
                                    6845=            =   Ÿ  CURRENT NAME FORMAT IS FULLY QUALIFIED W/PDS IN '()'.   Ÿ
                                    6846=            =   Ÿ  EG. WYL.GG.UUU.LIB(LOGON)                               Ÿ
                                    6847=            =   Ÿ  EG. SYS1.PROCLIB(TESTWYL)                               Ÿ
                                    6848=            =   Ÿ  EG. WYL.GS.WYL.NETWORK.MODULE.ASMR23                    Ÿ
                                    6849=            =   Ÿ  NAMES LONGER THAN 56 ARE INVALID.                       Ÿ
                                    6850=            =   Ÿ                                                          Ÿ
                                    6851=            =   ¾þþþþþþþþþþþþþþþþþþþþþþþþþþþþþþþþþþþþþþþþþþþþþþþþþþþþþþþþþþ»
 000000                00000 00040  6852             =XDSNAME  RECORD BEGIN
 000000                             6860  1          =XNAME      DS    CL56                DATA SET NAME
                                    6861  1          =XPREFIX    EQU   XNAME,11            DATA SET PREFIX (WYL.GG.UUU.)
 000038                             6862  1          =XHASH      DS    F                   HOST HASH VALUE (NOT USED)
 00003C                             6863  1          =XMRK       DS    CL4                 NAME MARK FOR PUBLOAD, RELOAD
 000040                00040 00040  6864             =         END
 000026                             6873             =         DS    0S(CPRG64NL-L'XDSNAME)
 000026                             6874             =         DS    0S(L'XDSNAME-CPRG64NL)
1XCALL    (XCAL2025) (13:01) (15MAR04) DSECTS                                                                               Page   10
0Current Usings:  (CP,R11) (CV,R12)
0Loc    Object Code    Addr1 Addr2  Stmt Lv Lineno    Source Statement           (Hibal 5, Asmedit 3.3)  HLASM R4.0  2004/03/15 13.01
+___    ______ ____    _____ _____  ____ __ ______    ______ _________
0                                   6876                       ¿þþþþþþþþþþþþþþþþþþþþþþþþþþþþþþþþþþþþþþþþþþþþþþþþþþÜ
                                    6877                       Ÿ                                                  Ÿ
                                    6878                       Ÿ  XFENTRY - EXEC FILE INFORMATION, SWEET, SIMPLE  Ÿ
                                    6879                       Ÿ                                                  Ÿ
                                    6880                       ¾þþþþþþþþþþþþþþþþþþþþþþþþþþþþþþþþþþþþþþþþþþþþþþþþþþ»
 000000                00000 00060  6881              XFENTRY  RECORD BEGIN
                                    6889  1           *
                                    6890  1           * EXEC SET NUMBER NAME
                                    6891  1           *
 000000                             6892  1           XFNAME     DS    XL(L'XDSNAME)       EXEC FILE NAME
                                    6893  1                      ¿þþþþþþþþþþþþþþþþþþþþþþþþþÜ
                                    6894  1                      Ÿ  EXEC FILE INFORMATION  Ÿ
                                    6895  1                      ¾þþþþþþþþþþþþþþþþþþþþþþþþþ»
 000040 00                          6896  1           XFFLAG1    FLAG  ,
 XFFLAG1.XFPUBLIC  01 EQ            6900  1                      FLAG  (XFPUBLIC,1,EQ)     PUBLIC EXEC
 XFFLAG1.XFUSERX   02 EQ            6910  1                      FLAG  (XFUSERX,2,EQ)      USERS EXEC
 000041 00                          6920  1           XFFLAG2    FLAG  ,
 000042 00                          6924  1           XFFLAG3    FLAG  ,
 000043 00                          6928  1           XFFLAG4    FLAG  ,
 000044                             6932  1           XF#SETNO   DS    F                   EXEC/FLOW SET NUMBER
 000048                             6933  1           XFRGEXEC   DS    A                   ADDRESS OF EXEC RGROUP INFO
 00004C                             6934  1           XFRGFLOW   DS    A                   ADDRESS OF FLOW RGROUP INFO
 000050                             6935  1           XFLDTIME   DS    D                   TIME LOADED
 000058                             6936  1           XFLTIME    DS    D                   TIME OF LAST ACCESS (NOT KEPT)
 000060                00060 00060  6937                       END
-
-                                   6947                       ¿þþþþþþþþþþþþþþþþþþþþþþþþþþþþþþþþþþþþþþþþþþþþþþþþþþþþþþþþþþþþþþþÜ
                                    6948                       Ÿ                                                               Ÿ
                                    6949                       Ÿ  XFXENTRY - EXEC FILE INFORMATION INDEX BY SET, RECORD GROUP  Ÿ
                                    6950                       Ÿ                                                               Ÿ
                                    6951                       ¾þþþþþþþþþþþþþþþþþþþþþþþþþþþþþþþþþþþþþþþþþþþþþþþþþþþþþþþþþþþþþþþ»
 000000                00000 00050  6952              XFXENTRY RECORD BEGIN
 000000                             6960  1           XFXNDX     DS    CL(CPRG16NL)        EXEC SET-RGROUP INDEX
 000010                00010 00000  6961  1                      ORG   XFXNDX
 000000                             6962  1           XFXSETNO   DS    F                   EXEC SET NUMBER
 000004                             6963  1           XFXRG      DS    F                   EXEC RGROUP INFO ADDR
 000008                             6964  1                      DS    0S((XFXNDX+L'XFXNDX)-*)
 000008                00008 00010  6965  1                      ORG
 000010                             6966  1           XFXNAME    DS    XL(L'XDSNAME)       EXEC FILE NAME AREA
 000050                00050 00050  6967                       END
1XCALL    (XCAL2025) (13:01) (15MAR04) DSECTS                                                                               Page   11
0Current Usings:  (CP,R11) (CV,R12)
0Loc    Object Code    Addr1 Addr2  Stmt Lv Lineno    Source Statement           (Hibal 5, Asmedit 3.3)  HLASM R4.0  2004/03/15 13.01
+___    ______ ____    _____ _____  ____ __ ______    ______ _________
0                                   6977                       COPY  VNENTRY
                                    6978=            =¿þþþþþþþþþþþþþþþþþþþþþþþþþþþþþþþþþþþþþþþþþþþþþþþþþþþþþþþþþþþþþþþþþþþþþÜ
                                    6979=            =Ÿ                                                                     Ÿ
                                    6980=            =Ÿ                                                                     Ÿ
                                    6981=            =Ÿ  VARIABLE ENTRY (COMMON)                                            Ÿ
                                    6982=            =Ÿ                                                                     Ÿ
                                    6983=            =Ÿ                                                                     Ÿ
                                    6984=            =Ÿ                                                                     Ÿ
                                                      ¾þþþþþþþþþþþþþþþþþþþþþþþþþþþþþþþþþþþþþþþþþþþþþþþþþþþþþþþþþþþþþþþþþþþþþ»
0000000                00000 00050  6985             =VNENTRY  RECORD BEGIN ,            VARIABLE ENTRY
                                    6993= 1          =     ¿þþþþþþþþþþþþþþþþþþþþþþþþþþþþþþþþþþþþþþþþþþþþþþþþþþþþþþþþþþþþþþÜ
                                    6994= 1          =     Ÿ  VARIABLE NAME, DESCRIPTION      (ONLY NAME SAVED WITH VAR)  Ÿ
                                    6995= 1          =     ¾þþþþþþþþþþþþþþþþþþþþþþþþþþþþþþþþþþþþþþþþþþþþþþþþþþþþþþþþþþþþþþ»
 000000                             6996  1          =VNDESC     DS    XL32                VARIABLE DESCRIPTOR,
 000020                00020 00000  6997  1          =           ORG   VNDESC
 000000                             6998  1          =VNNAME     DS    CL16                VARIABLE NAME
 000010 00                          6999  1          =VNPREFIX   FLAG  ,                   NAME PREFIX FLAGS
 VNPREFIX.VNPFX    01 EQ            7003  1          =           FLAG  (VNPFX,1,EQ)        X.
 VNPREFIX.VNPFGBL  02 EQ            7013  1          =           FLAG  (VNPFGBL,2,EQ)      GBL.
 VNPREFIX.VNPFSYS  03 EQ            7023  1          =           FLAG  (VNPFSYS,3,EQ)      SYS.
 VNPREFIX.VNPFSES  04 EQ            7033  1          =           FLAG  (VNPFSES,4,EQ)      SES.
 VNPREFIX.VNPFPUB  05 EQ            7043  1          =           FLAG  (VNPFPUB,5,EQ)      PUB.
 000011 00                          7053  1          =VNAFLAGS   FLAG  ,                   ARRAY FLAGS
 VNAFLAGS.VNADESC  80 ONES          7057  1          =           FLAG  VNADESC             GENERIC ARRAY DESCRIPTOR
 000012                             7062  1          =VNASUB1    DS    H                   ARRAY SUBSCRIPTS
 000014                             7063  1          =VNASUB2    DS    H
 000016                             7064  1          =VNASUB3    DS    H
 000018                             7065  1          =           DS    0S(VNDESC+L'VNDESC-*)
 000018                00018 00020  7066  1          =           ORG
                                    7067= 1          =     ¿þþþþþþþþþþþþþþþþþþþþþþþþÜ
                                    7068= 1          =     Ÿ  VARIABLE TYPE, VALUE  Ÿ
                                    7069= 1          =     ¾þþþþþþþþþþþþþþþþþþþþþþþþ»
 000020                             7070  1          =VNDATA     DS    XL16                VARIABLE TYPE/VALUE
 000030                00030 00020  7071  1          =           ORG   VNDATA
 000020                             7072  1          =VNSDATA    DS    XL6                 VARIABLE TYPE/VALUE (STRING)
 000026                00026 00020  7073  1          =           ORG   VNDATA
 000020                             7074  1          =VNADATA    DS    XL48                VARIABLE TYPE/VALUE (ARRAY)
 000050                00050 00020  7075  1          =           ORG   VNDATA
                                    7076  1          =
 000020 00                          7077  1          =VNTYPE     FLAG  ,                   VARIABLE TYPE
 VNTYPE.VNSTRING   01 EQ            7081  1          =           FLAG  (VNSTRING,1,EQ)     STRING
 VNTYPE.VNNUMB     02 EQ            7091  1          =           FLAG  (VNNUMB,2,EQ)       NUMBER
 VNTYPE.VNBOOL     03 EQ            7101  1          =           FLAG  (VNBOOL,3,EQ)       BOOLEAN
 VNTYPE.VNARRAY    04 EQ            7111  1          =           FLAG  (VNARRAY,4,EQ)      ARRAY
 VNTYPE.VNFN       05 EQ            7121  1          =           FLAG  (VNFN,5,EQ)         FUNCTION
 VNTYPE.VNPROC     06 EQ            7131  1          =           FLAG  (VNPROC,6,EQ)       PROCEDURE
 VNTYPE.VNLABEL    07 EQ            7141  1          =           FLAG  (VNLABEL,7,EQ)      LABEL
 000021 00                          7151  1          =VNDEBUG    FLAG  ,                   DEBUG FLAGS
 VNDEBUG.VNDBGET   80 ONES          7155  1          =           FLAG  VNDBGET             DEBUG VARIABLE FETCH
 VNDEBUG.VNDBSAVE  40 ONES          7160  1          =           FLAG  VNDBSAVE            DEBUG VARIABLE STORE
 VNDEBUG.VNDBTRAC  20 ONES          7165  1          =           FLAG  VNDBTRAC            DEBUG TRACE THIS PROC/LABEL
 VNDEBUG.VNDBSTOP  10 ONES          7170  1          =           FLAG  VNDBSTOP            DEBUG STOP AT PROC/LABEL
 000022 00                          7175  1          =VNFLAGS1   FLAG  ,
1XCALL    (XCAL2025) (13:01) (15MAR04) DSECTS                                                                               Page   12
0Current Usings:  (CP,R11) (CV,R12)
0Loc    Object Code    Addr1 Addr2  Stmt Lv Lineno    Source Statement           (Hibal 5, Asmedit 3.3)  HLASM R4.0  2004/03/15 13.01
+___    ______ ____    _____ _____  ____ __ ______    ______ _________
0VNFLAGS1.VNINT    80 ONES          7179  1          =           FLAG  VNINT               ** INTEGER, OLD EXEC MODE !
 000023 00                          7184  1          =VNFLAGS2   FLAG  ,                   UNUSED
                                    7188= 1          =     ¿þþþþþþþþþþþþþþþÜ
                                    7189= 1          =     Ÿ  COMMON AREA  Ÿ
                                    7190= 1          =     ¾þþþþþþþþþþþþþþþ»
 000024                             7191  1          =           DS    0F
                                    7192  1          =VNAREA     EQU   *                   MULTI-USE AREA (COMMON)
                                    7193  1          =
 000024                00024 00024  7194  1          =           ORG   VNAREA
 000024                             7195  1          =           DS    0H                  (NUMBER), (BOOLEAN)
 000024                             7196  1          =VNVALUE    DS    XL12                ALL NUMBERS STORED AS PCKD DECIMAL
                                    7197  1          =
 000030                00030 00024  7198  1          =           ORG   VNAREA
 000024                             7199  1          =           DS    0H                  (STRING)
 000024                             7200  1          =VNSTRLEN   DS    H                   STRING LENGTH
                                    7201  1          =VNSTRLOC   EQU   *,1,C'C'            START OF STRING (IF ANY)
 000026                             7202  1          =           DS    0S(VNSDATA+L'VNSDATA-*)
                                    7203  1          =
 000026                00026 00024  7204  1          =           ORG   VNAREA
 000024                             7205  1          =           DS    0H                  (ARRAY)
 000024                             7206  1          =VNARG      DS    F                   ARRAY RECORD GROUP INFO POINTER
 000028                             7207  1          =VNASET     DS    F                   ARRAY SET NUMBER
 00002C                             7208  1          =VNAIDENT   DS    F                   ARRAY ID NUMBER
 000030 00                          7209  1          =VNATYPE    FLAG  ,                   ARRAY TYPE
 VNATYPE.VNASTR    01 EQ            7213  1          =           FLAG  (VNASTR,1,EQ)       STRINGS
 VNATYPE.VNANUMB   02 EQ            7223  1          =           FLAG  (VNANUMB,2,EQ)      NUMBERS
 VNATYPE.VNABOOL   03 EQ            7233  1          =           FLAG  (VNABOOL,3,EQ)      BOOLEANS
 000031 00                          7243  1          =VNAFLAG    FLAG  ,                   NOT USED
 000032                             7247  1          =VNADIM1    DS    H                   DIMENSION 1
 000034                             7248  1          =VNADIM2    DS    H                   DIMENSION 2
 000036                             7249  1          =VNADIM3    DS    H                   DIMENSION 3
 000038                             7250  1          =VNANAME    DS    CL(L'VNNAME)        ORIGINAL ARRAY NAME
 000048                             7251  1          =           DS    0S(VNADATA+L'VNADATA-*)
                                    7252  1          =
 000048                00048 00024  7253  1          =           ORG   VNAREA
 000024                             7254  1          =           DS    0H                  (PROCEDURE)
 000024                             7255  1          =VNPSTART   DS    F                   STARTING LINE NUMBER
 000028                             7256  1          =VNPEND     DS    F                   ENDING LINE NUMBER
 00002C                             7257  1          =           DS    0S(VNDATA+L'VNDATA-*)
                                    7258  1          =
 00002C                0002C 00024  7259  1          =           ORG   VNAREA
 000024                             7260  1          =           DS    0H                  (LABEL)
 000024                             7261  1          =VNLLINE    DS    F                   LABEL LINE NUMBER
 000028                             7262  1          =           DS    0S(VNDATA+L'VNDATA-*)
                                    7263  1          =
 000028                00028 00024  7264  1          =           ORG   VNAREA
 000024                             7265  1          =           DS    0H                  (FUNCTION)
 000024                             7266  1          =VNFSTART   DS    F                   STARTING LINE NUMBER
 000028                             7267  1          =VNFEND     DS    F                   ENDING LINE NUMBER
 00002C                             7268  1          =           DS    0S(VNDATA+L'VNDATA-*)
                                    7269  1          =
 00002C                0002C 00024  7270  1          =           ORG   VNAREA
 000024                             7271  1          =           DS    0H                  (SYSTEM VAR/FN/PROC)
 000024                             7272  1          =VNSYSRTN   DS    A                   ADDRESS OF SYSTEM ROUTINE
1XCALL    (XCAL2025) (13:01) (15MAR04) DSECTS                                                                               Page   13
0Current Usings:  (CP,R11) (CV,R12)
0Loc    Object Code    Addr1 Addr2  Stmt Lv Lineno    Source Statement           (Hibal 5, Asmedit 3.3)  HLASM R4.0  2004/03/15 13.01
+___    ______ ____    _____ _____  ____ __ ______    ______ _________
0000028                             7273  1          =           DS    0S(VNDATA+L'VNDATA-*)
 000028                00028 00050  7274  1          =           ORG
                                    7275  1          =*
                                    7276  1          =*
                                    7277  1          =NL         EQU   L'VNVALUE,,C'N'     NUMBER LENGTH
                                    7278  1          =MAXSTRLN   EQU   256,,C'N'           MAXIMUM STRING VAR LENGTH
                                    7279  1          =           DS    0S(MAXSTRLN-&LINESZ)
 000050                                   1          +           DS    0S(MAXSTRLN-235)
 000050                00050 00050  7280             =         END
-
-                                   7290                       COPY  VPARM
                                    7291=            =¿þþþþþþþþþþþþþþþþþþþþþþþþþþþþþþþþþþþþþþþþþþþþþþþþþþþþþþþþþþþþþþþþþþþþþÜ
                                    7292=            =Ÿ                                                                     Ÿ
                                    7293=            =Ÿ                                                                     Ÿ
                                    7294=            =Ÿ  VARIABLE PARM AREA                                                 Ÿ
                                    7295=            =Ÿ                                                                     Ÿ
                                    7296=            =Ÿ                                                                     Ÿ
                                    7297=            =Ÿ                                                                     Ÿ
                                                      ¾þþþþþþþþþþþþþþþþþþþþþþþþþþþþþþþþþþþþþþþþþþþþþþþþþþþþþþþþþþþþþþþþþþþþþ»
0000000                00000 00150  7298             =VPARM    RECORD BEGIN ,            PARM AREA FOR VARIABLES
 000000                             7306  1          =           DS    (L'VNENTRY)X        IS A VARIABLE ENTRY
 000050                             7307  1          =           DS    (((MAXSTRLN-1)/16)*16+16)X  AND A STRING AREA
 000150                00150 00150  7308             =         END
-
-                                   7318                     ¿þþþþþþþþþþþþþþþþþþþþþþþþþþþþþþþþþþþþþþþþþþþþþþþþþþþþþþþþþþþþþþþþþÜ
                                    7319                     Ÿ    PARM LIST DEFINITIONS                                        Ÿ
                                    7320                     Ÿ                                                                 Ÿ
                                    7321                     Ÿ    NLIST - PARAMETER NAME LIST (AS DEFINED ON PROC STATEMENT)   Ÿ
                                    7322                     Ÿ    VLIST - PARAMETER VALUE LIST                                 Ÿ
                                    7323                     Ÿ  PLIST - PARAMETER NAME LIST (AS SPECIFIED ON PCALL STATEMENT)  Ÿ
                                    7324                     Ÿ                                                                 Ÿ
                                    7325                     Ÿ    NOTE: THE DIFFERENCE BETWEEN A NLIST AND A PLIST (IN THIS    Ÿ
                                    7326                     Ÿ    PROGRAM) IS AS FOLLOWS:  A NLIST IS A LIST OF NAMES          Ÿ
                                    7327                     Ÿ    SPECIFIED ON A PROCEDURE DEFINITION,, THE NAMES MUST         Ÿ
                                    7328                     Ÿ    SIMPLE VARIABLE NAMES.  THESE VARIABLES WILL BECOME          Ÿ
                                    7329                     Ÿ    LOCAL VARIABLES OF THE PROCEDURE.  A PLIST IS A LIST         Ÿ
                                    7330                     Ÿ    OF PARM VARIABLE NAMES THAT ARE PASSED TO A PROCEDURE,, AS   Ÿ
                                    7331                     Ÿ    SOME OF THE PARAMETERS MAY BE EXPRESSIONS OR CONSTANTS       Ÿ
                                    7332                     Ÿ    NOT ALL THE ENTRIES IN A PLIST EXIST,, ONLY VARIABLE         Ÿ
                                    7333                     Ÿ    NAME ENTRIES EXIST,,, CONSTANT OR EXPRESSION ENTRIES ARE     Ÿ
                                    7334                     Ÿ    ZERO.                                                        Ÿ
                                    7335                     ¾þþþþþþþþþþþþþþþþþþþþþþþþþþþþþþþþþþþþþþþþþþþþþþþþþþþþþþþþþþþþþþþþþ»
 000000                00000 00100  7336              NLIST    RECORD BEGIN ,            LIST OF PARAMETER NAMES
 000000                             7344  1                      DS    XL(CPPLIMIT*L'VNDESC)
 000100                00100 00100  7345                       END
1XCALL    (XCAL2025) (13:01) (15MAR04) DSECTS                                                                               Page   14
0Current Usings:  (CP,R11) (CV,R12)
0Loc    Object Code    Addr1 Addr2  Stmt Lv Lineno    Source Statement           (Hibal 5, Asmedit 3.3)  HLASM R4.0  2004/03/15 13.01
+___    ______ ____    _____ _____  ____ __ ______    ______ _________
0                                   7354
 000000                00000 00A80  7355              VLIST    RECORD BEGIN ,            LIST OF PARAMETER VALUES
 000000                             7363  1                      DS    XL(CPPLIMIT*L'VPARM)
 000A80                00A80 00A80  7364                       END
                                    7373
 000000                00000 00100  7374              PLIST    RECORD BEGIN ,            LIST OF PARM NAMES
 000000                             7382  1                      DS    XL(CPPLIMIT*L'VNDESC)
 000100                00100 00100  7383                       END
1XCALL    (XCAL2025) (13:01) (15MAR04) DSECTS                                                                               Page   15
0Current Usings:  (CP,R11) (CV,R12)
0Loc    Object Code    Addr1 Addr2  Stmt Lv Lineno    Source Statement           (Hibal 5, Asmedit 3.3)  HLASM R4.0  2004/03/15 13.01
+___    ______ ____    _____ _____  ____ __ ______    ______ _________
0                                   7393                     ¿þþþþþþþþþþþþþþþþþþþþþþþþþþþþþþþþþþþþþþþþþþþþþþþþþþþþþþþþþþþþþþþþþÜ
                                    7394                     Ÿ                                                                 Ÿ
                                    7395                     Ÿ  SNENTRY - EXEC STATE ENTRY                                     Ÿ
                                    7396                     Ÿ                                                                 Ÿ
                                    7397                     Ÿ  THIS DSECT CONTAINS INFORMATION DESCRIBING THE EXCUTION STATE  Ÿ
                                    7398                     Ÿ  OF AN EXEC.  IT IS SAVED WHEN WE START A NEW EXEC.  IT IS      Ÿ
                                    7399                     Ÿ  RESTORED WHEN WE RESUME EXECUTION.  ALL FIELDS CORRESPOND TO   Ÿ
                                    7400                     Ÿ  EQUIVALENT CP FIELDS.  (NO?)                                   Ÿ
                                    7401                     Ÿ                                                                 Ÿ
                                    7402                     Ÿ  NOTE: THIS STRUCTURE IS USED TO SAVE AND RESOTRE STATE INFO    Ÿ
                                    7403                     Ÿ  FROM XCALLS AND PCALLS.  SOME STATE INFO IS NOT RESTORED       Ÿ
                                    7404                     Ÿ  UPON RETURN FROM A PCALL.  SEE SETPRET ROUTINE FOR DETAILS.    Ÿ
                                    7405                     Ÿ                                                                 Ÿ
                                    7406                     ¾þþþþþþþþþþþþþþþþþþþþþþþþþþþþþþþþþþþþþþþþþþþþþþþþþþþþþþþþþþþþþþþþþ»
 000000                00000 00088  7407              SNENTRY  RECORD BEGIN
 000000 00                          7415  1           SNFLAG     FLAG
 SNFLAG.SNFEXEC    80 ONES          7419  1                      FLAG  SNFEXEC             EXEC MODE IN EFFECT
 000001 00                          7424  1           SNFLAG2    FLAG  ,                   MISC FLAGS, ONLY THOSE NECESSARY!
 SNFLAG2.SNFXTEND  80 ONES          7428  1                      FLAG  SNFXTEND            EXTENDED EXEC
 SNFLAG2.SNFXOLD   40 ONES          7433  1                      FLAG  SNFXOLD             OLD EXEC
 SNFLAG2.SNFXAUTHL 20 ONES          7438  1                      FLAG  SNFXAUTHLIB         AUTHORIZED EXEC LIBRARY
 SNFLAG2.SNFXAUTH  10 ONES          7443  1                      FLAG  SNFXAUTH            Running in authorized mode
 SNFLAG2.SNFVCMD   08 ONES          7448  1                      FLAG  SNFVCMD             COMMAND SENT TO WYL FROM ORVYL
 000002 00                          7453  1           SNFLAG3    FLAG
 SNFLAG3.SNFTYPED  80 ONES          7457  1                      FLAG  SNFTYPED            COMMAND TYPED AT TERMINAL
 SNFLAG3.SNFTRY    40 ONES          7462  1                      FLAG  SNFTRY              TRY XCALL, TRY PCALL
 SNFLAG3.SNFQUIET  20 ONES          7467  1                      FLAG  SNFQUIET            QUIET XCALL
 SNFLAG3.SNFXQT    10 ONES          7472  1                      FLAG  SNFXQT              QUIET XPROC
 SNFLAG3.SNFXDUMP  08 ONES          7477  1                      FLAG  SNFXDUMP            DUMP XPROC
 000003 00                          7482  1           SNFLAG4    FLAG
 000004                             7486  1           SNEXLINE   DS    F                   EXEC FILE LINE NUMBER
 000008                             7487  1           SNEXNEXT   DS    F                   NEXT EXEC FILE LINE NUMBER
 00000C                             7488  1           SNSCOPE    DS    F                   START OF SCOPE
 000010                             7489  1           SNSCOPD    DS    F                   END OF SCOPE
 000014                             7490  1           SNXSCOPE   DS    F                   START OF XPROC SCOPE
 000018                             7491  1           SNXSCOPD   DS    F                   END OF XPROC SCOPE
 00001C                             7492  1           SN#XSET    DS    F                   EXEC FILE SET NUMBER
 000020                             7493  1           SNRGEXEC   DS    F                   EXEC FILE RECORD GROUP POINTER
 000024                             7494  1           SNRGFLOW   DS    F                   FLOW RECORD GROUP POINTER
 000028                             7495  1           SNVSET#    DS    F                   VARIABLE STACK SET #
 00002C                             7496  1           SNXVSET#   DS    F                   VARIABLE STACK SET # OF LAST XPROC
 000030                             7497  1           SNESCAPE   DS    C                   ESCAPE CHARACTER
 000031                             7498  1           SNSKIP     DS    C                   SKIP   CHARACTER
 000032                             7499  1           SNXNAME    DS    CL(L'XDSNAME)       EXEC, XPROC NAME ,,, NOT SET!
 000072                             7500  1           SNPROCNM   DS    CL(L'CPPROCNM)      EXEC PROCEDURE NAME
 000082                             7501  1           SNXPUSH    DS    CL(L'CPXPUSH)       ADDITION EXEC STATE INFO
 000088                00088 00088  7502                       END
1XCALL    (XCAL2025) (13:01) (15MAR04) DSECTS                                                                               Page   16
0Current Usings:  (CP,R11) (CV,R12)
0Loc    Object Code    Addr1 Addr2  Stmt Lv Lineno    Source Statement           (Hibal 5, Asmedit 3.3)  HLASM R4.0  2004/03/15 13.01
+___    ______ ____    _____ _____  ____ __ ______    ______ _________
0000026                00000 06490  7512              WYLXCALL CSECT
1XCALL    (XCAL2025) (13:01) (15MAR04) XCALL Module                                                                         Page   17
0Current Usings:  (CP,R11) (CV,R12)
0Loc    Object Code    Addr1 Addr2  Stmt Lv Lineno    Source Statement           (Hibal 5, Asmedit 3.3)  HLASM R4.0  2004/03/15 13.01
+___    ______ ____    _____ _____  ____ __ ______    ______ _________
0                                   7515              ¿þþþþþþþþþþþþþþþþþþþþþþþþþþþþþþþþþþþþþþþþþþþþþþþþþþþþþþþþþþþþþþþþþþþþþÜ
                                    7516              Ÿ                                                                     Ÿ
                                    7517              Ÿ                                                                     Ÿ
                                    7518              Ÿ  INITXCAL - INITIALIZE XCALL MODULE                                 Ÿ
                                    7519              Ÿ                                                                     Ÿ
                                    7520              Ÿ  (PER USER INIT -- CALLED BY SIGN MODULE)                           Ÿ
                                    7521              Ÿ                                                                     Ÿ
                                    7522              Ÿ                                                                     Ÿ
                                                      ¾þþþþþþþþþþþþþþþþþþþþþþþþþþþþþþþþþþþþþþþþþþþþþþþþþþþþþþþþþþþþþþþþþþþþþ»
0000026 50E0 D000/9008_      00000  7523              INITXCAL XPROC ,
 USING  *,R7
 000040 58E0 7370/0DEE       003B0  7563                       ACALL XLISTCLR            CLEAR EXEC CACHE LIST
 000046 58E0 7374/0DEE       003B4  7567                       ACALL CLRALIST            CLEAR ACTIVE EXECS LIST
 00004C 18D8/9808 D004_             7571                       PEND  ,
 DROP   *,R7
1XCALL    (XCAL2025) (13:01) (15MAR04) XCALL Command                                                                        Page   18
0Current Usings:  (CP,R11) (CV,R12)
0Loc    Object Code    Addr1 Addr2  Stmt Lv Lineno    Source Statement           (Hibal 5, Asmedit 3.3)  HLASM R4.0  2004/03/15 13.01
+___    ______ ____    _____ _____  ____ __ ______    ______ _________
0                                   7592              ¿þþþþþþþþþþþþþþþþþþþþþþþþþþþþþþþþþþþþþþþþþþþþþþþþþþþþþþþþþþþþþþþþþþþþþÜ
                                    7593              Ÿ                                                                     Ÿ
                                    7594              Ÿ                                                                     Ÿ
                                    7595              Ÿ  XCALL - CALL EXEC FILE                                             Ÿ
                                    7596              Ÿ                                                                     Ÿ
                                    7597              Ÿ  ON ENTRY:                                                          Ÿ
                                    7598              Ÿ       SCANCB - REMAINDER OF XCALL COMMAND !                         Ÿ
                                    7599              Ÿ                                                                     Ÿ
                                    7600              Ÿ  WE DO THE FOLLOWING (MORE OR LESS) !                               Ÿ
                                    7601              Ÿ       - GET THE NAME OF THE EXEC TO CALL                            Ÿ
                                    7602              Ÿ       - LOAD THE EXEC TO CALL, IF NOT ALREADY LOADED                Ÿ
                                    7603              Ÿ       - GET THE PARAMETER STRING                                    Ÿ
                                    7604              Ÿ       - GET THE PARAMETER LIST                                      Ÿ
                                    7605              Ÿ       - GET THE PARAMETER VALUES                                    Ÿ
                                    7606              Ÿ       - GET THE XPROC NAME LIST                                     Ÿ
                                    7607              Ÿ       - PASS PARAMETERS                                             Ÿ
                                    7608              Ÿ       - SAVE CALLING/CALLED PARM LISTS                              Ÿ
                                    7609              Ÿ       - SAVE CALLING ROUTINES EXECUTION STATE                       Ÿ
                                    7610              Ÿ       - ESTABLISH NEW ROUTINES EXECUTION STATE                      Ÿ
                                    7611              Ÿ       - TAKE OFF !                                                  Ÿ
                                    7612              Ÿ                                                                     Ÿ
                                    7613              Ÿ NOTE: CPPLIMIT=8                MAXIMUM NUMBER OF PARAMETERS        Ÿ
                                    7614              Ÿ                                                                     Ÿ
                                    7615              Ÿ                                                                     Ÿ
                                                      ¾þþþþþþþþþþþþþþþþþþþþþþþþþþþþþþþþþþþþþþþþþþþþþþþþþþþþþþþþþþþþþþþþþþþþþ»
0000000                00000 00E70  7616              XCLWA    RECORD BEGIN
 000000 00                          7624  1           XCLFLAG    FLAG  ,
 XCLFLAG.XCLDSN    01 EQ            7628  1                      FLAG  (XCLDSN,1,EQ)       XCALL <DSN NAME>
 XCLFLAG.XCLACT    02 EQ            7638  1                      FLAG  (XCLACT,2,EQ)       XCALL ACTIVE
 000001 00                          7648  1           XCLFLAG2   FLAG  ,
 XCLFLAG2.XCLPARMS 01 EQ            7652  1                      FLAG  (XCLPARMS,1,EQ)     PARM LIST
 XCLFLAG2.XCLFREE  02 EQ            7662  1                      FLAG  (XCLFREE,2,EQ)      FREE FORMAT PARM STRING
 000004                             7672  1           XC#SETNO   DS    F                   CALLED EXEC SET NUMBER
 000008                             7673  1           XCRGEXEC   DS    F                   CALLED EXEC RECORD GROUP
 00000C                             7674  1           XCRGFLOW   DS    F                   CALLED EXEC FLOW RECORD GROUP
 000010                             7675  1           XCNEWSET   DS    F                   CALLED EXEC NEW VAR SET NUMBER
                                    7676  1           XCPARM     DS    XL(&LINESZ)         PARAMETER STRING
 000014                                   1          +XCPARM     DS    XL(235)             PARAMETER STRING
 000100                             7677  1           XCPARMLN   DS    F                   PARAMETER STRING LENGTH
 000104                             7678  1           XCPARMCT   DS    F                   PARM COUNT
 000108                             7679  1           XCLPLIST   DS    XL(L'PLIST)         PARM LIST (FROM CALLER)
 000208                             7680  1           XCLNLIST   DS    XL(L'NLIST)         NAME LIST (FROM PROC)
 000308                             7681  1           XCLVLIST   DS    XL(L'VLIST)         VALUE LIST (ACTUAL PARM VALUES)
 000D88                             7682  1           XCLXINFO   DS    XL(L'XFENTRY)       EXEC FILE INFO DSECT
 000DE8                             7683  1           XCLSTATE   DS    XL(L'SNENTRY)       EXEC STATE INFO DSECT
 000E70                00E70 00E70  7684                       END
                                    7693              *
                                    7694              *
 00005A 50E0 D000/9008_      00000  7695              XCALL    XPROC XCLWA
 USING  *,R7
 USING  XCLWA-(4+36),R8
                                    7746
                                    7747                       COMMENT                   CLEAR WORK AREA
1XCALL    (XCAL2025) (13:01) (15MAR04) XCALL Command                                                                        Page   19
0Current Usings:  (*,R7) (XCLWA-(4+36),R8) (CP,R11) (CV,R12)
0Loc    Object Code    Addr1 Addr2  Stmt Lv Lineno    Source Statement           (Hibal 5, Asmedit 3.3)  HLASM R4.0  2004/03/15 13.01
+___    ______ ____    _____ _____  ____ __ ______    ______ _________
0000074 4120 8050            00028  7748                       LA    R2,XCLWA+40            (EXCEPT FOR ENTRY REGS)
 000078 4130 0E48            00E48  7749                       LA    R3,L'XCLWA-40
 00007C 1B55                        7750                       CLEAR R5
 00007E 0E24                        7754                       MVCL  R2,R4
                                    7755
                                    7756                       COMMENT                   GET FILE WORK AREA
 000080 58E0 7344/0DEE       003B8  7757                       VCALL MKFFINFO
                                    7761
                                    7762                       COMMENT                   SCAN XCALL OPTIONS
 000086 58E0 7348/0DEE       003BC  7763                       ACALL SCNXCALL
 00008C 1233/4770 7022              7767                       IF    (R3,Z),BEGIN
 000092 9202 8028      00000        7781  1                      SET   XCLACT              XCALL ACTIVE SCANNED
 000096                             7787                       END
 000096 7026/47F0 702A 00096 00090  7791                       ELSE  BEGIN
 00009A 9201 8028      00000        7802  1                      SET   XCLDSN              XCALL DSN SCANNED
 00009E                             7808                       END
 00009E 1222/4770 7034              7812                       IF    (R2,Z),BEGIN
 0000A4 9201 8029      00001        7826  1                      SET   XCLPARMS            PARM-LIST SCANNED
 0000A8                             7832                       END
 0000A8 7038/47F0 7042 000A8 000A2  7836                       ELSE  BEGIN
 0000AC 9202 8029      00001        7847  1                      SET   XCLFREE             FREE-FORMAT PARM STRING SCANNED
 0000B0 D203 812C 734C 00104 003C0  7853  1                      MVC   XCPARMCT,=F'-1'     SET -1 PARM COUNT, FOR FREE FORMAT
 0000B6                             7854                       END
 0000B6 5000 8128            00100  7858                       ST    R0,XCPARMLN
 0000BA 5830 8128            00100  7859                       L     R3,XCPARMLN         SAVE INPUT PARM LIST/STRING
 0000BE 0630/1233/4740_             7860                       MOVE  R3,XCPARM,@R1
                                    7898
                                    7899                       COMMENT                   IF CALLED FROM TERMINAL
 0000CA 9180 B758/4710_00758        7900                       IF    ~CPFEXEC,BEGIN      CLEAR ERROR/ATTN STATE, COMMANDS
 0000D2 58E0 7350/0DEE       003C4  7915  1                      VCALL INITERR
 0000D8 58E0 7354/0DEE       003C8  7919  1                      VCALL INITATTN
 0000DE 58E0 7358/0DEE       003CC  7923  1                      VCALL INITXDMP            TURN OFF EXEC DUMP INFO
 0000E4 94BF B7E4      007E4        7927  1                      CLEAR CPFXQT              CLEAR EXEC QUIET FLAG
 0000E8 D201 B7E2 B7E0 007E2 007E0  7934  1                      MVC   CPLLIMIT,CPLIMIT    LOCAL LIMIT DEFAULTS TO GLOBAL
 0000EE                             7935                       END
                                    7939
                                    7940                       COMMENT                   IF 1ST XCALL, RESET EXEC STACKS
 0000EE 9502 B759/4780_00759        7941                       IF    (CPFXOLD,OR,~CPFEXEC),BEGIN
                                    7970  1                      COMMENT                   CLEAR VAR STACK, SET BASE VARS
                                    7971  1                      COMMENT                   AND RESET EXEC ALL EXEC POINTERS
 0000FE 58E0 735C/0DEE       003D0  7972  1                      VCALL EXRESET             TO INITIAL VALUES
 000104                             7976                       END
                                    7980
                                    7981                       COMMENT                   LOAD EXEC FILE, IF NEEDED
 000104 9501 8028/4770_00000        7982                       IF    XCLDSN,BEGIN
 00010C 4110 8DB0            00D88  7997  1                      LA    R1,XCLXINFO         SET EXEC FILE NAME
 000110 58E0 7360/0DEE       003D4  7998  1                      ACALL SETXNAME
 000116 1B00                        8002  1                      CLEAR R0
 000118 4110 8DB0            00D88  8006  1                      LA    R1,XCLXINFO
 00011C 4120 8DB0            00D88  8007  1                      LA    R2,XCLXINFO
 000120 58E0 7364/0DEE       003D8  8008  1                      ACALL GETXINFO            CHECK IF EXEC LOADED
 000126 4780 70BC            00130  8012  1                      IF    NZ,BEGIN            IF NOT LOADED, LOAD
 00012A 58E0 7368/0DEE       003DC  8023  2                        ACALL LOADDSN
 000130                             8027  1                      END
1XCALL    (XCAL2025) (13:01) (15MAR04) XCALL Command                                                                        Page   20
0Current Usings:  (*,R7) (XCLWA-(4+36),R8) (CP,R11) (CV,R12)
0Loc    Object Code    Addr1 Addr2  Stmt Lv Lineno    Source Statement           (Hibal 5, Asmedit 3.3)  HLASM R4.0  2004/03/15 13.01
+___    ______ ____    _____ _____  ____ __ ______    ______ _________
0000130                             8031                       END
                                    8035
                                    8036                       COMMENT                   LOAD EXEC FILE FROM ACTIVE,
 000130 9502 8028/4770_00000        8037                       IF    XCLACT,BEGIN          IF ACTIVE SPECIFIED
 000138 9180 B758/47E0_00758        8052  1                      IF    CPFEXEC,BEGIN
 000140 4110 736C/4100_      003E0  8067  2                        ERROR 'XCALL ACTIVE: command invalid from within EXEC file.'
 00014C                             8074  1                      END
 00014C 58E0 73A0/0DEE       00414  8078  1                      ACALL LOADACT
 000152                             8082                       END
                                    8086
                                    8087                       COMMENT                   GET CALLED EXEC POINTERS
 000152 9501 8028/4770_00000        8088                       IF    XCLDSN,BEGIN        IF XCALL DSN,
 00015A 1B00                        8103  1                      CLEAR R0
 00015C 4110 8DB0            00D88  8107  1                      LA    R1,XCLXINFO
 000160 4120 8DB0            00D88  8108  1                      LA    R2,XCLXINFO
 000164 58E0 7364/0DEE       003D8  8109  1                      ACALL GETXINFO
 00016A 4780 70FC            00170  8113  1                      IF    NZ,BEGIN
 00016E 0000                        8124  2                        BOMB
 000170                             8126  1                      END
 000170 D203 802C 2044 00004 00044  8130  1                      MVC   XC#SETNO,XF#SETNO-XFENTRY(R2)
 000176 D203 8030 2048 00008 00048  8131  1                      MVC   XCRGEXEC,XFRGEXEC-XFENTRY(R2)
 00017C D203 8034 204C 0000C 0004C  8132  1                      MVC   XCRGFLOW,XFRGFLOW-XFENTRY(R2)
 000182                             8133                       END
 000182 7112/47F0 7130_00182 00158  8137                       ELSEIF XCLACT,BEGIN       IF XCALL ACTIVE,
 00018E D203 802C 73A4 00004 00418  8161  1                      MVC   XC#SETNO,=AL4(CP#XACT)
 000194 4130 B4A4            004A4  8162  1                      LA    R3,CPEXEC
 000198 5030 8030            00008  8163  1                      ST    R3,XCRGEXEC
 00019C 4130 B4C4            004C4  8164  1                      LA    R3,CPFLOW
 0001A0 5030 8034            0000C  8165  1                      ST    R3,XCRGFLOW
 0001A4                             8166                       END
 0001A4 7134/47F0 7136 001A4 0018C  8170                       ELSE  BEGIN               IF NEITHER, BOMB
 0001A8 0000                        8181  1                      BOMB
 0001AA                             8183                       END
                                    8187
                                    8188                       COMMENT                   GET NEW VARIABLE SET NUMBER
 0001AA 58E0 73A8/0DEE       0041C  8189                       VCALL GTNEWSET
 0001B0 5000 8038            00010  8193                       ST    R0,XCNEWSET
                                    8194                       COMMENT                   CLEAR NEW VARIABLE SET
 0001B4 5800 8038            00010  8195                       L     R0,XCNEWSET
 0001B8 58E0 73AC/0DEE       00420  8196                       VCALL CLRVSETS
                                    8200                       COMMENT                   MARK EXEC ACTIVE
 0001BE 5800 802C            00004  8201                       L     R0,XC#SETNO
 0001C2 5810 8030            00008  8202                       L     R1,XCRGEXEC
 0001C6 58E0 73B0/0DEE       00424  8203                       ACALL MRKALIST
 0001CC 4780 7168            001DC  8207                       IF    NZ,BEGIN
 0001D0 4110 73EC/4100_      00460  8218  1                      ERROR 'Too many (>64) EXEC files active.'
 0001DC                             8225                       END
                                    8229
                                    8230                       COMMENT                   SCAN PARM LIST
 0001DC 9501 8029/4770_00001        8231                       IF    XCLPARMS,BEGIN
 0001E4 5800 8128            00100  8246  1                      L     R0,XCPARMLN
 0001E8 4110 803C            00014  8247  1                      LA    R1,XCPARM
 0001EC 4120 8130            00108  8248  1                      LA    R2,XCLPLIST
 0001F0 58E0 73B4/0DEE       00428  8249  1                      ACALL SCNPLIST
1XCALL    (XCAL2025) (13:01) (15MAR04) XCALL Command                                                                        Page   21
0Current Usings:  (*,R7) (XCLWA-(4+36),R8) (CP,R11) (CV,R12)
0Loc    Object Code    Addr1 Addr2  Stmt Lv Lineno    Source Statement           (Hibal 5, Asmedit 3.3)  HLASM R4.0  2004/03/15 13.01
+___    ______ ____    _____ _____  ____ __ ______    ______ _________
00001F6 5000 812C            00104  8253  1                      ST    R0,XCPARMCT
 0001FA                             8254                       END
                                    8258
                                    8259                       COMMENT                   SCAN PARM VALUES
 0001FA 9501 8029/4770_00001        8260                       IF    XCLPARMS,BEGIN
 000202 5800 8128            00100  8275  1                      L     R0,XCPARMLN
 000206 4110 803C            00014  8276  1                      LA    R1,XCPARM
 00020A 4120 8330            00308  8277  1                      LA    R2,XCLVLIST
 00020E 58E0 73B8/0DEE       0042C  8278  1                      ACALL SCNVLIST
 000214                             8282                       END
                                    8286
                                    8287                       COMMENT                   GET CALLED XPROC NAME LIST
 000214 5800 802C            00004  8288                       L     R0,XC#SETNO
 000218 5810 8034            0000C  8289                       L     R1,XCRGFLOW
 00021C 4120 8230            00208  8290                       LA    R2,XCLNLIST
 000220 58E0 73BC/0DEE       00430  8291                       VCALL GTXNLIST
                                    8295
                                    8296                       COMMENT                   PASS PARMS
 000226 5800 812C            00104  8297                       L     R0,XCPARMCT
 00022A 4110 8330            00308  8298                       LA    R1,XCLVLIST
 00022E 4120 8230            00208  8299                       LA    R2,XCLNLIST
 000232 5830 8038            00010  8300                       L     R3,XCNEWSET
 000236 58E0 73C0/0DEE       00434  8301                       ACALL PASSPRMS
                                    8305
                                    8306                       COMMENT                   PASS PARM_STR, AND PARM_COUNT
 00023C 5800 8128            00100  8307                       L     R0,XCPARMLN
 000240 4110 803C            00014  8308                       LA    R1,XCPARM
 000244 5820 812C            00104  8309                       L     R2,XCPARMCT
 000248 58E0 73C4/0DEE       00438  8310                       ACALL PASSPARM
                                    8314
                                    8315                       COMMENT                   SAVE CALLERS PLIST
 00024E 4100 0100            00100  8316                       LA    R0,L'XCLPLIST
 000252 4110 8130            00108  8317                       LA    R1,XCLPLIST
 000256 4120 72F4            00368  8318                       LA    R2,=CL16'SYS*CALLER_PLIST'
 00025A 5830 8038            00010  8319                       L     R3,XCNEWSET
 00025E 58E0 73C8/0DEE       0043C  8320                       VCALL SAVEVSTK
                                    8324                       COMMENT                   SAVE CALLED NLIST
 000264 4100 0100            00100  8325                       LA    R0,L'XCLNLIST
 000268 4110 8230            00208  8326                       LA    R1,XCLNLIST
 00026C 4120 7304            00378  8327                       LA    R2,=CL16'SYS*PROC_NLIST  '
 000270 5830 8038            00010  8328                       L     R3,XCNEWSET
 000274 58E0 73C8/0DEE       0043C  8329                       VCALL SAVEVSTK
                                    8333
                                    8334                       COMMENT                   PUSH CURRENT ON CONDITION INFO
 00027A 5800 8038            00010  8335                       L     R0,XCNEWSET
 00027E 58E0 73CC/0DEE       00440  8336                       VCALL PUSHON
 000284 5800 8038            00010  8340                       L     R0,XCNEWSET         PUSH CURRENT ERROR/ATTN VARS
 000288 58E0 73D0/0DEE       00444  8341                       VCALL PUSHERR
                                    8345
                                    8346                       COMMENT                   GET CURRENT EXEC STATE
 00028E 4110 8E10            00DE8  8347                       LA    R1,XCLSTATE
 000292 58E0 73D4/0DEE       00448  8348                       VCALL GETSTATE
                                    8352
                                    8353                       COMMENT                   SAVE CURRENT EXEC STATE
1XCALL    (XCAL2025) (13:01) (15MAR04) XCALL Command                                                                        Page   22
0Current Usings:  (*,R7) (XCLWA-(4+36),R8) (CP,R11) (CV,R12)
0Loc    Object Code    Addr1 Addr2  Stmt Lv Lineno    Source Statement           (Hibal 5, Asmedit 3.3)  HLASM R4.0  2004/03/15 13.01
+___    ______ ____    _____ _____  ____ __ ______    ______ _________
0000298 4100 0088            00088  8354                       LA    R0,L'SNENTRY
 00029C 4110 8E10            00DE8  8355                       LA    R1,XCLSTATE
 0002A0 4120 7314            00388  8356                       LA    R2,=CL16'SYS*EXEC_STATE  '
 0002A4 5830 8038            00010  8357                       L     R3,XCNEWSET
 0002A8 58E0 73C8/0DEE       0043C  8358                       VCALL SAVEVSTK
                                    8362
                                    8363                       COMMENT                   SET UP NEW EXEC STATE
 0002AE 5800 802C            00004  8364                       L     R0,XC#SETNO
 0002B2 5810 8030            00008  8365                       L     R1,XCRGEXEC
 0002B6 5820 8034            0000C  8366                       L     R2,XCRGFLOW
 0002BA 4130 8E10            00DE8  8367                       LA    R3,XCLSTATE
 0002BE 58E0 73D8/0DEE       0044C  8368                       ACALL GTXSTART
                                    8372
                                    8373                       COMMENT                   IF DEBUG ACTIVE, CHECK FOR TRAP
 0002C4 9180 B84C/47E0_0084C        8374                       IF    CPFDEBUG,BEGIN
 0002CC 5800 802C            00004  8389  1                      L     R0,XC#SETNO
 0002D0 4110 7324            00398  8390  1                      LA    R1,=CL16'XPROC '
 0002D4 58E0 73DC/0DEE       00450  8391  1                      VCALL DBCALL
 0002DA                             8395                       END
                                    8399
                                    8400                       COMMENT                   START NEW EXEC
 0002DA 4110 8E10            00DE8  8401                       LA    R1,XCLSTATE
 0002DE 58E0 73E0/0DEE       00454  8402                       ACALL START               DOES NOT RETURN
                                    8406
 0002E4 0000                        8407                       BOMB  ,                   NEVER EXECUTED, WE EXIT ABOVE
                                    8409
 0002E6 1BFF                        8410                       CLEAR R15
 0002E8 18D8/9808 D004_             8414                       PEND  ,          NEVER EXECUTED, WE EXIT ABOVE
 DROP   XCLWA-(4+36),R8
 DROP   *,R7
1XCALL    (XCAL2025) (13:01) (15MAR04) XA - XCALL ACTIVE                                                                    Page   23
0Current Usings:  (CP,R11) (CV,R12)
0Loc    Object Code    Addr1 Addr2  Stmt Lv Lineno    Source Statement           (Hibal 5, Asmedit 3.3)  HLASM R4.0  2004/03/15 13.01
+___    ______ ____    _____ _____  ____ __ ______    ______ _________
0                                   8440              ¿þþþþþþþþþþþþþþþþþþþþþþþþþþþþþþþþþþþþþþþþþþþþþþþþþþþþþþþþþþþþþþþþþþþþþÜ
                                    8441              Ÿ                                                                     Ÿ
                                    8442              Ÿ  XA -- XCALL ACTIVE                                                 Ÿ
                                    8443              Ÿ                                                                     Ÿ
                                                      ¾þþþþþþþþþþþþþþþþþþþþþþþþþþþþþþþþþþþþþþþþþþþþþþþþþþþþþþþþþþþþþþþþþþþþþ»
0000000                00000 000F3  8444              XCACTWA  RECORD BEGIN
                                    8452  1           XCACTCMD   DS    XL(&LINESZ+8)
 000000                                   1          +XCACTCMD   DS    XL(235+8)
 0000F3                000F3 000F3  8453                       END
                                    8462              *
                                    8463              *
 0002F6 50E0 D000/9008_      00000  8464              XCACTIVE XPROC XCACTWA    SAME AS XCALL ACTIVE
 USING  *,R7
 USING  XCACTWA-(4+36),R8
                                    8515
                                    8516                       COMMENT                   FORMAT NEW COMMAND
 000310 D207 8028 7098 00000 003A8  8517                       MVC   XCACTCMD(8),=CL8'ACTIVE  '
 000316 58E0 B08C/581E_      0008C  8518                       SCINFO ,
 000324 18F0                        8527                       LR    R15,R0
 000326 06F0/12FF/4740_             8528                       MOVE  R15,XCACTCMD+8,@R1  TACK ON PARMS
                                    8566
                                    8567                       COMMENT                   PASS NEW COMMAND TO 'XCALL'
 000332 5A00 7148            00458  8568                       A     R0,=F'8'
 000336 4110 8028            00000  8569                       LA    R1,XCACTCMD
 00033A 58E0 B08C/501E_      0008C  8570                       SCINIT (R1),(R0)
 000348 58E0 714C/0DEE       0045C  8590                       ACALL  XCALL              DOES NOT RETURN
                                    8594
 00034E 0000                        8595                       BOMB  ,
                                    8597
 000350 47F0 C7DE            007DE  8598                       B     CVNEXT
                                    8599
 000354 18D8/9808 D004_             8600                       PEND  ,
 DROP   XCACTWA-(4+36),R8
 DROP   *,R7
                                    8625
                                    8626                       QLTORG
1XCALL    (XCAL2025) (13:01) (15MAR04) XRETURN                                                                              Page   24
0Current Usings:  (CP,R11) (CV,R12)
0Loc    Object Code    Addr1 Addr2  Stmt Lv Lineno    Source Statement           (Hibal 5, Asmedit 3.3)  HLASM R4.0  2004/03/15 13.01
+___    ______ ____    _____ _____  ____ __ ______    ______ _________
0                                   8677              ¿þþþþþþþþþþþþþþþþþþþþþþþþþþþþþþþþþþþþþþþþþþþþþþþþþþþþþþþþþþþþþþþþþþþþþÜ
                                    8678              Ÿ                                                                     Ÿ
                                    8679              Ÿ                                                                     Ÿ
                                    8680              Ÿ  XRETURN - RETURN FROM XPROC ,                                      Ÿ
                                    8681              Ÿ                                                                     Ÿ
                                    8682              Ÿ  ON ENTRY:                                                          Ÿ
                                    8683              Ÿ       SCANCB - XRETURN OPTIONS, OR PARM LIST                        Ÿ
                                    8684              Ÿ                                                                     Ÿ
                                    8685              Ÿ  ON EXIT:                                                           Ÿ
                                    8686              Ÿ       THIS ROUTINE DOES NOT RETURN !!                               Ÿ
                                    8687              Ÿ       THIS ROUTINE EXITS VIA START ROUTIN                           Ÿ
                                    8688              Ÿ                                                                     Ÿ
                                    8689              Ÿ  NOTE: THIS DESCRIBES THE MANY NAME LISTS:                          Ÿ
                                    8690              Ÿ       XRRLIST - NAME LIST IN  .. RETURN (<NAME LIST>)               Ÿ
                                    8691              Ÿ       XRNLIST - NAME LIST IN  .. PROC NAME (<NAME LIST>)            Ÿ
                                    8692              Ÿ       XRPLIST - PARM LIST IN  .. PCALL NAME (<PARM LIST>)           Ÿ
                                    8693              Ÿ       XRLIST  - CALCULATED RETURN LIST CONTAINS CALLERS VAR NAMES   Ÿ
                                    8694              Ÿ                                                                     Ÿ
                                    8695              Ÿ                                                                     Ÿ
                                                      ¾þþþþþþþþþþþþþþþþþþþþþþþþþþþþþþþþþþþþþþþþþþþþþþþþþþþþþþþþþþþþþþþþþþþþþ»
0000000                00000 00F14  8696              XRWA     RECORD BEGIN
 000000                             8704  1           XRCNT      DS    F                   RETURN PARMS COUNT
 000004                             8705  1           XRRLIST    DS    XL(L'NLIST)         RETURN NAME LIST  (PROCEDURES)
 000104                             8706  1           XRNLIST    DS    XL(L'NLIST)         ENTRY NAME LIST  (PROCEDURES)
 000204                             8707  1           XRPLIST    DS    XL(L'NLIST)         ENTRY NAME LIST  (CALLERS)
 000304                             8708  1           XRLIST     DS    XL(L'NLIST)         RETURN NAME LIST  (CALLERS)
 000404                             8709  1           XRVLIST    DS    XL(L'VLIST)         RETURN VALUE LIST
 000E84                             8710  1           XRPARMLN   DS    F                   PARM/OPTIONS LENGTH
 000E88                             8711  1           XRPARM     DS    F                   PARM/OPTIONS ADDRESS
 000E8C                             8712  1           XRSTATE    DS    XL(L'SNENTRY)       EXEC-STATE DSECT
 000F14                00F14 00F14  8713                       END
                                    8722              *
                                    8723              *
 00048E 50E0 D000/9008_      00000  8724              XRETURN  XPROC XRWA
 USING  *,R7
 USING  XRWA-(4+36),R8
                                    8775
                                    8776                       COMMENT                   CHECK IF XRETURN VALID
 0004A8 9502 B759/4780_00759        8777                       IF    (CPFXOLD,OR,(CP#XSET,EQ,=A(CP#XOLD))),BEGIN
 0004BA 4110 7BAE/4100_      01056  8808  1                      ABORT 'Not in procedure.  Command ignored.'
 0004C6                             8815                       END
                                    8819
                                    8820                       COMMENT                   IF DEBUG ACTIVE, CHECK FOR TRAPS
 0004C6 9180 B84C/47E0_0084C        8821                       IF    CPFDEBUG,BEGIN
 0004CE 5800 B778            00778  8836  1                      L     R0,CP#XSET
 0004D2 4110 7AA8            00F50  8837  1                      LA    R1,=CL16'XPROC '
 0004D6 58E0 7B1C/0DEE       00FC4  8838  1                      VCALL DBRET
 0004DC                             8842                       END
                                    8846
                                    8847                       COMMENT                   CHECK FOR XRETURN OPTIONS ...
                                    8848                       COMMENT                      XRETURN CMD
                                    8849                       COMMENT                      XRETURN ERR
                                    8850                       COMMENT                      XRETRUN ATTN
1XCALL    (XCAL2025) (13:01) (15MAR04) XRETURN                                                                              Page   25
0Current Usings:  (*,R7) (XRWA-(4+36),R8) (CP,R11) (CV,R12)
0Loc    Object Code    Addr1 Addr2  Stmt Lv Lineno    Source Statement           (Hibal 5, Asmedit 3.3)  HLASM R4.0  2004/03/15 13.01
+___    ______ ____    _____ _____  ____ __ ______    ______ _________
00004DC 58E0 B08C/581E_      0008C  8851                       SCINFO
 0004EA 58E0 7B20/0DEE       00FC8  8860                       VCALL LRTRIM
 0004F0 954D 1000/4780_00000        8864                       IF    ((@R1,NE,'('),AND,(R0,POS)),BEGIN    IF GOT OPTIONS,,
                                    8893  1                      COMMENT                                      PROCESS THEM
 0004FE 58E0 7B24/0DEE       00FCC  8894  1                      ACALL XRETOPTS            THIS CALL DOES NOT RETURN ->
 000504                             8898                       END
                                    8902
                                    8903                       COMMENT                   SCAN PARM/OPTIONS
 000504 58E0 7B28/0DEE       00FD0  8904                       ACALL PSCNPARM
 00050A 5000 8EAC            00E84  8908                       ST    R0,XRPARMLN
 00050E 5010 8EB0            00E88  8909                       ST    R1,XRPARM
                                    8910
 000512 1200/47D0 707A_             8911                       IF    ((R0,POS),AND,(CPXVSET#,NE,CPVSET#)),BEGIN
                                    8942  1                      COMMENT                   ALLOW XRETURN TO RETURN PARMS
                                    8943  1                      COMMENT                   FROM PROCEDURE LEVEL ??
                                    8944  1                      COMMENT                   , (FOR NOW NO-OP)
 000522                             8945                       END
                                    8949
                                    8950                       COMMENT                   SCAN RETURN LIST VALUES
 000522 5800 8EAC            00E84  8951                       L     R0,XRPARMLN
 000526 5810 8EB0            00E88  8952                       L     R1,XRPARM
 00052A 4120 842C            00404  8953                       LA    R2,XRVLIST
 00052E 58E0 7B2C/0DEE       00FD4  8954                       ACALL SCNVLIST
 000534 5000 8028            00000  8958                       ST    R0,XRCNT
                                    8959
                                    8960                       COMMENT                   SCAN RETURN LIST NAMES
 000538 5800 8EAC            00E84  8961                       L     R0,XRPARMLN
 00053C 5810 8EB0            00E88  8962                       L     R1,XRPARM
 000540 4120 802C            00004  8963                       LA    R2,XRRLIST
 000544 58E0 7B30/0DEE       00FD8  8964                       ACALL SCNNLIST
                                    8968
                                    8969                       COMMENT                   GET CALLING PARM LIST (NAMES)
 00054A 4100 0100            00100  8970                       LA    R0,L'XRNLIST
 00054E 4110 812C            00104  8971                       LA    R1,XRNLIST
 000552 4120 7AB8            00F60  8972                       LA    R2,=CL16'SYS*PROC_NLIST  '
 000556 5830 B848            00848  8973                       L     R3,CPXVSET#
 00055A 58E0 7B34/0DEE       00FDC  8974                       VCALL GETVSTK
 000560 4780 70BE            00566  8978                       IF    NZ,BEGIN
 000564 0000                        8989  1                      BOMB
 000566                             8991                       END
                                    8995
                                    8996                       COMMENT                   GET CALLING PARM LIST (NAMES)
 000566 4100 0100            00100  8997                       LA    R0,L'XRPLIST
 00056A 4110 822C            00204  8998                       LA    R1,XRPLIST
 00056E 4120 7AC8            00F70  8999                       LA    R2,=CL16'SYS*CALLER_PLIST'
 000572 5830 B848            00848  9000                       L     R3,CPXVSET#
 000576 58E0 7B34/0DEE       00FDC  9001                       VCALL GETVSTK
 00057C 4780 70DA            00582  9005                       IF    NZ,BEGIN
 000580 0000                        9016  1                      BOMB
 000582                             9018                       END
                                    9022
                                    9023                       COMMENT                   ASSOCIATE RETURN NAMES WITH
                                    9024                       COMMENT                   PARM NAMES, POSITION WISE
 USING  VNENTRY,R1                  9025                       USING VNENTRY,R1
1XCALL    (XCAL2025) (13:01) (15MAR04) XRETURN                                                                              Page   26
0Current Usings:  (VNENTRY,R1) (*,R7) (XRWA-(4+36),R8) (CP,R11) (CV,R12)
0Loc    Object Code    Addr1 Addr2  Stmt Lv Lineno    Source Statement           (Hibal 5, Asmedit 3.3)  HLASM R4.0  2004/03/15 13.01
+___    ______ ____    _____ _____  ____ __ ______    ______ _________
0000582 4100 832C            00304  9034                       LA    R0,XRLIST
 000586 4110 0100            00100  9035                       LA    R1,L'NLIST
 00058A 4120 802C            00004  9036                       LA    R2,XRRLIST
 00058E 4130 0100            00100  9037                       LA    R3,L'NLIST
 000592 0E02                        9038                       MVCL  R0,R2               COPY RETURN LIST
 000594 5800 8028            00000  9039                       L     R0,XRCNT
 000598 4110 832C            00304  9040                       LA    R1,XRLIST
 00059C 1200/47D0 7152              9041                       WHILE (R0,POS),BEGIN      LOOP THRU ALL RETURN PARMS
                                    9057  1
                                    9058  1                      COMMENT                   FIND ASSOCIATED NAME
 0005A2 4120 812C            00104  9059  1                      LA    R2,XRNLIST
 0005A6 4140 812C            00104  9060  1                      LA    R4,XRNLIST
 0005AA 4144 0100            00100  9061  1                      LA    R4,L'NLIST(R4)
 0005AE 1924/47B0 711E_             9062  1                      WHILE ((R2,LT,R4),AND,(@R2,NE,VNDESC)),BEGIN
 0005BE 4122 0020            00020  9095  2                        LA    R2,L'VNDESC(R2)
 0005C2 47F0 7106            005AE  9096  1                      END
 0005C6 1924/4750 7138              9101  1                      IF    (R2,GE,R4),BEGIN
 0005CC 1821                        9116  2                        LR    R2,R1
 0005CE 58E0 7B38/0DEE       00FE0  9117  2                        VCALL SEGVNAME
 0005D4 4110 7BD1/4100_      01079  9121  2                        ERROR ': not a procedure parameter.  Unable to return value.'
 0005E0                             9128  1                      END
 0005E0 4140 812C            00104  9132  1                      LA    R4,XRNLIST          CALCULATE NAME OFFSET IN R2
 0005E4 1B24                        9133  1                      SR    R2,R4
 0005E6 4122 822C            00204  9134  1                      LA    R2,XRPLIST(R2)
 0005EA D21F 1000 2000 00000 00000  9135  1                      MVC   0(L'VNDESC,R1),0(R2)   SAVE CALLING NAME IN RETURN LIST
                                    9136  1
                                    9137  1                      COMMENT                   LOOP THRU ALL RETURN VARIABLES
 0005F0 4111 0020            00020  9138  1                      LA    R1,L'VNDESC(R1)
 0005F4 0600                        9139  1                      DECR  R0
 0005F6 47F0 70F4            0059C  9141                       END
 DROP   VNENTRY,R1                  9146                       DROP  R1
                                    9153
                                    9154                       COMMENT                   RESTORE ON CONDITION COMMANDS
 0005FA 5800 B848            00848  9155                       L     R0,CPXVSET#
 0005FE 58E0 7B3C/0DEE       00FE4  9156                       VCALL POPON
 000604 5800 B848            00848  9160                       L     R0,CPXVSET#         RESTORE ERROR/ATTN VARS
 000608 58E0 7B40/0DEE       00FE8  9161                       VCALL POPERR
                                    9165
                                    9166                       COMMENT                   GET CALLING EXECUTION STATE
 00060E 4100 0088            00088  9167                       LA    R0,L'XRSTATE
 000612 4110 8EB4            00E8C  9168                       LA    R1,XRSTATE
 000616 4120 7AD8            00F80  9169                       LA    R2,=CL16'SYS*EXEC_STATE  '
 00061A 5830 B848            00848  9170                       L     R3,CPXVSET#
 00061E 58E0 7B34/0DEE       00FDC  9171                       VCALL GETVSTK
 000624 4780 7182            0062A  9175                       IF    NZ,BEGIN
 000628 0000                        9186  1                      BOMB
 00062A                             9188                       END
                                    9192
                                    9193                       COMMENT                   RETURN PASSED PARMS
 00062A 5800 8028            00000  9194                       L     R0,XRCNT
 00062E 4110 842C            00404  9195                       LA    R1,XRVLIST
 000632 4120 832C            00304  9196                       LA    R2,XRLIST
 000636 4130 802C            00004  9197                       LA    R3,XRRLIST
 00063A 5840 8EDC            00EB4  9198                       L     R4,XRSTATE+(SNVSET#-SNENTRY)
1XCALL    (XCAL2025) (13:01) (15MAR04) XRETURN                                                                              Page   27
0Current Usings:  (*,R7) (XRWA-(4+36),R8) (CP,R11) (CV,R12)
0Loc    Object Code    Addr1 Addr2  Stmt Lv Lineno    Source Statement           (Hibal 5, Asmedit 3.3)  HLASM R4.0  2004/03/15 13.01
+___    ______ ____    _____ _____  ____ __ ______    ______ _________
000063E 5850 8EE0            00EB8  9199                       L     R5,XRSTATE+(SNXVSET#-SNENTRY)
 000642 58E0 7B44/0DEE       00FEC  9200                       ACALL RETPARMS            RETURN PARMS
                                    9204
                                    9205                       COMMENT                   DO ANY LAST MINUTE CLEANUP
 000648 4110 8EB4            00E8C  9206                       LA    R1,XRSTATE
 00064C 58E0 7B48/0DEE       00FF0  9207                       ACALL XCLEANUP
                                    9211
                                    9212                       COMMENT                   START RETURN EXEC
 000652 4110 8EB4            00E8C  9213                       LA    R1,XRSTATE
 000656 58E0 7B4C/0DEE       00FF4  9214                       ACALL START               DOES NOT RETURN
                                    9218              *
                                    9219              *
 00065C 0000                        9220                       BOMB
                                    9222
 00065E 1BFF                        9223                       CLEAR R15                 NEVER EXECUTED, WE EXIT ABOVE
 000660 18D8/9808 D004_             9227                       PEND  ,
 DROP   XRWA-(4+36),R8
 DROP   *,R7
                                    9252              *$ XRETURN IN PROC (IE. NOT XPROC,,, NEEDS SPECIAL RETURN PARMS
                                    9253              *$ ETC...
1XCALL    (XCAL2025) (13:01) (15MAR04) XRETURN                                                                              Page   28
0Current Usings:  (CP,R11) (CV,R12)
0Loc    Object Code    Addr1 Addr2  Stmt Lv Lineno    Source Statement           (Hibal 5, Asmedit 3.3)  HLASM R4.0  2004/03/15 13.01
+___    ______ ____    _____ _____  ____ __ ______    ______ _________
0                                   9255              ¿þþþþþþþþþþþþþþþþþþþþþþþþþþþþþþþþþþþþþþþþþþþþþþþþþþþþþþþþþþþþþþþþþþþþþÜ
                                    9256              Ÿ                                                                     Ÿ
                                    9257              Ÿ                                                                     Ÿ
                                    9258              Ÿ  XRETOPTS -                                                         Ÿ
                                    9259              Ÿ                                                                     Ÿ
                                    9260              Ÿ  PROCESS:  XRETURN CMD= ...                                         Ÿ
                                    9261              Ÿ            XRETURN ERR                                              Ÿ
                                    9262              Ÿ            XRETURN ATTN                                             Ÿ
                                    9263              Ÿ                                                                     Ÿ
                                    9264              Ÿ                                                                     Ÿ
                                    9265              Ÿ                                                                     Ÿ
                                                      ¾þþþþþþþþþþþþþþþþþþþþþþþþþþþþþþþþþþþþþþþþþþþþþþþþþþþþþþþþþþþþþþþþþþþþþ»
000066E 50E0 D000/9008_      00000  9266              XRETOPTS XPROC ,
 USING  *,R7
                                    9306
 000688 58E0 B08C/D2AF_      0008C  9307                       SCPUSH ,
 000696 5810 B08C/1B00_      0008C  9313                       SCAN  XRETKWS
 0006E8 58E0 7978/0DEE       01000  9345                       SCANCHK
 0006EE 58E0 B08C/4BD0_      0008C  9350                       SCPOP ,
 0006FC 1200/4770 707A              9356                       IF    (R0,Z),BEGIN
 000702                             9370                       END
 000702 707E/47F0 708C_00702 00700  9374                       ELSEIF (R15,EQ,4),BEGIN   IF XRETURN CMD = .. , DO IT
 00070E 58E0 7980/0DEE       01008  9400  1                      ACALL XCOMMAND            DOES NOT RETURN
 000714                             9404                       END
 000714 7090/47F0 7096 00714 0070C  9408                       ELSE  BEGIN
 000718 58E0 7984/0DEE       0100C  9419  1                      ACALL XABORT
 00071E                             9423                       END
                                    9427
 00071E 18D8/9808 D004_             9428                       PEND  ,
 DROP   *,R7
                                    9448              *
                                    9449              *  XRETURN CMD= ...
                                    9450              *  XRETURN <ABORT OPTIONS>
                                    9451              *
 00072C C3D6D4D4C1D5C440_           9452              XRETKWS  SCKW  COMMAND,XCMDRET,A
 000754 C3D4C44040404040_           9467                       SCKW  CMD,XCMDRET,A
 00077C 4040404040404040_           9482                       SCKW  ,XCMDABRT
                                    9497
 0007A4 50E0 D000/9008_      00000  9498              XCMDRET  PROC  ,
 USING  *,R7
 0007BE 41F0 0004            00004  9537                       LA    R15,4
 0007C2 18D8/9808 D004_             9538                       PEND
 DROP   *,R7
                                    9558
 0007D0 50E0 D000/9008_      00000  9559              XCMDABRT PROC  ,
 USING  *,R7
 0007EA 41F0 0008            00008  9598                       LA    R15,8
 0007EE 18D8/9808 D004_             9599                       PEND
 DROP   *,R7
                                    9619
1XCALL    (XCAL2025) (13:01) (15MAR04) XRETURN                                                                              Page   29
0Current Usings:  (CP,R11) (CV,R12)
0Loc    Object Code    Addr1 Addr2  Stmt Lv Lineno    Source Statement           (Hibal 5, Asmedit 3.3)  HLASM R4.0  2004/03/15 13.01
+___    ______ ____    _____ _____  ____ __ ______    ______ _________
0                                   9621              ¿þþþþþþþþþþþþþþþþþþþþþþþþþþþþþþþþþþþþþþþþþþþþþþþþþþþþþþþþþþþþþþþþþþþþþÜ
                                    9622              Ÿ                                                                     Ÿ
                                    9623              Ÿ                                                                     Ÿ
                                    9624              Ÿ  XABORT - PROCESS THE FOLLOWING:                                    Ÿ
                                    9625              Ÿ                                                                     Ÿ
                                    9626              Ÿ       XRETURN CMD=                                                  Ÿ
                                    9627              Ÿ       XRETURN ERROR                                                 Ÿ
                                    9628              Ÿ       XRETURN ATTENTION                                             Ÿ
                                    9629              Ÿ                                                                     Ÿ
                                    9630              Ÿ                                                                     Ÿ
                                    9631              Ÿ  ON ENTRY:                                                          Ÿ
                                    9632              Ÿ       SCANCB - 'XRETURN' SCANNED                                    Ÿ
                                    9633              Ÿ                                                                     Ÿ
                                    9634              Ÿ  ON EXIT:                                                           Ÿ
                                    9635              Ÿ       THIS ROUTINE DOES NOT RETURN !!                               Ÿ
                                    9636              Ÿ       THIS ROUTINE EXITS VIA START ROUTINE.                         Ÿ
                                    9637              Ÿ                                                                     Ÿ
                                    9638              Ÿ                                                                     Ÿ
                                                      ¾þþþþþþþþþþþþþþþþþþþþþþþþþþþþþþþþþþþþþþþþþþþþþþþþþþþþþþþþþþþþþþþþþþþþþ»
0000000                00000 0018C  9639              XBWA     RECORD BEGIN
 000000 00                          9647  1           XBFLAG     FLAG
 XBFLAG.XBFERROR   80 ONES          9651  1                      FLAG  XBFERROR            XRETURN ERROR
 XBFLAG.XBFATTN    40 ONES          9656  1                      FLAG  XBFATTN             XRETURN ATTN
 000004                             9661  1                      DS    0F
 000004                             9662  1           XBERRID    DS    CL8                 ERROR ID
                                    9663  1           XBERRMSG   DS    CL(&LINESZ)         ERROR MESSAGE TEXT
 00000C                                   1          +XBERRMSG   DS    CL(235)             ERROR MESSAGE TEXT
 0000F8                             9664  1           XBERRMLN   DS    F                   ERROR MESSAGE LENGTH
 0000FC                             9665  1           XBATTNID   DS    CL8                 ATTN ID
 000104                             9666  1           XBSTATE    DS    XL(L'SNENTRY)       EXEC-STATE DSECT
 00018C                0018C 0018C  9667                       END
                                    9676              *
                                    9677              *
 0007FC 50E0 D000/9008_      00000  9678              XABORT   PROC  XBWA
 USING  *,R7
 USING  XBWA-(4+36),R8
 000816 4160 8028            00000  9728                       LA    R6,XBWA
 USING  XBWA,R6                     9729                       USING XBWA,R6
                                    9738
                                    9739                       COMMENT                   SET UP SCANNER,
 00081A 58E0 B08C/D2AF_      0008C  9740                       SCPUSH ,
 000828 5810 B08C/1B00_      0008C  9746                       SCAN ,                    (CHECK FOR NON-NULL PARMS)
 000876 58E0 77EA/0DEE       01000  9777                       SCANCHK
 00087C 58E0 B08C/4BD0_      0008C  9782                       SCPOP ,
 00088A 1200/4770 707C              9788                       IF    (R0,Z),BEGIN
 000890 0000                        9802  1                      BOMB
 000892                             9804                       END
                                    9808
                                    9809                       COMMENT                   SET WORK AREA DEFAULTS
 000892 9200 6000      00000        9810                       CLEAR XBFLAG
 000896 D207 6004 777A 00004 00F90  9817                       MVC   XBERRID,=CL8'ERROR   '
 00089C 4110 7898/4100_      010AE  9818                       SETMSG 'Error in XPROC.'
 0008A4 5000 60F8            000F8  9822                       ST    R0,XBERRMLN
1XCALL    (XCAL2025) (13:01) (15MAR04) XRETURN                                                                              Page   30
0Current Usings:  (XBWA,R6) (*,R7) (XBWA-(4+36),R8) (CP,R11) (CV,R12)
0Loc    Object Code    Addr1 Addr2  Stmt Lv Lineno    Source Statement           (Hibal 5, Asmedit 3.3)  HLASM R4.0  2004/03/15 13.01
+___    ______ ____    _____ _____  ____ __ ______    ______ _________
00008A8 1830                        9823                       LR    R3,R0
 0008AA 0630/1233/4740_             9824                       MOVE  R3,XBERRMSG,@R1
 0008B6 D207 60FC 7782 000FC 00F98  9862                       MVC   XBATTNID,=CL8'ATTN    '
 0008BC D787 6104 6104 00104 00104  9863                       CLEAR XBSTATE
                                    9870
                                    9871                       COMMENT                   SCAN ERROR/ATTN OPTIONS
 0008C2 5810 B08C/1B00_      0008C  9872                       SCAN XABRTPRT
 000914 58E0 77EA/0DEE       01000  9904                       SCANCHK
                                    9909                       ¿þþþþþþþþþþþþþþþþþþþþþþþþþÜ
                                    9910                       Ÿ  IF  XRETURN ERROR ...  Ÿ
                                    9911                       ¾þþþþþþþþþþþþþþþþþþþþþþþþþ»
                                    9912                       COMMENT                   IF XRETURN ERROR
 00091A 9180 6000/47E0_00000        9913                       IF    XBFERROR,BEGIN
                                    9928  1
                                    9929  1                      COMMENT                   RESTORE ON CONDTION COMMANDS
 000922 5800 B848            00848  9930  1                      L     R0,CPXVSET#
 000926 58E0 77CE/0DEE       00FE4  9931  1                      VCALL POPON
 00092C 5800 B848            00848  9935  1                      L     R0,CPXVSET#         RESTORE ERROR/ATTN VARS
 000930 58E0 77D2/0DEE       00FE8  9936  1                      VCALL POPERR
                                    9940  1
                                    9941  1                      COMMENT                   GET CALLING EXEC STATE
 000936 4100 0088            00088  9942  1                      LA    R0,L'XBSTATE
 00093A 4110 6104            00104  9943  1                      LA    R1,XBSTATE
 00093E 4120 776A            00F80  9944  1                      LA    R2,=CL16'SYS*EXEC_STATE  '
 000942 5830 B848            00848  9945  1                      L     R3,CPXVSET#
 000946 58E0 77C6/0DEE       00FDC  9946  1                      VCALL GETVSTK
 00094C 4780 713C            00952  9950  1                      IF    NZ,BEGIN
 000950 0000                        9961  2                        BOMB
 000952                             9963  1                      END
                                    9967  1
                                    9968  1                      COMMENT                   DO ANY LAST MINUTE CLEANUP
 000952 4110 6104            00104  9969  1                      LA    R1,XBSTATE
 000956 58E0 77DA/0DEE       00FF0  9970  1                      ACALL XCLEANUP
                                    9974  1
                                    9975  1                      COMMENT                   SET ERROR VARIABLES
 00095C D207 B886 6004 00886 00004  9976  1                      MVC   CPERRID,XBERRID
 000962 5800 60F8            000F8  9977  1                      L     R0,XBERRMLN
 000966 4110 600C            0000C  9978  1                      LA    R1,XBERRMSG
 00096A 1200/47D0 7164              9979  1                      IF    (R0,POS),BEGIN
 000970 41F0 B050/58E0_      00050  9993  2                        TSEG  (R1),(R0),CR
 00097A                            10017  1                      END
                                   10021  1
                                   10022  1                      COMMENT                   START RETURN EXEC
 00097A 9640 BD5A      00D5A       10023  1                      SET   CPFERROR            WITH ERROR FLAGS SET
 00097E 9680 BD5A      00D5A       10029  1                      SET   CPFABORT
 000982 4110 6104            00104 10035  1                      LA    R1,XBSTATE
 000986 58E0 77DE/0DEE       00FF4 10036  1                      ACALL START               DOES NOT RETURN  --->>>
 00098C                            10040                       END
                                   10044                       ¿þþþþþþþþþþþþþþþþþþþÜ
                                   10045                       Ÿ  IF XRETURN ATTN  Ÿ
                                   10046                       ¾þþþþþþþþþþþþþþþþþþþ»
                                   10047                       COMMENT                   IF XRETURN ATTN
 00098C 9140 6000/47E0_00000       10048                       IF    XBFATTN,BEGIN
                                   10063  1
1XCALL    (XCAL2025) (13:01) (15MAR04) XRETURN                                                                              Page   31
0Current Usings:  (XBWA,R6) (*,R7) (XBWA-(4+36),R8) (CP,R11) (CV,R12)
0Loc    Object Code    Addr1 Addr2  Stmt Lv Lineno    Source Statement           (Hibal 5, Asmedit 3.3)  HLASM R4.0  2004/03/15 13.01
+___    ______ ____    _____ _____  ____ __ ______    ______ _________
0                                  10064  1                      COMMENT                   SET ATTNID
 000994 9680 BD5B      00D5B       10065  1                      SET   CPFIDSET            XRETURNED ATTNID SET
 000998 4100 0008            00008 10071  1                      LA    R0,L'XBATTNID
 00099C 4110 60FC            000FC 10072  1                      LA    R1,XBATTNID
 0009A0 4120 778A            00FA0 10073  1                      LA    R2,=CL16'SYS.XRET_ATTNID '
 0009A4 58E0 7802/0DEE       01018 10074  1                      VCALL SAVEDATA
                                   10078  1
                                   10079  1                      COMMENT                   RESTORE ON CONDTION COMMANDS
 0009AA 5800 B848            00848 10080  1                      L     R0,CPXVSET#
 0009AE 58E0 77CE/0DEE       00FE4 10081  1                      VCALL POPON
 0009B4 5800 B848            00848 10085  1                      L     R0,CPXVSET#         RESTORE ERROR/ATTN VARS
 0009B8 58E0 77D2/0DEE       00FE8 10086  1                      VCALL POPERR
                                   10090  1
                                   10091  1                      COMMENT                   GET CALLING EXEC STATE
 0009BE 4100 0088            00088 10092  1                      LA    R0,L'XBSTATE
 0009C2 4110 6104            00104 10093  1                      LA    R1,XBSTATE
 0009C6 4120 776A            00F80 10094  1                      LA    R2,=CL16'SYS*EXEC_STATE  '
 0009CA 5830 B848            00848 10095  1                      L     R3,CPXVSET#
 0009CE 58E0 77C6/0DEE       00FDC 10096  1                      VCALL GETVSTK
 0009D4 4780 71C4            009DA 10100  1                      IF    NZ,BEGIN
 0009D8 0000                       10111  2                        BOMB
 0009DA                            10113  1                      END
                                   10117  1
                                   10118  1                      COMMENT                   DO ANY LAST MINUTE CLEANUP
 0009DA 4110 6104            00104 10119  1                      LA    R1,XBSTATE
 0009DE 58E0 77DA/0DEE       00FF0 10120  1                      ACALL XCLEANUP
                                   10124  1
                                   10125  1                      COMMENT                   START RETURN EXEC
 0009E4 5820 C1C8            001C8 10126  1                      L     R2,CVCURJCB         WITH ATTN FLAG SET
 USING  JCB,R2                     10127  1                      USING JCB,R2
 0009E8 9602 2062      00062       10136  1                      SET   JCBFATTN
 DROP   JCB,R2                     10142  1                      DROP  R2
 0009EC 4110 6104            00104 10149  1                      LA    R1,XBSTATE
 0009F0 58E0 77DE/0DEE       00FF4 10150  1                      ACALL START               DOES NOT RETURN  --->>>
 0009F6                            10154                       END
                                   10158
                                   10159                       COMMENT
 0009F6 0000                       10160                       BOMB                      NEVER EXECUTED, WE EXIT ABOVE
 0009F8 18D8/9808 D004_            10162                       PEND  ,              A HABIT,
 DROP   XBWA-(4+36),R8
 DROP   *,R7
-
-                                  10188                       ¿þþþþþþþþþþþþþþþþþþþþþþþþþþþþþþÜ
                                   10189                       Ÿ                              Ÿ
                                   10190                       Ÿ  XRETURN ERROR/ATTN OPTIONS  Ÿ
                                   10191                       Ÿ                              Ÿ
                                   10192                       ¾þþþþþþþþþþþþþþþþþþþþþþþþþþþþþþ»
 000A08 C5D9D94040404040_          10193              XABRTPRT SCKW  ERR,XXXERROR
 000A30 C5D9D9D6D9404040_          10208                       SCKW  ERROR,XXXERROR
 000A58 C5D9D9C9C4404040_          10223                       SCKW  ERRID,XXXERRID,P
1XCALL    (XCAL2025) (13:01) (15MAR04) XRETURN                                                                              Page   32
0Current Usings:  (XBWA,R6) (CP,R11) (CV,R12)
0Loc    Object Code    Addr1 Addr2  Stmt Lv Lineno    Source Statement           (Hibal 5, Asmedit 3.3)  HLASM R4.0  2004/03/15 13.01
+___    ______ ____    _____ _____  ____ __ ______    ______ _________
0000A80 C5D9D9D4E2C74040_          10238                       SCKW  ERRMSG,XXXERRMS,P
 000AA8 C1E3E3D540404040_          10253                       SCKW  ATTN,XXXATTN
 000AD0 C1E3E3C5D5E3C9D6_          10268                       SCKW  ATTENTION,XXXATTN
 000AF8 C1E3E3D5C9C44040_          10283                       SCKW  ATTNID,XXXATNID,P
 000B20 4040404040404040_          10298                       SCKW  ,V(SCNINVAL)
-                                  10314              *
                                   10315              * ERROR
                                   10316              *
 000B48 50E0 D000/9008_      00000 10317              XXXERROR PROC  ,
 USING  *,R7
 000B62 9680 6000      00000       10356                       SET   XBFERROR            SET XRETURN ERROR FLAG
 000B66 9140 6000/47E0_00000       10362                       IF    XBFATTN,BEGIN       XRETURN ATTN ERROR .. NOT ALLOWED
 000B6E 58E0 74BA/0DEE       0101C 10377  1                      VCALL NOTVALID
 000B74                            10381                       END
 000B74 1BFF                       10385                       CLEAR R15
 000B76 18D8/9808 D004_            10389                       PEND  ,
 DROP   *,R7
                                   10409              *
                                   10410              * ERRID
                                   10411              *
 000B84 50E0 D000/9008_      00000 10412              XXXERRID PROC  ,
 USING  *,R7
 000B9E 9680 6000      00000       10451                       SET   XBFERROR            SET XRETURN ERROR FLAG
 000BA2 9140 6000/47E0_00000       10457                       IF    XBFATTN,BEGIN       XRETURN ATTN ERROR .. NOT ALLOWED
 000BAA 58E0 747E/0DEE       0101C 10472  1                      VCALL NOTVALID
 000BB0                            10476                       END
 000BB0 5810 B08C/4111_      0008C 10480                       SCUPTOK R1
 000BB8 957D 1000/4780_00000       10484                       IF    ((@R1,EQ,''''),OR,(@R1,EQ,'"')),' VCALL NOTVALID '
 000BCE D207 6004 1000 00004 00000 10524                       MVC   XBERRID,@R1
 000BD4 1F33/4330 6004             10525                       LC    R3,XBERRID
 000BDA 5930 7482/4740_      01020 10532                       IF    ((R3,LT,C'A'),OR,(R3,GT,C'Z')),' VCALL NOTVALID '
 000BF0 1BFF                       10574                       CLEAR R15
 000BF2 18D8/9808 D004_            10578                       PEND  ,
 DROP   *,R7
                                   10598              *
                                   10599              * ERRMSG
                                   10600              *
 000C00 50E0 D000/9008_      00000 10601              XXXERRMS PROC  ,
 USING  *,R7
 000C1A 9680 6000      00000       10640                       SET   XBFERROR            SET XRETURN ERROR FLAG
 000C1E 9140 6000/47E0_00000       10646                       IF    XBFATTN,BEGIN       XRETURN ATTN ERROR .. NOT ALLOWED
 000C26 58E0 7402/0DEE       0101C 10661  1                      VCALL NOTVALID
 000C2C                            10665                       END
 000C2C 58E0 740E/0DEE       01028 10669                       VCALL DEQUOTE             DEQUOTE ERRMSG STRING
 000C32 47B0 7032            00C4C 10673                       IF    NEG,BEGIN
 000C36 41F0 B050/58E0_      00050 10684  1                      TSEG  (R1),(R0)
 000C40 4110 74A3/4100_      010BD 10708  1                      ERROR ': invalid; quotes required.'
 000C4C                            10715                       END
 000C4C 5000 60F8            000F8 10719                       ST    R0,XBERRMLN
 000C50 1830                       10720                       LR    R3,R0
 000C52 0630/1233/4740_            10721                       MOVE  R3,XBERRMSG,@R1     SAVE ERROR MSG
 000C5E 1BFF                       10759                       CLEAR R15
1XCALL    (XCAL2025) (13:01) (15MAR04) XRETURN                                                                              Page   33
0Current Usings:  (XBWA,R6) (CP,R11) (CV,R12)
0Loc    Object Code    Addr1 Addr2  Stmt Lv Lineno    Source Statement           (Hibal 5, Asmedit 3.3)  HLASM R4.0  2004/03/15 13.01
+___    ______ ____    _____ _____  ____ __ ______    ______ _________
0000C60 18D8/9808 D004_            10763                       PEND
 DROP   *,R7
-                                  10784              *
                                   10785              * ATTENTION
                                   10786              *
 000C6E 50E0 D000/9008_      00000 10787              XXXATTN  PROC  ,
 USING  *,R7
 000C88 9640 6000      00000       10826                       SET   XBFATTN             SET XRETURN ERROR FLAG
 000C8C 9180 6000/47E0_00000       10832                       IF    XBFERROR,BEGIN      XRETURN ATTN ERROR .. NOT ALLOWED
 000C94 58E0 7394/0DEE       0101C 10847  1                      VCALL NOTVALID
 000C9A                            10851                       END
 000C9A 1BFF                       10855                       CLEAR R15
 000C9C 18D8/9808 D004_            10859                       PEND  ,
 DROP   *,R7
                                   10879              *
                                   10880              * ATTNID
                                   10881              *
 000CAA 50E0 D000/9008_      00000 10882              XXXATNID PROC  ,
 USING  *,R7
 000CC4 9640 6000      00000       10921                       SET   XBFATTN             SET PRETURN ATTN FLAG
 000CC8 9180 6000/47E0_00000       10927                       IF    XBFERROR,BEGIN      PRETURN ERROR ATTN .. NOT ALLOWED
 000CD0 58E0 7358/0DEE       0101C 10942  1                      VCALL NOTVALID
 000CD6                            10946                       END
 000CD6 5810 B08C/4111_      0008C 10950                       SCUPTOK R1
 000CDE 957D 1000/4780_00000       10954                       IF    ((@R1,EQ,''''),OR,(@R1,EQ,'"')),' VCALL NOTVALID '
 000CF4 D207 60FC 1000 000FC 00000 10994                       MVC   XBATTNID,@R1
 000CFA 1F33/4330 60FC             10995                       LC    R3,XBATTNID
 000D00 5930 735C/4740_      01020 11002                       IF    ((R3,LT,C'A'),OR,(R3,GT,C'Z')),' VCALL NOTVALID '
 000D16 1BFF                       11044                       CLEAR R15
 000D18 18D8/9808 D004_            11048                       PEND  ,
 DROP   *,R7
 DROP   XBWA,R6                    11068                       DROP  R6
1XCALL    (XCAL2025) (13:01) (15MAR04) XRETURN                                                                              Page   34
0Current Usings:  (CP,R11) (CV,R12)
0Loc    Object Code    Addr1 Addr2  Stmt Lv Lineno    Source Statement           (Hibal 5, Asmedit 3.3)  HLASM R4.0  2004/03/15 13.01
+___    ______ ____    _____ _____  ____ __ ______    ______ _________
0                                  11076              *-box
                                   11077              *
                                   11078              *  XCLEANUP
                                   11079              *
                                   11080              *  THIS ROUTINE OFFERS US A CHANCE TO DO ANY NECESSARY
                                   11081              *  CLEANUP AT THE TIME THAT AN XPROC RETURNS.  THOUGH
                                   11082              *  SOMEDAY THIS ROUTINE MAY HAVE SOME MORE GENERAL PURPOSE
                                   11083              *  FOR NOW IT SIMPLY CHECKS THE DUMP STATUS INFORMATION,
                                   11084              *  AND WRITES A 'LINE NNNN IS LAST LINE' MESSAGE IF
                                   11085              *  APPROPRIATE.
                                   11086              *
                                   11087              *  ON ENTRY:
                                   11088              *        R1 - THE NEW STATE FLAGS,
                                   11089              *        CP - CONTAINS THE CURRENT STATE
                                   11090              *
                                   11091              *  ON EXIT:
                                   11092              *        NO RETURNS,  WILL WRITE 'LINE NNNN IS LAST LINE' IF
                                   11093              *        APPROPRIATE DUMP STUFF IS TURNED ON.
                                   11094              *
 000D26 50E0 D000/9008_      00000 11095              XCLEANUP PROC  ,
 USING  *,R7
 USING  SNENTRY,R6                 11134                       USING SNENTRY,R6
 000D40 1861                       11143                       LR    R6,R1
                                   11144
                                   11145                       COMMENT                   CHECK TO SEE IF WE
                                   11146                       COMMENT                   SHOULD WRITE DUMP MSG
 000D42 9180 B7E4/47E0_007E4       11147                       IF    (CPFXDUMP,AND,~SNFEXEC,AND,SNFTYPED),BEGIN
 000D5A 5820 B7E8            007E8 11188  1                      L     R2,CPXDPLN
 000D5E 1222/47D0 707C             11189  1                      IF    (R2,POS),BEGIN
 000D64 1B00/41F0 B050_            11203  2                        TWRITE
 000D70 947F B7E4      007E4       11228  2                        CLEAR CPFXDUMP
 000D74 4110 7398/4100_      010D8 11235  2                        TSEG  'Line '
 000D86 5800 B7E8            007E8 11253  2                        L     R0,CPXDPLN
 000D8A 58E0 72F4/0DEE       01034 11254  2                        VCALL CVEXNO
 000D90 41F0 B050/58E0_      00050 11258  2                        TSEG  (R1),(R0)
 000D9A 4110 7304/4100_      01044 11282  2                        TSEG  ' is the last line.'
 000DAC 1B00/41F0 B050_            11300  2                        TWRITE
 000DB8 9680 B7E4      007E4       11325  2                        SET   CPFXDUMP
 000DBC                            11331  1                      END
 000DBC                            11335                       END
                                   11339
 000DBC 18D8/9808 D004_            11340                       PEND  ,
 DROP   *,R7
 DROP   SNENTRY,R6                 11360                       DROP  R6
1XCALL    (XCAL2025) (13:01) (15MAR04) XRETURN                                                                              Page   35
0Current Usings:  (CP,R11) (CV,R12)
0Loc    Object Code    Addr1 Addr2  Stmt Lv Lineno    Source Statement           (Hibal 5, Asmedit 3.3)  HLASM R4.0  2004/03/15 13.01
+___    ______ ____    _____ _____  ____ __ ______    ______ _________
0                                  11368              ¿þþþþþþþþþþþþþþþþþþþþþþþþþþþþþþþþþþþþþþþþþþþþþþþþþþþþþþþþþþþþþþþþþþþþþÜ
                                   11369              Ÿ                                                                     Ÿ
                                   11370              Ÿ                                                                     Ÿ
                                   11371              Ÿ  XRETURN CMD=                                                       Ÿ
                                   11372              Ÿ                                                                     Ÿ
                                   11373              Ÿ                                                                     Ÿ
                                   11374              Ÿ  ON ENTRY:                                                          Ÿ
                                   11375              Ÿ       SCANCB - 'XRETURN' SCANNED                                    Ÿ
                                   11376              Ÿ                                                                     Ÿ
                                   11377              Ÿ  ON EXIT:                                                           Ÿ
                                   11378              Ÿ       THIS ROUTINE DOES NOT RETURN !!                               Ÿ
                                   11379              Ÿ       THIS ROUTINE EXITS VIA XRETXCMD (START) ROUTINE.              Ÿ
                                   11380              Ÿ                                                                     Ÿ
                                   11381              Ÿ                                                                     Ÿ
                                                      ¾þþþþþþþþþþþþþþþþþþþþþþþþþþþþþþþþþþþþþþþþþþþþþþþþþþþþþþþþþþþþþþþþþþþþþ»
0000000                00000 00088 11382              XCDWA    RECORD BEGIN
 000000                            11390  1           XCDSTATE   DS    XL(L'SNENTRY)
 000088                00088 00088 11391                       END
                                   11400              *
                                   11401              *
 000DCA 50E0 D000/9008_      00000 11402              XCOMMAND PROC  XCDWA
 USING  *,R7
 USING  XCDWA-(4+36),R8
                                   11452
                                   11453                       COMMENT                   SCAN COMMAND,
                                   11454                       COMMENT                      MOVE CMD INTO CP CMD AREA
 000DE4 5810 B08C/1B00_      0008C 11455                       SCAN  ,                   SCAN 'CMD'
 000E32 5810 B08C/1B00_      0008C 11486                       SCAN  ,                   SCAN START OF <CMD>
 000E80 58E0 721C/0DEE       01000 11517                       SCANCHK
 000E86 1200/4720 70B4             11522                       IF    (R0,NP),BEGIN
 000E8C 4110 71CC/4100_      00FB0 11536  1                      ERROR 'Missing command.'
 000E98                            11543                       END
 000E98 58E0 B08C/58FE_      0008C 11547                       SCBKUP
 000ECE 58E0 B08C/581E_      0008C 11603                       SCINFO
 000EDC 5900 7254/47D0_      01038 11612                       CEIL  R0,L'CPCMD
 000EE8 1820                       11631                       LR    R2,R0
 000EEA 0620/4420 7306_            11632                       DEX   R2,' MVC CPCMD(0),@R1 '     MOVE COMMAND
 000EF0 4000 B240            00240 11651                       STH   R0,CPCMDLEN
 000EF4 4110 B242            00242 11652                       LA    R1,CPCMD
                                   11653
                                   11654                       COMMENT                   GET SET TO RETURN FROM XCALL
                                   11655
                                   11656                       COMMENT                   RESTORE ON CONDTION COMMANDS
 000EF8 5800 B848            00848 11657                       L     R0,CPXVSET#
 000EFC 58E0 7200/0DEE       00FE4 11658                       VCALL POPON
 000F02 5800 B848            00848 11662                       L     R0,CPXVSET#         RESTORE ERROR/ATTN VARS
 000F06 58E0 7204/0DEE       00FE8 11663                       VCALL POPERR
                                   11667
                                   11668                       COMMENT                   GET CALLING EXEC STATE
 000F0C 4100 0088            00088 11669                       LA    R0,L'XBSTATE
 000F10 4110 8028            00000 11670                       LA    R1,XCDSTATE
 000F14 4120 719C            00F80 11671                       LA    R2,=CL16'SYS*EXEC_STATE  '
 000F18 5830 B848            00848 11672                       L     R3,CPXVSET#
1XCALL    (XCAL2025) (13:01) (15MAR04) XRETURN                                                                              Page   36
0Current Usings:  (*,R7) (XCDWA-(4+36),R8) (CP,R11) (CV,R12)
0Loc    Object Code    Addr1 Addr2  Stmt Lv Lineno    Source Statement           (Hibal 5, Asmedit 3.3)  HLASM R4.0  2004/03/15 13.01
+___    ______ ____    _____ _____  ____ __ ______    ______ _________
0000F1C 58E0 71F8/0DEE       00FDC 11673                       VCALL GETVSTK
 000F22 4780 7144            00F28 11677                       IF    NZ,BEGIN
 000F26 0000                       11688  1                      BOMB
 000F28                            11690                       END
                                   11694
                                   11695                       COMMENT                   DO ANY LAST MINUTE CLEANUP
 000F28 4110 8028            00000 11696                       LA    R1,XCDSTATE
 000F2C 58E0 720C/0DEE       00FF0 11697                       ACALL XCLEANUP
                                   11701
                                   11702                       COMMENT                   START RETURN EXEC, AND ISSUE
                                   11703                       COMMENT                   COMMAND AFTER RETURN, YUCKKY POO
 000F32 4110 8028            00000 11704                       LA    R1,XCDSTATE
 000F36 58E0 7258/0DEE       0103C 11705                       ACALL XRETXCMD            DOES NOT RETURN  --->>>
                                   11709
                                   11710                       COMMENT
 000F3C 0000                       11711                       BOMB                      NEVER EXECUTED, WE EXIT ABOVE
 000F3E 18D8/9808 D004_            11713                       PEND  ,              A HABIT,
 DROP   XCDWA-(4+36),R8
 DROP   *,R7
1XCALL    (XCAL2025) (13:01) (15MAR04) XRETURN                                                                              Page   37
0Current Usings:  (CP,R11) (CV,R12)
0Loc    Object Code    Addr1 Addr2  Stmt Lv Lineno    Source Statement           (Hibal 5, Asmedit 3.3)  HLASM R4.0  2004/03/15 13.01
+___    ______ ____    _____ _____  ____ __ ______    ______ _________
0                                  11739                       QLTORG
1XCALL    (XCAL2025) (13:01) (15MAR04) PCALL Command                                                                        Page   38
0Current Usings:  (CP,R11) (CV,R12)
0Loc    Object Code    Addr1 Addr2  Stmt Lv Lineno    Source Statement           (Hibal 5, Asmedit 3.3)  HLASM R4.0  2004/03/15 13.01
+___    ______ ____    _____ _____  ____ __ ______    ______ _________
0                                  11800              ¿þþþþþþþþþþþþþþþþþþþþþþþþþþþþþþþþþþþþþþþþþþþþþþþþþþþþþþþþþþþþþþþþþþþþþÜ
                                   11801              Ÿ                                                                     Ÿ
                                   11802              Ÿ                                                                     Ÿ
                                   11803              Ÿ  PCALL - PROCEDURE CALL                                             Ÿ
                                   11804              Ÿ                                                                     Ÿ
                                   11805              Ÿ  ON ENTRY:                                                          Ÿ
                                   11806              Ÿ       SCANCB - REMAINDER OF PCALL COMMAND !                         Ÿ
                                   11807              Ÿ                                                                     Ÿ
                                   11808              Ÿ  WE DO THE FOLLOWING (MORE OR LESS) !                               Ÿ
                                   11809              Ÿ       - GET THE NAME OF THE PROCEDURE TO CALL                       Ÿ
                                   11810              Ÿ       - GET THE PARAMETER STRING                                    Ÿ
                                   11811              Ÿ       - GET THE PARAMETER LIST                                      Ÿ
                                   11812              Ÿ       - GET THE PARAMETER VALUES                                    Ÿ
                                   11813              Ÿ       - GET THE PROC NAME LIST                                      Ÿ
                                   11814              Ÿ       - PASS PARAMETERS                                             Ÿ
                                   11815              Ÿ       - SAVE CALLING/CALLED PARM LISTS                              Ÿ
                                   11816              Ÿ       - SAVE CALLING ROUTINES EXECUTION STATE                       Ÿ
                                   11817              Ÿ       - ESTABLISH NEW ROUTINES EXECUTION STATE                      Ÿ
                                   11818              Ÿ       - TAKE OFF !                                                  Ÿ
                                   11819              Ÿ                                                                     Ÿ
                                   11820              Ÿ NOTE: CPPLIMIT=8                MAXIMUM NUMBER OF PARAMETERS        Ÿ
                                   11821              Ÿ                                                                     Ÿ
                                   11822              Ÿ                                                                     Ÿ
                                                      ¾þþþþþþþþþþþþþþþþþþþþþþþþþþþþþþþþþþþþþþþþþþþþþþþþþþþþþþþþþþþþþþþþþþþþþ»
0000000                00000 00E1C 11823              PCLWA    RECORD BEGIN
 000000 00                         11831  1           PCLFLAG    FLAG  ,
 PCLFLAG.PCLPARMS  01 EQ           11835  1                      FLAG  (PCLPARMS,1,EQ)     PARM LIST
 PCLFLAG.PCLFREE   02 EQ           11845  1                      FLAG  (PCLFREE,2,EQ)      FREE FORMAT PARM STRING
 000004                            11855  1                      DS    0F
 000004                            11856  1           PCLNAME    DS    CL(L'VNNAME)        PROCEDURE NAME
 000014                            11857  1           PCLSTART   DS    F                   STARTING LINE NO OF PROC
 000018                            11858  1           PCLEND     DS    F                   ENDING LINE NO OF PROC
 00001C                            11859  1           PCNEWSET   DS    F                   CALLED PROC NEW VAR SET NUMBER
                                   11860  1           PCPARM     DS    XL(&LINESZ)         PARAMETER STRING
 000020                                   1          +PCPARM     DS    XL(235)             PARAMETER STRING
 00010C                            11861  1           PCPARMLN   DS    F                   PARAMETER STRING LENGTH
 000110                            11862  1           PCPARMCT   DS    F                   PARM COUNT
 000114                            11863  1           PCLPLIST   DS    XL(L'PLIST)         PARM LIST (FROM CALLER)
 000214                            11864  1           PCLNLIST   DS    XL(L'NLIST)         NAME LIST (FROM PROC)
 000314                            11865  1           PCLVLIST   DS    XL(L'VLIST)         VALUE LIST (ACTUAL PARM VALUES)
 000D94                            11866  1           PCLSTATE   DS    XL(L'SNENTRY)       EXEC STATE INFO DSECT
 000E1C                00E1C 00E1C 11867                       END
                                   11876              *
                                   11877              *
 0010F0 50E0 D000/9008_      00000 11878              PCALL    XPROC PCLWA
 USING  *,R7
 USING  PCLWA-(4+36),R8
                                   11929
                                   11930                    COMMENT                      PCALL, INVALID FROM TERMINAL
 00110A 9180 B758/4710_00758       11931                    IF    ~CPFEXEC,BEGIN
 001112 4110 79A0/4100_      01AAA 11946  1                   TSEG  'PCALL: statement ignored.',,CR
 001124 4110 79B9/4100_      01AC3 11964  1                   ERROR 'Flow control statements may be used only in EXEC files.'
 001130                            11971                    END
1XCALL    (XCAL2025) (13:01) (15MAR04) PCALL Command                                                                        Page   39
0Current Usings:  (*,R7) (PCLWA-(4+36),R8) (CP,R11) (CV,R12)
0Loc    Object Code    Addr1 Addr2  Stmt Lv Lineno    Source Statement           (Hibal 5, Asmedit 3.3)  HLASM R4.0  2004/03/15 13.01
+___    ______ ____    _____ _____  ____ __ ______    ______ _________
0                                  11975
                                   11976                    COMMENT                      PCALL, INVALID IN OLD EXEC MODE
 001130 9502 B759/4770_00759       11977                    IF    CPFXOLD,BEGIN
 001138 4110 79F0/4100_      01AFA 11992  1                   TSEG  'PCALL: statement invalid.',,CR
 00114A 4110 7A09/4100_      01B13 12010  1                   ERROR 'Statement may be used only in Extended EXEC mode.'
 001156                            12017                    END
                                   12021                       ¿þþþþþþþþþþþþþþþþþþþþþþþþþÜ
                                   12022                       Ÿ                         Ÿ
                                   12023                       Ÿ  PROCESS PCALL COMMAND  Ÿ
                                   12024                       Ÿ                         Ÿ
                                   12025                       ¾þþþþþþþþþþþþþþþþþþþþþþþþþ»
                                   12026                       COMMENT                   ENTRANCE EXAM
 001156 9501 B759/4780_00759       12027                       IF    ~CPFXTEND,BEGIN
 00115E 0000                       12042  1                      BOMB
 001160                            12044                       END
                                   12048
                                   12049                       COMMENT                   CLEAR WORK AREA
 001160 4120 8050            00028 12050                       LA    R2,PCLWA+40            (EXCEPT FOR ENTRY REGS)
 001164 4130 0DF4            00DF4 12051                       LA    R3,L'PCLWA-40
 001168 1B55                       12052                       CLEAR R5
 00116A 0E24                       12056                       MVCL  R2,R4
                                   12057
                                   12058                       COMMENT                   SCAN PCALL COMMAND
 00116C 4120 802C            00004 12059                       LA    R2,PCLNAME
 001170 58E0 7902/0DEE       01A0C 12060                       VCALL SCNPNAME            SCAN PROCEDURE NAME
 001176 4770 C7D6            007D6 12064                       BNZ   CVERROR
                                   12065
                                   12066                       COMMENT                   CHECK TO SEE IF PROC IS DEFINED
 00117A 4110 802C            00004 12067                       LA    R1,PCLNAME
 00117E 58E0 7906/0DEE       01A10 12068                       VCALL CHKPDEF
 001184 4780 709C            011A6 12072                       IF    NZ,BEGIN
 001188 4110 802C/4100_      00004 12083  1                      TSEG  PCLNAME,L'PCLNAME,T
 00119A 4110 7A3A/4100_      01B44 12113  1                      ERROR ': undefined procedure name.'
 0011A6                            12120                       END
 0011A6 5000 803C            00014 12124                       ST    R0,PCLSTART         *$  NOT SET BY ANYBODY ABOVE ??
 0011AA 5010 8040            00018 12125                       ST    R1,PCLEND           *$  ??
                                   12126
                                   12127                       COMMENT                   SCAN PCALL PARM LIST
 0011AE 58E0 790E/0DEE       01A18 12128                       ACALL SCNPCALL
 0011B4 1222/4770 70B4             12132                       IF    (R2,Z),BEGIN
 0011BA 9201 8028      00000       12146  1                      SET   PCLPARMS            PARM-LIST SCANNED
 0011BE                            12152                       END
 0011BE 70B8/47F0 70C2 011BE 011B8 12156                       ELSE  BEGIN
 0011C2 9202 8028      00000       12167  1                      SET   PCLFREE             FREE-FORMAT PARM STRING SCANNED
 0011C6 D203 8138 7912 00110 01A1C 12173  1                      MVC   PCPARMCT,=F'-1'     SET -1 PARM COUNT, FOR FREE FORMAT
 0011CC                            12174                       END
 0011CC 5000 8134            0010C 12178                       ST    R0,PCPARMLN
 0011D0 5830 8134            0010C 12179                       L     R3,PCPARMLN         SAVE INPUT PARM LIST/STRING
 0011D4 0630/1233/4740_            12180                       MOVE  R3,PCPARM,@R1
                                   12218
                                   12219                       COMMENT                   GET NEW VARIABLE SET NUMBER
 0011E0 58E0 7916/0DEE       01A20 12220                       VCALL GTNEWSET
 0011E6 5000 8044            0001C 12224                       ST    R0,PCNEWSET
                                   12225                       COMMENT                   CLEAR NEW VARIABLE SET
1XCALL    (XCAL2025) (13:01) (15MAR04) PCALL Command                                                                        Page   40
0Current Usings:  (*,R7) (PCLWA-(4+36),R8) (CP,R11) (CV,R12)
0Loc    Object Code    Addr1 Addr2  Stmt Lv Lineno    Source Statement           (Hibal 5, Asmedit 3.3)  HLASM R4.0  2004/03/15 13.01
+___    ______ ____    _____ _____  ____ __ ______    ______ _________
00011EA 5800 8044            0001C 12226                       L     R0,PCNEWSET
 0011EE 58E0 791A/0DEE       01A24 12227                       VCALL CLRVSETS
                                   12231
                                   12232                       COMMENT                   SCAN PARM LIST
 0011F4 9501 8028/4770_00000       12233                       IF    PCLPARMS,BEGIN
 0011FC 5800 8134            0010C 12248  1                      L     R0,PCPARMLN
 001200 4110 8048            00020 12249  1                      LA    R1,PCPARM
 001204 4120 813C            00114 12250  1                      LA    R2,PCLPLIST
 001208 58E0 791E/0DEE       01A28 12251  1                      ACALL SCNPLIST
 00120E 5000 8138            00110 12255  1                      ST    R0,PCPARMCT
 001212                            12256                       END
                                   12260
                                   12261                       COMMENT                   SCAN PARM VALUES
 001212 9501 8028/4770_00000       12262                       IF    PCLPARMS,BEGIN
 00121A 5800 8134            0010C 12277  1                      L     R0,PCPARMLN
 00121E 4110 8048            00020 12278  1                      LA    R1,PCPARM
 001222 4120 833C            00314 12279  1                      LA    R2,PCLVLIST
 001226 58E0 7922/0DEE       01A2C 12280  1                      ACALL SCNVLIST
 00122C                            12284                       END
                                   12288
                                   12289                       COMMENT                   GET CALLED XPROC NAME LIST
 00122C 4110 802C            00004 12290                       LA    R1,PCLNAME
 001230 4120 823C            00214 12291                       LA    R2,PCLNLIST
 001234 58E0 7926/0DEE       01A30 12292                       VCALL GTPNLIST
                                   12296
                                   12297                       COMMENT                   PASS PARMS
 00123A 5800 8138            00110 12298                       L     R0,PCPARMCT
 00123E 4110 833C            00314 12299                       LA    R1,PCLVLIST
 001242 4120 823C            00214 12300                       LA    R2,PCLNLIST
 001246 5830 8044            0001C 12301                       L     R3,PCNEWSET
 00124A 58E0 792A/0DEE       01A34 12302                       ACALL PASSPRMS
                                   12306
                                   12307                       COMMENT                   PASS PARM_STR, AND PARM_COUNT
 001250 5800 8134            0010C 12308                       L     R0,PCPARMLN
 001254 4110 8048            00020 12309                       LA    R1,PCPARM
 001258 5820 8138            00110 12310                       L     R2,PCPARMCT
 00125C 58E0 792E/0DEE       01A38 12311                       ACALL PASSPARM
                                   12315
                                   12316                       COMMENT                   SAVE CALLERS PLIST
 001262 4100 0100            00100 12317                       LA    R0,L'PCLPLIST
 001266 4110 813C            00114 12318                       LA    R1,PCLPLIST
 00126A 4120 78AE            019B8 12319                       LA    R2,=CL16'SYS*CALLER_PLIST'
 00126E 5830 8044            0001C 12320                       L     R3,PCNEWSET
 001272 58E0 7932/0DEE       01A3C 12321                       VCALL SAVEVSTK
                                   12325                       COMMENT                   SAVE CALLED NLIST
 001278 4100 0100            00100 12326                       LA    R0,L'PCLNLIST
 00127C 4110 823C            00214 12327                       LA    R1,PCLNLIST
 001280 4120 78BE            019C8 12328                       LA    R2,=CL16'SYS*PROC_NLIST  '
 001284 5830 8044            0001C 12329                       L     R3,PCNEWSET
 001288 58E0 7932/0DEE       01A3C 12330                       VCALL SAVEVSTK
                                   12334
                                   12335                       COMMENT                   GET CURRENT EXEC STATE
 00128E 4110 8DBC            00D94 12336                       LA    R1,PCLSTATE
 001292 58E0 7936/0DEE       01A40 12337                       VCALL GETSTATE
1XCALL    (XCAL2025) (13:01) (15MAR04) PCALL Command                                                                        Page   41
0Current Usings:  (*,R7) (PCLWA-(4+36),R8) (CP,R11) (CV,R12)
0Loc    Object Code    Addr1 Addr2  Stmt Lv Lineno    Source Statement           (Hibal 5, Asmedit 3.3)  HLASM R4.0  2004/03/15 13.01
+___    ______ ____    _____ _____  ____ __ ______    ______ _________
0                                  12341
                                   12342                       COMMENT                   SAVE CURRENT EXEC STATE
 001298 4100 0088            00088 12343                       LA    R0,L'SNENTRY
 00129C 4110 8DBC            00D94 12344                       LA    R1,PCLSTATE
 0012A0 4120 78CE            019D8 12345                       LA    R2,=CL16'SYS*EXEC_STATE  '
 0012A4 5830 8044            0001C 12346                       L     R3,PCNEWSET
 0012A8 58E0 7932/0DEE       01A3C 12347                       VCALL SAVEVSTK
                                   12351
                                   12352                       COMMENT                   SET UP NEW EXEC STATE
 0012AE 4110 802C            00004 12353                       LA    R1,PCLNAME
 0012B2 4130 8DBC            00D94 12354                       LA    R3,PCLSTATE
 0012B6 58E0 793A/0DEE       01A44 12355                       ACALL GTPSTART
                                   12359
                                   12360                       COMMENT                   IF DEBUG ACTIVE, CHECK FOR TRAP
 0012BC 9180 B84C/47E0_0084C       12361                       IF    CPFDEBUG,BEGIN
 0012C4 5800 B778            00778 12376  1                      L     R0,CP#XSET
 0012C8 4110 802C            00004 12377  1                      LA    R1,PCLNAME
 0012CC 58E0 793E/0DEE       01A48 12378  1                      VCALL DBCALL
 0012D2                            12382                       END
                                   12386
                                   12387                       COMMENT                   START NEW EXEC
 0012D2 4110 8DBC            00D94 12388                       LA    R1,PCLSTATE
 0012D6 58E0 7942/0DEE       01A4C 12389                       ACALL START               DOES NOT RETURN
                                   12393
 0012DC 0000                       12394                       BOMB  ,                   NEVER EXECUTED, WE EXIT ABOVE
                                   12396
 0012DE 1BFF                       12397                       CLEAR R15
 0012E0 18D8/9808 D004_            12401                       PEND  ,          NEVER EXECUTED, WE EXIT ABOVE
 DROP   PCLWA-(4+36),R8
 DROP   *,R7
1XCALL    (XCAL2025) (13:01) (15MAR04) RETURN from procedure call                                                           Page   42
0Current Usings:  (CP,R11) (CV,R12)
0Loc    Object Code    Addr1 Addr2  Stmt Lv Lineno    Source Statement           (Hibal 5, Asmedit 3.3)  HLASM R4.0  2004/03/15 13.01
+___    ______ ____    _____ _____  ____ __ ______    ______ _________
0                                  12427              ¿þþþþþþþþþþþþþþþþþþþþþþþþþþþþþþþþþþþþþþþþþþþþþþþþþþþþþþþþþþþþþþþþþþþþþÜ
                                   12428              Ÿ                                                                     Ÿ
                                   12429              Ÿ                                                                     Ÿ
                                   12430              Ÿ  PRETURN - RETURN FROM PROCEDURE                                    Ÿ
                                   12431              Ÿ                                                                     Ÿ
                                   12432              Ÿ  ON ENTRY:                                                          Ÿ
                                   12433              Ÿ       SCANCB - RETURN OPTIONS, OR PARM LIST                         Ÿ
                                   12434              Ÿ                                                                     Ÿ
                                   12435              Ÿ  ONE EXIT:                                                          Ÿ
                                   12436              Ÿ       THIS ROUTINE DOES NOT RETURN !!                               Ÿ
                                   12437              Ÿ       THIS ROUTINE EXITS VIA START ROUTINE.                         Ÿ
                                   12438              Ÿ                                                                     Ÿ
                                   12439              Ÿ                                                                     Ÿ
                                   12440              Ÿ  NOTE: 'RETURN' COMMAND IS REFERRED TO HERE AS 'PRETURN'            Ÿ
                                   12441              Ÿ                                                                     Ÿ
                                   12442              Ÿ  NOTE2: THIS DESCRIBES THE MANY NAME LISTS:                         Ÿ
                                   12443              Ÿ       PRRLIST - NAME LIST IN  .. RETURN (<NAME LIST>)               Ÿ
                                   12444              Ÿ       PRNLIST - NAME LIST IN  .. PROC NAME (<NAME LIST>)            Ÿ
                                   12445              Ÿ       PRPLIST - PARM LIST IN  .. PCALL NAME (<PARM LIST>)           Ÿ
                                   12446              Ÿ       PRLIST  - CALCULATED RETURN LIST CONTAINS CALLERS VAR NAMES   Ÿ
                                   12447              Ÿ                                                                     Ÿ
                                   12448              Ÿ                                                                     Ÿ
                                                      ¾þþþþþþþþþþþþþþþþþþþþþþþþþþþþþþþþþþþþþþþþþþþþþþþþþþþþþþþþþþþþþþþþþþþþþ»
0000000                00000 00F14 12449              PRWA     RECORD BEGIN
 000000                            12457  1           PRCNT      DS    F                   RETURN PARMS COUNT
 000004                            12458  1           PRRLIST    DS    XL(L'NLIST)         RETURN NAME LIST  (PROCEDURES)
 000104                            12459  1           PRNLIST    DS    XL(L'NLIST)         ENTRY NAME LIST (PROCEDURES)
 000204                            12460  1           PRPLIST    DS    XL(L'NLIST)         ENTRY NAME LIST (CALLERS)
 000304                            12461  1           PRLIST     DS    XL(L'NLIST)         RETURN NAME LIST  (CALLERS)
 000404                            12462  1           PRVLIST    DS    XL(L'VLIST)         RETURN VALUE LIST
 000E84                            12463  1           PRPARMLN   DS    F                   PARM/OPTIONS LENGTH
 000E88                            12464  1           PRPARM     DS    F                   PARM/OPTIONS ADDRESS
 000E8C                            12465  1           PRSTATE    DS    XL(L'SNENTRY)       EXEC-STATE DSECT
 000F14                00F14 00F14 12466                       END
                                   12475              *
                                   12476              *
 0012EE 50E0 D000/9008_      00000 12477              PRETURN  XPROC PRWA
 USING  *,R7
 USING  PRWA-(4+36),R8
                                   12528
                                   12529                       COMMENT                   CHECK IF PRETURN VALID
 001308 9502 B759/4780_00759       12530                       IF    (CPFXOLD,OR,(CP#XSET,EQ,=A(CP#XOLD))),BEGIN
 00131A 4110 7857/4100_      01B5F 12561  1                      ERROR 'Not in procedure.  Command ignored.'
 001326                            12568                       END
                                   12572
                                   12573                       COMMENT                   CHECK IF PRETURN VALID
 001326 D503 B848 B844_00848 00844 12574                       IF    (CPXVSET#,EQ,CPVSET#),BEGIN
 001330 4110 787A/4100_      01B82 12592  1                      ERROR 'RETURN: invalid within XPROC.  Use XRETURN instead.'
 00133C                            12599                       END
                                   12603
                                   12604                       COMMENT                   IF DEBUG ACTIVE, CHECK FOR TRAPS
 00133C 9180 B84C/47E0_0084C       12605                       IF    CPFDEBUG,BEGIN
 001344 5800 B778            00778 12620  1                      L     R0,CP#XSET
1XCALL    (XCAL2025) (13:01) (15MAR04) RETURN from procedure call                                                           Page   43
0Current Usings:  (*,R7) (PRWA-(4+36),R8) (CP,R11) (CV,R12)
0Loc    Object Code    Addr1 Addr2  Stmt Lv Lineno    Source Statement           (Hibal 5, Asmedit 3.3)  HLASM R4.0  2004/03/15 13.01
+___    ______ ____    _____ _____  ____ __ ______    ______ _________
0001348 4110 B7D0            007D0 12621  1                      LA    R1,CPPROCNM
 00134C 58E0 774C/0DEE       01A54 12622  1                      VCALL DBRET
 001352                            12626                       END
                                   12630
                                   12631                       COMMENT                   SCAN PARM/OPTIONS
 001352 58E0 7750/0DEE       01A58 12632                       ACALL PSCNPARM
 001358 5000 8EAC            00E84 12636                       ST    R0,PRPARMLN
 00135C 5010 8EB0            00E88 12637                       ST    R1,PRPARM
                                   12638
                                   12639                       COMMENT                   CHECK FOR
                                   12640                       COMMENT                      PRETURN ERROR ...
                                   12641                       COMMENT                      PRETURN ATTN
                                   12642                       COMMENT
 001360 954D 1000/4780_00000       12643                       IF    ((@R1,NE,'('),AND,(R0,POS)),BEGIN
                                   12672  1                      COMMENT                   GOT PRETURN ERR/ATTN  (OR ELSE!)
 00136E 58E0 7754/0DEE       01A5C 12673  1                      ACALL PABORT              DOES NOT RETURN --->>>
 001374                            12677                       END
                                   12681
                                   12682                       COMMENT                   SCAN RETURN LIST VALUES
 001374 5800 8EAC            00E84 12683                       L     R0,PRPARMLN
 001378 5810 8EB0            00E88 12684                       L     R1,PRPARM
 00137C 4120 842C            00404 12685                       LA    R2,PRVLIST
 001380 58E0 7724/0DEE       01A2C 12686                       ACALL SCNVLIST
 001386 5000 8028            00000 12690                       ST    R0,PRCNT
                                   12691
                                   12692                       COMMENT                   SCAN RETURN LIST NAMES
 00138A 5800 8EAC            00E84 12693                       L     R0,PRPARMLN
 00138E 5810 8EB0            00E88 12694                       L     R1,PRPARM
 001392 4120 802C            00004 12695                       LA    R2,PRRLIST
 001396 58E0 7758/0DEE       01A60 12696                       ACALL SCNNLIST
                                   12700
                                   12701                       COMMENT                   GET CALLING PARM LIST (NAMES)
 00139C 4100 0100            00100 12702                       LA    R0,L'PRNLIST
 0013A0 4110 812C            00104 12703                       LA    R1,PRNLIST
 0013A4 4120 76C0            019C8 12704                       LA    R2,=CL16'SYS*PROC_NLIST  '
 0013A8 5830 B844            00844 12705                       L     R3,CPVSET#
 0013AC 58E0 775C/0DEE       01A64 12706                       VCALL GETVSTK
 0013B2 4780 70B0            013B8 12710                       IF    NZ,BEGIN
 0013B6 0000                       12721  1                      BOMB
 0013B8                            12723                       END
                                   12727
                                   12728                       COMMENT                   GET CALLING PARM LIST (NAMES)
 0013B8 4100 0100            00100 12729                       LA    R0,L'PRPLIST
 0013BC 4110 822C            00204 12730                       LA    R1,PRPLIST
 0013C0 4120 76B0            019B8 12731                       LA    R2,=CL16'SYS*CALLER_PLIST'
 0013C4 5830 B844            00844 12732                       L     R3,CPVSET#
 0013C8 58E0 775C/0DEE       01A64 12733                       VCALL GETVSTK
 0013CE 4780 70CC            013D4 12737                       IF    NZ,BEGIN
 0013D2 0000                       12748  1                      BOMB
 0013D4                            12750                       END
                                   12754
                                   12755                       COMMENT                   ASSOCIATE RETURN NAMES WITH
                                   12756                       COMMENT                   PARM NAMES, POSITION WISE
 USING  VNENTRY,R1                 12757                       USING VNENTRY,R1
1XCALL    (XCAL2025) (13:01) (15MAR04) RETURN from procedure call                                                           Page   44
0Current Usings:  (VNENTRY,R1) (*,R7) (PRWA-(4+36),R8) (CP,R11) (CV,R12)
0Loc    Object Code    Addr1 Addr2  Stmt Lv Lineno    Source Statement           (Hibal 5, Asmedit 3.3)  HLASM R4.0  2004/03/15 13.01
+___    ______ ____    _____ _____  ____ __ ______    ______ _________
00013D4 4100 832C            00304 12766                       LA    R0,PRLIST
 0013D8 4110 0100            00100 12767                       LA    R1,L'NLIST
 0013DC 4120 802C            00004 12768                       LA    R2,PRRLIST
 0013E0 4130 0100            00100 12769                       LA    R3,L'NLIST
 0013E4 0E02                       12770                       MVCL  R0,R2               COPY RETURN LIST
 0013E6 5800 8028            00000 12771                       L     R0,PRCNT
 0013EA 4110 832C            00304 12772                       LA    R1,PRLIST
 0013EE 1200/47D0 7144             12773                       WHILE (R0,POS),BEGIN      LOOP THRU ALL RETURN PARMS
                                   12789  1
                                   12790  1                      COMMENT                   FIND ASSOCIATED NAME
 0013F4 4120 812C            00104 12791  1                      LA    R2,PRNLIST
 0013F8 4140 812C            00104 12792  1                      LA    R4,PRNLIST
 0013FC 4144 0100            00100 12793  1                      LA    R4,L'NLIST(R4)
 001400 1924/47B0 7110_            12794  1                      WHILE ((R2,LT,R4),AND,(@R2,NE,VNDESC)),BEGIN
 001410 4122 0020            00020 12827  2                        LA    R2,L'VNDESC(R2)
 001414 47F0 70F8            01400 12828  1                      END
 001418 1924/4750 712A             12833  1                      IF    (R2,GE,R4),BEGIN
 00141E 1821                       12848  2                        LR    R2,R1
 001420 58E0 7760/0DEE       01A68 12849  2                        VCALL SEGVNAME
 001426 4110 78AD/4100_      01BB5 12853  2                        ERROR ': not a procedure parameter.  Unable to return value.'
 001432                            12860  1                      END
 001432 4140 812C            00104 12864  1                      LA    R4,PRNLIST          CALCULATE NAME OFFSET IN R2
 001436 1B24                       12865  1                      SR    R2,R4
 001438 4122 822C            00204 12866  1                      LA    R2,PRPLIST(R2)
 00143C D21F 1000 2000 00000 00000 12867  1                      MVC   0(L'VNDESC,R1),0(R2)   SAVE CALLING NAME IN RETURN LIST
                                   12868  1
                                   12869  1                      COMMENT                   LOOP THRU ALL RETURN VARIABLES
 001442 4111 0020            00020 12870  1                      LA    R1,L'VNDESC(R1)
 001446 0600                       12871  1                      DECR  R0
 001448 47F0 70E6            013EE 12873                       END
 DROP   VNENTRY,R1                 12878                       DROP  R1
                                   12885
                                   12886                       COMMENT                   GET CALLING EXECUTION STATE
 00144C 4100 0088            00088 12887                       LA    R0,L'PRSTATE
 001450 4110 8EB4            00E8C 12888                       LA    R1,PRSTATE
 001454 4120 76D0            019D8 12889                       LA    R2,=CL16'SYS*EXEC_STATE  '
 001458 5830 B844            00844 12890                       L     R3,CPVSET#
 00145C 58E0 775C/0DEE       01A64 12891                       VCALL GETVSTK
 001462 4780 7160            01468 12895                       IF    NZ,BEGIN
 001466 0000                       12906  1                      BOMB
 001468                            12908                       END
                                   12912
                                   12913                       COMMENT                   RETURN PASSED PARMS
 001468 5800 8028            00000 12914                       L     R0,PRCNT
 00146C 4110 842C            00404 12915                       LA    R1,PRVLIST
 001470 4120 832C            00304 12916                       LA    R2,PRLIST
 001474 4130 802C            00004 12917                       LA    R3,PRRLIST
 001478 5840 8EDC            00EB4 12918                       L     R4,PRSTATE+(SNVSET#-SNENTRY)
 00147C 5850 8EE0            00EB8 12919                       L     R5,PRSTATE+(SNXVSET#-SNENTRY)
 001480 58E0 7764/0DEE       01A6C 12920                       ACALL RETPARMS            RETURN PARMS
                                   12924
                                   12925                       COMMENT                   RESET SOME PCALL RETURN PARMS
 001486 4110 8EB4            00E8C 12926                       LA    R1,PRSTATE
 00148A 58E0 7768/0DEE       01A70 12927                       ACALL SETPRET
1XCALL    (XCAL2025) (13:01) (15MAR04) RETURN from procedure call                                                           Page   45
0Current Usings:  (*,R7) (PRWA-(4+36),R8) (CP,R11) (CV,R12)
0Loc    Object Code    Addr1 Addr2  Stmt Lv Lineno    Source Statement           (Hibal 5, Asmedit 3.3)  HLASM R4.0  2004/03/15 13.01
+___    ______ ____    _____ _____  ____ __ ______    ______ _________
0                                  12931
                                   12932                       COMMENT                   START RETURN EXEC
 001490 4110 8EB4            00E8C 12933                       LA    R1,PRSTATE
 001494 58E0 7744/0DEE       01A4C 12934                       ACALL START               DOES NOT RETURN
                                   12938              *
                                   12939              *
 00149A 0000                       12940                       BOMB
                                   12942
 00149C 1BFF                       12943                       CLEAR R15                 NEVER EXECUTED, WE EXIT ABOVE
 00149E 18D8/9808 D004_            12947                       PEND  ,
 DROP   PRWA-(4+36),R8
 DROP   *,R7
1XCALL    (XCAL2025) (13:01) (15MAR04) RETURN from procedure call                                                           Page   46
0Current Usings:  (CP,R11) (CV,R12)
0Loc    Object Code    Addr1 Addr2  Stmt Lv Lineno    Source Statement           (Hibal 5, Asmedit 3.3)  HLASM R4.0  2004/03/15 13.01
+___    ______ ____    _____ _____  ____ __ ______    ______ _________
0                                  12973              ¿þþþþþþþþþþþþþþþþþþþþþþþþþþþþþþþþþþþþþþþþþþþþþþþþþþþþþþþþþþþþþþþþþþþþþÜ
                                   12974              Ÿ                                                                     Ÿ
                                   12975              Ÿ                                                                     Ÿ
                                   12976              Ÿ  PABORT - PROCESS THE FOLLOWING:                                    Ÿ
                                   12977              Ÿ                                                                     Ÿ
                                   12978              Ÿ       RETURN ERROR                                                  Ÿ
                                   12979              Ÿ       RETURN ATTENTION                                              Ÿ
                                   12980              Ÿ                                                                     Ÿ
                                   12981              Ÿ                                                                     Ÿ
                                   12982              Ÿ  ON ENTRY:                                                          Ÿ
                                   12983              Ÿ       R0 - LENGTH OF ERROR/ATTN OPTIONS                             Ÿ
                                   12984              Ÿ       R1 - LOCATION OF ERROR/ATTN OPTIONS AFTER 'RETURN'            Ÿ
                                   12985              Ÿ            NOTE: OPTIONS LIST IS NON-EMPTY (OR ELSE)                Ÿ
                                   12986              Ÿ                                                                     Ÿ
                                   12987              Ÿ  ON EXIT:                                                           Ÿ
                                   12988              Ÿ       THIS ROUTINE DOES NOT RETURN !!                               Ÿ
                                   12989              Ÿ       THIS ROUTINE EXITS VIA START ROUTINE.                         Ÿ
                                   12990              Ÿ                                                                     Ÿ
                                   12991              Ÿ                                                                     Ÿ
                                                      ¾þþþþþþþþþþþþþþþþþþþþþþþþþþþþþþþþþþþþþþþþþþþþþþþþþþþþþþþþþþþþþþþþþþþþþ»
0000000                00000 0018C 12992              PBWA     RECORD BEGIN
 000000 00                         13000  1           PBFLAG     FLAG
 PBFLAG.PBFERROR   80 ONES         13004  1                      FLAG  PBFERROR            PRETURN ERROR
 PBFLAG.PBFATTN    40 ONES         13009  1                      FLAG  PBFATTN             PRETURN ATTN
 000004                            13014  1                      DS    0F
 000004                            13015  1           PBERRID    DS    CL8                 ERROR ID
                                   13016  1           PBERRMSG   DS    CL(&LINESZ)         ERROR MESSAGE TEXT
 00000C                                   1          +PBERRMSG   DS    CL(235)             ERROR MESSAGE TEXT
 0000F8                            13017  1           PBERRMLN   DS    F                   ERROR MESSAGE LENGTH
 0000FC                            13018  1           PBATTNID   DS    CL8                 ATTN ID
 000104                            13019  1           PBSTATE    DS    XL(L'SNENTRY)       EXEC-STATE DSECT
 00018C                0018C 0018C 13020                       END
                                   13029              *
                                   13030              *
 0014AC 50E0 D000/9008_      00000 13031              PABORT   PROC  PBWA
 USING  *,R7
 USING  PBWA-(4+36),R8
 0014C6 4160 8028            00000 13081                       LA    R6,PBWA
 USING  PBWA,R6                    13082                       USING PBWA,R6
                                   13091
                                   13092                       COMMENT                   SET UP SCANNER,
 0014CA 58E0 B08C/501E_      0008C 13093                       SCINIT (R1),(R0)
 0014D8 58E0 B08C/D2AF_      0008C 13113                       SCPUSH
 0014E6 5810 B08C/1B00_      0008C 13119                       SCAN  ,                   (CHECK FOR NON-NULL PARMS)
 001534 58E0 75B2/0DEE       01A78 13150                       SCANCHK ,
 00153A 58E0 B08C/4BD0_      0008C 13155                       SCPOP
 001548 1200/4770 708A             13161                       IF    (R0,Z),BEGIN
 00154E 0000                       13175  1                      BOMB
 001550                            13177                       END
                                   13181
                                   13182                       COMMENT                   SET WORK AREA DEFAULTS
 001550 9200 6000      00000       13183                       CLEAR PBFLAG
 001554 D207 6004 7522 00004 019E8 13190                       MVC   PBERRID,=CL8'ERROR   '
1XCALL    (XCAL2025) (13:01) (15MAR04) RETURN from procedure call                                                           Page   47
0Current Usings:  (PBWA,R6) (*,R7) (PBWA-(4+36),R8) (CP,R11) (CV,R12)
0Loc    Object Code    Addr1 Addr2  Stmt Lv Lineno    Source Statement           (Hibal 5, Asmedit 3.3)  HLASM R4.0  2004/03/15 13.01
+___    ______ ____    _____ _____  ____ __ ______    ______ _________
000155A 4110 75D6/4100_      01A9C 13191                       SETMSG 'Error in PROC.'
 001562 5000 60F8            000F8 13195                       ST    R0,PBERRMLN
 001566 1830                       13196                       LR    R3,R0
 001568 0630/1233/4740_            13197                       MOVE  R3,PBERRMSG,@R1
 001574 D207 60FC 752A 000FC 019F0 13235                       MVC   PBATTNID,=CL8'ATTN    '
 00157A D787 6104 6104 00104 00104 13236                       CLEAR PBSTATE
                                   13243
                                   13244                       COMMENT                   SCAN ERROR/ATTN OPTIONS
 001580 5810 B08C/1B00_      0008C 13245                       SCAN  PABRTPRT
 0015D2 58E0 75B2/0DEE       01A78 13277                       SCANCHK
                                   13282                       ¿þþþþþþþþþþþþþþþþþþþþþþþþþÜ
                                   13283                       Ÿ  IF  PRETURN ERROR ...  Ÿ
                                   13284                       ¾þþþþþþþþþþþþþþþþþþþþþþþþþ»
                                   13285                       COMMENT                   IF PRETURN ERROR
 0015D8 9180 6000/47E0_00000       13286                       IF    PBFERROR,BEGIN
                                   13301  1
                                   13302  1                      COMMENT                   SET ERROR VARIABLES
 0015E0 D207 B886 6004 00886 00004 13303  1                      MVC   CPERRID,PBERRID
 0015E6 5800 60F8            000F8 13304  1                      L     R0,PBERRMLN
 0015EA 4110 600C            0000C 13305  1                      LA    R1,PBERRMSG
 0015EE 1200/4780 7138             13306  1                      IF    (R0,NZ),BEGIN
 0015F4 41F0 B050/58E0_      00050 13320  2                        TSEG  (R1),(R0),CR
 0015FE                            13344  1                      END
                                   13348  1
                                   13349  1                      COMMENT                   GET CALLING EXEC STATE
 0015FE 4100 0088            00088 13350  1                      LA    R0,L'PBSTATE
 001602 4110 6104            00104 13351  1                      LA    R1,PBSTATE
 001606 4120 7512            019D8 13352  1                      LA    R2,=CL16'SYS*EXEC_STATE  '
 00160A 5830 B844            00844 13353  1                      L     R3,CPVSET#
 00160E 58E0 759E/0DEE       01A64 13354  1                      VCALL GETVSTK
 001614 4780 7154            0161A 13358  1                      IF    NZ,BEGIN
 001618 0000                       13369  2                        BOMB
 00161A                            13371  1                      END
                                   13375  1
                                   13376  1                      COMMENT                   RESET SOME PCALL RETURN PARMS
 00161A 4110 6104            00104 13377  1                      LA    R1,PBSTATE
 00161E 58E0 75AA/0DEE       01A70 13378  1                      ACALL SETPRET
                                   13382  1
                                   13383  1                      COMMENT                   START RETURN EXEC
 001624 9640 BD5A      00D5A       13384  1                      SET   CPFERROR            WITH ERROR FLAGS SET
 001628 9680 BD5A      00D5A       13390  1                      SET   CPFABORT
 00162C 4110 6104            00104 13396  1                      LA    R1,PBSTATE
 001630 58E0 7586/0DEE       01A4C 13397  1                      ACALL START               DOES NOT RETURN  --->>>
 001636                            13401                       END
                                   13405                       ¿þþþþþþþþþþþþþþþþþþþÜ
                                   13406                       Ÿ  IF PRETURN ATTN  Ÿ
                                   13407                       ¾þþþþþþþþþþþþþþþþþþþ»
                                   13408                       COMMENT                   IF PRETURN ATTN
 001636 9140 6000/47E0_00000       13409                       IF    PBFATTN,BEGIN
                                   13424  1
                                   13425  1                      COMMENT                   SET ATTNID
 00163E 9680 BD5B      00D5B       13426  1                      SET   CPFIDSET            RETURNED ATTNID SET
 001642 4100 0008            00008 13432  1                      LA    R0,L'PBATTNID
 001646 4110 60FC            000FC 13433  1                      LA    R1,PBATTNID
1XCALL    (XCAL2025) (13:01) (15MAR04) RETURN from procedure call                                                           Page   48
0Current Usings:  (PBWA,R6) (*,R7) (PBWA-(4+36),R8) (CP,R11) (CV,R12)
0Loc    Object Code    Addr1 Addr2  Stmt Lv Lineno    Source Statement           (Hibal 5, Asmedit 3.3)  HLASM R4.0  2004/03/15 13.01
+___    ______ ____    _____ _____  ____ __ ______    ______ _________
000164A 4120 7532            019F8 13434  1                      LA    R2,=CL16'SYS.XRET_ATTNID '
 00164E 58E0 75BA/0DEE       01A80 13435  1                      VCALL SAVEDATA
                                   13439  1
                                   13440  1                      COMMENT                   GET CALLING EXEC STATE
 001654 4100 0088            00088 13441  1                      LA    R0,L'PBSTATE
 001658 4110 6104            00104 13442  1                      LA    R1,PBSTATE
 00165C 4120 7512            019D8 13443  1                      LA    R2,=CL16'SYS*EXEC_STATE  '
 001660 5830 B844            00844 13444  1                      L     R3,CPVSET#
 001664 58E0 759E/0DEE       01A64 13445  1                      VCALL GETVSTK
 00166A 4780 71AA            01670 13449  1                      IF    NZ,BEGIN
 00166E 0000                       13460  2                        BOMB
 001670                            13462  1                      END
                                   13466  1
                                   13467  1                      COMMENT                   RESET SOME PCALL RETURN PARMS
 001670 4110 6104            00104 13468  1                      LA    R1,PBSTATE
 001674 58E0 75AA/0DEE       01A70 13469  1                      ACALL SETPRET
                                   13473  1
                                   13474  1                      COMMENT                   START RETURN EXEC
 00167A 5820 C1C8            001C8 13475  1                      L     R2,CVCURJCB         WITH ATTN FLAG SET
 USING  JCB,R2                     13476  1                      USING JCB,R2
 00167E 9602 2062      00062       13485  1                      SET   JCBFATTN
 DROP   JCB,R2                     13491  1                      DROP  R2
 001682 4110 6104            00104 13498  1                      LA    R1,PBSTATE
 001686 58E0 7586/0DEE       01A4C 13499  1                      ACALL START               DOES NOT RETURN  --->>>
 00168C                            13503                       END
                                   13507
                                   13508                       COMMENT
 00168C 0000                       13509                       BOMB                      NEVER EXECUTED, WE EXIT ABOVE
 00168E 18D8/9808 D004_            13511                       PEND  ,              A HABIT,
 DROP   PBWA-(4+36),R8
 DROP   *,R7
-
-                                  13537                       ¿þþþþþþþþþþþþþþþþþþþþþþþþþþþþþþÜ
                                   13538                       Ÿ                              Ÿ
                                   13539                       Ÿ  PRETURN ERROR/ATTN OPTIONS  Ÿ
                                   13540                       Ÿ                              Ÿ
                                   13541                       ¾þþþþþþþþþþþþþþþþþþþþþþþþþþþþþþ»
 00169C C5D9D94040404040_          13542              PABRTPRT SCKW  ERR,PPPERROR
 0016C4 C5D9D9D6D9404040_          13557                       SCKW  ERROR,PPPERROR
 0016EC C5D9D9C9C4404040_          13572                       SCKW  ERRID,PPPERRID,P
 001714 C5D9D9D4E2C74040_          13587                       SCKW  ERRMSG,PPPERRMS,P
 00173C C1E3E3D540404040_          13602                       SCKW  ATTN,PPPATTN
 001764 C1E3E3C5D5E3C9D6_          13617                       SCKW  ATTENTION,PPPATTN
 00178C C1E3E3D5C9C44040_          13632                       SCKW  ATTNID,PPPATNID,P
 0017B4 4040404040404040_          13647                       SCKW  ,V(SCNINVAL)
-                                  13663              *
                                   13664              * ERROR
                                   13665              *
1XCALL    (XCAL2025) (13:01) (15MAR04) RETURN from procedure call                                                           Page   49
0Current Usings:  (PBWA,R6) (*,R7) (CP,R11) (CV,R12)
0Loc    Object Code    Addr1 Addr2  Stmt Lv Lineno    Source Statement           (Hibal 5, Asmedit 3.3)  HLASM R4.0  2004/03/15 13.01
+___    ______ ____    _____ _____  ____ __ ______    ______ _________
00017DC 50E0 D000/9008_      00000 13666              PPPERROR PROC  ,
 USING  *,R7
 0017F6 9680 6000      00000       13705                       SET   PBFERROR            SET PRETURN ERROR FLAG
 0017FA 9140 6000/47E0_00000       13711                       IF    PBFATTN,BEGIN       PRETURN ATTN ERROR .. NOT ALLOWED
 001802 58E0 728E/0DEE       01A84 13726  1                      VCALL NOTVALID
 001808                            13730                       END
 001808 1BFF                       13734                       CLEAR R15
 00180A 18D8/9808 D004_            13738                       PEND
 DROP   *,R7
                                   13758              *
                                   13759              * ERRID
                                   13760              *
 001818 50E0 D000/9008_      00000 13761              PPPERRID PROC  ,
 USING  *,R7
 001832 9680 6000      00000       13800                       SET   PBFERROR            SET PRETURN ERROR FLAG
 001836 9140 6000/47E0_00000       13806                       IF    PBFATTN,BEGIN       PRETURN ATTN ERROR .. NOT ALLOWED
 00183E 58E0 7252/0DEE       01A84 13821  1                      VCALL NOTVALID
 001844                            13825                       END
 001844 5810 B08C/4111_      0008C 13829                       SCUPTOK R1
 00184C 957D 1000/4780_00000       13833                       IF    ((@R1,EQ,''''),OR,(@R1,EQ,'"')),' VCALL NOTVALID '
 001862 D207 6004 1000 00004 00000 13873                       MVC   PBERRID,@R1
 001868 1F33/4330 6004             13874                       LC    R3,PBERRID
 00186E 5930 7256/4740_      01A88 13881                       IF    ((R3,LT,C'A'),OR,(R3,GT,C'Z')),' VCALL NOTVALID '
 001884 1BFF                       13923                       CLEAR R15
 001886 18D8/9808 D004_            13927                       PEND
 DROP   *,R7
                                   13947              *
                                   13948              * ERRMSG
                                   13949              *
 001894 50E0 D000/9008_      00000 13950              PPPERRMS PROC  ,
 USING  *,R7
 0018AE 9680 6000      00000       13989                       SET   PBFERROR            SET PRETURN ERROR FLAG
 0018B2 9140 6000/47E0_00000       13995                       IF    PBFATTN,BEGIN       PRETURN ATTN ERROR .. NOT ALLOWED
 0018BA 58E0 71D6/0DEE       01A84 14010  1                      VCALL NOTVALID
 0018C0                            14014                       END
 0018C0 58E0 71E2/0DEE       01A90 14018                       VCALL DEQUOTE             DEQUOTE ERRMSG STRING
 0018C6 47B0 7032            018E0 14022                       IF    NEG,BEGIN
 0018CA 41F0 B050/58E0_      00050 14033  1                      TSEG  (R1),(R0)
 0018D4 4110 733C/4100_      01BEA 14057  1                      ERROR ': invalid; quotes required.'
 0018E0                            14064                       END
 0018E0 5000 60F8            000F8 14068                       ST    R0,PBERRMLN
 0018E4 1830                       14069                       LR    R3,R0
 0018E6 0630/1233/4740_            14070                       MOVE  R3,PBERRMSG,@R1     SAVE ERROR MSG
 0018F2 1BFF                       14108                       CLEAR R15
 0018F4 18D8/9808 D004_            14112                       PEND  ,
 DROP   *,R7
-                                  14133              *
                                   14134              * ATTENTION
                                   14135              *
 001902 50E0 D000/9008_      00000 14136              PPPATTN  PROC  ,
 USING  *,R7
 00191C 9640 6000      00000       14175                       SET   PBFATTN             SET PRETURN ERROR FLAG
1XCALL    (XCAL2025) (13:01) (15MAR04) RETURN from procedure call                                                           Page   50
0Current Usings:  (PBWA,R6) (*,R7) (CP,R11) (CV,R12)
0Loc    Object Code    Addr1 Addr2  Stmt Lv Lineno    Source Statement           (Hibal 5, Asmedit 3.3)  HLASM R4.0  2004/03/15 13.01
+___    ______ ____    _____ _____  ____ __ ______    ______ _________
0001920 9180 6000/47E0_00000       14181                       IF    PBFERROR,BEGIN      PRETURN ATTN ERROR .. NOT ALLOWED
 001928 58E0 7168/0DEE       01A84 14196  1                      VCALL NOTVALID
 00192E                            14200                       END
 00192E 18D8/9808 D004_            14204                       PEND  ,
 DROP   *,R7
                                   14224              *
                                   14225              * ATTNID
                                   14226              *
 00193C 50E0 D000/9008_      00000 14227              PPPATNID PROC  ,
 USING  *,R7
 001956 9640 6000      00000       14266                       SET   PBFATTN             SET PRETURN ATTN FLAG
 00195A 9180 6000/47E0_00000       14272                       IF    PBFERROR,BEGIN      PRETURN ERROR ATTN .. NOT ALLOWED
 001962 58E0 712E/0DEE       01A84 14287  1                      VCALL NOTVALID
 001968                            14291                       END
 001968 5810 B08C/4111_      0008C 14295                       SCUPTOK R1
 001970 957D 1000/4780_00000       14299                       IF    ((@R1,EQ,''''),OR,(@R1,EQ,'"')),' VCALL NOTVALID '
 001986 D207 60FC 1000 000FC 00000 14339                       MVC   PBATTNID,@R1
 00198C 1F33/4330 60FC             14340                       LC    R3,PBATTNID
 001992 5930 7132/4740_      01A88 14347                       IF    ((R3,LT,C'A'),OR,(R3,GT,C'Z')),' VCALL NOTVALID '
 0019A8 18D8/9808 D004_            14389                       PEND  ,
 DROP   *,R7
 DROP   PBWA,R6                    14409                       DROP  R6
1XCALL    (XCAL2025) (13:01) (15MAR04) RETURN from procedure call                                                           Page   51
0Current Usings:  (CP,R11) (CV,R12)
0Loc    Object Code    Addr1 Addr2  Stmt Lv Lineno    Source Statement           (Hibal 5, Asmedit 3.3)  HLASM R4.0  2004/03/15 13.01
+___    ______ ____    _____ _____  ____ __ ______    ______ _________
0                                  14417                       QLTORG
1XCALL    (XCAL2025) (13:01) (15MAR04) SYSCALL Command                                                                      Page   52
0Current Usings:  (CP,R11) (CV,R12)
0Loc    Object Code    Addr1 Addr2  Stmt Lv Lineno    Source Statement           (Hibal 5, Asmedit 3.3)  HLASM R4.0  2004/03/15 13.01
+___    ______ ____    _____ _____  ____ __ ______    ______ _________
0                                  14484              ¿þþþþþþþþþþþþþþþþþþþþþþþþþþþþþþþþþþþþþþþþþþþþþþþþþþþþþþþþþþþþþþþþþþþþþÜ
                                   14485              Ÿ                                                                     Ÿ
                                   14486              Ÿ                                                                     Ÿ
                                   14487              Ÿ  SYSCALL - PROCEDURE CALL                                           Ÿ
                                   14488              Ÿ                                                                     Ÿ
                                   14489              Ÿ  ON ENTRY:                                                          Ÿ
                                   14490              Ÿ       SCANCB - REMAINDER OF SYSCALL COMMAND !                       Ÿ
                                   14491              Ÿ                                                                     Ÿ
                                   14492              Ÿ  WE DO THE FOLLOWING (MORE OR LESS) !                               Ÿ
                                   14493              Ÿ       - SCAN COMMAND                                                Ÿ
                                   14494              Ÿ       - GET ADDRESS OF SYSTEM PROCEDURE                             Ÿ
                                   14495              Ÿ       - GET THE PARAMETER STRING                                    Ÿ
                                   14496              Ÿ       - GET THE PARAMETER LIST                                      Ÿ
                                   14497              Ÿ       - GET THE PARAMETER VALUES                                    Ÿ
                                   14498              Ÿ       - CALL SYSTEM PROCEDURE                                       Ÿ
                                   14499              Ÿ       - PASS RETURN VALUES                                          Ÿ
                                   14500              Ÿ                                                                     Ÿ
                                   14501              Ÿ NOTE: CPPLIMIT=8                MAXIMUM NUMBER OF PARAMETERS        Ÿ
                                   14502              Ÿ                                                                     Ÿ
                                   14503              Ÿ                                                                     Ÿ
                                                      ¾þþþþþþþþþþþþþþþþþþþþþþþþþþþþþþþþþþþþþþþþþþþþþþþþþþþþþþþþþþþþþþþþþþþþþ»
0000000                00000 00214 14504              SCLWA    RECORD BEGIN
 000000 00                         14512  1           SCLFLAG    FLAG  ,
 SCLFLAG.SCLPARMS  01 EQ           14516  1                      FLAG  (SCLPARMS,1,EQ)     PARM LIST
 SCLFLAG.SCLFREE   02 EQ           14526  1                      FLAG  (SCLFREE,2,EQ)      FREE FORMAT PARM STRING
 000004                            14536  1                      DS    0F
 000004                            14537  1           SCLNAME    DS    CL(L'VNNAME)        PROCEDURE NAME
                                   14538  1           SCLRTNP    DEFRTNP ,                 SYSTEM PROCEDURE ROUTINE POINTER
 000014                            14539  1 01-DEFRT +SCLRTNP    DS    A
                                   14540  1           SCPARM     DS    XL(&LINESZ)         PARAMETER STRING
 000018                                   1          +SCPARM     DS    XL(235)             PARAMETER STRING
 000104                            14541  1           SCPARMLN   DS    F                   PARAMETER STRING LENGTH
 000108                            14542  1           SCPARMCT   DS    F                   PARM COUNT
 00010C                            14543  1           SCLPLIST   DS    XL(L'PLIST)         PARM LIST NAMES (FROM CALLER)
 00020C                            14544  1           SCLVLIST   DS    A                   VALUE LIST (ACTUAL PARM VALUES)
 000210                            14545  1           SCLRLIST   DS    A                   VALUE LIST (RETURNED FROM PROC)
                                   14546  1           * NOTE: BOTH SCLVLIST AND SCLRLIST ARE MANUALLY XPUSHED AND POPPED
                                   14547  1           * AS OTHERWISE THE WORK AREA IS LARGER THAN 4K BYTES AND XENTER
                                   14548  1           * MACRO FREAKS OUT.
 000214                00214 00214 14549                       END
                                   14558              *
                                   14559              *
 001C18 50E0 D000/9008_      00000 14560              SYSCALL  XPROC SCLWA
 USING  *,R7
 USING  SCLWA-(4+36),R8
                                   14611
                                   14612                       COMMENT                   XPUSH SCNVLIST,SCNRLIST
 001C32 181D/41D0 DA80             14613                       XPUSH ,,L'VLIST,PTR=R1
 001C38 5010 8234            0020C 14616                       ST    R1,SCLVLIST
 001C3C 182D/41D0 DA80             14617                       XPUSH ,,L'VLIST,PTR=R2
 001C42 5020 8238            00210 14620                       ST    R2,SCLRLIST
                                   14621
                                   14622                       COMMENT                   CLEAR WORK AREA
1XCALL    (XCAL2025) (13:01) (15MAR04) SYSCALL Command                                                                      Page   53
0Current Usings:  (*,R7) (SCLWA-(4+36),R8) (CP,R11) (CV,R12)
0Loc    Object Code    Addr1 Addr2  Stmt Lv Lineno    Source Statement           (Hibal 5, Asmedit 3.3)  HLASM R4.0  2004/03/15 13.01
+___    ______ ____    _____ _____  ____ __ ______    ______ _________
0001C46 4140 8050            00028 14623                       LA    R4,SCLWA+40            (EXCEPT FOR ENTRY REGS)
 001C4A 5850 7876            024A8 14624                       L     R5,=AL4(L'SCLWA-40+L'VLIST+L'VLIST)
 001C4E 1BFF                       14625                       CLEAR R15
 001C50 0E4E                       14629                       MVCL  R4,R14
 001C52 5010 8234            0020C 14630                       ST    R1,SCLVLIST         MUST RESTORE THESE CLEARED ADDRS
 001C56 5020 8238            00210 14631                       ST    R2,SCLRLIST
                                   14632
                                   14633                       COMMENT                   SCAN SYSCALL COMMAND
 001C5A 4120 802C            00004 14634                       LA    R2,SCLNAME
 001C5E 58E0 787A/0DEE       024AC 14635                       VCALL SCNPNAME            SCAN PROCEDURE NAME
 001C64 4770 C7D6            007D6 14639                       BNZ   CVERROR
 001C68 4100 803C            00014 14640                       LA    R0,SCLRTNP
 001C6C 4110 802C            00004 14641                       LA    R1,SCLNAME
 001C70 58E0 787E/0DEE       024B0 14642                       VCALL GETPROCP            GET SYSTEM PROC POINTER
 001C76 12FF/4780 7068             14646                       IF    (R15,NZ),BEGIN
 001C7C 4110 802C/4100_      00004 14660  1                      TSEG  SCLNAME,L'SCLNAME,T
 001C8E 4110 797A/4100_      025AC 14690  1                      ERROR ': undefined system procedure name.'
 001C9A                            14697                       END
                                   14701
                                   14702                       COMMENT                   SCAN SYSCALL PARM LIST
 001C9A 58E0 7886/0DEE       024B8 14703                       ACALL SCNPCALL
 001CA0 1222/4770 7078             14707                       IF    (R2,Z),BEGIN
 001CA6 9201 8028      00000       14721  1                      SET   SCLPARMS            PARM-LIST SCANNED
 001CAA                            14727                       END
 001CAA 707C/47F0 7092 01CAA 01CA4 14731                       ELSE  BEGIN
 001CAE 9202 8028      00000       14742  1                      SET   SCLFREE             FREE-FORMAT PARM STRING SCANNED
 001CB2 D203 8130 788A 00108 024BC 14748  1                      MVC   SCPARMCT,=F'-1'     SET -1 PARM COUNT, FOR FREE FORMAT
 001CB8 4110 79D2/4100_      02604 14749  1                      ERROR 'Free Format parameter string invalid for SYSCALL.'
 001CC4                            14756                       END
 001CC4 5000 812C            00104 14760                       ST    R0,SCPARMLN
 001CC8 5830 812C            00104 14761                       L     R3,SCPARMLN         SAVE INPUT PARM LIST/STRING
 001CCC 0630/1233/4740_            14762                       MOVE  R3,SCPARM,@R1
                                   14800
                                   14801                       COMMENT                   SCAN PARM LIST
 001CD8 9501 8028/4770_00000       14802                       IF    SCLPARMS,BEGIN
 001CE0 5800 812C            00104 14817  1                      L     R0,SCPARMLN
 001CE4 4110 8040            00018 14818  1                      LA    R1,SCPARM
 001CE8 4120 8134            0010C 14819  1                      LA    R2,SCLPLIST
 001CEC 58E0 788E/0DEE       024C0 14820  1                      ACALL SCNPLIST
 001CF2 5000 8130            00108 14824  1                      ST    R0,SCPARMCT
 001CF6                            14825                       END
                                   14829
                                   14830                       COMMENT                   SCAN PARM VALUES
 001CF6 9501 8028/4770_00000       14831                       IF    SCLPARMS,BEGIN
 001CFE 5800 812C            00104 14846  1                      L     R0,SCPARMLN
 001D02 4110 8040            00018 14847  1                      LA    R1,SCPARM
 001D06 5820 8234            0020C 14848  1                      L     R2,SCLVLIST
 001D0A 58E0 7892/0DEE       024C4 14849  1                      ACALL SCNVLIST
 001D10                            14853                       END
                                   14857
                                   14858                       COMMENT                   CALL SYSTEM PROCEDURE
 001D10 5800 8130            00108 14859                       L     R0,SCPARMCT         R0 - PARM COUNT
 001D14 5810 8234            0020C 14860                       L     R1,SCLVLIST         R1 - PARM VALUES
 001D18 5860 8238            00210 14861                       L     R6,SCLRLIST         R6 - RETURN AREA, CONTAINS PROC
1XCALL    (XCAL2025) (13:01) (15MAR04) SYSCALL Command                                                                      Page   54
0Current Usings:  (*,R7) (SCLWA-(4+36),R8) (CP,R11) (CV,R12)
0Loc    Object Code    Addr1 Addr2  Stmt Lv Lineno    Source Statement           (Hibal 5, Asmedit 3.3)  HLASM R4.0  2004/03/15 13.01
+___    ______ ____    _____ _____  ____ __ ______    ______ _________
0001D1C D20F 6000 802C 00000 00004 14862                       MVC   0(L'SCLNAME,R6),SCLNAME         NAME ON ENTRY
 001D22 41E0 803C            00014 14863                       LA    R14,SCLRTNP         R14 - SYSTEM PROCEDURE ADDR
 001D26 58E0 E000/0DEE       00000 14864                       CALLRTNP @R14             VCALL PROCEDURE
 001D2C 4770 C7D6            007D6 14868                       BNZ   CVERROR
                                   14869
                                   14870                       COMMENT                   RETURN PROCEDURE VARIABLES
 001D30 5800 8130            00108 14871                       L     R0,SCPARMCT         R0 - PARM COUNT
 001D34 5810 8238            00210 14872                       L     R1,SCLRLIST         R1 - PARM VALUES
 001D38 4120 8134            0010C 14873                       LA    R2,SCLPLIST         R2 - PARM NAMES
 001D3C 58E0 7896/0DEE       024C8 14874                       ACALL RETSYSP             RETURN VALUES
                                   14878
                                   14879                       COMMENT                   EXIT VIA CVNEXT !
 001D42 47F0 C7DE            007DE 14880                       B     CVNEXT
                                   14881
 001D46 4BD0 799C            025CE 14882                       XPOP  ,,L'VLIST
 001D4A 4BD0 799C            025CE 14884                       XPOP  ,,L'VLIST
 001D4E 1BFF                       14886                       CLEAR R15
 001D50 18D8/9808 D004_            14890                       PEND  ,          NEVER EXECUTED, WE EXIT ABOVE
 DROP   SCLWA-(4+36),R8
 DROP   *,R7
1XCALL    (XCAL2025) (13:01) (15MAR04) XLOAD Command                                                                        Page   55
0Current Usings:  (CP,R11) (CV,R12)
0Loc    Object Code    Addr1 Addr2  Stmt Lv Lineno    Source Statement           (Hibal 5, Asmedit 3.3)  HLASM R4.0  2004/03/15 13.01
+___    ______ ____    _____ _____  ____ __ ______    ______ _________
0                                  14916              ¿þþþþþþþþþþþþþþþþþþþþþþþþþþþþþþþþþþþþþþþþþþþþþþþþþþþþþþþþþþþþþþþþþþþþþÜ
                                   14917              Ÿ                                                                     Ÿ
                                   14918              Ÿ                                                                     Ÿ
                                   14919              Ÿ  XLOAD - LOAD EXEC FILE                                             Ÿ
                                   14920              Ÿ                                                                     Ÿ
                                   14921              Ÿ  ON ENTRY:                                                          Ÿ
                                   14922              Ÿ       SCAN CONTROL BLOCK - REMAINDER OF XLOAD COMMAND               Ÿ
                                   14923              Ÿ                                                                     Ÿ
                                   14924              Ÿ  ON EXIT:                                                           Ÿ
                                   14925              Ÿ       EXEC FILE LOADED,                                             Ÿ
                                   14926              Ÿ       EXITS VIA CVNEXT, OR CVERROR                                  Ÿ
                                   14927              Ÿ                                                                     Ÿ
                                   14928              Ÿ                                                                     Ÿ
                                                      ¾þþþþþþþþþþþþþþþþþþþþþþþþþþþþþþþþþþþþþþþþþþþþþþþþþþþþþþþþþþþþþþþþþþþþþ»
0000000                00000 00040 14929              XLDWA    RECORD BEGIN
 000000                            14937  1           XLDXDSN    DS    XL(L'XDSNAME)
 000040                00040 00040 14938                       END
                                   14947              *
                                   14948              *
 001D5E 50E0 D000/9008_      00000 14949              XLOAD    XPROC XLDWA
 USING  *,R7
 USING  XLDWA-(4+36),R8
                                   15000
                                   15001                       COMMENT                   SCAN FOR DATA SET NAME OR 'ACTIVE'
 001D78 4100 0001            00001 15002                       LA    R0,1                 'FROM' KEYWORD NOT REQUIRED
 001D7C 58E0 7754/0DEE       024CC 15003                       ACALL SCNDSN
                                   15007
                                   15008                       COMMENT                   IF ACTIVE, LOAD ACTIVE FILE
 001D82 12FF/4770 701C             15009                       IF    (R15,Z),BEGIN
 001D88 58E0 7758/0DEE       024D0 15023  1                      VCALL NOOPTS              NO OPTIONS ALLOWED FOR XA
 001D8E 58E0 775C/0DEE       024D4 15027  1                      ACALL LOADACT
 001D94                            15031                       END
                                   15035
                                   15036                       COMMENT                   IF DSN SPECIFIED, LOAD DSN
 001D94 7020/47F0 702C_01D94 01D86 15037                       ELSEIF (R15,NZ),BEGIN
 001D9E 58E0 7760/0DEE       024D8 15060  1                      ACALL LOADDSN
 001DA4                            15064                       END
                                   15068
 001DA4 47F0 C7DE            007DE 15069                       B     CVNEXT              BYE GUYS !
 001DA8 18D8/9808 D004_            15070                       PEND  ,
 DROP   XLDWA-(4+36),R8
 DROP   *,R7
1XCALL    (XCAL2025) (13:01) (15MAR04) PUBLOAD Command                                                                      Page   56
0Current Usings:  (CP,R11) (CV,R12)
0Loc    Object Code    Addr1 Addr2  Stmt Lv Lineno    Source Statement           (Hibal 5, Asmedit 3.3)  HLASM R4.0  2004/03/15 13.01
+___    ______ ____    _____ _____  ____ __ ______    ______ _________
0                                  15096              ¿þþþþþþþþþþþþþþþþþþþþþþþþþþþþþþþþþþþþþþþþþþþþþþþþþþþþþþþþþþþþþþþþþþþþþÜ
                                   15097              Ÿ                                                                     Ÿ
                                   15098              Ÿ                                                                     Ÿ
                                   15099              Ÿ  PUBLOAD - LOAD PUBLIC EXEC FILE                                    Ÿ
                                   15100              Ÿ                                                                     Ÿ
                                   15101              Ÿ  ON ENTRY:                                                          Ÿ
                                   15102              Ÿ       SCAN CONTROL BLOCK - REMAINDER OF PUBLOAD COMMAND             Ÿ
                                   15103              Ÿ                                                                     Ÿ
                                   15104              Ÿ  ON EXIT:                                                           Ÿ
                                   15105              Ÿ       EXEC FILE LOADED,                                             Ÿ
                                   15106              Ÿ       EXITS VIA CVNEXT, OR CVERROR                                  Ÿ
                                   15107              Ÿ                                                                     Ÿ
                                   15108              Ÿ                                                                     Ÿ
                                                      ¾þþþþþþþþþþþþþþþþþþþþþþþþþþþþþþþþþþþþþþþþþþþþþþþþþþþþþþþþþþþþþþþþþþþþþ»
0000000                00000 00040 15109              PLDWA    RECORD BEGIN
 000000                            15117  1           PLDXDSN    DS    XL(L'XDSNAME)
 000040                00040 00040 15118                       END
                                   15127              *
                                   15128              *
 001DB6 50E0 D000/9008_      00000 15129              PUBLOAD  XPROC PLDWA
 USING  *,R7
 USING  PLDWA-(4+36),R8
                                   15180              *
                                   15181              *  The theory was to allow a System priv'd account to PUBLOAD
                                   15182              *  new files, and to allow any account to PUBLOAD an existing file
                                   15183              *  (to update it).
                                   15184              *
                                   15185              *  Right now, we don't bother and will let anyone do a pubload.
                                   15186              *
                                   15187              *****    COMMENT                   FOR PRIVILEGED ACCOUNTS ONLY
                                   15188              *****    IF    ~CPSFSPR,BEGIN
                                   15189              *****    VCALL NOTVALID
                                   15190              *****    END
                                   15191              *
                                   15192                       COMMENT                   SCAN FOR DATA SET NAME OR 'ACTIVE'
 001DD0 4100 0001            00001 15193                       LA    R0,1                 'FROM' KEYWORD NOT REQUIRED
 001DD4 58E0 76FC/0DEE       024CC 15194                       ACALL SCNDSN
                                   15198
                                   15199                       COMMENT                   IF ACTIVE, OH NO !
 001DDA 12FF/4770 701C             15200                       IF    (R15,Z),BEGIN
 001DE0 4110 7865/4100_      02635 15214  1                      ERROR 'ACTIVE file cannot be loaded into PUBLIC EXEC file.'
 001DEC                            15221                       END
                                   15225
                                   15226                       COMMENT                   IF DSN SPECIFIED, LOAD DSN
 001DEC 7020/47F0 702C_01DEC 01DDE 15227                       ELSEIF (R15,NZ),BEGIN
 001DF6 58E0 770C/0DEE       024DC 15250  1                      ACALL LOADPUB
 001DFC                            15254                       END
                                   15258
 001DFC 47F0 C7DE            007DE 15259                       B     CVNEXT              BYE GUYS !
                                   15260
 001E00 18D8/9808 D004_            15261                       PEND  ,
 DROP   PLDWA-(4+36),R8
 DROP   *,R7
1XCALL    (XCAL2025) (13:01) (15MAR04) EXEC LOAD Routines                                                                   Page   57
0Current Usings:  (CP,R11) (CV,R12)
0Loc    Object Code    Addr1 Addr2  Stmt Lv Lineno    Source Statement           (Hibal 5, Asmedit 3.3)  HLASM R4.0  2004/03/15 13.01
+___    ______ ____    _____ _____  ____ __ ______    ______ _________
0                                  15287              ¿þþþþþþþþþþþþþþþþþþþþþþþþþþþþþþþþþþþþþþþþþþþþþþþþþþþþþþþþþþþþþþþþþþþþþÜ
                                   15288              Ÿ                                                                     Ÿ
                                   15289              Ÿ                                                                     Ÿ
                                   15290              Ÿ  LOADDSN - LOAD EXEC FILE FROM EXTERNAL DATA SET.                   Ÿ
                                   15291              Ÿ                                                                     Ÿ
                                   15292              Ÿ                                                                     Ÿ
                                   15293              Ÿ  ON ENTRY:                                                          Ÿ
                                   15294              Ÿ      FFINFO DSECT DESCRIBES FILE TO LOAD                            Ÿ
                                   15295              Ÿ                                                                     Ÿ
                                   15296              Ÿ  ON EXIT:                                                           Ÿ
                                   15297              Ÿ      R15 - CC=ZERO                                                  Ÿ
                                   15298              Ÿ            ERRORS WILL EXIT VIA CVERROR.                            Ÿ
                                   15299              Ÿ                                                                     Ÿ
                                   15300              Ÿ                                                                     Ÿ
                                                      ¾þþþþþþþþþþþþþþþþþþþþþþþþþþþþþþþþþþþþþþþþþþþþþþþþþþþþþþþþþþþþþþþþþþþþþ»
0000000                00000 00060 15301              LOADWA   RECORD BEGIN
 000000                            15309  1           LOADXF     DS    XL(L'XFENTRY)       EXEC INFO ENTRY
 000060                00060 00060 15310                       END
                                   15319              *
                                   15320              *
 001E0E 50E0 D000/9008_      00000 15321              LOADDSN  PROC  LOADWA
 USING  *,R7
 USING  LOADWA-(4+36),R8
 USING  XFENTRY,R6                 15371                       USING XFENTRY,R6
 USING  XDSNAME,R5                 15380                       USING XDSNAME,R5
 001E28 4160 8028            00000 15389                       LA    R6,LOADXF
 001E2C 4150 6000            00000 15390                       LA    R5,XFNAME
                                   15391
                                   15392                       COMMENT                   INIT WORK AREA
 001E30 4110 5000            00000 15393                       LA    R1,XDSNAME
 001E34 58E0 76B8/0DEE       024E0 15394                       ACALL SETXNAME
                                   15398
                                   15399                       COMMENT                   IF IN OLD EXEC, OR NO EXEC
                                   15400                       COMMENT                   THEN NO EXTENDED EXEC ARE ACTIVE
 001E3A 9502 B759/4780_00759       15401                       IF    (CPFXOLD,OR,(CP#XSET,EQ,=A(CP#XOLD))),BEGIN
 001E4C 58E0 76C0/0DEE       024E8 15432  1                      ACALL CLRALIST            SO CLEAR ACTIVE EXECS LIST
 001E52                            15436                       END
                                   15440
                                   15441                       COMMENT                   IF ALREADY LOADED, DELETE EXEC
 001E52 1B00                       15442                       CLEAR R0
 001E54 4110 6000            00000 15446                       LA    R1,XFNAME
 001E58 4120 6000            00000 15447                       LA    R2,XFENTRY
 001E5C 58E0 76C4/0DEE       024EC 15448                       ACALL GETUINFO
 001E62 4770 706A            01E92 15452                       IF    Z,BEGIN             IF LOADED,
 001E66 5800 6044            00044 15463  1                      L     R0,XF#SETNO
 001E6A 5810 6048            00048 15464  1                      L     R1,XFRGEXEC
 001E6E 58E0 76C8/0DEE       024F0 15465  1                      ACALL CHKALIST
 001E74 4770 705C            01E84 15469  1                      IF    Z,BEGIN             IF ACTIVE, WE CANNOT RELOAD
 001E78 4110 7840/4100_      02668 15480  2                        ERROR 'File is currently active, unable to load.'
 001E84                            15487  1                      END
 001E84 5800 6044            00044 15491  1                      L     R0,XF#SETNO
 001E88 5810 6048            00048 15492  1                      L     R1,XFRGEXEC
 001E8C 58E0 76CC/0DEE       024F4 15493  1                      ACALL DELUEXEC            DELETE (USER) EXEC
1XCALL    (XCAL2025) (13:01) (15MAR04) EXEC LOAD Routines                                                                   Page   58
0Current Usings:  (XDSNAME,R5) (XFENTRY,R6) (*,R7) (LOADWA-(4+36),R8) (CP,R11) (CV,R12)
0Loc    Object Code    Addr1 Addr2  Stmt Lv Lineno    Source Statement           (Hibal 5, Asmedit 3.3)  HLASM R4.0  2004/03/15 13.01
+___    ______ ____    _____ _____  ____ __ ______    ______ _________
0001E92                            15497                       END
                                   15501
                                   15502                       COMMENT                   OPEN EXTERNAL FILE
 001E92 58E0 76D0/0DEE       024F8 15503                       VCALL EXTOPEN
 001E98 12FF/4770 C7DE             15507                       IF    (R15,NZ),CVNEXT
                                   15524
                                   15525                       COMMENT                   IF OPENED OK,
                                   15526                       COMMENT
 001E9E 58E0 76D4/0DEE       024FC 15527                       ACALL GETSETNO            GET FREE EXEC SET NUMBER
 001EA4 9202 6040      00040       15531                       SET   XFUSERX             SET UP EXEC INFO ENTRY
 001EA8 5000 6044            00044 15537                       ST    R0,XF#SETNO
 001EAC 4130 B4A4            004A4 15538                       LA    R3,CPEXEC
 001EB0 5030 6048            00048 15539                       ST    R3,XFRGEXEC
 001EB4 4130 B4C4            004C4 15540                       LA    R3,CPFLOW
 001EB8 5030 604C            0004C 15541                       ST    R3,XFRGFLOW
 001EBC 58E0 76D8/0DEE       02500 15542                       VCALL LOCALTOD            Save load time/date
 001EC2 9001 6050            00050 15546                       STM   R0,R1,XFLDTIME
                                   15547
                                   15548                       COMMENT                   MARK EXEC ACTIVE
 001EC6 5800 6044            00044 15549                       L     R0,XF#SETNO
 001ECA 5810 6048            00048 15550                       L     R1,XFRGEXEC
 001ECE 58E0 76DC/0DEE       02504 15551                       ACALL MRKALIST
 001ED4 4780 70BC            01EE4 15555                       IF    NZ,BEGIN
 001ED8 4110 7869/4100_      02691 15566  1                      ERROR 'Too many (>64) EXEC files active.'
 001EE4                            15573                       END
                                   15577
                                   15578                       COMMENT                   SET LOAD EXEC/FLOW FILES
 001EE4 D203 B784 6044 00784 00044 15579                       MVC   CP#XLOAD,XF#SETNO       SET #
 001EEA D203 B788 6048 00788 00048 15580                       MVC   CPRGLOAD,XFRGEXEC       EXEC RECORD GROUP
 001EF0 D203 B78C 604C 0078C 0004C 15581                       MVC   CPRGFC,XFRGFLOW         FLOW RECORD GROUP
                                   15582
                                   15583                       COMMENT                   LOAD EXEC FILE
 001EF6 58E0 76E0/0DEE       02508 15584                       ACALL LDDSN
                                   15588
                                   15589                       COMMENT                   CLOSE EXTERNAL FILE
 001EFC 58E0 76E4/0DEE       0250C 15590                       VCALL EXTCLOSE
                                   15594
                                   15595                       COMMENT                   SET EXEC INFOMATION
 001F02 4120 6000            00000 15596                       LA    R2,XFENTRY
 001F06 58E0 76E8/0DEE       02510 15597                       ACALL SETXINFO
                                   15601
                                   15602                       COMMENT                   DO FLOW PROCESSING
 001F0C 58E0 76EC/0DEE       02514 15603                       VCALL FLOWCTRL
                                   15607
                                   15608                       COMMENT                   MARK SET NUMBER (LRU SCHEME)
 001F12 5800 6044            00044 15609                       L     R0,XF#SETNO
 001F16 58E0 76F0/0DEE       02518 15610                       ACALL XLISTMRK
                                   15614              *$       ACALL LLISTMRK            COULD EFFECT CALL COUNT !!
                                   15615              *$                                 IF IN EXEC BREAK WE CAN IGNORE
                                   15616              *
                                   15617                       COMMENT                   CLEAR LOAD POINTERS
 001F1C D703 B784 B784 00784 00784 15618                       CLEAR CP#XLOAD
 001F22 D703 B788 B788 00788 00788 15625                       CLEAR CPRGLOAD
 001F28 D703 B78C B78C 0078C 0078C 15632                       CLEAR CPRGFC
1XCALL    (XCAL2025) (13:01) (15MAR04) EXEC LOAD Routines                                                                   Page   59
0Current Usings:  (XDSNAME,R5) (XFENTRY,R6) (*,R7) (LOADWA-(4+36),R8) (CP,R11) (CV,R12)
0Loc    Object Code    Addr1 Addr2  Stmt Lv Lineno    Source Statement           (Hibal 5, Asmedit 3.3)  HLASM R4.0  2004/03/15 13.01
+___    ______ ____    _____ _____  ____ __ ______    ______ _________
0                                  15639
 001F2E 1BFF                       15640                       CLEAR R15
 001F30 18D8/9808 D004_            15644                       PEND  ,
 DROP   LOADWA-(4+36),R8
 DROP   *,R7
 DROP   XFENTRY,R6                 15669                       DROP  R6
 DROP   XDSNAME,R5                 15676                       DROP  R5
1XCALL    (XCAL2025) (13:01) (15MAR04) EXEC LOAD Routines                                                                   Page   60
0Current Usings:  (CP,R11) (CV,R12)
0Loc    Object Code    Addr1 Addr2  Stmt Lv Lineno    Source Statement           (Hibal 5, Asmedit 3.3)  HLASM R4.0  2004/03/15 13.01
+___    ______ ____    _____ _____  ____ __ ______    ______ _________
0                                  15684              ¿þþþþþþþþþþþþþþþþþþþþþþþþþþþþþþþþþþþþþþþþþþþþþþþþþþþþþþþþþþþþþþþþþþþþþÜ
                                   15685              Ÿ                                                                     Ÿ
                                   15686              Ÿ                                                                     Ÿ
                                   15687              Ÿ  LOADPUB - LOAD PUBLIC EXEC FILE FROM EXTERNAL DATA SET.            Ÿ
                                   15688              Ÿ                                                                     Ÿ
                                   15689              Ÿ                                                                     Ÿ
                                   15690              Ÿ  ON ENTRY:                                                          Ÿ
                                   15691              Ÿ      FFINFO DSECT DESCRIBES FILE TO LOAD                            Ÿ
                                   15692              Ÿ                                                                     Ÿ
                                   15693              Ÿ  ON EXIT:                                                           Ÿ
                                   15694              Ÿ      R15 - CC=ZERO                                                  Ÿ
                                   15695              Ÿ            ERRORS WILL EXIT VIA CVERROR.                            Ÿ
                                   15696              Ÿ                                                                     Ÿ
                                   15697              Ÿ  EXPLANATION: EXISTING PUBLIC EXECS MAY NOT BE DELETED!             Ÿ
                                   15698              Ÿ  THIS IS BECAUSE THERE IS NO WAY TO TELL IF THEY ARE IN USE.        Ÿ
                                   15699              Ÿ  TO RELOAD AN EXISTING PUBLIC EXEC WE MARK THE OLD ONE              Ÿ
                                   15700              Ÿ  TO USE A NEW NAME.  THEN UPDATE THE EXEC INFO TO POINT             Ÿ
                                   15701              Ÿ  AT THE NEW RELOADED COPY.  COMPREHEND IT.                          Ÿ
                                   15702              Ÿ                                                                     Ÿ
                                   15703              Ÿ                                                                     Ÿ
                                                      ¾þþþþþþþþþþþþþþþþþþþþþþþþþþþþþþþþþþþþþþþþþþþþþþþþþþþþþþþþþþþþþþþþþþþþþ»
0000000                00000 000C0 15704              LDPWA    RECORD BEGIN
 000000                            15712  1           LDPXFOLD   DS    XL(L'XFENTRY)       INFO FOR PREVIOUS COPY IF ANY
 000060                            15713  1           LDPXFNEW   DS    XL(L'XFENTRY)       INFO FOR CURRENT COPY OF EXEC
 0000C0                000C0 000C0 15714                       END
                                   15723              *
                                   15724              *
 001F3E 50E0 D000/9008_      00000 15725              LOADPUB  PROC  LDPWA
 USING  *,R7
 USING  LDPWA-(4+36),R8
 USING  XFENTRY,R6                 15775                       USING XFENTRY,R6
 USING  XDSNAME,R5                 15784                       USING XDSNAME,R5
 001F58 4160 8088            00060 15793                       LA    R6,LDPXFNEW
 001F5C 4150 6000            00000 15794                       LA    R5,XFNAME
                                   15795
                                   15796                       COMMENT                   PUT NAME IN EXEC INFO ENTRY
 001F60 D75F 6000 6000 00000 00000 15797                       CLEAR XFENTRY
 001F66 4110 5000            00000 15804                       LA    R1,XDSNAME
 001F6A 58E0 7588/0DEE       024E0 15805                       ACALL SETXNAME
                                   15809
                                   15810                       COMMENT                   OPEN EXTERNAL FILE
 001F70 58E0 75A0/0DEE       024F8 15811                       VCALL EXTOPEN
 001F76 12FF/4770 C7DE             15815                       IF    (R15,NZ),CVNEXT
                                   15832
                                   15833                       COMMENT                   IF OPENED OK,
                                   15834                       COMMENT
 001F7C 5800 C3A0            003A0 15835                       L     R0,CV#XFREE         GET FREE EXEC SET NUMBER
 001F80 5A00 75C4            0251C 15836                       A     R0,=F'1'
 001F84 5900 75C8/47B0_      02520 15837                       IF    (R0,LT,CV#FEXEC),BEGIN
 001F8C 4100 0800            00800 15854  1                      LA    R0,CV#FEXEC
 001F90                            15855                       END
 001F90 5000 C3A0            003A0 15859                       ST    R0,CV#XFREE
 001F94 9201 6040      00040       15860                       SET   XFPUBLIC            SET UP EXEC INFO ENTRY
1XCALL    (XCAL2025) (13:01) (15MAR04) EXEC LOAD Routines                                                                   Page   61
0Current Usings:  (XDSNAME,R5) (XFENTRY,R6) (*,R7) (LDPWA-(4+36),R8) (CP,R11) (CV,R12)
0Loc    Object Code    Addr1 Addr2  Stmt Lv Lineno    Source Statement           (Hibal 5, Asmedit 3.3)  HLASM R4.0  2004/03/15 13.01
+___    ______ ____    _____ _____  ____ __ ______    ______ _________
0001F98 5000 6044            00044 15866                       ST    R0,XF#SETNO
 001F9C 4130 C300            00300 15867                       LA    R3,CVEXEC
 001FA0 5030 6048            00048 15868                       ST    R3,XFRGEXEC
 001FA4 4130 C320            00320 15869                       LA    R3,CVFLOW
 001FA8 5030 604C            0004C 15870                       ST    R3,XFRGFLOW
 001FAC 58E0 75A8/0DEE       02500 15871                       VCALL LOCALTOD            Save load time/date
 001FB2 9001 6050            00050 15875                       STM   R0,R1,XFLDTIME
                                   15876
                                   15877                       COMMENT                   SET LOAD EXEC/FLOW FILES
 001FB6 D203 B784 6044 00784 00044 15878                       MVC   CP#XLOAD,XF#SETNO       SET #
 001FBC D203 B788 6048 00788 00048 15879                       MVC   CPRGLOAD,XFRGEXEC       EXEC RECORD GROUP
 001FC2 D203 B78C 604C 0078C 0004C 15880                       MVC   CPRGFC,XFRGFLOW         FLOW RECORD GROUP
                                   15881
                                   15882                       COMMENT                   LOAD EXEC FILE
 001FC8 58E0 75B0/0DEE       02508 15883                       ACALL LDDSN
                                   15887
                                   15888                       COMMENT                   CLOSE EXTERNAL FILE
 001FCE 58E0 75B4/0DEE       0250C 15889                       VCALL EXTCLOSE
                                   15893
                                   15894                       COMMENT                   SET EXEC INFOMATION
 001FD4 4120 6000            00000 15895                       LA    R2,XFENTRY
 001FD8 58E0 75CC/0DEE       02524 15896                       ACALL MRKNAME             (USE TEMP NAME FOR LOAD)
 001FDE 4120 6000            00000 15900                       LA    R2,XFENTRY
 001FE2 58E0 75B8/0DEE       02510 15901                       ACALL SETXINFO
                                   15905
                                   15906                       COMMENT                   DO FLOW PROCESSING
 001FE8 58E0 75BC/0DEE       02514 15907                       VCALL FLOWCTRL
                                   15911
                                   15912                       COMMENT                   UNSET TEMP LOAD NAME
 001FEE 4120 6000            00000 15913                       LA    R2,XFENTRY
 001FF2 58E0 75D0/0DEE       02528 15914                       ACALL RSETNAME
                                   15918
                                   15919                       COMMENT                   SET EXEC INFOMATION
 001FF8 D25F 8028 8088 00000 00060 15920                       MVC   LDPXFOLD,LDPXFNEW   CHECK IF RELOAD OF PUB EXEC
 001FFE 1B00                       15921                       CLEAR R0
 002000 4110 8028            00000 15925                       LA    R1,LDPXFOLD
 002004 4120 8028            00000 15926                       LA    R2,LDPXFOLD
 002008 58E0 75D4/0DEE       0252C 15927                       ACALL GETPINFO            GET PREVIOUS EXEC INFO, IF ANY
 00200E 4770 70C8            02020 15931                       IF    Z,BEGIN
 002012 4110 8028            00000 15942  1                      LA    R1,LDPXFOLD
 002016 4120 8088            00060 15943  1                      LA    R2,LDPXFNEW
 00201A 58E0 75D8/0DEE       02530 15944  1                      ACALL UPDTINFO            IF RELOAD, MARK/UPDATE INFO
 002020                            15948                       END
 002020 70CC/47F0 70D6 02020 02010 15952                       ELSE  BEGIN               IF NOT RELOAD, JUST SET INFO
 002024 4120 6000            00000 15963  1                      LA    R2,XFENTRY
 002028 58E0 75B8/0DEE       02510 15964  1                      ACALL SETXINFO
 00202E                            15968                       END
                                   15972
                                   15973                       COMMENT                   CLEAR LOAD POINTERS
 00202E D703 B784 B784 00784 00784 15974                       CLEAR CP#XLOAD
 002034 D703 B788 B788 00788 00788 15981                       CLEAR CPRGLOAD
 00203A D703 B78C B78C 0078C 0078C 15988                       CLEAR CPRGFC
                                   15995
 002040 1BFF                       15996                       CLEAR R15
1XCALL    (XCAL2025) (13:01) (15MAR04) EXEC LOAD Routines                                                                   Page   62
0Current Usings:  (XDSNAME,R5) (XFENTRY,R6) (CP,R11) (CV,R12)
0Loc    Object Code    Addr1 Addr2  Stmt Lv Lineno    Source Statement           (Hibal 5, Asmedit 3.3)  HLASM R4.0  2004/03/15 13.01
+___    ______ ____    _____ _____  ____ __ ______    ______ _________
0002042 18D8/9808 D004_            16000                       PEND  ,
 DROP   LDPWA-(4+36),R8
 DROP   *,R7
 DROP   XFENTRY,R6                 16025                       DROP  R6
 DROP   XDSNAME,R5                 16032                       DROP  R5
1XCALL    (XCAL2025) (13:01) (15MAR04) EXEC LOAD Routines                                                                   Page   63
0Current Usings:  (CP,R11) (CV,R12)
0Loc    Object Code    Addr1 Addr2  Stmt Lv Lineno    Source Statement           (Hibal 5, Asmedit 3.3)  HLASM R4.0  2004/03/15 13.01
+___    ______ ____    _____ _____  ____ __ ______    ______ _________
0                                  16040              ¿þþþþþþþþþþþþþþþþþþþþþþþþþþþþþþþþþþþþþþþþþþþþþþþþþþþþþþþþþþþþþþþþþþþþþÜ
                                   16041              Ÿ                                                                     Ÿ
                                   16042              Ÿ                                                                     Ÿ
                                   16043              Ÿ  LOADACT - LOAD EXEC FILE FROM ACTIVE FILE.                         Ÿ
                                   16044              Ÿ                                                                     Ÿ
                                   16045              Ÿ                                                                     Ÿ
                                   16046              Ÿ  ON ENTRY:                                                          Ÿ
                                   16047              Ÿ       NO INPUT PARMS                                                Ÿ
                                   16048              Ÿ                                                                     Ÿ
                                   16049              Ÿ  ON EXIT:                                                           Ÿ
                                   16050              Ÿ      R15 - CC=ZERO                                                  Ÿ
                                   16051              Ÿ            ERRORS WILL EXIT VIA CVERROR.                            Ÿ
                                   16052              Ÿ                                                                     Ÿ
                                   16053              Ÿ                                                                     Ÿ
                                                      ¾þþþþþþþþþþþþþþþþþþþþþþþþþþþþþþþþþþþþþþþþþþþþþþþþþþþþþþþþþþþþþþþþþþþþþ»
0002050 50E0 D000/9008_      00000 16054              LOADACT  PROC  ,
 USING  *,R7
                                   16093
                                   16094                       COMMENT                   CHECK FOR NULL ACTIVE FILE
 00206A 58E0 74CA/0DEE       02534 16095                       VCALL ACTCHK
                                   16099
                                   16100                       COMMENT                   DELETE ACTIVE EXEC/FLOW LINES
 002070 41F0 B4A4            004A4 16101                       LA    R15,CPEXEC
 002074 4100 0003            00003 16102                       LA    R0,CP#XACT
 002078 4110 B4A4            004A4 16103                       LA    R1,CPEXEC
 00207C 58E0 74CE/0DEE       02538 16104                       VCALL XDELSET
 002082 41F0 B4C4            004C4 16108                       LA    R15,CPFLOW
 002086 4100 0003            00003 16109                       LA    R0,CP#XACT
 00208A 4110 B4C4            004C4 16110                       LA    R1,CPFLOW
 00208E 58E0 74CE/0DEE       02538 16111                       VCALL XDELSET
                                   16115
                                   16116                       COMMENT                   SET LOAD EXEC/FLOW FILE POINTERS
 002094 D203 B784 74D2 00784 0253C 16117                       MVC   CP#XLOAD,=AL4(CP#XACT)
 00209A 4130 B4A4            004A4 16118                       LA    R3,CPEXEC
 00209E 5030 B788            00788 16119                       ST    R3,CPRGLOAD
 0020A2 4130 B4C4            004C4 16120                       LA    R3,CPFLOW
 0020A6 5030 B78C            0078C 16121                       ST    R3,CPRGFC
                                   16122
                                   16123                       COMMENT                   LOAD EXEC FILE
 0020AA 58E0 74D6/0DEE       02540 16124                       ACALL LDACT
                                   16128
                                   16129                       COMMENT                   DO FLOW PROCESSING
 0020B0 58E0 74AA/0DEE       02514 16130                       VCALL FLOWCTRL
                                   16134
                                   16135                       COMMENT                   CLEAR LOAD POINTERS
 0020B6 D703 B784 B784 00784 00784 16136                       CLEAR CP#XLOAD
 0020BC D703 B788 B788 00788 00788 16143                       CLEAR CPRGLOAD
 0020C2 D703 B78C B78C 0078C 0078C 16150                       CLEAR CPRGFC
                                   16157
 0020C8 1BFF                       16158                       CLEAR R15
 0020CA 18D8/9808 D004_            16162                       PEND  ,
 DROP   *,R7
1XCALL    (XCAL2025) (13:01) (15MAR04) EXEC LOAD Routines                                                                   Page   64
0Current Usings:  (CP,R11) (CV,R12)
0Loc    Object Code    Addr1 Addr2  Stmt Lv Lineno    Source Statement           (Hibal 5, Asmedit 3.3)  HLASM R4.0  2004/03/15 13.01
+___    ______ ____    _____ _____  ____ __ ______    ______ _________
0                                  16183              ¿þþþþþþþþþþþþþþþþþþþþþþþþþþþþþþþþþþþþþþþþþþþþþþþþþþþþþþþþþþþþþþþþþþþþþÜ
                                   16184              Ÿ                                                                     Ÿ
                                   16185              Ÿ                                                                     Ÿ
                                   16186              Ÿ  LOADTEMP - LOAD TEMP EXEC FILE FROM ACTIVE FILE.                   Ÿ
                                   16187              Ÿ                                                                     Ÿ
                                   16188              Ÿ                                                                     Ÿ
                                   16189              Ÿ  ON ENTRY:                                                          Ÿ
                                   16190              Ÿ       NO INPUT PARMS                                                Ÿ
                                   16191              Ÿ                                                                     Ÿ
                                   16192              Ÿ  ON EXIT:                                                           Ÿ
                                   16193              Ÿ      R15 - CC=ZERO                                                  Ÿ
                                   16194              Ÿ            ERRORS WILL EXIT VIA CVERROR.                            Ÿ
                                   16195              Ÿ            EXEC FILE / FLOW INFORMATION DELETED AND EXEC            Ÿ
                                   16196              Ÿ            INFORMATION ENTRY MARKED AS UNLOADED.                    Ÿ
                                   16197              Ÿ                                                                     Ÿ
                                   16198              Ÿ                                                                     Ÿ
                                                      ¾þþþþþþþþþþþþþþþþþþþþþþþþþþþþþþþþþþþþþþþþþþþþþþþþþþþþþþþþþþþþþþþþþþþþþ»
00020D8 50E0 D000/9008_      00000 16199              LOADTEMP PROC  ,
 USING  *,R7
                                   16238
                                   16239                       COMMENT                   CHECK FOR NULL ACTIVE FILE
 0020F2 58E0 7442/0DEE       02534 16240                       VCALL ACTCHK
                                   16244
                                   16245                       COMMENT                   DELETE TEMP EXEC/FLOW LINES
 0020F8 41F0 B4A4            004A4 16246                       LA    R15,CPEXEC
 0020FC 4100 0004            00004 16247                       LA    R0,CP#XTEMP
 002100 4110 B4A4            004A4 16248                       LA    R1,CPEXEC
 002104 58E0 7446/0DEE       02538 16249                       VCALL XDELSET
 00210A 41F0 B4C4            004C4 16253                       LA    R15,CPFLOW
 00210E 4100 0004            00004 16254                       LA    R0,CP#XTEMP
 002112 4110 B4C4            004C4 16255                       LA    R1,CPFLOW
 002116 58E0 7446/0DEE       02538 16256                       VCALL XDELSET
                                   16260
                                   16261                       COMMENT                   SET LOAD EXEC/FLOW FILE POINTERS
 00211C D203 B784 7452 00784 02544 16262                       MVC   CP#XLOAD,=AL4(CP#XTEMP)
 002122 4130 B4A4            004A4 16263                       LA    R3,CPEXEC
 002126 5030 B788            00788 16264                       ST    R3,CPRGLOAD
 00212A 4130 B4C4            004C4 16265                       LA    R3,CPFLOW
 00212E 5030 B78C            0078C 16266                       ST    R3,CPRGFC
                                   16267
                                   16268                       COMMENT                   LOAD EXEC FILE
 002132 58E0 744E/0DEE       02540 16269                       ACALL LDACT
                                   16273
                                   16274                       COMMENT                   DO FLOW PROCESSING
 002138 58E0 7422/0DEE       02514 16275                       VCALL FLOWCTRL
                                   16279
                                   16280                       COMMENT                   CLEAR LOAD POINTERS
 00213E D703 B784 B784 00784 00784 16281                       CLEAR CP#XLOAD
 002144 D703 B788 B788 00788 00788 16288                       CLEAR CPRGLOAD
 00214A D703 B78C B78C 0078C 0078C 16295                       CLEAR CPRGFC
                                   16302
 002150 1BFF                       16303                       CLEAR R15
 002152 18D8/9808 D004_            16307                       PEND  ,
1XCALL    (XCAL2025) (13:01) (15MAR04) EXEC LOAD Routines                                                                   Page   65
0Current Usings:  (CP,R11) (CV,R12)
0Loc    Object Code    Addr1 Addr2  Stmt Lv Lineno    Source Statement           (Hibal 5, Asmedit 3.3)  HLASM R4.0  2004/03/15 13.01
+___    ______ ____    _____ _____  ____ __ ______    ______ _________
0DROP   *,R7
1XCALL    (XCAL2025) (13:01) (15MAR04) EXEC LOAD Routines                                                                   Page   66
0Current Usings:  (CP,R11) (CV,R12)
0Loc    Object Code    Addr1 Addr2  Stmt Lv Lineno    Source Statement           (Hibal 5, Asmedit 3.3)  HLASM R4.0  2004/03/15 13.01
+___    ______ ____    _____ _____  ____ __ ______    ______ _________
0                                  16328              ¿þþþþþþþþþþþþþþþþþþþþþþþþþþþþþþþþþþþþþþþþþþþþþþþþþþþþþþþþþþþþþþþþþþþþþÜ
                                   16329              Ÿ                                                                     Ÿ
                                   16330              Ÿ                                                                     Ÿ
                                   16331              Ÿ LOAD EXEC WORK AREA                                                 Ÿ
                                   16332              Ÿ                                                                     Ÿ
                                   16333              Ÿ LOAD EXEC LINE WORK AREA.  SEE EXEC LOAD                            Ÿ
                                   16334              Ÿ CO-ROUTINE.                                                         Ÿ
                                   16335              Ÿ                                                                     Ÿ
                                   16336              Ÿ                                                                     Ÿ
                                                      ¾þþþþþþþþþþþþþþþþþþþþþþþþþþþþþþþþþþþþþþþþþþþþþþþþþþþþþþþþþþþþþþþþþþþþþ»
0000000                00000 001DE 16337              LDWA     RECORD BEGIN
 000000                            16345  1           LDLNO      DS    F                   LOAD LINE LINE NUMBER
 000004                            16346  1           LDLEN      DS    F                   LOAD LINE LENGTH
                                   16347  1           LDLINE     DS    CL(2*&LINESZ)       LOAD LINE TEXT
 000008                                   1          +LDLINE     DS    CL(2*235)           LOAD LINE TEXT
 0001DE                001DE 001DE 16348                       END
1XCALL    (XCAL2025) (13:01) (15MAR04) EXEC LOAD Routines                                                                   Page   67
0Current Usings:  (CP,R11) (CV,R12)
0Loc    Object Code    Addr1 Addr2  Stmt Lv Lineno    Source Statement           (Hibal 5, Asmedit 3.3)  HLASM R4.0  2004/03/15 13.01
+___    ______ ____    _____ _____  ____ __ ______    ______ _________
0                                  16358              ¿þþþþþþþþþþþþþþþþþþþþþþþþþþþþþþþþþþþþþþþþþþþþþþþþþþþþþþþþþþþþþþþþþþþþþÜ
                                   16359              Ÿ                                                                     Ÿ
                                   16360              Ÿ                                                                     Ÿ
                                   16361              Ÿ  LDDSN - LOAD DSN (EXTERNAL FILE) INTO EXEC FILE                    Ÿ
                                   16362              Ÿ                                                                     Ÿ
                                   16363              Ÿ  ON ENTRY:                                                          Ÿ
                                   16364              Ÿ       CP#XLOAD - SET NUMBER OF EXEC FILE                            Ÿ
                                   16365              Ÿ     @ CPRGLOAD - RECORD GROUP OF EXEC                               Ÿ
                                   16366              Ÿ     @ CPRGFC   - RECORD GROUP OF FLOW INFO                          Ÿ
                                   16367              Ÿ                                                                     Ÿ
                                   16368              Ÿ  ON EXIT:                                                           Ÿ
                                   16369              Ÿ      EXTERNAL FILE LOADED                                           Ÿ
                                   16370              Ÿ      ERRORS EXIT VIA LDABORT ROUTINE                                Ÿ
                                   16371              Ÿ                                                                     Ÿ
                                   16372              Ÿ  NOTE: OLD EXEC FILES ARE LOADED IN EXEC MODULE                     Ÿ
                                   16373              Ÿ  NOTE: CALLS TO OPEN AND CLOSE DSN ARE MADE ELSEWHERE.              Ÿ
                                   16374              Ÿ                                                                     Ÿ
                                   16375              Ÿ                                                                     Ÿ
                                   16376              Ÿ                                                                     Ÿ
                                                      ¾þþþþþþþþþþþþþþþþþþþþþþþþþþþþþþþþþþþþþþþþþþþþþþþþþþþþþþþþþþþþþþþþþþþþþ»
0000000                00000 001DE 16377              LDDWA    RECORD BEGIN
 000000                            16385  1           LDDAREA    DS    XL(L'LDWA)
 0001DE                001DE 001DE 16386                       END
                                   16395              *
                                   16396              *
 002160 50E0 D000/9008_      00000 16397              LDDSN    PROC  LDDWA
 USING  *,R7
 USING  LDDWA-(4+36),R8
 USING  LDWA,R6                    16447                       USING LDWA,R6
 00217A 4160 8028            00000 16456                       LA    R6,LDDAREA
 00217E 5060 BCA4            00CA4 16457                       ST    R6,CPCWA
                                   16458
                                   16459                       COMMENT                   INIT LOAD WORK AREA
 002182 D7FF 6000 6000_00000 00000 16460                       CLEAR LDWA
                                   16468
                                   16469                       COMMENT                   INIT SOME EXEC FILE STUFF
 00218E 9203 BD89      00D89       16470                       SET   CPFRDEXT            SELECT EXTERNAL FILE
 002192 9610 BD50      00D50       16476                       SET   CPLFLG1.CPFALL
 002196 4110 C4D8/1B00_      004D8 16483                       SCINIT CVBLANKS,0         NULL RANGE, DEFAULT TO ALL
 0021AA 58E0 73CE/0DEE       02548 16506                       VCALL NDETRNG             CALL DETRNG TO SET ALL
 0021B0 9640 BD57      00D57       16510                       SET   CPFNCUR             DO NOT RESET CURRENT
                                   16516
                                   16517                       COMMENT                   USE CO-ROUTINE TO PROCESS
 0021B4 5800 73D2/5810_      0254C 16518                       RDRNG LOADRTN,(DESRTRN+LXCATRTN+DESABORT+UNPRST)
 0021C2 4780 7052/58E0_      021CC 16525                       IF    NZ,' ACALL LDABORT' ABORT IF ATTN (NO RETURN)
                                   16545
 0021CC 1BFF                       16546                       CLEAR R15
 0021CE 18D8/9808 D004_            16550                       PEND  ,
 DROP   LDDWA-(4+36),R8
 DROP   *,R7
 DROP   LDWA,R6                    16575                       DROP  R6
1XCALL    (XCAL2025) (13:01) (15MAR04) EXEC LOAD Routines                                                                   Page   68
0Current Usings:  (CP,R11) (CV,R12)
0Loc    Object Code    Addr1 Addr2  Stmt Lv Lineno    Source Statement           (Hibal 5, Asmedit 3.3)  HLASM R4.0  2004/03/15 13.01
+___    ______ ____    _____ _____  ____ __ ______    ______ _________
0                                  16583              ¿þþþþþþþþþþþþþþþþþþþþþþþþþþþþþþþþþþþþþþþþþþþþþþþþþþþþþþþþþþþþþþþþþþþþþÜ
                                   16584              Ÿ                                                                     Ÿ
                                   16585              Ÿ                                                                     Ÿ
                                   16586              Ÿ  LDACT - LOAD ACTIVE FILE INTO EXEC FILE                            Ÿ
                                   16587              Ÿ                                                                     Ÿ
                                   16588              Ÿ  ON ENTRY:                                                          Ÿ
                                   16589              Ÿ       CP#XLOAD - SET NUMBER OF EXEC FILE                            Ÿ
                                   16590              Ÿ     @ CPRGLOAD - RECORD GROUP OF EXEC                               Ÿ
                                   16591              Ÿ     @ CPRGFC   - RECORD GROUP OF FLOW INFO                          Ÿ
                                   16592              Ÿ                                                                     Ÿ
                                   16593              Ÿ  ON EXIT:                                                           Ÿ
                                   16594              Ÿ      ACTIVE FILE LOADED                                             Ÿ
                                   16595              Ÿ      ERRORS EXIT VIA LDABORT ROUTINE                                Ÿ
                                   16596              Ÿ                                                                     Ÿ
                                   16597              Ÿ  NOTE: OLD EXEC FILES ARE LOADED IN EXEC MODULE                     Ÿ
                                   16598              Ÿ                                                                     Ÿ
                                   16599              Ÿ                                                                     Ÿ
                                                      ¾þþþþþþþþþþþþþþþþþþþþþþþþþþþþþþþþþþþþþþþþþþþþþþþþþþþþþþþþþþþþþþþþþþþþþ»
0000000                00000 001DE 16600              LDAWA    RECORD BEGIN
 000000                            16608  1           LDAAREA    DS    XL(L'LDWA)
 0001DE                001DE 001DE 16609                       END
                                   16618              *
                                   16619              *
 0021DC 50E0 D000/9008_      00000 16620              LDACT    PROC  LDAWA
 USING  *,R7
 USING  LDAWA-(4+36),R8
 USING  LDWA,R6                    16670                       USING LDWA,R6
 0021F6 4160 8028            00000 16679                       LA    R6,LDAAREA
 0021FA 5060 BCA4            00CA4 16680                       ST    R6,CPCWA
                                   16681
                                   16682                       COMMENT                   INIT LOAD WORK AREA
 0021FE D7FF 6000 6000_00000 00000 16683                       CLEAR LDWA
                                   16691
                                   16692                       COMMENT                   INIT SOME ACTIVE FILE STUFF
 00220A 9610 BD50      00D50       16693                       SET   CPLFLG1.CPFALL
 00220E 4110 C4D8/1B00_      004D8 16700                       SCINIT CVBLANKS,0         NULL RANGE, DEFAULT TO ALL
 002222 58E0 7352/0DEE       02548 16723                       VCALL NDETRNG             CALL NDETRNGTO SET ALL
 002228 9640 BD57      00D57       16727                       SET   CPFNCUR             DO NOT RESET CURRENT
                                   16733
                                   16734                       COMMENT                   USE CO-ROUTINE TO PROCESS
 00222C 5800 7366/5810_      0255C 16735                       RDRNG LOADRTN,(DESRTRN+LOCATRTN+DESABORT+UNPRST)
 00223A 4780 704E/58E0_      02244 16742                       IF    NZ,' ACALL LDABORT' ABORT IF ATTN (NO RETURN)
                                   16762
 002244 1BFF                       16763                       CLEAR R15
 002246 18D8/9808 D004_            16767                       PEND  ,
 DROP   LDAWA-(4+36),R8
 DROP   *,R7
 DROP   LDWA,R6                    16792                       DROP  R6
1XCALL    (XCAL2025) (13:01) (15MAR04) EXEC LOAD Routines                                                                   Page   69
0Current Usings:  (CP,R11) (CV,R12)
0Loc    Object Code    Addr1 Addr2  Stmt Lv Lineno    Source Statement           (Hibal 5, Asmedit 3.3)  HLASM R4.0  2004/03/15 13.01
+___    ______ ____    _____ _____  ____ __ ______    ______ _________
0                                  16800              ¿þþþþþþþþþþþþþþþþþþþþþþþþþþþþþþþþþþþþþþþþþþþþþþþþþþþþþþþþþþþþþþþþþþþþþÜ
                                   16801              Ÿ                                                                     Ÿ
                                   16802              Ÿ                                                                     Ÿ
                                   16803              Ÿ  LOADRTN - CO-ROUTINE TO LOAD EXEC FILE                             Ÿ
                                   16804              Ÿ                                                                     Ÿ
                                   16805              Ÿ  ON ENTRY:                                                          Ÿ
                                   16806              Ÿ       R0 - LINE LENGTH                                              Ÿ
                                   16807              Ÿ       R1 - LINE LOCATION                                            Ÿ
                                   16808              Ÿ       CPCWA - LOAD DSECT                                            Ÿ
                                   16809              Ÿ       CPLCNO - LINE NUMBER                                          Ÿ
                                   16810              Ÿ                                                                     Ÿ
                                   16811              Ÿ  ON EXIT:                                                           Ÿ
                                   16812              Ÿ       LINE LOADED INTO EXEC FILE                                    Ÿ
                                   16813              Ÿ                                                                     Ÿ
                                   16814              Ÿ  NOTE, NOTE !!                                                      Ÿ
                                   16815              Ÿ  WE PROCESS LINES AS FOLLOWS DURING LOADING                         Ÿ
                                   16816              Ÿ       1. DO NOT LOAD BLANK LINES                                    Ÿ
                                   16817              Ÿ       2. DO NOT LOAD COMMENT LINES                                  Ÿ
                                   16818              Ÿ       3. LINES ENDING IN '\' ARE CONTINUED ON NEXT                  Ÿ
                                   16819              Ÿ          LINE.                                                      Ÿ
                                   16820              Ÿ                                                                     Ÿ
                                   16821              Ÿ                                                                     Ÿ
                                                      ¾þþþþþþþþþþþþþþþþþþþþþþþþþþþþþþþþþþþþþþþþþþþþþþþþþþþþþþþþþþþþþþþþþþþþþ»
0002254 50E0 D000/9008_      00000 16822              LOADRTN  PROC  ,
 USING  *,R7
 USING  LDWA,R6                    16861                       USING  LDWA,R6
 00226E 5860 BCA4            00CA4 16870                       L     R6,CPCWA
                                   16871
                                   16872                       COMMENT                   GET LINE
 002272 D503 7226 6004_02494 00004 16873                       IF    (LDLEN,EQ,0),BEGIN  NOT CONTINUATION, JUST MOVE
 00227C 58E0 72F2/0DEE       02560 16891  1                      VCALL RTRIM
 002282 58F0 B73C            0073C 16895  1                      L     R15,CPLCNO
 002286 50F0 6000            00000 16896  1                      ST    R15,LDLNO
 00228A 5000 6004            00004 16897  1                      ST    R0,LDLEN
 00228E 1830                       16898  1                      LR    R3,R0
 002290 0630/1233/4740_            16899  1                      MOVE  R3,LDLINE,@R1
 00229C                            16937                       END
                                   16941
 00229C 7032/47F0 7056 0229C 0227A 16942                       ELSE  BEGIN               CONTINUATION, CONCATENATE
 0022A0 58E0 72F6/0DEE       02564 16953  1                      VCALL LRTRIM
 0022A6 4120 6008            00008 16957  1                      LA    R2,LDLINE
 0022AA 5A20 6004            00004 16958  1                      A     R2,LDLEN
 0022AE 0620                       16959  1                      DECR  R2                  STRIP '\' FROM 1ST STRING
 0022B0 1830                       16961  1                      LR    R3,R0
 0022B2 1841                       16962  1                      LR    R4,R1
 0022B4 1850                       16963  1                      LR    R5,R0
 0022B6 0E24                       16964  1                      MVCL  R2,R4
 0022B8 5810 6004            00004 16965  1                      L     R1,LDLEN
 0022BC 1A10                       16966  1                      AR    R1,R0
 0022BE 0610                       16967  1                      DECR  R1
 0022C0 5010 6004            00004 16969  1                      ST    R1,LDLEN
 0022C4                            16970                       END
1XCALL    (XCAL2025) (13:01) (15MAR04) EXEC LOAD Routines                                                                   Page   70
0Current Usings:  (LDWA,R6) (*,R7) (CP,R11) (CV,R12)
0Loc    Object Code    Addr1 Addr2  Stmt Lv Lineno    Source Statement           (Hibal 5, Asmedit 3.3)  HLASM R4.0  2004/03/15 13.01
+___    ______ ____    _____ _____  ____ __ ______    ______ _________
0                                  16974                       ¿þþþþþþþþþþþþþþþþþþþþþþþþþþþþþþþþþþþÜ
                                   16975                       Ÿ  Check for line length overflow.  Ÿ
                                   16976                       ¾þþþþþþþþþþþþþþþþþþþþþþþþþþþþþþþþþþþ»
 0022C4 D503 72FA 6004_02568 00004 16977                       IF    (LDLEN,GT,&LINESZ),BEGIN
 0022CE 4110 7362/4100_      025D0 16995  1                      TSEG  'Error in line '
 0022E0 5800 6000            00000 17013  1                      L     R0,LDLNO
 0022E4 58E0 7302/0DEE       02570 17014  1                      VCALL CVEXNO
 0022EA 41F0 B050/58E0_      00050 17018  1                      TSEG  (R1),(R0)
 0022F4 4110 7370/4100_      025DE 17042  1                      TSEG  ', command line exceeds &LINESZ characters.',,CR
 002306 58E0 72EA/0DEE       02558 17060  1                      ACALL LDABORT             NO RETURN
 00230C                            17064                       END
                                   17068                       ¿þþþþþþþþþþþþþþþþþþþþþþþþþþþþþþþþþþþþþþþþÜ
                                   17069                       Ÿ  Get the first character in the line.  Ÿ
                                   17070                       ¾þþþþþþþþþþþþþþþþþþþþþþþþþþþþþþþþþþþþþþþþ»
 00230C 4110 6008            00008 17071                       LA    R1,LDLINE
 002310 4120 6008            00008 17072                       LA    R2,LDLINE
 002314 5A20 6004            00004 17073                       A     R2,LDLEN
 002318 9540 1000/4770_00000       17074                       WHILE ((@R1,EQ,' '),AND,(R1,LT,R2)),BEGIN
 002326 4111 0001            00001 17106  1                      LA    R1,1(R1)
 00232A 47F0 70AA            02318 17107                       END
 00232E 0620                       17112                       DECR  R2
                                   17114                       ¿þþþþþþþþþþþþþþþþþþþþþþþÜ
                                   17115                       Ÿ  Ignore blank lines.  Ÿ
                                   17116                       ¾þþþþþþþþþþþþþþþþþþþþþþþ»
 002330 1912/47D0 70CE             17117                       IF    (R1,GT,R2),BEGIN    Blank line...
 002336 D703 6004 6004 00004 00004 17132  1                      CLEAR LDLEN
 00233C                            17139                       END
                                   17143                       ¿þþþþþþþþþþþþþþþþþþþþþþþþþþþþþþþþþþþþþþþþþþþþþþþþþþþþÜ
                                   17144                       Ÿ  Line is continued if it ends with "\" character.  Ÿ
                                   17145                       ¾þþþþþþþþþþþþþþþþþþþþþþþþþþþþþþþþþþþþþþþþþþþþþþþþþþþþ»
 00233C 70D2/47F0 70F8_0233C 02334 17146                       ELSEIF (@R2,EQ,'\'),BEGIN  Possibly continued...
 002348 0620                       17171  1                      DECR  R2                  Get 2nd to last char ptr
 00234A 1912/4730 70F8             17173  1                      IF    (R1,LE,R2),BEGIN    At least two chars on line...
 002350 95E0 2000/4770_00000       17188  2                        IF    (@R2,EQ,'\'),BEGIN  Ended with two "\\" chars...
 002358 5800 6004/0600_      00004 17204  3                          DECR  R0,LDLEN            Get rid of one of the "\" chars
 002362 47F0 710E            0237C 17209  3                          B     LDRLINE             Treat it as a regular line
 002366                            17210  2                        END
 002366                            17214  1                      END
 002366                            17218                       END
                                   17222                       ¿þþþþþþþþþþþþþþþþþþþþþþþþþÜ
                                   17223                       Ÿ  Ignore comment lines.  Ÿ
                                   17224                       ¾þþþþþþþþþþþþþþþþþþþþþþþþþ»
 002366 70FC/47F0 710A_02366 02346 17225                       ELSEIF (@R1,EQ,';'),BEGIN  Comment line...
 002372 D703 6004 6004 00004 00004 17250  1                      CLEAR LDLEN
 002378                            17257                       END
                                   17261                       ¿þþþþþþþþþþþþþþþþþþþþþþþþþþþþþþþþþþþþþþþþþþþþÜ
                                   17262                       Ÿ  Load the line (it's not a special line).  Ÿ
                                   17263                       ¾þþþþþþþþþþþþþþþþþþþþþþþþþþþþþþþþþþþþþþþþþþþþ»
 002378 710E/47F0 714E 02378 02370 17264                       ELSE  BEGIN
 00237C 58F0 B788            00788 17275  1           LDRLINE    L     R15,CPRGLOAD
 002380 5800 B784            00784 17276  1                      L     R0,CP#XLOAD
 002384 58E0 730A/0DEE       02578 17277  1                      VCALL XSETSET
 00238A 58F0 B788            00788 17281  1                      L     R15,CPRGLOAD
 00238E 5800 6004            00004 17282  1                      L     R0,LDLEN
1XCALL    (XCAL2025) (13:01) (15MAR04) EXEC LOAD Routines                                                                   Page   71
0Current Usings:  (LDWA,R6) (*,R7) (CP,R11) (CV,R12)
0Loc    Object Code    Addr1 Addr2  Stmt Lv Lineno    Source Statement           (Hibal 5, Asmedit 3.3)  HLASM R4.0  2004/03/15 13.01
+___    ______ ____    _____ _____  ____ __ ______    ______ _________
0002392 4110 6008            00008 17283  1                      LA    R1,LDLINE
 002396 4120 6000            00000 17284  1                      LA    R2,LDLNO
 00239A 58E0 730E/0DEE       0257C 17285  1                      VCALL XPUT
 0023A0 47B0 7142            023B0 17289  1                      IF    NEG,BEGIN
 0023A4 4110 7312/4100_      02580 17300  2                        ERROR 'Too many EXEC files loaded. '
 0023B0                            17307  1                      END
 0023B0 47D0 7148            023B6 17311  1                      IF    POS,BEGIN
 0023B4 0000                       17322  2                        BOMB
 0023B6                            17324  1                      END
 0023B6 D703 6004 6004 00004 00004 17328  1                      CLEAR LDLEN
 0023BC                            17335                       END
                                   17339
 0023BC 18D8/9808 D004_            17340                       PEND  ,
 DROP   *,R7
 DROP   LDWA,R6                    17360                       DROP  R6
1XCALL    (XCAL2025) (13:01) (15MAR04) EXEC LOAD Routines                                                                   Page   72
0Current Usings:  (CP,R11) (CV,R12)
0Loc    Object Code    Addr1 Addr2  Stmt Lv Lineno    Source Statement           (Hibal 5, Asmedit 3.3)  HLASM R4.0  2004/03/15 13.01
+___    ______ ____    _____ _____  ____ __ ______    ______ _________
0                                  17368              ¿þþþþþþþþþþþþþþþþþþþþþþþþþþþþþþþþþþþþþþþþþþþþþþþþþþþþþþþþþþþþþþþþþþþþþÜ
                                   17369              Ÿ                                                                     Ÿ
                                   17370              Ÿ                                                                     Ÿ
                                   17371              Ÿ  LDABORT - ABORT XLOAD                                              Ÿ
                                   17372              Ÿ                                                                     Ÿ
                                   17373              Ÿ  ON ENTRY:                                                          Ÿ
                                   17374              Ÿ       CP#XLOAD - XLOAD EXEC/FLOW SET NUMBER                         Ÿ
                                   17375              Ÿ       CPRGLOAD - XLOAD EXEC RGROUP INFO ADDR                        Ÿ
                                   17376              Ÿ                                                                     Ÿ
                                   17377              Ÿ  THIS ROUTINE HANDLES THE ABORTING OF AN XLOAD.                     Ÿ
                                   17378              Ÿ   1. IT CLEARS EXEC/FLOW LINES                                      Ÿ
                                   17379              Ÿ   2. DELETES XINFO LINE, IF ANY                                     Ÿ
                                   17380              Ÿ   3. IT GIVES MESSAGE                                               Ÿ
                                   17381              Ÿ   4. IT CLEARS LOAD FILE POINTERS                                   Ÿ
                                   17382              Ÿ   5. IT EXITS VIA CVERROR                                           Ÿ
                                   17383              Ÿ                                                                     Ÿ
                                   17384              Ÿ  THIS IS THE ERROR EXIT ROUTINE FOR XLOAD,, WE                      Ÿ
                                   17385              Ÿ  DO IT TO IT !                                                      Ÿ
                                   17386              Ÿ                                                                     Ÿ
                                   17387              Ÿ                                                                     Ÿ
                                                      ¾þþþþþþþþþþþþþþþþþþþþþþþþþþþþþþþþþþþþþþþþþþþþþþþþþþþþþþþþþþþþþþþþþþþþþ»
0000000                00000 00060 17388              XBTWA    RECORD BEGIN
 000000                            17396  1           XBTXF      DS    XL(L'XFENTRY)       EXEC INFO ENTRY
 000060                00060 00060 17397                       END
                                   17406              *
                                   17407              *
 0023CA 50E0 D000/9008_      00000 17408              LDABORT  XPROC XBTWA
 USING  *,R7
 USING  XBTWA-(4+36),R8
 USING  XFENTRY,R6                 17459                       USING XFENTRY,R6
 0023E4 4160 8028            00000 17468                       LA    R6,XBTXF
                                   17469
                                   17470                       COMMENT                   FIRST GIVE A MESSAGE
                                   17471                       COMMENT
                                   17472                       COMMENT *$                DO NOT GIVE MESSAGE FOR OLD!
                                   17473                       COMMENT *$                DO NOT GIVE MESSAGE FOR TEMP!
 0023E8 5800 B784            00784 17474                       L     R0,CP#XLOAD
 0023EC 5900 7100/4780_      024E4 17475                       IF    ((R0,NE,CP#XOLD),AND,(R0,NE,CP#XTEMP)),BEGIN
 0023FC 4110 70B4/4100_      02498 17508  1                      TSEG  'Command stopped.'
 00240E                            17526                       END
                                   17530
                                   17531                       COMMENT                   CLEAR EXEC/FLOW LINES
 00240E 58F0 B788            00788 17532                       L     R15,CPRGLOAD
 002412 5800 B784            00784 17533                       L     R0,CP#XLOAD
 002416 58E0 7154/0DEE       02538 17534                       VCALL XDELSET
 00241C 58F0 B78C            0078C 17538                       L     R15,CPRGFC
 002420 5800 B784            00784 17539                       L     R0,CP#XLOAD
 002424 58E0 7154/0DEE       02538 17540                       VCALL XDELSET
                                   17544
                                   17545                       COMMENT                   MARK EXEC AS NOT LOADED
 00242A 5800 B784            00784 17546                       L     R0,CP#XLOAD
 00242E 5810 B788            00788 17547                       L     R1,CPRGLOAD
 002432 4120 6000            00000 17548                       LA    R2,XFENTRY
1XCALL    (XCAL2025) (13:01) (15MAR04) EXEC LOAD Routines                                                                   Page   73
0Current Usings:  (XFENTRY,R6) (*,R7) (XBTWA-(4+36),R8) (CP,R11) (CV,R12)
0Loc    Object Code    Addr1 Addr2  Stmt Lv Lineno    Source Statement           (Hibal 5, Asmedit 3.3)  HLASM R4.0  2004/03/15 13.01
+___    ______ ____    _____ _____  ____ __ ______    ______ _________
0002436 58E0 71BC/0DEE       025A0 17549                       ACALL GETXINFO
 00243C 4770 7088            0246C 17553                       IF    Z,BEGIN             IF EXEC INFO EXISTS, DELETE IT
 002440 9502 6040/4770_00040       17564  1                      IF    XFUSERX,BEGIN
 002448 5800 6044            00044 17579  2                        L     R0,XF#SETNO
 00244C 4110 B4A4            004A4 17580  2                        LA    R1,CPEXEC
 002450 58E0 71C0/0DEE       025A4 17581  2                        ACALL DELUINFO
 002456                            17585  1                      END
 002456 9501 6040/4770_00040       17589  1                      IF    XFPUBLIC,BEGIN
 00245E 5800 6044            00044 17604  2                        L     R0,XF#SETNO
 002462 4110 C300            00300 17605  2                        LA    R1,CVEXEC
 002466 58E0 71C4/0DEE       025A8 17606  2                        ACALL DELPINFO
 00246C                            17610  1                      END
 00246C                            17614                       END
                                   17618
                                   17619                       COMMENT                   CLEAR EXEC LOADING POINTERS
 00246C D703 B784 B784 00784 00784 17620                       CLEAR CP#XLOAD
 002472 D703 B788 B788 00788 00788 17627                       CLEAR CPRGLOAD
 002478 D703 B78C B78C 0078C 0078C 17634                       CLEAR CPRGFC
                                   17641
                                   17642                       COMMENT                   EXIT VIA CVERROR !!!@#$%^&#!!!
 00247E 47F0 C7D6            007D6 17643                       B     CVERROR             EXIT VIA CVERROR !!!@#$%^&#!!!
                                   17644
 002482 0000                       17645                       BOMB                      NOT USED
 002484 18D8/9808 D004_            17647                       PEND  ,              NOT USED
 DROP   XBTWA-(4+36),R8
 DROP   *,R7
 DROP   XFENTRY,R6                 17672                       DROP  R6
1XCALL    (XCAL2025) (13:01) (15MAR04) EXEC LOAD Routines                                                                   Page   74
0Current Usings:  (CP,R11) (CV,R12)
0Loc    Object Code    Addr1 Addr2  Stmt Lv Lineno    Source Statement           (Hibal 5, Asmedit 3.3)  HLASM R4.0  2004/03/15 13.01
+___    ______ ____    _____ _____  ____ __ ______    ______ _________
0                                  17680                       QLTORG
1XCALL    (XCAL2025) (13:01) (15MAR04) EXEC LOAD Routines                                                                   Page   75
0Current Usings:  (CP,R11) (CV,R12)
0Loc    Object Code    Addr1 Addr2  Stmt Lv Lineno    Source Statement           (Hibal 5, Asmedit 3.3)  HLASM R4.0  2004/03/15 13.01
+___    ______ ____    _____ _____  ____ __ ______    ______ _________
0                                  17762              ¿þþþþþþþþþþþþþþþþþþþþþþþþþþþþþþþþþþþþþþþþþþþþþþþþþþþþþþþþþþþþþþþþþþþþþÜ
                                   17763              Ÿ                                                                     Ÿ
                                   17764              Ÿ                                                                     Ÿ
                                   17765              Ÿ  SHOW XLOAD - SHOW LOADED EXECS                                     Ÿ
                                   17766              Ÿ                                                                     Ÿ
                                   17767              Ÿ                                                                     Ÿ
                                   17768              Ÿ                                                                     Ÿ
                                                      ¾þþþþþþþþþþþþþþþþþþþþþþþþþþþþþþþþþþþþþþþþþþþþþþþþþþþþþþþþþþþþþþþþþþþþþ»
0000000                00000 000A0 17769              SHLDWA   RECORD BEGIN
 000000                            17777  1           SHLDTIME   DS    CL64
 000040                            17778  1           SHLDXF     DS    XL(L'XFENTRY)
 0000A0                000A0 000A0 17779                       END
                                   17788              *
                                   17789              *
 0026BE 50E0 D000/9008_      00000 17790              SHXLOAD  XPROC SHLDWA
 USING  *,R7
 USING  SHLDWA-(4+36),R8
 USING  XFENTRY,R6                 17841                       USING XFENTRY,R6
 0026D8 4160 8068            00040 17850                       LA    R6,SHLDXF
 0026DC D75F 6000 6000 00000 00000 17851                       CLEAR XFENTRY
                                   17858
                                   17859                       COMMENT                   SET PROPER GROUP/SET
 0026E2 41F0 B544            00544 17860                       LA    R15,CPRG64
 0026E6 4100 0006            00006 17861                       LA    R0,CP#XFILE
 0026EA 58E0 71C0/0DEE       02898 17862                       VCALL XSETSET
                                   17866
                                   17867                       COMMENT                   PRINT FRIST LINE
 0026F0 4110 71C4/4100_      0289C 17868                       TSEG  'Loaded            ID  EXEC File Name',,CR
                                   17886
                                   17887                       COMMENT                   LOOP READING ENTRIES
 002702 41F0 B544            00544 17888                       LA    R15,CPRG64
 002706 4100 0020            00020 17889                       LA    R0,L'XFENTRY-L'XFNAME
 00270A 4110 6040            00040 17890                       LA    R1,XFENTRY+L'XFNAME
 00270E 4120 6000            00000 17891                       LA    R2,XFNAME
 002712 58E0 71EC/0DEE       028C4 17892                       VCALL XGETFRST           GET FIRST,,
 002718 4770 70B6            0278E 17896                       WHILE Z,BEGIN             AND LOOP THRU ALL,,
                                   17909  1
                                   17910  1                      COMMENT                   PRINT INFO,
 00271C 9801 6050            00050 17911  1                      LM    R0,R1,XFLDTIME
 002720 41F0 8028            00000 17912  1                      LA    R15,SHLDTIME
 002724 58E0 71F0/0DEE       028C8 17913  1                      VCALL FMTCLCK             GET TIME IN SHOW DATE FORMAT
 00272A D20B 802D 8030 00005 00008 17917  1                      MVC   SHLDTIME+5(12),SHLDTIME+8
 002730 4110 8039            00011 17918  1                      LA    R1,SHLDTIME+17
 002734 4100 0005            00005 17919  1                      LA    R0,5
 002738 58F0 6044            00044 17920  1                      L     R15,XF#SETNO
 00273C 58E0 71F4/0DEE       028CC 17921  1                      BTD   (R1),(R0),(R15)
 002742 D201 803E 7208 00016 028E0 17937  1                      MVC   SHLDTIME+22(2),=CL2'  '   'HH:MM MM/DD/YYYY ---ID  '
 002748 4110 8028/4100_      00000 17938  1                      TSEG  SHLDTIME,24
 00275A 4110 6000            00000 17968  1                      LA    R1,XFNAME
 00275E 58E0 71FC/0DEE       028D4 17969  1                      ACALL SEGFDSN
 002764 1B00/41F0 B050_            17973  1                      TCR
 002770 4770 C7DE            007DE 17998  1                      BNZ   CVNEXT              EXIT IF ATTN HIT
                                   17999  1
1XCALL    (XCAL2025) (13:01) (15MAR04) EXEC LOAD Routines                                                                   Page   76
0Current Usings:  (XFENTRY,R6) (*,R7) (SHLDWA-(4+36),R8) (CP,R11) (CV,R12)
0Loc    Object Code    Addr1 Addr2  Stmt Lv Lineno    Source Statement           (Hibal 5, Asmedit 3.3)  HLASM R4.0  2004/03/15 13.01
+___    ______ ____    _____ _____  ____ __ ______    ______ _________
0                                  18000  1                      COMMENT                   READ NEXT EXEC FILE AND LOOP
 002774 41F0 B544            00544 18001  1                      LA    R15,CPRG64
 002778 4100 0020            00020 18002  1                      LA    R0,L'XFENTRY-L'XFNAME
 00277C 4110 6040            00040 18003  1                      LA    R1,XFENTRY+L'XFNAME
 002780 4120 6000            00000 18004  1                      LA    R2,XFNAME
 002784 58E0 7200/0DEE       028D8 18005  1                      VCALL XGETNEXT            GET NEXT,,, AND LOOP
 00278A 47F0 7040            02718 18009                       END
                                   18014
                                   18015                       COMMENT                   EXIT, DO NOT RETURN TO CALLER
 00278E 47F0 C7DE            007DE 18016                       B     CVNEXT              (CALLER IS AN SCKW IN MODE)
                                   18017
 002792 1BFF                       18018                       CLEAR R15
 002794 18D8/9808 D004_            18022                       PEND  ,
 DROP   SHLDWA-(4+36),R8
 DROP   *,R7
 DROP   XFENTRY,R6                 18047                       DROP  R6
1XCALL    (XCAL2025) (13:01) (15MAR04) SHOW LOADED EXECS                                                                    Page   77
0Current Usings:  (CP,R11) (CV,R12)
0Loc    Object Code    Addr1 Addr2  Stmt Lv Lineno    Source Statement           (Hibal 5, Asmedit 3.3)  HLASM R4.0  2004/03/15 13.01
+___    ______ ____    _____ _____  ____ __ ______    ______ _________
0                                  18056              ¿þþþþþþþþþþþþþþþþþþþþþþþþþþþþþþþþþþþþþþþþþþþþþþþþþþþþþþþþþþþþþþþþþþþþþÜ
                                   18057              Ÿ                                                                     Ÿ
                                   18058              Ÿ                                                                     Ÿ
                                   18059              Ÿ  SHOW PUBLOAD - SHOW LOADED PUB EXECS                               Ÿ
                                   18060              Ÿ                                                                     Ÿ
                                   18061              Ÿ                                                                     Ÿ
                                   18062              Ÿ                                                                     Ÿ
                                                      ¾þþþþþþþþþþþþþþþþþþþþþþþþþþþþþþþþþþþþþþþþþþþþþþþþþþþþþþþþþþþþþþþþþþþþþ»
00027A2 50E0 D000/9008_      00000 18063              SHPBLOAD XPROC SHLDWA
 USING  *,R7
 USING  SHLDWA-(4+36),R8
 USING  XFENTRY,R6                 18114                       USING XFENTRY,R6
 USING  XDSNAME,R5                 18123                       USING XDSNAME,R5
 0027BC 4160 8068            00040 18132                       LA    R6,SHLDXF
 0027C0 4150 6000            00000 18133                       LA    R5,XFNAME
 0027C4 D75F 6000 6000 00000 00000 18134                       CLEAR XFENTRY
                                   18141
                                   18142                       COMMENT                   SET PROPER GROUP/SET
 0027CA 41F0 B544            00544 18143                       LA    R15,CPRG64
 0027CE 4100 0006            00006 18144                       LA    R0,CP#XFILE
 0027D2 58E0 70DC/0DEE       02898 18145                       VCALL XSETSET
                                   18149
                                   18150                       COMMENT                   PRINT FRIST LINE
 0027D8 4110 70E0/4100_      0289C 18151                       TSEG  'Loaded            ID  EXEC File Name',,CR
                                   18169
                                   18170                       COMMENT                   LOOP READING ENTRIES
 0027EA 41F0 C380            00380 18171                       LA    R15,CVRG64
 0027EE 4100 0020            00020 18172                       LA    R0,L'XFENTRY-L'XFNAME
 0027F2 4110 6040            00040 18173                       LA    R1,XFENTRY+L'XFNAME
 0027F6 4120 6000            00000 18174                       LA    R2,XFNAME
 0027FA 58E0 7108/0DEE       028C4 18175                       VCALL XGETFRST            GET FIRST,,
 002800 4770 70C4            02880 18179                       WHILE Z,BEGIN             AND LOOP THRU ALL,,
                                   18192  1
                                   18193  1                      COMMENT                   PRINT INFO,
 002804 D503 7120 503C_028DC 0003C 18194  1                      IF    (XMRK,EQ,'    '),BEGIN  IF TEMP OR RELOADED, SKIP
 00280E 9801 6050            00050 18211  2                        LM    R0,R1,XFLDTIME
 002812 41F0 8028            00000 18212  2                        LA    R15,SHLDTIME
 002816 58E0 710C/0DEE       028C8 18213  2                        VCALL FMTCLCK             GET TIME IN SHOW DATE FORMAT
 00281C D20B 802D 8030 00005 00008 18217  2                        MVC   SHLDTIME+5(12),SHLDTIME+8
 002822 4110 8039            00011 18218  2                        LA    R1,SHLDTIME+17
 002826 4100 0005            00005 18219  2                        LA    R0,5
 00282A 58F0 6044            00044 18220  2                        L     R15,XF#SETNO
 00282E 58E0 7110/0DEE       028CC 18221  2                        BTD   (R1),(R0),(R15)
 002834 D201 803E 7124 00016 028E0 18237  2                        MVC   SHLDTIME+22(2),=CL2'  '   'HH:MM MM/DD/YYYY ---ID  '
 00283A 4110 8028/4100_      00000 18238  2                        TSEG  SHLDTIME,24
 00284C 4110 6000            00000 18268  2                        LA    R1,XFNAME
 002850 58E0 7118/0DEE       028D4 18269  2                        ACALL SEGFDSN
 002856 1B00/41F0 B050_            18273  2                        TCR
 002862 4770 C7DE            007DE 18298  2                        BNZ   CVNEXT              EXIT IF ATTN HIT
 002866                            18299  1                      END
                                   18303  1
                                   18304  1                      COMMENT                   READ NEXT EXEC FILE AND LOOP
 002866 41F0 C380            00380 18305  1                      LA    R15,CVRG64
1XCALL    (XCAL2025) (13:01) (15MAR04) SHOW LOADED EXECS                                                                    Page   78
0Current Usings:  (XDSNAME,R5) (XFENTRY,R6) (*,R7) (SHLDWA-(4+36),R8) (CP,R11) (CV,R12)
0Loc    Object Code    Addr1 Addr2  Stmt Lv Lineno    Source Statement           (Hibal 5, Asmedit 3.3)  HLASM R4.0  2004/03/15 13.01
+___    ______ ____    _____ _____  ____ __ ______    ______ _________
000286A 4100 0020            00020 18306  1                      LA    R0,L'XFENTRY-L'XFNAME
 00286E 4110 6040            00040 18307  1                      LA    R1,XFENTRY+L'XFNAME
 002872 4120 6000            00000 18308  1                      LA    R2,XFNAME
 002876 58E0 711C/0DEE       028D8 18309  1                      VCALL XGETNEXT            GET NEXT,,, AND LOOP
 00287C 47F0 7044            02800 18313                       END
                                   18318
                                   18319                       COMMENT                   EXIT, DO NOT RETURN TO CALLER
 002880 47F0 C7DE            007DE 18320                       B     CVNEXT              (CALLER IS AN SCKW IN MODE)
                                   18321
 002884 1BFF                       18322                       CLEAR R15
 002886 18D8/9808 D004_            18326                       PEND  ,
 DROP   SHLDWA-(4+36),R8
 DROP   *,R7
 DROP   XFENTRY,R6                 18351                       DROP  R6
 DROP   XDSNAME,R5                 18358                       DROP  R5
1XCALL    (XCAL2025) (13:01) (15MAR04) SHOW LOADED EXECS                                                                    Page   79
0Current Usings:  (CP,R11) (CV,R12)
0Loc    Object Code    Addr1 Addr2  Stmt Lv Lineno    Source Statement           (Hibal 5, Asmedit 3.3)  HLASM R4.0  2004/03/15 13.01
+___    ______ ____    _____ _____  ____ __ ______    ______ _________
0                                  18366                       QLTORG
1XCALL    (XCAL2025) (13:01) (15MAR04) XPROC Command                                                                        Page   80
0Current Usings:  (CP,R11) (CV,R12)
0Loc    Object Code    Addr1 Addr2  Stmt Lv Lineno    Source Statement           (Hibal 5, Asmedit 3.3)  HLASM R4.0  2004/03/15 13.01
+___    ______ ____    _____ _____  ____ __ ______    ______ _________
0                                  18390              ¿þþþþþþþþþþþþþþþþþþþþþþþþþþþþþþþþþþþþþþþþþþþþþþþþþþþþþþþþþþþþþþþþþþþþþÜ
                                   18391              Ÿ                                                                     Ÿ
                                   18392              Ÿ                                                                     Ÿ
                                   18393              Ÿ  XPROC Command ---                                                  Ÿ
                                   18394              Ÿ                                                                     Ÿ
                                   18395              Ÿ  Note: XPROC command is never executed.  No siree, an XCALL         Ÿ
                                   18396              Ÿ    executes the first command after the xproc statment.  The        Ÿ
                                   18397              Ÿ    XPROC statment is scanned during the flow processing that        Ÿ
                                   18398              Ÿ    is done when the EXEC is loaded.                                 Ÿ
                                   18399              Ÿ                                                                     Ÿ
                                   18400              Ÿ                                                                     Ÿ
                                   18401              Ÿ                                                                     Ÿ
                                                      ¾þþþþþþþþþþþþþþþþþþþþþþþþþþþþþþþþþþþþþþþþþþþþþþþþþþþþþþþþþþþþþþþþþþþþþ»
00028E2 50E0 D000/9008_      00000 18402              XPROC    XPROC ,
 USING  *,R7
                                   18442
                                   18443                    COMMENT                      CASES, INVALID FROM TERMINAL
 0028FC 9180 B758/4710_00758       18444                    IF    ~CPFEXEC,BEGIN
 002904 4110 7482/4100_      02D7E 18459  1                   TSEG  'XPROC: statement ignored.',,CR
 002916 4110 749B/4100_      02D97 18477  1                   ERROR 'Flow control statements may be used only in EXEC files.'
 002922                            18484                    END
                                   18488
                                   18489                    COMMENT                      CASES, INVALID IN OLD EXEC MODE
 002922 9502 B759/4770_00759       18490                    IF    CPFXOLD,BEGIN
 00292A 4110 74D2/4100_      02DCE 18505  1                   TSEG  'XPROC: statement invalid.',,CR
 00293C 4110 74EB/4100_      02DE7 18523  1                   ERROR 'Statement may be used only in Extended EXEC mode.'
 002948                            18530                    END
                                   18534
                                   18535                    COMMENT                      CHECK FOR EXTENDED EXEC
 002948 9501 B759/4780_00759       18536                    IF    ~CPFXTEND,BEGIN
 002950 0000                       18551  1                   BOMB
 002952                            18553                    END
                                   18557
                                   18558                    COMMENT                      XPROC SHOULD NEVER BE EXECUTED
 002952 4110 74D2/4100_      02DCE 18559                    TSEG  'XPROC: statement invalid.',,CR
 002964 4110 7420/4100_      02D1C 18577                    ERROR 'XPROC statement is not executable.  Use XCALL command.'
                                   18584
 002970 18D8/9808 D004_            18585                       PEND ,
 DROP   *,R7
1XCALL    (XCAL2025) (13:01) (15MAR04) XSCAN Command                                                                        Page   81
0Current Usings:  (CP,R11) (CV,R12)
0Loc    Object Code    Addr1 Addr2  Stmt Lv Lineno    Source Statement           (Hibal 5, Asmedit 3.3)  HLASM R4.0  2004/03/15 13.01
+___    ______ ____    _____ _____  ____ __ ______    ______ _________
0                                  18606              ¿þþþþþþþþþþþþþþþþþþþþþþþþþþþþþþþþþþþþþþþþþþþþþþþþþþþþþþþþþþþþþþþþþþþþþÜ
                                   18607              Ÿ                                                                     Ÿ
                                   18608              Ÿ                                                                     Ÿ
                                   18609              Ÿ  XSCAN - SCAN ACTIVE FILE FOR PROPER FLOW CONTROL                   Ÿ
                                   18610              Ÿ                                                                     Ÿ
                                   18611              Ÿ  ON ENTRY:                                                          Ÿ
                                   18612              Ÿ       SCAN CONTROL BLOCK - REMAINDER OF COMMAND                     Ÿ
                                   18613              Ÿ                                                                     Ÿ
                                   18614              Ÿ  ON EXIT:                                                           Ÿ
                                   18615              Ÿ       ERRORS EXIT TO CVERROR,  SUCCESS EXITS TO CVNEXT.             Ÿ
                                   18616              Ÿ                                                                     Ÿ
                                   18617              Ÿ                                                                     Ÿ
                                                      ¾þþþþþþþþþþþþþþþþþþþþþþþþþþþþþþþþþþþþþþþþþþþþþþþþþþþþþþþþþþþþþþþþþþþþþ»
000297E 50E0 D000/9008_      00000 18618              XSCAN    XPROC ,
 USING  *,R7
                                   18658
                                   18659                       COMMENT                   XSCAN SUPPORTS NO OPTIONS
 002998 58E0 7334/0DEE       02CCC 18660                       VCALL NOOPTS
                                   18664
                                   18665                       COMMENT                   CHECK ACTIVE FILE
 00299E 58E0 7338/0DEE       02CD0 18666                       VCALL ACTCHK
                                   18670
                                   18671                       COMMENT                   LOAD ACTIVE FILE INTO TEMP EXEC
 0029A4 58E0 733C/0DEE       02CD4 18672                       ACALL LOADTEMP
                                   18676
                                   18677                       COMMENT ,                 NOTE   *****
                                   18678                       COMMENT ,                 MUST ADD PASS 2 TO CHECK
                                   18679                       COMMENT ,                 GOTO'S, PARMS, ETC...
                                   18680                       COMMENT ,                 JUST LIKE C'S LINT PROGRAM IN
                                   18681                       COMMENT ,                 UNIX
                                   18682
 0029AA 47F0 C7DE            007DE 18683                       B     CVNEXT
                                   18684
 0029AE 18D8/9808 D004_            18685                       PEND  ,
 DROP   *,R7
1XCALL    (XCAL2025) (13:01) (15MAR04) XFORMAT Command                                                                      Page   82
0Current Usings:  (CP,R11) (CV,R12)
0Loc    Object Code    Addr1 Addr2  Stmt Lv Lineno    Source Statement           (Hibal 5, Asmedit 3.3)  HLASM R4.0  2004/03/15 13.01
+___    ______ ____    _____ _____  ____ __ ______    ______ _________
0                                  18706              ¿þþþþþþþþþþþþþþþþþþþþþþþþþþþþþþþþþþþþþþþþþþþþþþþþþþþþþþþþþþþþþþþþþþþþþÜ
                                   18707              Ÿ                                                                     Ÿ
                                   18708              Ÿ                                                                     Ÿ
                                   18709              Ÿ  XFORMAT - FORMAT EXTENDED EXEC FILE                                Ÿ
                                   18710              Ÿ                                                                     Ÿ
                                   18711              Ÿ  ON ENTRY:                                                          Ÿ
                                   18712              Ÿ       SCAN CONTROL BLOCK - REMAINDER OF COMMAND                     Ÿ
                                   18713              Ÿ                                                                     Ÿ
                                   18714              Ÿ  ON EXIT:                                                           Ÿ
                                   18715              Ÿ       ACTIVE FILE FORMATTED AS REQUESTED                            Ÿ
                                   18716              Ÿ       ALL ERRORS EXIT VIA CVERROR                                   Ÿ
                                   18717              Ÿ                                                                     Ÿ
                                   18718              Ÿ  THIS ROUTINE ROUTINES WORKS AS FOLLOWS,  FIRST WE DO THE           Ÿ
                                   18719              Ÿ  EQUIVALENT OF AN XSCAN,  THIS IS TO INSURE THAT ALL BEGIN/         Ÿ
                                   18720              Ÿ  END BLOCK ARE SYNTACTICALLY CORRECT.  WE THEN CALL FFORMAT         Ÿ
                                   18721              Ÿ  (IN FLOW MODULE) TO FORMAT EXEC.  THERE ARE MANY ROUTINES          Ÿ
                                   18722              Ÿ  FOR PARSING BEGIN-END BLOCKS IN FLOW MODULE, SO THAT IS            Ÿ
                                   18723              Ÿ  WHY MOST OF THE WORK (FFORMAT ROUTINE) IS DONE THERE.              Ÿ
                                   18724              Ÿ                                                                     Ÿ
                                   18725              Ÿ                                                                     Ÿ
                                   18726              Ÿ                                                                     Ÿ
                                                      ¾þþþþþþþþþþþþþþþþþþþþþþþþþþþþþþþþþþþþþþþþþþþþþþþþþþþþþþþþþþþþþþþþþþþþþ»
0000000                00000 00008 18727              XFWA     RECORD BEGIN
 000000 00                         18735  1           XFOPTION   FLAG  ,
 XFOPTION.XFFMARK  80 ONES         18739  1                      FLAG  XFFMARK
 XFOPTION.XFFUNFMT 40 ONES         18744  1                      FLAG  XFFUNFMT
 000004                            18749  1           XFINDENT   DS    F
 000008                00008 00008 18750                       END
                                   18759              *
                                   18760              *
 0029BC 50E0 D000/9008_      00000 18761              XFORMAT  XPROC XFWA
 USING  *,R7
 USING  XFWA-(4+36),R8
 0029D6 4160 8028            00000 18812                       LA    R6,XFWA
 USING  XFWA,R6                    18813                       USING XFWA,R6
                                   18822
                                   18823                       COMMENT                   INITIALIZE WORK AREA W/DEFAULTS
 0029DA 9200 6000      00000       18824                       CLEAR XFOPTION
 0029DE D203 6004 7302 00004 02CD8 18831                       MVC   XFINDENT,=F'3'
                                   18832
                                   18833                       COMMENT                   SCAN OPTIONS
 0029E4 5810 B08C/1B00_      0008C 18834                       SCAN  XFORMPRT
 002A36 58E0 730E/0DEE       02CE4 18866                       SCANCHK
                                   18871
                                   18872                       COMMENT                   CHECK FOR ACTIVE FILE
 002A3C 58E0 72FA/0DEE       02CD0 18873                       VCALL ACTCHK
                                   18877
                                   18878                       COMMENT                   LOAD ACTIVE INTO TEMP EXEC
                                   18879                       COMMENT ,                 (THIS DOES EQUIVALENT TO XSCAN.)
 002A42 58E0 72FE/0DEE       02CD4 18880                       ACALL LOADTEMP
                                   18884
                                   18885                       COMMENT                   FORMAT IT
 002A48 9500 6000/4770_00000       18886                       IF    (XFOPTION,EQ,0),BEGIN
1XCALL    (XCAL2025) (13:01) (15MAR04) XFORMAT Command                                                                      Page   83
0Current Usings:  (XFWA,R6) (*,R7) (XFWA-(4+36),R8) (CP,R11) (CV,R12)
0Loc    Object Code    Addr1 Addr2  Stmt Lv Lineno    Source Statement           (Hibal 5, Asmedit 3.3)  HLASM R4.0  2004/03/15 13.01
+___    ______ ____    _____ _____  ____ __ ______    ______ _________
0002A50 5800 7312            02CE8 18904  1                      L     R0,=CL4'    '
 002A54                            18905                       END
 002A54 7082/47F0 7096_02A54 02A4E 18909                       ELSEIF (XFFMARK,AND,~XFFUNFMT),BEGIN
 002A68 5800 7316            02CEC 18947  1                      L     R0,=CL4'M   '
 002A6C                            18948                       END
 002A6C 709A/709A/47F0_02A6C 02A5E 18952                       ELSEIF (XFFMARK,AND,XFFUNFMT),BEGIN
 002A80 5800 731A            02CF0 18992  1                      L     R0,=CL4'MU  '
 002A84                            18993                       END
 002A84 70B2/70B2/47F0_02A84 02A76 18997                       ELSE  BEGIN
 002A88 4110 737E/4100_      02D54 19010  1                      ERROR 'Invalid combination of formatting options.'
 002A94                            19017                       END
                                   19021                       COMMENT                   R0 - FORMATTING OPTIONS
 002A94 5810 6004            00004 19022                       L     R1,XFINDENT         R1 - INDENT SPACE VALUE
 002A98 58E0 731E/0DEE       02CF4 19023                       VCALL FFORMAT             FORMAT EXEC FILE
                                   19027
                                   19028                       COMMENT                   BUMP CHANGE COUNT
 002A9E 41F0 0001/5EF0_      00001 19029                       INCR  R15,CPACHCT
                                   19035
                                   19036                       COMMENT                   ALL DONE
 002AAA 47F0 C7DE            007DE 19037                       B     CVNEXT
                                   19038
 002AAE 18D8/9808 D004_            19039                       PEND  ,
 DROP   XFWA-(4+36),R8
 DROP   *,R7
-
0                                  19065                       ¿þþþþþþþþþþþþþþþþþþþþþþþþþþþþþþþþþþþÜ
                                   19066                       Ÿ  XFORMAT SCAN KEYWORDS, ROUTINES  Ÿ
                                   19067                       ¾þþþþþþþþþþþþþþþþþþþþþþþþþþþþþþþþþþþ»
 002ABC D4C1D9D240404040_          19068              XFORMPRT SCKW  MARK,XFSCMARK,A
 002AE4 E4D5C6D6D9D4C1E3_          19083                       SCKW  UNFORMATTED,XFSCUNF,A
 002B0C C9D5C4C5D5E34040_          19098                       SCKW  INDENT,XFSCIND,(A,P,PI),16
 002B34 4040404040404040_          19113                       SCKW  ,V(SCNINVAL)
-                                  19129
 002B5C 50E0 D000/9008_      00000 19130              XFSCMARK DPROC ,
 USING  *,R7
 002B76 9680 6000      00000       19170                       SET   XFFMARK
 002B7A 18D8/9808 D004_            19176                       PEND  ,
 DROP   *,R7
                                   19196
 002B88 50E0 D000/9008_      00000 19197              XFSCUNF  DPROC ,
 USING  *,R7
 002BA2 9640 6000      00000       19237                       SET   XFFUNFMT
 002BA6 18D8/9808 D004_            19243                       PEND  ,
 DROP   *,R7
                                   19263
 002BB4 50E0 D000/9008_      00000 19264              XFSCIND  DPROC ,
 USING  *,R7
 002BCE 5000 6004            00004 19304                       ST    R0,XFINDENT
 002BD2 18D8/9808 D004_            19305                       PEND  ,
1XCALL    (XCAL2025) (13:01) (15MAR04) XFORMAT Command                                                                      Page   84
0Current Usings:  (XFWA,R6) (CP,R11) (CV,R12)
0Loc    Object Code    Addr1 Addr2  Stmt Lv Lineno    Source Statement           (Hibal 5, Asmedit 3.3)  HLASM R4.0  2004/03/15 13.01
+___    ______ ____    _____ _____  ____ __ ______    ______ _________
0DROP   *,R7
-
0                                  19326
                                   19327                       COMMENT ,                 END OF XFORMAT ROUTINE
 DROP   XFWA,R6                    19328                       DROP  R6
1XCALL    (XCAL2025) (13:01) (15MAR04) XCONVERT Command                                                                     Page   85
0Current Usings:  (CP,R11) (CV,R12)
0Loc    Object Code    Addr1 Addr2  Stmt Lv Lineno    Source Statement           (Hibal 5, Asmedit 3.3)  HLASM R4.0  2004/03/15 13.01
+___    ______ ____    _____ _____  ____ __ ______    ______ _________
0002BE0 50E0 D000/9008_      00000 19336              XCONVERT XPROC ,
 USING  *,R7
 002BFA 4110 70FE/4100_      02CF8 19376                       ABORT 'Command not yet implemented.'
 002C06 18D8/9808 D004_            19383                       PEND  ,
 DROP   *,R7
1XCALL    (XCAL2025) (13:01) (15MAR04) XXXEXIT - Reset XPROC Environment and XEXIT                                          Page   86
0Current Usings:  (CP,R11) (CV,R12)
0Loc    Object Code    Addr1 Addr2  Stmt Lv Lineno    Source Statement           (Hibal 5, Asmedit 3.3)  HLASM R4.0  2004/03/15 13.01
+___    ______ ____    _____ _____  ____ __ ______    ______ _________
0                                  19404              ¿þþþþþþþþþþþþþþþþþþþþþþþþþþþþþþþþþþþþþþþþþþþþþþþþþþþþþþþþþþþþþþþþþþþþþÜ
                                   19405              Ÿ                                                                     Ÿ
                                   19406              Ÿ                                                                     Ÿ
                                   19407              Ÿ  XXXEXIT - RESET XPROC ENVIRONMENT, AND GOTO XPROC LABEL            Ÿ
                                   19408              Ÿ                                                                     Ÿ
                                   19409              Ÿ  ON ENTRY:                                                          Ÿ
                                   19410              Ÿ       R0 - LINE NUMBER OF XPROC LABEL                               Ÿ
                                   19411              Ÿ                                                                     Ÿ
                                   19412              Ÿ  ON EXIT:                                                           Ÿ
                                   19413              Ÿ       THIS ROUTINE DOES NOT RETURN.  IT CALLS THE START ROUTINE     Ÿ
                                   19414              Ÿ       TO RESET THE EXEC ENVIRONMENT AND START UP AT THE NEW LINE    Ÿ
                                   19415              Ÿ       NUMBER.  IT DOES NOT RETURN.                                  Ÿ
                                   19416              Ÿ                                                                     Ÿ
                                   19417              Ÿ  NOTE:                                                              Ÿ
                                   19418              Ÿ       'XEXIT' ENTRY POINT IS IN FLOW MODULE.  WE COME HERE TO       Ÿ
                                   19419              Ÿ       RESET XPROC ENVIRIONMENT AND START UP XPROC AT LINE NUMBER    Ÿ
                                   19420              Ÿ       PASSED TO US FROM 'XEXIT' ROUTINE. THIS ROUTINE DOES NOT      Ÿ
                                   19421              Ÿ       RETURN.!!                                                     Ÿ
                                   19422              Ÿ                                                                     Ÿ
                                   19423              Ÿ       THIS ROUTINE CHAINS BACK THROUGH ALL THE PROC STATE           Ÿ
                                   19424              Ÿ       INFORMATION.  WHEN IT REACHES THE XPROC STATE (ENVIRONMENT)   Ÿ
                                   19425              Ÿ       INFORMATION, IT MODIFIES IT TO CONTAIN THE NEW LABEL LINE     Ÿ
                                   19426              Ÿ       NUMBER AS THE NEXT LINE NUMBER TO EXECUTE, AND THEN STARTS    Ÿ
                                   19427              Ÿ       UP THE EXEC WITH THE XPROC ENVIRONMENT !                      Ÿ
                                   19428              Ÿ                                                                     Ÿ
                                   19429              Ÿ                                                                     Ÿ
                                   19430              Ÿ                                                                     Ÿ
                                                      ¾þþþþþþþþþþþþþþþþþþþþþþþþþþþþþþþþþþþþþþþþþþþþþþþþþþþþþþþþþþþþþþþþþþþþþ»
0000000                00000 0008C 19431              XXITWA   RECORD BEGIN
 000000                            19439  1           XXITLNO    DS    F                   XEXIT LINE NUMBER
 000004                            19440  1           XXITSTAT   DS    XL(L'SNENTRY)       STATE INFO FOR PROCS/XPROC
 00008C                0008C 0008C 19441                       END
                                   19450              *
                                   19451              *
 002C14 50E0 D000/9008_      00000 19452              XXXEXIT  XPROC XXITWA
 USING  *,R7
 USING  XXITWA-(4+36),R8
 USING  SNENTRY,R6                 19503                       USING SNENTRY,R6
 002C2E 4160 802C            00004 19512                       LA    R6,XXITSTAT
                                   19513
                                   19514                       COMMENT                   INITIALIZE WORK AREA
 002C32 5000 8028            00000 19515                       ST    R0,XXITLNO
 002C36 D787 802C 802C 00004 00004 19516                       CLEAR XXITSTAT
                                   19523
                                   19524                       COMMENT                   IF IN XPROC, JUST SET NEXT LINENO
 002C3C D503 B848 B844_00848 00844 19525                       IF    (CPXVSET#,EQ,CPVSET#),BEGIN
 002C46 5000 B760            00760 19543  1                      ST    R0,CPEXNEXT
 002C4A 47F0 C7DE            007DE 19544  1                      B     CVNEXT
 002C4E                            19545                       END
                                   19549
                                   19550                       COMMENT                   IN PROC, CHAIN BACK TO XPROC
                                   19551                       COMMENT                   STATE INFORMATION
 002C4E 4100 0088            00088 19552                       LA    R0,L'SNENTRY
1XCALL    (XCAL2025) (13:01) (15MAR04) XXXEXIT - Reset XPROC Environment and XEXIT                                          Page   87
0Current Usings:  (SNENTRY,R6) (*,R7) (XXITWA-(4+36),R8) (CP,R11) (CV,R12)
0Loc    Object Code    Addr1 Addr2  Stmt Lv Lineno    Source Statement           (Hibal 5, Asmedit 3.3)  HLASM R4.0  2004/03/15 13.01
+___    ______ ____    _____ _____  ____ __ ______    ______ _________
0002C52 4110 6000            00000 19553                       LA    R1,SNENTRY
 002C56 4120 708A            02CB8 19554                       LA    R2,=CL16'SYS*EXEC_STATE  '
 002C5A 5830 B844            00844 19555                       L     R3,CPVSET#
 002C5E 58E0 70E6/0DEE       02D14 19556                       VCALL GETVSTK
 002C64 4780 703C            02C6A 19560                       IF    NZ,BEGIN
 002C68 0000                       19571  1                      BOMB
 002C6A                            19573                       END
 002C6A D503 602C 6028_0002C 00028 19577                       WHILE (SNXVSET#,NE,SNVSET#),BEGIN    WHILE NOT XPROC INFO,
 002C74 4100 0088            00088 19597  1                      LA    R0,L'SNENTRY                      CHAIN BACK THRU
 002C78 4110 6000            00000 19598  1                      LA    R1,SNENTRY                        STATES
 002C7C 4120 708A            02CB8 19599  1                      LA    R2,=CL16'SYS*EXEC_STATE  '
 002C80 5830 6028            00028 19600  1                      L     R3,SNVSET#
 002C84 58E0 70E6/0DEE       02D14 19601  1                      VCALL GETVSTK
 002C8A 4780 7062            02C90 19605  1                      IF    NZ,BEGIN
 002C8E 0000                       19616  2                        BOMB
 002C90                            19618  1                      END
 002C90 47F0 703C            02C6A 19622                       END
                                   19627
                                   19628                       COMMENT                   GOT XPROC STATE INFO,,,
 002C94 D203 6008 8028 00008 00000 19629                       MVC   SNEXNEXT,XXITLNO    SET LABEL LINE NUMBER AS NEXT
 002C9A 4110 6000            00000 19630                       LA    R1,SNENTRY          LINE TO EXEC, AND
 002C9E 58E0 70EA/0DEE       02D18 19631                       ACALL START               START UP EXEC W/XPROC ENVIROMENT
                                   19635
 002CA4 0000                       19636                       BOMB  ,                   NEVER EXECUTED, WE EXIT ABOVE
                                   19638
 002CA6 1BFF                       19639                       CLEAR R15
 002CA8 18D8/9808 D004_            19643                       PEND  ,          NEVER EXECUTED, WE EXIT ABOVE
 DROP   XXITWA-(4+36),R8
 DROP   *,R7
 DROP   SNENTRY,R6                 19668                       DROP  R6
1XCALL    (XCAL2025) (13:01) (15MAR04) XXXEXIT - Reset XPROC Environment and XEXIT                                          Page   88
0Current Usings:  (CP,R11) (CV,R12)
0Loc    Object Code    Addr1 Addr2  Stmt Lv Lineno    Source Statement           (Hibal 5, Asmedit 3.3)  HLASM R4.0  2004/03/15 13.01
+___    ______ ____    _____ _____  ____ __ ______    ______ _________
0                                  19676                       QLTORG
1XCALL    (XCAL2025) (13:01) (15MAR04) Delete EXEC File Routines                                                            Page   89
0Current Usings:  (CP,R11) (CV,R12)
0Loc    Object Code    Addr1 Addr2  Stmt Lv Lineno    Source Statement           (Hibal 5, Asmedit 3.3)  HLASM R4.0  2004/03/15 13.01
+___    ______ ____    _____ _____  ____ __ ______    ______ _________
0                                  19712              ¿þþþþþþþþþþþþþþþþþþþþþþþþþþþþþþþþþþþþþþþþþþþþþþþþþþþþþþþþþþþþþþþþþþþþþÜ
                                   19713              Ÿ                                                                     Ÿ
                                   19714              Ÿ                                                                     Ÿ
                                   19715              Ÿ  DELUEXEC - DELETE USER EXEC FILE                                   Ÿ
                                   19716              Ÿ                                                                     Ÿ
                                   19717              Ÿ  THREE THINGS MUST BE DELETED,, THE EXEC FILE LINES, THE FLOW       Ÿ
                                   19718              Ÿ  FILE LINES,, AND THE EXEC INFO ENTRY.  WE DO NOT CHECK TO SEE      Ÿ
                                   19719              Ÿ  IF THE EXEC EXISTS NOR DO WE CARE,,, USER CAN CLOBBER SELF IF      Ÿ
                                   19720              Ÿ  USER UNLOADS AN EXEC THAT CALLED THE EXEC THAT UNLOADS... THAT     Ÿ
                                   19721              Ÿ  WOULD BE A NO-NO,,, (A RELOAD COULD DO SAME THING,, UCK).          Ÿ
                                   19722              Ÿ  HEY ! THIS ROUTINES WILL NOT UNLOAD PUBLIC EXECS.                  Ÿ
                                   19723              Ÿ                                                                     Ÿ
                                   19724              Ÿ  ON ENTRY:                                                          Ÿ
                                   19725              Ÿ       R0 - EXEC SET NUMBER                                          Ÿ
                                   19726              Ÿ       R1 - EXEC RECORD GROUP POINTER   (=A(CPEXEC))                 Ÿ
                                   19727              Ÿ                                                                     Ÿ
                                   19728              Ÿ  ON EXIT:                                                           Ÿ
                                   19729              Ÿ      R15 - CC=ZERO, IF IT IS THERE IT IS DELETED                    Ÿ
                                   19730              Ÿ                                                                     Ÿ
                                   19731              Ÿ                                                                     Ÿ
                                                      ¾þþþþþþþþþþþþþþþþþþþþþþþþþþþþþþþþþþþþþþþþþþþþþþþþþþþþþþþþþþþþþþþþþþþþþ»
0002E18 50E0 D000/9008_      00000 19732              DELUEXEC PROC  ,
 USING  *,R7
 002E32 1860                       19771                       LR    R6,R0               R6 - SETNO OF EXEC TO DELETE
 002E34 1851                       19772                       LR    R5,R1               R5 - RECORD GROUP POINTER
 002E36 5960 7806/47B0_      03638 19773                       IF    ((R6,LT,CP#FEXEC),AND,(R6,GT,CP#FEXEC+CPMAXXCT)),BEGIN
 002E46 0000                       19806  1                      BOMB
 002E48                            19808                       END
                                   19812
                                   19813                       COMMENT                   DELETE EXEC/FLOW LINES
 002E48 41F0 B4A4            004A4 19814                       LA    R15,CPEXEC
 002E4C 1806                       19815                       LR    R0,R6
 002E4E 58E0 780E/0DEE       03640 19816                       VCALL XDELSET
 002E54 41F0 B4C4            004C4 19820                       LA    R15,CPFLOW
 002E58 1806                       19821                       LR    R0,R6
 002E5A 58E0 780E/0DEE       03640 19822                       VCALL XDELSET
                                   19826
                                   19827                       COMMENT                   DELETE EXEC SET INFO
 002E60 1806                       19828                       LR    R0,R6
 002E62 1815                       19829                       LR    R1,R5
 002E64 58E0 7812/0DEE       03644 19830                       ACALL DELUINFO
                                   19834
 002E6A 1BFF                       19835                       CLEAR R15
 002E6C 18D8/9808 D004_            19839                       PEND  ,
 DROP   *,R7
1XCALL    (XCAL2025) (13:01) (15MAR04) Delete EXEC File Routines                                                            Page   90
0Current Usings:  (CP,R11) (CV,R12)
0Loc    Object Code    Addr1 Addr2  Stmt Lv Lineno    Source Statement           (Hibal 5, Asmedit 3.3)  HLASM R4.0  2004/03/15 13.01
+___    ______ ____    _____ _____  ____ __ ______    ______ _________
0                                  19860              ** >>>>> DO NOT CALL THIS ROUTINE !!!! <<<<<<
                                   19861              **
                                   19862              **  THIS ROUTINE IS OBSOLETE, SEE UPDTINFO ROUTINE !!!
                                   19863              **
                                   19864              **  DELPEXEC - DO NOT USE !   (DELETE PUBLIC EXEC)
                                   19865              **
                                   19866              **  THREE THINGS MUST BE DELETED,, THE EXEC FILE LINES, THE FLOW
                                   19867              **  FILE LINES,, AND THE EXEC INFO ENTRY.  WE DO NOT CHECK TO SEE
                                   19868              **  IF THE EXEC EXISTS NOR DO WE CARE,,, USER CAN CLOBBER SELF IF
                                   19869              **  USER UNLOADS AN EXEC THAT CALLED THE EXEC THAT UNLOADS... THAT
                                   19870              **  WOULD BE A NO-NO,,, (A RELOAD COULD DO SAME THING,, UCK).
                                   19871              **
                                   19872              **  ON ENTRY:
                                   19873              **       R0 - EXEC SET NUMBER
                                   19874              **       R1 - EXEC RECORD GROUP POINTER   (=A(CVEXEC))
                                   19875              **
                                   19876              **  ON EXIT:
                                   19877              **      R15 - CC=ZERO, IF IT IS THERE IT IS DELETED
                                   19878              **
                                   19879              *
 002E7A 50E0 D000/9008_      00000 19880              DELPEXEC PROC  ,
 USING  *,R7
 002E94 1860                       19919                       LR    R6,R0               R6 - SETNO OF EXEC TO DELETE
 002E96 1851                       19920                       LR    R5,R1               R5 - EXEC RECORD GROUP POINTER
 002E98 5900 77B4/47B0_      03648 19921                       IF    (R0,LT,CV#FEXEC),BEGIN
 002EA0 0000                       19938  1                      BOMB
 002EA2                            19940                       END
                                   19944
                                   19945                       COMMENT                   DELETE EXEC/FLOW LINES
 002EA2 41F0 C300            00300 19946                       LA    R15,CVEXEC
 002EA6 1806                       19947                       LR    R0,R6
 002EA8 58E0 77AC/0DEE       03640 19948                       VCALL XDELSET
 002EAE 41F0 C320            00320 19952                       LA    R15,CVFLOW
 002EB2 1806                       19953                       LR    R0,R6
 002EB4 58E0 77AC/0DEE       03640 19954                       VCALL XDELSET
                                   19958
                                   19959                       COMMENT                   DELETE EXEC SET INFO
 002EBA 1806                       19960                       LR    R0,R6
 002EBC 1815                       19961                       LR    R1,R5
 002EBE 58E0 77B8/0DEE       0364C 19962                       ACALL DELPINFO
                                   19966
 002EC4 1BFF                       19967                       CLEAR R15
 002EC6 18D8/9808 D004_            19971                       PEND  ,
 DROP   *,R7
1XCALL    (XCAL2025) (13:01) (15MAR04) EXEC INFO Routines                                                                   Page   91
0Current Usings:  (CP,R11) (CV,R12)
0Loc    Object Code    Addr1 Addr2  Stmt Lv Lineno    Source Statement           (Hibal 5, Asmedit 3.3)  HLASM R4.0  2004/03/15 13.01
+___    ______ ____    _____ _____  ____ __ ______    ______ _________
0                                  19992              ¿þþþþþþþþþþþþþþþþþþþþþþþþþþþþþþþþþþþþþþþþþþþþþþþþþþþþþþþþþþþþþþþþþþþþþÜ
                                   19993              Ÿ                                                                     Ÿ
                                   19994              Ÿ                                                                     Ÿ
                                   19995              Ÿ  GETXIFNO - GET EXEC INFOMATION                                     Ÿ
                                   19996              Ÿ                                                                     Ÿ
                                   19997              Ÿ  ON ENTRY:                                                          Ÿ
                                   19998              Ÿ       R0 - ZERO                                                     Ÿ
                                   19999              Ÿ      @R1 - FILE NAME IN XDSNAME DSECT FORMAT                        Ÿ
                                   20000              Ÿ      @R2 - EXEC INFO DSECT                                          Ÿ
                                   20001              Ÿ  OR.. R0 - EXEC SET NUMBER                                          Ÿ
                                   20002              Ÿ       R1 - EXEC RECORD GROUP POINTER                                Ÿ
                                   20003              Ÿ      @R2 - EXEC INFO DSECT                                          Ÿ
                                   20004              Ÿ                                                                     Ÿ
                                   20005              Ÿ  ON EXIT:                                                           Ÿ
                                   20006              Ÿ      R15 - CC=ZERO, GOT INFO                                        Ÿ
                                   20007              Ÿ            CC=NZ, SET DOES NOT EXIST                                Ÿ
                                   20008              Ÿ                                                                     Ÿ
                                   20009              Ÿ  NOTE: ON ENTRY, R0,R1 - SPECIFY EXEC FILE, CAN BE SPECIFIED AS     Ÿ
                                   20010              Ÿ        EXEC FILE NAME, OR AS A REC GROUP POINTER AND A SET NUMBER.  Ÿ
                                   20011              Ÿ                                                                     Ÿ
                                                      ¾þþþþþþþþþþþþþþþþþþþþþþþþþþþþþþþþþþþþþþþþþþþþþþþþþþþþþþþþþþþþþþþþþþþþþ»
0002ED4 50E0 D000/9008_      00000 20012              GETXINFO PROC  ,
 USING  *,R7
 002EEE 58E0 7762/0DEE       03650 20051                       ACALL GETUINFO            FIRST TRY USERS EXEC INFO
 002EF4 4780 7010            02EFE 20055                       IF    NZ,BEGIN
 002EF8 58E0 7766/0DEE       03654 20066  1                      ACALL GETPINFO            THEN TRY PUBLIC EXEC INFO
 002EFE                            20070                       END
 002EFE 18D8/9808 D004_            20074                       PEND  ,
 DROP   *,R7
1XCALL    (XCAL2025) (13:01) (15MAR04) EXEC INFO Routines                                                                   Page   92
0Current Usings:  (CP,R11) (CV,R12)
0Loc    Object Code    Addr1 Addr2  Stmt Lv Lineno    Source Statement           (Hibal 5, Asmedit 3.3)  HLASM R4.0  2004/03/15 13.01
+___    ______ ____    _____ _____  ____ __ ______    ______ _________
0                                  20095              ¿þþþþþþþþþþþþþþþþþþþþþþþþþþþþþþþþþþþþþþþþþþþþþþþþþþþþþþþþþþþþþþþþþþþþþÜ
                                   20096              Ÿ                                                                     Ÿ
                                   20097              Ÿ                                                                     Ÿ
                                   20098              Ÿ  GTUXIFNO - GET USER'S EXEC INFOMATION                              Ÿ
                                   20099              Ÿ                                                                     Ÿ
                                   20100              Ÿ  NOTE: SEARCHES USER'S EXEC FILES ONLY                              Ÿ
                                   20101              Ÿ                                                                     Ÿ
                                   20102              Ÿ  ON ENTRY:                                                          Ÿ
                                   20103              Ÿ       R0 - ZERO                                                     Ÿ
                                   20104              Ÿ      @R1 - FILE NAME IN XDSNAME DSECT FORMAT                        Ÿ
                                   20105              Ÿ      @R2 - EXEC INFO DSECT                                          Ÿ
                                   20106              Ÿ  OR.. R0 - EXEC SET NUMBER                                          Ÿ
                                   20107              Ÿ       R1 - EXEC RECORD GROUP POINTER                                Ÿ
                                   20108              Ÿ      @R2 - EXEC INFO DSECT                                          Ÿ
                                   20109              Ÿ                                                                     Ÿ
                                   20110              Ÿ  ON EXIT:                                                           Ÿ
                                   20111              Ÿ      R15 - CC=ZERO, GOT INFO                                        Ÿ
                                   20112              Ÿ            CC=NZ, SET DOES NOT EXIST                                Ÿ
                                   20113              Ÿ                                                                     Ÿ
                                   20114              Ÿ  NOTE: ON ENTRY, R0,R1 - SPECIFY EXEC FILE, CAN BE SPECIFIED AS     Ÿ
                                   20115              Ÿ        EXEC FILE NAME, OR AS A REC GROUP POINTER AND A SET NUMBER.  Ÿ
                                   20116              Ÿ                                                                     Ÿ
                                                      ¾þþþþþþþþþþþþþþþþþþþþþþþþþþþþþþþþþþþþþþþþþþþþþþþþþþþþþþþþþþþþþþþþþþþþþ»
0000000                00000 000BC 20117              GETXWA   RECORD BEGIN
 000000                            20125  1           GETXR0     DS    F
 000004                            20126  1           GETXR1     DS    F
 000008                            20127  1           GETXR2     DS    F
 00000C                            20128  1           GETXXF     DS    XL(L'XFENTRY)
 00006C                            20129  1           GETXXFX    DS    XL(L'XFXENTRY)
 0000BC                000BC 000BC 20130                       END
                                   20139              *
                                   20140              *
 002F0C 50E0 D000/9008_      00000 20141              GETUINFO PROC  GETXWA
 USING  *,R7
 USING  GETXWA-(4+36),R8
 USING  XFENTRY,R6                 20191                       USING XFENTRY,R6
 USING  XFXENTRY,R5                20200                       USING XFXENTRY,R5
 002F26 4160 8034            0000C 20209                       LA    R6,GETXXF
 002F2A 4150 8094            0006C 20210                       LA    R5,GETXXFX
 002F2E D75F 6000 6000 00000 00000 20211                       CLEAR XFENTRY
 002F34 D74F 5000 5000 00000 00000 20218                       CLEAR XFXENTRY
 002F3A 5000 8028            00000 20225                       ST    R0,GETXR0
 002F3E 5010 802C            00004 20226                       ST    R1,GETXR1
 002F42 5020 8030            00008 20227                       ST    R2,GETXR2
                                   20228
                                   20229                       COMMENT                   SET XINFO SET NUMBERS
 002F46 41F0 B524            00524 20230                       LA    R15,CPRG16
 002F4A 4100 0006            00006 20231                       LA    R0,CP#XFILE
 002F4E 58E0 7732/0DEE       03658 20232                       VCALL XSETSET
 002F54 41F0 B544            00544 20236                       LA    R15,CPRG64
 002F58 4100 0006            00006 20237                       LA    R0,CP#XFILE
 002F5C 58E0 7732/0DEE       03658 20238                       VCALL XSETSET
                                   20242
1XCALL    (XCAL2025) (13:01) (15MAR04) EXEC INFO Routines                                                                   Page   93
0Current Usings:  (XFXENTRY,R5) (XFENTRY,R6) (*,R7) (GETXWA-(4+36),R8) (CP,R11) (CV,R12)
0Loc    Object Code    Addr1 Addr2  Stmt Lv Lineno    Source Statement           (Hibal 5, Asmedit 3.3)  HLASM R4.0  2004/03/15 13.01
+___    ______ ____    _____ _____  ____ __ ______    ______ _________
0                                  20243                       COMMENT                   GET NAME OF EXEC FILE
 002F62 5800 8028            00000 20244                       L     R0,GETXR0
 002F66 5810 802C            00004 20245                       L     R1,GETXR1
 002F6A 1200/4770 7050             20246                       IF    (R0,Z),BEGIN        IF NAME, JUST MOVE
 002F70 D23F 6000 1000 00000 00000 20260  1                      MVC   XFNAME,@R1
 002F76                            20261                       END
 002F76 1200/4780 707A             20265                       IF    (R0,NZ),BEGIN       IF NO NAME, GET FROM NDX FILE
 002F7C 9001 5000            00000 20279  1                      STM   R0,R1,XFXENTRY
 002F80 41F0 B524            00524 20280  1                      LA    R15,CPRG16
 002F84 4100 0040            00040 20281  1                      LA    R0,L'XFXENTRY-L'XFXNDX
 002F88 4110 5010            00010 20282  1                      LA    R1,XFXENTRY+L'XFXNDX
 002F8C 4120 5000            00000 20283  1                      LA    R2,XFXENTRY
 002F90 58E0 7736/0DEE       0365C 20284  1                      VCALL XGET
 002F96 4770 70A4            02FCA 20288  1                      BNZ   GTUXDONE
 002F9A D23F 6000 5010 00000 00010 20289  1                      MVC   XFNAME,XFXNAME
 002FA0                            20290                       END
                                   20294
                                   20295                       COMMENT                   GET EXEC INFO, NAME IS XFNAME
 002FA0 41F0 B544            00544 20296                       LA    R15,CPRG64
 002FA4 4100 0020            00020 20297                       LA    R0,L'XFENTRY-L'XFNAME
 002FA8 4110 6040            00040 20298                       LA    R1,XFENTRY+L'XFNAME
 002FAC 4120 6000            00000 20299                       LA    R2,XFENTRY
 002FB0 58E0 7736/0DEE       0365C 20300                       VCALL XGET
 002FB6 4770 70A4            02FCA 20304                       BNZ   GTUXDONE
                                   20305
                                   20306                       COMMENT                   GOT INFO, MOVE TO CALLERS DSECT
 002FBA 5820 8030            00008 20307                       L     R2,GETXR2
 002FBE 4130 0060            00060 20308                       LA    R3,L'XFENTRY
 002FC2 4140 6000            00000 20309                       LA    R4,XFENTRY
 002FC6 1853                       20310                       LR    R5,R3
 002FC8 0E24                       20311                       MVCL  R2,R4
                                   20312
 002FCA                            20313              GTUXDONE LABEL ,
 002FCA 18D8/9808 D004_            20315                       PEND  ,
 DROP   GETXWA-(4+36),R8
 DROP   *,R7
 DROP   XFENTRY,R6                 20340                       DROP  R6
 DROP   XFXENTRY,R5                20347                       DROP  R5
1XCALL    (XCAL2025) (13:01) (15MAR04) EXEC INFO Routines                                                                   Page   94
0Current Usings:  (CP,R11) (CV,R12)
0Loc    Object Code    Addr1 Addr2  Stmt Lv Lineno    Source Statement           (Hibal 5, Asmedit 3.3)  HLASM R4.0  2004/03/15 13.01
+___    ______ ____    _____ _____  ____ __ ______    ______ _________
0                                  20355              ¿þþþþþþþþþþþþþþþþþþþþþþþþþþþþþþþþþþþþþþþþþþþþþþþþþþþþþþþþþþþþþþþþþþþþþÜ
                                   20356              Ÿ                                                                     Ÿ
                                   20357              Ÿ                                                                     Ÿ
                                   20358              Ÿ  GETPINFO - GET PUBLIC EXEC INFOMATION                              Ÿ
                                   20359              Ÿ                                                                     Ÿ
                                   20360              Ÿ  NOTE: SEARCHES PUBLIC EXEC FILES ONLY                              Ÿ
                                   20361              Ÿ                                                                     Ÿ
                                   20362              Ÿ  ON ENTRY:                                                          Ÿ
                                   20363              Ÿ       R0 - ZERO                                                     Ÿ
                                   20364              Ÿ      @R1 - FILE NAME IN XDSNAME DSECT FORMAT                        Ÿ
                                   20365              Ÿ      @R2 - EXEC INFO DSECT                                          Ÿ
                                   20366              Ÿ  OR.. R0 - EXEC SET NUMBER                                          Ÿ
                                   20367              Ÿ       R1 - EXEC RECORD GROUP POINTER                                Ÿ
                                   20368              Ÿ      @R2 - EXEC INFO DSECT                                          Ÿ
                                   20369              Ÿ                                                                     Ÿ
                                   20370              Ÿ  ON EXIT:                                                           Ÿ
                                   20371              Ÿ      R15 - CC=ZERO, GOT INFO                                        Ÿ
                                   20372              Ÿ            CC=NZ, SET DOES NOT EXIST                                Ÿ
                                   20373              Ÿ                                                                     Ÿ
                                   20374              Ÿ  NOTE: ON ENTRY, R0,R1 - SPECIFY EXEC FILE, CAN BE SPECIFIED AS     Ÿ
                                   20375              Ÿ        EXEC FILE NAME, OR AS A REC GROUP POINTER AND A SET NUMBER.  Ÿ
                                   20376              Ÿ                                                                     Ÿ
                                                      ¾þþþþþþþþþþþþþþþþþþþþþþþþþþþþþþþþþþþþþþþþþþþþþþþþþþþþþþþþþþþþþþþþþþþþþ»
0002FD8 50E0 D000/9008_      00000 20377              GETPINFO PROC  GETXWA
 USING  *,R7
 USING  GETXWA-(4+36),R8
 USING  XFENTRY,R6                 20427                       USING XFENTRY,R6
 USING  XFXENTRY,R5                20436                       USING XFXENTRY,R5
 002FF2 4160 8034            0000C 20445                       LA    R6,GETXXF
 002FF6 4150 8094            0006C 20446                       LA    R5,GETXXFX
 002FFA D75F 6000 6000 00000 00000 20447                       CLEAR XFENTRY
 003000 D74F 5000 5000 00000 00000 20454                       CLEAR XFXENTRY
 003006 5000 8028            00000 20461                       ST    R0,GETXR0
 00300A 5010 802C            00004 20462                       ST    R1,GETXR1
 00300E 5020 8030            00008 20463                       ST    R2,GETXR2
                                   20464
                                   20465                       COMMENT                   SET XINFO SET NUMBERS
 003012 41F0 C360            00360 20466                       LA    R15,CVRG16
 003016 4100 0006            00006 20467                       LA    R0,CP#XFILE
 00301A 58E0 7666/0DEE       03658 20468                       VCALL XSETSET
 003020 41F0 C380            00380 20472                       LA    R15,CVRG64
 003024 4100 0006            00006 20473                       LA    R0,CP#XFILE
 003028 58E0 7666/0DEE       03658 20474                       VCALL XSETSET
                                   20478
                                   20479                       COMMENT                   GET NAME OF EXEC FILE
 00302E 5800 8028            00000 20480                       L     R0,GETXR0
 003032 5810 802C            00004 20481                       L     R1,GETXR1
 003036 1200/4770 7050             20482                       IF    (R0,Z),BEGIN        IF NAME, JUST MOVE
 00303C D23F 6000 1000 00000 00000 20496  1                      MVC   XFNAME,@R1
 003042                            20497                       END
 003042 1200/4780 707A             20501                       IF    (R0,NZ),BEGIN       IF NO NAME, GET FROM NDX FILE
 003048 9001 5000            00000 20515  1                      STM   R0,R1,XFXENTRY
 00304C 41F0 C360            00360 20516  1                      LA    R15,CVRG16
1XCALL    (XCAL2025) (13:01) (15MAR04) EXEC INFO Routines                                                                   Page   95
0Current Usings:  (XFXENTRY,R5) (XFENTRY,R6) (*,R7) (GETXWA-(4+36),R8) (CP,R11) (CV,R12)
0Loc    Object Code    Addr1 Addr2  Stmt Lv Lineno    Source Statement           (Hibal 5, Asmedit 3.3)  HLASM R4.0  2004/03/15 13.01
+___    ______ ____    _____ _____  ____ __ ______    ______ _________
0003050 4100 0040            00040 20517  1                      LA    R0,L'XFXENTRY-L'XFXNDX
 003054 4110 5010            00010 20518  1                      LA    R1,XFXENTRY+L'XFXNDX
 003058 4120 5000            00000 20519  1                      LA    R2,XFXENTRY
 00305C 58E0 766A/0DEE       0365C 20520  1                      VCALL XGET
 003062 4770 70A4            03096 20524  1                      BNZ   GTPXDONE
 003066 D23F 6000 5010 00000 00010 20525  1                      MVC   XFNAME,XFXNAME
 00306C                            20526                       END
                                   20530
                                   20531                       COMMENT                   GET EXEC INFO, NAME IS XFNAME
 00306C 41F0 C380            00380 20532                       LA    R15,CVRG64
 003070 4100 0020            00020 20533                       LA    R0,L'XFENTRY-L'XFNAME
 003074 4110 6040            00040 20534                       LA    R1,XFENTRY+L'XFNAME
 003078 4120 6000            00000 20535                       LA    R2,XFENTRY
 00307C 58E0 766A/0DEE       0365C 20536                       VCALL XGET
 003082 4770 70A4            03096 20540                       BNZ   GTPXDONE
                                   20541
                                   20542                       COMMENT                   GOT INFO, MOVE TO CALLERS DSECT
 003086 5820 8030            00008 20543                       L     R2,GETXR2
 00308A 4130 0060            00060 20544                       LA    R3,L'XFENTRY
 00308E 4140 6000            00000 20545                       LA    R4,XFENTRY
 003092 1853                       20546                       LR    R5,R3
 003094 0E24                       20547                       MVCL  R2,R4
                                   20548
 003096                            20549              GTPXDONE LABEL ,
 003096 18D8/9808 D004_            20551                       PEND  ,
 DROP   GETXWA-(4+36),R8
 DROP   *,R7
 DROP   XFENTRY,R6                 20576                       DROP  R6
 DROP   XFXENTRY,R5                20583                       DROP  R5
1XCALL    (XCAL2025) (13:01) (15MAR04) EXEC INFO Routines                                                                   Page   96
0Current Usings:  (CP,R11) (CV,R12)
0Loc    Object Code    Addr1 Addr2  Stmt Lv Lineno    Source Statement           (Hibal 5, Asmedit 3.3)  HLASM R4.0  2004/03/15 13.01
+___    ______ ____    _____ _____  ____ __ ______    ______ _________
0                                  20591              ¿þþþþþþþþþþþþþþþþþþþþþþþþþþþþþþþþþþþþþþþþþþþþþþþþþþþþþþþþþþþþþþþþþþþþþÜ
                                   20592              Ÿ                                                                     Ÿ
                                   20593              Ÿ                                                                     Ÿ
                                   20594              Ÿ  SETXINFO - SET EXEC INFOMATION                                     Ÿ
                                   20595              Ÿ                                                                     Ÿ
                                   20596              Ÿ  ON ENTRY:                                                          Ÿ
                                   20597              Ÿ      @R2 - EXEC INFO DSECT,  ALL FIELD FILLED                       Ÿ
                                   20598              Ÿ                                                                     Ÿ
                                   20599              Ÿ  ON EXIT:                                                           Ÿ
                                   20600              Ÿ       DONE.                                                         Ÿ
                                   20601              Ÿ                                                                     Ÿ
                                   20602              Ÿ                                                                     Ÿ
                                                      ¾þþþþþþþþþþþþþþþþþþþþþþþþþþþþþþþþþþþþþþþþþþþþþþþþþþþþþþþþþþþþþþþþþþþþþ»
0000000                00000 00050 20603              STXWA    RECORD BEGIN
 000000                            20611  1           STXXFX     DS    XL(L'XFXENTRY)
 000050                00050 00050 20612                       END
                                   20621              *
                                   20622              *
 0030A4 50E0 D000/9008_      00000 20623              SETXINFO PROC  STXWA
 USING  *,R7
 USING  STXWA-(4+36),R8
 USING  XFENTRY,R6                 20673                       USING XFENTRY,R6
 USING  XFXENTRY,R5                20682                       USING XFXENTRY,R5
 0030BE 1862                       20691                       LR    R6,R2
 0030C0 4150 8028            00000 20692                       LA    R5,STXXFX
                                   20693
                                   20694                       COMMENT                   FORMAT INDEX ENTRY
 0030C4 D74F 5000 5000 00000 00000 20695                       CLEAR XFXENTRY
 0030CA 5800 6044            00044 20702                       L     R0,XF#SETNO
 0030CE 5810 6048            00048 20703                       L     R1,XFRGEXEC
 0030D2 9001 5000            00000 20704                       STM   R0,R1,XFXNDX
 0030D6 D23F 5010 6000 00010 00000 20705                       MVC   XFXNAME,XFNAME
                                   20706
                                   20707                       COMMENT                   SET XINFO SET NUMBERS
 0030DC 41F0 B524            00524 20708                       LA    R15,CPRG16
 0030E0 4100 0006            00006 20709                       LA    R0,CP#XFILE
 0030E4 58E0 759A/0DEE       03658 20710                       VCALL XSETSET
 0030EA 41F0 B544            00544 20714                       LA    R15,CPRG64
 0030EE 4100 0006            00006 20715                       LA    R0,CP#XFILE
 0030F2 58E0 759A/0DEE       03658 20716                       VCALL XSETSET
 0030F8 41F0 C360            00360 20720                       LA    R15,CVRG16
 0030FC 4100 0006            00006 20721                       LA    R0,CP#XFILE
 003100 58E0 759A/0DEE       03658 20722                       VCALL XSETSET
 003106 41F0 C380            00380 20726                       LA    R15,CVRG64
 00310A 4100 0006            00006 20727                       LA    R0,CP#XFILE
 00310E 58E0 759A/0DEE       03658 20728                       VCALL XSETSET
                                   20732
                                   20733                       COMMENT                   IF PUBLIC EXEC, BEGIN
 003114 9501 6040/4770_00040       20734                       IF    XFPUBLIC,BEGIN
 00311C 41F0 C360            00360 20749  1                      LA    R15,CVRG16
 003120 4100 0040            00040 20750  1                      LA    R0,L'XFXENTRY-L'XFXNDX
 003124 4110 5010            00010 20751  1                      LA    R1,XFXENTRY+L'XFXNDX
 003128 4120 5000            00000 20752  1                      LA    R2,XFXENTRY
1XCALL    (XCAL2025) (13:01) (15MAR04) EXEC INFO Routines                                                                   Page   97
0Current Usings:  (XFXENTRY,R5) (XFENTRY,R6) (*,R7) (STXWA-(4+36),R8) (CP,R11) (CV,R12)
0Loc    Object Code    Addr1 Addr2  Stmt Lv Lineno    Source Statement           (Hibal 5, Asmedit 3.3)  HLASM R4.0  2004/03/15 13.01
+___    ______ ____    _____ _____  ____ __ ______    ______ _________
000312C 58E0 75A2/0DEE       03660 20753  1                      VCALL XPUT                SAVE ENTRY INDEX
 003132 47B0 7090            0314E 20757  1                      IF    NEG,BEGIN
 003136 900F C780/4DE0_      00780 20768  2                        KAPUT ,'Too many EXEC files loaded.  Page system overflow.'
 00314E                            20775  1                      END
 00314E 47D0 7096            03154 20779  1                      IF    POS,BEGIN
 003152 0000                       20790  2                        BOMB
 003154                            20792  1                      END
 003154 41F0 C380            00380 20796  1                      LA    R15,CVRG64
 003158 4100 0020            00020 20797  1                      LA    R0,L'XFENTRY-L'XFNAME
 00315C 4110 6040            00040 20798  1                      LA    R1,XFENTRY+L'XFNAME
 003160 4120 6000            00000 20799  1                      LA    R2,XFENTRY
 003164 58E0 75A2/0DEE       03660 20800  1                      VCALL XPUT                SAVE ENTRY
 00316A 47B0 70C8            03186 20804  1                      IF    NEG,BEGIN
 00316E 900F C780/4DE0_      00780 20815  2                        KAPUT ,'Too many EXEC files loaded.  Page system overflow.'
 003186                            20822  1                      END
 003186 47D0 70CE            0318C 20826  1                      IF    POS,BEGIN
 00318A 0000                       20837  2                        BOMB
 00318C                            20839  1                      END
 00318C                            20843                       END
                                   20847
                                   20848                       COMMENT                   IF USERS EXEC, BEGIN
 00318C 70D2/47F0 714A_0318C 0311A 20849                       ELSEIF XFUSERX,BEGIN
 003198 41F0 B524            00524 20873  1                      LA    R15,CPRG16
 00319C 4100 0040            00040 20874  1                      LA    R0,L'XFXENTRY-L'XFXNDX
 0031A0 4110 5010            00010 20875  1                      LA    R1,XFXENTRY+L'XFXNDX
 0031A4 4120 5000            00000 20876  1                      LA    R2,XFXENTRY
 0031A8 58E0 75A2/0DEE       03660 20877  1                      VCALL XPUT                SAVE ENTRY INDEX
 0031AE 47B0 710C            031CA 20881  1                      IF    NEG,BEGIN
 0031B2 900F C780/4DE0_      00780 20892  2                        KAPUT ,'Too many EXEC files loaded.  Page system overflow.'
 0031CA                            20899  1                      END
 0031CA 47D0 7112            031D0 20903  1                      IF    POS,BEGIN
 0031CE 0000                       20914  2                        BOMB
 0031D0                            20916  1                      END
 0031D0 41F0 B544            00544 20920  1                      LA    R15,CPRG64
 0031D4 4100 0020            00020 20921  1                      LA    R0,L'XFENTRY-L'XFNAME
 0031D8 4110 6040            00040 20922  1                      LA    R1,XFENTRY+L'XFNAME
 0031DC 4120 6000            00000 20923  1                      LA    R2,XFENTRY
 0031E0 58E0 75A2/0DEE       03660 20924  1                      VCALL XPUT                SAVE ENTRY
 0031E6 47B0 7144            03202 20928  1                      IF    NEG,BEGIN
 0031EA 900F C780/4DE0_      00780 20939  2                        KAPUT ,'Too many EXEC files loaded.  Page system overflow.'
 003202                            20946  1                      END
 003202 47D0 714A            03208 20950  1                      IF    POS,BEGIN
 003206 0000                       20961  2                        BOMB
 003208                            20963  1                      END
 003208                            20967                       END
                                   20971
                                   20972                       COMMENT                   IF NOT PUBLIC OR USERS
 003208 714E/47F0 7150 03208 03196 20973                       ELSE  BEGIN
 00320C 0000                       20984  1                      BOMB
 00320E                            20986                       END
                                   20990
 00320E 1BFF                       20991                       CLEAR R15
 003210 18D8/9808 D004_            20995                       PEND  ,
 DROP   STXWA-(4+36),R8
1XCALL    (XCAL2025) (13:01) (15MAR04) EXEC INFO Routines                                                                   Page   98
0Current Usings:  (XFXENTRY,R5) (XFENTRY,R6) (CP,R11) (CV,R12)
0Loc    Object Code    Addr1 Addr2  Stmt Lv Lineno    Source Statement           (Hibal 5, Asmedit 3.3)  HLASM R4.0  2004/03/15 13.01
+___    ______ ____    _____ _____  ____ __ ______    ______ _________
0DROP   *,R7
 DROP   XFENTRY,R6                 21020                       DROP  R6
 DROP   XFXENTRY,R5                21027                       DROP  R5
1XCALL    (XCAL2025) (13:01) (15MAR04) EXEC INFO Routines                                                                   Page   99
0Current Usings:  (CP,R11) (CV,R12)
0Loc    Object Code    Addr1 Addr2  Stmt Lv Lineno    Source Statement           (Hibal 5, Asmedit 3.3)  HLASM R4.0  2004/03/15 13.01
+___    ______ ____    _____ _____  ____ __ ______    ______ _________
0                                  21035              ¿þþþþþþþþþþþþþþþþþþþþþþþþþþþþþþþþþþþþþþþþþþþþþþþþþþþþþþþþþþþþþþþþþþþþþÜ
                                   21036              Ÿ                                                                     Ÿ
                                   21037              Ÿ                                                                     Ÿ
                                   21038              Ÿ  DELXIFNO - DELETE USER EXEC INFOMATION                             Ÿ
                                   21039              Ÿ                                                                     Ÿ
                                   21040              Ÿ  ON ENTRY:                                                          Ÿ
                                   21041              Ÿ       R0 - ZERO                                                     Ÿ
                                   21042              Ÿ      @R1 - FILE NAME IN XDSNAME DSECT FORMAT                        Ÿ
                                   21043              Ÿ  OR.. R0 - EXEC SET NUMBER                                          Ÿ
                                   21044              Ÿ       R1 - EXEC RECORD GROUP POINTER                                Ÿ
                                   21045              Ÿ                                                                     Ÿ
                                   21046              Ÿ  ON EXIT:                                                           Ÿ
                                   21047              Ÿ      R15 - CC=ZERO                                                  Ÿ
                                   21048              Ÿ                                                                     Ÿ
                                   21049              Ÿ  NOTE: ON ENTRY, R0,R1 - SPECIFY EXEC FILE, CAN BE SPECIFIED AS     Ÿ
                                   21050              Ÿ        EXEC FILE NAME, OR AS A REC GROUP POINTER AND A SET NUMBER.  Ÿ
                                   21051              Ÿ                                                                     Ÿ
                                                      ¾þþþþþþþþþþþþþþþþþþþþþþþþþþþþþþþþþþþþþþþþþþþþþþþþþþþþþþþþþþþþþþþþþþþþþ»
0000000                00000 000B0 21052              DLXWA    RECORD BEGIN
 000000                            21060  1           DLXXF      DS    XL(L'XFENTRY)
 000060                            21061  1           DLXXFX     DS    XL(L'XFXENTRY)
 0000B0                000B0 000B0 21062                       END
                                   21071              *
                                   21072              *
 00321E 50E0 D000/9008_      00000 21073              DELUINFO PROC  DLXWA
 USING  *,R7
 USING  DLXWA-(4+36),R8
 USING  XFENTRY,R6                 21123                       USING XFENTRY,R6
 USING  XFXENTRY,R5                21132                       USING XFXENTRY,R5
 003238 4160 8028            00000 21141                       LA    R6,DLXXF
 00323C 4150 8088            00060 21142                       LA    R5,DLXXFX
                                   21143
                                   21144                       COMMENT                   GET XINFO,
 003240 4120 6000            00000 21145                       LA    R2,XFENTRY
 003244 58E0 7418/0DEE       03650 21146                       ACALL GETUINFO
                                   21150
                                   21151                       COMMENT                   IF ENTRY EXISTS, DELETE IT
 00324A 4770 7060            03298 21152                       IF    Z,BEGIN
                                   21163  1
                                   21164  1                      COMMENT                   SET XINFO SET NUMBERS
 00324E 41F0 B524            00524 21165  1                      LA    R15,CPRG16
 003252 4100 0006            00006 21166  1                      LA    R0,CP#XFILE
 003256 58E0 7420/0DEE       03658 21167  1                      VCALL XSETSET
 00325C 41F0 B544            00544 21171  1                      LA    R15,CPRG64
 003260 4100 0006            00006 21172  1                      LA    R0,CP#XFILE
 003264 58E0 7420/0DEE       03658 21173  1                      VCALL XSETSET
                                   21177  1
                                   21178  1                      COMMENT                   DELETE ENTRY
 00326A 41F0 B544            00544 21179  1                      LA    R15,CPRG64
 00326E 4120 6000            00000 21180  1                      LA    R2,XFENTRY
 003272 58E0 742C/0DEE       03664 21181  1                      VCALL XDELETE             DELETE ENTRY
 003278 D74F 5000 5000 00000 00000 21185  1                      CLEAR XFXENTRY
 00327E 5800 6044            00044 21192  1                      L     R0,XF#SETNO
1XCALL    (XCAL2025) (13:01) (15MAR04) EXEC INFO Routines                                                                   Page  100
0Current Usings:  (XFXENTRY,R5) (XFENTRY,R6) (*,R7) (DLXWA-(4+36),R8) (CP,R11) (CV,R12)
0Loc    Object Code    Addr1 Addr2  Stmt Lv Lineno    Source Statement           (Hibal 5, Asmedit 3.3)  HLASM R4.0  2004/03/15 13.01
+___    ______ ____    _____ _____  ____ __ ______    ______ _________
0003282 5810 6048            00048 21193  1                      L     R1,XFRGEXEC
 003286 9001 5000            00000 21194  1                      STM   R0,R1,XFXNDX
 00328A 41F0 B524            00524 21195  1                      LA    R15,CPRG16
 00328E 4120 5000            00000 21196  1                      LA    R2,XFXENTRY
 003292 58E0 742C/0DEE       03664 21197  1                      VCALL XDELETE             DELET INDEX
                                   21201  1
 003298                            21202                       END , OF IF ENTRY TO DELETE
                                   21206
 003298 1BFF                       21207                       CLEAR R15
 00329A 18D8/9808 D004_            21211                       PEND  ,
 DROP   DLXWA-(4+36),R8
 DROP   *,R7
 DROP   XFENTRY,R6                 21236                       DROP  R6
 DROP   XFXENTRY,R5                21243                       DROP  R5
1XCALL    (XCAL2025) (13:01) (15MAR04) EXEC INFO Routines                                                                   Page  101
0Current Usings:  (CP,R11) (CV,R12)
0Loc    Object Code    Addr1 Addr2  Stmt Lv Lineno    Source Statement           (Hibal 5, Asmedit 3.3)  HLASM R4.0  2004/03/15 13.01
+___    ______ ____    _____ _____  ____ __ ______    ______ _________
0                                  21251              ** >>>>> DO NOT CALL THIS ROUTINE !!!! <<<<<<
                                   21252              **
                                   21253              **  THIS ROUTINE IS OBSOLETE, SEE UPDTINFO ROUTINE !!!
                                   21254              **
                                   21255              **
                                   21256              **  DELXIFNO - DO NOT CALL (DELETE PUBLIC EXEC INFOMATION)
                                   21257              **
                                   21258              **  ON ENTRY:
                                   21259              **       R0 - ZERO
                                   21260              **      @R1 - FILE NAME IN XDSNAME DSECT FORMAT
                                   21261              **  OR.. R0 - EXEC SET NUMBER
                                   21262              **       R1 - EXEC RECORD GROUP POINTER
                                   21263              **
                                   21264              **  ON EXIT:
                                   21265              **      R15 - CC=ZERO
                                   21266              **
                                   21267              **  NOTE: ON ENTRY, R0,R1 - SPECIFY EXEC FILE, CAN BE SPECIFIED AS
                                   21268              **        EXEC FILE NAME, OR AS A REC GROUP POINTER AND A SET NUMBER.
                                   21269              **
                                   21270              **  CAUTION:  PUBLIC EXECS MAY NOT BE RELOADED !!! (8/86)
                                   21271              **
                                   21272              *
 0032A8 50E0 D000/9008_      00000 21273              DELPINFO PROC  DLXWA
 USING  *,R7
 USING  DLXWA-(4+36),R8
 USING  XFENTRY,R6                 21323                       USING XFENTRY,R6
 USING  XFXENTRY,R5                21332                       USING XFXENTRY,R5
 0032C2 4160 8028            00000 21341                       LA    R6,DLXXF
 0032C6 4150 8088            00060 21342                       LA    R5,DLXXFX
                                   21343
                                   21344                       COMMENT                   GET XINFO,
 0032CA 4120 6000            00000 21345                       LA    R2,XFENTRY
 0032CE 58E0 73A6/0DEE       03668 21346                       ACALL GETXINFO
                                   21350
                                   21351                       COMMENT                   IF ENTRY EXISTS, DELETE IT
 0032D4 4770 7060            03322 21352                       IF    Z,BEGIN
                                   21363  1
                                   21364  1                      COMMENT                   SET XINFO SET NUMBERS
 0032D8 41F0 C360            00360 21365  1                      LA    R15,CVRG16
 0032DC 4100 0006            00006 21366  1                      LA    R0,CP#XFILE
 0032E0 58E0 7396/0DEE       03658 21367  1                      VCALL XSETSET
 0032E6 41F0 C380            00380 21371  1                      LA    R15,CVRG64
 0032EA 4100 0006            00006 21372  1                      LA    R0,CP#XFILE
 0032EE 58E0 7396/0DEE       03658 21373  1                      VCALL XSETSET
                                   21377  1
                                   21378  1                      COMMENT                   DELETE ENTRY
 0032F4 41F0 C380            00380 21379  1                      LA    R15,CVRG64
 0032F8 4120 6000            00000 21380  1                      LA    R2,XFENTRY
 0032FC 58E0 73A2/0DEE       03664 21381  1                      VCALL XDELETE             DELETE ENTRY
 003302 D74F 5000 5000 00000 00000 21385  1                      CLEAR XFXENTRY
 003308 5800 6044            00044 21392  1                      L     R0,XF#SETNO
 00330C 5810 6048            00048 21393  1                      L     R1,XFRGEXEC
 003310 9001 5000            00000 21394  1                      STM   R0,R1,XFXNDX
 003314 41F0 C360            00360 21395  1                      LA    R15,CVRG16
1XCALL    (XCAL2025) (13:01) (15MAR04) EXEC INFO Routines                                                                   Page  102
0Current Usings:  (XFXENTRY,R5) (XFENTRY,R6) (*,R7) (DLXWA-(4+36),R8) (CP,R11) (CV,R12)
0Loc    Object Code    Addr1 Addr2  Stmt Lv Lineno    Source Statement           (Hibal 5, Asmedit 3.3)  HLASM R4.0  2004/03/15 13.01
+___    ______ ____    _____ _____  ____ __ ______    ______ _________
0003318 4120 5000            00000 21396  1                      LA    R2,XFXENTRY
 00331C 58E0 73A2/0DEE       03664 21397  1                      VCALL XDELETE             DELETE INDEX
                                   21401  1
 003322                            21402                       END , OF IF ENTRY TO DELETE
                                   21406
 003322 1BFF                       21407                       CLEAR R15
 003324 18D8/9808 D004_            21411                       PEND  ,
 DROP   DLXWA-(4+36),R8
 DROP   *,R7
 DROP   XFENTRY,R6                 21436                       DROP  R6
 DROP   XFXENTRY,R5                21443                       DROP  R5
1XCALL    (XCAL2025) (13:01) (15MAR04) EXEC INFO Routines                                                                   Page  103
0Current Usings:  (CP,R11) (CV,R12)
0Loc    Object Code    Addr1 Addr2  Stmt Lv Lineno    Source Statement           (Hibal 5, Asmedit 3.3)  HLASM R4.0  2004/03/15 13.01
+___    ______ ____    _____ _____  ____ __ ______    ______ _________
0                                  21451              ¿þþþþþþþþþþþþþþþþþþþþþþþþþþþþþþþþþþþþþþþþþþþþþþþþþþþþþþþþþþþþþþþþþþþþþÜ
                                   21452              Ÿ                                                                     Ÿ
                                   21453              Ÿ                                                                     Ÿ
                                   21454              Ÿ  UPDTINFO - UPDATE PUBLIC EXEC INFO                                 Ÿ
                                   21455              Ÿ                                                                     Ÿ
                                   21456              Ÿ  ON ENTRY:                                                          Ÿ
                                   21457              Ÿ      @R1 - EXEC INFO DSECT (OLD), ALL FIELDS FILLED                 Ÿ
                                   21458              Ÿ      @R2 - EXEC INFO DSECT (NEW), ALL FIELDS FILLED                 Ÿ
                                   21459              Ÿ                                                                     Ÿ
                                   21460              Ÿ  ON EXIT:                                                           Ÿ
                                   21461              Ÿ       DONE.                                                         Ÿ
                                   21462              Ÿ                                                                     Ÿ
                                   21463              Ÿ  THIS ROUTINE UPDATES PUBLIC EXEC FILE INFO.  IT IS USED WHEN       Ÿ
                                   21464              Ÿ  A PUBLIC EXEC IS REPLACED.  THE OLD EXEC CAN NOT BE DELETED        Ÿ
                                   21465              Ÿ  SOMEONE MAY STILL BE POINTED TO IT.  SO INSTEAD WE MARK IT         Ÿ
                                   21466              Ÿ  WITH A DIFFERENT NAME AND KEEP IT AROUND.  THIS ROUTINE SETS       Ÿ
                                   21467              Ÿ  UP BOTH THE NEW AND OLD NAMES AND INDEXES.  CARE IS TAKEN TO       Ÿ
                                   21468              Ÿ  ORDER THE INFO UPDATES SO THAT THE INFO IS ALWAYS CONSISTENT!      Ÿ
                                   21469              Ÿ  (IE. OLD MARKED ENTRY SAVED, NEW INDEX ENTRY SAVED, OLD INDEX      Ÿ
                                   21470              Ÿ  UPDATED, NEW ENTRY REPLACES OLD ENTRY,,, DIG IT !)                 Ÿ
                                   21471              Ÿ                                                                     Ÿ
                                                      ¾þþþþþþþþþþþþþþþþþþþþþþþþþþþþþþþþþþþþþþþþþþþþþþþþþþþþþþþþþþþþþþþþþþþþþ»
0000000                00000 00058 21472              UPPWA    RECORD BEGIN
 000000                            21480  1           UPPXFOLD   DS    A                   OLD XINFO DSECT
 000004                            21481  1           UPPXFNEW   DS    A                   NEW XINFO DSECT
 000008                            21482  1           UPPXFX     DS    XL(L'XFXENTRY)      ENTRY INDEX DSECT
 000058                00058 00058 21483                       END
                                   21492              *
                                   21493              *
 003332 50E0 D000/9008_      00000 21494              UPDTINFO PROC  UPPWA
 USING  *,R7
 USING  UPPWA-(4+36),R8
 USING  XFENTRY,R6                 21544                       USING XFENTRY,R6
 USING  XFXENTRY,R5                21553                       USING XFXENTRY,R5
 00334C 5010 8028            00000 21562                       ST    R1,UPPXFOLD
 003350 5020 802C            00004 21563                       ST    R2,UPPXFNEW
 003354 4150 8030            00008 21564                       LA    R5,UPPXFX
                                   21565
                                   21566                       COMMENT                   SET XINFO SET NUMBERS
 003358 41F0 C360            00360 21567                       LA    R15,CVRG16
 00335C 4100 0006            00006 21568                       LA    R0,CP#XFILE
 003360 58E0 730C/0DEE       03658 21569                       VCALL XSETSET
 003366 41F0 C380            00380 21573                       LA    R15,CVRG64
 00336A 4100 0006            00006 21574                       LA    R0,CP#XFILE
 00336E 58E0 730C/0DEE       03658 21575                       VCALL XSETSET
                                   21579
                                   21580                       COMMENT                   MARK OLD EXEC WITH NEW NAME
 003374 5860 8028            00000 21581                       L     R6,UPPXFOLD
 003378 4120 6000            00000 21582                       LA    R2,XFENTRY
 00337C 58E0 7320/0DEE       0366C 21583                       ACALL MRKNAME
                                   21587
                                   21588                       COMMENT                   SAVE OLD (MARKED) ENTRY
 003382 5860 8028            00000 21589                       L     R6,UPPXFOLD
1XCALL    (XCAL2025) (13:01) (15MAR04) EXEC INFO Routines                                                                   Page  104
0Current Usings:  (XFXENTRY,R5) (XFENTRY,R6) (*,R7) (UPPWA-(4+36),R8) (CP,R11) (CV,R12)
0Loc    Object Code    Addr1 Addr2  Stmt Lv Lineno    Source Statement           (Hibal 5, Asmedit 3.3)  HLASM R4.0  2004/03/15 13.01
+___    ______ ____    _____ _____  ____ __ ______    ______ _________
0003386 41F0 C380            00380 21590                       LA    R15,CVRG64
 00338A 4100 0020            00020 21591                       LA    R0,L'XFENTRY-L'XFNAME
 00338E 4110 6040            00040 21592                       LA    R1,XFENTRY+L'XFNAME
 003392 4120 6000            00000 21593                       LA    R2,XFNAME
 003396 58E0 7314/0DEE       03660 21594                       VCALL XPUT                SAVE ENTRY INDEX
 00339C 47B0 706C            033B8 21598                       IF    NEG,BEGIN
 0033A0 900F C780/4DE0_      00780 21609  1                      KAPUT ,'Too many EXEC files loaded.  Page system overflow.'
 0033B8                            21616                       END
 0033B8 47D0 7072            033BE 21620                       IF    POS,BEGIN
 0033BC 0000                       21631  1                      BOMB
 0033BE                            21633                       END
                                   21637
                                   21638                       COMMENT                   FORMAT NEW ENTRY INDEX
 0033BE 5860 802C            00004 21639                       L     R6,UPPXFNEW
 0033C2 D74F 5000 5000 00000 00000 21640                       CLEAR XFXENTRY
 0033C8 5800 6044            00044 21647                       L     R0,XF#SETNO
 0033CC 5810 6048            00048 21648                       L     R1,XFRGEXEC
 0033D0 9001 5000            00000 21649                       STM   R0,R1,XFXNDX
 0033D4 D23F 5010 6000 00010 00000 21650                       MVC   XFXNAME,XFNAME
                                   21651
                                   21652                       COMMENT                   SAVE NEW ENTRY INDEX
 0033DA 41F0 C360            00360 21653                       LA    R15,CVRG16
 0033DE 4100 0040            00040 21654                       LA    R0,L'XFXENTRY-L'XFXNDX
 0033E2 4110 5010            00010 21655                       LA    R1,XFXENTRY+L'XFXNDX
 0033E6 4120 5000            00000 21656                       LA    R2,XFXENTRY
 0033EA 58E0 7314/0DEE       03660 21657                       VCALL XPUT                SAVE ENTRY INDEX
 0033F0 47B0 70C0            0340C 21661                       IF    NEG,BEGIN
 0033F4 900F C780/4DE0_      00780 21672  1                      KAPUT ,'Too many EXEC files loaded.  Page system overflow.'
 00340C                            21679                       END
 00340C 47D0 70C6            03412 21683                       IF    POS,BEGIN
 003410 0000                       21694  1                      BOMB
 003412                            21696                       END
                                   21700
                                   21701                       COMMENT                   FORMAT OLD (MARKED) ENTRY INDEX
 003412 5860 8028            00000 21702                       L     R6,UPPXFOLD
 003416 D74F 5000 5000 00000 00000 21703                       CLEAR XFXENTRY
 00341C 5800 6044            00044 21710                       L     R0,XF#SETNO
 003420 5810 6048            00048 21711                       L     R1,XFRGEXEC
 003424 9001 5000            00000 21712                       STM   R0,R1,XFXNDX
 003428 D23F 5010 6000 00010 00000 21713                       MVC   XFXNAME,XFNAME
                                   21714
                                   21715                       COMMENT                   SAVE OLD ENTRY INDEX
 00342E 41F0 C360            00360 21716                       LA    R15,CVRG16
 003432 4100 0040            00040 21717                       LA    R0,L'XFXENTRY-L'XFXNDX
 003436 4110 5010            00010 21718                       LA    R1,XFXENTRY+L'XFXNDX
 00343A 4120 5000            00000 21719                       LA    R2,XFXENTRY
 00343E 58E0 7314/0DEE       03660 21720                       VCALL XPUT                SAVE ENTRY INDEX
 003444 47B0 7114            03460 21724                       IF    NEG,BEGIN
 003448 900F C780/4DE0_      00780 21735  1                      KAPUT ,'Too many EXEC files loaded.  Page system overflow.'
 003460                            21742                       END
 003460 47D0 711A            03466 21746                       IF    POS,BEGIN
 003464 0000                       21757  1                      BOMB
 003466                            21759                       END
                                   21763
1XCALL    (XCAL2025) (13:01) (15MAR04) EXEC INFO Routines                                                                   Page  105
0Current Usings:  (XFXENTRY,R5) (XFENTRY,R6) (*,R7) (UPPWA-(4+36),R8) (CP,R11) (CV,R12)
0Loc    Object Code    Addr1 Addr2  Stmt Lv Lineno    Source Statement           (Hibal 5, Asmedit 3.3)  HLASM R4.0  2004/03/15 13.01
+___    ______ ____    _____ _____  ____ __ ______    ______ _________
0                                  21764                       COMMENT                   SAVE NEW ENTRY
 003466 5860 802C            00004 21765                       L     R6,UPPXFNEW
 00346A 41F0 C380            00380 21766                       LA    R15,CVRG64
 00346E 4100 0020            00020 21767                       LA    R0,L'XFENTRY-L'XFNAME
 003472 4110 6040            00040 21768                       LA    R1,XFENTRY+L'XFNAME
 003476 4120 6000            00000 21769                       LA    R2,XFNAME
 00347A 58E0 7314/0DEE       03660 21770                       VCALL XPUT                SAVE ENTRY
 003480 47B0 7150            0349C 21774                       IF    NEG,BEGIN
 003484 900F C780/4DE0_      00780 21785  1                      KAPUT ,'Too many EXEC files loaded.  Page system overflow.'
 00349C                            21792                       END
 00349C 47D0 7156            034A2 21796                       IF    POS,BEGIN
 0034A0 0000                       21807  1                      BOMB
 0034A2                            21809                       END
                                   21813
 0034A2 1BFF                       21814                       CLEAR R15
 0034A4 18D8/9808 D004_            21818                       PEND  ,
 DROP   UPPWA-(4+36),R8
 DROP   *,R7
 DROP   XFENTRY,R6                 21843                       DROP  R6
 DROP   XFXENTRY,R5                21850                       DROP  R5
1XCALL    (XCAL2025) (13:01) (15MAR04) EXEC INFO Routines                                                                   Page  106
0Current Usings:  (CP,R11) (CV,R12)
0Loc    Object Code    Addr1 Addr2  Stmt Lv Lineno    Source Statement           (Hibal 5, Asmedit 3.3)  HLASM R4.0  2004/03/15 13.01
+___    ______ ____    _____ _____  ____ __ ______    ______ _________
0                                  21858              ¿þþþþþþþþþþþþþþþþþþþþþþþþþþþþþþþþþþþþþþþþþþþþþþþþþþþþþþþþþþþþþþþþþþþþþÜ
                                   21859              Ÿ                                                                     Ÿ
                                   21860              Ÿ                                                                     Ÿ
                                   21861              Ÿ  GETXRG - GET EXEC RECORD GROUP DSECT POINTER                       Ÿ
                                   21862              Ÿ                                                                     Ÿ
                                   21863              Ÿ  ON ENTRY:                                                          Ÿ
                                   21864              Ÿ       R0 - SET NUMBER                                               Ÿ
                                   21865              Ÿ                                                                     Ÿ
                                   21866              Ÿ  ON EXIT:                                                           Ÿ
                                   21867              Ÿ       R1 - EXEC RECORD GROUP POINTER (ZERO IF R15=NZ)               Ÿ
                                   21868              Ÿ       R15 - CC=Z, VALID SET NUMBER                                  Ÿ
                                   21869              Ÿ             CC=NZ, NON-USED SET NUMBER                              Ÿ
                                   21870              Ÿ                                                                     Ÿ
                                   21871              Ÿ  NOTE:  THIS ROUTINE WORKS LIKE THIS, AS OF 1/1/87..                Ÿ
                                   21872              Ÿ       1-2048 (CV#FEXEC) ARE USER EXECS                              Ÿ
                                   21873              Ÿ       2048+  ARE PUBLIC EXEC NUMBERS                                Ÿ
                                   21874              Ÿ  THE IDEA IS BY ASSIGNING DIFFERENT RANGES OF SET NUMBERS,          Ÿ
                                   21875              Ÿ  THE SET NUMBER UNIQUELY DEFINES THE EXEC, PRIOR TO 1/1/87          Ÿ
                                   21876              Ÿ  BOTH THE SET NUMBER AND EXEC RECORD GROUP NUMBER WERE              Ÿ
                                   21877              Ÿ  ALWAYS SPECIFIED TOGETHER,,, AND THAT IS THE WAY THEY ARE          Ÿ
                                   21878              Ÿ  GENERALLY USED WITHIN THIS MODULE.  IN ANY CASE, FOR NOW,          Ÿ
                                   21879              Ÿ  GIVEN AN EXEC SET NUMBER, THIS ROUTINE WILL RETURN THE             Ÿ
                                   21880              Ÿ  RECORD GROUP INFO DSECT POINTER. YEOW!                             Ÿ
                                   21881              Ÿ                                                                     Ÿ
                                   21882              Ÿ  NOTE2: R15 REFLECTS ONLY WEAK TESTING OF SET NUMBER SPACE.         Ÿ
                                   21883              Ÿ  IT DOES NOT TELL IF AN ACTUAL EXEC EXISTS.                         Ÿ
                                   21884              Ÿ                                                                     Ÿ
                                   21885              Ÿ                                                                     Ÿ
                                                      ¾þþþþþþþþþþþþþþþþþþþþþþþþþþþþþþþþþþþþþþþþþþþþþþþþþþþþþþþþþþþþþþþþþþþþþ»
00034B2 50E0 D000/9008_      00000 21886              GETXRG   PROC  ,
 USING  *,R7
                                   21925
 0034CC 1200/4770 700C             21926                       IF    (R0,Z),BEGIN
 0034D2 1B11                       21940  1                      CLEAR R1
 0034D4 41F0 0004            00004 21944  1                      LA    R15,4
 0034D8                            21945                       END
                                   21949
 0034D8 7010/47F0 7026_034D8 034D0 21950                       ELSEIF ((R0,GT,1),AND,(R0,LT,CV#FEXEC)),BEGIN
 0034EC 4110 B4A4            004A4 21992  1                      LA    R1,CPEXEC
 0034F0 1BFF                       21993  1                      CLEAR R15
 0034F2                            21997                       END
                                   22001
 0034F2 702A/702A/47F0_034F2 034E2 22002                       ELSEIF (R0,GE,CV#FEXEC),BEGIN
 0034FE 4110 C300            00300 22030  1                      LA    R1,CVEXEC
 003502 1BFF                       22031  1                      CLEAR R15
 003504                            22035                       END
                                   22039
 003504 703C/47F0 7042 03504 034FC 22040                       ELSE  BEGIN
 003508 1B11                       22051  1                      CLEAR R1
 00350A 41F0 0004            00004 22055  1                      LA    R15,4
 00350E                            22056                       END
                                   22060
 00350E 9001 8004            00004 22061                       PRETURN (R0,R1)
1XCALL    (XCAL2025) (13:01) (15MAR04) EXEC INFO Routines                                                                   Page  107
0Current Usings:  (CP,R11) (CV,R12)
0Loc    Object Code    Addr1 Addr2  Stmt Lv Lineno    Source Statement           (Hibal 5, Asmedit 3.3)  HLASM R4.0  2004/03/15 13.01
+___    ______ ____    _____ _____  ____ __ ______    ______ _________
0003512 18D8/9808 D004_            22063                       PEND  ,
 DROP   *,R7
1XCALL    (XCAL2025) (13:01) (15MAR04) EXEC INFO Routines                                                                   Page  108
0Current Usings:  (CP,R11) (CV,R12)
0Loc    Object Code    Addr1 Addr2  Stmt Lv Lineno    Source Statement           (Hibal 5, Asmedit 3.3)  HLASM R4.0  2004/03/15 13.01
+___    ______ ____    _____ _____  ____ __ ______    ______ _________
0                                  22084              ¿þþþþþþþþþþþþþþþþþþþþþþþþþþþþþþþþþþþþþþþþþþþþþþþþþþþþþþþþþþþþþþþþþþþþþÜ
                                   22085              Ÿ                                                                     Ÿ
                                   22086              Ÿ                                                                     Ÿ
                                   22087              Ÿ  GETXNAME - GET EXEC NAME                                           Ÿ
                                   22088              Ÿ                                                                     Ÿ
                                   22089              Ÿ  ON ENTRY:                                                          Ÿ
                                   22090              Ÿ       R0 - EXEC SET NUMBER                                          Ÿ
                                   22091              Ÿ       @R1 - EXEC NAME BUFFER (XDSNAME DSECT FORMAT)                 Ÿ
                                   22092              Ÿ                                                                     Ÿ
                                   22093              Ÿ  ON EXIT:                                                           Ÿ
                                   22094              Ÿ       @R1 - EXEC NAME (IN XDSNAME FORMAT)                           Ÿ
                                   22095              Ÿ       R15 - CC=Z, EXEC NAME FOUND (IE. EXEC EXISTS)                 Ÿ
                                   22096              Ÿ             CC=NZ, NO EXEC FOR THIS SET NUMBER                      Ÿ
                                   22097              Ÿ                                                                     Ÿ
                                   22098              Ÿ                                                                     Ÿ
                                   22099              Ÿ                                                                     Ÿ
                                                      ¾þþþþþþþþþþþþþþþþþþþþþþþþþþþþþþþþþþþþþþþþþþþþþþþþþþþþþþþþþþþþþþþþþþþþþ»
0000000                00000 00064 22100              GXNWA    RECORD BEGIN
 000000                            22108  1           GXNSET     DS    F                   EXEC SET NUMBER
 000004                            22109  1           GXNRECD    DS    XL(L'XFENTRY)       EXEC FILE INFO RECORD
 000064                00064 00064 22110                       END
                                   22119              *
                                   22120              *
 003520 50E0 D000/9008_      00000 22121              GETXNAME XPROC GXNWA
 USING  *,R7
 USING  GXNWA-(4+36),R8
 USING  XFENTRY,R6                 22172                       USING XFENTRY,R6
 USING  XDSNAME,R5                 22181                       USING XDSNAME,R5
 00353A 4160 802C            00004 22190                       LA    R6,GXNRECD
 00353E 1851                       22191                       LR    R5,R1
                                   22192
                                   22193                       COMMENT                   INITIALIZE WORK AREA
 003540 5000 8028            00000 22194                       ST    R0,GXNSET
                                   22195
                                   22196                       COMMENT                   IF NO SET,,
 003544 1200/4770 7016             22197                       IF    (R0,Z),BEGIN
 00354A 1B00                       22211  1                      CLEAR R0
 00354C 41F0 0004            00004 22215  1                      LA    R15,4
 003550                            22216                       END
                                   22220
                                   22221                       COMMENT                   IF OLD EXEC,, GET NAME
 003550 701A/47F0 7042_03550 03548 22222                       ELSEIF (R0,EQ,CP#XOLD),BEGIN
 00355C 4100 0060            00060 22248  1                      LA    R0,L'GXNRECD
 003560 4110 802C            00004 22249  1                      LA    R1,GXNRECD
 003564 4120 70AE            035E8 22250  1                      LA    R2,=CL16'SYS.EXECNAME    '
 003568 58E0 713E/0DEE       03678 22251  1                      VCALL GETDATA
 00356E 4780 703A            03574 22255  1                      IF    NZ,BEGIN
 003572 0000                       22266  2                        BOMB
 003574                            22268  1                      END
 003574 D23F 5000 6000 00000 00000 22272  1                      MVC   XDSNAME,XFNAME
 00357A 1BFF                       22273  1                      CLEAR R15
 00357C                            22277                       END
                                   22281
1XCALL    (XCAL2025) (13:01) (15MAR04) EXEC INFO Routines                                                                   Page  109
0Current Usings:  (XDSNAME,R5) (XFENTRY,R6) (*,R7) (GXNWA-(4+36),R8) (CP,R11) (CV,R12)
0Loc    Object Code    Addr1 Addr2  Stmt Lv Lineno    Source Statement           (Hibal 5, Asmedit 3.3)  HLASM R4.0  2004/03/15 13.01
+___    ______ ____    _____ _____  ____ __ ______    ______ _________
0                                  22282                       COMMENT                   IF XCALLED ACTIVE
 00357C 7046/47F0 7056_0357C 0355A 22283                       ELSEIF (R0,EQ,CP#XACT),BEGIN DUMMY XDSNAME
 003588 D23F 5000 70BE 00000 035F8 22309  1                      MVC   XDSNAME,=CL(L'XDSNAME)'(ACTIVE file)'
                                   22310  1           *        VCALL SETXNAME            ACTIVE FILE NAME SET ABOVE
 00358E 1BFF                       22311  1                      CLEAR R15
 003590                            22315                       END
                                   22319
                                   22320                       COMMENT                   IF TEMP, BOMB
 003590 705A/47F0 7064_03590 03586 22321                       ELSEIF (R0,EQ,CP#XTEMP),BEGIN
 00359C 0000                       22347  1                      BOMB
 00359E                            22349                       END
                                   22353
                                   22354                       COMMENT                   IF XCALLED <FILENAME>
 00359E 7068/47F0 709C 0359E 0359A 22355                       ELSE  BEGIN ,,
 0035A2 5800 8028            00000 22366  1                      L     R0,GXNSET
 0035A6 58E0 714A/0DEE       03684 22367  1                      ACALL GETXRG
 0035AC 4770 7094            035CE 22371  1                      IF    Z,BEGIN
                                   22382  2                        COMMENT                   HANDLE STADARD DSN NAME,
                                   22383  2                        COMMENT                   GET XINFO (CONTAINS DSN NAME)
 0035B0 4120 6000            00000 22384  2                        LA    R2,XFENTRY
 0035B4 58E0 712E/0DEE       03668 22385  2                        ACALL GETXINFO
 0035BA 4770 708C            035C6 22389  2                        IF    Z,BEGIN
 0035BE D23F 5000 6000 00000 00000 22400  3                          MVC   XDSNAME,XFNAME
 0035C4 1BFF                       22401  3                          CLEAR R15
 0035C6                            22405  2                        END
 0035C6 7090/47F0 7094 035C6 035BC 22409  2                        ELSE  BEGIN
 0035CA 41F0 0004            00004 22420  3                          LA    R15,4
 0035CE                            22421  2                        END
 0035CE                            22425  1                      END
 0035CE 7098/47F0 709C 035CE 035AE 22429  1                      ELSE  BEGIN
 0035D2 41F0 0004            00004 22440  2                        LA    R15,4
 0035D6                            22441  1                      END
 0035D6                            22445                       END
                                   22449
 0035D6 18D8/9808 D004_            22450                       PEND  ,
 DROP   GXNWA-(4+36),R8
 DROP   *,R7
 DROP   XFENTRY,R6                 22475                       DROP  R6
 DROP   XDSNAME,R5                 22482                       DROP  R5
1XCALL    (XCAL2025) (13:01) (15MAR04) EXEC INFO Routines                                                                   Page  110
0Current Usings:  (CP,R11) (CV,R12)
0Loc    Object Code    Addr1 Addr2  Stmt Lv Lineno    Source Statement           (Hibal 5, Asmedit 3.3)  HLASM R4.0  2004/03/15 13.01
+___    ______ ____    _____ _____  ____ __ ______    ______ _________
0                                  22490                       QLTORG
1XCALL    (XCAL2025) (13:01) (15MAR04) EXEC LRU Cache and Load List Routines                                                Page  111
0Current Usings:  (CP,R11) (CV,R12)
0Loc    Object Code    Addr1 Addr2  Stmt Lv Lineno    Source Statement           (Hibal 5, Asmedit 3.3)  HLASM R4.0  2004/03/15 13.01
+___    ______ ____    _____ _____  ____ __ ______    ______ _________
0                                  22525              ¿þþþþþþþþþþþþþþþþþþþþþþþþþþþþþþþþþþþþþþþþþþþþþþþþþþþþþþþþþþþþþþþþþþþþþÜ
                                   22526              Ÿ                                                                     Ÿ
                                   22527              Ÿ                                                                     Ÿ
                                   22528              Ÿ  GETSETNO - GET SET NUMBER FOR NEW EXEC FILE                        Ÿ
                                   22529              Ÿ                                                                     Ÿ
                                   22530              Ÿ  WE GET A SET NUMBER FOR NEW EXEC FILE FROM EXEC FILE               Ÿ
                                   22531              Ÿ  CACHE.  SCHEME IS LEAST RECENTLY USED AND IS IMPLEMENTED           Ÿ
                                   22532              Ÿ  WITH AN ORDERED LIST, MOST CURRENTLY USED IS FIRST.                Ÿ
                                   22533              Ÿ  A CALL TO 'MRKSETNO' WILL MARK SET NUMBER AS USED.                 Ÿ
                                   22534              Ÿ                                                                     Ÿ
                                   22535              Ÿ  ON EXIT:                                                           Ÿ
                                   22536              Ÿ       R0 - SET NUMBER TO USE                                        Ÿ
                                   22537              Ÿ       CPXALIST - EXEC FILE CACHE LRU LIST                           Ÿ
                                   22538              Ÿ                                                                     Ÿ
                                   22539              Ÿ  NOTE: THIS ROUTINE IS FOR USE ONLY WITH USER EXEC FILES.           Ÿ
                                   22540              Ÿ        PUBLIC EXEC FILES ARE NEVER DELETED AND ARE ALLOCATED        Ÿ
                                   22541              Ÿ        NEW SETS IN ORDER, 1 TO 30000.                               Ÿ
                                   22542              Ÿ                                                                     Ÿ
                                   22543              Ÿ                                                                     Ÿ
                                                      ¾þþþþþþþþþþþþþþþþþþþþþþþþþþþþþþþþþþþþþþþþþþþþþþþþþþþþþþþþþþþþþþþþþþþþþ»
0003688 50E0 D000/9008_      00000 22544              GETSETNO PROC  ,
 USING  *,R7
                                   22583              *
                                   22584              *$ delete xlistdel ,,,, (cannot delete from lru list !)
                                   22585              *$ check to see if LRU is in CALLED LIST !! ERROR IF SO !
                                   22586              *$   (eg. UNABLE TO LOAD ... ?? hmmm,,, a minor point)
                                   22587                       COMMENT                   GET FREE EXEC SET NUMBER
 0036A2 58E0 74AE/0DEE       03B50 22588                       ACALL XLISTGET
 0036A8 4780 701A            036BC 22592                       IF    NZ,BEGIN            IF NONE FREE,
 0036AC 58E0 74B2/0DEE       03B54 22603  1                      ACALL XLISTLRU            GET/FREE/USE LRU EXEC
                                   22607  1                      COMMENT                   RETURNS R0 - LRU SET NUMBER
 0036B2 4110 B4A4            004A4 22608  1                      LA    R1,CPEXEC           R1 - POINT TO USERS EXEC RGROUP
 0036B6 58E0 74B6/0DEE       03B58 22609  1                      ACALL DELUEXEC
 0036BC                            22613                       END
                                   22617
 0036BC 1BFF                       22618                       CLEAR R15
 0036BE 5008 0004            00004 22622                       PRETURN (R0)
 0036C2 18D8/9808 D004_            22624                       PEND  ,
 DROP   *,R7
1XCALL    (XCAL2025) (13:01) (15MAR04) EXEC LRU Cache and Load List Routines                                                Page  112
0Current Usings:  (CP,R11) (CV,R12)
0Loc    Object Code    Addr1 Addr2  Stmt Lv Lineno    Source Statement           (Hibal 5, Asmedit 3.3)  HLASM R4.0  2004/03/15 13.01
+___    ______ ____    _____ _____  ____ __ ______    ______ _________
0                                  22645              *
                                   22646              **
                                   22647              **  XLISTCLR - CLEAR EXEC SET NUMBER LIST, CALLED AT SIGN-ON
                                   22648              **
                                   22649              **  WE KEEP A LARGE CACHE OF THE MOST RECENTLY USED EXEC FILES
                                   22650              **  FOR EACH USER.  THE CACHE WORKS ON A 'LRU' SCHEEME.  THAT
                                   22651              **  IS IF THE CACHE FILLS UP WE MOVE THE LRU EXEC FILE.  THE
                                   22652              **  LRU SCEEME IS IMPLEMENTED BY AN ORDERED LIST OF EXEC FILES
                                   22653              **  WITH THE MOST RECENTLY USED AT THE HEAD OF THE LIST.  ENTRIES
                                   22654              **  IN THE LIST CAN RANGE FROM 1-256 WITH ZERO AS A NULL ENTRY.
                                   22655              **  IF THE CACHE IS FULL THE LRU EXEC IS PURGED AND THE NEW EXEC
                                   22656              **  TAKES ON ITS 'EXEC SET NUMBER'.  EACH TIME AN EXEC IS LOADED
                                   22657              **  OR CALLED IT IS MOVED (MARKED) TO THE START OF THE LIST AND
                                   22658              **  ALL OTHER ENTRIES ARE MOVED BACK ONE.
                                   22659              **
                                   22660              **
                                   22661              **  NOTE: THESE ROUTINES ARE FOR USE ONLY WITH USER EXEC FILES.
                                   22662              **        PUBLIC EXEC FILES ARE NEVER DELETED AND ARE ALLOCATED
                                   22663              **        NEW SETS IN ORDER, 1 TO 30000+.
                                   22664              **
                                   22665              **
                                   22666              XLISTCNT EQU   256 CPMAXXCT        MAXIMUM ELEMENTS IN LIST
                                   22667              XLISTLEN EQU   XLISTCNT*4          LENGTH OF LIST
                                   22668              XLFIRST  EQU   CP#FEXEC            FIRST ALLOWABLE EXEC SET NUMBER
                                   22669
 000000                00000 00404 22670              XLISTWA  RECORD BEGIN ,
 000000                            22678  1           XLSETNO    DS    F                   SET NUMBER
 000004                            22679  1           XLLIST     DS    XL(XLISTLEN)        SET LIST
 000404                00404 00400 22680  1                      ORG   XLLIST+XLISTLEN-4
 000400                            22681  1           XLISTEND   DS    F                   LAST ENTRY (LRU) IN LIST
 000404                00404 00404 22682                       END
                                   22691              *
                                   22692              *
 0036D0 50E0 D000/9008_      00000 22693              XLISTCLR XPROC XLISTWA
 USING  *,R7
 USING  XLISTWA-(4+36),R8
 0036EA D7FF 802C 802C_00004 00004 22744                       CLEAR XLLIST              CLEAR EXEC LRU LIST
                                   22754
                                   22755                       COMMENT                  SAVE EXEC LRU LIST
 003702 4100 0400            00400 22756                       LA    R0,XLISTLEN
 003706 4110 802C            00004 22757                       LA    R1,XLLIST
 00370A 4120 7446            03B30 22758                       LA    R2,=CL16'SYS.XSETLIST    '
 00370E 58E0 7472/0DEE       03B5C 22759                       VCALL SAVEDATA
                                   22763
 003714 18D8/9808 D004_            22764                       PEND  ,
 DROP   XLISTWA-(4+36),R8
 DROP   *,R7
1XCALL    (XCAL2025) (13:01) (15MAR04) EXEC LRU Cache and Load List Routines                                                Page  113
0Current Usings:  (CP,R11) (CV,R12)
0Loc    Object Code    Addr1 Addr2  Stmt Lv Lineno    Source Statement           (Hibal 5, Asmedit 3.3)  HLASM R4.0  2004/03/15 13.01
+___    ______ ____    _____ _____  ____ __ ______    ______ _________
0                                  22790              ¿þþþþþþþþþþþþþþþþþþþþþþþþþþþþþþþþþþþþþþþþþþþþþþþþþþþþþþþþþþþþþþþþþþþþþÜ
                                   22791              Ÿ                                                                     Ÿ
                                   22792              Ÿ                                                                     Ÿ
                                   22793              Ÿ  XLISTMRK - MARK SET IN LRU SET LIST                                Ÿ
                                   22794              Ÿ                                                                     Ÿ
                                   22795              Ÿ  ON ENTRY:                                                          Ÿ
                                   22796              Ÿ       R0 - SET NUMBER                                               Ÿ
                                   22797              Ÿ                                                                     Ÿ
                                   22798              Ÿ  ON EXIT:                                                           Ÿ
                                   22799              Ÿ       R15 - CC=ZERO, EXEC MARKED AS USED                            Ÿ
                                   22800              Ÿ                                                                     Ÿ
                                   22801              Ÿ                                                                     Ÿ
                                   22802              Ÿ  THE SET LIST IS A 'LRU' ORDERED LIST OF EXEC FILES. SEE            Ÿ
                                   22803              Ÿ  COMMENTS AT START OF 'XLISTCLR' ROUTINE FOR MORE INFO.             Ÿ
                                   22804              Ÿ                                                                     Ÿ
                                   22805              Ÿ                                                                     Ÿ
                                                      ¾þþþþþþþþþþþþþþþþþþþþþþþþþþþþþþþþþþþþþþþþþþþþþþþþþþþþþþþþþþþþþþþþþþþþþ»
0003722 50E0 D000/9008_      00000 22806              XLISTMRK PROC  XLISTWA
 USING  *,R7
 USING  XLISTWA-(4+36),R8
 00373C 5000 8028            00000 22856                       ST    R0,XLSETNO
 003740 5900 7424/4740_      03B60 22857                       IF    ((R0,LT,XLFIRST),OR,(R0,GE,XLFIRST+XLISTCNT)),BEGIN
 003750 0000                       22890  1                      BOMB
 003752                            22892                       END
                                   22896
                                   22897                       COMMENT                   GET QINFO
 003752 4100 0400            00400 22898                       LA    R0,XLISTLEN
 003756 4110 802C            00004 22899                       LA    R1,XLLIST
 00375A 4120 73F4            03B30 22900                       LA    R2,=CL16'SYS.XSETLIST    '
 00375E 58E0 742C/0DEE       03B68 22901                       VCALL GETDATA
 003764 4770 7034/5900_      03770 22905                       IF    (NZ,OR,(R0,NE,XLISTLEN)),BEGIN
 003770 0000                       22932  1                      BOMB
 003772                            22934                       END
                                   22938
                                   22939                       COMMENT   WE LOOP, LOOKING FOR ENTRY TO MARK, ALL PRIOR
                                   22940                       COMMENT   ENTRIES ARE MOVED DOWN IN THE LIST UNTIL WE FIND
                                   22941                       COMMENT   THE ONE TO MARK, IT IS PUT AT START OF THE LIST
                                   22942                       COMMENT
 003772 5800 8028            00000 22943                       L     R0,XLSETNO          R0 - SET NUMBER TO MARK
 003776 5810 802C            00004 22944                       L     R1,XLLIST           R1 - LIST ENTRY
 00377A 4120 802C            00004 22945                       LA    R2,XLLIST           R2 - LIST INDEX
 00377E 4130 8428            00400 22946                       LA    R3,XLISTEND         R3 - END OF LIST
                                   22947                       COMMENT                   WHILE PRIOR ENTRY, LOOP
 003782 1211/4780 706A_            22948                       WHILE ((R1,NZ),AND,(R1,NE,R0),AND,(R2,LT,R3)),BEGIN
 003794 1841                       22990  1                      LR    R4,R1
 003796 4122 0004            00004 22991  1                      LA    R2,4(R2)
 00379A 5812 0000            00000 22992  1                      L     R1,0(R2)
 00379E 5042 0000            00000 22993  1                      ST    R4,0(R2)            MOVE IT DOWN
 0037A2 47F0 7046            03782 22994                       END
 0037A6 1211/4780 7078_            22999                       IF    ((R1,NZ),AND,(R1,NE,R0)),BEGIN  IF NO ROOM
 0037B2 0000                       23027  1                      BOMB
 0037B4                            23029                       END
                                   23033
1XCALL    (XCAL2025) (13:01) (15MAR04) EXEC LRU Cache and Load List Routines                                                Page  114
0Current Usings:  (*,R7) (XLISTWA-(4+36),R8) (CP,R11) (CV,R12)
0Loc    Object Code    Addr1 Addr2  Stmt Lv Lineno    Source Statement           (Hibal 5, Asmedit 3.3)  HLASM R4.0  2004/03/15 13.01
+___    ______ ____    _____ _____  ____ __ ______    ______ _________
0                                  23034                       COMMENT                   SAVE LAST USED EXEC SET NUMBER
                                   23035                       COMMENT                   AT START OF LIST
 0037B4 5000 802C            00004 23036                       ST    R0,XLLIST
                                   23037
                                   23038                       COMMENT                   SAVE EXEC LRU LIST
 0037B8 4100 0400            00400 23039                       LA    R0,XLISTLEN
 0037BC 4110 802C            00004 23040                       LA    R1,XLLIST
 0037C0 4120 73F4            03B30 23041                       LA    R2,=CL16'SYS.XSETLIST    '
 0037C4 58E0 7420/0DEE       03B5C 23042                       VCALL SAVEDATA
                                   23046
 0037CA 1BFF                       23047                       CLEAR R15
 0037CC 18D8/9808 D004_            23051                       PEND  ,
 DROP   XLISTWA-(4+36),R8
 DROP   *,R7
1XCALL    (XCAL2025) (13:01) (15MAR04) EXEC LRU Cache and Load List Routines                                                Page  115
0Current Usings:  (CP,R11) (CV,R12)
0Loc    Object Code    Addr1 Addr2  Stmt Lv Lineno    Source Statement           (Hibal 5, Asmedit 3.3)  HLASM R4.0  2004/03/15 13.01
+___    ______ ____    _____ _____  ____ __ ______    ______ _________
0                                  23077              ¿þþþþþþþþþþþþþþþþþþþþþþþþþþþþþþþþþþþþþþþþþþþþþþþþþþþþþþþþþþþþþþþþþþþþþÜ
                                   23078              Ÿ                                                                     Ÿ
                                   23079              Ÿ                                                                     Ÿ
                                   23080              Ÿ  XLISTGET- GET FREE EXEC SET NUMBER                                 Ÿ
                                   23081              Ÿ                                                                     Ÿ
                                   23082              Ÿ  ON EXIT:                                                           Ÿ
                                   23083              Ÿ       R0 - SET NUMBER TO USE                                        Ÿ
                                   23084              Ÿ       R15 - CC=ZERO, FREE SET NUMBER EXISTS                         Ÿ
                                   23085              Ÿ             CC=NZ, ALL SETS USED                                    Ÿ
                                   23086              Ÿ                                                                     Ÿ
                                   23087              Ÿ  THE SET LIST IS A 'LRU' ORDERED LIST OF EXEC FILES. SEE            Ÿ
                                   23088              Ÿ  COMMENTS AT START OF 'XLISTCLR' ROUTINE FOR MORE INFO.             Ÿ
                                   23089              Ÿ                                                                     Ÿ
                                   23090              Ÿ                                                                     Ÿ
                                                      ¾þþþþþþþþþþþþþþþþþþþþþþþþþþþþþþþþþþþþþþþþþþþþþþþþþþþþþþþþþþþþþþþþþþþþþ»
00037DA 50E0 D000/9008_      00000 23091              XLISTGET PROC  XLISTWA
 USING  *,R7
 USING  XLISTWA-(4+36),R8
                                   23141
                                   23142                       COMMENT                   GET QINFO
 0037F4 4100 0400            00400 23143                       LA    R0,XLISTLEN
 0037F8 4110 802C            00004 23144                       LA    R1,XLLIST
 0037FC 4120 733C            03B30 23145                       LA    R2,=CL16'SYS.XSETLIST    '
 003800 58E0 7374/0DEE       03B68 23146                       VCALL GETDATA
 003806 4770 701E/5900_      03812 23150                       IF    (NZ,OR,(R0,NE,XLISTLEN)),BEGIN
 003812 0000                       23177  1                      BOMB
 003814                            23179                       END
                                   23183
 003814 D503 7334 8428_03B28 00400 23184                       IF    (XLISTEND,NE,0),BEGIN     LIST FULL
 00381E 41F0 0004            00004 23202  1                      LA    R15,4
 003822                            23203                       END
                                   23207
                                   23208                       COMMENT                   IF LIST NOT FULL, GET UNUSED SET#
 003822 7032/47F0 7082 03822 0381C 23209                       ELSE  BEGIN ,
 003826 186D/41D0 D114             23220  1                      XPUSH ,,XLFIRST+XLISTCNT+2,PTR=R6
 00382C 1826                       23223  1                      LR    R2,R6
 00382E 4130 0112            00112 23224  1                      LA    R3,XLISTCNT+XLFIRST+2
 003832 1B55                       23225  1                      CLEAR R5
 003834 0E24                       23229  1                      MVCL  R2,R4
 003836 4120 802C            00004 23230  1                      LA    R2,XLLIST           R2 - SET INDEX
 00383A 4130 8428            00400 23231  1                      LA    R3,XLISTEND
 00383E 1923/4730 7064             23232  1                      WHILE (R2,LE,R3),BEGIN    LOOP MARKING USED SETS
 003844 5812 0000            00000 23249  2                        L     R1,0(R2)
 003848 4141 6000            00000 23250  2                        LA    R4,0(R1,R6)
 00384C 92FF 4000      00000       23251  2                        MVI   0(R4),255
 003850 4122 0004            00004 23252  2                        LA    R2,4(R2)
 003854 47F0 704A            0383E 23253  1                      END
 003858 4116 0010            00010 23258  1                      LA    R1,XLFIRST(R6)   LOOP TO FIND FIRST UNUSED
 00385C 9500 1000/4780_00000       23259  1                      WHILE (@R1,NE,0),BEGIN
 003864 4111 0001            00001 23278  2                        LA    R1,1(R1)
 003868 47F0 7068            0385C 23279  1                      END
 00386C 1B16                       23284  1                      SR    R1,R6               R1 - FIRST UNUSED SETNO
 00386E 4BD0 7380            03B74 23285  1                      XPOP  ,,XLFIRST+XLISTCNT+2
1XCALL    (XCAL2025) (13:01) (15MAR04) EXEC LRU Cache and Load List Routines                                                Page  116
0Current Usings:  (*,R7) (XLISTWA-(4+36),R8) (CP,R11) (CV,R12)
0Loc    Object Code    Addr1 Addr2  Stmt Lv Lineno    Source Statement           (Hibal 5, Asmedit 3.3)  HLASM R4.0  2004/03/15 13.01
+___    ______ ____    _____ _____  ____ __ ______    ______ _________
0003872 1801                       23287  1                      LR    R0,R1               RETURN R0
 003874 1BFF                       23288  1                      CLEAR R15
 003876                            23292                       END
                                   23296
 003876 5008 0004            00004 23297                       PRETURN (R0)
 00387A 18D8/9808 D004_            23299                       PEND  ,
 DROP   XLISTWA-(4+36),R8
 DROP   *,R7
1XCALL    (XCAL2025) (13:01) (15MAR04) EXEC LRU Cache and Load List Routines                                                Page  117
0Current Usings:  (CP,R11) (CV,R12)
0Loc    Object Code    Addr1 Addr2  Stmt Lv Lineno    Source Statement           (Hibal 5, Asmedit 3.3)  HLASM R4.0  2004/03/15 13.01
+___    ______ ____    _____ _____  ____ __ ______    ______ _________
0                                  23325              ¿þþþþþþþþþþþþþþþþþþþþþþþþþþþþþþþþþþþþþþþþþþþþþþþþþþþþþþþþþþþþþþþþþþþþþÜ
                                   23326              Ÿ                                                                     Ÿ
                                   23327              Ÿ                                                                     Ÿ
                                   23328              Ÿ  XLISTLRU- GET 'LRU' SET NUMBER                                     Ÿ
                                   23329              Ÿ                                                                     Ÿ
                                   23330              Ÿ  ON EXIT:                                                           Ÿ
                                   23331              Ÿ       R0 - LRU SET NUMBER                                           Ÿ
                                   23332              Ÿ       R15 - CC=ZERO, LRU EXISTS                                     Ÿ
                                   23333              Ÿ             CC=NZ, NO LRU SET                                       Ÿ
                                   23334              Ÿ                                                                     Ÿ
                                   23335              Ÿ  THE SET LIST IS A 'LRU' ORDERED LIST OF EXEC FILES. SEE            Ÿ
                                   23336              Ÿ  COMMENTS AT START OF 'XLISTCLR' ROUTINE FOR MORE INFO.             Ÿ
                                   23337              Ÿ                                                                     Ÿ
                                   23338              Ÿ                                                                     Ÿ
                                                      ¾þþþþþþþþþþþþþþþþþþþþþþþþþþþþþþþþþþþþþþþþþþþþþþþþþþþþþþþþþþþþþþþþþþþþþ»
0003888 50E0 D000/9008_      00000 23339              XLISTLRU PROC  XLISTWA
 USING  *,R7
 USING  XLISTWA-(4+36),R8
                                   23389
                                   23390                       COMMENT                   GET QINFO
 0038A2 4100 0400            00400 23391                       LA    R0,XLISTLEN
 0038A6 4110 802C            00004 23392                       LA    R1,XLLIST
 0038AA 4120 728E            03B30 23393                       LA    R2,=CL16'SYS.XSETLIST    '
 0038AE 58E0 72C6/0DEE       03B68 23394                       VCALL GETDATA
 0038B4 4770 701E/5900_      038C0 23398                       IF    (NZ,OR,(R0,NE,XLISTLEN)),BEGIN
 0038C0 0000                       23425  1                      BOMB
 0038C2                            23427                       END
                                   23431
                                   23432                       COMMENT                   GET LRU SET NUMBER
 0038C2 5800 8428            00400 23433                       L     R0,XLISTEND
 0038C6 1200/4780 702C             23434                       IF    (R0,NZ),BEGIN
 0038CC 1BFF                       23448  1                      CLEAR R15
 0038CE                            23452                       END
 0038CE 7030/47F0 7034 038CE 038CA 23456                       ELSE  BEGIN
 0038D2 41F0 0004            00004 23467  1                      LA    R15,4
 0038D6                            23468                       END
                                   23472
 0038D6 5008 0004            00004 23473                       PRETURN (R0)
 0038DA 18D8/9808 D004_            23475                       PEND  ,
 DROP   XLISTWA-(4+36),R8
 DROP   *,R7
1XCALL    (XCAL2025) (13:01) (15MAR04) EXEC LRU Cache and Load List Routines                                                Page  118
0Current Usings:  (CP,R11) (CV,R12)
0Loc    Object Code    Addr1 Addr2  Stmt Lv Lineno    Source Statement           (Hibal 5, Asmedit 3.3)  HLASM R4.0  2004/03/15 13.01
+___    ______ ____    _____ _____  ____ __ ______    ______ _________
0                                  23501              *****$$$$ THIS ROUTINE NEVER USED,,, LRU,,, WILL EVENTUALLY DELETE
                                   23502              **
                                   23503              **  XLISTDEL- DELETE SET FROM SET LIST
                                   23504              **
                                   23505              **  ON ENTRY:
                                   23506              **       R0 - SET NUMBER
                                   23507              **
                                   23508              **  ON EXIT:
                                   23509              **       R15 - CC=ZERO
                                   23510              **
                                   23511              **
                                   23512              **  THE SET LIST IS A 'LRU' ORDERED LIST OF EXEC FILES. SEE
                                   23513              **  COMMENTS AT START OF 'XLISTCLR' ROUTINE FOR MORE INFO.
                                   23514              **
                                   23515              *
 0038E8 50E0 D000/9008_      00000 23516              XLISTDEL PROC  XLISTWA
 USING  *,R7
 USING  XLISTWA-(4+36),R8
 003902 5000 8028            00000 23566                       ST    R0,XLSETNO
 003906 5900 725E/4740_      03B60 23567                       IF    ((R0,LT,XLFIRST),OR,(R0,GE,XLFIRST+XLISTCNT)),BEGIN
 003916 0000                       23600  1                      BOMB
 003918                            23602                       END
                                   23606
                                   23607                       COMMENT                   GET QINFO
 003918 4100 0400            00400 23608                       LA    R0,XLISTLEN
 00391C 4110 802C            00004 23609                       LA    R1,XLLIST
 003920 4120 722E            03B30 23610                       LA    R2,=CL16'SYS.XSETLIST    '
 003924 58E0 7266/0DEE       03B68 23611                       VCALL GETDATA
 00392A 4770 7034/5900_      03936 23615                       IF    (NZ,OR,(R0,NE,XLISTLEN)),BEGIN
 003936 0000                       23642  1                      BOMB
 003938                            23644                       END
                                   23648
                                   23649                       COMMENT                   FIND SET TO DELETE
                                   23650                       COMMENT
 003938 5800 8028            00000 23651                       L     R0,XLSETNO          R0 - SET NUMBER TO MARK
 00393C 5810 802C            00004 23652                       L     R1,XLLIST           R1 - LIST ENTRY
 003940 4120 802C            00004 23653                       LA    R2,XLLIST           R2 - LIST INDEX
 003944 4130 8428            00400 23654                       LA    R3,XLISTEND         R3 - END OF LIST
 003948 1910/4780 705E_            23655                       WHILE ((R1,NE,R0),AND,(R2,LT,R3)),BEGIN
 003954 4122 0004            00004 23686  1                      LA    R2,4(R2)
 003958 5812 0000            00000 23687  1                      L     R1,0(R2)
 00395C 47F0 7046            03948 23688                       END
 003960 1910/4780 7066             23693                       IF    (R1,NE,R0),BEGIN    IF NOT FOUND
 003966 0000                       23708  1                      BOMB
 003968                            23710                       END
                                   23714
                                   23715                       COMMENT                   DELETE ITEM
 003968 186D/41D0 D400             23716                       XPUSH ,,XLISTLEN,PTR=R6
 00396E 4100 8428            00400 23719                       LA    R0,XLISTEND         CALCULATE LENGTH TO LIST END
 003972 1B01                       23720                       SR    R0,R1
 003974 1826                       23721                       LR    R2,R6
 003976 1830                       23722                       LR    R3,R0
 003978 4121 0004            00004 23723                       LA    R2,4(R1)
 00397C 1850                       23724                       LR    R5,R0
1XCALL    (XCAL2025) (13:01) (15MAR04) EXEC LRU Cache and Load List Routines                                                Page  119
0Current Usings:  (*,R7) (XLISTWA-(4+36),R8) (CP,R11) (CV,R12)
0Loc    Object Code    Addr1 Addr2  Stmt Lv Lineno    Source Statement           (Hibal 5, Asmedit 3.3)  HLASM R4.0  2004/03/15 13.01
+___    ______ ____    _____ _____  ____ __ ______    ______ _________
000397E 0E24                       23725                       MVCL  R2,R4
 003980 1826                       23726                       LR    R2,R6
 003982 1830                       23727                       LR    R3,R0
 003984 1841                       23728                       LR    R4,R1
 003986 1850                       23729                       LR    R5,R0
 003988 0E42                       23730                       MVCL  R4,R2               MOVE ALL ENTRIES UP DELETING ITEM
 00398A 4BD0 7274            03B76 23731                       XPOP  ,,XLISTLEN
 00398E D703 8428 8428 00400 00400 23733                       CLEAR XLISTEND
                                   23740
                                   23741                       COMMENT                   SAVE EXEC LRU LIST
 003994 4100 0400            00400 23742                       LA    R0,XLISTLEN
 003998 4110 802C            00004 23743                       LA    R1,XLLIST
 00399C 4120 722E            03B30 23744                       LA    R2,=CL16'SYS.XSETLIST    '
 0039A0 58E0 725A/0DEE       03B5C 23745                       VCALL SAVEDATA
                                   23749
 0039A6 1BFF                       23750                       CLEAR R15
 0039A8 18D8/9808 D004_            23754                       PEND  ,
 DROP   XLISTWA-(4+36),R8
 DROP   *,R7
1XCALL    (XCAL2025) (13:01) (15MAR04) Active EXECS List Routines                                                           Page  120
0Current Usings:  (CP,R11) (CV,R12)
0Loc    Object Code    Addr1 Addr2  Stmt Lv Lineno    Source Statement           (Hibal 5, Asmedit 3.3)  HLASM R4.0  2004/03/15 13.01
+___    ______ ____    _____ _____  ____ __ ______    ______ _________
0                                  23780              ¿þþþþþþþþþþþþþþþþþþþþþþþþþþþþþþþþþþþþþþþþþþþþþþþþþþþþþþþþþþþþþþþþþþþþþÜ
                                   23781              Ÿ                                                                     Ÿ
                                   23782              Ÿ                                                                     Ÿ
                                   23783              Ÿ  CLRALIST - CLEAR ACTIVE EXECS LIST                                 Ÿ
                                   23784              Ÿ                                                                     Ÿ
                                   23785              Ÿ  THE ACTIVE EXECS LIST KEEPS TRACK OF ALL ACTIVE EXECS.             Ÿ
                                   23786              Ÿ  EXECS ARE CONSIDERED ACTIVE IF THEY HAVE BEEN CALLED OR            Ÿ
                                   23787              Ÿ  OR LOADED AS A RESULT OF AN INITIAL XCALL FROM THE TERMINAL.       Ÿ
                                   23788              Ÿ  THE NUMBER OF ACTIVE EXEC FILES MUST BE LESS THAT THE              Ÿ
                                   23789              Ÿ  NUMBER OF EXECS CACHED (LRU SCHEME).  THIS INSURES THAT THE        Ÿ
                                   23790              Ÿ  XSET NUMBER FOR ALL ACTIVE EXECS WILL NOT BE CHANGED UNTIL         Ÿ
                                   23791              Ÿ  ALL THE XCALLS HAVE RETURNED AND CONTROL IS GIVEN TO THE           Ÿ
                                   23792              Ÿ  TERMINAL.                                                          Ÿ
                                   23793              Ÿ                                                                     Ÿ
                                   23794              Ÿ                                                                     Ÿ
                                                      ¾þþþþþþþþþþþþþþþþþþþþþþþþþþþþþþþþþþþþþþþþþþþþþþþþþþþþþþþþþþþþþþþþþþþþþ»
0                                  23795              ALISTCNT EQU   128                 MAXIMUM ELEMENTS IN LIST
                                   23796              ALISTLEN EQU   ALISTCNT*4          LENGTH OF LIST
                                   23797              * MAXIMUM MUST BE LESS THAN NUMBER OF EXECS IN LRU CASHE/2 !!
                                   23798              *
 000000                00000 00200 23799              CAWA     RECORD BEGIN
 000000                            23807  1           CALIST     DS    XL(ALISTLEN)
 000200                00200 00200 23808                       END
                                   23817              *
                                   23818              *
 0039B6 50E0 D000/9008_      00000 23819              CLRALIST XPROC CAWA
 USING  *,R7
 USING  CAWA-(4+36),R8
                                   23870
                                   23871                       COMMENT                   CLEAR AND SAVE CALL LIST
 0039D0 D7FF 8028 8028_00000 00000 23872                       CLEAR CALIST
 0039DC 4100 0200            00200 23880                       LA    R0,L'CALIST
 0039E0 4110 8028            00000 23881                       LA    R1,CALIST
 0039E4 4120 7170            03B40 23882                       LA    R2,=CL16'SYS.CALLEDLIST  '
 0039E8 58E0 718C/0DEE       03B5C 23883                       VCALL SAVEDATA
                                   23887
 0039EE 1BFF                       23888                       CLEAR R15
 0039F0 18D8/9808 D004_            23892                       PEND  ,
 DROP   CAWA-(4+36),R8
 DROP   *,R7
1XCALL    (XCAL2025) (13:01) (15MAR04) Active EXECS List Routines                                                           Page  121
0Current Usings:  (CP,R11) (CV,R12)
0Loc    Object Code    Addr1 Addr2  Stmt Lv Lineno    Source Statement           (Hibal 5, Asmedit 3.3)  HLASM R4.0  2004/03/15 13.01
+___    ______ ____    _____ _____  ____ __ ______    ______ _________
0                                  23918              ¿þþþþþþþþþþþþþþþþþþþþþþþþþþþþþþþþþþþþþþþþþþþþþþþþþþþþþþþþþþþþþþþþþþþþþÜ
                                   23919              Ÿ                                                                     Ÿ
                                   23920              Ÿ                                                                     Ÿ
                                   23921              Ÿ  MRKALIST - MARK ACTIVE EXECS LIST                                  Ÿ
                                   23922              Ÿ                                                                     Ÿ
                                   23923              Ÿ  ON ENTRY:                                                          Ÿ
                                   23924              Ÿ       R0 - XSET NUMBER OF ACTIVE EXEC TO ADD                        Ÿ
                                   23925              Ÿ      @R1 - EXEC RECORD GROUP INFO BLOCK                             Ÿ
                                   23926              Ÿ                                                                     Ÿ
                                   23927              Ÿ  ON EXIT:                                                           Ÿ
                                   23928              Ÿ      R15 - CC=Z, ALL OK                                             Ÿ
                                   23929              Ÿ            CC= NZ, TOO MANY EXECS ACTIVE                            Ÿ
                                   23930              Ÿ                                                                     Ÿ
                                   23931              Ÿ  THE ACTIVE EXECS LIST KEEPS TRACK OF ALL ACTIVE EXECS.             Ÿ
                                   23932              Ÿ  EXECS ARE CONSIDERED ACTIVE IF THEY HAVE BEEN CALLED OR            Ÿ
                                   23933              Ÿ  OR LOADED AS A RESULT OF AN INITIAL XCALL FROM THE TERMINAL.       Ÿ
                                   23934              Ÿ  THE NUMBER OF ACTIVE EXEC FILES MUST BE LESS THAT THE              Ÿ
                                   23935              Ÿ  NUMBER OF EXECS CACHED (LRU SCHEME).  THIS INSURES THAT THE        Ÿ
                                   23936              Ÿ  XSET NUMBER FOR ALL ACTIVE EXECS WILL NOT BE CHANGED UNTIL         Ÿ
                                   23937              Ÿ  ALL THE XCALLS HAVE RETURNED AND CONTROL IS GIVEN TO THE           Ÿ
                                   23938              Ÿ  TERMINAL.                                                          Ÿ
                                   23939              Ÿ                                                                     Ÿ
                                   23940              Ÿ  NOTE: ZERO ENTRIES ARE EMPTY ENTRIES, AT LEAST ONE EMPTY           Ÿ
                                   23941              Ÿ  ENTRY MUST ALWAYS EXIST AT END OF LIST.                            Ÿ
                                   23942              Ÿ                                                                     Ÿ
                                   23943              Ÿ                                                                     Ÿ
                                   23944              Ÿ                                                                     Ÿ
                                                      ¾þþþþþþþþþþþþþþþþþþþþþþþþþþþþþþþþþþþþþþþþþþþþþþþþþþþþþþþþþþþþþþþþþþþþþ»
0000000                00000 00200 23945              MAWA     RECORD BEGIN
 000000                            23953  1           MALIST     DS    XL(ALISTLEN)
 000200                00200 00200 23954                       END
                                   23963              *
                                   23964              *
 0039FE 50E0 D000/9008_      00000 23965              MRKALIST PROC  MAWA
 USING  *,R7
 USING  MAWA-(4+36),R8
 003A18 1830                       24015                       LR    R3,R0               R3 - SET NUMBER TO ADD
                                   24016
                                   24017                       COMMENT                   MARK ONLY PRIVATE EXECS,
                                   24018                       COMMENT                   PUBLIC EXECS ARE NOT IN LRU LIST
 003A1A 4120 B4A4            004A4 24019                       LA    R2,CPEXEC
 003A1E 1912/4780 7012             24020                       IF    (R1,NE,R2),BEGIN    IF PUBLIC EXEC, DO NOT ADD TO LIST
 003A24 1BFF                       24035  1                      CLEAR R15
 003A26 47F0 707C            03A94 24039  1                      B     MRKADONE
 003A2A                            24040                       END
                                   24044
                                   24045                       COMMENT                   GET ACTIVE EXEC LIST
 003A2A 4100 0200            00200 24046                       LA    R0,L'MALIST
 003A2E 4110 8028            00000 24047                       LA    R1,MALIST
 003A32 4120 7128            03B40 24048                       LA    R2,=CL16'SYS.CALLEDLIST  '
 003A36 58E0 7150/0DEE       03B68 24049                       VCALL GETDATA
 003A3C 4780 702A            03A42 24053                       IF    NZ,BEGIN
 003A40 0000                       24064  1                      BOMB
1XCALL    (XCAL2025) (13:01) (15MAR04) Active EXECS List Routines                                                           Page  122
0Current Usings:  (*,R7) (MAWA-(4+36),R8) (CP,R11) (CV,R12)
0Loc    Object Code    Addr1 Addr2  Stmt Lv Lineno    Source Statement           (Hibal 5, Asmedit 3.3)  HLASM R4.0  2004/03/15 13.01
+___    ______ ____    _____ _____  ____ __ ______    ______ _________
0003A42                            24066                       END
                                   24070
                                   24071                       COMMENT                   SEE IF ALREADY IN ACTIVE LIST
                                   24072                       COMMENT ,                 (LAST ENTRY IN LIST ALWAYS ZERO)
 003A42 4110 8028            00000 24073                       LA    R1,MALIST           R1 - ACTIVE LIST INDEX
 003A46 5821 0000            00000 24074                       L     R2,0(R1)            R2 - ACTIVE SET NUMBER
                                   24075                       COMMENT                   R3 - SET NUMBER TO ADD
                                   24076                       COMMENT                   R4 - LAST ENTRY IN LIST
 003A4A 4140 8224            001FC 24077                       LA    R4,MALIST+(L'MALIST-4)
 003A4E 1222/4780 704E_            24078                       WHILE ((R2,NZ),AND,(R2,NE,R3)),BEGIN
 003A5A 4111 0004            00004 24108  1                      LA    R1,4(R1)
 003A5E 5821 0000            00000 24109  1                      L     R2,0(R1)
 003A62 47F0 7036            03A4E 24110                       END
                                   24115
                                   24116                       COMMENT                   IF LIST FULL, RETURN CC=NZ
 003A66 1914/4750 705C             24117                       IF    (R1,GE,R4),BEGIN
 003A6C 41F0 0004            00004 24132  1                      LA    R15,4
 003A70 47F0 707C            03A94 24133  1                      B     MRKADONE
 003A74                            24134                       END
                                   24138
                                   24139                       COMMENT                   IF SET # NOT IN LIST,
 003A74 5920 7158/4770_      03B70 24140                       IF    (R2,EQ,0),BEGIN
 003A7C 5031 0000            00000 24157  1                      ST    R3,0(R1)            ADD TO LIST
 003A80 4100 0200            00200 24158  1                      LA    R0,L'MALIST
 003A84 4110 8028            00000 24159  1                      LA    R1,MALIST
 003A88 4120 7128            03B40 24160  1                      LA    R2,=CL16'SYS.CALLEDLIST  '
 003A8C 58E0 7144/0DEE       03B5C 24161  1                      VCALL SAVEDATA
 003A92                            24165                       END   ,
 003A92 1BFF                       24169                       CLEAR R15                 SET NUMBER IN LIST NOW
                                   24173
 003A94                            24174              MRKADONE LABEL ,
 003A94 18D8/9808 D004_            24176                       PEND  ,
 DROP   MAWA-(4+36),R8
 DROP   *,R7
1XCALL    (XCAL2025) (13:01) (15MAR04) Active EXECS List Routines                                                           Page  123
0Current Usings:  (CP,R11) (CV,R12)
0Loc    Object Code    Addr1 Addr2  Stmt Lv Lineno    Source Statement           (Hibal 5, Asmedit 3.3)  HLASM R4.0  2004/03/15 13.01
+___    ______ ____    _____ _____  ____ __ ______    ______ _________
0                                  24202              ¿þþþþþþþþþþþþþþþþþþþþþþþþþþþþþþþþþþþþþþþþþþþþþþþþþþþþþþþþþþþþþþþþþþþþþÜ
                                   24203              Ÿ                                                                     Ÿ
                                   24204              Ÿ                                                                     Ÿ
                                   24205              Ÿ  CHKALIST - CHECK ACTIVE EXEC LIST                                  Ÿ
                                   24206              Ÿ                                                                     Ÿ
                                   24207              Ÿ  ON ENTRY:                                                          Ÿ
                                   24208              Ÿ       R0 - XSET NUMBER OF EXEC TO CHECK                             Ÿ
                                   24209              Ÿ      @R1 - EXEC RECORD GROUP INFO BLOCK                             Ÿ
                                   24210              Ÿ                                                                     Ÿ
                                   24211              Ÿ  ON EXIT:                                                           Ÿ
                                   24212              Ÿ      R15 - CC=Z, EXEC ALREADY ACTIVE                                Ÿ
                                   24213              Ÿ            CC= NZ, EXEC NOT ACTIVE                                  Ÿ
                                   24214              Ÿ                                                                     Ÿ
                                   24215              Ÿ  THE ACTIVE EXECS LIST KEEPS TRACK OF ALL ACTIVE EXECS.             Ÿ
                                   24216              Ÿ  EXECS ARE CONSIDERED ACTIVE IF THEY HAVE BEEN CALLED OR            Ÿ
                                   24217              Ÿ  OR LOADED AS A RESULT OF AN INITIAL XCALL FROM THE TERMINAL.       Ÿ
                                   24218              Ÿ  THE NUMBER OF ACTIVE EXEC FILES MUST BE LESS THAT THE              Ÿ
                                   24219              Ÿ  NUMBER OF EXECS CACHED (LRU SCHEME).  THIS INSURES THAT THE        Ÿ
                                   24220              Ÿ  XSET NUMBER FOR ALL ACTIVE EXECS WILL NOT BE CHANGED UNTIL         Ÿ
                                   24221              Ÿ  ALL THE XCALLS HAVE RETURNED AND CONTROL IS GIVEN TO THE           Ÿ
                                   24222              Ÿ  TERMINAL.                                                          Ÿ
                                   24223              Ÿ                                                                     Ÿ
                                   24224              Ÿ  NOTE: ZERO ENTRIES ARE EMPTY ENTRIES, AT LEAST ONE EMPTY           Ÿ
                                   24225              Ÿ  ENTRY MUST ALWAYS EXIST AT END OF LIST.                            Ÿ
                                   24226              Ÿ                                                                     Ÿ
                                   24227              Ÿ                                                                     Ÿ
                                   24228              Ÿ                                                                     Ÿ
                                                      ¾þþþþþþþþþþþþþþþþþþþþþþþþþþþþþþþþþþþþþþþþþþþþþþþþþþþþþþþþþþþþþþþþþþþþþ»
0000000                00000 00200 24229              KAWA     RECORD BEGIN
 000000                            24237  1           KALIST     DS    XL(ALISTLEN)
 000200                00200 00200 24238                       END
                                   24247              *
                                   24248              *
 003AA2 50E0 D000/9008_      00000 24249              CHKALIST PROC  KAWA
 USING  *,R7
 USING  KAWA-(4+36),R8
 003ABC 1830                       24299                       LR    R3,R0               SET NUMBER TO CHECK
                                   24300
                                   24301                       COMMENT                   CHECK ONLY PRIVATE EXECS,
                                   24302                       COMMENT                   PUBLIC EXECS ARE NOT IN LRU LIST
 003ABE 4120 B4A4            004A4 24303                       LA    R2,CPEXEC
 003AC2 1912/4780 7012             24304                       IF    (R1,NE,R2),BEGIN    IF PUBLIC EXEC, DO CHECK
 003AC8 1BFF                       24319  1                      CLEAR R15
 003ACA 47F0 705E            03B1A 24323  1                      B     CHKADONE
 003ACE                            24324                       END
                                   24328
                                   24329                       COMMENT                   GET ACTIVE EXECS LIST
 003ACE 4100 0200            00200 24330                       LA    R0,L'KALIST
 003AD2 4110 8028            00000 24331                       LA    R1,KALIST
 003AD6 4120 7084            03B40 24332                       LA    R2,=CL16'SYS.CALLEDLIST  '
 003ADA 58E0 70AC/0DEE       03B68 24333                       VCALL GETDATA
 003AE0 4780 702A            03AE6 24337                       IF    NZ,BEGIN
 003AE4 0000                       24348  1                      BOMB
1XCALL    (XCAL2025) (13:01) (15MAR04) Active EXECS List Routines                                                           Page  124
0Current Usings:  (*,R7) (KAWA-(4+36),R8) (CP,R11) (CV,R12)
0Loc    Object Code    Addr1 Addr2  Stmt Lv Lineno    Source Statement           (Hibal 5, Asmedit 3.3)  HLASM R4.0  2004/03/15 13.01
+___    ______ ____    _____ _____  ____ __ ______    ______ _________
0003AE6                            24350                       END
                                   24354
                                   24355                       COMMENT                   SEE IF ALREADY IN ACTIVE LIST
                                   24356                       COMMENT ,                 (LAST ENTRY IN LIST ALWAYS ZERO)
 003AE6 4110 8028            00000 24357                       LA    R1,KALIST           R1 - CALLED LIST INDEX
 003AEA 5821 0000            00000 24358                       L     R2,0(R1)            R2 - CALLED SET NUMBER
                                   24359                       COMMENT                   R3 - SET NUMBER TO ADD
                                   24360                       COMMENT                   R4 - LAST ENTRY IN LIST
 003AEE 4140 8224            001FC 24361                       LA    R4,KALIST+(L'KALIST-4)
 003AF2 1222/4780 704E_            24362                       WHILE ((R2,NZ),AND,(R2,NE,R3)),BEGIN
 003AFE 4111 0004            00004 24392  1                      LA    R1,4(R1)
 003B02 5821 0000            00000 24393  1                      L     R2,0(R1)
 003B06 47F0 7036            03AF2 24394                       END
                                   24399
                                   24400                       COMMENT                   IF IN LIST CC=Z, IF NOT CC=NZ
 003B0A 1222/4770 7058             24401                       IF    (R2,Z),BEGIN        IF NOT IN LIST
 003B10 41F0 0004            00004 24415  1                      LA    R15,4
 003B14                            24416                       END
 003B14 705C/47F0 705E 03B14 03B0E 24420                       ELSE  BEGIN               IF IN LIST
 003B18 1BFF                       24431  1                      CLEAR R15
 003B1A                            24435                       END
                                   24439
 003B1A                            24440              CHKADONE LABEL ,
 003B1A 18D8/9808 D004_            24442                       PEND  ,
 DROP   KAWA-(4+36),R8
 DROP   *,R7
1XCALL    (XCAL2025) (13:01) (15MAR04) Active EXECS List Routines                                                           Page  125
0Current Usings:  (CP,R11) (CV,R12)
0Loc    Object Code    Addr1 Addr2  Stmt Lv Lineno    Source Statement           (Hibal 5, Asmedit 3.3)  HLASM R4.0  2004/03/15 13.01
+___    ______ ____    _____ _____  ____ __ ______    ______ _________
0                                  24468                       QLTORG
1XCALL    (XCAL2025) (13:01) (15MAR04) XCALL/PCALL - Routines                                                               Page  126
0Current Usings:  (CP,R11) (CV,R12)
0Loc    Object Code    Addr1 Addr2  Stmt Lv Lineno    Source Statement           (Hibal 5, Asmedit 3.3)  HLASM R4.0  2004/03/15 13.01
+___    ______ ____    _____ _____  ____ __ ______    ______ _________
0                                  24495              ¿þþþþþþþþþþþþþþþþþþþþþþþþþþþþþþþþþþþþþþþþþþþþþþþþþþþþþþþþþþþþþþþþþþþþþÜ
                                   24496              Ÿ                                                                     Ÿ
                                   24497              Ÿ                                                                     Ÿ
                                   24498              Ÿ  SCNXCALL - SCAN XCALL COMMAND                                      Ÿ
                                   24499              Ÿ                                                                     Ÿ
                                   24500              Ÿ  ON ENTRY:                                                          Ÿ
                                   24501              Ÿ       SCANCB - REMAINDER OF XCALL COMMAND                           Ÿ
                                   24502              Ÿ                                                                     Ÿ
                                   24503              Ÿ  ON EXIT:                                                           Ÿ
                                   24504              Ÿ       R0 - PARM_STRING LENGTH                                       Ÿ
                                   24505              Ÿ       R1 - PARM_STRING                                              Ÿ
                                   24506              Ÿ       R2 - R2=0 -- PARM LIST,  R2=NZ -- FREE FORMAT PARM            Ÿ
                                   24507              Ÿ       R3 - R3=0 -- ACTIVE,  R3=NZ -- REGULAR DSN                    Ÿ
                                   24508              Ÿ                                                                     Ÿ
                                   24509              Ÿ                                                                     Ÿ
                                   24510              Ÿ                                                                     Ÿ
                                                      ¾þþþþþþþþþþþþþþþþþþþþþþþþþþþþþþþþþþþþþþþþþþþþþþþþþþþþþþþþþþþþþþþþþþþþþ»
0000000                00000 000F3 24511              SCNXWA   RECORD BEGIN
 000000 00                         24519  1           SCNXFLG1   FLAG  ,
 SCNXFLG1.SCXFACT  01 EQ           24523  1                      FLAG  (SCXFACT,1,EQ)      ACTIVE
 SCNXFLG1.SCXFDSN  02 EQ           24533  1                      FLAG  (SCXFDSN,2,EQ)      DSN
 000001 00                         24543  1           SCNXFLG2   FLAG  ,
 SCNXFLG2.SCXFFREE 01 EQ           24547  1                      FLAG  (SCXFFREE,1,EQ)     FREE FORMAT PARMS
 SCNXFLG2.SCXFPARM 02 EQ           24557  1                      FLAG  (SCXFPARM,2,EQ)     PARM LIST SPECIFIED
 000004                            24567  1           SCNXPLEN   DS    F                   PARM STRING LENGTH
                                   24568  1           SCNXPARM   DS    CL(&LINESZ)         PARM STRING
 000008                                   1          +SCNXPARM   DS    CL(235)             PARM STRING
 0000F3                000F3 000F3 24569                       END
                                   24578              *
                                   24579              *
 003B78 50E0 D000/9008_      00000 24580              SCNXCALL PROC  SCNXWA
 USING  *,R7
 USING  SCNXWA-(4+36),R8
 003B92 4160 8028            00000 24630                       LA    R6,SCNXWA
 USING  SCNXWA,R6                  24631                       USING SCNXWA,R6
                                   24640
                                   24641                       COMMENT                   INIT WORK AREAS
 003B96 9200 6000      00000       24642                       CLEAR SCNXFLG1
 003B9A 9200 6001      00001       24649                       CLEAR SCNXFLG2
 003B9E D703 6004 6004 00004 00004 24656                       CLEAR SCNXPLEN
                                   24663
                                   24664                       COMMENT                   CHECK FOR DSN/ACTIVE
 003BA4 58E0 B08C/D2AF_      0008C 24665                       SCPUSH ,
 003BB2 5810 B08C/1B00_      0008C 24671                       SCAN  ,
 003C00 58E0 79DA/0DEE       0456C 24702                       SCANCHK
 003C06 58E0 B08C/4BD0_      0008C 24707                       SCPOP ,
 003C14 1200/4770 7094             24713                       IF    (R0,Z),BEGIN
 003C1A 4110 7A2E/4100_      045C0 24727  1                      ERROR 'Missing data set name.'
 003C26                            24734                       END
                                   24738
                                   24739                       COMMENT                   SCAN XCALL COMMAND
 003C26 5810 B08C/1B00_      0008C 24740                       SCAN  SCNXPRT
 003C78 58E0 79DA/0DEE       0456C 24772                       SCANCHK
1XCALL    (XCAL2025) (13:01) (15MAR04) XCALL/PCALL - Routines                                                               Page  127
0Current Usings:  (SCNXWA,R6) (*,R7) (SCNXWA-(4+36),R8) (CP,R11) (CV,R12)
0Loc    Object Code    Addr1 Addr2  Stmt Lv Lineno    Source Statement           (Hibal 5, Asmedit 3.3)  HLASM R4.0  2004/03/15 13.01
+___    ______ ____    _____ _____  ____ __ ______    ______ _________
0003C7E 1BFF                       24777                       CLEAR R15
                                   24781
 003C80 5800 6004            00004 24782                       L     R0,SCNXPLEN         LOAD UP RETURN PARMS
 003C84 4110 6008            00008 24783                       LA    R1,SCNXPARM
 003C88 1B22                       24784                       CLEAR R2
 003C8A 9501 6001/4770_00001       24788                       IF    SCXFFREE,BEGIN
 003C92 4120 0004            00004 24803  1                      LA    R2,4
 003C96                            24804                       END
 003C96 9501 6000/4770_00000       24808                       IF    SCXFACT,BEGIN
 003C9E 1B33                       24823  1                      CLEAR R3
 003CA0                            24827                       END
 003CA0 9502 6000/4770_00000       24831                       IF    SCXFDSN,BEGIN
 003CA8 4130 0004            00004 24846  1                      LA    R3,4
 003CAC                            24847                       END
 003CAC 1BFF                       24851                       CLEAR R15
 003CAE 9003 8004            00004 24855                       PRETURN (R0,R3)
 003CB2 18D8/9808 D004_            24857                       PEND  ,
 DROP   SCNXWA-(4+36),R8
 DROP   *,R7
1XCALL    (XCAL2025) (13:01) (15MAR04) XCALL/PCALL - Routines                                                               Page  128
0Current Usings:  (SCNXWA,R6) (CP,R11) (CV,R12)
0Loc    Object Code    Addr1 Addr2  Stmt Lv Lineno    Source Statement           (Hibal 5, Asmedit 3.3)  HLASM R4.0  2004/03/15 13.01
+___    ______ ____    _____ _____  ____ __ ______    ______ _________
0                                  24883                       ¿þþþþþþþþþþþþþþþþþþþþþþþþþþþþþþþþÜ
                                   24884                       Ÿ  SCAN ROUTINES FOR SCAN XCALL  Ÿ
                                   24885                       ¾þþþþþþþþþþþþþþþþþþþþþþþþþþþþþþþþ»
 003CC0 C1C3E3C9E5C54040_          24886              SCNXPRT  SCKW  ACTIVE,SXACT
 003CE8 4040404040404040_          24901                       SCKW  ,SXDSN
                                   24916
 003D10 4040404040404040_          24917              SXDSNPRT SCKW  ,V(FNAMPSHF),PUSH    FILE NAME OPTIONS
 003D38 4040404040404040_          24932                       SCKW  ,SXPARM
                                   24947
 003D60 4040404040404040_          24948              SXACTPRT SCKW  ,SXPARM             ACTIVE OPTIONS
-
0                                  24964                       ¿þþþþþþþþþþþþþþþÜ
                                   24965                       Ÿ  SCAN ACTIVE  Ÿ
                                   24966                       ¾þþþþþþþþþþþþþþþ»
 003D88 50E0 D000/9008_      00000 24967              SXACT    PROC  ,
 USING  *,R7
 003DA2 9201 6000      00000       25006                       SET   SCXFACT             SET ACTIVE SCANNED
 003DA6 5810 B08C/1B00_      0008C 25012                       SCAN  SXACTPRT            SCAN FOR PARMS
 003DF8 41F0 0004            00004 25044                       LA    R15,4
 003DFC 18D8/9808 D004_            25045                       PEND  ,
 DROP   *,R7
-                                  25066                       ¿þþþþþþþþþþþþÜ
                                   25067                       Ÿ  SCAN DSN  Ÿ
                                   25068                       ¾þþþþþþþþþþþþ»
 003E0A 50E0 D000/9008_      00000 25069              SXDSN    PROC  ,
 USING  *,R7
 003E24 9202 6000      00000       25108                       SET   SCXFDSN             SET DSN SCANNED
 003E28 58E0 B08C/D2AF_      0008C 25114                       SCPUSH ,
 003E36 58E0 B08C/501E_      0008C 25120                       SCINIT (R1),(R0)
 003E44 58E0 7754/0DEE       04578 25140                       VCALL DOFNAME
 003E4A 58E0 7758/0DEE       0457C 25144                       VCALL FILEOPTS             SCAN FILE NAME
                                   25148              *        SCAN L:=V(DSNPRT)         SCAN DSNNAME
 003E50 58E0 B08C/4BD0_      0008C 25149                       SCPOP ,
 003E5E 5810 B08C/1B00_      0008C 25155                       SCAN  SXDSNPRT            SCAN FOR MORE
 003EB0 58E0 7748/0DEE       0456C 25187                       SCANCHK
 003EB6 58E0 7760/0DEE       04584 25192                       VCALL FNAMEFIN
 003EBC 58E0 7764/0DEE       04588 25196                       VCALL NRESOLVE
 003EC2 18D8/9808 D004_            25200                       PEND  ,
 DROP   *,R7
                                   25220                       ¿þþþþþþþþþþþþþÜ
                                   25221                       Ÿ  SCAN PARM  Ÿ
                                   25222                       ¾þþþþþþþþþþþþþ»
 003ED0 50E0 D000/9008_      00000 25223              SXPARM   PROC  ,
 USING  *,R7
 003EEA 954D 1000/4770_00000       25262                       IF    (@R1,EQ,'('),BEGIN  IF () PARMS,,,
 003EF2 9202 6001      00001       25278  1                      SET   SCXFPARM
 003EF6 5000 6004            00004 25284  1                      ST    R0,SCNXPLEN
 003EFA 5830 6004            00004 25285  1                      L     R3,SCNXPLEN
 003EFE 0630/1233/4740_            25286  1                      MOVE  R3,SCNXPARM,@R1
1XCALL    (XCAL2025) (13:01) (15MAR04) XCALL/PCALL - Routines                                                               Page  129
0Current Usings:  (SCNXWA,R6) (*,R7) (CP,R11) (CV,R12)
0Loc    Object Code    Addr1 Addr2  Stmt Lv Lineno    Source Statement           (Hibal 5, Asmedit 3.3)  HLASM R4.0  2004/03/15 13.01
+___    ______ ____    _____ _____  ____ __ ______    ______ _________
0003F0A 1BFF                       25324  1                      CLEAR R15
 003F0C                            25328                       END
                                   25332                       COMMENT                   IF '' OR "" PARMS
 003F0C 7026/47F0 7052_03F0C 03EF0 25333                       ELSEIF ((@R1,EQ,'"'),OR,(@R1,EQ,'''')),BEGIN
 003F20 9201 6001      00001       25373  1                      SET   SCXFFREE
 003F24 58F0 B08C/4110_      0008C 25379  1                      SCDQUOTE SCNXPARM,L'SCNXPARM
 003F36 5000 6004            00004 25402  1                      ST    R0,SCNXPLEN
 003F3A 1BFF                       25403  1                      CLEAR R15
 003F3C                            25407                       END
 003F3C 7056/47F0 709C_03F3C 03F1E 25411                       ELSEIF (@R1,EQ,'/'),BEGIN IF / PARMS
 003F48 58E0 B08C/581E_      0008C 25436  1                      SCINFO
 003F56 9201 6001      00001       25445  1                      SET   SCXFFREE
 003F5A 5000 6004            00004 25451  1                      ST    R0,SCNXPLEN
 003F5E 5830 6004            00004 25452  1                      L     R3,SCNXPLEN
 003F62 0630/1233/4740_            25453  1                      MOVE  R3,SCNXPARM,@R1
 003F6E 4110 C4D8/1B00_      004D8 25491  1                      SCINIT CVBLANKS,0
 003F82 41F0 0004            00004 25514  1                      LA    R15,4
 003F86                            25515                       END
 003F86 70A0/47F0 70BC 03F86 03F46 25519                       ELSE  BEGIN               IF NONE OF ABOVE
 003F8A 41F0 B050/58E0_      00050 25530  1                      TSEG  (R1),(R0)
 003F94 D207 B886 766E_00886 04558 25554  1                      ERROR ': invalid',,INVALID
 003FA6                            25562                       END
                                   25566
 003FA6 18D8/9808 D004_            25567                       PEND  ,                   CONTINUE SCANNING
 DROP   *,R7
 DROP   SCNXWA,R6                  25587                       DROP  R6
1XCALL    (XCAL2025) (13:01) (15MAR04) XCALL/PCALL - Routines                                                               Page  130
0Current Usings:  (CP,R11) (CV,R12)
0Loc    Object Code    Addr1 Addr2  Stmt Lv Lineno    Source Statement           (Hibal 5, Asmedit 3.3)  HLASM R4.0  2004/03/15 13.01
+___    ______ ____    _____ _____  ____ __ ______    ______ _________
0                                  25595              ¿þþþþþþþþþþþþþþþþþþþþþþþþþþþþþþþþþþþþþþþþþþþþþþþþþþþþþþþþþþþþþþþþþþþþþÜ
                                   25596              Ÿ                                                                     Ÿ
                                   25597              Ÿ                                                                     Ÿ
                                   25598              Ÿ  SCNPCALL - SCAN PCALL COMMAND FOR PARM LIST/STRING                 Ÿ
                                   25599              Ÿ                                                                     Ÿ
                                   25600              Ÿ  ON ENTRY:                                                          Ÿ
                                   25601              Ÿ       SCANCB - REMAINDER OF PCALL COMMAND                           Ÿ
                                   25602              Ÿ                (PROC NAME HAS ALREADY BEEN SCANNED)                 Ÿ
                                   25603              Ÿ                                                                     Ÿ
                                   25604              Ÿ  ON EXIT:                                                           Ÿ
                                   25605              Ÿ       R0 - PARM_STRING LENGTH                                       Ÿ
                                   25606              Ÿ       R1 - PARM_STRING                                              Ÿ
                                   25607              Ÿ       R2 - R2=0 -- PARM LIST,  R2=NZ -- FREE FORMAT PARM            Ÿ
                                   25608              Ÿ                                                                     Ÿ
                                   25609              Ÿ                                                                     Ÿ
                                   25610              Ÿ                                                                     Ÿ
                                                      ¾þþþþþþþþþþþþþþþþþþþþþþþþþþþþþþþþþþþþþþþþþþþþþþþþþþþþþþþþþþþþþþþþþþþþþ»
0000000                00000 000F3 25611              SNNPWA   RECORD BEGIN
 000000 00                         25619  1           SNNPFLG    FLAG  ,
 SNNPFLG.SCPFFREE  01 EQ           25623  1                      FLAG  (SCPFFREE,1,EQ)     FREE FORMAT PARMS
 SNNPFLG.SCPFPARM  02 EQ           25633  1                      FLAG  (SCPFPARM,2,EQ)     PARM LIST SPECIFIED
 000004                            25643  1           SNNPPLEN   DS    F                   PARM STRING LENGTH
                                   25644  1           SNNPPARM   DS    CL(&LINESZ)         PARM STRING
 000008                                   1          +SNNPPARM   DS    CL(235)             PARM STRING
 0000F3                000F3 000F3 25645                       END
                                   25654              *
                                   25655              *
 003FB4 50E0 D000/9008_      00000 25656              SCNPCALL PROC  SNNPWA
 USING  *,R7
 USING  SNNPWA-(4+36),R8
 003FCE 4160 8028            00000 25706                       LA    R6,SNNPWA
 USING  SNNPWA,R6                  25707                       USING SNNPWA,R6
                                   25716
                                   25717                       COMMENT                   INIT WORK AREAS
 003FD2 9200 6000      00000       25718                       CLEAR SNNPFLG
 003FD6 D703 6004 6004 00004 00004 25725                       CLEAR SNNPPLEN
                                   25732
                                   25733                       COMMENT                   SCAN XCALL COMMAND
 003FDC 5810 B08C/1B00_      0008C 25734                       SCAN  SNNPPRT
 00402E 58E0 759E/0DEE       0456C 25766                       SCANCHK
                                   25771
 004034 5800 6004            00004 25772                       L     R0,SNNPPLEN         LOAD UP RETURN PARMS
 004038 4110 6008            00008 25773                       LA    R1,SNNPPARM
 00403C 1B22                       25774                       CLEAR R2
 00403E 9501 6000/4770_00000       25778                       IF    SCPFFREE,BEGIN
 004046 4120 0004            00004 25793  1                      LA    R2,4
 00404A                            25794                       END
 00404A 1BFF                       25798                       CLEAR R15
 00404C 9003 8004            00004 25802                       PRETURN (R0,R3)
 004050 18D8/9808 D004_            25804                       PEND  ,
 DROP   SNNPWA-(4+36),R8
 DROP   *,R7
1XCALL    (XCAL2025) (13:01) (15MAR04) XCALL/PCALL - Routines                                                               Page  131
0Current Usings:  (SNNPWA,R6) (CP,R11) (CV,R12)
0Loc    Object Code    Addr1 Addr2  Stmt Lv Lineno    Source Statement           (Hibal 5, Asmedit 3.3)  HLASM R4.0  2004/03/15 13.01
+___    ______ ____    _____ _____  ____ __ ______    ______ _________
0                                  25830                       ¿þþþþþþþþþþþþþþþþþþþþþþþþþþþþþþþþþþþþþþþþÜ
                                   25831                       Ÿ  SCAN ROUTINES FOR SCAN PCALL OPTIONS  Ÿ
                                   25832                       ¾þþþþþþþþþþþþþþþþþþþþþþþþþþþþþþþþþþþþþþþþ»
 004060 4040404040404040_          25833              SNNPPRT  SCKW  ,SPPARM
-
0                                  25849                       ¿þþþþþþþþþþþþþÜ
                                   25850                       Ÿ  SCAN PARM  Ÿ
                                   25851                       ¾þþþþþþþþþþþþþ»
 004088 50E0 D000/9008_      00000 25852              SPPARM   PROC  ,
 USING  *,R7
 0040A2 954D 1000/4770_00000       25891                       IF    (@R1,EQ,'('),BEGIN  IF () PARMS,,,
 0040AA 9202 6000      00000       25907  1                      SET   SCPFPARM
 0040AE 5000 6004            00004 25913  1                      ST    R0,SNNPPLEN
 0040B2 5830 6004            00004 25914  1                      L     R3,SNNPPLEN
 0040B6 0630/1233/4740_            25915  1                      MOVE  R3,SNNPPARM,@R1
 0040C2 1BFF                       25953  1                      CLEAR R15
 0040C4                            25957                       END
                                   25961                       COMMENT                   IF '' OR "" PARMS
 0040C4 7026/47F0 7076_040C4 040A8 25962                       ELSEIF ((@R1,EQ,'"'),OR,(@R1,EQ,'''')),BEGIN
 0040D8 58E0 74F6/0DEE       04598 26002  1                      VCALL DEQUOTE
 0040DE 47B0 705C            040FE 26006  1                      IF    NEG,BEGIN
 0040E2 41F0 B050/58E0_      00050 26017  2                        TSEG  (R1),(R0)
 0040EC D207 B886 74BE_00886 04560 26041  2                        ERROR ': mismatched quotes.',,SYNTAX
 0040FE                            26049  1                      END
 0040FE 9201 6000      00000       26053  1                      SET   SCPFFREE
 004102 5000 6004            00004 26059  1                      ST    R0,SNNPPLEN
 004106 5830 6004            00004 26060  1                      L     R3,SNNPPLEN
 00410A 0630/1233/4740_            26061  1                      MOVE  R3,SNNPPARM,@R1
 004116 1BFF                       26099  1                      CLEAR R15
 004118                            26103                       END
 004118 707A/47F0 70AC_04118 040D6 26107                       ELSEIF (@R1,EQ,'/'),BEGIN IF / PARMS
 004124 58E0 B08C/581E_      0008C 26132  1                      SCINFO
 004132 9201 6000      00000       26141  1                      SET   SCPFFREE
 004136 5000 6004            00004 26147  1                      ST    R0,SNNPPLEN
 00413A 5830 6004            00004 26148  1                      L     R3,SNNPPLEN
 00413E 0630/1233/4740_            26149  1                      MOVE  R3,SNNPPARM,@R1
 00414A 41F0 0004            00004 26187  1                      LA    R15,4
 00414E                            26188                       END
 00414E 70B0/47F0 70CC 0414E 04122 26192                       ELSE  BEGIN               IF NONE OF ABOVE
 004152 41F0 B050/58E0_      00050 26203  1                      TSEG  (R1),(R0)
 00415C D207 B886 74B6_00886 04558 26227  1                      ERROR ': invalid',,INVALID
 00416E                            26235                       END
 00416E 18D8/9808 D004_            26239                       PEND  ,                   CONTINUE SCANNING
 DROP   *,R7
-
1XCALL    (XCAL2025) (13:01) (15MAR04) XCALL/PCALL - Routines                                                               Page  132
0Current Usings:  (SNNPWA,R6) (CP,R11) (CV,R12)
0Loc    Object Code    Addr1 Addr2  Stmt Lv Lineno    Source Statement           (Hibal 5, Asmedit 3.3)  HLASM R4.0  2004/03/15 13.01
+___    ______ ____    _____ _____  ____ __ ______    ______ _________
0                                  26261              ¿þþþþþþþþþþþþþþþþþþþþþþþþþþþþþþþþþþþþþþþþþþþþþþþþþþþþþþþþþþþþþþþþþþþþþÜ
                                   26262              Ÿ                                                                     Ÿ
                                   26263              Ÿ                                                                     Ÿ
                                   26264              Ÿ  SCNDSN - SCAN DSN                                                  Ÿ
                                   26265              Ÿ                                                                     Ÿ
                                   26266              Ÿ  SCAN DSN NAME ALLOWING THE FOLLOWING:                              Ÿ
                                   26267              Ÿ       ACTIVE                                                        Ÿ
                                   26268              Ÿ       <DSNAME>  <DSN OPTIONS>                                       Ÿ
                                   26269              Ÿ       FROM <DSNAME>  <DSN OPTIONS>                                  Ÿ
                                   26270              Ÿ                                                                     Ÿ
                                   26271              Ÿ                                                                     Ÿ
                                   26272              Ÿ  ON ENTRY:                                                          Ÿ
                                   26273              Ÿ       SCANCB - SCAN CONTROL BLOCK SET UP                            Ÿ
                                   26274              Ÿ       IF R0=0, 'FROM' REQUIRED, IF R0=NZ 'FROM' OPTIONAL            Ÿ
                                   26275              Ÿ                                                                     Ÿ
                                   26276              Ÿ  ON EXIT:                                                           Ÿ
                                   26277              Ÿ       FFINFO DXECT CONTAIN FILE NAME, FILE HOST, FILE TYPE          Ÿ
                                   26278              Ÿ       R15 - CC=Z, IF 'ACTIVE' SCANNED                               Ÿ
                                   26279              Ÿ             CC=NZ, IF <DSN>  ... SCANNED                            Ÿ
                                   26280              Ÿ             NULL SCAN AND ERRORS EXIT VIA CVERROR                   Ÿ
                                   26281              Ÿ                                                                     Ÿ
                                   26282              Ÿ                                                                     Ÿ
                                   26283              Ÿ                                                                     Ÿ
                                                      ¾þþþþþþþþþþþþþþþþþþþþþþþþþþþþþþþþþþþþþþþþþþþþþþþþþþþþþþþþþþþþþþþþþþþþþ»
000417C 50E0 D000/9008_      00000 26284              SCNDSN   PROC  ,
 USING  *,R7
                                   26323
                                   26324                       COMMENT                   CHECK FOR MISSING DSN
 004196 5000 D000/41D0_      00000 26325                       XPUSH R0
 00419E 58E0 B08C/D2AF_      0008C 26328                       SCPUSH ,
 0041AC 5810 B08C/1B00_      0008C 26334                       SCAN  ,
 0041FA 58E0 73D6/0DEE       0456C 26365                       SCANCHK ,
 004200 58E0 B08C/4BD0_      0008C 26370                       SCPOP ,
 00420E 1200/4770 708A             26376                       IF    (R0,Z),BEGIN
 004214 4110 742A/4100_      045C0 26390  1                      ERROR 'Missing data set name.'
 004220                            26397                       END
 004220 4BD0 7440/5800_      045D6 26401                       XPOP  R0
                                   26404
                                   26405                       COMMENT                   SCAN 'FROM' DSN  OR 'ACTIVE'
 004228 1200/4770 70F0             26406                       IF    (R0,Z),BEGIN
 00422E 5810 B08C/1B00_      0008C 26420  1                      SCAN  SDSNPRT
 004280 58E0 73D6/0DEE       0456C 26452  1                      SCANCHK
 004286                            26457                       END
                                   26461
                                   26462                       COMMENT                   SCAN, 'FROM' OPTIONAL
 004286 70F4/47F0 7146 04286 0422C 26463                       ELSE BEGIN
 00428A 5810 B08C/1B00_      0008C 26474  1                      SCAN  SDSNXPRT
 0042DC                            26506                       END
                                   26510
 0042DC                            26511              SDSNDONE LABEL ,
 0042DC 18F5                       26513                       LR    R15,R5              SET RETURN CODE
 0042DE 18D8/9808 D004_            26514                       PEND  ,
 DROP   *,R7
1XCALL    (XCAL2025) (13:01) (15MAR04) XCALL/PCALL - Routines                                                               Page  133
0Current Usings:  (SNNPWA,R6) (CP,R11) (CV,R12)
0Loc    Object Code    Addr1 Addr2  Stmt Lv Lineno    Source Statement           (Hibal 5, Asmedit 3.3)  HLASM R4.0  2004/03/15 13.01
+___    ______ ____    _____ _____  ____ __ ______    ______ _________
0                                  26535                       ¿þþþþþþþþþþþþþþþþþþþþþþþþÜ
                                   26536                       Ÿ  DSN SCANNER ROUTINES  Ÿ
                                   26537                       ¾þþþþþþþþþþþþþþþþþþþþþþþþ»
 0042EC C6D9D6D440404040_          26538              SDSNPRT  SCKW  FROM,SDSNFROM,A
 004314 C1C3E3C9E5C54040_          26553                       SCKW  ACTIVE,SDSNACT,A
 00433C 4040404040404040_          26568                       SCKW  ,V(SCNINVAL)
                                   26583
 004364 C6D9D6D440404040_          26584              SDSNXPRT SCKW  FROM,SDSNFROM,A
 00438C C1C3E3C9E5C54040_          26599                       SCKW  ACTIVE,SDSNACT,A
 0043B4 4040404040404040_          26614                       SCKW  ,SDSNDSN
-
0                                  26630                       ¿þþþþþþþþþþÜ
                                   26631                       Ÿ  ACTIVE  Ÿ
                                   26632                       ¾þþþþþþþþþþ»
 0043DC 50E0 D000/9008_      00000 26633              SDSNACT  PROC  ,
 USING  *,R7
 0043F6 1B55                       26672                       CLEAR R5                  MARK 'ACTIVE' SCANNED
 0043F8 5058 0018            00018 26676                       PRETURN (R5)
 0043FC 41F0 0004            00004 26678                       LA    R15,4
 004400 18D8/9808 D004_            26679                       PEND  ,
 DROP   *,R7
-
                                   26700                       ¿þþþþþþþÜ
                                   26701                       Ÿ  DSN  Ÿ
                                   26702                       ¾þþþþþþþ»
 00440E 50E0 D000/9008_      00000 26703              SDSNDSN  PROC  ,
 USING  *,R7
 004428 58E0 B08C/D2AF_      0008C 26742                       SCPUSH ,                  SAVE OPTIONS
 004436 58E0 B08C/501E_      0008C 26748                       SCINIT (R1),(R0)          INIT NAME
 004444 58E0 7150/0DEE       04578 26768                       VCALL DOFNAME
 00444A 58E0 7154/0DEE       0457C 26772                       VCALL FILEOPTS
 004450 58E0 B08C/4BD0_      0008C 26776                       SCPOP ,
 00445E 58E0 7190/0DEE       045B8 26782                       VCALL FILFOPTS
 004464 58E0 715C/0DEE       04584 26786                       VCALL FNAMEFIN
 00446A 58E0 7160/0DEE       04588 26790                       VCALL NRESOLVE
 004470 4150 0004            00004 26794                       LA    R5,4
 004474 5058 0018            00018 26795                       PRETURN (R5)
 004478 41F0 0004            00004 26797                       LA    R15,4
 00447C 18D8/9808 D004_            26798                       PEND  ,
 DROP   *,R7
-
                                   26819                       ¿þþþþþþþþþþþþÜ
                                   26820                       Ÿ  FROM DSN  Ÿ
                                   26821                       ¾þþþþþþþþþþþþ»
 00448A 50E0 D000/9008_      00000 26822              SDSNFROM PROC  ,
 USING  *,R7
 0044A4 58E0 B08C/D2AF_      0008C 26861                       SCPUSH ,
1XCALL    (XCAL2025) (13:01) (15MAR04) XCALL/PCALL - Routines                                                               Page  134
0Current Usings:  (SNNPWA,R6) (*,R7) (CP,R11) (CV,R12)
0Loc    Object Code    Addr1 Addr2  Stmt Lv Lineno    Source Statement           (Hibal 5, Asmedit 3.3)  HLASM R4.0  2004/03/15 13.01
+___    ______ ____    _____ _____  ____ __ ______    ______ _________
00044B2 5810 B08C/1B00_      0008C 26867                       SCAN  ,
 004500 58E0 70C8/0DEE       0456C 26898                       SCANCHK
 004506 58E0 B08C/4BD0_      0008C 26903                       SCPOP ,
 004514 1200/4770 7082             26909                       IF    (R0,Z),BEGIN
 00451A 4110 711C/4100_      045C0 26923  1                      ERROR 'Missing data set name.'
 004526                            26930                       END
 004526 58E0 70D4/0DEE       04578 26934                       VCALL DOFNAME
 00452C 58E0 70D8/0DEE       0457C 26938                       VCALL FILEOPTS
 004532 58E0 70E0/0DEE       04584 26942                       VCALL FNAMEFIN
 004538 58E0 70E4/0DEE       04588 26946                       VCALL NRESOLVE
 00453E 4150 0004            00004 26950                       LA    R5,4
 004542 5058 0018            00018 26951                       PRETURN (R5)
 004546 41F0 0004            00004 26953                       LA    R15,4
 00454A 18D8/9808 D004_            26954                       PEND  ,
 DROP   *,R7
1XCALL    (XCAL2025) (13:01) (15MAR04) XCALL/PCALL - Routines                                                               Page  135
0Current Usings:  (SNNPWA,R6) (CP,R11) (CV,R12)
0Loc    Object Code    Addr1 Addr2  Stmt Lv Lineno    Source Statement           (Hibal 5, Asmedit 3.3)  HLASM R4.0  2004/03/15 13.01
+___    ______ ____    _____ _____  ____ __ ______    ______ _________
0                                  26975                       QLTORG
1XCALL    (XCAL2025) (13:01) (15MAR04) XCALL/PCALL - Parameter Scanning Routines                                            Page  136
0Current Usings:  (SNNPWA,R6) (CP,R11) (CV,R12)
0Loc    Object Code    Addr1 Addr2  Stmt Lv Lineno    Source Statement           (Hibal 5, Asmedit 3.3)  HLASM R4.0  2004/03/15 13.01
+___    ______ ____    _____ _____  ____ __ ______    ______ _________
0                                  27012              ¿þþþþþþþþþþþþþþþþþþþþþþþþþþþþþþþþþþþþþþþþþþþþþþþþþþþþþþþþþþþþþþþþþþþþþÜ
                                   27013              Ÿ                                                                     Ÿ
                                   27014              Ÿ                                                                     Ÿ
                                   27015              Ÿ  PSCNPARM - PRESCAN PARM FIELD                                      Ÿ
                                   27016              Ÿ                                                                     Ÿ
                                   27017              Ÿ  ON ENTRY:                                                          Ÿ
                                   27018              Ÿ       SCANCB - SCAN CONTROL BLOCK                                   Ÿ
                                   27019              Ÿ  ON EXIT:                                                           Ÿ
                                   27020              Ÿ       R0 - PARM LENGTH                                              Ÿ
                                   27021              Ÿ       R1 - PARM LOCATION                                            Ÿ
                                   27022              Ÿ      R15 - CC=ZERO                                                  Ÿ
                                   27023              Ÿ            ALL ERRORS EXIT VIA CVERROR                              Ÿ
                                   27024              Ÿ                                                                     Ÿ
                                   27025              Ÿ                                                                     Ÿ
                                                      ¾þþþþþþþþþþþþþþþþþþþþþþþþþþþþþþþþþþþþþþþþþþþþþþþþþþþþþþþþþþþþþþþþþþþþþ»
0004600 50E0 D000/9008_      00000 27026              PSCNPARM XPROC ,
 USING  *,R7
                                   27066
 00461A 1B44                       27067                       CLEAR R4                  R4 - START
 00461C 1B55                       27071                       CLEAR R5                  R5 - END
                                   27075
                                   27076                       COMMENT                   SCAN TO END OF PARM
 00461E 5810 B08C/1B00_      0008C 27077                       SCAN  ,
 00466C 58E0 775A/0DEE       04D74 27108                       SCANCHK
 004672 1200/4780 712C             27113                       IF    (R0,NZ),BEGIN
 004678 1841                       27127  1                      LR    R4,R1               MARK START
 00467A 1851                       27128  1                      LR    R5,R1
 00467C 1A50                       27129  1                      AR    R5,R0
 00467E 954D 1000/4770_00000       27130  1                      IF    (@R1,EQ,'('),BEGIN  IF ... (PARM LIST),
 004686 58E0 775E/0DEE       04D78 27146  2                        VCALL NOOPTS              CHECK FOR NO FURTHER PARMS
 00468C                            27150  1                      END
 00468C 7076/47F0 712C 0468C 04684 27154  1                      ELSE  BEGIN               IF ... FREE FORM PARMS ..,
 004690 5810 B08C/1B00_      0008C 27165  2                        SCAN  ,                   KEEP SCANNING
 0046DE 58E0 775A/0DEE       04D74 27196  2                        SCANCHK
 0046E4 1200/4780 712C             27201  2                        WHILE (R0,NZ),BEGIN
 0046EA 1851                       27217  3                          LR    R5,R1
 0046EC 1A50                       27218  3                          AR    R5,R0
 0046EE 5810 B08C/1B00_      0008C 27219  3                          SCAN  ,
 00473C 58E0 775A/0DEE       04D74 27250  3                          SCANCHK
 004742 47F0 70CA            046E4 27255  2                        END
 004746                            27260  1                      END
 004746                            27264                       END
                                   27268
 004746 1814                       27269                       LR    R1,R4
 004748 1805                       27270                       LR    R0,R5
 00474A 1B01                       27271                       SR    R0,R1
 00474C 58E0 7762/0DEE       04D7C 27272                       VCALL LRTRIM
 004752 1BFF                       27276                       CLEAR R15
 004754 9001 8004            00004 27280                       PRETURN (R0,R1)
 004758 18D8/9808 D004_            27282                       PEND  ,
 DROP   *,R7
1XCALL    (XCAL2025) (13:01) (15MAR04) XCALL/PCALL - Parameter Scanning Routines                                            Page  137
0Current Usings:  (SNNPWA,R6) (CP,R11) (CV,R12)
0Loc    Object Code    Addr1 Addr2  Stmt Lv Lineno    Source Statement           (Hibal 5, Asmedit 3.3)  HLASM R4.0  2004/03/15 13.01
+___    ______ ____    _____ _____  ____ __ ______    ______ _________
0                                  27303              ¿þþþþþþþþþþþþþþþþþþþþþþþþþþþþþþþþþþþþþþþþþþþþþþþþþþþþþþþþþþþþþþþþþþþþþÜ
                                   27304              Ÿ                                                                     Ÿ
                                   27305              Ÿ                                                                     Ÿ
                                   27306              Ÿ  SCNNLIST - EVALUATE PROCEDURE NAME LIST                            Ÿ
                                   27307              Ÿ                                                                     Ÿ
                                   27308              Ÿ                                                                     Ÿ
                                   27309              Ÿ  ON ENTRY:                                                          Ÿ
                                   27310              Ÿ       R0 - LENGTH OF REMAINING EXPRESSION                           Ÿ
                                   27311              Ÿ       R1 - START OF PARM LIST (POINTS AT "(")                       Ÿ
                                   27312              Ÿ       R2 - RETURN AREA FOR NAME LIST                                Ÿ
                                   27313              Ÿ                                                                     Ÿ
                                   27314              Ÿ  ON EXIT:                                                           Ÿ
                                   27315              Ÿ       R0 - NAME COUNT (SEE NOTE)                                    Ÿ
                                   27316              Ÿ      R15 - CC=ZERO, ALL OK                                          Ÿ
                                   27317              Ÿ            CC=NZ, INVALID NAME LIST, ERR MSG TSEG'D                 Ÿ
                                   27318              Ÿ                                                                     Ÿ
                                   27319              Ÿ  REGISTER USAGE:                                                    Ÿ
                                   27320              Ÿ       R1,R0 - STRING LOCATION,LENGTH                                Ÿ
                                   27321              Ÿ       R2 - NAME RETURN LIST INDEX                                   Ÿ
                                   27322              Ÿ       R3 - VALUE COUNT                                              Ÿ
                                   27323              Ÿ                                                                     Ÿ
                                   27324              Ÿ  NOTE: NAME COUNT IS -1 IF FREE FORM PARAMETER.                     Ÿ
                                   27325              Ÿ        NAME COUNT IS 0 IF NONE.                                     Ÿ
                                   27326              Ÿ        NAME COUNT IS 0 TO N FOR NAMES INCLOSED IN PARENTHESIS.      Ÿ
                                   27327              Ÿ                                                                     Ÿ
                                   27328              Ÿ                                                                     Ÿ
                                                      ¾þþþþþþþþþþþþþþþþþþþþþþþþþþþþþþþþþþþþþþþþþþþþþþþþþþþþþþþþþþþþþþþþþþþþþ»
0004766 50E0 D000/9008_      00000 27329              SCNNLIST XPROC ,
 USING  *,R7
                                   27369
 004780 1842                       27370                       LR    R4,R2
 004782 5850 7600            04D80 27371                       L     R5,=AL4(L'NLIST)
 004786 1BFF                       27372                       CLEAR R15
 004788 0E4E                       27376                       MVCL  R4,R14              CLEAR VALUE LIST
 00478A 1B33                       27377                       CLEAR R3
 00478C 58E0 75FC/0DEE       04D7C 27381                       VCALL LRTRIM
                                   27385
                                   27386                       COMMENT                   CHECK FOR NO NAMES
 004792 1200/4720 7020             27387                       IF    (R0,NP),BEGIN
 004798 1B33                       27401  1                      CLEAR R3
 00479A 1BFF                       27405  1                      CLEAR R15
 00479C 47F0 7210            04990 27409  1                      B     SCNNDONE
 0047A0                            27410                       END
                                   27414
                                   27415                       COMMENT                   IF FREE FORMAT LIST, BOMB
 0047A0 954D 1000/4780_00000       27416                       IF    (@R1,NE,'('),BEGIN
 0047A8 0000                       27432  1                      BOMB
 0047AA                            27434                       END
                                   27438
                                   27439                       COMMENT                   GOT '(',  SKIP IT
 0047AA 4111 0001            00001 27440                       LA    R1,1(R1)
 0047AE 0600                       27441                       BCTR  R0,0
                                   27442
1XCALL    (XCAL2025) (13:01) (15MAR04) XCALL/PCALL - Parameter Scanning Routines                                            Page  138
0Current Usings:  (SNNPWA,R6) (*,R7) (CP,R11) (CV,R12)
0Loc    Object Code    Addr1 Addr2  Stmt Lv Lineno    Source Statement           (Hibal 5, Asmedit 3.3)  HLASM R4.0  2004/03/15 13.01
+___    ______ ____    _____ _____  ____ __ ______    ______ _________
0                                  27443                       COMMENT                   CHECK FOR (),   EMPTY NAMES
 0047B0 9540 1000/4770_00000       27444                       WHILE ((@R1,EQ,' '),AND,(R0,POS)),BEGIN
 0047BE 4111 0001            00001 27475  1                      LA    R1,1(R1)
 0047C2 0600                       27476  1                      DECR  R0
 0047C4 47F0 7030            047B0 27478                       END
 0047C8 955D 1000/4770_00000       27483                       IF    ((@R1,EQ,')'),AND,(R0,POS)),BEGIN
 0047D6 4111 0001            00001 27512  1                      LA    R1,1(R1)
 0047DA 1B33                       27513  1                      CLEAR R3
 0047DC 1BFF                       27517  1                      CLEAR R15
 0047DE 47F0 7210            04990 27521  1                      B     SCNNDONE
 0047E2                            27522                       END
                                   27526                       ¿þþþþþþþþþþþþþþþþþþþþþþþþþþÜ
                                   27527                       Ÿ  LOOP SCANNING NAMES !!  Ÿ
                                   27528                       ¾þþþþþþþþþþþþþþþþþþþþþþþþþþ»
                                   27529                       COMMENT                   LOOP EVALUATING NAMES
 0047E2 1B33                       27530                       CLEAR R3
 0047E4 955D 1000/4780_00000       27534                       WHILE (@R1,NE,')'),BEGIN  LOOP
 0047EC 4133 0001            00001 27552  1                      LA    R3,1(R3)
 0047F0 5930 7604/47D0_      04D84 27553  1                      IF    (R3,GT,CPPLIMIT),BEGIN   ERROR: TOO MANY NAMES
 0047F8 58E0 7608/0DEE       04D88 27570  2                        ACALL MANYPARM
 0047FE 47F0 7210            04990 27574  2                        B     SCNNDONE
 004802                            27575  1                      END
                                   27579  1
                                   27580  1                      COMMENT
 004802 1841                       27581  1                      LR    R4,R1
 004804 1850                       27582  1                      LR    R5,R0
 004806 18ED/41D0 D43C_            27583  1                      TPUSH ,                   TPUSH-TPOP - JUNK ANY ERR MSG
 00483A 58E0 7610/0DEE       04D90 27621  1                      ACALL SCNPDESC            EVALUATE NAME NAME (DESCRIPTOR)
 004840 4BD0 7634/D23B_      04DB4 27625  1                      TPOP  JUNK
 00484A 12FF/4770 7210             27630  1                      IF    (R15,NZ),SCNNDONE
                                   27647  1                      COMMENT                   IF ALL OK, NAME RETURNED @R2
                                   27648  1
                                   27649  1                      COMMENT                   SKIP TRAILING BLANKS
 004850 9540 1000/4770_00000       27650  1                      WHILE ((@R1,EQ,' '),AND,(R0,POS)),BEGIN
 00485E 4111 0001            00001 27681  2                        LA    R1,1(R1)
 004862 0600                       27682  2                        DECR  R0
 004864 47F0 70D0            04850 27684  1                      END
                                   27689  1
                                   27690  1                      COMMENT                   ONLY ALLOW SIMPLE NAMES
 USING  VNENTRY,R2                 27691  1                      USING VNENTRY,R2
 004868 9500 2010/4780_00010       27700  1                      IF    (VNPREFIX,NE,0),BEGIN
 004870 4110 7678/4100_      04DF8 27718  2                        TSEG  'Procedure variable list may contain only '
 004882 4110 7636/4100_      04DB6 27736  2                        TSEG  'simple local variables and arrays.',,CR
 004894 4110 76A1/4100_      04E21 27754  2                        TSEG  'Prefixed variables are not allowed.  '
 0048A6 58E0 761C/0DEE       04D9C 27772  2                        ACALL PARMERR
 0048AC 47F0 7210            04990 27776  2                        B     SCNNDONE
 0048B0                            27777  1                      END
 0048B0 D501 75B8 2012_04D38 00012 27781  1                      IF    (VNASUB1,NE,0),BEGIN
 0048BA 4110 7678/4100_      04DF8 27799  2                        TSEG  'Procedure variable list may contain only '
 0048CC 4110 7636/4100_      04DB6 27817  2                        TSEG  'simple local variables and arrays.',,CR
 0048DE 4110 75C0/4100_      04D40 27835  2                        TSEG  'Array element specified is not a local variable.'
 0048F0 58E0 761C/0DEE       04D9C 27853  2                        ACALL PARMERR
 0048F6 47F0 7210            04990 27857  2                        B     SCNNDONE
 0048FA                            27858  1                      END
1XCALL    (XCAL2025) (13:01) (15MAR04) XCALL/PCALL - Parameter Scanning Routines                                            Page  139
0Current Usings:  (SNNPWA,R6) (*,R7) (CP,R11) (CV,R12)
0Loc    Object Code    Addr1 Addr2  Stmt Lv Lineno    Source Statement           (Hibal 5, Asmedit 3.3)  HLASM R4.0  2004/03/15 13.01
+___    ______ ____    _____ _____  ____ __ ______    ______ _________
0DROP   VNENTRY,R2                 27862  1                      DROP  R2
                                   27869  1
 0048FA 1200/4720 719C             27870  1                      IF    (R0,NP),BEGIN            ERROR: PREMATURE END OF NAMES
 004900 4110 7658/4100_      04DD8 27884  2                        TSEG  'Expecting ")".'
 004912 58E0 761C/0DEE       04D9C 27902  2                        ACALL PARMERR
 004918 47F0 7210            04990 27906  2                        B     SCNNDONE
 00491C                            27907  1                      END
 00491C 955E 1000/4770_00000       27911  1                      IF    (@R1,EQ,';'),BEGIN       ERROR: PREMATURE END OF NAMES
 004924 4110 76C6/4100_      04E46 27927  2                        TSEG  '; -- invalid.  Expecting ")".'
 004936 58E0 761C/0DEE       04D9C 27945  2                        ACALL PARMERR
 00493C 47F0 7210            04990 27949  2                        B     SCNNDONE
 004940                            27950  1                      END
 004940 956B 1000/4780_00000       27954  1                      IF    (@R1,NE,','),BEGIN       ERROR: MISSING NAME SEPARATOR
 004948 955D 1000/4780_00000       27970  2                        IF    (@R1,NE,')'),BEGIN
 004950 58E0 7620/0DEE       04DA0 27986  3                          VCALL CHECKEND
 004956 4110 76E3/4100_      04E63 27990  3                          TSEG  'Procedure parameters must be separated by commas.'
 004968 58E0 761C/0DEE       04D9C 28008  3                          ACALL PARMERR
 00496E 47F0 7210            04990 28012  3                          B     SCNNDONE
 004972                            28013  2                        END
 004972                            28017  1                      END
 004972 956B 1000/4770_00000       28021  1                      IF    (@R1,EQ,','),BEGIN       GOT NAME SEPARATOR, SKIP
 00497A 4111 0001            00001 28037  2                        LA    R1,1(R1)
 00497E 0600                       28038  2                        DECR  R0
 004980                            28040  1                      END
                                   28044  1                      COMMENT                   GET SET TO EVALUATE NEXT NAME
 004980 4122 0020            00020 28045  1                      LA    R2,L'VNDESC(R2)     R2 - NEXT PLACE TO PUT VALUE
                                   28046  1                      COMMENT                   R1,R0 - LOC,LEN OF REMAINING NAMES
                                   28047  1                      COMMENT
 004984 47F0 7064            047E4 28048                       END   ,,                  LOOP EVALUATING PARAMETERS
                                   28053
                                   28054                       COMMENT                   LOOP TERMINATED OK,,
 004988 4111 0001            00001 28055                       LA    R1,1(R1)            SKIP FINAL ')'
 00498C 0600                       28056                       DECR  R0
 00498E 1BFF                       28058                       CLEAR R15                 SET CC=ZERO
                                   28062
 004990                            28063              SCNNDONE LABEL ,
 004990 1803                       28065                       LR    R0,R3               RETURN PARM COUNT
 004992 5008 0004            00004 28066                       PRETURN (R0)
 004996 18D8/9808 D004_            28068                       PEND  ,
 DROP   *,R7
1XCALL    (XCAL2025) (13:01) (15MAR04) XCALL/PCALL - Parameter Scanning Routines                                            Page  140
0Current Usings:  (SNNPWA,R6) (CP,R11) (CV,R12)
0Loc    Object Code    Addr1 Addr2  Stmt Lv Lineno    Source Statement           (Hibal 5, Asmedit 3.3)  HLASM R4.0  2004/03/15 13.01
+___    ______ ____    _____ _____  ____ __ ______    ______ _________
0                                  28089              ¿þþþþþþþþþþþþþþþþþþþþþþþþþþþþþþþþþþþþþþþþþþþþþþþþþþþþþþþþþþþþþþþþþþþþþÜ
                                   28090              Ÿ                                                                     Ÿ
                                   28091              Ÿ                                                                     Ÿ
                                   28092              Ÿ  SCNVLIST - EVALUATE PROCEDURE CALL PARAMETERS (INTO VALUES)        Ÿ
                                   28093              Ÿ                                                                     Ÿ
                                   28094              Ÿ                                                                     Ÿ
                                   28095              Ÿ  ON ENTRY:                                                          Ÿ
                                   28096              Ÿ       R0 - LENGTH OF REMAINING EXPRESSION                           Ÿ
                                   28097              Ÿ       R1 - START OF PARM LIST, (STARTS WITH "(")                    Ÿ
                                   28098              Ÿ       R2 - RETURN AREA FOR VALUE LISTS                              Ÿ
                                   28099              Ÿ                                                                     Ÿ
                                   28100              Ÿ  ON EXIT:                                                           Ÿ
                                   28101              Ÿ       R0 - PARAMETER COUNT (SEE NOTE)                               Ÿ
                                   28102              Ÿ      R15 - CC=ZERO, ALL OK                                          Ÿ
                                   28103              Ÿ            ALL ERRORS EXIT VIA CVERROR                              Ÿ
                                   28104              Ÿ                                                                     Ÿ
                                   28105              Ÿ  REGISTER USAGE:                                                    Ÿ
                                   28106              Ÿ       R1,R0 - STRING LOCATION,LENGTH                                Ÿ
                                   28107              Ÿ       R2 - VALUE RETURN LIST INDEX                                  Ÿ
                                   28108              Ÿ       R3 - VALUE COUNT                                              Ÿ
                                   28109              Ÿ                                                                     Ÿ
                                   28110              Ÿ  NOTE: NAME COUNT IS -1 IF FREE FORM PARAMETER.                     Ÿ
                                   28111              Ÿ        NAME COUNT IS 0 IF NONE.                                     Ÿ
                                   28112              Ÿ        NAME COUNT IS 0 TO N FOR NAMES INCLOSED IN PARENTHESIS.      Ÿ
                                   28113              Ÿ                                                                     Ÿ
                                   28114              Ÿ                                                                     Ÿ
                                                      ¾þþþþþþþþþþþþþþþþþþþþþþþþþþþþþþþþþþþþþþþþþþþþþþþþþþþþþþþþþþþþþþþþþþþþþ»
00049A4 50E0 D000/9008_      00000 28115              SCNVLIST PROC  ,
 USING  *,R7
                                   28154
 0049BE 1842                       28155                       LR    R4,R2
 0049C0 5850 73E6            04DA4 28156                       L     R5,=AL4(L'VLIST)
 0049C4 1BFF                       28157                       CLEAR R15
 0049C6 0E4E                       28161                       MVCL  R4,R14              CLEAR VALUE LIST
 0049C8 1B33                       28162                       CLEAR R3
 0049CA 58E0 73BE/0DEE       04D7C 28166                       VCALL LRTRIM
                                   28170
                                   28171                       COMMENT                   CHECK FOR NO PARMS
 0049D0 1200/4720 701E             28172                       IF    (R0,NP),BEGIN
 0049D6 1B33                       28186  1                      CLEAR R3
 0049D8 47F0 7144            04B02 28190  1                      B     SCNVDONE
 0049DC                            28191                       END
                                   28195
                                   28196                       COMMENT                   IF FREE FORMAT LIST, BOMB
 0049DC 954D 1000/4780_00000       28197                       IF    (@R1,NE,'('),BEGIN
 0049E4 0000                       28213  1                      BOMB
 0049E6                            28215                       END
                                   28219
                                   28220                       COMMENT                   GOT '(',  SKIP IT
 0049E6 4111 0001            00001 28221                       LA    R1,1(R1)
 0049EA 0600                       28222                       BCTR  R0,0
                                   28223
                                   28224                       COMMENT                   CHECK FOR (),   EMPTY PARMS
1XCALL    (XCAL2025) (13:01) (15MAR04) XCALL/PCALL - Parameter Scanning Routines                                            Page  141
0Current Usings:  (SNNPWA,R6) (*,R7) (CP,R11) (CV,R12)
0Loc    Object Code    Addr1 Addr2  Stmt Lv Lineno    Source Statement           (Hibal 5, Asmedit 3.3)  HLASM R4.0  2004/03/15 13.01
+___    ______ ____    _____ _____  ____ __ ______    ______ _________
00049EC 9540 1000/4770_00000       28225                       WHILE ((@R1,EQ,' '),AND,(R0,POS)),BEGIN
 0049FA 4111 0001            00001 28256  1                      LA    R1,1(R1)
 0049FE 0600                       28257  1                      DECR  R0
 004A00 47F0 702E            049EC 28259                       END
 004A04 955D 1000/4770_00000       28264                       IF    ((@R1,EQ,')'),AND,(R0,POS)),BEGIN
 004A12 4111 0001            00001 28293  1                      LA    R1,1(R1)
 004A16 1B33                       28294  1                      CLEAR R3
 004A18 47F0 7144            04B02 28298  1                      B     SCNVDONE
 004A1C                            28299                       END
                                   28303                       ¿þþþþþþþþþþþþþþþþþþþþþþþþþþþþþþþþþÜ
                                   28304                       Ÿ  LOOP EVALUATING PARAMTERES !!  Ÿ
                                   28305                       ¾þþþþþþþþþþþþþþþþþþþþþþþþþþþþþþþþþ»
                                   28306                       COMMENT                   LOOP EVALUATING PARAMTERS
 004A1C 1B33                       28307                       CLEAR R3
 004A1E 955D 1000/4780_00000       28311                       WHILE (@R1,NE,')'),BEGIN  LOOP UNTIL END OF SUBSCRIPTS
 004A26 4133 0001            00001 28329  1                      LA    R3,1(R3)
 004A2A 5930 73C6/47D0_      04D84 28330  1                      IF    (R3,GT,CPPLIMIT),BEGIN   ERROR: TOO MANY PARMS
 004A32 58E0 73CA/0DEE       04D88 28347  2                        ACALL MANYPARM
 004A38 47F0 C7D6            007D6 28351  2                        B     CVERROR
 004A3C                            28352  1                      END
                                   28356  1
                                   28357  1                      COMMENT
 004A3C 58E0 73EA/0DEE       04DA8 28358  1                      ACALL EVALPARM            EVALUATE PARM EXPRESSION
                                   28362  1                      COMMENT                   IF ALL OK, VALUE RETURNED @R2
                                   28363  1
                                   28364  1                      COMMENT
 004A42 12FF/47D0 7094             28365  1                      IF    (R15,POS),BEGIN          ERROR: BAD PARM EXPRESSION
 004A48 58E0 73DE/0DEE       04D9C 28379  2                        ACALL PARMERR
 004A4E 47F0 C7D6            007D6 28383  2                        B     CVERROR
 004A52                            28384  1                      END
 004A52 12FF/47B0 70B6             28388  1                      IF    (R15,NEG),BEGIN          ERROR: NULL PARAMETER
 004A58 4110 7428/4100_      04DE6 28402  2                        TSEG  'Missing Parameter.'
 004A6A 58E0 73DE/0DEE       04D9C 28420  2                        ACALL PARMERR
 004A70 47F0 C7D6            007D6 28424  2                        B     CVERROR
 004A74                            28425  1                      END
 004A74 1200/4720 70D8             28429  1                      IF    (R0,NP),BEGIN            ERROR: PREMATURE END OF PARMS
 004A7A 4110 741A/4100_      04DD8 28443  2                        TSEG  'Expecting ")".'
 004A8C 58E0 73DE/0DEE       04D9C 28461  2                        ACALL PARMERR
 004A92 47F0 C7D6            007D6 28465  2                        B     CVERROR
 004A96                            28466  1                      END
 004A96 955E 1000/4770_00000       28470  1                      IF    (@R1,EQ,';'),BEGIN       ERROR: PREMATURE END OF PARMS
 004A9E 4110 7488/4100_      04E46 28486  2                        TSEG  '; -- invalid.  Expecting ")".'
 004AB0 58E0 73DE/0DEE       04D9C 28504  2                        ACALL PARMERR
 004AB6 47F0 C7D6            007D6 28508  2                        B     CVERROR
 004ABA                            28509  1                      END
 004ABA 956B 1000/4780_00000       28513  1                      IF    (@R1,NE,','),BEGIN       ERROR: MISSING PARM SEPARATOR
 004AC2 955D 1000/4780_00000       28529  2                        IF    (@R1,NE,')'),BEGIN
 004ACA 58E0 73E2/0DEE       04DA0 28545  3                          VCALL CHECKEND
 004AD0 4110 74A5/4100_      04E63 28549  3                          TSEG  'Procedure parameters must be separated by commas.'
 004AE2 58E0 73DE/0DEE       04D9C 28567  3                          ACALL PARMERR
 004AE8 47F0 C7D6            007D6 28571  3                          B     CVERROR
 004AEC                            28572  2                        END
 004AEC                            28576  1                      END
 004AEC 956B 1000/4770_00000       28580  1                      IF    (@R1,EQ,','),BEGIN       GOT PARM SEPARATOR, SKIP
1XCALL    (XCAL2025) (13:01) (15MAR04) XCALL/PCALL - Parameter Scanning Routines                                            Page  142
0Current Usings:  (SNNPWA,R6) (*,R7) (CP,R11) (CV,R12)
0Loc    Object Code    Addr1 Addr2  Stmt Lv Lineno    Source Statement           (Hibal 5, Asmedit 3.3)  HLASM R4.0  2004/03/15 13.01
+___    ______ ____    _____ _____  ____ __ ______    ______ _________
0004AF4 4111 0001            00001 28596  2                        LA    R1,1(R1)
 004AF8 0600                       28597  2                        DECR  R0
 004AFA                            28599  1                      END
                                   28603  1                      COMMENT                   GET SET TO EVALUATE NEXT PARM
 004AFA 4122 0150            00150 28604  1                      LA    R2,L'VPARM(R2)      R2 - NEXT PLACE TO PUT VALUE
                                   28605  1                      COMMENT                   R1,R0 - LOC,LEN OF REMAINING PARMS
                                   28606  1                      COMMENT
 004AFE 47F0 7060            04A1E 28607                       END   ,,                  LOOP EVALUATING PARAMETERS
                                   28612
 004B02                            28613              SCNVDONE LABEL ,
 004B02 1803                       28615                       LR    R0,R3
 004B04 1BFF                       28616                       CLEAR R15
 004B06 5008 0004            00004 28620                       PRETURN (R0)
 004B0A 18D8/9808 D004_            28622                       PEND  ,
 DROP   *,R7
1XCALL    (XCAL2025) (13:01) (15MAR04) XCALL/PCALL - Parameter Scanning Routines                                            Page  143
0Current Usings:  (SNNPWA,R6) (CP,R11) (CV,R12)
0Loc    Object Code    Addr1 Addr2  Stmt Lv Lineno    Source Statement           (Hibal 5, Asmedit 3.3)  HLASM R4.0  2004/03/15 13.01
+___    ______ ____    _____ _____  ____ __ ______    ______ _________
0                                  28643              ¿þþþþþþþþþþþþþþþþþþþþþþþþþþþþþþþþþþþþþþþþþþþþþþþþþþþþþþþþþþþþþþþþþþþþþÜ
                                   28644              Ÿ                                                                     Ÿ
                                   28645              Ÿ                                                                     Ÿ
                                   28646              Ÿ  SCNPLIST - EVALUATE PROCEDURE CALL PARAMETERS (INTO NAMES)         Ÿ
                                   28647              Ÿ                                                                     Ÿ
                                   28648              Ÿ  WE SCAN FOR PARMS THAT ARE VALID VARIABLES AS WELL AS              Ÿ
                                   28649              Ÿ  VALUES. THESE ENTRIES FORM A PARM LIST THAT IS USED IF             Ÿ
                                   28650              Ÿ  WHEN RETURNING FROM A PROC/XPROC CALL.  WE SCAN BY                 Ÿ
                                   28651              Ÿ  SCANNING EACH PARM AS A VALUE AND AS A DESCRIPTOR. IF              Ÿ
                                   28652              Ÿ  THE TWO ARE EQUAL WE HAVE A PARM AS A NAME AND PUT IT              Ÿ
                                   28653              Ÿ  IN THE LIST TO BE USED IF VAIABLES ARE RETURED.  ONE               Ÿ
                                   28654              Ÿ  EXTRA POINT,  GENERIC ARRAYS (IE. X[]) ARE VALID AND               Ÿ
                                   28655              Ÿ  ARE HANDLED BY USING SCNPDESC AND EVALPARM,, INSTEAD OF            Ÿ
                                   28656              Ÿ  SCNVDESC AND EVALEXPR ROUTINES.  THINK ABOUT IT, BUD.              Ÿ
                                   28657              Ÿ                                                                     Ÿ
                                   28658              Ÿ                                                                     Ÿ
                                   28659              Ÿ  ON ENTRY:                                                          Ÿ
                                   28660              Ÿ       R0 - LENGTH OF REMAINING EXPRESSION                           Ÿ
                                   28661              Ÿ       R1 - START OF PARM LIST, (STARTS WITH "(")                    Ÿ
                                   28662              Ÿ       R2 - RETURN AREA FOR PARAMETER NAME LIST                      Ÿ
                                   28663              Ÿ                                                                     Ÿ
                                   28664              Ÿ  ON EXIT:                                                           Ÿ
                                   28665              Ÿ       R0 - PARAMETER COUNT (SEE NOTE)                               Ÿ
                                   28666              Ÿ      R15 - CC=ZERO, ALL OK                                          Ÿ
                                   28667              Ÿ            ALL ERRORS EXIT VIA CVERROR                              Ÿ
                                   28668              Ÿ                                                                     Ÿ
                                   28669              Ÿ  REGISTER USAGE:                                                    Ÿ
                                   28670              Ÿ       R1,R0 - STRING LOCATION,LENGTH                                Ÿ
                                   28671              Ÿ       R3 - VALUE COUNT                                              Ÿ
                                   28672              Ÿ       R6 - VALUE RETURN LIST INDEX                                  Ÿ
                                   28673              Ÿ                                                                     Ÿ
                                   28674              Ÿ  NOTE: NAME COUNT IS -1 IF FREE FORM PARAMETER.                     Ÿ
                                   28675              Ÿ        NAME COUNT IS 0 IF NONE.                                     Ÿ
                                   28676              Ÿ        NAME COUNT IS 0 TO N FOR NAMES INCLOSED IN PARENTHESIS.      Ÿ
                                   28677              Ÿ                                                                     Ÿ
                                   28678              Ÿ                                                                     Ÿ
                                                      ¾þþþþþþþþþþþþþþþþþþþþþþþþþþþþþþþþþþþþþþþþþþþþþþþþþþþþþþþþþþþþþþþþþþþþþ»
0000000                00000 00158 28679              SCNPWA   RECORD BEGIN
 000000                            28687  1           SCNPLOC    DS    F                   SCAN LOCATION, LENGTH
 000004                            28688  1           SCNPLEN    DS    F
 000008                            28689  1           SCNPVAR    DS    XL(L'VPARM)         TEMP EVAL AREA
 000158                00158 00158 28690                       END
                                   28699              *
                                   28700              *
 004B18 50E0 D000/9008_      00000 28701              SCNPLIST PROC  SCNPWA
 USING  *,R7
 USING  SCNPWA-(4+36),R8
                                   28751
 004B32 1862                       28752                       LR    R6,R2
 004B34 1842                       28753                       LR    R4,R2
 004B36 5850 727A            04DAC 28754                       L     R5,=AL4(L'PLIST)
 004B3A 1BFF                       28755                       CLEAR R15
 004B3C 0E4E                       28759                       MVCL  R4,R14              CLEAR VALUE LIST
1XCALL    (XCAL2025) (13:01) (15MAR04) XCALL/PCALL - Parameter Scanning Routines                                            Page  144
0Current Usings:  (SNNPWA,R6) (*,R7) (SCNPWA-(4+36),R8) (CP,R11) (CV,R12)
0Loc    Object Code    Addr1 Addr2  Stmt Lv Lineno    Source Statement           (Hibal 5, Asmedit 3.3)  HLASM R4.0  2004/03/15 13.01
+___    ______ ____    _____ _____  ____ __ ______    ______ _________
0004B3E 1B33                       28760                       CLEAR R3
 004B40 58E0 724A/0DEE       04D7C 28764                       VCALL LRTRIM
                                   28768
                                   28769                       COMMENT                   CHECK FOR NO PARMS
 004B46 1200/4720 7020             28770                       IF    (R0,NP),BEGIN
 004B4C 1B33                       28784  1                      CLEAR R3
 004B4E 47F0 71EE            04D20 28788  1                      B     SCNPDONE
 004B52                            28789                       END
                                   28793
                                   28794                       COMMENT                   IF FREE FORMAT LIST, BOMB
 004B52 954D 1000/4780_00000       28795                       IF    (@R1,NE,'('),BEGIN
 004B5A 0000                       28811  1                      BOMB
 004B5C                            28813                       END
                                   28817
                                   28818                       COMMENT                   GOT '(',  SKIP IT
 004B5C 4111 0001            00001 28819                       LA    R1,1(R1)
 004B60 0600                       28820                       BCTR  R0,0
                                   28821
                                   28822                       COMMENT                   CHECK FOR (),   EMPTY PARMS
 004B62 9540 1000/4770_00000       28823                       WHILE ((@R1,EQ,' '),AND,(R0,POS)),BEGIN
 004B70 4111 0001            00001 28854  1                      LA    R1,1(R1)
 004B74 0600                       28855  1                      DECR  R0
 004B76 47F0 7030            04B62 28857                       END
 004B7A 955D 1000/4770_00000       28862                       IF    ((@R1,EQ,')'),AND,(R0,POS)),BEGIN
 004B88 4111 0001            00001 28891  1                      LA    R1,1(R1)
 004B8C 1B33                       28892  1                      CLEAR R3
 004B8E 47F0 71EE            04D20 28896  1                      B     SCNPDONE
 004B92                            28897                       END
                                   28901                       ¿þþþþþþþþþþþþþþþþþþþþþþþþþþþþþþþþþÜ
                                   28902                       Ÿ  LOOP EVALUATING PARAMTERES !!  Ÿ
                                   28903                       ¾þþþþþþþþþþþþþþþþþþþþþþþþþþþþþþþþþ»
                                   28904                       COMMENT                   LOOP EVALUATING PARAMTERS
 004B92 1B33                       28905                       CLEAR R3
 004B94 955D 1000/4780_00000       28909                       WHILE (@R1,NE,')'),BEGIN  LOOP UNTIL END OF SUBSCRIPTS
 004B9C 4133 0001            00001 28927  1                      LA    R3,1(R3)
 004BA0 5930 7252/47D0_      04D84 28928  1                      IF    (R3,GT,CPPLIMIT),BEGIN   ERROR: TOO MANY PARMS
 004BA8 58E0 7256/0DEE       04D88 28945  2                        ACALL MANYPARM
 004BAE 47F0 C7D6            007D6 28949  2                        B     CVERROR
 004BB2                            28950  1                      END
                                   28954  1
                                   28955  1                      COMMENT                   SCAN AS NAME
 004BB2 5010 8028            00000 28956  1                      ST    R1,SCNPLOC
 004BB6 5000 802C            00004 28957  1                      ST    R0,SCNPLEN
 004BBA 1826                       28958  1                      LR    R2,R6
 004BBC 18ED/41D0 D43C_            28959  1                      TPUSH ,                   TPUSH-TPOP - JUNKS ANY ERR MSG
 004BF0 58E0 725E/0DEE       04D90 28997  1                      ACALL SCNPDESC            SCAN
 004BF6 4BD0 7282/D23B_      04DB4 29001  1                      TPOP  JUNK
                                   29006  1                      COMMENT                   IF ALL OK, DESCRIPTOR RETURNED @R2
 004C00 12FF/4770 70EC             29007  1                      IF    (R15,Z),BEGIN
 004C06 1200/47D0 70EC_            29021  2                        WHILE ((R0,POS),AND,(@R1,EQ,' ')),BEGIN SKIP TRAILING BLANKS
 004C14 4111 0001            00001 29052  3                          LA    R1,1(R1)
 004C18 0600                       29053  3                          DECR  R0
 004C1A 47F0 70D4            04C06 29055  2                        END
 004C1E                            29060  1                      END
1XCALL    (XCAL2025) (13:01) (15MAR04) XCALL/PCALL - Parameter Scanning Routines                                            Page  145
0Current Usings:  (SNNPWA,R6) (*,R7) (SCNPWA-(4+36),R8) (CP,R11) (CV,R12)
0Loc    Object Code    Addr1 Addr2  Stmt Lv Lineno    Source Statement           (Hibal 5, Asmedit 3.3)  HLASM R4.0  2004/03/15 13.01
+___    ______ ____    _____ _____  ____ __ ______    ______ _________
0004C1E 70F0/47F0 70F2 04C1E 04C04 29064  1                      ELSE  BEGIN
 004C22 1B11                       29075  2                        CLEAR R1
 004C24                            29079  1                      END
 004C24 1841                       29083  1                      LR    R4,R1               R4 - END OF SCANNED NAME
                                   29084  1
                                   29085  1                      COMMENT                   SCAN AGAIN AS VALUE
 004C26 5800 802C            00004 29086  1                      L     R0,SCNPLEN
 004C2A 5810 8028            00000 29087  1                      L     R1,SCNPLOC
 004C2E 4120 8030            00008 29088  1                      LA    R2,SCNPVAR
 004C32 58E0 7276/0DEE       04DA8 29089  1                      ACALL EVALPARM            EVALUATE PARM EXPRESSION
 004C38 4770 712E            04C60 29093  1                      IF    Z,BEGIN             IF EVALUATED OK,,,
 004C3C 1200/47D0 7122_            29104  2                        WHILE ((R0,POS),AND,(@R1,EQ,' ')),BEGIN SKIP TRAILING BLANKS
 004C4A 4111 0001            00001 29135  3                          LA    R1,1(R1)
 004C4E 0600                       29136  3                          DECR  R0
 004C50 47F0 710A            04C3C 29138  2                        END
                                   29143  2                        COMMENT                   R1 - END OF SCANNED VALUE
                                   29144  2
                                   29145  2                        COMMENT                   IF PARM IS NOT NAME, (BUT EXPR)
 004C54 1914/4780 712E             29146  2                        IF    (R1,NE,R4),BEGIN    CLEAR PARM (NAME) ENTRY IN LIST
 004C5A D71F 6000 6000 00000 00000 29161  3                          XC    0(L'VNDESC,R6),0(R6)
 004C60                            29162  2                        END
 004C60                            29166  1                      END
                                   29170  1
                                   29171  1                      COMMENT
 004C60 12FF/47D0 713E             29172  1                      IF    (R15,POS),BEGIN          ERROR: BAD PARM EXPRESSION
 004C66 58E0 726A/0DEE       04D9C 29186  2                        ACALL PARMERR
 004C6C 47F0 C7D6            007D6 29190  2                        B     CVERROR
 004C70                            29191  1                      END
 004C70 12FF/47B0 7160             29195  1                      IF    (R15,NEG),BEGIN          ERROR: NULL PARAMETER
 004C76 4110 72B4/4100_      04DE6 29209  2                        TSEG  'Missing Parameter.'
 004C88 58E0 726A/0DEE       04D9C 29227  2                        ACALL PARMERR
 004C8E 47F0 C7D6            007D6 29231  2                        B     CVERROR
 004C92                            29232  1                      END
 004C92 1200/4720 7182             29236  1                      IF    (R0,NP),BEGIN            ERROR: PREMATURE END OF PARMS
 004C98 4110 72A6/4100_      04DD8 29250  2                        TSEG  'Expecting ")".'
 004CAA 58E0 726A/0DEE       04D9C 29268  2                        ACALL PARMERR
 004CB0 47F0 C7D6            007D6 29272  2                        B     CVERROR
 004CB4                            29273  1                      END
 004CB4 955E 1000/4770_00000       29277  1                      IF    (@R1,EQ,';'),BEGIN       ERROR: PREMATURE END OF PARMS
 004CBC 4110 7314/4100_      04E46 29293  2                        TSEG  '; -- invalid.  Expecting ")".'
 004CCE 58E0 726A/0DEE       04D9C 29311  2                        ACALL PARMERR
 004CD4 47F0 C7D6            007D6 29315  2                        B     CVERROR
 004CD8                            29316  1                      END
 004CD8 956B 1000/4780_00000       29320  1                      IF    (@R1,NE,','),BEGIN       ERROR: MISSING PARM SEPARATOR
 004CE0 955D 1000/4780_00000       29336  2                        IF    (@R1,NE,')'),BEGIN
 004CE8 58E0 726E/0DEE       04DA0 29352  3                          VCALL CHECKEND
 004CEE 4110 7331/4100_      04E63 29356  3                          TSEG  'Procedure parameters must be separated by commas.'
 004D00 58E0 726A/0DEE       04D9C 29374  3                          ACALL PARMERR
 004D06 47F0 C7D6            007D6 29378  3                          B     CVERROR
 004D0A                            29379  2                        END
 004D0A                            29383  1                      END
 004D0A 956B 1000/4770_00000       29387  1                      IF    (@R1,EQ,','),BEGIN       GOT PARM SEPARATOR, SKIP
 004D12 4111 0001            00001 29403  2                        LA    R1,1(R1)
 004D16 0600                       29404  2                        DECR  R0
1XCALL    (XCAL2025) (13:01) (15MAR04) XCALL/PCALL - Parameter Scanning Routines                                            Page  146
0Current Usings:  (SNNPWA,R6) (*,R7) (SCNPWA-(4+36),R8) (CP,R11) (CV,R12)
0Loc    Object Code    Addr1 Addr2  Stmt Lv Lineno    Source Statement           (Hibal 5, Asmedit 3.3)  HLASM R4.0  2004/03/15 13.01
+___    ______ ____    _____ _____  ____ __ ______    ______ _________
0004D18                            29406  1                      END
                                   29410  1                      COMMENT                   GET SET TO EVALUATE NEXT PARM
 004D18 4166 0020            00020 29411  1                      LA    R6,L'VNDESC(R6)     R2 - NEXT PLACE TO PUT VALUE
                                   29412  1                      COMMENT                   R1,R0 - LOC,LEN OF REMAINING PARMS
                                   29413  1                      COMMENT
 004D1C 47F0 7062            04B94 29414                       END   ,,                  LOOP EVALUATING PARAMETERS
                                   29419
 004D20                            29420              SCNPDONE LABEL ,
 004D20 1803                       29422                       LR    R0,R3
 004D22 1BFF                       29423                       CLEAR R15
 004D24 5008 0004            00004 29427                       PRETURN (R0)
 004D28 18D8/9808 D004_            29429                       PEND  ,
 DROP   SCNPWA-(4+36),R8
 DROP   *,R7
1XCALL    (XCAL2025) (13:01) (15MAR04) XCALL/PCALL - Parameter Scanning Routines                                            Page  147
0Current Usings:  (SNNPWA,R6) (CP,R11) (CV,R12)
0Loc    Object Code    Addr1 Addr2  Stmt Lv Lineno    Source Statement           (Hibal 5, Asmedit 3.3)  HLASM R4.0  2004/03/15 13.01
+___    ______ ____    _____ _____  ____ __ ______    ______ _________
0                                  29455                       QLTORG
1XCALL    (XCAL2025) (13:01) (15MAR04) XCALL/PCALL - Parameter Scanning Routines                                            Page  148
0Current Usings:  (SNNPWA,R6) (CP,R11) (CV,R12)
0Loc    Object Code    Addr1 Addr2  Stmt Lv Lineno    Source Statement           (Hibal 5, Asmedit 3.3)  HLASM R4.0  2004/03/15 13.01
+___    ______ ____    _____ _____  ____ __ ______    ______ _________
0                                  29496              ¿þþþþþþþþþþþþþþþþþþþþþþþþþþþþþþþþþþþþþþþþþþþþþþþþþþþþþþþþþþþþþþþþþþþþþÜ
                                   29497              Ÿ                                                                     Ÿ
                                   29498              Ÿ                                                                     Ÿ
                                   29499              Ÿ  SCNPDESC - SCAN PARMATER NAME (DESCRIPTOR)                         Ÿ
                                   29500              Ÿ                                                                     Ÿ
                                   29501              Ÿ  THIS ROUTINE SCANS VARIABLE NAMES, AND IN THE CASE OF              Ÿ
                                   29502              Ÿ  AN ARRAY, IT'S SUBSCRIPTS.  SEE VNDESC IN VNENTRY DSECT.           Ÿ
                                   29503              Ÿ  ONLY NAME SYNTAX IS CHECKED, WHILE SUBSCRIPTS ARE EVALUATED.       Ÿ
                                   29504              Ÿ  THIS ROUTINE DIFFERS FROM SCNVDESC IN THAT IT ALLOWS               Ÿ
                                   29505              Ÿ  GENERIC ARRAY ENTRIES (EG. X[], TEST2[])                           Ÿ
                                   29506              Ÿ                                                                     Ÿ
                                   29507              Ÿ  ON ENTRY:                                                          Ÿ
                                   29508              Ÿ       R0 - LENGTH OF STRING                                         Ÿ
                                   29509              Ÿ       R1 - LOCATION OF STRING                                       Ÿ
                                   29510              Ÿ      @R2 - AREA TO RETURN NAME DESCRIPTOR (OF LEN L'VNDESC)         Ÿ
                                   29511              Ÿ                                                                     Ÿ
                                   29512              Ÿ  ON EXIT:                                                           Ÿ
                                   29513              Ÿ       R0 - REMAINING STRING LENGTH                                  Ÿ
                                   29514              Ÿ       R1 - REMAINING STRING LOCATION                                Ÿ
                                   29515              Ÿ      @R2 - VARIABLE DESCRIPTOR INFORMATION                          Ÿ
                                   29516              Ÿ      R15 - CC=ZERO, VALID DESCRIPTOR                                Ÿ
                                   29517              Ÿ            CC=NZ, INVALID DESCRIPTOR                                Ÿ
                                   29518              Ÿ                                                                     Ÿ
                                   29519              Ÿ  NOTE: IF ERROR, NO ERROR MESSAGE IS T'SEGD.                        Ÿ
                                   29520              Ÿ        IF GENERIC ARRAY, VNASUB1 IS SET TO -1                       Ÿ
                                   29521              Ÿ                                                                     Ÿ
                                                      ¾þþþþþþþþþþþþþþþþþþþþþþþþþþþþþþþþþþþþþþþþþþþþþþþþþþþþþþþþþþþþþþþþþþþþþ»
0004E94 50E0 D000/9008_      00000 29522              SCNPDESC XPROC ,
 USING  *,R7
                                   29562
                                   29563                       COMMENT                   SCAN VARIABLE NAME
 004EAE 58E0 7212/0DEE       050C0 29564                       VCALL SCNVNAME
 004EB4 4780 7056            04F04 29568                       IF    NZ,BEGIN
 004EB8 59F0 7216/4770_      050C4 29579  1                      IF    (R15,EQ,-4),BEGIN
 004EC0 4110 724E/4100_      050FC 29595  2                        TSEG  'Missing vairable name.'
 004ED2 41F0 0004            00004 29613  2                        LA    R15,4
 004ED6                            29614  1                      END
 004ED6 702C/47F0 7050_04ED6 04EBE 29618  1                      ELSEIF (R15,EQ,4),BEGIN
 004EE2 58E0 7222/0DEE       050D0 29644  2                        VCALL SEGVNAME
 004EE8 4110 71FA/4100_      050A8 29648  2                        TSEG  ': invalid variable name.'
 004EFA 41F0 0004            00004 29666  2                        LA    R15,4
 004EFE                            29667  1                      END
 004EFE 7054/47F0 7056 04EFE 04EE0 29671  1                      ELSE  BEGIN
 004F02 0000                       29682  2                        BOMB
 004F04                            29684  1                      END
 004F04                            29688                       END
                                   29692
                                   29693                       COMMENT                   VALID VARIABLE NAME, CHECK FOR
                                   29694                       COMMENT                   SUBSCRIPTS
 004F04 705A/47F0 70C8 04F04 04EB6 29695                       ELSE  BEGIN
 004F08 9540 1000/4770_00000       29706  1                      WHILE ((@R1,EQ,' '),AND,(R0,POS)),BEGIN   SKIP BLANKS
 004F16 5E10 7226            050D4 29737  2                        INCR  R1
 004F1A 0600                       29740  2                        DECR  R0
1XCALL    (XCAL2025) (13:01) (15MAR04) XCALL/PCALL - Parameter Scanning Routines                                            Page  149
0Current Usings:  (SNNPWA,R6) (*,R7) (CP,R11) (CV,R12)
0Loc    Object Code    Addr1 Addr2  Stmt Lv Lineno    Source Statement           (Hibal 5, Asmedit 3.3)  HLASM R4.0  2004/03/15 13.01
+___    ______ ____    _____ _____  ____ __ ______    ______ _________
0004F1C 47F0 705A            04F08 29742  1                      END
                                   29747  1
                                   29748  1                      COMMENT                   IF ARRAY,  CHECK IT OUT
 004F20 95AD 1000/4770_00000       29749  1                      IF    ((@R1,EQ,'['),AND,(R0,POS)),BEGIN   FOUND '['
                                   29778  2
                                   29779  2                        COMMENT                   CHECK IF FOUND '[]'
 004F2E 1841                       29780  2                        LR    R4,R1
 004F30 1850                       29781  2                        LR    R5,R0
 004F32 5E40 7226            050D4 29782  2                        INCR  R4                  SKIP '['
 004F36 0650                       29785  2                        DECR  R5
 004F38 9540 4000/4770_00000       29787  2                        WHILE ((@R4,EQ,' '),AND,(R0,POS)),BEGIN   SKIP BLANKS
 004F46 4144 0001            00001 29818  3                          LA    R4,1(R4)
 004F4A 0650                       29819  3                          DECR  R5
 004F4C 47F0 708A            04F38 29821  2                        END
 004F50 95BD 4000/4770_00000       29826  2                        IF    ((@R4,EQ,']'),AND,(R3,POS)),BEGIN    FOUND '[]'
 USING  VNENTRY,R2                 29855  3                          USING VNENTRY,R2
 004F5E 9680 2011      00011       29864  3                          SET   VNADESC             GOT GENERIC ARRAY DESCRIPTOR
 DROP   VNENTRY,R2                 29870  3                          DROP  R2
 004F62 4144 0001            00001 29877  3                          LA    R4,1(R4)            SKIP ']'
 004F66 0650                       29878  3                          DECR  R5
 004F68 1814                       29880  3                          LR    R1,R4               AND UPDATE R0,R1
 004F6A 1805                       29881  3                          LR    R0,R5
 004F6C                            29882  2                        END
                                   29886  2
 004F6C 70C2/70C2/47F0_04F6C 04F56 29887  2                        ELSE  BEGIN               ELSE, GOT ARRAY ELEMENT
 004F70 58E0 722A/0DEE       050D8 29900  3                          VCALL GETSUBS             GET SUBSCRIPTS
 004F76                            29904  2                        END   , GET SUBS
 004F76                            29908  1                      END   , IF SUBS
 004F76                            29912                       END   , IF VALID NAME
                                   29916
 004F76 9001 8004            00004 29917                       PRETURN (R0,R1)
 004F7A 18D8/9808 D004_            29919                       PEND  ,
 DROP   *,R7
1XCALL    (XCAL2025) (13:01) (15MAR04) XCALL/PCALL - Parameter Scanning Routines                                            Page  150
0Current Usings:  (SNNPWA,R6) (CP,R11) (CV,R12)
0Loc    Object Code    Addr1 Addr2  Stmt Lv Lineno    Source Statement           (Hibal 5, Asmedit 3.3)  HLASM R4.0  2004/03/15 13.01
+___    ______ ____    _____ _____  ____ __ ______    ______ _________
0                                  29940              ¿þþþþþþþþþþþþþþþþþþþþþþþþþþþþþþþþþþþþþþþþþþþþþþþþþþþþþþþþþþþþþþþþþþþþþÜ
                                   29941              Ÿ                                                                     Ÿ
                                   29942              Ÿ                                                                     Ÿ
                                   29943              Ÿ  EVALPARM - EVALUATE PARMATER                                       Ÿ
                                   29944              Ÿ                                                                     Ÿ
                                   29945              Ÿ  THIS ROUTINE DOES THE SAME THING AS EVALEXPR, EXCEPT THAT          Ÿ
                                   29946              Ÿ  IT ALLOWS GENERIC ARRAY DESCRIPTORS TO BE SPECIFIED. IF            Ÿ
                                   29947              Ÿ  ONE IS SPECFIED THE ARRAY ENTRY IS THE VALUE RETURNED.             Ÿ
                                   29948              Ÿ                                                                     Ÿ
                                   29949              Ÿ  ON ENTRY:                                                          Ÿ
                                   29950              Ÿ       R0 - STRING LENGTH                                            Ÿ
                                   29951              Ÿ       R1 - STRING LOCATION                                          Ÿ
                                   29952              Ÿ      @R2 - VALUE RETURN AREA.  SEE VNENTRY DSECT.                   Ÿ
                                   29953              Ÿ                                                                     Ÿ
                                   29954              Ÿ  ON EXIT:                                                           Ÿ
                                   29955              Ÿ       R0 - REMAINING STRING LENGTH                                  Ÿ
                                   29956              Ÿ       R1 - REMAINING STRING LOCATION                                Ÿ
                                   29957              Ÿ      @R2 - VALUE OF PARM RETURNED                                   Ÿ
                                   29958              Ÿ      R15 - CC=ZERO, ALL OK                                          Ÿ
                                   29959              Ÿ            CC=NZ, IF ERROR, ERROR MSG T'SEGD.                       Ÿ
                                   29960              Ÿ                                                                     Ÿ
                                   29961              Ÿ                                                                     Ÿ
                                   29962              Ÿ                                                                     Ÿ
                                                      ¾þþþþþþþþþþþþþþþþþþþþþþþþþþþþþþþþþþþþþþþþþþþþþþþþþþþþþþþþþþþþþþþþþþþþþ»
0004F88 50E0 D000/9008_      00000 29963              EVALPARM PROC  ,
 USING  *,R7
 DROP   SNNPWA,R6                  30002                       USING VNENTRY,R6
 USING  VNENTRY,R6
 004FA2 1862                       30014                       LR    R6,R2
                                   30015
                                   30016                       COMMENT                   CHECK FOR GENERIC ARRAY
 004FA4 1841                       30017                       LR    R4,R1
 004FA6 1850                       30018                       LR    R5,R0
 004FA8 18ED/41D0 D43C_            30019                       TPUSH ,                   TPUSH-TPOP - JUNK ANY ERR MSG
 004FDC 58E0 713E/0DEE       050E0 30057                       ACALL SCNPDESC
 004FE2 4BD0 7172/D23B_      05114 30061                       TPOP  JUNK
 004FEC 59F0 7142/4770_      050E4 30066                       IF    ((R15,EQ,0),AND,VNADESC),BEGIN   GOT DESCRIPTOR
 004FFC 9001 D000/41D0_      00000 30097  1                      XPUSH R0,R1
 005004 1B00                       30100  1                      CLEAR R0
 005006 1816                       30104  1                      LR    R1,R6
 005008 1826                       30105  1                      LR    R2,R6
 00500A 58E0 7146/0DEE       050E8 30106  1                      VCALL GETVAR              GET ARRAY DESCRIPTOR
 005010 4BD0 7174/9801_      05116 30110  1                      XPOP  R0,R1
 005018 12FF/4780 709C             30113  1                      IF    (R15,NZ),BEGIN      ERROR: NOT DECLARED
 00501E 58E0 712E/0DEE       050D0 30127  2                        VCALL SEGVNAME
 005024 4110 714A/4100_      050EC 30131  2                        TSEG  ': undefined.'
 005036 41F0 0004            00004 30149  2                        LA    R15,4
 00503A 47F0 70F2            05094 30150  2                        B     EVLPDONE
 00503E                            30151  1                      END
 00503E 12FF/4770 70CA             30155  1                      IF    (R15,Z),BEGIN       ERROR: NOT AN ARRAY
 005044 9504 6020/4780_00020       30169  2                        IF    ~VNARRAY,BEGIN
 00504C 58E0 712E/0DEE       050D0 30184  3                          VCALL SEGVNAME
 005052 4110 7176/4100_      05118 30188  3                          TSEG  ': not DECLARED as array.  Subscripts invalid.'
1XCALL    (XCAL2025) (13:01) (15MAR04) XCALL/PCALL - Parameter Scanning Routines                                            Page  151
0Current Usings:  (VNENTRY,R6) (*,R7) (CP,R11) (CV,R12)
0Loc    Object Code    Addr1 Addr2  Stmt Lv Lineno    Source Statement           (Hibal 5, Asmedit 3.3)  HLASM R4.0  2004/03/15 13.01
+___    ______ ____    _____ _____  ____ __ ______    ______ _________
0005064 41F0 0004            00004 30206  3                          LA    R15,4
 005068 47F0 70F2            05094 30207  3                          B     EVLPDONE
 00506C                            30208  2                        END
 00506C                            30212  1                      END
 00506C 9540 1000/4770_00000       30216  1                      WHILE ((@R1,EQ,' '),AND,(R0,POS)),BEGIN
 00507A 5E10 7132            050D4 30247  2                        INCR  R1
 00507E 0600                       30250  2                        DECR  R0
 005080 47F0 70CA            0506C 30252  1                      END
 005084 1BFF                       30257  1                      CLEAR R15                 GOT VALID ARRAY DESCRIPTOR, EXIT
 005086 47F0 70F2            05094 30261  1                      B     EVLPDONE
 00508A                            30262                       END
                                   30266
                                   30267                       COMMENT                   IF NOT GENRIC ARRAY, TREAT
                                   30268                       COMMENT                   AS NORMAL EXPRESSION
 00508A 1814                       30269                       LR    R1,R4
 00508C 1805                       30270                       LR    R0,R5
 00508E 58E0 7156/0DEE       050F8 30271                       VCALL EVALEXPR
                                   30275
 005094                            30276              EVLPDONE LABEL ,
 005094 9001 8004            00004 30278                       PRETURN (R0,R1)
 005098 18D8/9808 D004_            30280                       PEND  ,
 DROP   *,R7
 DROP   VNENTRY,R6                 30300                       DROP  R6
1XCALL    (XCAL2025) (13:01) (15MAR04) XCALL/PCALL - Parameter Scanning Routines                                            Page  152
0Current Usings:  (CP,R11) (CV,R12)
0Loc    Object Code    Addr1 Addr2  Stmt Lv Lineno    Source Statement           (Hibal 5, Asmedit 3.3)  HLASM R4.0  2004/03/15 13.01
+___    ______ ____    _____ _____  ____ __ ______    ______ _________
0                                  30308                       QLTORG
1XCALL    (XCAL2025) (13:01) (15MAR04) XCALL/PCALL - Parameter Passing Routines                                             Page  153
0Current Usings:  (CP,R11) (CV,R12)
0Loc    Object Code    Addr1 Addr2  Stmt Lv Lineno    Source Statement           (Hibal 5, Asmedit 3.3)  HLASM R4.0  2004/03/15 13.01
+___    ______ ____    _____ _____  ____ __ ______    ______ _________
0                                  30340              ¿þþþþþþþþþþþþþþþþþþþþþþþþþþþþþþþþþþþþþþþþþþþþþþþþþþþþþþþþþþþþþþþþþþþþþÜ
                                   30341              Ÿ                                                                     Ÿ
                                   30342              Ÿ                                                                     Ÿ
                                   30343              Ÿ  PASSPARM - PASS PARM_COUNT, PARM_STRING PARAMETERS                 Ÿ
                                   30344              Ÿ                                                                     Ÿ
                                   30345              Ÿ  THESE TWO PARMS ARE ALWAYS PASSED, ADDITIONALLY PARM               Ÿ
                                   30346              Ÿ  LIST PARAMETERS MAY BE PASSED AS WELL. SEE PASSPRMS ROUTINE.       Ÿ
                                   30347              Ÿ                                                                     Ÿ
                                   30348              Ÿ  ON ENTRY:                                                          Ÿ
                                   30349              Ÿ       R0 - PARM STRING LENGTH                                       Ÿ
                                   30350              Ÿ       R1 - PARM STRING LOCATION                                     Ÿ
                                   30351              Ÿ       R2 - PARM COUNT.  SEE NOTE.                                   Ÿ
                                   30352              Ÿ                                                                     Ÿ
                                   30353              Ÿ  ON EXIT:                                                           Ÿ
                                   30354              Ÿ       PARMS PASSED.                                                 Ÿ
                                   30355              Ÿ       R15 - CC=ZERO,                                                Ÿ
                                   30356              Ÿ             ALL ERRORS EXIT VIA CVERROR                             Ÿ
                                   30357              Ÿ                                                                     Ÿ
                                   30358              Ÿ  NOTE: NAME COUNT IS -1 IF FREE FORM PARAMETER.                     Ÿ
                                   30359              Ÿ        NAME COUNT IS 0 IF NONE.                                     Ÿ
                                   30360              Ÿ        NAME COUNT IS 0 TO N FOR NAMES INCLOSED IN PARENTHESIS.      Ÿ
                                   30361              Ÿ                                                                     Ÿ
                                   30362              Ÿ                                                                     Ÿ
                                                      ¾þþþþþþþþþþþþþþþþþþþþþþþþþþþþþþþþþþþþþþþþþþþþþþþþþþþþþþþþþþþþþþþþþþþþþ»
0000000                00000 00164 30363              PPRMWA   RECORD BEGIN
 000000                            30371  1           PPRMLOC    DS    F                   PARM LOC
 000004                            30372  1           PPRMLEN    DS    F                   PARM LEN
 000008                            30373  1           PPRMCNT    DS    F                   PARM COUNT
 00000C                            30374  1           PPRMNSET   DS    F                   NEW VARIABLE SET #
 000010                            30375  1           PPRMCSET   DS    F                   CURRENT VARIABLE SET #
 000014                            30376  1           PPRMVAR    DS    XL(L'VPARM)         VARIABLE AREA
 000164                00164 00164 30377                       END
                                   30386              *
                                   30387              *
 005146 50E0 D000/9008_      00000 30388              PASSPARM PROC  PPRMWA
 USING  *,R7
 USING  PPRMWA-(4+36),R8
 005160 5000 802C            00004 30438                       ST    R0,PPRMLEN
 005164 5010 8028            00000 30439                       ST    R1,PPRMLOC
 005168 5020 8030            00008 30440                       ST    R2,PPRMCNT
                                   30441
                                   30442                       COMMENT                   GET VARIABLE SET NUMBERS
 00516C 58E0 7420/0DEE       05580 30443                       VCALL GTNEWSET
 005172 5000 8034            0000C 30447                       ST    R0,PPRMNSET         NEW VSET NUMBER
 005176 5800 B844            00844 30448                       L     R0,CPVSET#
 00517A 5000 8038            00010 30449                       ST    R0,PPRMCSET         CURRENT VSET NUMBER
                                   30450
                                   30451                       COMMENT                   PASS PARM_COUNT
 00517E 4120 803C            00014 30452                       LA    R2,PPRMVAR
 005182 58E0 7424/0DEE       05584 30453                       VCALL VCLEAR
 005188 5810 8030            00008 30457                       L     R1,PPRMCNT
 00518C 58E0 7428/0DEE       05588 30458                       VCALL VINTEGER
 005192 4110 7470/4100_      055D0 30462                       SYSQS R1,R0,'PARM_COUNT'
1XCALL    (XCAL2025) (13:01) (15MAR04) XCALL/PCALL - Parameter Passing Routines                                             Page  154
0Current Usings:  (*,R7) (PPRMWA-(4+36),R8) (CP,R11) (CV,R12)
0Loc    Object Code    Addr1 Addr2  Stmt Lv Lineno    Source Statement           (Hibal 5, Asmedit 3.3)  HLASM R4.0  2004/03/15 13.01
+___    ______ ____    _____ _____  ____ __ ______    ______ _________
000519A 58E0 742C/0DEE       0558C 30466                       VCALL VNAME
 0051A0 4100 0001            00001 30470                       LA    R0,1                ALLOW UNDECLARED SAVE
 0051A4 4110 803C            00014 30471                       LA    R1,PPRMVAR
 0051A8 4120 803C            00014 30472                       LA    R2,PPRMVAR
 0051AC D203 B844 8034 00844 0000C 30473                       MVC   CPVSET#,PPRMNSET
 0051B2 58E0 7430/0DEE       05590 30474                       VCALL SAVEVAR             SAVE PARM_COUNT
 0051B8 D203 B844 8038 00844 00010 30478                       MVC   CPVSET#,PPRMCSET
 0051BE 4780 706E            051CE 30479                       IF    NZ,BEGIN
 0051C2 4110 7434/4100_      05594 30490  1                      ERROR 'Unable to pass PARM_COUNT parameter.'
 0051CE                            30497                       END
                                   30501
                                   30502                       COMMENT                   PASS PARM_STRING
 0051CE 4120 803C            00014 30503                       LA    R2,PPRMVAR
 0051D2 58E0 7424/0DEE       05584 30504                       VCALL VCLEAR
 0051D8 5800 802C            00004 30508                       L     R0,PPRMLEN
 0051DC 5810 8028            00000 30509                       L     R1,PPRMLOC
 0051E0 58E0 7458/0DEE       055B8 30510                       VCALL VSTRING
 0051E6 4110 747A/4100_      055DA 30514                       SYSQS R1,R0,'PARM_STRING'
 0051EE 58E0 742C/0DEE       0558C 30518                       VCALL VNAME
 0051F4 4100 0001            00001 30522                       LA    R0,1                ALLOW UNDECLARED SAVE
 0051F8 4110 803C            00014 30523                       LA    R1,PPRMVAR
 0051FC 4120 803C            00014 30524                       LA    R2,PPRMVAR
 005200 D203 B844 8034 00844 0000C 30525                       MVC   CPVSET#,PPRMNSET
 005206 58E0 7430/0DEE       05590 30526                       VCALL SAVEVAR             SAVE PARM_COUNT
 00520C D203 B844 8038 00844 00010 30530                       MVC   CPVSET#,PPRMCSET
 005212 4780 70C2            05222 30531                       IF    NZ,BEGIN
 005216 4110 7485/4100_      055E5 30542  1                      ERROR 'Unable to pass PARM_STRING parameter.'
 005222                            30549                       END
                                   30553
 005222 1BFF                       30554                       CLEAR R15
 005224 18D8/9808 D004_            30558                       PEND  ,
 DROP   PPRMWA-(4+36),R8
 DROP   *,R7
1XCALL    (XCAL2025) (13:01) (15MAR04) XCALL/PCALL - Parameter Passing Routines                                             Page  155
0Current Usings:  (CP,R11) (CV,R12)
0Loc    Object Code    Addr1 Addr2  Stmt Lv Lineno    Source Statement           (Hibal 5, Asmedit 3.3)  HLASM R4.0  2004/03/15 13.01
+___    ______ ____    _____ _____  ____ __ ______    ______ _________
0                                  30584              ¿þþþþþþþþþþþþþþþþþþþþþþþþþþþþþþþþþþþþþþþþþþþþþþþþþþþþþþþþþþþþþþþþþþþþþÜ
                                   30585              Ÿ                                                                     Ÿ
                                   30586              Ÿ                                                                     Ÿ
                                   30587              Ÿ  PASSPRMS - PASS PARAMETERS                                         Ÿ
                                   30588              Ÿ                                                                     Ÿ
                                   30589              Ÿ  ON ENTRY:                                                          Ÿ
                                   30590              Ÿ       R0 - PARM COUNT                                               Ÿ
                                   30591              Ÿ       R1 - VALUE LIST                                               Ÿ
                                   30592              Ÿ       R2 - NAME LIST                                                Ÿ
                                   30593              Ÿ       R3 - NEW VARIABLE SET NUMBER                                  Ÿ
                                   30594              Ÿ                                                                     Ÿ
                                   30595              Ÿ  ON EXIT:                                                           Ÿ
                                   30596              Ÿ       PARMS PASSED                                                  Ÿ
                                   30597              Ÿ       R15 - CC=ZERO,                                                Ÿ
                                   30598              Ÿ             ALL ERRORS EXIT VIA CVERROR                             Ÿ
                                   30599              Ÿ                                                                     Ÿ
                                   30600              Ÿ  NOTE: VARIABLE SET NUMBER TO WHICH WE PASS THE PARMS IS NOT        Ÿ
                                   30601              Ÿ        CLEARED BY THIS ROUTINE,  THIS MUST BE DONE EXTERNALLY       Ÿ
                                   30602              Ÿ        IF NEEDED.                                                   Ÿ
                                   30603              Ÿ                                                                     Ÿ
                                   30604              Ÿ                                                                     Ÿ
                                                      ¾þþþþþþþþþþþþþþþþþþþþþþþþþþþþþþþþþþþþþþþþþþþþþþþþþþþþþþþþþþþþþþþþþþþþþ»
0000000                00000 0001C 30605              PPWA     RECORD BEGIN
 000000                            30613  1           PPCNT      DS    F                   PARM COUNT
 000004                            30614  1           PPNLIST    DS    F                   VALUE LIST ADDRESS
 000008                            30615  1           PPVLIST    DS    F                   NAME LIST ADDRESS
 00000C                            30616  1           PPNEWSET   DS    F                   NEW VARIABLE SET #
 000010                            30617  1           PPCURSET   DS    F                   CURRENT VARIABLE SET #
 000014                            30618  1           PPNCNT     DS    F                   VALUE COUNT
 000018                            30619  1           PPVCNT     DS    F                   NAME COUNT
 00001C                0001C 0001C 30620                       END
                                   30629              *
                                   30630              *
 005232 50E0 D000/9008_      00000 30631              PASSPRMS PROC  PPWA
 USING  *,R7
 USING  PPWA-(4+36),R8
 00524C 5000 8028            00000 30681                       ST    R0,PPCNT
 005250 5010 8030            00008 30682                       ST    R1,PPVLIST
 005254 5020 802C            00004 30683                       ST    R2,PPNLIST
 005258 5030 8034            0000C 30684                       ST    R3,PPNEWSET
                                   30685
                                   30686                       COMMENT                   IF PARMS TO PASS, PASS THEM
 00525C 1200/47D0 7116             30687                       IF    (R0,POS),BEGIN
 005262 5830 B844            00844 30701  1                      L     R3,CPVSET#
 005266 5030 8038            00010 30702  1                      ST    R3,PPCURSET         CURRENT VARIABLE SET NUMBER
                                   30703  1
                                   30704  1                      COMMENT                   CALCULATE ACTUAL VALUE COUNT
 USING  VNENTRY,R1                 30705  1                      USING VNENTRY,R1
 00526A 5810 8030            00008 30714  1                      L     R1,PPVLIST          R1 - LIST INDEX
 00526E 5820 8030            00008 30715  1                      L     R2,PPVLIST          R2 - LIST END
 005272 5A20 7370            055BC 30716  1                      A     R2,=AL4(L'VLIST)    R3 - LIST COUNTER
 005276 1B33                       30717  1                      CLEAR R3
 005278 1912/47B0 7048_            30721  1                      WHILE ((R1,LT,R2),AND,(VNENTRY,NE,0)),BEGIN
1XCALL    (XCAL2025) (13:01) (15MAR04) XCALL/PCALL - Parameter Passing Routines                                             Page  156
0Current Usings:  (VNENTRY,R1) (*,R7) (PPWA-(4+36),R8) (CP,R11) (CV,R12)
0Loc    Object Code    Addr1 Addr2  Stmt Lv Lineno    Source Statement           (Hibal 5, Asmedit 3.3)  HLASM R4.0  2004/03/15 13.01
+___    ______ ____    _____ _____  ____ __ ______    ______ _________
0005288 4111 0150            00150 30755  2                        LA    R1,L'VPARM(R1)
 00528C 4133 0001            00001 30756  2                        LA    R3,1(R3)
 005290 47F0 702C            05278 30757  1                      END
 005294 5030 8040            00018 30762  1                      ST    R3,PPVCNT
 DROP   VNENTRY,R1                 30763  1                      DROP  R1
                                   30770  1
                                   30771  1                      COMMENT                   CALCULATE ACTUAL NAME COUNT
 USING  VNENTRY,R1                 30772  1                      USING VNENTRY,R1
 005298 5810 802C            00004 30781  1                      L     R1,PPNLIST          R1 - LIST INDEX
 00529C 5820 802C            00004 30782  1                      L     R2,PPNLIST          R2 - LIST END
 0052A0 5A20 7374            055C0 30783  1                      A     R2,=AL4(L'NLIST)    R3 - LIST COUNTER
 0052A4 1B33                       30784  1                      CLEAR R3
 0052A6 1912/47B0 7076_            30788  1                      WHILE ((R1,LT,R2),AND,(VNDESC,NE,0)),BEGIN
 0052B6 4111 0020            00020 30822  2                        LA    R1,L'VNDESC(R1)
 0052BA 4133 0001            00001 30823  2                        LA    R3,1(R3)
 0052BE 47F0 705A            052A6 30824  1                      END
 0052C2 5030 803C            00014 30829  1                      ST    R3,PPNCNT
 DROP   VNENTRY,R1                 30830  1                      DROP  R1
                                   30837  1
                                   30838  1                      COMMENT                   CHECK VALUE/NAME COUNTS
 0052C6 D503 8028 8040_00000 00018 30839  1                      IF    (PPCNT,NE,PPVCNT),BEGIN
 0052D0 0000                       30857  2                        BOMB
 0052D2                            30859  1                      END
 0052D2 D503 8040 803C_00018 00014 30863  1                      IF    (PPVCNT,GT,PPNCNT),BEGIN
 0052DC 4110 73BE/4100_      0560A 30881  2                        ERROR 'Too many parameters specified on PCALL/XCALL.'
 0052E8                            30888  1                      END
                                   30892  1                      ¿þþþþþþþþþþþþþþþþþþþþþþÜ
                                   30893  1                      Ÿ  LOOP PASSING PARMS  Ÿ
                                   30894  1                      ¾þþþþþþþþþþþþþþþþþþþþþþ»
                                   30895  1                      COMMENT                   PASS PARMS,,, (IE. SAVE VALUES)
                                   30896  1                      COMMENT
 0052E8 4100 0001            00001 30897  1                      LA    R0,1                SET UP SAVE ROUTINE PARMS
 0052EC 5810 8030            00008 30898  1                      L     R1,PPVLIST            (R0=1 ALLOWS UNDECLARED SAVE)
 0052F0 5820 802C            00004 30899  1                      L     R2,PPNLIST
 0052F4 4130 0001            00001 30900  1                      LA    R3,1                SET UP LOOP COUNTERS
 0052F8 5840 8028            00000 30901  1                      L     R4,PPCNT
 0052FC 1934/4730 7116             30902  1                      WHILE (R3,LE,R4),BEGIN    LOOP SAVING VALUES
                                   30919  2
                                   30920  2                        COMMENT                   CHECK ARRAY/VAR COMPATIBLITY
                                   30921  2                        COMMENT                   ARRAYS MUST BE PASSED ARRAYS
                                   30922  2                        COMMENT
 005302 1B55                       30923  2                        CLEAR R5                  ASSUME NOT ARRAY PARMS
 USING  VNENTRY,R1                 30927  2                        USING VNENTRY,R1
 005304 9504 1020/4770_00020       30936  2                        IF    VNARRAY,' LA R5,1(R5) '
 DROP   VNENTRY,R1                 30957  2                        DROP  R1
 USING  VNENTRY,R2                 30964  2                        USING VNENTRY,R2
 005310 9180 2011/47E0_00011       30973  2                        IF    VNADESC,' LA R5,1(R5) '
 DROP   VNENTRY,R2                 30994  2                        DROP  R2
 00531C 5950 7378/4770_      055C4 31001  2                        IF    (R5,EQ,1),BEGIN     DIG THIS !
 005324 4110 73EB/4100_      05637 31018  3                          ERROR 'Parameter mismatch. Arrays must be passed arrays.'
 005330                            31025  2                        END
                                   31029  2
                                   31030  2                        COMMENT                   SAVE PARAMETER
 005330 D203 B844 8034 00844 0000C 31031  2                        MVC   CPVSET#,PPNEWSET
1XCALL    (XCAL2025) (13:01) (15MAR04) XCALL/PCALL - Parameter Passing Routines                                             Page  157
0Current Usings:  (*,R7) (PPWA-(4+36),R8) (CP,R11) (CV,R12)
0Loc    Object Code    Addr1 Addr2  Stmt Lv Lineno    Source Statement           (Hibal 5, Asmedit 3.3)  HLASM R4.0  2004/03/15 13.01
+___    ______ ____    _____ _____  ____ __ ______    ______ _________
0005336 58E0 7344/0DEE       05590 31032  2                        VCALL SAVEVAR
 00533C D203 B844 8038 00844 00010 31036  2                        MVC   CPVSET#,PPCURSET
 005342 4780 7106            05352 31037  2                        IF    NZ,BEGIN
 005346 4110 741C/4100_      05668 31048  3                          ERROR 'Unable to pass PCALL/XCALL parameter.'
 005352                            31055  2                        END
                                   31059  2
                                   31060  2                        COMMENT                   LOOP PASSING PARMS
 005352 4111 0150            00150 31061  2                        LA    R1,L'VPARM(R1)
 005356 4122 0020            00020 31062  2                        LA    R2,L'VNDESC(R2)
 00535A 4133 0001            00001 31063  2                        LA    R3,1(R3)
 00535E 47F0 70B0            052FC 31064  1                      END   ,                   OF LOOP
 005362                            31069                       END   ,                   OF IF PARMS
                                   31073
 005362 1BFF                       31074                       CLEAR R15
 005364 18D8/9808 D004_            31078                       PEND  ,
 DROP   PPWA-(4+36),R8
 DROP   *,R7
1XCALL    (XCAL2025) (13:01) (15MAR04) XCALL/PCALL - Parameter Passing Routines                                             Page  158
0Current Usings:  (CP,R11) (CV,R12)
0Loc    Object Code    Addr1 Addr2  Stmt Lv Lineno    Source Statement           (Hibal 5, Asmedit 3.3)  HLASM R4.0  2004/03/15 13.01
+___    ______ ____    _____ _____  ____ __ ______    ______ _________
0                                  31104              ¿þþþþþþþþþþþþþþþþþþþþþþþþþþþþþþþþþþþþþþþþþþþþþþþþþþþþþþþþþþþþþþþþþþþþþÜ
                                   31105              Ÿ                                                                     Ÿ
                                   31106              Ÿ                                                                     Ÿ
                                   31107              Ÿ  RETPARMS - RETURN PASSED PARAMETERS                                Ÿ
                                   31108              Ÿ                                                                     Ÿ
                                   31109              Ÿ  ON ENTRY:                                                          Ÿ
                                   31110              Ÿ       R0 - PARM COUNT                                               Ÿ
                                   31111              Ÿ       R1 - RETURN NAME LIST (AS KNOWN TO CALLER)                    Ÿ
                                   31112              Ÿ       R2 - RETURN VALUE LIST                                        Ÿ
                                   31113              Ÿ       R3 - RETURN NAME LIST (AS KNOWN WITHIN PROCEDURE)             Ÿ
                                   31114              Ÿ       R4 - RETURN VARIABLES SET NUMBER                              Ÿ
                                   31115              Ÿ       R5 - RETURN XPROC VARIABLE SET NUMBER                         Ÿ
                                   31116              Ÿ                                                                     Ÿ
                                   31117              Ÿ  ON EXIT:                                                           Ÿ
                                   31118              Ÿ       VARIABLES RETURNED ,,,                                        Ÿ
                                   31119              Ÿ       ALL ERRORS EXIT VIA CVERROR                                   Ÿ
                                   31120              Ÿ                                                                     Ÿ
                                   31121              Ÿ                                                                     Ÿ
                                                      ¾þþþþþþþþþþþþþþþþþþþþþþþþþþþþþþþþþþþþþþþþþþþþþþþþþþþþþþþþþþþþþþþþþþþþþ»
0000000                00000 00024 31122              RPWA     RECORD BEGIN
 000000 00                         31130  1           RPFLAGS    FLAG
 RPFLAGS.RPERROR   80 ONES         31134  1                      FLAG  RPERROR             RETURN PARM ERRORS
 000004                            31139  1           RPCNT      DS    F                   RETURN PARM COUNT
 000008                            31140  1           RPVLIST    DS    F                   RETURN VALUE LIST
 00000C                            31141  1           RPRLIST    DS    F                   RETURN NAME LIST
 000010                            31142  1           RPPRLIST   DS    F                   RETURN NAME LIST (AS KNOWN IN PROC)
 000014                            31143  1           RPRTSET    DS    F                   RETURN VARIABLE SET NUMBER
 000018                            31144  1           RPCRSET    DS    F                   CURRENT VARIABLE SET NUMBER
 00001C                            31145  1           RPRTXSET   DS    F                   RETURN XPROC VARIABLE SET
 000020                            31146  1           RPCRXSET   DS    F                   CURRENT XPROC VARIABLE SET
 000024                00024 00024 31147                       END
                                   31156              *
                                   31157              *
 005372 50E0 D000/9008_      00000 31158              RETPARMS PROC  RPWA
 USING  *,R7
 USING  RPWA-(4+36),R8
 00538C 5000 802C            00004 31208                       ST    R0,RPCNT
 005390 5010 8030            00008 31209                       ST    R1,RPVLIST
 005394 5020 8034            0000C 31210                       ST    R2,RPRLIST
 005398 5030 8038            00010 31211                       ST    R3,RPPRLIST
 00539C 5040 803C            00014 31212                       ST    R4,RPRTSET
 0053A0 5840 B844            00844 31213                       L     R4,CPVSET#
 0053A4 5040 8040            00018 31214                       ST    R4,RPCRSET
 0053A8 5050 8044            0001C 31215                       ST    R5,RPRTXSET
 0053AC 5850 B848            00848 31216                       L     R5,CPXVSET#
 0053B0 5050 8048            00020 31217                       ST    R5,RPCRXSET
 0053B4 947F 8028      00000       31218                       CLEAR RPERROR
                                   31225
                                   31226                       COMMENT                   IF PARMS TO RETURN, RETURN THEM
 0053B8 1200/47D0 70C8             31227                       IF    (R0,POS),BEGIN
1XCALL    (XCAL2025) (13:01) (15MAR04) XCALL/PCALL - Parameter Passing Routines                                             Page  159
0Current Usings:  (*,R7) (RPWA-(4+36),R8) (CP,R11) (CV,R12)
0Loc    Object Code    Addr1 Addr2  Stmt Lv Lineno    Source Statement           (Hibal 5, Asmedit 3.3)  HLASM R4.0  2004/03/15 13.01
+___    ______ ____    _____ _____  ____ __ ______    ______ _________
0                                  31241  1                      ¿þþþþþþþþþþþþþþþþþþþþþþþþÜ
                                   31242  1                      Ÿ  LOOP RETURNING PARMS  Ÿ
                                   31243  1                      ¾þþþþþþþþþþþþþþþþþþþþþþþþ»
                                   31244  1                      COMMENT                   RETURN PARMS,,, (IE SAVE VALUES)
                                   31245  1                      COMMENT
 USING  VNENTRY,R2                 31246  1                      USING VNENTRY,R2
 0053BE 1B00                       31255  1                      CLEAR R0                  VARIABLE MUST BE DECLARED
 0053C0 5810 8030            00008 31259  1                      L     R1,RPVLIST          SAVE VALUE
 0053C4 5820 8034            0000C 31260  1                      L     R2,RPRLIST          SAVE NAME (FROM CALLER)
 0053C8 5830 8038            00010 31261  1                      L     R3,RPPRLIST         VAR NAME (USED WITHIN PROC)
 0053CC 4140 0001            00001 31262  1                      LA    R4,1                SET UP LOOP COUNTERS
 0053D0 5850 802C            00004 31263  1                      L     R5,RPCNT
 0053D4 1945/4730 70BC             31264  1                      WHILE (R4,LE,R5),BEGIN    LOOP SAVING VALUES
 0053DA D51F 71A0 2000_0552C 00000 31281  2                        IF    (VNDESC,EQ,0),BEGIN
 0053E4 9680 8028      00000       31299  3                          SET   RPERROR
 0053E8 58E0 723C/0DEE       055C8 31305  3                          ACALL BADPRETN
 0053EE                            31309  2                        END
 0053EE 7066/47F0 7078_053EE 053E2 31313  2                        ELSEIF VNADESC,BEGIN
 0053FA 9680 8028      00000       31337  3                          SET   RPERROR
 0053FE 58E0 723C/0DEE       055C8 31343  3                          ACALL BADPRETN
                                   31347  3           *$ UNABLE TO RETURN ARRAY ARGUMENT !!  DO WE WANT SEPARATE ERROR
                                   31348  3           *$ MESSAGE FOR ARRAYS,,, NEED ALSO TO FIX SEGVAR FOR ARRAY ELEMENTS
                                   31349  3           *$ AND ARRAYS, NO?  DO IT TO IT !!!
 005404                            31350  2                        END
 005404 707C/47F0 70A8 05404 053F8 31354  2                        ELSE  BEGIN ,             SAVE VARIABLE
 005408 D203 B844 803C 00844 00014 31365  3                          MVC   CPVSET#,RPRTSET
 00540E D203 B848 8044 00848 0001C 31366  3                          MVC   CPXVSET#,RPRTXSET
 005414 58E0 7204/0DEE       05590 31367  3                          VCALL SAVEVAR
 00541A D203 B844 8040 00844 00018 31371  3                          MVC   CPVSET#,RPCRSET
 005420 D203 B848 8048 00848 00020 31372  3                          MVC   CPXVSET#,RPCRXSET
 005426 4780 70A8            05434 31373  3                          IF    NZ,BEGIN
 00542A 9680 8028      00000       31384  4                            SET   RPERROR
 00542E 58E0 723C/0DEE       055C8 31390  4                            ACALL BADPRETN
 005434                            31394  3                          END
 005434                            31398  2                        END
 005434 4111 0150            00150 31402  2                        LA    R1,L'VPARM(R1)
 005438 4122 0020            00020 31403  2                        LA    R2,L'VNDESC(R2)
 00543C 4133 0020            00020 31404  2                        LA    R3,L'VNDESC(R3)
 005440 4144 0001            00001 31405  2                        LA    R4,1(R4)
 005444 47F0 7048            053D4 31406  1                      END   ,                   OF LOOP
 DROP   VNENTRY,R2                 31411  1                      DROP  R2
                                   31418  1
                                   31419  1                      COMMENT                   IF ERRORS,
 005448 9180 8028/47E0_00000       31420  1                      IF    RPERROR,BEGIN
 005450 47F0 C7D6            007D6 31435  2                        B     CVERROR             EXIT VIA CVERROR
 005454                            31436  1                      END
 005454                            31440                       END   ,                   OF IF PARMS
                                   31444
 005454 1BFF                       31445                       CLEAR R15
 005456 18D8/9808 D004_            31449                       PEND  ,
 DROP   RPWA-(4+36),R8
 DROP   *,R7
1XCALL    (XCAL2025) (13:01) (15MAR04) XCALL/PCALL - Parameter Passing Routines                                             Page  160
0Current Usings:  (CP,R11) (CV,R12)
0Loc    Object Code    Addr1 Addr2  Stmt Lv Lineno    Source Statement           (Hibal 5, Asmedit 3.3)  HLASM R4.0  2004/03/15 13.01
+___    ______ ____    _____ _____  ____ __ ______    ______ _________
0                                  31475              ¿þþþþþþþþþþþþþþþþþþþþþþþþþþþþþþþþþþþþþþþþþþþþþþþþþþþþþþþþþþþþþþþþþþþþþÜ
                                   31476              Ÿ                                                                     Ÿ
                                   31477              Ÿ                                                                     Ÿ
                                   31478              Ÿ  RETSYSP - RETURN SYSTEM PROCEDURE PARMS                            Ÿ
                                   31479              Ÿ                                                                     Ÿ
                                   31480              Ÿ  ON ENTRY:                                                          Ÿ
                                   31481              Ÿ       R0 - PARM COUNT                                               Ÿ
                                   31482              Ÿ       R1 - RETURN NAME LIST (AS KNOWN TO CALLER)                    Ÿ
                                   31483              Ÿ       R2 - RETURN VALUE LIST                                        Ÿ
                                   31484              Ÿ                                                                     Ÿ
                                   31485              Ÿ  ON EXIT:                                                           Ÿ
                                   31486              Ÿ       VARIABLES RETURNED ,,,                                        Ÿ
                                   31487              Ÿ       ALL ERRORS EXIT VIA CVERROR                                   Ÿ
                                   31488              Ÿ                                                                     Ÿ
                                   31489              Ÿ                                                                     Ÿ
                                                      ¾þþþþþþþþþþþþþþþþþþþþþþþþþþþþþþþþþþþþþþþþþþþþþþþþþþþþþþþþþþþþþþþþþþþþþ»
0000000                00000 00010 31490              RSPWA    RECORD BEGIN
 000000 00                         31498  1           RSPFLAGS   FLAG
 RSPFLAGS.RSPERROR 80 ONES         31502  1                      FLAG  RSPERROR            RETURN PARM ERRORS
 000004                            31507  1           RSPCNT     DS    F                   RETURN PARM COUNT
 000008                            31508  1           RSPVLIST   DS    F                   RETURN VALUE LIST
 00000C                            31509  1           RSPRLIST   DS    F                   RETURN NAME LIST
 000010                00010 00010 31510                       END
                                   31519              *
                                   31520              *
 005464 50E0 D000/9008_      00000 31521              RETSYSP  PROC  RSPWA
 USING  *,R7
 USING  RSPWA-(4+36),R8
 00547E 5000 802C            00004 31571                       ST    R0,RSPCNT
 005482 5010 8030            00008 31572                       ST    R1,RSPVLIST
 005486 5020 8034            0000C 31573                       ST    R2,RSPRLIST
 00548A 947F 8028      00000       31574                       CLEAR RSPERROR
                                   31581
                                   31582                       COMMENT                   IF PARMS TO RETURN, RETURN THEM
 00548E 1200/47D0 709C             31583                       IF    (R0,POS),BEGIN
                                   31597  1                      ¿þþþþþþþþþþþþþþþþþþþþþþþþÜ
                                   31598  1                      Ÿ  LOOP RETURNING PARMS  Ÿ
                                   31599  1                      ¾þþþþþþþþþþþþþþþþþþþþþþþþ»
                                   31600  1                      COMMENT                   RETURN PARMS,,, (IE SAVE VALUES)
                                   31601  1                      COMMENT
 005494 1B00                       31602  1                      CLEAR R0                  VARIABLE MUST BE DECLARED
 005496 5810 8030            00008 31606  1                      L     R1,RSPVLIST         SAVE VALUE
 00549A 5820 8034            0000C 31607  1                      L     R2,RSPRLIST         SAVE NAME (FROM CALLER)
 00549E 4130 0001            00001 31608  1                      LA    R3,1                PARM NUMBER (USED IF ERROR)
 0054A2 4140 0001            00001 31609  1                      LA    R4,1                SET UP LOOP COUNTERS
 0054A6 5850 802C            00004 31610  1                      L     R5,RSPCNT
                                   31611  1                      COMMENT                   LOOP SAVING VALUES
 0054AA 1945/4730 7090             31612  1                      WHILE (R4,LE,R5),BEGIN
                                   31629  2
                                   31630  2                        COMMENT                   IF VALUE TO RETURN, RETURN IT
 USING  VNENTRY,R1                 31631  2                        USING VNENTRY,R1          VNENTRY IS VALUE
 0054B0 9500 1020/4780_00020       31640  2                        IF    (VNTYPE,NE,0),BEGIN
 DROP   VNENTRY,R1                 31658  3                          DROP  R1
1XCALL    (XCAL2025) (13:01) (15MAR04) XCALL/PCALL - Parameter Passing Routines                                             Page  161
0Current Usings:  (VNENTRY,R2) (*,R7) (RSPWA-(4+36),R8) (CP,R11) (CV,R12)
0Loc    Object Code    Addr1 Addr2  Stmt Lv Lineno    Source Statement           (Hibal 5, Asmedit 3.3)  HLASM R4.0  2004/03/15 13.01
+___    ______ ____    _____ _____  ____ __ ______    ______ _________
0USING  VNENTRY,R2                 31665  3                          USING VNENTRY,R2          VNENTRY IS NAME
 0054B8 D51F 70AE 2000_0552C 00000 31674  3                          IF    (VNDESC,EQ,0),BEGIN IF NO NAME, CAN'T RETURN
 0054C2 9680 8028      00000       31692  4                            SET   RSPERROR            (EG. IF CONSTANT, CAN'T RETURN)
 0054C6 58E0 714E/0DEE       055CC 31698  4                            ACALL BADSYSP
 0054CC                            31702  3                          END
 0054CC 7052/47F0 7064_054CC 054C0 31706  3                          ELSEIF VNADESC,BEGIN      IF ARRAY, CAN'T RETURN
 0054D8 9680 8028      00000       31730  4                            SET   RSPERROR
 0054DC 58E0 714E/0DEE       055CC 31736  4                            ACALL BADSYSP
 0054E2                            31740  3                          END
 0054E2 7068/47F0 707C 054E2 054D6 31744  3                          ELSE  BEGIN ,             SAVE VARIABLE
 0054E6 58E0 7112/0DEE       05590 31755  4                            VCALL SAVEVAR
 0054EC 4780 707C            054FA 31759  4                            IF    NZ,BEGIN
 0054F0 9680 8028      00000       31770  5                              SET   RSPERROR
 0054F4 58E0 714E/0DEE       055CC 31776  5                              ACALL BADSYSP
 0054FA                            31780  4                            END
 0054FA                            31784  3                          END
 DROP   VNENTRY,R2                 31788  3                          DROP  R2
 0054FA                            31795  2                        END
                                   31799  2
 0054FA 4111 0150            00150 31800  2                        LA    R1,L'VPARM(R1)
 0054FE 4122 0020            00020 31801  2                        LA    R2,L'VNDESC(R2)
 005502 4133 0001            00001 31802  2                        LA    R3,1(R3)
 005506 4144 0001            00001 31803  2                        LA    R4,1(R4)
 00550A 47F0 702C            054AA 31804  1                      END   ,                   OF LOOP
                                   31809  1
                                   31810  1                      COMMENT                   IF ERRORS,
 00550E 9180 8028/47E0_00000       31811  1                      IF    RSPERROR,BEGIN
 005516 47F0 C7D6            007D6 31826  2                        B     CVERROR             EXIT VIA CVERROR
 00551A                            31827  1                      END
 00551A                            31831                       END   ,                   OF IF PARMS
                                   31835
 00551A 1BFF                       31836                       CLEAR R15
 00551C 18D8/9808 D004_            31840                       PEND  ,
 DROP   RSPWA-(4+36),R8
 DROP   *,R7
1XCALL    (XCAL2025) (13:01) (15MAR04) XCALL/PCALL - Parameter Passing Routines                                             Page  162
0Current Usings:  (CP,R11) (CV,R12)
0Loc    Object Code    Addr1 Addr2  Stmt Lv Lineno    Source Statement           (Hibal 5, Asmedit 3.3)  HLASM R4.0  2004/03/15 13.01
+___    ______ ____    _____ _____  ____ __ ______    ______ _________
0                                  31866                       QLTORG
1XCALL    (XCAL2025) (13:01) (15MAR04) XCALL/PCALL - EXEC/Procedure Initiator Routines                                      Page  163
0Current Usings:  (CP,R11) (CV,R12)
0Loc    Object Code    Addr1 Addr2  Stmt Lv Lineno    Source Statement           (Hibal 5, Asmedit 3.3)  HLASM R4.0  2004/03/15 13.01
+___    ______ ____    _____ _____  ____ __ ______    ______ _________
0                                  31898              ¿þþþþþþþþþþþþþþþþþþþþþþþþþþþþþþþþþþþþþþþþþþþþþþþþþþþþþþþþþþþþþþþþþþþþþÜ
                                   31899              Ÿ                                                                     Ÿ
                                   31900              Ÿ                                                                     Ÿ
                                   31901              Ÿ  START - START EXEC FILE                                            Ÿ
                                   31902              Ÿ                                                                     Ÿ
                                   31903              Ÿ  THIS ROUTINE IS USED TO START EXEC FILES.  IT IS CALLED            Ÿ
                                   31904              Ÿ  FROM XCALL/PCALL ROUTINES.  IT IS ALSO CALLED TO RESTART           Ÿ
                                   31905              Ÿ  EXECS WHEN A PROC RETURN OR AN XPROC XRETURN IS ISSUED.            Ÿ
                                   31906              Ÿ  THIS ROUTINE DOES NOT RETURN.                                      Ÿ
                                   31907              Ÿ                                                                     Ÿ
                                   31908              Ÿ  ON ENTRY:                                                          Ÿ
                                   31909              Ÿ       R1 - EXEC STATE INFORMATION DSECT                             Ÿ
                                   31910              Ÿ                                                                     Ÿ
                                   31911              Ÿ                                                                     Ÿ
                                                      ¾þþþþþþþþþþþþþþþþþþþþþþþþþþþþþþþþþþþþþþþþþþþþþþþþþþþþþþþþþþþþþþþþþþþþþ»
000568E 50E0 D000/9008_      00000 31912              START    PROC  ,
 USING  *,R7
 USING  SNENTRY,R6                 31951                       USING SNENTRY,R6
 0056A8 1861                       31960                       LR    R6,R1
                                   31961
                                   31962                       COMMENT                   COPY STATE INFORMATION TO CP
 0056AA 947F B758      00758       31963                       CLEAR CPFEXEC
 0056AE 9180 6000/47E0_00000       31970                       IF    SNFEXEC,' SET CPFEXEC '
 0056BA D203 B75C 6004 0075C 00004 31996                       MVC   CPEXLINE,SNEXLINE
 0056C0 D203 B760 6008 00760 00008 31997                       MVC   CPEXNEXT,SNEXNEXT
 0056C6 D203 B768 600C 00768 0000C 31998                       MVC   CPSCOPE,SNSCOPE
 0056CC D203 B76C 6010 0076C 00010 31999                       MVC   CPSCOPD,SNSCOPD
 0056D2 D203 B770 6014 00770 00014 32000                       MVC   CPXSCOPE,SNXSCOPE
 0056D8 D203 B774 6018 00774 00018 32001                       MVC   CPXSCOPD,SNXSCOPD
 0056DE D203 B778 601C 00778 0001C 32002                       MVC   CP#XSET,SN#XSET
 0056E4 D203 B77C 6020 0077C 00020 32003                       MVC   CPRGEXEC,SNRGEXEC
 0056EA D203 B780 6024 00780 00024 32004                       MVC   CPRGFLOW,SNRGFLOW
 0056F0 D203 B844 6028 00844 00028 32005                       MVC   CPVSET#,SNVSET#
 0056F6 D203 B848 602C 00848 0002C 32006                       MVC   CPXVSET#,SNXVSET#
 0056FC D200 B8BA 6030 008BA 00030 32007                       MVC   CPESCAPE,SNESCAPE
 005702 D200 B8BB 6031 008BB 00031 32008                       MVC   CPSKIP,SNSKIP
 005708 D20F B7D0 6072 007D0 00072 32009                       MVC   CPPROCNM,SNPROCNM
 00570E D205 B7F8 6082 007F8 00082 32010                       MVC   CPXPUSH,SNXPUSH
 005714 9200 B759      00759       32011                       CLEAR CPFXTEND
 005718 9200 B759      00759       32018                       CLEAR CPFXOLD
 00571C 947F B75A      0075A       32025                       CLEAR CPFXAUTHLIB
 005720 94BF B75A      0075A       32032                       CLEAR CPFXAUTH
 005724 947F B47B      0047B       32039                       CLEAR CPFTRY
 005728 94BF BD55      00D55       32046                       CLEAR CPFQUIET
 00572C 94BF B7E4      007E4       32053                       CLEAR CPFXQT
 005730 947F B7E4      007E4       32060                       CLEAR CPFXDUMP
 005734 947F B47D      0047D       32067                       CLEAR CPFVCMD
 005738 94EF B477      00477       32074                       CLEAR CPFTYPED
 00573C 9180 6001/47E0_00001       32081                       IF    SNFXTEND,' SET CPFXTEND '
 005748 9140 6001/47E0_00001       32107                       IF    SNFXOLD,'  SET CPFXOLD '
 005754 9120 6001/47E0_00001       32133                       IF    SNFXAUTHLIB,' SET CPFXAUTHLIB '
 005760 9110 6001/47E0_00001       32159                       IF    SNFXAUTH,' SET CPFXAUTH '
 00576C 9140 6002/47E0_00002       32185                       IF    SNFTRY,'   SET CPFTRY  '
1XCALL    (XCAL2025) (13:01) (15MAR04) XCALL/PCALL - EXEC/Procedure Initiator Routines                                      Page  164
0Current Usings:  (SNENTRY,R6) (*,R7) (CP,R11) (CV,R12)
0Loc    Object Code    Addr1 Addr2  Stmt Lv Lineno    Source Statement           (Hibal 5, Asmedit 3.3)  HLASM R4.0  2004/03/15 13.01
+___    ______ ____    _____ _____  ____ __ ______    ______ _________
0005778 9120 6002/47E0_00002       32211                       IF    SNFQUIET,' SET CPFQUIET '
 005784 9110 6002/47E0_00002       32237                       IF    SNFXQT,' SET CPFXQT '
 005790 9108 6002/47E0_00002       32263                       IF    SNFXDUMP,' SET CPFXDUMP '
 00579C 9108 6001/47E0_00001       32289                       IF    SNFVCMD,' SET CPFVCMD '
 0057A8 9180 6002/47E0_00002       32315                       IF    SNFTYPED,' SET CPFTYPED '
                                   32341
                                   32342                       COMMENT                   NEW STATE INFORMATION IN CP
                                   32343                       COMMENT                   START UP EXEC BY GETTING NEXT CMD
 0057B4 47F0 C7DE            007DE 32344                       B     CVNEXT
                                   32345
                                   32346                       COMMENT                   DOES NOT RETURN !!
 0057B8 0000                       32347                       BOMB
 0057BA 1BFF                       32349                       CLEAR R15
 0057BC 18D8/9808 D004_            32353                       PEND  ,          THIS EXIT NEVER TAKEN,
 DROP   *,R7
 DROP   SNENTRY,R6                 32373                       DROP  R6
1XCALL    (XCAL2025) (13:01) (15MAR04) XCALL/PCALL - EXEC/Procedure Initiator Routines                                      Page  165
0Current Usings:  (CP,R11) (CV,R12)
0Loc    Object Code    Addr1 Addr2  Stmt Lv Lineno    Source Statement           (Hibal 5, Asmedit 3.3)  HLASM R4.0  2004/03/15 13.01
+___    ______ ____    _____ _____  ____ __ ______    ______ _________
0                                  32381              ¿þþþþþþþþþþþþþþþþþþþþþþþþþþþþþþþþþþþþþþþþþþþþþþþþþþþþþþþþþþþþþþþþþþþþþÜ
                                   32382              Ÿ                                                                     Ÿ
                                   32383              Ÿ                                                                     Ÿ
                                   32384              Ÿ  XRETXCMD -  XRETURN CMD=                                           Ÿ
                                   32385              Ÿ                                                                     Ÿ
                                   32386              Ÿ  THIS ROUTINE IS A SPECIAL CASE OF THE START ROUTINE FOUND          Ÿ
                                   32387              Ÿ  ABOVE, THIS SPECIAL CASE ROUTINE IS USED TO RETURN FROM            Ÿ
                                   32388              Ÿ  XPROC (XRETURN) AND ISSUE A XCOMMAND AT THE COMPLETION             Ÿ
                                   32389              Ÿ  OF THE RETURN,,, KIND OF A YUCKKY THING FROM A PROGRAMING          Ÿ
                                   32390              Ÿ  LANGUAGE POINT OF VIEW, DYNAMIC AND STATIC BEHAVIOR, BEING         Ÿ
                                   32391              Ÿ  TOTALLY AT ODDS !!                                                 Ÿ
                                   32392              Ÿ  ANYWAY WE CONTINUE WITH ORIGINAL COMMENTS:                         Ÿ
                                   32393              Ÿ                                                                     Ÿ
                                   32394              Ÿ  THIS ROUTINE IS USED TO START EXEC FILES.  IT IS CALLED            Ÿ
                                   32395              Ÿ  FROM XCALL/PCALL ROUTINES.  IT IS ALSO CALLED TO RESTART           Ÿ
                                   32396              Ÿ  EXECS WHEN A PROC RETURN OR AN XPROC XRETURN IS ISSUED.            Ÿ
                                   32397              Ÿ  THIS ROUTINE DOES NOT RETURN.                                      Ÿ
                                   32398              Ÿ                                                                     Ÿ
                                   32399              Ÿ  ON ENTRY:                                                          Ÿ
                                   32400              Ÿ       R1 - EXEC STATE INFORMATION DSECT                             Ÿ
                                   32401              Ÿ                                                                     Ÿ
                                   32402              Ÿ                                                                     Ÿ
                                                      ¾þþþþþþþþþþþþþþþþþþþþþþþþþþþþþþþþþþþþþþþþþþþþþþþþþþþþþþþþþþþþþþþþþþþþþ»
00057CA 50E0 D000/9008_      00000 32403              XRETXCMD PROC  ,
 USING  *,R7
 USING  SNENTRY,R6                 32442                       USING SNENTRY,R6
 0057E4 1861                       32451                       LR    R6,R1
                                   32452
                                   32453                       COMMENT                   COPY STATE INFORMATION TO CP
 0057E6 947F B758      00758       32454                       CLEAR CPFEXEC
 0057EA 9180 6000/47E0_00000       32461                       IF    SNFEXEC,' SET CPFEXEC '
 0057F6 D203 B75C 6004 0075C 00004 32487                       MVC   CPEXLINE,SNEXLINE
 0057FC D203 B760 6008 00760 00008 32488                       MVC   CPEXNEXT,SNEXNEXT
 005802 D203 B768 600C 00768 0000C 32489                       MVC   CPSCOPE,SNSCOPE
 005808 D203 B76C 6010 0076C 00010 32490                       MVC   CPSCOPD,SNSCOPD
 00580E D203 B770 6014 00770 00014 32491                       MVC   CPXSCOPE,SNXSCOPE
 005814 D203 B774 6018 00774 00018 32492                       MVC   CPXSCOPD,SNXSCOPD
 00581A D203 B778 601C 00778 0001C 32493                       MVC   CP#XSET,SN#XSET
 005820 D203 B77C 6020 0077C 00020 32494                       MVC   CPRGEXEC,SNRGEXEC
 005826 D203 B780 6024 00780 00024 32495                       MVC   CPRGFLOW,SNRGFLOW
 00582C D203 B844 6028 00844 00028 32496                       MVC   CPVSET#,SNVSET#
 005832 D203 B848 602C 00848 0002C 32497                       MVC   CPXVSET#,SNXVSET#
 005838 D200 B8BA 6030 008BA 00030 32498                       MVC   CPESCAPE,SNESCAPE
 00583E D200 B8BB 6031 008BB 00031 32499                       MVC   CPSKIP,SNSKIP
 005844 D20F B7D0 6072 007D0 00072 32500                       MVC   CPPROCNM,SNPROCNM
 00584A D205 B7F8 6082 007F8 00082 32501                       MVC   CPXPUSH,SNXPUSH
 005850 9200 B759      00759       32502                       CLEAR CPFXTEND
 005854 9200 B759      00759       32509                       CLEAR CPFXOLD
 005858 947F B75A      0075A       32516                       CLEAR CPFXAUTHLIB
 00585C 94BF B75A      0075A       32523                       CLEAR CPFXAUTH
 005860 947F B47B      0047B       32530                       CLEAR CPFTRY
 005864 94BF BD55      00D55       32537                       CLEAR CPFQUIET
 005868 94BF B7E4      007E4       32544                       CLEAR CPFXQT
1XCALL    (XCAL2025) (13:01) (15MAR04) XCALL/PCALL - EXEC/Procedure Initiator Routines                                      Page  166
0Current Usings:  (SNENTRY,R6) (*,R7) (CP,R11) (CV,R12)
0Loc    Object Code    Addr1 Addr2  Stmt Lv Lineno    Source Statement           (Hibal 5, Asmedit 3.3)  HLASM R4.0  2004/03/15 13.01
+___    ______ ____    _____ _____  ____ __ ______    ______ _________
000586C 947F B7E4      007E4       32551                       CLEAR CPFXDUMP
 005870 947F B47D      0047D       32558                       CLEAR CPFVCMD
 005874 94EF B477      00477       32565                       CLEAR CPFTYPED
 005878 9180 6001/47E0_00001       32572                       IF    SNFXTEND,' SET CPFXTEND '
 005884 9140 6001/47E0_00001       32598                       IF    SNFXOLD,'  SET CPFXOLD '
 005890 9120 6001/47E0_00001       32624                       IF    SNFXAUTHLIB,' SET CPFXAUTHLIB '
 00589C 9110 6001/47E0_00001       32650                       IF    SNFXAUTH,' SET CPFXAUTH '
 0058A8 9140 6002/47E0_00002       32676                       IF    SNFTRY,'   SET CPFTRY  '
 0058B4 9120 6002/47E0_00002       32702                       IF    SNFQUIET,' SET CPFQUIET '
 0058C0 9110 6002/47E0_00002       32728                       IF    SNFXQT,' SET CPFXQT '
 0058CC 9108 6002/47E0_00002       32754                       IF    SNFXDUMP,' SET CPFXDUMP '
 0058D8 9108 6001/47E0_00001       32780                       IF    SNFVCMD,' SET CPFVCMD '
 0058E4 9180 6002/47E0_00002       32806                       IF    SNFTYPED,' SET CPFTYPED '
                                   32832
                                   32833                       COMMENT                   ISSUE XCOMMAND COMMAND
 0058F0 94EF B477      00477       32834                       CLEAR CPFTYPED
 0058F4 4110 B242/4800_      00242 32841                       SETMSG CPCMD,LH:CPCMDLEN
 0058FC 58E0 74B4/0DEE       05C98 32854                       VCALL EDTCOM              -->> DO COMMAND, DOES NOT RETURN
                                   32858
                                   32859                       COMMENT                   DOES NOT RETURN !!
 005902 0000                       32860                       BOMB
                                   32862                       COMMENT                   NOTE: NEW STATE INFORMATION IN CP
                                   32863                       COMMENT                   AFTER XCOMMAND XRETURN WILL RETURN
                                   32864                       COMMENT                   BY JUST GETTING NEXT COMMAND
                                   32865
 005904 1BFF                       32866                       CLEAR R15
 005906 18D8/9808 D004_            32870                       PEND  ,          THIS EXIT NEVER TAKEN,
 DROP   *,R7
 DROP   SNENTRY,R6                 32890                       DROP  R6
1XCALL    (XCAL2025) (13:01) (15MAR04) XCALL/PCALL - EXEC/Procedure Initiator Routines                                      Page  167
0Current Usings:  (CP,R11) (CV,R12)
0Loc    Object Code    Addr1 Addr2  Stmt Lv Lineno    Source Statement           (Hibal 5, Asmedit 3.3)  HLASM R4.0  2004/03/15 13.01
+___    ______ ____    _____ _____  ____ __ ______    ______ _________
0                                  32898              ¿þþþþþþþþþþþþþþþþþþþþþþþþþþþþþþþþþþþþþþþþþþþþþþþþþþþþþþþþþþþþþþþþþþþþþÜ
                                   32899              Ÿ                                                                     Ÿ
                                   32900              Ÿ                                                                     Ÿ
                                   32901              Ÿ  GETSTATE - GET CURRENT EXEC STATE INFO                             Ÿ
                                   32902              Ÿ                                                                     Ÿ
                                   32903              Ÿ  ON ENTRY:                                                          Ÿ
                                   32904              Ÿ      @R1 - EXEC STATE INFO DSECT                                    Ÿ
                                   32905              Ÿ                                                                     Ÿ
                                   32906              Ÿ  ON EXIT:                                                           Ÿ
                                   32907              Ÿ      @R1 - EXEC STATE INFO AREA RETURNED                            Ÿ
                                   32908              Ÿ      R15 - CC=ZERO                                                  Ÿ
                                   32909              Ÿ                                                                     Ÿ
                                   32910              Ÿ                                                                     Ÿ
                                   32911              Ÿ                                                                     Ÿ
                                                      ¾þþþþþþþþþþþþþþþþþþþþþþþþþþþþþþþþþþþþþþþþþþþþþþþþþþþþþþþþþþþþþþþþþþþþþ»
0005914 50E0 D000/9008_      00000 32912              GETSTATE XPROC ,
 USING  *,R7
 USING  SNENTRY,R6                 32952                       USING SNENTRY,R6
 00592E 1861                       32961                       LR    R6,R1
                                   32962
 005930 D787 6000 6000 00000 00000 32963                       CLEAR SNENTRY
 005936 9180 B758/47E0_00758       32970                       IF    CPFEXEC,' SET SNFEXEC '
 005942 D203 6004 B75C 00004 0075C 32996                       MVC   SNEXLINE,CPEXLINE
 005948 D203 6008 B760 00008 00760 32997                       MVC   SNEXNEXT,CPEXNEXT
 00594E D203 600C B768 0000C 00768 32998                       MVC   SNSCOPE,CPSCOPE
 005954 D203 6010 B76C 00010 0076C 32999                       MVC   SNSCOPD,CPSCOPD
 00595A D203 6014 B770 00014 00770 33000                       MVC   SNXSCOPE,CPXSCOPE
 005960 D203 6018 B774 00018 00774 33001                       MVC   SNXSCOPD,CPXSCOPD
 005966 D203 601C B778 0001C 00778 33002                       MVC   SN#XSET,CP#XSET
 00596C D203 6020 B77C 00020 0077C 33003                       MVC   SNRGEXEC,CPRGEXEC
 005972 D203 6024 B780 00024 00780 33004                       MVC   SNRGFLOW,CPRGFLOW
 005978 D203 6028 B844 00028 00844 33005                       MVC   SNVSET#,CPVSET#
 00597E D203 602C B848 0002C 00848 33006                       MVC   SNXVSET#,CPXVSET#
 005984 D200 6030 B8BA 00030 008BA 33007                       MVC   SNESCAPE,CPESCAPE
 00598A D200 6031 B8BB 00031 008BB 33008                       MVC   SNSKIP,CPSKIP
 005990 D20F 6072 B7D0 00072 007D0 33009                       MVC   SNPROCNM,CPPROCNM
 005996 D205 6082 B7F8 00082 007F8 33010                       MVC   SNXPUSH,CPXPUSH
 00599C 9502 B759/4770_00759       33011                       IF    CPFXOLD,' SET SNFXOLD '
 0059A8 9501 B759/4770_00759       33037                       IF    CPFXTEND,' SET SNFXTEND '
 0059B4 9180 B75A/47E0_0075A       33063                       IF    CPFXAUTHLIB,' SET SNFXAUTHLIB '
 0059C0 9140 B75A/47E0_0075A       33089                       IF    CPFXAUTH,' SET SNFXAUTH '
 0059CC 9180 B47B/47E0_0047B       33115                       IF    CPFTRY,' SET SNFTRY '
 0059D8 9140 BD55/47E0_00D55       33141                       IF    CPFQUIET,' SET SNFQUIET '
 0059E4 9140 B7E4/47E0_007E4       33167                       IF    CPFXQT,' SET SNFXQT '
 0059F0 9180 B7E4/47E0_007E4       33193                       IF    CPFXDUMP,' SET SNFXDUMP '
 0059FC 9180 B47D/47E0_0047D       33219                       IF    CPFVCMD,' SET SNFVCMD '
 005A08 9110 B477/47E0_00477       33245                       IF    CPFTYPED,' SET SNFTYPED '
                                   33271
 005A14 1BFF                       33272                       CLEAR R15
 005A16 18D8/9808 D004_            33276                       PEND  ,
 DROP   *,R7
 DROP   SNENTRY,R6                 33296                       DROP  R6
1XCALL    (XCAL2025) (13:01) (15MAR04) XCALL/PCALL - EXEC/Procedure Initiator Routines                                      Page  168
0Current Usings:  (CP,R11) (CV,R12)
0Loc    Object Code    Addr1 Addr2  Stmt Lv Lineno    Source Statement           (Hibal 5, Asmedit 3.3)  HLASM R4.0  2004/03/15 13.01
+___    ______ ____    _____ _____  ____ __ ______    ______ _________
0                                  33304              ¿þþþþþþþþþþþþþþþþþþþþþþþþþþþþþþþþþþþþþþþþþþþþþþþþþþþþþþþþþþþþþþþþþþþþþÜ
                                   33305              Ÿ                                                                     Ÿ
                                   33306              Ÿ                                                                     Ÿ
                                   33307              Ÿ  GTXSTART - GET STARTING STATE INFOMATION FOR XCALLED EXEC          Ÿ
                                   33308              Ÿ                                                                     Ÿ
                                   33309              Ÿ  ON ENTRY:                                                          Ÿ
                                   33310              Ÿ       R0 - NEW EXEC SET NUMBER                                      Ÿ
                                   33311              Ÿ       R1 - POINTER TO EXEC RECORD GROUP                             Ÿ
                                   33312              Ÿ       R2 - POINTER TO FLOW RECORD GROUP                             Ÿ
                                   33313              Ÿ       R3 - POINTER TO EXEC STATE INFO DSECT                         Ÿ
                                   33314              Ÿ                                                                     Ÿ
                                   33315              Ÿ  ON EXIT:                                                           Ÿ
                                   33316              Ÿ      @R3 - STARTING STATE INFO FOR EXEC RETURNED                    Ÿ
                                   33317              Ÿ                                                                     Ÿ
                                   33318              Ÿ                                                                     Ÿ
                                                      ¾þþþþþþþþþþþþþþþþþþþþþþþþþþþþþþþþþþþþþþþþþþþþþþþþþþþþþþþþþþþþþþþþþþþþþ»
0000000                00000 00019 33319              GTXWA    RECORD BEGIN
 000000                            33327  1           GTX#XSET   DS    F                   NEW EXEC SET NUMBER
 000004                            33328  1           GTXGEXEC   DS    F                   POINTER TO NEW EXEC RECD GROUP
 000008                            33329  1           GTXGFLOW   DS    F                   POINTER TO NEW FLOW RECD GROUP
 00000C                            33330  1           GTXSCOPE   DS    F                   START OF NEW EXEC SCOPE
 000010                            33331  1           GTXSCOPD   DS    F                   END OF NEW EXEC SCOPE
 000014                            33332  1           GTXVSET#   DS    F                   NEW VARIABLE STACK SET NUMBER
 000018 00                         33333  1           GTXFLAG    FLAG  ,
 GTXFLAG.GTXAUTHLI 80 ONES         33337  1                      FLAG  GTXAUTHLIB          AUTHORIZED EXEC
 000019                00019 00019 33342                       END
                                   33351              *
                                   33352              *
 005A24 50E0 D000/9008_      00000 33353              GTXSTART PROC  GTXWA
 USING  *,R7
 USING  GTXWA-(4+36),R8
 USING  SNENTRY,R6                 33403                       USING SNENTRY,R6
 005A3E 1863                       33412                       LR    R6,R3
 005A40 5000 8028            00000 33413                       ST    R0,GTX#XSET
 005A44 5010 802C            00004 33414                       ST    R1,GTXGEXEC
 005A48 5020 8030            00008 33415                       ST    R2,GTXGFLOW
                                   33416
                                   33417                       COMMENT                   GET EXEC SCOPE (START/END)
 005A4C 5800 8028            00000 33418                       L     R0,GTX#XSET
 005A50 5810 8030            00008 33419                       L     R1,GTXGFLOW
 005A54 58E0 725E/0DEE       05C9C 33420                       VCALL GTXSCOPE
 005A5A 5000 8034            0000C 33424                       ST    R0,GTXSCOPE
 005A5E 5010 8038            00010 33425                       ST    R1,GTXSCOPD
 005A62 58E0 7262/0DEE       05CA0 33426                       VCALL GTNEWSET            GET NEW VARIABLE SET #
 005A68 5000 803C            00014 33430                       ST    R0,GTXVSET#
                                   33431
                                   33432                       COMMENT                   CHECK FOR AUTHORIZED EXEC
 005A6C 5850 BE54            00E54 33433                       L     R5,CPFINFOP
 005A70 1255/4770 703A_            33434                       IF    (R5,Z),' BOMB '
 005A78 5805 0214            00214 33455                       L     R0,FFRNAMEL-FFINFO(R5)   R1,R0 - FULL NAME LOC,LEN
 005A7C 4115 0218            00218 33456                       LA    R1,FFRNAME-FFINFO(R5)
 005A80 5900 7266/4750_      05CA4 33457                       IF    ((R0,GE,11),AND,(@R1,EQ,'WYL.GS.WYL.')),BEGIN
 005A92 9680 8040      00018       33489  1                      SET   GTXAUTHLIB
1XCALL    (XCAL2025) (13:01) (15MAR04) XCALL/PCALL - EXEC/Procedure Initiator Routines                                      Page  169
0Current Usings:  (SNENTRY,R6) (*,R7) (GTXWA-(4+36),R8) (CP,R11) (CV,R12)
0Loc    Object Code    Addr1 Addr2  Stmt Lv Lineno    Source Statement           (Hibal 5, Asmedit 3.3)  HLASM R4.0  2004/03/15 13.01
+___    ______ ____    _____ _____  ____ __ ______    ______ _________
0005A96                            33495                       END
                                   33499
                                   33500                       COMMENT                   SET STARTING VALUES FOR
                                   33501                       COMMENT                   NEW EXEC FILE
 005A96 D787 6000 6000 00000 00000 33502                       CLEAR SNENTRY
 005A9C 9680 6000      00000       33509                       SET   SNFEXEC             START IN EXEC MODE ... ETC.
 005AA0 D203 6004 8034 00004 0000C 33515                       MVC   SNEXLINE,GTXSCOPE
 005AA6 D203 6008 726A 00008 05CA8 33516                       MVC   SNEXNEXT,=CL4'NEXT'
 005AAC D203 600C 8034 0000C 0000C 33517                       MVC   SNSCOPE,GTXSCOPE
 005AB2 D203 6010 8038 00010 00010 33518                       MVC   SNSCOPD,GTXSCOPD
 005AB8 D203 6014 8034 00014 0000C 33519                       MVC   SNXSCOPE,GTXSCOPE
 005ABE D203 6018 8038 00018 00010 33520                       MVC   SNXSCOPD,GTXSCOPD
 005AC4 D203 601C 8028 0001C 00000 33521                       MVC   SN#XSET,GTX#XSET
 005ACA D203 6020 802C 00020 00004 33522                       MVC   SNRGEXEC,GTXGEXEC
 005AD0 D203 6024 8030 00024 00008 33523                       MVC   SNRGFLOW,GTXGFLOW
 005AD6 D203 6028 803C 00028 00014 33524                       MVC   SNVSET#,GTXVSET#
 005ADC D203 602C 803C 0002C 00014 33525                       MVC   SNXVSET#,GTXVSET#
 005AE2 9250 6030      00030       33526                       MVI   SNESCAPE,C'&&'
 005AE6 9200 6031      00031       33527                       MVI   SNSKIP,0
 005AEA D20F 6072 724A 00072 05C88 33528                       MVC   SNPROCNM,=CL(L'SNPROCNM)'XPROC '
 005AF0 D705 6082 6082 00082 00082 33529                       CLEAR SNXPUSH
 005AF6 9680 6001      00001       33536                       SET   SNFXTEND
 005AFA 9180 8040/47E0_00018       33542                       IF    GTXAUTHLIB,BEGIN    We are coming from an auth lib...
 005B02 9620 6001      00001       33557  1                      SET   SNFXAUTHLIB         We can be authorized
 005B06 9140 B75A/47E0_0075A       33563  1                      IF    CPFXAUTH,'SET SNFXAUTH'  We retain existing auth
 005B12                            33589                       END
 005B12 9140 BD55/47E0_00D55       33593                       IF    CPFQUIET,' SET SNFXQT '
 005B1E 9140 B7E4/47E0_007E4       33619                       IF    CPFXQT,' SET SNFXQT '
 005B2A 9180 B7E4/47E0_007E4       33645                       IF    CPFXDUMP,' SET SNFXDUMP '
                                   33671
 005B36 1BFF                       33672                       CLEAR R15
 005B38 18D8/9808 D004_            33676                       PEND  ,
 DROP   GTXWA-(4+36),R8
 DROP   *,R7
 DROP   SNENTRY,R6                 33701                       DROP  R6
1XCALL    (XCAL2025) (13:01) (15MAR04) XCALL/PCALL - EXEC/Procedure Initiator Routines                                      Page  170
0Current Usings:  (CP,R11) (CV,R12)
0Loc    Object Code    Addr1 Addr2  Stmt Lv Lineno    Source Statement           (Hibal 5, Asmedit 3.3)  HLASM R4.0  2004/03/15 13.01
+___    ______ ____    _____ _____  ____ __ ______    ______ _________
0                                  33709              ¿þþþþþþþþþþþþþþþþþþþþþþþþþþþþþþþþþþþþþþþþþþþþþþþþþþþþþþþþþþþþþþþþþþþþþÜ
                                   33710              Ÿ                                                                     Ÿ
                                   33711              Ÿ                                                                     Ÿ
                                   33712              Ÿ  GTPSTART - GET STARTING STATE INFOMATION FOR PCALLED PROC          Ÿ
                                   33713              Ÿ                                                                     Ÿ
                                   33714              Ÿ  ON ENTRY:                                                          Ÿ
                                   33715              Ÿ       R1 - POINTER TO PROCEDURE NAME                                Ÿ
                                   33716              Ÿ       R3 - POINTER TO EXEC STATE INFO DSECT                         Ÿ
                                   33717              Ÿ                                                                     Ÿ
                                   33718              Ÿ  ON EXIT:                                                           Ÿ
                                   33719              Ÿ      @R3 - STARTING STATE INFO FOR EXEC RETURNED                    Ÿ
                                   33720              Ÿ                                                                     Ÿ
                                   33721              Ÿ                                                                     Ÿ
                                                      ¾þþþþþþþþþþþþþþþþþþþþþþþþþþþþþþþþþþþþþþþþþþþþþþþþþþþþþþþþþþþþþþþþþþþþþ»
0000000                00000 0000C 33722              GTPWA    RECORD BEGIN
 000000                            33730  1           GTPSCOPE   DS    F                   START OF NEW EXEC SCOPE
 000004                            33731  1           GTPSCOPD   DS    F                   END OF NEW EXEC SCOPE
 000008                            33732  1           GTPVSET#   DS    F                   NEW VARIABLE STACK SET NUMBER
 00000C                0000C 0000C 33733                       END
                                   33742              *
                                   33743              *
 005B46 50E0 D000/9008_      00000 33744              GTPSTART PROC  GTPWA
 USING  *,R7
 USING  GTPWA-(4+36),R8
 USING  SNENTRY,R6                 33794                       USING SNENTRY,R6
 005B60 1863                       33803                       LR    R6,R3
 005B62 1851                       33804                       LR    R5,R1               R5 - PROC NAME
                                   33805
                                   33806                       COMMENT                   GET EXEC SCOPE (START/END)
 005B64 58E0 714C/0DEE       05CAC 33807                       VCALL GTPSCOPE
 005B6A 5000 8028            00000 33811                       ST    R0,GTPSCOPE
 005B6E 5010 802C            00004 33812                       ST    R1,GTPSCOPD
 005B72 58E0 7140/0DEE       05CA0 33813                       VCALL GTNEWSET            GET NEW VARIABLE SET #
 005B78 5000 8030            00008 33817                       ST    R0,GTPVSET#
                                   33818
                                   33819                       COMMENT                   SET STARTING VALUES FOR
                                   33820                       COMMENT                   NEW EXEC FILE
 005B7C D787 6000 6000 00000 00000 33821                       CLEAR SNENTRY
 005B82 9680 6000      00000       33828                       SET   SNFEXEC             START IN EXEC MODE ... ETC.
 005B86 D203 6004 8028 00004 00000 33834                       MVC   SNEXLINE,GTPSCOPE
 005B8C D203 6008 7148 00008 05CA8 33835                       MVC   SNEXNEXT,=CL4'NEXT'
 005B92 D203 600C 8028 0000C 00000 33836                       MVC   SNSCOPE,GTPSCOPE
 005B98 D203 6010 802C 00010 00004 33837                       MVC   SNSCOPD,GTPSCOPD
 005B9E D203 6014 B770 00014 00770 33838                       MVC   SNXSCOPE,CPXSCOPE
 005BA4 D203 6018 B774 00018 00774 33839                       MVC   SNXSCOPD,CPXSCOPD
 005BAA D203 601C B778 0001C 00778 33840                       MVC   SN#XSET,CP#XSET
 005BB0 D203 6020 B77C 00020 0077C 33841                       MVC   SNRGEXEC,CPRGEXEC
 005BB6 D203 6024 B780 00024 00780 33842                       MVC   SNRGFLOW,CPRGFLOW
 005BBC D203 6028 8030 00028 00008 33843                       MVC   SNVSET#,GTPVSET#
 005BC2 D203 602C B848 0002C 00848 33844                       MVC   SNXVSET#,CPXVSET#
 005BC8 D200 6030 B8BA 00030 008BA 33845                       MVC   SNESCAPE,CPESCAPE
 005BCE D200 6031 B8BB 00031 008BB 33846                       MVC   SNSKIP,CPSKIP
 005BD4 D20F 6072 5000 00072 00000 33847                       MVC   SNPROCNM,0(R5)
1XCALL    (XCAL2025) (13:01) (15MAR04) XCALL/PCALL - EXEC/Procedure Initiator Routines                                      Page  171
0Current Usings:  (SNENTRY,R6) (*,R7) (GTPWA-(4+36),R8) (CP,R11) (CV,R12)
0Loc    Object Code    Addr1 Addr2  Stmt Lv Lineno    Source Statement           (Hibal 5, Asmedit 3.3)  HLASM R4.0  2004/03/15 13.01
+___    ______ ____    _____ _____  ____ __ ______    ______ _________
0005BDA D205 6082 B7F8 00082 007F8 33848                       MVC   SNXPUSH,CPXPUSH
 005BE0 9680 6001      00001       33849                       SET   SNFXTEND
 005BE4 9180 B75A/47E0_0075A       33855                       IF    CPFXAUTHLIB,' SET SNFXAUTHLIB '
 005BF0 9140 B75A/47E0_0075A       33881                       IF    CPFXAUTH,' SET SNFXAUTH '
 005BFC 9140 BD55/47E0_00D55       33907                       IF    CPFQUIET,' SET SNFXQT '
 005C08 9140 B7E4/47E0_007E4       33933                       IF    CPFXQT,' SET SNFXQT '
 005C14 9180 B7E4/47E0_007E4       33959                       IF    CPFXDUMP,' SET SNFXDUMP '
                                   33985
 005C20 1BFF                       33986                       CLEAR R15
 005C22 18D8/9808 D004_            33990                       PEND  ,
 DROP   GTPWA-(4+36),R8
 DROP   *,R7
 DROP   SNENTRY,R6                 34015                       DROP  R6
1XCALL    (XCAL2025) (13:01) (15MAR04) XCALL/PCALL - EXEC/Procedure Initiator Routines                                      Page  172
0Current Usings:  (CP,R11) (CV,R12)
0Loc    Object Code    Addr1 Addr2  Stmt Lv Lineno    Source Statement           (Hibal 5, Asmedit 3.3)  HLASM R4.0  2004/03/15 13.01
+___    ______ ____    _____ _____  ____ __ ______    ______ _________
0                                  34023              ¿þþþþþþþþþþþþþþþþþþþþþþþþþþþþþþþþþþþþþþþþþþþþþþþþþþþþþþþþþþþþþþþþþþþþþÜ
                                   34024              Ÿ                                                                     Ÿ
                                   34025              Ÿ  SETPRET - RESET SOME PCALL RETURN STATE INFO                       Ÿ
                                   34026              Ÿ                                                                     Ÿ
                                   34027              Ÿ  THIS ROUTINE, RESETS SOME STATE INFO FOR PCALL RETURNS.            Ÿ
                                   34028              Ÿ  FOR EXAMPLE, ESC AND SKIP ARE SET AND RESTORED ON                  Ÿ
                                   34029              Ÿ  AN XPROC LEVEL.  SO ON RETURN FROM A PCALL WE MUST                 Ÿ
                                   34030              Ÿ  NOT RESET ESC AND SKIP CHARACTERS.  THIS ALLOWS THE                Ÿ
                                   34031              Ÿ  EXEC PROGRAMMER TO USE A PROC TO INIT STUFF INCLUDING              Ÿ
                                   34032              Ÿ  SKIP AND ESCAPE.                                                   Ÿ
                                   34033              Ÿ                                                                     Ÿ
                                   34034              Ÿ                                                                     Ÿ
                                                      ¾þþþþþþþþþþþþþþþþþþþþþþþþþþþþþþþþþþþþþþþþþþþþþþþþþþþþþþþþþþþþþþþþþþþþþ»
0005C30 50E0 D000/9008_      00000 34035              SETPRET  PROC  ,
 USING  *,R7
 USING  SNENTRY,R1                 34074                       USING SNENTRY,R1
 005C4A D200 1030 B8BA 00030 008BA 34083                       MVC   SNESCAPE,CPESCAPE
 005C50 D200 1031 B8BB 00031 008BB 34084                       MVC   SNSKIP,CPSKIP
 005C56 94F7 1002      00002       34085                       CLEAR SNFXDUMP
 005C5A 9180 B7E4/47E0_007E4       34092                       IF    CPFXDUMP,' SET SNFXDUMP '
 005C66 94EF 1002      00002       34118                       CLEAR SNFXQT
 005C6A 9140 B7E4/47E0_007E4       34125                       IF    CPFXQT,' SET SNFXQT '
 005C76 18D8/9808 D004_            34151                       PEND  ,
 DROP   *,R7
 DROP   SNENTRY,R1                 34171                       DROP  R1
1XCALL    (XCAL2025) (13:01) (15MAR04) XCALL/PCALL - EXEC/Procedure Initiator Routines                                      Page  173
0Current Usings:  (CP,R11) (CV,R12)
0Loc    Object Code    Addr1 Addr2  Stmt Lv Lineno    Source Statement           (Hibal 5, Asmedit 3.3)  HLASM R4.0  2004/03/15 13.01
+___    ______ ____    _____ _____  ____ __ ______    ______ _________
0                                  34179                       QLTORG
1XCALL    (XCAL2025) (13:01) (15MAR04) Error Routines                                                                       Page  174
0Current Usings:  (CP,R11) (CV,R12)
0Loc    Object Code    Addr1 Addr2  Stmt Lv Lineno    Source Statement           (Hibal 5, Asmedit 3.3)  HLASM R4.0  2004/03/15 13.01
+___    ______ ____    _____ _____  ____ __ ______    ______ _________
0                                  34200              ¿þþþþþþþþþþþþþþþþþþþþþþþþþþþþþþþþþþþþþþþþþþþþþþþþþþþþþþþþþþþþþþþþþþþþþÜ
                                   34201              Ÿ                                                                     Ÿ
                                   34202              Ÿ                                                                     Ÿ
                                   34203              Ÿ  MANYPARM - TOO MANY PARAMETERS                                     Ÿ
                                   34204              Ÿ                                                                     Ÿ
                                   34205              Ÿ                                                                     Ÿ
                                   34206              Ÿ                                                                     Ÿ
                                                      ¾þþþþþþþþþþþþþþþþþþþþþþþþþþþþþþþþþþþþþþþþþþþþþþþþþþþþþþþþþþþþþþþþþþþþþ»
0005CBC 50E0 D000/9008_      00000 34207              MANYPARM PROC  ,
 USING  *,R7
 005CD6 4110 76B6/4100_      0638C 34246                       TSEG   'Too many parameters specified.'
 005CE8 41F0 0004            00004 34264                       LA    R15,4
 005CEC 18D8/9808 D004_            34265                       PEND  ,
 DROP   *,R7
1XCALL    (XCAL2025) (13:01) (15MAR04) Error Routines                                                                       Page  175
0Current Usings:  (CP,R11) (CV,R12)
0Loc    Object Code    Addr1 Addr2  Stmt Lv Lineno    Source Statement           (Hibal 5, Asmedit 3.3)  HLASM R4.0  2004/03/15 13.01
+___    ______ ____    _____ _____  ____ __ ______    ______ _________
0                                  34286              ¿þþþþþþþþþþþþþþþþþþþþþþþþþþþþþþþþþþþþþþþþþþþþþþþþþþþþþþþþþþþþþþþþþþþþþÜ
                                   34287              Ÿ                                                                     Ÿ
                                   34288              Ÿ                                                                     Ÿ
                                   34289              Ÿ  PARMERR - INVALID PARAMETER SPECIFIED                              Ÿ
                                   34290              Ÿ                                                                     Ÿ
                                   34291              Ÿ  ON ENTRY:                                                          Ÿ
                                   34292              Ÿ       R3 - PARM NUMBER                                              Ÿ
                                   34293              Ÿ                                                                     Ÿ
                                   34294              Ÿ                                                                     Ÿ
                                                      ¾þþþþþþþþþþþþþþþþþþþþþþþþþþþþþþþþþþþþþþþþþþþþþþþþþþþþþþþþþþþþþþþþþþþþþ»
0005CFA 50E0 D000/9008_      00000 34295              PARMERR  PROC  ,
 USING  *,R7
 005D14 D603 B05C B05C_0005C 0005C 34334                       TCCR
 005D34 4110 76AA/4100_      063BE 34396                       TSEG  'Parameter #'
 005D46 1813/1B00/41F0_            34414                       TNUM  (R3)
 005D54 4110 7628/4100_      0633C 34436                       TSEG  ' is invalid.'                       NO RETURN
 005D66 41F0 0004            00004 34454                       LA    R15,4
 005D6A 18D8/9808 D004_            34455                       PEND  ,
 DROP   *,R7
1XCALL    (XCAL2025) (13:01) (15MAR04) Error Routines                                                                       Page  176
0Current Usings:  (CP,R11) (CV,R12)
0Loc    Object Code    Addr1 Addr2  Stmt Lv Lineno    Source Statement           (Hibal 5, Asmedit 3.3)  HLASM R4.0  2004/03/15 13.01
+___    ______ ____    _____ _____  ____ __ ______    ______ _________
0                                  34476              ¿þþþþþþþþþþþþþþþþþþþþþþþþþþþþþþþþþþþþþþþþþþþþþþþþþþþþþþþþþþþþþþþþþþþþþÜ
                                   34477              Ÿ                                                                     Ÿ
                                   34478              Ÿ                                                                     Ÿ
                                   34479              Ÿ  BADPRETN - UNABLE TO RETURN PARM                                   Ÿ
                                   34480              Ÿ                                                                     Ÿ
                                   34481              Ÿ  ON ENTRY:                                                          Ÿ
                                   34482              Ÿ       @R1 - VALUE                                                   Ÿ
                                   34483              Ÿ       @R3 - NAME OF VARIABLE ATTEMPTED TO RETURN                    Ÿ
                                   34484              Ÿ                                                                     Ÿ
                                   34485              Ÿ                                                                     Ÿ
                                                      ¾þþþþþþþþþþþþþþþþþþþþþþþþþþþþþþþþþþþþþþþþþþþþþþþþþþþþþþþþþþþþþþþþþþþþþ»
0000000                00000 00150 34486              BPRWA    RECORD BEGIN
 000000                            34494  1           BPRVAR     DS    XL(L'VPARM)
 000150                00150 00150 34495                       END
                                   34504              *
                                   34505              *
 005D78 50E0 D000/9008_      00000 34506              BADPRETN PROC  BPRWA
 USING  *,R7
 USING  BPRWA-(4+36),R8
 005D92 4100 8028            00000 34556                       LA    R0,BPRVAR
 005D96 1841                       34557                       LR    R4,R1
 005D98 4110 0150            00150 34558                       LA    R1,L'VPARM
 005D9C 1851                       34559                       LR    R5,R1
 005D9E 0E04                       34560                       MVCL  R0,R4               COPY VALUE
 005DA0 4100 8028            00000 34561                       LA    R0,BPRVAR
 005DA4 4110 0020            00020 34562                       LA    R1,L'VNDESC
 005DA8 1843                       34563                       LR    R4,R3
 005DAA 1851                       34564                       LR    R5,R1
 005DAC 0E04                       34565                       MVCL  R0,R4               COPY NAME
 005DAE D603 B05C B05C_0005C 0005C 34566                       TCCR
 005DCE 4110 7637/4100_      063C9 34628                       TSEG  'Unable to return parameter:  '
 005DE0 4120 8028            00000 34646                       LA    R2,BPRVAR
 005DE4 58E0 75B6/0DEE       06348 34647                       VCALL SEGVAR
 005DEA 18D8/9808 D004_            34651                       PEND  ,
 DROP   BPRWA-(4+36),R8
 DROP   *,R7
1XCALL    (XCAL2025) (13:01) (15MAR04) Error Routines                                                                       Page  177
0Current Usings:  (CP,R11) (CV,R12)
0Loc    Object Code    Addr1 Addr2  Stmt Lv Lineno    Source Statement           (Hibal 5, Asmedit 3.3)  HLASM R4.0  2004/03/15 13.01
+___    ______ ____    _____ _____  ____ __ ______    ______ _________
0                                  34677              ¿þþþþþþþþþþþþþþþþþþþþþþþþþþþþþþþþþþþþþþþþþþþþþþþþþþþþþþþþþþþþþþþþþþþþþÜ
                                   34678              Ÿ                                                                     Ÿ
                                   34679              Ÿ                                                                     Ÿ
                                   34680              Ÿ  BADSYSP - UNABLE TO RETURN SYSTEM PARM                             Ÿ
                                   34681              Ÿ                                                                     Ÿ
                                   34682              Ÿ  ON ENTRY:                                                          Ÿ
                                   34683              Ÿ       @R1 - VALUE                                                   Ÿ
                                   34684              Ÿ       @R3 - NUMBER OF PARMAMETER ATTEMPTED TO RETURN                Ÿ
                                   34685              Ÿ                                                                     Ÿ
                                   34686              Ÿ                                                                     Ÿ
                                                      ¾þþþþþþþþþþþþþþþþþþþþþþþþþþþþþþþþþþþþþþþþþþþþþþþþþþþþþþþþþþþþþþþþþþþþþ»
0000000                00000 00150 34687              BSPWA    RECORD BEGIN
 000000                            34695  1           BSPVAR     DS    XL(L'VPARM)
 000150                00150 00150 34696                       END
                                   34705              *
                                   34706              *
 005DF8 50E0 D000/9008_      00000 34707              BADSYSP  PROC  BSPWA
 USING  *,R7
 USING  BSPWA-(4+36),R8
 005E12 4100 8028            00000 34757                       LA    R0,BSPVAR
 005E16 1841                       34758                       LR    R4,R1
 005E18 4110 0150            00150 34759                       LA    R1,L'VPARM
 005E1C 1851                       34760                       LR    R5,R1
 005E1E 0E04                       34761                       MVCL  R0,R4               COPY VALUE
 005E20 D603 B05C B05C_0005C 0005C 34762                       TCCR
 005E40 4110 75D4/4100_      063E6 34824                       TSEG  'Unable to return parameter: RETURN_PARM'
 005E52 1813/1B00/41F0_            34842                       TNUM  (R3)
 005E60 4110 75FB/4100_      0640D 34864                       TSEG  ' = '
 005E72 4120 8028            00000 34882                       LA    R2,BSPVAR
 005E76 58E0 753A/0DEE       0634C 34883                       VCALL SEGVALUE
 005E7C 18D8/9808 D004_            34887                       PEND  ,
 DROP   BSPWA-(4+36),R8
 DROP   *,R7
1XCALL    (XCAL2025) (13:01) (15MAR04) Common Routines                                                                      Page  178
0Current Usings:  (CP,R11) (CV,R12)
0Loc    Object Code    Addr1 Addr2  Stmt Lv Lineno    Source Statement           (Hibal 5, Asmedit 3.3)  HLASM R4.0  2004/03/15 13.01
+___    ______ ____    _____ _____  ____ __ ______    ______ _________
0                                  34913              ¿þþþþþþþþþþþþþþþþþþþþþþþþþþþþþþþþþþþþþþþþþþþþþþþþþþþþþþþþþþþþþþþþþþþþþÜ
                                   34914              Ÿ                                                                     Ÿ
                                   34915              Ÿ                                                                     Ÿ
                                   34916              Ÿ  SETXNAME - SET XFXNAME                                             Ÿ
                                   34917              Ÿ                                                                     Ÿ
                                   34918              Ÿ  ON ENTRY:                                                          Ÿ
                                   34919              Ÿ       FFINFO (CPFINFOP) DSECT CONTAINS FULL NAME IN FFRNAME         Ÿ
                                   34920              Ÿ       @R1 - XDSNAME DSECT AREA                                      Ÿ
                                   34921              Ÿ                                                                     Ÿ
                                   34922              Ÿ  ON EXIT:                                                           Ÿ
                                   34923              Ÿ       R15 - CC=ZERO                                                 Ÿ
                                   34924              Ÿ                                                                     Ÿ
                                   34925              Ÿ  THIS ROUTINE EXISTS JUST TO INSURE THAT XDSNAME DSECT IS SET       Ÿ
                                   34926              Ÿ  CONSISTENTLY,  ALL BYTES ARE BLANKED, NOT ZEROED.  SEE XDSNAME     Ÿ
                                   34927              Ÿ  DSECT FOR DETAILS.                                                 Ÿ
                                   34928              Ÿ                                                                     Ÿ
                                   34929              Ÿ                                                                     Ÿ
                                                      ¾þþþþþþþþþþþþþþþþþþþþþþþþþþþþþþþþþþþþþþþþþþþþþþþþþþþþþþþþþþþþþþþþþþþþþ»
0005E8A 50E0 D000/9008_      00000 34930              SETXNAME XPROC ,
 USING  *,R7
                                   34970
 005EA4 5860 BE54            00E54 34971                       L     R6,CPFINFOP
 005EA8 1266/4770 700C_            34972                       IF    (R6,Z),' BOMB '
 USING  FFINFO,R6                  34993                       USING FFINFO,R6
 005EB0 1851                       35002                       LR    R5,R1
 USING  XDSNAME,R5                 35003                       USING XDSNAME,R5
                                   35012
                                   35013                       COMMENT                   CHECK NAME FOR LENGTH
 005EB2 D503 74AC 6214_06350 00214 35014                       IF    (FFRNAMEL,GT,L'XNAME),BEGIN
 005EBC 4110 756C/4100_      06410 35031  1                      ERROR 'Exec file name too long. '
 005EC8                            35038                       END
 005EC8 D23F 5000 C4D8 00000 004D8 35042                       MVC   XDSNAME,CVBLANKS
 005ECE 5830 6214            00214 35043                       L     R3,FFRNAMEL
 005ED2 0630/1233/4740_            35044                       MOVE  R3,XNAME,FFRNAME
                                   35082
 005EDE 1BFF                       35083                       CLEAR R15
 005EE0 18D8/9808 D004_            35087                       PEND  ,
 DROP   *,R7
 DROP   FFINFO,R6                  35107                       DROP  R6
 DROP   XDSNAME,R5                 35114                       DROP  R5
1XCALL    (XCAL2025) (13:01) (15MAR04) Common Routines                                                                      Page  179
0Current Usings:  (CP,R11) (CV,R12)
0Loc    Object Code    Addr1 Addr2  Stmt Lv Lineno    Source Statement           (Hibal 5, Asmedit 3.3)  HLASM R4.0  2004/03/15 13.01
+___    ______ ____    _____ _____  ____ __ ______    ______ _________
0                                  35122              ¿þþþþþþþþþþþþþþþþþþþþþþþþþþþþþþþþþþþþþþþþþþþþþþþþþþþþþþþþþþþþþþþþþþþþþÜ
                                   35123              Ÿ                                                                     Ÿ
                                   35124              Ÿ                                                                     Ÿ
                                   35125              Ÿ  MRKNAME - MARK NAME WITH UNIQUE TAG FOR PUBLOAD, RELOAD            Ÿ
                                   35126              Ÿ                                                                     Ÿ
                                   35127              Ÿ  ON ENTRY:                                                          Ÿ
                                   35128              Ÿ       @R2 - XFENTRY                                                 Ÿ
                                   35129              Ÿ                                                                     Ÿ
                                   35130              Ÿ  ON EXIT:                                                           Ÿ
                                   35131              Ÿ       R15 - CC=ZERO                                                 Ÿ
                                   35132              Ÿ                                                                     Ÿ
                                   35133              Ÿ  EXPLANATION:  IF WE RELOAD A PUB EXEC WE NEED TO CHANGE THE        Ÿ
                                   35134              Ÿ  NAME OF THE OLD EXEC.  THIS WAY IT WILL STILL BE THERE FOR         Ÿ
                                   35135              Ÿ  PEOPLE WHO HAVE POINTERS TO IT.  AND NEW CALLERS CAN GET THE       Ÿ
                                   35136              Ÿ  NEW VERSION.  WE MARK THE NAME WITH THE SET # OF THE EXEC,         Ÿ
                                   35137              Ÿ  THIS NUMBER CREATES A UNIQUE NAME FOR EACH RELOADED EXEC,          Ÿ
                                   35138              Ÿ  ALSO IT PLACED IN SUCH A LOCATION AS TO NOT BE PRINTED OUT         Ÿ
                                   35139              Ÿ  BY THE SEGXDSN ROUTINE.                                            Ÿ
                                   35140              Ÿ                                                                     Ÿ
                                   35141              Ÿ                                                                     Ÿ
                                                      ¾þþþþþþþþþþþþþþþþþþþþþþþþþþþþþþþþþþþþþþþþþþþþþþþþþþþþþþþþþþþþþþþþþþþþþ»
0005EEE 50E0 D000/9008_      00000 35142              MRKNAME  XPROC ,
 USING  *,R7
 USING  XFENTRY,R6                 35182                       USING XFENTRY,R6
 USING  XDSNAME,R5                 35191                       USING XDSNAME,R5
 005F08 1862                       35200                       LR    R6,R2
 005F0A 4150 6000            00000 35201                       LA    R5,XFNAME
                                   35202
                                   35203                       COMMENT                   MARK NAME WITH EXEC SET# IN HEX
 005F0E 5810 6044            00044 35204                       L     R1,XF#SETNO
 005F12 5010 503C            0003C 35205                       ST    R1,XMRK
                                   35206
 005F16 1BFF                       35207                       CLEAR R15
 005F18 18D8/9808 D004_            35211                       PEND  ,
 DROP   *,R7
 DROP   XFENTRY,R6                 35231                       DROP  R6
 DROP   XDSNAME,R5                 35238                       DROP  R5
1XCALL    (XCAL2025) (13:01) (15MAR04) Common Routines                                                                      Page  180
0Current Usings:  (CP,R11) (CV,R12)
0Loc    Object Code    Addr1 Addr2  Stmt Lv Lineno    Source Statement           (Hibal 5, Asmedit 3.3)  HLASM R4.0  2004/03/15 13.01
+___    ______ ____    _____ _____  ____ __ ______    ______ _________
0                                  35246              ¿þþþþþþþþþþþþþþþþþþþþþþþþþþþþþþþþþþþþþþþþþþþþþþþþþþþþþþþþþþþþþþþþþþþþþÜ
                                   35247              Ÿ                                                                     Ÿ
                                   35248              Ÿ                                                                     Ÿ
                                   35249              Ÿ  RSETNAME - CLEAR MARK USED FOR PUBLOAD TO MAKE NAME TEMP           Ÿ
                                   35250              Ÿ                                                                     Ÿ
                                   35251              Ÿ  ON ENTRY:                                                          Ÿ
                                   35252              Ÿ       @R2 - XFENTRY                                                 Ÿ
                                   35253              Ÿ                                                                     Ÿ
                                   35254              Ÿ  ON EXIT:                                                           Ÿ
                                   35255              Ÿ       R15 - CC=ZERO                                                 Ÿ
                                   35256              Ÿ                                                                     Ÿ
                                   35257              Ÿ                                                                     Ÿ
                                                      ¾þþþþþþþþþþþþþþþþþþþþþþþþþþþþþþþþþþþþþþþþþþþþþþþþþþþþþþþþþþþþþþþþþþþþþ»
0005F26 50E0 D000/9008_      00000 35258              RSETNAME XPROC ,
 USING  *,R7
 USING  XFENTRY,R6                 35298                       USING XFENTRY,R6
 USING  XDSNAME,R5                 35307                       USING XDSNAME,R5
 005F40 1862                       35316                       LR    R6,R2
 005F42 4150 6000            00000 35317                       LA    R5,XFNAME
                                   35318
                                   35319                       COMMENT                   CLEAR MARK WITH BLANKS
 005F46 D203 503C C4D8 0003C 004D8 35320                       MVC   XMRK,CVBLANKS
                                   35321
 005F4C 1BFF                       35322                       CLEAR R15
 005F4E 18D8/9808 D004_            35326                       PEND  ,
 DROP   *,R7
 DROP   XFENTRY,R6                 35346                       DROP  R6
 DROP   XDSNAME,R5                 35353                       DROP  R5
1XCALL    (XCAL2025) (13:01) (15MAR04) SEG EXEC Info                                                                        Page  181
0Current Usings:  (CP,R11) (CV,R12)
0Loc    Object Code    Addr1 Addr2  Stmt Lv Lineno    Source Statement           (Hibal 5, Asmedit 3.3)  HLASM R4.0  2004/03/15 13.01
+___    ______ ____    _____ _____  ____ __ ______    ______ _________
0                                  35361              ¿þþþþþþþþþþþþþþþþþþþþþþþþþþþþþþþþþþþþþþþþþþþþþþþþþþþþþþþþþþþþþþþþþþþþþÜ
                                   35362              Ÿ                                                                     Ÿ
                                   35363              Ÿ                                                                     Ÿ
                                   35364              Ÿ  SEGXLINE - OUTPUT EXEC LINE                                        Ÿ
                                   35365              Ÿ                                                                     Ÿ
                                   35366              Ÿ  ON ENTRY:                                                          Ÿ
                                   35367              Ÿ       R0 - EXEC SET NUMBER                                          Ÿ
                                   35368              Ÿ      @R1 - EXEC RGROUP INFO                                         Ÿ
                                   35369              Ÿ      @R2 - EXEC LINE NUMBER                                         Ÿ
                                   35370              Ÿ                                                                     Ÿ
                                   35371              Ÿ                                                                     Ÿ
                                                      ¾þþþþþþþþþþþþþþþþþþþþþþþþþþþþþþþþþþþþþþþþþþþþþþþþþþþþþþþþþþþþþþþþþþþþþ»
0000000                00000 000EF 35372              SGLNWA   RECORD BEGIN
 000000                            35380  1           SGLNLEN    DS    F                   EXEC LINE LENGTH
                                   35381  1           SGLNLINE   DS    XL(&LINESZ)         EXEC LINE TEXT
 000004                                   1          +SGLNLINE   DS    XL(235)             EXEC LINE TEXT
 0000EF                000EF 000EF 35382                       END
                                   35391              *
                                   35392              *
 005F5C 50E0 D000/9008_      00000 35393              SEGXLINE XPROC SGLNWA
 USING  *,R7
 USING  SGLNWA-(4+36),R8
                                   35444
                                   35445                       COMMENT                   PUT CR IF NEEDED
 005F76 9001 D000/41D0_      00000 35446                       XPUSH R0,R1
 005F7E D603 B05C B05C_0005C 0005C 35449                       TCCR
 005F9E 4BD0 7434/9801_      063AA 35511                       XPOP  R0,R1
                                   35514
                                   35515                       COMMENT                   GET EXEC LINE
                                   35516              *$       LR    R15,R1              MAYBE SOMEDAY NEED EXEC POINTER
                                   35517                       COMMENT R0-EXEC SET#
 005FA6 4110 802C            00004 35518                       LA    R1,SGLNLINE
                                   35519                       COMMENT @R2-LINENO
 005FAA 58E0 73DE/0DEE       06354 35520                       VCALL EXSPGET
 005FB0 4770 7084            05FFA 35524                       BNZ   SGLNDONE            IF LINE DOES NOT EXIST, CC=NZ
 005FB4 5000 8028            00000 35525                       ST    R0,SGLNLEN
                                   35526
                                   35527                       COMMENT                   SEG LINE NUMBER, LINE TEXT
 005FB8 5802 0000            00000 35528                       L     R0,0(R2)
 005FBC 58E0 73E2/0DEE       06358 35529                       VCALL CVEXNO
 005FC2 4110 BC88/4100_      00C88 35533                       TSEG  CPDOUB,9
 005FD4 4110 74B3/4100_      06429 35563                       TSEG  ' '
 005FE6 5800 8028            00000 35581                       L     R0,SGLNLEN
 005FEA 4110 802C            00004 35582                       LA    R1,SGLNLINE
 005FEE 41F0 B050/58E0_      00050 35583                       TSEG  (R1),(R0),CR
 005FF8 1BFF                       35607                       CLEAR R15
                                   35611
 005FFA                            35612              SGLNDONE LABEL ,
 005FFA 18D8/9808 D004_            35614                       PEND  ,
 DROP   SGLNWA-(4+36),R8
 DROP   *,R7
1XCALL    (XCAL2025) (13:01) (15MAR04) SEG EXEC Info                                                                        Page  182
0Current Usings:  (CP,R11) (CV,R12)
0Loc    Object Code    Addr1 Addr2  Stmt Lv Lineno    Source Statement           (Hibal 5, Asmedit 3.3)  HLASM R4.0  2004/03/15 13.01
+___    ______ ____    _____ _____  ____ __ ______    ______ _________
0                                  35640              ¿þþþþþþþþþþþþþþþþþþþþþþþþþþþþþþþþþþþþþþþþþþþþþþþþþþþþþþþþþþþþþþþþþþþþþÜ
                                   35641              Ÿ                                                                     Ÿ
                                   35642              Ÿ                                                                     Ÿ
                                   35643              Ÿ  SEGXLNO - OUTPUT EXEC LINE NUMBER AND EXEC FILE                    Ÿ
                                   35644              Ÿ                                                                     Ÿ
                                   35645              Ÿ  ON ENTRY:                                                          Ÿ
                                   35646              Ÿ       R0 - EXEC SET NUMBER                                          Ÿ
                                   35647              Ÿ      @R1 - EXEC RGROUP INFO                                         Ÿ
                                   35648              Ÿ      @R2 - EXEC LINE NUMBER                                         Ÿ
                                   35649              Ÿ                                                                     Ÿ
                                   35650              Ÿ  NOTE: WE DO NOT CHECK TO SEE IF LINE EXISTS.                       Ÿ
                                   35651              Ÿ                                                                     Ÿ
                                   35652              Ÿ                                                                     Ÿ
                                                      ¾þþþþþþþþþþþþþþþþþþþþþþþþþþþþþþþþþþþþþþþþþþþþþþþþþþþþþþþþþþþþþþþþþþþþþ»
0000000                00000 000F7 35653              SGXLWA   RECORD BEGIN
 000000                            35661  1           SGXLSET    DS    F                   EXEC SET NUMBER
 000004                            35662  1           SGXLRG     DS    F                   EXEC RGROUP NUMBER
 000008                            35663  1           SGXLLPTR   DS    F                   EXEC LINE NUMBER POINTER
                                   35664  1           SGXLLINE   DS    XL(&LINESZ)         EXEC LINE TEXT AREA
 00000C                                   1          +SGXLLINE   DS    XL(235)             EXEC LINE TEXT AREA
 0000F7                000F7 000F7 35665                       END
                                   35674              *
                                   35675              *
 006008 50E0 D000/9008_      00000 35676              SEGXLNO  XPROC SGXLWA
 USING  *,R7
 USING  SGXLWA-(4+36),R8
 006022 5000 8028            00000 35727                       ST    R0,SGXLSET
 006026 5010 802C            00004 35728                       ST    R1,SGXLRG
 00602A 5020 8030            00008 35729                       ST    R2,SGXLLPTR
                                   35730
                                   35731                       COMMENT                   IF VALID LINE NUMBER, SEG IT
 00602E 5802 0000            00000 35732                       L     R0,0(R2)            R0 - LINE NUMBER
 006032 1200/4740 702E_            35733                       IF    ((R0,NL),AND,(R0,LT,CVMAXLNO)),BEGIN
 006040 58E0 7336/0DEE       06358 35763  1                      VCALL CVEXNO
 006046 41F0 B050/58E0_      00050 35767  1                      TSEG  (R1),(R0)
 006050                            35791                       END
                                   35795
                                   35796                       COMMENT                   IF LINE DOES NOT EXIST, SEG ###
 006050 7032/7032/47F0_06050 06036 35797                       ELSE  BEGIN
 006054 4110 738A/4100_      063AC 35810  1                      TSEG  '######'
 006066                            35828                       END
                                   35832
                                   35833                       COMMENT                   SEG EXEC NAME
                                   35834
                                   35835                       COMMENT                   HANDLE SPECIAL CASES
 006066 5800 8028            00000 35836                       L     R0,SGXLSET
 00606A 5810 802C            00004 35837                       L     R1,SGXLRG
 00606E 4120 B4A4            004A4 35838                       LA    R2,CPEXEC
 006072 5900 733A/4770_      0635C 35839                       IF    ((R0,EQ,CP#XACT),AND,(R1,EQ,R2)),BEGIN    IF ACTIVE,
 006080 4110 7408/4100_      0642A 35870  1                      TSEG  ' of EXEC: (ACTIVE file)'
 006092                            35888                       END
 006092 7074/7074/47F0_06092 06078 35892                       ELSEIF ((R0,EQ,CP#XTEMP),AND,(R1,EQ,R2)),BEGIN  IF TEMP,
 0060A4                            35934                       END
1XCALL    (XCAL2025) (13:01) (15MAR04) SEG EXEC Info                                                                        Page  183
0Current Usings:  (*,R7) (SGXLWA-(4+36),R8) (CP,R11) (CV,R12)
0Loc    Object Code    Addr1 Addr2  Stmt Lv Lineno    Source Statement           (Hibal 5, Asmedit 3.3)  HLASM R4.0  2004/03/15 13.01
+___    ______ ____    _____ _____  ____ __ ______    ______ _________
0                                  35938
                                   35939                       COMMENT                   OTHERWISE SEG FILE NAME...
 0060A4 7086/7086/47F0_060A4 0609C 35940                       ELSE  BEGIN ,
 0060A8 4110 7390/4100_      063B2 35953  1                      TSEG  ' of EXEC: '
 0060BA 5800 8028            00000 35971  1                      L     R0,SGXLSET
 0060BE 5810 802C            00004 35972  1                      L     R1,SGXLRG
 0060C2 58E0 7342/0DEE       06364 35973  1                      ACALL SEGXNAME
 0060C8                            35977                       END
                                   35981
 0060C8 1BFF                       35982                       CLEAR R15
 0060CA 18D8/9808 D004_            35986                       PEND  ,
 DROP   SGXLWA-(4+36),R8
 DROP   *,R7
1XCALL    (XCAL2025) (13:01) (15MAR04) SEG EXEC Info                                                                        Page  184
0Current Usings:  (CP,R11) (CV,R12)
0Loc    Object Code    Addr1 Addr2  Stmt Lv Lineno    Source Statement           (Hibal 5, Asmedit 3.3)  HLASM R4.0  2004/03/15 13.01
+___    ______ ____    _____ _____  ____ __ ______    ______ _________
0                                  36012              ¿þþþþþþþþþþþþþþþþþþþþþþþþþþþþþþþþþþþþþþþþþþþþþþþþþþþþþþþþþþþþþþþþþþþþþÜ
                                   36013              Ÿ                                                                     Ÿ
                                   36014              Ÿ                                                                     Ÿ
                                   36015              Ÿ  SEGXNAME - OUTPUT EXEC FILE NAME                                   Ÿ
                                   36016              Ÿ                                                                     Ÿ
                                   36017              Ÿ  ON ENTRY:                                                          Ÿ
                                   36018              Ÿ       R0 - EXEC SET NUMBER                                          Ÿ
                                   36019              Ÿ      @R1 - EXEC RGROUP INFO                                         Ÿ
                                   36020              Ÿ                                                                     Ÿ
                                   36021              Ÿ                                                                     Ÿ
                                                      ¾þþþþþþþþþþþþþþþþþþþþþþþþþþþþþþþþþþþþþþþþþþþþþþþþþþþþþþþþþþþþþþþþþþþþþ»
0000000                00000 000A0 36022              SXNWA    RECORD BEGIN
 000000                            36030  1           SXNXF      DS    XL(L'XFENTRY)       EXEC INFO DSECT
 000060                            36031  1           SXNXNAME   DS    XL(L'XDSNAME)       DSN NAME WORK AREA
 0000A0                000A0 000A0 36032                       END
                                   36041              *
                                   36042              *
 0060D8 50E0 D000/9008_      00000 36043              SEGXNAME XPROC SXNWA
 USING  *,R7
 USING  SXNWA-(4+36),R8
 USING  XFENTRY,R6                 36094                       USING XFENTRY,R6
 0060F2 4160 8028            00000 36103                       LA    R6,SXNXF
                                   36104
                                   36105                       COMMENT                   MUST DEAL WITH ACTIVE,TEMP,,,ETC.
 0060F6 4120 B4A4            004A4 36106                       LA    R2,CPEXEC
                                   36107
                                   36108                       COMMENT                   IF OLD EXEC
 0060FA 5900 7276/4770_      06368 36109                       IF    ((R0,EQ,CP#XOLD),AND,(R1,EQ,R2)),BEGIN
 006108 4100 0040            00040 36140  1                      LA    R0,L'SXNXNAME
 00610C 4110 8088            00060 36141  1                      LA    R1,SXNXNAME
 006110 4120 722E            06320 36142  1                      LA    R2,=CL16'SYS.EXECNAME    '
 006114 58E0 727A/0DEE       0636C 36143  1                      VCALL GETDATA
 00611A 4780 702E            06120 36147  1                      IF    NZ,BEGIN
 00611E 0000                       36158  2                        BOMB
 006120                            36160  1                      END
 006120 4110 8088            00060 36164  1                      LA    R1,SXNXNAME
 006124 D50C 734F 1000_06441 00000 36165  1                      IF    (@R1,EQ,'(ACTIVE file)'),BEGIN
 00612E 4110 734F/4100_      06441 36181  2                        TSEG  '(ACTIVE file)'
 006140                            36199  1                      END
 006140 7052/47F0 7058 06140 0612C 36203  1                      ELSE  BEGIN
 006144 58E0 727E/0DEE       06370 36214  2                        ACALL SEGXDSN
 00614A                            36218  1                      END
 00614A                            36222                       END
                                   36226
                                   36227                       COMMENT                   IF XCALLED ACTIVE/TEMP
 00614A 705C/705C/47F0_0614A 06100 36228                       ELSEIF ((R0,EQ,CP#XACT),AND,(R1,EQ,R2)),BEGIN
 00615C 4110 734F/4100_      06441 36270  1                      TSEG  '(ACTIVE file)'
 00616E                            36288                       END
 00616E 7080/7080/47F0_0616E 06154 36292                       ELSEIF ((R0,EQ,CP#XTEMP),AND,(R1,EQ,R2)),BEGIN
 006180 4110 735C/4100_      0644E 36334  1                      TSEG  '(....) '           SHOULD NEVER, REPLACE WITH BOMB!
 006192                            36352                       END
                                   36356
                                   36357                       COMMENT                   IF XCALLED <FILENAME>
1XCALL    (XCAL2025) (13:01) (15MAR04) SEG EXEC Info                                                                        Page  185
0Current Usings:  (XFENTRY,R6) (*,R7) (SXNWA-(4+36),R8) (CP,R11) (CV,R12)
0Loc    Object Code    Addr1 Addr2  Stmt Lv Lineno    Source Statement           (Hibal 5, Asmedit 3.3)  HLASM R4.0  2004/03/15 13.01
+___    ______ ____    _____ _____  ____ __ ______    ______ _________
0006192 70A4/70A4/47F0_06192 06178 36358                       ELSE  BEGIN ,,
                                   36371  1                      COMMENT                   HANDLE STADARD DSN NAME,
                                   36372  1                      COMMENT                   GET XINFO (CONTAINS DSN NAME)
 006196 4120 6000            00000 36373  1                      LA    R2,XFENTRY
 00619A 58E0 7282/0DEE       06374 36374  1                      ACALL GETXINFO
 0061A0 4780 70B4            061A6 36378  1                      IF    NZ,BEGIN
 0061A4 0000                       36389  2                        BOMB
 0061A6                            36391  1                      END
 0061A6 4110 6000            00000 36395  1                      LA    R1,XFNAME
 0061AA 58E0 727E/0DEE       06370 36396  1                      ACALL SEGXDSN
 0061B0                            36400                       END
                                   36404
 0061B0 1BFF                       36405                       CLEAR R15
 0061B2 18D8/9808 D004_            36409                       PEND  ,
 DROP   SXNWA-(4+36),R8
 DROP   *,R7
 DROP   XFENTRY,R6                 36434                       DROP  R6
1XCALL    (XCAL2025) (13:01) (15MAR04) SEG EXEC Info                                                                        Page  186
0Current Usings:  (CP,R11) (CV,R12)
0Loc    Object Code    Addr1 Addr2  Stmt Lv Lineno    Source Statement           (Hibal 5, Asmedit 3.3)  HLASM R4.0  2004/03/15 13.01
+___    ______ ____    _____ _____  ____ __ ______    ______ _________
0                                  36442              ¿þþþþþþþþþþþþþþþþþþþþþþþþþþþþþþþþþþþþþþþþþþþþþþþþþþþþþþþþþþþþþþþþþþþþþÜ
                                   36443              Ÿ                                                                     Ÿ
                                   36444              Ÿ                                                                     Ÿ
                                   36445              Ÿ  SEGXDSN - SEG DSN NAME                                             Ÿ
                                   36446              Ÿ                                                                     Ÿ
                                   36447              Ÿ  ON ENTRY:                                                          Ÿ
                                   36448              Ÿ      @R1 - DSN IN XDSNAME DSECT FORMAT                              Ÿ
                                   36449              Ÿ                                                                     Ÿ
                                   36450              Ÿ                                                                     Ÿ
                                   36451              Ÿ                                                                     Ÿ
                                                      ¾þþþþþþþþþþþþþþþþþþþþþþþþþþþþþþþþþþþþþþþþþþþþþþþþþþþþþþþþþþþþþþþþþþþþþ»
00061C0 50E0 D000/9008_      00000 36452              SEGXDSN  XPROC ,
 USING  *,R7
 USING  XDSNAME,R2                 36492                       USING XDSNAME,R2
 0061DA 1821                       36501                       LR    R2,R1               R2 - DSN NAME
                                   36502
                                   36503                       COMMENT                   FILE NAME
 0061DC 4110 2000/4100_      00000 36504                       SETMSG XNAME
 0061E4 58E0 719E/0DEE       06378 36518                       VCALL RTRIM               R1,R0 - LOC,LEN OF FILE NAME
 0061EA 58E0 71A2/0DEE       0637C 36522                       VCALL RETFNAME
                                   36526            C          IF    ((R0,GE,11),AND,(@R1,EQ,'WYL.'),AND,
                                                    C                (@R1+6,EQ,'.'),AND,(@R1+10,EQ,'.'),AND,
 0061F0 5900 71A6/4750_      06380                                   (CPSGRP,EQ,@R1+4),AND,(CPSUSER,EQ,@R1+7)),BEGIN
 006226 4110 100B            0000B 36612  1                      LA    R1,@R1+11           Skip past the standard prefix
 00622A 4B00 71E2            063BC 36613  1                      SH    R0,=H'11'
 00622E                            36614                       END
 00622E 41F0 B050/58E0_      00050 36618                       TSEG  (R1),(R0)
                                   36642
                                   36643                       COMMENT                   #MEMBER, IF ANY
 006238 4110 2000/4100_      00000 36644                       SETMSG XNAME
 006240 58E0 719E/0DEE       06378 36658                       VCALL RTRIM
 006246 58E0 71AE/0DEE       06388 36662                       VCALL RETFMEM
 00624C 1200/47D0 70A4             36666                       IF    (R0,POS),BEGIN
 006252 9001 D000/41D0_      00000 36680  1                      XPUSH R0,R1
 00625A 4110 727B/4100_      06455 36683  1                      TSEG  '#'
 00626C 4BD0 71D0/9801_      063AA 36701  1                      XPOP  R0,R1
 006274 41F0 B050/58E0_      00050 36704  1                      TSEG  (R1),(R0)
 00627E                            36728                       END
                                   36732
 00627E 1BFF                       36733                       CLEAR R15
 006280 18D8/9808 D004_            36737                       PEND  ,
 DROP   *,R7
 DROP   XDSNAME,R2                 36757                       DROP  R2
1XCALL    (XCAL2025) (13:01) (15MAR04) SEG EXEC Info                                                                        Page  187
0Current Usings:  (CP,R11) (CV,R12)
0Loc    Object Code    Addr1 Addr2  Stmt Lv Lineno    Source Statement           (Hibal 5, Asmedit 3.3)  HLASM R4.0  2004/03/15 13.01
+___    ______ ____    _____ _____  ____ __ ______    ______ _________
0                                  36765              ¿þþþþþþþþþþþþþþþþþþþþþþþþþþþþþþþþþþþþþþþþþþþþþþþþþþþþþþþþþþþþþþþþþþþþþÜ
                                   36766              Ÿ                                                                     Ÿ
                                   36767              Ÿ                                                                     Ÿ
                                   36768              Ÿ  SEGFDSN - SEG FULLY QUALIFIED DSN NAME                             Ÿ
                                   36769              Ÿ                                                                     Ÿ
                                   36770              Ÿ  ON ENTRY:                                                          Ÿ
                                   36771              Ÿ      @R1 - DSN IN XDSNAME DSECT FORMAT                              Ÿ
                                   36772              Ÿ                                                                     Ÿ
                                   36773              Ÿ                                                                     Ÿ
                                   36774              Ÿ                                                                     Ÿ
                                                      ¾þþþþþþþþþþþþþþþþþþþþþþþþþþþþþþþþþþþþþþþþþþþþþþþþþþþþþþþþþþþþþþþþþþþþþ»
000628E 50E0 D000/9008_      00000 36775              SEGFDSN  XPROC ,
 USING  *,R7
 USING  XDSNAME,R2                 36815                       USING XDSNAME,R2
 0062A8 1821                       36824                       LR    R2,R1               R2 - DSN NAME
                                   36825
                                   36826                       COMMENT                   FILE NAME
 0062AA 4110 2000/4100_      00000 36827                       SETMSG XNAME
 0062B2 58E0 70D0/0DEE       06378 36841                       VCALL RTRIM               R1,R0 - LOC,LEN OF FILE NAME
 0062B8 58E0 70D4/0DEE       0637C 36845                       VCALL RETFNAME
 0062BE 41F0 B050/58E0_      00050 36849                       TSEG  (R1),(R0)
                                   36873
                                   36874                       COMMENT                   #MEMBER, IF ANY
 0062C8 4110 2000/4100_      00000 36875                       SETMSG XNAME
 0062D0 58E0 70D0/0DEE       06378 36889                       VCALL RTRIM
 0062D6 58E0 70E0/0DEE       06388 36893                       VCALL RETFMEM
 0062DC 1200/47D0 7066             36897                       IF    (R0,POS),BEGIN
 0062E2 9001 D000/41D0_      00000 36911  1                      XPUSH R0,R1
 0062EA 4110 71AD/4100_      06455 36914  1                      TSEG  '#'
 0062FC 4BD0 7102/9801_      063AA 36932  1                      XPOP  R0,R1
 006304 41F0 B050/58E0_      00050 36935  1                      TSEG  (R1),(R0)
 00630E                            36959                       END
                                   36963
 00630E 1BFF                       36964                       CLEAR R15
 006310 18D8/9808 D004_            36968                       PEND  ,
 DROP   *,R7
 DROP   XDSNAME,R2                 36988                       DROP  R2
1XCALL    (XCAL2025) (13:01) (15MAR04) SEG EXEC Info                                                                        Page  188
0Current Usings:  (CP,R11) (CV,R12)
0Loc    Object Code    Addr1 Addr2  Stmt Lv Lineno    Source Statement           (Hibal 5, Asmedit 3.3)  HLASM R4.0  2004/03/15 13.01
+___    ______ ____    _____ _____  ____ __ ______    ______ _________
0                                  36996                       QLTORG
                                   37045                       VLTORG
 006490                06490 06490 37054                       END   .

1XCALL    (XCAL2025) (13:01) (15MAR04) Relocation Dictionary                                                                Page  189
-   Pos.Id   Rel.Id   Flags    Address                                                       HLASM R4.0  2004/03/15 13.01
0  00000001 00000001    0C    000003B0
   00000001 00000001    0C    000003B4
   00000001 00000001    0C    000003BC
   00000001 00000001    0C    000003D4
   00000001 00000001    0C    000003D8
   00000001 00000001    0C    000003DC
   00000001 00000001    0C    00000414
   00000001 00000001    0C    00000424
   00000001 00000001    0C    00000428
   00000001 00000001    0C    0000042C
   00000001 00000001    0C    00000434
   00000001 00000001    0C    00000438
   00000001 00000001    0C    0000044C
   00000001 00000001    0C    00000454
   00000001 00000001    0C    0000045C
   00000001 00000001    0C    00000750
   00000001 00000001    0C    00000778
   00000001 00000001    0C    000007A0
   00000001 00000001    0C    00000A2C
   00000001 00000001    0C    00000A54
   00000001 00000001    0C    00000A7C
   00000001 00000001    0C    00000AA4
   00000001 00000001    0C    00000ACC
   00000001 00000001    0C    00000AF4
   00000001 00000001    0C    00000B1C
   00000001 00000001    0C    00000FCC
   00000001 00000001    0C    00000FD0
   00000001 00000001    0C    00000FD4
   00000001 00000001    0C    00000FD8
   00000001 00000001    0C    00000FEC
   00000001 00000001    0C    00000FF0
   00000001 00000001    0C    00000FF4
   00000001 00000001    0C    00000FF8
   00000001 00000001    0C    00001008
   00000001 00000001    0C    0000100C
   00000001 00000001    0C    00001010
   00000001 00000001    0C    0000103C
   00000001 00000001    0C    000016C0
   00000001 00000001    0C    000016E8
   00000001 00000001    0C    00001710
   00000001 00000001    0C    00001738
   00000001 00000001    0C    00001760
   00000001 00000001    0C    00001788
   00000001 00000001    0C    000017B0
   00000001 00000001    0C    00001A18
   00000001 00000001    0C    00001A28
   00000001 00000001    0C    00001A2C
   00000001 00000001    0C    00001A34
   00000001 00000001    0C    00001A38
   00000001 00000001    0C    00001A44
   00000001 00000001    0C    00001A4C
   00000001 00000001    0C    00001A58
   00000001 00000001    0C    00001A5C
   00000001 00000001    0C    00001A60
   00000001 00000001    0C    00001A6C
1XCALL    (XCAL2025) (13:01) (15MAR04) Relocation Dictionary                                                                Page  190
   00000001 00000001    0C    00001A70
   00000001 00000001    0C    00001A7C
   00000001 00000001    0C    000024B8
   00000001 00000001    0C    000024C0
   00000001 00000001    0C    000024C4
   00000001 00000001    0C    000024C8
   00000001 00000001    0C    000024CC
   00000001 00000001    0C    000024D4
   00000001 00000001    0C    000024D8
   00000001 00000001    0C    000024DC
   00000001 00000001    0C    000024E0
   00000001 00000001    0C    000024E8
   00000001 00000001    0C    000024EC
   00000001 00000001    0C    000024F0
   00000001 00000001    0C    000024F4
   00000001 00000001    0C    000024FC
   00000001 00000001    0C    00002504
   00000001 00000001    0C    00002508
   00000001 00000001    0C    00002510
   00000001 00000001    0C    00002518
   00000001 00000001    0C    00002524
   00000001 00000001    0C    00002528
   00000001 00000001    0C    0000252C
   00000001 00000001    0C    00002530
   00000001 00000001    0C    00002540
   00000001 00000001    0C    00002550
   00000001 00000001    0C    00002558
   00000001 00000001    0C    000025A0
   00000001 00000001    0C    000025A4
   00000001 00000001    0C    000025A8
   00000001 00000001    0C    000028D4
   00000001 00000001    0C    00002AE0
   00000001 00000001    0C    00002B08
   00000001 00000001    0C    00002B30
   00000001 00000001    0C    00002CD4
   00000001 00000001    0C    00002CDC
   00000001 00000001    0C    00002D18
   00000001 00000001    08    0000314B
   00000001 00000001    08    00003183
   00000001 00000001    08    000031C7
   00000001 00000001    08    000031FF
   00000001 00000001    08    000033B5
   00000001 00000001    08    00003409
   00000001 00000001    08    0000345D
   00000001 00000001    08    00003499
   00000001 00000001    0C    00003644
   00000001 00000001    0C    0000364C
   00000001 00000001    0C    00003650
   00000001 00000001    0C    00003654
   00000001 00000001    0C    00003668
   00000001 00000001    0C    0000366C
   00000001 00000001    0C    00003684
   00000001 00000001    0C    00003B50
   00000001 00000001    0C    00003B54
   00000001 00000001    0C    00003B58
   00000001 00000001    0C    00003CE4
   00000001 00000001    0C    00003D0C
   00000001 00000001    0C    00003D5C
   00000001 00000001    0C    00003D84
1XCALL    (XCAL2025) (13:01) (15MAR04) Relocation Dictionary                                                                Page  191
   00000001 00000001    0C    00004084
   00000001 00000001    0C    00004310
   00000001 00000001    0C    00004338
   00000001 00000001    0C    00004388
   00000001 00000001    0C    000043B0
   00000001 00000001    0C    000043D8
   00000001 00000001    0C    00004570
   00000001 00000001    0C    00004574
   00000001 00000001    0C    00004580
   00000001 00000001    0C    00004594
   00000001 00000001    0C    000045B0
   00000001 00000001    0C    000045B4
   00000001 00000001    0C    00004D88
   00000001 00000001    0C    00004D90
   00000001 00000001    0C    00004D9C
   00000001 00000001    0C    00004DA8
   00000001 00000001    0C    000050E0
   00000001 00000001    0C    000055C8
   00000001 00000001    0C    000055CC
   00000001 00000001    0C    00006364
   00000001 00000001    0C    00006370
   00000001 00000001    0C    00006374
   00000001 00000002    1C    000003B8
   00000001 00000003    1C    000003C4
   00000001 00000004    1C    000003C8
   00000001 00000005    1C    000003CC
   00000001 00000006    1C    000003D0
   00000001 00000007    1C    0000041C
   00000001 00000007    1C    00001A20
   00000001 00000007    1C    00005580
   00000001 00000007    1C    00005CA0
   00000001 00000008    1C    00000420
   00000001 00000008    1C    00001A24
   00000001 00000009    1C    00000430
   00000001 0000000A    1C    0000043C
   00000001 0000000A    1C    00001A3C
   00000001 0000000B    1C    00000440
   00000001 0000000C    1C    00000444
   00000001 0000000D    1C    00000448
   00000001 0000000D    1C    00001A40
   00000001 0000000E    1C    00000450
   00000001 0000000E    1C    00001A48
   00000001 0000000F    1C    0000074C
   00000001 0000000F    1C    00000774
   00000001 0000000F    1C    00000A28
   00000001 0000000F    1C    00000A50
   00000001 0000000F    1C    00000AC8
   00000001 0000000F    1C    00000AF0
   00000001 0000000F    1C    000016BC
   00000001 0000000F    1C    000016E4
   00000001 0000000F    1C    0000175C
   00000001 0000000F    1C    00001784
   00000001 0000000F    1C    00002ADC
   00000001 0000000F    1C    00002B04
   00000001 0000000F    1C    00003CE0
   00000001 0000000F    1C    0000430C
   00000001 0000000F    1C    00004334
   00000001 0000000F    1C    00004384
   00000001 0000000F    1C    000043AC
1XCALL    (XCAL2025) (13:01) (15MAR04) Relocation Dictionary                                                                Page  192
   00000001 00000010    1C    0000079C
   00000001 00000010    1C    00000B40
   00000001 00000010    1C    000017D4
   00000001 00000010    1C    00002B54
   00000001 00000010    1C    00003D08
   00000001 00000010    1C    00003D58
   00000001 00000010    1C    00003D80
   00000001 00000010    1C    00004080
   00000001 00000010    1C    0000435C
   00000001 00000010    1C    000043D4
   00000001 00000011    1C    00000A78
   00000001 00000011    1C    00000AA0
   00000001 00000011    1C    00000B18
   00000001 00000011    1C    0000170C
   00000001 00000011    1C    00001734
   00000001 00000011    1C    000017AC
   00000001 00000012    1C    00000B44
   00000001 00000012    1C    000017D8
   00000001 00000012    1C    00002B58
   00000001 00000012    1C    00004360
   00000001 00000013    1C    00000FC4
   00000001 00000013    1C    00001A54
   00000001 00000014    1C    00000FC8
   00000001 00000014    1C    00002564
   00000001 00000014    1C    00004D7C
   00000001 00000015    1C    00000FDC
   00000001 00000015    1C    00001A64
   00000001 00000015    1C    00002D14
   00000001 00000016    1C    00000FE0
   00000001 00000016    1C    00001A68
   00000001 00000016    1C    000050D0
   00000001 00000017    1C    00000FE4
   00000001 00000018    1C    00000FE8
   00000001 00000019    1C    00000FFC
   00000001 00000019    1C    00001A74
   00000001 00000019    1C    00002CE0
   00000001 00000019    1C    00004568
   00000001 00000019    1C    00004D70
   00000001 0000001A    1C    00001000
   00000001 0000001A    1C    00001A78
   00000001 0000001A    1C    00002CE4
   00000001 0000001A    1C    0000456C
   00000001 0000001A    1C    00004D74
   00000001 0000001B    1C    00001014
   00000001 0000001B    1C    00001A08
   00000001 0000001B    1C    00002574
   00000001 0000001B    1C    000028C0
   00000001 0000001B    1C    00002CC8
   00000001 0000001B    1C    00004D98
   00000001 0000001B    1C    00006334
   00000001 0000001C    1C    00001018
   00000001 0000001C    1C    00001A80
   00000001 0000001C    1C    00003B5C
   00000001 0000001D    1C    0000101C
   00000001 0000001D    1C    00001A84
   00000001 0000001E    1C    00001028
   00000001 0000001E    1C    00001A90
   00000001 0000001E    1C    00004598
   00000001 0000001F    1C    0000102C
1XCALL    (XCAL2025) (13:01) (15MAR04) Relocation Dictionary                                                                Page  193
   00000001 0000001F    1C    00001A94
   00000001 0000001F    1C    0000256C
   00000001 0000001F    1C    000028D0
   00000001 0000001F    1C    00004590
   00000001 0000001F    1C    00004D94
   00000001 0000001F    1C    000050C8
   00000001 0000001F    1C    00006330
   00000001 00000020    1C    00001030
   00000001 00000021    1C    00001034
   00000001 00000021    1C    00002570
   00000001 00000021    1C    00006358
   00000001 00000022    1C    00001A0C
   00000001 00000022    1C    000024AC
   00000001 00000023    1C    00001A10
   00000001 00000024    1C    00001A14
   00000001 00000024    1C    000024B4
   00000001 00000025    1C    00001A30
   00000001 00000026    1C    000024B0
   00000001 00000027    1C    000024D0
   00000001 00000027    1C    00002CCC
   00000001 00000027    1C    00004D78
   00000001 00000028    1C    000024F8
   00000001 00000029    1C    00002500
   00000001 0000002A    1C    0000250C
   00000001 0000002B    1C    00002514
   00000001 0000002C    1C    00002534
   00000001 0000002C    1C    00002CD0
   00000001 0000002D    1C    00002538
   00000001 0000002D    1C    00003640
   00000001 0000002E    1C    00002548
   00000001 0000002F    1C    00002554
   00000001 00000030    1C    00002560
   00000001 00000030    1C    00006378
   00000001 00000031    1C    00002578
   00000001 00000031    1C    00002898
   00000001 00000031    1C    00003658
   00000001 00000032    1C    0000257C
   00000001 00000032    1C    00003660
   00000001 00000033    1C    000028C4
   00000001 00000034    1C    000028C8
   00000001 00000035    1C    000028CC
   00000001 00000036    1C    000028D8
   00000001 00000037    1C    00002B2C
   00000001 00000038    1C    00002CF4
   00000001 00000039    1C    0000365C
   00000001 0000003A    1C    00003664
   00000001 0000003B    1C    00003678
   00000001 0000003B    1C    00003B68
   00000001 0000003B    1C    0000636C
   00000001 0000003C    1C    00003D34
   00000001 0000003D    1C    00004578
   00000001 0000003E    1C    0000457C
   00000001 0000003F    1C    00004584
   00000001 00000040    1C    00004588
   00000001 00000041    1C    0000458C
   00000001 00000042    1C    000045B8
   00000001 00000043    1C    00004D8C
   00000001 00000043    1C    000050DC
   00000001 00000044    1C    00004DA0
1XCALL    (XCAL2025) (13:01) (15MAR04) Relocation Dictionary                                                                Page  194
   00000001 00000045    1C    000050C0
   00000001 00000046    1C    000050D8
   00000001 00000047    1C    000050E8
   00000001 00000048    1C    000050F8
   00000001 00000049    1C    00005584
   00000001 0000004A    1C    00005588
   00000001 0000004B    1C    0000558C
   00000001 0000004C    1C    00005590
   00000001 0000004D    1C    000055B8
   00000001 0000004E    1C    00005C98
   00000001 0000004F    1C    00005C9C
   00000001 00000050    1C    00005CAC
   00000001 00000051    1C    00006338
   00000001 00000052    1C    00006348
   00000001 00000053    1C    0000634C
   00000001 00000054    1C    00006354
   00000001 00000055    1C    0000637C
   00000001 00000056    1C    00006388

1XCALL    (XCAL2025) (13:01) (15MAR04) Ordinary Symbol and Literal Cross Reference                                          Page  195
-Symbol   Length   Value     Id    R Type   Defn References                                  HLASM R4.0  2004/03/15 13.01
0$$$@R0        1 00000000 FFFFFFFE     J     705  1007
 $$$@R10       1 00000000 FFFFFFF4     J     835  1071
 $$$@R11       1 00000000 FFFFFFF3     J     848  1084
 $$$@R12       1 00000000 FFFFFFF2     J     861  1097
 $$$@R13       1 00000000 FFFFFFF1     J     874  1110
 $$$@R14       1 00000000 FFFFFFF0     J     887  1123
 $$$@R7        1 00000000 FFFFFFF7     J     796  1020
 $$$@R8        1 00000000 FFFFFFF6     J     809  1033   1045
 $$$@R9        1 00000000 FFFFFFF5     J     822  1058
 $$$C1WYLXCALL
               1 0000048E 00000001     J    8671  8673   8720   9674   9856  10753  11398  11649
 $$$C10WYLXCALL
               1 00004E94 00000001     J   29490 29492
 $$$C11WYLXCALL
               1 00005145 00000001     J   30334 30336  30384  30627  31154  31517
 $$$C12WYLXCALL
               1 0000568D 00000001     J   31892 31894  33349  33740
 $$$C13WYLXCALL
               1 00005CBB 00000001     J   34194 34196  34502  34703  35076  35389  35672  36039
 $$$C14WYLXCALL
               1 0000645C 00000001     J   37040 37042
 $$$C15WYLXCALL
               1 00006490 00000001     J   37057 37059
 $$$C2WYLXCALL
               1 000010F0 00000001     J   11794 11796  11874  12212  12473  13027  13229  14102
 $$$C3WYLXCALL
               1 00001C18 00000001     J   14478 14480  14556  14794  14945  15125  15317  15721  16355  16393  16616
                                                 16931  17404
 $$$C4WYLXCALL
               1 000026BE 00000001     J   17756 17758  17786
 $$$C5WYLXCALL
               1 000028E2 00000001     J   18384 18386  18757  19448
 $$$C6WYLXCALL
               1 00002E18 00000001     J   19706 19708  20137  20619  21069  21490  22117
 $$$C7WYLXCALL
               1 00003688 00000001     J   22519 22521  22689  23815  23961  24245
 $$$C8WYLXCALL
               1 00003B78 00000001     J   24489 24491  24576  25318  25485  25652  25947  26093  26181
 $$$C9WYLXCALL
               1 00004600 00000001     J   27006 27008  28697
 $$$D0WYLXCALL
               1 00000481 00000001     J     992  7881   8549
 $$$D1WYLXCALL
               1 000010DD 00000001     J    8672  9845  10742  11638
 $$$D13WYLXCALL
               1 00006456 00000001     J   34195 35065
 $$$D2WYLXCALL
               1 00001C05 00000001     J   11795 12201  13218  14091
 $$$D3WYLXCALL
               1 000026B2 00000001     J   14479 14783  16920
 $$$D8WYLXCALL
               1 000045E1 00000001     J   24490 25307  25474  25936  26082  26170
 $$$RBPRWA
               1 00000000 FFFFFFB8     J   34488 34501  34501
 $$$RBSPWA
1XCALL    (XCAL2025) (13:01) (15MAR04) Ordinary Symbol and Literal Cross Reference                                          Page  196
               1 00000000 FFFFFFB7     J   34689 34702  34702
 $$$RCAWA      1 00000000 FFFFFFC4     J   23801 23814  23814
 $$$RCP        1 00000000 FFFFFFEC     J    2454  4714   6188   6188
 $$$RCV        1 00000000 FFFFFFEE     J    1179  2364   2364
 $$$RDEV       1 00000000 FFFFFFEB     J    4668  4713   4713
 $$$RDLXWA
               1 00000000 FFFFFFC8     J   21054 21068  21068
 $$$RFFINFO
               1 00000000 FFFFFFE8     J    6602  6811   6811
 $$$RGETXWA
               1 00000000 FFFFFFCA     J   20119 20136  20136
 $$$RGTPWA
               1 00000000 FFFFFFB9     J   33724 33739  33739
 $$$RGTXWA
               1 00000000 FFFFFFBA     J   33321 33348  33348
 $$$RGXNWA
               1 00000000 FFFFFFC6     J   22102 22116  22116
 $$$RJCB       1 00000000 FFFFFFE9     J    6306  6580   6580
 $$$RKAWA      1 00000000 FFFFFFC2     J   24231 24244  24244
 $$$RLDAWA
               1 00000000 FFFFFFCF     J   16602 16615  16615
 $$$RLDDWA
               1 00000000 FFFFFFD0     J   16379 16392  16392
 $$$RLDPWA
               1 00000000 FFFFFFD2     J   15706 15720  15720
 $$$RLDWA      1 00000000 FFFFFFD1     J   16339 16354  16354
 $$$RLOADWA
               1 00000000 FFFFFFD3     J   15303 15316  15316
 $$$RMAWA      1 00000000 FFFFFFC3     J   23947 23960  23960
 $$$RNLIST
               1 00000000 FFFFFFE2     J    7338  7351   7351
 $$$RNSCNCB
               1 00000000 FFFFFFED     J    2375  2448   2448
 $$$RPBWA      1 00000000 FFFFFFD7     J   12994 13026  13026
 $$$RPCLWA
               1 00000000 FFFFFFD9     J   11825 11873  11873
 $$$RPLDWA
               1 00000000 FFFFFFD4     J   15111 15124  15124
 $$$RPLIST
               1 00000000 FFFFFFE0     J    7376  7389   7389
 $$$RPPRMWA
               1 00000000 FFFFFFBE     J   30365 30383  30383
 $$$RPPWA      1 00000000 FFFFFFBD     J   30607 30626  30626
 $$$RPRWA      1 00000000 FFFFFFD8     J   12451 12472  12472
 $$$RRPWA      1 00000000 FFFFFFBC     J   31124 31153  31153
 $$$RRSPWA
               1 00000000 FFFFFFBB     J   31492 31516  31516
 $$$RSCLWA
               1 00000000 FFFFFFD6     J   14506 14555  14555
 $$$RSCNPWA
               1 00000000 FFFFFFBF     J   28681 28696  28696
 $$$RSCNXWA
               1 00000000 FFFFFFC1     J   24513 24575  24575
 $$$RSGLNWA
               1 00000000 FFFFFFB6     J   35374 35388  35388
 $$$RSGXLWA
               1 00000000 FFFFFFB5     J   35655 35671  35671
 $$$RSHLDWA
               1 00000000 FFFFFFCD     J   17771 17785  17785
1XCALL    (XCAL2025) (13:01) (15MAR04) Ordinary Symbol and Literal Cross Reference                                          Page  197
 $$$RSNENTRY
               1 00000000 FFFFFFDF     J    7409  7508   7508
 $$$RSNNPWA
               1 00000000 FFFFFFC0     J   25613 25651  25651
 $$$RSTXWA
               1 00000000 FFFFFFC9     J   20605 20618  20618
 $$$RSXNWA
               1 00000000 FFFFFFB4     J   36024 36038  36038
 $$$RTTYPE
               1 00000000 FFFFFFEA     J    6199  6300   6300
 $$$RUPPWA
               1 00000000 FFFFFFC7     J   21474 21489  21489
 $$$RVLIST
               1 00000000 FFFFFFE1     J    7357  7370   7370
 $$$RVNENTRY
               1 00000000 FFFFFFE4     J    6987  7286   7286
 $$$RVPARM
               1 00000000 FFFFFFE3     J    7300  7314   7314
 $$$RXBTWA
               1 00000000 FFFFFFCE     J   17390 17403  17403
 $$$RXBWA      1 00000000 FFFFFFDB     J    9641  9673   9673
 $$$RXCACTWA
               1 00000000 FFFFFFDD     J    8446  8459   8459
 $$$RXCDWA
               1 00000000 FFFFFFDA     J   11384 11397  11397
 $$$RXCLWA
               1 00000000 FFFFFFDE     J    7618  7690   7690
 $$$RXDSNAME
               1 00000000 FFFFFFE7     J    6854  6870   6870
 $$$RXFENTRY
               1 00000000 FFFFFFE6     J    6883  6943   6943
 $$$RXFWA      1 00000000 FFFFFFCC     J   18729 18756  18756
 $$$RXFXENTRY
               1 00000000 FFFFFFE5     J    6954  6973   6973
 $$$RXLDWA
               1 00000000 FFFFFFD5     J   14931 14944  14944
 $$$RXLISTWA
               1 00000000 FFFFFFC5     J   22672 22688  22688
 $$$RXRWA      1 00000000 FFFFFFDC     J    8698  8719   8719
 $$$RXXITWA
               1 00000000 FFFFFFCB     J   19433 19447  19447
 $$$SEGCB0
               4 00000050 FFFFFFEC     F    2485  2571   2571
 $$$V01       50 0000645C 00000001     C   37051 20774  20821  20898  20945  21615  21678  21741  21791
 $$$Z11        4 0000552C 00000001     F   31872 30749  30816  31293  31686
 $$$Z3         4 00002494 00000001     F   17686 16885
 $$$Z7         4 00003B28 00000001     F   24474 23196
 $$$Z9         4 00004D38 00000001     F   29461 27793
 $$$100E       2 000001A8 00000001     H    8179  8173
 $$$100F       2 000001AA 00000001     H    8186  8175B
 $$$101F       2 000001DC 00000001     H    8228  8213B
 $$$102F       2 000001FA 00000001     H    8257  8241B
 $$$103F       2 00000214 00000001     H    8285  8270B
 $$$104F       2 000002DA 00000001     H    8398  8384B
 $$$105        1 00000EC0 00000001 A   U    8436  8433   8435
 $$$107B       1 00000310 00000001     X    8490  8497U
 $$$108F       2 00000332 00000001     H    8565  8541B
 $$$109        6 00000488 00000001     I    8555  8547X
 $$$110        6 00000488 00000001     I    8554  8555   8555
1XCALL    (XCAL2025) (13:01) (15MAR04) Ordinary Symbol and Literal Cross Reference                                          Page  198
 $$$111        1 00000144 00000001 A   U    8622  8619   8621
 $$$113B       1 000004A8 00000001     X    8750  8757U
 $$$114F       2 000004C6 00000001     H    8818  8803B
 $$$114T       2 000004BA 00000001     H    8806  8791B
 $$$116F       2 000004DC 00000001     H    8845  8831B
 $$$117F       2 00000504 00000001     H    8901  8877B  8888B
 $$$119F       2 00000522 00000001     H    8948  8922B  8937B
 $$$121F       2 00000566 00000001     H    8994  8984B
 $$$122F       2 00000582 00000001     H    9021  9011B
 $$$123F       2 000005FA 00000001     H    9145  9052B
 $$$123S       2 0000059C 00000001     H    9046  9144B
 $$$125F       2 000005C6 00000001     H    9100  9076B  9090B
 $$$125S       2 000005AE 00000001     H    9067  9099B
 $$$128F       2 000005E0 00000001     H    9131  9111B
 $$$129F       2 0000062A 00000001     H    9191  9181B
 $$$130        1 00000F64 00000001 A   U    9249  9246   9248
 $$$132B       1 00000688 00000001     X    9290  9297U
 $$$133B       4 000006FE 00000001     I    9365  9377
 $$$133F       2 00000702 00000001     H    9373  9365B  9376
 $$$134B       4 0000070A 00000001     I    9395  9410
 $$$134E       2 00000706 00000001     H    9384  9378
 $$$134F       2 00000714 00000001     H    9407  9380B  9395B  9409
 $$$136E       2 00000718 00000001     H    9417  9411
 $$$136F       2 0000071E 00000001     H    9426  9413B
 $$$137        1 00000050 00000001 A   U    9445  9442   9444
 $$$139B       1 000007BE 00000001     X    9521  9528U
 $$$140        1 00000050 00000001 A   U    9555  9552   9554
 $$$142B       1 000007EA 00000001     X    9582  9589U
 $$$143        1 00000050 00000001 A   U    9616  9613   9615
 $$$145B       1 00000816 00000001     X    9703  9710U
 $$$146F       2 00000892 00000001     H    9807  9797B
 $$$147F       2 000008B6 00000001     H    9861  9837B
 $$$148        6 000010DE 00000001     I    9851  9843X
 $$$149        6 000010DE 00000001     I    9850  9851   9851
 $$$150F       2 0000098C 00000001     H   10043  9923B
 $$$151F       2 00000952 00000001     H    9966  9956B
 $$$152F       2 0000097A 00000001     H   10020  9988B
 $$$153F       2 000009F6 00000001     H   10157 10058B
 $$$154F       2 000009DA 00000001     H   10116 10106B
 $$$155        1 000001DC 00000001 A   U   10184 10181  10183
 $$$157B       1 00000B62 00000001     X   10340 10347U
 $$$158F       2 00000B74 00000001     H   10384 10372B
 $$$159        1 00000050 00000001 A   U   10406 10403  10405
 $$$161B       1 00000B9E 00000001     X   10435 10442U
 $$$162F       2 00000BB0 00000001     H   10479 10467B
 $$$163F       2 00000BCE 00000001     H   10523 10510B
 $$$163T       2 00000BC8 00000001     H   10513 10499B
 $$$165F       2 00000BF0 00000001     H   10573 10560B
 $$$165T       2 00000BEA 00000001     H   10563 10548B
 $$$167        1 00000050 00000001 A   U   10595 10592  10594
 $$$169B       1 00000C1A 00000001     X   10624 10631U
 $$$170F       2 00000C2C 00000001     H   10668 10656B
 $$$171F       2 00000C4C 00000001     H   10718 10679B
 $$$172F       2 00000C5E 00000001     H   10758 10734B
 $$$173        6 000010E4 00000001     I   10748 10740X
 $$$174        6 000010E4 00000001     I   10747 10748  10748
 $$$175        1 00000050 00000001 A   U   10780 10777  10779
 $$$177B       1 00000C88 00000001     X   10810 10817U
 $$$178F       2 00000C9A 00000001     H   10854 10842B
1XCALL    (XCAL2025) (13:01) (15MAR04) Ordinary Symbol and Literal Cross Reference                                          Page  199
 $$$179        1 00000050 00000001 A   U   10876 10873  10875
 $$$181B       1 00000CC4 00000001     X   10905 10912U
 $$$182F       2 00000CD6 00000001     H   10949 10937B
 $$$183F       2 00000CF4 00000001     H   10993 10980B
 $$$183T       2 00000CEE 00000001     H   10983 10969B
 $$$185F       2 00000D16 00000001     H   11043 11030B
 $$$185T       2 00000D10 00000001     H   11033 11018B
 $$$187        1 00000050 00000001 A   U   11065 11062  11064
 $$$189B       1 00000D40 00000001     X   11118 11125U
 $$$190F       2 00000DBC 00000001     H   11338 11159B 11171B 11183B
 $$$193F       2 00000DBC 00000001     H   11334 11198B
 $$$194        1 00000050 00000001 A   U   11357 11354  11356
 $$$196B       1 00000DE4 00000001     X   11427 11434U
 $$$197F       2 00000E98 00000001     H   11546 11531B
 $$$198F       2 00000EC6 00000001     H   11593 11561B
 $$$199F       2 00000EC6 00000001     H   11589 11576B
 $$$200F       2 00000EE8 00000001     H   11630 11621B
 $$$201        6 000010EA 00000001     I   11644 11636X
 $$$202        6 000010EA 00000001     I   11643 11644  11644
 $$$203F       2 00000F28 00000001     H   11693 11683B
 $$$204        1 000000D8 00000001 A   U   11735 11732  11734
 $$$208B       1 0000110A 00000001     X   11904 11911U
 $$$209F       2 00001130 00000001     H   11974 11941B
 $$$210F       2 00001156 00000001     H   12020 11987B
 $$$211F       2 00001160 00000001     H   12047 12037B
 $$$212F       2 000011A6 00000001     H   12123 12078B
 $$$213B       4 000011B6 00000001     I   12141 12158
 $$$213F       2 000011BE 00000001     H   12155 12141B 12157
 $$$214E       2 000011C2 00000001     H   12165 12159
 $$$214F       2 000011CC 00000001     H   12177 12161B
 $$$215F       2 000011E0 00000001     H   12217 12193B
 $$$216        6 00001C06 00000001     I   12207 12199X
 $$$217        6 00001C06 00000001     I   12206 12207  12207
 $$$218F       2 00001212 00000001     H   12259 12243B
 $$$219F       2 0000122C 00000001     H   12287 12272B
 $$$220F       2 000012D2 00000001     H   12385 12371B
 $$$221        1 00000E6C 00000001 A   U   12423 12420  12422
 $$$223B       1 00001308 00000001     X   12503 12510U
 $$$224F       2 00001326 00000001     H   12571 12556B
 $$$224T       2 0000131A 00000001     H   12559 12544B
 $$$226F       2 0000133C 00000001     H   12602 12587B
 $$$227F       2 00001352 00000001     H   12629 12615B
 $$$228F       2 00001374 00000001     H   12680 12656B 12667B
 $$$230F       2 000013B8 00000001     H   12726 12716B
 $$$231F       2 000013D4 00000001     H   12753 12743B
 $$$232F       2 0000144C 00000001     H   12877 12784B
 $$$232S       2 000013EE 00000001     H   12778 12876B
 $$$234F       2 00001418 00000001     H   12832 12808B 12822B
 $$$234S       2 00001400 00000001     H   12799 12831B
 $$$237F       2 00001432 00000001     H   12863 12843B
 $$$238F       2 00001468 00000001     H   12911 12901B
 $$$239        1 00000F64 00000001 A   U   12969 12966  12968
 $$$241B       1 000014C6 00000001     X   13056 13063U
 $$$242F       2 00001550 00000001     H   13180 13170B
 $$$243F       2 00001574 00000001     H   13234 13210B
 $$$244        6 00001C0C 00000001     I   13224 13216X
 $$$245        6 00001C0C 00000001     I   13223 13224  13224
 $$$246F       2 00001636 00000001     H   13404 13296B
 $$$247F       2 000015FE 00000001     H   13347 13315B
1XCALL    (XCAL2025) (13:01) (15MAR04) Ordinary Symbol and Literal Cross Reference                                          Page  200
 $$$248F       2 0000161A 00000001     H   13374 13364B
 $$$249F       2 0000168C 00000001     H   13506 13419B
 $$$250F       2 00001670 00000001     H   13465 13455B
 $$$251        1 000001DC 00000001 A   U   13533 13530  13532
 $$$253B       1 000017F6 00000001     X   13689 13696U
 $$$254F       2 00001808 00000001     H   13733 13721B
 $$$255        1 00000050 00000001 A   U   13755 13752  13754
 $$$257B       1 00001832 00000001     X   13784 13791U
 $$$258F       2 00001844 00000001     H   13828 13816B
 $$$259F       2 00001862 00000001     H   13872 13859B
 $$$259T       2 0000185C 00000001     H   13862 13848B
 $$$261F       2 00001884 00000001     H   13922 13909B
 $$$261T       2 0000187E 00000001     H   13912 13897B
 $$$263        1 00000050 00000001 A   U   13944 13941  13943
 $$$265B       1 000018AE 00000001     X   13973 13980U
 $$$266F       2 000018C0 00000001     H   14017 14005B
 $$$267F       2 000018E0 00000001     H   14067 14028B
 $$$268F       2 000018F2 00000001     H   14107 14083B
 $$$269        6 00001C12 00000001     I   14097 14089X
 $$$270        6 00001C12 00000001     I   14096 14097  14097
 $$$271        1 00000050 00000001 A   U   14129 14126  14128
 $$$273B       1 0000191C 00000001     X   14159 14166U
 $$$274F       2 0000192E 00000001     H   14203 14191B
 $$$275        1 00000050 00000001 A   U   14221 14218  14220
 $$$277B       1 00001956 00000001     X   14250 14257U
 $$$278F       2 00001968 00000001     H   14294 14282B
 $$$279F       2 00001986 00000001     H   14338 14325B
 $$$279T       2 00001980 00000001     H   14328 14314B
 $$$281F       2 000019A8 00000001     H   14388 14375B
 $$$281T       2 000019A2 00000001     H   14378 14363B
 $$$283        1 00000050 00000001 A   U   14406 14403  14405
 $$$287B       1 00001C32 00000001     X   14586 14593U
 $$$288F       2 00001C9A 00000001     H   14700 14655B
 $$$289B       4 00001CA2 00000001     I   14716 14733
 $$$289F       2 00001CAA 00000001     H   14730 14716B 14732
 $$$290E       2 00001CAE 00000001     H   14740 14734
 $$$290F       2 00001CC4 00000001     H   14759 14736B
 $$$291F       2 00001CD8 00000001     H   14799 14775B
 $$$292        6 000026B2 00000001     I   14789 14781X
 $$$293        6 000026B2 00000001     I   14788 14789  14789
 $$$294F       2 00001CF6 00000001     H   14828 14812B
 $$$295F       2 00001D10 00000001     H   14856 14841B
 $$$296        1 00000264 00000001 A   U   14912 14909  14911
 $$$298B       1 00001D78 00000001     X   14975 14982U
 $$$299B       4 00001D84 00000001     I   15018 15040
 $$$299F       2 00001D94 00000001     H   15034 15018B 15039
 $$$300E       2 00001D98 00000001     H   15047 15041
 $$$300F       2 00001DA4 00000001     H   15067 15043B 15055B
 $$$302        1 00000090 00000001 A   U   15092 15089  15091
 $$$304B       1 00001DD0 00000001     X   15155 15162U
 $$$305B       4 00001DDC 00000001     I   15209 15230
 $$$305F       2 00001DEC 00000001     H   15224 15209B 15229
 $$$306E       2 00001DF0 00000001     H   15237 15231
 $$$306F       2 00001DFC 00000001     H   15257 15233B 15245B
 $$$308        1 00000090 00000001 A   U   15283 15280  15282
 $$$310B       1 00001E28 00000001     X   15346 15353U
 $$$311F       2 00001E52 00000001     H   15439 15427B
 $$$311T       2 00001E4C 00000001     H   15430 15415B
 $$$313F       2 00001E92 00000001     H   15500 15458B
1XCALL    (XCAL2025) (13:01) (15MAR04) Ordinary Symbol and Literal Cross Reference                                          Page  201
 $$$314F       2 00001E84 00000001     H   15490 15475B
 $$$316F       2 00001EE4 00000001     H   15576 15561B
 $$$317        1 000000B0 00000001 A   U   15666 15663  15665
 $$$319B       1 00001F58 00000001     X   15750 15757U
 $$$321F       2 00001F90 00000001     H   15858 15849B
 $$$322B       4 0000200E 00000001     I   15937 15954
 $$$322F       2 00002020 00000001     H   15951 15937B 15953
 $$$323E       2 00002024 00000001     H   15961 15955
 $$$323F       2 0000202E 00000001     H   15971 15957B
 $$$324        1 00000110 00000001 A   U   16022 16019  16021
 $$$326B       1 0000206A 00000001     X   16077 16084U
 $$$327        1 00000050 00000001 A   U   16179 16176  16178
 $$$329B       1 000020F2 00000001     X   16222 16229U
 $$$330        1 00000050 00000001 A   U   16324 16321  16323
 $$$332B       1 0000217A 00000001     X   16422 16429U
 $$$334F       2 000021CC 00000001     H   16544 16531B
 $$$335        1 00000230 00000001 A   U   16572 16569  16571
 $$$337B       1 000021F6 00000001     X   16645 16652U
 $$$339F       2 00002244 00000001     H   16761 16748B
 $$$340        1 00000230 00000001 A   U   16789 16786  16788
 $$$342B       1 0000226E 00000001     X   16845 16852U
 $$$343B       4 00002278 00000001     I   16886 16944
 $$$343F       2 0000229C 00000001     H   16940 16886B 16943
 $$$344F       2 0000229C 00000001     H   16936 16912B
 $$$345        6 000026B8 00000001     I   16926 16918X
 $$$346        6 000026B8 00000001     I   16925 16926  16926
 $$$347E       2 000022A0 00000001     H   16951 16945
 $$$347F       2 000022C4 00000001     H   16973 16947B
 $$$348F       2 0000230C 00000001     H   17067 16990B
 $$$349F       2 0000232E 00000001     H   17111 17089B 17101B
 $$$349S       2 00002318 00000001     H   17079 17110B
 $$$352B       4 00002332 00000001     I   17127 17149
 $$$352F       2 0000233C 00000001     H   17142 17127B 17148
 $$$353B       4 00002344 00000001     I   17166 17228
 $$$353E       2 00002340 00000001     H   17156 17150
 $$$353F       2 00002366 00000001     H   17221 17152B 17166B 17227
 $$$355F       2 00002366 00000001     H   17217 17183B
 $$$356F       2 00002366 00000001     H   17213 17199B
 $$$357B       4 0000236E 00000001     I   17245 17266
 $$$357E       2 0000236A 00000001     H   17235 17229
 $$$357F       2 00002378 00000001     H   17260 17231B 17245B 17265
 $$$359E       2 0000237C 00000001     H   17273 17267
 $$$359F       2 000023BC 00000001     H   17338 17269B
 $$$360F       2 000023B0 00000001     H   17310 17295B
 $$$361F       2 000023B6 00000001     H   17327 17317B
 $$$362        1 00000050 00000001 A   U   17357 17354  17356
 $$$364B       1 000023E4 00000001     X   17434 17441U
 $$$365F       2 0000240E 00000001     H   17529 17489B 17503B
 $$$367F       2 0000246C 00000001     H   17617 17559B
 $$$368F       2 00002456 00000001     H   17588 17574B
 $$$369F       2 0000246C 00000001     H   17613 17599B
 $$$370        1 000000B0 00000001 A   U   17669 17666  17668
 $$$372B       1 000026D8 00000001     X   17816 17823U
 $$$373F       2 0000278E 00000001     H   18013 17904B
 $$$373S       2 00002718 00000001     H   17901 18012B
 $$$375        1 000000F0 00000001 A   U   18044 18041  18043
 $$$377B       1 000027BC 00000001     X   18089 18096U
 $$$378F       2 00002880 00000001     H   18317 18187B
 $$$378S       2 00002800 00000001     H   18184 18316B
1XCALL    (XCAL2025) (13:01) (15MAR04) Ordinary Symbol and Literal Cross Reference                                          Page  202
 $$$380F       2 00002866 00000001     H   18302 18206B
 $$$381        1 000000F0 00000001 A   U   18348 18345  18347
 $$$383B       1 000028FC 00000001     X   18426 18433U
 $$$384F       2 00002922 00000001     H   18487 18454B
 $$$385F       2 00002948 00000001     H   18533 18500B
 $$$386F       2 00002952 00000001     H   18556 18546B
 $$$387        1 00000050 00000001 A   U   18602 18599  18601
 $$$389B       1 00002998 00000001     X   18642 18649U
 $$$390        1 00000050 00000001 A   U   18702 18699  18701
 $$$392B       1 000029D6 00000001     X   18787 18794U
 $$$393B       4 00002A4C 00000001     I   18899 18912
 $$$393F       2 00002A54 00000001     H   18908 18899B 18911
 $$$394B       4 00002A64 00000001     I   18942 18957
 $$$394E       2 00002A58 00000001     H   18919 18913
 $$$394F       2 00002A6C 00000001     H   18951 18915B 18930B 18942B 18954
 $$$396B       4 00002A5C 00000001     I   18930 18955
 $$$397B       4 00002A7C 00000001     I   18987 19001
 $$$397E       2 00002A70 00000001     H   18964 18956  18958
 $$$397F       2 00002A84 00000001     H   18996 18960B 18975B 18987B 18998
 $$$399B       4 00002A74 00000001     I   18975 18999
 $$$400E       2 00002A88 00000001     H   19008 19000  19002
 $$$400F       2 00002A94 00000001     H   19020 19004B
 $$$401        1 00000058 00000001 A   U   19061 19058  19060
 $$$403B       1 00002B76 00000001     X   19154 19161U
 $$$404        1 00000050 00000001 A   U   19193 19190  19192
 $$$406B       1 00002BA2 00000001     X   19221 19228U
 $$$407        1 00000050 00000001 A   U   19260 19257  19259
 $$$409B       1 00002BCE 00000001     X   19288 19295U
 $$$410        1 00000050 00000001 A   U   19322 19319  19321
 $$$412B       1 00002BFA 00000001     X   19360 19367U
 $$$413        1 00000050 00000001 A   U   19400 19397  19399
 $$$415B       1 00002C2E 00000001     X   19478 19485U
 $$$416F       2 00002C4E 00000001     H   19548 19538B
 $$$417F       2 00002C6A 00000001     H   19576 19566B
 $$$418F       2 00002C94 00000001     H   19626 19592B
 $$$418S       2 00002C6A 00000001     H   19582 19625B
 $$$420F       2 00002C90 00000001     H   19621 19611B
 $$$421        1 000000DC 00000001 A   U   19665 19662  19664
 $$$423B       1 00002E32 00000001     X   19755 19762U
 $$$424F       2 00002E48 00000001     H   19811 19787B 19801B
 $$$426        1 00000050 00000001 A   U   19856 19853  19855
 $$$428B       1 00002E94 00000001     X   19903 19910U
 $$$429F       2 00002EA2 00000001     H   19943 19933B
 $$$430        1 00000050 00000001 A   U   19988 19985  19987
 $$$432B       1 00002EEE 00000001     X   20035 20042U
 $$$433F       2 00002EFE 00000001     H   20073 20061B
 $$$434        1 00000050 00000001 A   U   20091 20088  20090
 $$$436B       1 00002F26 00000001     X   20166 20173U
 $$$437F       2 00002F76 00000001     H   20264 20255B
 $$$438F       2 00002FA0 00000001     H   20293 20274B
 $$$439        1 0000010C 00000001 A   U   20337 20334  20336
 $$$441B       1 00002FF2 00000001     X   20402 20409U
 $$$442F       2 00003042 00000001     H   20500 20491B
 $$$443F       2 0000306C 00000001     H   20529 20510B
 $$$444        1 0000010C 00000001 A   U   20573 20570  20572
 $$$446B       1 000030BE 00000001     X   20648 20655U
 $$$447B       4 00003118 00000001     I   20744 20852
 $$$447F       2 0000318C 00000001     H   20846 20744B 20851
 $$$448F       2 0000314E 00000001     H   20778 20763B
1XCALL    (XCAL2025) (13:01) (15MAR04) Ordinary Symbol and Literal Cross Reference                                          Page  203
 $$$449F       2 00003154 00000001     H   20795 20785B
 $$$450F       2 00003186 00000001     H   20825 20810B
 $$$451F       2 0000318C 00000001     H   20842 20832B
 $$$452B       4 00003194 00000001     I   20868 20975
 $$$452E       2 00003190 00000001     H   20859 20853
 $$$452F       2 00003208 00000001     H   20970 20855B 20868B 20974
 $$$454F       2 000031CA 00000001     H   20902 20887B
 $$$455F       2 000031D0 00000001     H   20919 20909B
 $$$456F       2 00003202 00000001     H   20949 20934B
 $$$457F       2 00003208 00000001     H   20966 20956B
 $$$458E       2 0000320C 00000001     H   20982 20976
 $$$458F       2 0000320E 00000001     H   20989 20978B
 $$$459        1 000000A0 00000001 A   U   21017 21014  21016
 $$$461B       1 00003238 00000001     X   21098 21105U
 $$$462F       2 00003298 00000001     H   21205 21158B
 $$$463        1 00000100 00000001 A   U   21233 21230  21232
 $$$465B       1 000032C2 00000001     X   21298 21305U
 $$$466F       2 00003322 00000001     H   21405 21358B
 $$$467        1 00000100 00000001 A   U   21433 21430  21432
 $$$469B       1 0000334C 00000001     X   21519 21526U
 $$$470F       2 000033B8 00000001     H   21619 21604B
 $$$471F       2 000033BE 00000001     H   21636 21626B
 $$$472F       2 0000340C 00000001     H   21682 21667B
 $$$473F       2 00003412 00000001     H   21699 21689B
 $$$474F       2 00003460 00000001     H   21745 21730B
 $$$475F       2 00003466 00000001     H   21762 21752B
 $$$476F       2 0000349C 00000001     H   21795 21780B
 $$$477F       2 000034A2 00000001     H   21812 21802B
 $$$478        1 000000A8 00000001 A   U   21840 21837  21839
 $$$480B       1 000034CC 00000001     X   21909 21916U
 $$$481B       4 000034CE 00000001     I   21935 21953
 $$$481F       2 000034D8 00000001     H   21948 21935B 21952
 $$$482B       4 000034E8 00000001     I   21987 22007
 $$$482E       2 000034DC 00000001     H   21960 21954
 $$$482F       2 000034F2 00000001     H   22000 21956B 21973B 21987B 22004
 $$$484B       4 000034E0 00000001     I   21973 22005
 $$$485B       4 000034FA 00000001     I   22025 22042
 $$$485E       2 000034F6 00000001     H   22014 22006  22008
 $$$485F       2 00003504 00000001     H   22038 22010B 22025B 22041
 $$$487E       2 00003508 00000001     H   22049 22043
 $$$487F       2 0000350E 00000001     H   22059 22045B
 $$$488        1 00000050 00000001 A   U   22080 22077  22079
 $$$490B       1 0000353A 00000001     X   22147 22154U
 $$$491B       4 00003546 00000001     I   22206 22225
 $$$491F       2 00003550 00000001     H   22219 22206B 22224
 $$$492B       4 00003558 00000001     I   22243 22286
 $$$492E       2 00003554 00000001     H   22232 22226
 $$$492F       2 0000357C 00000001     H   22280 22228B 22243B 22285
 $$$494F       2 00003574 00000001     H   22271 22261B
 $$$495B       4 00003584 00000001     I   22304 22324
 $$$495E       2 00003580 00000001     H   22293 22287
 $$$495F       2 00003590 00000001     H   22318 22289B 22304B 22323
 $$$497B       4 00003598 00000001     I   22342 22357
 $$$497E       2 00003594 00000001     H   22331 22325
 $$$497F       2 0000359E 00000001     H   22352 22327B 22342B 22356
 $$$499E       2 000035A2 00000001     H   22364 22358
 $$$499F       2 000035D6 00000001     H   22448 22360B
 $$$500B       4 000035AC 00000001     I   22377 22431
 $$$500F       2 000035CE 00000001     H   22428 22377B 22430
1XCALL    (XCAL2025) (13:01) (15MAR04) Ordinary Symbol and Literal Cross Reference                                          Page  204
 $$$501B       4 000035BA 00000001     I   22395 22411
 $$$501F       2 000035C6 00000001     H   22408 22395B 22410
 $$$502E       2 000035CA 00000001     H   22418 22412
 $$$502F       2 000035CE 00000001     H   22424 22414B
 $$$503E       2 000035D2 00000001     H   22438 22432
 $$$503F       2 000035D6 00000001     H   22444 22434B
 $$$504        1 000000B4 00000001 A   U   22472 22469  22471
 $$$506B       1 000036A2 00000001     X   22567 22574U
 $$$507F       2 000036BC 00000001     H   22616 22598B
 $$$508        1 00000050 00000001 A   U   22641 22638  22640
 $$$510B       1 000036EA 00000001     X   22719 22726U
 $$$511        1 00000454 00000001 A   U   22786 22783  22785
 $$$513B       1 0000373C 00000001     X   22831 22838U
 $$$514F       2 00003752 00000001     H   22895 22885B
 $$$514T       2 00003750 00000001     H   22888 22873B
 $$$516F       2 00003772 00000001     H   22937 22927B
 $$$516T       2 00003770 00000001     H   22930 22915B
 $$$518F       2 000037A6 00000001     H   22998 22961B 22973B 22985B
 $$$518S       2 00003782 00000001     H   22953 22997B
 $$$522F       2 000037B4 00000001     H   23032 23010B 23022B
 $$$524        1 00000454 00000001 A   U   23073 23070  23072
 $$$526B       1 000037F4 00000001     X   23116 23123U
 $$$527F       2 00003814 00000001     H   23182 23172B
 $$$527T       2 00003812 00000001     H   23175 23160B
 $$$529B       4 0000381A 00000001     I   23197 23211
 $$$529F       2 00003822 00000001     H   23206 23197B 23210
 $$$530E       2 00003826 00000001     H   23218 23212
 $$$530F       2 00003876 00000001     H   23295 23214B
 $$$531F       2 00003858 00000001     H   23257 23244B
 $$$531S       2 0000383E 00000001     H   23237 23256B
 $$$533F       2 0000386C 00000001     H   23283 23273B
 $$$533S       2 0000385C 00000001     H   23264 23282B
 $$$535        1 00000454 00000001 A   U   23321 23318  23320
 $$$537B       1 000038A2 00000001     X   23364 23371U
 $$$538F       2 000038C2 00000001     H   23430 23420B
 $$$538T       2 000038C0 00000001     H   23423 23408B
 $$$540B       4 000038C8 00000001     I   23443 23458
 $$$540F       2 000038CE 00000001     H   23455 23443B 23457
 $$$541E       2 000038D2 00000001     H   23465 23459
 $$$541F       2 000038D6 00000001     H   23471 23461B
 $$$542        1 00000454 00000001 A   U   23497 23494  23496
 $$$544B       1 00003902 00000001     X   23541 23548U
 $$$545F       2 00003918 00000001     H   23605 23595B
 $$$545T       2 00003916 00000001     H   23598 23583B
 $$$547F       2 00003938 00000001     H   23647 23637B
 $$$547T       2 00003936 00000001     H   23640 23625B
 $$$549F       2 00003960 00000001     H   23692 23669B 23681B
 $$$549S       2 00003948 00000001     H   23660 23691B
 $$$552F       2 00003968 00000001     H   23713 23703B
 $$$553        1 00000454 00000001 A   U   23776 23773  23775
 $$$555B       1 000039D0 00000001     X   23845 23852U
 $$$556        1 00000250 00000001 A   U   23914 23911  23913
 $$$558B       1 00003A18 00000001     X   23990 23997U
 $$$559F       2 00003A2A 00000001     H   24043 24030B
 $$$560F       2 00003A42 00000001     H   24069 24059B
 $$$561F       2 00003A66 00000001     H   24114 24091B 24103B
 $$$561S       2 00003A4E 00000001     H   24083 24113B
 $$$564F       2 00003A74 00000001     H   24137 24127B
 $$$565F       2 00003A92 00000001     H   24168 24152B
1XCALL    (XCAL2025) (13:01) (15MAR04) Ordinary Symbol and Literal Cross Reference                                          Page  205
 $$$566        1 00000250 00000001 A   U   24198 24195  24197
 $$$568B       1 00003ABC 00000001     X   24274 24281U
 $$$569F       2 00003ACE 00000001     H   24327 24314B
 $$$570F       2 00003AE6 00000001     H   24353 24343B
 $$$571F       2 00003B0A 00000001     H   24398 24375B 24387B
 $$$571S       2 00003AF2 00000001     H   24367 24397B
 $$$574B       4 00003B0C 00000001     I   24410 24422
 $$$574F       2 00003B14 00000001     H   24419 24410B 24421
 $$$575E       2 00003B18 00000001     H   24429 24423
 $$$575F       2 00003B1A 00000001     H   24438 24425B
 $$$576        1 00000250 00000001 A   U   24464 24461  24463
 $$$582B       1 00003B92 00000001     X   24605 24612U
 $$$583F       2 00003C26 00000001     H   24737 24722B
 $$$584F       2 00003C96 00000001     H   24807 24798B
 $$$585F       2 00003CA0 00000001     H   24830 24818B
 $$$586F       2 00003CAC 00000001     H   24850 24841B
 $$$587        1 00000144 00000001 A   U   24879 24876  24878
 $$$589B       1 00003DA2 00000001     X   24990 24997U
 $$$590        1 00000050 00000001 A   U   25062 25059  25061
 $$$592B       1 00003E24 00000001     X   25092 25099U
 $$$593        1 00000050 00000001 A   U   25217 25214  25216
 $$$595B       1 00003EEA 00000001     X   25246 25253U
 $$$596B       4 00003EEE 00000001     I   25273 25336
 $$$596F       2 00003F0C 00000001     H   25331 25273B 25335
 $$$597F       2 00003F0A 00000001     H   25323 25299B
 $$$598        6 000045E2 00000001     I   25313 25305X
 $$$599        6 000045E2 00000001     I   25312 25313  25313
 $$$600B       4 00003F1C 00000001     I   25368 25414
 $$$600E       2 00003F10 00000001     H   25343 25337
 $$$600F       2 00003F3C 00000001     H   25410 25339B 25368B 25413
 $$$600T       2 00003F20 00000001     H   25371 25357B
 $$$603B       4 00003F44 00000001     I   25431 25521
 $$$603E       2 00003F40 00000001     H   25421 25415
 $$$603F       2 00003F86 00000001     H   25518 25417B 25431B 25520
 $$$605F       2 00003F6E 00000001     H   25490 25466B
 $$$606        6 000045E8 00000001     I   25480 25472X
 $$$607        6 000045E8 00000001     I   25479 25480  25480
 $$$608E       2 00003F8A 00000001     H   25528 25522
 $$$608F       2 00003FA6 00000001     H   25565 25524B
 $$$609        1 00000050 00000001 A   U   25584 25581  25583
 $$$613B       1 00003FCE 00000001     X   25681 25688U
 $$$614F       2 0000404A 00000001     H   25797 25788B
 $$$615        1 00000144 00000001 A   U   25826 25823  25825
 $$$617B       1 000040A2 00000001     X   25875 25882U
 $$$618B       4 000040A6 00000001     I   25902 25965
 $$$618F       2 000040C4 00000001     H   25960 25902B 25964
 $$$619F       2 000040C2 00000001     H   25952 25928B
 $$$620        6 000045EE 00000001     I   25942 25934X
 $$$621        6 000045EE 00000001     I   25941 25942  25942
 $$$622B       4 000040D4 00000001     I   25997 26110
 $$$622E       2 000040C8 00000001     H   25972 25966
 $$$622F       2 00004118 00000001     H   26106 25968B 25997B 26109
 $$$622T       2 000040D8 00000001     H   26000 25986B
 $$$625F       2 000040FE 00000001     H   26052 26012B
 $$$626F       2 00004116 00000001     H   26098 26074B
 $$$627        6 000045F4 00000001     I   26088 26080X
 $$$628        6 000045F4 00000001     I   26087 26088  26088
 $$$629B       4 00004120 00000001     I   26127 26194
 $$$629E       2 0000411C 00000001     H   26117 26111
1XCALL    (XCAL2025) (13:01) (15MAR04) Ordinary Symbol and Literal Cross Reference                                          Page  206
 $$$629F       2 0000414E 00000001     H   26191 26113B 26127B 26193
 $$$631F       2 0000414A 00000001     H   26186 26162B
 $$$632        6 000045FA 00000001     I   26176 26168X
 $$$633        6 000045FA 00000001     I   26175 26176  26176
 $$$634E       2 00004152 00000001     H   26201 26195
 $$$634F       2 0000416E 00000001     H   26238 26197B
 $$$635        1 00000050 00000001 A   U   26256 26253  26255
 $$$637B       1 00004196 00000001     X   26307 26314U
 $$$638F       2 00004220 00000001     H   26400 26385B
 $$$639B       4 0000422A 00000001     I   26415 26465
 $$$639F       2 00004286 00000001     H   26460 26415B 26464
 $$$640E       2 0000428A 00000001     H   26472 26466
 $$$640F       2 000042DC 00000001     H   26509 26468B
 $$$641        1 00000050 00000001 A   U   26531 26528  26530
 $$$643B       1 000043F6 00000001     X   26656 26663U
 $$$644        1 00000050 00000001 A   U   26696 26693  26695
 $$$646B       1 00004428 00000001     X   26726 26733U
 $$$647        1 00000050 00000001 A   U   26815 26812  26814
 $$$649B       1 000044A4 00000001     X   26845 26852U
 $$$650F       2 00004526 00000001     H   26933 26918B
 $$$651        1 00000050 00000001 A   U   26971 26968  26970
 $$$653B       1 0000461A 00000001     X   27050 27057U
 $$$654F       2 00004746 00000001     H   27267 27122B
 $$$655B       4 00004682 00000001     I   27141 27156
 $$$655F       2 0000468C 00000001     H   27153 27141B 27155
 $$$656E       2 00004690 00000001     H   27163 27157
 $$$656F       2 00004746 00000001     H   27263 27159B
 $$$657F       2 00004746 00000001     H   27259 27212B
 $$$657S       2 000046E4 00000001     H   27206 27258B
 $$$659        1 00000050 00000001 A   U   27299 27296  27298
 $$$661B       1 00004780 00000001     X   27353 27360U
 $$$662F       2 000047A0 00000001     H   27413 27396B
 $$$663F       2 000047AA 00000001     H   27437 27427B
 $$$664F       2 000047C8 00000001     H   27482 27459B 27470B
 $$$664S       2 000047B0 00000001     H   27449 27481B
 $$$667F       2 000047E2 00000001     H   27525 27496B 27507B
 $$$669F       2 00004988 00000001     H   28052 27547B
 $$$669S       2 000047E4 00000001     H   27539 28051B
 $$$671F       2 00004802 00000001     H   27578 27565B
 $$$673F       2 00004868 00000001     H   27688 27665B 27676B
 $$$673S       2 00004850 00000001     H   27655 27687B
 $$$676F       2 000048B0 00000001     H   27780 27713B
 $$$677F       2 000048FA 00000001     H   27861 27794B
 $$$678F       2 0000491C 00000001     H   27910 27879B
 $$$679F       2 00004940 00000001     H   27953 27922B
 $$$680F       2 00004972 00000001     H   28020 27965B
 $$$681F       2 00004972 00000001     H   28016 27981B
 $$$682F       2 00004980 00000001     H   28043 28032B
 $$$683        1 00000050 00000001 A   U   28085 28082  28084
 $$$685B       1 000049BE 00000001     X   28138 28145U
 $$$686F       2 000049DC 00000001     H   28194 28181B
 $$$687F       2 000049E6 00000001     H   28218 28208B
 $$$688F       2 00004A04 00000001     H   28263 28240B 28251B
 $$$688S       2 000049EC 00000001     H   28230 28262B
 $$$691F       2 00004A1C 00000001     H   28302 28277B 28288B
 $$$693F       2 00004B02 00000001     H   28611 28324B
 $$$693S       2 00004A1E 00000001     H   28316 28610B
 $$$695F       2 00004A3C 00000001     H   28355 28342B
 $$$696F       2 00004A52 00000001     H   28387 28374B
1XCALL    (XCAL2025) (13:01) (15MAR04) Ordinary Symbol and Literal Cross Reference                                          Page  207
 $$$697F       2 00004A74 00000001     H   28428 28397B
 $$$698F       2 00004A96 00000001     H   28469 28438B
 $$$699F       2 00004ABA 00000001     H   28512 28481B
 $$$700F       2 00004AEC 00000001     H   28579 28524B
 $$$701F       2 00004AEC 00000001     H   28575 28540B
 $$$702F       2 00004AFA 00000001     H   28602 28591B
 $$$703        1 00000050 00000001 A   U   28639 28636  28638
 $$$705B       1 00004B32 00000001     X   28726 28733U
 $$$706F       2 00004B52 00000001     H   28792 28779B
 $$$707F       2 00004B5C 00000001     H   28816 28806B
 $$$708F       2 00004B7A 00000001     H   28861 28838B 28849B
 $$$708S       2 00004B62 00000001     H   28828 28860B
 $$$711F       2 00004B92 00000001     H   28900 28875B 28886B
 $$$713F       2 00004D20 00000001     H   29418 28922B
 $$$713S       2 00004B94 00000001     H   28914 29417B
 $$$715F       2 00004BB2 00000001     H   28953 28940B
 $$$716B       4 00004C02 00000001     I   29016 29066
 $$$716F       2 00004C1E 00000001     H   29063 29016B 29065
 $$$717F       2 00004C1E 00000001     H   29059 29034B 29047B
 $$$717S       2 00004C06 00000001     H   29026 29058B
 $$$720E       2 00004C22 00000001     H   29073 29067
 $$$720F       2 00004C24 00000001     H   29082 29069B
 $$$721F       2 00004C60 00000001     H   29169 29099B
 $$$722F       2 00004C54 00000001     H   29142 29117B 29130B
 $$$722S       2 00004C3C 00000001     H   29109 29141B
 $$$725F       2 00004C60 00000001     H   29165 29156B
 $$$726F       2 00004C70 00000001     H   29194 29181B
 $$$727F       2 00004C92 00000001     H   29235 29204B
 $$$728F       2 00004CB4 00000001     H   29276 29245B
 $$$729F       2 00004CD8 00000001     H   29319 29288B
 $$$730F       2 00004D0A 00000001     H   29386 29331B
 $$$731F       2 00004D0A 00000001     H   29382 29347B
 $$$732F       2 00004D18 00000001     H   29409 29398B
 $$$733        1 000001A8 00000001 A   U   29451 29448  29450
 $$$735B       1 00004EAE 00000001     X   29546 29553U
 $$$736B       4 00004EB4 00000001     I   29574 29697
 $$$736F       2 00004F04 00000001     H   29691 29574B 29696
 $$$737B       4 00004EBC 00000001     I   29590 29621
 $$$737F       2 00004ED6 00000001     H   29617 29590B 29620
 $$$738B       4 00004EDE 00000001     I   29639 29673
 $$$738E       2 00004EDA 00000001     H   29628 29622
 $$$738F       2 00004EFE 00000001     H   29670 29624B 29639B 29672
 $$$74B        1 00000040 00000001     X    7547  7554U
 $$$740E       2 00004F02 00000001     H   29680 29674
 $$$740F       2 00004F04 00000001     H   29687 29676B
 $$$741E       2 00004F08 00000001     H   29704 29698
 $$$741F       2 00004F76 00000001     H   29915 29700B
 $$$742F       2 00004F20 00000001     H   29746 29721B 29732B
 $$$742S       2 00004F08 00000001     H   29711 29745B
 $$$745F       2 00004F76 00000001     H   29911 29762B 29773B
 $$$747F       2 00004F50 00000001     H   29825 29802B 29813B
 $$$747S       2 00004F38 00000001     H   29792 29824B
 $$$75         1 00000050 00000001 A   U    7588  7585   7587
 $$$750B       4 00004F5A 00000001     I   29850 29891
 $$$750F       2 00004F6C 00000001     H   29885 29839B 29850B 29888
 $$$751B       4 00004F54 00000001     I   29839 29889
 $$$752E       2 00004F70 00000001     H   29898 29890  29892
 $$$752F       2 00004F76 00000001     H   29907 29894B
 $$$753        1 00000050 00000001 A   U   29936 29933  29935
1XCALL    (XCAL2025) (13:01) (15MAR04) Ordinary Symbol and Literal Cross Reference                                          Page  208
 $$$755B       1 00004FA2 00000001     X   29986 29993U
 $$$756F       2 0000508A 00000001     H   30265 30080B 30092B
 $$$758F       2 0000503E 00000001     H   30154 30122B
 $$$759F       2 0000506C 00000001     H   30215 30164B
 $$$760F       2 0000506C 00000001     H   30211 30179B
 $$$761F       2 00005084 00000001     H   30256 30231B 30242B
 $$$761S       2 0000506C 00000001     H   30221 30255B
 $$$764        1 00000050 00000001 A   U   30297 30294  30296
 $$$766B       1 00005160 00000001     X   30413 30420U
 $$$767F       2 000051CE 00000001     H   30500 30485B
 $$$768F       2 00005222 00000001     H   30552 30537B
 $$$769        1 000001B4 00000001 A   U   30580 30577  30579
 $$$771B       1 0000524C 00000001     X   30656 30663U
 $$$772F       2 00005362 00000001     H   31072 30696B
 $$$773F       2 00005294 00000001     H   30761 30735B 30750B
 $$$773S       2 00005278 00000001     H   30726 30760B
 $$$776F       2 000052C2 00000001     H   30828 30802B 30817B
 $$$776S       2 000052A6 00000001     H   30793 30827B
 $$$779F       2 000052D2 00000001     H   30862 30852B
 $$$780F       2 000052E8 00000001     H   30891 30876B
 $$$781F       2 00005362 00000001     H   31068 30914B
 $$$781S       2 000052FC 00000001     H   30907 31067B
 $$$783F       2 00005310 00000001     H   30956 30946B
 $$$784F       2 0000531C 00000001     H   30993 30983B
 $$$785F       2 00005330 00000001     H   31028 31013B
 $$$786F       2 00005352 00000001     H   31058 31043B
 $$$787        1 0000006C 00000001 A   U   31100 31097  31099
 $$$789B       1 0000538C 00000001     X   31183 31190U
 $$$790F       2 00005454 00000001     H   31443 31236B
 $$$791F       2 00005448 00000001     H   31410 31276B
 $$$791S       2 000053D4 00000001     H   31269 31409B
 $$$793B       4 000053E0 00000001     I   31294 31316
 $$$793F       2 000053EE 00000001     H   31312 31294B 31315
 $$$794B       4 000053F6 00000001     I   31332 31356
 $$$794E       2 000053F2 00000001     H   31323 31317
 $$$794F       2 00005404 00000001     H   31353 31319B 31332B 31355
 $$$796E       2 00005408 00000001     H   31363 31357
 $$$796F       2 00005434 00000001     H   31401 31359B
 $$$797F       2 00005434 00000001     H   31397 31379B
 $$$798F       2 00005454 00000001     H   31439 31430B
 $$$799        1 00000074 00000001 A   U   31471 31468  31470
 $$$801B       1 0000547E 00000001     X   31546 31553U
 $$$802F       2 0000551A 00000001     H   31834 31592B
 $$$803F       2 0000550E 00000001     H   31808 31624B
 $$$803S       2 000054AA 00000001     H   31617 31807B
 $$$805F       2 000054FA 00000001     H   31798 31653B
 $$$806B       4 000054BE 00000001     I   31687 31709
 $$$806F       2 000054CC 00000001     H   31705 31687B 31708
 $$$807B       4 000054D4 00000001     I   31725 31746
 $$$807E       2 000054D0 00000001     H   31716 31710
 $$$807F       2 000054E2 00000001     H   31743 31712B 31725B 31745
 $$$809E       2 000054E6 00000001     H   31753 31747
 $$$809F       2 000054FA 00000001     H   31787 31749B
 $$$81B        1 00000074 00000001     X    7721  7728U
 $$$810F       2 000054FA 00000001     H   31783 31765B
 $$$811F       2 0000551A 00000001     H   31830 31821B
 $$$812        1 00000060 00000001 A   U   31862 31859  31861
 $$$814B       1 000056A8 00000001     X   31935 31942U
 $$$815F       2 000056BA 00000001     H   31995 31980B
1XCALL    (XCAL2025) (13:01) (15MAR04) Ordinary Symbol and Literal Cross Reference                                          Page  209
 $$$816F       2 00005748 00000001     H   32106 32091B
 $$$817F       2 00005754 00000001     H   32132 32117B
 $$$818F       2 00005760 00000001     H   32158 32143B
 $$$819F       2 0000576C 00000001     H   32184 32169B
 $$$82B        4 0000008E 00000001     I    7776  7793
 $$$82F        2 00000096 00000001     H    7790  7776B  7792
 $$$820F       2 00005778 00000001     H   32210 32195B
 $$$821F       2 00005784 00000001     H   32236 32221B
 $$$822F       2 00005790 00000001     H   32262 32247B
 $$$823F       2 0000579C 00000001     H   32288 32273B
 $$$824F       2 000057A8 00000001     H   32314 32299B
 $$$825F       2 000057B4 00000001     H   32340 32325B
 $$$826        1 00000050 00000001 A   U   32370 32367  32369
 $$$828B       1 000057E4 00000001     X   32426 32433U
 $$$829F       2 000057F6 00000001     H   32486 32471B
 $$$83E        2 0000009A 00000001     H    7800  7794
 $$$83F        2 0000009E 00000001     H    7811  7796B
 $$$830F       2 00005884 00000001     H   32597 32582B
 $$$831F       2 00005890 00000001     H   32623 32608B
 $$$832F       2 0000589C 00000001     H   32649 32634B
 $$$833F       2 000058A8 00000001     H   32675 32660B
 $$$834F       2 000058B4 00000001     H   32701 32686B
 $$$835F       2 000058C0 00000001     H   32727 32712B
 $$$836F       2 000058CC 00000001     H   32753 32738B
 $$$837F       2 000058D8 00000001     H   32779 32764B
 $$$838F       2 000058E4 00000001     H   32805 32790B
 $$$839F       2 000058F0 00000001     H   32831 32816B
 $$$84B        4 000000A0 00000001     I    7821  7838
 $$$84F        2 000000A8 00000001     H    7835  7821B  7837
 $$$840        1 00000050 00000001 A   U   32887 32884  32886
 $$$842B       1 0000592E 00000001     X   32936 32943U
 $$$843F       2 00005942 00000001     H   32995 32980B
 $$$844F       2 000059A8 00000001     H   33036 33021B
 $$$845F       2 000059B4 00000001     H   33062 33047B
 $$$846F       2 000059C0 00000001     H   33088 33073B
 $$$847F       2 000059CC 00000001     H   33114 33099B
 $$$848F       2 000059D8 00000001     H   33140 33125B
 $$$849F       2 000059E4 00000001     H   33166 33151B
 $$$85E        2 000000AC 00000001     H    7845  7839
 $$$85F        2 000000B6 00000001     H    7857  7841B
 $$$850F       2 000059F0 00000001     H   33192 33177B
 $$$851F       2 000059FC 00000001     H   33218 33203B
 $$$852F       2 00005A08 00000001     H   33244 33229B
 $$$853F       2 00005A14 00000001     H   33270 33255B
 $$$854        1 00000050 00000001 A   U   33293 33290  33292
 $$$856B       1 00005A3E 00000001     X   33378 33385U
 $$$857F       2 00005A78 00000001     H   33454 33443B
 $$$858F       2 00005A96 00000001     H   33498 33471B 33484B
 $$$86F        2 000000CA 00000001     H    7897  7873B
 $$$860F       2 00005B12 00000001     H   33592 33552B
 $$$861F       2 00005B12 00000001     H   33588 33573B
 $$$862F       2 00005B1E 00000001     H   33618 33603B
 $$$863F       2 00005B2A 00000001     H   33644 33629B
 $$$864F       2 00005B36 00000001     H   33670 33655B
 $$$865        1 0000006C 00000001 A   U   33698 33695  33697
 $$$867B       1 00005B60 00000001     X   33769 33776U
 $$$868F       2 00005BF0 00000001     H   33880 33865B
 $$$869F       2 00005BFC 00000001     H   33906 33891B
 $$$87         6 00000482 00000001     I    7887  7879X
1XCALL    (XCAL2025) (13:01) (15MAR04) Ordinary Symbol and Literal Cross Reference                                          Page  210
 $$$870F       2 00005C08 00000001     H   33932 33917B
 $$$871F       2 00005C14 00000001     H   33958 33943B
 $$$872F       2 00005C20 00000001     H   33984 33969B
 $$$873        1 0000005C 00000001 A   U   34012 34009  34011
 $$$875B       1 00005C4A 00000001     X   34058 34065U
 $$$876F       2 00005C66 00000001     H   34117 34102B
 $$$877F       2 00005C76 00000001     H   34150 34135B
 $$$878        1 00000050 00000001 A   U   34168 34165  34167
 $$$88         6 00000482 00000001     I    7886  7887   7887
 $$$880B       1 00005CD6 00000001     X   34230 34237U
 $$$881        1 00000050 00000001 A   U   34282 34279  34281
 $$$883B       1 00005D14 00000001     X   34318 34325U
 $$$884F       2 00005D34 00000001     H   34395 34348B 34363B
 $$$886        1 00000050 00000001 A   U   34472 34469  34471
 $$$888B       1 00005D92 00000001     X   34531 34538U
 $$$889F       2 00005DCE 00000001     H   34627 34580B 34595B
 $$$89F        2 000000EE 00000001     H    7938  7910B
 $$$891        1 000001A0 00000001 A   U   34673 34670  34672
 $$$893B       1 00005E12 00000001     X   34732 34739U
 $$$894F       2 00005E40 00000001     H   34823 34776B 34791B
 $$$896        1 000001A0 00000001 A   U   34909 34906  34908
 $$$898B       1 00005EA4 00000001     X   34954 34961U
 $$$899F       2 00005EB0 00000001     H   34992 34981B
 $$$90F        2 00000104 00000001     H    7979  7965B
 $$$90T        2 000000FE 00000001     H    7968  7955B
 $$$900F       2 00005EC8 00000001     H   35041 35026B
 $$$901F       2 00005EDE 00000001     H   35081 35057B
 $$$902        6 00006456 00000001     I   35071 35063X
 $$$903        6 00006456 00000001     I   35070 35071  35071
 $$$904        1 00000050 00000001 A   U   35104 35101  35103
 $$$906B       1 00005F08 00000001     X   35166 35173U
 $$$907        1 00000050 00000001 A   U   35228 35225  35227
 $$$909B       1 00005F40 00000001     X   35282 35289U
 $$$910        1 00000050 00000001 A   U   35343 35340  35342
 $$$912B       1 00005F76 00000001     X   35419 35426U
 $$$913F       2 00005F9E 00000001     H   35510 35463B 35478B
 $$$915        1 00000140 00000001 A   U   35636 35633  35635
 $$$917B       1 00006022 00000001     X   35702 35709U
 $$$918B       4 0000603C 00000001     I   35758 35801
 $$$918F       2 00006050 00000001     H   35794 35744B 35758B 35798
 $$$919B       4 00006034 00000001     I   35744 35799
 $$$92F        2 00000130 00000001     H    8034  7992B
 $$$920E       2 00006054 00000001     H   35808 35800  35802
 $$$920F       2 00006066 00000001     H   35831 35804B
 $$$921B       4 0000607C 00000001     I   35865 35897
 $$$921F       2 00006092 00000001     H   35891 35853B 35865B 35894
 $$$922B       4 00006076 00000001     I   35853 35895
 $$$923B       4 000060A0 00000001     I   35929 35944
 $$$923E       2 00006096 00000001     H   35904 35896  35898
 $$$923F       2 000060A4 00000001     H   35937 35900B 35917B 35929B 35941
 $$$925B       4 0000609A 00000001     I   35917 35942
 $$$926E       2 000060A8 00000001     H   35951 35943  35945
 $$$926F       2 000060C8 00000001     H   35980 35947B
 $$$927        1 00000148 00000001 A   U   36008 36005  36007
 $$$929B       1 000060F2 00000001     X   36069 36076U
 $$$93F        2 00000130 00000001     H    8030  8018B
 $$$930B       4 00006104 00000001     I   36135 36233
 $$$930F       2 0000614A 00000001     H   36225 36123B 36135B 36230
 $$$931B       4 000060FE 00000001     I   36123 36231
1XCALL    (XCAL2025) (13:01) (15MAR04) Ordinary Symbol and Literal Cross Reference                                          Page  211
 $$$932F       2 00006120 00000001     H   36163 36153B
 $$$933B       4 0000612A 00000001     I   36176 36205
 $$$933F       2 00006140 00000001     H   36202 36176B 36204
 $$$934E       2 00006144 00000001     H   36212 36206
 $$$934F       2 0000614A 00000001     H   36221 36208B
 $$$935B       4 00006158 00000001     I   36265 36297
 $$$935E       2 0000614E 00000001     H   36240 36232  36234
 $$$935F       2 0000616E 00000001     H   36291 36236B 36253B 36265B 36294
 $$$937B       4 00006152 00000001     I   36253 36295
 $$$938B       4 0000617C 00000001     I   36329 36362
 $$$938E       2 00006172 00000001     H   36304 36296  36298
 $$$938F       2 00006192 00000001     H   36355 36300B 36317B 36329B 36359
 $$$94F        2 00000152 00000001     H    8085  8047B
 $$$940B       4 00006176 00000001     I   36317 36360
 $$$941E       2 00006196 00000001     H   36369 36361  36363
 $$$941F       2 000061B0 00000001     H   36403 36365B
 $$$942F       2 000061A6 00000001     H   36394 36384B
 $$$943        1 000000F0 00000001 A   U   36431 36428  36430
 $$$945B       1 000061DA 00000001     X   36476 36483U
 $$$946F       2 0000622E 00000001     H   36617 36540B 36553B 36566B 36579B 36593B 36607B
 $$$95F        2 0000014C 00000001     H    8077  8062B
 $$$952F       2 0000627E 00000001     H   36731 36675B
 $$$953        1 00000050 00000001 A   U   36754 36751  36753
 $$$955B       1 000062A8 00000001     X   36799 36806U
 $$$956F       2 0000630E 00000001     H   36962 36906B
 $$$957        1 00000050 00000001 A   U   36985 36982  36984
 $$$96B        4 00000156 00000001     I    8098  8140
 $$$96F        2 00000182 00000001     H    8136  8098B  8139
 $$$97F        2 00000170 00000001     H    8129  8119B
 $$$98B        4 0000018A 00000001     I    8156  8172
 $$$98E        2 00000186 00000001     H    8147  8141
 $$$98F        2 000001A4 00000001     H    8169  8143B  8156B  8171
 @RAR          0 00000000 FFFFFFF0     @    1124  2162   2170B
 @R0           0 00000000 FFFFFFFE     @     706   982U
 @R1           0 00000000 FFFFFFFD     @     719   978U  2168   2169   7886   8554   8876   9151U  9850  10496  10509
                                                 10524  10747  10966  10979  10994  11643  12206  12655  12883U 13223
                                                 13845  13858  13873  14096  14311  14324  14339  14788  16925  17088
                                                 17244  20260  20496  23272  25272  25312  25354  25367  25430  25479
                                                 25901  25941  25983  25996  26087  26126  26175  27140  27426  27458
                                                 27495  27546  27664  27921  27964  27980  28031  28207  28239  28276
                                                 28323  28480  28523  28539  28590  28805  28837  28874  28921  29046
                                                 29129  29287  29330  29346  29397  29720  29761  30230  30768U 30835U
                                                 30962U 31663U 33483  34176U 36175  36552  36565  36578  36592  36606
                                                 36612
 @R10          0 00000000 FFFFFFF4     @     836   942U
 @R11          0 00000000 FFFFFFF3     @     849   938U
 @R12          0 00000000 FFFFFFF2     @     862   934U
 @R13          0 00000000 FFFFFFF1     @     875   930U  9355   9787  13160  24712  25154  26375  26781  26908  27629
                                                 29005  30065
 @R14          0 00000000 FFFFFFF0     @     888   926U 14866  27588M 27620  28964M 28996  30024M 30056
 @R15          0 00000000 FFFFFFEF     @     901   922U
 @R2           0 00000000 FFFFFFFC     @     732   974U  9089  10147U 12821  13496U 17165  17198  27867U 29875U 30999U
                                                 31416U 31793U 36762U 36993U
 @R3           0 00000000 FFFFFFFB     @     745   970U 10531U 11001U 13880U 14346U
 @R4           0 00000000 FFFFFFFA     @     758   966U 29801  29838
 @R5           0 00000000 FFFFFFF9     @     771   962U 15681U 16037U 18363U 20352U 20588U 21032U 21248U 21448U 21855U
                                                 22487U 35119U 35243U 35358U
 @R6           0 00000000 FFFFFFF8     @     784   958U 11073U 11365U 14414U 15674U 16030U 16580U 16797U 17365U 17677U
                                                 18052U 18356U 19333U 19673U 20345U 20581U 21025U 21241U 21441U 21848U
1XCALL    (XCAL2025) (13:01) (15MAR04) Ordinary Symbol and Literal Cross Reference                                          Page  212
                                                 22480U 25592U 30009U 30305U 32378U 32895U 33301U 33706U 34020U 35112U
                                                 35236U 35351U 36439U
 @R7           0 00000000 FFFFFFF7     @     797   954U  7577U  8425U  8611U  9238U  9434U  9544U  9605U 10173U 10395U
                                                 10584U 10769U 10865U 11054U 11346U 11724U 12412U 12958U 13522U 13744U
                                                 13933U 14118U 14210U 14395U 14901U 15081U 15272U 15655U 16011U 16168U
                                                 16313U 16561U 16778U 17346U 17658U 18033U 18337U 18591U 18691U 19050U
                                                 19182U 19249U 19311U 19389U 19654U 19845U 19977U 20080U 20326U 20562U
                                                 21006U 21222U 21422U 21829U 22069U 22461U 22630U 22775U 23062U 23310U
                                                 23486U 23765U 23903U 24187U 24453U 24868U 25051U 25206U 25573U 25815U
                                                 26245U 26520U 26685U 26804U 26960U 27288U 28074U 28628U 29440U 29925U
                                                 30286U 30569U 31089U 31460U 31851U 32359U 32876U 33282U 33687U 34001U
                                                 34157U 34271U 34461U 34662U 34898U 35093U 35217U 35332U 35625U 35997U
                                                 36420U 36743U 36974U
 @R8           0 00000000 FFFFFFF6     @     810   950U  8420U  8606U  9233U 10168U 11719U 12407U 12953U 13517U 14896U
                                                 15076U 15267U 15650U 16006U 16556U 16773U 17653U 18028U 18332U 19045U
                                                 19649U 20321U 20557U 21001U 21217U 21417U 21824U 22456U 22770U 23057U
                                                 23305U 23481U 23760U 23898U 24182U 24448U 24863U 25810U 29435U 30564U
                                                 31084U 31455U 31846U 33682U 33996U 34657U 34893U 35620U 35992U 36415U
 @R9           0 00000000 FFFFFFF5     @     823   946U
 ABSCENT       1 00000000 00000000 A   T    2178  2178
 ACTCHK        1 00000000 0000002C     T   17724 17724  19686
 ALISTCNT      1 00000080 00000001 A   U   23795 23796
 ALISTLEN      1 00000200 00000001 A   U   23796 23807  23953  24237
 ASCTBL        1 00000000 00000000 A   T    2186  2186
 BADPRETN      2 00005D78 00000001     H   34510 31884
 BADSYSP       2 00005DF8 00000001     H   34711 31885
 BLTBL         1 00000000 00000000 A   T    2188  2188
 BPRVAR      336 00000000 FFFFFFB8     X   34494 34556  34561  34646
 BPRWA       336 00000000 FFFFFFB8     J   34501 34523  34552U 34670  34672  34673
 BR            7 00000007 00000001 A   #    1014  7542M  7716M  8485M  8745M  9285M  9516M  9577M  9698M 10335M 10430M
                                                 10619M 10805M 10900M 11113M 11422M 11899M 12498M 13051M 13684M 13779M
                                                 13968M 14154M 14245M 14581M 14970M 15150M 15341M 15745M 16072M 16217M
                                                 16417M 16640M 16840M 17429M 17811M 18084M 18421M 18637M 18782M 19149M
                                                 19216M 19283M 19355M 19473M 19750M 19898M 20030M 20161M 20397M 20643M
                                                 21093M 21293M 21514M 21904M 22142M 22562M 22714M 22826M 23111M 23359M
                                                 23536M 23840M 23985M 24269M 24600M 24985M 25087M 25241M 25676M 25870M
                                                 26302M 26651M 26721M 26840M 27045M 27348M 28133M 28721M 29541M 29981M
                                                 30408M 30651M 31178M 31541M 31930M 32421M 32931M 33373M 33764M 34053M
                                                 34225M 34313M 34526M 34727M 34949M 35161M 35277M 35414M 35697M 36064M
                                                 36471M 36794M
 BSPVAR      336 00000000 FFFFFFB7     X   34695 34757  34882
 BSPWA       336 00000000 FFFFFFB7     J   34702 34724  34753U 34906  34908  34909
 BTD           1 00000000 00000035     T   18378 18378
 CALIST      512 00000000 FFFFFFC4     X   23807 23878M 23878  23879M 23879  23880  23881
 CAWA        512 00000000 FFFFFFC4     J   23814 23837  23866U 23911  23913  23914
 CHECKEND      1 00000000 00000044     T   29476 29476
 CHECKIOB      1 00000000 00000000 A   T    2234  2234
 CHKADONE      2 00003B1A 00000001     H   24441 24323B
 CHKALIST      2 00003AA2 00000001     H   24253 17707
 CHKPDEF       1 00000000 00000023     T   14432 14432
 CLRALIST      2 000039B6 00000001     H   23824  8639  17705  23820
 CLRVSETS      1 00000000 00000008     T    8654  8654  14437
 COMMAND       1 00000000 00000000 A   T    2174  2174
 COMMSEG       1 00000000 00000000 A   T    2175  2175
 CP         4096 00000000 FFFFFFEC     J    6188  1163U
 CP#FEXEC      1 00000010 FFFFFFEC A   U    3921  6827  22499  22500  22668
 CP#XACT       1 00000003 FFFFFFEC A   U    3918  8652  16102  16109  17726  22516  37013
 CP#XFILE      1 00000006 FFFFFFEC A   U    3930 17861  18144  20231  20237  20467  20473  20709  20715  20721  20727
                                                 21166  21172  21366  21372  21568  21574
1XCALL    (XCAL2025) (13:01) (15MAR04) Ordinary Symbol and Literal Cross Reference                                          Page  213
 CP#XLOAD      4 00000784 FFFFFFEC     F    4155 15579M 15624M 15624  15878M 15980M 15980  16117M 16142M 16142  16262M
                                                 16287M 16287  17276  17474  17533  17539  17546  17626M 17626
 CP#XOLD       1 00000002 FFFFFFEC A   U    3917 11754  14448  17704  22514  37016
 CP#XSET       4 00000778 FFFFFFEC     F    4151  8802   8836  12376  12555  12620  15426  32002M 32493M 33002  33840
 CP#XSTK       1 00000010 FFFFFFEC A   U    3920  3921
 CP#XTEMP      1 00000004 FFFFFFEC A   U    3919 16247  16254  17728  17744  22517  37014
 CPACFLG       1 000005D5 FFFFFFEC     R    4023  4027   4032   4037   4042   4047
 CPACFLN       4 000005C4 FFFFFFEC     F    4015  4050   4050
 CPACHCT       4 000005B4 FFFFFFEC     F    3980 19033  19034M
 CPAFLAG       1 000005C3 FFFFFFEC     R    3987  3991   3996   4001   4006
 CPANAME       8 00000588 FFFFFFEC     C    3969  4065   4065
 CPAUTFLG      1 000008A9 FFFFFFEC     R    4333  4337   4342   4347   4352
 CPCHFLAG      1 00000B68 FFFFFFEC     R    4960  4964
 CPCMD       235 00000242 FFFFFFEC     C    2813 11643M 11652  11784  32849
 CPCMDLEN      2 00000240 FFFFFFEC     H    2812 11651M 32853
 CPCWA         4 00000CA4 FFFFFFEC     F    5212 16457M 16680M 16870
 CPDFLG        1 0000084C FFFFFFEC     R    4220  4224   4229   4234   4239   4244
 CPDFLG2       1 0000084D FFFFFFEC     R    4249  4253   4258   4263   4268   4273   4278
 CPDOUB        8 00000C88 FFFFFFEC     D    5206 35543
 CPERRID       8 00000886 FFFFFFEC     C    4319  9976M 13303M 25556M 26043M 26229M
 CPESCAPE      1 000008BA FFFFFFEC     C    4395 32007M 32498M 33007  33845  34083
 CPEXEC       32 000004A4 FFFFFFEC     X    3894  8162  15538  16101  16103  16118  16246  16248  16263  17580  19814
                                                 21992  22608  24019  24303  35838  36106
 CPEXFLG       1 00000758 FFFFFFEC     R    4089  4093
 CPEXFLG2      1 00000759 FFFFFFEC     R    4099  4108   4118
 CPEXFLG3      1 0000075A FFFFFFEC     R    4125  4129   4134
 CPEXLINE      4 0000075C FFFFFFEC     F    4142 31996M 32487M 32996
 CPEXNEXT      4 00000760 FFFFFFEC     F    4143 19543M 31997M 32488M 32997
 CPEXTFLG      1 00000E28 FFFFFFEC     R    5771  5775   5780   5785   5790   5795   5800
 CPFABORT    128 00000D5A FFFFFFEC         5537  2138M  2138   2143M  2143  10034M 13395M
 CPFALL        1 00000010 FFFFFFEC A   U    5303 16480  16697
 CPFDEBUG    128 0000084C FFFFFFEC         4224  8383   8830  12370  12614
 CPFERROR     64 00000D5A FFFFFFEC         5542  2137M  2137   2142M  2142  10028M 13389M
 CPFEXEC     128 00000758 FFFFFFEC         4093  7909   7964   8061  11940  18453  31969M 31991M 32460M 32482M 32979
 CPFIDSET    128 00000D5B FFFFFFEC         5562 10070M 13431M
 CPFINFOP      4 00000E54 FFFFFFEC     A    5819 33433  34971
 CPFLOW       32 000004C4 FFFFFFEC     X    3897  8164  15540  16108  16110  16120  16253  16255  16265  19820
 CPFNCUR      64 00000D57 FFFFFFEC         5472 16515M 16732M
 CPFNTEX       1 00000040 FFFFFFEC A   U    5389  5390
 CPFQUIET     64 00000D55 FFFFFFEC         5407 32052M 32232M 32543M 32723M 33150  33602  33916
 CPFRDEXT      3 00000D89 FFFFFFEC         5725 16475M
 CPFRDRNG      1 00000D88 FFFFFFEC     R    5657  5661   5666   5671   5676   5681   5686   5691
 CPFRDSRC      1 00000D89 FFFFFFEC     R    5696  5705   5715   5725
 CPFTRY      128 0000047B FFFFFFEC         3730 32045M 32206M 32536M 32697M 33124
 CPFTYPED     16 00000477 FFFFFFEC         3594 32080M 32336M 32571M 32827M 32840M 33254
 CPFUNUM       1 00000080 FFFFFFEC A   U    5388  5390
 CPFVCMD     128 0000047D FFFFFFEC         3771 32073M 32310M 32564M 32801M 33228
 CPFXAUTH     64 0000075A FFFFFFEC         4134 32038M 32180M 32529M 32671M 33098  33572  33890
 CPFXAUTHLIB
             128 0000075A FFFFFFEC         4129 32031M 32154M 32522M 32645M 33072  33864
 CPFXDFLG      1 000007E4 FFFFFFEC     R    4167  4171   4176
 CPFXDUMP    128 000007E4 FFFFFFEC         4171 11158  11234M 11330M 32066M 32284M 32557M 32775M 33202  33654  33968
                                                 34101
 CPFXOLD       2 00000759 FFFFFFEC         4118  7952   8788  11986  12541  15412  18499  32024M 32128M 32515M 32619M
                                                 33020
 CPFXQT       64 000007E4 FFFFFFEC         4176  7933M 32059M 32258M 32550M 32749M 33176  33628  33942  34134
 CPFXTEND      1 00000759 FFFFFFEC         4108 12036  18545  32017M 32102M 32508M 32593M 33046
 CPGFLG1       1 00000474 FFFFFFEC     R    3530  3534   3539   3544   3549   3554   3884   3884
 CPGFLG10      1 0000047D FFFFFFEC     R    3767  3771   3776   3781   3786   3791   3796
1XCALL    (XCAL2025) (13:01) (15MAR04) Ordinary Symbol and Literal Cross Reference                                          Page  214
 CPGFLG11      1 0000047E FFFFFFEC     R    3802  3806   3811
 CPGFLG12      1 0000047F FFFFFFEC     R    3817  3821   3826   3831
 CPGFLG13      1 00000480 FFFFFFEC     R    3837  3841
 CPGFLG14      1 00000481 FFFFFFEC     R    3847  3851   3856   3861   3866   3871
 CPGFLG4       1 00000477 FFFFFFEC     R    3583  3594   3603   3612   3621   3630
 CPGFLG5       1 00000478 FFFFFFEC     R    3636  3640   3645   3650   3655   3660   3665   3670   3675
 CPGFLG6       1 00000479 FFFFFFEC     R    3681  3685   3690   3695
 CPGFLG7       1 0000047A FFFFFFEC     R    3701  3705   3710   3715   3720
 CPGFLG8       1 0000047B FFFFFFEC     R    3726  3730   3735   3740   3745
 CPGFLG9       1 0000047C FFFFFFEC     R    3751  3755   3761
 CPINIT        1 00000174 FFFFFFEC     U    2700  6157
 CPJESFLG      1 000009E1 FFFFFFEC     R    4432  4436   4441   4446   4451   4456   4461   4466   4471
 CPJESFLY      1 000009FD FFFFFFEC     R    4482  4486   4491   4496
 CPJESHFL      1 000009E0 FFFFFFEC     R    4417  4421   4426   4505   4505
 CPLCNO        4 0000073C FFFFFFEC     F    4074 16895
 CPLFLG1       1 00000D50 FFFFFFEC     R    5300 16482M 16699M
 CPLFLG10      1 00000D59 FFFFFFEC     R    5523  5527
 CPLFLG11      1 00000D5A FFFFFFEC     R    5533  5537   5542   5547   5552
 CPLFLG12      1 00000D5B FFFFFFEC     R    5558  5562
 CPLFLG14      1 00000D5C FFFFFFEC     R    5568  5572   5577   5582   5587   5592
 CPLFLG6       1 00000D55 FFFFFFEC     R    5398  5402   5407   5412   5417   5422   5427
 CPLFLG7       1 00000D56 FFFFFFEC     R    5433  5437   5442   5447   5452   5457
 CPLFLG8       1 00000D57 FFFFFFEC     R    5463  5467   5472   5477   5482
 CPLFLG9       1 00000D58 FFFFFFEC     R    5488  5492   5497   5502   5507   5512   5517
 CPLIMIT       2 000007E0 FFFFFFEC     H    4162  7934
 CPLLIMIT      2 000007E2 FFFFFFEC     H    4163  7934M
 CPLOCALZ      1 00000C48 FFFFFFEC     U    4990  6151   6151
 CPMAXXCT      1 00000100 FFFFFFEC A   U    3922  6827  22500
 CPMFLG        1 0000084F FFFFFFEC     R    4287  4291
 CPMODFLG      1 00000C78 FFFFFFEC     R    5018  5022   5027   5032   5037   5042
 CPNAMELN      1 00000010 FFFFFFEC A   U    3913  4160
 CPNEDPFX     10 00000E29 FFFFFFEC     X    5804  5805   5806
 CPNSCANP      4 0000008C FFFFFFEC     A    2573  8520   8583   8853   9309   9315   9322   9338   9352   9742   9748
                                                  9755   9770   9784   9874   9881   9897  10482  10952  11457  11464
                                                 11479  11488  11495  11510  11550  11605  13106  13115  13121  13128
                                                 13143  13157  13247  13254  13270  13831  14297  16499  16716  18836
                                                 18843  18859  24667  24673  24680  24695  24709  24742  24749  24765
                                                 25014  25021  25037  25116  25133  25151  25157  25164  25180  25381
                                                 25438  25507  25736  25743  25759  26134  26330  26336  26343  26358
                                                 26372  26422  26429  26445  26476  26483  26499  26744  26761  26778
                                                 26863  26869  26876  26891  26905  27079  27086  27101  27167  27174
                                                 27189  27221  27228  27243
 CPNUMFLG      1 00000C79 FFFFFFEC     R    5048  5060
 CPORVCMD      1 00000140 FFFFFFEC     R    2582  2586   2591   2596   2601   2606   2611   2616   2621   2626   2626
                                                  2677   2677
 CPORVFLG      1 00000149 FFFFFFEC     R    2633  2637   2642   2647   2652   2657   2662   2667   2672
 CPORVWF       1 00000150 FFFFFFEC     R    2685  2689
 CPOSCANX      4 00000CA8 FFFFFFEC     F    5217  5284   5284
 CPPLIMIT      1 00000008 FFFFFFEC A   U    4213  7344   7363   7382  29469
 CPPROCNM     16 000007D0 FFFFFFEC     C    4160  7500  12621  32009M 32500M 33009
 CPR          11 0000000B 00000001 A   #    1078  1163U
 CPRACBAD     16 000001FC FFFFFFEC         2751  2785   2785   2786   2786
 CPRACF1       1 000001FC FFFFFFEC     R    2732  2736   2741   2746   2751   2756   2761   2766   2771   2787
 CPRACPSW     32 000001FC FFFFFFEC         2746  2784   2784   2786   2786
 CPRACUND     64 000001FC FFFFFFEC         2741  2784   2784   2785   2785
 CPRCVCUR      4 00000730 FFFFFFEC     A    4068  4070   4070
 CPRFLG        1 000008AA FFFFFFEC     R    4358  4362   4367   4372   4377   4382   4387
 CPRGEXEC      4 0000077C FFFFFFEC     F    4152 32003M 32494M 33003  33841
 CPRGFC        4 0000078C FFFFFFEC     F    4157 15581M 15638M 15638  15880M 15994M 15994  16121M 16156M 16156  16266M
1XCALL    (XCAL2025) (13:01) (15MAR04) Ordinary Symbol and Literal Cross Reference                                          Page  215
                                                 16301M 16301  17538  17640M 17640
 CPRGFLOW      4 00000780 FFFFFFEC     F    4153 32004M 32495M 33004  33842
 CPRGLOAD      4 00000788 FFFFFFEC     F    4156 15580M 15631M 15631  15879M 15987M 15987  16119M 16149M 16149  16264M
                                                 16294M 16294  17275  17281  17532  17547  17633M 17633
 CPRG16       32 00000524 FFFFFFEC     X    3907 20230  20280  20708  20873  21165  21195
 CPRG16NL      1 00000010 FFFFFFEC A   U    3911  6960
 CPRG64       32 00000544 FFFFFFEC     X    3910 17860  17888  18001  18143  20236  20296  20714  20920  21171  21179
 CPRG64NL      1 00000040 FFFFFFEC A   U    3912  6873   6874
 CPS         254 00000344 FFFFFFEC     X    3502  3505   3506   3508   3508
 CPSACCT       5 000003B4 FFFFFFEC     C    3101  3264   3264
 CPSAMCOD      1 00000A22 FFFFFFEC     R    4554  4562   4572   4582   4591   4600   4609   4619   4628   4637
 CPSAMFLG      1 00000A21 FFFFFFEC     R    4514  4518   4523   4528   4533   4538   4543   4548   4659   4659
 CPSCNFLG      1 00000CD0 FFFFFFEC     R    5230  5241   5250   5261
 CPSCNF2       1 00000CD1 FFFFFFEC     R    5266  5270
 CPSCNMAX      1 00000014 FFFFFFEC A   U    5282  5283
 CPSCOPD       4 0000076C FFFFFFEC     F    4147 31999M 32490M 32999
 CPSCOPE       4 00000768 FFFFFFEC     F    4146 31998M 32489M 32998
 CPSCRI        2 00000434 FFFFFFEC     H    3491  3496   3496
 CPSEG        60 00000050 FFFFFFEC     X    2571 10012  10703  11223  11248  11277  11295  11320  11959  12005  12108
                                                 13339  14052  14685  17008  17037  17055  17521  17881  17963  17993
                                                 18164  18263  18293  18472  18518  18572  25549  26036  26222  27587
                                                 27588  27588  27592  27612  27620  27629M 27731  27749  27767  27812
                                                 27830  27848  27897  27940  28003  28415  28456  28499  28562  28963
                                                 28964  28964  28968  28988  28996  29005M 29222  29263  29306  29369
                                                 29482  29608  29661  30023  30024  30024  30028  30048  30056  30065M
                                                 30144  30201  30331  34259  34387  34409  34431  34449  34619  34641
                                                 34815  34837  34859  34877  35502  35558  35576  35602  35786  35823
                                                 35883  35966  36194  36283  36347  36637  36696  36723  36868  36927
                                                 36954
 CPSEGCOD      1 00000050 FFFFFFEC     R    2488  2497   2507   2517   2527   2537   2547   2557
 CPSEGLENF
               4 0000005C FFFFFFEC     A    2563 34347M 34347  34362  34579M 34579  34594  34775M 34775  34790  35462M
                                                 35462  35477
 CPSEGMRKF
               4 00000058 FFFFFFEC     A    2562 34362  34594  34790  35477
 CPSEGRTN      4 00000074 FFFFFFEC     A    2568 27620M 27620  28996M 28996  30056M 30056
 CPSFL         1 00000384 FFFFFFEC     R    2839  2843   2848   2853   2858   2863
 CPSFLG        1 000003F8 FFFFFFEC     R    3379  3383   3388   3393   3398   3403   3408   3413   3418
 CPSFLG2       1 000003F9 FFFFFFEC     R    3424  3428   3433   3438
 CPSFL2        1 00000385 FFFFFFEC     R    2869  2873   2878   2883   2888
 CPSFL3        1 00000386 FFFFFFEC     R    2894  2898   2903   2908
 CPSFL4        1 00000387 FFFFFFEC     R    2914  2918   2923   2928
 CPSFL5        1 00000388 FFFFFFEC     R    2934  2938   2943   2948
 CPSGRP        2 000003B7 FFFFFFEC     C    3103 36592
 CPSKAFL       1 000003BF FFFFFFEC     R    3235  3239   3244   3249   3254   3259
 CPSKIFL       1 000003BE FFFFFFEC     R    3190  3194   3199   3204   3209   3214   3219   3224   3229
 CPSKIP        1 000008BB FFFFFFEC     C    4396 32008M 32499M 33008  33846  34084
 CPSOF         1 000001F8 FFFFFFEC     X    2722  2724   2724
 CPSOFLAG      1 00000416 FFFFFFEC     R    3449  3453   3458   3463   3468   3473
 CPSOPST       4 000003C4 FFFFFFEC     F    3269  3498   3498
 CPSPORT       8 00000354 FFFFFFEC     C    2833  2953   2953
 CPSQFLG       1 000003EC FFFFFFEC     R    3298  3302
 CPSSFLG       1 000003BB FFFFFFEC     R    3108  3112   3117   3122   3127   3132   3137
 CPSSTART      4 00000344 FFFFFFEC     F    2825  2829   2829   3265   3265   3370   3370   3502   3502
 CPSSTAT       1 0000038F FFFFFFEC     R    3045  3049   3054   3059   3064   3069   3074   3079
 CPSTACF       1 000003BC FFFFFFEC     R    3143  3147   3152   3157   3162   3167   3172   3177   3182
 CPSTART       4 00000000 FFFFFFEC     C    2461  6155   6159
 CPSTFLAG      1 000003EA FFFFFFEC     R    3276  3280   3285   3290
 CPSTYPE       1 0000038C FFFFFFEC     R    2958  2967   2977   2987   2997   3007   3017   3027   3037
1XCALL    (XCAL2025) (13:01) (15MAR04) Ordinary Symbol and Literal Cross Reference                                          Page  216
 CPSUFLG       1 000003EE FFFFFFEC     R    3313  3317   3322   3327   3332   3337   3342   3347   3352
 CPSUFLG2      1 000003EF FFFFFFEC     R    3358  3362   3367
 CPSUSER       3 000003B4 FFFFFFEC     C    3102 36606
 CPSVPGM       8 0000039C FFFFFFEC     C    3091  3097   3097
 CPS1ST        4 0000038C FFFFFFEC     F    2955  3500   3500
 CPTEMPP#      1 0000005F FFFFFFEC A   U    4408  4410
 CPTRMFL1      1 00000C7A FFFFFFEC     R    5066  5070   5075   5080   5204   5204
 CPTRMFL2      1 00000C7B FFFFFFEC     R    5086  5090   5095   5100   5105   5110   5115
 CPTRMFL3      1 00000C7C FFFFFFEC     R    5121  5125   5130   5135   5140   5145   5150   5155
 CPTRMFL4      1 00000C7D FFFFFFEC     R    5161  5165   5170   5175   5180   5185   5190   5195
 CPUSED        1 00000FBC FFFFFFEC A   U    6155  6156
 CPVACURS      8 00000AF0 FFFFFFEC     D    4933  4934   4935
 CPVCURS       8 00000AE0 FFFFFFEC     D    4927  4928   4929
 CPVFLAG       1 00000AC8 FFFFFFEC     R    4728  4732   4737   4742   4747   4752
 CPVFLAG2      1 00000AC9 FFFFFFEC     R    4758  4762   4767   4772   4777   4782   4787
 CPVFLAG3      1 00000ACA FFFFFFEC     R    4793  4797   4802   4807   4812   4817   4822
 CPVFLAG4      1 00000ACB FFFFFFEC     R    4828  4832   4837   4842
 CPVLFLAG      1 00000ACE FFFFFFEC     R    4897  4901   4906   4911
 CPVMODE       1 00000ACC FFFFFFEC     R    4850  4854   4859   4864   4869   4874   4879   4884   4889
 CPVSET#       4 00000844 FFFFFFEC     F    4210  8936  12586  12705  12732  12890  13353  13444  19537  19555  30448
                                                 30473M 30478M 30525M 30530M 30701  31031M 31036M 31213  31365M 31371M
                                                 32005M 32496M 33005
 CPVTWID       2 00000AD0 FFFFFFEC     H    4917  4920   4920
 CPWK1         4 00000D60 FFFFFFEC     F    5601  5616   5639
 CPWK2         4 00000D64 FFFFFFEC     F    5602  5617   5631
 CPWK3         4 00000D68 FFFFFFEC     F    5603  5618   5632
 CPWK4         4 00000D6C FFFFFFEC     F    5604  5619   5633
 CPWK5         4 00000D70 FFFFFFEC     F    5605  5621   5626   5634
 CPWK6         4 00000D74 FFFFFFEC     F    5606  5622   5627   5635   5642   5644
 CPWK7         4 00000D78 FFFFFFEC     F    5607  5620   5636
 CPXDPLN       4 000007E8 FFFFFFEC     F    4179 11188  11253
 CPXFLAG       1 000007FD FFFFFFEC     R    4195  4199
 CPXPUSH       6 000007F8 FFFFFFEC     X    4202  7501  32010M 32501M 33010  33848
 CPXSCOPD      4 00000774 FFFFFFEC     F    4149 32001M 32492M 33001  33839
 CPXSCOPE      4 00000770 FFFFFFEC     F    4148 32000M 32491M 33000  33838
 CPXSTATE      4 000007F8 FFFFFFEC     F    4189  4202   4202
 CPXVSET#      4 00000848 FFFFFFEC     F    4211  8936   8973   9000   9155   9160   9170   9930   9935   9945  10080
                                                 10085  10095  11657  11662  11672  12586  19537  31216  31366M 31372M
                                                 32006M 32497M 33006  33844
 CV         4016 00000000 FFFFFFEE     J    2364  1172U
 CV#FEXEC      1 00000800 FFFFFFEE A   U    1599  6827  15854  17719  22503
 CV#XFREE      4 000003A0 FFFFFFEE     F    1598 15835  15859M
 CVABSRTN      4 0000088C FFFFFFEE     V    2178  2153
 CVABTMSG      4 000007CC FFFFFFEE     I    2138  8814B 19382B
 CVBLANKS    235 000004D8 FFFFFFEE     C    1958 16493  16710  25501  35042  35320
 CVBRMSK       1 00000751 FFFFFFEE     X    2094  2095   2096
 CVCFLAG       1 00000A00 FFFFFFEE     R    2259  2263   2268   2273   2278   2283
 CVCHKST       8 000009F0 FFFFFFEE     D    2249  2339   2339
 CVCHKST2      8 00000E28 FFFFFFEE     D    2342  2345   2345
 CVCOMRTN      4 0000087C FFFFFFEE     V    2174  2144
 CVCURJCB      4 000001C8 FFFFFFEE     A    1443 10126  13475
 CVDBGFLG      1 000004CC FFFFFFEE     R    1948  1952
 CVENT         4 0000074C FFFFFFEE     I    2092  7542B  7716B  8485B  8745B  9285B  9516B  9577B  9698B 10335B 10430B
                                                 10619B 10805B 10900B 11113B 11422B 11899B 12498B 13051B 13684B 13779B
                                                 13968B 14154B 14245B 14581B 14970B 15150B 15341B 15745B 16072B 16217B
                                                 16417B 16640B 16840B 17429B 17811B 18084B 18421B 18637B 18782B 19149B
                                                 19216B 19283B 19355B 19473B 19750B 19898B 20030B 20161B 20397B 20643B
                                                 21093B 21293B 21514B 21904B 22142B 22562B 22714B 22826B 23111B 23359B
                                                 23536B 23840B 23985B 24269B 24600B 24985B 25087B 25241B 25676B 25870B
1XCALL    (XCAL2025) (13:01) (15MAR04) Ordinary Symbol and Literal Cross Reference                                          Page  217
                                                 26302B 26651B 26721B 26840B 27045B 27348B 28133B 28721B 29541B 29981B
                                                 30408B 30651B 31178B 31541B 31930B 32421B 32931B 33373B 33764B 34053B
                                                 34225B 34313B 34526B 34727B 34949B 35161B 35277B 35414B 35697B 36064B
                                                 36471B 36794B
 CVENTBR       2 00000750 FFFFFFEE     I    2093  2094
 CVERRMSG      4 000007C8 FFFFFFEE     I    2137  8073B  8224B  9127B 10714B 11542B 11970B 12016B 12119B 12567B 12598B
                                                 12859B 14063B 14696B 14755B 15220B 15486B 15572B 17306B 18483B 18529B
                                                 18583B 19016B 24733B 25561B 26048B 26234B 26396B 26929B 30496B 30548B
                                                 30887B 31024B 31054B 35037B
 CVERROR       4 000007D6 FFFFFFEE     I    2142  2158B 12064B 14639B 14868B 17643B 28351B 28383B 28424B 28465B 28508B
                                                 28571B 28949B 29190B 29231B 29272B 29315B 29378B 31435B 31826B
 CVEXEC       32 00000300 FFFFFFEE     X    1572 15867  17605  19946  22030
 CVEXIRTN      4 0000077C FFFFFFEE     V    2122  2118
 CVEXNO        1 00000000 00000021     T   11783 11783  17739  37012
 CVFCHRKBPR
               8 000004C9 FFFFFFEE         1863  1879   1879
 CVFCHRKBSE
               4 000004C9 FFFFFFEE         1868  1879   1879
 CVFCHRKCPR
               2 000004C9 FFFFFFEE         1885  1901   1901
 CVFCHRKCSE
               1 000004C9 FFFFFFEE         1890  1901   1901
 CVFCHRUBPR
             128 000004C9 FFFFFFEE         1819  1835   1835
 CVFCHRUBSE
              64 000004C9 FFFFFFEE         1824  1835   1835
 CVFCHRUCPR
              32 000004C9 FFFFFFEE         1841  1857   1857
 CVFCHRUCSE
              16 000004C9 FFFFFFEE         1846  1857   1857
 CVFL          1 000004C4 FFFFFFEE     R    1615  1619   1624   1629   1634   1639   1644   1649   1654
 CVFLOW       32 00000320 FFFFFFEE     X    1575 15869  19952
 CVFL2         1 000004C5 FFFFFFEE     R    1660  1664   1669   1674   1679   1684   1689   1694   1699
 CVFL3         1 000004C6 FFFFFFEE     R    1705  1709   1714   1719   1724   1729   1734   1739   1744
 CVFL4         1 000004C7 FFFFFFEE     R    1750  1754   1759   1764   1769   1774   1779   1784
 CVFL5         1 000004C8 FFFFFFEE     R    1790  1794   1799   1804   1809
 CVFL6         1 000004C9 FFFFFFEE     R    1815  1819   1824   1836   1841   1846   1858   1863   1868   1880   1885
                                                  1890   1902
 CVHEAP#       1 00000200 FFFFFFEE A   U    1521  1522
 CVINVRTN      4 00000888 FFFFFFEE     V    2177  2147
 CVJESFLG      1 000004CA FFFFFFEE     R    1908  1912
 CVLNKRGS      4 00000780 FFFFFFEE     F    2124  2099M  2125  20771M 20818M 20895M 20942M 21612M 21675M 21738M 21788M
 CVLNKRTN      4 000007B0 FFFFFFEE     U    2125  2114M
 CVLOCK1       1 00000088 FFFFFFEE     R    1266  1270   1275
 CVLOCK2       1 00000089 FFFFFFEE     R    1280  1284
 CVLOCK3       1 0000008A FFFFFFEE     R    1289  1293
 CVLOCK4       1 0000008B FFFFFFEE     R    1298  1302
 CVLOGMOD      1 00000068 FFFFFFEE     R    1253  1257
 CVMACH        1 00000067 FFFFFFEE     R    1213  1217   1222   1227   1232   1237   1242   1247
 CVMAXLNO      4 0000015C FFFFFFEE     A    1407 35757
 CVMILRTN      4 00000884 FFFFFFEE     V    2176  2156
 CVNEXT        4 000007DE FFFFFFEE     I    2144  8598B 14880B 15069B 15259B 15518B 15826B 17998B 18016B 18298B 18320B
                                                 18683B 19037B 19544B 32344B
 CVNOARTN      4 00000890 FFFFFFEE     V    2179  2150
 CVNWDATE      4 00000608 FFFFFFEE     F    1981  1985   1985
 CVNWMPG#      1 00000008 FFFFFFEE A   U    1983  1984
 CVPFXRTN      1 00000000 00000000 A   T    2122  2122
 CVPGFLAG      1 00000A01 FFFFFFEE     R    2289  2293   2298   2303
 CVPIOSZ       1 00004F80 FFFFFFEE A   U    1352  1354
1XCALL    (XCAL2025) (13:01) (15MAR04) Ordinary Symbol and Literal Cross Reference                                          Page  218
 CVPPDBQH      4 0000009C FFFFFFEE     A    1310  1311
 CVPSFNO       1 000003E9 FFFFFFEE A   N    1474  1476
 CVPSLNO       1 000007CF FFFFFFEE A   N    1475  1476
 CVPXSZ        1 00000008 FFFFFFEE A   U    1353  1354
 CVR          12 0000000C 00000001 A   #    1091  1172U
 CVRG16       32 00000360 FFFFFFEE     X    1582 20466  20516  20720  20749  21365  21395  21567  21653  21716
 CVRG64       32 00000380 FFFFFFEE     X    1586 18171  18305  20472  20532  20726  20796  21371  21379  21573  21590
                                                 21766
 CVRKEY        1 00000008 FFFFFFEE A   U    2047  2048
 CVSEGRTN      4 00000880 FFFFFFEE     V    2175  2139
 CVSTACK#      1 00000080 FFFFFFEE A   U    1513  1514
 CVSTART       4 00000000 FFFFFFEE     C    1186  2357
 CVTRC         4 00000768 FFFFFFEE     I    2114  2100B 20772B 20819B 20896B 20943B 21613B 21676B 21739B 21789B
 CVTRCRTN      4 00000778 FFFFFFEE     V    2121  2115
 CVUSFNO       1 00000001 FFFFFFEE A   N    1481  1483
 CVUSLNO       1 000003E7 FFFFFFEE A   N    1482  1483
 CVVOL#        1 00000005 FFFFFFEE A   U    2332  2333
 CVWTOFLG      1 000004CB FFFFFFEE     R    1918  1922   1927   1932   1937   1942
 DBCALL        1 00000000 0000000E     T    8666  8666  14446
 DBRET         1 00000000 00000013     T   11755 11755  14449
 DEBUGSG       1 00000000 00000000 A   T    2075  2075
 DELPINFO      2 000032A8 00000001     H   21277 17747  22504
 DELUEXEC      2 00002E18 00000001     H   19736 17708  24480
 DELUINFO      2 0000321E 00000001     H   21077 17746  22502
 DEQUOTE       1 00000000 0000001E     T   11780 11780  14464  26996
 DESABORT      1 00000004 FFFFFFEC A   U    6171 17730  17734
 DESRTRN       1 00000080 FFFFFFEC A   U    6164 17730  17734
 DEV          12 00000000 FFFFFFEB     J    4713  4721
 DEVMAX#       1 00000002 FFFFFFEC A   U    4664  4721
 DEVTYPE       1 00000001 FFFFFFEB     R    4681  4690   4700
 DLXWA       176 00000000 FFFFFFC8     J   21068 21090  21119U 21230  21232  21233  21290  21319U 21430  21432  21433
 DLXXF        96 00000000 FFFFFFC8     X   21060 21141  21341
 DLXXFX       80 00000060 FFFFFFC8     X   21061 21142  21342
 DOFNAME       1 00000000 0000003D     T   26988 26988
 DOTTBL        1 00000000 00000000 A   T    2191  2191
 DRENCFLG      1 00000F9F FFFFFFEC     R    6119  6123   6128   6133   6138   6143
 DRENPROT      1 00000F9E FFFFFFEC     R    6106  6114
 DSNON        40 00000E90 FFFFFFEC     C    5839  5840
 DSNWADSN     44 00000E5C FFFFFFEC     C    5826  5827   5828   5829   5838   5846   6077   6083   6085   6091   6094
                                                  6096   6099   6148
 DSNWAF4       1 00000F37 FFFFFFEC     R    5894  5898   5903   5908   5913   5918   5923   5928   5933
 DSNWAF5       1 00000F38 FFFFFFEC     R    5939  5943   5948   5953   5958   5963   5968   5973   5978
 DSNWAF6       1 00000F39 FFFFFFEC     R    5984  5988   5993   5998   6003   6008   6013   6018   6023
 DSNWAF7       1 00000F3A FFFFFFEC     R    6029  6033   6038   6043   6048
 DSNXG         1 00000004 FFFFFFEC A   U    5831  5833
 DSNXGL        1 00000003 FFFFFFEC A   U    5832  5833
 DSNXU         1 00000007 FFFFFFEC A   U    5833  5835
 DSNXUL        1 00000004 FFFFFFEC A   U    5834  5835
 DSSIZ         1 00000108 FFFFFFEC A   U    6077  6085   6094   6099
 EBCTBL        1 00000000 00000000 A   T    2187  2187
 EBCTBL7       1 00000000 00000000 A   T    2190  2190
 ECBLIST       1 00000000 00000000 A   T    2050  2050
 EDTCOM        1 00000000 0000004E     T   34187 34187
 EPARTBL       1 00000000 00000000 A   T    2182  2182
 EVALEXPR      1 00000000 00000048     T   30328 30328
 EVALPARM      2 00004F88 00000001     H   29967 29478
 EVLPDONE      2 00005094 00000001     H   30277 30150B 30207B 30261B
 EXRESET       1 00000000 00000006     T    8646  8646
 EXSPGET       1 00000000 00000054     T   37011 37011
1XCALL    (XCAL2025) (13:01) (15MAR04) Ordinary Symbol and Literal Cross Reference                                          Page  219
 EXTCLOSE      1 00000000 0000002A     T   17714 17714
 EXTOPEN       1 00000000 00000028     T   17709 17709
 FFINFO      928 00000000 FFFFFFE8     J    6811 33455  33456  35000U
 FFMISC        1 00000002 FFFFFFE8     R    6708  6712   6717   6722   6727   6732
 FFORMAT       1 00000000 00000038     T   19695 19695
 FFPTYPE       1 00000003 FFFFFFE8     R    6737  6746   6756   6766   6776   6786
 FFRNAME     128 00000218 FFFFFFE8     C    6800 33456  35070
 FFRNAMEL      4 00000214 FFFFFFE8     F    6799 33455  35025  35043
 FFRQTYPE      1 00000001 FFFFFFE8     R    6664  6673   6683   6693   6703
 FFTYPE        1 00000000 FFFFFFE8     R    6610  6619   6629   6639   6649   6659
 FILEOPTS      1 00000000 0000003E     T   26989 26989
 FILFOPTS      1 00000000 00000042     T   27000 27000
 FLOWCTRL      1 00000000 0000002B     T   17716 17716
 FMTCLCK       1 00000000 00000034     T   18377 18377
 FNAMEFIN      1 00000000 0000003F     T   26991 26991
 FNAMPSHF      1 00000000 0000003C     T   24931 24931
 FSR           0 00000000 00000001 A   #    1001  7537   7585M  7710   8433M  8479   8619M  8739   9246M  9280   9442M
                                                  9511   9552M  9572   9613M  9692  10181M 10330  10403M 10425  10592M
                                                 10614  10777M 10800  10873M 10895  11062M 11108  11354M 11416  11732M
                                                 11893  12420M 12492  12966M 13045  13530M 13679  13752M 13774  13941M
                                                 13963  14126M 14149  14218M 14240  14403M 14575  14909M 14964  15089M
                                                 15144  15280M 15335  15663M 15739  16019M 16067  16176M 16212  16321M
                                                 16411  16569M 16634  16786M 16835  17354M 17423  17666M 17805  18041M
                                                 18078  18345M 18416  18599M 18632  18699M 18776  19058M 19144  19190M
                                                 19211  19257M 19278  19319M 19350  19397M 19467  19662M 19745  19853M
                                                 19893  19985M 20025  20088M 20155  20334M 20391  20570M 20637  21014M
                                                 21087  21230M 21287  21430M 21508  21837M 21899  22062M 22077M 22136
                                                 22469M 22557  22623M 22638M 22708  22783M 22820  23070M 23105  23298M
                                                 23318M 23353  23474M 23494M 23530  23773M 23834  23911M 23979  24195M
                                                 24263  24461M 24594  24856M 24876M 24980  25059M 25082  25214M 25236
                                                 25581M 25670  25803M 25823M 25865  26253M 26297  26528M 26646  26677M
                                                 26693M 26716  26796M 26812M 26835  26952M 26968M 27040  27281M 27296M
                                                 27343  28067M 28082M 28128  28621M 28636M 28715  29428M 29448M 29536
                                                 29918M 29933M 29976  30279M 30294M 30402  30577M 30645  31097M 31172
                                                 31468M 31535  31859M 31925  32367M 32416  32884M 32926  33290M 33367
                                                 33695M 33758  34009M 34048  34165M 34220  34279M 34308  34469M 34520
                                                 34670M 34721  34906M 34944  35101M 35156  35225M 35272  35340M 35408
                                                 35633M 35691  36005M 36058  36428M 36466  36751M 36789  36982M
 GETDATA       1 00000000 0000003B     T   22515 22515  24484  37017
 GETPINFO      2 00002FD8 00000001     H   20381 17722  22506
 GETPROCP      1 00000000 00000026     T   17691 17691
 GETSETNO      2 00003688 00000001     H   22548 17710
 GETSTATE      2 00005914 00000001     H   32917 32913
 GETSTATE      1 00000000 0000000D     T    8664  8664  14444
 GETSUBS       1 00000000 00000046     T   30322 30322
 GETUINFO      2 00002F0C 00000001     H   20145 17706  22505
 GETVAR        1 00000000 00000047     T   30326 30326
 GETVSTK       1 00000000 00000015     T   11761 11761  14453  19697
 GETXINFO      2 00002ED4 00000001     H   20016  8648  17745  22511  37019
 GETXNAME      2 00003520 00000001     H   22126 22122
 GETXRG        2 000034B2 00000001     H   21890 22518
 GETXR0        4 00000000 FFFFFFCA     F   20125 20225M 20244  20461M 20480
 GETXR1        4 00000004 FFFFFFCA     F   20126 20226M 20245  20462M 20481
 GETXR2        4 00000008 FFFFFFCA     F   20127 20227M 20307  20463M 20543
 GETXWA      188 00000000 FFFFFFCA     J   20136 20158  20187U 20334  20336  20337  20394  20423U 20570  20572  20573
 GETXXF       96 0000000C FFFFFFCA     X   20128 20209  20445
 GETXXFX      80 0000006C FFFFFFCA     X   20129 20210  20446
 GTNEWSET      1 00000000 00000007     T    8653  8653  14436  31874  34189
 GTPNLIST      1 00000000 00000025     T   14440 14440
1XCALL    (XCAL2025) (13:01) (15MAR04) Ordinary Symbol and Literal Cross Reference                                          Page  220
 GTPSCOPD      4 00000004 FFFFFFB9     F   33731 33812M 33837
 GTPSCOPE      4 00000000 FFFFFFB9     F   33730 33811M 33834  33836
 GTPSCOPE      1 00000000 00000050     T   34192 34192
 GTPSTART      2 00005B46 00000001     H   33748 14445
 GTPVSET#      4 00000008 FFFFFFB9     F   33732 33817M 33843
 GTPWA        12 00000000 FFFFFFB9     J   33739 33761  33790U 34009  34011  34012
 GTPXDONE      2 00003096 00000001     H   20550 20524B 20540B
 GTUXDONE      2 00002FCA 00000001     H   20314 20288B 20304B
 GTX#XSET      4 00000000 FFFFFFBA     F   33327 33413M 33418  33521
 GTXAUTHLIB
             128 00000018 FFFFFFBA        33339 33494M 33551
 GTXFLAG       1 00000018 FFFFFFBA     R   33335 33339
 GTXGEXEC      4 00000004 FFFFFFBA     F   33328 33414M 33522
 GTXGFLOW      4 00000008 FFFFFFBA     F   33329 33415M 33419  33523
 GTXNLIST      1 00000000 00000009     T    8658  8658
 GTXSCOPD      4 00000010 FFFFFFBA     F   33331 33425M 33518  33520
 GTXSCOPE      4 0000000C FFFFFFBA     F   33330 33424M 33515  33517  33519
 GTXSCOPE      1 00000000 0000004F     T   34188 34188
 GTXSTART      2 00005A24 00000001     H   33357  8665
 GTXVSET#      4 00000014 FFFFFFBA     F   33332 33430M 33524  33525
 GTXWA        25 00000000 FFFFFFBA     J   33348 33370  33399U 33695  33697  33698
 GXNRECD      96 00000004 FFFFFFC6     X   22109 22190  22248  22249
 GXNSET        4 00000000 FFFFFFC6     F   22108 22194M 22366
 GXNWA       100 00000000 FFFFFFC6     J   22116 22139  22168U 22469  22471  22472
 HIBAL         1 00000000 FFFFFFFF     J     691   707    720    733    746    759    772    785    798    811    824
                                                   837    850    863    876    889    902
 INITATTN      1 00000000 00000004     T    8644  8644
 INITERR       1 00000000 00000003     T    8643  8643
 INITXCAL      2 00000026 00000001     H    7528  7524
 INITXDMP      1 00000000 00000005     T    8645  8645
 INVALID       1 00000000 00000000 A   T    2177  2177
 JCB         208 00000000 FFFFFFE9     J    6580 10134U 13483U
 JCBAFL        1 00000062 FFFFFFE9     R    6425  6429   6434   6439   6444   6449   6454   6459   6464
 JCBBFL        1 00000063 FFFFFFE9     R    6470  6474   6479   6484   6489   6494   6499   6504
 JCBBILLX      8 00000088 FFFFFFE9     D    6555  6563   6563
 JCBFATTN      2 00000062 FFFFFFE9         6459 10141M 13490M
 JCBRSCF1      1 00000064 FFFFFFE9     R    6510  6514   6519   6524
 JCBSFLG1      1 00000065 FFFFFFE9     R    6530  6534   6539
 JCBWFL        1 00000060 FFFFFFE9     R    6354  6358   6363   6368   6373   6378   6383   6388   6393   6421
 JCBWWFL       1 00000061 FFFFFFE9     R    6399  6403   6408   6413   6418
 KALIST      512 00000000 FFFFFFC2     X   24237 24330  24331  24357  24361  24361
 KAWA        512 00000000 FFFFFFC2     J   24244 24266  24295U 24461  24463  24464
 LDAAREA     478 00000000 FFFFFFCF     X   16608 16679
 LDABORT       2 000023CA 00000001     H   17413 17409  17733
 LDACT         2 000021DC 00000001     H   16624 17727
 LDAWA       478 00000000 FFFFFFCF     J   16615 16637  16666U 16786  16788  16789
 LDDAREA     478 00000000 FFFFFFD0     X   16385 16456
 LDDSN         2 00002160 00000001     H   16401 17713
 LDDWA       478 00000000 FFFFFFD0     J   16392 16414  16443U 16569  16571  16572
 LDLEN         4 00000004 FFFFFFD1     F   16346 16885  16897M 16958  16965  16969M 16989  17073  17138M 17138  17206
                                                 17208M 17256M 17256  17282  17334M 17334
 LDLINE      470 00000008 FFFFFFD1     C   16347 16925M 16957  17071  17072  17283
 LDLNO         4 00000000 FFFFFFD1     F   16345 16896M 17013  17284
 LDPWA       192 00000000 FFFFFFD2     J   15720 15742  15771U 16019  16021  16022
 LDPXFNEW     96 00000060 FFFFFFD2     X   15713 15793  15920  15943
 LDPXFOLD     96 00000000 FFFFFFD2     X   15712 15920M 15925  15926  15942
 LDRLINE       4 0000237C 00000001     I   17275 17209B
 LDWA        478 00000000 FFFFFFD1     J   16354 16385  16454U 16466M 16466  16467M 16467  16608  16677U 16689M 16689
                                                 16690M 16690  16868U
1XCALL    (XCAL2025) (13:01) (15MAR04) Ordinary Symbol and Literal Cross Reference                                          Page  221
 LOADACT       2 00002050 00000001     H   16058  8651  17700
 LOADDSN       2 00001E0E 00000001     H   15325  8649  17701
 LOADPUB       2 00001F3E 00000001     H   15729 17702
 LOADRTN       2 00002254 00000001     H   16826 17731
 LOADTEMP      2 000020D8 00000001     H   16203 19687
 LOADWA       96 00000000 FFFFFFD3     J   15316 15338  15367U 15663  15665  15666
 LOADXF       96 00000000 FFFFFFD3     X   15309 15389
 LOCALTOD      1 00000000 00000029     T   17711 17711
 LOCATRTN      1 00000000 FFFFFFEC A   U    6168 17734
 LOWTBL        1 00000000 00000000 A   T    2185  2185
 LRTRIM        1 00000000 00000014     T   11756 11756  17736  29467
 LSR           8 00000008 00000001 A   #    1039  7537   7585M  7710   8433M  8479   8619M  8739   9246M  9280   9442M
                                                  9511   9552M  9572   9613M  9692  10181M 10330  10403M 10425  10592M
                                                 10614  10777M 10800  10873M 10895  11062M 11108  11354M 11416  11732M
                                                 11893  12420M 12492  12966M 13045  13530M 13679  13752M 13774  13941M
                                                 13963  14126M 14149  14218M 14240  14403M 14575  14909M 14964  15089M
                                                 15144  15280M 15335  15663M 15739  16019M 16067  16176M 16212  16321M
                                                 16411  16569M 16634  16786M 16835  17354M 17423  17666M 17805  18041M
                                                 18078  18345M 18416  18599M 18632  18699M 18776  19058M 19144  19190M
                                                 19211  19257M 19278  19319M 19350  19397M 19467  19662M 19745  19853M
                                                 19893  19985M 20025  20088M 20155  20334M 20391  20570M 20637  21014M
                                                 21087  21230M 21287  21430M 21508  21837M 21899  22077M 22136  22469M
                                                 22557  22638M 22708  22783M 22820  23070M 23105  23318M 23353  23494M
                                                 23530  23773M 23834  23911M 23979  24195M 24263  24461M 24594  24876M
                                                 24980  25059M 25082  25214M 25236  25581M 25670  25823M 25865  26253M
                                                 26297  26528M 26646  26693M 26716  26812M 26835  26968M 27040  27296M
                                                 27343  28082M 28128  28636M 28715  29448M 29536  29933M 29976  30294M
                                                 30402  30577M 30645  31097M 31172  31468M 31535  31859M 31925  32367M
                                                 32416  32884M 32926  33290M 33367  33695M 33758  34009M 34048  34165M
                                                 34220  34279M 34308  34469M 34520  34670M 34721  34906M 34944  35101M
                                                 35156  35225M 35272  35340M 35408  35633M 35691  36005M 36058  36428M
                                                 36466  36751M 36789  36982M
 LXCATRTN      1 00000060 FFFFFFEC A   U    6167 17730
 MALIST      512 00000000 FFFFFFC3     X   23953 24046  24047  24073  24077  24077  24158  24159
 MALL          1 00000000 00000010     T    9495  9495  10311  13660  19126  24914  24945  24961  25846  26581  26627
 MANYPARM      2 00005CBC 00000001     H   34211 29470
 MAWA        512 00000000 FFFFFFC3     J   23960 23982  24011U 24195  24197  24198
 MAXSTRLN      1 00000100 FFFFFFE4 A   N    7278  7279   7307
 MILERR        1 00000000 00000000 A   T    2176  2176
 MKFFINFO      1 00000000 00000002     T    8640  8640
 MPARM         1 00000000 00000011     T   10236 10236  10251  10296  13585  13600  13645
 MPINT         1 00000000 00000037     T   19111 19111
 MRKADONE      2 00003A94 00000001     H   24175 24039B 24133B
 MRKALIST      2 000039FE 00000001     H   23969  8655  17712
 MRKNAME       2 00005EEE 00000001     H   35147 17720  22512  35143
 MTOKEN        1 00000000 0000000F     T    9465  9465   9480  10206  10221  10266  10281  13555  13570  13615  13630
                                                 19081  19096  24899  26551  26566  26597  26612
 NBLTBL        1 00000000 00000000 A   T    2189  2189
 NDETRNG       1 00000000 0000002E     T   17729 17729
 NLIST       256 00000000 FFFFFFE2     J    7351  7680   8705   8706   8707   8708   9035   9037   9061  11864  12458
                                                 12459  12460  12461  12767  12769  12793  29468  31882
 NOACTION      1 00000000 00000000 A   T    2179  2179
 NOOPTS        1 00000000 00000027     T   17699 17699  19685  29466
 NOTVALID      1 00000000 0000001D     T   11777 11777  14461
 NPARTBL       1 00000000 00000000 A   T    2183  2183
 NRESOLVE      1 00000000 00000040     T   26992 26992
 NSCAN         1 00000000 00000019     T   11769 11769  14457  19690  26984  29464
 NSCNCB      176 00000000 FFFFFFED     J    2448  2574   8521   8522   8584M  8585M  8854   8855   9310   9312   9323
                                                  9324   9325   9328M  9329M  9331M  9341M  9342M  9343M  9355   9743
1XCALL    (XCAL2025) (13:01) (15MAR04) Ordinary Symbol and Literal Cross Reference                                          Page  222
                                                  9745   9756   9757   9758   9761M  9762M  9763M  9773M  9774M  9775M
                                                  9787   9882   9883   9884   9887M  9888M  9890M  9900M  9901M  9902M
                                                 10483  10953  11465  11466  11467  11470M 11471M 11472M 11482M 11483M
                                                 11484M 11496  11497  11498  11501M 11502M 11503M 11513M 11514M 11515M
                                                 11551  11566  11581  11582  11583M 11583  11584  11585M 11598M 11606
                                                 11607  11787  13107M 13108M 13116  13118  13129  13130  13131  13134M
                                                 13135M 13136M 13146M 13147M 13148M 13160  13255  13256  13257  13260M
                                                 13261M 13263M 13273M 13274M 13275M 13832  14298  14467  16500M 16501M
                                                 16717M 16718M 18844  18845  18846  18849M 18850M 18852M 18862M 18863M
                                                 18864M 24668  24670  24681  24682  24683  24686M 24687M 24688M 24698M
                                                 24699M 24700M 24712  24750  24751  24752  24755M 24756M 24758M 24768M
                                                 24769M 24770M 25022  25023  25024  25027M 25028M 25030M 25040M 25041M
                                                 25042M 25117  25119  25134M 25135M 25154  25165  25166  25167  25170M
                                                 25171M 25173M 25183M 25184M 25185M 25439  25440  25508M 25509M 25744
                                                 25745  25746  25749M 25750M 25752M 25762M 25763M 25764M 26135  26136
                                                 26331  26333  26344  26345  26346  26349M 26350M 26351M 26361M 26362M
                                                 26363M 26375  26430  26431  26432  26435M 26436M 26438M 26448M 26449M
                                                 26450M 26484  26485  26486  26489M 26490M 26492M 26502M 26503M 26504M
                                                 26745  26747  26762M 26763M 26781  26864  26866  26877  26878  26879
                                                 26882M 26883M 26884M 26894M 26895M 26896M 26908  27002  27087  27088
                                                 27089  27092M 27093M 27094M 27104M 27105M 27106M 27175  27176  27177
                                                 27180M 27181M 27182M 27192M 27193M 27194M 27229  27230  27231  27234M
                                                 27235M 27236M 27246M 27247M 27248M
 NSCNFLGS      1 00000008 FFFFFFED     R    2385  2389   2394
 NSCNKWS       4 00000028 FFFFFFED     A    2434  9323   9331M  9341M  9756   9763M  9773M  9882   9890M  9900M 11465
                                                 11472M 11482M 11496  11503M 11513M 13129  13136M 13146M 13255  13263M
                                                 13273M 18844  18852M 18862M 24681  24688M 24698M 24750  24758M 24768M
                                                 25022  25030M 25040M 25165  25173M 25183M 25744  25752M 25762M 26344
                                                 26351M 26361M 26430  26438M 26448M 26484  26492M 26502M 26877  26884M
                                                 26894M 27087  27094M 27104M 27175  27182M 27192M 27229  27236M 27246M
 NSCNLEN       4 00000004 FFFFFFED     F    2382  8522   8585M  8855  11584  11585M 11607  13108M 16501M 16718M 25135M
                                                 25440  25509M 26136  26763M
 NSCNLOC       4 00000000 FFFFFFED     A    2381  8521   8584M  8854  11581  11583M 11606  13107M 16500M 16717M 25134M
                                                 25439  25508M 26135  26762M
 NSCNSKIP      4 00000024 FFFFFFED     A    2433  9324   9328M  9342M  9757   9761M  9774M  9883   9887M  9901M 11466
                                                 11470M 11483M 11497  11501M 11514M 13130  13134M 13147M 13256  13260M
                                                 13274M 18845  18849M 18863M 24682  24686M 24699M 24751  24755M 24769M
                                                 25023  25027M 25041M 25166  25170M 25184M 25745  25749M 25763M 26345
                                                 26349M 26362M 26431  26435M 26449M 26485  26489M 26503M 26878  26882M
                                                 26895M 27088  27092M 27105M 27176  27180M 27193M 27230  27234M 27247M
 NSCNSTOP      4 00000020 FFFFFFED     A    2432  9325   9329M  9343M  9758   9762M  9775M  9884   9888M  9902M 11467
                                                 11471M 11484M 11498  11502M 11515M 13131  13135M 13148M 13257  13261M
                                                 13275M 18846  18850M 18864M 24683  24687M 24700M 24752  24756M 24770M
                                                 25024  25028M 25042M 25167  25171M 25185M 25746  25750M 25764M 26346
                                                 26350M 26363M 26432  26436M 26450M 26486  26490M 26504M 26879  26883M
                                                 26896M 27089  27093M 27106M 27177  27181M 27194M 27231  27235M 27248M
 NSCNTLEN      4 00000014 FFFFFFED     F    2400 11551  11598M
 NSCNTLOC      4 00000010 FFFFFFED     A    2399 11566  11582  11583
 NSCNTOK      16 00000030 FFFFFFED     C    2436 10483  10953  13832  14298
 NSCNTYPE      1 00000018 FFFFFFED     R    2403  2407   2412   2417   2422   2427
 PABORT        2 000014AC 00000001     H   13035 14451
 PABRTPRT      4 0000169C 00000001     F   13544 14459
 PARMERR       2 00005CFA 00000001     H   34299 29475
 PASSPARM      2 00005146 00000001     H   30392  8660  14442
 PASSPRMS      2 00005232 00000001     H   30635  8659  14441
 PBATTNID      8 000000FC FFFFFFD7     C   13018 13235M 13432  13433  14339M 14345
 PBERRID       8 00000004 FFFFFFD7     C   13015 13190M 13303  13873M 13879
 PBERRMLN      4 000000F8 FFFFFFD7     F   13017 13195M 13304  14068M
 PBERRMSG    235 0000000C FFFFFFD7     C   13016 13223M 13305  14096M
1XCALL    (XCAL2025) (13:01) (15MAR04) Ordinary Symbol and Literal Cross Reference                                          Page  223
 PBFATTN      64 00000000 FFFFFFD7        13011 13418  13720  13815  14004  14180M 14271M
 PBFERROR    128 00000000 FFFFFFD7        13006 13295  13710M 13805M 13994M 14190  14281
 PBFLAG        1 00000000 FFFFFFD7     R   13002 13006  13011  13189M
 PBSTATE     136 00000104 FFFFFFD7     X   13019 13242M 13242  13350  13351  13377  13396  13441  13442  13468  13498
 PBWA        396 00000000 FFFFFFD7     J   13026 13048  13077U 13081  13089U 13530  13532  13533
 PCALL         2 000010F0 00000001     H   11883 11879
 PCLEND        4 00000018 FFFFFFD9     F   11858 12125M
 PCLFLAG       1 00000000 FFFFFFD9     R   11833 11842  11852
 PCLFREE       2 00000000 FFFFFFD9        11852 12172M
 PCLNAME      16 00000004 FFFFFFD9     C   11856 12059  12067  12093  12100  12290  12353  12377
 PCLNLIST    256 00000214 FFFFFFD9     X   11864 12291  12300  12326  12327
 PCLPARMS      1 00000000 FFFFFFD9        11842 12151M 12242  12271
 PCLPLIST    256 00000114 FFFFFFD9     X   11863 12250  12317  12318
 PCLSTART      4 00000014 FFFFFFD9     F   11857 12124M
 PCLSTATE    136 00000D94 FFFFFFD9     X   11866 12336  12344  12354  12388
 PCLVLIST   2688 00000314 FFFFFFD9     X   11865 12279  12299
 PCLWA      3612 00000000 FFFFFFD9     J   11873 11896  11925U 12050  12051  12420  12422  12423
 PCNEWSET      4 0000001C FFFFFFD9     F   11859 12224M 12226  12301  12320  12329  12346
 PCPARM      235 00000020 FFFFFFD9     X   11860 12206M 12249  12278  12309
 PCPARMCT      4 00000110 FFFFFFD9     F   11862 12173M 12255M 12298  12310
 PCPARMLN      4 0000010C FFFFFFD9     F   11861 12178M 12179  12248  12277  12308
 PLDWA        64 00000000 FFFFFFD4     J   15124 15147  15176U 15280  15282  15283
 PLIST       256 00000000 FFFFFFE0     J    7389  7679  11863  14543  29479
 POPERR        1 00000000 00000018     T   11764 11764
 POPON         1 00000000 00000017     T   11763 11763
 PPCNT         4 00000000 FFFFFFBD     F   30613 30681M 30851  30901
 PPCURSET      4 00000010 FFFFFFBD     F   30617 30702M 31036
 PPNCNT        4 00000014 FFFFFFBD     F   30618 30829M 30875
 PPNEWSET      4 0000000C FFFFFFBD     F   30616 30684M 31031
 PPNLIST       4 00000004 FFFFFFBD     F   30614 30683M 30781  30782  30899
 PPPATNID      2 0000193C 00000001     H   14231 13646
 PPPATTN       2 00001902 00000001     H   14140 13616  13631
 PPPERRID      2 00001818 00000001     H   13765 13586
 PPPERRMS      2 00001894 00000001     H   13954 13601
 PPPERROR      2 000017DC 00000001     H   13670 13556  13571
 PPRMCNT       4 00000008 FFFFFFBE     F   30373 30440M 30457
 PPRMCSET      4 00000010 FFFFFFBE     F   30375 30449M 30478  30530
 PPRMLEN       4 00000004 FFFFFFBE     F   30372 30438M 30508
 PPRMLOC       4 00000000 FFFFFFBE     F   30371 30439M 30509
 PPRMNSET      4 0000000C FFFFFFBE     F   30374 30447M 30473  30525
 PPRMVAR     336 00000014 FFFFFFBE     X   30376 30452  30471  30472  30503  30523  30524
 PPRMWA      356 00000000 FFFFFFBE     J   30383 30405  30434U 30577  30579  30580
 PPVCNT        4 00000018 FFFFFFBD     F   30619 30762M 30851  30875
 PPVLIST       4 00000008 FFFFFFBD     F   30615 30682M 30714  30715  30898
 PPWA         28 00000000 FFFFFFBD     J   30626 30648  30677U 31097  31099  31100
 PRCNT         4 00000000 FFFFFFD8     F   12457 12690M 12771  12914
 PRETURN       2 000012EE 00000001     H   12482 12478
 PRLIST      256 00000304 FFFFFFD8     X   12461 12766  12772  12916
 PRNLIST     256 00000104 FFFFFFD8     X   12459 12702  12703  12791  12792  12864
 PRPARM        4 00000E88 FFFFFFD8     F   12464 12637M 12684  12694
 PRPARMLN      4 00000E84 FFFFFFD8     F   12463 12636M 12683  12693
 PRPLIST     256 00000204 FFFFFFD8     X   12460 12729  12730  12866
 PRRLIST     256 00000004 FFFFFFD8     X   12458 12695  12768  12917
 PRSTATE     136 00000E8C FFFFFFD8     X   12465 12887  12888  12918  12919  12926  12933
 PRVLIST    2688 00000404 FFFFFFD8     X   12462 12685  12915
 PRWA       3860 00000000 FFFFFFD8     J   12472 12495  12524U 12966  12968  12969
 PSCNPARM      2 00004600 00000001     H   27031 11758  14450  27027
 PUBLOAD       2 00001DB6 00000001     H   15134 15130
 PUSHERR       1 00000000 0000000C     T    8663  8663
1XCALL    (XCAL2025) (13:01) (15MAR04) Ordinary Symbol and Literal Cross Reference                                          Page  224
 PUSHON        1 00000000 0000000B     T    8662  8662
 RAR          14 0000000E 00000001 A   #    1117  2114   2115M  2116B  2118M  2119B  2139M  2140B  2144M  2145B  2147M
                                                  2148B  2150M  2151B  2153M  2154B  2156M  2157M  2157B  2163   7534
                                                  7565M  7566M  7566B  7569M  7570M  7570B  7587M  7590B  7707   7759M
                                                  7760M  7760B  7765M  7766M  7766B  7917M  7918M  7918B  7921M  7922M
                                                  7922B  7925M  7926M  7926B  7974M  7975M  7975B  8000M  8001M  8001B
                                                  8010M  8011M  8011B  8025M  8026M  8026B  8080M  8081M  8081B  8111M
                                                  8112M  8112B  8191M  8192M  8192B  8198M  8199M  8199B  8205M  8206M
                                                  8206B  8251M  8252M  8252B  8280M  8281M  8281B  8293M  8294M  8294B
                                                  8303M  8304M  8304B  8312M  8313M  8313B  8322M  8323M  8323B  8331M
                                                  8332M  8332B  8338M  8339M  8339B  8343M  8344M  8344B  8350M  8351M
                                                  8351B  8360M  8361M  8361B  8370M  8371M  8371B  8393M  8394M  8394B
                                                  8404M  8405M  8405B  8435M  8438B  8476   8592M  8593M  8593B  8621M
                                                  8624B  8736   8840M  8841M  8841B  8862M  8863M  8863B  8896M  8897M
                                                  8897B  8906M  8907M  8907B  8956M  8957M  8957B  8966M  8967M  8967B
                                                  8976M  8977M  8977B  9003M  9004M  9004B  9119M  9120M  9120B  9158M
                                                  9159M  9159B  9163M  9164M  9164B  9173M  9174M  9174B  9202M  9203M
                                                  9203B  9209M  9210M  9210B  9216M  9217M  9217B  9248M  9251B  9277
                                                  9334M  9335M  9335B  9348M  9349M  9349B  9402M  9403M  9403B  9421M
                                                  9422M  9422B  9444M  9447B  9508   9554M  9557B  9569   9615M  9618B
                                                  9689   9766M  9767M  9767B  9780M  9781M  9781B  9893M  9894M  9894B
                                                  9907M  9908M  9908B  9933M  9934M  9934B  9938M  9939M  9939B  9948M
                                                  9949M  9949B  9972M  9973M  9973B 10015M 10016M 10016B 10038M 10039M
                                                 10039B 10076M 10077M 10077B 10083M 10084M 10084B 10088M 10089M 10089B
                                                 10098M 10099M 10099B 10122M 10123M 10123B 10152M 10153M 10153B 10183M
                                                 10186B 10327  10379M 10380M 10380B 10405M 10408B 10422  10474M 10475M
                                                 10475B 10518M 10519M 10519B 10568M 10569M 10569B 10594M 10597B 10611
                                                 10663M 10664M 10664B 10671M 10672M 10672B 10706M 10707M 10707B 10779M
                                                 10782B 10797  10849M 10850M 10850B 10875M 10878B 10892  10944M 10945M
                                                 10945B 10988M 10989M 10989B 11038M 11039M 11039B 11064M 11067B 11105
                                                 11226M 11227M 11227B 11251M 11252M 11252B 11256M 11257M 11257B 11280M
                                                 11281M 11281B 11298M 11299M 11299B 11323M 11324M 11324B 11356M 11359B
                                                 11413  11475M 11476M 11476B 11506M 11507M 11507B 11520M 11521M 11521B
                                                 11660M 11661M 11661B 11665M 11666M 11666B 11675M 11676M 11676B 11699M
                                                 11700M 11700B 11707M 11708M 11708B 11734M 11737B 11890  11962M 11963M
                                                 11963B 12008M 12009M 12009B 12062M 12063M 12063B 12070M 12071M 12071B
                                                 12111M 12112M 12112B 12130M 12131M 12131B 12222M 12223M 12223B 12229M
                                                 12230M 12230B 12253M 12254M 12254B 12282M 12283M 12283B 12294M 12295M
                                                 12295B 12304M 12305M 12305B 12313M 12314M 12314B 12323M 12324M 12324B
                                                 12332M 12333M 12333B 12339M 12340M 12340B 12349M 12350M 12350B 12357M
                                                 12358M 12358B 12380M 12381M 12381B 12391M 12392M 12392B 12422M 12425B
                                                 12489  12624M 12625M 12625B 12634M 12635M 12635B 12675M 12676M 12676B
                                                 12688M 12689M 12689B 12698M 12699M 12699B 12708M 12709M 12709B 12735M
                                                 12736M 12736B 12851M 12852M 12852B 12893M 12894M 12894B 12922M 12923M
                                                 12923B 12929M 12930M 12930B 12936M 12937M 12937B 12968M 12971B 13042
                                                 13139M 13140M 13140B 13153M 13154M 13154B 13266M 13267M 13267B 13280M
                                                 13281M 13281B 13342M 13343M 13343B 13356M 13357M 13357B 13380M 13381M
                                                 13381B 13399M 13400M 13400B 13437M 13438M 13438B 13447M 13448M 13448B
                                                 13471M 13472M 13472B 13501M 13502M 13502B 13532M 13535B 13676  13728M
                                                 13729M 13729B 13754M 13757B 13771  13823M 13824M 13824B 13867M 13868M
                                                 13868B 13917M 13918M 13918B 13943M 13946B 13960  14012M 14013M 14013B
                                                 14020M 14021M 14021B 14055M 14056M 14056B 14128M 14131B 14146  14198M
                                                 14199M 14199B 14220M 14223B 14237  14289M 14290M 14290B 14333M 14334M
                                                 14334B 14383M 14384M 14384B 14405M 14408B 14572  14637M 14638M 14638B
                                                 14644M 14645M 14645B 14688M 14689M 14689B 14705M 14706M 14706B 14822M
                                                 14823M 14823B 14851M 14852M 14852B 14876M 14877M 14877B 14911M 14914B
                                                 14961  15005M 15006M 15006B 15025M 15026M 15026B 15029M 15030M 15030B
                                                 15062M 15063M 15063B 15091M 15094B 15141  15196M 15197M 15197B 15252M
                                                 15253M 15253B 15282M 15285B 15332  15396M 15397M 15397B 15434M 15435M
1XCALL    (XCAL2025) (13:01) (15MAR04) Ordinary Symbol and Literal Cross Reference                                          Page  225
                                                 15435B 15450M 15451M 15451B 15467M 15468M 15468B 15495M 15496M 15496B
                                                 15505M 15506M 15506B 15529M 15530M 15530B 15544M 15545M 15545B 15553M
                                                 15554M 15554B 15586M 15587M 15587B 15592M 15593M 15593B 15599M 15600M
                                                 15600B 15605M 15606M 15606B 15612M 15613M 15613B 15665M 15668B 15736
                                                 15807M 15808M 15808B 15813M 15814M 15814B 15873M 15874M 15874B 15885M
                                                 15886M 15886B 15891M 15892M 15892B 15898M 15899M 15899B 15903M 15904M
                                                 15904B 15909M 15910M 15910B 15916M 15917M 15917B 15929M 15930M 15930B
                                                 15946M 15947M 15947B 15966M 15967M 15967B 16021M 16024B 16064  16097M
                                                 16098M 16098B 16106M 16107M 16107B 16113M 16114M 16114B 16126M 16127M
                                                 16127B 16132M 16133M 16133B 16178M 16181B 16209  16242M 16243M 16243B
                                                 16251M 16252M 16252B 16258M 16259M 16259B 16271M 16272M 16272B 16277M
                                                 16278M 16278B 16323M 16326B 16408  16508M 16509M 16509B 16523M 16524M
                                                 16524B 16539M 16540M 16540B 16571M 16574B 16631  16725M 16726M 16726B
                                                 16740M 16741M 16741B 16756M 16757M 16757B 16788M 16791B 16832  16893M
                                                 16894M 16894B 16955M 16956M 16956B 17011M 17012M 17012B 17016M 17017M
                                                 17017B 17040M 17041M 17041B 17058M 17059M 17059B 17062M 17063M 17063B
                                                 17279M 17280M 17280B 17287M 17288M 17288B 17356M 17359B 17420  17524M
                                                 17525M 17525B 17536M 17537M 17537B 17542M 17543M 17543B 17551M 17552M
                                                 17552B 17583M 17584M 17584B 17608M 17609M 17609B 17668M 17671B 17802
                                                 17864M 17865M 17865B 17884M 17885M 17885B 17894M 17895M 17895B 17915M
                                                 17916M 17916B 17935M 17936M 17936B 17966M 17967M 17967B 17971M 17972M
                                                 17972B 17996M 17997M 17997B 18007M 18008M 18008B 18043M 18046B 18075
                                                 18147M 18148M 18148B 18167M 18168M 18168B 18177M 18178M 18178B 18215M
                                                 18216M 18216B 18235M 18236M 18236B 18266M 18267M 18267B 18271M 18272M
                                                 18272B 18296M 18297M 18297B 18311M 18312M 18312B 18347M 18350B 18413
                                                 18475M 18476M 18476B 18521M 18522M 18522B 18575M 18576M 18576B 18601M
                                                 18604B 18629  18662M 18663M 18663B 18668M 18669M 18669B 18674M 18675M
                                                 18675B 18701M 18704B 18773  18855M 18856M 18856B 18869M 18870M 18870B
                                                 18875M 18876M 18876B 18882M 18883M 18883B 19025M 19026M 19026B 19060M
                                                 19063B 19141  19192M 19195B 19208  19259M 19262B 19275  19321M 19324B
                                                 19347  19399M 19402B 19464  19558M 19559M 19559B 19603M 19604M 19604B
                                                 19633M 19634M 19634B 19664M 19667B 19742  19818M 19819M 19819B 19824M
                                                 19825M 19825B 19832M 19833M 19833B 19855M 19858B 19890  19950M 19951M
                                                 19951B 19956M 19957M 19957B 19964M 19965M 19965B 19987M 19990B 20022
                                                 20053M 20054M 20054B 20068M 20069M 20069B 20090M 20093B 20152  20234M
                                                 20235M 20235B 20240M 20241M 20241B 20286M 20287M 20287B 20302M 20303M
                                                 20303B 20336M 20339B 20388  20470M 20471M 20471B 20476M 20477M 20477B
                                                 20522M 20523M 20523B 20538M 20539M 20539B 20572M 20575B 20634  20712M
                                                 20713M 20713B 20718M 20719M 20719B 20724M 20725M 20725B 20730M 20731M
                                                 20731B 20755M 20756M 20756B 20802M 20803M 20803B 20879M 20880M 20880B
                                                 20926M 20927M 20927B 21016M 21019B 21084  21148M 21149M 21149B 21169M
                                                 21170M 21170B 21175M 21176M 21176B 21183M 21184M 21184B 21199M 21200M
                                                 21200B 21232M 21235B 21284  21348M 21349M 21349B 21369M 21370M 21370B
                                                 21375M 21376M 21376B 21383M 21384M 21384B 21399M 21400M 21400B 21432M
                                                 21435B 21505  21571M 21572M 21572B 21577M 21578M 21578B 21585M 21586M
                                                 21586B 21596M 21597M 21597B 21659M 21660M 21660B 21722M 21723M 21723B
                                                 21772M 21773M 21773B 21839M 21842B 21896  22079M 22082B 22133  22253M
                                                 22254M 22254B 22369M 22370M 22370B 22387M 22388M 22388B 22471M 22474B
                                                 22554  22590M 22591M 22591B 22605M 22606M 22606B 22611M 22612M 22612B
                                                 22640M 22643B 22705  22761M 22762M 22762B 22785M 22788B 22817  22903M
                                                 22904M 22904B 23044M 23045M 23045B 23072M 23075B 23102  23148M 23149M
                                                 23149B 23320M 23323B 23350  23396M 23397M 23397B 23496M 23499B 23527
                                                 23613M 23614M 23614B 23747M 23748M 23748B 23775M 23778B 23831  23885M
                                                 23886M 23886B 23913M 23916B 23976  24051M 24052M 24052B 24163M 24164M
                                                 24164B 24197M 24200B 24260  24335M 24336M 24336B 24463M 24466B 24591
                                                 24691M 24692M 24692B 24705M 24706M 24706B 24761M 24762M 24762B 24775M
                                                 24776M 24776B 24878M 24881B 24977  25033M 25034M 25034B 25061M 25064B
                                                 25079  25142M 25143M 25143B 25146M 25147M 25147B 25176M 25177M 25177B
                                                 25190M 25191M 25191B 25194M 25195M 25195B 25198M 25199M 25199B 25216M
1XCALL    (XCAL2025) (13:01) (15MAR04) Ordinary Symbol and Literal Cross Reference                                          Page  226
                                                 25219B 25233  25400M 25401M 25401B 25552M 25553M 25553B 25583M 25586B
                                                 25667  25755M 25756M 25756B 25769M 25770M 25770B 25825M 25828B 25862
                                                 26004M 26005M 26005B 26039M 26040M 26040B 26225M 26226M 26226B 26255M
                                                 26258B 26294  26354M 26355M 26355B 26368M 26369M 26369B 26441M 26442M
                                                 26442B 26455M 26456M 26456B 26495M 26496M 26496B 26530M 26533B 26643
                                                 26695M 26698B 26713  26770M 26771M 26771B 26774M 26775M 26775B 26784M
                                                 26785M 26785B 26788M 26789M 26789B 26792M 26793M 26793B 26814M 26817B
                                                 26832  26887M 26888M 26888B 26901M 26902M 26902B 26936M 26937M 26937B
                                                 26940M 26941M 26941B 26944M 26945M 26945B 26948M 26949M 26949B 26970M
                                                 26973B 27037  27097M 27098M 27098B 27111M 27112M 27112B 27148M 27149M
                                                 27149B 27185M 27186M 27186B 27199M 27200M 27200B 27239M 27240M 27240B
                                                 27253M 27254M 27254B 27274M 27275M 27275B 27298M 27301B 27340  27383M
                                                 27384M 27384B 27572M 27573M 27573B 27615M 27616M 27616B 27623M 27624M
                                                 27624B 27734M 27735M 27735B 27752M 27753M 27753B 27770M 27771M 27771B
                                                 27774M 27775M 27775B 27815M 27816M 27816B 27833M 27834M 27834B 27851M
                                                 27852M 27852B 27855M 27856M 27856B 27900M 27901M 27901B 27904M 27905M
                                                 27905B 27943M 27944M 27944B 27947M 27948M 27948B 27988M 27989M 27989B
                                                 28006M 28007M 28007B 28010M 28011M 28011B 28084M 28087B 28125  28168M
                                                 28169M 28169B 28349M 28350M 28350B 28360M 28361M 28361B 28381M 28382M
                                                 28382B 28418M 28419M 28419B 28422M 28423M 28423B 28459M 28460M 28460B
                                                 28463M 28464M 28464B 28502M 28503M 28503B 28506M 28507M 28507B 28547M
                                                 28548M 28548B 28565M 28566M 28566B 28569M 28570M 28570B 28638M 28641B
                                                 28712  28766M 28767M 28767B 28947M 28948M 28948B 28991M 28992M 28992B
                                                 28999M 29000M 29000B 29091M 29092M 29092B 29188M 29189M 29189B 29225M
                                                 29226M 29226B 29229M 29230M 29230B 29266M 29267M 29267B 29270M 29271M
                                                 29271B 29309M 29310M 29310B 29313M 29314M 29314B 29354M 29355M 29355B
                                                 29372M 29373M 29373B 29376M 29377M 29377B 29450M 29453B 29533  29566M
                                                 29567M 29567B 29611M 29612M 29612B 29646M 29647M 29647B 29664M 29665M
                                                 29665B 29902M 29903M 29903B 29935M 29938B 29973  30051M 30052M 30052B
                                                 30059M 30060M 30060B 30108M 30109M 30109B 30129M 30130M 30130B 30147M
                                                 30148M 30148B 30186M 30187M 30187B 30204M 30205M 30205B 30273M 30274M
                                                 30274B 30296M 30299B 30399  30445M 30446M 30446B 30455M 30456M 30456B
                                                 30460M 30461M 30461B 30468M 30469M 30469B 30476M 30477M 30477B 30506M
                                                 30507M 30507B 30512M 30513M 30513B 30520M 30521M 30521B 30528M 30529M
                                                 30529B 30579M 30582B 30642  31034M 31035M 31035B 31099M 31102B 31169
                                                 31307M 31308M 31308B 31345M 31346M 31346B 31369M 31370M 31370B 31392M
                                                 31393M 31393B 31470M 31473B 31532  31700M 31701M 31701B 31738M 31739M
                                                 31739B 31757M 31758M 31758B 31778M 31779M 31779B 31861M 31864B 31922
                                                 32369M 32372B 32413  32856M 32857M 32857B 32886M 32889B 32923  33292M
                                                 33295B 33364  33422M 33423M 33423B 33428M 33429M 33429B 33697M 33700B
                                                 33755  33809M 33810M 33810B 33815M 33816M 33816B 34011M 34014B 34045
                                                 34167M 34170B 34217  34262M 34263M 34263B 34281M 34284B 34305  34390M
                                                 34391M 34391B 34412M 34413M 34413B 34434M 34435M 34435B 34452M 34453M
                                                 34453B 34471M 34474B 34517  34622M 34623M 34623B 34644M 34645M 34645B
                                                 34649M 34650M 34650B 34672M 34675B 34718  34818M 34819M 34819B 34840M
                                                 34841M 34841B 34862M 34863M 34863B 34880M 34881M 34881B 34885M 34886M
                                                 34886B 34908M 34911B 34941  35103M 35106B 35153  35227M 35230B 35269
                                                 35342M 35345B 35405  35505M 35506M 35506B 35522M 35523M 35523B 35531M
                                                 35532M 35532B 35561M 35562M 35562B 35579M 35580M 35580B 35605M 35606M
                                                 35606B 35635M 35638B 35688  35765M 35766M 35766B 35789M 35790M 35790B
                                                 35826M 35827M 35827B 35886M 35887M 35887B 35969M 35970M 35970B 35975M
                                                 35976M 35976B 36007M 36010B 36055  36145M 36146M 36146B 36197M 36198M
                                                 36198B 36216M 36217M 36217B 36286M 36287M 36287B 36350M 36351M 36351B
                                                 36376M 36377M 36377B 36398M 36399M 36399B 36430M 36433B 36463  36520M
                                                 36521M 36521B 36524M 36525M 36525B 36640M 36641M 36641B 36660M 36661M
                                                 36661B 36664M 36665M 36665B 36699M 36700M 36700B 36726M 36727M 36727B
                                                 36753M 36756B 36786  36843M 36844M 36844B 36847M 36848M 36848B 36871M
                                                 36872M 36872B 36891M 36892M 36892B 36895M 36896M 36896B 36930M 36931M
                                                 36931B 36957M 36958M 36958B 36984M 36987B
1XCALL    (XCAL2025) (13:01) (15MAR04) Ordinary Symbol and Literal Cross Reference                                          Page  227
 RDRNG         1 00000000 0000002F     T   17732 17732
 RETFMEM       1 00000000 00000056     T   37024 37024
 RETFNAME      1 00000000 00000055     T   37021 37021
 RETPARMS      2 00005372 00000001     H   31162 11765  14455
 RETSYSP       2 00005464 00000001     H   31525 17697
 RPCNT         4 00000004 FFFFFFBC     F   31139 31208M 31263
 RPCRSET       4 00000018 FFFFFFBC     F   31144 31214M 31371
 RPCRXSET      4 00000020 FFFFFFBC     F   31146 31217M 31372
 RPERROR     128 00000000 FFFFFFBC        31136 31224M 31304M 31342M 31389M 31429
 RPFLAGS       1 00000000 FFFFFFBC     R   31132 31136
 RPPRLIST      4 00000010 FFFFFFBC     F   31142 31211M 31261
 RPRLIST       4 0000000C FFFFFFBC     F   31141 31210M 31260
 RPRTSET       4 00000014 FFFFFFBC     F   31143 31212M 31365
 RPRTXSET      4 0000001C FFFFFFBC     F   31145 31215M 31366
 RPVLIST       4 00000008 FFFFFFBC     F   31140 31209M 31259
 RPWA         36 00000000 FFFFFFBC     J   31153 31175  31204U 31468  31470  31471
 RSETNAME      2 00005F26 00000001     H   35263 17721  35259
 RSPCNT        4 00000004 FFFFFFBB     F   31507 31571M 31610
 RSPERROR    128 00000000 FFFFFFBB        31504 31580M 31697M 31735M 31775M 31820
 RSPFLAGS      1 00000000 FFFFFFBB     R   31500 31504
 RSPRLIST      4 0000000C FFFFFFBB     F   31509 31573M 31607
 RSPVLIST      4 00000008 FFFFFFBB     F   31508 31572M 31606
 RSPWA        16 00000000 FFFFFFBB     J   31516 31538  31567U 31859  31861  31862
 RTRIM         1 00000000 00000030     T   17735 17735  37020
 R0            0 00000000 FFFFFFFF A   #     699  2099   2168M  7858   8005M  8005   8072M  8106M  8106   8193   8195M
                                                  8201M  8223M  8246M  8253   8275M  8288M  8297M  8307M  8316M  8325M
                                                  8335M  8340M  8354M  8364M  8389M  8522M  8527   8568M  8585   8813M
                                                  8836M  8855M  8887M  8887   8908   8921M  8921   8951M  8958   8961M
                                                  8970M  8997M  9034M  9038M  9039M  9051M  9051   9126M  9140M  9155M
                                                  9160M  9167M  9194M  9319M  9319   9328   9329   9364M  9364   9752M
                                                  9752   9761   9762   9763   9796M  9796   9821M  9822   9823   9878M
                                                  9878   9887   9888   9930M  9935M  9942M  9977M  9987M  9987  10071M
                                                 10080M 10085M 10092M 10713M 10719  10720  11215M 11215  11240M 11253M
                                                 11287M 11312M 11312  11461M 11461  11470  11471  11472  11492M 11492
                                                 11501  11502  11503  11530M 11530  11541M 11607M 11614  11626M 11631
                                                 11651  11657M 11662M 11669M 11951M 11969M 11997M 12015M 12100M 12118M
                                                 12124  12178  12224  12226M 12248M 12255  12277M 12298M 12308M 12317M
                                                 12326M 12343M 12376M 12566M 12597M 12620M 12636  12666M 12666  12683M
                                                 12690  12693M 12702M 12729M 12766M 12770M 12771M 12783M 12783  12858M
                                                 12872M 12887M 12914M 13108  13125M 13125  13134  13135  13136  13169M
                                                 13169  13194M 13195  13196  13251M 13251  13260  13261  13304M 13314M
                                                 13314  13350M 13432M 13441M 14062M 14068  14069  14640M 14677M 14695M
                                                 14754M 14760  14817M 14824  14846M 14859M 14871M 15002M 15193M 15219M
                                                 15445M 15445  15463M 15485M 15491M 15537  15546  15549M 15571M 15609M
                                                 15835M 15836M 15848  15854M 15859  15866  15875  15924M 15924  16102M
                                                 16109M 16247M 16254M 16497M 16497  16501  16519M 16714M 16714  16718
                                                 16736M 16897  16898  16961  16963  16966  17000M 17013M 17047M 17206M
                                                 17207M 17208  17276M 17282M 17305M 17474M 17488  17502  17513M 17533M
                                                 17539M 17546M 17579M 17604M 17861M 17873M 17889M 17911M 17919M 17955M
                                                 17985M 17985  18002M 18144M 18156M 18172M 18211M 18219M 18255M 18285M
                                                 18285  18306M 18464M 18482M 18510M 18528M 18564M 18582M 18840M 18840
                                                 18849  18850  18904M 18947M 18992M 19015M 19304  19381M 19515  19543
                                                 19552M 19597M 19771  19815M 19821M 19828M 19919  19932  19947M 19953M
                                                 19960M 20225  20231M 20237M 20244M 20254M 20254  20273M 20273  20279
                                                 20281M 20297M 20461  20467M 20473M 20480M 20490M 20490  20509M 20509
                                                 20515  20517M 20533M 20702M 20704  20709M 20715M 20721M 20727M 20750M
                                                 20771  20797M 20818  20874M 20895  20921M 20942  21166M 21172M 21192M
                                                 21194  21366M 21372M 21392M 21394  21568M 21574M 21591M 21612  21647M
                                                 21649  21654M 21675  21710M 21712  21717M 21738  21767M 21788  21934M
1XCALL    (XCAL2025) (13:01) (15MAR04) Ordinary Symbol and Literal Cross Reference                                          Page  228
                                                 21934  21972  21986  22024  22062  22062M 22194  22205M 22205  22214M
                                                 22214  22242  22248M 22303  22341  22366M 22623  22623M 22756M 22856
                                                 22870  22884  22898M 22926  22943M 22972  23021  23036  23039M 23143M
                                                 23171  23287M 23298  23298M 23391M 23419  23433M 23442M 23442  23474
                                                 23474M 23566  23580  23594  23608M 23636  23651M 23668  23702  23719M
                                                 23720M 23722  23724  23727  23729  23742M 23880M 24015  24046M 24158M
                                                 24299  24330M 24677M 24677  24686  24687  24688  24721M 24721  24732M
                                                 24746M 24746  24755  24756  24782M 24856  24856M 25018M 25018  25027
                                                 25028  25135  25161M 25161  25170  25171  25284  25397M 25402  25440M
                                                 25451  25505M 25505  25509  25560M 25740M 25740  25749  25750  25772M
                                                 25803  25803M 25913  26047M 26059  26136M 26147  26233M 26326  26340M
                                                 26340  26349  26350  26351  26384M 26384  26395M 26403M 26414M 26414
                                                 26426M 26426  26435  26436  26480M 26480  26489  26490  26763  26873M
                                                 26873  26882  26883  26884  26917M 26917  26928M 27083M 27083  27092
                                                 27093  27094  27121M 27121  27129  27171M 27171  27180  27181  27182
                                                 27211M 27211  27218  27225M 27225  27234  27235  27236  27270M 27271M
                                                 27281  27281M 27395M 27395  27441M 27469M 27469  27477M 27506M 27506
                                                 27582  27593M 27675M 27675  27683M 27723M 27741M 27759M 27804M 27822M
                                                 27840M 27878M 27878  27889M 27932M 27995M 28039M 28057M 28065M 28067
                                                 28067M 28180M 28180  28222M 28250M 28250  28258M 28287M 28287  28407M
                                                 28437M 28437  28448M 28491M 28554M 28598M 28615M 28621  28621M 28778M
                                                 28778  28820M 28848M 28848  28856M 28885M 28885  28957  28969M 29033M
                                                 29033  29054M 29086M 29116M 29116  29137M 29214M 29244M 29244  29255M
                                                 29298M 29361M 29405M 29422M 29428  29428M 29600M 29653M 29731M 29731
                                                 29741M 29772M 29772  29781  29812M 29812  29881M 29918  29918M 30018
                                                 30029M 30098  30099  30099  30099  30103M 30103  30112M 30136M 30193M
                                                 30241M 30241  30251M 30270M 30279  30279M 30332  30332  30332  30438
                                                 30447  30448M 30449  30465M 30470M 30495M 30508M 30517M 30522M 30547M
                                                 30681  30695M 30695  30886M 30897M 31023M 31053M 31208  31235M 31235
                                                 31258M 31258  31571  31591M 31591  31605M 31605  32853M 33413  33418M
                                                 33424  33430  33455M 33470  33811  33817  34251M 34379M 34379  34401M
                                                 34423M 34423  34441M 34556M 34560M 34561M 34565M 34611M 34611  34633M
                                                 34757M 34761M 34807M 34807  34829M 34851M 34851  34869M 35036M 35447
                                                 35448  35448  35448  35494M 35494  35513M 35525  35528M 35550M 35568M
                                                 35581M 35727  35732M 35743M 35743  35757  35815M 35836M 35852  35875M
                                                 35916  35958M 35971M 36122  36140M 36186M 36252  36275M 36316  36339M
                                                 36517M 36539  36613M 36657M 36674M 36674  36681  36682  36682  36682
                                                 36688M 36703M 36840M 36888M 36905M 36905  36912  36913  36913  36913
                                                 36919M 36934M 37026  37026  37026
 R1            1 00000001 FFFFFFFF A   #     712  2162M  2163M  2169M  7997M  8006M  8071M  8107M  8202M  8222M  8247M
                                                  8276M  8289M  8298M  8308M  8317M  8326M  8347M  8355M  8365M  8390M
                                                  8401M  8521M  8569M  8584   8812M  8837M  8854M  8909   8952M  8962M
                                                  8971M  8998M  9032U  9035M  9040M  9116   9125M  9135   9138M  9138
                                                  9168M  9195M  9206M  9213M  9315M  9328   9329   9331   9748M  9761
                                                  9762   9763   9820M  9874M  9887   9888   9890   9943M  9969M  9978M
                                                 10035M 10072M 10093M 10119M 10149M 10482M 10483M 10483  10712M 10952M
                                                 10953M 10953  11143  11239M 11286M 11457M 11470  11471  11472  11488M
                                                 11501  11502  11503  11540M 11606M 11652M 11670M 11696M 11704M 11950M
                                                 11968M 11996M 12014M 12067M 12093M 12117M 12125  12249M 12278M 12290M
                                                 12299M 12309M 12318M 12327M 12336M 12344M 12353M 12377M 12388M 12565M
                                                 12596M 12621M 12637  12684M 12694M 12703M 12730M 12764U 12767M 12772M
                                                 12848  12857M 12867  12870M 12870  12888M 12915M 12926M 12933M 13107
                                                 13121M 13134  13135  13136  13193M 13247M 13260  13261  13263  13305M
                                                 13351M 13377M 13396M 13433M 13442M 13468M 13498M 13831M 13832M 13832
                                                 14061M 14297M 14298M 14298  14614M 14616  14630  14641M 14670M 14694M
                                                 14753M 14818M 14847M 14860M 14872M 15218M 15393M 15446M 15464M 15484M
                                                 15492M 15546  15550M 15570M 15804M 15875  15925M 15942M 16103M 16110M
                                                 16248M 16255M 16493M 16500  16520M 16710M 16717  16737M 16962  16965M
                                                 16966M 16968M 16969  16999M 17046M 17071M 17100  17106M 17106  17126
1XCALL    (XCAL2025) (13:01) (15MAR04) Ordinary Symbol and Literal Cross Reference                                          Page  229
                                                 17182  17283M 17304M 17512M 17547M 17580M 17605M 17872M 17890M 17911M
                                                 17918M 17948M 17968M 18003M 18155M 18173M 18211M 18218M 18248M 18268M
                                                 18307M 18463M 18481M 18509M 18527M 18563M 18581M 18836M 18849  18850
                                                 18852  19014M 19022M 19380M 19553M 19598M 19630M 19772  19829M 19920
                                                 19961M 20226  20245M 20279  20282M 20298M 20462  20481M 20515  20518M
                                                 20534M 20703M 20704  20751M 20798M 20875M 20922M 21193M 21194  21393M
                                                 21394  21562  21592M 21648M 21649  21655M 21711M 21712  21718M 21768M
                                                 21943M 21943  21992M 22030M 22054M 22054  22062  22191  22249M 22608M
                                                 22757M 22899M 22944M 22960M 22960  22972  22990  22992M 23009M 23009
                                                 23021  23040M 23144M 23249M 23250  23258M 23278M 23278  23284M 23287
                                                 23392M 23609M 23652M 23668  23687M 23702  23720  23723  23728  23743M
                                                 23881M 24029  24047M 24073M 24074  24108M 24108  24109  24126  24157
                                                 24159M 24313  24331M 24357M 24358  24392M 24392  24393  24673M 24686
                                                 24687  24688  24731M 24742M 24755  24756  24758  24783M 25014M 25027
                                                 25028  25030  25134  25157M 25170  25171  25173  25390M 25439M 25501M
                                                 25508  25559M 25736M 25749  25750  25752  25773M 26046M 26135M 26232M
                                                 26336M 26349  26350  26351  26394M 26422M 26435  26436  26438  26476M
                                                 26489  26490  26492  26762  26869M 26882  26883  26884  26927M 27079M
                                                 27092  27093  27094  27127  27128  27167M 27180  27181  27182  27217
                                                 27221M 27234  27235  27236  27269M 27271  27281  27440M 27440  27475M
                                                 27475  27512M 27512  27581  27590  27591  27591  27591  27592M 27619M
                                                 27681M 27681  27722M 27740M 27758M 27803M 27821M 27839M 27888M 27931M
                                                 27994M 28037M 28037  28055M 28055  28221M 28221  28256M 28256  28293M
                                                 28293  28406M 28447M 28490M 28553M 28596M 28596  28819M 28819  28854M
                                                 28854  28891M 28891  28956  28966  28967  28967  28967  28968M 28995M
                                                 29052M 29052  29078M 29078  29083  29087M 29135M 29135  29155  29213M
                                                 29254M 29297M 29360M 29403M 29403  29481  29481  29481  29599M 29652M
                                                 29739M 29780  29880M 29918  30017  30026  30027  30027  30027  30028M
                                                 30055M 30098  30099  30099  30099  30104M 30112M 30135M 30192M 30249M
                                                 30269M 30279  30330  30330  30330  30332  30332  30332  30439  30457M
                                                 30464M 30471M 30494M 30509M 30516M 30523M 30546M 30682  30712U 30714M
                                                 30734  30755M 30755  30779U 30781M 30801  30822M 30822  30885M 30898M
                                                 30934U 31022M 31052M 31061M 31061  31209  31259M 31402M 31402  31572
                                                 31606M 31638U 31800M 31800  31960  32451  32849M 32961  33414  33419M
                                                 33425  33456M 33804  33812  34081U 34250M 34400M 34419M 34440M 34557
                                                 34558M 34559  34562M 34564  34632M 34758  34759M 34760  34828M 34847M
                                                 34868M 35002  35035M 35204M 35205  35447  35448  35448  35448  35513M
                                                 35518M 35543M 35567M 35582M 35728  35814M 35837M 35864  35874M 35928
                                                 35957M 35972M 36134  36141M 36164M 36185M 36264  36274M 36328  36338M
                                                 36395M 36501  36512M 36612M 36652M 36681  36682  36682  36682  36687M
                                                 36703M 36824  36835M 36883M 36912  36913  36913  36913  36918M 36934M
                                                 37026  37026  37026
 R12          12 0000000C FFFFFFFF A   #     855  2125
 R13          13 0000000D FFFFFFFF A   #     868  9310   9323   9324   9325   9341   9342   9343   9743   9756   9757
                                                  9758   9773   9774   9775   9882   9883   9884   9900   9901   9902
                                                 11465  11466  11467  11482  11483  11484  11496  11497  11498  11513
                                                 11514  11515  13116  13129  13130  13131  13146  13147  13148  13255
                                                 13256  13257  13273  13274  13275  18844  18845  18846  18862  18863
                                                 18864  24668  24681  24682  24683  24698  24699  24700  24750  24751
                                                 24752  24768  24769  24770  25022  25023  25024  25040  25041  25042
                                                 25117  25165  25166  25167  25183  25184  25185  25744  25745  25746
                                                 25762  25763  25764  26331  26344  26345  26346  26361  26362  26363
                                                 26430  26431  26432  26448  26449  26450  26484  26485  26486  26502
                                                 26503  26504  26745  26864  26877  26878  26879  26894  26895  26896
                                                 27087  27088  27089  27104  27105  27106  27175  27176  27177  27192
                                                 27193  27194  27229  27230  27231  27246  27247  27248
 R14          14 0000000E FFFFFFFF A   #     881  2100M  8520M  8521   8522   8526M  8526   8583M  8584   8585   8589M
                                                  8589   8853M  8854   8855   8859M  8859   9309M  9310   9322M  9323
                                                  9324   9325   9330M  9331   9338M  9341   9342   9343   9352M  9355
1XCALL    (XCAL2025) (13:01) (15MAR04) Ordinary Symbol and Literal Cross Reference                                          Page  230
                                                  9742M  9743   9755M  9756   9757   9758   9770M  9773   9774   9775
                                                  9784M  9787   9881M  9882   9883   9884   9889M  9890   9897M  9900
                                                  9901   9902  11464M 11465  11466  11467  11479M 11482  11483  11484
                                                 11495M 11496  11497  11498  11510M 11513  11514  11515  11550M 11551
                                                 11566  11581  11582  11583  11583  11584  11585  11598  11602M 11602
                                                 11605M 11606  11607  11611M 11611  13106M 13107  13108  13112M 13112
                                                 13115M 13116  13128M 13129  13130  13131  13143M 13146  13147  13148
                                                 13157M 13160  13254M 13255  13256  13257  13262M 13263  13270M 13273
                                                 13274  13275  14629M 14863M 14866M 14867M 14867B 16499M 16500  16501
                                                 16505M 16505  16716M 16717  16718  16722M 16722  18843M 18844  18845
                                                 18846  18851M 18852  18859M 18862  18863  18864  20772M 20819M 20896M
                                                 20943M 21613M 21676M 21739M 21789M 24667M 24668  24680M 24681  24682
                                                 24683  24695M 24698  24699  24700  24709M 24712  24749M 24750  24751
                                                 24752  24757M 24758  24765M 24768  24769  24770  25021M 25022  25023
                                                 25024  25029M 25030  25037M 25040  25041  25042  25116M 25117  25133M
                                                 25134  25135  25139M 25139  25151M 25154  25164M 25165  25166  25167
                                                 25172M 25173  25180M 25183  25184  25185  25438M 25439  25440  25444M
                                                 25444  25507M 25508  25509  25513M 25513  25743M 25744  25745  25746
                                                 25751M 25752  25759M 25762  25763  25764  26134M 26135  26136  26140M
                                                 26140  26330M 26331  26343M 26344  26345  26346  26358M 26361  26362
                                                 26363  26372M 26375  26429M 26430  26431  26432  26437M 26438  26445M
                                                 26448  26449  26450  26483M 26484  26485  26486  26491M 26492  26499M
                                                 26502  26503  26504  26744M 26745  26761M 26762  26763  26767M 26767
                                                 26778M 26781  26863M 26864  26876M 26877  26878  26879  26891M 26894
                                                 26895  26896  26905M 26908  27086M 27087  27088  27089  27101M 27104
                                                 27105  27106  27174M 27175  27176  27177  27189M 27192  27193  27194
                                                 27228M 27229  27230  27231  27243M 27246  27247  27248  27376M 27586M
                                                 27590  27591  27591  27591  27592  27619M 28161M 28759M 28962M 28966
                                                 28967  28967  28967  28968  28995M 29481  29481  29481  30022M 30026
                                                 30027  30027  30027  30028  30055M 30330  30330  30330
 R15          15 0000000F FFFFFFFF A   #     894  2099   7589M  7589   8413M  8413   8437M  8437   8527M  8531M  8540M
                                                  8540   8547   8623M  8623   9226M  9226   9250M  9250   9344M  9344
                                                  9394   9446M  9446   9537M  9556M  9556   9598M  9617M  9617   9776M
                                                  9776   9903M  9903  10012M 10185M 10185  10388M 10388  10407M 10407
                                                 10577M 10577  10596M 10596  10703M 10762M 10762  10781M 10781  10858M
                                                 10858  10877M 10877  11047M 11047  11066M 11066  11223M 11248M 11277M
                                                 11295M 11320M 11358M 11358  11485M 11485  11516M 11516  11551M 11560M
                                                 11560  11566M 11575M 11575  11581M 11582M 11584M 11585  11597M 11597
                                                 11598  11736M 11736  11959M 12005M 12108M 12400M 12400  12424M 12424
                                                 12946M 12946  12970M 12970  13149M 13149  13276M 13276  13339M 13534M
                                                 13534  13737M 13737  13756M 13756  13926M 13926  13945M 13945  14052M
                                                 14111M 14111  14130M 14130  14222M 14222  14407M 14407  14628M 14628
                                                 14654M 14654  14685M 14889M 14889  14913M 14913  15017M 15017  15054M
                                                 15054  15093M 15093  15208M 15208  15244M 15244  15284M 15284  15515M
                                                 15515  15643M 15643  15667M 15667  15823M 15823  15999M 15999  16023M
                                                 16023  16101M 16108M 16161M 16161  16180M 16180  16246M 16253M 16306M
                                                 16306  16325M 16325  16549M 16549  16573M 16573  16766M 16766  16790M
                                                 16790  16895M 16896  17008M 17037M 17055M 17275M 17281M 17358M 17358
                                                 17521M 17532M 17538M 17670M 17670  17860M 17881M 17888M 17912M 17920M
                                                 17963M 17993M 18001M 18021M 18021  18045M 18045  18143M 18164M 18171M
                                                 18212M 18220M 18263M 18293M 18305M 18325M 18325  18349M 18349  18472M
                                                 18518M 18572M 18603M 18603  18703M 18703  18865M 18865  19032M 19033M
                                                 19034  19062M 19062  19194M 19194  19261M 19261  19323M 19323  19401M
                                                 19401  19642M 19642  19666M 19666  19814M 19820M 19838M 19838  19857M
                                                 19857  19946M 19952M 19970M 19970  19989M 19989  20092M 20092  20230M
                                                 20236M 20280M 20296M 20338M 20338  20466M 20472M 20516M 20532M 20574M
                                                 20574  20708M 20714M 20720M 20726M 20749M 20771  20796M 20818  20873M
                                                 20895  20920M 20942  20994M 20994  21018M 21018  21165M 21171M 21179M
                                                 21195M 21210M 21210  21234M 21234  21365M 21371M 21379M 21395M 21410M
1XCALL    (XCAL2025) (13:01) (15MAR04) Ordinary Symbol and Literal Cross Reference                                          Page  231
                                                 21410  21434M 21434  21567M 21573M 21590M 21612  21653M 21675  21716M
                                                 21738  21766M 21788  21817M 21817  21841M 21841  21944M 21996M 21996
                                                 22034M 22034  22055M 22081M 22081  22215M 22276M 22276  22314M 22314
                                                 22404M 22404  22420M 22440M 22473M 22473  22621M 22621  22642M 22642
                                                 22787M 22787  23050M 23050  23074M 23074  23202M 23291M 23291  23322M
                                                 23322  23451M 23451  23467M 23498M 23498  23753M 23753  23777M 23777
                                                 23891M 23891  23915M 23915  24038M 24038  24132M 24172M 24172  24199M
                                                 24199  24322M 24322  24415M 24434M 24434  24465M 24465  24701M 24701
                                                 24771M 24771  24780M 24780  24854M 24854  24880M 24880  25043M 25043
                                                 25044M 25063M 25063  25186M 25186  25218M 25218  25327M 25327  25381M
                                                 25406M 25406  25514M 25549M 25585M 25585  25765M 25765  25801M 25801
                                                 25827M 25827  25956M 25956  26036M 26102M 26102  26187M 26222M 26257M
                                                 26257  26364M 26364  26451M 26451  26505M 26505  26513M 26532M 26532
                                                 26678M 26697M 26697  26797M 26816M 26816  26897M 26897  26953M 26972M
                                                 26972  27107M 27107  27195M 27195  27249M 27249  27279M 27279  27300M
                                                 27300  27375M 27375  27408M 27408  27520M 27520  27612M 27638M 27638
                                                 27731M 27749M 27767M 27812M 27830M 27848M 27897M 27940M 28003M 28061M
                                                 28061  28086M 28086  28160M 28160  28373M 28373  28396M 28396  28415M
                                                 28456M 28499M 28562M 28619M 28619  28640M 28640  28758M 28758  28988M
                                                 29015M 29015  29180M 29180  29203M 29203  29222M 29263M 29306M 29369M
                                                 29426M 29426  29452M 29452  29589  29608M 29613M 29638  29661M 29666M
                                                 29937M 29937  30048M 30079  30121M 30121  30144M 30149M 30163M 30163
                                                 30201M 30206M 30260M 30260  30298M 30298  30557M 30557  30581M 30581
                                                 31077M 31077  31101M 31101  31448M 31448  31472M 31472  31839M 31839
                                                 31863M 31863  32352M 32352  32371M 32371  32869M 32869  32888M 32888
                                                 33275M 33275  33294M 33294  33675M 33675  33699M 33699  33989M 33989
                                                 34013M 34013  34169M 34169  34259M 34264M 34283M 34283  34387M 34409M
                                                 34431M 34449M 34454M 34473M 34473  34619M 34641M 34674M 34674  34815M
                                                 34837M 34859M 34877M 34910M 34910  35086M 35086  35105M 35105  35210M
                                                 35210  35229M 35229  35325M 35325  35344M 35344  35502M 35558M 35576M
                                                 35602M 35610M 35610  35637M 35637  35786M 35823M 35883M 35966M 35985M
                                                 35985  36009M 36009  36194M 36283M 36347M 36408M 36408  36432M 36432
                                                 36637M 36696M 36723M 36736M 36736  36755M 36755  36868M 36927M 36954M
                                                 36967M 36967  36986M 36986
 R2            2 00000002 FFFFFFFF A   #     725  7748M  7754M  7820M  7820   8007M  8108M  8130   8131   8132   8248M
                                                  8277M  8290M  8299M  8309M  8318M  8327M  8356M  8366M  8953M  8963M
                                                  8972M  8999M  9036M  9038M  9059M  9075   9095M  9095   9110   9116M
                                                  9133M  9134M  9134   9135   9169M  9196M  9944M 10073M 10094M 10126M
                                                 10134U 11188M 11197M 11197  11631M 11634M 11636  11671M 12050M 12056M
                                                 12059M 12140M 12140  12250M 12279M 12291M 12300M 12310M 12319M 12328M
                                                 12345M 12685M 12695M 12704M 12731M 12768M 12770M 12791M 12807  12827M
                                                 12827  12842  12848M 12865M 12866M 12866  12867  12889M 12916M 13352M
                                                 13434M 13443M 13475M 13483U 14618M 14620  14631  14634M 14715M 14715
                                                 14819M 14848M 14873M 15447M 15596M 15895M 15900M 15913M 15926M 15943M
                                                 15963M 16957M 16958M 16960M 16964M 17072M 17073M 17100  17113M 17126
                                                 17172M 17182  17284M 17548M 17891M 18004M 18174M 18308M 19554M 19599M
                                                 20227  20283M 20299M 20307M 20311M 20463  20519M 20535M 20543M 20547M
                                                 20691  20752M 20799M 20876M 20923M 21145M 21180M 21196M 21345M 21380M
                                                 21396M 21563  21582M 21593M 21656M 21719M 21769M 22250M 22384M 22758M
                                                 22900M 22945M 22984  22991M 22991  22992  22993  23041M 23145M 23223M
                                                 23229M 23230M 23243  23249  23252M 23252  23393M 23610M 23653M 23680
                                                 23686M 23686  23687  23721M 23723M 23725M 23726M 23730M 23744M 23882M
                                                 24019M 24029  24048M 24074M 24090M 24090  24102  24109M 24151  24160M
                                                 24303M 24313  24332M 24358M 24374M 24374  24386  24393M 24409M 24409
                                                 24787M 24787  24803M 25777M 25777  25793M 27370  27698U 28045M 28045
                                                 28155  28604M 28604  28752  28753  28958M 29088M 29862U 30014  30105M
                                                 30440  30452M 30472M 30503M 30524M 30683  30715M 30716M 30734  30782M
                                                 30783M 30801  30899M 30971U 31062M 31062  31210  31253U 31260M 31403M
                                                 31403  31573  31607M 31672U 31801M 31801  33415  34646M 34882M 35200
1XCALL    (XCAL2025) (13:01) (15MAR04) Ordinary Symbol and Literal Cross Reference                                          Page  232
                                                 35316  35528  35729  35732  35838M 35864  35928  36106M 36134  36142M
                                                 36264  36328  36373M 36499U 36501M 36822U 36824M
 R3            3 00000003 FFFFFFFF A   #     738  7749M  7775M  7775   7859M  7863M  7872M  7872   7879   8162M  8163
                                                  8164M  8165   8300M  8319M  8328M  8357M  8367M  8973M  9000M  9037M
                                                  9170M  9197M  9823M  9827M  9836M  9836   9843   9945M 10095M 10530M
                                                 10545  10559  10720M 10724M 10733M 10733  10740  11000M 11015  11029
                                                 11672M 12051M 12179M 12183M 12192M 12192  12199  12301M 12320M 12329M
                                                 12346M 12354M 12705M 12732M 12769M 12890M 12917M 13196M 13200M 13209M
                                                 13209  13216  13353M 13444M 13879M 13894  13908  14069M 14073M 14082M
                                                 14082  14089  14345M 14360  14374  14761M 14765M 14774M 14774  14781
                                                 15538M 15539  15540M 15541  15867M 15868  15869M 15870  16118M 16119
                                                 16120M 16121  16263M 16264  16265M 16266  16898M 16902M 16911M 16911
                                                 16918  16961M 19555M 19600M 20308M 20310  20544M 20546  22946M 22984
                                                 23224M 23231M 23243  23654M 23680  23722M 23727M 24015M 24102  24157
                                                 24299M 24386  24826M 24826  24846M 24856  25285M 25289M 25298M 25298
                                                 25305  25452M 25456M 25465M 25465  25472  25803  25914M 25918M 25927M
                                                 25927  25934  26060M 26064M 26073M 26073  26080  26148M 26152M 26161M
                                                 26161  26168  27380M 27380  27404M 27404  27516M 27516  27533M 27533
                                                 27552M 27552  27564  28065  28165M 28165  28189M 28189  28297M 28297
                                                 28310M 28310  28329M 28329  28341  28615  28763M 28763  28787M 28787
                                                 28895M 28895  28908M 28908  28927M 28927  28939  29422  29849M 29849
                                                 30684  30701M 30702  30720M 30720  30756M 30756  30762  30787M 30787
                                                 30823M 30823  30829  30900M 30913  31063M 31063  31211  31261M 31404M
                                                 31404  31608M 31802M 31802  33412  33803  34419  34563  34847  35043M
                                                 35047M 35056M 35056  35063
 R4            4 00000004 FFFFFFFF A   #     751  7754M  9060M  9061M  9061   9075   9110   9132M  9133   9198M 12056M
                                                 12792M 12793M 12793  12807  12842  12864M 12865  12918M 14623M 14629M
                                                 16962M 16964M 20309M 20311M 20545M 20547M 22990M 22993  23229M 23250M
                                                 23251  23725M 23728M 23730M 24077M 24126  24361M 27070M 27070  27127M
                                                 27269  27370M 27376M 27581M 28155M 28161M 28753M 28759M 29083M 29155
                                                 29780M 29784M 29818M 29818  29877M 29877  29880  30017M 30269  30901M
                                                 30913  31212  31213M 31214  31262M 31275  31405M 31405  31609M 31623
                                                 31803M 31803  34557M 34560M 34563M 34565M 34758M 34761M
 R5            5 00000005 FFFFFFFF A   #     764  7753M  7753   9199M 12055M 12055  12919M 14624M 15387U 15390M 15791U
                                                 15794M 16963M 18130U 18133M 19772M 19829  19920M 19961  20207U 20210M
                                                 20310M 20443U 20446M 20546M 20689U 20692M 21139U 21142M 21339U 21342M
                                                 21560U 21564M 22188U 22191M 23228M 23228  23724M 23729M 26513  26675M
                                                 26675  26677  26677M 26794M 26796  26796M 26950M 26952  26952M 27074M
                                                 27074  27128M 27129M 27217M 27218M 27270  27371M 27582M 28156M 28754M
                                                 29781M 29786M 29820M 29879M 29881  30018M 30270  30926M 30926  30952M
                                                 30952  30989M 30989  31012  31215  31216M 31217  31263M 31275  31610M
                                                 31623  33433M 33442M 33442  33455  33456  33804M 33847  34559M 34564M
                                                 34760M 35002M 35010U 35198U 35201M 35314U 35317M
 R6            6 00000006 FFFFFFFF A   #     777  9728M  9736U 11141U 11143M 13081M 13089U 14861M 14862  15378U 15389M
                                                 15782U 15793M 16454U 16456M 16457  16677U 16679M 16680  16868U 16870M
                                                 17466U 17468M 17848U 17850M 18121U 18132M 18812M 18820U 19510U 19512M
                                                 19771M 19786  19800  19815  19821  19828  19919M 19947  19953  19960
                                                 20198U 20209M 20434U 20445M 20680U 20691M 21130U 21141M 21330U 21341M
                                                 21551U 21581M 21589M 21639M 21702M 21765M 22179U 22190M 23221M 23223
                                                 23250  23258  23284  23717M 23721  23726  24630M 24638U 25706M 25714U
                                                 28752M 28958  29161  29161  29411M 29411  30012U 30014M 30104  30105
                                                 31958U 31960M 32449U 32451M 32959U 32961M 33410U 33412M 33801U 33803M
                                                 34971M 34980M 34980  35000U 35189U 35200M 35305U 35316M 36101U 36103M
 R7            7 00000007 FFFFFFFF A   #     790  2092M  2092   2093B  2105B
 R8            8 00000008 FFFFFFFF A   #     803  7742U  8511U  8771U  9724U 11448U 11925U 12524U 13077U 14607U 14996U
                                                 15176U 15367U 15771U 16443U 16666U 17455U 17837U 18110U 18808U 19499U
                                                 20187U 20423U 20669U 21119U 21319U 21540U 22168U 22740U 22852U 23137U
                                                 23385U 23562U 23866U 24011U 24295U 24626U 25702U 28747U 30434U 30677U
                                                 31204U 31567U 33399U 33790U 34552U 34753U 35440U 35723U 36090U
1XCALL    (XCAL2025) (13:01) (15MAR04) Ordinary Symbol and Literal Cross Reference                                          Page  233
 SAVEDATA      1 00000000 0000001C     T   11776 11776  14460  24481
 SAVEVAR       1 00000000 0000004C     T   31878 31878
 SAVEVSTK      1 00000000 0000000A     T    8661  8661  14443
 SCANCHK       1 00000000 0000001A     T   11770 11770  14458  19691  26985  29465
 SCDQUOTE      1 00000000 00000041     T   26993 26993
 SCLFLAG       1 00000000 FFFFFFD6     R   14514 14523  14533
 SCLFREE       2 00000000 FFFFFFD6        14533 14747M
 SCLNAME      16 00000004 FFFFFFD6     C   14537 14634  14641  14670  14677  14862  14862
 SCLPARMS      1 00000000 FFFFFFD6        14523 14726M 14811  14840
 SCLPLIST    256 0000010C FFFFFFD6     X   14543 14819  14873
 SCLRLIST      4 00000210 FFFFFFD6     A   14545 14620M 14631M 14861  14872
 SCLRTNP       4 00000014 FFFFFFD6     A   14539 14640  14863
 SCLVLIST      4 0000020C FFFFFFD6     A   14544 14616M 14630M 14848  14860
 SCLWA       532 00000000 FFFFFFD6     J   14555 14578  14607U 14623  14909  14911  14912  17689
 SCNDSN        2 0000417C 00000001     H   26288 17698
 SCNINVAL      1 00000000 00000012     T   10312 10312  13661  19127  26582
 SCNNDONE      2 00004990 00000001     H   28064 27409B 27521B 27574B 27641B 27776B 27857B 27906B 27949B 28012B
 SCNNLIST      2 00004766 00000001     H   27334 11760  14452  27330
 SCNPCALL      2 00003FB4 00000001     H   25660 14434  17693
 SCNPDESC      2 00004E94 00000001     H   29527 29472  29523  30324
 SCNPDONE      2 00004D20 00000001     H   29421 28788B 28896B
 SCNPLEN       4 00000004 FFFFFFBF     F   28688 28957M 29086
 SCNPLIST      2 00004B18 00000001     H   28705  8656  14438  17695
 SCNPLOC       4 00000000 FFFFFFBF     F   28687 28956M 29087
 SCNPNAME      1 00000000 00000022     T   14431 14431  17690
 SCNPVAR     336 00000008 FFFFFFBF     X   28689 29088
 SCNPWA      344 00000000 FFFFFFBF     J   28696 28718  28747U 29448  29450  29451
 SCNVDONE      2 00004B02 00000001     H   28614 28190B 28298B
 SCNVLIST      2 000049A4 00000001     H   28119  8657  11759  14439  17696
 SCNVNAME      1 00000000 00000045     T   30316 30316
 SCNXCALL      2 00003B78 00000001     H   24584  8641
 SCNXFLG1      1 00000000 FFFFFFC1     R   24521 24530  24540  24648M
 SCNXFLG2      1 00000001 FFFFFFC1     R   24545 24554  24564  24655M
 SCNXPARM    235 00000008 FFFFFFC1     C   24568 24783  25312M 25390  25397  25479M
 SCNXPLEN      4 00000004 FFFFFFC1     F   24567 24662M 24662  24782  25284M 25285  25402M 25451M 25452
 SCNXPRT       4 00003CC0 00000001     F   24888 26986
 SCNXWA      243 00000000 FFFFFFC1     J   24575 24597  24626U 24630  24638U 24876  24878  24879
 SCPARM      235 00000018 FFFFFFD6     X   14540 14788M 14818  14847
 SCPARMCT      4 00000108 FFFFFFD6     F   14542 14748M 14824M 14859  14871
 SCPARMLN      4 00000104 FFFFFFD6     F   14541 14760M 14761  14817  14846
 SCPFFREE      1 00000000 FFFFFFC0        25630 25787  26058M 26146M
 SCPFPARM      2 00000000 FFFFFFC0        25640 25912M
 SCXFACT       1 00000000 FFFFFFC1        24530 24817  25011M
 SCXFDSN       2 00000000 FFFFFFC1        24540 24840  25113M
 SCXFFREE      1 00000001 FFFFFFC1        24554 24797  25378M 25450M
 SCXFPARM      2 00000001 FFFFFFC1        24564 25283M
 SDSNACT       2 000043DC 00000001     H   26637 26567  26613
 SDSNDSN       2 0000440E 00000001     H   26707 26628
 SDSNFROM      2 0000448A 00000001     H   26826 26552  26598
 SDSNPRT       4 000042EC 00000001     F   26540 26998
 SDSNQSZ       1 0000002C FFFFFFEC A   U    6080  6081   6082
 SDSNXPRT      4 00004364 00000001     F   26586 26999
 SEG           1 00000000 0000001F     T   11781 11781  14465  17738  18379  26994  29473  30318  37004
 SEGCR         1 00000000 0000001B     T   11775 11775  14430  17740  18375  19684  29474  37005
 SEGDC         1 00000000 00000051     T   37006 37006
 SEGFDSN       2 0000628E 00000001     H   36780 18380  36776
 SEGINIT       1 00000000 00000043     T   29471 29471  30323
 SEGT          1 00000000 00000024     T   14433 14433  17692
 SEGVALUE      1 00000000 00000053     T   37009 37009
1XCALL    (XCAL2025) (13:01) (15MAR04) Ordinary Symbol and Literal Cross Reference                                          Page  234
 SEGVAR        1 00000000 00000052     T   37008 37008
 SEGVNAME      1 00000000 00000016     T   11762 11762  14454  30320
 SEGWR         1 00000000 00000020     T   11782 11782
 SEGXDSN       2 000061C0 00000001     H   36457 36453  37018
 SEGXLINE      2 00005F5C 00000001     H   35398 35394
 SEGXLNO       2 00006008 00000001     H   35681 35677
 SEGXNAME      2 000060D8 00000001     H   36048 36044  37015
 SETPRET       2 00005C30 00000001     H   34039 14456
 SETXINFO      2 000030A4 00000001     H   20627 17715
 SETXNAME      2 00005E8A 00000001     H   34935  8647  17703  34931
 SGLNDONE      2 00005FFA 00000001     H   35613 35524B
 SGLNLEN       4 00000000 FFFFFFB6     F   35380 35525M 35581
 SGLNLINE    235 00000004 FFFFFFB6     X   35381 35518  35582
 SGLNWA      239 00000000 FFFFFFB6     J   35388 35411  35440U 35633  35635  35636
 SGXLLPTR      4 00000008 FFFFFFB5     F   35663 35729M
 SGXLRG        4 00000004 FFFFFFB5     F   35662 35728M 35837  35972
 SGXLSET       4 00000000 FFFFFFB5     F   35661 35727M 35836  35971
 SGXLWA      247 00000000 FFFFFFB5     J   35671 35694  35723U 36005  36007  36008
 SHLDTIME     64 00000000 FFFFFFCD     C   17777 17912  17917M 17917  17918  17937M 17948  18212  18217M 18217  18218
                                                 18237M 18248
 SHLDWA      160 00000000 FFFFFFCD     J   17785 17808  17837U 18041  18043  18044  18081  18110U 18345  18347  18348
 SHLDXF       96 00000040 FFFFFFCD     X   17778 17850  18132
 SHPBLOAD      2 000027A2 00000001     H   18068 18064
 SHXLOAD       2 000026BE 00000001     H   17795 17791
 SN#XSET       4 0000001C FFFFFFDF     F    7492 32002  32493  33002M 33521M 33840M
 SNENTRY     136 00000000 FFFFFFDF     J    7508  7683   8354   8712   9198   9199   9666  11141U 11390  11866  12343
                                                 12465  12918  12919  13019  19440  19510U 19552  19553  19597  19598
                                                 19630  31958U 32449U 32959U 32969M 32969  33410U 33508M 33508  33801U
                                                 33827M 33827  34081U
 SNESCAPE      1 00000030 FFFFFFDF     C    7497 32007  32498  33007M 33526M 33845M 34083M
 SNEXLINE      4 00000004 FFFFFFDF     F    7486 31996  32487  32996M 33515M 33834M
 SNEXNEXT      4 00000008 FFFFFFDF     F    7487 19629M 31997  32488  32997M 33516M 33835M
 SNFEXEC     128 00000000 FFFFFFDF         7421 11170  31979  32470  32991M 33514M 33833M
 SNFLAG        1 00000000 FFFFFFDF     R    7417  7421
 SNFLAG2       1 00000001 FFFFFFDF     R    7426  7430   7435   7440   7445   7450
 SNFLAG3       1 00000002 FFFFFFDF     R    7455  7459   7464   7469   7474   7479
 SNFQUIET     32 00000002 FFFFFFDF         7469 32220  32711  33162M
 SNFTRY       64 00000002 FFFFFFDF         7464 32194  32685  33136M
 SNFTYPED    128 00000002 FFFFFFDF         7459 11182  32324  32815  33266M
 SNFVCMD       8 00000001 FFFFFFDF         7450 32298  32789  33240M
 SNFXAUTH     16 00000001 FFFFFFDF         7445 32168  32659  33110M 33584M 33902M
 SNFXAUTHLIB
              32 00000001 FFFFFFDF         7440 32142  32633  33084M 33562M 33876M
 SNFXDUMP      8 00000002 FFFFFFDF         7479 32272  32763  33214M 33666M 33980M 34091M 34113M
 SNFXOLD      64 00000001 FFFFFFDF         7435 32116  32607  33032M
 SNFXQT       16 00000002 FFFFFFDF         7474 32246  32737  33188M 33614M 33640M 33928M 33954M 34124M 34146M
 SNFXTEND    128 00000001 FFFFFFDF         7430 32090  32581  33058M 33541M 33854M
 SNNPFLG       1 00000000 FFFFFFC0     R   25621 25630  25640  25724M
 SNNPPARM    235 00000008 FFFFFFC0     C   25644 25773  25941M 26087M 26175M
 SNNPPLEN      4 00000004 FFFFFFC0     F   25643 25731M 25731  25772  25913M 25914  26059M 26060  26147M 26148
 SNNPPRT       4 00004060 00000001     F   25835 26995
 SNNPWA      243 00000000 FFFFFFC0     J   25651 25673  25702U 25706  25714U 25823  25825  25826
 SNPROCNM     16 00000072 FFFFFFDF     C    7500 32009  32500  33009M 33528M 33847M 34186
 SNRGEXEC      4 00000020 FFFFFFDF     F    7493 32003  32494  33003M 33522M 33841M
 SNRGFLOW      4 00000024 FFFFFFDF     F    7494 32004  32495  33004M 33523M 33842M
 SNSCOPD       4 00000010 FFFFFFDF     F    7489 31999  32490  32999M 33518M 33837M
 SNSCOPE       4 0000000C FFFFFFDF     F    7488 31998  32489  32998M 33517M 33836M
 SNSKIP        1 00000031 FFFFFFDF     C    7498 32008  32499  33008M 33527M 33846M 34084M
 SNVSET#       4 00000028 FFFFFFDF     F    7495  9198  12918  19591  19600  32005  32496  33005M 33524M 33843M
1XCALL    (XCAL2025) (13:01) (15MAR04) Ordinary Symbol and Literal Cross Reference                                          Page  235
 SNXPUSH       6 00000082 FFFFFFDF     C    7501 32010  32501  33010M 33535M 33535  33848M
 SNXSCOPD      4 00000018 FFFFFFDF     F    7491 32001  32492  33001M 33520M 33839M
 SNXSCOPE      4 00000014 FFFFFFDF     F    7490 32000  32491  33000M 33519M 33838M
 SNXVSET#      4 0000002C FFFFFFDF     F    7496  9199  12919  19591  32006  32497  33006M 33525M 33844M
 SPPARM        2 00004088 00000001     H   25856 25847
 SPR          13 0000000D 00000001 A   #    1104  7534   7537   7538   7539M  7539   7581M  7585   7587   7707   7710
                                                  7712   7713M  7713   8429M  8433   8435   8476   8479   8481   8482M
                                                  8482   8615M  8619   8621   8736   8739   8741   8742M  8742   9242M
                                                  9246   9248   9277   9280   9281   9282M  9282   9438M  9442   9444
                                                  9508   9511   9512   9513M  9513   9548M  9552   9554   9569   9572
                                                  9573   9574M  9574   9609M  9613   9615   9689   9692   9694   9695M
                                                  9695  10177M 10181  10183  10327  10330  10331  10332M 10332  10399M
                                                 10403  10405  10422  10425  10426  10427M 10427  10588M 10592  10594
                                                 10611  10614  10615  10616M 10616  10773M 10777  10779  10797  10800
                                                 10801  10802M 10802  10869M 10873  10875  10892  10895  10896  10897M
                                                 10897  11058M 11062  11064  11105  11108  11109  11110M 11110  11350M
                                                 11354  11356  11413  11416  11418  11419M 11419  11728M 11732  11734
                                                 11890  11893  11895  11896M 11896  12416M 12420  12422  12489  12492
                                                 12494  12495M 12495  12962M 12966  12968  13042  13045  13047  13048M
                                                 13048  13526M 13530  13532  13676  13679  13680  13681M 13681  13748M
                                                 13752  13754  13771  13774  13775  13776M 13776  13937M 13941  13943
                                                 13960  13963  13964  13965M 13965  14122M 14126  14128  14146  14149
                                                 14150  14151M 14151  14214M 14218  14220  14237  14240  14241  14242M
                                                 14242  14399M 14403  14405  14572  14575  14577  14578M 14578  14905M
                                                 14909  14911  14961  14964  14966  14967M 14967  15085M 15089  15091
                                                 15141  15144  15146  15147M 15147  15276M 15280  15282  15332  15335
                                                 15337  15338M 15338  15659M 15663  15665  15736  15739  15741  15742M
                                                 15742  16015M 16019  16021  16064  16067  16068  16069M 16069  16172M
                                                 16176  16178  16209  16212  16213  16214M 16214  16317M 16321  16323
                                                 16408  16411  16413  16414M 16414  16565M 16569  16571  16631  16634
                                                 16636  16637M 16637  16782M 16786  16788  16832  16835  16836  16837M
                                                 16837  17350M 17354  17356  17420  17423  17425  17426M 17426  17662M
                                                 17666  17668  17802  17805  17807  17808M 17808  18037M 18041  18043
                                                 18075  18078  18080  18081M 18081  18341M 18345  18347  18413  18416
                                                 18417  18418M 18418  18595M 18599  18601  18629  18632  18633  18634M
                                                 18634  18695M 18699  18701  18773  18776  18778  18779M 18779  19054M
                                                 19058  19060  19141  19144  19145  19146M 19146  19186M 19190  19192
                                                 19208  19211  19212  19213M 19213  19253M 19257  19259  19275  19278
                                                 19279  19280M 19280  19315M 19319  19321  19347  19350  19351  19352M
                                                 19352  19393M 19397  19399  19464  19467  19469  19470M 19470  19658M
                                                 19662  19664  19742  19745  19746  19747M 19747  19849M 19853  19855
                                                 19890  19893  19894  19895M 19895  19981M 19985  19987  20022  20025
                                                 20026  20027M 20027  20084M 20088  20090  20152  20155  20157  20158M
                                                 20158  20330M 20334  20336  20388  20391  20393  20394M 20394  20566M
                                                 20570  20572  20634  20637  20639  20640M 20640  21010M 21014  21016
                                                 21084  21087  21089  21090M 21090  21226M 21230  21232  21284  21287
                                                 21289  21290M 21290  21426M 21430  21432  21505  21508  21510  21511M
                                                 21511  21833M 21837  21839  21896  21899  21900  21901M 21901  22073M
                                                 22077  22079  22133  22136  22138  22139M 22139  22465M 22469  22471
                                                 22554  22557  22558  22559M 22559  22634M 22638  22640  22705  22708
                                                 22710  22711M 22711  22779M 22783  22785  22817  22820  22822  22823M
                                                 22823  23066M 23070  23072  23102  23105  23107  23108M 23108  23314M
                                                 23318  23320  23350  23353  23355  23356M 23356  23490M 23494  23496
                                                 23527  23530  23532  23533M 23533  23769M 23773  23775  23831  23834
                                                 23836  23837M 23837  23907M 23911  23913  23976  23979  23981  23982M
                                                 23982  24191M 24195  24197  24260  24263  24265  24266M 24266  24457M
                                                 24461  24463  24591  24594  24596  24597M 24597  24872M 24876  24878
                                                 24977  24980  24981  24982M 24982  25055M 25059  25061  25079  25082
                                                 25083  25084M 25084  25210M 25214  25216  25233  25236  25237  25238M
1XCALL    (XCAL2025) (13:01) (15MAR04) Ordinary Symbol and Literal Cross Reference                                          Page  236
                                                 25238  25577M 25581  25583  25667  25670  25672  25673M 25673  25819M
                                                 25823  25825  25862  25865  25866  25867M 25867  26249M 26253  26255
                                                 26294  26297  26298  26299M 26299  26524M 26528  26530  26643  26646
                                                 26647  26648M 26648  26689M 26693  26695  26713  26716  26717  26718M
                                                 26718  26808M 26812  26814  26832  26835  26836  26837M 26837  26964M
                                                 26968  26970  27037  27040  27041  27042M 27042  27292M 27296  27298
                                                 27340  27343  27344  27345M 27345  28078M 28082  28084  28125  28128
                                                 28129  28130M 28130  28632M 28636  28638  28712  28715  28717  28718M
                                                 28718  29444M 29448  29450  29533  29536  29537  29538M 29538  29929M
                                                 29933  29935  29973  29976  29977  29978M 29978  30290M 30294  30296
                                                 30399  30402  30404  30405M 30405  30573M 30577  30579  30642  30645
                                                 30647  30648M 30648  31093M 31097  31099  31169  31172  31174  31175M
                                                 31175  31464M 31468  31470  31532  31535  31537  31538M 31538  31855M
                                                 31859  31861  31922  31925  31926  31927M 31927  32363M 32367  32369
                                                 32413  32416  32417  32418M 32418  32880M 32884  32886  32923  32926
                                                 32927  32928M 32928  33286M 33290  33292  33364  33367  33369  33370M
                                                 33370  33691M 33695  33697  33755  33758  33760  33761M 33761  34005M
                                                 34009  34011  34045  34048  34049  34050M 34050  34161M 34165  34167
                                                 34217  34220  34221  34222M 34222  34275M 34279  34281  34305  34308
                                                 34309  34310M 34310  34465M 34469  34471  34517  34520  34522  34523M
                                                 34523  34666M 34670  34672  34718  34721  34723  34724M 34724  34902M
                                                 34906  34908  34941  34944  34945  34946M 34946  35097M 35101  35103
                                                 35153  35156  35157  35158M 35158  35221M 35225  35227  35269  35272
                                                 35273  35274M 35274  35336M 35340  35342  35405  35408  35410  35411M
                                                 35411  35629M 35633  35635  35688  35691  35693  35694M 35694  36001M
                                                 36005  36007  36055  36058  36060  36061M 36061  36424M 36428  36430
                                                 36463  36466  36467  36468M 36468  36747M 36751  36753  36786  36789
                                                 36790  36791M 36791  36978M 36982  36984
 START         2 0000568E 00000001     H   31916  8667  11767  14447  19698
 STXWA        80 00000000 FFFFFFC9     J   20618 20640  20669U 21014  21016  21017
 STXXFX       80 00000000 FFFFFFC9     X   20611 20692
 SXACT         2 00003D88 00000001     H   24971 24900
 SXACTPRT      4 00003D60 00000001     F   24950 26987
 SXDSN         2 00003E0A 00000001     H   25073 24915
 SXDSNPRT      4 00003D10 00000001     F   24919 26990
 SXNWA       160 00000000 FFFFFFB4     J   36038 36061  36090U 36428  36430  36431
 SXNXF        96 00000000 FFFFFFB4     X   36030 36103
 SXNXNAME     64 00000060 FFFFFFB4     X   36031 36140  36141  36164
 SXPARM        2 00003ED0 00000001     H   25227 24946  24962
 SYSCALL       2 00001C18 00000001     H   14565 14561
 TRC           1 00000000 00000000 A   T    2121  2121
 TTYFLAG       1 00000004 FFFFFFEA     R    6209  6213
 TTYMAX#       1 00000006 FFFFFFEA A   U    6265  6266
 TTYTFLAG      1 00000005 FFFFFFEA     R    6219  6223   6228   6233   6238   6243   6248   6253
 UNPRST        1 00000001 FFFFFFEC A   U    6169 17730  17734
 UPDTINFO      2 00003332 00000001     H   21498 17723
 UPPTBL        1 00000000 00000000 A   T    2184  2184
 UPPWA        88 00000000 FFFFFFC7     J   21489 21511  21540U 21837  21839  21840
 UPPXFNEW      4 00000004 FFFFFFC7     A   21481 21563M 21639  21765
 UPPXFOLD      4 00000000 FFFFFFC7     A   21480 21562M 21581  21589  21702
 UPPXFX       80 00000008 FFFFFFC7     X   21482 21564
 VCLEAR        1 00000000 00000049     T   31875 31875
 VINTEGER      1 00000000 0000004A     T   31876 31876
 VLIST      2688 00000000 FFFFFFE1     J    7370  7681   8709  11865  12462  14615  14619  17689  17689  17749  29477
                                                 31881
 VNADATA      48 00000020 FFFFFFE4     X    7074  7251   7251
 VNADESC     128 00000011 FFFFFFE4         7059 29869M 30091  30982  31331  31724
 VNAFLAGS      1 00000011 FFFFFFE4     R    7055  7059
 VNAME         1 00000000 0000004B     T   31877 31877
1XCALL    (XCAL2025) (13:01) (15MAR04) Ordinary Symbol and Literal Cross Reference                                          Page  237
 VNAREA        1 00000024 FFFFFFE4     U    7192  7194   7198   7204   7253   7259   7264   7270
 VNARRAY       4 00000020 FFFFFFE4         7118 30178  30945
 VNASUB1       2 00000012 FFFFFFE4     H    7062 27793
 VNATYPE       1 00000030 FFFFFFE4     R    7211  7220   7230   7240
 VNDATA       16 00000020 FFFFFFE4     X    7070  7071   7073   7075   7257   7257   7262   7262   7268   7268   7273
                                                  7273
 VNDEBUG       1 00000021 FFFFFFE4     R    7153  7157   7162   7167   7172
 VNDESC       32 00000000 FFFFFFE4     X    6996  6997   7065   7065   7344   7382   9089   9095   9135   9138  12821
                                                 12827  12867  12870  28045  29161  29411  30816  30822  31062  31293
                                                 31403  31404  31686  31801  34562
 VNENTRY      80 00000000 FFFFFFE4     J    7286  7306   9032U 12764U 27698U 29862U 30012U 30712U 30749  30779U 30934U
                                                 30971U 31253U 31638U 31672U
 VNFLAGS1      1 00000022 FFFFFFE4     R    7177  7181
 VNNAME       16 00000000 FFFFFFE4     C    6998  7250  11856  14537
 VNPREFIX      1 00000010 FFFFFFE4     R    7001  7010   7020   7030   7040   7050  27712
 VNSDATA       6 00000020 FFFFFFE4     X    7072  7202   7202
 VNTYPE        1 00000020 FFFFFFE4     R    7079  7088   7098   7108   7118   7128   7138   7148  31652
 VNVALUE      12 00000024 FFFFFFE4     X    7196  7277
 VPARM       336 00000000 FFFFFFE3     J    7314  7363  28604  28689  30376  30755  31061  31402  31800  34494  34558
                                                 34695  34759
 VSTRING       1 00000000 0000004D     T   31880 31880
 WAR           8 00000008 00000001 A   #    1027  7538M  7581   7712M  8429   8481M  8615   8741M  9242   9281M  9438
                                                  9512M  9548   9573M  9609   9694M 10177  10331M 10399  10426M 10588
                                                 10615M 10773  10801M 10869  10896M 11058  11109M 11350  11418M 11728
                                                 11895M 12416  12494M 12962  13047M 13526  13680M 13748  13775M 13937
                                                 13964M 14122  14150M 14214  14241M 14399  14577M 14905  14966M 15085
                                                 15146M 15276  15337M 15659  15741M 16015  16068M 16172  16213M 16317
                                                 16413M 16565  16636M 16782  16836M 17350  17425M 17662  17807M 18037
                                                 18080M 18341  18417M 18595  18633M 18695  18778M 19054  19145M 19186
                                                 19212M 19253  19279M 19315  19351M 19393  19469M 19658  19746M 19849
                                                 19894M 19981  20026M 20084  20157M 20330  20393M 20566  20639M 21010
                                                 21089M 21226  21289M 21426  21510M 21833  21900M 22062  22073  22138M
                                                 22465  22558M 22623  22634  22710M 22779  22822M 23066  23107M 23298
                                                 23314  23355M 23474  23490  23532M 23769  23836M 23907  23981M 24191
                                                 24265M 24457  24596M 24856  24872  24981M 25055  25083M 25210  25237M
                                                 25577  25672M 25803  25819  25866M 26249  26298M 26524  26647M 26677
                                                 26689  26717M 26796  26808  26836M 26952  26964  27041M 27281  27292
                                                 27344M 28067  28078  28129M 28621  28632  28717M 29428  29444  29537M
                                                 29918  29929  29977M 30279  30290  30404M 30573  30647M 31093  31174M
                                                 31464  31537M 31855  31926M 32363  32417M 32880  32927M 33286  33369M
                                                 33691  33760M 34005  34049M 34161  34221M 34275  34309M 34465  34522M
                                                 34666  34723M 34902  34945M 35097  35157M 35221  35273M 35336  35410M
                                                 35629  35693M 36001  36060M 36424  36467M 36747  36790M 36978
 WTOSG         1 00000000 00000000 A   T    2081  2081
 WYLXCALL      1 00000000 00000001     J     991   993   1009   1022   1035   1047   1060   1073   1086   1099   1112
                                                  1125   2365   2449   6189   6301   6581   6812   6816   6819   6871
                                                  6944   6974   7287   7315   7352   7371   7390   7509   7513   7691
                                                  7892   8460   8560
 XABORT        2 000007FC 00000001     H    9682 11773
 XABRTPRT      4 00000A08 00000001     F   10195 11774
 XBATTNID      8 000000FC FFFFFFDB     C    9665  9862M 10071  10072  10994M 11000
 XBERRID       8 00000004 FFFFFFDB     C    9662  9817M  9976  10524M 10530
 XBERRMLN      4 000000F8 FFFFFFDB     F    9664  9822M  9977  10719M
 XBERRMSG    235 0000000C FFFFFFDB     C    9663  9850M  9978  10747M
 XBFATTN      64 00000000 FFFFFFDB         9658 10057  10371  10466  10655  10831M 10926M
 XBFERROR    128 00000000 FFFFFFDB         9653  9922  10361M 10456M 10645M 10841  10936
 XBFLAG        1 00000000 FFFFFFDB     R    9649  9653   9658   9816M
 XBSTATE     136 00000104 FFFFFFDB     X    9666  9869M  9869   9942   9943   9969  10035  10092  10093  10119  10149
                                                 11669
1XCALL    (XCAL2025) (13:01) (15MAR04) Ordinary Symbol and Literal Cross Reference                                          Page  238
 XBTWA        96 00000000 FFFFFFCE     J   17403 17426  17455U 17666  17668  17669
 XBTXF        96 00000000 FFFFFFCE     X   17396 17468
 XBWA        396 00000000 FFFFFFDB     J    9673  9695   9724U  9728   9736U 10181  10183  10184
 XC#SETNO      4 00000004 FFFFFFDE     F    7672  8130M  8161M  8201   8288   8364   8389
 XCACTCMD    243 00000000 FFFFFFDD     X    8452  8517M  8554M  8569
 XCACTIVE      2 000002F6 00000001     H    8469  8465
 XCACTWA     243 00000000 FFFFFFDD     J    8459  8482   8511U  8619   8621   8622
 XCALL         2 0000005A 00000001     H    7700  7696   8669
 XCAL2025      1 00000000 00000001     R    1137  1135
 XCDSTATE    136 00000000 FFFFFFDA     X   11390 11670  11696  11704
 XCDWA       136 00000000 FFFFFFDA     J   11397 11419  11448U 11732  11734  11735
 XCLACT        2 00000000 FFFFFFDE         7645  7786M  8046   8155
 XCLDSN        1 00000000 FFFFFFDE         7635  7807M  7991   8097
 XCLEANUP      2 00000D26 00000001     H   11099 11766
 XCLFLAG       1 00000000 FFFFFFDE     R    7626  7635   7645
 XCLFLAG2      1 00000001 FFFFFFDE     R    7650  7659   7669
 XCLFREE       2 00000001 FFFFFFDE         7669  7852M
 XCLNLIST    256 00000208 FFFFFFDE     X    7680  8290   8299   8325   8326
 XCLPARMS      1 00000001 FFFFFFDE         7659  7831M  8240   8269
 XCLPLIST    256 00000108 FFFFFFDE     X    7679  8248   8316   8317
 XCLSTATE    136 00000DE8 FFFFFFDE     X    7683  8347   8355   8367   8401
 XCLVLIST   2688 00000308 FFFFFFDE     X    7681  8277   8298
 XCLWA      3696 00000000 FFFFFFDE     J    7690  7713   7742U  7748   7749   8433   8435   8436
 XCLXINFO     96 00000D88 FFFFFFDE     X    7682  7997   8006   8007   8107   8108
 XCMDABRT      2 000007D0 00000001     H    9563  9496
 XCMDRET       2 000007A4 00000001     H    9502  9466   9481
 XCNEWSET      4 00000010 FFFFFFDE     F    7675  8193M  8195   8300   8319   8328   8335   8340   8357
 XCOMMAND      2 00000DCA 00000001     H   11406 11772
 XCONVERT      2 00002BE0 00000001     H   19341 19337
 XCPARM      235 00000014 FFFFFFDE     X    7676  7886M  8247   8276   8308
 XCPARMCT      4 00000104 FFFFFFDE     F    7678  7853M  8253M  8297   8309
 XCPARMLN      4 00000100 FFFFFFDE     F    7677  7858M  7859   8246   8275   8307
 XCRGEXEC      4 00000008 FFFFFFDE     F    7673  8131M  8163M  8202   8365
 XCRGFLOW      4 0000000C FFFFFFDE     F    7674  8132M  8165M  8289   8366
 XDELETE       1 00000000 0000003A     T   22510 22510
 XDELSET       1 00000000 0000002D     T   17725 17725  22501
 XDSNAME      64 00000000 FFFFFFE7     J    6870  6873   6874   6892   6966   7499  14937  15117  15387U 15393  15791U
                                                 15804  18130U 22188U 22272M 22309M 22400M 22498  35010U 35042M 35198U
                                                 35314U 36031  36499U 36822U
 XF#SETNO      4 00000044 FFFFFFE6     F    6932  8130  15463  15491  15537M 15549  15579  15609  15866M 15878  17579
                                                 17604  17920  18220  20702  21192  21392  21647  21710  35204
 XFENTRY      96 00000000 FFFFFFE6     J    6943  7682   8130   8131   8132  15309  15378U 15447  15596  15712  15713
                                                 15782U 15803M 15803  15895  15900  15913  15963  17396  17466U 17548
                                                 17778  17848U 17857M 17857  17889  17890  18002  18003  18121U 18140M
                                                 18140  18172  18173  18306  18307  20128  20198U 20217M 20217  20297
                                                 20298  20299  20308  20309  20434U 20453M 20453  20533  20534  20535
                                                 20544  20545  20680U 20797  20798  20799  20921  20922  20923  21060
                                                 21130U 21145  21180  21330U 21345  21380  21551U 21582  21591  21592
                                                 21767  21768  22109  22179U 22384  35189U 35305U 36030  36101U 36373
 XFFLAG1       1 00000040 FFFFFFE6     R    6898  6907   6917
 XFFMARK     128 00000000 FFFFFFCC        18741 18929  18974  19175M
 XFFUNFMT     64 00000000 FFFFFFCC        18746 18941  18986  19242M
 XFINDENT      4 00000004 FFFFFFCC     F   18749 18831M 19022  19304M
 XFLDTIME      8 00000050 FFFFFFE6     D    6935 15546M 15875M 17911  18211
 XFNAME       64 00000000 FFFFFFE6     X    6892 15390  15446  15794  17889  17890  17891  17968  18002  18003  18004
                                                 18133  18172  18173  18174  18268  18306  18307  18308  20260M 20289M
                                                 20297  20298  20496M 20525M 20533  20534  20705  20797  20798  20921
                                                 20922  21591  21592  21593  21650  21713  21767  21768  21769  22272
                                                 22400  35201  35317  36395
1XCALL    (XCAL2025) (13:01) (15MAR04) Ordinary Symbol and Literal Cross Reference                                          Page  239
 XFOPTION      1 00000000 FFFFFFCC     R   18737 18741  18746  18830M 18898
 XFORMAT       2 000029BC 00000001     H   18766 18762
 XFORMPRT      4 00002ABC 00000001     F   19070 19689
 XFPUBLIC      1 00000040 FFFFFFE6         6907 15865M 17598  20743
 XFRGEXEC      4 00000048 FFFFFFE6     A    6933  8131  15464  15492  15539M 15550  15580  15868M 15879  20703  21193
                                                 21393  21648  21711
 XFRGFLOW      4 0000004C FFFFFFE6     A    6934  8132  15541M 15581  15870M 15880
 XFSCIND       2 00002BB4 00000001     H   19269 19112
 XFSCMARK      2 00002B5C 00000001     H   19135 19082
 XFSCUNF       2 00002B88 00000001     H   19202 19097
 XFUSERX       2 00000040 FFFFFFE6         6917 15536M 17573  20867
 XFWA          8 00000000 FFFFFFCC     J   18756 18779  18808U 18812  18820U 19058  19060  19061
 XFXENTRY     80 00000000 FFFFFFE5     J    6973 20129  20207U 20224M 20224  20279M 20281  20282  20283  20443U 20460M
                                                 20460  20515M 20517  20518  20519  20611  20689U 20701M 20701  20750
                                                 20751  20752  20874  20875  20876  21061  21139U 21191M 21191  21196
                                                 21339U 21391M 21391  21396  21482  21560U 21646M 21646  21654  21655
                                                 21656  21709M 21709  21717  21718  21719
 XFXNAME      64 00000010 FFFFFFE5     X    6966 20289  20525  20705M 21650M 21713M
 XFXNDX       16 00000000 FFFFFFE5     C    6960  6961   6964   6964  20281  20282  20517  20518  20704M 20750  20751
                                                 20874  20875  21194M 21394M 21649M 21654  21655  21712M 21717  21718
 XGET          1 00000000 00000039     T   22508 22508
 XGETFRST      1 00000000 00000033     T   18376 18376
 XGETNEXT      1 00000000 00000036     T   18381 18381
 XLDWA        64 00000000 FFFFFFD5     J   14944 14967  14996U 15089  15091  15092
 XLFIRST       1 00000010 00000001 A   U   22668 23222  23224  23258  24482  24483  24487
 XLISTCLR      2 000036D0 00000001     H   22698  8638  22694
 XLISTCNT      1 00000100 00000001 A   U   22666 22667  23222  23224  24483  24487
 XLISTEND      4 00000400 FFFFFFC5     F   22681 22946  23196  23231  23433  23654  23719  23739M 23739
 XLISTGET      2 000037DA 00000001     H   23095 24478
 XLISTLEN      1 00000400 00000001 A   U   22667 22679  22680  22756  22898  23039  23143  23391  23608  23718  23742
                                                 24485  24488
 XLISTLRU      2 00003888 00000001     H   23343 24479
 XLISTMRK      2 00003722 00000001     H   22810 17717
 XLISTWA    1028 00000000 FFFFFFC5     J   22688 22711  22740U 22783  22785  22786  22823  22852U 23070  23072  23073
                                                 23108  23137U 23318  23320  23321  23356  23385U 23494  23496  23497
                                                 23533  23562U 23773  23775  23776
 XLLIST     1024 00000004 FFFFFFC5     X   22679 22680  22750M 22750  22751M 22751  22752M 22752  22753M 22753  22757
                                                 22899  22944  22945  23036M 23040  23144  23230  23392  23609  23652
                                                 23653  23743
 XLOAD         2 00001D5E 00000001     H   14954 14950
 XLSETNO       4 00000000 FFFFFFC5     F   22678 22856M 22943  23566M 23651
 XMRK          4 0000003C FFFFFFE7     C    6863 18205  35205M 35320M
 XNAME        56 00000000 FFFFFFE7     C    6860  6861  35070M 36512  36517  36652  36657  36835  36840  36883  36888
                                                 37010
 XPROC         2 000028E2 00000001     H   18407 18403
 XPUT          1 00000000 00000032     T   17742 17742  22509
 XRCNT         4 00000000 FFFFFFDC     F    8704  8958M  9039   9194
 XRETKWS       4 0000072C 00000001     F    9454 11768
 XRETOPTS      2 0000066E 00000001     H    9271  9267  11757
 XRETURN       2 0000048E 00000001     H    8729  8725
 XRETXCMD      2 000057CA 00000001     H   32407 11785
 XRLIST      256 00000304 FFFFFFDC     X    8708  9034   9040   9196
 XRNLIST     256 00000104 FFFFFFDC     X    8706  8970   8971   9059   9060   9132
 XRPARM        4 00000E88 FFFFFFDC     F    8711  8909M  8952   8962
 XRPARMLN      4 00000E84 FFFFFFDC     F    8710  8908M  8951   8961
 XRPLIST     256 00000204 FFFFFFDC     X    8707  8997   8998   9134
 XRRLIST     256 00000004 FFFFFFDC     X    8705  8963   9036   9197
 XRSTATE     136 00000E8C FFFFFFDC     X    8712  9167   9168   9198   9199   9206   9213
 XRVLIST    2688 00000404 FFFFFFDC     X    8709  8953   9195
1XCALL    (XCAL2025) (13:01) (15MAR04) Ordinary Symbol and Literal Cross Reference                                          Page  240
 XRWA       3860 00000000 FFFFFFDC     J    8719  8742   8771U  9246   9248   9249
 XSCAN         2 0000297E 00000001     H   18623 18619
 XSETSET       1 00000000 00000031     T   17741 17741  18373  22507
 XXITLNO       4 00000000 FFFFFFCB     F   19439 19515M 19629
 XXITSTAT    136 00000004 FFFFFFCB     X   19440 19512  19522M 19522
 XXITWA      140 00000000 FFFFFFCB     J   19447 19470  19499U 19662  19664  19665
 XXXATNID      2 00000CAA 00000001     H   10886 10297
 XXXATTN       2 00000C6E 00000001     H   10791 10267  10282
 XXXERRID      2 00000B84 00000001     H   10416 10237
 XXXERRMS      2 00000C00 00000001     H   10605 10252
 XXXERROR      2 00000B48 00000001     H   10321 10207  10222
 XXXEXIT       2 00002C14 00000001     H   19457 19453
 =A((DESRTRN+LOCATRTN+DESABORT+UNPRST))
               4 0000255C 00000001     A   17734 16736
 =A((DESRTRN+LXCATRTN+DESABORT+UNPRST))
               4 0000254C 00000001     A   17730 16519
 =A(-4)        4 000050C4 00000001     A   30317 29589
 =A(BADPRETN)
               4 000055C8 00000001     A   31884 31307  31345  31392
 =A(BADSYSP)
               4 000055CC 00000001     A   31885 31700  31738  31778
 =A(C'A')      4 00001020 00000001     A   11778 10545  11015
 =A(C'A')      4 00001A88 00000001     A   14462 13894  14360
 =A(C'Z')      4 00001024 00000001     A   11779 10559  11029
 =A(C'Z')      4 00001A8C 00000001     A   14463 13908  14374
 =A(CHKALIST)
               4 000024F0 00000001     A   17707 15467
 =A(CLRALIST)
               4 000003B4 00000001     A    8639  7569
 =A(CLRALIST)
               4 000024E8 00000001     A   17705 15434
 =A(CP#FEXEC+CPMAXXCT)
               4 0000363C 00000001     A   22500 19800
 =A(CP#FEXEC)
               4 00003638 00000001     A   22499 19786
 =A(CP#XACT)
               4 0000367C 00000001     A   22516 22303
 =A(CP#XACT)
               4 0000635C 00000001     A   37013 35852  36252
 =A(CP#XOLD)
               4 00000FC0 00000001     A   11754  8802
 =A(CP#XOLD)
               4 00001A50 00000001     A   14448 12555
 =A(CP#XOLD)
               4 000024E4 00000001     A   17704 15426  17488
 =A(CP#XOLD)
               4 00003674 00000001     A   22514 22242
 =A(CP#XOLD)
               4 00006368 00000001     A   37016 36122
 =A(CP#XTEMP)
               4 0000259C 00000001     A   17744 17502
 =A(CP#XTEMP)
               4 00003680 00000001     A   22517 22341
 =A(CP#XTEMP)
               4 00006360 00000001     A   37014 35916  36316
 =A(CPPLIMIT)
               4 00004D84 00000001     A   29469 27564  28341  28939
 =A(CV#FEXEC)
               4 00002520 00000001     A   17719 15848
1XCALL    (XCAL2025) (13:01) (15MAR04) Ordinary Symbol and Literal Cross Reference                                          Page  241
 =A(CV#FEXEC)
               4 00003648 00000001     A   22503 19932  21986  22024
 =A(DELPINFO)
               4 000025A8 00000001     A   17747 17608
 =A(DELPINFO)
               4 0000364C 00000001     A   22504 19964
 =A(DELUEXEC)
               4 000024F4 00000001     A   17708 15495
 =A(DELUEXEC)
               4 00003B58 00000001     A   24480 22611
 =A(DELUINFO)
               4 000025A4 00000001     A   17746 17583
 =A(DELUINFO)
               4 00003644 00000001     A   22502 19832
 =A(EVALPARM)
               4 00004DA8 00000001     A   29478 28360  29091
 =A(GETPINFO)
               4 0000252C 00000001     A   17722 15929
 =A(GETPINFO)
               4 00003654 00000001     A   22506 20068
 =A(GETSETNO)
               4 000024FC 00000001     A   17710 15529
 =A(GETUINFO)
               4 000024EC 00000001     A   17706 15450
 =A(GETUINFO)
               4 00003650 00000001     A   22505 20053  21148
 =A(GETXINFO)
               4 000003D8 00000001     A    8648  8010   8111
 =A(GETXINFO)
               4 000025A0 00000001     A   17745 17551
 =A(GETXINFO)
               4 00003668 00000001     A   22511 21348  22387
 =A(GETXINFO)
               4 00006374 00000001     A   37019 36376
 =A(GETXRG)
               4 00003684 00000001     A   22518 22369
 =A(GTPSTART)
               4 00001A44 00000001     A   14445 12357
 =A(GTXSTART)
               4 0000044C 00000001     A    8665  8370
 =A(L'CPCMD)
               4 00001038 00000001     A   11784 11614  11626
 =A(LDABORT)
               4 00002558 00000001     A   17733 16539  16756  17062
 =A(LDACT)
               4 00002540 00000001     A   17727 16126  16271
 =A(LDDSN)
               4 00002508 00000001     A   17713 15586  15885
 =A(LOADACT)
               4 00000414 00000001     A    8651  8080
 =A(LOADACT)
               4 000024D4 00000001     A   17700 15029
 =A(LOADDSN)
               4 000003DC 00000001     A    8649  8025
 =A(LOADDSN)
               4 000024D8 00000001     A   17701 15062
 =A(LOADPUB)
               4 000024DC 00000001     A   17702 15252
 =A(LOADRTN)
1XCALL    (XCAL2025) (13:01) (15MAR04) Ordinary Symbol and Literal Cross Reference                                          Page  242
               4 00002550 00000001     A   17731 16520  16737
 =A(LOADTEMP)
               4 00002CD4 00000001     A   19687 18674  18882
 =A(MANYPARM)
               4 00004D88 00000001     A   29470 27572  28349  28947
 =A(MRKALIST)
               4 00000424 00000001     A    8655  8205
 =A(MRKALIST)
               4 00002504 00000001     A   17712 15553
 =A(MRKNAME)
               4 00002524 00000001     A   17720 15898
 =A(MRKNAME)
               4 0000366C 00000001     A   22512 21585
 =A(PABORT)
               4 00001A5C 00000001     A   14451 12675
 =A(PABRTPRT)
               4 00001A7C 00000001     A   14459 13262
 =A(PARMERR)
               4 00004D9C 00000001     A   29475 27774  27855  27904  27947  28010  28381  28422  28463  28506  28569
                                                 29188  29229  29270  29313  29376
 =A(PASSPARM)
               4 00000438 00000001     A    8660  8312
 =A(PASSPARM)
               4 00001A38 00000001     A   14442 12313
 =A(PASSPRMS)
               4 00000434 00000001     A    8659  8303
 =A(PASSPRMS)
               4 00001A34 00000001     A   14441 12304
 =A(PSCNPARM)
               4 00000FD0 00000001     A   11758  8906
 =A(PSCNPARM)
               4 00001A58 00000001     A   14450 12634
 =A(RETPARMS)
               4 00000FEC 00000001     A   11765  9202
 =A(RETPARMS)
               4 00001A6C 00000001     A   14455 12922
 =A(RETSYSP)
               4 000024C8 00000001     A   17697 14876
 =A(RSETNAME)
               4 00002528 00000001     A   17721 15916
 =A(SCNDSN)
               4 000024CC 00000001     A   17698 15005  15196
 =A(SCNNLIST)
               4 00000FD8 00000001     A   11760  8966
 =A(SCNNLIST)
               4 00001A60 00000001     A   14452 12698
 =A(SCNPCALL)
               4 00001A18 00000001     A   14434 12130
 =A(SCNPCALL)
               4 000024B8 00000001     A   17693 14705
 =A(SCNPDESC)
               4 00004D90 00000001     A   29472 27623  28999
 =A(SCNPDESC)
               4 000050E0 00000001     A   30324 30059
 =A(SCNPLIST)
               4 00000428 00000001     A    8656  8251
 =A(SCNPLIST)
               4 00001A28 00000001     A   14438 12253
 =A(SCNPLIST)
1XCALL    (XCAL2025) (13:01) (15MAR04) Ordinary Symbol and Literal Cross Reference                                          Page  243
               4 000024C0 00000001     A   17695 14822
 =A(SCNVLIST)
               4 0000042C 00000001     A    8657  8280
 =A(SCNVLIST)
               4 00000FD4 00000001     A   11759  8956
 =A(SCNVLIST)
               4 00001A2C 00000001     A   14439 12282  12688
 =A(SCNVLIST)
               4 000024C4 00000001     A   17696 14851
 =A(SCNXCALL)
               4 000003BC 00000001     A    8641  7765
 =A(SCNXPRT)
               4 00004570 00000001     A   26986 24757
 =A(SDSNPRT)
               4 000045B0 00000001     A   26998 26437
 =A(SDSNXPRT)
               4 000045B4 00000001     A   26999 26491
 =A(SEGFDSN)
               4 000028D4 00000001     A   18380 17971  18271
 =A(SEGXDSN)
               4 00006370 00000001     A   37018 36216  36398
 =A(SEGXNAME)
               4 00006364 00000001     A   37015 35975
 =A(SETPRET)
               4 00001A70 00000001     A   14456 12929  13380  13471
 =A(SETXINFO)
               4 00002510 00000001     A   17715 15599  15903  15966
 =A(SETXNAME)
               4 000003D4 00000001     A    8647  8000
 =A(SETXNAME)
               4 000024E0 00000001     A   17703 15396  15807
 =A(SNNPPRT)
               4 00004594 00000001     A   26995 25751
 =A(START)
               4 00000454 00000001     A    8667  8404
 =A(START)
               4 00000FF4 00000001     A   11767  9216  10038  10152
 =A(START)
               4 00001A4C 00000001     A   14447 12391  12936  13399  13501
 =A(START)
               4 00002D18 00000001     A   19698 19633
 =A(SXACTPRT)
               4 00004574 00000001     A   26987 25029
 =A(SXDSNPRT)
               4 00004580 00000001     A   26990 25172
 =A(UPDTINFO)
               4 00002530 00000001     A   17723 15946
 =A(XABORT)
               4 0000100C 00000001     A   11773  9421
 =A(XABRTPRT)
               4 00001010 00000001     A   11774  9889
 =A(XCALL)
               4 0000045C 00000001     A    8669  8592
 =A(XCLEANUP)
               4 00000FF0 00000001     A   11766  9209   9972  10122  11699
 =A(XCOMMAND)
               4 00001008 00000001     A   11772  9402
 =A(XFORMPRT)
               4 00002CDC 00000001     A   19689 18851
1XCALL    (XCAL2025) (13:01) (15MAR04) Ordinary Symbol and Literal Cross Reference                                          Page  244
 =A(XLFIRST+XLISTCNT)
               4 00003B64 00000001     A   24483 22884  23594
 =A(XLFIRST)
               4 00003B60 00000001     A   24482 22870  23580
 =A(XLISTCLR)
               4 000003B0 00000001     A    8638  7565
 =A(XLISTGET)
               4 00003B50 00000001     A   24478 22590
 =A(XLISTLEN)
               4 00003B6C 00000001     A   24485 22926  23171  23419  23636
 =A(XLISTLRU)
               4 00003B54 00000001     A   24479 22605
 =A(XLISTMRK)
               4 00002518 00000001     A   17717 15612
 =A(XRETKWS)
               4 00000FF8 00000001     A   11768  9330
 =A(XRETOPTS)
               4 00000FCC 00000001     A   11757  8896
 =A(XRETXCMD)
               4 0000103C 00000001     A   11785 11707
 =A(0)         4 00003B70 00000001     A   24486 24151
 =A(0)         4 000050E4 00000001     A   30325 30079
 =A(1)         4 00003670 00000001     A   22513 21972
 =A(1)         4 000050D4 00000001     A   30321 29739  29784  30249
 =A(1)         4 000055C4 00000001     A   31883 31012
 =A(11)        4 00005CA4 00000001     A   34190 33470
 =A(11)        4 00006380 00000001     A   37022 36539
 =A(4)         4 00001004 00000001     A   11771  9394
 =A(4)         4 000050CC 00000001     A   30319 29638
 =AL4(CP#XACT)
               4 00000418 00000001     R    8652  8161
 =AL4(CP#XACT)
               4 0000253C 00000001     R   17726 16117
 =AL4(CP#XTEMP)
               4 00002544 00000001     R   17728 16262
 =AL4(L'NLIST)
               4 00004D80 00000001     R   29468 27371
 =AL4(L'NLIST)
               4 000055C0 00000001     R   31882 30783
 =AL4(L'PLIST)
               4 00004DAC 00000001     R   29479 28754
 =AL4(L'SCLWA-40+L'VLIST+L'VLIST)
               4 000024A8 00000001     R   17689 14624
 =AL4(L'VLIST)
               4 00004DA4 00000001     R   29477 28156
 =AL4(L'VLIST)
               4 000055BC 00000001     R   31881 30716
 =AL4(L'XNAME)
               4 00006350 00000001     R   37010 35025
 =AL4(235)
               4 00002568 00000001     R   17737 16989
 =C'    '      4 000028DC 00000001     C   18382 18205
 =C' '         1 00006429 00000001     C   37035 35567
 =C' = '       3 0000640D 00000001     C   37033 34868
 =C' is invalid.'
              12 0000633C 00000001     C   37007 34440
 =C' is the last line.'
              18 00001044 00000001     C   11788 11286
 =C' of EXEC: (ACTIVE file)'
1XCALL    (XCAL2025) (13:01) (15MAR04) Ordinary Symbol and Literal Cross Reference                                          Page  245
              23 0000642A 00000001     C   37036 35874
 =C' of EXEC: '
              10 000063B2 00000001     C   37028 35957
 =C'(....) '
               7 0000644E 00000001     C   37038 36338
 =C'(ACTIVE file)'
              13 00006441 00000001     C   37037 36175  36185  36274
 =C'; -- invalid.  Expecting ")".'
              29 00004E46 00000001     C   29488 27931  28490  29297
 =C', command line exceeds 235 characters.'
              38 000025DE 00000001     C   17751 17046
 =C': invalid variable name.'
              24 000050A8 00000001     C   30315 29652
 =C': invalid; quotes required.'
              27 000010BD 00000001     C   11792 10712
 =C': invalid; quotes required.'
              27 00001BEA 00000001     C   14477 14061
 =C': invalid'
               9 000045D8 00000001     C   27005 25559  26232
 =C': mismatched quotes.'
              20 0000459C 00000001     C   26997 26046
 =C': not a procedure parameter.  Unable to return value.'
              53 00001079 00000001     C   11790  9125
 =C': not a procedure parameter.  Unable to return value.'
              53 00001BB5 00000001     C   14476 12857
 =C': not DECLARED as array.  Subscripts invalid.'
              45 00005118 00000001     C   30333 30192
 =C': undefined procedure name.'
              27 00001B44 00000001     C   14473 12117
 =C': undefined system procedure name.'
              34 000025AC 00000001     C   17748 14694
 =C': undefined.'
              12 000050EC 00000001     C   30327 30135
 =C'######'
               6 000063AC 00000001     C   37027 35814
 =C'#'         1 00006455 00000001     C   37039 36687  36918
 =C'simple local variables and arrays.'
              34 00004DB6 00000001     C   29483 27740  27821
 =C'Array element specified is not a local variable.'
              48 00004D40 00000001     C   29463 27839
 =C'ACTIVE file cannot be loaded into PUBLIC EXEC file.'
              51 00002635 00000001     C   17753 15218
 =C'Command not yet implemented.'
              28 00002CF8 00000001     C   19696 19380
 =C'Command stopped.'
              16 00002498 00000001     C   17688 17512
 =C'Error in line '
              14 000025D0 00000001     C   17750 16999
 =C'Error in PROC.'
              14 00001A9C 00000001     C   14468 13193
 =C'Error in XPROC.'
              15 000010AE 00000001     C   11791  9820
 =C'Exec file name too long. '
              25 00006410 00000001     C   37034 35035
 =C'Expecting ")".'
              14 00004DD8 00000001     C   29484 27888  28447  29254
 =C'File is currently active, unable to load.'
              41 00002668 00000001     C   17754 15484
 =C'Flow control statements may be used only in EXEC files.'
1XCALL    (XCAL2025) (13:01) (15MAR04) Ordinary Symbol and Literal Cross Reference                                          Page  246
              55 00001AC3 00000001     C   14470 11968
 =C'Flow control statements may be used only in EXEC files.'
              55 00002D97 00000001     C   19703 18481
 =C'Free Format parameter string invalid for SYSCALL.'
              49 00002604 00000001     C   17752 14753
 =C'Invalid combination of formatting options.'
              42 00002D54 00000001     C   19701 19014
 =C'Line '
               5 000010D8 00000001     C   11793 11239
 =C'Loaded            ID  EXEC File Name'
              36 0000289C 00000001     C   18374 17872  18155
 =C'Missing command.'
              16 00000FB0 00000001     C   11753 11540
 =C'Missing data set name.'
              22 000045C0 00000001     C   27003 24731  26394  26927
 =C'Missing vairable name.'
              22 000050FC 00000001     C   30329 29599
 =C'Missing Parameter.'
              18 00004DE6 00000001     C   29485 28406  29213
 =C'Not in procedure.  Command ignored.'
              35 00001056 00000001     C   11789  8812
 =C'Not in procedure.  Command ignored.'
              35 00001B5F 00000001     C   14474 12565
 =C'Parameter #'
              11 000063BE 00000001     C   37030 34400
 =C'Parameter mismatch. Arrays must be passed arrays.'
              49 00005637 00000001     C   31890 31022
 =C'Prefixed variables are not allowed.  '
              37 00004E21 00000001     C   29487 27758
 =C'Procedure parameters must be separated by commas.'
              49 00004E63 00000001     C   29489 27994  28553  29360
 =C'Procedure variable list may contain only '
              41 00004DF8 00000001     C   29486 27722  27803
 =C'PARM_COUNT'
              10 000055D0 00000001     C   31886 30464
 =C'PARM_STRING'
              11 000055DA 00000001     C   31887 30516
 =C'PCALL: statement ignored.'
              25 00001AAA 00000001     C   14469 11950
 =C'PCALL: statement invalid.'
              25 00001AFA 00000001     C   14471 11996
 =C'RETURN: invalid within XPROC.  Use XRETURN instead.'
              51 00001B82 00000001     C   14475 12596
 =C'Statement may be used only in Extended EXEC mode.'
              49 00001B13 00000001     C   14472 12014
 =C'Statement may be used only in Extended EXEC mode.'
              49 00002DE7 00000001     C   19705 18527
 =C'Too many (>64) EXEC files active.'
              33 00000460 00000001     C    8670  8222
 =C'Too many (>64) EXEC files active.'
              33 00002691 00000001     C   17755 15570
 =C'Too many parameters specified on PCALL/XCALL.'
              45 0000560A 00000001     C   31889 30885
 =C'Too many parameters specified.'
              30 0000638C 00000001     C   37025 34250
 =C'Too many EXEC files loaded. '
              28 00002580 00000001     C   17743 17304
 =C'Unable to pass PARM_COUNT parameter.'
              36 00005594 00000001     C   31879 30494
1XCALL    (XCAL2025) (13:01) (15MAR04) Ordinary Symbol and Literal Cross Reference                                          Page  247
 =C'Unable to pass PARM_STRING parameter.'
              37 000055E5 00000001     C   31888 30546
 =C'Unable to pass PCALL/XCALL parameter.'
              37 00005668 00000001     C   31891 31052
 =C'Unable to return parameter:  '
              29 000063C9 00000001     C   37031 34632
 =C'Unable to return parameter: RETURN_PARM'
              39 000063E6 00000001     C   37032 34828
 =C'WYL.'      4 00006384 00000001     C   37023 36552
 =C'WYL.GS.WYL.'
              11 00005CB0 00000001     C   34193 33483
 =C'XCALL ACTIVE: command invalid from within EXEC file.'
              52 000003E0 00000001     C    8650  8071
 =C'XPROC statement is not executable.  Use XCALL command.'
              54 00002D1C 00000001     C   19699 18581
 =C'XPROC: statement ignored.'
              25 00002D7E 00000001     C   19702 18463
 =C'XPROC: statement invalid.'
              25 00002DCE 00000001     C   19704 18509  18563
 =CL(L'SNPROCNM)'XPROC '
              16 00005C88 00000001     C   34186 33528
 =CL(L'XDSNAME)'(ACTIVE file)'
              64 000035F8 00000001     C   22498 22309
 =CL16'SYS.CALLEDLIST  '
              16 00003B40 00000001     C   24477 23882  24048  24160  24332
 =CL16'SYS.EXECNAME    '
              16 000035E8 00000001     C   22497 22250
 =CL16'SYS.EXECNAME    '
              16 00006320 00000001     C   37003 36142
 =CL16'SYS.XRET_ATTNID '
              16 00000FA0 00000001     C   11752 10073
 =CL16'SYS.XRET_ATTNID '
              16 000019F8 00000001     C   14429 13434
 =CL16'SYS.XSETLIST    '
              16 00003B30 00000001     C   24476 22758  22900  23041  23145  23393  23610  23744
 =CL16'SYS*CALLER_PLIST'
              16 00000368 00000001     C    8633  8318
 =CL16'SYS*CALLER_PLIST'
              16 00000F70 00000001     C   11748  8999
 =CL16'SYS*CALLER_PLIST'
              16 000019B8 00000001     C   14424 12319  12731
 =CL16'SYS*EXEC_STATE  '
              16 00000388 00000001     C    8635  8356
 =CL16'SYS*EXEC_STATE  '
              16 00000F80 00000001     C   11749  9169   9944  10094  11671
 =CL16'SYS*EXEC_STATE  '
              16 000019D8 00000001     C   14426 12345  12889  13352  13443
 =CL16'SYS*EXEC_STATE  '
              16 00002CB8 00000001     C   19683 19554  19599
 =CL16'SYS*PROC_NLIST  '
              16 00000378 00000001     C    8634  8327
 =CL16'SYS*PROC_NLIST  '
              16 00000F60 00000001     C   11747  8972
 =CL16'SYS*PROC_NLIST  '
              16 000019C8 00000001     C   14425 12328  12704
 =CL16'XPROC '
              16 00000398 00000001     C    8636  8390
 =CL16'XPROC '
              16 00000F50 00000001     C   11746  8837
1XCALL    (XCAL2025) (13:01) (15MAR04) Ordinary Symbol and Literal Cross Reference                                          Page  248
 =CL2'  '      2 000028E0 00000001     C   18383 17937  18237
 =CL4'    '
               4 00002CE8 00000001     C   19692 18904
 =CL4'M   '
               4 00002CEC 00000001     C   19693 18947
 =CL4'MU  '
               4 00002CF0 00000001     C   19694 18992
 =CL4'NEXT'
               4 00005CA8 00000001     C   34191 33516  33835
 =CL8'ACTIVE  '
               8 000003A8 00000001     C    8637  8517
 =CL8'ATTN    '
               8 00000F98 00000001     C   11751  9862
 =CL8'ATTN    '
               8 000019F0 00000001     C   14428 13235
 =CL8'ERROR   '
               8 00000F90 00000001     C   11750  9817
 =CL8'ERROR   '
               8 000019E8 00000001     C   14427 13190
 =CL8'INVALID'
               8 00004558 00000001     C   26982 25556  26229
 =CL8'SYNTAX'
               8 00004560 00000001     C   26983 26043
 =F'-1'        4 000003C0 00000001     F    8642  7853
 =F'-1'        4 00001A1C 00000001     F   14435 12173
 =F'-1'        4 000024BC 00000001     F   17694 14748
 =F'1'         4 0000251C 00000001     F   17718 15836
 =F'3'         4 00002CD8 00000001     F   19688 18831
 =F'8'         4 00000458 00000001     F    8668  8568
 =H'11'        2 000063BC 00000001     H   37029 36613
 =V(ACTCHK)
               4 00002534 00000001     V   17724 16097  16242
 =V(ACTCHK)
               4 00002CD0 00000001     V   19686 18668  18875
 =V(BTD)       4 000028CC 00000001     V   18378 17935  18235
 =V(CHECKEND)
               4 00004DA0 00000001     V   29476 27988  28547  29354
 =V(CHKPDEF)
               4 00001A10 00000001     V   14432 12070
 =V(CLRVSETS)
               4 00000420 00000001     V    8654  8198
 =V(CLRVSETS)
               4 00001A24 00000001     V   14437 12229
 =V(CVEXNO)
               4 00001034 00000001     V   11783 11256
 =V(CVEXNO)
               4 00002570 00000001     V   17739 17016
 =V(CVEXNO)
               4 00006358 00000001     V   37012 35531  35765
 =V(DBCALL)
               4 00000450 00000001     V    8666  8393
 =V(DBCALL)
               4 00001A48 00000001     V   14446 12380
 =V(DBRET)
               4 00000FC4 00000001     V   11755  8840
 =V(DBRET)
               4 00001A54 00000001     V   14449 12624
 =V(DEQUOTE)
               4 00001028 00000001     V   11780 10671
1XCALL    (XCAL2025) (13:01) (15MAR04) Ordinary Symbol and Literal Cross Reference                                          Page  249
 =V(DEQUOTE)
               4 00001A90 00000001     V   14464 14020
 =V(DEQUOTE)
               4 00004598 00000001     V   26996 26004
 =V(DOFNAME)
               4 00004578 00000001     V   26988 25142  26770  26936
 =V(EDTCOM)
               4 00005C98 00000001     V   34187 32856
 =V(EVALEXPR)
               4 000050F8 00000001     V   30328 30273
 =V(EXRESET)
               4 000003D0 00000001     V    8646  7974
 =V(EXSPGET)
               4 00006354 00000001     V   37011 35522
 =V(EXTCLOSE)
               4 0000250C 00000001     V   17714 15592  15891
 =V(EXTOPEN)
               4 000024F8 00000001     V   17709 15505  15813
 =V(FFORMAT)
               4 00002CF4 00000001     V   19695 19025
 =V(FILEOPTS)
               4 0000457C 00000001     V   26989 25146  26774  26940
 =V(FILFOPTS)
               4 000045B8 00000001     V   27000 26784
 =V(FLOWCTRL)
               4 00002514 00000001     V   17716 15605  15909  16132  16277
 =V(FMTCLCK)
               4 000028C8 00000001     V   18377 17915  18215
 =V(FNAMEFIN)
               4 00004584 00000001     V   26991 25194  26788  26944
 =V(GETDATA)
               4 00003678 00000001     V   22515 22253
 =V(GETDATA)
               4 00003B68 00000001     V   24484 22903  23148  23396  23613  24051  24335
 =V(GETDATA)
               4 0000636C 00000001     V   37017 36145
 =V(GETPROCP)
               4 000024B0 00000001     V   17691 14644
 =V(GETSTATE)
               4 00000448 00000001     V    8664  8350
 =V(GETSTATE)
               4 00001A40 00000001     V   14444 12339
 =V(GETSUBS)
               4 000050D8 00000001     V   30322 29902
 =V(GETVAR)
               4 000050E8 00000001     V   30326 30108
 =V(GETVSTK)
               4 00000FDC 00000001     V   11761  8976   9003   9173   9948  10098  11675
 =V(GETVSTK)
               4 00001A64 00000001     V   14453 12708  12735  12893  13356  13447
 =V(GETVSTK)
               4 00002D14 00000001     V   19697 19558  19603
 =V(GTNEWSET)
               4 0000041C 00000001     V    8653  8191
 =V(GTNEWSET)
               4 00001A20 00000001     V   14436 12222
 =V(GTNEWSET)
               4 00005580 00000001     V   31874 30445
 =V(GTNEWSET)
1XCALL    (XCAL2025) (13:01) (15MAR04) Ordinary Symbol and Literal Cross Reference                                          Page  250
               4 00005CA0 00000001     V   34189 33428  33815
 =V(GTPNLIST)
               4 00001A30 00000001     V   14440 12294
 =V(GTPSCOPE)
               4 00005CAC 00000001     V   34192 33809
 =V(GTXNLIST)
               4 00000430 00000001     V    8658  8293
 =V(GTXSCOPE)
               4 00005C9C 00000001     V   34188 33422
 =V(INITATTN)
               4 000003C8 00000001     V    8644  7921
 =V(INITERR)
               4 000003C4 00000001     V    8643  7917
 =V(INITXDMP)
               4 000003CC 00000001     V    8645  7925
 =V(LOCALTOD)
               4 00002500 00000001     V   17711 15544  15873
 =V(LRTRIM)
               4 00000FC8 00000001     V   11756  8862
 =V(LRTRIM)
               4 00002564 00000001     V   17736 16955
 =V(LRTRIM)
               4 00004D7C 00000001     V   29467 27274  27383  28168  28766
 =V(MKFFINFO)
               4 000003B8 00000001     V    8640  7759
 =V(NDETRNG)
               4 00002548 00000001     V   17729 16508  16725
 =V(NOOPTS)
               4 000024D0 00000001     V   17699 15025
 =V(NOOPTS)
               4 00002CCC 00000001     V   19685 18662
 =V(NOOPTS)
               4 00004D78 00000001     V   29466 27148
 =V(NOTVALID)
               4 0000101C 00000001     V   11777 10379  10474  10518  10568  10663  10849  10944  10988  11038
 =V(NOTVALID)
               4 00001A84 00000001     V   14461 13728  13823  13867  13917  14012  14198  14289  14333  14383
 =V(NRESOLVE)
               4 00004588 00000001     V   26992 25198  26792  26948
 =V(NSCAN)
               4 00000FFC 00000001     V   11769  9334   9766   9893  11475  11506
 =V(NSCAN)
               4 00001A74 00000001     V   14457 13139  13266
 =V(NSCAN)
               4 00002CE0 00000001     V   19690 18855
 =V(NSCAN)
               4 00004568 00000001     V   26984 24691  24761  25033  25176  25755  26354  26441  26495  26887
 =V(NSCAN)
               4 00004D70 00000001     V   29464 27097  27185  27239
 =V(POPERR)
               4 00000FE8 00000001     V   11764  9163   9938  10088  11665
 =V(POPON)
               4 00000FE4 00000001     V   11763  9158   9933  10083  11660
 =V(PUSHERR)
               4 00000444 00000001     V    8663  8343
 =V(PUSHON)
               4 00000440 00000001     V    8662  8338
 =V(RDRNG)
               4 00002554 00000001     V   17732 16523  16740
1XCALL    (XCAL2025) (13:01) (15MAR04) Ordinary Symbol and Literal Cross Reference                                          Page  251
 =V(RETFMEM)
               4 00006388 00000001     V   37024 36664  36895
 =V(RETFNAME)
               4 0000637C 00000001     V   37021 36524  36847
 =V(RTRIM)
               4 00002560 00000001     V   17735 16893
 =V(RTRIM)
               4 00006378 00000001     V   37020 36520  36660  36843  36891
 =V(SAVEDATA)
               4 00001018 00000001     V   11776 10076
 =V(SAVEDATA)
               4 00001A80 00000001     V   14460 13437
 =V(SAVEDATA)
               4 00003B5C 00000001     V   24481 22761  23044  23747  23885  24163
 =V(SAVEVAR)
               4 00005590 00000001     V   31878 30476  30528  31034  31369  31757
 =V(SAVEVSTK)
               4 0000043C 00000001     V    8661  8322   8331   8360
 =V(SAVEVSTK)
               4 00001A3C 00000001     V   14443 12323  12332  12349
 =V(SCANCHK)
               4 00001000 00000001     V   11770  9348   9780   9907  11520
 =V(SCANCHK)
               4 00001A78 00000001     V   14458 13153  13280
 =V(SCANCHK)
               4 00002CE4 00000001     V   19691 18869
 =V(SCANCHK)
               4 0000456C 00000001     V   26985 24705  24775  25190  25769  26368  26455  26901
 =V(SCANCHK)
               4 00004D74 00000001     V   29465 27111  27199  27253
 =V(SCDQUOTE)
               4 0000458C 00000001     V   26993 25400
 =V(SCNPNAME)
               4 00001A0C 00000001     V   14431 12062
 =V(SCNPNAME)
               4 000024AC 00000001     V   17690 14637
 =V(SCNVNAME)
               4 000050C0 00000001     V   30316 29566
 =V(SEG)       4 0000102C 00000001     V   11781 10706  11251  11280  11298
 =V(SEG)       4 00001A94 00000001     V   14465 14055
 =V(SEG)       4 0000256C 00000001     V   17738 17011  17040  17524
 =V(SEG)       4 000028D0 00000001     V   18379 17966  18266
 =V(SEG)       4 00004590 00000001     V   26994 25552  26039  26225
 =V(SEG)       4 00004D94 00000001     V   29473 27734  27770  27815  27851  27900  27943  28006  28418  28459  28502
                                                 28565  29225  29266  29309  29372
 =V(SEG)       4 000050C8 00000001     V   30318 29611  29664  30147  30204
 =V(SEG)       4 00006330 00000001     V   37004 34262  34412  34452  34644  34840  34880  35561  35579  35789  35826
                                                 35886  35969  36197  36286  36350  36640  36699  36726  36871  36930
                                                 36957
 =V(SEGCR)
               4 00001014 00000001     V   11775 10015
 =V(SEGCR)
               4 00001A08 00000001     V   14430 11962  12008  13342
 =V(SEGCR)
               4 00002574 00000001     V   17740 17058
 =V(SEGCR)
               4 000028C0 00000001     V   18375 17884  17996  18167  18296
 =V(SEGCR)
               4 00002CC8 00000001     V   19684 18475  18521  18575
1XCALL    (XCAL2025) (13:01) (15MAR04) Ordinary Symbol and Literal Cross Reference                                          Page  252
 =V(SEGCR)
               4 00004D98 00000001     V   29474 27752  27833
 =V(SEGCR)
               4 00006334 00000001     V   37005 34390  34622  34818  35505  35605
 =V(SEGDC)
               4 00006338 00000001     V   37006 34434  34862
 =V(SEGINIT)
               4 00004D8C 00000001     V   29471 27615  28991
 =V(SEGINIT)
               4 000050DC 00000001     V   30323 30051
 =V(SEGT)      4 00001A14 00000001     V   14433 12111
 =V(SEGT)      4 000024B4 00000001     V   17692 14688
 =V(SEGVALUE)
               4 0000634C 00000001     V   37009 34885
 =V(SEGVAR)
               4 00006348 00000001     V   37008 34649
 =V(SEGVNAME)
               4 00000FE0 00000001     V   11762  9119
 =V(SEGVNAME)
               4 00001A68 00000001     V   14454 12851
 =V(SEGVNAME)
               4 000050D0 00000001     V   30320 29646  30129  30186
 =V(SEGWR)
               4 00001030 00000001     V   11782 11226  11323
 =V(VCLEAR)
               4 00005584 00000001     V   31875 30455  30506
 =V(VINTEGER)
               4 00005588 00000001     V   31876 30460
 =V(VNAME)
               4 0000558C 00000001     V   31877 30468  30520
 =V(VSTRING)
               4 000055B8 00000001     V   31880 30512
 =V(XDELETE)
               4 00003664 00000001     V   22510 21183  21199  21383  21399
 =V(XDELSET)
               4 00002538 00000001     V   17725 16106  16113  16251  16258  17536  17542
 =V(XDELSET)
               4 00003640 00000001     V   22501 19818  19824  19950  19956
 =V(XGET)      4 0000365C 00000001     V   22508 20286  20302  20522  20538
 =V(XGETFRST)
               4 000028C4 00000001     V   18376 17894  18177
 =V(XGETNEXT)
               4 000028D8 00000001     V   18381 18007  18311
 =V(XPUT)      4 0000257C 00000001     V   17742 17287
 =V(XPUT)      4 00003660 00000001     V   22509 20755  20802  20879  20926  21596  21659  21722  21772
 =V(XSETSET)
               4 00002578 00000001     V   17741 17279
 =V(XSETSET)
               4 00002898 00000001     V   18373 17864  18147
 =V(XSETSET)
               4 00003658 00000001     V   22507 20234  20240  20470  20476  20712  20718  20724  20730  21169  21175
                                                 21369  21375  21571  21577
 =Y((L'CPSEG+1024+3)/4*4)
               2 00004DB4 00000001     Y   29482 27628  29004
 =Y((L'CPSEG+1024+3)/4*4)
               2 00005114 00000001     Y   30331 30064
 =Y((L'NSCNCB+3)/4*4)
               2 00001042 00000001     Y   11787  9354   9786
 =Y((L'NSCNCB+3)/4*4)
1XCALL    (XCAL2025) (13:01) (15MAR04) Ordinary Symbol and Literal Cross Reference                                          Page  253
               2 00001A9A 00000001     Y   14467 13159
 =Y((L'NSCNCB+3)/4*4)
               2 000045BE 00000001     Y   27002 24711  25153  26374  26780  26907
 =Y((L'VLIST+3)/4*4)
               2 000025CE 00000001     Y   17749 14883  14885
 =Y((R1+1-(R0)+16*((R0)/(R1+1))/((R0)/(R1+1)))*4)
               2 00005116 00000001     Y   30332 30111
 =Y((R1+1-(R0)+16*((R0)/(R1+1))/((R0)/(R1+1)))*4)
               2 000063AA 00000001     Y   37026 35512  36702  36933
 =Y((R1+1-(R14)+16*((R14)/(R1+1))/((R14)/(R1+1)))*4)
               2 00004DB2 00000001     Y   29481 27618  28994
 =Y((R1+1-(R14)+16*((R14)/(R1+1))/((R14)/(R1+1)))*4)
               2 00005112 00000001     Y   30330 30054
 =Y((XLFIRST+XLISTCNT+2+3)/4*4)
               2 00003B74 00000001     Y   24487 23286
 =Y((XLISTLEN+3)/4*4)
               2 00003B76 00000001     Y   24488 23732
 =Y((12+3)/4*4)
               2 00001040 00000001     Y   11786  9340   9772   9899  11481  11512
 =Y((12+3)/4*4)
               2 00001A98 00000001     Y   14466 13145  13272
 =Y((12+3)/4*4)
               2 00002D52 00000001     Y   19700 18861
 =Y((12+3)/4*4)
               2 000045BC 00000001     Y   27001 24697  24767  25039  25182  25761  26360  26447  26501  26893
 =Y((12+3)/4*4)
               2 00004DB0 00000001     Y   29480 27103  27191  27245
 =Y(4)         2 000045D6 00000001     Y   27004 26402

1XCALL    (XCAL2025) (13:01) (15MAR04) Macro and Copy Code Source Summary                                                   Page  254
- Con Source                                        Volume    Members                        HLASM R4.0  2004/03/15 13.01
0     PRIMARY INPUT                                           CSECT    DROP     END      EX       LTORG    POP
                                                              PRINT    PUSH     START    USING
   L1 WYL.GS.WYL.WYLBUR.MACLIB                      SYSB05    ABORT    AINFO    BASE     BOMB     BTD      CALLRTNP
                                                              COLINFO  COMMENT  CONTROL  CP       CPLOCAL  CV
                                                              CVLOCAL  DEFRTNP  ERROR    FFINFO   JCB      KAPUT
                                                              RDRNG    RG       SCAN     SCANCB   SCANCHK  SCBKUP
                                                              SCCBADR  SCDQUOTE SCINFO   SCINIT   SCKW     SCPOP
                                                              SCPUSH   SCUPTOK  SEGINIT  TCCR     TCR      TNUM     TPOP
                                                              TPUSH    TSEG     TTYPE    TWRITE   VLTORG   VNENTRY
                                                              VPARM    XDSNAME  XTRACE
   L2 WYL.GG.SYS.MACLIB                             SYSB05    $BC      $BFLKUP  $BV      $CCLKUP  $CRS     $CSS     $L
                                                              $LA      $LBLAD   $LEXP    $LOR     $REL     $RGLKUP
                                                              $USLKUP  ACALL    BEGIN    CEIL     CLEAR    COMPROC
                                                              CSECT    DATA     DECR     DEFCC    DEX      DPROC    DROP
                                                              DTEX     ELSE     ELSEIF   END      EX       FLAG     GEN
                                                              HIBAL    IDENT    IF       INCR     LABEL    LC       LS
                                                              LTORG    MOVE     PEND     POP      PRETURN  PRINT    PROC
                                                              PUSH     QLTORG   RECORD   REG      REGS     SET
                                                              SETMSG   START    SYSQS    USING    VCALL    WHILE    WITH
                                                              XPROC
   L3 SYS3.IS.MACLIB                                SYSB05    SEG      SEGCB    SEGCR    SEGDC    SEGLD    SEGWR    SIB
                                                              SYSDEFN  XPOP     XPUSH

1XCALL    (XCAL2025) (13:01) (15MAR04) Dsect Cross Reference                                                                Page  255
-Dsect     Length      Id       Defn                                                         HLASM R4.0  2004/03/15 13.01
0$$$@R0   00000000  FFFFFFFE     705
 $$$@R1   00000000  FFFFFFFD     718
 $$$@R10  00000000  FFFFFFF4     835
 $$$@R11  00000000  FFFFFFF3     848
 $$$@R12  00000000  FFFFFFF2     861
 $$$@R13  00000000  FFFFFFF1     874
 $$$@R14  00000000  FFFFFFF0     887
 $$$@R15  00000000  FFFFFFEF     900
 $$$@R2   00000000  FFFFFFFC     731
 $$$@R3   00000000  FFFFFFFB     744
 $$$@R4   00000000  FFFFFFFA     757
 $$$@R5   00000000  FFFFFFF9     770
 $$$@R6   00000000  FFFFFFF8     783
 $$$@R7   00000000  FFFFFFF7     796
 $$$@R8   00000000  FFFFFFF6     809
 $$$@R9   00000000  FFFFFFF5     822
 $$$RBPRWA
          00000150  FFFFFFB8   34488
 $$$RBSPWA
          00000150  FFFFFFB7   34689
 $$$RCAWA 00000200  FFFFFFC4   23801
 $$$RCP   00001000  FFFFFFEC    2454
 $$$RCV   00000FB0  FFFFFFEE    1179
 $$$RDEV  0000000C  FFFFFFEB    4668
 $$$RDLXWA
          000000B0  FFFFFFC8   21054
 $$$RFFINFO
          000003A0  FFFFFFE8    6602
 $$$RGETXWA
          000000BC  FFFFFFCA   20119
 $$$RGTPWA
          0000000C  FFFFFFB9   33724
 $$$RGTXWA
          00000019  FFFFFFBA   33321
 $$$RGXNWA
          00000064  FFFFFFC6   22102
 $$$RJCB  000000D0  FFFFFFE9    6306
 $$$RKAWA 00000200  FFFFFFC2   24231
 $$$RLDAWA
          000001DE  FFFFFFCF   16602
 $$$RLDDWA
          000001DE  FFFFFFD0   16379
 $$$RLDPWA
          000000C0  FFFFFFD2   15706
 $$$RLDWA 000001DE  FFFFFFD1   16339
 $$$RLOADWA
          00000060  FFFFFFD3   15303
 $$$RMAWA 00000200  FFFFFFC3   23947
 $$$RNLIST
          00000100  FFFFFFE2    7338
 $$$RNSCNCB
          000000B0  FFFFFFED    2375
 $$$RPBWA 0000018C  FFFFFFD7   12994
 $$$RPCLWA
          00000E1C  FFFFFFD9   11825
1XCALL    (XCAL2025) (13:01) (15MAR04) Dsect Cross Reference                                                                Page  256
 $$$RPLDWA
          00000040  FFFFFFD4   15111
 $$$RPLIST
          00000100  FFFFFFE0    7376
 $$$RPPRMWA
          00000164  FFFFFFBE   30365
 $$$RPPWA 0000001C  FFFFFFBD   30607
 $$$RPRWA 00000F14  FFFFFFD8   12451
 $$$RRPWA 00000024  FFFFFFBC   31124
 $$$RRSPWA
          00000010  FFFFFFBB   31492
 $$$RSCLWA
          00000214  FFFFFFD6   14506
 $$$RSCNPWA
          00000158  FFFFFFBF   28681
 $$$RSCNXWA
          000000F3  FFFFFFC1   24513
 $$$RSGLNWA
          000000EF  FFFFFFB6   35374
 $$$RSGXLWA
          000000F7  FFFFFFB5   35655
 $$$RSHLDWA
          000000A0  FFFFFFCD   17771
 $$$RSNENTRY
          00000088  FFFFFFDF    7409
 $$$RSNNPWA
          000000F3  FFFFFFC0   25613
 $$$RSTXWA
          00000050  FFFFFFC9   20605
 $$$RSXNWA
          000000A0  FFFFFFB4   36024
 $$$RTTYPE
          0000010C  FFFFFFEA    6199
 $$$RUPPWA
          00000058  FFFFFFC7   21474
 $$$RVLIST
          00000A80  FFFFFFE1    7357
 $$$RVNENTRY
          00000050  FFFFFFE4    6987
 $$$RVPARM
          00000150  FFFFFFE3    7300
 $$$RXBTWA
          00000060  FFFFFFCE   17390
 $$$RXBWA 0000018C  FFFFFFDB    9641
 $$$RXCACTWA
          000000F3  FFFFFFDD    8446
 $$$RXCDWA
          00000088  FFFFFFDA   11384
 $$$RXCLWA
          00000E70  FFFFFFDE    7618
 $$$RXDSNAME
          00000040  FFFFFFE7    6854
 $$$RXFENTRY
          00000060  FFFFFFE6    6883
 $$$RXFWA 00000008  FFFFFFCC   18729
 $$$RXFXENTRY
          00000050  FFFFFFE5    6954
 $$$RXLDWA
          00000040  FFFFFFD5   14931
1XCALL    (XCAL2025) (13:01) (15MAR04) Dsect Cross Reference                                                                Page  257
 $$$RXLISTWA
          00000404  FFFFFFC5   22672
 $$$RXRWA 00000F14  FFFFFFDC    8698
 $$$RXXITWA
          0000008C  FFFFFFCB   19433
 HIBAL    00000000  FFFFFFFF     691

1XCALL    (XCAL2025) (13:01) (15MAR04) Using Map                                                                            Page  258
-                                                                                            HLASM R4.0  2004/03/15 13.01
   Stmt  -----Location----- Action ----------------Using----------------- Reg Max    Last  Label and Using Text
           Count      Id           Type          Value    Range     Id        Disp   Stmt
0   922  00000000  FFFFFFFF USING  ORDINARY    00000000 00001000 FFFFFFEF  15 000          @R15,15
    926  00000000  FFFFFFFF USING  ORDINARY    00000000 00001000 FFFFFFF0  14 024   30056  @R14,14
    930  00000000  FFFFFFFF USING  ORDINARY    00000000 00001000 FFFFFFF1  13 000   30065  @R13,13
    934  00000000  FFFFFFFF USING  ORDINARY    00000000 00001000 FFFFFFF2  12 000          @R12,12
    938  00000000  FFFFFFFF USING  ORDINARY    00000000 00001000 FFFFFFF3  11 000          @R11,11
    942  00000000  FFFFFFFF USING  ORDINARY    00000000 00001000 FFFFFFF4  10 000          @R10,10
    946  00000000  FFFFFFFF USING  ORDINARY    00000000 00001000 FFFFFFF5   9 000          @R9,9
    950  00000000  FFFFFFFF USING  ORDINARY    00000000 00001000 FFFFFFF6   8 000          @R8,8
    954  00000000  FFFFFFFF USING  ORDINARY    00000000 00001000 FFFFFFF7   7 000          @R7,7
    958  00000000  FFFFFFFF USING  ORDINARY    00000000 00001000 FFFFFFF8   6 000          @R6,6
    962  00000000  FFFFFFFF USING  ORDINARY    00000000 00001000 FFFFFFF9   5 000          @R5,5
    966  00000000  FFFFFFFF USING  ORDINARY    00000000 00001000 FFFFFFFA   4 000   29838  @R4,4
    970  00000000  FFFFFFFF USING  ORDINARY    00000000 00001000 FFFFFFFB   3 000          @R3,3
    974  00000000  FFFFFFFF USING  ORDINARY    00000000 00001000 FFFFFFFC   2 000    9089  @R2,2
    978  00000000  FFFFFFFF USING  ORDINARY    00000000 00001000 FFFFFFFD   1 001    8876  @R1,1
    982  00000000  FFFFFFFF USING  ORDINARY    00000000 00001000 FFFFFFFE   0 000          @R0,0
    983  00000000  FFFFFFFF DROP                                            0              0
   1163  00000017  00000001 USING  ORDINARY    00000000 00001000 FFFFFFEC  11 E54   36954  CP,CPR
   1172  00000017  00000001 USING  ORDINARY    00000000 00001000 FFFFFFEE  12 890   36794  CV,CVR
   7554  00000040  00000001 USING  ORDINARY    00000040 00001000 00000001   7 374    7569  $$$74B,7
   7577  0000004C  00000001 USING  ORDINARY    00000000 00001000 FFFFFFF7   7 000          @R7,7
   7728  00000074  00000001 USING  ORDINARY    00000074 00001000 00000001   7 40E    8404  $$$81B,7
   7742  00000074  00000001 USING  ORDINARY    FFFFFFD8 00001000 FFFFFFDE   8 E10    8401  XCLWA-(4+36),R8
   8420  000002E8  00000001 USING  ORDINARY    00000000 00001000 FFFFFFF6   8 000          @R8,8
   8425  000002E8  00000001 USING  ORDINARY    00000000 00001000 FFFFFFF7   7 000          @R7,7
   8497  00000310  00000001 USING  ORDINARY    00000310 00001000 00000001   7 178    8592  $$$107B,7
   8511  00000310  00000001 USING  ORDINARY    FFFFFFD8 00001000 FFFFFFDD   8 030    8569  XCACTWA-(4+36),R8
   8606  00000354  00000001 USING  ORDINARY    00000000 00001000 FFFFFFF6   8 000          @R8,8
   8611  00000354  00000001 USING  ORDINARY    00000000 00001000 FFFFFFF7   7 000          @R7,7
   8757  000004A8  00000001 USING  ORDINARY    000004A8 00001000 00000001   7 BD1    9216  $$$113B,7
   8771  000004A8  00000001 USING  ORDINARY    FFFFFFD8 00001000 FFFFFFDC   8 EE0    9213  XRWA-(4+36),R8
   9032  00000582  00000001 USING  ORDINARY    00000000 00001000 FFFFFFE4   1 000    9089  VNENTRY,R1
   9151  000005FA  00000001 USING  ORDINARY    00000000 00001000 FFFFFFFD   1 000   12655  @R1,1
   9233  00000660  00000001 USING  ORDINARY    00000000 00001000 FFFFFFF6   8 000          @R8,8
   9238  00000660  00000001 USING  ORDINARY    00000000 00001000 FFFFFFF7   7 000          @R7,7
   9297  00000688  00000001 USING  ORDINARY    00000688 00001000 00000001   7 9BA    9421  $$$132B,7
   9434  0000071E  00000001 USING  ORDINARY    00000000 00001000 FFFFFFF7   7 000          @R7,7
   9528  000007BE  00000001 USING  ORDINARY    000007BE 00001000 00000001   7 000          $$$139B,7
   9544  000007C2  00000001 USING  ORDINARY    00000000 00001000 FFFFFFF7   7 000          @R7,7
   9589  000007EA  00000001 USING  ORDINARY    000007EA 00001000 00000001   7 000          $$$142B,7
   9605  000007EE  00000001 USING  ORDINARY    00000000 00001000 FFFFFFF7   7 000          @R7,7
   9710  00000816  00000001 USING  ORDINARY    00000816 00001000 00000001   7 8C8   10152  $$$145B,7
   9724  00000816  00000001 USING  ORDINARY    FFFFFFD8 00001000 FFFFFFDB   8 028    9728  XBWA-(4+36),R8
   9736  0000081A  00000001 USING  ORDINARY    00000000 00001000 FFFFFFDB   6 104   11000  XBWA,R6
  10134  000009E8  00000001 USING  ORDINARY    00000000 00001000 FFFFFFE9   2 062   10141  JCB,R2
  10147  000009EC  00000001 USING  ORDINARY    00000000 00001000 FFFFFFFC   2 000   12821  @R2,2
  10168  000009F8  00000001 USING  ORDINARY    00000000 00001000 FFFFFFF6   8 000          @R8,8
  10173  000009F8  00000001 USING  ORDINARY    00000000 00001000 FFFFFFF7   7 000          @R7,7
  10347  00000B62  00000001 USING  ORDINARY    00000B62 00001000 00000001   7 4BA   10379  $$$157B,7
  10395  00000B76  00000001 USING  ORDINARY    00000000 00001000 FFFFFFF7   7 000          @R7,7
  10442  00000B9E  00000001 USING  ORDINARY    00000B9E 00001000 00000001   7 486   10568  $$$161B,7
  10527  00000BD4  00000001 DROP                                            3              3
  10531  00000BDA  00000001 USING  ORDINARY    00000000 00001000 FFFFFFFB   3 000          @R3,3
1XCALL    (XCAL2025) (13:01) (15MAR04) Using Map                                                                            Page  259
  10584  00000BF2  00000001 USING  ORDINARY    00000000 00001000 FFFFFFF7   7 000          @R7,7
  10631  00000C1A  00000001 USING  ORDINARY    00000C1A 00001000 00000001   7 4CA   10740  $$$169B,7
  10769  00000C60  00000001 USING  ORDINARY    00000000 00001000 FFFFFFF7   7 000          @R7,7
  10817  00000C88  00000001 USING  ORDINARY    00000C88 00001000 00000001   7 394   10849  $$$177B,7
  10865  00000C9C  00000001 USING  ORDINARY    00000000 00001000 FFFFFFF7   7 000          @R7,7
  10912  00000CC4  00000001 USING  ORDINARY    00000CC4 00001000 00000001   7 360   11038  $$$181B,7
  10997  00000CFA  00000001 DROP                                            3              3
  11001  00000D00  00000001 USING  ORDINARY    00000000 00001000 FFFFFFFB   3 000          @R3,3
  11054  00000D18  00000001 USING  ORDINARY    00000000 00001000 FFFFFFF7   7 000          @R7,7
  11073  00000D26  00000001 USING  ORDINARY    00000000 00001000 FFFFFFF8   6 000          @R6,6
  11125  00000D40  00000001 USING  ORDINARY    00000D40 00001000 00000001   7 398   11323  $$$189B,7
  11141  00000D40  00000001 USING  ORDINARY    00000000 00001000 FFFFFFDF   6 002   11182  SNENTRY,R6
  11346  00000DBC  00000001 USING  ORDINARY    00000000 00001000 FFFFFFF7   7 000          @R7,7
  11365  00000DCA  00000001 USING  ORDINARY    00000000 00001000 FFFFFFF8   6 000          @R6,6
  11434  00000DE4  00000001 USING  ORDINARY    00000DE4 00001000 00000001   7 306   11707  $$$196B,7
  11448  00000DE4  00000001 USING  ORDINARY    FFFFFFD8 00001000 FFFFFFDA   8 028   11704  XCDWA-(4+36),R8
  11719  00000F3E  00000001 USING  ORDINARY    00000000 00001000 FFFFFFF6   8 000          @R8,8
  11724  00000F3E  00000001 USING  ORDINARY    00000000 00001000 FFFFFFF7   7 000          @R7,7
  11911  0000110A  00000001 USING  ORDINARY    0000110A 00001000 00000001   7 AFC   12391  $$$208B,7
  11925  0000110A  00000001 USING  ORDINARY    FFFFFFD8 00001000 FFFFFFD9   8 DBC   12388  PCLWA-(4+36),R8
  12407  000012E0  00000001 USING  ORDINARY    00000000 00001000 FFFFFFF6   8 000          @R8,8
  12412  000012E0  00000001 USING  ORDINARY    00000000 00001000 FFFFFFF7   7 000          @R7,7
  12510  00001308  00000001 USING  ORDINARY    00001308 00001000 00000001   7 8AD   12936  $$$223B,7
  12524  00001308  00000001 USING  ORDINARY    FFFFFFD8 00001000 FFFFFFD8   8 EE0   12933  PRWA-(4+36),R8
  12764  000013D4  00000001 USING  ORDINARY    00000000 00001000 FFFFFFE4   1 000   12821  VNENTRY,R1
  12883  0000144C  00000001 USING  ORDINARY    00000000 00001000 FFFFFFFD   1 000   30230  @R1,1
  12953  0000149E  00000001 USING  ORDINARY    00000000 00001000 FFFFFFF6   8 000          @R8,8
  12958  0000149E  00000001 USING  ORDINARY    00000000 00001000 FFFFFFF7   7 000          @R7,7
  13063  000014C6  00000001 USING  ORDINARY    000014C6 00001000 00000001   7 746   13501  $$$241B,7
  13077  000014C6  00000001 USING  ORDINARY    FFFFFFD8 00001000 FFFFFFD7   8 028   13081  PBWA-(4+36),R8
  13089  000014CA  00000001 USING  ORDINARY    00000000 00001000 FFFFFFD7   6 104   14345  PBWA,R6
  13483  0000167E  00000001 USING  ORDINARY    00000000 00001000 FFFFFFE9   2 062   13490  JCB,R2
  13496  00001682  00000001 USING  ORDINARY    00000000 00001000 FFFFFFFC   2 000   17198  @R2,2
  13517  0000168E  00000001 USING  ORDINARY    00000000 00001000 FFFFFFF6   8 000          @R8,8
  13522  0000168E  00000001 USING  ORDINARY    00000000 00001000 FFFFFFF7   7 000          @R7,7
  13696  000017F6  00000001 USING  ORDINARY    000017F6 00001000 00000001   7 28E   13728  $$$253B,7
  13744  0000180A  00000001 USING  ORDINARY    00000000 00001000 FFFFFFF7   7 000          @R7,7
  13791  00001832  00000001 USING  ORDINARY    00001832 00001000 00000001   7 25A   13917  $$$257B,7
  13876  00001868  00000001 DROP                                            3              3
  13880  0000186E  00000001 USING  ORDINARY    00000000 00001000 FFFFFFFB   3 000          @R3,3
  13933  00001886  00000001 USING  ORDINARY    00000000 00001000 FFFFFFF7   7 000          @R7,7
  13980  000018AE  00000001 USING  ORDINARY    000018AE 00001000 00000001   7 364   14089  $$$265B,7
  14118  000018F4  00000001 USING  ORDINARY    00000000 00001000 FFFFFFF7   7 000          @R7,7
  14166  0000191C  00000001 USING  ORDINARY    0000191C 00001000 00000001   7 168   14198  $$$273B,7
  14210  0000192E  00000001 USING  ORDINARY    00000000 00001000 FFFFFFF7   7 000          @R7,7
  14257  00001956  00000001 USING  ORDINARY    00001956 00001000 00000001   7 136   14383  $$$277B,7
  14342  0000198C  00000001 DROP                                            3              3
  14346  00001992  00000001 USING  ORDINARY    00000000 00001000 FFFFFFFB   3 000          @R3,3
  14395  000019A8  00000001 USING  ORDINARY    00000000 00001000 FFFFFFF7   7 000          @R7,7
  14414  000019B6  00000001 USING  ORDINARY    00000000 00001000 FFFFFFF8   6 000          @R6,6
  14593  00001C32  00000001 USING  ORDINARY    00001C32 00001000 00000001   7 A80   14885  $$$287B,7
  14607  00001C32  00000001 USING  ORDINARY    FFFFFFD8 00001000 FFFFFFD6   8 238   14873  SCLWA-(4+36),R8
  14896  00001D50  00000001 USING  ORDINARY    00000000 00001000 FFFFFFF6   8 000          @R8,8
  14901  00001D50  00000001 USING  ORDINARY    00000000 00001000 FFFFFFF7   7 000          @R7,7
  14982  00001D78  00000001 USING  ORDINARY    00001D78 00001000 00000001   7 760   15062  $$$298B,7
  14996  00001D78  00000001 USING  ORDINARY    FFFFFFD8 00001000 FFFFFFD5   8 000          XLDWA-(4+36),R8
  15076  00001DA8  00000001 USING  ORDINARY    00000000 00001000 FFFFFFF6   8 000          @R8,8
  15081  00001DA8  00000001 USING  ORDINARY    00000000 00001000 FFFFFFF7   7 000          @R7,7
  15162  00001DD0  00000001 USING  ORDINARY    00001DD0 00001000 00000001   7 865   15252  $$$304B,7
1XCALL    (XCAL2025) (13:01) (15MAR04) Using Map                                                                            Page  260
  15176  00001DD0  00000001 USING  ORDINARY    FFFFFFD8 00001000 FFFFFFD4   8 000          PLDWA-(4+36),R8
  15267  00001E00  00000001 USING  ORDINARY    00000000 00001000 FFFFFFF6   8 000          @R8,8
  15272  00001E00  00000001 USING  ORDINARY    00000000 00001000 FFFFFFF7   7 000          @R7,7
  15353  00001E28  00000001 USING  ORDINARY    00001E28 00001000 00000001   7 869   15612  $$$310B,7
  15367  00001E28  00000001 USING  ORDINARY    FFFFFFD8 00001000 FFFFFFD3   8 028   15389  LOADWA-(4+36),R8
  15378  00001E28  00000001 USING  ORDINARY    00000000 00001000 FFFFFFE6   6 050   15609  XFENTRY,R6
  15387  00001E28  00000001 USING  ORDINARY    00000000 00001000 FFFFFFE7   5 000   15393  XDSNAME,R5
  15650  00001F30  00000001 USING  ORDINARY    00000000 00001000 FFFFFFF6   8 000          @R8,8
  15655  00001F30  00000001 USING  ORDINARY    00000000 00001000 FFFFFFF7   7 000          @R7,7
  15674  00001F3E  00000001 USING  ORDINARY    00000000 00001000 FFFFFFF8   6 000          @R6,6
  15681  00001F3E  00000001 USING  ORDINARY    00000000 00001000 FFFFFFF9   5 000          @R5,5
  15757  00001F58  00000001 USING  ORDINARY    00001F58 00001000 00000001   7 5D8   15966  $$$319B,7
  15771  00001F58  00000001 USING  ORDINARY    FFFFFFD8 00001000 FFFFFFD2   8 088   15943  LDPWA-(4+36),R8
  15782  00001F58  00000001 USING  ORDINARY    00000000 00001000 FFFFFFE6   6 050   15963  XFENTRY,R6
  15791  00001F58  00000001 USING  ORDINARY    00000000 00001000 FFFFFFE7   5 000   15804  XDSNAME,R5
  16006  00002042  00000001 USING  ORDINARY    00000000 00001000 FFFFFFF6   8 000          @R8,8
  16011  00002042  00000001 USING  ORDINARY    00000000 00001000 FFFFFFF7   7 000          @R7,7
  16030  00002050  00000001 USING  ORDINARY    00000000 00001000 FFFFFFF8   6 000          @R6,6
  16037  00002050  00000001 USING  ORDINARY    00000000 00001000 FFFFFFF9   5 000          @R5,5
  16084  0000206A  00000001 USING  ORDINARY    0000206A 00001000 00000001   7 4D6   16132  $$$326B,7
  16168  000020CA  00000001 USING  ORDINARY    00000000 00001000 FFFFFFF7   7 000          @R7,7
  16229  000020F2  00000001 USING  ORDINARY    000020F2 00001000 00000001   7 452   16277  $$$329B,7
  16313  00002152  00000001 USING  ORDINARY    00000000 00001000 FFFFFFF7   7 000          @R7,7
  16429  0000217A  00000001 USING  ORDINARY    0000217A 00001000 00000001   7 3DE   16539  $$$332B,7
  16443  0000217A  00000001 USING  ORDINARY    FFFFFFD8 00001000 FFFFFFD0   8 028   16456  LDDWA-(4+36),R8
  16454  0000217A  00000001 USING  ORDINARY    00000000 00001000 FFFFFFD1   6 100   16467  LDWA,R6
  16556  000021CE  00000001 USING  ORDINARY    00000000 00001000 FFFFFFF6   8 000          @R8,8
  16561  000021CE  00000001 USING  ORDINARY    00000000 00001000 FFFFFFF7   7 000          @R7,7
  16580  000021DC  00000001 USING  ORDINARY    00000000 00001000 FFFFFFF8   6 000          @R6,6
  16652  000021F6  00000001 USING  ORDINARY    000021F6 00001000 00000001   7 366   16756  $$$337B,7
  16666  000021F6  00000001 USING  ORDINARY    FFFFFFD8 00001000 FFFFFFCF   8 028   16679  LDAWA-(4+36),R8
  16677  000021F6  00000001 USING  ORDINARY    00000000 00001000 FFFFFFD1   6 100   16690  LDWA,R6
  16773  00002246  00000001 USING  ORDINARY    00000000 00001000 FFFFFFF6   8 000          @R8,8
  16778  00002246  00000001 USING  ORDINARY    00000000 00001000 FFFFFFF7   7 000          @R7,7
  16797  00002254  00000001 USING  ORDINARY    00000000 00001000 FFFFFFF8   6 000          @R6,6
  16852  0000226E  00000001 USING  ORDINARY    0000226E 00001000 00000001   7 44A   17317  $$$342B,7
  16868  0000226E  00000001 USING  ORDINARY    00000000 00001000 FFFFFFD1   6 008   17334  LDWA,R6
  17346  000023BC  00000001 USING  ORDINARY    00000000 00001000 FFFFFFF7   7 000          @R7,7
  17365  000023CA  00000001 USING  ORDINARY    00000000 00001000 FFFFFFF8   6 000          @R6,6
  17441  000023E4  00000001 USING  ORDINARY    000023E4 00001000 00000001   7 1C4   17608  $$$364B,7
  17455  000023E4  00000001 USING  ORDINARY    FFFFFFD8 00001000 FFFFFFCE   8 028   17468  XBTWA-(4+36),R8
  17466  000023E4  00000001 USING  ORDINARY    00000000 00001000 FFFFFFE6   6 044   17604  XFENTRY,R6
  17653  00002484  00000001 USING  ORDINARY    00000000 00001000 FFFFFFF6   8 000          @R8,8
  17658  00002484  00000001 USING  ORDINARY    00000000 00001000 FFFFFFF7   7 000          @R7,7
  17677  00002492  00000001 USING  ORDINARY    00000000 00001000 FFFFFFF8   6 000          @R6,6
  17823  000026D8  00000001 USING  ORDINARY    000026D8 00001000 00000001   7 208   18012  $$$372B,7
  17837  000026D8  00000001 USING  ORDINARY    FFFFFFD8 00001000 FFFFFFCD   8 068   17948  SHLDWA-(4+36),R8
  17848  000026D8  00000001 USING  ORDINARY    00000000 00001000 FFFFFFE6   6 050   18004  XFENTRY,R6
  18028  00002794  00000001 USING  ORDINARY    00000000 00001000 FFFFFFF6   8 000          @R8,8
  18033  00002794  00000001 USING  ORDINARY    00000000 00001000 FFFFFFF7   7 000          @R7,7
  18052  000027A2  00000001 USING  ORDINARY    00000000 00001000 FFFFFFF8   6 000          @R6,6
  18096  000027BC  00000001 USING  ORDINARY    000027BC 00001000 00000001   7 124   18316  $$$377B,7
  18110  000027BC  00000001 USING  ORDINARY    FFFFFFD8 00001000 FFFFFFCD   8 068   18248  SHLDWA-(4+36),R8
  18121  000027BC  00000001 USING  ORDINARY    00000000 00001000 FFFFFFE6   6 050   18308  XFENTRY,R6
  18130  000027BC  00000001 USING  ORDINARY    00000000 00001000 FFFFFFE7   5 03C   18205  XDSNAME,R5
  18332  00002886  00000001 USING  ORDINARY    00000000 00001000 FFFFFFF6   8 000          @R8,8
  18337  00002886  00000001 USING  ORDINARY    00000000 00001000 FFFFFFF7   7 000          @R7,7
  18356  00002894  00000001 USING  ORDINARY    00000000 00001000 FFFFFFF8   6 000          @R6,6
  18363  00002894  00000001 USING  ORDINARY    00000000 00001000 FFFFFFF9   5 000          @R5,5
1XCALL    (XCAL2025) (13:01) (15MAR04) Using Map                                                                            Page  261
  18433  000028FC  00000001 USING  ORDINARY    000028FC 00001000 00000001   7 4EB   18581  $$$383B,7
  18591  00002970  00000001 USING  ORDINARY    00000000 00001000 FFFFFFF7   7 000          @R7,7
  18649  00002998  00000001 USING  ORDINARY    00002998 00001000 00000001   7 33C   18674  $$$389B,7
  18691  000029AE  00000001 USING  ORDINARY    00000000 00001000 FFFFFFF7   7 000          @R7,7
  18794  000029D6  00000001 USING  ORDINARY    000029D6 00001000 00000001   7 37E   19025  $$$392B,7
  18808  000029D6  00000001 USING  ORDINARY    FFFFFFD8 00001000 FFFFFFCC   8 028   18812  XFWA-(4+36),R8
  18820  000029DA  00000001 USING  ORDINARY    00000000 00001000 FFFFFFCC   6 004   19304  XFWA,R6
  19045  00002AAE  00000001 USING  ORDINARY    00000000 00001000 FFFFFFF6   8 000          @R8,8
  19050  00002AAE  00000001 USING  ORDINARY    00000000 00001000 FFFFFFF7   7 000          @R7,7
  19161  00002B76  00000001 USING  ORDINARY    00002B76 00001000 00000001   7 000          $$$403B,7
  19182  00002B7A  00000001 USING  ORDINARY    00000000 00001000 FFFFFFF7   7 000          @R7,7
  19228  00002BA2  00000001 USING  ORDINARY    00002BA2 00001000 00000001   7 000          $$$406B,7
  19249  00002BA6  00000001 USING  ORDINARY    00000000 00001000 FFFFFFF7   7 000          @R7,7
  19295  00002BCE  00000001 USING  ORDINARY    00002BCE 00001000 00000001   7 000          $$$409B,7
  19311  00002BD2  00000001 USING  ORDINARY    00000000 00001000 FFFFFFF7   7 000          @R7,7
  19333  00002BE0  00000001 USING  ORDINARY    00000000 00001000 FFFFFFF8   6 000          @R6,6
  19367  00002BFA  00000001 USING  ORDINARY    00002BFA 00001000 00000001   7 0FE   19380  $$$412B,7
  19389  00002C06  00000001 USING  ORDINARY    00000000 00001000 FFFFFFF7   7 000          @R7,7
  19485  00002C2E  00000001 USING  ORDINARY    00002C2E 00001000 00000001   7 0EA   19633  $$$415B,7
  19499  00002C2E  00000001 USING  ORDINARY    FFFFFFD8 00001000 FFFFFFCB   8 02C   19629  XXITWA-(4+36),R8
  19510  00002C2E  00000001 USING  ORDINARY    00000000 00001000 FFFFFFDF   6 02C   19630  SNENTRY,R6
  19649  00002CA8  00000001 USING  ORDINARY    00000000 00001000 FFFFFFF6   8 000          @R8,8
  19654  00002CA8  00000001 USING  ORDINARY    00000000 00001000 FFFFFFF7   7 000          @R7,7
  19673  00002CB6  00000001 USING  ORDINARY    00000000 00001000 FFFFFFF8   6 000          @R6,6
  19762  00002E32  00000001 USING  ORDINARY    00002E32 00001000 00000001   7 812   19832  $$$423B,7
  19845  00002E6C  00000001 USING  ORDINARY    00000000 00001000 FFFFFFF7   7 000          @R7,7
  19910  00002E94  00000001 USING  ORDINARY    00002E94 00001000 00000001   7 7B8   19964  $$$428B,7
  19977  00002EC6  00000001 USING  ORDINARY    00000000 00001000 FFFFFFF7   7 000          @R7,7
  20042  00002EEE  00000001 USING  ORDINARY    00002EEE 00001000 00000001   7 766   20068  $$$432B,7
  20080  00002EFE  00000001 USING  ORDINARY    00000000 00001000 FFFFFFF7   7 000          @R7,7
  20173  00002F26  00000001 USING  ORDINARY    00002F26 00001000 00000001   7 736   20304  $$$436B,7
  20187  00002F26  00000001 USING  ORDINARY    FFFFFFD8 00001000 FFFFFFCA   8 094   20307  GETXWA-(4+36),R8
  20198  00002F26  00000001 USING  ORDINARY    00000000 00001000 FFFFFFE6   6 040   20309  XFENTRY,R6
  20207  00002F26  00000001 USING  ORDINARY    00000000 00001000 FFFFFFE5   5 010   20289  XFXENTRY,R5
  20321  00002FCA  00000001 USING  ORDINARY    00000000 00001000 FFFFFFF6   8 000          @R8,8
  20326  00002FCA  00000001 USING  ORDINARY    00000000 00001000 FFFFFFF7   7 000          @R7,7
  20345  00002FD8  00000001 USING  ORDINARY    00000000 00001000 FFFFFFF8   6 000          @R6,6
  20352  00002FD8  00000001 USING  ORDINARY    00000000 00001000 FFFFFFF9   5 000          @R5,5
  20409  00002FF2  00000001 USING  ORDINARY    00002FF2 00001000 00000001   7 66A   20540  $$$441B,7
  20423  00002FF2  00000001 USING  ORDINARY    FFFFFFD8 00001000 FFFFFFCA   8 094   20543  GETXWA-(4+36),R8
  20434  00002FF2  00000001 USING  ORDINARY    00000000 00001000 FFFFFFE6   6 040   20545  XFENTRY,R6
  20443  00002FF2  00000001 USING  ORDINARY    00000000 00001000 FFFFFFE5   5 010   20525  XFXENTRY,R5
  20557  00003096  00000001 USING  ORDINARY    00000000 00001000 FFFFFFF6   8 000          @R8,8
  20562  00003096  00000001 USING  ORDINARY    00000000 00001000 FFFFFFF7   7 000          @R7,7
  20581  000030A4  00000001 USING  ORDINARY    00000000 00001000 FFFFFFF8   6 000          @R6,6
  20588  000030A4  00000001 USING  ORDINARY    00000000 00001000 FFFFFFF9   5 000          @R5,5
  20655  000030BE  00000001 USING  ORDINARY    000030BE 00001000 00000001   7 5A2   20978  $$$446B,7
  20669  000030BE  00000001 USING  ORDINARY    FFFFFFD8 00001000 FFFFFFC9   8 028   20692  STXWA-(4+36),R8
  20680  000030BE  00000001 USING  ORDINARY    00000000 00001000 FFFFFFE6   6 048   20923  XFENTRY,R6
  20689  000030BE  00000001 USING  ORDINARY    00000000 00001000 FFFFFFE5   5 010   20876  XFXENTRY,R5
  21001  00003210  00000001 USING  ORDINARY    00000000 00001000 FFFFFFF6   8 000          @R8,8
  21006  00003210  00000001 USING  ORDINARY    00000000 00001000 FFFFFFF7   7 000          @R7,7
  21025  0000321E  00000001 USING  ORDINARY    00000000 00001000 FFFFFFF8   6 000          @R6,6
  21032  0000321E  00000001 USING  ORDINARY    00000000 00001000 FFFFFFF9   5 000          @R5,5
  21105  00003238  00000001 USING  ORDINARY    00003238 00001000 00000001   7 42C   21199  $$$461B,7
  21119  00003238  00000001 USING  ORDINARY    FFFFFFD8 00001000 FFFFFFC8   8 088   21142  DLXWA-(4+36),R8
  21130  00003238  00000001 USING  ORDINARY    00000000 00001000 FFFFFFE6   6 048   21193  XFENTRY,R6
  21139  00003238  00000001 USING  ORDINARY    00000000 00001000 FFFFFFE5   5 000   21196  XFXENTRY,R5
  21217  0000329A  00000001 USING  ORDINARY    00000000 00001000 FFFFFFF6   8 000          @R8,8
1XCALL    (XCAL2025) (13:01) (15MAR04) Using Map                                                                            Page  262
  21222  0000329A  00000001 USING  ORDINARY    00000000 00001000 FFFFFFF7   7 000          @R7,7
  21241  000032A8  00000001 USING  ORDINARY    00000000 00001000 FFFFFFF8   6 000          @R6,6
  21248  000032A8  00000001 USING  ORDINARY    00000000 00001000 FFFFFFF9   5 000          @R5,5
  21305  000032C2  00000001 USING  ORDINARY    000032C2 00001000 00000001   7 3A6   21399  $$$465B,7
  21319  000032C2  00000001 USING  ORDINARY    FFFFFFD8 00001000 FFFFFFC8   8 088   21342  DLXWA-(4+36),R8
  21330  000032C2  00000001 USING  ORDINARY    00000000 00001000 FFFFFFE6   6 048   21393  XFENTRY,R6
  21339  000032C2  00000001 USING  ORDINARY    00000000 00001000 FFFFFFE5   5 000   21396  XFXENTRY,R5
  21417  00003324  00000001 USING  ORDINARY    00000000 00001000 FFFFFFF6   8 000          @R8,8
  21422  00003324  00000001 USING  ORDINARY    00000000 00001000 FFFFFFF7   7 000          @R7,7
  21441  00003332  00000001 USING  ORDINARY    00000000 00001000 FFFFFFF8   6 000          @R6,6
  21448  00003332  00000001 USING  ORDINARY    00000000 00001000 FFFFFFF9   5 000          @R5,5
  21526  0000334C  00000001 USING  ORDINARY    0000334C 00001000 00000001   7 320   21802  $$$469B,7
  21540  0000334C  00000001 USING  ORDINARY    FFFFFFD8 00001000 FFFFFFC7   8 030   21765  UPPWA-(4+36),R8
  21551  0000334C  00000001 USING  ORDINARY    00000000 00001000 FFFFFFE6   6 048   21769  XFENTRY,R6
  21560  0000334C  00000001 USING  ORDINARY    00000000 00001000 FFFFFFE5   5 010   21719  XFXENTRY,R5
  21824  000034A4  00000001 USING  ORDINARY    00000000 00001000 FFFFFFF6   8 000          @R8,8
  21829  000034A4  00000001 USING  ORDINARY    00000000 00001000 FFFFFFF7   7 000          @R7,7
  21848  000034B2  00000001 USING  ORDINARY    00000000 00001000 FFFFFFF8   6 000          @R6,6
  21855  000034B2  00000001 USING  ORDINARY    00000000 00001000 FFFFFFF9   5 000          @R5,5
  21916  000034CC  00000001 USING  ORDINARY    000034CC 00001000 00000001   7 1A4   22045  $$$480B,7
  22069  00003512  00000001 USING  ORDINARY    00000000 00001000 FFFFFFF7   7 000          @R7,7
  22154  0000353A  00000001 USING  ORDINARY    0000353A 00001000 00000001   7 14A   22434  $$$490B,7
  22168  0000353A  00000001 USING  ORDINARY    FFFFFFD8 00001000 FFFFFFC6   8 02C   22366  GXNWA-(4+36),R8
  22179  0000353A  00000001 USING  ORDINARY    00000000 00001000 FFFFFFE6   6 000   22400  XFENTRY,R6
  22188  0000353A  00000001 USING  ORDINARY    00000000 00001000 FFFFFFE7   5 000   22400  XDSNAME,R5
  22456  000035D6  00000001 USING  ORDINARY    00000000 00001000 FFFFFFF6   8 000          @R8,8
  22461  000035D6  00000001 USING  ORDINARY    00000000 00001000 FFFFFFF7   7 000          @R7,7
  22480  000035E4  00000001 USING  ORDINARY    00000000 00001000 FFFFFFF8   6 000          @R6,6
  22487  000035E4  00000001 USING  ORDINARY    00000000 00001000 FFFFFFF9   5 000          @R5,5
  22574  000036A2  00000001 USING  ORDINARY    000036A2 00001000 00000001   7 4B6   22611  $$$506B,7
  22630  000036C2  00000001 USING  ORDINARY    00000000 00001000 FFFFFFF7   7 000          @R7,7
  22726  000036EA  00000001 USING  ORDINARY    000036EA 00001000 00000001   7 472   22761  $$$510B,7
  22740  000036EA  00000001 USING  ORDINARY    FFFFFFD8 00001000 FFFFFFC5   8 32C   22757  XLISTWA-(4+36),R8
  22770  00003714  00000001 USING  ORDINARY    00000000 00001000 FFFFFFF6   8 000          @R8,8
  22775  00003714  00000001 USING  ORDINARY    00000000 00001000 FFFFFFF7   7 000          @R7,7
  22838  0000373C  00000001 USING  ORDINARY    0000373C 00001000 00000001   7 430   23044  $$$513B,7
  22852  0000373C  00000001 USING  ORDINARY    FFFFFFD8 00001000 FFFFFFC5   8 428   23040  XLISTWA-(4+36),R8
  23057  000037CC  00000001 USING  ORDINARY    00000000 00001000 FFFFFFF6   8 000          @R8,8
  23062  000037CC  00000001 USING  ORDINARY    00000000 00001000 FFFFFFF7   7 000          @R7,7
  23123  000037F4  00000001 USING  ORDINARY    000037F4 00001000 00000001   7 380   23286  $$$526B,7
  23137  000037F4  00000001 USING  ORDINARY    FFFFFFD8 00001000 FFFFFFC5   8 428   23231  XLISTWA-(4+36),R8
  23305  0000387A  00000001 USING  ORDINARY    00000000 00001000 FFFFFFF6   8 000          @R8,8
  23310  0000387A  00000001 USING  ORDINARY    00000000 00001000 FFFFFFF7   7 000          @R7,7
  23371  000038A2  00000001 USING  ORDINARY    000038A2 00001000 00000001   7 2CA   23461  $$$537B,7
  23385  000038A2  00000001 USING  ORDINARY    FFFFFFD8 00001000 FFFFFFC5   8 428   23433  XLISTWA-(4+36),R8
  23481  000038DA  00000001 USING  ORDINARY    00000000 00001000 FFFFFFF6   8 000          @R8,8
  23486  000038DA  00000001 USING  ORDINARY    00000000 00001000 FFFFFFF7   7 000          @R7,7
  23548  00003902  00000001 USING  ORDINARY    00003902 00001000 00000001   7 274   23747  $$$544B,7
  23562  00003902  00000001 USING  ORDINARY    FFFFFFD8 00001000 FFFFFFC5   8 428   23743  XLISTWA-(4+36),R8
  23760  000039A8  00000001 USING  ORDINARY    00000000 00001000 FFFFFFF6   8 000          @R8,8
  23765  000039A8  00000001 USING  ORDINARY    00000000 00001000 FFFFFFF7   7 000          @R7,7
  23852  000039D0  00000001 USING  ORDINARY    000039D0 00001000 00000001   7 18C   23885  $$$555B,7
  23866  000039D0  00000001 USING  ORDINARY    FFFFFFD8 00001000 FFFFFFC4   8 128   23881  CAWA-(4+36),R8
  23898  000039F0  00000001 USING  ORDINARY    00000000 00001000 FFFFFFF6   8 000          @R8,8
  23903  000039F0  00000001 USING  ORDINARY    00000000 00001000 FFFFFFF7   7 000          @R7,7
  23997  00003A18  00000001 USING  ORDINARY    00003A18 00001000 00000001   7 158   24163  $$$558B,7
  24011  00003A18  00000001 USING  ORDINARY    FFFFFFD8 00001000 FFFFFFC3   8 224   24159  MAWA-(4+36),R8
  24182  00003A94  00000001 USING  ORDINARY    00000000 00001000 FFFFFFF6   8 000          @R8,8
  24187  00003A94  00000001 USING  ORDINARY    00000000 00001000 FFFFFFF7   7 000          @R7,7
1XCALL    (XCAL2025) (13:01) (15MAR04) Using Map                                                                            Page  263
  24281  00003ABC  00000001 USING  ORDINARY    00003ABC 00001000 00000001   7 0AC   24425  $$$568B,7
  24295  00003ABC  00000001 USING  ORDINARY    FFFFFFD8 00001000 FFFFFFC2   8 224   24361  KAWA-(4+36),R8
  24448  00003B1A  00000001 USING  ORDINARY    00000000 00001000 FFFFFFF6   8 000          @R8,8
  24453  00003B1A  00000001 USING  ORDINARY    00000000 00001000 FFFFFFF7   7 000          @R7,7
  24612  00003B92  00000001 USING  ORDINARY    00003B92 00001000 00000001   7 A2E   24841  $$$582B,7
  24626  00003B92  00000001 USING  ORDINARY    FFFFFFD8 00001000 FFFFFFC1   8 028   24630  SCNXWA-(4+36),R8
  24638  00003B96  00000001 USING  ORDINARY    00000000 00001000 FFFFFFC1   6 008   25479  SCNXWA,R6
  24863  00003CB2  00000001 USING  ORDINARY    00000000 00001000 FFFFFFF6   8 000          @R8,8
  24868  00003CB2  00000001 USING  ORDINARY    00000000 00001000 FFFFFFF7   7 000          @R7,7
  24997  00003DA2  00000001 USING  ORDINARY    00003DA2 00001000 00000001   7 81A   25039  $$$589B,7
  25051  00003DFC  00000001 USING  ORDINARY    00000000 00001000 FFFFFFF7   7 000          @R7,7
  25099  00003E24  00000001 USING  ORDINARY    00003E24 00001000 00000001   7 79A   25198  $$$592B,7
  25206  00003EC2  00000001 USING  ORDINARY    00000000 00001000 FFFFFFF7   7 000          @R7,7
  25253  00003EEA  00000001 USING  ORDINARY    00003EEA 00001000 00000001   7 6FE   25559  $$$595B,7
  25573  00003FA6  00000001 USING  ORDINARY    00000000 00001000 FFFFFFF7   7 000          @R7,7
  25592  00003FB4  00000001 USING  ORDINARY    00000000 00001000 FFFFFFF8   6 000          @R6,6
  25688  00003FCE  00000001 USING  ORDINARY    00003FCE 00001000 00000001   7 5EE   25788  $$$613B,7
  25702  00003FCE  00000001 USING  ORDINARY    FFFFFFD8 00001000 FFFFFFC0   8 028   25706  SNNPWA-(4+36),R8
  25714  00003FD2  00000001 USING  ORDINARY    00000000 00001000 FFFFFFC0   6 008   26175  SNNPWA,R6
  25810  00004050  00000001 USING  ORDINARY    00000000 00001000 FFFFFFF6   8 000          @R8,8
  25815  00004050  00000001 USING  ORDINARY    00000000 00001000 FFFFFFF7   7 000          @R7,7
  25882  000040A2  00000001 USING  ORDINARY    000040A2 00001000 00000001   7 558   26232  $$$617B,7
  26245  0000416E  00000001 USING  ORDINARY    00000000 00001000 FFFFFFF7   7 000          @R7,7
  26314  00004196  00000001 USING  ORDINARY    00004196 00001000 00000001   7 440   26501  $$$637B,7
  26520  000042DE  00000001 USING  ORDINARY    00000000 00001000 FFFFFFF7   7 000          @R7,7
  26663  000043F6  00000001 USING  ORDINARY    000043F6 00001000 00000001   7 000          $$$643B,7
  26685  00004400  00000001 USING  ORDINARY    00000000 00001000 FFFFFFF7   7 000          @R7,7
  26733  00004428  00000001 USING  ORDINARY    00004428 00001000 00000001   7 196   26792  $$$646B,7
  26804  0000447C  00000001 USING  ORDINARY    00000000 00001000 FFFFFFF7   7 000          @R7,7
  26852  000044A4  00000001 USING  ORDINARY    000044A4 00001000 00000001   7 11C   26948  $$$649B,7
  26960  0000454A  00000001 USING  ORDINARY    00000000 00001000 FFFFFFF7   7 000          @R7,7
  27057  0000461A  00000001 USING  ORDINARY    0000461A 00001000 00000001   7 796   27274  $$$653B,7
  27288  00004758  00000001 USING  ORDINARY    00000000 00001000 FFFFFFF7   7 000          @R7,7
  27360  00004780  00000001 USING  ORDINARY    00004780 00001000 00000001   7 6E3   28051  $$$661B,7
  27698  00004868  00000001 USING  ORDINARY    00000000 00001000 FFFFFFE4   2 012   27793  VNENTRY,R2
  27867  000048FA  00000001 USING  ORDINARY    00000000 00001000 FFFFFFFC   2 000          @R2,2
  28074  00004996  00000001 USING  ORDINARY    00000000 00001000 FFFFFFF7   7 000          @R7,7
  28145  000049BE  00000001 USING  ORDINARY    000049BE 00001000 00000001   7 4A5   28610  $$$685B,7
  28628  00004B0A  00000001 USING  ORDINARY    00000000 00001000 FFFFFFF7   7 000          @R7,7
  28733  00004B32  00000001 USING  ORDINARY    00004B32 00001000 00000001   7 331   29417  $$$705B,7
  28747  00004B32  00000001 USING  ORDINARY    FFFFFFD8 00001000 FFFFFFBF   8 030   29088  SCNPWA-(4+36),R8
  29435  00004D28  00000001 USING  ORDINARY    00000000 00001000 FFFFFFF6   8 000          @R8,8
  29440  00004D28  00000001 USING  ORDINARY    00000000 00001000 FFFFFFF7   7 000          @R7,7
  29553  00004EAE  00000001 USING  ORDINARY    00004EAE 00001000 00000001   7 24E   29902  $$$735B,7
  29862  00004F5E  00000001 USING  ORDINARY    00000000 00001000 FFFFFFE4   2 011   29869  VNENTRY,R2
  29875  00004F62  00000001 USING  ORDINARY    00000000 00001000 FFFFFFFC   2 000          @R2,2
  29925  00004F7A  00000001 USING  ORDINARY    00000000 00001000 FFFFFFF7   7 000          @R7,7
  29993  00004FA2  00000001 USING  ORDINARY    00004FA2 00001000 00000001   7 176   30273  $$$755B,7
  30009  00004FA2  00000001 USING  ORDINARY    00000000 00001000 FFFFFFF8   6 000          @R6,6
  30012  00004FA2  00000001 USING  ORDINARY    00000000 00001000 FFFFFFE4   6 020   30178  VNENTRY,R6
  30286  00005098  00000001 USING  ORDINARY    00000000 00001000 FFFFFFF7   7 000          @R7,7
  30305  000050A6  00000001 USING  ORDINARY    00000000 00001000 FFFFFFF8   6 000          @R6,6
  30420  00005160  00000001 USING  ORDINARY    00005160 00001000 00000001   7 485   30546  $$$766B,7
  30434  00005160  00000001 USING  ORDINARY    FFFFFFD8 00001000 FFFFFFBE   8 03C   30530  PPRMWA-(4+36),R8
  30564  00005224  00000001 USING  ORDINARY    00000000 00001000 FFFFFFF6   8 000          @R8,8
  30569  00005224  00000001 USING  ORDINARY    00000000 00001000 FFFFFFF7   7 000          @R7,7
  30663  0000524C  00000001 USING  ORDINARY    0000524C 00001000 00000001   7 41C   31067  $$$771B,7
  30677  0000524C  00000001 USING  ORDINARY    FFFFFFD8 00001000 FFFFFFBD   8 040   31036  PPWA-(4+36),R8
  30712  0000526A  00000001 USING  ORDINARY    00000000 00001000 FFFFFFE4   1 000   30749  VNENTRY,R1
1XCALL    (XCAL2025) (13:01) (15MAR04) Using Map                                                                            Page  264
  30768  00005298  00000001 USING  ORDINARY    00000000 00001000 FFFFFFFD   1 000          @R1,1
  30779  00005298  00000001 USING  ORDINARY    00000000 00001000 FFFFFFE4   1 000   30816  VNENTRY,R1
  30835  000052C6  00000001 USING  ORDINARY    00000000 00001000 FFFFFFFD   1 000          @R1,1
  30934  00005304  00000001 USING  ORDINARY    00000000 00001000 FFFFFFE4   1 020   30945  VNENTRY,R1
  30962  00005310  00000001 USING  ORDINARY    00000000 00001000 FFFFFFFD   1 000          @R1,1
  30971  00005310  00000001 USING  ORDINARY    00000000 00001000 FFFFFFE4   2 011   30982  VNENTRY,R2
  30999  0000531C  00000001 USING  ORDINARY    00000000 00001000 FFFFFFFC   2 000          @R2,2
  31084  00005364  00000001 USING  ORDINARY    00000000 00001000 FFFFFFF6   8 000          @R8,8
  31089  00005364  00000001 USING  ORDINARY    00000000 00001000 FFFFFFF7   7 000          @R7,7
  31190  0000538C  00000001 USING  ORDINARY    0000538C 00001000 00000001   7 23C   31430  $$$789B,7
  31204  0000538C  00000001 USING  ORDINARY    FFFFFFD8 00001000 FFFFFFBC   8 048   31429  RPWA-(4+36),R8
  31253  000053BE  00000001 USING  ORDINARY    00000000 00001000 FFFFFFE4   2 011   31331  VNENTRY,R2
  31416  00005448  00000001 USING  ORDINARY    00000000 00001000 FFFFFFFC   2 000          @R2,2
  31455  00005456  00000001 USING  ORDINARY    00000000 00001000 FFFFFFF6   8 000          @R8,8
  31460  00005456  00000001 USING  ORDINARY    00000000 00001000 FFFFFFF7   7 000          @R7,7
  31553  0000547E  00000001 USING  ORDINARY    0000547E 00001000 00000001   7 14E   31821  $$$801B,7
  31567  0000547E  00000001 USING  ORDINARY    FFFFFFD8 00001000 FFFFFFBB   8 034   31820  RSPWA-(4+36),R8
  31638  000054B0  00000001 USING  ORDINARY    00000000 00001000 FFFFFFE4   1 020   31652  VNENTRY,R1
  31663  000054B8  00000001 USING  ORDINARY    00000000 00001000 FFFFFFFD   1 000   33483  @R1,1
  31672  000054B8  00000001 USING  ORDINARY    00000000 00001000 FFFFFFE4   2 011   31724  VNENTRY,R2
  31793  000054FA  00000001 USING  ORDINARY    00000000 00001000 FFFFFFFC   2 000          @R2,2
  31846  0000551C  00000001 USING  ORDINARY    00000000 00001000 FFFFFFF6   8 000          @R8,8
  31851  0000551C  00000001 USING  ORDINARY    00000000 00001000 FFFFFFF7   7 000          @R7,7
  31942  000056A8  00000001 USING  ORDINARY    000056A8 00001000 00000001   7 10C   32325  $$$814B,7
  31958  000056A8  00000001 USING  ORDINARY    00000000 00001000 FFFFFFDF   6 082   32324  SNENTRY,R6
  32359  000057BC  00000001 USING  ORDINARY    00000000 00001000 FFFFFFF7   7 000          @R7,7
  32378  000057CA  00000001 USING  ORDINARY    00000000 00001000 FFFFFFF8   6 000          @R6,6
  32433  000057E4  00000001 USING  ORDINARY    000057E4 00001000 00000001   7 4B4   32856  $$$828B,7
  32449  000057E4  00000001 USING  ORDINARY    00000000 00001000 FFFFFFDF   6 082   32815  SNENTRY,R6
  32876  00005906  00000001 USING  ORDINARY    00000000 00001000 FFFFFFF7   7 000          @R7,7
  32895  00005914  00000001 USING  ORDINARY    00000000 00001000 FFFFFFF8   6 000          @R6,6
  32943  0000592E  00000001 USING  ORDINARY    0000592E 00001000 00000001   7 0E6   33255  $$$842B,7
  32959  0000592E  00000001 USING  ORDINARY    00000000 00001000 FFFFFFDF   6 082   33266  SNENTRY,R6
  33282  00005A16  00000001 USING  ORDINARY    00000000 00001000 FFFFFFF7   7 000          @R7,7
  33301  00005A24  00000001 USING  ORDINARY    00000000 00001000 FFFFFFF8   6 000          @R6,6
  33385  00005A3E  00000001 USING  ORDINARY    00005A3E 00001000 00000001   7 272   33655  $$$856B,7
  33399  00005A3E  00000001 USING  ORDINARY    FFFFFFD8 00001000 FFFFFFBA   8 040   33551  GTXWA-(4+36),R8
  33410  00005A3E  00000001 USING  ORDINARY    00000000 00001000 FFFFFFDF   6 082   33666  SNENTRY,R6
  33682  00005B38  00000001 USING  ORDINARY    00000000 00001000 FFFFFFF6   8 000          @R8,8
  33687  00005B38  00000001 USING  ORDINARY    00000000 00001000 FFFFFFF7   7 000          @R7,7
  33706  00005B46  00000001 USING  ORDINARY    00000000 00001000 FFFFFFF8   6 000          @R6,6
  33776  00005B60  00000001 USING  ORDINARY    00005B60 00001000 00000001   7 14C   33969  $$$867B,7
  33790  00005B60  00000001 USING  ORDINARY    FFFFFFD8 00001000 FFFFFFB9   8 030   33843  GTPWA-(4+36),R8
  33801  00005B60  00000001 USING  ORDINARY    00000000 00001000 FFFFFFDF   6 082   33980  SNENTRY,R6
  33996  00005C22  00000001 USING  ORDINARY    00000000 00001000 FFFFFFF6   8 000          @R8,8
  34001  00005C22  00000001 USING  ORDINARY    00000000 00001000 FFFFFFF7   7 000          @R7,7
  34020  00005C30  00000001 USING  ORDINARY    00000000 00001000 FFFFFFF8   6 000          @R6,6
  34065  00005C4A  00000001 USING  ORDINARY    00005C4A 00001000 00000001   7 02C   34135  $$$875B,7
  34081  00005C4A  00000001 USING  ORDINARY    00000000 00001000 FFFFFFDF   1 031   34146  SNENTRY,R1
  34157  00005C76  00000001 USING  ORDINARY    00000000 00001000 FFFFFFF7   7 000          @R7,7
  34176  00005C84  00000001 USING  ORDINARY    00000000 00001000 FFFFFFFD   1 00B   36612  @R1,1
  34237  00005CD6  00000001 USING  ORDINARY    00005CD6 00001000 00000001   7 6B6   34262  $$$880B,7
  34271  00005CEC  00000001 USING  ORDINARY    00000000 00001000 FFFFFFF7   7 000          @R7,7
  34325  00005D14  00000001 USING  ORDINARY    00005D14 00001000 00000001   7 6AA   34452  $$$883B,7
  34461  00005D6A  00000001 USING  ORDINARY    00000000 00001000 FFFFFFF7   7 000          @R7,7
  34538  00005D92  00000001 USING  ORDINARY    00005D92 00001000 00000001   7 637   34649  $$$888B,7
  34552  00005D92  00000001 USING  ORDINARY    FFFFFFD8 00001000 FFFFFFB8   8 028   34646  BPRWA-(4+36),R8
  34657  00005DEA  00000001 USING  ORDINARY    00000000 00001000 FFFFFFF6   8 000          @R8,8
  34662  00005DEA  00000001 USING  ORDINARY    00000000 00001000 FFFFFFF7   7 000          @R7,7
