1         (FLOW2025) (12:45) (15MAR04) General Purpose Register Cross Reference                                             Page  266
- Register  References (M=modified, B=branch, U=USING, D=DROP, N=index)                      HLASM R4.0  2004/03/15 12.45
0    0(0)      982U   983D  2099   2167M  2167   2168M  7477   7521M  7587   7655M  7673M  7701M  7719M  7784M  7802M
              7879M  7940M  7999   8059M  8059   8068   8069   8070   8118M  8118   8212M  8316M  8334M  8411M  8472M
              8531   8581M  8599M  8599   8608M  8635   8663M  8699M  8766   8805   8860M  8919   9027M  9104M  9122M
              9179M  9217M  9276   9344M  9362M  9390M  9408M  9473M  9491M  9568M  9629M  9688   9756M  9774M  9802M
              9820M  9885M  9903M  9959M  9997M 10056  10124M 10142M 10170M 10188M 10253M 10271M 10376M 10435  10503M
             10521M 10549M 10567M 10632M 10650M 10694M 10719M 10778  10846M 10864M 10892M 10910M 10975M 10993M 11070M
             11131M 11231  11279M 11297M 11325M 11343M 11377M 11395M 11414M 11466  11637M 11655M 11748M 11748  11764
             11800M 11800  11816  11878M 11918  11966M 11984M 11996M 12045M 12068M 12068  12077  12078  12079  12127M
             12148  12149  12216M 12268  12336M 12354M 12382M 12400M 12439  12466M 12518  12579M 12597M 12625M 12643M
             12682  12690M 12719M 12747  12831M 12877M 12897M 13006  13063M 13063  13072  13073  13074  13125M 13125
             13140M 13160M 13160  13292M 13341  13381M 13381  13390  13391  13481M 13748  13793M 13816  13857M 13880
             14011M 14011  14033M 14049M 14082  14114M 14114  14123  14124  14125  14152M 14152  14187M 14219M 14278
             14373M 14391M 14429M 14447M 14506M 14524M 14532M 14538  14558M 14617  14705M 14723M 14761M 14779M 14838M
             14856M 14864M 14870  14890M 14954  15007M 15012  15017M 15100M 15131M 15148  15159M 15159  15168  15169
             15170  15218M 15237M 15254  15265M 15265  15274  15275  15276  15324M 15346  15374M 15446  15496M 15501
             15506M 15589M 15632M 15649  15660M 15660  15669  15670  15671  15714M 15745M 15762  15773M 15773  15782
             15783  15784  15832M 15881  15915M 16083  16121  16277M 16284  16307M 16314  16428M 16435  16463M 16630M
             16637  16659M 16666  16780M 16787  16824M 16854  16907M 16913  16924M 16948M 16954M 16979  16991M 16992M
             17022M 17059  17112M 17118  17129M 17153M 17154M 17160M 17185  17197M 17198M 17235M 17272  17325M 17331
             17344M 17368M 17374M 17399  17411M 17412M 17449M 17486  17539M 17545  17584M 17608M 17614M 17639  17651M
             17652M 17682M 17719  17772M 17778  17791M 17815M 17821M 17846  17858M 17859M 17889M 17926  17979M 17985
             17998M 18022M 18028M 18053  18065M 18066M 18096M 18178  18221  18232M 18232  18241  18242  18326M 18518
             18559M 18579  18609M 18633  18688M 18708  18784M 18804  18836M 18836  18845  18846  18847  18870M 18894
             18949M 18986  19029  19040M 19040  19049  19050  19051  19079M 19079  19139M 19197  19260M 19297  19325M
             19352  19388  19435M 19472  19500M 19527  19548  19593M 19628  19656M 19683  19695M 19702  19717M 19756
             19784  19806M 19819M 19841M 19859M 19886M 19899M 19921M 19939M 19951  19953  19974M 20008  20044M 20044
             20058  20070M 20077  20107M 20145  20182  20197M 20235  20272  20287M 20323  20371M 20409  20438M 20446M
             20455  20470M 20508  20537M 20545M 20554  20569M 20668  20713M 20719M 20808M 20851M 20914  21019  21030M
             21030  21039  21040  21041  21098M 21098  21107  21108  21109  21138M 21138  21162M 21196M 21209M 21226M
             21226  21235  21236  21237  21281M 21368M 21438  21544  21555M 21555  21564  21565  21566  21634M 21682M
             21700M 21721M 21721  21730  21731  21732  21761M 21761  21785M 21819M 21834M 21851M 21851  21860  21861
             21862  21906M 21964M 21982M 22061M 22131  22239M 22269  22308  22390  22444M 22573  22681M 22711  22753
             22780  22818  22920  22947  22985  23059M 23131  23240  23394M 23471  23585M 23615  23654  23681  23719
             23821  23848  23886  23960M 24034  24137  24362M 24474  24577  24602M 24648M 24732M 24807  24921M 24951
             24990  25019  25133  25163  25249M 25319  25373  25411M 25457M 25475M 25567M 25610M 25617  25637M 25718
             25764  25809  25824M 25824  25833  25834  26124M 26170M 26438  26479M 26502  26543M 26566  26610M 26633
             26677M 26700  26744M 26767  26811M 26834  26878M 26901  26945M 26968  27000M 27018M 27041M 27064  27095M
             27118M 27141  27176M 27189M 27201M 27224M 27247  27278M 27296M 27319M 27342  27373M 27391M 27414M 27437
             27468M 27486M 27509M 27532  27563M 27581M 27604M 27630  27661M 27679M 27692M 27704M 27731M 27849  27902M
             27902  27912M 27941M 27941  27951M 27978M 27996M 28022  28037M 28067  28103M 28103  28109M 28110  28146
             28151M 28166M 28166  28177M 28221M 28265M 28309M 28353M 28379  28398M 28428  28464M 28464  28470M 28471
             28507  28512M 28527M 28527  28538M 28582M 28618M 28658M 28698M 28728  28747M 28777  28813M 28813  28819M
             28820  28856  28861M 28876M 28876  28887M 28931M 28971M 29007M 29047M 29077  29096M 29151  29203  29214M
             29214  29223  29224  29225  29254M 29254  29282  29293M 29293  29302  29303  29304  29355M 29445  29488M
             29488  29489  29539  29570  29581M 29581  29590  29591  29592  29636M 29655M 29673  29684M 29684  29693
             29694  29695  29783M 29822  29937  29968  29979M 29979  29988  29989  29990  30034M 30053M 30071  30082M
             30082  30091  30092  30093  30180M 30198M 30236M 30273  30473M 30510  30710M 30747  30881M 30899M 30934M
             30952M 30989M 31026  31226M 31266  31302  31401M 31419M 31432M 31444M 31462M 31475M 31487M 31522M 31540M
             31553M 31565M 31583M 31620M 31660  31702  31713M 31713  31722  31723  31724  31757M 31757  31802M 31836M
             31854M 31922M 31989  32047M 32079M 32145  32266M 32363  32398M 32398  32407  32408  32502M 32769  32815M
             32843M 32866  32907M 32930  32960M 32994M 33012M 33030M 33054M 33093  33135  33146M 33146  33155  33156
             33157  33184M 33184  33190  33215M 33215  33224  33225  33226  33258M 33268  33283M 33350  33396  33416
             33427M 33427  33436  33437  33438  33467M 33467  33473M 33493  33512M 33535M 33594M 33594  33618M 33648M
             33665  33676M 33676  33685  33686  33687  33721  33741M 33813  33841M 33850M 33859  33874M 33911  33939M
             33948M 33957  33972M 34009  34040M 34048M 34098  34113M 34151  34181M 34194M 34207M 34214  34229M 34266
1         (FLOW2025) (12:45) (15MAR04) General Purpose Register Cross Reference                                             Page  267
             34295M 34303M 34329  34344M 34407  34446M 34454M 34476M 34520  34549M 34557M 34578  34618M 34660  34695
             34699M 34707M 34727M 34774  34809  34813M 34821M 34840  34863M 34947  34993  34998M 35026M 35034  35054M
             35118  35190M 35198  35218M 35283  35322  35323M 35371M 35430  35486  35491M 35539M 35580  35607M 35607
             35630M 35667  35741M 35754M 35773M 35773  35786M 35822M 35851  35878  35885M 35900M 35911M 35929M 35955
             35986M 36004M 36034M 36057  36097M 36116  36156M 36175  36215M
     1(1)      978U  2099   2162M  2163M  2169M  7477   7521M  7587   7654M  7672M  7700M  7718M  7763M  7783M  7801M
              7878M  7940M  7999   8055M  8068N  8069N  8070N  8211M  8295M  8315M  8333M  8410M  8472M  8531   8580M
              8608   8635   8641M  8641N  8662M  8662N  8663   8699   8766   8772M  8772N  8778M  8778N  8805   8811M
              8811N  8860M  8919   9026M  9083M  9103M  9121M  9178M  9217M  9276   9343M  9361M  9389M  9407M  9452M
              9472M  9490M  9567M  9629M  9688   9755M  9773M  9801M  9819M  9864M  9884M  9902M  9958M  9997M 10056
             10123M 10141M 10169M 10187M 10232M 10252M 10270M 10376M 10435  10502M 10520M 10548M 10566M 10611M 10631M
             10649M 10693M 10719M 10778  10845M 10863M 10891M 10909M 10954M 10974M 10992M 11069M 11131M 11231  11278M
             11296M 11324M 11342M 11376M 11394M 11414M 11466  11616M 11636M 11654M 11744M 11763  11796M 11815  11878M
             11918  11965M 11983M 11995M 12044M 12064M 12077N 12078N 12079N 12126M 12188M 12216M 12268  12335M 12353M
             12381M 12399M 12466M 12518  12578M 12596M 12624M 12642M 12719M 12747  12830M 12876M 12897M 13006  13059M
             13072N 13073N 13074N 13138M 13292M 13341  13377M 13390N 13391N 13393N 13481M 13748  13793M 13816  13857M
             13880  14032M 14049M 14082  14110M 14123N 14124N 14125N 14186M 14219M 14278  14340M 14366M 14390M 14422M
             14446M 14455M 14469  14483  14499M 14523M 14558M 14617  14672M 14698M 14722M 14754M 14778M 14787M 14801
             14815  14831M 14855M 14890M 14954  15006M 15013  15018M 15099M 15132M 15147  15155M 15168N 15169N 15170N
             15217M 15238M 15253  15261M 15274N 15275N 15276N 15323M 15345  15374M 15446  15495M 15502  15507M 15588M
             15633M 15648  15656M 15669N 15670N 15671N 15713M 15746M 15761  15769M 15782N 15783N 15784N 15831M 15880
             15915M 16083  16122  16278M 16308M 16365M 16399M 16419M 16429M 16464M 16484M 16521M 16558M 16595M 16618M
             16631M 16660M 16717M 16751M 16771M 16781M 16824M 16854  16889  16908M 16925M 16949M 16955M 16993M 17022M
             17059  17094  17113M 17130M 17155M 17161M 17199M 17210M 17211M 17212  17213M 17214M 17215  17235M 17272
             17307  17326M 17345M 17369M 17375M 17413M 17424M 17425M 17426  17427M 17428M 17429  17449M 17486  17521
             17540M 17585M 17609M 17615M 17653M 17682M 17719  17754  17773M 17792M 17816M 17822M 17860M 17889M 17926
             17961  17980M 17999M 18023M 18029M 18067M 18096M 18178  18220  18228M 18241N 18242N 18244N 18326M 18518
             18559M 18579  18608M 18632  18688M 18708  18784M 18804  18832M 18845N 18846N 18847N 18869M 18893  18949M
             18986  19028  19036M 19049N 19050N 19051N 19139M 19197  19260M 19297  19325  19352  19358M 19358N 19388
             19435M 19472  19500  19527  19533M 19533N 19548  19593M 19628  19656  19683  19689M 19689N 19695  19702
             19717M 19756  19805M 19834M 19858M 19885M 19914M 19938M 19952  19974M 20008  20107M 20145  20197M 20235
             20287M 20323  20371M 20409  20470M 20508  20569M 20668  20727M 20747M 20770M 20807M 20817M 20851M 20914
             20960  20981M 21018  21026M 21039N 21040N 21041N 21094M 21107N 21108N 21109N 21161M 21195M 21210M 21222M
             21235N 21236N 21237N 21280M 21296M 21307M 21339M 21368M 21438  21484  21506M 21543  21551M 21564N 21565N
             21566N 21633M 21649M 21675M 21699M 21717M 21730N 21731N 21732N 21784M 21818M 21835M 21847M 21860N 21861N
             21862N 21905M 21921M 21931M 21957M 21981M 22000M 22032M 22061M 22131  22176  22238M 22268  22278M 22295M
             22329M 22359M 22384M 22411M 22444M 22573  22618  22680M 22710  22720M 22740M 22859M 22889M 22914M 23026M
             23059M 23131  23176  23239  23249M 23266M 23291M 23320M 23361M 23394M 23471  23516  23584M 23614  23624M
             23641M 23760M 23790M 23815M 23927M 23960M 24034  24079  24136  24146M 24166M 24175M 24200M 24229M 24254M
             24279M 24304M 24329M 24362M 24474  24519  24576  24601M 24615M 24636M 24649M 24674M 24703M 24732M 24807
             24852  24920M 24950  24960M 24977M 25072M 25102M 25127M 25216M 25249M 25319  25374  25410M 25424M 25450M
             25474M 25504M 25566M 25611M 25617  25637M 25718  25765  25771M 25808  25820M 25833N 25834N 25836N 25891M
             26102M 26123M 26170M 26438  26479M 26502  26543M 26566  26610M 26633  26677M 26700  26744M 26767  26811M
             26834  26878M 26901  26945M 26968  26999M 27017M 27041M 27064  27094M 27118M 27141  27175M 27190M 27200M
             27224M 27247  27277M 27295M 27319M 27342  27372M 27390M 27414M 27437  27467M 27485M 27509M 27532  27562M
             27580M 27604M 27630  27660M 27678M 27693M 27703M 27731M 27849  27910M 27949M 27977M 27995M 28022  28037M
             28067  28109  28111  28127  28127M 28146M 28151  28176M 28219M 28263M 28307M 28351M 28379  28398M 28428
             28470  28472  28488  28488M 28507M 28512  28537M 28580M 28616M 28656M 28696M 28728  28747M 28777  28819
             28821  28837  28837M 28856M 28861  28886M 28929M 28969M 29005M 29045M 29077  29096M 29151  29177  29202
             29210M 29223N 29224N 29225N 29260M 29281  29289M 29302N 29303N 29304N 29355M 29445  29481  29507M 29539
             29569  29577M 29590N 29591N 29592N 29635M 29655M 29672  29680M 29693N 29694N 29695N 29783M 29822  29858
             29905M 29937  29967  29975M 29988N 29989N 29990N 30033M 30053M 30070  30078M 30091N 30092N 30093N 30179M
             30197M 30236M 30273  30309  30355M 30421M 30473M 30510  30546  30592M 30658M 30710M 30747  30783  30829M
             30880M 30898M 30933M 30951M 30989M 31026  31062  31108M 31174M 31226M 31266  31303  31349M 31400M 31418M
             31433M 31443M 31461M 31476M 31486M 31521M 31539M 31554M 31564M 31582M 31620M 31660  31701  31709M 31722N
             31723N 31724N 31801M 31835M 31853M 31922M 31989  32048M 32079M 32145  32203M 32266M 32363  32394M 32407N
             32408N 32410N 32502M 32769  32814M 32843M 32866  32907M 32930  32959M 32993M 33011M 33029M 33054M 33093
             33134  33142M 33155N 33156N 33157N 33190M 33192M 33211M 33224N 33225N 33226N 33257M 33268  33283M 33350
             33397  33415  33423M 33436N 33437N 33438N 33474M 33493M 33495M 33513M 33532  33536M 33606  33616M 33649M
1         (FLOW2025) (12:45) (15MAR04) General Purpose Register Cross Reference                                             Page  268
             33664  33672M 33685N 33686N 33687N 33721  33741M 33813  33874M 33911  33972M 34009  34035  34068M 34113M
             34151  34229M 34266  34329  34344M 34407  34442  34455M 34476M 34520  34558  34559M 34559N 34578  34618M
             34660  34727M 34774  34840  34863M 34947  34994  34999M 35027M 35034  35054M 35118  35165  35166M 35191M
             35198  35218M 35283  35321  35324M 35371M 35430  35492M 35539M 35580  35606  35630M 35667  35740M 35755M
             35787M 35822M 35851  35878  35884M 35900M 35910M 35929M 35955  35985M 36003M 36034M 36057  36097M 36116
             36156M 36175  36215M
     2(2)      974U  2099   7477   7521M  7587   7940M  7999   8472M  8531   8574U  8576M  8664M  8860M  8871U  8919
              9217M  9276   9629M  9688   9997M 10056  10376M 10435  10719M 10778  11131M 11231  11414M 11466  11878M
             11918  12216M 12268  12439M 12445  12466M 12518  12682M 12690  12719M 12747  12897M 13006  13141M 13292M
             13341  13481M 13748  13793M 13816  13857M 13880  14049M 14082  14219M 14278  14333M 14558M 14617  14665M
             14890M 14954  15014  15019M 15058M 15059  15374M 15446  15503  15508M 15547M 15548  15915M 16083  16279M
             16309M 16430M 16632M 16661M 16782M 16824M 16854  16916M 16926M 16980M 16994M 17022M 17059  17121M 17131M
             17186M 17200M 17235M 17272  17335M 17346M 17400M 17414M 17449M 17486  17548M 17586M 17640M 17654M 17682M
             17719  17780M 17793M 17847M 17861M 17889M 17926  17989M 18000M 18054M 18068M 18096M 18178  18326M 18518
             18559M 18579  18688M 18708  18784M 18804  18949M 18986  19139M 19197  19235M 19260M 19297  19435M 19472
             19593M 19628  19717M 19756  19950M 19954M 19974M 20008  20081M 20081  20083M 20086  20107M 20145  20197M
             20235  20287M 20323  20350N 20371M 20409  20470M 20508  20569M 20668  20728M 20748M 20771M 20818M 20851M
             20914  20961  20978  20982M 21175M 21211M 21297M 21305M 21306  21328M 21329  21368M 21438  21485  21486
             21503  21507M 21613M 21798M 21836M 21922M 21998M 21999  22021M 22022  22061M 22131  22177  22178  22243
             22279M 22296M 22301  22385M 22444M 22573  22619  22620  22685  22721M 22741M 22746  22915M 23059M 23131
             23177  23178  23250M 23267M 23272  23394M 23471  23517  23518  23589  23625M 23642M 23647  23816M 23960M
             24034  24080  24081  24147M 24167M 24172  24176M 24181  24280M 24285  24362M 24474  24520  24521  24616M
             24637M 24650M 24655  24732M 24807  24853  24854  24925  24961M 24978M 24983  25128M 25249M 25319  25365
             25368M 25502M 25503  25637M 25718  25766  25767  25772M 25892M 26103M 26170M 26438  26479M 26502  26543M
             26566  26610M 26633  26677M 26700  26744M 26767  26811M 26834  26878M 26901  26945M 26968  27041M 27064
             27118M 27141  27191M 27224M 27247  27319M 27342  27414M 27437  27509M 27532  27604M 27630  27694M 27731M
             27849  28000  28011  28037M 28067  28115M 28115  28127M 28398M 28428  28476M 28476  28488M 28747M 28777
             28825M 28825  28837M 29096M 29151  29178  29261M 29355M 29445  29482  29489N 29508M 29533M 29783M 29822
             29859  29860  29906M 29931M 30236M 30273  30310  30356M 30422M 30473M 30510  30547  30593M 30659M 30710M
             30747  30784  30830M 30903  30956  30989M 31026  31063  31109M 31175M 31226M 31266  31304  31350M 31434M
             31477M 31555M 31620M 31660  31922M 31989  32049M 32079M 32145  32266M 32363  32391  32502M 32769  32843M
             32866  32907M 32930  33054M 33093  33283M 33350  33398  33537M 33612M 33613  33741M 33813  33874M 33911
             33972M 34009  34036N 34069N 34113M 34151  34177N 34194N 34195N 34229M 34266  34344M 34407  34456M 34476M
             34520  34558M 34578  34618M 34660  34727M 34774  34840  34863M 34947  35000M 35054M 35118  35218M 35283
             35324  35325M 35371M 35430  35492  35493M 35539M 35580  35630M 35667  35693M 35730M 35730  35822M 35851
             35929M 35955  36034M 36057  36097M 36116  36156M 36175  36215M
     3(3)      970U  2099   7477   7521M  7587   7940M  7999   8472M  8531   8860M  8919   9217M  9276   9629M  9688
              9997M 10056  10376M 10435  10719M 10778  11131M 11231  11414M 11466  11878M 11918  12149M 12153M 12162M
             12162  12169  12216M 12268  12466M 12518  12719M 12747  12897M 13006  13292M 13341  13481M 13748  13793M
             13816  13857M 13880  14049M 14082  14219M 14278  14558M 14617  14890M 14954  15374M 15446  15915M 16083
             16824M 16854  16917M 16981M 17022M 17059  17122M 17187M 17235M 17272  17336M 17401M 17449M 17486  17549M
             17641M 17682M 17719  17781M 17848M 17889M 17926  17990M 18055M 18096M 18178  18326M 18518  18559M 18579
             18688M 18708  18784M 18804  18949M 18986  19067M 19068M 19068N 19139M 19197  19260M 19297  19435M 19472
             19593M 19628  19717M 19756  19795  19948M 19950M 19951M 19954M 19974M 20008  20077M 20083M 20084  20107M
             20145  20175M 20175  20197M 20235  20265M 20265  20287M 20323  20371M 20409  20470M 20508  20569M 20668
             20851M 20914  21062M 21063M 21063N 21212M 21258M 21259M 21259N 21368M 21438  21587M 21588M 21588N 21837M
             21883M 21884M 21884N 22061M 22131  22193M 22194M 22194N 22444M 22573  22635M 22636M 22636N 23059M 23131
             23199M 23200M 23200N 23394M 23471  23539M 23540M 23540N 23960M 24034  24096M 24097M 24097N 24362M 24474
             24536M 24537M 24537N 24732M 24807  24875M 24876M 24876N 25249M 25319  25637M 25718  26170M 26438  26479M
             26502  26543M 26566  26610M 26633  26677M 26700  26744M 26767  26811M 26834  26878M 26901  26945M 26968
             27041M 27064  27118M 27141  27224M 27247  27319M 27342  27414M 27437  27509M 27532  27604M 27630  27731M
             27849  28037M 28067  28110M 28111M 28118M 28120  28398M 28428  28471M 28472M 28479M 28481  28747M 28777
             28820M 28821M 28828M 28830  29096M 29151  29355M 29445  29613M 29614M 29614N 29716M 29717M 29717N 29783M
             29822  30011M 30012M 30012N 30114M 30115M 30115N 30236M 30273  30384M 30385M 30385N 30473M 30510  30621M
             30622M 30622N 30710M 30747  30858M 30859M 30859N 30989M 31026  31137M 31138M 31138N 31226M 31266  31378M
             31379M 31379N 31620M 31660  31745M 31746M 31746N 31922M 31989  32050M 32079M 32145  32266M 32363  32502M
             32769  32843M 32866  32907M 32930  33054M 33093  33283M 33350  33741M 33813  33874M 33911  33972M 34009
             34035M 34068  34113M 34151  34229M 34266  34344M 34407  34476M 34520  34578  34618M 34660  34699  34727M
             34774  34813  34840  34863M 34947  34993M 35054M 35118  35218M 35283  35322M 35371M 35430  35490M 35539M
1         (FLOW2025) (12:45) (15MAR04) General Purpose Register Cross Reference                                             Page  269
             35580  35630M 35667  35822M 35851  35929M 35955  36034M 36057  36097M 36116  36156M 36175  36215M
     4(4)      966U  2099   7477   7521M  7587   7940M  7999   8472M  8531   8860M  8919   9217M  9276   9629M  9688
              9997M 10056  10376M 10435  10719M 10778  11131M 11231  11414M 11466  11878M 11918  12216M 12268  12466M
             12518  12719M 12747  12897M 13006  13213M 13214  13231M 13232  13292M 13341  13481M 13748  13793M 13816
             13857M 13880  14049M 14082  14219M 14278  14558M 14617  14890M 14954  15374M 15446  15915M 16083  16824M
             16854  16913M 16914M 16915  16918M 16985M 16985  17022M 17059  17118M 17119M 17120  17123M 17191M 17191
             17235M 17272  17331M 17332M 17333M 17334  17337M 17338M 17405M 17405  17449M 17486  17545M 17546M 17547
             17550M 17571M 17571  17645M 17645  17682M 17719  17778M 17779  17785M 17785  17852M 17852  17889M 17926
             17985M 17986M 17987M 17988  17991M 17992M 18059M 18059  18096M 18178  18326M 18518  18559M 18579  18688M
             18708  18784M 18804  18949M 18986  19139M 19197  19260M 19297  19435M 19472  19593M 19628  19717M 19756
             19785  19875M 19875  19948  19952M 19954M 19974M 20008  20082M 20083  20107M 20145  20197M 20235  20287M
             20323  20371M 20409  20470M 20508  20569M 20668  20851M 20914  21213M 21368M 21438  21838M 22061M 22131
             22444M 22573  23059M 23131  23394M 23471  23960M 24034  24362M 24474  24732M 24807  25249M 25319  25637M
             25718  25817M 25817  25885M 25885  25904  25939  25974  26009  26044  26079  26097M 26097  26170M 26438
             26479M 26502  26543M 26566  26592M 26594  26610M 26633  26659M 26661  26677M 26700  26726M 26728  26744M
             26767  26793M 26795  26811M 26834  26860M 26862  26878M 26901  26927M 26929  26945M 26968  27041M 27064
             27118M 27141  27224M 27247  27319M 27342  27414M 27437  27509M 27532  27604M 27630  27731M 27849  28011M
             28037M 28067  28181  28398M 28428  28542  28747M 28777  28891  29096M 29151  29355M 29445  29783M 29822
             30236M 30273  30473M 30510  30710M 30747  30989M 31026  31226M 31266  31620M 31660  31922M 31989  32051M
             32079M 32145  32266M 32363  32391M 32502M 32769  32819  32843M 32866  32907M 32930  33034  33054M 33093
             33283M 33350  33741M 33813  33874M 33911  33972M 34009  34036M 34069  34113M 34151  34177M 34195  34229M
             34266  34344M 34407  34476M 34520  34578  34618M 34660  34698  34706  34727M 34774  34812  34820  34840
             34863M 34947  34994M 35054M 35118  35218M 35283  35321M 35371M 35430  35489M 35539M 35580  35630M 35667
             35822M 35851  35929M 35955  36034M 36057  36097M 36116  36156M 36175  36215M
     5(5)      962U  2099   7477   7521M  7587   7940M  7999   8472M  8531   8860M  8919   9217M  9276   9629M  9688
              9997M 10056  10376M 10435  10719M 10778  11131M 11231  11414M 11466  11878M 11918  12216M 12268  12466M
             12518  12719M 12747  12897M 13006  13292M 13341  13481M 13748  13793M 13816  13857M 13880  14049M 14082
             14219M 14278  14558M 14617  14890M 14954  15374M 15446  15915M 16083  16824M 16854  16919M 16986M 17022M
             17059  17124M 17192M 17235M 17272  17339M 17406M 17449M 17486  17572M 17573M 17574  17579M 17646M 17682M
             17719  17786M 17853M 17889M 17926  17993M 18060M 18096M 18178  18326M 18518  18559M 18579  18688M 18708
             18784M 18804  18949M 18986  19139M 19197  19260M 19297  19435M 19472  19593M 19628  19717M 19756  19819N
             19899N 19953M 19954M 19974M 20008  20107M 20145  20197M 20235  20287M 20323  20371M 20409  20470M 20508
             20569M 20668  20851M 20914  21368M 21438  22061M 22131  22444M 22573  23059M 23131  23394M 23471  23960M
             24034  24362M 24474  24732M 24807  25249M 25319  25637M 25718  26170M 26438  26479M 26502  26543M 26566
             26610M 26633  26677M 26700  26744M 26767  26811M 26834  26878M 26901  26945M 26968  27041M 27064  27118M
             27141  27224M 27247  27319M 27342  27414M 27437  27509M 27532  27604M 27630  27731M 27849  28037M 28067
             28398M 28428  28747M 28777  29096M 29151  29177M 29260  29355M 29445  29783M 29822  30236M 30273  30473M
             30510  30710M 30747  30989M 31026  31226M 31266  31620M 31660  31922M 31989  32079M 32145  32266M 32363
             32502M 32769  32843M 32866  32907M 32930  33054M 33093  33283M 33350  33532M 33606  33741M 33813  33874M
             33911  33972M 34009  34113M 34151  34229M 34266  34344M 34407  34476M 34520  34578  34618M 34660  34695M
             34707  34727M 34774  34809M 34821  34840  34863M 34947  35054M 35118  35218M 35283  35371M 35430  35539M
             35580  35630M 35667  35822M 35851  35929M 35955  36034M 36057  36097M 36116  36156M 36175  36215M
     6(6)      958U  2099   7477   7521M  7587   7630U  7632M  7940M  7951U  7999   8042U  8044M  8472M  8483U  8531
              8860M  8919   8962U  8964M  9217M  9228U  9276   9319U  9321M  9629M  9640U  9688   9731U  9733M  9997M
             10008U 10056  10099U 10101M 10376M 10387U 10435  10478U 10480M 10719M 10730U 10778  10821U 10823M 11131M
             11142U 11231  11414M 11466  11509U 11511M 11878M 11889U 11918  12216M 12268  12311U 12313M 12466M 12518
             12556M 12719M 12747  12897M 13006  13049U 13052U 13054M 13292M 13303U 13341  13481M 13748  13793M 13816
             13857M 13880  14049M 14082  14219M 14278  14321U 14323M 14558M 14617  14655M 14890M 14954  14997U 15000U
             15002M 15374M 15385U 15446  15489U 15491M 15915M 15926U 16083  16824M 16854  16887U 16889M 17022M 17033U
             17059  17092U 17094M 17235M 17246U 17272  17305U 17307M 17449M 17460U 17486  17519U 17521M 17682M 17693U
             17719  17752U 17754M 17889M 17900U 17926  17959U 17961M 18096M 18107U 18178  18326M 18518  18559M 18579
             18688M 18708  18784M 18804  18949M 18986  19139M 19197  19260M 19297  19435M 19472  19593M 19628  19717M
             19756  19784M 19785M 19795  19974M 20008  20107M 20145  20197M 20235  20287M 20323  20371M 20409  20470M
             20508  20569M 20668  20851M 20914  20957U 20959M 21314M 21368M 21379U 21438  21481U 21483M 22007M 22061M
             22072U 22131  22174U 22311M 22336M 22393M 22444M 22455U 22573  22616U 22841M 22866M 23008M 23059M 23070U
             23131  23174U 23275M 23298M 23345M 23394M 23405U 23471  23514U 23742M 23767M 23909M 23960M 23971U 24034
             24077U 24184M 24207M 24236M 24288M 24311M 24362M 24373U 24474  24517U 24658M 24681M 24732M 24743U 24807
             24850U 25054M 25079M 25198M 25249M 25260U 25319  25362U 25364M 25637M 25648U 25718  25754M 25762U 26170M
             26438  26479M 26502  26543M 26566  26610M 26633  26677M 26700  26744M 26767  26811M 26834  26878M 26901
1         (FLOW2025) (12:45) (15MAR04) General Purpose Register Cross Reference                                             Page  270
             26945M 26968  27041M 27064  27118M 27141  27224M 27247  27319M 27342  27414M 27437  27509M 27532  27604M
             27630  27731M 27742U 27849  28037M 28067  28398M 28428  28747M 28777  29096M 29151  29178M 29261  29355M
             29445  29783M 29822  29860M 30038  30202  30236M 30273  30473M 30510  30710M 30747  30989M 31026  31226M
             31266  31620M 31660  31922M 31989  32032U 32034M 32079M 32090U 32145  32188U 32190M 32266M 32277U 32363
             32502M 32769  32843M 32866  32907M 32930  33054M 33093  33283M 33350  33393U 33395M 33741M 33752U 33813
             33874M 33911  33972M 34009  34113M 34151  34229M 34266  34344M 34407  34440U 34442M 34476M 34487U 34520
             34578  34618M 34660  34693U 34727M 34738U 34774  34807U 34840  34863M 34874U 34947  34990U 34992M 35054M
             35065U 35118  35161U 35163M 35218M 35229U 35283  35371M 35430  35473U 35475M 35539M 35550U 35580  35630M
             35667  35822M 35851  35929M 35955  36034M 36057  36097M 36116  36156M 36175  36215M
     7(7)      954U  2092M  2092   2093B  2099   2105B  7477   7482M  7494U  7513U  7521M  7587   7593M  7605U  7932U
              7940M  7999   8005M  8017U  8464U  8472M  8531   8537M  8549U  8852U  8860M  8919   8925M  8937U  9209U
              9217M  9276   9282M  9294U  9621U  9629M  9688   9694M  9706U  9989U  9997M 10056  10062M 10074U 10368U
             10376M 10435  10441M 10453U 10711U 10719M 10778  10784M 10796U 11123U 11131M 11231  11236M 11248U 11406U
             11414M 11466  11472M 11484U 11870U 11878M 11918  11923M 11935U 12208U 12216M 12268  12274M 12286U 12458U
             12466M 12518  12524M 12536U 12711U 12719M 12747  12752M 12764U 12889U 12897M 13006  13012M 13024U 13284U
             13292M 13341  13346M 13358U 13473U 13481M 13748  13753M 13765U 13785U 13793M 13816  13821M 13833U 13849U
             13857M 13880  13885M 13897U 14041U 14049M 14082  14087M 14099U 14211U 14219M 14278  14284M 14296U 14550U
             14558M 14617  14623M 14635U 14882U 14890M 14954  14960M 14972U 15366U 15374M 15446  15452M 15464U 15907U
             15915M 16083  16089M 16101U 16816U 16824M 16854  16859M 16871U 17014U 17022M 17059  17064M 17076U 17227U
             17235M 17272  17277M 17289U 17441U 17449M 17486  17491M 17503U 17674U 17682M 17719  17724M 17736U 17881U
             17889M 17926  17931M 17943U 18088U 18096M 18178  18183M 18195U 18318U 18326M 18518  18523M 18535U 18551U
             18559M 18579  18584M 18596U 18680U 18688M 18708  18713M 18725U 18776U 18784M 18804  18809M 18821U 18941U
             18949M 18986  18991M 19003U 19131U 19139M 19197  19203M 19215U 19252U 19260M 19297  19302M 19314U 19427U
             19435M 19472  19477M 19489U 19585U 19593M 19628  19633M 19645U 19709U 19717M 19756  19761M 19773U 19966U
             19974M 20008  20013M 20025U 20099U 20107M 20145  20150M 20162U 20189U 20197M 20235  20240M 20252U 20279U
             20287M 20323  20328M 20340U 20363U 20371M 20409  20414M 20426U 20462U 20470M 20508  20513M 20525U 20561U
             20569M 20668  20674M 20686U 20843U 20851M 20914  20920M 20932U 21360U 21368M 21438  21444M 21456U 22053U
             22061M 22131  22137M 22149U 22436U 22444M 22573  22579M 22591U 23051U 23059M 23131  23137M 23149U 23386U
             23394M 23471  23477M 23489U 23952U 23960M 24034  24040M 24052U 24354U 24362M 24474  24480M 24492U 24724U
             24732M 24807  24813M 24825U 25241U 25249M 25319  25325M 25337U 25629U 25637M 25718  25724M 25736U 26162U
             26170M 26438  26443M 26455U 26471U 26479M 26502  26507M 26519U 26535U 26543M 26566  26571M 26583U 26602U
             26610M 26633  26638M 26650U 26669U 26677M 26700  26705M 26717U 26736U 26744M 26767  26772M 26784U 26803U
             26811M 26834  26839M 26851U 26870U 26878M 26901  26906M 26918U 26937U 26945M 26968  26973M 26985U 27033U
             27041M 27064  27069M 27081U 27110U 27118M 27141  27146M 27158U 27216U 27224M 27247  27252M 27264U 27311U
             27319M 27342  27347M 27359U 27406U 27414M 27437  27442M 27454U 27501U 27509M 27532  27537M 27549U 27596U
             27604M 27630  27635M 27647U 27723U 27731M 27849  27854M 27866U 28029U 28037M 28067  28072M 28084U 28390U
             28398M 28428  28433M 28445U 28739U 28747M 28777  28782M 28794U 29088U 29096M 29151  29156M 29168U 29347U
             29355M 29445  29451M 29463U 29775U 29783M 29822  29828M 29840U 30228U 30236M 30273  30279M 30291U 30465U
             30473M 30510  30516M 30528U 30702U 30710M 30747  30753M 30765U 30981U 30989M 31026  31032M 31044U 31218U
             31226M 31266  31272M 31284U 31612U 31620M 31660  31665M 31677U 31914U 31922M 31989  31995M 32007U 32071U
             32079M 32145  32151M 32163U 32258U 32266M 32363  32368M 32380U 32494U 32502M 32769  32774M 32786U 32835U
             32843M 32866  32871M 32883U 32899U 32907M 32930  32935M 32947U 33046U 33054M 33093  33098M 33110U 33275U
             33283M 33350  33356M 33368U 33733U 33741M 33813  33818M 33830U 33866U 33874M 33911  33916M 33928U 33964U
             33972M 34009  34014M 34026U 34105U 34113M 34151  34156M 34168U 34221U 34229M 34266  34271M 34283U 34336U
             34344M 34407  34412M 34424U 34468U 34476M 34520  34525M 34537U 34578  34610U 34618M 34660  34665M 34677U
             34719U 34727M 34774  34779M 34791U 34840  34855U 34863M 34947  34953M 34965U 35046U 35054M 35118  35124M
             35136U 35210U 35218M 35283  35289M 35301U 35363U 35371M 35430  35436M 35448U 35531U 35539M 35580  35585M
             35597U 35622U 35630M 35667  35672M 35684U 35814U 35822M 35851  35856M 35868U 35921U 35929M 35955  35960M
             35972U 36026U 36034M 36057  36062M 36074U 36089U 36097M 36116  36121M 36133U 36148U 36156M 36175  36180M
             36192U 36207U 36215M
     8(8)      950U  2099   7477   7478M  7517   7521M  7587   7589M  7619U  7927U  7936   7940M  7999   8001M  8031U
              8459U  8468   8472M  8531   8533M  8563U  8847U  8856   8860M  8919   8921M  8951U  9204U  9213   9217M
              9276   9278M  9308U  9616U  9625   9629M  9688   9690M  9720U  9984U  9993   9997M 10056  10058M 10088U
             10363U 10372  10376M 10435  10437M 10467U 10706U 10715  10719M 10778  10780M 10810U 11118U 11127  11131M
             11231  11232M 11410  11414M 11466  11468M 11498U 11865U 11874  11878M 11918  11919M 12212  12216M 12268
             12270M 12300U 12453U 12462  12466M 12518  12520M 12550U 12706U 12715  12719M 12747  12748M 12893  12897M
             13006  13008M 13038U 13279U 13288  13292M 13341  13342M 13477  13481M 13748  13749M 13789  13793M 13816
             13817M 13853  13857M 13880  13881M 14045  14049M 14082  14083M 14215  14219M 14278  14280M 14310U 14538N
             14545U 14554  14558M 14617  14619M 14649U 14870N 14877U 14886  14890M 14954  14956M 14986U 15361U 15370
1         (FLOW2025) (12:45) (15MAR04) General Purpose Register Cross Reference                                             Page  271
             15374M 15446  15448M 15478U 15902U 15911  15915M 16083  16085M 16115U 16811U 16820  16824M 16854  16855M
             17018  17022M 17059  17060M 17231  17235M 17272  17273M 17445  17449M 17486  17487M 17678  17682M 17719
             17720M 17885  17889M 17926  17927M 18092  18096M 18178  18179M 18322  18326M 18518  18519M 18555  18559M
             18579  18580M 18684  18688M 18708  18709M 18780  18784M 18804  18805M 18945  18949M 18986  18987M 19135
             19139M 19197  19199M 19229U 19247U 19256  19260M 19297  19298M 19431  19435M 19472  19473M 19589  19593M
             19628  19629M 19702  19713  19717M 19756  19757M 19970  19974M 20008  20009M 20103  20107M 20145  20146M
             20182N 20193  20197M 20235  20236M 20272N 20283  20287M 20323  20324M 20367  20371M 20409  20410M 20455N
             20466  20470M 20508  20509M 20554N 20565  20569M 20668  20670M 20700U 20838U 20847  20851M 20914  20916M
             20946U 21355U 21364  21368M 21438  21440M 21470U 22048U 22057  22061M 22131  22133M 22163U 22431U 22440
             22444M 22573  22575M 22605U 23046U 23055  23059M 23131  23133M 23163U 23381U 23390  23394M 23471  23473M
             23503U 23947U 23956  23960M 24034  24036M 24066U 24349U 24358  24362M 24474  24476M 24506U 24719U 24728
             24732M 24807  24809M 24839U 25236U 25245  25249M 25319  25321M 25351U 25617  25624U 25633  25637M 25718
             25720M 25750U 26157U 26166  26170M 26438  26439M 26475  26479M 26502  26503M 26539  26543M 26566  26567M
             26594N 26606  26610M 26633  26634M 26661N 26673  26677M 26700  26701M 26728N 26740  26744M 26767  26768M
             26795N 26807  26811M 26834  26835M 26862N 26874  26878M 26901  26902M 26929N 26941  26945M 26968  26969M
             27037  27041M 27064  27065M 27114  27118M 27141  27142M 27220  27224M 27247  27248M 27315  27319M 27342
             27343M 27410  27414M 27437  27438M 27505  27509M 27532  27533M 27600  27604M 27630  27631M 27727  27731M
             27849  27850M 28022  28033  28037M 28067  28068M 28379  28394  28398M 28428  28429M 28728  28743  28747M
             28777  28778M 29077  29092  29096M 29151  29152M 29351  29355M 29445  29447M 29477U 29770U 29779  29783M
             29822  29824M 29854U 30223U 30232  30236M 30273  30275M 30305U 30460U 30469  30473M 30510  30512M 30542U
             30697U 30706  30710M 30747  30749M 30779U 30976U 30985  30989M 31026  31028M 31058U 31213U 31222  31226M
             31266  31268M 31298U 31607U 31616  31620M 31660  31661M 31918  31922M 31989  31991M 32021U 32066U 32075
             32079M 32145  32147M 32177U 32253U 32262  32266M 32363  32364M 32498  32502M 32769  32770M 32839  32843M
             32866  32867M 32903  32907M 32930  32931M 33050  33054M 33093  33094M 33268  33279  33283M 33350  33352M
             33382U 33721  33728U 33737  33741M 33813  33814M 33859N 33870  33874M 33911  33912M 33957N 33968  33972M
             34009  34010M 34098N 34109  34113M 34151  34152M 34214N 34225  34229M 34266  34267M 34329  34340  34344M
             34407  34408M 34472  34476M 34520  34521M 34578  34614  34618M 34660  34661M 34723  34727M 34774  34775M
             34840  34859  34863M 34947  34949M 34979U 35034  35041U 35050  35054M 35118  35120M 35150U 35198  35205U
             35214  35218M 35283  35285M 35315U 35358U 35367  35371M 35430  35432M 35462U 35526U 35535  35539M 35580
             35581M 35626  35630M 35667  35668M 35818  35822M 35851  35852M 35925  35929M 35955  35956M 36030  36034M
             36057  36058M 36093  36097M 36116  36117M 36152  36156M 36175  36176M 36211  36215M
     9(9)      946U  2099  34578  34840
    10(A)      942U  2099  34578  34840
    11(B)      938U  1163U  2099  34578  34840
    12(C)      934U  1172U  2099  34578  34840
    13(D)      930U  2099   7474   7477   7478   7479M  7479   7517M  7521   7523   7584   7587   7589   7590M  7590
              7936M  7940   7942   7996   7999   8001   8002M  8002   8050   8052M  8052   8063   8064   8065   8067M
              8067   8079M  8080   8081   8082   8093M  8468M  8472   8474   8528   8531   8533   8534M  8534   8856M
              8860   8862   8916   8919   8921   8922M  8922   9213M  9217   9219   9273   9276   9278   9279M  9279
              9625M  9629   9631   9685   9688   9690   9691M  9691   9993M  9997   9999  10053  10056  10058  10059M
             10059  10372M 10376  10378  10432  10435  10437  10438M 10438  10715M 10719  10721  10775  10778  10780
             10781M 10781  11127M 11131  11133  11228  11231  11232  11233M 11233  11410M 11414  11416  11463  11466
             11468  11469M 11469  11874M 11878  11880  11915  11918  11919  11920M 11920  12072  12073  12074  12076M
             12076  12088M 12089  12090  12091  12212M 12216  12218  12265  12268  12270  12271M 12271  12462M 12466
             12468  12515  12518  12520  12521M 12521  12715M 12719  12721  12744  12747  12748  12749M 12749  12893M
             12897  12899  13003  13006  13008  13009M 13009  13067  13068  13069  13071M 13071  13083M 13084  13085
             13086  13288M 13292  13294  13338  13341  13342  13343M 13343  13372  13374M 13374  13385  13386  13387
             13389M 13389  13402M 13403  13404  13405  13465M 13477M 13481  13483  13745  13748  13749  13750M 13750
             13789M 13793  13795  13813  13816  13817  13818M 13818  13853M 13857  13859  13877  13880  13881  13882M
             13882  14045M 14049  14051  14079  14082  14083  14084M 14084  14118  14119  14120  14122M 14122  14134M
             14135  14136  14137  14215M 14219  14221  14275  14278  14280  14281M 14281  14554M 14558  14560  14614
             14617  14619  14620M 14620  14886M 14890  14892  14951  14954  14956  14957M 14957  15163  15164  15165
             15167M 15167  15179M 15180  15181  15182  15269  15270  15271  15273M 15273  15285M 15286  15287  15288
             15370M 15374  15376  15443  15446  15448  15449M 15449  15664  15665  15666  15668M 15668  15680M 15681
             15682  15683  15777  15778  15779  15781M 15781  15793M 15794  15795  15796  15911M 15915  15917  16080
             16083  16085  16086M 16086  16820M 16824  16826  16851  16854  16855  16856M 16856  17018M 17022  17024
             17056  17059  17060  17061M 17061  17231M 17235  17237  17269  17272  17273  17274M 17274  17445M 17449
             17451  17483  17486  17487  17488M 17488  17678M 17682  17684  17716  17719  17720  17721M 17721  17885M
             17889  17891  17923  17926  17927  17928M 17928  18092M 18096  18098  18175  18178  18179  18180M 18180
1         (FLOW2025) (12:45) (15MAR04) General Purpose Register Cross Reference                                             Page  272
             18236  18237  18238  18240M 18240  18253M 18254  18255  18256  18322M 18326  18328  18515  18518  18519
             18520M 18520  18555M 18559  18561  18576  18579  18580  18581M 18581  18684M 18688  18690  18705  18708
             18709  18710M 18710  18780M 18784  18786  18801  18804  18805  18806M 18806  18840  18841  18842  18844M
             18844  18856M 18857  18858  18859  18945M 18949  18951  18983  18986  18987  18988M 18988  19044  19045
             19046  19048M 19048  19060M 19061  19062  19063  19135M 19139  19141  19194  19197  19199  19200M 19200
             19256M 19260  19262  19294  19297  19298  19299M 19299  19431M 19435  19437  19469  19472  19473  19474M
             19474  19589M 19593  19595  19625  19628  19629  19630M 19630  19713M 19717  19719  19753  19756  19757
             19758M 19758  19970M 19974  19976  20005  20008  20009  20010M 20010  20103M 20107  20109  20142  20145
             20146  20147M 20147  20193M 20197  20199  20232  20235  20236  20237M 20237  20283M 20287  20289  20320
             20323  20324  20325M 20325  20367M 20371  20373  20406  20409  20410  20411M 20411  20466M 20470  20472
             20505  20508  20509  20510M 20510  20565M 20569  20571  20665  20668  20670  20671M 20671  20847M 20851
             20853  20911  20914  20916  20917M 20917  21034  21035  21036  21038M 21038  21050M 21051  21052  21053
             21102  21103  21104  21106M 21106  21118M 21119  21120  21121  21230  21231  21232  21234M 21234  21246M
             21247  21248  21249  21364M 21368  21370  21435  21438  21440  21441M 21441  21559  21560  21561  21563M
             21563  21575M 21576  21577  21578  21725  21726  21727  21729M 21729  21741M 21742  21743  21744  21855
             21856  21857  21859M 21859  21871M 21872  21873  21874  22057M 22061  22063  22128  22131  22133  22134M
             22134  22440M 22444  22446  22570  22573  22575  22576M 22576  23055M 23059  23061  23128  23131  23133
             23134M 23134  23390M 23394  23396  23468  23471  23473  23474M 23474  23956M 23960  23962  24031  24034
             24036  24037M 24037  24358M 24362  24364  24471  24474  24476  24477M 24477  24728M 24732  24734  24804
             24807  24809  24810M 24810  25245M 25249  25251  25316  25319  25321  25322M 25322  25633M 25637  25639
             25715  25718  25720  25721M 25721  25828  25829  25830  25832M 25832  25845M 25846  25847  25848  26166M
             26170  26172  26435  26438  26439  26440M 26440  26475M 26479  26481  26499  26502  26503  26504M 26504
             26539M 26543  26545  26563  26566  26567  26568M 26568  26606M 26610  26612  26630  26633  26634  26635M
             26635  26673M 26677  26679  26697  26700  26701  26702M 26702  26740M 26744  26746  26764  26767  26768
             26769M 26769  26807M 26811  26813  26831  26834  26835  26836M 26836  26874M 26878  26880  26898  26901
             26902  26903M 26903  26941M 26945  26947  26965  26968  26969  26970M 26970  27037M 27041  27043  27061
             27064  27065  27066M 27066  27114M 27118  27120  27138  27141  27142  27143M 27143  27220M 27224  27226
             27244  27247  27248  27249M 27249  27315M 27319  27321  27339  27342  27343  27344M 27344  27410M 27414
             27416  27434  27437  27438  27439M 27439  27505M 27509  27511  27529  27532  27533  27534M 27534  27600M
             27604  27606  27627  27630  27631  27632M 27632  27727M 27731  27733  27846  27849  27850  27851M 27851
             28033M 28037  28039  28064  28067  28068  28069M 28069  28394M 28398  28400  28425  28428  28429  28430M
             28430  28743M 28747  28749  28774  28777  28778  28779M 28779  29092M 29096  29098  29148  29151  29152
             29153M 29153  29218  29219  29220  29222M 29222  29234M 29235  29236  29237  29297  29298  29299  29301M
             29301  29313M 29314  29315  29316  29351M 29355  29357  29442  29445  29447  29448M 29448  29539  29540M
             29540  29585  29586  29587  29589M 29589  29601M 29602  29603  29604  29654M 29655  29688  29689  29690
             29692M 29692  29704M 29705  29706  29707  29779M 29783  29785  29819  29822  29824  29825M 29825  29937
             29938M 29938  29983  29984  29985  29987M 29987  29999M 30000  30001  30002  30052M 30053  30086  30087
             30088  30090M 30090  30102M 30103  30104  30105  30232M 30236  30238  30270  30273  30275  30276M 30276
             30469M 30473  30475  30507  30510  30512  30513M 30513  30706M 30710  30712  30744  30747  30749  30750M
             30750  30985M 30989  30991  31023  31026  31028  31029M 31029  31222M 31226  31228  31263  31266  31268
             31269M 31269  31616M 31620  31622  31657  31660  31661  31662M 31662  31717  31718  31719  31721M 31721
             31733M 31734  31735  31736  31918M 31922  31924  31986  31989  31991  31992M 31992  32075M 32079  32081
             32142  32145  32147  32148M 32148  32262M 32266  32268  32360  32363  32364  32365M 32365  32402  32403
             32404  32406M 32406  32419M 32420  32421  32422  32498M 32502  32504  32766  32769  32770  32771M 32771
             32839M 32843  32845  32863  32866  32867  32868M 32868  32903M 32907  32909  32927  32930  32931  32932M
             32932  33050M 33054  33056  33090  33093  33094  33095M 33095  33150  33151  33152  33154M 33154  33166M
             33167  33168  33169  33219  33220  33221  33223M 33223  33235M 33236  33237  33238  33279M 33283  33285
             33347  33350  33352  33353M 33353  33431  33432  33433  33435M 33435  33447M 33448  33449  33450  33680
             33681  33682  33684M 33684  33696M 33697  33698  33699  33737M 33741  33743  33810  33813  33814  33815M
             33815  33870M 33874  33876  33908  33911  33912  33913M 33913  33968M 33972  33974  34006  34009  34010
             34011M 34011  34109M 34113  34115  34148  34151  34152  34153M 34153  34225M 34229  34231  34263  34266
             34267  34268M 34268  34340M 34344  34346  34404  34407  34408  34409M 34409  34472M 34476  34478  34517
             34520  34521  34522M 34522  34578  34614M 34618  34620  34657  34660  34661  34662M 34662  34723M 34727
             34729  34771  34774  34775  34776M 34776  34840  34859M 34863  34865  34944  34947  34949  34950M 34950
             35050M 35054  35056  35115  35118  35120  35121M 35121  35214M 35218  35220  35280  35283  35285  35286M
             35286  35367M 35371  35373  35427  35430  35432  35433M 35433  35535M 35539  35541  35577  35580  35581
             35582M 35582  35626M 35630  35632  35664  35667  35668  35669M 35669  35818M 35822  35824  35848  35851
             35852  35853M 35853  35878  35879M 35879  35899M 35900  35925M 35929  35931  35952  35955  35956  35957M
             35957  36030M 36034  36036  36054  36057  36058  36059M 36059  36093M 36097  36099  36113  36116  36117
1         (FLOW2025) (12:45) (15MAR04) General Purpose Register Cross Reference                                             Page  273
             36118M 36118  36152M 36156  36158  36172  36175  36176  36177M 36177  36211M 36215  36217
    14(E)      926U  2099   2100M  2114   2115M  2116B  2118M  2119B  2139M  2140B  2144M  2145B  2147M  2148B  2150M
              2151B  2153M  2154B  2156M  2157M  2157B  2163   7474   7523M  7526B  7584   7666M  7667M  7667B  7712M
              7713M  7713B  7766M  7767M  7767B  7795M  7796M  7796B  7833M  7834M  7834B  7854M  7855M  7855B  7877M
              7878N  7879N  7883M  7883   7886M  7887M  7887B  7942M  7945B  7996   8049M  8050   8062M  8063   8064
              8065   8073M  8074M  8074B  8077M  8080   8081   8082   8087M  8088M  8088B  8091M  8094   8126M  8127M
              8127B  8170M  8171M  8171B  8176M  8177M  8177B  8210M  8211N  8212N  8216M  8216   8219M  8220M  8220B
              8298M  8299M  8299B  8327M  8328M  8328B  8365M  8366M  8366B  8386M  8387M  8387B  8409M  8410N  8411N
              8415M  8415   8418M  8419M  8419B  8474M  8477B  8528   8579M  8580N  8581N  8585M  8585   8589M  8590M
              8590B  8673M  8674M  8674B  8862M  8865B  8916   9025M  9026N  9027N  9031M  9031   9034M  9035M  9035B
              9086M  9087M  9087B  9115M  9116M  9116B  9154M  9155M  9155B  9177M  9178N  9179N  9183M  9183   9186M
              9187M  9187B  9219M  9222B  9273   9355M  9356M  9356B  9401M  9402M  9402B  9455M  9456M  9456B  9484M
              9485M  9485B  9522M  9523M  9523B  9543M  9544M  9544B  9566M  9567N  9568N  9572M  9572   9575M  9576M
              9576B  9631M  9634B  9685   9767M  9768M  9768B  9813M  9814M  9814B  9867M  9868M  9868B  9896M  9897M
              9897B  9934M  9935M  9935B  9957M  9958N  9959N  9963M  9963   9966M  9967M  9967B  9999M 10002B 10053
             10135M 10136M 10136B 10181M 10182M 10182B 10235M 10236M 10236B 10264M 10265M 10265B 10302M 10303M 10303B
             10323M 10324M 10324B 10346M 10347M 10347B 10378M 10381B 10432  10514M 10515M 10515B 10560M 10561M 10561B
             10614M 10615M 10615B 10643M 10644M 10644B 10681M 10682M 10682B 10687M 10688M 10688B 10721M 10724B 10775
             10857M 10858M 10858B 10903M 10904M 10904B 10957M 10958M 10958B 10986M 10987M 10987B 11024M 11025M 11025B
             11045M 11046M 11046B 11068M 11069N 11070N 11074M 11074  11077M 11078M 11078B 11133M 11136B 11228  11290M
             11291M 11291B 11336M 11337M 11337B 11388M 11389M 11389B 11416M 11419B 11463  11535M 11536M 11536B 11567M
             11568M 11568B 11603M 11604M 11604B 11619M 11620M 11620B 11648M 11649M 11649B 11762M 11763N 11764N 11768M
             11768  11771M 11772M 11772B 11814M 11815N 11816N 11820M 11820  11823M 11824M 11824B 11880M 11883B 11915
             11977M 11978M 11978B 11994M 11995N 11996N 12000M 12000  12003M 12004M 12004B 12038M 12039M 12039B 12071M
             12072  12073  12074  12082M 12083M 12083B 12086M 12089  12090  12091  12096M 12097M 12097B 12120M 12121M
             12121B 12140M 12141M 12141B 12198M 12199M 12199B 12218M 12221B 12265  12347M 12348M 12348B 12393M 12394M
             12394B 12437M 12438M 12438B 12442M 12443M 12443B 12468M 12471B 12515  12590M 12591M 12591B 12636M 12637M
             12637B 12680M 12681M 12681B 12685M 12686M 12686B 12693M 12694M 12694B 12721M 12724B 12744  12829M 12830N
             12831N 12835M 12835  12838M 12839M 12839B 12899M 12902B 13003  13066M 13067  13068  13069  13077M 13078M
             13078B 13081M 13084  13085  13086  13091M 13092M 13092B 13111M 13112M 13112B 13144M 13145M 13145B 13181M
             13182M 13182B 13204M 13205M 13205B 13294M 13297B 13338  13371M 13372  13384M 13385  13386  13387  13392M
             13393  13396M 13397M 13397B 13400M 13403  13404  13405  13410M 13411M 13411B 13463M 13466  13483M 13486B
             13745  13776M 13777M 13777B 13795M 13798B 13813  13859M 13862B 13877  13909M 13910N 13925N 13940N 13941N
             13942  13942  13943N 13944N 13957N 13961M 13961  13964M 13965M 13965B 14022M 14023M 14023B 14051M 14054B
             14079  14117M 14118  14119  14120  14128M 14129M 14129B 14132M 14135  14136  14137  14142M 14143M 14143B
             14180M 14181M 14181B 14198M 14199M 14199B 14221M 14224B 14275  14336M 14337M 14337B 14343M 14344M 14344B
             14384M 14385M 14385B 14440M 14441M 14441B 14517M 14518M 14518B 14560M 14563B 14614  14668M 14669M 14669B
             14675M 14676M 14676B 14716M 14717M 14717B 14772M 14773M 14773B 14849M 14850M 14850B 14892M 14895B 14951
             15005M 15006N 15007N 15011M 15011  15022M 15023M 15023B 15146M 15147N 15148N 15152M 15152  15162M 15163
             15164  15165  15173M 15174M 15174B 15177M 15180  15181  15182  15187M 15188M 15188B 15211M 15212M 15212B
             15252M 15253N 15254N 15258M 15258  15268M 15269  15270  15271  15279M 15280M 15280B 15283M 15286  15287
             15288  15293M 15294M 15294B 15317M 15318M 15318B 15344M 15345N 15346N 15350M 15350  15376M 15379B 15443
             15494M 15495N 15496N 15500M 15500  15511M 15512M 15512B 15600M 15601M 15601B 15647M 15648N 15649N 15653M
             15653  15663M 15664  15665  15666  15674M 15675M 15675B 15678M 15681  15682  15683  15707M 15708M 15708B
             15725M 15726M 15726B 15760M 15761N 15762N 15766M 15766  15776M 15777  15778  15779  15787M 15788M 15788B
             15791M 15794  15795  15796  15801M 15802M 15802B 15825M 15826M 15826B 15843M 15844M 15844B 15879M 15880N
             15881N 15885M 15885  15917M 15920B 16080  16282M 16283M 16283B 16312M 16313M 16313B 16358M 16359M 16359B
             16368M 16369M 16369B 16392M 16393M 16393B 16402M 16403M 16403B 16422M 16423M 16423B 16433M 16434M 16434B
             16477M 16478M 16478B 16487M 16488M 16488B 16514M 16515M 16515B 16524M 16525M 16525B 16551M 16552M 16552B
             16561M 16562M 16562B 16588M 16589M 16589B 16598M 16599M 16599B 16621M 16622M 16622B 16635M 16636M 16636B
             16664M 16665M 16665B 16710M 16711M 16711B 16720M 16721M 16721B 16744M 16745M 16745B 16754M 16755M 16755B
             16774M 16775M 16775B 16785M 16786M 16786B 16826M 16829B 16851  16911M 16912M 16912B 16922M 16923M 16923B
             16929M 16930M 16930B 16952M 16953M 16953B 16973M 16974M 16974B 16989M 16990M 16990B 16997M 16998M 16998B
             17024M 17027B 17056  17116M 17117M 17117B 17127M 17128M 17128B 17134M 17135M 17135B 17158M 17159M 17159B
             17179M 17180M 17180B 17195M 17196M 17196B 17203M 17204M 17204B 17237M 17240B 17269  17329M 17330M 17330B
             17342M 17343M 17343B 17349M 17350M 17350B 17372M 17373M 17373B 17393M 17394M 17394B 17409M 17410M 17410B
             17417M 17418M 17418B 17451M 17454B 17483  17543M 17544M 17544B 17582M 17583M 17583B 17589M 17590M 17590B
             17612M 17613M 17613B 17633M 17634M 17634B 17649M 17650M 17650B 17657M 17658M 17658B 17684M 17687B 17716
             17776M 17777M 17777B 17789M 17790M 17790B 17796M 17797M 17797B 17819M 17820M 17820B 17840M 17841M 17841B
1         (FLOW2025) (12:45) (15MAR04) General Purpose Register Cross Reference                                             Page  274
             17856M 17857M 17857B 17864M 17865M 17865B 17891M 17894B 17923  17983M 17984M 17984B 17996M 17997M 17997B
             18003M 18004M 18004B 18026M 18027M 18027B 18047M 18048M 18048B 18063M 18064M 18064B 18071M 18072M 18072B
             18098M 18101B 18175  18219M 18220N 18221N 18225M 18225  18235M 18236  18237  18238  18243M 18244  18247M
             18248M 18248B 18251M 18254  18255  18256  18261M 18262M 18262B 18328M 18331B 18515  18561M 18564B 18576
             18607M 18608N 18609N 18613M 18613  18616M 18617M 18617B 18631M 18632N 18633N 18637M 18637  18640M 18641M
             18641B 18690M 18693B 18705  18736M 18737M 18737B 18786M 18789B 18801  18839M 18840  18841  18842  18850M
             18851M 18851B 18854M 18857  18858  18859  18864M 18865M 18865B 18868M 18869N 18870N 18874M 18874  18877M
             18878M 18878B 18892M 18893N 18894N 18898M 18898  18901M 18902M 18902B 18951M 18954B 18983  19027M 19028N
             19029N 19033M 19033  19043M 19044  19045  19046  19054M 19055M 19055B 19058M 19061  19062  19063  19141M
             19144B 19194  19238M 19239M 19239B 19262M 19265B 19294  19437M 19440B 19469  19595M 19598B 19625  19719M
             19722B 19753  19817M 19818M 19818B 19822M 19823M 19823B 19852M 19853M 19853B 19897M 19898M 19898B 19902M
             19903M 19903B 19932M 19933M 19933B 19950M 19976M 19979B 20005  20109M 20112B 20142  20178M 20179M 20179B
             20199M 20202B 20232  20268M 20269M 20269B 20289M 20292B 20320  20354M 20355M 20355B 20373M 20376B 20406
             20441M 20442M 20442B 20451M 20452M 20452B 20472M 20475B 20505  20540M 20541M 20541B 20550M 20551M 20551B
             20571M 20574B 20665  20717M 20718M 20718B 20723M 20724M 20724B 20731M 20732M 20732B 20751M 20752M 20752B
             20755M 20756M 20756B 20774M 20775M 20775B 20778M 20779M 20779B 20815M 20816M 20816B 20821M 20822M 20822B
             20853M 20856B 20911  20985M 20986M 20986B 21017M 21018N 21019N 21023M 21023  21033M 21034  21035  21036
             21044M 21045M 21045B 21048M 21051  21052  21053  21058M 21059M 21059B 21101M 21102  21103  21104  21112M
             21113M 21113B 21116M 21119  21120  21121  21126M 21127M 21127B 21169M 21170M 21170B 21178M 21179M 21179B
             21203M 21204M 21204B 21216M 21217M 21217B 21229M 21230  21231  21232  21240M 21241M 21241B 21244M 21247
             21248  21249  21254M 21255M 21255B 21288M 21289M 21289B 21300M 21301M 21301B 21310M 21311M 21311B 21342M
             21343M 21343B 21370M 21373B 21435  21510M 21511M 21511B 21542M 21543N 21544N 21548M 21548  21558M 21559
             21560  21561  21569M 21570M 21570B 21573M 21576  21577  21578  21583M 21584M 21584B 21616M 21617M 21617B
             21641M 21642M 21642B 21652M 21653M 21653B 21693M 21694M 21694B 21707M 21708M 21708B 21724M 21725  21726
             21727  21735M 21736M 21736B 21739M 21742  21743  21744  21749M 21750M 21750B 21792M 21793M 21793B 21801M
             21802M 21802B 21826M 21827M 21827B 21841M 21842M 21842B 21854M 21855  21856  21857  21865M 21866M 21866B
             21869M 21872  21873  21874  21879M 21880M 21880B 21913M 21914M 21914B 21925M 21926M 21926B 21934M 21935M
             21935B 21975M 21976M 21976B 21989M 21990M 21990B 22003M 22004M 22004B 22035M 22036M 22036B 22063M 22066B
             22128  22183M 22184M 22184B 22189M 22190M 22190B 22221M 22222M 22222B 22246M 22247M 22247B 22267M 22268N
             22269N 22273M 22273  22276M 22277M 22277B 22299M 22300M 22300B 22306M 22307M 22307B 22332M 22333M 22333B
             22362M 22363M 22363B 22388M 22389M 22389B 22414M 22415M 22415B 22446M 22449B 22570  22625M 22626M 22626B
             22631M 22632M 22632B 22663M 22664M 22664B 22688M 22689M 22689B 22709M 22710N 22711N 22715M 22715  22718M
             22719M 22719B 22744M 22745M 22745B 22751M 22752M 22752B 22765M 22766M 22766B 22774M 22775M 22775B 22778M
             22779M 22779B 22803M 22804M 22804B 22812M 22813M 22813B 22816M 22817M 22817B 22862M 22863M 22863B 22892M
             22893M 22893B 22918M 22919M 22919B 22932M 22933M 22933B 22941M 22942M 22942B 22945M 22946M 22946B 22970M
             22971M 22971B 22979M 22980M 22980B 22983M 22984M 22984B 23029M 23030M 23030B 23061M 23064B 23128  23183M
             23184M 23184B 23189M 23190M 23190B 23195M 23196M 23196B 23238M 23239N 23240N 23244M 23244  23247M 23248M
             23248B 23270M 23271M 23271B 23294M 23295M 23295B 23323M 23324M 23324B 23364M 23365M 23365B 23396M 23399B
             23468  23523M 23524M 23524B 23529M 23530M 23530B 23535M 23536M 23536B 23567M 23568M 23568B 23592M 23593M
             23593B 23613M 23614N 23615N 23619M 23619  23622M 23623M 23623B 23645M 23646M 23646B 23652M 23653M 23653B
             23666M 23667M 23667B 23675M 23676M 23676B 23679M 23680M 23680B 23704M 23705M 23705B 23713M 23714M 23714B
             23717M 23718M 23718B 23763M 23764M 23764B 23793M 23794M 23794B 23819M 23820M 23820B 23833M 23834M 23834B
             23842M 23843M 23843B 23846M 23847M 23847B 23871M 23872M 23872B 23880M 23881M 23881B 23884M 23885M 23885B
             23930M 23931M 23931B 23962M 23965B 24031  24086M 24087M 24087B 24092M 24093M 24093B 24135M 24136N 24137N
             24141M 24141  24144M 24145M 24145B 24170M 24171M 24171B 24179M 24180M 24180B 24203M 24204M 24204B 24232M
             24233M 24233B 24257M 24258M 24258B 24283M 24284M 24284B 24307M 24308M 24308B 24332M 24333M 24333B 24364M
             24367B 24471  24526M 24527M 24527B 24532M 24533M 24533B 24575M 24576N 24577N 24581M 24581  24584M 24585M
             24585B 24609M 24610M 24610B 24623M 24624M 24624B 24640M 24641M 24641B 24653M 24654M 24654B 24677M 24678M
             24678B 24706M 24707M 24707B 24734M 24737B 24804  24859M 24860M 24860B 24865M 24866M 24866B 24871M 24872M
             24872B 24903M 24904M 24904B 24928M 24929M 24929B 24949M 24950N 24951N 24955M 24955  24958M 24959M 24959B
             24981M 24982M 24982B 24988M 24989M 24989B 24995M 24996M 24996B 25013M 25014M 25014B 25017M 25018M 25018B
             25075M 25076M 25076B 25105M 25106M 25106B 25131M 25132M 25132B 25139M 25140M 25140B 25157M 25158M 25158B
             25161M 25162M 25162B 25219M 25220M 25220B 25251M 25254B 25316  25371M 25372M 25372B 25393M 25394M 25394B
             25418M 25419M 25419B 25427M 25428M 25428B 25468M 25469M 25469B 25482M 25483M 25483B 25507M 25508M 25508B
             25560M 25561M 25561B 25574M 25575M 25575B 25639M 25642B 25715  25775M 25776M 25776B 25792M 25793M 25793B
             25807M 25808N 25809N 25813M 25813  25827M 25828  25829  25830  25835M 25836  25839M 25840M 25840B 25843M
             25846  25847  25848  25913M 25914M 25914B 25948M 25949M 25949B 25983M 25984M 25984B 26018M 26019M 26019B
             26053M 26054M 26054B 26088M 26089M 26089B 26106M 26107M 26107B 26117M 26118M 26118B 26131M 26132M 26132B
             26172M 26175B 26435  26481M 26484B 26499  26545M 26548B 26563  26612M 26615B 26630  26679M 26682B 26697
1         (FLOW2025) (12:45) (15MAR04) General Purpose Register Cross Reference                                             Page  275
             26746M 26749B 26764  26813M 26816B 26831  26880M 26883B 26898  26947M 26950B 26965  27011M 27012M 27012B
             27025M 27026M 27026B 27043M 27046B 27061  27102M 27103M 27103B 27120M 27123B 27138  27169M 27170M 27170B
             27187M 27188M 27188B 27194M 27195M 27195B 27208M 27209M 27209B 27226M 27229B 27244  27289M 27290M 27290B
             27303M 27304M 27304B 27321M 27324B 27339  27384M 27385M 27385B 27398M 27399M 27399B 27416M 27419B 27434
             27479M 27480M 27480B 27493M 27494M 27494B 27511M 27514B 27529  27574M 27575M 27575B 27588M 27589M 27589B
             27606M 27609B 27627  27672M 27673M 27673B 27690M 27691M 27691B 27697M 27698M 27698B 27715M 27716M 27716B
             27733M 27736B 27846  27971M 27972M 27972B 27989M 27990M 27990B 28003M 28004M 28004B 28014M 28015M 28015B
             28039M 28042B 28064  28184M 28185M 28185B 28224M 28225M 28225B 28228M 28229M 28229B 28268M 28269M 28269B
             28272M 28273M 28273B 28312M 28313M 28313B 28316M 28317M 28317B 28400M 28403B 28425  28545M 28546M 28546B
             28621M 28622M 28622B 28661M 28662M 28662B 28701M 28702M 28702B 28749M 28752B 28774  28894M 28895M 28895B
             28934M 28935M 28935B 29010M 29011M 29011B 29050M 29051M 29051B 29098M 29101B 29148  29183M 29184M 29184B
             29201M 29202N 29203N 29207M 29207  29217M 29218  29219  29220  29228M 29229M 29229B 29232M 29235  29236
             29237  29242M 29243M 29243B 29264M 29265M 29265B 29280M 29281N 29282N 29286M 29286  29296M 29297  29298
             29299  29307M 29308M 29308B 29311M 29314  29315  29316  29321M 29322M 29322B 29357M 29360B 29442  29492M
             29493M 29493B 29511M 29512M 29512B 29536M 29537M 29537B 29568M 29569N 29570N 29574M 29574  29584M 29585
             29586  29587  29595M 29596M 29596B 29599M 29602  29603  29604  29609M 29610M 29610B 29643M 29644M 29644B
             29671M 29672N 29673N 29677M 29677  29687M 29688  29689  29690  29698M 29699M 29699B 29702M 29705  29706
             29707  29712M 29713M 29713B 29785M 29788B 29819  29865M 29866M 29866B 29883M 29884M 29884B 29909M 29910M
             29910B 29934M 29935M 29935B 29966M 29967N 29968N 29972M 29972  29982M 29983  29984  29985  29993M 29994M
             29994B 29997M 30000  30001  30002  30007M 30008M 30008B 30041M 30042M 30042B 30069M 30070N 30071N 30075M
             30075  30085M 30086  30087  30088  30096M 30097M 30097B 30100M 30103  30104  30105  30110M 30111M 30111B
             30173M 30174M 30174B 30191M 30192M 30192B 30205M 30206M 30206B 30238M 30241B 30270  30315M 30316M 30316B
             30333M 30334M 30334B 30359M 30360M 30360B 30380M 30381M 30381B 30425M 30426M 30426B 30475M 30478B 30507
             30552M 30553M 30553B 30570M 30571M 30571B 30596M 30597M 30597B 30617M 30618M 30618B 30662M 30663M 30663B
             30712M 30715B 30744  30789M 30790M 30790B 30807M 30808M 30808B 30833M 30834M 30834B 30854M 30855M 30855B
             30892M 30893M 30893B 30906M 30907M 30907B 30945M 30946M 30946B 30959M 30960M 30960B 30991M 30994B 31023
             31068M 31069M 31069B 31086M 31087M 31087B 31112M 31113M 31113B 31133M 31134M 31134B 31178M 31179M 31179B
             31228M 31231B 31263  31309M 31310M 31310B 31327M 31328M 31328B 31353M 31354M 31354B 31374M 31375M 31375B
             31412M 31413M 31413B 31430M 31431M 31431B 31437M 31438M 31438B 31455M 31456M 31456B 31473M 31474M 31474B
             31480M 31481M 31481B 31494M 31495M 31495B 31533M 31534M 31534B 31551M 31552M 31552B 31558M 31559M 31559B
             31576M 31577M 31577B 31590M 31591M 31591B 31622M 31625B 31657  31700M 31701N 31702N 31706M 31706  31716M
             31717  31718  31719  31727M 31728M 31728B 31731M 31734  31735  31736  31741M 31742M 31742B 31800M 31801N
             31802N 31806M 31806  31829M 31830M 31830B 31847M 31848M 31848B 31865M 31866M 31866B 31901M 31902M 31902B
             31924M 31927B 31986  32054M 32055M 32055B 32081M 32084B 32142  32206M 32207M 32207B 32268M 32271B 32360
             32401M 32402  32403  32404  32409M 32410  32413M 32414M 32414B 32417M 32420  32421  32422  32504M 32507B
             32766  32797M 32798M 32798B 32822M 32823M 32823B 32845M 32848B 32863  32909M 32912B 32927  32958M 32959N
             32960N 32964M 32964  32987M 32988M 32988B 33005M 33006M 33006B 33023M 33024M 33024B 33037M 33038M 33038B
             33056M 33059B 33090  33133M 33134N 33135N 33139M 33139  33149M 33150  33151  33152  33160M 33161M 33161B
             33164M 33167  33168  33169  33174M 33175M 33175B 33218M 33219  33220  33221  33229M 33230M 33230B 33233M
             33236  33237  33238  33243M 33244M 33244B 33256M 33257N 33258N 33262M 33262  33285M 33288B 33347  33414M
             33415N 33416N 33420M 33420  33430M 33431  33432  33433  33441M 33442M 33442B 33445M 33448  33449  33450
             33455M 33456M 33456B 33540M 33541M 33541B 33663M 33664N 33665N 33669M 33669  33679M 33680  33681  33682
             33690M 33691M 33691B 33694M 33697  33698  33699  33704M 33705M 33705B 33743M 33746B 33810  33845M 33846M
             33846B 33855M 33856M 33856B 33876M 33879B 33908  33943M 33944M 33944B 33953M 33954M 33954B 33974M 33977B
             34006  34043M 34044M 34044B 34053M 34054M 34054B 34072M 34073M 34073B 34115M 34118B 34148  34184M 34185M
             34185B 34192M 34193M 34193B 34231M 34234B 34263  34298M 34299M 34299B 34308M 34309M 34309B 34346M 34349B
             34404  34449M 34450M 34450B 34459M 34460M 34460B 34478M 34481B 34517  34552M 34553M 34553B 34562M 34563M
             34563B 34578  34579M 34620M 34623B 34657  34702M 34703M 34703B 34710M 34711M 34711B 34729M 34732B 34771
             34816M 34817M 34817B 34824M 34825M 34825B 34840  34841M 34865M 34868B 34944  35005M 35006M 35006B 35056M
             35059B 35115  35169M 35170M 35170B 35220M 35223B 35280  35328M 35329M 35329B 35373M 35376B 35427  35480M
             35481M 35481B 35496M 35497M 35497B 35541M 35544B 35577  35610M 35611M 35611B 35632M 35635B 35664  35718M
             35719M 35719B 35752M 35753M 35753B 35759M 35760M 35760B 35784M 35785M 35785B 35791M 35792M 35792B 35801M
             35802M 35802B 35824M 35827B 35848  35896M 35897M 35897B 35903M 35904M 35904B 35931M 35934B 35952  35997M
             35998M 35998B 36015M 36016M 36016B 36036M 36039B 36054  36099M 36102B 36113  36158M 36161B 36172  36217M
             36220B
    15(F)      922U  2099   7506M  7506   7525M  7525   7663M  7709M  7792M  7845M  7845   7944M  7944   8083M  8083
              8188M  8188   8324M  8377M  8377   8476M  8476   8690M  8690   8864M  8864   9112M  9221M  9221   9352M
              9398M  9481M  9534M  9534   9633M  9633   9764M  9810M  9893M 10001M 10001  10132M 10178M 10261M 10314M
             10314  10380M 10380  10511M 10557M 10640M 10723M 10723  10854M 10900M 10983M 11036M 11036  11135M 11135
1         (FLOW2025) (12:45) (15MAR04) General Purpose Register Cross Reference                                             Page  276
             11287M 11333M 11385M 11418M 11418  11645M 11882M 11882  11974M 12035M 12092M 12092  12117M 12220M 12220
             12344M 12390M 12470M 12470  12587M 12633M 12723M 12723  12901M 12901  13087M 13087  13212M 13226M 13247M
             13247  13260M 13260  13296M 13296  13406M 13406  13423  13433M 13433  13449  13456M 13485M 13485  13778M
             13797M 13797  13842M 13861M 13861  13910M 13919M 13919  13925M 13934M 13934  13940M 13941M 13943M 13944
             13956M 13956  13957  14019M 14053M 14053  14138M 14138  14177M 14195M 14200M 14223M 14223  14381M 14437M
             14514M 14536M 14536  14562M 14562  14713M 14769M 14846M 14868M 14868  14894M 14894  15037M 15037  15063M
             15063  15089M 15089  15125M 15125  15183M 15183  15208M 15289M 15289  15314M 15354M 15354  15378M 15378
             15526M 15526  15552M 15552  15578M 15578  15597M 15602M 15626M 15626  15684M 15684  15704M 15722M 15727M
             15797M 15797  15822M 15840M 15845M 15860M 15860  15889M 15889  15919M 15919  16293M 16293  16328M 16328
             16455M 16455  16646M 16646  16680M 16680  16804M 16804  16828M 16828  17007M 17007  17026M 17026  17220M
             17220  17239M 17239  17434M 17434  17453M 17453  17667M 17667  17686M 17686  17874M 17874  17893M 17893
             18081M 18081  18100M 18100  18257M 18257  18274  18284M 18284  18300  18307M 18330M 18330  18544M 18563M
             18563  18653M 18669M 18692M 18692  18749M 18765M 18788M 18788  18860M 18860  18914M 18930M 18953M 18953
             19064M 19064  19101M 19101  19119M 19143M 19143  19264M 19264  19397M 19397  19415M 19439M 19439  19557M
             19557  19573M 19597M 19597  19700M 19700  19721M 19721  19814M 19849M 19894M 19929M 19949M 19950M 19959M
             19959  19978M 19978  20092M 20092  20111M 20111  20201M 20201  20291M 20291  20350M 20375M 20375  20437M
             20445M 20474M 20474  20536M 20544M 20573M 20573  20714M 20720M 20812M 20812  20831M 20831  20855M 20855
             21054M 21054  21122M 21122  21166M 21200M 21250M 21250  21285M 21348M 21348  21372M 21372  21579M 21579
             21638M 21690M 21704M 21704  21745M 21745  21789M 21823M 21875M 21875  21910M 21972M 21986M 21986  22041M
             22041  22065M 22065  22243M 22424M 22424  22448M 22448  22685M 22734M 22734  23039M 23039  23063M 23063
             23374M 23374  23398M 23398  23589M 23940M 23940  23964M 23964  24160M 24160  24342M 24342  24366M 24366
             24606M 24606  24712M 24712  24736M 24736  24925M 25005M 25005  25041M 25041  25149M 25149  25185M 25185
             25229M 25229  25253M 25253  25385M 25385  25415M 25465M 25479M 25479  25532M 25532  25557M 25571M 25599M
             25599  25615M 25615  25641M 25641  25849M 25849  25862  25874M 25874  26128M 26128  26138M 26146M 26146
             26174M 26174  26464M 26483M 26483  26528M 26547M 26547  26595M 26614M 26614  26662M 26681M 26681  26729M
             26748M 26748  26796M 26815M 26815  26863M 26882M 26882  26930M 26949M 26949  27008M 27022M 27045M 27045
             27099M 27122M 27122  27184M 27205M 27205  27228M 27228  27286M 27300M 27323M 27323  27381M 27395M 27418M
             27418  27476M 27490M 27513M 27513  27571M 27585M 27608M 27608  27669M 27687M 27712M 27735M 27735  27986M
             28000M 28020M 28020  28041M 28041  28181M 28383M 28383  28402M 28402  28542M 28732M 28732  28751M 28751
             28891M 29081M 29081  29100M 29100  29238M 29238  29317M 29317  29331M 29331  29336M 29359M 29359  29549M
             29549  29605M 29605  29640M 29640  29708M 29708  29737M 29737  29753M 29787M 29787  29875M 29875  29897M
             29897  29947M 29947  30003M 30003  30038M 30106M 30106  30135M 30135  30170M 30188M 30202M 30240M 30240
             30325M 30325  30349M 30349  30405M 30405  30444M 30477M 30477  30562M 30562  30586M 30586  30642M 30642
             30681M 30714M 30714  30799M 30799  30823M 30823  30889M 30903M 30942M 30956M 30969M 30969  30993M 30993
             31078M 31078  31102M 31102  31158M 31158  31197M 31230M 31230  31319M 31319  31343M 31343  31409M 31427M
             31452M 31470M 31491M 31491  31530M 31548M 31573M 31587M 31587  31600M 31600  31624M 31624  31737M 31737
             31766M 31766  31826M 31844M 31862M 31867M 31926M 31926  32083M 32083  32223M 32223  32241M 32270M 32270
             32423M 32423  32433M 32433  32440M 32456  32466M 32466  32483M 32506M 32506  32819M 32828M 32847M 32847
             32892M 32911M 32911  32984M 33002M 33020M 33034M 33058M 33058  33170M 33170  33239M 33239  33266M 33266
             33287M 33287  33451M 33451  33475M 33514M 33555M 33555  33622M 33622  33700M 33700  33706M 33745M 33745
             33842M 33849M 33878M 33878  33940M 33947M 33976M 33976  34039M 34047M 34091M 34117M 34117  34180M 34188M
             34233M 34233  34294M 34302M 34348M 34348  34445M 34453M 34480M 34480  34548M 34556M 34578  34622M 34622
             34698M 34706M 34731M 34731  34812M 34820M 34840  34867M 34867  35032M 35032  35058M 35058  35196M 35196
             35222M 35222  35351M 35351  35375M 35375  35519M 35519  35543M 35543  35606M 35615M 35615  35634M 35634
             35693  35715M 35749M 35781M 35826M 35826  35893M 35933M 35933  35994M 36012M 36038M 36038  36101M 36101
             36160M 36160  36219M 36219

1FLOW     (FLOW2025) (12:45) (15MAR04) Diagnostic Cross Reference and Assembler Summary                                     Page  277
-                                                                                            HLASM R4.0  2004/03/15 12.45
0     No Statements Flagged in this Assembly
 HIGH LEVEL ASSEMBLER, 5696-234, RELEASE 4.0, PTF P72483
0SYSTEM: OS/390 02.10.00            JOBNAME: WYL#FLOW    STEPNAME: ASM        PROCSTEP: (NOPROC)
0Datasets Allocated for this Assembly
  Con DDname   Dataset Name                                 Volume  Member
   P1 SYSIN    WYL.GS.WYL.WYLBUR.SOURCE                     SYSB05  FLOW
   L1 SYSLIB   WYL.GS.WYL.WYLBUR.MACLIB                     SYSB05
   L2          WYL.GG.SYS.MACLIB                            SYSB05
   L3          SYS3.IS.MACLIB                               SYSB05
   L4          SYS3.MACLIB                                  SYSB02
   L5          SYS1.MACLIB                                  MVSBR9
   L6          SYS1.MODGEN                                  MVSBR9
      SYSPRINT SYS04075.T124524.RA000.WYL#FLOW.PRINT.H01    SCR101
      SYSTERM  GG$SLP.WYL#FLOW.JOB03527.D0000101.?

    3668K allocated to Buffer Pool,         4261K would be required for this to be an In-Storage Assembly
    6073 Primary Input Records Read         7204 Library Records Read                 82 Work File Reads
       0 ASMAOPT Records Read              22165 Primary Print Records Written       151 Work File Writes
       0 Punch Records Written                 0 ADATA Records Written
0Assembly Start Time: 12.45.26 Stop Time: 12.45.39 Processor Time: 00.00.06.5678
 Return Code 000
