1         (MODE4072) (12:48) (15MAR04) General Purpose Register Cross Reference                                             Page  288
             12599  12612M 12613  12614  12615  12634M 12638  12640  12655  12658  12659  12660M 12660  12702  12703
             12704  12706M 12706  12719M 12720  12721  12722  12772M 12776  12778  12794  12797  12798  12799M 12799
             12826  12828M 12828  12839  12840  12841  12843M 12843  12855M 12856  12857  12858  12886M 12898M 12902
             12904  12919  12922  12923  12924M 12924  12961M 12965  12967  12982  12985  12986  12987M 12987  13024M
             13028  13030  13045  13048  13049  13050M 13050  13084  13085  13086  13088M 13088  13101M 13102  13103
             13104  13122M 13126  13128  13199  13202  13204  13205M 13205  13248  13249  13250  13252M 13252  13264M
             13265  13266  13267  13446M 13450  13452  13487  13490  13492  13493M 13493  13536  13537  13538  13540M
             13540  13552M 13553  13554  13555  13706M 13710  13712  13728  13731  13732  13733M 13733  13772M 13776
             13778  13793  13796  13797  13798M 13798  13832  13833  13834  13836M 13836  13848M 13849  13850  13851
             13915  13916  13917  13919M 13919  13931M 13932  13933  13934  13973M 13977  13979  13994  13997  13998
             13999M 13999  14063  14064  14065  14067M 14067  14079M 14080  14081  14082  14385M 14389  14391  14406
             14409  14410  14411M 14411  14445  14446  14447  14449M 14449  14462M 14463  14464  14465  14483M 14487
             14489  14504  14507  14508  14509M 14509  14568M 14572  14574  14589  14592  14593  14594M 14594  14629
             14630  14631  14633M 14633  14646M 14647  14648  14649  14670M 14674  14676  14691  14694  14695  14696M
             14696  14737M 14741  14743  14806  14809  14810  14811M 14811  14909M 14913  14915  14930  14933  14934
             14935M 14935  14971M 14975  14977  14996  14999  15000  15001M 15001  15035  15036  15037  15039M 15039
             15052M 15053  15054  15055  15073M 15077  15079  15094  15097  15098  15099M 15099  15140M 15144  15146
             15161  15164  15165  15166M 15166  15206M 15210  15212  15314  15317  15318  15319M 15319  15353  15354
             15355  15357M 15357  15370M 15371  15372  15373  15391M 15395  15397  15412  15415  15416  15417M 15417
             15457M 15461  15463  15478  15481  15482  15483M 15483  15524M 15528  15530  15614  15617  15618  15619M
             15619  15654  15655  15656  15658M 15658  15670M 15671  15672  15673  15847M 15851  15853  15872  15875
             15876  15877M 15877  15924M 15928  15930  15948  15951  15952  15953M 15953  16001M 16005  16007  16025
             16028  16029  16030M 16030  16077M 16081  16083  16101  16104  16105  16106M 16106  16154M 16158  16160
             16180  16183  16184  16185M 16185  16224M 16228  16230  16252  16255  16256  16257M 16257  16286  16288M
             16288  16299  16300  16301  16303M 16303  16315M 16316  16317  16318  16360M 16376  16377  16378  16380M
             16380  16393M 16394  16395  16396  16426M 16430  16432  16461  16464  16465  16466M 16466  16491  16492M
             16492  17045M 17046  17057M 17061  17063  17079  17082  17083  17084M 17084  17118  17119  17120  17122M
             17122  17135M 17136  17137  17138  17157M 17161  17163  17178  17181  17182  17183M 17183  17278  17279M
             17279  17330M 17334  17336  17356  17359  17360  17361M 17361  17411  17412M 17412  17442  17443  17444
             17446M 17446  17458M 17459  17460  17461  17596M 17600  17602  20288  20291  20292  20293M 20293  20333M
             20337  20339  20354  20357  20358  20359M 20359  20400M 20404  20406  20421  20424  20425  20426M 20426
             20484M 20488  20490  20505  20508  20509  20510M 20510  20569M 20573  20575  20590  20593  20594  20595M
             20595  20635M 20639  20641  20656  20659  20660  20661M 20661  20720M 20724  20726  20741  20744  20745
             20746M 20746  20789M 20793  20795  21246  21249  21250  21251M 21251  21308M 21312  21314  21350  21353
             21354  21355M 21355  21385  21387M 21387  21398  21399  21400  21402M 21402  21414M 21415  21416  21417
             21448M 21461  21462  21463  21465M 21465  21478M 21479  21480  21481  21499M 21503  21505  22025  22028
             22029  22030M 22030  22072M 22076  22078  22093  22096  22097  22098M 22098  22137M 22141  22143  22161
             22164  22165  22166M 22166  22200  22201  22202  22204M 22204  22216M 22217  22218  22219  22649M 22653
             22655  22706  22709  22711  22712M 22712  22773  22774  22775  22777M 22777  22790M 22791  22792  22793
             22966M 22970  22972  23151  23154  23155  23156M 23156  23221M 23225  23227  23281  23284  23286  23287M
             23287  23348  23349  23350  23352M 23352  23365M 23366  23367  23368  23431M 23435  23437  23528  23531
             23532  23533M 23533  23598M 23602  23604  23663  23666  23668  23669M 23669  23730  23731  23732  23734M
             23734  23747M 23748  23749  23750  23831M 23835  23837  23977  23980  23981  23982M 23982  24047M 24051
             24053  24080  24083  24084  24085M 24085  24199M 24203  24205  24279  24282  24283  24284M 24284  24318
             24319  24320  24322M 24322  24334M 24335  24336  24337  24448M 24452  24454  24510  24513  24515  24516M
             24516  24577  24578  24579  24581M 24581  24594M 24595  24596  24597  24712M 24716  24718  24846  24849
             24850  24851M 24851  24916M 24920  24922  24981  24984  24986  24987M 24987  25048  25049  25050  25052M
             25052  25065M 25066  25067  25068  25154M 25158  25160  25261  25264  25265  25266M 25266  25331M 25335
             25337  25391  25394  25395  25396M 25396  25430  25431  25432  25434M 25434  25446M 25447  25448  25449
             25522M 25526  25528  25546  25549  25550  25551M 25551  25585  25586  25587  25589M 25589  25601M 25602
             25603  25604  25677M 25681  25683  25701  25704  25705  25706M 25706  25740  25741  25742  25744M 25744
             25756M 25757  25758  25759  25832M 25836  25838  25856  25859  25860  25861M 25861  25895  25896  25897
             25899M 25899  25911M 25912  25913  25914  25999M 26003  26005  26023  26026  26027  26028M 26028  26062
             26063  26064  26066M 26066  26078M 26079  26080  26081  26166M 26170  26172  26190  26193  26194  26195M
             26195  26229  26230  26231  26233M 26233  26245M 26246  26247  26248  26324M 26328  26330  26348  26351
             26352  26353M 26353  26387  26388  26389  26391M 26391  26403M 26404  26405  26406  26482M 26486  26488
             26506  26509  26510  26511M 26511  26545  26546  26547  26549M 26549  26561M 26562  26563  26564  26638M
             26642  26644  26666  26669  26670  26671M 26671  26705  26706  26707  26709M 26709  26721M 26722  26723
             26724  26798M 26802  26804  26822  26825  26826  26827M 26827  26868  26869  26870  26872M 26872  26884M
1         (MODE4072) (12:48) (15MAR04) General Purpose Register Cross Reference                                             Page  289
             26885  26886  26887  26956M 26960  26962  26980  26983  26984  26985M 26985  27019  27020  27021  27023M
             27023  27035M 27036  27037  27038  27110M 27114  27116  27134  27137  27138  27139M 27139  27173  27174
             27175  27177M 27177  27189M 27190  27191  27192  27267M 27271  27273  27331  27334  27336  27337M 27337
             27400  27401  27402  27404M 27404  27417M 27418  27419  27420  28419  28420M 28420  28440M 28441  29047M
             29051  29053  29189  29192  29193  29194M 29194  29237M 29241  29243  29258  29261  29262  29263M 29263
             29839M 29843  29845  29864  29867  29868  29869M 29869  29990M 29994  29996  30015  30018  30019  30020M
             30020  30121M 30125  30127  30152  30155  30156  30157M 30157  30273M 30277  30279  30299  30302  30303
             30304M 30304  30334  30336M 30336  30347  30348  30349  30351M 30351  30363M 30364  30365  30366  30397M
             30447  30448  30449  30451M 30451  30464M 30465  30466  30467  30501  30502  30503  30505M 30505  30518M
             30519  30520  30521  30544M 30548  30550  30565  30568  30569  30570M 30570  30654M 30658  30660  30679
             30682  30683  30684M 30684  30743  30745M 30745  30812  30813  30814  30816M 30816  30829M 30830  30831
             30832  30890M 30894  30896  31079  31082  31083  31084M 31084  31137M 31141  31143  31158  31161  31162
             31163M 31163  31216M 31220  31222  31237  31240  31241  31242M 31242  31295M 31299  31301  31316  31319
             31320  31321M 31321  31374M 31378  31380  31395  31398  31399  31400M 31400  31453M 31457  31459  31474
             31477  31478  31479M 31479  31532M 31536  31538  31553  31556  31557  31558M 31558  31611M 31615  31617
             31634  31637  31638  31639M 31639  31725M 31729  31731  31746  31749  31750  31751M 31751  31836M 31840
             31842  31858  31861  31862  31863M 31863  32043M 32047  32049  32065  32068  32069  32070M 32070  32203M
             32207  32209  32224  32227  32228  32229M 32229  32367M 32371  32373  32388  32391  32392  32393M 32393
             32545M 32549  32551  32566  32569  32570  32571M 32571  32709M 32713  32715  32730  32733  32734  32735M
             32735  32873M 32877  32879  32894  32897  32898  32899M 32899  32973M 32977  32979  32994  32997  32998
             32999M 32999  33101M 33105  33107  35907  35910  35911  35912M 35912  35953M 35957  35959  35978  35981
             35982  35983M 35983  36056M 36060  36062  36082  36085  36086  36087M 36087  36263  36264M 36264  36284M
             36285  36521M 36525  36527  36575  36578  36579  36580M 36580  36622  36623  36624  36626M 36626  36639M
             36640  36641  36642  36713M 36717  36719  36840  36843  36844  36845M 36845  36905M 36909  36911  36926
             36929  36930  36931M 36931  36968M 36972  36974  36996  36999  37000  37001M 37001  37372M 37376  37378
             37429  37432  37433  37434M 37434  37583  37584M 37584  37614M 38016M 38020  38022  38092  38095  38096
             38097M 38097  38131  38132M 38132  38187M 38275M 38279  38281  38348  38351  38352  38353M 38353  38391
             38392  38393  38395M 38395  38408M 38409  38410  38411  38435M 38439  38441  38502  38505  38506  38507M
             38507  38544M 38548  38550  38591  38594  38595  38596M 38596  38999  39000M 39000  39030M 39603  39604M
             39604  40274M 40589  40590M 40590  40620M 40870  40871M 40871  40901M 42677M 42681  42683  42802  42805
             42806  42807M 42807  43641M 43645  43647  43701  43704  43705  43706M 43706  43763  43764  43765  43767M
             43767  43780M 43781  43782  43783  44248M 44252  44254  44317  44320  44321  44322M 44322  44389M 44393
             44395  44422  44425  44426  44427M 44427  44580  44581M 44581  44611M 45083M 45087  45089  45158  45161
             45162  45163M 45163  45258M 45262  45264  45283  45286  45287  45288M 45288  45382M 45386  45388  45407
             45410  45411  45412M 45412  45486M 45490  45492  45513  45516  45517  45518M 45518  45613M 45617  45619
             45638  45641  45642  45643M 45643  45738M 45742  45744  45821  45824  45826  45827M 45827  45888  45889
             45890  45892M 45892  45905M 45906  45907  45908  45940M 45944  45946  46125  46128  46129  46130M 46130
             46480M 46484  46486  46536  46539  46540  46541M 46541  46635M 46639  46641  46660  46663  46664  46665M
             46665  46778M 46782  46784  46803  46806  46807  46808M 46808  46867  46868  46869  46871M 46871  46884M
             46885  46886  46887  46911M 46915  46917  47014  47017  47018  47019M 47019  47060M 47064  47066  47085
             47088  47089  47090M 47090  47253M 47257  47259  47278  47281  47282  47283M 47283  47342  47343  47344
             47346M 47346  47359M 47360  47361  47362  47381M 47385  47387  47434  47437  47438  47439M 47439  47474M
             47478  47480  47495  47498  47499  47500M 47500  47555M 47559  47561  47581  47584  47585  47586M 47586
             47706M 47710  47712  47769  47772  47773  47774M 47774  47839M 47843  47845  47867  47870  47871  47872M
             47872  47938M 47942  47944  48012  48015  48017  48018M 48018  48239  48240  48241  48243M 48243  48256M
             48257  48258  48259  49499M 49503  49505  49789  49792  49793  49794M 49794  49829M 49833  49835  49850
             49853  49854  49855M 49855  49890M 49894  49896  49911  49914  49915  49916M 49916  49951M 49955  49957
             49972  49975  49976  49977M 49977  50012M 50016  50018  50033  50036  50037  50038M 50038  50079M 50083
             50085  50100  50103  50104  50105M 50105  50140M 50144  50146  50161  50164  50165  50166M 50166  50201M
             50205  50207  50222  50225  50226  50227M 50227  50262M 50266  50268  50283  50286  50287  50288M 50288
             50323M 50327  50329  50344  50347  50348  50349M 50349  50384M 50388  50390  50461  50464  50465  50466M
             50466  51106  51107M 51107  51851M 51855  51857  51876  51879  51880  51881M 51881  51920  51921  51922
             51924M 51924  51937M 51938  51939  51940  52108M 52112  52114  52170  52173  52174  52175M 52175  52267M
             52271  52273  52296  52299  52300  52301M 52301  52326  52327M 52327  52370M 52371  52374  52375M 52375
             52399M 52400  52465M 52469  52471  52490  52493  52494  52495M 52495  52541M 52545  52547  52639  52642
             52643  52644M 52644  52913M 52917  52919  52940  52943  52944  52945M 52945  53007M 53011  53013  53032
             53035  53036  53037M 53037  53100M 53104  53106  53125  53128  53129  53130M 53130  53255M 53259  53261
             53301  53304  53306  53307M 53307  53378  53379  53380  53382M 53382  53395M 53396  53397  53398  53439
             53440M 53440  53537M 53605M 53609  53611  53708  53711  53712  53713M 53713  53742  53743M 53743  53790M
1         (MODE4072) (12:48) (15MAR04) General Purpose Register Cross Reference                                             Page  290
             53811M 53815  53817  53832  53835  53836  53837M 53837  53882M 53886  53888  53903  53906  53907  53908M
             53908  53953M 53957  53959  53974  53977  53978  53979M 53979  54129M 54133  54135  54163  54166  54167
             54168M 54168  54193  54194M 54194  54220M 54231M 54235  54237  54256  54259  54260  54261M 54261  54414M
             54418  54420  54439  54442  54443  54444M 54444  54572M 54576  54578  54655  54658  54659  54660M 54660
             54699M 54703  54705  54724  54727  54728  54729M 54729  55046  55047M 55047  55061M 55062  55160M 55164
             55166  55185  55188  55189  55190M 55190  55389  55390M 55390  55420M 55542  55543M 55543  55573M 55661M
             55665  55667  55716  55719  55721  55722M 55722  55813  55814  55815  55817M 55817  55829M 55830  55831
             55832  55956  55957  55958  55960M 55960  55973M 55974  55975  55976  56215M 56219  56221  56306  56309
             56310  56311M 56311  56488M 56492  56494  56516  56519  56520  56521M 56521  56667M 56671  56673  56692
             56695  56696  56697M 56697  56761  56762  56763  56765M 56765  56778M 56779  56780  56781  56930M 56934
             56936  57086  57089  57091  57092M 57092  57201  57202  57203  57205M 57205  57217M 57218  57219  57220
             57472M 57476  57478  57493  57496  57497  57498M 57498  57723M 57727  57729  57763  57766  57767  57768M
             57768  57851  57852  57853  57855M 57855  57867M 57868  57869  57870  57934M 57938  57940  57955  57958
             57959  57960M 57960  58191M 58195  58197  58225  58228  58229  58230M 58230  58766M 58770  58772
    14(E)      926U  6183   6184M  6198   6199M  6200B  6202M  6203B  6223M  6224B  6228M  6229B  6231M  6232B  6234M
              6235B  6237M  6238B  6240M  6241M  6241B  6247  11064  11098M 11099  11111M 11112  11113  11114  11122M
             11123M 11123B 11126M 11129  11130  11131  11135M 11136N 11137N 11141M 11141  11156M 11157M 11157B 11160M
             11163  11204M 11205  11206  11207  11212M 11213  11216M 11217M 11217B 11220M 11223  11224  11225  11230M
             11231M 11231B 11258M 11259  11260  11261  11266M 11267  11270M 11271M 11271B 11274M 11277  11278  11279
             11284M 11285M 11285B 11307M 11310B 11322  11375M 11378B 11390  11421M 11422M 11422B 11453M 11454M 11454B
             11514M 11517B 11529  11560M 11561M 11561B 11593M 11594M 11594B 11654M 11657B 11669  11707M 11708  11709
             11710  11718M 11719M 11719B 11722M 11725  11726  11727  11732M 11733M 11733B 11752M 11753N 11768N 11783N
             11784N 11785  11785  11786N 11787N 11800N 11804M 11804  11807M 11808M 11808B 11856M 11859B 11871  11937M
             11940B 11952  11999M 12002B 12014  12067M 12070B 12082  12134M 12137B 12149  12195M 12196M 12196B 12219M
             12222B 12234  12272M 12273  12274  12275  12283M 12284M 12284B 12287M 12290  12291  12292  12297M 12298M
             12298B 12361M 12362M 12362B 12380M 12383B 12395  12434M 12435  12436  12437  12445M 12446M 12446B 12449M
             12452  12453  12454  12490M 12491M 12491B 12503M 12504M 12504B 12527M 12530B 12542  12579M 12580M 12580B
             12594M 12595  12596  12597  12602M 12603  12606M 12607M 12607B 12610M 12613  12614  12615  12620M 12621M
             12621B 12640M 12643B 12655  12686M 12687M 12687B 12701M 12702  12703  12704  12709M 12710  12713M 12714M
             12714B 12717M 12720  12721  12722  12778M 12781B 12794  12825M 12826  12838M 12839  12840  12841  12849M
             12850M 12850B 12853M 12856  12857  12858  12863M 12864M 12864B 12884M 12887  12904M 12907B 12919  12967M
             12970B 12982  13030M 13033B 13045  13083M 13084  13085  13086  13091M 13092  13095M 13096M 13096B 13099M
             13102  13103  13104  13109M 13110M 13110B 13128M 13131B 13199  13247M 13248  13249  13250  13258M 13259M
             13259B 13262M 13265  13266  13267  13272M 13273M 13273B 13295M 13296M 13296B 13320M 13321M 13321B 13346M
             13347M 13347B 13428M 13429M 13429B 13452M 13455B 13487  13535M 13536  13537  13538  13546M 13547M 13547B
             13550M 13553  13554  13555  13560M 13561M 13561B 13583M 13584M 13584B 13608M 13609M 13609B 13634M 13635M
             13635B 13688M 13689M 13689B 13712M 13715B 13728  13760M 13761M 13761B 13778M 13781B 13793  13831M 13832
             13833  13834  13842M 13843M 13843B 13846M 13849  13850  13851  13856M 13857M 13857B 13903M 13904M 13904B
             13914M 13915  13916  13917  13925M 13926M 13926B 13929M 13932  13933  13934  13979M 13982B 13994  14062M
             14063  14064  14065  14073M 14074M 14074B 14077M 14080  14081  14082  14087M 14088M 14088B 14175M 14176M
             14176B 14222M 14223M 14223B 14320M 14321M 14321B 14366M 14367M 14367B 14391M 14394B 14406  14444M 14445
             14446  14447  14452M 14453  14456M 14457M 14457B 14460M 14463  14464  14465  14470M 14471M 14471B 14489M
             14492B 14504  14574M 14577B 14589  14628M 14629  14630  14631  14636M 14637  14640M 14641M 14641B 14644M
             14647  14648  14649  14654M 14655M 14655B 14676M 14679B 14691  14743M 14746B 14806  14845M 14846N 14861N
             14876N 14877N 14878  14878  14879N 14880N 14893N 14897M 14897  14915M 14918B 14930  14977M 14980B 14996
             15034M 15035  15036  15037  15042M 15043  15046M 15047M 15047B 15050M 15053  15054  15055  15060M 15061M
             15061B 15079M 15082B 15094  15146M 15149B 15161  15212M 15215B 15314  15352M 15353  15354  15355  15360M
             15361  15364M 15365M 15365B 15368M 15371  15372  15373  15378M 15379M 15379B 15397M 15400B 15412  15463M
             15466B 15478  15530M 15533B 15614  15653M 15654  15655  15656  15664M 15665M 15665B 15668M 15671  15672
             15673  15678M 15679M 15679B 15782M 15783M 15783B 15817M 15818M 15818B 15833M 15834M 15834B 15853M 15856B
             15872  15905M 15906M 15906B 15930M 15933B 15948  15981M 15982M 15982B 16007M 16010B 16025  16058M 16059M
             16059B 16083M 16086B 16101  16134M 16135M 16135B 16160M 16163B 16180  16211M 16212M 16212B 16230M 16233B
             16252  16285M 16286  16298M 16299  16300  16301  16309M 16310M 16310B 16313M 16316  16317  16318  16323M
             16324M 16324B 16358M 16361  16364M 16365M 16365B 16375M 16376  16377  16378  16383M 16384  16387M 16388M
             16388B 16391M 16394  16395  16396  16401M 16402M 16402B 16405M 16406M 16406B 16409M 16410M 16410B 16413M
             16414M 16414B 16432M 16435B 16461  17063M 17066B 17079  17117M 17118  17119  17120  17125M 17126  17129M
             17130M 17130B 17133M 17136  17137  17138  17143M 17144M 17144B 17163M 17166B 17178  17246M 17247M 17247B
             17271M 17272M 17272B 17306M 17307M 17307B 17336M 17339B 17356  17403M 17404M 17404B 17441M 17442  17443
             17444  17452M 17453M 17453B 17456M 17459  17460  17461  17466M 17467M 17467B 17563M 17564M 17564B 17602M
1         (MODE4072) (12:48) (15MAR04) General Purpose Register Cross Reference                                             Page  291
             17605B 20288  20339M 20342B 20354  20406M 20409B 20421  20490M 20493B 20505  20575M 20578B 20590  20641M
             20644B 20656  20726M 20729B 20741  20795M 20798B 21246  21291M 21292M 21292B 21314M 21317B 21350  21384M
             21385  21397M 21398  21399  21400  21408M 21409M 21409B 21412M 21415  21416  21417  21421M 21422N 21423N
             21427M 21427  21442M 21443M 21443B 21446M 21449  21460M 21461  21462  21463  21468M 21469  21472M 21473M
             21473B 21476M 21479  21480  21481  21486M 21487M 21487B 21505M 21508B 22025  22078M 22081B 22093  22124M
             22125M 22125B 22143M 22146B 22161  22199M 22200  22201  22202  22210M 22211M 22211B 22214M 22217  22218
             22219  22224M 22225M 22225B 22262M 22263M 22263B 22556M 22557M 22557B 22570M 22571M 22571B 22617M 22618M
             22618B 22655M 22658B 22706  22772M 22773  22774  22775  22780M 22781  22784M 22785M 22785B 22788M 22791
             22792  22793  22798M 22799M 22799B 22825M 22826M 22826B 22887M 22888M 22888B 22918M 22919M 22919B 22943M
             22944M 22944B 22972M 22975B 23151  23202M 23203M 23203B 23227M 23230B 23281  23347M 23348  23349  23350
             23355M 23356  23359M 23360M 23360B 23363M 23366  23367  23368  23373M 23374M 23374B 23395M 23396M 23396B
             23413M 23414M 23414B 23437M 23440B 23528  23579M 23580M 23580B 23604M 23607B 23663  23729M 23730  23731
             23732  23737M 23738  23741M 23742M 23742B 23745M 23748  23749  23750  23755M 23756M 23756B 23760M 23761M
             23761B 23783M 23784M 23784B 23808M 23809M 23809B 23837M 23840B 23977  24028M 24029M 24029B 24053M 24056B
             24080  24111M 24112M 24112B 24126M 24127M 24127B 24130M 24131M 24131B 24179M 24180M 24180B 24205M 24208B
             24279  24317M 24318  24319  24320  24328M 24329M 24329B 24332M 24335  24336  24337  24342M 24343M 24343B
             24380M 24381M 24381B 24409M 24410M 24410B 24434M 24435M 24435B 24454M 24457B 24510  24576M 24577  24578
             24579  24584M 24585  24588M 24589M 24589B 24592M 24595  24596  24597  24602M 24603M 24603B 24639M 24640M
             24640B 24664M 24665M 24665B 24689M 24690M 24690B 24718M 24721B 24846  24897M 24898M 24898B 24922M 24925B
             24981  25047M 25048  25049  25050  25055M 25056  25059M 25060M 25060B 25063M 25066  25067  25068  25073M
             25074M 25074B 25078M 25079M 25079B 25106M 25107M 25107B 25131M 25132M 25132B 25160M 25163B 25261  25312M
             25313M 25313B 25337M 25340B 25391  25429M 25430  25431  25432  25440M 25441M 25441B 25444M 25447  25448
             25449  25454M 25455M 25455B 25492M 25493M 25493B 25508M 25509M 25509B 25528M 25531B 25546  25584M 25585
             25586  25587  25595M 25596M 25596B 25599M 25602  25603  25604  25609M 25610M 25610B 25647M 25648M 25648B
             25663M 25664M 25664B 25683M 25686B 25701  25739M 25740  25741  25742  25750M 25751M 25751B 25754M 25757
             25758  25759  25764M 25765M 25765B 25802M 25803M 25803B 25818M 25819M 25819B 25838M 25841B 25856  25894M
             25895  25896  25897  25905M 25906M 25906B 25909M 25912  25913  25914  25919M 25920M 25920B 25957M 25958M
             25958B 25975M 25976M 25976B 25985M 25986M 25986B 26005M 26008B 26023  26061M 26062  26063  26064  26072M
             26073M 26073B 26076M 26079  26080  26081  26086M 26087M 26087B 26124M 26125M 26125B 26142M 26143M 26143B
             26152M 26153M 26153B 26172M 26175B 26190  26228M 26229  26230  26231  26239M 26240M 26240B 26243M 26246
             26247  26248  26253M 26254M 26254B 26291M 26292M 26292B 26330M 26333B 26348  26386M 26387  26388  26389
             26397M 26398M 26398B 26401M 26404  26405  26406  26411M 26412M 26412B 26449M 26450M 26450B 26488M 26491B
             26506  26544M 26545  26546  26547  26555M 26556M 26556B 26559M 26562  26563  26564  26569M 26570M 26570B
             26607M 26608M 26608B 26624M 26625M 26625B 26644M 26647B 26666  26704M 26705  26706  26707  26715M 26716M
             26716B 26719M 26722  26723  26724  26729M 26730M 26730B 26767M 26768M 26768B 26784M 26785M 26785B 26804M
             26807B 26822  26867M 26868  26869  26870  26878M 26879M 26879B 26882M 26885  26886  26887  26892M 26893M
             26893B 26930M 26931M 26931B 26962M 26965B 26980  27018M 27019  27020  27021  27029M 27030M 27030B 27033M
             27036  27037  27038  27043M 27044M 27044B 27081M 27082M 27082B 27097M 27098M 27098B 27116M 27119B 27134
             27172M 27173  27174  27175  27183M 27184M 27184B 27187M 27190  27191  27192  27197M 27198M 27198B 27235M
             27236M 27236B 27273M 27276B 27331  27399M 27400  27401  27402  27407M 27408  27411M 27412M 27412B 27415M
             27418  27419  27420  27425M 27426M 27426B 27434M 27435M 27435B 27465M 27466M 27466B 27483M 27484M 27484B
             27511M 27512M 27512B 27546M 27547M 27547B 27574M 27575M 27575B 27592M 27593M 27593B 27615M 27616M 27616B
             27640M 27641M 27641B 27665M 27666M 27666B 27684M 27685M 27685B 27715M 27716M 27716B 27720M 27721M 27721B
             27751M 27752M 27752B 27756M 27757M 27757B 27787M 27788M 27788B 27792M 27793M 27793B 27858M 27859M 27859B
             27862M 27863M 27863B 27888M 27889M 27889B 27906M 27907M 27907B 27925M 27926M 27926B 27953M 27954M 27954B
             27971M 27972M 27972B 27999M 28000M 28000B 28034M 28035M 28035B 28077M 28078M 28078B 28095M 28096M 28096B
             28123M 28124M 28124B 28141M 28142M 28142B 28162M 28163M 28163B 28180M 28181M 28181B 28185M 28186M 28186B
             28209M 28210M 28210B 28228M 28229M 28229B 28246M 28247M 28247B 28270M 28271M 28271B 28307M 28308M 28308B
             28340M 28341M 28341B 28359M 28360M 28360B 28383M 28384M 28384B 28402M 28403M 28403B 28437M 28438M 28438B
             28464M 28465M 28465B 28505M 28506M 28506B 28533M 28534M 28534B 28566M 28567M 28567B 28598M 28599M 28599B
             28602M 28603M 28603B 28633M 28634M 28634B 28637M 28638M 28638B 28668M 28669M 28669B 28672M 28673M 28673B
             28702M 28703M 28703B 28706M 28707M 28707B 28737M 28738M 28738B 28792M 28793M 28793B 28834M 28835M 28835B
             28889M 28890M 28890B 28931M 28932M 28932B 28949M 28950M 28950B 28968M 28969M 28969B 28992M 28993M 28993B
             29024M 29025M 29025B 29028M 29029M 29029B 29053M 29056B 29189  29220M 29221M 29221B 29224M 29225M 29225B
             29243M 29246B 29258  29320M 29321M 29321B 29342M 29343M 29343B 29396M 29397M 29397B 29431M 29432M 29432B
             29453M 29454M 29454B 29488M 29489M 29489B 29510M 29511M 29511B 29546M 29547M 29547B 29568M 29569M 29569B
             29603M 29604M 29604B 29625M 29626M 29626B 29680M 29681M 29681B 29699M 29700M 29700B 29727M 29728M 29728B
             29745M 29746M 29746B 29765M 29766M 29766B 29789M 29790M 29790B 29807M 29808M 29808B 29826M 29827M 29827B
             29845M 29848B 29864  29895M 29896M 29896B 29929M 29930M 29930B 29951M 29952M 29952B 29977M 29978M 29978B
1         (MODE4072) (12:48) (15MAR04) General Purpose Register Cross Reference                                             Page  292
             29996M 29999B 30015  30046M 30047M 30047B 30081M 30082M 30082B 30103M 30104M 30104B 30127M 30130B 30152
             30217M 30218M 30218B 30251M 30252M 30252B 30260M 30261M 30261B 30279M 30282B 30299  30333M 30334  30346M
             30347  30348  30349  30357M 30358M 30358B 30361M 30364  30365  30366  30370M 30371N 30372N 30376M 30376
             30391M 30392M 30392B 30395M 30398  30403M 30404M 30404B 30446M 30447  30448  30449  30454M 30455  30458M
             30459M 30459B 30462M 30465  30466  30467  30472M 30473M 30473B 30500M 30501  30502  30503  30508M 30509
             30512M 30513M 30513B 30516M 30519  30520  30521  30526M 30527M 30527B 30550M 30553B 30565  30660M 30663B
             30679  30712M 30713M 30713B 30736M 30737M 30737B 30742M 30743  30749M 30750N 30765N 30780N 30781N 30782
             30782  30783N 30784N 30797N 30801M 30801  30811M 30812  30813  30814  30819M 30820  30823M 30824M 30824B
             30827M 30830  30831  30832  30867M 30868M 30868B 30876M 30877M 30877B 30896M 30899B 31079  31124M 31125M
             31125B 31143M 31146B 31158  31203M 31204M 31204B 31222M 31225B 31237  31282M 31283M 31283B 31301M 31304B
             31316  31361M 31362M 31362B 31380M 31383B 31395  31440M 31441M 31441B 31459M 31462B 31474  31519M 31520M
             31520B 31538M 31541B 31553  31598M 31599M 31599B 31617M 31620B 31634  31665M 31666M 31666B 31670M 31671M
             31671B 31694M 31695M 31695B 31712M 31713M 31713B 31731M 31734B 31746  31777M 31778M 31778B 31805M 31806M
             31806B 31823M 31824M 31824B 31842M 31845B 31858  31889M 31890M 31890B 31919M 31920M 31920B 31962M 31963M
             31963B 31980M 31981M 31981B 32008M 32009M 32009B 32026M 32027M 32027B 32049M 32052B 32065  32096M 32097M
             32097B 32132M 32133M 32133B 32168M 32169M 32169B 32186M 32187M 32187B 32209M 32212B 32224  32255M 32256M
             32256B 32289M 32290M 32290B 32332M 32333M 32333B 32350M 32351M 32351B 32373M 32376B 32388  32419M 32420M
             32420B 32453M 32454M 32454B 32486M 32487M 32487B 32510M 32511M 32511B 32528M 32529M 32529B 32551M 32554B
             32566  32597M 32598M 32598B 32631M 32632M 32632B 32674M 32675M 32675B 32692M 32693M 32693B 32715M 32718B
             32730  32761M 32762M 32762B 32795M 32796M 32796B 32838M 32839M 32839B 32856M 32857M 32857B 32879M 32882B
             32894  32942M 32943M 32943B 32960M 32961M 32961B 32979M 32982B 32994  33025M 33026M 33026B 33043M 33044M
             33044B 33070M 33071M 33071B 33088M 33089M 33089B 33107M 33110B 35907  35939M 35940M 35940B 35959M 35962B
             35978  36009M 36010M 36010B 36038M 36039M 36039B 36062M 36065B 36082  36113M 36114M 36114B 36151M 36152M
             36152B 36184M 36185M 36185B 36203M 36204M 36204B 36227M 36228M 36228B 36246M 36247M 36247B 36281M 36282M
             36282B 36308M 36309M 36309B 36347M 36348M 36348B 36375M 36376M 36376B 36431M 36432M 36432B 36470M 36471M
             36471B 36507M 36508M 36508B 36527M 36530B 36575  36621M 36622  36623  36624  36629M 36630  36633M 36634M
             36634B 36637M 36640  36641  36642  36647M 36648M 36648B 36700M 36701M 36701B 36719M 36722B 36840  36886M
             36887M 36887B 36911M 36914B 36926  36974M 36977B 36996  37135M 37136M 37136B 37197M 37198M 37198B 37283M
             37284M 37284B 37329M 37330M 37330B 37360M 37361M 37361B 37378M 37381B 37429  37460M 37461M 37461B 37489M
             37490M 37490B 37573M 37574M 37574B 37577M 37578M 37578B 37587M 37588M 37588B 37611M 37612M 37612B 37653M
             37654M 37654B 37683M 37684M 37684B 37701M 37702M 37702B 37728M 37729M 37729B 37752M 37753M 37753B 37770M
             37771M 37771B 37818M 37819M 37819B 37903M 37904M 37904B 37935M 37936M 37936B 37954M 37955M 37955B 37985M
             37986M 37986B 38003M 38004M 38004B 38022M 38025B 38092  38123M 38124M 38124B 38128M 38129M 38129B 38135M
             38136M 38136B 38159M 38160M 38160B 38184M 38185M 38185B 38191M 38192M 38192B 38221M 38222M 38222B 38230M
             38231M 38231B 38261M 38262M 38262B 38281M 38284B 38348  38390M 38391  38392  38393  38398M 38399  38402M
             38403M 38403B 38406M 38409  38410  38411  38416M 38417M 38417B 38422M 38423M 38423B 38441M 38444B 38502
             38550M 38553B 38591  38648M 38649M 38649B 38666M 38667M 38667B 38691M 38692M 38692B 38725M 38726M 38726B
             38750M 38751M 38751B 38789M 38790M 38790B 38814M 38815M 38815B 38941M 38942M 38942B 38966M 38967M 38967B
             38989M 38990M 38990B 38993M 38994M 38994B 39003M 39004M 39004B 39027M 39028M 39028B 39048M 39049M 39049B
             39052M 39053M 39053B 39108M 39109M 39109B 39132M 39133M 39133B 39150M 39151M 39151B 39175M 39176M 39176B
             39203M 39204M 39204B 39221M 39222M 39222B 39273M 39274M 39274B 39301M 39302M 39302B 39319M 39320M 39320B
             39343M 39344M 39344B 39361M 39362M 39362B 39383M 39384M 39384B 39401M 39402M 39402B 39429M 39430M 39430B
             39447M 39448M 39448B 39469M 39470M 39470B 39487M 39488M 39488B 39509M 39510M 39510B 39527M 39528M 39528B
             39549M 39550M 39550B 39567M 39568M 39568B 39600M 39601M 39601B 39621M 39622M 39622B 39632M 39633M 39633B
             39659M 39660M 39660B 39684M 39685M 39685B 39703M 39704M 39704B 39707M 39708M 39708B 39717M 39718M 39718B
             39744M 39745M 39745B 39769M 39770M 39770B 39788M 39789M 39789B 39851M 39852M 39852B 39878M 39879M 39879B
             39903M 39904M 39904B 39922M 39923M 39923B 39952M 39953M 39953B 39979M 39980M 39980B 40004M 40005M 40005B
             40029M 40030M 40030B 40047M 40048M 40048B 40193M 40194M 40194B 40221M 40222M 40222B 40246M 40247M 40247B
             40271M 40272M 40272B 40296M 40297M 40297B 40314M 40315M 40315B 40336M 40337M 40337B 40354M 40355M 40355B
             40360M 40361M 40361B 40385M 40386M 40386B 40410M 40411M 40411B 40431M 40432M 40432B 40449M 40450M 40450B
             40470M 40471M 40471B 40488M 40489M 40489B 40509M 40510M 40510B 40527M 40528M 40528B 40574M 40575M 40575B
             40578M 40579M 40579B 40593M 40594M 40594B 40617M 40618M 40618B 40637M 40638M 40638B 40661M 40662M 40662B
             40708M 40709M 40709B 40726M 40727M 40727B 40769M 40770M 40770B 40787M 40788M 40788B 40794M 40795M 40795B
             40812M 40813M 40813B 40837M 40838M 40838B 40855M 40856M 40856B 40859M 40860M 40860B 40874M 40875M 40875B
             40898M 40899M 40899B 40918M 40919M 40919B 40944M 40945M 40945B 41005M 41006M 41006B 41024M 41025M 41025B
             41054M 41055M 41055B 41072M 41073M 41073B 41102M 41103M 41103B 41126M 41127M 41127B 41144M 41145M 41145B
             41168M 41169M 41169B 41186M 41187M 41187B 41211M 41212M 41212B 41291M 41292M 41292B 41309M 41310M 41310B
             41342M 41343M 41343B 41360M 41361M 41361B 41382M 41383M 41383B 41400M 41401M 41401B 41422M 41423M 41423B
             41440M 41441M 41441B 41463M 41464M 41464B 41481M 41482M 41482B 41509M 41510M 41510B 41527M 41528M 41528B
1         (MODE4072) (12:48) (15MAR04) General Purpose Register Cross Reference                                             Page  293
             41558M 41559M 41559B 41582M 41583M 41583B 41600M 41601M 41601B 41631M 41632M 41632B 41653M 41654M 41654B
             41671M 41672M 41672B 41702M 41703M 41703B 41723M 41724M 41724B 41741M 41742M 41742B 41762M 41763M 41763B
             41780M 41781M 41781B 41808M 41809M 41809B 41826M 41827M 41827B 41854M 41855M 41855B 41872M 41873M 41873B
             41894M 41895M 41895B 41912M 41913M 41913B 41940M 41941M 41941B 41958M 41959M 41959B 41986M 41987M 41987B
             42004M 42005M 42005B 42032M 42033M 42033B 42050M 42051M 42051B 42076M 42077M 42077B 42094M 42095M 42095B
             42118M 42119M 42119B 42136M 42137M 42137B 42164M 42165M 42165B 42186M 42187M 42187B 42204M 42205M 42205B
             42227M 42228M 42228B 42245M 42246M 42246B 42267M 42268M 42268B 42285M 42286M 42286B 42308M 42309M 42309B
             42326M 42327M 42327B 42348M 42349M 42349B 42366M 42367M 42367B 42408M 42409M 42409B 42440M 42441M 42441B
             42466M 42467M 42467B 42488M 42489M 42489B 42506M 42507M 42507B 42528M 42529M 42529B 42546M 42547M 42547B
             42552M 42553M 42553B 42570M 42571M 42571B 42613M 42614M 42614B 42631M 42632M 42632B 42659M 42660M 42660B
             42663M 42664M 42664B 42683M 42686B 42802  42850M 42851M 42851B 42868M 42869M 42869B 42980M 42981M 42981B
             43008M 43009M 43009B 43052M 43053M 43053B 43059M 43060M 43060B 43085M 43086M 43086B 43103M 43104M 43104B
             43109M 43110M 43110B 43127M 43128M 43128B 43167M 43168M 43168B 43185M 43186M 43186B 43203M 43204M 43204B
             43237M 43238M 43238B 43313M 43314M 43314B 43332M 43333M 43333B 43362M 43363M 43363B 43380M 43381M 43381B
             43410M 43411M 43411B 43435M 43436M 43436B 43453M 43454M 43454B 43459M 43460M 43460B 43484M 43485M 43485B
             43502M 43503M 43503B 43527M 43528M 43528B 43545M 43546M 43546B 43570M 43571M 43571B 43588M 43589M 43589B
             43647M 43650B 43701  43762M 43763  43764  43765  43770M 43771  43774M 43775M 43775B 43778M 43781  43782
             43783  43788M 43789M 43789B 43825M 43826M 43826B 43855M 43856M 43856B 43873M 43874M 43874B 43903M 43904M
             43904B 43921M 43922M 43922B 43954M 43955M 43955B 43972M 43973M 43973B 44087M 44088M 44088B 44115M 44116M
             44116B 44136M 44137M 44137B 44192M 44193M 44193B 44216M 44217M 44217B 44234M 44235M 44235B 44254M 44257B
             44317  44395M 44398B 44422  44453M 44454M 44454B 44482M 44483M 44483B 44500M 44501M 44501B 44525M 44526M
             44526B 44550M 44551M 44551B 44570M 44571M 44571B 44574M 44575M 44575B 44584M 44585M 44585B 44608M 44609M
             44609B 44635M 44636M 44636B 44660M 44661M 44661B 44687M 44688M 44688B 44705M 44706M 44706B 44734M 44735M
             44735B 44752M 44753M 44753B 44778M 44779M 44779B 44796M 44797M 44797B 44822M 44823M 44823B 44840M 44841M
             44841B 44865M 44866M 44866B 44891M 44892M 44892B 44909M 44910M 44910B 44934M 44935M 44935B 44961M 44962M
             44962B 44979M 44980M 44980B 45007M 45008M 45008B 45025M 45026M 45026B 45051M 45052M 45052B 45069M 45070M
             45070B 45089M 45092B 45158  45205M 45206M 45206B 45264M 45267B 45283  45330M 45331M 45331B 45388M 45391B
             45407  45454M 45455M 45455B 45492M 45495B 45513  45560M 45561M 45561B 45619M 45622B 45638  45685M 45686M
             45686B 45744M 45747B 45821  45887M 45888  45889  45890  45895M 45896  45899M 45900M 45900B 45903M 45906
             45907  45908  45913M 45914M 45914B 45946M 45949B 46125  46156M 46157M 46157B 46201M 46202M 46202B 46235M
             46236M 46236B 46273M 46274M 46274B 46311M 46312M 46312B 46349M 46350M 46350B 46387M 46388M 46388B 46425M
             46426M 46426B 46463M 46464M 46464B 46486M 46489B 46536  46583M 46584M 46584B 46641M 46644B 46660  46691M
             46692M 46692B 46736M 46737M 46737B 46741M 46742M 46742B 46765M 46766M 46766B 46784M 46787B 46803  46850M
             46851M 46851B 46866M 46867  46868  46869  46874M 46875  46878M 46879M 46879B 46882M 46885  46886  46887
             46892M 46893M 46893B 46897M 46898M 46898B 46917M 46920B 47014  47066M 47069B 47085  47130M 47131M 47131B
             47238M 47239M 47239B 47259M 47262B 47278  47325M 47326M 47326B 47341M 47342  47343  47344  47349M 47350
             47353M 47354M 47354B 47357M 47360  47361  47362  47367M 47368M 47368B 47387M 47390B 47434  47480M 47483B
             47495  47543M 47544M 47544B 47561M 47564B 47581  47644M 47645M 47645B 47687M 47688M 47688B 47712M 47715B
             47769  47816M 47817M 47817B 47845M 47848B 47867  47914M 47915M 47915B 47944M 47947B 48012  48092M 48093M
             48093B 48238M 48239  48240  48241  48246M 48247  48250M 48251M 48251B 48254M 48257  48258  48259  48264M
             48265M 48265B 48303M 48304M 48304B 48311M 48312M 48312B 48604M 48605M 48605B 48646M 48647M 48647B 48670M
             48671M 48671B 48688M 48689M 48689B 48718M 48719M 48719B 48732M 48733M 48733B 48757M 48758M 48758B 48778M
             48779M 48779B 48802M 48803M 48803B 48837M 48838M 48838B 48867M 48868M 48868B 48881M 48882M 48882B 48906M
             48907M 48907B 48912M 48913M 48913B 48922M 48923M 48923B 48959M 48960M 48960B 48994M 48995M 48995B 49018M
             49019M 49019B 49048M 49049M 49049B 49072M 49073M 49073B 49090M 49091M 49091B 49120M 49121M 49121B 49134M
             49135M 49135B 49159M 49160M 49160B 49181M 49182M 49182B 49196M 49197M 49197B 49214M 49215M 49215B 49257M
             49258M 49258B 49292M 49293M 49293B 49322M 49323M 49323B 49336M 49337M 49337B 49361M 49362M 49362B 49367M
             49368M 49368B 49377M 49378M 49378B 49414M 49415M 49415B 49453M 49454M 49454B 49477M 49478M 49478B 49505M
             49508B 49789  49835M 49838B 49850  49896M 49899B 49911  49957M 49960B 49972  50018M 50021B 50033  50085M
             50088B 50100  50146M 50149B 50161  50207M 50210B 50222  50268M 50271B 50283  50329M 50332B 50344  50390M
             50393B 50461  50506M 50507M 50507B 50527M 50528M 50528B 50545M 50546M 50546B 50566M 50567M 50567B 50584M
             50585M 50585B 50609M 50610M 50610B 50628M 50629M 50629B 50662M 50663M 50663B 50714M 50715M 50715B 50782M
             50783M 50783B 50805M 50806M 50806B 50830M 50831M 50831B 50855M 50856M 50856B 50874M 50875M 50875B 50879M
             50880M 50880B 50897M 50898M 50898B 50918M 50919M 50919B 50936M 50937M 50937B 50961M 50962M 50962B 50979M
             50980M 50980B 51013M 51014M 51014B 51080M 51081M 51081B 51085M 51086M 51086B 51103M 51104M 51104B 51115M
             51116M 51116B 51142M 51143M 51143B 51160M 51161M 51161B 51189M 51190M 51190B 51214M 51215M 51215B 51235M
             51236M 51236B 51256M 51257M 51257B 51274M 51275M 51275B 51293M 51294M 51294B 51317M 51318M 51318B 51335M
             51336M 51336B 51354M 51355M 51355B 51378M 51379M 51379B 51396M 51397M 51397B 51402M 51403M 51403B 51420M
             51421M 51421B 51426M 51427M 51427B 51444M 51445M 51445B 51469M 51470M 51470B 51488M 51489M 51489B 51509M
1         (MODE4072) (12:48) (15MAR04) General Purpose Register Cross Reference                                             Page  294
             51510M 51510B 51527M 51528M 51528B 51576M 51577M 51577B 51594M 51595M 51595B 51613M 51614M 51614B 51631M
             51632M 51632B 51652M 51653M 51653B 51670M 51671M 51671B 51691M 51692M 51692B 51716M 51717M 51717B 51735M
             51736M 51736B 51753M 51754M 51754B 51774M 51775M 51775B 51792M 51793M 51793B 51813M 51814M 51814B 51838M
             51839M 51839B 51857M 51860B 51876  51919M 51920  51921  51922  51927M 51928  51931M 51932M 51932B 51935M
             51938  51939  51940  51945M 51946M 51946B 52009M 52010M 52010B 52030M 52031M 52031B 52048M 52049M 52049B
             52075M 52076M 52076B 52093M 52094M 52094B 52114M 52117B 52170  52216M 52217M 52217B 52245M 52246M 52246B
             52273M 52276B 52296  52349M 52350M 52350B 52367M 52368M 52368B 52396M 52397M 52397B 52453M 52454M 52454B
             52471M 52474B 52490  52521M 52522M 52522B 52527M 52528M 52528B 52547M 52550B 52639  52690M 52691M 52691B
             52805M 52806M 52806B 52819M 52820M 52820B 52844M 52845M 52845B 52864M 52865M 52865B 52919M 52922B 52940
             52987M 52988M 52988B 53013M 53016B 53032  53083M 53084M 53084B 53106M 53109B 53125  53157M 53157  53175M
             53176M 53201M 53202M 53202B 53225M 53226M 53226B 53243M 53244M 53244B 53261M 53264B 53301  53360M 53361M
             53361B 53377M 53378  53379  53380  53385M 53386  53389M 53390M 53390B 53393M 53396  53397  53398  53403M
             53404M 53404B 53460M 53461M 53461B 53483M 53484M 53484B 53534M 53535M 53535B 53582M 53583M 53583B 53611M
             53614B 53708  53739M 53740M 53740B 53746M 53747M 53747B 53817M 53820B 53832  53888M 53891B 53903  53959M
             53962B 53974  54023M 54024M 54024B 54048M 54049M 54049B 54064M 54065M 54065B 54090M 54091M 54091B 54106M
             54107M 54107B 54135M 54138B 54163  54217M 54218M 54218B 54237M 54240B 54256  54318M 54319M 54319B 54352M
             54353M 54353B 54379M 54380M 54380B 54397M 54398M 54398B 54420M 54423B 54439  54470M 54471M 54471B 54552M
             54553M 54553B 54578M 54581B 54655  54686M 54687M 54687B 54705M 54708B 54724  54755M 54756M 54756B 54806M
             54807M 54807B 54856M 54857M 54857B 54940M 54941M 54941B 54988M 54989M 54989B 55016M 55017M 55017B 55025M
             55026N 55027N 55031M 55031  55034M 55035M 55035B 55038M 55039M 55039B 55042M 55043M 55043B 55050M 55051M
             55051B 55166M 55169B 55185  55216M 55217M 55217B 55378M 55379M 55379B 55393M 55394M 55394B 55417M 55418M
             55418B 55449M 55450M 55450B 55469M 55470M 55470B 55493M 55494M 55494B 55531M 55532M 55532B 55546M 55547M
             55547B 55570M 55571M 55571B 55602M 55603M 55603B 55620M 55621M 55621B 55644M 55645M 55645B 55667M 55670B
             55716  55796M 55797M 55797B 55812M 55813  55814  55815  55823M 55824M 55824B 55827M 55830  55831  55832
             55837M 55838M 55838B 55887M 55888M 55888B 55912M 55913M 55913B 55937M 55938M 55938B 55955M 55956  55957
             55958  55963M 55964  55967M 55968M 55968B 55971M 55974  55975  55976  55981M 55982M 55982B 56173M 56174M
             56174B 56193M 56194M 56194B 56221M 56224B 56306  56494M 56497B 56516  56620M 56621M 56621B 56673M 56676B
             56692  56744M 56745M 56745B 56760M 56761  56762  56763  56768M 56769  56772M 56773M 56773B 56776M 56779
             56780  56781  56786M 56787M 56787B 56852M 56853M 56853B 56870M 56871M 56871B 56904M 56905M 56905B 56936M
             56939B 57086  57167M 57168M 57168B 57200M 57201  57202  57203  57211M 57212M 57212B 57215M 57218  57219
             57220  57225M 57226M 57226B 57296M 57297M 57297B 57334M 57335M 57335B 57352M 57353M 57353B 57409M 57410M
             57410B 57415M 57416M 57416B 57445M 57446M 57446B 57478M 57481B 57493  57591M 57592M 57592B 57609M 57610M
             57610B 57688M 57689M 57689B 57706M 57707M 57707B 57729M 57732B 57763  57824M 57825M 57825B 57850M 57851
             57852  57853  57861M 57862M 57862B 57865M 57868  57869  57870  57875M 57876M 57876B 57916M 57917M 57917B
             57940M 57943B 57955  58053M 58054M 58054B 58071M 58072M 58072B 58156M 58157M 58157B 58174M 58175M 58175B
             58197M 58200B 58225  58448M 58449M 58449B 58473M 58474M 58474B 58507M 58508M 58508B 58535M 58536M 58536B
             58569M 58570M 58570B 58597M 58598M 58598B 58615M 58616M 58616B 58644M 58645M 58645B 58685M 58686M 58686B
             58703M 58704M 58704B 58728M 58729M 58729B 58746M 58747M 58747B 58772M 58775B
    15(F)      922U  2308M  2308   6183  11132M 11132  11226M 11226  11280M 11280  11309M 11309  11377M 11377  11516M
             11516  11656M 11656  11728M 11728  11753M 11762M 11762  11768M 11777M 11777  11783M 11784M 11786M 11787
             11799M 11799  11800  11858M 11858  11939M 11939  12001M 12001  12069M 12069  12136M 12136  12221M 12221
             12293M 12293  12382M 12382  12455M 12455  12529M 12529  12616M 12616  12642M 12642  12723M 12723  12780M
             12780  12859M 12859  12906M 12906  12969M 12969  13032M 13032  13105M 13105  13130M 13130  13268M 13268
             13276M 13454M 13454  13556M 13556  13564M 13714M 13714  13780M 13780  13852M 13852  13900M 13935M 13935
             13981M 13981  14083M 14083  14091M 14092M 14092N 14107M 14124M 14135  14172M 14393M 14393  14466M 14466
             14491M 14491  14576M 14576  14650M 14650  14659M 14659  14678M 14678  14745M 14745  14846M 14855M 14855
             14861M 14870M 14870  14876M 14877M 14879M 14880  14892M 14892  14893  14898M 14917M 14917  14960M 14979M
             14979  15056M 15056  15081M 15081  15148M 15148  15214M 15214  15374M 15374  15399M 15399  15465M 15465
             15532M 15532  15674M 15674  15779M 15798M 15855M 15855  15932M 15932  16009M 16009  16085M 16085  16162M
             16162  16232M 16232  16319M 16319  16397M 16397  16434M 16434  16491  17046M 17065M 17065  17139M 17139
             17165M 17165  17338M 17338  17462M 17462  17515M 17516M 17517  17560M 17604M 17604  20341M 20341  20408M
             20408  20492M 20492  20577M 20577  20643M 20643  20728M 20728  20797M 20797  21288M 21316M 21316  21418M
             21418  21482M 21482  21507M 21507  22080M 22080  22145M 22145  22220M 22220  22259M 22553M 22567M 22614M
             22657M 22657  22794M 22794  22884M 22974M 22974  23199M 23229M 23229  23369M 23369  23439M 23439  23576M
             23606M 23606  23751M 23751  23839M 23839  24025M 24055M 24055  24176M 24207M 24207  24338M 24338  24377M
             24456M 24456  24598M 24598  24720M 24720  24894M 24924M 24924  25069M 25069  25162M 25162  25309M 25339M
             25339  25450M 25450  25489M 25530M 25530  25605M 25605  25644M 25685M 25685  25760M 25760  25799M 25840M
             25840  25915M 25915  25954M 25972M 26007M 26007  26082M 26082  26121M 26139M 26174M 26174  26249M 26249
             26288M 26332M 26332  26407M 26407  26446M 26490M 26490  26565M 26565  26604M 26646M 26646  26725M 26725
1         (MODE4072) (12:48) (15MAR04) General Purpose Register Cross Reference                                             Page  295
             26764M 26806M 26806  26888M 26888  26927M 26964M 26964  27039M 27039  27078M 27118M 27118  27193M 27193
             27232M 27275M 27275  27421M 27421  27462M 27480M 27508M 27543M 27571M 27589M 27612M 27637M 27662M 27681M
             27712M 27748M 27784M 27855M 27885M 27903M 27922M 27950M 27968M 27996M 28031M 28074M 28120M 28138M 28159M
             28177M 28206M 28225M 28267M 28304M 28337M 28380M 28434M 28461M 28502M 28530M 28563M 28595M 28630M 28665M
             28699M 28734M 28789M 28831M 28886M 28928M 28946M 28954M 28989M 29021M 29055M 29055  29245M 29245  29317M
             29339M 29393M 29428M 29450M 29485M 29507M 29543M 29565M 29600M 29622M 29677M 29685M 29724M 29742M 29751M
             29786M 29804M 29823M 29847M 29847  29926M 29948M 29974M 29998M 29998  30078M 30100M 30129M 30129  30281M
             30281  30367M 30367  30468M 30468  30522M 30522  30552M 30552  30662M 30662  30733M 30750M 30759M 30759
             30765M 30774M 30774  30780M 30781M 30783M 30784  30796M 30796  30797  30833M 30833  30845  30864M 30898M
             30898  31121M 31126M 31145M 31145  31200M 31205M 31224M 31224  31279M 31284M 31303M 31303  31358M 31363M
             31382M 31382  31437M 31442M 31461M 31461  31516M 31521M 31540M 31540  31595M 31600M 31619M 31619  31691M
             31709M 31733M 31733  31802M 31820M 31844M 31844  31916M 31959M 31977M 32005M 32023M 32051M 32051  32129M
             32165M 32183M 32211M 32211  32286M 32329M 32347M 32375M 32375  32450M 32507M 32525M 32553M 32553  32628M
             32671M 32689M 32717M 32717  32792M 32835M 32853M 32881M 32881  32939M 32957M 32981M 32981  33040M 33067M
             33085M 33109M 33109  35961M 35961  36035M 36064M 36064  36148M 36181M 36224M 36278M 36305M 36344M 36372M
             36428M 36467M 36504M 36529M 36529  36643M 36643  36697M 36721M 36721  36913M 36913  36976M 36976  37046
             37132M 37194M 37280M 37326M 37357M 37380M 37380  37486M 37570M 37583M 37608M 37650M 37680M 37698M 37706D
             37708M 37708  37709M 37710U 37749M 37767M 37815M 37900M 37932M 37951M 37982M 38000M 38024M 38024  38131M
             38156M 38181M 38218M 38258M 38283M 38283  38412M 38412  38443M 38443  38552M 38552  38645M 38663M 38688M
             38722M 38747M 38786M 38811M 38938M 38963M 38986M 38999M 39024M 39045M 39091M 39129M 39147M 39172M 39200M
             39218M 39270M 39298M 39316M 39321M 39322M 39328  39340M 39358M 39380M 39398M 39426M 39444M 39466M 39484M
             39506M 39524M 39546M 39564M 39597M 39618M 39629M 39656M 39681M 39700M 39714M 39741M 39766M 39785M 39790M
             39800U 39813U 39848M 39875M 39900M 39919M 39924M 39934U 39947U 39949M 39976M 40001M 40026M 40044M 40052M
             40062U 40075U 40176M 40218M 40243M 40268M 40293M 40311M 40333M 40351M 40382M 40407M 40428M 40446M 40467M
             40485M 40506M 40524M 40571M 40589M 40614M 40658M 40705M 40723M 40766M 40784M 40809M 40834M 40852M 40870M
             40895M 40915M 40941M 41002M 41021M 41051M 41069M 41099M 41123M 41141M 41165M 41183M 41208M 41288M 41306M
             41339M 41357M 41379M 41397M 41419M 41437M 41460M 41478M 41506M 41524M 41555M 41560M 41561M 41567  41579M
             41597M 41628M 41650M 41668M 41699M 41720M 41738M 41759M 41777M 41805M 41823M 41829M 41830M 41836  41851M
             41869M 41891M 41909M 41915M 41916M 41922  41937M 41955M 41961M 41962M 41968  41983M 42001M 42007M 42008M
             42014  42029M 42047M 42073M 42091M 42096M 42097M 42103  42115M 42133M 42161M 42183M 42201M 42224M 42242M
             42264M 42282M 42305M 42323M 42345M 42363M 42405M 42437M 42463M 42485M 42503M 42525M 42543M 42567M 42610M
             42628M 42656M 42685M 42685  42847M 42865M 42977M 43005M 43049M 43082M 43100M 43124M 43164M 43182M 43200M
             43234M 43310M 43329M 43359M 43377M 43407M 43432M 43450M 43481M 43499M 43524M 43542M 43567M 43585M 43649M
             43649  43784M 43784  43822M 43852M 43870M 43900M 43918M 43951M 43969M 43977M 43987U 44000U 44070M 44112M
             44133M 44175M 44213M 44231M 44256M 44256  44347M 44357U 44370U 44397M 44397  44479M 44497M 44522M 44547M
             44567M 44580M 44605M 44632M 44657M 44684M 44702M 44708M 44709M 44710M 44716  44731M 44749M 44775M 44793M
             44819M 44837M 44862M 44888M 44906M 44931M 44958M 44976M 44982M 44983M 44989  45004M 45022M 45048M 45066M
             45091M 45091  45266M 45266  45390M 45390  45494M 45494  45621M 45621  45746M 45746  45909M 45909  45920M
             45921M 45922  45948M 45948  46198M 46232M 46270M 46308M 46346M 46384M 46422M 46460M 46488M 46488  46621M
             46622M 46623  46643M 46643  46733M 46762M 46786M 46786  46888M 46888  46919M 46919  47068M 47068  47127M
             47235M 47261M 47261  47363M 47363  47389M 47389  47482M 47482  47526M 47563M 47563  47641M 47684M 47714M
             47714  47847M 47847  47946M 47946  48260M 48260  48300M 48376M 48386U 48392M 48399U 48411M 48411  48439U
             48458U 48598M 48599M 48600  48643M 48667M 48685M 48715M 48729M 48754M 48785M 48834M 48864M 48878M 48903M
             48909M 48956M 48991M 49015M 49045M 49069M 49087M 49117M 49131M 49156M 49240M 49289M 49319M 49333M 49358M
             49364M 49411M 49450M 49474M 49507M 49507  49837M 49837  49898M 49898  49959M 49959  50020M 50020  50087M
             50087  50148M 50148  50209M 50209  50270M 50270  50331M 50331  50392M 50392  50503M 50524M 50542M 50563M
             50581M 50606M 50625M 50659M 50711M 50779M 50802M 50827M 50852M 50871M 50876M 50894M 50915M 50933M 50958M
             50976M 51010M 51077M 51082M 51100M 51106M 51139M 51157M 51186M 51211M 51232M 51253M 51271M 51290M 51314M
             51332M 51351M 51375M 51393M 51399M 51417M 51423M 51441M 51466M 51485M 51506M 51524M 51529M 51539U 51545M
             51552U 51554M 51555M 51561  51573M 51591M 51610M 51628M 51649M 51667M 51688M 51713M 51732M 51750M 51771M
             51789M 51810M 51835M 51859M 51859  51941M 51941  52006M 52027M 52045M 52072M 52090M 52116M 52116  52256M
             52256  52275M 52275  52326  52328M 52334  52346M 52364M 52371M 52374  52381  52393M 52400M 52416  52450M
             52473M 52473  52524M 52549M 52549  52707M 52730M 52802M 52816M 52841M 52861M 52900M 52921M 52921  53015M
             53015  53061M 53062M 53068  53080M 53108M 53108  53159M 53159  53174M 53175M 53176M 53222M 53240M 53263M
             53263  53399M 53399  53439M 53531M 53579M 53613M 53613  53742M 53767M 53784M 53793M 53794  53800M 53800
             53819M 53819  53863M 53864M 53865  53871M 53871  53890M 53890  53934M 53935M 53936  53942M 53942  53961M
             53961  54070  54112  54118M 54118  54137M 54137  54193M 54214M 54239M 54239  54315M 54349M 54376M 54394M
             54422M 54422  54522M 54523M 54534N 54549M 54580M 54580  54707M 54707  55098M 55102M 55111M 55111  55118
             55145M 55146M 55147  55168M 55168  55389M 55414M 55446M 55490M 55542M 55567M 55599M 55641M 55669M 55669
1         (MODE4072) (12:48) (15MAR04) General Purpose Register Cross Reference                                             Page  296
             55833M 55833  55920M 55977M 55977  56223M 56223  56496M 56496  56675M 56675  56782M 56782  56849M 56867M
             56901M 56938M 56938  57221M 57221  57331M 57349M 57377M 57377  57405  57412M 57480M 57480  57588M 57606M
             57685M 57703M 57731M 57731  57871M 57871  57942M 57942  58050M 58068M 58153M 58171M 58199M 58199  58445M
             58470M 58504M 58532M 58566M 58594M 58612M 58641M 58682M 58700M 58725M 58743M 58774M 58774

1MODE     (MODE4072) (12:48) (15MAR04) Diagnostic Cross Reference and Assembler Summary                                     Page  297
-                                                                                            HLASM R4.0  2004/03/15 12.48
0     No Statements Flagged in this Assembly
 HIGH LEVEL ASSEMBLER, 5696-234, RELEASE 4.0, PTF P72483
0SYSTEM: OS/390 02.10.00            JOBNAME: WYL#MODE    STEPNAME: ASM        PROCSTEP: (NOPROC)
0Datasets Allocated for this Assembly
  Con DDname   Dataset Name                                 Volume  Member
   P1 SYSIN    WYL.GS.WYL.WYLBUR.SOURCE                     SYSB05  MODE
   L1 SYSLIB   WYL.GS.WYL.WYLBUR.MACLIB                     SYSB05
   L2          WYL.GG.SYS.MACLIB                            SYSB05
   L3          SYS3.IS.MACLIB                               SYSB05
   L4          SYS3.MACLIB                                  SYSB02
   L5          SYS1.MACLIB                                  MVSBR9
   L6          SYS1.MODGEN                                  MVSBR9
      SYSPRINT SYS04075.T124857.RA000.WYL#MODE.PRINT.H01    SCR100
      SYSTERM  GG$SLP.WYL#MODE.JOB03544.D0000101.?

    3668K allocated to Buffer Pool,         8121K would be required for this to be an In-Storage Assembly
    4536 Primary Input Records Read        20864 Library Records Read               1087 Work File Reads
       0 ASMAOPT Records Read              32986 Primary Print Records Written      1118 Work File Writes
       0 Punch Records Written                 0 ADATA Records Written
0Assembly Start Time: 12.48.59 Stop Time: 12.49.25 Processor Time: 00.00.11.6428
 Return Code 000
