1         (WGS2193) (13:01) (15MAR04) General Purpose Register Cross Reference                                              Page  254
             14357M 14477  14633M 14681  14722M 14746  14786M 14843  14923M 16637M 16794  16830M 18454M 18599  18889M
             18944  18980M 20449M 20591  20670M 22730M 23161  23241M 24192M 24341  24431M 24451  24541M 24588  24635M
             24657  24704M 24726  24773M 24795  24842M 24864  24911M 24933  24980M 25002  25049M 25071  25118M 25140
             25187M 26147  26208M 26228  26318M 26338  26428M 26448  26538M 26558  26648M 26668  26729M 26749  26811M
             26831  26894M 26914  26983M 27003  27072M 27092  27175M 27195  27600M 27620  27708M 27728  27879M 27899
             27989M 28009  28057M 28077  28124M 28144  28205M 28225  28286M 28306  28367M 28387  28448M 28468  28509M
             28529  28576M 28596  28686M 28706  28796M 28816  28906M 28926  28987M 29007  29068M 29088  29149M 29169
             29230M 29250  29296M 29316  29362M 29382  29428M 29448  29494M 29514  29580M 29600  29667M 29690  30228M
             30253U 30342  30532M 30614  30655M 30675  30716M 30771  31027M 31088  31149M 31364  31387  31427M 31522
             31640M 31703  31740M 31748U 32028M 32046U 32122  32421M 32460  32504M 32506M 32515M 32515  32533  32534
             32535M 32639M 32690  32731M 32733M 32735M 32744M 32744  32773  32779M 32784  32785  32786M 32855M 32922
             32966M 32967M 32977M 32977  32996  33002M 33003M 33277M 33281M 33290M 33290  33297  33322M 33323M 33324M
             33333M 33333  33341M 33343  33403M 33472  33554M 33555M 33576M 33586  33598M 33622  33628M 33629M 33845M
             33879  33909  33910  33991M 34064  34341M 34434  34632M 34668  34907M 34938  35006M 35034  35110M 35143
             35446M 35473  35716M 35742  35985M 36185  36363M 36383  36427M 36447  36491M 36519  36681M 36725  36948M
             37016  37081M 37122  37226M 37246  37322M 37407  37467  37530M 37538U 37787M 37805U 37838  38374M 38416
             38508M 38543  38640M 38680  38718M 38728U 38924U 38937M 39002  39145M 39169  39318M 39422  39495M 39495
             39564M 39564  39565M 39566M 39567M 39568  39594M 39657  39967M 40018  40059M 40060M 40061M 40481M 40545
             40646M 40647M 40659M 40659  40706M 40745  40846M 40847  40907M 40919M 40919  40970M 41008  41109M 41110M
             41122M 41122  41236M 41284  41427M 41428M 41441M 41441  41492M 41825  41882M 41890U 42490M 42509U 42577
             42622M 42808  43563M 43652M 43661  43681M 43703M 43703  43734M 43807M 43897M 43938  43998M 43999M 44206M
             44219  44252M 44252  44318  44339M 44369  44390M 44418  44427M 44453  44461M 44490  44567  44588M 44618
             44639M 44667  44676M 44702  44710M 44739  44971M 44971  45098M 45098  45128  45355  45488  45522  45617
             45651  45735  46049  46344  46392  46573M 46583U 46627  46644  46673U 46829M 46957  47042M 47089M 47089
             47214  47314  47454M 47480M 47482M 47504M 47519M 47519  47533  47610M 47610  47722M 47924M 48008M
     6(6)      958U  2098   7931   8061M  8124   8224M  8296   8322M  8330U 10153M 10249  10275M 11356M 11446  11472M
             11890M 11998  12206M 12281  12307M 13225M 13438  13464M 14357M 14477  14633M 14681  14786M 14843  14870M
             16637M 16794  16821M 18454M 18599  18889M 18944  18971M 20449M 20591  20617M 22730M 23161  23188M 24192M
             24341  24431M 24451  24541M 24588  24635M 24657  24704M 24726  24773M 24795  24842M 24864  24911M 24933
             24980M 25002  25049M 25071  25118M 25140  25187M 26147  26208M 26228  26318M 26338  26428M 26448  26538M
             26558  26648M 26668  26729M 26749  26811M 26831  26894M 26914  26983M 27003  27072M 27092  27175M 27195
             27600M 27620  27708M 27728  27879M 27899  27989M 28009  28057M 28077  28124M 28144  28205M 28225  28286M
             28306  28367M 28387  28448M 28468  28509M 28529  28576M 28596  28686M 28706  28796M 28816  28906M 28926
             28987M 29007  29068M 29088  29149M 29169  29230M 29250  29296M 29316  29362M 29382  29428M 29448  29494M
             29514  29580M 29600  29667M 29690  30228M 30246U 30342  30369M 30377U 30532M 30614  30655M 30675  30716M
             30771  30798M 31027M 31038U 31088  31115M 31123U 31427M 31438U 31522  31559M 31567U 31640M 31651U 31703
             31730M 31738U 32028M 32039U 32122  32158M 32166U 32421M 32460  32487M 32495U 32498U 32639M 32650U 32690
             32717M 32725U 32855M 32922  32959M 33403M 33414U 33472  33509M 33517U 33991M 34002U 34064  34341M 34434
             34460M 34468U 34632M 34643U 34668  34694M 34702U 34907M 34918U 34938  34964M 34972U 35006M 35017U 35034
             35110M 35143  35446M 35473  35716M 35742  35985M 36185  36363M 36383  36427M 36447  36491M 36519  36681M
             36725  36948M 37016  37081M 37122  37226M 37246  37322M 37407  37434M 37442U 37467  37787M 37798U 37838
             37865M 37873U 38374M 38385U 38416  38443M 38451U 38508M 38519U 38543  38570M 38578U 38640M 38651U 38680
             38707M 38715U 38937M 38948U 39002  39145M 39169  39195M 39203U 39318M 39329U 39422  39496M 39567  39569M
             39594M 39657  39967M 40018  40481M 40545  40706M 40745  40970M 41008  41236M 41284  41429M 41430M 41455
             41492M 41825  41872M 41880U 42490M 42502U 42577  42622M 42808  43562M 43651M 43660  43933  43999  44204M
             44214  44338M 44389M 44425M 44460M 44485  44587M 44638M 44674M 44709M 44734  45483  45612  45730  46044
             46339  46387  46829M 46957  47041M 47314N 47399N 47478M 47502M 47654  47720M 47775  47922M 48008M
     7(7)      954U  2091M  2091   2092B  2098   2104B  7931   7936M  7948U  8053U  8061M  8124   8129M  8141U  8216U
              8224M  8296   8301M  8313U 10145U 10153M 10249  10254M 10266U 11348U 11356M 11446  11451M 11463U 11882U
             11890M 11998  12004M 12016U 12198U 12206M 12281  12286M 12298U 13217U 13225M 13438  13443M 13455U 14349U
             14357M 14477  14482M 14494U 14625U 14633M 14681  14686M 14698U 14778U 14786M 14843  14848M 14860U 16629U
             16637M 16794  16799M 16811U 18446U 18454M 18599  18604M 18616U 18881U 18889M 18944  18949M 18961U 20441U
             20449M 20591  20596M 20608U 22722U 22730M 23161  23166M 23178U 24184U 24192M 24341  24346M 24358U 24423U
             24431M 24451  24456M 24468U 24533U 24541M 24588  24593M 24605U 24627U 24635M 24657  24662M 24674U 24696U
             24704M 24726  24731M 24743U 24765U 24773M 24795  24800M 24812U 24834U 24842M 24864  24869M 24881U 24903U
             24911M 24933  24938M 24950U 24972U 24980M 25002  25007M 25019U 25041U 25049M 25071  25076M 25088U 25110U
             25118M 25140  25145M 25157U 25179U 25187M 26147  26152M 26164U 26200U 26208M 26228  26233M 26245U 26310U
             26318M 26338  26343M 26355U 26420U 26428M 26448  26453M 26465U 26530U 26538M 26558  26563M 26575U 26640U
             26648M 26668  26673M 26685U 26721U 26729M 26749  26754M 26766U 26803U 26811M 26831  26836M 26848U 26886U
1         (WGS2193) (13:01) (15MAR04) General Purpose Register Cross Reference                                              Page  255
             26894M 26914  26919M 26931U 26975U 26983M 27003  27008M 27020U 27064U 27072M 27092  27097M 27109U 27167U
             27175M 27195  27200M 27212U 27592U 27600M 27620  27625M 27637U 27700U 27708M 27728  27733M 27745U 27871U
             27879M 27899  27904M 27916U 27981U 27989M 28009  28014M 28026U 28049U 28057M 28077  28082M 28094U 28116U
             28124M 28144  28149M 28161U 28197U 28205M 28225  28230M 28242U 28278U 28286M 28306  28311M 28323U 28359U
             28367M 28387  28392M 28404U 28440U 28448M 28468  28473M 28485U 28501U 28509M 28529  28534M 28546U 28568U
             28576M 28596  28601M 28613U 28678U 28686M 28706  28711M 28723U 28788U 28796M 28816  28821M 28833U 28898U
             28906M 28926  28931M 28943U 28979U 28987M 29007  29012M 29024U 29060U 29068M 29088  29093M 29105U 29141U
             29149M 29169  29174M 29186U 29222U 29230M 29250  29255M 29267U 29288U 29296M 29316  29321M 29333U 29354U
             29362M 29382  29387M 29399U 29420U 29428M 29448  29453M 29465U 29486U 29494M 29514  29519M 29531U 29572U
             29580M 29600  29605M 29617U 29659U 29667M 29690  29695M 29707U 30220U 30228M 30342  30347M 30359U 30524U
             30532M 30614  30619M 30631U 30647U 30655M 30675  30680M 30692U 30708U 30716M 30771  30776M 30788U 31019U
             31027M 31088  31093M 31105U 31419U 31427M 31522  31528M 31540U 31632U 31640M 31703  31708M 31720U 32020U
             32028M 32122  32128M 32140U 32413U 32421M 32460  32465M 32477U 32631U 32639M 32690  32695M 32707U 32847U
             32855M 32922  32928M 32940U 33395U 33403M 33472  33478M 33490U 33983U 33991M 34064  34069M 34081U 34333U
             34341M 34434  34439M 34451U 34624U 34632M 34668  34673M 34685U 34899U 34907M 34938  34943M 34955U 34998U
             35006M 35034  35039M 35051U 35102U 35110M 35143  35148M 35160U 35438U 35446M 35473  35478M 35490U 35708U
             35716M 35742  35747M 35759U 35977U 35985M 36185  36191M 36203U 36355U 36363M 36383  36388M 36400U 36419U
             36427M 36447  36452M 36464U 36483U 36491M 36519  36524M 36536U 36673U 36681M 36725  36730M 36742U 36940U
             36948M 37016  37021M 37033U 37073U 37081M 37122  37128M 37140U 37218U 37226M 37246  37251M 37263U 37314U
             37322M 37407  37412M 37424U 37467  37779U 37787M 37838  37843M 37855U 38366U 38374M 38416  38421M 38433U
             38500U 38508M 38543  38548M 38560U 38632U 38640M 38680  38685M 38697U 38929U 38937M 39002  39008M 39020U
             39137U 39145M 39169  39174M 39186U 39310U 39318M 39422  39427M 39439U 39586U 39594M 39657  39663M 39675U
             39959U 39967M 40018  40024M 40036U 40473U 40481M 40545  40550M 40562U 40698U 40706M 40745  40750M 40762U
             40962U 40970M 41008  41013M 41025U 41228U 41236M 41284  41289M 41301U 41484U 41492M 41825  41831M 41843U
             42482U 42490M 42577  42582M 42594U 42614U 42622M 42808  42814M 42826U 46821U 46829M 46957  46963M 46975U
             48000U 48008M
     8(8)      950U  2098   7931   7932M  8046N  8057   8061M  8124   8125M  8220   8224M  8296   8297M 10149  10153M
             10249  10250M 11352  11356M 11446  11447M 11886  11890M 11998  12000M 12030U 12193U 12202  12206M 12281
             12282M 13221  13225M 13438  13439M 14353  14357M 14477  14478M 14629  14633M 14681  14682M 14782  14786M
             14843  14844M 16633  16637M 16794  16795M 18450  18454M 18599  18600M 18885  18889M 18944  18945M 20445
             20449M 20591  20592M 22726  22730M 23161  23162M 24188  24192M 24341  24342M 24427  24431M 24451  24452M
             24537  24541M 24588  24589M 24620N 24631  24635M 24657  24658M 24689N 24700  24704M 24726  24727M 24758N
             24769  24773M 24795  24796M 24827N 24838  24842M 24864  24865M 24896N 24907  24911M 24933  24934M 24965N
             24976  24980M 25002  25003M 25034N 25045  25049M 25071  25072M 25103N 25114  25118M 25140  25141M 25172N
             25183  25187M 26147  26148M 26204  26208M 26228  26229M 26314  26318M 26338  26339M 26424  26428M 26448
             26449M 26534  26538M 26558  26559M 26644  26648M 26668  26669M 26725  26729M 26749  26750M 26807  26811M
             26831  26832M 26890  26894M 26914  26915M 26979  26983M 27003  27004M 27068  27072M 27092  27093M 27171
             27175M 27195  27196M 27596  27600M 27620  27621M 27704  27708M 27728  27729M 27875  27879M 27899  27900M
             27985  27989M 28009  28010M 28053  28057M 28077  28078M 28120  28124M 28144  28145M 28201  28205M 28225
             28226M 28282  28286M 28306  28307M 28363  28367M 28387  28388M 28444  28448M 28468  28469M 28505  28509M
             28529  28530M 28572  28576M 28596  28597M 28682  28686M 28706  28707M 28792  28796M 28816  28817M 28902
             28906M 28926  28927M 28983  28987M 29007  29008M 29064  29068M 29088  29089M 29145  29149M 29169  29170M
             29226  29230M 29250  29251M 29292  29296M 29316  29317M 29358  29362M 29382  29383M 29424  29428M 29448
             29449M 29490  29494M 29514  29515M 29576  29580M 29600  29601M 29663  29667M 29690  29691M 30224  30228M
             30342  30343M 30528  30532M 30614  30615M 30651  30655M 30675  30676M 30712  30716M 30771  30772M 31023
             31027M 31088  31089M 31398  31423  31427M 31522  31524M 31554U 31627U 31636  31640M 31703  31704M 32024
             32028M 32122  32124M 32154U 32408U 32417  32421M 32460  32461M 32620  32635  32639M 32690  32691M 32836
             32851  32855M 32922  32924M 32954U 33382  33390U 33399  33403M 33472  33474M 33504U 33970  33978U 33987
             33991M 34064  34065M 34337  34341M 34434  34435M 34628  34632M 34668  34669M 34903  34907M 34938  34939M
             35002  35006M 35034  35035M 35106  35110M 35143  35144M 35431  35442  35446M 35473  35474M 35712  35716M
             35742  35743M 35981  35985M 36185  36187M 36217U 36350U 36359  36363M 36383  36384M 36423  36427M 36447
             36448M 36487  36491M 36519  36520M 36677  36681M 36725  36726M 36944  36948M 37016  37017M 37077  37081M
             37122  37124M 37154U 37213U 37222  37226M 37246  37247M 37318  37322M 37407  37408M 37467  37783  37787M
             37838  37839M 38359  38370  38374M 38416  38417M 38504  38508M 38543  38544M 38636  38640M 38680  38681M
             38880N 38908N 38933  38937M 39002  39004M 39034U 39132U 39141  39145M 39169  39170M 39314  39318M 39422
             39423M 39590  39594M 39657  39659M 39689U 39954U 39963  39967M 40018  40020M 40050U 40468U 40477  40481M
             40545  40546M 40682N 40702  40706M 40745  40746M 40942N 40966  40970M 41008  41009M 41221  41232  41236M
             41284  41285M 41477  41488  41492M 41825  41827M 41857U 42477U 42486  42490M 42577  42578M 42618  42622M
             42808  42810M 42840U 46679  46816U 46825  46829M 46957  46959M 46989U 47972  47995U 48004  48008M
1         (WGS2193) (13:01) (15MAR04) General Purpose Register Cross Reference                                              Page  256
     9(9)      946U  2098  14541N 15874  16004  16289M 16289  16377M 16377  17691  17821  18106M 18106  18194M 18194
             19640  19789  20101M 20101  20189M 20189  37467
    10(A)      942U  2098  37467
    11(B)      938U  1162U  2098  37467
    12(C)      934U  1171U  2098  37467
    13(D)      930U  2098   7928   7931   7932   7933M  7933   8057M  8061   8063   8121   8124   8125   8126M  8126
              8220M  8224   8226   8293   8296   8297   8298M  8298   9527   9529M  9529   9573   9574   9575   9577M
              9577   9590M  9591   9592   9593   9604M 10149M 10153  10155  10246  10249  10250  10251M 10251  10863
             10865M 10865  10909  10910  10911  10913M 10913  10926M 10927  10928  10929  10940M 11188  11190M 11190
             11230  11231  11232  11234M 11234  11247M 11248  11249  11250  11256M 11302  11303M 11303  11309M 11310
             11352M 11356  11358  11443  11446  11447  11448M 11448  11731  11733M 11733  11773  11774  11775  11777M
             11777  11790M 11791  11792  11793  11799M 11832  11833M 11833  11843M 11844  11886M 11890  11892  11995
             11998  12000  12001M 12001  12202M 12206  12208  12278  12281  12282  12283M 12283  12739  12741M 12741
             12785  12786  12787  12789M 12789  12802M 12803  12804  12805  12816M 13066  13068M 13068  13108  13109
             13110  13112M 13112  13125M 13126  13127  13128  13134M 13167  13168M 13168  13178M 13179  13221M 13225
             13227  13435  13438  13439  13440M 13440  13883  13885M 13885  13929  13930  13931  13933M 13933  13946M
             13947  13948  13949  13960M 14198  14200M 14200  14240  14241  14242  14244M 14244  14257M 14258  14259
             14260  14266M 14299  14300M 14300  14310M 14311  14353M 14357  14359  14474  14477  14478  14479M 14479
             14504  14505M 14505  14617M 14618  14629M 14633  14635  14678  14681  14682  14683M 14683  14782M 14786
             14788  14840  14843  14844  14845M 14845  15568  15570M 15570  15614  15615  15616  15618M 15618  15631M
             15632  15633  15634  15645M 15855  15856M 15856  15876M 15877  15894M 15895  15956  15957M 15957  16006M
             16007  16030M 16031  16106  16107M 16107  16126M 16127  16134M 16135  16424  16426M 16426  16466  16467
             16468  16470M 16470  16483M 16484  16485  16486  16492M 16583  16584M 16584  16590M 16591  16633M 16637
             16639  16791  16794  16795  16796M 16796  17374  17376M 17376  17420  17421  17422  17424M 17424  17437M
             17438  17439  17440  17451M 17672  17673M 17673  17693M 17694  17711M 17712  17773  17774M 17774  17823M
             17824  17847M 17848  17923  17924M 17924  17943M 17944  17951M 17952  18241  18243M 18243  18283  18284
             18285  18287M 18287  18300M 18301  18302  18303  18309M 18400  18401M 18401  18407M 18408  18450M 18454
             18456  18596  18599  18600  18601M 18601  18885M 18889  18891  18941  18944  18945  18946M 18946  19334
             19336M 19336  19380  19381  19382  19384M 19384  19397M 19398  19399  19400  19411M 19621  19622M 19622
             19642M 19643  19660M 19661  19722  19723M 19723  19791M 19792  19815M 19816  19895  19896M 19896  19934M
             19935  19946M 19947  20236  20238M 20238  20278  20279  20280  20282M 20282  20295M 20296  20297  20298
             20304M 20395  20396M 20396  20402M 20403  20445M 20449  20451  20588  20591  20592  20593M 20593  21048
             21050M 21050  21094  21095  21096  21098M 21098  21111M 21112  21113  21114  21125M 22242  22243M 22243
             22313M 22314  22571  22573M 22573  22613  22614  22615  22617M 22617  22630M 22631  22632  22633  22639M
             22672  22673M 22673  22683M 22684  22726M 22730  22732  23158  23161  23162  23163M 23163  23580  23582M
             23582  23626  23627  23628  23630M 23630  23643M 23644  23645  23646  23657M 24033  24035M 24035  24075
             24076  24077  24079M 24079  24092M 24093  24094  24095  24101M 24134  24135M 24135  24145M 24146  24188M
             24192  24194  24338  24341  24342  24343M 24343  24368  24369M 24369  24388M 24389  24427M 24431  24433
             24448  24451  24452  24453M 24453  24478  24479M 24479  24498M 24499  24537M 24541  24543  24585  24588
             24589  24590M 24590  24631M 24635  24637  24654  24657  24658  24659M 24659  24700M 24704  24706  24723
             24726  24727  24728M 24728  24769M 24773  24775  24792  24795  24796  24797M 24797  24838M 24842  24844
             24861  24864  24865  24866M 24866  24907M 24911  24913  24930  24933  24934  24935M 24935  24976M 24980
             24982  24999  25002  25003  25004M 25004  25045M 25049  25051  25068  25071  25072  25073M 25073  25114M
             25118  25120  25137  25140  25141  25142M 25142  25183M 25187  25189  26144  26147  26148  26149M 26149
             26204M 26208  26210  26225  26228  26229  26230M 26230  26255  26256M 26256  26275M 26276  26314M 26318
             26320  26335  26338  26339  26340M 26340  26365  26366M 26366  26385M 26386  26424M 26428  26430  26445
             26448  26449  26450M 26450  26475  26476M 26476  26495M 26496  26534M 26538  26540  26555  26558  26559
             26560M 26560  26585  26586M 26586  26605M 26606  26644M 26648  26650  26665  26668  26669  26670M 26670
             26725M 26729  26731  26746  26749  26750  26751M 26751  26807M 26811  26813  26828  26831  26832  26833M
             26833  26890M 26894  26896  26911  26914  26915  26916M 26916  26979M 26983  26985  27000  27003  27004
             27005M 27005  27068M 27072  27074  27089  27092  27093  27094M 27094  27171M 27175  27177  27192  27195
             27196  27197M 27197  27596M 27600  27602  27617  27620  27621  27622M 27622  27704M 27708  27710  27725
             27728  27729  27730M 27730  27875M 27879  27881  27896  27899  27900  27901M 27901  27926  27927M 27927
             27946M 27947  27985M 27989  27991  28006  28009  28010  28011M 28011  28053M 28057  28059  28074  28077
             28078  28079M 28079  28120M 28124  28126  28141  28144  28145  28146M 28146  28201M 28205  28207  28222
             28225  28226  28227M 28227  28282M 28286  28288  28303  28306  28307  28308M 28308  28363M 28367  28369
             28384  28387  28388  28389M 28389  28444M 28448  28450  28465  28468  28469  28470M 28470  28505M 28509
             28511  28526  28529  28530  28531M 28531  28572M 28576  28578  28593  28596  28597  28598M 28598  28623
             28624M 28624  28643M 28644  28682M 28686  28688  28703  28706  28707  28708M 28708  28733  28734M 28734
1         (WGS2193) (13:01) (15MAR04) General Purpose Register Cross Reference                                              Page  257
             28753M 28754  28792M 28796  28798  28813  28816  28817  28818M 28818  28843  28844M 28844  28863M 28864
             28902M 28906  28908  28923  28926  28927  28928M 28928  28983M 28987  28989  29004  29007  29008  29009M
             29009  29064M 29068  29070  29085  29088  29089  29090M 29090  29145M 29149  29151  29166  29169  29170
             29171M 29171  29226M 29230  29232  29247  29250  29251  29252M 29252  29292M 29296  29298  29313  29316
             29317  29318M 29318  29358M 29362  29364  29379  29382  29383  29384M 29384  29424M 29428  29430  29445
             29448  29449  29450M 29450  29490M 29494  29496  29511  29514  29515  29516M 29516  29576M 29580  29582
             29597  29600  29601  29602M 29602  29663M 29667  29669  29687  29690  29691  29692M 29692  29738  29740M
             29740  29802  29803  29804  29806M 29806  29818M 29819  29820  29821  29974  29975  29976  29978M 29978
             29990M 29991  29992  29993  30112  30113  30114  30116M 30116  30128M 30129  30130  30131  30176M 30186M
             30224M 30228  30230  30339  30342  30343  30344M 30344  30399  30401M 30401  30445  30446  30447  30449M
             30449  30462M 30463  30464  30465  30507M 30528M 30532  30534  30611  30614  30615  30616M 30616  30651M
             30655  30657  30672  30675  30676  30677M 30677  30712M 30716  30718  30768  30771  30772  30773M 30773
             31023M 31027  31029  31085  31088  31089  31090M 31090  31423M 31427  31429  31519  31522  31524  31525M
             31525  31636M 31640  31642  31700  31703  31704  31705M 31705  32024M 32028  32030  32119  32122  32124
             32125M 32125  32417M 32421  32423  32457  32460  32461  32462M 32462  32539  32540M 32540  32610M 32611
             32635M 32639  32641  32687  32690  32691  32692M 32692  32851M 32855  32857  32919  32922  32924  32925M
             32925  33399M 33403  33405  33469  33472  33474  33475M 33475  33987M 33991  33993  34061  34064  34065
             34066M 34066  34230  34232M 34232  34272  34273  34274  34276M 34276  34289M 34290  34291  34292  34298M
             34337M 34341  34343  34431  34434  34435  34436M 34436  34482  34483  34484  34486M 34486  34496M 34497
             34498  34499  34628M 34632  34634  34665  34668  34669  34670M 34670  34716  34717  34718  34720M 34720
             34730M 34731  34732  34733  34903M 34907  34909  34935  34938  34939  34940M 34940  35002M 35006  35008
             35031  35034  35035  35036M 35036  35071  35072  35073  35075M 35075  35087M 35088  35089  35090  35106M
             35110  35112  35140  35143  35144  35145M 35145  35353  35355M 35355  35395  35396  35397  35399M 35399
             35412M 35413  35414  35415  35422M 35442M 35446  35448  35470  35473  35474  35475M 35475  35625  35627M
             35627  35667  35668  35669  35671M 35671  35684M 35685  35686  35687  35695M 35712M 35716  35718  35739
             35742  35743  35744M 35744  35894  35896M 35896  35936  35937  35938  35940M 35940  35953M 35954  35955
             35956  35964M 35981M 35985  35987  36182  36185  36187  36188M 36188  36359M 36363  36365  36380  36383
             36384  36385M 36385  36423M 36427  36429  36444  36447  36448  36449M 36449  36487M 36491  36493  36516
             36519  36520  36521M 36521  36677M 36681  36683  36722  36725  36726  36727M 36727  36797  36799M 36799
             36839  36840  36841  36843M 36843  36856M 36857  36858  36859  36869M 36944M 36948  36950  37013  37016
             37017  37018M 37018  37077M 37081  37083  37119  37122  37124  37125M 37125  37222M 37226  37228  37243
             37246  37247  37248M 37248  37283  37284  37285  37287M 37287  37299M 37300  37301  37302  37318M 37322
             37324  37404  37407  37408  37409M 37409  37467  37783M 37787  37789  37835  37838  37839  37840M 37840
             37950  37951M 37951  37980M 37981  37998  37999M 37999  38095M 38096  38370M 38374  38376  38413  38416
             38417  38418M 38418  38504M 38508  38510  38540  38543  38544  38545M 38545  38636M 38640  38642  38677
             38680  38681  38682M 38682  38933M 38937  38939  38999  39002  39004  39005M 39005  39141M 39145  39147
             39166  39169  39170  39171M 39171  39314M 39318  39320  39419  39422  39423  39424M 39424  39590M 39594
             39596  39654  39657  39659  39660M 39660  39963M 39967  39969  40015  40018  40020  40021M 40021  40477M
             40481  40483  40542  40545  40546  40547M 40547  40702M 40706  40708  40742  40745  40746  40747M 40747
             40966M 40970  40972  41005  41008  41009  41010M 41010  41232M 41236  41238  41281  41284  41285  41286M
             41286  41488M 41492  41494  41822  41825  41827  41828M 41828  42040  42042M 42042  42077  42078  42079
             42081M 42081  42094M 42095  42096  42097  42108M 42486M 42490  42492  42574  42577  42578  42579M 42579
             42618M 42622  42624  42805  42808  42810  42811M 42811  44827  44828M 44828  44885M 44991  44992M 44992
             45072M 45246  45247M 45247  45328M 46825M 46829  46831  46954  46957  46959  46960M 46960  48004M 48008
             48010
    14(E)      926U  2098   2099M  2113   2114M  2115B  2117M  2118B  2138M  2139B  2143M  2144B  2146M  2147B  2149M
              2150B  2152M  2153B  2155M  2156M  2156B  2162   7928   7959M  7960M  7960B  7965M  7966M  7966B  7993M
              7994M  7994B  8020M  8021M  8021B  8035M  8036M  8036B  8040M  8041M  8041B  8063M  8066B  8121   8167M
              8168M  8168B  8189M  8190M  8190B  8226M  8229B  8293   8385M  8386M  8386B  8437M  8438M  8438B  8463M
              8464M  8464B  8490M  8491M  8491B  8509M  8510M  8510B  8541M  8542M  8542B  8586M  8587M  8587B  8631M
              8632M  8632B  8676M  8677M  8677B  8714M  8715M  8715B  8737M  8738M  8738B  8804M  8805M  8805B  8823M
              8824M  8824B  8890M  8891M  8891B  8964M  8965M  8965B  8991M  8992M  8992B  9009M  9010M  9010B  9013M
              9014M  9014B  9075M  9076M  9076B  9093M  9094M  9094B  9116M  9117M  9117B  9143M  9144M  9144B  9182M
              9183M  9183B  9211M  9212M  9212B  9228M  9229M  9229B  9257M  9258M  9258B  9305M  9306M  9306B  9335M
              9336M  9336B  9347M  9348M  9348B  9402M  9403M  9403B  9440M  9441M  9441B  9478M  9479M  9479B  9516M
              9517M  9517B  9526M  9527   9533M  9538M  9538   9556M  9557N  9558N  9562M  9562   9572M  9573   9574
              9575   9580M  9581   9584M  9585M  9585B  9588M  9591   9592   9593   9598M  9599M  9599B  9602M  9605
              9690M  9691M  9691B  9715M  9716M  9716B  9782M  9783M  9783B  9966M  9967M  9967B  9980M  9981M  9981B
             10106M 10107M 10107B 10112M 10113M 10113B 10155M 10158B 10246  10282M 10283M 10283B 10335M 10336M 10336B
1         (WGS2193) (13:01) (15MAR04) General Purpose Register Cross Reference                                              Page  258
             10362M 10363M 10363B 10380M 10381M 10381B 10398M 10399M 10399B 10430M 10431M 10431B 10475M 10476M 10476B
             10520M 10521M 10521B 10565M 10566M 10566B 10603M 10604M 10604B 10619M 10620M 10620B 10623M 10624M 10624B
             10681M 10682M 10682B 10708M 10709M 10709B 10721M 10722M 10722B 10776M 10777M 10777B 10814M 10815M 10815B
             10852M 10853M 10853B 10862M 10863  10869M 10874M 10874  10892M 10893N 10894N 10898M 10898  10908M 10909
             10910  10911  10916M 10917  10920M 10921M 10921B 10924M 10927  10928  10929  10934M 10935M 10935B 10938M
             10941  10967M 10968M 10968B 10994M 10995M 10995B 11059M 11060M 11060B 11065M 11066M 11066B 11119M 11120M
             11120B 11132M 11133M 11133B 11187M 11188  11194M 11199M 11199  11213M 11214N 11215N 11219M 11219  11229M
             11230  11231  11232  11237M 11238  11241M 11242M 11242B 11245M 11248  11249  11250  11254M 11257  11283M
             11284M 11284B 11306M 11307M 11307B 11358M 11361B 11443  11479M 11480M 11480B 11504M 11505M 11505B 11531M
             11532M 11532B 11537M 11538M 11538B 11614M 11615M 11615B 11620M 11621M 11621B 11675M 11676M 11676B 11730M
             11731  11737M 11742M 11742  11756M 11757N 11758N 11762M 11762  11772M 11773  11774  11775  11780M 11781
             11784M 11785M 11785B 11788M 11791  11792  11793  11797M 11800  11836M 11837M 11837B 11840M 11841M 11841B
             11892M 11895B 11995  12054M 12055M 12055B 12121M 12122M 12122B 12153M 12154M 12154B 12181M 12182M 12182B
             12208M 12211B 12278  12346M 12347M 12347B 12358M 12359M 12359B 12384M 12385M 12385B 12411M 12412M 12412B
             12430M 12431M 12431B 12453M 12454M 12454B 12457M 12458M 12458B 12519M 12520M 12520B 12537M 12538M 12538B
             12560M 12561M 12561B 12587M 12588M 12588B 12597M 12598M 12598B 12652M 12653M 12653B 12690M 12691M 12691B
             12728M 12729M 12729B 12738M 12739  12745M 12750M 12750  12768M 12769N 12770N 12774M 12774  12784M 12785
             12786  12787  12792M 12793  12796M 12797M 12797B 12800M 12803  12804  12805  12810M 12811M 12811B 12814M
             12817  12842M 12843M 12843B 12921M 12922M 12922B 12927M 12928M 12928B 12981M 12982M 12982B 13025M 13026M
             13026B 13033M 13034M 13034B 13051M 13052M 13052B 13065M 13066  13072M 13077M 13077  13091M 13092N 13093N
             13097M 13097  13107M 13108  13109  13110  13115M 13116  13119M 13120M 13120B 13123M 13126  13127  13128
             13132M 13135  13171M 13172M 13172B 13175M 13176M 13176B 13227M 13230B 13435  13503M 13504M 13504B 13515M
             13516M 13516B 13543M 13544M 13544B 13570M 13571M 13571B 13575M 13576M 13576B 13637M 13638M 13638B 13655M
             13656M 13656B 13678M 13679M 13679B 13705M 13706M 13706B 13727M 13728M 13728B 13754M 13755M 13755B 13773M
             13774M 13774B 13779M 13780M 13780B 13834M 13835M 13835B 13872M 13873M 13873B 13882M 13883  13889M 13894M
             13894  13912M 13913N 13914N 13918M 13918  13928M 13929  13930  13931  13936M 13937  13940M 13941M 13941B
             13944M 13947  13948  13949  13954M 13955M 13955B 13958M 13961  13986M 13987M 13987B 14065M 14066M 14066B
             14071M 14072M 14072B 14125M 14126M 14126B 14183M 14184M 14184B 14197M 14198  14204M 14209M 14209  14223M
             14224N 14225N 14229M 14229  14239M 14240  14241  14242  14247M 14248  14251M 14252M 14252B 14255M 14258
             14259  14260  14264M 14267  14303M 14304M 14304B 14307M 14308M 14308B 14359M 14362B 14474  14590M 14591M
             14591B 14635M 14638B 14678  14754M 14755M 14755B 14760M 14761M 14761B 14788M 14791B 14840  14909M 14910M
             14910B 14921M 14922M 14922B 14957M 14958M 14958B 14984M 14985M 14985B 15003M 15004M 15004B 15014M 15015M
             15015B 15018M 15019M 15019B 15080M 15081M 15081B 15098M 15099M 15099B 15121M 15122M 15122B 15148M 15149M
             15149B 15188M 15189M 15189B 15215M 15216M 15216B 15254M 15255M 15255B 15281M 15282M 15282B 15320M 15321M
             15321B 15347M 15348M 15348B 15384M 15385M 15385B 15429M 15430M 15430B 15489M 15490M 15490B 15521M 15522M
             15522B 15557M 15558M 15558B 15567M 15568  15574M 15579M 15579  15597M 15598N 15599N 15603M 15603  15613M
             15614  15615  15616  15621M 15622  15625M 15626M 15626B 15629M 15632  15633  15634  15639M 15640M 15640B
             15643M 15646  15671M 15672M 15672B 15750M 15751M 15751B 15756M 15757M 15757B 15810M 15811M 15811B 15859M
             15860M 15860B 15962M 15963M 15963B 15982M 15983M 15983B 15986M 15987M 15987B 16012M 16013M 16013B 16043M
             16044M 16044B 16112M 16113M 16113B 16138M 16139M 16139B 16211M 16212M 16212B 16272M 16273M 16273B 16276M
             16277M 16277B 16299M 16300M 16300B 16307M 16308M 16308B 16364M 16365M 16365B 16387M 16388M 16388B 16395M
             16396M 16396B 16423M 16424  16430M 16435M 16435  16449M 16450N 16451N 16455M 16455  16465M 16466  16467
             16468  16473M 16474  16477M 16478M 16478B 16481M 16484  16485  16486  16490M 16493  16510M 16511M 16511B
             16531M 16532M 16532B 16587M 16588M 16588B 16639M 16642B 16791  16828M 16829M 16829B 16858M 16859M 16859B
             16898M 16899M 16899B 16925M 16926M 16926B 16965M 16966M 16966B 16992M 16993M 16993B 17032M 17033M 17033B
             17059M 17060M 17060B 17099M 17100M 17100B 17126M 17127M 17127B 17158M 17159M 17159B 17184M 17185M 17185B
             17255M 17256M 17256B 17287M 17288M 17288B 17331M 17332M 17332B 17363M 17364M 17364B 17373M 17374  17380M
             17385M 17385  17403M 17404N 17405N 17409M 17409  17419M 17420  17421  17422  17427M 17428  17431M 17432M
             17432B 17435M 17438  17439  17440  17445M 17446M 17446B 17449M 17452  17477M 17478M 17478B 17567M 17568M
             17568B 17573M 17574M 17574B 17627M 17628M 17628B 17676M 17677M 17677B 17779M 17780M 17780B 17799M 17800M
             17800B 17803M 17804M 17804B 17829M 17830M 17830B 17860M 17861M 17861B 17929M 17930M 17930B 17955M 17956M
             17956B 18028M 18029M 18029B 18089M 18090M 18090B 18093M 18094M 18094B 18116M 18117M 18117B 18124M 18125M
             18125B 18181M 18182M 18182B 18204M 18205M 18205B 18212M 18213M 18213B 18240M 18241  18247M 18252M 18252
             18266M 18267N 18268N 18272M 18272  18282M 18283  18284  18285  18290M 18291  18294M 18295M 18295B 18298M
             18301  18302  18303  18307M 18310  18327M 18328M 18328B 18348M 18349M 18349B 18404M 18405M 18405B 18456M
             18459B 18596  18891M 18894B 18941  18978M 18979M 18979B 19033M 19034M 19034B 19060M 19061M 19061B 19100M
             19101M 19101B 19127M 19128M 19128B 19167M 19168M 19168B 19194M 19195M 19195B 19266M 19267M 19267B 19296M
             19297M 19297B 19327M 19328M 19328B 19333M 19334  19340M 19345M 19345  19363M 19364N 19365N 19369M 19369
             19379M 19380  19381  19382  19387M 19388  19391M 19392M 19392B 19395M 19398  19399  19400  19405M 19406M
1         (WGS2193) (13:01) (15MAR04) General Purpose Register Cross Reference                                              Page  259
             19406B 19409M 19412  19437M 19438M 19438B 19516M 19517M 19517B 19522M 19523M 19523B 19576M 19577M 19577B
             19625M 19626M 19626B 19729M 19730M 19730B 19747M 19748M 19748B 19767M 19768M 19768B 19771M 19772M 19772B
             19797M 19798M 19798B 19832M 19833M 19833B 19902M 19903M 19903B 19920M 19921M 19921B 19950M 19951M 19951B
             20023M 20024M 20024B 20084M 20085M 20085B 20088M 20089M 20089B 20111M 20112M 20112B 20119M 20120M 20120B
             20176M 20177M 20177B 20199M 20200M 20200B 20207M 20208M 20208B 20235M 20236  20242M 20247M 20247  20261M
             20262N 20263N 20267M 20267  20277M 20278  20279  20280  20285M 20286  20289M 20290M 20290B 20293M 20296
             20297  20298  20302M 20305  20322M 20323M 20323B 20343M 20344M 20344B 20399M 20400M 20400B 20451M 20454B
             20588  20656M 20657M 20657B 20668M 20669M 20669B 20698M 20699M 20699B 20725M 20726M 20726B 20744M 20745M
             20745B 20750M 20751M 20751B 20754M 20755M 20755B 20816M 20817M 20817B 20834M 20835M 20835B 20857M 20858M
             20858B 20884M 20885M 20885B 20894M 20895M 20895B 20949M 20950M 20950B 20987M 20988M 20988B 21025M 21026M
             21026B 21047M 21048  21054M 21059M 21059  21077M 21078N 21079N 21083M 21083  21093M 21094  21095  21096
             21101M 21102  21105M 21106M 21106B 21109M 21112  21113  21114  21119M 21120M 21120B 21123M 21126  21349M
             21350M 21350B 21367M 21368M 21368B 21375M 21376M 21376B 21475M 21476M 21476B 21493M 21494M 21494B 21501M
             21502M 21502B 21560M 21561M 21561B 21578M 21579M 21579B 21586M 21587M 21587B 21664M 21665M 21665B 21833M
             21834M 21834B 21855M 21856M 21856B 21887M 21888M 21888B 21932M 21933M 21933B 21977M 21978M 21978B 22009M
             22010M 22010B 22031M 22032M 22032B 22056M 22057M 22057B 22092M 22093M 22093B 22117M 22118M 22118B 22274M
             22275M 22275B 22306M 22307M 22307B 22337M 22338M 22338B 22346M 22347M 22347B 22426M 22427M 22427B 22432M
             22433M 22433B 22486M 22487M 22487B 22530M 22531M 22531B 22538M 22539M 22539B 22556M 22557M 22557B 22570M
             22571  22577M 22582M 22582  22596M 22597N 22598N 22602M 22602  22612M 22613  22614  22615  22620M 22621
             22624M 22625M 22625B 22628M 22631  22632  22633  22637M 22640  22676M 22677M 22677B 22680M 22681M 22681B
             22732M 22735B 23158  23227M 23228M 23228B 23239M 23240M 23240B 23266M 23267M 23267B 23293M 23294M 23294B
             23312M 23313M 23313B 23333M 23334M 23334B 23395M 23396M 23396B 23413M 23414M 23414B 23436M 23437M 23437B
             23463M 23464M 23464B 23477M 23478M 23478B 23532M 23533M 23533B 23570M 23571M 23571B 23579M 23580  23586M
             23591M 23591  23609M 23610N 23611N 23615M 23615  23625M 23626  23627  23628  23633M 23634  23637M 23638M
             23638B 23641M 23644  23645  23646  23651M 23652M 23652B 23655M 23658  23683M 23684M 23684B 23721M 23722M
             23722B 23752M 23753M 23753B 23796M 23797M 23797B 23828M 23829M 23829B 23888M 23889M 23889B 23894M 23895M
             23895B 23948M 23949M 23949B 23992M 23993M 23993B 24000M 24001M 24001B 24018M 24019M 24019B 24032M 24033
             24039M 24044M 24044  24058M 24059N 24060N 24064M 24064  24074M 24075  24076  24077  24082M 24083  24086M
             24087M 24087B 24090M 24093  24094  24095  24099M 24102  24138M 24139M 24139B 24142M 24143M 24143B 24194M
             24197B 24338  24385M 24386M 24386B 24411M 24412M 24412B 24433M 24436B 24448  24495M 24496M 24496B 24521M
             24522M 24522B 24543M 24546B 24585  24617M 24618M 24618B 24637M 24640B 24654  24686M 24687M 24687B 24706M
             24709B 24723  24755M 24756M 24756B 24775M 24778B 24792  24824M 24825M 24825B 24844M 24847B 24861  24893M
             24894M 24894B 24913M 24916B 24930  24962M 24963M 24963B 24982M 24985B 24999  25031M 25032M 25032B 25051M
             25054B 25068  25100M 25101M 25101B 25120M 25123B 25137  25169M 25170M 25170B 25189M 25192B 26144  26188M
             26189M 26189B 26210M 26213B 26225  26272M 26273M 26273B 26298M 26299M 26299B 26320M 26323B 26335  26382M
             26383M 26383B 26408M 26409M 26409B 26430M 26433B 26445  26492M 26493M 26493B 26518M 26519M 26519B 26540M
             26543B 26555  26602M 26603M 26603B 26628M 26629M 26629B 26650M 26653B 26665  26709M 26710M 26710B 26731M
             26734B 26746  26791M 26792M 26792B 26813M 26816B 26828  26878M 26879M 26879B 26896M 26899B 26911  26963M
             26964M 26964B 26985M 26988B 27000  27052M 27053M 27053B 27074M 27077B 27089  27134M 27135M 27135B 27159M
             27160M 27160B 27177M 27180B 27192  27277M 27278M 27278B 27344M 27345M 27345B 27411M 27412M 27412B 27478M
             27479M 27479B 27530M 27531M 27531B 27569M 27570M 27570B 27602M 27605B 27617  27663M 27664M 27664B 27688M
             27689M 27689B 27710M 27713B 27725  27805M 27806M 27806B 27820M 27821M 27821B 27824M 27825M 27825B 27855M
             27856M 27856B 27881M 27884B 27896  27943M 27944M 27944B 27969M 27970M 27970B 27991M 27994B 28006  28059M
             28062B 28074  28126M 28129B 28141  28207M 28210B 28222  28288M 28291B 28303  28369M 28372B 28384  28450M
             28453B 28465  28511M 28514B 28526  28578M 28581B 28593  28640M 28641M 28641B 28666M 28667M 28667B 28688M
             28691B 28703  28750M 28751M 28751B 28776M 28777M 28777B 28798M 28801B 28813  28860M 28861M 28861B 28886M
             28887M 28887B 28908M 28911B 28923  28967M 28968M 28968B 28989M 28992B 29004  29048M 29049M 29049B 29070M
             29073B 29085  29129M 29130M 29130B 29151M 29154B 29166  29210M 29211M 29211B 29232M 29235B 29247  29298M
             29301B 29313  29364M 29367B 29379  29430M 29433B 29445  29496M 29499B 29511  29556M 29557M 29557B 29582M
             29585B 29597  29647M 29648M 29648B 29669M 29672B 29687  29737M 29738  29783M 29784N 29785N 29789M 29789
             29801M 29802  29803  29804  29812M 29813M 29813B 29816M 29819  29820  29821  29973M 29974  29975  29976
             29984M 29985M 29985B 29988M 29991  29992  29993  30111M 30112  30113  30114  30122M 30123M 30123B 30126M
             30129  30130  30131  30174M 30177  30184M 30187  30191M 30192  30192  30196M 30196  30207M 30208M 30208B
             30230M 30233B 30339  30398M 30399  30405M 30410M 30410  30428M 30429N 30430N 30434M 30434  30444M 30445
             30446  30447  30452M 30453  30456M 30457M 30457B 30460M 30463  30464  30465  30505M 30508  30534M 30537B
             30611  30657M 30660B 30672  30718M 30721B 30768  30956M 30957M 30957B 30984M 30985M 30985B 30992M 30993M
             30993B 31029M 31032B 31085  31191M 31192M 31192B 31304M 31305M 31305B 31367M 31368M 31368B 31390M 31391M
             31391B 31429M 31432B 31519  31575M 31576M 31576B 31589M 31590M 31590B 31618M 31619M 31619B 31642M 31645B
             31700  31754M 31755M 31755B 31827M 31828M 31828B 31854M 31855M 31855B 31859M 31860M 31860B 31931M 31932M
1         (WGS2193) (13:01) (15MAR04) General Purpose Register Cross Reference                                              Page  260
             31932B 31958M 31959M 31959B 31963M 31964M 31964B 31990M 31991M 31991B 31995M 31996M 31996B 32005M 32006M
             32006B 32030M 32033B 32119  32196M 32197M 32197B 32423M 32426B 32457  32558M 32559M 32559B 32641M 32644B
             32687  32857M 32860B 32919  33111M 33112M 33112B 33129M 33130M 33130B 33224M 33225M 33225B 33242M 33243M
             33243B 33378M 33379M 33379B 33405M 33408B 33469  33668M 33669M 33669B 33719M 33720M 33720B 33883M 33884M
             33884B 33904M 33905M 33905B 33993M 33996B 34061  34094M 34095M 34095B 34149M 34150M 34150B 34153M 34154M
             34154B 34211M 34212M 34212B 34215M 34216M 34216B 34229M 34230  34236M 34241M 34241  34255M 34256N 34257N
             34261M 34261  34271M 34272  34273  34274  34279M 34280  34283M 34284M 34284B 34287M 34290  34291  34292
             34296M 34299  34316M 34317M 34317B 34343M 34346B 34431  34481M 34482  34483  34484  34490M 34491M 34491B
             34494M 34497  34498  34499  34634M 34637B 34665  34715M 34716  34717  34718  34724M 34725M 34725B 34728M
             34731  34732  34733  34909M 34912B 34935  35008M 35011B 35031  35070M 35071  35072  35073  35081M 35082M
             35082B 35085M 35088  35089  35090  35112M 35115B 35140  35173M 35174M 35174B 35212M 35213M 35213B 35245M
             35246M 35246B 35249M 35250M 35250B 35291M 35292M 35292B 35352M 35353  35359M 35364M 35364  35378M 35379N
             35380N 35384M 35384  35394M 35395  35396  35397  35402M 35403  35406M 35407M 35407B 35410M 35413  35414
             35415  35420M 35423  35448M 35451B 35470  35503M 35504M 35504B 35557M 35558M 35558B 35561M 35562M 35562B
             35605M 35606M 35606B 35624M 35625  35631M 35636M 35636  35650M 35651N 35652N 35656M 35656  35666M 35667
             35668  35669  35674M 35675  35678M 35679M 35679B 35682M 35685  35686  35687  35693M 35696  35718M 35721B
             35739  35772M 35773M 35773B 35826M 35827M 35827B 35830M 35831M 35831B 35874M 35875M 35875B 35893M 35894
             35900M 35905M 35905  35919M 35920N 35921N 35925M 35925  35935M 35936  35937  35938  35943M 35944  35947M
             35948M 35948B 35951M 35954  35955  35956  35962M 35965  35987M 35990B 36182  36241M 36242M 36242B 36308M
             36309M 36309B 36338M 36339M 36339B 36365M 36368B 36380  36429M 36432B 36444  36493M 36496B 36516  36549M
             36550M 36550B 36603M 36604M 36604B 36607M 36608M 36608B 36651M 36652M 36652B 36683M 36686B 36722  36788M
             36789M 36789B 36792M 36793M 36793B 36796M 36797  36803M 36808M 36808  36822M 36823N 36824N 36828M 36828
             36838M 36839  36840  36841  36846M 36847  36850M 36851M 36851B 36854M 36857  36858  36859  36867M 36870
             36879M 36880M 36880B 36920M 36921M 36921B 36924M 36925M 36925B 36950M 36953B 37013  37061M 37062M 37062B
             37083M 37086B 37119  37177M 37178M 37178B 37201M 37202M 37202B 37228M 37231B 37243  37282M 37283  37284
             37285  37293M 37294M 37294B 37297M 37300  37301  37302  37324M 37327B 37404  37467  37468M 37483M 37484M
             37484B 37519M 37520M 37520B 37636M 37637M 37637B 37752M 37753M 37753B 37756M 37757M 37757B 37789M 37792B
             37835  37912M 37913M 37913B 37929M 37930M 37930B 37972M 37973M 37973B 37977M 37978M 37978B 38039M 38040M
             38040B 38087M 38088M 38088B 38092M 38093M 38093B 38296M 38297M 38297B 38301M 38302M 38302B 38333M 38334M
             38334B 38337M 38338M 38338B 38376M 38379B 38413  38476M 38477M 38477B 38510M 38513B 38540  38642M 38645B
             38677  38817M 38818M 38818B 38833M 38834M 38834B 38862M 38863M 38863B 38867M 38868M 38868B 38871M 38872M
             38872B 38939M 38942B 38999  39044M 39045M 39045B 39117M 39118M 39118B 39121M 39122M 39122B 39147M 39150B
             39166  39299M 39300M 39300B 39320M 39323B 39419  39596M 39599B 39654  39734M 39735M 39735B 39943M 39944M
             39944B 39969M 39972B 40015  40451M 40452M 40452B 40483M 40486B 40542  40708M 40711B 40742  40972M 40975B
             41005  41238M 41241B 41281  41494M 41497B 41822  42039M 42040  42060M 42061N 42062N 42066M 42066  42076M
             42077  42078  42079  42084M 42085  42088M 42089M 42089B 42092M 42095  42096  42097  42102M 42103M 42103B
             42106M 42109  42147M 42148M 42148B 42156M 42157M 42157B 42211M 42212M 42212B 42492M 42495B 42574  42624M
             42627B 42805  42876M 42877M 42877B 42926M 42927M 42927B 42981M 42982M 42982B 42996M 42997M 42997B 43093M
             43094M 43094B 43108M 43109M 43109B 43134M 43135M 43135B 43180M 43181M 43181B 43195M 43196M 43196B 43221M
             43222M 43222B 43267M 43268M 43268B 43282M 43283M 43283B 43308M 43309M 43309B 43328M 43329M 43329B 43371M
             43372M 43372B 43474M 43475M 43475B 43500M 43501M 43501B 43515M 43516M 43516B 43556M 43557M 43557B 43560M
             43561M 43561B 43569M 43570M 43570B 43611M 43612M 43612B 43777M 43778M 43778B 43792M 43793M 43793B 44046M
             44047M 44047B 44061M 44062M 44062B 44181M 44182M 44182B 44196M 44197M 44197B 44230M 44231M 44231B 44499M
             44500M 44500B 44514M 44515M 44515B 44748M 44749M 44749B 44763M 44764M 44764B 44850M 44866M 44872M 44873M
             44873B 44931M 44932M 44932B 44946M 44947M 44947B 45014M 45030M 45058M 45059M 45059B 45158M 45159M 45159B
             45173M 45174M 45174B 45221M 45222M 45222B 45236M 45237M 45237B 45269M 45285M 45292M 45293M 45293B 45499M
             45500M 45500B 45628M 45629M 45629B 45746M 45747M 45747B 45786M 45787M 45787B 45893M 45894M 45894B 45910M
             45911M 45911B 46017M 46018M 46018B 46034M 46035M 46035B 46060M 46061M 46061B 46189M 46190M 46190B 46206M
             46207M 46207B 46312M 46313M 46313B 46329M 46330M 46330B 46355M 46356M 46356B 46403M 46404M 46404B 46469M
             46470M 46470B 46473M 46474M 46474B 46512M 46513M 46513B 46527M 46528M 46528B 46546M 46547M 46547B 46561M
             46562M 46562B 46630M 46631M 46631B 46647M 46648M 46648B 46831M 46834B 46954  47017M 47018M 47018B 47036M
             47037M 47037B 47067M 47068M 47068B 47166M 47167M 47167B 47181M 47182M 47182B 47196M 47197M 47197B 47244M
             47245M 47245B 47259M 47260M 47260B 47274M 47275M 47275B 47357M 47358M 47358B 47372M 47373M 47373B 47387M
             47388M 47388B 47563M 47564M 47564B 47578M 47579M 47579B 47593M 47594M 47594B 47670M 47671M 47671B 47685M
             47686M 47686B 47711M 47712M 47712B 47791M 47792M 47792B 47806M 47807M 47807B 47832M 47833M 47833B 47879M
             47880M 47880B 47894M 47895M 47895B 47909M 47910M 47910B 48010M 48013B
    15(F)      922U  2098   7961   8017M  8032M  8042   8065M  8065   8180   8186M  8228M  8228   8352M  8353M  8354
              8374M  8375M  8376   8434M  8439M  8460M  8487M  8506M  8538M  8583M  8628M  8673M  8711M  8734M  8801M
              8820M  8887M  8961M  8988M  9072M  9090M  9095M  9113M  9140M  9179M  9208M  9225M  9254M  9302M  9332M
1         (WGS2193) (13:01) (15MAR04) General Purpose Register Cross Reference                                              Page  261
              9399M  9437M  9475M  9513M  9594M  9594   9614M  9614   9621M  9687M  9712M  9779M  9963M  9990M  9990
              9996M 10103M 10125M 10135M 10135  10157M 10157  10311M 10332M 10359M 10377M 10395M 10427M 10472M 10517M
             10562M 10600M 10660M 10678M 10705M 10773M 10811M 10849M 10930M 10930  10950M 10950  10957M 10977M 10977
             10991M 10996M 11056M 11078M 11129M 11134M 11175M 11251M 11251  11266M 11266  11280M 11285M 11297M 11297
             11302  11310M 11360M 11360  11501M 11528M 11547M 11547  11553M 11611M 11633M 11677M 11718M 11794M 11794
             11809M 11809  11815M 11827M 11827  11832  11844M 11894M 11894  12037M 12056M 12057M 12058M 12059  12118M
             12150M 12178M 12186M 12186  12210M 12210  12343M 12348M 12381M 12408M 12427M 12516M 12534M 12539M 12557M
             12584M 12649M 12687M 12725M 12806M 12806  12826M 12826  12833M 12852M 12852  12858M 12918M 12940M 12983M
             13030M 13030  13048M 13053M 13129M 13129  13144M 13144  13150M 13162M 13162  13167  13179M 13229M 13229
             13500M 13505M 13540M 13567M 13634M 13652M 13657M 13675M 13702M 13724M 13751M 13770M 13831M 13869M 13950M
             13950  13970M 13970  13977M 13996M 13996  14002M 14062M 14084M 14127M 14180M 14185M 14261M 14261  14276M
             14276  14282M 14294M 14294  14299  14311M 14361M 14361  14595M 14595  14611M 14637M 14637  14790M 14790
             14906M 14911M 14954M 14981M 15000M 15077M 15095M 15100M 15118M 15145M 15185M 15212M 15251M 15278M 15317M
             15344M 15381M 15426M 15486M 15518M 15554M 15635M 15635  15655M 15655  15662M 15681M 15681  15687M 15747M
             15769M 15812M 16056M 16151M 16224M 16269M 16320M 16408M 16487M 16487  16502M 16502  16512M 16555M 16574M
             16574  16583  16591M 16641M 16641  16895M 16922M 16962M 16989M 17029M 17056M 17096M 17123M 17155M 17181M
             17252M 17284M 17328M 17360M 17441M 17441  17461M 17461  17468M 17487M 17487  17493M 17564M 17586M 17629M
             17873M 17968M 18041M 18086M 18137M 18225M 18304M 18304  18319M 18319  18329M 18372M 18391M 18391  18400
             18408M 18458M 18458  18735M 18735  18786M 18786  18805M 18829M 18829  18861M 18861  18893M 18893  19030M
             19057M 19097M 19124M 19164M 19191M 19263M 19293M 19324M 19401M 19401  19421M 19421  19428M 19447M 19447
             19453M 19513M 19535M 19578M 19739M 19739  19845M 19912M 19912  19963M 20036M 20081M 20132M 20220M 20299M
             20299  20314M 20314  20324M 20367M 20386M 20386  20395  20403M 20453M 20453  20653M 20658M 20695M 20722M
             20741M 20813M 20831M 20836M 20854M 20881M 20946M 20984M 21022M 21115M 21115  21135M 21135  21142M 21164M
             21165M 21165  21193M 21210M 21215  21251M 21270M 21270  21275  21311M 21323  21334  21346M 21364M 21437M
             21449  21460  21472M 21490M 21522M 21534  21545  21557M 21575M 21661M 21830M 21852M 21884M 21929M 21974M
             22006M 22028M 22053M 22089M 22114M 22271M 22303M 22334M 22356M 22356  22362M 22423M 22445M 22488M 22535M
             22535  22553M 22558M 22634M 22634  22649M 22649  22655M 22667M 22667  22672  22684M 22734M 22734  23224M
             23229M 23263M 23290M 23309M 23392M 23410M 23415M 23433M 23460M 23529M 23567M 23647M 23647  23667M 23667
             23674M 23693M 23693  23699M 23718M 23749M 23793M 23825M 23885M 23907M 23950M 23997M 23997  24015M 24020M
             24096M 24096  24111M 24111  24117M 24129M 24129  24134  24146M 24196M 24196  24382M 24408M 24416M 24416
             24435M 24435  24492M 24518M 24526M 24526  24545M 24545  24639M 24639  24708M 24708  24777M 24777  24846M
             24846  24915M 24915  24984M 24984  25053M 25053  25122M 25122  25191M 25191  26185M 26193M 26193  26212M
             26212  26269M 26295M 26303M 26303  26322M 26322  26379M 26405M 26413M 26413  26432M 26432  26489M 26515M
             26523M 26523  26542M 26542  26599M 26625M 26633M 26633  26652M 26652  26706M 26714M 26714  26733M 26733
             26788M 26796M 26796  26815M 26815  26875M 26898M 26898  26960M 26968M 26968  26987M 26987  27049M 27057M
             27057  27076M 27076  27131M 27156M 27179M 27179  27274M 27341M 27408M 27475M 27527M 27566M 27585M 27585
             27604M 27604  27660M 27685M 27693M 27693  27712M 27712  27837  27864M 27864  27883M 27883  27940M 27966M
             27974M 27974  27993M 27993  28061M 28061  28128M 28128  28209M 28209  28290M 28290  28371M 28371  28452M
             28452  28513M 28513  28580M 28580  28637M 28663M 28671M 28671  28690M 28690  28747M 28773M 28781M 28781
             28800M 28800  28857M 28883M 28891M 28891  28910M 28910  28964M 28972M 28972  28991M 28991  29045M 29053M
             29053  29072M 29072  29126M 29134M 29134  29153M 29153  29207M 29215M 29215  29234M 29234  29300M 29300
             29366M 29366  29432M 29432  29498M 29498  29553M 29561M 29561  29584M 29584  29644M 29652M 29652  29671M
             29671  29822M 29822  29833M 29833  29994M 29994  30003M 30003  30132M 30132  30141M 30141  30171M 30171
             30209M 30232M 30232  30466M 30466  30479  30517M 30517  30536M 30536  30640M 30659M 30659  30701M 30720M
             30720  30953M 30981M 31031M 31031  31402M 31402  31408M 31431M 31431  31572M 31586M 31615M 31644M 31644
             31824M 31851M 31928M 31955M 31987M 32013M 32013  32032M 32032  32332M 32332  32382M 32382  32398M 32425M
             32425  32568M 32568  32586  32624M 32624  32643M 32643  32840M 32840  32859M 32859  33121M 33121  33139M
             33139  33160  33234M 33234  33252M 33252  33273  33407M 33407  33523  33551  33573  33665M 33880M 33995M
             33995  34107M 34155M 34208M 34217M 34293M 34293  34308M 34308  34318M 34345M 34345  34500M 34500  34512M
             34512  34593M 34593  34612M 34636M 34636  34734M 34734  34746M 34746  34865M 34865  34887M 34887  34911M
             34911  34991M 34991  35010M 35010  35091M 35091  35095M 35095  35114M 35114  35251M 35325M 35325  35416M
             35416  35424M 35450M 35450  35563M 35688M 35688  35701M 35701  35720M 35720  35832M 35957M 35957  35970M
             35970  35989M 35989  36224M 36243M 36244M 36245M 36246  36305M 36335M 36343M 36343  36367M 36367  36412M
             36412  36431M 36431  36476M 36476  36495M 36495  36609M 36685M 36685  36860M 36860  36864M 36864  36952M
             36952  37044M 37066M 37066  37085M 37085  37160M 37198M 37206M 37206  37230M 37230  37303M 37303  37307M
             37307  37326M 37326  37467  37516M 37521M 37633M 37749M 37758M 37769M 37769  37791M 37791  37909M 37918M
             37926M 37950  37974M 37981M 37991M 37991  37998  38036M 38070M 38089M 38096M 38117M 38117  38163M 38230U
             38288  38298M 38330M 38343M 38354M 38354  38378M 38378  38473M 38493M 38493  38512M 38512  38600M 38620M
             38620  38644M 38644  38718  38766M 38775M 38775  38830  38845M 38864M 38917M 38917  38941M 38941  39149M
1         (WGS2193) (13:01) (15MAR04) General Purpose Register Cross Reference                                              Page  262
             39149  39322M 39322  39479M 39500M 39500  39551M 39568M 39598M 39598  39724M 39867M 39896M 39971M 39971
             40443M 40443  40457M 40485M 40485  40710M 40710  40974M 40974  41240M 41240  41496M 41496  42098M 42098
             42144M 42153M 42167M 42167  42208M 42217M 42467M 42467  42494M 42494  42607M 42607  42626M 42626  42866
             42923M 42937M 42938M 42939  42951  42978M 42993M 43090M 43105M 43131M 43177M 43192M 43218M 43264M 43279M
             43305M 43325M 43471M 43497M 43512M 43687M 43687  43735M 43747  43774M 43789M 43813M 43822M 43822  43829
             44043M 44058M 44071M 44075M 44084M 44084  44091  44178M 44193M 44227M 44496M 44511M 44745M 44760M 44857M
             44865  44866M 44869M 44928M 44943M 45021M 45029  45030M 45055M 45077M 45077  45155M 45170M 45218M 45233M
             45276M 45284  45285M 45288M 45333M 45333  45496M 45625M 45743M 45783M 45890M 45907M 46014M 46031M 46057M
             46186M 46203M 46309M 46326M 46352M 46400M 46509M 46524M 46543M 46558M 46627M 46644M 46676M 46677  46680M
             46803M 46803  46833M 46833  47008  47064M 47163M 47178M 47193M 47241M 47256M 47271M 47354M 47369M 47384M
             47560M 47575M 47590M 47667M 47682M 47708M 47788M 47803M 47829M 47876M 47891M 47906M 47935M 47945U 47969U
             47973M 47982M 47982  48012M 48012

1WGS      (WGS2193) (13:01) (15MAR04) Diagnostic Cross Reference and Assembler Summary                                      Page  263
-                                                                                            HLASM R4.0  2004/03/15 13.01
0     No Statements Flagged in this Assembly
 HIGH LEVEL ASSEMBLER, 5696-234, RELEASE 4.0, PTF P72483
0SYSTEM: OS/390 02.10.00            JOBNAME: WYL#WGS     STEPNAME: ASM        PROCSTEP: (NOPROC)
0Datasets Allocated for this Assembly
  Con DDname   Dataset Name                                 Volume  Member
   P1 SYSIN    WYL.GS.WYL.WYLBUR.SOURCE                     SYSB05  WGS
   L1 SYSLIB   WYL.GS.WYL.WYLBUR.MACLIB                     SYSB05
   L2          WYL.GG.SYS.MACLIB                            SYSB05
   L3          SYS3.IS.MACLIB                               SYSB05
   L4          SYS3.MACLIB                                  SYSB02
   L5          SYS1.MACLIB                                  MVSBR9
   L6          SYS1.MODGEN                                  MVSBR9
      SYSPRINT SYS04075.T130105.RA000.WYL#WGS.PRINT.H01     SCR100
      SYSTERM  GG$SLP.WYL#WGS.JOB03590.D0000101.?

    3668K allocated to Buffer Pool,         5701K would be required for this to be an In-Storage Assembly
    6197 Primary Input Records Read         8070 Library Records Read                459 Work File Reads
       0 ASMAOPT Records Read              26778 Primary Print Records Written       512 Work File Writes
       0 Punch Records Written                 0 ADATA Records Written
0Assembly Start Time: 13.01.07 Stop Time: 13.01.21 Processor Time: 00.00.08.8207
 Return Code 000
