1                        J E S 2  J O B  L O G  --  S Y S T E M  S Y S B  --  N O D E  R L G
0
 12.41.21 JOB03513 ---- MONDAY,    15 MAR 2004 ----
 12.41.21 JOB03513  ICH70001I GG$SLP   LAST ACCESS AT 12:41:11 ON MONDAY, MARCH 15, 2004
 12.41.21 JOB03513  $HASP373 WYL#DBUG STARTED - INIT 9    - CLASS B - SYS SYSB
 12.41.21 JOB03513  ***  HCMD      STEP $$QUIET
 12.41.21 JOB03513  PUR * Q OUT MUL
 12.41.21 JOB03513  JOB 5376 WYL#DBUG WILL BE PURGED
 12.41.23 JOB03513  WYL#DBUG.$$QUIET .         RC=Zero TapeIO=0000 DiskIO=0000 CPU=  .01s Elapsed=81.98s
 12.41.34 JOB03513  WYL#DBUG.ASM     .         RC=Zero TapeIO=0000 DiskIO=0629 CPU= 4.04s Elapsed=83.34s
 12.41.37 JOB03513  WYL#DBUG.EDIT    .         RC=Zero TapeIO=0000 DiskIO=0239 CPU=  .77s Elapsed=94.13s
 12.41.37 JOB03513  WYL#DBUG Ended.  Name=Assemble DBUG                  Total CPU= 4.82s Elapsed=81.98s
 12.41.37 JOB03513
 12.41.37 JOB03513  Execution charges   Priority=Standard   Block=Day
 12.41.37 JOB03513
 12.41.37 JOB03513  CPU Usage          89.06          $55.21   Standard Processing Unit Equivalent
 12.41.37 JOB03513                                   =======
 12.41.37 JOB03513                                    $55.21   Total Job execution charge
 12.41.37 JOB03513
 12.41.37 JOB03513  See back separator page for print charges
 12.41.37 JOB03513
 12.41.37 JOB03513  $HASP395 WYL#DBUG ENDED  ASM=0, EDIT=0
1        1 //WYL#DBUG JOB SLP$GG,'Assemble DBUG',TIME=4,REGION=4M                  JOB03513
           //*
           /*JOBPARM LINES=99,COPIES=1
           /*JOBPARM FORMS=3HOL,PFORMAT=LAND,CHARS=BD13,DUPLEX=YES,FLASH=BAR4
           //*
           /*JOBPARM NOTIFY=GG.SLP,HOLD=OUTPUT                                     WYLGEN
         2 //$$QUIET EXEC PGM=HCMDX,PARM='PUR * Q OUT MUL'
           //*
         3 //ASM    EXEC PGM=ASMA90,REGION=8M,
           //            PARM=('NORENT,TERM,FLAG(NOCONT),US(MAP,WARN(10)),NODECK',
           //            'LC(32767),XREF(SHORT),ESD,DXREF,NOOBJECT')
         4 //STEPLIB DD DSN=SYS3.IS.TESTASM,DISP=SHR
         5 //SYSLIB   DD  DSN=WYL.GS.WYL.WYLBUR.MACLIB,DISP=SHR
         6 //         DD  DSN=WYL.GG.SYS.MACLIB,DISP=SHR
         7 //         DD  DSN=SYS3.IS.MACLIB,DISP=SHR
         8 //         DD  DSN=SYS3.MACLIB,DISP=SHR
         9 //         DD  DSN=SYS1.MACLIB,DISP=SHR
        10 //         DD  DSN=SYS1.MODGEN,DISP=SHR
        11 //SYSUT1   DD DSN=&&SYSUT1,UNIT=VIO,DISP=(,DELETE),
           //            SPACE=(4088,(500,250),,CONTIG,ROUND)
        12 //SYSTERM  DD SYSOUT=T
        13 //SYSPRINT DD DSN=&&PRINT,UNIT=SYSDA,DISP=(,PASS),
           //            SPACE=(6650,(250,250),RLSE),
           //            DCB=(BLKSIZE=6650,LRECL=133,RECFM=FB)
        14 //SYSUDUMP DD SYSOUT=A
        15 //SYSIN    DD  DSN=WYL.GS.WYL.WYLBUR.SOURCE(DBUG),DISP=SHR
           //*
        16 //EDIT    EXEC PGM=ASMEDIT,TIME=2,REGION=4000K,
           //             PARM='STMT'
        17 //STEPLIB  DD  DSN=WYL.GG.SYS.LINKLIB,DISP=SHR
        18 //ASMOUT   DD  DSN=&PRINT,DISP=(OLD,DELETE)
        19 //SYSPRINT DD  SYSOUT=A
1 STMT NO. MESSAGE
 -
        11 IGD01010I STORCLAS= TEMP STORGROUP =
        11 IGD01010I STORGRP=VIO ASSIGNED.
        13 IGD01010I STORCLAS= TEMP STORGROUP =
        13 IGD01010I STORGRP=VIO ASSIGNED.
 ICH70001I GG$SLP   LAST ACCESS AT 12:41:11 ON MONDAY, MARCH 15, 2004
 IEF142I WYL#DBUG $$QUIET - STEP WAS EXECUTED - COND CODE 0000
 *********************************************************************************
 *   WYL#DBUG/$$QUIET /                    Return Code      Zero                 *
 *   Region used      260K (16K user + 244K system)                              *
 *   Extended region  9464K (4K user + 9460K system)                             *
 *                                                                               *
 *   Paging              In      Out                                             *
 *   Private <-> Aux      0        0       CPU time (TCB)   00:00:00.01          *
 *   Private <-> Exp      0        0       CPU time (SRB)   00:00:00.00          *
 *   VIO                  0        0       Elapsed time    917:46:30.98          *
 *   Common               0      ---                                             *
 *                                                                               *
 *                                                                               *
 *   CPU Usage          0.18         $0.11  Standard Processing Unit Equivalent  *
 *                                   $0.11  Total Step execution charge          *
 *                                                                               *
 *    I/O count  DDname   Type Addr           I/O count  DDname   Type Addr      *
 *                         *** No I/O for this step ***                          *
 *********************************************************************************
 IEF373I STEP/$$QUIET /START 2004075.1241
 IEF374I STEP/$$QUIET /STOP  2004075.1241 CPU    0MIN 00.01SEC SRB    0MIN 00.00SEC VIRT    16K SYS   244K EXT       4K SYS    9460K
 IEF236I ALLOC. FOR WYL#DBUG ASM
 IEF237I 04DC ALLOCATED TO STEPLIB
 IEF237I 04DC ALLOCATED TO SYSLIB
 IEF237I 04DC ALLOCATED TO
 IEF237I 04DC ALLOCATED TO
 IEF237I 0402 ALLOCATED TO
 IEF237I 04A0 ALLOCATED TO
 IEF237I 04A0 ALLOCATED TO
 IGD101I SMS ALLOCATED TO DDNAME (SYSUT1  )
         DSN (SYS04075.T124121.RA000.WYL#DBUG.SYSUT1.H01  )
         STORCLAS (TEMP) MGMTCLAS (        ) DATACLAS (        )
         VOL SER NOS= VIO
 IEF237I JES2 ALLOCATED TO SYSTERM
 IGD101I SMS ALLOCATED TO DDNAME (SYSPRINT)
         DSN (SYS04075.T124121.RA000.WYL#DBUG.PRINT.H01   )
         STORCLAS (TEMP) MGMTCLAS (        ) DATACLAS (        )
         VOL SER NOS= SCR100
 IEF237I JES2 ALLOCATED TO SYSUDUMP
 IEF237I 04DC ALLOCATED TO SYSIN
 IEF142I WYL#DBUG ASM - STEP WAS EXECUTED - COND CODE 0000
 IEF285I   SYS3.IS.TESTASM                              KEPT
 IEF285I   VOL SER NOS= SYSB05.
 IEF285I   WYL.GS.WYL.WYLBUR.MACLIB                     KEPT
 IEF285I   VOL SER NOS= SYSB05.
 IEF285I   WYL.GG.SYS.MACLIB                            KEPT
 IEF285I   VOL SER NOS= SYSB05.
 IEF285I   SYS3.IS.MACLIB                               KEPT
 IEF285I   VOL SER NOS= SYSB05.
 IEF285I   SYS3.MACLIB                                  KEPT
 IEF285I   VOL SER NOS= SYSB02.
 IEF285I   SYS1.MACLIB                                  KEPT
 IEF285I   VOL SER NOS= MVSBR9.
 IEF285I   SYS1.MODGEN                                  KEPT
 IEF285I   VOL SER NOS= MVSBR9.
 IGD105I SYS04075.T124121.RA000.WYL#DBUG.SYSUT1.H01   DELETED,   DDNAME=SYSUT1
 IEF285I   GG$SLP.WYL#DBUG.JOB03513.D0000101.?          SYSOUT
 IGD106I SYS04075.T124121.RA000.WYL#DBUG.PRINT.H01    PASSED,    DDNAME=SYSPRINT
 IEF285I   GG$SLP.WYL#DBUG.JOB03513.D0000102.?          SYSOUT
 IEF285I   WYL.GS.WYL.WYLBUR.SOURCE                     KEPT
 IEF285I   VOL SER NOS= SYSB05.
 *********************************************************************************
 *   WYL#DBUG/ASM     /                    Return Code      Zero                 *
 *   Region used      4376K (4096K user + 280K system)                           *
 *   Extended region  10064K (412K user + 9652K system)                          *
 *                                                                               *
 *   Paging              In      Out                                             *
 *   Private <-> Aux      0        0       CPU time (TCB)   00:00:03.99          *
 *   Private <-> Exp      0        0       CPU time (SRB)   00:00:00.05          *
 *   VIO                  0        0       Elapsed time    917:46:29.62          *
 *   Common               0      ---                                             *
 *                                                                               *
 *                                                                               *
 *   CPU Usage         74.81        $46.38  Standard Processing Unit Equivalent  *
 *                                  $46.38  Total Step execution charge          *
 *                                                                               *
 *    I/O count  DDname   Type Addr           I/O count  DDname   Type Addr      *
 *           84  STEPLIB  Disk 04DC                 298  SYSLIB   Disk 04DC      *
 *            0  SYSLIB   Disk 04DC                   0  SYSLIB   Disk 04DC      *
 *            0  SYSLIB   Disk 0402                   0  SYSLIB   Disk 04A0      *
 *            0  SYSLIB   Disk 04A0                   0  SYSUT1   VIO  ----      *
 *            0  SYSTERM       ----                 236  SYSPRINT Disk 038B      *
 *            0  SYSUDUMP      ----                  11  SYSIN    Disk 04DC      *
 *********************************************************************************
 IEF373I STEP/ASM     /START 2004075.1241
 IEF374I STEP/ASM     /STOP  2004075.1241 CPU    0MIN 03.99SEC SRB    0MIN 00.05SEC VIRT  4096K SYS   280K EXT     412K SYS    9652K
 IEF236I ALLOC. FOR WYL#DBUG EDIT
 IEF237I 0402 ALLOCATED TO STEPLIB
 IGD103I SMS ALLOCATED TO DDNAME ASMOUT
 IEF237I JES2 ALLOCATED TO SYSPRINT
 IEF142I WYL#DBUG EDIT - STEP WAS EXECUTED - COND CODE 0000
 IEF285I   WYL.GG.SYS.LINKLIB                           KEPT
 IEF285I   VOL SER NOS= SYSB02.
 IGD105I SYS04075.T124121.RA000.WYL#DBUG.PRINT.H01    DELETED,   DDNAME=ASMOUT
 IEF285I   GG$SLP.WYL#DBUG.JOB03513.D0000103.?          SYSOUT
 *********************************************************************************
 *   WYL#DBUG/EDIT    /                    Return Code      Zero                 *
 *   Region used      384K (120K user + 264K system)                             *
 *   Extended region  9588K (4K user + 9584K system)                             *
 *                                                                               *
 *   Paging              In      Out                                             *
 *   Private <-> Aux      0        0       CPU time (TCB)   00:00:00.75          *
 *   Private <-> Exp      0        0       CPU time (SRB)   00:00:00.02          *
 *   VIO                  0        0       Elapsed time    917:46:18.83          *
 *   Common               0      ---                                             *
 *                                                                               *
 *                                                                               *
 *   CPU Usage         14.06         $8.71  Standard Processing Unit Equivalent  *
 *                                   $8.71  Total Step execution charge          *
 *                                                                               *
 *    I/O count  DDname   Type Addr           I/O count  DDname   Type Addr      *
 *            2  STEPLIB  Disk 0402                 237  ASMOUT   Disk 038B      *
 *            0  SYSPRINT      ----                                              *
 *********************************************************************************
 IEF373I STEP/EDIT    /START 2004075.1241
 IEF374I STEP/EDIT    /STOP  2004075.1241 CPU    0MIN 00.75SEC SRB    0MIN 00.02SEC VIRT   120K SYS   264K EXT       4K SYS    9584K
 *********************************************************************************
 *                                                                               *
 *                      S t a n f o r d   U n i v e r s i t y                    *
 *                                                                               *
 *                              *** Job Summary ***                              *
 *                                                                               *
 *   System Id      SYSB                   Input time     12:39:16  Mar 15, 2004 *
 *                                                                               *
 *   System Release SP6.1.0                Start time     12:41:21  Mar 15, 2004 *
 *                                                                               *
 *   Job name       WYL#DBUG               Stop  time     00:00:00  Mar 15, 2004 *
 *                                                                               *
 *   Account        SLP$GG                 Elapsed time  917:46:30.98            *
 *                                                                               *
 *   User Name      Assemble DBUG          CPU time       00:00:04.75            *
 *                                                                               *
 *   Job class      B                      SRB Time       00:00:00.07            *
 *                                                                               *
 *********************************************************************************
 IEF375I  JOB/WYL#DBUG/START 2004075.1241
 IEF376I  JOB/WYL#DBUG/STOP  2004075.1241 CPU    0MIN 04.75SEC SRB    0MIN 00.07SEC
1Assembler Done DBUG No Statements Flagged
1         High Level Assembler Option Summary                   (PTF P72483 )                                               Page    1
-                                                                                            HLASM R4.0  2004/03/15 12.41
0  No Overriding ASMAOPT Parameters
   Overriding Parameters-  NORENT,TERM,FLAG(NOCONT),US(MAP,WARN(10)),NODECK,LC(32767),XREF(SHORT),ESD,DXREF,NOOBJECT
   No Process Statements


   Options for this Assembly
0  NOADATA
     ALIGN
   NOASA
     BATCH
     CODEPAGE(047C)
   NOCOMPAT
   NODBCS
 3 NODECK
 3   DXREF
 3   ESD
   NOEXIT
 3   FLAG(0,ALIGN,NOCONT,NOIMPLEN,NOPAGE0,PUSH,RECORD,NOSUBSTR,USING0)
   NOFOLD
   NOGOFF
   NOINFO
     LANGUAGE(EN)
   NOLIBMAC
 3   LINECOUNT(32767)
     LIST(121)
     MXREF(SOURCE)
 3 NOOBJECT
     OPTABLE(UNI,NOLIST)
   NOPCONTROL
   NOPESTOP
   NOPROFILE
   NORA2
 3 NORENT
     RLD
     RXREF
     SIZE(MAX)
     SYSPARM()
 3   TERM(WIDE)
   NOTEST
     THREAD
   NOTRANSLATE
 3   USING(NOLIMIT,MAP,WARN(10))
 3   XREF(SHORT)

   No Overriding DD Names

1DBUG     External Symbol Dictionary                                                                                        Page    2
-Symbol   Type   Id     Address  Length     LD ID  Flags Alias-of                            HLASM R4.0  2004/03/15 12.41
0WYLDBUG   SD 00000001 00000000 00003738             00
 DBUG2163  LD          00000000           00000001
 INITDBUG  LD          00000024           00000001
 DBLINE    LD          0000008C           00000001
 DBCALL    LD          000001E8           00000001
 DBRET     LD          0000024E           00000001
 EXPAUSE   ER 00000002
 GETXNAME  ER 00000003
 XSETSET   ER 00000004
 XGETFRST  ER 00000005
 XGETNEXT  ER 00000006
 XDEBUG    LD          00000574           00000001
 MNULL     ER 00000007
 MTOKEN    ER 00000008
 MALL      ER 00000009
 SCNINVAL  ER 0000000A
 DSTART    LD          00000B42           00000001
 DCLEAR    LD          00000B7E           00000001
 DLOG      LD          00000BB6           00000001
 DNOLOG    LD          00000BEC           00000001
 DST       LD          00000C22           00000001
 DCT       LD          00000D9C           00000001
 DSHOW     LD          00000ED4           00000001
 DNEXT     LD          000011B4           00000001
 DTRACE    LD          0000121E           00000001
 NSCAN     ER 0000000B
 SCANCHK   ER 0000000C
 NOOPTS    ER 0000000D
 XPUT      ER 0000000E
 XDELETE   ER 0000000F
 COLLOPTS  ER 00000010
 SEGCR     ER 00000011
 SEG       ER 00000012
 SEGFDSN   ER 00000013
 EXECHK    ER 00000014
 DBCLEAR   LD          000018F6           00000001
 MSYMLN    ER 00000015
 XDELSET   ER 00000016
 NOTVALID  ER 00000017
 SCUPCASE  ER 00000018
 DOFNAME   ER 00000019
 FNAMOPTS  ER 0000001A
 FNAMEFIN  ER 0000001B
 NRESOLVE  ER 0000001C
 SETXNAME  ER 0000001D
 CVEXNO    ER 0000001E
 SEGXDSN   ER 0000001F
 SEGTB     ER 00000020
 MONCMD    LD          000020B8           00000001
 SETXLINE  LD          0000215C           00000001
 GETCPU    ER 00000021
 XMONITOR  LD          000021A0           00000001
 MPINT     ER 00000022
 MCLEAR    LD          000025A6           00000001
 GETCORE   ER 00000023
1DBUG     External Symbol Dictionary                                                                                        Page    3
 FREECORE  ER 00000024
 XGET      ER 00000025
 SHOWMON   LD          00002F80           00000001
 COLLPSH   ER 00000026
 SEGWR     ER 00000027
 SEGDC     ER 00000028
 CPUFIX    ER 00000029

1DBUG     Exec DEBUG and MONITOR Commands/Routines                                                                          Page    4
0Loc    Object Code    Addr1 Addr2  Stmt Lv Lineno    Source Statement                    (Asmedit 3.3)  HLASM R4.0  2004/03/15 12.41
+___    ______ ____    _____ _____  ____ __ ______    ______ _________
0                                      2              *******************************************************************
                                       3              *                                                                 *
                                       4              *     WYLBUR/370 - Release VI - Class I - Stanford Proprietary    *
                                       5              *                                                                 *
                                       6              *******************************************************************
                                       7                       HIBAL
                                     988
1DBUG     Exec DEBUG and MONITOR Commands/Routines                                                                          Page    5
0D-Loc  Object Code    Addr1 Addr2  Stmt Lv Lineno    Source Statement           (Hibal 5, Asmedit 3.3)  HLASM R4.0  2004/03/15 12.41
+_____  ______ ____    _____ _____  ____ __ ______    ______ _________
0000000                00000 03738   990              WYLDBUG  CSECT
                                     994                       REGS  FSR,,,,,,,BR,(WAR,LSR),PAR,PBR,CPR,CVR,SPR,RAR
                                    1130
                                    1131              DBUG     IDENT 2163                19:08:17 06/11/92 (JDN)
                                    1134             +
                                    1135    01-IDENT +         ENTRY DBUG2163
                                    1136             +
 000000 16C4C2E4C7F2F1F6            1137    01-IDENT +DBUG2163 DC    AL1(22),C'DBUG2163,15MAR04,12:41'
                                    1138             +*
                                    1140              *
                                    1141                       SYSDEFN ,                 Define installation values
                                    1142
                                    1143                       PUSH  DSECTS
 USING  CP,R11                      1155             =         USING (CP),(CV)
 USING  CV,R12
 000017                00000 03738  1174             =         POP   PRINT
 000017                00000 03738  6587              WYLDBUG  CSECT
 000017 C4D640C9E340E3D6            6589                       DC    C'DO IT TO IT!'
                                    6590
1DBUG     (DBUG2163) (12:41) (15MAR04) DSECTS                                                                               Page    6
0Current Usings:  (CP,R11) (CV,R12)
0Loc    Object Code    Addr1 Addr2  Stmt Lv Lineno    Source Statement           (Hibal 5, Asmedit 3.3)  HLASM R4.0  2004/03/15 12.41
+___    ______ ____    _____ _____  ____ __ ______    ______ _________
0                                   6592                       ¿þþþþþþþþþþþþþþþþþþþþþþþÜ
                                    6593                       Ÿ  COPY DSECTS TO HERE  Ÿ
                                    6594                       ¾þþþþþþþþþþþþþþþþþþþþþþþ»
1DBUG     (DBUG2163) (12:41) (15MAR04) EXEC DEBUGGER DSECTS                                                                 Page    7
0Current Usings:  (CP,R11) (CV,R12)
0Loc    Object Code    Addr1 Addr2  Stmt Lv Lineno    Source Statement           (Hibal 5, Asmedit 3.3)  HLASM R4.0  2004/03/15 12.41
+___    ______ ____    _____ _____  ____ __ ______    ______ _________
0                                   6596                       COPY  XDSNAME
                                    6597=            =   ¿þþþþþþþþþþþþþþþþþþþþþþþþþþþþþþþþþþþþþþþþþþþþþþþþþþþþþþþþþþÜ
                                    6598=            =   Ÿ                                                          Ÿ
                                    6599=            =   Ÿ  XDSNAME - EXEC NAME DSECT                               Ÿ
                                    6600=            =   Ÿ                                                          Ÿ
                                    6601=            =   Ÿ  EXEC NAME DSECT.  THIS DSECT PROVIDES A UNIFORM NAME    Ÿ
                                    6602=            =   Ÿ  FORMAT FOR EXEC FILES.  TO PROPERLY SET THE EXEC NAME   Ÿ
                                    6603=            =   Ÿ  YOU MUST USE THE 'SETXNAME' ROUTINE FOUND IN THE XCALL  Ÿ
                                    6604=            =   Ÿ  MODULE.  THE 'SETXNAME' ROUTINE INSURES PROPER THE      Ÿ
                                    6605=            =   Ÿ  PROPER SETTING OF ALL FIELDS AND ALLOWS EXEC NAME       Ÿ
                                    6606=            =   Ÿ  COMPARISONS TO WORK AS EXPECTED.                        Ÿ
                                    6607=            =   Ÿ                                                          Ÿ
                                    6608=            =   Ÿ  CURRENT NAME FORMAT IS FULLY QUALIFIED W/PDS IN '()'.   Ÿ
                                    6609=            =   Ÿ  EG. WYL.GG.UUU.LIB(LOGON)                               Ÿ
                                    6610=            =   Ÿ  EG. SYS1.PROCLIB(TESTWYL)                               Ÿ
                                    6611=            =   Ÿ  EG. WYL.GS.WYL.NETWORK.MODULE.ASMR23                    Ÿ
                                    6612=            =   Ÿ  NAMES LONGER THAN 56 ARE INVALID.                       Ÿ
                                    6613=            =   Ÿ                                                          Ÿ
                                    6614=            =   ¾þþþþþþþþþþþþþþþþþþþþþþþþþþþþþþþþþþþþþþþþþþþþþþþþþþþþþþþþþþ»
 000000                00000 00040  6615             =XDSNAME  RECORD BEGIN
 000000                             6623  1          =XNAME      DS    CL56                DATA SET NAME
                                    6624  1          =XPREFIX    EQU   XNAME,11            DATA SET PREFIX (WYL.GG.UUU.)
 000038                             6625  1          =XHASH      DS    F                   HOST HASH VALUE (NOT USED)
 00003C                             6626  1          =XMRK       DS    CL4                 NAME MARK FOR PUBLOAD, RELOAD
 000040                00040 00040  6627             =         END
 000024                             6636             =         DS    0S(CPRG64NL-L'XDSNAME)
 000024                             6637             =         DS    0S(L'XDSNAME-CPRG64NL)
1DBUG     (DBUG2163) (12:41) (15MAR04) EXEC DEBUGGER DSECTS                                                                 Page    8
0Current Usings:  (CP,R11) (CV,R12)
0Loc    Object Code    Addr1 Addr2  Stmt Lv Lineno    Source Statement           (Hibal 5, Asmedit 3.3)  HLASM R4.0  2004/03/15 12.41
+___    ______ ____    _____ _____  ____ __ ______    ______ _________
0                                   6639                     ¿þþþþþþþþþþþþþþþþþþþþþþþþþþþþþþþþþþþþþþþþþþþþþþþþþþþþþþþþþþþþþþþþþÜ
                                    6640                     Ÿ                                                                 Ÿ
                                    6641                     Ÿ    DEBUG TRAP RECORDS                                           Ÿ
                                    6642                     Ÿ                                                                 Ÿ
                                    6643                     Ÿ    THREE TYPES OF DEBUG TRAP RECORDS ARE KEPT:                  Ÿ
                                    6644                     Ÿ      1. LINE TRAP                                               Ÿ
                                    6645                     Ÿ      2. PROC/XPROC NAME TRAP                                    Ÿ
                                    6646                     Ÿ      3. PROC/XPROC RETURN TRAP                                  Ÿ
                                    6647                     Ÿ                                                                 Ÿ
                                    6648                     Ÿ    NOTE: ALL TRAPS  MUST HAVE A UNIQUE SEQUENCE NUMBER IN THE   Ÿ
                                    6649                     Ÿ    TRAP RECORD NAME.  SO THAT TRAPS ON THE SAME LINE NUMBER OR  Ÿ
                                    6650                     Ÿ    SAME PROC NAME IN DIFFERENT EXECS WILL HAVE UNIQUE TRAP      Ÿ
                                    6651                     Ÿ    ENTRIES.                                                     Ÿ
                                    6652                     Ÿ                                                                 Ÿ
                                    6653                     Ÿ  NOTE: IF DT.ALL FLAG SET, WE STOP AT TRAP FOR ALL EXEC FILES.  Ÿ
                                    6654                     Ÿ                                                                 Ÿ
                                    6655                     ¾þþþþþþþþþþþþþþþþþþþþþþþþþþþþþþþþþþþþþþþþþþþþþþþþþþþþþþþþþþþþþþþþþ»
 000000                00000 00058  6656              DTL      RECORD BEGIN              DEBUG TRAP LINE RECORD
 000000                             6664  1           DTLNAME    DS    XL16                NAME:
 000010                00010 00000  6665  1                      ORG   DTLNAME
 000000                             6666  1           DTLNMLIN   DS    F                     LINE NUMBER
 000004                00004 0000C  6667  1                      ORG   DTLNAME+12
 00000C                             6668  1           DTLNMSEQ   DS    F                     SEQUENCE NUMBER
 000010                00010 00010  6669  1                      ORG
 000010                             6670  1           DTLDATA    DS    XL(4+4+L'XDSNAME)   DATA:
 000058                00058 00010  6671  1                      ORG   DTLDATA
 000010 00                          6672  1           DTLFLAGS   FLAG  ,                     FLAGS,
 DTLFLAGS.DTLALL   80 ONES          6676  1                      FLAG  DTLALL                  GENERAL TRAP, TRAP ALL EXECS
                                    6681  1                      FLAG  ,
                                    6684  1                      FLAG  ,
                                    6687  1                      FLAG  ,
 000014                             6690  1           DTLLINE    DS    F                     TRAP LINE
 000018                             6691  1           DTLXNAME   DS    XL(L'XDSNAME)         TRAP EXEC NAME
 000058                00058 00058  6692                       END
                                    6701              *
                                    6702              *
 000000                00000 00064  6703              DTN      RECORD BEGIN              DEBUG TRAP NAME RECORD
 000000                             6711  1           DTNNAME    DS    XL16                NAME:
 000010                00010 00000  6712  1                      ORG   DTNNAME
 000000                             6713  1           DTNNMNAM   DS    CL12                  NAME (12 CHARS)
 00000C                0000C 0000C  6714  1                      ORG   DTNNAME+12
 00000C                             6715  1           DTNNMSEQ   DS    F                     SEQUENCE NUMBER
 000010                00010 00010  6716  1                      ORG
 000010                             6717  1           DTNDATA    DS    XL(4+16+L'XDSNAME)   DATA:
 000064                00064 00010  6718  1                      ORG   DTNDATA
 000010 00                          6719  1           DTNFLAGS   FLAG  ,                     FLAGS,
 DTNFLAGS.DTNALL   80 ONES          6723  1                      FLAG  DTNALL                  GENERAL TRAP, TRAP ALL EXECS
                                    6728  1                      FLAG  ,
                                    6731  1                      FLAG  ,
                                    6734  1                      FLAG  ,
 000011                             6737  1           DTNPNAME   DS    CL16                  TRAP PROC NAME
 000021                             6738  1           DTNXNAME   DS    XL(L'XDSNAME)         TRAP EXEC NAME
 000061                00061 00064  6739                       END
                                    6748              *
1DBUG     (DBUG2163) (12:41) (15MAR04) EXEC DEBUGGER DSECTS                                                                 Page    9
0Current Usings:  (CP,R11) (CV,R12)
0Loc    Object Code    Addr1 Addr2  Stmt Lv Lineno    Source Statement           (Hibal 5, Asmedit 3.3)  HLASM R4.0  2004/03/15 12.41
+___    ______ ____    _____ _____  ____ __ ______    ______ _________
0                                   6749              *
 000000                00000 00064  6750              DTR      RECORD BEGIN              DEBUG TRAP RETURN RECORD
 000000                             6758  1           DTRNAME    DS    XL16                NAME:
 000010                00010 00000  6759  1                      ORG   DTRNAME
 000000                             6760  1           DTRNMNAM   DS    CL12                  NAME (12 CHARS)
 00000C                0000C 0000C  6761  1                      ORG   DTRNAME+12
 00000C                             6762  1           DTRNMSEQ   DS    F                     SEQUENCE NUMBER
 000010                00010 00010  6763  1                      ORG
 000010                             6764  1           DTRDATA    DS    XL(4+16+L'XDSNAME)   DATA:
 000064                00064 00010  6765  1                      ORG   DTRDATA
 000010 00                          6766  1           DTRFLAGS   FLAG  ,                     FLAGS,
 DTRFLAGS.DTRALL   80 ONES          6770  1                      FLAG  DTRALL                  GENERAL TRAP, TRAP ALL EXECS
                                    6775  1                      FLAG  ,
                                    6778  1                      FLAG  ,
                                    6781  1                      FLAG  ,
 000011                             6784  1           DTRPNAME   DS    CL16                  TRAP PROC NAME
 000021                             6785  1           DTRXNAME   DS    XL(L'XDSNAME)         TRAP EXEC NAME
 000061                00061 00064  6786                       END
1DBUG     (DBUG2163) (12:41) (15MAR04) EXEC MONITOR DSECTS                                                                  Page   10
0Current Usings:  (CP,R11) (CV,R12)
0Loc    Object Code    Addr1 Addr2  Stmt Lv Lineno    Source Statement           (Hibal 5, Asmedit 3.3)  HLASM R4.0  2004/03/15 12.41
+___    ______ ____    _____ _____  ____ __ ______    ______ _________
0                                   6796              ¿þþþþþþþþþþþþþþþþþþþþþþþþþþþþþþþþþþþþþþþþþþþþþþþþþþþþþþþþþþþþþþþþþþþþþÜ
                                    6797              Ÿ                                                                     Ÿ
                                    6798              Ÿ                                                                     Ÿ
                                    6799              Ÿ  MONITOR DSECTS AND EQU'S                                           Ÿ
                                    6800              Ÿ                                                                     Ÿ
                                    6801              Ÿ                                                                     Ÿ
                                    6802              Ÿ  MMB - MONITOR MEMORY BLOCK DSECT                                   Ÿ
                                    6803              Ÿ                                                                     Ÿ
                                    6804              Ÿ  NOTES ON MMB DSECT:                                                Ÿ
                                    6805              Ÿ  MMBEND IS USED TO TEST AGAINST TO SEE IF THERE IS ROOM TO          Ÿ
                                    6806              Ÿ  ADD ANOTHER ENTRY, THUS IT IS A BIT SHORT OF THE ACTUAL END        Ÿ
                                    6807              Ÿ  OF BLOCK.                                                          Ÿ
                                    6808              Ÿ  MMBLINK IS NEVER ZERO, IT IS A CIRCULARLY LINKED LIST, IF          Ÿ
                                    6809              Ÿ  MEMORY IS LESS THAN THE TOTAL ALLOWED, WE ADD A NEW BLOCK          Ÿ
                                    6810              Ÿ  EACH TIME WE GET TO THE END OF A CURRENT BLOCK, AFTER THAT         Ÿ
                                    6811              Ÿ  NEW ENTRIES WILL OVERWRITE SOME OF THE OLDEST ONES.                Ÿ
                                    6812              Ÿ                                                                     Ÿ
                                    6813              Ÿ                                                                     Ÿ
                                                      ¾þþþþþþþþþþþþþþþþþþþþþþþþþþþþþþþþþþþþþþþþþþþþþþþþþþþþþþþþþþþþþþþþþþþþþ»
0000000                00000 00020  6814              MMB      RECORD BEGIN              MONITOR MEMORY BLOCK LAYOUT
 000000                             6822  1           MMBLEN     DS    F                   MEMORY BLOCK LENGTH
 000004                             6823  1           MMBHEAD    DS    F                   FIRST BLOCK IN CHAIN
 000008                             6824  1           MMBLINK    DS    F                   LINK TO NEXT BLOCK IN CHAIN
 00000C                             6825  1           MMBTMEM    DS    F                   MEMORY TOTAL IN ALL BLOCKS
 000010                             6826  1           MMBEND     DS    F                   MEMORY BLOCK END - L'MONENTRY
 000014                             6827  1           MMBPTR     DS    F                   NEXT MONITOR MEMORY POINTER
 000018                             6828  1           MMBXLINE   DS    F                   EXEC LINE NUMBER
 00001C                             6829  1           MMBXSET    DS    F                   EXEC SET NUMBER
                                    6830  1           MMBDATA    EQU   *                   START OF ENTRIES
 000020                00020 00020  6831                       END
                                    6840                       ¿þþþþþþþþþþþþþþþþþþþþþþþÜ
                                    6841                       Ÿ                       Ÿ
                                    6842                       Ÿ  MONITOR ENTRY DSECT  Ÿ
                                    6843                       ¾þþþþþþþþþþþþþþþþþþþþþþþ»
 000000                00000 0000C  6844              MONENTRY RECORD BEGIN              MONITOR ENTRY
 000000                             6852  1           MONXLINE   DS    F                   EXEC LINE NUMBER
 000004                             6853  1           MONXSET    DS    F                   EXEC SET NUMBER
 000008                             6854  1           MONCPU     DS    F                   CPU TIME FOR LINE (IN TU'S)
 00000C                0000C 0000C  6855                       END
                                    6864                       ¿þþþþþþþþþþþþþþþþþÜ
                                    6865                       Ÿ                 Ÿ
                                    6866                       Ÿ  MONITOR EQU'S  Ÿ
                                    6867                       ¾þþþþþþþþþþþþþþþþþ»
                                    6868              MMEMMAX  EQU   1024*1000           MAX 1000K
                                    6869              MMEMBIG  EQU   1024*100            BIG 100K
                                    6870              MMEMMIN  EQU   1024*8-64           MIN 8K - 64
                                    6871              MMEMFDGE EQU   256                 FUDGE FACTOR FOR MEM BLK HDR INFO
                                    6872              MMEMDFLT EQU   MMEMMIN             DEFAULT IS MINIMUM
                                    6873              MMEMBSZ  EQU   1024*8-32           DEFAULT BLOCK SIZE REQUEST
                                    6874              MAXBIGCT EQU   3                   MAX XMON SESSIONS GT MMEMBIG
1DBUG     (DBUG2163) (12:41) (15MAR04) EXEC MONITOR DSECTS                                                                  Page   11
0Current Usings:  (CP,R11) (CV,R12)
0Loc    Object Code    Addr1 Addr2  Stmt Lv Lineno    Source Statement           (Hibal 5, Asmedit 3.3)  HLASM R4.0  2004/03/15 12.41
+___    ______ ____    _____ _____  ____ __ ______    ______ _________
0                                   6876                      ¿þþþþþþþþþþþþþþþþþþþþþþþþþþþþþþþþþþþþþþþþþþþþþþþþþþþþþþþþþþþþþþþþÜ
                                    6877                      Ÿ                                                                Ÿ
                                    6878                      Ÿ   MONITOR INFORMATION RECORD DSECTS                            Ÿ
                                    6879                      Ÿ                                                                Ÿ
                                    6880                      Ÿ   THREE TYPES OF RECORDS ARE SAVED AS MONITOR INFORMATION:     Ÿ
                                    6881                      Ÿ   1. RAW RECORDS, THE RAW MONITOR DATA, 1 ENTRY FOR EACH TIME  Ÿ
                                    6882                      Ÿ      A LINE IS EXECUTED                                        Ÿ
                                    6883                      Ÿ   2. SUMMARY RECORDS, ONE RECORD FOR EACH EXEC LINE, CONTAINS  Ÿ
                                    6884                      Ÿ      EXECUTION COUNT AND TOTAL CPU FOR EXEC LINE               Ÿ
                                    6885                      Ÿ  3. SET NUMBER / EXEC NAME RECORDS, THESE RECORDS ARE USED TO  Ÿ
                                    6886                      Ÿ     ASSOCIATE SET NUMBERS WITH REAL EXEC DATA SET NAMES.  THE  Ÿ
                                    6887                      Ÿ    DSN NAME IS SAVED IN XDSNAME FORMAT PADDED WITH BLANKS NOT  Ÿ
                                    6888                      Ÿ      ZEROS.  SEE SETXNAME ROUTINE IN XCALL MODULE.             Ÿ
                                    6889                      Ÿ                                                                Ÿ
                                    6890                      Ÿ   CAUTION: NAME FIELD MUST BE 16 BYTES LONG !                  Ÿ
                                    6891                      ¾þþþþþþþþþþþþþþþþþþþþþþþþþþþþþþþþþþþþþþþþþþþþþþþþþþþþþþþþþþþþþþþþ»
 000000                00000 0001C  6892              MRR      RECORD BEGIN              MONITOR RAW RECORD DSECT
 000000                             6900  1           MRRNAME    DS    XL16                NAME:
                                    6901  1           MRRNMSEQ   EQU   MRRNAME               SEQUENCE NUMBER
 000010                             6902  1           MRRDATA    DS    XL12                DATA:
 00001C                0001C 00010  6903  1                      ORG   MRRDATA
 000010                             6904  1           MRRXLINE   DS    F                     EXEC LINE NUMBER
 000014                             6905  1           MRRXSET    DS    F                     EXEC SET NUMBER
 000018                             6906  1           MRRCPU     DS    F                     CPU FOR LINE EXECUTION
 00001C                0001C 0001C  6907                       END
                                    6916              *
                                    6917              *
 000000                00000 00020  6918              MSR      RECORD BEGIN              MONITOR SUMMARY RECORD
 000000                             6926  1           MSRNAME    DS    XL16                NAME:
                                    6927  1           MSRNMSET   EQU   MSRNAME               EXEC SET NUMBER   [ORDER]
                                    6928  1           MSRNMLIN   EQU   MSRNAME+4             EXEC SET LINE     [ORDER]
 000010                             6929  1           MSRDATA    DS    XL16                DATA:
 000020                00020 00010  6930  1                      ORG   MSRDATA
 000010                             6931  1           MSRXLINE   DS    F                      LINE NUMBER
 000014                             6932  1           MSRXSET    DS    F                      SET NUMBER
 000018                             6933  1           MSRTCPU    DS    F                      TOTAL CPU TIME (TU'S)
 00001C                             6934  1           MSRCNT     DS    F                      TOTAL EXECUTION COUNT
 000020                00020 00020  6935                       END
                                    6944              *
                                    6945              *
 000000                00000 00050  6946              MNR      RECORD BEGIN              MONITOR NAME RECORD
 000000                             6954  1           MNRNAME    DS    XL16                NAME:
                                    6955  1           MNRNMSET   EQU   MNRNAME               EXEC SET NUMBER
 000010                             6956  1           MNRDATA    DS    CL64                DATA:
 000050                00050 00010  6957  1                      ORG   MNRDATA
 000010                             6958  1           MNRXNAME   DS    CL(L'XDSNAME)         EXEC NAME FOR SET#
 000050                00050 00050  6959                       END
1DBUG     (DBUG2163) (12:41) (15MAR04) DeBUG MoDULE                                                                         Page   12
0Current Usings:  (CP,R11) (CV,R12)
0Loc    Object Code    Addr1 Addr2  Stmt Lv Lineno    Source Statement           (Hibal 5, Asmedit 3.3)  HLASM R4.0  2004/03/15 12.41
+___    ______ ____    _____ _____  ____ __ ______    ______ _________
0                                   6969              ¿þþþþþþþþþþþþþþþþþþþþþþþþþþþþþþþþþþþþþþþþþþþþþþþþþþþþþþþþþþþþþþþþþþþþþÜ
                                    6970              Ÿ                                                                     Ÿ
                                    6971              Ÿ                                                                     Ÿ
                                    6972              Ÿ  INITDBUG - INITIALIZE DEBUG MODULE                                 Ÿ
                                    6973              Ÿ                                                                     Ÿ
                                    6974              Ÿ                                                                     Ÿ
                                    6975              Ÿ  CALLED AT USER LOGON.                                              Ÿ
                                    6976              Ÿ                                                                     Ÿ
                                    6977              Ÿ                                                                     Ÿ
                                    6978              Ÿ                                                                     Ÿ
                                                      ¾þþþþþþþþþþþþþþþþþþþþþþþþþþþþþþþþþþþþþþþþþþþþþþþþþþþþþþþþþþþþþþþþþþþþþ»
0000024 50E0 D000/9008_      00000  6979              INITDBUG XPROC ,
 USING  *,R7
                                    7019
                                    7020                       COMMENT                   INITIALIZE DEBUG STUFF
 00003E 947F B84C      0084C        7021                       CLEAR CPFDEBUG
 000042 94BF B84C      0084C        7028                       CLEAR CPFTRACE
 000046 94DF B84C      0084C        7035                       CLEAR CPFTTRAP
 00004A 947F B84D      0084D        7042                       CLEAR CPFDNEXT
 00004E 94BF B84D      0084D        7049                       CLEAR CPFDSTOP
 000052 94DF B84D      0084D        7056                       CLEAR CPFDSTPD
 000056 94EF B84D      0084D        7063                       CLEAR CPFISTOP
 00005A 94F7 B84D      0084D        7070                       CLEAR CPFISTPD
 00005E 94FB B84D      0084D        7077                       CLEAR CPFIDONE
 000062 D703 B850 B850 00850 00850  7084                       CLEAR CPTRAPSQ
                                    7091
                                    7092                       COMMENT                   INITIALIZE MONITOR STUFF
 000068 947F B84F      0084F        7093                       CLEAR CPFMON
 00006C D703 B854 B854 00854 00854  7100                       CLEAR CPMONPTR
 000072 D703 B858 B858 00858 00858  7107                       CLEAR CPMONCPU
 000078 D703 B85C B85C 0085C 0085C  7114                       CLEAR CPMONMAX
                                    7121
 00007E 18D8/9808 D004_             7122                       PEND  ,
 DROP   *,R7
1DBUG     (DBUG2163) (12:41) (15MAR04) DEBUG Execution Routines                                                             Page   13
0Current Usings:  (CP,R11) (CV,R12)
0Loc    Object Code    Addr1 Addr2  Stmt Lv Lineno    Source Statement           (Hibal 5, Asmedit 3.3)  HLASM R4.0  2004/03/15 12.41
+___    ______ ____    _____ _____  ____ __ ______    ______ _________
0                                   7143              ¿þþþþþþþþþþþþþþþþþþþþþþþþþþþþþþþþþþþþþþþþþþþþþþþþþþþþþþþþþþþþþþþþþþþþþÜ
                                    7144              Ÿ                                                                     Ÿ
                                    7145              Ÿ                                                                     Ÿ
                                    7146              Ÿ  DBLINE - DEBUG LINE                                                Ÿ
                                    7147              Ÿ                                                                     Ÿ
                                    7148              Ÿ  ON ENTRY:                                                          Ÿ
                                    7149              Ÿ       CPEXLINE - EXEC LINE NUMBER                                   Ÿ
                                    7150              Ÿ       CP#XSET - EXEC FILE SET NUMBER                                Ÿ
                                    7151              Ÿ                                                                     Ÿ
                                    7152              Ÿ  THIS ROUTINE IS CALLED TO HANDLE ALL DEBUGING TRAPS.  IT           Ÿ
                                    7153              Ÿ  IS SOMEWHAT TRICKY IN THAT EVERYTHING MUST BE HANDLED IN           Ÿ
                                    7154              Ÿ  PROPER ORDER. SOME GENERAL EXPLANATION FOLLOWS...                  Ÿ
                                    7155              Ÿ                                                                     Ÿ
                                    7156              Ÿ  NORMAL TRAP FLAGS:                                                 Ÿ
                                    7157              Ÿ    NEXT FLAG - STOP BEFORE NEXT COMMAND EXECUTION                   Ÿ
                                    7158              Ÿ    STOP FLAG - STOP BEFORE EXECUTING THIS COMMAND                   Ÿ
                                    7159              Ÿ    STOPPED FLAG - WE ARE AT A STOP                                  Ÿ
                                    7160              Ÿ  AT EACH EXEC COMMAND EXECUTION THESE FLAGS ARE CHECKED AND         Ÿ
                                    7161              Ÿ  PROCESSED.  ORDER IN PROCESSING                                    Ÿ
                                    7162              Ÿ  THESE FLAGS IS IMPORTANT... IF WE ARE 'STOPPED', WE DO NOT         Ÿ
                                    7163              Ÿ  PROCESS A 'STOP' FLAG,, AS IT HAS ALREADY BEEN PROCESSED AND       Ÿ
                                    7164              Ÿ  WE HAVE 'STOPPED', AND SO WE DO NOT STOP AGAIN.  THESE THREE       Ÿ
                                    7165              Ÿ  FLAGS ROTATE AROUND AS FOLLOWS:                                    Ÿ
                                    7166              Ÿ       NEXT -> STOP -> STOPPED...                                    Ÿ
                                    7167              Ÿ  WE PROCESS THE FOLLOWING CASES:                                    Ÿ
                                    7168              Ÿ       NEXT,                                                         Ÿ
                                    7169              Ÿ       STOP,                                                         Ÿ
                                    7170              Ÿ       STOPPED,                  (IGNORE STOP FLAG IF SET)           Ÿ
                                    7171              Ÿ       NEXT AND STOPPED.                                             Ÿ
                                    7172              Ÿ                                                                     Ÿ
                                    7173              Ÿ  IMMEDIATE STOP FLAGS:                                              Ÿ
                                    7174              Ÿ  A SIMILAR MECHANISM IS USED FOR STOPPING BEFORE A RETURN           Ÿ
                                    7175              Ÿ  COMMAND... THIS MECHANISM IS KNOWN AS AN IMMEDIATE STOP.           Ÿ
                                    7176              Ÿ  IT USES THE FOLLOWING 3 FLAGS:                                     Ÿ
                                    7177              Ÿ       ISTOP  -> ISTOPPED  -> IDONE                                  Ÿ
                                    7178              Ÿ  THE IDONE FLAG IS NEEDED SO THAT THE COMMAND CAN CHECK IF          Ÿ
                                    7179              Ÿ  IT HAS ALREADY BEEN STOPPED.  CURRENTLY THIS SET OF FLAGS IS       Ÿ
                                    7180              Ÿ  IS ONLY USED TO STOP BEFORE AN 'XRETURN' OR 'RETURN' COMMAND       Ÿ
                                    7181              Ÿ  IS EXECUTED.  THIS TYPE OF STOP OVERRIDES THE OTHER STOP FLAGS     Ÿ
                                    7182              Ÿ  AS IT IS IMMEDIATELY TAKEN.                                        Ÿ
                                    7183              Ÿ  WE PROCESS THE FOLLOWING CASES:                                    Ÿ
                                    7184              Ÿ       ISTOP,    (WE CLEAR ANY REGULAR NEXT, STOP, STOPPED FLAGS)    Ÿ
                                    7185              Ÿ       ISTOPPED                                                      Ÿ
                                    7186              Ÿ       NEXT AND ISTOPPED                                             Ÿ
                                    7187              Ÿ       IDONE                                                         Ÿ
                                    7188              Ÿ                                                                     Ÿ
                                    7189              Ÿ  THE FOLLOWING ROUTINES SET THESE FLAGS EXTERNAL TO THIS ROUTINE:   Ÿ
                                    7190              Ÿ       NEXT - 'DEBUG NEXT' TYPED      (ONLY ALLOWED AT TRAP BREAK)   Ÿ
                                    7191              Ÿ       STOP - 'LINE NUMBER TRAP' HIT  (SET HERE)                     Ÿ
                                    7192              Ÿ       STOP - 'PROC NAME TRAP' HIT    (IN XCALL,PCALL)               Ÿ
                                    7193              Ÿ       ISTOP - 'RETURN TRAP' HIT      (IN XRETURN, RETURN)           Ÿ
                                    7194              Ÿ  THE REMAINING FLAGS ARE STATE FLAGS AND ARE PROCESSED CAREFULLY    Ÿ
                                    7195              Ÿ  BELOW.                                                             Ÿ
                                    7196              Ÿ                                                                     Ÿ
1DBUG     (DBUG2163) (12:41) (15MAR04) DEBUG Execution Routines                                                             Page   14
0Current Usings:  (CP,R11) (CV,R12)
0Loc    Object Code    Addr1 Addr2  Stmt Lv Lineno    Source Statement           (Hibal 5, Asmedit 3.3)  HLASM R4.0  2004/03/15 12.41
+___    ______ ____    _____ _____  ____ __ ______    ______ _________
0                                   7197              Ÿ                                                                     Ÿ
                                    7198              Ÿ                                                                     Ÿ
                                                      ¾þþþþþþþþþþþþþþþþþþþþþþþþþþþþþþþþþþþþþþþþþþþþþþþþþþþþþþþþþþþþþþþþþþþþþ»
000008C 50E0 D000/9008_      00000  7199              DBLINE   XPROC
 USING  *,R7
                                    7239                       ¿þþþþþþþþþþþþþþþþþþþþþþþþþþþþþþþþþþþÜ
                                    7240                       Ÿ  Only debug non-publoaded execs.  Ÿ
                                    7241                       ¾þþþþþþþþþþþþþþþþþþþþþþþþþþþþþþþþþþþ»
 0000A6 D503 B778 749A_00778 00540  7242                       IF    ('CLC CP#XSET,=A(CV#FEXEC)',GE),EXIT  Scram
                                    7258
                                    7259                       COMMENT                   CHECK FOR LINE TRAP
 0000B0 5800 B778            00778  7260                       L     R0,CP#XSET
 0000B4 5810 B75C            0075C  7261                       L     R1,CPEXLINE
 0000B8 58E0 749E/0DEE       00544  7262                       ACALL CHKLINE
 0000BE 4770 7020            000C6  7266                       IF    Z,BEGIN             IF GOT TRAP, SET STOP FLAG
 0000C2 9640 B84D      0084D        7277  1                      SET   CPFDSTOP
 0000C6                             7283                       END
                                    7287                       COMMENT                   PROCESS STOP FLAGS
                                    7288                       COMMENT                   NOTE: ORDER OF PROCESSING IS
                                    7289                       COMMENT                    CRITICAL, DO NOT MESS IT UP !!
                                    7290
                                    7291                       COMMENT                   CLEAR ANY LEFT OVER ISTOP DONE
 0000C6 94FB B84D      0084D        7292                       CLEAR CPFIDONE
                                    7299
                                    7300                       COMMENT                   IF STOPPED IMMEDIATE  (NO NEXT)
 0000CA 9108 B84D/47E0_0084D        7301                       IF    (CPFISTPD,AND,~CPFDNEXT),BEGIN
 0000DA 947F B84D      0084D        7330  1                      CLEAR CPFDNEXT
 0000DE 94BF B84D      0084D        7337  1                      CLEAR CPFDSTOP
 0000E2 94DF B84D      0084D        7344  1                      CLEAR CPFDSTPD
 0000E6 94EF B84D      0084D        7351  1                      CLEAR CPFISTOP
 0000EA 94F7 B84D      0084D        7358  1                      CLEAR CPFISTPD
 0000EE 9604 B84D      0084D        7365  1                      SET   CPFIDONE
 0000F2                             7371                       END
                                    7375
                                    7376                       COMMENT                   IF STOPPED IMMEDIATE  (NEXT SET)
 0000F2 7050/7050/47F0_000F2 000D0  7377                       ELSEIF (CPFISTPD,AND,CPFDNEXT),BEGIN
 000106 947F B84D      0084D        7417  1                      CLEAR CPFDNEXT
 00010A 9640 B84D      0084D        7424  1                      SET   CPFDSTOP
 00010E 94DF B84D      0084D        7430  1                      CLEAR CPFDSTPD
 000112 94EF B84D      0084D        7437  1                      CLEAR CPFISTOP
 000116 94F7 B84D      0084D        7444  1                      CLEAR CPFISTPD
 00011A 9604 B84D      0084D        7451  1                      SET   CPFIDONE
 00011E                             7457                       END
                                    7461
                                    7462                       COMMENT                   IF STOP IMMEDIATE
 00011E 707C/707C/47F0_0011E 000FC  7463                       ELSEIF CPFISTOP,BEGIN
 00012A 947F B84D      0084D        7489  1                      CLEAR CPFDNEXT
 00012E 94BF B84D      0084D        7496  1                      CLEAR CPFDSTOP
 000132 94DF B84D      0084D        7503  1                      CLEAR CPFDSTPD
 000136 94EF B84D      0084D        7510  1                      CLEAR CPFISTOP
 00013A 9608 B84D      0084D        7517  1                      SET   CPFISTPD
 00013E 94FB B84D      0084D        7523  1                      CLEAR CPFIDONE
 000142 D203 B760 B75C 00760 0075C  7530  1                      MVC   CPEXNEXT,CPEXLINE
1DBUG     (DBUG2163) (12:41) (15MAR04) DEBUG Execution Routines                                                             Page   15
0Current Usings:  (*,R7) (CP,R11) (CV,R12)
0Loc    Object Code    Addr1 Addr2  Stmt Lv Lineno    Source Statement           (Hibal 5, Asmedit 3.3)  HLASM R4.0  2004/03/15 12.41
+___    ______ ____    _____ _____  ____ __ ______    ______ _________
0000148 58E0 74A2/0DEE       00548  7531  1                      ACALL STOPMSG
 00014E 58E0 74A6/0DEE       0054C  7535  1                      VCALL EXPAUSE
 000154                             7539                       END
                                    7543
                                    7544                       COMMENT                   IF STOPPED  (NO NEXT)
 000154 70B2/47F0 70CE_00154 00128  7545                       ELSEIF (CPFDSTPD,AND,~CPFDNEXT),BEGIN
 000168 947F B84D      0084D        7583  1                      CLEAR CPFDNEXT
 00016C 94BF B84D      0084D        7590  1                      CLEAR CPFDSTOP
 000170 94DF B84D      0084D        7597  1                      CLEAR CPFDSTPD
 000174                             7604                       END
                                    7608
                                    7609                       COMMENT                   IF STOPPED  (NEXT SET)
 000174 70D2/70D2/47F0_00174 0015E  7610                       ELSEIF (CPFDSTPD,AND,CPFDNEXT),BEGIN
 000188 947F B84D      0084D        7650  1                      CLEAR CPFDNEXT
 00018C 9640 B84D      0084D        7657  1                      SET   CPFDSTOP
 000190 94DF B84D      0084D        7663  1                      CLEAR CPFDSTPD
 000194                             7670                       END
                                    7674
                                    7675                       COMMENT                   IF STOP,
 000194 70F2/70F2/47F0_00194 0017E  7676                       ELSEIF CPFDSTOP,BEGIN
                                    7702  1                      COMMENT NEXT CAN ONLY BE SET BY DEBUG NEXT COMMAND DURING
                                    7703  1                      COMMENT ...
 0001A0 9180 B84D/47E0_0084D        7704  1                      IF    CPFDNEXT,BEGIN
                                    7719  2           *$  STOP AND NEXT CAN HAPPEN SOMEHOW IF DNEXT IS REPEATEDLY HIT
                                    7720  2           *$  THRU THE END AND START OF A NEW EXEC ??? OR SOMEHOW.!
                                    7721  2           *        BOMB
 0001A8                             7722  1                      END
 0001A8 94BF B84D      0084D        7726  1                      CLEAR CPFDSTOP
 0001AC 9620 B84D      0084D        7733  1                      SET   CPFDSTPD
 0001B0 D203 B760 B75C 00760 0075C  7739  1                      MVC   CPEXNEXT,CPEXLINE
 0001B6 58E0 74A2/0DEE       00548  7740  1                      ACALL STOPMSG
 0001BC 58E0 74A6/0DEE       0054C  7744  1                      VCALL EXPAUSE
 0001C2                             7748                       END
                                    7752
                                    7753                       COMMENT                   IF NEXT,
 0001C2 7120/47F0 7134_001C2 0019E  7754                       ELSEIF CPFDNEXT,BEGIN
 0001CE 947F B84D      0084D        7778  1                      CLEAR CPFDNEXT
 0001D2 9640 B84D      0084D        7785  1                      SET   CPFDSTOP
 0001D6 94DF B84D      0084D        7791  1                      CLEAR CPFDSTPD
 0001DA                             7798                       END
                                    7802
 0001DA 18D8/9808 D004_             7803                       PEND
 DROP   *,R7
1DBUG     (DBUG2163) (12:41) (15MAR04) DEBUG Execution Routines                                                             Page   16
0Current Usings:  (CP,R11) (CV,R12)
0Loc    Object Code    Addr1 Addr2  Stmt Lv Lineno    Source Statement           (Hibal 5, Asmedit 3.3)  HLASM R4.0  2004/03/15 12.41
+___    ______ ____    _____ _____  ____ __ ______    ______ _________
0                                   7824              ¿þþþþþþþþþþþþþþþþþþþþþþþþþþþþþþþþþþþþþþþþþþþþþþþþþþþþþþþþþþþþþþþþþþþþþÜ
                                    7825              Ÿ                                                                     Ÿ
                                    7826              Ÿ                                                                     Ÿ
                                    7827              Ÿ  DBCALL - DEBUG XCALL, PCALL TRAPS, TRACE,,                         Ÿ
                                    7828              Ÿ                                                                     Ÿ
                                    7829              Ÿ  ON ENTRY:                                                          Ÿ
                                    7830              Ÿ       R0 - EXEC SET NUMBER                                          Ÿ
                                    7831              Ÿ      @R1 - EXEC PROC NAME (16 CHAR, LEFT JUSTIFIED)                 Ÿ
                                    7832              Ÿ                                                                     Ÿ
                                    7833              Ÿ  SEE COMMENTS IN DBLINE ROUTINE.                                    Ÿ
                                    7834              Ÿ                                                                     Ÿ
                                    7835              Ÿ                                                                     Ÿ
                                    7836              Ÿ                                                                     Ÿ
                                                      ¾þþþþþþþþþþþþþþþþþþþþþþþþþþþþþþþþþþþþþþþþþþþþþþþþþþþþþþþþþþþþþþþþþþþþþ»
00001E8 50E0 D000/9008_      00000  7837              DBCALL   XPROC
 USING  *,R7
                                    7877                       ¿þþþþþþþþþþþþþþþþþþþþþþþþþþþþþþþþþþþÜ
                                    7878                       Ÿ  Only debug non-publoaded execs.  Ÿ
                                    7879                       ¾þþþþþþþþþþþþþþþþþþþþþþþþþþþþþþþþþþþ»
 000202 D503 B778 733E_00778 00540  7880                       IF    ('CLC CP#XSET,=A(CV#FEXEC)',LT),BEGIN
                                    7893  1                      COMMENT                   CHECK FOR TRAP
 00020C 58E0 734E/0DEE       00550  7894  1                      ACALL CHKNAME
                                    7898  1
                                    7899  1                      COMMENT                   IF TRAP
 000212 4770 701E            00220  7900  1                      IF    Z,BEGIN
 000216 58E0 7352/0DEE       00554  7911  2                        ACALL CALLMSG             GIVE PROC ENTERED... MSG
 00021C 9640 B84D      0084D        7915  2                        SET   CPFDSTOP            STOP BEFORE EXECUTING NEXT CMD
 000220                             7921  1                      END
                                    7925  1
                                    7926  1                      COMMENT                   OTHER WISE IF TRACE,,
 000220 7022/47F0 703C_00220 00214  7927  1                      ELSEIF CPFTRACE,BEGIN
 00022C 58E0 7352/0DEE       00554  7951  2                        ACALL CALLMSG             GIVE PROC ENTERED... MSG
 000232 9120 B84C/47E0_0084C        7955  2                        IF    CPFTTRAP,BEGIN      IF TRACE STOP, SET STOP
 00023A 9640 B84D      0084D        7970  3                          SET   CPFDSTOP
 00023E                             7976  2                        END
 00023E                             7980  1                      END
 00023E                             7984                       END
                                    7988
 00023E 1BFF                        7989                       CLEAR R15
 000240 18D8/9808 D004_             7993                       PEND
 DROP   *,R7
1DBUG     (DBUG2163) (12:41) (15MAR04) DEBUG Execution Routines                                                             Page   17
0Current Usings:  (CP,R11) (CV,R12)
0Loc    Object Code    Addr1 Addr2  Stmt Lv Lineno    Source Statement           (Hibal 5, Asmedit 3.3)  HLASM R4.0  2004/03/15 12.41
+___    ______ ____    _____ _____  ____ __ ______    ______ _________
0                                   8014              ¿þþþþþþþþþþþþþþþþþþþþþþþþþþþþþþþþþþþþþþþþþþþþþþþþþþþþþþþþþþþþþþþþþþþþþÜ
                                    8015              Ÿ                                                                     Ÿ
                                    8016              Ÿ                                                                     Ÿ
                                    8017              Ÿ  DBRET - DEBUG XRETURN, RETURN TRAPS, TRACE                         Ÿ
                                    8018              Ÿ                                                                     Ÿ
                                    8019              Ÿ  ON ENTRY:                                                          Ÿ
                                    8020              Ÿ       R0 - EXEC SET NUMBER                                          Ÿ
                                    8021              Ÿ      @R1 - EXEC PROC NAME (16 CHAR, LEFT JUSTIFIED)                 Ÿ
                                    8022              Ÿ                                                                     Ÿ
                                    8023              Ÿ  SEE COMMENTS IN DBLINE ROUTINE.                                    Ÿ
                                    8024              Ÿ                                                                     Ÿ
                                    8025              Ÿ                                                                     Ÿ
                                    8026              Ÿ                                                                     Ÿ
                                                      ¾þþþþþþþþþþþþþþþþþþþþþþþþþþþþþþþþþþþþþþþþþþþþþþþþþþþþþþþþþþþþþþþþþþþþþ»
000024E 50E0 D000/9008_      00000  8027              DBRET    XPROC
 USING  *,R7
                                    8067                       ¿þþþþþþþþþþþþþþþþþþþþþþþþþþþþþþþþþþþÜ
                                    8068                       Ÿ  Only debug non-publoaded execs.  Ÿ
                                    8069                       ¾þþþþþþþþþþþþþþþþþþþþþþþþþþþþþþþþþþþ»
 000268 D503 B778 72F0_00778 00558  8070                       IF    ('CLC CP#XSET,=AL4(CV#FEXEC)',LT),BEGIN
                                    8083  1
                                    8084  1                      COMMENT                   IF JUST PROCESSED STOP,
 000272 9104 B84D/47E0_0084D        8085  1                      IF    CPFIDONE,BEGIN      DO NOT STOP AGAIN !!
 00027A 94FB B84D      0084D        8100  2                        CLEAR CPFIDONE
 00027E                             8107  1                      END
                                    8111  1
                                    8112  1                      COMMENT                   IF NOT YET STOPPED,,,
 00027E 701A/47F0 7060 0027E 00278  8113  1                      ELSE  BEGIN                 CHECK FOR TRAP,
 000282 58E0 72F4/0DEE       0055C  8124  2                        ACALL CHKRET
                                    8128  2
                                    8129  2                        COMMENT                   IF TRAP
 000288 4770 7038            002A0  8130  2                        IF    Z,BEGIN
 00028C 58E0 72F8/0DEE       00560  8141  3                          ACALL RETMSG              GIVE PROC ENTERED... MSG
 000292 D203 B760 B75C 00760 0075C  8145  3                          MVC   CPEXNEXT,CPEXLINE   GET SET TO RE-EXCUTE THIS LINE
 000298 9610 B84D      0084D        8146  3                          SET   CPFISTOP            STOP BEFORE EXECUTING NEXT CMD
 00029C 47F0 C7DE            007DE  8152  3                          B     CVNEXT
 0002A0                             8153  2                        END
                                    8157  2
                                    8158  2                        COMMENT                   OTHER WISE IF TRACE,,
 0002A0 703C/47F0 7060_002A0 0028A  8159  2                        ELSEIF CPFTRACE,BEGIN
 0002AC 58E0 72F8/0DEE       00560  8183  3                          ACALL RETMSG              GIVE PROC ENTERED... MSG
 0002B2 9120 B84C/47E0_0084C        8187  3                          IF    CPFTTRAP,BEGIN      IF TRACE STOP,
 0002BA D203 B760 B75C 00760 0075C  8202  4                            MVC   CPEXNEXT,CPEXLINE   GET SET TO RE-EXCUTE THIS LINE
 0002C0 9610 B84D      0084D        8203  4                            SET   CPFISTOP            STOP BEFORE EXECUTING NEXT CMD
 0002C4 47F0 C7DE            007DE  8209  4                            B     CVNEXT
 0002C8                             8210  3                          END
 0002C8                             8214  2                        END
 0002C8                             8218  1                      END
 0002C8                             8222                       END
                                    8226
 0002C8 1BFF                        8227                       CLEAR R15
 0002CA 18D8/9808 D004_             8231                       PEND
 DROP   *,R7
1DBUG     (DBUG2163) (12:41) (15MAR04) DEBUG Execution Routines                                                             Page   18
0Current Usings:  (CP,R11) (CV,R12)
0Loc    Object Code    Addr1 Addr2  Stmt Lv Lineno    Source Statement           (Hibal 5, Asmedit 3.3)  HLASM R4.0  2004/03/15 12.41
+___    ______ ____    _____ _____  ____ __ ______    ______ _________
0                                   8252              ¿þþþþþþþþþþþþþþþþþþþþþþþþþþþþþþþþþþþþþþþþþþþþþþþþþþþþþþþþþþþþþþþþþþþþþÜ
                                    8253              Ÿ                                                                     Ÿ
                                    8254              Ÿ                                                                     Ÿ
                                    8255              Ÿ  CHKLINE - CHECK FOR LINE TRAP                                      Ÿ
                                    8256              Ÿ                                                                     Ÿ
                                    8257              Ÿ  ON ENTRY:                                                          Ÿ
                                    8258              Ÿ       R0 - EXEC SET NUMBER                                          Ÿ
                                    8259              Ÿ       R1 - EXEC LINE NUMBER                                         Ÿ
                                    8260              Ÿ       TRAP RECORD GROUP CONTAINS TRAP LIST                          Ÿ
                                    8261              Ÿ                                                                     Ÿ
                                    8262              Ÿ  ON EXIT:                                                           Ÿ
                                    8263              Ÿ       R15 - CC=Z, TRAP SET                                          Ÿ
                                    8264              Ÿ             CC=NZ, NO TRAP SET                                      Ÿ
                                    8265              Ÿ                                                                     Ÿ
                                    8266              Ÿ                                                                     Ÿ
                                    8267              Ÿ                                                                     Ÿ
                                                      ¾þþþþþþþþþþþþþþþþþþþþþþþþþþþþþþþþþþþþþþþþþþþþþþþþþþþþþþþþþþþþþþþþþþþþþ»
0000000                00000 000B0  8268              CKLWA    RECORD BEGIN
 000000                             8276  1           CKLSET     DS    F
 000004                             8277  1           CKLLINE    DS    F
 000008                             8278  1           CKLNAME    DS    XL(L'DTLNAME)
 000018                             8279  1           CKLXNAME   DS    XL(L'XDSNAME)
 000058                             8280  1           CKLTRAP    DS    XL(L'DTL)
 0000B0                000B0 000B0  8281                       END
                                    8290              *
                                    8291              *
 0002D8 50E0 D000/9008_      00000  8292              CHKLINE  PROC  CKLWA
 USING  *,R7
 USING  CKLWA-(4+36),R8
 USING  DTL,R6                      8342                       USING DTL,R6
 0002F2 4160 8080            00058  8351                       LA    R6,CKLTRAP
                                    8352
                                    8353                       COMMENT                   INITALIZE WORK AREA
 0002F6 5000 8028            00000  8354                       ST    R0,CKLSET
 0002FA 5010 802C            00004  8355                       ST    R1,CKLLINE
 0002FE D757 8080 8080 00058 00058  8356                       CLEAR CKLTRAP
 000304 5010 6000            00000  8363                       ST    R1,DTLNMLIN
                                    8364
                                    8365                       COMMENT                   GET EXEC NAME
 000308 5800 8028            00000  8366                       L     R0,CKLSET
 00030C 4110 8040            00018  8367                       LA    R1,CKLXNAME
 000310 58E0 7272/0DEE       00564  8368                       VCALL GETXNAME
 000316 4780 702A            0031C  8372                       IF    NZ,BEGIN
 00031A 0000                        8383  1                      BOMB
 00031C                             8385                       END
                                    8389
                                    8390                       COMMENT                   SET RECORD GROUP
 00031C 41F0 B524            00524  8391                       LA    R15,CPRG16
 000320 4100 000F            0000F  8392                       LA    R0,CP#LTRAP
 000324 58E0 7276/0DEE       00568  8393                       VCALL XSETSET
                                    8397
                                    8398                       COMMENT                   CHECK FOR TRAP
 00032A 41F0 B524            00524  8399                       LA    R15,CPRG16
1DBUG     (DBUG2163) (12:41) (15MAR04) DEBUG Execution Routines                                                             Page   19
0Current Usings:  (DTL,R6) (*,R7) (CKLWA-(4+36),R8) (CP,R11) (CV,R12)
0Loc    Object Code    Addr1 Addr2  Stmt Lv Lineno    Source Statement           (Hibal 5, Asmedit 3.3)  HLASM R4.0  2004/03/15 12.41
+___    ______ ____    _____ _____  ____ __ ______    ______ _________
000032E 4100 0048            00048  8400                       LA    R0,L'DTLDATA
 000332 4110 6010            00010  8401                       LA    R1,DTLDATA
 000336 4120 6000            00000  8402                       LA    R2,DTLNAME
 00033A 58E0 727A/0DEE       0056C  8403                       VCALL XGETFRST
                                    8407                       COMMENT                   LOOP LOOKING FOR SPECIFIC TRAP
 000340 4140 0004            00004  8408                       LA    R4,4                ASSUME TRAP NOT FOUND
 000344 12FF/4770 70A0_             8409                       WHILE ((R15,Z),AND,(R4,NZ),AND,(DTLNMLIN,EQ,CKLLINE)),BEGIN
                                    8453  1         C            IF    (DTLALL,OR,
                                          1         C                  ((DTLLINE,EQ,CKLLINE),AND,
 00035A 9180 6010/4710_00010              1                            (DTLXNAME,EQ,CKLXNAME))),BEGIN
 000376 1B44                        8502  2                        CLEAR R4                  FOUND TRAP
 000378                             8506  1                      END
 000378 41F0 B524            00524  8510  1                      LA    R15,CPRG16
 00037C 4100 0048            00048  8511  1                      LA    R0,L'DTLDATA
 000380 4110 6010            00010  8512  1                      LA    R1,DTLDATA
 000384 4120 6000            00000  8513  1                      LA    R2,DTLNAME
 000388 58E0 727E/0DEE       00570  8514  1                      VCALL XGETNEXT
 00038E 47F0 7052            00344  8518                       END
 000392 18F4                        8523                       LR    R15,R4              SET CONDITION CODE
                                    8524
 000394 18D8/9808 D004_             8525                       PEND  ,
 DROP   CKLWA-(4+36),R8
 DROP   *,R7
 DROP   DTL,R6                      8550                       DROP  R6
1DBUG     (DBUG2163) (12:41) (15MAR04) DEBUG Execution Routines                                                             Page   20
0Current Usings:  (CP,R11) (CV,R12)
0Loc    Object Code    Addr1 Addr2  Stmt Lv Lineno    Source Statement           (Hibal 5, Asmedit 3.3)  HLASM R4.0  2004/03/15 12.41
+___    ______ ____    _____ _____  ____ __ ______    ______ _________
0                                   8558              ¿þþþþþþþþþþþþþþþþþþþþþþþþþþþþþþþþþþþþþþþþþþþþþþþþþþþþþþþþþþþþþþþþþþþþþÜ
                                    8559              Ÿ                                                                     Ÿ
                                    8560              Ÿ                                                                     Ÿ
                                    8561              Ÿ  CHKCALL - CHECK XCALL/PCALL TRAP                                   Ÿ
                                    8562              Ÿ                                                                     Ÿ
                                    8563              Ÿ  ON ENTRY:                                                          Ÿ
                                    8564              Ÿ       R0 - EXEC SET NUMBER                                          Ÿ
                                    8565              Ÿ       R1 - EXEC PROC NAME (16 CHAR, LEFT JUSTIFIED)                 Ÿ
                                    8566              Ÿ       TRAP RECORD GROUP CONTAINS TRAP LIST                          Ÿ
                                    8567              Ÿ                                                                     Ÿ
                                    8568              Ÿ  ON EXIT:                                                           Ÿ
                                    8569              Ÿ       R15 - CC=Z, TRAP SET                                          Ÿ
                                    8570              Ÿ             CC=NZ, NO TRAP SET                                      Ÿ
                                    8571              Ÿ                                                                     Ÿ
                                    8572              Ÿ                                                                     Ÿ
                                    8573              Ÿ                                                                     Ÿ
                                                      ¾þþþþþþþþþþþþþþþþþþþþþþþþþþþþþþþþþþþþþþþþþþþþþþþþþþþþþþþþþþþþþþþþþþþþþ»
0000000                00000 000BC  8574              CKNWA    RECORD BEGIN
 000000                             8582  1           CKNSET     DS    F
 000004                             8583  1           CKNLINE    DS    F
 000008                             8584  1           CKNNAME    DS    XL(L'DTNNAME)
 000018                             8585  1           CKNXNAME   DS    XL(L'XDSNAME)
 000058                             8586  1           CKNTRAP    DS    XL(L'DTN)
 0000BC                000BC 000BC  8587                       END
                                    8596              *
                                    8597              *
 0003A2 50E0 D000/9008_      00000  8598              CHKNAME  PROC  CKNWA
 USING  *,R7
 USING  CKNWA-(4+36),R8
 USING  DTN,R6                      8648                       USING DTN,R6
 0003BC 4160 8080            00058  8657                       LA    R6,CKNTRAP
                                    8658
                                    8659                       COMMENT                   INITALIZE WORK AREA
 0003C0 5000 8028            00000  8660                       ST    R0,CKNSET
 0003C4 D20F 8030 1000 00008 00000  8661                       MVC   CKNNAME,@R1
 0003CA D763 8080 8080 00058 00058  8662                       CLEAR CKNTRAP
 0003D0 D20B 6000 1000 00000 00000  8669                       MVC   DTNNMNAM,@R1
                                    8670
                                    8671                       COMMENT                   GET EXEC NAME
 0003D6 5800 8028            00000  8672                       L     R0,CKNSET
 0003DA 4110 8040            00018  8673                       LA    R1,CKNXNAME
 0003DE 58E0 71A8/0DEE       00564  8674                       VCALL GETXNAME
 0003E4 4780 702E            003EA  8678                       IF    NZ,BEGIN
 0003E8 0000                        8689  1                      BOMB
 0003EA                             8691                       END
                                    8695
                                    8696                       COMMENT                   SET RECORD GROUP
 0003EA 41F0 B524            00524  8697                       LA    R15,CPRG16
 0003EE 4100 0010            00010  8698                       LA    R0,CP#NTRAP
 0003F2 58E0 71AC/0DEE       00568  8699                       VCALL XSETSET
                                    8703
                                    8704                       COMMENT                   CHECK FOR TRAP
 0003F8 41F0 B524            00524  8705                       LA    R15,CPRG16
1DBUG     (DBUG2163) (12:41) (15MAR04) DEBUG Execution Routines                                                             Page   21
0Current Usings:  (DTN,R6) (*,R7) (CKNWA-(4+36),R8) (CP,R11) (CV,R12)
0Loc    Object Code    Addr1 Addr2  Stmt Lv Lineno    Source Statement           (Hibal 5, Asmedit 3.3)  HLASM R4.0  2004/03/15 12.41
+___    ______ ____    _____ _____  ____ __ ______    ______ _________
00003FC 4100 0054            00054  8706                       LA    R0,L'DTNDATA
 000400 4110 6010            00010  8707                       LA    R1,DTNDATA
 000404 4120 6000            00000  8708                       LA    R2,DTNNAME
 000408 58E0 71B0/0DEE       0056C  8709                       VCALL XGETFRST
                                    8713                       COMMENT                   LOOP LOOKING FOR SPECIFIC TRAP
 00040E 4140 0004            00004  8714                       LA    R4,4                ASSUME TRAP NOT FOUND
 000412 12FF/4770 70A4_             8715                       WHILE ((R15,Z),AND,(R4,NZ),AND,(DTNNMNAM,EQ,CKNNAME)),BEGIN
                                    8759  1         C            IF    (DTNALL,OR,
                                          1         C                  ((DTNPNAME,EQ,CKNNAME),AND,
 000428 9180 6010/4710_00010              1                            (DTNXNAME,EQ,CKNXNAME))),BEGIN
 000444 1B44                        8808  2                        CLEAR R4                  FOUND TRAP
 000446                             8812  1                      END
 000446 41F0 B524            00524  8816  1                      LA    R15,CPRG16
 00044A 4100 0054            00054  8817  1                      LA    R0,L'DTNDATA
 00044E 4110 6010            00010  8818  1                      LA    R1,DTNDATA
 000452 4120 6000            00000  8819  1                      LA    R2,DTNNAME
 000456 58E0 71B4/0DEE       00570  8820  1                      VCALL XGETNEXT
 00045C 47F0 7056            00412  8824                       END
 000460 18F4                        8829                       LR    R15,R4              SET CONDITION CODE
                                    8830
 000462 18D8/9808 D004_             8831                       PEND  ,
 DROP   CKNWA-(4+36),R8
 DROP   *,R7
 DROP   DTN,R6                      8856                       DROP  R6
1DBUG     (DBUG2163) (12:41) (15MAR04) DEBUG Execution Routines                                                             Page   22
0Current Usings:  (CP,R11) (CV,R12)
0Loc    Object Code    Addr1 Addr2  Stmt Lv Lineno    Source Statement           (Hibal 5, Asmedit 3.3)  HLASM R4.0  2004/03/15 12.41
+___    ______ ____    _____ _____  ____ __ ______    ______ _________
0                                   8864              ¿þþþþþþþþþþþþþþþþþþþþþþþþþþþþþþþþþþþþþþþþþþþþþþþþþþþþþþþþþþþþþþþþþþþþþÜ
                                    8865              Ÿ                                                                     Ÿ
                                    8866              Ÿ                                                                     Ÿ
                                    8867              Ÿ  CHKRET - CHECK FOR PROC RETURN TRAP                                Ÿ
                                    8868              Ÿ                                                                     Ÿ
                                    8869              Ÿ  ON ENTRY:                                                          Ÿ
                                    8870              Ÿ       R0 - EXEC SET NUMBER                                          Ÿ
                                    8871              Ÿ       R1 - EXEC PROC NAME (16 CHAR, LEFT JUSTIFIED)                 Ÿ
                                    8872              Ÿ       TRAP RECORD GROUP CONTAINS TRAP LIST                          Ÿ
                                    8873              Ÿ                                                                     Ÿ
                                    8874              Ÿ  ON EXIT:                                                           Ÿ
                                    8875              Ÿ       R15 - CC=Z, TRAP SET                                          Ÿ
                                    8876              Ÿ             CC=NZ, NO TRAP SET                                      Ÿ
                                    8877              Ÿ                                                                     Ÿ
                                    8878              Ÿ                                                                     Ÿ
                                    8879              Ÿ                                                                     Ÿ
                                                      ¾þþþþþþþþþþþþþþþþþþþþþþþþþþþþþþþþþþþþþþþþþþþþþþþþþþþþþþþþþþþþþþþþþþþþþ»
0000000                00000 000BC  8880              CKRWA    RECORD BEGIN
 000000                             8888  1           CKRSET     DS    F
 000004                             8889  1           CKRLINE    DS    F
 000008                             8890  1           CKRNAME    DS    XL(L'DTRNAME)
 000018                             8891  1           CKRXNAME   DS    XL(L'XDSNAME)
 000058                             8892  1           CKRTRAP    DS    XL(L'DTR)
 0000BC                000BC 000BC  8893                       END
                                    8902              *
                                    8903              *
 000470 50E0 D000/9008_      00000  8904              CHKRET   PROC  CKRWA
 USING  *,R7
 USING  CKRWA-(4+36),R8
 USING  DTR,R6                      8954                       USING DTR,R6
 00048A 4160 8080            00058  8963                       LA    R6,CKRTRAP
                                    8964
                                    8965                       COMMENT                   INITALIZE WORK AREA
 00048E 5000 8028            00000  8966                       ST    R0,CKRSET
 000492 D20F 8030 1000 00008 00000  8967                       MVC   CKRNAME,@R1
 000498 D763 8080 8080 00058 00058  8968                       CLEAR CKRTRAP
 00049E D20B 6000 1000 00000 00000  8975                       MVC   DTRNMNAM,@R1
                                    8976
                                    8977                       COMMENT                   GET EXEC NAME
 0004A4 5800 8028            00000  8978                       L     R0,CKRSET
 0004A8 4110 8040            00018  8979                       LA    R1,CKRXNAME
 0004AC 58E0 70DA/0DEE       00564  8980                       VCALL GETXNAME
 0004B2 4780 702E            004B8  8984                       IF    NZ,BEGIN
 0004B6 0000                        8995  1                      BOMB
 0004B8                             8997                       END
                                    9001
                                    9002                       COMMENT                   SET RECORD GROUP
 0004B8 41F0 B524            00524  9003                       LA    R15,CPRG16
 0004BC 4100 0011            00011  9004                       LA    R0,CP#RTRAP
 0004C0 58E0 70DE/0DEE       00568  9005                       VCALL XSETSET
                                    9009
                                    9010                       COMMENT                   CHECK FOR TRAP
 0004C6 41F0 B524            00524  9011                       LA    R15,CPRG16
1DBUG     (DBUG2163) (12:41) (15MAR04) DEBUG Execution Routines                                                             Page   23
0Current Usings:  (DTR,R6) (*,R7) (CKRWA-(4+36),R8) (CP,R11) (CV,R12)
0Loc    Object Code    Addr1 Addr2  Stmt Lv Lineno    Source Statement           (Hibal 5, Asmedit 3.3)  HLASM R4.0  2004/03/15 12.41
+___    ______ ____    _____ _____  ____ __ ______    ______ _________
00004CA 4100 0054            00054  9012                       LA    R0,L'DTRDATA
 0004CE 4110 6010            00010  9013                       LA    R1,DTRDATA
 0004D2 4120 6000            00000  9014                       LA    R2,DTRNAME
 0004D6 58E0 70E2/0DEE       0056C  9015                       VCALL XGETFRST
                                    9019                       COMMENT                   LOOP LOOKING FOR SPECIFIC TRAP
 0004DC 4140 0004            00004  9020                       LA    R4,4                ASSUME TRAP NOT FOUND
 0004E0 12FF/4770 70A4_             9021                       WHILE ((R15,Z),AND,(R4,NZ),AND,(DTRNMNAM,EQ,CKRNAME)),BEGIN
                                    9065  1         C            IF    (DTRALL,OR,
                                          1         C                  ((DTRNAME,EQ,CKRNAME),AND,
 0004F6 9180 6010/4710_00010              1                            (DTRXNAME,EQ,CKRXNAME))),BEGIN
 000512 1B44                        9114  2                        CLEAR R4                  FOUND TRAP
 000514                             9118  1                      END
 000514 41F0 B524            00524  9122  1                      LA    R15,CPRG16
 000518 4100 0054            00054  9123  1                      LA    R0,L'DTRDATA
 00051C 4110 6010            00010  9124  1                      LA    R1,DTRDATA
 000520 4120 6000            00000  9125  1                      LA    R2,DTRNAME
 000524 58E0 70E6/0DEE       00570  9126  1                      VCALL XGETNEXT
 00052A 47F0 7056            004E0  9130                       END
 00052E 18F4                        9135                       LR    R15,R4              SET CONDITION CODE
                                    9136
 000530 18D8/9808 D004_             9137                       PEND  ,
 DROP   CKRWA-(4+36),R8
 DROP   *,R7
 DROP   DTR,R6                      9162                       DROP  R6
1DBUG     (DBUG2163) (12:41) (15MAR04) DEBUG Execution Routines                                                             Page   24
0Current Usings:  (CP,R11) (CV,R12)
0Loc    Object Code    Addr1 Addr2  Stmt Lv Lineno    Source Statement           (Hibal 5, Asmedit 3.3)  HLASM R4.0  2004/03/15 12.41
+___    ______ ____    _____ _____  ____ __ ______    ______ _________
0                                   9170                       QLTORG
1DBUG     (DBUG2163) (12:41) (15MAR04) DEBUG Command Routines                                                               Page   25
0Current Usings:  (CP,R11) (CV,R12)
0Loc    Object Code    Addr1 Addr2  Stmt Lv Lineno    Source Statement           (Hibal 5, Asmedit 3.3)  HLASM R4.0  2004/03/15 12.41
+___    ______ ____    _____ _____  ____ __ ______    ______ _________
0                                   9196              ¿þþþþþþþþþþþþþþþþþþþþþþþþþþþþþþþþþþþþþþþþþþþþþþþþþþþþþþþþþþþþþþþþþþþþþÜ
                                    9197              Ÿ                                                                     Ÿ
                                    9198              Ÿ                                                                     Ÿ
                                    9199              Ÿ  DEBUG - ROOT AND ENTRY POINT FOR EXEC FILE DEBUGGING COMMAND       Ÿ
                                    9200              Ÿ                                                                     Ÿ
                                    9201              Ÿ                                                                     Ÿ
                                    9202              Ÿ                                                                     Ÿ
                                    9203              Ÿ                                                                     Ÿ
                                                      ¾þþþþþþþþþþþþþþþþþþþþþþþþþþþþþþþþþþþþþþþþþþþþþþþþþþþþþþþþþþþþþþþþþþþþþ»
0000574 50E0 D000/9008_      00000  9204              XDEBUG   XPROC ,
 USING  *,R7
                                    9244
                                    9245                       COMMENT                   SCAN DEBUG COMMANDS
 00058E 5810 B08C/1B00_      0008C  9246                       SCAN  DEBUGPRT
 0005E0 58E0 7EAA/0DEE       01438  9278                       SCANCHK
 0005E6 1BFF                        9283                       CLEAR R15
                                    9287
 0005E8 47F0 C7DE            007DE  9288                       B     CVNEXT
 0005EC 18D8/9808 D004_             9289                       PEND  ,
 DROP   *,R7
-
0                                   9310              * DEBUG COMMANDS
 0005FC 4040404040404040_           9311              DEBUGPRT SCKW  ,XDCMDNUL,NULL
 000624 E2E3C1D9E3404040_           9326                       SCKW  START,DSTART,A
 00064C D9C5E2C5E3404040_           9341                       SCKW  RESET,DSCNCLR,A
 000674 C3D3C5C1D9404040_           9356                       SCKW  CLEAR,DSCNCLR,A
 00069C D3D6C74040404040_           9371                       SCKW  LOG,DLOG
 0006C4 D5D6D3D6C7404040_           9386                       SCKW  NOLOG,DNOLOG,A
 0006EC E2C5E34040404040_           9401                       SCKW  SET,DSCNSET
 000714 C3D3D94040404040_           9416                       SCKW  CLR,DSCNCLR
 00073C E3D9C1C3C5404040_           9431                       SCKW  TRACE,DTRACE,A
 000764 D5C5E7E340404040_           9446                       SCKW  NEXT,DNEXT,A
 00078C E2C8D6E640404040_           9461                       SCKW  SHOW,DSHOW,A
 0007B4 E2E3404040404040_           9476                       SCKW  ST,DST
 0007DC C3E3404040404040_           9491                       SCKW  CT,DCT
 000804 E340404040404040_           9506                       SCKW  T,DTRACE,
 00082C D540404040404040_           9521                       SCKW  N,DNEXT
 000854 E2E3E24040404040_           9536                       SCKW  STS,DSHOW
 00087C 4040404040404040_           9551                       SCKW  ,V(SCNINVAL)
-                                   9567              * DEBUG SET, CLEAR
 0008A4 4040404040404040_           9568              DSETPRT  SCKW  ,XDSETNUL,NULL
 0008CC E3D9C1D740404040_           9583                       SCKW  TRAP,DST,A
 0008F4 4040404040404040_           9598                       SCKW  ,V(SCNINVAL)
 00091C 4040404040404040_           9613              DCLRPRT  SCKW  ,XDCLRNUL,NULL
 000944 E3D9C1D740404040_           9628                       SCKW  TRAP,DCT,A
 00096C 4040404040404040_           9643                       SCKW  ,V(SCNINVAL)
1DBUG     (DBUG2163) (12:41) (15MAR04) DEBUG Command Routines                                                               Page   26
0Current Usings:  (CP,R11) (CV,R12)
0Loc    Object Code    Addr1 Addr2  Stmt Lv Lineno    Source Statement           (Hibal 5, Asmedit 3.3)  HLASM R4.0  2004/03/15 12.41
+___    ______ ____    _____ _____  ____ __ ______    ______ _________
0                                   9659                       ¿þþþþþþþþþþþþþþþþþþþþþþþþÜ
                                    9660                       Ÿ  NULL OPTIONS INVALID  Ÿ
                                    9661                       ¾þþþþþþþþþþþþþþþþþþþþþþþþ»
 000994 50E0 D000/9008_      00000  9662              XDCMDNUL PROC  ,
 USING  *,R7
 0009AE D207 B886 7A6A_00886 01418  9701                       ERROR 'Missing DEBUG command.',,SYNTAX
 0009C0 18D8/9808 D004_             9709                       PEND  ,
 DROP   *,R7
 0009CE 50E0 D000/9008_      00000  9729              XDSETNUL PROC  ,
 USING  *,R7
 0009E8 D207 B886 7A30_00886 01418  9768                       ABORT 'Missing option.',,SYNTAX
 0009FA 18D8/9808 D004_             9776                       PEND  ,
 DROP   *,R7
 000A08 50E0 D000/9008_      00000  9796              XDCLRNUL PROC  ,
 USING  *,R7
 000A22 58E0 7A1A/0DEE       0143C  9835                       ACALL DCLEAR
 000A28 41F0 0004            00004  9839                       LA    R15,4
 000A2C 18D8/9808 D004_             9840                       PEND  ,
 DROP   *,R7
                                    9860                       ¿þþþþþþþþþÜ
                                    9861                       Ÿ  SET,,  Ÿ
                                    9862                       ¾þþþþþþþþþ»
 000A3A 50E0 D000/9008_      00000  9863              DSCNSET  PROC  ,
 USING  *,R7
 000A54 5810 B08C/1B00_      0008C  9902                       SCAN  DSETPRT
 000AA6 58E0 79E4/0DEE       01438  9934                       SCANCHK
 000AAC 41F0 0004            00004  9939                       LA    R15,4
 000AB0 18D8/9808 D004_             9940                       PEND  ,
 DROP   *,R7
                                    9960                       ¿þþþþþþþþþþþþþþþÜ
                                    9961                       Ÿ  CLEAR/RESET  Ÿ
                                    9962                       ¾þþþþþþþþþþþþþþþ»
 000ABE 50E0 D000/9008_      00000  9963              DSCNCLR  PROC  ,
 USING  *,R7
 000AD8 5810 B08C/1B00_      0008C 10002                       SCAN  DCLRPRT
 000B2A 58E0 7960/0DEE       01438 10034                       SCANCHK
 000B30 41F0 0004            00004 10039                       LA    R15,4
 000B34 18D8/9808 D004_            10040                       PEND  ,
 DROP   *,R7
1DBUG     (DBUG2163) (12:41) (15MAR04) DEBUG Command Routines                                                               Page   27
0Current Usings:  (CP,R11) (CV,R12)
0Loc    Object Code    Addr1 Addr2  Stmt Lv Lineno    Source Statement           (Hibal 5, Asmedit 3.3)  HLASM R4.0  2004/03/15 12.41
+___    ______ ____    _____ _____  ____ __ ______    ______ _________
0                                  10061              ¿þþþþþþþþþþþþþþþþþþþþþþþþþþþþþþþþþþþþþþþþþþþþþþþþþþþþþþþþþþþþþþþþþþþþþÜ
                                   10062              Ÿ                                                                     Ÿ
                                   10063              Ÿ                                                                     Ÿ
                                   10064              Ÿ DSTART - START EXEC DEBUGGING                                       Ÿ
                                   10065              Ÿ                                                                     Ÿ
                                   10066              Ÿ                                                                     Ÿ
                                   10067              Ÿ                                                                     Ÿ
                                                      ¾þþþþþþþþþþþþþþþþþþþþþþþþþþþþþþþþþþþþþþþþþþþþþþþþþþþþþþþþþþþþþþþþþþþþþ»
0000B42 50E0 D000/9008_      00000 10068              DSTART   XPROC ,
 USING  *,R7
                                   10108
                                   10109                       COMMENT                   NO OPTIONS ALLOWED
 000B5C 58E0 78EC/0DEE       01448 10110                       VCALL NOOPTS
                                   10114
                                   10115                       COMMENT                   CLEAR ANY DEBUG SESSION
 000B62 58E0 78F0/0DEE       0144C 10116                       ACALL DBCLEAR
                                   10120
                                   10121                       COMMENT                   START DEBUGGING SESSION
 000B68 9680 B84C      0084C       10122                       SET   CPFDEBUG
                                   10128
 000B6C 41F0 0004            00004 10129                       LA    R15,4
 000B70 18D8/9808 D004_            10130                       PEND  ,
 DROP   *,R7
1DBUG     (DBUG2163) (12:41) (15MAR04) DEBUG Command Routines                                                               Page   28
0Current Usings:  (CP,R11) (CV,R12)
0Loc    Object Code    Addr1 Addr2  Stmt Lv Lineno    Source Statement           (Hibal 5, Asmedit 3.3)  HLASM R4.0  2004/03/15 12.41
+___    ______ ____    _____ _____  ____ __ ______    ______ _________
0                                  10151              ¿þþþþþþþþþþþþþþþþþþþþþþþþþþþþþþþþþþþþþþþþþþþþþþþþþþþþþþþþþþþþþþþþþþþþþÜ
                                   10152              Ÿ                                                                     Ÿ
                                   10153              Ÿ                                                                     Ÿ
                                   10154              Ÿ DCLEAR - CLEAR EXEC DEBUGGING                                       Ÿ
                                   10155              Ÿ                                                                     Ÿ
                                   10156              Ÿ                                                                     Ÿ
                                   10157              Ÿ                                                                     Ÿ
                                                      ¾þþþþþþþþþþþþþþþþþþþþþþþþþþþþþþþþþþþþþþþþþþþþþþþþþþþþþþþþþþþþþþþþþþþþþ»
0000B7E 50E0 D000/9008_      00000 10158              DCLEAR   XPROC ,
 USING  *,R7
                                   10198
                                   10199                       COMMENT                   NO OPTIONS ALLOWED
 000B98 58E0 78B0/0DEE       01448 10200                       VCALL NOOPTS
                                   10204
                                   10205                       COMMENT                   CLEAR DEBUGGING SESSION
 000B9E 58E0 78B4/0DEE       0144C 10206                       ACALL DBCLEAR
                                   10210
 000BA4 41F0 0004            00004 10211                       LA    R15,4
 000BA8 18D8/9808 D004_            10212                       PEND
 DROP   *,R7
1DBUG     (DBUG2163) (12:41) (15MAR04) DEBUG Command Routines                                                               Page   29
0Current Usings:  (CP,R11) (CV,R12)
0Loc    Object Code    Addr1 Addr2  Stmt Lv Lineno    Source Statement           (Hibal 5, Asmedit 3.3)  HLASM R4.0  2004/03/15 12.41
+___    ______ ____    _____ _____  ____ __ ______    ______ _________
0                                  10233              ¿þþþþþþþþþþþþþþþþþþþþþþþþþþþþþþþþþþþþþþþþþþþþþþþþþþþþþþþþþþþþþþþþþþþþþÜ
                                   10234              Ÿ                                                                     Ÿ
                                   10235              Ÿ  DLOG - DEBUG LOG                                                   Ÿ
                                   10236              Ÿ                                                                     Ÿ
                                   10237              Ÿ                                                                     Ÿ
                                                      ¾þþþþþþþþþþþþþþþþþþþþþþþþþþþþþþþþþþþþþþþþþþþþþþþþþþþþþþþþþþþþþþþþþþþþþ»
0000BB6 50E0 D000/9008_      00000 10238              DLOG     XPROC ,
 USING  *,R7
                                   10278
                                   10279                       COMMENT                   NO OPTIONS ALLOWED
 000BD0 58E0 7878/0DEE       01448 10280                       VCALL NOOPTS
                                   10284
                                   10285                       COMMENT                   SET LOG FLAG
 000BD6 9610 B84C      0084C       10286                       SET   CPFXLOG
                                   10292
 000BDA 41F0 0004            00004 10293                       LA    R15,4
 000BDE 18D8/9808 D004_            10294                       PEND  ,
 DROP   *,R7
1DBUG     (DBUG2163) (12:41) (15MAR04) DEBUG Command Routines                                                               Page   30
0Current Usings:  (CP,R11) (CV,R12)
0Loc    Object Code    Addr1 Addr2  Stmt Lv Lineno    Source Statement           (Hibal 5, Asmedit 3.3)  HLASM R4.0  2004/03/15 12.41
+___    ______ ____    _____ _____  ____ __ ______    ______ _________
0                                  10315              ¿þþþþþþþþþþþþþþþþþþþþþþþþþþþþþþþþþþþþþþþþþþþþþþþþþþþþþþþþþþþþþþþþþþþþþÜ
                                   10316              Ÿ                                                                     Ÿ
                                   10317              Ÿ  DNOLOG - DEBUG NOLOG                                               Ÿ
                                   10318              Ÿ                                                                     Ÿ
                                   10319              Ÿ                                                                     Ÿ
                                                      ¾þþþþþþþþþþþþþþþþþþþþþþþþþþþþþþþþþþþþþþþþþþþþþþþþþþþþþþþþþþþþþþþþþþþþþ»
0000BEC 50E0 D000/9008_      00000 10320              DNOLOG   XPROC ,
 USING  *,R7
                                   10360
                                   10361                       COMMENT                   NO OPTIONS ALLOWED
 000C06 58E0 7842/0DEE       01448 10362                       VCALL NOOPTS
                                   10366
                                   10367                       COMMENT                   CLEAR LOG FLAG
 000C0C 94EF B84C      0084C       10368                       CLEAR CPFXLOG
                                   10375
 000C10 41F0 0004            00004 10376                       LA    R15,4
 000C14 18D8/9808 D004_            10377                       PEND  ,
 DROP   *,R7
1DBUG     (DBUG2163) (12:41) (15MAR04) DEBUG Command Routines                                                               Page   31
0Current Usings:  (CP,R11) (CV,R12)
0Loc    Object Code    Addr1 Addr2  Stmt Lv Lineno    Source Statement           (Hibal 5, Asmedit 3.3)  HLASM R4.0  2004/03/15 12.41
+___    ______ ____    _____ _____  ____ __ ______    ______ _________
0                                  10398              ¿þþþþþþþþþþþþþþþþþþþþþþþþþþþþþþþþþþþþþþþþþþþþþþþþþþþþþþþþþþþþþþþþþþþþþÜ
                                   10399              Ÿ                                                                     Ÿ
                                   10400              Ÿ                                                                     Ÿ
                                   10401              Ÿ  DST - DEBUG SET TRAP <LOCATION> IN <EXEC FILE>                     Ÿ
                                   10402              Ÿ                                                                     Ÿ
                                   10403              Ÿ                                                                     Ÿ
                                   10404              Ÿ                                                                     Ÿ
                                   10405              Ÿ                                                                     Ÿ
                                                      ¾þþþþþþþþþþþþþþþþþþþþþþþþþþþþþþþþþþþþþþþþþþþþþþþþþþþþþþþþþþþþþþþþþþþþþ»
0000000                00000 00240 10406              DSTWA    RECORD BEGIN
 000000                            10414  1           DSTLINE    DS    XL(L'DTL)           TRAP WORK AREAS
 000058                            10415  1           DSTNAME    DS    XL(L'DTN)
 0000BC                            10416  1           DSTRET     DS    XL(L'DTR)
 000120                            10417  1           DSTLINE2   DS    XL(L'DTL)
 000178                            10418  1           DSTNAME2   DS    XL(L'DTN)
 0001DC                            10419  1           DSTRET2    DS    XL(L'DTR)
 000240                00240 00240 10420                       END
                                   10429              *
                                   10430              *
 000C22 50E0 D000/9008_      00000 10431              DST      XPROC DSTWA
 USING  *,R7
 USING  DSTWA-(4+36),R8
 USING  DTL,R4                     10482                       USING DTL,R4
 USING  DTN,R5                     10491                       USING DTN,R5
 USING  DTR,R6                     10500                       USING DTR,R6
 000C3C 4140 8028            00000 10509                       LA    R4,DSTLINE
 000C40 4150 8080            00058 10510                       LA    R5,DSTNAME
 000C44 4160 80E4            000BC 10511                       LA    R6,DSTRET
                                   10512
                                   10513                       COMMENT                   INIT WORK AREA
 000C48 D757 4000 4000 00000 00000 10514                       CLEAR DTL
 000C4E D763 5000 5000 00000 00000 10521                       CLEAR DTN
 000C54 D763 6000 6000 00000 00000 10528                       CLEAR DTR
                                   10535
                                   10536                       COMMENT                   DEBUG SESSION ACTIVE
 000C5A 9680 B84C      0084C       10537                       SET   CPFDEBUG
                                   10543
                                   10544                       COMMENT                   SCAN TRAP
 000C5E 4110 4000            00000 10545                       LA    R1,DTL
 000C62 4120 5000            00000 10546                       LA    R2,DTN
 000C66 4130 6000            00000 10547                       LA    R3,DTR
 000C6A 58E0 7814/0DEE       01450 10548                       ACALL SCANTRAP
                                   10552
                                   10553                       COMMENT                   SCAN OK, SET TRAP
                                   10554                       COMMENT
 000C70 D50F 77C8 4000_01404 00000 10555                       IF    (DTLNAME,NE,0),BEGIN     IF LINE TRAP, SAVE IT
 000C7A 4110 4000            00000 10573  1                      LA    R1,DTL
 000C7E 4120 8148            00120 10574  1                      LA    R2,DSTLINE2
 000C82 58E0 7818/0DEE       01454 10575  1                      ACALL GTTLINE             CHECK IF ALREADY SET
 000C88 4780 C7DE            007DE 10579  1                      BZ    CVNEXT
 000C8C 41F0 B524            00524 10580  1                      LA    R15,CPRG16          IF NOT, SET IT
 000C90 4100 000F            0000F 10581  1                      LA    R0,CP#LTRAP
 000C94 58E0 781C/0DEE       01458 10582  1                      VCALL XSETSET
1DBUG     (DBUG2163) (12:41) (15MAR04) DEBUG Command Routines                                                               Page   32
0Current Usings:  (DTL,R4) (DTN,R5) (DTR,R6) (*,R7) (DSTWA-(4+36),R8) (CP,R11) (CV,R12)
0Loc    Object Code    Addr1 Addr2  Stmt Lv Lineno    Source Statement           (Hibal 5, Asmedit 3.3)  HLASM R4.0  2004/03/15 12.41
+___    ______ ____    _____ _____  ____ __ ______    ______ _________
0000C9A 41F0 B524            00524 10586  1                      LA    R15,CPRG16
 000C9E 4100 0048            00048 10587  1                      LA    R0,L'DTLDATA
 000CA2 4110 4010            00010 10588  1                      LA    R1,DTLDATA
 000CA6 4120 4000            00000 10589  1                      LA    R2,DTLNAME
 000CAA 58E0 7820/0DEE       0145C 10590  1                      VCALL XPUT
 000CB0 4780 7090            00CCC 10594  1                      IF    NZ,BEGIN
 000CB4 900F C780/4DE0_      00780 10605  2                        KAPUT TRAPFULL,'Session Data Record Group Overflow.'
 000CCC                            10612  1                      END
 000CCC                            10616                       END
 000CCC D50F 77C8 5000_01404 00000 10620                       IF    (DTNNAME,NE,0),BEGIN     IF NAME TRAP, SAVE IT
 000CD6 4110 5000            00000 10638  1                      LA    R1,DTN
 000CDA 4120 81A0            00178 10639  1                      LA    R2,DSTNAME2
 000CDE 58E0 7824/0DEE       01460 10640  1                      ACALL GTTNAME             CHECK IF ALREADY SET
 000CE4 4780 C7DE            007DE 10644  1                      BZ    CVNEXT
 000CE8 41F0 B524            00524 10645  1                      LA    R15,CPRG16          IF NOT, SET IT
 000CEC 4100 0010            00010 10646  1                      LA    R0,CP#NTRAP
 000CF0 58E0 781C/0DEE       01458 10647  1                      VCALL XSETSET
 000CF6 41F0 B524            00524 10651  1                      LA    R15,CPRG16
 000CFA 4100 0054            00054 10652  1                      LA    R0,L'DTNDATA
 000CFE 4110 5010            00010 10653  1                      LA    R1,DTNDATA
 000D02 4120 5000            00000 10654  1                      LA    R2,DTNNAME
 000D06 58E0 7820/0DEE       0145C 10655  1                      VCALL XPUT
 000D0C 4780 70EC            00D28 10659  1                      IF    NZ,BEGIN
 000D10 900F C780/4DE0_      00780 10670  2                        KAPUT TRAPFULL,'Session Data Record Group Overflow.'
 000D28                            10677  1                      END
 000D28                            10681                       END
 000D28 70F0/47F0 714C_00D28 00CD4 10685                       ELSEIF (DTRNAME,NE,0),BEGIN    IF RETURN TRAP, SAVE IT
 000D36 4110 6000            00000 10712  1                      LA    R1,DTR
 000D3A 4120 8204            001DC 10713  1                      LA    R2,DSTRET2
 000D3E 58E0 7828/0DEE       01464 10714  1                      ACALL GTTRET              CHECK IF ALREADY SET
 000D44 4780 C7DE            007DE 10718  1                      BZ    CVNEXT
 000D48 41F0 B524            00524 10719  1                      LA    R15,CPRG16          IF NOT, SET IT
 000D4C 4100 0011            00011 10720  1                      LA    R0,CP#RTRAP
 000D50 58E0 781C/0DEE       01458 10721  1                      VCALL XSETSET
 000D56 41F0 B524            00524 10725  1                      LA    R15,CPRG16
 000D5A 4100 0054            00054 10726  1                      LA    R0,L'DTRDATA
 000D5E 4110 6010            00010 10727  1                      LA    R1,DTRDATA
 000D62 4120 6000            00000 10728  1                      LA    R2,DTRNAME
 000D66 58E0 7820/0DEE       0145C 10729  1                      VCALL XPUT
 000D6C 4780 714C            00D88 10733  1                      IF    NZ,BEGIN
 000D70 900F C780/4DE0_      00780 10744  2                        KAPUT TRAPFULL,'Session Data Record Group Overflow.'
 000D88                            10751  1                      END
 000D88                            10755                       END
                                   10759
 000D88 47F0 C7DE            007DE 10760                       B     CVNEXT              EXIT HERE!!
                                   10761
 000D8C 1BFF                       10762                       CLEAR R15                 NOTE WE EXIT ABOVE
 000D8E 18D8/9808 D004_            10766                       PEND  ,
 DROP   DSTWA-(4+36),R8
 DROP   *,R7
1DBUG     (DBUG2163) (12:41) (15MAR04) DEBUG Command Routines                                                               Page   33
0Current Usings:  (DTL,R4) (DTN,R5) (DTR,R6) (CP,R11) (CV,R12)
0Loc    Object Code    Addr1 Addr2  Stmt Lv Lineno    Source Statement           (Hibal 5, Asmedit 3.3)  HLASM R4.0  2004/03/15 12.41
+___    ______ ____    _____ _____  ____ __ ______    ______ _________
0                                  10792              ¿þþþþþþþþþþþþþþþþþþþþþþþþþþþþþþþþþþþþþþþþþþþþþþþþþþþþþþþþþþþþþþþþþþþþþÜ
                                   10793              Ÿ                                                                     Ÿ
                                   10794              Ÿ                                                                     Ÿ
                                   10795              Ÿ  DCT - DEBUG CLEAR TRAP <LOCATION> IN <EXEC FILE>                   Ÿ
                                   10796              Ÿ                                                                     Ÿ
                                   10797              Ÿ                                                                     Ÿ
                                   10798              Ÿ                                                                     Ÿ
                                   10799              Ÿ                                                                     Ÿ
                                                      ¾þþþþþþþþþþþþþþþþþþþþþþþþþþþþþþþþþþþþþþþþþþþþþþþþþþþþþþþþþþþþþþþþþþþþþ»
0000000                00000 00240 10800              DCTWA    RECORD BEGIN
 000000                            10808  1           DCTLINE    DS    XL(L'DTL)           TRAP WORK AREAS
 000058                            10809  1           DCTNAME    DS    XL(L'DTN)
 0000BC                            10810  1           DCTRET     DS    XL(L'DTR)
 000120                            10811  1           DCTLINE2   DS    XL(L'DTL)
 000178                            10812  1           DCTNAME2   DS    XL(L'DTN)
 0001DC                            10813  1           DCTRET2    DS    XL(L'DTR)
 000240                00240 00240 10814                       END
                                   10823              *
                                   10824              *
 000D9C 50E0 D000/9008_      00000 10825              DCT      XPROC DCTWA
 USING  *,R7
 USING  DCTWA-(4+36),R8
                                   10876                       USING DTL,R4
                                   10878                       USING DTN,R5
                                   10880                       USING DTR,R6
 000DB6 4140 8028            00000 10882                       LA    R4,DCTLINE
 000DBA 4150 8080            00058 10883                       LA    R5,DCTNAME
 000DBE 4160 80E4            000BC 10884                       LA    R6,DCTRET
                                   10885
                                   10886                       COMMENT                   INIT WORK AREA
 000DC2 D757 4000 4000 00000 00000 10887                       CLEAR DTL
 000DC8 D763 5000 5000 00000 00000 10894                       CLEAR DTN
 000DCE D763 6000 6000 00000 00000 10901                       CLEAR DTR
                                   10908
                                   10909                       COMMENT                   DEBUG SESSION ACTIVE
 000DD4 9680 B84C      0084C       10910                       SET   CPFDEBUG
                                   10916
                                   10917                       COMMENT                   SCAN TRAP
 000DD8 4110 4000            00000 10918                       LA    R1,DTL
 000DDC 4120 5000            00000 10919                       LA    R2,DTN
 000DE0 4130 6000            00000 10920                       LA    R3,DTR
 000DE4 58E0 769A/0DEE       01450 10921                       ACALL SCANTRAP
                                   10925
                                   10926                       COMMENT                   SCAN OK, SET TRAP
                                   10927                       COMMENT
 000DEA D50F 764E 4000_01404 00000 10928                       IF    (DTLNAME,NE,0),BEGIN  IF GOT LINE TRAP
 000DF4 4110 4000            00000 10946  1                      LA    R1,DTL
 000DF8 4120 8148            00120 10947  1                      LA    R2,DCTLINE2
 000DFC 58E0 769E/0DEE       01454 10948  1                      ACALL GTTLINE             CHECK IF SET
 000E02 4780 705C            00E12 10952  1                      IF    NZ,BEGIN
 000E06 4110 770D/4100_      014C3 10963  2                        ERROR 'No such trap set.'
 000E12                            10970  1                      END
 000E12 41F0 B524            00524 10974  1                      LA    R15,CPRG16          DELETE IT
1DBUG     (DBUG2163) (12:41) (15MAR04) DEBUG Command Routines                                                               Page   34
0Current Usings:  (DTL,R4) (DTN,R5) (DTR,R6) (*,R7) (DCTWA-(4+36),R8) (CP,R11) (CV,R12)
0Loc    Object Code    Addr1 Addr2  Stmt Lv Lineno    Source Statement           (Hibal 5, Asmedit 3.3)  HLASM R4.0  2004/03/15 12.41
+___    ______ ____    _____ _____  ____ __ ______    ______ _________
0000E16 4100 000F            0000F 10975  1                      LA    R0,CP#LTRAP
 000E1A 58E0 76A2/0DEE       01458 10976  1                      VCALL XSETSET
 000E20 41F0 B524            00524 10980  1                      LA    R15,CPRG16
                                   10981  1                      COMMENT R2 - TRAP TO DELETE
 000E24 58E0 76B2/0DEE       01468 10982  1                      VCALL XDELETE
 000E2A 4780 707A            00E30 10986  1                      IF    NZ,BEGIN
 000E2E 0000                       10997  2                        BOMB
 000E30                            10999  1                      END
 000E30                            11003                       END
 000E30 D50F 764E 5000_01404 00000 11007                       IF    (DTNNAME,NE,0),BEGIN  IF GOT NAME TRAP
 000E3A 4110 5000            00000 11025  1                      LA    R1,DTN
 000E3E 4120 81A0            00178 11026  1                      LA    R2,DCTNAME2
 000E42 58E0 76AA/0DEE       01460 11027  1                      ACALL GTTNAME             CHECK IF ALREADY SET
 000E48 4780 70A2            00E58 11031  1                      IF    NZ,BEGIN
 000E4C 4110 770D/4100_      014C3 11042  2                        ERROR 'No such trap set.'
 000E58                            11049  1                      END
 000E58 41F0 B524            00524 11053  1                      LA    R15,CPRG16          DELETE IT
 000E5C 4100 0010            00010 11054  1                      LA    R0,CP#NTRAP
 000E60 58E0 76A2/0DEE       01458 11055  1                      VCALL XSETSET
 000E66 41F0 B524            00524 11059  1                      LA    R15,CPRG16
                                   11060  1                      COMMENT R2 - TRAP TO DELETE
 000E6A 58E0 76B2/0DEE       01468 11061  1                      VCALL XDELETE
 000E70 4780 70C0            00E76 11065  1                      IF    NZ,BEGIN
 000E74 0000                       11076  2                        BOMB
 000E76                            11078  1                      END
 000E76                            11082                       END
 000E76 70C4/47F0 710A_00E76 00E38 11086                       ELSEIF (DTRNAME,NE,0),BEGIN  IF GOT RETURN TRAP
 000E84 4110 6000            00000 11113  1                      LA    R1,DTR
 000E88 4120 8204            001DC 11114  1                      LA    R2,DCTRET2
 000E8C 58E0 76AE/0DEE       01464 11115  1                      ACALL GTTRET              CHECK IF ALREADY SET
 000E92 4780 70EC            00EA2 11119  1                      IF    NZ,BEGIN
 000E96 4110 770D/4100_      014C3 11130  2                        ERROR 'No such trap set.'
 000EA2                            11137  1                      END
 000EA2 41F0 B524            00524 11141  1                      LA    R15,CPRG16          DELETE IT
 000EA6 4100 0011            00011 11142  1                      LA    R0,CP#RTRAP
 000EAA 58E0 76A2/0DEE       01458 11143  1                      VCALL XSETSET
 000EB0 41F0 B524            00524 11147  1                      LA    R15,CPRG16
                                   11148  1                      COMMENT R2 - TRAP TO DELETE
 000EB4 58E0 76B2/0DEE       01468 11149  1                      VCALL XDELETE
 000EBA 4780 710A            00EC0 11153  1                      IF    NZ,BEGIN
 000EBE 0000                       11164  2                        BOMB
 000EC0                            11166  1                      END
 000EC0                            11170                       END
                                   11174
 000EC0 47F0 C7DE            007DE 11175                       B     CVNEXT              EXIT HERE!!
                                   11176
 000EC4 1BFF                       11177                       CLEAR R15                 NOTE WE EXIT ABOVE
 000EC6 18D8/9808 D004_            11181                       PEND  ,
 DROP   DCTWA-(4+36),R8
 DROP   *,R7
1DBUG     (DBUG2163) (12:41) (15MAR04) DEBUG Command Routines                                                               Page   35
0Current Usings:  (DTL,R4) (DTN,R5) (DTR,R6) (CP,R11) (CV,R12)
0Loc    Object Code    Addr1 Addr2  Stmt Lv Lineno    Source Statement           (Hibal 5, Asmedit 3.3)  HLASM R4.0  2004/03/15 12.41
+___    ______ ____    _____ _____  ____ __ ______    ______ _________
0                                  11207              ¿þþþþþþþþþþþþþþþþþþþþþþþþþþþþþþþþþþþþþþþþþþþþþþþþþþþþþþþþþþþþþþþþþþþþþÜ
                                   11208              Ÿ                                                                     Ÿ
                                   11209              Ÿ                                                                     Ÿ
                                   11210              Ÿ  DSHOW - SHOW TRAPS                                                 Ÿ
                                   11211              Ÿ                                                                     Ÿ
                                   11212              Ÿ                                                                     Ÿ
                                   11213              Ÿ                                                                     Ÿ
                                   11214              Ÿ                                                                     Ÿ
                                                      ¾þþþþþþþþþþþþþþþþþþþþþþþþþþþþþþþþþþþþþþþþþþþþþþþþþþþþþþþþþþþþþþþþþþþþþ»
0000000                00000 00120 11215              DSHWWA   RECORD BEGIN
 000000                            11223  1           DSHWLINE   DS    XL(L'DTL)           TRAP WORK AREAS
 000058                            11224  1           DSHWNAME   DS    XL(L'DTN)
 0000BC                            11225  1           DSHWRET    DS    XL(L'DTR)
 000120                00120 00120 11226                       END
                                   11235              *
                                   11236              *
 000ED4 50E0 D000/9008_      00000 11237              DSHOW    XPROC DSHWWA
 USING  *,R7
 USING  DSHWWA-(4+36),R8
 DROP   DTR,R6                     11288                       USING DTL,R6
 USING  DTL,R6
                                   11300                       USING DTN,R5
 DROP   DTL,R4                     11302                       USING DTR,R4
 USING  DTR,R4
 000EEE 4160 8028            00000 11314                       LA    R6,DSHWLINE
 000EF2 4150 8080            00058 11315                       LA    R5,DSHWNAME
 000EF6 4140 80E4            000BC 11316                       LA    R4,DSHWRET
                                   11317
                                   11318                       COMMENT                   INIT WORK AREA
 000EFA D757 6000 6000 00000 00000 11319                       CLEAR DTL
 000F00 D763 5000 5000 00000 00000 11326                       CLEAR DTN
 000F06 D763 4000 4000 00000 00000 11333                       CLEAR DTR
                                   11340
                                   11341                       COMMENT                   SCAN COLLECT OPTIONS
 000F0C 58E0 757E/0DEE       0146C 11342                       VCALL COLLOPTS
                                   11346
                                   11347                       COMMENT                   OUTPUT DEBUG STATUS
 000F12 9180 B84C/47E0_0084C       11348                       IF    CPFDEBUG,BEGIN
 000F1A 4110 75E6/4100_      014D4 11363  1                      TSEG  'Debugging session active.',,CR
 000F2C                            11381                       END
 000F2C 7042/47F0 7058 00F2C 00F18 11385                       ELSE  BEGIN
 000F30 4110 75FF/4100_      014ED 11396  1                      TSEG  'Debugging session not active.',,CR
 000F42 47F0 C7DE            007DE 11414  1                      B     CVNEXT
 000F46                            11415                       END
                                   11419
                                   11420                       COMMENT                   OUTPUT COMMAND LOGGING STATUS
 000F46 9110 B84C/47E0_0084C       11421                       IF    CPFXLOG,BEGIN
 000F4E 4110 761C/4100_      0150A 11436  1                      TSEG  'Command logging on.',,CR
 000F60                            11454                       END
                                   11458
                                   11459                       COMMENT                   OUTPUT TRACE STATUS
 000F60 9140 B84C/47E0_0084C       11460                       IF    CPFTRACE,BEGIN
 000F68 9120 B84C/47E0_0084C       11475  1                      IF    CPFTTRAP,BEGIN
1DBUG     (DBUG2163) (12:41) (15MAR04) DEBUG Command Routines                                                               Page   36
0Current Usings:  (DTR,R4) (DTN,R5) (DTL,R6) (*,R7) (DSHWWA-(4+36),R8) (CP,R11) (CV,R12)
0Loc    Object Code    Addr1 Addr2  Stmt Lv Lineno    Source Statement           (Hibal 5, Asmedit 3.3)  HLASM R4.0  2004/03/15 12.41
+___    ______ ____    _____ _____  ____ __ ______    ______ _________
0000F70 4110 762F/4100_      0151D 11490  2                        TSEG  'Debug tracing traps on.',,CR
 000F82                            11508  1                      END
 000F82 7098/47F0 70AA 00F82 00F6E 11512  1                      ELSE  BEGIN
 000F86 4110 7646/4100_      01534 11523  2                        TSEG  'Debug tracing on.',,CR
 000F98                            11541  1                      END
 000F98                            11545                       END
                                   11549
                                   11550                       COMMENT                   OUTPUT LINE TRAPS
 000F98 41F0 B524            00524 11551                       LA    R15,CPRG16
 000F9C 4100 000F            0000F 11552                       LA    R0,CP#LTRAP
 000FA0 58E0 756A/0DEE       01458 11553                       VCALL XSETSET
 000FA6 41F0 B524            00524 11557                       LA    R15,CPRG16
 000FAA 4100 0048            00048 11558                       LA    R0,L'DTLDATA
 000FAE 4110 6010            00010 11559                       LA    R1,DTLDATA
 000FB2 4120 6000            00000 11560                       LA    R2,DTLNAME
 000FB6 58E0 7586/0DEE       01474 11561                       VCALL XGETFRST
 000FBC 12FF/4770 7146             11565                       IF    (R15,Z),BEGIN
 000FC2 4110 7657/4100_      01545 11579  1                      TSEG  'Line Traps:',,CR
 000FD4 4770 C7DE            007DE 11597  1                      BNZ   CVNEXT IF ATTN HIT
 000FD8 1BFF                       11598  1                      CLEAR R15
 000FDA 12FF/4770 7146             11602  1                      WHILE (R15,Z),BEGIN
 000FE0 5810 6014            00014 11618  2                        L     R1,DTLLINE
 000FE4 58E0 758A/0DEE       01478 11619  2                        ACALL MSEGLNO
 000FEA 9180 6010/4710_00010       11623  2                        IF    ~DTLALL,BEGIN
 000FF2 4110 75BA/4100_      014A8 11638  3                          TSEG  '          '
 001004 4110 6018            00018 11656  3                          LA    R1,DTLXNAME
 001008 58E0 7592/0DEE       01480 11657  3                          VCALL SEGFDSN
 00100E                            11661  2                        END
 00100E 1B00/41F0 B050_            11665  2                        TCR
 00101A 41F0 B524            00524 11690  2                        LA    R15,CPRG16
 00101E 4100 0048            00048 11691  2                        LA    R0,L'DTLDATA
 001022 4110 6010            00010 11692  2                        LA    R1,DTLDATA
 001026 4120 6000            00000 11693  2                        LA    R2,DTLNAME
 00102A 58E0 7596/0DEE       01484 11694  2                        VCALL XGETNEXT
 001030 47F0 70EC            00FDA 11698  1                      END
 001034                            11703                       END
                                   11707
                                   11708                       COMMENT                   OUTPUT NAME TRAPS
 001034 41F0 B524            00524 11709                       LA    R15,CPRG16
 001038 4100 0010            00010 11710                       LA    R0,CP#NTRAP
 00103C 58E0 756A/0DEE       01458 11711                       VCALL XSETSET
 001042 41F0 B524            00524 11715                       LA    R15,CPRG16
 001046 4100 0054            00054 11716                       LA    R0,L'DTNDATA
 00104A 4110 5010            00010 11717                       LA    R1,DTNDATA
 00104E 4120 5000            00000 11718                       LA    R2,DTNNAME
 001052 58E0 7586/0DEE       01474 11719                       VCALL XGETFRST
 001058 12FF/4770 71FC             11723                       IF    (R15,Z),BEGIN
 00105E 4110 7532/4100_      01420 11737  1                      TSEG  'Proc Name Traps:',,CR
 001070 4770 C7DE            007DE 11755  1                      BNZ   CVNEXT IF ATTN HIT
 001074 1BFF                       11756  1                      CLEAR R15
 001076 12FF/4770 71FC             11760  1                      WHILE (R15,Z),BEGIN
 00107C 4110 75C4/4100_      014B2 11776  2                        TSEG  '  '
 00108E 4110 5011/4100_      00011 11794  2                        TSEG  DTNPNAME,L'DTNPNAME
 0010A0 4110 75C4/4100_      014B2 11824  2                        TSEG  '  '
1DBUG     (DBUG2163) (12:41) (15MAR04) DEBUG Command Routines                                                               Page   37
0Current Usings:  (DTR,R4) (DTN,R5) (DTL,R6) (*,R7) (DSHWWA-(4+36),R8) (CP,R11) (CV,R12)
0Loc    Object Code    Addr1 Addr2  Stmt Lv Lineno    Source Statement           (Hibal 5, Asmedit 3.3)  HLASM R4.0  2004/03/15 12.41
+___    ______ ____    _____ _____  ____ __ ______    ______ _________
00010B2 9180 5010/4710_00010       11842  2                        IF    ~DTNALL,BEGIN
 0010BA 4110 5021            00021 11857  3                          LA    R1,DTNXNAME
 0010BE 58E0 7592/0DEE       01480 11858  3                          VCALL SEGFDSN
 0010C4                            11862  2                        END
 0010C4 1B00/41F0 B050_            11866  2                        TCR
 0010D0 41F0 B524            00524 11891  2                        LA    R15,CPRG16
 0010D4 4100 0054            00054 11892  2                        LA    R0,L'DTNDATA
 0010D8 4110 5010            00010 11893  2                        LA    R1,DTNDATA
 0010DC 4120 5000            00000 11894  2                        LA    R2,DTNNAME
 0010E0 58E0 7596/0DEE       01484 11895  2                        VCALL XGETNEXT
 0010E6 47F0 7188            01076 11899  1                      END
 0010EA                            11904                       END
                                   11908
                                   11909                       COMMENT                   OUTPUT RETURN TRAPS
 0010EA 41F0 B524            00524 11910                       LA    R15,CPRG16
 0010EE 4100 0011            00011 11911                       LA    R0,CP#RTRAP
 0010F2 58E0 756A/0DEE       01458 11912                       VCALL XSETSET
 0010F8 41F0 B524            00524 11916                       LA    R15,CPRG16
 0010FC 4100 0054            00054 11917                       LA    R0,L'DTRDATA
 001100 4110 4010            00010 11918                       LA    R1,DTRDATA
 001104 4120 4000            00000 11919                       LA    R2,DTRNAME
 001108 58E0 7586/0DEE       01474 11920                       VCALL XGETFRST
 00110E 12FF/4770 72B2             11924                       IF    (R15,Z),BEGIN
 001114 4110 7662/4100_      01550 11938  1                      TSEG  'Return Traps:',,CR
 001126 4770 C7DE            007DE 11956  1                      BNZ   CVNEXT IF ATTN HIT
 00112A 1BFF                       11957  1                      CLEAR R15
 00112C 12FF/4770 72B2             11961  1                      WHILE (R15,Z),BEGIN
 001132 4110 75C4/4100_      014B2 11977  2                        TSEG  '  '
 001144 4110 4011/4100_      00011 11995  2                        TSEG  DTRPNAME,L'DTRPNAME
 001156 4110 75C4/4100_      014B2 12025  2                        TSEG  '  '
 001168 9180 4010/4710_00010       12043  2                        IF    ~DTRALL,BEGIN
 001170 4110 4021            00021 12058  3                          LA    R1,DTRXNAME
 001174 58E0 7592/0DEE       01480 12059  3                          VCALL SEGFDSN
 00117A                            12063  2                        END
 00117A 1B00/41F0 B050_            12067  2                        TCR
 001186 41F0 B524            00524 12092  2                        LA    R15,CPRG16
 00118A 4100 0054            00054 12093  2                        LA    R0,L'DTRDATA
 00118E 4110 4010            00010 12094  2                        LA    R1,DTRDATA
 001192 4120 4000            00000 12095  2                        LA    R2,DTRNAME
 001196 58E0 7596/0DEE       01484 12096  2                        VCALL XGETNEXT
 00119C 47F0 723E            0112C 12100  1                      END
 0011A0                            12105                       END
                                   12109
 0011A0 47F0 C7DE            007DE 12110                       B     CVNEXT              EXIT HERE !!
                                   12111
 0011A4 1BFF                       12112                       CLEAR R15                 WE EXIT ABOVE, NOT HERE!!
 0011A6 18D8/9808 D004_            12116                       PEND  ,
 DROP   DSHWWA-(4+36),R8
 DROP   *,R7
 DROP   DTL,R6                     12141                       DROP  R6
 DROP   DTN,R5                     12148                       DROP  R5
 DROP   DTR,R4                     12155                       DROP  R4
1DBUG     (DBUG2163) (12:41) (15MAR04) DEBUG Command Routines                                                               Page   38
0Current Usings:  (CP,R11) (CV,R12)
0Loc    Object Code    Addr1 Addr2  Stmt Lv Lineno    Source Statement           (Hibal 5, Asmedit 3.3)  HLASM R4.0  2004/03/15 12.41
+___    ______ ____    _____ _____  ____ __ ______    ______ _________
0                                  12163              ¿þþþþþþþþþþþþþþþþþþþþþþþþþþþþþþþþþþþþþþþþþþþþþþþþþþþþþþþþþþþþþþþþþþþþþÜ
                                   12164              Ÿ                                                                     Ÿ
                                   12165              Ÿ                                                                     Ÿ
                                   12166              Ÿ  DNEXT - DEBUG NEXT                                                 Ÿ
                                   12167              Ÿ                                                                     Ÿ
                                   12168              Ÿ                                                                     Ÿ
                                   12169              Ÿ                                                                     Ÿ
                                   12170              Ÿ                                                                     Ÿ
                                                      ¾þþþþþþþþþþþþþþþþþþþþþþþþþþþþþþþþþþþþþþþþþþþþþþþþþþþþþþþþþþþþþþþþþþþþþ»
00011B4 50E0 D000/9008_      00000 12171              DNEXT    XPROC ,
 USING  *,R7
                                   12211
                                   12212                       COMMENT                   NO OPTIONS
 0011CE 58E0 729E/0DEE       0146C 12213                       VCALL COLLOPTS
                                   12217
                                   12218                       COMMENT                   CHECK IF DEBUG STARTED
 0011D4 9180 B84C/4710_0084C       12219                       IF    ~CPFDEBUG,BEGIN
 0011DC 4110 731F/4100_      014ED 12234  1                      ERROR 'Debugging session not active.'
 0011E8                            12241                       END
                                   12245
                                   12246                       COMMENT                   CHECK IF ENTERED AT TERMINAL
 0011E8 9180 B758/47E0_00758       12247                       IF    CPFEXEC,BEGIN
 0011F0 4110 738F/4100_      0155D 12262  1                      ERROR 'DEBUG NEXT: may not be issued from EXEC file.'
 0011FC                            12269                       END
                                   12273
                                   12274                       COMMENT                   CHECK FOR EXEC FILE
 0011FC 58E0 72BA/0DEE       01488 12275                       VCALL EXECHK
                                   12279
                                   12280                       COMMENT                   SET DEBUG NEXT FLAG,,,
 001202 9680 B84D      0084D       12281                       SET   CPFDNEXT
                                   12287
                                   12288                       COMMENT                   RESTART EXEC
 001206 9680 B758      00758       12289                       SET   CPFEXEC
 00120A 47F0 C7DE            007DE 12295                       B     CVNEXT
                                   12296
 00120E 1BFF                       12297                       CLEAR R15
 001210 18D8/9808 D004_            12301                       PEND  ,
 DROP   *,R7
1DBUG     (DBUG2163) (12:41) (15MAR04) DEBUG Command Routines                                                               Page   39
0Current Usings:  (CP,R11) (CV,R12)
0Loc    Object Code    Addr1 Addr2  Stmt Lv Lineno    Source Statement           (Hibal 5, Asmedit 3.3)  HLASM R4.0  2004/03/15 12.41
+___    ______ ____    _____ _____  ____ __ ______    ______ _________
0                                  12322              ¿þþþþþþþþþþþþþþþþþþþþþþþþþþþþþþþþþþþþþþþþþþþþþþþþþþþþþþþþþþþþþþþþþþþþþÜ
                                   12323              Ÿ                                                                     Ÿ
                                   12324              Ÿ                                                                     Ÿ
                                   12325              Ÿ  DTRC - DEBUG TRACE                                                 Ÿ
                                   12326              Ÿ                                                                     Ÿ
                                   12327              Ÿ                                                                     Ÿ
                                   12328              Ÿ                                                                     Ÿ
                                   12329              Ÿ                                                                     Ÿ
                                                      ¾þþþþþþþþþþþþþþþþþþþþþþþþþþþþþþþþþþþþþþþþþþþþþþþþþþþþþþþþþþþþþþþþþþþþþ»
000121E 50E0 D000/9008_      00000 12330              DTRACE   XPROC ,
 USING  *,R7
                                   12370
                                   12371                       COMMENT                   DEBUG SESSION ACTIVE
 001238 9680 B84C      0084C       12372                       SET   CPFDEBUG
                                   12378
                                   12379                       COMMENT                   RESET TRACE FLAGS
 00123C 94BF B84C      0084C       12380                       CLEAR CPFTRACE
 001240 94DF B84C      0084C       12387                       CLEAR CPFTTRAP
                                   12394
 001244 5810 B08C/1B00_      0008C 12395                       SCAN DTRCPRT
 001296 58E0 7200/0DEE       01438 12427                       SCANCHK
 00129C 1BFF                       12432                       CLEAR R15
                                   12436
 00129E 47F0 C7DE            007DE 12437                       B     CVNEXT
 0012A2 18D8/9808 D004_            12438                       PEND  ,
 DROP   *,R7
-
0                                  12459                       ¿þþþþþþþþþþþþþþþþþÜ
                                   12460                       Ÿ  TRACE OPTIONS  Ÿ
                                   12461                       ¾þþþþþþþþþþþþþþþþþ»
 0012B0 4040404040404040_          12462              DTRCPRT  SCKW  ,DTRCON,NULL        DEFAULT IS TRACE ON
 0012D8 D6D5404040404040_          12477                       SCKW  ON,DTRCON
 001300 D6C6C64040404040_          12492                       SCKW  OFF,DTRCOFF
 001328 E3D9C1D7E2404040_          12507                       SCKW  TRAPS,DTRCTRAP,A
 001350 4040404040404040_          12522                       SCKW  ,V(SCNINVAL)
                                   12537
 001378 50E0 D000/9008_      00000 12538              DTRCON   DPROC ,
 USING  *,R7
 001392 9640 B84C      0084C       12578                       SET   CPFTRACE
 001396 18D8/9808 D004_            12584                       PEND  ,
 DROP   *,R7
                                   12604
 0013A4 50E0 D000/9008_      00000 12605              DTRCOFF  DPROC ,
 USING  *,R7
 0013BE 94BF B84C      0084C       12645                       CLEAR CPFTRACE
 0013C2 94DF B84C      0084C       12652                       CLEAR CPFTTRAP
 0013C6 18D8/9808 D004_            12659                       PEND  ,
 DROP   *,R7
                                   12679
 0013D4 50E0 D000/9008_      00000 12680              DTRCTRAP DPROC ,
1DBUG     (DBUG2163) (12:41) (15MAR04) DEBUG Command Routines                                                               Page   40
0Current Usings:  (*,R7) (CP,R11) (CV,R12)
0Loc    Object Code    Addr1 Addr2  Stmt Lv Lineno    Source Statement           (Hibal 5, Asmedit 3.3)  HLASM R4.0  2004/03/15 12.41
+___    ______ ____    _____ _____  ____ __ ______    ______ _________
0USING  *,R7
 0013EE 9640 B84C      0084C       12720                       SET   CPFTRACE
 0013F2 9620 B84C      0084C       12726                       SET   CPFTTRAP
 0013F6 18D8/9808 D004_            12732                       PEND  ,
 DROP   *,R7
1DBUG     (DBUG2163) (12:41) (15MAR04) DEBUG Command Routines                                                               Page   41
0Current Usings:  (CP,R11) (CV,R12)
0Loc    Object Code    Addr1 Addr2  Stmt Lv Lineno    Source Statement           (Hibal 5, Asmedit 3.3)  HLASM R4.0  2004/03/15 12.41
+___    ______ ____    _____ _____  ____ __ ______    ______ _________
0                                  12753                       QLTORG
1DBUG     (DBUG2163) (12:41) (15MAR04) Common Routines for DEBUG Commands.                                                  Page   42
0Current Usings:  (CP,R11) (CV,R12)
0Loc    Object Code    Addr1 Addr2  Stmt Lv Lineno    Source Statement           (Hibal 5, Asmedit 3.3)  HLASM R4.0  2004/03/15 12.41
+___    ______ ____    _____ _____  ____ __ ______    ______ _________
0                                  12807              ¿þþþþþþþþþþþþþþþþþþþþþþþþþþþþþþþþþþþþþþþþþþþþþþþþþþþþþþþþþþþþþþþþþþþþþÜ
                                   12808              Ÿ                                                                     Ÿ
                                   12809              Ÿ                                                                     Ÿ
                                   12810              Ÿ  GTTLINE - GET EXISTING LINE TRAP, IF ANY                           Ÿ
                                   12811              Ÿ                                                                     Ÿ
                                   12812              Ÿ  ON ENTRY:                                                          Ÿ
                                   12813              Ÿ      @R1 - TRAP RECORD, CONTAINS LINE NUMBER, EXEC NAME             Ÿ
                                   12814              Ÿ      @R2 - TRAP RECORD RETURN AREA, IF TRAP ALREADY EXISTS          Ÿ
                                   12815              Ÿ                                                                     Ÿ
                                   12816              Ÿ                                                                     Ÿ
                                   12817              Ÿ  ON EXIT:                                                           Ÿ
                                   12818              Ÿ       @R2 - EXISTING TRAP RECORD RETURNED, IF ANY                   Ÿ
                                   12819              Ÿ       R15 - CC=Z, TRAP SET                                          Ÿ
                                   12820              Ÿ             CC=NZ, NO TRAP SET                                      Ÿ
                                   12821              Ÿ                                                                     Ÿ
                                   12822              Ÿ                                                                     Ÿ
                                   12823              Ÿ                                                                     Ÿ
                                                      ¾þþþþþþþþþþþþþþþþþþþþþþþþþþþþþþþþþþþþþþþþþþþþþþþþþþþþþþþþþþþþþþþþþþþþþ»
000158A 50E0 D000/9008_      00000 12824              GTTLINE  PROC  ,
 USING  *,R7
 USING  DTL,R6                     12863                       USING DTL,R6
 0015A4 1861                       12872                       LR    R6,R1
 0015A6 4150 6014            00014 12873                       LA    R5,DTLLINE          @R5 - LINE NUMBER
 0015AA 4140 6018            00018 12874                       LA    R4,DTLXNAME         R4 - EXEC FILE NAME, =0 IF ALL
 0015AE 9180 6010/47E0_00010       12875                       IF    DTLALL,BEGIN
 0015B6 1B44                       12890  1                      CLEAR R4
 0015B8                            12894                       END
 0015B8 1862                       12898                       LR    R6,R2               DTL - RETURN AREA
                                   12899
                                   12900                       COMMENT                   INITALIZE RETURN AREA
 0015BA D757 6000 6000 00000 00000 12901                       CLEAR DTL
 0015C0 D203 6000 5000 00000 00000 12908                       MVC   DTLNMLIN,@R5
                                   12909
                                   12910                       COMMENT                   SET RECORD GROUP
 0015C6 41F0 B524            00524 12911                       LA    R15,CPRG16
 0015CA 4100 000F            0000F 12912                       LA    R0,CP#LTRAP
 0015CE 58E0 7A3C/0DEE       01FE0 12913                       VCALL XSETSET
                                   12917
                                   12918                       COMMENT                   CHECK FOR GENERAL TRAP
 0015D4 1244/4770 7090             12919                       IF    (R4,Z),BEGIN
 0015DA 41F0 B524            00524 12933  1                      LA    R15,CPRG16
 0015DE 4100 0048            00048 12934  1                      LA    R0,L'DTLDATA
 0015E2 4110 6010            00010 12935  1                      LA    R1,DTLDATA
 0015E6 4120 6000            00000 12936  1                      LA    R2,DTLNAME
 0015EA 58E0 7A40/0DEE       01FE4 12937  1                      VCALL XGETFRST
                                   12941  1                      COMMENT                   LOOP LOOKING FOR SPECIFIC TRAP
 0015F0 4130 0004            00004 12942  1                      LA    R3,4                ASSUME TRAP NOT FOUND
 0015F4 12FF/4770 708E_            12943  1                      WHILE ((R15,Z),AND,(R3,NZ),AND,(DTLNMLIN,EQ,@R5)),BEGIN
 00160A 9180 6010/47E0_00010       12986  2                        IF    DTLALL,BEGIN
 001612 1B33                       13001  3                          CLEAR R3                  FOUND TRAP
 001614                            13005  2                        END
 001614 7074/47F0 708A 01614 01610 13009  2                        ELSE  BEGIN
 001618 41F0 B524            00524 13020  3                          LA    R15,CPRG16
1DBUG     (DBUG2163) (12:41) (15MAR04) Common Routines for DEBUG Commands.                                                  Page   43
0Current Usings:  (DTL,R6) (*,R7) (CP,R11) (CV,R12)
0Loc    Object Code    Addr1 Addr2  Stmt Lv Lineno    Source Statement           (Hibal 5, Asmedit 3.3)  HLASM R4.0  2004/03/15 12.41
+___    ______ ____    _____ _____  ____ __ ______    ______ _________
000161C 4100 0048            00048 13021  3                          LA    R0,L'DTLDATA
 001620 4110 6010            00010 13022  3                          LA    R1,DTLDATA
 001624 4120 6000            00000 13023  3                          LA    R2,DTLNAME
 001628 58E0 7A44/0DEE       01FE8 13024  3                          VCALL XGETNEXT
 00162E                            13028  2                        END
 00162E 47F0 7050            015F4 13032  1                      END
 001632 18F3                       13037  1                      LR    R15,R3              SET CONDITION CODE
 001634                            13038                       END
                                   13042
                                   13043                       COMMENT                   CHECK FOR SPECIFIC TRAP
 001634 1244/4780 70FC             13044                       IF    (R4,NZ),BEGIN
 00163A 41F0 B524            00524 13058  1                      LA    R15,CPRG16
 00163E 4100 0048            00048 13059  1                      LA    R0,L'DTLDATA
 001642 4110 6010            00010 13060  1                      LA    R1,DTLDATA
 001646 4120 6000            00000 13061  1                      LA    R2,DTLNAME
 00164A 58E0 7A40/0DEE       01FE4 13062  1                      VCALL XGETFRST
                                   13066  1                      COMMENT                   LOOP LOOKING FOR SPECIFIC TRAP
 001650 4130 0004            00004 13067  1                      LA    R3,4                ASSUME TRAP NOT FOUND
 001654 12FF/4770 70FA_            13068  1                      WHILE ((R15,Z),AND,(R3,NZ),AND,(DTLNMLIN,EQ,@R5)),BEGIN
                                   13111  2         C              IF    ((DTLLINE,EQ,@R5),AND,
 00166A D503 6014 5000_00014 00000        2                              (DTLXNAME,EQ,@R4)),BEGIN
 00167E 1B33                       13144  3                          CLEAR R3                  FOUND TRAP
 001680                            13148  2                        END
 001680 70E0/70E0/47F0_01680 01672 13152  2                        ELSE  BEGIN
 001684 41F0 B524            00524 13165  3                          LA    R15,CPRG16
 001688 4100 0048            00048 13166  3                          LA    R0,L'DTLDATA
 00168C 4110 6010            00010 13167  3                          LA    R1,DTLDATA
 001690 4120 6000            00000 13168  3                          LA    R2,DTLNAME
 001694 58E0 7A44/0DEE       01FE8 13169  3                          VCALL XGETNEXT
 00169A                            13173  2                        END
 00169A 47F0 70B0            01654 13177  1                      END
 00169E 18F3                       13182  1                      LR    R15,R3              SET CONDITION CODE
 0016A0                            13183                       END
                                   13187
 0016A0 18D8/9808 D004_            13188                       PEND  ,
 DROP   *,R7
 DROP   DTL,R6                     13208                       DROP  R6
1DBUG     (DBUG2163) (12:41) (15MAR04) Common Routines for DEBUG Commands.                                                  Page   44
0Current Usings:  (CP,R11) (CV,R12)
0Loc    Object Code    Addr1 Addr2  Stmt Lv Lineno    Source Statement           (Hibal 5, Asmedit 3.3)  HLASM R4.0  2004/03/15 12.41
+___    ______ ____    _____ _____  ____ __ ______    ______ _________
0                                  13216              ¿þþþþþþþþþþþþþþþþþþþþþþþþþþþþþþþþþþþþþþþþþþþþþþþþþþþþþþþþþþþþþþþþþþþþþÜ
                                   13217              Ÿ                                                                     Ÿ
                                   13218              Ÿ                                                                     Ÿ
                                   13219              Ÿ  GTTNAME - GET EXISTING PROC NAME TRAP, IF ANY                      Ÿ
                                   13220              Ÿ                                                                     Ÿ
                                   13221              Ÿ  ON ENTRY:                                                          Ÿ
                                   13222              Ÿ      @R1 - TRAP RECORD, CONTAINS PROC NAME, EXEC NAME               Ÿ
                                   13223              Ÿ      @R2 - TRAP RECORD RETURN AREA, IF TRAP ALREADY EXISTS          Ÿ
                                   13224              Ÿ                                                                     Ÿ
                                   13225              Ÿ                                                                     Ÿ
                                   13226              Ÿ  ON EXIT:                                                           Ÿ
                                   13227              Ÿ       @R2 - EXISTING TRAP RECORD RETURNED, IF ANY                   Ÿ
                                   13228              Ÿ       R15 - CC=Z, TRAP SET                                          Ÿ
                                   13229              Ÿ             CC=NZ, NO TRAP SET                                      Ÿ
                                   13230              Ÿ                                                                     Ÿ
                                   13231              Ÿ                                                                     Ÿ
                                   13232              Ÿ                                                                     Ÿ
                                                      ¾þþþþþþþþþþþþþþþþþþþþþþþþþþþþþþþþþþþþþþþþþþþþþþþþþþþþþþþþþþþþþþþþþþþþþ»
00016AE 50E0 D000/9008_      00000 13233              GTTNAME  PROC  ,
 USING  *,R7
 USING  DTN,R6                     13272                       USING DTN,R6
 0016C8 1861                       13281                       LR    R6,R1
 0016CA 4150 6011            00011 13282                       LA    R5,DTNPNAME         R5 - PROC NAME
 0016CE 4140 6021            00021 13283                       LA    R4,DTNXNAME         R4 - EXEC FILE NAME, =0 IF ALL
 0016D2 9180 6010/47E0_00010       13284                       IF    DTNALL,BEGIN
 0016DA 1B44                       13299  1                      CLEAR R4
 0016DC                            13303                       END
 0016DC 1862                       13307                       LR    R6,R2               DTN - RETURN AREA
                                   13308
                                   13309                       COMMENT                   INITALIZE RETURN AREA
 0016DE D763 6000 6000 00000 00000 13310                       CLEAR DTN
 0016E4 D20B 6000 5000 00000 00000 13317                       MVC   DTNNMNAM,@R5
                                   13318
                                   13319                       COMMENT                   SET RECORD GROUP
 0016EA 41F0 B524            00524 13320                       LA    R15,CPRG16
 0016EE 4100 0010            00010 13321                       LA    R0,CP#NTRAP
 0016F2 58E0 7918/0DEE       01FE0 13322                       VCALL XSETSET
                                   13326
                                   13327                       COMMENT                   CHECK FOR GENERAL TRAP
 0016F8 1244/4770 7090             13328                       IF    (R4,Z),BEGIN
 0016FE 41F0 B524            00524 13342  1                      LA    R15,CPRG16
 001702 4100 0054            00054 13343  1                      LA    R0,L'DTNDATA
 001706 4110 6010            00010 13344  1                      LA    R1,DTNDATA
 00170A 4120 6000            00000 13345  1                      LA    R2,DTNNAME
 00170E 58E0 791C/0DEE       01FE4 13346  1                      VCALL XGETFRST
                                   13350  1                      COMMENT                   LOOP LOOKING FOR SPECIFIC TRAP
 001714 4130 0004            00004 13351  1                      LA    R3,4                ASSUME TRAP NOT FOUND
 001718 12FF/4770 708E_            13352  1                      WHILE ((R15,Z),AND,(R3,NZ),AND,(DTNNMNAM,EQ,@R5)),BEGIN
 00172E 9180 6010/47E0_00010       13395  2                        IF    DTNALL,BEGIN
 001736 1B33                       13410  3                          CLEAR R3                  FOUND TRAP
 001738                            13414  2                        END
 001738 7074/47F0 708A 01738 01734 13418  2                        ELSE  BEGIN
 00173C 41F0 B524            00524 13429  3                          LA    R15,CPRG16
1DBUG     (DBUG2163) (12:41) (15MAR04) Common Routines for DEBUG Commands.                                                  Page   45
0Current Usings:  (DTN,R6) (*,R7) (CP,R11) (CV,R12)
0Loc    Object Code    Addr1 Addr2  Stmt Lv Lineno    Source Statement           (Hibal 5, Asmedit 3.3)  HLASM R4.0  2004/03/15 12.41
+___    ______ ____    _____ _____  ____ __ ______    ______ _________
0001740 4100 0054            00054 13430  3                          LA    R0,L'DTNDATA
 001744 4110 6010            00010 13431  3                          LA    R1,DTNDATA
 001748 4120 6000            00000 13432  3                          LA    R2,DTNNAME
 00174C 58E0 7920/0DEE       01FE8 13433  3                          VCALL XGETNEXT
 001752                            13437  2                        END
 001752 47F0 7050            01718 13441  1                      END
 001756 18F3                       13446  1                      LR    R15,R3              SET CONDITION CODE
 001758                            13447                       END
                                   13451
                                   13452                       COMMENT                   CHECK FOR SPECIFIC TRAP
 001758 1244/4780 70FC             13453                       IF    (R4,NZ),BEGIN
 00175E 41F0 B524            00524 13467  1                      LA    R15,CPRG16
 001762 4100 0054            00054 13468  1                      LA    R0,L'DTNDATA
 001766 4110 6010            00010 13469  1                      LA    R1,DTNDATA
 00176A 4120 6000            00000 13470  1                      LA    R2,DTNNAME
 00176E 58E0 791C/0DEE       01FE4 13471  1                      VCALL XGETFRST
                                   13475  1                      COMMENT                   LOOP LOOKING FOR SPECIFIC TRAP
 001774 4130 0004            00004 13476  1                      LA    R3,4                ASSUME TRAP NOT FOUND
 001778 12FF/4770 70FA_            13477  1                      WHILE ((R15,Z),AND,(R3,NZ),AND,(DTNNMNAM,EQ,@R5)),BEGIN
                                   13520  2         C              IF    ((DTNPNAME,EQ,@R5),AND,
 00178E D50F 6011 5000_00011 00000        2                              (DTNXNAME,EQ,@R4)),BEGIN
 0017A2 1B33                       13553  3                          CLEAR R3                  FOUND TRAP
 0017A4                            13557  2                        END
 0017A4 70E0/70E0/47F0_017A4 01796 13561  2                        ELSE  BEGIN
 0017A8 41F0 B524            00524 13574  3                          LA    R15,CPRG16
 0017AC 4100 0054            00054 13575  3                          LA    R0,L'DTNDATA
 0017B0 4110 6010            00010 13576  3                          LA    R1,DTNDATA
 0017B4 4120 6000            00000 13577  3                          LA    R2,DTNNAME
 0017B8 58E0 7920/0DEE       01FE8 13578  3                          VCALL XGETNEXT
 0017BE                            13582  2                        END
 0017BE 47F0 70B0            01778 13586  1                      END
 0017C2 18F3                       13591  1                      LR    R15,R3              SET CONDITION CODE
 0017C4                            13592                       END
                                   13596
 0017C4 18D8/9808 D004_            13597                       PEND  ,
 DROP   *,R7
 DROP   DTN,R6                     13617                       DROP  R6
1DBUG     (DBUG2163) (12:41) (15MAR04) Common Routines for DEBUG Commands.                                                  Page   46
0Current Usings:  (CP,R11) (CV,R12)
0Loc    Object Code    Addr1 Addr2  Stmt Lv Lineno    Source Statement           (Hibal 5, Asmedit 3.3)  HLASM R4.0  2004/03/15 12.41
+___    ______ ____    _____ _____  ____ __ ______    ______ _________
0                                  13625              ¿þþþþþþþþþþþþþþþþþþþþþþþþþþþþþþþþþþþþþþþþþþþþþþþþþþþþþþþþþþþþþþþþþþþþþÜ
                                   13626              Ÿ                                                                     Ÿ
                                   13627              Ÿ                                                                     Ÿ
                                   13628              Ÿ  GTTRET  - GET EXISTING RETURN TRAP, IF ANY                         Ÿ
                                   13629              Ÿ                                                                     Ÿ
                                   13630              Ÿ  ON ENTRY:                                                          Ÿ
                                   13631              Ÿ      @R1 - TRAP RECORD, CONTAINS RETURN NAME, EXEC NAME             Ÿ
                                   13632              Ÿ      @R2 - TRAP RECORD RETURN AREA, IF TRAP ALREADY EXISTS          Ÿ
                                   13633              Ÿ                                                                     Ÿ
                                   13634              Ÿ                                                                     Ÿ
                                   13635              Ÿ  ON EXIT:                                                           Ÿ
                                   13636              Ÿ       @R2 - EXISTING TRAP RECORD RETURNED, IF ANY                   Ÿ
                                   13637              Ÿ       R15 - CC=Z, TRAP SET                                          Ÿ
                                   13638              Ÿ             CC=NZ, NO TRAP SET                                      Ÿ
                                   13639              Ÿ                                                                     Ÿ
                                   13640              Ÿ                                                                     Ÿ
                                   13641              Ÿ                                                                     Ÿ
                                                      ¾þþþþþþþþþþþþþþþþþþþþþþþþþþþþþþþþþþþþþþþþþþþþþþþþþþþþþþþþþþþþþþþþþþþþþ»
00017D2 50E0 D000/9008_      00000 13642              GTTRET   PROC  ,
 USING  *,R7
 USING  DTR,R6                     13681                       USING DTR,R6
 0017EC 1861                       13690                       LR    R6,R1
 0017EE 4150 6011            00011 13691                       LA    R5,DTRPNAME         R5 - PROC NAME
 0017F2 4140 6021            00021 13692                       LA    R4,DTRXNAME         R4 - EXEC FILE NAME, =0 IF ALL
 0017F6 9180 6010/47E0_00010       13693                       IF    DTRALL,BEGIN
 0017FE 1B44                       13708  1                      CLEAR R4
 001800                            13712                       END
 001800 1862                       13716                       LR    R6,R2               DTR - RETURN AREA
                                   13717
                                   13718                       COMMENT                   INITALIZE RETURN AREA
 001802 D763 6000 6000 00000 00000 13719                       CLEAR DTR
 001808 D20B 6000 5000 00000 00000 13726                       MVC   DTRNMNAM,@R5
                                   13727
                                   13728                       COMMENT                   SET RECORD GROUP
 00180E 41F0 B524            00524 13729                       LA    R15,CPRG16
 001812 4100 0011            00011 13730                       LA    R0,CP#RTRAP
 001816 58E0 77F4/0DEE       01FE0 13731                       VCALL XSETSET
                                   13735
                                   13736                       COMMENT                   CHECK FOR GENERAL TRAP
 00181C 1244/4770 7090             13737                       IF    (R4,Z),BEGIN
 001822 41F0 B524            00524 13751  1                      LA    R15,CPRG16
 001826 4100 0054            00054 13752  1                      LA    R0,L'DTRDATA
 00182A 4110 6010            00010 13753  1                      LA    R1,DTRDATA
 00182E 4120 6000            00000 13754  1                      LA    R2,DTRNAME
 001832 58E0 77F8/0DEE       01FE4 13755  1                      VCALL XGETFRST
                                   13759  1                      COMMENT                   LOOP LOOKING FOR SPECIFIC TRAP
 001838 4130 0004            00004 13760  1                      LA    R3,4                ASSUME TRAP NOT FOUND
 00183C 12FF/4770 708E_            13761  1                      WHILE ((R15,Z),AND,(R3,NZ),AND,(DTRNMNAM,EQ,@R5)),BEGIN
 001852 9180 6010/47E0_00010       13804  2                        IF    DTRALL,BEGIN
 00185A 1B33                       13819  3                          CLEAR R3                  FOUND TRAP
 00185C                            13823  2                        END
 00185C 7074/47F0 708A 0185C 01858 13827  2                        ELSE  BEGIN
 001860 41F0 B524            00524 13838  3                          LA    R15,CPRG16
1DBUG     (DBUG2163) (12:41) (15MAR04) Common Routines for DEBUG Commands.                                                  Page   47
0Current Usings:  (DTR,R6) (*,R7) (CP,R11) (CV,R12)
0Loc    Object Code    Addr1 Addr2  Stmt Lv Lineno    Source Statement           (Hibal 5, Asmedit 3.3)  HLASM R4.0  2004/03/15 12.41
+___    ______ ____    _____ _____  ____ __ ______    ______ _________
0001864 4100 0054            00054 13839  3                          LA    R0,L'DTRDATA
 001868 4110 6010            00010 13840  3                          LA    R1,DTRDATA
 00186C 4120 6000            00000 13841  3                          LA    R2,DTRNAME
 001870 58E0 77FC/0DEE       01FE8 13842  3                          VCALL XGETNEXT
 001876                            13846  2                        END
 001876 47F0 7050            0183C 13850  1                      END
 00187A 18F3                       13855  1                      LR    R15,R3              SET CONDITION CODE
 00187C                            13856                       END
                                   13860
                                   13861                       COMMENT                   CHECK FOR SPECIFIC TRAP
 00187C 1244/4780 70FC             13862                       IF    (R4,NZ),BEGIN
 001882 41F0 B524            00524 13876  1                      LA    R15,CPRG16
 001886 4100 0054            00054 13877  1                      LA    R0,L'DTRDATA
 00188A 4110 6010            00010 13878  1                      LA    R1,DTRDATA
 00188E 4120 6000            00000 13879  1                      LA    R2,DTRNAME
 001892 58E0 77F8/0DEE       01FE4 13880  1                      VCALL XGETFRST
                                   13884  1                      COMMENT                   LOOP LOOKING FOR SPECIFIC TRAP
 001898 4130 0004            00004 13885  1                      LA    R3,4                ASSUME TRAP NOT FOUND
 00189C 12FF/4770 70FA_            13886  1                      WHILE ((R15,Z),AND,(R3,NZ),AND,(DTRNMNAM,EQ,@R5)),BEGIN
                                   13929  2         C              IF    ((DTRPNAME,EQ,@R5),AND,
 0018B2 D50F 6011 5000_00011 00000        2                              (DTRXNAME,EQ,@R4)),BEGIN
 0018C6 1B33                       13962  3                          CLEAR R3                  FOUND TRAP
 0018C8                            13966  2                        END
 0018C8 70E0/70E0/47F0_018C8 018BA 13970  2                        ELSE  BEGIN
 0018CC 41F0 B524            00524 13983  3                          LA    R15,CPRG16
 0018D0 4100 0054            00054 13984  3                          LA    R0,L'DTRDATA
 0018D4 4110 6010            00010 13985  3                          LA    R1,DTRDATA
 0018D8 4120 6000            00000 13986  3                          LA    R2,DTRNAME
 0018DC 58E0 77FC/0DEE       01FE8 13987  3                          VCALL XGETNEXT
 0018E2                            13991  2                        END
 0018E2 47F0 70B0            0189C 13995  1                      END
 0018E6 18F3                       14000  1                      LR    R15,R3              SET CONDITION CODE
 0018E8                            14001                       END
                                   14005
 0018E8 18D8/9808 D004_            14006                       PEND  ,
 DROP   *,R7
 DROP   DTR,R6                     14026                       DROP  R6
1DBUG     (DBUG2163) (12:41) (15MAR04) Common Routines for DEBUG Commands.                                                  Page   48
0Current Usings:  (CP,R11) (CV,R12)
0Loc    Object Code    Addr1 Addr2  Stmt Lv Lineno    Source Statement           (Hibal 5, Asmedit 3.3)  HLASM R4.0  2004/03/15 12.41
+___    ______ ____    _____ _____  ____ __ ______    ______ _________
0                                  14034              ¿þþþþþþþþþþþþþþþþþþþþþþþþþþþþþþþþþþþþþþþþþþþþþþþþþþþþþþþþþþþþþþþþþþþþþÜ
                                   14035              Ÿ                                                                     Ÿ
                                   14036              Ÿ                                                                     Ÿ
                                   14037              Ÿ DBCLEAR - CLEAR DEBUGGING SESSION                                   Ÿ
                                   14038              Ÿ                                                                     Ÿ
                                   14039              Ÿ                                                                     Ÿ
                                   14040              Ÿ                                                                     Ÿ
                                                      ¾þþþþþþþþþþþþþþþþþþþþþþþþþþþþþþþþþþþþþþþþþþþþþþþþþþþþþþþþþþþþþþþþþþþþþ»
00018F6 50E0 D000/9008_      00000 14041              DBCLEAR  XPROC ,
 USING  *,R7
                                   14081
                                   14082                       COMMENT                   CLEAR TRAPS
 001910 58E0 76DC/0DEE       01FEC 14083                       ACALL CLRTRAPS
                                   14087
                                   14088                       COMMENT                   CLEAR CP FIELDS
 001916 947F B84C      0084C       14089                       CLEAR CPFDEBUG
 00191A 94BF B84C      0084C       14096                       CLEAR CPFTRACE
 00191E 94DF B84C      0084C       14103                       CLEAR CPFTTRAP
 001922 94EF B84C      0084C       14110                       CLEAR CPFXLOG
 001926 947F B84D      0084D       14117                       CLEAR CPFDNEXT
 00192A 94BF B84D      0084D       14124                       CLEAR CPFDSTOP
 00192E 94DF B84D      0084D       14131                       CLEAR CPFDSTPD
 001932 94EF B84D      0084D       14138                       CLEAR CPFISTOP
 001936 94F7 B84D      0084D       14145                       CLEAR CPFISTPD
 00193A 94FB B84D      0084D       14152                       CLEAR CPFIDONE
                                   14159
 00193E 1BFF                       14160                       CLEAR R15
 001940 18D8/9808 D004_            14164                       PEND  ,
 DROP   *,R7
1DBUG     (DBUG2163) (12:41) (15MAR04) Common Routines for DEBUG Commands.                                                  Page   49
0Current Usings:  (CP,R11) (CV,R12)
0Loc    Object Code    Addr1 Addr2  Stmt Lv Lineno    Source Statement           (Hibal 5, Asmedit 3.3)  HLASM R4.0  2004/03/15 12.41
+___    ______ ____    _____ _____  ____ __ ______    ______ _________
0                                  14185              *
                                   14186              **
                                   14187              ** DBXSTART - START OF XPROC, EXEC;  WE CLEAR NEXT/STOP FLAGS
                                   14188              **
                                   14189              *$ delete on 1/1/88,  Happy New Year !
                                   14190              *
                                   14191              *BXSTART XPROC ,
                                   14192              *
                                   14193              *        COMMENT                   CLEAR CP FIELDS
                                   14194              *        CLEAR CPFDNEXT
                                   14195              *        CLEAR CPFDSTOP
                                   14196              *        CLEAR CPFDSTPD
                                   14197              *        CLEAR CPFISTOP
                                   14198              *        CLEAR CPFISTPD
                                   14199              *        CLEAR CPFIDONE
                                   14200              *
                                   14201              *        CLEAR R15
                                   14202              *        PEND  ,
1DBUG     (DBUG2163) (12:41) (15MAR04) Common Routines for DEBUG Commands.                                                  Page   50
0Current Usings:  (CP,R11) (CV,R12)
0Loc    Object Code    Addr1 Addr2  Stmt Lv Lineno    Source Statement           (Hibal 5, Asmedit 3.3)  HLASM R4.0  2004/03/15 12.41
+___    ______ ____    _____ _____  ____ __ ______    ______ _________
0                                  14204              ¿þþþþþþþþþþþþþþþþþþþþþþþþþþþþþþþþþþþþþþþþþþþþþþþþþþþþþþþþþþþþþþþþþþþþþÜ
                                   14205              Ÿ                                                                     Ÿ
                                   14206              Ÿ                                                                     Ÿ
                                   14207              Ÿ  CLRTRAPS - CLEAR ALL TRAPS                                         Ÿ
                                   14208              Ÿ                                                                     Ÿ
                                   14209              Ÿ                                                                     Ÿ
                                   14210              Ÿ                                                                     Ÿ
                                                      ¾þþþþþþþþþþþþþþþþþþþþþþþþþþþþþþþþþþþþþþþþþþþþþþþþþþþþþþþþþþþþþþþþþþþþþ»
000194E 50E0 D000/9008_      00000 14211              CLRTRAPS PROC  ,
 USING  *,R7
                                   14250
                                   14251                       COMMENT                   CLEAR EM
 001968 41F0 B524            00524 14252                       LA    R15,CPRG16
 00196C 4100 000F            0000F 14253                       LA    R0,CP#LTRAP
 001970 58E0 7688/0DEE       01FF0 14254                       VCALL XDELSET
 001976 41F0 B524            00524 14258                       LA    R15,CPRG16
 00197A 4100 0010            00010 14259                       LA    R0,CP#NTRAP
 00197E 58E0 7688/0DEE       01FF0 14260                       VCALL XDELSET
 001984 41F0 B524            00524 14264                       LA    R15,CPRG16
 001988 4100 0011            00011 14265                       LA    R0,CP#RTRAP
 00198C 58E0 7688/0DEE       01FF0 14266                       VCALL XDELSET
                                   14270
 001992 1BFF                       14271                       CLEAR R15
 001994 18D8/9808 D004_            14275                       PEND  ,
 DROP   *,R7
1DBUG     (DBUG2163) (12:41) (15MAR04) Common Routines for DEBUG Commands.                                                  Page   51
0Current Usings:  (CP,R11) (CV,R12)
0Loc    Object Code    Addr1 Addr2  Stmt Lv Lineno    Source Statement           (Hibal 5, Asmedit 3.3)  HLASM R4.0  2004/03/15 12.41
+___    ______ ____    _____ _____  ____ __ ______    ______ _________
0                                  14296              ¿þþþþþþþþþþþþþþþþþþþþþþþþþþþþþþþþþþþþþþþþþþþþþþþþþþþþþþþþþþþþþþþþþþþþþÜ
                                   14297              Ÿ                                                                     Ÿ
                                   14298              Ÿ                                                                     Ÿ
                                   14299              Ÿ  SCANTRAP - SCAN TRAP <LOCATION> IN <EXEC FILE>                     Ÿ
                                   14300              Ÿ                                                                     Ÿ
                                   14301              Ÿ  ON ENTRY:                                                          Ÿ
                                   14302              Ÿ       @R1 - LINE TRAP WORK AREA                                     Ÿ
                                   14303              Ÿ       @R2 - NAME TRAP WORK AREA                                     Ÿ
                                   14304              Ÿ       @R3 - RETURN TRAP WORK AREA                                   Ÿ
                                   14305              Ÿ       SCANCB - TRAP STRING                                          Ÿ
                                   14306              Ÿ                                                                     Ÿ
                                   14307              Ÿ  ON EXIT:                                                           Ÿ
                                   14308              Ÿ       TRAP WORK AREAS CLEARED, APPROPRIATE ENTRY FILLED IN.         Ÿ
                                   14309              Ÿ       ERRORS EXIT DIRECTLY TO CVERROR.                              Ÿ
                                   14310              Ÿ                                                                     Ÿ
                                   14311              Ÿ                                                                     Ÿ
                                                      ¾þþþþþþþþþþþþþþþþþþþþþþþþþþþþþþþþþþþþþþþþþþþþþþþþþþþþþþþþþþþþþþþþþþþþþ»
00019A2 50E0 D000/9008_      00000 14312              SCANTRAP PROC  ,
 USING  *,R7
 USING  DTL,R3                     14351                       USING DTL,R3
 USING  DTN,R4                     14360                       USING DTN,R4
 USING  DTR,R5                     14369                       USING DTR,R5
 0019BC 1853                       14378                       LR    R5,R3
 0019BE 1842                       14379                       LR    R4,R2
 0019C0 1831                       14380                       LR    R3,R1
                                   14381
                                   14382                       COMMENT                   CLEAR TRAP WORK AREAS
 0019C2 D757 3000 3000 00000 00000 14383                       CLEAR DTL
 0019C8 D763 4000 4000 00000 00000 14390                       CLEAR DTN
 0019CE D763 5000 5000 00000 00000 14397                       CLEAR DTR
                                   14404
                                   14405                       COMMENT                   SCAN FOR LOCATION
 0019D4 5810 B08C/1B00_      0008C 14406                       SCAN  TLOCPRT
 001A26 58E0 7640/0DEE       01FFC 14438                       SCANCHK
 001A2C 1BFF                       14443                       CLEAR R15
 001A2E 18D8/9808 D004_            14447                       PEND  ,
 DROP   *,R7
-                                  14468              * LOCATION OPTIONS
 001A3C 4040404040404040_          14469              TLOCPRT  SCKW  ,STNULL,NULL
 001A64 4040404040404040_          14484                       SCKW  ,STLINENO,SYMLN
 001A8C 4040404040404040_          14499                       SCKW  ,STNAME
-                                  14515              *  NO OPTIONS, INVALID
 001AB4 50E0 D000/9008_      00000 14516              STNULL   PROC  ,
 USING  *,R7
 001ACE D207 B886 7502_00886 01FD0 14555                       ERROR 'Missing trap specification.',,SYNTAX
 001AE0 18D8/9808 D004_            14563                       PEND  ,
 DROP   *,R7
                                   14583              *
                                   14584              * LINE NUMBER TRAP
1DBUG     (DBUG2163) (12:41) (15MAR04) Common Routines for DEBUG Commands.                                                  Page   52
0Current Usings:  (DTL,R3) (DTN,R4) (DTR,R5) (CP,R11) (CV,R12)
0Loc    Object Code    Addr1 Addr2  Stmt Lv Lineno    Source Statement           (Hibal 5, Asmedit 3.3)  HLASM R4.0  2004/03/15 12.41
+___    ______ ____    _____ _____  ____ __ ______    ______ _________
0                                  14585              *
 001AEE 50E0 D000/9008_      00000 14586              STLINENO PROC  ,
 USING  *,R7
 001B08 5000 3014            00014 14625                       ST    R0,DTLLINE
 001B0C 5000 3000            00000 14626                       ST    R0,DTLNMLIN
 001B10 5810 B850            00850 14627                       L     R1,CPTRAPSQ
 001B14 5E10 74F8            02000 14628                       INCR  R1
 001B18 5010 B850            00850 14631                       ST    R1,CPTRAPSQ
 001B1C 5010 300C            0000C 14632                       ST    R1,DTLNMSEQ
 001B20 5810 B08C/1B00_      0008C 14633                       SCAN  ,
 001B6E 58E0 74F4/0DEE       01FFC 14664                       SCANCHK
 001B74 5810 B08C/4111_      0008C 14669                       SCUPTOK (R1)
 001B7C 1200/4770 707E             14673                       IF    (R0,Z),BEGIN
 001B82 9680 3010      00010       14687  1                      SET   DTLALL
 001B86                            14693                       END
 001B86 7082/47F0 709A_01B86 01B80 14697                       ELSEIF ((R0,NE,2),OR,(@R1,NE,'IN')),BEGIN
 001B9C 58E0 7500/0DEE       02008 14738  1                      VCALL NOTVALID
 001BA2                            14742                       END
 001BA2 709E/47F0 70A8 01BA2 01B9A 14746                       ELSE  BEGIN
 001BA6 4110 3018            00018 14757  1                      LA    R1,DTLXNAME
 001BAA 58E0 7504/0DEE       0200C 14758  1                      ACALL SCNXNAME
 001BB0                            14762                       END
 001BB0 41F0 0004            00004 14766                       LA    R15,4
 001BB4 18D8/9808 D004_            14767                       PEND  ,
 DROP   *,R7
-                                  14788              *
                                   14789              * NAME TRAP
                                   14790              *
 001BC2 50E0 D000/9008_      00000 14791              STNAME   PROC  ,
 USING  *,R7
 001BDC 5900 7434/47D0_      02010 14830                       IF    (R0,GT,16),' VCALL NOTVALID'
 001BEA 58F0 B08C/4110_      0008C 14856                       SCUPCASE DTNNAME
 001BFC 58F0 B08C/4110_      0008C 14877                       SCUPCASE DTNPNAME
 001C0E 5810 B850            00850 14898                       L     R1,CPTRAPSQ
 001C12 5E10 7424            02000 14899                       INCR  R1
 001C16 5010 B850            00850 14902                       ST    R1,CPTRAPSQ
 001C1A 5010 400C            0000C 14903                       ST    R1,DTNNMSEQ
 001C1E 5810 B08C/1B00_      0008C 14904                       SCAN  ,
 001C6C 58E0 7420/0DEE       01FFC 14935                       SCANCHK
 001C72 5810 B08C/4111_      0008C 14940                       SCUPTOK (R1)
 001C7A 1200/4770 70A8             14944                       IF    (R0,Z),BEGIN
 001C80 9680 4010      00010       14958  1                      SET   DTNALL
 001C84                            14964                       END
 001C84 70AC/47F0 70C4_01C84 01C7E 14968                       ELSEIF    ((R0,GE,3),AND,(@R1,EQ,'RET')),BEGIN
 001C9A 58E0 7440/0DEE       0201C 15009  1                      ACALL STRET
 001CA0                            15013                       END
 001CA0 70C8/70C8/47F0_01CA0 01C8E 15017                       ELSEIF ((R0,NE,2),OR,(@R1,NE,'IN')),BEGIN
 001CB6 58E0 742C/0DEE       02008 15060  1                      VCALL NOTVALID
 001CBC                            15064                       END
 001CBC 70E4/47F0 70EE 01CBC 01CB4 15068                       ELSE  BEGIN
 001CC0 4110 4021            00021 15079  1                      LA    R1,DTNXNAME
 001CC4 58E0 7430/0DEE       0200C 15080  1                      ACALL SCNXNAME
1DBUG     (DBUG2163) (12:41) (15MAR04) Common Routines for DEBUG Commands.                                                  Page   53
0Current Usings:  (DTL,R3) (DTN,R4) (DTR,R5) (*,R7) (CP,R11) (CV,R12)
0Loc    Object Code    Addr1 Addr2  Stmt Lv Lineno    Source Statement           (Hibal 5, Asmedit 3.3)  HLASM R4.0  2004/03/15 12.41
+___    ______ ____    _____ _____  ____ __ ______    ______ _________
0001CCA                            15084                       END
 001CCA 41F0 0004            00004 15088                       LA    R15,4
 001CCE 18D8/9808 D004_            15089                       PEND  ,
 DROP   *,R7
-                                  15110              *
                                   15111              * RETURN TRAP
                                   15112              *
 001CDC 50E0 D000/9008_      00000 15113              STRET    PROC  ,
 USING  *,R7
 001CF6 D20F 5000 4000 00000 00000 15152                       MVC   DTRNAME,DTNNAME
 001CFC D20F 5011 4011 00011 00011 15153                       MVC   DTRPNAME,DTNPNAME
 001D02 D763 4000 4000 00000 00000 15154                       CLEAR DTN
                                   15161                       COMMENT                   CHECK FOR 'RETURN' KEYWORD
 001D08 5900 7322/4740_      02018 15162                       IF    ((R0,LT,3),OR,(R0,GT,6)),' VCALL NOTVALID'
 001D1E 41E0 7366            0205C 15204                       LA    R14,=CL6'RETURN'
 001D22 41F0 0000            00000 15205                       LA    R15,R0
 001D26 1801                       15206                       LR    R0,R1
 001D28 181F                       15207                       LR    R1,R15
 001D2A 0FE0                       15208                       CLCL  R14,R0
 001D2C 4780 7040/58E0_      01D36 15209                       IF    NE,' VCALL NOTVALID'
 001D36 5810 B08C/1B00_      0008C 15229                       SCAN  ,
 001D84 58E0 7306/0DEE       01FFC 15260                       SCANCHK
 001D8A 5810 B08C/4111_      0008C 15265                       SCUPTOK (R1)
 001D92 1200/4770 70A6             15269                       IF    (R0,Z),BEGIN
 001D98 9680 5010      00010       15283  1                      SET   DTRALL
 001D9C                            15289                       END
 001D9C 70AA/47F0 70C2_01D9C 01D96 15293                       ELSEIF ((R0,NE,2),OR,(@R1,NE,'IN')),BEGIN
 001DB2 58E0 7312/0DEE       02008 15334  1                      VCALL NOTVALID
 001DB8                            15338                       END
 001DB8 70C6/47F0 70D0 01DB8 01DB0 15342                       ELSE  BEGIN
 001DBC 4110 5021            00021 15353  1                      LA    R1,DTRXNAME
 001DC0 58E0 7316/0DEE       0200C 15354  1                      ACALL SCNXNAME
 001DC6                            15358                       END
 001DC6 41F0 0004            00004 15362                       LA    R15,4
 001DCA 18D8/9808 D004_            15363                       PEND  ,
 DROP   *,R7
1DBUG     (DBUG2163) (12:41) (15MAR04) Common Routines for DEBUG Commands.                                                  Page   54
0Current Usings:  (DTL,R3) (DTN,R4) (DTR,R5) (CP,R11) (CV,R12)
0Loc    Object Code    Addr1 Addr2  Stmt Lv Lineno    Source Statement           (Hibal 5, Asmedit 3.3)  HLASM R4.0  2004/03/15 12.41
+___    ______ ____    _____ _____  ____ __ ______    ______ _________
0                                  15384              ¿þþþþþþþþþþþþþþþþþþþþþþþþþþþþþþþþþþþþþþþþþþþþþþþþþþþþþþþþþþþþþþþþþþþþþÜ
                                   15385              Ÿ                                                                     Ÿ
                                   15386              Ÿ                                                                     Ÿ
                                   15387              Ÿ  SCNXNAME - SCAN EXEC NAME                                          Ÿ
                                   15388              Ÿ                                                                     Ÿ
                                   15389              Ÿ                                                                     Ÿ
                                   15390              Ÿ  ON ENTRY:                                                          Ÿ
                                   15391              Ÿ       R1 - EXEC NAME AREA (IN XDSNAME FORMAT)                       Ÿ
                                   15392              Ÿ       SCANCB - WYLBUR FORMAT DATA SET NAME                          Ÿ
                                   15393              Ÿ                                                                     Ÿ
                                   15394              Ÿ  ON EXIT:                                                           Ÿ
                                   15395              Ÿ       R1 - EXEC NAME (XDSNAME FORMAT)                               Ÿ
                                   15396              Ÿ       R15 - CC=Z                                                    Ÿ
                                   15397              Ÿ             ANY ERRORS EXIT VIA CVERROR                             Ÿ
                                   15398              Ÿ                                                                     Ÿ
                                   15399              Ÿ                                                                     Ÿ
                                   15400              Ÿ                                                                     Ÿ
                                                      ¾þþþþþþþþþþþþþþþþþþþþþþþþþþþþþþþþþþþþþþþþþþþþþþþþþþþþþþþþþþþþþþþþþþþþþ»
0001DD8 50E0 D000/9008_      00000 15401              SCNXNAME PROC  ,
 USING  *,R7
                                   15440
                                   15441                       COMMENT                   R5 - DATA SET NAME RETURN AREA
 001DF2 1851                       15442                       LR    R5,R1
                                   15443
                                   15444                       COMMENT                   SCAN DATA SET NAME
 001DF4 58E0 7232/0DEE       02024 15445                       VCALL DOFNAME
 001DFA 58E0 7236/0DEE       02028 15449                       VCALL FNAMOPTS
 001E00 58E0 723A/0DEE       0202C 15453                       VCALL FNAMEFIN
 001E06 58E0 723E/0DEE       02030 15457                       VCALL NRESOLVE
                                   15461
                                   15462                       COMMENT                   GET DATA SET NAME IN PROPER FORMAT
 001E0C 1815                       15463                       LR    R1,R5
 001E0E 58E0 7242/0DEE       02034 15464                       VCALL SETXNAME
                                   15468
 001E14 1BFF                       15469                       CLEAR R15
 001E16 18D8/9808 D004_            15473                       PEND  ,
 DROP   *,R7
 DROP   DTL,R3                     15493                       DROP  R3
 DROP   DTN,R4                     15500                       DROP  R4
 DROP   DTR,R5                     15507                       DROP  R5
1DBUG     (DBUG2163) (12:41) (15MAR04) Common Routines for DEBUG Commands.                                                  Page   55
0Current Usings:  (CP,R11) (CV,R12)
0Loc    Object Code    Addr1 Addr2  Stmt Lv Lineno    Source Statement           (Hibal 5, Asmedit 3.3)  HLASM R4.0  2004/03/15 12.41
+___    ______ ____    _____ _____  ____ __ ______    ______ _________
0                                  15515              ¿þþþþþþþþþþþþþþþþþþþþþþþþþþþþþþþþþþþþþþþþþþþþþþþþþþþþþþþþþþþþþþþþþþþþþÜ
                                   15516              Ÿ                                                                     Ÿ
                                   15517              Ÿ                                                                     Ÿ
                                   15518              Ÿ  STOPMSG - GIVE EXEC STOP MESSAGE                                   Ÿ
                                   15519              Ÿ                                                                     Ÿ
                                   15520              Ÿ  ON ENTRY:                                                          Ÿ
                                   15521              Ÿ       R0 - EXEC SET NUMBER                                          Ÿ
                                   15522              Ÿ       R1 - EXEC LINE NUMBER                                         Ÿ
                                   15523              Ÿ                                                                     Ÿ
                                   15524              Ÿ  NOTE: WE IGNORE ATTNS, WE ARE STOPPING ANYWAY                      Ÿ
                                   15525              Ÿ                                                                     Ÿ
                                   15526              Ÿ                                                                     Ÿ
                                   15527              Ÿ                                                                     Ÿ
                                                      ¾þþþþþþþþþþþþþþþþþþþþþþþþþþþþþþþþþþþþþþþþþþþþþþþþþþþþþþþþþþþþþþþþþþþþþ»
0000000                00000 00040 15528              STPWA    RECORD BEGIN
 000000                            15536  1           STPXNAME   DS    XL(L'XDSNAME)
 000040                00040 00040 15537                       END
                                   15546              *
                                   15547              *
 001E24 50E0 D000/9008_      00000 15548              STOPMSG  PROC  STPWA
 USING  *,R7
 USING  STPWA-(4+36),R8
                                   15598
                                   15599                       COMMENT                   R2 - EXEC SET #, R3 - EXEC LINE
 001E3E 1820                       15600                       LR    R2,R0
 001E40 1831                       15601                       LR    R3,R1
                                   15602
                                   15603                       COMMENT                   GIVE MESSAGE
 001E42 4110 7224/4100_      02062 15604                       TSEG  '- Stopped at line '
                                   15622
                                   15623                       COMMENT                   GIVE LINE NUMBER
 001E54 1803                       15624                       LR    R0,R3
 001E56 1200/4740 7036_            15625                       IF    ((R0,NL),AND,(R0,LT,CVMAXLNO)),BEGIN
 001E64 58E0 71FE/0DEE       0203C 15655  1                      VCALL CVEXNO
 001E6A 41F0 B050/58E0_      00050 15659  1                      TSEG  (R1),(R0)
 001E74                            15683                       END
 001E74 703A/703A/47F0_01E74 01E5A 15687                       ELSE  BEGIN
 001E78 4110 7236/4100_      02074 15700  1                      TSEG  '######'
 001E8A                            15718                       END
                                   15722
 001E8A 4110 7202/4100_      02040 15723                       TSEG  ' in '
                                   15741
                                   15742                       COMMENT                   GIVE EXEC NAME
 001E9C 1802                       15743                       LR    R0,R2
 001E9E 4110 8028            00000 15744                       LA    R1,STPXNAME
 001EA2 58E0 7206/0DEE       02044 15745                       VCALL GETXNAME
 001EA8 58E0 720A/0DEE       02048 15749                       VCALL SEGXDSN
                                   15753
                                   15754                       COMMENT                   OUTPUT MSG
 001EAE 1B00/41F0 B050_            15755                       TCR
                                   15780
 001EBA 1BFF                       15781                       CLEAR R15
 001EBC 18D8/9808 D004_            15785                       PEND  ,
1DBUG     (DBUG2163) (12:41) (15MAR04) Common Routines for DEBUG Commands.                                                  Page   56
0Current Usings:  (CP,R11) (CV,R12)
0Loc    Object Code    Addr1 Addr2  Stmt Lv Lineno    Source Statement           (Hibal 5, Asmedit 3.3)  HLASM R4.0  2004/03/15 12.41
+___    ______ ____    _____ _____  ____ __ ______    ______ _________
0DROP   STPWA-(4+36),R8
 DROP   *,R7
1DBUG     (DBUG2163) (12:41) (15MAR04) Common Routines for DEBUG Commands.                                                  Page   57
0Current Usings:  (CP,R11) (CV,R12)
0Loc    Object Code    Addr1 Addr2  Stmt Lv Lineno    Source Statement           (Hibal 5, Asmedit 3.3)  HLASM R4.0  2004/03/15 12.41
+___    ______ ____    _____ _____  ____ __ ______    ______ _________
0                                  15811              ¿þþþþþþþþþþþþþþþþþþþþþþþþþþþþþþþþþþþþþþþþþþþþþþþþþþþþþþþþþþþþþþþþþþþþþÜ
                                   15812              Ÿ                                                                     Ÿ
                                   15813              Ÿ                                                                     Ÿ
                                   15814              Ÿ  CALLMSG - GIVE PROC ENTERED MESSAGE                                Ÿ
                                   15815              Ÿ                                                                     Ÿ
                                   15816              Ÿ  ON ENTRY:                                                          Ÿ
                                   15817              Ÿ       R0 - EXEC SET NUMBER                                          Ÿ
                                   15818              Ÿ      @R1 - EXEC PROC NAME (16 CHAR, LEFT JUSTIFIED)                 Ÿ
                                   15819              Ÿ                                                                     Ÿ
                                   15820              Ÿ  NOTE: WE IGNORE ATTNS, WE MUST COMPLETE THE XCALL/PCALL            Ÿ
                                   15821              Ÿ                                                                     Ÿ
                                   15822              Ÿ                                                                     Ÿ
                                   15823              Ÿ                                                                     Ÿ
                                                      ¾þþþþþþþþþþþþþþþþþþþþþþþþþþþþþþþþþþþþþþþþþþþþþþþþþþþþþþþþþþþþþþþþþþþþþ»
0000000                00000 00054 15824              CMWA     RECORD BEGIN
 000000                            15832  1           CM#XSET    DS    F
 000004                            15833  1           CMPNAME    DS    XL(L'DTNPNAME)
 000014                            15834  1           CMXNAME    DS    XL(L'XDSNAME)
 000054                00054 00054 15835                       END
                                   15844              *
                                   15845              *
 001ECA 50E0 D000/9008_      00000 15846              CALLMSG  PROC  CMWA
 USING  *,R7
 USING  CMWA-(4+36),R8
 001EE4 5000 8028            00000 15896                       ST    R0,CM#XSET
 001EE8 D20F 802C 1000 00004 00000 15897                       MVC   CMPNAME,@R1
                                   15898                       ¿þþþþþþþþþþþþþþþþþþþþþþþþþþþþþþþþþþþÜ
                                   15899                       Ÿ  Only debug non-publoaded execs.  Ÿ
                                   15900                       ¾þþþþþþþþþþþþþþþþþþþþþþþþþþþþþþþþþþþ»
 001EEE D503 8028 716C_00000 02050 15901                       IF    ('CLC CM#XSET,=A(CV#FEXEC)',LT),BEGIN
                                   15914  1                      COMMENT                   INIT WORK AREA
                                   15915  1
                                   15916  1                      COMMENT                   GIVE MESSAGE
 001EF8 4110 71B4/4100_      02098 15917  1                      TSEG  '- Entering '
 001F0A 4110 802C/4100_      00004 15935  1                      TSEG  CMPNAME,L'CMPNAME,TB
                                   15965  1
                                   15966  1                      COMMENT                   IF XPROC, GIVE EXEC NAME
 001F1C D507 70F4 802C_01FD8 00004 15967  1                      IF    (CMPNAME,EQ,'XPROC   '),BEGIN
 001F26 4110 71BF/4100_      020A3 15984  2                        TSEG  'in '
 001F38 5800 8028            00000 16002  2                        L     R0,CM#XSET
 001F3C 4110 803C            00014 16003  2                        LA    R1,CMXNAME
 001F40 58E0 7160/0DEE       02044 16004  2                        VCALL GETXNAME
 001F46 58E0 7164/0DEE       02048 16008  2                        VCALL SEGXDSN
 001F4C                            16012  1                      END
                                   16016  1
                                   16017  1                      COMMENT                   OUTPUT MSG
 001F4C 1B00/41F0 B050_            16018  1                      TCR
 001F58                            16043                       END
                                   16047
 001F58 1BFF                       16048                       CLEAR R15
 001F5A 18D8/9808 D004_            16052                       PEND
 DROP   CMWA-(4+36),R8
 DROP   *,R7
1DBUG     (DBUG2163) (12:41) (15MAR04) Common Routines for DEBUG Commands.                                                  Page   58
0Current Usings:  (CP,R11) (CV,R12)
0Loc    Object Code    Addr1 Addr2  Stmt Lv Lineno    Source Statement           (Hibal 5, Asmedit 3.3)  HLASM R4.0  2004/03/15 12.41
+___    ______ ____    _____ _____  ____ __ ______    ______ _________
0                                  16078              ¿þþþþþþþþþþþþþþþþþþþþþþþþþþþþþþþþþþþþþþþþþþþþþþþþþþþþþþþþþþþþþþþþþþþþþÜ
                                   16079              Ÿ                                                                     Ÿ
                                   16080              Ÿ                                                                     Ÿ
                                   16081              Ÿ  RETMSG - GIVE PROC RETURN MESSAGE                                  Ÿ
                                   16082              Ÿ                                                                     Ÿ
                                   16083              Ÿ  ON ENTRY:                                                          Ÿ
                                   16084              Ÿ       R0 - EXEC SET NUMBER                                          Ÿ
                                   16085              Ÿ      @R1 - EXEC PROC NAME (16 CHAR, LEFT JUSTIFIED)                 Ÿ
                                   16086              Ÿ                                                                     Ÿ
                                   16087              Ÿ  NOTE: WE IGNORE ATTNS, WE MUST COMPLETE THE RETURN                 Ÿ
                                   16088              Ÿ                                                                     Ÿ
                                   16089              Ÿ                                                                     Ÿ
                                   16090              Ÿ                                                                     Ÿ
                                                      ¾þþþþþþþþþþþþþþþþþþþþþþþþþþþþþþþþþþþþþþþþþþþþþþþþþþþþþþþþþþþþþþþþþþþþþ»
0001F68 50E0 D000/9008_      00000 16091              RETMSG   PROC  ,
 USING  *,R7
                                   16130                       ¿þþþþþþþþþþþþþþþþþþþþþþþþþþþþþþþþþþþÜ
                                   16131                       Ÿ  Only debug non-publoaded execs.  Ÿ
                                   16132                       ¾þþþþþþþþþþþþþþþþþþþþþþþþþþþþþþþþþþþ»
 001F82 5900 70CE/47B0_      02050 16133                       IF    (R0,LT,=A(CV#FEXEC)),BEGIN
                                   16149  1                      COMMENT                   @R2 - PROC NAME
 001F8A 1821                       16150  1                      LR    R2,R1
                                   16151  1
                                   16152  1                      COMMENT                   GIVE MESSAGE
 001F8C 4110 7124/4100_      020A6 16153  1                      TSEG  '- Returning from '
 001F9E 1812/4100 0010_            16171  1                      TSEG  @R2,16,TB
                                   16201  1
                                   16202  1                      COMMENT                   OUTPUT MSG
 001FAE 1B00/41F0 B050_            16203  1                      TCR
 001FBA                            16228                       END
                                   16232
 001FBA 1BFF                       16233                       CLEAR R15
 001FBC 18D8/9808 D004_            16237                       PEND  ,
 DROP   *,R7
1DBUG     (DBUG2163) (12:41) (15MAR04) Common Routines for DEBUG Commands.                                                  Page   59
0Current Usings:  (CP,R11) (CV,R12)
0Loc    Object Code    Addr1 Addr2  Stmt Lv Lineno    Source Statement           (Hibal 5, Asmedit 3.3)  HLASM R4.0  2004/03/15 12.41
+___    ______ ____    _____ _____  ____ __ ______    ______ _________
0                                  16258                       QLTORG
1DBUG     (DBUG2163) (12:41) (15MAR04) MONITOR STATISTICS GATHERING ROUTINES                                                Page   60
0Current Usings:  (CP,R11) (CV,R12)
0Loc    Object Code    Addr1 Addr2  Stmt Lv Lineno    Source Statement           (Hibal 5, Asmedit 3.3)  HLASM R4.0  2004/03/15 12.41
+___    ______ ____    _____ _____  ____ __ ______    ______ _________
0                                  16313              ¿þþþþþþþþþþþþþþþþþþþþþþþþþþþþþþþþþþþþþþþþþþþþþþþþþþþþþþþþþþþþþþþþþþþþþÜ
                                   16314              Ÿ                                                                     Ÿ
                                   16315              Ÿ                                                                     Ÿ
                                   16316              Ÿ  MONCMD - MONITOR COMMAND EXECUTION                                 Ÿ
                                   16317              Ÿ                                                                     Ÿ
                                   16318              Ÿ  WE COME HERE TO MONITOR EACH COMMAND EXECUTION.                    Ÿ
                                   16319              Ÿ  WE MONITOR ONLY EXEC COMMAND EXECUTION.                            Ÿ
                                   16320              Ÿ  THIS ROUTINE MUST BE SHORT AND FAST.                               Ÿ
                                   16321              Ÿ                                                                     Ÿ
                                   16322              Ÿ  CAUTION: CPFMON MUST BE SET, AND CPMONPTR MUST BE NON ZERO!        Ÿ
                                   16323              Ÿ                                                                     Ÿ
                                   16324              Ÿ                                                                     Ÿ
                                                      ¾þþþþþþþþþþþþþþþþþþþþþþþþþþþþþþþþþþþþþþþþþþþþþþþþþþþþþþþþþþþþþþþþþþþþþ»
00020B8 50E0 D000/9008_      00000 16325              MONCMD   XPROC ,
 USING  *,R7
 USING  MMB,R6                     16365                       USING MMB,R6
 USING  MONENTRY,R1                16374                       USING MONENTRY,R1
 0020D2 5860 B854            00854 16383                       L     R6,CPMONPTR
 0020D6 5850 B858            00858 16384                       L     R5,CPMONCPU         R5 - CPU TIME AT START OF CMD
                                   16385
                                   16386                       COMMENT                   GET CURRENT CPU TIME IN TU'S
 0020DA 58E0 70C6/0DEE       02198 16387                       VCALL GETCPU
 0020E0 1830                       16391                       LR    R3,R0
 0020E2 58F0 C1C8            001C8 16392                       L     R15,CVCURJCB
 0020E6 5E30 F07C            0007C 16393                       WITH  (JCB,R15),'AL R3,JCBWCPU'  Total user CPU time
 USING  JCB,R15
 DROP   JCB,R15
 0020EA 5030 B858            00858 16417                       ST    R3,CPMONCPU
                                   16418
                                   16419                       COMMENT                   IF WE HAD EXEC CMD,
 0020EE D503 70C2 601C_02194 0001C 16420                       IF    (MMBXSET,NE,0),BEGIN   SAVE MONITOR ENTRY FOR CMD
                                   16438  1
                                   16439  1                      COMMENT                   SAVE MON INFO,
 0020F8 5810 6014            00014 16440  1                      L     R1,MMBPTR           R1 - MONITOR ENTRY
 0020FC 5820 6018            00018 16441  1                      L     R2,MMBXLINE
 002100 5020 1000            00000 16442  1                      ST    R2,MONXLINE
 002104 5820 601C            0001C 16443  1                      L     R2,MMBXSET
 002108 5020 1004            00004 16444  1                      ST    R2,MONXSET
 00210C 5820 B858            00858 16445  1                      L     R2,CPMONCPU         CURRENT-START TIME = TIME USED
 002110 1B25                       16446  1                      SR    R2,R5
 002112 5020 1008            00008 16447  1                      ST    R2,MONCPU
                                   16448  1
                                   16449  1                      COMMENT                   INITIALIZE FOR NEXT COMMAND
 002116 1B22                       16450  1                      CLEAR R2
 002118 5020 6018            00018 16454  1                      ST    R2,MMBXLINE
 00211C 5020 601C            0001C 16455  1                      ST    R2,MMBXSET
                                   16456  1                      COMMENT                   TRY QUICK BUMP OF MON ENTRY PTR
 002120 4120 100C            0000C 16457  1                      LA    R2,MONENTRY+L'MONENTRY
 002124 5920 6010/47B0_      00010 16458  1                      IF    (R2,LT,MMBEND),BEGIN    IF QUICK OK
 00212C 5020 6014            00014 16475  2                        ST    R2,MMBPTR
 002130                            16476  1                      END
 002130 7062/47F0 707C 02130 0212A 16480  1                      ELSE  BEGIN               ELSE
 002134 58E0 70CA/0DEE       0219C 16491  2                        ACALL NEXTPTR             IF POINTER INCREMENT IS LONG
1DBUG     (DBUG2163) (12:41) (15MAR04) MONITOR STATISTICS GATHERING ROUTINES                                                Page   61
0Current Usings:  (MONENTRY,R1) (MMB,R6) (*,R7) (CP,R11) (CV,R12)
0Loc    Object Code    Addr1 Addr2  Stmt Lv Lineno    Source Statement           (Hibal 5, Asmedit 3.3)  HLASM R4.0  2004/03/15 12.41
+___    ______ ____    _____ _____  ____ __ ______    ______ _________
000213A 58E0 70C6/0DEE       02198 16495  2                        VCALL GETCPU              RESET CPU TIME FOR NEXT CMD
 002140 1830                       16499  2                        LR    R3,R0
 002142 58F0 C1C8            001C8 16500  2                        L     R15,CVCURJCB
 002146 5E30 F07C            0007C 16501  2                        WITH  (JCB,R15),'AL R3,JCBWCPU'  Total user CPU time
 USING  JCB,R15
 DROP   JCB,R15
 00214A 5030 B858            00858 16525  2                        ST    R3,CPMONCPU
 00214E                            16526  1                      END
 00214E                            16530                       END , OF GOT EXEC CMD
                                   16534
 00214E 18D8/9808 D004_            16535                       PEND  ,
 DROP   *,R7
1DBUG     (DBUG2163) (12:41) (15MAR04) MONITOR STATISTICS GATHERING ROUTINES                                                Page   62
0Current Usings:  (MONENTRY,R1) (MMB,R6) (CP,R11) (CV,R12)
0Loc    Object Code    Addr1 Addr2  Stmt Lv Lineno    Source Statement           (Hibal 5, Asmedit 3.3)  HLASM R4.0  2004/03/15 12.41
+___    ______ ____    _____ _____  ____ __ ______    ______ _________
0                                  16556              ¿þþþþþþþþþþþþþþþþþþþþþþþþþþþþþþþþþþþþþþþþþþþþþþþþþþþþþþþþþþþþþþþþþþþþþÜ
                                   16557              Ÿ                                                                     Ÿ
                                   16558              Ÿ                                                                     Ÿ
                                   16559              Ÿ  SETXLINE - SET EXEC LINE NUMBER FOR MONITOR                        Ÿ
                                   16560              Ÿ                                                                     Ÿ
                                   16561              Ÿ  ON ENTRY:                                                          Ÿ
                                   16562              Ÿ       CPEXLINE - CURRENT EXEC LINE                                  Ÿ
                                   16563              Ÿ       CP#XSET - CURRENT EXEC SET NUMBER                             Ÿ
                                   16564              Ÿ                                                                     Ÿ
                                   16565              Ÿ  WE COME HERE TO SET THE EXEC COMMAND LINE AND SET NUMBER.          Ÿ
                                   16566              Ÿ  THIS ROUTINE MUST BE SHORT AND FAST.                               Ÿ
                                   16567              Ÿ                                                                     Ÿ
                                   16568              Ÿ  CAUTION: CPFMON MUST BE SET, AND CPMONPTR MUST BE NON-ZERO!        Ÿ
                                   16569              Ÿ                                                                     Ÿ
                                   16570              Ÿ                                                                     Ÿ
                                                      ¾þþþþþþþþþþþþþþþþþþþþþþþþþþþþþþþþþþþþþþþþþþþþþþþþþþþþþþþþþþþþþþþþþþþþþ»
000215C 50E0 D000/9008_      00000 16571              SETXLINE XPROC ,
 USING  *,R7
                                   16611                       USING MMB,R6
 002176 5860 B854            00854 16613                       L     R6,CPMONPTR
                                   16614
 00217A D203 6018 B75C 00018 0075C 16615                       MVC   MMBXLINE,CPEXLINE
 002180 D203 601C B778 0001C 00778 16616                       MVC   MMBXSET,CP#XSET
                                   16617
 002186 18D8/9808 D004_            16618                       PEND  ,              SHORT, SWEET
 DROP   *,R7
1DBUG     (DBUG2163) (12:41) (15MAR04) MONITOR STATISTICS GATHERING ROUTINES                                                Page   63
0Current Usings:  (MONENTRY,R1) (MMB,R6) (CP,R11) (CV,R12)
0Loc    Object Code    Addr1 Addr2  Stmt Lv Lineno    Source Statement           (Hibal 5, Asmedit 3.3)  HLASM R4.0  2004/03/15 12.41
+___    ______ ____    _____ _____  ____ __ ______    ______ _________
0                                  16639                       QLTORG
1DBUG     (DBUG2163) (12:41) (15MAR04) MONITOR COMMAND/ROUTINES                                                             Page   64
0Current Usings:  (MONENTRY,R1) (MMB,R6) (CP,R11) (CV,R12)
0Loc    Object Code    Addr1 Addr2  Stmt Lv Lineno    Source Statement           (Hibal 5, Asmedit 3.3)  HLASM R4.0  2004/03/15 12.41
+___    ______ ____    _____ _____  ____ __ ______    ______ _________
0                                  16655              ¿þþþþþþþþþþþþþþþþþþþþþþþþþþþþþþþþþþþþþþþþþþþþþþþþþþþþþþþþþþþþþþþþþþþþþÜ
                                   16656              Ÿ                                                                     Ÿ
                                   16657              Ÿ                                                                     Ÿ
                                   16658              Ÿ  MONITOR - WYLBUR'S MONITOR COMMAND                                 Ÿ
                                   16659              Ÿ                                                                     Ÿ
                                   16660              Ÿ  THIS COMMAND IS USED TO MONITOR EXEC FILES.                        Ÿ
                                   16661              Ÿ                                                                     Ÿ
                                   16662              Ÿ                                                                     Ÿ
                                   16663              Ÿ                                                                     Ÿ
                                                      ¾þþþþþþþþþþþþþþþþþþþþþþþþþþþþþþþþþþþþþþþþþþþþþþþþþþþþþþþþþþþþþþþþþþþþþ»
00021A0 50E0 D000/9008_      00000 16664              XMONITOR XPROC ,
 USING  *,R7
                                   16704
                                   16705                       COMMENT                   SCAN FOR OPTIONS
 0021BA 5810 B08C/1B00_      0008C 16706                       SCAN  MONPRT
 00220C 58E0 7C56/0DEE       02E10 16738                       SCANCHK
 002212 1BFF                       16743                       CLEAR R15
                                   16747
 002214 47F0 C7DE            007DE 16748                       B     CVNEXT              ALL DONE
 002218 18D8/9808 D004_            16749                       PEND  ,
 DROP   *,R7
-
0                                  16770                       ¿þþþþþþþþþþþþþþþþþþþþþþþþþþþþþþþþþÜ
                                   16771                       Ÿ  MONITOR SCAN OPTIONS/ROUTINES  Ÿ
                                   16772                       ¾þþþþþþþþþþþþþþþþþþþþþþþþþþþþþþþþþ»
 002228 E2E3C1D9E3404040_          16773              MONPRT   SCKW  START,MONSTART,A
 002250 E2E3D6D740404040_          16788                       SCKW  STOP,MONSTOP,A
 002278 C3D3C5C1D9404040_          16803                       SCKW  CLEAR,MONCLEAR,A
 0022A0 C3D3D94040404040_          16818                       SCKW  CLR,MONCLEAR,A
 0022C8 D9C5E2C5E3404040_          16833                       SCKW  RESET,MONRESET,A
 0022F0 4040404040404040_          16848                       SCKW  ,V(SCNINVAL)
-                                  16864              *
                                   16865              *
 002318 C3D6E4D5E3404040_          16866              MSTRTPRT SCKW  COUNT,MONCOUNT,(P,I,A)
 002340 4040404040404040_          16881                       SCKW  ,V(SCNINVAL)
 002368                            16896                       DS    0H
-
0                                  16898              *
                                   16899              *  NULL OPTIONS - INVALID
                                   16900              *
 002368 50E0 D000/9008_      00000 16901              MCMDNULL PROC  ,
 USING  *,R7
 002382 4110 7A76/4100_      02DF8 16940                       ERROR 'Missing options.'
 00238E 18D8/9808 D004_            16947                       PEND  ,
 DROP   *,R7
1DBUG     (DBUG2163) (12:41) (15MAR04) MONITOR COMMAND/ROUTINES                                                             Page   65
0Current Usings:  (MONENTRY,R1) (MMB,R6) (CP,R11) (CV,R12)
0Loc    Object Code    Addr1 Addr2  Stmt Lv Lineno    Source Statement           (Hibal 5, Asmedit 3.3)  HLASM R4.0  2004/03/15 12.41
+___    ______ ____    _____ _____  ____ __ ______    ______ _________
0                                  16967                       ¿þþþþþþþþþþþþþþþþþÜ
                                   16968                       Ÿ  MONITOR START  Ÿ
                                   16969                       ¾þþþþþþþþþþþþþþþþþ»
 00239C 50E0 D000/9008_      00000 16970              MONSTART PROC  ,
 USING  *,R7
 0023B6 1B44                       17009                       CLEAR R4
 0023B8 5810 B08C/1B00_      0008C 17013                       SCAN  MSTRTPRT
 00240A 1804                       17045                       LR    R0,R4               MONITOR ENTRY COUNT, IF ANY
 00240C 58E0 7A62/0DEE       02E18 17046                       ACALL MSTART              START MONITOR
 002412 41F0 0004            00004 17050                       LA    R15,4
 002416 18D8/9808 D004_            17051                       PEND
 DROP   *,R7
                                   17071                       ¿þþþþþþþþþþþþþþþþþþþþþþþþÜ
                                   17072                       Ÿ  MONITOR START COUNT=  Ÿ
                                   17073                       ¾þþþþþþþþþþþþþþþþþþþþþþþþ»
 002424 50E0 D000/9008_      00000 17074              MONCOUNT PROC  ,
 USING  *,R7
 00243E D703 B85C B85C 0085C 0085C 17113                       CLEAR CPMONMAX            CLEAR FORMER MAX MEM
 002444 1840                       17120                       LR    R4,R0
 002446 5048 0014            00014 17121                       PRETURN (R4)
 00244A 1BFF                       17123                       CLEAR R15
 00244C 18D8/9808 D004_            17127                       PEND  ,
 DROP   *,R7
                                   17147                       ¿þþþþþþþþþþþþþþþþÜ
                                   17148                       Ÿ  MONITOR STOP  Ÿ
                                   17149                       ¾þþþþþþþþþþþþþþþþ»
 00245A 50E0 D000/9008_      00000 17150              MONSTOP  PROC  ,
 USING  *,R7
 002474 58E0 79A8/0DEE       02E1C 17189                       VCALL NOOPTS
 00247A 58E0 79AC/0DEE       02E20 17193                       ACALL MSTOP
 002480 41F0 0004            00004 17197                       LA    R15,4
 002484 18D8/9808 D004_            17198                       PEND
 DROP   *,R7
                                   17218                       ¿þþþþþþþþþþþþþþþþþÜ
                                   17219                       Ÿ  MONITOR CLEAR  Ÿ
                                   17220                       ¾þþþþþþþþþþþþþþþþþ»
 002492 50E0 D000/9008_      00000 17221              MONCLEAR PROC  ,
 USING  *,R7
 0024AC 58E0 7970/0DEE       02E1C 17260                       VCALL NOOPTS
 0024B2 58E0 7978/0DEE       02E24 17264                       ACALL MCLEAR
 0024B8 41F0 0004            00004 17268                       LA    R15,4
 0024BC 18D8/9808 D004_            17269                       PEND  ,
 DROP   *,R7
                                   17289                       ¿þþþþþþþþþþþþþþþþþÜ
                                   17290                       Ÿ  MONITOR RESET  Ÿ
                                   17291                       ¾þþþþþþþþþþþþþþþþþ»
 0024CA 50E0 D000/9008_      00000 17292              MONRESET PROC  ,
 USING  *,R7
 0024E4 58E0 7938/0DEE       02E1C 17331                       VCALL NOOPTS
 0024EA 58E0 7934/0DEE       02E18 17335                       ACALL MSTART
 0024F0 41F0 0004            00004 17339                       LA    R15,4
 0024F4 18D8/9808 D004_            17340                       PEND  ,
 DROP   *,R7
1DBUG     (DBUG2163) (12:41) (15MAR04) MONITOR COMMAND/ROUTINES                                                             Page   66
0Current Usings:  (MONENTRY,R1) (MMB,R6) (CP,R11) (CV,R12)
0Loc    Object Code    Addr1 Addr2  Stmt Lv Lineno    Source Statement           (Hibal 5, Asmedit 3.3)  HLASM R4.0  2004/03/15 12.41
+___    ______ ____    _____ _____  ____ __ ______    ______ _________
0                                  17361              ¿þþþþþþþþþþþþþþþþþþþþþþþþþþþþþþþþþþþþþþþþþþþþþþþþþþþþþþþþþþþþþþþþþþþþþÜ
                                   17362              Ÿ                                                                     Ÿ
                                   17363              Ÿ                                                                     Ÿ
                                   17364              Ÿ  MSTART  - START MONITOR                                            Ÿ
                                   17365              Ÿ                                                                     Ÿ
                                   17366              Ÿ  ON ENTRY:                                                          Ÿ
                                   17367              Ÿ       R0 - MAX MONITOR ENTRY COUNT                                  Ÿ
                                   17368              Ÿ            (IF R0=0, WE USE DEFAULT ENTRY LIMITS)                   Ÿ
                                   17369              Ÿ                                                                     Ÿ
                                   17370              Ÿ                                                                     Ÿ
                                                      ¾þþþþþþþþþþþþþþþþþþþþþþþþþþþþþþþþþþþþþþþþþþþþþþþþþþþþþþþþþþþþþþþþþþþþþ»
0002502 50E0 D000/9008_      00000 17371              MSTART   PROC  ,
 USING  *,R7
                                   17410
                                   17411                       COMMENT                   ARBITRATE MON MAX MEMORY
 00251C 58E0 790C/0DEE       02E28 17412                       ACALL GETMMAX
 002522 5000 B85C            0085C 17416                       ST    R0,CPMONMAX
                                   17417
                                   17418                       COMMENT                   START FRESH, FREE UP MONITOR
 002526 58E0 7910/0DEE       02E2C 17419                       ACALL CLRMMEM               MEMORY, MONITOR INFO
 00252C 58E0 7914/0DEE       02E30 17423                       ACALL CLRMINFO
                                   17427
                                   17428                       COMMENT                   GET 1ST MEMORY BLOCK
 002532 58E0 7918/0DEE       02E34 17429                       ACALL INITMMEM
                                   17433
                                   17434                       COMMENT                   TURN MONITOR ON AND TAKE OFF !
 002538 D703 B858 B858 00858 00858 17435                       CLEAR CPMONCPU            START TIMER
 00253E 9680 B84F      0084F       17442                       SET   CPFMON              START MONITOR
                                   17448
 002542 18D8/9808 D004_            17449                       PEND  ,
 DROP   *,R7
1DBUG     (DBUG2163) (12:41) (15MAR04) MONITOR COMMAND/ROUTINES                                                             Page   67
0Current Usings:  (MONENTRY,R1) (MMB,R6) (CP,R11) (CV,R12)
0Loc    Object Code    Addr1 Addr2  Stmt Lv Lineno    Source Statement           (Hibal 5, Asmedit 3.3)  HLASM R4.0  2004/03/15 12.41
+___    ______ ____    _____ _____  ____ __ ______    ______ _________
0                                  17470              ¿þþþþþþþþþþþþþþþþþþþþþþþþþþþþþþþþþþþþþþþþþþþþþþþþþþþþþþþþþþþþþþþþþþþþþÜ
                                   17471              Ÿ                                                                     Ÿ
                                   17472              Ÿ                                                                     Ÿ
                                   17473              Ÿ  MSTOP - STOP MONITOR                                               Ÿ
                                   17474              Ÿ                                                                     Ÿ
                                   17475              Ÿ  NOTE: WE STOP COLLECTING MONITOR ENTRIES, ALSO WE MOVE             Ÿ
                                   17476              Ÿ        MONITOR INFO OUT OF MEMORY TO PAGED DATA SET, JUST           Ÿ
                                   17477              Ÿ        TO KEEP MEMORY USAGE AT A MINIMUM.                           Ÿ
                                   17478              Ÿ                                                                     Ÿ
                                   17479              Ÿ                                                                     Ÿ
                                                      ¾þþþþþþþþþþþþþþþþþþþþþþþþþþþþþþþþþþþþþþþþþþþþþþþþþþþþþþþþþþþþþþþþþþþþþ»
0002550 50E0 D000/9008_      00000 17480              MSTOP    PROC  ,
 USING  *,R7
                                   17519
                                   17520                       COMMENT                   CHECK IF STOPPED, ALREADY
 00256A D503 787E B854_02DE8 00854 17521                       IF    (CPMONPTR,NE,0),BEGIN     IF NOT, CONTINUE
                                   17539  1
                                   17540  1                      COMMENT                   CLEAR MONITOR INFO
 002574 58E0 78C6/0DEE       02E30 17541  1                      ACALL CLRMINFO
                                   17545  1
                                   17546  1                      COMMENT                   SET UP MONITOR INFO
 00257A 58E0 78CE/0DEE       02E38 17547  1                      ACALL GETMINFO
                                   17551  1
                                   17552  1                      COMMENT                   CLEAR MONITOR MEMORY
 002580 58E0 78C2/0DEE       02E2C 17553  1                      ACALL CLRMMEM
 002586                            17557                       END
                                   17561
                                   17562                       COMMENT                   TURN OFF MONITOR
 002586 947F B84F      0084F       17563                       CLEAR CPFMON
 00258A D703 B854 B854 00854 00854 17570                       CLEAR CPMONPTR
 002590 D703 B858 B858 00858 00858 17577                       CLEAR CPMONCPU
                                   17584
 002596 1BFF                       17585                       CLEAR R15
 002598 18D8/9808 D004_            17589                       PEND  ,
 DROP   *,R7
1DBUG     (DBUG2163) (12:41) (15MAR04) MONITOR COMMAND/ROUTINES                                                             Page   68
0Current Usings:  (MONENTRY,R1) (MMB,R6) (CP,R11) (CV,R12)
0Loc    Object Code    Addr1 Addr2  Stmt Lv Lineno    Source Statement           (Hibal 5, Asmedit 3.3)  HLASM R4.0  2004/03/15 12.41
+___    ______ ____    _____ _____  ____ __ ______    ______ _________
0                                  17610              ¿þþþþþþþþþþþþþþþþþþþþþþþþþþþþþþþþþþþþþþþþþþþþþþþþþþþþþþþþþþþþþþþþþþþþþÜ
                                   17611              Ÿ                                                                     Ÿ
                                   17612              Ÿ                                                                     Ÿ
                                   17613              Ÿ  MCLEAR - TURN OFF MONITOR, GET RID OF ALL MONITOR STUFF            Ÿ
                                   17614              Ÿ                                                                     Ÿ
                                   17615              Ÿ                                                                     Ÿ
                                   17616              Ÿ                                                                     Ÿ
                                                      ¾þþþþþþþþþþþþþþþþþþþþþþþþþþþþþþþþþþþþþþþþþþþþþþþþþþþþþþþþþþþþþþþþþþþþþ»
00025A6 50E0 D000/9008_      00000 17617              MCLEAR   XPROC ,
 USING  *,R7
                                   17657
                                   17658                       COMMENT                   CLEAR MONITOR INFO, MEMORY
 0025C0 58E0 786C/0DEE       02E2C 17659                       ACALL CLRMMEM
 0025C6 58E0 7870/0DEE       02E30 17663                       ACALL CLRMINFO
                                   17667
                                   17668                       COMMENT                   TURN OFF MONITOR
 0025CC 947F B84F      0084F       17669                       CLEAR CPFMON
 0025D0 D703 B854 B854 00854 00854 17676                       CLEAR CPMONPTR
 0025D6 D703 B858 B858 00858 00858 17683                       CLEAR CPMONCPU
 0025DC D703 B85C B85C 0085C 0085C 17690                       CLEAR CPMONMAX
                                   17697
 0025E2 1BFF                       17698                       CLEAR R15
 0025E4 18D8/9808 D004_            17702                       PEND  ,
 DROP   *,R7
1DBUG     (DBUG2163) (12:41) (15MAR04) MONITOR COMMAND/ROUTINES                                                             Page   69
0Current Usings:  (MONENTRY,R1) (MMB,R6) (CP,R11) (CV,R12)
0Loc    Object Code    Addr1 Addr2  Stmt Lv Lineno    Source Statement           (Hibal 5, Asmedit 3.3)  HLASM R4.0  2004/03/15 12.41
+___    ______ ____    _____ _____  ____ __ ______    ______ _________
0                                  17723              ¿þþþþþþþþþþþþþþþþþþþþþþþþþþþþþþþþþþþþþþþþþþþþþþþþþþþþþþþþþþþþþþþþþþþþþÜ
                                   17724              Ÿ                                                                     Ÿ
                                   17725              Ÿ                                                                     Ÿ
                                   17726              Ÿ  INITMMEM - GET FIRST MONITOR MEMORY BLOCK, AND                     Ÿ
                                   17727              Ÿ             INITIALIZE RELATED THINGS                               Ÿ
                                   17728              Ÿ                                                                     Ÿ
                                   17729              Ÿ                                                                     Ÿ
                                   17730              Ÿ                                                                     Ÿ
                                                      ¾þþþþþþþþþþþþþþþþþþþþþþþþþþþþþþþþþþþþþþþþþþþþþþþþþþþþþþþþþþþþþþþþþþþþþ»
00025F2 50E0 D000/9008_      00000 17731              INITMMEM PROC  ,
 USING  *,R7
                                   17770                       USING  MMB,R6
                                   17772
                                   17773                       COMMENT                   BOMB IF WE ALREADY HAVE MON MEM
 00260C D503 77DC B854_02DE8 00854 17774                       IF    (CPMONPTR,NE,0),BEGIN
 002616 0000                       17792  1                      BOMB
 002618                            17794                       END
                                   17798
                                   17799                       COMMENT                   GET MEMORY BLOCK
 002618 5800 7830            02E3C 17800                       L     R0,=AL4(MMEMBSZ)
 00261C 58E0 7834/0DEE       02E40 17801                       VCALL GETCORE
 002622 5010 B854            00854 17805                       ST    R1,CPMONPTR
                                   17806
                                   17807                       COMMENT                   INITIALIZE MEMORY BLOCK
 002626 1861                       17808                       LR    R6,R1
 002628 1821                       17809                       LR    R2,R1
 00262A 1830                       17810                       LR    R3,R0
 00262C 1B55                       17811                       SR    R5,R5
 00262E 0E24                       17812                       MVCL  R2,R4               CLEAR IT
 002630 5000 6000            00000 17813                       ST    R0,MMBLEN           INIT HEADER IN ORDER OF APPEARANCE
 002634 5060 6004            00004 17814                       ST    R6,MMBHEAD
 002638 5060 6008            00008 17815                       ST    R6,MMBLINK
 00263C 5000 600C            0000C 17816                       ST    R0,MMBTMEM
 002640 4120 6000            00000 17817                       LA    R2,MMB
 002644 5A20 6000            00000 17818                       A     R2,MMBLEN
 002648 5B20 7838            02E44 17819                       S     R2,=AL4(L'MONENTRY)
 00264C 5020 6010            00010 17820                       ST    R2,MMBEND
 002650 4120 6020            00020 17821                       LA    R2,MMBDATA
 002654 5020 6014            00014 17822                       ST    R2,MMBPTR
                                   17823
 002658 D503 783C B85C_02E48 0085C 17824                       IF    (CPMONMAX,GT,=A(MMEMBIG)),BEGIN
 002662 41F0 0001/5EF0_      00001 17841  1                      INCR  R15,CVXMONCT
 00266E 9640 B47F      0047F       17847  1                      SET   CPFBIGXMON
 002672                            17853                       END
                                   17857
 002672 1BFF                       17858                       CLEAR R15
 002674 18D8/9808 D004_            17862                       PEND  ,
 DROP   *,R7
 DROP   MMB,R6                     17882                       DROP  R6
1DBUG     (DBUG2163) (12:41) (15MAR04) MONITOR COMMAND/ROUTINES                                                             Page   70
0Current Usings:  (MONENTRY,R1) (CP,R11) (CV,R12)
0Loc    Object Code    Addr1 Addr2  Stmt Lv Lineno    Source Statement           (Hibal 5, Asmedit 3.3)  HLASM R4.0  2004/03/15 12.41
+___    ______ ____    _____ _____  ____ __ ______    ______ _________
0                                  17890              ¿þþþþþþþþþþþþþþþþþþþþþþþþþþþþþþþþþþþþþþþþþþþþþþþþþþþþþþþþþþþþþþþþþþþþþÜ
                                   17891              Ÿ                                                                     Ÿ
                                   17892              Ÿ                                                                     Ÿ
                                   17893              Ÿ  ADDMMEM - ADD MONITOR MEMORY BLOCK, UPDATE CPMONPTR                Ÿ
                                   17894              Ÿ                                                                     Ÿ
                                   17895              Ÿ  ON EXIT:                                                           Ÿ
                                   17896              Ÿ       CPMONPTR - UPDATED TO NEW (NEXT) BLOCK                        Ÿ
                                   17897              Ÿ       MMBPTR - POINTS TO START OF NEW BLOCK                         Ÿ
                                   17898              Ÿ       R15 - CC=Z, NEW MEMORY BLOCK OBTAINED                         Ÿ
                                   17899              Ÿ             CC=NZ, MEMORY LIMIT EXCEEDED, CIRCULAR LINK ADDED       Ÿ
                                   17900              Ÿ                                                                     Ÿ
                                   17901              Ÿ                                                                     Ÿ
                                   17902              Ÿ  NOTE: WE ADD MEMORY BLOCKS UNTIL THE MEMORY LIMIT IS EXCEEDED.     Ÿ
                                   17903              Ÿ    AT THAT POINT, WE ADD NO MORE BLOCKS, BUT REUSE THE THE BLOCKS   Ÿ
                                   17904              Ÿ    MAKING A CIRCULAR CHAIN, AND A CIRCULAR LIST.                    Ÿ
                                   17905              Ÿ                                                                     Ÿ
                                                      ¾þþþþþþþþþþþþþþþþþþþþþþþþþþþþþþþþþþþþþþþþþþþþþþþþþþþþþþþþþþþþþþþþþþþþþ»
0002682 50E0 D000/9008_      00000 17906              ADDMMEM  PROC  ,
 USING  *,R7
 USING  MMB,R6                     17945                       USING  MMB,R6
 00269C 5860 B854            00854 17954                       L     R6,CPMONPTR
                                   17955
                                   17956                       COMMENT                   BOMB IF WE HAVE NO BLOCKS
                                   17957                       COMMENT                   BOMB IF WE HAVE TOO MANY BLOCKS
 0026A0 D503 774C B854_02DE8 00854 17958                       IF    (CPMONPTR,EQ,0),BEGIN
 0026AA 0000                       17976  1                      BOMB
 0026AC                            17978                       END
 0026AC D503 600C B85C_0000C 0085C 17982                       IF    (MMBTMEM,GE,CPMONMAX),BEGIN
 0026B6 0000                       18000  1                      BOMB
 0026B8                            18002                       END
                                   18006
                                   18007                       COMMENT                   GET NEW MEMORY BLOCK
 0026B8 5800 77A0            02E3C 18008                       L     R0,=AL4(MMEMBSZ)
 0026BC 58E0 77A4/0DEE       02E40 18009                       VCALL GETCORE
 0026C2 5010 B854            00854 18013                       ST    R1,CPMONPTR
 0026C6 5010 6008            00008 18014                       ST    R1,MMBLINK
                                   18015
                                   18016                       COMMENT                   INITIALIZE MEMORY BLOCK
                                   18017                       COMMENT                   R1,R0 - NEW BLK LOC, LEN
 0026CA 41F0 6000            00000 18018                       LA    R15,MMB             R15 - LAST MONITOR MEM BLOCK
 0026CE 1861                       18019                       LR    R6,R1               R6 - NEW MONITOR MEM BLOCK
 0026D0 1821                       18020                       LR    R2,R1
 0026D2 1830                       18021                       LR    R3,R0
 0026D4 1B55                       18022                       SR    R5,R5
 0026D6 0E24                       18023                       MVCL  R2,R4               CLEAR IT
 0026D8 5000 6000            00000 18024                       ST    R0,MMBLEN           INIT HEADERS IN ORDER OF APPEARANCE
 0026DC 582F 0004            00004 18025                       L     R2,MMBHEAD-MMB(R15)
 0026E0 5020 6004            00004 18026                       ST    R2,MMBHEAD
 0026E4 5020 6008            00008 18027                       ST    R2,MMBLINK
 0026E8 582F 000C            0000C 18028                       L     R2,MMBTMEM-MMB(R15)
 0026EC 5A20 6000            00000 18029                       A     R2,MMBLEN
 0026F0 5020 600C            0000C 18030                       ST    R2,MMBTMEM
 0026F4 4120 6000            00000 18031                       LA    R2,MMB
1DBUG     (DBUG2163) (12:41) (15MAR04) MONITOR COMMAND/ROUTINES                                                             Page   71
0Current Usings:  (MONENTRY,R1) (MMB,R6) (*,R7) (CP,R11) (CV,R12)
0Loc    Object Code    Addr1 Addr2  Stmt Lv Lineno    Source Statement           (Hibal 5, Asmedit 3.3)  HLASM R4.0  2004/03/15 12.41
+___    ______ ____    _____ _____  ____ __ ______    ______ _________
00026F8 5A20 6000            00000 18032                       A     R2,MMBLEN
 0026FC 5B20 77A8            02E44 18033                       S     R2,=AL4(L'MONENTRY)
 002700 5020 6010            00010 18034                       ST    R2,MMBEND
 002704 4120 6020            00020 18035                       LA    R2,MMBDATA
 002708 5020 6014            00014 18036                       ST    R2,MMBPTR
                                   18037
                                   18038                       COMMENT                   UPDATE MEM TOTAL, IN ALL BLOCKS
 00270C 5820 600C            0000C 18039                       L     R2,MMBTMEM
 002710 4140 6000            00000 18040                       LA    R4,MMB
 002714 5860 6008            00008 18041                       L     R6,MMBLINK
 002718 1964/4780 708E             18042                       WHILE (R6,NE,R4),BEGIN
 00271E 5020 600C            0000C 18059  1                      ST    R2,MMBTMEM
 002722 5860 6008            00008 18060  1                      L     R6,MMBLINK
 002726 47F0 707C            02718 18061                       END
                                   18066
 00272A 1BFF                       18067                       CLEAR R15
 00272C 18D8/9808 D004_            18071                       PEND  ,
 DROP   *,R7
 DROP   MMB,R6                     18091                       DROP  R6
1DBUG     (DBUG2163) (12:41) (15MAR04) MONITOR COMMAND/ROUTINES                                                             Page   72
0Current Usings:  (MONENTRY,R1) (CP,R11) (CV,R12)
0Loc    Object Code    Addr1 Addr2  Stmt Lv Lineno    Source Statement           (Hibal 5, Asmedit 3.3)  HLASM R4.0  2004/03/15 12.41
+___    ______ ____    _____ _____  ____ __ ______    ______ _________
0                                  18099              ¿þþþþþþþþþþþþþþþþþþþþþþþþþþþþþþþþþþþþþþþþþþþþþþþþþþþþþþþþþþþþþþþþþþþþþÜ
                                   18100              Ÿ                                                                     Ÿ
                                   18101              Ÿ                                                                     Ÿ
                                   18102              Ÿ  CLRMMEM - RETURN ALL MONITOR GETCORED MEMORY                       Ÿ
                                   18103              Ÿ                                                                     Ÿ
                                   18104              Ÿ                                                                     Ÿ
                                   18105              Ÿ                                                                     Ÿ
                                                      ¾þþþþþþþþþþþþþþþþþþþþþþþþþþþþþþþþþþþþþþþþþþþþþþþþþþþþþþþþþþþþþþþþþþþþþ»
000273A 50E0 D000/9008_      00000 18106              CLRMMEM  PROC  ,
 USING  *,R7
 USING  MMB,R6                     18145                       USING  MMB,R6
                                   18154
                                   18155                       COMMENT                   IF MON MEM BLKS TO FREE, DO IT
 002754 D503 7694 B854_02DE8 00854 18156                       IF    (CPMONPTR,NE,0),BEGIN
                                   18174  1
                                   18175  1                      COMMENT                   POINT TO HEAD OF MON BLK CHAIN
 00275E 5860 B854            00854 18176  1                      L     R6,CPMONPTR
 002762 5860 6004            00004 18177  1                      L     R6,MMBHEAD
                                   18178  1
                                   18179  1                      COMMENT                   LOOP FREEING ALL MONITOR BLOCKS
 002766 4120 6000            00000 18180  1                      LA    R2,MMB
 00276A 4110 6000            00000 18181  1                      LA    R1,MMB
 00276E 5860 6008            00008 18182  1                      L     R6,MMBLINK          CLEAR HEAD BLOCK
 002772 58E0 76F8/0DEE       02E4C 18183  1                      VCALL FREECORE
 002778 4110 6000            00000 18187  1                      LA    R1,MMB
 00277C 1912/4780 7040             18188  1                      WHILE (R1,NE,R2),BEGIN    CLEAR REMAINING BLOCKS
 002782 5860 6008            00008 18205  2                        L     R6,MMBLINK
 002786 58E0 76F8/0DEE       02E4C 18206  2                        VCALL FREECORE
 00278C 4110 6000            00000 18210  2                        LA    R1,MMB
 002790 47F0 7028            0277C 18211  1                      END
                                   18216  1
                                   18217  1                      COMMENT                   MEMORY CLEARED, CLEAR MEM POINTER
 002794 D703 B854 B854 00854 00854 18218  1                      CLEAR CPMONPTR
                                   18225  1                      COMMENT                   IF NEEDED, DECREMENT BIG XMON CT
 00279A 9140 B47F/47E0_0047F       18226  1                      IF    CPFBIGXMON,BEGIN
 0027A2 94BF B47F      0047F       18241  2                        CLEAR CPFBIGXMON
 0027A6 58F0 C2A0            002A0 18248  2                        L     R15,CVXMONCT
 0027AA 12FF/47D0 7062             18249  2                        IF    (R15,POS),BEGIN
 0027B0 06F0                       18263  3                          DECR  R15
 0027B2 50F0 C2A0            002A0 18265  3                          ST    R15,CVXMONCT
 0027B6                            18266  2                        END
 0027B6                            18270  1                      END
 0027B6                            18274                       END , OF BLKS FREED
                                   18278
 0027B6 1BFF                       18279                       CLEAR R15
 0027B8 18D8/9808 D004_            18283                       PEND  ,
 DROP   *,R7
1DBUG     (DBUG2163) (12:41) (15MAR04) MONITOR COMMAND/ROUTINES                                                             Page   73
0Current Usings:  (MONENTRY,R1) (MMB,R6) (CP,R11) (CV,R12)
0Loc    Object Code    Addr1 Addr2  Stmt Lv Lineno    Source Statement           (Hibal 5, Asmedit 3.3)  HLASM R4.0  2004/03/15 12.41
+___    ______ ____    _____ _____  ____ __ ______    ______ _________
0                                  18304              ¿þþþþþþþþþþþþþþþþþþþþþþþþþþþþþþþþþþþþþþþþþþþþþþþþþþþþþþþþþþþþþþþþþþþþþÜ
                                   18305              Ÿ                                                                     Ÿ
                                   18306              Ÿ                                                                     Ÿ
                                   18307              Ÿ  CLRMINFO - CLEAR MONITOR INFO SAVED IN RECORD GROUP                Ÿ
                                   18308              Ÿ                                                                     Ÿ
                                   18309              Ÿ                                                                     Ÿ
                                   18310              Ÿ                                                                     Ÿ
                                                      ¾þþþþþþþþþþþþþþþþþþþþþþþþþþþþþþþþþþþþþþþþþþþþþþþþþþþþþþþþþþþþþþþþþþþþþ»
00027C6 50E0 D000/9008_      00000 18311              CLRMINFO PROC  ,
 USING  *,R7
                                   18350
                                   18351                       COMMENT                   DELETE MONITOR INFO RECORD SETS
 0027E0 41F0 B524            00524 18352                       LA    R15,CPRG16
 0027E4 4100 000B            0000B 18353                       LA    R0,CP#MRAW
 0027E8 58E0 7670/0DEE       02E50 18354                       VCALL XDELSET
 0027EE 41F0 B524            00524 18358                       LA    R15,CPRG16
 0027F2 4100 000C            0000C 18359                       LA    R0,CP#MSUM
 0027F6 58E0 7670/0DEE       02E50 18360                       VCALL XDELSET
 0027FC 41F0 B524            00524 18364                       LA    R15,CPRG16
 002800 4100 000E            0000E 18365                       LA    R0,CP#MNAME
 002804 58E0 7670/0DEE       02E50 18366                       VCALL XDELSET
                                   18370
 00280A 1BFF                       18371                       CLEAR R15
 00280C 18D8/9808 D004_            18375                       PEND  ,
 DROP   *,R7
1DBUG     (DBUG2163) (12:41) (15MAR04) MONITOR COMMAND/ROUTINES                                                             Page   74
0Current Usings:  (MONENTRY,R1) (MMB,R6) (CP,R11) (CV,R12)
0Loc    Object Code    Addr1 Addr2  Stmt Lv Lineno    Source Statement           (Hibal 5, Asmedit 3.3)  HLASM R4.0  2004/03/15 12.41
+___    ______ ____    _____ _____  ____ __ ______    ______ _________
0                                  18396              ¿þþþþþþþþþþþþþþþþþþþþþþþþþþþþþþþþþþþþþþþþþþþþþþþþþþþþþþþþþþþþþþþþþþþþþÜ
                                   18397              Ÿ                                                                     Ÿ
                                   18398              Ÿ                                                                     Ÿ
                                   18399              Ÿ  GETMINFO - CREATE MONITOR INFO IN MONITOR RECORD SET               Ÿ
                                   18400              Ÿ                                                                     Ÿ
                                   18401              Ÿ  ON ENTRY:                                                          Ÿ
                                   18402              Ÿ       CPMONPTR - POINTS TO MEMORY BLOCK FOR NEXT ENTRY              Ÿ
                                   18403              Ÿ       MCBPTR - POINTS TO LOCATION FOR NEXT ENTRY                    Ÿ
                                   18404              Ÿ                                                                     Ÿ
                                   18405              Ÿ  ON EXIT:                                                           Ÿ
                                   18406              Ÿ       MONITOR RECORD SET CREATED                                    Ÿ
                                   18407              Ÿ                                                                     Ÿ
                                   18408              Ÿ                                                                     Ÿ
                                   18409              Ÿ                                                                     Ÿ
                                                      ¾þþþþþþþþþþþþþþþþþþþþþþþþþþþþþþþþþþþþþþþþþþþþþþþþþþþþþþþþþþþþþþþþþþþþþ»
000281A 50E0 D000/9008_      00000 18410              GETMINFO PROC  ,
 USING  *,R7
                                   18449
                                   18450                       COMMENT                   CLEAR ANY CURRENT MONITOR INFO
 002834 58E0 75FC/0DEE       02E30 18451                       ACALL CLRMINFO
                                   18455
                                   18456                       COMMENT                   IF MONITOR MEMORY, WE DO IT TO IT
 00283A D503 75B4 B854_02DE8 00854 18457                       IF    (CPMONPTR,NE,0),BEGIN
 002844 58E0 7620/0DEE       02E54 18475  1                      ACALL CHKOFLOW
 00284A 58E0 7624/0DEE       02E58 18479  1                      ACALL GETRAW
 002850 58E0 7628/0DEE       02E5C 18483  1                      ACALL GETSUM
 002856 58E0 762C/0DEE       02E60 18487  1                      ACALL GETNAMES
 00285C                            18491                       END
                                   18495
 00285C 1BFF                       18496                       CLEAR R15
 00285E 18D8/9808 D004_            18500                       PEND  ,
 DROP   *,R7
1DBUG     (DBUG2163) (12:41) (15MAR04) MONITOR COMMAND/ROUTINES                                                             Page   75
0Current Usings:  (MONENTRY,R1) (MMB,R6) (CP,R11) (CV,R12)
0Loc    Object Code    Addr1 Addr2  Stmt Lv Lineno    Source Statement           (Hibal 5, Asmedit 3.3)  HLASM R4.0  2004/03/15 12.41
+___    ______ ____    _____ _____  ____ __ ______    ______ _________
0                                  18521              ¿þþþþþþþþþþþþþþþþþþþþþþþþþþþþþþþþþþþþþþþþþþþþþþþþþþþþþþþþþþþþþþþþþþþþþÜ
                                   18522              Ÿ                                                                     Ÿ
                                   18523              Ÿ                                                                     Ÿ
                                   18524              Ÿ  CHKOFLOW - CHECK IF MONITOR DATA HAS OVERFLOWED                    Ÿ
                                   18525              Ÿ                                                                     Ÿ
                                   18526              Ÿ  ON ENTRY:                                                          Ÿ
                                   18527              Ÿ       CPMONPTR,MMBPTR - POINTER AT POINT WHEN MONITOR STOPPED       Ÿ
                                   18528              Ÿ                                                                     Ÿ
                                   18529              Ÿ  WE CHECK IF MONITOR POINTER POINTS TO EMPTY ENTRY, IF NOT          Ÿ
                                   18530              Ÿ  THEN WE ARE DESTRUCTIVELY REWRITTING EARIER DATA                   Ÿ
                                   18531              Ÿ                                                                     Ÿ
                                   18532              Ÿ                                                                     Ÿ
                                                      ¾þþþþþþþþþþþþþþþþþþþþþþþþþþþþþþþþþþþþþþþþþþþþþþþþþþþþþþþþþþþþþþþþþþþþþ»
000286C 50E0 D000/9008_      00000 18533              CHKOFLOW PROC  ,
 USING  *,R7
                                   18572                       USING MMB,R6
                                   18574                       USING MONENTRY,R1
                                   18576
 002886 5860 B854            00854 18577                       L     R6,CPMONPTR
 00288A 5810 6014            00014 18578                       L     R1,MMBPTR
 00288E D50B 7562 1000_02DE8 00000 18579                       IF    (MONENTRY,NE,0),BEGIN
 002898 4110 76D8/4100_      02F5E 18597  1                      TSEG  'Note: Monitor buffer full, '
 0028AA 4110 765C/4100_      02EE2 18615  1                      TSEG  'earlier data has been overwritten.',,CR
 0028BC                            18633                       END
                                   18637
 0028BC 1BFF                       18638                       CLEAR R15
 0028BE 18D8/9808 D004_            18642                       PEND  ,
 DROP   *,R7
 DROP   MMB,R6                     18662                       DROP  R6
 DROP   MONENTRY,R1                18669                       DROP  R1
1DBUG     (DBUG2163) (12:41) (15MAR04) MONITOR COMMAND/ROUTINES                                                             Page   76
0Current Usings:  (CP,R11) (CV,R12)
0Loc    Object Code    Addr1 Addr2  Stmt Lv Lineno    Source Statement           (Hibal 5, Asmedit 3.3)  HLASM R4.0  2004/03/15 12.41
+___    ______ ____    _____ _____  ____ __ ______    ______ _________
0                                  18677              ¿þþþþþþþþþþþþþþþþþþþþþþþþþþþþþþþþþþþþþþþþþþþþþþþþþþþþþþþþþþþþþþþþþþþþþÜ
                                   18678              Ÿ                                                                     Ÿ
                                   18679              Ÿ                                                                     Ÿ
                                   18680              Ÿ  GETRAW - GET/ SAVE RAW MONITOR DATA IN MON RECORD SET              Ÿ
                                   18681              Ÿ                                                                     Ÿ
                                   18682              Ÿ  ON ENTRY:                                                          Ÿ
                                   18683              Ÿ       CPMONPTR - POINTS TO MEMORY BLOCK FOR NEXT ENTRY              Ÿ
                                   18684              Ÿ       MMBPTR - POINTS TO LOCATION FOR NEXT ENTRY                    Ÿ
                                   18685              Ÿ                                                                     Ÿ
                                   18686              Ÿ  ON EXIT:                                                           Ÿ
                                   18687              Ÿ       MONITOR RECORD SET CREATED                                    Ÿ
                                   18688              Ÿ       CPMONPTR,MMBPTR - SAME AS ON ENTRY                            Ÿ
                                   18689              Ÿ                                                                     Ÿ
                                   18690              Ÿ                                                                     Ÿ
                                                      ¾þþþþþþþþþþþþþþþþþþþþþþþþþþþþþþþþþþþþþþþþþþþþþþþþþþþþþþþþþþþþþþþþþþþþþ»
0000000                00000 00038 18691              GRWA     RECORD BEGIN
 000000                            18699  1           GRMONPTR   DS    F                   MON MEMORY BLK PTR AT ENTRY
 000004                            18700  1           GRMMBPTR   DS    F                   MON ENTRY PTR AT ENTRY
 000008                            18701  1           GRCURPTR   DS    F                   CURRENT MONITOR ENTRY PTR
 00000C                            18702  1           GRRAW      DS    XL(L'MRR)           RAW MONITOR INFO RECORD
 000028                            18703  1           GRPARMS    DS    4F                  R15-R2 XPUT PARMS
 000038                00038 00038 18704                       END
                                   18713              *
                                   18714              *
 0028CC 50E0 D000/9008_      00000 18715              GETRAW   PROC  GRWA
 USING  *,R7
 USING  GRWA-(4+36),R8
 USING  MRR,R6                     18765                       USING MRR,R6
 USING  MONENTRY,R1                18774                       USING MONENTRY,R1
 0028E6 4160 8034            0000C 18783                       LA    R6,GRRAW
                                   18784
                                   18785                       COMMENT                   INIT WORK AREA
 0028EA 5810 B854            00854 18786                       L     R1,CPMONPTR
 0028EE 5010 8028            00000 18787                       ST    R1,GRMONPTR
 0028F2 5811 0014            00014 18788                       L     R1,MMBPTR-MMB(R1)
 0028F6 5010 802C            00004 18789                       ST    R1,GRMMBPTR
 0028FA 58E0 7586/0DEE       02E6C 18790                       ACALL NEXTNTRY
 002900 5010 8030            00008 18794                       ST    R1,GRCURPTR
 002904 D71B 8034 8034 0000C 0000C 18795                       CLEAR GRRAW
 00290A D703 8050 8050 00028 00028 18802                       CLEAR GRPARMS
                                   18809
                                   18810                       COMMENT                   SET MONITOR RECORD SET
 002910 41F0 B524            00524 18811                       LA    R15,CPRG16
 002914 4100 000B            0000B 18812                       LA    R0,CP#MRAW
 002918 58E0 758A/0DEE       02E70 18813                       VCALL XSETSET
                                   18817
                                   18818                       COMMENT                   REGISTER USAGE:
                                   18819                       COMMENT                   R15 - RECORD GROUP INFO PTR
                                   18820                       COMMENT                   R0 - DATA LEN FOR XPUT
                                   18821                       COMMENT                   R1 - DATA ADDR FOR XPUT
                                   18822                       COMMENT                   R1 - ADDR OF CUR MON ENTRY IN MEM
                                   18823                       COMMENT                   R2 - DATA NAME (SEQ NUM) FRO XPUT
                                   18824                       COMMENT                   R3 - SEQUENCE COUNTER
1DBUG     (DBUG2163) (12:41) (15MAR04) MONITOR COMMAND/ROUTINES                                                             Page   77
0Current Usings:  (MONENTRY,R1) (MRR,R6) (*,R7) (GRWA-(4+36),R8) (CP,R11) (CV,R12)
0Loc    Object Code    Addr1 Addr2  Stmt Lv Lineno    Source Statement           (Hibal 5, Asmedit 3.3)  HLASM R4.0  2004/03/15 12.41
+___    ______ ____    _____ _____  ____ __ ______    ______ _________
0                                  18825                       COMMENT                   R5 - ENDING MONITOR ENTRY ADDR
                                   18826
                                   18827                       COMMENT                   SKIP ALL NULL ENTRY
 00291E 5850 802C            00004 18828                       L     R5,GRMMBPTR
 002922 5810 8030            00008 18829                       L     R1,GRCURPTR
 002926 1915/4780 705A_            18830                       WHILE ((R1,NE,R5),AND,(MONENTRY,EQ,0)),BEGIN
 002936 58E0 7586/0DEE       02E6C 18864  1                      ACALL NEXTNTRY
 00293C 47F0 7040            02926 18868                       END
 002940 5010 8030            00008 18873                       ST    R1,GRCURPTR
                                   18874
                                   18875                       COMMENT                   WRITE OUT NON NULL ENTRIES
 002944 1915/4780 70CE             18876                       IF    (R1,NE,R5),BEGIN    IF NON-NULL ENTRIES
 00294A 41F0 B524            00524 18891  1                      LA    R15,CPRG16
 00294E 4100 000C            0000C 18892  1                      LA    R0,L'MRRDATA
 002952 4110 6010            00010 18893  1                      LA    R1,MRRDATA
 002956 4120 6000            00000 18894  1                      LA    R2,MRRNAME
 00295A 90F2 8050            00028 18895  1                      STM   R15,R2,GRPARMS      SAVE XPUT PARMS
 00295E 1B33                       18896  1                      CLEAR R3
 002960 5850 802C            00004 18900  1                      L     R5,GRMMBPTR         R5 - END OF MON ENTRYS
 002964 5810 8030            00008 18901  1                      L     R1,GRCURPTR         R1 - CURRENT MON ENTRY PTR
                                   18902  1                      COMMENT
 002968 1915/4780 70CE             18903  1                      WHILE (R1,NE,R5),BEGIN    LOOP WRITING RAW ENTRIES
 00296E 4133 0001            00001 18920  2                        LA    R3,1(R3)            NAME IS SEQUENCE NUMBER
 002972 5030 6000            00000 18921  2                        ST    R3,MRRNMSEQ
 002976 D20B 6010 1000 00010 00000 18922  2                        MVC   MRRDATA,MONENTRY    DATA IS RAW MONITOR ENTRY
 00297C 98F2 8050            00028 18923  2                        LM    R15,R2,GRPARMS
 002980 58E0 758E/0DEE       02E74 18924  2                        VCALL XPUT
 002986 4780 70BC            029A2 18928  2                        IF    NZ,BEGIN
 00298A 900F C780/4DE0_      00780 18939  3                          KAPUT MONFULL,'Session Data Record Group Overflow.'
 0029A2                            18946  2                        END
 0029A2 5810 8030            00008 18950  2                        L     R1,GRCURPTR
 0029A6 58E0 7586/0DEE       02E6C 18951  2                        ACALL NEXTNTRY
 0029AC 5010 8030            00008 18955  2                        ST    R1,GRCURPTR
 0029B0 47F0 7082            02968 18956  1                      END
 0029B4                            18961                       END
                                   18965
                                   18966                       COMMENT                   RESTORE MONITOR POINTERS
 0029B4 5810 8028            00000 18967                       L     R1,GRMONPTR
 0029B8 5010 B854            00854 18968                       ST    R1,CPMONPTR
 0029BC 5820 802C            00004 18969                       L     R2,GRMMBPTR
 0029C0 5021 0014            00014 18970                       ST    R2,MMBPTR-MMB(R1)
                                   18971
 0029C4 1BFF                       18972                       CLEAR R15
 0029C6 18D8/9808 D004_            18976                       PEND  ,
 DROP   GRWA-(4+36),R8
 DROP   *,R7
 DROP   MRR,R6                     19001                       DROP  R6
 DROP   MONENTRY,R1                19008                       DROP  R1
1DBUG     (DBUG2163) (12:41) (15MAR04) MONITOR COMMAND/ROUTINES                                                             Page   78
0Current Usings:  (CP,R11) (CV,R12)
0Loc    Object Code    Addr1 Addr2  Stmt Lv Lineno    Source Statement           (Hibal 5, Asmedit 3.3)  HLASM R4.0  2004/03/15 12.41
+___    ______ ____    _____ _____  ____ __ ______    ______ _________
0                                  19016              ¿þþþþþþþþþþþþþþþþþþþþþþþþþþþþþþþþþþþþþþþþþþþþþþþþþþþþþþþþþþþþþþþþþþþþþÜ
                                   19017              Ÿ                                                                     Ÿ
                                   19018              Ÿ                                                                     Ÿ
                                   19019              Ÿ  GETSUM - GET/ SAVE SUMMARY MONITOR DATA IN MON RECORD SET          Ÿ
                                   19020              Ÿ                                                                     Ÿ
                                   19021              Ÿ  ON ENTRY:                                                          Ÿ
                                   19022              Ÿ       CPMONPTR - POINTS TO MEMORY BLOCK FOR NEXT ENTRY              Ÿ
                                   19023              Ÿ       MMBPTR - POINTS TO LOCATION FOR NEXT ENTRY                    Ÿ
                                   19024              Ÿ                                                                     Ÿ
                                   19025              Ÿ  ON EXIT:                                                           Ÿ
                                   19026              Ÿ       MONITOR RECORD SET CREATED                                    Ÿ
                                   19027              Ÿ       CPMONPTR,MMBPTR - SAME AS ON ENTRY                            Ÿ
                                   19028              Ÿ                                                                     Ÿ
                                   19029              Ÿ                                                                     Ÿ
                                                      ¾þþþþþþþþþþþþþþþþþþþþþþþþþþþþþþþþþþþþþþþþþþþþþþþþþþþþþþþþþþþþþþþþþþþþþ»
0000000                00000 0003C 19030              GSWA     RECORD BEGIN
 000000                            19038  1           GSMONPTR   DS    F                   MON MEMORY BLK PTR AT ENTRY
 000004                            19039  1           GSMMBPTR   DS    F                   MON ENTRY PTR AT ENTRY
 000008                            19040  1           GSCURPTR   DS    F                   CURRENT MONITOR ENTRY PTR
 00000C                            19041  1           GSSUM      DS    XL(L'MSR)           SUMMARY MONITOR INFO RECORD
 00002C                            19042  1           GSPARMS    DS    4F                  R15-R2 XPUT PARMS
 00003C                0003C 0003C 19043                       END
                                   19052              *
                                   19053              *
 0029D4 50E0 D000/9008_      00000 19054              GETSUM   PROC  GSWA
 USING  *,R7
 USING  GSWA-(4+36),R8
 USING  MSR,R6                     19104                       USING MSR,R6
 USING  MONENTRY,R1                19113                       USING MONENTRY,R1
 0029EE 4160 8034            0000C 19122                       LA    R6,GSSUM
                                   19123
                                   19124                       COMMENT                   INIT WORK AREA
 0029F2 5810 B854            00854 19125                       L     R1,CPMONPTR
 0029F6 5010 8028            00000 19126                       ST    R1,GSMONPTR
 0029FA 5811 0014            00014 19127                       L     R1,MMBPTR-MMB(R1)
 0029FE 5010 802C            00004 19128                       ST    R1,GSMMBPTR
 002A02 58E0 747E/0DEE       02E6C 19129                       ACALL NEXTNTRY
 002A08 5010 8030            00008 19133                       ST    R1,GSCURPTR
 002A0C D71F 8034 8034 0000C 0000C 19134                       CLEAR GSSUM
 002A12 D703 8054 8054 0002C 0002C 19141                       CLEAR GSPARMS
                                   19148
                                   19149                       COMMENT                   SET MONITOR RECORD SET
 002A18 41F0 B524            00524 19150                       LA    R15,CPRG16
 002A1C 4100 000C            0000C 19151                       LA    R0,CP#MSUM
 002A20 58E0 7482/0DEE       02E70 19152                       VCALL XSETSET
                                   19156
                                   19157                       COMMENT                   REGISTER USAGE:
                                   19158                       COMMENT                   R15 - RECORD GSOUP INFO PTR
                                   19159                       COMMENT                   R0 - DATA LEN FOR XPUT
                                   19160                       COMMENT                   R1 - DATA ADDR FOR XPUT
                                   19161                       COMMENT                   R1 - ADDR OF CUR MON ENTRY IN MEM
                                   19162                       COMMENT                   R2 - DATA NAME (SEQ NUM) FRO XPUT
                                   19163                       COMMENT                   R5 - ENDING MONITOR ENTRY ADDR
1DBUG     (DBUG2163) (12:41) (15MAR04) MONITOR COMMAND/ROUTINES                                                             Page   79
0Current Usings:  (MONENTRY,R1) (MSR,R6) (*,R7) (GSWA-(4+36),R8) (CP,R11) (CV,R12)
0Loc    Object Code    Addr1 Addr2  Stmt Lv Lineno    Source Statement           (Hibal 5, Asmedit 3.3)  HLASM R4.0  2004/03/15 12.41
+___    ______ ____    _____ _____  ____ __ ______    ______ _________
0                                  19164
                                   19165                       COMMENT                   SKIP ALL NULL ENTRY
 002A26 5850 802C            00004 19166                       L     R5,GSMMBPTR
 002A2A 5810 8030            00008 19167                       L     R1,GSCURPTR
 002A2E 1915/4780 705A_            19168                       WHILE ((R1,NE,R5),AND,(MONENTRY,EQ,0)),BEGIN
 002A3E 58E0 747E/0DEE       02E6C 19202  1                      ACALL NEXTNTRY
 002A44 47F0 7040            02A2E 19206                       END
 002A48 5010 8030            00008 19211                       ST    R1,GSCURPTR
                                   19212
                                   19213                       COMMENT                   WRITE OUT NON NULL ENTRIES
 002A4C 1915/4780 7114             19214                       IF    (R1,NE,R5),BEGIN    IF NON-NULL ENTRIES
 002A52 41F0 B524            00524 19229  1                      LA    R15,CPRG16
 002A56 4100 0010            00010 19230  1                      LA    R0,L'MSRDATA
 002A5A 4110 6010            00010 19231  1                      LA    R1,MSRDATA
 002A5E 4120 6000            00000 19232  1                      LA    R2,MSRNAME
 002A62 90F2 8054            0002C 19233  1                      STM   R15,R2,GSPARMS      SAVE XGET/XPUT PARMS
 002A66 1B33                       19234  1                      CLEAR R3
 002A68 5850 802C            00004 19238  1                      L     R5,GSMMBPTR         R5 - END OF MON ENTRYS
 002A6C 5810 8030            00008 19239  1                      L     R1,GSCURPTR         R1 - CURRENT MON ENTRY PTR
                                   19240  1                      COMMENT
 002A70 1915/4780 7114             19241  1                      WHILE (R1,NE,R5),BEGIN    LOOP WRITING SUMMARY ENTRIES
 002A76 5830 1000            00000 19258  2                        L     R3,MONXLINE         NAME IS LINE #/SET #
 002A7A 5030 6004            00004 19259  2                        ST    R3,MSRNMLIN
 002A7E 5830 1004            00004 19260  2                        L     R3,MONXSET
 002A82 5030 6000            00000 19261  2                        ST    R3,MSRNMSET
 002A86 98F2 8054            0002C 19262  2                        LM    R15,R2,GSPARMS
 002A8A 58E0 748A/0DEE       02E78 19263  2                        VCALL XGET                GET CURRENT LINE ENTRY
 002A90 4780 70C0            02AAE 19267  2                        IF    NZ,BEGIN            IF NO, ENTRY MAKE ONE
 002A94 5810 8030            00008 19278  3                          L     R1,GSCURPTR
 002A98 D70F 6010 6010 00010 00010 19279  3                          CLEAR MSRDATA
 002A9E 5830 1000            00000 19286  3                          L     R3,MONXLINE
 002AA2 5030 6010            00010 19287  3                          ST    R3,MSRXLINE
 002AA6 5830 1004            00004 19288  3                          L     R3,MONXSET
 002AAA 5030 6014            00014 19289  3                          ST    R3,MSRXSET
 002AAE                            19290  2                        END
                                   19294  2                        COMMENT                   ADD MONITOR INFO TO LINE SUMMARY
 002AAE 5810 8030            00008 19295  2                        L     R1,GSCURPTR
 002AB2 5830 6018            00018 19296  2                        L     R3,MSRTCPU          ADD ENTRY TIME TO SUMMARY
 002AB6 5A30 1008            00008 19297  2                        A     R3,MONCPU
 002ABA 5030 6018            00018 19298  2                        ST    R3,MSRTCPU
 002ABE 5830 601C            0001C 19299  2                        L     R3,MSRCNT           UPDATE CMD EXECUTION COUNT
 002AC2 4133 0001            00001 19300  2                        LA    R3,1(R3)
 002AC6 5030 601C            0001C 19301  2                        ST    R3,MSRCNT
 002ACA 98F2 8054            0002C 19302  2                        LM    R15,R2,GSPARMS
 002ACE 58E0 7486/0DEE       02E74 19303  2                        VCALL XPUT
 002AD4 4780 7102            02AF0 19307  2                        IF    NZ,BEGIN
 002AD8 900F C780/4DE0_      00780 19318  3                          KAPUT MONFULL,'Session Data Record Group Overflow.'
 002AF0                            19325  2                        END
 002AF0 5810 8030            00008 19329  2                        L     R1,GSCURPTR
 002AF4 58E0 747E/0DEE       02E6C 19330  2                        ACALL NEXTNTRY
 002AFA 5010 8030            00008 19334  2                        ST    R1,GSCURPTR
 002AFE 47F0 7082            02A70 19335  1                      END
 002B02                            19340                       END
                                   19344
1DBUG     (DBUG2163) (12:41) (15MAR04) MONITOR COMMAND/ROUTINES                                                             Page   80
0Current Usings:  (MONENTRY,R1) (MSR,R6) (*,R7) (GSWA-(4+36),R8) (CP,R11) (CV,R12)
0Loc    Object Code    Addr1 Addr2  Stmt Lv Lineno    Source Statement           (Hibal 5, Asmedit 3.3)  HLASM R4.0  2004/03/15 12.41
+___    ______ ____    _____ _____  ____ __ ______    ______ _________
0                                  19345                       COMMENT                   RESTORE MONITOR POINTERS
 002B02 5810 8028            00000 19346                       L     R1,GSMONPTR
 002B06 5010 B854            00854 19347                       ST    R1,CPMONPTR
 002B0A 5820 802C            00004 19348                       L     R2,GSMMBPTR
 002B0E 5021 0014            00014 19349                       ST    R2,MMBPTR-MMB(R1)
                                   19350
 002B12 1BFF                       19351                       CLEAR R15
 002B14 18D8/9808 D004_            19355                       PEND  ,
 DROP   GSWA-(4+36),R8
 DROP   *,R7
 DROP   MSR,R6                     19380                       DROP  R6
 DROP   MONENTRY,R1                19387                       DROP  R1
1DBUG     (DBUG2163) (12:41) (15MAR04) MONITOR COMMAND/ROUTINES                                                             Page   81
0Current Usings:  (CP,R11) (CV,R12)
0Loc    Object Code    Addr1 Addr2  Stmt Lv Lineno    Source Statement           (Hibal 5, Asmedit 3.3)  HLASM R4.0  2004/03/15 12.41
+___    ______ ____    _____ _____  ____ __ ______    ______ _________
0                                  19395              ¿þþþþþþþþþþþþþþþþþþþþþþþþþþþþþþþþþþþþþþþþþþþþþþþþþþþþþþþþþþþþþþþþþþþþþÜ
                                   19396              Ÿ                                                                     Ÿ
                                   19397              Ÿ                                                                     Ÿ
                                   19398              Ÿ  GETNAMES - GET XNAME INFOMATION                                    Ÿ
                                   19399              Ÿ                                                                     Ÿ
                                   19400              Ÿ                                                                     Ÿ
                                   19401              Ÿ  ON ENTRY:                                                          Ÿ
                                   19402              Ÿ       MONITOR RAW, SUMMARY INFORMATION SET UP                       Ÿ
                                   19403              Ÿ                                                                     Ÿ
                                   19404              Ÿ  ON EXIT:                                                           Ÿ
                                   19405              Ÿ       EXEC NAMES SAVED FOR EACH SET NUMBER IN MON INFO              Ÿ
                                   19406              Ÿ                                                                     Ÿ
                                   19407              Ÿ                                                                     Ÿ
                                   19408              Ÿ                                                                     Ÿ
                                                      ¾þþþþþþþþþþþþþþþþþþþþþþþþþþþþþþþþþþþþþþþþþþþþþþþþþþþþþþþþþþþþþþþþþþþþþ»
0000000                00000 00070 19409              GXWA     RECORD BEGIN
 000000                            19417  1           GXXNAME    DS    XL(L'MNR)           MON NAME INFO RECORD
 000050                            19418  1           GXSUM      DS    XL(L'MSR)           MON SUMMARY RECORD
 000070                00070 00070 19419                       END
                                   19428              GXMAXCNT EQU   60                  MUST BE < ALISTCNT IN XCALL
                                   19429              *
                                   19430              *
 002B22 50E0 D000/9008_      00000 19431              GETNAMES PROC  GXWA
 USING  *,R7
 USING  GXWA-(4+36),R8
 USING  MNR,R6                     19481                       USING MNR,R6
 USING  MSR,R5                     19490                       USING MSR,R5
 002B3C 4160 8028            00000 19499                       LA    R6,GXXNAME
 002B40 4150 8078            00050 19500                       LA    R5,GXSUM
                                   19501
                                   19502                       COMMENT                   INITIALIZE WORK AREA
 002B44 D74F 8028 8028 00000 00000 19503                       CLEAR GXXNAME
 002B4A D71F 8078 8078 00050 00050 19510                       CLEAR GXSUM
 002B50 1B44                       19517                       CLEAR R4                  COUNT OF PRIVATE EXECS MONITORED
                                   19521
                                   19522                       COMMENT                   LOOP READING SUMMARY SET NUMBERS
 002B52 41F0 B524            00524 19523                       LA    R15,CPRG16
 002B56 4100 000C            0000C 19524                       LA    R0,CP#MSUM
 002B5A 58E0 7334/0DEE       02E70 19525                       VCALL XSETSET
 002B60 41F0 B524            00524 19529                       LA    R15,CPRG16
 002B64 4100 0010            00010 19530                       LA    R0,L'MSRDATA
 002B68 4110 5010            00010 19531                       LA    R1,MSRDATA
 002B6C 4120 5000            00000 19532                       LA    R2,MSRNAME
 002B70 4130 0001            00001 19533                       LA    R3,1
 002B74 D70F 5000 5000 00000 00000 19534                       CLEAR MSRNAME
 002B7A 5030 5000            00000 19541                       ST    R3,MSRNMSET
 002B7E 58E0 7340/0DEE       02E7C 19542                       VCALL XGETFRST            READ 1ST SET
 002B84 4770 70FA            02C36 19546                       WHILE Z,BEGIN             LOOP READING SET NUMBERS
 002B88 5830 5014            00014 19559  1                      L     R3,MSRXSET
 002B8C 5930 7344/47B0_      02E80 19560  1                      IF    (R3,LT,CV#FEXEC),BEGIN   COUNT LOADED EXECS
 002B94 4144 0001            00001 19577  2                        LA    R4,1(R4)
 002B98                            19578  1                      END
 002B98 D70F 6000 6000 00000 00000 19582  1                      CLEAR MNRNAME             SET UP NAME REOCRD
1DBUG     (DBUG2163) (12:41) (15MAR04) MONITOR COMMAND/ROUTINES                                                             Page   82
0Current Usings:  (MSR,R5) (MNR,R6) (*,R7) (GXWA-(4+36),R8) (CP,R11) (CV,R12)
0Loc    Object Code    Addr1 Addr2  Stmt Lv Lineno    Source Statement           (Hibal 5, Asmedit 3.3)  HLASM R4.0  2004/03/15 12.41
+___    ______ ____    _____ _____  ____ __ ______    ______ _________
0002B9E 5030 6000            00000 19589  1                      ST    R3,MNRNMSET
 002BA2 4110 6010            00010 19590  1                      LA    R1,MNRXNAME
 002BA6 1803                       19591  1                      LR    R0,R3
 002BA8 58E0 7348/0DEE       02E84 19592  1                      VCALL GETXNAME            GET EXEC NAME FROM SET #
 002BAE 4780 7084            02BC0 19596  1                      IF    NZ,BEGIN
 002BB2 4140 003C            0003C 19607  2                        LA    R4,GXMAXCNT
 002BB6 D206 6010 743D 00010 02F79 19608  2                        MVC   MNRXNAME(7),=CL7'UNKNOWN'
 002BBC 4100 0007            00007 19609  2                        LA    R0,7
 002BC0                            19610  1                      END
 002BC0 41F0 B524            00524 19614  1                      LA    R15,CPRG16
 002BC4 4100 000E            0000E 19615  1                      LA    R0,CP#MNAME
 002BC8 58E0 7334/0DEE       02E70 19616  1                      VCALL XSETSET
 002BCE 41F0 B524            00524 19620  1                      LA    R15,CPRG16          SAVE NAME RECORD
 002BD2 4100 0040            00040 19621  1                      LA    R0,L'MNRDATA
 002BD6 4110 6010            00010 19622  1                      LA    R1,MNRDATA
 002BDA 4120 6000            00000 19623  1                      LA    R2,MNRNAME
 002BDE 58E0 7338/0DEE       02E74 19624  1                      VCALL XPUT
 002BE4 4780 70C4            02C00 19628  1                      IF    NZ,BEGIN
 002BE8 900F C780/4DE0_      00780 19639  2                        KAPUT MONFULL,'Session Data Record Group Overflow.'
 002C00                            19646  1                      END
 002C00 D71F 8078 8078 00050 00050 19650  1                      CLEAR GXSUM               GET NEXT SET NUMBER
 002C06 4133 0001            00001 19657  1                      LA    R3,1(R3)
 002C0A 5030 5000            00000 19658  1                      ST    R3,MSRNMSET
 002C0E 41F0 B524            00524 19659  1                      LA    R15,CPRG16
 002C12 4100 000C            0000C 19660  1                      LA    R0,CP#MSUM
 002C16 58E0 7334/0DEE       02E70 19661  1                      VCALL XSETSET
 002C1C 41F0 B524            00524 19665  1                      LA    R15,CPRG16
 002C20 4100 0010            00010 19666  1                      LA    R0,L'MSRDATA
 002C24 4110 5010            00010 19667  1                      LA    R1,MSRDATA
 002C28 4120 5000            00000 19668  1                      LA    R2,MSRNAME
 002C2C 58E0 7340/0DEE       02E7C 19669  1                      VCALL XGETFRST            READ 1ST REC OF NEXT SET NUMBER
                                   19673  1                      COMMENT ,                 (IE. GET NEXT EXEC SET IN SUM)
 002C32 47F0 7048            02B84 19674                       END
                                   19679
                                   19680                       COMMENT                   IF TOO MANY EXECS LOADED,
                                   19681                       COMMENT                     EXEC NAMES MAY NOT CORRESPOND
 002C36 5940 734C/4750_      02E88 19682                       IF    (R4,GE,GXMAXCNT),BEGIN
 002C3E 58E0 72E8/0DEE       02E24 19699  1                      ACALL MCLEAR
 002C44 4110 73C8/4100_      02F04 19703  1                      TSEG  'Too many execs loaded/unloaded or called. ',,CR
 002C56 4110 73F2/4100_      02F2E 19721  1                      ERROR 'Error: Unable to resolve exec data set names. '
 002C62                            19728                       END
                                   19732
 002C62 1BFF                       19733                       CLEAR R15
 002C64 18D8/9808 D004_            19737                       PEND  ,
 DROP   GXWA-(4+36),R8
 DROP   *,R7
 DROP   MNR,R6                     19762                       DROP  R6
1DBUG     (DBUG2163) (12:41) (15MAR04) MONITOR COMMAND/ROUTINES                                                             Page   83
0Current Usings:  (MSR,R5) (CP,R11) (CV,R12)
0Loc    Object Code    Addr1 Addr2  Stmt Lv Lineno    Source Statement           (Hibal 5, Asmedit 3.3)  HLASM R4.0  2004/03/15 12.41
+___    ______ ____    _____ _____  ____ __ ______    ______ _________
0                                  19770              ¿þþþþþþþþþþþþþþþþþþþþþþþþþþþþþþþþþþþþþþþþþþþþþþþþþþþþþþþþþþþþþþþþþþþþþÜ
                                   19771              Ÿ                                                                     Ÿ
                                   19772              Ÿ                                                                     Ÿ
                                   19773              Ÿ  NEXTPTR - GET POINTER TO NEXT MONITOR ENTRY TO *ADD*!              Ÿ
                                   19774              Ÿ                                                                     Ÿ
                                   19775              Ÿ  ON ENTRY:                                                          Ÿ
                                   19776              Ÿ       CPMONPTR - POINTER TO CURRENT MON MEMORY BLOCK                Ÿ
                                   19777              Ÿ       MMBPTR - POINTER TO CURRENT ENTRY IN BLOCK                    Ÿ
                                   19778              Ÿ  ON EXIT:                                                           Ÿ
                                   19779              Ÿ       CPMONPTR - UPDATED                                            Ÿ
                                   19780              Ÿ       MMBPTR - UPDATED                                              Ÿ
                                   19781              Ÿ       R1 - POINTER TO NEXT ENTRY                                    Ÿ
                                   19782              Ÿ                                                                     Ÿ
                                   19783              Ÿ  WARNING!: USE THIS ROUTINE ONLY TO ADD MONITOR ENTRIES,            Ÿ
                                   19784              Ÿ        AS IT WILL ADD MEMORY BLOCKS AS NEEDED.                      Ÿ
                                   19785              Ÿ                                                                     Ÿ
                                                      ¾þþþþþþþþþþþþþþþþþþþþþþþþþþþþþþþþþþþþþþþþþþþþþþþþþþþþþþþþþþþþþþþþþþþþþ»
0002C72 50E0 D000/9008_      00000 19786              NEXTPTR  PROC  ,
 USING  *,R7
 USING  MMB,R6                     19825                       USING MMB,R6
 002C8C 5860 B854            00854 19834                       L     R6,CPMONPTR
                                   19835
                                   19836                       COMMENT                   GET, BUMP POINTER
 002C90 5810 6014            00014 19837                       L     R1,MMBPTR
 002C94 4111 000C            0000C 19838                       LA    R1,L'MONENTRY(R1)
 002C98 5910 6010/47B0_      00010 19839                       IF    (R1,LT,MMBEND),BEGIN     IF NOT PAST END OF PAGE,
 002CA0 5010 6014            00014 19856  1                      ST    R1,MMBPTR
 002CA4                            19857                       END
                                   19861
                                   19862                       COMMENT                   IF ON NEXT PAGE,,
 002CA4 701C/47F0 7044 02CA4 02C9E 19863                       ELSE  BEGIN
                                   19874  1                      COMMENT                   GET A NEW PAGE IF OK
 002CA8 D503 600C B85C_0000C 0085C 19875  1                      IF    (MMBTMEM,LT,CPMONMAX),BEGIN
 002CB2 58E0 7200/0DEE       02E8C 19893  2                        ACALL ADDMMEM
 002CB8                            19897  1                      END
 002CB8 7030/47F0 7038 02CB8 02CB0 19901  1                      ELSE  BEGIN               OTHERWISE GET NEXT PAGE,
 002CBC 5860 6008            00008 19912  2                        L     R6,MMBLINK             FOLLOW CIRCULAR LINKS
 002CC0 5060 B854            00854 19913  2                        ST    R6,CPMONPTR
 002CC4                            19914  1                      END
                                   19918  1                      COMMENT                   GET 1ST ENTRY POINTER ON PAGE
 002CC4 5860 B854            00854 19919  1                      L     R6,CPMONPTR
 002CC8 4110 6020            00020 19920  1                      LA    R1,MMBDATA
 002CCC 5010 6014            00014 19921  1                      ST    R1,MMBPTR
 002CD0                            19922                       END
                                   19926
 002CD0 1BFF                       19927                       CLEAR R15
 002CD2 9001 8004            00004 19931                       PRETURN (R0,R1)
 002CD6 18D8/9808 D004_            19933                       PEND  ,
 DROP   *,R7
 DROP   MMB,R6                     19953                       DROP  R6
1DBUG     (DBUG2163) (12:41) (15MAR04) MONITOR COMMAND/ROUTINES                                                             Page   84
0Current Usings:  (MSR,R5) (CP,R11) (CV,R12)
0Loc    Object Code    Addr1 Addr2  Stmt Lv Lineno    Source Statement           (Hibal 5, Asmedit 3.3)  HLASM R4.0  2004/03/15 12.41
+___    ______ ____    _____ _____  ____ __ ______    ______ _________
0                                  19961              ¿þþþþþþþþþþþþþþþþþþþþþþþþþþþþþþþþþþþþþþþþþþþþþþþþþþþþþþþþþþþþþþþþþþþþþÜ
                                   19962              Ÿ                                                                     Ÿ
                                   19963              Ÿ                                                                     Ÿ
                                   19964              Ÿ  NEXTNTRY - GET POINTER TO NEXT MONITOR ENTRY TO *READ*!            Ÿ
                                   19965              Ÿ                                                                     Ÿ
                                   19966              Ÿ  ON ENTRY:                                                          Ÿ
                                   19967              Ÿ       CPMONPTR - POINTER TO CURRENT MON MEMORY BLOCK                Ÿ
                                   19968              Ÿ       MMBPTR - POINTER TO CURRENT ENTRY IN BLOCK                    Ÿ
                                   19969              Ÿ  ON EXIT:                                                           Ÿ
                                   19970              Ÿ       CPMONPTR - UPDATED                                            Ÿ
                                   19971              Ÿ       MMBPTR - UPDATED                                              Ÿ
                                   19972              Ÿ       R1 - POINTER TO NEXT ENTRY                                    Ÿ
                                   19973              Ÿ                                                                     Ÿ
                                   19974              Ÿ  WARNING!: USE THIS ROUTINE ONLY TO READ MONITOR ENTRIES,           Ÿ
                                   19975              Ÿ        AS IT WILL NOT ADD MEMORY BLOCKS AS NEEDED.                  Ÿ
                                   19976              Ÿ                                                                     Ÿ
                                   19977              Ÿ                                                                     Ÿ
                                                      ¾þþþþþþþþþþþþþþþþþþþþþþþþþþþþþþþþþþþþþþþþþþþþþþþþþþþþþþþþþþþþþþþþþþþþþ»
0002CE4 50E0 D000/9008_      00000 19978              NEXTNTRY PROC  ,
 USING  *,R7
 USING  MMB,R6                     20017                       USING MMB,R6
 002CFE 5860 B854            00854 20026                       L     R6,CPMONPTR
                                   20027
                                   20028                       COMMENT                   GET, BUMP POINTER
 002D02 5810 6014            00014 20029                       L     R1,MMBPTR
 002D06 4111 000C            0000C 20030                       LA    R1,L'MONENTRY(R1)
 002D0A 5910 6010/47B0_      00010 20031                       IF    (R1,LT,MMBEND),BEGIN     IF NOT PAST END OF PAGE,
 002D12 5010 6014            00014 20048  1                      ST    R1,MMBPTR
 002D16                            20049                       END
                                   20053
                                   20054                       COMMENT                   IF ON NEXT PAGE,,
 002D16 701C/47F0 7030 02D16 02D10 20055                       ELSE  BEGIN
                                   20066  1                      COMMENT                   GET NEXT PAGE
 002D1A 5860 6008            00008 20067  1                      L     R6,MMBLINK             FOLLOW CIRCULAR LINKS
 002D1E 5060 B854            00854 20068  1                      ST    R6,CPMONPTR
                                   20069  1                      COMMENT                   GET 1ST ENTRY POINTER ON PAGE
 002D22 5860 B854            00854 20070  1                      L     R6,CPMONPTR
 002D26 4110 6020            00020 20071  1                      LA    R1,MMBDATA
 002D2A 5010 6014            00014 20072  1                      ST    R1,MMBPTR
 002D2E                            20073                       END
                                   20077
 002D2E 1BFF                       20078                       CLEAR R15
 002D30 9001 8004            00004 20082                       PRETURN (R0,R1)
 002D34 18D8/9808 D004_            20084                       PEND  ,
 DROP   *,R7
 DROP   MMB,R6                     20104                       DROP  R6
1DBUG     (DBUG2163) (12:41) (15MAR04) MONITOR COMMAND/ROUTINES                                                             Page   85
0Current Usings:  (MSR,R5) (CP,R11) (CV,R12)
0Loc    Object Code    Addr1 Addr2  Stmt Lv Lineno    Source Statement           (Hibal 5, Asmedit 3.3)  HLASM R4.0  2004/03/15 12.41
+___    ______ ____    _____ _____  ____ __ ______    ______ _________
0                                  20112              ¿þþþþþþþþþþþþþþþþþþþþþþþþþþþþþþþþþþþþþþþþþþþþþþþþþþþþþþþþþþþþþþþþþþþþþÜ
                                   20113              Ÿ                                                                     Ÿ
                                   20114              Ÿ                                                                     Ÿ
                                   20115              Ÿ  GETMMAX - ARBITRATE MAX AMOUNT OF MEMORY TO GET                    Ÿ
                                   20116              Ÿ                                                                     Ÿ
                                   20117              Ÿ  ON ENTRY:                                                          Ÿ
                                   20118              Ÿ       R0 - NUMBER OF ENTRIES REQUESTED                              Ÿ
                                   20119              Ÿ            (IF R0=0, WE RETURN 8K MEMORY DEFAULT)                   Ÿ
                                   20120              Ÿ                                                                     Ÿ
                                   20121              Ÿ  ON EXIT:                                                           Ÿ
                                   20122              Ÿ       R0 - MAX AMOUNT OF MEMORY TO GET                              Ÿ
                                   20123              Ÿ                                                                     Ÿ
                                   20124              Ÿ                                                                     Ÿ
                                   20125              Ÿ                                                                     Ÿ
                                                      ¾þþþþþþþþþþþþþþþþþþþþþþþþþþþþþþþþþþþþþþþþþþþþþþþþþþþþþþþþþþþþþþþþþþþþþ»
0002D42 50E0 D000/9008_      00000 20126              GETMMAX  PROC  ,
 USING  *,R7
                                   20165
                                   20166                       COMMENT                   GET MEMORY MAX IN BYTES
 002D5C 1200/4770 700A             20167                       IF    (R0,Z),BEGIN
 002D62 5820 7134            02E90 20181  1                      L     R2,=AL4(MMEMDFLT)    DEFAULT IS ABOUT 8K
 002D66                            20182                       END
 002D66 700E/47F0 7018 02D66 02D60 20186                       ELSE  BEGIN
 002D6A 1820                       20197  1                      LR    R2,R0
 002D6C 4C20 7200            02F5C 20198  1                      MH    R2,=AL2(L'MONENTRY)
 002D70 5A20 7138            02E94 20199  1                      A     R2,=AL4(MMEMFDGE)
 002D74                            20200                       END
                                   20204
                                   20205                       COMMENT                   ARBITRATE AMOUNT
 002D74 5920 B85C/47B0_      0085C 20206                       IF    (R2,LT,CPMONMAX),BEGIN
 002D7C 5820 B85C            0085C 20223  1                      L     R2,CPMONMAX
 002D80                            20224                       END
 002D80 5920 713C/47B0_      02E98 20228                       IF    (R2,LT,=A(MMEMMIN)),BEGIN
 002D88 5820 7140            02E9C 20244  1                      L     R2,=AL4(MMEMMIN)
 002D8C                            20245                       END
 002D8C 5920 7144/47D0_      02EA0 20249                       IF    (R2,GT,=A(MMEMMAX)),BEGIN
 002D94 5820 7148            02EA4 20265  1                      L     R2,=AL4(MMEMMAX)
 002D98                            20266                       END
                                   20270                       COMMENT ,                 ONLY THREE BIG XMONS ALLOWED
 002D98 5920 70EC/47D0_      02E48 20271                       IF   ((R2,GT,=A(MMEMBIG)),AND,(CVXMONCT,GE,MAXBIGCT)),BEGIN
 002DAA 4110 7150/4100_      02EAC 20304  1                      TSEG  'Too many big XMON sessions. '
 002DBC 4110 716C/4100_      02EC8 20322  1                      TSEG  'Count value ignored.',,CR
 002DCE 5820 7180            02EDC 20340  1                      L     R2,=AL4(MMEMBIG)
 002DD2                            20341                       END
                                   20345
 002DD2 1802                       20346                       LR    R0,R2
 002DD4 1BFF                       20347                       CLEAR R15
 002DD6 5008 0004            00004 20351                       PRETURN (R0)
 002DDA 18D8/9808 D004_            20353                       PEND  ,
 DROP   *,R7
1DBUG     (DBUG2163) (12:41) (15MAR04) MONITOR COMMAND/ROUTINES                                                             Page   86
0Current Usings:  (MSR,R5) (CP,R11) (CV,R12)
0Loc    Object Code    Addr1 Addr2  Stmt Lv Lineno    Source Statement           (Hibal 5, Asmedit 3.3)  HLASM R4.0  2004/03/15 12.41
+___    ______ ____    _____ _____  ____ __ ______    ______ _________
0                                  20374                       QLTORG
1DBUG     (DBUG2163) (12:41) (15MAR04) SHOW MONITOR ROUTINES                                                                Page   87
0Current Usings:  (MSR,R5) (CP,R11) (CV,R12)
0Loc    Object Code    Addr1 Addr2  Stmt Lv Lineno    Source Statement           (Hibal 5, Asmedit 3.3)  HLASM R4.0  2004/03/15 12.41
+___    ______ ____    _____ _____  ____ __ ______    ______ _________
0                                  20440              ¿þþþþþþþþþþþþþþþþþþþþþþþþþþþþþþþþþþþþþþþþþþþþþþþþþþþþþþþþþþþþþþþþþþþþþÜ
                                   20441              Ÿ                                                                     Ÿ
                                   20442              Ÿ                                                                     Ÿ
                                   20443              Ÿ  SHOWMON - SHOW MONITOR INFORMATION                                 Ÿ
                                   20444              Ÿ                                                                     Ÿ
                                   20445              Ÿ  SHOW EXEC MONITOR INFORMATION                                      Ÿ
                                   20446              Ÿ                                                                     Ÿ
                                   20447              Ÿ                                                                     Ÿ
                                   20448              Ÿ                                                                     Ÿ
                                                      ¾þþþþþþþþþþþþþþþþþþþþþþþþþþþþþþþþþþþþþþþþþþþþþþþþþþþþþþþþþþþþþþþþþþþþþ»
0002F80 50E0 D000/9008_      00000 20449              SHOWMON  XPROC ,
 USING  *,R7
                                   20489
                                   20490                       COMMENT                   MAKE SURE MONITOR IS STOPPED
 002F9A D503 766E B854_03608 00854 20491                       IF    (CPMONPTR,NE,0),BEGIN
 002FA4 58E0 76AE/0DEE       03648 20509  1                      ACALL MSTOP
 002FAA                            20513                       END
                                   20517
                                   20518                       COMMENT                   SCAN OPTIONS
 002FAA 5810 B08C/1B00_      0008C 20519                       SCAN  SHOWMPRT
 002FFC 58E0 76BA/0DEE       03654 20551                       SCANCHK
 003002 1BFF                       20556                       CLEAR R15
                                   20560
 003004 47F0 C7DE            007DE 20561                       B     CVNEXT
 003008 18D8/9808 D004_            20562                       PEND  ,
 DROP   *,R7
-
0                                  20583                       ¿þþþþþþþþþþþþþþþþþþþþþþþþþþþþþþþþþþþþþÜ
                                   20584                       Ÿ  SHOW MONITOR OPTIONS AND ROUTINES  Ÿ
                                   20585                       ¾þþþþþþþþþþþþþþþþþþþþþþþþþþþþþþþþþþþþþ»
 003018 4040404040404040_          20586              SHOWMPRT SCKW  ,MSUMMARY,NULL
 003040 E2E4D4D4C1D9E840_          20601                       SCKW  SUMMARY,MSUMMARY,A
 003068 D9C1E64040404040_          20616                       SCKW  RAW,MRAW
 003090 D5C1D4C5E2404040_          20631                       SCKW  NAMES,MNAMES,A
 0030B8 4040404040404040_          20646                       SCKW  ,V(COLLPSH),PUSH
 0030E0 4040404040404040_          20661                       SCKW  ,V(SCNINVAL)
-                                  20677                       ¿þþþþþþþþþþþþþþþþþþþþþþþþÜ
                                   20678                       Ÿ  SHOW MONITOR SUMMARY  Ÿ
                                   20679                       ¾þþþþþþþþþþþþþþþþþþþþþþþþ»
 003108 50E0 D000/9008_      00000 20680              MSUMMARY PROC  ,
 USING  *,R7
 003122 58E0 7536/0DEE       03658 20719                       VCALL COLLOPTS
 003128 58E0 753A/0DEE       0365C 20723                       ACALL SHOWSUM
 00312E 41F0 0004            00004 20727                       LA    R15,4
 003132 18D8/9808 D004_            20728                       PEND  ,
 DROP   *,R7
1DBUG     (DBUG2163) (12:41) (15MAR04) SHOW MONITOR ROUTINES                                                                Page   88
0Current Usings:  (MSR,R5) (CP,R11) (CV,R12)
0Loc    Object Code    Addr1 Addr2  Stmt Lv Lineno    Source Statement           (Hibal 5, Asmedit 3.3)  HLASM R4.0  2004/03/15 12.41
+___    ______ ____    _____ _____  ____ __ ______    ______ _________
0                                  20748                       ¿þþþþþþþþþþþþþþþþþþþþÜ
                                   20749                       Ÿ  SHOW MONITOR RAW  Ÿ
                                   20750                       ¾þþþþþþþþþþþþþþþþþþþþ»
 003140 50E0 D000/9008_      00000 20751              MRAW     PROC  ,
 USING  *,R7
 00315A 58E0 74FE/0DEE       03658 20790                       VCALL COLLOPTS
 003160 58E0 7506/0DEE       03660 20794                       ACALL SHOWRAW
 003166 41F0 0004            00004 20798                       LA    R15,4
 00316A 18D8/9808 D004_            20799                       PEND  ,
 DROP   *,R7
                                   20819                       ¿þþþþþþþþþþþþþþþþþþþþþþÜ
                                   20820                       Ÿ  SHOW MONITOR NAMES  Ÿ
                                   20821                       ¾þþþþþþþþþþþþþþþþþþþþþþ»
 003178 50E0 D000/9008_      00000 20822              MNAMES   PROC  ,
 USING  *,R7
 003192 58E0 74C6/0DEE       03658 20861                       VCALL COLLOPTS
 003198 58E0 74D2/0DEE       03664 20865                       ACALL SHOWNAMS
 00319E 41F0 0004            00004 20869                       LA    R15,4
 0031A2 18D8/9808 D004_            20870                       PEND  ,
 DROP   *,R7
1DBUG     (DBUG2163) (12:41) (15MAR04) SHOW MONITOR ROUTINES                                                                Page   89
0Current Usings:  (MSR,R5) (CP,R11) (CV,R12)
0Loc    Object Code    Addr1 Addr2  Stmt Lv Lineno    Source Statement           (Hibal 5, Asmedit 3.3)  HLASM R4.0  2004/03/15 12.41
+___    ______ ____    _____ _____  ____ __ ______    ______ _________
0                                  20891              ¿þþþþþþþþþþþþþþþþþþþþþþþþþþþþþþþþþþþþþþþþþþþþþþþþþþþþþþþþþþþþþþþþþþþþþÜ
                                   20892              Ÿ                                                                     Ÿ
                                   20893              Ÿ                                                                     Ÿ
                                   20894              Ÿ  SHOWRAW - SHOW MONITOR RAW                                         Ÿ
                                   20895              Ÿ                                                                     Ÿ
                                   20896              Ÿ                                                                     Ÿ
                                   20897              Ÿ  ON ENTRY                                                           Ÿ
                                   20898              Ÿ       MONITOR INFO IN MONITOR RECORD SETS.                          Ÿ
                                   20899              Ÿ                                                                     Ÿ
                                   20900              Ÿ                                                                     Ÿ
                                   20901              Ÿ                                                                     Ÿ
                                   20902              Ÿ                                                                     Ÿ
                                                      ¾þþþþþþþþþþþþþþþþþþþþþþþþþþþþþþþþþþþþþþþþþþþþþþþþþþþþþþþþþþþþþþþþþþþþþ»
0000000                00000 00070 20903              SMRWA    RECORD BEGIN
 000000                            20911  1           SMRRAW     DS    XL(L'MRR)
 00001C                            20912  1           SMRNAME    DS    XL(L'MNR)
 00006C                            20913  1           SMRXSET    DS    F
 000070                00070 00070 20914                       END
                                   20923              *
                                   20924              *
 0031B0 50E0 D000/9008_      00000 20925              SHOWRAW  PROC  SMRWA
 USING  *,R7
 USING  SMRWA-(4+36),R8
 USING  MRR,R6                     20975                       USING MRR,R6
 DROP   MSR,R5                     20984                       USING MNR,R5
 USING  MNR,R5
 0031CA 4160 8028            00000 20996                       LA    R6,SMRRAW
 0031CE 4150 8044            0001C 20997                       LA    R5,SMRNAME
                                   20998
                                   20999                       COMMENT                   INITIALIZE WORK AREA
 0031D2 D71B 8028 8028 00000 00000 21000                       CLEAR SMRRAW
 0031D8 D74F 8044 8044 0001C 0001C 21007                       CLEAR SMRNAME
 0031DE D703 8094 8094 0006C 0006C 21014                       CLEAR SMRXSET
                                   21021
                                   21022                       COMMENT                   WRITE OUT HEADER LINES
 0031E4 4110 7508/4100_      036D2 21023                       TSEG  'Monitor Raw Data:',,CR
 0031F6 4770 C7DE            007DE 21041                       BNZ   CVNEXT              IF ATTN, SCRAM
                                   21042
                                   21043                       COMMENT                   WRITE ALL RAW RECORDS
 0031FA 41F0 B524            00524 21044                       LA    R15,CPRG16          GET 1ST RAW RECORD
 0031FE 4100 000B            0000B 21045                       LA    R0,CP#MRAW
 003202 58E0 74A2/0DEE       0366C 21046                       VCALL XSETSET
 003208 41F0 B524            00524 21050                       LA    R15,CPRG16
 00320C 4100 000C            0000C 21051                       LA    R0,L'MRRDATA
 003210 4110 6010            00010 21052                       LA    R1,MRRDATA
 003214 4120 6000            00000 21053                       LA    R2,MRRNAME
 003218 58E0 74A6/0DEE       03670 21054                       VCALL XGETFRST
 00321E 4770 7118            032E2 21058                       WHILE Z,BEGIN             LOOP WRITING RECORDS,,
 003222 5830 6014            00014 21071  1                      L     R3,MRRXSET
 003226 5930 8094/4780_      0006C 21072  1                      IF    (R3,NE,SMRXSET),BEGIN    IF NEW EXEC, GET EXEC NAME
 00322E 5030 8094            0006C 21089  2                        ST    R3,SMRXSET
 003232 5030 5000            00000 21090  2                        ST    R3,MNRNMSET
 003236 41F0 B524            00524 21091  2                        LA    R15,CPRG16
1DBUG     (DBUG2163) (12:41) (15MAR04) SHOW MONITOR ROUTINES                                                                Page   90
0Current Usings:  (MNR,R5) (MRR,R6) (*,R7) (SMRWA-(4+36),R8) (CP,R11) (CV,R12)
0Loc    Object Code    Addr1 Addr2  Stmt Lv Lineno    Source Statement           (Hibal 5, Asmedit 3.3)  HLASM R4.0  2004/03/15 12.41
+___    ______ ____    _____ _____  ____ __ ______    ______ _________
000323A 4100 000E            0000E 21092  2                        LA    R0,CP#MNAME
 00323E 58E0 74A2/0DEE       0366C 21093  2                        VCALL XSETSET
 003244 41F0 B524            00524 21097  2                        LA    R15,CPRG16
 003248 4100 0040            00040 21098  2                        LA    R0,L'MNRDATA
 00324C 4110 5010            00010 21099  2                        LA    R1,MNRDATA
 003250 4120 5000            00000 21100  2                        LA    R2,MNRNAME
 003254 58E0 74AA/0DEE       03674 21101  2                        VCALL XGET
 00325A 4780 7096            03260 21105  2                        IF    NZ,BEGIN
 00325E 0000                       21116  3                          BOMB
 003260                            21118  2                        END
 003260 58E0 74AE/0DEE       03678 21122  2                        VCALL SEGFDSN             WRITE OUT EXEC NAME, IF NEW EXEC
 003266 1B00/41F0 B050_            21126  2                        TCR
 003272 4110 74B2/4100_      0367C 21151  2                        TSEG  '   Line           ID    CPU ',,CR
 003284                            21169  1                      END
 003284 5810 6010            00010 21173  1                      L     R1,MRRXLINE         WRITE OUT MONITOR INFO FOR LINE
 003288 58E0 74CE/0DEE       03698 21174  1                      ACALL MSEGLNO
 00328E 5810 6014            00014 21178  1                      L     R1,MRRXSET
 003292 58E0 74D2/0DEE       0369C 21179  1                      ACALL MSEGNO
 003298 5810 6018            00018 21183  1                      L     R1,MRRCPU
 00329C 58E0 74D6/0DEE       036A0 21184  1                      ACALL MSEGCPU
 0032A2 1B00/41F0 B050_            21188  1                      TCR
 0032AE 1B00/41F0 B050_            21213  1                      TWRITE
 0032BA 41F0 B524            00524 21238  1                      LA    R15,CPRG16          GET NEXT RAW RECORD
 0032BE 4100 000B            0000B 21239  1                      LA    R0,CP#MRAW
 0032C2 58E0 74A2/0DEE       0366C 21240  1                      VCALL XSETSET
 0032C8 41F0 B524            00524 21244  1                      LA    R15,CPRG16
 0032CC 4100 000C            0000C 21245  1                      LA    R0,L'MRRDATA
 0032D0 4110 6010            00010 21246  1                      LA    R1,MRRDATA
 0032D4 4120 6000            00000 21247  1                      LA    R2,MRRNAME
 0032D8 58E0 74DE/0DEE       036A8 21248  1                      VCALL XGETNEXT
 0032DE 47F0 7054            0321E 21252                       END
                                   21257
 0032E2 1BFF                       21258                       CLEAR R15
 0032E4 18D8/9808 D004_            21262                       PEND  ,
 DROP   SMRWA-(4+36),R8
 DROP   *,R7
 DROP   MRR,R6                     21287                       DROP  R6
 DROP   MNR,R5                     21294                       DROP  R5
1DBUG     (DBUG2163) (12:41) (15MAR04) SHOW MONITOR ROUTINES                                                                Page   91
0Current Usings:  (CP,R11) (CV,R12)
0Loc    Object Code    Addr1 Addr2  Stmt Lv Lineno    Source Statement           (Hibal 5, Asmedit 3.3)  HLASM R4.0  2004/03/15 12.41
+___    ______ ____    _____ _____  ____ __ ______    ______ _________
0                                  21302              ¿þþþþþþþþþþþþþþþþþþþþþþþþþþþþþþþþþþþþþþþþþþþþþþþþþþþþþþþþþþþþþþþþþþþþþÜ
                                   21303              Ÿ                                                                     Ÿ
                                   21304              Ÿ                                                                     Ÿ
                                   21305              Ÿ  SHOWSUM - SHOW MONITOR SUMMARY                                     Ÿ
                                   21306              Ÿ                                                                     Ÿ
                                   21307              Ÿ                                                                     Ÿ
                                   21308              Ÿ  ON ENTRY                                                           Ÿ
                                   21309              Ÿ       MONITOR INFO IN MONITOR RECORD SET.                           Ÿ
                                   21310              Ÿ                                                                     Ÿ
                                   21311              Ÿ                                                                     Ÿ
                                   21312              Ÿ                                                                     Ÿ
                                   21313              Ÿ                                                                     Ÿ
                                                      ¾þþþþþþþþþþþþþþþþþþþþþþþþþþþþþþþþþþþþþþþþþþþþþþþþþþþþþþþþþþþþþþþþþþþþþ»
0000000                00000 00074 21314              SMSWA    RECORD BEGIN
 000000                            21322  1           SMSSUM     DS    XL(L'MSR)
 000020                            21323  1           SMSNAME    DS    XL(L'MNR)
 000070                            21324  1           SMSXSET    DS    F
 000074                00074 00074 21325                       END
                                   21334              *
                                   21335              *
 0032F2 50E0 D000/9008_      00000 21336              SHOWSUM  PROC  SMSWA
 USING  *,R7
 USING  SMSWA-(4+36),R8
 USING  MSR,R6                     21386                       USING MSR,R6
 USING  MNR,R5                     21395                       USING MNR,R5
 00330C 4160 8028            00000 21404                       LA    R6,SMSSUM
 003310 4150 8048            00020 21405                       LA    R5,SMSNAME
                                   21406
                                   21407                       COMMENT                   INITIALIZE WORK AREA
 003314 D71F 8028 8028 00000 00000 21408                       CLEAR SMSSUM
 00331A D74F 8048 8048 00020 00020 21415                       CLEAR SMSNAME
 003320 D703 8098 8098 00070 00070 21422                       CLEAR SMSXSET
                                   21429
                                   21430                       COMMENT                   WRITE OUT HEADER LINES
 003326 4110 73D7/4100_      036E3 21431                       TSEG  'Monitor Data Summary:',,CR
 003338 4770 C7DE            007DE 21449                       BNZ   CVNEXT              IF ATTN, SCRAM
                                   21450
                                   21451                       COMMENT                   WRITE ALL SUMMARY RECORDS
 00333C 41F0 B524            00524 21452                       LA    R15,CPRG16          GET 1ST SUMMARY RECORD
 003340 4100 000C            0000C 21453                       LA    R0,CP#MSUM
 003344 58E0 7360/0DEE       0366C 21454                       VCALL XSETSET
 00334A 41F0 B524            00524 21458                       LA    R15,CPRG16
 00334E 4100 0010            00010 21459                       LA    R0,L'MSRDATA
 003352 4110 6010            00010 21460                       LA    R1,MSRDATA
 003356 4120 6000            00000 21461                       LA    R2,MSRNAME
 00335A 58E0 7364/0DEE       03670 21462                       VCALL XGETFRST
 003360 4770 7122            0342E 21466                       WHILE Z,BEGIN             LOOP WRITING RECORDS,,
 003364 5830 6014            00014 21479  1                      L     R3,MSRXSET
 003368 5930 8098/4780_      00070 21480  1                      IF    (R3,NE,SMSXSET),BEGIN    IF NEW EXEC, GET EXEC NAME
 003370 5030 8098            00070 21497  2                        ST    R3,SMSXSET
 003374 5030 5000            00000 21498  2                        ST    R3,MNRNMSET
 003378 41F0 B524            00524 21499  2                        LA    R15,CPRG16
 00337C 4100 000E            0000E 21500  2                        LA    R0,CP#MNAME
1DBUG     (DBUG2163) (12:41) (15MAR04) SHOW MONITOR ROUTINES                                                                Page   92
0Current Usings:  (MNR,R5) (MSR,R6) (*,R7) (SMSWA-(4+36),R8) (CP,R11) (CV,R12)
0Loc    Object Code    Addr1 Addr2  Stmt Lv Lineno    Source Statement           (Hibal 5, Asmedit 3.3)  HLASM R4.0  2004/03/15 12.41
+___    ______ ____    _____ _____  ____ __ ______    ______ _________
0003380 58E0 7360/0DEE       0366C 21501  2                        VCALL XSETSET
 003386 41F0 B524            00524 21505  2                        LA    R15,CPRG16
 00338A 4100 0040            00040 21506  2                        LA    R0,L'MNRDATA
 00338E 4110 5010            00010 21507  2                        LA    R1,MNRDATA
 003392 4120 5000            00000 21508  2                        LA    R2,MNRNAME
 003396 58E0 7368/0DEE       03674 21509  2                        VCALL XGET
 00339C 4780 7096            033A2 21513  2                        IF    NZ,BEGIN
 0033A0 0000                       21524  3                          BOMB
 0033A2                            21526  2                        END
 0033A2 58E0 736C/0DEE       03678 21530  2                        VCALL SEGFDSN             WRITE OUT EXEC NAME, IF NEW EXEC
 0033A8 1B00/41F0 B050_            21534  2                        TCR
 0033B4 4110 7304/4100_      03610 21559  2                        TSEG  '   Line           ID    CPU        Count',,CR
 0033C6                            21577  1                      END
 0033C6 5810 6010            00010 21581  1                      L     R1,MSRXLINE         WRITE OUT MONITOR INFO FOR LINE
 0033CA 58E0 738C/0DEE       03698 21582  1                      ACALL MSEGLNO
 0033D0 5810 6014            00014 21586  1                      L     R1,MSRXSET
 0033D4 58E0 7390/0DEE       0369C 21587  1                      ACALL MSEGNO
 0033DA 5810 6018            00018 21591  1                      L     R1,MSRTCPU
 0033DE 58E0 7394/0DEE       036A0 21592  1                      ACALL MSEGCPU
 0033E4 5810 601C            0001C 21596  1                      L     R1,MSRCNT
 0033E8 58E0 7390/0DEE       0369C 21597  1                      ACALL MSEGNO
 0033EE 1B00/41F0 B050_            21601  1                      TCR
 0033FA 1B00/41F0 B050_            21626  1                      TWRITE
 003406 41F0 B524            00524 21651  1                      LA    R15,CPRG16          GET NEXT SUMMARY RECORD
 00340A 4100 000C            0000C 21652  1                      LA    R0,CP#MSUM
 00340E 58E0 7360/0DEE       0366C 21653  1                      VCALL XSETSET
 003414 41F0 B524            00524 21657  1                      LA    R15,CPRG16
 003418 4100 0010            00010 21658  1                      LA    R0,L'MSRDATA
 00341C 4110 6010            00010 21659  1                      LA    R1,MSRDATA
 003420 4120 6000            00000 21660  1                      LA    R2,MSRNAME
 003424 58E0 739C/0DEE       036A8 21661  1                      VCALL XGETNEXT
 00342A 47F0 7054            03360 21665                       END
                                   21670
 00342E 1BFF                       21671                       CLEAR R15
 003430 18D8/9808 D004_            21675                       PEND  ,
 DROP   SMSWA-(4+36),R8
 DROP   *,R7
 DROP   MSR,R6                     21700                       DROP  R6
 DROP   MNR,R5                     21707                       DROP  R5
1DBUG     (DBUG2163) (12:41) (15MAR04) SHOW MONITOR ROUTINES                                                                Page   93
0Current Usings:  (CP,R11) (CV,R12)
0Loc    Object Code    Addr1 Addr2  Stmt Lv Lineno    Source Statement           (Hibal 5, Asmedit 3.3)  HLASM R4.0  2004/03/15 12.41
+___    ______ ____    _____ _____  ____ __ ______    ______ _________
0                                  21715              ¿þþþþþþþþþþþþþþþþþþþþþþþþþþþþþþþþþþþþþþþþþþþþþþþþþþþþþþþþþþþþþþþþþþþþþÜ
                                   21716              Ÿ                                                                     Ÿ
                                   21717              Ÿ                                                                     Ÿ
                                   21718              Ÿ  SHOWNAMS - SHOW MONITOR EXEC NAMES                                 Ÿ
                                   21719              Ÿ                                                                     Ÿ
                                   21720              Ÿ  ON ENTRY:                                                          Ÿ
                                   21721              Ÿ       MONITOR INFO IN MONITOR RECORD SET.                           Ÿ
                                   21722              Ÿ                                                                     Ÿ
                                   21723              Ÿ                                                                     Ÿ
                                   21724              Ÿ                                                                     Ÿ
                                                      ¾þþþþþþþþþþþþþþþþþþþþþþþþþþþþþþþþþþþþþþþþþþþþþþþþþþþþþþþþþþþþþþþþþþþþþ»
0000000                00000 00050 21725              SMNWA    RECORD BEGIN
 000000                            21733  1           SMNNAME    DS    XL(L'MNR)
 000050                00050 00050 21734                       END
                                   21743              *
                                   21744              *
 00343E 50E0 D000/9008_      00000 21745              SHOWNAMS PROC  SMNWA
 USING  *,R7
 USING  SMNWA-(4+36),R8
 USING  MNR,R6                     21795                       USING MNR,R6
 003458 4160 8028            00000 21804                       LA    R6,SMNNAME
                                   21805
                                   21806                       COMMENT                   INIT WORK AREA
 00345C D74F 8028 8028 00000 00000 21807                       CLEAR SMNNAME
                                   21814
                                   21815                       COMMENT                   WRITE OUT HEADER LINES
 003462 4110 72A0/4100_      036F8 21816                       TSEG  'Monitor Exec Name Data:',,CR
 003474 4110 71E0/4100_      03638 21834                       TSEG  '        ID  Name',,CR
 003486 4770 C7DE            007DE 21852                       BNZ   CVNEXT              IF ATTN, SCRAM
                                   21853
                                   21854                       COMMENT                   LOOP WRITING EXEC SET #/ NAME
 00348A 41F0 B524            00524 21855                       LA    R15,CPRG16
 00348E 4100 000E            0000E 21856                       LA    R0,CP#MNAME
 003492 58E0 7214/0DEE       0366C 21857                       VCALL XSETSET
 003498 41F0 B524            00524 21861                       LA    R15,CPRG16
 00349C 4100 0040            00040 21862                       LA    R0,L'MNRDATA
 0034A0 4110 6010            00010 21863                       LA    R1,MNRDATA
 0034A4 4120 6000            00000 21864                       LA    R2,MNRNAME
 0034A8 58E0 7218/0DEE       03670 21865                       VCALL XGETFRST            GET FIRST RECORD
 0034AE 4770 70B2            0350A 21869                       WHILE Z,BEGIN             LOOP WRITING RECORDS
 0034B2 9001 D000/41D0_      00000 21882  1                      XPUSH R0,R1
 0034BA 5810 6000            00000 21885  1                      L     R1,MNRNMSET
 0034BE 58E0 7244/0DEE       0369C 21886  1                      ACALL MSEGNO              SEG SET NUMBER
 0034C4 4110 7276/4100_      036CE 21890  1                      TSEG  '  '
 0034D6 4BD0 7278/9801_      036D0 21908  1                      XPOP  R0,R1
 0034DE 58E0 7220/0DEE       03678 21911  1                      VCALL SEGFDSN             SEG NAME
 0034E4 1B00/41F0 B050_            21915  1                      TCR
 0034F0 41F0 B524            00524 21940  1                      LA    R15,CPRG16
 0034F4 4100 0040            00040 21941  1                      LA    R0,L'MNRDATA
 0034F8 4110 6010            00010 21942  1                      LA    R1,MNRDATA
 0034FC 4120 6000            00000 21943  1                      LA    R2,MNRNAME
 003500 58E0 7250/0DEE       036A8 21944  1                      VCALL XGETNEXT            GET NEXT RECORD
 003506 47F0 7056            034AE 21948                       END
1DBUG     (DBUG2163) (12:41) (15MAR04) SHOW MONITOR ROUTINES                                                                Page   94
0Current Usings:  (MNR,R6) (*,R7) (SMNWA-(4+36),R8) (CP,R11) (CV,R12)
0Loc    Object Code    Addr1 Addr2  Stmt Lv Lineno    Source Statement           (Hibal 5, Asmedit 3.3)  HLASM R4.0  2004/03/15 12.41
+___    ______ ____    _____ _____  ____ __ ______    ______ _________
0                                  21953
 00350A 1BFF                       21954                       CLEAR R15
 00350C 18D8/9808 D004_            21958                       PEND  ,
 DROP   SMNWA-(4+36),R8
 DROP   *,R7
 DROP   MNR,R6                     21983                       DROP  R6
1DBUG     (DBUG2163) (12:41) (15MAR04) SHOW MONITOR ROUTINES                                                                Page   95
0Current Usings:  (CP,R11) (CV,R12)
0Loc    Object Code    Addr1 Addr2  Stmt Lv Lineno    Source Statement           (Hibal 5, Asmedit 3.3)  HLASM R4.0  2004/03/15 12.41
+___    ______ ____    _____ _____  ____ __ ______    ______ _________
0                                  21991              ¿þþþþþþþþþþþþþþþþþþþþþþþþþþþþþþþþþþþþþþþþþþþþþþþþþþþþþþþþþþþþþþþþþþþþþÜ
                                   21992              Ÿ                                                                     Ÿ
                                   21993              Ÿ                                                                     Ÿ
                                   21994              Ÿ  MSEGLNO - SEG LINE NUMBER IN 10 BYTE FIELD, IE. '  4239.123'       Ÿ
                                   21995              Ÿ                                                                     Ÿ
                                   21996              Ÿ  ON ENTRY:                                                          Ÿ
                                   21997              Ÿ       R1 - LINE NUMBER                                              Ÿ
                                   21998              Ÿ                                                                     Ÿ
                                   21999              Ÿ  NOTE: IF ATTN, EXITS TO CVNEXT                                     Ÿ
                                   22000              Ÿ                                                                     Ÿ
                                   22001              Ÿ                                                                     Ÿ
                                                      ¾þþþþþþþþþþþþþþþþþþþþþþþþþþþþþþþþþþþþþþþþþþþþþþþþþþþþþþþþþþþþþþþþþþþþþ»
000351A 50E0 D000/9008_      00000 22002              MSEGLNO  PROC  ,
 USING  *,R7
                                   22041
 003534 1831                       22042                       LR    R3,R1
 003536 4110 71DB/4100_      0370F 22043                       TSEG  ' '
 003548 1803                       22061                       LR    R0,R3
 00354A 58E0 717C/0DEE       036B0 22062                       VCALL CVEXNO
 003550 4110 BC88/4100_      00C88 22066                       TSEG  CPDOUB,9
 003562 4770 C7DE            007DE 22096                       BNZ   CVNEXT              IF ATTN, OUT OF HERE
                                   22097
 003566 1BFF                       22098                       CLEAR R15
 003568 18D8/9808 D004_            22102                       PEND  ,
 DROP   *,R7
1DBUG     (DBUG2163) (12:41) (15MAR04) SHOW MONITOR ROUTINES                                                                Page   96
0Current Usings:  (CP,R11) (CV,R12)
0Loc    Object Code    Addr1 Addr2  Stmt Lv Lineno    Source Statement           (Hibal 5, Asmedit 3.3)  HLASM R4.0  2004/03/15 12.41
+___    ______ ____    _____ _____  ____ __ ______    ______ _________
0                                  22123              ¿þþþþþþþþþþþþþþþþþþþþþþþþþþþþþþþþþþþþþþþþþþþþþþþþþþþþþþþþþþþþþþþþþþþþþÜ
                                   22124              Ÿ                                                                     Ÿ
                                   22125              Ÿ                                                                     Ÿ
                                   22126              Ÿ  MSEGNO - SEG NUMBER IN 10 BYTE FIELD, IE. '     12340'             Ÿ
                                   22127              Ÿ                                                                     Ÿ
                                   22128              Ÿ  ON ENTRY:                                                          Ÿ
                                   22129              Ÿ       R1 - NUMBER                                                   Ÿ
                                   22130              Ÿ                                                                     Ÿ
                                   22131              Ÿ  NOTE: IF ATTN, EXITS TO CVNEXT                                     Ÿ
                                   22132              Ÿ                                                                     Ÿ
                                   22133              Ÿ                                                                     Ÿ
                                                      ¾þþþþþþþþþþþþþþþþþþþþþþþþþþþþþþþþþþþþþþþþþþþþþþþþþþþþþþþþþþþþþþþþþþþþþ»
0003576 50E0 D000/9008_      00000 22134              MSEGNO   PROC  ,
 USING  *,R7
                                   22173
 003590 1831                       22174                       LR    R3,R1
 003592 1813/4100 000A_            22175                       TNUM  (R3),10
 0035A2 4770 C7DE            007DE 22200                       BNZ   CVNEXT              IF ATTN, OUT OF HERE
                                   22201
 0035A6 1BFF                       22202                       CLEAR R15
 0035A8 18D8/9808 D004_            22206                       PEND  ,
 DROP   *,R7
1DBUG     (DBUG2163) (12:41) (15MAR04) SHOW MONITOR ROUTINES                                                                Page   97
0Current Usings:  (CP,R11) (CV,R12)
0Loc    Object Code    Addr1 Addr2  Stmt Lv Lineno    Source Statement           (Hibal 5, Asmedit 3.3)  HLASM R4.0  2004/03/15 12.41
+___    ______ ____    _____ _____  ____ __ ______    ______ _________
0                                  22227              ¿þþþþþþþþþþþþþþþþþþþþþþþþþþþþþþþþþþþþþþþþþþþþþþþþþþþþþþþþþþþþþþþþþþþþþÜ
                                   22228              Ÿ                                                                     Ÿ
                                   22229              Ÿ                                                                     Ÿ
                                   22230              Ÿ  MSEGCPU - SEG CPU TIME IN 10 BYTE FIELD IE. '   123.321'           Ÿ
                                   22231              Ÿ                                                                     Ÿ
                                   22232              Ÿ  ON ENTRY:                                                          Ÿ
                                   22233              Ÿ       R1 - CPU TIME IN TU'S                                         Ÿ
                                   22234              Ÿ                                                                     Ÿ
                                   22235              Ÿ  NOTE: IF ATTN, EXITS TO CVNEXT                                     Ÿ
                                   22236              Ÿ                                                                     Ÿ
                                   22237              Ÿ                                                                     Ÿ
                                                      ¾þþþþþþþþþþþþþþþþþþþþþþþþþþþþþþþþþþþþþþþþþþþþþþþþþþþþþþþþþþþþþþþþþþþþþ»
00035B6 50E0 D000/9008_      00000 22238              MSEGCPU  PROC  ,
 USING  *,R7
                                   22277              *
                                   22278              * CODE COPIED FROM 'GETCHRG'1 IN ACCT, DIG IT !
                                   22279              *
                                   22280                       COMMENT                   CONVERT FROM TU'S TO VIRT SECS
 0035D0 18F1                       22281                       LR    R15,R1
 0035D2 58E0 70E8/0DEE       036B8 22282                       VCALL CPUFIX              CONVERT TO VIRTURL TU'S
 0035D8 1BEE                       22286                       CLEAR R14
 0035DA 5CE0 70EC            036BC 22290                       M     R14,=F'10'
 0035DE 5DE0 70F0            036C0 22291                       D     R14,=F'384'         1000 THS OF CPU SECONDS
 0035E2 59E0 70F4/4750_      036C4 22292                       IF    (R14,GE,384/2),'INCR R15'  Round
 0035EE 181F                       22317                       LR    R1,R15
                                   22318
                                   22319                       COMMENT                   WRITE LIKE LINE NUMBER NOW
 0035F0 58E0 70C8/0DEE       03698 22320                       ACALL MSEGLNO
                                   22324
 0035F6 1BFF                       22325                       CLEAR R15
 0035F8 18D8/9808 D004_            22329                       PEND  ,
 DROP   *,R7
1DBUG     (DBUG2163) (12:41) (15MAR04) SHOW MONITOR ROUTINES                                                                Page   98
0Current Usings:  (CP,R11) (CV,R12)
0Loc    Object Code    Addr1 Addr2  Stmt Lv Lineno    Source Statement           (Hibal 5, Asmedit 3.3)  HLASM R4.0  2004/03/15 12.41
+___    ______ ____    _____ _____  ____ __ ______    ______ _________
0                                  22350                       QLTORG
                                   22399                       VLTORG
 003738                03738 03738 22408                       END   .

1DBUG     (DBUG2163) (12:41) (15MAR04) Relocation Dictionary                                                                Page   99
-   Pos.Id   Rel.Id   Flags    Address                                                       HLASM R4.0  2004/03/15 12.41
0  00000001 00000001    0C    00000544
   00000001 00000001    0C    00000548
   00000001 00000001    0C    00000550
   00000001 00000001    0C    00000554
   00000001 00000001    0C    0000055C
   00000001 00000001    0C    00000560
   00000001 00000001    0C    00000620
   00000001 00000001    0C    00000648
   00000001 00000001    0C    00000670
   00000001 00000001    0C    00000698
   00000001 00000001    0C    000006C0
   00000001 00000001    0C    000006E8
   00000001 00000001    0C    00000710
   00000001 00000001    0C    00000738
   00000001 00000001    0C    00000760
   00000001 00000001    0C    00000788
   00000001 00000001    0C    000007B0
   00000001 00000001    0C    000007D8
   00000001 00000001    0C    00000800
   00000001 00000001    0C    00000828
   00000001 00000001    0C    00000850
   00000001 00000001    0C    00000878
   00000001 00000001    0C    000008C8
   00000001 00000001    0C    000008F0
   00000001 00000001    0C    00000940
   00000001 00000001    0C    00000968
   00000001 00000001    08    00000CC9
   00000001 00000001    08    00000D25
   00000001 00000001    08    00000D85
   00000001 00000001    0C    000012D4
   00000001 00000001    0C    000012FC
   00000001 00000001    0C    00001324
   00000001 00000001    0C    0000134C
   00000001 00000001    0C    00001430
   00000001 00000001    0C    0000143C
   00000001 00000001    0C    00001440
   00000001 00000001    0C    00001444
   00000001 00000001    0C    0000144C
   00000001 00000001    0C    00001450
   00000001 00000001    0C    00001454
   00000001 00000001    0C    00001460
   00000001 00000001    0C    00001464
   00000001 00000001    0C    00001478
   00000001 00000001    0C    0000148C
   00000001 00000001    0C    00001A60
   00000001 00000001    0C    00001A88
   00000001 00000001    0C    00001AB0
   00000001 00000001    0C    00001FEC
   00000001 00000001    0C    00001FF4
   00000001 00000001    0C    0000200C
   00000001 00000001    0C    0000201C
   00000001 00000001    0C    0000219C
   00000001 00000001    0C    0000224C
   00000001 00000001    0C    00002274
   00000001 00000001    0C    0000229C
1DBUG     (DBUG2163) (12:41) (15MAR04) Relocation Dictionary                                                                Page  100
   00000001 00000001    0C    000022C4
   00000001 00000001    0C    000022EC
   00000001 00000001    0C    0000233C
   00000001 00000001    08    0000299F
   00000001 00000001    08    00002AED
   00000001 00000001    08    00002BFD
   00000001 00000001    0C    00002E08
   00000001 00000001    0C    00002E14
   00000001 00000001    0C    00002E18
   00000001 00000001    0C    00002E20
   00000001 00000001    0C    00002E24
   00000001 00000001    0C    00002E28
   00000001 00000001    0C    00002E2C
   00000001 00000001    0C    00002E30
   00000001 00000001    0C    00002E34
   00000001 00000001    0C    00002E38
   00000001 00000001    0C    00002E54
   00000001 00000001    0C    00002E58
   00000001 00000001    0C    00002E5C
   00000001 00000001    0C    00002E60
   00000001 00000001    0C    00002E6C
   00000001 00000001    0C    00002E8C
   00000001 00000001    0C    0000303C
   00000001 00000001    0C    00003064
   00000001 00000001    0C    0000308C
   00000001 00000001    0C    000030B4
   00000001 00000001    0C    00003648
   00000001 00000001    0C    0000364C
   00000001 00000001    0C    0000365C
   00000001 00000001    0C    00003660
   00000001 00000001    0C    00003664
   00000001 00000001    0C    00003698
   00000001 00000001    0C    0000369C
   00000001 00000001    0C    000036A0
   00000001 00000002    1C    0000054C
   00000001 00000003    1C    00000564
   00000001 00000003    1C    00002044
   00000001 00000003    1C    00002E84
   00000001 00000004    1C    00000568
   00000001 00000004    1C    00001458
   00000001 00000004    1C    00001FE0
   00000001 00000004    1C    00002E70
   00000001 00000004    1C    0000366C
   00000001 00000005    1C    0000056C
   00000001 00000005    1C    00001474
   00000001 00000005    1C    00001FE4
   00000001 00000005    1C    00002E7C
   00000001 00000005    1C    00003670
   00000001 00000006    1C    00000570
   00000001 00000006    1C    00001484
   00000001 00000006    1C    00001FE8
   00000001 00000006    1C    000036A8
   00000001 00000007    1C    0000061C
   00000001 00000007    1C    000008C4
   00000001 00000007    1C    0000093C
   00000001 00000007    1C    000012D0
   00000001 00000007    1C    00001A5C
   00000001 00000007    1C    00003038
   00000001 00000008    1C    00000644
1DBUG     (DBUG2163) (12:41) (15MAR04) Relocation Dictionary                                                                Page  101
   00000001 00000008    1C    0000066C
   00000001 00000008    1C    00000694
   00000001 00000008    1C    000006BC
   00000001 00000008    1C    000006E4
   00000001 00000008    1C    0000070C
   00000001 00000008    1C    00000734
   00000001 00000008    1C    0000075C
   00000001 00000008    1C    00000784
   00000001 00000008    1C    000007AC
   00000001 00000008    1C    000007D4
   00000001 00000008    1C    000007FC
   00000001 00000008    1C    00000824
   00000001 00000008    1C    0000084C
   00000001 00000008    1C    00000874
   00000001 00000008    1C    000008EC
   00000001 00000008    1C    00000964
   00000001 00000008    1C    000012F8
   00000001 00000008    1C    00001320
   00000001 00000008    1C    00001348
   00000001 00000008    1C    00002248
   00000001 00000008    1C    00002270
   00000001 00000008    1C    00002298
   00000001 00000008    1C    000022C0
   00000001 00000008    1C    000022E8
   00000001 00000008    1C    00003060
   00000001 00000008    1C    00003088
   00000001 00000008    1C    000030B0
   00000001 00000009    1C    0000089C
   00000001 00000009    1C    00000914
   00000001 00000009    1C    0000098C
   00000001 00000009    1C    00001370
   00000001 00000009    1C    00001AAC
   00000001 00000009    1C    00002310
   00000001 00000009    1C    00002360
   00000001 00000009    1C    00003100
   00000001 0000000A    1C    000008A0
   00000001 0000000A    1C    00000918
   00000001 0000000A    1C    00000990
   00000001 0000000A    1C    00001374
   00000001 0000000A    1C    00002314
   00000001 0000000A    1C    00002364
   00000001 0000000A    1C    00003104
   00000001 0000000B    1C    00001434
   00000001 0000000B    1C    00001FF8
   00000001 0000000B    1C    00002E0C
   00000001 0000000B    1C    00003650
   00000001 0000000C    1C    00001438
   00000001 0000000C    1C    00001FFC
   00000001 0000000C    1C    00002E10
   00000001 0000000C    1C    00003654
   00000001 0000000D    1C    00001448
   00000001 0000000D    1C    00002E1C
   00000001 0000000E    1C    0000145C
   00000001 0000000E    1C    00002E74
   00000001 0000000F    1C    00001468
   00000001 00000010    1C    0000146C
   00000001 00000010    1C    00003658
   00000001 00000011    1C    00001470
   00000001 00000011    1C    0000204C
1DBUG     (DBUG2163) (12:41) (15MAR04) Relocation Dictionary                                                                Page  102
   00000001 00000011    1C    00002E68
   00000001 00000011    1C    00003668
   00000001 00000012    1C    0000147C
   00000001 00000012    1C    00002038
   00000001 00000012    1C    00002E64
   00000001 00000012    1C    000036AC
   00000001 00000013    1C    00001480
   00000001 00000013    1C    00003678
   00000001 00000014    1C    00001488
   00000001 00000015    1C    00001A84
   00000001 00000016    1C    00001FF0
   00000001 00000016    1C    00002E50
   00000001 00000017    1C    00002008
   00000001 00000018    1C    00002014
   00000001 00000019    1C    00002024
   00000001 0000001A    1C    00002028
   00000001 0000001B    1C    0000202C
   00000001 0000001C    1C    00002030
   00000001 0000001D    1C    00002034
   00000001 0000001E    1C    0000203C
   00000001 0000001E    1C    000036B0
   00000001 0000001F    1C    00002048
   00000001 00000020    1C    00002054
   00000001 00000021    1C    00002198
   00000001 00000022    1C    00002338
   00000001 00000023    1C    00002E40
   00000001 00000024    1C    00002E4C
   00000001 00000025    1C    00002E78
   00000001 00000025    1C    00003674
   00000001 00000026    1C    000030DC
   00000001 00000027    1C    000036A4
   00000001 00000028    1C    000036B4
   00000001 00000029    1C    000036B8

1DBUG     (DBUG2163) (12:41) (15MAR04) Ordinary Symbol and Literal Cross Reference                                          Page  103
-Symbol   Length   Value     Id    R Type   Defn References                                  HLASM R4.0  2004/03/15 12.41
0$$$@R0        1 00000000 FFFFFFFE     J     705  1007
 $$$@R10       1 00000000 FFFFFFF4     J     835  1071
 $$$@R11       1 00000000 FFFFFFF3     J     848  1084
 $$$@R12       1 00000000 FFFFFFF2     J     861  1097
 $$$@R13       1 00000000 FFFFFFF1     J     874  1110
 $$$@R14       1 00000000 FFFFFFF0     J     887  1123
 $$$@R7        1 00000000 FFFFFFF7     J     796  1020
 $$$@R8        1 00000000 FFFFFFF6     J     809  1033   1045
 $$$@R9        1 00000000 FFFFFFF5     J     822  1058
 $$$C1WYLDBUG
               1 00000574 00000001     J    9190  9192  10427  10821  11233
 $$$C2WYLDBUG
               1 0000158A 00000001     J   12801 12803  15544  15842
 $$$C3WYLDBUG
               1 000020B7 00000001     J   16307 16309
 $$$C4WYLDBUG
               1 000021A0 00000001     J   16649 16651  18711  19050  19426
 $$$C5WYLDBUG
               1 00002F80 00000001     J   20434 20436  20921  21332  21741
 $$$C6WYLDBUG
               1 00003710 00000001     J   22394 22396
 $$$C7WYLDBUG
               1 00003738 00000001     J   22411 22413
 $$$RCKLWA
               1 00000000 FFFFFFDF     J    8270  8287   8287
 $$$RCKNWA
               1 00000000 FFFFFFDE     J    8576  8593   8593
 $$$RCKRWA
               1 00000000 FFFFFFDD     J    8882  8899   8899
 $$$RCMWA      1 00000000 FFFFFFD8     J   15826 15841  15841
 $$$RCP        1 00000000 FFFFFFEC     J    2454  4714   6188   6188
 $$$RCV        1 00000000 FFFFFFEE     J    1179  2364   2364
 $$$RDCTWA
               1 00000000 FFFFFFDB     J   10802 10820  10820
 $$$RDEV       1 00000000 FFFFFFEB     J    4668  4713   4713
 $$$RDSHWWA
               1 00000000 FFFFFFDA     J   11217 11232  11232
 $$$RDSTWA
               1 00000000 FFFFFFDC     J   10408 10426  10426
 $$$RDTL       1 00000000 FFFFFFE7     J    6658  6698   6698
 $$$RDTN       1 00000000 FFFFFFE6     J    6705  6745   6745
 $$$RDTR       1 00000000 FFFFFFE5     J    6752  6792   6792
 $$$RGRWA      1 00000000 FFFFFFD7     J   18693 18710  18710
 $$$RGSWA      1 00000000 FFFFFFD6     J   19032 19049  19049
 $$$RGXWA      1 00000000 FFFFFFD5     J   19411 19425  19425
 $$$RJCB       1 00000000 FFFFFFE9     J    6306  6580   6580
 $$$RMMB       1 00000000 FFFFFFE4     J    6816  6837   6837
 $$$RMNR       1 00000000 FFFFFFE0     J    6948  6965   6965
 $$$RMONENTRY
               1 00000000 FFFFFFE3     J    6846  6861   6861
 $$$RMRR       1 00000000 FFFFFFE2     J    6894  6913   6913
 $$$RMSR       1 00000000 FFFFFFE1     J    6920  6941   6941
 $$$RNSCNCB
               1 00000000 FFFFFFED     J    2375  2448   2448
 $$$RSMNWA
1DBUG     (DBUG2163) (12:41) (15MAR04) Ordinary Symbol and Literal Cross Reference                                          Page  104
               1 00000000 FFFFFFD2     J   21727 21740  21740
 $$$RSMRWA
               1 00000000 FFFFFFD4     J   20905 20920  20920
 $$$RSMSWA
               1 00000000 FFFFFFD3     J   21316 21331  21331
 $$$RSTPWA
               1 00000000 FFFFFFD9     J   15530 15543  15543
 $$$RTTYPE
               1 00000000 FFFFFFEA     J    6199  6300   6300
 $$$RXDSNAME
               1 00000000 FFFFFFE8     J    6617  6633   6633
 $$$SEGCB0
               4 00000050 FFFFFFEC     F    2485  2571   2571
 $$$V01       35 00003710 00000001     C   22405 10611  10676  10750  18945  19324  19645
 $$$Z1         4 00001404 00000001     F   12759 10567  10632  10706  10940  11019  11107
 $$$Z3         4 00002194 00000001     F   16645 16432
 $$$Z4         4 00002DE8 00000001     F   20380 17533  17786  17970  18168  18469  18591  18858  19196
 $$$Z5         4 00003608 00000001     F   22356 20503
 $$$100F       2 00000460 00000001     H    8828  8728B  8739B  8754B
 $$$100S       2 00000412 00000001     H    8720  8827B
 $$$104F       2 00000446 00000001     H    8815  8788B  8803B
 $$$104T       2 00000444 00000001     H    8806  8773B
 $$$107        1 0000010C 00000001 A   U    8853  8850   8852
 $$$109B       1 0000048A 00000001     X    8929  8936U
 $$$110F       2 000004B8 00000001     H    9000  8990B
 $$$111F       2 0000052E 00000001     H    9134  9034B  9045B  9060B
 $$$111S       2 000004E0 00000001     H    9026  9133B
 $$$115F       2 00000514 00000001     H    9121  9094B  9109B
 $$$115T       2 00000512 00000001     H    9112  9079B
 $$$118        1 0000010C 00000001 A   U    9159  9156   9158
 $$$120B       1 0000058E 00000001     X    9228  9235U
 $$$121        1 00000050 00000001 A   U    9306  9303   9305
 $$$123B       1 000009AE 00000001     X    9685  9692U
 $$$124        1 00000050 00000001 A   U    9726  9723   9725
 $$$126B       1 000009E8 00000001     X    9752  9759U
 $$$127        1 00000050 00000001 A   U    9793  9790   9792
 $$$129B       1 00000A22 00000001     X    9819  9826U
 $$$130        1 00000050 00000001 A   U    9857  9854   9856
 $$$132B       1 00000A54 00000001     X    9886  9893U
 $$$133        1 00000050 00000001 A   U    9957  9954   9956
 $$$135B       1 00000AD8 00000001     X    9986  9993U
 $$$136        1 00000050 00000001 A   U   10057 10054  10056
 $$$138B       1 00000B5C 00000001     X   10092 10099U
 $$$139        1 00000050 00000001 A   U   10147 10144  10146
 $$$141B       1 00000B98 00000001     X   10182 10189U
 $$$142        1 00000050 00000001 A   U   10229 10226  10228
 $$$144B       1 00000BD0 00000001     X   10262 10269U
 $$$145        1 00000050 00000001 A   U   10311 10308  10310
 $$$147B       1 00000C06 00000001     X   10344 10351U
 $$$148        1 00000050 00000001 A   U   10394 10391  10393
 $$$150B       1 00000C3C 00000001     X   10457 10464U
 $$$151F       2 00000CCC 00000001     H   10619 10568B
 $$$152F       2 00000CCC 00000001     H   10615 10600B
 $$$153B       4 00000CD2 00000001     I   10633 10688
 $$$153F       2 00000D28 00000001     H   10684 10633B 10687
 $$$154F       2 00000D28 00000001     H   10680 10665B
 $$$155E       2 00000D2C 00000001     H   10695 10689
 $$$155F       2 00000D88 00000001     H   10758 10691B 10707B
 $$$157F       2 00000D88 00000001     H   10754 10739B
1DBUG     (DBUG2163) (12:41) (15MAR04) Ordinary Symbol and Literal Cross Reference                                          Page  105
 $$$158        1 00000290 00000001 A   U   10788 10785  10787
 $$$160B       1 00000DB6 00000001     X   10851 10858U
 $$$161F       2 00000E30 00000001     H   11006 10941B
 $$$162F       2 00000E12 00000001     H   10973 10958B
 $$$163F       2 00000E30 00000001     H   11002 10992B
 $$$164B       4 00000E36 00000001     I   11020 11089
 $$$164F       2 00000E76 00000001     H   11085 11020B 11088
 $$$165F       2 00000E58 00000001     H   11052 11037B
 $$$166F       2 00000E76 00000001     H   11081 11071B
 $$$167E       2 00000E7A 00000001     H   11096 11090
 $$$167F       2 00000EC0 00000001     H   11173 11092B 11108B
 $$$169F       2 00000EA2 00000001     H   11140 11125B
 $$$170F       2 00000EC0 00000001     H   11169 11159B
 $$$171        1 00000290 00000001 A   U   11203 11200  11202
 $$$173B       1 00000EEE 00000001     X   11263 11270U
 $$$174B       4 00000F16 00000001     I   11358 11387
 $$$174F       2 00000F2C 00000001     H   11384 11358B 11386
 $$$175E       2 00000F30 00000001     H   11394 11388
 $$$175F       2 00000F46 00000001     H   11418 11390B
 $$$176F       2 00000F60 00000001     H   11457 11431B
 $$$177F       2 00000F98 00000001     H   11548 11470B
 $$$178B       4 00000F6C 00000001     I   11485 11514
 $$$178F       2 00000F82 00000001     H   11511 11485B 11513
 $$$179E       2 00000F86 00000001     H   11521 11515
 $$$179F       2 00000F98 00000001     H   11544 11517B
 $$$180F       2 00001034 00000001     H   11706 11574B
 $$$181F       2 00001034 00000001     H   11702 11613B
 $$$181S       2 00000FDA 00000001     H   11607 11701B
 $$$183F       2 0000100E 00000001     H   11664 11633B
 $$$184F       2 000010EA 00000001     H   11907 11732B
 $$$185F       2 000010EA 00000001     H   11903 11771B
 $$$185S       2 00001076 00000001     H   11765 11902B
 $$$187F       2 000010C4 00000001     H   11865 11852B
 $$$188F       2 000011A0 00000001     H   12108 11933B
 $$$189F       2 000011A0 00000001     H   12104 11972B
 $$$189S       2 0000112C 00000001     H   11966 12103B
 $$$191F       2 0000117A 00000001     H   12066 12053B
 $$$192        1 00000170 00000001 A   U   12138 12135  12137
 $$$194B       1 000011CE 00000001     X   12195 12202U
 $$$195F       2 000011E8 00000001     H   12244 12229B
 $$$196F       2 000011FC 00000001     H   12272 12257B
 $$$197        1 00000050 00000001 A   U   12318 12315  12317
 $$$199B       1 00001238 00000001     X   12354 12361U
 $$$200        1 00000050 00000001 A   U   12455 12452  12454
 $$$202B       1 00001392 00000001     X   12562 12569U
 $$$203        1 00000050 00000001 A   U   12601 12598  12600
 $$$205B       1 000013BE 00000001     X   12629 12636U
 $$$206        1 00000050 00000001 A   U   12676 12673  12675
 $$$208B       1 000013EE 00000001     X   12704 12711U
 $$$209        1 00000050 00000001 A   U   12749 12746  12748
 $$$211B       1 000015A4 00000001     X   12847 12854U
 $$$212F       2 000015B8 00000001     H   12897 12885B
 $$$213F       2 00001634 00000001     H   13041 12928B
 $$$214F       2 00001632 00000001     H   13036 12956B 12967B 12981B
 $$$214S       2 000015F4 00000001     H   12948 13035B
 $$$218B       4 0000160E 00000001     I   12996 13011
 $$$218F       2 00001614 00000001     H   13008 12996B 13010
 $$$219E       2 00001618 00000001     H   13018 13012
 $$$219F       2 0000162E 00000001     H   13031 13014B
1DBUG     (DBUG2163) (12:41) (15MAR04) Ordinary Symbol and Literal Cross Reference                                          Page  106
 $$$220F       2 000016A0 00000001     H   13186 13053B
 $$$221F       2 0000169E 00000001     H   13181 13081B 13092B 13106B
 $$$221S       2 00001654 00000001     H   13073 13180B
 $$$225B       4 0000167A 00000001     I   13139 13156
 $$$225F       2 00001680 00000001     H   13151 13125B 13139B 13153
 $$$226B       4 00001670 00000001     I   13125 13154
 $$$227E       2 00001684 00000001     H   13163 13155  13157
 $$$227F       2 0000169A 00000001     H   13176 13159B
 $$$228        1 00000050 00000001 A   U   13205 13202  13204
 $$$230B       1 000016C8 00000001     X   13256 13263U
 $$$231F       2 000016DC 00000001     H   13306 13294B
 $$$232F       2 00001758 00000001     H   13450 13337B
 $$$233F       2 00001756 00000001     H   13445 13365B 13376B 13390B
 $$$233S       2 00001718 00000001     H   13357 13444B
 $$$237B       4 00001732 00000001     I   13405 13420
 $$$237F       2 00001738 00000001     H   13417 13405B 13419
 $$$238E       2 0000173C 00000001     H   13427 13421
 $$$238F       2 00001752 00000001     H   13440 13423B
 $$$239F       2 000017C4 00000001     H   13595 13462B
 $$$240F       2 000017C2 00000001     H   13590 13490B 13501B 13515B
 $$$240S       2 00001778 00000001     H   13482 13589B
 $$$244B       4 0000179E 00000001     I   13548 13565
 $$$244F       2 000017A4 00000001     H   13560 13534B 13548B 13562
 $$$245B       4 00001794 00000001     I   13534 13563
 $$$246E       2 000017A8 00000001     H   13572 13564  13566
 $$$246F       2 000017BE 00000001     H   13585 13568B
 $$$247        1 00000050 00000001 A   U   13614 13611  13613
 $$$249B       1 000017EC 00000001     X   13665 13672U
 $$$250F       2 00001800 00000001     H   13715 13703B
 $$$251F       2 0000187C 00000001     H   13859 13746B
 $$$252F       2 0000187A 00000001     H   13854 13774B 13785B 13799B
 $$$252S       2 0000183C 00000001     H   13766 13853B
 $$$256B       4 00001856 00000001     I   13814 13829
 $$$256F       2 0000185C 00000001     H   13826 13814B 13828
 $$$257E       2 00001860 00000001     H   13836 13830
 $$$257F       2 00001876 00000001     H   13849 13832B
 $$$258F       2 000018E8 00000001     H   14004 13871B
 $$$259F       2 000018E6 00000001     H   13999 13899B 13910B 13924B
 $$$259S       2 0000189C 00000001     H   13891 13998B
 $$$263B       4 000018C2 00000001     I   13957 13974
 $$$263F       2 000018C8 00000001     H   13969 13943B 13957B 13971
 $$$264B       4 000018B8 00000001     I   13943 13972
 $$$265E       2 000018CC 00000001     H   13981 13973  13975
 $$$265F       2 000018E2 00000001     H   13994 13977B
 $$$266        1 00000050 00000001 A   U   14023 14020  14022
 $$$268B       1 00001910 00000001     X   14065 14072U
 $$$269        1 00000050 00000001 A   U   14181 14178  14180
 $$$271B       1 00001968 00000001     X   14234 14241U
 $$$272        1 00000050 00000001 A   U   14292 14289  14291
 $$$274B       1 000019BC 00000001     X   14335 14342U
 $$$275        1 00000050 00000001 A   U   14464 14461  14463
 $$$277B       1 00001ACE 00000001     X   14539 14546U
 $$$278        1 00000050 00000001 A   U   14580 14577  14579
 $$$280B       1 00001B08 00000001     X   14609 14616U
 $$$281B       4 00001B7E 00000001     I   14682 14700
 $$$281F       2 00001B86 00000001     H   14696 14682B 14699
 $$$282B       4 00001B98 00000001     I   14733 14748
 $$$282E       2 00001B8A 00000001     H   14707 14701
 $$$282F       2 00001BA2 00000001     H   14745 14703B 14733B 14747
1DBUG     (DBUG2163) (12:41) (15MAR04) Ordinary Symbol and Literal Cross Reference                                          Page  107
 $$$282T       2 00001B9C 00000001     H   14736 14722B
 $$$285E       2 00001BA6 00000001     H   14755 14749
 $$$285F       2 00001BB0 00000001     H   14765 14751B
 $$$286        1 00000050 00000001 A   U   14784 14781  14783
 $$$288B       1 00001BDC 00000001     X   14814 14821U
 $$$289F       2 00001BEA 00000001     H   14855 14842B
 $$$290B       4 00001C7C 00000001     I   14953 14971
 $$$290F       2 00001C84 00000001     H   14967 14953B 14970
 $$$291B       4 00001C96 00000001     I   15004 15022
 $$$291E       2 00001C88 00000001     H   14978 14972
 $$$291F       2 00001CA0 00000001     H   15016 14974B 14991B 15004B 15019
 $$$293B       4 00001C8C 00000001     I   14991 15020
 $$$294B       4 00001CB2 00000001     I   15055 15070
 $$$294E       2 00001CA4 00000001     H   15029 15021  15023
 $$$294F       2 00001CBC 00000001     H   15067 15025B 15055B 15069
 $$$294T       2 00001CB6 00000001     H   15058 15044B
 $$$297E       2 00001CC0 00000001     H   15077 15071
 $$$297F       2 00001CCA 00000001     H   15087 15073B
 $$$298        1 00000050 00000001 A   U   15106 15103  15105
 $$$300B       1 00001CF6 00000001     X   15136 15143U
 $$$301F       2 00001D1E 00000001     H   15203 15190B
 $$$301T       2 00001D18 00000001     H   15193 15178B
 $$$303F       2 00001D36 00000001     H   15228 15215B
 $$$304B       4 00001D94 00000001     I   15278 15296
 $$$304F       2 00001D9C 00000001     H   15292 15278B 15295
 $$$305B       4 00001DAE 00000001     I   15329 15344
 $$$305E       2 00001DA0 00000001     H   15303 15297
 $$$305F       2 00001DB8 00000001     H   15341 15299B 15329B 15343
 $$$305T       2 00001DB2 00000001     H   15332 15318B
 $$$308E       2 00001DBC 00000001     H   15351 15345
 $$$308F       2 00001DC6 00000001     H   15361 15347B
 $$$309        1 00000050 00000001 A   U   15380 15377  15379
 $$$311B       1 00001DF2 00000001     X   15424 15431U
 $$$312        1 00000050 00000001 A   U   15490 15487  15489
 $$$314B       1 00001E3E 00000001     X   15573 15580U
 $$$315B       4 00001E60 00000001     I   15650 15691
 $$$315F       2 00001E74 00000001     H   15686 15636B 15650B 15688
 $$$316B       4 00001E58 00000001     I   15636 15689
 $$$317E       2 00001E78 00000001     H   15698 15690  15692
 $$$317F       2 00001E8A 00000001     H   15721 15694B
 $$$318        1 00000090 00000001 A   U   15807 15804  15806
 $$$320B       1 00001EE4 00000001     X   15871 15878U
 $$$321F       2 00001F58 00000001     H   16046 15909B
 $$$322F       2 00001F4C 00000001     H   16015 15979B
 $$$323        1 000000A4 00000001 A   U   16074 16071  16073
 $$$325B       1 00001F82 00000001     X   16114 16121U
 $$$326F       2 00001FBA 00000001     H   16231 16144B
 $$$327        1 00000050 00000001 A   U   16254 16251  16253
 $$$329B       1 000020D2 00000001     X   16349 16356U
 $$$330F       2 0000214E 00000001     H   16533 16433B
 $$$331B       4 00002128 00000001     I   16470 16482
 $$$331F       2 00002130 00000001     H   16479 16470B 16481
 $$$332E       2 00002134 00000001     H   16489 16483
 $$$332F       2 0000214E 00000001     H   16529 16485B
 $$$333        1 00000050 00000001 A   U   16552 16549  16551
 $$$335B       1 00002176 00000001     X   16595 16602U
 $$$336        1 00000050 00000001 A   U   16635 16632  16634
 $$$338B       1 000021BA 00000001     X   16688 16695U
 $$$339        1 00000050 00000001 A   U   16766 16763  16765
1DBUG     (DBUG2163) (12:41) (15MAR04) Ordinary Symbol and Literal Cross Reference                                          Page  108
 $$$341B       1 00002382 00000001     X   16924 16931U
 $$$342        1 00000050 00000001 A   U   16964 16961  16963
 $$$344B       1 000023B6 00000001     X   16993 17000U
 $$$345        1 00000050 00000001 A   U   17068 17065  17067
 $$$347B       1 0000243E 00000001     X   17097 17104U
 $$$348        1 00000050 00000001 A   U   17144 17141  17143
 $$$350B       1 00002474 00000001     X   17173 17180U
 $$$351        1 00000050 00000001 A   U   17215 17212  17214
 $$$353B       1 000024AC 00000001     X   17244 17251U
 $$$354        1 00000050 00000001 A   U   17286 17283  17285
 $$$356B       1 000024E4 00000001     X   17315 17322U
 $$$357        1 00000050 00000001 A   U   17357 17354  17356
 $$$359B       1 0000251C 00000001     X   17394 17401U
 $$$360        1 00000050 00000001 A   U   17466 17463  17465
 $$$362B       1 0000256A 00000001     X   17503 17510U
 $$$363F       2 00002586 00000001     H   17560 17534B
 $$$364        1 00000050 00000001 A   U   17606 17603  17605
 $$$366B       1 000025C0 00000001     X   17641 17648U
 $$$367        1 00000050 00000001 A   U   17719 17716  17718
 $$$369B       1 0000260C 00000001     X   17754 17761U
 $$$370F       2 00002618 00000001     H   17797 17787B
 $$$371F       2 00002672 00000001     H   17856 17836B
 $$$372        1 00000050 00000001 A   U   17879 17876  17878
 $$$374B       1 0000269C 00000001     X   17929 17936U
 $$$375F       2 000026AC 00000001     H   17981 17971B
 $$$376F       2 000026B8 00000001     H   18005 17995B
 $$$377F       2 0000272A 00000001     H   18065 18054B
 $$$377S       2 00002718 00000001     H   18047 18064B
 $$$379        1 00000050 00000001 A   U   18088 18085  18087
 $$$381B       1 00002754 00000001     X   18129 18136U
 $$$382F       2 000027B6 00000001     H   18277 18169B
 $$$383F       2 00002794 00000001     H   18215 18200B
 $$$383S       2 0000277C 00000001     H   18193 18214B
 $$$385F       2 000027B6 00000001     H   18273 18236B
 $$$386F       2 000027B6 00000001     H   18269 18258B
 $$$387        1 00000050 00000001 A   U   18300 18297  18299
 $$$389B       1 000027E0 00000001     X   18334 18341U
 $$$390        1 00000050 00000001 A   U   18392 18389  18391
 $$$392B       1 00002834 00000001     X   18433 18440U
 $$$393F       2 0000285C 00000001     H   18494 18470B
 $$$394        1 00000050 00000001 A   U   18517 18514  18516
 $$$396B       1 00002886 00000001     X   18556 18563U
 $$$397F       2 000028BC 00000001     H   18636 18592B
 $$$398        1 00000050 00000001 A   U   18659 18656  18658
 $$$400B       1 000028E6 00000001     X   18740 18747U
 $$$401F       2 00002940 00000001     H   18872 18844B 18859B
 $$$401S       2 00002926 00000001     H   18835 18871B
 $$$404F       2 000029B4 00000001     H   18964 18886B
 $$$405F       2 000029B4 00000001     H   18960 18915B
 $$$405S       2 00002968 00000001     H   18908 18959B
 $$$407F       2 000029A2 00000001     H   18949 18934B
 $$$408        1 00000088 00000001 A   U   18998 18995  18997
 $$$410B       1 000029EE 00000001     X   19079 19086U
 $$$411F       2 00002A48 00000001     H   19210 19182B 19197B
 $$$411S       2 00002A2E 00000001     H   19173 19209B
 $$$414F       2 00002B02 00000001     H   19343 19224B
 $$$415F       2 00002B02 00000001     H   19339 19253B
 $$$415S       2 00002A70 00000001     H   19246 19338B
 $$$417F       2 00002AAE 00000001     H   19293 19273B
1DBUG     (DBUG2163) (12:41) (15MAR04) Ordinary Symbol and Literal Cross Reference                                          Page  109
 $$$418F       2 00002AF0 00000001     H   19328 19313B
 $$$419        1 0000008C 00000001 A   U   19377 19374  19376
 $$$421B       1 00002B3C 00000001     X   19456 19463U
 $$$422F       2 00002C36 00000001     H   19678 19554B
 $$$422S       2 00002B84 00000001     H   19551 19677B
 $$$424F       2 00002B98 00000001     H   19581 19572B
 $$$425F       2 00002BC0 00000001     H   19613 19602B
 $$$426F       2 00002C00 00000001     H   19649 19634B
 $$$427F       2 00002C62 00000001     H   19731 19694B
 $$$428        1 000000C0 00000001 A   U   19759 19756  19758
 $$$43B        1 0000003E 00000001     X    7003  7010U
 $$$430B       1 00002C8C 00000001     X   19809 19816U
 $$$431B       4 00002C9C 00000001     I   19851 19865
 $$$431F       2 00002CA4 00000001     H   19860 19851B 19864
 $$$432E       2 00002CA8 00000001     H   19872 19866
 $$$432F       2 00002CD0 00000001     H   19925 19868B
 $$$433B       4 00002CAE 00000001     I   19888 19903
 $$$433F       2 00002CB8 00000001     H   19900 19888B 19902
 $$$434E       2 00002CBC 00000001     H   19910 19904
 $$$434F       2 00002CC4 00000001     H   19917 19906B
 $$$435        1 00000050 00000001 A   U   19950 19947  19949
 $$$437B       1 00002CFE 00000001     X   20001 20008U
 $$$438B       4 00002D0E 00000001     I   20043 20057
 $$$438F       2 00002D16 00000001     H   20052 20043B 20056
 $$$439E       2 00002D1A 00000001     H   20064 20058
 $$$439F       2 00002D2E 00000001     H   20076 20060B
 $$$44         1 00000050 00000001 A   U    7139  7136   7138
 $$$440        1 00000050 00000001 A   U   20101 20098  20100
 $$$442B       1 00002D5C 00000001     X   20149 20156U
 $$$443B       4 00002D5E 00000001     I   20176 20188
 $$$443F       2 00002D66 00000001     H   20185 20176B 20187
 $$$444E       2 00002D6A 00000001     H   20195 20189
 $$$444F       2 00002D74 00000001     H   20203 20191B
 $$$445F       2 00002D80 00000001     H   20227 20218B
 $$$446F       2 00002D8C 00000001     H   20248 20239B
 $$$447F       2 00002D98 00000001     H   20269 20260B
 $$$448F       2 00002DD2 00000001     H   20344 20284B 20299B
 $$$45F        2 000001DA 00000001     H    7811  7252B
 $$$450        1 00000050 00000001 A   U   20370 20367  20369
 $$$452B       1 00002F9A 00000001     X   20473 20480U
 $$$453F       2 00002FAA 00000001     H   20516 20504B
 $$$454        1 00000050 00000001 A   U   20579 20576  20578
 $$$456B       1 00003122 00000001     X   20703 20710U
 $$$457        1 00000050 00000001 A   U   20745 20742  20744
 $$$459B       1 0000315A 00000001     X   20774 20781U
 $$$46B        1 000000A6 00000001     X    7223  7230U
 $$$460        1 00000050 00000001 A   U   20816 20813  20815
 $$$462B       1 00003192 00000001     X   20845 20852U
 $$$463        1 00000050 00000001 A   U   20887 20884  20886
 $$$465B       1 000031CA 00000001     X   20950 20957U
 $$$466F       2 000032E2 00000001     H   21256 21066B
 $$$466S       2 0000321E 00000001     H   21063 21255B
 $$$468F       2 00003284 00000001     H   21172 21084B
 $$$469F       2 00003260 00000001     H   21121 21111B
 $$$470        1 000000C0 00000001 A   U   21284 21281  21283
 $$$472B       1 0000330C 00000001     X   21361 21368U
 $$$473F       2 0000342E 00000001     H   21669 21474B
 $$$473S       2 00003360 00000001     H   21471 21668B
 $$$475F       2 000033C6 00000001     H   21580 21492B
1DBUG     (DBUG2163) (12:41) (15MAR04) Ordinary Symbol and Literal Cross Reference                                          Page  110
 $$$476F       2 000033A2 00000001     H   21529 21519B
 $$$477        1 000000C4 00000001 A   U   21697 21694  21696
 $$$479B       1 00003458 00000001     X   21770 21777U
 $$$48F        2 000000C6 00000001     H    7286  7272B
 $$$480F       2 0000350A 00000001     H   21952 21877B
 $$$480S       2 000034AE 00000001     H   21874 21951B
 $$$482        1 000000A0 00000001 A   U   21980 21977  21979
 $$$484B       1 00003534 00000001     X   22025 22032U
 $$$485        1 00000050 00000001 A   U   22119 22116  22118
 $$$487B       1 00003590 00000001     X   22157 22164U
 $$$488        1 00000050 00000001 A   U   22223 22220  22222
 $$$49B        4 000000D6 00000001     I    7325  7382
 $$$49F        2 000000F2 00000001     H    7374  7313B  7325B  7379
 $$$490B       1 000035D0 00000001     X   22261 22268U
 $$$491F       2 000035EE 00000001     H   22316 22304B
 $$$492        1 00000050 00000001 A   U   22346 22343  22345
 $$$50B        4 000000CE 00000001     I    7313  7380
 $$$51B        4 00000102 00000001     I    7412  7468
 $$$51E        2 000000F6 00000001     H    7389  7381   7383
 $$$51F        2 0000011E 00000001     H    7460  7385B  7400B  7412B  7465
 $$$53B        4 000000FA 00000001     I    7400  7466
 $$$54B        4 00000126 00000001     I    7484  7548
 $$$54E        2 00000122 00000001     H    7475  7467   7469
 $$$54F        2 00000154 00000001     H    7542  7471B  7484B  7547
 $$$56B        4 00000164 00000001     I    7578  7615
 $$$56E        2 00000158 00000001     H    7555  7549
 $$$56F        2 00000174 00000001     H    7607  7551B  7566B  7578B  7612
 $$$58B        4 0000015C 00000001     I    7566  7613
 $$$59B        4 00000184 00000001     I    7645  7681
 $$$59E        2 00000178 00000001     H    7622  7614   7616
 $$$59F        2 00000194 00000001     H    7673  7618B  7633B  7645B  7678
 $$$61B        4 0000017C 00000001     I    7633  7679
 $$$62B        4 0000019C 00000001     I    7697  7757
 $$$62E        2 00000198 00000001     H    7688  7680   7682
 $$$62F        2 000001C2 00000001     H    7751  7684B  7697B  7756
 $$$64F        2 000001A8 00000001     H    7725  7714B
 $$$65E        2 000001C6 00000001     H    7764  7758
 $$$65F        2 000001DA 00000001     H    7801  7760B  7773B
 $$$67         1 00000050 00000001 A   U    7820  7817   7819
 $$$69B        1 00000202 00000001     X    7861  7868U
 $$$70F        2 0000023E 00000001     H    7987  7888B
 $$$71B        4 00000212 00000001     I    7906  7930
 $$$71F        2 00000220 00000001     H    7924  7906B  7929
 $$$72E        2 00000224 00000001     H    7937  7931
 $$$72F        2 0000023E 00000001     H    7983  7933B  7946B
 $$$74F        2 0000023E 00000001     H    7979  7965B
 $$$75         1 00000050 00000001 A   U    8010  8007   8009
 $$$77B        1 00000268 00000001     X    8051  8058U
 $$$78F        2 000002C8 00000001     H    8225  8078B
 $$$79B        4 00000276 00000001     I    8095  8115
 $$$79F        2 0000027E 00000001     H    8110  8095B  8114
 $$$80E        2 00000282 00000001     H    8122  8116
 $$$80F        2 000002C8 00000001     H    8221  8118B
 $$$81B        4 00000288 00000001     I    8136  8162
 $$$81F        2 000002A0 00000001     H    8156  8136B  8161
 $$$82E        2 000002A4 00000001     H    8169  8163
 $$$82F        2 000002C8 00000001     H    8217  8165B  8178B
 $$$84F        2 000002C8 00000001     H    8213  8197B
 $$$85         1 00000050 00000001 A   U    8248  8245   8247
1DBUG     (DBUG2163) (12:41) (15MAR04) Ordinary Symbol and Literal Cross Reference                                          Page  111
 $$$87B        1 000002F2 00000001     X    8317  8324U
 $$$88F        2 0000031C 00000001     H    8388  8378B
 $$$89F        2 00000392 00000001     H    8522  8422B  8433B  8448B
 $$$89S        2 00000344 00000001     H    8414  8521B
 $$$93F        2 00000378 00000001     H    8509  8482B  8497B
 $$$93T        2 00000376 00000001     H    8500  8467B
 $$$96         1 00000100 00000001 A   U    8547  8544   8546
 $$$98B        1 000003BC 00000001     X    8623  8630U
 $$$99F        2 000003EA 00000001     H    8694  8684B
 @RAR          0 00000000 FFFFFFF0     @    1124  2162   2170B
 @R0           0 00000000 FFFFFFFE     @     706   982U
 @R1           0 00000000 FFFFFFFD     @     719   978U  2168   2169   8661   8669   8967   8975  14732  15003  15054
                                                 15328  15897  18674U 19013U 19392U
 @R10          0 00000000 FFFFFFF4     @     836   942U
 @R11          0 00000000 FFFFFFF3     @     849   938U
 @R12          0 00000000 FFFFFFF2     @     862   934U
 @R13          0 00000000 FFFFFFF1     @     875   930U
 @R14          0 00000000 FFFFFFF0     @     888   926U
 @R15          0 00000000 FFFFFFEF     @     901   922U 16415U 16523U
 @R2           0 00000000 FFFFFFFC     @     732   974U
 @R3           0 00000000 FFFFFFFB     @     745   970U 15498U
 @R4           0 00000000 FFFFFFFA     @     758   966U 11309U 12160U 13138  13547  13956  15505U
 @R5           0 00000000 FFFFFFF9     @     771   962U 12153U 12908  12980  13105  13124  13317  13389  13514  13533
                                                 13726  13798  13923  13942  15512U 20991U 21299U 21712U
 @R6           0 00000000 FFFFFFF8     @     784   958U  8555U  8861U  9167U 11295U 12146U 13213U 13622U 14031U 17887U
                                                 18096U 18667U 19006U 19385U 19767U 19958U 20109U 21292U 21705U 21988U
 @R7           0 00000000 FFFFFFF7     @     797   954U  7128U  7809U  7999U  8237U  8536U  8842U  9148U  9295U  9715U
                                                  9782U  9846U  9946U 10046U 10136U 10218U 10300U 10383U 10777U 11192U
                                                 12127U 12307U 12444U 12590U 12665U 12738U 13194U 13603U 14012U 14170U
                                                 14281U 14453U 14569U 14773U 15095U 15369U 15479U 15796U 16063U 16243U
                                                 16541U 16624U 16755U 16953U 17057U 17133U 17204U 17275U 17346U 17455U
                                                 17595U 17708U 17868U 18077U 18289U 18381U 18506U 18648U 18987U 19366U
                                                 19748U 19939U 20090U 20359U 20568U 20734U 20805U 20876U 21273U 21686U
                                                 21969U 22108U 22212U 22335U
 @R8           0 00000000 FFFFFFF6     @     810   950U  8531U  8837U  9143U 10772U 11187U 12122U 15791U 16058U 18982U
                                                 19361U 19743U 21268U 21681U 21964U
 @R9           0 00000000 FFFFFFF5     @     823   946U
 ABSCENT       1 00000000 00000000 A   T    2178  2178
 ADDMMEM       2 00002682 00000001     H   17910 20416
 ASCTBL        1 00000000 00000000 A   T    2186  2186
 BLTBL         1 00000000 00000000 A   T    2188  2188
 BR            7 00000007 00000001 A   #    1014  6998M  7218M  7856M  8046M  8312M  8618M  8924M  9223M  9680M  9747M
                                                  9814M  9881M  9981M 10087M 10177M 10257M 10339M 10452M 10846M 11258M
                                                 12190M 12349M 12557M 12624M 12699M 12842M 13251M 13660M 14060M 14229M
                                                 14330M 14534M 14604M 14809M 15131M 15419M 15568M 15866M 16109M 16344M
                                                 16590M 16683M 16919M 16988M 17092M 17168M 17239M 17310M 17389M 17498M
                                                 17636M 17749M 17924M 18124M 18329M 18428M 18551M 18735M 19074M 19451M
                                                 19804M 19996M 20144M 20468M 20698M 20769M 20840M 20945M 21356M 21765M
                                                 22020M 22152M 22256M
 CALLMSG       2 00001ECA 00000001     H   15850  9182
 CHECKIOB      1 00000000 00000000 A   T    2234  2234
 CHKLINE       2 000002D8 00000001     H    8296  9178
 CHKNAME       2 000003A2 00000001     H    8602  9181
 CHKOFLOW      2 0000286C 00000001     H   18537 20402
 CHKRET        2 00000470 00000001     H    8908  9184
 CKLLINE       4 00000004 FFFFFFDF     F    8277  8355M  8447   8481
 CKLSET        4 00000000 FFFFFFDF     F    8276  8354M  8366
 CKLTRAP      88 00000058 FFFFFFDF     X    8280  8351   8362M  8362
 CKLWA       176 00000000 FFFFFFDF     J    8287  8309   8338U  8544   8546   8547
1DBUG     (DBUG2163) (12:41) (15MAR04) Ordinary Symbol and Literal Cross Reference                                          Page  112
 CKLXNAME     64 00000018 FFFFFFDF     X    8279  8367   8496
 CKNNAME      16 00000008 FFFFFFDE     X    8584  8661M  8753   8787
 CKNSET        4 00000000 FFFFFFDE     F    8582  8660M  8672
 CKNTRAP     100 00000058 FFFFFFDE     X    8586  8657   8668M  8668
 CKNWA       188 00000000 FFFFFFDE     J    8593  8615   8644U  8850   8852   8853
 CKNXNAME     64 00000018 FFFFFFDE     X    8585  8673   8802
 CKRNAME      16 00000008 FFFFFFDD     X    8890  8967M  9059   9093
 CKRSET        4 00000000 FFFFFFDD     F    8888  8966M  8978
 CKRTRAP     100 00000058 FFFFFFDD     X    8892  8963   8974M  8974
 CKRWA       188 00000000 FFFFFFDD     J    8899  8921   8950U  9156   9158   9159
 CKRXNAME     64 00000018 FFFFFFDD     X    8891  8979   9108
 CLRMINFO      2 000027C6 00000001     H   18315 20393
 CLRMMEM       2 0000273A 00000001     H   18110 20392
 CLRTRAPS      2 0000194E 00000001     H   14215 16270
 CM#XSET       4 00000000 FFFFFFD8     F   15832 15896M 15908  16002
 CMPNAME      16 00000004 FFFFFFD8     X   15833 15897M 15945  15952  15978
 CMWA         84 00000000 FFFFFFD8     J   15841 15863  15892U 16071  16073  16074
 CMXNAME      64 00000014 FFFFFFD8     X   15834 16003
 COLLOPTS      1 00000000 00000010     T   12778 12778  22364
 COLLPSH       1 00000000 00000026     T   20660 20660
 COMMAND       1 00000000 00000000 A   T    2174  2174
 COMMSEG       1 00000000 00000000 A   T    2175  2175
 CP         4096 00000000 FFFFFFEC     J    6188  1163U
 CP#LTRAP      1 0000000F FFFFFFEC A   U    3938  8392  10581  10975  11552  12912  14253
 CP#MNAME      1 0000000E FFFFFFEC A   U    3937 18365  19615  21092  21500  21856
 CP#MRAW       1 0000000B FFFFFFEC A   U    3935 18353  18812  21045  21239
 CP#MSUM       1 0000000C FFFFFFEC A   U    3936 18359  19151  19524  19660  21453  21652
 CP#NTRAP      1 00000010 FFFFFFEC A   U    3939  8698  10646  11054  11710  13321  14259
 CP#RTRAP      1 00000011 FFFFFFEC A   U    3940  9004  10720  11142  11911  13730  14265
 CP#XSET       4 00000778 FFFFFFEC     F    4151  7249   7260   7887   8077  16616
 CP#XSTK       1 00000010 FFFFFFEC A   U    3920  3921
 CPACFLG       1 000005D5 FFFFFFEC     R    4023  4027   4032   4037   4042   4047
 CPACFLN       4 000005C4 FFFFFFEC     F    4015  4050   4050
 CPAFLAG       1 000005C3 FFFFFFEC     R    3987  3991   3996   4001   4006
 CPANAME       8 00000588 FFFFFFEC     C    3969  4065   4065
 CPAUTFLG      1 000008A9 FFFFFFEC     R    4333  4337   4342   4347   4352
 CPCHFLAG      1 00000B68 FFFFFFEC     R    4960  4964
 CPDFLG        1 0000084C FFFFFFEC     R    4220  4224   4229   4234   4239   4244
 CPDFLG2       1 0000084D FFFFFFEC     R    4249  4253   4258   4263   4268   4273   4278
 CPDOUB        8 00000C88 FFFFFFEC     D    5206 22076
 CPERRID       8 00000886 FFFFFFEC     C    4319  9703M  9770M 14557M
 CPEXFLG       1 00000758 FFFFFFEC     R    4089  4093
 CPEXFLG2      1 00000759 FFFFFFEC     R    4099  4108   4118
 CPEXFLG3      1 0000075A FFFFFFEC     R    4125  4129   4134
 CPEXLINE      4 0000075C FFFFFFEC     F    4142  7261   7530   7739   8145   8202  16615
 CPEXNEXT      4 00000760 FFFFFFEC     F    4143  7530M  7739M  8145M  8202M
 CPEXTFLG      1 00000E28 FFFFFFEC     R    5771  5775   5780   5785   5790   5795   5800
 CPFABORT    128 00000D5A FFFFFFEC         5537  2138M  2138   2143M  2143
 CPFBIGXMON
              64 0000047F FFFFFFEC         3826 17852M 18235  18247M
 CPFDEBUG    128 0000084C FFFFFFEC         4224  7027M 10127M 10542M 10915M 11357  12228  12377M 14095M
 CPFDNEXT    128 0000084D FFFFFFEC         4253  7048M  7324   7336M  7411   7423M  7495M  7577   7589M  7644   7656M
                                                  7713   7772   7784M 12286M 14123M
 CPFDSTOP     64 0000084D FFFFFFEC         4258  7055M  7282M  7343M  7429M  7502M  7596M  7662M  7696   7732M  7790M
                                                  7920M  7975M 14130M
 CPFDSTPD     32 0000084D FFFFFFEC         4263  7062M  7350M  7436M  7509M  7565   7603M  7632   7669M  7738M  7797M
                                                 14137M
 CPFERROR     64 00000D5A FFFFFFEC         5542  2137M  2137   2142M  2142
 CPFEXEC     128 00000758 FFFFFFEC         4093 12256  12294M
1DBUG     (DBUG2163) (12:41) (15MAR04) Ordinary Symbol and Literal Cross Reference                                          Page  113
 CPFIDONE      4 0000084D FFFFFFEC         4278  7083M  7298M  7370M  7456M  7529M  8094   8106M 14158M
 CPFISTOP     16 0000084D FFFFFFEC         4268  7069M  7357M  7443M  7483   7516M  8151M  8208M 14144M
 CPFISTPD      8 0000084D FFFFFFEC         4273  7076M  7312   7364M  7399   7450M  7522M 14151M
 CPFMON      128 0000084F FFFFFFEC         4291  7099M 17447M 17569M 17675M
 CPFNTEX       1 00000040 FFFFFFEC A   U    5389  5390
 CPFRDRNG      1 00000D88 FFFFFFEC     R    5657  5661   5666   5671   5676   5681   5686   5691
 CPFRDSRC      1 00000D89 FFFFFFEC     R    5696  5705   5715   5725
 CPFTRACE     64 0000084C FFFFFFEC         4229  7034M  7945   8177  11469  12386M 12583M 12651M 12725M 14102M
 CPFTTRAP     32 0000084C FFFFFFEC         4234  7041M  7964   8196  11484  12393M 12658M 12731M 14109M
 CPFUNUM       1 00000080 FFFFFFEC A   U    5388  5390
 CPFXDFLG      1 000007E4 FFFFFFEC     R    4167  4171   4176
 CPFXLOG      16 0000084C FFFFFFEC         4239 10291M 10374M 11430  14116M
 CPGFLG1       1 00000474 FFFFFFEC     R    3530  3534   3539   3544   3549   3554   3884   3884
 CPGFLG10      1 0000047D FFFFFFEC     R    3767  3771   3776   3781   3786   3791   3796
 CPGFLG11      1 0000047E FFFFFFEC     R    3802  3806   3811
 CPGFLG12      1 0000047F FFFFFFEC     R    3817  3821   3826   3831
 CPGFLG13      1 00000480 FFFFFFEC     R    3837  3841
 CPGFLG14      1 00000481 FFFFFFEC     R    3847  3851   3856   3861   3866   3871
 CPGFLG4       1 00000477 FFFFFFEC     R    3583  3594   3603   3612   3621   3630
 CPGFLG5       1 00000478 FFFFFFEC     R    3636  3640   3645   3650   3655   3660   3665   3670   3675
 CPGFLG6       1 00000479 FFFFFFEC     R    3681  3685   3690   3695
 CPGFLG7       1 0000047A FFFFFFEC     R    3701  3705   3710   3715   3720
 CPGFLG8       1 0000047B FFFFFFEC     R    3726  3730   3735   3740   3745
 CPGFLG9       1 0000047C FFFFFFEC     R    3751  3755   3761
 CPINIT        1 00000174 FFFFFFEC     U    2700  6157
 CPJESFLG      1 000009E1 FFFFFFEC     R    4432  4436   4441   4446   4451   4456   4461   4466   4471
 CPJESFLY      1 000009FD FFFFFFEC     R    4482  4486   4491   4496
 CPJESHFL      1 000009E0 FFFFFFEC     R    4417  4421   4426   4505   4505
 CPLFLG10      1 00000D59 FFFFFFEC     R    5523  5527
 CPLFLG11      1 00000D5A FFFFFFEC     R    5533  5537   5542   5547   5552
 CPLFLG12      1 00000D5B FFFFFFEC     R    5558  5562
 CPLFLG14      1 00000D5C FFFFFFEC     R    5568  5572   5577   5582   5587   5592
 CPLFLG6       1 00000D55 FFFFFFEC     R    5398  5402   5407   5412   5417   5422   5427
 CPLFLG7       1 00000D56 FFFFFFEC     R    5433  5437   5442   5447   5452   5457
 CPLFLG8       1 00000D57 FFFFFFEC     R    5463  5467   5472   5477   5482
 CPLFLG9       1 00000D58 FFFFFFEC     R    5488  5492   5497   5502   5507   5512   5517
 CPLOCALZ      1 00000C48 FFFFFFEC     U    4990  6151   6151
 CPMFLG        1 0000084F FFFFFFEC     R    4287  4291
 CPMODFLG      1 00000C78 FFFFFFEC     R    5018  5022   5027   5032   5037   5042
 CPMONCPU      4 00000858 FFFFFFEC     F    4296  7113M  7113  16384  16417M 16445  16525M 17441M 17441  17583M 17583
                                                 17689M 17689
 CPMONMAX      4 0000085C FFFFFFEC     F    4297  7120M  7120  17119M 17119  17416M 17696M 17696  17835  17994  19887
                                                 20217  20223
 CPMONPTR      4 00000854 FFFFFFEC     F    4295  7106M  7106  16383  16613  17533  17576M 17576  17682M 17682  17786
                                                 17805M 17954  17970  18013M 18168  18176  18224M 18224  18469  18577
                                                 18786  18968M 19125  19347M 19834  19913M 19919  20026  20068M 20070
                                                 20503
 CPNAMELN      1 00000010 FFFFFFEC A   U    3913  4160
 CPNEDPFX     10 00000E29 FFFFFFEC     X    5804  5805   5806
 CPNSCANP      4 0000008C FFFFFFEC     A    2573  9248   9255   9271   9904   9911   9927  10004  10011  10027  12397
                                                 12404  12420  14408  14415  14431  14635  14642  14657  14671  14858
                                                 14879  14906  14913  14928  14942  15231  15238  15253  15267  16708
                                                 16715  16731  17015  17022  17038  20521  20528  20544
 CPNUMFLG      1 00000C79 FFFFFFEC     R    5048  5060
 CPORVCMD      1 00000140 FFFFFFEC     R    2582  2586   2591   2596   2601   2606   2611   2616   2621   2626   2626
                                                  2677   2677
 CPORVFLG      1 00000149 FFFFFFEC     R    2633  2637   2642   2647   2652   2657   2662   2667   2672
 CPORVWF       1 00000150 FFFFFFEC     R    2685  2689
 CPOSCANX      4 00000CA8 FFFFFFEC     F    5217  5284   5284
1DBUG     (DBUG2163) (12:41) (15MAR04) Ordinary Symbol and Literal Cross Reference                                          Page  114
 CPR          11 0000000B 00000001 A   #    1078  1163U
 CPRACBAD     16 000001FC FFFFFFEC         2751  2785   2785   2786   2786
 CPRACF1       1 000001FC FFFFFFEC     R    2732  2736   2741   2746   2751   2756   2761   2766   2771   2787
 CPRACPSW     32 000001FC FFFFFFEC         2746  2784   2784   2786   2786
 CPRACUND     64 000001FC FFFFFFEC         2741  2784   2784   2785   2785
 CPRCVCUR      4 00000730 FFFFFFEC     A    4068  4070   4070
 CPRFLG        1 000008AA FFFFFFEC     R    4358  4362   4367   4372   4377   4382   4387
 CPRG16       32 00000524 FFFFFFEC     X    3907  8391   8399   8510   8697   8705   8816   9003   9011   9122  10580
                                                 10586  10645  10651  10719  10725  10974  10980  11053  11059  11141
                                                 11147  11551  11557  11690  11709  11715  11891  11910  11916  12092
                                                 12911  12933  13020  13058  13165  13320  13342  13429  13467  13574
                                                 13729  13751  13838  13876  13983  14252  14258  14264  18352  18358
                                                 18364  18811  18891  19150  19229  19523  19529  19614  19620  19659
                                                 19665  21044  21050  21091  21097  21238  21244  21452  21458  21499
                                                 21505  21651  21657  21855  21861  21940
 CPRG64NL      1 00000040 FFFFFFEC A   U    3912  6636   6637
 CPS         254 00000344 FFFFFFEC     X    3502  3505   3506   3508   3508
 CPSACCT       5 000003B4 FFFFFFEC     C    3101  3264   3264
 CPSAMCOD      1 00000A22 FFFFFFEC     R    4554  4562   4572   4582   4591   4600   4609   4619   4628   4637
 CPSAMFLG      1 00000A21 FFFFFFEC     R    4514  4518   4523   4528   4533   4538   4543   4548   4659   4659
 CPSCNFLG      1 00000CD0 FFFFFFEC     R    5230  5241   5250   5261
 CPSCNF2       1 00000CD1 FFFFFFEC     R    5266  5270
 CPSCNMAX      1 00000014 FFFFFFEC A   U    5282  5283
 CPSCRI        2 00000434 FFFFFFEC     H    3491  3496   3496
 CPSEG        60 00000050 FFFFFFEC     X    2571 11376  11409  11449  11503  11536  11592  11651  11685  11750  11789
                                                 11819  11837  11886  11951  11990  12020  12038  12087  15617  15678
                                                 15713  15736  15775  15930  15960  15997  16038  16166  16196  16223
                                                 18610  18628  19716  20317  20335  21036  21146  21164  21208  21233
                                                 21444  21554  21572  21621  21646  21829  21847  21903  21935  22056
                                                 22091  22195
 CPSEGCOD      1 00000050 FFFFFFEC     R    2488  2497   2507   2517   2527   2537   2547   2557
 CPSFL         1 00000384 FFFFFFEC     R    2839  2843   2848   2853   2858   2863
 CPSFLG        1 000003F8 FFFFFFEC     R    3379  3383   3388   3393   3398   3403   3408   3413   3418
 CPSFLG2       1 000003F9 FFFFFFEC     R    3424  3428   3433   3438
 CPSFL2        1 00000385 FFFFFFEC     R    2869  2873   2878   2883   2888
 CPSFL3        1 00000386 FFFFFFEC     R    2894  2898   2903   2908
 CPSFL4        1 00000387 FFFFFFEC     R    2914  2918   2923   2928
 CPSFL5        1 00000388 FFFFFFEC     R    2934  2938   2943   2948
 CPSKAFL       1 000003BF FFFFFFEC     R    3235  3239   3244   3249   3254   3259
 CPSKIFL       1 000003BE FFFFFFEC     R    3190  3194   3199   3204   3209   3214   3219   3224   3229
 CPSOF         1 000001F8 FFFFFFEC     X    2722  2724   2724
 CPSOFLAG      1 00000416 FFFFFFEC     R    3449  3453   3458   3463   3468   3473
 CPSOPST       4 000003C4 FFFFFFEC     F    3269  3498   3498
 CPSPORT       8 00000354 FFFFFFEC     C    2833  2953   2953
 CPSQFLG       1 000003EC FFFFFFEC     R    3298  3302
 CPSSFLG       1 000003BB FFFFFFEC     R    3108  3112   3117   3122   3127   3132   3137
 CPSSTART      4 00000344 FFFFFFEC     F    2825  2829   2829   3265   3265   3370   3370   3502   3502
 CPSSTAT       1 0000038F FFFFFFEC     R    3045  3049   3054   3059   3064   3069   3074   3079
 CPSTACF       1 000003BC FFFFFFEC     R    3143  3147   3152   3157   3162   3167   3172   3177   3182
 CPSTART       4 00000000 FFFFFFEC     C    2461  6155   6159
 CPSTFLAG      1 000003EA FFFFFFEC     R    3276  3280   3285   3290
 CPSTYPE       1 0000038C FFFFFFEC     R    2958  2967   2977   2987   2997   3007   3017   3027   3037
 CPSUFLG       1 000003EE FFFFFFEC     R    3313  3317   3322   3327   3332   3337   3342   3347   3352
 CPSUFLG2      1 000003EF FFFFFFEC     R    3358  3362   3367
 CPSVPGM       8 0000039C FFFFFFEC     C    3091  3097   3097
 CPS1ST        4 0000038C FFFFFFEC     F    2955  3500   3500
 CPTEMPP#      1 0000005F FFFFFFEC A   U    4408  4410
 CPTRAPSQ      4 00000850 FFFFFFEC     F    4294  7090M  7090  14627  14631M 14898  14902M
 CPTRMFL1      1 00000C7A FFFFFFEC     R    5066  5070   5075   5080   5204   5204
1DBUG     (DBUG2163) (12:41) (15MAR04) Ordinary Symbol and Literal Cross Reference                                          Page  115
 CPTRMFL2      1 00000C7B FFFFFFEC     R    5086  5090   5095   5100   5105   5110   5115
 CPTRMFL3      1 00000C7C FFFFFFEC     R    5121  5125   5130   5135   5140   5145   5150   5155
 CPTRMFL4      1 00000C7D FFFFFFEC     R    5161  5165   5170   5175   5180   5185   5190   5195
 CPUFIX        1 00000000 00000029     T   22382 22382
 CPUSED        1 00000FBC FFFFFFEC A   U    6155  6156
 CPVACURS      8 00000AF0 FFFFFFEC     D    4933  4934   4935
 CPVCURS       8 00000AE0 FFFFFFEC     D    4927  4928   4929
 CPVFLAG       1 00000AC8 FFFFFFEC     R    4728  4732   4737   4742   4747   4752
 CPVFLAG2      1 00000AC9 FFFFFFEC     R    4758  4762   4767   4772   4777   4782   4787
 CPVFLAG3      1 00000ACA FFFFFFEC     R    4793  4797   4802   4807   4812   4817   4822
 CPVFLAG4      1 00000ACB FFFFFFEC     R    4828  4832   4837   4842
 CPVLFLAG      1 00000ACE FFFFFFEC     R    4897  4901   4906   4911
 CPVMODE       1 00000ACC FFFFFFEC     R    4850  4854   4859   4864   4869   4874   4879   4884   4889
 CPVTWID       2 00000AD0 FFFFFFEC     H    4917  4920   4920
 CPWK1         4 00000D60 FFFFFFEC     F    5601  5616   5639
 CPWK2         4 00000D64 FFFFFFEC     F    5602  5617   5631
 CPWK3         4 00000D68 FFFFFFEC     F    5603  5618   5632
 CPWK4         4 00000D6C FFFFFFEC     F    5604  5619   5633
 CPWK5         4 00000D70 FFFFFFEC     F    5605  5621   5626   5634
 CPWK6         4 00000D74 FFFFFFEC     F    5606  5622   5627   5635   5642   5644
 CPWK7         4 00000D78 FFFFFFEC     F    5607  5620   5636
 CPXFLAG       1 000007FD FFFFFFEC     R    4195  4199
 CPXSTATE      4 000007F8 FFFFFFEC     F    4189  4202   4202
 CV         4016 00000000 FFFFFFEE     J    2364  1172U
 CV#FEXEC      1 00000800 FFFFFFEE A   U    1599  9177   9183  16295  20413
 CVABSRTN      4 0000088C FFFFFFEE     V    2178  2153
 CVABTMSG      4 000007CC FFFFFFEE     I    2138  9775B
 CVBRMSK       1 00000751 FFFFFFEE     X    2094  2095   2096
 CVCFLAG       1 00000A00 FFFFFFEE     R    2259  2263   2268   2273   2278   2283
 CVCHKST       8 000009F0 FFFFFFEE     D    2249  2339   2339
 CVCHKST2      8 00000E28 FFFFFFEE     D    2342  2345   2345
 CVCOMRTN      4 0000087C FFFFFFEE     V    2174  2144
 CVCURJCB      4 000001C8 FFFFFFEE     A    1443 16392  16500
 CVDBGFLG      1 000004CC FFFFFFEE     R    1948  1952
 CVENT         4 0000074C FFFFFFEE     I    2092  6998B  7218B  7856B  8046B  8312B  8618B  8924B  9223B  9680B  9747B
                                                  9814B  9881B  9981B 10087B 10177B 10257B 10339B 10452B 10846B 11258B
                                                 12190B 12349B 12557B 12624B 12699B 12842B 13251B 13660B 14060B 14229B
                                                 14330B 14534B 14604B 14809B 15131B 15419B 15568B 15866B 16109B 16344B
                                                 16590B 16683B 16919B 16988B 17092B 17168B 17239B 17310B 17389B 17498B
                                                 17636B 17749B 17924B 18124B 18329B 18428B 18551B 18735B 19074B 19451B
                                                 19804B 19996B 20144B 20468B 20698B 20769B 20840B 20945B 21356B 21765B
                                                 22020B 22152B 22256B
 CVENTBR       2 00000750 FFFFFFEE     I    2093  2094
 CVERRMSG      4 000007C8 FFFFFFEE     I    2137  9708B 10969B 11048B 11136B 12240B 12268B 14562B 16946B 19727B
 CVERROR       4 000007D6 FFFFFFEE     I    2142  2158B
 CVEXIRTN      4 0000077C FFFFFFEE     V    2122  2118
 CVEXNO        1 00000000 0000001E     T   16290 16290  22380
 CVFCHRKBPR
               8 000004C9 FFFFFFEE         1863  1879   1879
 CVFCHRKBSE
               4 000004C9 FFFFFFEE         1868  1879   1879
 CVFCHRKCPR
               2 000004C9 FFFFFFEE         1885  1901   1901
 CVFCHRKCSE
               1 000004C9 FFFFFFEE         1890  1901   1901
 CVFCHRUBPR
             128 000004C9 FFFFFFEE         1819  1835   1835
 CVFCHRUBSE
              64 000004C9 FFFFFFEE         1824  1835   1835
1DBUG     (DBUG2163) (12:41) (15MAR04) Ordinary Symbol and Literal Cross Reference                                          Page  116
 CVFCHRUCPR
              32 000004C9 FFFFFFEE         1841  1857   1857
 CVFCHRUCSE
              16 000004C9 FFFFFFEE         1846  1857   1857
 CVFL          1 000004C4 FFFFFFEE     R    1615  1619   1624   1629   1634   1639   1644   1649   1654
 CVFL2         1 000004C5 FFFFFFEE     R    1660  1664   1669   1674   1679   1684   1689   1694   1699
 CVFL3         1 000004C6 FFFFFFEE     R    1705  1709   1714   1719   1724   1729   1734   1739   1744
 CVFL4         1 000004C7 FFFFFFEE     R    1750  1754   1759   1764   1769   1774   1779   1784
 CVFL5         1 000004C8 FFFFFFEE     R    1790  1794   1799   1804   1809
 CVFL6         1 000004C9 FFFFFFEE     R    1815  1819   1824   1836   1841   1846   1858   1863   1868   1880   1885
                                                  1890   1902
 CVHEAP#       1 00000200 FFFFFFEE A   U    1521  1522
 CVINVRTN      4 00000888 FFFFFFEE     V    2177  2147
 CVJESFLG      1 000004CA FFFFFFEE     R    1908  1912
 CVLNKRGS      4 00000780 FFFFFFEE     F    2124  2099M  2125  10608M 10673M 10747M 18942M 19321M 19642M
 CVLNKRTN      4 000007B0 FFFFFFEE     U    2125  2114M
 CVLOCK1       1 00000088 FFFFFFEE     R    1266  1270   1275
 CVLOCK2       1 00000089 FFFFFFEE     R    1280  1284
 CVLOCK3       1 0000008A FFFFFFEE     R    1289  1293
 CVLOCK4       1 0000008B FFFFFFEE     R    1298  1302
 CVLOGMOD      1 00000068 FFFFFFEE     R    1253  1257
 CVMACH        1 00000067 FFFFFFEE     R    1213  1217   1222   1227   1232   1237   1242   1247
 CVMAXLNO      4 0000015C FFFFFFEE     A    1407 15649
 CVMILRTN      4 00000884 FFFFFFEE     V    2176  2156
 CVNEXT        4 000007DE FFFFFFEE     I    2144  8152B  8209B  9288B 10579B 10644B 10718B 10760B 11175B 11414B 11597B
                                                 11755B 11956B 12110B 12295B 12437B 16748B 20561B 21041B 21449B 21852B
                                                 22096B 22200B
 CVNOARTN      4 00000890 FFFFFFEE     V    2179  2150
 CVNWDATE      4 00000608 FFFFFFEE     F    1981  1985   1985
 CVNWMPG#      1 00000008 FFFFFFEE A   U    1983  1984
 CVPFXRTN      1 00000000 00000000 A   T    2122  2122
 CVPGFLAG      1 00000A01 FFFFFFEE     R    2289  2293   2298   2303
 CVPIOSZ       1 00004F80 FFFFFFEE A   U    1352  1354
 CVPPDBQH      4 0000009C FFFFFFEE     A    1310  1311
 CVPSFNO       1 000003E9 FFFFFFEE A   N    1474  1476
 CVPSLNO       1 000007CF FFFFFFEE A   N    1475  1476
 CVPXSZ        1 00000008 FFFFFFEE A   U    1353  1354
 CVR          12 0000000C 00000001 A   #    1091  1172U
 CVRKEY        1 00000008 FFFFFFEE A   U    2047  2048
 CVSEGRTN      4 00000880 FFFFFFEE     V    2175  2139
 CVSTACK#      1 00000080 FFFFFFEE A   U    1513  1514
 CVSTART       4 00000000 FFFFFFEE     C    1186  2357
 CVTRC         4 00000768 FFFFFFEE     I    2114  2100B 10609B 10674B 10748B 18943B 19322B 19643B
 CVTRCRTN      4 00000778 FFFFFFEE     V    2121  2115
 CVUSFNO       1 00000001 FFFFFFEE A   N    1481  1483
 CVUSLNO       1 000003E7 FFFFFFEE A   N    1482  1483
 CVVOL#        1 00000005 FFFFFFEE A   U    2332  2333
 CVWTOFLG      1 000004CB FFFFFFEE     R    1918  1922   1927   1932   1937   1942
 CVXMONCT      4 000002A0 FFFFFFEE     F    1537 17845  17846M 18248  18265M 20298
 DBCALL        2 000001E8 00000001     H    7842  7838
 DBCLEAR       2 000018F6 00000001     H   14046 12770  14042
 DBLINE        2 0000008C 00000001     H    7204  7200
 DBRET         2 0000024E 00000001     H    8032  8028
 DBUG2163      1 00000000 00000001     R    1137  1135
 DCLEAR        2 00000B7E 00000001     H   10163 10159  12766
 DCLRPRT       4 0000091C 00000001     F    9615 12768
 DCT           2 00000D9C 00000001     H   10830  9505   9642  10826
 DCTLINE      88 00000000 FFFFFFDB     X   10808 10882
 DCTLINE2     88 00000120 FFFFFFDB     X   10811 10947
1DBUG     (DBUG2163) (12:41) (15MAR04) Ordinary Symbol and Literal Cross Reference                                          Page  117
 DCTNAME     100 00000058 FFFFFFDB     X   10809 10883
 DCTNAME2    100 00000178 FFFFFFDB     X   10812 11026
 DCTRET      100 000000BC FFFFFFDB     X   10810 10884
 DCTRET2     100 000001DC FFFFFFDB     X   10813 11114
 DCTWA       576 00000000 FFFFFFDB     J   10820 10843  10872U 11200  11202  11203
 DEBUGPRT      4 000005FC 00000001     F    9313 12763
 DEBUGSG       1 00000000 00000000 A   T    2075  2075
 DEV          12 00000000 FFFFFFEB     J    4713  4721
 DEVMAX#       1 00000002 FFFFFFEC A   U    4664  4721
 DEVTYPE       1 00000001 FFFFFFEB     R    4681  4690   4700
 DLOG          2 00000BB6 00000001     H   10243  9385  10239
 DNEXT         2 000011B4 00000001     H   12176  9460   9535  12172
 DNOLOG        2 00000BEC 00000001     H   10325  9400  10321
 DOFNAME       1 00000000 00000019     T   16284 16284
 DOTTBL        1 00000000 00000000 A   T    2191  2191
 DRENCFLG      1 00000F9F FFFFFFEC     R    6119  6123   6128   6133   6138   6143
 DRENPROT      1 00000F9E FFFFFFEC     R    6106  6114
 DSCNCLR       2 00000ABE 00000001     H    9967  9355   9370   9430
 DSCNSET       2 00000A3A 00000001     H    9867  9415
 DSETPRT       4 000008A4 00000001     F    9570 12767
 DSHOW         2 00000ED4 00000001     H   11242  9475   9550  11238
 DSHWLINE     88 00000000 FFFFFFDA     X   11223 11314
 DSHWNAME    100 00000058 FFFFFFDA     X   11224 11315
 DSHWRET     100 000000BC FFFFFFDA     X   11225 11316
 DSHWWA      288 00000000 FFFFFFDA     J   11232 11255  11284U 12135  12137  12138
 DSNON        40 00000E90 FFFFFFEC     C    5839  5840
 DSNWADSN     44 00000E5C FFFFFFEC     C    5826  5827   5828   5829   5838   5846   6077   6083   6085   6091   6094
                                                  6096   6099   6148
 DSNWAF4       1 00000F37 FFFFFFEC     R    5894  5898   5903   5908   5913   5918   5923   5928   5933
 DSNWAF5       1 00000F38 FFFFFFEC     R    5939  5943   5948   5953   5958   5963   5968   5973   5978
 DSNWAF6       1 00000F39 FFFFFFEC     R    5984  5988   5993   5998   6003   6008   6013   6018   6023
 DSNWAF7       1 00000F3A FFFFFFEC     R    6029  6033   6038   6043   6048
 DSNXG         1 00000004 FFFFFFEC A   U    5831  5833
 DSNXGL        1 00000003 FFFFFFEC A   U    5832  5833
 DSNXU         1 00000007 FFFFFFEC A   U    5833  5835
 DSNXUL        1 00000004 FFFFFFEC A   U    5834  5835
 DSSIZ         1 00000108 FFFFFFEC A   U    6077  6085   6094   6099
 DST           2 00000C22 00000001     H   10436  9490   9597  10432
 DSTART        2 00000B42 00000001     H   10073  9340  10069
 DSTLINE      88 00000000 FFFFFFDC     X   10414 10509
 DSTLINE2     88 00000120 FFFFFFDC     X   10417 10574
 DSTNAME     100 00000058 FFFFFFDC     X   10415 10510
 DSTNAME2    100 00000178 FFFFFFDC     X   10418 10639
 DSTRET      100 000000BC FFFFFFDC     X   10416 10511
 DSTRET2     100 000001DC FFFFFFDC     X   10419 10713
 DSTWA       576 00000000 FFFFFFDC     J   10426 10449  10478U 10785  10787  10788
 DTL          88 00000000 FFFFFFE7     J    6698  8280   8349U 10414  10417  10489U 10520M 10520  10545  10573  10808
                                                 10811  10893M 10893  10918  10946  11223  11298U 11325M 11325  12870U
                                                 12907M 12907  14358U 14389M 14389
 DTLALL      128 00000010 FFFFFFE7         6678  8464  11632  12884  12995  14692M
 DTLDATA      72 00000010 FFFFFFE7     X    6670  6671   8400   8401   8511   8512  10587  10588  11558  11559  11691
                                                 11692  12934  12935  13021  13022  13059  13060  13166  13167
 DTLFLAGS      1 00000010 FFFFFFE7     R    6674  6678
 DTLLINE       4 00000014 FFFFFFE7     F    6690  8481  11618  12873  13124  14625M
 DTLNAME      16 00000000 FFFFFFE7     X    6664  6665   6667   8278   8402   8513  10567  10589  10940  11560  11693
                                                 12936  13023  13061  13168
 DTLNMLIN      4 00000000 FFFFFFE7     F    6666  8363M  8447  12908M 12980  13105  14626M
 DTLNMSEQ      4 0000000C FFFFFFE7     F    6668 14632M
 DTLXNAME     64 00000018 FFFFFFE7     X    6691  8496  11656  12874  13138  14757
1DBUG     (DBUG2163) (12:41) (15MAR04) Ordinary Symbol and Literal Cross Reference                                          Page  118
 DTN         100 00000000 FFFFFFE6     J    6745  8586   8655U 10415  10418  10498U 10527M 10527  10546  10638  10809
                                                 10812  10900M 10900  10919  11025  11224  11332M 11332  13279U 13316M
                                                 13316  14367U 14396M 14396  15160M 15160
 DTNALL      128 00000010 FFFFFFE6         6725  8770  11851  13293  13404  14963M
 DTNDATA      84 00000010 FFFFFFE6     X    6717  6718   8706   8707   8817   8818  10652  10653  11716  11717  11892
                                                 11893  13343  13344  13430  13431  13468  13469  13575  13576
 DTNFLAGS      1 00000010 FFFFFFE6     R    6721  6725
 DTNNAME      16 00000000 FFFFFFE6     X    6711  6712   6714   8584   8708   8819  10632  10654  11019  11718  11894
                                                 13345  13432  13470  13577  14867  14872  15152
 DTNNMNAM     12 00000000 FFFFFFE6     C    6713  8669M  8753  13317M 13389  13514
 DTNNMSEQ      4 0000000C FFFFFFE6     F    6715 14903M
 DTNPNAME     16 00000011 FFFFFFE6     C    6737  8787  11804  11811  13282  13533  14888  14893  15153  15833
 DTNXNAME     64 00000021 FFFFFFE6     X    6738  8802  11857  13283  13547  15079
 DTR         100 00000000 FFFFFFE5     J    6792  8892   8961U 10416  10419  10507U 10534M 10534  10547  10712  10810
                                                 10813  10907M 10907  10920  11113  11225  11312U 11339M 11339  13688U
                                                 13725M 13725  14376U 14403M 14403
 DTRACE        2 0000121E 00000001     H   12335  9445   9520  12331
 DTRALL      128 00000010 FFFFFFE5         6772  9076  12052  13702  13813  15288M
 DTRCOFF       2 000013A4 00000001     H   12610 12506
 DTRCON        2 00001378 00000001     H   12543 12476  12491
 DTRCPRT       4 000012B0 00000001     F   12464 12786
 DTRCTRAP      2 000013D4 00000001     H   12685 12521
 DTRDATA      84 00000010 FFFFFFE5     X    6764  6765   9012   9013   9123   9124  10726  10727  11917  11918  12093
                                                 12094  13752  13753  13839  13840  13877  13878  13984  13985
 DTRFLAGS      1 00000010 FFFFFFE5     R    6768  6772
 DTRNAME      16 00000000 FFFFFFE5     X    6758  6759   6761   8890   9014   9093   9125  10706  10728  11107  11919
                                                 12095  13754  13841  13879  13986  15152M
 DTRNMNAM     12 00000000 FFFFFFE5     C    6760  8975M  9059  13726M 13798  13923
 DTRPNAME     16 00000011 FFFFFFE5     C    6784 12005  12012  13691  13942  15153M
 DTRXNAME     64 00000021 FFFFFFE5     X    6785  9108  12058  13692  13956  15353
 EBCTBL        1 00000000 00000000 A   T    2187  2187
 EBCTBL7       1 00000000 00000000 A   T    2190  2190
 ECBLIST       1 00000000 00000000 A   T    2050  2050
 EPARTBL       1 00000000 00000000 A   T    2182  2182
 EXECHK        1 00000000 00000014     T   12785 12785
 EXPAUSE       1 00000000 00000002     T    9180  9180
 FNAMEFIN      1 00000000 0000001B     T   16286 16286
 FNAMOPTS      1 00000000 0000001A     T   16285 16285
 FREECORE      1 00000000 00000024     T   20400 20400
 FSR           0 00000000 00000001 A   #    1001  6993   7136M  7213   7817M  7851   8007M  8041   8245M  8306   8544M
                                                  8612   8850M  8918   9156M  9218   9303M  9675   9723M  9742   9790M
                                                  9809   9854M  9876   9954M  9976  10054M 10082  10144M 10172  10226M
                                                 10252  10308M 10334  10391M 10446  10785M 10840  11200M 11252  12135M
                                                 12185  12315M 12344  12452M 12552  12598M 12619  12673M 12694  12746M
                                                 12837  13202M 13246  13611M 13655  14020M 14055  14178M 14224  14289M
                                                 14325  14461M 14529  14577M 14599  14781M 14804  15103M 15126  15377M
                                                 15414  15487M 15562  15804M 15860  16071M 16104  16251M 16339  16549M
                                                 16585  16632M 16678  16763M 16914  16961M 16983  17065M 17087  17122M
                                                 17141M 17163  17212M 17234  17283M 17305  17354M 17384  17463M 17493
                                                 17603M 17631  17716M 17744  17876M 17919  18085M 18119  18297M 18324
                                                 18389M 18423  18514M 18546  18656M 18729  18995M 19068  19374M 19445
                                                 19756M 19799  19932M 19947M 19991  20083M 20098M 20139  20352M 20367M
                                                 20463  20576M 20693  20742M 20764  20813M 20835  20884M 20939  21281M
                                                 21350  21694M 21759  21977M 22015  22116M 22147  22220M 22251  22343M
 GETCORE       1 00000000 00000023     T   20397 20397
 GETCPU        1 00000000 00000021     T   16647 16647
 GETMINFO      2 0000281A 00000001     H   18414 20395
 GETMMAX       2 00002D42 00000001     H   20130 20391
 GETNAMES      2 00002B22 00000001     H   19435 20405
1DBUG     (DBUG2163) (12:41) (15MAR04) Ordinary Symbol and Literal Cross Reference                                          Page  119
 GETRAW        2 000028CC 00000001     H   18719 20403
 GETSUM        2 000029D4 00000001     H   19058 20404
 GETXNAME      1 00000000 00000003     T    9186  9186  16292  20414
 GRCURPTR      4 00000008 FFFFFFD7     F   18701 18794M 18829  18873M 18901  18950  18955M
 GRMMBPTR      4 00000004 FFFFFFD7     F   18700 18789M 18828  18900  18969
 GRMONPTR      4 00000000 FFFFFFD7     F   18699 18787M 18967
 GRPARMS       4 00000028 FFFFFFD7     F   18703 18808M 18808  18895M 18923
 GRRAW        28 0000000C FFFFFFD7     X   18702 18783  18801M 18801
 GRWA         56 00000000 FFFFFFD7     J   18710 18732  18761U 18995  18997  18998
 GSCURPTR      4 00000008 FFFFFFD6     F   19040 19133M 19167  19211M 19239  19278  19295  19329  19334M
 GSMMBPTR      4 00000004 FFFFFFD6     F   19039 19128M 19166  19238  19348
 GSMONPTR      4 00000000 FFFFFFD6     F   19038 19126M 19346
 GSPARMS       4 0000002C FFFFFFD6     F   19042 19147M 19147  19233M 19262  19302
 GSSUM        32 0000000C FFFFFFD6     X   19041 19122  19140M 19140
 GSWA         60 00000000 FFFFFFD6     J   19049 19071  19100U 19374  19376  19377
 GTTLINE       2 0000158A 00000001     H   12828 12772
 GTTNAME       2 000016AE 00000001     H   13237 12775
 GTTRET        2 000017D2 00000001     H   13646 12776
 GXMAXCNT      1 0000003C 00000001 A   U   19428 19607  20415
 GXSUM        32 00000050 FFFFFFD5     X   19418 19500  19516M 19516  19656M 19656
 GXWA        112 00000000 FFFFFFD5     J   19425 19448  19477U 19756  19758  19759
 GXXNAME      80 00000000 FFFFFFD5     X   19417 19499  19509M 19509
 HIBAL         1 00000000 FFFFFFFF     J     691   707    720    733    746    759    772    785    798    811    824
                                                   837    850    863    876    889    902
 INITDBUG      2 00000024 00000001     H    6984  6980
 INITMMEM      2 000025F2 00000001     H   17735 20394
 INVALID       1 00000000 00000000 A   T    2177  2177
 JCB         208 00000000 FFFFFFE9     J    6580 16402U 16510U
 JCBAFL        1 00000062 FFFFFFE9     R    6425  6429   6434   6439   6444   6449   6454   6459   6464
 JCBBFL        1 00000063 FFFFFFE9     R    6470  6474   6479   6484   6489   6494   6499   6504
 JCBBILLX      8 00000088 FFFFFFE9     D    6555  6563   6563
 JCBRSCF1      1 00000064 FFFFFFE9     R    6510  6514   6519   6524
 JCBSFLG1      1 00000065 FFFFFFE9     R    6530  6534   6539
 JCBWCPU       4 0000007C FFFFFFE9     F    6551 16408  16516
 JCBWFL        1 00000060 FFFFFFE9     R    6354  6358   6363   6368   6373   6378   6383   6388   6393   6421
 JCBWWFL       1 00000061 FFFFFFE9     R    6399  6403   6408   6413   6418
 LOWTBL        1 00000000 00000000 A   T    2185  2185
 LSR           8 00000008 00000001 A   #    1039  6993   7136M  7213   7817M  7851   8007M  8041   8245M  8306   8544M
                                                  8612   8850M  8918   9156M  9218   9303M  9675   9723M  9742   9790M
                                                  9809   9854M  9876   9954M  9976  10054M 10082  10144M 10172  10226M
                                                 10252  10308M 10334  10391M 10446  10785M 10840  11200M 11252  12135M
                                                 12185  12315M 12344  12452M 12552  12598M 12619  12673M 12694  12746M
                                                 12837  13202M 13246  13611M 13655  14020M 14055  14178M 14224  14289M
                                                 14325  14461M 14529  14577M 14599  14781M 14804  15103M 15126  15377M
                                                 15414  15487M 15562  15804M 15860  16071M 16104  16251M 16339  16549M
                                                 16585  16632M 16678  16763M 16914  16961M 16983  17065M 17087  17141M
                                                 17163  17212M 17234  17283M 17305  17354M 17384  17463M 17493  17603M
                                                 17631  17716M 17744  17876M 17919  18085M 18119  18297M 18324  18389M
                                                 18423  18514M 18546  18656M 18729  18995M 19068  19374M 19445  19756M
                                                 19799  19947M 19991  20098M 20139  20367M 20463  20576M 20693  20742M
                                                 20764  20813M 20835  20884M 20939  21281M 21350  21694M 21759  21977M
                                                 22015  22116M 22147  22220M 22251  22343M
 MALL          1 00000000 00000009     T    9564  9564   9611   9656  12535  14512  16861  16894  20674
 MAXBIGCT      1 00000003 00000001 A   U    6874 20423
 MCLEAR        2 000025A6 00000001     H   17622 17618  20390
 MILERR        1 00000000 00000000 A   T    2176  2176
 MMB          32 00000000 FFFFFFE4     J    6837 16372U 17817  17952U 18018  18025  18028  18031  18040  18152U 18180
                                                 18181  18187  18210  18788  18970M 19127  19349M 19832U 20024U
 MMBDATA       1 00000020 FFFFFFE4     U    6830 17821  18035  19920  20071
1DBUG     (DBUG2163) (12:41) (15MAR04) Ordinary Symbol and Literal Cross Reference                                          Page  120
 MMBEND        4 00000010 FFFFFFE4     F    6826 16469  17820M 18034M 19850  20042
 MMBHEAD       4 00000004 FFFFFFE4     F    6823 17814M 18025  18026M 18177
 MMBLEN        4 00000000 FFFFFFE4     F    6822 17813M 17818  18024M 18029  18032
 MMBLINK       4 00000008 FFFFFFE4     F    6824 17815M 18014M 18027M 18041  18060  18182  18205  19912  20067
 MMBPTR        4 00000014 FFFFFFE4     F    6827 16440  16475M 17822M 18036M 18578  18788  18970M 19127  19349M 19837
                                                 19856M 19921M 20029  20048M 20072M
 MMBTMEM       4 0000000C FFFFFFE4     F    6825 17816M 17994  18028  18030M 18039  18059M 19887
 MMBXLINE      4 00000018 FFFFFFE4     F    6828 16441  16454M 16615M
 MMBXSET       4 0000001C FFFFFFE4     F    6829 16432  16443  16455M 16616M
 MMEMBIG       1 00019000 00000001 A   U    6869 20399  20426
 MMEMBSZ       1 00001FE0 00000001 A   U    6873 20396
 MMEMDFLT      1 00001FC0 00000001 A   U    6872 20417
 MMEMFDGE      1 00000100 00000001 A   U    6871 20418
 MMEMMAX       1 000FA000 00000001 A   U    6868 20421  20422
 MMEMMIN       1 00001FC0 00000001 A   U    6870  6872  20419  20420
 MNAMES        2 00003178 00000001     H   20826 20645
 MNR          80 00000000 FFFFFFE0     J    6965 19417  19488U 20912  20994U 21323  21402U 21733  21802U
 MNRDATA      64 00000010 FFFFFFE0     C    6956  6957  19621  19622  21098  21099  21506  21507  21862  21863  21941
                                                 21942
 MNRNAME      16 00000000 FFFFFFE0     X    6954  6955  19588M 19588  19623  21100  21508  21864  21943
 MNRNMSET     16 00000000 FFFFFFE0     U    6955 19589M 21090M 21498M 21885
 MNRXNAME     64 00000010 FFFFFFE0     C    6958 19590  19608M
 MNULL         1 00000000 00000007     T    9324  9324   9581   9626  12475  14482  20599
 MONCLEAR      2 00002492 00000001     H   17225 16817  16832
 MONCMD        2 000020B8 00000001     H   16330 16326
 MONCOUNT      2 00002424 00000001     H   17078 16880
 MONCPU        4 00000008 FFFFFFE3     F    6854 16447M 19297
 MONENTRY     12 00000000 FFFFFFE3     J    6861 16381U 16457  16457  18591  18781U 18858  18922  19120U 19196  19838
                                                 20030  20398  20431
 MONPRT        4 00002228 00000001     F   16775 20383
 MONRESET      2 000024CA 00000001     H   17296 16847
 MONSTART      2 0000239C 00000001     H   16974 16787
 MONSTOP       2 0000245A 00000001     H   17154 16802
 MONXLINE      4 00000000 FFFFFFE3     F    6852 16442M 19258  19286
 MONXSET       4 00000004 FFFFFFE3     F    6853 16444M 19260  19288
 MPINT         1 00000000 00000022     T   16879 16879
 MRAW          2 00003140 00000001     H   20755 20630
 MRR          28 00000000 FFFFFFE2     J    6913 18702  18772U 20911  20982U
 MRRCPU        4 00000018 FFFFFFE2     F    6906 21183
 MRRDATA      12 00000010 FFFFFFE2     X    6902  6903  18892  18893  18922M 21051  21052  21245  21246
 MRRNAME      16 00000000 FFFFFFE2     X    6900  6901  18894  21053  21247
 MRRNMSEQ     16 00000000 FFFFFFE2     U    6901 18921M
 MRRXLINE      4 00000010 FFFFFFE2     F    6904 21173
 MRRXSET       4 00000014 FFFFFFE2     F    6905 21071  21178
 MSEGCPU       2 000035B6 00000001     H   22242 22376
 MSEGLNO       2 0000351A 00000001     H   22006 12781  22374
 MSEGNO        2 00003576 00000001     H   22138 22375
 MSR          32 00000000 FFFFFFE1     J    6941 19041  19111U 19418  19497U 21322  21393U
 MSRCNT        4 0000001C FFFFFFE1     F    6934 19299  19301M 21596
 MSRDATA      16 00000010 FFFFFFE1     X    6929  6930  19230  19231  19285M 19285  19530  19531  19666  19667  21459
                                                 21460  21658  21659
 MSRNAME      16 00000000 FFFFFFE1     X    6926  6927   6928  19232  19532  19540M 19540  19668  21461  21660
 MSRNMLIN     16 00000004 FFFFFFE1     U    6928 19259M
 MSRNMSET     16 00000000 FFFFFFE1     U    6927 19261M 19541M 19658M
 MSRTCPU       4 00000018 FFFFFFE1     F    6933 19296  19298M 21591
 MSRXLINE      4 00000010 FFFFFFE1     F    6931 19287M 21581
 MSRXSET       4 00000014 FFFFFFE1     F    6932 19289M 19559  21479  21586
 MSTART        2 00002502 00000001     H   17375 20387
 MSTOP         2 00002550 00000001     H   17484 20389  22360
1DBUG     (DBUG2163) (12:41) (15MAR04) Ordinary Symbol and Literal Cross Reference                                          Page  121
 MSTRTPRT      4 00002318 00000001     F   16868 20386
 MSUMMARY      2 00003108 00000001     H   20684 20600  20615
 MSYMLN        1 00000000 00000015     T   14497 14497
 MTOKEN        1 00000000 00000008     T    9339  9339   9354   9369   9384   9399   9414   9429   9444   9459   9474
                                                  9489   9504   9519   9534   9549   9596   9641  12490  12505  12520
                                                 16786  16801  16816  16831  16846  20614  20629  20644
 NBLTBL        1 00000000 00000000 A   T    2189  2189
 NEXTNTRY      2 00002CE4 00000001     H   19982 20408
 NEXTPTR       2 00002C72 00000001     H   19790 16648
 NOACTION      1 00000000 00000000 A   T    2179  2179
 NOOPTS        1 00000000 0000000D     T   12769 12769  20388
 NOTVALID      1 00000000 00000017     T   16277 16277
 NPARTBL       1 00000000 00000000 A   T    2183  2183
 NRESOLVE      1 00000000 0000001C     T   16287 16287
 NSCAN         1 00000000 0000000B     T   12764 12764  16273  20384  22362
 NSCNCB      176 00000000 FFFFFFED     J    2448  2574   9256   9257   9258   9261M  9262M  9264M  9274M  9275M  9276M
                                                  9912   9913   9914   9917M  9918M  9920M  9930M  9931M  9932M 10012
                                                 10013  10014  10017M 10018M 10020M 10030M 10031M 10032M 12405  12406
                                                 12407  12410M 12411M 12413M 12423M 12424M 12425M 14416  14417  14418
                                                 14421M 14422M 14424M 14434M 14435M 14436M 14643  14644  14645  14648M
                                                 14649M 14650M 14660M 14661M 14662M 14672  14914  14915  14916  14919M
                                                 14920M 14921M 14931M 14932M 14933M 14943  15239  15240  15241  15244M
                                                 15245M 15246M 15256M 15257M 15258M 15268  16716  16717  16718  16721M
                                                 16722M 16724M 16734M 16735M 16736M 17023  17024  17025  17028M 17029M
                                                 17031M 17041M 17042M 17043M 20529  20530  20531  20534M 20535M 20537M
                                                 20547M 20548M 20549M
 NSCNFLGS      1 00000008 FFFFFFED     R    2385  2389   2394
 NSCNKWS       4 00000028 FFFFFFED     A    2434  9256   9264M  9274M  9912   9920M  9930M 10012  10020M 10030M 12405
                                                 12413M 12423M 14416  14424M 14434M 14643  14650M 14660M 14914  14921M
                                                 14931M 15239  15246M 15256M 16716  16724M 16734M 17023  17031M 17041M
                                                 20529  20537M 20547M
 NSCNSKIP      4 00000024 FFFFFFED     A    2433  9257   9261M  9275M  9913   9917M  9931M 10013  10017M 10031M 12406
                                                 12410M 12424M 14417  14421M 14435M 14644  14648M 14661M 14915  14919M
                                                 14932M 15240  15244M 15257M 16717  16721M 16735M 17024  17028M 17042M
                                                 20530  20534M 20548M
 NSCNSTOP      4 00000020 FFFFFFED     A    2432  9258   9262M  9276M  9914   9918M  9932M 10014  10018M 10032M 12407
                                                 12411M 12425M 14418  14422M 14436M 14645  14649M 14662M 14916  14920M
                                                 14933M 15241  15245M 15258M 16718  16722M 16736M 17025  17029M 17043M
                                                 20531  20535M 20549M
 NSCNTOK      16 00000030 FFFFFFED     C    2436 14672  14943  15268
 NSCNTYPE      1 00000018 FFFFFFED     R    2403  2407   2412   2417   2422   2427
 RAR          14 0000000E 00000001 A   #    1117  2114   2115M  2116B  2118M  2119B  2139M  2140B  2144M  2145B  2147M
                                                  2148B  2150M  2151B  2153M  2154B  2156M  2157M  2157B  2163   6990
                                                  7138M  7141B  7210   7264M  7265M  7265B  7533M  7534M  7534B  7537M
                                                  7538M  7538B  7742M  7743M  7743B  7746M  7747M  7747B  7819M  7822B
                                                  7848   7896M  7897M  7897B  7913M  7914M  7914B  7953M  7954M  7954B
                                                  8009M  8012B  8038   8126M  8127M  8127B  8143M  8144M  8144B  8185M
                                                  8186M  8186B  8247M  8250B  8303   8370M  8371M  8371B  8395M  8396M
                                                  8396B  8405M  8406M  8406B  8516M  8517M  8517B  8546M  8549B  8609
                                                  8676M  8677M  8677B  8701M  8702M  8702B  8711M  8712M  8712B  8822M
                                                  8823M  8823B  8852M  8855B  8915   8982M  8983M  8983B  9007M  9008M
                                                  9008B  9017M  9018M  9018B  9128M  9129M  9129B  9158M  9161B  9215
                                                  9267M  9268M  9268B  9281M  9282M  9282B  9305M  9308B  9672   9725M
                                                  9728B  9739   9792M  9795B  9806   9837M  9838M  9838B  9856M  9859B
                                                  9873   9923M  9924M  9924B  9937M  9938M  9938B  9956M  9959B  9973
                                                 10023M 10024M 10024B 10037M 10038M 10038B 10056M 10059B 10079  10112M
                                                 10113M 10113B 10118M 10119M 10119B 10146M 10149B 10169  10202M 10203M
                                                 10203B 10208M 10209M 10209B 10228M 10231B 10249  10282M 10283M 10283B
                                                 10310M 10313B 10331  10364M 10365M 10365B 10393M 10396B 10443  10550M
1DBUG     (DBUG2163) (12:41) (15MAR04) Ordinary Symbol and Literal Cross Reference                                          Page  122
                                                 10551M 10551B 10577M 10578M 10578B 10584M 10585M 10585B 10592M 10593M
                                                 10593B 10642M 10643M 10643B 10649M 10650M 10650B 10657M 10658M 10658B
                                                 10716M 10717M 10717B 10723M 10724M 10724B 10731M 10732M 10732B 10787M
                                                 10790B 10837  10923M 10924M 10924B 10950M 10951M 10951B 10978M 10979M
                                                 10979B 10984M 10985M 10985B 11029M 11030M 11030B 11057M 11058M 11058B
                                                 11063M 11064M 11064B 11117M 11118M 11118B 11145M 11146M 11146B 11151M
                                                 11152M 11152B 11202M 11205B 11249  11344M 11345M 11345B 11379M 11380M
                                                 11380B 11412M 11413M 11413B 11452M 11453M 11453B 11506M 11507M 11507B
                                                 11539M 11540M 11540B 11555M 11556M 11556B 11563M 11564M 11564B 11595M
                                                 11596M 11596B 11621M 11622M 11622B 11654M 11655M 11655B 11659M 11660M
                                                 11660B 11688M 11689M 11689B 11696M 11697M 11697B 11713M 11714M 11714B
                                                 11721M 11722M 11722B 11753M 11754M 11754B 11792M 11793M 11793B 11822M
                                                 11823M 11823B 11840M 11841M 11841B 11860M 11861M 11861B 11889M 11890M
                                                 11890B 11897M 11898M 11898B 11914M 11915M 11915B 11922M 11923M 11923B
                                                 11954M 11955M 11955B 11993M 11994M 11994B 12023M 12024M 12024B 12041M
                                                 12042M 12042B 12061M 12062M 12062B 12090M 12091M 12091B 12098M 12099M
                                                 12099B 12137M 12140B 12182  12215M 12216M 12216B 12277M 12278M 12278B
                                                 12317M 12320B 12341  12416M 12417M 12417B 12430M 12431M 12431B 12454M
                                                 12457B 12549  12600M 12603B 12616  12675M 12678B 12691  12748M 12751B
                                                 12834  12915M 12916M 12916B 12939M 12940M 12940B 13026M 13027M 13027B
                                                 13064M 13065M 13065B 13171M 13172M 13172B 13204M 13207B 13243  13324M
                                                 13325M 13325B 13348M 13349M 13349B 13435M 13436M 13436B 13473M 13474M
                                                 13474B 13580M 13581M 13581B 13613M 13616B 13652  13733M 13734M 13734B
                                                 13757M 13758M 13758B 13844M 13845M 13845B 13882M 13883M 13883B 13989M
                                                 13990M 13990B 14022M 14025B 14052  14085M 14086M 14086B 14180M 14183B
                                                 14221  14256M 14257M 14257B 14262M 14263M 14263B 14268M 14269M 14269B
                                                 14291M 14294B 14322  14427M 14428M 14428B 14441M 14442M 14442B 14463M
                                                 14466B 14526  14579M 14582B 14596  14653M 14654M 14654B 14667M 14668M
                                                 14668B 14740M 14741M 14741B 14760M 14761M 14761B 14783M 14786B 14801
                                                 14850M 14851M 14851B 14875M 14876M 14876B 14896M 14897M 14897B 14924M
                                                 14925M 14925B 14938M 14939M 14939B 15011M 15012M 15012B 15062M 15063M
                                                 15063B 15082M 15083M 15083B 15105M 15108B 15123  15198M 15199M 15199B
                                                 15223M 15224M 15224B 15249M 15250M 15250B 15263M 15264M 15264B 15336M
                                                 15337M 15337B 15356M 15357M 15357B 15379M 15382B 15411  15447M 15448M
                                                 15448B 15451M 15452M 15452B 15455M 15456M 15456B 15459M 15460M 15460B
                                                 15466M 15467M 15467B 15489M 15492B 15559  15620M 15621M 15621B 15657M
                                                 15658M 15658B 15681M 15682M 15682B 15716M 15717M 15717B 15739M 15740M
                                                 15740B 15747M 15748M 15748B 15751M 15752M 15752B 15778M 15779M 15779B
                                                 15806M 15809B 15857  15933M 15934M 15934B 15963M 15964M 15964B 16000M
                                                 16001M 16001B 16006M 16007M 16007B 16010M 16011M 16011B 16041M 16042M
                                                 16042B 16073M 16076B 16101  16169M 16170M 16170B 16199M 16200M 16200B
                                                 16226M 16227M 16227B 16253M 16256B 16336  16389M 16390M 16390B 16493M
                                                 16494M 16494B 16497M 16498M 16498B 16551M 16554B 16582  16634M 16637B
                                                 16675  16727M 16728M 16728B 16741M 16742M 16742B 16765M 16768B 16911
                                                 16963M 16966B 16980  17034M 17035M 17035B 17048M 17049M 17049B 17067M
                                                 17070B 17084  17143M 17146B 17160  17191M 17192M 17192B 17195M 17196M
                                                 17196B 17214M 17217B 17231  17262M 17263M 17263B 17266M 17267M 17267B
                                                 17285M 17288B 17302  17333M 17334M 17334B 17337M 17338M 17338B 17356M
                                                 17359B 17381  17414M 17415M 17415B 17421M 17422M 17422B 17425M 17426M
                                                 17426B 17431M 17432M 17432B 17465M 17468B 17490  17543M 17544M 17544B
                                                 17549M 17550M 17550B 17555M 17556M 17556B 17605M 17608B 17628  17661M
                                                 17662M 17662B 17665M 17666M 17666B 17718M 17721B 17741  17803M 17804M
                                                 17804B 17878M 17881B 17916  18011M 18012M 18012B 18087M 18090B 18116
                                                 18185M 18186M 18186B 18208M 18209M 18209B 18299M 18302B 18321  18356M
                                                 18357M 18357B 18362M 18363M 18363B 18368M 18369M 18369B 18391M 18394B
                                                 18420  18453M 18454M 18454B 18477M 18478M 18478B 18481M 18482M 18482B
                                                 18485M 18486M 18486B 18489M 18490M 18490B 18516M 18519B 18543  18613M
                                                 18614M 18614B 18631M 18632M 18632B 18658M 18661B 18726  18792M 18793M
                                                 18793B 18815M 18816M 18816B 18866M 18867M 18867B 18926M 18927M 18927B
1DBUG     (DBUG2163) (12:41) (15MAR04) Ordinary Symbol and Literal Cross Reference                                          Page  123
                                                 18953M 18954M 18954B 18997M 19000B 19065  19131M 19132M 19132B 19154M
                                                 19155M 19155B 19204M 19205M 19205B 19265M 19266M 19266B 19305M 19306M
                                                 19306B 19332M 19333M 19333B 19376M 19379B 19442  19527M 19528M 19528B
                                                 19544M 19545M 19545B 19594M 19595M 19595B 19618M 19619M 19619B 19626M
                                                 19627M 19627B 19663M 19664M 19664B 19671M 19672M 19672B 19701M 19702M
                                                 19702B 19719M 19720M 19720B 19758M 19761B 19796  19895M 19896M 19896B
                                                 19949M 19952B 19988  20100M 20103B 20136  20320M 20321M 20321B 20338M
                                                 20339M 20339B 20369M 20372B 20460  20511M 20512M 20512B 20540M 20541M
                                                 20541B 20554M 20555M 20555B 20578M 20581B 20690  20721M 20722M 20722B
                                                 20725M 20726M 20726B 20744M 20747B 20761  20792M 20793M 20793B 20796M
                                                 20797M 20797B 20815M 20818B 20832  20863M 20864M 20864B 20867M 20868M
                                                 20868B 20886M 20889B 20936  21039M 21040M 21040B 21048M 21049M 21049B
                                                 21056M 21057M 21057B 21095M 21096M 21096B 21103M 21104M 21104B 21124M
                                                 21125M 21125B 21149M 21150M 21150B 21167M 21168M 21168B 21176M 21177M
                                                 21177B 21181M 21182M 21182B 21186M 21187M 21187B 21211M 21212M 21212B
                                                 21236M 21237M 21237B 21242M 21243M 21243B 21250M 21251M 21251B 21283M
                                                 21286B 21347  21447M 21448M 21448B 21456M 21457M 21457B 21464M 21465M
                                                 21465B 21503M 21504M 21504B 21511M 21512M 21512B 21532M 21533M 21533B
                                                 21557M 21558M 21558B 21575M 21576M 21576B 21584M 21585M 21585B 21589M
                                                 21590M 21590B 21594M 21595M 21595B 21599M 21600M 21600B 21624M 21625M
                                                 21625B 21649M 21650M 21650B 21655M 21656M 21656B 21663M 21664M 21664B
                                                 21696M 21699B 21756  21832M 21833M 21833B 21850M 21851M 21851B 21859M
                                                 21860M 21860B 21867M 21868M 21868B 21888M 21889M 21889B 21906M 21907M
                                                 21907B 21913M 21914M 21914B 21938M 21939M 21939B 21946M 21947M 21947B
                                                 21979M 21982B 22012  22059M 22060M 22060B 22064M 22065M 22065B 22094M
                                                 22095M 22095B 22118M 22121B 22144  22198M 22199M 22199B 22222M 22225B
                                                 22248  22284M 22285M 22285B 22322M 22323M 22323B 22345M 22348B
 RETMSG        2 00001F68 00000001     H   16095  9185
 R0            0 00000000 FFFFFFFF A   #     699  2099   2168M  7260M  8354   8366M  8392M  8400M  8511M  8660   8672M
                                                  8698M  8706M  8817M  8966   8978M  9004M  9012M  9123M  9252M  9252
                                                  9261   9262   9707M  9774M  9908M  9908   9917   9918  10008M 10008
                                                 10017  10018  10581M 10587M 10608  10646M 10652M 10673  10720M 10726M
                                                 10747  10968M 10975M 11047M 11054M 11135M 11142M 11368M 11401M 11441M
                                                 11495M 11528M 11552M 11558M 11584M 11643M 11677M 11677  11691M 11710M
                                                 11716M 11742M 11781M 11811M 11829M 11878M 11878  11892M 11911M 11917M
                                                 11943M 11982M 12012M 12030M 12079M 12079  12093M 12239M 12267M 12401M
                                                 12401  12410  12411  12912M 12934M 13021M 13059M 13166M 13321M 13343M
                                                 13430M 13468M 13575M 13730M 13752M 13839M 13877M 13984M 14253M 14259M
                                                 14265M 14412M 14412  14421  14422  14561M 14625  14626  14639M 14639
                                                 14648  14649  14650  14681M 14681  14719  14841  14872M 14893M 14910M
                                                 14910  14919  14920  14921  14952M 14952  14990  15041  15175  15189
                                                 15205  15206M 15208M 15235M 15235  15244  15245  15246  15277M 15277
                                                 15315  15600  15609M 15624M 15635M 15635  15649  15705M 15728M 15743M
                                                 15767M 15767  15896  15922M 15952M 15989M 16002M 16030M 16030  16143
                                                 16158M 16188M 16215M 16215  16391  16499  16712M 16712  16721  16722
                                                 16945M 17019M 17019  17028  17029  17045M 17120  17416  17800M 17810
                                                 17813  17816  18008M 18021  18024  18353M 18359M 18365M 18602M 18620M
                                                 18812M 18892M 18942  19151M 19230M 19321  19524M 19530M 19591M 19609M
                                                 19615M 19621M 19642  19660M 19666M 19708M 19726M 19932  19932M 20083
                                                 20083M 20175M 20175  20197  20309M 20327M 20346M 20352  20352M 20525M
                                                 20525  20534  20535  21028M 21045M 21051M 21092M 21098M 21138M 21138
                                                 21156M 21200M 21200  21225M 21225  21239M 21245M 21436M 21453M 21459M
                                                 21500M 21506M 21546M 21546  21564M 21613M 21613  21638M 21638  21652M
                                                 21658M 21821M 21839M 21856M 21862M 21883  21884  21884  21884  21895M
                                                 21910M 21927M 21927  21941M 22048M 22061M 22083M 22187M 22389  22389
                                                 22389
 R1            1 00000001 FFFFFFFF A   #     712  2162M  2163M  2169M  7261M  8355   8363   8367M  8401M  8512M  8673M
                                                  8707M  8818M  8979M  9013M  9124M  9248M  9261   9262   9264   9706M
                                                  9773M  9904M  9917   9918   9920  10004M 10017  10018  10020  10545M
1DBUG     (DBUG2163) (12:41) (15MAR04) Ordinary Symbol and Literal Cross Reference                                          Page  124
                                                 10573M 10588M 10638M 10653M 10712M 10727M 10918M 10946M 10967M 11025M
                                                 11046M 11113M 11134M 11367M 11400M 11440M 11494M 11527M 11559M 11583M
                                                 11618M 11642M 11656M 11692M 11717M 11741M 11780M 11804M 11828M 11857M
                                                 11893M 11918M 11942M 11981M 12005M 12029M 12058M 12094M 12238M 12266M
                                                 12397M 12410  12411  12413  12872  12935M 13022M 13060M 13167M 13281
                                                 13344M 13431M 13469M 13576M 13690  13753M 13840M 13878M 13985M 14380
                                                 14408M 14421  14422  14424  14560M 14627M 14630M 14631  14632  14635M
                                                 14648  14649  14650  14671M 14672M 14672  14757M 14867M 14888M 14898M
                                                 14901M 14902  14903  14906M 14919  14920  14921  14942M 14943M 14943
                                                 15079M 15206  15207M 15231M 15244  15245  15246  15267M 15268M 15268
                                                 15353M 15442  15463M 15601  15608M 15704M 15727M 15744M 15921M 15945M
                                                 15988M 16003M 16150  16157M 16181M 16381U 16440M 16708M 16721  16722
                                                 16724  16944M 17015M 17028  17029  17031  17805  17808  17809  18013
                                                 18014  18019  18020  18181M 18187M 18199  18210M 18578M 18601M 18619M
                                                 18781U 18786M 18787  18788M 18788  18789  18794  18829M 18843  18873
                                                 18885  18893M 18901M 18914  18950M 18955  18967M 18968  18970  19120U
                                                 19125M 19126  19127M 19127  19128  19133  19167M 19181  19211  19223
                                                 19231M 19239M 19252  19278M 19295M 19329M 19334  19346M 19347  19349
                                                 19531M 19590M 19622M 19667M 19707M 19725M 19837M 19838M 19838  19850
                                                 19856  19920M 19921  19932  20029M 20030M 20030  20042  20048  20071M
                                                 20072  20083  20308M 20326M 20521M 20534  20535  20537  21027M 21052M
                                                 21099M 21155M 21173M 21178M 21183M 21246M 21435M 21460M 21507M 21563M
                                                 21581M 21586M 21591M 21596M 21659M 21820M 21838M 21863M 21883  21884
                                                 21884  21884  21885M 21894M 21910M 21942M 22042  22047M 22076M 22174
                                                 22180M 22281  22317M 22389  22389  22389
 R12          12 0000000C FFFFFFFF A   #     855  2125
 R13          13 0000000D FFFFFFFF A   #     868  9256   9257   9258   9274   9275   9276   9912   9913   9914   9930
                                                  9931   9932  10012  10013  10014  10030  10031  10032  12405  12406
                                                 12407  12423  12424  12425  14416  14417  14418  14434  14435  14436
                                                 14643  14644  14645  14660  14661  14662  14914  14915  14916  14931
                                                 14932  14933  15239  15240  15241  15256  15257  15258  16716  16717
                                                 16718  16734  16735  16736  17023  17024  17025  17041  17042  17043
                                                 20529  20530  20531  20547  20548  20549
 R14          14 0000000E FFFFFFFF A   #     881  2100M  9255M  9256   9257   9258   9263M  9264   9271M  9274   9275
                                                  9276   9911M  9912   9913   9914   9919M  9920   9927M  9930   9931
                                                  9932  10011M 10012  10013  10014  10019M 10020  10027M 10030  10031
                                                 10032  10609M 10674M 10748M 12404M 12405  12406  12407  12412M 12413
                                                 12420M 12423  12424  12425  14415M 14416  14417  14418  14423M 14424
                                                 14431M 14434  14435  14436  14642M 14643  14644  14645  14657M 14660
                                                 14661  14662  14913M 14914  14915  14916  14928M 14931  14932  14933
                                                 15204M 15208M 15238M 15239  15240  15241  15253M 15256  15257  15258
                                                 16715M 16716  16717  16718  16723M 16724  16731M 16734  16735  16736
                                                 17022M 17023  17024  17025  17030M 17031  17038M 17041  17042  17043
                                                 18943M 19322M 19643M 20528M 20529  20530  20531  20536M 20537  20544M
                                                 20547  20548  20549  22289M 22289  22290M 22291M 22303
 R15          15 0000000F FFFFFFFF A   #     894  2099   7140M  7140   7821M  7821   7992M  7992   8011M  8011   8230M
                                                  8230   8249M  8249   8391M  8399M  8421M  8421   8510M  8523M  8548M
                                                  8548   8697M  8705M  8727M  8727   8816M  8829M  8854M  8854   9003M
                                                  9011M  9033M  9033   9122M  9135M  9160M  9160   9277M  9277   9286M
                                                  9286   9307M  9307   9727M  9727   9794M  9794   9839M  9858M  9858
                                                  9933M  9933   9939M  9958M  9958  10033M 10033  10039M 10058M 10058
                                                 10129M 10148M 10148  10211M 10230M 10230  10293M 10312M 10312  10376M
                                                 10395M 10395  10580M 10586M 10608  10645M 10651M 10673  10719M 10725M
                                                 10747  10765M 10765  10789M 10789  10974M 10980M 11053M 11059M 11141M
                                                 11147M 11180M 11180  11204M 11204  11376M 11409M 11449M 11503M 11536M
                                                 11551M 11557M 11573M 11573  11592M 11601M 11601  11612M 11612  11651M
                                                 11685M 11690M 11709M 11715M 11731M 11731  11750M 11759M 11759  11770M
                                                 11770  11789M 11819M 11837M 11886M 11891M 11910M 11916M 11932M 11932
                                                 11951M 11960M 11960  11971M 11971  11990M 12020M 12038M 12087M 12092M
1DBUG     (DBUG2163) (12:41) (15MAR04) Ordinary Symbol and Literal Cross Reference                                          Page  125
                                                 12115M 12115  12139M 12139  12300M 12300  12319M 12319  12426M 12426
                                                 12435M 12435  12456M 12456  12602M 12602  12677M 12677  12750M 12750
                                                 12911M 12933M 12955M 12955  13020M 13037M 13058M 13080M 13080  13165M
                                                 13182M 13206M 13206  13320M 13342M 13364M 13364  13429M 13446M 13467M
                                                 13489M 13489  13574M 13591M 13615M 13615  13729M 13751M 13773M 13773
                                                 13838M 13855M 13876M 13898M 13898  13983M 14000M 14024M 14024  14163M
                                                 14163  14182M 14182  14252M 14258M 14264M 14274M 14274  14293M 14293
                                                 14437M 14437  14446M 14446  14465M 14465  14581M 14581  14663M 14663
                                                 14766M 14785M 14785  14858M 14879M 14934M 14934  15088M 15107M 15107
                                                 15205M 15207  15259M 15259  15362M 15381M 15381  15472M 15472  15491M
                                                 15491  15617M 15678M 15713M 15736M 15775M 15784M 15784  15808M 15808
                                                 15930M 15960M 15997M 16038M 16051M 16051  16075M 16075  16166M 16196M
                                                 16223M 16236M 16236  16255M 16255  16392M 16402U 16500M 16510U 16553M
                                                 16553  16636M 16636  16737M 16737  16746M 16746  16767M 16767  16965M
                                                 16965  17044M 17044  17050M 17069M 17069  17126M 17126  17145M 17145
                                                 17197M 17216M 17216  17268M 17287M 17287  17339M 17358M 17358  17467M
                                                 17467  17588M 17588  17607M 17607  17701M 17701  17720M 17720  17844M
                                                 17845M 17846  17861M 17861  17880M 17880  18018M 18025  18028  18070M
                                                 18070  18089M 18089  18248M 18257M 18257  18264M 18265  18282M 18282
                                                 18301M 18301  18352M 18358M 18364M 18374M 18374  18393M 18393  18499M
                                                 18499  18518M 18518  18610M 18628M 18641M 18641  18660M 18660  18811M
                                                 18891M 18895  18923M 18942  18975M 18975  18999M 18999  19150M 19229M
                                                 19233  19262M 19302M 19321  19354M 19354  19378M 19378  19523M 19529M
                                                 19614M 19620M 19642  19659M 19665M 19716M 19736M 19736  19760M 19760
                                                 19930M 19930  19951M 19951  20081M 20081  20102M 20102  20317M 20335M
                                                 20350M 20350  20371M 20371  20550M 20550  20559M 20559  20580M 20580
                                                 20727M 20746M 20746  20798M 20817M 20817  20869M 20888M 20888  21036M
                                                 21044M 21050M 21091M 21097M 21146M 21164M 21208M 21233M 21238M 21244M
                                                 21261M 21261  21285M 21285  21444M 21452M 21458M 21499M 21505M 21554M
                                                 21572M 21621M 21646M 21651M 21657M 21674M 21674  21698M 21698  21829M
                                                 21847M 21855M 21861M 21903M 21935M 21940M 21957M 21957  21981M 21981
                                                 22056M 22091M 22101M 22101  22120M 22120  22195M 22205M 22205  22224M
                                                 22224  22281M 22312M 22317  22328M 22328  22347M 22347
 R2            2 00000002 FFFFFFFF A   #     725  8402M  8513M  8708M  8819M  9014M  9125M 10546M 10574M 10589M 10639M
                                                 10654M 10713M 10728M 10919M 10947M 11026M 11114M 11560M 11693M 11718M
                                                 11894M 11919M 12095M 12898  12936M 13023M 13061M 13168M 13307  13345M
                                                 13432M 13470M 13577M 13716  13754M 13841M 13879M 13986M 14379  15600M
                                                 15743  16150M 16441M 16442  16443M 16444  16445M 16446M 16447  16453M
                                                 16453  16454  16455  16457M 16469  16475  17809M 17812M 17817M 17818M
                                                 17819M 17820  17821M 17822  18020M 18023M 18025M 18026  18027  18028M
                                                 18029M 18030  18031M 18032M 18033M 18034  18035M 18036  18039M 18059
                                                 18180M 18199  18894M 18895  18923M 18969M 18970  19232M 19233  19262M
                                                 19302M 19348M 19349  19532M 19623M 19668M 20181M 20197M 20198M 20199M
                                                 20217  20223M 20238  20244M 20259  20265M 20283  20340M 20346  21053M
                                                 21100M 21247M 21461M 21508M 21660M 21864M 21943M
 R3            3 00000003 FFFFFFFF A   #     738 10547M 10920M 12942M 12966M 12966  13004M 13004  13037  13067M 13091M
                                                 13091  13147M 13147  13182  13351M 13375M 13375  13413M 13413  13446
                                                 13476M 13500M 13500  13556M 13556  13591  13760M 13784M 13784  13822M
                                                 13822  13855  13885M 13909M 13909  13965M 13965  14000  14358U 14378
                                                 14380M 15601M 15624  16391M 16408M 16417  16499M 16516M 16525  17810M
                                                 18021M 18899M 18899  18920M 18920  18921  19237M 19237  19258M 19259
                                                 19260M 19261  19286M 19287  19288M 19289  19296M 19297M 19298  19299M
                                                 19300M 19300  19301  19533M 19541  19559M 19571  19589  19591  19657M
                                                 19657  19658  21071M 21083  21089  21090  21479M 21491  21497  21498
                                                 22042M 22061  22174M 22180
 R4            4 00000004 FFFFFFFF A   #     751  8408M  8432M  8432   8505M  8505   8523   8714M  8738M  8738   8811M
                                                  8811   8829   9020M  9044M  9044   9117M  9117   9135  10489U 10509M
                                                 10882M 11312U 11316M 12874M 12893M 12893  12927M 12927  13052M 13052
                                                 13283M 13302M 13302  13336M 13336  13461M 13461  13692M 13711M 13711
1DBUG     (DBUG2163) (12:41) (15MAR04) Ordinary Symbol and Literal Cross Reference                                          Page  126
                                                 13745M 13745  13870M 13870  14367U 14379M 17012M 17012  17045  17120M
                                                 17122  17122M 17812M 18023M 18040M 18053  19520M 19520  19577M 19577
                                                 19607M 19693
 R5            5 00000005 FFFFFFFF A   #     764 10498U 10510M 10883M 11315M 12873M 13282M 13691M 14376U 14378M 15442M
                                                 15463  16384M 16446  17811M 17811  18022M 18022  18828M 18843  18885
                                                 18900M 18914  19166M 19181  19223  19238M 19252  19497U 19500M 20994U
                                                 20997M 21402U 21405M
 R6            6 00000006 FFFFFFFF A   #     777  8349U  8351M  8655U  8657M  8961U  8963M 10507U 10511M 10884M 11298U
                                                 11314M 12870U 12872M 12898M 13279U 13281M 13307M 13688U 13690M 13716M
                                                 16372U 16383M 16613M 17808M 17814  17815  17952U 17954M 18019M 18041M
                                                 18053  18060M 18152U 18176M 18177M 18182M 18205M 18577M 18772U 18783M
                                                 19111U 19122M 19488U 19499M 19832U 19834M 19912M 19913  19919M 20024U
                                                 20026M 20067M 20068  20070M 20982U 20996M 21393U 21404M 21802U 21804M
 R7            7 00000007 FFFFFFFF A   #     790  2092M  2092   2093B  2105B
 R8            8 00000008 FFFFFFFF A   #     803  8338U  8644U  8950U 10478U 10872U 11284U 15594U 15892U 18761U 19100U
                                                 19477U 20971U 21382U 21791U
 SCANCHK       1 00000000 0000000C     T   12765 12765  16274  20385  22363
 SCANTRAP      2 000019A2 00000001     H   14316 12771
 SCNINVAL      1 00000000 0000000A     T    9565  9565   9612   9657  12536  16862  16895  20675
 SCNXNAME      2 00001DD8 00000001     H   15405 16278
 SCUPCASE      1 00000000 00000018     T   16280 16280
 SDSNQSZ       1 0000002C FFFFFFEC A   U    6080  6081   6082
 SEG           1 00000000 00000012     T   12782 12782  16289  20406  22379
 SEGCR         1 00000000 00000011     T   12779 12779  16294  20407  22368
 SEGDC         1 00000000 00000028     T   22381 22381
 SEGFDSN       1 00000000 00000013     T   12783 12783  22372
 SEGTB         1 00000000 00000020     T   16296 16296
 SEGWR         1 00000000 00000027     T   22377 22377
 SEGXDSN       1 00000000 0000001F     T   16293 16293
 SETXLINE      2 0000215C 00000001     H   16576 16572
 SETXNAME      1 00000000 0000001D     T   16288 16288
 SHOWMON       2 00002F80 00000001     H   20454 20450
 SHOWMPRT      4 00003018 00000001     F   20588 22361
 SHOWNAMS      2 0000343E 00000001     H   21749 22367
 SHOWRAW       2 000031B0 00000001     H   20929 22366
 SHOWSUM       2 000032F2 00000001     H   21340 22365
 SMNNAME      80 00000000 FFFFFFD2     X   21733 21804  21813M 21813
 SMNWA        80 00000000 FFFFFFD2     J   21740 21762  21791U 21977  21979  21980
 SMRNAME      80 0000001C FFFFFFD4     X   20912 20997  21013M 21013
 SMRRAW       28 00000000 FFFFFFD4     X   20911 20996  21006M 21006
 SMRWA       112 00000000 FFFFFFD4     J   20920 20942  20971U 21281  21283  21284
 SMRXSET       4 0000006C FFFFFFD4     F   20913 21020M 21020  21083  21089M
 SMSNAME      80 00000020 FFFFFFD3     X   21323 21405  21421M 21421
 SMSSUM       32 00000000 FFFFFFD3     X   21322 21404  21414M 21414
 SMSWA       116 00000000 FFFFFFD3     J   21331 21353  21382U 21694  21696  21697
 SMSXSET       4 00000070 FFFFFFD3     F   21324 21428M 21428  21491  21497M
 SPR          13 0000000D 00000001 A   #    1104  6990   6993   6994   6995M  6995   7132M  7136   7138   7210   7213
                                                  7214   7215M  7215   7813M  7817   7819   7848   7851   7852   7853M
                                                  7853   8003M  8007   8009   8038   8041   8042   8043M  8043   8241M
                                                  8245   8247   8303   8306   8308   8309M  8309   8540M  8544   8546
                                                  8609   8612   8614   8615M  8615   8846M  8850   8852   8915   8918
                                                  8920   8921M  8921   9152M  9156   9158   9215   9218   9219   9220M
                                                  9220   9299M  9303   9305   9672   9675   9676   9677M  9677   9719M
                                                  9723   9725   9739   9742   9743   9744M  9744   9786M  9790   9792
                                                  9806   9809   9810   9811M  9811   9850M  9854   9856   9873   9876
                                                  9877   9878M  9878   9950M  9954   9956   9973   9976   9977   9978M
                                                  9978  10050M 10054  10056  10079  10082  10083  10084M 10084  10140M
                                                 10144  10146  10169  10172  10173  10174M 10174  10222M 10226  10228
                                                 10249  10252  10253  10254M 10254  10304M 10308  10310  10331  10334
1DBUG     (DBUG2163) (12:41) (15MAR04) Ordinary Symbol and Literal Cross Reference                                          Page  127
                                                 10335  10336M 10336  10387M 10391  10393  10443  10446  10448  10449M
                                                 10449  10781M 10785  10787  10837  10840  10842  10843M 10843  11196M
                                                 11200  11202  11249  11252  11254  11255M 11255  12131M 12135  12137
                                                 12182  12185  12186  12187M 12187  12311M 12315  12317  12341  12344
                                                 12345  12346M 12346  12448M 12452  12454  12549  12552  12553  12554M
                                                 12554  12594M 12598  12600  12616  12619  12620  12621M 12621  12669M
                                                 12673  12675  12691  12694  12695  12696M 12696  12742M 12746  12748
                                                 12834  12837  12838  12839M 12839  13198M 13202  13204  13243  13246
                                                 13247  13248M 13248  13607M 13611  13613  13652  13655  13656  13657M
                                                 13657  14016M 14020  14022  14052  14055  14056  14057M 14057  14174M
                                                 14178  14180  14221  14224  14225  14226M 14226  14285M 14289  14291
                                                 14322  14325  14326  14327M 14327  14457M 14461  14463  14526  14529
                                                 14530  14531M 14531  14573M 14577  14579  14596  14599  14600  14601M
                                                 14601  14777M 14781  14783  14801  14804  14805  14806M 14806  15099M
                                                 15103  15105  15123  15126  15127  15128M 15128  15373M 15377  15379
                                                 15411  15414  15415  15416M 15416  15483M 15487  15489  15559  15562
                                                 15564  15565M 15565  15800M 15804  15806  15857  15860  15862  15863M
                                                 15863  16067M 16071  16073  16101  16104  16105  16106M 16106  16247M
                                                 16251  16253  16336  16339  16340  16341M 16341  16545M 16549  16551
                                                 16582  16585  16586  16587M 16587  16628M 16632  16634  16675  16678
                                                 16679  16680M 16680  16759M 16763  16765  16911  16914  16915  16916M
                                                 16916  16957M 16961  16963  16980  16983  16984  16985M 16985  17061M
                                                 17065  17067  17084  17087  17088  17089M 17089  17137M 17141  17143
                                                 17160  17163  17164  17165M 17165  17208M 17212  17214  17231  17234
                                                 17235  17236M 17236  17279M 17283  17285  17302  17305  17306  17307M
                                                 17307  17350M 17354  17356  17381  17384  17385  17386M 17386  17459M
                                                 17463  17465  17490  17493  17494  17495M 17495  17599M 17603  17605
                                                 17628  17631  17632  17633M 17633  17712M 17716  17718  17741  17744
                                                 17745  17746M 17746  17872M 17876  17878  17916  17919  17920  17921M
                                                 17921  18081M 18085  18087  18116  18119  18120  18121M 18121  18293M
                                                 18297  18299  18321  18324  18325  18326M 18326  18385M 18389  18391
                                                 18420  18423  18424  18425M 18425  18510M 18514  18516  18543  18546
                                                 18547  18548M 18548  18652M 18656  18658  18726  18729  18731  18732M
                                                 18732  18991M 18995  18997  19065  19068  19070  19071M 19071  19370M
                                                 19374  19376  19442  19445  19447  19448M 19448  19752M 19756  19758
                                                 19796  19799  19800  19801M 19801  19943M 19947  19949  19988  19991
                                                 19992  19993M 19993  20094M 20098  20100  20136  20139  20140  20141M
                                                 20141  20363M 20367  20369  20460  20463  20464  20465M 20465  20572M
                                                 20576  20578  20690  20693  20694  20695M 20695  20738M 20742  20744
                                                 20761  20764  20765  20766M 20766  20809M 20813  20815  20832  20835
                                                 20836  20837M 20837  20880M 20884  20886  20936  20939  20941  20942M
                                                 20942  21277M 21281  21283  21347  21350  21352  21353M 21353  21690M
                                                 21694  21696  21756  21759  21761  21762M 21762  21973M 21977  21979
                                                 22012  22015  22016  22017M 22017  22112M 22116  22118  22144  22147
                                                 22148  22149M 22149  22216M 22220  22222  22248  22251  22252  22253M
                                                 22253  22339M 22343  22345
 STLINENO      2 00001AEE 00000001     H   14590 14498
 STNAME        2 00001BC2 00000001     H   14795 14513
 STNULL        2 00001AB4 00000001     H   14520 14483
 STOPMSG       2 00001E24 00000001     H   15552  9179
 STPWA        64 00000000 FFFFFFD9     J   15543 15565  15594U 15804  15806  15807
 STPXNAME     64 00000000 FFFFFFD9     X   15536 15744
 STRET         2 00001CDC 00000001     H   15117 16282
 TLOCPRT       4 00001A3C 00000001     F   14471 16272
 TRC           1 00000000 00000000 A   T    2121  2121
 TTYFLAG       1 00000004 FFFFFFEA     R    6209  6213
 TTYMAX#       1 00000006 FFFFFFEA A   U    6265  6266
 TTYTFLAG      1 00000005 FFFFFFEA     R    6219  6223   6228   6233   6238   6243   6248   6253
 UPPTBL        1 00000000 00000000 A   T    2184  2184
1DBUG     (DBUG2163) (12:41) (15MAR04) Ordinary Symbol and Literal Cross Reference                                          Page  128
 WAR           8 00000008 00000001 A   #    1027  6994M  7132   7214M  7813   7852M  8003   8042M  8241   8308M  8540
                                                  8614M  8846   8920M  9152   9219M  9299   9676M  9719   9743M  9786
                                                  9810M  9850   9877M  9950   9977M 10050  10083M 10140  10173M 10222
                                                 10253M 10304  10335M 10387  10448M 10781  10842M 11196  11254M 12131
                                                 12186M 12311  12345M 12448  12553M 12594  12620M 12669  12695M 12742
                                                 12838M 13198  13247M 13607  13656M 14016  14056M 14174  14225M 14285
                                                 14326M 14457  14530M 14573  14600M 14777  14805M 15099  15127M 15373
                                                 15415M 15483  15564M 15800  15862M 16067  16105M 16247  16340M 16545
                                                 16586M 16628  16679M 16759  16915M 16957  16984M 17061  17088M 17122
                                                 17137  17164M 17208  17235M 17279  17306M 17350  17385M 17459  17494M
                                                 17599  17632M 17712  17745M 17872  17920M 18081  18120M 18293  18325M
                                                 18385  18424M 18510  18547M 18652  18731M 18991  19070M 19370  19447M
                                                 19752  19800M 19932  19943  19992M 20083  20094  20140M 20352  20363
                                                 20464M 20572  20694M 20738  20765M 20809  20836M 20880  20941M 21277
                                                 21352M 21690  21761M 21973  22016M 22112  22148M 22216  22252M 22339
 WTOSG         1 00000000 00000000 A   T    2081  2081
 WYLDBUG       1 00000000 00000001     J     991   993   1009   1022   1035   1047   1060   1073   1086   1099   1112
                                                  1125   2365   2449   6189   6301   6581   6585   6588   6634   6699
                                                  6746   6793   6838   6862   6914   6942   6966   8288   8594   8900
 XDCLRNUL      2 00000A08 00000001     H    9800  9627
 XDCMDNUL      2 00000994 00000001     H    9666  9325
 XDEBUG        2 00000574 00000001     H    9209  9205
 XDELETE       1 00000000 0000000F     T   12777 12777
 XDELSET       1 00000000 00000016     T   16271 16271  20401
 XDSETNUL      2 000009CE 00000001     H    9733  9582
 XDSNAME      64 00000000 FFFFFFE8     J    6633  6636   6637   6670   6691   6717   6738   6764   6785   6958   8279
                                                  8585   8891  15536  15834
 XGET          1 00000000 00000025     T   20411 20411  22371
 XGETFRST      1 00000000 00000005     T    9188  9188  12780  16268  20412  22370
 XGETNEXT      1 00000000 00000006     T    9189  9189  12784  16269  22378
 XMONITOR      2 000021A0 00000001     H   16669 16665
 XNAME        56 00000000 FFFFFFE8     C    6623  6624
 XPUT          1 00000000 0000000E     T   12774 12774  20410
 XSETSET       1 00000000 00000004     T    9187  9187  12773  16267  20409  22369
 =A(ADDMMEM)
               4 00002E8C 00000001     A   20416 19895
 =A(CALLMSG)
               4 00000554 00000001     A    9182  7913   7953
 =A(CHKLINE)
               4 00000544 00000001     A    9178  7264
 =A(CHKNAME)
               4 00000550 00000001     A    9181  7896
 =A(CHKOFLOW)
               4 00002E54 00000001     A   20402 18477
 =A(CHKRET)
               4 0000055C 00000001     A    9184  8126
 =A(CLRMINFO)
               4 00002E30 00000001     A   20393 17425  17543  17665  18453
 =A(CLRMMEM)
               4 00002E2C 00000001     A   20392 17421  17555  17661
 =A(CLRTRAPS)
               4 00001FEC 00000001     A   16270 14085
 =A(CV#FEXEC)
               4 00000540 00000001     A    9177  7249   7887
 =A(CV#FEXEC)
               4 00002050 00000001     A   16295 15908  16143
 =A(CV#FEXEC)
               4 00002E80 00000001     A   20413 19571
 =A(DBCLEAR)
1DBUG     (DBUG2163) (12:41) (15MAR04) Ordinary Symbol and Literal Cross Reference                                          Page  129
               4 0000144C 00000001     A   12770 10118  10208
 =A(DCLEAR)
               4 0000143C 00000001     A   12766  9837
 =A(DCLRPRT)
               4 00001444 00000001     A   12768 10019
 =A(DEBUGPRT)
               4 00001430 00000001     A   12763  9263
 =A(DSETPRT)
               4 00001440 00000001     A   12767  9919
 =A(DTRCPRT)
               4 0000148C 00000001     A   12786 12412
 =A(GETMINFO)
               4 00002E38 00000001     A   20395 17549
 =A(GETMMAX)
               4 00002E28 00000001     A   20391 17414
 =A(GETNAMES)
               4 00002E60 00000001     A   20405 18489
 =A(GETRAW)
               4 00002E58 00000001     A   20403 18481
 =A(GETSUM)
               4 00002E5C 00000001     A   20404 18485
 =A(GTTLINE)
               4 00001454 00000001     A   12772 10577  10950
 =A(GTTNAME)
               4 00001460 00000001     A   12775 10642  11029
 =A(GTTRET)
               4 00001464 00000001     A   12776 10716  11117
 =A(GXMAXCNT)
               4 00002E88 00000001     A   20415 19693
 =A(INITMMEM)
               4 00002E34 00000001     A   20394 17431
 =A(MCLEAR)
               4 00002E24 00000001     A   20390 17266  19701
 =A(MMEMBIG)
               4 00002E48 00000001     A   20399 17835  20283
 =A(MMEMMAX)
               4 00002EA0 00000001     A   20421 20259
 =A(MMEMMIN)
               4 00002E98 00000001     A   20419 20238
 =A(MONPRT)
               4 00002E08 00000001     A   20383 16723
 =A(MSEGCPU)
               4 000036A0 00000001     A   22376 21186  21594
 =A(MSEGLNO)
               4 00001478 00000001     A   12781 11621
 =A(MSEGLNO)
               4 00003698 00000001     A   22374 21176  21584  22322
 =A(MSEGNO)
               4 0000369C 00000001     A   22375 21181  21589  21599  21888
 =A(MSTART)
               4 00002E18 00000001     A   20387 17048  17337
 =A(MSTOP)
               4 00002E20 00000001     A   20389 17195
 =A(MSTOP)
               4 00003648 00000001     A   22360 20511
 =A(MSTRTPRT)
               4 00002E14 00000001     A   20386 17030
 =A(NEXTNTRY)
               4 00002E6C 00000001     A   20408 18792  18866  18953  19131  19204  19332
1DBUG     (DBUG2163) (12:41) (15MAR04) Ordinary Symbol and Literal Cross Reference                                          Page  130
 =A(NEXTPTR)
               4 0000219C 00000001     A   16648 16493
 =A(RETMSG)
               4 00000560 00000001     A    9185  8143   8185
 =A(SCANTRAP)
               4 00001450 00000001     A   12771 10550  10923
 =A(SCNXNAME)
               4 0000200C 00000001     A   16278 14760  15082  15356
 =A(SHOWMPRT)
               4 0000364C 00000001     A   22361 20536
 =A(SHOWNAMS)
               4 00003664 00000001     A   22367 20867
 =A(SHOWRAW)
               4 00003660 00000001     A   22366 20796
 =A(SHOWSUM)
               4 0000365C 00000001     A   22365 20725
 =A(STOPMSG)
               4 00000548 00000001     A    9179  7533   7742
 =A(STRET)
               4 0000201C 00000001     A   16282 15011
 =A(TLOCPRT)
               4 00001FF4 00000001     A   16272 14423
 =A(1)         4 00002000 00000001     A   16275 14630  14901
 =A(1)         4 000036C8 00000001     A   22386 22312
 =A(16)        4 00002010 00000001     A   16279 14841
 =A(2)         4 00002004 00000001     A   16276 14719  15041  15315
 =A(3)         4 00002018 00000001     A   16281 14990  15175
 =A(384/2)
               4 000036C4 00000001     A   22385 22303
 =A(6)         4 00002020 00000001     A   16283 15189
 =AL2(L'MONENTRY)
               2 00002F5C 00000001     R   20431 20198
 =AL4(CV#FEXEC)
               4 00000558 00000001     R    9183  8077
 =AL4(L'MONENTRY)
               4 00002E44 00000001     R   20398 17819  18033
 =AL4(MAXBIGCT)
               4 00002EA8 00000001     R   20423 20298
 =AL4(MMEMBIG)
               4 00002EDC 00000001     R   20426 20340
 =AL4(MMEMBSZ)
               4 00002E3C 00000001     R   20396 17800  18008
 =AL4(MMEMDFLT)
               4 00002E90 00000001     R   20417 20181
 =AL4(MMEMFDGE)
               4 00002E94 00000001     R   20418 20199
 =AL4(MMEMMAX)
               4 00002EA4 00000001     R   20422 20265
 =AL4(MMEMMIN)
               4 00002E9C 00000001     R   20420 20244
 =C'          '
              10 000014A8 00000001     C   12789 11642
 =C'        ID  Name'
              16 00003638 00000001     C   22359 21838
 =C'   Line           ID    CPU        Count'
              40 00003610 00000001     C   22358 21563
 =C'   Line           ID    CPU '
              28 0000367C 00000001     C   22373 21155
 =C'  '        2 000014B2 00000001     C   12790 11780  11828  11981  12029
1DBUG     (DBUG2163) (12:41) (15MAR04) Ordinary Symbol and Literal Cross Reference                                          Page  131
 =C'  '        2 000036CE 00000001     C   22388 21894
 =C' '         1 0000370F 00000001     C   22393 22047
 =C' in '      4 00002040 00000001     C   16291 15727
 =C'- Entering '
              11 00002098 00000001     C   16304 15921
 =C'- Returning from '
              17 000020A6 00000001     C   16306 16157
 =C'- Stopped at line '
              18 00002062 00000001     C   16300 15608
 =C'######'
               6 00002074 00000001     C   16301 15704
 =C'earlier data has been overwritten.'
              34 00002EE2 00000001     C   20428 18619
 =C'in '       3 000020A3 00000001     C   16305 15988
 =C'Command logging on.'
              19 0000150A 00000001     C   12795 11440
 =C'Count value ignored.'
              20 00002EC8 00000001     C   20425 20326
 =C'Debug tracing on.'
              17 00001534 00000001     C   12797 11527
 =C'Debug tracing traps on.'
              23 0000151D 00000001     C   12796 11494
 =C'Debugging session active.'
              25 000014D4 00000001     C   12793 11367
 =C'Debugging session not active.'
              29 000014ED 00000001     C   12794 11400  12238
 =C'DEBUG NEXT: may not be issued from EXEC file.'
              45 0000155D 00000001     C   12800 12266
 =C'Error: Unable to resolve exec data set names. '
              46 00002F2E 00000001     C   20430 19725
 =C'IN'        2 0000205A 00000001     C   16298 14732  15054  15328
 =C'Line Traps:'
              11 00001545 00000001     C   12798 11583
 =C'Missing option.'
              15 000014B4 00000001     C   12791  9773
 =C'Missing options.'
              16 00002DF8 00000001     C   20382 16944
 =C'Missing trap specification.'
              27 0000207A 00000001     C   16302 14560
 =C'Missing DEBUG command.'
              22 00001492 00000001     C   12788  9706
 =C'Monitor Data Summary:'
              21 000036E3 00000001     C   22391 21435
 =C'Monitor Exec Name Data:'
              23 000036F8 00000001     C   22392 21820
 =C'Monitor Raw Data:'
              17 000036D2 00000001     C   22390 21027
 =C'No such trap set.'
              17 000014C3 00000001     C   12792 10967  11046  11134
 =C'Note: Monitor buffer full, '
              27 00002F5E 00000001     C   20432 18601
 =C'Proc Name Traps:'
              16 00001420 00000001     C   12762 11741
 =C'Return Traps:'
              13 00001550 00000001     C   12799 11942
 =C'RET'       3 00002095 00000001     C   16303 15003
 =C'Too many big XMON sessions. '
              28 00002EAC 00000001     C   20424 20308
 =C'Too many execs loaded/unloaded or called. '
1DBUG     (DBUG2163) (12:41) (15MAR04) Ordinary Symbol and Literal Cross Reference                                          Page  132
              42 00002F04 00000001     C   20429 19707
 =C'XPROC   '
               8 00001FD8 00000001     C   16266 15978
 =CL6'RETURN'
               6 0000205C 00000001     C   16299 15204
 =CL7'UNKNOWN'
               7 00002F79 00000001     C   20433 19608
 =CL8'SYNTAX'
               8 00001418 00000001     C   12761  9703   9770
 =CL8'SYNTAX'
               8 00001FD0 00000001     C   16265 14557
 =F'10'        4 000036BC 00000001     F   22383 22290
 =F'384'       4 000036C0 00000001     F   22384 22291
 =V(COLLOPTS)
               4 0000146C 00000001     V   12778 11344  12215
 =V(COLLOPTS)
               4 00003658 00000001     V   22364 20721  20792  20863
 =V(CPUFIX)
               4 000036B8 00000001     V   22382 22284
 =V(CVEXNO)
               4 0000203C 00000001     V   16290 15657
 =V(CVEXNO)
               4 000036B0 00000001     V   22380 22064
 =V(DOFNAME)
               4 00002024 00000001     V   16284 15447
 =V(EXECHK)
               4 00001488 00000001     V   12785 12277
 =V(EXPAUSE)
               4 0000054C 00000001     V    9180  7537   7746
 =V(FNAMEFIN)
               4 0000202C 00000001     V   16286 15455
 =V(FNAMOPTS)
               4 00002028 00000001     V   16285 15451
 =V(FREECORE)
               4 00002E4C 00000001     V   20400 18185  18208
 =V(GETCORE)
               4 00002E40 00000001     V   20397 17803  18011
 =V(GETCPU)
               4 00002198 00000001     V   16647 16389  16497
 =V(GETXNAME)
               4 00000564 00000001     V    9186  8370   8676   8982
 =V(GETXNAME)
               4 00002044 00000001     V   16292 15747  16006
 =V(GETXNAME)
               4 00002E84 00000001     V   20414 19594
 =V(NOOPTS)
               4 00001448 00000001     V   12769 10112  10202  10282  10364
 =V(NOOPTS)
               4 00002E1C 00000001     V   20388 17191  17262  17333
 =V(NOTVALID)
               4 00002008 00000001     V   16277 14740  14850  15062  15198  15223  15336
 =V(NRESOLVE)
               4 00002030 00000001     V   16287 15459
 =V(NSCAN)
               4 00001434 00000001     V   12764  9267   9923  10023  12416
 =V(NSCAN)
               4 00001FF8 00000001     V   16273 14427  14653  14924  15249
 =V(NSCAN)
               4 00002E0C 00000001     V   20384 16727  17034
1DBUG     (DBUG2163) (12:41) (15MAR04) Ordinary Symbol and Literal Cross Reference                                          Page  133
 =V(NSCAN)
               4 00003650 00000001     V   22362 20540
 =V(SCANCHK)
               4 00001438 00000001     V   12765  9281   9937  10037  12430
 =V(SCANCHK)
               4 00001FFC 00000001     V   16274 14441  14667  14938  15263
 =V(SCANCHK)
               4 00002E10 00000001     V   20385 16741
 =V(SCANCHK)
               4 00003654 00000001     V   22363 20554
 =V(SCUPCASE)
               4 00002014 00000001     V   16280 14875  14896
 =V(SEG)       4 0000147C 00000001     V   12782 11654  11792  11822  11840  11993  12023  12041
 =V(SEG)       4 00002038 00000001     V   16289 15620  15681  15716  15739  15933  16000  16169
 =V(SEG)       4 00002E64 00000001     V   20406 18613  20320
 =V(SEG)       4 000036AC 00000001     V   22379 21906  22059  22094
 =V(SEGCR)
               4 00001470 00000001     V   12779 11379  11412  11452  11506  11539  11595  11688  11753  11889  11954
                                                 12090
 =V(SEGCR)
               4 0000204C 00000001     V   16294 15778  16041  16226
 =V(SEGCR)
               4 00002E68 00000001     V   20407 18631  19719  20338
 =V(SEGCR)
               4 00003668 00000001     V   22368 21039  21149  21167  21211  21447  21557  21575  21624  21832  21850
                                                 21938
 =V(SEGDC)
               4 000036B4 00000001     V   22381 22198
 =V(SEGFDSN)
               4 00001480 00000001     V   12783 11659  11860  12061
 =V(SEGFDSN)
               4 00003678 00000001     V   22372 21124  21532  21913
 =V(SEGTB)
               4 00002054 00000001     V   16296 15963  16199
 =V(SEGWR)
               4 000036A4 00000001     V   22377 21236  21649
 =V(SEGXDSN)
               4 00002048 00000001     V   16293 15751  16010
 =V(SETXNAME)
               4 00002034 00000001     V   16288 15466
 =V(XDELETE)
               4 00001468 00000001     V   12777 10984  11063  11151
 =V(XDELSET)
               4 00001FF0 00000001     V   16271 14256  14262  14268
 =V(XDELSET)
               4 00002E50 00000001     V   20401 18356  18362  18368
 =V(XGET)      4 00002E78 00000001     V   20411 19265
 =V(XGET)      4 00003674 00000001     V   22371 21103  21511
 =V(XGETFRST)
               4 0000056C 00000001     V    9188  8405   8711   9017
 =V(XGETFRST)
               4 00001474 00000001     V   12780 11563  11721  11922
 =V(XGETFRST)
               4 00001FE4 00000001     V   16268 12939  13064  13348  13473  13757  13882
 =V(XGETFRST)
               4 00002E7C 00000001     V   20412 19544  19671
 =V(XGETFRST)
               4 00003670 00000001     V   22370 21056  21464  21867
 =V(XGETNEXT)
1DBUG     (DBUG2163) (12:41) (15MAR04) Ordinary Symbol and Literal Cross Reference                                          Page  134
               4 00000570 00000001     V    9189  8516   8822   9128
 =V(XGETNEXT)
               4 00001484 00000001     V   12784 11696  11897  12098
 =V(XGETNEXT)
               4 00001FE8 00000001     V   16269 13026  13171  13435  13580  13844  13989
 =V(XGETNEXT)
               4 000036A8 00000001     V   22378 21250  21663  21946
 =V(XPUT)      4 0000145C 00000001     V   12774 10592  10657  10731
 =V(XPUT)      4 00002E74 00000001     V   20410 18926  19305  19626
 =V(XSETSET)
               4 00000568 00000001     V    9187  8395   8701   9007
 =V(XSETSET)
               4 00001458 00000001     V   12773 10584  10649  10723  10978  11057  11145  11555  11713  11914
 =V(XSETSET)
               4 00001FE0 00000001     V   16267 12915  13324  13733
 =V(XSETSET)
               4 00002E70 00000001     V   20409 18815  19154  19527  19618  19663
 =V(XSETSET)
               4 0000366C 00000001     V   22369 21048  21095  21242  21456  21503  21655  21859
 =Y((R1+1-(R0)+16*((R0)/(R1+1))/((R0)/(R1+1)))*4)
               2 000036D0 00000001     Y   22389 21909
 =Y((12+3)/4*4)
               2 00001490 00000001     Y   12787  9273   9929  10029  12422
 =Y((12+3)/4*4)
               2 00002058 00000001     Y   16297 14433  14659  14930  15255
 =Y((12+3)/4*4)
               2 00002EE0 00000001     Y   20427 16733  17040
 =Y((12+3)/4*4)
               2 000036CC 00000001     Y   22387 20546

1DBUG     (DBUG2163) (12:41) (15MAR04) Macro and Copy Code Source Summary                                                   Page  135
- Con Source                                        Volume    Members                        HLASM R4.0  2004/03/15 12.41
0     PRIMARY INPUT                                           CSECT    DROP     END      EX       LTORG    POP
                                                              PRINT    PUSH     START    USING
   L1 WYL.GS.WYL.WYLBUR.MACLIB                      SYSB05    ABORT    AINFO    BASE     BOMB     COLINFO  COMMENT
                                                              CONTROL  CP       CPLOCAL  CV       CVLOCAL  ERROR    JCB
                                                              KAPUT    RG       SCAN     SCANCB   SCANCHK  SCCBADR  SCKW
                                                              SCPOP    SCPUSH   SCUPCASE SCUPTOK  TCR      TNUM     TSEG
                                                              TTYPE    TWRITE   VLTORG   XDSNAME  XTRACE
   L2 WYL.GG.SYS.MACLIB                             SYSB05    $BC      $BFLKUP  $BV      $CCLKUP  $CRS     $CSS     $L
                                                              $LA      $LBLAD   $LEXP    $LOR     $REL     $RGLKUP
                                                              $USLKUP  ACALL    BEGIN    CLEAR    COMPROC  CSECT    DECR
                                                              DEFCC    DPROC    DROP     ELSE     ELSEIF   END      EX
                                                              FLAG     GEN      HIBAL    IDENT    IF       INCR
                                                              LABEL    LC       LS       LTORG    PEND     POP
                                                              PRETURN  PRINT    PROC     PUSH     QLTORG   RECORD   REG
                                                              REGS     SET      SETMSG   START    USING    VCALL
                                                              WHILE    WITH     XPROC
   L3 SYS3.IS.MACLIB                                SYSB05    SEG      SEGCB    SEGCR    SEGDC    SEGLD    SEGWR    SIB
                                                              SYSDEFN  XPOP     XPUSH

1DBUG     (DBUG2163) (12:41) (15MAR04) Dsect Cross Reference                                                                Page  136
-Dsect     Length      Id       Defn                                                         HLASM R4.0  2004/03/15 12.41
0$$$@R0   00000000  FFFFFFFE     705
 $$$@R1   00000000  FFFFFFFD     718
 $$$@R10  00000000  FFFFFFF4     835
 $$$@R11  00000000  FFFFFFF3     848
 $$$@R12  00000000  FFFFFFF2     861
 $$$@R13  00000000  FFFFFFF1     874
 $$$@R14  00000000  FFFFFFF0     887
 $$$@R15  00000000  FFFFFFEF     900
 $$$@R2   00000000  FFFFFFFC     731
 $$$@R3   00000000  FFFFFFFB     744
 $$$@R4   00000000  FFFFFFFA     757
 $$$@R5   00000000  FFFFFFF9     770
 $$$@R6   00000000  FFFFFFF8     783
 $$$@R7   00000000  FFFFFFF7     796
 $$$@R8   00000000  FFFFFFF6     809
 $$$@R9   00000000  FFFFFFF5     822
 $$$RCKLWA
          000000B0  FFFFFFDF    8270
 $$$RCKNWA
          000000BC  FFFFFFDE    8576
 $$$RCKRWA
          000000BC  FFFFFFDD    8882
 $$$RCMWA 00000054  FFFFFFD8   15826
 $$$RCP   00001000  FFFFFFEC    2454
 $$$RCV   00000FB0  FFFFFFEE    1179
 $$$RDCTWA
          00000240  FFFFFFDB   10802
 $$$RDEV  0000000C  FFFFFFEB    4668
 $$$RDSHWWA
          00000120  FFFFFFDA   11217
 $$$RDSTWA
          00000240  FFFFFFDC   10408
 $$$RDTL  00000058  FFFFFFE7    6658
 $$$RDTN  00000064  FFFFFFE6    6705
 $$$RDTR  00000064  FFFFFFE5    6752
 $$$RGRWA 00000038  FFFFFFD7   18693
 $$$RGSWA 0000003C  FFFFFFD6   19032
 $$$RGXWA 00000070  FFFFFFD5   19411
 $$$RJCB  000000D0  FFFFFFE9    6306
 $$$RMMB  00000020  FFFFFFE4    6816
 $$$RMNR  00000050  FFFFFFE0    6948
 $$$RMONENTRY
          0000000C  FFFFFFE3    6846
 $$$RMRR  0000001C  FFFFFFE2    6894
 $$$RMSR  00000020  FFFFFFE1    6920
 $$$RNSCNCB
          000000B0  FFFFFFED    2375
 $$$RSMNWA
          00000050  FFFFFFD2   21727
 $$$RSMRWA
          00000070  FFFFFFD4   20905
 $$$RSMSWA
          00000074  FFFFFFD3   21316
 $$$RSTPWA
          00000040  FFFFFFD9   15530
1DBUG     (DBUG2163) (12:41) (15MAR04) Dsect Cross Reference                                                                Page  137
 $$$RTTYPE
          0000010C  FFFFFFEA    6199
 $$$RXDSNAME
          00000040  FFFFFFE8    6617
 HIBAL    00000000  FFFFFFFF     691

1DBUG     (DBUG2163) (12:41) (15MAR04) Using Map                                                                            Page  138
-                                                                                            HLASM R4.0  2004/03/15 12.41
   Stmt  -----Location----- Action ----------------Using----------------- Reg Max    Last  Label and Using Text
           Count      Id           Type          Value    Range     Id        Disp   Stmt
0   922  00000000  FFFFFFFF USING  ORDINARY    00000000 00001000 FFFFFFEF  15 000          @R15,15
    926  00000000  FFFFFFFF USING  ORDINARY    00000000 00001000 FFFFFFF0  14 002    2170  @R14,14
    930  00000000  FFFFFFFF USING  ORDINARY    00000000 00001000 FFFFFFF1  13 000          @R13,13
    934  00000000  FFFFFFFF USING  ORDINARY    00000000 00001000 FFFFFFF2  12 000          @R12,12
    938  00000000  FFFFFFFF USING  ORDINARY    00000000 00001000 FFFFFFF3  11 000          @R11,11
    942  00000000  FFFFFFFF USING  ORDINARY    00000000 00001000 FFFFFFF4  10 000          @R10,10
    946  00000000  FFFFFFFF USING  ORDINARY    00000000 00001000 FFFFFFF5   9 000          @R9,9
    950  00000000  FFFFFFFF USING  ORDINARY    00000000 00001000 FFFFFFF6   8 000          @R8,8
    954  00000000  FFFFFFFF USING  ORDINARY    00000000 00001000 FFFFFFF7   7 000          @R7,7
    958  00000000  FFFFFFFF USING  ORDINARY    00000000 00001000 FFFFFFF8   6 000          @R6,6
    962  00000000  FFFFFFFF USING  ORDINARY    00000000 00001000 FFFFFFF9   5 000          @R5,5
    966  00000000  FFFFFFFF USING  ORDINARY    00000000 00001000 FFFFFFFA   4 000          @R4,4
    970  00000000  FFFFFFFF USING  ORDINARY    00000000 00001000 FFFFFFFB   3 000          @R3,3
    974  00000000  FFFFFFFF USING  ORDINARY    00000000 00001000 FFFFFFFC   2 000          @R2,2
    978  00000000  FFFFFFFF USING  ORDINARY    00000000 00001000 FFFFFFFD   1 001   15897  @R1,1
    982  00000000  FFFFFFFF USING  ORDINARY    00000000 00001000 FFFFFFFE   0 000          @R0,0
    983  00000000  FFFFFFFF DROP                                            0              0
   1163  00000017  00000001 USING  ORDINARY    00000000 00001000 FFFFFFEC  11 D5A   22195  CP,CPR
   1172  00000017  00000001 USING  ORDINARY    00000000 00001000 FFFFFFEE  12 890   22256  CV,CVR
   7010  0000003E  00000001 USING  ORDINARY    0000003E 00001000 00000001   7 000          $$$43B,7
   7128  0000007E  00000001 USING  ORDINARY    00000000 00001000 FFFFFFF7   7 000          @R7,7
   7230  000000A6  00000001 USING  ORDINARY    000000A6 00001000 00000001   7 4A6    7773  $$$46B,7
   7809  000001DA  00000001 USING  ORDINARY    00000000 00001000 FFFFFFF7   7 000          @R7,7
   7868  00000202  00000001 USING  ORDINARY    00000202 00001000 00000001   7 352    7965  $$$69B,7
   7999  00000240  00000001 USING  ORDINARY    00000000 00001000 FFFFFFF7   7 000          @R7,7
   8058  00000268  00000001 USING  ORDINARY    00000268 00001000 00000001   7 2F8    8197  $$$77B,7
   8237  000002CA  00000001 USING  ORDINARY    00000000 00001000 FFFFFFF7   7 000          @R7,7
   8324  000002F2  00000001 USING  ORDINARY    000002F2 00001000 00000001   7 27E    8521  $$$87B,7
   8338  000002F2  00000001 USING  ORDINARY    FFFFFFD8 00001000 FFFFFFDF   8 080    8496  CKLWA-(4+36),R8
   8349  000002F2  00000001 USING  ORDINARY    00000000 00001000 FFFFFFE7   6 018    8513  DTL,R6
   8531  00000394  00000001 USING  ORDINARY    00000000 00001000 FFFFFFF6   8 000          @R8,8
   8536  00000394  00000001 USING  ORDINARY    00000000 00001000 FFFFFFF7   7 000          @R7,7
   8555  000003A2  00000001 USING  ORDINARY    00000000 00001000 FFFFFFF8   6 000          @R6,6
   8630  000003BC  00000001 USING  ORDINARY    000003BC 00001000 00000001   7 1B4    8827  $$$98B,7
   8644  000003BC  00000001 USING  ORDINARY    FFFFFFD8 00001000 FFFFFFDE   8 080    8802  CKNWA-(4+36),R8
   8655  000003BC  00000001 USING  ORDINARY    00000000 00001000 FFFFFFE6   6 021    8819  DTN,R6
   8837  00000462  00000001 USING  ORDINARY    00000000 00001000 FFFFFFF6   8 000          @R8,8
   8842  00000462  00000001 USING  ORDINARY    00000000 00001000 FFFFFFF7   7 000          @R7,7
   8861  00000470  00000001 USING  ORDINARY    00000000 00001000 FFFFFFF8   6 000          @R6,6
   8936  0000048A  00000001 USING  ORDINARY    0000048A 00001000 00000001   7 0E6    9133  $$$109B,7
   8950  0000048A  00000001 USING  ORDINARY    FFFFFFD8 00001000 FFFFFFDD   8 080    9108  CKRWA-(4+36),R8
   8961  0000048A  00000001 USING  ORDINARY    00000000 00001000 FFFFFFE5   6 021    9125  DTR,R6
   9143  00000530  00000001 USING  ORDINARY    00000000 00001000 FFFFFFF6   8 000          @R8,8
   9148  00000530  00000001 USING  ORDINARY    00000000 00001000 FFFFFFF7   7 000          @R7,7
   9167  0000053E  00000001 USING  ORDINARY    00000000 00001000 FFFFFFF8   6 000          @R6,6
   9235  0000058E  00000001 USING  ORDINARY    0000058E 00001000 00000001   7 F02    9281  $$$120B,7
   9295  000005EC  00000001 USING  ORDINARY    00000000 00001000 FFFFFFF7   7 000          @R7,7
   9692  000009AE  00000001 USING  ORDINARY    000009AE 00001000 00000001   7 AE4    9706  $$$123B,7
   9715  000009C0  00000001 USING  ORDINARY    00000000 00001000 FFFFFFF7   7 000          @R7,7
   9759  000009E8  00000001 USING  ORDINARY    000009E8 00001000 00000001   7 ACC    9773  $$$126B,7
   9782  000009FA  00000001 USING  ORDINARY    00000000 00001000 FFFFFFF7   7 000          @R7,7
   9826  00000A22  00000001 USING  ORDINARY    00000A22 00001000 00000001   7 A1A    9837  $$$129B,7
   9846  00000A2C  00000001 USING  ORDINARY    00000000 00001000 FFFFFFF7   7 000          @R7,7
1DBUG     (DBUG2163) (12:41) (15MAR04) Using Map                                                                            Page  139
   9893  00000A54  00000001 USING  ORDINARY    00000A54 00001000 00000001   7 A3C    9937  $$$132B,7
   9946  00000AB0  00000001 USING  ORDINARY    00000000 00001000 FFFFFFF7   7 000          @R7,7
   9993  00000AD8  00000001 USING  ORDINARY    00000AD8 00001000 00000001   7 9B8   10037  $$$135B,7
  10046  00000B34  00000001 USING  ORDINARY    00000000 00001000 FFFFFFF7   7 000          @R7,7
  10099  00000B5C  00000001 USING  ORDINARY    00000B5C 00001000 00000001   7 8F0   10118  $$$138B,7
  10136  00000B70  00000001 USING  ORDINARY    00000000 00001000 FFFFFFF7   7 000          @R7,7
  10189  00000B98  00000001 USING  ORDINARY    00000B98 00001000 00000001   7 8B4   10208  $$$141B,7
  10218  00000BA8  00000001 USING  ORDINARY    00000000 00001000 FFFFFFF7   7 000          @R7,7
  10269  00000BD0  00000001 USING  ORDINARY    00000BD0 00001000 00000001   7 878   10282  $$$144B,7
  10300  00000BDE  00000001 USING  ORDINARY    00000000 00001000 FFFFFFF7   7 000          @R7,7
  10351  00000C06  00000001 USING  ORDINARY    00000C06 00001000 00000001   7 842   10364  $$$147B,7
  10383  00000C14  00000001 USING  ORDINARY    00000000 00001000 FFFFFFF7   7 000          @R7,7
  10464  00000C3C  00000001 USING  ORDINARY    00000C3C 00001000 00000001   7 828   10739  $$$150B,7
  10478  00000C3C  00000001 USING  ORDINARY    FFFFFFD8 00001000 FFFFFFDC   8 204   10713  DSTWA-(4+36),R8
  10489  00000C3C  00000001 USING  ORDINARY    00000000 00001000 FFFFFFE7   4 010   10946  DTL,R4
  10498  00000C3C  00000001 USING  ORDINARY    00000000 00001000 FFFFFFE6   5 021   11894  DTN,R5
  10507  00000C3C  00000001 USING  ORDINARY    00000000 00001000 FFFFFFE5   6 010   11113  DTR,R6
  10772  00000D8E  00000001 USING  ORDINARY    00000000 00001000 FFFFFFF6   8 000          @R8,8
  10777  00000D8E  00000001 USING  ORDINARY    00000000 00001000 FFFFFFF7   7 000          @R7,7
  10858  00000DB6  00000001 USING  ORDINARY    00000DB6 00001000 00000001   7 70D   11159  $$$160B,7
  10872  00000DB6  00000001 USING  ORDINARY    FFFFFFD8 00001000 FFFFFFDB   8 204   11114  DCTWA-(4+36),R8
  11187  00000EC6  00000001 USING  ORDINARY    00000000 00001000 FFFFFFF6   8 000          @R8,8
  11192  00000EC6  00000001 USING  ORDINARY    00000000 00001000 FFFFFFF7   7 000          @R7,7
  11270  00000EEE  00000001 USING  ORDINARY    00000EEE 00001000 00000001   7 662   12103  $$$173B,7
  11284  00000EEE  00000001 USING  ORDINARY    FFFFFFD8 00001000 FFFFFFDA   8 0E4   11316  DSHWWA-(4+36),R8
  11295  00000EEE  00000001 USING  ORDINARY    00000000 00001000 FFFFFFF8   6 000          @R6,6
  11298  00000EEE  00000001 USING  ORDINARY    00000000 00001000 FFFFFFE7   6 018   11693  DTL,R6
  11309  00000EEE  00000001 USING  ORDINARY    00000000 00001000 FFFFFFFA   4 000          @R4,4
  11312  00000EEE  00000001 USING  ORDINARY    00000000 00001000 FFFFFFE5   4 021   12095  DTR,R4
  12122  000011A6  00000001 USING  ORDINARY    00000000 00001000 FFFFFFF6   8 000          @R8,8
  12127  000011A6  00000001 USING  ORDINARY    00000000 00001000 FFFFFFF7   7 000          @R7,7
  12146  000011B4  00000001 USING  ORDINARY    00000000 00001000 FFFFFFF8   6 000          @R6,6
  12153  000011B4  00000001 USING  ORDINARY    00000000 00001000 FFFFFFF9   5 000   13942  @R5,5
  12160  000011B4  00000001 USING  ORDINARY    00000000 00001000 FFFFFFFA   4 000   13956  @R4,4
  12202  000011CE  00000001 USING  ORDINARY    000011CE 00001000 00000001   7 38F   12277  $$$194B,7
  12307  00001210  00000001 USING  ORDINARY    00000000 00001000 FFFFFFF7   7 000          @R7,7
  12361  00001238  00000001 USING  ORDINARY    00001238 00001000 00000001   7 258   12430  $$$199B,7
  12444  000012A2  00000001 USING  ORDINARY    00000000 00001000 FFFFFFF7   7 000          @R7,7
  12569  00001392  00000001 USING  ORDINARY    00001392 00001000 00000001   7 000          $$$202B,7
  12590  00001396  00000001 USING  ORDINARY    00000000 00001000 FFFFFFF7   7 000          @R7,7
  12636  000013BE  00000001 USING  ORDINARY    000013BE 00001000 00000001   7 000          $$$205B,7
  12665  000013C6  00000001 USING  ORDINARY    00000000 00001000 FFFFFFF7   7 000          @R7,7
  12711  000013EE  00000001 USING  ORDINARY    000013EE 00001000 00000001   7 000          $$$208B,7
  12738  000013F6  00000001 USING  ORDINARY    00000000 00001000 FFFFFFF7   7 000          @R7,7
  12854  000015A4  00000001 USING  ORDINARY    000015A4 00001000 00000001   7 A44   13180  $$$211B,7
  12870  000015A4  00000001 USING  ORDINARY    00000000 00001000 FFFFFFE7   6 018   13168  DTL,R6
  13194  000016A0  00000001 USING  ORDINARY    00000000 00001000 FFFFFFF7   7 000          @R7,7
  13213  000016AE  00000001 USING  ORDINARY    00000000 00001000 FFFFFFF8   6 000          @R6,6
  13263  000016C8  00000001 USING  ORDINARY    000016C8 00001000 00000001   7 920   13589  $$$230B,7
  13279  000016C8  00000001 USING  ORDINARY    00000000 00001000 FFFFFFE6   6 021   13577  DTN,R6
  13603  000017C4  00000001 USING  ORDINARY    00000000 00001000 FFFFFFF7   7 000          @R7,7
  13622  000017D2  00000001 USING  ORDINARY    00000000 00001000 FFFFFFF8   6 000          @R6,6
  13672  000017EC  00000001 USING  ORDINARY    000017EC 00001000 00000001   7 7FC   13998  $$$249B,7
  13688  000017EC  00000001 USING  ORDINARY    00000000 00001000 FFFFFFE5   6 021   13986  DTR,R6
  14012  000018E8  00000001 USING  ORDINARY    00000000 00001000 FFFFFFF7   7 000          @R7,7
  14031  000018F6  00000001 USING  ORDINARY    00000000 00001000 FFFFFFF8   6 000          @R6,6
  14072  00001910  00000001 USING  ORDINARY    00001910 00001000 00000001   7 6DC   14085  $$$268B,7
  14170  00001940  00000001 USING  ORDINARY    00000000 00001000 FFFFFFF7   7 000          @R7,7
  14241  00001968  00000001 USING  ORDINARY    00001968 00001000 00000001   7 688   14268  $$$271B,7
1DBUG     (DBUG2163) (12:41) (15MAR04) Using Map                                                                            Page  140
  14281  00001994  00000001 USING  ORDINARY    00000000 00001000 FFFFFFF7   7 000          @R7,7
  14342  000019BC  00000001 USING  ORDINARY    000019BC 00001000 00000001   7 69C   14441  $$$274B,7
  14358  000019BC  00000001 USING  ORDINARY    00000000 00001000 FFFFFFE7   3 018   14757  DTL,R3
  14367  000019BC  00000001 USING  ORDINARY    00000000 00001000 FFFFFFE6   4 021   15160  DTN,R4
  14376  000019BC  00000001 USING  ORDINARY    00000000 00001000 FFFFFFE5   5 021   15353  DTR,R5
  14453  00001A2E  00000001 USING  ORDINARY    00000000 00001000 FFFFFFF7   7 000          @R7,7
  14546  00001ACE  00000001 USING  ORDINARY    00001ACE 00001000 00000001   7 5AC   14560  $$$277B,7
  14569  00001AE0  00000001 USING  ORDINARY    00000000 00001000 FFFFFFF7   7 000          @R7,7
  14616  00001B08  00000001 USING  ORDINARY    00001B08 00001000 00000001   7 552   14760  $$$280B,7
  14773  00001BB4  00000001 USING  ORDINARY    00000000 00001000 FFFFFFF7   7 000          @R7,7
  14821  00001BDC  00000001 USING  ORDINARY    00001BDC 00001000 00000001   7 4B9   15082  $$$288B,7
  15095  00001CCE  00000001 USING  ORDINARY    00000000 00001000 FFFFFFF7   7 000          @R7,7
  15143  00001CF6  00000001 USING  ORDINARY    00001CF6 00001000 00000001   7 366   15356  $$$300B,7
  15369  00001DCA  00000001 USING  ORDINARY    00000000 00001000 FFFFFFF7   7 000          @R7,7
  15431  00001DF2  00000001 USING  ORDINARY    00001DF2 00001000 00000001   7 242   15466  $$$311B,7
  15479  00001E16  00000001 USING  ORDINARY    00000000 00001000 FFFFFFF7   7 000          @R7,7
  15498  00001E24  00000001 USING  ORDINARY    00000000 00001000 FFFFFFFB   3 000          @R3,3
  15505  00001E24  00000001 USING  ORDINARY    00000000 00001000 FFFFFFFA   4 000          @R4,4
  15512  00001E24  00000001 USING  ORDINARY    00000000 00001000 FFFFFFF9   5 000          @R5,5
  15580  00001E3E  00000001 USING  ORDINARY    00001E3E 00001000 00000001   7 236   15778  $$$314B,7
  15594  00001E3E  00000001 USING  ORDINARY    FFFFFFD8 00001000 FFFFFFD9   8 028   15744  STPWA-(4+36),R8
  15791  00001EBC  00000001 USING  ORDINARY    00000000 00001000 FFFFFFF6   8 000          @R8,8
  15796  00001EBC  00000001 USING  ORDINARY    00000000 00001000 FFFFFFF7   7 000          @R7,7
  15878  00001EE4  00000001 USING  ORDINARY    00001EE4 00001000 00000001   7 1BF   16041  $$$320B,7
  15892  00001EE4  00000001 USING  ORDINARY    FFFFFFD8 00001000 FFFFFFD8   8 03C   16003  CMWA-(4+36),R8
  16058  00001F5A  00000001 USING  ORDINARY    00000000 00001000 FFFFFFF6   8 000          @R8,8
  16063  00001F5A  00000001 USING  ORDINARY    00000000 00001000 FFFFFFF7   7 000          @R7,7
  16121  00001F82  00000001 USING  ORDINARY    00001F82 00001000 00000001   7 124   16226  $$$325B,7
  16243  00001FBC  00000001 USING  ORDINARY    00000000 00001000 FFFFFFF7   7 000          @R7,7
  16356  000020D2  00000001 USING  ORDINARY    000020D2 00001000 00000001   7 0CA   16497  $$$329B,7
  16372  000020D2  00000001 USING  ORDINARY    00000000 00001000 FFFFFFE4   6 020   17822  MMB,R6
  16381  000020D2  00000001 USING  ORDINARY    00000000 00001000 FFFFFFE3   1 00C   18591  MONENTRY,R1
  16402  000020E6  00000001 USING  ORDINARY    00000000 00001000 FFFFFFE9  15 07C   16408  JCB,R15
  16415  000020EA  00000001 USING  ORDINARY    00000000 00001000 FFFFFFEF  15 000          @R15,15
  16510  00002146  00000001 USING  ORDINARY    00000000 00001000 FFFFFFE9  15 07C   16516  JCB,R15
  16523  0000214A  00000001 USING  ORDINARY    00000000 00001000 FFFFFFEF  15 000          @R15,15
  16541  0000214E  00000001 USING  ORDINARY    00000000 00001000 FFFFFFF7   7 000          @R7,7
  16602  00002176  00000001 USING  ORDINARY    00002176 00001000 00000001   7 000          $$$335B,7
  16624  00002186  00000001 USING  ORDINARY    00000000 00001000 FFFFFFF7   7 000          @R7,7
  16695  000021BA  00000001 USING  ORDINARY    000021BA 00001000 00000001   7 D26   16741  $$$338B,7
  16755  00002218  00000001 USING  ORDINARY    00000000 00001000 FFFFFFF7   7 000          @R7,7
  16931  00002382  00000001 USING  ORDINARY    00002382 00001000 00000001   7 A76   16944  $$$341B,7
  16953  0000238E  00000001 USING  ORDINARY    00000000 00001000 FFFFFFF7   7 000          @R7,7
  17000  000023B6  00000001 USING  ORDINARY    000023B6 00001000 00000001   7 B2A   17048  $$$344B,7
  17057  00002416  00000001 USING  ORDINARY    00000000 00001000 FFFFFFF7   7 000          @R7,7
  17104  0000243E  00000001 USING  ORDINARY    0000243E 00001000 00000001   7 000          $$$347B,7
  17133  0000244C  00000001 USING  ORDINARY    00000000 00001000 FFFFFFF7   7 000          @R7,7
  17180  00002474  00000001 USING  ORDINARY    00002474 00001000 00000001   7 9AC   17195  $$$350B,7
  17204  00002484  00000001 USING  ORDINARY    00000000 00001000 FFFFFFF7   7 000          @R7,7
  17251  000024AC  00000001 USING  ORDINARY    000024AC 00001000 00000001   7 978   17266  $$$353B,7
  17275  000024BC  00000001 USING  ORDINARY    00000000 00001000 FFFFFFF7   7 000          @R7,7
  17322  000024E4  00000001 USING  ORDINARY    000024E4 00001000 00000001   7 938   17337  $$$356B,7
  17346  000024F4  00000001 USING  ORDINARY    00000000 00001000 FFFFFFF7   7 000          @R7,7
  17401  0000251C  00000001 USING  ORDINARY    0000251C 00001000 00000001   7 918   17431  $$$359B,7
  17455  00002542  00000001 USING  ORDINARY    00000000 00001000 FFFFFFF7   7 000          @R7,7
  17510  0000256A  00000001 USING  ORDINARY    0000256A 00001000 00000001   7 8CE   17555  $$$362B,7
  17595  00002598  00000001 USING  ORDINARY    00000000 00001000 FFFFFFF7   7 000          @R7,7
  17648  000025C0  00000001 USING  ORDINARY    000025C0 00001000 00000001   7 870   17665  $$$366B,7
  17708  000025E4  00000001 USING  ORDINARY    00000000 00001000 FFFFFFF7   7 000          @R7,7
1DBUG     (DBUG2163) (12:41) (15MAR04) Using Map                                                                            Page  141
  17761  0000260C  00000001 USING  ORDINARY    0000260C 00001000 00000001   7 83C   17836  $$$369B,7
  17868  00002674  00000001 USING  ORDINARY    00000000 00001000 FFFFFFF7   7 000          @R7,7
  17887  00002682  00000001 USING  ORDINARY    00000000 00001000 FFFFFFF8   6 000          @R6,6
  17936  0000269C  00000001 USING  ORDINARY    0000269C 00001000 00000001   7 7A8   18064  $$$374B,7
  17952  0000269C  00000001 USING  ORDINARY    00000000 00001000 FFFFFFE4   6 020   18060  MMB,R6
  18077  0000272C  00000001 USING  ORDINARY    00000000 00001000 FFFFFFF7   7 000          @R7,7
  18096  0000273A  00000001 USING  ORDINARY    00000000 00001000 FFFFFFF8   6 000          @R6,6
  18136  00002754  00000001 USING  ORDINARY    00002754 00001000 00000001   7 6F8   18258  $$$381B,7
  18152  00002754  00000001 USING  ORDINARY    00000000 00001000 FFFFFFE4   6 014   18578  MMB,R6
  18289  000027B8  00000001 USING  ORDINARY    00000000 00001000 FFFFFFF7   7 000          @R7,7
  18341  000027E0  00000001 USING  ORDINARY    000027E0 00001000 00000001   7 670   18368  $$$389B,7
  18381  0000280C  00000001 USING  ORDINARY    00000000 00001000 FFFFFFF7   7 000          @R7,7
  18440  00002834  00000001 USING  ORDINARY    00002834 00001000 00000001   7 62C   18489  $$$392B,7
  18506  0000285E  00000001 USING  ORDINARY    00000000 00001000 FFFFFFF7   7 000          @R7,7
  18563  00002886  00000001 USING  ORDINARY    00002886 00001000 00000001   7 6D8   18631  $$$396B,7
  18648  000028BE  00000001 USING  ORDINARY    00000000 00001000 FFFFFFF7   7 000          @R7,7
  18667  000028CC  00000001 USING  ORDINARY    00000000 00001000 FFFFFFF8   6 000          @R6,6
  18674  000028CC  00000001 USING  ORDINARY    00000000 00001000 FFFFFFFD   1 000          @R1,1
  18747  000028E6  00000001 USING  ORDINARY    000028E6 00001000 00000001   7 58E   18959  $$$400B,7
  18761  000028E6  00000001 USING  ORDINARY    FFFFFFD8 00001000 FFFFFFD7   8 050   18969  GRWA-(4+36),R8
  18772  000028E6  00000001 USING  ORDINARY    00000000 00001000 FFFFFFE2   6 010   18922  MRR,R6
  18781  000028E6  00000001 USING  ORDINARY    00000000 00001000 FFFFFFE3   1 000   18922  MONENTRY,R1
  18982  000029C6  00000001 USING  ORDINARY    00000000 00001000 FFFFFFF6   8 000          @R8,8
  18987  000029C6  00000001 USING  ORDINARY    00000000 00001000 FFFFFFF7   7 000          @R7,7
  19006  000029D4  00000001 USING  ORDINARY    00000000 00001000 FFFFFFF8   6 000          @R6,6
  19013  000029D4  00000001 USING  ORDINARY    00000000 00001000 FFFFFFFD   1 000          @R1,1
  19086  000029EE  00000001 USING  ORDINARY    000029EE 00001000 00000001   7 48A   19338  $$$410B,7
  19100  000029EE  00000001 USING  ORDINARY    FFFFFFD8 00001000 FFFFFFD6   8 054   19348  GSWA-(4+36),R8
  19111  000029EE  00000001 USING  ORDINARY    00000000 00001000 FFFFFFE1   6 01C   19301  MSR,R6
  19120  000029EE  00000001 USING  ORDINARY    00000000 00001000 FFFFFFE3   1 008   19297  MONENTRY,R1
  19361  00002B14  00000001 USING  ORDINARY    00000000 00001000 FFFFFFF6   8 000          @R8,8
  19366  00002B14  00000001 USING  ORDINARY    00000000 00001000 FFFFFFF7   7 000          @R7,7
  19385  00002B22  00000001 USING  ORDINARY    00000000 00001000 FFFFFFF8   6 000          @R6,6
  19392  00002B22  00000001 USING  ORDINARY    00000000 00001000 FFFFFFFD   1 000          @R1,1
  19463  00002B3C  00000001 USING  ORDINARY    00002B3C 00001000 00000001   7 43D   19725  $$$421B,7
  19477  00002B3C  00000001 USING  ORDINARY    FFFFFFD8 00001000 FFFFFFD5   8 078   19656  GXWA-(4+36),R8
  19488  00002B3C  00000001 USING  ORDINARY    00000000 00001000 FFFFFFE0   6 010   19623  MNR,R6
  19497  00002B3C  00000001 USING  ORDINARY    00000000 00001000 FFFFFFE1   5 014   19668  MSR,R5
  19743  00002C64  00000001 USING  ORDINARY    00000000 00001000 FFFFFFF6   8 000          @R8,8
  19748  00002C64  00000001 USING  ORDINARY    00000000 00001000 FFFFFFF7   7 000          @R7,7
  19767  00002C72  00000001 USING  ORDINARY    00000000 00001000 FFFFFFF8   6 000          @R6,6
  19816  00002C8C  00000001 USING  ORDINARY    00002C8C 00001000 00000001   7 200   19906  $$$430B,7
  19832  00002C8C  00000001 USING  ORDINARY    00000000 00001000 FFFFFFE4   6 020   19921  MMB,R6
  19939  00002CD6  00000001 USING  ORDINARY    00000000 00001000 FFFFFFF7   7 000          @R7,7
  19958  00002CE4  00000001 USING  ORDINARY    00000000 00001000 FFFFFFF8   6 000          @R6,6
  20008  00002CFE  00000001 USING  ORDINARY    00002CFE 00001000 00000001   7 030   20060  $$$437B,7
  20024  00002CFE  00000001 USING  ORDINARY    00000000 00001000 FFFFFFE4   6 020   20072  MMB,R6
  20090  00002D34  00000001 USING  ORDINARY    00000000 00001000 FFFFFFF7   7 000          @R7,7
  20109  00002D42  00000001 USING  ORDINARY    00000000 00001000 FFFFFFF8   6 000          @R6,6
  20156  00002D5C  00000001 USING  ORDINARY    00002D5C 00001000 00000001   7 200   20340  $$$442B,7
  20359  00002DDA  00000001 USING  ORDINARY    00000000 00001000 FFFFFFF7   7 000          @R7,7
  20480  00002F9A  00000001 USING  ORDINARY    00002F9A 00001000 00000001   7 732   20554  $$$452B,7
  20568  00003008  00000001 USING  ORDINARY    00000000 00001000 FFFFFFF7   7 000          @R7,7
  20710  00003122  00000001 USING  ORDINARY    00003122 00001000 00000001   7 53A   20725  $$$456B,7
  20734  00003132  00000001 USING  ORDINARY    00000000 00001000 FFFFFFF7   7 000          @R7,7
  20781  0000315A  00000001 USING  ORDINARY    0000315A 00001000 00000001   7 506   20796  $$$459B,7
  20805  0000316A  00000001 USING  ORDINARY    00000000 00001000 FFFFFFF7   7 000          @R7,7
  20852  00003192  00000001 USING  ORDINARY    00003192 00001000 00000001   7 4D2   20867  $$$462B,7
  20876  000031A2  00000001 USING  ORDINARY    00000000 00001000 FFFFFFF7   7 000          @R7,7
1DBUG     (DBUG2163) (12:41) (15MAR04) Using Map                                                                            Page  142
  20957  000031CA  00000001 USING  ORDINARY    000031CA 00001000 00000001   7 508   21255  $$$465B,7
  20971  000031CA  00000001 USING  ORDINARY    FFFFFFD8 00001000 FFFFFFD4   8 094   21089  SMRWA-(4+36),R8
  20982  000031CA  00000001 USING  ORDINARY    00000000 00001000 FFFFFFE2   6 018   21247  MRR,R6
  20991  000031CA  00000001 USING  ORDINARY    00000000 00001000 FFFFFFF9   5 000          @R5,5
  20994  000031CA  00000001 USING  ORDINARY    00000000 00001000 FFFFFFE0   5 010   21100  MNR,R5
  21268  000032E4  00000001 USING  ORDINARY    00000000 00001000 FFFFFFF6   8 000          @R8,8
  21273  000032E4  00000001 USING  ORDINARY    00000000 00001000 FFFFFFF7   7 000          @R7,7
  21292  000032F2  00000001 USING  ORDINARY    00000000 00001000 FFFFFFF8   6 000          @R6,6
  21299  000032F2  00000001 USING  ORDINARY    00000000 00001000 FFFFFFF9   5 000          @R5,5
  21368  0000330C  00000001 USING  ORDINARY    0000330C 00001000 00000001   7 3D7   21668  $$$472B,7
  21382  0000330C  00000001 USING  ORDINARY    FFFFFFD8 00001000 FFFFFFD3   8 098   21497  SMSWA-(4+36),R8
  21393  0000330C  00000001 USING  ORDINARY    00000000 00001000 FFFFFFE1   6 01C   21660  MSR,R6
  21402  0000330C  00000001 USING  ORDINARY    00000000 00001000 FFFFFFE0   5 010   21508  MNR,R5
  21681  00003430  00000001 USING  ORDINARY    00000000 00001000 FFFFFFF6   8 000          @R8,8
  21686  00003430  00000001 USING  ORDINARY    00000000 00001000 FFFFFFF7   7 000          @R7,7
  21705  0000343E  00000001 USING  ORDINARY    00000000 00001000 FFFFFFF8   6 000          @R6,6
  21712  0000343E  00000001 USING  ORDINARY    00000000 00001000 FFFFFFF9   5 000          @R5,5
  21777  00003458  00000001 USING  ORDINARY    00003458 00001000 00000001   7 2A0   21951  $$$479B,7
  21791  00003458  00000001 USING  ORDINARY    FFFFFFD8 00001000 FFFFFFD2   8 028   21813  SMNWA-(4+36),R8
  21802  00003458  00000001 USING  ORDINARY    00000000 00001000 FFFFFFE0   6 010   21943  MNR,R6
  21964  0000350C  00000001 USING  ORDINARY    00000000 00001000 FFFFFFF6   8 000          @R8,8
  21969  0000350C  00000001 USING  ORDINARY    00000000 00001000 FFFFFFF7   7 000          @R7,7
  21988  0000351A  00000001 USING  ORDINARY    00000000 00001000 FFFFFFF8   6 000          @R6,6
  22032  00003534  00000001 USING  ORDINARY    00003534 00001000 00000001   7 1DB   22094  $$$484B,7
  22108  00003568  00000001 USING  ORDINARY    00000000 00001000 FFFFFFF7   7 000          @R7,7
  22164  00003590  00000001 USING  ORDINARY    00003590 00001000 00000001   7 124   22198  $$$487B,7
  22212  000035A8  00000001 USING  ORDINARY    00000000 00001000 FFFFFFF7   7 000          @R7,7
  22268  000035D0  00000001 USING  ORDINARY    000035D0 00001000 00000001   7 0F8   22322  $$$490B,7
  22335  000035F8  00000001 USING  ORDINARY    00000000 00001000 FFFFFFF7   7 000          @R7,7

1         (DBUG2163) (12:41) (15MAR04) General Purpose Register Cross Reference                                             Page  143
- Register  References (M=modified, B=branch, U=USING, D=DROP, N=index)                      HLASM R4.0  2004/03/15 12.41
0    0(0)      982U   983D  2099   2167M  2167   2168M  6993   7136M  7213   7260M  7817M  7851   8007M  8041   8245M
              8306   8354   8366M  8392M  8400M  8511M  8544M  8612   8660   8672M  8698M  8706M  8817M  8850M  8918
              8966   8978M  9004M  9012M  9123M  9156M  9218   9252M  9252   9261   9262   9303M  9675   9707M  9723M
              9742   9774M  9790M  9809   9854M  9876   9908M  9908   9917   9918   9954M  9976  10008M 10008  10017
             10018  10054M 10082  10144M 10172  10226M 10252  10308M 10334  10391M 10446  10581M 10587M 10608  10646M
             10652M 10673  10720M 10726M 10747  10785M 10840  10968M 10975M 11047M 11054M 11135M 11142M 11200M 11252
             11368M 11401M 11441M 11495M 11528M 11552M 11558M 11584M 11643M 11677M 11677  11691M 11710M 11716M 11742M
             11781M 11811M 11829M 11878M 11878  11892M 11911M 11917M 11943M 11982M 12012M 12030M 12079M 12079  12093M
             12135M 12185  12239M 12267M 12315M 12344  12401M 12401  12410  12411  12452M 12552  12598M 12619  12673M
             12694  12746M 12837  12912M 12934M 13021M 13059M 13166M 13202M 13246  13321M 13343M 13430M 13468M 13575M
             13611M 13655  13730M 13752M 13839M 13877M 13984M 14020M 14055  14178M 14224  14253M 14259M 14265M 14289M
             14325  14412M 14412  14421  14422  14461M 14529  14561M 14577M 14599  14625  14626  14639M 14639  14648
             14649  14650  14681M 14681  14719  14781M 14804  14841  14872M 14893M 14910M 14910  14919  14920  14921
             14952M 14952  14990  15041  15103M 15126  15175  15189  15206M 15208M 15235M 15235  15244  15245  15246
             15277M 15277  15315  15377M 15414  15487M 15562  15600  15609M 15624M 15635M 15635  15649  15705M 15728M
             15743M 15767M 15767  15804M 15860  15896  15922M 15952M 15989M 16002M 16030M 16030  16071M 16104  16143
             16158M 16188M 16215M 16215  16251M 16339  16391  16499  16549M 16585  16632M 16678  16712M 16712  16721
             16722  16763M 16914  16945M 16961M 16983  17019M 17019  17028  17029  17045M 17065M 17087  17120  17141M
             17163  17212M 17234  17283M 17305  17354M 17384  17416  17463M 17493  17603M 17631  17716M 17744  17800M
             17810  17813  17816  17876M 17919  18008M 18021  18024  18085M 18119  18297M 18324  18353M 18359M 18365M
             18389M 18423  18514M 18546  18602M 18620M 18656M 18729  18812M 18892M 18895  18923M 18942  18995M 19068
             19151M 19230M 19233  19262M 19302M 19321  19374M 19445  19524M 19530M 19591M 19609M 19615M 19621M 19642
             19660M 19666M 19708M 19726M 19756M 19799  19932  19947M 19991  20083  20098M 20139  20175M 20175  20197
             20309M 20327M 20346M 20352  20367M 20463  20525M 20525  20534  20535  20576M 20693  20742M 20764  20813M
             20835  20884M 20939  21028M 21045M 21051M 21092M 21098M 21138M 21138  21156M 21200M 21200  21225M 21225
             21239M 21245M 21281M 21350  21436M 21453M 21459M 21500M 21506M 21546M 21546  21564M 21613M 21613  21638M
             21638  21652M 21658M 21694M 21759  21821M 21839M 21856M 21862M 21883  21895M 21910M 21927M 21927  21941M
             21977M 22015  22048M 22061M 22083M 22116M 22147  22187M 22220M 22251  22343M
     1(1)      978U  2099   2162M  2163M  2169M  6993   7136M  7213   7261M  7817M  7851   8007M  8041   8245M  8306
              8355   8363   8367M  8401M  8512M  8544M  8612   8673M  8707M  8818M  8850M  8918   8979M  9013M  9124M
              9156M  9218   9248M  9261N  9262N  9264N  9303M  9675   9706M  9723M  9742   9773M  9790M  9809   9854M
              9876   9904M  9917N  9918N  9920N  9954M  9976  10004M 10017N 10018N 10020N 10054M 10082  10144M 10172
             10226M 10252  10308M 10334  10391M 10446  10545M 10573M 10588M 10608  10638M 10653M 10673  10712M 10727M
             10747  10785M 10840  10918M 10946M 10967M 11025M 11046M 11113M 11134M 11200M 11252  11367M 11400M 11440M
             11494M 11527M 11559M 11583M 11618M 11642M 11656M 11692M 11717M 11741M 11780M 11804M 11828M 11857M 11893M
             11918M 11942M 11981M 12005M 12029M 12058M 12094M 12135M 12185  12238M 12266M 12315M 12344  12397M 12410N
             12411N 12413N 12452M 12552  12598M 12619  12673M 12694  12746M 12837  12872  12935M 13022M 13060M 13167M
             13202M 13246  13281  13344M 13431M 13469M 13576M 13611M 13655  13690  13753M 13840M 13878M 13985M 14020M
             14055  14178M 14224  14289M 14325  14380  14408M 14421N 14422N 14424N 14461M 14529  14560M 14577M 14599
             14627M 14630M 14631  14632  14635M 14648N 14649N 14650N 14671M 14672M 14672N 14757M 14781M 14804  14867M
             14888M 14898M 14901M 14902  14903  14906M 14919N 14920N 14921N 14942M 14943M 14943N 15079M 15103M 15126
             15206  15207M 15208M 15231M 15244N 15245N 15246N 15267M 15268M 15268N 15353M 15377M 15414  15442  15463M
             15487M 15562  15601  15608M 15704M 15727M 15744M 15804M 15860  15921M 15945M 15988M 16003M 16071M 16104
             16150  16157M 16181M 16251M 16339  16381U 16440M 16549M 16585  16632M 16678  16708M 16721N 16722N 16724N
             16763M 16914  16944M 16961M 16983  17015M 17028N 17029N 17031N 17065M 17087  17141M 17163  17212M 17234
             17283M 17305  17354M 17384  17463M 17493  17603M 17631  17716M 17744  17805  17808  17809  17876M 17919
             18013  18014  18019  18020  18085M 18119  18181M 18187M 18199  18210M 18297M 18324  18389M 18423  18514M
             18546  18578M 18601M 18619M 18656M 18674U 18729  18781U 18786M 18787  18788M 18788N 18789  18794  18829M
             18843  18873  18885  18893M 18895  18901M 18914  18923M 18942  18950M 18955  18967M 18968  18970N 18995M
             19013U 19068  19120U 19125M 19126  19127M 19127N 19128  19133  19167M 19181  19211  19223  19231M 19233
             19239M 19252  19262M 19278M 19295M 19302M 19321  19329M 19334  19346M 19347  19349N 19374M 19392U 19445
             19531M 19590M 19622M 19642  19667M 19707M 19725M 19756M 19799  19837M 19838M 19838N 19850  19856  19920M
             19921  19932  19947M 19991  20029M 20030M 20030N 20042  20048  20071M 20072  20083  20098M 20139  20308M
             20326M 20367M 20463  20521M 20534N 20535N 20537N 20576M 20693  20742M 20764  20813M 20835  20884M 20939
             21027M 21052M 21099M 21155M 21173M 21178M 21183M 21246M 21281M 21350  21435M 21460M 21507M 21563M 21581M
1         (DBUG2163) (12:41) (15MAR04) General Purpose Register Cross Reference                                             Page  144
             21586M 21591M 21596M 21659M 21694M 21759  21820M 21838M 21863M 21883  21885M 21894M 21910M 21942M 21977M
             22015  22042  22047M 22076M 22116M 22147  22174  22180M 22220M 22251  22281  22317M 22343M
     2(2)      974U  2099   6993   7136M  7213   7817M  7851   8007M  8041   8245M  8306   8402M  8513M  8544M  8612
              8708M  8819M  8850M  8918   9014M  9125M  9156M  9218   9303M  9675   9723M  9742   9790M  9809   9854M
              9876   9954M  9976  10054M 10082  10144M 10172  10226M 10252  10308M 10334  10391M 10446  10546M 10574M
             10589M 10608  10639M 10654M 10673  10713M 10728M 10747  10785M 10840  10919M 10947M 11026M 11114M 11200M
             11252  11560M 11693M 11718M 11894M 11919M 12095M 12135M 12185  12315M 12344  12452M 12552  12598M 12619
             12673M 12694  12746M 12837  12898  12936M 13023M 13061M 13168M 13202M 13246  13307  13345M 13432M 13470M
             13577M 13611M 13655  13716  13754M 13841M 13879M 13986M 14020M 14055  14178M 14224  14289M 14325  14379
             14461M 14529  14577M 14599  14781M 14804  15103M 15126  15377M 15414  15487M 15562  15600M 15743  15804M
             15860  16071M 16104  16150M 16181  16251M 16339  16441M 16442  16443M 16444  16445M 16446M 16447  16453M
             16453  16454  16455  16457M 16469  16475  16549M 16585  16632M 16678  16763M 16914  16961M 16983  17065M
             17087  17141M 17163  17212M 17234  17283M 17305  17354M 17384  17463M 17493  17603M 17631  17716M 17744
             17809M 17812M 17817M 17818M 17819M 17820  17821M 17822  17876M 17919  18020M 18023M 18025M 18026  18027
             18028M 18029M 18030  18031M 18032M 18033M 18034  18035M 18036  18039M 18059  18085M 18119  18180M 18199
             18297M 18324  18389M 18423  18514M 18546  18656M 18729  18894M 18895  18923M 18942  18969M 18970  18995M
             19068  19232M 19233  19262M 19302M 19321  19348M 19349  19374M 19445  19532M 19623M 19642  19668M 19756M
             19799  19947M 19991  20098M 20139  20181M 20197M 20198M 20199M 20217  20223M 20238  20244M 20259  20265M
             20283  20340M 20346  20367M 20463  20576M 20693  20742M 20764  20813M 20835  20884M 20939  21053M 21100M
             21247M 21281M 21350  21461M 21508M 21660M 21694M 21759  21864M 21943M 21977M 22015  22116M 22147  22220M
             22251  22343M
     3(3)      970U  2099   6993   7136M  7213   7817M  7851   8007M  8041   8245M  8306   8544M  8612   8850M  8918
              9156M  9218   9303M  9675   9723M  9742   9790M  9809   9854M  9876   9954M  9976  10054M 10082  10144M
             10172  10226M 10252  10308M 10334  10391M 10446  10547M 10608  10673  10747  10785M 10840  10920M 11200M
             11252  12135M 12185  12315M 12344  12452M 12552  12598M 12619  12673M 12694  12746M 12837  12942M 12966M
             12966  13004M 13004  13037  13067M 13091M 13091  13147M 13147  13182  13202M 13246  13351M 13375M 13375
             13413M 13413  13446  13476M 13500M 13500  13556M 13556  13591  13611M 13655  13760M 13784M 13784  13822M
             13822  13855  13885M 13909M 13909  13965M 13965  14000  14020M 14055  14178M 14224  14289M 14325  14358U
             14378  14380M 14461M 14529  14577M 14599  14781M 14804  15103M 15126  15377M 15414  15487M 15498U 15562
             15601M 15624  15804M 15860  16071M 16104  16251M 16339  16391M 16408M 16417  16499M 16516M 16525  16549M
             16585  16632M 16678  16763M 16914  16961M 16983  17065M 17087  17141M 17163  17212M 17234  17283M 17305
             17354M 17384  17463M 17493  17603M 17631  17716M 17744  17810M 17812M 17876M 17919  18021M 18023M 18085M
             18119  18297M 18324  18389M 18423  18514M 18546  18656M 18729  18899M 18899  18920M 18920N 18921  18942
             18995M 19068  19237M 19237  19258M 19259  19260M 19261  19286M 19287  19288M 19289  19296M 19297M 19298
             19299M 19300M 19300N 19301  19321  19374M 19445  19533M 19541  19559M 19571  19589  19591  19642  19657M
             19657N 19658  19756M 19799  19947M 19991  20098M 20139  20367M 20463  20576M 20693  20742M 20764  20813M
             20835  20884M 20939  21071M 21083  21089  21090  21281M 21350  21479M 21491  21497  21498  21694M 21759
             21977M 22015  22042M 22061  22116M 22147  22174M 22180  22220M 22251  22343M
     4(4)      966U  2099   6993   7136M  7213   7817M  7851   8007M  8041   8245M  8306   8408M  8432M  8432   8505M
              8505   8523   8544M  8612   8714M  8738M  8738   8811M  8811   8829   8850M  8918   9020M  9044M  9044
              9117M  9117   9135   9156M  9218   9303M  9675   9723M  9742   9790M  9809   9854M  9876   9954M  9976
             10054M 10082  10144M 10172  10226M 10252  10308M 10334  10391M 10446  10489U 10509M 10608  10673  10747
             10785M 10840  10882M 11200M 11252  11309U 11312U 11316M 12135M 12160U 12185  12315M 12344  12452M 12552
             12598M 12619  12673M 12694  12746M 12837  12874M 12893M 12893  12927M 12927  13052M 13052  13202M 13246
             13283M 13302M 13302  13336M 13336  13461M 13461  13611M 13655  13692M 13711M 13711  13745M 13745  13870M
             13870  14020M 14055  14178M 14224  14289M 14325  14367U 14379M 14461M 14529  14577M 14599  14781M 14804
             15103M 15126  15377M 15414  15487M 15505U 15562  15804M 15860  16071M 16104  16251M 16339  16549M 16585
             16632M 16678  16763M 16914  16961M 16983  17012M 17012  17045  17065M 17087  17120M 17122  17141M 17163
             17212M 17234  17283M 17305  17354M 17384  17463M 17493  17603M 17631  17716M 17744  17812M 17876M 17919
             18023M 18040M 18053  18085M 18119  18297M 18324  18389M 18423  18514M 18546  18656M 18729  18942  18995M
             19068  19321  19374M 19445  19520M 19520  19577M 19577N 19607M 19642  19693  19756M 19799  19947M 19991
             20098M 20139  20367M 20463  20576M 20693  20742M 20764  20813M 20835  20884M 20939  21281M 21350  21694M
             21759  21977M 22015  22116M 22147  22220M 22251  22343M
     5(5)      962U  2099   6993   7136M  7213   7817M  7851   8007M  8041   8245M  8306   8544M  8612   8850M  8918
              9156M  9218   9303M  9675   9723M  9742   9790M  9809   9854M  9876   9954M  9976  10054M 10082  10144M
             10172  10226M 10252  10308M 10334  10391M 10446  10498U 10510M 10608  10673  10747  10785M 10840  10883M
             11200M 11252  11315M 12135M 12153U 12185  12315M 12344  12452M 12552  12598M 12619  12673M 12694  12746M
             12837  12873M 13202M 13246  13282M 13611M 13655  13691M 14020M 14055  14178M 14224  14289M 14325  14376U
             14378M 14461M 14529  14577M 14599  14781M 14804  15103M 15126  15377M 15414  15442M 15463  15487M 15512U
1         (DBUG2163) (12:41) (15MAR04) General Purpose Register Cross Reference                                             Page  145
             15562  15804M 15860  16071M 16104  16251M 16339  16384M 16446  16549M 16585  16632M 16678  16763M 16914
             16961M 16983  17065M 17087  17141M 17163  17212M 17234  17283M 17305  17354M 17384  17463M 17493  17603M
             17631  17716M 17744  17811M 17811  17812M 17876M 17919  18022M 18022  18023M 18085M 18119  18297M 18324
             18389M 18423  18514M 18546  18656M 18729  18828M 18843  18885  18900M 18914  18942  18995M 19068  19166M
             19181  19223  19238M 19252  19321  19374M 19445  19497U 19500M 19642  19756M 19799  19947M 19991  20098M
             20139  20367M 20463  20576M 20693  20742M 20764  20813M 20835  20884M 20939  20991U 20994U 20997M 21281M
             21299U 21350  21402U 21405M 21694M 21712U 21759  21977M 22015  22116M 22147  22220M 22251  22343M
     6(6)      958U  2099   6993   7136M  7213   7817M  7851   8007M  8041   8245M  8306   8349U  8351M  8544M  8555U
              8612   8655U  8657M  8850M  8861U  8918   8961U  8963M  9156M  9167U  9218   9303M  9675   9723M  9742
              9790M  9809   9854M  9876   9954M  9976  10054M 10082  10144M 10172  10226M 10252  10308M 10334  10391M
             10446  10507U 10511M 10608  10673  10747  10785M 10840  10884M 11200M 11252  11295U 11298U 11314M 12135M
             12146U 12185  12315M 12344  12452M 12552  12598M 12619  12673M 12694  12746M 12837  12870U 12872M 12898M
             13202M 13213U 13246  13279U 13281M 13307M 13611M 13622U 13655  13688U 13690M 13716M 14020M 14031U 14055
             14178M 14224  14289M 14325  14461M 14529  14577M 14599  14781M 14804  15103M 15126  15377M 15414  15487M
             15562  15804M 15860  16071M 16104  16251M 16339  16372U 16383M 16549M 16585  16613M 16632M 16678  16763M
             16914  16961M 16983  17065M 17087  17141M 17163  17212M 17234  17283M 17305  17354M 17384  17463M 17493
             17603M 17631  17716M 17744  17808M 17814  17815  17876M 17887U 17919  17952U 17954M 18019M 18041M 18053
             18060M 18085M 18096U 18119  18152U 18176M 18177M 18182M 18205M 18297M 18324  18389M 18423  18514M 18546
             18577M 18656M 18667U 18729  18772U 18783M 18942  18995M 19006U 19068  19111U 19122M 19321  19374M 19385U
             19445  19488U 19499M 19642  19756M 19767U 19799  19832U 19834M 19912M 19913  19919M 19947M 19958U 19991
             20024U 20026M 20067M 20068  20070M 20098M 20109U 20139  20367M 20463  20576M 20693  20742M 20764  20813M
             20835  20884M 20939  20982U 20996M 21281M 21292U 21350  21393U 21404M 21694M 21705U 21759  21802U 21804M
             21977M 21988U 22015  22116M 22147  22220M 22251  22343M
     7(7)      954U  2092M  2092   2093B  2099   2105B  6993   6998M  7010U  7128U  7136M  7213   7218M  7230U  7809U
              7817M  7851   7856M  7868U  7999U  8007M  8041   8046M  8058U  8237U  8245M  8306   8312M  8324U  8536U
              8544M  8612   8618M  8630U  8842U  8850M  8918   8924M  8936U  9148U  9156M  9218   9223M  9235U  9295U
              9303M  9675   9680M  9692U  9715U  9723M  9742   9747M  9759U  9782U  9790M  9809   9814M  9826U  9846U
              9854M  9876   9881M  9893U  9946U  9954M  9976   9981M  9993U 10046U 10054M 10082  10087M 10099U 10136U
             10144M 10172  10177M 10189U 10218U 10226M 10252  10257M 10269U 10300U 10308M 10334  10339M 10351U 10383U
             10391M 10446  10452M 10464U 10608  10673  10747  10777U 10785M 10840  10846M 10858U 11192U 11200M 11252
             11258M 11270U 12127U 12135M 12185  12190M 12202U 12307U 12315M 12344  12349M 12361U 12444U 12452M 12552
             12557M 12569U 12590U 12598M 12619  12624M 12636U 12665U 12673M 12694  12699M 12711U 12738U 12746M 12837
             12842M 12854U 13194U 13202M 13246  13251M 13263U 13603U 13611M 13655  13660M 13672U 14012U 14020M 14055
             14060M 14072U 14170U 14178M 14224  14229M 14241U 14281U 14289M 14325  14330M 14342U 14453U 14461M 14529
             14534M 14546U 14569U 14577M 14599  14604M 14616U 14773U 14781M 14804  14809M 14821U 15095U 15103M 15126
             15131M 15143U 15369U 15377M 15414  15419M 15431U 15479U 15487M 15562  15568M 15580U 15796U 15804M 15860
             15866M 15878U 16063U 16071M 16104  16109M 16121U 16243U 16251M 16339  16344M 16356U 16541U 16549M 16585
             16590M 16602U 16624U 16632M 16678  16683M 16695U 16755U 16763M 16914  16919M 16931U 16953U 16961M 16983
             16988M 17000U 17057U 17065M 17087  17092M 17104U 17133U 17141M 17163  17168M 17180U 17204U 17212M 17234
             17239M 17251U 17275U 17283M 17305  17310M 17322U 17346U 17354M 17384  17389M 17401U 17455U 17463M 17493
             17498M 17510U 17595U 17603M 17631  17636M 17648U 17708U 17716M 17744  17749M 17761U 17868U 17876M 17919
             17924M 17936U 18077U 18085M 18119  18124M 18136U 18289U 18297M 18324  18329M 18341U 18381U 18389M 18423
             18428M 18440U 18506U 18514M 18546  18551M 18563U 18648U 18656M 18729  18735M 18747U 18942  18987U 18995M
             19068  19074M 19086U 19321  19366U 19374M 19445  19451M 19463U 19642  19748U 19756M 19799  19804M 19816U
             19939U 19947M 19991  19996M 20008U 20090U 20098M 20139  20144M 20156U 20359U 20367M 20463  20468M 20480U
             20568U 20576M 20693  20698M 20710U 20734U 20742M 20764  20769M 20781U 20805U 20813M 20835  20840M 20852U
             20876U 20884M 20939  20945M 20957U 21273U 21281M 21350  21356M 21368U 21686U 21694M 21759  21765M 21777U
             21969U 21977M 22015  22020M 22032U 22108U 22116M 22147  22152M 22164U 22212U 22220M 22251  22256M 22268U
             22335U 22343M
     8(8)      950U  2099   6993   6994M  7132   7136M  7213   7214M  7813   7817M  7851   7852M  8003   8007M  8041
              8042M  8241   8245M  8306   8308M  8338U  8531U  8540   8544M  8612   8614M  8644U  8837U  8846   8850M
              8918   8920M  8950U  9143U  9152   9156M  9218   9219M  9299   9303M  9675   9676M  9719   9723M  9742
              9743M  9786   9790M  9809   9810M  9850   9854M  9876   9877M  9950   9954M  9976   9977M 10050  10054M
             10082  10083M 10140  10144M 10172  10173M 10222  10226M 10252  10253M 10304  10308M 10334  10335M 10387
             10391M 10446  10448M 10478U 10608  10673  10747  10772U 10781  10785M 10840  10842M 10872U 11187U 11196
             11200M 11252  11254M 11284U 12122U 12131  12135M 12185  12186M 12311  12315M 12344  12345M 12448  12452M
             12552  12553M 12594  12598M 12619  12620M 12669  12673M 12694  12695M 12742  12746M 12837  12838M 13198
             13202M 13246  13247M 13607  13611M 13655  13656M 14016  14020M 14055  14056M 14174  14178M 14224  14225M
             14285  14289M 14325  14326M 14457  14461M 14529  14530M 14573  14577M 14599  14600M 14777  14781M 14804
1         (DBUG2163) (12:41) (15MAR04) General Purpose Register Cross Reference                                             Page  146
             14805M 15099  15103M 15126  15127M 15373  15377M 15414  15415M 15483  15487M 15562  15564M 15594U 15791U
             15800  15804M 15860  15862M 15892U 16058U 16067  16071M 16104  16105M 16247  16251M 16339  16340M 16545
             16549M 16585  16586M 16628  16632M 16678  16679M 16759  16763M 16914  16915M 16957  16961M 16983  16984M
             17061  17065M 17087  17088M 17122N 17137  17141M 17163  17164M 17208  17212M 17234  17235M 17279  17283M
             17305  17306M 17350  17354M 17384  17385M 17459  17463M 17493  17494M 17599  17603M 17631  17632M 17712
             17716M 17744  17745M 17872  17876M 17919  17920M 18081  18085M 18119  18120M 18293  18297M 18324  18325M
             18385  18389M 18423  18424M 18510  18514M 18546  18547M 18652  18656M 18729  18731M 18761U 18942  18982U
             18991  18995M 19068  19070M 19100U 19321  19361U 19370  19374M 19445  19447M 19477U 19642  19743U 19752
             19756M 19799  19800M 19932  19943  19947M 19991  19992M 20083  20094  20098M 20139  20140M 20352N 20363
             20367M 20463  20464M 20572  20576M 20693  20694M 20738  20742M 20764  20765M 20809  20813M 20835  20836M
             20880  20884M 20939  20941M 20971U 21268U 21277  21281M 21350  21352M 21382U 21681U 21690  21694M 21759
             21761M 21791U 21964U 21973  21977M 22015  22016M 22112  22116M 22147  22148M 22216  22220M 22251  22252M
             22339  22343M
     9(9)      946U  2099  10608  10673  10747  18942  19321  19642
    10(A)      942U  2099  10608  10673  10747  18942  19321  19642
    11(B)      938U  1163U  2099  10608  10673  10747  18942  19321  19642
    12(C)      934U  1172U  2099  10608  10673  10747  18942  19321  19642
    13(D)      930U  2099   6990   6993   6994   6995M  6995   7132M  7136   7138   7210   7213   7214   7215M  7215
              7813M  7817   7819   7848   7851   7852   7853M  7853   8003M  8007   8009   8038   8041   8042   8043M
              8043   8241M  8245   8247   8303   8306   8308   8309M  8309   8540M  8544   8546   8609   8612   8614
              8615M  8615   8846M  8850   8852   8915   8918   8920   8921M  8921   9152M  9156   9158   9215   9218
              9219   9220M  9220   9256   9257   9258   9260M  9260   9273M  9274   9275   9276   9299M  9303   9305
              9672   9675   9676   9677M  9677   9719M  9723   9725   9739   9742   9743   9744M  9744   9786M  9790
              9792   9806   9809   9810   9811M  9811   9850M  9854   9856   9873   9876   9877   9878M  9878   9912
              9913   9914   9916M  9916   9929M  9930   9931   9932   9950M  9954   9956   9973   9976   9977   9978M
              9978  10012  10013  10014  10016M 10016  10029M 10030  10031  10032  10050M 10054  10056  10079  10082
             10083  10084M 10084  10140M 10144  10146  10169  10172  10173  10174M 10174  10222M 10226  10228  10249
             10252  10253  10254M 10254  10304M 10308  10310  10331  10334  10335  10336M 10336  10387M 10391  10393
             10443  10446  10448  10449M 10449  10608  10673  10747  10781M 10785  10787  10837  10840  10842  10843M
             10843  11196M 11200  11202  11249  11252  11254  11255M 11255  12131M 12135  12137  12182  12185  12186
             12187M 12187  12311M 12315  12317  12341  12344  12345  12346M 12346  12405  12406  12407  12409M 12409
             12422M 12423  12424  12425  12448M 12452  12454  12549  12552  12553  12554M 12554  12594M 12598  12600
             12616  12619  12620  12621M 12621  12669M 12673  12675  12691  12694  12695  12696M 12696  12742M 12746
             12748  12834  12837  12838  12839M 12839  13198M 13202  13204  13243  13246  13247  13248M 13248  13607M
             13611  13613  13652  13655  13656  13657M 13657  14016M 14020  14022  14052  14055  14056  14057M 14057
             14174M 14178  14180  14221  14224  14225  14226M 14226  14285M 14289  14291  14322  14325  14326  14327M
             14327  14416  14417  14418  14420M 14420  14433M 14434  14435  14436  14457M 14461  14463  14526  14529
             14530  14531M 14531  14573M 14577  14579  14596  14599  14600  14601M 14601  14643  14644  14645  14647M
             14647  14659M 14660  14661  14662  14777M 14781  14783  14801  14804  14805  14806M 14806  14914  14915
             14916  14918M 14918  14930M 14931  14932  14933  15099M 15103  15105  15123  15126  15127  15128M 15128
             15239  15240  15241  15243M 15243  15255M 15256  15257  15258  15373M 15377  15379  15411  15414  15415
             15416M 15416  15483M 15487  15489  15559  15562  15564  15565M 15565  15800M 15804  15806  15857  15860
             15862  15863M 15863  16067M 16071  16073  16101  16104  16105  16106M 16106  16247M 16251  16253  16336
             16339  16340  16341M 16341  16545M 16549  16551  16582  16585  16586  16587M 16587  16628M 16632  16634
             16675  16678  16679  16680M 16680  16716  16717  16718  16720M 16720  16733M 16734  16735  16736  16759M
             16763  16765  16911  16914  16915  16916M 16916  16957M 16961  16963  16980  16983  16984  16985M 16985
             17023  17024  17025  17027M 17027  17040M 17041  17042  17043  17061M 17065  17067  17084  17087  17088
             17089M 17089  17137M 17141  17143  17160  17163  17164  17165M 17165  17208M 17212  17214  17231  17234
             17235  17236M 17236  17279M 17283  17285  17302  17305  17306  17307M 17307  17350M 17354  17356  17381
             17384  17385  17386M 17386  17459M 17463  17465  17490  17493  17494  17495M 17495  17599M 17603  17605
             17628  17631  17632  17633M 17633  17712M 17716  17718  17741  17744  17745  17746M 17746  17872M 17876
             17878  17916  17919  17920  17921M 17921  18081M 18085  18087  18116  18119  18120  18121M 18121  18293M
             18297  18299  18321  18324  18325  18326M 18326  18385M 18389  18391  18420  18423  18424  18425M 18425
             18510M 18514  18516  18543  18546  18547  18548M 18548  18652M 18656  18658  18726  18729  18731  18732M
             18732  18942  18991M 18995  18997  19065  19068  19070  19071M 19071  19321  19370M 19374  19376  19442
             19445  19447  19448M 19448  19642  19752M 19756  19758  19796  19799  19800  19801M 19801  19943M 19947
             19949  19988  19991  19992  19993M 19993  20094M 20098  20100  20136  20139  20140  20141M 20141  20363M
             20367  20369  20460  20463  20464  20465M 20465  20529  20530  20531  20533M 20533  20546M 20547  20548
             20549  20572M 20576  20578  20690  20693  20694  20695M 20695  20738M 20742  20744  20761  20764  20765
1         (DBUG2163) (12:41) (15MAR04) General Purpose Register Cross Reference                                             Page  147
             20766M 20766  20809M 20813  20815  20832  20835  20836  20837M 20837  20880M 20884  20886  20936  20939
             20941  20942M 20942  21277M 21281  21283  21347  21350  21352  21353M 21353  21690M 21694  21696  21756
             21759  21761  21762M 21762  21883  21884M 21884  21909M 21910  21973M 21977  21979  22012  22015  22016
             22017M 22017  22112M 22116  22118  22144  22147  22148  22149M 22149  22216M 22220  22222  22248  22251
             22252  22253M 22253  22339M 22343  22345
    14(E)      926U  2099   2100M  2114   2115M  2116B  2118M  2119B  2139M  2140B  2144M  2145B  2147M  2148B  2150M
              2151B  2153M  2154B  2156M  2157M  2157B  2163   6990   7138M  7141B  7210   7264M  7265M  7265B  7533M
              7534M  7534B  7537M  7538M  7538B  7742M  7743M  7743B  7746M  7747M  7747B  7819M  7822B  7848   7896M
              7897M  7897B  7913M  7914M  7914B  7953M  7954M  7954B  8009M  8012B  8038   8126M  8127M  8127B  8143M
              8144M  8144B  8185M  8186M  8186B  8247M  8250B  8303   8370M  8371M  8371B  8395M  8396M  8396B  8405M
              8406M  8406B  8516M  8517M  8517B  8546M  8549B  8609   8676M  8677M  8677B  8701M  8702M  8702B  8711M
              8712M  8712B  8822M  8823M  8823B  8852M  8855B  8915   8982M  8983M  8983B  9007M  9008M  9008B  9017M
              9018M  9018B  9128M  9129M  9129B  9158M  9161B  9215   9255M  9256   9257   9258   9263M  9264   9267M
              9268M  9268B  9271M  9274   9275   9276   9281M  9282M  9282B  9305M  9308B  9672   9725M  9728B  9739
              9792M  9795B  9806   9837M  9838M  9838B  9856M  9859B  9873   9911M  9912   9913   9914   9919M  9920
              9923M  9924M  9924B  9927M  9930   9931   9932   9937M  9938M  9938B  9956M  9959B  9973  10011M 10012
             10013  10014  10019M 10020  10023M 10024M 10024B 10027M 10030  10031  10032  10037M 10038M 10038B 10056M
             10059B 10079  10112M 10113M 10113B 10118M 10119M 10119B 10146M 10149B 10169  10202M 10203M 10203B 10208M
             10209M 10209B 10228M 10231B 10249  10282M 10283M 10283B 10310M 10313B 10331  10364M 10365M 10365B 10393M
             10396B 10443  10550M 10551M 10551B 10577M 10578M 10578B 10584M 10585M 10585B 10592M 10593M 10593B 10608
             10609M 10642M 10643M 10643B 10649M 10650M 10650B 10657M 10658M 10658B 10673  10674M 10716M 10717M 10717B
             10723M 10724M 10724B 10731M 10732M 10732B 10747  10748M 10787M 10790B 10837  10923M 10924M 10924B 10950M
             10951M 10951B 10978M 10979M 10979B 10984M 10985M 10985B 11029M 11030M 11030B 11057M 11058M 11058B 11063M
             11064M 11064B 11117M 11118M 11118B 11145M 11146M 11146B 11151M 11152M 11152B 11202M 11205B 11249  11344M
             11345M 11345B 11379M 11380M 11380B 11412M 11413M 11413B 11452M 11453M 11453B 11506M 11507M 11507B 11539M
             11540M 11540B 11555M 11556M 11556B 11563M 11564M 11564B 11595M 11596M 11596B 11621M 11622M 11622B 11654M
             11655M 11655B 11659M 11660M 11660B 11688M 11689M 11689B 11696M 11697M 11697B 11713M 11714M 11714B 11721M
             11722M 11722B 11753M 11754M 11754B 11792M 11793M 11793B 11822M 11823M 11823B 11840M 11841M 11841B 11860M
             11861M 11861B 11889M 11890M 11890B 11897M 11898M 11898B 11914M 11915M 11915B 11922M 11923M 11923B 11954M
             11955M 11955B 11993M 11994M 11994B 12023M 12024M 12024B 12041M 12042M 12042B 12061M 12062M 12062B 12090M
             12091M 12091B 12098M 12099M 12099B 12137M 12140B 12182  12215M 12216M 12216B 12277M 12278M 12278B 12317M
             12320B 12341  12404M 12405  12406  12407  12412M 12413  12416M 12417M 12417B 12420M 12423  12424  12425
             12430M 12431M 12431B 12454M 12457B 12549  12600M 12603B 12616  12675M 12678B 12691  12748M 12751B 12834
             12915M 12916M 12916B 12939M 12940M 12940B 13026M 13027M 13027B 13064M 13065M 13065B 13171M 13172M 13172B
             13204M 13207B 13243  13324M 13325M 13325B 13348M 13349M 13349B 13435M 13436M 13436B 13473M 13474M 13474B
             13580M 13581M 13581B 13613M 13616B 13652  13733M 13734M 13734B 13757M 13758M 13758B 13844M 13845M 13845B
             13882M 13883M 13883B 13989M 13990M 13990B 14022M 14025B 14052  14085M 14086M 14086B 14180M 14183B 14221
             14256M 14257M 14257B 14262M 14263M 14263B 14268M 14269M 14269B 14291M 14294B 14322  14415M 14416  14417
             14418  14423M 14424  14427M 14428M 14428B 14431M 14434  14435  14436  14441M 14442M 14442B 14463M 14466B
             14526  14579M 14582B 14596  14642M 14643  14644  14645  14653M 14654M 14654B 14657M 14660  14661  14662
             14667M 14668M 14668B 14740M 14741M 14741B 14760M 14761M 14761B 14783M 14786B 14801  14850M 14851M 14851B
             14875M 14876M 14876B 14896M 14897M 14897B 14913M 14914  14915  14916  14924M 14925M 14925B 14928M 14931
             14932  14933  14938M 14939M 14939B 15011M 15012M 15012B 15062M 15063M 15063B 15082M 15083M 15083B 15105M
             15108B 15123  15198M 15199M 15199B 15204M 15208M 15223M 15224M 15224B 15238M 15239  15240  15241  15249M
             15250M 15250B 15253M 15256  15257  15258  15263M 15264M 15264B 15336M 15337M 15337B 15356M 15357M 15357B
             15379M 15382B 15411  15447M 15448M 15448B 15451M 15452M 15452B 15455M 15456M 15456B 15459M 15460M 15460B
             15466M 15467M 15467B 15489M 15492B 15559  15620M 15621M 15621B 15657M 15658M 15658B 15681M 15682M 15682B
             15716M 15717M 15717B 15739M 15740M 15740B 15747M 15748M 15748B 15751M 15752M 15752B 15778M 15779M 15779B
             15806M 15809B 15857  15933M 15934M 15934B 15963M 15964M 15964B 16000M 16001M 16001B 16006M 16007M 16007B
             16010M 16011M 16011B 16041M 16042M 16042B 16073M 16076B 16101  16169M 16170M 16170B 16199M 16200M 16200B
             16226M 16227M 16227B 16253M 16256B 16336  16389M 16390M 16390B 16493M 16494M 16494B 16497M 16498M 16498B
             16551M 16554B 16582  16634M 16637B 16675  16715M 16716  16717  16718  16723M 16724  16727M 16728M 16728B
             16731M 16734  16735  16736  16741M 16742M 16742B 16765M 16768B 16911  16963M 16966B 16980  17022M 17023
             17024  17025  17030M 17031  17034M 17035M 17035B 17038M 17041  17042  17043  17048M 17049M 17049B 17067M
             17070B 17084  17143M 17146B 17160  17191M 17192M 17192B 17195M 17196M 17196B 17214M 17217B 17231  17262M
             17263M 17263B 17266M 17267M 17267B 17285M 17288B 17302  17333M 17334M 17334B 17337M 17338M 17338B 17356M
             17359B 17381  17414M 17415M 17415B 17421M 17422M 17422B 17425M 17426M 17426B 17431M 17432M 17432B 17465M
             17468B 17490  17543M 17544M 17544B 17549M 17550M 17550B 17555M 17556M 17556B 17605M 17608B 17628  17661M
             17662M 17662B 17665M 17666M 17666B 17718M 17721B 17741  17803M 17804M 17804B 17878M 17881B 17916  18011M
1         (DBUG2163) (12:41) (15MAR04) General Purpose Register Cross Reference                                             Page  148
             18012M 18012B 18087M 18090B 18116  18185M 18186M 18186B 18208M 18209M 18209B 18299M 18302B 18321  18356M
             18357M 18357B 18362M 18363M 18363B 18368M 18369M 18369B 18391M 18394B 18420  18453M 18454M 18454B 18477M
             18478M 18478B 18481M 18482M 18482B 18485M 18486M 18486B 18489M 18490M 18490B 18516M 18519B 18543  18613M
             18614M 18614B 18631M 18632M 18632B 18658M 18661B 18726  18792M 18793M 18793B 18815M 18816M 18816B 18866M
             18867M 18867B 18926M 18927M 18927B 18942  18943M 18953M 18954M 18954B 18997M 19000B 19065  19131M 19132M
             19132B 19154M 19155M 19155B 19204M 19205M 19205B 19265M 19266M 19266B 19305M 19306M 19306B 19321  19322M
             19332M 19333M 19333B 19376M 19379B 19442  19527M 19528M 19528B 19544M 19545M 19545B 19594M 19595M 19595B
             19618M 19619M 19619B 19626M 19627M 19627B 19642  19643M 19663M 19664M 19664B 19671M 19672M 19672B 19701M
             19702M 19702B 19719M 19720M 19720B 19758M 19761B 19796  19895M 19896M 19896B 19949M 19952B 19988  20100M
             20103B 20136  20320M 20321M 20321B 20338M 20339M 20339B 20369M 20372B 20460  20511M 20512M 20512B 20528M
             20529  20530  20531  20536M 20537  20540M 20541M 20541B 20544M 20547  20548  20549  20554M 20555M 20555B
             20578M 20581B 20690  20721M 20722M 20722B 20725M 20726M 20726B 20744M 20747B 20761  20792M 20793M 20793B
             20796M 20797M 20797B 20815M 20818B 20832  20863M 20864M 20864B 20867M 20868M 20868B 20886M 20889B 20936
             21039M 21040M 21040B 21048M 21049M 21049B 21056M 21057M 21057B 21095M 21096M 21096B 21103M 21104M 21104B
             21124M 21125M 21125B 21149M 21150M 21150B 21167M 21168M 21168B 21176M 21177M 21177B 21181M 21182M 21182B
             21186M 21187M 21187B 21211M 21212M 21212B 21236M 21237M 21237B 21242M 21243M 21243B 21250M 21251M 21251B
             21283M 21286B 21347  21447M 21448M 21448B 21456M 21457M 21457B 21464M 21465M 21465B 21503M 21504M 21504B
             21511M 21512M 21512B 21532M 21533M 21533B 21557M 21558M 21558B 21575M 21576M 21576B 21584M 21585M 21585B
             21589M 21590M 21590B 21594M 21595M 21595B 21599M 21600M 21600B 21624M 21625M 21625B 21649M 21650M 21650B
             21655M 21656M 21656B 21663M 21664M 21664B 21696M 21699B 21756  21832M 21833M 21833B 21850M 21851M 21851B
             21859M 21860M 21860B 21867M 21868M 21868B 21888M 21889M 21889B 21906M 21907M 21907B 21913M 21914M 21914B
             21938M 21939M 21939B 21946M 21947M 21947B 21979M 21982B 22012  22059M 22060M 22060B 22064M 22065M 22065B
             22094M 22095M 22095B 22118M 22121B 22144  22198M 22199M 22199B 22222M 22225B 22248  22284M 22285M 22285B
             22289M 22289  22290M 22291M 22303  22322M 22323M 22323B 22345M 22348B
    15(F)      922U  2099   7140M  7140   7821M  7821   7992M  7992   8011M  8011   8230M  8230   8249M  8249   8391M
              8399M  8421M  8421   8510M  8523M  8548M  8548   8697M  8705M  8727M  8727   8816M  8829M  8854M  8854
              9003M  9011M  9033M  9033   9122M  9135M  9160M  9160   9277M  9277   9286M  9286   9307M  9307   9727M
              9727   9794M  9794   9839M  9858M  9858   9933M  9933   9939M  9958M  9958  10033M 10033  10039M 10058M
             10058  10129M 10148M 10148  10211M 10230M 10230  10293M 10312M 10312  10376M 10395M 10395  10580M 10586M
             10608  10645M 10651M 10673  10719M 10725M 10747  10765M 10765  10789M 10789  10974M 10980M 11053M 11059M
             11141M 11147M 11180M 11180  11204M 11204  11376M 11409M 11449M 11503M 11536M 11551M 11557M 11573M 11573
             11592M 11601M 11601  11612M 11612  11651M 11685M 11690M 11709M 11715M 11731M 11731  11750M 11759M 11759
             11770M 11770  11789M 11819M 11837M 11886M 11891M 11910M 11916M 11932M 11932  11951M 11960M 11960  11971M
             11971  11990M 12020M 12038M 12087M 12092M 12115M 12115  12139M 12139  12300M 12300  12319M 12319  12426M
             12426  12435M 12435  12456M 12456  12602M 12602  12677M 12677  12750M 12750  12911M 12933M 12955M 12955
             13020M 13037M 13058M 13080M 13080  13165M 13182M 13206M 13206  13320M 13342M 13364M 13364  13429M 13446M
             13467M 13489M 13489  13574M 13591M 13615M 13615  13729M 13751M 13773M 13773  13838M 13855M 13876M 13898M
             13898  13983M 14000M 14024M 14024  14163M 14163  14182M 14182  14252M 14258M 14264M 14274M 14274  14293M
             14293  14437M 14437  14446M 14446  14465M 14465  14581M 14581  14663M 14663  14766M 14785M 14785  14858M
             14879M 14934M 14934  15088M 15107M 15107  15205M 15207  15208M 15259M 15259  15362M 15381M 15381  15472M
             15472  15491M 15491  15617M 15678M 15713M 15736M 15775M 15784M 15784  15808M 15808  15930M 15960M 15997M
             16038M 16051M 16051  16075M 16075  16166M 16196M 16223M 16236M 16236  16255M 16255  16392M 16402U 16415U
             16500M 16510U 16523U 16553M 16553  16636M 16636  16737M 16737  16746M 16746  16767M 16767  16965M 16965
             17044M 17044  17050M 17069M 17069  17126M 17126  17145M 17145  17197M 17216M 17216  17268M 17287M 17287
             17339M 17358M 17358  17467M 17467  17588M 17588  17607M 17607  17701M 17701  17720M 17720  17844M 17845M
             17846  17861M 17861  17880M 17880  18018M 18025N 18028N 18070M 18070  18089M 18089  18248M 18257M 18257
             18264M 18265  18282M 18282  18301M 18301  18352M 18358M 18364M 18374M 18374  18393M 18393  18499M 18499
             18518M 18518  18610M 18628M 18641M 18641  18660M 18660  18811M 18891M 18895  18923M 18942  18975M 18975
             18999M 18999  19150M 19229M 19233  19262M 19302M 19321  19354M 19354  19378M 19378  19523M 19529M 19614M
             19620M 19642  19659M 19665M 19716M 19736M 19736  19760M 19760  19930M 19930  19951M 19951  20081M 20081
             20102M 20102  20317M 20335M 20350M 20350  20371M 20371  20550M 20550  20559M 20559  20580M 20580  20727M
             20746M 20746  20798M 20817M 20817  20869M 20888M 20888  21036M 21044M 21050M 21091M 21097M 21146M 21164M
             21208M 21233M 21238M 21244M 21261M 21261  21285M 21285  21444M 21452M 21458M 21499M 21505M 21554M 21572M
             21621M 21646M 21651M 21657M 21674M 21674  21698M 21698  21829M 21847M 21855M 21861M 21903M 21935M 21940M
             21957M 21957  21981M 21981  22056M 22091M 22101M 22101  22120M 22120  22195M 22205M 22205  22224M 22224
             22281M 22290M 22291M 22312M 22317  22328M 22328  22347M 22347

1DBUG     (DBUG2163) (12:41) (15MAR04) Diagnostic Cross Reference and Assembler Summary                                     Page  149
-                                                                                            HLASM R4.0  2004/03/15 12.41
0     No Statements Flagged in this Assembly
 HIGH LEVEL ASSEMBLER, 5696-234, RELEASE 4.0, PTF P72483
0SYSTEM: OS/390 02.10.00            JOBNAME: WYL#DBUG    STEPNAME: ASM        PROCSTEP: (NOPROC)
0Datasets Allocated for this Assembly
  Con DDname   Dataset Name                                 Volume  Member
   P1 SYSIN    WYL.GS.WYL.WYLBUR.SOURCE                     SYSB05  DBUG
   L1 SYSLIB   WYL.GS.WYL.WYLBUR.MACLIB                     SYSB05
   L2          WYL.GG.SYS.MACLIB                            SYSB05
   L3          SYS3.IS.MACLIB                               SYSB05
   L4          SYS3.MACLIB                                  SYSB02
   L5          SYS1.MACLIB                                  MVSBR9
   L6          SYS1.MODGEN                                  MVSBR9
      SYSPRINT SYS04075.T124121.RA000.WYL#DBUG.PRINT.H01    SCR100
      SYSTERM  GG$SLP.WYL#DBUG.JOB03513.D0000101.?

    3668K allocated to Buffer Pool,         2773K would be required for this to be an In-Storage Assembly
    3225 Primary Input Records Read         6925 Library Records Read                  0 Work File Reads
       0 ASMAOPT Records Read              11796 Primary Print Records Written         0 Work File Writes
       0 Punch Records Written                 0 ADATA Records Written
0Assembly Start Time: 12.41.24 Stop Time: 12.41.33 Processor Time: 00.00.03.8884
 Return Code 000
