1                        J E S 2  J O B  L O G  --  S Y S T E M  S Y S B  --  N O D E  R L G
0
 12.35.43 JOB03416 ---- MONDAY,    15 MAR 2004 ----
 12.35.43 JOB03416  ICH70001I GG$SLP   LAST ACCESS AT 12:35:19 ON MONDAY, MARCH 15, 2004
 12.35.43 JOB03416  $HASP373 MIL#MAIN STARTED - INIT 6    - CLASS B - SYS SYSB
 12.35.43 JOB03416  ***  HCMD      STEP $$QUIET
 12.35.43 JOB03416  PUR * Q OUT MUL
 12.35.43 JOB03416  JOB 5460 MIL#MAIN WILL BE PURGED
 12.35.44 JOB03416  MIL#MAIN.$$QUIET .         RC=Zero TapeIO=0000 DiskIO=0000 CPU=  .01s Elapsed=43.11s
 12.36.01 JOB03416  MIL#MAIN.ASM     .         RC=Zero TapeIO=0000 DiskIO=0956 CPU= 5.13s Elapsed=44.17s
 12.36.04 JOB03416  MIL#MAIN.EDIT    .         RC=Zero TapeIO=0000 DiskIO=0246 CPU=  .82s Elapsed=61.97s
 12.36.04 JOB03416  MIL#MAIN Ended.  Name=Assemble MAIN                  Total CPU= 5.96s Elapsed=43.11s
 12.36.04 JOB03416
 12.36.04 JOB03416  Execution charges   Priority=Standard   Block=Day
 12.36.04 JOB03416
 12.36.04 JOB03416  CPU Usage         109.68          $68.00   Standard Processing Unit Equivalent
 12.36.04 JOB03416                                   =======
 12.36.04 JOB03416                                    $68.00   Total Job execution charge
 12.36.04 JOB03416
 12.36.04 JOB03416  See back separator page for print charges
 12.36.04 JOB03416
 12.36.04 JOB03416  $HASP395 MIL#MAIN ENDED  ASM=0, EDIT=0
1        1 //MIL#MAIN JOB SLP$GG,'Assemble MAIN',TIME=4,REGION=4M                  JOB03416
           //*
           /*JOBPARM LINES=99,COPIES=1
           /*JOBPARM FORMS=3HOL,PFORMAT=LAND,CHARS=BD13,DUPLEX=YES,FLASH=BAR4
           //*
           /*JOBPARM NOTIFY=GG.SLP,HOLD=OUTPUT                                     WYLGEN
         2 //$$QUIET EXEC PGM=HCMDX,PARM='PUR * Q OUT MUL'
           //*
         3 //ASM    EXEC PGM=ASMA90,REGION=8M,
           //            PARM=('NORENT,TERM,FLAG(NOCONT),US(MAP,WARN(10)),NODECK',
           //            'LC(32767),XREF(SHORT),ESD,DXREF,NOOBJECT')
           //*STEPLIB  DD DSN=SYS1.SASMMOD1,DISP=SHR
         4 //SYSLIB   DD  DSN=WYL.GS.MIL.MILTEN.MACLIB,DISP=SHR
         5 //         DD  DSN=WYL.GG.SYS.MACLIB,DISP=SHR
         6 //         DD  DSN=SYS3.IS.MACLIB,DISP=SHR
         7 //         DD  DSN=SYS3.MACLIB,DISP=SHR
         8 //         DD  DSN=SYS1.MACLIB,DISP=SHR
         9 //         DD  DSN=SYS1.MODGEN,DISP=SHR
        10 //SYSUT1   DD DSN=&&SYSUT1,UNIT=VIO,DISP=(,DELETE),
           //            SPACE=(4088,(500,250),,CONTIG,ROUND)
        11 //SYSTERM  DD SYSOUT=T
        12 //SYSPRINT DD DSN=&&PRINT,UNIT=SYSDA,DISP=(,PASS),
           //            SPACE=(6650,(250,250),RLSE),
           //            DCB=(BLKSIZE=6650,LRECL=133,RECFM=FB)
        13 //SYSUDUMP DD SYSOUT=A
        14 //SYSIN    DD  DSN=WYL.GS.MIL.MILTEN.SOURCE(MAIN),DISP=SHR
           //*
        15 //EDIT    EXEC PGM=ASMEDIT,TIME=2,REGION=4000K,
           //             PARM='STMT'
        16 //STEPLIB  DD  DSN=WYL.GG.SYS.LINKLIB,DISP=SHR
        17 //ASMOUT   DD  DSN=&PRINT,DISP=(OLD,DELETE)
        18 //SYSPRINT DD  SYSOUT=A
1 STMT NO. MESSAGE
 -
        10 IGD01010I STORCLAS= TEMP STORGROUP =
        10 IGD01010I STORGRP=VIO ASSIGNED.
        12 IGD01010I STORCLAS= TEMP STORGROUP =
        12 IGD01010I STORGRP=VIO ASSIGNED.
 ICH70001I GG$SLP   LAST ACCESS AT 12:35:19 ON MONDAY, MARCH 15, 2004
 IEF142I MIL#MAIN $$QUIET - STEP WAS EXECUTED - COND CODE 0000
 *********************************************************************************
 *   MIL#MAIN/$$QUIET /                    Return Code      Zero                 *
 *   Region used      260K (16K user + 244K system)                              *
 *   Extended region  9692K (4K user + 9688K system)                             *
 *                                                                               *
 *   Paging              In      Out                                             *
 *   Private <-> Aux      0        0       CPU time (TCB)   00:00:00.01          *
 *   Private <-> Exp      0        0       CPU time (SRB)   00:00:00.00          *
 *   VIO                  0        0       Elapsed time    917:52:09.85          *
 *   Common               0      ---                                             *
 *                                                                               *
 *                                                                               *
 *   CPU Usage          0.18         $0.11  Standard Processing Unit Equivalent  *
 *                                   $0.11  Total Step execution charge          *
 *                                                                               *
 *    I/O count  DDname   Type Addr           I/O count  DDname   Type Addr      *
 *                         *** No I/O for this step ***                          *
 *********************************************************************************
 IEF373I STEP/$$QUIET /START 2004075.1235
 IEF374I STEP/$$QUIET /STOP  2004075.1235 CPU    0MIN 00.01SEC SRB    0MIN 00.00SEC VIRT    16K SYS   244K EXT       4K SYS    9688K
 IEF236I ALLOC. FOR MIL#MAIN ASM
 IEF237I 04DC ALLOCATED TO SYSLIB
 IEF237I 04DC ALLOCATED TO
 IEF237I 04DC ALLOCATED TO
 IEF237I 0402 ALLOCATED TO
 IEF237I 04A0 ALLOCATED TO
 IEF237I 04A0 ALLOCATED TO
 IGD101I SMS ALLOCATED TO DDNAME (SYSUT1  )
         DSN (SYS04075.T123543.RA000.MIL#MAIN.SYSUT1.H01  )
         STORCLAS (TEMP) MGMTCLAS (        ) DATACLAS (        )
         VOL SER NOS= VIO
 IEF237I JES2 ALLOCATED TO SYSTERM
 IGD101I SMS ALLOCATED TO DDNAME (SYSPRINT)
         DSN (SYS04075.T123543.RA000.MIL#MAIN.PRINT.H01   )
         STORCLAS (TEMP) MGMTCLAS (        ) DATACLAS (        )
         VOL SER NOS= SCR101
 IEF237I JES2 ALLOCATED TO SYSUDUMP
 IEF237I 04DC ALLOCATED TO SYSIN
 IEF142I MIL#MAIN ASM - STEP WAS EXECUTED - COND CODE 0000
 IEF285I   WYL.GS.MIL.MILTEN.MACLIB                     KEPT
 IEF285I   VOL SER NOS= SYSB05.
 IEF285I   WYL.GG.SYS.MACLIB                            KEPT
 IEF285I   VOL SER NOS= SYSB05.
 IEF285I   SYS3.IS.MACLIB                               KEPT
 IEF285I   VOL SER NOS= SYSB05.
 IEF285I   SYS3.MACLIB                                  KEPT
 IEF285I   VOL SER NOS= SYSB02.
 IEF285I   SYS1.MACLIB                                  KEPT
 IEF285I   VOL SER NOS= MVSBR9.
 IEF285I   SYS1.MODGEN                                  KEPT
 IEF285I   VOL SER NOS= MVSBR9.
 IGD105I SYS04075.T123543.RA000.MIL#MAIN.SYSUT1.H01   DELETED,   DDNAME=SYSUT1
 IEF285I   GG$SLP.MIL#MAIN.JOB03416.D0000101.?          SYSOUT
 IGD106I SYS04075.T123543.RA000.MIL#MAIN.PRINT.H01    PASSED,    DDNAME=SYSPRINT
 IEF285I   GG$SLP.MIL#MAIN.JOB03416.D0000102.?          SYSOUT
 IEF285I   WYL.GS.MIL.MILTEN.SOURCE                     KEPT
 IEF285I   VOL SER NOS= SYSB05.
 *********************************************************************************
 *   MIL#MAIN/ASM     /                    Return Code      Zero                 *
 *   Region used      4372K (4096K user + 276K system)                           *
 *   Extended region  10296K (412K user + 9884K system)                          *
 *                                                                               *
 *   Paging              In      Out                                             *
 *   Private <-> Aux      0        0       CPU time (TCB)   00:00:05.04          *
 *   Private <-> Exp      0        0       CPU time (SRB)   00:00:00.09          *
 *   VIO                  0        0       Elapsed time    917:52:08.79          *
 *   Common               0      ---                                             *
 *                                                                               *
 *                                                                               *
 *   CPU Usage         94.50        $58.59  Standard Processing Unit Equivalent  *
 *                                  $58.59  Total Step execution charge          *
 *                                                                               *
 *    I/O count  DDname   Type Addr           I/O count  DDname   Type Addr      *
 *          275  SYSLIB   Disk 04DC                   0  SYSLIB   Disk 04DC      *
 *            0  SYSLIB   Disk 04DC                  22  SYSLIB   Disk 0402      *
 *          378  SYSLIB   Disk 04A0                   0  SYSLIB   Disk 04A0      *
 *        1,212  SYSUT1   VIO  ----                   0  SYSTERM       ----      *
 *          243  SYSPRINT Disk 04E3                   0  SYSUDUMP      ----      *
 *           38  SYSIN    Disk 04DC                                              *
 *********************************************************************************
 IEF373I STEP/ASM     /START 2004075.1235
 IEF374I STEP/ASM     /STOP  2004075.1236 CPU    0MIN 05.04SEC SRB    0MIN 00.09SEC VIRT  4096K SYS   276K EXT     412K SYS    9884K
 IEF236I ALLOC. FOR MIL#MAIN EDIT
 IEF237I 0402 ALLOCATED TO STEPLIB
 IGD103I SMS ALLOCATED TO DDNAME ASMOUT
 IEF237I JES2 ALLOCATED TO SYSPRINT
 IEF142I MIL#MAIN EDIT - STEP WAS EXECUTED - COND CODE 0000
 IEF285I   WYL.GG.SYS.LINKLIB                           KEPT
 IEF285I   VOL SER NOS= SYSB02.
 IGD105I SYS04075.T123543.RA000.MIL#MAIN.PRINT.H01    DELETED,   DDNAME=ASMOUT
 IEF285I   GG$SLP.MIL#MAIN.JOB03416.D0000103.?          SYSOUT
 *********************************************************************************
 *   MIL#MAIN/EDIT    /                    Return Code      Zero                 *
 *   Region used      380K (116K user + 264K system)                             *
 *   Extended region  9812K (4K user + 9808K system)                             *
 *                                                                               *
 *   Paging              In      Out                                             *
 *   Private <-> Aux      0        0       CPU time (TCB)   00:00:00.80          *
 *   Private <-> Exp      0        0       CPU time (SRB)   00:00:00.02          *
 *   VIO                  0        0       Elapsed time    917:51:50.99          *
 *   Common               0      ---                                             *
 *                                                                               *
 *                                                                               *
 *   CPU Usage         15.00         $9.30  Standard Processing Unit Equivalent  *
 *                                   $9.30  Total Step execution charge          *
 *                                                                               *
 *    I/O count  DDname   Type Addr           I/O count  DDname   Type Addr      *
 *            2  STEPLIB  Disk 0402                 244  ASMOUT   Disk 04E3      *
 *            0  SYSPRINT      ----                                              *
 *********************************************************************************
 IEF373I STEP/EDIT    /START 2004075.1236
 IEF374I STEP/EDIT    /STOP  2004075.1236 CPU    0MIN 00.80SEC SRB    0MIN 00.02SEC VIRT   116K SYS   264K EXT       4K SYS    9808K
 *********************************************************************************
 *                                                                               *
 *                      S t a n f o r d   U n i v e r s i t y                    *
 *                                                                               *
 *                              *** Job Summary ***                              *
 *                                                                               *
 *   System Id      SYSB                   Input time     12:35:09  Mar 15, 2004 *
 *                                                                               *
 *   System Release SP6.1.0                Start time     12:35:43  Mar 15, 2004 *
 *                                                                               *
 *   Job name       MIL#MAIN               Stop  time     00:00:00  Mar 15, 2004 *
 *                                                                               *
 *   Account        SLP$GG                 Elapsed time  917:52:09.85            *
 *                                                                               *
 *   User Name      Assemble MAIN          CPU time       00:00:05.85            *
 *                                                                               *
 *   Job class      B                      SRB Time       00:00:00.11            *
 *                                                                               *
 *********************************************************************************
 IEF375I  JOB/MIL#MAIN/START 2004075.1235
 IEF376I  JOB/MIL#MAIN/STOP  2004075.1236 CPU    0MIN 05.85SEC SRB    0MIN 00.11SEC
1Assembler Done MAIN No Statements Flagged
1         High Level Assembler Option Summary                   (PTF UQ57391)                                               Page    1
-                                                                                            HLASM R4.0  2004/03/15 12.35
0  No Overriding ASMAOPT Parameters
   Overriding Parameters-  NORENT,TERM,FLAG(NOCONT),US(MAP,WARN(10)),NODECK,LC(32767),XREF(SHORT),ESD,DXREF,NOOBJECT
   No Process Statements


   Options for this Assembly
0  NOADATA
     ALIGN
   NOASA
     BATCH
     CODEPAGE(047C)
   NOCOMPAT
   NODBCS
 3 NODECK
 3   DXREF
 3   ESD
   NOEXIT
 3   FLAG(0,ALIGN,NOCONT,NOIMPLEN,NOPAGE0,PUSH,RECORD,NOSUBSTR,USING0)
   NOFOLD
   NOGOFF
   NOINFO
     LANGUAGE(EN)
   NOLIBMAC
 3   LINECOUNT(32767)
     LIST(121)
     MXREF(SOURCE)
 3 NOOBJECT
     OPTABLE(UNI,NOLIST)
   NOPCONTROL
   NOPESTOP
   NOPROFILE
   NORA2
 3 NORENT
     RLD
     RXREF
     SIZE(MAX)
     SYSPARM()
 3   TERM(WIDE)
   NOTEST
     THREAD
   NOTRANSLATE
 3   USING(NOLIMIT,MAP,WARN(10))
 3   XREF(SHORT)

   No Overriding DD Names

1MAIN     External Symbol Dictionary                                                                                        Page    2
-Symbol   Type   Id     Address  Length     LD ID  Flags Alias-of                            HLASM R4.0  2004/03/15 12.35
0MILMAIN   SD 00000001 00000000 00003ED8             00
 MAIN2047  LD          00000004           00000001
 CV        LD          00000000           00000001
 EPARTBL   ER 00000002
 NPARTBL   ER 00000003
 UPPTBL    ER 00000004
 LOWTBL    ER 00000005
 ASCTBL    ER 00000006
 EBCTBL    ER 00000007
 BLTBL     ER 00000008
 NBLTBL    ER 00000009
 EBCTBL7   ER 0000000A
 MILTEN    LD          00000778           00000001
 CV        ER 0000000B
 MILVERS   ER 0000000C
 AMODE31   ER 0000000D
 COREINIT  ER 0000000E
 WTO       ER 0000000F
 WTOSEG    ER 00000010
 DEFPRT    LD          00001054           00000001
 PORTPRT   LD          000010B0           00000001
 SCINIT    ER 00000011
 SCAN      ER 00000012
 SEGWR     ER 00000013
 MUDINIT   ER 00000014
 SUBFIN    ER 00000015
 MCOMINIT  ER 00000016
 CONSDEF   ER 00000017
 NGETCORE  ER 00000018
 VIRTDEF   ER 00000019
 SEG       ER 0000001A
 SCTELL    ER 0000001B
 COMMAND   ER 0000001C
 XTB       ER 0000001D
 CONSPORT  ER 0000001E
 ELFDEF    ER 0000001F
 ELFPORT   ER 00000020
 SEGTB     ER 00000021
 SEGT      ER 00000022
 SEGB      ER 00000023
 BTR       ER 00000024
 DEQUOTE   ER 00000025
 CONSFIN   ER 00000026
 VIRTFIN   ER 00000027
 ELFFIN    ER 00000028
 GETSIN    LD          00001674           00000001
 UNGETSIN  LD          000017D0           00000001
 SESTIMER  ER 00000029
 LOCALTOD  ER 0000002A
 SERVINIT  ER 0000002B
 INCRSES   LD          00001A8E           00000001
 DECRSES   LD          00001B56           00000001
 GETTRC    LD          00001C4E           00000001
 FREETRC   LD          00001CC4           00000001
 FREECORE  ER 0000002C
1MAIN     External Symbol Dictionary                                                                                        Page    3
 TIMERQ    LD          00001D0E           00000001
 TIMERDQ   LD          00001E3A           00000001
 TIMERPRG  LD          00001F22           00000001
 PATHINIT  LD          00001FC6           00000001
 PATHOPEN  LD          00002094           00000001
 PATHREAD  LD          00002100           00000001
 PATHSEG   LD          000021EE           00000001
 PATHCLS   LD          000022F2           00000001
 PATHINFO  LD          00002356           00000001
 PATHRC    LD          0000246C           00000001
 AMODE31   LD          000025D6           00000001
 AMODE24   LD          00002604           00000001
 KEYZERO   LD          0000262E           00000001
 KEYNZERO  LD          00002634           00000001
 GETFEB    LD          00002644           00000001
 FREEFEB   LD          000026D2           00000001
 GETPIB    LD          000027A6           00000001
 FREEPIB   LD          0000281E           00000001
 GETSCB    LD          00002928           00000001
 GETPOOL   ER 0000002D
 MAKESTAG  LD          00002B36           00000001
 TIMEDATE  ER 0000002E
 BTD       ER 0000002F
 FMTTIME   ER 00000030
 KEYZERO   ER 00000031
 KEYNZERO  ER 00000032
 FREESCB   LD          00002C7E           00000001
 FREEPOOL  ER 00000033
 SINTFREE  LD          00002EE2           00000001
 SINEUPD   LD          00003132           00000001
 DISPATCH  LD          000032A8           00000001
 CONSPOST  ER 00000034
 VIRTPOST  ER 00000035
 ELFPOST   ER 00000036
 STOPCHK   LD          00003414           00000001
 SERVDO    ER 00000037
 MCOMDO    ER 00000038
 SUBDO     ER 00000039
 SHUTDOWN  ER 0000003A
 SEGCLR    ER 0000003B
 UPPTBL    LD          000034D7           00000001
 LOWTBL    LD          000035D7           00000001
 ASCTBL    LD          000036D7           00000001
 EBCTBL    LD          000037D7           00000001
 EBCTBL7   LD          000038D7           00000001
 EPARTBL   LD          00003BD7           00000001
 NPARTBL   LD          000039D7           00000001
 YPARTBL   LD          00003AD7           00000001
 BLTBL     LD          00003CD7           00000001
 NBLTBL    LD          00003DD7           00000001

1MAIN     MILTEN                                                                                                            Page    4
0Loc    Object Code    Addr1 Addr2  Stmt Lv Lineno    Source Statement                    (Asmedit 3.3)  HLASM R4.0  2004/03/15 12.35
+___    ______ ____    _____ _____  ____ __ ______    ______ _________
0                                      2              *******************************************************************
                                       3              *                                                                 *
                                       4              *     MILTEN/370 - Release VI - Class I - Stanford Proprietary    *
                                       5              *                                                                 *
                                       6              *******************************************************************
                                       7                       HIBAL
                                     995              **
                                     996              **  MILTEN/IV.  MILTEN has been re-written in this version.  Most
                                     997              **    things (sessions, subsystem blocks, etc.) are now dynamically
                                     998              **    built.  The dispatcher is based on queues.  A major change is
                                     999              **    that all command processing is now done by the subsystem.
                                    1000              **    MILTEN provides the necessary information by responding to
                                    1001              **    "control" requests from the subsystem.  The ALCB is provided
                                    1002              **    for compatability only, and is not used by MILTEN.
                                    1003              **
                                    1004              **                                                  9/79, Jim Nisbet
                                    1005              **
                                    1006              **
                                    1007              **  MILTEN/V.  This is the MVS/SP version of MILTEN.  Some things
                                    1008              **    have been cleaned up since MILTEN/IV.  The teleprocessing I/O
                                    1009              **    now uses the STARTIO interface instead of EXCP.  MILTEN's
                                    1010              **    "failsoft" recovery has been extended, dumps now use sysout
                                    1011              **    spinoff to produce the dump when the error occurs.
                                    1012              **    In addition, MVS failure recovery routines (FRRs) allow
                                    1013              **    failsoft recovery to now work for IOS exit routines
                                    1014              **    (appendages).
                                    1015              **
                                    1016              **                                                  4/82, Jim Nisbet
                                    1017              **
                                    1018              **
                                    1019              **  MILTEN/VI.  This is the MVS-XA version of MILTEN.  Not all that
                                    1020              **    much needed to be changed to allow MILTEN to run under MVS-XA.
                                    1021              **    This version will either run under MVS-370 or MVS-XA.
                                    1022              **
                                    1023              **                                                  4/83, Jim Nisbet
                                    1024              **
                                    1025              **  Removed support for all MILTEN front end modules except the ELF.
                                    1026              **
                                    1027              **                                                  10/97, Mike Durket
                                    1028              **
-                                   1030                       GBLA  &LINESZ,&BUFRSZ     (see SYSDEFN macro)
                                    1031
                                    1032                       SYSDEFN
-000000                00000 03ED8  1034              MILMAIN  CSECT
 000000                             1038              START    DS    CL4                 (for CVSTART--see CV expansion)
                                    1039
                                    1040              MAIN     IDENT 2047                10:16:23 02/16/02  (SLP)
                                    1043             +
                                    1044    01-IDENT +         ENTRY MAIN2047
                                    1045             +
 000004 16D4C1C9D5F2F0F4            1046    01-IDENT +MAIN2047 DC    AL1(22),C'MAIN2047,15MAR04,12:35'
                                    1047             +*
1MAIN     (MAIN2047) (12:35) (15MAR04) MILTEN                                                                               Page    5
0Loc    Object Code    Addr1 Addr2  Stmt Lv Lineno    Source Statement           (Hibal 5, Asmedit 3.3)  HLASM R4.0  2004/03/15 12.35
+___    ______ ____    _____ _____  ____ __ ______    ______ _________
0                                   1049              *
                                    1050                       REGS  ,,FSR,,,,,,BR,SCBR,PIBR,(FEBR,LSR),CVR,SPR,RAR
                                    1182
 00001B                00000 03ED8  1183                       PUSH  DSECTS
1MAIN     (MAIN2047) (12:35) (15MAR04) IHAPSAE  - PSA Extension (ESAME)                                                     Page    6
0Loc    Object Code    Addr1 Addr2  Stmt Lv Lineno    Source Statement           (Hibal 5, Asmedit 3.3)  HLASM R4.0  2004/03/15 12.35
+___    ______ ____    _____ _____  ____ __ ______    ______ _________
0                                  11128                       COPY  DEVTRC
                                   11129             =DTRC#    EQU   20                  Number of trace entries wanted
                                   11130             =*
                                   11131             =**  DEVICE TRACE FORMAT
                                   11132             =*
 000000                00000 00010 11133             =DTRC     RECORD BEGIN
 000000                            11141  1          =DTRCCLCK   DS    D                   STCK clock
                                   11142  1          =
 000008                            11143  1          =DTRCNAME   DS    CL8                 Type of operation
 000010                00010 00010 11144             =         END
1MAIN     (MAIN2047) (12:35) (15MAR04) IHAPSAE  - PSA Extension (ESAME)                                                     Page    7
0Loc    Object Code    Addr1 Addr2  Stmt Lv Lineno    Source Statement           (Hibal 5, Asmedit 3.3)  HLASM R4.0  2004/03/15 12.35
+___    ______ ____    _____ _____  ____ __ ______    ______ _________
0                                  11154                       COPY  TQE
 000000                00000 0001C 11155             =TQE      RECORD BEGIN
 000000                            11163  1          =           DS    CL4'TQE'
 000004                            11164  1          =TQELINK    DS    A                   next tqe ptr (or zero)
 000008                            11165  1          =TQEBACK    DS    A                   back tqe ptr
 00000C                            11166  1          =TQECLCK    DS    XL8                 expiration tod clock
 000014                            11167  1          =TQERTN     DS    A                   exit routine addr
 000018                            11168  1          =TQEPARM    DS    A                   exit routine parm
 00001C                0001C 0001C 11169             =         END
1MAIN     (MAIN2047) (12:35) (15MAR04) IHAPSAE  - PSA Extension (ESAME)                                                     Page    8
0Loc    Object Code    Addr1 Addr2  Stmt Lv Lineno    Source Statement           (Hibal 5, Asmedit 3.3)  HLASM R4.0  2004/03/15 12.35
+___    ______ ____    _____ _____  ____ __ ______    ______ _________
0000000                00000 0007C 11179              UPATH    RECORD BEGIN
                                   11187  1           UPAT       MILPATH
                                   11188+ 1          +¿þþþþþþþþþþþþþþþþþþþþþþþþþþþþþþþþþþþþþþþþþþþþþþþþþþþþþþþþþþþþþþþþþþþþþÜ
                                   11189+ 1          +Ÿ                                                                     Ÿ
                                   11190+ 1          +Ÿ    Milten Path control block.                                       Ÿ
                                   11191+ 1          +Ÿ                                                                     Ÿ
                                          1           ¾þþþþþþþþþþþþþþþþþþþþþþþþþþþþþþþþþþþþþþþþþþþþþþþþþþþþþþþþþþþþþþþþþþþþþ»
0000000                            11192  1 01-MILPA +           DS    0F
 000000 D7C1E3C8                   11193  1 01-MILPA +           DC    CL4'PATH'
 000004 00                         11194  1          +*
 UPATFLAG.UPATFOPE 80 ONES
 UPATFLAG.UPATFHDR 40 ONES
 UPATFLAG.UPATFSPR 20 ONES
 UPATFLAG.UPATFOPR 10 ONES
                                   11219  1          +*
 000005                            11220  1 01-MILPA +           DS    XL3                 Reserved
                                   11221  1          +
 000008                            11223  1 02-PATH  +UPAT       DC    0F'0'
 000008 00000000                   11225  1 03-DEFIN +UPATMGC    DC    AL4(0)
 00000C 00000000                   11227  1 03-DEFIN +UPATDJNM   DC    AL4(0)
 000010 D4E8E3C1C7404040           11229  1 03-DEFIN +UPATMY     DC    CL8'MYTAG'
 000018 FFFFFFFFFFFFFFFF           11231  1 03-DEFIN +UPATYOU    DC    XL8'FFFFFFFFFFFFFFFF'
 000020 80                         11233  1 03-DEFIN +UPATMFL    DC    AL1(1*X'80'+0*X'40'+0*X'20')
                                   11234  1          +
                                   11235  1 02-PATH  +UPATVER2    EQU  X'80'         CALLER IS USING VERSION 2
                                   11236  1 02-PATH  +UPATMCTL    EQU  X'40'         CALLER ASKS TERMINATION CONTROL
                                   11237  1 02-PATH  +UPATMNAM    EQU  X'20'         CALLER PROVIDES CALLEE NAME
                                   11238  1 02-PATH  +UPATMDP1    EQU  X'10'         DUPLICATE TAGS FOUND: MY=PCBO, YOU=PCBA
                                   11239  1 02-PATH  +UPATMDP2    EQU  X'08'         DUPLICATE TAGS FOUND: MY=PCBA, YOU=PCBO
                                   11240  1          +
 000021 000000                     11242  1 03-DEFIN +UPATOECB   DC    AL3(0)
 000024 00004000                   11244  1 03-DEFIN +UPATBUF    DC    AL4(16384)
 000028 00000040                   11246  1 03-DEFIN +UPATECBF   DC    AL4(UPATSFLG)
                                   11247  1          +
                                   11248  1 02-PATH  +UPATFCLS    EQU   X'80'         I AM POSTED BECAUSE HE CLOSED
                                   11249  1 02-PATH  +UPATFFQE    EQU   X'40'         I AM POSTED BECAUSE HIS FULL Q EMPTIED
                                   11250  1 02-PATH  +UPATFNI     EQU   X'20'         I AM POSTED BECAUSE NEW INFO IN MY Q
                                   11251  1 02-PATH  +UPATFDP     EQU   X'10'         I AM POSTED AT HIS DISCRETION
                                   11252  1 02-PATH  +UPATFOPN    EQU   X'08'         I AM POSTED BECAUSE HE OPENED
                                   11253  1 02-PATH  +UPATFCLC    EQU   X'04'         I AM POSTED BECAUSE MY CLOSE IS COMPLETE
                                   11254  1          +
 00002C D7D9D6C4                   11256  1 03-DEFIN +UPATPASS   DC    CL4'PROD'
 000030 00000000                   11258  1 03-DEFIN +UPATECB    DC    AL4(*-*)
 000034 00000000                   11260  1 03-DEFIN +UPATEXIT   DC    AL4(0)
 000038 00000000                   11262  1 03-DEFIN +UPATPINP   DC    XL4'0'
 00003C 00000000                   11264  1 03-DEFIN +UPATRESV   DC    XL4'0'
                                   11265  1          +*
                                   11266  1          +*  VERSION 2 RETURN CODES
                                   11267  1          +*
                                   11268  1 02-PATH  +UPATROK     EQU  0                       COMPLETE OK
                                   11269  1 02-PATH  +UPATRIFC    EQU  4                       INVALID FUNCTION CODE
                                   11270  1 02-PATH  +UPATRPMW    EQU  8                       INVALID PATH MAGIC WORD
                                   11271  1 02-PATH  +UPATRBAF    EQU  12                      PARTNER'S BUFFER AREA FULL
                                   11272  1 02-PATH  +UPATRNOP    EQU  16                      PARTNER NOT THERE
                                   11273  1 02-PATH  +UPATRBOM    EQU  20                      BUFFER OVER PARTNER'S MAXIMUM
1MAIN     (MAIN2047) (12:35) (15MAR04) IHAPSAE  - PSA Extension (ESAME)                                                     Page    9
0Loc    Object Code    Addr1 Addr2  Stmt Lv Lineno    Source Statement           (Hibal 5, Asmedit 3.3)  HLASM R4.0  2004/03/15 12.35
+___    ______ ____    _____ _____  ____ __ ______    ______ _________
0                                  11274  1 02-PATH  +UPATRIBS    EQU  24                      RECEIVE BUFFER TOO SMALL
                                   11275  1 02-PATH  +UPATRBPI    EQU  28                      INVALID BUFFER POINTER
                                   11276  1 02-PATH  +UPATRIAD    EQU  32                      INVALID ADDRESS
                                   11277  1 02-PATH  +UPATRES1    EQU  36                      RESERVED
                                   11278  1 02-PATH  +UPATRES2    EQU  40                      RESERVED
                                   11279  1 02-PATH  +UPATRES3    EQU  44                      RESERVED
                                   11280  1 02-PATH  +UPATRES4    EQU  48                      RESERVED
                                   11281  1          +
                                   11282  1 02-PATH  +UPATSIZE    EQU  *-UPAT        LENGTH OF PATH BLOCK
                                   11283  1          +
 000040 00                         11284  1 01-MILPA +UPATSFLG   DC    X'00'               Suzan post flag
                                   11285  1          +* Suzan needs to be able to access one word at "&L.SFLG", so
                                   11286  1          +* just to be safe we always have a word of padding in our UPATH.
 000041 000000                            1          +
 000044 FFFFFFFF                   11287  1 01-MILPA +           DC    F'-1'               Padding (must be present)
                                   11288  1          +
 000048 00000000                   11289  1 01-MILPA +UPATPASC   DC    F'0'                Partner's ASCB ptr
 00004C 0000                       11290  1 01-MILPA +UPATPLNO   DC    H'0'                Partner's line number
 00004E 0000000000000000           11291  1 01-MILPA +UPATPJOB   DC    XL8'00'             Partner's jobname
 000056 0000000000000000           11292  1 01-MILPA +UPATPACT   DC    XL8'00'             Partner's account
 00005E 0000000000000000           11293  1 01-MILPA +UPATPNAM   DC    XL20'00'            Partner's user name
                                   11294  1          +
 000072 0000                              1          +
 000074 0000000000000000           11295  1 01-MILPA +UPATRCP    DC    2A(0)               Error msg loc, len
 00007C                0007C 0007C 11296                       END
1MAIN     (MAIN2047) (12:35) (15MAR04) IHAPSAE  - PSA Extension (ESAME)                                                     Page   10
0Loc    Object Code    Addr1 Addr2  Stmt Lv Lineno    Source Statement           (Hibal 5, Asmedit 3.3)  HLASM R4.0  2004/03/15 12.35
+___    ______ ____    _____ _____  ____ __ ______    ______ _________
0                                  11306                       COPY  SUB
                                   11307=            =¿þþþþþþþþþþþþþþþþþþþþþþþþþþþþþþþþþþþþþþþþþþþþþþþþþþþþþþþþþþþþþþþþþþþþþÜ
                                   11308=            =Ÿ                                                                     Ÿ
                                   11309=            =Ÿ  Subsystem Block                                                    Ÿ
                                   11310=            =Ÿ                                                                     Ÿ
                                                      ¾þþþþþþþþþþþþþþþþþþþþþþþþþþþþþþþþþþþþþþþþþþþþþþþþþþþþþþþþþþþþþþþþþþþþþ»
0000000                00000 00084 11311             =SUB      RECORD BEGIN
 000000                            11319  1          =           DS    CL4'SUB'
 000004                            11320  1          =SUBID      DS    H                   Subsystem identifier
 000006                            11321  1          =           DS    H                   Reserved
                                   11322  1          =
 000008                            11323  1          =SUBLINK    DS    F                   Ptr to next SUB (or zero)
 00000C                            11324  1          =SUBASCBP   DS    A                   Subsystems ASCB ptr
                                   11325  1          =
 000010                            11326  1          =SUBNAME    DS    CL8                 Subsystem name
 000018                            11327  1          =SUBJOBNM   DS    CL8                 Subsystem jobname
 000020 00                         11328  1          =SUBFLAG    FLAG
 SUBFLAG.SUBFPRIV  80 ONES         11332  1          =           FLAG  SUBFPRIV            - Priv'd subsystem
                                   11337  1          =
 000021                            11338  1          =           DS    XL3                 Reserved
                                   11339  1          =
 000024                            11340  1          =SUBSCLCK   DS    XL8                 Clock at start
                                   11341  1          =
 00002C                            11342  1          =SUBMAX     DS    H                   Maximum no. of sessions
 00002E                            11343  1          =SUBCUR     DS    H                   Current no. of sessions
                                   11344  1          =
 000030                            11345  1          =SUBNIO     DS    F                   Total no. of I/O's
 000034                            11346  1          =SUBNCNTL   DS    F                   Total no. of controls
 000038                            11347  1          =SUBNSES    DS    F                   Total no. of sessions
 00003C                            11348  1          =SUBNFAIL   DS    F                   Number of unexpected failures
 000040                            11349  1          =           DS    F                   Reserved
                                   11350  1          =SUBBASIC   EQU   SUBNAME,*-SUBNAME,C'X'  ******
                                   11351  1          =
 000044                            11352  1          =SUBPDBQH   DS    A                   Pending PDB queue head
                                   11353  1          =
                                   11354  1         C=SUBPATHX   PATH  PFX=SUBP,ECB=0,FLAG=SUBSFLAG,MYTAG=*,YOURTAG=*,PASS=*,
                                          1                            VERSION=2
 000048                            11355  1 01-PATH  +SUBPATHX   DC    0F'0'
 000048                            11356  1 01-PATH  +SUBP       DC    0F'0'
 000048 00000000                   11358  1 02-DEFIN +SUBPMGC    DC    AL4(0)
 00004C 00000000                   11360  1 02-DEFIN +SUBPDJNM   DC    AL4(0)
 000050 5C40404040404040           11362  1 02-DEFIN +SUBPMY     DC    CL8'*'
 000058 5C40404040404040           11364  1 02-DEFIN +SUBPYOU    DC    CL8'*'
 000060 A0                         11366  1 02-DEFIN +SUBPMFL    DC    AL1(1*X'80'+0*X'40'+1*X'20')
                                   11367  1          +
                                   11368  1 01-PATH  +SUBPVER2    EQU  X'80'         CALLER IS USING VERSION 2
                                   11369  1 01-PATH  +SUBPMCTL    EQU  X'40'         CALLER ASKS TERMINATION CONTROL
                                   11370  1 01-PATH  +SUBPMNAM    EQU  X'20'         CALLER PROVIDES CALLEE NAME
                                   11371  1 01-PATH  +SUBPMDP1    EQU  X'10'         DUPLICATE TAGS FOUND: MY=PCBO, YOU=PCBA
                                   11372  1 01-PATH  +SUBPMDP2    EQU  X'08'         DUPLICATE TAGS FOUND: MY=PCBA, YOU=PCBO
                                   11373  1          +
 000061 000000                     11375  1 02-DEFIN +SUBPOECB   DC    AL3(0)
 000064 00000000                   11377  1 02-DEFIN +SUBPBUF    DC    AL4(0)
 000068 00000080                   11379  1 02-DEFIN +SUBPECBF   DC    AL4(SUBSFLAG)
                                   11380  1          +
1MAIN     (MAIN2047) (12:35) (15MAR04) IHAPSAE  - PSA Extension (ESAME)                                                     Page   11
0Loc    Object Code    Addr1 Addr2  Stmt Lv Lineno    Source Statement           (Hibal 5, Asmedit 3.3)  HLASM R4.0  2004/03/15 12.35
+___    ______ ____    _____ _____  ____ __ ______    ______ _________
0                                  11381  1 01-PATH  +SUBPFCLS    EQU   X'80'         I AM POSTED BECAUSE HE CLOSED
                                   11382  1 01-PATH  +SUBPFFQE    EQU   X'40'         I AM POSTED BECAUSE HIS FULL Q EMPTIED
                                   11383  1 01-PATH  +SUBPFNI     EQU   X'20'         I AM POSTED BECAUSE NEW INFO IN MY Q
                                   11384  1 01-PATH  +SUBPFDP     EQU   X'10'         I AM POSTED AT HIS DISCRETION
                                   11385  1 01-PATH  +SUBPFOPN    EQU   X'08'         I AM POSTED BECAUSE HE OPENED
                                   11386  1 01-PATH  +SUBPFCLC    EQU   X'04'         I AM POSTED BECAUSE MY CLOSE IS COMPLETE
                                   11387  1          +
 00006C 5C404040                   11389  1 02-DEFIN +SUBPPASS   DC    CL4'*'
 000070 00000000                   11391  1 02-DEFIN +SUBPECB    DC    AL4(0)
 000074 00000000                   11393  1 02-DEFIN +SUBPEXIT   DC    AL4(0)
 000078 00000000                   11395  1 02-DEFIN +SUBPPINP   DC    XL4'0'
 00007C 00000000                   11397  1 02-DEFIN +SUBPRESV   DC    XL4'0'
                                   11398  1          +*
                                   11399  1          +*  VERSION 2 RETURN CODES
                                   11400  1          +*
                                   11401  1 01-PATH  +SUBPROK     EQU  0                       COMPLETE OK
                                   11402  1 01-PATH  +SUBPRIFC    EQU  4                       INVALID FUNCTION CODE
                                   11403  1 01-PATH  +SUBPRPMW    EQU  8                       INVALID PATH MAGIC WORD
                                   11404  1 01-PATH  +SUBPRBAF    EQU  12                      PARTNER'S BUFFER AREA FULL
                                   11405  1 01-PATH  +SUBPRNOP    EQU  16                      PARTNER NOT THERE
                                   11406  1 01-PATH  +SUBPRBOM    EQU  20                      BUFFER OVER PARTNER'S MAXIMUM
                                   11407  1 01-PATH  +SUBPRIBS    EQU  24                      RECEIVE BUFFER TOO SMALL
                                   11408  1 01-PATH  +SUBPRBPI    EQU  28                      INVALID BUFFER POINTER
                                   11409  1 01-PATH  +SUBPRIAD    EQU  32                      INVALID ADDRESS
                                   11410  1 01-PATH  +SUBPRES1    EQU  36                      RESERVED
                                   11411  1 01-PATH  +SUBPRES2    EQU  40                      RESERVED
                                   11412  1 01-PATH  +SUBPRES3    EQU  44                      RESERVED
                                   11413  1 01-PATH  +SUBPRES4    EQU  48                      RESERVED
                                   11414  1          +
                                   11415  1 01-PATH  +SUBPSIZE    EQU  *-SUBP        LENGTH OF PATH BLOCK
                                   11416  1          =SUBPATH    EQU   SUBPATHX,*-SUBPATHX,C'X'
                                   11417  1          =
 000080                            11418  1          =SUBSFLAG   DS    X                   Susan post flag byte
 000081                            11419  1          =           DS    XL3                 Reserved
 000084                00084 00084 11420             =         END
1MAIN     (MAIN2047) (12:35) (15MAR04) IHAPSAE  - PSA Extension (ESAME)                                                     Page   12
0Loc    Object Code    Addr1 Addr2  Stmt Lv Lineno    Source Statement           (Hibal 5, Asmedit 3.3)  HLASM R4.0  2004/03/15 12.35
+___    ______ ____    _____ _____  ____ __ ______    ______ _________
0000000                00000 000B8 11430              FEB      RECORD BEGIN
                                   11438  1                      COPY  FEB
                                   11439= 1          =¿þþþþþþþþþþþþþþþþþþþþþþþþþþþþþþþþþþþþþþþþþþþþþþþþþþþþþþþþþþþþþþþþþþþþþÜ
                                   11440= 1          =Ÿ                                                                     Ÿ
                                   11441= 1          =Ÿ  Front End Block                                                    Ÿ
                                   11442= 1          =Ÿ                                                                     Ÿ
                                          1           ¾þþþþþþþþþþþþþþþþþþþþþþþþþþþþþþþþþþþþþþþþþþþþþþþþþþþþþþþþþþþþþþþþþþþþþ»
0000000                            11443  1          =           DS    CL4'FEB'
 000004                            11444  1          =FEBID      DS    H                   Unique identifier
 000006                            11445  1          =           DS    H                   Reserved
                                   11446  1          =
 000008                            11447  1          =FEBLINK    DS    A                   Ptr to next FEB (or zero)
                                   11448  1          =
 00000C 00                         11449  1          =FEBGFLG    FLAG
 FEBGFLG.FEBFFIX   80 ONES         11453  1          =           FLAG  FEBFFIX             - FEB is in page-fixed core
 FEBGFLG.FEBFOPEN  40 ONES         11458  1          =           FLAG  FEBFOPEN            - Front-end is open
                                   11463  1          =
 00000D                            11464  1          =FEBTYPE    DS    X                   Type
                                   11465  1          =FEBTCONS   EQU   1                   - Console
                                   11466  1          =FEBTASYN   EQU   2                   - Async (3705ep, 1270, etc.)
                                   11467  1          =FEBTPDP    EQU   3                   - Pdp
                                   11468  1          =FEBTVTAM   EQU   4                   - Vtam
                                   11469  1          =FEBTVIRT   EQU   5                   - Virtual
                                   11470  1          =FEBTNSC    EQU   6                   - Nsc (RLIN)
                                   11471  1          =FEBTELF    EQU   7                   - Elf
                                   11472  1          =FEBTALF    EQU   8                   - Alf
                                   11473  1          =FEBTECU    EQU   9                   - ECU (RLIN)
                                   11474  1          =FEBTMAX    EQU   9
                                   11475  1          =
 000010                            11476  1          =           DS    0F
 000010                            11477  1          =FEBUC      DS    H                   Update count
 000012                            11478  1          =FEBTMLIM   DS    H                   Notime limit during PEAK times
                                   11479  1          =
 000014                            11480  1          =FEBNAME    DS    CL8                 Name
 00001C                            11481  1          =FEBINFO    DS    CL12                Info (text)
                                   11482  1          =
 000028                            11483  1          =FEBMCLCK   DS    XL8                 Clock when message was set
 000030                            11484  1          =FEBMSG     DS    CL64                Message
                                   11485  1          =
 000070 00                         11486  1          =FEBPFLG    FLAG
 FEBPFLG.FEBFPS    80 ONES         11490  1          =           FLAG  FEBFPS              - "Pseudo" front-end
 FEBPFLG.FEBFLEAS  40 ONES         11495  1          =           FLAG  FEBFLEAS            - Front-end is leased
 FEBPFLG.FEBFRLIN  20 ONES         11500  1          =           FLAG  FEBFRLIN            - Front-end belongs to rlin
                                   11505  1          =
 000071 00                         11506  1          =FEBPFLG2   FLAG
 FEBPFLG2.FEBFCLS  80 ONES         11510  1          =           FLAG  FEBFCLS             - Closed
 FEBPFLG2.FEBFDET  40 ONES         11515  1          =           FLAG  FEBFDET             - Detached
 FEBPFLG2.FEBFDOWN 20 ONES         11520  1          =           FLAG  FEBFDOWN            - Status: down
                                   11525  1          =
 000072                            11526  1          =FEBQMAX    DS    H                   Max I/O queue size (for stats)
                                   11527  1          =
 000074                            11528  1          =FEBPCUR    DS    H                   Current no. of ports
 000076                            11529  1          =FEBPMAX    DS    H                   Max no. of ports
                                   11530  1          =
 000078                            11531  1          =FEBSCLCK   DS    XL8                 Clock at start
1MAIN     (MAIN2047) (12:35) (15MAR04) IHAPSAE  - PSA Extension (ESAME)                                                     Page   13
0Loc    Object Code    Addr1 Addr2  Stmt Lv Lineno    Source Statement           (Hibal 5, Asmedit 3.3)  HLASM R4.0  2004/03/15 12.35
+___    ______ ____    _____ _____  ____ __ ______    ______ _________
0                                  11532  1          =
 000080                            11533  1          =FEBSCUR    DS    H                   Current no. of sessions
 000082                            11534  1          =FEBSMAX    DS    H                   Max no. of sessions
 000084                            11535  1          =FEBSMCLK   DS    XL8                 Clock at max
 00008C                            11536  1          =FEBNSES    DS    F                   Total no. of sessions
                                   11537  1          =
 000090                            11538  1          =FEBNIO     DS    F                   Total no. of I/O's
 000094                            11539  1          =FEBNHWE    DS    F                   Total no. of hw errors
                                   11540  1          =FEBBASIC   EQU   FEBUC,*-FEBUC,C'X'  ******
                                   11541  1          =
 000098                            11542  1          =FEBPATP    DS    A                   PAT ptr
                                   11543  1          =
 00009C                            11544  1          =FEBTRCP    DS    4A                  Trace ptrs: len,cur,first,end
                                   11545  1          =
 0000AC                            11546  1          =           DS    2F                  Reserved
                                   11547  1          =
 0000B8                            11548  1          =           DS    0D
 0000B8                000B8 000B8 11549                       END
1MAIN     (MAIN2047) (12:35) (15MAR04) IHAPSAE  - PSA Extension (ESAME)                                                     Page   14
0Loc    Object Code    Addr1 Addr2  Stmt Lv Lineno    Source Statement           (Hibal 5, Asmedit 3.3)  HLASM R4.0  2004/03/15 12.35
+___    ______ ____    _____ _____  ____ __ ______    ______ _________
0000000                00000 000A0 11559              PIB      RECORD BEGIN
                                   11567  1                      COPY  PIB
                                   11568= 1          =¿þþþþþþþþþþþþþþþþþþþþþþþþþþþþþþþþþþþþþþþþþþþþþþþþþþþþþþþþþþþþþþþþþþþþþÜ
                                   11569= 1          =Ÿ                                                                     Ÿ
                                   11570= 1          =Ÿ  Port Information Block                                             Ÿ
                                   11571= 1          =Ÿ                                                                     Ÿ
                                          1           ¾þþþþþþþþþþþþþþþþþþþþþþþþþþþþþþþþþþþþþþþþþþþþþþþþþþþþþþþþþþþþþþþþþþþþþ»
0000000                            11572  1          =           DS    CL4'PIB'
 000004                            11573  1          =PIBNO      DS    H                   Port number
 000006                            11574  1          =           DS    H                   Reserved
 000008                            11575  1          =PIBFEBP    DS    A                   FEB ptr
 00000C                            11576  1          =PIBSCBP    DS    A                   SCB ptr
 000010                            11577  1          =PIBDFSYS   DS    CL8                 Default subsystem name (or zeros)
                                   11578  1          =
 000018 00                         11579  1          =PIBGFLG    FLAG
 PIBGFLG.PIBFFIX   80 ONES         11583  1          =           FLAG  PIBFFIX             - PIB is in page-fixed core
                                   11588  1          =
 000019                            11589  1          =PIBTID     DS    CL8                 Pre-assigned terminal id
                                   11590  1          =
 000021                            11591  1          =PIBDFACT   DS    XL5                 Default logon account (uuugg)
                                   11592  1          =
 000026                            11593  1          =PIBTETYP   DS    X                   SMF port type
 000027                            11594  1          =           DS    XL3                 Reserved
                                   11595  1          =
 00002C                            11596  1          =           DS    F                   Reserved
                                   11597  1          =
 000030                            11598  1          =           DS    0F
 000030                            11599  1          =PIBUC      DS    H                   Update count
 000032                            11600  1          =           DS    XL2                 Reserved
                                   11601  1          =
 000034                            11602  1          =PIBNAME    DS    CL8                 Port name
 00003C                            11603  1          =PIBINFO    DS    CL20                Port information (NCC address)
 000050                            11604  1          =PIBLOC     DS    CL20                Port location
                                   11605  1          =
 000064 00                         11606  1          =PIBFLAG    FLAG
 PIBFLAG.PIBFDIAL  80 ONES         11610  1          =           FLAG  PIBFDIAL            - Dial-up
 PIBFLAG.PIBFSUN   40 ONES         11615  1          =           FLAG  PIBFSUN             - SUNet
 PIBFLAG.PIBFDIR   20 ONES         11620  1          =           FLAG  PIBFDIR             - Direct
 PIBFLAG.PIBFGAND  10 ONES         11625  1          =           FLAG  PIBFGAND            - Gandalf
 PIBFLAG.PIBFDUMB  08 ONES         11630  1          =           FLAG  PIBFDUMB            - Dumb front-end (ASYNC, etc.)
                                   11635  1          =
 000065 00                         11636  1          =PIBFLAG2   FLAG
 PIBFLAG2.PIBFLEAS 80 ONES         11640  1          =           FLAG  PIBFLEAS            - Leased
 PIBFLAG2.PIBFTEL  40 ONES         11645  1          =           FLAG  PIBFTEL             - Telenet
 PIBFLAG2.PIBFTYM  20 ONES         11650  1          =           FLAG  PIBFTYM             - Tymnet
 PIBFLAG2.PIBFRLIN 10 ONES         11655  1          =           FLAG  PIBFRLIN            - Rlin
                                   11660  1          =
 000066 00                         11661  1          =PIBFLAG3   FLAG
 PIBFLAG3.PIBFPS   80 ONES         11665  1          =           FLAG  PIBFPS              - Pseudo session
 PIBFLAG3.PIBFPTID 40 ONES         11670  1          =           FLAG  PIBFPTID            - Terminal id is pre-assigned
 PIBFLAG3.PIBFOP   20 ONES         11675  1          =           FLAG  PIBFOP              - Operator
 PIBFLAG3.PIBFSEC  10 ONES         11680  1          =           FLAG  PIBFSEC             - Secure session
 PIBFLAG3.PIBFSEST 08 ONES         11685  1          =           FLAG  PIBFSESTRC          - Do session tracing
 PIBFLAG3.PIBFSESK 04 ONES         11690  1          =           FLAG  PIBFSESKEEP         - Keep session corpse around
                                   11695  1          =
1MAIN     (MAIN2047) (12:35) (15MAR04) IHAPSAE  - PSA Extension (ESAME)                                                     Page   15
0Loc    Object Code    Addr1 Addr2  Stmt Lv Lineno    Source Statement           (Hibal 5, Asmedit 3.3)  HLASM R4.0  2004/03/15 12.35
+___    ______ ____    _____ _____  ____ __ ______    ______ _________
0000067 00                         11696  1          =PIBFLAG4   FLAG
 PIBFLAG4.PIBFSTOP 80 ONES         11700  1          =           FLAG  PIBFSTOP            - Stopped
 PIBFLAG4.PIBFDET  40 ONES         11705  1          =           FLAG  PIBFDET             - Detached
 PIBFLAG4.PIBFDUM  20 ONES         11710  1          =           FLAG  PIBFDUM             - Dummy
                                   11715  1          =
 000068 00                         11716  1          =PIBFLAG5   FLAG
 PIBFLAG5.PIBFDOWN 80 ONES         11720  1          =           FLAG  PIBFDOWN            - Status: down
 PIBFLAG5.PIBFHU   40 ONES         11725  1          =           FLAG  PIBFHU              - Status: hung-up
 PIBFLAG5.PIBFERR  20 ONES         11730  1          =           FLAG  PIBFERR             - Status: serious error occurred
                                   11735  1          =
 000069                            11736  1          =           DS    X                   Reserved
                                   11737  1          =PIBSIB     EQU   PIBNAME,*-PIBNAME,C'X'
                                   11738  1          =
 00006A                            11739  1          =PIBSCUR    DS    H                   Current no. of sessions
 00006C                            11740  1          =PIBSMAX    DS    H                   Max no. of sessions
 00006E                            11741  1          =PIBSMCLK   DS    XL8                 Clock at max
 000078                            11742  1          =PIBNSES    DS    F                   Total no. of sessions
                                   11743  1          =
 00007C                            11744  1          =PIBNIO     DS    F                   Total no. of I/O's
 000080                            11745  1          =PIBNHWE    DS    F                   Total no. of hw errors
                                   11746  1          =
 000084                            11747  1          =PIBDEVD    DS    F                   Device dependent data
 000088                            11748  1          =           DS    2F                  Reserved
                                   11749  1          =PIBBASIC   EQU   PIBUC,*-PIBUC,C'X'  ******
                                   11750  1          =
 000090                            11751  1          =PIBTRCP    DS    4A                  Trace ptrs: len,cur,first,end
                                   11752  1          =
 0000A0                            11753  1          =           DS    0D
 0000A0                000A0 000A0 11754                       END
1MAIN     (MAIN2047) (12:35) (15MAR04) IHAPSAE  - PSA Extension (ESAME)                                                     Page   16
0Loc    Object Code    Addr1 Addr2  Stmt Lv Lineno    Source Statement           (Hibal 5, Asmedit 3.3)  HLASM R4.0  2004/03/15 12.35
+___    ______ ____    _____ _____  ____ __ ______    ______ _________
0                                  11764                       COPY  XLE
 000000                00000 00400 11765             =XLE      RECORD BEGIN
 000000                            11773  1          =XLEIN      DS    0XL512              input translation
 000000                            11774  1          =XLEINTR    DS    XL256               .input tr table
 000100                            11775  1          =XLEINTRT   DS    XL256               .input trt table
                                   11776  1          =
 000200                            11777  1          =XLEOUT     DS    0XL512              output translation
 000200                            11778  1          =XLEOUTR    DS    XL256               .output tr table
 000300                            11779  1          =XLEOUTRT   DS    XL256               .output trt table
 000400                00400 00400 11780             =         END
-                                  11790             =*  definition for bytes in the trt table:
                                   11791             =XLEFINV  EQU   1                   - invalid character
                                   11792             =XLEFIGN  EQU   2                   - ignore character
1MAIN     (MAIN2047) (12:35) (15MAR04) IHAPSAE  - PSA Extension (ESAME)                                                     Page   17
0Loc    Object Code    Addr1 Addr2  Stmt Lv Lineno    Source Statement           (Hibal 5, Asmedit 3.3)  HLASM R4.0  2004/03/15 12.35
+___    ______ ____    _____ _____  ____ __ ______    ______ _________
0000000                00000 001B2 11794              SCB      RECORD BEGIN
                                   11802  1                      COPY  SCB
                                   11803= 1          =¿þþþþþþþþþþþþþþþþþþþþþþþþþþþþþþþþþþþþþþþþþþþþþþþþþþþþþþþþþþþþþþþþþþþþþÜ
                                   11804= 1          =Ÿ                                                                     Ÿ
                                   11805= 1          =Ÿ  Session Control Block                                              Ÿ
                                   11806= 1          =Ÿ                                                                     Ÿ
                                          1           ¾þþþþþþþþþþþþþþþþþþþþþþþþþþþþþþþþþþþþþþþþþþþþþþþþþþþþþþþþþþþþþþþþþþþþþ»
0000000                            11807  1          =           DS    CL4'SCB'
 000004                            11808  1          =SCBLINK    DS    A                   Ptr to next SCB (or zero)
                                   11809  1          =
 000008                            11810  1          =SCBPIBP    DS    A                   PIB ptr
 00000C                            11811  1          =SCBSUBP    DS    A                   SUB ptr
 000010                            11812  1          =SCBXLEP    DS    A                   User translation table ptr
                                   11813  1          =
 000014                            11814  1          =SCBSINP    DS    A                   SIN ptr (in ECSA)
                                   11815  1          =
 000018                            11816  1          =SCBPDBP    DS    A                   Current PDB ptr
 00001C                            11817  1          =SCBSPDBP   DS    A                   Saved sync PDB ptr
 000020                            11818  1          =SCBCPDBP   DS    A                   Continuation PDB ptr
                                   11819  1          =
 000024                            11820  1          =SCBAWRQH   DS    A                   Async write queue head
 000028                            11821  1          =SCBAWRQT   DS    A                   Async write queue tail
                                   11822  1          =
 00002C                            11823  1          =SCBDSUBP   DS    A                   Default SUB ptr
                                   11824  1          =
 000030                            11825  1          =SCBSUBL    DS    20A                 Subsystem SUB list
                                   11826  1          =SCBSUBE    EQU   *
                                   11827  1          =
 000080                            11828  1          =SCBSTAG    DS    CL16                Unique session tag
 000090                            11829  1          =           DS    CL32                Reserved
                                   11830  1          =
 0000B0 00                         11831  1          =SCBTFLG    FLAG
 SCBTFLG.SCBTFSYN  80 ONES         11835  1          =           FLAG  SCBTFSYN            - Doing sync operation
 SCBTFLG.SCBTFIO   40 ONES         11840  1          =           FLAG  SCBTFIO             - Doing terminal I/O
 SCBTFLG.SCBTFAIO  20 ONES         11845  1          =           FLAG  SCBTFAIO            - Doing async terminal I/O
 SCBTFLG.SCBTFSIO  10 ONES         11850  1          =           FLAG  SCBTFSIO            - Doing system ("@@SYS") I/O
 SCBTFLG.SCBTFQIO  08 ONES         11855  1          =           FLAG  SCBTFQIO            - Doing quiet I/O
 SCBTFLG.SCBTFHIO  04 ONES         11860  1          =           FLAG  SCBTFHIO            - Halt initiated by user request
                                   11865  1          =
 0000B1 00                         11866  1          =SCBTFLG2   FLAG
 SCBTFLG2.SCBTFPNL 80 ONES         11870  1          =           FLAG  SCBTFPNL            - Pending NL
 SCBTFLG2.SCBTFPP  40 ONES         11875  1          =           FLAG  SCBTFPP             - Doing page/pause read
 SCBTFLG2.SCBTFREP 20 ONES         11880  1          =           FLAG  SCBTFREP            - Interrupted read, must re-prompt
 SCBTFLG2.SCBTFPRI 10 ONES         11885  1          =           FLAG  SCBTFPRI            - Pending read cr idles
 SCBTFLG2.SCBTFBRK 08 ONES         11890  1          =           FLAG  SCBTFBRK            - Sync operation BREAK executed
                                   11895  1          =
 0000B2 00                         11896  1          =SCBXFLG    FLAG
 SCBXFLG.SCBFWARN  80 ONES         11900  1          =           FLAG  SCBFWARN            - First timeout warning given
 SCBXFLG.SCBFTDAY  40 ONES         11905  1          =           FLAG  SCBFTDAY            - Only timeout during the day
                                   11910  1          =
 0000B3                            11911  1          =SCBCMD     DS    X                   Last command code from subsys
                                   11912  1          =
 0000B4                            11913  1          =SCBMOD     DS    0XL4                Mode flags from subsys
 0000B4                            11914  1          =SCBMODA    DS    X                   .a
 0000B5                            11915  1          =SCBMODB    DS    X                   .b
1MAIN     (MAIN2047) (12:35) (15MAR04) IHAPSAE  - PSA Extension (ESAME)                                                     Page   18
0Loc    Object Code    Addr1 Addr2  Stmt Lv Lineno    Source Statement           (Hibal 5, Asmedit 3.3)  HLASM R4.0  2004/03/15 12.35
+___    ______ ____    _____ _____  ____ __ ______    ______ _________
00000B6                            11916  1          =SCBMODC    DS    X                   .c
 0000B7                            11917  1          =SCBMODD    DS    X                   .d
                                   11918  1          =
 0000B8 00                         11919  1          =SCBTFLG3   FLAG
 SCBTFLG3.SCBTFTRA 80 ONES         11923  1          =           FLAG  SCBTFTRAN           - Transparent I/O (Moved from SIB)
 SCBTFLG3.SCBTFDIS 40 ONES         11928  1          =           FLAG  SCBTFDISP           - Display mode I/O (Moved from SIB)
                                   11933  1          =
 0000B9                            11934  1          =           DS    XL5                 Reserved
                                   11935  1          =
 0000BE                            11936  1          =SCBINCT    DS    H                   Maximum read count
                                   11937  1          =
 0000C0                            11938  1          =SCBOPOS    DS    H                   Last cursor position
 0000C2                            11939  1          =SCBOCNT    DS    H                   No. of lines since last read
                                   11940  1          =
 0000C4                            11941  1          =SCBPRPTR   DS    A                   Prompt text ptr
 0000C8                            11942  1          =SCBDRPTR   DS    A                   Default read text ptr
                                   11943  1          =
 0000CC 00                         11944  1          =SCBAFLAG   FLAG
 SCBAFLAG.SCBFBOLD 80 ONES         11948  1          =           FLAG  SCBFBOLD            - Bold
 SCBAFLAG.SCBFUND  40 ONES         11953  1          =           FLAG  SCBFUND             - Underline
 SCBAFLAG.SCBFBLNK 20 ONES         11958  1          =           FLAG  SCBFBLNK            - Blinking
 SCBAFLAG.SCBFINV  10 ONES         11963  1          =           FLAG  SCBFINV             - Inverse video
                                   11968  1          =
 0000CD 00                         11969  1          =SCBBFLAG   FLAG
 SCBBFLAG.SCBFSETF 80 ONES         11973  1          =           FLAG  SCBFSETFONT         - Alternate font has been set
                                   11978  1          =
 0000CE                            11979  1          =           DS    XL2                 Reserved
                                   11980  1          =
 0000D0                            11981  1          =SCBMXREM   DS    H                   No. of minutes remaining
 0000D2                            11982  1          =SCBTMOUT   DS    H                   Inactivity timeout (in minutes)
 0000D4                            11983  1          =           DS    H                   Reserved
                                   11984  1          =
 0000D8                            11985  1          =SCBNTRC    DS    F                   Current number of trace entries
 0000DC                            11986  1          =SCBTRCQH   DS    A                   Trace entry queue head
 0000E0                            11987  1          =SCBTRCQT   DS    A                   Trace entry queue tail
                                   11988  1          =
 0000E8                            11989  1          =SCBACLCK   DS    D                   Time of last accounting update
 0000F0                            11990  1          =SCBNIO     DS    F                   Number of terminal I/O's
                                   11991  1          =SCBCHG     EQU   SCBACLCK,*-SCBACLCK,C'X'  Accounting information
                                   11992  1          =
                                   11993  1          =SCB        SIB
 0000F4                            11995  1 01-SIB   +SCBSTART   DS    0F
 0000F4                            11996  1 01-SIB   +SCBID      DS    F                   Unique session number
 0000F8                            11997  1 01-SIB   +SCBNO      DS    H                   Session number
 0000FA                            11998  1 01-SIB   +SCBTMINC   DS    H                   No. minutes session was idle
                                   11999  1 01-SIB   +SCBIHDR    EQU   SCBSTART,*-SCBSTART,C'X'
                                   12000  1          +
 0000FC 00                         12001  1 01-SIB   +SCB1ST     DS    0F
 SCBTYPE.SCBTCONS  01 EQ
 SCBTYPE.SCBTASYN  02 EQ
 SCBTYPE.SCBTPDP   03 EQ
 SCBTYPE.SCBTVTAM  04 EQ
 SCBTYPE.SCBTVIRT  05 EQ
 SCBTYPE.SCBTNSC   06 EQ
 SCBTYPE.SCBTELF   07 EQ
 SCBTYPE.SCBTALF   08 EQ
1MAIN     (MAIN2047) (12:35) (15MAR04) IHAPSAE  - PSA Extension (ESAME)                                                     Page   19
0Loc    Object Code    Addr1 Addr2  Stmt Lv Lineno    Source Statement           (Hibal 5, Asmedit 3.3)  HLASM R4.0  2004/03/15 12.35
+___    ______ ____    _____ _____  ____ __ ______    ______ _________
0                                  12086  1          +
 0000FD                            12087  1 01-SIB   +SCBTINFO   DS    XL2                 Terminal info flags
 0000FF 00                         12088  1          +*
 SCBSTAT.SCBFDSC   80 ONES
 SCBSTAT.SCBFLGF   40 ONES
 SCBSTAT.SCBFSOF   20 ONES
 SCBSTAT.SCBFKL    10 ONES
 SCBSTAT.SCBFTO    08 ONES
 SCBSTAT.SCBFMT    04 ONES
 SCBSTAT.SCBFKEPT  02 ONES
                                   12128  1          +*
 000100                            12129  1 01-SIB   +SCBNMSG    DS    H                   No. of async msgs waiting
                                   12130  1          +
 000102                            12131  1 01-SIB   +SCBTETYP   DS    C                   SMF port type
 000103                            12132  1 01-SIB   +           DS    X                   Reserved (was line-speed)
                                   12133  1          +
 000104                            12134  1 01-SIB   +SCBSUB     DS    CL8                 Current subsystem
                                   12135  1          +
 00010C                            12136  1 01-SIB   +           DS    0F
 00010C                            12137  1 01-SIB   +SCBVPGM    DS    CL8                 ORVYL program
 000114                            12138  1 01-SIB   +SCBVCPU    DS    F                   ORVYL CPU time used
 000118                            12139  1 01-SIB   +SCBVFLAG   DS    X                   ORVYL flags
                                   12140  1 01-SIB   +SCBVFRUN   EQU   X'80'               - Program is running (not paused)
                                   12141  1 01-SIB   +SCBVFATH   EQU   X'40'               - Program is authorized
 000119                            12142  1 01-SIB   +SCBVDIO    DS    XL3                 ORVYL Disk I/O
                                   12143  1 01-SIB   +SCBVINFO   EQU   SCBVPGM,*-SCBVPGM,C'X'
                                   12144  1          +
 00011C                            12145  1 01-SIB   +SCBLCLCK   DS    XL8                 Tod clock at logon
                                   12146  1          +
                                   12147  1 01-SIB   +SCBACCT    EQU   *,5,C'C'            Account (uuugg)
 000124                            12148  1 01-SIB   +SCBUSER    DS    CL3                 .uuu
 000127                            12149  1 01-SIB   +SCBGRP     DS    CL2                 .gg
 000129                            12150  1 01-SIB   +SCBANO     DS    XL2                 .number
 00012B 00                         12151  1          +*
 SCBSFLG.SCBSFNAT  80 ONES
 SCBSFLG.SCBSFNAR  40 ONES
 SCBSFLG.SCBSFPS   20 ONES
 SCBSFLG.SCBSFOP   10 ONES
 SCBSFLG.SCBSFSEC  08 ONES
 SCBSFLG.SCBSFPRT  04 ONES
 00012C 00                         12186  1          +*
 SCBTACF.SCBFNST   80 ONES
 SCBTACF.SCBFNTM   40 ONES
 SCBTACF.SCBRSVX20 20 ONES
 SCBTACF.SCBRSVX10 10 ONES
 SCBTACF.SCBRSVX08 08 ONES
 SCBTACF.SCBRSVX04 04 ONES
 SCBTACF.SCBFNDAY  02 ONES
 SCBTACF.SCBRSVX01 01 ONES
                                   12231  1          +*
 00012D                            12232  1 01-SIB   +           DS    X                   Reserved
 00012E 00                         12233  1          +*
 SCBKIFL.SCBFIVAL  80 ONES
 SCBKIFL.SCBFAPR   40 ONES
 SCBKIFL.SCBFSPR   20 ONES
 SCBKIFL.SCBFOPR   10 ONES
1MAIN     (MAIN2047) (12:35) (15MAR04) IHAPSAE  - PSA Extension (ESAME)                                                     Page   20
0Loc    Object Code    Addr1 Addr2  Stmt Lv Lineno    Source Statement           (Hibal 5, Asmedit 3.3)  HLASM R4.0  2004/03/15 12.35
+___    ______ ____    _____ _____  ____ __ ______    ______ _________
0SCBKIFL.SCBFSBM   08 ONES
 SCBKIFL.SCBFSUB   04 ONES
 SCBKIFL.SCBFADM   02 ONES
 SCBKIFL.SCBFPC    01 ONES
 00012F 00                         12278  1          +*
 SCBKAFL.SCBFAVAL  80 ONES
 SCBKAFL.SCBFR1    40 ONES
 SCBKAFL.SCBFR2    20 ONES
 SCBKAFL.SCBFR3    10 ONES
 SCBKAFL.SCBFTOK   08 ONES
                                   12308  1          +*
 000130                            12309  1 01-SIB   +SCBASCBP   DS    A                   ASCB addr, if virtual session
                                   12310  1 01-SIB   +SCBSESS    EQU   SCBACCT,*-SCBACCT,C'X'
                                   12311  1 01-SIB   +SCBINFO    EQU   SCBSTART,*-SCBSTART,C'X'
                                   12312  1          +***
                                   12313  1          +***  Fields below here can be modified by the user program.
                                   12314  1          +***
 000134                            12315  1 01-SIB   +SCBOPST    DS    0F
 000134                            12316  1 01-SIB   +SCBUC      DS    H                   Update count
 000136                            12317  1 01-SIB   +SCBNAME    DS    CL20                User name
 00014A                            12318  1 01-SIB   +SCBTID     DS    CL8                 Terminal id
 000152 00                         12319  1 01-SIB   +SCBTCLS    DS    CL8                 Terminal class
 SCBTFLAG.SCBFMOD  80 ONES
 SCBTFLAG.SCBFSAM  40 ONES
 SCBTFLAG.SCBFALTD 20 ONES
                                   12339  1          +
 00015B                            12340  1 01-SIB   +           DS    XL1                 Reserved
 00015C 00                         12341  1          +*
 SCBQFLG.SCBFVFAST 80 ONES
 00015D 00                         12351  1          +*
 00015E 00                         12356  1          +*
 SCBUFLG.SCBFNMSG  80 ONES
 SCBUFLG.SCBFNCOM  40 ONES
 SCBUFLG.SCBFNBRK  20 ONES
 SCBUFLG.SCBFNTIM  10 ONES
 SCBUFLG.SCBFCLN   08 ONES
 SCBUFLG.SCBFDISP  04 ONES
 SCBUFLG.SCBFPERM  02 ONES
 SCBUFLG.SCBFTRAN  01 ONES
 00015F 00                         12401  1          +*
 SCBUFLG2.SCBFTRC  80 ONES
 SCBUFLG2.SCBFKEEP 40 ONES
                                   12416  1 01-SIB   +SCBG       EQU   SCBSTART,*-SCBSTART,C'X'
                                   12417  1          +***
                                   12418  1          +***  Information below this line is considered "private" and
                                   12419  1          +***    the user can only sense it for his own session.
                                   12420  1          +***
 000160                            12421  1 01-SIB   +SCBPROJ    DS    CL8                 Project-id
 000168 00                         12422  1          +*
 SCBFLG.SCBFUPL    80 ONES
 SCBFLG.SCBFBACK   40 ONES
 SCBFLG.SCBFFAST   20 ONES
 SCBFLG.SCBFRSV8   10 ONES
 SCBFLG.SCBFPSP    08 ONES
 SCBFLG.SCBFXON    04 ONES
 SCBFLG.SCBFFILT   02 ONES
1MAIN     (MAIN2047) (12:35) (15MAR04) IHAPSAE  - PSA Extension (ESAME)                                                     Page   21
0Loc    Object Code    Addr1 Addr2  Stmt Lv Lineno    Source Statement           (Hibal 5, Asmedit 3.3)  HLASM R4.0  2004/03/15 12.35
+___    ______ ____    _____ _____  ____ __ ______    ______ _________
0SCBFLG.SCBFNECH   01 ONES
 000169 00                         12467  1          +*
 SCBFLG2.SCBFSAMFO 80 ONES
 SCBFLG2.SCBFERA   40 ONES
 SCBFLG2.SCBFNTYP  20 ONES
                                   12487  1          +*
 00016A                            12488  1 01-SIB   +SCBINMX    DS    H                   Maximum input length allowed
 00016C                            12489  1 01-SIB   +SCBOUMX    DS    H                   Maximum output length allowed
 00016E                            12490  1 01-SIB   +SCBCHAR    DS    CL8                 Terminal translate table name
 000176                            12491  1 01-SIB   +SCBTABS    DS    XL16                Tabs
 000186 00                         12492  1          +*
 SCBOFLAG.SCBFPAR  80 ONES
 SCBOFLAG.SCBFEVEN 40 ONES
 SCBOFLAG.SCBFODD  20 ONES
 SCBOFLAG.SCBFMARK 10 ONES
 SCBOFLAG.SCBFQUIE 08 ONES
 000187                            12522  1 01-SIB   +           DS    X                   Reserved
 000188                            12523  1 01-SIB   +SCBWID     DS    H                   Terminal width, actual
 00018A                            12524  1 01-SIB   +SCBHEIP    DS    H                   Terminal height, before pausing
 00018C                            12525  1 01-SIB   +SCBHEI     DS    H                   Terminal height, actual
                                   12526  1          +
 00018E                            12527  1 01-SIB   +SCBTTYPE   DS    CL8                 Terminal type
 000196                            12528  1 01-SIB   +           DS    XL2                 Reserved
 000198                            12529  1 01-SIB   +SCBIPADR   DS    F                   IP address for TCP/IP sessions
 00019C                            12530  1 01-SIB   +           DS    XL2                 Reserved
                                   12531  1          +
 00019E                            12532  1 01-SIB   +SCBIDMAX   DS    H                   Max no. of idle minutes allowed
                                   12533  1          +
 0001A0                            12534  1 01-SIB   +SCBALTWID   DS   H                   Alternate width (0=none)
 0001A2                            12535  1 01-SIB   +SCBALTHEI   DS   H                   Alternate height (0=none)
                                   12536  1          +
 0001A4                            12537  1 01-SIB   +SCBCRI     DS    2H                  CR idles
 0001A8                            12538  1 01-SIB   +SCBLFI     DS    H                   LF idles
 0001AA                            12539  1 01-SIB   +SCBHTI     DS    2H                  HT idles
 0001AE                            12540  1 01-SIB   +SCBCAI     DS    H                   Cursor-address idles
 0001B0                            12541  1 01-SIB   +SCBCSI     DS    H                   Clear-screen idles
                                   12542  1 01-SIB   +SCBIDLE    EQU   SCBCRI,*-SCBCRI,C'X'
                                   12543  1          +
                                   12544  1 01-SIB   +SCBOPT     EQU   SCBOPST,*-SCBOPST,C'X'
                                   12545  1          +
                                   12546  1 01-SIB   +SCB1       EQU   SCB1ST,*-SCB1ST,C'X'
                                   12547  1          +*
 0001B2                001B2 001B2 12549                       END
                                   12558
                                   12559                       COPY  STRC
                                   12560=            =¿þþþþþþþþþþþþþþþþþþþþþþþþþþþþþþþþþþþþþþþþþþþþþþþþþþþþþþþþþþþþþþþþþþþþþÜ
                                   12561=            =Ÿ                                                                     Ÿ
                                   12562=            =Ÿ  STRC -- Session terminal I/O trace entry.                          Ÿ
                                   12563=            =Ÿ                                                                     Ÿ
                                                      ¾þþþþþþþþþþþþþþþþþþþþþþþþþþþþþþþþþþþþþþþþþþþþþþþþþþþþþþþþþþþþþþþþþþþþþ»
0                                  12564             =STRCMAX# EQU   500,,C'X'           Max number of trace entries
                                   12565             =
 000000                00000 0002C 12566             =STRC     RECORD BEGIN
 000000                            12574  1          =STRCSTRT   DS    CL4'STRC'           Self identification
 000004                            12575  1          =STRCLINK   DS    A                   Next STRC ptr (or zero)
1MAIN     (MAIN2047) (12:35) (15MAR04) IHAPSAE  - PSA Extension (ESAME)                                                     Page   22
0Loc    Object Code    Addr1 Addr2  Stmt Lv Lineno    Source Statement           (Hibal 5, Asmedit 3.3)  HLASM R4.0  2004/03/15 12.35
+___    ______ ____    _____ _____  ____ __ ______    ______ _________
0000008                            12576  1          =STRCCLCK   DS    D                   Time stamp
                                   12577  1          =
 000010 00                         12578  1          =STRCFLAG   FLAG
 STRCFLAG.STRCFASC 80 ONES         12582  1          =           FLAG  STRCFASCII          - Trace text is in ASCII
                                   12587  1          =
 000011                            12588  1          =STRCTYPE   DS    CL16                Trace type
                                   12589  1          =
 000024                            12590  1          =STRCUID    DS    F                   Unique trace ID
                                   12591  1          =
 000028                            12592  1          =STRCACTLEN    DS H                   Actual length
 00002A                            12593  1          =STRCDLEN   DS    H                   Data length
                                   12594  1          =STRCHDR    EQU   STRCSTRT,*-STRCSTRT,C'X'
                                   12595  1          =
                                   12596  1          =STRCMXDL   EQU   1000,,C'N'          Max allowed trace data length
 00002C                            12597  1          =STRCDATA   DS    0X                  Data starts here (variable len)
 00002C                0002C 0002C 12598             =         END
1MAIN     (MAIN2047) (12:35) (15MAR04) IHAPSAE  - PSA Extension (ESAME)                                                     Page   23
0Loc    Object Code    Addr1 Addr2  Stmt Lv Lineno    Source Statement           (Hibal 5, Asmedit 3.3)  HLASM R4.0  2004/03/15 12.35
+___    ______ ____    _____ _____  ____ __ ______    ______ _________
0000000                00000 000E0 12608              SIN      RECORD BEGIN
                                   12616  1                      COPY  SIN
                                   12617= 1          =           ¿þþþþþþþþþþþþþþþþþþþþþþþÜ
                                   12618= 1          =           Ÿ  Session Information  Ÿ
                                   12619= 1          =           ¾þþþþþþþþþþþþþþþþþþþþþþþ»
 000000                            12620  1          =           DS    CL4'SIN'            Self identification
 000004                            12621  1          =SINLEN     DS    H                   Total SIN length
                                   12622  1          =
 000006                            12623  1          =SINNO      DS    H                   Session number
 000008                            12624  1          =SINID      DS    F                   Unique session number
                                   12625  1          =
 00000C                            12626  1          =SINSUB     DS    CL8                 Current subsystem
 000014                            12627  1          =SINLCLCK   DS    XL8                 Tod clock at logon
 00001C                            12628  1          =SINTIO     DS    F                   Number of terminal I/O's
                                   12629  1          =
                                   12630  1          =SINACCT    EQU   *,5,C'C'            Account (uuugg)
 000020                            12631  1          =SINUSER    DS    CL3                 .uuu
 000023                            12632  1          =SINGRP     DS    CL2                 .gg
 000025                            12633  1          =SINANO     DS    XL2                 .number
                                   12634  1          =
 000027                            12635  1          =           DS    XL3                 Reserved
                                   12636  1          =
 00002A                            12637  1          =SINUID     DS    CL20                User id
 00003E                            12638  1          =SINNAME    DS    CL20                User name
 000052                            12639  1          =SINSTAG    DS    CL16                Unique session tag
 000062                            12640  1          =           DS    CL4
                                   12641  1          =
 000066                            12642  1          =SINFE      DS    CL8                 Front-end name
 00006E                            12643  1          =SINPORT    DS    CL8                 Port name
                                   12644  1          =
 000078                            12645  1          =           DS    8F                  Reserved
                                   12646= 1          =           ¿þþþþþþþþþþþþþþþþþþþþþþþþþþþþþþÜ
                                   12647= 1          =           Ÿ  ORVYL Session Information.  Ÿ
                                          1                      ¾þþþþþþþþþþþþþþþþþþþþþþþþþþþþþþ»
                                   12648  1          =*
 000098                            12649  1          =SINVPGM    DS    CL8                 ORVYL program
 0000A0                            12650  1          =SINVCPU    DS    F                   ORVYL CPU time used
 0000A4                            12651  1          =SINVFLAG   DS    X                   ORVYL flags
                                   12652  1          =SINVFRUN   EQU   X'80'               - Program is running (not paused)
                                   12653  1          =SINVFATH   EQU   X'40'               - Program is authorized
 0000A5                            12654  1          =SINVDIO    DS    XL3                 ORVYL disk I/O's
                                   12655  1          =SINVINFO   EQU   SINVPGM,*-SINVPGM,C'X'
                                   12656  1          =*  The following fields are maintained by MILTEN to keep track
                                   12657  1          =*  of CPU and I/Os used by a previous ORVYL.  To get the total
                                   12658  1          =*  CPU time used by a session add SINVCPU+SINVOCPU, same for I/Os.
 0000A8                            12659  1          =SINVOCPU   DS    F                   Old ORVYL CPU time
 0000AC                            12660  1          =SINVODIO   DS    F                   Old ORVYL disk I/O's
                                   12661= 1          =           ¿þþþþþþþþþþþþþþþþþþþþþþþþþþþþþþþÜ
                                   12662= 1          =           Ÿ  WYLBUR Session Information.  Ÿ
                                   12663= 1          =           ¾þþþþþþþþþþþþþþþþþþþþþþþþþþþþþþþ»
 0000B0                            12664  1          =SINWCPU    DS    F                   WYLBUR CPU time used
 0000B4                            12665  1          =SINWCMD    DS    F                   WYLBUR commands executed
 0000B8                            12666  1          =SINWDIO    DS    F                   WYLBUR disk I/O's
 0000BC                            12667  1          =           DS    3F                  Reserved
1MAIN     (MAIN2047) (12:35) (15MAR04) IHAPSAE  - PSA Extension (ESAME)                                                     Page   24
0Loc    Object Code    Addr1 Addr2  Stmt Lv Lineno    Source Statement           (Hibal 5, Asmedit 3.3)  HLASM R4.0  2004/03/15 12.35
+___    ______ ____    _____ _____  ____ __ ______    ______ _________
0                                  12668= 1          =           ¿þþþþþþþþþþþþþþþþþþþþþþþþþþþþþþþþÜ
                                   12669= 1          =           Ÿ  TESTWYL Session Information.  Ÿ
                                   12670= 1          =           ¾þþþþþþþþþþþþþþþþþþþþþþþþþþþþþþþþ»
 0000C8                            12671  1          =SINTWCPU   DS    F                   TESTWYL CPU time used
 0000CC                            12672  1          =SINTWCMD   DS    F                   TESTWYL commands executed
 0000D0                            12673  1          =SINTWDIO   DS    F                   TESTWYL disk I/O's
 0000D4                            12674  1          =           DS    3F                  Reserved
 0000E0                000E0 000E0 12675                       END
1MAIN     (MAIN2047) (12:35) (15MAR04) IHAPSAE  - PSA Extension (ESAME)                                                     Page   25
0Loc    Object Code    Addr1 Addr2  Stmt Lv Lineno    Source Statement           (Hibal 5, Asmedit 3.3)  HLASM R4.0  2004/03/15 12.35
+___    ______ ____    _____ _____  ____ __ ______    ______ _________
0                                  12685                       COPY  SUBPOOLS
                                   12686             =WTOQSUBP EQU   11                  Subpool for WTOQ elements
                                   12687             =IOHQSUBP EQU   12                  Subpool for IOHQ elements
                                   12688             =SCBSUBPL EQU   13                  Subpool for SCBs
                                   12689             =TRCSUBPL EQU   14                  Subpool for TRC entries
                                   12690             =TQESUBPL EQU   15                  Timer queue subpool
                                   12691             =FEBSUBPL EQU   16                  FEBs (non-page fixed)
                                   12692             =PIBSUBPL EQU   17                  PIBS (non-page fixed)
                                   12693             =SUBSUBPL EQU   18                  Subsystem blocks
                                   12694             =STRCSUBP EQU   19                  Session trace buffers
                                   12695             =QPDBSUBP EQU   20                  Queued PDBs
                                   12696             =SPDBSUBP EQU   21                  Saved PDBs
                                   12697             =PRMTSUBP EQU   22                  Saved prompts
                                   12698             =RTXTSUBP EQU   23                  Saved read text
                                   12699             =SQPDSUBP EQU   24                  Queued PDBs on subsystem
                                   12700             =CONSQPDB EQU   25                  Queued CONS PDBs
                                   12701             =PATSUBP  EQU   26                  Port address tables
                                   12702             =TRCHSUBP EQU   27                  Device trace table hdrs
                                   12703             =ITBLSUBP EQU   28                  Input xlate table
                                   12704             =MCOMSUBP EQU   29                  MCOM command buffers
                                   12705             =STMPSUBP EQU   30                  MCOM temp trace buffer
                                   12706             =EIBSUBP  EQU   31                  ELF EIB
                                   12707             =AMYQSUBP EQU   32                  Amelia queue ELF
                                   12708             =SOCKSUBP EQU   33                  ELF SOCK control block
                                   12709             =SMSGSUBP EQU   34                  Saved socket msg (ELF)
                                   12710             =PWRTSUBP EQU   35                  ELF Path write subpool
                                   12711             =TELISUBP EQU   36                  Telnet input data buffer
                                   12712             =EPIBSUBP EQU   37                  ELF PIB input buffer
                                   12713             =VPATSUBP EQU   38                  VIRT PAT
                                   12714             =VBUFSUBP EQU   39                  SDD VTAM buffer
                                   12715             =VRUSUBP  EQU   40                  SDD RU
                                   12716             =VDPBSUBP EQU   41                  VTAM dummy PIB
                                   12717             =VPPSUBP  EQU   42                  VTAM PIB parms
                                   12718             =VISTSUBP EQU   43                  VTAM FEB IRB stack
                                   12719             =VACBSUBP EQU   44                  VTAM ACB subpool
                                   12720             =VRPLSUBP EQU   45                  VTAM RPL subpool
                                   12721             =VSRRSUBP EQU   46                  VSRR VBUF
                                   12722             =VNIBSUBP EQU   47                  VSRR NIB
                                   12723             =VBNDSUBP EQU   48                  BIND area VSRR
                                   12724             =VDVCSUBP EQU   49                  DVCHAR subpool VSRR
                                   12725             =VRBFSUBP EQU   50                  Reply buffer
                                   12726             =V3BFSUBP EQU   51                  D3767 VBUF
                                   12727             =RSYNSUBP EQU   52                  RSYN RPL data
                                   12728             =RESPSUBP EQU   53                  RESP RPL subpool
                                   12729             =REXPSUBP EQU   54                  Expedited flow subpool
1MAIN     (MAIN2047) (12:35) (15MAR04) Control Blocks                                                                       Page   26
0Loc    Object Code    Addr1 Addr2  Stmt Lv Lineno    Source Statement           (Hibal 5, Asmedit 3.3)  HLASM R4.0  2004/03/15 12.35
+___    ______ ____    _____ _____  ____ __ ______    ______ _________
000001B                0001B 00000 12731                       ORG   START
                                   12732
                                   12733                       ENTRY CV
                                   12734                       COPY  CV
                                   12735             =         PUSH  ON
 USING  CV,R12                     12739             =         USING CV
                                   12748             =         POP   PRINT
-                                  12751=            =¿þþþþþþþþþþþþþþþþþþþþþþþþþþþþþþþþþþþþþþþþþþþþþþþþþþþþþþþþþþþþþþþþþþþþþÜ
                                   12752=            =Ÿ                                                                     Ÿ
                                   12753=            =Ÿ  Communications Vector                                              Ÿ
                                   12754=            =Ÿ                                                                     Ÿ
                                                      ¾þþþþþþþþþþþþþþþþþþþþþþþþþþþþþþþþþþþþþþþþþþþþþþþþþþþþþþþþþþþþþþþþþþþþþ»
0000000                            12755             =         DS    0D
 000000 C3E54040                   12756             =CVSTART  DC    CL4'CV'
                                   12757             =
 000004                            12758             =         DS    XL44                Ident text  (see MAIN module)
                                   12759             =
 000030 00000038                   12760             =CVECBLIS DC    A(CVECB)            Main ECB ptr
 000034 80000000                   12761             =CVCMECBP DC    X'80',AL3(0)        OS modify ECB ptr
                                   12762             =
 000038 00000000                   12763             =CVECB    DC    A(0)                Main ECB
                                   12764             =
 00003C                            12765             =CVPARMP  DS    A                   Address of OS parm
 000040                            12766             =CVOSRA   DS    A                   OS return address
 000044 00000000                   12767             =CVRETCOD DC    F'0'                Highest return code
                                   12768             =
 000048                            12769             =CVCOMP   DS    A                   Comm area address
 00004C 00000000                   12770             =CVTCBP   DC    A(0)                TCB ptr
 000050 00000000                   12771             =CVASCBP  DC    A(0)                ASCB ptr
 000054 0000                       12772             =CVASCBID DC    H'0'                Address space id
 000056 FFFF                       12773             =         DC    H'-1'               Reserved
                                   12774             =
 000058 00000000                   12775             =CVSTKP   DC    A(0)                Stack origin ptr
 00005C 00000000                   12776             =CVASTKP  DC    A(0)                Appendage stack origin ptr
                                   12777             =
                                   12778             =CVSUZLEN EQU   256*1024            Suzan buffer size
                                   12779             =
                                   12780             =CVBUFLEN EQU   10*1024,,C'N'       Maximum PDB buffer length
 000060 00000000                   12781             =CVPDBP   DC    A(0)                PDB work area     (10K)
 000064 00000000                   12782             =CVWKBUFP DC    A(0)                General work area (10K)
                                   12783             =
 000068 00000000                   12784             =CVSITP   DC    A(0)                Session info table ptr (in CSA)
                                   12785             =
                                   12786             =CVKSCB#  EQU   50,,C'N'            Number of kept sessions
 00006C 0000000000000000           12787             =CVKSCBS  DC    (CVKSCB#)F'0'       List of KEPT SCB ptrs
                                   12788             =CVKSCBLEN EQU  CVKSCB#*4,,C'X'     Length in bytes of list
                                   12789             =
 000134 00000000                   12790             =CVSCBUID DC    F'0'                Last unique SCB trace id used
                                   12791             =
 000138 FF                         12792             =CVMASK   DC    X'FF'               System interrupt mask
 000139 FF                         12793             =CVKEY    DC    X'FF'               Our protect key
 00013A FF                         12794             =         DC    X'FF'               Reserved
                                   12795             =
1MAIN     (MAIN2047) (12:35) (15MAR04) Control Blocks                                                                       Page   27
0Current Usings:  (CV,R12)
0Loc    Object Code    Addr1 Addr2  Stmt Lv Lineno    Source Statement           (Hibal 5, Asmedit 3.3)  HLASM R4.0  2004/03/15 12.35
+___    ______ ____    _____ _____  ____ __ ______    ______ _________
000013B 00                         12796             =CVMACH   FLAG  ,                   Machine flag (see KWRMACH)
 CVMACH.CVFALP     80 EQ           12800             =         FLAG  (CVFALP,X'80',EQ)   - ALPHA machine
 CVMACH.CVFRLG     01 EQ           12810             =         FLAG  (CVFRLG,X'01',EQ)   - RLG   machine
                                   12820             =
 00013C 00                         12821             =CVFLAG   FLAG
 CVFLAG.CVFTEST    80 ONES         12825             =         FLAG  CVFTEST             - Test version
 CVFLAG.CVFNTP     40 ONES         12830             =         FLAG  CVFNTP              - No teleprocessing path
 CVFLAG.CVFNSTAE   20 ONES         12835             =         FLAG  CVFNSTAE            - Don't set stae exit
 CVFLAG.CVFNORET   10 ONES         12840             =         FLAG  CVFNORET            - Don't retry on error
 CVFLAG.CVFABEND   08 ONES         12845             =         FLAG  CVFABEND            - Abending (failsoft/shutdown)
 CVFLAG.CVFSTOP    04 ONES         12850             =         FLAG  CVFSTOP             - No new I/O allowed (shutdown)
 CVFLAG.CVFSPIN    02 ONES         12855             =         FLAG  CVFSPIN             - Spinoff failsoft dumps
 CVFLAG.CVFNHALT   01 ONES         12860             =         FLAG  CVFNHALT            - Don't try to halt I/O's
                                   12865             =
 00013D 00                         12866             =CVFLAG2  FLAG
 CVFLAG2.CVFDFSYS  80 ONES         12870             =         FLAG  CVFDFSYS            - Default system is available
 CVFLAG2.CVFTIMER  40 ONES         12875             =         FLAG  CVFTIMER            - Timer is active
 CVFLAG2.CVFXA     20 ONES         12880             =         FLAG  CVFXA               - MVS/XA (not MVS/370)
 CVFLAG2.CVFDUMP   10 ONES         12885             =         FLAG  CVFDUMP             - Do SYSUDUMP as well as our dump
                                   12890             =
 00013E 00                         12891             =CVFLAG3  FLAG
                                   12895             =
 00013F                            12896             =         DS    XL2                 Reserved
                                   12897             =
 000141 4040404040404040           12898             =CVBLANKS DC    CL256' '            Blanks
                                   12899             =
 000248                            12900             =CVWORK   DS    D                   Temp work area
 000250                            12901             =CVDEC    DS    D                   CVD work area
                                   12902             =
 000258                            12903             =CVTOKEN  DS    CL16                Isolated token
 000268                            12904             =CVTOKUPP DS    CL16                Upper case version of CVTOKEN
 000278                            12905             =CVTOKLOC DS    A                   String addr
 00027C                            12906             =CVTOKLEN DS    H                   String length
                                   12907             =
 000280                            12908             =         DS    2D                  Reserved
                                   12909=            =         ¿þþþþþþþþþþþÜ
                                   12910=            =         Ÿ  Queues.  Ÿ
                                   12911=            =         ¾þþþþþþþþþþþ»
 000290 E6E8D3C2E4D94040           12912             =CVDEFSYS DC    CL8'WYLBUR'         Default system name
 000298 00000000                   12913             =CVDEFSUB DC    A(0)                SUB ptr for default system
                                   12914             =
 00029C 00000000                   12915             =CVFEBQH  DC    A(0)                First FEB ptr
 0002A0 00000000                   12916             =CVFEBQT  DC    A(0)                Last FEB ptr
 0002A4 00000000                   12917             =CVFEBID  DC    A(0)                Last FEB identifier used
                                   12918             =
 0002A8 00000000                   12919             =CVSUBQH  DC    A(0)                First SUB ptr
 0002AC 00000000                   12920             =CVSUBQT  DC    A(0)                Last SUB ptr
 0002B0 00000000                   12921             =CVSUBID  DC    A(0)                Last SUB identifier used
                                   12922             =
 0002B4 00000000                   12923             =CVSCBQH  DC    A(0)                First SCB ptr
 0002B8 00000000                   12924             =CVSCBID  DC    A(0)                Last SCB identifier used
                                   12925             =
 0002BC 00000000                   12926             =CVSATP   DC    A(0)                Session address table ptr
                                   12927             =
1MAIN     (MAIN2047) (12:35) (15MAR04) Control Blocks                                                                       Page   28
0Current Usings:  (CV,R12)
0Loc    Object Code    Addr1 Addr2  Stmt Lv Lineno    Source Statement           (Hibal 5, Asmedit 3.3)  HLASM R4.0  2004/03/15 12.35
+___    ______ ____    _____ _____  ____ __ ______    ______ _________
00002C0 00000000                   12928             =CVCMDQH  DC    A(0)                First CMD ptr
 0002C4 00000000                   12929             =CVCMDQT  DC    A(0)                Last CMD ptr
 0002C8 00000000                   12930             =CVCMDID  DC    A(0)                Last CMD identifier used
                                   12931             =
 0002CC 00000000                   12932             =CVEIBQH  DC    A(0)                First EIB ptr (ELF info block)
 0002D0 00000000                   12933             =CVEIBQT  DC    A(0)                Last EIB ptr
 0002D4 00000000                   12934             =CVEIBQC  DC    A(0)                Current EIB (last one assigned)
                                   12935             =
 0002D8 FFFFFFFFFFFFFFFF           12936             =         DC    4A(-1)              Reserved
                                   12937             =
 0002E8 00000000                   12938             =CVMONCMD DC    A(0)                Monitor CMD ptr (or zero)
 0002EC                            12939             =CVMONRGS DS    16A                 Working regs (see XMON macro)
                                   12940             =
 00032C 00000000                   12941             =CVMRTSUB DC    A(0)                SUB ptr for mort
 000330 00000000                   12942             =CVMRTTCB DC    A(0)                Mort subtask TCB addr
 000334 00000000                   12943             =CVMRTECB DC    A(0)                Mort subtask's ECB
                                   12944             =
 000338 00000000                   12945             =CVDEVTRC DC    A(0)                Device trace table ptrs
                                   12946             =
 00033C 00000000                   12947             =CVTQEQH  DC    A(0)                Ptr to first TQE
 000340 00000000                   12948             =CVTQEQT  DC    A(0)                TQE queue tail (always zero)
                                   12949             =
 000344 00000000                   12950             =CVIOCBQH DC    A(0)                First IOCB ptr
 000348 00000000                   12951             =CVIOCBQT DC    A(0)                IOCB queue tail
 00034C 00000000                   12952             =CVIOCBPQ DC    A(0)                IOCB purge queue head
                                   12953             =
 000350 00000000                   12954             =CVWTONO  DC    F'0'                Number of entries in queue
 000354 00000000                   12955             =CVWTOQH  DC    A(0)                Ptr to first WTO entry
 000358 00000000                   12956             =CVWTOQT  DC    A(0)                Ptr to last WTO entry
 00035C 00000000                   12957             =CVWTOLK  DC    A(0)                Lock word (non-zero if locked)
                                   12958             =
 000360 00000000                   12959             =CVWTOTCB DC    A(0)                WTO subtask TCB addr
 000364 00000000                   12960             =CVWTOECB DC    F'0'                WTO subtask's ECB
                                   12961             =
 000368 00000000                   12962             =CVLEAK1  DC    F'0'                MPD
 00036C 00000000                   12963             =CVLEAK2  DC    F'0'                MPD
                                   12964             =
 000370 FFFFFFFFFFFFFFFF           12965             =         DC    3F'-1'              Reserved
                                   12966             =
 00037C 00000000                   12967             =CVAPPLOG DC    A(0)                Appendage error logout buffer
                                   12968             =
 000380 00000000                   12969             =CVIOHQ   DC    A(0)                Ptr to first IOH entry
 000384 00000000                   12970             =CVIOHNO  DC    F'0'                Number of entries in queue
                                   12971             =
                                   12972             =CVHTMAX# EQU   30,,C'N'            Max number of I/O halt tasks
 000388 00000000                   12973             =CVHTASKQ DC    A(0)                I/O halt subtask queue head
 00038C 00000000                   12974             =CVHTNO   DC    F'0'                Number of I/O halt subtasks
                                   12975             =
 000390 1388                       12976             =CVMAXSES DC    H'5000'             Maximum no. of sessions
                                   12977             =
 000392 0000000000000000           12978             =CVXLTBL  DC    20XL12'00'          Translate table entries
                                   12979             =CVXLTBE  EQU   *
1MAIN     (MAIN2047) (12:35) (15MAR04) Control Blocks                                                                       Page   29
0Current Usings:  (CV,R12)
0Loc    Object Code    Addr1 Addr2  Stmt Lv Lineno    Source Statement           (Hibal 5, Asmedit 3.3)  HLASM R4.0  2004/03/15 12.35
+___    ______ ____    _____ _____  ____ __ ______    ______ _________
0                                  12980=            =         ¿þþþþþþþþþþþþþþþþþþþþþþþþþþþþþþþþþþÜ
                                   12981=            =         Ÿ  Memory management information.  Ÿ
                                   12982=            =         ¾þþþþþþþþþþþþþþþþþþþþþþþþþþþþþþþþþþ»
                                   12983             =CVRCLEN  EQU   48*1024             Size of reserved memory
 000482 0000
 000484 00000000                   12984             =CVRCLOC  DC    A(0)                Reserved memory ptr
                                   12985             =
 000488                            12986             =         DS    0D
 000488 00000000                   12987             =CVAPCNT  DC    F'0'                Available page count
 00048C 00000000                   12988             =CVAPQH   DC    A(0)                Ptr to first available page
                                   12989=            =         ¿þþþþþþþþþþþþþþþþþþþþþÜ
                                   12990=            =         Ÿ  Common addresses.  Ÿ
                                   12991=            =         ¾þþþþþþþþþþþþþþþþþþþþþ»
 000490 00000000                   12992             =CVPARTBL DC    V(EPARTBL)          Translate to even parity
 000494 00000000                   12993             =CVNPRTBL DC    V(NPARTBL)          Translate to zero parity
 000498 00000000                   12994             =CVUPPTBL DC    V(UPPTBL)           Translate to upper table
 00049C 00000000                   12995             =CVLOWTBL DC    V(LOWTBL)           Translate to lower table
 0004A0 00000000                   12996             =CVASCTBL DC    V(ASCTBL)           EBCDIC to ASCII table
 0004A4 00000000                   12997             =CVEBCTBL DC    V(EBCTBL)           ASCII to EBCDIC table
 0004A8 00000000                   12998             =CVBLTBL  DC    V(BLTBL)            Blanks TRT table
 0004AC 00000000                   12999             =CVNBLTBL DC    V(NBLTBL)           Non-blanks TRT table
 0004B0 00000000                   13000             =CVEB7TBL DC    V(EBCTBL7)          ASCII-7 to EBCDIC table
                                   13001             =
1MAIN     (MAIN2047) (12:35) (15MAR04) Control Blocks                                                                       Page   30
0Current Usings:  (CV,R12)
0Loc    Object Code    Addr1 Addr2  Stmt Lv Lineno    Source Statement           (Hibal 5, Asmedit 3.3)  HLASM R4.0  2004/03/15 12.35
+___    ______ ____    _____ _____  ____ __ ______    ______ _________
0                                  13003             =CVM      MIB
 0004B8                            13005    01-MIB   +CVMSTART DS    0D
 0004B8 D4C9D3E3C5D54040           13006    01-MIB   +CVMNAME  DC    CL8'MILTEN'         name (MILTEN/TESTMIL)
 0004C0 0000000000000000           13007    01-MIB   +CVMJOBNM DC    XL8'00'             jobname
 0004C8 0000000000000000           13008    01-MIB   +CVMVERS  DC    XL80'00'            version text
                                   13009             +
 000518 00000000                   13010    01-MIB   +CVMCLCK  DC    F'0'                clock at start
 00051C 00                         13011             +*
 CVMFLAG.CVMFSTOP  80 ONES
 00051D 00                         13021    01-MIB   +         DC    X'00'               reserved
                                   13022             +
 00051E 0000                                         +
 000520 00000000                   13023    01-MIB   +CVMNIO   DC    F'0'                no. of I/O's
 000524 00000000                   13024    01-MIB   +CVMNAPP  DC    F'0'                no. of appendage entries
                                   13025             +
 000528 00000000                   13026    01-MIB   +CVMTLSES DC    F'0'                total no. of sessions
 00052C 0000                       13027    01-MIB   +CVMCRSES DC    H'0'                current no. of logged on users
 00052E 0000                       13028    01-MIB   +CVMMXSES DC    H'0'                maximum no. of logged on users
 000530 00000000                   13029    01-MIB   +CVMCKSES DC    F'0'                clock at max users
                                   13030             +
 000534 0000                       13031    01-MIB   +CVMNHIOT DC    H'0'                No. of HALTIO subtasks
 000536 0000                       13032    01-MIB   +CVMNFULQ DC    H'0'                no. of subsys full-queues
                                   13033             +
 000538 0000                       13034    01-MIB   +CVMHQCUR DC    H'0'                Current HALTIO queue depth
 00053A 0000                       13035    01-MIB   +CVMHQMAX DC    H'0'                Maximum HALTIO queue depth
 00053C 0000                       13036    01-MIB   +CVMHQDEV DC    H'0'                Current HALTIO unit address
                                   13037             +
 00053E 0000                       13038    01-MIB   +CVMCRVIR DC    H'0'                current no. of virtual front-ends
                                   13039             +
 000540 0000                       13040    01-MIB   +CVMNFAIL DC    H'0'                no. of failsofts
 000542 0000                       13041    01-MIB   +CVMNAPPF DC    H'0'                no. of appendage failsofts
 000544 00000000                   13042    01-MIB   +CVMFCLCK DC    F'0'                clock at failsoft
 000548 0000000000000000           13043    01-MIB   +CVMFINFO DC    XL64'00'            failsoft text
                                   13044             +
 000588 00000000                   13045    01-MIB   +CVMNLOWM DC    F'0'                no. of low memory conditions
 00058C 00000000                   13046    01-MIB   +CVMNNOM  DC    F'0'                no. of no memory conditions
                                   13047             +
 000590 00000000                   13048    01-MIB   +CVMFXCNT DC    F'0'                no. of getfix requests
 000594 00000000                   13049    01-MIB   +CVMFXCUR DC    F'0'                current fixed core usage
 000598 00000000                   13050    01-MIB   +CVMFXMAX DC    F'0'                maximum fixed core usage
                                   13051             +
 00059C 00000000                   13052    01-MIB   +CVMPGCNT DC    F'0'                no. of getcore requests
 0005A0 00000000                   13053    01-MIB   +CVMPGCUR DC    F'0'                current paged core usage
 0005A4 00000000                   13054    01-MIB   +CVMPGMAX DC    F'0'                maximum paged core usage
                                   13055             +
 0005A8 00000000                   13056    01-MIB   +CVMCSCNT DC    F'0'                no. of CSA getmains
 0005AC 00000000                   13057    01-MIB   +CVMCSCUR DC    F'0'                current CSA core usage
 0005B0 00000000                   13058    01-MIB   +CVMCSMAX DC    F'0'                maximum CSA core usage
                                   13059    01-MIB   +CVM      EQU   CVMSTART,*-CVMSTART,C'X'
1MAIN     (MAIN2047) (12:35) (15MAR04) Control Blocks                                                                       Page   31
0Current Usings:  (CV,R12)
0Loc    Object Code    Addr1 Addr2  Stmt Lv Lineno    Source Statement           (Hibal 5, Asmedit 3.3)  HLASM R4.0  2004/03/15 12.35
+___    ______ ____    _____ _____  ____ __ ______    ______ _________
00005B4                            13062             =         SCANCB PFX=CVSCN
                                   13075             =
 0005D4 00/00/0000/00000_          13076             =CVWSG    SEGCB CVWSGBUF
 CVWSGCOD.CVWSGSEG 01 EQ
 CVWSGCOD.CVWSGWR  02 EQ
 CVWSGCOD.CVWSGCLR 03 EQ
 CVWSGCOD.CVWSGSPP 04 EQ
 CVWSGCOD.CVWSGOVF 05 EQ
 CVWSGCOD.CVWSGCR  06 EQ
 CVWSGCOD.CVWSGMAR 07 EQ
                                   13164             =CVWSGCC  EQU   CVWSGUSR+3,1,C'C'   New CC char
 000610                            13165             =CVWSGBUF DS    CL235
-0006FC                            13167             =         DS    0F'0'
 0006FC 0000000000000000           13168             =CVNIZSAV DC    XL40'00'            Very temporary save buffer
-000724 58F0 1004/12FF       00004 13170             =CVTRCRTN LT    R15,@R1+4           Current entry to use
 00072A 078E                       13174             =         BZR   RAR                 No trace table
 00072C 180F                       13175             =         LR    R0,R15
 00072E 5A00 1000            00000 13176             =         A     R0,@R1              Next entry
 000732 5900 100C            0000C 13177             =         C     R0,@R1+12           Time to reset?
 000736 4740 C73E            0073E 13178             =         BL    *+8                 No
 00073A 5800 1008            00008 13179             =         L     R0,@R1+8            First entry
 00073E BAF0 1004            00004 13180             =         CS    R15,R0,@R1+4        Update current trace ptr
 000742 4770 C724            00724 13181             =         BNZ   CVTRCRTN            Something changed
 000746 B205 F000      00000       13182             =         STCK  @R15                Save time in trace entry
 00074A 12FF                       13183             =         LTR   R15,R15             Set condition code
 00074C 07FE                       13184             =         BR    RAR
                                   13185=            =         ¿þþþþþþþþþþþþþþþþþþþþþþþþþþÜ
                                   13186=            =         Ÿ  Debugging information.  Ÿ
                                   13187=            =         ¾þþþþþþþþþþþþþþþþþþþþþþþþþþ»
 00074E 0000
 000750 00000000                   13188             =CVCURFEB DC    A(0)                Current FEB ptr
 000754 00000000                   13189             =CVCURPIB DC    A(0)                Current PIB ptr
 000758 00000000                   13190             =CVCURSCB DC    A(0)                Current SCB ptr
 00075C 00000000                   13191             =CVCURSUB DC    A(0)                Current SUB ptr
 000760 00000000                   13192             =CVCURCMD DC    A(0)                Current CMD ptr
 000764 00000000                   13193             =CVCURFRSCB DC  A(0)                SCB with possible bad PIB ptr
 000768 0000000000000000           13194             =         DC    4A(0)               Reserved
                                   13195             =CVCUR    EQU   CVCURFEB,*-CVCURFEB,C'X'
                                   13196             =
                                   13197             =CV       EQU   CVSTART,*-CVSTART,C'X'
1MAIN     (MAIN2047) (12:35) (15MAR04) Initialization                                                                       Page   32
0Current Usings:  (CV,R12)
0Loc    Object Code    Addr1 Addr2  Stmt Lv Lineno    Source Statement           (Hibal 5, Asmedit 3.3)  HLASM R4.0  2004/03/15 12.35
+___    ______ ____    _____ _____  ____ __ ______    ______ _________
0                                  13199                       ENTRY MILTEN              OS entry point
 000778 0D80                       13200              MILTEN   BASE
 USING  *,R8
 00077A 58C0 818E            00908 13214                       L     CVR,=V(CV)          Set global ptr
 00077E D203 C03C 1000 0003C 00000 13215                       MVC   CVPARMP,@R1         Addr of parm
 000784 50E0 C040            00040 13216                       ST    R14,CVOSRA          OS return address
                                   13217
 000788 5860 0010            00010 13218                       L     R6,CVTPTR
 USING  CVT,R6                     13219                       WITH  (CVT,R6),BEGIN
 00078C 9180 6074/47E0_00074       13233  1                      IF    CVTDCB.X'80','SET CVFXA'  MVS/XA mode
                                   13260  1
 000798 5820 6000            00000 13261  1                      L     R2,CVTTCBP
 00079C 58F0 2004            00004 13262  1                      L     R15,@R2+4           Our TCB ptr
 0007A0 50F0 C04C            0004C 13263  1                      ST    R15,CVTCBP          Save ptr
 USING  TCB,R15                    13264  1                      WITH  (TCB,R15),BEGIN
 0007A4 D200 C139 F01C 00139 0003C 13278  2                        MVC   CVKEY,TCBPKF        Save our protect key
 0007AA 5810 F00C            0002C 13279  2                        L     R1,TCBTIO           TIOT ptr
 DROP   TCB,R15                    13280  1                      END
 0007AE D207 C4C0 1000 004C0 00000 13288  1                      MVC   CVMJOBNM,@R1        Jobname
 0007B4 58F0 200C            0000C 13289  1                      L     R15,@R2+12          Our ASCB ptr
 0007B8 50F0 C050            00050 13290  1                      ST    R15,CVASCBP
 0007BC D201 C054 F024 00054 00024 13291  1                      WITH  (ASCB,R15),'MVC CVASCBID,ASCBASID'  save asid
 USING  ASCB,R15
 DROP   ASCB,R15
 DROP   CVT,R6                     13315                       END
                                   13323
 0007C2 1B00/181D/1BFF_            13324                       PRIVCHK ,                 System privs required
                                   13351                   ¿þþþþþþþþþþþþþþþþþþþþþþþþþþþþþþþþþþþþþþþþþþþþþþþþþþþþþþþþþþþþþþþþþþþÜ
                                   13352                   Ÿ  The I/O pages MILTEN gets must be fixed and never swapped.  The  Ÿ
                                   13353                   Ÿ   following "SYSEVENT TRANSWAP" causes a single swap-out/swap-in  Ÿ
                                   13354                   Ÿ   now and then all current and future pages will not be swapped.  Ÿ
                                   13355                   Ÿ      Thanks to Barry Benight for figuring this out.               Ÿ
                                   13356                   ¾þþþþþþþþþþþþþþþþþþþþþþþþþþþþþþþþþþþþþþþþþþþþþþþþþþþþþþþþþþþþþþþþþþþ»
 0007DE 1B11                       13357                       CLEAR R1                  Zero means no ECB on SYSEVENT
 0007E0 4100 000E/0A5F       0000E 13361                       SYSEVENT TRANSWAP         Ensure non-swappable fixed pages
                                   13364
 0007E6 0700/4510 8076_            13365                       MODESET MODE=SUP          ********
 0007F6 41F0 D007            00007 13372                       LA    R15,@R13+7
 0007FA 54F0 8196            00910 13373                       N     R15,=A(-8)          Doubleword alignment needed
 0007FE B202 F000      00000       13374                       STIDP @R15                Get CPU serial number
 000802 9280 C13B      0013B       13375                       SET   CVFALP              Assume primary CPU
 000806 D503 819A F002_00914 00002 13381                       IF    (@R15+2,EQ,X'02290580'),'SET CVFRLG'  their CPU
 000814 4510 80A2/0000_      0081C 13408                       MODESET MODE=PROB         ********
                                   13415
 000822 D505 81B6 C4C0_00930 004C0 13416                       IF    (CVMJOBNM,NE,'MILTEN'),'SET CVFTEST'
                                   13444
 000830 5810 819E/1211       00918 13445                       LT    R1,=V(MILVERS)
 000836 4780 80C6/D24F_      00840 13449                       IF    NZ,'MVC CVMVERS,@R1'  version text
                                   13466
 000840 4510 80CE/0000_      00848 13467                       GETMAIN R,LV=32768        Stack page
 00084E 5010 C058            00058 13474                       ST    R1,CVSTKP
 000852 18D1/4AD0 81BC_            13475                       STKINIT (R1),32768        Set up stack
                                   13483
 00085C 58E0 81A2/0DEE       0091C 13484                       VCALL AMODE31             Can switch to 31 bit mode now
1MAIN     (MAIN2047) (12:35) (15MAR04) Initialization                                                                       Page   33
0Current Usings:  (*,R8) (CV,R12)
0Loc    Object Code    Addr1 Addr2  Stmt Lv Lineno    Source Statement           (Hibal 5, Asmedit 3.3)  HLASM R4.0  2004/03/15 12.35
+___    ______ ____    _____ _____  ____ __ ______    ______ _________
0                                  13488
 000862 5800 81A6            00920 13489                       L     R0,=A(CVBUFLEN)
 000866 4510 80F0/0A0A       0086A 13490                       GETMAIN R,LV=(0)
 00086C 5010 C060            00060 13494                       ST    R1,CVPDBP           PDB work area
                                   13495
 000870 5800 81A6            00920 13496                       L     R0,=A(CVBUFLEN)
 000874 4510 80FE/0A0A       00878 13497                       GETMAIN R,LV=(0)
 00087A 5010 C064            00064 13501                       ST    R1,CVWKBUFP         General work buffer
                                   13502
 00087E 58E0 81AA/0DEE       00924 13503                       VCALL COREINIT            Init memory management routines
                                   13507
 000884 41F0 C294            00294 13508                       LA    R15,CVFEBQH-(FEBLINK-FEB)
 000888 50F0 C2A0            002A0 13509                       ST    R15,CVFEBQT         Dummy queue tail
                                   13510
 00088C 41F0 C2A0            002A0 13511                       LA    R15,CVSUBQH-(SUBLINK-SUB)
 000890 50F0 C2AC            002AC 13512                       ST    R15,CVSUBQT         Dummy queue tail
                                   13513                       ¿þþþþþþþþþþþþþþþþþþþþþþþþÜ
                                   13514                       Ÿ  Set up the WTO task.  Ÿ
                                   13515                       ¾þþþþþþþþþþþþþþþþþþþþþþþþ»
 000894 5810 81AE            00928 13516                       L     R1,=V(WTO)          Entry point (in CONS)
 000898 4500 812A/E6E3_      008A4 13517                       IDENTIFY EP=WTO,ENTRY=(1)
 0008A6 41F0 8136/47F0_      008B0 13522                       ATTACH EP=WTO,DPMOD=+2,ETXR=WTOFAIL,SHSPV=WTOQSUBP
 0008FA 5010 C360            00360 13552                       ST    R1,CVWTOTCB
                                   13553
                                   13554                       SEGDEF CVWSG              Wto seg routines
 0008FE D203 C5F8 81B2 005F8 0092C 13555                       MVC   CVWSGRTN,=V(WTOSEG)  Processing routine
                                   13556
 000904 47F0 81BE            00938 13557                       B     MILINIT
                                   13558
                                   13559                       QLTORG
                                   13583
 DROP   *,R8                       13584                       DROP  BR
1MAIN     (MAIN2047) (12:35) (15MAR04) Initialization                                                                       Page   34
0Current Usings:  (CV,R12)
0Loc    Object Code    Addr1 Addr2  Stmt Lv Lineno    Source Statement           (Hibal 5, Asmedit 3.3)  HLASM R4.0  2004/03/15 12.35
+___    ______ ____    _____ _____  ____ __ ______    ______ _________
0000938 0D80                       13592              MILINIT  BASE
 USING  *,R8
                                   13606
 00093A 58F0 C03C            0003C 13607                       L     R15,CVPARMP         OS parm ptr
 00093E 4110 F002/4800_      00002 13608                       SCINIT @R15+2,LH:@R15,CVSCNCB
 000950 4110 820E/41F0_      00B48 13633                       SCAN  PARMPRT,CVSCNCB
 00095E 4780 803A/4110_      00974 13652                       IF    NZ,'SEGWR "Parm error"'
                                   13686
 000974 D207 C4B8 8A3E 004B8 01378 13687                       MVC   CVMNAME,=CL8'TESTMIL'
 00097A 9180 C13C/4710_0013C       13688                       IF    ~CVFTEST,'MVC CVMNAME,=CL8"MILTEN"'
 000988 4510 8056/0000_      00990 13709                       MODESET MODE=SUP          In good hands, trust me
                                   13716                       ¿þþþþþþþþþþþþþþþþþþþþþþþþþþÜ
                                   13717                       Ÿ  Set up dump formatter.  Ÿ
                                   13718                       ¾þþþþþþþþþþþþþþþþþþþþþþþþþþ»
 000996 58E0 8A82/0DEE       013BC 13719                       VCALL MUDINIT
                                   13723              *
                                   13724                       ¿þþþþþþþþþþþþþþþþþþþþþþþþþþþþþþþþþþþþþþþþþþþþþþþþþþþþþþþþþþþÜ
                                   13725                       Ÿ  Open and then process SYSIN file.                        Ÿ
                                   13726                       Ÿ                                                           Ÿ
                                   13727                       Ÿ    (This code processes PORTS, TABLE and SYSIN ddnames.)  Ÿ
                                   13728                       ¾þþþþþþþþþþþþþþþþþþþþþþþþþþþþþþþþþþþþþþþþþþþþþþþþþþþþþþþþþþþ»
 00099C 4510 806A/80/0_      009A4 13729              NTPOPEN  OPEN  (SYSINDCB,(INPUT))
 0009A6 9110 8EFA/47E0_01834       13735                       IF    SYSINDCB+(DCBOFLGS-DCB).DCBOFOPN,BEGIN  Process...
 0009AE 4140 8ECA            01804 13751  1                      LA    R4,SYSINDCB         SYSIN DCB ptr
 0009B2 1B22/1B33                  13752  1                      CLEAR R2,R3               Preset (not in a buffer yet)
 0009B6 9024 8202            00B3C 13758  1                      STM   R2,R4,INPTRS        Save buffer ptrs
                                   13759  1
 0009BA 58E0 8A86/0DEE_      013C0 13760  1           INLOOP     WHILE ('ACALL GETSIN',Z),BEGIN  Get next line from SYSIN
 0009C4 41F0 C5B4/58E0_      005B4 13779  2                        SCINIT (R1),(R0),CVSCNCB  Set up for scanner
 0009CE 4110 82E2/41F0_      00C1C 13801  2                        SCAN  INITPRT,CVSCNCB     Scan it
 0009DC 4770 867A            00FB4 13820  2                        BNZ   INITSERR
 0009E0 47F0 8080            009BA 13821  1                      END
 0009E4                            13826                       END
                                   13830                       ¿þþþþþþþþþþþþþþþþþþþþþþþþþþþþþþþþþþþþþþþþþþþþþþþþþþþþþþþþþÜ
                                   13831                       Ÿ  Go back and process TABLE DDNAME (the same as SYSIN).  Ÿ
                                   13832                       ¾þþþþþþþþþþþþþþþþþþþþþþþþþþþþþþþþþþþþþþþþþþþþþþþþþþþþþþþþþ»
 0009E4 D507 8A4E 8EF2_01388 0182C 13833                       IF    (SYSDDNAM,EQ,=CL8'PORTS'),BEGIN
 0009EE D207 8EF2 8A56 0182C 01390 13850  1                      MVC   SYSDDNAM,=CL8'TABLE'
 0009F4 47F0 8062            0099C 13851  1                      B     NTPOPEN
 0009F8                            13852                       END
                                   13856                       ¿þþþþþþþþþþþþþþþþþþþþþþþþþþþþþþþþþþþþþþþþþþþþþþþþþþþþþþþþþÜ
                                   13857                       Ÿ  Go back and process SYSIN DDNAME (the same as SYSIN).  Ÿ
                                   13858                       ¾þþþþþþþþþþþþþþþþþþþþþþþþþþþþþþþþþþþþþþþþþþþþþþþþþþþþþþþþþ»
 0009F8 D507 8A56 8EF2_01390 0182C 13859                       IF    (SYSDDNAM,EQ,=CL8'TABLE'),BEGIN
 000A02 D207 8EF2 8A5E 0182C 01398 13876  1                      MVC   SYSDDNAM,=CL8'SYSIN'
 000A08 47F0 8062            0099C 13877  1                      B     NTPOPEN
 000A0C                            13878                       END
1MAIN     (MAIN2047) (12:35) (15MAR04) Initialization                                                                       Page   35
0Current Usings:  (*,R8) (CV,R12)
0Loc    Object Code    Addr1 Addr2  Stmt Lv Lineno    Source Statement           (Hibal 5, Asmedit 3.3)  HLASM R4.0  2004/03/15 12.35
+___    ______ ____    _____ _____  ____ __ ______    ______ _________
0                                  13883                       ¿þþþþþþþþþþþþþþþþþþþþþþþþþþþþþþþþþþþþþÜ
                                   13884                       Ÿ  Initialize session address table.  Ÿ
                                   13885                       ¾þþþþþþþþþþþþþþþþþþþþþþþþþþþþþþþþþþþþþ»
 000A0C 4830 C390            00390 13886                       LH    R3,CVMAXSES         Max no. of sessions
 000A10 8930 0002            00002 13887                       SLL   R3,2                Times 4
 000A14 1803/4510 80E0_            13888                       GETMAIN R,LV=(R3)
 000A1C 5010 C2BC            002BC 13893                       ST    R1,CVSATP
 000A20 1821                       13894                       LR    R2,R1               For MVCL...
 000A22 1B11                       13895                       CLEAR R1
 000A24 0E20                       13899                       MVCL  R2,R0               Init SAT to zeros
                                   13900
 000A26 58E0 8A8A/0DEE       013C4 13901                       ACALL SINTALLO            Init sess info table in CSA too
                                   13905                       ¿þþþþþþþþþþþþþþþþþþþþþþþþþþþþþþþþþþÜ
                                   13906                       Ÿ  Establish subsystem interface.  Ÿ
                                   13907                       ¾þþþþþþþþþþþþþþþþþþþþþþþþþþþþþþþþþþ»
 000A2C 58E0 8A8E/0DEE       013C8 13908                       VCALL SUBFIN
                                   13912                       ¿þþþþþþþþþþþþþþþþþþþþþþþþþþþþþþþþþÜ
                                   13913                       Ÿ  Initialize command processor.  Ÿ
                                   13914                       ¾þþþþþþþþþþþþþþþþþþþþþþþþþþþþþþþþþ»
 000A32 58E0 8A92/0DEE       013CC 13915                       VCALL MCOMINIT            Initialize command processor
                                   13919                       ¿þþþþþþþþþþþþþþþþþþþþþþþþþþþþþþþþþþþþÜ
                                   13920                       Ÿ  Make sure we have a console FEB.  Ÿ
                                   13921                       ¾þþþþþþþþþþþþþþþþþþþþþþþþþþþþþþþþþþþþ»
 000A38 41B0 C294            00294 13922                       LA    FEBR,CVFEBQH-(FEBLINK-FEB)  dummy first entry
 USING  FEB,R11                    13923                       WITH  FEB,BEGIN
 000A3C 58B0 B008/12BB_      00008 13936  1                      WHILE ('LT FEBR,FEBLINK',NZ),BEGIN
 000A46 9501 B00D/4780_0000D       13954  2                        IF    (FEBTYPE,EQ,FEBTCONS),GOTCONS
 000A4E 47F0 8102            00A3C 13975  1                      END
 DROP   FEB,R11                    13980                       END
 000A52 1B11/1B00/41F0_            13988                       SCINIT 0,0,CVSCNCB
 000A60 58E0 8A96/12EE_      013D0 14010                       IF    ('LT RAR,=V(CONSDEF)',NZ),BEGIN
 000A6A 05EE                       14026  1                      BALR  RAR,RAR
 000A6C 4770 8174            00AAE 14027  1                      IF    NZ,EXIT
 000A70 18B1                       14041  1                      LR    FEBR,R1
 USING  FEB,R11                    14042  1                      WITH  FEB
 000A72 4830 B076/1233       00076 14054  1                      LTH   R3,FEBPMAX          Max no of ports
 000A78 4770 814A/4830_      00A84 14058  1                      IF    Z,'LH R3,CVMAXSES; STH R3,FEBPMAX'  Global max
 000A84 8930 0002            00002 14076  1                      SLL   R3,2                Times 4
 000A88 1803                       14077  1                      LR    R0,R3
 000A8A 4110 001A            0001A 14078  1                      LA    R1,PATSUBP
 000A8E 4120 8158            00A92 14079  1                      LA    R2,*+4
 000A92 58E0 8A9A/0DEE       013D4 14080  1                      VCALL NGETCORE
 000A98 5010 B098            00098 14084  1                      ST    R1,FEBPATP          Save pat ptr
 000A9C 1821                       14085  1                      LR    R2,R1               For mvcl...
 000A9E 1B11                       14086  1                      CLEAR R1
 000AA0 0E20                       14090  1                      MVCL  R2,R0               Init pat to zeros
                                   14091  1
 000AA2 58F0 C2A0            002A0 14092  1                      L     R15,CVFEBQT
 000AA6 50B0 F008/50B0_      00008 14093  1                      WITH  (FEB,R15),'ST FEBR,FEBLINK; ST FEBR,CVFEBQT'  link up
 USING  FEB,R15
 DROP   FEB,R15
 DROP   FEB,R11                    14118                       END
1MAIN     (MAIN2047) (12:35) (15MAR04) Initialization                                                                       Page   36
0Current Usings:  (*,R8) (CV,R12)
0Loc    Object Code    Addr1 Addr2  Stmt Lv Lineno    Source Statement           (Hibal 5, Asmedit 3.3)  HLASM R4.0  2004/03/15 12.35
+___    ______ ____    _____ _____  ____ __ ______    ______ _________
0                                  14127                       ¿þþþþþþþþþþþþþþþþþþþþþþþþþþþþþþþþþþþÜ
                                   14128                       Ÿ  Add a virtual FEB to the queue.  Ÿ
                                   14129                       ¾þþþþþþþþþþþþþþþþþþþþþþþþþþþþþþþþþþþ»
 000AAE 58E0 8A9E/0DEE       013D8 14130              GOTCONS  VCALL VIRTDEF             Get a virtual FEB
 000AB4 4770 818A            00AC4 14134                       IF    Z,BEGIN             Add to FEB queue...
 000AB8 58F0 C2A0            002A0 14145  1                      L     R15,CVFEBQT
 000ABC 5010 F008/5010_      00008 14146  1                      WITH  (FEB,R15),'ST R1,FEBLINK; ST R1,CVFEBQT'  link up
 USING  FEB,R15
 DROP   FEB,R15
 000AC4                            14171                       END
                                   14175                       ¿þþþþþþþþþþþþþþÜ
                                   14176                       Ÿ  Open FEBs.  Ÿ
                                   14177                       ¾þþþþþþþþþþþþþþ»
 000AC4 41B0 C294            00294 14178                       LA    FEBR,CVFEBQH-(FEBLINK-FEB)  dummy first entry
 USING  FEB,R11                    14179                       WITH  FEB,BEGIN
 000AC8 58B0 B008/12BB_      00008 14192  1                      WHILE ('LT FEBR,FEBLINK',NZ),BEGIN
                                   14210  2
 000AD2 4110 B000            00000 14211  2                        LA    R1,FEB
 000AD6 1FEE/43E0 B00D             14212  2                        LC    RAR,FEBTYPE         Device type
 000ADC 59E0 8AA2/47D0_      013DC 14219  2                        IF    (RAR,GT,FEBTMAX),'CLEAR RAR'
 000AE6 89E0 0002            00002 14245  2                        SLL   RAR,2
 000AEA 58EE 8D12/12EE       0164C 14246  2                        LT    RAR,FINFE(RAR)      Appropriate routine
 000AF0 12EE/4780 81BE_            14250  2                        IF    (RAR,NZ),'BALR RAR,RAR'  open FEB
 000AF8 47F0 818E            00AC8 14270  1                      END
 DROP   FEB,R11                    14275                       END
                                   14283
 000AFC 58E0 8AA6/0DEE       013E0 14284                       ACALL FININIT             Do final initialization chores
                                   14288
 000B02 4110 8B9A/4100_      014D4 14289                       SEGWR 'Ready'
                                   14307
 000B14 D603 C484 C484_00484 00484 14308                       IF    (CVRCLOC,Z),BEGIN
 000B1E 4110 8B9F/4100_      014D9 14324  1                      SEGWR 'No reserve memory -- larger region needed'
 000B30                            14342                       END
                                   14346
 000B30 9240 C038      00038       14347                       MVI   CVECB,X'40'         Work to do
 000B34 58E0 8AAA/0DEE       013E4 14348                       ACALL DISPATCH            Go to dispatcher
 000B3A 0000                       14352                       DC    H'0'                (no return)
                                   14353
 000B3C                            14354              INPTRS   DS    3A                  Sysin buffer ptrs
1MAIN     (MAIN2047) (12:35) (15MAR04) Initialization                                                                       Page   37
0Current Usings:  (*,R8) (CV,R12)
0Loc    Object Code    Addr1 Addr2  Stmt Lv Lineno    Source Statement           (Hibal 5, Asmedit 3.3)  HLASM R4.0  2004/03/15 12.35
+___    ______ ____    _____ _____  ____ __ ______    ______ _________
0                                  14356              ¿þþþþþþþþþþþþþþþþþþþþþþþþþþþþþþþþþþþþþþþþþþþþþþþþþþþþþþþþþþþþþþþþþþþþþÜ
                                   14357              Ÿ                                                                     Ÿ
                                   14358              Ÿ   parm options                                                      Ÿ
                                   14359              Ÿ                                                                     Ÿ
                                                      ¾þþþþþþþþþþþþþþþþþþþþþþþþþþþþþþþþþþþþþþþþþþþþþþþþþþþþþþþþþþþþþþþþþþþþþ»
0000B48 0B000BBCE3C5E2E3           14360              PARMPRT  SCKW  TEST,PTEST,A
 000B50 0B000BC2D7D9D6C4           14362                       SCKW  PROD,PPROD,A
 000B58 03000BC8E2E8E2C1           14364                       SCKW  SYSA,PALPHA
 000B60 03000BCEE2E8E2C2           14366                       SCKW  SYSB,PRLG
 000B68 03000BC8E2E8E2C3           14368                       SCKW  SYSC,PALPHA
 000B70 0C000BC8C1D3D7C8           14370                       SCKW  ALPHA,PALPHA,A
 000B79 0A000BCED9D3C7             14372                       SCKW  RLG,PRLG,A
 000B80 0C000BD4D9C5E3D9           14374                       SCKW  RETRY,PRETRY,A
 000B89 0E000BDAD5D6D9C5           14376                       SCKW  NORETRY,PNORETRY,A
 000B94 0B000BE0E2E3C1C5           14378                       SCKW  STAE,PSTAE,A
 000B9C 0D000BE6D5D6E2E3           14380                       SCKW  NOSTAE,PNOSTAE,A
 000BA6 0B000BECC4E4D4D7           14382                       SCKW  DUMP,PDUMP,A
 000BAE 0D000BF2D5D6C4E4           14384                       SCKW  NODUMP,PNODUMP,A
 000BB8 FF000BF8                   14386                       SCKW  ,BADP
                                   14388              þþþþ
 000BBC 9680 C13C      0013C       14389              PTEST    SET   CVFTEST
 000BC0 07FE                       14396                       BR    RAR
                                   14397
 000BC2 947F C13C      0013C       14398              PPROD    CLEAR CVFTEST
 000BC6 07FE                       14406                       BR    RAR
                                   14407
 000BC8 9280 C13B      0013B       14408              PALPHA   SET   CVFALP
 000BCC 07FE                       14415                       BR    RAR
                                   14416
 000BCE 9201 C13B      0013B       14417              PRLG     SET   CVFRLG
 000BD2 07FE                       14424                       BR    RAR
                                   14425
 000BD4 94EF C13C      0013C       14426              PRETRY   CLEAR CVFNORET
 000BD8 07FE                       14434                       BR    RAR
                                   14435
 000BDA 9610 C13C      0013C       14436              PNORETRY SET   CVFNORET
 000BDE 07FE                       14443                       BR    RAR
                                   14444
 000BE0 94DF C13C      0013C       14445              PSTAE    CLEAR CVFNSTAE
 000BE4 07FE                       14453                       BR    RAR
                                   14454
 000BE6 9620 C13C      0013C       14455              PNOSTAE  SET   CVFNSTAE
 000BEA 07FE                       14462                       BR    RAR
                                   14463
 000BEC 9610 C13D      0013D       14464              PDUMP    SET   CVFDUMP
 000BF0 07FE                       14471                       BR    RAR
                                   14472
 000BF2 94EF C13D      0013D       14473              PNODUMP  CLEAR CVFDUMP
 000BF6 07FE                       14481                       BR    RAR
                                   14482
 000BF8 182E                       14483              BADP     LR    R2,RAR
 000BFA 183F                       14484                       LR    R3,R15
 000BFC 41F0 C5D4/58E0_      005D4 14485                       SEG   (R1),(R0)
1MAIN     (MAIN2047) (12:35) (15MAR04) Initialization                                                                       Page   38
0Current Usings:  (*,R8) (CV,R12)
0Loc    Object Code    Addr1 Addr2  Stmt Lv Lineno    Source Statement           (Hibal 5, Asmedit 3.3)  HLASM R4.0  2004/03/15 12.35
+___    ______ ____    _____ _____  ____ __ ______    ______ _________
0000C06 4110 8B2C/4100_      01466 14508                       SEGWR ': Invalid parm'
 000C18 18F3                       14526                       LR    R15,R3
 000C1A 07F2                       14527                       BR    R2
1MAIN     (MAIN2047) (12:35) (15MAR04) Initialization                                                                       Page   39
0Current Usings:  (*,R8) (CV,R12)
0Loc    Object Code    Addr1 Addr2  Stmt Lv Lineno    Source Statement           (Hibal 5, Asmedit 3.3)  HLASM R4.0  2004/03/15 12.35
+___    ______ ____    _____ _____  ____ __ ______    ______ _________
0                                  14529              ¿þþþþþþþþþþþþþþþþþþþþþþþþþþþþþþþþþþþþþþþþþþþþþþþþþþþþþþþþþþþþþþþþþþþþþÜ
                                   14530              Ÿ                                                                     Ÿ
                                   14531              Ÿ        SYSIN options.                                               Ÿ
                                   14532              Ÿ                                                                     Ÿ
                                                      ¾þþþþþþþþþþþþþþþþþþþþþþþþþþþþþþþþþþþþþþþþþþþþþþþþþþþþþþþþþþþþþþþþþþþþþ»
0000C1C 8C000C7CE3C1C2D3           14533              INITPRT  SCKW  TABLE,ITABLE,(A,P)
 000C25 01000D1AC9D5               14535                       SCKW  IN,ITEXT
 000C2B 02000D1AD6E4E3             14537                       SCKW  OUT,ITEXT
 000C32 0D000E66C4C5C6C9           14539                       SCKW  DEFINE,IDEFINE,A
 000C3C 0B000F18D7D6D9E3           14541                       SCKW  PORT,IPORT,A
 000C44 0E000C5AC3D6D4D4           14543                       SCKW  COMMAND,ICMD,A
 000C4F 0A000C5AC3D4C4             14545                       SCKW  CMD,ICMD,A
 000C56 FF000FCC                   14547                       SCKW  ,INITBAD
-                                  14550              ¿þþþþþþþþþþþþþþþþþþþþþþþþþþþþþþþþþþþþþþþþþþþþþþþþþþþþþþþþþþþþþþþþþþþþþÜ
                                   14551              Ÿ                                                                     Ÿ
                                   14552              Ÿ        Execute a MILTEN command.                                    Ÿ
                                   14553              Ÿ                                                                     Ÿ
                                                      ¾þþþþþþþþþþþþþþþþþþþþþþþþþþþþþþþþþþþþþþþþþþþþþþþþþþþþþþþþþþþþþþþþþþþþþ»
0000C5A                            14554              ICMD     LABEL
 000C5A 41F0 C5B4/58E0_      005B4 14556                       SCTELL CVSCNCB            Get remainder of line
 000C64 4110 1001            00001 14568                       LA    R1,@R1+1
 000C68 0600                       14569                       DECR  R0
                                   14571
 000C6A 41F0 C5D4            005D4 14572                       LA    R15,CVWSG           Display responses as WTOs
 000C6E 4120 0001            00001 14573                       LA    R2,1                Priv'd user
 000C72 58E0 8AB6/0DEE       013F0 14574                       VCALL COMMAND             Execute this command
 000C78 47F0 8080            009BA 14578                       B     INLOOP
                                   14579              ¿þþþþþþþþþþþþþþþþþþþþþþþþþþþþþþþþþþþþþþþþþþþþþþþþþþþþþþþþþþþþþþþþþþþþþÜ
                                   14580              Ÿ                                                                     Ÿ
                                   14581              Ÿ        TABLE                                                        Ÿ
                                   14582              Ÿ                                                                     Ÿ
                                                      ¾þþþþþþþþþþþþþþþþþþþþþþþþþþþþþþþþþþþþþþþþþþþþþþþþþþþþþþþþþþþþþþþþþþþþþ»
0000C7C 4780 8686            00FC0 14583              ITABLE   BZ    INITMISS
 000C80 D703 851E 851E_00E58 00E58 14584                       CLEAR XLSTART,XLTYPE
 000C8C 4150 C392            00392 14596                       LA    R5,CVXLTBL
 000C90 4160 C482            00482 14597                       LA    R6,CVXLTBE
 000C94 1B44                       14598                       CLEAR R4
 000C96 1956/47B0 839A             14602                       WHILE (R5,LT,R6),BEGIN
 000C9C D507 C5B8 5000_005B8 00000 14619  1                      IF    (CVSCNKW,EQ,@R5),BEGIN
 000CA6 41F0 C5D4/58E0_      005D4 14636  2                        SEG   (R1),(R0)
 000CB0 4110 8B3A/4100_      01474 14659  2                        SETMSG ': already defined.'
 000CB8 47F0 86B0            00FEA 14663  2                        B     INITERR
 000CBC                            14664  1                      END
 000CBC 1244/4770 8392_            14668  1                      IF    ((R4,Z),AND,('C R4,@R5+8',EQ)),'LR R4,R5'
 000CCC 4150 500C            0000C 14700  1                      LA    R5,@R5+12
 000CD0 47F0 835C            00C96 14701                       END
 000CD4 1244/4770 83B6             14706                       IF    (R4,Z),BEGIN
 000CDA 41F0 C5D4/58E0_      005D4 14720  1                      SEG   (R1),(R0)
 000CE4 4110 8B4C/4100_      01486 14743  1                      SETMSG ': no room.'
1MAIN     (MAIN2047) (12:35) (15MAR04) Initialization                                                                       Page   40
0Current Usings:  (*,R8) (CV,R12)
0Loc    Object Code    Addr1 Addr2  Stmt Lv Lineno    Source Statement           (Hibal 5, Asmedit 3.3)  HLASM R4.0  2004/03/15 12.35
+___    ______ ____    _____ _____  ____ __ ______    ______ _________
0000CEC 47F0 86B0            00FEA 14747  1                      B     INITERR
 000CF0                            14748                       END
 000CF0 D207 4000 C5B8 00000 005B8 14752                       MVC   @R4(8),CVSCNKW
 000CF6 4100 0400            00400 14753                       LA    R0,L'XLE
 000CFA 4110 001C            0001C 14754                       LA    R1,ITBLSUBP
                                   14755              *  No ID is specified because the
                                   14756              *  subpool number is so specific.
 000CFE 58E0 8A9A/0DEE       013D4 14757                       VCALL NGETCORE
 000D04 5010 4008            00008 14761                       ST    R1,@R4+8
 000D08 5010 851E            00E58 14762                       ST    R1,XLSTART
 000D0C 1801                       14763                       LR    R0,R1
 000D0E 4110 0400            00400 14764                       LA    R1,L'XLE
 000D12 1BFF                       14765                       CLEAR R15
 000D14 0E0E                       14769                       MVCL  R0,R14              Zero xle
                                   14770
 000D16 47F0 8080            009BA 14771                       B     INLOOP
1MAIN     (MAIN2047) (12:35) (15MAR04) Initialization                                                                       Page   41
0Current Usings:  (*,R8) (CV,R12)
0Loc    Object Code    Addr1 Addr2  Stmt Lv Lineno    Source Statement           (Hibal 5, Asmedit 3.3)  HLASM R4.0  2004/03/15 12.35
+___    ______ ____    _____ _____  ____ __ ______    ______ _________
0                                  14773              ¿þþþþþþþþþþþþþþþþþþþþþþþþþþþþþþþþþþþþþþþþþþþþþþþþþþþþþþþþþþþþþþþþþþþþþÜ
                                   14774              Ÿ                                                                     Ÿ
                                   14775              Ÿ        IN/OUT (TABLE sub-options).                                  Ÿ
                                   14776              Ÿ                                                                     Ÿ
                                                      ¾þþþþþþþþþþþþþþþþþþþþþþþþþþþþþþþþþþþþþþþþþþþþþþþþþþþþþþþþþþþþþþþþþþþþþ»
0000D1A D603 851E 851E_00E58 00E58 14777              ITEXT    IF    (XLSTART,Z),'SETMSG "No preceding table."; B INITERR'
 000D30 5860 8522            00E5C 14804                       L     R6,XLCUR
 000D34 D500 852A C5B8_00E64 005B8 14805                       IF    (XLTYPE,NE,CVSCNKW),BEGIN
 000D3E D200 852A C5B8 00E64 005B8 14823  1                      MVC   XLTYPE,CVSCNKW
 000D44 5860 851E            00E58 14824  1                      L     R6,XLSTART
 000D48 95D6 852A/4770_00E64       14825  1                      IF    (XLTYPE,EQ,'O'),'LA R6,@R6+512'
 000D54 41F0 6100            00100 14848  1                      LA    R15,@R6+256
 000D58 50F0 8526            00E60 14849  1                      ST    R15,XLEND
 000D5C                            14850                       END
 000D5C 1B11/41F0 C5B4_            14854                       SCAN  ,CVSCNCB
 000D68 4780 8686            00FC0 14870                       BZ    INITMISS
 000D6C 1851                       14871                       LR    R5,R1
 000D6E 1840                       14872                       LR    R4,R0
 000D70 5400 8ABA            013F4 14873                       N     R0,=F'1'
 000D74 4780 844A/4110_      00D84 14874                       IF    NZ,'SETMSG "Not even no of digits."; B INITERR'
 000D84 1244/47D0 8518             14895                       WHILE (R4,POS),BEGIN
 000D8A 5960 8526/4750_      00E60 14911  1                      IF    (R6,GE,XLEND),BEGIN
 000D92 1815/1804/41F0_            14928  2                        SEG   (R5),(R4)
 000DA0 4110 8B6C/4100_      014A6 14953  2                        SETMSG ': too long (>256).'
 000DA8 47F0 86B0            00FEA 14957  2                        B     INITERR
 000DAC                            14958  1                      END
 000DAC 1815/4100 0002_            14962  1                      XTB   (R5),2
 000DB8 4770 8486/42F0_      00DC0 14981  1                      IF    Z,'STC R15,@R6'
 000DC0 848A/47F0 8504 00DC0 00DBA 14998  1                      ELSE  BEGIN
 000DC4 D501 8B7E 5000_014B8 00000 15009  2                        IF    (@R5,EQ,'..'),BEGIN  No-change char...
 000DCE 18F6                       15025  3                          LR    R15,R6
 000DD0 5BF0 851E            00E58 15026  3                          S     R15,XLSTART         Offset
 000DD4 95D6 852A/4770_00E64       15027  3                          IF    (XLTYPE,EQ,'O'),'SH R15,=H"512"'
 000DE0 42F0 6000            00000 15050  3                          STC   R15,@R6
 000DE4 47F0 8504            00E3E 15051  3                          B     ITXN
 000DE8                            15052  2                        END
 000DE8 D501 8B82 5000_014BC 00000 15056  2                        IF    (@R5,EQ,'##'),BEGIN  Invalid char...
 000DF2 927B 6000      00000       15072  3                          MVI   @R6,C'#'
 000DF6 95C9 852A/4770_00E64       15073  3                          IF    (XLTYPE,EQ,'I'),'MVI @R6+256,XLEFINV'  Invalid char
 000E02 47F0 8504            00E3E 15096  3                          B     ITXN
 000E06                            15097  2                        END
 000E06 D501 8B84 5000_014BE 00000 15101  2                        IF    (@R5,EQ,'**'),BEGIN  Ignore char...
 000E10 9200 6000      00000       15117  3                          MVI   @R6,0               (Neatness)
 000E14 9202 6100      00100       15118  3                          MVI   @R6+256,XLEFIGN
 000E18 47F0 8504            00E3E 15119  3                          B     ITXN
 000E1C                            15120  2                        END
 000E1C 1815/4100 0002_            15124  2                        SEG   (R5),2
 000E2C 4110 8BDB/4100_      01515 15151  2                        SEGWR ': invalid hex digits.'
 000E3E                            15169  1                      END
 000E3E 4160 6001            00001 15173  1           ITXN       LA    R6,@R6+1
 000E42 5060 8522            00E5C 15174  1                      ST    R6,XLCUR
 000E46 4150 5002            00002 15175  1                      LA    R5,@R5+2
 000E4A 4B40 8B86            014C0 15176  1                      SH    R4,=H'2'
1MAIN     (MAIN2047) (12:35) (15MAR04) Initialization                                                                       Page   42
0Current Usings:  (*,R8) (CV,R12)
0Loc    Object Code    Addr1 Addr2  Stmt Lv Lineno    Source Statement           (Hibal 5, Asmedit 3.3)  HLASM R4.0  2004/03/15 12.35
+___    ______ ____    _____ _____  ____ __ ______    ______ _________
0000E4E 47F0 844A            00D84 15177                       END
 000E52 47F0 8080            009BA 15182                       B     INLOOP
                                   15183
 000E56 0000
 000E58 00000000                   15184              XLSTART  DC    A(0)
 000E5C 00000000                   15185              XLCUR    DC    A(0)
 000E60 00000000                   15186              XLEND    DC    A(0)
 000E64 5C                         15187              XLTYPE   DC    C'*'
1MAIN     (MAIN2047) (12:35) (15MAR04) Initialization                                                                       Page   43
0Current Usings:  (*,R8) (CV,R12)
0Loc    Object Code    Addr1 Addr2  Stmt Lv Lineno    Source Statement           (Hibal 5, Asmedit 3.3)  HLASM R4.0  2004/03/15 12.35
+___    ______ ____    _____ _____  ____ __ ______    ______ _________
0                                  15189              ¿þþþþþþþþþþþþþþþþþþþþþþþþþþþþþþþþþþþþþþþþþþþþþþþþþþþþþþþþþþþþþþþþþþþþþÜ
                                   15190              Ÿ                                                                     Ÿ
                                   15191              Ÿ        DEFINE options.                                              Ÿ
                                   15192              Ÿ                                                                     Ÿ
                                                      ¾þþþþþþþþþþþþþþþþþþþþþþþþþþþþþþþþþþþþþþþþþþþþþþþþþþþþþþþþþþþþþþþþþþþþþ»
0000E66 D703 8672 8672 00FAC 00FAC 15193              IDEFINE  CLEAR IFEBP
 000E6C 4110 8544/41F0_      00E7E 15201                       SCAN  FEPRT,CVSCNCB
 000E7A 47F0 8686            00FC0 15220                       B     INITMISS
                                   15221
 000E7E 0E000E94C3D6D5E2           15222              FEPRT    SCKW  CONSOLE,IDEFCONS,A
                                   15224              *         SCKW  ASYNC,IDEFASYN,A
                                   15225              *         SCKW  PDP,IDEFPDP
                                   15226              *         SCKW  VTAM,IDEFVTAM,A
                                   15227              *         SCKW  NSC,IDEFNSC
 000E89 02000EA2C5D3C6             15228                       SCKW  ELF,IDEFELF
                                   15230              *         SCKW  ALF,IDEFALF
                                   15231              *         SCKW  ECU,IDEFECU
 000E90 FF000EB0                   15232                       SCKW  ,IDEFERR
                                   15234              þþþþ
 000E94 58E0 8A96            013D0 15235              IDEFCONS L     RAR,=V(CONSDEF)
 000E98 D203 8676 8AC2 00FB0 013FC 15236                       MVC   IPORTRTN,=V(CONSPORT)
 000E9E 47F0 858C            00EC6 15237                       B     IDEF
                                   15238              *
                                   15239              *IDEFASYN L     RAR,=V(ASYNDEF)
                                   15240              *         MVC   IPORTRTN,=V(ASYNPORT)
                                   15241              *         B     IDEF
                                   15242              *
                                   15243              *IDEFPDP  L     RAR,=V(PDPDEF)
                                   15244              *         MVC   IPORTRTN,=V(PDPPORT)
                                   15245              *         B     IDEF
                                   15246              *
                                   15247              *IDEFVTAM L     RAR,=V(VTAMDEF)
                                   15248              *         MVC   IPORTRTN,=V(VTAMPORT)
                                   15249              *         B     IDEF
                                   15250              *
                                   15251              *IDEFNSC  L     RAR,=V(NSCDEF)
                                   15252              *         MVC   IPORTRTN,=V(NSCPORT)
                                   15253              *         B     IDEF
                                   15254              *
 000EA2 58E0 8AC6            01400 15255              IDEFELF  L     RAR,=V(ELFDEF)
 000EA6 D203 8676 8ACA 00FB0 01404 15256                       MVC   IPORTRTN,=V(ELFPORT)
 000EAC 47F0 858C            00EC6 15257                       B     IDEF
                                   15258              *
                                   15259              *IDEFALF  L     RAR,=V(ALFDEF)
                                   15260              *         MVC   IPORTRTN,=V(ALFPORT)
                                   15261              *         B     IDEF
                                   15262              *
                                   15263              *IDEFECU  L     RAR,=V(ECUDEF)
                                   15264              *         MVC   IPORTRTN,=V(ECUPORT)
                                   15265              *         B     IDEF
                                   15266              *
 000EB0 41F0 C5D4/58E0_      005D4 15267              IDEFERR  SEG   (R1),(R0)
 000EBA 4110 8BF0/4100_      0152A 15291                       SETMSG ': invalid front-end type.'
1MAIN     (MAIN2047) (12:35) (15MAR04) Initialization                                                                       Page   44
0Current Usings:  (*,R8) (CV,R12)
0Loc    Object Code    Addr1 Addr2  Stmt Lv Lineno    Source Statement           (Hibal 5, Asmedit 3.3)  HLASM R4.0  2004/03/15 12.35
+___    ______ ____    _____ _____  ____ __ ______    ______ _________
0000EC2 47F0 86B0            00FEA 15295                       B     INITERR
                                   15296
 000EC6 12EE/4780 85DA             15297              IDEF     IF    (RAR,NZ),BEGIN
 000ECC 05EE                       15312  1                      BALR  RAR,RAR
 000ECE 4770 86B0            00FEA 15313  1                      BNZ   INITERR
 000ED2 18B1                       15314  1                      LR    FEBR,R1
 USING  FEB,R11                    15315  1                      WITH  FEB
 000ED4 4830 B076/1233       00076 15327  1                      LTH   R3,FEBPMAX          Max no of ports
 000EDA 4770 85AC/4830_      00EE6 15331  1                      IF    Z,'LH R3,CVMAXSES; STH R3,FEBPMAX'  Global max
 000EE6 8930 0002            00002 15349  1                      SLL   R3,2                Times 4
 000EEA 1803                       15350  1                      LR    R0,R3
 000EEC 4110 001A            0001A 15351  1                      LA    R1,PATSUBP
 000EF0 4120 85BA            00EF4 15352  1                      LA    R2,*+4
 000EF4 58E0 8A9A/0DEE       013D4 15353  1                      VCALL NGETCORE
 000EFA 5010 B098            00098 15357  1                      ST    R1,FEBPATP          Save PAT ptr
 000EFE 1821                       15358  1                      LR    R2,R1               For MVCL....
 000F00 1B11                       15359  1                      CLEAR R1
 000F02 0E20                       15363  1                      MVCL  R2,R0               Init PAT to zeros
                                   15364  1
 000F04 50B0 8672            00FAC 15365  1                      ST    FEBR,IFEBP
 000F08 58F0 C2A0            002A0 15366  1                      L     R15,CVFEBQT
 000F0C 50B0 F008/50B0_      00008 15367  1                      WITH  (FEB,R15),'ST FEBR,FEBLINK; ST FEBR,CVFEBQT'
 USING  FEB,R15
 DROP   FEB,R15
 DROP   FEB,R11                    15392                       END
 000F14 47F0 8080            009BA 15401                       B     INLOOP
1MAIN     (MAIN2047) (12:35) (15MAR04) Initialization                                                                       Page   45
0Current Usings:  (*,R8) (CV,R12)
0Loc    Object Code    Addr1 Addr2  Stmt Lv Lineno    Source Statement           (Hibal 5, Asmedit 3.3)  HLASM R4.0  2004/03/15 12.35
+___    ______ ____    _____ _____  ____ __ ______    ______ _________
0                                  15403              ¿þþþþþþþþþþþþþþþþþþþþþþþþþþþþþþþþþþþþþþþþþþþþþþþþþþþþþþþþþþþþþþþþþþþþþÜ
                                   15404              Ÿ                                                                     Ÿ
                                   15405              Ÿ        PORT options.                                                Ÿ
                                   15406              Ÿ                                                                     Ÿ
                                                      ¾þþþþþþþþþþþþþþþþþþþþþþþþþþþþþþþþþþþþþþþþþþþþþþþþþþþþþþþþþþþþþþþþþþþþþ»
0000F18 58B0 8672/12BB_      00FAC 15407              IPORT    IF    ('LT FEBR,IFEBP',NZ),BEGIN
 USING  FEB,R11                    15424  1                      WITH  FEB
 000F22 181B                       15436  1                      LR    R1,FEBR
 000F24 58E0 8676/12EE_      00FB0 15437  1                      IF    ('LT RAR,IPORTRTN',Z),EXIT
 000F2E 05EE                       15456  1                      BALR  RAR,RAR
 000F30 4770 86B0            00FEA 15457  1                      BNZ   INITERR
 000F34 12A1                       15458  1                      LTR   PIBR,R1
 USING  PIB,R10                    15459  1                      WITH  PIB
 000F36 4780 866C            00FA6 15471  1                      IF    Z,EXIT
 000F3A 50B0 A008            00008 15485  1                      ST    FEBR,PIBFEBP
 000F3E 48F0 A004            00004 15486  1                      LH    R15,PIBNO
 000F42 BDF3 B076/4750_      00076 15487  1                      IF    (R15,LGE,FEBPMAX),BEGIN
 000F4A 4110 A000            00000 15504  2                        LA    R1,PIB
 000F4E 58E0 8ACE/0DEE       01408 15505  2                        ACALL FREEPIB
 000F54 4110 A034/4100_      00034 15509  2                        SEGTB PIBNAME
 000F66 4110 8AD6/4100_      01410 15537  2                        SETMSG 'is out of bounds (not enough ports).'
 000F6E 47F0 86B0            00FEA 15541  2                        B     INITERR
 000F72                            15542  1                      END
 000F72 89F0 0002            00002 15546  1                      SLL   R15,2
 000F76 5AF0 B098            00098 15547  1                      A     R15,FEBPATP
 000F7A D603 F000 F000_00000 00000 15548  1                      IF    ('OC @R15(4),@R15',NZ),BEGIN
 000F84 4110 A034/4100_      00034 15561  2                        SEGTB PIBNAME
 000F96 4110 8C09/4100_      01543 15589  2                        SETMSG 'is already defined.'
 000F9E 47F0 86B0            00FEA 15593  2                        B     INITERR
 000FA2                            15594  1                      END
 000FA2 50A0 F000            00000 15598  1                      ST    PIBR,@R15
 DROP   PIB,R10                    15599                       END
 DROP   FEB,R11
 000FA6 47F0 8080            009BA 15613                       B     INLOOP
                                   15614
 000FAA 0000
 000FAC 00000000                   15615              IFEBP    DC    A(0)
 000FB0 00000000                   15616              IPORTRTN DC    A(0)
1MAIN     (MAIN2047) (12:35) (15MAR04) Initialization                                                                       Page   46
0Current Usings:  (*,R8) (CV,R12)
0Loc    Object Code    Addr1 Addr2  Stmt Lv Lineno    Source Statement           (Hibal 5, Asmedit 3.3)  HLASM R4.0  2004/03/15 12.35
+___    ______ ____    _____ _____  ____ __ ______    ______ _________
0                                  15618                       ¿þþþþþþþþþþþþþþþþþþþþþþþþþÜ
                                   15619                       Ÿ  Local error messages.  Ÿ
                                   15620                       ¾þþþþþþþþþþþþþþþþþþþþþþþþþ»
 000FB4 4110 8C1C/4100_      01556 15621              INITSERR SETMSG 'invalid syntax.'
 000FBC 47F0 86B0            00FEA 15625                       B     INITERR
                                   15626
 000FC0 4110 8A66/4100_      013A0 15627              INITMISS SETMSG 'missing operand.'
 000FC8 47F0 86B0            00FEA 15631                       B     INITERR
                                   15632
 000FCC 4110 C5B8/4100_      005B8 15633              INITBAD  SEGT  CVSCNKW
 000FDE 4110 8B88/4100_      014C2 15661                       SETMSG ': invalid.'
 000FE6 47F0 86B0            00FEA 15665                       B     INITERR
                                   15666
 000FEA 41F0 C5D4/58E0_      005D4 15667              INITERR  SEG   (R1),(R0)
 000FF4 D503 8AFE 8F2A_01438 01864 15691                       IF    (LINENO,NE,-1),BEGIN
 000FFE 4110 8B92/4100_      014CC 15709  1                      SEGB  ', line'
 001010 58F0 8F2A/4100_      01864 15727  1                      BTR   CVWORK,(0,3),L:LINENO
 001022 18F1                       15750  1                      LR    R15,R1
 001024 1AF0                       15751  1                      AR    R15,R0
 001026 06F0                       15752  1                      DECR  R15
 001028 95F0 F000/4770_00000       15754  1                      WHILE (@R15,EQ,'0'),'MVI @R15,C" "; DECR R15'
 00103A 41F0 C5D4/58E0_      005D4 15781  1                      SEGT  (R1),(R0)
 001044                            15805                       END
 001044 1B00/41F0 C5D4_            15809                       SEGWR
 001050 47F0 8080            009BA 15833                       B     INLOOP
                                   15834
 DROP   *,R8                       15835                       DROP  BR
                                   15842                       ¿þþþþþþþþþþþþþþþþþþþþþÜ
                                   15843                       Ÿ  Scan subroutines.  Ÿ
                                   15844                       ¾þþþþþþþþþþþþþþþþþþþþþ»
 USING  FEB,R11                    15845                       USING FEB                 (scan assumption)
-                                  15855                       ENTRY DEFPRT
                                   15856
 001054 0D001090D3C5C1E2           15857              DEFPRT   SCKW  LEASED,DLEASE,A
 00105E 0B001096D9D3C9D5           15859                       SCKW  RLIN,DRLIN,A
 001066 0F00109CC1E3E3C1           15861                       SCKW  ATTACHED,DATTACH,A
 001072 0F0010A2C4C5E3C1           15863                       SCKW  DETACHED,DDETACH,A
 00107E DD0010A8D5D6E3C9_          15865                       SCKW  NOTIME,DNOTIME,(A,P,I),9999
 00108C FF00157E                   15868                       SCKW  ,INITSKIP
                                   15870
 001090 9640 B070      00070       15871              DLEASE   SET   FEBFLEAS
 001094 07FE                       15878                       SCRTN (R15)
                                   15884
 001096 9660 B070      00070       15885              DRLIN    SET   FEBFRLIN+FEBFLEAS
 00109A 07FE                       15895                       SCRTN (R15)
                                   15901
 00109C 94BF B071      00071       15902              DATTACH  CLEAR FEBFDET
 0010A0 07FE                       15910                       SCRTN (R15)
                                   15916
 0010A2 9640 B071      00071       15917              DDETACH  SET   FEBFDET
 0010A6 07FE                       15924                       SCRTN (R15)
                                   15930
1MAIN     (MAIN2047) (12:35) (15MAR04) Initialization                                                                       Page   47
0Current Usings:  (FEB,R11) (CV,R12)
0Loc    Object Code    Addr1 Addr2  Stmt Lv Lineno    Source Statement           (Hibal 5, Asmedit 3.3)  HLASM R4.0  2004/03/15 12.35
+___    ______ ____    _____ _____  ____ __ ______    ______ _________
00010A8 D201 B012 F002 00012 00002 15931              DNOTIME  MVC   FEBTMLIM,SCNVAL+2-SCNCB(R15)  Save NOTIME limit
 0010AE 07FE                       15932                       SCRTN (R15)
1MAIN     (MAIN2047) (12:35) (15MAR04) Initialization                                                                       Page   48
0Current Usings:  (FEB,R11) (CV,R12)
0Loc    Object Code    Addr1 Addr2  Stmt Lv Lineno    Source Statement           (Hibal 5, Asmedit 3.3)  HLASM R4.0  2004/03/15 12.35
+___    ______ ____    _____ _____  ____ __ ______    ______ _________
0USING  PIB,R10                    15939                       USING PIB                 (scan assumption)
                                   15948              þþþþ
                                   15949                       ENTRY PORTPRT
                                   15950
 0010B0 0B001172C4C9C1D3           15951              PORTPRT  SCKW  DIAL,PDIAL,A
 0010B8 0C001178E2E4D5C5           15953                       SCKW  SUNET,PSUNET,A
 0010C1 0E00117EC7C1D5C4           15955                       SCKW  GANDALF,PGANDALF,A
 0010CC 0D001184C4C9D9C5           15957                       SCKW  DIRECT,PDIR,A
 0010D6 0D00118AD3C5C1E2           15959                       SCKW  LEASED,PLEASE,A
 0010E0 0E001190E3C5D3C5           15961                       SCKW  TELENET,PTEL,A
 0010EB 0D001196E3E8D4D5           15963                       SCKW  TYMNET,PTYM,A
 0010F5 0B00119CD9D3C9D5           15965                       SCKW  RLIN,PRLIN,A
 0010FD 0C0011A2E3D9C1C3           15967                       SCKW  TRACE,PTRACE,A
 001106 0B0011A8D2C5C5D7           15969                       SCKW  KEEP,PKEEP,A
 00110E 0F0011AED6D7C5D9           15971                       SCKW  OPERATOR,POPER,A
 00111A 0C0011B4C4E4D4D4           15973                       SCKW  DUMMY,PDUMMY,A
 001123 0F0011BAC1E3E3C1           15975                       SCKW  ATTACHED,PATTACH,A
 00112F 0F0011C0C4C5E3C1           15977                       SCKW  DETACHED,PDETACH,A
 00113B 8900121CC9C4               15979                       SCKW  ID,PTID,(A,P)
 001141 8D0011CEE2E8E2E3           15981                       SCKW  SYSTEM,PDFSYS,(A,P)
 00114B 8E0011C6E2D4C6E3           15983                       SCKW  SMFTYPE,PSMFTYPE,(A,P)
 001156 8F00126ED3D6C3C1           15985                       SCKW  LOCATION,PLOC,(A,P)
 001162 8E001322E2C5E2E2           15987                       SCKW  SESSION,PSES,(A,P)
 00116D FF0012C2                   15989                       SCKW  ,PCHK
                                   15991
 001172 9680 A064      00064       15992              PDIAL    SET   PIBFDIAL
 001176 07FE                       15999                       SCRTN (R15)
                                   16005
 001178 9640 A064      00064       16006              PSUNET   SET   PIBFSUN
 00117C 07FE                       16013                       SCRTN (R15)
                                   16019
 00117E 9610 A064      00064       16020              PGANDALF SET   PIBFGAND
 001182 07FE                       16027                       SCRTN (R15)
                                   16033
 001184 9620 A064      00064       16034              PDIR     SET   PIBFDIR
 001188 07FE                       16041                       SCRTN (R15)
                                   16047
 00118A 9680 A065      00065       16048              PLEASE   SET   PIBFLEAS
 00118E 07FE                       16055                       SCRTN (R15)
                                   16061
 001190 9640 A065      00065       16062              PTEL     SET   PIBFTEL
 001194 07FE                       16069                       SCRTN (R15)
                                   16075
 001196 9620 A065      00065       16076              PTYM     SET   PIBFTYM
 00119A 07FE                       16083                       SCRTN (R15)
                                   16089
 00119C 9690 A065      00065       16090              PRLIN    SET   PIBFRLIN+PIBFLEAS
 0011A0 07FE                       16100                       SCRTN (R15)
                                   16106
 0011A2 9608 A066      00066       16107              PTRACE   SET   PIBFSESTRC
 0011A6 07FE                       16114                       SCRTN (R15)
                                   16120
 0011A8 9604 A066      00066       16121              PKEEP    SET   PIBFSESKEEP
 0011AC 07FE                       16128                       SCRTN (R15)
1MAIN     (MAIN2047) (12:35) (15MAR04) Initialization                                                                       Page   49
0Current Usings:  (PIB,R10) (FEB,R11) (CV,R12)
0Loc    Object Code    Addr1 Addr2  Stmt Lv Lineno    Source Statement           (Hibal 5, Asmedit 3.3)  HLASM R4.0  2004/03/15 12.35
+___    ______ ____    _____ _____  ____ __ ______    ______ _________
0                                  16134
 0011AE 9620 A066      00066       16135              POPER    SET   PIBFOP
 0011B2 07FE                       16142                       SCRTN (R15)
                                   16148
 0011B4 9660 A067      00067       16149              PDUMMY   SET   PIBFDUM+PIBFDET
 0011B8 07FE                       16159                       SCRTN (R15)
                                   16165
 0011BA 94BF A067      00067       16166              PATTACH  CLEAR PIBFDET
 0011BE 07FE                       16174                       SCRTN (R15)
                                   16180
 0011C0 9640 A067      00067       16181              PDETACH  SET   PIBFDET
 0011C4 07FE                       16188                       SCRTN (R15)
                                   16194
 0011C6 D200 A026 1000 00026 00000 16195              PSMFTYPE MVC   PIBTETYP,@R1        Save SMF connection type char
 0011CC 07FE                       16196                       SCRTN (R15)
                                   16202
 0011CE 50E0 D044/90FB_      00044 16203              PDFSYS   PROC  (R15,LSR)
 USING  *,R8
 0011E8 D207 A010 C141 00010 00141 16239                       MVC   PIBDFSYS,CVBLANKS
 0011EE 5900 826C/47D0_      01444 16240                       CEIL  R0,L'PIBDFSYS
 0011FA 18F0                       16259                       LR    R15,R0
 0011FC 06F0/12FF/4740_            16260                       MOVE  R15,PIBDFSYS,@R1
 001208 41D0 D03C/98FB_      0003C 16298                       PEND
 DROP   *,R8
                                   16318
 00121C 50E0 D044/90FB_      00044 16319              PTID     PROC  (R15,LSR)
 USING  *,R8
 001236 9640 A066      00066       16355                       SET   PIBFPTID            Terminal id is pre-assigned
 00123A D207 A019 C141 00019 00141 16361                       MVC   PIBTID,CVBLANKS
 001240 5900 8222/47D0_      01448 16362                       CEIL  R0,L'PIBTID
 00124C 18F0                       16381                       LR    R15,R0
 00124E 06F0/12FF/4740_            16382                       MOVE  R15,PIBTID,@R1
 00125A 41D0 D03C/98FB_      0003C 16420                       PEND
 DROP   *,R8
                                   16440
 00126E 50E0 D044/90FB_      00044 16441              PLOC     PROC (R15,LSR)
 USING  *,R8
 001288 D213 A050 C141 00050 00141 16477                       MVC   PIBLOC,CVBLANKS
 00128E 58E0 81D4/0DEE       0144C 16478                       VCALL DEQUOTE
 001294 5900 81D8/47D0_      01450 16482                       CEIL  R0,L'PIBLOC
 0012A0 18F0                       16501                       LR    R15,R0
 0012A2 06F0/12FF/4740_            16502                       MOVE  R15,PIBLOC,@R1
 0012AE 41D0 D03C/98FB_      0003C 16540                       PEND
 DROP   *,R8
                                   16560
 0012C2 50E0 D044/90FB_      00044 16561              PCHK     PROC (R15,LSR)
 USING  *,R8
 0012DC 58E0 8180/0DEE       0144C 16597                       VCALL DEQUOTE
 0012E2 47B0 8022/4DE0_      012EE 16601                       IF    NEG,'LCALL INITSKIP; EXIT PCHK'  not quoted
 0012EE D213 A03C C141 0003C 00141 16622                       MVC   PIBINFO,CVBLANKS
 0012F4 18F0                       16623                       LR    R15,R0
 0012F6 59F0 8188/47D0_      01454 16624                       CEIL  R15,L'PIBINFO
 001302 06F0/12FF/4740_            16643                       MOVE  R15,PIBINFO,@R1
 00130E 41D0 D03C/98FB_      0003C 16681                       PEND
1MAIN     (MAIN2047) (12:35) (15MAR04) Initialization                                                                       Page   50
0Current Usings:  (PIB,R10) (FEB,R11) (CV,R12)
0Loc    Object Code    Addr1 Addr2  Stmt Lv Lineno    Source Statement           (Hibal 5, Asmedit 3.3)  HLASM R4.0  2004/03/15 12.35
+___    ______ ____    _____ _____  ____ __ ______    ______ _________
0DROP   *,R8
                                   16701
 001322 50E0 D044/90FB_      00044 16702              PSES     PROC  (R15,LSR)
 USING  *,R8
 00133C 5900 812C/4770_      01458 16738                       IF    ((R0,NE,6),OR,(@R1,EQ,'.')),'LCALL INITSKIP; EXIT PSES'
 001354 D202 A021 1003 00021 00003 16780                       MVC   PIBDFACT(3),@R1+3   Uuu
 00135A D201 A024 1000 00024 00000 16781                       MVC   PIBDFACT+3(2),@R1   Gg
 001360 41D0 D03C/98FB_      0003C 16782                       PEND
 DROP   *,R8
                                   16802
 DROP   PIB,R10                    16803                       DROP  PIB,FEB
 DROP   FEB,R11
                                   16818
                                   16819                       QLTORG
1MAIN     (MAIN2047) (12:35) (15MAR04) Initialization                                                                       Page   51
0Current Usings:  (CV,R12)
0Loc    Object Code    Addr1 Addr2  Stmt Lv Lineno    Source Statement           (Hibal 5, Asmedit 3.3)  HLASM R4.0  2004/03/15 12.35
+___    ______ ____    _____ _____  ____ __ ______    ______ _________
0                                  16894              ¿þþþþþþþþþþþþþþþþþþþþþþþþþþþþþþþþþþþþþþþþþþþþþþþþþþþþþþþþþþþþþþþþþþþþþÜ
                                   16895              Ÿ                                                                     Ÿ
                                   16896              Ÿ        Error messages.                                              Ÿ
                                   16897              Ÿ                                                                     Ÿ
                                                      ¾þþþþþþþþþþþþþþþþþþþþþþþþþþþþþþþþþþþþþþþþþþþþþþþþþþþþþþþþþþþþþþþþþþþþþ»
000157E 50E0 D044/90FB_      00044 16898              INITSKIP PROC  (R15,LSR)
 USING  *,R8
 001598 4110 C5B8/4100_      005B8 16934                       SEGT  CVSCNKW
 0015AA 4110 843A/4100_      019C2 16962                       SEG  ': ignored'
 0015BC D503 8410 82DC_01998 01864 16979                       IF    (LINENO,NE,-1),BEGIN
 0015C6 4110 842E/4100_      019B6 16997  1                      SEGB  ', line'
 0015D8 58F0 82DC/4100_      01864 17015  1                      BTR   CVWORK,(0,3),L:LINENO
 0015EA 18F1                       17038  1                      LR    R15,R1
 0015EC 1AF0                       17039  1                      AR    R15,R0
 0015EE 06F0                       17040  1                      DECR  R15
 0015F0 95F0 F000/4770_00000       17042  1                      WHILE (@R15,EQ,'0'),'MVI @R15,C" "; DECR R15'
 001602 41F0 C5D4/58E0_      005D4 17069  1                      SEGT  (R1),(R0)
 00160C                            17093                       END
 00160C 1B00/41F0 C5D4_            17097                       SEGWR
 001618 41D0 D03C/98FB_      0003C 17121                       PEND
 DROP   *,R8
1MAIN     (MAIN2047) (12:35) (15MAR04) Initialization                                                                       Page   52
0Current Usings:  (CV,R12)
0Loc    Object Code    Addr1 Addr2  Stmt Lv Lineno    Source Statement           (Hibal 5, Asmedit 3.3)  HLASM R4.0  2004/03/15 12.35
+___    ______ ____    _____ _____  ____ __ ______    ______ _________
0                                  17142                       ¿þþþþþþþþþþþþþþþþþþþþþþþþþþþþþþþþþþþþþþþþþþþþþþþþþþþþþÜ
                                   17143                       Ÿ  Entered asynchronously if the WTO subtask abends.  Ÿ
                                   17144                       ¾þþþþþþþþþþþþþþþþþþþþþþþþþþþþþþþþþþþþþþþþþþþþþþþþþþþþþ»
 00162C 4110 0002/4100_      00002 17145              WTOFAIL  WITH  (WTOFAIL,R15),'ABEND 2,DUMP'  Curtains
 USING  WTOFAIL,R15
 DROP   WTOFAIL,R15
                                   17178                       ¿þþþþþþþþþþþþþþþþþþþþþþþþþþþþþþþþþþþþþþþþþþþþþþþþþþþþþþþþþþÜ
                                   17179                       Ÿ  Entered asynchronously if the I/O halt subtask abends.  Ÿ
                                   17180                       ¾þþþþþþþþþþþþþþþþþþþþþþþþþþþþþþþþþþþþþþþþþþþþþþþþþþþþþþþþþþ»
 00163C 4110 0003/4100_      00003 17181              IOHFAIL  WITH  (IOHFAIL,R15),'ABEND 3,DUMP'  Curtains
 USING  IOHFAIL,R15
 DROP   IOHFAIL,R15
                                   17214                       ¿þþþþþþþþþþþþþþþþþþþþþþþþþþþþþþþþþÜ
                                   17215                       Ÿ  Front-end check vector table.  Ÿ
                                   17216                       ¾þþþþþþþþþþþþþþþþþþþþþþþþþþþþþþþþþ»
 00164C 00000000                   17217              FINFE    DC    A(0)
 001650 00000000                   17218                       DC    V(CONSFIN)          FEBTCONS
                                   17219              *         DC    V(ASYNFIN)          FEBTASYN
 001654 00000000                   17220                       DC    A(0)                NO FEBTASYN
                                   17221              *         DC    V(PDPFIN)           FEBTPDP
 001658 00000000                   17222                       DC    A(0)                NO FEBTPDP
                                   17223              *         DC    V(VTAMFIN)          FEBTVTAM
 00165C 00000000                   17224                       DC    A(0)                NO FEBTVTAM - Yeah!!!
 001660 00000000                   17225                       DC    V(VIRTFIN)          FEBTVIRT
                                   17226              *         DC    V(NSCFIN)           FEBTNSC
 001664 00000000                   17227                       DC    A(0)                NO FEBTNSC
 001668 00000000                   17228                       DC    V(ELFFIN)           FEBTELF
                                   17229              *         DC    V(ALFFIN)           FEBTALF
 00166C 00000000                   17230                       DC    A(0)                NO FEBTALF
                                   17231              *         DC    V(ECUFIN)           FEBTECU
 001670 00000000                   17232                       DC    A(0)                NO FEBTECU
                                   17233              FINFEMAX EQU   (*-FINFE-4)/4,,C'N'
 001674                            17234                       DS    0S(FINFEMAX-FEBTMAX,FEBTMAX-FINFEMAX)
1MAIN     (MAIN2047) (12:35) (15MAR04) Initialization                                                                       Page   53
0Current Usings:  (CV,R12)
0Loc    Object Code    Addr1 Addr2  Stmt Lv Lineno    Source Statement           (Hibal 5, Asmedit 3.3)  HLASM R4.0  2004/03/15 12.35
+___    ______ ____    _____ _____  ____ __ ______    ______ _________
0                                  17236              ¿þþþþþþþþþþþþþþþþþþþþþþþþþþþþþþþþþþþþþþþþþþþþþþþþþþþþþþþþþþþþþþþþþþþþþÜ
                                   17237              Ÿ                                                                     Ÿ
                                   17238              Ÿ  GETSIN -- Routine to get the next line from SYSIN.                 Ÿ
                                   17239              Ÿ                                                                     Ÿ
                                   17240              Ÿ    On exit, R15 (and cc):                                           Ÿ
                                   17241              Ÿ      0 - ok; R1,R0 - line loc, len                                  Ÿ
                                   17242              Ÿ      4 - end of file                                                Ÿ
                                   17243              Ÿ                                                                     Ÿ
                                                      ¾þþþþþþþþþþþþþþþþþþþþþþþþþþþþþþþþþþþþþþþþþþþþþþþþþþþþþþþþþþþþþþþþþþþþþ»
0001674 50E0 D044/902B_      00044 17244              GETSIN   XPROC
 USING  *,R8
 00168E 9824 CB3C            00B3C 17282                       LM    R2,R4,INPTRS        Get buffer ptrs
 USING  DCB,R4                     17283                       WITH  (DCB,R4)
                                   17296
 001692 9110 81B6/47E0_01834       17297                       IF    ~SYSINDCB+(DCBOFLGS-DCB).DCBOFOPN,INEND  Not open
                                   17316                       ¿þþþþþþþþþþþþþþþþþþþþþþþþþþþþþþþþþþþþþþþþþþþþþþþþþþþþþþþþþþÜ
                                   17317                       Ÿ  Return the same line again if the "unget" flag is set.  Ÿ
                                   17318                       ¾þþþþþþþþþþþþþþþþþþþþþþþþþþþþþþþþþþþþþþþþþþþþþþþþþþþþþþþþþþ»
 00169A 9500 82D7/4780_01955       17319                       IF    (UNGETFLG,NZ),BEGIN  Return the same line again...
 0016A2 D700 82D7 82D7 01955 01955 17335  1                      CLEAR UNGETFLG            Reset unget flag
 0016A8 4110 81EC/4800_      0186A 17342  1                      SETMSG LINE,LH:LINELEN     Line text
 0016B0 1BFF                       17355  1                      CLEAR R15                 A-ok
 0016B2 47F0 813E            017BC 17359  1                      EXIT  GETSIN
 0016B6                            17362                       END
                                   17366
 0016B6 1222/4720 8070             17367              GSINLP   IF    (R2,NP),BEGIN       Get next buffer...
 0016BC 4110 8186/1FFF_      01804 17382  1                      GET   SYSINDCB            Get next buffer/record
 0016C8 1831                       17388  1                      LR    R3,R1
 0016CA 91C0 4024/47E0_00024       17389  1                      IF    DCBRECFM.DCBRECU,BEGIN  WYLBUR edit format...
 0016D2 4820 1000            00000 17405  2                        LH    R2,@R1              Record length
 0016D6 4920 4052/47D0_      00052 17406  2                        CEIL  R2,DCBLRECL         Keep us honest
 0016E2 4B20 8340            019BE 17412  2                        SH    R2,=H'2'            Don't include record len hw
 0016E6 47D0 8038            016B6 17413  2                        BNP   GSINLP
 0016EA 4130 3002            00002 17414  2                        LA    R3,@R3+2
 0016EE                            17415  1                      END
 0016EE                            17419                       END
                                   17423
 0016EE 91C0 4024/47E0_00024       17424                       IF    DCBRECFM.DCBRECU,BEGIN  Unpress line...
 0016F6 18F3                       17440  1                      LR    R15,R3              Pressed line ptr
 0016F8 4110 81EC            0186A 17441  1                      LA    R1,LINE
 0016FC 58E0 832A/0DEE       019A8 17442  1                      ACALL UNPRESS             Unpress line
 001702 50F0 81E6            01864 17446  1                      ST    R15,LINENO          Save WYLBUR lineno
 001706 1FFF/43F0 3004             17447  1                      LC    R15,@R3+4           Len byte
 00170C 41F0 F005            00005 17454  1                      LA    R15,@R15+5          Total pressed line len
 001710 1A3F                       17455  1                      AR    R3,R15
 001712 1B2F                       17456  1                      SR    R2,R15
 001714                            17457                       END
                                   17461
 001714 809A/47F0 80D0 01714 016F4 17462                       ELSE  BEGIN               Fixed or variable...
 001718 4800 4052            00052 17473  1                      LH    R0,DCBLRECL
 00171C 5900 832E/4770_      019AC 17474  1                      IF    ((R0,EQ,80),AND,(@R3+76,EQ,'.')),'LA R0,72' no lineno
 001730 5900 8332/47D0_      019B0 17512  1                      CEIL  R0,L'LINE
 00173C 18F0                       17531  1                      LR    R15,R0
1MAIN     (MAIN2047) (12:35) (15MAR04) Initialization                                                                       Page   54
0Current Usings:  (DCB,R4) (*,R8) (CV,R12)
0Loc    Object Code    Addr1 Addr2  Stmt Lv Lineno    Source Statement           (Hibal 5, Asmedit 3.3)  HLASM R4.0  2004/03/15 12.35
+___    ______ ____    _____ _____  ____ __ ______    ______ _________
000173E 06F0/12FF/4740_            17532  1                      MOVE  R15,LINE,@R3
 00174A 4110 81EC            0186A 17570  1                      SETMSG LINE,(R0)
 00174E                            17583                       END
                                   17587
 00174E 9024 CB3C            00B3C 17588                       STM   R2,R4,INPTRS        Save buffer ptrs
 001752 4000 81EA            01868 17589                       STH   R0,LINELEN          Save line length
 001756 1BFF                       17590                       CLEAR R15                 Good RC
 001758 47F0 813E            017BC 17594                       EXIT
                                   17597                       ¿þþþþþþþþþþþþþþþþþþþþþþþþþÜ
                                   17598                       Ÿ  End of file on SYSIN.  Ÿ
                                   17599                       ¾þþþþþþþþþþþþþþþþþþþþþþþþþ»
 00175C 4510 80E6/80/0_      01764 17600              INEOF    CLOSE (SYSINDCB)
 001766 4110 8186/9101_      01804 17606                       FREEPOOL SYSINDCB
 0017B4 1B00/1B11                  17632              INEND    CLEAR R0,R1               No text ptrs
 0017B8 41F0 0004            00004 17639                       LA    R15,4               Return end of file
 0017BC 41D0 D030/982B_      00030 17640                       PEND
 DROP   DCB,R4
 DROP   *,R8
1MAIN     (MAIN2047) (12:35) (15MAR04) Initialization                                                                       Page   55
0Current Usings:  (CV,R12)
0Loc    Object Code    Addr1 Addr2  Stmt Lv Lineno    Source Statement           (Hibal 5, Asmedit 3.3)  HLASM R4.0  2004/03/15 12.35
+___    ______ ____    _____ _____  ____ __ ______    ______ _________
0                                  17666              ¿þþþþþþþþþþþþþþþþþþþþþþþþþþþþþþþþþþþþþþþþþþþþþþþþþþþþþþþþþþþþþþþþþþþþþÜ
                                   17667              Ÿ                                                                     Ÿ
                                   17668              Ÿ  UNGETSIN -- Routine to put the last line returned by GETSIN        Ÿ
                                   17669              Ÿ    back in the input queue.  This allows a routine to               Ÿ
                                   17670              Ÿ    call GETSIN to look at the next SYSIN line and then call         Ÿ
                                   17671              Ÿ    UNGETSIN if the line is not for that routine.                    Ÿ
                                   17672              Ÿ                                                                     Ÿ
                                                      ¾þþþþþþþþþþþþþþþþþþþþþþþþþþþþþþþþþþþþþþþþþþþþþþþþþþþþþþþþþþþþþþþþþþþþþ»
00017D0 50E0 D044/902B_      00044 17673              UNGETSIN XPROC
 USING  *,R8
 0017EA 92FF 817B      01955       17711                       MVI   UNGETFLG,X'FF'      Return the last line again
 0017EE 41D0 D030/982B_      00030 17712                       PEND
 DROP   *,R8
1MAIN     (MAIN2047) (12:35) (15MAR04) Initialization                                                                       Page   56
0Current Usings:  (CV,R12)
0Loc    Object Code    Addr1 Addr2  Stmt Lv Lineno    Source Statement           (Hibal 5, Asmedit 3.3)  HLASM R4.0  2004/03/15 12.35
+___    ______ ____    _____ _____  ____ __ ______    ______ _________
0                                  17733                       ¿þþþþþþþþþþþþþþÜ
                                   17734                       Ÿ  SYSIN DCB.  Ÿ
                                   17735                       ¾þþþþþþþþþþþþþþ»
 001802 0000/000000000_            17736              SYSINDCB DCB   DDNAME=PORTS,DSORG=PS,MACRF=GL,EXLST=INEX,EODAD=INEOF
                                   17778              SYSDDNAM EQU   SYSINDCB+DCBDDNAM-DCB,8,C'C'
                                   17779
 001864 FFFFFFFF                   17780              LINENO   DC    F'-1'               WYLBUR lineno
 001868 0000                       17781              LINELEN  DC    H'0'                Line length
 00186A 4040404040404040           17782              LINE     DC    CL(&LINESZ)' '      Saved line area
 001955 00                         17783              UNGETFLG DC    X'00'               Non-zero if "unget" is pending
                                   17784
 001956 0000
 001958 8500195C                   17785              INEX     DC    0F'0',X'85',AL3(SYSINOP)
                                   17786
1MAIN     (MAIN2047) (12:35) (15MAR04) Initialization                                                                       Page   57
0Current Usings:  (CV,R12)
0Loc    Object Code    Addr1 Addr2  Stmt Lv Lineno    Source Statement           (Hibal 5, Asmedit 3.3)  HLASM R4.0  2004/03/15 12.35
+___    ______ ____    _____ _____  ____ __ ______    ______ _________
0                                  17788              ¿þþþþþþþþþþþþþþþþþþþþþþþþþþþþþþþþþþþþþþþþþþþþþþþþþþþþþþþþþþþþþþþþþþþþþÜ
                                   17789              Ÿ                                                                     Ÿ
                                   17790              Ÿ  SYSINOP -- OS open exit routine for SYSIN ddcard.                  Ÿ
                                   17791              Ÿ                                                                     Ÿ
                                   17792              Ÿ    On entry:                                                        Ÿ
                                   17793              Ÿ      R1 - DCB ptr                                                   Ÿ
                                   17794              Ÿ      R15- base                                                      Ÿ
                                   17795              Ÿ                                                                     Ÿ
                                                      ¾þþþþþþþþþþþþþþþþþþþþþþþþþþþþþþþþþþþþþþþþþþþþþþþþþþþþþþþþþþþþþþþþþþþþþ»
000195C                            17796              SYSINOP  LABEL
 USING  DCB,R1                     17798                       WITH  (DCB,R1),(*,R15),BEGIN
 USING  *,R15
 00195C 9608 1030      00030       17823  1                      SET   DCBOFLGS.DCBOFPPC   Allow concat of unlike attributes
 001960 9500 1014/4770_00014       17830  1                      IF    (DCBBUFNO,Z),'MVI DCBBUFNO,2'  bufno=2 default
 00196C D601 103E 103E_0003E 0003E 17852  1                      IF    (DCBBLKSI,Z),BEGIN  No blksize...
 001976 D201 103E 1052 0003E 00052 17868  2                        MVC   DCBBLKSI,DCBLRECL   Blksize = lrecl
 00197C D601 103E 103E_0003E 0003E 17869  2                        IF    (DCBBLKSI,Z),'MVC DCBBLKSI,=AL2(&BUFRSZ)'  Default
 00198C                            17891  1                      END
 00198C 07FE                       17895  1                      BR    RAR
 DROP   *,R15                      17896                       END
 DROP   DCB,R1
                                   17909
                                   17910                       QLTORG
1MAIN     (MAIN2047) (12:35) (15MAR04) Final initialization                                                                 Page   58
0Current Usings:  (CV,R12)
0Loc    Object Code    Addr1 Addr2  Stmt Lv Lineno    Source Statement           (Hibal 5, Asmedit 3.3)  HLASM R4.0  2004/03/15 12.35
+___    ______ ____    _____ _____  ____ __ ______    ______ _________
0                                  17938              ¿þþþþþþþþþþþþþþþþþþþþþþþþþþþþþþþþþþþþþþþþþþþþþþþþþþþþþþþþþþþþþþþþþþþþþÜ
                                   17939              Ÿ                                                                     Ÿ
                                   17940              Ÿ  FININIT -- Do final initialization.                                Ÿ
                                   17941              Ÿ                                                                     Ÿ
                                                      ¾þþþþþþþþþþþþþþþþþþþþþþþþþþþþþþþþþþþþþþþþþþþþþþþþþþþþþþþþþþþþþþþþþþþþþ»
00019D2 50E0 D044/902B_      00044 17942              FININIT  PROC
 USING  *,R8
 0019EC 58E0 8094/0DEE       01A70 17978                       VCALL SESTIMER            Set up session timeout timer
                                   17982
 0019F2 58E0 8098/0DEE       01A74 17983                       ACALL TERMCNT             Init active user count
 0019F8 58E0 809C/0DEE       01A78 17987                       VCALL LOCALTOD            Save starting time
 0019FE 5000 C518            00518 17991                       ST    R0,CVMCLCK          (High word only)
                                   17992
 001A02 58E0 80A0/0DEE       01A7C 17993                       VCALL SERVINIT            Initialize milserv SVC interface
                                   17997
 001A08 9180 C13C/4710_0013C       17998                       IF    ~CVFTEST,BEGIN      Production version...
 001A10 5870 0010            00010 18013  1                      L     R7,CVTPTR
 USING  CVT,R7                     18014  1                      WITH  (CVT,R7)
 001A14 5860 70CC/1266       000CC 18027  1                      LT    R6,CVTUSER          SCIP CVT ptr
 001A1A 4780 807C            01A58 18031  1                      IF    Z,EXIT              None, scram
 USING  USERCVT,R6                 18045  1                      WITH  (USERCVT,R6)
 001A1E D503 80A4 6000_01A80 00000 18058  1                      IF    (USERCVT,NE,'SCIP'),EXIT  not ours, scram
 001A28 58E0 80A8/0DEE       01A84 18078  1                      ACALL KEYZERO             ********
 001A2E 9680 6004      00004       18082  1                      SET   USEHSPFL.HSPFMIL    MILTEN is up
 001A32 D203 604C C050 0004C 00050 18089  1                      MVC   USEMASCB,CVASCBP    Set MILTEN ASCB ptr
 001A38 D703 6050 6050 00050 00050 18090  1                      CLEAR USEMGINP            No "global info table" (future)
 001A3E D207 606C C4C0 0006C 004C0 18097  1                      MVC   USEMILNM,CVMJOBNM   Set MILTEN jobname (used by JES)
 001A44 D203 6054 C068 00054 00068 18098  1                      MVC   USEMSITP,CVSITP     Set session info table ptr
 001A4A 48F0 C390            00390 18099  1                      LH    R15,CVMAXSES        Maximum number of sessions
 001A4E 50F0 6058            00058 18100  1                      ST    R15,USEMNSIN        This is how many entries we have
 001A52 58E0 80AC/0DEE       01A88 18101  1                      ACALL KEYNZERO            ********
 DROP   USERCVT,R6                 18105                       END
 DROP   CVT,R7
 001A58 41D0 D030/982B_      00030 18119                       PEND
 DROP   *,R8
                                   18139                       QLTORG
1MAIN     (MAIN2047) (12:35) (15MAR04) Subroutines                                                                          Page   59
0Current Usings:  (CV,R12)
0Loc    Object Code    Addr1 Addr2  Stmt Lv Lineno    Source Statement           (Hibal 5, Asmedit 3.3)  HLASM R4.0  2004/03/15 12.35
+___    ______ ____    _____ _____  ____ __ ______    ______ _________
0                                  18160              ¿þþþþþþþþþþþþþþþþþþþþþþþþþþþþþþþþþþþþþþþþþþþþþþþþþþþþþþþþþþþþþþþþþþþþþÜ
                                   18161              Ÿ                                                                     Ÿ
                                   18162              Ÿ  INCRSES -- Routine to increment active user count.                 Ÿ
                                   18163              Ÿ                                                                     Ÿ
                                   18164              Ÿ    On entry:                                                        Ÿ
                                   18165              Ÿ      R1 - SCB ptr (for session just logging on)                     Ÿ
                                   18166              Ÿ                                                                     Ÿ
                                                      ¾þþþþþþþþþþþþþþþþþþþþþþþþþþþþþþþþþþþþþþþþþþþþþþþþþþþþþþþþþþþþþþþþþþþþþ»
0001A8E 50E0 D044/902B_      00044 18167              INCRSES  XPROC
 USING  *,R8
 001AA8 1891                       18205                       LR    SCBR,R1
 USING  SCB,R9                     18206                       WITH  SCB
 001AAA D502 80BA 9000_01B52 00000 18218                       FAIL  (SCB,NE,'SCB'),'Bad SCB ptr'
                                   18244
 001AC2 58A0 9008/12AA       00008 18245                       LT    PIBR,SCBPIBP
 001AC8 4780 806E            01B06 18249                       IF    NZ,BEGIN
 USING  PIB,R10                    18260  1                      WITH  PIB
 001ACC 58B0 A008            00008 18272  1                      L     FEBR,PIBFEBP
 USING  FEB,R11                    18273  1                      WITH  FEB
 001AD0 41F0 0001/5EF0_      00001 18285  1                      INCR  R15,PIBNSES
 001ADC 41F0 0001/5EF0_      00001 18291  1                      INCR  R15,FEBNSES
                                   18297  1
 001AE8 41F0 0001/4AF0_      00001 18298  1                      INCR  R15,FEBSCUR
 001AF4 49F0 B082/4750_      00082 18304  1                      IF    (R15,GE,FEBSMAX),BEGIN
 001AFC 40F0 B082            00082 18321  2                        STH   R15,FEBSMAX
 001B00 D207 B084 911C 00084 0011C 18322  2                        MVC   FEBSMCLK,SCBLCLCK
 001B06                            18323  1                      END
 DROP   FEB,R11                    18327                       END
 DROP   PIB,R10
                                   18341
 001B06 41F0 0001/5EF0_      00001 18342                       INCR  R15,CVMTLSES        Count total no. of sessions
                                   18348
 001B12 9120 912B/4710_0012B       18349                       IF    ~SCBSFPS,BEGIN      Only count real users...
 001B1A 41F0 0001/4AF0_      00001 18364  1                      INCR  R15,CVMCRSES
 001B26 49F0 C52E/4750_      0052E 18370  1                      IF    (R15,GE,CVMMXSES),BEGIN  Max so far...
 001B2E 40F0 C52E            0052E 18387  2                        STH   R15,CVMMXSES
 001B32 D203 C530 911C 00530 0011C 18388  2                        MVC   CVMCKSES,SCBLCLCK   Clock at max
 001B38                            18389  1                      END
 001B38 4DE0 8146            01BDE 18393  1                      LCALL TERMCNT             Update count
 001B3C                            18395                       END
 001B3C 41D0 D030/982B_      00030 18399                       PEND
 DROP   SCB,R9
 DROP   *,R8
                                   18424                       QLTORG
1MAIN     (MAIN2047) (12:35) (15MAR04) Subroutines                                                                          Page   60
0Current Usings:  (CV,R12)
0Loc    Object Code    Addr1 Addr2  Stmt Lv Lineno    Source Statement           (Hibal 5, Asmedit 3.3)  HLASM R4.0  2004/03/15 12.35
+___    ______ ____    _____ _____  ____ __ ______    ______ _________
0                                  18439              ¿þþþþþþþþþþþþþþþþþþþþþþþþþþþþþþþþþþþþþþþþþþþþþþþþþþþþþþþþþþþþþþþþþþþþþÜ
                                   18440              Ÿ                                                                     Ÿ
                                   18441              Ÿ  DECRSES -- Routine to decrement active user count.                 Ÿ
                                   18442              Ÿ                                                                     Ÿ
                                   18443              Ÿ    On entry:                                                        Ÿ
                                   18444              Ÿ      R1 - SCB ptr (for session just logging off)                    Ÿ
                                   18445              Ÿ                                                                     Ÿ
                                                      ¾þþþþþþþþþþþþþþþþþþþþþþþþþþþþþþþþþþþþþþþþþþþþþþþþþþþþþþþþþþþþþþþþþþþþþ»
0001B56 50E0 D044/902B_      00044 18446              DECRSES  XPROC
 USING  *,R8
 001B70 1891                       18484                       LR    SCBR,R1
 USING  SCB,R9                     18485                       WITH  SCB
 001B72 D502 807A 9000_01BDA 00000 18497                       FAIL  (SCB,NE,'SCB'),'Bad SCB ptr'
                                   18523
 001B8A D604 9124 9124_00124 00124 18524                       IF    (SCBACCT,Z),EXIT    Ignore if no account
 001B94 58A0 9008/12AA       00008 18543                       LT    PIBR,SCBPIBP
 001B9A 4780 804C            01BAC 18547                       IF    NZ,BEGIN
 USING  PIB,R10                    18558  1                      WITH  PIB
 001B9E 58B0 A008            00008 18570  1                      L     FEBR,PIBFEBP
 USING  FEB,R11                    18571  1                      WITH  FEB
 001BA2 48F0 B080/06F0_      00080 18583  1                      DECR  R15,FEBSCUR
 DROP   FEB,R11                    18588                       END
 DROP   PIB,R10
                                   18602
 001BAC 9120 912B/4710_0012B       18603                       IF    SCBSFPS,EXIT
 001BB4 48F0 C52C/06F0_      0052C 18621                       DECR  R15,CVMCRSES        Decr user count
 001BBE 4DE0 807E            01BDE 18626                       LCALL TERMCNT             Update count
 001BC2 41D0 D030/982B_      00030 18628                       PEND
 DROP   SCB,R9
 DROP   *,R8
                                   18653                       QLTORG
1MAIN     (MAIN2047) (12:35) (15MAR04) Subroutines                                                                          Page   61
0Current Usings:  (CV,R12)
0Loc    Object Code    Addr1 Addr2  Stmt Lv Lineno    Source Statement           (Hibal 5, Asmedit 3.3)  HLASM R4.0  2004/03/15 12.35
+___    ______ ____    _____ _____  ____ __ ______    ______ _________
0                                  18668              ¿þþþþþþþþþþþþþþþþþþþþþþþþþþþþþþþþþþþþþþþþþþþþþþþþþþþþþþþþþþþþþþþþþþþþþÜ
                                   18669              Ÿ                                                                     Ÿ
                                   18670              Ÿ  TERMCNT -- Local routine to update the active user count in        Ÿ
                                   18671              Ÿ    the SCIP (User) CVT.  CVMCRSES has the current count.            Ÿ
                                   18672              Ÿ                                                                     Ÿ
                                                      ¾þþþþþþþþþþþþþþþþþþþþþþþþþþþþþþþþþþþþþþþþþþþþþþþþþþþþþþþþþþþþþþþþþþþþþ»
0001BDE 50E0 D044/902B_      00044 18673              TERMCNT  PROC
 USING  *,R8
 001BF8 9180 C13C/4710_0013C       18709                       IF    CVFTEST,EXIT        Only if prod. MILTEN
                                   18727
 001C00 5870 0010            00010 18728                       L     R7,CVTPTR
 USING  CVT,R7                     18729                       WITH  (CVT,R7)
 001C04 5860 70CC/1266       000CC 18742                       LT    R6,CVTUSER
 001C0A 4780 8042            01C2A 18746                       IF    Z,EXIT              No user CVT, scram
 USING  USERCVT,R6                 18760                       WITH  (USERCVT,R6)
 001C0E D503 8058 6000_01C40 00000 18773                       IF    (USERCVT,NE,'SCIP'),EXIT  Not ours, scram
                                   18793
 001C18 58E0 805C/0DEE       01C44 18794                       ACALL KEYZERO             ********
 001C1E D201 600C C52C 0000C 0052C 18798                       MVC   USEMILCT,CVMCRSES   Update current session count
 001C24 58E0 8060/0DEE       01C48 18799                       ACALL KEYNZERO            ********
 001C2A 41D0 D030/982B_      00030 18803                       PEND
 DROP   USERCVT,R6
 DROP   CVT,R7
 DROP   *,R8
                                   18833                       QLTORG
1MAIN     (MAIN2047) (12:35) (15MAR04) Subroutines                                                                          Page   62
0Current Usings:  (CV,R12)
0Loc    Object Code    Addr1 Addr2  Stmt Lv Lineno    Source Statement           (Hibal 5, Asmedit 3.3)  HLASM R4.0  2004/03/15 12.35
+___    ______ ____    _____ _____  ____ __ ______    ______ _________
0                                  18850              ¿þþþþþþþþþþþþþþþþþþþþþþþþþþþþþþþþþþþþþþþþþþþþþþþþþþþþþþþþþþþþþþþþþþþþþÜ
                                   18851              Ÿ                                                                     Ÿ
                                   18852              Ÿ  GETTRC -- Routine to get trace table.                              Ÿ
                                   18853              Ÿ                                                                     Ÿ
                                   18854              Ÿ    On entry:                                                        Ÿ
                                   18855              Ÿ      R0 - length of trace table entry                               Ÿ
                                   18856              Ÿ      R1 - no. of entries                                            Ÿ
                                   18857              Ÿ      R15- trace ptrs (-> len,cur,first,end)                         Ÿ
                                   18858              Ÿ                                                                     Ÿ
                                   18859              Ÿ    On exit:                                                         Ÿ
                                   18860              Ÿ      R1,R0 - trace table start, total len                           Ÿ
                                   18861              Ÿ                                                                     Ÿ
                                                      ¾þþþþþþþþþþþþþþþþþþþþþþþþþþþþþþþþþþþþþþþþþþþþþþþþþþþþþþþþþþþþþþþþþþþþþ»
0001C4E 50E0 D044/902B_      00044 18862              GETTRC   XPROC
 USING  *,R8
 001C68 187F                       18900                       LR    R7,R15
 001C6A 4A00 806A            01CC2 18901                       AH    R0,=H'7'
 001C6E 5400 8060            01CB8 18902                       N     R0,=F'-8'           Doubleword boundry
 001C72 5000 7000            00000 18903                       ST    R0,@R7              Save entry len
 001C76 18F0                       18904                       LR    R15,R0
 001C78 1C0F                       18905                       MR    R0,R15              Len of table in r1
 001C7A 1851                       18906                       LR    R5,R1               Save len
 001C7C 1801                       18907                       LR    R0,R1
 001C7E 4110 000E            0000E 18908                       LA    R1,TRCSUBPL
 001C82 182E                       18909                       LR    R2,RAR
 001C84 58E0 8064/0DEE       01CBC 18910                       VCALL NGETCORE
 001C8A 1861                       18914                       LR    R6,R1               Save starting loc
 001C8C 1801                       18915                       LR    R0,R1               R0 & r1 = start
 001C8E 4125 1000            00000 18916                       LA    R2,@R1(R5)          R2 = end
 001C92 9002 7004            00004 18917                       STM   R0,R2,@R7+4         Save ptrs
 001C96 1815                       18918                       LR    R1,R5               Len
 001C98 1B33                       18919                       CLEAR R3
 001C9A 0E02                       18923                       MVCL  R0,R2               Zero trace table
 001C9C 1816/1805                  18924                       SETMSG (R6),(R5)
 001CA0 41D0 D030/982B_      00030 18936                       PEND
 DROP   *,R8
                                   18956                       QLTORG
1MAIN     (MAIN2047) (12:35) (15MAR04) Subroutines                                                                          Page   63
0Current Usings:  (CV,R12)
0Loc    Object Code    Addr1 Addr2  Stmt Lv Lineno    Source Statement           (Hibal 5, Asmedit 3.3)  HLASM R4.0  2004/03/15 12.35
+___    ______ ____    _____ _____  ____ __ ______    ______ _________
0                                  18973              ¿þþþþþþþþþþþþþþþþþþþþþþþþþþþþþþþþþþþþþþþþþþþþþþþþþþþþþþþþþþþþþþþþþþþþþÜ
                                   18974              Ÿ                                                                     Ÿ
                                   18975              Ÿ  FREETRC -- Routine to free trace table.                            Ÿ
                                   18976              Ÿ                                                                     Ÿ
                                   18977              Ÿ    On entry:                                                        Ÿ
                                   18978              Ÿ      R15 - trace ptrs (-> len,cur,first,end)                        Ÿ
                                   18979              Ÿ                                                                     Ÿ
                                                      ¾þþþþþþþþþþþþþþþþþþþþþþþþþþþþþþþþþþþþþþþþþþþþþþþþþþþþþþþþþþþþþþþþþþþþþ»
0001CC4 50E0 D044/902B_      00044 18980              FREETRC  XPROC
 USING  *,R8
 001CDE 5810 F008            00008 19018                       L     R1,@R15+8           Start
 001CE2 D70F F000 F000 00000 00000 19019                       CLEAR (@R15,16)           Reset
 001CE8 58E0 803A/0DEE       01D08 19026                       VCALL FREECORE
 001CEE 41D0 D030/982B_      00030 19030                       PEND
 DROP   *,R8
                                   19050                       QLTORG
1MAIN     (MAIN2047) (12:35) (15MAR04) Subroutines                                                                          Page   64
0Current Usings:  (CV,R12)
0Loc    Object Code    Addr1 Addr2  Stmt Lv Lineno    Source Statement           (Hibal 5, Asmedit 3.3)  HLASM R4.0  2004/03/15 12.35
+___    ______ ____    _____ _____  ____ __ ______    ______ _________
0                                  19065              ¿þþþþþþþþþþþþþþþþþþþþþþþþþþþþþþþþþþþþþþþþþþþþþþþþþþþþþþþþþþþþþþþþþþþþþÜ
                                   19066              Ÿ                                                                     Ÿ
                                   19067              Ÿ  TIMERQ -- Routine to queue timer entry.                            Ÿ
                                   19068              Ÿ                                                                     Ÿ
                                   19069              Ÿ    On entry:                                                        Ÿ
                                   19070              Ÿ      R15- timer interval in .01 sec                                 Ÿ
                                   19071              Ÿ      R0 - exit routine addr                                         Ÿ
                                   19072              Ÿ      R1 - parm ptr                                                  Ÿ
                                   19073              Ÿ                                                                     Ÿ
                                   19074              Ÿ    On exit:                                                         Ÿ
                                   19075              Ÿ      R15- timer id for dequeue (TQE addr)                           Ÿ
                                   19076              Ÿ                                                                     Ÿ
                                                      ¾þþþþþþþþþþþþþþþþþþþþþþþþþþþþþþþþþþþþþþþþþþþþþþþþþþþþþþþþþþþþþþþþþþþþþ»
0001D0E 50E0 D044/902B_      00044 19077              TIMERQ   XPROC
 USING  *,R8
 001D28 183F                       19115                       LR    R3,R15
 001D2A 5930 8108/47B0_      01E20 19116                       FLOOR R3,0
 001D36 1840                       19135                       LR    R4,R0
 001D38 1851                       19136                       LR    R5,R1
                                   19137
 001D3A 4100 001C            0001C 19138                       LA    R0,L'TQE
 001D3E 4110 000F            0000F 19139                       LA    R1,TQESUBPL
 001D42 182E                       19140                       LR    R2,RAR
 001D44 58E0 810C/0DEE       01E24 19141                       VCALL NGETCORE
 001D4A 1871                       19145                       LR    R7,R1
 USING  TQE,R7                     19146                       WITH  (TQE,R7)
 001D4C D71B 7000 7000 00000 00000 19159                       CLEAR TQE
 001D52 D203 7000 8110 00000 01E28 19166                       MVC   TQE(4),=CL4'TQE'
 001D58 5C20 8114            01E2C 19167                       M     R2,=F'40960000'     Convert to tod clock units
 001D5C B205 D000      00000       19168                       STCK  @R13
 001D60 5E30 D004/47C0_      00004 19169                       ADL   R2,@R13
 001D70 9023 700C            0000C 19190                       STM   R2,R3,TQECLCK       Tod clock at expiration
 001D74 9045 7014            00014 19191                       STM   R4,R5,TQERTN        Exit routine addr, parm ptr
                                   19192
 001D78 41F0 C338            00338 19193                       LA    R15,CVTQEQH-(TQELINK-TQE)  Dummy first entry
 001D7C 182F                       19194                       LR    R2,R15
 001D7E                            19195                       LOOP  BEGIN
 001D7E 186F                       19201  1                      LR    R6,R15              Save prev ptr
 USING  TQE,R15                    19202  1                      WITH  (TQE,R15)
 001D80 58F0 F004/12FF_      00004 19215  1                      WHILE ('LT R15,TQELINK',NZ)
 001D8A D507 F00C 700C 0000C 0000C 19232  1                      CLC   TQECLCK,TQECLCK-TQE(R7)  Add entry before this one?
 001D90 4720 8080            01D98 19233  1                      IF    GT,EXIT             Yes
 001D94 47F0 8066            01D7E 19247                       END
 DROP   TQE,R15
 001D98 5060 7008            00008 19257                       ST    R6,TQEBACK          Our back ptr
 001D9C 12FF/4780 808E_            19258                       IF    (R15,NZ),'ST R7,TQEBACK-TQE(R15)'  fix back
 001DA6 D203 7004 6004 00004 00004 19278                       MVC   TQELINK,TQELINK-TQE(R6)  our forward ptr
 001DAC 5076 0004            00004 19279                       ST    R7,TQELINK-TQE(R6)  Link up new tqe
                                   19280
 001DB0 1962/4770 80EE             19281                       IF    (R6,EQ,R2),BEGIN    Set a new timer...
 001DB6 4110 0001/0A2E       00001 19296  1                      TTIMER CANCEL
 001DBC B205 D000      00000       19300  1                      STCK  @R13
 001DC0 9823 700C            0000C 19301  1                      LM    R2,R3,TQECLCK
1MAIN     (MAIN2047) (12:35) (15MAR04) Subroutines                                                                          Page   65
0Current Usings:  (TQE,R7) (*,R8) (CV,R12)
0Loc    Object Code    Addr1 Addr2  Stmt Lv Lineno    Source Statement           (Hibal 5, Asmedit 3.3)  HLASM R4.0  2004/03/15 12.35
+___    ______ ____    _____ _____  ____ __ ______    ______ _________
0001DC4 5F30 D004/47B0_      00004 19302  1                      SDL   R2,@R13
 001DD2 5D20 8114            01E2C 19307  1                      D     R2,=F'40960000'     Convert to .01 sec
 001DD6 1222/4780 80C8_            19308  1                      IF    (R2,NZ),'INCR R3'   To next .01 sec
 001DE0 1233/4720 80D2_            19330  1                      IF    (R3,NP),'LA R3,1'
 001DEA 9640 C13D      0013D       19350  1                      SET   CVFTIMER
 001DEE 5030 C248            00248 19356  1                      ST    R3,CVWORK
 001DF2 5800 811C            01E34 19357  1                      L     R0,=A(TIMREXIT)
 001DF6 4110 C248/18F0_      00248 19358  1                      STIMER REAL,(0),BINTVL=CVWORK
 001E06                            19366                       END
                                   19370
 001E06 18F7                       19371                       LR    R15,R7              Timer id
 001E08 41D0 D030/982B_      00030 19372                       PEND
 DROP   TQE,R7
 DROP   *,R8
                                   19397                       QLTORG
1MAIN     (MAIN2047) (12:35) (15MAR04) Subroutines                                                                          Page   66
0Current Usings:  (CV,R12)
0Loc    Object Code    Addr1 Addr2  Stmt Lv Lineno    Source Statement           (Hibal 5, Asmedit 3.3)  HLASM R4.0  2004/03/15 12.35
+___    ______ ____    _____ _____  ____ __ ______    ______ _________
0                                  19417              ¿þþþþþþþþþþþþþþþþþþþþþþþþþþþþþþþþþþþþþþþþþþþþþþþþþþþþþþþþþþþþþþþþþþþþþÜ
                                   19418              Ÿ                                                                     Ÿ
                                   19419              Ÿ  TIMERDQ -- Routine to dequeue timer entry.                         Ÿ
                                   19420              Ÿ                                                                     Ÿ
                                   19421              Ÿ    On entry:                                                        Ÿ
                                   19422              Ÿ      R15 - timer id (TQE addr)                                      Ÿ
                                   19423              Ÿ                                                                     Ÿ
                                                      ¾þþþþþþþþþþþþþþþþþþþþþþþþþþþþþþþþþþþþþþþþþþþþþþþþþþþþþþþþþþþþþþþþþþþþþ»
0001E3A 50E0 D044/902B_      00044 19424              TIMERDQ  XPROC
 USING  *,R8
 001E54 187F                       19462                       LR    R7,R15
 USING  TQE,R7                     19463                       WITH  (TQE,R7)
 001E56 D502 80DA 7000_01F1E 00000 19476                       FAIL  (TQE,NE,'TQE'),'Bad TQE ptr'
                                   19502
 001E6E 9856 7004            00004 19503                       LM    R5,R6,TQELINK       Forward, back ptrs
 001E72 1255/4780 8038_            19504                       IF    (R5,NZ),'ST R6,TQEBACK-TQE(R5)'  Fix their back ptr
 001E7C 5056 0004            00004 19524                       ST    R5,TQELINK-TQE(R6)  Dequeue & re-link
                                   19525
 001E80 D203 7000 80C4 00000 01F08 19526                       MVC   TQE(4),=C'OTQE'
 001E86 4110 7000            00000 19527                       LA    R1,TQE
 001E8A 58E0 80C8/0DEE       01F0C 19528                       VCALL FREECORE            Release entry
                                   19532
 001E90 41F0 C338            00338 19533                       LA    R15,CVTQEQH-(TQELINK-TQE)  Dummy first entry
 001E94 196F/4770 80AC             19534                       IF    (R6,EQ,R15),BEGIN   First entry dequeued...
 001E9A 4110 0001/0A2E       00001 19549  1                      TTIMER CANCEL
 001EA0 1255/4780 80AC             19553  1                      IF    (R5,Z),EXIT         No more timers
                                   19570  1
 DROP   TQE,R7                     19571  1                      WITH  (TQE,R5)
 USING  TQE,R5
 001EA6 B205 D000      00000       19592  1                      STCK  @R13
 001EAA 9823 500C            0000C 19593  1                      LM    R2,R3,TQECLCK
 001EAE 5F30 D004/47B0_      00004 19594  1                      SDL   R2,@R13
 001EBC 5D20 80CC            01F10 19599  1                      D     R2,=F'40960000'     Convert to .01 sec
 001EC0 1222/4780 8086_            19600  1                      IF    (R2,NZ),'INCR R3'   To next .01 sec
 001ECA 1233/4720 8090_            19622  1                      IF    (R3,NP),'LA R3,1'
 001ED4 9640 C13D      0013D       19642  1                      SET   CVFTIMER
 001ED8 5030 C248            00248 19648  1                      ST    R3,CVWORK
 001EDC 5800 80D4            01F18 19649  1                      L     R0,=A(TIMREXIT)
 001EE0 4110 C248/18F0_      00248 19650  1                      STIMER REAL,(0),BINTVL=CVWORK
 USING  TQE,R7                     19658                       END
 DROP   TQE,R5
                                   19676
 001EF0 18F7                       19677                       LR    R15,R7              Timer id
 001EF2 41D0 D030/982B_      00030 19678                       PEND
 DROP   TQE,R7
 DROP   *,R8
                                   19703                       QLTORG
1MAIN     (MAIN2047) (12:35) (15MAR04) Subroutines                                                                          Page   67
0Current Usings:  (CV,R12)
0Loc    Object Code    Addr1 Addr2  Stmt Lv Lineno    Source Statement           (Hibal 5, Asmedit 3.3)  HLASM R4.0  2004/03/15 12.35
+___    ______ ____    _____ _____  ____ __ ______    ______ _________
0                                  19723              ¿þþþþþþþþþþþþþþþþþþþþþþþþþþþþþþþþþþþþþþþþþþþþþþþþþþþþþþþþþþþþþþþþþþþþþÜ
                                   19724              Ÿ                                                                     Ÿ
                                   19725              Ÿ  TIMERPRG -- Routine to purge matching timer entries.               Ÿ
                                   19726              Ÿ                                                                     Ÿ
                                   19727              Ÿ    On entry:                                                        Ÿ
                                   19728              Ÿ      R1 - parm ptr to match                                         Ÿ
                                   19729              Ÿ                                                                     Ÿ
                                   19730              Ÿ    On exit, R15 (and CC):                                           Ÿ
                                   19731              Ÿ      0 - entry deleted                                              Ÿ
                                   19732              Ÿ      4 - entry not found                                            Ÿ
                                   19733              Ÿ                                                                     Ÿ
                                                      ¾þþþþþþþþþþþþþþþþþþþþþþþþþþþþþþþþþþþþþþþþþþþþþþþþþþþþþþþþþþþþþþþþþþþþþ»
0001F22 50E0 D044/902B_      00044 19734              TIMERPRG XPROC
 USING  *,R8
 001F3C 1851                       19772                       LR    R5,R1
 001F3E 4140 0004            00004 19773                       LA    R4,4                Pre-set return code
                                   19774
 001F42 4170 C338            00338 19775                       LA    R7,CVTQEQH-(TQELINK-TQE)  Dummy first entry
 001F46                            19776                       LOOP  BEGIN
 001F46 1867                       19782  1                      LR    R6,R7               Save prev ptr
 USING  TQE,R7                     19783  1                      WITH  (TQE,R7)
 001F48 5870 7004/1277_      00004 19796  1                      WHILE ('LT R7,TQELINK',NZ)
 001F52 5950 7018/4770_      00018 19813  1                      IF    (R5,EQ,TQEPARM),BEGIN  Match...
 001F5A D502 8096 7000_01FC2 00000 19830  2                        FAIL  (TQE,NE,'TQE'),'Bad TQE entry'
 001F74 58F0 7004            00004 19856  2                        L     R15,TQELINK         Forward ptr
 001F78 12FF/4780 8056_            19857  2                        IF    (R15,NZ),'ST R6,TQEBACK-TQE(R15)'  Fix back ptr
 001F82 50F0 6004            00004 19877  2                        ST    R15,TQELINK-TQE(,R6)  dequeue
                                   19878  2
 001F86 D203 7000 808C 00000 01FB8 19879  2                        MVC   TQE(4),=C'OTQE'
 001F8C 1817                       19880  2                        LR    R1,R7
 001F8E 58E0 8090/0DEE       01FBC 19881  2                        VCALL FREECORE
                                   19885  2
 001F94 1876                       19886  2                        LR    R7,R6               Back up
 001F96 1B44                       19887  2                        CLEAR R4                  Set return code
 001F98                            19891  1                      END
 001F98 47F0 801A            01F46 19895                       END
 DROP   TQE,R7
                                   19905
 001F9C 18F4                       19906                       LR    R15,R4
 001F9E 41D0 D030/982B_      00030 19907                       PEND
 DROP   *,R8
                                   19927
 001FB8                            19928                       LTORG
 001FB8 D6E3D8C5                   19930                             =C'OTQE'
 001FBC 00000000                   19931                             =V(FREECORE)
 001FC0 0030                       19932                             =Y(0+4+40+4)
 001FC2 E3D8C5                     19933                             =C'TQE'
1MAIN     (MAIN2047) (12:35) (15MAR04) PATHINIT - initialize new user path                                                  Page   68
0Current Usings:  (CV,R12)
0Loc    Object Code    Addr1 Addr2  Stmt Lv Lineno    Source Statement           (Hibal 5, Asmedit 3.3)  HLASM R4.0  2004/03/15 12.35
+___    ______ ____    _____ _____  ____ __ ______    ______ _________
0                                  19939              ¿þþþþþþþþþþþþþþþþþþþþþþþþþþþþþþþþþþþþþþþþþþþþþþþþþþþþþþþþþþþþþþþþþþþþþÜ
                                   19940              Ÿ                                                                     Ÿ
                                   19941              Ÿ   PATHINIT -- Routine to in initialize a new user path.             Ÿ
                                   19942              Ÿ                                                                     Ÿ
                                   19943              Ÿ     On entry:                                                       Ÿ
                                   19944              Ÿ       R1 - UPATH ptr                                                Ÿ
                                   19945              Ÿ                                                                     Ÿ
                                   19946              Ÿ     On exit, R15 (and cc):                                          Ÿ
                                   19947              Ÿ       0 - initialized                                               Ÿ
                                   19948              Ÿ                                                                     Ÿ
                                                      ¾þþþþþþþþþþþþþþþþþþþþþþþþþþþþþþþþþþþþþþþþþþþþþþþþþþþþþþþþþþþþþþþþþþþþþ»
0001FC6 50E0 D044/902B_      00044 19949              PATHINIT XPROC
 USING  *,R8
 001FE0 1851                       19987                       LR    R5,R1
 USING  UPATH,R5                   19988                       WITH  (UPATH,R5),BEGIN
 001FE2 18E5/41F0 007C_            20002  1                      MOVEL UPATH,MPATH,L'UPATH  Move in model path block
                                   20026  1
 001FF0 41F0 C038            00038 20027  1                      LA    R15,CVECB
 001FF4 50F0 5030            00030 20028  1                      ST    R15,UPATECB         Save ECB ptr
 001FF8 41F0 5040            00040 20029  1                      LA    R15,UPATSFLG
 001FFC 50F0 5028            00028 20030  1                      ST    R15,UPATECBF        Save Suzan path flag ptr
 DROP   UPATH,R5                   20031                       END
                                   20039
 002000 1BFF                       20040                       CLEAR R15                 A-ok
 002002 41D0 D030/982B_      00030 20044                       PEND
 DROP   *,R8
                                   20064                       ¿þþþþþþþþþþþþþþþþþþþþþþþþþþþþþÜ
                                   20065                       Ÿ  Model Path control block.  Ÿ
                                   20066                       ¾þþþþþþþþþþþþþþþþþþþþþþþþþþþþþ»
 002018                            20067              MPATHX   DS    0D
                                   20068              MPAT     MILPATH
                                   20069+            +¿þþþþþþþþþþþþþþþþþþþþþþþþþþþþþþþþþþþþþþþþþþþþþþþþþþþþþþþþþþþþþþþþþþþþþÜ
                                   20070+            +Ÿ                                                                     Ÿ
                                   20071+            +Ÿ    Milten Path control block.                                       Ÿ
                                   20072+            +Ÿ                                                                     Ÿ
                                                      ¾þþþþþþþþþþþþþþþþþþþþþþþþþþþþþþþþþþþþþþþþþþþþþþþþþþþþþþþþþþþþþþþþþþþþþ»
0002018 D7C1E3C8/00/0000_          20073    01-MILPA +         DS    0F
 MPATFLAG.MPATFOPE 80 ONES
 MPATFLAG.MPATFHDR 40 ONES
 MPATFLAG.MPATFSPR 20 ONES
 MPATFLAG.MPATFOPR 10 ONES
                                   20177              MPATH    EQU   MPATHX,*-MPATHX,C'X'
                                   20178              *
                                   20179              *
 002094                            20180                       DS    0SL2(L'UPATH-L'MPATH,L'MPATH-L'UPATH)
1MAIN     (MAIN2047) (12:35) (15MAR04) PATHOPEN - open path                                                                 Page   69
0Current Usings:  (CV,R12)
0Loc    Object Code    Addr1 Addr2  Stmt Lv Lineno    Source Statement           (Hibal 5, Asmedit 3.3)  HLASM R4.0  2004/03/15 12.35
+___    ______ ____    _____ _____  ____ __ ______    ______ _________
0                                  20183              ¿þþþþþþþþþþþþþþþþþþþþþþþþþþþþþþþþþþþþþþþþþþþþþþþþþþþþþþþþþþþþþþþþþþþþþÜ
                                   20184              Ÿ                                                                     Ÿ
                                   20185              Ÿ   PATHOPEN -- Routine to open a path.                               Ÿ
                                   20186              Ÿ                                                                     Ÿ
                                   20187              Ÿ     On entry:                                                       Ÿ
                                   20188              Ÿ       R1 - UPATH ptr                                                Ÿ
                                   20189              Ÿ                                                                     Ÿ
                                   20190              Ÿ     On exit, R15 (and cc):                                          Ÿ
                                   20191              Ÿ       0 - opened                                                    Ÿ
                                   20192              Ÿ       nz- error of some sort                                        Ÿ
                                   20193              Ÿ                                                                     Ÿ
                                                      ¾þþþþþþþþþþþþþþþþþþþþþþþþþþþþþþþþþþþþþþþþþþþþþþþþþþþþþþþþþþþþþþþþþþþþþ»
0000000                00000 00004 20194              POPNWA   RECORD BEGIN
 000000                            20202  1           POPNWORD   DS    F                   Work word
 000004                00004 00004 20203                       END
                                   20212              þþþþ
 002094 50E0 D044/902B_      00044 20213              PATHOPEN XPROC POPNWA
 USING  *,R8
 USING  POPNWA-@@,R13
 0020AE 1851                       20262                       LR    R5,R1
 USING  UPATH,R5                   20263                       WITH  (UPATH,R5)
 0020B0 D503 805A 5000_020F8 00000 20276                       FAIL  (UPATH,NE,'PATH'),'Bad UPATH ptr.'
                                   20302                       ¿þþþþþþþþþþþþþþþþþþÜ
                                   20303                       Ÿ  Open the path.  Ÿ
                                   20304                       ¾þþþþþþþþþþþþþþþþþþ»
 0020CC 4110 5008            00008 20305                       LA    R1,UPAT             Suzan path control block
 0020D0 5010 D04C            00000 20306                       ST    R1,POPNWORD         Build parm (path addr)
 0020D4 9680 D04C      00000       20307                       SET   POPNWORD.X'80'      Flag end of parm list
 0020D8 1B00/1BFF/4110_            20314                       SCOM  OPEN,LA:POPNWORD    Open the path
                                   20329              *  (Returns with R15 return code set by the Suzan SVC.)
 0020E2 41D0 D034/982B_      00034 20330                       PEND
 DROP   UPATH,R5
 DROP   POPNWA-@@,R13
 DROP   *,R8
                                   20361                       QLTORG
1MAIN     (MAIN2047) (12:35) (15MAR04) PATHREAD - read record from path buffer                                              Page   70
0Current Usings:  (CV,R12)
0Loc    Object Code    Addr1 Addr2  Stmt Lv Lineno    Source Statement           (Hibal 5, Asmedit 3.3)  HLASM R4.0  2004/03/15 12.35
+___    ______ ____    _____ _____  ____ __ ______    ______ _________
0                                  20378              ¿þþþþþþþþþþþþþþþþþþþþþþþþþþþþþþþþþþþþþþþþþþþþþþþþþþþþþþþþþþþþþþþþþþþþþÜ
                                   20379              Ÿ                                                                     Ÿ
                                   20380              Ÿ   PATHREAD -- Routine to read a new line from the path buffer.      Ÿ
                                   20381              Ÿ                                                                     Ÿ
                                   20382              Ÿ     On entry:                                                       Ÿ
                                   20383              Ÿ       R1 - UPATH ptr                                                Ÿ
                                   20384              Ÿ                                                                     Ÿ
                                   20385              Ÿ     On exit, R15 (and cc):                                          Ÿ
                                   20386              Ÿ       0 - ok; R1,R0 - data loc, len                                 Ÿ
                                   20387              Ÿ       nz- no data; R1,R0 - error msg loc, len                       Ÿ
                                   20388              Ÿ                                                                     Ÿ
                                                      ¾þþþþþþþþþþþþþþþþþþþþþþþþþþþþþþþþþþþþþþþþþþþþþþþþþþþþþþþþþþþþþþþþþþþþþ»
0000000                00000 00008 20389              PRDWA    RECORD BEGIN
 000000                            20397  1           PRDPTRS    DS    2A                  Saved data ptrs
 000008                00008 00008 20398                       END
                                   20407              þþþþ
 002100 50E0 D044/902B_      00044 20408              PATHREAD XPROC (R2,LSR),PRDWA
 USING  *,R8
 USING  PRDWA-@@,R13
 00211A 1851                       20456                       LR    R5,R1
 USING  UPATH,R5                   20457                       WITH  (UPATH,R5)
 00211C D503 80CE 5000_021D8 00000 20470                       FAIL  (UPATH,NE,'PATH'),'Bad UPATH ptr.'
                                   20496
 002138 9120 5040/4710_00040       20497                       IF    ~UPATSFLG.UPATFNI,BEGIN  Nothing new...
 002140 4110 80D8/4100_      021E2 20513  1                      SETMSG 'NO DATA'
 002148 41F0 0004            00004 20517  1                      LA    R15,4
 00214C 47F0 80B8            021C2 20518  1                      B     PRDEXIT             Scram
 002150                            20519                       END
                                   20523                       ¿þþþþþþþþþþþþþþþþþþþþþþþþþþþþþÜ
                                   20524                       Ÿ  Get the next transaction.  Ÿ
                                   20525                       ¾þþþþþþþþþþþþþþþþþþþþþþþþþþþþþ»
 0021E9 DF/41F0 0001/1_021E9 03ED8 20526                       CLEAR UPATSFLG.UPATFNI,MODE=LOCKED,REF=UPATH
                                   20572
 00216E 41F0 0014/5800_      00014 20573                       SCOM  FREELOC,0,L:UPATMGC  Get next transaction
 00217A 12FF/4780 8080             20591                       IF    (R15,NZ),BEGIN      Bad suzan request...
 002180 58E0 80D2/0DEE       021DC 20605  1                      ACALL PATHRC              Get error msg text
 002186 47F0 80B8            021C2 20609  1                      B     PRDEXIT
 00218A                            20610                       END
                                   20614
 00218A 1200/4770 8096_            20615                       IF    (R0,Z),'SETMSG "NO DATA"; LA R15,4; B PRDEXIT'
                                   20640
 0021A0 9001 D04C            00000 20641                       STM   R0,R1,PRDPTRS       Save data ptrs
 0021A4 58F0 5040/4110_      00040 20642                       SET   UPATSFLG.UPATFNI,MODE=LOCKED,REF=UPATH
                                   20657
 0021BC 9801 D04C            00000 20658                       LM    R0,R1,PRDPTRS       Get data ptrs
 0021C0 1BFF                       20659                       CLEAR R15                 A-ok
 0021C2 41D0 D038/982B_      00038 20663              PRDEXIT  PEND
 DROP   UPATH,R5
 DROP   PRDWA-@@,R13
 DROP   *,R8
                                   20695                       QLTORG
1MAIN     (MAIN2047) (12:35) (15MAR04) PATHSEG - path SEG routine                                                           Page   71
0Current Usings:  (CV,R12)
0Loc    Object Code    Addr1 Addr2  Stmt Lv Lineno    Source Statement           (Hibal 5, Asmedit 3.3)  HLASM R4.0  2004/03/15 12.35
+___    ______ ____    _____ _____  ____ __ ______    ______ _________
0                                  20713              ¿þþþþþþþþþþþþþþþþþþþþþþþþþþþþþþþþþþþþþþþþþþþþþþþþþþþþþþþþþþþþþþþþþþþþþÜ
                                   20714              Ÿ                                                                     Ÿ
                                   20715              Ÿ   PATHSEG -- Seg processing routine to handle writing               Ÿ
                                   20716              Ÿ     data across the Suzan path.                                     Ÿ
                                   20717              Ÿ                                                                     Ÿ
                                   20718              Ÿ     On entry:                                                       Ÿ
                                   20719              Ÿ       R15 - SEGCB ptr                                               Ÿ
                                   20720              Ÿ                                                                     Ÿ
                                                      ¾þþþþþþþþþþþþþþþþþþþþþþþþþþþþþþþþþþþþþþþþþþþþþþþþþþþþþþþþþþþþþþþþþþþþþ»
0000000                00000 00010 20721              PSGWA    RECORD BEGIN
 000000                            20729  1           PSGHDRA    DS    A                   SCOM parm: header address
 000004                            20730  1           PSGHDRL    DS    F                   SCOM parm: header length
 000008                            20731  1           PSGDATAA   DS    A                   SCOM parm: address
 00000C                            20732  1           PSGDATAL   DS    F                   SCOM parm: length
 000010                00010 00010 20733                       END
                                   20742              þþþþ
 0021EE 50E0 D044/902B_      00044 20743              PATHSEG  XPROC PSGWA
 USING  *,R8
 USING  PSGWA-@@,R13
 002208 D70F D04C D04C 00000 00000 20792                       CLEAR PSGWA
                                   20799
 00220E 185F                       20800                       LR    R5,R15
 USING  SEGCB,R5                   20801                       WITH  (SEGCB,R5)
                                   20814
 002210 5860 5038            00038 20815                       L     R6,SEGCBUSR
 USING  UPATH,R6                   20816                       WITH  (UPATH,R6)
 002214 D503 80F0 6000_022E8 00000 20829                       FAIL  (UPATH,NE,'PATH'),'Bad PATHSEG UPATH ptr'
                                   20855                       ¿þþþþþþþþþþþþþþþþþþþþþþþþþþþþþþÜ
                                   20856                       Ÿ  SEGWR/SEGCR (or overflow).  Ÿ
                                   20857                       ¾þþþþþþþþþþþþþþþþþþþþþþþþþþþþþþ»
 002236 9502 5000/4780_00000       20858                       IF    (SEGCBWR,OR,SEGCBCR,OR,SEGCBOVF),BEGIN  SEGWR...
 00224E 1220                       20899  1                      LTR   R2,R0               Current buffer length
 002250 47D0 80BE            022B6 20900  1                      IF    NP,EXIT             Nothing to write, scram
                                   20914  1
 002254 5010 D054            00008 20915  1                      ST    R1,PSGDATAA         Seg data ptrs
 002258 5000 D058            0000C 20916  1                      ST    R0,PSGDATAL
                                   20917  1
 00225C 4110 D058/4100_      0000C 20918  1                      SETMSG PSGDATAL
 002264 5010 D04C            00000 20932  1                      ST    R1,PSGHDRA          Length
 002268 5000 D050            00004 20933  1                      ST    R0,PSGHDRL
                                   20934  1
 00226C 9680 D054      00008       20935  1                      SET   PSGDATAA.X'80'      Set VL bit
                                   20942  1
 002270 4110 D054            00008 20943  1                      LA    R1,PSGDATAA         Assume sending data only
 002274 41F0 0008/5800_      00008 20944  1                      SCOM  SEND,(R1),L:UPATMGC  Send transaction
 00227E 12FF/4780 80A0             20962  1                      IF    (R15,NZ),BEGIN      Couldn't send...
 002284 58E0 80F4/0DEE       022EC 20976  2                        ACALL PATHRC              Get return code string
                                   20980  2
 00228A D603 6074 6074_00074 00074 20981  2                        IF    (UPATRCP,Z),BEGIN   Only set it the first time...
 002294 9001 6074            00074 20997  3                          STM   R0,R1,UPATRCP       Save return code string ptrs
 002298                            20998  2                        END
 002298                            21002  1                      END
                                   21006  1
1MAIN     (MAIN2047) (12:35) (15MAR04) PATHSEG - path SEG routine                                                           Page   72
0Current Usings:  (SEGCB,R5) (UPATH,R6) (*,R8) (CV,R12) (PSGWA-@@,R13)
0Loc    Object Code    Addr1 Addr2  Stmt Lv Lineno    Source Statement           (Hibal 5, Asmedit 3.3)  HLASM R4.0  2004/03/15 12.35
+___    ______ ____    _____ _____  ____ __ ______    ______ _________
0002298 9502 5000/4780_00000       21007  1                      IF    (SEGCBWR,OR,SEGCBCR),'CLEAR SEGCBLENF,SEGCBMRKF'
 0022B4 1302                       21053  1                      LCR   R0,R2               For overflow: nbytes processed
 0022B6                            21054                       END
                                   21058                       ¿þþþþþþþþþþþþþþþþþþþþþþþþþþþþþþþþþþþþþþþþþþþÜ
                                   21059                       Ÿ  Post processing (set return code only).  Ÿ
                                   21060                       ¾þþþþþþþþþþþþþþþþþþþþþþþþþþþþþþþþþþþþþþþþþþþ»
 0022B6 9504 5000/4770_00000       21061                       IF    SEGCBSPP,BEGIN      Post processing...
 0022BE 1B00                       21076  1                      CLEAR R0                  Assume A-ok
 0022C0 D603 6074 6074_00074 00074 21080  1                      IF    (UPATRCP,NZ),'LA R0,4'  Trouble
 0022CE                            21102                       END
                                   21106
 0022CE 41D0 D040/982B_      00040 21107                       PEND
 DROP   UPATH,R6
 DROP   SEGCB,R5
 DROP   PSGWA-@@,R13
 DROP   *,R8
                                   21143                       QLTORG
1MAIN     (MAIN2047) (12:35) (15MAR04) PATHCLS - close user path                                                            Page   73
0Current Usings:  (CV,R12)
0Loc    Object Code    Addr1 Addr2  Stmt Lv Lineno    Source Statement           (Hibal 5, Asmedit 3.3)  HLASM R4.0  2004/03/15 12.35
+___    ______ ____    _____ _____  ____ __ ______    ______ _________
0                                  21160              ¿þþþþþþþþþþþþþþþþþþþþþþþþþþþþþþþþþþþþþþþþþþþþþþþþþþþþþþþþþþþþþþþþþþþþþÜ
                                   21161              Ÿ                                                                     Ÿ
                                   21162              Ÿ   PATHCLS -- Routine to close a user path.                          Ÿ
                                   21163              Ÿ                                                                     Ÿ
                                   21164              Ÿ     On entry:                                                       Ÿ
                                   21165              Ÿ       R1 - path number                                              Ÿ
                                   21166              Ÿ                                                                     Ÿ
                                   21167              Ÿ     On exit, R15 (and cc):                                          Ÿ
                                   21168              Ÿ       0 = closed                                                    Ÿ
                                   21169              Ÿ       4 = not closed; R1,R0 = error msg loc, len                    Ÿ
                                   21170              Ÿ                                                                     Ÿ
                                                      ¾þþþþþþþþþþþþþþþþþþþþþþþþþþþþþþþþþþþþþþþþþþþþþþþþþþþþþþþþþþþþþþþþþþþþþ»
00022F2 50E0 D044/902B_      00044 21171              PATHCLS  XPROC
 USING  *,R8
 00230C 1851                       21209                       LR    R5,R1
 USING  UPATH,R5                   21210                       WITH  (UPATH,R5)
 00230E D503 8054 5000_02350 00000 21223                       FAIL  (UPATH,NE,'PATH'),'Bad UPATH ptr.'
                                   21249                       ¿þþþþþþþþþþþþþþþþþþþþþþþþþþþþþþþþþþþþþþþþþþþþþþþþÜ
                                   21250                       Ÿ  Close path (we don't care if it's not open).  Ÿ
                                   21251                       ¾þþþþþþþþþþþþþþþþþþþþþþþþþþþþþþþþþþþþþþþþþþþþþþþþ»
 00232A 41F0 0004/5800_      00004 21252                       SCOM  CLOSE,0,L:UPATMGC   Close path
 002336 41D0 D030/982B_      00030 21270                       PEND
 DROP   UPATH,R5
 DROP   *,R8
                                   21295                       QLTORG
1MAIN     (MAIN2047) (12:35) (15MAR04) PATHINFO - Get path partner information                                              Page   74
0Current Usings:  (CV,R12)
0Loc    Object Code    Addr1 Addr2  Stmt Lv Lineno    Source Statement           (Hibal 5, Asmedit 3.3)  HLASM R4.0  2004/03/15 12.35
+___    ______ ____    _____ _____  ____ __ ______    ______ _________
0                                  21311              ¿þþþþþþþþþþþþþþþþþþþþþþþþþþþþþþþþþþþþþþþþþþþþþþþþþþþþþþþþþþþþþþþþþþþþþÜ
                                   21312              Ÿ                                                                     Ÿ
                                   21313              Ÿ  PATHINFO -- Routine to get path partner information.               Ÿ
                                   21314              Ÿ                                                                     Ÿ
                                   21315              Ÿ    On entry:                                                        Ÿ
                                   21316              Ÿ      R1 - UPATH ptr                                                 Ÿ
                                   21317              Ÿ                                                                     Ÿ
                                   21318              Ÿ    On exit:                                                         Ÿ
                                   21319              Ÿ      UPATH information fields are filled in                         Ÿ
                                   21320              Ÿ                                                                     Ÿ
                                                      ¾þþþþþþþþþþþþþþþþþþþþþþþþþþþþþþþþþþþþþþþþþþþþþþþþþþþþþþþþþþþþþþþþþþþþþ»
0000000                00000 000EC 21321              PIWA     RECORD BEGIN
 000000                            21329  1           PIPARMS    DS    2A                  Suzan INFO parm: loc, len
                                   21330  1
 000008                            21331  1           PIASCBP    DS    A                   Info:  Partner's ASCB ptr
 00000C                            21332  1           PIBUFSIZ   DS    F                   Info:  Partner's buffer size
 000010                            21333  1           PIPATHNM   DS    CL8                 Info:  Partner's path name
 000018                            21334  1           PIXACTP    DS    A                   Info:  Input XACT chain ptr
 00001C                            21335  1                      DS    XL16                Info:  Zeros (reserved)
 00002C                            21336  1           PIPINFO    DS    XL(L'PINFO)         Info:  Partner's "PINFO"
                                   21337  1           PIINFO     EQU   PIASCBP,*-PIASCBP,C'X'
                                   21338  1
 0000AC                            21339  1           PIWORK     DS    XL64                Local work area
 0000EC                000EC 000EC 21340                       END
                                   21349              þþþþ
 002356 50E0 D044/902B_      00044 21350              PATHINFO XPROC PIWA
 USING  *,R8
 USING  PIWA-@@,R13
 002370 1851                       21399                       LR    R5,R1
 USING  UPATH,R5                   21400                       WITH  (UPATH,R5)
 002372 D503 8100 5000_02460 00000 21413                       IF    (UPATH,NE,'PATH'),'FAIL "Bad UPATH ptr."'
                                   21440                       ¿þþþþþþþþþþþþþþþþþþþþþþþþþþþþþþþþþþþþÜ
                                   21441                       Ÿ  Get path information from Suzan.  Ÿ
                                   21442                       ¾þþþþþþþþþþþþþþþþþþþþþþþþþþþþþþþþþþþþ»
 00238E 4100 D054            00008 21443                       LA    R0,PIINFO           Addr of area
 002392 4110 00A4            000A4 21444                       LA    R1,L'PIINFO         Length
 002396 9001 D04C            00000 21445                       STM   R0,R1,PIPARMS
 00239A 9680 D04C      00000       21446                       SET   PIPARMS.X'80'       Mark as end of list
                                   21453
 00239E 41F0 0020/5800_      00020 21454                       SCOM  INFO,PIPARMS,L:UPATMGC  Get Suzan info
 0023AC 12FF/4770 80E8             21475                       IF    (R15,NZ),EXIT       Couldn't get info, forget it
                                   21492
 0023B2 D603 D054 D054_00008 00008 21493                       IF    (PIASCBP,Z),EXIT    No partner's ASCB, forget it
                                   21512
 0023BC D203 5048 D054 00048 00008 21513                       MVC   UPATPASC,PIASCBP    Save partner's ASCB ptr
                                   21514                       ¿þþþþþþþþþþþþþþþþþþþþþþþþþþþþþþþþþþþþþþþþþþþþþþþþþþþÜ
                                   21515                       Ÿ  Save partner information when PINFO is present.  Ÿ
                                   21516                       ¾þþþþþþþþþþþþþþþþþþþþþþþþþþþþþþþþþþþþþþþþþþþþþþþþþþþ»
 0023C2 4140 D078            0002C 21517                       LA    R4,PIPINFO
 USING  PINFO,R4                   21518                       WITH  (PINFO,R4)
 0023C6 D503 8104 4000_02464 00000 21531                       IF    (PINFO,EQ,'PINF'),BEGIN  We have info...
 0023D0 D207 504E 4008 0004E 00008 21548  1                      MVC   UPATPJOB,PINFOSYS   Save partner's "jobname"
 0023D6 D207 5056 4010 00056 00010 21549  1                      MVC   UPATPACT,PINFOACC   Save partner's account
1MAIN     (MAIN2047) (12:35) (15MAR04) PATHINFO - Get path partner information                                              Page   75
0Current Usings:  (PINFO,R4) (UPATH,R5) (*,R8) (CV,R12) (PIWA-@@,R13)
0Loc    Object Code    Addr1 Addr2  Stmt Lv Lineno    Source Statement           (Hibal 5, Asmedit 3.3)  HLASM R4.0  2004/03/15 12.35
+___    ______ ____    _____ _____  ____ __ ______    ______ _________
00023DC D201 504C 4032 0004C 00032 21550  1                      MVC   UPATPLNO,PINFOLNO   Save partner's line number
 0023E2 D213 505E 4038 0005E 00038 21551  1                      MVC   UPATPNAM,PINFONAM   Save partner's user name
 0023E8 9120 4030/47E0_00030       21552  1                      IF    PINFOIFL.KWRIFSPR,'SET UPATFSPR'  Sys privs
 0023F4 9110 4030/47E0_00030       21579  1                      IF    PINFOIFL.KWRIFOPR,'SET UPATFOPR'  Opr privs
 002400                            21606                       END
                                   21610                       ¿þþþþþþþþþþþþþþþþþþþþþþþþþþþþþþþþþþþþþþþþþþþþþþþþþþþþþþþÜ
                                   21611                       Ÿ  Save partner information for batch jobs (no PINFO).  Ÿ
                                   21612                       ¾þþþþþþþþþþþþþþþþþþþþþþþþþþþþþþþþþþþþþþþþþþþþþþþþþþþþþþþ»
 002400 80A4/47F0 80E6 02400 023CE 21613                       ELSE  BEGIN               No PINFO, get jobname...
 002404 4100 0004/4110_      00004 21624  1                      HASPSERV JOBNAME,PIWORK,ASCB=UPATPASC  Get jobname
 002412 D207 504E D0F8 0004E 000AC 21645  1                      MVC   UPATPJOB,PIWORK     Save jobname
                                   21646  1
 002418 1B00/4110 D0F8_            21647  1                      HASPSERV JOBACCT,PIWORK,ASCB=UPATPASC  Get account
 002424 D207 5056 C141 00056 00141 21665  1                      MVC   UPATPACT,CVBLANKS   Form "gg.uuu"...
 00242A D201 5056 D0FB 00056 000AF 21666  1                      MVC   UPATPACT(2),PIWORK+3
 002430 924B 5058      00058       21667  1                      MVI   UPATPACT+2,C'.'
 002434 D202 5059 D0F8 00059 000AC 21668  1                      MVC   UPATPACT+3(3),PIWORK
                                   21669  1
 00243A D201 504C 810A 0004C 0246A 21670  1                      MVC   UPATPLNO,=H'-1'     No line number
 002440 D713 505E 505E 0005E 0005E 21671  1                      CLEAR UPATPNAM            No user name
 002446                            21678                       END
                                   21682
 002446 1BFF                       21683                       CLEAR R15                 (Neatness)
 002448 41D0 D11C/982B_      0011C 21687                       PEND
 DROP   PINFO,R4
 DROP   UPATH,R5
 DROP   PIWA-@@,R13
 DROP   *,R8
                                   21723                       QLTORG
1MAIN     (MAIN2047) (12:35) (15MAR04) PATHRC - format path return code                                                     Page   76
0Current Usings:  (CV,R12)
0Loc    Object Code    Addr1 Addr2  Stmt Lv Lineno    Source Statement           (Hibal 5, Asmedit 3.3)  HLASM R4.0  2004/03/15 12.35
+___    ______ ____    _____ _____  ____ __ ______    ______ _________
0                                  21741              ¿þþþþþþþþþþþþþþþþþþþþþþþþþþþþþþþþþþþþþþþþþþþþþþþþþþþþþþþþþþþþþþþþþþþþþÜ
                                   21742              Ÿ                                                                     Ÿ
                                   21743              Ÿ   PATHRC -- Routine to form string from return code.                Ÿ
                                   21744              Ÿ                                                                     Ÿ
                                   21745              Ÿ     On entry:                                                       Ÿ
                                   21746              Ÿ       R15 - return code from Suzan                                  Ÿ
                                   21747              Ÿ                                                                     Ÿ
                                   21748              Ÿ     On exit:                                                        Ÿ
                                   21749              Ÿ       R1,R0 - message loc, len                                      Ÿ
                                   21750              Ÿ                                                                     Ÿ
                                                      ¾þþþþþþþþþþþþþþþþþþþþþþþþþþþþþþþþþþþþþþþþþþþþþþþþþþþþþþþþþþþþþþþþþþþþþ»
000246C 50E0 D044/902B_      00044 21751              PATHRC   XPROC  (R2,LSR)
 USING  *,R8
 002486 4110 80EC/4100_      02562 21789                       SETMSG 'OK'
 00248E 12FF/4780 8026_            21793                       IF    (R15,NZ),'SETMSG "ERROR"'
 00249C 59F0 80CA/4770_      02540 21816                       IF    (R15,EQ,=A(UPATRIFC)),'SETMSG "BAD SUZAN FUNCTION CODE"'
 0024AC 59F0 80CE/4770_      02544 21841                       IF    (R15,EQ,=A(UPATRPMW)),'SETMSG "BAD SUZAN CONTROL BLOCK"'
 0024BC 59F0 80D2/4770_      02548 21866                       IF    (R15,EQ,=A(UPATRBAF)),'SETMSG "BUFFER FULL"'
 0024CC 59F0 80D6/4770_      0254C 21891                       IF    (R15,EQ,=A(UPATRNOP)),'SETMSG "NO PARTNER"'
 0024DC 59F0 80DA/4770_      02550 21916                       IF    (R15,EQ,=A(UPATRBOM)),'SETMSG "TOO BIG"'
 0024EC 59F0 80DE/4770_      02554 21941                       IF    (R15,EQ,=A(UPATRIBS)),'SETMSG "BUFFER TOO SMALL"'
 0024FC 59F0 80E2/4770_      02558 21966                       IF    (R15,EQ,=A(UPATRBPI)),'SETMSG "BAD SUZAN BUFFER ADDR"'
 00250C 59F0 80E6/4770_      0255C 21991                       IF    (R15,EQ,=A(UPATRIAD)),'SETMSG "BAD SUZAN ADDR"'
 00251C 41D0 D030/982B_      00030 22016                       PEND
 DROP   *,R8
                                   22036                       QLTORG
1MAIN     (MAIN2047) (12:35) (15MAR04) Subroutines                                                                          Page   77
0Current Usings:  (CV,R12)
0Loc    Object Code    Addr1 Addr2  Stmt Lv Lineno    Source Statement           (Hibal 5, Asmedit 3.3)  HLASM R4.0  2004/03/15 12.35
+___    ______ ____    _____ _____  ____ __ ______    ______ _________
0                                  22069              ¿þþþþþþþþþþþþþþþþþþþþþþþþþþþþþþþþþþþþþþþþþþþþþþþþþþþþþþþþþþþþþþþþþþþþþÜ
                                   22070              Ÿ                                                                     Ÿ
                                   22071              Ÿ  AMODE31 -- Routine to switch to 31-bit addressing mode if          Ÿ
                                   22072              Ÿ    we are running MVS/XA.                                           Ÿ
                                   22073              Ÿ                                                                     Ÿ
                                   22074              Ÿ    MILTEN note:                                                     Ÿ
                                   22075              Ÿ       Milten generally does not run in 31-bit...  the biggest       Ÿ
                                   22076              Ÿ       problem is that the MILTEN PROC/PEND routines don't work      Ÿ
                                   22077              Ÿ       in 31 bit mode!  So be careful, only stay in 31-bit mode      Ÿ
                                   22078              Ÿ       for a very short time!                                        Ÿ
                                   22079              Ÿ                                                                     Ÿ
                                   22080              Ÿ    Note: By making the stack reside below the line, MILTEN can      Ÿ
                                   22081              Ÿ          run fine in 31 bit mode (a few more minor tweaks were      Ÿ
                                   22082              Ÿ          necessary). MPD - 05/01/98                                 Ÿ
                                   22083              Ÿ                                                                     Ÿ
                                                      ¾þþþþþþþþþþþþþþþþþþþþþþþþþþþþþþþþþþþþþþþþþþþþþþþþþþþþþþþþþþþþþþþþþþþþþ»
0                                  22084                       ENTRY AMODE31
 0025D6 50ED 0000            00000 22085              AMODE31  ST    RAR,0(R13)          Save return address
 0025DA 508D 0004            00004 22086                       ST    BR,4(R13)           Save base register
 0025DE 502D 0008            00008 22087                       ST    R2,8(R13)           Save work register
 0025E2 0D80                       22088                       BASE
 USING  *,R8
                                   22102
 0025E4 9120 C13D/47E0_0013D       22103                       IF    CVFXA,BEGIN         XA mode...
 0025EC 4120 8012            025F6 22118  1                      LA    R2,A31GO
 0025F0 5620 80DC            026C0 22119  1                      O     R2,=A(X'80000000')  31 bit mode wanted
 0025F4 0B02                       22120  1                      BSM   0,R2
                                   22121  1
 0025F6                            22122  1           A31GO      LABEL
 0025F6                            22124                       END
                                   22128
 0025F6 582D 0008            00008 22129                       L     R2,8(R13)           Restore work register
 0025FA 588D 0004            00004 22130                       L     BR,4(R13)           Restore base register
 0025FE 58ED 0000            00000 22131                       L     RAR,0(R13)          Restore return address
 002602 07FE                       22132                       BR    RAR
                                   22133
 DROP   *,R8                       22134                       DROP  BR
1MAIN     (MAIN2047) (12:35) (15MAR04) Subroutines                                                                          Page   78
0Current Usings:  (CV,R12)
0Loc    Object Code    Addr1 Addr2  Stmt Lv Lineno    Source Statement           (Hibal 5, Asmedit 3.3)  HLASM R4.0  2004/03/15 12.35
+___    ______ ____    _____ _____  ____ __ ______    ______ _________
0                                  22142              ¿þþþþþþþþþþþþþþþþþþþþþþþþþþþþþþþþþþþþþþþþþþþþþþþþþþþþþþþþþþþþþþþþþþþþþÜ
                                   22143              Ÿ                                                                     Ÿ
                                   22144              Ÿ  AMODE24 -- Routine to switch back to 24-bit addressing mode.       Ÿ
                                   22145              Ÿ                                                                     Ÿ
                                   22146              Ÿ    MILTEN note:                                                     Ÿ
                                   22147              Ÿ       Milten generally does not run in 31-bit...  the biggest       Ÿ
                                   22148              Ÿ       problem is that the MILTEN PROC/PEND routines don't work      Ÿ
                                   22149              Ÿ       in 31 bit mode!  So be careful, only stay in 31-bit mode      Ÿ
                                   22150              Ÿ       for a very short time!                                        Ÿ
                                   22151              Ÿ                                                                     Ÿ
                                                      ¾þþþþþþþþþþþþþþþþþþþþþþþþþþþþþþþþþþþþþþþþþþþþþþþþþþþþþþþþþþþþþþþþþþþþþ»
0                                  22152                       ENTRY AMODE24
 002604 50ED 0000            00000 22153              AMODE24  ST    RAR,0(R13)          Save return address
 002608 508D 0004            00004 22154                       ST    BR,4(R13)           Save base register
 00260C 502D 0008            00008 22155                       ST    R2,8(R13)           Save work register
 002610 0D80                       22156                       BASE
 USING  *,R8
                                   22170
 002612 9120 C13D/47E0_0013D       22171                       IF    CVFXA,BEGIN         XA mode...
 00261A 4120 800E            02620 22186  1                      LA    R2,A24GO
 00261E 0B02                       22187  1                      BSM   0,R2                Return to 24 bit mode
                                   22188  1
 002620                            22189  1           A24GO      LABEL
 002620                            22191                       END
                                   22195
 002620 582D 0008            00008 22196                       L     R2,8(R13)           Restore work register
 002624 588D 0004            00004 22197                       L     BR,4(R13)           Restore base register
 002628 58ED 0000            00000 22198                       L     RAR,0(R13)          Restore return address
 00262C 07FE                       22199                       BR    RAR
                                   22200
 DROP   *,R8                       22201                       DROP  BR
1MAIN     (MAIN2047) (12:35) (15MAR04) Subroutines                                                                          Page   79
0Current Usings:  (CV,R12)
0Loc    Object Code    Addr1 Addr2  Stmt Lv Lineno    Source Statement           (Hibal 5, Asmedit 3.3)  HLASM R4.0  2004/03/15 12.35
+___    ______ ____    _____ _____  ____ __ ______    ______ _________
0                                  22209              ¿þþþþþþþþþþþþþþþþþþþþþþþþþþþþþþþþþþþþþþþþþþþþþþþþþþþþþþþþþþþþþþþþþþþþþÜ
                                   22210              Ÿ                                                                     Ÿ
                                   22211              Ÿ  KEYZERO -- Routine to change to PSW key zero.                      Ÿ
                                   22212              Ÿ                                                                     Ÿ
                                                      ¾þþþþþþþþþþþþþþþþþþþþþþþþþþþþþþþþþþþþþþþþþþþþþþþþþþþþþþþþþþþþþþþþþþþþþ»
0                                  22213                       ENTRY KEYZERO
 00262E B20A 0000      00000       22214              KEYZERO  MODESET EXTKEY=ZERO
 002632 07FE                       22217                       BR    RAR
-                                  22219              ¿þþþþþþþþþþþþþþþþþþþþþþþþþþþþþþþþþþþþþþþþþþþþþþþþþþþþþþþþþþþþþþþþþþþþþÜ
                                   22220              Ÿ                                                                     Ÿ
                                   22221              Ÿ  KEYNZERO -- Routine to change back to our Address Space key.       Ÿ
                                   22222              Ÿ                                                                     Ÿ
                                                      ¾þþþþþþþþþþþþþþþþþþþþþþþþþþþþþþþþþþþþþþþþþþþþþþþþþþþþþþþþþþþþþþþþþþþþþ»
0                                  22223                       ENTRY KEYNZERO
 002634 18F2                       22224              KEYNZERO LR    R15,R2
 002636 1F22/4320 C139             22225                       LC    R2,CVKEY
 00263C B20A 2000      00000       22232                       MODESET KEYADDR=(2)       Our key
 002640 182F                       22235                       LR    R2,R15
 002642 07FE                       22236                       BR    RAR
1MAIN     (MAIN2047) (12:35) (15MAR04) Subroutines                                                                          Page   80
0Current Usings:  (CV,R12)
0Loc    Object Code    Addr1 Addr2  Stmt Lv Lineno    Source Statement           (Hibal 5, Asmedit 3.3)  HLASM R4.0  2004/03/15 12.35
+___    ______ ____    _____ _____  ____ __ ______    ______ _________
0                                  22238              ¿þþþþþþþþþþþþþþþþþþþþþþþþþþþþþþþþþþþþþþþþþþþþþþþþþþþþþþþþþþþþþþþþþþþþþÜ
                                   22239              Ÿ                                                                     Ÿ
                                   22240              Ÿ  GETFEB -- Routine to get FEB.                                      Ÿ
                                   22241              Ÿ                                                                     Ÿ
                                   22242              Ÿ    On entry:                                                        Ÿ
                                   22243              Ÿ      R0 - FEB length                                                Ÿ
                                   22244              Ÿ                                                                     Ÿ
                                   22245              Ÿ    On exit:                                                         Ÿ
                                   22246              Ÿ      R1 - new FEB ptr                                               Ÿ
                                   22247              Ÿ                                                                     Ÿ
                                                      ¾þþþþþþþþþþþþþþþþþþþþþþþþþþþþþþþþþþþþþþþþþþþþþþþþþþþþþþþþþþþþþþþþþþþþþ»
0002644 50E0 D044/902B_      00044 22248              GETFEB   XPROC
 USING  *,R8
 00265E 5900 8076/47B0_      026C4 22286                       FAIL  (R0,LT,L'FEB),'GETFEB length error.'
                                   22312
 00267E 4110 0010            00010 22313                       LA    R1,FEBSUBPL
 002682 182E                       22314                       LR    R2,RAR
 002684 58E0 807A/0DEE       026C8 22315                       VCALL NGETCORE
                                   22319
 USING  FEB,R1                     22320                       WITH  (FEB,R1)
 00268A 1821                       22333                       LR    R2,R1               FEB
 00268C 1830                       22334                       LR    R3,R0               Len
 00268E 1BFF                       22335                       CLEAR R15
 002690 0E2E                       22339                       MVCL  R2,R14              Zero FEB
 002692 D203 1000 807E 00000 026CC 22340                       MVC   FEB(4),=CL4'FEB'
 002698 41F0 0001/5EF0_      00001 22341                       INCR  R15,CVFEBID
 0026A4 40F0 1004            00004 22347                       STH   R15,FEBID           Save FEB identifier
                                   22348
 0026A8 1BFF                       22349                       CLEAR R15                 (neatness)
 0026AA 41D0 D030/982B_      00030 22353                       PEND
 DROP   FEB,R1
 DROP   *,R8
                                   22378                       QLTORG
1MAIN     (MAIN2047) (12:35) (15MAR04) Subroutines                                                                          Page   81
0Current Usings:  (CV,R12)
0Loc    Object Code    Addr1 Addr2  Stmt Lv Lineno    Source Statement           (Hibal 5, Asmedit 3.3)  HLASM R4.0  2004/03/15 12.35
+___    ______ ____    _____ _____  ____ __ ______    ______ _________
0                                  22396              ¿þþþþþþþþþþþþþþþþþþþþþþþþþþþþþþþþþþþþþþþþþþþþþþþþþþþþþþþþþþþþþþþþþþþþþÜ
                                   22397              Ÿ                                                                     Ÿ
                                   22398              Ÿ  FREEFEB -- Routine to free FEB.                                    Ÿ
                                   22399              Ÿ                                                                     Ÿ
                                   22400              Ÿ    On entry:                                                        Ÿ
                                   22401              Ÿ      R1 - FEB ptr                                                   Ÿ
                                   22402              Ÿ                                                                     Ÿ
                                                      ¾þþþþþþþþþþþþþþþþþþþþþþþþþþþþþþþþþþþþþþþþþþþþþþþþþþþþþþþþþþþþþþþþþþþþþ»
00026D2 50E0 D044/902B_      00044 22403              FREEFEB  XPROC
 USING  *,R8
 0026EC 18B1                       22441                       LR    FEBR,R1
 USING  FEB,R11                    22442                       WITH  FEB
 0026EE D502 80C6 B000_027A2 00000 22454                       FAIL  (FEB,NE,'FEB'),'FREEFEB error.'
                                   22480
 00270A 4110 B000            00000 22481                       LA    R1,FEB
 00270E 58E0 80B4/0DEE       02790 22482                       ACALL TIMERPRG            Delete any timers
                                   22486
 002714 4150 C294            00294 22487                       LA    R5,CVFEBQH-(FEBLINK-FEB)  dummy first entry
 002718                            22488                       LOOP  BEGIN
 DROP   FEB,R11                    22494  1                      WITH  (FEB,R5)
 USING  FEB,R5
 002718 1845                       22515  1                      LR    R4,R5               Prev ptr
 00271A 5850 5008/1255_      00008 22516  1                      WHILE ('LT R5,FEBLINK',NZ)
 002724 19B5/4780 805E             22533  1                      IF    (FEBR,EQ,R5),FREEFEBQ
 00272A 47F0 803C            02718 22551                       END
 USING  FEB,R11
 DROP   FEB,R5
 00272E FEDC08/C2818440C_          22570                       FAIL  'Bad FEBQ'          FEB not on queue
                                   22575
 002739 00
 00273A 58F0 B008            00008 22576              FREEFEBQ L     R15,FEBLINK         Next entry
 00273E 50F0 4008            00008 22577                       ST    R15,FEBLINK-FEB(,R4)  dequeue
                                   22578
 002742 5810 B098/1211_      00098 22579                       IF    ('LT R1,FEBPATP',NZ),'VCALL FREECORE; CLEAR FEBPATP'
                                   22611
 002758 D603 B09C B09C_0009C 0009C 22612                       IF    (FEBTRCP,NZ),'LA R15,FEBTRCP; ACALL FREETRC'
                                   22638
 00276C D203 B000 80C0 00000 0279C 22639                       MVC   FEB(4),=C'OFEB'
 002772 181B                       22640                       LR    R1,FEBR
 002774 58E0 80B8/0DEE       02794 22641                       VCALL FREECORE
                                   22645
 00277A 1BFF                       22646                       CLEAR R15                 (neatness)
 00277C 41D0 D030/982B_      00030 22650                       PEND
 DROP   FEB,R11
 DROP   *,R8
                                   22675                       QLTORG
1MAIN     (MAIN2047) (12:35) (15MAR04) Subroutines                                                                          Page   82
0Current Usings:  (CV,R12)
0Loc    Object Code    Addr1 Addr2  Stmt Lv Lineno    Source Statement           (Hibal 5, Asmedit 3.3)  HLASM R4.0  2004/03/15 12.35
+___    ______ ____    _____ _____  ____ __ ______    ______ _________
0                                  22694              ¿þþþþþþþþþþþþþþþþþþþþþþþþþþþþþþþþþþþþþþþþþþþþþþþþþþþþþþþþþþþþþþþþþþþþþÜ
                                   22695              Ÿ                                                                     Ÿ
                                   22696              Ÿ  GETPIB -- Routine to get PIB.                                      Ÿ
                                   22697              Ÿ                                                                     Ÿ
                                   22698              Ÿ    On entry:                                                        Ÿ
                                   22699              Ÿ      R0 - PIB length                                                Ÿ
                                   22700              Ÿ                                                                     Ÿ
                                   22701              Ÿ    On exit:                                                         Ÿ
                                   22702              Ÿ      R1 - new PIB ptr                                               Ÿ
                                   22703              Ÿ                                                                     Ÿ
                                                      ¾þþþþþþþþþþþþþþþþþþþþþþþþþþþþþþþþþþþþþþþþþþþþþþþþþþþþþþþþþþþþþþþþþþþþþ»
00027A6 50E0 D044/902B_      00044 22704              GETPIB   XPROC
 USING  *,R8
 0027C0 5900 8060/47B0_      02810 22742                       FAIL  (R0,LT,L'PIB),'GETPIB length error.'
                                   22768
 0027E0 4110 0011            00011 22769                       LA    R1,PIBSUBPL
 0027E4 182E                       22770                       LR    R2,RAR
 0027E6 58E0 8064/0DEE       02814 22771                       VCALL NGETCORE
                                   22775
 USING  PIB,R1                     22776                       WITH  (PIB,R1)
 0027EC 1821                       22789                       LR    R2,R1               PIB
 0027EE 1830                       22790                       LR    R3,R0               Len
 0027F0 1BFF                       22791                       CLEAR R15
 0027F2 0E2E                       22795                       MVCL  R2,R14              Zero PIB
 0027F4 D203 1000 8068 00000 02818 22796                       MVC   PIB(4),=CL4'PIB'
                                   22797
 0027FA 1BFF                       22798                       CLEAR R15                 (Neatness)
 0027FC 41D0 D030/982B_      00030 22802                       PEND
 DROP   PIB,R1
 DROP   *,R8
                                   22827                       QLTORG
1MAIN     (MAIN2047) (12:35) (15MAR04) Subroutines                                                                          Page   83
0Current Usings:  (CV,R12)
0Loc    Object Code    Addr1 Addr2  Stmt Lv Lineno    Source Statement           (Hibal 5, Asmedit 3.3)  HLASM R4.0  2004/03/15 12.35
+___    ______ ____    _____ _____  ____ __ ______    ______ _________
0                                  22844              ¿þþþþþþþþþþþþþþþþþþþþþþþþþþþþþþþþþþþþþþþþþþþþþþþþþþþþþþþþþþþþþþþþþþþþþÜ
                                   22845              Ÿ                                                                     Ÿ
                                   22846              Ÿ  FREEPIB -- Routine to free PIB.                                    Ÿ
                                   22847              Ÿ                                                                     Ÿ
                                   22848              Ÿ    On entry:                                                        Ÿ
                                   22849              Ÿ      R1 - PIB ptr                                                   Ÿ
                                   22850              Ÿ                                                                     Ÿ
                                                      ¾þþþþþþþþþþþþþþþþþþþþþþþþþþþþþþþþþþþþþþþþþþþþþþþþþþþþþþþþþþþþþþþþþþþþþ»
000281E 50E0 D044/902B_      00044 22851              FREEPIB  XPROC
 USING  *,R8
 002838 18A1                       22889                       LR    PIBR,R1
 USING  PIB,R10                    22890                       WITH  PIB
 00283A D502 80FA A000_02922 00000 22902                       FAIL  (PIB,NE,'PIB'),'FREEPIB error.'
 002856 D603 A00C A00C_0000C 0000C 22928                       FAIL  (PIBSCBP,NZ),'FREEPIB SCB error.'
                                   22953                      ¿þþþþþþþþþþþþþþþþþþþþþþþþþþþþþþþþþþþþþþþþþþþþþþþþþþþþþþþþþþþþþþþþÜ
                                   22954                      Ÿ   The FEB contains an address table of PIBs (called the PAT);  Ÿ
                                   22955                      Ÿ  in order to free the PIB we must also remove it's pointer in  Ÿ
                                   22956                      Ÿ   the PAT.                                                     Ÿ
                                   22957                      ¾þþþþþþþþþþþþþþþþþþþþþþþþþþþþþþþþþþþþþþþþþþþþþþþþþþþþþþþþþþþþþþþþ»
 002876 58B0 A008/12BB       00008 22958                       LT    FEBR,PIBFEBP        This port's FEB
 00287C 4780 80A4            028CC 22962                       IF    NZ,BEGIN            OK...
 USING  FEB,R11                    22973  1                      WITH  FEB
 002880 D502 80FD B000_02925 00000 22985  1                      FAIL  (FEB,NE,'FEB'),'Bad FEB ptr.'
                                   23011  1
 00289A 4820 A004            00004 23012  1                      LH    R2,PIBNO            Port number
 00289E 8920 0002            00002 23013  1                      SLL   R2,2                Times 4
 0028A2 5A20 B098            00098 23014  1                      A     R2,FEBPATP          Address in PAT of this PIB
 0028A6 58F0 2000/12FF       00000 23015  1                      LT    R15,@R2             PIB ptr from PAT
 0028AC 4780 80A4            028CC 23019  1                      IF    NZ,BEGIN            We have something...
 0028B0 19AF/4780 809E_            23030  2                        FAIL  (PIBR,NE,R15),'Bad PIB ptr.'
 0028C6 D703 2000 2000 00000 00000 23054  2                        CLEAR (@R2,4)             Zero PIB ptr in PAT
 0028CC                            23061  1                      END
 DROP   FEB,R11                    23065                       END
                                   23074                       ¿þþþþþþþþþþþþþþþþþþþþþþþþþþþþþþþþþþþþþþþþþþþþþþþþþþþþþþþþþþþÜ
                                   23075                       Ÿ  Delete any timers that may have been set for this port.  Ÿ
                                   23076                       ¾þþþþþþþþþþþþþþþþþþþþþþþþþþþþþþþþþþþþþþþþþþþþþþþþþþþþþþþþþþþ»
 0028CC 4110 A000            00000 23077                       LA    R1,PIB
 0028D0 58E0 80E8/0DEE       02910 23078                       ACALL TIMERPRG            Delete any timers
                                   23082                       ¿þþþþþþþþþþþþþþþþþþþþþþþþþÜ
                                   23083                       Ÿ  Free PIB trace table.  Ÿ
                                   23084                       ¾þþþþþþþþþþþþþþþþþþþþþþþþþ»
 0028D6 D603 A090 A090_00090 00090 23085                       IF    (PIBTRCP,NZ),'LA R15,PIBTRCP; ACALL FREETRC'
                                   23111                       ¿þþþþþþþþþþþþþþþþþÜ
                                   23112                       Ÿ  Free the PIB.  Ÿ
                                   23113                       ¾þþþþþþþþþþþþþþþþþ»
 0028EA D203 A000 80F0 00000 02918 23114                       MVC   PIB(4),=C'OPIB'
 0028F0 4110 A000            00000 23115                       LA    R1,PIB
 0028F4 58E0 80F4/0DEE       0291C 23116                       VCALL FREECORE
                                   23120
 0028FA 1BFF                       23121                       CLEAR R15                 (neatness)
 0028FC 41D0 D030/982B_      00030 23125                       PEND
 DROP   PIB,R10
 DROP   *,R8
1MAIN     (MAIN2047) (12:35) (15MAR04) Subroutines                                                                          Page   84
0Current Usings:  (CV,R12)
0Loc    Object Code    Addr1 Addr2  Stmt Lv Lineno    Source Statement           (Hibal 5, Asmedit 3.3)  HLASM R4.0  2004/03/15 12.35
+___    ______ ____    _____ _____  ____ __ ______    ______ _________
0                                  23150                       QLTORG
1MAIN     (MAIN2047) (12:35) (15MAR04) Subroutines                                                                          Page   85
0Current Usings:  (CV,R12)
0Loc    Object Code    Addr1 Addr2  Stmt Lv Lineno    Source Statement           (Hibal 5, Asmedit 3.3)  HLASM R4.0  2004/03/15 12.35
+___    ______ ____    _____ _____  ____ __ ______    ______ _________
0                                  23170              ¿þþþþþþþþþþþþþþþþþþþþþþþþþþþþþþþþþþþþþþþþþþþþþþþþþþþþþþþþþþþþþþþþþþþþþÜ
                                   23171              Ÿ                                                                     Ÿ
                                   23172              Ÿ  GETSCB -- Routine to get SCB.                                      Ÿ
                                   23173              Ÿ                                                                     Ÿ
                                   23174              Ÿ    On entry:                                                        Ÿ
                                   23175              Ÿ      R0 - SCB length                                                Ÿ
                                   23176              Ÿ      R1 - PIB ptr (SCB will be linked to this PIB)                  Ÿ
                                   23177              Ÿ                                                                     Ÿ
                                   23178              Ÿ    On exit:                                                         Ÿ
                                   23179              Ÿ      R1 - new SCB ptr                                               Ÿ
                                   23180              Ÿ                                                                     Ÿ
                                                      ¾þþþþþþþþþþþþþþþþþþþþþþþþþþþþþþþþþþþþþþþþþþþþþþþþþþþþþþþþþþþþþþþþþþþþþ»
0002928 50E0 D044/902B_      00044 23181              GETSCB   XPROC
 USING  *,R8
 002942 18A1                       23219                       LR    PIBR,R1
 USING  PIB,R10                    23220                       WITH  PIB
 002944 D502 81FE A000_02B30 00000 23232                       FAIL  (PIB,NE,'PIB'),'Bad PIB ptr.'
 00295E 58B0 A008            00008 23258                       L     FEBR,PIBFEBP
 USING  FEB,R11                    23259                       WITH  FEB
 002962 D502 8201 B000_02B33 00000 23271                       FAIL  (FEB,NE,'FEB'),'Bad FEB ptr.'
                                   23297
 00297C 5900 81DE/4780_      02B10 23298                       FAIL  (R0,NE,L'SCB),'GETSCB length error.'
 00299C 1830                       23324                       LR    R3,R0
                                   23325
 00299E 5850 C2BC            002BC 23326                       L     R5,CVSATP           Start of session address table
 0029A2 4860 C390            00390 23327                       LH    R6,CVMAXSES
 0029A6 8960 0002            00002 23328                       SLL   R6,2
 0029AA 1A65                       23329                       AR    R6,R5
 0029AC 1BFF                       23330                       CLEAR R15                 (For loop)
 0029AE 1956/47B0 8092             23334                       WHILE (R5,LT,R6),BEGIN
 0029B4 59F0 5000/4780_      00000 23351  1                      IF    ('C R15,@R5',EQ),GOTSATP  Free entry
 0029BC 4150 5004            00004 23367  1                      LA    R5,@R5+4
 0029C0 47F0 807C            029AE 23368                       END
 0029C4 FEDC12/E39696409_          23373                       FAIL  'Too many sessions.'  Not enough sessions genned
                                   23378
 0029D9 00
 0029DA 1845                       23379              GOTSATP  LR    R4,R5
 0029DC 5B40 C2BC            002BC 23380                       S     R4,CVSATP
 0029E0 8840 0002            00002 23381                       SRL   R4,2                Session index number
 0029E4 41F0 81B6            02AE8 23382                       LA    R15,SCBCELLS        Obtain SCB from the pool
 0029E8 58E0 81E2/0DEE       02B14 23383                       VCALL GETPOOL
 0029EE 1891                       23387                       LR    SCBR,R1
 USING  SCB,R9                     23388                       WITH  SCB
 0029F0 18E9/18F3/1B11_            23400                       ZOT   SCB,(R3)
 0029F8 D203 9000 81E6 00000 02B18 23415                       MVC   SCB(4),=CL4'SCB'
 0029FE 41F0 0001            00001 23416                       LA    R15,1
 002A02 5AF0 C2B8            002B8 23417                       A     R15,CVSCBID
 002A06 50F0 90F4            000F4 23418                       ST    R15,SCBID           Unique session number
 002A0A 50F0 C2B8            002B8 23419                       ST    R15,CVSCBID
 002A0E 4040 90F8            000F8 23420                       STH   R4,SCBNO            Save index number
 002A12 41F0 9024            00024 23421                       LA    R15,SCBAWRQH        Async write queue head
 002A16 50F0 9028            00028 23422                       ST    R15,SCBAWRQT        Make tail accurate
                                   23423
1MAIN     (MAIN2047) (12:35) (15MAR04) Subroutines                                                                          Page   86
0Current Usings:  (*,R8) (SCB,R9) (PIB,R10) (FEB,R11) (CV,R12)
0Loc    Object Code    Addr1 Addr2  Stmt Lv Lineno    Source Statement           (Hibal 5, Asmedit 3.3)  HLASM R4.0  2004/03/15 12.35
+___    ______ ____    _____ _____  ____ __ ______    ______ _________
0002A1A 58F0 C2B4            002B4 23424                       L     R15,CVSCBQH         SCB queue head
 002A1E 50F0 9004            00004 23425                       ST    R15,SCBLINK
 002A22 5090 C2B4            002B4 23426                       ST    SCBR,CVSCBQH        Put new entry at start
                                   23427
 002A26 5090 5000            00000 23428                       ST    SCBR,@R5            Put addr in SAT
                                   23429
 002A2A 5090 A00C            0000C 23430                       ST    SCBR,PIBSCBP        Link SCB to PIB
 002A2E 50A0 9008            00008 23431                       ST    PIBR,SCBPIBP        Link PIB to SCB
 002A32 D200 90FC B00D 000FC 0000D 23432                       MVC   SCBTYPE,FEBTYPE     Set front-end type
 002A38 9180 A066/47E0_00066       23433                       IF    PIBFPS,'SET SCBSFPS'  Set pseudo session
 002A44 9110 A066/47E0_00066       23459                       IF    PIBFSEC,'SET SCBSFSEC'  Set secure session
 002A50 9120 A066/47E0_00066       23485                       IF    PIBFOP,'SET SCBSFOP'  Set operator session
 002A5C 9108 A066/47E0_00066       23511                       IF    PIBFSESTRC,'SET SCBFTRC'  Set session tracing
 002A68 9104 A066/47E0_00066       23537                       IF    PIBFSESKEEP,'SET SCBFKEEP'  Set to keep corpse
 002A74 9160 A065/4780_00065       23563                       IF    PIBFTEL+PIBFTYM,'SET SCBFNECH'  Noecho default
 002A80 D207 914A A019 0014A 00019 23592                       MVC   SCBTID,PIBTID       Set terminal id
 002A86 D204 9124 A021 00124 00021 23593                       MVC   SCBACCT,PIBDFACT    Set default account (if any)
 002A8C D604 9124 9124_00124 00124 23594                       IF    (SCBACCT,NZ),BEGIN  Pre-logged on...
 002A96 58E0 81EA/0DEE       02B1C 23610  1                      ACALL MAKESTAG            Make a session tag
 002A9C 4110 9000            00000 23614  1                      LA    R1,SCB
 002AA0 58E0 81EE/0DEE       02B20 23615  1                      ACALL INCRSES             Count the logged on user
 002AA6                            23619                       END
                                   23623
 002AA6 9680 9168      00168       23624                       SET   SCBFUPL             Set uplow default
 002AAA 9680 915C      0015C       23630                       SET   SCBFVFAST           Set VFAST default
 002AAE D201 9188 81FC 00188 02B2E 23636                       MVC   SCBWID,=H'80'       Width
 002AB4 D203 918A 81F2 0018A 02B24 23637                       MVC   SCBHEIP(4),=H'0,24' Pause height, actual
 002ABA D200 9102 A026 00102 00026 23638                       MVC   SCBTETYP,PIBTETYP   Save SMF port type
                                   23639
 002AC0 4800 90F8            000F8 23640                       LH    R0,SCBNO
 002AC4 58E0 81F6/0DEE       02B28 23641                       ACALL SINEALLO            Create SIN in ECSA
 002ACA 5010 9014            00014 23645                       ST    R1,SCBSINP          Save our SIN ptr in SCB
                                   23646
 002ACE 1819                       23647                       LR    R1,SCBR
 002AD0 1BFF                       23648                       CLEAR R15                 (Neatness)
 002AD2 41D0 D030/982B_      00030 23652                       PEND
 DROP   SCB,R9
 DROP   FEB,R11
 DROP   PIB,R10
 DROP   *,R8
 002AE8 C3C5D3D3C2D3D6D2_          23687              SCBCELLS CELLBLOK SIZE=L'SCB,SUBPOOL=SCBSUBPL
                                   23698                       QLTORG
1MAIN     (MAIN2047) (12:35) (15MAR04) Subroutines                                                                          Page   87
0Current Usings:  (CV,R12)
0Loc    Object Code    Addr1 Addr2  Stmt Lv Lineno    Source Statement           (Hibal 5, Asmedit 3.3)  HLASM R4.0  2004/03/15 12.35
+___    ______ ____    _____ _____  ____ __ ______    ______ _________
0                                  23722              ¿þþþþþþþþþþþþþþþþþþþþþþþþþþþþþþþþþþþþþþþþþþþþþþþþþþþþþþþþþþþþþþþþþþþþþÜ
                                   23723              Ÿ                                                                     Ÿ
                                   23724              Ÿ  MAKESTAG -- Local routine to make a new session tag.  The tag      Ÿ
                                   23725              Ÿ    must be a unique identification of this session for all time.    Ÿ
                                   23726              Ÿ                                                                     Ÿ
                                   23727              Ÿ    Note added by MPD: Which this is not ("unique") as implied       Ÿ
                                   23728              Ÿ                       above.                                        Ÿ
                                   23729              Ÿ                                                                     Ÿ
                                   23730              Ÿ    The session tag is a 16 character field of the form:             Ÿ
                                   23731              Ÿ                                                                     Ÿ
                                   23732              Ÿ           A9075-1204-00001                                          Ÿ
                                   23733              Ÿ           ^   ^    ^     ^                                          Ÿ
                                   23734              Ÿ           |   |    |     *---- session counter (reset on IPL)       Ÿ
                                   23735              Ÿ           |   |    *---------- hh:mm of last ipl                    Ÿ
                                   23736              Ÿ           |   *--------------- current date                         Ÿ
                                   23737              Ÿ           *------------------- machine ID                           Ÿ
                                   23738              Ÿ                                                                     Ÿ
                                                      ¾þþþþþþþþþþþþþþþþþþþþþþþþþþþþþþþþþþþþþþþþþþþþþþþþþþþþþþþþþþþþþþþþþþþþþ»
0000000                00000 00018 23739              MTWA     RECORD BEGIN
 000000                            23747  1           MTDOUB     DS    D                   Working doubleword
 000008                            23748  1           MTTEMP     DS    CL16                Formatting work area
 000018                00018 00018 23749                       END
                                   23758              þþþþ
 002B36 50E0 D044/902B_      00044 23759              MAKESTAG XPROC MTWA
 USING  *,R8
 USING  MTWA-@@,R13
 USING  SCB,R9                     23808                       WITH  SCB
 002B50 D502 813A 9000_02C7A 00000 23820                       FAIL  (SCB,NE,'SCB'),'MAKESTAG error.'
                                   23846
 002B6C 5860 0010            00010 23847                       L     R6,CVTPTR
 USING  CVT,R6                     23848                       WITH  (CVT,R6)
                                   23861
 002B70 D20F 9080 8100 00080 02C40 23862                       MVC   SCBSTAG,=C'X????-XXXX-00000'  Preset
                                   23863
 002B76 5810 60C4            000C4 23864                       L     R1,CVTSMCA          SMF SMCA ptr
 002B7A D200 9080 1013 00080 00013 23865                       WITH  (SMCABASE,R1),'MVC SCBSTAG(1),SMCASID+3'  System-id
 USING  SMCABASE,R1
 DROP   SMCABASE,R1
                                   23889
 002B80 58E0 8110/0DEE       02C50 23890                       VCALL LOCALTOD            Want current date
 002B86 58E0 8114/0DEE       02C54 23894                       VCALL TIMEDATE            Get date (0yyyyddd)
 002B8C 1851                       23898                       LR    R5,R1               Save current date for later
 002B8E D707 D04C D04C 00000 00000 23899                       CLEAR MTDOUB
                                   23906              *
                                   23907              *  Convert the 0YYYYDDD to the old style 00YYDDDF format
                                   23908              *
 002B94 8910 0004            00004 23909                       SLL   R1,4                Make room for packed sign
 002B98 5010 D050            00004 23910                       ST    R1,MTDOUB+4
 002B9C 9200 D050      00004       23911                       MVI   MTDOUB+4,0          Clear out century
 002BA0 960F D053      00007       23912                       OI    MTDOUB+7,X'0F'      Add in packed sign
                                   23913
 002BA4 4FF0 D04C            00000 23914                       CVB   R15,MTDOUB          Get "yyddd" in binary
 002BA8 5AF0 8118            02C58 23915                       A     R15,=A(100000)      Insure high order zeros
1MAIN     (MAIN2047) (12:35) (15MAR04) Subroutines                                                                          Page   88
0Current Usings:  (CVT,R6) (*,R8) (SCB,R9) (CV,R12) (MTWA-@@,R13)
0Loc    Object Code    Addr1 Addr2  Stmt Lv Lineno    Source Statement           (Hibal 5, Asmedit 3.3)  HLASM R4.0  2004/03/15 12.35
+___    ______ ____    _____ _____  ____ __ ______    ______ _________
0002BAC 4100 0004/4110_      00004 23916                       BTD   SCBSTAG+1,4,(R15)   Add "yddd" to session tag
                                   23938                       ¿þþþþþþþþþþþþþþþþþþþþþþþþþþþþþþþþþþþþþþþþþþþþþþþþþþþþþþþþþþþÜ
                                   23939                       Ÿ  We need the SCIPCVT to finish building the session tag.  Ÿ
                                   23940                       ¾þþþþþþþþþþþþþþþþþþþþþþþþþþþþþþþþþþþþþþþþþþþþþþþþþþþþþþþþþþþ»
 002BBA 5840 60CC            000CC 23941                       L     R4,CVTUSER          SCIPCVT ptr
 USING  USERCVT,R4                 23942                       WITH  (USERCVT,R4)
                                   23955
 002BBE D503 8120 4000_02C60 00000 23956                       IF    (USERCVT,EQ,'SCIP'),BEGIN  Must be genuine...
 002BC8 9801 401C            0001C 23973  1                      LM    R0,R1,USEIPLTM      Get IPL time/date
 002BCC 41F0 D054            00008 23974  1                      LA    R15,MTTEMP          Put "hh:mm:ss.hh" here
 002BD0 58E0 8124/0DEE       02C64 23975  1                      VCALL FMTTIME
 002BD6 D201 9086 D054 00086 00008 23979  1                      MVC   SCBSTAG+6(2),MTTEMP   IPL hour
 002BDC D201 9088 D057 00088 0000B 23980  1                      MVC   SCBSTAG+8(2),MTTEMP+3  IPL minutes
                                   23981  1
 002BE2 58E0 8128/0DEE       02C68 23982  1                      VCALL KEYZERO             ********
 002BE8                            23986  1                      LOOP  BEGIN
 002BE8 5820 405C            0005C 23992  2                        L     R2,USEACTR          Current session number counter
 002BEC 1832                       23993  2                        LR    R3,R2
 002BEE 5950 4060/4780_      00060 23994  2                        IF    (R5,NE,USEADATE),'CLEAR R3; ST R5,USEADATE'  Reset
 002BFC 5A30 812C            02C6C 24021  2                        A     R3,=F'1'            Kick counter by 1
 002C00 BA23 405C            0005C 24022  2                        CS    R2,R3,USEACTR       Update the SCIPCVT field
 002C04 4780 80CC            02C0C 24023  2                        UNTIL EQ
 002C08 47F0 80A8            02BE8 24038  1                      END
 002C0C 58E0 8130/0DEE       02C70 24043  1                      VCALL KEYNZERO            ********
                                   24047  1
 002C12 5E30 8134            02C74 24048  1                      AL    R3,=F'100000'       Force high order zeros
 002C16 18F3/4100 0005_            24049  1                      BTD   SCBSTAG+11,5,(R3)   Add session number
 002C26                            24072                       END
                                   24076
 002C26 41D0 D048/982B_      00048 24077                       PEND
 DROP   USERCVT,R4
 DROP   CVT,R6
 DROP   SCB,R9
 DROP   MTWA-@@,R13
 DROP   *,R8
                                   24118                       QLTORG
1MAIN     (MAIN2047) (12:35) (15MAR04) Subroutines                                                                          Page   89
0Current Usings:  (CV,R12)
0Loc    Object Code    Addr1 Addr2  Stmt Lv Lineno    Source Statement           (Hibal 5, Asmedit 3.3)  HLASM R4.0  2004/03/15 12.35
+___    ______ ____    _____ _____  ____ __ ______    ______ _________
0                                  24144              ¿þþþþþþþþþþþþþþþþþþþþþþþþþþþþþþþþþþþþþþþþþþþþþþþþþþþþþþþþþþþþþþþþþþþþþÜ
                                   24145              Ÿ                                                                     Ÿ
                                   24146              Ÿ  FREESCB -- Routine to free SCB.                                    Ÿ
                                   24147              Ÿ                                                                     Ÿ
                                   24148              Ÿ    On entry:                                                        Ÿ
                                   24149              Ÿ      R1 - SCB ptr                                                   Ÿ
                                   24150              Ÿ                                                                     Ÿ
                                                      ¾þþþþþþþþþþþþþþþþþþþþþþþþþþþþþþþþþþþþþþþþþþþþþþþþþþþþþþþþþþþþþþþþþþþþþ»
0002C7E 50E0 D044/902B_      00044 24151              FREESCB  XPROC
 USING  *,R8
 002C98 1891                       24189                       LR    SCBR,R1
 USING  SCB,R9                     24190                       WITH  SCB
 002C9A D502 81D4 9000_02E5C 00000 24202                       FAIL  (SCB,NE,'SCB'),'FREESCB error.'
                                   24228                       ¿þþþþþþþþþþþþþþþþþþþþþþþþþþþþþþÜ
                                   24229                       Ÿ  Delete any session timers.  Ÿ
                                   24230                       ¾þþþþþþþþþþþþþþþþþþþþþþþþþþþþþþ»
 002CB6 4110 9000            00000 24231                       LA    R1,SCB
 002CBA 58E0 81A0/0DEE       02E28 24232                       ACALL TIMERPRG            Delete any session timers
                                   24236                       ¿þþþþþþþþþþþþþþþþþþþþþþþþþþþþþþÜ
                                   24237                       Ÿ  Remove SCB linkage in PIB.  Ÿ
                                   24238                       ¾þþþþþþþþþþþþþþþþþþþþþþþþþþþþþþ»
 002CC0 5850 9008/1255       00008 24239                       LT    R5,SCBPIBP          Session ptr to PIB
 002CC6 4780 806A            02CF2 24243                       IF    NZ,BEGIN            We have one...
 USING  PIB,R5                     24254  1                      WITH  (PIB,R5)
 002CCA D502 81D7 5000_02E5F 00000 24267  1                      IF    (PIB,NE,'PIB'),'QSNAP "FREESCB ptr error."'
 002CDC D502 81D7 5000_02E5F 00000 24294  1                      IF    (PIB,NE,'PIB'),EXIT
 002CE6 D703 9008 9008_00008 00008 24314  1                      CLEAR SCBPIBP,PIBSCBP     Remove queue ptrs
 DROP   PIB,R5                     24326                       END
                                   24335                       ¿þþþþþþþþþþþþþþþþÜ
                                   24336                       Ÿ  Tidy up SCB.  Ÿ
                                   24337                       ¾þþþþþþþþþþþþþþþþ»
 002CF2 D207 9104 C4B8 00104 004B8 24338                       MVC   SCBSUB,CVMNAME      Set 'Milten' as subsystem name
                                   24339                       ¿þþþþþþþþþþþþþþþþþþþþþþþþþþþþþþþþþþþþþþþþþþþþþþþþþþþþþþþþÜ
                                   24340                       Ÿ  Keep the session around (so the trace buffers remain  Ÿ
                                   24341                       Ÿ    available) if requested.                            Ÿ
                                   24342                       ¾þþþþþþþþþþþþþþþþþþþþþþþþþþþþþþþþþþþþþþþþþþþþþþþþþþþþþþþþ»
 002CF8 9140 915F/47E0_0015F       24343                       IF    SCBFKEEP,BEGIN      Keep session around...
 002D00 94BF 915F/947F_0015F       24358  1                      CLEAR SCBFKEEP,SCBFTRC    Reset flags
 002D08 9602 90FF      000FF       24370  1                      SET   SCBFKEPT            Mark session as "kept"
                                   24376  1
 002D0C 5820 C06C            0006C 24377  1                      L     R2,CVKSCBS          Get oldest kept SCB ptr
 002D10 D2C3 C06C C070 0006C 00070 24378  1                      MVC   CVKSCBS(CVKSCBLEN-4),CVKSCBS+4  Move everyone up
 002D16 5090 C130            00130 24379  1                      ST    SCBR,CVKSCBS+CVKSCBLEN-4  Save our SCB at bot of Q
                                   24380  1
 002D1A 1292                       24381  1                      LTR   SCBR,R2             Finish up freeing this SCB now
 002D1C 4780 818A            02E12 24382  1                      IF    Z,FSCBEXIT          Nothing to free, all done
 002D20 D502 81D4 9000_02E5C 00000 24396  1                      FAIL  (SCB,NE,'SCB'),'FREESCB kept error.'
 002D40                            24422                       END
1MAIN     (MAIN2047) (12:35) (15MAR04) Subroutines                                                                          Page   90
0Current Usings:  (*,R8) (SCB,R9) (CV,R12)
0Loc    Object Code    Addr1 Addr2  Stmt Lv Lineno    Source Statement           (Hibal 5, Asmedit 3.3)  HLASM R4.0  2004/03/15 12.35
+___    ______ ____    _____ _____  ____ __ ______    ______ _________
0                                  24426                       ¿þþþþþþþþþþþþþþþþþþþþþþþþþþþþþþþþþþþþþþþþþþþþþþþþþþþþþþþþþþþþþÜ
                                   24427                       Ÿ  If we are trying to free a KEPT session then take the SCB  Ÿ
                                   24428                       Ÿ    ptr out of the kept list.                                Ÿ
                                   24429                       ¾þþþþþþþþþþþþþþþþþþþþþþþþþþþþþþþþþþþþþþþþþþþþþþþþþþþþþþþþþþþþþ»
 002D40 9102 90FF/47E0_000FF       24430                       IF    SCBFKEPT,BEGIN      Get rid of kept SCB's ptr...
 002D48 4120 C06C            0006C 24445  1                      LA    R2,CVKSCBS          Start of kept SCB list
 002D4C 4130 C134            00134 24446  1                      LA    R3,CVKSCBS+CVKSCBLEN  End of list
 002D50 1923/47B0 80E6             24447  1                      WHILE (R2,LT,R3),BEGIN    Go through list...
 002D56 58F0 2000            00000 24464  2                        L     R15,@R2             Get SCB ptr
 002D5A 19F9/4770 80DE_            24465  2                        IF    (R15,EQ,SCBR),'CLEAR (@R2,4)'  Zero ptr
 002D66 4120 2004            00004 24492  2                        LA    R2,@R2+4            Next entry
 002D6A 47F0 80C8            02D50 24493  1                      END
 002D6E                            24498                       END
                                   24502                       ¿þþþþþþþþþþþþþþþþþþþþþþþþþþþÜ
                                   24503                       Ÿ  Free any trace buffers.  Ÿ
                                   24504                       ¾þþþþþþþþþþþþþþþþþþþþþþþþþþþ»
 002D6E 947F 915F      0015F       24505                       CLEAR SCBFTRC             No longer tracing
                                   24512
 002D72 D603 90DC 90DC_000DC 000DC 24513                       WHILE (SCBTRCQH,NZ),BEGIN  We have trace entries...
 002D7C 5820 90DC            000DC 24531  1                      L     R2,SCBTRCQH         Get first STRC entry
 USING  STRC,R2                    24532  1                      WITH  (STRC,R2)
 002D80 D203 90DC 2004 000DC 00004 24545  1                      MVC   SCBTRCQH,STRCLINK   De-queue this entry
 002D86 D603 90DC 90DC_000DC 000DC 24546  1                      IF    (SCBTRCQH,Z),'CLEAR SCBTRCQT'  No queue tail
                                   24574  1
 002D96 D203 2000 81A4 00000 02E2C 24575  1                      MVC   STRC(4),=C'strc'    Change control block ID
 002D9C D203 2004 81A8 00004 02E30 24576  1                      MVC   STRCLINK,=F'-1'     Zap link ptr (safety)
 002DA2 4110 2000            00000 24577  1                      LA    R1,STRC
 002DA6 58E0 81AC/0DEE       02E34 24578  1                      VCALL FREECORE            Release trace entry
 002DAC 47F0 80EA            02D72 24582                       END
 DROP   STRC,R2
                                   24592                       ¿þþþþþþþþþþþþþþþþþþþþþþþþþþþþþþþþþþþþþþþþÜ
                                   24593                       Ÿ  Remove ourselves from the SCB queue.  Ÿ
                                   24594                       ¾þþþþþþþþþþþþþþþþþþþþþþþþþþþþþþþþþþþþþþþþ»
 002DB0 4150 C2B0            002B0 24595                       LA    R5,CVSCBQH-(SCBLINK-SCB)  Dummy first entry
 002DB4                            24596                       LOOP  BEGIN
 DROP   SCB,R9                     24602  1                      WITH  (SCB,R5)
 USING  SCB,R5
 002DB4 1845                       24623  1                      LR    R4,R5
 002DB6 5850 5004/1255_      00004 24624  1                      WHILE ('LT R5,SCBLINK',NZ)
 002DC0 1995/4780 814E             24641  1                      IF    (SCBR,EQ,R5),FREESCBQ
 002DC6 47F0 812C            02DB4 24659                       END
 USING  SCB,R9
 DROP   SCB,R5
 002DCA FEDC08/C2818440E_          24678                       FAIL  'Bad SCBQ'          SCB not on queue
                                   24683
 002DD5 00
 002DD6 D203 4004 9004 00004 00004 24684              FREESCBQ MVC   SCBLINK-SCB(4,R4),SCBLINK  dequeue
 002DDC D203 9004 81A8 00004 02E30 24685                       MVC   SCBLINK,=F'-1'      Safety
                                   24686
 002DE2 4800 90F8            000F8 24687                       LH    R0,SCBNO
 002DE6 58E0 81B0/0DEE       02E38 24688                       ACALL SINEFREE            Release SIN entry in ECSA
                                   24692
 002DEC 48F0 90F8            000F8 24693                       LH    R15,SCBNO
 002DF0 89F0 0002            00002 24694                       SLL   R15,2
1MAIN     (MAIN2047) (12:35) (15MAR04) Subroutines                                                                          Page   91
0Current Usings:  (*,R8) (SCB,R9) (CV,R12)
0Loc    Object Code    Addr1 Addr2  Stmt Lv Lineno    Source Statement           (Hibal 5, Asmedit 3.3)  HLASM R4.0  2004/03/15 12.35
+___    ______ ____    _____ _____  ____ __ ______    ______ _________
0002DF4 5AF0 C2BC            002BC 24695                       A     R15,CVSATP          This SCB's SAT entry
 002DF8 D703 F000 F000 00000 00000 24696                       CLEAR (@R15,4)            Free entry
 002DFE D203 9000 81B4 00000 02E3C 24703                       MVC   SCB(4),=C'OSCB'
 002E04 4110 9000            00000 24704                       LA    R1,SCB
 002E08 58F0 81B8            02E40 24705                       L     R15,=A(SCBCELLS)
 002E0C 58E0 81BC/0DEE       02E44 24706                       VCALL FREEPOOL
                                   24710
 002E12 1BFF                       24711              FSCBEXIT CLEAR R15                 (Neatness)
 002E14 41D0 D030/982B_      00030 24716                       PEND
 DROP   SCB,R9
 DROP   *,R8
                                   24741                       QLTORG
1MAIN     (MAIN2047) (12:35) (15MAR04) Subroutines                                                                          Page   92
0Current Usings:  (CV,R12)
0Loc    Object Code    Addr1 Addr2  Stmt Lv Lineno    Source Statement           (Hibal 5, Asmedit 3.3)  HLASM R4.0  2004/03/15 12.35
+___    ______ ____    _____ _____  ____ __ ______    ______ _________
0                                  24766              ¿þþþþþþþþþþþþþþþþþþþþþþþþþþþþþþþþþþþþþþþþþþþþþþþþþþþþþþþþþþþþþþþþþþþþþÜ
                                   24767              Ÿ                                                                     Ÿ
                                   24768              Ÿ  SINTALLO -- Routine to initialize CSA session information table    Ÿ
                                   24769              Ÿ    This is an address table of SIN pointers for each session.       Ÿ
                                   24770              Ÿ                                                                     Ÿ
                                                      ¾þþþþþþþþþþþþþþþþþþþþþþþþþþþþþþþþþþþþþþþþþþþþþþþþþþþþþþþþþþþþþþþþþþþþþ»
0002E62 50E0 D044/902B_      00044 24771              SINTALLO PROC
 USING  *,R8
 002E7C D603 C068 C068_00068 00068 24807                       FAIL  (CVSITP,NZ),'CSA session table error.'
                                   24832              *
                                   24833              *         ACALL AMODE31             ********
                                   24834              *
 002EA2 4830 C390            00390 24835                       LH    R3,CVMAXSES         Max no. of sessions
 002EA6 8930 0002            00002 24836                       SLL   R3,2                Times 4
 002EAA 0700/47F0 8048_            24837                       GETMAIN RU,LV=(R3),SP=241,LOC=ANY  Get ECSA storage
 002EBE 5010 C068            00068 24850                       ST    R1,CVSITP           Save session table ptr
 002EC2 1821                       24851                       LR    R2,R1               For MVCL
 002EC4 1B11                       24852                       CLEAR R1
 002EC6 0E20                       24856                       MVCL  R2,R0               Initialize SIN table to zeros
                                   24857              *
                                   24858              *         ACALL AMODE24             ********
                                   24859              *
 002EC8 41D0 D030/982B_      00030 24860                       PEND
 DROP   *,R8
                                   24880                       QLTORG
1MAIN     (MAIN2047) (12:35) (15MAR04) Subroutines                                                                          Page   93
0Current Usings:  (CV,R12)
0Loc    Object Code    Addr1 Addr2  Stmt Lv Lineno    Source Statement           (Hibal 5, Asmedit 3.3)  HLASM R4.0  2004/03/15 12.35
+___    ______ ____    _____ _____  ____ __ ______    ______ _________
0                                  24894              ¿þþþþþþþþþþþþþþþþþþþþþþþþþþþþþþþþþþþþþþþþþþþþþþþþþþþþþþþþþþþþþþþþþþþþþÜ
                                   24895              Ÿ                                                                     Ÿ
                                   24896              Ÿ  SINTFREE -- Routine to free CSA session information table.         Ÿ
                                   24897              Ÿ    This routine also checks for any straggling session entries      Ÿ
                                   24898              Ÿ    and frees those too.                                             Ÿ
                                   24899              Ÿ                                                                     Ÿ
                                                      ¾þþþþþþþþþþþþþþþþþþþþþþþþþþþþþþþþþþþþþþþþþþþþþþþþþþþþþþþþþþþþþþþþþþþþþ»
0002EE2 50E0 D044/902B_      00044 24900              SINTFREE XPROC
 USING  *,R8
                                   24938                       ¿þþþþþþþþþþþþþþþþþþþþþþþþþþþþþþþþþþþþþþþþþþþþþþþþþþþþþþþþþþÜ
                                   24939                       Ÿ  Free session information table and session information  Ÿ
                                   24940                       Ÿ    entries if they have been initialized.                Ÿ
                                   24941                       ¾þþþþþþþþþþþþþþþþþþþþþþþþþþþþþþþþþþþþþþþþþþþþþþþþþþþþþþþþþþ»
                                   24942              *         ACALL AMODE31             ********
                                   24943              *
 002EFC D603 C068 C068_00068 00068 24944                       IF    (CVSITP,NZ),BEGIN   Free SIN table...
 002F06 5840 C068            00068 24960  1                      L     R4,CVSITP           Session info table ptr
                                   24961  1                      ¿þþþþþþþþþþþþþþþþþþþþþþþþþþþþþþþþþþþþþþþþþÜ
                                   24962  1                      Ÿ  Free any session information entries.  Ÿ
                                   24963  1                      ¾þþþþþþþþþþþþþþþþþþþþþþþþþþþþþþþþþþþþþþþþþ»
 002F0A 4830 C390            00390 24964  1                      LH    R3,CVMAXSES         Max no. of sessions
 002F0E 1233/47D0 806A             24965  1                      WHILE (R3,POS),BEGIN      Go through sessions...
 002F14 5850 4000            00000 24981  2                        L     R5,@R4              Any SIN for this session?
 002F18 1255/47D0 8060             24982  2                        IF    (R5,POS),BEGIN      Yes, free it...
 002F1E D703 4000 4000 00000 00000 24996  3                          CLEAR (@R4,4)             Zap SIN ptr
                                   25003  3
 USING  SIN,R5                     25004  3                          WITH  (SIN,R5)
 002F24 D502 80AA 5000_02F96 00000 25017  3                          IF    (SIN,EQ,'SIN'),BEGIN  It's a valid entry...
 002F2E D203 5000 80A4 00000 02F90 25034  4                            MVC   SIN(4),=C'ZSIN'     Change ID
 002F34 4120 5000            00000 25035  4                            LA    R2,SIN              SIN addr
 002F38 4800 5004            00004 25036  4                            LH    R0,SINLEN           SIN length
 002F3C 47F0 8058/00/0_      02F44 25037  4                            FREEMAIN RU,A=(R2),LV=(0),SP=241  Release this SIN
 002F4C                            25048  3                          END
 DROP   SIN,R5                     25052  2                        END
                                   25061  2
 002F4C 4140 4004            00004 25062  2                        LA    R4,@R4+4            Next SIN entry
 002F50 0630                       25063  2                        DECR  R3
 002F52 47F0 8022            02F0E 25065  1                      END
                                   25070  1                      ¿þþþþþþþþþþþþþþþþþþþþþþþþþþþþþþþþþþþþþþþþþþþÜ
                                   25071  1                      Ÿ  Now free the session information table.  Ÿ
                                   25072  1                      ¾þþþþþþþþþþþþþþþþþþþþþþþþþþþþþþþþþþþþþþþþþþþ»
 002F56 5820 C068            00068 25073  1                      L     R2,CVSITP           Session information table ptr
 002F5A 4800 C390            00390 25074  1                      LH    R0,CVMAXSES         Max no. of sessions
 002F5E 8900 0002            00002 25075  1                      SLL   R0,2                Times 4
 002F62 0700/47F0 8080_            25076  1                      FREEMAIN RU,A=(R2),LV=(0),SP=241  Free session table
                                   25087  1
 002F74 D703 C068 C068 00068 00068 25088  1                      CLEAR CVSITP              Neatness
 002F7A                            25095                       END
                                   25099              *
                                   25100              *         ACALL AMODE24             ********
 002F7A 41D0 D030/982B_      00030 25101                       PEND
 DROP   *,R8
                                   25121                       QLTORG
1MAIN     (MAIN2047) (12:35) (15MAR04) Subroutines                                                                          Page   94
0Current Usings:  (CV,R12)
0Loc    Object Code    Addr1 Addr2  Stmt Lv Lineno    Source Statement           (Hibal 5, Asmedit 3.3)  HLASM R4.0  2004/03/15 12.35
+___    ______ ____    _____ _____  ____ __ ______    ______ _________
0                                  25137              ¿þþþþþþþþþþþþþþþþþþþþþþþþþþþþþþþþþþþþþþþþþþþþþþþþþþþþþþþþþþþþþþþþþþþþþÜ
                                   25138              Ÿ                                                                     Ÿ
                                   25139              Ÿ  SINEALLO -- Routine to initialize CSA session information entry.   Ÿ
                                   25140              Ÿ                                                                     Ÿ
                                   25141              Ÿ    On entry:                                                        Ÿ
                                   25142              Ÿ       R0 - session number                                           Ÿ
                                   25143              Ÿ                                                                     Ÿ
                                   25144              Ÿ    On exit:                                                         Ÿ
                                   25145              Ÿ       R1 - newly created SIN ptr                                    Ÿ
                                   25146              Ÿ                                                                     Ÿ
                                                      ¾þþþþþþþþþþþþþþþþþþþþþþþþþþþþþþþþþþþþþþþþþþþþþþþþþþþþþþþþþþþþþþþþþþþþþ»
0002F9A 50E0 D044/902B_      00044 25147              SINEALLO PROC  (R2,LSR)
 USING  *,R8
 002FB4 1850                       25183                       LR    R5,R0               Save session number
 002FB6 1255/4740 8020_            25184                       FAIL  ((R5,NEG),OR,(R5,GE,CVMAXSES)),'SINEALLO error.'
                                   25223              *
                                   25224              *         ACALL AMODE31             ********
                                   25225                       ¿þþþþþþþþþþþþþþþþþþþþþþþþþþþþþþþþþþþþþþþþþþþþþþþþþþÜ
                                   25226                       Ÿ  Get new session information entry (from ECSA).  Ÿ
                                   25227                       ¾þþþþþþþþþþþþþþþþþþþþþþþþþþþþþþþþþþþþþþþþþþþþþþþþþþ»
 002FD6 4130 00E0            000E0 25228                       LA    R3,L'SIN
 002FDA 0700/47F0 8040_            25229                       GETMAIN RU,LV=(R3),SP=241,LOC=ANY  Get ECSA storage
 002FEE 1841                       25242                       LR    R4,R1               Save new SIN ptr
 002FF0 1821                       25243                       LR    R2,R1               For MVCL
 002FF2 1B11                       25244                       CLEAR R1
 002FF4 0E20                       25248                       MVCL  R2,R0               Initialize SIN table to zeros
                                   25249
 USING  SIN,R4                     25250                       WITH  (SIN,R4),BEGIN
 002FF6 D203 4000 80D4 00000 03078 25264  1                      MVC   SIN(4),=C'SIN '
 002FFC D201 4004 80DA 00004 0307E 25265  1                      MVC   SINLEN,=AL2(L'SIN)
 003002 4050 4006            00006 25266  1                      STH   R5,SINNO            Save session number
 DROP   SIN,R4                     25267                       END
                                   25275                       ¿þþþþþþþþþþþþþþþþþþþþþþþþþþþþþþþþþÜ
                                   25276                       Ÿ  Add SIN ptr to address table.  Ÿ
                                   25277                       ¾þþþþþþþþþþþþþþþþþþþþþþþþþþþþþþþþþ»
 003006 18F5                       25278                       LR    R15,R5
 003008 89F0 0002            00002 25279                       SLL   R15,2
 00300C 5820 C068            00068 25280                       L     R2,CVSITP
 003010 1222/4770 808E_            25281                       FAIL  (R2,Z),'SINEALLO table ptr error.'
 003032 1AF2                       25304                       AR    R15,R2
 003034 5810 F000            00000 25305                       L     R1,@R15             Get old SIN ptr from table
 003038 1211/4780 80B8_            25306                       FAIL  (R1,NZ),'SINEALLO table entry error.'
 00305C 5040 F000            00000 25329                       ST    R4,@R15             Save our SIN ptr in session table
                                   25330              *
                                   25331              *         ACALL AMODE24             ********
                                   25332              *
 003060 1814                       25333                       LR    R1,R4               Newly created SIN ptr
 003062 1BFF                       25334                       CLEAR R15                 (Neatness)
 003064 41D0 D030/982B_      00030 25338                       PEND
 DROP   *,R8
                                   25358                       QLTORG
1MAIN     (MAIN2047) (12:35) (15MAR04) Subroutines                                                                          Page   95
0Current Usings:  (CV,R12)
0Loc    Object Code    Addr1 Addr2  Stmt Lv Lineno    Source Statement           (Hibal 5, Asmedit 3.3)  HLASM R4.0  2004/03/15 12.35
+___    ______ ____    _____ _____  ____ __ ______    ______ _________
0                                  25374              ¿þþþþþþþþþþþþþþþþþþþþþþþþþþþþþþþþþþþþþþþþþþþþþþþþþþþþþþþþþþþþþþþþþþþþþÜ
                                   25375              Ÿ                                                                     Ÿ
                                   25376              Ÿ  SINEFREE -- Routine to free CSA session information entry.         Ÿ
                                   25377              Ÿ                                                                     Ÿ
                                   25378              Ÿ    On entry:                                                        Ÿ
                                   25379              Ÿ      R0 - session number                                            Ÿ
                                   25380              Ÿ                                                                     Ÿ
                                                      ¾þþþþþþþþþþþþþþþþþþþþþþþþþþþþþþþþþþþþþþþþþþþþþþþþþþþþþþþþþþþþþþþþþþþþþ»
0003080 50E0 D044/902B_      00044 25381              SINEFREE PROC
 USING  *,R8
 00309A 1850                       25417                       LR    R5,R0
 00309C 1255/4740 8020_            25418                       FAIL  ((R5,NEG),OR,(R5,GE,CVMAXSES)),'SINEFREE error.'
                                   25457              *
                                   25458              *         ACALL AMODE31             ********
                                   25459              *
 0030BC 18F5                       25460                       LR    R15,R5
 0030BE 89F0 0002            00002 25461                       SLL   R15,2
 0030C2 5EF0 C068            00068 25462                       AL    R15,CVSITP
 0030C6 5840 F000            00000 25463                       L     R4,@R15             Get SIN ptr from session table
 0030CA D703 F000 F000 00000 00000 25464                       CLEAR (@R15,4)            Zero SIN ptr in table
                                   25471
 USING  SIN,R4                     25472                       WITH  (SIN,R4)
 0030D0 D502 80A4 4000_0312E 00000 25485                       FAIL  (SIN,NE,'SIN'),'SINEFREE id error.'
                                   25511
 0030F0 D203 4000 809E 00000 03128 25512                       MVC   SIN(4),=C'OSIN'     Change ID
 0030F6 4120 4000            00000 25513                       LA    R2,SIN              SIN addr
 0030FA 4800 4004            00004 25514                       LH    R0,SINLEN           SIN length
 0030FE 0700/47F0 807E_            25515                       FREEMAIN RU,A=(R2),LV=(0),SP=241  Release this SIN
                                   25526              *
                                   25527              *         ACALL AMODE24             ********
 003110 41D0 D030/982B_      00030 25528                       PEND
 DROP   SIN,R4
 DROP   *,R8
                                   25553                       QLTORG
1MAIN     (MAIN2047) (12:35) (15MAR04) Subroutines                                                                          Page   96
0Current Usings:  (CV,R12)
0Loc    Object Code    Addr1 Addr2  Stmt Lv Lineno    Source Statement           (Hibal 5, Asmedit 3.3)  HLASM R4.0  2004/03/15 12.35
+___    ______ ____    _____ _____  ____ __ ______    ______ _________
0                                  25569              ¿þþþþþþþþþþþþþþþþþþþþþþþþþþþþþþþþþþþþþþþþþþþþþþþþþþþþþþþþþþþþþþþþþþþþþÜ
                                   25570              Ÿ                                                                     Ÿ
                                   25571              Ÿ  SINEUPD -- Local routine to update session information in CSA.     Ÿ
                                   25572              Ÿ    This routine gets called a lot so performance is a               Ÿ
                                   25573              Ÿ    consideration here.                                              Ÿ
                                   25574              Ÿ                                                                     Ÿ
                                                      ¾þþþþþþþþþþþþþþþþþþþþþþþþþþþþþþþþþþþþþþþþþþþþþþþþþþþþþþþþþþþþþþþþþþþþþ»
0003132 50E0 D044/902B_      00044 25575              SINEUPD  XPROC
 USING  *,R8
 USING  SCB,R9                     25613                       WITH  SCB                 (Entry assumptions)
 00314C D502 80CE 9000_0320A 00000 25625                       FAIL  (SCB,NE,'SCB'),'Bad SCB ptr'
                                   25651
 003164 5870 9014            00014 25652                       L     R7,SCBSINP
 USING  SIN,R7                     25653                       WITH  (SIN,R7)
                                   25666              *         ACALL AMODE31             ********
 003168 D502 80D1 7000_0320D 00000 25667                       FAIL  (SIN,NE,'SIN'),'SINEUPD error.'
                                   25693                       ¿þþþþþþþþþþþþþþþþþþþþþþþþþþþþþþþþþþþþþÜ
                                   25694                       Ÿ  Update basic session information.  Ÿ
                                   25695                       ¾þþþþþþþþþþþþþþþþþþþþþþþþþþþþþþþþþþþþþ»
 003184 D20F 7052 9080 00052 00080 25696                       MVC   SINSTAG,SCBSTAG     Copy unique session tag
 00318A D203 7008 90F4 00008 000F4 25697                       MVC   SINID,SCBID         Unique session ID
 003190 D207 700C 9104 0000C 00104 25698                       MVC   SINSUB,SCBSUB       Current subsystem
                                   25699
 003196 D207 7014 911C 00014 0011C 25700                       MVC   SINLCLCK,SCBLCLCK   Clock at logon time
 00319C D203 701C 90F0 0001C 000F0 25701                       MVC   SINTIO,SCBNIO       Number of terminal I/O's
                                   25702
 0031A2 D206 7020 9124 00020 00124 25703                       MVC   SINACCT(L'SINACCT+L'SINANO),SCBACCT  Copy account
 0031A8 D213 702A C141 0002A 00141 25704                       MVC   SINUID,CVBLANKS     (No "userid" implemented yet)
 0031AE D213 703E 9136 0003E 00136 25705                       MVC   SINNAME,SCBNAME     User name
                                   25706                       ¿þþþþþþþþþþþþþþþþþþþþþþþþþþþþþþþþþþþþþþþþþþÜ
                                   25707                       Ÿ  Update front-end and port information.  Ÿ
                                   25708                       ¾þþþþþþþþþþþþþþþþþþþþþþþþþþþþþþþþþþþþþþþþþþ»
 0031B4 5820 9008/1222_      00008 25709                       IF    ('LT R2,SCBPIBP',NZ),BEGIN  We have port info...
 USING  PIB,R2                     25725  1                      WITH  (PIB,R2)
 0031BE D502 80D4 2000_03210 00000 25738  1                      IF    (PIB,NE,'PIB'),EXIT
 0031C8 D207 706E 2034 0006E 00034 25758  1                      MVC   SINPORT,PIBNAME     Save port name
                                   25759  1
 0031CE 5830 2008/1233_      00008 25760  1                      IF    ('LT R3,PIBFEBP',NZ),BEGIN  We have front-end info...
 USING  FEB,R3                     25776  2                        WITH  (FEB,R3)
 0031D8 D502 80D7 3000_03213 00000 25789  2                        IF    (FEB,NE,'FEB'),EXIT
 0031E2 D207 7066 3014 00066 00014 25809  2                        MVC   SINFE,FEBNAME       Save front-end name
 DROP   FEB,R3                     25810  1                      END
 DROP   PIB,R2                     25819                       END
                                   25828                       ¿þþþþþþþþþþþþþþþþþþþþþþþþþþþþþþþþþþþþþÜ
                                   25829                       Ÿ  Update ORVYL session information.  Ÿ
                                   25830                       ¾þþþþþþþþþþþþþþþþþþþþþþþþþþþþþþþþþþþþþ»
 0031E8 D20F 7098 910C 00098 0010C 25831                       MVC   SINVINFO,SCBVINFO   Save ORVYL accounting information
                                   25832              *
                                   25833              *         ACALL AMODE24             ********
 0031EE 41D0 D030/982B_      00030 25834                       PEND
 DROP   SIN,R7
 DROP   SCB,R9
 DROP   *,R8
1MAIN     (MAIN2047) (12:35) (15MAR04) Subroutines                                                                          Page   97
0Current Usings:  (CV,R12)
0Loc    Object Code    Addr1 Addr2  Stmt Lv Lineno    Source Statement           (Hibal 5, Asmedit 3.3)  HLASM R4.0  2004/03/15 12.35
+___    ______ ____    _____ _____  ____ __ ______    ______ _________
0                                  25864
                                   25865                       QLTORG
1MAIN     (MAIN2047) (12:35) (15MAR04) Subroutines                                                                          Page   98
0Current Usings:  (CV,R12)
0Loc    Object Code    Addr1 Addr2  Stmt Lv Lineno    Source Statement           (Hibal 5, Asmedit 3.3)  HLASM R4.0  2004/03/15 12.35
+___    ______ ____    _____ _____  ____ __ ______    ______ _________
0                                  25883              ¿þþþþþþþþþþþþþþþþþþþþþþþþþþþþþþþþþþþþþþþþþþþþþþþþþþþþþþþþþþþþþþþþþþþþþÜ
                                   25884              Ÿ                                                                     Ÿ
                                   25885              Ÿ  UNPRESS -- Unpresses a line in WYLBUR edit format.                 Ÿ
                                   25886              Ÿ                                                                     Ÿ
                                   25887              Ÿ    On entry:                                                        Ÿ
                                   25888              Ÿ      R15- pressed line ptr (before lineno)                          Ÿ
                                   25889              Ÿ      R1 - unpress area (at least &LINESZ bytes)                     Ÿ
                                   25890              Ÿ                                                                     Ÿ
                                   25891              Ÿ    On exit:                                                         Ÿ
                                   25892              Ÿ      R1,R0 - unpress loc, len                                       Ÿ
                                   25893              Ÿ      R15   - WYLBUR line-number                                     Ÿ
                                   25894              Ÿ                                                                     Ÿ
                                                      ¾þþþþþþþþþþþþþþþþþþþþþþþþþþþþþþþþþþþþþþþþþþþþþþþþþþþþþþþþþþþþþþþþþþþþþ»
0003216 50E0 D044/901B_      00044 25895              UNPRESS  PROC  (R1,LSR)
 USING  *,R8
 003230 D203 C248 F000 00248 00000 25931                       MVC   CVWORK(4),@R15      Make aligned line-no available
 003236 9240 1000      00000       25932                       MVI   @R1,C' '            Blank return area
 00323A D2E9 1001 1000 00001 00000 25933                       MVC   @R1+1(&LINESZ-1),@R1
 003240 4110 1000            00000 25934                       LA    R1,@R1              Make sure 1st byte clear
 003244 1301                       25935                       LCR   R0,R1               Set r0 for length calc at end
 003246 1F55/4350 F004             25936                       LC    R5,@R15+4           Get total line length
 00324C 1255                       25943                       LTR   R5,R5               Is it a null line
 00324E 4780 8062            03282 25944                       BZ    FINUNP              Br yes
 003252 4160 000F            0000F 25945                       LA    R6,X'0F'            Put mask in r2
 003256 4120 0001            00001 25946                       LA    R2,1                Set r2 for bxle step
 00325A 0650                       25947                       DECR  R5                  Set r5 so that end of line
 00325C 4135 F000            00000 25949                       LA    R3,@R15(R5)         Point r3 to end for bxle
 003260 4350 F005            00005 25950              MORECH   IC    R5,@R15+5           Get blank-char control byte
 003264 1845                       25951                       LR    R4,R5               Put in r4 also
 003266 8850 0004            00004 25952                       SRL   R5,4                Shift to get blank count
 00326A 1A15                       25953                       AR    R1,R5               Move output ptr over blanks
 00326C 1446                       25954                       NR    R4,R6               Mask to get non-blank count
 00326E 4780 805E            0327E 25955                       BZ    ALLBLS              No move if zero count
 003272 1854                       25956                       LR    R5,R4               Put count in r5
 003274 0650/4450 8082_            25957                       DEX   R5,'MVC @R1(0),@R15+6' Move text to output
 00327A 1AF4                       25976                       AR    R15,R4              Bump input ptr past text
 00327C 1A14                       25977                       AR    R1,R4               Bump output ptr past text
 00327E 87F2 8040            03260 25978              ALLBLS   BXLE  R15,R2,MORECH       Add 1 (in r2) to input ptr
                                   25979              *                       (in r15) and branch if <= end (in r3)
                                   25980              * note that this now falls through even for an invalid pressed
                                   25981              *      line.  for a valid line (r3+1) must equal r15 but there
                                   25982              *      is no reason to check because there is no good recovery
                                   25983              *      if the line happens to be invalid.
 003282 58F0 C248            00248 25984              FINUNP   L     R15,CVWORK          Line-no to r15
 003286 1A01                       25985                       AR    R0,R1               Calc total length of line
 003288 41D0 D034/981B_      00034 25986                       PEND
 DROP   *,R8
                                   26006
                                   26007                       QLTORG
1MAIN     (MAIN2047) (12:35) (15MAR04) Dispatcher                                                                           Page   99
0Current Usings:  (CV,R12)
0Loc    Object Code    Addr1 Addr2  Stmt Lv Lineno    Source Statement           (Hibal 5, Asmedit 3.3)  HLASM R4.0  2004/03/15 12.35
+___    ______ ____    _____ _____  ____ __ ______    ______ _________
0                                  26021              ¿þþþþþþþþþþþþþþþþþþþþþþþþþþþþþþþþþþþþþþþþþþþþþþþþþþþþþþþþþþþþþþþþþþþþþÜ
                                   26022              Ÿ                                                                     Ÿ
                                   26023              Ÿ  DISPATCH -- Main dispatcher entry point.                           Ÿ
                                   26024              Ÿ                                                                     Ÿ
                                                      ¾þþþþþþþþþþþþþþþþþþþþþþþþþþþþþþþþþþþþþþþþþþþþþþþþþþþþþþþþþþþþþþþþþþþþþ»
0                                  26025                       ENTRY DISPATCH
 0032A8 0D80                       26026              DISPATCH BASE
 USING  *,R8
 0032AA 58D0 C058/4AD0_      00058 26040              DISPLOOP STKINIT L:CVSTKP,4096     Reset stack
 0032B6 D727 C750 C750 00750 00750 26048                       CLEAR CVCUR
                                   26055
 0032BC 4100 0001/4110_      00001 26056                       WAIT  ECBLIST=CVECBLIS
                                   26064
 0032C8 D703 C038 C038 00038 00038 26065                       CLEAR CVECB
                                   26072
 0032CE 58E0 81F6/0DEE       034A0 26073                       VCALL SERVDO              Check milserv SVC requests
                                   26077                       ¿þþþþþþþþþþþþþþþþþþþþþþþÜ
                                   26078                       Ÿ  Check for commands.  Ÿ
                                   26079                       ¾þþþþþþþþþþþþþþþþþþþþþþþ»
 0032D4 58E0 81FA/0DEE       034A4 26080                       VCALL MCOMDO              Check for commands
                                   26084                       ¿þþþþþþþþþþþþþþþþþþþþþþþþþþþþþþþþþþÜ
                                   26085                       Ÿ  Check all subsystems for work.  Ÿ
                                   26086                       ¾þþþþþþþþþþþþþþþþþþþþþþþþþþþþþþþþþþ»
 0032DA 58E0 81FE/0DEE       034A8 26087                       VCALL SUBDO               Check subsystem requests
                                   26091                       ¿þþþþþþþþþþþþþþþþþþþþþþþþþþþþþþþþþþÜ
                                   26092                       Ÿ  Check each front-end for work.  Ÿ
                                   26093                       ¾þþþþþþþþþþþþþþþþþþþþþþþþþþþþþþþþþþ»
 0032E0 5870 C29C            0029C 26094                       L     R7,CVFEBQH          First front-end
 0032E4                            26095                       LOOP  BEGIN
                                   26101  1
 0032E4 18B7                       26102  1                      LR    FEBR,R7
 USING  FEB,R11                    26103  1                      WITH  FEB
 0032E6 5870 B008            00008 26115  1                      L     R7,FEBLINK          Next ptr
                                   26116  1
 0032EA 4110 B000            00000 26117  1                      LA    R1,FEB
 0032EE 1FEE/43E0 B00D             26118  1                      LC    RAR,FEBTYPE
 0032F4 59E0 8202/47D0_      034AC 26125  1                      IF    (RAR,GT,FEBTMAX),'CLEAR RAR'
 0032FE 89E0 0002            00002 26151  1                      SLL   RAR,2
 003302 58EE 8142/12EE       033EC 26152  1                      LT    RAR,POSTFE(RAR)
 003308 4780 806E            03318 26156  1                      IF    NZ,BEGIN
 00330C 5010 C750            00750 26167  2                        ST    R1,CVCURFEB
 003310 05EE                       26168  2                        BALR  RAR,RAR             Front-end post routine
 003312 D727 C750 C750 00750 00750 26169  2                        CLEAR CVCUR
 003318                            26176  1                      END
 003318 1277/4770 803A             26180                       UNTIL (R7,Z),END
 DROP   FEB,R11
                                   26207
 00331E 5870 C33C/1277_      0033C 26208              DISPTIME IF    ('LT R7,CVTQEQH',NZ),BEGIN  chk for timer expiration...
 USING  TQE,R7                     26225  1                      WITH  (TQE,R7)
 003328 B205 D000      00000       26238  1                      STCK  @R13                Current tod clock
 00332C D507 700C D000_0000C 00000 26239  1                      IF    (TQECLCK,LE,@R13),BEGIN  timer expired...
 003336 D502 822A 7000_034D4 00000 26256  2                        FAIL  (TQE,NE,'TQE'),'Bad TQE ptr.'
 003350 58F0 7004            00004 26282  2                        L     R15,TQELINK         Next entry
1MAIN     (MAIN2047) (12:35) (15MAR04) Dispatcher                                                                           Page  100
0Current Usings:  (TQE,R7) (*,R8) (CV,R12)
0Loc    Object Code    Addr1 Addr2  Stmt Lv Lineno    Source Statement           (Hibal 5, Asmedit 3.3)  HLASM R4.0  2004/03/15 12.35
+___    ______ ____    _____ _____  ____ __ ______    ______ _________
0003354 12FF/4780 80B6_            26283  2                        IF    (R15,NZ),'MVC TQEBACK-TQE(4,R15),TQEBACK'  back
 003360 50F0 C33C            0033C 26303  2                        ST    R15,CVTQEQH         Dequeue & re-link
 003364 9823 7014            00014 26304  2                        LM    R2,R3,TQERTN
 003368 D203 7000 8206 00000 034B0 26305  2                        MVC   TQE(4),=C'OTQE'
 00336E 4110 7000            00000 26306  2                        LA    R1,TQE
 003372 58E0 820A/0DEE       034B4 26307  2                        VCALL FREECORE
 003378 1813                       26311  2                        LR    R1,R3               Parm ptr
 00337A 05E2                       26312  2                        BALR  RAR,R2              Go to exit routine
 00337C 47F0 8074            0331E 26313  2                        B     DISPTIME
 003380                            26314  1                      END
                                   26318  1
 003380 9140 C13D/4710_0013D       26319  1                      IF    ~CVFTIMER,BEGIN     Time to set a new timer...
 003388 9823 700C            0000C 26334  2                        LM    R2,R3,TQECLCK
 00338C 5F30 D004/47B0_      00004 26335  2                        SDL   R2,@R13
 00339A 5D20 820E            034B8 26340  2                        D     R2,=F'40960000'     Convert to .01 sec
 00339E 1222/4780 80FE_            26341  2                        IF    (R2,NZ),'INCR R3'   To next .01 sec
 0033A8 1233/4720 8108_            26363  2                        IF    (R3,NP),'LA R3,1'
 0033B2 9640 C13D      0013D       26383  2                        SET   CVFTIMER
 0033B6 5030 C248            00248 26389  2                        ST    R3,CVWORK
 0033BA 4110 C248/41F0_      00248 26390  2                        STIMER REAL,TIMREXIT,BINTVL=CVWORK
 0033CC                            26398  1                      END
 DROP   TQE,R7                     26402                       END
                                   26411
 0033CC 47F0 8000            032AA 26412                       B     DISPLOOP
                                   26413
 DROP   *,R8                       26414                       DROP  BR
1MAIN     (MAIN2047) (12:35) (15MAR04) Dispatcher                                                                           Page  101
0Current Usings:  (CV,R12)
0Loc    Object Code    Addr1 Addr2  Stmt Lv Lineno    Source Statement           (Hibal 5, Asmedit 3.3)  HLASM R4.0  2004/03/15 12.35
+___    ______ ____    _____ _____  ____ __ ______    ______ _________
0                                  26422              *  timer exit routine -- post MILTEN and return
 USING  TIMREXIT,R15               26423              TIMREXIT WITH  (TIMREXIT,R15),BEGIN
 0033D0 900F D000            00000 26438  1                      STM   R0,R15,@R13
 0033D4 58C0 F0F0            034C0 26439  1                      L     CVR,=A(CV)
 0033D8 94BF C13D      0013D       26440  1                      CLEAR CVFTIMER            Timer no longer active
 0033DC 1B00/4110 C038_            26447  1                      POST  CVECB
 0033E4 980F D000            00000 26453  1                      LM    R0,R15,@R13
 0033E8 07FE                       26454  1                      BR    RAR
 DROP   TIMREXIT,R15               26455                       END
-0033EA 0000
 0033EC 00000000                   26464              POSTFE   DC    A(0)                FEB post table
 0033F0 00000000                   26465                       DC    V(CONSPOST)         FEBTCONS
                                   26466              *         DC    V(ASYNPOST)         FEBTASYN
 0033F4 00000000                   26467                       DC    A(0)                NO FEBTASYN
                                   26468              *         DC    V(PDPPOST)          FEBTPDP
 0033F8 00000000                   26469                       DC    A(0)                NO FEBTPDP
                                   26470              *         DC    V(VTAMPOST)         FEBTVTAM
 0033FC 00000000                   26471                       DC    A(0)                NO FEBTVTAM
 003400 00000000                   26472                       DC    V(VIRTPOST)         FEBTVIRT
                                   26473              *         DC    V(NSCPOST)          FEBTNSC
 003404 00000000                   26474                       DC    A(0)                NO FEBTNSC
 003408 00000000                   26475                       DC    V(ELFPOST)          FEBTELF
                                   26476              *         DC    V(ALFPOST)          FEBTALF
 00340C 00000000                   26477                       DC    A(0)                NO FEBTALF
                                   26478              *         DC    V(ECUPOST)          FEBTECU
 003410 00000000                   26479                       DC    A(0)                NO FEBTECU
                                   26480              POSTFEMX EQU   (*-POSTFE-4)/4,,C'N'
                                   26481
 003414                            26482                       DS    0S(POSTFEMX-FEBTMAX,FEBTMAX-POSTFEMX)
1MAIN     (MAIN2047) (12:35) (15MAR04) Shutdown                                                                             Page  102
0Current Usings:  (CV,R12)
0Loc    Object Code    Addr1 Addr2  Stmt Lv Lineno    Source Statement           (Hibal 5, Asmedit 3.3)  HLASM R4.0  2004/03/15 12.35
+___    ______ ____    _____ _____  ____ __ ______    ______ _________
0                                  26484              ¿þþþþþþþþþþþþþþþþþþþþþþþþþþþþþþþþþþþþþþþþþþþþþþþþþþþþþþþþþþþþþþþþþþþþþÜ
                                   26485              Ÿ                                                                     Ÿ
                                   26486              Ÿ  STOPCHK -- Routine to check to see if no (real) users are active   Ÿ
                                   26487              Ÿ    and if "stop" is pending shutdown MILTEN.                        Ÿ
                                   26488              Ÿ                                                                     Ÿ
                                                      ¾þþþþþþþþþþþþþþþþþþþþþþþþþþþþþþþþþþþþþþþþþþþþþþþþþþþþþþþþþþþþþþþþþþþþþ»
0003414 50E0 D044/902B_      00044 26489              STOPCHK  XPROC
 USING  *,R8
 00342E D601 C52C C52C_0052C 0052C 26527                       IF    (CVMCRSES,NZ),EXIT
 003438 D601 C53E C53E_0053E 0053E 26546                       IF    (CVMCRVIR,NZ),EXIT
                                   26565
 003442 9180 C51C/47E0_0051C       26566                       IF    CVMFSTOP,'CLEAR R0; VCALL SHUTDOWN'  (no return)
                                   26594
 003452 9180 C13C/4710_0013C       26595                       IF    CVFTEST,EXIT
 00345A 41F0 C5D4/58E0_      005D4 26613                       SEGCLR CVWSG
 003464 4110 8072/4100_      03490 26626                       SEGWR 'No users active.'
 003476 41D0 D030/982B_      00030 26644                       PEND
 DROP   *,R8
                                   26664                       QLTORG
1MAIN     (MAIN2047) (12:35) (15MAR04) Shutdown                                                                             Page  103
0Current Usings:  (CV,R12)
0Loc    Object Code    Addr1 Addr2  Stmt Lv Lineno    Source Statement           (Hibal 5, Asmedit 3.3)  HLASM R4.0  2004/03/15 12.35
+___    ______ ____    _____ _____  ____ __ ______    ______ _________
0                                  26693              ***
                                   26694              ***  Common translate tables
                                   26695              ***
                                   26696                       ENTRY UPPTBL,LOWTBL,ASCTBL,EBCTBL,EBCTBL7
                                   26697                       ENTRY EPARTBL,NPARTBL,YPARTBL
                                   26698                       ENTRY BLTBL,NBLTBL
                                   26699
 0034D7 0001020304050607           26700              UPPTBL   DC    256AL1(*-UPPTBL)
 0035D7                035D7 03558 26701                       ORG   UPPTBL+C'a'         Lowercase
 003558 C1C2C3C4C5C6C7C8           26702                       DC    C'ABCDEFGHI'
 003561                03561 03568 26703                       ORG   UPPTBL+C'j'         Lowercase
 003568 D1D2D3D4D5D6D7D8           26704                       DC    C'JKLMNOPQR'
 003571                03571 03579 26705                       ORG   UPPTBL+C's'         Lowercase
 003579 E2E3E4E5E6E7E8E9           26706                       DC    C'STUVWXYZ'
 003581                03581 035D7 26707                       ORG
                                   26708
 0035D7 0001020304050607           26709              LOWTBL   DC    256AL1(*-LOWTBL)
 0036D7                036D7 03698 26710                       ORG   LOWTBL+C'A'
 003698 8182838485868788           26711                       DC    C'abcdefghi'        Lowercase
 0036A1                036A1 036A8 26712                       ORG   LOWTBL+C'J'
 0036A8 9192939495969798           26713                       DC    C'jklmnopqr'        Lowercase
 0036B1                036B1 036B9 26714                       ORG   LOWTBL+C'S'
 0036B9 A2A3A4A5A6A7A8A9           26715                       DC    C'stuvwxyz'         Lowercase
 0036C1                036C1 036D7 26716                       ORG
1MAIN     (MAIN2047) (12:35) (15MAR04) Shutdown                                                                             Page  104
0Current Usings:  (CV,R12)
0Loc    Object Code    Addr1 Addr2  Stmt Lv Lineno    Source Statement           (Hibal 5, Asmedit 3.3)  HLASM R4.0  2004/03/15 12.35
+___    ______ ____    _____ _____  ____ __ ______    ______ _________
0                                  26718              ¿þþþþþþþþþþþþþþþþþþþþþþþþþþþþþþþþþþþþþþþþþþþþþþþþþþþþþþþþþþþþþþþþþþþþþÜ
                                   26719              Ÿ                                                                     Ÿ
                                   26720              Ÿ  ASCTBL -- Translate table for EBCDIC to ASCII conversion.          Ÿ
                                   26721              Ÿ       Modified 11/85 to be a 1-to-1 translation by Dick Guertin.    Ÿ
                                   26722              Ÿ                                                                     Ÿ
0                                  26724              Ÿ                 0 1 2 3 4 5 6 7 8 9 A B C D E F                     Ÿ
                                   26725              Ÿ                                                                     Ÿ
                                                      ¾þþþþþþþþþþþþþþþþþþþþþþþþþþþþþþþþþþþþþþþþþþþþþþþþþþþþþþþþþþþþþþþþþþþþþ»
00036D7 000102038009817F           26726              ASCTBL   DC    X'000102038009817F8283840B0C0D0E0F'   0
 0036E7 1011121385860887           26727                       DC    X'1011121385860887181988891C1D1E1F'   1
 0036F7 8A8B8C8D8E0A171B           26728                       DC    X'8A8B8C8D8E0A171B8F90919293050607'   2
 003707 9495169697989904           26729                       DC    X'94951696979899049A9B9C9D14159E1A'   3
 003717 20A9A1A2A3A4A5A6           26730                       DC    X'20A9A1A2A3A4A5A6AAA85E2E3C282B7C'   4
 003727 26D1D2D3D4D5D6D7           26731                       DC    X'26D1D2D3D4D5D6D7D8D921242A293B7E'   5
 003737 2D2FB1B2B3B4B5B6           26732                       DC    X'2D2FB1B2B3B4B5B6B8EE9F2C255F3E3F'   6
 003747 EACEE8CFE2E7F0E6           26733                       DC    X'EACEE8CFE2E7F0E6E9603A2340273D22'   7
 003757 D061626364656667           26734                       DC    X'D0616263646566676869E0ACBCCCCACB'   8
 003767 DE6A6B6C6D6E6F70           26735                       DC    X'DE6A6B6C6D6E6F707172DFADBDCDABA0'   9
 003777 E5E3737475767778           26736                       DC    X'E5E3737475767778797AAFBEBF5BA7B7'   A
 003787 C0C1C2C3C4C5C6C7           26737                       DC    X'C0C1C2C3C4C5C6C7C8C9BABBDC5DEDFE'   B
 003797 7B41424344454647           26738                       DC    X'7B414243444546474849DADBDDF9B0F1'   C
 0037A7 7D4A4B4C4D4E4F50           26739                       DC    X'7D4A4B4C4D4E4F505152F8B9FAFBF2F3'   D
 0037B7 5CE1535455565758           26740                       DC    X'5CE1535455565758595AF4F5E4AEF7EF'   E
 0037C7 3031323334353637           26741                       DC    X'30313233343536373839EBECFCFDF6FF'   F
-                                  26743              ¿þþþþþþþþþþþþþþþþþþþþþþþþþþþþþþþþþþþþþþþþþþþþþþþþþþþþþþþþþþþþþþþþþþþþþÜ
                                   26744              Ÿ                                                                     Ÿ
                                   26745              Ÿ  EBCTBL -- Translate table for ASCII to EBCDIC conversion.          Ÿ
                                   26746              Ÿ       Modified 11/85 to be a 1-to-1 translation by Dick Guertin.    Ÿ
                                   26747              Ÿ                                                                     Ÿ
                                   26748              Ÿ                                                                     Ÿ
0                                  26750              Ÿ                 0 1 2 3 4 5 6 7 8 9 A B C D E F                     Ÿ
                                   26751              Ÿ                                                                     Ÿ
                                                      ¾þþþþþþþþþþþþþþþþþþþþþþþþþþþþþþþþþþþþþþþþþþþþþþþþþþþþþþþþþþþþþþþþþþþþþ»
00037D7 00010203372D2E2F           26752              EBCTBL   DC    X'00010203372D2E2F1605250B0C0D0E0F'   0
 0037E7 101112133C3D3226           26753                       DC    X'101112133C3D322618193F271C1D1E1F'   1
 0037F7 405A7F7B5B6C507D           26754                       DC    X'405A7F7B5B6C507D4D5D5C4E6B604B61'   2
 003807 F0F1F2F3F4F5F6F7           26755                       DC    X'F0F1F2F3F4F5F6F7F8F97A5E4C7E6E6F'   3
 003817 7CC1C2C3C4C5C6C7           26756                       DC    X'7CC1C2C3C4C5C6C7C8C9D1D2D3D4D5D6'   4
 003827 D7D8D9E2E3E4E5E6           26757                       DC    X'D7D8D9E2E3E4E5E6E7E8E9ADE0BD4A6D'   5
 003837 7981828384858687           26758                       DC    X'79818283848586878889919293949596'   6
 003847 979899A2A3A4A5A6           26759                       DC    X'979899A2A3A4A5A6A7A8A9C04FD05F07'   7
 003857 040608090A141517           26760                       DC    X'040608090A1415171A1B202122232428'   8
 003867 292A2B2C30313334           26761                       DC    X'292A2B2C30313334353638393A3B3E6A'   9
 003877 9F424344454647AE           26762                       DC    X'9F424344454647AE4941489E8B9BEDAA'   A
 003887 CE626364656667AF           26763                       DC    X'CE626364656667AF68DBBABB8C9CABAC'   B
 003897 B0B1B2B3B4B5B6B7           26764                       DC    X'B0B1B2B3B4B5B6B7B8B98E8F8D9D7173'   C
 0038A7 8051525354555657           26765                       DC    X'80515253545556575859CACBBCCC909A'   D
 0038B7 8AE174A1ECA07775           26766                       DC    X'8AE174A1ECA07775727870FAFBBE69EF'   E
1MAIN     (MAIN2047) (12:35) (15MAR04) Shutdown                                                                             Page  105
0Current Usings:  (CV,R12)
0Loc    Object Code    Addr1 Addr2  Stmt Lv Lineno    Source Statement           (Hibal 5, Asmedit 3.3)  HLASM R4.0  2004/03/15 12.35
+___    ______ ____    _____ _____  ____ __ ______    ______ _________
00038C7 76CFDEDFEAEBFEEE           26767                       DC    X'76CFDEDFEAEBFEEEDACDDCDDFCFDBFFF'   F
-                                  26769              ¿þþþþþþþþþþþþþþþþþþþþþþþþþþþþþþþþþþþþþþþþþþþþþþþþþþþþþþþþþþþþþþþþþþþþþÜ
                                   26770              Ÿ                                                                     Ÿ
                                   26771              Ÿ  EBCTBL7 -- Translate table for 7-bit ASCII to EBCDIC conversion.   Ÿ
                                   26772              Ÿ       Use this table when you are translating ASCII where the       Ÿ
                                   26773              Ÿ       high order bit may or may not be on.                          Ÿ
                                   26774              Ÿ                                                                     Ÿ
                                   26775              Ÿ       This is NOT a 1-to-1 translation.   Values between 00-7F      Ÿ
                                   26776              Ÿ       and values between 80-FF will translate to the same thing.    Ÿ
                                   26777              Ÿ                                                                     Ÿ
0                                  26779              Ÿ                 0 1 2 3 4 5 6 7 8 9 A B C D E F                     Ÿ
                                   26780              Ÿ                                                                     Ÿ
                                                      ¾þþþþþþþþþþþþþþþþþþþþþþþþþþþþþþþþþþþþþþþþþþþþþþþþþþþþþþþþþþþþþþþþþþþþþ»
00038D7 00010203372D2E2F           26781              EBCTBL7  DC    X'00010203372D2E2F1605250B0C0D0E0F'   0
 0038E7 101112133C3D3226           26782                       DC    X'101112133C3D322618193F271C1D1E1F'   1
 0038F7 405A7F7B5B6C507D           26783                       DC    X'405A7F7B5B6C507D4D5D5C4E6B604B61'   2
 003907 F0F1F2F3F4F5F6F7           26784                       DC    X'F0F1F2F3F4F5F6F7F8F97A5E4C7E6E6F'   3
 003917 7CC1C2C3C4C5C6C7           26785                       DC    X'7CC1C2C3C4C5C6C7C8C9D1D2D3D4D5D6'   4
 003927 D7D8D9E2E3E4E5E6           26786                       DC    X'D7D8D9E2E3E4E5E6E7E8E9ADE0BD4A6D'   5
 003937 7981828384858687           26787                       DC    X'79818283848586878889919293949596'   6
 003947 979899A2A3A4A5A6           26788                       DC    X'979899A2A3A4A5A6A7A8A9C04FD05F07'   7
 003957 00010203372D2E2F           26789                       DC    X'00010203372D2E2F1605250B0C0D0E0F'   8
 003967 101112133C3D3226           26790                       DC    X'101112133C3D322618193F271C1D1E1F'   9
 003977 405A7F7B5B6C507D           26791                       DC    X'405A7F7B5B6C507D4D5D5C4E6B604B61'   A
 003987 F0F1F2F3F4F5F6F7           26792                       DC    X'F0F1F2F3F4F5F6F7F8F97A5E4C7E6E6F'   B
 003997 7CC1C2C3C4C5C6C7           26793                       DC    X'7CC1C2C3C4C5C6C7C8C9D1D2D3D4D5D6'   C
 0039A7 D7D8D9E2E3E4E5E6           26794                       DC    X'D7D8D9E2E3E4E5E6E7E8E9ADE0BD4A6D'   D
 0039B7 7981828384858687           26795                       DC    X'79818283848586878889919293949596'   E
 0039C7 979899A2A3A4A5A6           26796                       DC    X'979899A2A3A4A5A6A7A8A9C04FD05F07'   F
1MAIN     (MAIN2047) (12:35) (15MAR04) Shutdown                                                                             Page  106
0Current Usings:  (CV,R12)
0Loc    Object Code    Addr1 Addr2  Stmt Lv Lineno    Source Statement           (Hibal 5, Asmedit 3.3)  HLASM R4.0  2004/03/15 12.35
+___    ______ ____    _____ _____  ____ __ ______    ______ _________
0                                  26798              ¿þþþþþþþþþþþþþþþþþþþþþþþþþþþþþþþþþþþþþþþþþþþþþþþþþþþþþþþþþþþþþþþþþþþþþÜ
                                   26799              Ÿ                                                                     Ÿ
                                   26800              Ÿ  NPARTBL -- Translate table to force parity bit off.                Ÿ
                                   26801              Ÿ                                                                     Ÿ
                                                      ¾þþþþþþþþþþþþþþþþþþþþþþþþþþþþþþþþþþþþþþþþþþþþþþþþþþþþþþþþþþþþþþþþþþþþþ»
00039D7 0001020304050607           26802              NPARTBL  DC    128AL1(*-NPARTBL),128AL1(*-NPARTBL-128)
-                                  26804              ¿þþþþþþþþþþþþþþþþþþþþþþþþþþþþþþþþþþþþþþþþþþþþþþþþþþþþþþþþþþþþþþþþþþþþþÜ
                                   26805              Ÿ                                                                     Ÿ
                                   26806              Ÿ  YPARTBL -- Translate table to force parity bit on.                 Ÿ
                                   26807              Ÿ                                                                     Ÿ
                                                      ¾þþþþþþþþþþþþþþþþþþþþþþþþþþþþþþþþþþþþþþþþþþþþþþþþþþþþþþþþþþþþþþþþþþþþþ»
0003AD7 8081828384858687           26808              YPARTBL  DC    128AL1(*-YPARTBL+128),128AL1(*-YPARTBL)
-                                  26810              ¿þþþþþþþþþþþþþþþþþþþþþþþþþþþþþþþþþþþþþþþþþþþþþþþþþþþþþþþþþþþþþþþþþþþþþÜ
                                   26811              Ÿ                                                                     Ÿ
                                   26812              Ÿ  EPARTBL -- Translate table to force even parity.                   Ÿ
                                   26813              Ÿ                                                                     Ÿ
0                                  26815              Ÿ                 0 1 2 3 4 5 6 7 8 9 A B C D E F                     Ÿ
                                   26816              Ÿ                                                                     Ÿ
                                                      ¾þþþþþþþþþþþþþþþþþþþþþþþþþþþþþþþþþþþþþþþþþþþþþþþþþþþþþþþþþþþþþþþþþþþþþ»
0003BD7 0081820384050687           26817              EPARTBL  DC    X'008182038405068788090A8B0C8D8E0F'   0
 003BE7 9011129314959617           26818                       DC    X'901112931495961718999A1B9C1D1E9F'   1
 003BF7 A02122A324A5A627           26819                       DC    X'A02122A324A5A62728A9AA2BAC2D2EAF'   2
 003C07 30B1B233B43536B7           26820                       DC    X'30B1B233B43536B7B8393ABB3CBDBE3F'   3
 003C17 C04142C344C5C647           26821                       DC    X'C04142C344C5C64748C9CA4BCC4D4ECF'   4
 003C27 50D1D253D45556D7           26822                       DC    X'50D1D253D45556D7D8595ADB5CDDDE5F'   5
 003C37 60E1E263E46566E7           26823                       DC    X'60E1E263E46566E7E8696AEB6CEDEE6F'   6
 003C47 F07172F374F5F677           26824                       DC    X'F07172F374F5F67778F9FA7BFC7D7EFF'   7
 003C57 0081820384050687           26825                       DC    X'008182038405068788090A8B0C8D8E0F'   8
 003C67 9011129314959617           26826                       DC    X'901112931495961718999A1B9C1D1E9F'   9
 003C77 A02122A324A5A627           26827                       DC    X'A02122A324A5A62728A9AA2BAC2D2EAF'   A
 003C87 30B1B233B43536B7           26828                       DC    X'30B1B233B43536B7B8393ABB3CBDBE3F'   B
 003C97 C04142C344C5C647           26829                       DC    X'C04142C344C5C64748C9CA4BCC4D4ECF'   C
 003CA7 50D1D253D45556D7           26830                       DC    X'50D1D253D45556D7D8595ADB5CDDDE5F'   D
 003CB7 60E1E263E46566E7           26831                       DC    X'60E1E263E46566E7E8696AEB6CEDEE6F'   E
 003CC7 F07172F374F5F677           26832                       DC    X'F07172F374F5F67778F9FA7BFC7D7EFF'   F
1MAIN     (MAIN2047) (12:35) (15MAR04) Shutdown                                                                             Page  107
0Current Usings:  (CV,R12)
0Loc    Object Code    Addr1 Addr2  Stmt Lv Lineno    Source Statement           (Hibal 5, Asmedit 3.3)  HLASM R4.0  2004/03/15 12.35
+___    ______ ____    _____ _____  ____ __ ______    ______ _________
0                                  26834              ¿þþþþþþþþþþþþþþþþþþþþþþþþþþþþþþþþþþþþþþþþþþþþþþþþþþþþþþþþþþþþþþþþþþþþþÜ
                                   26835              Ÿ                                                                     Ÿ
                                   26836              Ÿ  BLTBL -- Translate and test table that skips blanks.               Ÿ
                                   26837              Ÿ                                                                     Ÿ
                                                      ¾þþþþþþþþþþþþþþþþþþþþþþþþþþþþþþþþþþþþþþþþþþþþþþþþþþþþþþþþþþþþþþþþþþþþþ»
0003CD7 FFFFFFFFFFFFFFFF           26838              BLTBL    DC    256X'FF'
 003DD7                03DD7 03D17 26839                       ORG   BLTBL+C' '
 003D17 00                         26840                       DC    X'00'
 003D18                03D18 03DD7 26841                       ORG
-                                  26843              ¿þþþþþþþþþþþþþþþþþþþþþþþþþþþþþþþþþþþþþþþþþþþþþþþþþþþþþþþþþþþþþþþþþþþþþÜ
                                   26844              Ÿ                                                                     Ÿ
                                   26845              Ÿ  NBLTBL -- Translate and test table that skips all non-blanks.      Ÿ
                                   26846              Ÿ                                                                     Ÿ
                                                      ¾þþþþþþþþþþþþþþþþþþþþþþþþþþþþþþþþþþþþþþþþþþþþþþþþþþþþþþþþþþþþþþþþþþþþþ»
0003DD7 0000000000000000           26847              NBLTBL   DC    256X'00'
 003ED7                03ED7 03E17 26848                       ORG   NBLTBL+C' '
 003E17 FF                         26849                       DC    X'FF'
 003E18                03E18 03ED7 26850                       ORG
                                   26851
 003ED8                03ED8 03ED8 26852                       END   .

1MAIN     (MAIN2047) (12:35) (15MAR04) Relocation Dictionary                                                                Page  108
-   Pos.Id   Rel.Id   Flags    Address                                                       HLASM R4.0  2004/03/15 12.35
0  00000001 00000001    0C    00000030
   00000001 00000001    0C    000005F4
   00000001 00000001    0C    000008B0
   00000001 00000001    0C    000008C4
   00000001 00000001    08    000009A1
   00000001 00000001    08    00000B49
   00000001 00000001    08    00000B51
   00000001 00000001    08    00000B59
   00000001 00000001    08    00000B61
   00000001 00000001    08    00000B69
   00000001 00000001    08    00000B71
   00000001 00000001    08    00000B7A
   00000001 00000001    08    00000B81
   00000001 00000001    08    00000B8A
   00000001 00000001    08    00000B95
   00000001 00000001    08    00000B9D
   00000001 00000001    08    00000BA7
   00000001 00000001    08    00000BAF
   00000001 00000001    08    00000BB9
   00000001 00000001    08    00000C1D
   00000001 00000001    08    00000C26
   00000001 00000001    08    00000C2C
   00000001 00000001    08    00000C33
   00000001 00000001    08    00000C3D
   00000001 00000001    08    00000C45
   00000001 00000001    08    00000C50
   00000001 00000001    08    00000C57
   00000001 00000001    08    00000E7F
   00000001 00000001    08    00000E8A
   00000001 00000001    08    00000E91
   00000001 00000001    08    00001055
   00000001 00000001    08    0000105F
   00000001 00000001    08    00001067
   00000001 00000001    08    00001073
   00000001 00000001    08    0000107F
   00000001 00000001    08    0000108D
   00000001 00000001    08    000010B1
   00000001 00000001    08    000010B9
   00000001 00000001    08    000010C2
   00000001 00000001    08    000010CD
   00000001 00000001    08    000010D7
   00000001 00000001    08    000010E1
   00000001 00000001    08    000010EC
   00000001 00000001    08    000010F6
   00000001 00000001    08    000010FE
   00000001 00000001    08    00001107
   00000001 00000001    08    0000110F
   00000001 00000001    08    0000111B
   00000001 00000001    08    00001124
   00000001 00000001    08    00001130
   00000001 00000001    08    0000113C
   00000001 00000001    08    00001142
   00000001 00000001    08    0000114C
   00000001 00000001    08    00001157
   00000001 00000001    08    00001163
1MAIN     (MAIN2047) (12:35) (15MAR04) Relocation Dictionary                                                                Page  109
   00000001 00000001    08    0000116E
   00000001 00000001    0C    000013C0
   00000001 00000001    0C    000013C4
   00000001 00000001    0C    000013E0
   00000001 00000001    0C    000013E4
   00000001 00000001    0C    00001408
   00000001 00000001    08    00001761
   00000001 00000001    08    00001825
   00000001 00000001    08    00001829
   00000001 00000001    08    00001959
   00000001 00000001    0C    000019A8
   00000001 00000001    0C    00001A74
   00000001 00000001    0C    00001A84
   00000001 00000001    0C    00001A88
   00000001 00000001    0C    00001C44
   00000001 00000001    0C    00001C48
   00000001 00000001    0C    00001E34
   00000001 00000001    0C    00001F18
   00000001 00000001    0C    00002040
   00000001 00000001    0C    000021DC
   00000001 00000001    0C    000022EC
   00000001 00000001    0C    00002790
   00000001 00000001    0C    00002798
   00000001 00000001    0C    00002910
   00000001 00000001    0C    00002914
   00000001 00000001    0C    00002B1C
   00000001 00000001    0C    00002B20
   00000001 00000001    0C    00002B28
   00000001 00000001    0C    00002E28
   00000001 00000001    0C    00002E38
   00000001 00000001    0C    00002E40
   00000001 00000001    0C    000034C0
   00000001 00000002    1C    00000490
   00000001 00000003    1C    00000494
   00000001 00000004    1C    00000498
   00000001 00000005    1C    0000049C
   00000001 00000006    1C    000004A0
   00000001 00000007    1C    000004A4
   00000001 00000008    1C    000004A8
   00000001 00000009    1C    000004AC
   00000001 0000000A    1C    000004B0
   00000001 0000000B    1C    00000908
   00000001 0000000C    1C    00000918
   00000001 0000000D    1C    0000091C
   00000001 0000000E    1C    00000924
   00000001 0000000F    1C    00000928
   00000001 00000010    1C    0000092C
   00000001 00000011    1C    000013B0
   00000001 00000012    1C    000013B4
   00000001 00000013    1C    000013B8
   00000001 00000013    1C    000019A4
   00000001 00000013    1C    000034CC
   00000001 00000014    1C    000013BC
   00000001 00000015    1C    000013C8
   00000001 00000016    1C    000013CC
   00000001 00000017    1C    000013D0
   00000001 00000018    1C    000013D4
   00000001 00000018    1C    00001CBC
   00000001 00000018    1C    00001E24
1MAIN     (MAIN2047) (12:35) (15MAR04) Relocation Dictionary                                                                Page  110
   00000001 00000018    1C    000026C8
   00000001 00000018    1C    00002814
   00000001 00000019    1C    000013D8
   00000001 0000001A    1C    000013E8
   00000001 0000001A    1C    00001994
   00000001 0000001B    1C    000013EC
   00000001 0000001C    1C    000013F0
   00000001 0000001D    1C    000013F8
   00000001 0000001E    1C    000013FC
   00000001 0000001F    1C    00001400
   00000001 00000020    1C    00001404
   00000001 00000021    1C    0000140C
   00000001 00000022    1C    00001434
   00000001 00000022    1C    00001990
   00000001 00000023    1C    0000143C
   00000001 00000023    1C    0000199C
   00000001 00000024    1C    00001440
   00000001 00000024    1C    000019A0
   00000001 00000025    1C    0000144C
   00000001 00000026    1C    00001650
   00000001 00000027    1C    00001660
   00000001 00000028    1C    00001668
   00000001 00000029    1C    00001A70
   00000001 0000002A    1C    00001A78
   00000001 0000002A    1C    00002C50
   00000001 0000002B    1C    00001A7C
   00000001 0000002C    1C    00001D08
   00000001 0000002C    1C    00001F0C
   00000001 0000002C    1C    00001FBC
   00000001 0000002C    1C    00002794
   00000001 0000002C    1C    0000291C
   00000001 0000002C    1C    00002E34
   00000001 0000002C    1C    000034B4
   00000001 0000002D    1C    00002B14
   00000001 0000002E    1C    00002C54
   00000001 0000002F    1C    00002C5C
   00000001 00000030    1C    00002C64
   00000001 00000031    1C    00002C68
   00000001 00000032    1C    00002C70
   00000001 00000033    1C    00002E44
   00000001 00000034    1C    000033F0
   00000001 00000035    1C    00003400
   00000001 00000036    1C    00003408
   00000001 00000037    1C    000034A0
   00000001 00000038    1C    000034A4
   00000001 00000039    1C    000034A8
   00000001 0000003A    1C    000034C4
   00000001 0000003B    1C    000034C8

1MAIN     (MAIN2047) (12:35) (15MAR04) Ordinary Symbol and Literal Cross Reference                                          Page  111
-Symbol   Length   Value     Id    R Type   Defn References                                  HLASM R4.0  2004/03/15 12.35
0$$$@R10       1 00000000 FFFFFFF4     J     842  1102
 $$$@R11       1 00000000 FFFFFFF3     J     855  1115   1127
 $$$@R12       1 00000000 FFFFFFF2     J     868  1140
 $$$@R13       1 00000000 FFFFFFF1     J     881  1153   1157   1160   1162   1163
 $$$@R14       1 00000000 FFFFFFF0     J     894  1175
 $$$@R2        1 00000000 FFFFFFFC     J     738  1063
 $$$@R8        1 00000000 FFFFFFF6     J     816  1076
 $$$@R9        1 00000000 FFFFFFF5     J     829  1089
 $$$C1MILMAIN
               1 00000938 00000001     J   13578 13580  16292  16414  16534  16675
 $$$C10MILMAIN
               1 00001E3A 00000001     J   19411 19413
 $$$C11MILMAIN
               1 00001F21 00000001     J   19717 19719
 $$$C12MILMAIN
               1 00001FC5 00000001     J   19934 19936  20210
 $$$C13MILMAIN
               1 00002100 00000001     J   20371 20373  20405  20545  20564
 $$$C14MILMAIN
               1 000021EE 00000001     J   20706 20708  20740
 $$$C15MILMAIN
               1 000022F2 00000001     J   21153 21155
 $$$C16MILMAIN
               1 00002356 00000001     J   21304 21306  21347
 $$$C17MILMAIN
               1 0000246C 00000001     J   21734 21736
 $$$C18MILMAIN
               1 000025D6 00000001     J   22062 22064
 $$$C19MILMAIN
               1 000026D2 00000001     J   22390 22392
 $$$C2MILMAIN
               1 0000157E 00000001     J   16888 16890  17564
 $$$C20MILMAIN
               1 000027A5 00000001     J   22688 22690
 $$$C21MILMAIN
               1 0000281E 00000001     J   22838 22840
 $$$C22MILMAIN
               1 00002928 00000001     J   23164 23166
 $$$C23MILMAIN
               1 00002B36 00000001     J   23716 23718  23756
 $$$C24MILMAIN
               1 00002C7D 00000001     J   24138 24140
 $$$C25MILMAIN
               1 00002E62 00000001     J   24760 24762
 $$$C26MILMAIN
               1 00002EE2 00000001     J   24888 24890
 $$$C27MILMAIN
               1 00002F99 00000001     J   25131 25133
 $$$C28MILMAIN
               1 00003080 00000001     J   25368 25370
 $$$C29MILMAIN
               1 00003131 00000001     J   25563 25565
 $$$C3MILMAIN
               1 000019D2 00000001     J   17932 17934
 $$$C30MILMAIN
1MAIN     (MAIN2047) (12:35) (15MAR04) Ordinary Symbol and Literal Cross Reference                                          Page  112
               1 00003216 00000001     J   25877 25879  25974
 $$$C31MILMAIN
               1 000032A8 00000001     J   26015 26017
 $$$C32MILMAIN
               1 000034D7 00000001     J   26687 26689
 $$$C33MILMAIN
               1 00003ED8 00000001     J   26855 26857
 $$$C4MILMAIN
               1 00001A8E 00000001     J   18154 18156
 $$$C5MILMAIN
               1 00001B55 00000001     J   18433 18435
 $$$C6MILMAIN
               1 00001BDD 00000001     J   18662 18664
 $$$C7MILMAIN
               1 00001C4E 00000001     J   18844 18846
 $$$C8MILMAIN
               1 00001CC4 00000001     J   18967 18969
 $$$C9MILMAIN
               1 00001D0E 00000001     J   19059 19061
 $$$D1MILMAIN
               1 00001565 00000001     J   13579 16281  16403  16523  16664
 $$$D13MILMAIN
               1 000021E9 00000001     J   20372 20535  20553
 $$$D2MILMAIN
               1 000019CB 00000001     J   16889 17553
 $$$D30MILMAIN
               1 000032A2 00000001     J   25878 25963
 $$$FAIL158
               1 00001AC2 00000001     U   18239 18237
 $$$FAIL167
               1 00001B8A 00000001     U   18518 18516
 $$$FAIL201
               1 00001E6E 00000001     U   19497 19495
 $$$FAIL215
               1 00001F74 00000001     U   19851 19849
 $$$FAIL224
               1 000020CB 00000001     U   20297 20295
 $$$FAIL230
               1 00002137 00000001     U   20491 20489
 $$$FAIL243
               1 00002236 00000001     U   20850 20848
 $$$FAIL259
               1 00002329 00000001     U   21244 21242
 $$$FAIL265
               1 0000238D 00000001     U   21435 21433
 $$$FAIL294
               1 0000267D 00000001     U   22307 22305
 $$$FAIL299
               1 00002709 00000001     U   22475 22473
 $$$FAIL305
               1 00002739 00000001     U   22574 22572
 $$$FAIL311
               1 000027DF 00000001     U   22763 22761
 $$$FAIL316
               1 00002855 00000001     U   22923 22921
 $$$FAIL318
               1 00002875 00000001     U   22948 22946
 $$$FAIL321
               1 00002899 00000001     U   23006 23004
1MAIN     (MAIN2047) (12:35) (15MAR04) Ordinary Symbol and Literal Cross Reference                                          Page  113
 $$$FAIL324
               1 000028C5 00000001     U   23049 23047
 $$$FAIL331
               1 0000295D 00000001     U   23253 23251
 $$$FAIL333
               1 0000297B 00000001     U   23292 23290
 $$$FAIL335
               1 0000299B 00000001     U   23319 23317
 $$$FAIL340
               1 000029D9 00000001     U   23377 23375
 $$$FAIL351
               1 00002B6C 00000001     U   23841 23839
 $$$FAIL361
               1 00002CB5 00000001     U   24223 24221
 $$$FAIL368
               1 00002D40 00000001     U   24417 24415
 $$$FAIL382
               1 00002DD5 00000001     U   24682 24680
 $$$FAIL387
               1 00002EA1 00000001     U   24827 24825
 $$$FAIL401
               1 00002FD6 00000001     U   25218 25216
 $$$FAIL404
               1 00003032 00000001     U   25299 25297
 $$$FAIL406
               1 0000305C 00000001     U   25324 25322
 $$$FAIL411
               1 000030BC 00000001     U   25452 25450
 $$$FAIL415
               1 000030EF 00000001     U   25506 25504
 $$$FAIL420
               1 00003164 00000001     U   25646 25644
 $$$FAIL422
               1 00003183 00000001     U   25688 25686
 $$$FAIL442
               1 0000334F 00000001     U   26277 26275
 $$$PRIV0799
               2 000007DE 00000001     H   13350 13341B 13343B
 $$$RDTRC      1 00000000 FFFFFFCC     J   11135 11150  11150
 $$$RFEB       1 00000000 FFFFFFC8     J   11432 11555  11555
 $$$RKWR       1 00000000 FFFFFFCF     J   10776 10981  10981
 $$$RMTWA      1 00000000 FFFFFFBE     J   23741 23755  23755
 $$$RPIB       1 00000000 FFFFFFC7     J   11561 11760  11760
 $$$RPINFO
               1 00000000 FFFFFFD0     J   10736 10770  10770
 $$$RPIWA      1 00000000 FFFFFFBF     J   21323 21346  21346
 $$$RPOPNWA
               1 00000000 FFFFFFC2     J   20196 20209  20209
 $$$RPRDWA
               1 00000000 FFFFFFC1     J   20391 20404  20404
 $$$RPSGWA
               1 00000000 FFFFFFC0     J   20723 20739  20739
 $$$RSCANCB
               1 00000000 FFFFFFCE     J   10987 11013  11013
 $$$RSCB       1 00000000 FFFFFFC5     J   11796 12555  12555
 $$$RSEGCB
               1 00000000 FFFFFFCD     J   11019 11119  11119
 $$$RSIN       1 00000000 FFFFFFC3     J   12610 12681  12681
 $$$RSTRC      1 00000000 FFFFFFC4     J   12568 12604  12604
1MAIN     (MAIN2047) (12:35) (15MAR04) Ordinary Symbol and Literal Cross Reference                                          Page  114
 $$$RSUB       1 00000000 FFFFFFC9     J   11313 11426  11426
 $$$RTQE       1 00000000 FFFFFFCB     J   11157 11175  11175
 $$$RUPATH
               1 00000000 FFFFFFCA     J   11181 11302  11302
 $$$RUSERCVT
               1 00000000 FFFFFFE5     J    4006  4089   4089
 $$$RXLE       1 00000000 FFFFFFC6     J   11767 11786  11786
 $$$SEGCB18
               4 000005D4 00000001     F   13077 13163  13163
 $$$100F       2 000012AE 00000001     H   16539 16515B
 $$$101        6 00001572 00000001     I   16529 16521X
 $$$102        6 00001572 00000001     I   16528 16529  16529
 $$$103        1 00000038 00000001 A   U   16556 16550  16553  16555
 $$$104F       2 0000130E 00000001     H   16689 16617B
 $$$105B       1 000012CC 00000001     X   16576 16583U
 $$$106F       2 000012EE 00000001     H   16621 16607B
 $$$107F       2 00001302 00000001     H   16642 16633B
 $$$108F       2 0000130E 00000001     H   16680 16656B
 $$$109        6 00001578 00000001     I   16670 16662X
 $$$110        6 00001578 00000001     I   16669 16670  16670
 $$$111        1 00000038 00000001 A   U   16697 16691  16694  16696
 $$$112F       2 00001360 00000001     H   16790 16775B
 $$$113B       1 0000132C 00000001     X   16717 16724U
 $$$114F       2 00001354 00000001     H   16779 16765B
 $$$114T       2 0000134C 00000001     H   16768 16754B
 $$$116        1 00000038 00000001 A   U   16798 16792  16795  16797
 $$$118B       1 00001588 00000001     X   16913 16920U
 $$$119F       2 0000160C 00000001     H   17096 16992B
 $$$120F       2 00001602 00000001     H   17068 17055B
 $$$120S       2 000015F0 00000001     H   17047 17067B
 $$$122        1 00000038 00000001 A   U   17137 17131  17134  17136
 $$$123F       2 000017BC 00000001     H   17653 17361B 17596B
 $$$124B       1 0000167E 00000001     X   17261 17268U
 $$$127F       2 000016B6 00000001     H   17365 17330B
 $$$128F       2 000016EE 00000001     H   17422 17377B
 $$$129F       2 000016EE 00000001     H   17418 17400B
 $$$131B       4 000016F2 00000001     I   17435 17464
 $$$131F       2 00001714 00000001     H   17460 17435B 17463
 $$$133E       2 00001718 00000001     H   17471 17465
 $$$133F       2 0000174E 00000001     H   17586 17467B
 $$$134F       2 00001730 00000001     H   17511 17488B 17501B
 $$$136F       2 0000173C 00000001     H   17530 17521B
 $$$137F       2 0000174A 00000001     H   17569 17545B
 $$$138        6 000019CC 00000001     I   17559 17551X
 $$$139        6 000019CC 00000001     I   17558 17559  17559
 $$$140        1 0000002C 00000001 A   U   17661 17655  17658  17660
 $$$142B       1 000017DA 00000001     X   17690 17697U
 $$$143        1 0000002C 00000001 A   U   17728 17722  17725  17727
 $$$144B       1 0000195C 00000001     X   17811 17818U
 $$$146F       2 0000196C 00000001     H   17851 17841B
 $$$147F       2 0000198C 00000001     H   17894 17863B
 $$$148F       2 0000198C 00000001     H   17890 17880B
 $$$150B       1 000019DC 00000001     X   17957 17964U
 $$$151F       2 00001A58 00000001     H   18118 18008B 18039B 18072B
 $$$155        1 0000002C 00000001 A   U   18135 18129  18132  18134
 $$$157B       1 00001A98 00000001     X   18184 18191U
 $$$159F       2 00001AC2 00000001     H   18243 18232B
 $$$160F       2 00001B06 00000001     H   18340 18255B
 $$$161F       2 00001B06 00000001     H   18326 18316B
1MAIN     (MAIN2047) (12:35) (15MAR04) Ordinary Symbol and Literal Cross Reference                                          Page  115
 $$$162F       2 00001B3C 00000001     H   18398 18359B
 $$$163F       2 00001B38 00000001     H   18392 18382B
 $$$164        1 0000002C 00000001 A   U   18420 18414  18417  18419
 $$$165F       2 00001BC2 00000001     H   18641 18537B 18615B
 $$$166B       1 00001B60 00000001     X   18463 18470U
 $$$168F       2 00001B8A 00000001     H   18522 18511B
 $$$170F       2 00001BAC 00000001     H   18601 18553B
 $$$172        1 0000002C 00000001 A   U   18649 18643  18646  18648
 $$$173F       2 00001C2A 00000001     H   18821 18721B 18754B 18787B
 $$$174B       1 00001BE8 00000001     X   18688 18695U
 $$$178        1 0000002C 00000001 A   U   18829 18823  18826  18828
 $$$180B       1 00001C58 00000001     X   18879 18886U
 $$$181        1 0000002C 00000001 A   U   18952 18946  18949  18951
 $$$183B       1 00001CCE 00000001     X   18997 19004U
 $$$185        1 0000002C 00000001 A   U   19046 19040  19043  19045
 $$$187B       1 00001D18 00000001     X   19094 19101U
 $$$188F       2 00001D36 00000001     H   19134 19125B
 $$$189F       2 00001D6C 00000001     H   19188 19178B
 $$$190F       2 00001D98 00000001     H   19256 19227B 19241B
 $$$190S       2 00001D7E 00000001     H   19199 19255B
 $$$194F       2 00001DA6 00000001     H   19277 19267B
 $$$195F       2 00001E06 00000001     H   19369 19291B
 $$$196F       2 00001DE0 00000001     H   19329 19317B
 $$$197F       2 00001DEA 00000001     H   19349 19339B
 $$$198        1 0000002C 00000001 A   U   19393 19387  19390  19392
 $$$200B       1 00001E44 00000001     X   19441 19448U
 $$$202F       2 00001E6E 00000001     H   19501 19490B
 $$$203F       2 00001E7C 00000001     H   19523 19513B
 $$$204F       2 00001EF0 00000001     H   19675 19544B 19564B
 $$$206F       2 00001ECA 00000001     H   19621 19609B
 $$$207F       2 00001ED4 00000001     H   19641 19631B
 $$$208        1 0000002C 00000001 A   U   19699 19693  19696  19698
 $$$210B       1 00001F2C 00000001     X   19751 19758U
 $$$211F       2 00001F9C 00000001     H   19904 19808B
 $$$211S       2 00001F46 00000001     H   19780 19903B
 $$$214F       2 00001F98 00000001     H   19894 19825B
 $$$216F       2 00001F74 00000001     H   19855 19844B
 $$$217F       2 00001F82 00000001     H   19876 19866B
 $$$218        1 0000002C 00000001 A   U   19923 19917  19920  19922
 $$$220B       1 00001FD0 00000001     X   19966 19973U
 $$$221        1 0000002C 00000001 A   U   20060 20054  20057  20059
 $$$223B       1 0000209E 00000001     X   20232 20239U
 $$$225F       2 000020CC 00000001     H   20301 20290B
 $$$227        1 00000030 00000001 A   U   20357 20350  20354  20356
 $$$229B       1 0000210A 00000001     X   20426 20433U
 $$$231F       2 00002138 00000001     H   20495 20484B
 $$$232F       2 00002150 00000001     H   20522 20508B
 $$$235        4 000021EA 00000001     I   20559 20551X
 $$$236        4 000021EA 00000001     I   20558 20559  20559
 $$$237F       2 0000218A 00000001     H   20613 20600B
 $$$238F       2 000021A0 00000001     H   20639 20624B
 $$$240        1 00000034 00000001 A   U   20691 20684  20688  20690
 $$$242B       1 000021F8 00000001     X   20762 20769U
 $$$244F       2 00002236 00000001     H   20854 20843B
 $$$245F       2 000022B6 00000001     H   21057 20894B 20908B
 $$$245T       2 0000224E 00000001     H   20897 20872B 20884B
 $$$250F       2 00002298 00000001     H   21005 20971B
 $$$251F       2 00002298 00000001     H   21001 20992B
 $$$252F       2 000022B4 00000001     H   21052 21031B
1MAIN     (MAIN2047) (12:35) (15MAR04) Ordinary Symbol and Literal Cross Reference                                          Page  116
 $$$252T       2 000022A8 00000001     H   21034 21021B
 $$$254F       2 000022CE 00000001     H   21105 21071B
 $$$255F       2 000022CE 00000001     H   21101 21091B
 $$$256        1 0000003C 00000001 A   U   21139 21132  21136  21138
 $$$258B       1 000022FC 00000001     X   21188 21195U
 $$$26B        1 0000077A 00000001     X   13205 13212U
 $$$260F       2 0000232A 00000001     H   21248 21237B
 $$$261        1 0000002C 00000001 A   U   21291 21285  21288  21290
 $$$262F       2 00002448 00000001     H   21710 21486B 21506B
 $$$263B       1 00002360 00000001     X   21369 21376U
 $$$264F       2 0000238E 00000001     H   21439 21425B
 $$$269B       4 000023CC 00000001     I   21543 21615
 $$$269F       2 00002400 00000001     H   21609 21543B 21614
 $$$27F        2 00000798 00000001     H   13259 13244B
 $$$270F       2 000023F4 00000001     H   21578 21563B
 $$$272F       2 00002400 00000001     H   21605 21590B
 $$$274E       2 00002404 00000001     H   21622 21616
 $$$274F       2 00002446 00000001     H   21681 21618B
 $$$275        1 00000118 00000001 A   U   21719 21712  21716  21718
 $$$277B       1 00002476 00000001     X   21768 21775U
 $$$278F       2 0000249C 00000001     H   21815 21802B
 $$$279F       2 000024AC 00000001     H   21840 21827B
 $$$280F       2 000024BC 00000001     H   21865 21852B
 $$$281F       2 000024CC 00000001     H   21890 21877B
 $$$282F       2 000024DC 00000001     H   21915 21902B
 $$$283F       2 000024EC 00000001     H   21940 21927B
 $$$284F       2 000024FC 00000001     H   21965 21952B
 $$$285F       2 0000250C 00000001     H   21990 21977B
 $$$286F       2 0000251C 00000001     H   22015 22002B
 $$$287        1 0000002C 00000001 A   U   22032 22026  22029  22031
 $$$288B       1 000025E4 00000001     X   22093 22100U
 $$$289F       2 000025F6 00000001     H   22127 22113B
 $$$29F        2 00000814 00000001     H   13407 13392B
 $$$290B       1 00002612 00000001     X   22161 22168U
 $$$291F       2 00002620 00000001     H   22194 22181B
 $$$293B       1 0000264E 00000001     X   22265 22272U
 $$$295F       2 0000267E 00000001     H   22311 22300B
 $$$296        1 0000002C 00000001 A   U   22374 22368  22371  22373
 $$$298B       1 000026DC 00000001     X   22420 22427U
 $$$30F        2 00000830 00000001     H   13443 13428B
 $$$300F       2 0000270A 00000001     H   22479 22468B
 $$$301F       2 0000272E 00000001     H   22569 22528B
 $$$301S       2 00002718 00000001     H   22492 22568B
 $$$306F       2 00002758 00000001     H   22610 22590B
 $$$307F       2 0000276C 00000001     H   22637 22623B
 $$$308        1 0000002C 00000001 A   U   22671 22665  22668  22670
 $$$31F        2 00000840 00000001     H   13465 13455B
 $$$310B       1 000027B0 00000001     X   22721 22728U
 $$$312F       2 000027E0 00000001     H   22767 22756B
 $$$313        1 0000002C 00000001 A   U   22823 22817  22820  22822
 $$$315B       1 00002828 00000001     X   22868 22875U
 $$$317F       2 00002856 00000001     H   22927 22916B
 $$$319F       2 00002876 00000001     H   22952 22941B
 $$$32B        1 0000093A 00000001     X   13597 13604U
 $$$320F       2 000028CC 00000001     H   23073 22968B
 $$$322F       2 0000289A 00000001     H   23010 22999B
 $$$323F       2 000028CC 00000001     H   23064 23025B
 $$$325F       2 000028C6 00000001     H   23053 23042B
 $$$327F       2 000028EA 00000001     H   23110 23096B
1MAIN     (MAIN2047) (12:35) (15MAR04) Ordinary Symbol and Literal Cross Reference                                          Page  117
 $$$328        1 0000002C 00000001 A   U   23146 23140  23143  23145
 $$$33F        2 00000974 00000001     H   13685 13658B
 $$$330B       1 00002932 00000001     X   23198 23205U
 $$$332F       2 0000295E 00000001     H   23257 23246B
 $$$334F       2 0000297C 00000001     H   23296 23285B
 $$$336F       2 0000299C 00000001     H   23323 23312B
 $$$337F       2 000029C4 00000001     H   23372 23346B
 $$$337S       2 000029AE 00000001     H   23339 23371B
 $$$34F        2 00000988 00000001     H   13708 13698B
 $$$341F       2 00002A44 00000001     H   23458 23443B
 $$$342F       2 00002A50 00000001     H   23484 23469B
 $$$343F       2 00002A5C 00000001     H   23510 23495B
 $$$344F       2 00002A68 00000001     H   23536 23521B
 $$$345F       2 00002A74 00000001     H   23562 23547B
 $$$346F       2 00002A80 00000001     H   23591 23576B
 $$$347F       2 00002AA6 00000001     H   23622 23605B
 $$$348        1 0000002C 00000001 A   U   23683 23677  23680  23682
 $$$35F        2 000009E4 00000001     H   13829 13746B
 $$$350B       1 00002B40 00000001     X   23778 23785U
 $$$352F       2 00002B6C 00000001     H   23845 23834B
 $$$353F       2 00002C26 00000001     H   24075 23968B
 $$$354F       2 00002C0C 00000001     H   24042 24033B
 $$$354S       2 00002BE8 00000001     H   23990 24041B
 $$$355F       2 00002BFC 00000001     H   24020 24006B
 $$$358        1 00000044 00000001 A   U   24114 24107  24111  24113
 $$$360B       1 00002C88 00000001     X   24168 24175U
 $$$362F       2 00002CB6 00000001     H   24227 24216B
 $$$363F       2 00002CF2 00000001     H   24334 24249B 24308B
 $$$364F       2 00002CDC 00000001     H   24293 24279B
 $$$366F       2 00002D40 00000001     H   24425 24353B
 $$$369F       2 00002D40 00000001     H   24421 24410B
 $$$37F        2 000009E4 00000001     H   13825 13774B
 $$$37S        2 000009BA 00000001     H   13766 13824B
 $$$370F       2 00002D6E 00000001     H   24501 24440B
 $$$371F       2 00002D6E 00000001     H   24497 24459B
 $$$371S       2 00002D50 00000001     H   24452 24496B
 $$$373F       2 00002D66 00000001     H   24491 24475B
 $$$375F       2 00002DB0 00000001     H   24591 24526B
 $$$375S       2 00002D72 00000001     H   24518 24590B
 $$$377F       2 00002D96 00000001     H   24573 24557B
 $$$378F       2 00002DCA 00000001     H   24677 24636B
 $$$378S       2 00002DB4 00000001     H   24600 24676B
 $$$384        1 0000002C 00000001 A   U   24737 24731  24734  24736
 $$$386B       1 00002E6C 00000001     X   24786 24793U
 $$$388F       2 00002EA2 00000001     H   24831 24820B
 $$$389        1 0000002C 00000001 A   U   24876 24870  24873  24875
 $$$39F        2 000009F8 00000001     H   13855 13845B
 $$$391B       1 00002EEC 00000001     X   24917 24924U
 $$$392F       2 00002F7A 00000001     H   25098 24955B
 $$$393F       2 00002F56 00000001     H   25069 24976B
 $$$393S       2 00002F0E 00000001     H   24970 25068B
 $$$395F       2 00002F4C 00000001     H   25060 24991B
 $$$397F       2 00002F4C 00000001     H   25051 25029B
 $$$398        1 0000002C 00000001 A   U   25117 25111  25114  25116
 $$$40F        2 00000A0C 00000001     H   13881 13871B
 $$$400B       1 00002FA4 00000001     X   25162 25169U
 $$$402F       2 00002FD6 00000001     H   25222 25211B
 $$$402T       2 00002FC4 00000001     H   25214 25199B
 $$$405F       2 00003032 00000001     H   25303 25292B
1MAIN     (MAIN2047) (12:35) (15MAR04) Ordinary Symbol and Literal Cross Reference                                          Page  118
 $$$407F       2 0000305C 00000001     H   25328 25317B
 $$$408        1 0000002C 00000001 A   U   25354 25348  25351  25353
 $$$41F        2 00000A52 00000001     H   13979 13949B
 $$$41S        2 00000A3C 00000001     H   13941 13978B
 $$$410B       1 0000308A 00000001     X   25396 25403U
 $$$412F       2 000030BC 00000001     H   25456 25445B
 $$$412T       2 000030AA 00000001     H   25448 25433B
 $$$416F       2 000030F0 00000001     H   25510 25499B
 $$$417        1 0000002C 00000001 A   U   25549 25543  25546  25548
 $$$419B       1 0000313C 00000001     X   25592 25599U
 $$$421F       2 00003164 00000001     H   25650 25639B
 $$$423F       2 00003184 00000001     H   25692 25681B
 $$$424F       2 000031E8 00000001     H   25827 25720B 25752B
 $$$426F       2 000031E8 00000001     H   25818 25771B 25803B
 $$$428        1 0000002C 00000001 A   U   25860 25854  25857  25859
 $$$430B       1 00003220 00000001     X   25910 25917U
 $$$431        6 000032A2 00000001     I   25969 25961X
 $$$432        6 000032A2 00000001     I   25968 25969  25969
 $$$433        1 00000030 00000001 A   U   26002 25996  25999  26001
 $$$434B       1 000032AA 00000001     X   26031 26038U
 $$$435S       2 000032E4 00000001     H   26099 26196B
 $$$436F       2 000032FE 00000001     H   26150 26137B
 $$$437F       2 00003318 00000001     H   26179 26162B
 $$$44F        2 00000AAE 00000001     H   14126 14021B 14035B
 $$$440F       2 000033CC 00000001     H   26410 26220B
 $$$441F       2 00003380 00000001     H   26317 26251B
 $$$443F       2 00003350 00000001     H   26281 26270B
 $$$444F       2 00003360 00000001     H   26302 26292B
 $$$445F       2 000033CC 00000001     H   26401 26329B
 $$$446F       2 000033A8 00000001     H   26362 26350B
 $$$447F       2 000033B2 00000001     H   26382 26372B
 $$$448F       2 00003476 00000001     H   26652 26540B 26559B 26607B
 $$$449B       1 0000341E 00000001     X   26506 26513U
 $$$452F       2 00003452 00000001     H   26593 26576B
 $$$454        1 0000002C 00000001 A   U   26660 26654  26657  26659
 $$$46F        2 00000A84 00000001     H   14075 14064B
 $$$47F        2 00000AC4 00000001     H   14174 14140B
 $$$48F        2 00000AFC 00000001     H   14274 14205B
 $$$48S        2 00000AC8 00000001     H   14197 14273B
 $$$50F        2 00000AE6 00000001     H   14244 14231B
 $$$51F        2 00000AF8 00000001     H   14269 14259B
 $$$52F        2 00000B30 00000001     H   14345 14319B
 $$$53F        2 00000CD4 00000001     H   14705 14614B
 $$$53S        2 00000C96 00000001     H   14607 14704B
 $$$55F        2 00000CBC 00000001     H   14667 14631B
 $$$56F        2 00000CCC 00000001     H   14699 14679B 14689B
 $$$58F        2 00000CF0 00000001     H   14751 14715B
 $$$59F        2 00000D30 00000001     H   14803 14789B
 $$$60F        2 00000D5C 00000001     H   14853 14818B
 $$$61F        2 00000D54 00000001     H   14847 14837B
 $$$62F        2 00000D84 00000001     H   14894 14880B
 $$$63F        2 00000E52 00000001     H   15181 14906B
 $$$63S        2 00000D84 00000001     H   14900 15180B
 $$$65F        2 00000DAC 00000001     H   14961 14923B
 $$$66B        4 00000DB8 00000001     I   14987 15000
 $$$66F        2 00000DC0 00000001     H   14997 14987B 14999
 $$$67E        2 00000DC4 00000001     H   15007 15001
 $$$67F        2 00000E3E 00000001     H   15172 15003B
 $$$68F        2 00000DE8 00000001     H   15055 15020B
1MAIN     (MAIN2047) (12:35) (15MAR04) Ordinary Symbol and Literal Cross Reference                                          Page  119
 $$$69F        2 00000DE0 00000001     H   15049 15039B
 $$$70F        2 00000E06 00000001     H   15100 15067B
 $$$71F        2 00000E02 00000001     H   15095 15085B
 $$$72F        2 00000E1C 00000001     H   15123 15112B
 $$$73F        2 00000F14 00000001     H   15400 15307B
 $$$74F        2 00000EE6 00000001     H   15348 15337B
 $$$75F        2 00000FA6 00000001     H   15612 15419B 15450B 15479B
 $$$78F        2 00000F72 00000001     H   15545 15499B
 $$$79F        2 00000FA2 00000001     H   15597 15556B
 $$$80F        2 00001044 00000001     H   15808 15704B
 $$$81F        2 0000103A 00000001     H   15780 15767B
 $$$81S        2 00001028 00000001     H   15759 15779B
 $$$84B        1 000011D8 00000001     X   16218 16225U
 $$$85F        2 000011FA 00000001     H   16258 16249B
 $$$86F        2 00001208 00000001     H   16297 16273B
 $$$87         6 00001566 00000001     I   16287 16279X
 $$$88         6 00001566 00000001     I   16286 16287  16287
 $$$89         1 00000038 00000001 A   U   16314 16308  16311  16313
 $$$91B        1 00001226 00000001     X   16334 16341U
 $$$92F        2 0000124C 00000001     H   16380 16371B
 $$$93F        2 0000125A 00000001     H   16419 16395B
 $$$94         6 0000156C 00000001     I   16409 16401X
 $$$95         6 0000156C 00000001     I   16408 16409  16409
 $$$96         1 00000038 00000001 A   U   16436 16430  16433  16435
 $$$98B        1 00001278 00000001     X   16456 16463U
 $$$99F        2 000012A0 00000001     H   16500 16491B
 $NLL4823      2 00002162 00000001     I   20567 20571B
 $NLM4823      1 000021E9 00000001     R   20540 20558
 $OLL4882      2 000021B0 00000001     I   20652 20656B
 @@            1 0000004C FFFFFFF1 A   U    1160 13577  20258  20452  20788  21395  23804  26684
 @NSP          4 00000048 FFFFFFF1     A    1159 13482M 16210M 16213M 16231M 16232M 16233M 16311  16313  16315M 16326M
                                                 16329M 16347M 16348M 16349M 16433  16435  16437M 16448M 16451M 16469M
                                                 16470M 16471M 16553  16555  16557M 16568M 16571M 16589M 16590M 16591M
                                                 16694  16696  16698M 16709M 16712M 16730M 16731M 16732M 16795  16797
                                                 16799M 16905M 16908M 16926M 16927M 16928M 17134  17136  17138M 17253M
                                                 17256M 17274M 17275M 17276M 17658  17660  17662M 17682M 17685M 17703M
                                                 17704M 17705M 17725  17727  17729M 17949M 17952M 17970M 17971M 17972M
                                                 18132  18134  18136M 18176M 18179M 18197M 18198M 18199M 18417  18419
                                                 18421M 18455M 18458M 18476M 18477M 18478M 18646  18648  18650M 18680M
                                                 18683M 18701M 18702M 18703M 18826  18828  18830M 18871M 18874M 18892M
                                                 18893M 18894M 18949  18951  18953M 18989M 18992M 19010M 19011M 19012M
                                                 19043  19045  19047M 19086M 19089M 19107M 19108M 19109M 19390  19392
                                                 19394M 19433M 19436M 19454M 19455M 19456M 19696  19698  19700M 19743M
                                                 19746M 19764M 19765M 19766M 19920  19922  19924M 19958M 19961M 19979M
                                                 19980M 19981M 20057  20059  20061M 20223M 20226M 20245M 20246M 20247M
                                                 20354  20356  20358M 20417M 20420M 20439M 20440M 20441M 20688  20690
                                                 20692M 20753M 20756M 20775M 20776M 20777M 21136  21138  21140M 21180M
                                                 21183M 21201M 21202M 21203M 21288  21290  21292M 21360M 21363M 21382M
                                                 21383M 21384M 21716  21718  21720M 21760M 21763M 21781M 21782M 21783M
                                                 22029  22031  22033M 22257M 22260M 22278M 22279M 22280M 22371  22373
                                                 22375M 22412M 22415M 22433M 22434M 22435M 22668  22670  22672M 22713M
                                                 22716M 22734M 22735M 22736M 22820  22822  22824M 22860M 22863M 22881M
                                                 22882M 22883M 23143  23145  23147M 23190M 23193M 23211M 23212M 23213M
                                                 23680  23682  23684M 23769M 23772M 23791M 23792M 23793M 24111  24113
                                                 24115M 24160M 24163M 24181M 24182M 24183M 24734  24736  24738M 24778M
                                                 24781M 24799M 24800M 24801M 24873  24875  24877M 24909M 24912M 24930M
                                                 24931M 24932M 25114  25116  25118M 25154M 25157M 25175M 25176M 25177M
                                                 25351  25353  25355M 25388M 25391M 25409M 25410M 25411M 25546  25548
                                                 25550M 25584M 25587M 25605M 25606M 25607M 25857  25859  25861M 25902M
1MAIN     (MAIN2047) (12:35) (15MAR04) Ordinary Symbol and Literal Cross Reference                                          Page  120
                                                 25905M 25923M 25924M 25925M 25999  26001  26003M 26047M 26498M 26501M
                                                 26519M 26520M 26521M 26657  26659  26661M
 @R0           0 00000000 FFFFFFFE     @     713   989U  2502U
 @R1           0 00000000 FFFFFFFD     @     726   985U 13172  13176  13177  13179  13180M 13215  13288  13461  14568
                                                 16195  16286  16408  16528  16669  16764  16780  16781  17405  17907U
                                                 18916  22359U 22808U 23887U 25932M 25933M 25933  25934  25968M
 @R10          0 00000000 FFFFFFF4     @     843   949U 15604U 16809U 18337U 18598U 23131U 23668U
 @R11          0 00000000 FFFFFFF3     @     856   945U 13986U 14123U 14281U 15397U 15609U 16816U 18332U 18593U 22508U
                                                 22656U 23070U 23663U 26205U
 @R12          0 00000000 FFFFFFF2     @     869   941U
 @R13          0 00000000 FFFFFFF1     @     882   937U 13372  19168M 19177  19189  19300M 19303  19306  19592M 19595
                                                 19598  20341U 20675U 21123U 21703U 24098U 26238M 26250  26336  26339
                                                 26438M 26453
 @R14          0 00000000 FFFFFFF0     @     895   933U 14218U 26124U
 @R15          0 00000000 FFFFFFEF     @     908   929U 13182M 13286U 13313U 13374M 13391  13617  13621  14116U 14169U
                                                 15390U 15555M 15555  15598M 15766  15773M 17054  17061M 17176U 17212U
                                                 17453U 17454  17902U 19018  19025M 19025  19252U 24702M 24702  25305
                                                 25329M 25463  25470M 25470  25931  25941  25949  25950  25968  26461U
 @R2           0 00000000 FFFFFFFC     @     739   981U 13262  13289  22231U 23017  23060M 23060  24464  24487M 24487
                                                 24492  24587U 25824U
 @R3           0 00000000 FFFFFFFB     @     752   977U 17414  17452  17500  17558  25815U
 @R4           0 00000000 FFFFFFFA     @     765   973U 14752M 14761M 17646U 21693U 24083U 24981  25002M 25002  25062
                                                 25273U 25534U
 @R5           0 00000000 FFFFFFF9     @     778   969U 14630  14688  14700  15019  15066  15111  15175  19672U 20037U
                                                 20336U 20670U 21118U 21276U 21698U 22565U 23358  23367  23428M 24331U
                                                 24673U 25057U 25942U
 @R6           0 00000000 FFFFFFF8     @     791   965U 13321U 14843  14848  14993M 15050M 15072M 15091M 15117M 15118M
                                                 15173  18110U 18809U 21113U 24088U
 @R7           0 00000000 FFFFFFF7     @     804   961U 18115U 18814U 18903M 18917M 19378U 19585U 19684U 19900U 25840U
                                                 26407U
 @R8           0 00000000 FFFFFFF6     @     817   957U 13589U 15840U 16304U 16426U 16546U 16687U 16788U 17127U 17651U
                                                 17718U 18125U 18410U 18639U 18819U 18942U 19036U 19383U 19689U 19913U
                                                 20050U 20346U 20680U 21128U 21281U 21708U 22022U 22139U 22206U 22364U
                                                 22661U 22813U 23136U 23673U 24103U 24727U 24866U 25107U 25344U 25539U
                                                 25850U 25992U 26419U 26650U
 @R9           0 00000000 FFFFFFF5     @     830   953U 18405U 18634U 23658U 24093U 24616U 24722U 25845U
 @SPR          0 00000000 FFFFFFF1     @    1154 13482M 16210M 16213M 16231M 16232M 16233M 16311  16313  16315M 16326M
                                                 16329M 16347M 16348M 16349M 16433  16435  16437M 16448M 16451M 16469M
                                                 16470M 16471M 16553  16555  16557M 16568M 16571M 16589M 16590M 16591M
                                                 16694  16696  16698M 16709M 16712M 16730M 16731M 16732M 16795  16797
                                                 16799M 16905M 16908M 16926M 16927M 16928M 17134  17136  17138M 17253M
                                                 17256M 17274M 17275M 17276M 17658  17660  17662M 17682M 17685M 17703M
                                                 17704M 17705M 17725  17727  17729M 17949M 17952M 17970M 17971M 17972M
                                                 18132  18134  18136M 18176M 18179M 18197M 18198M 18199M 18417  18419
                                                 18421M 18455M 18458M 18476M 18477M 18478M 18646  18648  18650M 18680M
                                                 18683M 18701M 18702M 18703M 18826  18828  18830M 18871M 18874M 18892M
                                                 18893M 18894M 18949  18951  18953M 18989M 18992M 19010M 19011M 19012M
                                                 19043  19045  19047M 19086M 19089M 19107M 19108M 19109M 19390  19392
                                                 19394M 19433M 19436M 19454M 19455M 19456M 19696  19698  19700M 19743M
                                                 19746M 19764M 19765M 19766M 19920  19922  19924M 19958M 19961M 19979M
                                                 19980M 19981M 20057  20059  20061M 20223M 20226M 20245M 20246M 20247M
                                                 20354  20356  20358M 20417M 20420M 20439M 20440M 20441M 20688  20690
                                                 20692M 20753M 20756M 20775M 20776M 20777M 21136  21138  21140M 21180M
                                                 21183M 21201M 21202M 21203M 21288  21290  21292M 21360M 21363M 21382M
                                                 21383M 21384M 21716  21718  21720M 21760M 21763M 21781M 21782M 21783M
                                                 22029  22031  22033M 22257M 22260M 22278M 22279M 22280M 22371  22373
                                                 22375M 22412M 22415M 22433M 22434M 22435M 22668  22670  22672M 22713M
                                                 22716M 22734M 22735M 22736M 22820  22822  22824M 22860M 22863M 22881M
                                                 22882M 22883M 23143  23145  23147M 23190M 23193M 23211M 23212M 23213M
1MAIN     (MAIN2047) (12:35) (15MAR04) Ordinary Symbol and Literal Cross Reference                                          Page  121
                                                 23680  23682  23684M 23769M 23772M 23791M 23792M 23793M 24111  24113
                                                 24115M 24160M 24163M 24181M 24182M 24183M 24734  24736  24738M 24778M
                                                 24781M 24799M 24800M 24801M 24873  24875  24877M 24909M 24912M 24930M
                                                 24931M 24932M 25114  25116  25118M 25154M 25157M 25175M 25176M 25177M
                                                 25351  25353  25355M 25388M 25391M 25409M 25410M 25411M 25546  25548
                                                 25550M 25584M 25587M 25605M 25606M 25607M 25857  25859  25861M 25902M
                                                 25905M 25923M 25924M 25925M 25999  26001  26003M 26047M 26498M 26501M
                                                 26519M 26520M 26521M 26657  26659  26661M
 AHLHEAD       1 00000000 00000000 A   T    3079  3079
 AHLVCCR8      1 00000000 00000000 A   T    3570  3570
 ALLBLS        4 0000327E 00000001     I   25978 25955B
 AMODE24       4 00002604 00000001     I   22153 22152
 AMODE31       4 000025D6 00000001     I   22085 22084
 AMODE31       1 00000000 0000000D     T   13571 13571
 ASCB          1 00000000 FFFFFFD8     J    6955 13300U
 ASCBASID      2 00000024 FFFFFFD8     H    6992 13306
 ASCTBL       16 000036D7 00000001     X   26726 26696
 ASCTBL        1 00000000 00000006     T   12996 12996
 ASMVT         1 00000000 00000000 A   T    3459  3459
 A24GO         2 00002620 00000001     H   22190 22186
 A31GO         2 000025F6 00000001     H   22123 22118
 BADP          2 00000BF8 00000001     I   14483 14387
 BIT0          1 00000080 FFFFFFE4 A   U    4275  4290   4304   4359   4583   4589
 BIT1          1 00000040 FFFFFFE4 A   U    4276  4291   4305   4360   4584   4590
 BIT2          1 00000020 FFFFFFE4 A   U    4277  4292   4314   4361   4591
 BIT3          1 00000010 FFFFFFE4 A   U    4278  4293   4316   4362   4592
 BIT4          1 00000008 FFFFFFE4 A   U    4279  4294   4317   4363   4568   4593
 BIT5          1 00000004 FFFFFFE4 A   U    4280  4295   4296   4319   4364   4569   4594
 BIT6          1 00000002 FFFFFFE4 A   U    4281  4297   4320   4365   4570   4595
 BIT7          1 00000001 FFFFFFE4 A   U    4282  4299   4323   4367   4571   4596
 BLTBL         1 00003CD7 00000001     X   26838 26698  26839
 BLTBL         1 00000000 00000008     T   12998 12998
 BR            8 00000008 00000001 A   #    1070 16214M 16225U 16330M 16341U 16452M 16463U 16572M 16583U 16713M 16724U
                                                 16909M 16920U 17257M 17268U 17686M 17697U 17953M 17964U 18180M 18191U
                                                 18459M 18470U 18684M 18695U 18875M 18886U 18993M 19004U 19090M 19101U
                                                 19437M 19448U 19747M 19758U 19962M 19973U 20228M 20239U 20422M 20433U
                                                 20758M 20769U 21184M 21195U 21365M 21376U 21764M 21775U 22086  22130M
                                                 22154  22197M 22261M 22272U 22416M 22427U 22717M 22728U 22864M 22875U
                                                 23194M 23205U 23774M 23785U 24164M 24175U 24782M 24793U 24913M 24924U
                                                 25158M 25169U 25392M 25403U 25588M 25599U 25906M 25917U 26502M 26513U
 BTD           1 00000000 0000002F     T   24129 24129
 BTR           1 00000000 00000024     T   16860 16860  17921
 CBBRANCH      1 00000000 00000000 A   T    3615  3615
 COMMAND       1 00000000 0000001C     T   16848 16848
 CONSDEF       1 00000000 00000017     T   16840 16840
 CONSFIN       1 00000000 00000026     T   17218 17218
 CONSPORT      1 00000000 0000001E     T   16851 16851
 CONSPOST      1 00000000 00000034     T   26465 26465
 COREINIT      1 00000000 0000000E     T   13573 13573
 CRBRANCH      1 00000000 00000000 A   T    3356  3356
 CSRTABLE      1 00000000 00000000 A   T    3376  3376
 CSVARMGR      1 00000000 00000000 A   T    3424  3424
 CSVEXIT       1 00000000 00000000 A   T    3297  3297
 CSVLLCB       1 00000000 00000000 A   T    2897  2897
 CSVLLTRM      1 00000000 00000000 A   T    2898  2898
 CSVMEM        1 00000000 00000000 A   T    3125  3125
 CSVVFGET      1 00000000 00000000 A   T    3689  3689
 CSVVFIND      1 00000000 00000000 A   T    3687  3687
 CV         1912 00000000 00000001     X   13197 12733  12746U 26680
1MAIN     (MAIN2047) (12:35) (15MAR04) Ordinary Symbol and Literal Cross Reference                                          Page  122
 CV            1 00000000 0000000B     T   13566 13566
 CVASCBID      2 00000054 00000001     H   12772 13306M
 CVASCBP       4 00000050 00000001     A   12771 13290M 18089
 CVBLANKS    256 00000141 00000001     C   12898 16239  16361  16477  16622  21665  25704
 CVBUFLEN      1 00002800 00000001 A   N   12780 13572
 CVCUR        40 00000750 00000001     X   13195 26054M 26054  26175M 26175
 CVCURFEB      4 00000750 00000001     A   13188 13195  13195  26167M
 CVECB         4 00000038 00000001     A   12763 12760  14347M 20027  26071M 26071  26451
 CVECBLIS      4 00000030 00000001     A   12760 26061
 CVFALP      128 0000013B 00000001        12807 13380M 14414M
 CVFDUMP      16 0000013D 00000001        12887 14470M 14480M
 CVFEBID       4 000002A4 00000001     A   12917 22345  22346M
 CVFEBQH       4 0000029C 00000001     A   12915 13508  13922  14178  22487  26094
 CVFEBQT       4 000002A0 00000001     A   12916 13509M 14092  14109M 14145  14162M 15366  15383M
 CVFLAG        1 0000013C 00000001     R   12823 12827  12832  12837  12842  12847  12852  12857  12862
 CVFLAG2       1 0000013D 00000001     R   12868 12872  12877  12882  12887
 CVFNORET     16 0000013C 00000001        12842 14433M 14442M
 CVFNSTAE     32 0000013C 00000001        12837 14452M 14461M
 CVFRLG        1 0000013B 00000001        12817 13403M 14423M
 CVFTEST     128 0000013C 00000001        12827 13439M 13697  14395M 14405M 18007  18718  26604
 CVFTIMER     64 0000013D 00000001        12877 19355M 19647M 26328  26388M 26446M
 CVFXA        32 0000013D 00000001        12882 13255M 22112  22180
 CVKEY         1 00000139 00000001     X   12793 13278M 22230
 CVKSCB#       1 00000032 00000001 A   N   12786 12787  12788
 CVKSCBLEN
               1 000000C8 00000001 A   X   12788 24378  24379M 24446
 CVKSCBS       4 0000006C 00000001     F   12787 24377  24378M 24378  24379M 24445  24446
 CVMACH        1 0000013B 00000001     R   12798 12807  12817
 CVMAXSES      2 00000390 00000001     H   12976 13886  14070  15343  18099  23327  24835  24964  25074  25210  25444
 CVMCKSES      4 00000530 00000001     F   13029 18388M
 CVMCLCK       4 00000518 00000001     F   13010 17991M
 CVMCRSES      2 0000052C 00000001     H   13027 18368  18369M 18623  18625M 18798  26537M 26537
 CVMCRVIR      2 0000053E 00000001     H   13038 26556M 26556
 CVMFLAG       1 0000051C 00000001     R   13014 13018
 CVMFSTOP    128 0000051C 00000001        13018 26575
 CVMJOBNM      8 000004C0 00000001     X   13007 13288M 13427  18097
 CVMMXSES      2 0000052E 00000001     H   13028 18381  18387M
 CVMNAME       8 000004B8 00000001     C   13006 13687M 13704M 24338
 CVMSTART      8 000004B8 00000001     D   13005 13059  13059
 CVMTLSES      4 00000528 00000001     F   13026 18346  18347M
 CVMVERS      80 000004C8 00000001     X   13008 13461M
 CVOSRA        4 00000040 00000001     A   12766 13216M
 CVPARMP       4 0000003C 00000001     A   12765 13215M 13607
 CVPDBP        4 00000060 00000001     A   12781 13494M
 CVR          12 0000000C 00000001 A   #    1134 12746U 13214M 26439M
 CVRCLOC       4 00000484 00000001     A   12984 14318M 14318
 CVSATP        4 000002BC 00000001     A   12926 13893M 23326  23380  24695
 CVSCBID       4 000002B8 00000001     A   12924 23417  23419M
 CVSCBQH       4 000002B4 00000001     A   12923 23424  23426M 24595
 CVSCNCB       4 000005B4 00000001     F   13063 13074  13628  13647  13796  13815  14005  14563  14865  15215
 CVSCNKW       8 000005B8 00000001     C   13065 14630  14752  14817  14823  15643  15648  16944  16949
 CVSITP        4 00000068 00000001     A   12784 18098  24819M 24819  24850M 24954M 24954  24960  25073  25094M 25094
                                                 25280  25462
 CVSTART       4 00000000 00000001     C   12756 13197  13197
 CVSTKP        4 00000058 00000001     A   12775 13474M 26045
 CVSUBQH       4 000002A8 00000001     A   12919 13511
 CVSUBQT       4 000002AC 00000001     A   12920 13512M
 CVT           1 00000000 FFFFFFE9     J    2867 13228U 18023U 18738U 23857U
 CVTBRET       2 00000052 FFFFFFE9     H    2922  3435   3514
1MAIN     (MAIN2047) (12:35) (15MAR04) Ordinary Symbol and Literal Cross Reference                                          Page  123
 CVTCBP        4 0000004C 00000001     A   12770 13263M
 CVTDCB        1 00000074 FFFFFFE9     X    2937 13243
 CVTPTR        1 00000010 FFFFFFEA A   U    2863 13218  18013  18728  23847
 CVTQEQH       4 0000033C 00000001     A   12947 19193  19533  19775  26218  26303M
 CVTRCRTN      4 00000724 00000001     I   13172 13181B
 CVTSMCA       4 000000C4 FFFFFFE9     A    3041 23864
 CVTTCBP       4 00000000 FFFFFFE9     V    2874 13261
 CVTUSER       4 000000CC FFFFFFE9     A    3047 18029  18744  23941
 CVTVSTGX      1 00000000 FFFFFFE8     J    3887  3751
 CVTXTNT1      1 00000000 FFFFFFE7     J    3926  3094
 CVTXTNT2      1 00000000 FFFFFFE6     J    3934  3164   4090
 CVT4MS1       1 00000010 FFFFFFE9 A   U    2947  2955
 CVT6DAT       1 00000002 FFFFFFE9 A   U    2951  2955
 CVWKBUFP      4 00000064 00000001     A   12782 13501M
 CVWORK        8 00000248 00000001     D   12900 15745  17033  19356M 19361  19648M 19653  25931M 25984  26389M 26393
 CVWSG        60 000005D4 00000001     X   13163 13677  14302  14337  14503  14521  14572  14654  14738  14948  15146
                                                 15164  15286  15532  15584  15656  15686  15722  15800  15828  16957
                                                 16974  17010  17088  17116  26621  26639
 CVWSGBUF    235 00000610 00000001     C   13165 13153  13159
 CVWSGCOD      1 000005D4 00000001     R   13080 13089  13099  13109  13119  13129  13139  13149
 CVWSGRTN      4 000005F8 00000001     A   13160 13555M
 CVWSGUSR      4 0000060C 00000001     A   13162 13164
 CVWTOTCB      4 00000360 00000001     A   12959 13552M
 CVXLTBE       1 00000482 00000001     U   12979 14597
 CVXLTBL      12 00000392 00000001     X   12978 14596
 DATTACH       2 0000109C 00000001     H   15904 15862
 DCB           4 00000000 FFFFFFD1     F   10716 13745  17292U 17307  17778  17807U
 DCBBIT0       1 00000080 FFFFFFD1 A   U    9899 10068  10084  10124  10142  10188  10197  10212  10253  10261  10275
                                                 10297  10339  10341  10342  10344  10364  10367  10389  10393  10408
                                                 10445  10501  10527  10565  10569  10588  10694
 DCBBIT1       1 00000040 FFFFFFD1 A   U    9900 10069  10085  10143  10151  10188  10197  10214  10254  10262  10277
                                                 10306  10307  10316  10322  10339  10341  10343  10344  10369  10389
                                                 10391  10393  10411  10412  10413  10448  10449  10501  10529  10571
                                                 10573  10591  10636  10695
 DCBBIT2       1 00000020 FFFFFFD1 A   U    9901 10070  10086  10144  10153  10197  10215  10255  10263  10278  10279
                                                 10280  10306  10307  10311  10317  10322  10339  10340  10345  10371
                                                 10394  10395  10416  10417  10418  10452  10453  10502  10534  10574
                                                 10596  10639  10642  10696
 DCBBIT3       1 00000010 FFFFFFD1 A   U    9902 10023  10071  10087  10158  10199  10216  10256  10278  10280  10281
                                                 10306  10319  10346  10374  10394  10397  10420  10421  10422  10456
                                                 10457  10502  10536  10538  10540  10576  10597  10639  10643
 DCBBIT4       1 00000008 FFFFFFD1 A   U    9903 10024  10088  10159  10202  10217  10264  10320  10321  10322  10347
                                                 10375  10399  10404  10405  10425  10426  10460  10461  10463  10464
                                                 10503  10543  10578  10598  10639  10644
 DCBBIT5       1 00000004 FFFFFFD1 A   U    9904 10026  10089  10161  10203  10217  10265  10327  10350  10351  10377
                                                 10399  10401  10402  10405  10429  10431  10432  10433  10467  10468
                                                 10469  10470  10503  10545  10548  10581  10600  10634
 DCBBIT6       1 00000002 FFFFFFD1 A   U    9905 10028  10058  10072  10090  10163  10204  10220  10257  10329  10330
                                                 10333  10350  10352  10378  10436  10437  10438  10439  10473  10474
                                                 10475  10476  10504  10551  10583  10602  10645
 DCBBIT7       1 00000001 FFFFFFD1 A   U    9906 10030  10058  10073  10167  10206  10221  10258  10329  10331  10333
                                                 10354  10383  10441  10442  10479  10480  10482  10483  10554  10584
                                                 10585  10603  10647  10697
 DCBBLKSI      2 0000003E FFFFFFD1     H   10605 17862M 17862  17868M 17879M 17879  17886M
 DCBBUFNO      1 00000014 FFFFFFD1     G   10243 17840  17847M
 DCBDCBE       4 00000000 FFFFFFD1     A    9914  9918
 DCBDDNAM      8 00000028 FFFFFFD1     C   10361 17778
 DCBFDAD       8 00000005 FFFFFFD1     C    9930  9932
 DCBLRECL      2 00000052 FFFFFFD1     H   10669 17409  17411  17473  17868
1MAIN     (MAIN2047) (12:35) (15MAR04) Ordinary Symbol and Literal Cross Reference                                          Page  124
 DCBOFIOF      1 00000001 FFFFFFD1 A   U   10383 10385
 DCBOFLGS      1 00000030 FFFFFFD1     B   10363 13745  17307  17829M
 DCBOFOPN      1 00000010 FFFFFFD1 A   U   10374 13743  17305
 DCBOFPPC      1 00000008 FFFFFFD1 A   U   10375 17827
 DCBOFUEX      1 00000002 FFFFFFD1 A   U   10378 10382
 DCBRECFM      1 00000024 FFFFFFD1     B   10338 17399  17434
 DCBRECU       1 000000C0 FFFFFFD1 A   U   10344 17397  17432
 DCBSSID       8 00000000 FFFFFFD1     C   10177 10179
 DCBWTOID      4 00000000 FFFFFFD1     A   10095 10110  10120
 DDETACH       2 000010A2 00000001     H   15919 15864
 DECRSES       2 00001B56 00000001     H   18451 18447
 DEFPRT        1 00001054 00000001     R   15858 15855
 DEQUOTE       1 00000000 00000025     T   16863 16863
 DFAIDTAB      1 00000000 00000000 A   T    3764  3764
 DISPATCH      2 000032A8 00000001     I   26028 16845  26025
 DISPLOCK      1 00000000 00000000 A   T    1603  1603
 DISPLOOP      4 000032AA 00000001     I   26045 26412B
 DISPTIME      2 0000331E 00000001     H   26210 26313B
 DLEASE        2 00001090 00000001     H   15873 15858
 DNOTIME       6 000010A8 00000001     I   15931 15866
 DRLIN         2 00001096 00000001     H   15887 15860
 EBCTBL       16 000037D7 00000001     X   26752 26696
 EBCTBL        1 00000000 00000007     T   12997 12997
 EBCTBL7      16 000038D7 00000001     X   26781 26696
 EBCTBL7       1 00000000 0000000A     T   13000 13000
 ELFDEF        1 00000000 0000001F     T   16852 16852
 ELFFIN        1 00000000 00000028     T   17228 17228
 ELFPORT       1 00000000 00000020     T   16853 16853
 ELFPOST       1 00000000 00000036     T   26475 26475
 EPARTBL      16 00003BD7 00000001     X   26817 26697
 EPARTBL       1 00000000 00000002     T   12992 12992
 FEB         184 00000000 FFFFFFC8     J   11555 13508  13922  13931U 14050U 14102U 14155U 14178  14187U 14211  15323U
                                                 15376U 15432U 15852U 18281U 18579U 22329U 22340M 22386  22450U 22467
                                                 22481  22487  22511U 22560U 22577M 22639M 22981U 22998  23267U 23284
                                                 25785U 25800  26111U 26117
 FEBFDET      64 00000071 FFFFFFC8        11517 15909M 15923M
 FEBFLEAS     64 00000070 FFFFFFC8        11497 15877M 15893  15893
 FEBFRLIN     32 00000070 FFFFFFC8        11502 15893  15893  15894M
 FEBGFLG       1 0000000C FFFFFFC8     R   11451 11455  11460
 FEBID         2 00000004 FFFFFFC8     H   11444 22347M
 FEBLINK       4 00000008 FFFFFFC8     A   11447 13508  13922  13947  14108M 14161M 14178  14203  15382M 22487  22526
                                                 22576  22577M 26115
 FEBNAME       8 00000014 FFFFFFC8     C   11480 25809
 FEBNSES       4 0000008C FFFFFFC8     F   11536 18295  18296M
 FEBPATP       4 00000098 FFFFFFC8     A   11542 14084M 15357M 15547  22588  22606M 22606  23014
 FEBPFLG       1 00000070 FFFFFFC8     R   11488 11492  11497  11502
 FEBPFLG2      1 00000071 FFFFFFC8     R   11508 11512  11517  11522
 FEBPMAX       2 00000076 FFFFFFC8     H   11529 14056  14071M 15329  15344M 15498
 FEBR         11 0000000B 00000001 A   #    1109 13922M 13931U 13947M 13948M 13948  14041M 14050U 14108  14109  14178M
                                                 14187U 14203M 14204M 14204  15314M 15323U 15365  15382  15383  15417M
                                                 15418M 15418  15432U 15436  15485  15852U 18272M 18281U 18570M 18579U
                                                 22441M 22450U 22542  22640  22960M 22961M 22961  22981U 23258M 23267U
                                                 26102M 26111U
 FEBSCUR       2 00000080 FFFFFFC8     H   11533 18302  18303M 18585  18587M
 FEBSMAX       2 00000082 FFFFFFC8     H   11534 18315  18321M
 FEBSMCLK      8 00000084 FFFFFFC8     X   11535 18322M
 FEBSUBPL      1 00000010 00000001 A   U   12691 22313
 FEBTCONS      1 00000001 FFFFFFC8 A   U   11465 13966
 FEBTMAX       1 00000009 FFFFFFC8 A   U   11474 16843  17234  17234  26482  26482  26675
1MAIN     (MAIN2047) (12:35) (15MAR04) Ordinary Symbol and Literal Cross Reference                                          Page  125
 FEBTMLIM      2 00000012 FFFFFFC8     H   11478 15931M
 FEBTRCP       4 0000009C FFFFFFC8     A   11544 22622M 22622  22629
 FEBTYPE       1 0000000D FFFFFFC8     X   11464 13966  14217  23432  26123
 FEBUC         2 00000010 FFFFFFC8     H   11477 11540  11540
 FEPRT         1 00000E7E 00000001     R   15223 15208
 FINFE         4 0000164C 00000001     A   17217 14248  17233
 FINFEMAX      1 00000009 00000001 A   N   17233 17234  17234
 FININIT       2 000019D2 00000001     H   17945 16844
 FINUNP        4 00003282 00000001     I   25984 25944B
 FLCEAMDID
               1 000000A3 FFFFFFEE     C    2403  2404   2406
 FLCEFACILITIESLIST
               4 000000C8 FFFFFFEE     C    2433  2434
 FLCEFACILITIESLISTBYTE0
               1 000000C8 FFFFFFEE     B    2435  2436   2440
 FLCEICOD      2 00000086 FFFFFFEE     H    1343  1344
 FLCENPSW      4 00000058 FFFFFFEE     X    1319  1321
 FLCEOPSW      8 00000018 FFFFFFEE     X    1302  1303
 FLCEPDATA
               4 0000008C FFFFFFEE     C    2354  2355   2371
 FLCEPDATABYTE0
               2 0000008C FFFFFFEE     C    2356  2357   2362
 FLCEPER       8 00000098 FFFFFFEE     C    2396  2397
 FLCEPERATMID
               1 00000097 FFFFFFEE     B    2386  2387
 FLCEPERCODE
               2 00000096 FFFFFFEE     C    2377  2378   2395
 FLCEPERCODE0
               1 00000096 FFFFFFEE     B    2379  2380   2385
 FLCEPICODE
               2 0000008E FFFFFFEE     C    2363  2364
 FLCEPICODE1
               1 0000008F FFFFFFEE     G    2366  2367
 FLCEPIINFORMATION
               4 00000090 FFFFFFEE     C    2372  2373
 FLCEPILC      1 0000008D FFFFFFEE     G    2359  2360
 FLCESAME      8 00000000 FFFFFFEE     D    2336  2465
 FLCESDATA
               4 00000088 FFFFFFEE     C    2344  2345
 FLCESDATABYTE0
               2 00000088 FFFFFFEE     C    2346  2347   2352
 FLCESILC      1 00000089 FFFFFFEE     G    2349  2350
 FLCETEA       8 000000A8 FFFFFFEE     C    2410  2411
 FLCETEASNINFO
               8 000000A8 FFFFFFEE     C    2419  2420
 FLCETEA7      1 000000AF FFFFFFEE     B    2413  2414
 FLCETEID      8 000000A8 FFFFFFEE     C    2408  2409   2418   2423
 FLCETEPCINFO
               8 000000A8 FFFFFFEE     C    2424  2425
 FLCINPSW      4 00000078 FFFFFFEE     X    1333  1335
 FLCIOPSW      8 00000038 FFFFFFEE     X    1311  1312
 FLCIPPSW      8 00000000 FFFFFFEE     C    1292  1295
 FLCMNPSW      4 00000070 FFFFFFEE     X    1329  1332
 FLCMOPSW      8 00000030 FFFFFFEE     X    1309  1310
 FLCPICOD      2 0000008E FFFFFFEE     H    1367  1368
 FLCPIILC      1 0000008D FFFFFFEE     G    1360  1366
 FLCPNPSW      4 00000068 FFFFFFEE     X    1325  1328
 FLCPOPSW      8 00000028 FFFFFFEE     X    1307  1308
 FLCSNPSW      4 00000060 FFFFFFEE     X    1322  1324
1MAIN     (MAIN2047) (12:35) (15MAR04) Ordinary Symbol and Literal Cross Reference                                          Page  126
 FLCSOPSW      8 00000020 FFFFFFEE     X    1304  1306
 FLCSVCN       2 0000008A FFFFFFEE     H    1354  1357
 FLCSVILC      1 00000089 FFFFFFEE     G    1348  1353
 FMBRANCH      1 00000000 00000000 A   T    3540  3540
 FMTTIME       1 00000000 00000030     T   24131 24131
 FREECORE      1 00000000 0000002C     T   19057 19057  19711  19931  22683  23160  24751  26677
 FREEFEB       2 000026D2 00000001     H   22408 22404
 FREEFEBQ      4 0000273A 00000001     I   22576 22545B
 FREEPIB       2 0000281E 00000001     H   22856 16854  22852
 FREEPOOL      1 00000000 00000033     T   24755 24755
 FREESCB       2 00002C7E 00000001     H   24156 24152
 FREESCBQ      6 00002DD6 00000001     I   24684 24653B
 FREETRC       2 00001CC4 00000001     H   18985 18981  22684  23158
 FRRSESZE      1 00000020 FFFFFFEE A   U    2608  2630
 FRRSEXSZ      1 00000010 FFFFFFEE A   U    2609  2632
 FRRSNENT      1 00000010 FFFFFFEE A   U    2610  2630   2632
 FSCBEXIT      2 00002E12 00000001     H   24713 24390B
 FSR           2 00000002 00000001 A   #    1057 17256  17276  17658M 17685  17705  17725M 17952  17972  18132M 18179
                                                 18199  18417M 18458  18478  18646M 18683  18703  18826M 18874  18894
                                                 18949M 18992  19012  19043M 19089  19109  19390M 19436  19456  19696M
                                                 19746  19766  19920M 19961  19981  20057M 20226  20247  20354M 20756
                                                 20777  21136M 21183  21203  21288M 21363  21384  21716M 22260  22280
                                                 22371M 22415  22435  22668M 22716  22736  22820M 22863  22883  23143M
                                                 23193  23213  23680M 23772  23793  24111M 24163  24183  24734M 24781
                                                 24801  24873M 24912  24932  25114M 25391  25411  25546M 25587  25607
                                                 25857M 26501  26521  26657M
 GETFEB        2 00002644 00000001     H   22253 22249
 GETPIB        2 000027A6 00000001     H   22709 22705
 GETPOOL       1 00000000 0000002D     T   23706 23706
 GETSCB        2 00002928 00000001     H   23186 23182
 GETSIN        2 00001674 00000001     H   17249 16836  17245
 GETTRC        2 00001C4E 00000001     H   18867 18863
 GLBRANCH      1 00000000 00000000 A   T    3446  3446
 GMBRANCH      1 00000000 00000000 A   T    3542  3542
 GOTCONS       4 00000AAE 00000001     I   14132 13969B
 GOTSATP       2 000029DA 00000001     I   23379 23361B
 GSINLP        2 000016B6 00000001     H   17369 17413B
 GVT           1 00000000 00000000 A   T    3308  3308
 HIBAL         1 00000000 FFFFFFFF     J     698   714    727    740    753    766    779    792    805    818    831
                                                   844    857    870    883    896    909
 HSPFMIL       1 00000080 FFFFFFE5 A   U    4018  4022   4023  18086
 HSPFORV       1 00000020 FFFFFFE5 A   U    4020  4022
 HSPFORVR      1 00000010 FFFFFFE5 A   U    4021  4023
 HSPFWYL       1 00000040 FFFFFFE5 A   U    4019  4022   4023
 IARMPVT       1 00000000 00000000 A   T    3183  3183
 IARMRRCE      1 00000000 00000000 A   T    3728  3728
 IARPIBR       1 00000000 00000000 A   T    3698  3698
 IARPSIV       1 00000000 00000000 A   T    3522  3522
 IARPSXM       1 00000000 00000000 A   T    3671  3671
 IARXKEY       1 00000000 00000000 A   T    3629  3629
 IARXVIO       1 00000000 00000000 A   T    3523  3523
 ICMD          2 00000C5A 00000001     H   14555 14544  14546
 ICYMMVTC      1 00000000 00000000 A   T    3954  3954
 IDA121CV      1 00000000 00000000 A   T    3461  3461
 IDEF          2 00000EC6 00000001     H   15299 15237B 15257B
 IDEFCONS      4 00000E94 00000001     I   15235 15223
 IDEFELF       4 00000EA2 00000001     I   15255 15229
 IDEFERR       2 00000EB0 00000001     H   15274 15233
 IDEFINE       2 00000E66 00000001     H   15195 14540
1MAIN     (MAIN2047) (12:35) (15MAR04) Ordinary Symbol and Literal Cross Reference                                          Page  127
 IEABEND       1 00000000 00000000 A   T    3045  3045
 IEACLTE       1 00000000 00000000 A   T    1925  1925
 IEACVT        1 00000000 00000000 A   T    1299  1299   1314
 IEADQIQE      1 00000000 00000000 A   T    3441  3441
 IEAECVT       1 00000000 00000000 A   T    2970  2970
 IEAGSMQ       1 00000000 00000000 A   T    3418  3418
 IEAIHASU      1 00000000 00000000 A   T    3658  3658
 IEALKPT       1 00000000 00000000 A   T    1918  1918
 IEALSMQ       1 00000000 00000000 A   T    3420  3420
 IEAMASCB      1 00000000 00000000 A   T    1452  1452   3388   3392
 IEAPATCH      1 00000000 00000000 A   T    3053  3053
 IEAPDSRT      1 00000000 00000000 A   T    3316  3316
 IEAPTRV       1 00000000 00000000 A   T    3132  3132
 IEAQCDSR      1 00000000 00000000 A   T    3036  3036
 IEAQCS01      1 00000000 00000000 A   T    3428  3428
 IEAQEX00      1 00000000 00000000 A   T    1320  1320
 IEAQIO00      1 00000000 00000000 A   T    1334  1334
 IEAQLPAQ      1 00000000 00000000 A   T    3037  3037
 IEAQPK00      1 00000000 00000000 A   T    1327  1327
 IEAQSC00      1 00000000 00000000 A   T    1323  1323
 IEAQTD00      1 00000000 00000000 A   T    2933  2933
 IEAQTE00      1 00000000 00000000 A   T    2931  2931
 IEARPOST      1 00000000 00000000 A   T    3443  3443
 IEASMFEX      1 00000000 00000000 A   T    3320  3320
 IEASMFSP      1 00000000 00000000 A   T    3666  3666
 IEASPOST      1 00000000 00000000 A   T    3463  3463
 IEASVDCB      1 00000000 00000000 A   T    2924  2924
 IEATCBP       1 00000000 00000000 A   T    2874  2874
 IEATPC        1 00000000 00000000 A   T    2926  2926
 IEATRSCN      1 00000000 00000000 A   T    3284  3284
 IEAVAR02      1 00000000 00000000 A   T    3368  3368
 IEAVBLDP      1 00000000 00000000 A   T    3352  3352
 IEAVDELP      1 00000000 00000000 A   T    3355  3355
 IEAVEAC0      1 00000000 00000000 A   T    3445  3445
 IEAVEADV      1 00000000 00000000 A   T    3603  3603
 IEAVEDR1      1 00000000 00000000 A   T    3488  3488
 IEAVELRM      1 00000000 00000000 A   T    3437  3437
 IEAVELT1      1 00000000 00000000 A   T    1689  1689
 IEAVELT2      1 00000000 00000000 A   T    1923  1923
 IEAVENLU      1 00000000 00000000 A   T    3784  3784
 IEAVENQ2      1 00000000 00000000 A   T    3434  3434
 IEAVEQV1      1 00000000 00000000 A   T    3591  3591
 IEAVEQV2      1 00000000 00000000 A   T    3594  3594
 IEAVEQV3      1 00000000 00000000 A   T    3597  3597
 IEAVERI1      1 00000000 00000000 A   T    3490  3490
 IEAVERP1      1 00000000 00000000 A   T    3492  3492
 IEAVERX1      1 00000000 00000000 A   T    3680  3680
 IEAVESC1      1 00000000 00000000 A   T    2215  2215   3619
 IEAVESC2      1 00000000 00000000 A   T    2217  2217
 IEAVESC7      1 00000000 00000000 A   T    2211  2211
 IEAVESC8      1 00000000 00000000 A   T    2213  2213
 IEAVESPR      1 00000000 00000000 A   T    3548  3548
 IEAVESTU      1 00000000 00000000 A   T    3782  3782
 IEAVESVT      1 00000000 00000000 A   T    2219  2219   3554
 IEAVETOT      1 00000000 00000000 A   T    2072  2072
 IEAVETVT      1 00000000 00000000 A   T    2070  2070
 IEAVET6E      1 00000000 00000000 A   T    3654  3654
 IEAVEVT2      1 00000000 00000000 A   T    3608  3608
 IEAVEXPR      1 00000000 00000000 A   T    3416  3416
1MAIN     (MAIN2047) (12:35) (15MAR04) Ordinary Symbol and Literal Cross Reference                                          Page  128
 IEAVEXP1      1 00000000 00000000 A   T    3585  3585
 IEAVFRCL      1 00000000 00000000 A   T    3354  3354
 IEAVGSDA      1 00000000 00000000 A   T    3599  3599
 IEAVGTCL      1 00000000 00000000 A   T    3353  3353
 IEAVGWSA      1 00000000 00000000 A   T    3448  3448
 IEAVLKRM      1 00000000 00000000 A   T    3155  3155
 IEAVMFRM      1 00000000 00000000 A   T    3533  3533
 IEAVMSGS      1 00000000 00000000 A   T    3102  3102
 IEAVNVT0      1 00000000 00000000 A   T    3767  3767
 IEAVRSTR      1 00000000 00000000 A   T    1294  1294
 IEAVRSUH      1 00000000 00000000 A   T    3646  3646
 IEAVRT03      1 00000000 00000000 A   T    3260  3260
 IEAVSPND      1 00000000 00000000 A   T    3656  3656
 IEAVSTAG      1 00000000 00000000 A   T    3396  3396
 IEAVSVTX      1 00000000 00000000 A   T    2221  2221
 IEAVTCTL      1 00000000 00000000 A   T    3648  3648
 IEAVTEST      1 00000000 00000000 A   T    3159  3159
 IEAVTRGR      1 00000000 00000000 A   T    3456  3456
 IEAVTRG1      1 00000000 00000000 A   T    2905  2905
 IEAVTRV3      1 00000000 00000000 A   T    3152  3152
 IEAVTSBP      1 00000000 00000000 A   T    3402  3402
 IEAVTSFR      1 00000000 00000000 A   T    3123  3123
 IEAVTSGL      1 00000000 00000000 A   T    3400  3400
 IEAVVMSR      1 00000000 00000000 A   T    3181  3181
 IEAVWAIT      1 00000000 00000000 A   T    3423  3423
 IEAVWSAC      1 00000000 00000000 A   T    3454  3454
 IEAVWSAG      1 00000000 00000000 A   T    3452  3452
 IEAVWSAL      1 00000000 00000000 A   T    3450  3450
 IEAVXEXT      1 00000000 00000000 A   T    3531  3531
 IEAVXSFT      1 00000000 00000000 A   T    3498  3498
 IEAVXSTN      1 00000000 00000000 A   T    3504  3504
 IEAVXSTS      1 00000000 00000000 A   T    3502  3502
 IEAVXUNN      1 00000000 00000000 A   T    3527  3527
 IEAVXUNS      1 00000000 00000000 A   T    3506  3506
 IEAWTCB       1 00000000 00000000 A   T    3563  3563
 IEA0DS        1 00000000 00000000 A   T    2969  2969
 IEA0EF00      1 00000000 00000000 A   T    2875  2875
 IEA0EF01      1 00000000 00000000 A   T    2915  2915
 IEA0PT0E      1 00000000 00000000 A   T    3635  3635
 IEA0PT01      1 00000000 00000000 A   T    2976  2976
 IEA0PT02      1 00000000 00000000 A   T    3560  3560
 IEA0PT03      1 00000000 00000000 A   T    3637  3637
 IEA0VL00      1 00000000 00000000 A   T    2886  2886
 IEA0VL01      1 00000000 00000000 A   T    3293  3293
 IECIXAVL      1 00000000 00000000 A   T    2961  2961
 IECPCNVT      1 00000000 00000000 A   T    2889  2889
 IECPRLTV      1 00000000 00000000 A   T    2893  2893
 IECVEXCL      1 00000000 00000000 A   T    3525  3525
 IECXAPG       1 00000000 00000000 A   T    2884  2884
 IECXITP       1 00000000 00000000 A   T    2914  2914
 IECXTLER      1 00000000 00000000 A   T    2900  2900
 IEC0SCR1      1 00000000 00000000 A   T    3059  3059
 IEECUCB       1 00000000 00000000 A   T    2930  2930
 IEEMSER       1 00000000 00000000 A   T    2908  2908   2974
 IEEVEXSN      1 00000000 00000000 A   T    3263  3263
 IEEVSTOP      1 00000000 00000000 A   T    3573  3573
 IEFAQTOP      1 00000000 00000000 A   T    3380  3380
 IEFAUSDM      1 00000000 00000000 A   T    2880  2880
 IEFENFDM      1 00000000 00000000 A   T    3039  3039
1MAIN     (MAIN2047) (12:35) (15MAR04) Ordinary Symbol and Literal Cross Reference                                          Page  129
 IEFJESCT      1 00000000 00000000 A   T    3139  3139
 IEFLINK       1 00000000 00000000 A   T    2877  2877
 IEFQMWR       1 00000000 00000000 A   T    2990  2990
 IEWFBOSV      1 00000000 00000000 A   T    2967  2967
 IEWMSEPT      1 00000000 00000000 A   T    3472  3472
 IFBDCB        1 00000000 00000000 A   T    2956  2956
 IFDOLT0A      1 00000000 00000000 A   T    3318  3318
 IFEBP         4 00000FAC 00000001     A   15615 15200M 15200  15365M 15417
 IFGDEBVR      1 00000000 00000000 A   T    3949  3949
 IGC043BR      1 00000000 00000000 A   T    3364  3364
 IGC044R2      1 00000000 00000000 A   T    3474  3474
 IGC062R1      1 00000000 00000000 A   T    3444  3444
 IGC07903      1 00000000 00000000 A   T    3589  3589
 IGC124        1 00000000 00000000 A   T    3605  3605
 IGFPMAIN      1 00000000 00000000 A   T    1330  1330
 IGFRVT        1 00000000 00000000 A   T    3054  3054
 IGVCPBDB      1 00000000 00000000 A   T    3720  3720
 IGVCPDLB      1 00000000 00000000 A   T    3722  3722
 IGVCPFRE      1 00000000 00000000 A   T    3712  3712
 IGVCPGTC      1 00000000 00000000 A   T    3710  3710
 IGVCPGUB      1 00000000 00000000 A   T    3704  3704
 IGVCPGUP      1 00000000 00000000 A   T    3707  3707
 IGVCPGUS      1 00000000 00000000 A   T    3730  3730
 IGVGCAS       1 00000000 00000000 A   T    3358  3358
 IGVGFAS       1 00000000 00000000 A   T    3362  3362
 IGVGRRGN      1 00000000 00000000 A   T    3734  3734
 IGVGVRGN      1 00000000 00000000 A   T    3736  3736
 IGVQSPET      1 00000000 00000000 A   T    3360  3360
 IGVSLIST      1 00000000 00000000 A   T    3714  3714
 IGVSLOC       1 00000000 00000000 A   T    3718  3718
 IGVSREGN      1 00000000 00000000 A   T    3716  3716
 IGVSTSKI      1 00000000 00000000 A   T    3701  3701
 IHADCB        1 00000000 FFFFFFD1     J    9889  9969  10006  10034  10064  10094  10176  10235  10285  10360  10487
                                                 10492  10507  10513  10522  10622  10625  10630  10655  10673  10674
                                                 10678  10714  10715  10716  10771  10982  11014  11120
 IHAMPL        1 00000000 00000000 A   T    1408  1408
 IHB0893       4 000008B0 00000001     F   13529 13527
 IHB3276       2 000017B4 00000001     H   17631 17610B 17617B
 IHB7245C      2 00002EB4 00000001     H   24845 24840B
 IHB7245F      1 00002EB0 00000001     B   24841 24847
 IHB7350F      1 00002F40 00000001     B   25041 25046
 IHB7362F      1 00002F68 00000001     B   25080 25085
 IHB7437C      2 00002FE4 00000001     H   25237 25232B
 IHB7437F      1 00002FE0 00000001     B   25233 25239
 IHB7585F      1 00003104 00000001     B   25519 25524
 ILRJTERM      1 00000000 00000000 A   T    3643  3643
 INCRSES       2 00001A8E 00000001     H   18172 18168  23709
 INEND         2 000017B4 00000001     H   17634 17310B
 INEOF         4 0000175C 00000001     I   17602 17753
 INEX          4 00001958 00000001     F   17785 17755
 INITBAD       4 00000FCC 00000001     I   15643 14548
 INITERR       2 00000FEA 00000001     H   15674 14663B 14747B 14799B 14890B 14957B 15295B 15313B 15457B 15541B 15593B
                                                 15625B 15631B 15665B
 INITMISS      4 00000FC0 00000001     I   15629 14583B 14870B 15220B
 INITPRT       1 00000C1C 00000001     R   14534 13808
 INITSERR      4 00000FB4 00000001     I   15623 13820B
 INITSKIP      2 0000157E 00000001     H   16901 15869  16614B 16772B
 INLOOP        2 000009BA 00000001     H   13763 14578B 14771B 15182B 15401B 15613B 15833B
 INPTRS        4 00000B3C 00000001     A   14354 13758M 17282  17588M
1MAIN     (MAIN2047) (12:35) (15MAR04) Ordinary Symbol and Literal Cross Reference                                          Page  130
 IOCENDW       1 00000044 FFFFFFD3     U    9138  9079
 IOCIOCW       4 00000000 FFFFFFD3     C    9076  9079
 IOCOM         1 00000000 FFFFFFD4     J    8898  8899
 IOHFAIL       2 0000163C 00000001     H   17194 17190U
 IOSATTSN     40 0000002C FFFFFFD2     X    9762  9763
 IOSB          1 00000000 FFFFFFD2     J    9370  9882
 IOSCCWAD      4 00000014 FFFFFFD2     A    9615  9616
 IOSCSW        7 00000015 FFFFFFD2     X    9621  9622   9649   9649
 IOSCTCDW      8 00000060 FFFFFFD2     D    9752  9753   9755   9755
 IOSEEKA       8 00000064 FFFFFFD2     C    9735  9736   9751
 IOSEND        1 0000006C FFFFFFD2     U    9746  9793   9882
 IOSLOCK       1 00000000 00000000 A   T    1633  1633
 IOSPCHN       4 00000030 FFFFFFD2     A    9693  9694
 IOSSECT       1 0000002C FFFFFFD2     U    9689  9761   9789
 IOSTATUS      2 00000018 FFFFFFD2     X    9624  9625
 IOSTSA        1 00000018 FFFFFFD2     X    9626  9627
 IOSTSB        1 00000019 FFFFFFD2     X    9637  9638
 IOSVDEVN      1 00000000 00000000 A   T    3660  3660
 IOSVHID       1 00000000 00000000 A   T    3670  3670
 IOSVSUCB      1 00000000 00000000 A   T    3673  3673
 IPORT         2 00000F18 00000001     H   15409 14542
 IPORTRTN      4 00000FB0 00000001     A   15616 15236M 15256M 15446
 IRARMCNS      1 00000000 00000000 A   T    3414  3414
 IRARMEPS      1 00000000 00000000 A   T    3632  3632
 IRARMI00      1 00000000 00000000 A   T    3371  3371
 ISNBRNCH      1 00000000 00000000 A   T    3529  3529
 ITABLE        4 00000C7C 00000001     I   14583 14534
 ITBLSUBP      1 0000001C 00000001 A   U   12703 14754
 ITEXT         2 00000D1A 00000001     H   14779 14536  14538
 ITXN          4 00000E3E 00000001     I   15173 15051B 15096B 15119B
 KEYNZERO      2 00002634 00000001     I   22224 18152  18842  22223
 KEYNZERO      1 00000000 00000032     T   24134 24134
 KEYZERO       4 0000262E 00000001     I   22216 18151  18841  22213
 KEYZERO       1 00000000 00000031     T   24132 24132
 KWRDSTRT      1 00000005 FFFFFFCF     U   10792 10954  10954
 KWRIFOPR      1 00000010 FFFFFFCF A   U   10802 21587
 KWRIFSPR      1 00000020 FFFFFFCF A   U   10801 21560
 KWRSTART      4 00000000 FFFFFFCF     F   10787 10968
 KWRUSER       3 00000000 FFFFFFCF     C   10788 10790  10790
 LINE        235 0000186A 00000001     C   17782 17350  17441  17558M 17578  17925
 LINELEN       2 00001868 00000001     H   17781 17354  17589M
 LINENO        4 00001864 00000001     F   17780 15703  15731  16991  17019  17446M
 LOCALTOD      1 00000000 0000002A     T   18148 18148  24126
 LOWTBL        1 000035D7 00000001     R   26709 26696  26709  26710  26712  26714
 LOWTBL        1 00000000 00000005     T   12995 12995
 LSR          11 0000000B 00000001 A   #    1121 16213  16233  16311M 16329  16349  16433M 16451  16471  16553M 16571
                                                 16591  16694M 16712  16732  16795M 16908  16928  17134M 17256  17276
                                                 17658M 17685  17705  17725M 17952  17972  18132M 18179  18199  18417M
                                                 18458  18478  18646M 18683  18703  18826M 18874  18894  18949M 18992
                                                 19012  19043M 19089  19109  19390M 19436  19456  19696M 19746  19766
                                                 19920M 19961  19981  20057M 20226  20247  20354M 20420  20441  20688M
                                                 20756  20777  21136M 21183  21203  21288M 21363  21384  21716M 21763
                                                 21783  22029M 22260  22280  22371M 22415  22435  22668M 22716  22736
                                                 22820M 22863  22883  23143M 23193  23213  23680M 23772  23793  24111M
                                                 24163  24183  24734M 24781  24801  24873M 24912  24932  25114M 25157
                                                 25177  25351M 25391  25411  25546M 25587  25607  25857M 25905  25925
                                                 25999M 26501  26521  26657M
 MAIN2047      1 00000004 00000001     R    1046  1044
 MAKESTAG      2 00002B36 00000001     H   23764 23708  23760
1MAIN     (MAIN2047) (12:35) (15MAR04) Ordinary Symbol and Literal Cross Reference                                          Page  131
 MCOMDO        1 00000000 00000038     T   26673 26673
 MCOMINIT      1 00000000 00000016     T   16839 16839
 MILINIT       2 00000938 00000001     I   13594 13557B
 MILMAIN       1 00000000 00000001     J    1035  1037   1065   1078   1091   1104   1117   1129   1142   1164   1177
                                                 11125  11151  11176  11303  11427  11556  11761  11787  12556  12605
                                                 12682
 MILTEN        2 00000778 00000001     I   13202 13199
 MILVERS       1 00000000 0000000C     T   13570 13570
 MORECH        4 00003260 00000001     I   25950 25978B
 MPAT          4 00002020 00000001     F   20104 20163
 MPATFLAG      1 0000201C 00000001     R   20078 20082  20087  20092  20097
 MPATH       124 00002018 00000001     X   20177 20023  20180  20180
 MPATHX        8 00002018 00000001     D   20067 20177  20177
 MPATSFLG      1 00002058 00000001     X   20165 20127
 MTDOUB        8 00000000 FFFFFFBE     D   23747 23905M 23905  23910M 23911M 23912M 23914
 MTTEMP       16 00000008 FFFFFFBE     C   23748 23974  23979  23980
 MTWA         24 00000000 FFFFFFBE     J   23755 23791M 23804U 24111  24113  24114  24136
 MUDINIT       1 00000000 00000014     T   16835 16835
 NBLTBL        1 00003DD7 00000001     X   26847 26698  26848
 NBLTBL        1 00000000 00000009     T   12999 12999
 NGETCORE      1 00000000 00000018     T   16841 16841  18964  19405  22387  22835
 NPARTBL       1 000039D7 00000001     R   26802 26697  26802  26802
 NPARTBL       1 00000000 00000003     T   12993 12993
 NTPOPEN       4 0000099C 00000001     I   13731 13851B 13877B
 OPTLOCK       1 00000000 00000000 A   T    1614  1614
 PALPHA        2 00000BC8 00000001     H   14410 14365  14369  14371
 PARMPRT       1 00000B48 00000001     R   14361 13640
 PATHCLS       2 000022F2 00000001     H   21176 21172
 PATHINFO      2 00002356 00000001     H   21355 21351
 PATHINIT      2 00001FC6 00000001     H   19954 19950
 PATHOPEN      2 00002094 00000001     H   20218 20214
 PATHRC        2 0000246C 00000001     H   21756 20703  21151  21752
 PATHREAD      2 00002100 00000001     H   20413 20409
 PATHSEG       2 000021EE 00000001     H   20748 20744
 PATSUBP       1 0000001A 00000001 A   U   12701 14078  15351
 PATTACH       2 000011BA 00000001     H   16168 15976
 PAVE          1 00000000 00000000 A   T    9136  9136
 PCHK          2 000012C2 00000001     H   16564 15990
 PDETACH       2 000011C0 00000001     H   16183 15978
 PDFSYS        2 000011CE 00000001     H   16206 15982
 PDIAL         2 00001172 00000001     H   15994 15952
 PDIR          2 00001184 00000001     H   16036 15958
 PDUMMY        2 000011B4 00000001     H   16151 15974
 PDUMP         2 00000BEC 00000001     H   14466 14383
 PGANDALF      2 0000117E 00000001     H   16022 15956
 PIASCBP       4 00000008 FFFFFFBF     A   21331 21337  21337  21503M 21503  21513
 PIB         160 00000000 FFFFFFC7     J   11760 15467U 15504  15946U 18268U 18566U 22785U 22796M 22834  22898U 22915
                                                 23077  23114M 23115  23228U 23245  24263U 24278  24305  25734U 25749
 PIBDFACT      5 00000021 FFFFFFC7     X   11591 16780M 16781M 23593
 PIBDFSYS      8 00000010 FFFFFFC7     C   11577 16239M 16286M 16861
 PIBFDET      64 00000067 FFFFFFC7        11707 16157  16157  16173M 16187M
 PIBFDIAL    128 00000064 FFFFFFC7        11612 15998M
 PIBFDIR      32 00000064 FFFFFFC7        11622 16040M
 PIBFDUM      32 00000067 FFFFFFC7        11712 16157  16157  16158M
 PIBFEBP       4 00000008 FFFFFFC7     A   11575 15485M 18272  18570  22960  23258  25769
 PIBFGAND     16 00000064 FFFFFFC7        11627 16026M
 PIBFLAG       1 00000064 FFFFFFC7     R   11608 11612  11617  11622  11627  11632
 PIBFLAG2      1 00000065 FFFFFFC7     R   11638 11642  11647  11652  11657
 PIBFLAG3      1 00000066 FFFFFFC7     R   11663 11667  11672  11677  11682  11687  11692
1MAIN     (MAIN2047) (12:35) (15MAR04) Ordinary Symbol and Literal Cross Reference                                          Page  132
 PIBFLAG4      1 00000067 FFFFFFC7     R   11698 11702  11707  11712
 PIBFLAG5      1 00000068 FFFFFFC7     R   11718 11722  11727  11732
 PIBFLEAS    128 00000065 FFFFFFC7        11642 16054M 16098  16098
 PIBFOP       32 00000066 FFFFFFC7        11677 16141M 23494
 PIBFPS      128 00000066 FFFFFFC7        11667 23442
 PIBFPTID     64 00000066 FFFFFFC7        11672 16360M
 PIBFRLIN     16 00000065 FFFFFFC7        11657 16098  16098  16099M
 PIBFSEC      16 00000066 FFFFFFC7        11682 23468
 PIBFSESKEEP
               4 00000066 FFFFFFC7        11692 16127M 23546
 PIBFSESTRC
               8 00000066 FFFFFFC7        11687 16113M 23520
 PIBFSUN      64 00000064 FFFFFFC7        11617 16012M
 PIBFTEL      64 00000065 FFFFFFC7        11647 16068M 23574  23574  23575
 PIBFTYM      32 00000065 FFFFFFC7        11652 16082M 23574  23574
 PIBGFLG       1 00000018 FFFFFFC7     R   11581 11585
 PIBINFO      20 0000003C FFFFFFC7     C   11603 16622M 16669M 16865
 PIBLOC       20 00000050 FFFFFFC7     C   11604 16477M 16528M 16864
 PIBNAME       8 00000034 FFFFFFC7     C   11602 11737  11737  15519  15524  15571  15576  25758
 PIBNO         2 00000004 FFFFFFC7     H   11573 15486  23012
 PIBNSES       4 00000078 FFFFFFC7     F   11742 18289  18290M
 PIBR         10 0000000A 00000001 A   #    1096 15458M 15467U 15598  15946U 18247M 18248M 18248  18268U 18545M 18546M
                                                 18546  18566U 22889M 22898U 23041  23219M 23228U 23431
 PIBSCBP       4 0000000C FFFFFFC7     A   11576 22940M 22940  23430M 24325M 24325
 PIBSUBPL      1 00000011 00000001 A   U   12692 22769
 PIBTETYP      1 00000026 FFFFFFC7     X   11593 16195M 23638
 PIBTID        8 00000019 FFFFFFC7     C   11589 16361M 16408M 16862  23592
 PIBTRCP       4 00000090 FFFFFFC7     A   11751 23095M 23095  23102
 PIBUC         2 00000030 FFFFFFC7     H   11599 11749  11749
 PIINFO      164 00000008 FFFFFFBF     X   21337 21443  21444
 PINFO       128 00000000 FFFFFFD0     J   10770 21336  21527U 21542
 PINFOACC      8 00000010 FFFFFFD0     C   10745 21549
 PINFOIFL      1 00000030 FFFFFFD0     R   10752 21562  21589
 PINFOLNO      2 00000032 FFFFFFD0     H   10758 21550
 PINFONAM     20 00000038 FFFFFFD0     C   10760 21551
 PINFOSYS      8 00000008 FFFFFFD0     C   10744 21548
 PIPARMS       4 00000000 FFFFFFBF     A   21329 21445M 21452M 21473
 PIPINFO     128 0000002C FFFFFFBF     X   21336 21517
 PIWA        236 00000000 FFFFFFBF     J   21346 21382M 21395U 21716  21718  21719  21732
 PIWORK       64 000000AC FFFFFFBF     X   21339 21638  21645  21658  21666  21668
 PKEEP         2 000011A8 00000001     H   16123 15970
 PLEASE        2 0000118A 00000001     H   16050 15960
 PLOC          2 0000126E 00000001     H   16444 15986
 PNODUMP       2 00000BF2 00000001     H   14475 14385
 PNORETRY      2 00000BDA 00000001     H   14438 14377
 PNOSTAE       2 00000BE6 00000001     H   14457 14381
 POPER         2 000011AE 00000001     H   16137 15972
 POPNWA        4 00000000 FFFFFFC2     J   20209 20245M 20258U 20354  20356  20357  20370
 POPNWORD      4 00000000 FFFFFFC2     F   20202 20306M 20313M 20327
 PORTPRT       1 000010B0 00000001     R   15952 15949
 POSTFE        4 000033EC 00000001     A   26464 26154  26480
 POSTFEMX      1 00000009 00000001 A   N   26480 26482  26482
 PPROD         2 00000BC2 00000001     H   14400 14363
 PRDEXIT       2 000021C2 00000001     H   20666 20518B 20609B 20635B
 PRDPTRS       4 00000000 FFFFFFC1     A   20397 20641M 20658
 PRDWA         8 00000000 FFFFFFC1     J   20404 20439M 20452U 20688  20690  20691  20704
 PRETRY        2 00000BD4 00000001     H   14428 14375
 PRLG          2 00000BCE 00000001     H   14419 14367  14373
 PRLIN         2 0000119C 00000001     H   16092 15966
1MAIN     (MAIN2047) (12:35) (15MAR04) Ordinary Symbol and Literal Cross Reference                                          Page  133
 PSA           1 00000000 FFFFFFEE     J    1290  1288U  2236   2466
 PSADTSAV      8 000006C0 FFFFFFEE     D    2036  2039   2040
 PSAEMS2S      4 0000026C FFFFFFEE     F    1569  1573
 PSAGSAV      64 000008A8 FFFFFFEE     X    2121  2123   2124
 PSAIPCIN      4 00000268 FFFFFFEE     F    1562  1566
 PSAJSTSA     64 00000998 FFFFFFEE     X    2170  2174   2175
 PSARTM1R      4 000003FC FFFFFFEE     F    1796  1801
 PSARV7E8      4 000007E8 FFFFFFEE     X    2052  2053   2054
 PSASLSA      72 00000950 FFFFFFEE     X    2162  2168   2169
 PSASTOSM      4 00000270 FFFFFFEE     F    1576  1585
 PSATNEW       4 00000218 FFFFFFEE     A    1446  1449
 PSES          2 00001322 00000001     H   16705 15988
 PSGDATAA      4 00000008 FFFFFFC0     A   20731 20915M 20941M 20943
 PSGDATAL      4 0000000C FFFFFFC0     F   20732 20916M 20926  20931
 PSGHDRA       4 00000000 FFFFFFC0     A   20729 20932M
 PSGHDRL       4 00000004 FFFFFFC0     F   20730 20933M
 PSGWA        16 00000000 FFFFFFC0     J   20739 20775M 20788U 20798M 20798  21136  21138  21139  21152
 PSMFTYPE      6 000011C6 00000001     I   16195 15984
 PSTAE         2 00000BE0 00000001     H   14447 14379
 PSUNET        2 00001178 00000001     H   16008 15954
 PTEL          2 00001190 00000001     H   16064 15962
 PTEST         2 00000BBC 00000001     H   14391 14361
 PTID          2 0000121C 00000001     H   16322 15980
 PTRACE        2 000011A2 00000001     H   16109 15968
 PTYM          2 00001196 00000001     H   16078 15964
 RAR          14 0000000E 00000001 A   #    1169 13174B 13184B 13486M 13487M 13487B 13505M 13506M 13506B 13631M 13632M
                                                 13632B 13650M 13651M 13651B 13680M 13681M 13681B 13721M 13722M 13722B
                                                 13772M 13773M 13773B 13799M 13800M 13800B 13818M 13819M 13819B 13903M
                                                 13904M 13904B 13910M 13911M 13911B 13917M 13918M 13918B 14008M 14009M
                                                 14009B 14019M 14020M 14020  14026M 14026B 14082M 14083M 14083B 14132M
                                                 14133M 14133B 14217M 14230  14240M 14240  14245M 14248M 14248  14249M
                                                 14249  14258M 14258  14265M 14265B 14286M 14287M 14287B 14305M 14306M
                                                 14306B 14340M 14341M 14341B 14350M 14351M 14351B 14396B 14406B 14415B
                                                 14424B 14434B 14443B 14453B 14462B 14471B 14481B 14483  14506M 14507M
                                                 14507B 14524M 14525M 14525B 14566M 14567M 14567B 14576M 14577M 14577B
                                                 14657M 14658M 14658B 14741M 14742M 14742B 14759M 14760M 14760B 14868M
                                                 14869M 14869B 14951M 14952M 14952B 14979M 14980M 14980B 15149M 15150M
                                                 15150B 15167M 15168M 15168B 15218M 15219M 15219B 15235M 15255M 15289M
                                                 15290M 15290B 15306M 15306  15312M 15312B 15355M 15356M 15356B 15446M
                                                 15447M 15447  15456M 15456B 15507M 15508M 15508B 15535M 15536M 15536B
                                                 15587M 15588M 15588B 15659M 15660M 15660B 15689M 15690M 15690B 15725M
                                                 15726M 15726B 15748M 15749M 15749B 15803M 15804M 15804B 15831M 15832M
                                                 15832B 15883B 15900B 15915B 15929B 15937B 16004B 16018B 16032B 16046B
                                                 16060B 16074B 16088B 16105B 16119B 16133B 16147B 16164B 16179B 16193B
                                                 16201B 16210  16313M 16317B 16326  16435M 16439B 16448  16480M 16481M
                                                 16481B 16555M 16559B 16568  16599M 16600M 16600B 16614M 16696M 16700B
                                                 16709  16772M 16797M 16801B 16905  16960M 16961M 16961B 16977M 16978M
                                                 16978B 17013M 17014M 17014B 17036M 17037M 17037B 17091M 17092M 17092B
                                                 17119M 17120M 17120B 17136M 17140B 17253  17444M 17445M 17445B 17660M
                                                 17664B 17682  17727M 17731B 17895B 17949  17980M 17981M 17981B 17985M
                                                 17986M 17986B 17989M 17990M 17990B 17995M 17996M 17996B 18080M 18081M
                                                 18081B 18103M 18104M 18104B 18134M 18138B 18176  18394M 18419M 18423B
                                                 18455  18627M 18648M 18652B 18680  18796M 18797M 18797B 18801M 18802M
                                                 18802B 18828M 18832B 18871  18909  18912M 18913M 18913B 18951M 18955B
                                                 18989  19028M 19029M 19029B 19045M 19049B 19086  19140  19143M 19144M
                                                 19144B 19392M 19396B 19433  19530M 19531M 19531B 19698M 19702B 19743
                                                 19883M 19884M 19884B 19922M 19926B 19958  20059M 20063B 20223  20356M
                                                 20360B 20417  20607M 20608M 20608B 20690M 20694B 20753  20978M 20979M
                                                 20979B 21138M 21142B 21180  21290M 21294B 21360  21718M 21722B 21760
1MAIN     (MAIN2047) (12:35) (15MAR04) Ordinary Symbol and Literal Cross Reference                                          Page  134
                                                 22031M 22035B 22085  22131M 22132B 22153  22198M 22199B 22217B 22236B
                                                 22257  22314  22317M 22318M 22318B 22373M 22377B 22412  22484M 22485M
                                                 22485B 22598M 22599M 22599B 22632M 22633M 22633B 22643M 22644M 22644B
                                                 22670M 22674B 22713  22770  22773M 22774M 22774B 22822M 22826B 22860
                                                 23080M 23081M 23081B 23105M 23106M 23106B 23118M 23119M 23119B 23145M
                                                 23149B 23190  23385M 23386M 23386B 23612M 23613M 23613B 23617M 23618M
                                                 23618B 23643M 23644M 23644B 23682M 23686B 23769  23892M 23893M 23893B
                                                 23896M 23897M 23897B 23936M 23937M 23937B 23977M 23978M 23978B 23984M
                                                 23985M 23985B 24045M 24046M 24046B 24070M 24071M 24071B 24113M 24117B
                                                 24160  24234M 24235M 24235B 24580M 24581M 24581B 24690M 24691M 24691B
                                                 24708M 24709M 24709B 24736M 24740B 24778  24875M 24879B 24909  25116M
                                                 25120B 25154  25353M 25357B 25388  25548M 25552B 25584  25859M 25863B
                                                 25902  26001M 26005B 26075M 26076M 26076B 26082M 26083M 26083B 26089M
                                                 26090M 26090B 26123M 26136  26146M 26146  26151M 26154M 26154  26155M
                                                 26155  26168M 26168B 26309M 26310M 26310B 26312M 26454B 26498  26588M
                                                 26589M 26589B 26624M 26625M 26625B 26642M 26643M 26643B 26659M 26663B
 RMBRANCH      1 00000000 00000000 A   T    3539  3539
 RSMLOCK       1 00000000 00000000 A   T    1626  1626
 R0            0 00000000 FFFFFFFF A   #     706 13175M 13176M 13177  13179M 13180  13489M 13496M 13621M 13669M 13899M
                                                 13998M 13998  14077M 14090M 14294M 14329M 14513M 14570M 14662M 14746M
                                                 14753M 14763M 14769M 14798M 14872  14873M 14889M 14940M 14956M 14976M
                                                 15138M 15156M 15294M 15350M 15363M 15524M 15540M 15576M 15592M 15624M
                                                 15630M 15648M 15664M 15714M 15738M 15751  15820M 15820  16242  16254M
                                                 16259  16364  16376M 16381  16484  16496M 16501  16623  16751  16949M
                                                 16966M 17002M 17026M 17039  17108M 17108  17354M 17473M 17487  17507M
                                                 17514  17526M 17531  17589  17636M 17636  17991  18901M 18902M 18903
                                                 18904  18905M 18907M 18915M 18917  18923M 18935M 19135  19138M 19357M
                                                 19649M 20023M 20024M 20025M 20516M 20567M 20568M 20570  20623M 20623
                                                 20633M 20641  20652M 20653M 20655  20658M 20899  20916  20931M 20933
                                                 20997  21053M 21079M 21079  21097M 21443M 21445  21792M 21811M 21836M
                                                 21861M 21886M 21911M 21936M 21961M 21986M 22011M 22299  22334  22755
                                                 22790  23311  23324  23413M 23413  23414M 23640M 23926M 23973M 24060M
                                                 24687M 24856M 25036M 25074M 25075M 25183  25248M 25417  25514M 25935M
                                                 25985M 26438  26453M 26585M 26585  26631M
 R1            1 00000001 FFFFFFFF A   #     719 13279M 13344M 13360M 13360  13447M 13448M 13448  13474  13480  13494
                                                 13501  13516M 13552  13617M 13640M 13668M 13808M 13893  13894  13898M
                                                 13898  13994M 13994  14041  14078M 14084  14085  14089M 14089  14161
                                                 14162  14211M 14293M 14328M 14512M 14568M 14661M 14745M 14754M 14761
                                                 14762  14763  14764M 14797M 14858M 14858  14871  14888M 14935M 14955M
                                                 14969M 15131M 15155M 15208M 15293M 15314  15351M 15357  15358  15362M
                                                 15362  15436M 15458  15504M 15519M 15539M 15571M 15591M 15623M 15629M
                                                 15643M 15663M 15713M 15745M 15750  16944M 16965M 17001M 17033M 17038
                                                 17350M 17388  17441M 17578M 17638M 17638  17807U 18205  18484  18906
                                                 18907  18908M 18914  18915  18918M 18930M 19018M 19136  19139M 19145
                                                 19527M 19772  19880M 19987  20262  20305M 20306  20456  20515M 20548M
                                                 20558M 20568  20632M 20641  20650M 20651M 20653  20658M 20915  20926M
                                                 20932  20943M 20997  21209  21399  21444M 21445  21791M 21810M 21835M
                                                 21860M 21885M 21910M 21935M 21960M 21985M 22010M 22313M 22329U 22333
                                                 22441  22481M 22588M 22589M 22589  22640M 22769M 22785U 22789  22889
                                                 23077M 23115M 23219  23387  23614M 23645  23647M 23864M 23874U 23898
                                                 23909M 23910  23933M 23973M 24067M 24189  24231M 24577M 24704M 24850
                                                 24851  24855M 24855  25242  25243  25247M 25247  25305M 25316M 25316
                                                 25333M 25905  25925  25934M 25935  25953M 25977M 25985  25999M 26117M
                                                 26167  26306M 26311M 26630M
 R13          13 0000000D FFFFFFFF A   #     875 13334  13342  20258U 20452U 20788U 21395U 22085  22086  22087  22129
                                                 22130  22131  22153  22154  22155  22196  22197  22198  23804U
 R14          14 0000000E FFFFFFFF A   #     888 13216  14769M 20009M 20016M 20024  20025M 22339M 22795M 23407M 23412M
                                                 23414M
 R15          15 0000000F FFFFFFFF A   #     901 13172M 13173M 13173  13175  13180M 13183M 13183  13262M 13263  13273U
1MAIN     (MAIN2047) (12:35) (15MAR04) Ordinary Symbol and Literal Cross Reference                                          Page  135
                                                 13289M 13290  13300U 13340M 13340  13372M 13373M 13508M 13509  13511M
                                                 13512  13607M 13628M 13647M 13677M 13796M 13815M 14005M 14092M 14102U
                                                 14145M 14155U 14302M 14337M 14484  14503M 14521M 14526M 14563M 14572M
                                                 14654M 14738M 14768M 14768  14848M 14849  14865M 14948M 14993  15025M
                                                 15026M 15045M 15050  15146M 15164M 15215M 15286M 15366M 15376U 15486M
                                                 15498  15532M 15546M 15547M 15584M 15656M 15686M 15722M 15731M 15750M
                                                 15751M 15753M 15775M 15800M 15828M 15931  16213  16233  16259M 16263M
                                                 16272M 16272  16279  16311M 16316M 16316  16329  16349  16381M 16385M
                                                 16394M 16394  16401  16433M 16438M 16438  16451  16471  16501M 16505M
                                                 16514M 16514  16521  16553M 16558M 16558  16571  16591  16623M 16626
                                                 16638M 16646M 16655M 16655  16662  16694M 16699M 16699  16712  16732
                                                 16795M 16800M 16800  16908  16928  16957M 16974M 17010M 17019M 17038M
                                                 17039M 17041M 17063M 17088M 17116M 17134M 17139M 17139  17154U 17190U
                                                 17358M 17358  17440M 17446  17452M 17454M 17455  17456  17531M 17535M
                                                 17544M 17544  17551  17593M 17593  17639M 17663M 17663  17730M 17730
                                                 17818U 18099M 18100  18137M 18137  18288M 18289M 18290  18294M 18295M
                                                 18296  18301M 18302M 18303  18315  18321  18345M 18346M 18347  18367M
                                                 18368M 18369  18381  18387  18422M 18422  18585M 18586M 18587  18623M
                                                 18624M 18625  18651M 18651  18831M 18831  18900  18904M 18905  18954M
                                                 18954  19048M 19048  19115  19193M 19194  19201  19211U 19225M 19226M
                                                 19226  19266M 19266  19273  19371M 19395M 19395  19462  19533M 19543
                                                 19677M 19701M 19701  19856M 19865M 19865  19872  19877  19906M 19925M
                                                 19925  20027M 20028  20029M 20030  20043M 20043  20062M 20062  20359M
                                                 20359  20517M 20547M 20548  20549M 20551  20566M 20567  20570M 20599M
                                                 20599  20634M 20649M 20652  20655M 20662M 20662  20693M 20693  20800
                                                 20970M 20970  21141M 21141  21293M 21293  21483M 21483  21686M 21686
                                                 21721M 21721  21801M 21801  21826  21851  21876  21901  21926  21951
                                                 21976  22001  22034M 22034  22224M 22235  22338M 22338  22344M 22345M
                                                 22346  22347  22352M 22352  22376M 22376  22576M 22577  22629M 22649M
                                                 22649  22673M 22673  22794M 22794  22801M 22801  22825M 22825  23017M
                                                 23018M 23018  23041  23102M 23124M 23124  23148M 23148  23333M 23333
                                                 23358  23382M 23416M 23417M 23418  23419  23421M 23422  23424M 23425
                                                 23651M 23651  23685M 23685  23914M 23915M 23974M 24053M 24116M 24116
                                                 24464M 24474  24693M 24694M 24695M 24705M 24715M 24715  24739M 24739
                                                 24878M 24878  25119M 25119  25278M 25279M 25304M 25337M 25337  25356M
                                                 25356  25460M 25461M 25462M 25551M 25551  25862M 25862  25976M 25978M
                                                 25984M 26004M 26004  26282M 26291M 26291  26298  26303  26432U 26438
                                                 26453M 26621M 26639M 26662M 26662
 R2            2 00000002 FFFFFFFF A   #     732 13261M 13755M 13755  13758  13894M 13899M 14079M 14085M 14090M 14483M
                                                 14527B 14573M 15352M 15358M 15363M 17282M 17376M 17376  17405M 17409
                                                 17411M 17412M 17456M 17588  18909M 18916M 18917  18923M 19140M 19167M
                                                 19177M 19184M 19189M 19190  19194M 19290  19301M 19303M 19305M 19306M
                                                 19307M 19316M 19316  19593M 19595M 19597M 19598M 19599M 19608M 19608
                                                 20420  20441  20688M 20899M 21053  21763  21783  22029M 22087  22118M
                                                 22119M 22120B 22129M 22155  22186M 22187B 22196M 22224  22230M 22235M
                                                 22314M 22333M 22339M 22770M 22789M 22795M 23012M 23013M 23014M 23992M
                                                 23993  24022M 24377M 24381  24445M 24458  24492M 24531M 24541U 24851M
                                                 24856M 25035M 25045  25073M 25084  25157  25177  25243M 25248M 25280M
                                                 25291M 25291  25304  25351M 25513M 25523  25718M 25719M 25719  25734U
                                                 25946M 25978  26304M 26312B 26334M 26336M 26338M 26339M 26340M 26349M
                                                 26349
 R3            3 00000003 FFFFFFFF A   #     745 13757M 13757  13886M 13887M 13890  14056M 14057M 14057  14070M 14071
                                                 14076M 14077  14484M 14526  15329M 15330M 15330  15343M 15344  15349M
                                                 15350  17388M 17414M 17440  17455M 18922M 18922  19115M 19118  19130M
                                                 19190  19301M 19325M 19338M 19338  19345M 19356  19593M 19617M 19630M
                                                 19630  19637M 19648  22334M 22790M 23324M 23412  23993M 24015M 24015
                                                 24021M 24022  24048M 24053  24446M 24458  24835M 24836M 24846  24964M
                                                 24975M 24975  25064M 25228M 25238  25769M 25770M 25770  25785U 25949M
                                                 26304M 26311  26334M 26358M 26371M 26371  26378M 26389
1MAIN     (MAIN2047) (12:35) (15MAR04) Ordinary Symbol and Literal Cross Reference                                          Page  136
 R4            4 00000004 FFFFFFFF A   #     758 13751M 13758  14601M 14601  14678M 14678  14688  14695M 14714M 14714
                                                 14872M 14905M 14905  14940  15176M 17282M 17292U 17588  19135M 19191
                                                 19773M 19890M 19890  19906  21517M 21527U 22515M 22577  23379M 23380M
                                                 23381M 23420  23941M 23951U 24623M 24684  24960M 25062M 25242M 25259U
                                                 25329  25333  25463M 25481U 25951M 25954M 25956  25976  25977
 R5            5 00000005 FFFFFFFF A   #     771 14596M 14613  14695  14700M 14871M 14935  14969  15131  15175M 18906M
                                                 18916  18918  18935  19136M 19191  19503M 19512M 19512  19519  19524
                                                 19561M 19561  19588U 19772M 19824  19987M 19997U 20262M 20272U 20456M
                                                 20466U 20800M 20810U 21209M 21219U 21399M 21409U 22487M 22511U 22515
                                                 22526M 22527M 22527  22542  23326M 23329  23345  23367M 23379  23898M
                                                 24005  24016  24241M 24242M 24242  24263U 24595M 24619U 24623  24634M
                                                 24635M 24635  24650  24981M 24990M 24990  25013U 25183M 25196M 25196
                                                 25210  25266  25278  25417M 25430M 25430  25444  25460  25941M 25943M
                                                 25943  25948M 25949  25950M 25951  25952M 25953  25956M 25959M 25961
 R6            6 00000006 FFFFFFFF A   #     784 13218M 13228U 14597M 14613  14804M 14824M 14843M 14922  15025  15173M
                                                 15174  18029M 18030M 18030  18054U 18744M 18745M 18745  18769U 18914M
                                                 18930  19201M 19257  19278  19279  19290  19503M 19519  19524  19543
                                                 19782M 19872  19877  19886  20815M 20825U 23327M 23328M 23329M 23345
                                                 23847M 23857U 25945M 25954
 R7            7 00000007 FFFFFFFF A   #     797 18013M 18023U 18728M 18738U 18900M 19145M 19155U 19232  19273  19279
                                                 19371  19462M 19472U 19677  19775M 19782  19792U 19806M 19807M 19807
                                                 19880  19886M 25652M 25662U 26094M 26102  26115M 26193M 26193  26218M
                                                 26219M 26219  26234U
 SALCLOCK      1 00000000 00000000 A   T    1606  1606
 SCAN          1 00000000 00000012     T   16833 16833
 SCB         434 00000000 FFFFFFC5     J   12555 18214U 18231  18493U 18510  23396U 23415M 23614  23694  23705  23816U
                                                 23833  24198U 24215  24231  24409  24595  24619U 24668U 24684M 24703M
                                                 24704  25621U 25638
 SCBACCT       5 00000124 FFFFFFC5     C   12147 12310  12310  18534M 18534  23593M 23604M 23604  25703
 SCBACLCK      8 000000E8 FFFFFFC5     D   11989 11991  11991
 SCBAFLAG      1 000000CC FFFFFFC5     R   11946 11950  11955  11960  11965
 SCBAWRQH      4 00000024 FFFFFFC5     A   11820 23421
 SCBAWRQT      4 00000028 FFFFFFC5     A   11821 23422M
 SCBBFLAG      1 000000CD FFFFFFC5     R   11971 11975
 SCBCELLS      8 00002AE8 00000001     D   23688 23382  24754
 SCBCRI        2 000001A4 FFFFFFC5     H   12537 12542  12542
 SCBFKEEP     64 0000015F FFFFFFC5        12413 23558M 24352  24364M
 SCBFKEPT      2 000000FF FFFFFFC5        12125 24375M 24439
 SCBFLG        1 00000168 FFFFFFC5     R   12425 12429  12434  12439  12444  12449  12454  12459  12464
 SCBFLG2       1 00000169 FFFFFFC5     R   12470 12474  12479  12484
 SCBFNECH      1 00000168 FFFFFFC5        12464 23587M
 SCBFTRC     128 0000015F FFFFFFC5        12408 23532M 24369M 24511M
 SCBFUPL     128 00000168 FFFFFFC5        12429 23629M
 SCBFVFAST
             128 0000015C FFFFFFC5        12348 23635M
 SCBHEIP       2 0000018A FFFFFFC5     H   12524 23637M
 SCBID         4 000000F4 FFFFFFC5     F   11996 23418M 25697
 SCBKAFL       1 0000012F FFFFFFC5     R   12281 12285  12290  12295  12300  12305
 SCBKIFL       1 0000012E FFFFFFC5     R   12236 12240  12245  12250  12255  12260  12265  12270  12275
 SCBLCLCK      8 0000011C FFFFFFC5     X   12145 18322  18388  25700
 SCBLINK       4 00000004 FFFFFFC5     A   11808 23425M 24595  24634  24684M 24684  24685M
 SCBNAME      20 00000136 FFFFFFC5     C   12317 25705
 SCBNIO        4 000000F0 FFFFFFC5     F   11990 25701
 SCBNO         2 000000F8 FFFFFFC5     H   11997 23420M 23640  24687  24693
 SCBOFLAG      1 00000186 FFFFFFC5     R   12495 12499  12504  12509  12514  12519
 SCBOPST       4 00000134 FFFFFFC5     F   12315 12544  12544
 SCBPIBP       4 00000008 FFFFFFC5     A   11810 18247  18545  23431M 24241  24320M 24320  25718
 SCBQFLG       1 0000015C FFFFFFC5     R   12344 12348
 SCBR          9 00000009 00000001 A   #    1083 18205M 18214U 18484M 18493U 23387M 23396U 23426  23428  23430  23647
1MAIN     (MAIN2047) (12:35) (15MAR04) Ordinary Symbol and Literal Cross Reference                                          Page  137
                                                 23816U 24189M 24198U 24379  24381M 24474  24650  25621U
 SCBSFLG       1 0000012B FFFFFFC5     R   12154 12158  12163  12168  12173  12178  12183
 SCBSFOP      16 0000012B FFFFFFC5        12173 23506M
 SCBSFPS      32 0000012B FFFFFFC5        12168 18358  18612  23454M
 SCBSFSEC      8 0000012B FFFFFFC5        12178 23480M
 SCBSINP       4 00000014 FFFFFFC5     A   11814 23645M 25652
 SCBSTAG      16 00000080 FFFFFFC5     C   11828 23862M 23880M 23933  23979M 23980M 24067  25696
 SCBSTART      4 000000F4 FFFFFFC5     F   11995 11999  11999  12311  12311  12416  12416
 SCBSTAT       1 000000FF FFFFFFC5     R   12091 12095  12100  12105  12110  12115  12120  12125
 SCBSUB        8 00000104 FFFFFFC5     C   12134 24338M 25698
 SCBSUBPL      1 0000000D 00000001 A   U   12688 23695
 SCBTACF       1 0000012C FFFFFFC5     R   12189 12193  12198  12203  12208  12213  12218  12223  12228
 SCBTETYP      1 00000102 FFFFFFC5     C   12131 23638M
 SCBTFLAG      1 0000015A FFFFFFC5     R   12322 12326  12331  12336
 SCBTFLG       1 000000B0 FFFFFFC5     R   11833 11837  11842  11847  11852  11857  11862
 SCBTFLG2      1 000000B1 FFFFFFC5     R   11868 11872  11877  11882  11887  11892
 SCBTFLG3      1 000000B8 FFFFFFC5     R   11921 11925  11930
 SCBTID        8 0000014A FFFFFFC5     C   12318 23592M
 SCBTRCQH      4 000000DC FFFFFFC5     A   11986 24525M 24525  24531  24545M 24556M 24556
 SCBTRCQT      4 000000E0 FFFFFFC5     A   11987 24569M 24569
 SCBTYPE       1 000000FC FFFFFFC5     R   12004 12013  12023  12033  12043  12053  12063  12073  12083  23432M
 SCBUFLG       1 0000015E FFFFFFC5     R   12359 12363  12368  12373  12378  12383  12388  12393  12398
 SCBUFLG2      1 0000015F FFFFFFC5     R   12404 12408  12413
 SCBVINFO     16 0000010C FFFFFFC5     X   12143 25831
 SCBVPGM       8 0000010C FFFFFFC5     C   12137 12143  12143
 SCBWID        2 00000188 FFFFFFC5     H   12523 23636M
 SCBXFLG       1 000000B2 FFFFFFC5     R   11898 11902  11907
 SCB1ST        4 000000FC FFFFFFC5     F   12001 12546  12546
 SCINIT        1 00000000 00000011     T   16832 16832
 SCNCB         4 00000000 FFFFFFCE     F   10995 11006  15931
 SCNVAL        4 00000000 FFFFFFCE     A   10996 15931
 SCTELL        1 00000000 0000001B     T   16847 16847
 SDWA          1 00000000 FFFFFFE2     J    5106  6102   6845
 SDWACLEN      8 000001C8 FFFFFFDA A   U    6105  6112   6113
 SDWADEND      8 000000F0 FFFFFFDA     D    6099  6109
 SDWADLEN      8 000000F0 FFFFFFDA A   U    6109  6110
 SDWAEEND      8 00000150 FFFFFFDE     D    6050  6111
 SDWAELEN      8 00000150 FFFFFFDA A   U    6111  6112   6113   6120
 SDWAEND       8 00000298 FFFFFFE2     D    5745  6102
 SDWAIEND      8 00000010 FFFFFFE0     D    5972  6106
 SDWAILEN      8 00000010 FFFFFFDA A   U    6106  6112   6113
 SDWALEN       8 00000298 FFFFFFDA A   U    6102  6113
 SDWALEND      8 00000020 FFFFFFDF     D    6020  6107
 SDWALLEN      8 00000020 FFFFFFDA A   U    6107  6112   6113
 SDWAMLEN      8 00000600 FFFFFFDA A   U    6114  6117   6123
 SDWAMLNP      8 000005E0 FFFFFFDA A   U    6113  6114
 SDWANLNS      8 000001F0 FFFFFFDA A   U    6110  6117   6125
 SDWANRC1      1 00000000 FFFFFFDC     J    6074  6104
 SDWANRC2      1 00000000 FFFFFFDB     J    6083  6108
 SDWANRC3      1 00000000 FFFFFFDA     J    6096  6109
 SDWAPEND      8 00000020 FFFFFFDD     D    6068  6103
 SDWAPLEN      8 00000020 FFFFFFDA A   U    6103  6114
 SDWAPTRS      1 00000000 FFFFFFDD     J    6059  6103
 SDWARC1       1 00000000 FFFFFFE1     J    5747  6105
 SDWARC2       1 00000000 FFFFFFE0     J    5966  6106
 SDWARC3       1 00000000 FFFFFFDF     J    5978  6107
 SDWARC4       1 00000000 FFFFFFDE     J    6028  6111
 SDWAREND      8 000000F0 FFFFFFDC     D    6076  6104
 SDWARLEN      8 000000F0 FFFFFFDA A   U    6104  6110
1MAIN     (MAIN2047) (12:35) (15MAR04) Ordinary Symbol and Literal Cross Reference                                          Page  138
 SDWASEN       8 00000010 FFFFFFDB     D    6089  6108
 SDWASEND      8 000001C8 FFFFFFE1     D    5960  6105
 SDWASLEN      8 00000710 FFFFFFDA A   U    6123  6125
 SDWASPL       8 00000010 FFFFFFDA A   U    6108  6110
 SDWATLEN      8 000007F0 FFFFFFDA A   U    6117  6120
 SDWATRAN      4 00000074 FFFFFFE2     A    5268  5270
 SEG           1 00000000 0000001A     T   16846 16846  17918
 SEGB          1 00000000 00000023     T   16859 16859  17920
 SEGCB        60 00000000 FFFFFFCD     J   11119 20810U
 SEGCBCOD      1 00000000 FFFFFFCD     R   11030 11039  11049  11059  11069  11079  11089  11099
 SEGCBCR       6 00000000 FFFFFFCD        11089 20881  21030
 SEGCBLENF
               4 0000000C FFFFFFCD     A   11105 21043M 21043
 SEGCBMRKF
               4 00000008 FFFFFFCD     A   11104 21048M 21048
 SEGCBOVF      5 00000000 FFFFFFCD        11079 20893
 SEGCBSPP      4 00000000 FFFFFFCD        11069 21070
 SEGCBUSR      4 00000038 FFFFFFCD     A   11112 20815
 SEGCBWR       2 00000000 FFFFFFCD        11049 20869  21018
 SEGCLR        1 00000000 0000003B     T   26682 26682
 SEGT          1 00000000 00000022     T   16857 16857  17917
 SEGTB         1 00000000 00000021     T   16855 16855
 SEGWR         1 00000000 00000013     T   16834 16834  17922  26683
 SERVDO        1 00000000 00000037     T   26672 26672
 SERVINIT      1 00000000 0000002B     T   18149 18149
 SESTIMER      1 00000000 00000029     T   18146 18146
 SHUTDOWN      1 00000000 0000003A     T   26681 26681
 SIN         224 00000000 FFFFFFC3     J   12681 25013U 25028  25034M 25035  25228  25259U 25264M 25367  25481U 25498
                                                 25512M 25513  25662U 25680
 SINACCT       5 00000020 FFFFFFC3     C   12630 25703  25703M
 SINANO        2 00000025 FFFFFFC3     X   12633 25703
 SINEALLO      2 00002F9A 00000001     H   25150 23711
 SINEFREE      2 00003080 00000001     H   25384 24752
 SINEUPD       2 00003132 00000001     H   25580 25576
 SINFE         8 00000066 FFFFFFC3     C   12642 25809M
 SINID         4 00000008 FFFFFFC3     F   12624 25697M
 SINLCLCK      8 00000014 FFFFFFC3     X   12627 25700M
 SINLEN        2 00000004 FFFFFFC3     H   12621 25036  25265M 25514
 SINNAME      20 0000003E FFFFFFC3     C   12638 25705M
 SINNO         2 00000006 FFFFFFC3     H   12623 25266M
 SINPORT       8 0000006E FFFFFFC3     C   12643 25758M
 SINSTAG      16 00000052 FFFFFFC3     C   12639 25696M
 SINSUB        8 0000000C FFFFFFC3     C   12626 25698M
 SINTALLO      2 00002E62 00000001     H   24774 16837
 SINTFREE      2 00002EE2 00000001     H   24905 24901
 SINTIO        4 0000001C FFFFFFC3     F   12628 25701M
 SINUID       20 0000002A FFFFFFC3     C   12637 25704M
 SINVINFO     16 00000098 FFFFFFC3     X   12655 25831M
 SINVPGM       8 00000098 FFFFFFC3     C   12649 12655  12655
 SMCABASE      1 00000000 FFFFFFE4     J    4271  4621  23874U
 SMCAEND       1 000001E0 FFFFFFE4     U    4620  4621
 SMCASID       4 00000010 FFFFFFE4     C    4334 23880
 SPR          13 0000000D 00000001 A   #    1147 13480M 13481M 13482  13482  16210  16213  16229M 16231  16231  16232
                                                 16232  16233  16308M 16308  16311  16313  16315  16315  16326  16329
                                                 16345M 16347  16347  16348  16348  16349  16430M 16430  16433  16435
                                                 16437  16437  16448  16451  16467M 16469  16469  16470  16470  16471
                                                 16550M 16550  16553  16555  16557  16557  16568  16571  16587M 16589
                                                 16589  16590  16590  16591  16691M 16691  16694  16696  16698  16698
                                                 16709  16712  16728M 16730  16730  16731  16731  16732  16792M 16792
1MAIN     (MAIN2047) (12:35) (15MAR04) Ordinary Symbol and Literal Cross Reference                                          Page  139
                                                 16795  16797  16799  16799  16905  16908  16924M 16926  16926  16927
                                                 16927  16928  17131M 17131  17134  17136  17138  17138  17253  17256
                                                 17272M 17274  17274  17275  17275  17276  17655M 17655  17658  17660
                                                 17662  17662  17682  17685  17701M 17703  17703  17704  17704  17705
                                                 17722M 17722  17725  17727  17729  17729  17949  17952  17968M 17970
                                                 17970  17971  17971  17972  18129M 18129  18132  18134  18136  18136
                                                 18176  18179  18195M 18197  18197  18198  18198  18199  18414M 18414
                                                 18417  18419  18421  18421  18455  18458  18474M 18476  18476  18477
                                                 18477  18478  18643M 18643  18646  18648  18650  18650  18680  18683
                                                 18699M 18701  18701  18702  18702  18703  18823M 18823  18826  18828
                                                 18830  18830  18871  18874  18890M 18892  18892  18893  18893  18894
                                                 18946M 18946  18949  18951  18953  18953  18989  18992  19008M 19010
                                                 19010  19011  19011  19012  19040M 19040  19043  19045  19047  19047
                                                 19086  19089  19105M 19107  19107  19108  19108  19109  19387M 19387
                                                 19390  19392  19394  19394  19433  19436  19452M 19454  19454  19455
                                                 19455  19456  19693M 19693  19696  19698  19700  19700  19743  19746
                                                 19762M 19764  19764  19765  19765  19766  19917M 19917  19920  19922
                                                 19924  19924  19958  19961  19977M 19979  19979  19980  19980  19981
                                                 20054M 20054  20057  20059  20061  20061  20223  20226  20243M 20245
                                                 20245  20246  20246  20247  20350M 20350  20354  20356  20358  20358
                                                 20417  20420  20437M 20439  20439  20440  20440  20441  20684M 20684
                                                 20688  20690  20692  20692  20753  20756  20773M 20775  20775  20776
                                                 20776  20777  21132M 21132  21136  21138  21140  21140  21180  21183
                                                 21199M 21201  21201  21202  21202  21203  21285M 21285  21288  21290
                                                 21292  21292  21360  21363  21380M 21382  21382  21383  21383  21384
                                                 21712M 21712  21716  21718  21720  21720  21760  21763  21779M 21781
                                                 21781  21782  21782  21783  22026M 22026  22029  22031  22033  22033
                                                 22257  22260  22276M 22278  22278  22279  22279  22280  22368M 22368
                                                 22371  22373  22375  22375  22412  22415  22431M 22433  22433  22434
                                                 22434  22435  22665M 22665  22668  22670  22672  22672  22713  22716
                                                 22732M 22734  22734  22735  22735  22736  22817M 22817  22820  22822
                                                 22824  22824  22860  22863  22879M 22881  22881  22882  22882  22883
                                                 23140M 23140  23143  23145  23147  23147  23190  23193  23209M 23211
                                                 23211  23212  23212  23213  23677M 23677  23680  23682  23684  23684
                                                 23769  23772  23789M 23791  23791  23792  23792  23793  24107M 24107
                                                 24111  24113  24115  24115  24160  24163  24179M 24181  24181  24182
                                                 24182  24183  24731M 24731  24734  24736  24738  24738  24778  24781
                                                 24797M 24799  24799  24800  24800  24801  24870M 24870  24873  24875
                                                 24877  24877  24909  24912  24928M 24930  24930  24931  24931  24932
                                                 25111M 25111  25114  25116  25118  25118  25154  25157  25173M 25175
                                                 25175  25176  25176  25177  25348M 25348  25351  25353  25355  25355
                                                 25388  25391  25407M 25409  25409  25410  25410  25411  25543M 25543
                                                 25546  25548  25550  25550  25584  25587  25603M 25605  25605  25606
                                                 25606  25607  25854M 25854  25857  25859  25861  25861  25902  25905
                                                 25921M 25923  25923  25924  25924  25925  25996M 25996  25999  26001
                                                 26003  26003  26045M 26046M 26047  26047  26498  26501  26517M 26519
                                                 26519  26520  26520  26521  26654M 26654  26657  26659  26661  26661
 SRBEND        4 0000002C FFFFFFD5     F    8671  8672
 SRBSECT       1 00000000 FFFFFFD5     J    8604  8672
 START         4 00000000 00000001     C    1038 12731
 STOPCHK       2 00003414 00000001     H   26494 26490
 STRC         44 00000000 FFFFFFC4     J   12604 24541U 24575M 24577
 STRCFLAG      1 00000010 FFFFFFC4     R   12580 12584
 STRCLINK      4 00000004 FFFFFFC4     A   12575 24545  24576M
 STRCSTRT      4 00000000 FFFFFFC4     C   12574 12594  12594
 SUB         132 00000000 FFFFFFC9     J   11426 13511
 SUBDO         1 00000000 00000039     T   26674 26674
 SUBFIN        1 00000000 00000015     T   16838 16838
 SUBFLAG       1 00000020 FFFFFFC9     R   11330 11334
1MAIN     (MAIN2047) (12:35) (15MAR04) Ordinary Symbol and Literal Cross Reference                                          Page  140
 SUBLINK       4 00000008 FFFFFFC9     F   11323 13511
 SUBNAME       8 00000010 FFFFFFC9     C   11326 11350  11350
 SUBP          4 00000048 FFFFFFC9     F   11356 11415
 SUBPATHX      4 00000048 FFFFFFC9     F   11355 11416  11416
 SUBSFLAG      1 00000080 FFFFFFC9     X   11418 11379
 SYSDDNAM      8 0000182C 00000001     C   17778 13844  13850M 13870  13876M
 SYSINDCB      4 00001804 00000001     F   17741 13733  13745  13751  17307  17384  17604  17608  17778
 SYSINOP       2 0000195C 00000001     H   17797 17785
 TCB           1 00000020 FFFFFFD7     U    7742  8441  13273U
 TCBAE         4 000000BC FFFFFFD7     A    7986  7989
 TCBDARPN      1 00000040 FFFFFFD7 A   U    8032  8034
 TCBDARTN      1 00000080 FFFFFFD7 A   U    8029  8031
 TCBFIX        1 00000000 FFFFFFD7     J    7730  7737
 TCBMNLEN      1 00000158 FFFFFFD7 A   U    8441  8486
 TCBPKF        1 0000003C FFFFFFD7     B    7792 13278
 TCBPXLEN      1 00000020 FFFFFFD7 A   U    7737  8486
 TCBRD         4 000000B8 FFFFFFD7     A    7981  7985
 TCBTIO        4 0000002C FFFFFFD7     A    7750 13279
 TCBXTNT2      1 00000000 FFFFFFD6     J    8446  8484
 TCBX2LEN      1 00000020 FFFFFFD6 A   U    8484  8486
 TERMCNT       2 00001BDE 00000001     H   18676 18147  18394B 18627B
 TIMEDATE      1 00000000 0000002E     T   24127 24127
 TIMERDQ       2 00001E3A 00000001     H   19429 19425
 TIMERPRG      2 00001F22 00000001     H   19739 19735  22682  23157  24748
 TIMERQ        2 00001D0E 00000001     H   19082 19078
 TIMREXIT      2 000033D0 00000001     H   26436 19409  19714  26394  26432U
 TQE          28 00000000 FFFFFFCB     J   11175 19138  19155U 19165M 19165  19166M 19193  19211U 19232  19273M 19278
                                                 19279M 19472U 19489  19519M 19524M 19526M 19527  19533  19588U 19667U
                                                 19775  19792U 19843  19872M 19877M 19879M 26234U 26269  26298M 26305M
                                                 26306
 TQEBACK       4 00000008 FFFFFFCB     A   11165 19257M 19273M 19519M 19872M 26298M 26298
 TQECLCK       8 0000000C FFFFFFCB     X   11166 19190M 19232  19232  19301  19593  26250  26334
 TQELINK       4 00000004 FFFFFFCB     A   11164 19193  19225  19278M 19278  19279M 19503  19524M 19533  19775  19806
                                                 19856  19877M 26282
 TQEPARM       4 00000018 FFFFFFCB     A   11168 19824
 TQERTN        4 00000014 FFFFFFCB     A   11167 19191M 26304
 TQESUBPL      1 0000000F 00000001 A   U   12690 19139
 TRCELOCK      1 00000000 00000000 A   T    1630  1630
 TRCSUBPL      1 0000000E 00000001 A   U   12689 18908
 UNGETFLG      1 00001955 00000001     X   17783 17329  17341M 17341  17711M
 UNGETSIN      2 000017D0 00000001     H   17678 17674
 UNPRESS       2 00003216 00000001     H   25898 17923
 UPAT          4 00000008 FFFFFFCA     F   11223 11282  20305
 UPATECB       4 00000030 FFFFFFCA     R   11258 20028M
 UPATECBF      4 00000028 FFFFFFCA     R   11246 20030M
 UPATFLAG      1 00000004 FFFFFFCA     R   11197 11201  11206  11211  11216
 UPATFNI       1 00000020 FFFFFFCA A   U   11250 20505  20531  20646
 UPATFOPR     16 00000004 FFFFFFCA        11216 21601M
 UPATFSPR     32 00000004 FFFFFFCA        11211 21574M
 UPATH       124 00000000 FFFFFFCA     J   11302 19997U 20016  20180  20180  20272U 20289  20466U 20483  20549  20549
                                                 20566  20566  20570M 20570M 20649  20649  20651  20651  20655M 20655M
                                                 20825U 20842  21219U 21236  21409U 21424
 UPATMGC       4 00000008 FFFFFFCA     R   11225 20585  20956  21264  21466
 UPATPACT      8 00000056 FFFFFFCA     X   11292 21549M 21665M 21666M 21667M 21668M
 UPATPASC      4 00000048 FFFFFFCA     F   11289 21513M 21643  21663
 UPATPJOB      8 0000004E FFFFFFCA     X   11291 21548M 21645M
 UPATPLNO      2 0000004C FFFFFFCA     H   11290 21550M 21670M
 UPATPNAM     20 0000005E FFFFFFCA     X   11293 21551M 21677M 21677
 UPATRBAF      1 0000000C FFFFFFCA A   U   11271 22046
1MAIN     (MAIN2047) (12:35) (15MAR04) Ordinary Symbol and Literal Cross Reference                                          Page  141
 UPATRBOM      1 00000014 FFFFFFCA A   U   11273 22048
 UPATRBPI      1 0000001C FFFFFFCA A   U   11275 22050
 UPATRCP       4 00000074 FFFFFFCA     A   11295 20991M 20991  20997M 21090M 21090
 UPATRIAD      1 00000020 FFFFFFCA A   U   11276 22051
 UPATRIBS      1 00000018 FFFFFFCA A   U   11274 22049
 UPATRIFC      1 00000004 FFFFFFCA A   U   11269 22044
 UPATRNOP      1 00000010 FFFFFFCA A   U   11272 22047
 UPATRPMW      1 00000008 FFFFFFCA A   U   11270 22045
 UPATSFLG      1 00000040 FFFFFFCA     X   11284 11246  20029  20507  20549  20549  20566  20570M 20649  20651  20651
                                                 20655M
 UPPTBL        1 000034D7 00000001     R   26700 26696  26700  26701  26703  26705
 UPPTBL        1 00000000 00000004     T   12994 12994
 USEACTR       4 0000005C FFFFFFE5     A    4066 23992  24022M
 USEADATE      4 00000060 FFFFFFE5     A    4067 24005  24016M
 USEHSPFL      1 00000004 FFFFFFE5     X    4017 18088M
 USEIPLTM      8 0000001C FFFFFFE5     X    4049 23973
 USEMASCB      4 0000004C FFFFFFE5     A    4062 18089M
 USEMGINP      4 00000050 FFFFFFE5     A    4063 18096M 18096
 USEMILCT      2 0000000C FFFFFFE5     H    4043 18798M
 USEMILNM      8 0000006C FFFFFFE5     C    4070 18097M
 USEMNSIN      4 00000058 FFFFFFE5     A    4065 18100M
 USEMSITP      4 00000054 FFFFFFE5     A    4064 18098M
 USERCVT     863 00000000 FFFFFFE5     J    4089 18054U 18069  18769U 18784  23951U 23967
 VFIXLOCK      1 00000000 00000000 A   T    1616  1616
 VIRTDEF       1 00000000 00000019     T   16842 16842
 VIRTFIN       1 00000000 00000027     T   17225 17225
 VIRTPOST      1 00000000 00000035     T   26472 26472
 VPAGLOCK      1 00000000 00000000 A   T    1621  1621
 VRADAT        1 00000002 FFFFFFD9     G    6258  6262
 VRAKL         2 00000000 FFFFFFD9     G    6250  6262
 WTO           1 00000000 0000000F     T   13574 13574
 WTOFAIL       2 0000162C 00000001     H   17158 13535  17154U
 WTOQSUBP      1 0000000B 00000001 A   U   12686 13534
 WTOSEG        1 00000000 00000010     T   13575 13575
 XLCUR         4 00000E5C 00000001     A   15185 14804  15174M
 XLE        1024 00000000 FFFFFFC6     J   11786 14753  14764
 XLEFIGN       1 00000002 00000001 A   U   11792 15118
 XLEFINV       1 00000001 00000001 A   U   11791 15091
 XLEND         4 00000E60 00000001     A   15186 14849M 14922
 XLSTART       4 00000E58 00000001     A   15184 14590M 14590  14762M 14788M 14788  14824  15026
 XLTYPE        1 00000E64 00000001     C   15187 14595M 14595  14817  14823M 14836  15038  15084
 XTB           1 00000000 0000001D     T   16850 16850
 YPARTBL       1 00003AD7 00000001     R   26808 26697  26808  26808
 =A(-8)        4 00000910 00000001     A   13568 13373
 =A(CV)        4 000034C0 00000001     A   26680 26439
 =A(CVBUFLEN)
               4 00000920 00000001     A   13572 13489  13496
 =A(DISPATCH)
               4 000013E4 00000001     A   16845 14350
 =A(FEBTMAX)
               4 000013DC 00000001     A   16843 14230
 =A(FEBTMAX)
               4 000034AC 00000001     A   26675 26136
 =A(FININIT)
               4 000013E0 00000001     A   16844 14286
 =A(FREEPIB)
               4 00001408 00000001     A   16854 15507
 =A(FREETRC)
               4 00002798 00000001     A   22684 22632
1MAIN     (MAIN2047) (12:35) (15MAR04) Ordinary Symbol and Literal Cross Reference                                          Page  142
 =A(FREETRC)
               4 00002914 00000001     A   23158 23105
 =A(GETSIN)
               4 000013C0 00000001     A   16836 13772
 =A(INCRSES)
               4 00002B20 00000001     A   23709 23617
 =A(KEYNZERO)
               4 00001A88 00000001     A   18152 18103
 =A(KEYNZERO)
               4 00001C48 00000001     A   18842 18801
 =A(KEYZERO)
               4 00001A84 00000001     A   18151 18080
 =A(KEYZERO)
               4 00001C44 00000001     A   18841 18796
 =A(L'FEB)
               4 000026C4 00000001     A   22386 22299
 =A(L'LINE)
               4 000019B0 00000001     A   17925 17514  17526
 =A(L'PIB)
               4 00002810 00000001     A   22834 22755
 =A(L'PIBDFSYS)
               4 00001444 00000001     A   16861 16242  16254
 =A(L'PIBINFO)
               4 00001454 00000001     A   16865 16626  16638
 =A(L'PIBLOC)
               4 00001450 00000001     A   16864 16484  16496
 =A(L'PIBTID)
               4 00001448 00000001     A   16862 16364  16376
 =A(L'SCB)
               4 00002B10 00000001     A   23705 23311
 =A(MAKESTAG)
               4 00002B1C 00000001     A   23708 23612
 =A(PATHRC)
               4 000021DC 00000001     A   20703 20607
 =A(PATHRC)
               4 000022EC 00000001     A   21151 20978
 =A(SCBCELLS)
               4 00002E40 00000001     A   24754 24705
 =A(SINEALLO)
               4 00002B28 00000001     A   23711 23643
 =A(SINEFREE)
               4 00002E38 00000001     A   24752 24690
 =A(SINTALLO)
               4 000013C4 00000001     A   16837 13903
 =A(TERMCNT)
               4 00001A74 00000001     A   18147 17985
 =A(TIMERPRG)
               4 00002790 00000001     A   22682 22484
 =A(TIMERPRG)
               4 00002910 00000001     A   23157 23080
 =A(TIMERPRG)
               4 00002E28 00000001     A   24748 24234
 =A(TIMREXIT)
               4 00001E34 00000001     A   19409 19357
 =A(TIMREXIT)
               4 00001F18 00000001     A   19714 19649
 =A(UNPRESS)
               4 000019A8 00000001     A   17923 17444
 =A(UPATRBAF)
1MAIN     (MAIN2047) (12:35) (15MAR04) Ordinary Symbol and Literal Cross Reference                                          Page  143
               4 00002548 00000001     A   22046 21876
 =A(UPATRBOM)
               4 00002550 00000001     A   22048 21926
 =A(UPATRBPI)
               4 00002558 00000001     A   22050 21976
 =A(UPATRIAD)
               4 0000255C 00000001     A   22051 22001
 =A(UPATRIBS)
               4 00002554 00000001     A   22049 21951
 =A(UPATRIFC)
               4 00002540 00000001     A   22044 21826
 =A(UPATRNOP)
               4 0000254C 00000001     A   22047 21901
 =A(UPATRPMW)
               4 00002544 00000001     A   22045 21851
 =A(X'047000')
               4 0000090C 00000001     A   13567 13344
 =A(X'80000000')
               4 000026C0 00000001     A   22385 22119
 =A(0)         4 00001E20 00000001     A   19404 19118  19130
 =A(1)         4 00001E30 00000001     A   19408 19184  19325
 =A(1)         4 00001F14 00000001     A   19713 19617
 =A(1)         4 000034BC 00000001     A   26679 26358
 =A(100000)
               4 00002C58 00000001     A   24128 23915
 =A(6)         4 00001458 00000001     A   16866 16751
 =A(80)        4 000019AC 00000001     A   17924 17487
 =AL2(L'SIN)
               2 0000307E 00000001     R   25367 25265
 =AL2(0)       2 000019C0 00000001     R   17930 17886
 =AL4(-1)      4 00001438 00000001     R   16858 15703
 =AL4(-1)      4 00001998 00000001     R   17919 16991
 =C'..'        2 000014B8 00000001     C   16873 15019
 =C'**'        2 000014BE 00000001     C   16876 15111
 =C', line'
               6 000014CC 00000001     C   16879 15713
 =C', line'
               6 000019B6 00000001     C   17927 17001
 =C': already defined.'
              18 00001474 00000001     C   16869 14661
 =C': ignored'
               9 000019C2 00000001     C   17931 16965
 =C': invalid front-end type.'
              25 0000152A 00000001     C   16885 15293
 =C': invalid hex digits.'
              21 00001515 00000001     C   16884 15155
 =C': invalid.'
              10 000014C2 00000001     C   16878 15663
 =C': no room.'
              10 00001486 00000001     C   16870 14745
 =C': too long (>256).'
              18 000014A6 00000001     C   16872 14955
 =C': Invalid parm'
              14 00001466 00000001     C   16868 14512
 =C'##'        2 000014BC 00000001     C   16875 15066
 =C'invalid syntax.'
              15 00001556 00000001     C   16887 15623
 =C'is already defined.'
              19 00001543 00000001     C   16886 15591
1MAIN     (MAIN2047) (12:35) (15MAR04) Ordinary Symbol and Literal Cross Reference                                          Page  144
 =C'is out of bounds (not enough ports).'
              36 00001410 00000001     C   16856 15539
 =C'missing operand.'
              16 000013A0 00000001     C   16831 15629
 =C'strc'      4 00002E2C 00000001     C   24749 24575
 =C'BAD SUZAN ADDR'
              14 0000256E 00000001     C   22055 22010
 =C'BAD SUZAN BUFFER ADDR'
              21 000025C1 00000001     C   22061 21985
 =C'BAD SUZAN CONTROL BLOCK'
              23 00002598 00000001     C   22058 21860
 =C'BAD SUZAN FUNCTION CODE'
              23 00002581 00000001     C   22057 21835
 =C'BUFFER FULL'
              11 000025AF 00000001     C   22059 21885
 =C'BUFFER TOO SMALL'
              16 00002530 00000001     C   22043 21960
 =C'ERROR'
               5 0000257C 00000001     C   22056 21810
 =C'FEB'       3 000027A2 00000001     C   22687 22467
 =C'FEB'       3 00002925 00000001     C   23163 22998
 =C'FEB'       3 00002B33 00000001     C   23715 23284
 =C'FEB'       3 00003213 00000001     C   25876 25800
 =C'FREESCB ptr error.'
              18 00002E4A 00000001     C   24757 24289
 =C'MILTEN'
               6 00000930 00000001     C   13576 13427
 =C'No preceding table.'
              19 00001502 00000001     C   16883 14797
 =C'No reserve memory -- larger region needed'
              41 000014D9 00000001     C   16882 14328
 =C'No users active.'
              16 00003490 00000001     C   26671 26630
 =C'Not even no of digits.'
              22 00001490 00000001     C   16871 14888
 =C'NO DATA'
               7 000021E2 00000001     C   20705 20515  20632
 =C'NO PARTNER'
              10 00002564 00000001     C   22054 21910
 =C'OFEB'      4 0000279C 00000001     C   22685 22639
 =C'OK'        2 00002562 00000001     C   22053 21791
 =C'OPIB'      4 00002918 00000001     C   23159 23114
 =C'OSCB'      4 00002E3C 00000001     C   24753 24703
 =C'OSIN'      4 00003128 00000001     C   25560 25512
 =C'OTQE'      4 00001F08 00000001     C   19710 19526
 =C'OTQE'      4 00001FB8 00000001     C   19930 19879
 =C'OTQE'      4 000034B0 00000001     C   26676 26305
 =C'Parm error'
              10 0000145C 00000001     C   16867 13668
 =C'PATH'      4 000020F8 00000001     C   20368 20289
 =C'PATH'      4 000021D8 00000001     C   20702 20483
 =C'PATH'      4 000022E8 00000001     C   21150 20842
 =C'PATH'      4 00002350 00000001     C   21302 21236
 =C'PATH'      4 00002460 00000001     C   21730 21424
 =C'PIB'       3 00002922 00000001     C   23162 22915
 =C'PIB'       3 00002B30 00000001     C   23714 23245
 =C'PIB'       3 00002E5F 00000001     C   24759 24278  24305
 =C'PIB'       3 00003210 00000001     C   25875 25749
 =C'PINF'      4 00002464 00000001     C   21731 21542
1MAIN     (MAIN2047) (12:35) (15MAR04) Ordinary Symbol and Literal Cross Reference                                          Page  145
 =C'Ready'
               5 000014D4 00000001     C   16881 14293
 =C'SCB'       3 00001B52 00000001     C   18432 18231
 =C'SCB'       3 00001BDA 00000001     C   18661 18510
 =C'SCB'       3 00002C7A 00000001     C   24137 23833
 =C'SCB'       3 00002E5C 00000001     C   24758 24215  24409
 =C'SCB'       3 0000320A 00000001     C   25873 25638
 =C'SCIP'      4 00001A80 00000001     C   18150 18069
 =C'SCIP'      4 00001C40 00000001     C   18840 18784
 =C'SCIP'      4 00002C60 00000001     C   24130 23967
 =C'SIN '      4 00003078 00000001     C   25365 25264
 =C'SIN'       3 00002F96 00000001     C   25130 25028
 =C'SIN'       3 0000312E 00000001     C   25562 25498
 =C'SIN'       3 0000320D 00000001     C   25874 25680
 =C'TOO BIG'
               7 000025BA 00000001     C   22060 21935
 =C'TQE'       3 00001F1E 00000001     C   19716 19489
 =C'TQE'       3 00001FC2 00000001     C   19933 19843
 =C'TQE'       3 000034D4 00000001     C   26686 26269
 =C'X????-XXXX-00000'
              16 00002C40 00000001     C   24125 23862
 =C'ZSIN'      4 00002F90 00000001     C   25128 25034
 =CL4'FEB'
               4 000026CC 00000001     C   22388 22340
 =CL4'PIB'
               4 00002818 00000001     C   22836 22796
 =CL4'SCB'
               4 00002B18 00000001     C   23707 23415
 =CL4'TQE'
               4 00001E28 00000001     C   19406 19166
 =CL8'MILTEN'
               8 00001380 00000001     C   16827 13704
 =CL8'PORTS'
               8 00001388 00000001     C   16828 13844
 =CL8'SYSIN'
               8 00001398 00000001     C   16830 13876
 =CL8'TABLE'
               8 00001390 00000001     C   16829 13850  13870
 =CL8'TESTMIL'
               8 00001378 00000001     C   16826 13687
 =F'-1'        4 00002E30 00000001     F   24750 24576  24685
 =F'-8'        4 00001CB8 00000001     F   18963 18902
 =F'1'         4 000013F4 00000001     F   16849 14873
 =F'1'         4 00002C6C 00000001     F   24133 24021
 =F'100000'
               4 00002C74 00000001     F   24135 24048
 =F'40960000'
               4 00001E2C 00000001     F   19407 19167  19307
 =F'40960000'
               4 00001F10 00000001     F   19712 19599
 =F'40960000'
               4 000034B8 00000001     F   26678 26340
 =H'-1'        2 0000246A 00000001     H   21733 21670
 =H'0,24'      2 00002B24 00000001     H   23710 23637
 =H'2'         2 000014C0 00000001     H   16877 15176
 =H'2'         2 000019BE 00000001     H   17929 17412
 =H'512'       2 000014BA 00000001     H   16874 15045
 =H'7'         2 00001CC2 00000001     H   18966 18901
 =H'80'        2 00002B2E 00000001     H   23713 23636
1MAIN     (MAIN2047) (12:35) (15MAR04) Ordinary Symbol and Literal Cross Reference                                          Page  146
 =V(AMODE31)
               4 0000091C 00000001     V   13571 13486
 =V(BTD)       4 00002C5C 00000001     V   24129 23936  24070
 =V(BTR)       4 00001440 00000001     V   16860 15748
 =V(BTR)       4 000019A0 00000001     V   17921 17036
 =V(COMMAND)
               4 000013F0 00000001     V   16848 14576
 =V(CONSDEF)
               4 000013D0 00000001     V   16840 14019  15235
 =V(CONSPORT)
               4 000013FC 00000001     V   16851 15236
 =V(COREINIT)
               4 00000924 00000001     V   13573 13505
 =V(CV)        4 00000908 00000001     V   13566 13214
 =V(DEQUOTE)
               4 0000144C 00000001     V   16863 16480  16599
 =V(ELFDEF)
               4 00001400 00000001     V   16852 15255
 =V(ELFPORT)
               4 00001404 00000001     V   16853 15256
 =V(FMTTIME)
               4 00002C64 00000001     V   24131 23977
 =V(FREECORE)
               4 00001D08 00000001     V   19057 19028
 =V(FREECORE)
               4 00001F0C 00000001     V   19711 19530
 =V(FREECORE)
               4 00001FBC 00000001     V   19931 19883
 =V(FREECORE)
               4 00002794 00000001     V   22683 22598  22643
 =V(FREECORE)
               4 0000291C 00000001     V   23160 23118
 =V(FREECORE)
               4 00002E34 00000001     V   24751 24580
 =V(FREECORE)
               4 000034B4 00000001     V   26677 26309
 =V(FREEPOOL)
               4 00002E44 00000001     V   24755 24708
 =V(GETPOOL)
               4 00002B14 00000001     V   23706 23385
 =V(KEYNZERO)
               4 00002C70 00000001     V   24134 24045
 =V(KEYZERO)
               4 00002C68 00000001     V   24132 23984
 =V(LOCALTOD)
               4 00001A78 00000001     V   18148 17989
 =V(LOCALTOD)
               4 00002C50 00000001     V   24126 23892
 =V(MCOMDO)
               4 000034A4 00000001     V   26673 26082
 =V(MCOMINIT)
               4 000013CC 00000001     V   16839 13917
 =V(MILVERS)
               4 00000918 00000001     V   13570 13447
 =V(MUDINIT)
               4 000013BC 00000001     V   16835 13721
 =V(NGETCORE)
               4 000013D4 00000001     V   16841 14082  14759  15355
 =V(NGETCORE)
1MAIN     (MAIN2047) (12:35) (15MAR04) Ordinary Symbol and Literal Cross Reference                                          Page  147
               4 00001CBC 00000001     V   18964 18912
 =V(NGETCORE)
               4 00001E24 00000001     V   19405 19143
 =V(NGETCORE)
               4 000026C8 00000001     V   22387 22317
 =V(NGETCORE)
               4 00002814 00000001     V   22835 22773
 =V(SCAN)      4 000013B4 00000001     V   16833 13650  13818  14868  15218
 =V(SCINIT)
               4 000013B0 00000001     V   16832 13631  13799  14008
 =V(SCTELL)
               4 000013EC 00000001     V   16847 14566
 =V(SEG)       4 000013E8 00000001     V   16846 14506  14657  14741  14951  15149  15289  15689
 =V(SEG)       4 00001994 00000001     V   17918 16977
 =V(SEGB)      4 0000143C 00000001     V   16859 15725
 =V(SEGB)      4 0000199C 00000001     V   17920 17013
 =V(SEGCLR)
               4 000034C8 00000001     V   26682 26624
 =V(SEGT)      4 00001434 00000001     V   16857 15659  15803
 =V(SEGT)      4 00001990 00000001     V   17917 16960  17091
 =V(SEGTB)
               4 0000140C 00000001     V   16855 15535  15587
 =V(SEGWR)
               4 000013B8 00000001     V   16834 13680  14305  14340  14524  15167  15831
 =V(SEGWR)
               4 000019A4 00000001     V   17922 17119
 =V(SEGWR)
               4 000034CC 00000001     V   26683 26642
 =V(SERVDO)
               4 000034A0 00000001     V   26672 26075
 =V(SERVINIT)
               4 00001A7C 00000001     V   18149 17995
 =V(SESTIMER)
               4 00001A70 00000001     V   18146 17980
 =V(SHUTDOWN)
               4 000034C4 00000001     V   26681 26588
 =V(SUBDO)
               4 000034A8 00000001     V   26674 26089
 =V(SUBFIN)
               4 000013C8 00000001     V   16838 13910
 =V(TIMEDATE)
               4 00002C54 00000001     V   24127 23896
 =V(VIRTDEF)
               4 000013D8 00000001     V   16842 14132
 =V(WTO)       4 00000928 00000001     V   13574 13516
 =V(WTOSEG)
               4 0000092C 00000001     V   13575 13555
 =V(XTB)       4 000013F8 00000001     V   16850 14979
 =X'02290580'
               4 00000914 00000001     X   13569 13391
 =Y(0+4+40+((L'MTWA+3)/4*4)+4)
               2 00002C78 00000001     Y   24136 23789
 =Y(0+4+40+((L'PIWA+3)/4*4)+4)
               2 00002468 00000001     Y   21732 21380
 =Y(0+4+40+((L'POPNWA+3)/4*4)+4)
               2 000020FE 00000001     Y   20370 20243
 =Y(0+4+40+((L'PRDWA+3)/4*4)+4)
               2 000021E0 00000001     Y   20704 20437
 =Y(0+4+40+((L'PSGWA+3)/4*4)+4)
1MAIN     (MAIN2047) (12:35) (15MAR04) Ordinary Symbol and Literal Cross Reference                                          Page  148
               2 000022F0 00000001     Y   21152 20773
 =Y(0+4+40+4)
               2 000019BC 00000001     Y   17928 17272  17701
 =Y(0+4+40+4)
               2 00001A8C 00000001     Y   18153 17968
 =Y(0+4+40+4)
               2 00001B50 00000001     Y   18431 18195
 =Y(0+4+40+4)
               2 00001BD8 00000001     Y   18660 18474
 =Y(0+4+40+4)
               2 00001C4C 00000001     Y   18843 18699
 =Y(0+4+40+4)
               2 00001CC0 00000001     Y   18965 18890
 =Y(0+4+40+4)
               2 00001D0C 00000001     Y   19058 19008
 =Y(0+4+40+4)
               2 00001E38 00000001     Y   19410 19105
 =Y(0+4+40+4)
               2 00001F1C 00000001     Y   19715 19452
 =Y(0+4+40+4)
               2 00001FC0 00000001     Y   19932 19762
 =Y(0+4+40+4)
               2 000020FC 00000001     Y   20369 19977
 =Y(0+4+40+4)
               2 00002354 00000001     Y   21303 21199
 =Y(0+4+40+4)
               2 00002560 00000001     Y   22052 21779
 =Y(0+4+40+4)
               2 000026D0 00000001     Y   22389 22276
 =Y(0+4+40+4)
               2 000027A0 00000001     Y   22686 22431
 =Y(0+4+40+4)
               2 0000281C 00000001     Y   22837 22732
 =Y(0+4+40+4)
               2 00002920 00000001     Y   23161 22879
 =Y(0+4+40+4)
               2 00002B2C 00000001     Y   23712 23209
 =Y(0+4+40+4)
               2 00002E48 00000001     Y   24756 24179
 =Y(0+4+40+4)
               2 00002EE0 00000001     Y   24887 24797
 =Y(0+4+40+4)
               2 00002F94 00000001     Y   25129 24928
 =Y(0+4+40+4)
               2 0000307C 00000001     Y   25366 25173
 =Y(0+4+40+4)
               2 0000312C 00000001     Y   25561 25407
 =Y(0+4+40+4)
               2 00003208 00000001     Y   25872 25603
 =Y(0+4+40+4)
               2 000034D2 00000001     Y   26685 26517
 =Y(0+4+44+4)
               2 000032A0 00000001     Y   26014 25921
 =Y(0+4+52+4)
               2 000014D2 00000001     Y   16880 16229  16345  16467  16587  16728
 =Y(0+4+52+4)
               2 000019B4 00000001     Y   17926 16924
 =Y(32768-@@)
               2 00000936 00000001     Y   13577 13481
1MAIN     (MAIN2047) (12:35) (15MAR04) Ordinary Symbol and Literal Cross Reference                                          Page  149
 =Y(4096-@@)
               2 000034D0 00000001     Y   26684 26046

1MAIN     (MAIN2047) (12:35) (15MAR04) Macro and Copy Code Source Summary                                                   Page  150
- Con Source                                        Volume    Members                        HLASM R4.0  2004/03/15 12.35
0     PRIMARY INPUT                                           CSECT    DROP     END      EX       LTORG    POP
                                                              PRINT    PUSH     START    USING
   L1 WYL.GS.MIL.MILTEN.MACLIB                      SYSB05    BTD      BTR      CELLBLOK CV       FAIL     FEB
                                                              MILPATH  PEND     PIB      POP      PROC     PUSH     REG
                                                              SCAN     SCANCB   SCB      SCINIT   SCKW     SCRTN
                                                              SCTELL   STKDEF   STKINIT  STRC     SUB      SUBPOOLS TQE
                                                              XLE      XPROC    XTB
   L2 WYL.GG.SYS.MACLIB                             SYSB05    $BC      $BFLKUP  $BV      $CCLKUP  $CRS     $CSS     $L
                                                              $LA      $LBLAD   $LEXP    $LOR     $NIL     $OIL     $REL
                                                              $RGLKUP  $USLKUP  ACALL    ADL      BASE     BEGIN    CEIL
                                                              CLEAR    CSECT    DATA     DECR     DEFCC    DEX      DROP
                                                              DTEX     ELSE     END      EX       EXIT     FLAG
                                                              FLOOR    GEN      HIBAL    IDENT    IF       INCR
                                                              LABEL    LC       LCALL    LOOP     LS       LT       LTH
                                                              LTORG    MOVE     MOVEL    PRINT    QLTORG   RECORD   REGS
                                                              SDL      SET      SETMSG   START    ST3      SYSLR
                                                              UNTIL    USING    VCALL    WHILE    WITH     ZOT
   L3 SYS3.IS.MACLIB                                SYSB05    DEFINE   DEVTRC   KWR      MIB      SEG      SEGB
                                                              SEGCB    SEGCLR   SEGDEF   SEGLD    SEGT     SEGTB
                                                              SEGWR    SIB      SIN      SYSDEFN
   L4 SYS3.MACLIB                                   SYSB02    HASPSERV PATH     PINFO    PRIVCHK  QSNAP    SCIPCVT  SCOM
                                                              USERCVT
   L5 SYS1.MACLIB                                   MVSBR9    ABEND    ATTACH   CLOSE    CVT      DCB      DCBD
                                                              FREEMAIN FREEPOOL GET      GETMAIN  IDENTIFY IECDIOCM
                                                              IEESMCA  IEFTIOT1 IHAASCB  IHAFRRS  IHAPSA   IHAPSAE
                                                              IHASDWA  IHASRB   IHAVRA   IHBERMAC IHBINNRA IHBINNRR
                                                              IHB01    IKJTCB   MODESET  OPEN     POST     SPLEVEL
                                                              STIMER   SYSEVENT SYSSTATE TTIMER   WAIT
   L6 SYS1.MODGEN                                   MVSBR9    IECDIOSB IEZBITS

1MAIN     (MAIN2047) (12:35) (15MAR04) Dsect Cross Reference                                                                Page  151
-Dsect     Length      Id       Defn                                                         HLASM R4.0  2004/03/15 12.35
0$$$@R0   00000000  FFFFFFFE     712
 $$$@R1   00000000  FFFFFFFD     725
 $$$@R10  00000000  FFFFFFF4     842
 $$$@R11  00000000  FFFFFFF3     855
 $$$@R12  00000000  FFFFFFF2     868
 $$$@R13  0000004C  FFFFFFF1     881
 $$$@R14  00000000  FFFFFFF0     894
 $$$@R15  00000000  FFFFFFEF     907
 $$$@R2   00000000  FFFFFFFC     738
 $$$@R3   00000000  FFFFFFFB     751
 $$$@R4   00000000  FFFFFFFA     764
 $$$@R5   00000000  FFFFFFF9     777
 $$$@R6   00000000  FFFFFFF8     790
 $$$@R7   00000000  FFFFFFF7     803
 $$$@R8   00000000  FFFFFFF6     816
 $$$@R9   00000000  FFFFFFF5     829
 $$$RDTRC 00000010  FFFFFFCC   11135
 $$$RFEB  000000B8  FFFFFFC8   11432
 $$$RKWR  000001F8  FFFFFFCF   10776
 $$$RMTWA 00000018  FFFFFFBE   23741
 $$$RPIB  000000A0  FFFFFFC7   11561
 $$$RPINFO
          00000080  FFFFFFD0   10736
 $$$RPIWA 000000EC  FFFFFFBF   21323
 $$$RPOPNWA
          00000004  FFFFFFC2   20196
 $$$RPRDWA
          00000008  FFFFFFC1   20391
 $$$RPSGWA
          00000010  FFFFFFC0   20723
 $$$RSCANCB
          00000020  FFFFFFCE   10987
 $$$RSCB  000001B2  FFFFFFC5   11796
 $$$RSEGCB
          0000003C  FFFFFFCD   11019
 $$$RSIN  000000E0  FFFFFFC3   12610
 $$$RSTRC 0000002C  FFFFFFC4   12568
 $$$RSUB  00000084  FFFFFFC9   11313
 $$$RTQE  0000001C  FFFFFFCB   11157
 $$$RUPATH
          0000007C  FFFFFFCA   11181
 $$$RUSERCVT
          0000035F  FFFFFFE5    4006
 $$$RXLE  00000400  FFFFFFC6   11767
 ASCB     00000180  FFFFFFD8    6955
 CVT      00000500  FFFFFFE9    2867
 CVTVSTGX 00000050  FFFFFFE8    3887
 CVTXTNT1 0000000C  FFFFFFE7    3926
 CVTXTNT2 00000084  FFFFFFE6    3934
 FRRS     00000258  FFFFFFED    2612
 FRRSENTR 00000020  FFFFFFEB    2633
 FRRSXENT 00000010  FFFFFFEA    2660
 FRRSXSTK 00000100  FFFFFFEC    2631
 HIBAL    00000000  FFFFFFFF     698
 IHADCB   00000060  FFFFFFD1    9889
1MAIN     (MAIN2047) (12:35) (15MAR04) Dsect Cross Reference                                                                Page  152
 IOCOM    00000158  FFFFFFD4    8898
 IOCOMW   00000044  FFFFFFD3    9073
 IOSB     0000006C  FFFFFFD2    9370
 PSA      00001000  FFFFFFEE    1290
 SDWA     00000298  FFFFFFE2    5106
 SDWANRC1 000000F0  FFFFFFDC    6074
 SDWANRC2 00000010  FFFFFFDB    6083
 SDWANRC3 000000F0  FFFFFFDA    6096
 SDWAPTRS 00000020  FFFFFFDD    6059
 SDWARC1  000001C8  FFFFFFE1    5747
 SDWARC2  00000010  FFFFFFE0    5966
 SDWARC3  00000020  FFFFFFDF    5978
 SDWARC4  00000150  FFFFFFDE    6028
 SMCABASE 000001E0  FFFFFFE4    4271
 SRBSECT  0000002C  FFFFFFD5    8604
 TCBFIX   00000178  FFFFFFD7    7730
 TCBXTNT2 00000020  FFFFFFD6    8446
 TIOT     00000040  FFFFFFE3    4623
 VRAMAP   00000002  FFFFFFD9    6249

1MAIN     (MAIN2047) (12:35) (15MAR04) Using Map                                                                            Page  153
-                                                                                            HLASM R4.0  2004/03/15 12.35
   Stmt  -----Location----- Action ----------------Using----------------- Reg Max    Last  Label and Using Text
           Count      Id           Type          Value    Range     Id        Disp   Stmt
0   929  00000000  FFFFFFFF USING  ORDINARY    00000000 00001000 FFFFFFEF  15 000   13182  @R15,15
    933  00000000  FFFFFFFF USING  ORDINARY    00000000 00001000 FFFFFFF0  14 000          @R14,14
    937  00000000  FFFFFFFF USING  ORDINARY    00000000 00001000 FFFFFFF1  13 007   19598  @R13,13
    941  00000000  FFFFFFFF USING  ORDINARY    00000000 00001000 FFFFFFF2  12 000          @R12,12
    945  00000000  FFFFFFFF USING  ORDINARY    00000000 00001000 FFFFFFF3  11 000          @R11,11
    949  00000000  FFFFFFFF USING  ORDINARY    00000000 00001000 FFFFFFF4  10 000          @R10,10
    953  00000000  FFFFFFFF USING  ORDINARY    00000000 00001000 FFFFFFF5   9 000          @R9,9
    957  00000000  FFFFFFFF USING  ORDINARY    00000000 00001000 FFFFFFF6   8 000          @R8,8
    961  00000000  FFFFFFFF USING  ORDINARY    00000000 00001000 FFFFFFF7   7 000          @R7,7
    965  00000000  FFFFFFFF USING  ORDINARY    00000000 00001000 FFFFFFF8   6 000          @R6,6
    969  00000000  FFFFFFFF USING  ORDINARY    00000000 00001000 FFFFFFF9   5 00C   15175  @R5,5
    973  00000000  FFFFFFFF USING  ORDINARY    00000000 00001000 FFFFFFFA   4 008   14761  @R4,4
    977  00000000  FFFFFFFF USING  ORDINARY    00000000 00001000 FFFFFFFB   3 04C   17558  @R3,3
    981  00000000  FFFFFFFF USING  ORDINARY    00000000 00001000 FFFFFFFC   2 00C   13289  @R2,2
    985  00000000  FFFFFFFF USING  ORDINARY    00000000 00001000 FFFFFFFD   1 00C   17405  @R1,1
    989  00000000  FFFFFFFF USING  ORDINARY    00000000 00001000 FFFFFFFE   0 000          @R0,0
    990  00000000  FFFFFFFF DROP                                            0              0
   1288  0000001B  00000001 USING  ORDINARY    00000000 00001000 FFFFFFEE   0 000          PSA,0
   2502  00001000  FFFFFFEE USING  ORDINARY    00000000 00001000 FFFFFFFE   0 000          @R0,0
   2503  00001000  FFFFFFEE DROP                                            0              0
  12746  00000000  00000001 USING  ORDINARY    00000000 00001000 00000001  12 B3C   26639  CV,CVR
  13212  0000077A  00000001 USING  ORDINARY    0000077A 00001000 00000001   8 1BE   13557  $$$26B,8
  13228  0000078C  00000001 USING  ORDINARY    00000000 00001000 FFFFFFE9   6 074   13261  CVT,R6
  13273  000007A4  00000001 USING  ORDINARY    00000020 00001000 FFFFFFD7  15 01C   13279  TCB,R15
  13286  000007AE  00000001 USING  ORDINARY    00000000 00001000 FFFFFFEF  15 000          @R15,15
  13300  000007BC  00000001 USING  ORDINARY    00000000 00001000 FFFFFFD8  15 024   13306  ASCB,R15
  13313  000007C2  00000001 USING  ORDINARY    00000000 00001000 FFFFFFEF  15 002   13621  @R15,15
  13321  000007C2  00000001 USING  ORDINARY    00000000 00001000 FFFFFFF8   6 200   15173  @R6,6
  13589  00000938  00000001 USING  ORDINARY    00000000 00001000 FFFFFFF6   8 000          @R8,8
  13604  0000093A  00000001 USING  ORDINARY    0000093A 00001000 00000001   8 F2A   15833  $$$32B,8
  13931  00000A3C  00000001 USING  ORDINARY    00000000 00001000 FFFFFFC8  11 00D   13966  FEB,FEBR
  13986  00000A52  00000001 USING  ORDINARY    00000000 00001000 FFFFFFF3  11 000          @R11,11
  14050  00000A72  00000001 USING  ORDINARY    00000000 00001000 FFFFFFC8  11 098   14084  FEB,FEBR
  14102  00000AA6  00000001 USING  ORDINARY    00000000 00001000 FFFFFFC8  15 008   14108  FEB,R15
  14116  00000AAE  00000001 USING  ORDINARY    00000000 00001000 FFFFFFEF  15 000          @R15,15
  14123  00000AAE  00000001 USING  ORDINARY    00000000 00001000 FFFFFFF3  11 000          @R11,11
  14155  00000ABC  00000001 USING  ORDINARY    00000000 00001000 FFFFFFC8  15 008   14161  FEB,R15
  14169  00000AC4  00000001 USING  ORDINARY    00000000 00001000 FFFFFFEF  15 000          @R15,15
  14187  00000AC8  00000001 USING  ORDINARY    00000000 00001000 FFFFFFC8  11 00D   14217  FEB,FEBR
  14214  00000AD6  00000001 DROP                                           14              14
  14218  00000ADC  00000001 USING  ORDINARY    00000000 00001000 FFFFFFF0  14 000          @R14,14
  14281  00000AFC  00000001 USING  ORDINARY    00000000 00001000 FFFFFFF3  11 000          @R11,11
  15323  00000ED4  00000001 USING  ORDINARY    00000000 00001000 FFFFFFC8  11 098   15357  FEB,FEBR
  15376  00000F0C  00000001 USING  ORDINARY    00000000 00001000 FFFFFFC8  15 008   15382  FEB,R15
  15390  00000F14  00000001 USING  ORDINARY    00000000 00001000 FFFFFFEF  15 000   17061  @R15,15
  15397  00000F14  00000001 USING  ORDINARY    00000000 00001000 FFFFFFF3  11 000          @R11,11
  15432  00000F22  00000001 USING  ORDINARY    00000000 00001000 FFFFFFC8  11 098   15547  FEB,FEBR
  15467  00000F36  00000001 USING  ORDINARY    00000000 00001000 FFFFFFC7  10 034   15571  PIB,PIBR
  15604  00000FA6  00000001 USING  ORDINARY    00000000 00001000 FFFFFFF4  10 000          @R10,10
  15609  00000FA6  00000001 USING  ORDINARY    00000000 00001000 FFFFFFF3  11 000          @R11,11
  15840  00001054  00000001 USING  ORDINARY    00000000 00001000 FFFFFFF6   8 000          @R8,8
  15852  00001054  00000001 USING  ORDINARY    00000000 00001000 FFFFFFC8  11 071   15931  FEB,FEBR
  15946  000010B0  00000001 USING  ORDINARY    00000000 00001000 FFFFFFC7  10 067   16781  PIB,PIBR
1MAIN     (MAIN2047) (12:35) (15MAR04) Using Map                                                                            Page  154
  16225  000011D8  00000001 USING  ORDINARY    000011D8 00001000 00000001   8 38E   16279  $$$84B,BR
  16304  00001208  00000001 USING  ORDINARY    00000000 00001000 FFFFFFF6   8 000          @R8,8
  16341  00001226  00000001 USING  ORDINARY    00001226 00001000 00000001   8 346   16401  $$$91B,BR
  16426  0000125A  00000001 USING  ORDINARY    00000000 00001000 FFFFFFF6   8 000          @R8,8
  16463  00001278  00000001 USING  ORDINARY    00001278 00001000 00000001   8 2FA   16521  $$$98B,BR
  16546  000012AE  00000001 USING  ORDINARY    00000000 00001000 FFFFFFF6   8 000          @R8,8
  16583  000012CC  00000001 USING  ORDINARY    000012CC 00001000 00000001   8 2B2   16662  $$$105B,BR
  16687  0000130E  00000001 USING  ORDINARY    00000000 00001000 FFFFFFF6   8 000          @R8,8
  16724  0000132C  00000001 USING  ORDINARY    0000132C 00001000 00000001   8 252   16775  $$$113B,BR
  16788  00001360  00000001 USING  ORDINARY    00000000 00001000 FFFFFFF6   8 000          @R8,8
  16809  00001374  00000001 USING  ORDINARY    00000000 00001000 FFFFFFF4  10 000          @R10,10
  16816  00001374  00000001 USING  ORDINARY    00000000 00001000 FFFFFFF3  11 000          @R11,11
  16920  00001588  00000001 USING  ORDINARY    00001588 00001000 00000001   8 43A   17119  $$$118B,BR
  17127  00001618  00000001 USING  ORDINARY    00000000 00001000 FFFFFFF6   8 000          @R8,8
  17154  0000162C  00000001 USING  ORDINARY    0000162C 00001000 00000001  15 000          WTOFAIL,R15
  17176  0000163C  00000001 USING  ORDINARY    00000000 00001000 FFFFFFEF  15 000          @R15,15
  17190  0000163C  00000001 USING  ORDINARY    0000163C 00001000 00000001  15 000          IOHFAIL,R15
  17212  0000164C  00000001 USING  ORDINARY    00000000 00001000 FFFFFFEF  15 000          @R15,15
  17268  0000167E  00000001 USING  ORDINARY    0000167E 00001000 00000001   8 34E   17626  $$$124B,BR
  17292  00001692  00000001 USING  ORDINARY    00000000 00001000 FFFFFFD1   4 052   17473  DCB,R4
  17449  00001706  00000001 DROP                                           15              15
  17453  0000170C  00000001 USING  ORDINARY    00000000 00001000 FFFFFFEF  15 005   17454  @R15,15
  17646  000017BC  00000001 USING  ORDINARY    00000000 00001000 FFFFFFFA   4 000          @R4,4
  17651  000017BC  00000001 USING  ORDINARY    00000000 00001000 FFFFFFF6   8 000          @R8,8
  17697  000017DA  00000001 USING  ORDINARY    000017DA 00001000 00000001   8 1E2   17711  $$$142B,BR
  17718  000017EE  00000001 USING  ORDINARY    00000000 00001000 FFFFFFF6   8 000          @R8,8
  17807  0000195C  00000001 USING  ORDINARY    00000000 00001000 FFFFFFD1   1 052   17886  DCB,R1
  17818  0000195C  00000001 USING  ORDINARY    0000195C 00001000 00000001  15 064   17886  $$$144B,R15
  17902  0000198E  00000001 USING  ORDINARY    00000000 00001000 FFFFFFEF  15 008   19025  @R15,15
  17907  0000198E  00000001 USING  ORDINARY    00000000 00001000 FFFFFFFD   1 000   18916  @R1,1
  17964  000019DC  00000001 USING  ORDINARY    000019DC 00001000 00000001   8 0B0   18103  $$$150B,BR
  18023  00001A14  00000001 USING  ORDINARY    00000000 00001000 FFFFFFE9   7 0CC   18029  CVT,R7
  18054  00001A1E  00000001 USING  ORDINARY    00000000 00001000 FFFFFFE5   6 06C   18100  USERCVT,R6
  18110  00001A58  00000001 USING  ORDINARY    00000000 00001000 FFFFFFF8   6 000          @R6,6
  18115  00001A58  00000001 USING  ORDINARY    00000000 00001000 FFFFFFF7   7 000          @R7,7
  18125  00001A58  00000001 USING  ORDINARY    00000000 00001000 FFFFFFF6   8 000          @R8,8
  18191  00001A98  00000001 USING  ORDINARY    00001A98 00001000 00000001   8 146   18394  $$$157B,BR
  18214  00001AAA  00000001 USING  ORDINARY    00000000 00001000 FFFFFFC5   9 12B   18388  SCB,SCBR
  18268  00001ACC  00000001 USING  ORDINARY    00000000 00001000 FFFFFFC7  10 078   18290  PIB,PIBR
  18281  00001AD0  00000001 USING  ORDINARY    00000000 00001000 FFFFFFC8  11 08C   18322  FEB,FEBR
  18332  00001B06  00000001 USING  ORDINARY    00000000 00001000 FFFFFFF3  11 000          @R11,11
  18337  00001B06  00000001 USING  ORDINARY    00000000 00001000 FFFFFFF4  10 000          @R10,10
  18405  00001B3C  00000001 USING  ORDINARY    00000000 00001000 FFFFFFF5   9 000          @R9,9
  18410  00001B3C  00000001 USING  ORDINARY    00000000 00001000 FFFFFFF6   8 000          @R8,8
  18470  00001B60  00000001 USING  ORDINARY    00001B60 00001000 00000001   8 07E   18627  $$$166B,BR
  18493  00001B72  00000001 USING  ORDINARY    00000000 00001000 FFFFFFC5   9 12B   18612  SCB,SCBR
  18566  00001B9E  00000001 USING  ORDINARY    00000000 00001000 FFFFFFC7  10 008   18570  PIB,PIBR
  18579  00001BA2  00000001 USING  ORDINARY    00000000 00001000 FFFFFFC8  11 080   18587  FEB,FEBR
  18593  00001BAC  00000001 USING  ORDINARY    00000000 00001000 FFFFFFF3  11 000          @R11,11
  18598  00001BAC  00000001 USING  ORDINARY    00000000 00001000 FFFFFFF4  10 000          @R10,10
  18634  00001BC2  00000001 USING  ORDINARY    00000000 00001000 FFFFFFF5   9 000          @R9,9
  18639  00001BC2  00000001 USING  ORDINARY    00000000 00001000 FFFFFFF6   8 000          @R8,8
  18695  00001BE8  00000001 USING  ORDINARY    00001BE8 00001000 00000001   8 064   18801  $$$174B,BR
  18738  00001C04  00000001 USING  ORDINARY    00000000 00001000 FFFFFFE9   7 0CC   18744  CVT,R7
  18769  00001C0E  00000001 USING  ORDINARY    00000000 00001000 FFFFFFE5   6 00C   18798  USERCVT,R6
  18809  00001C2A  00000001 USING  ORDINARY    00000000 00001000 FFFFFFF8   6 000          @R6,6
  18814  00001C2A  00000001 USING  ORDINARY    00000000 00001000 FFFFFFF7   7 004   18917  @R7,7
  18819  00001C2A  00000001 USING  ORDINARY    00000000 00001000 FFFFFFF6   8 000          @R8,8
  18886  00001C58  00000001 USING  ORDINARY    00001C58 00001000 00000001   8 06A   18912  $$$180B,BR
1MAIN     (MAIN2047) (12:35) (15MAR04) Using Map                                                                            Page  155
  18942  00001CA0  00000001 USING  ORDINARY    00000000 00001000 FFFFFFF6   8 000          @R8,8
  19004  00001CCE  00000001 USING  ORDINARY    00001CCE 00001000 00000001   8 03E   19028  $$$183B,BR
  19036  00001CEE  00000001 USING  ORDINARY    00000000 00001000 FFFFFFF6   8 000          @R8,8
  19101  00001D18  00000001 USING  ORDINARY    00001D18 00001000 00000001   8 120   19357  $$$187B,BR
  19155  00001D4C  00000001 USING  ORDINARY    00000000 00001000 FFFFFFCB   7 014   19301  TQE,R7
  19211  00001D80  00000001 USING  ORDINARY    00000000 00001000 FFFFFFCB  15 00C   19232  TQE,R15
  19252  00001D94  00000001 USING  ORDINARY    00000000 00001000 FFFFFFEF  15 006   25968  @R15,15
  19378  00001E08  00000001 USING  ORDINARY    00000000 00001000 FFFFFFF7   7 000          @R7,7
  19383  00001E08  00000001 USING  ORDINARY    00000000 00001000 FFFFFFF6   8 000          @R8,8
  19448  00001E44  00000001 USING  ORDINARY    00001E44 00001000 00000001   8 0DA   19649  $$$200B,BR
  19472  00001E56  00000001 USING  ORDINARY    00000000 00001000 FFFFFFCB   7 004   19527  TQE,R7
  19585  00001EA6  00000001 USING  ORDINARY    00000000 00001000 FFFFFFF7   7 000          @R7,7
  19588  00001EA6  00000001 USING  ORDINARY    00000000 00001000 FFFFFFCB   5 00C   19593  TQE,R5
  19667  00001EF0  00000001 USING  ORDINARY    00000000 00001000 FFFFFFCB   7 000          TQE,7
  19672  00001EF0  00000001 USING  ORDINARY    00000000 00001000 FFFFFFF9   5 000          @R5,5
  19684  00001EF2  00000001 USING  ORDINARY    00000000 00001000 FFFFFFF7   7 000          @R7,7
  19689  00001EF2  00000001 USING  ORDINARY    00000000 00001000 FFFFFFF6   8 000          @R8,8
  19758  00001F2C  00000001 USING  ORDINARY    00001F2C 00001000 00000001   8 096   19903  $$$210B,BR
  19792  00001F48  00000001 USING  ORDINARY    00000000 00001000 FFFFFFCB   7 018   19879  TQE,R7
  19900  00001F98  00000001 USING  ORDINARY    00000000 00001000 FFFFFFF7   7 000          @R7,7
  19913  00001F9E  00000001 USING  ORDINARY    00000000 00001000 FFFFFFF6   8 000          @R8,8
  19973  00001FD0  00000001 USING  ORDINARY    00001FD0 00001000 00000001   8 12C   20023  $$$220B,BR
  19997  00001FE2  00000001 USING  ORDINARY    00000000 00001000 FFFFFFCA   5 040   20030  UPATH,R5
  20037  00002000  00000001 USING  ORDINARY    00000000 00001000 FFFFFFF9   5 000          @R5,5
  20050  00002002  00000001 USING  ORDINARY    00000000 00001000 FFFFFFF6   8 000          @R8,8
  20239  0000209E  00000001 USING  ORDINARY    0000209E 00001000 00000001   8 060   20290  $$$223B,BR
  20258  000020AE  00000001 USING  ORDINARY    FFFFFFB4 00001000 FFFFFFC2  13 04C   20327  POPNWA-@@,R13
  20272  000020B0  00000001 USING  ORDINARY    00000000 00001000 FFFFFFCA   5 008   20305  UPATH,R5
  20336  000020E2  00000001 USING  ORDINARY    00000000 00001000 FFFFFFF9   5 000          @R5,5
  20341  000020E2  00000001 USING  ORDINARY    00000000 00001000 FFFFFFF1  13 000          @R13,13
  20346  000020E2  00000001 USING  ORDINARY    00000000 00001000 FFFFFFF6   8 000          @R8,8
  20433  0000210A  00000001 USING  ORDINARY    0000210A 00001000 00000001   8 0E0   20656  $$$229B,BR
  20452  0000211A  00000001 USING  ORDINARY    FFFFFFB4 00001000 FFFFFFC1  13 04C   20658  PRDWA-@@,R13
  20466  0000211C  00000001 USING  ORDINARY    00000000 00001000 FFFFFFCA   5 040   20655  UPATH,R5
  20670  000021C2  00000001 USING  ORDINARY    00000000 00001000 FFFFFFF9   5 000          @R5,5
  20675  000021C2  00000001 USING  ORDINARY    00000000 00001000 FFFFFFF1  13 000          @R13,13
  20680  000021C2  00000001 USING  ORDINARY    00000000 00001000 FFFFFFF6   8 000          @R8,8
  20769  000021F8  00000001 USING  ORDINARY    000021F8 00001000 00000001   8 0F8   21091  $$$242B,BR
  20788  00002208  00000001 USING  ORDINARY    FFFFFFB4 00001000 FFFFFFC0  13 058   20943  PSGWA-@@,R13
  20810  00002210  00000001 USING  ORDINARY    00000000 00001000 FFFFFFCD   5 038   21070  SEGCB,R5
  20825  00002214  00000001 USING  ORDINARY    00000000 00001000 FFFFFFCA   6 074   21090  UPATH,R6
  21113  000022CE  00000001 USING  ORDINARY    00000000 00001000 FFFFFFF8   6 000          @R6,6
  21118  000022CE  00000001 USING  ORDINARY    00000000 00001000 FFFFFFF9   5 000          @R5,5
  21123  000022CE  00000001 USING  ORDINARY    00000000 00001000 FFFFFFF1  13 000          @R13,13
  21128  000022CE  00000001 USING  ORDINARY    00000000 00001000 FFFFFFF6   8 000          @R8,8
  21195  000022FC  00000001 USING  ORDINARY    000022FC 00001000 00000001   8 058   21237  $$$258B,BR
  21219  0000230E  00000001 USING  ORDINARY    00000000 00001000 FFFFFFCA   5 008   21264  UPATH,R5
  21276  00002336  00000001 USING  ORDINARY    00000000 00001000 FFFFFFF9   5 000          @R5,5
  21281  00002336  00000001 USING  ORDINARY    00000000 00001000 FFFFFFF6   8 000          @R8,8
  21376  00002360  00000001 USING  ORDINARY    00002360 00001000 00000001   8 10A   21670  $$$263B,BR
  21395  00002370  00000001 USING  ORDINARY    FFFFFFB4 00001000 FFFFFFBF  13 0FB   21668  PIWA-@@,R13
  21409  00002372  00000001 USING  ORDINARY    00000000 00001000 FFFFFFCA   5 05E   21677  UPATH,R5
  21527  000023C6  00000001 USING  ORDINARY    00000000 00001000 FFFFFFD0   4 038   21589  PINFO,R4
  21693  00002448  00000001 USING  ORDINARY    00000000 00001000 FFFFFFFA   4 000          @R4,4
  21698  00002448  00000001 USING  ORDINARY    00000000 00001000 FFFFFFF9   5 000          @R5,5
  21703  00002448  00000001 USING  ORDINARY    00000000 00001000 FFFFFFF1  13 000          @R13,13
  21708  00002448  00000001 USING  ORDINARY    00000000 00001000 FFFFFFF6   8 000          @R8,8
  21775  00002476  00000001 USING  ORDINARY    00002476 00001000 00000001   8 14B   22010  $$$277B,BR
  22022  0000251C  00000001 USING  ORDINARY    00000000 00001000 FFFFFFF6   8 000          @R8,8
1MAIN     (MAIN2047) (12:35) (15MAR04) Using Map                                                                            Page  156
  22100  000025E4  00000001 USING  ORDINARY    000025E4 00001000 00000001   8 0DC   22119  $$$288B,8
  22139  00002604  00000001 USING  ORDINARY    00000000 00001000 FFFFFFF6   8 000          @R8,8
  22168  00002612  00000001 USING  ORDINARY    00002612 00001000 00000001   8 00E   22186  $$$290B,8
  22206  0000262E  00000001 USING  ORDINARY    00000000 00001000 FFFFFFF6   8 000          @R8,8
  22227  00002636  00000001 DROP                                            2              2
  22231  0000263C  00000001 USING  ORDINARY    00000000 00001000 FFFFFFFC   2 004   24492  @R2,2
  22272  0000264E  00000001 USING  ORDINARY    0000264E 00001000 00000001   8 082   22340  $$$293B,BR
  22329  0000268A  00000001 USING  ORDINARY    00000000 00001000 FFFFFFC8   1 004   22347  FEB,R1
  22359  000026AA  00000001 USING  ORDINARY    00000000 00001000 FFFFFFFD   1 000          @R1,1
  22364  000026AA  00000001 USING  ORDINARY    00000000 00001000 FFFFFFF6   8 000          @R8,8
  22427  000026DC  00000001 USING  ORDINARY    000026DC 00001000 00000001   8 0C6   22643  $$$298B,BR
  22450  000026EE  00000001 USING  ORDINARY    00000000 00001000 FFFFFFC8  11 000   22481  FEB,FEBR
  22508  00002718  00000001 USING  ORDINARY    00000000 00001000 FFFFFFF3  11 000          @R11,11
  22511  00002718  00000001 USING  ORDINARY    00000000 00001000 FFFFFFC8   5 008   22526  FEB,R5
  22560  0000272A  00000001 USING  ORDINARY    00000000 00001000 FFFFFFC8  11 09C   22639  FEB,11
  22565  0000272A  00000001 USING  ORDINARY    00000000 00001000 FFFFFFF9   5 004   23428  @R5,5
  22656  0000277C  00000001 USING  ORDINARY    00000000 00001000 FFFFFFF3  11 000          @R11,11
  22661  0000277C  00000001 USING  ORDINARY    00000000 00001000 FFFFFFF6   8 000          @R8,8
  22728  000027B0  00000001 USING  ORDINARY    000027B0 00001000 00000001   8 06C   22796  $$$310B,BR
  22785  000027EC  00000001 USING  ORDINARY    00000000 00001000 FFFFFFC7   1 000   22796  PIB,R1
  22808  000027FC  00000001 USING  ORDINARY    00000000 00001000 FFFFFFFD   1 000          @R1,1
  22813  000027FC  00000001 USING  ORDINARY    00000000 00001000 FFFFFFF6   8 000          @R8,8
  22875  00002828  00000001 USING  ORDINARY    00002828 00001000 00000001   8 0FD   23118  $$$315B,BR
  22898  0000283A  00000001 USING  ORDINARY    00000000 00001000 FFFFFFC7  10 090   23115  PIB,PIBR
  22981  00002880  00000001 USING  ORDINARY    00000000 00001000 FFFFFFC8  11 098   23014  FEB,FEBR
  23070  000028CC  00000001 USING  ORDINARY    00000000 00001000 FFFFFFF3  11 000          @R11,11
  23131  000028FC  00000001 USING  ORDINARY    00000000 00001000 FFFFFFF4  10 000          @R10,10
  23136  000028FC  00000001 USING  ORDINARY    00000000 00001000 FFFFFFF6   8 000          @R8,8
  23205  00002932  00000001 USING  ORDINARY    00002932 00001000 00000001   8 201   23643  $$$330B,BR
  23228  00002944  00000001 USING  ORDINARY    00000000 00001000 FFFFFFC7  10 066   23638  PIB,PIBR
  23267  00002962  00000001 USING  ORDINARY    00000000 00001000 FFFFFFC8  11 00D   23432  FEB,FEBR
  23396  000029F0  00000001 USING  ORDINARY    00000000 00001000 FFFFFFC5   9 18A   23645  SCB,SCBR
  23658  00002AD2  00000001 USING  ORDINARY    00000000 00001000 FFFFFFF5   9 000          @R9,9
  23663  00002AD2  00000001 USING  ORDINARY    00000000 00001000 FFFFFFF3  11 000          @R11,11
  23668  00002AD2  00000001 USING  ORDINARY    00000000 00001000 FFFFFFF4  10 000          @R10,10
  23673  00002AD2  00000001 USING  ORDINARY    00000000 00001000 FFFFFFF6   8 000          @R8,8
  23785  00002B40  00000001 USING  ORDINARY    00002B40 00001000 00000001   8 13A   24070  $$$350B,BR
  23804  00002B50  00000001 USING  ORDINARY    FFFFFFB4 00001000 FFFFFFBE  13 057   23980  MTWA-@@,R13
  23816  00002B50  00000001 USING  ORDINARY    00000000 00001000 FFFFFFC5   9 08B   24067  SCB,SCBR
  23857  00002B70  00000001 USING  ORDINARY    00000000 00001000 FFFFFFE9   6 0CC   23941  CVT,R6
  23874  00002B7A  00000001 USING  ORDINARY    00000000 00001000 FFFFFFE4   1 013   23880  SMCABASE,R1
  23887  00002B80  00000001 USING  ORDINARY    00000000 00001000 FFFFFFFD   1 001   25968  @R1,1
  23951  00002BBE  00000001 USING  ORDINARY    00000000 00001000 FFFFFFE5   4 060   24022  USERCVT,R4
  24083  00002C26  00000001 USING  ORDINARY    00000000 00001000 FFFFFFFA   4 004   25062  @R4,4
  24088  00002C26  00000001 USING  ORDINARY    00000000 00001000 FFFFFFF8   6 000          @R6,6
  24093  00002C26  00000001 USING  ORDINARY    00000000 00001000 FFFFFFF5   9 000          @R9,9
  24098  00002C26  00000001 USING  ORDINARY    00000000 00001000 FFFFFFF1  13 004   26453  @R13,13
  24103  00002C26  00000001 USING  ORDINARY    00000000 00001000 FFFFFFF6   8 000          @R8,8
  24175  00002C88  00000001 USING  ORDINARY    00002C88 00001000 00000001   8 1D7   24708  $$$360B,BR
  24198  00002C9A  00000001 USING  ORDINARY    00000000 00001000 FFFFFFC5   9 15F   24569  SCB,SCBR
  24263  00002CCA  00000001 USING  ORDINARY    00000000 00001000 FFFFFFC7   5 00C   24325  PIB,R5
  24331  00002CF2  00000001 USING  ORDINARY    00000000 00001000 FFFFFFF9   5 000          @R5,5
  24541  00002D80  00000001 USING  ORDINARY    00000000 00001000 FFFFFFC4   2 004   24577  STRC,R2
  24587  00002DAC  00000001 USING  ORDINARY    00000000 00001000 FFFFFFFC   2 000          @R2,2
  24616  00002DB4  00000001 USING  ORDINARY    00000000 00001000 FFFFFFF5   9 000          @R9,9
  24619  00002DB4  00000001 USING  ORDINARY    00000000 00001000 FFFFFFC5   5 004   24634  SCB,R5
  24668  00002DC6  00000001 USING  ORDINARY    00000000 00001000 FFFFFFC5   9 0F8   24704  SCB,9
  24673  00002DC6  00000001 USING  ORDINARY    00000000 00001000 FFFFFFF9   5 000          @R5,5
  24722  00002E14  00000001 USING  ORDINARY    00000000 00001000 FFFFFFF5   9 000          @R9,9
1MAIN     (MAIN2047) (12:35) (15MAR04) Using Map                                                                            Page  157
  24727  00002E14  00000001 USING  ORDINARY    00000000 00001000 FFFFFFF6   8 000          @R8,8
  24793  00002E6C  00000001 USING  ORDINARY    00002E6C 00001000 00000001   8 074   24847  $$$386B,BR
  24866  00002EC8  00000001 USING  ORDINARY    00000000 00001000 FFFFFFF6   8 000          @R8,8
  24924  00002EEC  00000001 USING  ORDINARY    00002EEC 00001000 00000001   8 0AA   25085  $$$391B,BR
  25013  00002F24  00000001 USING  ORDINARY    00000000 00001000 FFFFFFC3   5 004   25036  SIN,R5
  25057  00002F4C  00000001 USING  ORDINARY    00000000 00001000 FFFFFFF9   5 000          @R5,5
  25107  00002F7A  00000001 USING  ORDINARY    00000000 00001000 FFFFFFF6   8 000          @R8,8
  25169  00002FA4  00000001 USING  ORDINARY    00002FA4 00001000 00000001   8 0DA   25317  $$$400B,BR
  25259  00002FF6  00000001 USING  ORDINARY    00000000 00001000 FFFFFFC3   4 006   25266  SIN,R4
  25273  00003006  00000001 USING  ORDINARY    00000000 00001000 FFFFFFFA   4 000          @R4,4
  25344  00003064  00000001 USING  ORDINARY    00000000 00001000 FFFFFFF6   8 000          @R8,8
  25403  0000308A  00000001 USING  ORDINARY    0000308A 00001000 00000001   8 0A4   25524  $$$410B,BR
  25481  000030D0  00000001 USING  ORDINARY    00000000 00001000 FFFFFFC3   4 004   25514  SIN,R4
  25534  00003110  00000001 USING  ORDINARY    00000000 00001000 FFFFFFFA   4 000          @R4,4
  25539  00003110  00000001 USING  ORDINARY    00000000 00001000 FFFFFFF6   8 000          @R8,8
  25599  0000313C  00000001 USING  ORDINARY    0000313C 00001000 00000001   8 0D7   25803  $$$419B,BR
  25621  0000314C  00000001 USING  ORDINARY    00000000 00001000 FFFFFFC5   9 136   25831  SCB,SCBR
  25662  00003168  00000001 USING  ORDINARY    00000000 00001000 FFFFFFC3   7 098   25831  SIN,R7
  25734  000031BE  00000001 USING  ORDINARY    00000000 00001000 FFFFFFC7   2 034   25769  PIB,R2
  25785  000031D8  00000001 USING  ORDINARY    00000000 00001000 FFFFFFC8   3 014   25809  FEB,R3
  25815  000031E8  00000001 USING  ORDINARY    00000000 00001000 FFFFFFFB   3 000          @R3,3
  25824  000031E8  00000001 USING  ORDINARY    00000000 00001000 FFFFFFFC   2 000          @R2,2
  25840  000031EE  00000001 USING  ORDINARY    00000000 00001000 FFFFFFF7   7 000          @R7,7
  25845  000031EE  00000001 USING  ORDINARY    00000000 00001000 FFFFFFF5   9 000          @R9,9
  25850  000031EE  00000001 USING  ORDINARY    00000000 00001000 FFFFFFF6   8 000          @R8,8
  25917  00003220  00000001 USING  ORDINARY    00003220 00001000 00000001   8 082   25978  $$$430B,BR
  25938  00003246  00000001 DROP                                            5              5
  25942  0000324C  00000001 USING  ORDINARY    00000000 00001000 FFFFFFF9   5 000          @R5,5
  25992  00003288  00000001 USING  ORDINARY    00000000 00001000 FFFFFFF6   8 000          @R8,8
  26038  000032AA  00000001 USING  ORDINARY    000032AA 00001000 00000001   8 22A   26412  $$$434B,8
  26111  000032E6  00000001 USING  ORDINARY    00000000 00001000 FFFFFFC8  11 00D   26123  FEB,FEBR
  26120  000032EE  00000001 DROP                                           14              14
  26124  000032F4  00000001 USING  ORDINARY    00000000 00001000 FFFFFFF0  14 000          @R14,14
  26205  0000331E  00000001 USING  ORDINARY    00000000 00001000 FFFFFFF3  11 000          @R11,11
  26234  00003328  00000001 USING  ORDINARY    00000000 00001000 FFFFFFCB   7 014   26334  TQE,R7
  26407  000033CC  00000001 USING  ORDINARY    00000000 00001000 FFFFFFF7   7 000          @R7,7
  26419  000033D0  00000001 USING  ORDINARY    00000000 00001000 FFFFFFF6   8 000          @R8,8
  26432  000033D0  00000001 USING  ORDINARY    000033D0 00001000 00000001  15 0F0   26439  TIMREXIT,R15
  26461  000033EA  00000001 USING  ORDINARY    00000000 00001000 FFFFFFEF  15 000          @R15,15
  26513  0000341E  00000001 USING  ORDINARY    0000341E 00001000 00000001   8 0B4   26642  $$$449B,BR
  26650  00003476  00000001 USING  ORDINARY    00000000 00001000 FFFFFFF6   8 000          @R8,8

1         (MAIN2047) (12:35) (15MAR04) General Purpose Register Cross Reference                                             Page  158
- Register  References (M=modified, B=branch, U=USING, D=DROP, N=index)                      HLASM R4.0  2004/03/15 12.35
0    0(0)      989U   990D  1288U  2502U  2503D 13175M 13176M 13177  13179M 13180  13329M 13329  13362M 13472M 13489M
             13496M 13518M 13621M 13669M 13890M 13899M 13998M 13998  14077M 14090M 14294M 14329M 14513M 14570M 14662M
             14746M 14753M 14763M 14769M 14798M 14872  14873M 14889M 14940M 14956M 14976M 15138M 15156M 15294M 15350M
             15363M 15524M 15540M 15576M 15592M 15624M 15630M 15648M 15664M 15714M 15738M 15751  15820M 15820  16213
             16242  16254M 16259  16311M 16329  16364  16376M 16381  16433M 16451  16484  16496M 16501  16553M 16571
             16623  16694M 16712  16751  16795M 16908  16949M 16966M 17002M 17026M 17039  17108M 17108  17134M 17166M
             17167M 17168  17202M 17203M 17204  17354M 17473M 17487  17507M 17514  17526M 17531  17589  17623M 17628M
             17636M 17636  17991  18901M 18902M 18903  18904  18905M 18907M 18915M 18917  18923M 18935M 19135  19138M
             19357M 19362  19363M 19364M 19649M 19654  19655M 19656M 20023M 20025M 20318M 20318  20516M 20567M 20568M
             20570  20585M 20623M 20623  20633M 20641  20652M 20653M 20655  20658M 20899  20916  20931M 20933  20956M
             20997  21053M 21079M 21079  21097M 21264M 21443M 21445  21466M 21631M 21651M 21651  21792M 21811M 21836M
             21861M 21886M 21911M 21936M 21961M 21986M 22011M 22299  22334  22755  22790  23311  23324  23414M 23640M
             23926M 23973M 24060M 24289M 24687M 24846M 24856M 25036M 25074M 25075M 25183  25238M 25248M 25417  25514M
             25935M 25985M 26059M 26395M 26396M 26438  26450M 26450  26453M 26585M 26585  26631M
     1(1)      985U 13279M 13334M 13344M 13360M 13360  13368M 13370M 13370  13411M 13413M 13413  13447M 13448M 13448
             13470M 13472  13474  13480  13492M 13494  13499M 13501  13516M 13552  13617M 13640M 13668M 13712M 13714M
             13714  13731M 13808M 13891M 13893  13894  13898M 13898  13899M 13994M 13994  14041  14078M 14084  14085
             14089M 14089  14090M 14161  14162  14211M 14293M 14328M 14512M 14568M 14661M 14745M 14754M 14761  14762
             14763  14764M 14769M 14797M 14858M 14858  14871  14888M 14935M 14955M 14969M 15131M 15155M 15208M 15293M
             15314  15351M 15357  15358  15362M 15362  15363M 15436M 15458  15504M 15519M 15539M 15571M 15591M 15623M
             15629M 15643M 15663M 15713M 15745M 15750  16213  16311M 16329  16433M 16451  16553M 16571  16694M 16712
             16795M 16908  16944M 16965M 17001M 17033M 17038  17134M 17165M 17168M 17201M 17204M 17350M 17384M 17386
             17388  17441M 17578M 17602M 17608M 17609  17612  17618  17620M 17620  17621M 17623M 17624M 17624  17627M
             17627  17628  17629M 17638M 17638  17807U 17907U 18205  18484  18905M 18906  18907  18908M 18914  18915
             18917  18918M 18923M 18930M 19018M 19136  19139M 19145  19298M 19361M 19527M 19551M 19653M 19772  19880M
             19987  20024M 20025M 20262  20305M 20306  20327M 20456  20515M 20548M 20558M 20568  20589M 20589  20632M
             20641  20650M 20651M 20653  20658M 20915  20926M 20932  20943M 20997  21209  21268M 21268  21399  21444M
             21445  21473M 21638M 21658M 21791M 21810M 21835M 21860M 21885M 21910M 21935M 21960M 21985M 22010M 22313M
             22329U 22333  22359U 22441  22481M 22588M 22589M 22589  22640M 22769M 22785U 22789  22808U 22889  23077M
             23115M 23219  23387  23413M 23413  23414M 23614M 23645  23647M 23864M 23874U 23887U 23898  23909M 23910
             23933M 23973M 24067M 24189  24231M 24577M 24704M 24848M 24848  24850  24851  24855M 24855  24856M 25045M
             25084M 25240M 25240  25242  25243  25247M 25247  25248M 25305M 25316M 25316  25333M 25523M 25905  25934M
             25935  25953M 25977M 25985  25999M 26061M 26062M 26062  26117M 26167  26306M 26311M 26393M 26438  26451M
             26453M 26630M
     2(2)      981U 13261M 13755M 13755  13758  13894M 13899M 14079M 14085M 14090M 14483M 14527B 14573M 15352M 15358M
             15363M 16213  16311M 16329  16433M 16451  16553M 16571  16694M 16712  16795M 16908  17134M 17256  17282M
             17376M 17376  17405M 17409  17411M 17412M 17456M 17588  17658M 17685  17725M 17952  18132M 18179  18417M
             18458  18646M 18683  18826M 18874  18909M 18916M 18917  18923M 18949M 18992  19043M 19089  19140M 19167M
             19184M 19189M 19190  19194M 19290  19301M 19305M 19306M 19307M 19316M 19316  19390M 19436  19593M 19597M
             19598M 19599M 19608M 19608  19696M 19746  19920M 19961  20057M 20226  20354M 20420  20688M 20756  20899M
             21053  21136M 21183  21288M 21363  21716M 21763  22029M 22087  22118M 22119M 22120B 22129M 22155  22186M
             22187B 22196M 22224  22227D 22229M 22229  22230M 22234  22235M 22260  22314M 22333M 22339M 22371M 22415
             22668M 22716  22770M 22789M 22795M 22820M 22863  23012M 23013M 23014M 23143M 23193  23680M 23772  23992M
             23993  24022M 24111M 24163  24377M 24381  24445M 24458  24492M 24531M 24734M 24781  24851M 24856M 24873M
             24912  25035M 25045  25073M 25084  25114M 25157  25243M 25248M 25280M 25291M 25291  25304  25351M 25391
             25513M 25523  25546M 25587  25718M 25719M 25719  25857M 25905  25946M 25978  25999M 26304M 26312B 26334M
             26338M 26339M 26340M 26349M 26349  26438  26453M 26501  26657M
     3(3)      977U 13757M 13757  13758  13886M 13887M 13890  13899M 14056M 14057M 14057  14070M 14071  14076M 14077
             14090M 14484M 14526  15329M 15330M 15330  15343M 15344  15349M 15350  15363M 16213  16311M 16329  16433M
             16451  16553M 16571  16694M 16712  16795M 16908  17134M 17256  17282M 17388M 17414M 17440  17455M 17588
             17658M 17685  17725M 17952  18132M 18179  18417M 18458  18646M 18683  18826M 18874  18922M 18922  18923M
             18949M 18992  19043M 19089  19115M 19118  19130M 19167M 19177M 19190  19301M 19303M 19307M 19325M 19338M
             19338  19345M 19356  19390M 19436  19593M 19595M 19599M 19617M 19630M 19630  19637M 19648  19696M 19746
             19920M 19961  20057M 20226  20354M 20420  20688M 20756  21136M 21183  21288M 21363  21716M 21763  22029M
             22260  22334M 22339M 22371M 22415  22668M 22716  22790M 22795M 22820M 22863  23143M 23193  23324M 23412
1         (MAIN2047) (12:35) (15MAR04) General Purpose Register Cross Reference                                             Page  159
             23680M 23772  23993M 24015M 24015  24021M 24022  24048M 24053  24111M 24163  24446M 24458  24734M 24781
             24835M 24836M 24846  24856M 24873M 24912  24964M 24975M 24975  25064M 25114M 25157  25228M 25238  25248M
             25351M 25391  25546M 25587  25769M 25770M 25770  25785U 25815U 25857M 25905  25949M 25978  25999M 26304M
             26311  26334M 26336M 26340M 26358M 26371M 26371  26378M 26389  26438  26453M 26501  26657M
     4(4)      973U 13751M 13758  14601M 14601  14678M 14678  14688  14695M 14714M 14714  14872M 14905M 14905  14940
             15176M 16213  16311M 16329  16433M 16451  16553M 16571  16694M 16712  16795M 16908  17134M 17256  17282M
             17292U 17588  17646U 17658M 17685  17725M 17952  18132M 18179  18417M 18458  18646M 18683  18826M 18874
             18949M 18992  19043M 19089  19135M 19191  19390M 19436  19696M 19746  19773M 19890M 19890  19906  19920M
             19961  20057M 20226  20354M 20420  20688M 20756  21136M 21183  21288M 21363  21517M 21527U 21693U 21716M
             21763  22029M 22260  22371M 22415  22515M 22577  22668M 22716  22820M 22863  23143M 23193  23379M 23380M
             23381M 23420  23680M 23772  23941M 23951U 24083U 24111M 24163  24623M 24684  24734M 24781  24873M 24912
             24960M 25062M 25114M 25157  25242M 25259U 25273U 25329  25333  25351M 25391  25463M 25481U 25534U 25546M
             25587  25857M 25905  25951M 25954M 25956  25976  25977  25999M 26438  26453M 26501  26657M
     5(5)      969U 14596M 14613  14695  14700M 14871M 14935  14969  15131  15175M 16213  16311M 16329  16433M 16451
             16553M 16571  16694M 16712  16795M 16908  17134M 17256  17658M 17685  17725M 17952  18132M 18179  18417M
             18458  18646M 18683  18826M 18874  18906M 18916N 18918  18935  18949M 18992  19043M 19089  19136M 19191
             19390M 19436  19503M 19512M 19512  19519N 19524  19561M 19561  19672U 19696M 19746  19772M 19824  19920M
             19961  19987M 19997U 20009  20037U 20057M 20226  20262M 20272U 20336U 20354M 20420  20456M 20466U 20670U
             20688M 20756  20800M 20810U 21118U 21136M 21183  21209M 21219U 21276U 21288M 21363  21399M 21409U 21698U
             21716M 21763  22029M 22260  22371M 22415  22487M 22511U 22515  22526M 22527M 22527  22542  22565U 22668M
             22716  22820M 22863  23143M 23193  23326M 23329  23345  23367M 23379  23680M 23772  23898M 24005  24016
             24111M 24163  24241M 24242M 24242  24263U 24331U 24595M 24619U 24623  24634M 24635M 24635  24650  24673U
             24734M 24781  24873M 24912  24981M 24990M 24990  25013U 25057U 25114M 25157  25183M 25196M 25196  25210
             25266  25278  25351M 25391  25417M 25430M 25430  25444  25460  25546M 25587  25857M 25905  25938D 25940M
             25940  25941M 25942U 25943M 25943  25948M 25949N 25950M 25951  25952M 25953  25956M 25959M 25961  25999M
             26438  26453M 26501  26657M
     6(6)      965U 13218M 13228U 13321U 14597M 14613  14804M 14824M 14843M 14922  15025  15173M 15174  16213  16311M
             16329  16433M 16451  16553M 16571  16694M 16712  16795M 16908  17134M 17256  17658M 17685  17725M 17952
             18029M 18030M 18030  18054U 18110U 18132M 18179  18417M 18458  18646M 18683  18744M 18745M 18745  18769U
             18809U 18826M 18874  18914M 18930  18949M 18992  19043M 19089  19201M 19257  19278  19279N 19290  19390M
             19436  19503M 19519  19524N 19543  19696M 19746  19782M 19872  19877  19886  19920M 19961  20057M 20226
             20354M 20420  20688M 20756  20815M 20825U 21113U 21136M 21183  21288M 21363  21716M 21763  22029M 22260
             22371M 22415  22668M 22716  22820M 22863  23143M 23193  23327M 23328M 23329M 23345  23680M 23772  23847M
             23857U 24088U 24111M 24163  24734M 24781  24873M 24912  25114M 25157  25351M 25391  25546M 25587  25857M
             25905  25945M 25954  25999M 26438  26453M 26501  26657M
     7(7)      961U 16213  16311M 16329  16433M 16451  16553M 16571  16694M 16712  16795M 16908  17134M 17256  17658M
             17685  17725M 17952  18013M 18023U 18115U 18132M 18179  18417M 18458  18646M 18683  18728M 18738U 18814U
             18826M 18874  18900M 18949M 18992  19043M 19089  19145M 19155U 19232  19273  19279  19371  19378U 19390M
             19436  19462M 19472U 19585U 19667U 19677  19684U 19696M 19746  19775M 19782  19792U 19806M 19807M 19807
             19880  19886M 19900U 19920M 19961  20057M 20226  20354M 20420  20688M 20756  21136M 21183  21288M 21363
             21716M 21763  22029M 22260  22371M 22415  22668M 22716  22820M 22863  23143M 23193  23680M 23772  24111M
             24163  24734M 24781  24873M 24912  25114M 25157  25351M 25391  25546M 25587  25652M 25662U 25840U 25857M
             25905  25999M 26094M 26102  26115M 26193M 26193  26218M 26219M 26219  26234U 26407U 26438  26453M 26501
             26657M
     8(8)      957U 13202M 13212U 13589U 13594M 13604U 15840U 16213  16214M 16225U 16304U 16311M 16329  16330M 16341U
             16426U 16433M 16451  16452M 16463U 16546U 16553M 16571  16572M 16583U 16687U 16694M 16712  16713M 16724U
             16788U 16795M 16908  16909M 16920U 17127U 17134M 17256  17257M 17268U 17651U 17658M 17685  17686M 17697U
             17718U 17725M 17952  17953M 17964U 18125U 18132M 18179  18180M 18191U 18410U 18417M 18458  18459M 18470U
             18639U 18646M 18683  18684M 18695U 18819U 18826M 18874  18875M 18886U 18942U 18949M 18992  18993M 19004U
             19036U 19043M 19089  19090M 19101U 19383U 19390M 19436  19437M 19448U 19689U 19696M 19746  19747M 19758U
             19913U 19920M 19961  19962M 19973U 20050U 20057M 20226  20228M 20239U 20346U 20354M 20420  20422M 20433U
             20680U 20688M 20756  20758M 20769U 21128U 21136M 21183  21184M 21195U 21281U 21288M 21363  21365M 21376U
             21708U 21716M 21763  21764M 21775U 22022U 22029M 22086  22090M 22100U 22130M 22139U 22154  22158M 22168U
             22197M 22206U 22260  22261M 22272U 22364U 22371M 22415  22416M 22427U 22661U 22668M 22716  22717M 22728U
             22813U 22820M 22863  22864M 22875U 23136U 23143M 23193  23194M 23205U 23673U 23680M 23772  23774M 23785U
             24103U 24111M 24163  24164M 24175U 24727U 24734M 24781  24782M 24793U 24866U 24873M 24912  24913M 24924U
             25107U 25114M 25157  25158M 25169U 25344U 25351M 25391  25392M 25403U 25539U 25546M 25587  25588M 25599U
             25850U 25857M 25905  25906M 25917U 25992U 25999M 26028M 26038U 26419U 26438  26453M 26501  26502M 26513U
             26650U 26657M
1         (MAIN2047) (12:35) (15MAR04) General Purpose Register Cross Reference                                             Page  160
     9(9)      953U 16213  16311M 16329  16433M 16451  16553M 16571  16694M 16712  16795M 16908  17134M 17256  17658M
             17685  17725M 17952  18132M 18179  18205M 18214U 18405U 18417M 18458  18484M 18493U 18634U 18646M 18683
             18826M 18874  18949M 18992  19043M 19089  19390M 19436  19696M 19746  19920M 19961  20057M 20226  20354M
             20420  20688M 20756  21136M 21183  21288M 21363  21716M 21763  22029M 22260  22371M 22415  22668M 22716
             22820M 22863  23143M 23193  23387M 23396U 23407  23426  23428  23430  23647  23658U 23680M 23772  23816U
             24093U 24111M 24163  24189M 24198U 24379  24381M 24474  24616U 24650  24668U 24722U 24734M 24781  24873M
             24912  25114M 25157  25351M 25391  25546M 25587  25621U 25845U 25857M 25905  25999M 26438  26453M 26501
             26657M
    10(A)      949U 15458M 15467U 15598  15604U 15946U 16213  16311M 16329  16433M 16451  16553M 16571  16694M 16712
             16795M 16809U 16908  17134M 17256  17658M 17685  17725M 17952  18132M 18179  18247M 18248M 18248  18268U
             18337U 18417M 18458  18545M 18546M 18546  18566U 18598U 18646M 18683  18826M 18874  18949M 18992  19043M
             19089  19390M 19436  19696M 19746  19920M 19961  20057M 20226  20354M 20420  20688M 20756  21136M 21183
             21288M 21363  21716M 21763  22029M 22260  22371M 22415  22668M 22716  22820M 22863  22889M 22898U 23041
             23131U 23143M 23193  23219M 23228U 23431  23668U 23680M 23772  24111M 24163  24734M 24781  24873M 24912
             25114M 25157  25351M 25391  25546M 25587  25857M 25905  25999M 26438  26453M 26501  26657M
    11(B)      945U  3282B  3283B 13922M 13931U 13947M 13948M 13948  13986U 14041M 14050U 14108  14109  14123U 14178M
             14187U 14203M 14204M 14204  14281U 15314M 15323U 15365  15382  15383  15397U 15417M 15418M 15418  15432U
             15436  15485  15609U 15852U 16213  16311M 16329  16433M 16451  16553M 16571  16694M 16712  16795M 16816U
             16908  17134M 17256  17658M 17685  17725M 17952  18132M 18179  18272M 18281U 18332U 18417M 18458  18570M
             18579U 18593U 18646M 18683  18826M 18874  18949M 18992  19043M 19089  19390M 19436  19696M 19746  19920M
             19961  20057M 20226  20354M 20420  20688M 20756  21136M 21183  21288M 21363  21716M 21763  22029M 22260
             22371M 22415  22441M 22450U 22508U 22542  22560U 22640  22656U 22668M 22716  22820M 22863  22960M 22961M
             22961  22981U 23070U 23143M 23193  23258M 23267U 23663U 23680M 23772  24111M 24163  24734M 24781  24873M
             24912  25114M 25157  25351M 25391  25546M 25587  25857M 25905  25999M 26102M 26111U 26205U 26438  26453M
             26501  26657M
    12(C)      941U 12746U 13214M 26438  26439M 26453M
    13(D)      937U 13334  13342  13480M 13481M 13482  13482  16210  16213  16229M 16231  16231  16232  16232  16233
             16308M 16308  16311  16313  16315  16315  16326  16329  16345M 16347  16347  16348  16348  16349  16430M
             16430  16433  16435  16437  16437  16448  16451  16467M 16469  16469  16470  16470  16471  16550M 16550
             16553  16555  16557  16557  16568  16571  16587M 16589  16589  16590  16590  16591  16691M 16691  16694
             16696  16698  16698  16709  16712  16728M 16730  16730  16731  16731  16732  16792M 16792  16795  16797
             16799  16799  16905  16908  16924M 16926  16926  16927  16927  16928  17131M 17131  17134  17136  17138
             17138  17253  17256  17272M 17274  17274  17275  17275  17276  17655M 17655  17658  17660  17662  17662
             17682  17685  17701M 17703  17703  17704  17704  17705  17722M 17722  17725  17727  17729  17729  17949
             17952  17968M 17970  17970  17971  17971  17972  18129M 18129  18132  18134  18136  18136  18176  18179
             18195M 18197  18197  18198  18198  18199  18414M 18414  18417  18419  18421  18421  18455  18458  18474M
             18476  18476  18477  18477  18478  18643M 18643  18646  18648  18650  18650  18680  18683  18699M 18701
             18701  18702  18702  18703  18823M 18823  18826  18828  18830  18830  18871  18874  18890M 18892  18892
             18893  18893  18894  18946M 18946  18949  18951  18953  18953  18989  18992  19008M 19010  19010  19011
             19011  19012  19040M 19040  19043  19045  19047  19047  19086  19089  19105M 19107  19107  19108  19108
             19109  19387M 19387  19390  19392  19394  19394  19433  19436  19452M 19454  19454  19455  19455  19456
             19693M 19693  19696  19698  19700  19700  19743  19746  19762M 19764  19764  19765  19765  19766  19917M
             19917  19920  19922  19924  19924  19958  19961  19977M 19979  19979  19980  19980  19981  20054M 20054
             20057  20059  20061  20061  20223  20226  20243M 20245  20245  20246  20246  20247  20258U 20341U 20350M
             20350  20354  20356  20358  20358  20417  20420  20437M 20439  20439  20440  20440  20441  20452U 20675U
             20684M 20684  20688  20690  20692  20692  20753  20756  20773M 20775  20775  20776  20776  20777  20788U
             21123U 21132M 21132  21136  21138  21140  21140  21180  21183  21199M 21201  21201  21202  21202  21203
             21285M 21285  21288  21290  21292  21292  21360  21363  21380M 21382  21382  21383  21383  21384  21395U
             21703U 21712M 21712  21716  21718  21720  21720  21760  21763  21779M 21781  21781  21782  21782  21783
             22026M 22026  22029  22031  22033  22033  22085N 22086N 22087N 22129N 22130N 22131N 22153N 22154N 22155N
             22196N 22197N 22198N 22257  22260  22276M 22278  22278  22279  22279  22280  22368M 22368  22371  22373
             22375  22375  22412  22415  22431M 22433  22433  22434  22434  22435  22665M 22665  22668  22670  22672
             22672  22713  22716  22732M 22734  22734  22735  22735  22736  22817M 22817  22820  22822  22824  22824
             22860  22863  22879M 22881  22881  22882  22882  22883  23140M 23140  23143  23145  23147  23147  23190
             23193  23209M 23211  23211  23212  23212  23213  23677M 23677  23680  23682  23684  23684  23769  23772
             23789M 23791  23791  23792  23792  23793  23804U 24098U 24107M 24107  24111  24113  24115  24115  24160
             24163  24179M 24181  24181  24182  24182  24183  24731M 24731  24734  24736  24738  24738  24778  24781
             24797M 24799  24799  24800  24800  24801  24870M 24870  24873  24875  24877  24877  24909  24912  24928M
             24930  24930  24931  24931  24932  25111M 25111  25114  25116  25118  25118  25154  25157  25173M 25175
1         (MAIN2047) (12:35) (15MAR04) General Purpose Register Cross Reference                                             Page  161
             25175  25176  25176  25177  25348M 25348  25351  25353  25355  25355  25388  25391  25407M 25409  25409
             25410  25410  25411  25543M 25543  25546  25548  25550  25550  25584  25587  25603M 25605  25605  25606
             25606  25607  25854M 25854  25857  25859  25861  25861  25902  25905  25921M 25923  25923  25924  25924
             25925  25996M 25996  25999  26001  26003  26003  26045M 26046M 26047  26047  26438  26453M 26498  26501
             26517M 26519  26519  26520  26520  26521  26654M 26654  26657  26659  26661  26661
    14(E)      933U 13174B 13184B 13216  13486M 13487M 13487B 13505M 13506M 13506B 13631M 13632M 13632B 13650M 13651M
             13651B 13680M 13681M 13681B 13721M 13722M 13722B 13772M 13773M 13773B 13799M 13800M 13800B 13818M 13819M
             13819B 13903M 13904M 13904B 13910M 13911M 13911B 13917M 13918M 13918B 14008M 14009M 14009B 14019M 14020M
             14020  14026M 14026B 14082M 14083M 14083B 14132M 14133M 14133B 14214D 14216M 14216  14217M 14218U 14230
             14240M 14240  14245M 14248M 14248N 14249M 14249  14258M 14258  14265M 14265B 14286M 14287M 14287B 14305M
             14306M 14306B 14340M 14341M 14341B 14350M 14351M 14351B 14396B 14406B 14415B 14424B 14434B 14443B 14453B
             14462B 14471B 14481B 14483  14506M 14507M 14507B 14524M 14525M 14525B 14566M 14567M 14567B 14576M 14577M
             14577B 14657M 14658M 14658B 14741M 14742M 14742B 14759M 14760M 14760B 14769M 14868M 14869M 14869B 14951M
             14952M 14952B 14979M 14980M 14980B 15149M 15150M 15150B 15167M 15168M 15168B 15218M 15219M 15219B 15235M
             15255M 15289M 15290M 15290B 15306M 15306  15312M 15312B 15355M 15356M 15356B 15446M 15447M 15447  15456M
             15456B 15507M 15508M 15508B 15535M 15536M 15536B 15587M 15588M 15588B 15659M 15660M 15660B 15689M 15690M
             15690B 15725M 15726M 15726B 15748M 15749M 15749B 15803M 15804M 15804B 15831M 15832M 15832B 15883B 15900B
             15915B 15929B 15937B 16004B 16018B 16032B 16046B 16060B 16074B 16088B 16105B 16119B 16133B 16147B 16164B
             16179B 16193B 16201B 16210  16313M 16317B 16326  16435M 16439B 16448  16480M 16481M 16481B 16555M 16559B
             16568  16599M 16600M 16600B 16614M 16696M 16700B 16709  16772M 16797M 16801B 16905  16960M 16961M 16961B
             16977M 16978M 16978B 17013M 17014M 17014B 17036M 17037M 17037B 17091M 17092M 17092B 17119M 17120M 17120B
             17136M 17140B 17253  17387M 17444M 17445M 17445B 17613M 17614M 17614  17619M 17619  17622M 17623  17660M
             17664B 17682  17727M 17731B 17895B 17949  17980M 17981M 17981B 17985M 17986M 17986B 17989M 17990M 17990B
             17995M 17996M 17996B 18080M 18081M 18081B 18103M 18104M 18104B 18134M 18138B 18176  18394M 18419M 18423B
             18455  18627M 18648M 18652B 18680  18796M 18797M 18797B 18801M 18802M 18802B 18828M 18832B 18871  18909
             18912M 18913M 18913B 18951M 18955B 18989  19028M 19029M 19029B 19045M 19049B 19086  19140  19143M 19144M
             19144B 19392M 19396B 19433  19530M 19531M 19531B 19698M 19702B 19743  19883M 19884M 19884B 19922M 19926B
             19958  20009M 20025M 20059M 20063B 20223  20356M 20360B 20417  20607M 20608M 20608B 20690M 20694B 20753
             20978M 20979M 20979B 21138M 21142B 21180  21290M 21294B 21360  21718M 21722B 21760  22031M 22035B 22085
             22131M 22132B 22153  22198M 22199B 22217B 22236B 22257  22314  22317M 22318M 22318B 22339M 22373M 22377B
             22412  22484M 22485M 22485B 22598M 22599M 22599B 22632M 22633M 22633B 22643M 22644M 22644B 22670M 22674B
             22713  22770  22773M 22774M 22774B 22795M 22822M 22826B 22860  23080M 23081M 23081B 23105M 23106M 23106B
             23118M 23119M 23119B 23145M 23149B 23190  23385M 23386M 23386B 23407M 23414M 23612M 23613M 23613B 23617M
             23618M 23618B 23643M 23644M 23644B 23682M 23686B 23769  23892M 23893M 23893B 23896M 23897M 23897B 23936M
             23937M 23937B 23977M 23978M 23978B 23984M 23985M 23985B 24045M 24046M 24046B 24070M 24071M 24071B 24113M
             24117B 24160  24234M 24235M 24235B 24580M 24581M 24581B 24690M 24691M 24691B 24708M 24709M 24709B 24736M
             24740B 24778  24875M 24879B 24909  25116M 25120B 25154  25353M 25357B 25388  25548M 25552B 25584  25859M
             25863B 25902  26001M 26005B 26075M 26076M 26076B 26082M 26083M 26083B 26089M 26090M 26090B 26120D 26122M
             26122  26123M 26124U 26136  26146M 26146  26151M 26154M 26154N 26155M 26155  26168M 26168B 26309M 26310M
             26310B 26312M 26438  26453M 26454B 26498  26588M 26589M 26589B 26624M 26625M 26625B 26642M 26643M 26643B
             26659M 26663B
    15(F)      929U  3744M  3744  13172M 13173M 13173  13175  13180M 13183M 13183  13262M 13263  13273U 13286U 13289M
             13290  13300U 13313U 13338M 13338  13340M 13340  13372M 13373M 13508M 13509  13511M 13512  13527M 13528
             13607M 13628M 13647M 13677M 13796M 13815M 14005M 14092M 14102U 14116U 14145M 14155U 14169U 14302M 14337M
             14484  14503M 14521M 14526M 14563M 14572M 14654M 14738M 14768M 14768  14769M 14848M 14849  14865M 14948M
             14993  15025M 15026M 15045M 15050  15146M 15164M 15215M 15286M 15366M 15376U 15390U 15486M 15498  15532M
             15546M 15547M 15584M 15656M 15686M 15722M 15731M 15750M 15751M 15753M 15775M 15800M 15828M 15931  16213
             16259M 16263M 16272M 16272  16279  16311M 16316M 16316  16329  16381M 16385M 16394M 16394  16401  16433M
             16438M 16438  16451  16501M 16505M 16514M 16514  16521  16553M 16558M 16558  16571  16623M 16626  16638M
             16646M 16655M 16655  16662  16694M 16699M 16699  16712  16795M 16800M 16800  16908  16957M 16974M 17010M
             17019M 17038M 17039M 17041M 17063M 17088M 17116M 17134M 17139M 17139  17154U 17176U 17190U 17212U 17358M
             17358  17385M 17385  17386M 17387B 17440M 17446  17449D 17451M 17451  17452M 17453U 17454M 17455  17456
             17531M 17535M 17544M 17544  17551  17593M 17593  17611M 17611  17612M 17613  17616  17621  17622  17625
             17629  17639M 17663M 17663  17730M 17730  17818U 17902U 18099M 18100  18137M 18137  18288M 18289M 18290
             18294M 18295M 18296  18301M 18302M 18303  18315  18321  18345M 18346M 18347  18367M 18368M 18369  18381
             18387  18422M 18422  18585M 18586M 18587  18623M 18624M 18625  18651M 18651  18831M 18831  18900  18904M
             18905  18954M 18954  19048M 19048  19115  19193M 19194  19201  19211U 19225M 19226M 19226  19252U 19266M
             19266  19273N 19362M 19371M 19395M 19395  19462  19533M 19543  19654M 19677M 19701M 19701  19856M 19865M
             19865  19872N 19877  19906M 19925M 19925  20016M 20024  20025M 20027M 20028  20029M 20030  20043M 20043
1         (MAIN2047) (12:35) (15MAR04) General Purpose Register Cross Reference                                             Page  162
             20062M 20062  20322M 20322  20359M 20359  20517M 20547M 20548  20549M 20551  20566M 20567  20570M 20580M
             20599M 20599  20634M 20649M 20652  20655M 20662M 20662  20693M 20693  20800  20951M 20970M 20970  21141M
             21141  21259M 21293M 21293  21461M 21483M 21483  21643M 21663M 21686M 21686  21721M 21721  21801M 21801
             21826  21851  21876  21901  21926  21951  21976  22001  22034M 22034  22224M 22235  22338M 22338  22339M
             22344M 22345M 22346  22347  22352M 22352  22376M 22376  22576M 22577  22629M 22649M 22649  22673M 22673
             22794M 22794  22795M 22801M 22801  22825M 22825  23017M 23018M 23018  23041  23102M 23124M 23124  23148M
             23148  23333M 23333  23358  23382M 23412M 23414M 23416M 23417M 23418  23419  23421M 23422  23424M 23425
             23651M 23651  23685M 23685  23914M 23915M 23974M 24053M 24116M 24116  24464M 24474  24693M 24694M 24695M
             24705M 24715M 24715  24739M 24739  24847M 24878M 24878  25046M 25085M 25119M 25119  25239M 25278M 25279M
             25304M 25337M 25337  25356M 25356  25460M 25461M 25462M 25524M 25551M 25551  25862M 25862  25976M 25978M
             25984M 26004M 26004  26282M 26291M 26291  26298  26303  26394M 26432U 26438  26453M 26461U 26621M 26639M
             26662M 26662

1MAIN     (MAIN2047) (12:35) (15MAR04) Diagnostic Cross Reference and Assembler Summary                                     Page  163
-                                                                                            HLASM R4.0  2004/03/15 12.35
0     No Statements Flagged in this Assembly
 HIGH LEVEL ASSEMBLER, 5696-234, RELEASE 4.0, PTF UQ57391
0SYSTEM: OS/390 02.10.00            JOBNAME: MIL#MAIN    STEPNAME: ASM        PROCSTEP: (NOPROC)
0Datasets Allocated for this Assembly
  Con DDname   Dataset Name                                 Volume  Member
   P1 SYSIN    WYL.GS.MIL.MILTEN.SOURCE                     SYSB05  MAIN
   L1 SYSLIB   WYL.GS.MIL.MILTEN.MACLIB                     SYSB05
   L2          WYL.GG.SYS.MACLIB                            SYSB05
   L3          SYS3.IS.MACLIB                               SYSB05
   L4          SYS3.MACLIB                                  SYSB02
   L5          SYS1.MACLIB                                  MVSBR9
   L6          SYS1.MODGEN                                  MVSBR9
      SYSPRINT SYS04075.T123543.RA000.MIL#MAIN.PRINT.H01    SCR101
      SYSTERM  GG$SLP.MIL#MAIN.JOB03416.D0000101.?

    3776K allocated to Buffer Pool,         6181K would be required for this to be an In-Storage Assembly
    2636 Primary Input Records Read        30388 Library Records Read                607 Work File Reads
       0 ASMAOPT Records Read              12102 Primary Print Records Written       605 Work File Writes
       0 Punch Records Written                 0 ADATA Records Written
0Assembly Start Time: 12.35.44 Stop Time: 12.36.01 Processor Time: 00.00.04.9292
 Return Code 000
