1                        J E S 2  J O B  L O G  --  S Y S T E M  S Y S B  --  N O D E  R L G
0
 12.36.04 JOB03417 ---- MONDAY,    15 MAR 2004 ----
 12.36.04 JOB03417  ICH70001I GG$SLP   LAST ACCESS AT 12:35:43 ON MONDAY, MARCH 15, 2004
 12.36.04 JOB03417  $HASP373 MIL#MALT STARTED - INIT 9    - CLASS B - SYS SYSB
 12.36.04 JOB03417  ***  HCMD      STEP $$QUIET
 12.36.04 JOB03417  PUR * Q OUT MUL
 12.36.04 JOB03417  JOB 5462 MIL#MALT WILL BE PURGED
 12.36.05 JOB03417  MIL#MALT.$$QUIET .         RC=Zero TapeIO=0000 DiskIO=0000 CPU=  .01s Elapsed=64.89s
 12.36.09 JOB03417  MIL#MALT.ASM     .         RC=Zero TapeIO=0000 DiskIO=0306 CPU= 1.02s Elapsed=65.94s
 12.36.10 JOB03417  MIL#MALT.EDIT    .         RC=Zero TapeIO=0000 DiskIO=0039 CPU=  .13s Elapsed=70.07s
 12.36.10 JOB03417  MIL#MALT Ended.  Name=Assemble MALT                  Total CPU= 1.16s Elapsed=64.89s
 12.36.10 JOB03417
 12.36.10 JOB03417  Execution charges   Priority=Standard   Block=Day
 12.36.10 JOB03417
 12.36.10 JOB03417  CPU Usage          21.00          $13.02   Standard Processing Unit Equivalent
 12.36.10 JOB03417                                   =======
 12.36.10 JOB03417                                    $13.02   Total Job execution charge
 12.36.10 JOB03417
 12.36.10 JOB03417  See back separator page for print charges
 12.36.10 JOB03417
 12.36.10 JOB03417  $HASP395 MIL#MALT ENDED  ASM=0, EDIT=0
1        1 //MIL#MALT JOB SLP$GG,'Assemble MALT',TIME=4,REGION=4M                  JOB03417
           //*
           /*JOBPARM LINES=99,COPIES=1
           /*JOBPARM FORMS=3HOL,PFORMAT=LAND,CHARS=BD13,DUPLEX=YES,FLASH=BAR4
           //*
           /*JOBPARM NOTIFY=GG.SLP,HOLD=OUTPUT                                     WYLGEN
         2 //$$QUIET EXEC PGM=HCMDX,PARM='PUR * Q OUT MUL'
           //*
         3 //ASM    EXEC PGM=ASMA90,REGION=8M,
           //            PARM=('NORENT,TERM,FLAG(NOCONT),US(MAP,WARN(10)),NODECK',
           //            'LC(32767),XREF(SHORT),ESD,DXREF,NOOBJECT')
           //*STEPLIB  DD DSN=SYS1.SASMMOD1,DISP=SHR
         4 //SYSLIB   DD  DSN=WYL.GS.MIL.MILTEN.MACLIB,DISP=SHR
         5 //         DD  DSN=WYL.GG.SYS.MACLIB,DISP=SHR
         6 //         DD  DSN=SYS3.IS.MACLIB,DISP=SHR
         7 //         DD  DSN=SYS3.MACLIB,DISP=SHR
         8 //         DD  DSN=SYS1.MACLIB,DISP=SHR
         9 //         DD  DSN=SYS1.MODGEN,DISP=SHR
        10 //SYSUT1   DD DSN=&&SYSUT1,UNIT=VIO,DISP=(,DELETE),
           //            SPACE=(4088,(500,250),,CONTIG,ROUND)
        11 //SYSTERM  DD SYSOUT=T
        12 //SYSPRINT DD DSN=&&PRINT,UNIT=SYSDA,DISP=(,PASS),
           //            SPACE=(6650,(250,250),RLSE),
           //            DCB=(BLKSIZE=6650,LRECL=133,RECFM=FB)
        13 //SYSUDUMP DD SYSOUT=A
        14 //SYSIN    DD  DSN=WYL.GS.MIL.MILTEN.SOURCE(MALT),DISP=SHR
           //*
        15 //EDIT    EXEC PGM=ASMEDIT,TIME=2,REGION=4000K,
           //             PARM='STMT'
        16 //STEPLIB  DD  DSN=WYL.GG.SYS.LINKLIB,DISP=SHR
        17 //ASMOUT   DD  DSN=&PRINT,DISP=(OLD,DELETE)
        18 //SYSPRINT DD  SYSOUT=A
1 STMT NO. MESSAGE
 -
        10 IGD01010I STORCLAS= TEMP STORGROUP =
        10 IGD01010I STORGRP=VIO ASSIGNED.
        12 IGD01010I STORCLAS= TEMP STORGROUP =
        12 IGD01010I STORGRP=VIO ASSIGNED.
 ICH70001I GG$SLP   LAST ACCESS AT 12:35:43 ON MONDAY, MARCH 15, 2004
 IEF142I MIL#MALT $$QUIET - STEP WAS EXECUTED - COND CODE 0000
 *********************************************************************************
 *   MIL#MALT/$$QUIET /                    Return Code      Zero                 *
 *   Region used      260K (16K user + 244K system)                              *
 *   Extended region  9464K (4K user + 9460K system)                             *
 *                                                                               *
 *   Paging              In      Out                                             *
 *   Private <-> Aux      0        0       CPU time (TCB)   00:00:00.01          *
 *   Private <-> Exp      0        0       CPU time (SRB)   00:00:00.00          *
 *   VIO                  0        0       Elapsed time    917:51:48.07          *
 *   Common               0      ---                                             *
 *                                                                               *
 *                                                                               *
 *   CPU Usage          0.18         $0.11  Standard Processing Unit Equivalent  *
 *                                   $0.11  Total Step execution charge          *
 *                                                                               *
 *    I/O count  DDname   Type Addr           I/O count  DDname   Type Addr      *
 *                         *** No I/O for this step ***                          *
 *********************************************************************************
 IEF373I STEP/$$QUIET /START 2004075.1236
 IEF374I STEP/$$QUIET /STOP  2004075.1236 CPU    0MIN 00.01SEC SRB    0MIN 00.00SEC VIRT    16K SYS   244K EXT       4K SYS    9460K
 IEF236I ALLOC. FOR MIL#MALT ASM
 IEF237I 04DC ALLOCATED TO SYSLIB
 IEF237I 04DC ALLOCATED TO
 IEF237I 04DC ALLOCATED TO
 IEF237I 0402 ALLOCATED TO
 IEF237I 04A0 ALLOCATED TO
 IEF237I 04A0 ALLOCATED TO
 IGD101I SMS ALLOCATED TO DDNAME (SYSUT1  )
         DSN (SYS04075.T123604.RA000.MIL#MALT.SYSUT1.H01  )
         STORCLAS (TEMP) MGMTCLAS (        ) DATACLAS (        )
         VOL SER NOS= VIO
 IEF237I JES2 ALLOCATED TO SYSTERM
 IGD101I SMS ALLOCATED TO DDNAME (SYSPRINT)
         DSN (SYS04075.T123604.RA000.MIL#MALT.PRINT.H01   )
         STORCLAS (TEMP) MGMTCLAS (        ) DATACLAS (        )
         VOL SER NOS= SCR100
 IEF237I JES2 ALLOCATED TO SYSUDUMP
 IEF237I 04DC ALLOCATED TO SYSIN
 IEF142I MIL#MALT ASM - STEP WAS EXECUTED - COND CODE 0000
 IEF285I   WYL.GS.MIL.MILTEN.MACLIB                     KEPT
 IEF285I   VOL SER NOS= SYSB05.
 IEF285I   WYL.GG.SYS.MACLIB                            KEPT
 IEF285I   VOL SER NOS= SYSB05.
 IEF285I   SYS3.IS.MACLIB                               KEPT
 IEF285I   VOL SER NOS= SYSB05.
 IEF285I   SYS3.MACLIB                                  KEPT
 IEF285I   VOL SER NOS= SYSB02.
 IEF285I   SYS1.MACLIB                                  KEPT
 IEF285I   VOL SER NOS= MVSBR9.
 IEF285I   SYS1.MODGEN                                  KEPT
 IEF285I   VOL SER NOS= MVSBR9.
 IGD105I SYS04075.T123604.RA000.MIL#MALT.SYSUT1.H01   DELETED,   DDNAME=SYSUT1
 IEF285I   GG$SLP.MIL#MALT.JOB03417.D0000101.?          SYSOUT
 IGD106I SYS04075.T123604.RA000.MIL#MALT.PRINT.H01    PASSED,    DDNAME=SYSPRINT
 IEF285I   GG$SLP.MIL#MALT.JOB03417.D0000102.?          SYSOUT
 IEF285I   WYL.GS.MIL.MILTEN.SOURCE                     KEPT
 IEF285I   VOL SER NOS= SYSB05.
 *********************************************************************************
 *   MIL#MALT/ASM     /                    Return Code      Zero                 *
 *   Region used      4372K (4096K user + 276K system)                           *
 *   Extended region  10056K (412K user + 9644K system)                          *
 *                                                                               *
 *   Paging              In      Out                                             *
 *   Private <-> Aux      0        0       CPU time (TCB)   00:00:00.98          *
 *   Private <-> Exp      0        0       CPU time (SRB)   00:00:00.04          *
 *   VIO                  0        0       Elapsed time    917:51:47.02          *
 *   Common               0      ---                                             *
 *                                                                               *
 *                                                                               *
 *   CPU Usage         18.37        $11.38  Standard Processing Unit Equivalent  *
 *                                  $11.38  Total Step execution charge          *
 *                                                                               *
 *    I/O count  DDname   Type Addr           I/O count  DDname   Type Addr      *
 *          195  SYSLIB   Disk 04DC                   0  SYSLIB   Disk 04DC      *
 *            0  SYSLIB   Disk 04DC                   0  SYSLIB   Disk 0402      *
 *           68  SYSLIB   Disk 04A0                   0  SYSLIB   Disk 04A0      *
 *            0  SYSUT1   VIO  ----                   0  SYSTERM       ----      *
 *           36  SYSPRINT Disk 038B                   0  SYSUDUMP      ----      *
 *            7  SYSIN    Disk 04DC                                              *
 *********************************************************************************
 IEF373I STEP/ASM     /START 2004075.1236
 IEF374I STEP/ASM     /STOP  2004075.1236 CPU    0MIN 00.98SEC SRB    0MIN 00.04SEC VIRT  4096K SYS   276K EXT     412K SYS    9644K
 IEF236I ALLOC. FOR MIL#MALT EDIT
 IEF237I 0402 ALLOCATED TO STEPLIB
 IGD103I SMS ALLOCATED TO DDNAME ASMOUT
 IEF237I JES2 ALLOCATED TO SYSPRINT
 IEF142I MIL#MALT EDIT - STEP WAS EXECUTED - COND CODE 0000
 IEF285I   WYL.GG.SYS.LINKLIB                           KEPT
 IEF285I   VOL SER NOS= SYSB02.
 IGD105I SYS04075.T123604.RA000.MIL#MALT.PRINT.H01    DELETED,   DDNAME=ASMOUT
 IEF285I   GG$SLP.MIL#MALT.JOB03417.D0000103.?          SYSOUT
 *********************************************************************************
 *   MIL#MALT/EDIT    /                    Return Code      Zero                 *
 *   Region used      380K (116K user + 264K system)                             *
 *   Extended region  9584K (4K user + 9580K system)                             *
 *                                                                               *
 *   Paging              In      Out                                             *
 *   Private <-> Aux      0        0       CPU time (TCB)   00:00:00.13          *
 *   Private <-> Exp      0        0       CPU time (SRB)   00:00:00.00          *
 *   VIO                  0        0       Elapsed time    917:51:42.89          *
 *   Common               0      ---                                             *
 *                                                                               *
 *                                                                               *
 *   CPU Usage          2.43         $1.50  Standard Processing Unit Equivalent  *
 *                                   $1.50  Total Step execution charge          *
 *                                                                               *
 *    I/O count  DDname   Type Addr           I/O count  DDname   Type Addr      *
 *            2  STEPLIB  Disk 0402                  37  ASMOUT   Disk 038B      *
 *            0  SYSPRINT      ----                                              *
 *********************************************************************************
 IEF373I STEP/EDIT    /START 2004075.1236
 IEF374I STEP/EDIT    /STOP  2004075.1236 CPU    0MIN 00.13SEC SRB    0MIN 00.00SEC VIRT   116K SYS   264K EXT       4K SYS    9580K
 *********************************************************************************
 *                                                                               *
 *                      S t a n f o r d   U n i v e r s i t y                    *
 *                                                                               *
 *                              *** Job Summary ***                              *
 *                                                                               *
 *   System Id      SYSB                   Input time     12:35:09  Mar 15, 2004 *
 *                                                                               *
 *   System Release SP6.1.0                Start time     12:36:04  Mar 15, 2004 *
 *                                                                               *
 *   Job name       MIL#MALT               Stop  time     00:00:00  Mar 15, 2004 *
 *                                                                               *
 *   Account        SLP$GG                 Elapsed time  917:51:48.07            *
 *                                                                               *
 *   User Name      Assemble MALT          CPU time       00:00:01.12            *
 *                                                                               *
 *   Job class      B                      SRB Time       00:00:00.04            *
 *                                                                               *
 *********************************************************************************
 IEF375I  JOB/MIL#MALT/START 2004075.1236
 IEF376I  JOB/MIL#MALT/STOP  2004075.1236 CPU    0MIN 01.12SEC SRB    0MIN 00.04SEC
1Assembler Done MALT No Statements Flagged
1         High Level Assembler Option Summary                   (PTF UQ57391)                                               Page    1
-                                                                                            HLASM R4.0  2004/03/15 12.36
0  No Overriding ASMAOPT Parameters
   Overriding Parameters-  NORENT,TERM,FLAG(NOCONT),US(MAP,WARN(10)),NODECK,LC(32767),XREF(SHORT),ESD,DXREF,NOOBJECT
   No Process Statements


   Options for this Assembly
0  NOADATA
     ALIGN
   NOASA
     BATCH
     CODEPAGE(047C)
   NOCOMPAT
   NODBCS
 3 NODECK
 3   DXREF
 3   ESD
   NOEXIT
 3   FLAG(0,ALIGN,NOCONT,NOIMPLEN,NOPAGE0,PUSH,RECORD,NOSUBSTR,USING0)
   NOFOLD
   NOGOFF
   NOINFO
     LANGUAGE(EN)
   NOLIBMAC
 3   LINECOUNT(32767)
     LIST(121)
     MXREF(SOURCE)
 3 NOOBJECT
     OPTABLE(UNI,NOLIST)
   NOPCONTROL
   NOPESTOP
   NOPROFILE
   NORA2
 3 NORENT
     RLD
     RXREF
     SIZE(MAX)
     SYSPARM()
 3   TERM(WIDE)
   NOTEST
     THREAD
   NOTRANSLATE
 3   USING(NOLIMIT,MAP,WARN(10))
 3   XREF(SHORT)

   No Overriding DD Names

1MALT     External Symbol Dictionary                                                                                        Page    2
-Symbol   Type   Id     Address  Length     LD ID  Flags Alias-of                            HLASM R4.0  2004/03/15 12.36
0MILMALT   SD 00000001 00000000 000007CC             00
 MALT2047  LD          00000000           00000001
 COREINIT  LD          00000018           00000001
 GETCORE   LD          00000090           00000001
 NGETCORE  LD          000000C8           00000001
 FREECORE  LD          0000021A           00000001
 NFRECORE  LD          00000256           00000001
 GETTRC    ER 00000002
 NFRECORE  ER 00000003
 GETPOOL   LD          000003CE           00000001
 FREEPOOL  LD          0000049A           00000001
 COREFMT   LD          0000051A           00000001
 SEGWR     ER 00000004
 SEGDC     ER 00000005
 SEGB      ER 00000006
 SEG       ER 00000007
 FMTTIME   ER 00000008
 SEGHX     ER 00000009
 SEGPSW    ER 0000000A

1MALT     MILTEN's Memory Allocation Routines                                                                               Page    3
0Loc    Object Code    Addr1 Addr2  Stmt Lv Lineno    Source Statement                    (Asmedit 3.3)  HLASM R4.0  2004/03/15 12.36
+___    ______ ____    _____ _____  ____ __ ______    ______ _________
0                                      2              *******************************************************************
                                       3              *                                                                 *
                                       4              *     MILTEN/370 - Release VI - Class I - Stanford Proprietary    *
                                       5              *                                                                 *
                                       6              *******************************************************************
                                       7                       HIBAL
                                     995
                                     996                       SYSDEFN
                                     997
 000000                00000 007CC   998              MILMALT  CSECT
                                    1002              MALT     IDENT 2047                10:16:23 02/16/02  (SLP)
                                    1005             +
                                    1006    01-IDENT +         ENTRY MALT2047
                                    1007             +
 000000 16D4C1D3E3F2F0F4            1008    01-IDENT +MALT2047 DC    AL1(22),C'MALT2047,15MAR04,12:36'
                                    1009             +*
                                    1011                       REGS  ,,FSR,,,,,,BR,,MPGR,(MATR,LSR),CVR,SPR,RAR
1MALT     (MALT2047) (12:36) (15MAR04) MILTEN's Memory Allocation Routines                                                  Page    4
0Loc    Object Code    Addr1 Addr2  Stmt Lv Lineno    Source Statement           (Hibal 5, Asmedit 3.3)  HLASM R4.0  2004/03/15 12.36
+___    ______ ____    _____ _____  ____ __ ______    ______ _________
0                                   1131                       PUSH  DSECTS
 USING  CV,R12                      1143             =         USING CV
 000017                00000 007CC  1152             =         POP   PRINT
1MALT     (MALT2047) (12:36) (15MAR04) DSECTS                                                                               Page    5
0Current Usings:  (CV,R12)
0Loc    Object Code    Addr1 Addr2  Stmt Lv Lineno    Source Statement           (Hibal 5, Asmedit 3.3)  HLASM R4.0  2004/03/15 12.36
+___    ______ ____    _____ _____  ____ __ ______    ______ _________
0                                   1743              TRC#     EQU   100                 No. of trace entries
-000000                00000 00010  1745              TRC      RECORD BEGIN
 000000                             1753  1           TRCCLCK    DS    D                   Stck clock
                                    1754  1
 000008                             1755  1           TRCTYPE    DS    0C                  Trace type:
                                    1756  1           *                                    g=getcore, f=freecore
 000008                             1757  1           TRCADDR    DS    A                   Memory address
 00000C                             1758  1           TRCRTN     DS    A                   Callers address
 000010                00010 00010  1759                       END
1MALT     (MALT2047) (12:36) (15MAR04) Memory Allocation Routines                                                           Page    6
0Current Usings:  (CV,R12)
0Loc    Object Code    Addr1 Addr2  Stmt Lv Lineno    Source Statement           (Hibal 5, Asmedit 3.3)  HLASM R4.0  2004/03/15 12.36
+___    ______ ____    _____ _____  ____ __ ______    ______ _________
0                                   1770              ¿þþþþþþþþþþþþþþþþþþþþþþþþþþþþþþþþþþþþþþþþþþþþþþþþþþþþþþþþþþþþþþþþþþþþþÜ
                                    1771              Ÿ                                                                     Ÿ
                                    1772              Ÿ  COREINIT -- Routine to do memory management initialization.        Ÿ
                                    1773              Ÿ                                                                     Ÿ
                                                      ¾þþþþþþþþþþþþþþþþþþþþþþþþþþþþþþþþþþþþþþþþþþþþþþþþþþþþþþþþþþþþþþþþþþþþþ»
0000018 50E0 D044/902B_      00044  1774              COREINIT XPROC
 USING  *,R8
 000032 0700/4510 801A_             1812                       GETMAIN R,LV=CVRCLEN*2    force 'no core' abend if close
 000042 0700/47F0 802A_             1819                       FREEMAIN R,A=(1),LV=CVRCLEN*2
                                    1827
 000056 0700/4510 803E_             1828                       GETMAIN R,LV=CVRCLEN      Get reserved core
 000066 5010 C484            00484  1835                       ST    R1,CVRCLOC          Save address
                                    1836
 00006A 4100 0010            00010  1837                       LA    R0,L'TRC
 00006E 4110 0064            00064  1838                       LA    R1,TRC#
 000072 41F0 836A            0038C  1839                       LA    R15,TRCP
 000076 58E0 837E/0DEE       003A0  1840                       VCALL GETTRC              Get trace table
 00007C 41D0 D030/982B_      00030  1844                       PEND
 DROP   *,R8
1MALT     (MALT2047) (12:36) (15MAR04) Memory Allocation Routines                                                           Page    7
0Current Usings:  (CV,R12)
0Loc    Object Code    Addr1 Addr2  Stmt Lv Lineno    Source Statement           (Hibal 5, Asmedit 3.3)  HLASM R4.0  2004/03/15 12.36
+___    ______ ____    _____ _____  ____ __ ______    ______ _________
0                                   1865              ¿þþþþþþþþþþþþþþþþþþþþþþþþþþþþþþþþþþþþþþþþþþþþþþþþþþþþþþþþþþþþþþþþþþþþþÜ
                                    1866              Ÿ                                                                     Ÿ
                                    1867              Ÿ  GETCORE -- Routine to get memory.                                  Ÿ
                                    1868              Ÿ    (Note: This routine can also be called from a subtask.)          Ÿ
                                    1869              Ÿ                                                                     Ÿ
                                    1870              Ÿ    On entry:                                                        Ÿ
                                    1871              Ÿ      R0 - no. of bytes needed                                       Ÿ
                                    1872              Ÿ                                                                     Ÿ
                                    1873              Ÿ    On exit:                                                         Ÿ
                                    1874              Ÿ      R0 - no. of bytes obtained (ge needed)                         Ÿ
                                    1875              Ÿ      R1 - addr of memory                                            Ÿ
                                    1876              Ÿ                                                                     Ÿ
                                                      ¾þþþþþþþþþþþþþþþþþþþþþþþþþþþþþþþþþþþþþþþþþþþþþþþþþþþþþþþþþþþþþþþþþþþþþ»
0                                   1877              þþþþ
 000090 50E0 D044/902B_      00044  1878              GETCORE  XPROC ,
 USING  *,R8
 0000AA 182E                        1916                       LR    R2,RAR
 0000AC 1F11                        1917                       SLR   R1,R1
 0000AE 58E0 830A/0DEE       003A4  1918                       ACALL NGETCORE
 0000B4 41D0 D030/982B_      00030  1922                       PEND
 DROP   *,R8
1MALT     (MALT2047) (12:36) (15MAR04) Memory Allocation Routines                                                           Page    8
0Current Usings:  (CV,R12)
0Loc    Object Code    Addr1 Addr2  Stmt Lv Lineno    Source Statement           (Hibal 5, Asmedit 3.3)  HLASM R4.0  2004/03/15 12.36
+___    ______ ____    _____ _____  ____ __ ______    ______ _________
0                                   1943              ¿þþþþþþþþþþþþþþþþþþþþþþþþþþþþþþþþþþþþþþþþþþþþþþþþþþþþþþþþþþþþþþþþþþþþþÜ
                                    1944              Ÿ                                                                     Ÿ
                                    1945              Ÿ  NGETCORE -- Routine to get memory.                                 Ÿ
                                    1946              Ÿ    (Note: This routine can also be called from a subtask and        Ÿ
                                    1947              Ÿ           MUST BE REENTRANT!)                                       Ÿ
                                    1948              Ÿ                                                                     Ÿ
                                    1949              Ÿ    On entry:                                                        Ÿ
                                    1950              Ÿ      R0 - no. of bytes needed                                       Ÿ
                                    1951              Ÿ      R1 - subpool number to obtain the core from                    Ÿ
                                    1952              Ÿ      R2 - Identifier of the requestor.                              Ÿ
                                    1953              Ÿ                                                                     Ÿ
                                    1954              Ÿ    On exit:                                                         Ÿ
                                    1955              Ÿ      R0 - no. of bytes obtained (ge needed)                         Ÿ
                                    1956              Ÿ      R1 - addr of memory                                            Ÿ
                                    1957              Ÿ                                                                     Ÿ
                                                      ¾þþþþþþþþþþþþþþþþþþþþþþþþþþþþþþþþþþþþþþþþþþþþþþþþþþþþþþþþþþþþþþþþþþþþþ»
0000000                00000 00004  1958              NCOREWA  RECORD BEGIN
 000000                             1966  1           NCORESP    DS    F                   Subpool
 000004                00004 00004  1967                       END
                                    1976              þþþþ
 0000C8 50E0 D044/902B_      00044  1977              NGETCORE XPROC NCOREWA
 USING  *,R8
 USING  NCOREWA-@@,R13
 0000E2 1892                        2026                       LR    R9,R2               Save requestor ID
 0000E4 5010 D04C            00000  2027                       ST    R1,NCORESP          Save subpool
                                    2028
 0000E8 1200/47D0 8024_             2029                       FAIL  ((R0,NP),OR,(R0,GT,128*1024)),'Bad GETCORE length'
 00010C 1860                        2068                       LR    R6,R0
 00010E 4A60 82F6            003C8  2069                       AH    R6,=H'7'
 000112 5460 82DA            003AC  2070                       N     R6,=F'-8'           Doubleword
                                    2071
 000116 5820 C59C/4130_      0059C  2072                       INCRR R2,R3,CVMPGCNT      Count call
 000128 9823 C5A0            005A0  2078              NGETCMLP LM    R2,R3,CVMPGCUR      Current, max no. of bytes used
 00012C 1842                        2079                       LR    R4,R2
 00012E 1A46                        2080                       AR    R4,R6               New current
 000130 1853                        2081                       LR    R5,R3
 000132 1954/47B0 8068_             2082                       FLOOR R5,R4               Max so far
 00013A BB24 C5A0            005A0  2088                       CDS   R2,R4,CVMPGCUR      Update cur, max
 00013E 4770 8056            00128  2089                       BNZ   NGETCMLP
                                    2090
 000142 4A60 82F8            003CA  2091                       AH    R6,=H'32'           Prefix and Suffix overhead
                                    2092
 000146 5850 C484            00484  2093              NGETCLP  L     R5,CVRCLOC          Reserved core addr
 00014A 1F33/4330 D04F              2094                       LC    R3,NCORESP+3        Get subpool
 000150 47F0 8086/00/0_      00158  2101                       GETMAIN RC,LV=(R6),SP=(R3),LOC=ANY
 000168 12FF/4780 80E0              2115                       IF    (R15,NZ),BEGIN      Out of memory...
 00016E 1255/4770 80B2_             2129  1                      FAIL  (R5,Z),'Out of memory'
 000184 1BFF                        2152  1                      CLEAR R15
 000186 BA5F C484            00484  2156  1                      CS    R5,R15,CVRCLOC      Dequeue reserved memory
 00018A 4770 8074            00146  2157  1                      BNZ   NGETCLP             Something changed
 00018E 0700/47F0 80C6_             2158  1                      FREEMAIN R,A=(R5),LV=CVRCLEN  release reserved memory
 0001A2 41F0 0001/5EF0_      00001  2166  1                      INCR  R15,CVMNLOWM        Count low core
 0001AE 47F0 8074            00146  2172  1                      B     NGETCLP
1MALT     (MALT2047) (12:36) (15MAR04) Memory Allocation Routines                                                           Page    9
0Current Usings:  (*,R8) (CV,R12) (NCOREWA-@@,R13)
0Loc    Object Code    Addr1 Addr2  Stmt Lv Lineno    Source Statement           (Hibal 5, Asmedit 3.3)  HLASM R4.0  2004/03/15 12.36
+___    ______ ____    _____ _____  ____ __ ______    ______ _________
00001B2                             2173                       END
                                    2177
 0001B2 1871                        2178                       LR    R7,R1               Addr of our memory
 0001B4 4170 7000            00000  2179                       LA    R7,@R7
 0001B8 D203 7000 82DE 00000 003B0  2180                       MVC   @R7(4),=C'MEMS'     Identifier
 0001BE 5060 7004            00004  2181                       ST    R6,@R7+4            Len
 0001C2 5090 7008            00008  2182                       ST    R9,@R7+8            Caller's addr (for debugging)
 0001C6 D203 700C D04C 0000C 00000  2183                       MVC   12(4,R7),NCORESP    Save subpool number
 0001CC 41F7 6000            00000  2184                       LA    R15,@R6(R7)
 0001D0 4BF0 82FA            003CC  2185                       SH    R15,=H'16'
 0001D4 D70F F000 F000 00000 00000  2186                       XC    0(16,R15),0(R15)    Zero out trailer
 0001DA D203 F000 82E2 00000 003B4  2187                       MVC   @R15(4),=C'MEND'    Ending identifier
                                    2188
 0001E0 4170 7010            00010  2189                       LA    R7,@R7+16           Skip past memory prefix
                                    2190
 0001E4 4110 82BA/4DE0_      0038C  2191                       XTRACE TRCP
 0001EC 4780 812A            001FC  2201                       IF    NZ,BEGIN
 USING  TRC,R15                     2212  1                      WITH  (TRC,R15)
 0001F0 5070 F008            00008  2225  1                      ST    R7,TRCADDR          Memory addr
 0001F4 5090 F00C            0000C  2226  1                      ST    R9,TRCRTN           Caller's addr
 0001F8 92C7 F008      00008        2227  1                      MVI   TRCTYPE,C'G'        G = getcore
 DROP   TRC,R15                     2228                       END
                                    2237
 0001FC 1817                        2238                       LR    R1,R7
 0001FE 1806                        2239                       LR    R0,R6
 000200 4B00 82F8            003CA  2240                       SH    R0,=H'32'
 000204 1BFF                        2241                       CLEAR R15                 (Neatness)
 000206 41D0 D034/982B_      00034  2245                       PEND
 DROP   NCOREWA-@@,R13
 DROP   *,R8
1MALT     (MALT2047) (12:36) (15MAR04) Memory Allocation Routines                                                           Page   10
0Current Usings:  (CV,R12)
0Loc    Object Code    Addr1 Addr2  Stmt Lv Lineno    Source Statement           (Hibal 5, Asmedit 3.3)  HLASM R4.0  2004/03/15 12.36
+___    ______ ____    _____ _____  ____ __ ______    ______ _________
0                                   2272              ¿þþþþþþþþþþþþþþþþþþþþþþþþþþþþþþþþþþþþþþþþþþþþþþþþþþþþþþþþþþþþþþþþþþþþþÜ
                                    2273              Ÿ                                                                     Ÿ
                                    2274              Ÿ  FREECORE -- Routine to release memory.                             Ÿ
                                    2275              Ÿ    (Note: This routine can also be called from a subtask.)          Ÿ
                                    2276              Ÿ                                                                     Ÿ
                                    2277              Ÿ    On entry:                                                        Ÿ
                                    2278              Ÿ      R1 - address of memory being released                          Ÿ
                                    2279              Ÿ                                                                     Ÿ
                                                      ¾þþþþþþþþþþþþþþþþþþþþþþþþþþþþþþþþþþþþþþþþþþþþþþþþþþþþþþþþþþþþþþþþþþþþþ»
000021A 50E0 D044/902B_      00044  2280              FREECORE XPROC
 USING  *,R8
 000234 18FE                        2318                       LR    R15,RAR
 000236 58E0 8194/0DEE       003B8  2319                       VCALL NFRECORE
 00023C 1B00/1B11/1BFF              2323                       CLEAR R0,R1,R15           (Neatness)
 000242 41D0 D030/982B_      00030  2331                       PEND
 DROP   *,R8
1MALT     (MALT2047) (12:36) (15MAR04) Memory Allocation Routines                                                           Page   11
0Current Usings:  (CV,R12)
0Loc    Object Code    Addr1 Addr2  Stmt Lv Lineno    Source Statement           (Hibal 5, Asmedit 3.3)  HLASM R4.0  2004/03/15 12.36
+___    ______ ____    _____ _____  ____ __ ______    ______ _________
0                                   2352              ¿þþþþþþþþþþþþþþþþþþþþþþþþþþþþþþþþþþþþþþþþþþþþþþþþþþþþþþþþþþþþþþþþþþþþþÜ
                                    2353              Ÿ                                                                     Ÿ
                                    2354              Ÿ  NFRECORE -- Routine to release memory.                             Ÿ
                                    2355              Ÿ    (Note: This routine can also be called from a subtask.)          Ÿ
                                    2356              Ÿ                                                                     Ÿ
                                    2357              Ÿ    On entry:                                                        Ÿ
                                    2358              Ÿ      R1 - address of memory being released                          Ÿ
                                    2359              Ÿ      R15 - address of caller (for tracing)                          Ÿ
                                    2360              Ÿ                                                                     Ÿ
                                                      ¾þþþþþþþþþþþþþþþþþþþþþþþþþþþþþþþþþþþþþþþþþþþþþþþþþþþþþþþþþþþþþþþþþþþþþ»
0000256 50E0 D044/902B_      00044  2361              NFRECORE XPROC ,
 USING  *,R8
 000270 189F                        2399                       LR    R9,R15              Save caller for tracing
                                    2400
 000272 1871                        2401                       LR    R7,R1
 000274 4B70 816C            003CC  2402                       SH    R7,=H'16'           Backup for prefix
 000278 D503 8150 7000_003B0 00000  2403                       FAIL  (@R7,NE,'MEMS'),'FREECORE error'
 000294 5860 7004            00004  2428                       L     R6,@R7+4            Len
                                    2429
 000298 41F7 6000            00000  2430                       LA    R15,@R6(R7)
 00029C 4BF0 816C            003CC  2431                       SH    R15,=H'16'
 0002A0 D503 8154 F000_003B4 00000  2432                       IF    (@R15,NE,'MEND'),BEGIN
 0002AA D20F C6FC F000 006FC 00000  2448  1                      MVC   CVNIZSAV(16),0(R15)
 0002B0 D503 8154 F000_003B4 00000  2449  1                      FAIL  (@R15,NE,'MEND'),'FREECORE overrun error'
 0002D4                             2474                       END
 0002D4 D203 7000 815C 00000 003BC  2478                       MVC   @R7(4),=C'FRMX'     Tag as free
 0002DA D203 F000 8160 00000 003C0  2479                       MVC   @R15(4),=C'FEND'
 0002E0 5820 700C            0000C  2480                       L     R2,12(,R7)          Get subpool number
 0002E4 47F0 808C/00/0_      002EC  2481                       FREEMAIN RU,A=(R7),LV=(R6),SP=(R2)  Release memory
                                    2494
 0002FC 5820 C484/1222_      00484  2495                       IF    ('LT R2,CVRCLOC',Z),BEGIN  regain reserve...
 000306 0700/47F0 80B4_             2511  1                      GETMAIN RC,LV=CVRCLEN
 000320 12FF/4770 80E2              2525  1                      IF    (R15,NZ),EXIT       Can't, scram
 000326 1831                        2542  1                      LR    R3,R1
 000328 BA23 C484            00484  2543  1                      CS    R2,R3,CVRCLOC       Re-queue reserve
 00032C 4780 80E2            00342  2544  1                      IF    Z,EXIT              A-ok
 000330 47F0 80D8/0000_      00338  2558  1                      FREEMAIN R,A=(R3),LV=CVRCLEN
 000342                             2566                       END
                                    2570
 000342 5820 C5A0            005A0  2571              FREECMLP L     R2,CVMPGCUR         Current no. of bytes allocated
 000346 1832                        2572                       LR    R3,R2
 000348 1B36                        2573                       SR    R3,R6               Deduct amount released
 00034A 4130 3020            00020  2574                       LA    R3,@R3+32           (Not including header)
 00034E BA23 C5A0            005A0  2575                       CS    R2,R3,CVMPGCUR
 000352 4770 80E2            00342  2576                       BNZ   FREECMLP
                                    2577
 000356 4110 812C/4DE0_      0038C  2578                       XTRACE TRCP
 00035E 4780 8112            00372  2588                       IF    NZ,BEGIN
 USING  TRC,R15                     2599  1                      WITH  (TRC,R15)
 000362 4110 7010            00010  2612  1                      LA    R1,@R7+16
 000366 5010 F008            00008  2613  1                      ST    R1,TRCADDR          Memory addr
 00036A 5090 F00C            0000C  2614  1                      ST    R9,TRCRTN           Caller's addr
 00036E 92C6 F008      00008        2615  1                      MVI   TRCTYPE,C'F'        F = freecore
1MALT     (MALT2047) (12:36) (15MAR04) Memory Allocation Routines                                                           Page   12
0Current Usings:  (*,R8) (CV,R12)
0Loc    Object Code    Addr1 Addr2  Stmt Lv Lineno    Source Statement           (Hibal 5, Asmedit 3.3)  HLASM R4.0  2004/03/15 12.36
+___    ______ ____    _____ _____  ____ __ ______    ______ _________
0DROP   TRC,R15                     2616                       END
                                    2625
 000372 1B00/1B11/1BFF              2626                       CLEAR R0,R1,R15           (Neatness)
 000378 41D0 D030/982B_      00030  2634                       PEND
 DROP   *,R8
1MALT     (MALT2047) (12:36) (15MAR04) Memory Allocation Routines                                                           Page   13
0Current Usings:  (CV,R12)
0Loc    Object Code    Addr1 Addr2  Stmt Lv Lineno    Source Statement           (Hibal 5, Asmedit 3.3)  HLASM R4.0  2004/03/15 12.36
+___    ______ ____    _____ _____  ____ __ ______    ______ _________
0                                   2655              *
                                    2656              *  trace table ptrs...
 00038C 0000000000000000            2657              TRCP     DC    4A(0)               Trace ptrs: len,cur,first,end
                                    2658                       QLTORG
1MALT     (MALT2047) (12:36) (15MAR04) Memory Allocation Routines                                                           Page   14
0Current Usings:  (CV,R12)
0Loc    Object Code    Addr1 Addr2  Stmt Lv Lineno    Source Statement           (Hibal 5, Asmedit 3.3)  HLASM R4.0  2004/03/15 12.36
+___    ______ ____    _____ _____  ____ __ ______    ______ _________
0                                   2685              ¿þþþþþþþþþþþþþþþþþþþþþþþþþþþþþþþþþþþþþþþþþþþþþþþþþþþþþþþþþþþþþþþþþþþþþÜ
                                    2686              Ÿ                                                                     Ÿ
                                    2687              Ÿ  GETPOOL -- Get a cell from a pool.                                 Ÿ
                                    2688              Ÿ                                                                     Ÿ
                                    2689              Ÿ    On entry:                                                        Ÿ
                                    2690              Ÿ      R15 - points to cell block.                                    Ÿ
                                    2691              Ÿ                                                                     Ÿ
                                    2692              Ÿ    On exit:                                                         Ÿ
                                    2693              Ÿ      R0 - size of cell                                              Ÿ
                                    2694              Ÿ      R1 - addr of cell                                              Ÿ
                                    2695              Ÿ                                                                     Ÿ
                                    2696              Ÿ    Note: This code is from the IBM ESA/390 Principles               Ÿ
                                    2697              Ÿ          of Operation pg A-48 with embellishments for               Ÿ
                                    2698              Ÿ          counters.                                                  Ÿ
                                    2699              Ÿ                                                                     Ÿ
                                    2700              Ÿ          When we make use of trimming the free list                 Ÿ
                                    2701              Ÿ          back, we'll need to switch to the Perform                  Ÿ
                                    2702              Ÿ          Locked Operation instruction.                              Ÿ
                                    2703              Ÿ                                                                     Ÿ
                                                      ¾þþþþþþþþþþþþþþþþþþþþþþþþþþþþþþþþþþþþþþþþþþþþþþþþþþþþþþþþþþþþþþþþþþþþþ»
00003CE 50E0 D044/902B_      00044  2704              GETPOOL  XPROC
 USING  *,R8
 0003E8 D507 80B8 F000_00490 00000  2742                       FAIL  (@R15,NE,'CELLBLOK'),GETPOOL,'Not a cell block'
 0003FC 186F                        2767                       LR    R6,R15
 USING  CELLBLOK,R6                 2768                       WITH  (CELLBLOK,R6)
 0003FE 9823 6008            00008  2781                       LM    R2,R3,CELFHDR
 000402                             2782              GTPLAGN  LABEL
 000402 1222/4780 8054              2784                       IF    (R2,NZ),BEGIN
 000408 5800 2000            00000  2798  1                      L     R0,0(,R2)
 00040C 1813                        2799  1                      LR    R1,R3               Copy the counter
 00040E BB20 6008            00008  2800  1                      CDS   2,0,CELFHDR         Update the free list
 000412 4770 802A            00402  2801  1                      BNE   GTPLAGN             Try again if update failed
 000416 1812                        2802  1                      LR    R1,R2               Copy address to R1
                                    2803  1           *
                                    2804  1           *  Update the count of free cells
                                    2805  1           *
 000418 4120 0001            00001  2806  1                      LA    R2,1                Update the count of
 00041C 5830 6010            00010  2807  1                      L     R3,CELFCNT            free cells
 000420 1843                        2808  1           GTPUPD0    LR    R4,R3
 000422 1B42                        2809  1                      SR    R4,R2
 000424 BA34 6010            00010  2810  1                      CS    R3,R4,CELFCNT
 000428 4770 8048            00420  2811  1                      BNE   GTPUPD0
 00042C                             2812                       END
                                    2816
 00042C 8058/47F0 808A 0042C 00406  2817                       ELSE  BEGIN
 000430 5800 601C            0001C  2828  1                      L     R0,CELSIZE          Size we need
 000434 5830 6020            00020  2829  1                      L     R3,CELSUBP          and subpool
                                    2831  1                      GETMAIN RU,LV=(0),SP=(R3),LOC=ANY  Get memory
 000438                             2833  1 01-GETMA +           CNOP  0,4
 000438 47F0 8068            00440  2834  1 01-GETMA +           B     IHB0863C           BRANCH AROUND DATA
 00043C 00                          2835  1 01-GETMA +IHB0863F   DC    BL1'00000000'                         Flags.        @L7C
 00043D 00                          2836  1 01-GETMA +           DC    AL1(0)             RESERVED
 00043E 72                          2837  1 01-GETMA +           DC    BL1'01110010'                 MODE BYTE         @G860P30
1MALT     (MALT2047) (12:36) (15MAR04) Memory Allocation Routines                                                           Page   15
0Current Usings:  (CELLBLOK,R6) (*,R8) (CV,R12)
0Loc    Object Code    Addr1 Addr2  Stmt Lv Lineno    Source Statement           (Hibal 5, Asmedit 3.3)  HLASM R4.0  2004/03/15 12.36
+___    ______ ____    _____ _____  ____ __ ______    ______ _________
0000440                             2838  1 01-GETMA +IHB0863C   DS     0H
 000440 18F3                        2839  1 01-GETMA +           LR    15,R3                             OBTAIN SUBPOOL ID
 000442 89F0 0008            00008  2840  1 01-GETMA +           SLL   15,8(0)                    MOVE SUBPOOL TO BYTE 2 YM1995
 000446 BFFD 8064            0043C  2841  1 01-GETMA +           ICM   15,13,IHB0863F                    ADD REMAINING PARMS
 00044A 1B11                        2842  1 01-GETMA +           SR    1,1                     ZERO RESERVED REG 1
 00044C 0A78                        2843  1 01-GETMA +           SVC   120                     ISSUE GETMAIN SVC
 00044E 4120 0001            00001  2845  1                      LA    R2,1                Update the count of
 000452 5830 6018            00018  2846  1                      L     R3,CEL#GET            GETMAINs
 000456 1843                        2847  1           GTPUPD1    LR    R4,R3
 000458 1A42                        2848  1                      AR    R4,R2
 00045A BA34 6018            00018  2849  1                      CS    R3,R4,CEL#GET
 00045E 4770 807E            00456  2850  1                      BNE   GTPUPD1
 000462                             2851                       END
                                    2855              *
                                    2856              * Update the count of GETs for this pool
                                    2857              *
 000462 4120 0001            00001  2858                       LA    R2,1                Update the count of
 000466 5830 6014            00014  2859                       L     R3,CEL#REQ            requests
 00046A 1843                        2860              GTPUPD2  LR    R4,R3
 00046C 1A42                        2861                       AR    R4,R2
 00046E BA34 6014            00014  2862                       CS    R3,R4,CEL#REQ
 000472 4770 8092            0046A  2863                       BNE   GTPUPD2
                                    2864
 000476 5800 601C            0001C  2865                       L     R0,CELSIZE
 00047A 41D0 D030/982B_      00030  2866                       PEND
 DROP   CELLBLOK,R6
 DROP   *,R8
                                    2891                       QLTORG ,
1MALT     (MALT2047) (12:36) (15MAR04) Memory Allocation Routines                                                           Page   16
0Current Usings:  (CV,R12)
0Loc    Object Code    Addr1 Addr2  Stmt Lv Lineno    Source Statement           (Hibal 5, Asmedit 3.3)  HLASM R4.0  2004/03/15 12.36
+___    ______ ____    _____ _____  ____ __ ______    ______ _________
0                                   2906              ¿þþþþþþþþþþþþþþþþþþþþþþþþþþþþþþþþþþþþþþþþþþþþþþþþþþþþþþþþþþþþþþþþþþþþþÜ
                                    2907              Ÿ                                                                     Ÿ
                                    2908              Ÿ  FREEPOOL -- Release cell                                           Ÿ
                                    2909              Ÿ                                                                     Ÿ
                                    2910              Ÿ    On entry:                                                        Ÿ
                                    2911              Ÿ      R1  - address of cell being released                           Ÿ
                                    2912              Ÿ      R15 - address of cell block                                    Ÿ
                                    2913              Ÿ                                                                     Ÿ
                                    2914              Ÿ    Note: This code is from the IBM ESA/390 Principles               Ÿ
                                    2915              Ÿ          of Operation pg A-48 with embellishments for               Ÿ
                                    2916              Ÿ          counters.                                                  Ÿ
                                    2917              Ÿ                                                                     Ÿ
                                    2918              Ÿ          When we make use of trimming the free list                 Ÿ
                                    2919              Ÿ          back, we'll need to switch to the Perform                  Ÿ
                                    2920              Ÿ          Locked Operation instruction.                              Ÿ
                                    2921              Ÿ                                                                     Ÿ
                                                      ¾þþþþþþþþþþþþþþþþþþþþþþþþþþþþþþþþþþþþþþþþþþþþþþþþþþþþþþþþþþþþþþþþþþþþþ»
000049A 50E0 D044/902B_      00044  2922              FREEPOOL XPROC
 USING  *,R8
 0004B4 D507 806C F000_00510 00000  2960                       FAIL  (@R15,NE,'CELLBLOK'),FREEPOOL,'Not a cell block'
 0004CA 186F                        2985                       LR    R6,R15
 USING  CELLBLOK,R6                 2986                       WITH  (CELLBLOK,R6)
 0004CC 1821                        2999                       LR    R2,R1               Copy address
 0004CE 9801 6008            00008  3000                       LM    R0,R1,CELFHDR
 0004D2 5000 2000            00000  3001              FREEAGN  ST    R0,0(,R2)           Link element to list head
 0004D6 1831                        3002                       LR    R3,R1
 0004D8 0630                        3003                       BCTR  R3,0                Decrement header counter
 0004DA BB02 6008            00008  3004                       CDS   0,2,CELFHDR         Put at head of list
 0004DE 4770 802E            004D2  3005                       BNE   FREEAGN             Try again if failed
                                    3006              *
                                    3007              *  Update the count of free cells
                                    3008              *
 0004E2 4120 0001            00001  3009                       LA    R2,1                Update the count of
 0004E6 5830 6010            00010  3010                       L     R3,CELFCNT            free cells
 0004EA 1843                        3011              FREEUPD0 LR    R4,R3
 0004EC 1A42                        3012                       AR    R4,R2
 0004EE BA34 6010            00010  3013                       CS    R3,R4,CELFCNT
 0004F2 4770 8046            004EA  3014                       BNE   FREEUPD0
                                    3015
 0004F6 41D0 D030/982B_      00030  3016                       PEND
 DROP   CELLBLOK,R6
 DROP   *,R8
                                    3041                       QLTORG ,
1MALT     (MALT2047) (12:36) (15MAR04) Memory Allocation Routines                                                           Page   17
0Current Usings:  (CV,R12)
0Loc    Object Code    Addr1 Addr2  Stmt Lv Lineno    Source Statement           (Hibal 5, Asmedit 3.3)  HLASM R4.0  2004/03/15 12.36
+___    ______ ____    _____ _____  ____ __ ______    ______ _________
0                                   3056              ¿þþþþþþþþþþþþþþþþþþþþþþþþþþþþþþþþþþþþþþþþþþþþþþþþþþþþþþþþþþþþþþþþþþþþþÜ
                                    3057              Ÿ                                                                     Ÿ
                                    3058              Ÿ  COREFMT -- Routine to do control block formatting.                 Ÿ
                                    3059              Ÿ                                                                     Ÿ
                                    3060              Ÿ    On entry:                                                        Ÿ
                                    3061              Ÿ      R15 - SEGCB ptr                                                Ÿ
                                    3062              Ÿ                                                                     Ÿ
                                                      ¾þþþþþþþþþþþþþþþþþþþþþþþþþþþþþþþþþþþþþþþþþþþþþþþþþþþþþþþþþþþþþþþþþþþþþ»
000051A 50E0 D044/902B_      00044  3063              COREFMT  XPROC
 USING  *,R8
 000534 187F                        3101                       LR    R7,R15              Segcb ptr
 USING  SEGCB,R7                    3102                       WITH  (SEGCB,R7)          ##
                                    3115                       SEGDEF (R7)
                                    3116
 000536 4110 825E/4100_      00782  3117                       SEGWR 'Memory allocation:'
 000546 4110 C141/4100_      00141  3133                       SEGWR CVBLANKS,1
                                    3161
 000556 5810 C588/1B00_      00588  3162                       SEGDC L:CVMNLOWM
 000564 4110 8234/4100_      00758  3181                       SEGB  ' low memory,'
 000574 5810 C58C/1B00_      0058C  3197                       SEGDC L:CVMNNOM
 000582 4110 8270/4100_      00794  3216                       SEGWR ' no memory'
 000592 4110 C141/4100_      00141  3232                       SEGWR CVBLANKS,1
                                    3260
 0005A2 4110 8204/4100_      00728  3261                       SEGB  'Buffers:'
 0005B2 1BEE                        3277                       CLEAR R14
 0005B4 58F0 C5A0            005A0  3281                       L     R15,CVMPGCUR
 0005B8 41F0 F200            00200  3282                       LA    R15,@R15+512
 0005BC 5DE0 8244            00768  3283                       D     R14,=F'1024'
 0005C0 181F/4100 0003_             3284                       SEGDC (R15),3
 0005CE 4110 827C/4100_      007A0  3306                       SEG   'K paged ('
 0005DE 1BEE                        3321                       CLEAR R14
 0005E0 58F0 C5A4            005A4  3325                       L     R15,CVMPGMAX
 0005E4 41F0 F200            00200  3326                       LA    R15,@R15+512
 0005E8 5DE0 8244            00768  3327                       D     R14,=F'1024'
 0005EC 181F/4100 0003_             3328                       SEGDC (R15),3
 0005FA 4110 8285/4100_      007A9  3350                       SEGB  'K max),'
 00060A 5810 C59C/4100_      0059C  3366                       SEGDC L:CVMPGCNT,6
 00061A 4110 828C/4100_      007B0  3388                       SEGWR ' requests'
                                    3404
 00062A 4110 C141/4100_      00141  3405                       SEGWR CVBLANKS,2
 00063A 4110 C141/4100_      00141  3433                       SEGWR CVBLANKS,2
 00064A 4110 8295/4100_      007B9  3461                       SEGWR 'Memory trace table:'
 00065A 58F0 824C            00770  3477                       L     R15,=A(TRCP)
 00065E 9836 F000            00000  3478                       LM    R3,R6,@R15          R3=len, r4=next, r5=first, r6=end
 000662                             3479                       LOOP  BEGIN
 000662 1B43                        3485  1                      SR    R4,R3               Back up
 000664 1945/47B0 814A_             3486  1                      IF    (R4,LT,R5),'LR R4,R6; SR R4,R3'  last
 USING  TRC,R4                      3508  1                      WITH  (TRC,R4)            ##
 00066E D607 4000 4000_00000 00000  3521  1                      IF    (TRCCLCK,Z),EXIT    All done
 000678 9801 4000            00000  3540  1                      LM    R0,R1,TRCCLCK
 00067C 4BD0 827A/BED7_      0079E  3541  1                      PUSH  11,PTR=R15          l'hh:mm:ss.hh
 00068C 58E0 8250/0DEE       00774  3548  1                      VCALL FMTTIME
 000692 18F7/58E0 8240_             3552  1                      SEGB  (R1),(R0)
1MALT     (MALT2047) (12:36) (15MAR04) Memory Allocation Routines                                                           Page   18
0Current Usings:  (TRC,R4) (SEGCB,R7) (*,R8) (CV,R12)
0Loc    Object Code    Addr1 Addr2  Stmt Lv Lineno    Source Statement           (Hibal 5, Asmedit 3.3)  HLASM R4.0  2004/03/15 12.36
+___    ______ ____    _____ _____  ____ __ ______    ______ _________
000069A 41D0 D010/50D0_      00010  3574  1                      POP   11
 0006A2 4110 820C/4100_      00730  3579  1                      SETMSG '????????'
 0006AA 95C7 4008/4770_00008        3583  1                      IF    (TRCTYPE,EQ,'G'),'LA R1,=C"GETCORE "'
 0006B6 95C6 4008/4770_00008        3606  1                      IF    (TRCTYPE,EQ,'F'),'LA R1,=C"FREECORE"'
 0006C2 18F7/58E0 8240_             3629  1                      SEGB  (R1),(R0)
 0006CA 5810 4008/4100_      00008  3651  1                      SEGHX L:TRCADDR,8
 0006DA 4110 8224/4100_      00748  3673  1                      SEG   ' caller='
 0006EA 5810 400C            0000C  3688  1                      L     R1,TRCRTN
 0006EE 41F0 7000            00000  3689  1                      LA    R15,SEGCB
 0006F2 58E0 8258/0DEE       0077C  3690  1                      VCALL SEGPSW
                                    3694  1
 0006F8 1B00/18F7/58E0_             3695  1                      SEGWR
 000702 58F0 824C            00770  3717  1                      L     R15,=A(TRCP)
 000706 5940 F004            00004  3718  1                      C     R4,@R15+4
 00070A 4770 813E            00662  3719                       UNTIL EQ,END
 DROP   TRC,R4
                                    3743
 00070E 41D0 D030/982B_      00030  3744                       PEND
 DROP   SEGCB,R7
 DROP   *,R8
                                    3769
 000728                             3770                       END   .
 000728 C2A486868599A27A            3773                             =C'Buffers:'
 000730 6F6F6F6F6F6F6F6F            3774                             =C'????????'
 000738 C7C5E3C3D6D9C540            3775                             =C'GETCORE '
 000740 C6D9C5C5C3D6D9C5            3776                             =C'FREECORE'
 000748 408381939385997E            3777                             =C' caller='
 000750 00000000                    3778                             =V(SEGWR)
 000754 00000000                    3779                             =V(SEGDC)
 000758 409396A640948594            3780                             =C' low memory,'
 000764 00000000                    3781                             =V(SEGB)
 000768 00000400                    3782                             =F'1024'
 00076C 00000000                    3783                             =V(SEG)
 000770 0000038C                    3784                             =A(TRCP)
 000774 00000000                    3785                             =V(FMTTIME)
 000778 00000000                    3786                             =V(SEGHX)
 00077C 00000000                    3787                             =V(SEGPSW)
 000780 0030                        3788                             =Y(0+4+40+4)
 000782 D485949699A84081            3789                             =C'Memory allocation:'
 000794 4095964094859496            3790                             =C' no memory'
 00079E 0010                        3791                             =Y(0+((11+3)/4*4)+4)
 0007A0 D240978187858440            3792                             =C'K paged ('
 0007A9 D2409481A75D6B              3793                             =C'K max),'
 0007B0 40998598A485A2A3            3794                             =C' requests'
 0007B9 D485949699A840A3            3795                             =C'Memory trace table:'

1MALT     (MALT2047) (12:36) (15MAR04) Relocation Dictionary                                                                Page   19
-   Pos.Id   Rel.Id   Flags    Address                                                       HLASM R4.0  2004/03/15 12.36
0  00000001 00000001    0C    000003A4
   00000001 00000001    0C    00000770
   00000001 00000002    1C    000003A0
   00000001 00000003    1C    000003B8
   00000001 00000004    1C    00000750
   00000001 00000005    1C    00000754
   00000001 00000006    1C    00000764
   00000001 00000007    1C    0000076C
   00000001 00000008    1C    00000774
   00000001 00000009    1C    00000778
   00000001 0000000A    1C    0000077C

1MALT     (MALT2047) (12:36) (15MAR04) Ordinary Symbol and Literal Cross Reference                                          Page   20
-Symbol   Length   Value     Id    R Type   Defn References                                  HLASM R4.0  2004/03/15 12.36
0$$$@R10       1 00000000 FFFFFFF4     J     842 1050
 $$$@R11       1 00000000 FFFFFFF3     J     855 1063  1075
 $$$@R12       1 00000000 FFFFFFF2     J     868 1088
 $$$@R13       1 00000000 FFFFFFF1     J     881 1101  1105  1108  1110  1111
 $$$@R14       1 00000000 FFFFFFF0     J     894 1123
 $$$@R2        1 00000000 FFFFFFFC     J     738 1024
 $$$@R8        1 00000000 FFFFFFF6     J     816 1037
 $$$C1MILMALT
               1 000003CE 00000001     J    2679 2681
 $$$C2MILMALT
               1 0000049A 00000001     J    2900 2902
 $$$C3MILMALT
               1 0000051A 00000001     J    3050 3052
 $$$C4MILMALT
               1 000007CC 00000001     J    3796 3798
 $$$FAIL26
               1 0000010B 00000001     U    2063 2061
 $$$FAIL30
               1 00000184 00000001     U    2147 2145
 $$$FAIL39
               1 00000293 00000001     U    2423 2421
 $$$FAIL42
               1 000002D3 00000001     U    2469 2467
 $$$FAIL51
               1 000003FC 00000001     U    2762 2760
 $$$FAIL58
               1 000004C9 00000001     U    2980 2978
 $$$RCELLBLOK
               1 00000000 FFFFFFED     J    1605 1628  1628
 $$$RNCOREWA
               1 00000000 FFFFFFEA     J    1960 1973  1973
 $$$RSEGCB
               1 00000000 FFFFFFEC     J    1634 1734  1734
 $$$RTRC       1 00000000 FFFFFFEB     J    1747 1765  1765
 $$$SEGCB2
               4 000005D4 FFFFFFEE     F    1481 1567  1567
 $$$19B        1 00000022 00000001     X    1791 1798U
 $$$20         1 0000002C 00000001 A   U    1860 1854  1857  1859
 $$$22B        1 0000009A 00000001     X    1895 1902U
 $$$23         1 0000002C 00000001 A   U    1938 1932  1935  1937
 $$$25B        1 000000D2 00000001     X    1996 2003U
 $$$27F        2 0000010C 00000001     H    2067 2056B
 $$$27T        2 000000F6 00000001     H    2059 2044B
 $$$29F        2 000001B2 00000001     H    2176 2124B
 $$$31F        2 00000184 00000001     H    2151 2140B
 $$$32F        2 000001FC 00000001     H    2236 2207B
 $$$33         1 00000030 00000001 A   U    2267 2260  2264  2266
 $$$35B        1 00000224 00000001     X    2297 2304U
 $$$36         1 0000002C 00000001 A   U    2347 2341  2344  2346
 $$$38B        1 00000260 00000001     X    2378 2385U
 $$$40F        2 00000294 00000001     H    2427 2416B
 $$$41F        2 000002D4 00000001     H    2477 2443B
 $$$43F        2 000002D4 00000001     H    2473 2462B
 $$$44F        2 00000342 00000001     H    2569 2506B 2536B 2552B
 $$$47F        2 00000372 00000001     H    2624 2594B
1MALT     (MALT2047) (12:36) (15MAR04) Ordinary Symbol and Literal Cross Reference                                          Page   21
 $$$48         1 0000002C 00000001 A   U    2650 2644  2647  2649
 $$$50B        1 000003D8 00000001     X    2721 2728U
 $$$52F        2 000003FC 00000001     H    2766 2755B
 $$$53B        4 00000404 00000001     I    2793 2819
 $$$53F        2 0000042C 00000001     H    2815 2793B 2818
 $$$54E        2 00000430 00000001     H    2826 2820
 $$$54F        2 00000462 00000001     H    2854 2822B
 $$$55         1 0000002C 00000001 A   U    2887 2881  2884  2886
 $$$57B        1 000004A4 00000001     X    2939 2946U
 $$$59F        2 000004CA 00000001     H    2984 2973B
 $$$60         1 0000002C 00000001 A   U    3037 3031  3034  3036
 $$$62B        1 00000524 00000001     X    3080 3087U
 $$$63F        2 0000070E 00000001     H    3735 3534B
 $$$63S        2 00000662 00000001     H    3483 3732B
 $$$64F        2 0000066E 00000001     H    3507 3496B
 $$$66         1 0000000C 00000001 A   U    3577 3575
 $$$67F        2 000006B6 00000001     H    3605 3595B
 $$$68F        2 000006C2 00000001     H    3628 3618B
 $$$71         1 0000002C 00000001 A   U    3765 3759  3762  3764
 @@            1 0000004C FFFFFFF1 A   U    1108 2022
 @NSP          4 00000048 FFFFFFF1     A    1107 1783M 1786M 1804M 1805M 1806M 1857  1859  1861M 1887M 1890M 1908M 1909M
                                                 1910M 1935  1937  1939M 1987M 1990M 2009M 2010M 2011M 2264  2266  2268M
                                                 2289M 2292M 2310M 2311M 2312M 2344  2346  2348M 2370M 2373M 2391M 2392M
                                                 2393M 2647  2649  2651M 2713M 2716M 2734M 2735M 2736M 2884  2886  2888M
                                                 2931M 2934M 2952M 2953M 2954M 3034  3036  3038M 3072M 3075M 3093M 3094M
                                                 3095M 3545M 3546M 3578M 3762  3764  3766M
 @R0           0 00000000 FFFFFFFE     @     713  989U
 @R1           0 00000000 FFFFFFFD     @     726  985U 1576  1580  1581  1583  1584M
 @R10          0 00000000 FFFFFFF4     @     843  949U
 @R11          0 00000000 FFFFFFF3     @     856  945U
 @R12          0 00000000 FFFFFFF2     @     869  941U
 @R13          0 00000000 FFFFFFF1     @     882  937U 2251U
 @R14          0 00000000 FFFFFFF0     @     895  933U
 @R15          0 00000000 FFFFFFEF     @     908  929U 1586M 2187M 2233U 2442  2461  2479M 2621U 2754  2972  3282  3326
                                                 3478  3718
 @R2           0 00000000 FFFFFFFC     @     739  981U
 @R3           0 00000000 FFFFFFFB     @     752  977U 2100U 2574
 @R4           0 00000000 FFFFFFFA     @     765  973U 3741U
 @R5           0 00000000 FFFFFFF9     @     778  969U
 @R6           0 00000000 FFFFFFF8     @     791  965U 2184  2430  2872U 3022U
 @R7           0 00000000 FFFFFFF7     @     804  961U 2179  2180M 2181M 2182M 2189  2415  2428  2478M 2612  3750U
 @R8           0 00000000 FFFFFFF6     @     817  957U 1850U 1928U 2256U 2337U 2640U 2877U 3027U 3755U
 @R9           0 00000000 FFFFFFF5     @     830  953U
 @SPR          0 00000000 FFFFFFF1     @    1102 1783M 1786M 1804M 1805M 1806M 1857  1859  1861M 1887M 1890M 1908M 1909M
                                                 1910M 1935  1937  1939M 1987M 1990M 2009M 2010M 2011M 2264  2266  2268M
                                                 2289M 2292M 2310M 2311M 2312M 2344  2346  2348M 2370M 2373M 2391M 2392M
                                                 2393M 2647  2649  2651M 2713M 2716M 2734M 2735M 2736M 2884  2886  2888M
                                                 2931M 2934M 2952M 2953M 2954M 3034  3036  3038M 3072M 3075M 3093M 3094M
                                                 3095M 3545M 3546M 3547  3578M 3762  3764  3766M
 @WA           1 0000004C FFFFFFF1     U    1109 3547
 ASCTBL        1 00000000 00000000 A   T    1400 1400
 BLTBL         1 00000000 00000000 A   T    1402 1402
 BR            8 00000008 00000001 A   #    1031 1787M 1798U 1891M 1902U 1992M 2003U 2293M 2304U 2374M 2385U 2717M 2728U
                                                 2935M 2946U 3076M 3087U
 CEL#GET       4 00000018 FFFFFFED     F    1617 2846  2849M
 CEL#REQ       4 00000014 FFFFFFED     F    1616 2859  2862M
 CELFCNT       4 00000010 FFFFFFED     F    1615 2807  2810M 3010  3013M
 CELFHDR       4 00000008 FFFFFFED     A    1614 2781  2800M 3000  3004M
 CELLBLOK     40 00000000 FFFFFFED     J    1628 2777U 2995U
1MALT     (MALT2047) (12:36) (15MAR04) Ordinary Symbol and Literal Cross Reference                                          Page   22
 CELSIZE       4 0000001C FFFFFFED     F    1618 2828  2865
 CELSUBP       4 00000020 FFFFFFED     F    1619 2829
 COREFMT       2 0000051A 00000001     H    3068 3064
 COREINIT      2 00000018 00000001     H    1779 1775
 CV         1912 00000000 FFFFFFEE     X    1601 1150U
 CVBLANKS    256 00000141 FFFFFFEE     C    1302 3143  3242  3415  3443
 CVCURFEB      4 00000750 FFFFFFEE     A    1592 1599  1599
 CVDSECT       1 00000000 FFFFFFEE     J    1137 1629  1735
 CVECB         4 00000038 FFFFFFEE     A    1167 1164
 CVFLAG        1 0000013C FFFFFFEE     R    1227 1231  1236  1241  1246  1251  1256  1261  1266
 CVFLAG2       1 0000013D FFFFFFEE     R    1272 1276  1281  1286  1291
 CVKSCB#       1 00000032 FFFFFFEE A   N    1190 1191  1192
 CVMACH        1 0000013B FFFFFFEE     R    1202 1211  1221
 CVMFLAG       1 0000051C FFFFFFEE     R    1418 1422
 CVMNLOWM      4 00000588 FFFFFFEE     F    1449 2170  2171M 3166
 CVMNNOM       4 0000058C FFFFFFEE     F    1450 3201
 CVMPGCNT      4 0000059C FFFFFFEE     F    1456 2073  2076M 3370
 CVMPGCUR      4 000005A0 FFFFFFEE     F    1457 2078  2088M 2571  2575M 3281
 CVMPGMAX      4 000005A4 FFFFFFEE     F    1458 3325
 CVMSTART      8 000004B8 FFFFFFEE     D    1409 1463  1463
 CVNIZSAV     40 000006FC FFFFFFEE     X    1572 2448M
 CVR          12 0000000C 00000001 A   #    1082 1150U
 CVRCLEN       1 0000C000 FFFFFFEE A   U    1387 1816  1823  1832  2162  2515  2562
 CVRCLOC       4 00000484 FFFFFFEE     A    1388 1835M 2093  2156M 2504  2543M
 CVSCNCB       4 000005B4 FFFFFFEE     F    1467 1478
 CVSTART       4 00000000 FFFFFFEE     C    1160 1601  1601
 CVTRCRTN      4 00000724 FFFFFFEE     I    1576 1585B 2200B 2587B
 CVWSGBUF    235 00000610 FFFFFFEE     C    1569 1557  1563
 CVWSGCOD      1 000005D4 FFFFFFEE     R    1484 1493  1503  1513  1523  1533  1543  1553
 CVWSGUSR      4 0000060C FFFFFFEE     A    1566 1568
 EBCTBL        1 00000000 00000000 A   T    1401 1401
 EBCTBL7       1 00000000 00000000 A   T    1404 1404
 EPARTBL       1 00000000 00000000 A   T    1396 1396
 FMTTIME       1 00000000 00000008     T    3785 3785
 FREEAGN       4 000004D2 00000001     I    3001 3005B
 FREECMLP      4 00000342 00000001     I    2571 2576B
 FREECORE      2 0000021A 00000001     H    2285 2281
 FREEPOOL      2 0000049A 00000001     H    2927 2923
 FREEUPD0      2 000004EA 00000001     I    3011 3014B
 FSR           2 00000002 00000001 A   #    1018 1786  1806  1857M 1890  1910  1935M 1990  2011  2264M 2292  2312  2344M
                                                 2373  2393  2647M 2716  2736  2884M 2934  2954  3034M 3075  3095  3762M
 GETCORE       2 00000090 00000001     H    1883 1879
 GETPOOL       2 000003CE 00000001     H    2709 2705
 GETTRC        1 00000000 00000002     T    2665 2665
 GTPLAGN       2 00000402 00000001     H    2783 2801B
 GTPUPD0       2 00000420 00000001     I    2808 2811B
 GTPUPD1       2 00000456 00000001     I    2847 2850B
 GTPUPD2       2 0000046A 00000001     I    2860 2863B
 HIBAL         1 00000000 FFFFFFFF     J     698  714   727   740   753   766   779   792   805   818   831   844   857
                                                  870   883   896   909
 IHB0505C      2 00000158 00000001     H    2108 2104B
 IHB0505F      1 00000154 00000001     B    2105 2112
 IHB0700F      1 000002E8 00000001     B    2485 2492
 IHB0712C      2 00000314 00000001     H    2520 2514B
 IHB0712F      1 00000310 00000001     B    2516 2522
 IHB0712L      4 0000030C 00000001     A    2515 2521
 IHB0863C      2 00000440 00000001     H    2838 2834B
 IHB0863F      1 0000043C 00000001     B    2835 2841
 LOWTBL        1 00000000 00000000 A   T    1399 1399
1MALT     (MALT2047) (12:36) (15MAR04) Ordinary Symbol and Literal Cross Reference                                          Page   23
 LSR          11 0000000B 00000001 A   #    1069 1786  1806  1857M 1890  1910  1935M 1990  2011  2264M 2292  2312  2344M
                                                 2373  2393  2647M 2716  2736  2884M 2934  2954  3034M 3075  3095  3762M
 MALT2047      1 00000000 00000001     R    1008 1006
 MILMALT       1 00000000 00000001     J     999 1001  1026  1039  1052  1065  1077  1090  1112  1125  1740  1766  1974
 NBLTBL        1 00000000 00000000 A   T    1403 1403
 NCORESP       4 00000000 FFFFFFEA     F    1966 2027M 2099  2183
 NCOREWA       4 00000000 FFFFFFEA     J    1973 2009M 2022U 2264  2266  2267  2675
 NFRECORE      2 00000256 00000001     H    2366 2362
 NFRECORE      1 00000000 00000003     T    2671 2671
 NGETCLP       4 00000146 00000001     I    2093 2157B 2172B
 NGETCMLP      4 00000128 00000001     I    2078 2089B
 NGETCORE      2 000000C8 00000001     H    1982 1978  2666
 NPARTBL       1 00000000 00000000 A   T    1397 1397
 RAR          14 0000000E 00000001 A   #    1117 1578B 1588B 1783  1842M 1843M 1843B 1859M 1863B 1887  1916  1920M 1921M
                                                 1921B 1937M 1941B 1987  2200M 2266M 2270B 2289  2318  2321M 2322M 2322B
                                                 2346M 2350B 2370  2587M 2649M 2653B 2713  2886M 2890B 2931  3036M 3040B
                                                 3072  3131M 3132M 3132B 3159M 3160M 3160B 3179M 3180M 3180B 3195M 3196M
                                                 3196B 3214M 3215M 3215B 3230M 3231M 3231B 3258M 3259M 3259B 3275M 3276M
                                                 3276B 3304M 3305M 3305B 3319M 3320M 3320B 3348M 3349M 3349B 3364M 3365M
                                                 3365B 3386M 3387M 3387B 3402M 3403M 3403B 3431M 3432M 3432B 3459M 3460M
                                                 3460B 3475M 3476M 3476B 3550M 3551M 3551B 3572M 3573M 3573B 3649M 3650M
                                                 3650B 3671M 3672M 3672B 3686M 3687M 3687B 3692M 3693M 3693B 3715M 3716M
                                                 3716B 3764M 3768B
 R0            0 00000000 FFFFFFFF A   #     706 1579M 1580M 1581  1583M 1584  1837M 2041M 2041  2055  2068  2239M 2240M
                                                 2326M 2326  2629M 2629  2798M 2828M 2865M 3000M 3001  3122M 3150M 3170M
                                                 3170  3186M 3205M 3205  3221M 3249M 3266M 3295M 3310M 3339M 3355M 3377M
                                                 3393M 3422M 3450M 3466M 3540M 3582M 3662M 3677M 3706M 3706
 R1            1 00000001 FFFFFFFF A   #     719 1835  1838M 1917M 1917  2027  2178  2198M 2238M 2328M 2328  2401  2542
                                                 2585M 2612M 2613  2631M 2631  2799M 2802M 2999  3000M 3002  3121M 3143M
                                                 3166M 3185M 3201M 3220M 3242M 3265M 3288M 3309M 3332M 3354M 3370M 3392M
                                                 3415M 3443M 3465M 3540M 3581M 3601M 3624M 3655M 3676M 3688M
 R13          13 0000000D FFFFFFFF A   #     875 2022U
 R14          14 0000000E FFFFFFFF A   #     888 3280M 3280  3283M 3324M 3324  3327M
 R15          15 0000000F FFFFFFFF A   #     901 1576M 1577M 1577  1579  1584M 1587M 1587  1839M 1862M 1862  1940M 1940
                                                 2123M 2123  2155M 2155  2156  2169M 2170M 2171  2184M 2185M 2186  2186
                                                 2221U 2244M 2244  2269M 2269  2318M 2330M 2330  2349M 2349  2399  2430M
                                                 2431M 2448  2533M 2533  2608U 2633M 2633  2652M 2652  2767  2889M 2889
                                                 2985  3039M 3039  3101  3128M 3156M 3176M 3192M 3211M 3227M 3255M 3272M
                                                 3281M 3282M 3288  3301M 3316M 3325M 3326M 3332  3345M 3361M 3383M 3399M
                                                 3428M 3456M 3472M 3477M 3547M 3569M 3646M 3668M 3683M 3689M 3712M 3717M
                                                 3767M 3767
 R2            2 00000002 FFFFFFFF A   #     732 1916M 2026  2073M 2075  2076M 2078M 2079  2088M 2480M 2490  2504M 2505M
                                                 2505  2543M 2571M 2572  2575M 2781M 2792M 2792  2798  2802  2806M 2809
                                                 2845M 2848  2858M 2861  2999M 3001  3009M 3012
 R3            3 00000003 FFFFFFFF A   #     745 2074M 2075M 2076  2078M 2081  2099M 2110  2542M 2543  2564  2572M 2573M
                                                 2574M 2575  2781M 2799  2807M 2808  2810M 2829M 2839  2846M 2847  2849M
                                                 2859M 2860  2862M 3002M 3003M 3010M 3011  3013M 3478M 3485  3503
 R4            4 00000004 FFFFFFFF A   #     758 2079M 2080M 2085  2087  2088  2808M 2809M 2810  2847M 2848M 2849  2860M
                                                 2861M 2862  3011M 3012M 3013  3485M 3495  3502M 3503M 3517U 3718
 R5            5 00000005 FFFFFFFF A   #     771 2081M 2085  2087M 2093M 2139M 2139  2156M 2164  3495
 R6            6 00000006 FFFFFFFF A   #     784 2068M 2069M 2070M 2080  2091M 2109  2181  2239  2428M 2488  2573  2767M
                                                 2777U 2985M 2995U 3478M 3502
 R7            7 00000007 FFFFFFFF A   #     797 2178M 2179M 2183  2184  2189M 2225  2238  2401M 2402M 2430  2480  2489
                                                 3101M 3111U 3128  3156  3176  3192  3211  3227  3255  3272  3301  3316
                                                 3345  3361  3383  3399  3428  3456  3472  3569  3646  3668  3683  3712
 R9            9 00000009 FFFFFFFF A   #     823 2026M 2182  2226  2399M 2614
 SEG           1 00000000 00000007     T    3783 3783
 SEGB          1 00000000 00000006     T    3781 3781
 SEGCB        60 00000000 FFFFFFEC     J    1734 3111U 3689
1MALT     (MALT2047) (12:36) (15MAR04) Ordinary Symbol and Literal Cross Reference                                          Page   24
 SEGCBCOD      1 00000000 FFFFFFEC     R    1645 1654  1664  1674  1684  1694  1704  1714
 SEGDC         1 00000000 00000005     T    3779 3779
 SEGHX         1 00000000 00000009     T    3786 3786
 SEGPSW        1 00000000 0000000A     T    3787 3787
 SEGWR         1 00000000 00000004     T    3778 3778
 SPR          13 0000000D 00000001 A   #    1095 1783  1786  1802M 1804  1804  1805  1805  1806  1854M 1854  1857  1859
                                                 1861  1861  1887  1890  1906M 1908  1908  1909  1909  1910  1932M 1932
                                                 1935  1937  1939  1939  1987  1990  2007M 2009  2009  2010  2010  2011
                                                 2260M 2260  2264  2266  2268  2268  2289  2292  2308M 2310  2310  2311
                                                 2311  2312  2341M 2341  2344  2346  2348  2348  2370  2373  2389M 2391
                                                 2391  2392  2392  2393  2644M 2644  2647  2649  2651  2651  2713  2716
                                                 2732M 2734  2734  2735  2735  2736  2881M 2881  2884  2886  2888  2888
                                                 2931  2934  2950M 2952  2952  2953  2953  2954  3031M 3031  3034  3036
                                                 3038  3038  3072  3075  3091M 3093  3093  3094  3094  3095  3543M 3545
                                                 3545  3546  3546  3547  3575M 3575  3578  3578  3759M 3759  3762  3764
                                                 3766  3766
 TRC          16 00000000 FFFFFFEB     J    1765 1837  2221U 2608U 3517U
 TRC#          1 00000064 00000001 A   U    1743 1838
 TRCADDR       4 00000008 FFFFFFEB     A    1757 2225M 2613M 3655
 TRCCLCK       8 00000000 FFFFFFEB     D    1753 3531M 3531  3540
 TRCP          4 0000038C 00000001     A    2657 1839  2198  2585  3784
 TRCRTN        4 0000000C FFFFFFEB     A    1758 2226M 2614M 3688
 TRCTYPE       1 00000008 FFFFFFEB     C    1755 2227M 2615M 3594  3617
 UPPTBL        1 00000000 00000000 A   T    1398 1398
 =A(NGETCORE)
               4 000003A4 00000001     A    2666 1920
 =A(TRCP)      4 00000770 00000001     A    3784 3477  3717
 =A(128*1024)
               4 000003A8 00000001     A    2667 2055
 =C' caller='
               8 00000748 00000001     C    3777 3676
 =C' low memory,'
              12 00000758 00000001     C    3780 3185
 =C' no memory'
              10 00000794 00000001     C    3790 3220
 =C' requests'
               9 000007B0 00000001     C    3794 3392
 =C'????????'
               8 00000730 00000001     C    3774 3581
 =C'Buffers:'
               8 00000728 00000001     C    3773 3265
 =C'CELLBLOK'
               8 00000490 00000001     C    2898 2754
 =C'CELLBLOK'
               8 00000510 00000001     C    3048 2972
 =C'FEND'      4 000003C0 00000001     C    2673 2479
 =C'FREECORE'
               8 00000740 00000001     C    3776 3624
 =C'FRMX'      4 000003BC 00000001     C    2672 2478
 =C'GETCORE '
               8 00000738 00000001     C    3775 3601
 =C'K max),'
               7 000007A9 00000001     C    3793 3354
 =C'K paged ('
               9 000007A0 00000001     C    3792 3309
 =C'Memory allocation:'
              18 00000782 00000001     C    3789 3121
 =C'Memory trace table:'
              19 000007B9 00000001     C    3795 3465
1MALT     (MALT2047) (12:36) (15MAR04) Ordinary Symbol and Literal Cross Reference                                          Page   25
 =C'MEMS'      4 000003B0 00000001     C    2669 2180  2415
 =C'MEND'      4 000003B4 00000001     C    2670 2187  2442  2461
 =F'-8'        4 000003AC 00000001     F    2668 2070
 =F'1024'      4 00000768 00000001     F    3782 3283  3327
 =H'16'        2 000003CC 00000001     H    2678 2185  2402  2431
 =H'32'        2 000003CA 00000001     H    2677 2091  2240
 =H'7'         2 000003C8 00000001     H    2676 2069
 =V(FMTTIME)
               4 00000774 00000001     V    3785 3550
 =V(GETTRC)
               4 000003A0 00000001     V    2665 1842
 =V(NFRECORE)
               4 000003B8 00000001     V    2671 2321
 =V(SEG)       4 0000076C 00000001     V    3783 3319  3686
 =V(SEGB)      4 00000764 00000001     V    3781 3195  3275  3364  3572  3649
 =V(SEGDC)
               4 00000754 00000001     V    3779 3179  3214  3304  3348  3386
 =V(SEGHX)
               4 00000778 00000001     V    3786 3671
 =V(SEGPSW)
               4 0000077C 00000001     V    3787 3692
 =V(SEGWR)
               4 00000750 00000001     V    3778 3131  3159  3230  3258  3402  3431  3459  3475  3715
 =Y(0+((11+3)/4*4)+4)
               2 0000079E 00000001     Y    3791 3543
 =Y(0+4+40+((L'NCOREWA+3)/4*4)+4)
               2 000003C6 00000001     Y    2675 2007
 =Y(0+4+40+4)
               2 000003C4 00000001     Y    2674 1802  1906  2308  2389
 =Y(0+4+40+4)
               2 00000498 00000001     Y    2899 2732
 =Y(0+4+40+4)
               2 00000518 00000001     Y    3049 2950
 =Y(0+4+40+4)
               2 00000780 00000001     Y    3788 3091

1MALT     (MALT2047) (12:36) (15MAR04) Macro and Copy Code Source Summary                                                   Page   26
- Con Source                                        Volume    Members                        HLASM R4.0  2004/03/15 12.36
0     PRIMARY INPUT                                           CSECT    DROP     END      EX       LTORG    POP
                                                              PRINT    PUSH     START    USING
   L1 WYL.GS.MIL.MILTEN.MACLIB                      SYSB05    CELLBLOK CV       FAIL     PEND     POP      PROC     PUSH
                                                              REG      SCANCB   STKDEF   XPROC    XTRACE
   L2 WYL.GG.SYS.MACLIB                             SYSB05    $BC      $BFLKUP  $BV      $CCLKUP  $CRS     $CSS     $L
                                                              $LA      $LBLAD   $LEXP    $LOR     $REL     $RGLKUP
                                                              $USLKUP  ACALL    BEGIN    CLEAR    CSECT    DEFCC    DROP
                                                              ELSE     END      EX       FLAG     FLOOR    GEN
                                                              HIBAL    IDENT    IF       INCR     INCRR    LABEL    LC
                                                              LCALL    LOOP     LS       LT       LTORG    PRINT
                                                              QLTORG   RECORD   REGS     SETMSG   START    ST3
                                                              UNTIL    USING    VCALL    WHILE    WITH
   L3 SYS3.IS.MACLIB                                SYSB05    MIB      SEG      SEGB     SEGCB    SEGDC    SEGDEF
                                                              SEGHX    SEGLD    SEGWR    SYSDEFN
   L5 SYS1.MACLIB                                   MVSBR9    FREEMAIN GETMAIN  SYSSTATE

1MALT     (MALT2047) (12:36) (15MAR04) Dsect Cross Reference                                                                Page   27
-Dsect     Length      Id       Defn                                                         HLASM R4.0  2004/03/15 12.36
0$$$@R0   00000000  FFFFFFFE     712
 $$$@R1   00000000  FFFFFFFD     725
 $$$@R10  00000000  FFFFFFF4     842
 $$$@R11  00000000  FFFFFFF3     855
 $$$@R12  00000000  FFFFFFF2     868
 $$$@R13  0000004C  FFFFFFF1     881
 $$$@R14  00000000  FFFFFFF0     894
 $$$@R15  00000000  FFFFFFEF     907
 $$$@R2   00000000  FFFFFFFC     738
 $$$@R3   00000000  FFFFFFFB     751
 $$$@R4   00000000  FFFFFFFA     764
 $$$@R5   00000000  FFFFFFF9     777
 $$$@R6   00000000  FFFFFFF8     790
 $$$@R7   00000000  FFFFFFF7     803
 $$$@R8   00000000  FFFFFFF6     816
 $$$@R9   00000000  FFFFFFF5     829
 $$$RCELLBLOK
          00000028  FFFFFFED    1605
 $$$RNCOREWA
          00000004  FFFFFFEA    1960
 $$$RSEGCB
          0000003C  FFFFFFEC    1634
 $$$RTRC  00000010  FFFFFFEB    1747
 CVDSECT  00000778  FFFFFFEE    1137
 HIBAL    00000000  FFFFFFFF     698

1MALT     (MALT2047) (12:36) (15MAR04) Using Map                                                                            Page   28
-                                                                                            HLASM R4.0  2004/03/15 12.36
   Stmt  -----Location----- Action ----------------Using----------------- Reg Max    Last  Label and Using Text
           Count      Id           Type          Value    Range     Id        Disp   Stmt
0   929  00000000  FFFFFFFF USING  ORDINARY    00000000 00001000 FFFFFFEF  15 000    2187  @R15,15
    933  00000000  FFFFFFFF USING  ORDINARY    00000000 00001000 FFFFFFF0  14 000          @R14,14
    937  00000000  FFFFFFFF USING  ORDINARY    00000000 00001000 FFFFFFF1  13 000          @R13,13
    941  00000000  FFFFFFFF USING  ORDINARY    00000000 00001000 FFFFFFF2  12 000          @R12,12
    945  00000000  FFFFFFFF USING  ORDINARY    00000000 00001000 FFFFFFF3  11 000          @R11,11
    949  00000000  FFFFFFFF USING  ORDINARY    00000000 00001000 FFFFFFF4  10 000          @R10,10
    953  00000000  FFFFFFFF USING  ORDINARY    00000000 00001000 FFFFFFF5   9 000          @R9,9
    957  00000000  FFFFFFFF USING  ORDINARY    00000000 00001000 FFFFFFF6   8 000          @R8,8
    961  00000000  FFFFFFFF USING  ORDINARY    00000000 00001000 FFFFFFF7   7 010    2612  @R7,7
    965  00000000  FFFFFFFF USING  ORDINARY    00000000 00001000 FFFFFFF8   6 000    2430  @R6,6
    969  00000000  FFFFFFFF USING  ORDINARY    00000000 00001000 FFFFFFF9   5 000          @R5,5
    973  00000000  FFFFFFFF USING  ORDINARY    00000000 00001000 FFFFFFFA   4 000          @R4,4
    977  00000000  FFFFFFFF USING  ORDINARY    00000000 00001000 FFFFFFFB   3 000          @R3,3
    981  00000000  FFFFFFFF USING  ORDINARY    00000000 00001000 FFFFFFFC   2 000          @R2,2
    985  00000000  FFFFFFFF USING  ORDINARY    00000000 00001000 FFFFFFFD   1 00C    1584  @R1,1
    989  00000000  FFFFFFFF USING  ORDINARY    00000000 00001000 FFFFFFFE   0 000          @R0,0
    990  00000000  FFFFFFFF DROP                                            0              0
   1150  00000000  FFFFFFEE USING  ORDINARY    00000000 00001000 FFFFFFEE  12 73E    3443  CV,CVR
   1798  00000022  00000001 USING  ORDINARY    00000022 00001000 00000001   8 3A2    1842  $$$19B,BR
   1850  0000007C  00000001 USING  ORDINARY    00000000 00001000 FFFFFFF6   8 000          @R8,8
   1902  0000009A  00000001 USING  ORDINARY    0000009A 00001000 00000001   8 32A    1920  $$$22B,BR
   1928  000000B4  00000001 USING  ORDINARY    00000000 00001000 FFFFFFF6   8 000          @R8,8
   2003  000000D2  00000001 USING  ORDINARY    000000D2 00001000 00000001   8 2FA    2240  $$$25B,BR
   2022  000000E2  00000001 USING  ORDINARY    FFFFFFB4 00001000 FFFFFFEA  13 04F    2183  NCOREWA-@@,R13
   2096  0000014A  00000001 DROP                                            3              3
   2100  00000150  00000001 USING  ORDINARY    00000000 00001000 FFFFFFFB   3 020    2574  @R3,3
   2221  000001F0  00000001 USING  ORDINARY    00000000 00001000 FFFFFFEB  15 00C    2227  TRC,R15
   2233  000001FC  00000001 USING  ORDINARY    00000000 00001000 FFFFFFEF  15 000    2479  @R15,15
   2251  00000206  00000001 USING  ORDINARY    00000000 00001000 FFFFFFF1  13 000          @R13,13
   2256  00000206  00000001 USING  ORDINARY    00000000 00001000 FFFFFFF6   8 000          @R8,8
   2304  00000224  00000001 USING  ORDINARY    00000224 00001000 00000001   8 1A0    2321  $$$35B,BR
   2337  00000242  00000001 USING  ORDINARY    00000000 00001000 FFFFFFF6   8 000          @R8,8
   2385  00000260  00000001 USING  ORDINARY    00000260 00001000 00000001   8 16C    2594  $$$38B,BR
   2608  00000362  00000001 USING  ORDINARY    00000000 00001000 FFFFFFEB  15 00C    2615  TRC,R15
   2621  00000372  00000001 USING  ORDINARY    00000000 00001000 FFFFFFEF  15 200    3718  @R15,15
   2640  00000378  00000001 USING  ORDINARY    00000000 00001000 FFFFFFF6   8 000          @R8,8
   2728  000003D8  00000001 USING  ORDINARY    000003D8 00001000 00000001   8 0C0    2863  $$$50B,BR
   2777  000003FE  00000001 USING  ORDINARY    00000000 00001000 FFFFFFED   6 020    2865  CELLBLOK,R6
   2872  0000047A  00000001 USING  ORDINARY    00000000 00001000 FFFFFFF8   6 000          @R6,6
   2877  0000047A  00000001 USING  ORDINARY    00000000 00001000 FFFFFFF6   8 000          @R8,8
   2946  000004A4  00000001 USING  ORDINARY    000004A4 00001000 00000001   8 074    3014  $$$57B,BR
   2995  000004CC  00000001 USING  ORDINARY    00000000 00001000 FFFFFFED   6 010    3013  CELLBLOK,R6
   3022  000004F6  00000001 USING  ORDINARY    00000000 00001000 FFFFFFF8   6 000          @R6,6
   3027  000004F6  00000001 USING  ORDINARY    00000000 00001000 FFFFFFF6   8 000          @R8,8
   3087  00000524  00000001 USING  ORDINARY    00000524 00001000 00000001   8 295    3732  $$$62B,BR
   3111  00000536  00000001 USING  ORDINARY    00000000 00001000 FFFFFFEC   7 000    3689  SEGCB,R7
   3517  0000066E  00000001 USING  ORDINARY    00000000 00001000 FFFFFFEB   4 00C    3688  TRC,R4
   3741  0000070E  00000001 USING  ORDINARY    00000000 00001000 FFFFFFFA   4 000          @R4,4
   3750  0000070E  00000001 USING  ORDINARY    00000000 00001000 FFFFFFF7   7 000          @R7,7
   3755  0000070E  00000001 USING  ORDINARY    00000000 00001000 FFFFFFF6   8 000          @R8,8

1         (MALT2047) (12:36) (15MAR04) General Purpose Register Cross Reference                                             Page   29
- Register  References (M=modified, B=branch, U=USING, D=DROP, N=index)                      HLASM R4.0  2004/03/15 12.36
0    0(0)     989U  990D 1579M 1580M 1581  1583M 1584  1817M 1824M 1833M 1837M 2041M 2041  2055  2068  2109M 2163M 2239M
             2240M 2326M 2326  2488M 2521M 2563M 2629M 2629  2798M 2800  2828M 2865M 3000M 3001  3004M 3122M 3150M 3170M
             3170  3186M 3205M 3205  3221M 3249M 3266M 3295M 3310M 3339M 3355M 3377M 3393M 3422M 3450M 3466M 3540M 3582M
             3662M 3677M 3706M 3706
     1(1)     985U 1815M 1817  1825M 1825  1831M 1833  1835  1838M 1917M 1917  2027  2113M 2113  2164M 2178  2198M 2238M
             2328M 2328  2401  2489M 2523M 2523  2542  2564M 2585M 2612M 2613  2631M 2631  2799M 2800  2802M 2842M 2842
             2999  3000M 3002  3004M 3121M 3143M 3166M 3185M 3201M 3220M 3242M 3265M 3288M 3309M 3332M 3354M 3370M 3392M
             3415M 3443M 3465M 3540M 3581M 3601M 3624M 3655M 3676M 3688M
     2(2)     981U 1786  1857M 1890  1916M 1935M 1990  2026  2073M 2075  2076M 2078M 2079  2088M 2264M 2292  2344M 2373
             2480M 2490  2504M 2505M 2505  2543M 2571M 2572  2575M 2647M 2716  2781M 2792M 2792  2798  2800M 2802  2806M
             2809  2845M 2848  2858M 2861  2884M 2934  2999M 3001  3004  3009M 3012  3034M 3075  3762M
     3(3)     977U 1786  1857M 1890  1935M 1990  2074M 2075M 2076  2078M 2081  2088M 2096D 2098M 2098  2099M 2100U 2110
             2264M 2292  2344M 2373  2542M 2543  2564  2572M 2573M 2574M 2575  2647M 2716  2781M 2799  2800M 2807M 2808
             2810M 2829M 2839  2846M 2847  2849M 2859M 2860  2862M 2884M 2934  3002M 3003M 3004  3010M 3011  3013M 3034M
             3075  3478M 3485  3503  3762M
     4(4)     973U 1786  1857M 1890  1935M 1990  2079M 2080M 2085  2087  2088  2264M 2292  2344M 2373  2647M 2716  2808M
             2809M 2810  2847M 2848M 2849  2860M 2861M 2862  2884M 2934  3011M 3012M 3013  3034M 3075  3478M 3485M 3495
             3502M 3503M 3517U 3718  3741U 3762M
     5(5)     969U 1786  1857M 1890  1935M 1990  2081M 2085  2087M 2088  2093M 2139M 2139  2156M 2164  2264M 2292  2344M
             2373  2647M 2716  2884M 2934  3034M 3075  3478M 3495  3762M
     6(6)     965U 1786  1857M 1890  1935M 1990  2068M 2069M 2070M 2080  2091M 2109  2181  2239  2264M 2292  2344M 2373
             2428M 2488  2573  2647M 2716  2767M 2777U 2872U 2884M 2934  2985M 2995U 3022U 3034M 3075  3478M 3502  3762M
     7(7)     961U 1786  1857M 1890  1935M 1990  2178M 2179M 2183  2184N 2189M 2225  2238  2264M 2292  2344M 2373  2401M
             2402M 2430N 2480  2489  2647M 2716  2884M 2934  3034M 3075  3101M 3111U 3128  3156  3176  3192  3211  3227
             3255  3272  3301  3316  3345  3361  3383  3399  3428  3456  3472  3569  3646  3668  3683  3712  3750U 3762M
     8(8)     957U 1786  1787M 1798U 1850U 1857M 1890  1891M 1902U 1928U 1935M 1990  1992M 2003U 2256U 2264M 2292  2293M
             2304U 2337U 2344M 2373  2374M 2385U 2640U 2647M 2716  2717M 2728U 2877U 2884M 2934  2935M 2946U 3027U 3034M
             3075  3076M 3087U 3755U 3762M
     9(9)     953U 1786  1857M 1890  1935M 1990  2026M 2182  2226  2264M 2292  2344M 2373  2399M 2614  2647M 2716  2884M
             2934  3034M 3075  3762M
    10(A)     949U 1786  1857M 1890  1935M 1990  2264M 2292  2344M 2373  2647M 2716  2884M 2934  3034M 3075  3762M
    11(B)     945U 1786  1857M 1890  1935M 1990  2264M 2292  2344M 2373  2647M 2716  2884M 2934  3034M 3075  3762M
    12(C)     941U 1150U
    13(D)     937U 1783  1786  1802M 1804  1804  1805  1805  1806  1854M 1854  1857  1859  1861  1861  1887  1890  1906M
             1908  1908  1909  1909  1910  1932M 1932  1935  1937  1939  1939  1987  1990  2007M 2009  2009  2010  2010
             2011  2022U 2251U 2260M 2260  2264  2266  2268  2268  2289  2292  2308M 2310  2310  2311  2311  2312  2341M
             2341  2344  2346  2348  2348  2370  2373  2389M 2391  2391  2392  2392  2393  2644M 2644  2647  2649  2651
             2651  2713  2716  2732M 2734  2734  2735  2735  2736  2881M 2881  2884  2886  2888  2888  2931  2934  2950M
             2952  2952  2953  2953  2954  3031M 3031  3034  3036  3038  3038  3072  3075  3091M 3093  3093  3094  3094
             3095  3543M 3545  3545  3546  3546  3547  3575M 3575  3578  3578  3759M 3759  3762  3764  3766  3766
    14(E)     933U 1578B 1588B 1783  1842M 1843M 1843B 1859M 1863B 1887  1916  1920M 1921M 1921B 1937M 1941B 1987  2200M
             2266M 2270B 2289  2318  2321M 2322M 2322B 2346M 2350B 2370  2587M 2649M 2653B 2713  2886M 2890B 2931  3036M
             3040B 3072  3131M 3132M 3132B 3159M 3160M 3160B 3179M 3180M 3180B 3195M 3196M 3196B 3214M 3215M 3215B 3230M
             3231M 3231B 3258M 3259M 3259B 3275M 3276M 3276B 3280M 3280  3283M 3304M 3305M 3305B 3319M 3320M 3320B 3324M
             3324  3327M 3348M 3349M 3349B 3364M 3365M 3365B 3386M 3387M 3387B 3402M 3403M 3403B 3431M 3432M 3432B 3459M
             3460M 3460B 3475M 3476M 3476B 3550M 3551M 3551B 3572M 3573M 3573B 3649M 3650M 3650B 3671M 3672M 3672B 3686M
             3687M 3687B 3692M 3693M 3693B 3715M 3716M 3716B 3764M 3768B
    15(F)     929U 1576M 1577M 1577  1579  1584M 1587M 1587  1839M 1862M 1862  1940M 1940  2110M 2111M 2112M 2123M 2123
             2155M 2155  2156  2169M 2170M 2171  2184M 2185M 2186  2186  2221U 2233U 2244M 2244  2269M 2269  2318M 2330M
             2330  2349M 2349  2399  2430M 2431M 2448  2490M 2491M 2492M 2522M 2533M 2533  2608U 2621U 2633M 2633  2652M
             2652  2767  2839M 2840M 2841M 2889M 2889  2985  3039M 3039  3101  3128M 3156M 3176M 3192M 3211M 3227M 3255M
             3272M 3281M 3282M 3283M 3288  3301M 3316M 3325M 3326M 3327M 3332  3345M 3361M 3383M 3399M 3428M 3456M 3472M
             3477M 3547M 3569M 3646M 3668M 3683M 3689M 3712M 3717M 3767M 3767

1MALT     (MALT2047) (12:36) (15MAR04) Diagnostic Cross Reference and Assembler Summary                                     Page   30
-                                                                                            HLASM R4.0  2004/03/15 12.36
0     No Statements Flagged in this Assembly
 HIGH LEVEL ASSEMBLER, 5696-234, RELEASE 4.0, PTF UQ57391
0SYSTEM: OS/390 02.10.00            JOBNAME: MIL#MALT    STEPNAME: ASM        PROCSTEP: (NOPROC)
0Datasets Allocated for this Assembly
  Con DDname   Dataset Name                                 Volume  Member
   P1 SYSIN    WYL.GS.MIL.MILTEN.SOURCE                     SYSB05  MALT
   L1 SYSLIB   WYL.GS.MIL.MILTEN.MACLIB                     SYSB05
   L2          WYL.GG.SYS.MACLIB                            SYSB05
   L3          SYS3.IS.MACLIB                               SYSB05
   L4          SYS3.MACLIB                                  SYSB02
   L5          SYS1.MACLIB                                  MVSBR9
   L6          SYS1.MODGEN                                  MVSBR9
      SYSPRINT SYS04075.T123604.RA000.MIL#MALT.PRINT.H01    SCR100
      SYSTERM  GG$SLP.MIL#MALT.JOB03417.D0000101.?

    3776K allocated to Buffer Pool,         1077K would be required for this to be an In-Storage Assembly
     408 Primary Input Records Read         8468 Library Records Read                  0 Work File Reads
       0 ASMAOPT Records Read               1775 Primary Print Records Written         0 Work File Writes
       0 Punch Records Written                 0 ADATA Records Written
0Assembly Start Time: 12.36.06 Stop Time: 12.36.09 Processor Time: 00.00.00.8782
 Return Code 000
