1                        J E S 2  J O B  L O G  --  S Y S T E M  S Y S B  --  N O D E  R L G
0
 12.36.33 JOB03420 ---- MONDAY,    15 MAR 2004 ----
 12.36.33 JOB03420  ICH70001I GG$SLP   LAST ACCESS AT 12:36:22 ON MONDAY, MARCH 15, 2004
 12.36.33 JOB03420  $HASP373 MIL#MORT STARTED - INIT 6    - CLASS B - SYS SYSB
 12.36.33 JOB03420  ***  HCMD      STEP $$QUIET
 12.36.33 JOB03420  PUR * Q OUT MUL
 12.36.33 JOB03420  JOB 5466 MIL#MORT WILL BE PURGED
 12.36.34 JOB03420  MIL#MORT.$$QUIET .         RC=Zero TapeIO=0000 DiskIO=0000 CPU=  .01s Elapsed=93.73s
 12.36.43 JOB03420  MIL#MORT.ASM     .         RC=Zero TapeIO=0000 DiskIO=0374 CPU= 1.79s Elapsed=94.81s
 12.36.44 JOB03420  MIL#MORT.EDIT    .         RC=Zero TapeIO=0000 DiskIO=0069 CPU=  .22s Elapsed=03.93s
 12.36.44 JOB03420  MIL#MORT Ended.  Name=Assemble MORT                  Total CPU= 2.02s Elapsed=93.73s
 12.36.44 JOB03420
 12.36.44 JOB03420  Execution charges   Priority=Standard   Block=Day
 12.36.44 JOB03420
 12.36.44 JOB03420  CPU Usage          36.93          $22.89   Standard Processing Unit Equivalent
 12.36.44 JOB03420                                   =======
 12.36.44 JOB03420                                    $22.89   Total Job execution charge
 12.36.44 JOB03420
 12.36.44 JOB03420  See back separator page for print charges
 12.36.44 JOB03420
 12.36.44 JOB03420  $HASP395 MIL#MORT ENDED  ASM=0, EDIT=0
1        1 //MIL#MORT JOB SLP$GG,'Assemble MORT',TIME=4,REGION=4M                  JOB03420
           //*
           /*JOBPARM LINES=99,COPIES=1
           /*JOBPARM FORMS=3HOL,PFORMAT=LAND,CHARS=BD13,DUPLEX=YES,FLASH=BAR4
           //*
           /*JOBPARM NOTIFY=GG.SLP,HOLD=OUTPUT                                     WYLGEN
         2 //$$QUIET EXEC PGM=HCMDX,PARM='PUR * Q OUT MUL'
           //*
         3 //ASM    EXEC PGM=ASMA90,REGION=8M,
           //            PARM=('NORENT,TERM,FLAG(NOCONT),US(MAP,WARN(10)),NODECK',
           //            'LC(32767),XREF(SHORT),ESD,DXREF,NOOBJECT')
           //*STEPLIB  DD DSN=SYS1.SASMMOD1,DISP=SHR
         4 //SYSLIB   DD  DSN=WYL.GS.MIL.MILTEN.MACLIB,DISP=SHR
         5 //         DD  DSN=WYL.GG.SYS.MACLIB,DISP=SHR
         6 //         DD  DSN=SYS3.IS.MACLIB,DISP=SHR
         7 //         DD  DSN=SYS3.MACLIB,DISP=SHR
         8 //         DD  DSN=SYS1.MACLIB,DISP=SHR
         9 //         DD  DSN=SYS1.MODGEN,DISP=SHR
        10 //SYSUT1   DD DSN=&&SYSUT1,UNIT=VIO,DISP=(,DELETE),
           //            SPACE=(4088,(500,250),,CONTIG,ROUND)
        11 //SYSTERM  DD SYSOUT=T
        12 //SYSPRINT DD DSN=&&PRINT,UNIT=SYSDA,DISP=(,PASS),
           //            SPACE=(6650,(250,250),RLSE),
           //            DCB=(BLKSIZE=6650,LRECL=133,RECFM=FB)
        13 //SYSUDUMP DD SYSOUT=A
        14 //SYSIN    DD  DSN=WYL.GS.MIL.MILTEN.SOURCE(MORT),DISP=SHR
           //*
        15 //EDIT    EXEC PGM=ASMEDIT,TIME=2,REGION=4000K,
           //             PARM='STMT'
        16 //STEPLIB  DD  DSN=WYL.GG.SYS.LINKLIB,DISP=SHR
        17 //ASMOUT   DD  DSN=&PRINT,DISP=(OLD,DELETE)
        18 //SYSPRINT DD  SYSOUT=A
1 STMT NO. MESSAGE
 -
        10 IGD01010I STORCLAS= TEMP STORGROUP =
        10 IGD01010I STORGRP=VIO ASSIGNED.
        12 IGD01010I STORCLAS= TEMP STORGROUP =
        12 IGD01010I STORGRP=VIO ASSIGNED.
 ICH70001I GG$SLP   LAST ACCESS AT 12:36:22 ON MONDAY, MARCH 15, 2004
 IEF142I MIL#MORT $$QUIET - STEP WAS EXECUTED - COND CODE 0000
 *********************************************************************************
 *   MIL#MORT/$$QUIET /                    Return Code      Zero                 *
 *   Region used      260K (16K user + 244K system)                              *
 *   Extended region  9692K (4K user + 9688K system)                             *
 *                                                                               *
 *   Paging              In      Out                                             *
 *   Private <-> Aux      0        0       CPU time (TCB)   00:00:00.01          *
 *   Private <-> Exp      0        0       CPU time (SRB)   00:00:00.00          *
 *   VIO                  0        0       Elapsed time    917:51:19.23          *
 *   Common               0      ---                                             *
 *                                                                               *
 *                                                                               *
 *   CPU Usage          0.18         $0.11  Standard Processing Unit Equivalent  *
 *                                   $0.11  Total Step execution charge          *
 *                                                                               *
 *    I/O count  DDname   Type Addr           I/O count  DDname   Type Addr      *
 *                         *** No I/O for this step ***                          *
 *********************************************************************************
 IEF373I STEP/$$QUIET /START 2004075.1236
 IEF374I STEP/$$QUIET /STOP  2004075.1236 CPU    0MIN 00.01SEC SRB    0MIN 00.00SEC VIRT    16K SYS   244K EXT       4K SYS    9688K
 IEF236I ALLOC. FOR MIL#MORT ASM
 IEF237I 04DC ALLOCATED TO SYSLIB
 IEF237I 04DC ALLOCATED TO
 IEF237I 04DC ALLOCATED TO
 IEF237I 0402 ALLOCATED TO
 IEF237I 04A0 ALLOCATED TO
 IEF237I 04A0 ALLOCATED TO
 IGD101I SMS ALLOCATED TO DDNAME (SYSUT1  )
         DSN (SYS04075.T123633.RA000.MIL#MORT.SYSUT1.H01  )
         STORCLAS (TEMP) MGMTCLAS (        ) DATACLAS (        )
         VOL SER NOS= VIO
 IEF237I JES2 ALLOCATED TO SYSTERM
 IGD101I SMS ALLOCATED TO DDNAME (SYSPRINT)
         DSN (SYS04075.T123633.RA000.MIL#MORT.PRINT.H01   )
         STORCLAS (TEMP) MGMTCLAS (        ) DATACLAS (        )
         VOL SER NOS= SCR100
 IEF237I JES2 ALLOCATED TO SYSUDUMP
 IEF237I 04DC ALLOCATED TO SYSIN
 IEF142I MIL#MORT ASM - STEP WAS EXECUTED - COND CODE 0000
 IEF285I   WYL.GS.MIL.MILTEN.MACLIB                     KEPT
 IEF285I   VOL SER NOS= SYSB05.
 IEF285I   WYL.GG.SYS.MACLIB                            KEPT
 IEF285I   VOL SER NOS= SYSB05.
 IEF285I   SYS3.IS.MACLIB                               KEPT
 IEF285I   VOL SER NOS= SYSB05.
 IEF285I   SYS3.MACLIB                                  KEPT
 IEF285I   VOL SER NOS= SYSB02.
 IEF285I   SYS1.MACLIB                                  KEPT
 IEF285I   VOL SER NOS= MVSBR9.
 IEF285I   SYS1.MODGEN                                  KEPT
 IEF285I   VOL SER NOS= MVSBR9.
 IGD105I SYS04075.T123633.RA000.MIL#MORT.SYSUT1.H01   DELETED,   DDNAME=SYSUT1
 IEF285I   GG$SLP.MIL#MORT.JOB03420.D0000101.?          SYSOUT
 IGD106I SYS04075.T123633.RA000.MIL#MORT.PRINT.H01    PASSED,    DDNAME=SYSPRINT
 IEF285I   GG$SLP.MIL#MORT.JOB03420.D0000102.?          SYSOUT
 IEF285I   WYL.GS.MIL.MILTEN.SOURCE                     KEPT
 IEF285I   VOL SER NOS= SYSB05.
 *********************************************************************************
 *   MIL#MORT/ASM     /                    Return Code      Zero                 *
 *   Region used      4372K (4096K user + 276K system)                           *
 *   Extended region  10284K (412K user + 9872K system)                          *
 *                                                                               *
 *   Paging              In      Out                                             *
 *   Private <-> Aux      0        0       CPU time (TCB)   00:00:01.75          *
 *   Private <-> Exp      0        0       CPU time (SRB)   00:00:00.04          *
 *   VIO                  0        0       Elapsed time    917:51:18.15          *
 *   Common               0      ---                                             *
 *                                                                               *
 *                                                                               *
 *   CPU Usage         32.81        $20.34  Standard Processing Unit Equivalent  *
 *                                  $20.34  Total Step execution charge          *
 *                                                                               *
 *    I/O count  DDname   Type Addr           I/O count  DDname   Type Addr      *
 *          232  SYSLIB   Disk 04DC                   0  SYSLIB   Disk 04DC      *
 *            0  SYSLIB   Disk 04DC                   7  SYSLIB   Disk 0402      *
 *           58  SYSLIB   Disk 04A0                   0  SYSLIB   Disk 04A0      *
 *            0  SYSUT1   VIO  ----                   0  SYSTERM       ----      *
 *           66  SYSPRINT Disk 038B                   0  SYSUDUMP      ----      *
 *           11  SYSIN    Disk 04DC                                              *
 *********************************************************************************
 IEF373I STEP/ASM     /START 2004075.1236
 IEF374I STEP/ASM     /STOP  2004075.1236 CPU    0MIN 01.75SEC SRB    0MIN 00.04SEC VIRT  4096K SYS   276K EXT     412K SYS    9872K
 IEF236I ALLOC. FOR MIL#MORT EDIT
 IEF237I 0402 ALLOCATED TO STEPLIB
 IGD103I SMS ALLOCATED TO DDNAME ASMOUT
 IEF237I JES2 ALLOCATED TO SYSPRINT
 IEF142I MIL#MORT EDIT - STEP WAS EXECUTED - COND CODE 0000
 IEF285I   WYL.GG.SYS.LINKLIB                           KEPT
 IEF285I   VOL SER NOS= SYSB02.
 IGD105I SYS04075.T123633.RA000.MIL#MORT.PRINT.H01    DELETED,   DDNAME=ASMOUT
 IEF285I   GG$SLP.MIL#MORT.JOB03420.D0000103.?          SYSOUT
 *********************************************************************************
 *   MIL#MORT/EDIT    /                    Return Code      Zero                 *
 *   Region used      380K (116K user + 264K system)                             *
 *   Extended region  9812K (4K user + 9808K system)                             *
 *                                                                               *
 *   Paging              In      Out                                             *
 *   Private <-> Aux      0        0       CPU time (TCB)   00:00:00.21          *
 *   Private <-> Exp      0        0       CPU time (SRB)   00:00:00.01          *
 *   VIO                  0        0       Elapsed time    917:51:09.03          *
 *   Common               0      ---                                             *
 *                                                                               *
 *                                                                               *
 *   CPU Usage          3.93         $2.43  Standard Processing Unit Equivalent  *
 *                                   $2.43  Total Step execution charge          *
 *                                                                               *
 *    I/O count  DDname   Type Addr           I/O count  DDname   Type Addr      *
 *            2  STEPLIB  Disk 0402                  67  ASMOUT   Disk 038B      *
 *            0  SYSPRINT      ----                                              *
 *********************************************************************************
 IEF373I STEP/EDIT    /START 2004075.1236
 IEF374I STEP/EDIT    /STOP  2004075.1236 CPU    0MIN 00.21SEC SRB    0MIN 00.01SEC VIRT   116K SYS   264K EXT       4K SYS    9808K
 *********************************************************************************
 *                                                                               *
 *                      S t a n f o r d   U n i v e r s i t y                    *
 *                                                                               *
 *                              *** Job Summary ***                              *
 *                                                                               *
 *   System Id      SYSB                   Input time     12:35:10  Mar 15, 2004 *
 *                                                                               *
 *   System Release SP6.1.0                Start time     12:36:33  Mar 15, 2004 *
 *                                                                               *
 *   Job name       MIL#MORT               Stop  time     00:00:00  Mar 15, 2004 *
 *                                                                               *
 *   Account        SLP$GG                 Elapsed time  917:51:19.23            *
 *                                                                               *
 *   User Name      Assemble MORT          CPU time       00:00:01.97            *
 *                                                                               *
 *   Job class      B                      SRB Time       00:00:00.05            *
 *                                                                               *
 *********************************************************************************
 IEF375I  JOB/MIL#MORT/START 2004075.1236
 IEF376I  JOB/MIL#MORT/STOP  2004075.1236 CPU    0MIN 01.97SEC SRB    0MIN 00.05SEC
1Assembler Done MORT No Statements Flagged
1         High Level Assembler Option Summary                   (PTF UQ57391)                                               Page    1
-                                                                                            HLASM R4.0  2004/03/15 12.36
0  No Overriding ASMAOPT Parameters
   Overriding Parameters-  NORENT,TERM,FLAG(NOCONT),US(MAP,WARN(10)),NODECK,LC(32767),XREF(SHORT),ESD,DXREF,NOOBJECT
   No Process Statements


   Options for this Assembly
0  NOADATA
     ALIGN
   NOASA
     BATCH
     CODEPAGE(047C)
   NOCOMPAT
   NODBCS
 3 NODECK
 3   DXREF
 3   ESD
   NOEXIT
 3   FLAG(0,ALIGN,NOCONT,NOIMPLEN,NOPAGE0,PUSH,RECORD,NOSUBSTR,USING0)
   NOFOLD
   NOGOFF
   NOINFO
     LANGUAGE(EN)
   NOLIBMAC
 3   LINECOUNT(32767)
     LIST(121)
     MXREF(SOURCE)
 3 NOOBJECT
     OPTABLE(UNI,NOLIST)
   NOPCONTROL
   NOPESTOP
   NOPROFILE
   NORA2
 3 NORENT
     RLD
     RXREF
     SIZE(MAX)
     SYSPARM()
 3   TERM(WIDE)
   NOTEST
     THREAD
   NOTRANSLATE
 3   USING(NOLIMIT,MAP,WARN(10))
 3   XREF(SHORT)

   No Overriding DD Names

1MORT     External Symbol Dictionary                                                                                        Page    2
-Symbol   Type   Id     Address  Length     LD ID  Flags Alias-of                            HLASM R4.0  2004/03/15 12.36
0MILMORT   SD 00000001 00000000 000012F0             00
 MORT2047  LD          00000000           00000001
 MORT      LD          000002C0           00000001
 CV        ER 00000002
 AMODE31   ER 00000003
 GETCORE   ER 00000004
 SEGCLR    ER 00000005
 SEG       ER 00000006
 SEGB      ER 00000007
 SEGT      ER 00000008
 SEGWR     ER 00000009
 SEGTB     ER 0000000A
 SCINIT    ER 0000000B
 SCAN      ER 0000000C
 SCTELL    ER 0000000D
 FREECORE  ER 0000000E
 LOCALTOD  ER 0000000F
 FMTTIME   ER 00000010

1MORT     MILTEN's Local Subsystem                                                                                          Page    3
0Loc    Object Code    Addr1 Addr2  Stmt Lv Lineno    Source Statement                    (Asmedit 3.3)  HLASM R4.0  2004/03/15 12.36
+___    ______ ____    _____ _____  ____ __ ______    ______ _________
0                                      2              *******************************************************************
                                       3              *                                                                 *
                                       4              *     MILTEN/370 - Release VI - Class I - Stanford Proprietary    *
                                       5              *                                                                 *
                                       6              *******************************************************************
                                       7                       HIBAL
                                     995
                                     996                       SYSDEFN
                                     997
 000000                00000 012F0   998              MILMORT  CSECT
                                    1002              MORT     IDENT 2047                10:16:24 02/16/02  (SLP)
                                    1005             +
                                    1006    01-IDENT +         ENTRY MORT2047
                                    1007             +
 000000 16D4D6D9E3F2F0F4            1008    01-IDENT +MORT2047 DC    AL1(22),C'MORT2047,15MAR04,12:36'
                                    1009             +*
                                    1011                       REGS  ,,FSR,,,,,,BR,MCBR,PDBR,(BRR,LSR),CVR,SPR,RAR
                                    1143
                                    1144                       PUSH  DSECTS
 USING  CV,R12                      1156             =         USING CV
 000017                00000 012F0  1165             =         POP   PRINT
1MORT     (MORT2047) (12:36) (15MAR04) DSECTS                                                                               Page    4
0Current Usings:  (CV,R12)
0Loc    Object Code    Addr1 Addr2  Stmt Lv Lineno    Source Statement           (Hibal 5, Asmedit 3.3)  HLASM R4.0  2004/03/15 12.36
+___    ______ ____    _____ _____  ____ __ ______    ______ _________
0                                   3064              ¿þþþþþþþþþþþþþþþþþþþþþþþþþþþþþþþþþþþþþþþþþþþþþþþþþþþþþþþþþþþþþþþþþþþþþÜ
                                    3065              Ÿ                                                                     Ÿ
                                    3066              Ÿ  Mort (Session) Control Block                                       Ÿ
                                    3067              Ÿ                                                                     Ÿ
                                                      ¾þþþþþþþþþþþþþþþþþþþþþþþþþþþþþþþþþþþþþþþþþþþþþþþþþþþþþþþþþþþþþþþþþþþþþ»
0000000                00000 00194  3068              MCB      RECORD BEGIN
 000000                             3076  1                      DS    CL4'MCB'
 000004                             3077  1           MCBLINK    DS    A                   Ptr to next MCB (or zero)
 000008 00                          3078  1           MCBFLAG    FLAG
 MCBFLAG.MCBFIO    80 ONES          3082  1                      FLAG  MCBFIO              - Terminal I/O in progress
 MCBFLAG.MCBFREAD  40 ONES          3087  1                      FLAG  MCBFREAD            - Doing terminal read
 MCBFLAG.MCBFIDLE  20 ONES          3092  1                      FLAG  MCBFIDLE            - Waiting for default subsys
 MCBFLAG.MCBFNBRK  10 ONES          3097  1                      FLAG  MCBFNBRK            - Don't halt read
 MCBFLAG.MCBFPRIV  08 ONES          3102  1                      FLAG  MCBFPRIV            - User is priv'd
 MCBFLAG.MCBFQRET  04 ONES          3107  1                      FLAG  MCBFQRET            - Re-enter w/o any msgs
 MCBFLAG.MCBFRENT  02 ONES          3112  1                      FLAG  MCBFRENT            - Do re-enter prompt
                                    3117  1
 000009 00                          3118  1           MCBTYPE    FLAG
 MCBTYPE.MCBTCONS  01 EQ            3122  1                      FLAG  (MCBTCONS,1,EQ)     - Console
 MCBTYPE.MCBTASYN  02 EQ            3132  1                      FLAG  (MCBTASYN,2,EQ)     - Async
 MCBTYPE.MCBTPDP   03 EQ            3142  1                      FLAG  (MCBTPDP,3,EQ)      - Pdp
 MCBTYPE.MCBTVTAM  04 EQ            3152  1                      FLAG  (MCBTVTAM,4,EQ)     - Vtam
 MCBTYPE.MCBTVIRT  05 EQ            3162  1                      FLAG  (MCBTVIRT,5,EQ)     - Virtual
                                    3172  1
 00000A                             3173  1           MCBNO      DS    H                   Session number
 00000C                             3174  1           MCBSYSNM   DS    CL8                 Subsystem name that died
 000014                             3175  1           MCBREGS    DS    16A                 Registers
 000054                             3176  1           MCBSTK     DS    XL256               Stack save area
 000154                             3177  1           MCBBUFR    DS    CL64                Read buffer
 000194                00194 00194  3178                       END
1MORT     (MORT2047) (12:36) (15MAR04) Local Subsystem                                                                      Page    5
0Current Usings:  (CV,R12)
0Loc    Object Code    Addr1 Addr2  Stmt Lv Lineno    Source Statement           (Hibal 5, Asmedit 3.3)  HLASM R4.0  2004/03/15 12.36
+___    ______ ____    _____ _____  ____ __ ______    ______ _________
0000018                             3188              MORTBRR  DS    0F
 000018 00000000                    3189              MORTSATP DC    A(0)                Mort session address table ptr
 00001C 00000000                    3190              MORTMCBQ DC    A(0)                Ptr to first MCB (or zero)
 000020 00000000                    3191              MORTSTKP DC    A(0)                Stack ptr
 000024 00000000                    3192              MORTSTKL DC    A(0)                Stack save point ptr
                                    3193
                                    3194            C MORTPATH PATH  VERSION=2,PFX=MRTP,YOURTAG=MILTEN,MYTAG=MORT,PASS=PSUB,
 000028 00000000/0000000_                                            BUFSIZE=4096,ECB=*-*,FLAG=MORTSFLG
                                    3256
 000060 00000000                    3257              MORTSFLG DC    F'0'                Suzan needs a full word
                                    3258
 000064                             3259              MORTPDB  DS    XL512
                                    3260
 000264                             3261                       SCANCB PFX=MRTSN
                                    3274
 000284 00/00/0000/00000_           3275              MRTSG    SEGCB MORTPDB+(PDBTEXT-PDB),L'MORTPDB-L'PDBHDR-1,RTN=MORTSEG
 MRTSGCOD.MRTSGSEG 01 EQ
 MRTSGCOD.MRTSGWR  02 EQ
 MRTSGCOD.MRTSGCLR 03 EQ
 MRTSGCOD.MRTSGSPP 04 EQ
 MRTSGCOD.MRTSGOVF 05 EQ
 MRTSGCOD.MRTSGCR  06 EQ
 MRTSGCOD.MRTSGMAR 07 EQ
1MORT     (MORT2047) (12:36) (15MAR04) Local Subsystem                                                                      Page    6
0Current Usings:  (CV,R12)
0Loc    Object Code    Addr1 Addr2  Stmt Lv Lineno    Source Statement           (Hibal 5, Asmedit 3.3)  HLASM R4.0  2004/03/15 12.36
+___    ______ ____    _____ _____  ____ __ ______    ______ _________
0                                   3364              **
                                    3365              **  MORT -- This runs as a subtask.  It is a subsystem which gets
                                    3366              **    control when a "user" subsystem dies.  It also handles the
                                    3367              **    case when the default subsystem is not yet up.  The only
                                    3368              **    difference between MORT and a user subsystem is that MORT
                                    3369              **    gets posted when the default subsystem becomes available.
                                    3370              **
                                    3371                       ENTRY MORT
 0002C0 0DB0                        3372              MORT     BASE  BRR
 USING  *,R11
 0002C2 58B0 BA5E            00D20  3386                       BASE  MORTBRR,BRR
 DROP   *,R11
 USING  MORTBRR,R11
                                    3403
 0002C6 58C0 BD0C            00D24  3404                       L     CVR,=V(CV)
 0002CA 0700/4510 B2BC_             3405                       GETMAIN R,LV=4096         Stack page
 0002DA 5010 B008            00020  3412                       ST    R1,MORTSTKP
 0002DE 41F0 1F00            00F00  3413                       LA    R15,@R1+4096-L'MCBSTK
 0002E2 50F0 B00C            00024  3414                       ST    R15,MORTSTKL        Stack save point ptr
 0002E6 18D1/4AD0 BDA4_             3415                       STKINIT (R1),4096         Set up stack
                                    3423
 0002F0 58E0 BD10/0DEE       00D28  3424                       VCALL AMODE31
                                    3428
 0002F6 9180 C13C/47E0_0013C        3429                       IF    CVFTEST,'MVI MRTPPASS,C"T"'
 000302 4110 C334            00334  3450                       LA    R1,CVMRTECB
 000306 5010 B038            00050  3451                       ST    R1,MRTPECB
 00030A 4110 B010            00028  3452                       LA    R1,MORTPATH
 00030E 5010 D000            00000  3453                       ST    R1,@R13
 000312 9680 D000      00000        3454                       SET   @R13.X'80'
 000316 1B00/1BFF/181D_             3461                       SCOM  OPEN,(R13)          Open subsystem path
 00031E 12FF/4780 B31E_             3476                       FAIL  (R15,NZ),'Mort path error'
 000336 4100 0001/4110_      00001  3499              MORTIW   WAIT  ECB=CVMRTECB
 000340 D703 C334 C334 00334 00334  3506                       CLEAR CVMRTECB
 000346 9108 B048/47E0_00060        3513                       IF    ~MORTSFLG.PATHFOPN,MORTIW
 000F08 F7/41F0 0001/1_00F08 012F0  3532                       CLEAR MORTSFLG.PATHFOPN,MODE=LOCKED,REF=MORTSFLG
 00036C 4110 B04C            00064  3578                       LA    R1,MORTPDB
 USING  PDB,R1                      3579                       WITH  (PDB,R1),BEGIN
 000370 D737 1000 1000 00000 00000  3593  1                      CLEAR PDBHDR
 000376 9221 1006      00006        3600  1                      MVI   PDBCMD,TMILINIT         Set to init call
 00037A D207 1024 BCC0 00024 00CD8  3601  1                      MVC   PDBSYSNM,=CL8'MILTEN'   Set subsystem name
 000380 D201 1000 BDA6 00000 00DBE  3602  1                      MVC   PDBLENG,=AL2(L'PDBHDR)  Set PDB length
 DROP   PDB,R1                      3603                       END
 000386 5010 D000            00000  3611                       ST    R1,@R13
 00038A 9680 D000      00000        3612                       SET   @R13.X'80'
 00038E D703 D004 D004 00004 00004  3619                       CLEAR (@R13+4,4)
 000394 41F0 0008/5800_      00008  3626                       SCOM  SEND,(R13),MRTPMGC  Send TMILINT
 0003A0 12FF/4780 B3A6_             3645                       FAIL  (R15,NZ),'Mort TMILINIT failed'
 0003BE 9240 C334      00334        3668                       MVI   CVMRTECB,X'40'
                                    3669                       ¿þþþþþþþþþþþþþþþþþþþþþþþþþþþþþþþþþþþþþþþÜ
                                    3670                       Ÿ  Build Mort's session address table.  Ÿ
                                    3671                       ¾þþþþþþþþþþþþþþþþþþþþþþþþþþþþþþþþþþþþþþþ»
 0003C2 4800 C390            00390  3672                       LH    R0,CVMAXSES         Max no. of sessions
 0003C6 8900 0002            00002  3673                       SLL   R0,2                Times 4
 0003CA 58E0 BD14/0DEE       00D2C  3674                       VCALL GETCORE
1MORT     (MORT2047) (12:36) (15MAR04) Local Subsystem                                                                      Page    7
0Current Usings:  (MORTBRR,R11) (CV,R12)
0Loc    Object Code    Addr1 Addr2  Stmt Lv Lineno    Source Statement           (Hibal 5, Asmedit 3.3)  HLASM R4.0  2004/03/15 12.36
+___    ______ ____    _____ _____  ____ __ ______    ______ _________
00003D0 5010 B000            00018  3678                       ST    R1,MORTSATP
 0003D4 18E1/18F0/1B11_             3679                       ZOT   (R1),(R0)           Zero MSAT
1MORT     (MORT2047) (12:36) (15MAR04) Local Subsystem                                                                      Page    8
0Current Usings:  (MORTBRR,R11) (CV,R12)
0Loc    Object Code    Addr1 Addr2  Stmt Lv Lineno    Source Statement           (Hibal 5, Asmedit 3.3)  HLASM R4.0  2004/03/15 12.36
+___    ______ ____    _____ _____  ____ __ ______    ______ _________
00003DC 4100 0001/4110_      00001  3693              MORTWAIT WAIT  ECB=CVMRTECB        Wait for work
 0003E6 D703 C334 C334 00334 00334  3700              MORTLOOP CLEAR CVMRTECB
                                    3708
 0003EC 58D0 B008/4AD0_      00020  3709                       STKINIT L:MORTSTKP,4096   Reset stack
                                    3717
 0003F8 9120 B048/47E0_00060        3718                       IF    (MORTSFLG.PATHFNI),BEGIN Path stuff...
 000F0E DF/41F0 0001/1_00F08 012F0  3734  1                      CLEAR MORTSFLG.PATHFNI,MODE=LOCKED,REF=MORTSFLG
 00041E 4110 B050            00068  3780  1                      LA    R1,MORTPDB+4
 000422 5010 D000            00000  3781  1                      ST    R1,@R13
 000426 9680 D000      00000        3782  1                      SET   @R13.X'80'
 00042A 4110 01FC            001FC  3789  1                      LA    R1,L'MORTPDB-4
 00042E 5010 D004            00004  3790  1                      ST    R1,@R13+4
 000432 41F0 000C/5800_      0000C  3791  1                      SCOM  GET,(R13),MRTPMGC   Read
 00043E 12FF/4780 B442_             3810  1                      FAIL  (R15,NZ),'Bad Mort path read'
 00045A 41A0 B04C            00064  3833  1                      LA    PDBR,MORTPDB
 USING  PDB,R10                     3834  1                      WITH  PDB
 00045E 4010 A000            00000  3846  1                      STH   R1,PDBLENG          For compatibility
 000462 1211                        3847  1                      LTR   R1,R1
 000464 4780 B3CE            003E6  3848  1                      IF    Z,MORTLOOP          Nothing
 000468 D701 A002 A002 00002 00002  3862  1                      CLEAR (PDBHDR+2,2)        Reset rdw flags
                                    3869  1           *
                                    3870  1           *  Go through loop one more time
                                    3871  1           *
 00046E 58F0 B048/4110_      00060  3872  1                      SET   MORTSFLG.PATHFNI,MODE=LOCKED,REF=MORTSFLG
                                    3887  1
 000486 9521 A006/4780_00006        3888  1                      IF    (PDBCMD,EQ,FMILINIT),MORTLOOP
 00048E 9540 A006/4740_00006        3909  1                      IF    (PDBCMD,LT,FMILSOS),MORTLOOP  (Bad CMD???)
                                    3930  1
 000496 4820 A004            00004  3931  1                      LH    R2,PDBLIN#
 00049A BD23 C390/47A0_      00390  3932  1                      IF    (R2,LGE,CVMAXSES),MORTLOOP  (Bad LIN#???)
 0004A2 8920 0002            00002  3952  1                      SLL   R2,2
 0004A6 5A20 B000            00018  3953  1                      A     R2,MORTSATP
 0004AA 5890 2000/1299       00000  3954  1                      LT    MCBR,@R2
 USING  MCB,R9                      3958  1                      WITH  MCB
                                    3970  1                      ¿þþþþþþþþþþþþþþþþþþþþþþþþþþþþþþþþþþþþþÜ
                                    3971  1                      Ÿ  A new user is logging on to Mort.  Ÿ
                                    3972  1                      ¾þþþþþþþþþþþþþþþþþþþþþþþþþþþþþþþþþþþþþ»
 0004B0 4770 B4F0            00508  3973  1                      IF    Z,BEGIN             New session...
 0004B4 9540 A006/4770_00006        3984  2                        IF    (PDBCMD,NE,FMILSOS),MORTLOOP  Must be start of sess
                                    4005  2
 0004BC 4100 0194            00194  4006  2                        LA    R0,L'MCB
 0004C0 58E0 BD14/0DEE       00D2C  4007  2                        VCALL GETCORE             Get user control block
 0004C6 1891                        4011  2                        LR    MCBR,R1
 0004C8 D7FF 9000 9000_00000 00000  4012  2                        CLEAR MCB
                                    4020  2
 0004D4 5090 2000            00000  4021  2                        ST    MCBR,@R2            Save addr in msat
 0004D8 D203 9004 B004 00004 0001C  4022  2                        MVC   MCBLINK,MORTMCBQ    Add MCB...
 0004DE 5090 B004            0001C  4023  2                        ST    MCBR,MORTMCBQ       ... to queue
                                    4024  2
 0004E2 D203 9000 BD18 00000 00D30  4025  2                        MVC   MCB(4),=CL4'MCB'
 0004E8 D201 900A A004 0000A 00004  4026  2                        MVC   MCBNO,PDBLIN#
 0004EE 50C0 9044            00044  4027  2                        ST    CVR,MCBREGS+CVR*4
 0004F2 50D0 9048            00048  4028  2                        ST    SPR,MCBREGS+SPR*4
 0004F6 50B0 9040            00040  4029  2                        ST    BRR,MCBREGS+BRR*4
1MORT     (MORT2047) (12:36) (15MAR04) Local Subsystem                                                                      Page    9
0Current Usings:  (MCB,R9) (PDB,R10) (MORTBRR,R11) (CV,R12)
0Loc    Object Code    Addr1 Addr2  Stmt Lv Lineno    Source Statement           (Hibal 5, Asmedit 3.3)  HLASM R4.0  2004/03/15 12.36
+___    ______ ____    _____ _____  ____ __ ______    ______ _________
00004FA 5090 9018            00018  4030  2                        ST    MCBR,MCBREGS+R1*4
 0004FE 50A0 9050            00050  4031  2                        ST    PDBR,MCBREGS+R15*4
 000502 D203 904C BD1C 0004C 00D34  4032  2                        MVC   MCBREGS+RAR*4(4),=A(LOGON)
 000508                             4033  1                      END
                                    4037  1                      ¿þþþþþþþþþþþþþþþþþþþþþþþþþþþþþþþþþþþþþþþþþþþþþþþþþþþþÜ
                                    4038  1                      Ÿ  Only look at asynchronous PDBs if we are idling.  Ÿ
                                    4039  1                      ¾þþþþþþþþþþþþþþþþþþþþþþþþþþþþþþþþþþþþþþþþþþþþþþþþþþþþ»
 000508 9550 A006/4770_00006        4040  1                      IF    (PDBCMD,EQ,FMILASYN),BEGIN  Something asynchronous...
 000510 9120 9008/47E0_00008        4058  2                        IF    ~MCBFIDLE,MORTLOOP  Not idling, loop back
 000518                             4076  1                      END
                                    4080  1                      ¿þþþþþþþþþþþþþþþþþþþþþþþþþþþþþþþþþþþþÜ
                                    4081  1                      Ÿ  A user's I/O has just completed.  Ÿ
                                    4082  1                      ¾þþþþþþþþþþþþþþþþþþþþþþþþþþþþþþþþþþþþ»
 000518 58F0 B00C            00024  4083  1                      L     R15,MORTSTKL
 00051C D2FF F000 9054 00000 00054  4084  1                      MVC   @R15(L'MCBSTK),MCBSTK  Restore saved piece of stack
 000522 41F0 9000            00000  4085  1                      LA    R15,MCB
 000526 980E 9014            00014  4086  1                      LM    R0,R14,MCBREGS
 00052A D703 F04C F04C_0004C 0004C  4087  1                      WITH  (MCB,R15),'CLEAR (MCBREGS+RAR*4,4); L R15,MCBREGS+R15*4'
 USING  MCB,R15
 DROP   MCB,R15
 000534 07FE                        4118  1                      BR    RAR
 DROP   MCB,R9                      4119                       END
 DROP   PDB,R10
                                    4133                       ¿þþþþþþþþþþþþþþþþþþþþþþþþþþþþþþþþþþþþþþþþþþþþþþþþÜ
                                    4134                       Ÿ  Default subsystem (WYLBUR) is now available.  Ÿ
                                    4135                       ¾þþþþþþþþþþþþþþþþþþþþþþþþþþþþþþþþþþþþþþþþþþþþþþþþ»
 000536 9180 C13D/47E0_0013D        4136                       IF    CVFDFSYS,BEGIN      Default subsys available...
 00053E 4190 B000            00018  4151  1                      LA    MCBR,MORTMCBQ-(MCBLINK-MCB)
 USING  MCB,R9                      4152  1                      WITH  MCB
 000542 5890 9004/1299_      00004  4164  1                      WHILE ('LT MCBR,MCBLINK',NZ),BEGIN
 00054C 9140 9008/47E0_00008        4182  2                        IF    MCBFREAD,BEGIN
 000554 9110 9008/4710_00008        4197  3                          IF    MCBFNBRK,EXIT       Can't halt read
 00055C 9610 9008      00008        4215  3                          SET   MCBFNBRK            Only halt the read once
 000560 41A0 B04C            00064  4221  3                          LA    PDBR,MORTPDB
 USING  PDB,R10                     4222  3                          WITH  PDB
 000564 D737 A000 A000 00000 00000  4234  3                          CLEAR PDBHDR
 00056A D201 A000 BDA8 00000 00DC0  4241  3                          MVC   PDBLENG,=Y(L'PDBHDR)
 000570 D201 A004 900A 00004 0000A  4242  3                          MVC   PDBLIN#,MCBNO
 000576 9250 A006      00006        4243  3                          MVI   PDBCMD,TMILBRK      Halt read
 00057A 4110 B010            00028  4244  3                          LA    R1,MORTPATH
 00057E 41F0 A000            00000  4245  3                          LA    R15,PDB
 000582 58E0 BD20/0DEE       00D38  4246  3                          ACALL PATHSEND
 DROP   PDB,R10                     4250  2                        END
                                    4259  2
 000588 9120 9008/47E0_00008        4260  2                        IF    MCBFIDLE,BEGIN
 000590 94DF 9008      00008        4275  3                          CLEAR MCBFIDLE
 000594 50D0 9048            00048  4282  3                          ST    SPR,MCBREGS+SPR*4
 000598 D203 904C BD24 0004C 00D3C  4283  3                          MVC   MCBREGS+RAR*4(4),=A(REENTER)
 00059E 980F 9014            00014  4284  3                          LM    R0,R15,MCBREGS
 0005A2 07FE                        4285  3                          BR    RAR
 0005A4                             4286  2                        END
 0005A4 47F0 B52A            00542  4290  1                      END
 DROP   MCB,R9                      4295                       END
                                    4304
1MORT     (MORT2047) (12:36) (15MAR04) Local Subsystem                                                                      Page   10
0Current Usings:  (MORTBRR,R11) (CV,R12)
0Loc    Object Code    Addr1 Addr2  Stmt Lv Lineno    Source Statement           (Hibal 5, Asmedit 3.3)  HLASM R4.0  2004/03/15 12.36
+___    ______ ____    _____ _____  ____ __ ______    ______ _________
00005A8 47F0 B3C4            003DC  4305                       B     MORTWAIT
1MORT     (MORT2047) (12:36) (15MAR04) Local Subsystem                                                                      Page   11
0Current Usings:  (MORTBRR,R11) (CV,R12)
0Loc    Object Code    Addr1 Addr2  Stmt Lv Lineno    Source Statement           (Hibal 5, Asmedit 3.3)  HLASM R4.0  2004/03/15 12.36
+___    ______ ____    _____ _____  ____ __ ______    ______ _________
0                                   4307              ¿þþþþþþþþþþþþþþþþþþþþþþþþþþþþþþþþþþþþþþþþþþþþþþþþþþþþþþþþþþþþþþþþþþþþþÜ
                                    4308              Ÿ                                                                     Ÿ
                                    4309              Ÿ  LOGON -- Routine to process Mort user logon.                       Ÿ
                                    4310              Ÿ                                                                     Ÿ
                                    4311              Ÿ    On entry:                                                        Ÿ
                                    4312              Ÿ      R1 - MCB ptr                                                   Ÿ
                                    4313              Ÿ      R15- PDB ptr                                                   Ÿ
                                    4314              Ÿ                                                                     Ÿ
                                                      ¾þþþþþþþþþþþþþþþþþþþþþþþþþþþþþþþþþþþþþþþþþþþþþþþþþþþþþþþþþþþþþþþþþþþþþ»
00005AC 1891                        4315              LOGON    LR    MCBR,R1
 USING  MCB,R9                      4316                       USING MCB
 0005AE 18AF                        4325                       LR    PDBR,R15
 USING  PDB,R10                     4326                       USING PDB
                                    4335
 0005B0 D502 BDEA 9000_00E02 00000  4336                       FAIL  (MCB,NE,'MCB'),'Mort MCB error'
                                    4362
 0005CC D207 900C A024 0000C 00024  4363                       MVC   MCBSYSNM,PDBSYSNM   Save subsys name
                                    4364
 0005D2 41F0 B26C/58E0_      00284  4365                       SEGCLR
 0005DC 4100 0001            00001  4378                       LA    R0,CTLSNSI          Sense session info
 0005E0 58E0 BD2C/0DEE       00D44  4379                       ACALL CNTL
 0005E6 4740 B974            0098C  4383                       BM    LOGOFF              Hung-up
 0005EA 4770 B62A            00642  4384                       IF    Z,BEGIN             Ok...
 0005EE 41F0 A038            00038  4395  1                      LA    R15,PDBTEXT
 USING  SIB,R15                     4396  1                      WITH  (SIB,R15)
 0005F2 D200 9009 F048 00009 00048  4409  1                      MVC   MCBTYPE,SIBTYPE     Front-end type
 0005F8 9130 F07A/4780_0007A        4410  1                      IF    SIBFSPR+SIBFOPR,'SET MCBFPRIV'  Priv'd
 000604 9501 9009/4780_00009        4439  1                      IF    (MCBTCONS,OR,(SIBACCT,Z)),'SET MCBFQRET'  Quietly
 00061A D604 F070 F070_00070 00070  4480  1                      IF    (SIBACCT,NZ),BEGIN
 000624 9505 9009/4780_00009        4496  2                        IF    MCBTVIRT,EXIT       Don't ever prompt virtual
 00062C 9180 C13D/47E0_0013D        4514  2                        IF    (~CVFDFSYS,OR,(MCBSYSNM,EQ,CVDEFSYS)),'SET MCBFRENT'
 000642                             4557  1                      END
 DROP   SIB,R15                     4561                       END
                                    4570
 000642 41F0 B26C/58E0_      00284  4571                       SEGCLR
                                    4584
 00064C 9501 9009/4780_00009        4585                       IF    MCBTCONS,IDLE       don't write anything if console
                                    4603
 000654 9505 9009/4780_00009        4604                       IF    ~MCBTVIRT,'SEG X"2F"'  bell
 00066E D607 900C 900C_0000C 0000C  4641                       IF    ((MCBSYSNM,Z),OR,(MCBSYSNM,EQ,'MILTEN  ')),BEGIN
 000682 58E0 BD34/0DEE       00D4C  4673  1           DOWN       ACALL TIMESTMP            Time-stamp
 000688 9180 C13C/47E0_0013C        4677  1                      IF    CVFTEST,'SEGB "**TEST**"'
 0006A2 4110 BCD8/4100_      00CF0  4715  1                      SEGB  'System unavailable.  Waiting for'
 0006B4 4110 C290/4100_      00290  4733  1                      SEGT  CVDEFSYS
 0006C6 4110 BDEE/4100_      00E06  4761  1                      SEG   '.'
 0006D8 9505 9009/4770_00009        4778  1                      IF    MCBTVIRT,'SEGWR; BM LOGOFF; B IDLE'
 0006F4 47F0 B78E            007A6  4824  1                      B     WR
 0006F8                             4825                       END
                                    4829
 0006F8 58E0 BD34/0DEE       00D4C  4830                       ACALL TIMESTMP            Time-stamp
 0006FE 9180 C13C/47E0_0013C        4834                       IF    CVFTEST,'SEGB "**TEST**"'
 000718 D507 900C C290_0000C 00290  4872                       IF    (MCBSYSNM,EQ,CVDEFSYS),BEGIN
 000722 4110 BDEF/4100_      00E07  4890  1                      SEGB  'System interruption. '
1MORT     (MORT2047) (12:36) (15MAR04) Local Subsystem                                                                      Page   12
0Current Usings:  (MCB,R9) (PDB,R10) (MORTBRR,R11) (CV,R12)
0Loc    Object Code    Addr1 Addr2  Stmt Lv Lineno    Source Statement           (Hibal 5, Asmedit 3.3)  HLASM R4.0  2004/03/15 12.36
+___    ______ ____    _____ _____  ____ __ ______    ______ _________
0000734 4110 900C/4100_      0000C  4908  1                      SEGTB MCBSYSNM
 000746 4110 BDAA/4100_      00DC2  4936  1                      SEG   'failed'
 000758 9505 9009/4770_00009        4953  1                      IF    MCBTVIRT,'SEGWR "."; B LOGOFF'
 000776 4110 BE04/4100_      00E1C  4992  1                      SETMSG ', waiting for reload.'
 00077E 47F0 B784            0079C  4996  1                      B     WRMSG
 000782                             4997                       END
                                    5001
 000782 4110 900C/4100_      0000C  5002                       SEGTB MCBSYSNM
 000794 4110 BE19/4100_      00E31  5030                       SETMSG 'failed.'
                                    5034
 00079C 41F0 B26C/58E0_      00284  5035              WRMSG    SEG   (R1),(R0)
 0007A6 1B00/41F0 B26C_             5059              WR       SEGWR
 0007B2 4740 B974            0098C  5084                       BM    LOGOFF              Hung-up
 0007B6 9180 C13D/4710_0013D        5085              REPROMPT IF    CVFDFSYS,REENTER    Re-enter the default system
 0007BE 58E0 BD34/0DEE       00D4C  5104                       ACALL TIMESTMP
 0007C4 9180 C13C/47E0_0013C        5108                       IF    CVFTEST,'SEGB "**TEST**"'
 0007DE 4110 BE20/4100_      00E38  5146                       SEGB  'Please standby, or type LOGOFF...'
 0007F0 58E0 BD48/0DEE       00D60  5164                       ACALL READ
 0007F6 4740 B974            0098C  5168                       BM    LOGOFF              Hung-up
 0007FA 4720 B79E            007B6  5169                       BP    REPROMPT            Attn or read broken
                                    5170
 0007FE 41F0 B24C/58E0_      00264  5171                       SCINIT (R1),(R0),MRTSNCB
 000808 4110 B84A/41F0_      00862  5193                       SCAN  PRT,MRTSNCB
 000816 4780 B8CE            008E6  5212                       BZ    NOSYS
 00081A 47F0 B79E            007B6  5213                       B     REPROMPT
                                    5214
 00081E 9620 9008      00008        5215              IDLE     SET   MCBFIDLE
 000822 58F0 B00C            00024  5222                       L     R15,MORTSTKL
 000826 19DF/47B0 B828_             5223                       FAIL  (SPR,LT,R15),'Mort stack error'
 000840 D2FF 9054 F000 00054 00000  5247                       MVC   MCBSTK,@R15         Save stack across dispatch
 000846 41E0 B83A            00852  5248                       LA    RAR,IDLEATTN
 00084A 900F 9014            00014  5249                       STM   R0,R15,MCBREGS
 00084E 47F0 B3CE            003E6  5250                       B     MORTLOOP
                                    5251
 000852 94DF 9008      00008        5252              IDLEATTN CLEAR MCBFIDLE
 000856 9180 A00D/4710_0000D        5260                       IF    PDBCPLB.CPLBLGF,LOGOFF
 00085E 47F0 B66A            00682  5279                       B     DOWN
1MORT     (MORT2047) (12:36) (15MAR04) Local Subsystem                                                                      Page   13
0Current Usings:  (MCB,R9) (PDB,R10) (MORTBRR,R11) (CV,R12)
0Loc    Object Code    Addr1 Addr2  Stmt Lv Lineno    Source Statement           (Hibal 5, Asmedit 3.3)  HLASM R4.0  2004/03/15 12.36
+___    ______ ____    _____ _____  ____ __ ______    ______ _________
0                                   5281              ***
                                    5282              ***  Mort commands.
                                    5283              ***
 000862 0B0008E6E6C1C9E3            5284              PRT      SCKW  WAIT,NOSYS,A
 00086A 050008E6D4C9D3E3            5286                       SCKW  MILTEN,NOSYS
 000874 0B0009A4C8C5D3D7            5288                       SCKW  HELP,HELP,A
 00087C 000009A46F                  5290                       SCKW  ?,HELP
 000881 03000A40C2D6D6E3            5292                       SCKW  BOOT,BOOT
 000889 01000AC2D6E2                5294                       SCKW  OS,OS
 00088F 8D000BB0E2E4C2E2            5296                       SCKW  SUBSYS,SUBSYS,(A,P)
 000899 8D000BB0E2E8E2E3            5298                       SCKW  SYSTEM,SUBSYS,(A,P)
 0008A3 05000BB0E6E8D3C2            5300                       SCKW  WYLBUR,SUBSYS
 0008AD 05000BB0D6D3C4E6            5302                       SCKW  OLDWYL,SUBSYS
 0008B7 06000BB0E3C5E2E3            5304                       SCKW  TESTWYL,SUBSYS
 0008C2 05000BB0C4C5E5E6            5306                       SCKW  DEVWYL,SUBSYS
 0008CC 07000BB0C3D6D5E2            5308                       SCKW  CONSOLES,SUBSYS
 0008D8 0500098CD3D6C7D6            5310                       SCKW  LOGOFF,LOGOFF
 0008E2 FF000904                    5312                       SCKW  ,UNREC
-0008E6 4110 C290/4100_      00290  5315              NOSYS    SEGTB CVDEFSYS
 0008F8 4110 BE41/4100_      00E59  5343                       SETMSG 'is not up yet.  Please standby.'
 000900 47F0 B784            0079C  5347                       B     WRMSG
                                    5348
 000904 41F0 B26C/58E0_      00284  5349              UNREC    SEG   (R1),(R0)
 00090E 4110 BE60/4100_      00E78  5373                       SETMSG ': invalid -- type "?" for info.'
 000916 47F0 B784            0079C  5377                       B     WRMSG
1MORT     (MORT2047) (12:36) (15MAR04) Local Subsystem                                                                      Page   14
0Current Usings:  (MCB,R9) (PDB,R10) (MORTBRR,R11) (CV,R12)
0Loc    Object Code    Addr1 Addr2  Stmt Lv Lineno    Source Statement           (Hibal 5, Asmedit 3.3)  HLASM R4.0  2004/03/15 12.36
+___    ______ ____    _____ _____  ____ __ ______    ______ _________
000091A 9104 9008/4710_00008        5379              REENTER  IF    MCBFQRET,REENTERQ
 000922 9505 9009/4780_00009        5398                       IF    ~MCBTVIRT,'SEG X"2F"'  bell
 00093C 58E0 BD34/0DEE       00D4C  5435                       ACALL TIMESTMP            Time-stamp
 000942 9180 C13C/47E0_0013C        5439                       IF    CVFTEST,'SEGB "**TEST**"'
                                    5477
 00095C 9102 9008/47E0_00008        5478                       IF    MCBFRENT,BEGIN      Give re-enter prompt...
 000964 9610 9008      00008        5493  1                      SET   MCBFNBRK            Don't halt this one
 000968 4110 BE7F/4100_      00E97  5499  1                      SEGB  'Press RETURN to continue...'
 00097A 58E0 BD48/0DEE       00D60  5517  1                      ACALL READ
 000980 4740 B974            0098C  5521  1                      BM    LOGOFF              Hung-up
 000984                             5522                       END
                                    5526
 000984 41F0 BCF8            00D10  5527              REENTERQ LA    R15,=CL8'#DEFAULT'  WYLBUR, usually
 000988 47F0 BBFE            00C16  5528                       B     EOS
                                    5529
 00098C 4110 BE9A/4100_      00EB2  5530              LOGOFF   SEGWR 'End of session.'
 00099E 1BFF                        5548                       CLEAR R15
 0009A0 47F0 BBFE            00C16  5552                       B     EOS
1MORT     (MORT2047) (12:36) (15MAR04) Local Subsystem                                                                      Page   15
0Current Usings:  (MCB,R9) (PDB,R10) (MORTBRR,R11) (CV,R12)
0Loc    Object Code    Addr1 Addr2  Stmt Lv Lineno    Source Statement           (Hibal 5, Asmedit 3.3)  HLASM R4.0  2004/03/15 12.36
+___    ______ ____    _____ _____  ____ __ ______    ______ _________
0                                   5554              ¿þþþþþþþþþþþþþþþþþþþþþþþþþþþþþþþþþþþþþþþþþþþþþþþþþþþþþþþþþþþþþþþþþþþþþÜ
                                    5555              Ÿ                                                                     Ÿ
                                    5556              Ÿ  HELP -- MORT HELP command.                                         Ÿ
                                    5557              Ÿ                                                                     Ÿ
                                                      ¾þþþþþþþþþþþþþþþþþþþþþþþþþþþþþþþþþþþþþþþþþþþþþþþþþþþþþþþþþþþþþþþþþþþþþ»
00009A4 4110 C290/4100_      00290  5558              HELP     SEGTB CVDEFSYS
 0009B6 4110 BD54/4100_      00D6C  5586                       SEGB  'is not up yet.  You will automatically enter'
 0009C8 4110 C290/4100_      00290  5604                       SEGTB CVDEFSYS
 0009DA 4110 BEA9/4100_      00EC1  5632                       SEG   X'15'
 0009EC 4110 BEAA/4100_      00EC2  5649                       SEGB  'as soon as it is available.  If you don''t want to'
 0009FE 4110 BD00/4100_      00D18  5667                       SEG   'wait you'
 000A10 4110 BEA9/4100_      00EC1  5684                       SEG   X'15'
 000A22 4110 BDB0/4100_      00DC8  5701                       SEG   'can type LOGOFF to terminate your session now.'
 000A34 4110 BEA9/4100_      00EC1  5718                       SETMSG X'15'
 000A3C 47F0 B784            0079C  5722                       B     WRMSG
1MORT     (MORT2047) (12:36) (15MAR04) Local Subsystem                                                                      Page   16
0Current Usings:  (MCB,R9) (PDB,R10) (MORTBRR,R11) (CV,R12)
0Loc    Object Code    Addr1 Addr2  Stmt Lv Lineno    Source Statement           (Hibal 5, Asmedit 3.3)  HLASM R4.0  2004/03/15 12.36
+___    ______ ____    _____ _____  ____ __ ______    ______ _________
0                                   5724              ¿þþþþþþþþþþþþþþþþþþþþþþþþþþþþþþþþþþþþþþþþþþþþþþþþþþþþþþþþþþþþþþþþþþþþþÜ
                                    5725              Ÿ                                                                     Ÿ
                                    5726              Ÿ  BOOT -- MORT BOOT command  (not priv'd, but secret).               Ÿ
                                    5727              Ÿ                                                                     Ÿ
                                                      ¾þþþþþþþþþþþþþþþþþþþþþþþþþþþþþþþþþþþþþþþþþþþþþþþþþþþþþþþþþþþþþþþþþþþþþ»
0000A40 4110 BEDB/4100_      00EF3  5728              BOOT     SEG   'S TESTWYL'
 000A52 41F0 B24C/58E0_      00264  5745                       SCTELL MRTSNCB
 000A5C 1200/47D0 BA5C_             5757                       WHILE ((R0,POS),AND,(@R1,EQ,' ')),'LA R1,@R1+1; DECR R0'
 000A74 1200/47D0 BAA2              5797                       IF    (R0,POS),BEGIN
 000A7A 9001 D040/4BD0_      00040  5811  1                      PUSH  (R0,R1)
 000A8A 956B 1000/4780_00000        5819  1                      IF    (@R1,NE,','),'SEG ","'
 000AA4 41D0 D00C/9801_      0000C  5857  1                      POP   (R0,R1)
 000AB0 41F0 B26C/58E0_      00284  5864  1                      SEG   (R1),(R0)
 000ABA                             5887                       END
 000ABA 4DE0 BAF2            00B0A  5891                       LCALL OSCMD
 000ABE 47F0 B79E            007B6  5893                       B     REPROMPT
1MORT     (MORT2047) (12:36) (15MAR04) Local Subsystem                                                                      Page   17
0Current Usings:  (MCB,R9) (PDB,R10) (MORTBRR,R11) (CV,R12)
0Loc    Object Code    Addr1 Addr2  Stmt Lv Lineno    Source Statement           (Hibal 5, Asmedit 3.3)  HLASM R4.0  2004/03/15 12.36
+___    ______ ____    _____ _____  ____ __ ______    ______ _________
0                                   5895              ¿þþþþþþþþþþþþþþþþþþþþþþþþþþþþþþþþþþþþþþþþþþþþþþþþþþþþþþþþþþþþþþþþþþþþþÜ
                                    5896              Ÿ                                                                     Ÿ
                                    5897              Ÿ  OS -- MORT OS command  (priv'd).                                   Ÿ
                                    5898              Ÿ                                                                     Ÿ
                                                      ¾þþþþþþþþþþþþþþþþþþþþþþþþþþþþþþþþþþþþþþþþþþþþþþþþþþþþþþþþþþþþþþþþþþþþþ»
0000AC2 9108 9008/4710_00008        5899              OS       IF    ~MCBFPRIV,'SETMSG "Privileged."; B WRMSG'
 000AD6 41F0 B24C/58E0_      00264  5925                       SCTELL MRTSNCB
 000AE0 1200/47D0 BAE0_             5937                       WHILE ((R0,POS),AND,(@R1,EQ,' ')),'LA R1,@R1+1; DECR R0'
 000AF8 41F0 B26C/58E0_      00284  5977                       SEG   (R1),(R0)
 000B02 4DE0 BAF2            00B0A  6000                       LCALL OSCMD
 000B06 47F0 B79E            007B6  6002                       B     REPROMPT
1MORT     (MORT2047) (12:36) (15MAR04) Local Subsystem                                                                      Page   18
0Current Usings:  (MCB,R9) (PDB,R10) (MORTBRR,R11) (CV,R12)
0Loc    Object Code    Addr1 Addr2  Stmt Lv Lineno    Source Statement           (Hibal 5, Asmedit 3.3)  HLASM R4.0  2004/03/15 12.36
+___    ______ ____    _____ _____  ____ __ ______    ______ _________
0                                   6004              ¿þþþþþþþþþþþþþþþþþþþþþþþþþþþþþþþþþþþþþþþþþþþþþþþþþþþþþþþþþþþþþþþþþþþþþÜ
                                    6005              Ÿ                                                                     Ÿ
                                    6006              Ÿ  OSCMD -- Local routine to send command in SEG buffer to OS.        Ÿ
                                    6007              Ÿ                                                                     Ÿ
                                                      ¾þþþþþþþþþþþþþþþþþþþþþþþþþþþþþþþþþþþþþþþþþþþþþþþþþþþþþþþþþþþþþþþþþþþþþ»
0000B0A 50E0 D044/902B_      00044  6008              OSCMD    LPROC
 000B22 4BD0 BDE2/BED7_      00DFA  6030                       PUSH  105,PTR=R6
 000B32 5820 B278            00290  6037                       L     R2,MRTSGLENF
 000B36 5920 BD84/47D0_      00D9C  6038                       CEIL  R2,100              Not too much
 000B42 41F0 2005            00005  6057                       LA    R15,@R2+4+1         Len includes mcs hdr & blank
 000B46 40F0 6000            00000  6058                       STH   R15,@R6
 000B4A D701 6002 6002 00002 00002  6059                       CLEAR (@R6+2,2)           Mcs flags
 000B50 41F2 6004            00004  6066                       LA    R15,@R6+4(R2)       Last byte
 000B54 9240 F000      00000        6067                       MVI   @R15,C' '           Make it a blank
 000B58 58F0 B28C            002A4  6068                       L     R15,MRTSGLOC
 000B5C 0620/1222/4740_             6069                       MOVE  R2,@R6+4,@R15       Text
 000B68 4510 BB58/0000_      00B70  6107                       MODESET KEY=ZERO          ********
 000B76 1816                        6114                       LR    R1,R6               Parm ptr
 000B78 1B00                        6115                       CLEAR R0                  Ucmid=0  (master console)
 000B7A 0A22                        6119                       SVC   34                  Send command to os
 000B7C 4510 BB6C/0000_      00B84  6120                       MODESET KEY=NZERO         ********
 000B8A 41F0 B26C/58E0_      00284  6127                       SEGCLR
 000B94 41D0 D070/50D0_      00070  6140                       POP   105
 000B9C 41D0 D030/982B_      00030  6145                       PEND
1MORT     (MORT2047) (12:36) (15MAR04) Local Subsystem                                                                      Page   19
0Current Usings:  (MCB,R9) (PDB,R10) (MORTBRR,R11) (CV,R12)
0Loc    Object Code    Addr1 Addr2  Stmt Lv Lineno    Source Statement           (Hibal 5, Asmedit 3.3)  HLASM R4.0  2004/03/15 12.36
+___    ______ ____    _____ _____  ____ __ ______    ______ _________
0                                   6161              ¿þþþþþþþþþþþþþþþþþþþþþþþþþþþþþþþþþþþþþþþþþþþþþþþþþþþþþþþþþþþþþþþþþþþþþÜ
                                    6162              Ÿ                                                                     Ÿ
                                    6163              Ÿ  SUBSYS -- MORT SUBSYS command.                                     Ÿ
                                    6164              Ÿ                                                                     Ÿ
                                                      ¾þþþþþþþþþþþþþþþþþþþþþþþþþþþþþþþþþþþþþþþþþþþþþþþþþþþþþþþþþþþþþþþþþþþþþ»
0000BB0 41F0 F004            00004  6165              SUBSYS   WITH  (SCANCB,R15),'LA R15,SCNKW'
 USING  SCANCB,R15
 DROP   SCANCB,R15
 000BB4 4770 BBFE            00C16  6190                       BNZ   EOS                 System name specified
                                    6191
 000BB8 4110 BD88/4100_      00DA0  6192                       SETMSG 'NONE'
 000BC0 4170 C2A0            002A0  6196                       LA    R7,CVSUBQH-(SUBLINK-SUB)  dummy first entry
 000BC4                             6197                       LOOP  BEGIN
 USING  SUB,R7                      6203  1                      WITH  (SUB,R7)
 000BC4 5870 7008/1277_      00008  6216  1                      WHILE ('LT R7,SUBLINK',NZ)
 000BCE D507 BCC8 7010_00CE0 00010  6233  1                      IF    (SUBNAME,EQ,'MILTEN  '),NEXT
 000BD8 D607 7010 7010_00010 00010  6253  1                      IF    (SUBNAME,Z),NEXT
 000BE2 4110 7010/4100_      00010  6272  1                      SEGTB SUBNAME
 000BF4 1B00                        6300  1                      CLEAR R0
 000BF6 47F0 BBAC            00BC4  6304                       END
 DROP   SUB,R7
 000BFA 1200/4780 BBF2_             6314                       IF    (R0,NZ),'SEGB (R1),(R0)'
 000C0A 4110 BD8C/4100_      00DA4  6357                       SETMSG '- subsystems'
 000C12 47F0 B784            0079C  6361                       B     WRMSG
1MORT     (MORT2047) (12:36) (15MAR04) Local Subsystem                                                                      Page   20
0Current Usings:  (MCB,R9) (PDB,R10) (MORTBRR,R11) (CV,R12)
0Loc    Object Code    Addr1 Addr2  Stmt Lv Lineno    Source Statement           (Hibal 5, Asmedit 3.3)  HLASM R4.0  2004/03/15 12.36
+___    ______ ____    _____ _____  ____ __ ______    ______ _________
0000C16 D737 A000 A000 00000 00000  6363              EOS      CLEAR PDBHDR
 000C1C D201 A000 BDA8 00000 00DC0  6371                       MVC   PDBLENG,=Y(L'PDBHDR)
 000C22 D201 A004 900A 00004 0000A  6372                       MVC   PDBLIN#,MCBNO
 000C28 9240 A006      00006        6373                       MVI   PDBCMD,TMILEOS
 000C2C 12FF/4780 BC34              6374                       IF    (R15,NZ),BEGIN
 000C32 9620 A007      00007        6388  1                      SET   PDBCMDFL.EOSXCTL
 000C36 D207 A024 F000 00024 00000  6395  1                      MVC   PDBSYSNM,@R15       Name of subsys to go to
 000C3C D505 BDE4 A024_00DFC 00024  6396  1                      IF    (PDBSYSNM,EQ,'MILTEN'),'MVC PDBSYSNM,CVDEFSYS'
 000C4C                             6419                       END
                                    6423
 000C4C 4110 B010            00028  6424                       LA    R1,MORTPATH
 000C50 41F0 A000            00000  6425                       LA    R15,PDB
 000C54 58E0 BD20/0DEE       00D38  6426                       ACALL PATHSEND
                                    6430                       ¿þþþþþþþþþþþþþþþþþþþþþþþþþþþþþþþþþþþþþþþþþþþþþþþþþÜ
                                    6431                       Ÿ  Dequeue our MCB, then free the control block.  Ÿ
                                    6432                       ¾þþþþþþþþþþþþþþþþþþþþþþþþþþþþþþþþþþþþþþþþþþþþþþþþþ»
 000C5A 4170 B000            00018  6433                       LA    R7,MORTMCBQ-(MCBLINK-MCB)  Dummy first link
 000C5E                             6434                       LOOP  BEGIN
 DROP   MCB,R9                      6440  1                      WITH  (MCB,R7)
 USING  MCB,R7
 000C5E 5860 7004/1266_      00004  6461  1                      WHILE ('LT R6,MCBLINK',NZ)
 000C68 1969/4780 BC8C              6478  1                      IF    (R6,EQ,MCBR),DQMCB
 000C6E 1876                        6496  1                      LR    R7,R6
 000C70 D502 BDEA 7000_00E02 00000  6497  1                      FAIL  (MCB,NE,'MCB'),'Bad Mort MCB'
 000C8A 47F0 BC46            00C5E  6523                       END
 USING  MCB,R9
 DROP   MCB,R7
 000C8E FEDC12/C2818440D_           6542                       FAIL  'Bad Mort MCB Queue'
                                    6547
 000CA3 00
 000CA4 D203 7004 9004 00004 00004  6548              DQMCB    MVC   MCBLINK-MCB(4,R7),MCBLINK  Dequeue
 000CAA D203 9004 BD98 00004 00DB0  6549                       MVC   MCBLINK,=F'-1'      Safety
                                    6550
 000CB0 48F0 900A            0000A  6551                       LH    R15,MCBNO
 000CB4 89F0 0002            00002  6552                       SLL   R15,2
 000CB8 5AF0 B000            00018  6553                       A     R15,MORTSATP
 000CBC D703 F000 F000 00000 00000  6554                       CLEAR (@R15,4)            Free MSAT entry
 000CC2 D203 9000 BD9C 00000 00DB4  6561                       MVC   MCB(4),=C'OMCB'
 000CC8 4110 9000            00000  6562                       LA    R1,MCB
 000CCC 58E0 BDA0/0DEE       00DB8  6563                       VCALL FREECORE
 000CD2 47F0 B3CE            003E6  6567                       B     MORTLOOP
                                    6568
                                    6569                       QLTORG
1MORT     (MORT2047) (12:36) (15MAR04) Local Subsystem                                                                      Page   21
0Current Usings:  (MCB,R9) (PDB,R10) (MORTBRR,R11) (CV,R12)
0Loc    Object Code    Addr1 Addr2  Stmt Lv Lineno    Source Statement           (Hibal 5, Asmedit 3.3)  HLASM R4.0  2004/03/15 12.36
+___    ______ ____    _____ _____  ____ __ ______    ______ _________
0                                   6640              ¿þþþþþþþþþþþþþþþþþþþþþþþþþþþþþþþþþþþþþþþþþþþþþþþþþþþþþþþþþþþþþþþþþþþþþÜ
                                    6641              Ÿ                                                                     Ÿ
                                    6642              Ÿ  TIMESTMP -- Routine to seg time-stamp.                             Ÿ
                                    6643              Ÿ                                                                     Ÿ
                                                      ¾þþþþþþþþþþþþþþþþþþþþþþþþþþþþþþþþþþþþþþþþþþþþþþþþþþþþþþþþþþþþþþþþþþþþþ»
0000F1A 50E0 D044/902B_      00044  6644              TIMESTMP PROC
 USING  *,R8
 000F34 58E0 839C/0DEE       012C0  6680                       VCALL LOCALTOD            Current time
 000F3A 4BD0 83C6/BED7_      012EA  6684                       PUSH  11,PTR=R15
 000F4A 58E0 83A0/0DEE       012C4  6691                       VCALL FMTTIME
 000F50 4100 0005/41F0_      00005  6695                       SEGB  (R1),5              Hh:mm
 000F5E 41D0 D010/50D0_      00010  6722                       POP   11
 000F66 41D0 D030/982B_      00030  6727                       PEND
 DROP   *,R8
1MORT     (MORT2047) (12:36) (15MAR04) Local Subsystem                                                                      Page   22
0Current Usings:  (MCB,R9) (PDB,R10) (MORTBRR,R11) (CV,R12)
0Loc    Object Code    Addr1 Addr2  Stmt Lv Lineno    Source Statement           (Hibal 5, Asmedit 3.3)  HLASM R4.0  2004/03/15 12.36
+___    ______ ____    _____ _____  ____ __ ______    ______ _________
0                                   6748              ¿þþþþþþþþþþþþþþþþþþþþþþþþþþþþþþþþþþþþþþþþþþþþþþþþþþþþþþþþþþþþþþþþþþþþþÜ
                                    6749              Ÿ                                                                     Ÿ
                                    6750              Ÿ  MORTSEG -- Seg routine to format and send terminal write.          Ÿ
                                    6751              Ÿ                                                                     Ÿ
                                    6752              Ÿ    On entry:                                                        Ÿ
                                    6753              Ÿ      R15 - SEGCB ptr                                                Ÿ
                                    6754              Ÿ                                                                     Ÿ
                                    6755              Ÿ    On exit, R15 (and CC):                                           Ÿ
                                    6756              Ÿ      -4 - logoff (hung-up phone)                                    Ÿ
                                    6757              Ÿ       0 - normal completion                                         Ÿ
                                    6758              Ÿ       4 - attn                                                      Ÿ
                                    6759              Ÿ                                                                     Ÿ
                                                      ¾þþþþþþþþþþþþþþþþþþþþþþþþþþþþþþþþþþþþþþþþþþþþþþþþþþþþþþþþþþþþþþþþþþþþþ»
0000F7A 50E0 D044/902B_      00044  6760              MORTSEG  PROC
 USING  *,R8
                                    6796                       WITH  MCB                 (Entry assumption)
 000F94 187F                        6799                       LR    R7,R15
 USING  SEGCB,R7                    6800                       WITH  (SEGCB,R7)
                                    6813
 000F96 1BFF                        6814                       CLEAR R15                 Preset good return code
 000F98 9502 7000/4770_00000        6818                       IF    ~SEGCBWR,EXIT       Not segwr, ignore
 000FA0 1200/47D0 80B4              6836                       IF    (R0,NP),EXIT        No text, ignore
                                    6853
 000FA6 58A0 8348            012CC  6854                       L     PDBR,=A(MORTPDB)
                                    6855                       WITH  PDB
 000FAA D737 A000 A000 00000 00000  6858                       CLEAR PDBHDR
 000FB0 D201 A004 900A 00004 0000A  6865                       MVC   PDBLIN#,MCBNO
 000FB6 9241 A006      00006        6866                       MVI   PDBCMD,TMILWRIT
 000FBA 58F0 700C            0000C  6867                       L     R15,SEGCBLENF
 000FBE 411F A038            00038  6868                       LA    R1,PDBTEXT(R15)
 000FC2 9215 1000      00000        6869                       MVI   @R1,X'15'           Ending cr
 000FC6 41F0 F001            00001  6870                       LA    R15,@R15+1
 000FCA 40F0 A032            00032  6871                       STH   R15,PDBWC
 000FCE 41F0 F038            00038  6872                       LA    R15,L'PDBHDR+@R15
 000FD2 40F0 A000            00000  6873                       STH   R15,PDBLENG
 000FD6 5810 834C            012D0  6874                       L     R1,=A(MORTPATH)
 000FDA 41F0 A000            00000  6875                       LA    R15,PDB
 000FDE 4DE0 827A            011FE  6876                       LCALL PATHSEND
                                    6878
 000FE2 18F7/58E0 8350_             6879                       SEGCLR (R7)               Reset seg buffer
                                    6890
 000FEA 58F0 B00C            00024  6891              MORTWR   L     R15,MORTSTKL
 000FEE 19DF/47B0 8086_             6892                       FAIL  (SPR,LT,R15),'Mort stack too deep'
 00100A D2FF 9054 F000 00054 00000  6916                       MVC   MCBSTK,@R15         Save stack across dispatch
 001010 41E0 809A            0101E  6917                       LA    RAR,MORTWC          Go here when write completes
 001014 900F 9014            00014  6918                       STM   R0,R15,MCBREGS
 001018 58E0 8354            012D8  6919                       L     RAR,=A(MORTLOOP)
 00101C 07FE                        6920                       BR    RAR
                                    6921
 00101E 1BFF                        6922              MORTWC   CLEAR R15
 001020 9180 A00C/47E0_0000C        6927                       IF    PDBCPLA.CPLAATTN,'LA R15,4'
 00102C 9180 A00D/47E0_0000D        6949                       IF    PDBCPLB.CPLBLGF,'LH R15,=H"-4"'
 001038 41D0 D030/982B_      00030  6971                       PEND
1MORT     (MORT2047) (12:36) (15MAR04) Local Subsystem                                                                      Page   23
0Current Usings:  (MCB,R9) (PDB,R10) (MORTBRR,R11) (CV,R12)
0Loc    Object Code    Addr1 Addr2  Stmt Lv Lineno    Source Statement           (Hibal 5, Asmedit 3.3)  HLASM R4.0  2004/03/15 12.36
+___    ______ ____    _____ _____  ____ __ ______    ______ _________
0DROP   SEGCB,R7
 DROP   *,R8
1MORT     (MORT2047) (12:36) (15MAR04) Local Subsystem                                                                      Page   24
0Current Usings:  (MCB,R9) (PDB,R10) (MORTBRR,R11) (CV,R12)
0Loc    Object Code    Addr1 Addr2  Stmt Lv Lineno    Source Statement           (Hibal 5, Asmedit 3.3)  HLASM R4.0  2004/03/15 12.36
+___    ______ ____    _____ _____  ____ __ ______    ______ _________
0                                   6997              ¿þþþþþþþþþþþþþþþþþþþþþþþþþþþþþþþþþþþþþþþþþþþþþþþþþþþþþþþþþþþþþþþþþþþþþÜ
                                    6998              Ÿ                                                                     Ÿ
                                    6999              Ÿ  READ -- Routine to do terminal read (prompt is in SEG buffer).     Ÿ
                                    7000              Ÿ                                                                     Ÿ
                                    7001              Ÿ    On exit, R15 (and CC):                                           Ÿ
                                    7002              Ÿ     -4 - logoff (hung-up phone)                                     Ÿ
                                    7003              Ÿ      0 - normal completion (R1,R0 - response loc, len)              Ÿ
                                    7004              Ÿ      4 - attn                                                       Ÿ
                                    7005              Ÿ      8 - reverse break                                              Ÿ
                                    7006              Ÿ                                                                     Ÿ
                                                      ¾þþþþþþþþþþþþþþþþþþþþþþþþþþþþþþþþþþþþþþþþþþþþþþþþþþþþþþþþþþþþþþþþþþþþþ»
000104C 50E0 D044/902B_      00044  7007              READ     PROC
 USING  *,R8
                                    7043                       WITH  MCB                 (Entry assumption)
 001066 5870 8286            012DC  7046                       L     R7,=A(MRTSG)
 USING  SEGCB,R7                    7047                       WITH  (SEGCB,R7)
 00106A 58A0 8276            012CC  7060                       L     PDBR,=A(MORTPDB)
                                    7061                       WITH  PDB
 00106E D737 A000 A000 00000 00000  7064                       CLEAR PDBHDR
 001074 D201 A004 900A 00004 0000A  7071                       MVC   PDBLIN#,MCBNO
 00107A 9242 A006      00006        7072                       MVI   PDBCMD,TMILREAD
 00107E 9680 A009      00009        7073                       SET   PDBMODB.MODBUPPR
 001082 D201 A030 8298 00030 012EE  7080                       MVC   PDBINCT,=Y(L'MCBBUFR)  max input len
 001088 58F0 700C            0000C  7081                       L     R15,SEGCBLENF
 00108C 40F0 A034            00034  7082                       STH   R15,PDBPC
 001090 41F0 F038            00038  7083                       LA    R15,L'PDBHDR+@R15
 001094 40F0 A000            00000  7084                       STH   R15,PDBLENG
 001098 5810 827A            012D0  7085                       L     R1,=A(MORTPATH)
 00109C 41F0 A000            00000  7086                       LA    R15,PDB
 0010A0 4DE0 81A8            011FE  7087                       LCALL PATHSEND
 0010A4 9640 9008      00008        7089                       SET   MCBFREAD
                                    7095
 0010A8 18F7/58E0 827E_             7096                       SEGCLR (R7)               Reset seg buffer
                                    7107
 0010B0 58F0 B00C            00024  7108              MORTRD   L     R15,MORTSTKL
 0010B4 19DF/47B0 807A_             7109                       FAIL  (SPR,LT,R15),'Mort stack too deep'
 0010D0 D2FF 9054 F000 00054 00000  7133                       MVC   MCBSTK,@R15         Save stack across dispatch
 0010D6 41E0 808E            010E4  7134                       LA    RAR,MORTRC          Go here when read completes
 0010DA 900F 9014            00014  7135                       STM   R0,R15,MCBREGS
 0010DE 58E0 8282            012D8  7136                       L     RAR,=A(MORTLOOP)
 0010E2 07FE                        7137                       BR    RAR
                                    7138
 0010E4 94BF 9008      00008        7139              MORTRC   CLEAR MCBFREAD
 0010E8 4800 A036            00036  7147                       LH    R0,PDBRC
 0010EC 4810 A034            00034  7148                       LH    R1,PDBPC
 0010F0 1B01                        7149                       SR    R0,R1               Amount read
 0010F2 41F1 A038            00038  7150                       LA    R15,PDBTEXT(R1)
 0010F6 D23F 9154 F000 00154 00000  7151                       MVC   MCBBUFR,@R15        Save read text
 0010FC 4110 9154            00154  7152                       SETMSG MCBBUFR,(R0)        Loc, len
 001100 1BFF                        7165                       CLEAR R15                 Rc
 001102 9180 A00C/47E0_0000C        7169                       IF    PDBCPLA.CPLAATTN,'LA R15,4'
 00110E 9110 A00C/47E0_0000C        7191                       IF    PDBCPLA.CPLABRK,'LA R15,8'
 00111A 9180 A00D/47E0_0000D        7213                       IF    PDBCPLB.CPLBLGF,'LH R15,=H"-4"'
1MORT     (MORT2047) (12:36) (15MAR04) Local Subsystem                                                                      Page   25
0Current Usings:  (MCB,R9) (PDB,R10) (MORTBRR,R11) (CV,R12)
0Loc    Object Code    Addr1 Addr2  Stmt Lv Lineno    Source Statement           (Hibal 5, Asmedit 3.3)  HLASM R4.0  2004/03/15 12.36
+___    ______ ____    _____ _____  ____ __ ______    ______ _________
0001126 41D0 D030/982B_      00030  7235                       PEND
 DROP   SEGCB,R7
 DROP   *,R8
1MORT     (MORT2047) (12:36) (15MAR04) Local Subsystem                                                                      Page   26
0Current Usings:  (MCB,R9) (PDB,R10) (MORTBRR,R11) (CV,R12)
0Loc    Object Code    Addr1 Addr2  Stmt Lv Lineno    Source Statement           (Hibal 5, Asmedit 3.3)  HLASM R4.0  2004/03/15 12.36
+___    ______ ____    _____ _____  ____ __ ______    ______ _________
0                                   7261              ¿þþþþþþþþþþþþþþþþþþþþþþþþþþþþþþþþþþþþþþþþþþþþþþþþþþþþþþþþþþþþþþþþþþþþþÜ
                                    7262              Ÿ                                                                     Ÿ
                                    7263              Ÿ  CNTL -- Routine to do terminal control (parm is in SEG buffer).    Ÿ
                                    7264              Ÿ                                                                     Ÿ
                                    7265              Ÿ    On entry:                                                        Ÿ
                                    7266              Ÿ      R0 - control number                                            Ÿ
                                    7267              Ÿ                                                                     Ÿ
                                    7268              Ÿ    On exit, R15 (and CC):                                           Ÿ
                                    7269              Ÿ      -4 - logoff (hung-up phone)                                    Ÿ
                                    7270              Ÿ       0 - normal completion                                         Ÿ
                                    7271              Ÿ       4 - error                                                     Ÿ
                                    7272              Ÿ                                                                     Ÿ
                                                      ¾þþþþþþþþþþþþþþþþþþþþþþþþþþþþþþþþþþþþþþþþþþþþþþþþþþþþþþþþþþþþþþþþþþþþþ»
000113A 50E0 D044/902B_      00044  7273              CNTL     PROC
 USING  *,R8
                                    7309                       WITH  MCB                 (Entry assumption)
 001154 5870 8198            012DC  7312                       L     R7,=A(MRTSG)
 USING  SEGCB,R7                    7313                       WITH  (SEGCB,R7)
 001158 58A0 8188            012CC  7326                       L     PDBR,=A(MORTPDB)
                                    7327                       WITH  PDB
 00115C D737 A000 A000 00000 00000  7330                       CLEAR PDBHDR
 001162 D201 A004 900A 00004 0000A  7337                       MVC   PDBLIN#,MCBNO
 001168 9249 A006      00006        7338                       MVI   PDBCMD,MILCNTL
 00116C 4200 A007            00007  7339                       STC   R0,PDBCNO           Control number
 001170 58F0 700C            0000C  7340                       L     R15,SEGCBLENF
 001174 40F0 A032            00032  7341                       STH   R15,PDBWC
 001178 41F0 F038            00038  7342                       LA    R15,L'PDBHDR+@R15
 00117C 40F0 A000            00000  7343                       STH   R15,PDBLENG
 001180 5810 818C            012D0  7344                       L     R1,=A(MORTPATH)
 001184 41F0 A000            00000  7345                       LA    R15,PDB
 001188 4DE0 80BA            011FE  7346                       LCALL PATHSEND
                                    7348
 00118C 18F7/58E0 8190_             7349                       SEGCLR (R7)               Reset seg buffer
                                    7360
 001194 58F0 B00C            00024  7361              MORTCT   L     R15,MORTSTKL
 001198 19DF/47B0 8070_             7362                       FAIL  (SPR,LT,R15),'Mort stack too deep'
 0011B4 D2FF 9054 F000 00054 00000  7386                       MVC   MCBSTK,@R15         Save stack across dispatch
 0011BA 41E0 8084            011C8  7387                       LA    RAR,MORTCC          Go here when control completes
 0011BE 900F 9014            00014  7388                       STM   R0,R15,MCBREGS
 0011C2 58E0 8194            012D8  7389                       L     RAR,=A(MORTLOOP)
 0011C6 07FE                        7390                       BR    RAR
                                    7391
 0011C8 1BFF                        7392              MORTCC   CLEAR R15
 0011CA 9500 A00E/4770_0000E        7397                       IF    ((PDBCRET,NZ),OR,(PDBCMOD,NZ)),'LA R15,4'
 0011DE 9180 A00D/47E0_0000D        7434                       IF    PDBCPLB.CPLBLGF,'LH R15,=H"-4"'
 0011EA 41D0 D030/982B_      00030  7456                       PEND
 DROP   SEGCB,R7
 DROP   *,R8
1MORT     (MORT2047) (12:36) (15MAR04) Local Subsystem                                                                      Page   27
0Current Usings:  (MCB,R9) (PDB,R10) (MORTBRR,R11) (CV,R12)
0Loc    Object Code    Addr1 Addr2  Stmt Lv Lineno    Source Statement           (Hibal 5, Asmedit 3.3)  HLASM R4.0  2004/03/15 12.36
+___    ______ ____    _____ _____  ____ __ ______    ______ _________
0                                   7482              ¿þþþþþþþþþþþþþþþþþþþþþþþþþþþþþþþþþþþþþþþþþþþþþþþþþþþþþþþþþþþþþþþþþþþþþÜ
                                    7483              Ÿ                                                                     Ÿ
                                    7484              Ÿ  PATHSEND -- Routine to send request accoss a SUZAN path.           Ÿ
                                    7485              Ÿ                                                                     Ÿ
                                    7486              Ÿ    On entry:                                                        Ÿ
                                    7487              Ÿ      R1 - PATH ptr                                                  Ÿ
                                    7488              Ÿ      R15- PDB ptr                                                   Ÿ
                                    7489              Ÿ                                                                     Ÿ
                                    7490              Ÿ    On exit, R15 (and CC):                                           Ÿ
                                    7491              Ÿ       -4 - died                                                     Ÿ
                                    7492              Ÿ        0 - sent                                                     Ÿ
                                    7493              Ÿ                                                                     Ÿ
                                                      ¾þþþþþþþþþþþþþþþþþþþþþþþþþþþþþþþþþþþþþþþþþþþþþþþþþþþþþþþþþþþþþþþþþþþþþ»
00011FE 50E0 D044/902B_      00044  7494              PATHSEND PROC
 USING  *,R8
 001218 1861                        7530                       LR    R6,R1
 00121A 182F                        7531                       LR    R2,R15              Save PDB pointer
 00121C D701 2002 2002 00002 00002  7532                       CLEAR (@R2+2,2)           Clear rdw flags
 USING  PATHD,R6                    7539                       WITH  (PATHD,R6)
 001222 5850 6020            00020  7552                       L     R5,PATHECBF
 001226 5020 D000            00000  7553              PATHLOOP ST    R2,@R13
 00122A D703 D004 D004 00004 00004  7554                       CLEAR (@R13+4,4)
 001230 9680 D000      00000        7561                       SET   @R13.X'80'
 001234 94BF 5000      00000        7568                       CLEAR @R5.PATHFFQE
 001238 41F0 0008/5800_      00008  7576                       SCOM  SEND,(R13),PATHMGC
 001244 12FF/4780 80A4              7595                       IF    (R15,Z),EXIT
 00124A 59F0 80D8/4770_      012E0  7612                       IF    (R15,EQ,PATHRBAF),BEGIN  overflow...
 001252 9180 5000/4710_00000        7629  1                      IF    @R5.PATHFCLS,PATHDOWN  closing, scram
                                    7648  1           * if full queues happened more often, the following code would have
                                    7649  1           * to be smarter...
 00125A D703 C334 C334 00334 00334  7650  1           PATHWAIT   CLEAR CVMRTECB
 001260 91C0 5000/4770_00000        7658  1                      IF    (@R5.PATHFCLS+PATHFFQE,Z),BEGIN
 001268 4100 0001/4110_      00001  7679  2                        WAIT  ECB=CVMRTECB
 001272                             7686  1                      END
 001272 9240 C334      00334        7690  1                      MVI   CVMRTECB,X'40'      Must keep ecb posted for others
 001276 9180 5000/4710_00000        7691  1                      IF    @R5.PATHFCLS,PATHDOWN  closing
 00127E 9140 5000/4710_00000        7710  1                      IF    @R5.PATHFFQE,PATHLOOP  retry
 001286 47F0 8052            0125A  7729  1                      B     PATHWAIT            Posted because of something else
 00128A                             7730                       END
 00128A 59F0 80DC/4780_      012E4  7734                       IF    (R15,EQ,PATHRNOP),PATHDOWN
 001292 FEDC13/C2818440D_           7754                       FAIL  'Bad Mort Suzan call'
                                    7759
 0012A8 48F0 80E4            012EC  7760              PATHDOWN LH    R15,=H'-4'
 0012AC 41D0 D030/982B_      00030  7761                       PEND
 DROP   PATHD,R6
 DROP   *,R8
                                    7786                       QLTORG
 0012F0                012F0 012F0  7812                       END   .

1MORT     (MORT2047) (12:36) (15MAR04) Relocation Dictionary                                                                Page   28
-   Pos.Id   Rel.Id   Flags    Address                                                       HLASM R4.0  2004/03/15 12.36
0  00000001 00000001    0C    00000048
   00000001 00000001    0C    000002A4
   00000001 00000001    0C    000002A8
   00000001 00000001    08    00000863
   00000001 00000001    08    0000086B
   00000001 00000001    08    00000875
   00000001 00000001    08    0000087D
   00000001 00000001    08    00000882
   00000001 00000001    08    0000088A
   00000001 00000001    08    00000890
   00000001 00000001    08    0000089A
   00000001 00000001    08    000008A4
   00000001 00000001    08    000008AE
   00000001 00000001    08    000008B8
   00000001 00000001    08    000008C3
   00000001 00000001    08    000008CD
   00000001 00000001    08    000008D9
   00000001 00000001    08    000008E3
   00000001 00000001    0C    00000D20
   00000001 00000001    0C    00000D34
   00000001 00000001    0C    00000D38
   00000001 00000001    0C    00000D3C
   00000001 00000001    0C    00000D44
   00000001 00000001    0C    00000D4C
   00000001 00000001    0C    00000D60
   00000001 00000001    0C    000012CC
   00000001 00000001    0C    000012D0
   00000001 00000001    0C    000012D8
   00000001 00000001    0C    000012DC
   00000001 00000002    1C    00000D24
   00000001 00000003    1C    00000D28
   00000001 00000004    1C    00000D2C
   00000001 00000005    1C    00000D40
   00000001 00000005    1C    000012D4
   00000001 00000006    1C    00000D48
   00000001 00000007    1C    00000D50
   00000001 00000007    1C    000012C8
   00000001 00000008    1C    00000D54
   00000001 00000009    1C    00000D58
   00000001 0000000A    1C    00000D5C
   00000001 0000000B    1C    00000D64
   00000001 0000000C    1C    00000D68
   00000001 0000000D    1C    00000D98
   00000001 0000000E    1C    00000DB8
   00000001 0000000F    1C    000012C0
   00000001 00000010    1C    000012C4

1MORT     (MORT2047) (12:36) (15MAR04) Ordinary Symbol and Literal Cross Reference                                          Page   29
-Symbol   Length   Value     Id    R Type   Defn References                                  HLASM R4.0  2004/03/15 12.36
0$$$@R10       1 00000000 FFFFFFF4     J     842 1063
 $$$@R11       1 00000000 FFFFFFF3     J     855 1076  1088
 $$$@R12       1 00000000 FFFFFFF2     J     868 1101
 $$$@R13       1 00000000 FFFFFFF1     J     881 1114  1118  1121  1123  1124
 $$$@R14       1 00000000 FFFFFFF0     J     894 1136
 $$$@R2        1 00000000 FFFFFFFC     J     738 1024
 $$$@R8        1 00000000 FFFFFFF6     J     816 1037
 $$$@R9        1 00000000 FFFFFFF5     J     829 1050
 $$$C1MILMORT
               1 00000F1A 00000001     J    6634 6636
 $$$C2MILMORT
               1 000012F0 00000001     J    7807 7809
 $$$C3MILMORT
               1 000012F0 00000001     J    7815 7817
 $$$D0MILMORT
               1 00000F08 00000001     J    1000 3541  3559  3743  3761  6090
 $$$FAIL100
               1 0000083F 00000001     U    5242 5240
 $$$FAIL139
               1 00000C89 00000001     U    6518 6516
 $$$FAIL141
               1 00000CA3 00000001     U    6546 6544
 $$$FAIL151
               1 0000100A 00000001     U    6911 6909
 $$$FAIL161
               1 000010D0 00000001     U    7128 7126
 $$$FAIL172
               1 000011B4 00000001     U    7381 7379
 $$$FAIL197
               1 000012A8 00000001     U    7758 7756
 $$$FAIL43
               1 00000336 00000001     U    3494 3492
 $$$FAIL52
               1 000003BD 00000001     U    3663 3661
 $$$FAIL60
               1 00000459 00000001     U    3828 3826
 $$$FAIL79
               1 000005CB 00000001     U    4357 4355
 $$$RMCB       1 00000000 FFFFFFE6     J    3070 3184  3184
 $$$RPATHD
               1 00000000 FFFFFFE9     J    2844 2917  2917
 $$$RPDB       1 00000000 FFFFFFEB     J    2441 2633  2633
 $$$RPIB       1 00000000 FFFFFFEA     J    2639 2838  2838
 $$$RSCANCB
               1 00000000 FFFFFFE7     J    3029 3055  3055
 $$$RSEGCB
               1 00000000 FFFFFFE8     J    2923 3023  3023
 $$$RSUB       1 00000000 FFFFFFED     J    1623 1736  1736
 $$$SEGCB2
               4 000005D4 FFFFFFEE     F    1494 1580  1580
 $$$SEGCB32
               4 00000284 00000001     F    3276 3362  3362
 $$$101F       2 00000840 00000001     H    5246 5235B
 $$$105F       2 0000093C 00000001     H    5434 5408B
 $$$106F       2 0000095C 00000001     H    5476 5449B
1MORT     (MORT2047) (12:36) (15MAR04) Ordinary Symbol and Literal Cross Reference                                          Page   30
 $$$107F       2 00000984 00000001     H    5525 5488B
 $$$108F       2 00000A74 00000001     H    5796 5770B 5783B
 $$$108S       2 00000A5C 00000001     H    5762 5795B
 $$$111F       2 00000ABA 00000001     H    5890 5806B
 $$$112F       2 00000AA4 00000001     H    5856 5830B
 $$$113        1 00000008 00000001 A   U    5862 5858  5861
 $$$114F       2 00000AD6 00000001     H    5924 5910B
 $$$115F       2 00000AF8 00000001     H    5976 5950B 5963B
 $$$115S       2 00000AE0 00000001     H    5942 5975B
 $$$119F       2 00000B42 00000001     H    6056 6047B
 $$$121F       2 00000B68 00000001     H    6106 6082B
 $$$122        6 00000F14 00000001     I    6096 6088X
 $$$123        6 00000F14 00000001     I    6095 6096  6096
 $$$124        1 0000006C 00000001 A   U    6143 6141
 $$$125        1 0000002C 00000001 A   U    6156 6150  6153  6155
 $$$126F       2 00000BFA 00000001     H    6313 6228B
 $$$126S       2 00000BC4 00000001     H    6201 6247B 6266B 6312B
 $$$131F       2 00000C0A 00000001     H    6356 6323B
 $$$132F       2 00000C4C 00000001     H    6422 6383B
 $$$134F       2 00000C4C 00000001     H    6418 6408B
 $$$135F       2 00000C8E 00000001     H    6541 6473B
 $$$135S       2 00000C5E 00000001     H    6438 6540B
 $$$140F       2 00000C8A 00000001     H    6522 6511B
 $$$144B       1 00000F24 00000001     X    6659 6666U
 $$$145        1 0000000C 00000001 A   U    6725 6723
 $$$146        1 0000002C 00000001 A   U    6743 6737  6740  6742
 $$$147F       2 00001038 00000001     H    6984 6830B 6847B
 $$$148B       1 00000F84 00000001     X    6775 6782U
 $$$152F       2 0000100A 00000001     H    6915 6904B
 $$$153F       2 0000102C 00000001     H    6948 6938B
 $$$155F       2 00001038 00000001     H    6970 6960B
 $$$157        1 0000002C 00000001 A   U    6992 6986  6989  6991
 $$$159B       1 00001056 00000001     X    7022 7029U
 $$$162F       2 000010D0 00000001     H    7132 7121B
 $$$163F       2 0000110E 00000001     H    7190 7180B
 $$$165F       2 0000111A 00000001     H    7212 7202B
 $$$167F       2 00001126 00000001     H    7234 7224B
 $$$169        1 0000002C 00000001 A   U    7256 7250  7253  7255
 $$$171B       1 00001144 00000001     X    7288 7295U
 $$$173F       2 000011B4 00000001     H    7385 7374B
 $$$174F       2 000011DE 00000001     H    7433 7423B
 $$$174T       2 000011DA 00000001     H    7426 7412B
 $$$176F       2 000011EA 00000001     H    7455 7445B
 $$$178        1 0000002C 00000001 A   U    7477 7471  7474  7476
 $$$179F       2 000012AC 00000001     H    7774 7606B
 $$$180B       1 00001208 00000001     X    7509 7516U
 $$$186F       2 0000128A 00000001     H    7733 7624B
 $$$189F       2 00001272 00000001     H    7689 7674B
 $$$198        1 0000002C 00000001 A   U    7782 7776  7779  7781
 $$$40B        1 000002C2 00000001     X    3377 3384U
 $$$41F        2 00000302 00000001     H    3449 3439B
 $$$44F        2 00000336 00000001     H    3498 3487B
 $$$48         4 00000F0A 00000001     I    3565 3557X
 $$$49         4 00000F0A 00000001     I    3564 3565  3565
 $$$53F        2 000003BE 00000001     H    3667 3656B
 $$$54F        2 00000536 00000001     H    4132 3729B
 $$$57         4 00000F10 00000001     I    3767 3759X
 $$$58         4 00000F10 00000001     I    3766 3767  3767
 $$$61F        2 0000045A 00000001     H    3832 3821B
1MORT     (MORT2047) (12:36) (15MAR04) Ordinary Symbol and Literal Cross Reference                                          Page   31
 $$$68F        2 00000508 00000001     H    4036 3979B
 $$$70F        2 00000518 00000001     H    4079 4053B
 $$$73F        2 000005A8 00000001     H    4303 4146B
 $$$74F        2 000005A8 00000001     H    4294 4177B
 $$$74S        2 00000542 00000001     H    4169 4293B
 $$$76F        2 00000588 00000001     H    4258 4192B 4209B
 $$$78F        2 000005A4 00000001     H    4289 4270B
 $$$80F        2 000005CC 00000001     H    4361 4350B
 $$$81F        2 00000642 00000001     H    4569 4390B
 $$$82F        2 00000604 00000001     H    4438 4423B
 $$$83F        2 0000061A 00000001     H    4479 4464B
 $$$83T        2 00000616 00000001     H    4467 4453B
 $$$85F        2 00000642 00000001     H    4560 4491B 4508B
 $$$87F        2 00000642 00000001     H    4556 4541B
 $$$87T        2 0000063E 00000001     H    4544 4528B
 $$$90F        2 0000066E 00000001     H    4640 4614B
 $$$91F        2 000006F8 00000001     H    4828 4668B
 $$$91T        2 00000682 00000001     H    4671 4656B
 $$$93F        2 000006A2 00000001     H    4714 4687B
 $$$94F        2 000006F4 00000001     H    4823 4788B
 $$$95F        2 00000718 00000001     H    4871 4844B
 $$$96F        2 00000782 00000001     H    5000 4885B
 $$$97F        2 00000776 00000001     H    4991 4963B
 $$$99F        2 000007DE 00000001     H    5145 5118B
 $NLL0779      2 00000360 00000001     I    3573 3577B
 $NLL0894      2 00000412 00000001     I    3775 3779B
 $NLM0779      1 00000F08 00000001     R    3546 3564
 $NLM0894      1 00000F0E 00000001     R    3748 3766
 $OLL0973      2 0000047A 00000001     I    3882 3886B
 @@            1 0000004C FFFFFFF1 A   U    1121 6609
 @NSP          4 00000048 FFFFFFF1     A    1120 3422M 3716M 5814M 5817M 5818M 5861  5863M 6016M 6019M 6022M 6023M 6024M
                                                 6034M 6035M 6144M 6153  6155  6157M 6651M 6654M 6672M 6673M 6674M 6688M
                                                 6689M 6726M 6740  6742  6744M 6767M 6770M 6788M 6789M 6790M 6989  6991
                                                 6993M 7014M 7017M 7035M 7036M 7037M 7253  7255  7257M 7280M 7283M 7301M
                                                 7302M 7303M 7474  7476  7478M 7501M 7504M 7522M 7523M 7524M 7779  7781
                                                 7783M
 @R0           0 00000000 FFFFFFFE     @     713  989U
 @R1           0 00000000 FFFFFFFD     @     726  985U 1589  1593  1594  1596  1597M 3413  3609U 5782  5789  5829  5962
                                                 5969  6869M
 @R10          0 00000000 FFFFFFF4     @     843  949U 4129U 4255U
 @R11          0 00000000 FFFFFFF3     @     856  945U 3398U
 @R12          0 00000000 FFFFFFF2     @     869  941U
 @R13          0 00000000 FFFFFFF1     @     882  937U 3453M 3460M 3611M 3618M 3625M 3625  3781M 3788M 3790M 7553M 7560M
                                                 7560  7567M
 @R14          0 00000000 FFFFFFF0     @     895  933U
 @R15          0 00000000 FFFFFFEF     @     908  929U 1599M 4084M 4116U 4566U 5247  6067M 6095  6188U 6395  6560M 6560
                                                 6870  6872  6916  7083  7133  7151  7342  7386
 @R2           0 00000000 FFFFFFFC     @     739  981U 3956  4021M 6057  7538M 7538
 @R3           0 00000000 FFFFFFFB     @     752  977U
 @R4           0 00000000 FFFFFFFA     @     765  973U
 @R5           0 00000000 FFFFFFF9     @     778  969U 7575M 7639  7673  7701  7720
 @R6           0 00000000 FFFFFFF8     @     791  965U 6058M 6065M 6065  6066  6095M 7767U
 @R7           0 00000000 FFFFFFF7     @     804  961U 6309U 6537U 6977U 7241U 7462U
 @R8           0 00000000 FFFFFFF6     @     817  957U 6733U 6982U 7246U 7467U 7772U
 @R9           0 00000000 FFFFFFF5     @     830  953U 4124U 4300U 6454U
 @SPR          0 00000000 FFFFFFF1     @    1115 3422M 3716M 5814M 5817M 5818M 5861  5863M 6016M 6019M 6022M 6023M 6024M
                                                 6034M 6035M 6036  6144M 6153  6155  6157M 6651M 6654M 6672M 6673M 6674M
                                                 6688M 6689M 6690  6726M 6740  6742  6744M 6767M 6770M 6788M 6789M 6790M
                                                 6989  6991  6993M 7014M 7017M 7035M 7036M 7037M 7253  7255  7257M 7280M
1MORT     (MORT2047) (12:36) (15MAR04) Ordinary Symbol and Literal Cross Reference                                          Page   32
                                                 7283M 7301M 7302M 7303M 7474  7476  7478M 7501M 7504M 7522M 7523M 7524M
                                                 7779  7781  7783M
 @WA           1 0000004C FFFFFFF1     U    1122 6036  6690
 AMODE31       1 00000000 00000003     T    6584 6584
 ASCTBL        1 00000000 00000000 A   T    1413 1413
 BLTBL         1 00000000 00000000 A   T    1415 1415
 BOOT          4 00000A40 00000001     I    5731 5293
 BR            8 00000008 00000001 A   #    1031 6655M 6666U 6771M 6782U 7018M 7029U 7284M 7295U 7505M 7516U
 BRR          11 0000000B 00000001 A   #    1070 4029  4029M
 CNTL          2 0000113A 00000001     H    7276 6591
 CPLAATTN      1 00000080 FFFFFFEB A   U    2618 6935  7177
 CPLABRK       1 00000010 FFFFFFEB A   U    2621 7199
 CPLBLGF       1 00000080 FFFFFFEB A   U    2623 5268  6957  7221  7442
 CTLSNSI       1 00000001 FFFFFFEB A   U    2594 4378
 CV         1912 00000000 FFFFFFEE     X    1614 1163U
 CV            1 00000000 00000002     T    6583 6583
 CVCURFEB      4 00000750 FFFFFFEE     A    1605 1612  1612
 CVDEFSYS      8 00000290 FFFFFFEE     C    1329 4540  4743  4748  4884  5325  5330  5568  5573  5614  5619  6414
 CVDSECT       1 00000000 FFFFFFEE     J    1150 1737  2436  2634  2839  2918  3024  3056
 CVECB         4 00000038 FFFFFFEE     A    1180 1177
 CVFDFSYS    128 0000013D FFFFFFEE         1289 4145  4525  5095
 CVFLAG        1 0000013C FFFFFFEE     R    1240 1244  1249  1254  1259  1264  1269  1274  1279
 CVFLAG2       1 0000013D FFFFFFEE     R    1285 1289  1294  1299  1304
 CVFTEST     128 0000013C FFFFFFEE         1244 3438  4686  4843  5117  5448
 CVKSCB#       1 00000032 FFFFFFEE A   N    1203 1204  1205
 CVMACH        1 0000013B FFFFFFEE     R    1215 1224  1234
 CVMAXSES      2 00000390 FFFFFFEE     H    1393 3672  3943
 CVMFLAG       1 0000051C FFFFFFEE     R    1431 1435
 CVMRTECB      4 00000334 FFFFFFEE     A    1360 3450  3504  3512M 3512  3668M 3698  3707M 3707  7657M 7657  7684  7690M
 CVMSTART      8 000004B8 FFFFFFEE     D    1422 1476  1476
 CVR          12 0000000C 00000001 A   #    1095 1163U 3404M 4027  4027M
 CVSCNCB       4 000005B4 FFFFFFEE     F    1480 1491
 CVSTART       4 00000000 FFFFFFEE     C    1173 1614  1614
 CVSUBQH       4 000002A8 FFFFFFEE     A    1336 6196
 CVTRCRTN      4 00000724 FFFFFFEE     I    1589 1598B
 CVWSGBUF    235 00000610 FFFFFFEE     C    1582 1570  1576
 CVWSGCOD      1 000005D4 FFFFFFEE     R    1497 1506  1516  1526  1536  1546  1556  1566
 CVWSGUSR      4 0000060C FFFFFFEE     A    1579 1581
 DOWN          4 00000682 00000001     I    4675 5279B
 DQMCB         6 00000CA4 00000001     I    6548 6490B
 EBCTBL        1 00000000 00000000 A   T    1414 1414
 EBCTBL7       1 00000000 00000000 A   T    1417 1417
 EOS           2 00000C16 00000001     H    6365 5528B 5552B 6190B
 EOSXCTL       1 00000020 FFFFFFEB A   U    2523 6392
 EPARTBL       1 00000000 00000000 A   T    1409 1409
 FMILASYN      1 00000050 FFFFFFEB A   U    2553 4052
 FMILINIT      1 00000021 FFFFFFEB A   U    2541 3900
 FMILSOS       1 00000040 FFFFFFEB A   U    2548 3921  3996
 FMTTIME       1 00000000 00000010     T    7794 7794
 FREECORE      1 00000000 0000000E     T    6608 6608
 FSR           2 00000002 00000001 A   #    1018 6019  6024  6153M 6654  6674  6740M 6770  6790  6989M 7017  7037  7253M
                                                 7283  7303  7474M 7504  7524  7779M
 GETCORE       1 00000000 00000004     T    6585 6585
 HELP          4 000009A4 00000001     I    5568 5289  5291
 HIBAL         1 00000000 FFFFFFFF     J     698  714   727   740   753   766   779   792   805   818   831   844   857
                                                  870   883   896   909
 IDLE          2 0000081E 00000001     H    5217 4597B 4819B
 IDLEATTN      2 00000852 00000001     H    5254 5248
 LOCALTOD      1 00000000 0000000F     T    7793 7793
1MORT     (MORT2047) (12:36) (15MAR04) Ordinary Symbol and Literal Cross Reference                                          Page   33
 LOGOFF        4 0000098C 00000001     I    5534 4383B 4818B 4987B 5084B 5168B 5273B 5311  5521B
 LOGON         2 000005AC 00000001     I    4315 6587
 LOWTBL        1 00000000 00000000 A   T    1412 1412
 LSR          11 0000000B 00000001 A   #    1082 6019  6024  6153M 6654  6674  6740M 6770  6790  6989M 7017  7037  7253M
                                                 7283  7303  7474M 7504  7524  7779M
 MCB         404 00000000 FFFFFFE6     J    3184 3966U 4006  4018M 4018  4019M 4019  4025M 4085  4096U 4151  4160U 4323U
                                                 4349  6433  6457U 6510  6532U 6548M 6561M 6562
 MCBBUFR      64 00000154 FFFFFFE6     C    3177 7151M 7160  7806
 MCBFIDLE     32 00000008 FFFFFFE6         3094 4067  4269  4281M 5221M 5259M
 MCBFLAG       1 00000008 FFFFFFE6     R    3080 3084  3089  3094  3099  3104  3109  3114
 MCBFNBRK     16 00000008 FFFFFFE6         3099 4206  4220M 5498M
 MCBFPRIV      8 00000008 FFFFFFE6         3104 4434M 5909
 MCBFQRET      4 00000008 FFFFFFE6         3109 4475M 5389
 MCBFREAD     64 00000008 FFFFFFE6         3089 4191  7094M 7146M
 MCBFRENT      2 00000008 FFFFFFE6         3114 4552M 5487
 MCBLINK       4 00000004 FFFFFFE6     A    3077 4022M 4151  4175  6433  6471  6548M 6548  6549M
 MCBNO         2 0000000A FFFFFFE6     H    3173 4026M 4242  6372  6551  6865  7071  7337
 MCBR          9 00000009 00000001 A   #    1044 3956M 3957M 3957  3966U 4011M 4021  4023  4030  4151M 4160U 4175M 4176M
                                                 4176  4315M 4323U 6487
 MCBREGS       4 00000014 FFFFFFE6     A    3175 4027M 4028M 4029M 4030M 4031M 4032M 4086  4108M 4108  4109  4282M 4283M
                                                 4284  5249M 6918M 7135M 7388M
 MCBSTK      256 00000054 FFFFFFE6     X    3176 3413  4084  4084  5247M 6916M 7133M 7386M
 MCBSYSNM      8 0000000C FFFFFFE6     C    3174 4363M 4540  4653M 4653  4667  4884  4918  4923  5012  5017
 MCBTCONS      1 00000009 FFFFFFE6         3129 4450  4594
 MCBTVIRT      5 00000009 FFFFFFE6         3169 4505  4613  4787  4962  5407
 MCBTYPE       1 00000009 FFFFFFE6     R    3120 3129  3139  3149  3159  3169  4409M
 MILCNTL       1 00000049 FFFFFFEB A   U    2532 7338
 MILMORT       1 00000000 00000001     J     999 1001  1026  1039  1052  1065  1078  1090  1103  1125  1138  3061  3185
                                                 3551  3570  3753  3772  6101
 MODBUPPR      1 00000080 FFFFFFEB A   U    2565 7077
 MORT          2 000002C0 00000001     I    3374 3371
 MORTBRR       4 00000018 00000001     F    3188 3401U 6582
 MORTCC        2 000011C8 00000001     H    7394 7387
 MORTIW        4 00000336 00000001     I    3502 3526B
 MORTLOOP      2 000003E6 00000001     H    3702 3856B 3903B 3924B 3946B 3999B 4070B 5250B 6567B 7799
 MORTMCBQ      4 0000001C 00000001     A    3190 4022  4023M 4151  6433
 MORTPATH      4 00000028 00000001     F    3195 3452  4244  6424  7797
 MORTPDB     512 00000064 00000001     X    3259 3352  3358  3578  3780  3789  3833  4221  7796
 MORTRC        2 000010E4 00000001     H    7141 7134
 MORTSATP      4 00000018 00000001     A    3189 3678M 3953  6553
 MORTSEG       2 00000F7A 00000001     H    6763 3359
 MORTSFLG      4 00000060 00000001     F    3257 3219  3523  3555  3555  3555  3555  3572  3572  3572  3576M 3576M 3576M
                                                 3728  3757  3757  3757  3757  3774  3774  3774  3778M 3778M 3778M 3879
                                                 3879  3879  3881  3881  3881  3881  3885M 3885M 3885M
 MORTSTKL      4 00000024 00000001     A    3192 3414M 4083  5222  6891  7108  7361
 MORTSTKP      4 00000020 00000001     A    3191 3412M 3714
 MORTWAIT      4 000003DC 00000001     I    3696 4305B
 MORTWC        2 0000101E 00000001     H    6924 6917
 MORT2047      1 00000000 00000001     R    1008 1006
 MRTP          4 00000028 00000001     F    3196 3255
 MRTPECB       4 00000050 00000001     R    3231 3451M
 MRTPMGC       4 00000028 00000001     R    3198 3638  3803
 MRTPPASS      4 0000004C 00000001     C    3229 3445M
 MRTSG        60 00000284 00000001     X    3362 4373  4579  4632  4706  4728  4756  4773  4813  4863  4903  4931  4948
                                                 4982  5025  5054  5079  5137  5159  5338  5368  5426  5468  5512  5543
                                                 5581  5599  5627  5644  5662  5679  5696  5713  5740  5848  5882  5995
                                                 6135  6295  6348  6717  7800
 MRTSGCOD      1 00000284 00000001     R    3279 3288  3298  3308  3318  3328  3338  3348
 MRTSGLENF
1MORT     (MORT2047) (12:36) (15MAR04) Ordinary Symbol and Literal Cross Reference                                          Page   34
               4 00000290 00000001     A    3354 6037
 MRTSGLOC      4 000002A4 00000001     A    3358 6068
 MRTSNCB       4 00000264 00000001     F    3262 3273  5188  5207  5752  5932
 NBLTBL        1 00000000 00000000 A   T    1416 1416
 NOSYS         4 000008E6 00000001     I    5325 5212B 5285  5287
 NPARTBL       1 00000000 00000000 A   T    1410 1410
 OS            2 00000AC2 00000001     H    5901 5295
 OSCMD         2 00000B0A 00000001     H    6012 5892B 6001B
 PATH          4 00000000 FFFFFFE9     F    2851 2910
 PATHD        56 00000000 FFFFFFE9     J    2917 7548U
 PATHDOWN      4 000012A8 00000001     I    7760 7642B 7704B 7748B
 PATHECBF      4 00000020 FFFFFFE9     R    2874 7552
 PATHFCLS      1 00000080 FFFFFFE9 A   U    2876 7637  7668  7699
 PATHFFQE      1 00000040 FFFFFFE9 A   U    2877 7573  7671  7718
 PATHFNI       1 00000020 FFFFFFE9 A   U    2878 3726  3739  3876
 PATHFOPN      1 00000008 FFFFFFE9 A   U    2880 3521  3537
 PATHLOOP      4 00001226 00000001     I    7553 7723B
 PATHMGC       4 00000000 FFFFFFE9     R    2853 7588
 PATHRBAF      1 0000000C FFFFFFE9 A   U    2899 7801
 PATHRNOP      1 00000010 FFFFFFE9 A   U    2900 7802
 PATHSEND      2 000011FE 00000001     H    7497 6588  6877B 7088B 7347B
 PATHWAIT      2 0000125A 00000001     H    7652 7729B
 PDB          56 00000000 FFFFFFEB     J    2633 3358  3588U 3842U 4230U 4245  4333U 6425  6875  7086  7345
 PDBBYT1       1 0000000E FFFFFFEB     X    2472 2504
 PDBBYT2       1 0000000F FFFFFFEB     X    2473 2510
 PDBCMD        1 00000006 FFFFFFEB     X    2459 3600M 3900  3921  3996  4052  4243M 6373M 6866M 7072M 7338M
 PDBCMDFL      1 00000007 FFFFFFEB     X    2460 2496  2496  2502  6394M
 PDBCMOD       1 0000000F FFFFFFEB     X    2510 7422
 PDBCNO        1 00000007 FFFFFFEB     X    2502 7339M
 PDBCPLA       1 0000000C FFFFFFEB     X    2469 6937  7179  7201
 PDBCPLB       1 0000000D FFFFFFEB     X    2470 5270  6959  7223  7444
 PDBCRET       1 0000000E FFFFFFEB     X    2504 7409
 PDBHDR       56 00000000 FFFFFFEB     X    2497 3352  3599M 3599  3868M 3868  4240M 4240  6370M 6370  6610  6611  6864M
                                                 6864  6872  7070M 7070  7083  7336M 7336  7342
 PDBINCT       2 00000030 FFFFFFEB     H    2490 2494  2494  7080M
 PDBLENG       2 00000000 FFFFFFEB     H    2453 3602M 3846M 4241M 6371M 6873M 7084M 7343M
 PDBLIN#       2 00000004 FFFFFFEB     H    2458 3931  4026  4242M 6372M 6865M 7071M 7337M
 PDBMODB       1 00000009 FFFFFFEB     X    2464 7079M
 PDBPC         2 00000034 FFFFFFEB     H    2492 7082M 7148
 PDBR         10 0000000A 00000001 A   #    1057 3833M 3842U 4031  4221M 4230U 4325M 4333U 6854M 7060M 7326M
 PDBRC         2 00000036 FFFFFFEB     H    2493 7147
 PDBSINP       4 00000010 FFFFFFEB     A    2475 2476
 PDBSTRT       4 00000000 FFFFFFEB     F    2452 2497  2497
 PDBSYSNM      8 00000024 FFFFFFEB     C    2486 3601M 4363  6395M 6407  6414M
 PDBTEXT       1 00000038 FFFFFFEB     C    2498 3358  4395  6868  7150
 PDBVPGM       8 00000014 FFFFFFEB     C    2478 2484  2484
 PDBWC         2 00000032 FFFFFFEB     H    2491 6871M 7341M
 PIBFLAG       1 00000064 FFFFFFEA     R    2686 2690  2695  2700  2705  2710
 PIBFLAG2      1 00000065 FFFFFFEA     R    2716 2720  2725  2730  2735
 PIBFLAG3      1 00000066 FFFFFFEA     R    2741 2745  2750  2755  2760  2765  2770
 PIBFLAG4      1 00000067 FFFFFFEA     R    2776 2780  2785  2790
 PIBFLAG5      1 00000068 FFFFFFEA     R    2796 2800  2805  2810
 PIBGFLG       1 00000018 FFFFFFEA     R    2659 2663
 PIBNAME       8 00000034 FFFFFFEA     C    2680 2815  2815
 PIBUC         2 00000030 FFFFFFEA     H    2677 2827  2827
 PRT           1 00000862 00000001     R    5285 5200
 RAR          14 0000000E 00000001 A   #    1130 1591B 1601B 3426M 3427M 3427B 3676M 3677M 3677B 4009M 4010M 4010B 4032M
                                                 4108M 4108  4118B 4248M 4249M 4249B 4283M 4285B 4376M 4377M 4377B 4381M
                                                 4382M 4382B 4582M 4583M 4583B 4635M 4636M 4636B 4675M 4676M 4676B 4709M
1MORT     (MORT2047) (12:36) (15MAR04) Ordinary Symbol and Literal Cross Reference                                          Page   35
                                                 4710M 4710B 4731M 4732M 4732B 4759M 4760M 4760B 4776M 4777M 4777B 4816M
                                                 4817M 4817B 4832M 4833M 4833B 4866M 4867M 4867B 4906M 4907M 4907B 4934M
                                                 4935M 4935B 4951M 4952M 4952B 4985M 4986M 4986B 5028M 5029M 5029B 5057M
                                                 5058M 5058B 5082M 5083M 5083B 5106M 5107M 5107B 5140M 5141M 5141B 5162M
                                                 5163M 5163B 5166M 5167M 5167B 5191M 5192M 5192B 5210M 5211M 5211B 5248M
                                                 5341M 5342M 5342B 5371M 5372M 5372B 5429M 5430M 5430B 5437M 5438M 5438B
                                                 5471M 5472M 5472B 5515M 5516M 5516B 5519M 5520M 5520B 5546M 5547M 5547B
                                                 5584M 5585M 5585B 5602M 5603M 5603B 5630M 5631M 5631B 5647M 5648M 5648B
                                                 5665M 5666M 5666B 5682M 5683M 5683B 5699M 5700M 5700B 5716M 5717M 5717B
                                                 5743M 5744M 5744B 5755M 5756M 5756B 5851M 5852M 5852B 5885M 5886M 5886B
                                                 5892M 5935M 5936M 5936B 5998M 5999M 5999B 6001M 6016  6138M 6139M 6139B
                                                 6155M 6159B 6298M 6299M 6299B 6351M 6352M 6352B 6428M 6429M 6429B 6565M
                                                 6566M 6566B 6651  6682M 6683M 6683B 6693M 6694M 6694B 6720M 6721M 6721B
                                                 6742M 6746B 6767  6877M 6888M 6889M 6889B 6917M 6919M 6920B 6991M 6995B
                                                 7014  7088M 7105M 7106M 7106B 7134M 7136M 7137B 7255M 7259B 7280  7347M
                                                 7358M 7359M 7359B 7387M 7389M 7390B 7476M 7480B 7501  7781M 7785B
 READ          2 0000104C 00000001     H    7010 6598
 REENTER       2 0000091A 00000001     H    5381 5098B 6589
 REENTERQ      4 00000984 00000001     I    5527 5392B
 REPROMPT      2 000007B6 00000001     H    5087 5169B 5213B 5893B 6002B
 R0            0 00000000 FFFFFFFF A   #     706 1592M 1593M 1594  1596M 1597  3573M 3574M 3576  3672M 3673M 3689  3690M
                                                 3690  3691M 3775M 3776M 3778  3882M 3883M 3885  4006M 4086M 4284M 4378M
                                                 4624M 4698M 4720M 4748M 4765M 4805M 4805  4855M 4895M 4923M 4940M 4974M
                                                 4995M 5017M 5033M 5071M 5071  5129M 5151M 5249  5330M 5346M 5376M 5418M
                                                 5460M 5504M 5535M 5573M 5591M 5619M 5636M 5654M 5671M 5688M 5705M 5721M
                                                 5732M 5769M 5769  5791M 5805M 5805  5814  5840M 5861M 5919M 5949M 5949
                                                 5971M 6118M 6118  6195M 6287M 6303M 6303  6322M 6322  6360M 6709M 6844M
                                                 6844  6918  7135  7147M 7149M 7339  7388
 R1            1 00000001 FFFFFFFF A   #     719 3412  3420  3450M 3451  3452M 3453  3554M 3564M 3574  3578M 3588U 3611
                                                 3678  3684  3756M 3766M 3776  3780M 3781  3789M 3790  3846  3847M 3847
                                                 3880M 3881M 3883  4011  4030M 4244M 4315  4623M 4697M 4719M 4743M 4764M
                                                 4854M 4894M 4918M 4939M 4973M 4994M 5012M 5032M 5128M 5150M 5200M 5325M
                                                 5345M 5375M 5417M 5459M 5503M 5534M 5568M 5590M 5614M 5635M 5653M 5670M
                                                 5687M 5704M 5720M 5731M 5789M 5814  5839M 5861M 5918M 5969M 6114M 6194M
                                                 6282M 6359M 6424M 6562M 6868M 6874M 7085M 7148M 7149  7150  7160M 7344M
                                                 7530
 R13          13 0000000D FFFFFFFF A   #     875 3474  3643  3808  7593
 R14          14 0000000E FFFFFFFF A   #     888 3684M 3689M 3691M 4086M
 R15          15 0000000F FFFFFFFF A   #     901 1589M 1590M 1590  1592  1597M 1600M 1600  3413M 3414  3486M 3486  3553M
                                                 3554  3555M 3557  3572M 3573  3576M 3655M 3655  3755M 3756  3757M 3759
                                                 3774M 3775  3778M 3820M 3820  3879M 3882  3885M 4031M 4083M 4085M 4096U
                                                 4109M 4109  4245M 4284M 4325  4373M 4395M 4405U 4579M 4632M 4706M 4728M
                                                 4756M 4773M 4813M 4863M 4903M 4931M 4948M 4982M 5025M 5054M 5079M 5137M
                                                 5159M 5188M 5207M 5222M 5234  5249  5338M 5368M 5426M 5468M 5512M 5527M
                                                 5543M 5551M 5551  5581M 5599M 5627M 5644M 5662M 5679M 5696M 5713M 5740M
                                                 5752M 5848M 5882M 5932M 5995M 6057M 6058  6066M 6068M 6135M 6158M 6158
                                                 6174U 6181M 6295M 6348M 6382M 6382  6425M 6551M 6552M 6553M 6690M 6717M
                                                 6745M 6745  6799  6817M 6817  6867M 6868  6870M 6871  6872M 6873  6875M
                                                 6885M 6891M 6903  6918  6926M 6926  6944M 6966M 6994M 6994  7081M 7082
                                                 7083M 7084  7086M 7102M 7108M 7120  7135  7150M 7168M 7168  7186M 7208M
                                                 7230M 7258M 7258  7340M 7341  7342M 7343  7345M 7355M 7361M 7373  7388
                                                 7396M 7396  7429M 7451M 7479M 7479  7531  7603M 7603  7623  7745  7760M
                                                 7784M 7784
 R2            2 00000002 FFFFFFFF A   #     732 3931M 3943  3952M 3953M 6037M 6040  6052M 6066  6072M 6081M 6081  6088
                                                 7531M 7553
 R5            5 00000005 FFFFFFFF A   #     771 7552M
 R6            6 00000006 FFFFFFFF A   #     784 6036M 6114  6471M 6472M 6472  6487  6496  7530M 7548U
 R7            7 00000007 FFFFFFFF A   #     797 6196M 6212U 6226M 6227M 6227  6433M 6457U 6496M 6548  6799M 6809U 6885
                                                 7046M 7056U 7102  7312M 7322U 7355
1MORT     (MORT2047) (12:36) (15MAR04) Ordinary Symbol and Literal Cross Reference                                          Page   36
 SCAN          1 00000000 0000000C     T    6600 6600
 SCANCB       32 00000000 FFFFFFE7     J    3055 6174U
 SCINIT        1 00000000 0000000B     T    6599 6599
 SCNCB         4 00000000 FFFFFFE7     F    3037 3048
 SCNKW         8 00000004 FFFFFFE7     C    3039 6181
 SCTELL        1 00000000 0000000D     T    6602 6602
 SEG           1 00000000 00000006     T    6592 6592
 SEGB          1 00000000 00000007     T    6594 6594  7795
 SEGCB        60 00000000 FFFFFFE8     J    3023 6809U 7056U 7322U
 SEGCBCOD      1 00000000 FFFFFFE8     R    2934 2943  2953  2963  2973  2983  2993  3003
 SEGCBLENF
               4 0000000C FFFFFFE8     A    3009 6867  7081  7340
 SEGCBWR       2 00000000 FFFFFFE8         2953 6827
 SEGCLR        1 00000000 00000005     T    6590 6590  7798
 SEGT          1 00000000 00000008     T    6595 6595
 SEGTB         1 00000000 0000000A     T    6597 6597
 SEGWR         1 00000000 00000009     T    6596 6596
 SIB         254 00000000 FFFFFFEC     X    2428 4405U
 SIBACCT       5 00000070 FFFFFFEC     C    2027 2190  2190  4463M 4463  4490M 4490
 SIBCRI        2 000000F0 FFFFFFEC     H    2417 2422  2422
 SIBFL         1 00000040 FFFFFFEC     R    1765 1769  1774  1779  1784  1789
 SIBFLG        1 000000B4 FFFFFFEC     R    2305 2309  2314  2319  2324  2329  2334  2339  2344
 SIBFLG2       1 000000B5 FFFFFFEC     R    2350 2354  2359  2364
 SIBFL2        1 00000041 FFFFFFEC     R    1795 1799  1804  1809  1814
 SIBFL3        1 00000042 FFFFFFEC     R    1820 1824  1829  1834
 SIBFL4        1 00000043 FFFFFFEC     R    1840 1844  1849  1854
 SIBFL5        1 00000044 FFFFFFEC     R    1860 1864  1869  1874
 SIBFOPR      16 0000007A FFFFFFEC         2135 4421  4421
 SIBFSPR      32 0000007A FFFFFFEC         2130 4421  4421  4422
 SIBKAFL       1 0000007B FFFFFFEC     R    2161 2165  2170  2175  2180  2185
 SIBKIFL       1 0000007A FFFFFFEC     R    2116 2120  2125  2130  2135  2140  2145  2150  2155
 SIBOFLAG      1 000000D2 FFFFFFEC     R    2375 2379  2384  2389  2394  2399
 SIBOPST       4 00000080 FFFFFFEC     F    2195 2424  2424
 SIBPORT       8 00000010 FFFFFFEC     C    1759 1879  1879
 SIBQFLG       1 000000A8 FFFFFFEC     R    2224 2228
 SIBSFLG       1 00000077 FFFFFFEC     R    2034 2038  2043  2048  2053  2058  2063
 SIBSTART      4 00000000 FFFFFFEC     F    1751 1755  1755  2191  2191  2296  2296  2428  2428
 SIBSTAT       1 0000004B FFFFFFEC     R    1971 1975  1980  1985  1990  1995  2000  2005
 SIBTACF       1 00000078 FFFFFFEC     R    2069 2073  2078  2083  2088  2093  2098  2103  2108
 SIBTFLAG      1 000000A6 FFFFFFEC     R    2202 2206  2211  2216
 SIBTYPE       1 00000048 FFFFFFEC     R    1884 1893  1903  1913  1923  1933  1943  1953  1963  4409
 SIBUFLG       1 000000AA FFFFFFEC     R    2239 2243  2248  2253  2258  2263  2268  2273  2278
 SIBUFLG2      1 000000AB FFFFFFEC     R    2284 2288  2293
 SIBVPGM       8 00000058 FFFFFFEC     C    2017 2023  2023
 SIB1ST        4 00000048 FFFFFFEC     F    1881 2426  2426
 SPR          13 0000000D 00000001 A   #    1108 3420M 3421M 3422  3422  3714M 3715M 3716  3716  4028  4028M 4282  4282M
                                                 5234  5814  5815M 5817  5817  5818  5818  5858M 5858  5861  5863  5863
                                                 6016  6019  6020M 6022  6022  6023  6023  6024  6032M 6034  6034  6035
                                                 6035  6036  6141M 6141  6144  6144  6150M 6150  6153  6155  6157  6157
                                                 6651  6654  6670M 6672  6672  6673  6673  6674  6686M 6688  6688  6689
                                                 6689  6690  6723M 6723  6726  6726  6737M 6737  6740  6742  6744  6744
                                                 6767  6770  6786M 6788  6788  6789  6789  6790  6903  6986M 6986  6989
                                                 6991  6993  6993  7014  7017  7033M 7035  7035  7036  7036  7037  7120
                                                 7250M 7250  7253  7255  7257  7257  7280  7283  7299M 7301  7301  7302
                                                 7302  7303  7373  7471M 7471  7474  7476  7478  7478  7501  7504  7520M
                                                 7522  7522  7523  7523  7524  7776M 7776  7779  7781  7783  7783
 SUB         132 00000000 FFFFFFED     J    1736 6196  6212U
 SUBFLAG       1 00000020 FFFFFFED     R    1640 1644
 SUBLINK       4 00000008 FFFFFFED     F    1633 6196  6226
1MORT     (MORT2047) (12:36) (15MAR04) Ordinary Symbol and Literal Cross Reference                                          Page   37
 SUBNAME       8 00000010 FFFFFFED     C    1636 1660  1660  6244  6263M 6263  6282  6287
 SUBP          4 00000048 FFFFFFED     F    1666 1725
 SUBPATHX      4 00000048 FFFFFFED     F    1665 1726  1726
 SUBSFLAG      1 00000080 FFFFFFED     X    1728 1689
 SUBSYS        2 00000BB0 00000001     H    6178 5297  5299  5301  5303  5305  5307  5309
 TIMESTMP      2 00000F1A 00000001     H    6647 6593
 TMILBRK       1 00000050 FFFFFFEB A   U    2535 4243
 TMILEOS       1 00000040 FFFFFFEB A   U    2521 6373
 TMILINIT      1 00000021 FFFFFFEB A   U    2515 3600
 TMILREAD      1 00000042 FFFFFFEB A   U    2525 7072
 TMILWRIT      1 00000041 FFFFFFEB A   U    2524 6866
 UNREC         2 00000904 00000001     H    5356 5313
 UPPTBL        1 00000000 00000000 A   T    1411 1411
 WR            2 000007A6 00000001     H    5067 4824B
 WRMSG         2 0000079C 00000001     H    5042 4996B 5347B 5377B 5722B 5920B 6361B
 =A(CNTL)      4 00000D44 00000001     A    6591 4381
 =A(LOGON)
               4 00000D34 00000001     A    6587 4032
 =A(MORTBRR)
               4 00000D20 00000001     A    6582 3389
 =A(MORTLOOP)
               4 000012D8 00000001     A    7799 6919  7136  7389
 =A(MORTPATH)
               4 000012D0 00000001     A    7797 6874  7085  7344
 =A(MORTPDB)
               4 000012CC 00000001     A    7796 6854  7060  7326
 =A(MRTSG)
               4 000012DC 00000001     A    7800 7046  7312
 =A(PATHRBAF)
               4 000012E0 00000001     A    7801 7623
 =A(PATHRNOP)
               4 000012E4 00000001     A    7802 7745
 =A(PATHSEND)
               4 00000D38 00000001     A    6588 4248  6428
 =A(READ)      4 00000D60 00000001     A    6598 5166  5519
 =A(REENTER)
               4 00000D3C 00000001     A    6589 4283
 =A(TIMESTMP)
               4 00000D4C 00000001     A    6593 4675  4832  5106  5437
 =A(100)       4 00000D9C 00000001     A    6603 6040  6052
 =AL2(L'PDBHDR)
               2 00000DBE 00000001     R    6610 3602
 =C'.'         1 00000E06 00000001     C    6620 4764  4973
 =C'**TEST**'
               8 00000CE8 00000001     C    6578 4697  4854  5128  5459
 =C'- subsystems'
              12 00000DA4 00000001     C    6605 6359
 =C', waiting for reload.'
              21 00000E1C 00000001     C    6622 4994
 =C','         1 00000EFC 00000001     C    6632 5839
 =C': invalid -- type "?" for info.'
              31 00000E78 00000001     C    6626 5375
 =C'as soon as it is available.  If you don''t want to'
              49 00000EC2 00000001     C    6630 5653
 =C'can type LOGOFF to terminate your session now.'
              46 00000DC8 00000001     C    6613 5704
 =C'failed.'
               7 00000E31 00000001     C    6623 5032
 =C'failed'
1MORT     (MORT2047) (12:36) (15MAR04) Ordinary Symbol and Literal Cross Reference                                          Page   38
               6 00000DC2 00000001     C    6612 4939
 =C'is not up yet.  Please standby.'
              31 00000E59 00000001     C    6625 5345
 =C'is not up yet.  You will automatically enter'
              44 00000D6C 00000001     C    6601 5590
 =C'wait you'
               8 00000D18 00000001     C    6581 5670
 =C'End of session.'
              15 00000EB2 00000001     C    6628 5534
 =C'MCB'       3 00000E02 00000001     C    6618 4349  6510
 =C'MILTEN  '
               8 00000CE0 00000001     C    6577 4667  6244
 =C'MILTEN'
               6 00000DFC 00000001     C    6617 6407
 =C'NONE'      4 00000DA0 00000001     C    6604 6194
 =C'OMCB'      4 00000DB4 00000001     C    6607 6561
 =C'Please standby, or type LOGOFF...'
              33 00000E38 00000001     C    6624 5150
 =C'Press RETURN to continue...'
              27 00000E97 00000001     C    6627 5503
 =C'Privileged.'
              11 00000EFD 00000001     C    6633 5918
 =C'S TESTWYL'
               9 00000EF3 00000001     C    6631 5731
 =C'System interruption. '
              21 00000E07 00000001     C    6621 4894
 =C'System unavailable.  Waiting for'
              32 00000CF0 00000001     C    6579 4719
 =CL4'MCB'
               4 00000D30 00000001     C    6586 4025
 =CL8'#DEFAULT'
               8 00000D10 00000001     C    6580 5527
 =CL8'MILTEN'
               8 00000CD8 00000001     C    6576 3601
 =F'-1'        4 00000DB0 00000001     F    6606 6549
 =H'-4'        2 000012EC 00000001     H    7805 6966  7230  7451  7760
 =V(AMODE31)
               4 00000D28 00000001     V    6584 3426
 =V(CV)        4 00000D24 00000001     V    6583 3404
 =V(FMTTIME)
               4 000012C4 00000001     V    7794 6693
 =V(FREECORE)
               4 00000DB8 00000001     V    6608 6565
 =V(GETCORE)
               4 00000D2C 00000001     V    6585 3676  4009
 =V(LOCALTOD)
               4 000012C0 00000001     V    7793 6682
 =V(SCAN)      4 00000D68 00000001     V    6600 5210
 =V(SCINIT)
               4 00000D64 00000001     V    6599 5191
 =V(SCTELL)
               4 00000D98 00000001     V    6602 5755  5935
 =V(SEG)       4 00000D48 00000001     V    6592 4635  4776  4951  5057  5371  5429  5647  5682  5699  5716  5743  5851
                                                 5885  5998
 =V(SEGB)      4 00000D50 00000001     V    6594 4709  4731  4866  4906  5140  5162  5471  5515  5602  5665  6351
 =V(SEGB)      4 000012C8 00000001     V    7795 6720
 =V(SEGCLR)
               4 00000D40 00000001     V    6590 4376  4582  6138
 =V(SEGCLR)
1MORT     (MORT2047) (12:36) (15MAR04) Ordinary Symbol and Literal Cross Reference                                          Page   39
               4 000012D4 00000001     V    7798 6888  7105  7358
 =V(SEGT)      4 00000D54 00000001     V    6595 4759
 =V(SEGTB)
               4 00000D5C 00000001     V    6597 4934  5028  5341  5584  5630  6298
 =V(SEGWR)
               4 00000D58 00000001     V    6596 4816  4985  5082  5546
 =X'15'        1 00000EC1 00000001     X    6629 5635  5687  5720
 =X'2F'        1 00000E05 00000001     X    6619 4623  5417
 =Y(L'MCBBUFR)
               2 000012EE 00000001     Y    7806 7080
 =Y(L'PDBHDR)
               2 00000DC0 00000001     Y    6611 4241  6371
 =Y(0+((105+3)/4*4)+4)
               2 00000DFA 00000001     Y    6616 6032
 =Y(0+((11+3)/4*4)+4)
               2 000012EA 00000001     Y    7804 6686
 =Y(0+4+40+4)
               2 00000DF8 00000001     Y    6615 6020
 =Y(0+4+40+4)
               2 000012E8 00000001     Y    7803 6670  6786  7033  7299  7520
 =Y(0+8+4)
               2 00000DF6 00000001     Y    6614 5815
 =Y(4096-@@)
               2 00000DBC 00000001     Y    6609 3421  3715

1MORT     (MORT2047) (12:36) (15MAR04) Macro and Copy Code Source Summary                                                   Page   40
- Con Source                                        Volume    Members                        HLASM R4.0  2004/03/15 12.36
0     PRIMARY INPUT                                           CSECT    DROP     END      EX       LTORG    POP
                                                              PRINT    PUSH     START    USING
   L1 WYL.GS.MIL.MILTEN.MACLIB                      SYSB05    CV       FAIL     PEND     PIB      POP      PROC     PUSH
                                                              REG      SCAN     SCANCB   SCINIT   SCKW     SCTELL
                                                              STKDEF   STKINIT  SUB
   L2 WYL.GG.SYS.MACLIB                             SYSB05    $BC      $BFLKUP  $BV      $CCLKUP  $CRS     $CSS     $L
                                                              $LA      $LBLAD   $LEXP    $LOR     $NIL     $OIL     $REL
                                                              $RGLKUP  $USLKUP  ACALL    BASE     BEGIN    CEIL
                                                              CLEAR    CSECT    DATA     DECR     DEFCC    DROP     DTEX
                                                              END      EX       FLAG     GEN      HIBAL    IDENT    IF
                                                              LABEL    LCALL    LOOP     LPROC    LS       LT
                                                              LTORG    MOVE     PRINT    QLTORG   RECORD   REGS     SET
                                                              SETMSG   START    ST3      SYSLR    USING    VCALL
                                                              WHILE    WITH     ZOT
   L3 SYS3.IS.MACLIB                                SYSB05    DEFINE   MIB      PDB      SEG      SEGB     SEGCB
                                                              SEGCLR   SEGLD    SEGT     SEGTB    SEGWR    SIB
                                                              SYSDEFN
   L4 SYS3.MACLIB                                   SYSB02    PATH     SCOM
   L5 SYS1.MACLIB                                   MVSBR9    GETMAIN  IHBINNRA MODESET  SYSSTATE WAIT

1MORT     (MORT2047) (12:36) (15MAR04) Dsect Cross Reference                                                                Page   41
-Dsect     Length      Id       Defn                                                         HLASM R4.0  2004/03/15 12.36
0$$$@R0   00000000  FFFFFFFE     712
 $$$@R1   00000000  FFFFFFFD     725
 $$$@R10  00000000  FFFFFFF4     842
 $$$@R11  00000000  FFFFFFF3     855
 $$$@R12  00000000  FFFFFFF2     868
 $$$@R13  0000004C  FFFFFFF1     881
 $$$@R14  00000000  FFFFFFF0     894
 $$$@R15  00000000  FFFFFFEF     907
 $$$@R2   00000000  FFFFFFFC     738
 $$$@R3   00000000  FFFFFFFB     751
 $$$@R4   00000000  FFFFFFFA     764
 $$$@R5   00000000  FFFFFFF9     777
 $$$@R6   00000000  FFFFFFF8     790
 $$$@R7   00000000  FFFFFFF7     803
 $$$@R8   00000000  FFFFFFF6     816
 $$$@R9   00000000  FFFFFFF5     829
 $$$RMCB  00000194  FFFFFFE6    3070
 $$$RPATHD
          00000038  FFFFFFE9    2844
 $$$RPDB  00000038  FFFFFFEB    2441
 $$$RPIB  000000A0  FFFFFFEA    2639
 $$$RSCANCB
          00000020  FFFFFFE7    3029
 $$$RSEGCB
          0000003C  FFFFFFE8    2923
 $$$RSUB  00000084  FFFFFFED    1623
 $$$R10   000000FE  FFFFFFEC    1742
 CVDSECT  00000778  FFFFFFEE    1150
 HIBAL    00000000  FFFFFFFF     698

1MORT     (MORT2047) (12:36) (15MAR04) Using Map                                                                            Page   42
-                                                                                            HLASM R4.0  2004/03/15 12.36
   Stmt  -----Location----- Action ----------------Using----------------- Reg Max    Last  Label and Using Text
           Count      Id           Type          Value    Range     Id        Disp   Stmt
0   929  00000000  FFFFFFFF USING  ORDINARY    00000000 00001000 FFFFFFEF  15 000    4084  @R15,15
    933  00000000  FFFFFFFF USING  ORDINARY    00000000 00001000 FFFFFFF0  14 000          @R14,14
    937  00000000  FFFFFFFF USING  ORDINARY    00000000 00001000 FFFFFFF1  13 004    7567  @R13,13
    941  00000000  FFFFFFFF USING  ORDINARY    00000000 00001000 FFFFFFF2  12 000          @R12,12
    945  00000000  FFFFFFFF USING  ORDINARY    00000000 00001000 FFFFFFF3  11 000          @R11,11
    949  00000000  FFFFFFFF USING  ORDINARY    00000000 00001000 FFFFFFF4  10 000          @R10,10
    953  00000000  FFFFFFFF USING  ORDINARY    00000000 00001000 FFFFFFF5   9 000          @R9,9
    957  00000000  FFFFFFFF USING  ORDINARY    00000000 00001000 FFFFFFF6   8 000          @R8,8
    961  00000000  FFFFFFFF USING  ORDINARY    00000000 00001000 FFFFFFF7   7 000          @R7,7
    965  00000000  FFFFFFFF USING  ORDINARY    00000000 00001000 FFFFFFF8   6 004    6095  @R6,6
    969  00000000  FFFFFFFF USING  ORDINARY    00000000 00001000 FFFFFFF9   5 000    7720  @R5,5
    973  00000000  FFFFFFFF USING  ORDINARY    00000000 00001000 FFFFFFFA   4 000          @R4,4
    977  00000000  FFFFFFFF USING  ORDINARY    00000000 00001000 FFFFFFFB   3 000          @R3,3
    981  00000000  FFFFFFFF USING  ORDINARY    00000000 00001000 FFFFFFFC   2 005    7538  @R2,2
    985  00000000  FFFFFFFF USING  ORDINARY    00000000 00001000 FFFFFFFD   1 F00    3413  @R1,1
    989  00000000  FFFFFFFF USING  ORDINARY    00000000 00001000 FFFFFFFE   0 000          @R0,0
    990  00000000  FFFFFFFF DROP                                            0              0
   1163  00000000  FFFFFFEE USING  ORDINARY    00000000 00001000 FFFFFFEE  12 73E    7690  CV,CVR
   3384  000002C2  00000001 USING  ORDINARY    000002C2 00001000 00000001  11 A5E    3389  $$$40B,11
   3398  000002C6  00000001 USING  ORDINARY    00000000 00001000 FFFFFFF3  11 000          @R11,11
   3401  000002C6  00000001 USING  ORDINARY    00000018 00001000 00000001  11 EFC    7361  MORTBRR,11
   3588  00000370  00000001 USING  ORDINARY    00000000 00001000 FFFFFFEB   1 024    3602  PDB,R1
   3609  00000386  00000001 USING  ORDINARY    00000000 00001000 FFFFFFFD   1 001    6869  @R1,1
   3842  0000045E  00000001 USING  ORDINARY    00000000 00001000 FFFFFFEB  10 006    4052  PDB,PDBR
   3966  000004B0  00000001 USING  ORDINARY    00000000 00001000 FFFFFFE6   9 100    4086  MCB,MCBR
   4096  0000052A  00000001 USING  ORDINARY    00000000 00001000 FFFFFFE6  15 050    4109  MCB,R15
   4116  00000534  00000001 USING  ORDINARY    00000000 00001000 FFFFFFEF  15 000          @R15,15
   4124  00000536  00000001 USING  ORDINARY    00000000 00001000 FFFFFFF5   9 000          @R9,9
   4129  00000536  00000001 USING  ORDINARY    00000000 00001000 FFFFFFF4  10 000          @R10,10
   4160  00000542  00000001 USING  ORDINARY    00000000 00001000 FFFFFFE6   9 04C    4284  MCB,MCBR
   4230  00000564  00000001 USING  ORDINARY    00000000 00001000 FFFFFFEB  10 006    4245  PDB,PDBR
   4255  00000588  00000001 USING  ORDINARY    00000000 00001000 FFFFFFF4  10 000          @R10,10
   4300  000005A8  00000001 USING  ORDINARY    00000000 00001000 FFFFFFF5   9 000          @R9,9
   4323  000005AE  00000001 USING  ORDINARY    00000000 00001000 FFFFFFE6   9 054    6372  MCB,MCBR
   4333  000005B0  00000001 USING  ORDINARY    00000000 00001000 FFFFFFEB  10 038    7444  PDB,PDBR
   4405  000005F2  00000001 USING  ORDINARY    00000000 00001000 FFFFFFEC  15 07A    4490  SIB,R15
   4566  00000642  00000001 USING  ORDINARY    00000000 00001000 FFFFFFEF  15 000    6095  @R15,15
   6174  00000BB0  00000001 USING  ORDINARY    00000000 00001000 FFFFFFE7  15 004    6181  SCANCB,R15
   6188  00000BB4  00000001 USING  ORDINARY    00000000 00001000 FFFFFFEF  15 038    7386  @R15,15
   6212  00000BC4  00000001 USING  ORDINARY    00000000 00001000 FFFFFFED   7 010    6282  SUB,R7
   6309  00000BF6  00000001 USING  ORDINARY    00000000 00001000 FFFFFFF7   7 000          @R7,7
   6454  00000C5E  00000001 USING  ORDINARY    00000000 00001000 FFFFFFF5   9 000          @R9,9
   6457  00000C5E  00000001 USING  ORDINARY    00000000 00001000 FFFFFFE6   7 004    6510  MCB,R7
   6532  00000C8A  00000001 USING  ORDINARY    00000000 00001000 FFFFFFE6   9 154    7388  MCB,9
   6537  00000C8A  00000001 USING  ORDINARY    00000000 00001000 FFFFFFF7   7 000          @R7,7
   6666  00000F24  00000001 USING  ORDINARY    00000F24 00001000 00000001   8 3C6    6720  $$$144B,BR
   6733  00000F66  00000001 USING  ORDINARY    00000000 00001000 FFFFFFF6   8 000          @R8,8
   6782  00000F84  00000001 USING  ORDINARY    00000F84 00001000 00000001   8 368    6966  $$$148B,BR
   6809  00000F96  00000001 USING  ORDINARY    00000000 00001000 FFFFFFE8   7 00C    6867  SEGCB,R7
   6977  00001038  00000001 USING  ORDINARY    00000000 00001000 FFFFFFF7   7 000          @R7,7
   6982  00001038  00000001 USING  ORDINARY    00000000 00001000 FFFFFFF6   8 000          @R8,8
   7029  00001056  00000001 USING  ORDINARY    00001056 00001000 00000001   8 298    7230  $$$159B,BR
   7056  0000106A  00000001 USING  ORDINARY    00000000 00001000 FFFFFFE8   7 00C    7081  SEGCB,R7
1MORT     (MORT2047) (12:36) (15MAR04) Using Map                                                                            Page   43
   7241  00001126  00000001 USING  ORDINARY    00000000 00001000 FFFFFFF7   7 000          @R7,7
   7246  00001126  00000001 USING  ORDINARY    00000000 00001000 FFFFFFF6   8 000          @R8,8
   7295  00001144  00000001 USING  ORDINARY    00001144 00001000 00000001   8 1A8    7451  $$$171B,BR
   7322  00001158  00000001 USING  ORDINARY    00000000 00001000 FFFFFFE8   7 00C    7340  SEGCB,R7
   7462  000011EA  00000001 USING  ORDINARY    00000000 00001000 FFFFFFF7   7 000          @R7,7
   7467  000011EA  00000001 USING  ORDINARY    00000000 00001000 FFFFFFF6   8 000          @R8,8
   7516  00001208  00000001 USING  ORDINARY    00001208 00001000 00000001   8 0E4    7760  $$$180B,BR
   7548  00001222  00000001 USING  ORDINARY    00000000 00001000 FFFFFFE9   6 020    7588  PATHD,R6
   7767  000012AC  00000001 USING  ORDINARY    00000000 00001000 FFFFFFF8   6 000          @R6,6
   7772  000012AC  00000001 USING  ORDINARY    00000000 00001000 FFFFFFF6   8 000          @R8,8

1         (MORT2047) (12:36) (15MAR04) General Purpose Register Cross Reference                                             Page   44
- Register  References (M=modified, B=branch, U=USING, D=DROP, N=index)                      HLASM R4.0  2004/03/15 12.36
0    0(0)     989U  990D 1592M 1593M 1594  1596M 1597  3410M 3465M 3465  3502M 3573M 3574M 3576  3638M 3672M 3673M 3689
             3691M 3696M 3775M 3776M 3778  3803M 3882M 3883M 3885  4006M 4086M 4284M 4378M 4624M 4698M 4720M 4748M 4765M
             4805M 4805  4855M 4895M 4923M 4940M 4974M 4995M 5017M 5033M 5071M 5071  5129M 5151M 5249  5330M 5346M 5376M
             5418M 5460M 5504M 5535M 5573M 5591M 5619M 5636M 5654M 5671M 5688M 5705M 5721M 5732M 5769M 5769  5791M 5805M
             5805  5814  5840M 5861M 5919M 5949M 5949  5971M 6118M 6118  6195M 6287M 6303M 6303  6322M 6322  6360M 6709M
             6844M 6844  6918  7135  7147M 7149M 7339  7388  7588M 7682M
     1(1)     985U 3408M 3410  3412  3420  3450M 3451  3452M 3453  3474M 3504M 3554M 3564M 3574  3578M 3588U 3609U 3611
             3643M 3678  3684  3690M 3690  3691M 3698M 3756M 3766M 3776  3780M 3781  3789M 3790  3808M 3846  3847M 3847
             3880M 3881M 3883  4011  4086M 4244M 4284M 4315  4623M 4697M 4719M 4743M 4764M 4854M 4894M 4918M 4939M 4973M
             4994M 5012M 5032M 5128M 5150M 5200M 5249  5325M 5345M 5375M 5417M 5459M 5503M 5534M 5568M 5590M 5614M 5635M
             5653M 5670M 5687M 5704M 5720M 5731M 5789M 5814  5839M 5861M 5918M 5969M 6110M 6112M 6112  6114M 6123M 6125M
             6125  6194M 6282M 6359M 6424M 6562M 6868M 6874M 6918  7085M 7135  7148M 7149  7150N 7160M 7344M 7388  7530
             7593M 7684M
     2(2)     981U 3931M 3943  3952M 3953M 4086M 4284M 5249  6019  6037M 6040  6052M 6066N 6072M 6081M 6081  6088  6153M
             6654  6740M 6770  6918  6989M 7017  7135  7253M 7283  7388  7474M 7504  7531M 7553  7779M
     3(3)     977U 4086M 4284M 5249  6019  6153M 6654  6740M 6770  6918  6989M 7017  7135  7253M 7283  7388  7474M 7504
             7779M
     4(4)     973U 4086M 4284M 5249  6019  6153M 6654  6740M 6770  6918  6989M 7017  7135  7253M 7283  7388  7474M 7504
             7779M
     5(5)     969U 4086M 4284M 5249  6019  6153M 6654  6740M 6770  6918  6989M 7017  7135  7253M 7283  7388  7474M 7504
             7552M 7779M
     6(6)     965U 4086M 4284M 5249  6019  6036M 6114  6153M 6471M 6472M 6472  6487  6496  6654  6740M 6770  6918  6989M
             7017  7135  7253M 7283  7388  7474M 7504  7530M 7548U 7767U 7779M
     7(7)     961U 4086M 4284M 5249  6019  6153M 6196M 6212U 6226M 6227M 6227  6309U 6433M 6457U 6496M 6537U 6548  6654
             6740M 6770  6799M 6809U 6885  6918  6977U 6989M 7017  7046M 7056U 7102  7135  7241U 7253M 7283  7312M 7322U
             7355  7388  7462U 7474M 7504  7779M
     8(8)     957U 4086M 4284M 5249  6019  6153M 6654  6655M 6666U 6733U 6740M 6770  6771M 6782U 6918  6982U 6989M 7017
             7018M 7029U 7135  7246U 7253M 7283  7284M 7295U 7388  7467U 7474M 7504  7505M 7516U 7772U 7779M
     9(9)     953U 3956M 3957M 3957  3966U 4011M 4021  4023  4030  4086M 4124U 4151M 4160U 4175M 4176M 4176  4284M 4300U
             4315M 4323U 5249  6019  6153M 6454U 6487  6532U 6654  6740M 6770  6918  6989M 7017  7135  7253M 7283  7388
             7474M 7504  7779M
    10(A)     949U 3833M 3842U 4031  4086M 4129U 4221M 4230U 4255U 4284M 4325M 4333U 5249  6019  6153M 6654  6740M 6770
             6854M 6918  6989M 7017  7060M 7135  7253M 7283  7326M 7388  7474M 7504  7779M
    11(B)     945U 3374M 3384U 3389M 3398U 3401U 4029  4086M 4284M 5249  6019  6153M 6654  6740M 6770  6918  6989M 7017
             7135  7253M 7283  7388  7474M 7504  7779M
    12(C)     941U 1163U 3404M 4027  4086M 4284M 5249  6918  7135  7388
    13(D)     937U 3420M 3421M 3422  3422  3474  3643  3714M 3715M 3716  3716  3808  4028  4086M 4282  4284M 5234  5249
             5814  5815M 5817  5817  5818  5818  5858M 5858  5861  5863  5863  6016  6019  6020M 6022  6022  6023  6023
             6024  6032M 6034  6034  6035  6035  6036  6141M 6141  6144  6144  6150M 6150  6153  6155  6157  6157  6651
             6654  6670M 6672  6672  6673  6673  6674  6686M 6688  6688  6689  6689  6690  6723M 6723  6726  6726  6737M
             6737  6740  6742  6744  6744  6767  6770  6786M 6788  6788  6789  6789  6790  6903  6918  6986M 6986  6989
             6991  6993  6993  7014  7017  7033M 7035  7035  7036  7036  7037  7120  7135  7250M 7250  7253  7255  7257
             7257  7280  7283  7299M 7301  7301  7302  7302  7303  7373  7388  7471M 7471  7474  7476  7478  7478  7501
             7504  7520M 7522  7522  7523  7523  7524  7593  7776M 7776  7779  7781  7783  7783
    14(E)     933U 1591B 1601B 3426M 3427M 3427B 3676M 3677M 3677B 3684M 3691M 4009M 4010M 4010B 4086M 4118B 4248M 4249M
             4249B 4284M 4285B 4376M 4377M 4377B 4381M 4382M 4382B 4582M 4583M 4583B 4635M 4636M 4636B 4675M 4676M 4676B
             4709M 4710M 4710B 4731M 4732M 4732B 4759M 4760M 4760B 4776M 4777M 4777B 4816M 4817M 4817B 4832M 4833M 4833B
             4866M 4867M 4867B 4906M 4907M 4907B 4934M 4935M 4935B 4951M 4952M 4952B 4985M 4986M 4986B 5028M 5029M 5029B
             5057M 5058M 5058B 5082M 5083M 5083B 5106M 5107M 5107B 5140M 5141M 5141B 5162M 5163M 5163B 5166M 5167M 5167B
             5191M 5192M 5192B 5210M 5211M 5211B 5248M 5249  5341M 5342M 5342B 5371M 5372M 5372B 5429M 5430M 5430B 5437M
             5438M 5438B 5471M 5472M 5472B 5515M 5516M 5516B 5519M 5520M 5520B 5546M 5547M 5547B 5584M 5585M 5585B 5602M
             5603M 5603B 5630M 5631M 5631B 5647M 5648M 5648B 5665M 5666M 5666B 5682M 5683M 5683B 5699M 5700M 5700B 5716M
             5717M 5717B 5743M 5744M 5744B 5755M 5756M 5756B 5851M 5852M 5852B 5885M 5886M 5886B 5892M 5935M 5936M 5936B
             5998M 5999M 5999B 6001M 6016  6138M 6139M 6139B 6155M 6159B 6298M 6299M 6299B 6351M 6352M 6352B 6428M 6429M
             6429B 6565M 6566M 6566B 6651  6682M 6683M 6683B 6693M 6694M 6694B 6720M 6721M 6721B 6742M 6746B 6767  6877M
1         (MORT2047) (12:36) (15MAR04) General Purpose Register Cross Reference                                             Page   45
             6888M 6889M 6889B 6917M 6918  6919M 6920B 6991M 6995B 7014  7088M 7105M 7106M 7106B 7134M 7135  7136M 7137B
             7255M 7259B 7280  7347M 7358M 7359M 7359B 7387M 7388  7389M 7390B 7476M 7480B 7501  7781M 7785B
    15(F)     929U 1589M 1590M 1590  1592  1597M 1600M 1600  3413M 3414  3469M 3469  3486M 3486  3553M 3554  3555M 3557
             3572M 3573  3576M 3633M 3655M 3655  3689M 3691M 3755M 3756  3757M 3759  3774M 3775  3778M 3798M 3820M 3820
             3879M 3882  3885M 4083M 4085M 4096U 4109M 4116U 4245M 4284M 4325  4373M 4395M 4405U 4566U 4579M 4632M 4706M
             4728M 4756M 4773M 4813M 4863M 4903M 4931M 4948M 4982M 5025M 5054M 5079M 5137M 5159M 5188M 5207M 5222M 5234
             5249  5338M 5368M 5426M 5468M 5512M 5527M 5543M 5551M 5551  5581M 5599M 5627M 5644M 5662M 5679M 5696M 5713M
             5740M 5752M 5848M 5882M 5932M 5995M 6057M 6058  6066M 6068M 6135M 6158M 6158  6174U 6181M 6188U 6295M 6348M
             6382M 6382  6425M 6551M 6552M 6553M 6690M 6717M 6745M 6745  6799  6817M 6817  6867M 6868N 6870M 6871  6872M
             6873  6875M 6885M 6891M 6903  6918  6926M 6926  6944M 6966M 6994M 6994  7081M 7082  7083M 7084  7086M 7102M
             7108M 7120  7135  7150M 7168M 7168  7186M 7208M 7230M 7258M 7258  7340M 7341  7342M 7343  7345M 7355M 7361M
             7373  7388  7396M 7396  7429M 7451M 7479M 7479  7531  7583M 7603M 7603  7623  7745  7760M 7784M 7784

1MORT     (MORT2047) (12:36) (15MAR04) Diagnostic Cross Reference and Assembler Summary                                     Page   46
-                                                                                            HLASM R4.0  2004/03/15 12.36
0     No Statements Flagged in this Assembly
 HIGH LEVEL ASSEMBLER, 5696-234, RELEASE 4.0, PTF UQ57391
0SYSTEM: OS/390 02.10.00            JOBNAME: MIL#MORT    STEPNAME: ASM        PROCSTEP: (NOPROC)
0Datasets Allocated for this Assembly
  Con DDname   Dataset Name                                 Volume  Member
   P1 SYSIN    WYL.GS.MIL.MILTEN.SOURCE                     SYSB05  MORT
   L1 SYSLIB   WYL.GS.MIL.MILTEN.MACLIB                     SYSB05
   L2          WYL.GG.SYS.MACLIB                            SYSB05
   L3          SYS3.IS.MACLIB                               SYSB05
   L4          SYS3.MACLIB                                  SYSB02
   L5          SYS1.MACLIB                                  MVSBR9
   L6          SYS1.MODGEN                                  MVSBR9
      SYSPRINT SYS04075.T123633.RA000.MIL#MORT.PRINT.H01    SCR100
      SYSTERM  GG$SLP.MIL#MORT.JOB03420.D0000101.?

    3776K allocated to Buffer Pool,         1513K would be required for this to be an In-Storage Assembly
     716 Primary Input Records Read         8420 Library Records Read                  0 Work File Reads
       0 ASMAOPT Records Read               3275 Primary Print Records Written         0 Work File Writes
       0 Punch Records Written                 0 ADATA Records Written
0Assembly Start Time: 12.36.35 Stop Time: 12.36.43 Processor Time: 00.00.01.6445
 Return Code 000
