1                        J E S 2  J O B  L O G  --  S Y S T E M  S Y S B  --  N O D E  R L G
0
 12.35.09 JOB03412 ---- MONDAY,    15 MAR 2004 ----
 12.35.09 JOB03412  ICH70001I GG$SLP   LAST ACCESS AT 23:41:01 ON FRIDAY, MARCH 12, 2004
 12.35.09 JOB03412  $HASP373 MIL#CONS STARTED - INIT 6    - CLASS B - SYS SYSB
 12.35.09 JOB03412  ***  HCMD      STEP $$QUIET
 12.35.09 JOB03412  PUR * Q OUT MUL
 12.35.09 JOB03412  JOB 5457 MIL#CONS WILL BE PURGED
 12.35.10 JOB03412  MIL#CONS.$$QUIET .         RC=Zero TapeIO=0000 DiskIO=0000 CPU=  .01s Elapsed=09.46s
 12.35.18 JOB03412  MIL#CONS.ASM     .         RC=Zero TapeIO=0000 DiskIO=0605 CPU= 3.04s Elapsed=10.57s
 12.35.19 JOB03412  MIL#CONS.EDIT    .         RC=Zero TapeIO=0000 DiskIO=0123 CPU=  .39s Elapsed=18.56s
 12.35.19 JOB03412  MIL#CONS Ended.  Name=Assemble CONS                  Total CPU= 3.44s Elapsed=09.46s
 12.35.19 JOB03412
 12.35.19 JOB03412  Execution charges   Priority=Standard   Block=Day
 12.35.19 JOB03412
 12.35.19 JOB03412  CPU Usage          63.00          $39.06   Standard Processing Unit Equivalent
 12.35.19 JOB03412                                   =======
 12.35.19 JOB03412                                    $39.06   Total Job execution charge
 12.35.19 JOB03412
 12.35.19 JOB03412  See back separator page for print charges
 12.35.19 JOB03412
 12.35.19 JOB03412  $HASP395 MIL#CONS ENDED  ASM=0, EDIT=0
1        1 //MIL#CONS JOB SLP$GG,'Assemble CONS',TIME=4,REGION=4M                  JOB03412
           //*
           /*JOBPARM LINES=99,COPIES=1
           /*JOBPARM FORMS=3HOL,PFORMAT=LAND,CHARS=BD13,DUPLEX=YES,FLASH=BAR4
           //*
           /*JOBPARM NOTIFY=GG.SLP,HOLD=OUTPUT                                     WYLGEN
         2 //$$QUIET EXEC PGM=HCMDX,PARM='PUR * Q OUT MUL'
           //*
         3 //ASM    EXEC PGM=ASMA90,REGION=8M,
           //            PARM=('NORENT,TERM,FLAG(NOCONT),US(MAP,WARN(10)),NODECK',
           //            'LC(32767),XREF(SHORT),ESD,DXREF,NOOBJECT')
           //*STEPLIB  DD DSN=SYS1.SASMMOD1,DISP=SHR
         4 //SYSLIB   DD  DSN=WYL.GS.MIL.MILTEN.MACLIB,DISP=SHR
         5 //         DD  DSN=WYL.GG.SYS.MACLIB,DISP=SHR
         6 //         DD  DSN=SYS3.IS.MACLIB,DISP=SHR
         7 //         DD  DSN=SYS3.MACLIB,DISP=SHR
         8 //         DD  DSN=SYS1.MACLIB,DISP=SHR
         9 //         DD  DSN=SYS1.MODGEN,DISP=SHR
        10 //SYSUT1   DD DSN=&&SYSUT1,UNIT=VIO,DISP=(,DELETE),
           //            SPACE=(4088,(500,250),,CONTIG,ROUND)
        11 //SYSTERM  DD SYSOUT=T
        12 //SYSPRINT DD DSN=&&PRINT,UNIT=SYSDA,DISP=(,PASS),
           //            SPACE=(6650,(250,250),RLSE),
           //            DCB=(BLKSIZE=6650,LRECL=133,RECFM=FB)
        13 //SYSUDUMP DD SYSOUT=A
        14 //SYSIN    DD  DSN=WYL.GS.MIL.MILTEN.SOURCE(CONS),DISP=SHR
           //*
        15 //EDIT    EXEC PGM=ASMEDIT,TIME=2,REGION=4000K,
           //             PARM='STMT'
        16 //STEPLIB  DD  DSN=WYL.GG.SYS.LINKLIB,DISP=SHR
        17 //ASMOUT   DD  DSN=&PRINT,DISP=(OLD,DELETE)
        18 //SYSPRINT DD  SYSOUT=A
1 STMT NO. MESSAGE
 -
        10 IGD01010I STORCLAS= TEMP STORGROUP =
        10 IGD01010I STORGRP=VIO ASSIGNED.
        12 IGD01010I STORCLAS= TEMP STORGROUP =
        12 IGD01010I STORGRP=VIO ASSIGNED.
 ICH70001I GG$SLP   LAST ACCESS AT 23:41:01 ON FRIDAY, MARCH 12, 2004
 IEF142I MIL#CONS $$QUIET - STEP WAS EXECUTED - COND CODE 0000
 *********************************************************************************
 *   MIL#CONS/$$QUIET /                    Return Code      Zero                 *
 *   Region used      260K (16K user + 244K system)                              *
 *   Extended region  9692K (4K user + 9688K system)                             *
 *                                                                               *
 *   Paging              In      Out                                             *
 *   Private <-> Aux      0        0       CPU time (TCB)   00:00:00.01          *
 *   Private <-> Exp      0        0       CPU time (SRB)   00:00:00.00          *
 *   VIO                  0        0       Elapsed time    917:52:43.50          *
 *   Common               0      ---                                             *
 *                                                                               *
 *                                                                               *
 *   CPU Usage          0.18         $0.11  Standard Processing Unit Equivalent  *
 *                                   $0.11  Total Step execution charge          *
 *                                                                               *
 *    I/O count  DDname   Type Addr           I/O count  DDname   Type Addr      *
 *                         *** No I/O for this step ***                          *
 *********************************************************************************
 IEF373I STEP/$$QUIET /START 2004075.1235
 IEF374I STEP/$$QUIET /STOP  2004075.1235 CPU    0MIN 00.01SEC SRB    0MIN 00.00SEC VIRT    16K SYS   244K EXT       4K SYS    9688K
 IEF236I ALLOC. FOR MIL#CONS ASM
 IEF237I 04DC ALLOCATED TO SYSLIB
 IEF237I 04DC ALLOCATED TO
 IEF237I 04DC ALLOCATED TO
 IEF237I 0402 ALLOCATED TO
 IEF237I 04A0 ALLOCATED TO
 IEF237I 04A0 ALLOCATED TO
 IGD101I SMS ALLOCATED TO DDNAME (SYSUT1  )
         DSN (SYS04075.T123509.RA000.MIL#CONS.SYSUT1.H01  )
         STORCLAS (TEMP) MGMTCLAS (        ) DATACLAS (        )
         VOL SER NOS= VIO
 IEF237I JES2 ALLOCATED TO SYSTERM
 IGD101I SMS ALLOCATED TO DDNAME (SYSPRINT)
         DSN (SYS04075.T123509.RA000.MIL#CONS.PRINT.H01   )
         STORCLAS (TEMP) MGMTCLAS (        ) DATACLAS (        )
         VOL SER NOS= SCR100
 IEF237I JES2 ALLOCATED TO SYSUDUMP
 IEF237I 04DC ALLOCATED TO SYSIN
 IEF142I MIL#CONS ASM - STEP WAS EXECUTED - COND CODE 0000
 IEF285I   WYL.GS.MIL.MILTEN.MACLIB                     KEPT
 IEF285I   VOL SER NOS= SYSB05.
 IEF285I   WYL.GG.SYS.MACLIB                            KEPT
 IEF285I   VOL SER NOS= SYSB05.
 IEF285I   SYS3.IS.MACLIB                               KEPT
 IEF285I   VOL SER NOS= SYSB05.
 IEF285I   SYS3.MACLIB                                  KEPT
 IEF285I   VOL SER NOS= SYSB02.
 IEF285I   SYS1.MACLIB                                  KEPT
 IEF285I   VOL SER NOS= MVSBR9.
 IEF285I   SYS1.MODGEN                                  KEPT
 IEF285I   VOL SER NOS= MVSBR9.
 IGD105I SYS04075.T123509.RA000.MIL#CONS.SYSUT1.H01   DELETED,   DDNAME=SYSUT1
 IEF285I   GG$SLP.MIL#CONS.JOB03412.D0000101.?          SYSOUT
 IGD106I SYS04075.T123509.RA000.MIL#CONS.PRINT.H01    PASSED,    DDNAME=SYSPRINT
 IEF285I   GG$SLP.MIL#CONS.JOB03412.D0000102.?          SYSOUT
 IEF285I   WYL.GS.MIL.MILTEN.SOURCE                     KEPT
 IEF285I   VOL SER NOS= SYSB05.
 *********************************************************************************
 *   MIL#CONS/ASM     /                    Return Code      Zero                 *
 *   Region used      4372K (4096K user + 276K system)                           *
 *   Extended region  10284K (412K user + 9872K system)                          *
 *                                                                               *
 *   Paging              In      Out                                             *
 *   Private <-> Aux      0        0       CPU time (TCB)   00:00:02.97          *
 *   Private <-> Exp      0        0       CPU time (SRB)   00:00:00.07          *
 *   VIO                  0        0       Elapsed time    917:52:42.39          *
 *   Common               0      ---                                             *
 *                                                                               *
 *                                                                               *
 *   CPU Usage         55.68        $34.52  Standard Processing Unit Equivalent  *
 *                                  $34.52  Total Step execution charge          *
 *                                                                               *
 *    I/O count  DDname   Type Addr           I/O count  DDname   Type Addr      *
 *          251  SYSLIB   Disk 04DC                   0  SYSLIB   Disk 04DC      *
 *            0  SYSLIB   Disk 04DC                   2  SYSLIB   Disk 0402      *
 *          214  SYSLIB   Disk 04A0                   0  SYSLIB   Disk 04A0      *
 *           13  SYSUT1   VIO  ----                   0  SYSTERM       ----      *
 *          120  SYSPRINT Disk 038B                   0  SYSUDUMP      ----      *
 *           18  SYSIN    Disk 04DC                                              *
 *********************************************************************************
 IEF373I STEP/ASM     /START 2004075.1235
 IEF374I STEP/ASM     /STOP  2004075.1235 CPU    0MIN 02.97SEC SRB    0MIN 00.07SEC VIRT  4096K SYS   276K EXT     412K SYS    9872K
 IEF236I ALLOC. FOR MIL#CONS EDIT
 IEF237I 0402 ALLOCATED TO STEPLIB
 IGD103I SMS ALLOCATED TO DDNAME ASMOUT
 IEF237I JES2 ALLOCATED TO SYSPRINT
 IEF142I MIL#CONS EDIT - STEP WAS EXECUTED - COND CODE 0000
 IEF285I   WYL.GG.SYS.LINKLIB                           KEPT
 IEF285I   VOL SER NOS= SYSB02.
 IGD105I SYS04075.T123509.RA000.MIL#CONS.PRINT.H01    DELETED,   DDNAME=ASMOUT
 IEF285I   GG$SLP.MIL#CONS.JOB03412.D0000103.?          SYSOUT
 *********************************************************************************
 *   MIL#CONS/EDIT    /                    Return Code      Zero                 *
 *   Region used      380K (116K user + 264K system)                             *
 *   Extended region  9812K (4K user + 9808K system)                             *
 *                                                                               *
 *   Paging              In      Out                                             *
 *   Private <-> Aux      0        0       CPU time (TCB)   00:00:00.38          *
 *   Private <-> Exp      0        0       CPU time (SRB)   00:00:00.01          *
 *   VIO                  0        0       Elapsed time    917:52:34.40          *
 *   Common               0      ---                                             *
 *                                                                               *
 *                                                                               *
 *   CPU Usage          7.12         $4.41  Standard Processing Unit Equivalent  *
 *                                   $4.41  Total Step execution charge          *
 *                                                                               *
 *    I/O count  DDname   Type Addr           I/O count  DDname   Type Addr      *
 *            2  STEPLIB  Disk 0402                 121  ASMOUT   Disk 038B      *
 *            0  SYSPRINT      ----                                              *
 *********************************************************************************
 IEF373I STEP/EDIT    /START 2004075.1235
 IEF374I STEP/EDIT    /STOP  2004075.1235 CPU    0MIN 00.38SEC SRB    0MIN 00.01SEC VIRT   116K SYS   264K EXT       4K SYS    9808K
 *********************************************************************************
 *                                                                               *
 *                      S t a n f o r d   U n i v e r s i t y                    *
 *                                                                               *
 *                              *** Job Summary ***                              *
 *                                                                               *
 *   System Id      SYSB                   Input time     12:35:09  Mar 15, 2004 *
 *                                                                               *
 *   System Release SP6.1.0                Start time     12:35:09  Mar 15, 2004 *
 *                                                                               *
 *   Job name       MIL#CONS               Stop  time     00:00:00  Mar 15, 2004 *
 *                                                                               *
 *   Account        SLP$GG                 Elapsed time  917:52:43.50            *
 *                                                                               *
 *   User Name      Assemble CONS          CPU time       00:00:03.36            *
 *                                                                               *
 *   Job class      B                      SRB Time       00:00:00.08            *
 *                                                                               *
 *********************************************************************************
 IEF375I  JOB/MIL#CONS/START 2004075.1235
 IEF376I  JOB/MIL#CONS/STOP  2004075.1235 CPU    0MIN 03.36SEC SRB    0MIN 00.08SEC
1Assembler Done CONS No Statements Flagged
1         High Level Assembler Option Summary                   (PTF UQ57391)                                               Page    1
-                                                                                            HLASM R4.0  2004/03/15 12.35
0  No Overriding ASMAOPT Parameters
   Overriding Parameters-  NORENT,TERM,FLAG(NOCONT),US(MAP,WARN(10)),NODECK,LC(32767),XREF(SHORT),ESD,DXREF,NOOBJECT
   No Process Statements


   Options for this Assembly
0  NOADATA
     ALIGN
   NOASA
     BATCH
     CODEPAGE(047C)
   NOCOMPAT
   NODBCS
 3 NODECK
 3   DXREF
 3   ESD
   NOEXIT
 3   FLAG(0,ALIGN,NOCONT,NOIMPLEN,NOPAGE0,PUSH,RECORD,NOSUBSTR,USING0)
   NOFOLD
   NOGOFF
   NOINFO
     LANGUAGE(EN)
   NOLIBMAC
 3   LINECOUNT(32767)
     LIST(121)
     MXREF(SOURCE)
 3 NOOBJECT
     OPTABLE(UNI,NOLIST)
   NOPCONTROL
   NOPESTOP
   NOPROFILE
   NORA2
 3 NORENT
     RLD
     RXREF
     SIZE(MAX)
     SYSPARM()
 3   TERM(WIDE)
   NOTEST
     THREAD
   NOTRANSLATE
 3   USING(NOLIMIT,MAP,WARN(10))
 3   XREF(SHORT)

   No Overriding DD Names

1CONS     External Symbol Dictionary                                                                                        Page    2
-Symbol   Type   Id     Address  Length     LD ID  Flags Alias-of                            HLASM R4.0  2004/03/15 12.35
0MILCONS   SD 00000001 00000000 00001AA8             00
 CONS4072  LD          00000000           00000001
 CONSDEF   LD          00000018           00000001
 CONSPORT  LD          000000A4           00000001
 CONSFIN   LD          0000019C           00000001
 GETFEB    ER 00000002
 DEFPRT    ER 00000003
 SCAN      ER 00000004
 SEGTB     ER 00000005
 GETPIB    ER 00000006
 PORTPRT   ER 00000007
 GETSCB    ER 00000008
 SUBSTART  ER 00000009
 CONSCNTL  LD          00000384           00000001
 CONSUPD   LD          00000538           00000001
 CONSDO    LD          000005AA           00000001
 CONSPOST  LD          000008DE           00000001
 CONSDIE   LD          00000CFC           00000001
 CONSCMD   LD          00000D2A           00000001
 CONSFMT   LD          00000F7C           00000001
 FREESCB   ER 0000000A
 FREEPIB   ER 0000000B
 SEGT      ER 0000000C
 SEGWR     ER 0000000D
 FREECORE  ER 0000000E
 SEG       ER 0000000F
 SUBSEND   ER 00000010
 SHUTDOWN  ER 00000011
 NGETCORE  ER 00000012
 SEGDC     ER 00000013
 SEGB      ER 00000014
 SEGHX     ER 00000015
 SEGCOL    ER 00000016
 WTOSEG    LD          000012F2           00000001
 DOM       LD          00001508           00000001
 WTO       LD          00001576           00000001
 AMODE31   ER 00000017

1CONS     MILTEN's Console Interface                                                                                        Page    3
0Loc    Object Code    Addr1 Addr2  Stmt Lv Lineno    Source Statement                    (Asmedit 3.3)  HLASM R4.0  2004/03/15 12.35
+___    ______ ____    _____ _____  ____ __ ______    ______ _________
0                                      2              *******************************************************************
                                       3              *                                                                 *
                                       4              *     MILTEN/370 - Release VI - Class I - Stanford Proprietary    *
                                       5              *                                                                 *
                                       6              *******************************************************************
                                       7                       HIBAL
                                     995
 000000                00000 01AA8   996              MILCONS  CSECT
                                    1000              CONS     IDENT 4072                10:31:57 03/12/04  (SLP)
                                    1003             +
                                    1004    01-IDENT +         ENTRY CONS4072
                                    1005             +
 000000 16C3D6D5E2F4F0F7            1006    01-IDENT +CONS4072 DC    AL1(22),C'CONS4072,15MAR04,12:35'
                                    1007             +*
                                    1009                       REGS  ,,FSR,,,,,,BR,SCBR,PIBR,(FEBR,LSR),CVR,SPR,RAR
                                    1141
                                    1142                       SYSDEFN
                                    1143                       GBLC  &OPRACCT            Console session account
                                    1144
                                    1145                       PUSH  DSECTS
 USING  CV,R12                      1157             =         USING CV
 000017                00000 01AA8  1166             =         POP   PRINT
1CONS     (CONS4072) (12:35) (15MAR04) DSECTS                                                                               Page    4
0Current Usings:  (CV,R12)
0Loc    Object Code    Addr1 Addr2  Stmt Lv Lineno    Source Statement           (Hibal 5, Asmedit 3.3)  HLASM R4.0  2004/03/15 12.35
+___    ______ ____    _____ _____  ____ __ ______    ______ _________
0000000                00000 000B8  8044              FEB      RECORD BEGIN
                                    8052  1                      COPY  FEB
                                    8053= 1          =¿þþþþþþþþþþþþþþþþþþþþþþþþþþþþþþþþþþþþþþþþþþþþþþþþþþþþþþþþþþþþþþþþþþþþþÜ
                                    8054= 1          =Ÿ                                                                     Ÿ
                                    8055= 1          =Ÿ  Front End Block                                                    Ÿ
                                    8056= 1          =Ÿ                                                                     Ÿ
                                          1           ¾þþþþþþþþþþþþþþþþþþþþþþþþþþþþþþþþþþþþþþþþþþþþþþþþþþþþþþþþþþþþþþþþþþþþþ»
0000000                             8057  1          =           DS    CL4'FEB'
 000004                             8058  1          =FEBID      DS    H                   Unique identifier
 000006                             8059  1          =           DS    H                   Reserved
                                    8060  1          =
 000008                             8061  1          =FEBLINK    DS    A                   Ptr to next FEB (or zero)
                                    8062  1          =
 00000C 00                          8063  1          =FEBGFLG    FLAG
 FEBGFLG.FEBFFIX   80 ONES          8067  1          =           FLAG  FEBFFIX             - FEB is in page-fixed core
 FEBGFLG.FEBFOPEN  40 ONES          8072  1          =           FLAG  FEBFOPEN            - Front-end is open
                                    8077  1          =
 00000D                             8078  1          =FEBTYPE    DS    X                   Type
                                    8079  1          =FEBTCONS   EQU   1                   - Console
                                    8080  1          =FEBTASYN   EQU   2                   - Async (3705ep, 1270, etc.)
                                    8081  1          =FEBTPDP    EQU   3                   - Pdp
                                    8082  1          =FEBTVTAM   EQU   4                   - Vtam
                                    8083  1          =FEBTVIRT   EQU   5                   - Virtual
                                    8084  1          =FEBTNSC    EQU   6                   - Nsc (RLIN)
                                    8085  1          =FEBTELF    EQU   7                   - Elf
                                    8086  1          =FEBTALF    EQU   8                   - Alf
                                    8087  1          =FEBTECU    EQU   9                   - ECU (RLIN)
                                    8088  1          =FEBTMAX    EQU   9
                                    8089  1          =
 000010                             8090  1          =           DS    0F
 000010                             8091  1          =FEBUC      DS    H                   Update count
 000012                             8092  1          =FEBTMLIM   DS    H                   Notime limit during PEAK times
                                    8093  1          =
 000014                             8094  1          =FEBNAME    DS    CL8                 Name
 00001C                             8095  1          =FEBINFO    DS    CL12                Info (text)
                                    8096  1          =
 000028                             8097  1          =FEBMCLCK   DS    XL8                 Clock when message was set
 000030                             8098  1          =FEBMSG     DS    CL64                Message
                                    8099  1          =
 000070 00                          8100  1          =FEBPFLG    FLAG
 FEBPFLG.FEBFPS    80 ONES          8104  1          =           FLAG  FEBFPS              - "Pseudo" front-end
 FEBPFLG.FEBFLEAS  40 ONES          8109  1          =           FLAG  FEBFLEAS            - Front-end is leased
 FEBPFLG.FEBFRLIN  20 ONES          8114  1          =           FLAG  FEBFRLIN            - Front-end belongs to rlin
                                    8119  1          =
 000071 00                          8120  1          =FEBPFLG2   FLAG
 FEBPFLG2.FEBFCLS  80 ONES          8124  1          =           FLAG  FEBFCLS             - Closed
 FEBPFLG2.FEBFDET  40 ONES          8129  1          =           FLAG  FEBFDET             - Detached
 FEBPFLG2.FEBFDOWN 20 ONES          8134  1          =           FLAG  FEBFDOWN            - Status: down
                                    8139  1          =
 000072                             8140  1          =FEBQMAX    DS    H                   Max I/O queue size (for stats)
                                    8141  1          =
 000074                             8142  1          =FEBPCUR    DS    H                   Current no. of ports
 000076                             8143  1          =FEBPMAX    DS    H                   Max no. of ports
1CONS     (CONS4072) (12:35) (15MAR04) DSECTS                                                                               Page    5
0Current Usings:  (CV,R12)
0Loc    Object Code    Addr1 Addr2  Stmt Lv Lineno    Source Statement           (Hibal 5, Asmedit 3.3)  HLASM R4.0  2004/03/15 12.35
+___    ______ ____    _____ _____  ____ __ ______    ______ _________
0                                   8144  1          =
 000078                             8145  1          =FEBSCLCK   DS    XL8                 Clock at start
                                    8146  1          =
 000080                             8147  1          =FEBSCUR    DS    H                   Current no. of sessions
 000082                             8148  1          =FEBSMAX    DS    H                   Max no. of sessions
 000084                             8149  1          =FEBSMCLK   DS    XL8                 Clock at max
 00008C                             8150  1          =FEBNSES    DS    F                   Total no. of sessions
                                    8151  1          =
 000090                             8152  1          =FEBNIO     DS    F                   Total no. of I/O's
 000094                             8153  1          =FEBNHWE    DS    F                   Total no. of hw errors
                                    8154  1          =FEBBASIC   EQU   FEBUC,*-FEBUC,C'X'  ******
                                    8155  1          =
 000098                             8156  1          =FEBPATP    DS    A                   PAT ptr
                                    8157  1          =
 00009C                             8158  1          =FEBTRCP    DS    4A                  Trace ptrs: len,cur,first,end
                                    8159  1          =
 0000AC                             8160  1          =           DS    2F                  Reserved
                                    8161  1          =
 0000B8                             8162  1          =           DS    0D
                                    8163  1           *****  device dependent line
 0000B8                000B8 000B8  8164                       END
1CONS     (CONS4072) (12:35) (15MAR04) DSECTS                                                                               Page    6
0Current Usings:  (CV,R12)
0Loc    Object Code    Addr1 Addr2  Stmt Lv Lineno    Source Statement           (Hibal 5, Asmedit 3.3)  HLASM R4.0  2004/03/15 12.35
+___    ______ ____    _____ _____  ____ __ ______    ______ _________
0000000                00000 000AC  8174              PIB      RECORD BEGIN
                                    8182  1                      COPY  PIB
                                    8183= 1          =¿þþþþþþþþþþþþþþþþþþþþþþþþþþþþþþþþþþþþþþþþþþþþþþþþþþþþþþþþþþþþþþþþþþþþþÜ
                                    8184= 1          =Ÿ                                                                     Ÿ
                                    8185= 1          =Ÿ  Port Information Block                                             Ÿ
                                    8186= 1          =Ÿ                                                                     Ÿ
                                          1           ¾þþþþþþþþþþþþþþþþþþþþþþþþþþþþþþþþþþþþþþþþþþþþþþþþþþþþþþþþþþþþþþþþþþþþþ»
0000000                             8187  1          =           DS    CL4'PIB'
 000004                             8188  1          =PIBNO      DS    H                   Port number
 000006                             8189  1          =           DS    H                   Reserved
 000008                             8190  1          =PIBFEBP    DS    A                   FEB ptr
 00000C                             8191  1          =PIBSCBP    DS    A                   SCB ptr
 000010                             8192  1          =PIBDFSYS   DS    CL8                 Default subsystem name (or zeros)
                                    8193  1          =
 000018 00                          8194  1          =PIBGFLG    FLAG
 PIBGFLG.PIBFFIX   80 ONES          8198  1          =           FLAG  PIBFFIX             - PIB is in page-fixed core
                                    8203  1          =
 000019                             8204  1          =PIBTID     DS    CL8                 Pre-assigned terminal id
                                    8205  1          =
 000021                             8206  1          =PIBDFACT   DS    XL5                 Default logon account (uuugg)
                                    8207  1          =
 000026                             8208  1          =PIBTETYP   DS    X                   SMF port type
 000027                             8209  1          =           DS    XL3                 Reserved
                                    8210  1          =
 00002C                             8211  1          =           DS    F                   Reserved
                                    8212  1          =
 000030                             8213  1          =           DS    0F
 000030                             8214  1          =PIBUC      DS    H                   Update count
 000032                             8215  1          =           DS    XL2                 Reserved
                                    8216  1          =
 000034                             8217  1          =PIBNAME    DS    CL8                 Port name
 00003C                             8218  1          =PIBINFO    DS    CL20                Port information (NCC address)
 000050                             8219  1          =PIBLOC     DS    CL20                Port location
                                    8220  1          =
 000064 00                          8221  1          =PIBFLAG    FLAG
 PIBFLAG.PIBFDIAL  80 ONES          8225  1          =           FLAG  PIBFDIAL            - Dial-up
 PIBFLAG.PIBFSUN   40 ONES          8230  1          =           FLAG  PIBFSUN             - SUNet
 PIBFLAG.PIBFDIR   20 ONES          8235  1          =           FLAG  PIBFDIR             - Direct
 PIBFLAG.PIBFGAND  10 ONES          8240  1          =           FLAG  PIBFGAND            - Gandalf
 PIBFLAG.PIBFDUMB  08 ONES          8245  1          =           FLAG  PIBFDUMB            - Dumb front-end (ASYNC, etc.)
                                    8250  1          =
 000065 00                          8251  1          =PIBFLAG2   FLAG
 PIBFLAG2.PIBFLEAS 80 ONES          8255  1          =           FLAG  PIBFLEAS            - Leased
 PIBFLAG2.PIBFTEL  40 ONES          8260  1          =           FLAG  PIBFTEL             - Telenet
 PIBFLAG2.PIBFTYM  20 ONES          8265  1          =           FLAG  PIBFTYM             - Tymnet
 PIBFLAG2.PIBFRLIN 10 ONES          8270  1          =           FLAG  PIBFRLIN            - Rlin
                                    8275  1          =
 000066 00                          8276  1          =PIBFLAG3   FLAG
 PIBFLAG3.PIBFPS   80 ONES          8280  1          =           FLAG  PIBFPS              - Pseudo session
 PIBFLAG3.PIBFPTID 40 ONES          8285  1          =           FLAG  PIBFPTID            - Terminal id is pre-assigned
 PIBFLAG3.PIBFOP   20 ONES          8290  1          =           FLAG  PIBFOP              - Operator
 PIBFLAG3.PIBFSEC  10 ONES          8295  1          =           FLAG  PIBFSEC             - Secure session
 PIBFLAG3.PIBFSEST 08 ONES          8300  1          =           FLAG  PIBFSESTRC          - Do session tracing
1CONS     (CONS4072) (12:35) (15MAR04) DSECTS                                                                               Page    7
0Current Usings:  (CV,R12)
0Loc    Object Code    Addr1 Addr2  Stmt Lv Lineno    Source Statement           (Hibal 5, Asmedit 3.3)  HLASM R4.0  2004/03/15 12.35
+___    ______ ____    _____ _____  ____ __ ______    ______ _________
0PIBFLAG3.PIBFSESK 04 ONES          8305  1          =           FLAG  PIBFSESKEEP         - Keep session corpse around
                                    8310  1          =
 000067 00                          8311  1          =PIBFLAG4   FLAG
 PIBFLAG4.PIBFSTOP 80 ONES          8315  1          =           FLAG  PIBFSTOP            - Stopped
 PIBFLAG4.PIBFDET  40 ONES          8320  1          =           FLAG  PIBFDET             - Detached
 PIBFLAG4.PIBFDUM  20 ONES          8325  1          =           FLAG  PIBFDUM             - Dummy
                                    8330  1          =
 000068 00                          8331  1          =PIBFLAG5   FLAG
 PIBFLAG5.PIBFDOWN 80 ONES          8335  1          =           FLAG  PIBFDOWN            - Status: down
 PIBFLAG5.PIBFHU   40 ONES          8340  1          =           FLAG  PIBFHU              - Status: hung-up
 PIBFLAG5.PIBFERR  20 ONES          8345  1          =           FLAG  PIBFERR             - Status: serious error occurred
                                    8350  1          =
 000069                             8351  1          =           DS    X                   Reserved
                                    8352  1          =PIBSIB     EQU   PIBNAME,*-PIBNAME,C'X'
                                    8353  1          =
 00006A                             8354  1          =PIBSCUR    DS    H                   Current no. of sessions
 00006C                             8355  1          =PIBSMAX    DS    H                   Max no. of sessions
 00006E                             8356  1          =PIBSMCLK   DS    XL8                 Clock at max
 000078                             8357  1          =PIBNSES    DS    F                   Total no. of sessions
                                    8358  1          =
 00007C                             8359  1          =PIBNIO     DS    F                   Total no. of I/O's
 000080                             8360  1          =PIBNHWE    DS    F                   Total no. of hw errors
                                    8361  1          =
 000084                             8362  1          =PIBDEVD    DS    F                   Device dependent data
 000088                             8363  1          =           DS    2F                  Reserved
                                    8364  1          =PIBBASIC   EQU   PIBUC,*-PIBUC,C'X'  ******
                                    8365  1          =
 000090                             8366  1          =PIBTRCP    DS    4A                  Trace ptrs: len,cur,first,end
                                    8367  1          =
 0000A0                             8368  1          =           DS    0D
                                    8369  1           *****  device dependent line
 0000A0                             8370  1           PIBPDBCT   DS    A                   Pending PDB queue count
 0000A4                             8371  1           PIBPDBQH   DS    A                   Pending PDB queue head
 0000A8                             8372  1           PIBPDBQT   DS    A                   Pending PDB queue tail
 0000AC                000AC 000AC  8373                       END
1CONS     (CONS4072) (12:35) (15MAR04) DSECTS                                                                               Page    8
0Current Usings:  (CV,R12)
0Loc    Object Code    Addr1 Addr2  Stmt Lv Lineno    Source Statement           (Hibal 5, Asmedit 3.3)  HLASM R4.0  2004/03/15 12.35
+___    ______ ____    _____ _____  ____ __ ______    ______ _________
0000000                00000 00008  8383              COM      RECORD BEGIN              Os communications area
 000000                             8391  1           COMECBPT   DS    A                   Ptr to ecb for stop/modify
 000004                             8392  1           COMLAST    DS    0A                  Last pointer in parameter list
                                    8393  1           COMEND     EQU   X'80'               - High order bit of last parm ptr
 000004                             8394  1           COMCIBPT   DS    A                   Ptr to command input buffer (cib)
 000008                00008 00008  8395                       END
-000000                00000 00018  8405              CIB      DSECT
 000000 03                          8406                       IEZCIB ,                  OS command input buffer
1CONS     (CONS4072) (12:35) (15MAR04) DSECTS                                                                               Page    9
0Current Usings:  (CV,R12)
0D-Loc  Object Code    Addr1 Addr2  Stmt Lv Lineno    Source Statement           (Hibal 5, Asmedit 3.3)  HLASM R4.0  2004/03/15 12.35
+_____  ______ ____    _____ _____  ____ __ ______    ______ _________
0                                   8538              CTRC#    EQU   25                  No. of trace entries
                                    8539              CTRCP#   EQU   5                   No. of pibtrc entries
                                    8540              þþþþ
                                    8541                       COPY  CONSTRC
                                    8542             =*
                                    8543             =**  CONSOLE TRACE FORMAT
                                    8544             =*
 000000                00000 00036  8545             =CTRC     RECORD BEGIN
 000000                             8553  1          =CTRCCLCK   DS    D                   STCK CLOCK
                                    8554  1          =*
                                    8555  1          =*  IF PIBTRC...
 000008                             8556  1          =CTRCPTYP   DS    C                   TRACE TYPE (T=TO, F=FROM)
 000009                             8557  1          =           DS    X                   RESERVED
                                    8558  1          =CTRCP      EQU   CTRCCLCK,*-CTRCCLCK,C'X'
                                    8559  1          =
 00000A                0000A 00008  8560  1          =           ORG   CTRCCLCK+8
 000008                             8561  1          =CTRCNAME   DS    CL8                 TRACE NAME
 000010                             8562  1          =CTRCPNO    DS    H                   PORT NUMBER
                                    8563  1          =CTRCDATA   EQU   *
                                    8564  1          =*
                                    8565  1          =*  IF CTRCNAME = 'CONS'...
 000012                00012 00012  8566  1          =           ORG   CTRCDATA
 000014                             8567  1          =CTRCSID    DS    F                   SESSION ID
 000018                             8568  1          =CTRCSACC   DS    CL5                 SESSION UUUGG
 00001D                             8569  1          =CTRCCMD    DS    X                   PDBCMD
 00001E                             8570  1          =CTRCCPL    DS    XL2                 PDBCPL  (CONSPOST ONLY)
 000020                             8571  1          =CTRCTLEN   DS    H                   PDBLENG
 000022                             8572  1          =CTRCTEXT   DS    CL20                PDBTEXT
 000036                00036 00036  8573             =         END
1CONS     (CONS4072) (12:35) (15MAR04) DSECTS                                                                               Page   10
0Current Usings:  (CV,R12)
0D-Loc  Object Code    Addr1 Addr2  Stmt Lv Lineno    Source Statement           (Hibal 5, Asmedit 3.3)  HLASM R4.0  2004/03/15 12.35
+_____  ______ ____    _____ _____  ____ __ ______    ______ _________
0000000                00000 00004  8583              WTOCBUSR RECORD BEGIN
 000000 00                          8591  1           WTOCBFLG   FLAG
 WTOCBFLG.WTOCBFAC 80 ONES          8595  1                      FLAG  WTOCBFAC            - Action msg
 WTOCBFLG.WTOCBFJL 40 ONES          8600  1                      FLAG  WTOCBFJL            - Job log only
 WTOCBFLG.WTOCBFID 20 ONES          8605  1                      FLAG  WTOCBFID            - Ucmid present (route to console)
 WTOCBFLG.WTOCBFW  10 ONES          8610  1                      FLAG  WTOCBFW             - Width (for mlwto) present
 WTOCBFLG.WTOCBFNP 08 ONES          8615  1                      FLAG  WTOCBFNP            - No "*** jobname ***" pfx wanted
                                    8620  1
 000001                             8621  1           WTOCBUCM   DS    X                   Ucm id
                                    8622  1
 000002                             8623  1           WTOCBWID   DS    H                   Screen width
 000004                00004 00004  8624                       END
1CONS     (CONS4072) (12:35) (15MAR04) DSECTS                                                                               Page   11
0Current Usings:  (CV,R12)
0D-Loc  Object Code    Addr1 Addr2  Stmt Lv Lineno    Source Statement           (Hibal 5, Asmedit 3.3)  HLASM R4.0  2004/03/15 12.35
+_____  ______ ____    _____ _____  ____ __ ______    ______ _________
0                                   8634                       COPY  SUBPOOLS
                                    8635             =WTOQSUBP EQU   11                  Subpool for WTOQ elements
                                    8636             =IOHQSUBP EQU   12                  Subpool for IOHQ elements
                                    8637             =SCBSUBPL EQU   13                  Subpool for SCBs
                                    8638             =TRCSUBPL EQU   14                  Subpool for TRC entries
                                    8639             =TQESUBPL EQU   15                  Timer queue subpool
                                    8640             =FEBSUBPL EQU   16                  FEBs (non-page fixed)
                                    8641             =PIBSUBPL EQU   17                  PIBS (non-page fixed)
                                    8642             =SUBSUBPL EQU   18                  Subsystem blocks
                                    8643             =STRCSUBP EQU   19                  Session trace buffers
                                    8644             =QPDBSUBP EQU   20                  Queued PDBs
                                    8645             =SPDBSUBP EQU   21                  Saved PDBs
                                    8646             =PRMTSUBP EQU   22                  Saved prompts
                                    8647             =RTXTSUBP EQU   23                  Saved read text
                                    8648             =SQPDSUBP EQU   24                  Queued PDBs on subsystem
                                    8649             =CONSQPDB EQU   25                  Queued CONS PDBs
                                    8650             =PATSUBP  EQU   26                  Port address tables
                                    8651             =TRCHSUBP EQU   27                  Device trace table hdrs
                                    8652             =ITBLSUBP EQU   28                  Input xlate table
                                    8653             =MCOMSUBP EQU   29                  MCOM command buffers
                                    8654             =STMPSUBP EQU   30                  MCOM temp trace buffer
                                    8655             =EIBSUBP  EQU   31                  ELF EIB
                                    8656             =AMYQSUBP EQU   32                  Amelia queue ELF
                                    8657             =SOCKSUBP EQU   33                  ELF SOCK control block
                                    8658             =SMSGSUBP EQU   34                  Saved socket msg (ELF)
                                    8659             =PWRTSUBP EQU   35                  ELF Path write subpool
                                    8660             =TELISUBP EQU   36                  Telnet input data buffer
                                    8661             =EPIBSUBP EQU   37                  ELF PIB input buffer
                                    8662             =VPATSUBP EQU   38                  VIRT PAT
                                    8663             =VBUFSUBP EQU   39                  SDD VTAM buffer
                                    8664             =VRUSUBP  EQU   40                  SDD RU
                                    8665             =VDPBSUBP EQU   41                  VTAM dummy PIB
                                    8666             =VPPSUBP  EQU   42                  VTAM PIB parms
                                    8667             =VISTSUBP EQU   43                  VTAM FEB IRB stack
                                    8668             =VACBSUBP EQU   44                  VTAM ACB subpool
                                    8669             =VRPLSUBP EQU   45                  VTAM RPL subpool
                                    8670             =VSRRSUBP EQU   46                  VSRR VBUF
                                    8671             =VNIBSUBP EQU   47                  VSRR NIB
                                    8672             =VBNDSUBP EQU   48                  BIND area VSRR
                                    8673             =VDVCSUBP EQU   49                  DVCHAR subpool VSRR
                                    8674             =VRBFSUBP EQU   50                  Reply buffer
                                    8675             =V3BFSUBP EQU   51                  D3767 VBUF
                                    8676             =RSYNSUBP EQU   52                  RSYN RPL data
                                    8677             =RESPSUBP EQU   53                  RESP RPL subpool
                                    8678             =REXPSUBP EQU   54                  Expedited flow subpool
1CONS     (CONS4072) (12:35) (15MAR04) Console Interface                                                                    Page   12
0Current Usings:  (CV,R12)
0D-Loc  Object Code    Addr1 Addr2  Stmt Lv Lineno    Source Statement           (Hibal 5, Asmedit 3.3)  HLASM R4.0  2004/03/15 12.35
+_____  ______ ____    _____ _____  ____ __ ______    ______ _________
0000017                00000 01AA8  8680              MILCONS  CSECT
0                                   8683              ¿þþþþþþþþþþþþþþþþþþþþþþþþþþþþþþþþþþþþþþþþþþþþþþþþþþþþþþþþþþþþþþþþþþþþþÜ
                                    8684              Ÿ                                                                     Ÿ
                                    8685              Ÿ  CONSDEF -- Routine to process console FEB definition.              Ÿ
                                    8686              Ÿ                                                                     Ÿ
                                    8687              Ÿ    On entry:                                                        Ÿ
                                    8688              Ÿ      R15 - SCANCB ptr                                               Ÿ
                                    8689              Ÿ                                                                     Ÿ
                                    8690              Ÿ    On exit, R15 (and CC):                                           Ÿ
                                    8691              Ÿ      0 - ok, R1 - new FEB ptr                                       Ÿ
                                    8692              Ÿ      4 - error, R1,R0 - msg loc,len                                 Ÿ
                                    8693              Ÿ                                                                     Ÿ
                                                      ¾þþþþþþþþþþþþþþþþþþþþþþþþþþþþþþþþþþþþþþþþþþþþþþþþþþþþþþþþþþþþþþþþþþþþþ»
0000018 50E0 D044/902B_      00044  8694              CONSDEF  XPROC
 USING  *,R8
 000032 187F                        8732                       LR    R7,R15
 USING  SCANCB,R7                   8733                       WITH  (SCANCB,R7)
                                    8746
                                    8747                       SEGDEF CVWSG              Wto seg buffer
                                    8748
 000034 41B0 C294            00294  8749                       LA    FEBR,CVFEBQH-(FEBLINK-FEB)  Dummy first entry
 USING  FEB,R11                     8750                       WITH  FEB,BEGIN
 000038 58B0 B008/12BB_      00008  8763  1                      WHILE ('LT FEBR,FEBLINK',NZ),BEGIN
 000042 9501 B00D/4770_0000D        8781  2                        IF    (FEBTYPE,EQ,FEBTCONS),BEGIN
 00004A 4110 82C6/4100_      002E8  8799  3                          SETMSG 'CONSOLE front-end already defined -- ignored'
 000052 41F0 0004            00004  8803  3                          LA    R15,4
 000056 47F0 806E            00090  8804  3                          EXIT  CONSDEF
 00005A                             8807  2                        END
 00005A 47F0 8016            00038  8811  1                      END
 DROP   FEB,R11                     8816                       END
                                    8824
 00005E 4100 00B8            000B8  8825                       LA    R0,L'FEB
 000062 58E0 82F2/0DEE       00314  8826                       VCALL GETFEB
 000068 18B1                        8830                       LR    FEBR,R1
 USING  FEB,R11                     8831                       WITH  FEB
 00006A 9201 B00D      0000D        8843                       MVI   FEBTYPE,FEBTCONS
 00006E D207 B014 82BE 00014 002E0  8844                       MVC   FEBNAME,=CL8'CONSOLE'
 000074 9680 B070      00070        8845                       SET   FEBFPS              Psuedo front-end
 000078 D201 B076 8338 00076 0035A  8851                       MVC   FEBPMAX,=H'64'      Max no. of consoles we support
                                    8852
 00007E 5810 82F6/18F7_      00318  8853                       SCAN  L:=V(DEFPRT),SCANCB
                                    8870
 00008A 4110 B000            00000  8871                       LA    R1,FEB
 00008E 1BFF                        8872                       CLEAR R15
 000090 41D0 D030/982B_      00030  8876              CDEFEXIT PEND
 DROP   FEB,R11
 DROP   SCANCB,R7
 DROP   *,R8
1CONS     (CONS4072) (12:35) (15MAR04) Console Interface                                                                    Page   13
0Current Usings:  (CV,R12)
0Loc    Object Code    Addr1 Addr2  Stmt Lv Lineno    Source Statement           (Hibal 5, Asmedit 3.3)  HLASM R4.0  2004/03/15 12.35
+___    ______ ____    _____ _____  ____ __ ______    ______ _________
0                                   8908              ¿þþþþþþþþþþþþþþþþþþþþþþþþþþþþþþþþþþþþþþþþþþþþþþþþþþþþþþþþþþþþþþþþþþþþþÜ
                                    8909              Ÿ                                                                     Ÿ
                                    8910              Ÿ  CONSPORT -- Routine to process console PIB definition.             Ÿ
                                    8911              Ÿ                                                                     Ÿ
                                    8912              Ÿ    On entry:                                                        Ÿ
                                    8913              Ÿ      R1 - FEB ptr                                                   Ÿ
                                    8914              Ÿ      R15- SCANCB ptr                                                Ÿ
                                    8915              Ÿ                                                                     Ÿ
                                    8916              Ÿ    On exit, R15 (and CC):                                           Ÿ
                                    8917              Ÿ      0 - ok, R1 - new PIB ptr                                       Ÿ
                                    8918              Ÿ      4 - error, R1,R0 - msg loc,len                                 Ÿ
                                    8919              Ÿ                                                                     Ÿ
                                                      ¾þþþþþþþþþþþþþþþþþþþþþþþþþþþþþþþþþþþþþþþþþþþþþþþþþþþþþþþþþþþþþþþþþþþþþ»
00000A4 50E0 D044/902B_      00044  8920              CONSPORT XPROC
 USING  *,R8
 0000BE 18B1                        8958                       LR    FEBR,R1
 USING  FEB,R11                     8959                       WITH  FEB
 0000C0 187F                        8971                       LR    R7,R15
 USING  SCANCB,R7                   8972                       WITH  (SCANCB,R7)
                                    8985
                                    8986                       SEGDEF CVWSG              Wto seg buffer
                                    8987
 0000C2 1B11/18F7/58E0_             8988                       SCAN  ,SCANCB
 0000CC 4780 8088            00136  9004                       BZ    CONSPMIS
 0000D0 5900 8272/4770_      00320  9005                       IF    (R0,NE,3),CONSPNF   Not a unit addr
                                    9025
 0000D8 D502 82B2 1000_00360 00000  9026                       IF    (@R1,EQ,'000'),'CLEAR R6; B GOTUCM'  psuedo-console
                                    9052
 0000E8 58F0 0010            00010  9053                       L     R15,CVTPTR
 0000EC 58F0 F064            00064  9054                       WITH  (CVT,R15),'L R15,CVTCUCB'  console ucb table (ucm pfx)
 USING  CVT,R15
 DROP   CVT,R15
 0000F0 9813 F048            00048  9078                       WITH  (UCM,R15),'LM R1,R3,UCMVDATA'  ucme start, len, last
 USING  UCM,R15
 DROP   UCM,R15
 USING  UCMLIST,R1                  9102                       WITH  (UCMLIST,R1),BEGIN
 0000F4 58F0 100C            0000C  9116  1           UCMLOOP    L     R15,UCMUCB
 USING  UCB,R15                     9117  1                      WITH  (UCB,R15),BEGIN
 0000F8 95FF F002/4770_00002        9131  2                        IF    (UCBID,EQ,X'FF'),BEGIN  ucb...
 000100 1F66/4360 101A              9148  3                          LC    R6,UCMID            Save ucmid (for pibno)
 000106 D502 F00D 7004_0000D 00004  9155  3                          IF    (UCBNAME,EQ,SCNKW),GOTUCM
 000110                             9176  2                        END
 DROP   UCB,R15                     9180  1                      END
 000110 8712 8046            000F4  9188  1                      BXLE  R1,R2,UCMLOOP
 DROP   UCMLIST,R1                  9189                       END
 000114 4110 7004/4100_      00004  9197              CONSPNF  SEGTB SCNKW
 000126 4110 82B5/4100_      00363  9225                       SETMSG 'is not a console -- ignored'
 00012E 41F0 0004            00004  9229                       LA    R15,4
 000132 47F0 80DA            00188  9230                       EXIT  CONSPORT
                                    9233
 000136 4110 827A/4100_      00328  9234              CONSPMIS SETMSG 'Missing console unit address'
 00013E 47F0 80DA            00188  9238                       EXIT  CONSPORT
                                    9241
1CONS     (CONS4072) (12:35) (15MAR04) Console Interface                                                                    Page   14
0Current Usings:  (SCANCB,R7) (*,R8) (FEB,R11) (CV,R12)
0Loc    Object Code    Addr1 Addr2  Stmt Lv Lineno    Source Statement           (Hibal 5, Asmedit 3.3)  HLASM R4.0  2004/03/15 12.35
+___    ______ ____    _____ _____  ____ __ ______    ______ _________
0000142 4100 00AC            000AC  9242              GOTUCM   LA    R0,L'PIB
 000146 58E0 8296/0DEE       00344  9243                       VCALL GETPIB
 00014C 18A1                        9247                       LR    PIBR,R1
 USING  PIB,R10                     9248                       WITH  PIB
 00014E 9680 A066      00066        9260                       SET   PIBFPS              Psuedo port
 000152 50B0 A008            00008  9266                       ST    FEBR,PIBFEBP        Save feb ptr
 000156 41F0 A0A4            000A4  9267                       LA    R15,PIBPDBQH
 00015A 50F0 A0A8            000A8  9268                       ST    R15,PIBPDBQT        Make tail accurate
 00015E D204 A021 82D0 00021 0037E  9269                       MVC   PIBDFACT,=C'&OPRACCT'  set default account
 000164 D207 A034 7004 00034 00004  9270                       MVC   PIBNAME,SCNKW
 00016A D207 A019 7004 00019 00004  9271                       MVC   PIBTID,SCNKW
 000170 9640 A066      00066        9272                       SET   PIBFPTID
 000174 4060 A004            00004  9278                       STH   R6,PIBNO            Save pibno (ucmid)
                                    9279
 000178 5810 829A/18F7_      00348  9280                       SCAN  L:=V(PORTPRT),SCANCB
                                    9297
 000184 181A                        9298                       LR    R1,PIBR
 000186 1BFF                        9299                       CLEAR R15
 000188 41D0 D030/982B_      00030  9303                       PEND
 DROP   PIB,R10
 DROP   SCANCB,R7
 DROP   FEB,R11
 DROP   *,R8
1CONS     (CONS4072) (12:35) (15MAR04) Console Interface                                                                    Page   15
0Current Usings:  (CV,R12)
0Loc    Object Code    Addr1 Addr2  Stmt Lv Lineno    Source Statement           (Hibal 5, Asmedit 3.3)  HLASM R4.0  2004/03/15 12.35
+___    ______ ____    _____ _____  ____ __ ______    ______ _________
0                                   9339              ¿þþþþþþþþþþþþþþþþþþþþþþþþþþþþþþþþþþþþþþþþþþþþþþþþþþþþþþþþþþþþþþþþþþþþþÜ
                                    9340              Ÿ                                                                     Ÿ
                                    9341              Ÿ  CONSFIN -- Routine to establish MCS console interface.             Ÿ
                                    9342              Ÿ                                                                     Ÿ
                                    9343              Ÿ    On entry:                                                        Ÿ
                                    9344              Ÿ      R1 - FEB ptr                                                   Ÿ
                                    9345              Ÿ                                                                     Ÿ
                                                      ¾þþþþþþþþþþþþþþþþþþþþþþþþþþþþþþþþþþþþþþþþþþþþþþþþþþþþþþþþþþþþþþþþþþþþþ»
000019C 50E0 D044/902B_      00044  9346              CONSFIN  XPROC
 USING  *,R8
 0001B6 18B1                        9384                       LR    FEBR,R1
 USING  FEB,R11                     9385                       WITH  FEB
                                    9397
 0001B8 4170 C048            00048  9398                       LA    R7,CVCOMP
 0001BC 4510 8026/0000_      001CC  9399                       EXTRACT (R7),'S',FIELDS=COMM
 0001D2 5870 C048            00048  9409                       L     R7,CVCOMP           Comm area (in cscb)
 USING  COM,R7                      9410                       WITH  (COM,R7)
 0001D6 4110 0002/1111_      00002  9423                       QEDIT ORIGIN=COMCIBPT,CIBCTR=2  queue depth of two
 0001E4 12FF/4780 805E_             9429                       FAIL  (R15,NZ),'CONSOLE INTERFACE ERROR'
 000204 5810 7000            00000  9452                       L     R1,COMECBPT         A(stop/modify ecb)
 000208 5010 C034            00034  9453                       ST    R1,CVCMECBP         Put addr in ecb list
 00020C 9680 C034      00034        9454                       OI    CVCMECBP,X'80'      Set end of list
 000210 1F66/BF67 7005_             9455                       IF    ('L3 R6,COMCIBPT+1',NZ),BEGIN  cib present...
 USING  CIB,R6                      9475  1                      WITH  (CIB,R6)
 00021A 9504 6004/4770_00004        9488  1                      IF    (CIBVERB,NE,CIBSTART),EXIT
                                    9509  1           * start cib is 3rd pos parm of start cmd (for direct start tasks)...
 000222 1116/4100 7004_             9510  1                      QEDIT ORIGIN=COMCIBPT,BLOCK=(R6)  free cib
 00022A 12FF/4780 80A4_             9514  1                      FAIL  (R15,NZ),'CONSOLE INTERFACE ERROR'
 DROP   CIB,R6                      9537                       END
                                    9546
 00024A 9640 B00C      0000C        9547                       SET   FEBFOPEN            Front-end is open
1CONS     (CONS4072) (12:35) (15MAR04) Console Interface                                                                    Page   16
0Current Usings:  (COM,R7) (*,R8) (FEB,R11) (CV,R12)
0Loc    Object Code    Addr1 Addr2  Stmt Lv Lineno    Source Statement           (Hibal 5, Asmedit 3.3)  HLASM R4.0  2004/03/15 12.35
+___    ______ ____    _____ _____  ____ __ ______    ______ _________
0                                   9554              *  start all pre-defined sessions now...
 00024E 48F0 B076            00076  9555                       LH    R15,FEBPMAX
 000252 89F0 0002            00002  9556                       SLL   R15,2
 000256 5860 B098            00098  9557                       L     R6,FEBPATP
 00025A 1856                        9558                       LR    R5,R6
 00025C 416F 6000            00000  9559                       LA    R6,@R6(R15)
 000260 1956/47B0 8126              9560                       WHILE (R5,LT,R6),BEGIN
 000266 58A0 5000/12AA       00000  9577  1                      LT    PIBR,@R5
 00026C 4780 811E            002C4  9581  1                      IF    NZ,BEGIN
 USING  PIB,R10                     9592  2                        WITH  PIB
 000270 4110 A000            00000  9604  2                        LA    R1,PIB
 000274 4100 01B2            001B2  9605  2                        LA    R0,L'SCB
 000278 58E0 81A6/0DEE       0034C  9606  2                        VCALL GETSCB
 00027E 1891                        9610  2                        LR    SCBR,R1
 USING  SCB,R9                      9611  2                        WITH  SCB
 000280 9660 912B      0012B        9623  2                        SET   SCBSFPS+SCBSFNAR    Pseudo session and no recovery
 000284 D613 A03C A03C_0003C 0003C  9632  2                        IF    (PIBINFO,NZ),BEGIN
 00028E D213 9136 C141 00136 00141  9648  3                          MVC   SCBNAME,CVBLANKS
 000294 D213 9136 A03C 00136 0003C  9649  3                          MVC   SCBNAME(L'PIBINFO),PIBINFO  fill in user name
 00029A                             9650  2                        END
 00029A 9610 915E      0015E        9654  2                        SET   SCBFNTIM            Notime
 00029E D201 9188 81B6 00188 0035C  9660  2                        MVC   SCBWID,=H'60'       Width
 0002A4 D203 918A 81AA 0018A 00350  9661  2                        MVC   SCBHEIP(4),=H'19,20'  pause,actual heights
                                    9662  2
 0002AA 58F0 C060            00060  9663  2                        L     R15,CVPDBP
 USING  PDB,R15                     9664  2                        WITH  (PDB,R15)
 0002AE D737 F000 F000 00000 00000  9677  2                        CLEAR PDBHDR
 0002B4 D201 F000 81B8 00000 0035E  9684  2                        MVC   PDBLENG,=AL2(L'PDBHDR)
 0002BA 4110 9000            00000  9685  2                        LA    R1,SCB
 0002BE 58E0 81AE/0DEE       00354  9686  2                        VCALL SUBSTART            Start session
 DROP   PDB,R15                     9690  1                      END
 DROP   SCB,R9
 DROP   PIB,R10
 0002C4 4150 5004            00004  9709  1                      LA    R5,@R5+4
 0002C8 47F0 80BA            00260  9710                       END
 0002CC 41D0 D030/982B_      00030  9715                       PEND
 DROP   COM,R7
 DROP   FEB,R11
 DROP   *,R8
                                    9745
                                    9746                       QLTORG
1CONS     (CONS4072) (12:35) (15MAR04) Console Interface                                                                    Page   17
0Current Usings:  (CV,R12)
0Loc    Object Code    Addr1 Addr2  Stmt Lv Lineno    Source Statement           (Hibal 5, Asmedit 3.3)  HLASM R4.0  2004/03/15 12.35
+___    ______ ____    _____ _____  ____ __ ______    ______ _________
0                                   9779              ¿þþþþþþþþþþþþþþþþþþþþþþþþþþþþþþþþþþþþþþþþþþþþþþþþþþþþþþþþþþþþþþþþþþþþþÜ
                                    9780              Ÿ                                                                     Ÿ
                                    9781              Ÿ  CONSCNTL -- Routine to perform console control operation.          Ÿ
                                    9782              Ÿ                                                                     Ÿ
                                    9783              Ÿ    On entry:                                                        Ÿ
                                    9784              Ÿ      R0 - control number                                            Ÿ
                                    9785              Ÿ      R1 - FEB ptr                                                   Ÿ
                                    9786              Ÿ      R15- PDB ptr                                                   Ÿ
                                    9787              Ÿ                                                                     Ÿ
                                    9788              Ÿ    On exit, R15 (and CC):                                           Ÿ
                                    9789              Ÿ      -8 - bad control number                                        Ÿ
                                    9790              Ÿ      -4 - bad format                                                Ÿ
                                    9791              Ÿ       0 - ok (PDB has return data)                                  Ÿ
                                    9792              Ÿ      12 - error                                                     Ÿ
                                    9793              Ÿ                                                                     Ÿ
                                                      ¾þþþþþþþþþþþþþþþþþþþþþþþþþþþþþþþþþþþþþþþþþþþþþþþþþþþþþþþþþþþþþþþþþþþþþ»
0000384 50E0 D044/902B_      00044  9794              CONSCNTL XPROC
 USING  *,R8
 00039E 18B1                        9832                       LR    FEBR,R1
 USING  FEB,R11                     9833                       WITH  FEB
 0003A0 D502 8218 B000_005A6 00000  9845                       FAIL  (FEB,NE,'FEB'),BADFEB
 0003B4 187F                        9871                       LR    R7,R15
 USING  PDB,R7                      9872                       WITH  (PDB,R7)
                                    9885
 0003B6 4160 7038            00038  9886                       LA    R6,PDBTEXT
 USING  FDB,R6                      9887                       WITH  (FDB,R6)
                                    9900
 0003BA 18E0                        9901                       LR    RAR,R0
 0003BC 59E0 81EA/4750_      00578  9902                       IF    (RAR,GE,100),BEGIN  priv'd control...
 0003C4 59E0 81EE/47D0_      0057C  9919  1                      IF    (RAR,GT,CCTLPMAX),'LA RAR,100'
 0003D0 4BE0 81FC            0058A  9942  1                      SH    RAR,=H'100'
 0003D4 89E0 0002            00002  9943  1                      SLL   RAR,2
 0003D8 58EE 8072            00400  9944  1                      L     RAR,CCTLPTBL(RAR)   Processing routine
 0003DC 07FE                        9945  1                      BR    RAR
 0003DE                             9946                       END
                                    9950
 0003DE 55E0 81F2/47D0_      00580  9951                       IF    (RAR,LGT,CCTLMAX),'CLEAR RAR'
 0003E8 89E0 0002            00002  9977                       SLL   RAR,2
 0003EC 58EE 8066            003F4  9978                       L     RAR,CCTLTBL(RAR)    Processing routine
 0003F0 07FE                        9979                       BR    RAR
1CONS     (CONS4072) (12:35) (15MAR04) Console Interface                                                                    Page   18
0Current Usings:  (FDB,R6) (PDB,R7) (*,R8) (FEB,R11) (CV,R12)
0Loc    Object Code    Addr1 Addr2  Stmt Lv Lineno    Source Statement           (Hibal 5, Asmedit 3.3)  HLASM R4.0  2004/03/15 12.35
+___    ______ ____    _____ _____  ____ __ ______    ______ _________
00003F2 0000
 0003F4 0000040C                    9981              CCTLTBL  DC    A(CCTL0)
 0003F8 0000042A                    9982                       DC    A(CCTL1)            1:   sense console front-end info
 0003FC 0000047A                    9983                       DC    A(CCTL2)            2:   sense console port info
                                    9984              CCTLMAX  EQU   (*-CCTLTBL-4)/4,,C'N'
                                    9985
 000400                             9986                       DS    0S(CCTLMAX-FDBCMAX,FDBCMAX-CCTLMAX)
-000400 0000040C                    9988              CCTLPTBL DC    A(CCTL0)
 000404 000004E8                    9989                       DC    A(CCTL101)          101: set console front-end
 000408 00000516                    9990                       DC    A(CCTL102)          102: set console port
                                    9991              CCTLPMAX EQU   (*-CCTLPTBL-4)/4+100,,C'N'
                                    9992
 00040C                             9993                       DS    0S(CCTLPMAX-FDBPMAX,FDBPMAX-CCTLPMAX)
-
0                                   9995              *****  CONTROL 0:   bad control number
-00040C 48F0 81FE            0058C  9997              CCTL0    LH    R15,=H'-8'
 000410 47F0 8196            00524  9998                       EXIT
                                   10001
 000414 48F0 8200            0058E 10002              CCTLBF   LH    R15,=H'-4'
 000418 47F0 8196            00524 10003                       EXIT
                                   10006
 00041C 41F0 000C            0000C 10007              CCTLRC12 LA    R15,12
 000420 47F0 8196            00524 10008                       EXIT
                                   10011
 000424 1BFF                       10012              CCTLOK   CLEAR R15
 000426 47F0 8196            00524 10017                       EXIT
1CONS     (CONS4072) (12:35) (15MAR04) Console Interface                                                                    Page   19
0Current Usings:  (FDB,R6) (PDB,R7) (*,R8) (FEB,R11) (CV,R12)
0Loc    Object Code    Addr1 Addr2  Stmt Lv Lineno    Source Statement           (Hibal 5, Asmedit 3.3)  HLASM R4.0  2004/03/15 12.35
+___    ______ ____    _____ _____  ____ __ ______    ______ _________
0                                  10021              *****  CONTROL 1:   sense console front-end info
-00042A D501 8202 7032_00590 00032 10023              CCTL1    IF    (PDBWC,NE,L'FDBT1),CCTLBF  bad parms
 000434 D70B 6000 6000 00000 00000 10044                       CLEAR FDBF1
 00043A D201 6008 8204 00008 00592 10051                       MVC   FDBFFTNO,=AL2(CTRC#)  no. of entries
 000440 D201 600A 8206 0000A 00594 10052                       MVC   FDBFFLEN,=AL2(L'CTRC)  size of an entry
 000446 4120 600C            0000C 10053                       LA    R2,FDBFFTRC
 00044A 9835 B0A0            000A0 10054                       LM    R3,R5,FEBTRCP+4     R3=next,r4=first,r5=end
 00044E                            10055                       LOOP  BEGIN
 00044E 5B30 B09C            0009C 10061  1                      S     R3,FEBTRCP          Back up
 000452 1934/47B0 80D0_            10062  1                      IF    (R3,LT,R4),'LR R3,R5; S R3,FEBTRCP'  last
 00045E D235 2000 3000 00000 00000 10084  1                      MVC   @R2(L'CTRC),@R3     Copy trace entry
 000464 4120 2036            00036 10085  1                      LA    R2,@R2+L'CTRC       Next entry
 000468 5930 B0A0/4770_      000A0 10086                       UNTIL ('C R3,FEBTRCP+4',EQ),END
 000470 D201 7000 8208 00000 00596 10107                       MVC   PDBLENG,=AL2(L'PDBHDR+L'FDBF1+CTRC#*L'CTRC)
 000476 47F0 8096            00424 10108                       B     CCTLOK
1CONS     (CONS4072) (12:35) (15MAR04) Console Interface                                                                    Page   20
0Current Usings:  (FDB,R6) (PDB,R7) (*,R8) (FEB,R11) (CV,R12)
0Loc    Object Code    Addr1 Addr2  Stmt Lv Lineno    Source Statement           (Hibal 5, Asmedit 3.3)  HLASM R4.0  2004/03/15 12.35
+___    ______ ____    _____ _____  ____ __ ______    ______ _________
0                                  10110              *****  CONTROL 2:   sense console port info
-00047A D501 820A 7032_00598 00032 10112              CCTL2    IF    (PDBWC,NE,L'FDBT2),CCTLBF  bad parms
 000484 48F0 6004            00004 10133                       LH    R15,FDBT2P          Port no.
 000488 BDF3 B076/47A0_      00076 10134                       IF    (R15,LGE,FEBPMAX),CCTLRC12  out of bounds
 000490 89F0 0002            00002 10154                       SLL   R15,2
 000494 58A0 B098            00098 10155                       L     PIBR,FEBPATP
 000498 58AF A000/12AA       00000 10156                       LT    PIBR,@PIBR(R15)     Pib ptr
 00049E 4780 808E            0041C 10160                       BZ    CCTLRC12
 0004A2 D70F 6000 6000 00000 00000 10161                       CLEAR FDBF2
 USING  PIB,R10                    10168                       WITH  PIB,BEGIN
 0004A8 D201 600C 820C 0000C 0059A 10181  1                      MVC   FDBFPTNO,=AL2(CTRCP#)  no. of trace entries
 0004AE D201 600E 820E 0000E 0059C 10182  1                      MVC   FDBFPLEN,=AL2(L'CTRCP)  length of a trace entry
                                   10183  1
 0004B4 4120 6010            00010 10184  1                      LA    R2,FDBFPTRC
 0004B8 9835 A094            00094 10185  1                      LM    R3,R5,PIBTRCP+4     R3=next,r4=first,r5=end
 0004BC                            10186  1                      LOOP  BEGIN
 0004BC 5B30 A090            00090 10192  2                        S     R3,PIBTRCP          Back up
 0004C0 1934/47B0 813E_            10193  2                        IF    (R3,LT,R4),'LR R3,R5; S R3,PIBTRCP'  last
 0004CC D209 2000 3000 00000 00000 10215  2                        MVC   @R2(L'CTRCP),@R3    Copy trace entry
 0004D2 4120 200A            0000A 10216  2                        LA    R2,@R2+L'CTRCP      Next entry
 0004D6 5930 A094/4770_      00094 10217  1                      UNTIL ('C R3,PIBTRCP+4',EQ),END
 DROP   PIB,R10                    10238                       END
 0004DE D201 7000 8210 00000 0059E 10246                       MVC   PDBLENG,=AL2(L'PDBHDR+L'FDBF2+CTRCP#*L'CTRCP)
 0004E4 47F0 8096            00424 10247                       B     CCTLOK
1CONS     (CONS4072) (12:35) (15MAR04) Console Interface                                                                    Page   21
0Current Usings:  (FDB,R6) (PDB,R7) (*,R8) (FEB,R11) (CV,R12)
0Loc    Object Code    Addr1 Addr2  Stmt Lv Lineno    Source Statement           (Hibal 5, Asmedit 3.3)  HLASM R4.0  2004/03/15 12.35
+___    ______ ____    _____ _____  ____ __ ______    ______ _________
0                                  10249              *****  CONTROL 101: set console front-end
-0004E8 D501 8212 7032_005A0 00032 10251              CCTL101  IF    (PDBWC,NE,L'FDBT101),CCTLBF  bad parms
 0004F2 91A0 6004/4780_00004       10272                       IF    FDBTFOPN+FDBTFSTR,BEGIN  open/start...
 0004FA 945F B071      00071       10290  1                      CLEAR FEBFCLS+FEBFDOWN
 0004FE 47F0 8096            00424 10300  1                      B     CCTLOK
 000502                            10301                       END
                                   10305
 000502 9150 6004/4780_00004       10306                       IF    FDBTFCLS+FDBTFSTP,BEGIN  close/stop...
 00050A 96A0 B071      00071       10324  1                      SET   FEBFCLS+FEBFDOWN
 00050E 47F0 8096            00424 10333  1                      B     CCTLOK
 000512                            10334                       END
                                   10338
 000512 47F0 8086            00414 10339                       B     CCTLBF              Bad command code
1CONS     (CONS4072) (12:35) (15MAR04) Console Interface                                                                    Page   22
0Current Usings:  (FDB,R6) (PDB,R7) (*,R8) (FEB,R11) (CV,R12)
0Loc    Object Code    Addr1 Addr2  Stmt Lv Lineno    Source Statement           (Hibal 5, Asmedit 3.3)  HLASM R4.0  2004/03/15 12.35
+___    ______ ____    _____ _____  ____ __ ______    ______ _________
0                                  10341              *****  CONTROL 102: set console port
-000516 D501 8214 7032_005A2 00032 10343              CCTL102  IF    (PDBWC,NE,L'FDBT102),CCTLBF  bad parms
 000520 47F0 8086            00414 10364                       B     CCTLBF              Temporary
                                   10365
 000524 41D0 D030/982B_      00030 10366                       PEND
 DROP   FDB,R6
 DROP   PDB,R7
 DROP   FEB,R11
 DROP   *,R8
1CONS     (CONS4072) (12:35) (15MAR04) Console Interface                                                                    Page   23
0Current Usings:  (CV,R12)
0Loc    Object Code    Addr1 Addr2  Stmt Lv Lineno    Source Statement           (Hibal 5, Asmedit 3.3)  HLASM R4.0  2004/03/15 12.35
+___    ______ ____    _____ _____  ____ __ ______    ______ _________
0                                  10402              ¿þþþþþþþþþþþþþþþþþþþþþþþþþþþþþþþþþþþþþþþþþþþþþþþþþþþþþþþþþþþþþþþþþþþþþÜ
                                   10403              Ÿ                                                                     Ÿ
                                   10404              Ÿ  CONSUPD -- Routine to check SCB updates.                           Ÿ
                                   10405              Ÿ                                                                     Ÿ
                                   10406              Ÿ    On entry:                                                        Ÿ
                                   10407              Ÿ      R1 - SCB ptr                                                   Ÿ
                                   10408              Ÿ                                                                     Ÿ
                                                      ¾þþþþþþþþþþþþþþþþþþþþþþþþþþþþþþþþþþþþþþþþþþþþþþþþþþþþþþþþþþþþþþþþþþþþþ»
0000538 50E0 D044/902B_      00044 10409              CONSUPD  XPROC
 USING  *,R8
 000552 1891                       10447                       LR    SCBR,R1
 USING  SCB,R9                     10448                       WITH  SCB
 000554 9610 915E      0015E       10460                       SET   SCBFNTIM            Insist on notime
 000558 D201 9188 8062 00188 005A4 10466                       MVC   SCBWID,=H'60'       Width
 00055E D203 918A 8042 0018A 00584 10467                       MVC   SCBHEIP(4),=H'19,20'  pause,actual heights
 000564 41D0 D030/982B_      00030 10468                       PEND
 DROP   SCB,R9
 DROP   *,R8
                                   10493
                                   10494                       QLTORG
1CONS     (CONS4072) (12:35) (15MAR04) Console Interface                                                                    Page   24
0Current Usings:  (CV,R12)
0Loc    Object Code    Addr1 Addr2  Stmt Lv Lineno    Source Statement           (Hibal 5, Asmedit 3.3)  HLASM R4.0  2004/03/15 12.35
+___    ______ ____    _____ _____  ____ __ ______    ______ _________
0                                  10527              ¿þþþþþþþþþþþþþþþþþþþþþþþþþþþþþþþþþþþþþþþþþþþþþþþþþþþþþþþþþþþþþþþþþþþþþÜ
                                   10528              Ÿ                                                                     Ÿ
                                   10529              Ÿ  CONSDO -- Routine to do console I/O.                               Ÿ
                                   10530              Ÿ                                                                     Ÿ
                                   10531              Ÿ    On entry:                                                        Ÿ
                                   10532              Ÿ      R1 - SCB ptr                                                   Ÿ
                                   10533              Ÿ      R15 - PDB ptr                                                  Ÿ
                                   10534              Ÿ                                                                     Ÿ
                                                      ¾þþþþþþþþþþþþþþþþþþþþþþþþþþþþþþþþþþþþþþþþþþþþþþþþþþþþþþþþþþþþþþþþþþþþþ»
00005AA 50E0 D044/902B_      00044 10535              CONSDO   XPROC
 USING  *,R8
 0005C4 1891                       10573                       LR    SCBR,R1
 USING  SCB,R9                     10574                       WITH  SCB
 0005C6 58A0 9008            00008 10586                       L     PIBR,SCBPIBP
 USING  PIB,R10                    10587                       WITH  PIB
 0005CA 58B0 A008            00008 10599                       L     FEBR,PIBFEBP
 USING  FEB,R11                    10600                       WITH  FEB
 0005CE 187F                       10612                       LR    R7,R15
 USING  PDB,R7                     10613                       WITH  (PDB,R7)
                                   10626
 0005D0 9550 7006/4770_00006       10627                       IF    (PDBCMD,EQ,TMILBRK),BEGIN  Break read...
 0005D8 9242 7006      00006       10645  1                      MVI   PDBCMD,TMILREAD     Read complete
 0005DC 9210 700C      0000C       10646  1                      MVI   PDBCPLA,CPLABRK     Ended by break
 0005E0 D201 7000 8CB2 00000 01266 10647  1                      MVC   PDBLENG,=AL2(L'PDBHDR)
 0005E6 9200 700D/D701_0000D       10648  1                      CLEAR PDBCPLB,PDBINCT,(PDBWC,6)
 0005F6 47F0 82F4            008A8 10665  1                      B     CONSDSND            Send completion
 0005FA                            10666                       END
                                   10670
 0005FA 9540 7006/4770_00006       10671                       IF    (PDBCMD,EQ,TMILEOS),BEGIN  clean up for logoff...
 000602 5990 A00C/4780_      0000C 10689  1                      FAIL  (SCBR,NE,PIBSCBP),'BAD SCB PTR'
                                   10715  1
 000618 1819                       10716  1                      LR    R1,SCBR
 00061A 1B99/5090 A00C             10717  1                      CLEAR SCBR,PIBSCBP
 000620 58E0 8C4C/0DEE       01200 10726  1                      VCALL FREESCB             Free session
                                   10730  1
 000626 181A                       10731  1                      LR    R1,PIBR
 000628 58E0 8C50/0DEE       01204 10732  1                      VCALL FREEPIB             Free port
 00062E 1BAA                       10736  1                      CLEAR PIBR                (Neatness)
 000630 47F0 8302            008B6 10740  1                      EXIT  CONSDO
 000634                            10743                       END
                                   10747
                                   10748                       SEGDEF CVWSG              Wto seg routine
1CONS     (CONS4072) (12:35) (15MAR04) Console Interface                                                                    Page   25
0Current Usings:  (PDB,R7) (*,R8) (SCB,R9) (PIB,R10) (FEB,R11) (CV,R12)
0Loc    Object Code    Addr1 Addr2  Stmt Lv Lineno    Source Statement           (Hibal 5, Asmedit 3.3)  HLASM R4.0  2004/03/15 12.35
+___    ______ ____    _____ _____  ____ __ ______    ______ _________
0000634 4130 7038            00038 10750                       LA    R3,PDBTEXT
 000638 4820 702E            0002E 10751                       LH    R2,PDBOUTCT
                                   10752              *
                                   10753              * Niz forgot to handle the case of transparent mode I/O to
                                   10754              * the console. This occurs when commands are sent from
                                   10755              * WYLBUR to UNIX hosts (via the % or ON <hostname> commands
                                   10756              * typically). We need to translate the transparent text
                                   10757              * from ASCII to EBCDIC and handle the carriage returns and
                                   10758              * linefeed combinations. For now, we just translate all that
                                   10759              * to EBCDIC newlines, rather than trying to preserve formatting.
                                   10760              * This works for CRLF or LFCR combinations, but won't work
                                   10761              * right for just CR or LF.
                                   10762              *
 00063C 9120 700B/47E0_0000B       10763                       IF ((PDBMODD.MODDTRAN),AND,(R2,POS)),BEGIN
 00064A 1813                       10792  1                      LR    R1,R3
 00064C 1222/47D0 8144             10793  1                      WHILE (R2,POS),BEGIN
 000652 947F 1000      00000       10809  2                        NI    0(R1),X'7F'       Strip off any parity
 000656 950D 1000/4770_00000       10810  2                        IF    (@R1,EQ,X'0D'),BEGIN
 00065E 5920 8C54/4750_      01208 10826  3                          IF    ((R2,GE,2),AND,(@R1+1,EQ,X'0A')),BEGIN
 00066E 9215 1000      00000       10858  4                            MVI   0(R1),X'15'
 000672 41E0 1001            00001 10859  4                            LA    R14,1(,R1)
 000676 4140 1002            00002 10860  4                            LA    R4,2(,R1)
 00067A 18F2                       10861  4                            LR    R15,R2
 00067C 5BF0 8C58            0120C 10862  4                            S     R15,=F'2'
 000680 12FF/47D0 80D6             10863  4                            IF    (R15,POS),BEGIN
 000686 185F                       10877  5                              LR    R5,R15
 000688 0EE4                       10878  5                              MVCL  R14,R4
 00068A                            10879  4                            END
 00068A 0620                       10883  4                            DECR  R2
 00068C                            10885  3                          END
 00068C 80DC/80DC/47F0_0068C 00664 10889  3                          ELSE  BEGIN
 000690 9215 1000      00000       10902  4                            MVI   0(R1),X'15'
 000694                            10903  3                          END
 000694                            10907  2                        END
 000694 80E4/47F0 8122_00694 0065C 10911  2                        ELSEIF (@R1,EQ,X'0A'),BEGIN
 0006A0 5920 8C54/4750_      01208 10936  3                          IF    ((R2,GE,2),AND,(@R1+1,EQ,X'0D')),BEGIN
 0006B0 9215 1000      00000       10968  4                            MVI   0(R1),X'15'
 0006B4 41E0 1001            00001 10969  4                            LA    R14,1(,R1)
 0006B8 4140 1002            00002 10970  4                            LA    R4,2(,R1)
 0006BC 18F2                       10971  4                            LR    R15,R2
 0006BE 5BF0 8C58            0120C 10972  4                            S     R15,=F'2'
 0006C2 12FF/47D0 8118             10973  4                            IF    (R15,POS),BEGIN
 0006C8 185F                       10987  5                              LR    R5,R15
 0006CA 0EE4                       10988  5                              MVCL  R14,R4
 0006CC                            10989  4                            END
 0006CC 0620                       10993  4                            DECR  R2
 0006CE                            10995  3                          END
 0006CE 811E/811E/47F0_006CE 006A6 10999  3                          ELSE  BEGIN
 0006D2 9215 1000      00000       11012  4                            MVI   0(R1),X'15'
 0006D6                            11013  3                          END
 0006D6                            11017  2                        END
 0006D6 8126/47F0 813A 006D6 0069E 11021  2                        ELSE  BEGIN
 0006DA 1FFF/43F0 1000             11032  3                          LC    R15,@R1
 0006E0 58E0 C4A4            004A4 11039  3                          L     R14,CVEBCTBL
1CONS     (CONS4072) (12:35) (15MAR04) Console Interface                                                                    Page   26
0Current Usings:  (PDB,R7) (*,R8) (SCB,R9) (PIB,R10) (FEB,R11) (CV,R12)
0Loc    Object Code    Addr1 Addr2  Stmt Lv Lineno    Source Statement           (Hibal 5, Asmedit 3.3)  HLASM R4.0  2004/03/15 12.35
+___    ______ ____    _____ _____  ____ __ ______    ______ _________
00006E4 41EF E000            00000 11040  3                          LA    R14,0(R15,R14)
 0006E8 D200 1000 E000 00000 00000 11041  3                          MVC   0(1,R1),0(R14)
 0006EE                            11042  2                        END
 0006EE 0620                       11046  2                        DECR  R2
 0006F0 4110 1001            00001 11048  2                        LA    R1,1(,R1)
 0006F4 47F0 8098            0064C 11049  1                      END
 0006F8 1B13                       11054  1                      SR    R1,R3
 0006FA 4010 702E            0002E 11055  1                      STH   R1,PDBOUTCT
 0006FE 1821                       11056  1                      LR    R2,R1               Put it back in R2
 000700                            11057                       END
                                   11061
 000700 9140 90B1/47E0_000B1       11062                       IF    SCBTFPP,BEGIN       Page/pause read...
 000708 9120 90B0/4710_000B0       11077  1                      IF    SCBTFAIO,EXIT       don't muck with to msgs
 000710 41F2 3000            00000 11095  1                      LA    R15,@R3(R2)
 000714 D213 F000 8316 00000 008CA 11096  1                      MVC   @R15(L'PMSG),PMSG   Pause message
 00071A 4120 2014            00014 11097  1                      LA    R2,@R2+L'PMSG
 00071E 4020 702E            0002E 11098  1                      STH   R2,PDBOUTCT         Save updated count
 000722                            11099                       END
                                   11103
 000722 1222/47D0 81E4             11104                       WHILE (R2,POS),BEGIN
 000728 1813                       11120  1                      LR    R1,R3
 00072A 1222/47D0 818E_            11121  1                      WHILE ((R2,POS),AND,(@R3,NE,X'15')),'LA R3,@R3+1; DECR R2'
 000742 41F0 C60C            0060C 11161  1                      LA    R15,CVWSGUSR
 USING  WTOCBUSR,R15               11162  1                      WITH  (WTOCBUSR,R15),BEGIN
 000746 D703 F000 F000 00000 00000 11176  2                        CLEAR WTOCBUSR
 00074C 9120 7009/47E0_00009       11183  2                        IF    PDBMODB.MODBDWAT,'SET WTOCBFAC'  action msg
 000758 9630 F000      00000       11210  2                        SET   WTOCBFW+WTOCBFID    Do mlwto
 00075C 4800 9188/1200       00188 11219  2                        LTH   R0,SCBWID
 000762 4720 81B6/4100_      0076A 11223  2                        IF    ~POS,'LA R0,100'
 00076A 4000 F002            00002 11240  2                        STH   R0,WTOCBWID
 00076E D200 F001 A005 00001 00005 11241  2                        MVC   WTOCBUCM,PIBNO+1    Ucm id
 DROP   WTOCBUSR,R15               11242  1                      END
                                   11250  1
 000774 1803                       11251  1                      LR    R0,R3
 000776 1B01                       11252  1                      SR    R0,R1
 000778 41F0 C5D4/58E0_      005D4 11253  1                      SEGT  (R1),(R0)
 000782 1B00/41F0 C5D4_            11277  1                      SEGWR
 00078E 4130 3001            00001 11301  1                      LA    R3,@R3+1
 000792 0620                       11302  1                      DECR  R2
 000794 47F0 816E            00722 11304                       END
                                   11309
 000798 41F0 0001/5EF0_      00001 11310                       INCR  R15,PIBNIO          Kick i/o count
 0007A4 41F0 0001/5EF0_      00001 11316                       INCR  R15,FEBNIO          Kick fe i/o count too
                                   11322
 0007B0 9541 7006/4770_00006       11323                       IF    (PDBCMD,EQ,TMILWRIT),BEGIN  write...
 0007B8 D730 7007 7007 00007 00007 11341  1                      CLEAR PDBOPT
 0007BE D201 7000 8CB2 00000 01266 11348  1                      MVC   PDBLENG,=AL2(L'PDBHDR)
 0007C4 47F0 82F4            008A8 11349  1                      B     CONSDSND            Send completion
 0007C8                            11350                       END
                                   11354
 0007C8 9542 7006/4770_00006       11355                       IF    (PDBCMD,NE,TMILREAD),EXIT   skip q-check
 0007D0 5820 A0A4/1222       000A4 11376                       LT    R2,PIBPDBQH
 0007D6 4780 8302            008B6 11380                       IF    Z,EXIT              Nothing in type-ahead queue
 0007DA 58F0 A0A0/06F0_      000A0 11394                       DECR  R15,PIBPDBCT        Decr queue count
1CONS     (CONS4072) (12:35) (15MAR04) Console Interface                                                                    Page   27
0Current Usings:  (PDB,R7) (*,R8) (SCB,R9) (PIB,R10) (FEB,R11) (CV,R12)
0Loc    Object Code    Addr1 Addr2  Stmt Lv Lineno    Source Statement           (Hibal 5, Asmedit 3.3)  HLASM R4.0  2004/03/15 12.35
+___    ______ ____    _____ _____  ____ __ ______    ______ _________
00007E4 D203 A0A4 2000 000A4 00000 11399                       MVC   PIBPDBQH,@R2        Dequeue
 0007EA D603 A0A4 A0A4_000A4 000A4 11400                       IF    (PIBPDBQH,Z),'LA R15,PIBPDBQH; ST R15,PIBPDBQT'
 0007FC 18E7/48F0 2004_            11423                       MOVEL PDB,@R2+4,LH:@R2+4  Move PDB back
 00080A 1812                       11444                       LR    R1,R2
 00080C 58E0 8C64/0DEE       01218 11445                       VCALL FREECORE            Release saved copy
                                   11449
 000812 9542 7006/4770_00006       11450                       IF    (PDBCMD,EQ,FMILREAD),BEGIN  log read text...
                                   11468  1                      SEGDEF CVWSG
 00081A 41F0 C60C            0060C 11469  1                      LA    R15,CVWSGUSR
 USING  WTOCBUSR,R15               11470  1                      WITH  (WTOCBUSR,R15),BEGIN
 00081E D703 F000 F000 00000 00000 11484  2                        CLEAR WTOCBUSR
 000824 9640 F000      00000       11491  2                        SET   WTOCBFJL            Job log only
 DROP   WTOCBUSR,R15               11497  1                      END
 000828 4110 A03C/4100_      0003C 11505  1                      SETMSG PIBINFO,8
 000830 D613 A03C A03C_0003C 0003C 11521  1                      IF    (PIBINFO,Z),'SEG "CONS-"; SETMSG PIBNAME,3'
 000854 41F0 C5D4/58E0_      005D4 11575  1                      SEGT  (R1),(R0)
 00085E 4110 8CE9/4100_      0129D 11599  1                      SEG   ':  '
 000870 4110 7038/4800_      00038 11616  1                      SETMSG PDBTEXT,LH:PDBLENG
 000878 4B00 8CB2            01266 11629  1                      SH    R0,=AL2(L'PDBHDR)
 00087C 5900 8C6C/47B0_      01220 11630  1                      FLOOR R0,0
 000888 9104 90B6/47E0_000B6       11649  1                      IF    SCBMODC.MODCNECH,'SETMSG "(NOECHO)"'
 000898 41F0 C5D4/58E0_      005D4 11674  1                      SEGWR (R1),(R0)
 0008A2 D703 C60C C60C 0060C 0060C 11698  1                      CLEAR CVWSGUSR
 0008A8                            11705                       END
                                   11709
 0008A8 4110 9000            00000 11710              CONSDSND LA    R1,SCB
 0008AC 41F0 7000            00000 11711                       LA    R15,PDB
 0008B0 58E0 8C70/0DEE       01224 11712                       VCALL SUBSEND
 0008B6 41D0 D030/982B_      00030 11716                       PEND
 DROP   PDB,R7
 DROP   FEB,R11
 DROP   PIB,R10
 DROP   SCB,R9
 DROP   *,R8
                                   11756
 0008CA E3E8D7C5407F7C7F           11757              PMSG     DC    C'TYPE "@" TO CONTINUE'
1CONS     (CONS4072) (12:35) (15MAR04) Console Interface                                                                    Page   28
0Current Usings:  (CV,R12)
0Loc    Object Code    Addr1 Addr2  Stmt Lv Lineno    Source Statement           (Hibal 5, Asmedit 3.3)  HLASM R4.0  2004/03/15 12.35
+___    ______ ____    _____ _____  ____ __ ______    ______ _________
0                                  11759              ¿þþþþþþþþþþþþþþþþþþþþþþþþþþþþþþþþþþþþþþþþþþþþþþþþþþþþþþþþþþþþþþþþþþþþþÜ
                                   11760              Ÿ                                                                     Ÿ
                                   11761              Ÿ  CONSPOST -- Routine to process posts from completion of console    Ÿ
                                   11762              Ÿ    i/o.                                                             Ÿ
                                   11763              Ÿ                                                                     Ÿ
                                   11764              Ÿ    On entry:                                                        Ÿ
                                   11765              Ÿ      R1 - FEB ptr                                                   Ÿ
                                   11766              Ÿ                                                                     Ÿ
                                                      ¾þþþþþþþþþþþþþþþþþþþþþþþþþþþþþþþþþþþþþþþþþþþþþþþþþþþþþþþþþþþþþþþþþþþþþ»
00008DE 50E0 D044/902B_      00044 11767              CONSPOST XPROC
 USING  *,R8
 0008F8 18B1                       11805                       LR    FEBR,R1             Feb ptr
 USING  FEB,R11                    11806                       WITH  FEB
 0008FA 58F0 C034            00034 11818                       L     R15,CVCMECBP        Stop/modify ecb
 0008FE 9140 F000/47E0_00000       11819                       IF    ~@R15.X'40',EXIT,CONSPOST  not posted
 000906 58F0 C048            00048 11838                       L     R15,CVCOMP
 USING  COM,R15                    11839                       WITH  (COM,R15),BEGIN
 00090A 1F77/BF77 F005_            11853  1                      IF    ('L3 R7,COMCIBPT+1',Z),EXIT,CONSPOST  odd
 DROP   COM,R15                    11876                       END
                                   11884
 USING  CIB,R7                     11885                       WITH  (CIB,R7)
 000914 9540 7004/4770_00004       11898                       IF    (CIBVERB,EQ,CIBSTOP),'CLEAR R0; VCALL SHUTDOWN'
 000924 9544 7004/4770_00004       11929                       IF    (CIBVERB,NE,CIBMODFY),CONSPFRE
 00092C 1F33/4330 700C             11950                       LC    R3,CIBCONID         Get ucm id
 000932 4930 B076/4750_      00076 11957                       IF    (R3,GE,FEBPMAX),'CLEAR R3'  too high
 00093C 18F3                       11983                       LR    R15,R3
 00093E 89F0 0002            00002 11984                       SLL   R15,2               Times 4 for pat index
 000942 5820 B098            00098 11985                       L     R2,FEBPATP
 000946 412F 2000            00000 11986                       LA    R2,@R2(R15)
 00094A 58A0 2000/12AA       00000 11987                       LT    PIBR,@R2            Get pib ptr
 USING  PIB,R10                    11991                       WITH  PIB
 000950 4770 80E8            009D0 12003                       IF    Z,BEGIN             No pib, get one...
 000954 4100 00AC            000AC 12014  1                      LA    R0,L'PIB
 000958 58E0 8944/0DEE       0122C 12015  1                      VCALL GETPIB
 00095E 18A1                       12019  1                      LR    PIBR,R1
 000960 50A0 2000            00000 12020  1                      ST    PIBR,@R2            Save pib ptr in pat
                                   12021  1
 000964 9680 A066      00066       12022  1                      SET   PIBFPS              Psuedo port
 000968 50B0 A008            00008 12028  1                      ST    FEBR,PIBFEBP        Save feb ptr
 00096C 41F0 A0A4            000A4 12029  1                      LA    R15,PIBPDBQH
 000970 50F0 A0A8            000A8 12030  1                      ST    R15,PIBPDBQT        Make tail accurate
 000974 4030 A004            00004 12031  1                      STH   R3,PIBNO
 000978 D204 A021 89B8 00021 012A0 12032  1                      MVC   PIBDFACT,=C'&OPRACCT'  set default account
 00097E D207 A034 C141 00034 00141 12033  1                      MVC   PIBNAME,CVBLANKS
                                   12034  1
 000984 58F0 0010            00010 12035  1                      L     R15,CVTPTR
 000988 58F0 F064            00064 12036  1                      WITH  (CVT,R15),'L R15,CVTCUCB'  console ucb table (ucm pfx)
 USING  CVT,R15
 DROP   CVT,R15
 00098C 9823 F048            00048 12060  1                      WITH  (UCM,R15),'LM R2,R3,UCMVDATA'  ucme start, len
 USING  UCM,R15
 DROP   UCM,R15
 000990 D207 A034 88E8 00034 011D0 12084  1                      MVC   PIBNAME,=CL8'000'   Assume pseudo-console
1CONS     (CONS4072) (12:35) (15MAR04) Console Interface                                                                    Page   29
0Current Usings:  (CIB,R7) (*,R8) (PIB,R10) (FEB,R11) (CV,R12)
0Loc    Object Code    Addr1 Addr2  Stmt Lv Lineno    Source Statement           (Hibal 5, Asmedit 3.3)  HLASM R4.0  2004/03/15 12.35
+___    ______ ____    _____ _____  ____ __ ______    ______ _________
0000996 D207 A019 88E8 00019 011D0 12085  1                      MVC   PIBTID,=CL8'000'
 00099C 48F0 A004/12FF       00004 12086  1                      LTH   R15,PIBNO           Console id
 0009A2 47D0 80E8            009D0 12090  1                      IF    POS,BEGIN           Real console...
 0009A6 06F0                       12101  2                        DECR  R15
 0009A8 1812                       12103  2                        LR    R1,R2
 0009AA 1C2F                       12104  2                        MR    R2,R15
 0009AC 1A31                       12105  2                        AR    R3,R1               Ucme for this ucmid
 USING  UCMLIST,R3                 12106  2                        WITH  (UCMLIST,R3)
 0009AE D500 301A A005_0001A 00005 12119  2                        IF    (UCMID,NE,PIBNO+1),EXIT
 0009B8 58F0 300C            0000C 12140  2                        L     R15,UCMUCB
 USING  UCB,R15                    12141  2                        WITH  (UCB,R15)
 0009BC 95FF F002/4770_00002       12154  2                        IF    (UCBID,NE,X'FF'),EXIT
 0009C4 D202 A034 F00D 00034 0000D 12174  2                        MVC   PIBNAME(3),UCBNAME  Console ucb address
 0009CA D202 A019 F00D 00019 0000D 12175  2                        MVC   PIBTID(3),UCBNAME
 DROP   UCB,R15                    12176  1                      END
 DROP   UCMLIST,R3
 0009D0                            12190                       END
                                   12194
 0009D0 5890 A00C/1299       0000C 12195                       LT    SCBR,PIBSCBP
 USING  SCB,R9                     12199                       WITH  SCB
 0009D6 4770 812C            00A14 12211                       IF    Z,BEGIN             No scb, get one...
 0009DA 4110 A000            00000 12222  1                      LA    R1,PIB
 0009DE 4100 01B2            001B2 12223  1                      LA    R0,L'SCB
 0009E2 58E0 8948/0DEE       01230 12224  1                      VCALL GETSCB              Get a session
 0009E8 1891                       12228  1                      LR    SCBR,R1
 0009EA 96E0 912B      0012B       12229  1                      SET   SCBSFNAT+SCBSFNAR+SCBSFPS  no auto stuff, pses
 0009EE D613 A03C A03C_0003C 0003C 12242  1                      IF    (PIBINFO,NZ),BEGIN
 0009F8 D213 9136 C141 00136 00141 12258  2                        MVC   SCBNAME,CVBLANKS
 0009FE D213 9136 A03C 00136 0003C 12259  2                        MVC   SCBNAME(L'PIBINFO),PIBINFO  fill in user name
 000A04                            12260  1                      END
 000A04 9610 915E      0015E       12264  1                      SET   SCBFNTIM            Notime
 000A08 D201 9188 8980 00188 01268 12270  1                      MVC   SCBWID,=H'60'       Width
 000A0E D203 918A 894C 0018A 01234 12271  1                      MVC   SCBHEIP(4),=H'19,20'  pause,actual heights
 000A14                            12272                       END
                                   12276
 000A14 5860 C060            00060 12277                       L     R6,CVPDBP           PDB area
 USING  PDB,R6                     12278                       WITH  (PDB,R6)
 000A18 D737 6000 6000 00000 00000 12291                       CLEAR PDBHDR
 000A1E D201 6000 897E 00000 01266 12298                       MVC   PDBLENG,=AL2(L'PDBHDR)
 000A24 D201 6004 90F8 00004 000F8 12299                       MVC   PDBLIN#,SCBNO       Session index number
 000A2A 4820 700E            0000E 12300                       LH    R2,CIBDATLN         Read length
 000A2E 41F2 700F            0000F 12301                       LA    R15,CIBDATA-1(R2)
 000A32 1222/47D0 8160_            12302                       WHILE ((R2,POS),AND,(@R15,EQ,X'00')),'DECR R15; DECR R2'
 000A48 5920 8950/4770_      01238 12343                       IF    ((R2,EQ,1),AND,(@R15,EQ,' ')),'DECR R2'  trail blank
 000A5A 5920 8950/4770_      01238 12382                       IF    ((R2,EQ,1),AND,(CIBDATA,EQ,'@')),BEGIN  clear/attn...
 000A6A 5810 A0A4/1211_      000A4 12415  1                      WHILE ('LT R1,PIBPDBQH',NZ),BEGIN  free type-ahead queue...
 000A74 58F0 A0A0/06F0_      000A0 12433  2                        DECR  R15,PIBPDBCT        Decr queue count
 000A7E D203 A0A4 1000 000A4 00000 12438  2                        MVC   PIBPDBQH,@R1        Dequeue
 000A84 D603 A0A4 A0A4_000A4 000A4 12439  2                        IF    (PIBPDBQH,Z),'LA R15,PIBPDBQH; ST R15,PIBPDBQT'
 000A96 58E0 8930/0DEE       01218 12462  2                        VCALL FREECORE            Free saved PDB
 000A9C 47F0 8182            00A6A 12466  1                      END
 000AA0 D603 900C 900C_0000C 0000C 12471  1                      IF    (SCBSUBP,Z),EXIT
 000AAA 9542 90B3/4780_000B3       12490  1                      IF    (SCBCMD,NE,TMILREAD),BEGIN  no read, idle attn...
 000AB2 9250 6006      00006       12508  2                        MVI   PDBCMD,FMILASYN     Asynchronous
1CONS     (CONS4072) (12:35) (15MAR04) Console Interface                                                                    Page   30
0Current Usings:  (PDB,R6) (CIB,R7) (*,R8) (SCB,R9) (PIB,R10) (FEB,R11) (CV,R12)
0Loc    Object Code    Addr1 Addr2  Stmt Lv Lineno    Source Statement           (Hibal 5, Asmedit 3.3)  HLASM R4.0  2004/03/15 12.35
+___    ______ ____    _____ _____  ____ __ ______    ______ _________
0000AB6 9620 600D      0000D       12509  2                        SET   PDBCPLB.CPLBIA
 000ABA 4110 9000            00000 12516  2                        LA    R1,SCB
 000ABE 41F0 6000            00000 12517  2                        LA    R15,PDB
 000AC2 58E0 893C/0DEE       01224 12518  2                        VCALL SUBSEND
 000AC8                            12522  1                      END
 000AC8 9680 600C      0000C       12526  1                      SET   PDBCPLA.CPLAATTN
 000ACC 1B22                       12533  1                      CLEAR R2                  Nothing read
 000ACE                            12537                       END
                                   12541
 000ACE 9242 6006      00006       12542                       MVI   PDBCMD,FMILREAD     Read completion
 000AD2 5920 8954/4750_      0123C 12543                       IF    (R2,GE,6),BEGIN
 000ADA 41F2 700A            0000A 12560  1                      LA    R15,CIBDATA-6(R2)   Back up enough for "<attn>"
 000ADE D205 C248 F000 00248 00000 12561  1                      MVC   CVWORK(6),@R15
 000AE4 D605 C248 C141 00248 00141 12562  1                      OC    CVWORK(6),CVBLANKS  Caps
 000AEA D505 8982 C248_0126A 00248 12563  1                      IF    (CVWORK,NE,'<ATTN>'),EXIT  forget it
 000AF4 4B20 8988            01270 12583  1                      SH    R2,=H'6'
 000AF8 9680 600C      0000C       12584  1                      SET   PDBCPLA.CPLAATTN
 000AFC                            12591                       END
 000AFC 41F0 2038            00038 12595                       LA    R15,L'PDBHDR+@R2
 000B00 40F0 6000            00000 12596                       STH   R15,PDBLENG         Rdw len
 000B04 0620/1222/4740_            12597                       MOVE  R2,PDBTEXT,CIBDATA
1CONS     (CONS4072) (12:35) (15MAR04) Console Interface                                                                    Page   31
0Current Usings:  (PDB,R6) (CIB,R7) (*,R8) (SCB,R9) (PIB,R10) (FEB,R11) (CV,R12)
0Loc    Object Code    Addr1 Addr2  Stmt Lv Lineno    Source Statement           (Hibal 5, Asmedit 3.3)  HLASM R4.0  2004/03/15 12.35
+___    ______ ____    _____ _____  ____ __ ______    ______ _________
0000B10 9542 90B3/4770_000B3       12636                       IF    (SCBCMD,EQ,TMILREAD),BEGIN  reply to read...
                                   12654  1                      SEGDEF CVWSG
 000B18 41F0 C60C            0060C 12655  1                      LA    R15,CVWSGUSR
 USING  WTOCBUSR,R15               12656  1                      WITH  (WTOCBUSR,R15),BEGIN
 000B1C D703 F000 F000 00000 00000 12670  2                        CLEAR WTOCBUSR
 000B22 9640 F000      00000       12677  2                        SET   WTOCBFJL            Job log only
 DROP   WTOCBUSR,R15               12683  1                      END
 000B26 4110 A03C/4100_      0003C 12691  1                      SETMSG PIBINFO,8
 000B2E D613 A03C A03C_0003C 0003C 12707  1                      IF    (PIBINFO,Z),'SEG "CONS-"; SETMSG PIBNAME,3'
 000B52 41F0 C5D4/58E0_      005D4 12761  1                      SEGT  (R1),(R0)
 000B5C 4110 89B5/4100_      0129D 12785  1                      SEG   ':  '
 000B6E 4110 6038/4800_      00038 12802  1                      SETMSG PDBTEXT,LH:PDBLENG
 000B76 4B00 897E            01266 12815  1                      SH    R0,=AL2(L'PDBHDR)
 000B7A 5900 8938/47B0_      01220 12816  1                      FLOOR R0,0
 000B86 9104 90B6/47E0_000B6       12835  1                      IF    SCBMODC.MODCNECH,'SETMSG "(NOECHO)"'
 000B96 41F0 C5D4/58E0_      005D4 12860  1                      SEGWR (R1),(R0)
 000BA0 D703 C60C C60C 0060C 0060C 12884  1                      CLEAR CVWSGUSR
                                   12891  1
 000BA6 4110 9000            00000 12892  1                      LA    R1,SCB
 000BAA 41F0 6000            00000 12893  1                      LA    R15,PDB
 000BAE 58E0 893C/0DEE       01224 12894  1                      VCALL SUBSEND
 000BB4                            12898                       END
                                   12902
 000BB4 82D0/47F0 83D4 00BB4 00B16 12903                       ELSE  BEGIN               Otherwise, queue it...
 000BB8 4100 0004            00004 12914  1                      LA    R0,4
 000BBC 4A00 6000            00000 12915  1                      AH    R0,PDBLENG          Length of PDB (including link)
 000BC0 4110 0019            00019 12916  1                      LA    R1,CONSQPDB
 000BC4 4120 82E0            00BC8 12917  1                      LA    R2,*+4
 000BC8 58E0 8958/0DEE       01240 12918  1                      VCALL NGETCORE
 000BCE 1821                       12922  1                      LR    R2,R1
 000BD0 D703 2000 2000 00000 00000 12923  1                      CLEAR (@R2,4)             Clear link ptr
 000BD6 41E0 1004            00004 12930  1                      LA    R14,@R1+4
 000BDA 48F0 6000            00000 12931  1                      LH    R15,PDBLENG
 000BDE 4100 6000            00000 12932  1                      LA    R0,PDB
 000BE2 181F                       12933  1                      LR    R1,R15
 000BE4 0EE0                       12934  1                      MVCL  R14,R0              Save PDB
 000BE6 41F0 0001/5EF0_      00001 12935  1                      INCR  R15,PIBPDBCT        Kick queue size
 000BF2 58F0 A0A8            000A8 12941  1                      L     R15,PIBPDBQT        Old tail
 000BF6 5020 A0A8            000A8 12942  1                      ST    R2,PIBPDBQT         New tail
 000BFA 5020 F000            00000 12943  1                      ST    R2,@R15             Link up entry
                                   12944  1
                                   12945  1                      SEGDEF CVWSG
 000BFE 41F0 C60C            0060C 12946  1                      LA    R15,CVWSGUSR
 USING  WTOCBUSR,R15               12947  1                      WITH  (WTOCBUSR,R15),BEGIN
 000C02 D703 F000 F000 00000 00000 12961  2                        CLEAR WTOCBUSR
 000C08 9630 F000      00000       12968  2                        SET   WTOCBFW+WTOCBFID    Do mlwto
 000C0C 4800 9188/1200       00188 12977  2                        LTH   R0,SCBWID
 000C12 4720 8332/4100_      00C1A 12981  2                        IF    ~POS,'LA R0,100'
 000C1A 4000 F002            00002 12998  2                        STH   R0,WTOCBWID
 000C1E D200 F001 A005 00001 00005 12999  2                        MVC   WTOCBUCM,PIBNO+1    Ucm id
 DROP   WTOCBUSR,R15               13000  1                      END
 000C24 4110 89BD/4100_      012A5 13008  1                      SEG   '(Input queued'
 000C36 D503 895C A0A0_01244 000A0 13025  1                      IF    (PIBPDBCT,GT,1),'SEG " #"; SEGDC L:PIBPDBCT'
 000C62 4110 89CA/4100_      012B2 13086  1                      SEGB  '--Waiting for'
1CONS     (CONS4072) (12:35) (15MAR04) Console Interface                                                                    Page   32
0Current Usings:  (PDB,R6) (CIB,R7) (*,R8) (SCB,R9) (PIB,R10) (FEB,R11) (CV,R12)
0Loc    Object Code    Addr1 Addr2  Stmt Lv Lineno    Source Statement           (Hibal 5, Asmedit 3.3)  HLASM R4.0  2004/03/15 12.35
+___    ______ ____    _____ _____  ____ __ ______    ______ _________
0000C74 4110 C290/4100_      00290 13104  1                      SEGT  CVDEFSYS
 000C86 4110 89D7/4100_      012BF 13132  1                      SEGWR ')'
                                   13150  1
 000C98 D603 900C 900C_0000C 0000C 13151  1                      IF    (SCBSUBP,Z),BEGIN
 000CA2 58F0 C060            00060 13167  2                        L     R15,CVPDBP
 USING  PDB,R15                    13168  2                        WITH  (PDB,R15)
 000CA6 D737 F000 F000 00000 00000 13181  2                        CLEAR PDBHDR
 000CAC D201 F000 897E 00000 01266 13188  2                        MVC   PDBLENG,=AL2(L'PDBHDR)
 000CB2 4110 9000            00000 13189  2                        LA    R1,SCB
 000CB6 58E0 8968/0DEE       01250 13190  2                        VCALL SUBSTART
 DROP   PDB,R15                    13194  1                      END
 000CBC                            13203                       END
                                   13207
 000CBC 58F0 C048            00048 13208              CONSPFRE L     R15,CVCOMP
 000CC0 4100 F004            00004 13209                       WITH  (COM,R15),'LA R0,COMCIBPT'
 USING  COM,R15
 DROP   COM,R15
 000CC4 1117/0A22                  13233                       QEDIT ORIGIN=(0),BLOCK=(R7)  Free CIB
 000CC8 12FF/4780 8400_            13236                       FAIL  (R15,NZ),'CONSOLE INTERFACE ERROR'
 000CE8 41D0 D030/982B_      00030 13259                       PEND
 DROP   PDB,R6
 DROP   SCB,R9
 DROP   PIB,R10
 DROP   CIB,R7
 DROP   FEB,R11
 DROP   *,R8
1CONS     (CONS4072) (12:35) (15MAR04) Console Interface                                                                    Page   33
0Current Usings:  (CV,R12)
0Loc    Object Code    Addr1 Addr2  Stmt Lv Lineno    Source Statement           (Hibal 5, Asmedit 3.3)  HLASM R4.0  2004/03/15 12.35
+___    ______ ____    _____ _____  ____ __ ______    ______ _________
0                                  13305              ¿þþþþþþþþþþþþþþþþþþþþþþþþþþþþþþþþþþþþþþþþþþþþþþþþþþþþþþþþþþþþþþþþþþþþþÜ
                                   13306              Ÿ                                                                     Ÿ
                                   13307              Ÿ  CONSDIE -- Routine to do final cleanup.  It is entered when        Ÿ
                                   13308              Ÿ    MILTEN is terminating.                                           Ÿ
                                   13309              Ÿ                                                                     Ÿ
                                   13310              Ÿ    On entry:                                                        Ÿ
                                   13311              Ÿ      R0 - 0: normal, 4: error                                       Ÿ
                                   13312              Ÿ      R1 - FEB ptr                                                   Ÿ
                                   13313              Ÿ                                                                     Ÿ
                                                      ¾þþþþþþþþþþþþþþþþþþþþþþþþþþþþþþþþþþþþþþþþþþþþþþþþþþþþþþþþþþþþþþþþþþþþþ»
0000CFC 50E0 D044/902B_      00044 13314              CONSDIE  XPROC
 USING  *,R8
                                   13352                       ¿þþþþþþþþþþþþþþþþþþþþþþþþþþþþþþþþþÜ
                                   13353                       Ÿ  Nothing to do, simply return.  Ÿ
                                   13354                       ¾þþþþþþþþþþþþþþþþþþþþþþþþþþþþþþþþþ»
 000D16 41D0 D030/982B_      00030 13355                       PEND
 DROP   *,R8
1CONS     (CONS4072) (12:35) (15MAR04) Console Interface                                                                    Page   34
0Current Usings:  (CV,R12)
0Loc    Object Code    Addr1 Addr2  Stmt Lv Lineno    Source Statement           (Hibal 5, Asmedit 3.3)  HLASM R4.0  2004/03/15 12.35
+___    ______ ____    _____ _____  ____ __ ______    ______ _________
0                                  13376              ¿þþþþþþþþþþþþþþþþþþþþþþþþþþþþþþþþþþþþþþþþþþþþþþþþþþþþþþþþþþþþþþþþþþþþþÜ
                                   13377              Ÿ                                                                     Ÿ
                                   13378              Ÿ  CONSCMD -- Routine to process console commands; the scanner        Ÿ
                                   13379              Ÿ    is all set up to scan the command.                               Ÿ
                                   13380              Ÿ                                                                     Ÿ
                                   13381              Ÿ    On entry:                                                        Ÿ
                                   13382              Ÿ      R1  - FEB ptr                                                  Ÿ
                                   13383              Ÿ      R15 - SEGCB ptr                                                Ÿ
                                   13384              Ÿ                                                                     Ÿ
                                                      ¾þþþþþþþþþþþþþþþþþþþþþþþþþþþþþþþþþþþþþþþþþþþþþþþþþþþþþþþþþþþþþþþþþþþþþ»
0000D2A 50E0 D044/902B_      00044 13385              CONSCMD  XPROC
 USING  *,R8
 000D44 18B1                       13423                       LR    FEBR,R1
 USING  FEB,R11                    13424                       WITH  FEB
 000D46 187F                       13436                       LR    R7,R15              Segcb ptr
 USING  SEGCB,R7                   13437                       WITH  (SEGCB,R7)
                                   13450                       SEGDEF (R7)
 000D48 4110 84A4/4100_      011D8 13451                       SEGWR 'CONSOLE SUPPORT:'
 000D58 4110 C141/4100_      00141 13467                       SEGWR CVBLANKS,1
 000D68 4110 C141/4100_      00141 13495                       SEGWR CVBLANKS,1
                                   13523                       ¿þþþþþþþþþþþþþþþþþþþþþþþþþþþþþþþþþþþþþþþÜ
                                   13524                       Ÿ  Format stop/modify interface stuff.  Ÿ
                                   13525                       ¾þþþþþþþþþþþþþþþþþþþþþþþþþþþþþþþþþþþþþþþ»
 000D78 4110 84B4/4100_      011E8 13526                       SEG   'STOP/MODIFY ECB='
 000D88 5820 C034            00034 13541                       L     R2,CVCMECBP
 000D8C 5810 2000/4100_      00000 13542                       SEGHX L:@R2,8
 000D9C 9140 2000/47E0_00000       13564                       IF    @R2.X'40','SEG " -- POSTED"'
 000DB4 1B00/18F7/58E0_            13600                       SEGWR
                                   13622
 000DBE 4110 C141/4100_      00141 13623                       SEGWR CVBLANKS,1
 000DCE 5860 C048            00048 13651                       L     R6,CVCOMP
 USING  COM,R6                     13652                       WITH  (COM,R6),BEGIN
 000DD2 1F55/BF57 6005             13666  1                      L3    R5,COMCIBPT+1       First CIB, if any
                                   13674  1
 000DD8 1255/4780 818C             13675  1                      WHILE (R5,NZ),BEGIN       Do while CIB's...
 USING  CIB,R5                     13691  2                        WITH  (CIB,R5)
 000DDE 1815/4100 0006_            13704  2                        SEGHX (R5),6
 000DEC 4110 858C/4100_      012C0 13726  2                        SEG   '  CIB (UCMID='
 000DFC 1F11/4310 500C_            13741  2                        SEGDC LC:CIBCONID,2
 000E0E 4110 858B/4100_      012BF 13768  2                        SEGB  ')'
 000E1E 1B00                       13784  2                        CLEAR R0
 000E20 9544 5004/4770_00004       13788  2                        IF    (CIBVERB,EQ,CIBMODFY),'SETMSG "MODIFY"'
 000E30 9540 5004/4770_00004       13815  2                        IF    (CIBVERB,EQ,CIBSTOP),'SETMSG "STOP"'
 000E40 1200/4780 811A_            13842  2                        IF    (R0,NZ),'SEGB (R1),(R0)'
 000E4E 811E/47F0 813E_00E4E 00E44 13883  2                        ELSE  'SEG "VERB="; SEGHX LC:CIBVERB'
 000E72 4100 0023/18F7_      00023 13938  2                        SEGCOL 35
 000E7E 4110 859E/4100_      012D2 13956  2                        SEG   '"'
 000E8E 4110 5010/4800_      00010 13971  2                        SEG   CIBDATA,LH:CIBDATLN
 000E9E 4110 859E/4100_      012D2 13995  2                        SEG   '"'
 000EAE 1B00/18F7/58E0_            14010  2                        SEGWR
                                   14032  2
 000EB8 5850 5000            00000 14033  2                        L     R5,CIBNEXT
 000EBC 47F0 80A4            00DD8 14034  1                      END
1CONS     (CONS4072) (12:35) (15MAR04) Console Interface                                                                    Page   35
0Current Usings:  (COM,R6) (SEGCB,R7) (*,R8) (FEB,R11) (CV,R12)
0Loc    Object Code    Addr1 Addr2  Stmt Lv Lineno    Source Statement           (Hibal 5, Asmedit 3.3)  HLASM R4.0  2004/03/15 12.35
+___    ______ ____    _____ _____  ____ __ ______    ______ _________
0DROP   CIB,R5
 DROP   COM,R6                     14044                       END
                                   14052
 000EC0 4110 C141/4100_      00141 14053                       SEGWR CVBLANKS,1
 000ED0 4110 C141/4100_      00141 14081                       SEGWR CVBLANKS,1
                                   14109
 000EE0 181B/4100 0006_            14110                       SEGHX (FEBR),6
 000EEE 4110 C141/4100_      00141 14132                       SEG   CVBLANKS,2
 000EFE 4110 B014/4100_      00014 14159                       SEGTB FEBNAME
 000F0E 4810 B076/1B00_      00076 14185                       SEGDC LH:FEBPMAX
 000F1C 4110 859F/4100_      012D3 14203                       SEGB  ' PORTS '
 000F2C 9140 B00C/4710_0000C       14219                       IF    ~FEBFOPEN,'SEGB "** NOT-OPEN **"'
 000F44 D502 85A6 B000_012DA 00000 14255                       IF    (FEB,NE,'FEB'),'SEGB "** INVALID **"'
 000F5E 1B00/18F7/58E0_            14293                       SEGWR
                                   14315
 000F68 41D0 D030/982B_      00030 14316                       PEND
 DROP   SEGCB,R7
 DROP   FEB,R11
 DROP   *,R8
1CONS     (CONS4072) (12:35) (15MAR04) Console Interface                                                                    Page   36
0Current Usings:  (CV,R12)
0Loc    Object Code    Addr1 Addr2  Stmt Lv Lineno    Source Statement           (Hibal 5, Asmedit 3.3)  HLASM R4.0  2004/03/15 12.35
+___    ______ ____    _____ _____  ____ __ ______    ______ _________
0                                  14347              ¿þþþþþþþþþþþþþþþþþþþþþþþþþþþþþþþþþþþþþþþþþþþþþþþþþþþþþþþþþþþþþþþþþþþþþÜ
                                   14348              Ÿ                                                                     Ÿ
                                   14349              Ÿ  CONSFMT -- Routine to do control block formatting.                 Ÿ
                                   14350              Ÿ                                                                     Ÿ
                                   14351              Ÿ    On entry:                                                        Ÿ
                                   14352              Ÿ      R1  - FEB ptr                                                  Ÿ
                                   14353              Ÿ      R15 - SEGCB ptr                                                Ÿ
                                   14354              Ÿ                                                                     Ÿ
                                                      ¾þþþþþþþþþþþþþþþþþþþþþþþþþþþþþþþþþþþþþþþþþþþþþþþþþþþþþþþþþþþþþþþþþþþþþ»
0000F7C 50E0 D044/902B_      00044 14355              CONSFMT  XPROC
 USING  *,R8
 000F96 18B1                       14393                       LR    FEBR,R1
 USING  FEB,R11                    14394                       WITH  FEB
 000F98 187F                       14406                       LR    R7,R15              Segcb ptr
 USING  SEGCB,R7                   14407                       WITH  (SEGCB,R7)
                                   14420                       SEGDEF (R7)
 000F9A 4110 8252/4100_      011D8 14421                       SEGWR 'CONSOLE SUPPORT:'
 000FAA 4110 C141/4100_      00141 14437                       SEGWR CVBLANKS,1
 000FBA 4110 C141/4100_      00141 14465                       SEGWR CVBLANKS,1
                                   14493                       ¿þþþþþþþþþþþþþþþþþþþþþþþþþþþþþþþþþþþþþþþÜ
                                   14494                       Ÿ  Format stop/modify interface stuff.  Ÿ
                                   14495                       ¾þþþþþþþþþþþþþþþþþþþþþþþþþþþþþþþþþþþþþþþ»
 000FCA 4110 8262/4100_      011E8 14496                       SEG   'STOP/MODIFY ECB='
 000FDA 5820 C034            00034 14511                       L     R2,CVCMECBP
 000FDE 5810 2000/4100_      00000 14512                       SEGHX L:@R2,8
 000FEE 9140 2000/47E0_00000       14534                       IF    @R2.X'40','SEG " -- POSTED"'
 001006 1B00/18F7/58E0_            14570                       SEGWR
                                   14592                       ¿þþþþþþþþþþþþþþþþþþþþþþþþþþþþþþþþþþþþþþþþþþþþÜ
                                   14593                       Ÿ  This sometimes causes addressing errors;  Ÿ
                                   14594                       Ÿ    so we don't do it any more.  6/90, Niz  Ÿ
                                   14595                       ¾þþþþþþþþþþþþþþþþþþþþþþþþþþþþþþþþþþþþþþþþþþþþ»
                                   14596                       AGO   .NOCIB
                                   14597              .NOCIB   ANOP
                                   14598                       ¿þþþþþþþþþþþþþþþþþþþþþþþþþþþþþþþþþþþþÜ
                                   14599                       Ÿ  Format console port information.  Ÿ
                                   14600                       ¾þþþþþþþþþþþþþþþþþþþþþþþþþþþþþþþþþþþþ»
 001010 4110 C141/4100_      00141 14601                       SEGWR CVBLANKS,1
 001020 4110 C141/4100_      00141 14629                       SEGWR CVBLANKS,1
                                   14657
 001030 181B/4100 0006_            14658                       SEGHX (FEBR),6
 00103E 4110 C141/4100_      00141 14680                       SEG   CVBLANKS,2
 00104E 4110 B014/4100_      00014 14707                       SEGTB FEBNAME
 00105E 4810 B076/1B00_      00076 14733                       SEGDC LH:FEBPMAX
 00106C 4110 834D/4100_      012D3 14751                       SEGB  ' PORTS '
 00107C 9140 B00C/4710_0000C       14767                       IF    ~FEBFOPEN,'SEGB "** NOT-OPEN **"'
 001094 D502 8354 B000_012DA 00000 14803                       IF    (FEB,NE,'FEB'),'SEGB "** INVALID **"'
 0010AE 1B00/18F7/58E0_            14841                       SEGWR
                                   14863
 0010B8 5850 B098            00098 14864                       L     R5,FEBPATP          Start
 0010BC 4860 B076            00076 14865                       LH    R6,FEBPMAX
 0010C0 8960 0002            00002 14866                       SLL   R6,2
 0010C4 1A65                       14867                       AR    R6,R5               End
 0010C6 1956/47B0 822C             14868                       WHILE (R5,LT,R6),BEGIN
1CONS     (CONS4072) (12:35) (15MAR04) Console Interface                                                                    Page   37
0Current Usings:  (SEGCB,R7) (*,R8) (FEB,R11) (CV,R12)
0Loc    Object Code    Addr1 Addr2  Stmt Lv Lineno    Source Statement           (Hibal 5, Asmedit 3.3)  HLASM R4.0  2004/03/15 12.35
+___    ______ ____    _____ _____  ____ __ ______    ______ _________
00010CC 58A0 5000/12AA_      00000 14885  1                      IF    ('LT PIBR,@R5',NZ),BEGIN
 USING  PIB,R10                    14901  2                        WITH  PIB
 0010D6 4100 0003/18F7_      00003 14913  2                        SEGCOL 3
 0010E2 181A/4100 0006_            14931  2                        SEGHX (PIBR),6
 0010F0 4110 830C/4100_      01292 14953  2                        SEG   ' PORT#'
 001100 18F5                       14968  2                        LR    R15,R5
 001102 5BF0 B098            00098 14969  2                        S     R15,FEBPATP
 001106 88F0 0002            00002 14970  2                        SRL   R15,2
 00110A 181F/1B00/18F7_            14971  2                        SEGDC (R15)
 001116 1B00/18F7/58E0_            14990  2                        SEGB
 001120 4110 A034/4100_      00034 15012  2                        SEGB  PIBNAME,3
 001130 5890 A00C/1299_      0000C 15040  2                        IF    ('LT SCBR,PIBSCBP',NZ),BEGIN
 USING  SCB,R9                     15056  3                          WITH  SCB
 00113A 4110 8272/4100_      011F8 15068  3                          SEGB  'SESSION:'
 00114A 4110 9127/4100_      00127 15084  3                          SEG   SCBGRP
 00115A 4110 8364/4100_      012EA 15109  3                          SEG   '.'
 00116A 4110 9124/4100_      00124 15124  3                          SEG   SCBUSER
 00117A 1F22/BF23 9129_            15149  3                          IF    ('L2 R2,SCBANO',NZ),'SEG "#"; SEGDC (R2)'
 DROP   SCB,R9                     15208  2                        END
 0011A0 1B00/18F7/58E0_            15217  2                        SEGWR
 DROP   PIB,R10                    15239  1                      END
 0011AA 4150 5004            00004 15248  1                      LA    R5,@R5+4
 0011AE 47F0 8140            010C6 15249                       END
 0011B2 41D0 D030/982B_      00030 15254                       PEND
 DROP   SEGCB,R7
 DROP   FEB,R11
 DROP   *,R8
                                   15284
                                   15285                       QLTORG
1CONS     (CONS4072) (12:35) (15MAR04) WTO Routine                                                                          Page   38
0Current Usings:  (CV,R12)
0Loc    Object Code    Addr1 Addr2  Stmt Lv Lineno    Source Statement           (Hibal 5, Asmedit 3.3)  HLASM R4.0  2004/03/15 12.35
+___    ______ ____    _____ _____  ____ __ ______    ______ _________
0000000                00000 001EB 15352              WTOWA    RECORD BEGIN
 000000                            15360  1           WTOAREA    DS    CL(L'CVWSGBUF+256)  Work area
 0001EB                001EB 001EB 15361                       END
-                                  15371              ¿þþþþþþþþþþþþþþþþþþþþþþþþþþþþþþþþþþþþþþþþþþþþþþþþþþþþþþþþþþþþþþþþþþþþþÜ
                                   15372              Ÿ                                                                     Ÿ
                                   15373              Ÿ  WTOSEG -- SEG routine to format and queue WTO.                     Ÿ
                                   15374              Ÿ                                                                     Ÿ
                                   15375              Ÿ    On entry:                                                        Ÿ
                                   15376              Ÿ      R15 - SEGCB ptr                                                Ÿ
                                   15377              Ÿ                                                                     Ÿ
                                                      ¾þþþþþþþþþþþþþþþþþþþþþþþþþþþþþþþþþþþþþþþþþþþþþþþþþþþþþþþþþþþþþþþþþþþþþ»
00012F2 50E0 D044/902B_      00044 15378              WTOSEG   XPROC WTOWA
 USING  *,R8
 USING  WTOWA-@@,R13
 00130C 187F                       15427                       LR    R7,R15
 USING  SEGCB,R7                   15428                       WITH  (SEGCB,R7)
 00130E 4160 7038            00038 15441                       LA    R6,SEGCBUSR
 USING  WTOCBUSR,R6                15442                       WITH  (WTOCBUSR,R6)
                                   15455
 001312 9502 7000/4770_00000       15456                       IF    ~SEGCBWR,EXIT       Not segwr, ignore
 00131A 1200/47D0 81F8             15474                       IF    (R0,NP),EXIT        No text, ignore
 001320 D503 875C C350_01A58 00350 15491                       IF    (CVWTONO,GT,50),EXIT  Too many waiting, ignore
                                   15512
 00132A 9110 6000/47E0_00000       15513                       IF    (WTOCBFW,AND,(WTOCBWID,Z)),BEGIN
 00133C D201 6002 878A 00002 01A86 15543  1                      MVC   WTOCBWID,=H'60'
 001342                            15544                       END
                                   15548
 001342 9150 6000/47E0_00000       15549                       IF    WTOCBFJL*WTOCBFW,'CLEAR WTOCBFW'  conflicting
                                   15579
 00134E D201 D04E 878C 00002 01A88 15580                       MVC   WTOAREA+2(2),=X'8000'  mcs flags (routcde present)
 001354 4150 D050            00004 15581                       LA    R5,WTOAREA+4
 001358 9108 6000/4710_00000       15582                       IF    ~WTOCBFNP,BEGIN     Add jobname prefix...
 001360 9160 6000/4770_00000       15597  1                      IF    WTOCBFID+WTOCBFJL,EXIT  implied no jobname prefix
 001368 94EF 6000      00000       15618  1                      CLEAR WTOCBFW             Inconsistent
 00136C D203 5000 8760 00000 01A5C 15625  1                      MVC   @R5(4),=C'*** '
 001372 D207 5004 C4C0 00004 004C0 15626  1                      MVC   @R5+4(8),CVMJOBNM
 001378 4150 500B            0000B 15627  1                      LA    R5,@R5+4+8-1
 00137C 9540 5000/4770_00000       15628  1                      WHILE (@R5,EQ,' '),'DECR R5'
 00138A D204 5001 8798 00001 01A94 15654  1                      MVC   @R5+1(5),=C' *** '
 001390 4150 5006            00006 15655  1                      LA    R5,@R5+6
 001394                            15656                       END
 001394 18F0                       15660                       LR    R15,R0
 001396 9110 6000/47E0_00000       15661                       IF    WTOCBFW,'CEIL R15,WTOCBWID'
 0013AA 06F0/12FF/4740_            15687                       MOVE  R15,@R5,@R1
 0013B6 4155 F001            00001 15725                       LA    R5,@R15+1(R5)
 0013BA 41F0 D04C            00000 15726                       LA    R15,WTOAREA
 0013BE 1825                       15727                       LR    R2,R5
 0013C0 1B2F                       15728                       SR    R2,R15              Len (including mcs hdr)
 0013C2 4020 D04C            00000 15729                       STH   R2,WTOAREA          Save len
 0013C6 4B20 878E            01A8A 15730                       SH    R2,=H'4'            Data len
 0013CA D203 5000 8764 00000 01A60 15731                       MVC   @R5(4),=X'00004000'  routcde=2
1CONS     (CONS4072) (12:35) (15MAR04) WTO Routine                                                                          Page   39
0Current Usings:  (WTOCBUSR,R6) (SEGCB,R7) (*,R8) (CV,R12) (WTOWA-@@,R13)
0Loc    Object Code    Addr1 Addr2  Stmt Lv Lineno    Source Statement           (Hibal 5, Asmedit 3.3)  HLASM R4.0  2004/03/15 12.35
+___    ______ ____    _____ _____  ____ __ ______    ______ _________
00013D0 9180 6000/47E0_00000       15732                       IF    WTOCBFAC,'MVI @R5,X"40"'  desc=2
 0013DC 9180 C13C/47E0_0013C       15753                       IF    CVFTEST,'MVC @R5(4),=X"00000020"'  routcde=11
                                   15774
 0013EA 9120 6000/47E0_00000       15775                       IF    WTOCBFID,BEGIN      Route to console...
 0013F2 92E0 D04E      00002       15790  1                      MVI   WTOAREA+2,X'E0'     Mcsflags=(reg0,resp)
 0013F6 D701 5002 5002 00002 00002 15791  1                      CLEAR (@R5+2,2)           No routcdes
 0013FC                            15798                       END
 0013FC 4150 5004            00004 15802                       LA    R5,@R5+4
                                   15803
 001400 9110 6000/47E0_00000       15804                       IF    WTOCBFW,BEGIN       Make mlwto...
 001408 9640 D04F      00003       15819  1                      SET   WTOAREA+3.X'40'     Mark as mlwto
 00140C D202 5000 879D 00000 01A99 15826  1                      MVC   @R5(3),=X'200000'   Line type = d
 001412 1835                       15827  1                      LR    R3,R5
 001414 1BEE                       15828  1                      CLEAR R14
 001416 18F0                       15832  1                      LR    R15,R0
 001418 1DE2                       15833  1                      DR    R14,R2              Calc no. of lines
 00141A 12EE/4780 8128_            15834  1                      IF    (R14,NZ),'LA R15,@R15+1'
 001424 42F0 5003            00003 15854  1                      STC   R15,@R5+3           Save no. of lines
 001428 4150 5004            00004 15855  1                      LA    R5,@R5+4
 00142C 4112 1000/1B02_      00000 15856  1                      WHILE ('LA R1,@R1(R2); SR R0,R2',POS),BEGIN  more...
 001436 18F0                       15872  2                        LR    R15,R0
 001438 19F2/47D0 8144_            15873  2                        CEIL  R15,R2
 001440 06F0/12FF/4740_            15879  2                        MOVE  R15,@R5+4,@R1       Move in next line
 00144C 41F0 F005            00005 15917  2                        LA    R15,@R15+1+4
 001450 40F0 5000            00000 15918  2                        STH   R15,@R5             Line len (plus hdr)
 001454 D201 5002 8790 00002 01A8C 15919  2                        MVC   @R5+2(2),=X'2000'   Line type = d
 00145A 4130 5002            00002 15920  2                        LA    R3,@R5+2
 00145E 4155 F000            00000 15921  2                        LA    R5,@R15(R5)
 001462 47F0 8130            0142C 15922  1                      END
 001466 9230 3000      00000       15927  1                      MVI   @R3,X'30'           Change last line type to de
 00146A                            15928                       END
                                   15932
 00146A 41F0 D04C            00000 15933                       LA    R15,WTOAREA
 00146E 1B5F                       15934                       SR    R5,R15              Len of entire wto
 001470 4100 5008            00008 15935                       LA    R0,@R5+8            Include link space, etc.
 001474 4110 000B            0000B 15936                       LA    R1,WTOQSUBP         Subpool number
 001478 4120 8186            01482 15937                       LA    R2,WTOGETC          Our ID
 00147C 58E0 876C/0DEE       01A68 15938                       VCALL NGETCORE
 001482                            15942              WTOGETC  LABEL
 001482 D703 1000 1000 00000 00000 15944                       CLEAR (@R1,4)             Link ptr
 001488 D203 1004 6000 00004 00000 15951                       MVC   @R1+4(4),WTOCBUSR   Ucmid & flags
 00148E 41E0 1008/18F5_      00008 15952                       MOVEL @R1+8,WTOAREA,(R5),REG2=R2
                                   15974                       ¿þþþþþþþþþþþþþþþþþþþþþþþþþþþþþþþþþþþþþþþþþþþþþþþþþþþþÜ
                                   15975                       Ÿ  Add a new WTO entry to the end of the WTO queue.  Ÿ
                                   15976                       ¾þþþþþþþþþþþþþþþþþþþþþþþþþþþþþþþþþþþþþþþþþþþþþþþþþþþþ»
 00149C 1B22                       15977              WTOSTLP  CLEAR R2                  Zero means unlocked
 00149E 4130 0001            00001 15982                       LA    R3,1                One means locked
 0014A2 BA23 C35C            0035C 15983                       CS    R2,R3,CVWTOLK       Lock out updates
 0014A6 4770 81A0            0149C 15984                       BNZ   WTOSTLP             Spin lock
                                   15985
 0014AA 5820 C358/1222       00358 15986                       LT    R2,CVWTOQT          Get current queue tail
 0014B0 4770 81BC/5010_      014B8 15990                       IF    Z,'ST R1,CVWTOQH'   Nothing, we are the queue head
 0014B8 81C0/47F0 81C4_014B8 014B2 16007                       ELSE  'ST R1,@R2'         Otherwise link us to the old tail
 0014C0 5010 C358            00358 16024                       ST    R1,CVWTOQT          We are the new queue tail
1CONS     (CONS4072) (12:35) (15MAR04) WTO Routine                                                                          Page   40
0Current Usings:  (WTOCBUSR,R6) (SEGCB,R7) (*,R8) (CV,R12) (WTOWA-@@,R13)
0Loc    Object Code    Addr1 Addr2  Stmt Lv Lineno    Source Statement           (Hibal 5, Asmedit 3.3)  HLASM R4.0  2004/03/15 12.35
+___    ______ ____    _____ _____  ____ __ ______    ______ _________
0                                  16025
 0014C4 41F0 0001/5EF0_      00001 16026                       INCR  R15,CVWTONO         Kick count of WTO entries
                                   16032
 0014D0 5820 C35C            0035C 16033              WTOSULP  L     R2,CVWTOLK          Should be non-zero (locked)
 0014D4 1B33                       16034                       CLEAR R3                  We can now unlock
 0014D6 BA23 C35C            0035C 16038                       CS    R2,R3,CVWTOLK       Unlock
 0014DA 4770 81D4            014D0 16039                       BNZ   WTOSULP             Should always fall through
                                   16040
 0014DE 9180 C364/47E0_00364       16041                       IF    CVWTOECB.X'80','POST CVWTOECB'  Only post if waiting
                                   16068
 0014EE D703 6000 6000 00000 00000 16069                       CLEAR WTOCBUSR            Reset
 0014F4 41D0 D21C/982B_      0021C 16076                       PEND
 DROP   WTOCBUSR,R6
 DROP   SEGCB,R7
 DROP   WTOWA-@@,R13
 DROP   *,R8
1CONS     (CONS4072) (12:35) (15MAR04) WTO Routine                                                                          Page   41
0Current Usings:  (CV,R12)
0Loc    Object Code    Addr1 Addr2  Stmt Lv Lineno    Source Statement           (Hibal 5, Asmedit 3.3)  HLASM R4.0  2004/03/15 12.35
+___    ______ ____    _____ _____  ____ __ ______    ______ _________
0                                  16113              ¿þþþþþþþþþþþþþþþþþþþþþþþþþþþþþþþþþþþþþþþþþþþþþþþþþþþþþþþþþþþþþþþþþþþþþÜ
                                   16114              Ÿ                                                                     Ÿ
                                   16115              Ÿ  DOM -- Routine to delete action messages.                          Ÿ
                                   16116              Ÿ    Note that this procedure only gets action messages which         Ÿ
                                   16117              Ÿ    are not directed to a specific console (ucmid).                  Ÿ
                                   16118              Ÿ                                                                     Ÿ
                                                      ¾þþþþþþþþþþþþþþþþþþþþþþþþþþþþþþþþþþþþþþþþþþþþþþþþþþþþþþþþþþþþþþþþþþþþþ»
0001508 50E0 D044/902B_      00044 16119              DOM      XPROC
 USING  *,R8
 001522 4110 855A/1BFF_      01A6C 16157                       STIMER WAIT,BINTVL==A(50)  1/2 second for WTO's to get out
 001532 94BF C13D      0013D       16165                       CLEAR CVFTIMER            Dispatcher needs to re-do STIMER
                                   16172
 001536 4160 814E            01660 16173                       LA    R6,DOMTBL           First action message id
 00153A 4170 8162            01674 16174                       LA    R7,DOMTBL+DOMLIM*4  Ending addr
 00153E 1967/47B0 8050             16175                       WHILE (R6,LT,R7),BEGIN    Delete messages...
 001544 5810 6000/1211       00000 16192  1                      LT    R1,@R6              Wto id
 00154A 4740 8048            0155A 16196  1                      IF    ~NEG,BEGIN
 00154E 4100 0000/0A57       00000 16207  2                        DOM   MSG=(1)
 001554 D203 6000 855E 00000 01A70 16210  2                        MVC   @R6(4),=F'-1'       Reset
 00155A                            16211  1                      END
 00155A 4160 6004            00004 16215  1                      LA    R6,@R6+4
 00155E 47F0 802C            0153E 16216                       END
 001562 41D0 D030/982B_      00030 16221                       PEND
 DROP   *,R8
1CONS     (CONS4072) (12:35) (15MAR04) Wto Routine (Subtask)                                                                Page   42
0Current Usings:  (CV,R12)
0Loc    Object Code    Addr1 Addr2  Stmt Lv Lineno    Source Statement           (Hibal 5, Asmedit 3.3)  HLASM R4.0  2004/03/15 12.35
+___    ______ ____    _____ _____  ____ __ ______    ______ _________
0                                  16242              ¿þþþþþþþþþþþþþþþþþþþþþþþþþþþþþþþþþþþþþþþþþþþþþþþþþþþþþþþþþþþþþþþþþþþþþÜ
                                   16243              Ÿ                                                                     Ÿ
                                   16244              Ÿ  WTO -- This runs as a subtask.  It is posted when there is a       Ÿ
                                   16245              Ÿ    WTO to issue.  The WTO's are done in a subtask to prevent        Ÿ
                                   16246              Ÿ    MILTEN (maintask) from becoming non-dispatchable if the WTO      Ÿ
                                   16247              Ÿ    should have to wait.                                             Ÿ
                                   16248              Ÿ                                                                     Ÿ
                                                      ¾þþþþþþþþþþþþþþþþþþþþþþþþþþþþþþþþþþþþþþþþþþþþþþþþþþþþþþþþþþþþþþþþþþþþþ»
0                                  16249                       ENTRY WTO
 001576 0D80                       16250              WTO      BASE
 USING  *,R8
 001578 58D0 84FC/4AD0_      01A74 16264                       STKINIT WTOSTK            wto subtask's stack
                                   16268
 001584 58E0 8500/0DEE       01A78 16269                       VCALL AMODE31
                                   16273
 00158A 4100 0001/4110_      00001 16274              WTOWAIT  WAIT  ECB=CVWTOECB        Wait for work
 001594 D703 C364 C364 00364 00364 16281                       CLEAR CVWTOECB
                                   16288
 00159A                            16289              WTOLOOP  LABEL
                                   16291                       ¿þþþþþþþþþþþþþþþþþþþþþþþþþþþþþþþþþþþþþþþþþþþþþþþÜ
                                   16292                       Ÿ  Take the first WTO entry off the WTO queue.  Ÿ
                                   16293                       ¾þþþþþþþþþþþþþþþþþþþþþþþþþþþþþþþþþþþþþþþþþþþþþþþ»
 00159A 1B22                       16294              WTOLOCK  CLEAR R2                  Zero means unlocked
 00159C 4130 0001            00001 16299                       LA    R3,1                One means locked
 0015A0 BA23 C35C            0035C 16300                       CS    R2,R3,CVWTOLK       Lock out updates
 0015A4 4770 8022            0159A 16301                       BNZ   WTOLOCK             Spin lock
                                   16302
 0015A8 5840 C354/1244       00354 16303                       LT    R4,CVWTOQH          First queue entry
 0015AE 4780 8058            015D0 16307                       IF    NZ,BEGIN            We have something...
 0015B2 5830 4000            00000 16318  1                      L     R3,@R4              Next entry after first
 0015B6 5030 C354            00354 16319  1                      ST    R3,CVWTOQH          New first queue entry
 0015BA 1233/4770 804E_            16320  1                      IF    (R3,Z),'CLEAR CVWTOQT'  Reset queue tail
                                   16346  1
 0015C6 58F0 C350/06F0_      00350 16347  1                      DECR  R15,CVWTONO         Kick count of WTO entries
 0015D0                            16352                       END
                                   16356
 0015D0 5820 C35C            0035C 16357              WTOUNLK  L     R2,CVWTOLK          Should be non-zero (locked)
 0015D4 1B33                       16358                       CLEAR R3                  We can now unlock
 0015D6 BA23 C35C            0035C 16362                       CS    R2,R3,CVWTOLK       Unlock
 0015DA 4770 8058            015D0 16363                       BNZ   WTOUNLK             Should always fall through
                                   16364
 0015DE 1244/4780 8012             16365                       IF    (R4,Z),WTOWAIT      Nothing to do, go back and wait
                                   16382
 0015E4 4170 4004            00004 16383                       LA    R7,@R4+4
 USING  WTOCBUSR,R7                16384                       USING WTOCBUSR,R7
 0015E8 1F00/4300 7001             16393                       LC    R0,WTOCBUCM         Ucm id (if needed)
 0015EE 4110 4008            00008 16398                       LA    R1,@R4+8
 0015F2 9140 7000/4710_00000       16399                       IF    ~WTOCBFJL,BEGIN     Wto...
 0015FA 0A23                       16414  1                      WTO   MF=(E,(1))
 0015FC                            16417                       END
 0015FC 8088/47F0 8096 015FC 015F8 16421                       ELSE  BEGIN               If no haspserv, comment this out...
 001600 D701 1002 1002 00002 00002 16432  1                      CLEAR (@R1+2,2)           Keeps haspserv happy
 001606 4100 000D/1BFF_      0000D 16439  1                      HASPSERV WTL,(R1)         Job log only
1CONS     (CONS4072) (12:35) (15MAR04) Wto Routine (Subtask)                                                                Page   43
0Current Usings:  (WTOCBUSR,R7) (*,R8) (CV,R12)
0Loc    Object Code    Addr1 Addr2  Stmt Lv Lineno    Source Statement           (Hibal 5, Asmedit 3.3)  HLASM R4.0  2004/03/15 12.35
+___    ______ ____    _____ _____  ____ __ ______    ______ _________
000160E                            16456                       END
 00160E 1821                       16460                       LR    R2,R1               Wto id
 001610 9180 7000/47E0_00000       16461                       IF    WTOCBFAC,BEGIN      Action msg...
 001618 1FFF/43F0 4005             16476  1                      LC    R15,@R4+5           Ucm id
 00161E 9120 7000/4710_00000       16483  1                      IF    ~WTOCBFID,'CLEAR R15'  no ucmid = ucmid=0
 001628 59F0 8504/4720_      01A7C 16507  1                      IF    (R15,GT,DOMUCMS),EXIT  too high, ignore
 001630 4CF0 851A            01A92 16527  1                      MH    R15,=AL2(DOMLIM*4)
 001634 413F 80E8            01660 16528  1                      LA    R3,DOMTBL(R15)      This consoles dom table
 001638 5810 3000/1211       00000 16529  1                      LT    R1,@R3              Oldest wto id
 00163E 4740 80D0            01648 16533  1                      IF    ~NEG,BEGIN
 001642 4100 0000/0A57       00000 16544  2                        DOM   MSG=(1)             Delete oldest wto
 001648                            16547  1                      END
 001648 D20F 3000 3004 00000 00004 16551  1                      MVC   @R3((DOMLIM-1)*4),@R3+4  move up queue
 00164E 5020 3010            00010 16552  1                      ST    R2,@R3+(DOMLIM-1)*4      save new wto id
 001652                            16553                       END
                                   16557
 001652 1814                       16558                       LR    R1,R4
 001654 58E0 8508/0DEE       01A80 16559                       VCALL FREECORE            Release entry
 00165A 47F0 8022            0159A 16563                       B     WTOLOOP
                                   16564
 DROP   WTOCBUSR,R7                16565                       DROP  WTOCBUSR,BR
 DROP   *,R8
                                   16579
                                   16580              DOMLIM   EQU   5                   Maximum of 5 action msgs
                                   16581              DOMUCMS  EQU   25                  Ignore anything with gt ucmid
 00165E 0000
 001660 FFFFFFFFFFFFFFFF           16582              DOMTBL   DC    (DOMLIM*DOMUCMS)A(-1)  dom table
                                   16583
 001854                            16584              WTOSTK   DS    XL512               Wto subtask stack
                                   16585                       QLTORG
 001AA8                01AA8 01AA8 16618                       END   .

1CONS     (CONS4072) (12:35) (15MAR04) Relocation Dictionary                                                                Page   44
-   Pos.Id   Rel.Id   Flags    Address                                                       HLASM R4.0  2004/03/15 12.35
0  00000001 00000001    0C    000003F4
   00000001 00000001    0C    000003F8
   00000001 00000001    0C    000003FC
   00000001 00000001    0C    00000400
   00000001 00000001    0C    00000404
   00000001 00000001    0C    00000408
   00000001 00000001    0C    00001A74
   00000001 00000002    1C    00000314
   00000001 00000003    1C    00000318
   00000001 00000004    1C    0000031C
   00000001 00000005    1C    00000324
   00000001 00000005    1C    00001260
   00000001 00000006    1C    00000344
   00000001 00000006    1C    0000122C
   00000001 00000007    1C    00000348
   00000001 00000008    1C    0000034C
   00000001 00000008    1C    00001230
   00000001 00000009    1C    00000354
   00000001 00000009    1C    00001250
   00000001 0000000A    1C    00001200
   00000001 0000000B    1C    00001204
   00000001 0000000C    1C    00001210
   00000001 0000000D    1C    00001214
   00000001 0000000E    1C    00001218
   00000001 0000000E    1C    00001A80
   00000001 0000000F    1C    0000121C
   00000001 00000010    1C    00001224
   00000001 00000011    1C    00001228
   00000001 00000012    1C    00001240
   00000001 00000012    1C    00001A68
   00000001 00000013    1C    00001248
   00000001 00000014    1C    0000124C
   00000001 00000015    1C    00001254
   00000001 00000016    1C    0000125C
   00000001 00000017    1C    00001A78

1CONS     (CONS4072) (12:35) (15MAR04) Ordinary Symbol and Literal Cross Reference                                          Page   45
-Symbol   Length   Value     Id    R Type   Defn References                                  HLASM R4.0  2004/03/15 12.35
0$$$@R10       1 00000000 FFFFFFF4     J     842  1061
 $$$@R11       1 00000000 FFFFFFF3     J     855  1074   1086
 $$$@R12       1 00000000 FFFFFFF2     J     868  1099
 $$$@R13       1 00000000 FFFFFFF1     J     881  1112   1116   1119   1121   1122
 $$$@R14       1 00000000 FFFFFFF0     J     894  1134
 $$$@R2        1 00000000 FFFFFFFC     J     738  1022
 $$$@R8        1 00000000 FFFFFFF6     J     816  1035
 $$$@R9        1 00000000 FFFFFFF5     J     829  1048
 $$$C1MILCONS
               1 00000383 00000001     J    9773  9775
 $$$C2MILCONS
               1 000005A9 00000001     J   10521 10523  12629
 $$$C3MILCONS
               1 000012F2 00000001     J   15346 15348  15368  15719  15911
 $$$C4MILCONS
               1 00001AA8 00000001     J   16613 16615
 $$$C5MILCONS
               1 00001AA8 00000001     J   16621 16623
 $$$D2MILCONS
               1 000012EC 00000001     J   10522 12618
 $$$D3MILCONS
               1 00001A9C 00000001     J   15347 15708  15900
 $$$FAIL166
               1 00000CE8 00000001     U   13254 13252
 $$$FAIL41
               1 00000204 00000001     U    9447  9445
 $$$FAIL45
               1 0000024A 00000001     U    9532  9530
 $$$FAIL54
               1 000003B3 00000001     U    9866  9864
 $$$FAIL83
               1 00000618 00000001     U   10710 10708
 $$$RCOM       1 00000000 FFFFFFD0     J    8385  8401   8401
 $$$RCTRC      1 00000000 FFFFFFCD     J    8547  8579   8579
 $$$RFDB       1 00000000 FFFFFFEB     J    2596  2704   2704
 $$$RFEB       1 00000000 FFFFFFD2     J    8046  8170   8170
 $$$RPDB       1 00000000 FFFFFFEC     J    2384  2576   2576
 $$$RPIB       1 00000000 FFFFFFD1     J    8176  8379   8379
 $$$RSCANCB
               1 00000000 FFFFFFEA     J    2710  2736   2736
 $$$RSCB       1 00000000 FFFFFFED     J    1619  2378   2378
 $$$RSEGCB
               1 00000000 FFFFFFE9     J    2742  2842   2842
 $$$RWTOCBUSR
               1 00000000 FFFFFFCC     J    8585  8630   8630
 $$$RWTOWA
               1 00000000 FFFFFFCB     J   15354 15367  15367
 $$$SEGCB2
               4 000005D4 FFFFFFEE     F    1495  1581   1581
 $$$100E       2 000006D2 00000001     H   11010 11002  11004
 $$$100F       2 000006D6 00000001     H   11016 11006B
 $$$101E       2 000006DA 00000001     H   11030 11024
 $$$101F       2 000006EE 00000001     H   11045 11026B
 $$$102F       2 00000722 00000001     H   11102 11072B 11089B
 $$$104F       2 00000798 00000001     H   11308 11115B
1CONS     (CONS4072) (12:35) (15MAR04) Ordinary Symbol and Literal Cross Reference                                          Page   46
 $$$104S       2 00000722 00000001     H   11109 11307B
 $$$106F       2 00000742 00000001     H   11160 11134B 11147B
 $$$106S       2 0000072A 00000001     H   11126 11159B
 $$$109F       2 00000758 00000001     H   11209 11194B
 $$$111F       2 0000076A 00000001     H   11239 11229B
 $$$112F       2 000007C8 00000001     H   11353 11336B
 $$$115F       2 000007FC 00000001     H   11422 11411B
 $$$116F       2 000008A8 00000001     H   11708 11463B
 $$$117F       2 00000854 00000001     H   11574 11532B
 $$$118F       2 00000888 00000001     H   11648 11639B
 $$$119F       2 00000898 00000001     H   11673 11660B
 $$$121        1 0000002C 00000001 A   U   11752 11746  11749  11751
 $$$122F       2 00000CE8 00000001     H   13292 11832B 11870B
 $$$123B       1 000008E8 00000001     X   11784 11791U
 $$$127F       2 00000924 00000001     H   11928 11911B
 $$$129F       2 0000093C 00000001     H   11982 11969B
 $$$130F       2 000009D0 00000001     H   12193 12009B
 $$$131F       2 000009D0 00000001     H   12189 12096B 12134B 12168B
 $$$134F       2 00000A14 00000001     H   12275 12217B
 $$$135F       2 00000A04 00000001     H   12263 12253B
 $$$136F       2 00000A48 00000001     H   12342 12315B 12328B
 $$$136S       2 00000A32 00000001     H   12307 12341B
 $$$139F       2 00000A5A 00000001     H   12381 12357B 12370B
 $$$141F       2 00000ACE 00000001     H   12540 12396B 12410B 12484B
 $$$143F       2 00000AA0 00000001     H   12470 12428B
 $$$143S       2 00000A6A 00000001     H   12420 12469B
 $$$145F       2 00000A96 00000001     H   12461 12450B
 $$$147F       2 00000AC8 00000001     H   12525 12503B
 $$$150F       2 00000AFC 00000001     H   12594 12555B 12577B
 $$$153F       2 00000B10 00000001     H   12634 12610B
 $$$154        6 000012EC 00000001     I   12624 12616X
 $$$155        6 000012EC 00000001     I   12623 12624  12624
 $$$156B       4 00000B14 00000001     I   12649 12905
 $$$156F       2 00000BB4 00000001     H   12901 12649B 12904
 $$$157F       2 00000B52 00000001     H   12760 12718B
 $$$158F       2 00000B86 00000001     H   12834 12825B
 $$$159F       2 00000B96 00000001     H   12859 12846B
 $$$161E       2 00000BB8 00000001     H   12912 12906
 $$$161F       2 00000CBC 00000001     H   13206 12908B
 $$$163F       2 00000C1A 00000001     H   12997 12987B
 $$$164F       2 00000C62 00000001     H   13085 13038B
 $$$165F       2 00000CBC 00000001     H   13202 13162B
 $$$167F       2 00000CE8 00000001     H   13258 13247B
 $$$168        1 0000002C 00000001 A   U   13300 13294  13297  13299
 $$$170B       1 00000D06 00000001     X   13331 13338U
 $$$171        1 0000002C 00000001 A   U   13371 13365  13368  13370
 $$$173B       1 00000D34 00000001     X   13402 13409U
 $$$174F       2 00000DB4 00000001     H   13599 13575B
 $$$176F       2 00000EC0 00000001     H   14043 13686B
 $$$176S       2 00000DD8 00000001     H   13680 14042B
 $$$178F       2 00000E30 00000001     H   13814 13801B
 $$$179F       2 00000E40 00000001     H   13841 13828B
 $$$180B       4 00000E42 00000001     I   13851 13885
 $$$180F       2 00000E4E 00000001     H   13882 13851B 13884
 $$$181E       2 00000E52 00000001     H   13892 13886
 $$$181F       2 00000E72 00000001     H   13937 13888B
 $$$182F       2 00000F44 00000001     H   14254 14229B
 $$$183F       2 00000F5E 00000001     H   14292 14267B
 $$$184        1 0000002C 00000001 A   U   14342 14336  14339  14341
1CONS     (CONS4072) (12:35) (15MAR04) Ordinary Symbol and Literal Cross Reference                                          Page   47
 $$$186B       1 00000F86 00000001     X   14372 14379U
 $$$187F       2 00001006 00000001     H   14569 14545B
 $$$189F       2 00001094 00000001     H   14802 14777B
 $$$190F       2 000010AE 00000001     H   14840 14815B
 $$$191F       2 000011B2 00000001     H   15253 14880B
 $$$191S       2 000010C6 00000001     H   14873 15252B
 $$$193F       2 000011AA 00000001     H   15247 14896B
 $$$194F       2 000011A0 00000001     H   15216 15051B
 $$$195F       2 000011A0 00000001     H   15207 15164B
 $$$196        1 0000002C 00000001 A   U   15280 15274  15277  15279
 $$$197F       2 000014F4 00000001     H   16099 15468B 15485B 15506B
 $$$198B       1 000012FC 00000001     X   15397 15404U
 $$$202F       2 00001342 00000001     H   15547 15525B 15538B
 $$$204F       2 0000134E 00000001     H   15578 15562B
 $$$205F       2 00001394 00000001     H   15659 15592B 15612B
 $$$207F       2 0000138A 00000001     H   15653 15641B
 $$$207S       2 0000137C 00000001     H   15633 15652B
 $$$209F       2 000013AA 00000001     H   15686 15671B
 $$$210F       2 000013B6 00000001     H   15724 15700B
 $$$211        6 00001A9C 00000001     I   15714 15706X
 $$$212        6 00001A9C 00000001     I   15713 15714  15714
 $$$213F       2 000013DC 00000001     H   15752 15742B
 $$$214F       2 000013EA 00000001     H   15773 15763B
 $$$215F       2 000013FC 00000001     H   15801 15785B
 $$$217F       2 0000146A 00000001     H   15931 15814B
 $$$219F       2 00001424 00000001     H   15853 15843B
 $$$220F       2 00001466 00000001     H   15926 15867B
 $$$220S       2 0000142C 00000001     H   15861 15925B
 $$$222F       2 0000144C 00000001     H   15916 15892B
 $$$223        6 00001AA2 00000001     I   15906 15898X
 $$$224        6 00001AA2 00000001     I   15905 15906  15906
 $$$226B       4 000014B0 00000001     I   15996 16009
 $$$226F       2 000014B8 00000001     H   16006 15996B 16008
 $$$227E       2 000014BC 00000001     H   16016 16010
 $$$227F       2 000014C0 00000001     H   16023 16012B
 $$$228F       2 000014EE 00000001     H   16067 16052B
 $$$230        1 00000218 00000001 A   U   16108 16101  16105  16107
 $$$232B       1 00001512 00000001     X   16136 16143U
 $$$233F       2 00001562 00000001     H   16220 16187B
 $$$233S       2 0000153E 00000001     H   16180 16219B
 $$$235F       2 0000155A 00000001     H   16214 16202B
 $$$236        1 0000002C 00000001 A   U   16237 16231  16234  16236
 $$$237B       1 00001578 00000001     X   16255 16262U
 $$$238F       2 000015D0 00000001     H   16355 16313B
 $$$239F       2 000015C6 00000001     H   16345 16329B
 $$$241B       4 000015F6 00000001     I   16409 16423
 $$$241F       2 000015FC 00000001     H   16420 16409B 16422
 $$$242E       2 00001600 00000001     H   16430 16424
 $$$242F       2 0000160E 00000001     H   16459 16426B
 $$$244F       2 00001652 00000001     H   16556 16471B 16521B
 $$$245F       2 00001628 00000001     H   16506 16493B
 $$$247F       2 00001648 00000001     H   16550 16539B
 $$$26F        2 00000090 00000001     H    8895  8806B
 $$$27B        1 00000022 00000001     X    8711  8718U
 $$$28F        2 0000005E 00000001     H    8815  8776B
 $$$28S        2 00000038 00000001     H    8768  8814B
 $$$30F        2 0000005A 00000001     H    8810  8794B
 $$$31         1 0000002C 00000001 A   U    8903  8897   8900   8902
 $$$32F        2 00000188 00000001     H    9326  9232B  9240B
1CONS     (CONS4072) (12:35) (15MAR04) Ordinary Symbol and Literal Cross Reference                                          Page   48
 $$$33B        1 000000AE 00000001     X    8937  8944U
 $$$35F        2 000000E8 00000001     H    9051  9037B
 $$$36F        2 00000110 00000001     H    9179  9143B
 $$$38         1 0000002C 00000001 A   U    9334  9328   9331   9333
 $$$40B        1 000001A6 00000001     X    9363  9370U
 $$$42F        2 00000204 00000001     H    9451  9440B
 $$$43F        2 0000024A 00000001     H    9545  9470B  9503B
 $$$46F        2 0000024A 00000001     H    9536  9525B
 $$$47F        2 000002CC 00000001     H    9714  9572B
 $$$47S        2 00000260 00000001     H    9565  9713B
 $$$49F        2 000002C4 00000001     H    9708  9587B
 $$$50F        2 0000029A 00000001     H    9653  9643B
 $$$51         1 0000002C 00000001 A   U    9741  9735   9738   9740
 $$$52F        2 00000524 00000001     H   10389 10000B 10005B 10010B 10019B
 $$$53B        1 0000038E 00000001     X    9811  9818U
 $$$55F        2 000003B4 00000001     H    9870  9859B
 $$$56F        2 000003DE 00000001     H    9949  9914B
 $$$57F        2 000003D0 00000001     H    9941  9931B
 $$$58F        2 000003E8 00000001     H    9976  9963B
 $$$60S        2 0000044E 00000001     H   10059 10101B
 $$$61F        2 0000045E 00000001     H   10083 10072B
 $$$66S        2 000004BC 00000001     H   10190 10232B
 $$$67F        2 000004CC 00000001     H   10214 10203B
 $$$71F        2 00000502 00000001     H   10304 10285B
 $$$72F        2 00000512 00000001     H   10337 10319B
 $$$74         1 0000002C 00000001 A   U   10397 10391  10394  10396
 $$$76B        1 00000542 00000001     X   10426 10433U
 $$$77         1 0000002C 00000001 A   U   10489 10483  10486  10488
 $$$78F        2 000008B6 00000001     H   11744 10742B 11370B 11388B
 $$$79B        1 000005B4 00000001     X   10552 10559U
 $$$80F        2 000005FA 00000001     H   10669 10640B
 $$$82F        2 00000634 00000001     H   10746 10684B
 $$$84F        2 00000618 00000001     H   10714 10703B
 $$$85F        2 00000700 00000001     H   11060 10776B 10787B
 $$$88F        2 000006F8 00000001     H   11053 10804B
 $$$88S        2 0000064C 00000001     H   10798 11052B
 $$$90B        4 0000065A 00000001     I   10821 10914
 $$$90F        2 00000694 00000001     H   10910 10821B 10913
 $$$91B        4 0000066A 00000001     I   10853 10893
 $$$91F        2 0000068C 00000001     H   10888 10840B 10853B 10890
 $$$92B        4 00000662 00000001     I   10840 10891
 $$$93F        2 0000068A 00000001     H   10882 10872B
 $$$94E        2 00000690 00000001     H   10900 10892  10894
 $$$94F        2 00000694 00000001     H   10906 10896B
 $$$95B        4 0000069C 00000001     I   10931 11023
 $$$95E        2 00000698 00000001     H   10921 10915
 $$$95F        2 000006D6 00000001     H   11020 10917B 10931B 11022
 $$$97B        4 000006AC 00000001     I   10963 11003
 $$$97F        2 000006CE 00000001     H   10998 10950B 10963B 11000
 $$$98B        4 000006A4 00000001     I   10950 11001
 $$$99F        2 000006CC 00000001     H   10992 10982B
 @@            1 0000004C FFFFFFF1 A   U    1119 15423  16609
 @NSP          4 00000048 FFFFFFF1     A    1118  8703M  8706M  8724M  8725M  8726M  8900   8902   8904M  8929M  8932M
                                                  8950M  8951M  8952M  9331   9333   9335M  9355M  9358M  9376M  9377M
                                                  9378M  9738   9740   9742M  9803M  9806M  9824M  9825M  9826M 10394
                                                 10396  10398M 10418M 10421M 10439M 10440M 10441M 10486  10488  10490M
                                                 10544M 10547M 10565M 10566M 10567M 11749  11751  11753M 11776M 11779M
                                                 11797M 11798M 11799M 13297  13299  13301M 13323M 13326M 13344M 13345M
                                                 13346M 13368  13370  13372M 13394M 13397M 13415M 13416M 13417M 14339
1CONS     (CONS4072) (12:35) (15MAR04) Ordinary Symbol and Literal Cross Reference                                          Page   49
                                                 14341  14343M 14364M 14367M 14385M 14386M 14387M 15277  15279  15281M
                                                 15388M 15391M 15410M 15411M 15412M 16105  16107  16109M 16128M 16131M
                                                 16149M 16150M 16151M 16234  16236  16238M 16267M
 @PIBR         0 00000000 FFFFFFF4     @    1062 10158
 @R0           0 00000000 FFFFFFFE     @     713   989U
 @R1           0 00000000 FFFFFFFD     @     726   985U  1590   1594   1595   1597   1598M  9036   9195U 10820  10852
                                                 10930  10962  11037  12438  12930  13750U 13919U 15713  15865  15905
                                                 15950M 15950  15951M 15959  16438M 16438
 @R10          0 00000000 FFFFFFF4     @     843   949U  9309U  9705U 10244U 11732U 13275U 15244U
 @R11          0 00000000 FFFFFFF3     @     856   945U  8822U  8883U  9319U  9726U 10382U 11727U 13285U 14327U 15265U
 @R12          0 00000000 FFFFFFF2     @     869   941U
 @R13          0 00000000 FFFFFFF1     @     882   937U 16092U
 @R14          0 00000000 FFFFFFF0     @     895   933U
 @R15          0 00000000 FFFFFFEF     @     908   929U  1600M  9076U  9100U  9186U  9695U 11038U 11096M 11248U 11503U
                                                 11829  11882U 12058U 12082U 12181U 12327  12369  12561  12689U 12943M
                                                 13006U 13199U 13231U 15725  15849  15917  15921  16482U
 @R2           0 00000000 FFFFFFFC     @     739   981U 10084M 10085  10215M 10216  11097  11399  11434  11441  11986
                                                 11989  12020M 12595  12929M 12929  13546  13574  14516  14544  15163U
                                                 16019M
 @R3           0 00000000 FFFFFFFB     @     752   977U 10084  10215  11095  11146  11153  11301  11956U 12186U 15927M
                                                 16531  16551M 16551  16552M
 @R4           0 00000000 FFFFFFFA     @     765   973U 16318  16383  16398  16481
 @R5           0 00000000 FFFFFFF9     @     778   969U  9579   9709  13673U 14039U 14894  15248  15625M 15626M 15627
                                                 15640  15654M 15655  15713M 15731M 15748M 15769M 15797M 15797  15802
                                                 15826M 15854M 15855  15905M 15918M 15919M 15920  15935
 @R6           0 00000000 FFFFFFF8     @     791   965U  9154U  9469U  9542U  9559  10372U 13265U 14050U 16082U 16194
                                                 16210M 16215
 @R7           0 00000000 FFFFFFF7     @     804   961U  8888U  9314U  9721U 10377U 11722U 11867U 13280U 14322U 15260U
                                                 16087U 16571U
 @R8           0 00000000 FFFFFFF6     @     817   957U  8893U  9324U  9731U 10387U 10479U 11742U 13290U 13361U 14332U
                                                 15270U 16097U 16227U 16577U
 @R9           0 00000000 FFFFFFF5     @     830   953U  9700U 10474U 11737U 13270U 15213U
 @SPR          0 00000000 FFFFFFF1     @    1113  8703M  8706M  8724M  8725M  8726M  8900   8902   8904M  8929M  8932M
                                                  8950M  8951M  8952M  9331   9333   9335M  9355M  9358M  9376M  9377M
                                                  9378M  9738   9740   9742M  9803M  9806M  9824M  9825M  9826M 10394
                                                 10396  10398M 10418M 10421M 10439M 10440M 10441M 10486  10488  10490M
                                                 10544M 10547M 10565M 10566M 10567M 11749  11751  11753M 11776M 11779M
                                                 11797M 11798M 11799M 13297  13299  13301M 13323M 13326M 13344M 13345M
                                                 13346M 13368  13370  13372M 13394M 13397M 13415M 13416M 13417M 14339
                                                 14341  14343M 14364M 14367M 14385M 14386M 14387M 15277  15279  15281M
                                                 15388M 15391M 15410M 15411M 15412M 16105  16107  16109M 16128M 16131M
                                                 16149M 16150M 16151M 16234  16236  16238M 16267M
 AHLHEAD       1 00000000 00000000 A   T    3252  3252
 AHLVCCR8      1 00000000 00000000 A   T    3743  3743
 AMODE31       1 00000000 00000017     T   16600 16600
 ASCTBL        1 00000000 00000000 A   T    1414  1414
 ASMVT         1 00000000 00000000 A   T    3632  3632
 BIT0          1 00000080 FFFFFFE4 A   U    6162  6184   6232   6241   6257   6278   6291   6300   6350   6370   6382
                                                  6406   6488   6497   6585   6595   6632   6641   6648   6657   6668
                                                  6678   6694   6705   6739   6758   6770   6782   6797   6812   6866
                                                  6994   7011   7189   7201   7218   7239   7246   7272   7279   7325
                                                  7699   7708   7741   7750   7764   7773   7787   7796   7823   7854
                                                  7888   7900   7908   7918   7927   7945   7954   7968   7977   8005
                                                  8014
 BIT1          1 00000040 FFFFFFE4 A   U    6163  6185   6233   6242   6258   6279   6292   6301   6351   6371   6384
                                                  6408   6489   6498   6586   6596   6633   6642   6649   6658   6669
                                                  6679   6695   6706   6741   6760   6772   6783   6798   6867   6996
                                                  7013   7191   7202   7219   7240   7247   7273   7280   7700   7709
                                                  7742   7751   7765   7774   7788   7797   7824   7855   7889   7901
1CONS     (CONS4072) (12:35) (15MAR04) Ordinary Symbol and Literal Cross Reference                                          Page   50
                                                  7909   7919   7928   7946   7955   7969   7978   8006   8015
 BIT2          1 00000020 FFFFFFE4 A   U    6164  6186   6234   6243   6259   6280   6293   6302   6372   6386   6409
                                                  6490   6499   6587   6597   6634   6643   6650   6659   6670   6680
                                                  6696   6707   6743   6761   6774   6784   6799   6999   7015   7194
                                                  7203   7220   7241   7274   7281   7701   7710   7743   7752   7766
                                                  7775   7789   7798   7825   7856   7890   7902   7910   7920   7929
                                                  7947   7956   7970   7979   8007   8016
 BIT3          1 00000010 FFFFFFE4 A   U    6165  6187   6235   6244   6260   6281   6294   6303   6373   6387   6410
                                                  6491   6500   6588   6598   6635   6644   6651   6660   6671   6681
                                                  6697   6708   6745   6762   6776   6785   6800   7002   7017   7195
                                                  7204   7221   7242   7275   7282   7326   7702   7711   7744   7753
                                                  7767   7776   7790   7799   7826   7857   7903   7911   7921   7930
                                                  7948   7957   7971   7980   8008   8017
 BIT4          1 00000008 FFFFFFE4 A   U    6166  6188   6236   6246   6261   6282   6295   6304   6374   6389   6412
                                                  6492   6501   6589   6599   6636   6645   6652   6661   6672   6682
                                                  6698   6709   6747   6763   6777   6786   6801   7003   7018   7196
                                                  7205   7222   7243   7283   7703   7712   7745   7754   7768   7777
                                                  7791   7800   7827   7858   7904   7912   7922   7931   7949   7958
                                                  7972   7981   8009   8018
 BIT5          1 00000004 FFFFFFE4 A   U    6167  6189   6237   6247   6262   6283   6296   6305   6376   6391   6413
                                                  6493   6502   6590   6600   6637   6662   6673   6683   6699   6710
                                                  6749   6764   6778   6787   6802   7004   7019   7197   7206   7223
                                                  7284   7704   7713   7746   7755   7769   7778   7792   7801   7828
                                                  7859   7905   7913   7923   7932   7950   7959   7973   7982   8010
                                                  8019
 BIT6          1 00000002 FFFFFFE4 A   U    6168  6190   6238   6248   6263   6284   6297   6306   6377   6393   6414
                                                  6494   6503   6591   6601   6638   6663   6674   6684   6700   6711
                                                  6751   6765   6779   6788   6803   7005   7020   7198   7207   7285
                                                  7705   7714   7747   7756   7770   7779   7793   7802   7829   7860
                                                  7906   7914   7924   7933   7951   7960   7974   7983   8011   8020
 BIT7          1 00000001 FFFFFFE4 A   U    6169  6191   6239   6249   6264   6285   6298   6307   6378   6394   6415
                                                  6495   6504   6593   6602   6639   6664   6675   6701   6712   6754
                                                  6766   6780   6789   6806   7006   7021   7199   7286   7706   7715
                                                  7748   7757   7771   7780   7794   7803   7830   7861   7915   7925
                                                  7934   7952   7961   7975   7984   8012   8021
 BLTBL         1 00000000 00000000 A   T    1416  1416
 BR            8 00000008 00000001 A   #    1029  8707M  8718U  8933M  8944U  9359M  9370U  9807M  9818U 10422M 10433U
                                                 10548M 10559U 11780M 11791U 13327M 13338U 13398M 13409U 14368M 14379U
                                                 15393M 15404U 16132M 16143U
 CBBRANCH      1 00000000 00000000 A   T    3788  3788
 CCTLBF        4 00000414 00000001     I   10002 10038B 10127B 10266B 10339B 10358B 10364B
 CCTLMAX       1 00000002 00000001 A   N    9984  9986   9986  10503
 CCTLOK        2 00000424 00000001     H   10014 10108B 10247B 10300B 10333B
 CCTLPMAX      1 00000066 00000001 A   N    9991  9993   9993  10502
 CCTLPTBL      4 00000400 00000001     A    9988  9944   9991
 CCTLRC12      4 0000041C 00000001     I   10007 10148B 10160B
 CCTLTBL       4 000003F4 00000001     A    9981  9978   9984
 CCTL0         4 0000040C 00000001     I    9997  9981   9988
 CCTL1         2 0000042A 00000001     H   10025  9982
 CCTL101       2 000004E8 00000001     H   10253  9989
 CCTL102       2 00000516 00000001     H   10345  9990
 CCTL2         2 0000047A 00000001     H   10114  9983
 CIB           1 00000000 FFFFFFCF     J    8405  9484U 11894U 13700U
 CIBCONID      1 0000000C FFFFFFCF     C    8491 11955  13749
 CIBDATA       8 00000010 FFFFFFCF     C    8498 12301  12409  12560  12623  13980
 CIBDATLN      2 0000000E FFFFFFCF     H    8497 12300  13984
 CIBMODFY      1 00000044 FFFFFFCF A   U    8483 11941  13800
 CIBNEXT       4 00000000 FFFFFFCF     A    8479 14033
 CIBSTART      1 00000004 FFFFFFCF A   U    8481  9500
1CONS     (CONS4072) (12:35) (15MAR04) Ordinary Symbol and Literal Cross Reference                                          Page   51
 CIBSTOP       1 00000040 FFFFFFCF A   U    8484 11910  13827
 CIBVERB       1 00000004 FFFFFFCF     C    8480  9500  11910  11941  13800  13827  13918
 CIBVRSN       1 00000003 FFFFFFCF A   U    8496  8492
 CIBX          1 00000000 FFFFFFCE     J    8509  8534   8580   8631
 CIBXEND       1 00000030 FFFFFFCE     U    8533  8534
 CIB15497      1 00000003 FFFFFFCF A   U    8495  8496
 COM           8 00000000 FFFFFFD0     J    8401  9419U 11848U 13218U 13661U
 COMCIBPT      4 00000004 FFFFFFD0     A    8394  9426   9468   9512  11866  13224  13672
 COMECBPT      4 00000000 FFFFFFD0     A    8391  9452
 CONSCMD       2 00000D2A 00000001     H   13390 13386
 CONSCNTL      2 00000384 00000001     H    9799  9795
 CONSDEF       2 00000018 00000001     H    8699  8695
 CONSDIE       2 00000CFC 00000001     H   13319 13315
 CONSDO        2 000005AA 00000001     H   10540 10536
 CONSDSND      4 000008A8 00000001     I   11710 10665B 11349B
 CONSFIN       2 0000019C 00000001     H    9351  9347
 CONSFMT       2 00000F7C 00000001     H   14360 14356
 CONSPFRE      4 00000CBC 00000001     I   13208 11944B
 CONSPMIS      4 00000136 00000001     I    9236  9004B
 CONSPNF       4 00000114 00000001     I    9207  9019B
 CONSPORT      2 000000A4 00000001     H    8925  8921
 CONSPOST      2 000008DE 00000001     H   11772 11768
 CONSQPDB      1 00000019 FFFFFFCE A   U    8649 12916
 CONSUPD       2 00000538 00000001     H   10414 10410
 CONS4072      1 00000000 00000001     R    1006  1004
 CPLAATTN      1 00000080 FFFFFFEC A   U    2561 12530  12588
 CPLABRK       1 00000010 FFFFFFEC A   U    2564 10646
 CPLBIA        1 00000020 FFFFFFEC A   U    2568 12513
 CRBRANCH      1 00000000 00000000 A   T    3529  3529
 CSRTABLE      1 00000000 00000000 A   T    3549  3549
 CSVARMGR      1 00000000 00000000 A   T    3597  3597
 CSVEXIT       1 00000000 00000000 A   T    3470  3470
 CSVLLCB       1 00000000 00000000 A   T    3070  3070
 CSVLLTRM      1 00000000 00000000 A   T    3071  3071
 CSVMEM        1 00000000 00000000 A   T    3298  3298
 CSVVFGET      1 00000000 00000000 A   T    3862  3862
 CSVVFIND      1 00000000 00000000 A   T    3860  3860
 CTRC         54 00000000 FFFFFFCD     J    8579 10084  10085  10511  10512
 CTRC#         1 00000019 FFFFFFCE A   U    8538 10510  10512
 CTRCCLCK      8 00000000 FFFFFFCD     D    8553  8558   8558   8560
 CTRCDATA      1 00000012 FFFFFFCD     U    8563  8566
 CTRCP        10 00000000 FFFFFFCD     X    8558 10215  10216  10515  10516
 CTRCP#        1 00000005 FFFFFFCE A   U    8539 10514  10516
 CV         1912 00000000 FFFFFFEE     X    1615  1164U
 CVBLANKS    256 00000141 FFFFFFEE     C    1316  9648  12033  12258  12562  13477  13505  13633  14063  14091  14141
                                                 14447  14475  14611  14639  14689
 CVCMECBP      1 00000034 FFFFFFEE     X    1179  9453M  9454M 11818  13541  14511
 CVCOMP        4 00000048 FFFFFFEE     A    1187  9398   9409  11838  13208  13651
 CVCURFEB      4 00000750 FFFFFFEE     A    1606  1613   1613
 CVDEFSYS      8 00000290 FFFFFFEE     C    1330 13114  13119
 CVDSECT       1 00000000 FFFFFFEE     J    1151  2379   2577   2705   2737   2843
 CVEBCTBL      4 000004A4 FFFFFFEE     V    1415 11039
 CVECB         4 00000038 FFFFFFEE     A    1181  1178
 CVFEBQH       4 0000029C FFFFFFEE     A    1333  8749
 CVFLAG        1 0000013C FFFFFFEE     R    1241  1245   1250   1255   1260   1265   1270   1275   1280
 CVFLAG2       1 0000013D FFFFFFEE     R    1286  1290   1295   1300   1305
 CVFTEST     128 0000013C FFFFFFEE         1245 15762
 CVFTIMER     64 0000013D FFFFFFEE         1295 16171M
 CVKSCB#       1 00000032 FFFFFFEE A   N    1204  1205   1206
1CONS     (CONS4072) (12:35) (15MAR04) Ordinary Symbol and Literal Cross Reference                                          Page   52
 CVMACH        1 0000013B FFFFFFEE     R    1216  1225   1235
 CVMFLAG       1 0000051C FFFFFFEE     R    1432  1436
 CVMJOBNM      8 000004C0 FFFFFFEE     X    1425 15626
 CVMSTART      8 000004B8 FFFFFFEE     D    1423  1477   1477
 CVPDBP        4 00000060 FFFFFFEE     A    1199  9663  12277  13167
 CVR          12 0000000C 00000001 A   #    1093  1164U
 CVSCNCB       4 000005B4 FFFFFFEE     F    1481  1492
 CVSTART       4 00000000 FFFFFFEE     C    1174  1615   1615
 CVT           1 00000000 FFFFFFE8     J    3040  9063U 12045U
 CVTBRET       2 00000052 FFFFFFE8     H    3095  3608   3687
 CVTCUCB       4 00000064 FFFFFFE8     V    3103  9069  12051
 CVTPTR        1 00000010 FFFFFFEE A   U    3036  9053  12035
 CVTRCRTN      4 00000724 FFFFFFEE     I    1590  1599B
 CVTVSTGX      1 00000000 FFFFFFE7     J    4060  3924
 CVTXTNT1      1 00000000 FFFFFFE6     J    4099  3267
 CVTXTNT2      1 00000000 FFFFFFE5     J    4107  3337
 CVT4MS1       1 00000010 FFFFFFE8 A   U    3120  3128
 CVT6DAT       1 00000002 FFFFFFE8 A   U    3124  3128
 CVWORK        8 00000248 FFFFFFEE     D    1318 12561M 12562M 12574
 CVWSG        60 000005D4 FFFFFFEE     X    1581  9220  11272  11296  11550  11594  11611  11693  12736  12780  12797
                                                 12879  13020  13056  13077  13099  13127  13145
 CVWSGBUF    235 00000610 FFFFFFEE     C    1583  1571   1577  15360
 CVWSGCOD      1 000005D4 FFFFFFEE     R    1498  1507   1517   1527   1537   1547   1557   1567
 CVWSGUSR      4 0000060C FFFFFFEE     A    1580  1582  11161  11469  11704M 11704  12655  12890M 12890  12946
 CVWTOECB      4 00000364 FFFFFFEE     F    1378 16051  16062  16279  16287M 16287
 CVWTOLK       4 0000035C FFFFFFEE     A    1375 15983M 16033  16038M 16300M 16357  16362M
 CVWTONO       4 00000350 FFFFFFEE     F    1372 15503  16030  16031M 16349  16351M
 CVWTOQH       4 00000354 FFFFFFEE     A    1373 16002M 16305  16319M
 CVWTOQT       4 00000358 FFFFFFEE     A    1374 15988  16024M 16341M 16341
 DEFPRT        1 00000000 00000003     T    9756  9756
 DFAIDTAB      1 00000000 00000000 A   T    3937  3937
 DOM           2 00001508 00000001     H   16124 16120
 DOMLIM        1 00000005 00000001 A   U   16580 16174  16551  16552M 16582  16610
 DOMTBL        4 00001660 00000001     A   16582 16173  16174  16528
 DOMUCMS       1 00000019 00000001 A   U   16581 16582  16601
 EBCTBL        1 00000000 00000000 A   T    1415  1415
 EBCTBL7       1 00000000 00000000 A   T    1418  1418
 EPARTBL       1 00000000 00000000 A   T    1410  1410
 FDB          16 00000000 FFFFFFEB     J    2704  9896U
 FDBCMAX       1 00000002 FFFFFFEE A   U    2588  9986   9986
 FDBF          4 00000000 FFFFFFEB     F    2669  2672   2677   2677   2680   2688   2688   2691   2692   2692   2695
                                                  2696   2696
 FDBFFLEN      2 0000000A FFFFFFEB     H    2675 10052M
 FDBFFTNO      2 00000008 FFFFFFEB     H    2674 10051M
 FDBFFTRC      1 0000000C FFFFFFEB     X    2676 10053
 FDBFPLEN      2 0000000E FFFFFFEB     H    2686 10182M
 FDBFPTNO      2 0000000C FFFFFFEB     H    2685 10181M
 FDBFPTRC      1 00000010 FFFFFFEB     X    2687 10184
 FDBF1        12 00000000 FFFFFFEB     X    2677 10050M 10050  10512
 FDBF2        16 00000000 FFFFFFEB     X    2688 10167M 10167  10516
 FDBPMAX       1 00000066 FFFFFFEE A   U    2592  9993   9993
 FDBT          4 00000000 FFFFFFEB     F    2603  2612   2612   2617   2617   2645   2645   2665   2665   2668
 FDBTDATA      1 00000004 FFFFFFEB     U    2608  2611   2615   2620   2648
 FDBTFCLS     16 00000004 FFFFFFEB         2642 10317  10317  10318
 FDBTFOPN     32 00000004 FFFFFFEB         2637 10283  10283  10284
 FDBTFSTP     64 00000004 FFFFFFEB         2632 10317  10317
 FDBTFSTR    128 00000004 FFFFFFEB         2627 10283  10283
 FDBT1         4 00000000 FFFFFFEB     X    2612 10509
 FDBT101       5 00000000 FFFFFFEB     X    2645 10517
1CONS     (CONS4072) (12:35) (15MAR04) Ordinary Symbol and Literal Cross Reference                                          Page   53
 FDBT101F      1 00000004 FFFFFFEB     R    2623  2627   2632   2637   2642
 FDBT102       7 00000000 FFFFFFEB     X    2665 10518
 FDBT102F      1 00000006 FFFFFFEB     R    2653  2657   2662
 FDBT2         6 00000000 FFFFFFEB     X    2617 10513
 FDBT2P        2 00000004 FFFFFFEB     H    2616 10133
 FEB         184 00000000 FFFFFFD2     J    8170  8749   8758U  8825   8839U  8871   8967U  9393U  9841U  9858  10608U
                                                 11814U 13432U 14266  14402U 14814
 FEBFCLS     128 00000071 FFFFFFD2         8126 10298  10298  10299M 10331  10331  10332M
 FEBFDOWN     32 00000071 FFFFFFD2         8136 10298  10298  10331  10331
 FEBFOPEN     64 0000000C FFFFFFD2         8074  9552M 14228  14776
 FEBFPS      128 00000070 FFFFFFD2         8106  8850M
 FEBGFLG       1 0000000C FFFFFFD2     R    8065  8069   8074
 FEBLINK       4 00000008 FFFFFFD2     A    8061  8749   8774
 FEBNAME       8 00000014 FFFFFFD2     C    8094  8844M 14169  14174  14717  14722
 FEBNIO        4 00000090 FFFFFFD2     F    8152 11320  11321M
 FEBPATP       4 00000098 FFFFFFD2     A    8156  9557  10155  11985  14864  14969
 FEBPFLG       1 00000070 FFFFFFD2     R    8102  8106   8111   8116
 FEBPFLG2      1 00000071 FFFFFFD2     R    8122  8126   8131   8136
 FEBPMAX       2 00000076 FFFFFFD2     H    8143  8851M  9555  10145  11968  14188  14736  14865
 FEBR         11 0000000B 00000001 A   #    1068  8749M  8758U  8774M  8775M  8775   8830M  8839U  8958M  8967U  9266
                                                  9384M  9393U  9832M  9841U 10599M 10608U 11805M 11814U 12028  13423M
                                                 13432U 14114  14393M 14402U 14662
 FEBTCONS      1 00000001 FFFFFFD2 A   U    8079  8793   8843
 FEBTRCP       4 0000009C FFFFFFD2     A    8158 10054  10061  10079  10098
 FEBTYPE       1 0000000D FFFFFFD2     X    8078  8793   8843M
 FEBUC         2 00000010 FFFFFFD2     H    8091  8154   8154
 FMBRANCH      1 00000000 00000000 A   T    3713  3713
 FMILASYN      1 00000050 FFFFFFEC A   U    2496 12508
 FMILREAD      1 00000042 FFFFFFEC A   U    2493 11462  12542
 FREECORE      1 00000000 0000000E     T   15303 15303  16602
 FREEPIB       1 00000000 0000000B     T   15298 15298
 FREESCB       1 00000000 0000000A     T   15297 15297
 FSR           2 00000002 00000001 A   #    1016  8706   8726   8900M  8932   8952   9331M  9358   9378   9738M  9806
                                                  9826  10394M 10421  10441  10486M 10547  10567  11749M 11779  11799
                                                 13297M 13326  13346  13368M 13397  13417  14339M 14367  14387  15277M
                                                 15391  15412  16105M 16131  16151  16234M
 GETFEB        1 00000000 00000002     T    9755  9755
 GETPIB        1 00000000 00000006     T    9761  9761  15308
 GETSCB        1 00000000 00000008     T    9763  9763  15309
 GLBRANCH      1 00000000 00000000 A   T    3619  3619
 GMBRANCH      1 00000000 00000000 A   T    3715  3715
 GOTUCM        4 00000142 00000001     I    9242  9047B  9170B
 GVT           1 00000000 00000000 A   T    3481  3481
 HIBAL         1 00000000 FFFFFFFF     J     698   714    727    740    753    766    779    792    805    818    831
                                                   844    857    870    883    896    909
 IARMPVT       1 00000000 00000000 A   T    3356  3356
 IARMRRCE      1 00000000 00000000 A   T    3901  3901
 IARPIBR       1 00000000 00000000 A   T    3871  3871
 IARPSIV       1 00000000 00000000 A   T    3695  3695
 IARPSXM       1 00000000 00000000 A   T    3844  3844
 IARXKEY       1 00000000 00000000 A   T    3802  3802
 IARXVIO       1 00000000 00000000 A   T    3696  3696
 ICYMMVTC      1 00000000 00000000 A   T    4127  4127
 IDA121CV      1 00000000 00000000 A   T    3634  3634
 IEABEND       1 00000000 00000000 A   T    3218  3218
 IEADQIQE      1 00000000 00000000 A   T    3614  3614
 IEAECVT       1 00000000 00000000 A   T    3143  3143
 IEAGSMQ       1 00000000 00000000 A   T    3591  3591
 IEAIHASU      1 00000000 00000000 A   T    3831  3831
1CONS     (CONS4072) (12:35) (15MAR04) Ordinary Symbol and Literal Cross Reference                                          Page   54
 IEALSMQ       1 00000000 00000000 A   T    3593  3593
 IEAMASCB      1 00000000 00000000 A   T    3561  3561   3565
 IEAPATCH      1 00000000 00000000 A   T    3226  3226
 IEAPDSRT      1 00000000 00000000 A   T    3489  3489
 IEAPTRV       1 00000000 00000000 A   T    3305  3305
 IEAQCDSR      1 00000000 00000000 A   T    3209  3209
 IEAQCS01      1 00000000 00000000 A   T    3601  3601
 IEAQLPAQ      1 00000000 00000000 A   T    3210  3210
 IEAQTD00      1 00000000 00000000 A   T    3106  3106
 IEAQTE00      1 00000000 00000000 A   T    3104  3104
 IEARPOST      1 00000000 00000000 A   T    3616  3616
 IEASMFEX      1 00000000 00000000 A   T    3493  3493
 IEASMFSP      1 00000000 00000000 A   T    3839  3839
 IEASPOST      1 00000000 00000000 A   T    3636  3636
 IEASVDCB      1 00000000 00000000 A   T    3097  3097
 IEATCBP       1 00000000 00000000 A   T    3047  3047
 IEATPC        1 00000000 00000000 A   T    3099  3099
 IEATRSCN      1 00000000 00000000 A   T    3457  3457
 IEAVAR02      1 00000000 00000000 A   T    3541  3541
 IEAVBLDP      1 00000000 00000000 A   T    3525  3525
 IEAVDELP      1 00000000 00000000 A   T    3528  3528
 IEAVEAC0      1 00000000 00000000 A   T    3618  3618
 IEAVEADV      1 00000000 00000000 A   T    3776  3776
 IEAVEDR1      1 00000000 00000000 A   T    3661  3661
 IEAVELRM      1 00000000 00000000 A   T    3610  3610
 IEAVENLU      1 00000000 00000000 A   T    3957  3957
 IEAVENQ2      1 00000000 00000000 A   T    3607  3607
 IEAVEQV1      1 00000000 00000000 A   T    3764  3764
 IEAVEQV2      1 00000000 00000000 A   T    3767  3767
 IEAVEQV3      1 00000000 00000000 A   T    3770  3770
 IEAVERI1      1 00000000 00000000 A   T    3663  3663
 IEAVERP1      1 00000000 00000000 A   T    3665  3665
 IEAVERX1      1 00000000 00000000 A   T    3853  3853
 IEAVESC1      1 00000000 00000000 A   T    3792  3792
 IEAVESPR      1 00000000 00000000 A   T    3721  3721
 IEAVESTU      1 00000000 00000000 A   T    3955  3955
 IEAVESVT      1 00000000 00000000 A   T    3727  3727
 IEAVET6E      1 00000000 00000000 A   T    3827  3827
 IEAVEVT2      1 00000000 00000000 A   T    3781  3781
 IEAVEXPR      1 00000000 00000000 A   T    3589  3589
 IEAVEXP1      1 00000000 00000000 A   T    3758  3758
 IEAVFRCL      1 00000000 00000000 A   T    3527  3527
 IEAVGSDA      1 00000000 00000000 A   T    3772  3772
 IEAVGTCL      1 00000000 00000000 A   T    3526  3526
 IEAVGWSA      1 00000000 00000000 A   T    3621  3621
 IEAVLKRM      1 00000000 00000000 A   T    3328  3328
 IEAVMFRM      1 00000000 00000000 A   T    3706  3706
 IEAVMSGS      1 00000000 00000000 A   T    3275  3275
 IEAVNVT0      1 00000000 00000000 A   T    3940  3940
 IEAVRSUH      1 00000000 00000000 A   T    3819  3819
 IEAVRT03      1 00000000 00000000 A   T    3433  3433
 IEAVSPND      1 00000000 00000000 A   T    3829  3829
 IEAVSTAG      1 00000000 00000000 A   T    3569  3569
 IEAVTCTL      1 00000000 00000000 A   T    3821  3821
 IEAVTEST      1 00000000 00000000 A   T    3332  3332
 IEAVTRGR      1 00000000 00000000 A   T    3629  3629
 IEAVTRG1      1 00000000 00000000 A   T    3078  3078
 IEAVTRV3      1 00000000 00000000 A   T    3325  3325
 IEAVTSBP      1 00000000 00000000 A   T    3575  3575
1CONS     (CONS4072) (12:35) (15MAR04) Ordinary Symbol and Literal Cross Reference                                          Page   55
 IEAVTSFR      1 00000000 00000000 A   T    3296  3296
 IEAVTSGL      1 00000000 00000000 A   T    3573  3573
 IEAVVMSR      1 00000000 00000000 A   T    3354  3354
 IEAVWAIT      1 00000000 00000000 A   T    3596  3596
 IEAVWSAC      1 00000000 00000000 A   T    3627  3627
 IEAVWSAG      1 00000000 00000000 A   T    3625  3625
 IEAVWSAL      1 00000000 00000000 A   T    3623  3623
 IEAVXEXT      1 00000000 00000000 A   T    3704  3704
 IEAVXSFT      1 00000000 00000000 A   T    3671  3671
 IEAVXSTN      1 00000000 00000000 A   T    3677  3677
 IEAVXSTS      1 00000000 00000000 A   T    3675  3675
 IEAVXUNN      1 00000000 00000000 A   T    3700  3700
 IEAVXUNS      1 00000000 00000000 A   T    3679  3679
 IEAWTCB       1 00000000 00000000 A   T    3736  3736
 IEA0DS        1 00000000 00000000 A   T    3142  3142
 IEA0EF00      1 00000000 00000000 A   T    3048  3048
 IEA0EF01      1 00000000 00000000 A   T    3088  3088
 IEA0PT0E      1 00000000 00000000 A   T    3808  3808
 IEA0PT01      1 00000000 00000000 A   T    3149  3149
 IEA0PT02      1 00000000 00000000 A   T    3733  3733   6181
 IEA0PT03      1 00000000 00000000 A   T    3810  3810
 IEA0VL00      1 00000000 00000000 A   T    3059  3059
 IEA0VL01      1 00000000 00000000 A   T    3466  3466
 IECIXAVL      1 00000000 00000000 A   T    3134  3134
 IECPCNVT      1 00000000 00000000 A   T    3062  3062
 IECPRLTV      1 00000000 00000000 A   T    3066  3066
 IECVEXCL      1 00000000 00000000 A   T    3698  3698
 IECXAPG       1 00000000 00000000 A   T    3057  3057
 IECXITP       1 00000000 00000000 A   T    3087  3087
 IECXTLER      1 00000000 00000000 A   T    3073  3073
 IEC0SCR1      1 00000000 00000000 A   T    3232  3232
 IEECUCB       1 00000000 00000000 A   T    3103  3103
 IEEMSER       1 00000000 00000000 A   T    3081  3081   3147
 IEEVEXSN      1 00000000 00000000 A   T    3436  3436
 IEEVSTOP      1 00000000 00000000 A   T    3746  3746
 IEFAQTOP      1 00000000 00000000 A   T    3553  3553
 IEFAUSDM      1 00000000 00000000 A   T    3053  3053
 IEFENFDM      1 00000000 00000000 A   T    3212  3212
 IEFJESCT      1 00000000 00000000 A   T    3312  3312
 IEFLINK       1 00000000 00000000 A   T    3050  3050
 IEFQMWR       1 00000000 00000000 A   T    3163  3163
 IEWFBOSV      1 00000000 00000000 A   T    3140  3140
 IEWMSEPT      1 00000000 00000000 A   T    3645  3645
 IFBDCB        1 00000000 00000000 A   T    3129  3129
 IFDOLT0A      1 00000000 00000000 A   T    3491  3491
 IFGDEBVR      1 00000000 00000000 A   T    4122  4122
 IGC043BR      1 00000000 00000000 A   T    3537  3537
 IGC044R2      1 00000000 00000000 A   T    3647  3647
 IGC062R1      1 00000000 00000000 A   T    3617  3617
 IGC07903      1 00000000 00000000 A   T    3762  3762
 IGC124        1 00000000 00000000 A   T    3778  3778
 IGFRVT        1 00000000 00000000 A   T    3227  3227
 IGVCPBDB      1 00000000 00000000 A   T    3893  3893
 IGVCPDLB      1 00000000 00000000 A   T    3895  3895
 IGVCPFRE      1 00000000 00000000 A   T    3885  3885
 IGVCPGTC      1 00000000 00000000 A   T    3883  3883
 IGVCPGUB      1 00000000 00000000 A   T    3877  3877
 IGVCPGUP      1 00000000 00000000 A   T    3880  3880
 IGVCPGUS      1 00000000 00000000 A   T    3903  3903
1CONS     (CONS4072) (12:35) (15MAR04) Ordinary Symbol and Literal Cross Reference                                          Page   56
 IGVGCAS       1 00000000 00000000 A   T    3531  3531
 IGVGFAS       1 00000000 00000000 A   T    3535  3535
 IGVGRRGN      1 00000000 00000000 A   T    3907  3907
 IGVGVRGN      1 00000000 00000000 A   T    3909  3909
 IGVQSPET      1 00000000 00000000 A   T    3533  3533
 IGVSLIST      1 00000000 00000000 A   T    3887  3887
 IGVSLOC       1 00000000 00000000 A   T    3891  3891
 IGVSREGN      1 00000000 00000000 A   T    3889  3889
 IGVSTSKI      1 00000000 00000000 A   T    3874  3874
 ILRJTERM      1 00000000 00000000 A   T    3816  3816
 IOSVDEVN      1 00000000 00000000 A   T    3833  3833
 IOSVHID       1 00000000 00000000 A   T    3843  3843
 IOSVSUCB      1 00000000 00000000 A   T    3846  3846
 IRARMCNS      1 00000000 00000000 A   T    3587  3587
 IRARMEPS      1 00000000 00000000 A   T    3805  3805
 IRARMI00      1 00000000 00000000 A   T    3544  3544
 ISNBRNCH      1 00000000 00000000 A   T    3702  3702
 LOWTBL        1 00000000 00000000 A   T    1413  1413
 LSR          11 0000000B 00000001 A   #    1080  8706   8726   8900M  8932   8952   9331M  9358   9378   9738M  9806
                                                  9826  10394M 10421  10441  10486M 10547  10567  11749M 11779  11799
                                                 13297M 13326  13346  13368M 13397  13417  14339M 14367  14387  15277M
                                                 15391  15412  16105M 16131  16151  16234M
 MILCONS       1 00000000 00000001     J     997   999   1024   1037   1050   1063   1076   1088   1101   1123   1136
                                                  8041   8171   8380   8402   8681
 MODBDWAT      1 00000020 FFFFFFEC A   U    2510 11191
 MODCNECH      1 00000004 FFFFFFEC A   U    2522 11657  12843
 MODDTRAN      1 00000020 FFFFFFEC A   U    2528 10773
 NBLTBL        1 00000000 00000000 A   T    1417  1417
 NGETCORE      1 00000000 00000012     T   15313 15313  16596
 NPARTBL       1 00000000 00000000 A   T    1411  1411
 PDB          56 00000000 FFFFFFEC     J    2576  9673U  9881U 10622U 11711  12287U 12517  12893  12932  13177U
 PDBBYT1       1 0000000E FFFFFFEC     X    2415  2447
 PDBBYT2       1 0000000F FFFFFFEC     X    2416  2453
 PDBCMD        1 00000006 FFFFFFEC     X    2402 10639  10645M 10683  11335  11367  11462  12508M 12542M
 PDBCMDFL      1 00000007 FFFFFFEC     X    2403  2439   2439   2445
 PDBCPLA       1 0000000C FFFFFFEC     X    2412 10646M 12532M 12590M
 PDBCPLB       1 0000000D FFFFFFEC     X    2413 10654M 12515M
 PDBHDR       56 00000000 FFFFFFEC     X    2440  9683M  9683   9769  10512  10516  12297M 12297  12595  13187M 13187
                                                 15323
 PDBINCT       2 00000030 FFFFFFEC     H    2433  2437   2437  10659M 10659
 PDBLENG       2 00000000 FFFFFFEC     H    2396  9684M 10107M 10246M 10647M 11348M 11628  12298M 12596M 12814  12915
                                                 12931  13188M
 PDBLIN#       2 00000004 FFFFFFEC     H    2401 12299M
 PDBMODB       1 00000009 FFFFFFEC     X    2407 11193
 PDBMODD       1 0000000B FFFFFFEC     X    2409 10775
 PDBOPT       49 00000007 FFFFFFEC     X    2439 11347M 11347
 PDBOUTCT      2 0000002E FFFFFFEC     H    2432 10751  11055M 11098M
 PDBSINP       4 00000010 FFFFFFEC     A    2418  2419
 PDBSTRT       4 00000000 FFFFFFEC     F    2395  2440   2440
 PDBTEXT       1 00000038 FFFFFFEC     C    2441  9886  10750  11624  12623M 12810
 PDBVPGM       8 00000014 FFFFFFEC     C    2421  2427   2427
 PDBWC         2 00000032 FFFFFFEC     H    2434 10035  10124  10263  10355  10664M 10664
 PIB         172 00000000 FFFFFFD1     J    8379  9242   9256U  9600U  9604  10176U 10595U 11999U 12014  12222  14909U
 PIBDFACT      5 00000021 FFFFFFD1     X    8206  9269M 12032M
 PIBFEBP       4 00000008 FFFFFFD1     A    8190  9266M 10599  12028M
 PIBFLAG       1 00000064 FFFFFFD1     R    8223  8227   8232   8237   8242   8247
 PIBFLAG2      1 00000065 FFFFFFD1     R    8253  8257   8262   8267   8272
 PIBFLAG3      1 00000066 FFFFFFD1     R    8278  8282   8287   8292   8297   8302   8307
 PIBFLAG4      1 00000067 FFFFFFD1     R    8313  8317   8322   8327
1CONS     (CONS4072) (12:35) (15MAR04) Ordinary Symbol and Literal Cross Reference                                          Page   57
 PIBFLAG5      1 00000068 FFFFFFD1     R    8333  8337   8342   8347
 PIBFPS      128 00000066 FFFFFFD1         8282  9265M 12027M
 PIBFPTID     64 00000066 FFFFFFD1         8287  9277M
 PIBGFLG       1 00000018 FFFFFFD1     R    8196  8200
 PIBINFO      20 0000003C FFFFFFD1     C    8218  9642M  9642   9649   9649  11513  11531M 11531  12252M 12252  12259
                                                 12259  12699  12717M 12717
 PIBNAME       8 00000034 FFFFFFD1     C    8217  8352   8352   9270M 11563  12033M 12084M 12174M 12749  15022
 PIBNIO        4 0000007C FFFFFFD1     F    8359 11314  11315M
 PIBNO         2 00000004 FFFFFFD1     H    8188  9278M 11241  12031M 12088  12131  12999
 PIBPDBCT      4 000000A0 FFFFFFD1     A    8370 11396  11398M 12435  12437M 12939  12940M 13037  13065
 PIBPDBQH      4 000000A4 FFFFFFD1     A    8371  9267  11378  11399M 11410M 11410  11417  12029  12426  12438M 12449M
                                                 12449  12456
 PIBPDBQT      4 000000A8 FFFFFFD1     A    8372  9268M 11418M 12030M 12457M 12941  12942M
 PIBR         10 0000000A 00000001 A   #    1055  9247M  9256U  9298   9579M  9580M  9580   9600U 10155M 10158M 10159M
                                                 10159  10176U 10586M 10595U 10731  10739M 10739  11989M 11990M 11990
                                                 11999U 12019M 12020  14894M 14895M 14895  14909U 14935
 PIBSCBP       4 0000000C FFFFFFD1     A    8191 10702  10725M 12197  15049
 PIBTID        8 00000019 FFFFFFD1     C    8204  9271M 12085M 12175M
 PIBTRCP       4 00000090 FFFFFFD1     A    8366 10185  10192  10210  10229
 PIBUC         2 00000030 FFFFFFD1     H    8214  8364   8364
 PMSG         20 000008CA 00000001     C   11757 11096  11096  11097
 PORTPRT       1 00000000 00000007     T    9762  9762
 RAR          14 0000000E 00000001 A   #    1128  1592B  1602B  8703   8828M  8829M  8829B  8868M  8869M  8869B  8902M
                                                  8906B  8929   9002M  9003M  9003B  9223M  9224M  9224B  9245M  9246M
                                                  9246B  9295M  9296M  9296B  9333M  9337B  9355   9608M  9609M  9609B
                                                  9688M  9689M  9689B  9740M  9744B  9803   9901M  9913   9930   9937M
                                                  9942M  9943M  9944M  9944   9945B  9962   9972M  9972   9977M  9978M
                                                  9978   9979B 10396M 10400B 10418  10488M 10492B 10544  10728M 10729M
                                                 10729B 10734M 10735M 10735B 11275M 11276M 11276B 11299M 11300M 11300B
                                                 11447M 11448M 11448B 11553M 11554M 11554B 11597M 11598M 11598B 11614M
                                                 11615M 11615B 11696M 11697M 11697B 11714M 11715M 11715B 11751M 11755B
                                                 11776  11923M 11924M 11924B 12017M 12018M 12018B 12226M 12227M 12227B
                                                 12464M 12465M 12465B 12520M 12521M 12521B 12739M 12740M 12740B 12783M
                                                 12784M 12784B 12800M 12801M 12801B 12882M 12883M 12883B 12896M 12897M
                                                 12897B 12920M 12921M 12921B 13023M 13024M 13024B 13059M 13060M 13060B
                                                 13080M 13081M 13081B 13102M 13103M 13103B 13130M 13131M 13131B 13148M
                                                 13149M 13149B 13192M 13193M 13193B 13299M 13303B 13323  13370M 13374B
                                                 13394  13465M 13466M 13466B 13493M 13494M 13494B 13521M 13522M 13522B
                                                 13539M 13540M 13540B 13562M 13563M 13563B 13594M 13595M 13595B 13620M
                                                 13621M 13621B 13649M 13650M 13650B 13724M 13725M 13725B 13739M 13740M
                                                 13740B 13766M 13767M 13767B 13782M 13783M 13783B 13877M 13878M 13878B
                                                 13908M 13909M 13909B 13932M 13933M 13933B 13954M 13955M 13955B 13969M
                                                 13970M 13970B 13993M 13994M 13994B 14008M 14009M 14009B 14030M 14031M
                                                 14031B 14079M 14080M 14080B 14107M 14108M 14108B 14130M 14131M 14131B
                                                 14157M 14158M 14158B 14183M 14184M 14184B 14201M 14202M 14202B 14217M
                                                 14218M 14218B 14249M 14250M 14250B 14287M 14288M 14288B 14313M 14314M
                                                 14314B 14341M 14345B 14364  14435M 14436M 14436B 14463M 14464M 14464B
                                                 14491M 14492M 14492B 14509M 14510M 14510B 14532M 14533M 14533B 14564M
                                                 14565M 14565B 14590M 14591M 14591B 14627M 14628M 14628B 14655M 14656M
                                                 14656B 14678M 14679M 14679B 14705M 14706M 14706B 14731M 14732M 14732B
                                                 14749M 14750M 14750B 14765M 14766M 14766B 14797M 14798M 14798B 14835M
                                                 14836M 14836B 14861M 14862M 14862B 14929M 14930M 14930B 14951M 14952M
                                                 14952B 14966M 14967M 14967B 14988M 14989M 14989B 15010M 15011M 15011B
                                                 15038M 15039M 15039B 15082M 15083M 15083B 15107M 15108M 15108B 15122M
                                                 15123M 15123B 15147M 15148M 15148B 15183M 15184M 15184B 15202M 15203M
                                                 15203B 15237M 15238M 15238B 15279M 15283B 15388  15940M 15941M 15941B
                                                 16107M 16111B 16128  16236M 16240B 16271M 16272M 16272B 16561M 16562M
                                                 16562B
 RMBRANCH      1 00000000 00000000 A   T    3712  3712
1CONS     (CONS4072) (12:35) (15MAR04) Ordinary Symbol and Literal Cross Reference                                          Page   58
 R0            0 00000000 FFFFFFFF A   #     706  1593M  1594M  1595   1597M  1598   8802M  8825M  9016   9212M  9228M
                                                  9237M  9242M  9605M  9901  11221M 11222M 11222  11235M 11240  11251M
                                                 11252M 11288M 11288  11441M 11442M 11443M 11520M 11542M 11570M 11603M
                                                 11628M 11629M 11632  11644M 11669M 11920M 11920  12014M 12223M 12706M
                                                 12728M 12756M 12789M 12814M 12815M 12818  12830M 12855M 12914M 12915M
                                                 12932M 12934M 12979M 12980M 12980  12993M 12998  13012M 13048M 13069M
                                                 13069  13091M 13119M 13137M 13224M 13456M 13484M 13512M 13530M 13553M
                                                 13585M 13611M 13611  13640M 13715M 13730M 13757M 13773M 13787M 13787
                                                 13810M 13837M 13850M 13850  13899M 13923M 13923  13945M 13960M 13984M
                                                 13999M 14021M 14021  14070M 14098M 14121M 14148M 14174M 14192M 14192
                                                 14208M 14240M 14278M 14304M 14304  14426M 14454M 14482M 14500M 14523M
                                                 14555M 14581M 14581  14618M 14646M 14669M 14696M 14722M 14740M 14740
                                                 14756M 14788M 14826M 14852M 14852  14920M 14942M 14957M 14979M 14979
                                                 15001M 15001  15029M 15073M 15098M 15113M 15138M 15174M 15193M 15193
                                                 15228M 15228  15482M 15482  15660  15832  15866M 15872  15935M 16397M
 R1            1 00000001 FFFFFFFF A   #     719  8801M  8830   8858M  8871M  8958   8992M  8992   9093M  9111U  9188M
                                                  9207M  9227M  9236M  9247   9285M  9298M  9384   9452M  9453   9604M
                                                  9610   9685M  9832  10447  10573  10716M 10731M 10792M 10809  10858
                                                 10859  10860  10902  10968  10969  10970  11012  11041  11048M 11048
                                                 11054M 11055  11056  11120M 11252  11444M 11513M 11541M 11563M 11602M
                                                 11624M 11668M 11710M 11805  12019  12103M 12105  12222M 12228  12426M
                                                 12427M 12427  12516M 12699M 12727M 12749M 12788M 12810M 12854M 12892M
                                                 12916M 12922  12933M 13011M 13047M 13065M 13090M 13114M 13136M 13189M
                                                 13423  13455M 13477M 13505M 13529M 13546M 13584M 13633M 13708M 13729M
                                                 13749M 13772M 13809M 13836M 13898M 13918M 13959M 13980M 13998M 14063M
                                                 14091M 14114M 14141M 14169M 14188M 14207M 14239M 14277M 14393  14425M
                                                 14447M 14475M 14499M 14516M 14554M 14611M 14639M 14662M 14689M 14717M
                                                 14736M 14755M 14787M 14825M 14935M 14956M 14975M 15022M 15072M 15093M
                                                 15112M 15133M 15173M 15189M 15865M 15936M 16002  16019  16024  16194M
                                                 16195M 16195  16398M 16460  16531M 16532M 16532  16558M
 R13          13 0000000D FFFFFFFF A   #     875 15423U
 R14          14 0000000E FFFFFFFF A   #     888 10859M 10878M 10969M 10988M 11039M 11040M 11040  11041  11430M 11434M
                                                 11442  11443M 12930M 12934M 15831M 15831  15833M 15842M 15842  15959M
                                                 15964M 15972  15973M
 R15          15 0000000F FFFFFFFF A   #     901  1590M  1591M  1591   1593   1598M  1601M  1601   8732   8803M  8865M
                                                  8875M  8875   8905M  8905   8971   8999M  9053M  9063U  9069M  9087U
                                                  9116M  9126U  9220M  9229M  9267M  9268   9292M  9302M  9302   9336M
                                                  9336   9439M  9439   9524M  9524   9555M  9556M  9559   9663M  9673U
                                                  9743M  9743   9871   9997M 10002M 10007M 10016M 10016  10133M 10145
                                                 10154M 10158  10399M 10399  10491M 10491  10612  10861M 10862M 10871M
                                                 10871  10877  10971M 10972M 10981M 10981  10987  11037M 11040  11095M
                                                 11161M 11171U 11272M 11296M 11313M 11314M 11315  11319M 11320M 11321
                                                 11396M 11397M 11398  11417M 11418  11469M 11479U 11550M 11594M 11611M
                                                 11693M 11711M 11754M 11754  11818M 11838M 11848U 11983M 11984M 11986
                                                 12029M 12030  12035M 12045U 12051M 12069U 12088M 12089M 12089  12102M
                                                 12104  12140M 12150U 12301M 12335M 12435M 12436M 12437  12456M 12457
                                                 12517M 12560M 12595M 12596  12655M 12665U 12736M 12780M 12797M 12879M
                                                 12893M 12931M 12933  12938M 12939M 12940  12941M 12946M 12956U 13020M
                                                 13056M 13077M 13099M 13127M 13145M 13167M 13177U 13208M 13218U 13246M
                                                 13246  13302M 13302  13373M 13373  13436  13462M 13490M 13518M 13536M
                                                 13559M 13591M 13617M 13646M 13721M 13736M 13763M 13779M 13874M 13905M
                                                 13929M 13951M 13966M 13990M 14005M 14027M 14076M 14104M 14127M 14154M
                                                 14180M 14198M 14214M 14246M 14284M 14310M 14344M 14344  14406  14432M
                                                 14460M 14488M 14506M 14529M 14561M 14587M 14624M 14652M 14675M 14702M
                                                 14728M 14746M 14762M 14794M 14832M 14858M 14926M 14948M 14963M 14968M
                                                 14969M 14970M 14975  14985M 15007M 15035M 15079M 15104M 15119M 15144M
                                                 15180M 15199M 15234M 15282M 15282  15427  15660M 15680  15682M 15690M
                                                 15699M 15699  15706  15726M 15728  15832M 15849M 15854  15872M 15876
                                                 15878M 15882M 15891M 15891  15898  15917M 15918  15933M 15934  16029M
1CONS     (CONS4072) (12:35) (15MAR04) Ordinary Symbol and Literal Cross Reference                                          Page   59
                                                 16030M 16031  16110M 16110  16239M 16239  16349M 16350M 16351  16481M
                                                 16502M 16502  16518  16527M 16528
 R2            2 00000002 FFFFFFFF A   #     732  9188  10053M 10085M 10184M 10216M 10751M 10786M 10786  10803M 10803
                                                 10839  10861  10884M 10949  10971  10994M 11047M 11056M 11095  11097M
                                                 11098  11114M 11114  11133M 11133  11155M 11303M 11378M 11379M 11379
                                                 11444  11985M 11986M 12075M 12103  12104M 12300M 12301  12314M 12314
                                                 12337M 12356  12377M 12395  12536M 12536  12554  12560  12583M 12600M
                                                 12609M 12609  12616  12917M 12922M 12942  12943  13541M 14511M 15162M
                                                 15189  15727M 15728M 15729  15730M 15833  15865  15866  15876  15878
                                                 15937M 15971M 15972M 15973M 15981M 15981  15983M 15988M 15989M 15989
                                                 16033M 16038M 16298M 16298  16300M 16357M 16362M 16460M 16552
 R3            3 00000003 FFFFFFFF A   #     745  9093M 10054M 10061M 10071  10078M 10079M 10098  10185M 10192M 10202
                                                 10209M 10210M 10229  10750M 10792  11054  11120  11153M 11251  11301M
                                                 11955M 11968  11978M 11978  11983  12031  12075M 12105M 12115U 15827M
                                                 15920M 15982M 15983  16037M 16037  16038  16299M 16300  16318M 16319
                                                 16328M 16328  16361M 16361  16362  16528M
 R4            4 00000004 FFFFFFFF A   #     758 10071  10202  10860M 10878M 10970M 10988M 16305M 16306M 16306  16373M
                                                 16373  16558
 R5            5 00000005 FFFFFFFF A   #     771  9558M  9571   9709M 10054M 10078  10185M 10209  10877M 10987M 13672M
                                                 13685M 13685  13700U 13708  14033M 14864M 14867  14879  14968  15248M
                                                 15581M 15627M 15648M 15655M 15725M 15725  15727  15802M 15827  15855M
                                                 15921M 15921  15934M 15964
 R6            6 00000006 FFFFFFFF A   #     784  9046M  9046   9153M  9278   9468M  9484U  9511   9557M  9558   9559M
                                                  9571   9886M  9896U 12277M 12287U 13651M 13661U 14865M 14866M 14867M
                                                 14879  15441M 15451U 16173M 16186  16215M
 R7            7 00000007 FFFFFFFF A   #     797  8732M  8742U  8971M  8981U  9398M  9407   9409M  9419U  9871M  9881U
                                                 10612M 10622U 11866M 11894U 13234  13436M 13446U 13462  13490  13518
                                                 13536  13559  13591  13617  13646  13721  13736  13763  13779  13874
                                                 13905  13929  13951  13966  13990  14005  14027  14076  14104  14127
                                                 14154  14180  14198  14214  14246  14284  14310  14406M 14416U 14432
                                                 14460  14488  14506  14529  14561  14587  14624  14652  14675  14702
                                                 14728  14746  14762  14794  14832  14858  14926  14948  14963  14985
                                                 15007  15035  15079  15104  15119  15144  15180  15199  15234  15427M
                                                 15437U 16174M 16186  16383M 16391U
 SCAN          1 00000000 00000004     T    9757  9757
 SCANCB       32 00000000 FFFFFFEA     J    2736  8742U  8981U
 SCB         434 00000000 FFFFFFED     J    2378  9605   9619U  9685  10456U 10582U 11710  12207U 12223  12516  12892
                                                 13189  15064U
 SCBACCT       5 00000124 FFFFFFED     C    1970  2133   2133
 SCBACLCK      8 000000E8 FFFFFFED     D    1812  1814   1814
 SCBAFLAG      1 000000CC FFFFFFED     R    1769  1773   1778   1783   1788
 SCBANO        2 00000129 FFFFFFED     X    1973 15162
 SCBBFLAG      1 000000CD FFFFFFED     R    1794  1798
 SCBCMD        1 000000B3 FFFFFFED     X    1734 12502  12648
 SCBCRI        2 000001A4 FFFFFFED     H    2360  2365   2365
 SCBFLG        1 00000168 FFFFFFED     R    2248  2252   2257   2262   2267   2272   2277   2282   2287
 SCBFLG2       1 00000169 FFFFFFED     R    2293  2297   2302   2307
 SCBFNTIM     16 0000015E FFFFFFED         2201  9659M 10465M 12269M
 SCBGRP        2 00000127 FFFFFFED     C    1972 15093  15098
 SCBHEIP       2 0000018A FFFFFFED     H    2347  9661M 10467M 12271M
 SCBKAFL       1 0000012F FFFFFFED     R    2104  2108   2113   2118   2123   2128
 SCBKIFL       1 0000012E FFFFFFED     R    2059  2063   2068   2073   2078   2083   2088   2093   2098
 SCBMODC       1 000000B6 FFFFFFED     X    1739 11659  12845
 SCBNAME      20 00000136 FFFFFFED     C    2140  9648M  9649M 12258M 12259M
 SCBNO         2 000000F8 FFFFFFED     H    1820 12299
 SCBOFLAG      1 00000186 FFFFFFED     R    2318  2322   2327   2332   2337   2342
 SCBOPST       4 00000134 FFFFFFED     F    2138  2367   2367
 SCBPIBP       4 00000008 FFFFFFED     A    1633 10586
 SCBQFLG       1 0000015C FFFFFFED     R    2167  2171
1CONS     (CONS4072) (12:35) (15MAR04) Ordinary Symbol and Literal Cross Reference                                          Page   60
 SCBR          9 00000009 00000001 A   #    1042  9610M  9619U 10447M 10456U 10573M 10582U 10702  10716  10720M 10720
                                                 12197M 12198M 12198  12207U 12228M 15049M 15050M 15050  15064U
 SCBSFLG       1 0000012B FFFFFFED     R    1977  1981   1986   1991   1996   2001   2006
 SCBSFNAR     64 0000012B FFFFFFED         1986  9630   9630  12238  12238  12240  12240
 SCBSFNAT    128 0000012B FFFFFFED         1981 12238  12238  12239  12239  12241M
 SCBSFPS      32 0000012B FFFFFFED         1991  9630   9630   9631M 12239  12239  12240  12240
 SCBSTART      4 000000F4 FFFFFFED     F    1818  1822   1822   2134   2134   2239   2239
 SCBSTAT       1 000000FF FFFFFFED     R    1914  1918   1923   1928   1933   1938   1943   1948
 SCBSUBP       4 0000000C FFFFFFED     A    1634 12481M 12481  13161M 13161
 SCBTACF       1 0000012C FFFFFFED     R    2012  2016   2021   2026   2031   2036   2041   2046   2051
 SCBTFAIO     32 000000B0 FFFFFFED         1670 11086
 SCBTFLAG      1 0000015A FFFFFFED     R    2145  2149   2154   2159
 SCBTFLG       1 000000B0 FFFFFFED     R    1656  1660   1665   1670   1675   1680   1685
 SCBTFLG2      1 000000B1 FFFFFFED     R    1691  1695   1700   1705   1710   1715
 SCBTFLG3      1 000000B8 FFFFFFED     R    1744  1748   1753
 SCBTFPP      64 000000B1 FFFFFFED         1700 11071
 SCBTYPE       1 000000FC FFFFFFED     R    1827  1836   1846   1856   1866   1876   1886   1896   1906
 SCBUFLG       1 0000015E FFFFFFED     R    2182  2186   2191   2196   2201   2206   2211   2216   2221
 SCBUFLG2      1 0000015F FFFFFFED     R    2227  2231   2236
 SCBUSER       3 00000124 FFFFFFED     C    1971 15133  15138
 SCBVPGM       8 0000010C FFFFFFED     C    1960  1966   1966
 SCBWID        2 00000188 FFFFFFED     H    2346  9660M 10466M 11221  12270M 12979
 SCBXFLG       1 000000B2 FFFFFFED     R    1721  1725   1730
 SCB1ST        4 000000FC FFFFFFED     F    1824  2369   2369
 SCNCB         4 00000000 FFFFFFEA     F    2718  2729
 SCNKW         8 00000004 FFFFFFEA     C    2720  9167   9207   9212   9270   9271
 SEG           1 00000000 0000000F     T   15304 15304
 SEGB          1 00000000 00000014     T   15316 15316
 SEGCB        60 00000000 FFFFFFE9     J    2842 13446U 14416U 15437U
 SEGCBCOD      1 00000000 FFFFFFE9     R    2753  2762   2772   2782   2792   2802   2812   2822
 SEGCBUSR      4 00000038 FFFFFFE9     A    2835 15441
 SEGCBWR       2 00000000 FFFFFFE9         2772 15465
 SEGCOL        1 00000000 00000016     T   15320 15320
 SEGDC         1 00000000 00000013     T   15315 15315
 SEGHX         1 00000000 00000015     T   15318 15318
 SEGT          1 00000000 0000000C     T   15301 15301
 SEGTB         1 00000000 00000005     T    9759  9759  15321
 SEGWR         1 00000000 0000000D     T   15302 15302
 SHUTDOWN      1 00000000 00000011     T   15307 15307
 SPR          13 0000000D 00000001 A   #    1106  8703   8706   8722M  8724   8724   8725   8725   8726   8897M  8897
                                                  8900   8902   8904   8904   8929   8932   8948M  8950   8950   8951
                                                  8951   8952   9328M  9328   9331   9333   9335   9335   9355   9358
                                                  9374M  9376   9376   9377   9377   9378   9735M  9735   9738   9740
                                                  9742   9742   9803   9806   9822M  9824   9824   9825   9825   9826
                                                 10391M 10391  10394  10396  10398  10398  10418  10421  10437M 10439
                                                 10439  10440  10440  10441  10483M 10483  10486  10488  10490  10490
                                                 10544  10547  10563M 10565  10565  10566  10566  10567  11746M 11746
                                                 11749  11751  11753  11753  11776  11779  11795M 11797  11797  11798
                                                 11798  11799  13294M 13294  13297  13299  13301  13301  13323  13326
                                                 13342M 13344  13344  13345  13345  13346  13365M 13365  13368  13370
                                                 13372  13372  13394  13397  13413M 13415  13415  13416  13416  13417
                                                 14336M 14336  14339  14341  14343  14343  14364  14367  14383M 14385
                                                 14385  14386  14386  14387  15274M 15274  15277  15279  15281  15281
                                                 15388  15391  15408M 15410  15410  15411  15411  15412  16101M 16101
                                                 16105  16107  16109  16109  16128  16131  16147M 16149  16149  16150
                                                 16150  16151  16231M 16231  16234  16236  16238  16238  16265M 16266M
                                                 16267  16267
 SRTEASCI      1 00000004 FFFFFFE4 A   U    5137  5138
 SRTEBSTR      1 00000004 FFFFFFE4 A   U    5136  5139
1CONS     (CONS4072) (12:35) (15MAR04) Ordinary Symbol and Literal Cross Reference                                          Page   61
 SUBSEND       1 00000000 00000010     T   15306 15306
 SUBSTART      1 00000000 00000009     T    9765  9765  15317
 TMILBRK       1 00000050 FFFFFFEC A   U    2478 10639
 TMILEOS       1 00000040 FFFFFFEC A   U    2464 10683
 TMILREAD      1 00000042 FFFFFFEC A   U    2468 10645  11367  12502  12648
 TMILWRIT      1 00000041 FFFFFFEC A   U    2467 11335
 UCB           4 00000000 FFFFFFE4     X    5833  9126U 12150U
 UCBALOC       1 00000008 FFFFFFE4 A   U    4679  4866
 UCBBALB       1 00000020 FFFFFFE4 A   U    5052  5133
 UCBBNUL       1 00000001 FFFFFFE4 A   U    5061  5140
 UCBBPRV       1 00000010 FFFFFFE4 A   U    5054  5134
 UCBBPUB       1 00000008 FFFFFFE4 A   U    5055  5135
 UCBBSTR       1 00000004 FFFFFFE4 A   U    5056  5136   5137
 UCBBSVL       1 00000080 FFFFFFE4 A   U    5038  5132
 UCBCHGS       1 00000040 FFFFFFE4 A   U    4669  4863
 UCBDADI       1 00000001 FFFFFFE4 A   U    4693  4869
 UCBDEV        1 00000018 FFFFFFE4     U    4877  5033   5259   5419   5435   5643   5665   5757   5787
 UCBDMCT       1 00000023 FFFFFFE4     X    5070  5141
 UCBDSECT      1 00000000 FFFFFFE4     J    4177  5032   5258   5418   5642   5756   5786
 UCBFLA        1 00000006 FFFFFFE4     B    4705  4706
 UCBFL1        1 00000006 FFFFFFE4     U    4706  4870
 UCBFSCT       2 00000018 FFFFFFE4     H    5260  5264
 UCBFSEQ       2 0000001A FFFFFFE4     H    5261  5265
 UCBID         1 00000002 FFFFFFE4     X    4653  9142  12165
 UCBJBNR       1 00000000 FFFFFFE4     B    4600  4859
 UCBMONT       1 00000001 FFFFFFE4 A   U    4621  4860
 UCBNAME       3 0000000D FFFFFFE4     C    4791  9167  12174  12175
 UCBNRY        1 00000040 FFFFFFE4 A   U    4710  4711
 UCBOB         4 00000000 FFFFFFE4     F    4594  5833
 UCBONLI       1 00000080 FFFFFFE4 A   U    4668  4862
 UCBPRES       1 00000004 FFFFFFE4 A   U    4689  4867
 UCBRESV       1 00000020 FFFFFFE4 A   U    4674  4864
 UCBSTAB       1 00000022 FFFFFFE4     B    5037  5131
 UCBSTAT       1 00000003 FFFFFFE4     B    4667  4861
 UCBSYSR       1 00000002 FFFFFFE4 A   U    4691  4868
 UCBTR         1 00000034 FFFFFFE4     G    5333  5335
 UCBUNLD       1 00000010 FFFFFFE4 A   U    4676  4865
 UCBUSER       2 00000026 FFFFFFE4     G    5111  5112
 UCBVOLI       6 0000001C FFFFFFE4     C    5036  5130
 UCM           1 00000000 FFFFFFDB     J    6326  9087U 12069U
 UCMAECB       4 00000004 FFFFFFDB     F    6331  6541
 UCMDECB       4 0000000C FFFFFFDB     F    6333  6543
 UCMEFEXT      1 00000000 FFFFFFD5     J    7186  7257
 UCMEIL        1 00000000 FFFFFFDA     J    6534  6337
 UCMEND        1 00000000 FFFFFFD9     U    6721  6423
 UCMEPEXT      1 00000000 FFFFFFD4     J    7267  7337
 UCMESIZE      1 00000050 FFFFFFD9 A   U    6720  6422   6721
 UCMFSAVE      1 00000000 FFFFFFD7     J    6910  6930
 UCMID         1 0000001A FFFFFFD9     C    6604  9153  12131
 UCMLIST       1 00000000 FFFFFFD9     J    6566  6421   6720   9111U 12115U
 UCMLOOP       4 000000F4 00000001     I    9116  9188B
 UCMOECB       4 00000008 FFFFFFDB     F    6332  6542
 UCMSP51X      1 00000008 FFFFFFDB A   U    6403  6404
 UCMUCB        4 0000000C FFFFFFD9     A    6582  9116  12140
 UCMUECB       4 00000010 FFFFFFDB     F    6335  6544
 UCMVDATA     12 00000048 FFFFFFDB     C    6420  9093  12075
 UCMVRID       1 00000008 FFFFFFDB A   U    6404  6395
 UCMXECB       4 00000000 FFFFFFDB     F    6330  6540
 UCM3WD        4 00000070 FFFFFFDC     A    6270  6268
1CONS     (CONS4072) (12:35) (15MAR04) Ordinary Symbol and Literal Cross Reference                                          Page   62
 UPPTBL        1 00000000 00000000 A   T    1412  1412
 WPLLTF        2 00000000 FFFFFFD3     B    7821  7834
 WPLRF         1 00000000 FFFFFFD3     J    7658  7671   7686   7733   7816   7844   7875
 WPX           1 00000000 FFFFFFD3     U    7877  8035
 WPXS603       1 00000004 FFFFFFD3 A   U    7882  7883
 WTO           2 00001576 00000001     I   16252 16249
 WTOAREA     491 00000000 FFFFFFCB     C   15360 15580M 15581  15726  15729M 15790M 15825M 15933  15971
 WTOCBFAC    128 00000000 FFFFFFCC         8597 11205M 15741  16470
 WTOCBFID     32 00000000 FFFFFFCC         8607 11217  11217  12975  12975  15608  15608  15609  15784  16492
 WTOCBFJL     64 00000000 FFFFFFCC         8602 11496M 12682M 15560  15560  15561  15608  15608  16408
 WTOCBFLG      1 00000000 FFFFFFCC     R    8593  8597   8602   8607   8612   8617
 WTOCBFNP      8 00000000 FFFFFFCC         8617 15591
 WTOCBFW      16 00000000 FFFFFFCC         8612 11217  11217  11218M 12975  12975  12976M 15524  15560  15560  15574M
                                                 15624M 15670  15813
 WTOCBUCM      1 00000001 FFFFFFCC     X    8621 11241M 12999M 16397
 WTOCBUSR      4 00000000 FFFFFFCC     J    8630 11171U 11182M 11182  11479U 11490M 11490  12665U 12676M 12676  12956U
                                                 12967M 12967  15451U 15951  16075M 16075  16391U
 WTOCBWID      2 00000002 FFFFFFCC     H    8623 11240M 12998M 15537M 15537  15543M 15680  15682
 WTOGETC       2 00001482 00000001     H   15943 15937
 WTOLOCK       2 0000159A 00000001     H   16296 16301B
 WTOLOOP       2 0000159A 00000001     H   16290 16563B
 WTOQSUBP      1 0000000B FFFFFFCE A   U    8635 15936
 WTOSEG        2 000012F2 00000001     H   15383 15379
 WTOSTK      512 00001854 00000001     X   16584 16599  16609
 WTOSTLP       2 0000149C 00000001     H   15979 15984B
 WTOSULP       4 000014D0 00000001     I   16033 16039B
 WTOUNLK       4 000015D0 00000001     I   16357 16363B
 WTOWA       491 00000000 FFFFFFCB     J   15367 15410M 15423U 16105  16107  16108  16603
 WTOWAIT       4 0000158A 00000001     I   16277 16376B
 =A(CCTLMAX)
               4 00000580 00000001     A   10503  9962
 =A(CCTLPMAX)
               4 0000057C 00000001     A   10502  9930
 =A(DOMUCMS)
               4 00001A7C 00000001     A   16601 16518
 =A(WTOSTK)
               4 00001A74 00000001     A   16599 16265
 =A(0)         4 00001220 00000001     A   15305 11632  11644  12818  12830
 =A(1)         4 00001238 00000001     A   15311 12356  12395
 =A(100)       4 00000578 00000001     A   10501  9913
 =A(2)         4 00001208 00000001     A   15299 10839  10949
 =A(3)         4 00000320 00000001     A    9758  9016
 =A(50)        4 00001A6C 00000001     A   16597 16160
 =A(6)         4 0000123C 00000001     A   15312 12554
 =AL2(CTRC#)
               2 00000592 00000001     R   10510 10051
 =AL2(CTRCP#)
               2 0000059A 00000001     R   10514 10181
 =AL2(DOMLIM*4)
               2 00001A92 00000001     R   16610 16527
 =AL2(L'CTRC)
               2 00000594 00000001     R   10511 10052
 =AL2(L'CTRCP)
               2 0000059C 00000001     R   10515 10182
 =AL2(L'FDBT1)
               2 00000590 00000001     R   10509 10035
 =AL2(L'FDBT101)
               2 000005A0 00000001     R   10517 10263
 =AL2(L'FDBT102)
1CONS     (CONS4072) (12:35) (15MAR04) Ordinary Symbol and Literal Cross Reference                                          Page   63
               2 000005A2 00000001     R   10518 10355
 =AL2(L'FDBT2)
               2 00000598 00000001     R   10513 10124
 =AL2(L'PDBHDR+L'FDBF1+CTRC#*L'CTRC)
               2 00000596 00000001     R   10512 10107
 =AL2(L'PDBHDR+L'FDBF2+CTRCP#*L'CTRCP)
               2 0000059E 00000001     R   10516 10246
 =AL2(L'PDBHDR)
               2 0000035E 00000001     R    9769  9684
 =AL2(L'PDBHDR)
               2 00001266 00000001     R   15323 10647  11348  11629  12298  12815  13188
 =AL4(1)       4 00001244 00000001     R   15314 13037
 =AL4(50)      4 00001A58 00000001     R   16592 15503
 =C'  CIB (UCMID='
              13 000012C0 00000001     C   15338 13729
 =C' *** '
               5 00001A94 00000001     C   16611 15654
 =C' -- POSTED'
              10 00001274 00000001     C   15328 13584  14554
 =C' #'        2 00001272 00000001     C   15327 13047
 =C' PORT#'
               6 00001292 00000001     C   15331 14956
 =C' PORTS '
               7 000012D3 00000001     C   15341 14207  14755
 =C'.'         1 000012EA 00000001     C   15344 15112
 =C'<ATTN>'
               6 0000126A 00000001     C   15325 12574
 =C'(Input queued'
              13 000012A5 00000001     C   15335 13011
 =C'(NOECHO)'
               8 000011C8 00000001     C   15292 11668  12854
 =C'** INVALID **'
              13 000012DD 00000001     C   15343 14277  14825
 =C'** NOT-OPEN **'
              14 00001284 00000001     C   15330 14239  14787
 =C'*** '      4 00001A5C 00000001     C   16593 15625
 =C')'         1 000012BF 00000001     C   15337 13136  13772
 =C'--Waiting for'
              13 000012B2 00000001     C   15336 13090
 =C':  '       3 0000129D 00000001     C   15333 11602  12788
 =C'#'         1 000012EB 00000001     C   15345 15173
 =C'"'         1 000012D2 00000001     C   15340 13959  13998
 =C'is not a console -- ignored'
              27 00000363 00000001     C    9771  9227
 =C'CONS-'
               5 00001298 00000001     C   15332 11541  12727
 =C'CONSOLE front-end already defined -- ignored'
              44 000002E8 00000001     C    9754  8801
 =C'CONSOLE SUPPORT:'
              16 000011D8 00000001     C   15294 13455  14425
 =C'FEB'       3 000005A6 00000001     C   10520  9858
 =C'FEB'       3 000012DA 00000001     C   15342 14266  14814
 =C'Missing console unit address'
              28 00000328 00000001     C    9760  9236
 =C'MODIFY'
               6 0000127E 00000001     C   15329 13809
 =C'OPRGR'
               5 0000037E 00000001     C    9772  9269
 =C'OPRGR'
1CONS     (CONS4072) (12:35) (15MAR04) Ordinary Symbol and Literal Cross Reference                                          Page   64
               5 000012A0 00000001     C   15334 12032
 =C'SESSION:'
               8 000011F8 00000001     C   15296 15072
 =C'STOP/MODIFY ECB='
              16 000011E8 00000001     C   15295 13529  14499
 =C'STOP'      4 00001258 00000001     C   15319 13836
 =C'VERB='
               5 000012CD 00000001     C   15339 13898
 =C'000'       3 00000360 00000001     C    9770  9036
 =CL8'CONSOLE'
               8 000002E0 00000001     C    9753  8844
 =CL8'000'
               8 000011D0 00000001     C   15293 12084  12085
 =F'-1'        4 00001A70 00000001     F   16598 16210
 =F'2'         4 0000120C 00000001     F   15300 10862  10972
 =H'-4'        2 0000058E 00000001     H   10508 10002
 =H'-8'        2 0000058C 00000001     H   10507  9997
 =H'100'       2 0000058A 00000001     H   10506  9942
 =H'19,20'
               2 00000350 00000001     H    9764  9661
 =H'19,20'
               2 00000584 00000001     H   10504 10467
 =H'19,20'
               2 00001234 00000001     H   15310 12271
 =H'4'         2 00001A8A 00000001     H   16606 15730
 =H'6'         2 00001270 00000001     H   15326 12583
 =H'60'        2 0000035C 00000001     H    9768  9660
 =H'60'        2 000005A4 00000001     H   10519 10466
 =H'60'        2 00001268 00000001     H   15324 12270
 =H'60'        2 00001A86 00000001     H   16604 15543
 =H'64'        2 0000035A 00000001     H    9767  8851
 =V(AMODE31)
               4 00001A78 00000001     V   16600 16271
 =V(DEFPRT)
               4 00000318 00000001     V    9756  8858
 =V(FREECORE)
               4 00001218 00000001     V   15303 11447  12464
 =V(FREECORE)
               4 00001A80 00000001     V   16602 16561
 =V(FREEPIB)
               4 00001204 00000001     V   15298 10734
 =V(FREESCB)
               4 00001200 00000001     V   15297 10728
 =V(GETFEB)
               4 00000314 00000001     V    9755  8828
 =V(GETPIB)
               4 00000344 00000001     V    9761  9245
 =V(GETPIB)
               4 0000122C 00000001     V   15308 12017
 =V(GETSCB)
               4 0000034C 00000001     V    9763  9608
 =V(GETSCB)
               4 00001230 00000001     V   15309 12226
 =V(NGETCORE)
               4 00001240 00000001     V   15313 12920
 =V(NGETCORE)
               4 00001A68 00000001     V   16596 15940
 =V(PORTPRT)
               4 00000348 00000001     V    9762  9285
1CONS     (CONS4072) (12:35) (15MAR04) Ordinary Symbol and Literal Cross Reference                                          Page   65
 =V(SCAN)      4 0000031C 00000001     V    9757  8868   9002   9295
 =V(SEG)       4 0000121C 00000001     V   15304 11553  11614  12739  12800  13023  13059  13539  13594  13739  13908
                                                 13969  13993  14008  14157  14509  14564  14705  14966  15107  15122
                                                 15147  15183
 =V(SEGB)      4 0000124C 00000001     V   15316 13102  13782  13877  14217  14249  14287  14765  14797  14835  15010
                                                 15038  15082
 =V(SEGCOL)
               4 0000125C 00000001     V   15320 13954  14929
 =V(SEGDC)
               4 00001248 00000001     V   15315 13080  13766  14201  14749  14988  15202
 =V(SEGHX)
               4 00001254 00000001     V   15318 13562  13724  13932  14130  14532  14678  14951
 =V(SEGT)      4 00001210 00000001     V   15301 11275  11597  12783  13130
 =V(SEGTB)
               4 00000324 00000001     V    9759  9223
 =V(SEGTB)
               4 00001260 00000001     V   15321 14183  14731
 =V(SEGWR)
               4 00001214 00000001     V   15302 11299  11696  12882  13148  13465  13493  13521  13620  13649  14030
                                                 14079  14107  14313  14435  14463  14491  14590  14627  14655  14861
                                                 15237
 =V(SHUTDOWN)
               4 00001228 00000001     V   15307 11923
 =V(SUBSEND)
               4 00001224 00000001     V   15306 11714  12520  12896
 =V(SUBSTART)
               4 00000354 00000001     V    9765  9688
 =V(SUBSTART)
               4 00001250 00000001     V   15317 13192
 =X'00000020'
               4 00001A64 00000001     X   16595 15769
 =X'00004000'
               4 00001A60 00000001     X   16594 15731
 =X'2000'      2 00001A8C 00000001     X   16607 15919
 =X'200000'
               3 00001A99 00000001     X   16612 15826
 =X'8000'      2 00001A88 00000001     X   16605 15580
 =Y(L'WTOSTK-@@)
               2 00001A90 00000001     Y   16609 16266
 =Y(0+4+40+((L'WTOWA+3)/4*4)+4)
               2 00001A84 00000001     Y   16603 15408
 =Y(0+4+40+4)
               2 00000358 00000001     Y    9766  8722   8948   9374
 =Y(0+4+40+4)
               2 00000588 00000001     Y   10505  9822  10437
 =Y(0+4+40+4)
               2 00001264 00000001     Y   15322 10563  11795  13342  13413  14383
 =Y(0+4+40+4)
               2 00001A8E 00000001     Y   16608 16147

1CONS     (CONS4072) (12:35) (15MAR04) Macro and Copy Code Source Summary                                                   Page   66
- Con Source                                        Volume    Members                        HLASM R4.0  2004/03/15 12.35
0     PRIMARY INPUT                                           CSECT    DROP     END      EX       LTORG    POP
                                                              PRINT    PUSH     START    USING
   L1 WYL.GS.MIL.MILTEN.MACLIB                      SYSB05    CV       FAIL     FEB      PEND     PIB      POP      PROC
                                                              PUSH     REG      SCAN     SCANCB   SCB      STKDEF
                                                              STKINIT  SUBPOOLS XPROC
   L2 WYL.GG.SYS.MACLIB                             SYSB05    $BC      $BFLKUP  $BV      $CCLKUP  $CRS     $CSS     $L
                                                              $LA      $LBLAD   $LEXP    $LOR     $REL     $RGLKUP
                                                              $USLKUP  BASE     BEGIN    CEIL     CLEAR    CSECT    DATA
                                                              DECR     DEFCC    DROP     DTEX     ELSE     ELSEIF   END
                                                              EX       EXIT     FLAG     FLOOR    GEN      HIBAL
                                                              IDENT    IF       INCR     LABEL    LC       LCM      LOOP
                                                              LS       LT       LTH      LTORG    L2       L3       MOVE
                                                              MOVEL    PRINT    QLTORG   RECORD   REGS     SET
                                                              SETMSG   START    ST3      SYSLR    UNTIL    USING
                                                              VCALL    WHILE    WITH
   L3 SYS3.IS.MACLIB                                SYSB05    CONSTRC  FDB      MIB      PDB      SEG      SEGB
                                                              SEGCB    SEGCOL   SEGDC    SEGDEF   SEGHX    SEGLD    SEGT
                                                              SEGTB    SEGWR    SIB      SYSDEFN
   L4 SYS3.MACLIB                                   SYSB02    HASPSERV
   L5 SYS1.MACLIB                                   MVSBR9    CVT      DOM      EXTRACT  IEFUCBOB IEZCIB   IHBINNRA POST
                                                              QEDIT    SPLEVEL  STIMER   SYSSTATE WAIT     WTO
   L6 SYS1.MODGEN                                   MVSBR9    IECDUCBC IECDUCBD IECDUCBE IECDUCBG IECDUCBT IECDUCBU
                                                              IEECUCM  IEZBITS  IEZWPL   IOSDUCBC

1CONS     (CONS4072) (12:35) (15MAR04) Dsect Cross Reference                                                                Page   67
-Dsect     Length      Id       Defn                                                         HLASM R4.0  2004/03/15 12.35
0$$$@R0   00000000  FFFFFFFE     712
 $$$@R1   00000000  FFFFFFFD     725
 $$$@R10  00000000  FFFFFFF4     842
 $$$@R11  00000000  FFFFFFF3     855
 $$$@R12  00000000  FFFFFFF2     868
 $$$@R13  0000004C  FFFFFFF1     881
 $$$@R14  00000000  FFFFFFF0     894
 $$$@R15  00000000  FFFFFFEF     907
 $$$@R2   00000000  FFFFFFFC     738
 $$$@R3   00000000  FFFFFFFB     751
 $$$@R4   00000000  FFFFFFFA     764
 $$$@R5   00000000  FFFFFFF9     777
 $$$@R6   00000000  FFFFFFF8     790
 $$$@R7   00000000  FFFFFFF7     803
 $$$@R8   00000000  FFFFFFF6     816
 $$$@R9   00000000  FFFFFFF5     829
 $$$RCOM  00000008  FFFFFFD0    8385
 $$$RCTRC 00000036  FFFFFFCD    8547
 $$$RFDB  00000010  FFFFFFEB    2596
 $$$RFEB  000000B8  FFFFFFD2    8046
 $$$RPDB  00000038  FFFFFFEC    2384
 $$$RPIB  000000AC  FFFFFFD1    8176
 $$$RSCANCB
          00000020  FFFFFFEA    2710
 $$$RSCB  000001B2  FFFFFFED    1619
 $$$RSEGCB
          0000003C  FFFFFFE9    2742
 $$$RWTOCBUSR
          00000004  FFFFFFCC    8585
 $$$RWTOWA
          000001EB  FFFFFFCB   15354
 CIB      00000018  FFFFFFCF    8405
 CIBX     00000030  FFFFFFCE    8509
 CVDSECT  00000778  FFFFFFEE    1151
 CVT      00000500  FFFFFFE8    3040
 CVTVSTGX 00000050  FFFFFFE7    4060
 CVTXTNT1 0000000C  FFFFFFE6    4099
 CVTXTNT2 00000084  FFFFFFE5    4107
 HIBAL    00000000  FFFFFFFF     698
 UCBCMEXT 00000020  FFFFFFE3    4896
 UCBDSECT 00000040  FFFFFFE4    4177
 UCBOCR   00000008  FFFFFFE2    5452
 UCBPDCTA 00000010  FFFFFFDE    5603
 UCBUCS   00000014  FFFFFFDF    5561
 UCB3540X 00000008  FFFFFFE1    5468
 UCB3800X 00000028  FFFFFFE0    5498
 UCM      00000170  FFFFFFDB    6326
 UCMEFEXT 0000004C  FFFFFFD5    7186
 UCMEIL   00000020  FFFFFFDA    6534
 UCMEPEXT 00000118  FFFFFFD4    7267
 UCMFEXTA 00000154  FFFFFFD8    6730
 UCMFSAVE 00000048  FFFFFFD7    6910
 UCMLIST  00000050  FFFFFFD9    6566
 UCMPEXTA 00000278  FFFFFFD6    6939
 UCMPRFX  000000A8  FFFFFFDC    6206
1CONS     (CONS4072) (12:35) (15MAR04) Dsect Cross Reference                                                                Page   68
 UCM2EXT  00000018  FFFFFFDD    6178
 WPLRF    00000082  FFFFFFD3    7658

1CONS     (CONS4072) (12:35) (15MAR04) Using Map                                                                            Page   69
-                                                                                            HLASM R4.0  2004/03/15 12.35
   Stmt  -----Location----- Action ----------------Using----------------- Reg Max    Last  Label and Using Text
           Count      Id           Type          Value    Range     Id        Disp   Stmt
0   929  00000000  FFFFFFFF USING  ORDINARY    00000000 00001000 FFFFFFEF  15 000    1600  @R15,15
    933  00000000  FFFFFFFF USING  ORDINARY    00000000 00001000 FFFFFFF0  14 000          @R14,14
    937  00000000  FFFFFFFF USING  ORDINARY    00000000 00001000 FFFFFFF1  13 000          @R13,13
    941  00000000  FFFFFFFF USING  ORDINARY    00000000 00001000 FFFFFFF2  12 000          @R12,12
    945  00000000  FFFFFFFF USING  ORDINARY    00000000 00001000 FFFFFFF3  11 000          @R11,11
    949  00000000  FFFFFFFF USING  ORDINARY    00000000 00001000 FFFFFFF4  10 000          @R10,10
    953  00000000  FFFFFFFF USING  ORDINARY    00000000 00001000 FFFFFFF5   9 000          @R9,9
    957  00000000  FFFFFFFF USING  ORDINARY    00000000 00001000 FFFFFFF6   8 000          @R8,8
    961  00000000  FFFFFFFF USING  ORDINARY    00000000 00001000 FFFFFFF7   7 000          @R7,7
    965  00000000  FFFFFFFF USING  ORDINARY    00000000 00001000 FFFFFFF8   6 000          @R6,6
    969  00000000  FFFFFFFF USING  ORDINARY    00000000 00001000 FFFFFFF9   5 004    9709  @R5,5
    973  00000000  FFFFFFFF USING  ORDINARY    00000000 00001000 FFFFFFFA   4 008   16481  @R4,4
    977  00000000  FFFFFFFF USING  ORDINARY    00000000 00001000 FFFFFFFB   3 001   11301  @R3,3
    981  00000000  FFFFFFFF USING  ORDINARY    00000000 00001000 FFFFFFFC   2 038   14544  @R2,2
    985  00000000  FFFFFFFF USING  ORDINARY    00000000 00001000 FFFFFFFD   1 00C    9036  @R1,1
    989  00000000  FFFFFFFF USING  ORDINARY    00000000 00001000 FFFFFFFE   0 000          @R0,0
    990  00000000  FFFFFFFF DROP                                            0              0
   1164  00000000  FFFFFFEE USING  ORDINARY    00000000 00001000 FFFFFFEE  12 73E   16362  CV,CVR
   8718  00000022  00000001 USING  ORDINARY    00000022 00001000 00000001   8 338    8868  $$$27B,BR
   8742  00000034  00000001 USING  ORDINARY    00000000 00001000 FFFFFFEA   7 000          SCANCB,R7
   8758  00000038  00000001 USING  ORDINARY    00000000 00001000 FFFFFFD2  11 00D    8793  FEB,FEBR
   8822  0000005E  00000001 USING  ORDINARY    00000000 00001000 FFFFFFF3  11 000          @R11,11
   8839  0000006A  00000001 USING  ORDINARY    00000000 00001000 FFFFFFD2  11 076    8871  FEB,FEBR
   8883  00000090  00000001 USING  ORDINARY    00000000 00001000 FFFFFFF3  11 000          @R11,11
   8888  00000090  00000001 USING  ORDINARY    00000000 00001000 FFFFFFF7   7 000          @R7,7
   8893  00000090  00000001 USING  ORDINARY    00000000 00001000 FFFFFFF6   8 000          @R8,8
   8944  000000AE  00000001 USING  ORDINARY    000000AE 00001000 00000001   8 2D0    9295  $$$33B,BR
   8967  000000C0  00000001 USING  ORDINARY    00000000 00001000 FFFFFFD2  11 000          FEB,FEBR
   8981  000000C2  00000001 USING  ORDINARY    00000000 00001000 FFFFFFEA   7 004    9271  SCANCB,R7
   9063  000000EC  00000001 USING  ORDINARY    00000000 00001000 FFFFFFE8  15 064    9069  CVT,R15
   9076  000000F0  00000001 USING  ORDINARY    00000000 00001000 FFFFFFEF  15 000          @R15,15
   9087  000000F0  00000001 USING  ORDINARY    00000000 00001000 FFFFFFDB  15 048    9093  UCM,R15
   9100  000000F4  00000001 USING  ORDINARY    00000000 00001000 FFFFFFEF  15 000          @R15,15
   9111  000000F4  00000001 USING  ORDINARY    00000000 00001000 FFFFFFD9   1 01A    9153  UCMLIST,R1
   9126  000000F8  00000001 USING  ORDINARY    00000000 00001000 FFFFFFE4  15 00D    9167  UCB,R15
   9150  00000100  00000001 DROP                                            6              6
   9154  00000106  00000001 USING  ORDINARY    00000000 00001000 FFFFFFF8   6 000          @R6,6
   9186  00000110  00000001 USING  ORDINARY    00000000 00001000 FFFFFFEF  15 000          @R15,15
   9195  00000114  00000001 USING  ORDINARY    00000000 00001000 FFFFFFFD   1 004   12930  @R1,1
   9256  0000014E  00000001 USING  ORDINARY    00000000 00001000 FFFFFFD1  10 0A8    9278  PIB,PIBR
   9309  00000188  00000001 USING  ORDINARY    00000000 00001000 FFFFFFF4  10 000          @R10,10
   9314  00000188  00000001 USING  ORDINARY    00000000 00001000 FFFFFFF7   7 000          @R7,7
   9319  00000188  00000001 USING  ORDINARY    00000000 00001000 FFFFFFF3  11 000          @R11,11
   9324  00000188  00000001 USING  ORDINARY    00000000 00001000 FFFFFFF6   8 000          @R8,8
   9370  000001A6  00000001 USING  ORDINARY    000001A6 00001000 00000001   8 1B8    9713  $$$40B,BR
   9393  000001B8  00000001 USING  ORDINARY    00000000 00001000 FFFFFFD2  11 098    9557  FEB,FEBR
   9419  000001D6  00000001 USING  ORDINARY    00000000 00001000 FFFFFFD0   7 005    9512  COM,R7
   9465  00000210  00000001 DROP                                            6              6
   9469  00000216  00000001 USING  ORDINARY    00000000 00001000 FFFFFFF8   6 000          @R6,6
   9484  0000021A  00000001 USING  ORDINARY    00000000 00001000 FFFFFFCF   6 004    9500  CIB,R6
   9542  0000024A  00000001 USING  ORDINARY    00000000 00001000 FFFFFFF8   6 000    9559  @R6,6
   9600  00000270  00000001 USING  ORDINARY    00000000 00001000 FFFFFFD1  10 03C    9649  PIB,PIBR
   9619  00000280  00000001 USING  ORDINARY    00000000 00001000 FFFFFFED   9 18A    9685  SCB,SCBR
1CONS     (CONS4072) (12:35) (15MAR04) Using Map                                                                            Page   70
   9673  000002AE  00000001 USING  ORDINARY    00000000 00001000 FFFFFFEC  15 000    9684  PDB,R15
   9695  000002C4  00000001 USING  ORDINARY    00000000 00001000 FFFFFFEF  15 000          @R15,15
   9700  000002C4  00000001 USING  ORDINARY    00000000 00001000 FFFFFFF5   9 000          @R9,9
   9705  000002C4  00000001 USING  ORDINARY    00000000 00001000 FFFFFFF4  10 000   10158  @R10,10
   9721  000002CC  00000001 USING  ORDINARY    00000000 00001000 FFFFFFF7   7 000          @R7,7
   9726  000002CC  00000001 USING  ORDINARY    00000000 00001000 FFFFFFF3  11 000          @R11,11
   9731  000002CC  00000001 USING  ORDINARY    00000000 00001000 FFFFFFF6   8 000          @R8,8
   9818  0000038E  00000001 USING  ORDINARY    0000038E 00001000 00000001   8 218   10364  $$$53B,BR
   9841  000003A0  00000001 USING  ORDINARY    00000000 00001000 FFFFFFD2  11 0A0   10332  FEB,FEBR
   9881  000003B6  00000001 USING  ORDINARY    00000000 00001000 FFFFFFEC   7 038   10355  PDB,R7
   9896  000003BA  00000001 USING  ORDINARY    00000000 00001000 FFFFFFEB   6 010   10318  FDB,R6
  10176  000004A8  00000001 USING  ORDINARY    00000000 00001000 FFFFFFD1  10 094   10229  PIB,PIBR
  10244  000004DE  00000001 USING  ORDINARY    00000000 00001000 FFFFFFF4  10 000          @R10,10
  10372  00000524  00000001 USING  ORDINARY    00000000 00001000 FFFFFFF8   6 000          @R6,6
  10377  00000524  00000001 USING  ORDINARY    00000000 00001000 FFFFFFF7   7 000          @R7,7
  10382  00000524  00000001 USING  ORDINARY    00000000 00001000 FFFFFFF3  11 000          @R11,11
  10387  00000524  00000001 USING  ORDINARY    00000000 00001000 FFFFFFF6   8 000          @R8,8
  10433  00000542  00000001 USING  ORDINARY    00000542 00001000 00000001   8 062   10467  $$$76B,BR
  10456  00000554  00000001 USING  ORDINARY    00000000 00001000 FFFFFFED   9 18A   10467  SCB,SCBR
  10474  00000564  00000001 USING  ORDINARY    00000000 00001000 FFFFFFF5   9 000          @R9,9
  10479  00000564  00000001 USING  ORDINARY    00000000 00001000 FFFFFFF6   8 000          @R8,8
  10559  000005B4  00000001 USING  ORDINARY    000005B4 00001000 00000001   8 CE9   11714  $$$79B,BR
  10582  000005C6  00000001 USING  ORDINARY    00000000 00001000 FFFFFFED   9 188   11710  SCB,SCBR
  10595  000005CA  00000001 USING  ORDINARY    00000000 00001000 FFFFFFD1  10 0A8   11563  PIB,PIBR
  10608  000005CE  00000001 USING  ORDINARY    00000000 00001000 FFFFFFD2  11 090   11321  FEB,FEBR
  10622  000005D0  00000001 USING  ORDINARY    00000000 00001000 FFFFFFEC   7 038   11711  PDB,R7
  11034  000006DA  00000001 DROP                                           15              15
  11038  000006E0  00000001 USING  ORDINARY    00000000 00001000 FFFFFFEF  15 000   11096  @R15,15
  11171  00000746  00000001 USING  ORDINARY    00000000 00001000 FFFFFFCC  15 002   11241  WTOCBUSR,R15
  11248  00000774  00000001 USING  ORDINARY    00000000 00001000 FFFFFFEF  15 000          @R15,15
  11479  0000081E  00000001 USING  ORDINARY    00000000 00001000 FFFFFFCC  15 000   11496  WTOCBUSR,R15
  11503  00000828  00000001 USING  ORDINARY    00000000 00001000 FFFFFFEF  15 000   11829  @R15,15
  11722  000008B6  00000001 USING  ORDINARY    00000000 00001000 FFFFFFF7   7 000          @R7,7
  11727  000008B6  00000001 USING  ORDINARY    00000000 00001000 FFFFFFF3  11 000          @R11,11
  11732  000008B6  00000001 USING  ORDINARY    00000000 00001000 FFFFFFF4  10 000          @R10,10
  11737  000008B6  00000001 USING  ORDINARY    00000000 00001000 FFFFFFF5   9 000          @R9,9
  11742  000008B6  00000001 USING  ORDINARY    00000000 00001000 FFFFFFF6   8 000          @R8,8
  11791  000008E8  00000001 USING  ORDINARY    000008E8 00001000 00000001   8 A04   13247  $$$123B,BR
  11814  000008FA  00000001 USING  ORDINARY    00000000 00001000 FFFFFFD2  11 098   11985  FEB,FEBR
  11848  0000090A  00000001 USING  ORDINARY    00000000 00001000 FFFFFFD0  15 005   11866  COM,R15
  11863  0000090A  00000001 DROP                                            7              7
  11867  00000910  00000001 USING  ORDINARY    00000000 00001000 FFFFFFF7   7 000          @R7,7
  11882  00000914  00000001 USING  ORDINARY    00000000 00001000 FFFFFFEF  15 000          @R15,15
  11894  00000914  00000001 USING  ORDINARY    00000000 00001000 FFFFFFCF   7 010   12623  CIB,R7
  11952  0000092C  00000001 DROP                                            3              3
  11956  00000932  00000001 USING  ORDINARY    00000000 00001000 FFFFFFFB   3 000          @R3,3
  11999  00000950  00000001 USING  ORDINARY    00000000 00001000 FFFFFFD1  10 0A8   13065  PIB,PIBR
  12045  00000988  00000001 USING  ORDINARY    00000000 00001000 FFFFFFE8  15 064   12051  CVT,R15
  12058  0000098C  00000001 USING  ORDINARY    00000000 00001000 FFFFFFEF  15 000          @R15,15
  12069  0000098C  00000001 USING  ORDINARY    00000000 00001000 FFFFFFDB  15 048   12075  UCM,R15
  12082  00000990  00000001 USING  ORDINARY    00000000 00001000 FFFFFFEF  15 000          @R15,15
  12115  000009AE  00000001 USING  ORDINARY    00000000 00001000 FFFFFFD9   3 01A   12140  UCMLIST,R3
  12150  000009BC  00000001 USING  ORDINARY    00000000 00001000 FFFFFFE4  15 00D   12175  UCB,R15
  12181  000009D0  00000001 USING  ORDINARY    00000000 00001000 FFFFFFEF  15 000   12561  @R15,15
  12186  000009D0  00000001 USING  ORDINARY    00000000 00001000 FFFFFFFB   3 010   16552  @R3,3
  12207  000009D6  00000001 USING  ORDINARY    00000000 00001000 FFFFFFED   9 18A   13189  SCB,SCBR
  12287  00000A18  00000001 USING  ORDINARY    00000000 00001000 FFFFFFEC   6 038   12932  PDB,R6
  12665  00000B1C  00000001 USING  ORDINARY    00000000 00001000 FFFFFFCC  15 000   12682  WTOCBUSR,R15
  12689  00000B26  00000001 USING  ORDINARY    00000000 00001000 FFFFFFEF  15 000   12943  @R15,15
1CONS     (CONS4072) (12:35) (15MAR04) Using Map                                                                            Page   71
  12956  00000C02  00000001 USING  ORDINARY    00000000 00001000 FFFFFFCC  15 002   12999  WTOCBUSR,R15
  13006  00000C24  00000001 USING  ORDINARY    00000000 00001000 FFFFFFEF  15 000          @R15,15
  13177  00000CA6  00000001 USING  ORDINARY    00000000 00001000 FFFFFFEC  15 000   13188  PDB,R15
  13199  00000CBC  00000001 USING  ORDINARY    00000000 00001000 FFFFFFEF  15 000          @R15,15
  13218  00000CC0  00000001 USING  ORDINARY    00000000 00001000 FFFFFFD0  15 004   13224  COM,R15
  13231  00000CC4  00000001 USING  ORDINARY    00000000 00001000 FFFFFFEF  15 005   15921  @R15,15
  13265  00000CE8  00000001 USING  ORDINARY    00000000 00001000 FFFFFFF8   6 000          @R6,6
  13270  00000CE8  00000001 USING  ORDINARY    00000000 00001000 FFFFFFF5   9 000          @R9,9
  13275  00000CE8  00000001 USING  ORDINARY    00000000 00001000 FFFFFFF4  10 000          @R10,10
  13280  00000CE8  00000001 USING  ORDINARY    00000000 00001000 FFFFFFF7   7 000          @R7,7
  13285  00000CE8  00000001 USING  ORDINARY    00000000 00001000 FFFFFFF3  11 000          @R11,11
  13290  00000CE8  00000001 USING  ORDINARY    00000000 00001000 FFFFFFF6   8 000          @R8,8
  13338  00000D06  00000001 USING  ORDINARY    00000D06 00001000 00000001   8 55E   13342  $$$170B,BR
  13361  00000D16  00000001 USING  ORDINARY    00000000 00001000 FFFFFFF6   8 000          @R8,8
  13409  00000D34  00000001 USING  ORDINARY    00000D34 00001000 00000001   8 5A9   14313  $$$173B,BR
  13432  00000D46  00000001 USING  ORDINARY    00000000 00001000 FFFFFFD2  11 076   14266  FEB,FEBR
  13446  00000D48  00000001 USING  ORDINARY    00000000 00001000 FFFFFFE9   7 000          SEGCB,R7
  13661  00000DD2  00000001 USING  ORDINARY    00000000 00001000 FFFFFFD0   6 005   13672  COM,R6
  13669  00000DD2  00000001 DROP                                            5              5
  13673  00000DD8  00000001 USING  ORDINARY    00000000 00001000 FFFFFFF9   5 000          @R5,5
  13700  00000DDE  00000001 USING  ORDINARY    00000000 00001000 FFFFFFCF   5 010   14033  CIB,R5
  13746  00000DFC  00000001 DROP                                            1              1
  13750  00000E02  00000001 USING  ORDINARY    00000000 00001000 FFFFFFFD   1 000          @R1,1
  13915  00000E62  00000001 DROP                                            1              1
  13919  00000E68  00000001 USING  ORDINARY    00000000 00001000 FFFFFFFD   1 008   16438  @R1,1
  14039  00000EBC  00000001 USING  ORDINARY    00000000 00001000 FFFFFFF9   5 00B   15935  @R5,5
  14050  00000EC0  00000001 USING  ORDINARY    00000000 00001000 FFFFFFF8   6 000          @R6,6
  14322  00000F68  00000001 USING  ORDINARY    00000000 00001000 FFFFFFF7   7 000          @R7,7
  14327  00000F68  00000001 USING  ORDINARY    00000000 00001000 FFFFFFF3  11 000          @R11,11
  14332  00000F68  00000001 USING  ORDINARY    00000000 00001000 FFFFFFF6   8 000          @R8,8
  14379  00000F86  00000001 USING  ORDINARY    00000F86 00001000 00000001   8 365   15252  $$$186B,BR
  14402  00000F98  00000001 USING  ORDINARY    00000000 00001000 FFFFFFD2  11 098   14969  FEB,FEBR
  14416  00000F9A  00000001 USING  ORDINARY    00000000 00001000 FFFFFFE9   7 000          SEGCB,R7
  14909  000010D6  00000001 USING  ORDINARY    00000000 00001000 FFFFFFD1  10 034   15049  PIB,PIBR
  15064  0000113A  00000001 USING  ORDINARY    00000000 00001000 FFFFFFED   9 129   15162  SCB,SCBR
  15159  0000117A  00000001 DROP                                            2              2
  15163  00001180  00000001 USING  ORDINARY    00000000 00001000 FFFFFFFC   2 000   16019  @R2,2
  15213  000011A0  00000001 USING  ORDINARY    00000000 00001000 FFFFFFF5   9 000          @R9,9
  15244  000011AA  00000001 USING  ORDINARY    00000000 00001000 FFFFFFF4  10 000          @R10,10
  15260  000011B2  00000001 USING  ORDINARY    00000000 00001000 FFFFFFF7   7 000          @R7,7
  15265  000011B2  00000001 USING  ORDINARY    00000000 00001000 FFFFFFF3  11 000          @R11,11
  15270  000011B2  00000001 USING  ORDINARY    00000000 00001000 FFFFFFF6   8 000          @R8,8
  15404  000012FC  00000001 USING  ORDINARY    000012FC 00001000 00000001   8 7A6   16052  $$$198B,BR
  15423  0000130C  00000001 USING  ORDINARY    FFFFFFB4 00001000 FFFFFFCB  13 050   15971  WTOWA-@@,R13
  15437  0000130E  00000001 USING  ORDINARY    00000000 00001000 FFFFFFE9   7 038   15465  SEGCB,R7
  15451  00001312  00000001 USING  ORDINARY    00000000 00001000 FFFFFFCC   6 002   16075  WTOCBUSR,R6
  16082  000014F4  00000001 USING  ORDINARY    00000000 00001000 FFFFFFF8   6 004   16215  @R6,6
  16087  000014F4  00000001 USING  ORDINARY    00000000 00001000 FFFFFFF7   7 000          @R7,7
  16092  000014F4  00000001 USING  ORDINARY    00000000 00001000 FFFFFFF1  13 000          @R13,13
  16097  000014F4  00000001 USING  ORDINARY    00000000 00001000 FFFFFFF6   8 000          @R8,8
  16143  00001512  00000001 USING  ORDINARY    00001512 00001000 00000001   8 57C   16219  $$$232B,BR
  16227  00001562  00000001 USING  ORDINARY    00000000 00001000 FFFFFFF6   8 000          @R8,8
  16262  00001578  00000001 USING  ORDINARY    00001578 00001000 00000001   8 51A   16563  $$$237B,8
  16391  000015E8  00000001 USING  ORDINARY    00000000 00001000 FFFFFFCC   7 001   16492  WTOCBUSR,R7
  16478  00001618  00000001 DROP                                           15              15
  16482  0000161E  00000001 USING  ORDINARY    00000000 00001000 FFFFFFEF  15 000          @R15,15
  16571  0000165E  00000001 USING  ORDINARY    00000000 00001000 FFFFFFF7   7 000          @R7,7
  16577  0000165E  00000001 USING  ORDINARY    00000000 00001000 FFFFFFF6   8 000          @R8,8

1         (CONS4072) (12:35) (15MAR04) General Purpose Register Cross Reference                                             Page   72
- Register  References (M=modified, B=branch, U=USING, D=DROP, N=index)                      HLASM R4.0  2004/03/15 12.35
0    0(0)      989U   990D  1593M  1594M  1595   1597M  1598   8802M  8825M  9016   9212M  9228M  9237M  9242M  9426M
              9427M  9427   9512M  9605M  9901  11221M 11222M 11222  11235M 11240  11251M 11252M 11288M 11288  11441M
             11443M 11520M 11542M 11570M 11603M 11628M 11629M 11632  11644M 11669M 11920M 11920  12014M 12223M 12706M
             12728M 12756M 12789M 12814M 12815M 12818  12830M 12855M 12914M 12915M 12932M 12934M 12979M 12980M 12980
             12993M 12998  13012M 13048M 13069M 13069  13091M 13119M 13137M 13224M 13456M 13484M 13512M 13530M 13553M
             13585M 13611M 13611  13640M 13715M 13730M 13757M 13773M 13787M 13787  13810M 13837M 13850M 13850  13899M
             13923M 13923  13945M 13960M 13984M 13999M 14021M 14021  14070M 14098M 14121M 14148M 14174M 14192M 14192
             14208M 14240M 14278M 14304M 14304  14426M 14454M 14482M 14500M 14523M 14555M 14581M 14581  14618M 14646M
             14669M 14696M 14722M 14740M 14740  14756M 14788M 14826M 14852M 14852  14920M 14942M 14957M 14979M 14979
             15001M 15001  15029M 15073M 15098M 15113M 15138M 15174M 15193M 15193  15228M 15228  15482M 15482  15660
             15832  15866M 15872  15935M 16061M 16061  16162M 16163M 16208M 16277M 16396M 16396  16397M 16446M 16545M
     1(1)      985U  8801M  8830   8858M  8871M  8958   8992M  8992   9093M  9188M  9207M  9227M  9236M  9247   9285M
              9298M  9384   9401M  9407N  9424M  9425M  9425   9452M  9453   9511M  9604M  9610   9685M  9832  10447
             10573  10716M 10731M 10792M 10809  10858  10859  10860  10902  10968  10969  10970  11012  11041  11048M
             11048  11054M 11055  11056  11120M 11252  11442M 11443M 11444M 11513M 11541M 11563M 11602M 11624M 11668M
             11710M 11805  12019  12103M 12105  12222M 12228  12426M 12427M 12427  12516M 12699M 12727M 12749M 12788M
             12810M 12854M 12892M 12916M 12922  12933M 12934M 13011M 13047M 13065M 13090M 13114M 13136M 13189M 13234M
             13423  13455M 13477M 13505M 13529M 13546M 13584M 13633M 13708M 13729M 13746D 13748M 13748  13749M 13750U
             13772M 13809M 13836M 13898M 13915D 13917M 13917  13918M 13919U 13959M 13980M 13998M 14063M 14091M 14114M
             14141M 14169M 14188M 14207M 14239M 14277M 14393  14425M 14447M 14475M 14499M 14516M 14554M 14611M 14639M
             14662M 14689M 14717M 14736M 14755M 14787M 14825M 14935M 14956M 14975M 15022M 15072M 15093M 15112M 15133M
             15173M 15189M 15865M 15936M 16002  16019  16024  16062M 16160M 16194M 16195M 16195  16279M 16398M 16460
             16531M 16532M 16532  16558M
     2(2)      981U  8706   8900M  8932   9093M  9188   9331M  9358   9738M  9806  10053M 10085M 10184M 10216M 10394M
             10421  10486M 10547  10751M 10786M 10786  10803M 10803  10839  10861  10884M 10949  10971  10994M 11047M
             11056M 11095N 11097M 11098  11114M 11114  11133M 11133  11155M 11303M 11378M 11379M 11379  11444  11749M
             11779  11985M 11986M 12075M 12103  12104M 12300M 12301N 12314M 12314  12337M 12356  12377M 12395  12536M
             12536  12554  12560N 12583M 12600M 12609M 12609  12616  12917M 12922M 12942  12943  13297M 13326  13368M
             13397  13541M 14339M 14367  14511M 15159D 15161M 15161  15162M 15189  15277M 15391  15727M 15728M 15729
             15730M 15833  15865N 15866  15876  15878  15937M 15971M 15973M 15981M 15981  15983M 15988M 15989M 15989
             16033M 16038M 16105M 16131  16234M 16298M 16298  16300M 16357M 16362M 16460M 16552
     3(3)      977U  8706   8900M  8932   9093M  9188   9331M  9358   9738M  9806  10054M 10061M 10071  10078M 10079M
             10098  10185M 10192M 10202  10209M 10210M 10229  10394M 10421  10486M 10547  10750M 10792  11054  11120
             11153M 11251  11301M 11749M 11779  11952D 11954M 11954  11955M 11956U 11968  11978M 11978  11983  12031
             12075M 12104M 12105M 12115U 12186U 13297M 13326  13368M 13397  14339M 14367  15277M 15391  15827M 15920M
             15972M 15973M 15982M 15983  16037M 16037  16038  16105M 16131  16234M 16299M 16300  16318M 16319  16328M
             16328  16361M 16361  16362  16528M
     4(4)      973U  8706   8900M  8932   9331M  9358   9738M  9806  10054M 10071  10185M 10202  10394M 10421  10486M
             10547  10860M 10878M 10970M 10988M 11749M 11779  13297M 13326  13368M 13397  14339M 14367  15277M 15391
             16105M 16131  16234M 16305M 16306M 16306  16373M 16373  16558
     5(5)      969U  8706   8900M  8932   9331M  9358   9558M  9571   9709M  9738M  9806  10054M 10078  10185M 10209
             10394M 10421  10486M 10547  10877M 10878M 10987M 10988M 11749M 11779  13297M 13326  13368M 13397  13669D
             13671M 13671  13672M 13673U 13685M 13685  13700U 13708  14033M 14039U 14339M 14367  14864M 14867  14879
             14968  15248M 15277M 15391  15581M 15627M 15648M 15655M 15725M 15725N 15727  15802M 15827  15855M 15921M
             15921N 15934M 15964  16105M 16131  16234M
     6(6)      965U  8706   8900M  8932   9046M  9046   9150D  9152M  9152   9153M  9154U  9278   9331M  9358   9465D
              9467M  9467   9468M  9469U  9484U  9511   9542U  9557M  9558   9559M  9571   9738M  9806   9886M  9896U
             10372U 10394M 10421  10486M 10547  11749M 11779  12277M 12287U 13265U 13297M 13326  13368M 13397  13651M
             13661U 14050U 14339M 14367  14865M 14866M 14867M 14879  15277M 15391  15441M 15451U 16082U 16105M 16131
             16173M 16186  16215M 16234M
     7(7)      961U  8706   8732M  8742U  8865   8888U  8900M  8932   8971M  8981U  8999   9292   9314U  9331M  9358
              9398M  9407   9409M  9419U  9721U  9738M  9806   9871M  9881U 10377U 10394M 10421  10486M 10547  10612M
             10622U 11430  11722U 11749M 11779  11863D 11865M 11865  11866M 11867U 11894U 13234  13280U 13297M 13326
             13368M 13397  13436M 13446U 13462  13490  13518  13536  13559  13591  13617  13646  13721  13736  13763
             13779  13874  13905  13929  13951  13966  13990  14005  14027  14076  14104  14127  14154  14180  14198
1         (CONS4072) (12:35) (15MAR04) General Purpose Register Cross Reference                                             Page   73
             14214  14246  14284  14310  14322U 14339M 14367  14406M 14416U 14432  14460  14488  14506  14529  14561
             14587  14624  14652  14675  14702  14728  14746  14762  14794  14832  14858  14926  14948  14963  14985
             15007  15035  15079  15104  15119  15144  15180  15199  15234  15260U 15277M 15391  15427M 15437U 16087U
             16105M 16131  16174M 16186  16234M 16383M 16391U 16571U
     8(8)      957U  8706   8707M  8718U  8893U  8900M  8932   8933M  8944U  9324U  9331M  9358   9359M  9370U  9731U
              9738M  9806   9807M  9818U 10387U 10394M 10421  10422M 10433U 10479U 10486M 10547  10548M 10559U 11742U
             11749M 11779  11780M 11791U 13290U 13297M 13326  13327M 13338U 13361U 13368M 13397  13398M 13409U 14332U
             14339M 14367  14368M 14379U 15270U 15277M 15391  15393M 15404U 16097U 16105M 16131  16132M 16143U 16227U
             16234M 16252M 16262U 16577U
     9(9)      953U  8706   8900M  8932   9331M  9358   9610M  9619U  9700U  9738M  9806  10394M 10421  10447M 10456U
             10474U 10486M 10547  10573M 10582U 10702  10716  10720M 10720  10725  11737U 11749M 11779  12197M 12198M
             12198  12207U 12228M 13270U 13297M 13326  13368M 13397  14339M 14367  15049M 15050M 15050  15064U 15213U
             15277M 15391  16105M 16131  16234M
    10(A)      949U  8706   8900M  8932   9247M  9256U  9298   9309U  9331M  9358   9579M  9580M  9580   9600U  9705U
              9738M  9806  10155M 10158M 10159M 10159  10176U 10244U 10394M 10421  10486M 10547  10586M 10595U 10731
             10739M 10739  11732U 11749M 11779  11989M 11990M 11990  11999U 12019M 12020  13275U 13297M 13326  13368M
             13397  14339M 14367  14894M 14895M 14895  14909U 14935  15244U 15277M 15391  16105M 16131  16234M
    11(B)      945U  3455B  3456B  8706   8749M  8758U  8774M  8775M  8775   8822U  8830M  8839U  8883U  8900M  8932
              8958M  8967U  9266   9319U  9331M  9358   9384M  9393U  9726U  9738M  9806   9832M  9841U 10382U 10394M
             10421  10486M 10547  10599M 10608U 11727U 11749M 11779  11805M 11814U 12028  13285U 13297M 13326  13368M
             13397  13423M 13432U 14114  14327U 14339M 14367  14393M 14402U 14662  15265U 15277M 15391  16105M 16131
             16234M
    12(C)      941U  1164U
    13(D)      937U  8703   8706   8722M  8724   8724   8725   8725   8726   8897M  8897   8900   8902   8904   8904
              8929   8932   8948M  8950   8950   8951   8951   8952   9328M  9328   9331   9333   9335   9335   9355
              9358   9374M  9376   9376   9377   9377   9378   9735M  9735   9738   9740   9742   9742   9803   9806
              9822M  9824   9824   9825   9825   9826  10391M 10391  10394  10396  10398  10398  10418  10421  10437M
             10439  10439  10440  10440  10441  10483M 10483  10486  10488  10490  10490  10544  10547  10563M 10565
             10565  10566  10566  10567  11746M 11746  11749  11751  11753  11753  11776  11779  11795M 11797  11797
             11798  11798  11799  13294M 13294  13297  13299  13301  13301  13323  13326  13342M 13344  13344  13345
             13345  13346  13365M 13365  13368  13370  13372  13372  13394  13397  13413M 13415  13415  13416  13416
             13417  14336M 14336  14339  14341  14343  14343  14364  14367  14383M 14385  14385  14386  14386  14387
             15274M 15274  15277  15279  15281  15281  15388  15391  15408M 15410  15410  15411  15411  15412  15423U
             16092U 16101M 16101  16105  16107  16109  16109  16128  16131  16147M 16149  16149  16150  16150  16151
             16231M 16231  16234  16236  16238  16238  16265M 16266M 16267  16267
    14(E)      933U  1592B  1602B  8703   8828M  8829M  8829B  8868M  8869M  8869B  8902M  8906B  8929   9002M  9003M
              9003B  9223M  9224M  9224B  9245M  9246M  9246B  9295M  9296M  9296B  9333M  9337B  9355   9608M  9609M
              9609B  9688M  9689M  9689B  9740M  9744B  9803   9901M  9913   9930   9937M  9942M  9943M  9944M  9944N
              9945B  9962   9972M  9972   9977M  9978M  9978N  9979B 10396M 10400B 10418  10488M 10492B 10544  10728M
             10729M 10729B 10734M 10735M 10735B 10859M 10878M 10969M 10988M 11039M 11040M 11040  11041  11275M 11276M
             11276B 11299M 11300M 11300B 11430M 11443M 11447M 11448M 11448B 11553M 11554M 11554B 11597M 11598M 11598B
             11614M 11615M 11615B 11696M 11697M 11697B 11714M 11715M 11715B 11751M 11755B 11776  11923M 11924M 11924B
             12017M 12018M 12018B 12226M 12227M 12227B 12464M 12465M 12465B 12520M 12521M 12521B 12739M 12740M 12740B
             12783M 12784M 12784B 12800M 12801M 12801B 12882M 12883M 12883B 12896M 12897M 12897B 12920M 12921M 12921B
             12930M 12934M 13023M 13024M 13024B 13059M 13060M 13060B 13080M 13081M 13081B 13102M 13103M 13103B 13130M
             13131M 13131B 13148M 13149M 13149B 13192M 13193M 13193B 13299M 13303B 13323  13370M 13374B 13394  13465M
             13466M 13466B 13493M 13494M 13494B 13521M 13522M 13522B 13539M 13540M 13540B 13562M 13563M 13563B 13594M
             13595M 13595B 13620M 13621M 13621B 13649M 13650M 13650B 13724M 13725M 13725B 13739M 13740M 13740B 13766M
             13767M 13767B 13782M 13783M 13783B 13877M 13878M 13878B 13908M 13909M 13909B 13932M 13933M 13933B 13954M
             13955M 13955B 13969M 13970M 13970B 13993M 13994M 13994B 14008M 14009M 14009B 14030M 14031M 14031B 14079M
             14080M 14080B 14107M 14108M 14108B 14130M 14131M 14131B 14157M 14158M 14158B 14183M 14184M 14184B 14201M
             14202M 14202B 14217M 14218M 14218B 14249M 14250M 14250B 14287M 14288M 14288B 14313M 14314M 14314B 14341M
             14345B 14364  14435M 14436M 14436B 14463M 14464M 14464B 14491M 14492M 14492B 14509M 14510M 14510B 14532M
             14533M 14533B 14564M 14565M 14565B 14590M 14591M 14591B 14627M 14628M 14628B 14655M 14656M 14656B 14678M
             14679M 14679B 14705M 14706M 14706B 14731M 14732M 14732B 14749M 14750M 14750B 14765M 14766M 14766B 14797M
             14798M 14798B 14835M 14836M 14836B 14861M 14862M 14862B 14929M 14930M 14930B 14951M 14952M 14952B 14966M
             14967M 14967B 14988M 14989M 14989B 15010M 15011M 15011B 15038M 15039M 15039B 15082M 15083M 15083B 15107M
             15108M 15108B 15122M 15123M 15123B 15147M 15148M 15148B 15183M 15184M 15184B 15202M 15203M 15203B 15237M
             15238M 15238B 15279M 15283B 15388  15831M 15831  15833M 15842M 15842  15940M 15941M 15941B 15959M 15973M
1         (CONS4072) (12:35) (15MAR04) General Purpose Register Cross Reference                                             Page   74
             16107M 16111B 16128  16236M 16240B 16271M 16272M 16272B 16561M 16562M 16562B
    15(F)      929U  1590M  1591M  1591   1593   1598M  1601M  1601   3917M  3917   8732   8803M  8865M  8875M  8875
              8905M  8905   8971   8999M  9053M  9063U  9069M  9076U  9087U  9100U  9116M  9126U  9186U  9220M  9229M
              9267M  9268   9292M  9302M  9302   9336M  9336   9439M  9439   9524M  9524   9555M  9556M  9559N  9663M
              9673U  9695U  9743M  9743   9871   9997M 10002M 10007M 10016M 10016  10133M 10145  10154M 10158N 10399M
             10399  10491M 10491  10612  10861M 10862M 10871M 10871  10877  10878M 10971M 10972M 10981M 10981  10987
             10988M 11034D 11036M 11036  11037M 11038U 11040N 11095M 11161M 11171U 11248U 11272M 11296M 11313M 11314M
             11315  11319M 11320M 11321  11396M 11397M 11398  11417M 11418  11434M 11442  11443M 11469M 11479U 11503U
             11550M 11594M 11611M 11693M 11711M 11754M 11754  11818M 11838M 11848U 11882U 11983M 11984M 11986N 12029M
             12030  12035M 12045U 12051M 12058U 12069U 12082U 12088M 12089M 12089  12102M 12104  12140M 12150U 12181U
             12301M 12335M 12435M 12436M 12437  12456M 12457  12517M 12560M 12595M 12596  12655M 12665U 12689U 12736M
             12780M 12797M 12879M 12893M 12931M 12933  12934M 12938M 12939M 12940  12941M 12946M 12956U 13006U 13020M
             13056M 13077M 13099M 13127M 13145M 13167M 13177U 13199U 13208M 13218U 13231U 13246M 13246  13302M 13302
             13373M 13373  13436  13462M 13490M 13518M 13536M 13559M 13591M 13617M 13646M 13721M 13736M 13763M 13779M
             13874M 13905M 13929M 13951M 13966M 13990M 14005M 14027M 14076M 14104M 14127M 14154M 14180M 14198M 14214M
             14246M 14284M 14310M 14344M 14344  14406  14432M 14460M 14488M 14506M 14529M 14561M 14587M 14624M 14652M
             14675M 14702M 14728M 14746M 14762M 14794M 14832M 14858M 14926M 14948M 14963M 14968M 14969M 14970M 14975
             14985M 15007M 15035M 15079M 15104M 15119M 15144M 15180M 15199M 15234M 15282M 15282  15427  15660M 15680
             15682M 15690M 15699M 15699  15706  15726M 15728  15832M 15833M 15849M 15854  15872M 15876  15878M 15882M
             15891M 15891  15898  15917M 15918  15933M 15934  15964M 15972  15973M 16029M 16030M 16031  16110M 16110
             16161M 16161  16239M 16239  16349M 16350M 16351  16454M 16454  16478D 16480M 16480  16481M 16482U 16502M
             16502  16518  16527M 16528N

1CONS     (CONS4072) (12:35) (15MAR04) Diagnostic Cross Reference and Assembler Summary                                     Page   75
-                                                                                            HLASM R4.0  2004/03/15 12.35
0     No Statements Flagged in this Assembly
 HIGH LEVEL ASSEMBLER, 5696-234, RELEASE 4.0, PTF UQ57391
0SYSTEM: OS/390 02.10.00            JOBNAME: MIL#CONS    STEPNAME: ASM        PROCSTEP: (NOPROC)
0Datasets Allocated for this Assembly
  Con DDname   Dataset Name                                 Volume  Member
   P1 SYSIN    WYL.GS.MIL.MILTEN.SOURCE                     SYSB05  CONS
   L1 SYSLIB   WYL.GS.MIL.MILTEN.MACLIB                     SYSB05
   L2          WYL.GG.SYS.MACLIB                            SYSB05
   L3          SYS3.IS.MACLIB                               SYSB05
   L4          SYS3.MACLIB                                  SYSB02
   L5          SYS1.MACLIB                                  MVSBR9
   L6          SYS1.MODGEN                                  MVSBR9
      SYSPRINT SYS04075.T123509.RA000.MIL#CONS.PRINT.H01    SCR100
      SYSTERM  GG$SLP.MIL#CONS.JOB03412.D0000101.?

    3776K allocated to Buffer Pool,         3805K would be required for this to be an In-Storage Assembly
    1196 Primary Input Records Read        18510 Library Records Read                  2 Work File Reads
       0 ASMAOPT Records Read               5951 Primary Print Records Written        11 Work File Writes
       0 Punch Records Written                 0 ADATA Records Written
0Assembly Start Time: 12.35.10 Stop Time: 12.35.18 Processor Time: 00.00.02.8554
 Return Code 000
