1                        J E S 2  J O B  L O G  --  S Y S T E M  S Y S B  --  N O D E  R L G
0
 12.36.51 JOB03426 ---- MONDAY,    15 MAR 2004 ----
 12.36.51 JOB03426  ICH70001I GG$SLP   LAST ACCESS AT 12:36:45 ON MONDAY, MARCH 15, 2004
 12.36.51 JOB03426  $HASP373 MIL#MUD  STARTED - INIT 6    - CLASS B - SYS SYSB
 12.36.51 JOB03426  ***  HCMD      STEP $$QUIET
 12.36.51 JOB03426  PUR * Q OUT MUL
 12.36.51 JOB03426  JOB 5469 MIL#MUD  WILL BE PURGED
 12.36.52 JOB03426  MIL#MUD .$$QUIET .         RC=Zero TapeIO=0000 DiskIO=0000 CPU=  .01s Elapsed=11.66s
 12.37.02 JOB03426  MIL#MUD .ASM     .         RC=Zero TapeIO=0000 DiskIO=0763 CPU= 4.16s Elapsed=12.75s
 12.37.04 JOB03426  MIL#MUD .EDIT    .         RC=Zero TapeIO=0000 DiskIO=0199 CPU=  .62s Elapsed=23.02s
 12.37.04 JOB03426  MIL#MUD  Ended.  Name=Assemble MUD                   Total CPU= 4.79s Elapsed=11.66s
 12.37.04 JOB03426
 12.37.04 JOB03426  Execution charges   Priority=Standard   Block=Day
 12.37.04 JOB03426
 12.37.04 JOB03426  CPU Usage          87.93          $54.51   Standard Processing Unit Equivalent
 12.37.04 JOB03426                                   =======
 12.37.04 JOB03426                                    $54.51   Total Job execution charge
 12.37.04 JOB03426
 12.37.04 JOB03426  See back separator page for print charges
 12.37.04 JOB03426
 12.37.04 JOB03426  $HASP395 MIL#MUD  ENDED  ASM=0, EDIT=0
1        1 //MIL#MUD JOB SLP$GG,'Assemble MUD',TIME=4,REGION=4M                    JOB03426
           //*
           /*JOBPARM LINES=99,COPIES=1
           /*JOBPARM FORMS=3HOL,PFORMAT=LAND,CHARS=BD13,DUPLEX=YES,FLASH=BAR4
           //*
           /*JOBPARM NOTIFY=GG.SLP,HOLD=OUTPUT                                     WYLGEN
         2 //$$QUIET EXEC PGM=HCMDX,PARM='PUR * Q OUT MUL'
           //*
         3 //ASM    EXEC PGM=ASMA90,REGION=8M,
           //            PARM=('NORENT,TERM,FLAG(NOCONT),US(MAP,WARN(10)),NODECK',
           //            'LC(32767),XREF(SHORT),ESD,DXREF,NOOBJECT')
           //*STEPLIB  DD DSN=SYS1.SASMMOD1,DISP=SHR
         4 //SYSLIB   DD  DSN=WYL.GS.MIL.MILTEN.MACLIB,DISP=SHR
         5 //         DD  DSN=WYL.GG.SYS.MACLIB,DISP=SHR
         6 //         DD  DSN=SYS3.IS.MACLIB,DISP=SHR
         7 //         DD  DSN=SYS3.MACLIB,DISP=SHR
         8 //         DD  DSN=SYS1.MACLIB,DISP=SHR
         9 //         DD  DSN=SYS1.MODGEN,DISP=SHR
        10 //SYSUT1   DD DSN=&&SYSUT1,UNIT=VIO,DISP=(,DELETE),
           //            SPACE=(4088,(500,250),,CONTIG,ROUND)
        11 //SYSTERM  DD SYSOUT=T
        12 //SYSPRINT DD DSN=&&PRINT,UNIT=SYSDA,DISP=(,PASS),
           //            SPACE=(6650,(250,250),RLSE),
           //            DCB=(BLKSIZE=6650,LRECL=133,RECFM=FB)
        13 //SYSUDUMP DD SYSOUT=A
        14 //SYSIN    DD  DSN=WYL.GS.MIL.MILTEN.SOURCE(MUD),DISP=SHR
           //*
        15 //EDIT    EXEC PGM=ASMEDIT,TIME=2,REGION=4000K,
           //             PARM='STMT'
        16 //STEPLIB  DD  DSN=WYL.GG.SYS.LINKLIB,DISP=SHR
        17 //ASMOUT   DD  DSN=&PRINT,DISP=(OLD,DELETE)
        18 //SYSPRINT DD  SYSOUT=A
1 STMT NO. MESSAGE
 -
        10 IGD01010I STORCLAS= TEMP STORGROUP =
        10 IGD01010I STORGRP=VIO ASSIGNED.
        12 IGD01010I STORCLAS= TEMP STORGROUP =
        12 IGD01010I STORGRP=VIO ASSIGNED.
 ICH70001I GG$SLP   LAST ACCESS AT 12:36:45 ON MONDAY, MARCH 15, 2004
 IEF142I MIL#MUD $$QUIET - STEP WAS EXECUTED - COND CODE 0000
 *********************************************************************************
 *   MIL#MUD /$$QUIET /                    Return Code      Zero                 *
 *   Region used      260K (16K user + 244K system)                              *
 *   Extended region  9692K (4K user + 9688K system)                             *
 *                                                                               *
 *   Paging              In      Out                                             *
 *   Private <-> Aux      0        0       CPU time (TCB)   00:00:00.01          *
 *   Private <-> Exp      0        0       CPU time (SRB)   00:00:00.00          *
 *   VIO                  0        0       Elapsed time    917:51:01.30          *
 *   Common               0      ---                                             *
 *                                                                               *
 *                                                                               *
 *   CPU Usage          0.18         $0.11  Standard Processing Unit Equivalent  *
 *                                   $0.11  Total Step execution charge          *
 *                                                                               *
 *    I/O count  DDname   Type Addr           I/O count  DDname   Type Addr      *
 *                         *** No I/O for this step ***                          *
 *********************************************************************************
 IEF373I STEP/$$QUIET /START 2004075.1236
 IEF374I STEP/$$QUIET /STOP  2004075.1236 CPU    0MIN 00.01SEC SRB    0MIN 00.00SEC VIRT    16K SYS   244K EXT       4K SYS    9688K
 IEF236I ALLOC. FOR MIL#MUD ASM
 IEF237I 04DC ALLOCATED TO SYSLIB
 IEF237I 04DC ALLOCATED TO
 IEF237I 04DC ALLOCATED TO
 IEF237I 0402 ALLOCATED TO
 IEF237I 04A0 ALLOCATED TO
 IEF237I 04A0 ALLOCATED TO
 IGD101I SMS ALLOCATED TO DDNAME (SYSUT1  )
         DSN (SYS04075.T123651.RA000.MIL#MUD.SYSUT1.H01   )
         STORCLAS (TEMP) MGMTCLAS (        ) DATACLAS (        )
         VOL SER NOS= VIO
 IEF237I JES2 ALLOCATED TO SYSTERM
 IGD101I SMS ALLOCATED TO DDNAME (SYSPRINT)
         DSN (SYS04075.T123651.RA000.MIL#MUD.PRINT.H01    )
         STORCLAS (TEMP) MGMTCLAS (        ) DATACLAS (        )
         VOL SER NOS= SCR101
 IEF237I JES2 ALLOCATED TO SYSUDUMP
 IEF237I 04DC ALLOCATED TO SYSIN
 IEF142I MIL#MUD ASM - STEP WAS EXECUTED - COND CODE 0000
 IEF285I   WYL.GS.MIL.MILTEN.MACLIB                     KEPT
 IEF285I   VOL SER NOS= SYSB05.
 IEF285I   WYL.GG.SYS.MACLIB                            KEPT
 IEF285I   VOL SER NOS= SYSB05.
 IEF285I   SYS3.IS.MACLIB                               KEPT
 IEF285I   VOL SER NOS= SYSB05.
 IEF285I   SYS3.MACLIB                                  KEPT
 IEF285I   VOL SER NOS= SYSB02.
 IEF285I   SYS1.MACLIB                                  KEPT
 IEF285I   VOL SER NOS= MVSBR9.
 IEF285I   SYS1.MODGEN                                  KEPT
 IEF285I   VOL SER NOS= MVSBR9.
 IGD105I SYS04075.T123651.RA000.MIL#MUD.SYSUT1.H01    DELETED,   DDNAME=SYSUT1
 IEF285I   GG$SLP.MIL#MUD.JOB03426.D0000101.?           SYSOUT
 IGD106I SYS04075.T123651.RA000.MIL#MUD.PRINT.H01     PASSED,    DDNAME=SYSPRINT
 IEF285I   GG$SLP.MIL#MUD.JOB03426.D0000102.?           SYSOUT
 IEF285I   WYL.GS.MIL.MILTEN.SOURCE                     KEPT
 IEF285I   VOL SER NOS= SYSB05.
 *********************************************************************************
 *   MIL#MUD /ASM     /                    Return Code      Zero                 *
 *   Region used      4372K (4096K user + 276K system)                           *
 *   Extended region  10292K (412K user + 9880K system)                          *
 *                                                                               *
 *   Paging              In      Out                                             *
 *   Private <-> Aux      0        0       CPU time (TCB)   00:00:04.08          *
 *   Private <-> Exp      0        0       CPU time (SRB)   00:00:00.08          *
 *   VIO                  0        0       Elapsed time    917:51:00.21          *
 *   Common               0      ---                                             *
 *                                                                               *
 *                                                                               *
 *   CPU Usage         76.50        $47.43  Standard Processing Unit Equivalent  *
 *                                  $47.43  Total Step execution charge          *
 *                                                                               *
 *    I/O count  DDname   Type Addr           I/O count  DDname   Type Addr      *
 *          252  SYSLIB   Disk 04DC                   0  SYSLIB   Disk 04DC      *
 *            0  SYSLIB   Disk 04DC                  11  SYSLIB   Disk 0402      *
 *          281  SYSLIB   Disk 04A0                   0  SYSLIB   Disk 04A0      *
 *          636  SYSUT1   VIO  ----                   0  SYSTERM       ----      *
 *          196  SYSPRINT Disk 04E3                   0  SYSUDUMP      ----      *
 *           23  SYSIN    Disk 04DC                                              *
 *********************************************************************************
 IEF373I STEP/ASM     /START 2004075.1236
 IEF374I STEP/ASM     /STOP  2004075.1237 CPU    0MIN 04.08SEC SRB    0MIN 00.08SEC VIRT  4096K SYS   276K EXT     412K SYS    9880K
 IEF236I ALLOC. FOR MIL#MUD EDIT
 IEF237I 0402 ALLOCATED TO STEPLIB
 IGD103I SMS ALLOCATED TO DDNAME ASMOUT
 IEF237I JES2 ALLOCATED TO SYSPRINT
 IEF142I MIL#MUD EDIT - STEP WAS EXECUTED - COND CODE 0000
 IEF285I   WYL.GG.SYS.LINKLIB                           KEPT
 IEF285I   VOL SER NOS= SYSB02.
 IGD105I SYS04075.T123651.RA000.MIL#MUD.PRINT.H01     DELETED,   DDNAME=ASMOUT
 IEF285I   GG$SLP.MIL#MUD.JOB03426.D0000103.?           SYSOUT
 *********************************************************************************
 *   MIL#MUD /EDIT    /                    Return Code      Zero                 *
 *   Region used      380K (116K user + 264K system)                             *
 *   Extended region  9816K (4K user + 9812K system)                             *
 *                                                                               *
 *   Paging              In      Out                                             *
 *   Private <-> Aux      0        0       CPU time (TCB)   00:00:00.60          *
 *   Private <-> Exp      0        0       CPU time (SRB)   00:00:00.02          *
 *   VIO                  0        0       Elapsed time    917:50:49.94          *
 *   Common               0      ---                                             *
 *                                                                               *
 *                                                                               *
 *   CPU Usage         11.25         $6.97  Standard Processing Unit Equivalent  *
 *                                   $6.97  Total Step execution charge          *
 *                                                                               *
 *    I/O count  DDname   Type Addr           I/O count  DDname   Type Addr      *
 *            2  STEPLIB  Disk 0402                 197  ASMOUT   Disk 04E3      *
 *            0  SYSPRINT      ----                                              *
 *********************************************************************************
 IEF373I STEP/EDIT    /START 2004075.1237
 IEF374I STEP/EDIT    /STOP  2004075.1237 CPU    0MIN 00.60SEC SRB    0MIN 00.02SEC VIRT   116K SYS   264K EXT       4K SYS    9812K
 *********************************************************************************
 *                                                                               *
 *                      S t a n f o r d   U n i v e r s i t y                    *
 *                                                                               *
 *                              *** Job Summary ***                              *
 *                                                                               *
 *   System Id      SYSB                   Input time     12:35:10  Mar 15, 2004 *
 *                                                                               *
 *   System Release SP6.1.0                Start time     12:36:51  Mar 15, 2004 *
 *                                                                               *
 *   Job name       MIL#MUD                Stop  time     00:00:00  Mar 15, 2004 *
 *                                                                               *
 *   Account        SLP$GG                 Elapsed time  917:51:01.30            *
 *                                                                               *
 *   User Name      Assemble MUD           CPU time       00:00:04.69            *
 *                                                                               *
 *   Job class      B                      SRB Time       00:00:00.10            *
 *                                                                               *
 *********************************************************************************
 IEF375I  JOB/MIL#MUD /START 2004075.1236
 IEF376I  JOB/MIL#MUD /STOP  2004075.1237 CPU    0MIN 04.69SEC SRB    0MIN 00.10SEC
1Assembler Done MUD No Statements Flagged
1         High Level Assembler Option Summary                   (PTF UQ57391)                                               Page    1
-                                                                                            HLASM R4.0  2004/03/15 12.36
0  No Overriding ASMAOPT Parameters
   Overriding Parameters-  NORENT,TERM,FLAG(NOCONT),US(MAP,WARN(10)),NODECK,LC(32767),XREF(SHORT),ESD,DXREF,NOOBJECT
   No Process Statements


   Options for this Assembly
0  NOADATA
     ALIGN
   NOASA
     BATCH
     CODEPAGE(047C)
   NOCOMPAT
   NODBCS
 3 NODECK
 3   DXREF
 3   ESD
   NOEXIT
 3   FLAG(0,ALIGN,NOCONT,NOIMPLEN,NOPAGE0,PUSH,RECORD,NOSUBSTR,USING0)
   NOFOLD
   NOGOFF
   NOINFO
     LANGUAGE(EN)
   NOLIBMAC
 3   LINECOUNT(32767)
     LIST(121)
     MXREF(SOURCE)
 3 NOOBJECT
     OPTABLE(UNI,NOLIST)
   NOPCONTROL
   NOPESTOP
   NOPROFILE
   NORA2
 3 NORENT
     RLD
     RXREF
     SIZE(MAX)
     SYSPARM()
 3   TERM(WIDE)
   NOTEST
     THREAD
   NOTRANSLATE
 3   USING(NOLIMIT,MAP,WARN(10))
 3   XREF(SHORT)

   No Overriding DD Names

1MUD      External Symbol Dictionary                                                                                        Page    2
-Symbol   Type   Id     Address  Length     LD ID  Flags Alias-of                            HLASM R4.0  2004/03/15 12.36
0MILMUD    SD 00000001 00000000 000039E8             00
 MUD2047   LD          00000000           00000001
 MUDINIT   LD          00000016           00000001
 SHUTDOWN  LD          0000034A           00000001
 CV        ER 00000002
 MCOMFAIL  ER 00000003
 SESSERR   ER 00000004
 SUBERR    ER 00000005
 KEYNZERO  ER 00000006
 DOM       ER 00000007
 SEGCLR    ER 00000008
 SEGWR     ER 00000009
 DISPATCH  ER 0000000A
 SINTFREE  ER 0000000B
 SUBDIE    ER 0000000C
 VIRTERR   ER 0000000D
 ELFERR    ER 0000000E
 CONSDIE   ER 0000000F
 VIRTDIE   ER 00000010
 ELFDIE    ER 00000011
 CONSFMT   ER 00000012
 VIRTFMT   ER 00000013
 ELFFMT    ER 00000014
 SEGB      ER 00000015
 SEGTB     ER 00000016
 LOCALTOD  ER 00000017
 FMTCLCK   ER 00000018
 SEGT      ER 00000019
 SEGCORE   ER 0000001A
 SEG       ER 0000001B
 SEGHX     ER 0000001C
 SEGDC     ER 0000001D
 FMTRCLCK  ER 0000001E
 COREFMT   ER 0000001F
 SEGCOL    ER 00000020
 FMTTIME   ER 00000021
 SEGMARK   ER 00000022
 SEGCORE   LD          00001FF0           00000001
 SEGPSW    LD          00002246           00000001
 SEGLOC    LD          00002290           00000001
 ADDRSYM   LD          000023A4           00000001
 MILMAIN   ER 00000023
 MILMALT   ER 00000024
 MILMUD    ER 00000025
 MILMISC   ER 00000026
 MILSIFT   ER 00000027
 MILMSVC   ER 00000028
 MILMORT   ER 00000029
 MILCONS   ER 0000002A
 MILVIRT   ER 0000002B
 MILELF    ER 0000002C
 MILMCOM   ER 0000002D

1MUD      MILTEN's Dump Formatter                                                                                           Page    3
0Loc    Object Code    Addr1 Addr2  Stmt Lv Lineno    Source Statement                    (Asmedit 3.3)  HLASM R4.0  2004/03/15 12.36
+___    ______ ____    _____ _____  ____ __ ______    ______ _________
0                                      2              *******************************************************************
                                       3              *                                                                 *
                                       4              *     MILTEN/370 - Release VI - Class I - Stanford Proprietary    *
                                       5              *                                                                 *
                                       6              *******************************************************************
                                       7                       HIBAL
                                     995
                                     996                       SYSDEFN
                                     997
 000000                00000 039E8   998              MILMUD   CSECT
                                    1002              MUD      IDENT 2047                10:16:24 02/16/02  (SLP)
                                    1005             +
                                    1006    01-IDENT +         ENTRY MUD2047
                                    1007             +
 000000 15D4E4C4F2F0F4F7            1008    01-IDENT +MUD2047  DC    AL1(21),C'MUD2047,15MAR04,12:36'
                                    1009             +*
                                    1011                       REGS  ,,FSR,,,,,,BR,BRR,BRRR,(SEGCBR,LSR),CVR,SPR,RAR
                                    1143
                                    1144                       MACRO
                                    1145              &L       SEGLOC &ADDR,&LEN,&SEGCB
                                    1146              &L      $L     R1,&ADDR,ERR='LOCATION MISSING'
                                    1147                      $LA    R0,&LEN
                                    1148                       SEGLD &SEGCB
                                    1149                       LCALL SEGLOC
                                    1150                       MEND
                                    1151
                                    1152                       MACRO
                                    1153              &L       SEGPSW &ADDR,&LEN,&SEGCB
                                    1154              &L      $L     R1,&ADDR,ERR='LOCATION MISSING'
                                    1155                      $LA    R0,&LEN
                                    1156                       SEGLD &SEGCB
                                    1157                       LCALL SEGPSW
                                    1158                       MEND
                                    1159
                                    1160                       PUSH  DSECTS
                                    8884
 000000                00000 00778  8885              CVDSECT  DSECT
                                    8886                       COPY  CV
                                    8887             =         PUSH  ON
 USING  CV,R12                      8891             =         USING CV
                                    8900             =         POP   PRINT
-                                   8903=            =¿þþþþþþþþþþþþþþþþþþþþþþþþþþþþþþþþþþþþþþþþþþþþþþþþþþþþþþþþþþþþþþþþþþþþþÜ
                                    8904=            =Ÿ                                                                     Ÿ
                                    8905=            =Ÿ  Communications Vector                                              Ÿ
                                    8906=            =Ÿ                                                                     Ÿ
                                                      ¾þþþþþþþþþþþþþþþþþþþþþþþþþþþþþþþþþþþþþþþþþþþþþþþþþþþþþþþþþþþþþþþþþþþþþ»
0000000                             8907             =         DS    0D
 000000 C3E54040                    8908             =CVSTART  DC    CL4'CV'
                                    8909             =
 000004                             8910             =         DS    XL44                Ident text  (see MAIN module)
                                    8911             =
 000030 00000038                    8912             =CVECBLIS DC    A(CVECB)            Main ECB ptr
 000034 80000000                    8913             =CVCMECBP DC    X'80',AL3(0)        OS modify ECB ptr
1MUD      (MUD2047) (12:36) (15MAR04) MILTEN's Dump Formatter                                                               Page    4
0Current Usings:  (CV,R12)
0Loc    Object Code    Addr1 Addr2  Stmt Lv Lineno    Source Statement           (Hibal 5, Asmedit 3.3)  HLASM R4.0  2004/03/15 12.36
+___    ______ ____    _____ _____  ____ __ ______    ______ _________
0                                   8914             =
 000038 00000000                    8915             =CVECB    DC    A(0)                Main ECB
                                    8916             =
 00003C                             8917             =CVPARMP  DS    A                   Address of OS parm
 000040                             8918             =CVOSRA   DS    A                   OS return address
 000044 00000000                    8919             =CVRETCOD DC    F'0'                Highest return code
                                    8920             =
 000048                             8921             =CVCOMP   DS    A                   Comm area address
 00004C 00000000                    8922             =CVTCBP   DC    A(0)                TCB ptr
 000050 00000000                    8923             =CVASCBP  DC    A(0)                ASCB ptr
 000054 0000                        8924             =CVASCBID DC    H'0'                Address space id
 000056 FFFF                        8925             =         DC    H'-1'               Reserved
                                    8926             =
 000058 00000000                    8927             =CVSTKP   DC    A(0)                Stack origin ptr
 00005C 00000000                    8928             =CVASTKP  DC    A(0)                Appendage stack origin ptr
                                    8929             =
                                    8930             =CVSUZLEN EQU   256*1024            Suzan buffer size
                                    8931             =
                                    8932             =CVBUFLEN EQU   10*1024,,C'N'       Maximum PDB buffer length
 000060 00000000                    8933             =CVPDBP   DC    A(0)                PDB work area     (10K)
 000064 00000000                    8934             =CVWKBUFP DC    A(0)                General work area (10K)
                                    8935             =
 000068 00000000                    8936             =CVSITP   DC    A(0)                Session info table ptr (in CSA)
                                    8937             =
                                    8938             =CVKSCB#  EQU   50,,C'N'            Number of kept sessions
 00006C 0000000000000000            8939             =CVKSCBS  DC    (CVKSCB#)F'0'       List of KEPT SCB ptrs
                                    8940             =CVKSCBLEN EQU  CVKSCB#*4,,C'X'     Length in bytes of list
                                    8941             =
 000134 00000000                    8942             =CVSCBUID DC    F'0'                Last unique SCB trace id used
                                    8943             =
 000138 FF                          8944             =CVMASK   DC    X'FF'               System interrupt mask
 000139 FF                          8945             =CVKEY    DC    X'FF'               Our protect key
 00013A FF                          8946             =         DC    X'FF'               Reserved
                                    8947             =
 00013B 00                          8948             =CVMACH   FLAG  ,                   Machine flag (see KWRMACH)
 CVMACH.CVFALP     80 EQ            8952             =         FLAG  (CVFALP,X'80',EQ)   - ALPHA machine
 CVMACH.CVFRLG     01 EQ            8962             =         FLAG  (CVFRLG,X'01',EQ)   - RLG   machine
                                    8972             =
 00013C 00                          8973             =CVFLAG   FLAG
 CVFLAG.CVFTEST    80 ONES          8977             =         FLAG  CVFTEST             - Test version
 CVFLAG.CVFNTP     40 ONES          8982             =         FLAG  CVFNTP              - No teleprocessing path
 CVFLAG.CVFNSTAE   20 ONES          8987             =         FLAG  CVFNSTAE            - Don't set stae exit
 CVFLAG.CVFNORET   10 ONES          8992             =         FLAG  CVFNORET            - Don't retry on error
 CVFLAG.CVFABEND   08 ONES          8997             =         FLAG  CVFABEND            - Abending (failsoft/shutdown)
 CVFLAG.CVFSTOP    04 ONES          9002             =         FLAG  CVFSTOP             - No new I/O allowed (shutdown)
 CVFLAG.CVFSPIN    02 ONES          9007             =         FLAG  CVFSPIN             - Spinoff failsoft dumps
 CVFLAG.CVFNHALT   01 ONES          9012             =         FLAG  CVFNHALT            - Don't try to halt I/O's
                                    9017             =
 00013D 00                          9018             =CVFLAG2  FLAG
 CVFLAG2.CVFDFSYS  80 ONES          9022             =         FLAG  CVFDFSYS            - Default system is available
 CVFLAG2.CVFTIMER  40 ONES          9027             =         FLAG  CVFTIMER            - Timer is active
 CVFLAG2.CVFXA     20 ONES          9032             =         FLAG  CVFXA               - MVS/XA (not MVS/370)
 CVFLAG2.CVFDUMP   10 ONES          9037             =         FLAG  CVFDUMP             - Do SYSUDUMP as well as our dump
                                    9042             =
1MUD      (MUD2047) (12:36) (15MAR04) MILTEN's Dump Formatter                                                               Page    5
0Current Usings:  (CV,R12)
0Loc    Object Code    Addr1 Addr2  Stmt Lv Lineno    Source Statement           (Hibal 5, Asmedit 3.3)  HLASM R4.0  2004/03/15 12.36
+___    ______ ____    _____ _____  ____ __ ______    ______ _________
000013E 00                          9043             =CVFLAG3  FLAG
                                    9047             =
 00013F                             9048             =         DS    XL2                 Reserved
                                    9049             =
 000141 4040404040404040            9050             =CVBLANKS DC    CL256' '            Blanks
                                    9051             =
 000248                             9052             =CVWORK   DS    D                   Temp work area
 000250                             9053             =CVDEC    DS    D                   CVD work area
                                    9054             =
 000258                             9055             =CVTOKEN  DS    CL16                Isolated token
 000268                             9056             =CVTOKUPP DS    CL16                Upper case version of CVTOKEN
 000278                             9057             =CVTOKLOC DS    A                   String addr
 00027C                             9058             =CVTOKLEN DS    H                   String length
                                    9059             =
 000280                             9060             =         DS    2D                  Reserved
                                    9061=            =         ¿þþþþþþþþþþþÜ
                                    9062=            =         Ÿ  Queues.  Ÿ
                                    9063=            =         ¾þþþþþþþþþþþ»
 000290 E6E8D3C2E4D94040            9064             =CVDEFSYS DC    CL8'WYLBUR'         Default system name
 000298 00000000                    9065             =CVDEFSUB DC    A(0)                SUB ptr for default system
                                    9066             =
 00029C 00000000                    9067             =CVFEBQH  DC    A(0)                First FEB ptr
 0002A0 00000000                    9068             =CVFEBQT  DC    A(0)                Last FEB ptr
 0002A4 00000000                    9069             =CVFEBID  DC    A(0)                Last FEB identifier used
                                    9070             =
 0002A8 00000000                    9071             =CVSUBQH  DC    A(0)                First SUB ptr
 0002AC 00000000                    9072             =CVSUBQT  DC    A(0)                Last SUB ptr
 0002B0 00000000                    9073             =CVSUBID  DC    A(0)                Last SUB identifier used
                                    9074             =
 0002B4 00000000                    9075             =CVSCBQH  DC    A(0)                First SCB ptr
 0002B8 00000000                    9076             =CVSCBID  DC    A(0)                Last SCB identifier used
                                    9077             =
 0002BC 00000000                    9078             =CVSATP   DC    A(0)                Session address table ptr
                                    9079             =
 0002C0 00000000                    9080             =CVCMDQH  DC    A(0)                First CMD ptr
 0002C4 00000000                    9081             =CVCMDQT  DC    A(0)                Last CMD ptr
 0002C8 00000000                    9082             =CVCMDID  DC    A(0)                Last CMD identifier used
                                    9083             =
 0002CC 00000000                    9084             =CVEIBQH  DC    A(0)                First EIB ptr (ELF info block)
 0002D0 00000000                    9085             =CVEIBQT  DC    A(0)                Last EIB ptr
 0002D4 00000000                    9086             =CVEIBQC  DC    A(0)                Current EIB (last one assigned)
                                    9087             =
 0002D8 FFFFFFFFFFFFFFFF            9088             =         DC    4A(-1)              Reserved
                                    9089             =
 0002E8 00000000                    9090             =CVMONCMD DC    A(0)                Monitor CMD ptr (or zero)
 0002EC                             9091             =CVMONRGS DS    16A                 Working regs (see XMON macro)
                                    9092             =
 00032C 00000000                    9093             =CVMRTSUB DC    A(0)                SUB ptr for mort
 000330 00000000                    9094             =CVMRTTCB DC    A(0)                Mort subtask TCB addr
 000334 00000000                    9095             =CVMRTECB DC    A(0)                Mort subtask's ECB
                                    9096             =
 000338 00000000                    9097             =CVDEVTRC DC    A(0)                Device trace table ptrs
                                    9098             =
 00033C 00000000                    9099             =CVTQEQH  DC    A(0)                Ptr to first TQE
1MUD      (MUD2047) (12:36) (15MAR04) MILTEN's Dump Formatter                                                               Page    6
0Current Usings:  (CV,R12)
0Loc    Object Code    Addr1 Addr2  Stmt Lv Lineno    Source Statement           (Hibal 5, Asmedit 3.3)  HLASM R4.0  2004/03/15 12.36
+___    ______ ____    _____ _____  ____ __ ______    ______ _________
0000340 00000000                    9100             =CVTQEQT  DC    A(0)                TQE queue tail (always zero)
                                    9101             =
 000344 00000000                    9102             =CVIOCBQH DC    A(0)                First IOCB ptr
 000348 00000000                    9103             =CVIOCBQT DC    A(0)                IOCB queue tail
 00034C 00000000                    9104             =CVIOCBPQ DC    A(0)                IOCB purge queue head
                                    9105             =
 000350 00000000                    9106             =CVWTONO  DC    F'0'                Number of entries in queue
 000354 00000000                    9107             =CVWTOQH  DC    A(0)                Ptr to first WTO entry
 000358 00000000                    9108             =CVWTOQT  DC    A(0)                Ptr to last WTO entry
 00035C 00000000                    9109             =CVWTOLK  DC    A(0)                Lock word (non-zero if locked)
                                    9110             =
 000360 00000000                    9111             =CVWTOTCB DC    A(0)                WTO subtask TCB addr
 000364 00000000                    9112             =CVWTOECB DC    F'0'                WTO subtask's ECB
                                    9113             =
 000368 00000000                    9114             =CVLEAK1  DC    F'0'                MPD
 00036C 00000000                    9115             =CVLEAK2  DC    F'0'                MPD
                                    9116             =
 000370 FFFFFFFFFFFFFFFF            9117             =         DC    3F'-1'              Reserved
                                    9118             =
 00037C 00000000                    9119             =CVAPPLOG DC    A(0)                Appendage error logout buffer
                                    9120             =
 000380 00000000                    9121             =CVIOHQ   DC    A(0)                Ptr to first IOH entry
 000384 00000000                    9122             =CVIOHNO  DC    F'0'                Number of entries in queue
                                    9123             =
                                    9124             =CVHTMAX# EQU   30,,C'N'            Max number of I/O halt tasks
 000388 00000000                    9125             =CVHTASKQ DC    A(0)                I/O halt subtask queue head
 00038C 00000000                    9126             =CVHTNO   DC    F'0'                Number of I/O halt subtasks
                                    9127             =
 000390 1388                        9128             =CVMAXSES DC    H'5000'             Maximum no. of sessions
                                    9129             =
 000392 0000000000000000            9130             =CVXLTBL  DC    20XL12'00'          Translate table entries
                                    9131             =CVXLTBE  EQU   *
                                    9132=            =         ¿þþþþþþþþþþþþþþþþþþþþþþþþþþþþþþþþþþÜ
                                    9133=            =         Ÿ  Memory management information.  Ÿ
                                    9134=            =         ¾þþþþþþþþþþþþþþþþþþþþþþþþþþþþþþþþþþ»
                                    9135             =CVRCLEN  EQU   48*1024             Size of reserved memory
 000482 0000
 000484 00000000                    9136             =CVRCLOC  DC    A(0)                Reserved memory ptr
                                    9137             =
 000488                             9138             =         DS    0D
 000488 00000000                    9139             =CVAPCNT  DC    F'0'                Available page count
 00048C 00000000                    9140             =CVAPQH   DC    A(0)                Ptr to first available page
                                    9141=            =         ¿þþþþþþþþþþþþþþþþþþþþþÜ
                                    9142=            =         Ÿ  Common addresses.  Ÿ
                                    9143=            =         ¾þþþþþþþþþþþþþþþþþþþþþ»
 000490 00000000                    9144             =CVPARTBL DC    V(EPARTBL)          Translate to even parity
 000494 00000000                    9145             =CVNPRTBL DC    V(NPARTBL)          Translate to zero parity
 000498 00000000                    9146             =CVUPPTBL DC    V(UPPTBL)           Translate to upper table
 00049C 00000000                    9147             =CVLOWTBL DC    V(LOWTBL)           Translate to lower table
 0004A0 00000000                    9148             =CVASCTBL DC    V(ASCTBL)           EBCDIC to ASCII table
 0004A4 00000000                    9149             =CVEBCTBL DC    V(EBCTBL)           ASCII to EBCDIC table
 0004A8 00000000                    9150             =CVBLTBL  DC    V(BLTBL)            Blanks TRT table
 0004AC 00000000                    9151             =CVNBLTBL DC    V(NBLTBL)           Non-blanks TRT table
 0004B0 00000000                    9152             =CVEB7TBL DC    V(EBCTBL7)          ASCII-7 to EBCDIC table
1MUD      (MUD2047) (12:36) (15MAR04) MILTEN's Dump Formatter                                                               Page    7
0Current Usings:  (CV,R12)
0Loc    Object Code    Addr1 Addr2  Stmt Lv Lineno    Source Statement           (Hibal 5, Asmedit 3.3)  HLASM R4.0  2004/03/15 12.36
+___    ______ ____    _____ _____  ____ __ ______    ______ _________
0                                   9153             =
1MUD      (MUD2047) (12:36) (15MAR04) DSECTS                                                                                Page    8
0Current Usings:  (CV,R12)
0D-Loc  Object Code    Addr1 Addr2  Stmt Lv Lineno    Source Statement           (Hibal 5, Asmedit 3.3)  HLASM R4.0  2004/03/15 12.36
+_____  ______ ____    _____ _____  ____ __ ______    ______ _________
0                                   9155             =CVM      MIB
 0004B8                             9157    01-MIB   +CVMSTART DS    0D
 0004B8 D4C9D3E3C5D54040            9158    01-MIB   +CVMNAME  DC    CL8'MILTEN'         name (MILTEN/TESTMIL)
 0004C0 0000000000000000            9159    01-MIB   +CVMJOBNM DC    XL8'00'             jobname
 0004C8 0000000000000000            9160    01-MIB   +CVMVERS  DC    XL80'00'            version text
                                    9161             +
 000518 00000000                    9162    01-MIB   +CVMCLCK  DC    F'0'                clock at start
 00051C 00                          9163             +*
 CVMFLAG.CVMFSTOP  80 ONES
 00051D 00                          9173    01-MIB   +         DC    X'00'               reserved
                                    9174             +
 00051E 0000                                         +
 000520 00000000                    9175    01-MIB   +CVMNIO   DC    F'0'                no. of I/O's
 000524 00000000                    9176    01-MIB   +CVMNAPP  DC    F'0'                no. of appendage entries
                                    9177             +
 000528 00000000                    9178    01-MIB   +CVMTLSES DC    F'0'                total no. of sessions
 00052C 0000                        9179    01-MIB   +CVMCRSES DC    H'0'                current no. of logged on users
 00052E 0000                        9180    01-MIB   +CVMMXSES DC    H'0'                maximum no. of logged on users
 000530 00000000                    9181    01-MIB   +CVMCKSES DC    F'0'                clock at max users
                                    9182             +
 000534 0000                        9183    01-MIB   +CVMNHIOT DC    H'0'                No. of HALTIO subtasks
 000536 0000                        9184    01-MIB   +CVMNFULQ DC    H'0'                no. of subsys full-queues
                                    9185             +
 000538 0000                        9186    01-MIB   +CVMHQCUR DC    H'0'                Current HALTIO queue depth
 00053A 0000                        9187    01-MIB   +CVMHQMAX DC    H'0'                Maximum HALTIO queue depth
 00053C 0000                        9188    01-MIB   +CVMHQDEV DC    H'0'                Current HALTIO unit address
                                    9189             +
 00053E 0000                        9190    01-MIB   +CVMCRVIR DC    H'0'                current no. of virtual front-ends
                                    9191             +
 000540 0000                        9192    01-MIB   +CVMNFAIL DC    H'0'                no. of failsofts
 000542 0000                        9193    01-MIB   +CVMNAPPF DC    H'0'                no. of appendage failsofts
 000544 00000000                    9194    01-MIB   +CVMFCLCK DC    F'0'                clock at failsoft
 000548 0000000000000000            9195    01-MIB   +CVMFINFO DC    XL64'00'            failsoft text
                                    9196             +
 000588 00000000                    9197    01-MIB   +CVMNLOWM DC    F'0'                no. of low memory conditions
 00058C 00000000                    9198    01-MIB   +CVMNNOM  DC    F'0'                no. of no memory conditions
                                    9199             +
 000590 00000000                    9200    01-MIB   +CVMFXCNT DC    F'0'                no. of getfix requests
 000594 00000000                    9201    01-MIB   +CVMFXCUR DC    F'0'                current fixed core usage
 000598 00000000                    9202    01-MIB   +CVMFXMAX DC    F'0'                maximum fixed core usage
                                    9203             +
 00059C 00000000                    9204    01-MIB   +CVMPGCNT DC    F'0'                no. of getcore requests
 0005A0 00000000                    9205    01-MIB   +CVMPGCUR DC    F'0'                current paged core usage
 0005A4 00000000                    9206    01-MIB   +CVMPGMAX DC    F'0'                maximum paged core usage
                                    9207             +
 0005A8 00000000                    9208    01-MIB   +CVMCSCNT DC    F'0'                no. of CSA getmains
 0005AC 00000000                    9209    01-MIB   +CVMCSCUR DC    F'0'                current CSA core usage
 0005B0 00000000                    9210    01-MIB   +CVMCSMAX DC    F'0'                maximum CSA core usage
                                    9211    01-MIB   +CVM      EQU   CVMSTART,*-CVMSTART,C'X'
1MUD      (MUD2047) (12:36) (15MAR04) DSECTS                                                                                Page    9
0Current Usings:  (CV,R12)
0D-Loc  Object Code    Addr1 Addr2  Stmt Lv Lineno    Source Statement           (Hibal 5, Asmedit 3.3)  HLASM R4.0  2004/03/15 12.36
+_____  ______ ____    _____ _____  ____ __ ______    ______ _________
00005B4                             9214             =         SCANCB PFX=CVSCN
                                    9227             =
 0005D4 00/00/0000/00000_           9228             =CVWSG    SEGCB CVWSGBUF
 CVWSGCOD.CVWSGSEG 01 EQ
 CVWSGCOD.CVWSGWR  02 EQ
 CVWSGCOD.CVWSGCLR 03 EQ
 CVWSGCOD.CVWSGSPP 04 EQ
 CVWSGCOD.CVWSGOVF 05 EQ
 CVWSGCOD.CVWSGCR  06 EQ
 CVWSGCOD.CVWSGMAR 07 EQ
                                    9316             =CVWSGCC  EQU   CVWSGUSR+3,1,C'C'   New CC char
 000610                             9317             =CVWSGBUF DS    CL235
-0006FC                             9319             =         DS    0F'0'
 0006FC 0000000000000000            9320             =CVNIZSAV DC    XL40'00'            Very temporary save buffer
-000724 58F0 1004/12FF       00004  9322             =CVTRCRTN LT    R15,@R1+4           Current entry to use
 00072A 078E                        9326             =         BZR   RAR                 No trace table
 00072C 180F                        9327             =         LR    R0,R15
 00072E 5A00 1000            00000  9328             =         A     R0,@R1              Next entry
 000732 5900 100C            0000C  9329             =         C     R0,@R1+12           Time to reset?
 000736 4740 C73E            0073E  9330             =         BL    *+8                 No
 00073A 5800 1008            00008  9331             =         L     R0,@R1+8            First entry
 00073E BAF0 1004            00004  9332             =         CS    R15,R0,@R1+4        Update current trace ptr
 000742 4770 C724            00724  9333             =         BNZ   CVTRCRTN            Something changed
 000746 B205 F000      00000        9334             =         STCK  @R15                Save time in trace entry
 00074A 12FF                        9335             =         LTR   R15,R15             Set condition code
 00074C 07FE                        9336             =         BR    RAR
                                    9337=            =         ¿þþþþþþþþþþþþþþþþþþþþþþþþþþÜ
                                    9338=            =         Ÿ  Debugging information.  Ÿ
                                    9339=            =         ¾þþþþþþþþþþþþþþþþþþþþþþþþþþ»
 00074E 0000
 000750 00000000                    9340             =CVCURFEB DC    A(0)                Current FEB ptr
 000754 00000000                    9341             =CVCURPIB DC    A(0)                Current PIB ptr
 000758 00000000                    9342             =CVCURSCB DC    A(0)                Current SCB ptr
 00075C 00000000                    9343             =CVCURSUB DC    A(0)                Current SUB ptr
 000760 00000000                    9344             =CVCURCMD DC    A(0)                Current CMD ptr
 000764 00000000                    9345             =CVCURFRSCB DC  A(0)                SCB with possible bad PIB ptr
 000768 0000000000000000            9346             =         DC    4A(0)               Reserved
                                    9347             =CVCUR    EQU   CVCURFEB,*-CVCURFEB,C'X'
                                    9348             =
                                    9349             =CV       EQU   CVSTART,*-CVSTART,C'X'
1MUD      (MUD2047) (12:36) (15MAR04) DSECTS                                                                                Page   10
0Current Usings:  (CV,R12)
0D-Loc  Object Code    Addr1 Addr2  Stmt Lv Lineno    Source Statement           (Hibal 5, Asmedit 3.3)  HLASM R4.0  2004/03/15 12.36
+_____  ______ ____    _____ _____  ____ __ ______    ______ _________
0                                   9351                       COPY  TQE
 000000                00000 0001C  9352             =TQE      RECORD BEGIN
 000000                             9360  1          =           DS    CL4'TQE'
 000004                             9361  1          =TQELINK    DS    A                   next tqe ptr (or zero)
 000008                             9362  1          =TQEBACK    DS    A                   back tqe ptr
 00000C                             9363  1          =TQECLCK    DS    XL8                 expiration tod clock
 000014                             9364  1          =TQERTN     DS    A                   exit routine addr
 000018                             9365  1          =TQEPARM    DS    A                   exit routine parm
 00001C                0001C 0001C  9366             =         END
1MUD      (MUD2047) (12:36) (15MAR04) DSECTS                                                                                Page   11
0Current Usings:  (CV,R12)
0D-Loc  Object Code    Addr1 Addr2  Stmt Lv Lineno    Source Statement           (Hibal 5, Asmedit 3.3)  HLASM R4.0  2004/03/15 12.36
+_____  ______ ____    _____ _____  ____ __ ______    ______ _________
0                                   9376                       COPY  SUB
                                    9377=            =¿þþþþþþþþþþþþþþþþþþþþþþþþþþþþþþþþþþþþþþþþþþþþþþþþþþþþþþþþþþþþþþþþþþþþþÜ
                                    9378=            =Ÿ                                                                     Ÿ
                                    9379=            =Ÿ  Subsystem Block                                                    Ÿ
                                    9380=            =Ÿ                                                                     Ÿ
                                                      ¾þþþþþþþþþþþþþþþþþþþþþþþþþþþþþþþþþþþþþþþþþþþþþþþþþþþþþþþþþþþþþþþþþþþþþ»
0000000                00000 00084  9381             =SUB      RECORD BEGIN
 000000                             9389  1          =           DS    CL4'SUB'
 000004                             9390  1          =SUBID      DS    H                   Subsystem identifier
 000006                             9391  1          =           DS    H                   Reserved
                                    9392  1          =
 000008                             9393  1          =SUBLINK    DS    F                   Ptr to next SUB (or zero)
 00000C                             9394  1          =SUBASCBP   DS    A                   Subsystems ASCB ptr
                                    9395  1          =
 000010                             9396  1          =SUBNAME    DS    CL8                 Subsystem name
 000018                             9397  1          =SUBJOBNM   DS    CL8                 Subsystem jobname
 000020 00                          9398  1          =SUBFLAG    FLAG
 SUBFLAG.SUBFPRIV  80 ONES          9402  1          =           FLAG  SUBFPRIV            - Priv'd subsystem
                                    9407  1          =
 000021                             9408  1          =           DS    XL3                 Reserved
                                    9409  1          =
 000024                             9410  1          =SUBSCLCK   DS    XL8                 Clock at start
                                    9411  1          =
 00002C                             9412  1          =SUBMAX     DS    H                   Maximum no. of sessions
 00002E                             9413  1          =SUBCUR     DS    H                   Current no. of sessions
                                    9414  1          =
 000030                             9415  1          =SUBNIO     DS    F                   Total no. of I/O's
 000034                             9416  1          =SUBNCNTL   DS    F                   Total no. of controls
 000038                             9417  1          =SUBNSES    DS    F                   Total no. of sessions
 00003C                             9418  1          =SUBNFAIL   DS    F                   Number of unexpected failures
 000040                             9419  1          =           DS    F                   Reserved
                                    9420  1          =SUBBASIC   EQU   SUBNAME,*-SUBNAME,C'X'  ******
                                    9421  1          =
 000044                             9422  1          =SUBPDBQH   DS    A                   Pending PDB queue head
                                    9423  1          =
                                    9424  1         C=SUBPATHX   PATH  PFX=SUBP,ECB=0,FLAG=SUBSFLAG,MYTAG=*,YOURTAG=*,PASS=*,
                                          1                            VERSION=2
 000048                             9425  1 01-PATH  +SUBPATHX   DC    0F'0'
 000048                             9426  1 01-PATH  +SUBP       DC    0F'0'
 000048 00000000                    9428  1 02-DEFIN +SUBPMGC    DC    AL4(0)
 00004C 00000000                    9430  1 02-DEFIN +SUBPDJNM   DC    AL4(0)
 000050 5C40404040404040            9432  1 02-DEFIN +SUBPMY     DC    CL8'*'
 000058 5C40404040404040            9434  1 02-DEFIN +SUBPYOU    DC    CL8'*'
 000060 A0                          9436  1 02-DEFIN +SUBPMFL    DC    AL1(1*X'80'+0*X'40'+1*X'20')
                                    9437  1          +
                                    9438  1 01-PATH  +SUBPVER2    EQU  X'80'         CALLER IS USING VERSION 2
                                    9439  1 01-PATH  +SUBPMCTL    EQU  X'40'         CALLER ASKS TERMINATION CONTROL
                                    9440  1 01-PATH  +SUBPMNAM    EQU  X'20'         CALLER PROVIDES CALLEE NAME
                                    9441  1 01-PATH  +SUBPMDP1    EQU  X'10'         DUPLICATE TAGS FOUND: MY=PCBO, YOU=PCBA
                                    9442  1 01-PATH  +SUBPMDP2    EQU  X'08'         DUPLICATE TAGS FOUND: MY=PCBA, YOU=PCBO
                                    9443  1          +
 000061 000000                      9445  1 02-DEFIN +SUBPOECB   DC    AL3(0)
 000064 00000000                    9447  1 02-DEFIN +SUBPBUF    DC    AL4(0)
1MUD      (MUD2047) (12:36) (15MAR04) DSECTS                                                                                Page   12
0Current Usings:  (CV,R12)
0D-Loc  Object Code    Addr1 Addr2  Stmt Lv Lineno    Source Statement           (Hibal 5, Asmedit 3.3)  HLASM R4.0  2004/03/15 12.36
+_____  ______ ____    _____ _____  ____ __ ______    ______ _________
0000068 00000080                    9449  1 02-DEFIN +SUBPECBF   DC    AL4(SUBSFLAG)
                                    9450  1          +
                                    9451  1 01-PATH  +SUBPFCLS    EQU   X'80'         I AM POSTED BECAUSE HE CLOSED
                                    9452  1 01-PATH  +SUBPFFQE    EQU   X'40'         I AM POSTED BECAUSE HIS FULL Q EMPTIED
                                    9453  1 01-PATH  +SUBPFNI     EQU   X'20'         I AM POSTED BECAUSE NEW INFO IN MY Q
                                    9454  1 01-PATH  +SUBPFDP     EQU   X'10'         I AM POSTED AT HIS DISCRETION
                                    9455  1 01-PATH  +SUBPFOPN    EQU   X'08'         I AM POSTED BECAUSE HE OPENED
                                    9456  1 01-PATH  +SUBPFCLC    EQU   X'04'         I AM POSTED BECAUSE MY CLOSE IS COMPLETE
                                    9457  1          +
 00006C 5C404040                    9459  1 02-DEFIN +SUBPPASS   DC    CL4'*'
 000070 00000000                    9461  1 02-DEFIN +SUBPECB    DC    AL4(0)
 000074 00000000                    9463  1 02-DEFIN +SUBPEXIT   DC    AL4(0)
 000078 00000000                    9465  1 02-DEFIN +SUBPPINP   DC    XL4'0'
 00007C 00000000                    9467  1 02-DEFIN +SUBPRESV   DC    XL4'0'
                                    9468  1          +*
                                    9469  1          +*  VERSION 2 RETURN CODES
                                    9470  1          +*
                                    9471  1 01-PATH  +SUBPROK     EQU  0                       COMPLETE OK
                                    9472  1 01-PATH  +SUBPRIFC    EQU  4                       INVALID FUNCTION CODE
                                    9473  1 01-PATH  +SUBPRPMW    EQU  8                       INVALID PATH MAGIC WORD
                                    9474  1 01-PATH  +SUBPRBAF    EQU  12                      PARTNER'S BUFFER AREA FULL
                                    9475  1 01-PATH  +SUBPRNOP    EQU  16                      PARTNER NOT THERE
                                    9476  1 01-PATH  +SUBPRBOM    EQU  20                      BUFFER OVER PARTNER'S MAXIMUM
                                    9477  1 01-PATH  +SUBPRIBS    EQU  24                      RECEIVE BUFFER TOO SMALL
                                    9478  1 01-PATH  +SUBPRBPI    EQU  28                      INVALID BUFFER POINTER
                                    9479  1 01-PATH  +SUBPRIAD    EQU  32                      INVALID ADDRESS
                                    9480  1 01-PATH  +SUBPRES1    EQU  36                      RESERVED
                                    9481  1 01-PATH  +SUBPRES2    EQU  40                      RESERVED
                                    9482  1 01-PATH  +SUBPRES3    EQU  44                      RESERVED
                                    9483  1 01-PATH  +SUBPRES4    EQU  48                      RESERVED
                                    9484  1          +
                                    9485  1 01-PATH  +SUBPSIZE    EQU  *-SUBP        LENGTH OF PATH BLOCK
                                    9486  1          =SUBPATH    EQU   SUBPATHX,*-SUBPATHX,C'X'
                                    9487  1          =
 000080                             9488  1          =SUBSFLAG   DS    X                   Susan post flag byte
 000081                             9489  1          =           DS    XL3                 Reserved
 000084                00084 00084  9490             =         END
1MUD      (MUD2047) (12:36) (15MAR04) DSECTS                                                                                Page   13
0Current Usings:  (CV,R12)
0D-Loc  Object Code    Addr1 Addr2  Stmt Lv Lineno    Source Statement           (Hibal 5, Asmedit 3.3)  HLASM R4.0  2004/03/15 12.36
+_____  ______ ____    _____ _____  ____ __ ______    ______ _________
0000000                00000 000B8  9500              FEB      RECORD BEGIN
                                    9508  1                      COPY  FEB
                                    9509= 1          =¿þþþþþþþþþþþþþþþþþþþþþþþþþþþþþþþþþþþþþþþþþþþþþþþþþþþþþþþþþþþþþþþþþþþþþÜ
                                    9510= 1          =Ÿ                                                                     Ÿ
                                    9511= 1          =Ÿ  Front End Block                                                    Ÿ
                                    9512= 1          =Ÿ                                                                     Ÿ
                                          1           ¾þþþþþþþþþþþþþþþþþþþþþþþþþþþþþþþþþþþþþþþþþþþþþþþþþþþþþþþþþþþþþþþþþþþþþ»
0000000                             9513  1          =           DS    CL4'FEB'
 000004                             9514  1          =FEBID      DS    H                   Unique identifier
 000006                             9515  1          =           DS    H                   Reserved
                                    9516  1          =
 000008                             9517  1          =FEBLINK    DS    A                   Ptr to next FEB (or zero)
                                    9518  1          =
 00000C 00                          9519  1          =FEBGFLG    FLAG
 FEBGFLG.FEBFFIX   80 ONES          9523  1          =           FLAG  FEBFFIX             - FEB is in page-fixed core
 FEBGFLG.FEBFOPEN  40 ONES          9528  1          =           FLAG  FEBFOPEN            - Front-end is open
                                    9533  1          =
 00000D                             9534  1          =FEBTYPE    DS    X                   Type
                                    9535  1          =FEBTCONS   EQU   1                   - Console
                                    9536  1          =FEBTASYN   EQU   2                   - Async (3705ep, 1270, etc.)
                                    9537  1          =FEBTPDP    EQU   3                   - Pdp
                                    9538  1          =FEBTVTAM   EQU   4                   - Vtam
                                    9539  1          =FEBTVIRT   EQU   5                   - Virtual
                                    9540  1          =FEBTNSC    EQU   6                   - Nsc (RLIN)
                                    9541  1          =FEBTELF    EQU   7                   - Elf
                                    9542  1          =FEBTALF    EQU   8                   - Alf
                                    9543  1          =FEBTECU    EQU   9                   - ECU (RLIN)
                                    9544  1          =FEBTMAX    EQU   9
                                    9545  1          =
 000010                             9546  1          =           DS    0F
 000010                             9547  1          =FEBUC      DS    H                   Update count
 000012                             9548  1          =FEBTMLIM   DS    H                   Notime limit during PEAK times
                                    9549  1          =
 000014                             9550  1          =FEBNAME    DS    CL8                 Name
 00001C                             9551  1          =FEBINFO    DS    CL12                Info (text)
                                    9552  1          =
 000028                             9553  1          =FEBMCLCK   DS    XL8                 Clock when message was set
 000030                             9554  1          =FEBMSG     DS    CL64                Message
                                    9555  1          =
 000070 00                          9556  1          =FEBPFLG    FLAG
 FEBPFLG.FEBFPS    80 ONES          9560  1          =           FLAG  FEBFPS              - "Pseudo" front-end
 FEBPFLG.FEBFLEAS  40 ONES          9565  1          =           FLAG  FEBFLEAS            - Front-end is leased
 FEBPFLG.FEBFRLIN  20 ONES          9570  1          =           FLAG  FEBFRLIN            - Front-end belongs to rlin
                                    9575  1          =
 000071 00                          9576  1          =FEBPFLG2   FLAG
 FEBPFLG2.FEBFCLS  80 ONES          9580  1          =           FLAG  FEBFCLS             - Closed
 FEBPFLG2.FEBFDET  40 ONES          9585  1          =           FLAG  FEBFDET             - Detached
 FEBPFLG2.FEBFDOWN 20 ONES          9590  1          =           FLAG  FEBFDOWN            - Status: down
                                    9595  1          =
 000072                             9596  1          =FEBQMAX    DS    H                   Max I/O queue size (for stats)
                                    9597  1          =
 000074                             9598  1          =FEBPCUR    DS    H                   Current no. of ports
 000076                             9599  1          =FEBPMAX    DS    H                   Max no. of ports
1MUD      (MUD2047) (12:36) (15MAR04) DSECTS                                                                                Page   14
0Current Usings:  (CV,R12)
0D-Loc  Object Code    Addr1 Addr2  Stmt Lv Lineno    Source Statement           (Hibal 5, Asmedit 3.3)  HLASM R4.0  2004/03/15 12.36
+_____  ______ ____    _____ _____  ____ __ ______    ______ _________
0                                   9600  1          =
 000078                             9601  1          =FEBSCLCK   DS    XL8                 Clock at start
                                    9602  1          =
 000080                             9603  1          =FEBSCUR    DS    H                   Current no. of sessions
 000082                             9604  1          =FEBSMAX    DS    H                   Max no. of sessions
 000084                             9605  1          =FEBSMCLK   DS    XL8                 Clock at max
 00008C                             9606  1          =FEBNSES    DS    F                   Total no. of sessions
                                    9607  1          =
 000090                             9608  1          =FEBNIO     DS    F                   Total no. of I/O's
 000094                             9609  1          =FEBNHWE    DS    F                   Total no. of hw errors
                                    9610  1          =FEBBASIC   EQU   FEBUC,*-FEBUC,C'X'  ******
                                    9611  1          =
 000098                             9612  1          =FEBPATP    DS    A                   PAT ptr
                                    9613  1          =
 00009C                             9614  1          =FEBTRCP    DS    4A                  Trace ptrs: len,cur,first,end
                                    9615  1          =
 0000AC                             9616  1          =           DS    2F                  Reserved
                                    9617  1          =
 0000B8                             9618  1          =           DS    0D
 0000B8                000B8 000B8  9619                       END
1MUD      (MUD2047) (12:36) (15MAR04) DSECTS                                                                                Page   15
0Current Usings:  (CV,R12)
0D-Loc  Object Code    Addr1 Addr2  Stmt Lv Lineno    Source Statement           (Hibal 5, Asmedit 3.3)  HLASM R4.0  2004/03/15 12.36
+_____  ______ ____    _____ _____  ____ __ ______    ______ _________
0000000                00000 000A0  9629              PIB      RECORD BEGIN
                                    9637  1                      COPY  PIB
                                    9638= 1          =¿þþþþþþþþþþþþþþþþþþþþþþþþþþþþþþþþþþþþþþþþþþþþþþþþþþþþþþþþþþþþþþþþþþþþþÜ
                                    9639= 1          =Ÿ                                                                     Ÿ
                                    9640= 1          =Ÿ  Port Information Block                                             Ÿ
                                    9641= 1          =Ÿ                                                                     Ÿ
                                          1           ¾þþþþþþþþþþþþþþþþþþþþþþþþþþþþþþþþþþþþþþþþþþþþþþþþþþþþþþþþþþþþþþþþþþþþþ»
0000000                             9642  1          =           DS    CL4'PIB'
 000004                             9643  1          =PIBNO      DS    H                   Port number
 000006                             9644  1          =           DS    H                   Reserved
 000008                             9645  1          =PIBFEBP    DS    A                   FEB ptr
 00000C                             9646  1          =PIBSCBP    DS    A                   SCB ptr
 000010                             9647  1          =PIBDFSYS   DS    CL8                 Default subsystem name (or zeros)
                                    9648  1          =
 000018 00                          9649  1          =PIBGFLG    FLAG
 PIBGFLG.PIBFFIX   80 ONES          9653  1          =           FLAG  PIBFFIX             - PIB is in page-fixed core
                                    9658  1          =
 000019                             9659  1          =PIBTID     DS    CL8                 Pre-assigned terminal id
                                    9660  1          =
 000021                             9661  1          =PIBDFACT   DS    XL5                 Default logon account (uuugg)
                                    9662  1          =
 000026                             9663  1          =PIBTETYP   DS    X                   SMF port type
 000027                             9664  1          =           DS    XL3                 Reserved
                                    9665  1          =
 00002C                             9666  1          =           DS    F                   Reserved
                                    9667  1          =
 000030                             9668  1          =           DS    0F
 000030                             9669  1          =PIBUC      DS    H                   Update count
 000032                             9670  1          =           DS    XL2                 Reserved
                                    9671  1          =
 000034                             9672  1          =PIBNAME    DS    CL8                 Port name
 00003C                             9673  1          =PIBINFO    DS    CL20                Port information (NCC address)
 000050                             9674  1          =PIBLOC     DS    CL20                Port location
                                    9675  1          =
 000064 00                          9676  1          =PIBFLAG    FLAG
 PIBFLAG.PIBFDIAL  80 ONES          9680  1          =           FLAG  PIBFDIAL            - Dial-up
 PIBFLAG.PIBFSUN   40 ONES          9685  1          =           FLAG  PIBFSUN             - SUNet
 PIBFLAG.PIBFDIR   20 ONES          9690  1          =           FLAG  PIBFDIR             - Direct
 PIBFLAG.PIBFGAND  10 ONES          9695  1          =           FLAG  PIBFGAND            - Gandalf
 PIBFLAG.PIBFDUMB  08 ONES          9700  1          =           FLAG  PIBFDUMB            - Dumb front-end (ASYNC, etc.)
                                    9705  1          =
 000065 00                          9706  1          =PIBFLAG2   FLAG
 PIBFLAG2.PIBFLEAS 80 ONES          9710  1          =           FLAG  PIBFLEAS            - Leased
 PIBFLAG2.PIBFTEL  40 ONES          9715  1          =           FLAG  PIBFTEL             - Telenet
 PIBFLAG2.PIBFTYM  20 ONES          9720  1          =           FLAG  PIBFTYM             - Tymnet
 PIBFLAG2.PIBFRLIN 10 ONES          9725  1          =           FLAG  PIBFRLIN            - Rlin
                                    9730  1          =
 000066 00                          9731  1          =PIBFLAG3   FLAG
 PIBFLAG3.PIBFPS   80 ONES          9735  1          =           FLAG  PIBFPS              - Pseudo session
 PIBFLAG3.PIBFPTID 40 ONES          9740  1          =           FLAG  PIBFPTID            - Terminal id is pre-assigned
 PIBFLAG3.PIBFOP   20 ONES          9745  1          =           FLAG  PIBFOP              - Operator
 PIBFLAG3.PIBFSEC  10 ONES          9750  1          =           FLAG  PIBFSEC             - Secure session
 PIBFLAG3.PIBFSEST 08 ONES          9755  1          =           FLAG  PIBFSESTRC          - Do session tracing
1MUD      (MUD2047) (12:36) (15MAR04) DSECTS                                                                                Page   16
0Current Usings:  (CV,R12)
0D-Loc  Object Code    Addr1 Addr2  Stmt Lv Lineno    Source Statement           (Hibal 5, Asmedit 3.3)  HLASM R4.0  2004/03/15 12.36
+_____  ______ ____    _____ _____  ____ __ ______    ______ _________
0PIBFLAG3.PIBFSESK 04 ONES          9760  1          =           FLAG  PIBFSESKEEP         - Keep session corpse around
                                    9765  1          =
 000067 00                          9766  1          =PIBFLAG4   FLAG
 PIBFLAG4.PIBFSTOP 80 ONES          9770  1          =           FLAG  PIBFSTOP            - Stopped
 PIBFLAG4.PIBFDET  40 ONES          9775  1          =           FLAG  PIBFDET             - Detached
 PIBFLAG4.PIBFDUM  20 ONES          9780  1          =           FLAG  PIBFDUM             - Dummy
                                    9785  1          =
 000068 00                          9786  1          =PIBFLAG5   FLAG
 PIBFLAG5.PIBFDOWN 80 ONES          9790  1          =           FLAG  PIBFDOWN            - Status: down
 PIBFLAG5.PIBFHU   40 ONES          9795  1          =           FLAG  PIBFHU              - Status: hung-up
 PIBFLAG5.PIBFERR  20 ONES          9800  1          =           FLAG  PIBFERR             - Status: serious error occurred
                                    9805  1          =
 000069                             9806  1          =           DS    X                   Reserved
                                    9807  1          =PIBSIB     EQU   PIBNAME,*-PIBNAME,C'X'
                                    9808  1          =
 00006A                             9809  1          =PIBSCUR    DS    H                   Current no. of sessions
 00006C                             9810  1          =PIBSMAX    DS    H                   Max no. of sessions
 00006E                             9811  1          =PIBSMCLK   DS    XL8                 Clock at max
 000078                             9812  1          =PIBNSES    DS    F                   Total no. of sessions
                                    9813  1          =
 00007C                             9814  1          =PIBNIO     DS    F                   Total no. of I/O's
 000080                             9815  1          =PIBNHWE    DS    F                   Total no. of hw errors
                                    9816  1          =
 000084                             9817  1          =PIBDEVD    DS    F                   Device dependent data
 000088                             9818  1          =           DS    2F                  Reserved
                                    9819  1          =PIBBASIC   EQU   PIBUC,*-PIBUC,C'X'  ******
                                    9820  1          =
 000090                             9821  1          =PIBTRCP    DS    4A                  Trace ptrs: len,cur,first,end
                                    9822  1          =
 0000A0                             9823  1          =           DS    0D
 0000A0                000A0 000A0  9824                       END
1MUD      (MUD2047) (12:36) (15MAR04) DSECTS                                                                                Page   17
0Current Usings:  (CV,R12)
0D-Loc  Object Code    Addr1 Addr2  Stmt Lv Lineno    Source Statement           (Hibal 5, Asmedit 3.3)  HLASM R4.0  2004/03/15 12.36
+_____  ______ ____    _____ _____  ____ __ ______    ______ _________
0000000                00000 001B2  9834              SCB      RECORD BEGIN
                                    9842  1                      COPY  SCB
                                    9843= 1          =¿þþþþþþþþþþþþþþþþþþþþþþþþþþþþþþþþþþþþþþþþþþþþþþþþþþþþþþþþþþþþþþþþþþþþþÜ
                                    9844= 1          =Ÿ                                                                     Ÿ
                                    9845= 1          =Ÿ  Session Control Block                                              Ÿ
                                    9846= 1          =Ÿ                                                                     Ÿ
                                          1           ¾þþþþþþþþþþþþþþþþþþþþþþþþþþþþþþþþþþþþþþþþþþþþþþþþþþþþþþþþþþþþþþþþþþþþþ»
0000000                             9847  1          =           DS    CL4'SCB'
 000004                             9848  1          =SCBLINK    DS    A                   Ptr to next SCB (or zero)
                                    9849  1          =
 000008                             9850  1          =SCBPIBP    DS    A                   PIB ptr
 00000C                             9851  1          =SCBSUBP    DS    A                   SUB ptr
 000010                             9852  1          =SCBXLEP    DS    A                   User translation table ptr
                                    9853  1          =
 000014                             9854  1          =SCBSINP    DS    A                   SIN ptr (in ECSA)
                                    9855  1          =
 000018                             9856  1          =SCBPDBP    DS    A                   Current PDB ptr
 00001C                             9857  1          =SCBSPDBP   DS    A                   Saved sync PDB ptr
 000020                             9858  1          =SCBCPDBP   DS    A                   Continuation PDB ptr
                                    9859  1          =
 000024                             9860  1          =SCBAWRQH   DS    A                   Async write queue head
 000028                             9861  1          =SCBAWRQT   DS    A                   Async write queue tail
                                    9862  1          =
 00002C                             9863  1          =SCBDSUBP   DS    A                   Default SUB ptr
                                    9864  1          =
 000030                             9865  1          =SCBSUBL    DS    20A                 Subsystem SUB list
                                    9866  1          =SCBSUBE    EQU   *
                                    9867  1          =
 000080                             9868  1          =SCBSTAG    DS    CL16                Unique session tag
 000090                             9869  1          =           DS    CL32                Reserved
                                    9870  1          =
 0000B0 00                          9871  1          =SCBTFLG    FLAG
 SCBTFLG.SCBTFSYN  80 ONES          9875  1          =           FLAG  SCBTFSYN            - Doing sync operation
 SCBTFLG.SCBTFIO   40 ONES          9880  1          =           FLAG  SCBTFIO             - Doing terminal I/O
 SCBTFLG.SCBTFAIO  20 ONES          9885  1          =           FLAG  SCBTFAIO            - Doing async terminal I/O
 SCBTFLG.SCBTFSIO  10 ONES          9890  1          =           FLAG  SCBTFSIO            - Doing system ("@@SYS") I/O
 SCBTFLG.SCBTFQIO  08 ONES          9895  1          =           FLAG  SCBTFQIO            - Doing quiet I/O
 SCBTFLG.SCBTFHIO  04 ONES          9900  1          =           FLAG  SCBTFHIO            - Halt initiated by user request
                                    9905  1          =
 0000B1 00                          9906  1          =SCBTFLG2   FLAG
 SCBTFLG2.SCBTFPNL 80 ONES          9910  1          =           FLAG  SCBTFPNL            - Pending NL
 SCBTFLG2.SCBTFPP  40 ONES          9915  1          =           FLAG  SCBTFPP             - Doing page/pause read
 SCBTFLG2.SCBTFREP 20 ONES          9920  1          =           FLAG  SCBTFREP            - Interrupted read, must re-prompt
 SCBTFLG2.SCBTFPRI 10 ONES          9925  1          =           FLAG  SCBTFPRI            - Pending read cr idles
 SCBTFLG2.SCBTFBRK 08 ONES          9930  1          =           FLAG  SCBTFBRK            - Sync operation BREAK executed
                                    9935  1          =
 0000B2 00                          9936  1          =SCBXFLG    FLAG
 SCBXFLG.SCBFWARN  80 ONES          9940  1          =           FLAG  SCBFWARN            - First timeout warning given
 SCBXFLG.SCBFTDAY  40 ONES          9945  1          =           FLAG  SCBFTDAY            - Only timeout during the day
                                    9950  1          =
 0000B3                             9951  1          =SCBCMD     DS    X                   Last command code from subsys
                                    9952  1          =
 0000B4                             9953  1          =SCBMOD     DS    0XL4                Mode flags from subsys
1MUD      (MUD2047) (12:36) (15MAR04) DSECTS                                                                                Page   18
0Current Usings:  (CV,R12)
0D-Loc  Object Code    Addr1 Addr2  Stmt Lv Lineno    Source Statement           (Hibal 5, Asmedit 3.3)  HLASM R4.0  2004/03/15 12.36
+_____  ______ ____    _____ _____  ____ __ ______    ______ _________
00000B4                             9954  1          =SCBMODA    DS    X                   .a
 0000B5                             9955  1          =SCBMODB    DS    X                   .b
 0000B6                             9956  1          =SCBMODC    DS    X                   .c
 0000B7                             9957  1          =SCBMODD    DS    X                   .d
                                    9958  1          =
 0000B8 00                          9959  1          =SCBTFLG3   FLAG
 SCBTFLG3.SCBTFTRA 80 ONES          9963  1          =           FLAG  SCBTFTRAN           - Transparent I/O (Moved from SIB)
 SCBTFLG3.SCBTFDIS 40 ONES          9968  1          =           FLAG  SCBTFDISP           - Display mode I/O (Moved from SIB)
                                    9973  1          =
 0000B9                             9974  1          =           DS    XL5                 Reserved
                                    9975  1          =
 0000BE                             9976  1          =SCBINCT    DS    H                   Maximum read count
                                    9977  1          =
 0000C0                             9978  1          =SCBOPOS    DS    H                   Last cursor position
 0000C2                             9979  1          =SCBOCNT    DS    H                   No. of lines since last read
                                    9980  1          =
 0000C4                             9981  1          =SCBPRPTR   DS    A                   Prompt text ptr
 0000C8                             9982  1          =SCBDRPTR   DS    A                   Default read text ptr
                                    9983  1          =
 0000CC 00                          9984  1          =SCBAFLAG   FLAG
 SCBAFLAG.SCBFBOLD 80 ONES          9988  1          =           FLAG  SCBFBOLD            - Bold
 SCBAFLAG.SCBFUND  40 ONES          9993  1          =           FLAG  SCBFUND             - Underline
 SCBAFLAG.SCBFBLNK 20 ONES          9998  1          =           FLAG  SCBFBLNK            - Blinking
 SCBAFLAG.SCBFINV  10 ONES         10003  1          =           FLAG  SCBFINV             - Inverse video
                                   10008  1          =
 0000CD 00                         10009  1          =SCBBFLAG   FLAG
 SCBBFLAG.SCBFSETF 80 ONES         10013  1          =           FLAG  SCBFSETFONT         - Alternate font has been set
                                   10018  1          =
 0000CE                            10019  1          =           DS    XL2                 Reserved
                                   10020  1          =
 0000D0                            10021  1          =SCBMXREM   DS    H                   No. of minutes remaining
 0000D2                            10022  1          =SCBTMOUT   DS    H                   Inactivity timeout (in minutes)
 0000D4                            10023  1          =           DS    H                   Reserved
                                   10024  1          =
 0000D8                            10025  1          =SCBNTRC    DS    F                   Current number of trace entries
 0000DC                            10026  1          =SCBTRCQH   DS    A                   Trace entry queue head
 0000E0                            10027  1          =SCBTRCQT   DS    A                   Trace entry queue tail
                                   10028  1          =
 0000E8                            10029  1          =SCBACLCK   DS    D                   Time of last accounting update
 0000F0                            10030  1          =SCBNIO     DS    F                   Number of terminal I/O's
                                   10031  1          =SCBCHG     EQU   SCBACLCK,*-SCBACLCK,C'X'  Accounting information
                                   10032  1          =
                                   10033  1          =SCB        SIB
 0000F4                            10035  1 01-SIB   +SCBSTART   DS    0F
 0000F4                            10036  1 01-SIB   +SCBID      DS    F                   Unique session number
 0000F8                            10037  1 01-SIB   +SCBNO      DS    H                   Session number
 0000FA                            10038  1 01-SIB   +SCBTMINC   DS    H                   No. minutes session was idle
                                   10039  1 01-SIB   +SCBIHDR    EQU   SCBSTART,*-SCBSTART,C'X'
                                   10040  1          +
 0000FC 00                         10041  1 01-SIB   +SCB1ST     DS    0F
 SCBTYPE.SCBTCONS  01 EQ
 SCBTYPE.SCBTASYN  02 EQ
 SCBTYPE.SCBTPDP   03 EQ
 SCBTYPE.SCBTVTAM  04 EQ
1MUD      (MUD2047) (12:36) (15MAR04) DSECTS                                                                                Page   19
0Current Usings:  (CV,R12)
0D-Loc  Object Code    Addr1 Addr2  Stmt Lv Lineno    Source Statement           (Hibal 5, Asmedit 3.3)  HLASM R4.0  2004/03/15 12.36
+_____  ______ ____    _____ _____  ____ __ ______    ______ _________
0SCBTYPE.SCBTVIRT  05 EQ
 SCBTYPE.SCBTNSC   06 EQ
 SCBTYPE.SCBTELF   07 EQ
 SCBTYPE.SCBTALF   08 EQ
                                   10126  1          +
 0000FD                            10127  1 01-SIB   +SCBTINFO   DS    XL2                 Terminal info flags
 0000FF 00                         10128  1          +*
 SCBSTAT.SCBFDSC   80 ONES
 SCBSTAT.SCBFLGF   40 ONES
 SCBSTAT.SCBFSOF   20 ONES
 SCBSTAT.SCBFKL    10 ONES
 SCBSTAT.SCBFTO    08 ONES
 SCBSTAT.SCBFMT    04 ONES
 SCBSTAT.SCBFKEPT  02 ONES
                                   10168  1          +*
 000100                            10169  1 01-SIB   +SCBNMSG    DS    H                   No. of async msgs waiting
                                   10170  1          +
 000102                            10171  1 01-SIB   +SCBTETYP   DS    C                   SMF port type
 000103                            10172  1 01-SIB   +           DS    X                   Reserved (was line-speed)
                                   10173  1          +
 000104                            10174  1 01-SIB   +SCBSUB     DS    CL8                 Current subsystem
                                   10175  1          +
 00010C                            10176  1 01-SIB   +           DS    0F
 00010C                            10177  1 01-SIB   +SCBVPGM    DS    CL8                 ORVYL program
 000114                            10178  1 01-SIB   +SCBVCPU    DS    F                   ORVYL CPU time used
 000118                            10179  1 01-SIB   +SCBVFLAG   DS    X                   ORVYL flags
                                   10180  1 01-SIB   +SCBVFRUN   EQU   X'80'               - Program is running (not paused)
                                   10181  1 01-SIB   +SCBVFATH   EQU   X'40'               - Program is authorized
 000119                            10182  1 01-SIB   +SCBVDIO    DS    XL3                 ORVYL Disk I/O
                                   10183  1 01-SIB   +SCBVINFO   EQU   SCBVPGM,*-SCBVPGM,C'X'
                                   10184  1          +
 00011C                            10185  1 01-SIB   +SCBLCLCK   DS    XL8                 Tod clock at logon
                                   10186  1          +
                                   10187  1 01-SIB   +SCBACCT    EQU   *,5,C'C'            Account (uuugg)
 000124                            10188  1 01-SIB   +SCBUSER    DS    CL3                 .uuu
 000127                            10189  1 01-SIB   +SCBGRP     DS    CL2                 .gg
 000129                            10190  1 01-SIB   +SCBANO     DS    XL2                 .number
 00012B 00                         10191  1          +*
 SCBSFLG.SCBSFNAT  80 ONES
 SCBSFLG.SCBSFNAR  40 ONES
 SCBSFLG.SCBSFPS   20 ONES
 SCBSFLG.SCBSFOP   10 ONES
 SCBSFLG.SCBSFSEC  08 ONES
 SCBSFLG.SCBSFPRT  04 ONES
 00012C 00                         10226  1          +*
 SCBTACF.SCBFNST   80 ONES
 SCBTACF.SCBFNTM   40 ONES
 SCBTACF.SCBRSVX20 20 ONES
 SCBTACF.SCBRSVX10 10 ONES
 SCBTACF.SCBRSVX08 08 ONES
 SCBTACF.SCBRSVX04 04 ONES
 SCBTACF.SCBFNDAY  02 ONES
 SCBTACF.SCBRSVX01 01 ONES
                                   10271  1          +*
1MUD      (MUD2047) (12:36) (15MAR04) DSECTS                                                                                Page   20
0Current Usings:  (CV,R12)
0D-Loc  Object Code    Addr1 Addr2  Stmt Lv Lineno    Source Statement           (Hibal 5, Asmedit 3.3)  HLASM R4.0  2004/03/15 12.36
+_____  ______ ____    _____ _____  ____ __ ______    ______ _________
000012D                            10272  1 01-SIB   +           DS    X                   Reserved
 00012E 00                         10273  1          +*
 SCBKIFL.SCBFIVAL  80 ONES
 SCBKIFL.SCBFAPR   40 ONES
 SCBKIFL.SCBFSPR   20 ONES
 SCBKIFL.SCBFOPR   10 ONES
 SCBKIFL.SCBFSBM   08 ONES
 SCBKIFL.SCBFSUB   04 ONES
 SCBKIFL.SCBFADM   02 ONES
 SCBKIFL.SCBFPC    01 ONES
 00012F 00                         10318  1          +*
 SCBKAFL.SCBFAVAL  80 ONES
 SCBKAFL.SCBFR1    40 ONES
 SCBKAFL.SCBFR2    20 ONES
 SCBKAFL.SCBFR3    10 ONES
 SCBKAFL.SCBFTOK   08 ONES
                                   10348  1          +*
 000130                            10349  1 01-SIB   +SCBASCBP   DS    A                   ASCB addr, if virtual session
                                   10350  1 01-SIB   +SCBSESS    EQU   SCBACCT,*-SCBACCT,C'X'
                                   10351  1 01-SIB   +SCBINFO    EQU   SCBSTART,*-SCBSTART,C'X'
                                   10352  1          +***
                                   10353  1          +***  Fields below here can be modified by the user program.
                                   10354  1          +***
 000134                            10355  1 01-SIB   +SCBOPST    DS    0F
 000134                            10356  1 01-SIB   +SCBUC      DS    H                   Update count
 000136                            10357  1 01-SIB   +SCBNAME    DS    CL20                User name
 00014A                            10358  1 01-SIB   +SCBTID     DS    CL8                 Terminal id
 000152 00                         10359  1 01-SIB   +SCBTCLS    DS    CL8                 Terminal class
 SCBTFLAG.SCBFMOD  80 ONES
 SCBTFLAG.SCBFSAM  40 ONES
 SCBTFLAG.SCBFALTD 20 ONES
                                   10379  1          +
 00015B                            10380  1 01-SIB   +           DS    XL1                 Reserved
 00015C 00                         10381  1          +*
 SCBQFLG.SCBFVFAST 80 ONES
 00015D 00                         10391  1          +*
 00015E 00                         10396  1          +*
 SCBUFLG.SCBFNMSG  80 ONES
 SCBUFLG.SCBFNCOM  40 ONES
 SCBUFLG.SCBFNBRK  20 ONES
 SCBUFLG.SCBFNTIM  10 ONES
 SCBUFLG.SCBFCLN   08 ONES
 SCBUFLG.SCBFDISP  04 ONES
 SCBUFLG.SCBFPERM  02 ONES
 SCBUFLG.SCBFTRAN  01 ONES
 00015F 00                         10441  1          +*
 SCBUFLG2.SCBFTRC  80 ONES
 SCBUFLG2.SCBFKEEP 40 ONES
                                   10456  1 01-SIB   +SCBG       EQU   SCBSTART,*-SCBSTART,C'X'
                                   10457  1          +***
                                   10458  1          +***  Information below this line is considered "private" and
                                   10459  1          +***    the user can only sense it for his own session.
                                   10460  1          +***
 000160                            10461  1 01-SIB   +SCBPROJ    DS    CL8                 Project-id
1MUD      (MUD2047) (12:36) (15MAR04) DSECTS                                                                                Page   21
0Current Usings:  (CV,R12)
0D-Loc  Object Code    Addr1 Addr2  Stmt Lv Lineno    Source Statement           (Hibal 5, Asmedit 3.3)  HLASM R4.0  2004/03/15 12.36
+_____  ______ ____    _____ _____  ____ __ ______    ______ _________
0000168 00                         10462  1          +*
 SCBFLG.SCBFUPL    80 ONES
 SCBFLG.SCBFBACK   40 ONES
 SCBFLG.SCBFFAST   20 ONES
 SCBFLG.SCBFRSV8   10 ONES
 SCBFLG.SCBFPSP    08 ONES
 SCBFLG.SCBFXON    04 ONES
 SCBFLG.SCBFFILT   02 ONES
 SCBFLG.SCBFNECH   01 ONES
 000169 00                         10507  1          +*
 SCBFLG2.SCBFSAMFO 80 ONES
 SCBFLG2.SCBFERA   40 ONES
 SCBFLG2.SCBFNTYP  20 ONES
                                   10527  1          +*
 00016A                            10528  1 01-SIB   +SCBINMX    DS    H                   Maximum input length allowed
 00016C                            10529  1 01-SIB   +SCBOUMX    DS    H                   Maximum output length allowed
 00016E                            10530  1 01-SIB   +SCBCHAR    DS    CL8                 Terminal translate table name
 000176                            10531  1 01-SIB   +SCBTABS    DS    XL16                Tabs
 000186 00                         10532  1          +*
 SCBOFLAG.SCBFPAR  80 ONES
 SCBOFLAG.SCBFEVEN 40 ONES
 SCBOFLAG.SCBFODD  20 ONES
 SCBOFLAG.SCBFMARK 10 ONES
 SCBOFLAG.SCBFQUIE 08 ONES
 000187                            10562  1 01-SIB   +           DS    X                   Reserved
 000188                            10563  1 01-SIB   +SCBWID     DS    H                   Terminal width, actual
 00018A                            10564  1 01-SIB   +SCBHEIP    DS    H                   Terminal height, before pausing
 00018C                            10565  1 01-SIB   +SCBHEI     DS    H                   Terminal height, actual
                                   10566  1          +
 00018E                            10567  1 01-SIB   +SCBTTYPE   DS    CL8                 Terminal type
 000196                            10568  1 01-SIB   +           DS    XL2                 Reserved
 000198                            10569  1 01-SIB   +SCBIPADR   DS    F                   IP address for TCP/IP sessions
 00019C                            10570  1 01-SIB   +           DS    XL2                 Reserved
                                   10571  1          +
 00019E                            10572  1 01-SIB   +SCBIDMAX   DS    H                   Max no. of idle minutes allowed
                                   10573  1          +
 0001A0                            10574  1 01-SIB   +SCBALTWID   DS   H                   Alternate width (0=none)
 0001A2                            10575  1 01-SIB   +SCBALTHEI   DS   H                   Alternate height (0=none)
                                   10576  1          +
 0001A4                            10577  1 01-SIB   +SCBCRI     DS    2H                  CR idles
 0001A8                            10578  1 01-SIB   +SCBLFI     DS    H                   LF idles
 0001AA                            10579  1 01-SIB   +SCBHTI     DS    2H                  HT idles
 0001AE                            10580  1 01-SIB   +SCBCAI     DS    H                   Cursor-address idles
 0001B0                            10581  1 01-SIB   +SCBCSI     DS    H                   Clear-screen idles
                                   10582  1 01-SIB   +SCBIDLE    EQU   SCBCRI,*-SCBCRI,C'X'
                                   10583  1          +
                                   10584  1 01-SIB   +SCBOPT     EQU   SCBOPST,*-SCBOPST,C'X'
                                   10585  1          +
                                   10586  1 01-SIB   +SCB1       EQU   SCB1ST,*-SCB1ST,C'X'
                                   10587  1          +*
 0001B2                001B2 001B2 10589                       END
1MUD      (MUD2047) (12:36) (15MAR04) DSECTS                                                                                Page   22
0Current Usings:  (CV,R12)
0D-Loc  Object Code    Addr1 Addr2  Stmt Lv Lineno    Source Statement           (Hibal 5, Asmedit 3.3)  HLASM R4.0  2004/03/15 12.36
+_____  ______ ____    _____ _____  ____ __ ______    ______ _________
0000000                00000 0003C 10599              SEGCB    RECORD 'SEGCB'
 000000 00                         10609  1 03-SEGCB +$$$SEGCB18   DS  0F
 SEGCBCOD.SEGCBSEG 01 EQ
 SEGCBCOD.SEGCBWR  02 EQ
 SEGCBCOD.SEGCBCLR 03 EQ
 SEGCBCOD.SEGCBSPP 04 EQ
 SEGCBCOD.SEGCBOVF 05 EQ
 SEGCBCOD.SEGCBCR  06 EQ
 SEGCBCOD.SEGCBMAR 07 EQ
 000001 00                         10684  1 03-SEGCB +           DC    X'00'               Reserved
 000002 0000                              1          +
 000004 00000000                   10685  1 03-SEGCB +SEGCBMAXF   DC   A(0)                Maximum buffer length
 000008 00000000                   10686  1 03-SEGCB +SEGCBMRKF   DC   A(0)                Length at last mark
 00000C 00000000                   10687  1 03-SEGCB +SEGCBLENF   DC   A(0)                Current length
 000010 00000000                   10688  1 03-SEGCB +SEGCBINDF   DC   A(0)                Overflow/indent count
 000014 00000000                   10689  1 03-SEGCB +SEGCBERR   DC    A(0)                Address of error recovery routine
 000018 0000000000000000           10690  1 03-SEGCB +           DC    2F'0'               Reserved
 000020 00000000                   10691  1 03-SEGCB +SEGCBLOC   DC    A(0)                Location of buffer
 000024 00000000                   10692  1 03-SEGCB +SEGCBRTN   DC    A(0)                Processing routine
 000028 0000000000000000           10693  1 03-SEGCB +           DC    4F'0'               Reserved
 000038 00000000                   10694    03-SEGCB +SEGCBUSR DC    A(0)                USER field
                                   10704
                                   10705              SEGCC    EQU   SEGCBUSR+3,1,C'C'   New cc char to use
1MUD      (MUD2047) (12:36) (15MAR04) DSECTS                                                                                Page   23
0Current Usings:  (CV,R12)
0D-Loc  Object Code    Addr1 Addr2  Stmt Lv Lineno    Source Statement           (Hibal 5, Asmedit 3.3)  HLASM R4.0  2004/03/15 12.36
+_____  ______ ____    _____ _____  ____ __ ______    ______ _________
0                                  10707                       COPY  STKRCD
 000000                00000 0004C 10708             =STK      RECORD BEGIN
 000000                            10716  1          =STKWORK    DS    18A                 SAVE/WORK AREA
 000048                            10717  1          =STKNSP     DS    A                   POINTER TO NEXT STACK ENTRY
                                   10718  1          =*                                  (OR POINTER TO THIS ENTRY, IF
                                   10719  1          =*                                  THIS IS THE LATEST ENTRY)
                                   10720  1          =STKRS      EQU   STKNSP,1,C'X'       REGISTER SAVE MASK (FOR PROC)
                                   10721  1          =STKNSPA    EQU   STKNSP+1,3,C'X'
                                   10722  1          =
                                   10723  1          =STKWA      EQU   *                   START OF USER WORK AREA
 00004C                0004C 0004C 10724             =         END
1MUD      (MUD2047) (12:36) (15MAR04) DSECTS                                                                                Page   24
0Current Usings:  (CV,R12)
0D-Loc  Object Code    Addr1 Addr2  Stmt Lv Lineno    Source Statement           (Hibal 5, Asmedit 3.3)  HLASM R4.0  2004/03/15 12.36
+_____  ______ ____    _____ _____  ____ __ ______    ______ _________
0000000                00000 00010 10734              SYMBOL   RECORD BEGIN              Map of symbol entry
 000000 00                         10742  1           SYMFLGS    FLAG  ,                   Flags
 SYMFLGS.SYMFEND   FF EQ           10746  1                      FLAG  (SYMFEND,X'FF',EQ)  - End of table
 SYMFLGS.SYMFCSCT  80 ONES         10756  1                      FLAG  SYMFCSCT            - Symbol is csect
 000001                            10761  1                      DS    X                   Reserved
 000002                            10762  1           SYMLEN     DS    H                   Length of section
 000004                            10763  1           SYMLOC     DS    A                   Symbol address
 000008                            10764  1           SYMNAME    DS    CL8                 Symbol name
                                   10765  1
                                   10766  1           SYMNEXT    EQU   *
 000010                00010 00010 10767                       END
-000000                00000 00018 10777              LOC      RECORD BEGIN
 000000                            10785  1           LOCADDR    DS    F                   Address
 000004                            10786  1           LOCCSECT   DS    CL8                 Name of closest csect (or blanks)
 00000C                            10787  1           LOCSYM     DS    CL8                 Name of closest non-csect
 000014                            10788  1           LOCCSOFS   DS    H                   Offset from csect
 000016                            10789  1           LOCSYOFS   DS    H                   Offset from symbol
 000018                00018 00018 10790                       END
1MUD      (MUD2047) (12:36) (15MAR04) Initialization                                                                        Page   25
0Current Usings:  (CV,R12)
0D-Loc  Object Code    Addr1 Addr2  Stmt Lv Lineno    Source Statement           (Hibal 5, Asmedit 3.3)  HLASM R4.0  2004/03/15 12.36
+_____  ______ ____    _____ _____  ____ __ ______    ______ _________
0000016                00000 039E8 10800              MILMUD   CSECT
-                                  10803              ¿þþþþþþþþþþþþþþþþþþþþþþþþþþþþþþþþþþþþþþþþþþþþþþþþþþþþþþþþþþþþþþþþþþþþþÜ
                                   10804              Ÿ                                                                     Ÿ
                                   10805              Ÿ  MUDINIT -- Routine to initialize dump formatting information and   Ÿ
                                   10806              Ÿ    set ESTAE exit.  Called from initialization in MAIN.             Ÿ
                                   10807              Ÿ                                                                     Ÿ
                                                      ¾þþþþþþþþþþþþþþþþþþþþþþþþþþþþþþþþþþþþþþþþþþþþþþþþþþþþþþþþþþþþþþþþþþþþþ»
0000016 50E0 D044/902B_      00044 10808              MUDINIT  XPROC
 USING  *,R8
                                   10846                  ¿þþþþþþþþþþþþþþþþþþþþþþþþþþþþþþþþþþþþþþþþþþþþþþþþþþþþþþþþþþþþþþþþþþÜ
                                   10847                  Ÿ  If no SYSPRINT ddcard exists then we will dynamically allocate  Ÿ
                                   10848                  Ÿ  a SYSPRINT ddcard with SYSOUT=$ and FREE=CLOSE to spinoff       Ÿ
                                   10849                  Ÿ  failsoft dumps.                                                 Ÿ
                                   10850                  ¾þþþþþþþþþþþþþþþþþþþþþþþþþþþþþþþþþþþþþþþþþþþþþþþþþþþþþþþþþþþþþþþþþþ»
 000030 4110 80B0/4100_      000D0 10851                       DEVTYPE =CL8'SYSPRINT',@R13,DEVTAB  does ddcard exist?
 00003C 12FF/4780 8026_            10857                       IF    (R15,NZ),'SET CVFSPIN'  nope, set for spinoff
                                   10882                       ¿þþþþþþþþþþþþþþþþþþþþþþþþþþþþþþþþþþþþþþþþþþþþþþþþþþþþþÜ
                                   10883                       Ÿ  Set ESTAE exit to recover from errors and do dump  Ÿ
                                   10884                       Ÿ    formatting.                                      Ÿ
                                   10885                       ¾þþþþþþþþþþþþþþþþþþþþþþþþþþþþþþþþþþþþþþþþþþþþþþþþþþþþþ»
 000046 9120 C13C/4710_0013C       10886                       IF    ~CVFNSTAE,BEGIN
 00004E 0700/4510 804C_            10901  1                      ESTAE ESTAE,PURGE=NONE,ASYNCH=YES,TERM=YES
 000076                            10920                       END
                                   10924                       ¿þþþþþþþþþþþþþþþþþþþþþþþþþþþþþþþþþþþþþþþþþþþþþþþþþþþþþþþþþþþÜ
                                   10925                       Ÿ  Set up the symbol table so we have ascending addresses.  Ÿ
                                   10926                       ¾þþþþþþþþþþþþþþþþþþþþþþþþþþþþþþþþþþþþþþþþþþþþþþþþþþþþþþþþþþþ»
 000076 5860 80B8/1266       000D8 10927                       LT    R6,=A(SYMBOLS)      Addr of symbol table
 00007C 4780 8096            000B6 10931                       IF    Z,EXIT
 000080                            10945                       LOOP  BEGIN
 000080 1B44                       10951  1                      CLEAR R4                  Flag: data is sorted
 000082 1856                       10955  1                      LR    R5,R6               Copy symbol table ptr
 USING  SYMBOL,R5                  10956  1                      WITH  (SYMBOL,R5)
 000084                            10969  1                      LOOP  BEGIN
 000084 D503 5004 5014_00004 00014 10975  2                        IF    (SYMLOC,GT,.SYMNEXT+(SYMLOC-SYMBOL)),BEGIN
 00008E D70F 5000 5010_00000 00010 10992  3                          FLIP  (SYMBOL,SYMNEXT)    Interchange table entries
 0000A0 4140 0001            00001 10999  3                          LA    R4,1                Set data not yet sorted
 0000A4                            11000  2                        END
 0000A4 4150 5010            00010 11004  2                        LA    R5,SYMNEXT          Next entry
 0000A8 95FF 5000/4770_00000       11005  1                      UNTIL SYMFEND,END
 0000B0 1244/4770 8060             11028                       UNTIL (R4,Z),END
 DROP   SYMBOL,R5
 0000B6 41D0 D030/982B_      00030 11055                       PEND
 DROP   *,R8
                                   11075
                                   11076                       QLTORG
1MUD      (MUD2047) (12:36) (15MAR04) ESTAE Exit                                                                            Page   26
0Current Usings:  (CV,R12)
0Loc    Object Code    Addr1 Addr2  Stmt Lv Lineno    Source Statement           (Hibal 5, Asmedit 3.3)  HLASM R4.0  2004/03/15 12.36
+___    ______ ____    _____ _____  ____ __ ______    ______ _________
0                                  11092              ¿þþþþþþþþþþþþþþþþþþþþþþþþþþþþþþþþþþþþþþþþþþþþþþþþþþþþþþþþþþþþþþþþþþþþþÜ
                                   11093              Ÿ                                                                     Ÿ
                                   11094              Ÿ  ESTAE exit                                                         Ÿ
                                   11095              Ÿ                                                                     Ÿ
                                                      ¾þþþþþþþþþþþþþþþþþþþþþþþþþþþþþþþþþþþþþþþþþþþþþþþþþþþþþþþþþþþþþþþþþþþþþ»
0USING  ESTAE,R15                  11096              ESTAE    WITH  (ESTAE,R15),BEGIN
 0000DE 5900 F3D2/4770_      004B0 11111  1                      IF    (R0,EQ,12),'CLEAR R15; BR R14'  no core, keep abending
 DROP   ESTAE,R15                  11138                       END
                                   11146
 0000EA 0D80                       11147                       BASE
 USING  *,R8
 0000EC 58C0 83C8            004B4 11161                       L     CVR,=V(CV)
 0000F0 1861                       11162                       LR    R6,R1               SDWA ptr
 USING  SDWA,R6                    11163                       USING SDWA,R6
 0000F2 50E0 83AC            00498 11172                       ST    R14,SAVERA          Save return addr
                                   11173
 0000F6 58D0 83CC/4AD0_      004B8 11174                       STKINIT STAESTK           STAE stack
                                   11178
 000102 9608 C13C      0013C       11179                       SET   CVFABEND            Abending
                                   11185
 000106 4110 0001/0A2E       00001 11186                       TTIMER CANCEL
                                   11190
 00010C 4510 8028/0000_      00114 11191                       MODESET KEY=NZERO,MODE=SUP
                                   11198
 00011A 9180 6004/4710_00004       11199                       IF    ~SDWACMPF.SDWAREQ,BEGIN  No dump requested...
 000122 58F0 6004            00004 11215  1                      L     R15,SDWAABCC        Abend completion code
 000126 54F0 83D0            004BC 11216  1                      N     R15,=A(X'FFF000')   Only keep sys comp code
 00012A 59F0 83D4/4780_      004C0 11217  1                      IF    (R15,EQ,=A(X'122000')),EXIT  Abend with dump anyway
 000132 47F0 81AC            00298 11236  1                      B     STAETERM            No dump needed -- terminate
 000136                            11237                       END
                                   11241
 000136 0700/4510 8054_            11242                       MODESET MODE=PROB         *********
 000146 4110 6000            00000 11249                       LA    R1,SDWA
 00014A 58E0 83D8/0DEE       004C4 11250                       ACALL FMTDUMP             Formatted dump
 000150 4510 806C/0000_      00158 11254                       MODESET MODE=SUP          ********
                                   11261
 00015E 9180 60EB/4710_000EB       11262                       IF    SDWAERRD.SDWACLUP,STAETERM  Can't retry
 000166 9110 C13C/4710_0013C       11281                       IF    CVFNORET,STAETERM   No retries
                                   11299
 00016E 5810 C764/1211_      00764 11300                       IF    ('LT R1,CVCURFRSCB',NZ),BEGIN  Cleanup bad SCBPIBP...
 USING  SCB,R1                     11316  1                      WITH  (SCB,R1)
 000178 D502 841C 1000_00508 00000 11329  1                      IF    (SCB,NE,'SCB'),EXIT  Bad SCB ptr, scram
 000182 D703 1008 1008 00008 00008 11349  1                      CLEAR SCBPIBP             Reset PIB ptr
 000188 D703 C764 C764 00764 00764 11356  1                      CLEAR CVCURFRSCB          Reset
 00018E 47F0 814C            00238 11363  1                      B     STAEOK              It's OK
 DROP   SCB,R1                     11364                       END
                                   11373
 000192 5810 C760/1211_      00760 11374                       IF    ('LT R1,CVCURCMD',NZ),BEGIN  Try session recovery...
 00019C 58E0 83DC/0DEE       004C8 11390  1                      VCALL MCOMFAIL            Try command processor recovery
 0001A2 4780 814C            00238 11394  1                      BZ    STAEOK              It's OK
 0001A6                            11395                       END
                                   11399
 0001A6 5810 C758/1211_      00758 11400                       IF    ('LT R1,CVCURSCB',NZ),BEGIN  Try session recovery...
1MUD      (MUD2047) (12:36) (15MAR04) ESTAE Exit                                                                            Page   27
0Current Usings:  (SCB,R1) (SDWA,R6) (*,R8) (CV,R12)
0Loc    Object Code    Addr1 Addr2  Stmt Lv Lineno    Source Statement           (Hibal 5, Asmedit 3.3)  HLASM R4.0  2004/03/15 12.36
+___    ______ ____    _____ _____  ____ __ ______    ______ _________
0USING  SCB,R1                     11416  1                      WITH  (SCB,R1)
 0001B0 D502 841C 1000_00508 00000 11429  1                      IF    (SCB,NE,'SCB'),EXIT
 0001BA D703 C758 C758 00758 00758 11449  1                      CLEAR CVCURSCB
 0001C0 58E0 83E0/0DEE       004CC 11456  1                      VCALL SESSERR             Attempt to recover
 0001C6 4780 814C            00238 11460  1                      BZ    STAEOK              It's OK mom
 DROP   SCB,R1                     11461                       END
                                   11470
 0001CA 58A0 C75C/12AA_      0075C 11471                       IF    ('LT R10,CVCURSUB',NZ),BEGIN  Try subsys recovery...
 USING  SUB,R10                    11487  1                      WITH  (SUB,R10)
 0001D4 D502 841F A000_0050B 00000 11500  1                      IF    (SUB,NE,'SUB'),EXIT
 0001DE D703 C75C C75C 0075C 0075C 11520  1                      CLEAR CVCURSUB
 0001E4 4110 A000            00000 11527  1                      LA    R1,SUB
 0001E8 58E0 83E4/0DEE       004D0 11528  1                      VCALL SUBERR
 0001EE 4780 814C            00238 11532  1                      BZ    STAEOK              It's OK
 DROP   SUB,R10                    11533                       END
                                   11542
 0001F2 58A0 C750/12AA_      00750 11543                       IF    ('LT R10,CVCURFEB',NZ),BEGIN  try fe recovery...
 USING  FEB,R10                    11559  1                      WITH  (FEB,R10)
 0001FC D502 8422 A000_0050E 00000 11572  1                      IF    (FEB,NE,'FEB'),EXIT
 000206 D703 C750 C750 00750 00750 11592  1                      CLEAR CVCURFEB
 00020C 4110 A000            00000 11599  1                      LA    R1,FEB
 000210 1FEE/43E0 A00D             11600  1                      LC    RAR,FEBTYPE
 000216 59E0 83E8/47D0_      004D4 11607  1                      IF    (RAR,GT,FEBTMAX),'CLEAR RAR'
 000220 89E0 0002            00002 11633  1                      SLL   RAR,2
 000224 58EE 844C/12EE       00538 11634  1                      LT    RAR,ERRFE(RAR)      Appropriate routine
 00022A 4780 8148            00234 11638  1                      IF    Z,EXIT
 00022E 05EE                       11652  1                      BALR  RAR,RAR
 000230 4780 814C            00238 11653  1                      BZ    STAEOK
 DROP   FEB,R10                    11654                       END
 000234 47F0 81AC            00298 11663                       B     STAETERM            Shutdown MILTEN
                                   11664
 000238 4510 8154/0000_      00240 11665              STAEOK   MODESET KEY=ZERO          ********
 000246 9110 C13D/47E0_0013D       11672                       IF    CVFDUMP,BEGIN       We want a DUMP...
 00024E 4110 6000            00000 11687  1                      LA    R1,SDWA             Needed for SETRP
 000252 0700/9204 10FC_            11688  1                      SETRP RC=4,RETADDR=STAERTRY,FRESDWA=YES,DUMP=YES
 000266                            11699                       END
                                   11703
 000266 817E/47F0 8196 00266 0024C 11704                       ELSE  BEGIN               No SYSUDUMP needed...
 00026A 4110 6000            00000 11715  1                      LA    R1,SDWA             Needed for SETRP
 00026E 0700/9204 10FC_            11716  1                      SETRP RC=4,RETADDR=STAERTRY,FRESDWA=YES,DUMP=NO
 000282                            11727                       END
 000282 0700/4510 81A0_            11731                       MODESET KEY=NZERO         ********
 000292 58E0 83AC            00498 11738                       L     R14,SAVERA
 000296 07FE                       11739                       BR    R14
                                   11740
 DROP   SDWA,R6                    11741                       DROP  SDWA,BR
 DROP   *,R8
1MUD      (MUD2047) (12:36) (15MAR04) ESTAE Exit                                                                            Page   28
0Current Usings:  (CV,R12)
0Loc    Object Code    Addr1 Addr2  Stmt Lv Lineno    Source Statement           (Hibal 5, Asmedit 3.3)  HLASM R4.0  2004/03/15 12.36
+___    ______ ____    _____ _____  ____ __ ______    ______ _________
0                                  11756              ¿þþþþþþþþþþþþþþþþþþþþþþþþþþþþþþþþþþþþþþþþþþþþþþþþþþþþþþþþþþþþþþþþþþþþþÜ
                                   11757              Ÿ                                                                     Ÿ
                                   11758              Ÿ  STAETERM -- ESTAE termination.  Entered to shutdown MILTEN by      Ÿ
                                   11759              Ÿ    telling MVS to continue abending.                                Ÿ
                                   11760              Ÿ                                                                     Ÿ
                                                      ¾þþþþþþþþþþþþþþþþþþþþþþþþþþþþþþþþþþþþþþþþþþþþþþþþþþþþþþþþþþþþþþþþþþþþþ»
0000298 0D80                       11761              STAETERM BASE
 USING  *,R8
 00029A 58C0 821A            004B4 11775                       L     CVR,=V(CV)
                                   11776
 00029E 58D0 C058/4AD0_      00058 11777                       STKINIT L:CVSTKP,4096     Stack
                                   11785
 0002AA 0700/4510 801A_            11786                       MODESET MODE=SUP          Return to sup. state
 0002BA 58E0 823E/0DEE       004D8 11793                       VCALL KEYNZERO            Our key (just in case)
                                   11797
 0002C0 1B00                       11798                       CLEAR R0
 0002C2 58E0 8242/0DEE       004DC 11802                       ACALL SHUTDOWN            Normal termination, sort of
 0002C8 0000                       11806                       DC    H'0'                (no return)
                                   11807
 DROP   *,R8                       11808                       DROP  BR
1MUD      (MUD2047) (12:36) (15MAR04) ESTAE Exit                                                                            Page   29
0Current Usings:  (CV,R12)
0Loc    Object Code    Addr1 Addr2  Stmt Lv Lineno    Source Statement           (Hibal 5, Asmedit 3.3)  HLASM R4.0  2004/03/15 12.36
+___    ______ ____    _____ _____  ____ __ ______    ______ _________
0                                  11816              ¿þþþþþþþþþþþþþþþþþþþþþþþþþþþþþþþþþþþþþþþþþþþþþþþþþþþþþþþþþþþþþþþþþþþþþÜ
                                   11817              Ÿ                                                                     Ÿ
                                   11818              Ÿ  STAERTRY -- ESTAE retry routine.  Entered after the ESTAE          Ÿ
                                   11819              Ÿ    exit routine has taken a dump and has decided to recover.        Ÿ
                                   11820              Ÿ                                                                     Ÿ
                                                      ¾þþþþþþþþþþþþþþþþþþþþþþþþþþþþþþþþþþþþþþþþþþþþþþþþþþþþþþþþþþþþþþþþþþþþþ»
00002CA 0D80                       11821              STAERTRY BASE
 USING  *,R8
 0002CC 58C0 81E8            004B4 11835                       L     CVR,=V(CV)
                                   11836
 0002D0 58D0 C058/4AD0_      00058 11837                       STKINIT L:CVSTKP,4096     Stack
                                   11845
 0002DC 94F7 C13C      0013C       11846                       CLEAR CVFABEND            Reset abending bit
 0002E0 D503 8214 C044_004E0 00044 11853                       IF    (CVRETCOD,LT,4),'MVC CVRETCOD,=F"4"'  Set rc
 0002F0 4100 0001/4A00_      00001 11877                       INCR  R0,CVMNFAIL         Count the failsoft
 0002FC D727 C750 C750 00750 00750 11883                       CLEAR CVCUR
                                   11890
 000302 0700/4510 8040_            11891                       MODESET MODE=SUP          Return to sup. state
 000312 58E0 820C/0DEE       004D8 11898                       VCALL KEYNZERO            Our key (just in case)
                                   11902
 000318 58E0 821C/0DEE       004E8 11903                       VCALL DOM                 Delete action messages
 00031E 41F0 C5D4/58E0_      005D4 11907                       SEGCLR CVWSG
 000328 4110 8245/4100_      00511 11920                       SEGWR 'Failsoft recovery successful.'
                                   11938
 00033A 94BF C13D      0013D       11939                       CLEAR CVFTIMER            Tell dispatcher to set timer
 00033E 9240 C038      00038       11946                       MVI   CVECB,X'40'
 000342 58E0 8228/0DEE       004F4 11947                       VCALL DISPATCH            Come on, big fella (h.b.--1942)
 000348 0000                       11951                       DC    H'0'                (no return)
                                   11952
 DROP   *,R8                       11953                       DROP  BR
1MUD      (MUD2047) (12:36) (15MAR04) Shutdown                                                                              Page   30
0Current Usings:  (CV,R12)
0Loc    Object Code    Addr1 Addr2  Stmt Lv Lineno    Source Statement           (Hibal 5, Asmedit 3.3)  HLASM R4.0  2004/03/15 12.36
+___    ______ ____    _____ _____  ____ __ ______    ______ _________
0                                  11961              ¿þþþþþþþþþþþþþþþþþþþþþþþþþþþþþþþþþþþþþþþþþþþþþþþþþþþþþþþþþþþþþþþþþþþþþÜ
                                   11962              Ÿ                                                                     Ÿ
                                   11963              Ÿ  SHUTDOWN -- MILTEN termination routine.                            Ÿ
                                   11964              Ÿ                                                                     Ÿ
                                   11965              Ÿ    On entry:                                                        Ÿ
                                   11966              Ÿ      R0 - 0: normal, 4: error                                       Ÿ
                                   11967              Ÿ                                                                     Ÿ
                                                      ¾þþþþþþþþþþþþþþþþþþþþþþþþþþþþþþþþþþþþþþþþþþþþþþþþþþþþþþþþþþþþþþþþþþþþþ»
0                                  11968                       ENTRY SHUTDOWN
 00034A 0D80                       11969              SHUTDOWN BASE
 USING  *,R8
 00034C 1870                       11983                       LR    R7,R0               Save parm
 00034E 58D0 C058/4AD0_      00058 11984                       STKINIT L:CVSTKP,4096     Stack
                                   11992
 00035A 9180 C13C/4710_0013C       11993                       IF    ~CVFTEST,BEGIN      Production version...
 000362 5860 0010            00010 12008  1                      L     R6,CVTPTR
 USING  CVT,R6                     12009  1                      WITH  (CVT,R6)
 000366 5850 60CC/1255       000CC 12022  1                      LT    R5,CVTUSER          Scip cvt ptr
 00036C 4780 807E            003CA 12026  1                      IF    Z,EXIT              None, scram
 USING  USERCVT,R5                 12040  1                      WITH  (USERCVT,R5)
 000370 D503 81AC 5000_004F8 00000 12053  1                      IF    (USERCVT,NE,'SCIP'),EXIT  not ours, scram
 00037A 0700/4510 8038_            12073  1                      MODESET KEY=ZERO          ********
 00038A 947F 5004      00004       12080  1                      CLEAR USEHSPFL.HSPFMIL    MILTEN is down
 00038E D507 C4C0 506C_004C0 0006C 12088  1                      IF    (CVMJOBNM,EQ,USEMILNM),'CLEAR USEMILNM'  Zero milname
 00039E D701 500C 500C 0000C 0000C 12118  1                      CLEAR USEMILCT            No sessions active now
 0003A4 D703 504C 504C_0004C 0004C 12125  1                      CLEAR USEMASCB,USEMGINP,USEMSITP,USEMNSIN  Reset
 0003BC 4510 8078/0000_      003C4 12147  1                      MODESET KEY=NZERO         ********
 DROP   USERCVT,R5                 12154                       END
 DROP   CVT,R6
                                   12168
 0003CA 58E0 81B0/0DEE       004FC 12169                       VCALL SINTFREE            Free the CSA session info
                                   12173
 0003D0 58E0 81B4/0DEE       00500 12174                       VCALL SUBDIE              Shutdown subsystems
                                   12178
 0003D6 41A0 C294            00294 12179                       LA    R10,CVFEBQH-(FEBLINK-FEB)  dummy first link
 0003DA                            12180                       LOOP  BEGIN
 USING  FEB,R10                    12186  1                      WITH  (FEB,R10)
 0003DA 58A0 A008/12AA_      00008 12199  1                      WHILE ('LT R10,FEBLINK',NZ)
 0003E4 1807                       12216  1                      LR    R0,R7               Parm
 0003E6 4110 A000            00000 12217  1                      LA    R1,FEB
 0003EA 1FEE/43E0 A00D             12218  1                      LC    RAR,FEBTYPE
 0003F0 59E0 8188/47D0_      004D4 12225  1                      IF    (RAR,GT,FEBTMAX),'CLEAR RAR'
 0003FA 89E0 0002            00002 12251  1                      SLL   RAR,2
 0003FE 58EE 8214/12EE       00560 12252  1                      LT    RAR,DIEFE(RAR)      Appropriate routine
 000404 4780 80BE/05EE       0040A 12256  1                      IF    NZ,'BALR RAR,RAR'
 00040A 47F0 808E            003DA 12273                       END
 DROP   FEB,R10
                                   12283
 00040E 9604 C13C      0013C       12284                       SET   CVFSTOP             no new I/O's allowed now
                                   12290
 000412 9108 C13C/47E0_0013C       12291                       IF    CVFABEND,BEGIN      Abending...
 00041A 58E0 814C            00498 12306  1                      L     R14,SAVERA          ESTAE return addr
 00041E 07FE                       12307  1                      BR    R14                 Continue abending
1MUD      (MUD2047) (12:36) (15MAR04) Shutdown                                                                              Page   31
0Current Usings:  (*,R8) (CV,R12)
0Loc    Object Code    Addr1 Addr2  Stmt Lv Lineno    Source Statement           (Hibal 5, Asmedit 3.3)  HLASM R4.0  2004/03/15 12.36
+___    ______ ____    _____ _____  ____ __ ______    ______ _________
0000420                            12308                       END
                                   12312
 000420 41F0 C5D4/58E0_      005D4 12313                       SEGCLR CVWSG              Init WTO seg buffer
 00042A 4110 8154/4100_      004A0 12326                       SETMSG 'Ending normally.'
 000432 1277/4780 80F4_            12330                       IF    (R7,NZ),'SETMSG "Abending!"'
 000440 41F0 C5D4/58E0_      005D4 12353                       SEGWR (R1),(R0)
                                   12377
 00044A D603 C330 C330_00330 00330 12378                       IF    (CVMRTTCB,NZ),'DETACH CVMRTTCB; CLEAR CVMRTTCB'
 000460 D603 C360 C360_00360 00360 12411                       IF    (CVWTOTCB,NZ),'DETACH CVWTOTCB; CLEAR CVWTOTCB'
                                   12444
 000476 1277/4780 8140_            12445                       IF    (R7,NZ),'ABEND 1,DUMP'  out with a bang
 00048C 58F0 C044            00044 12473                       L     R15,CVRETCOD        Return code
 000490 58E0 C040            00040 12474                       L     R14,CVOSRA
 000494 07FE                       12475                       BR    RAR
                                   12476
 DROP   *,R8                       12477                       DROP  BR
                                   12484
 000498                            12485              SAVERA   DS    A                   Saved return address
                                   12486
                                   12487                       QLTORG
1MUD      (MUD2047) (12:36) (15MAR04) Shutdown                                                                              Page   32
0Current Usings:  (CV,R12)
0Loc    Object Code    Addr1 Addr2  Stmt Lv Lineno    Source Statement           (Hibal 5, Asmedit 3.3)  HLASM R4.0  2004/03/15 12.36
+___    ______ ____    _____ _____  ____ __ ______    ______ _________
0000537 00
 000538 00000000                   12529              ERRFE    DC    A(0)
 00053C 00000000                   12530                       DC    A(0)                FEBTCONS
 000540 00000000                   12531                       DC    A(0)
 000544 00000000                   12532                       DC    A(0)
 000548 00000000                   12533                       DC    A(0)
 00054C 00000000                   12534                       DC    V(VIRTERR)          FEBTVIRT
 000550 00000000                   12535                       DC    A(0)
 000554 00000000                   12536                       DC    V(ELFERR)           FEBTELF
 000558 00000000                   12537                       DC    A(0)
 00055C 00000000                   12538                       DC    A(0)
                                   12539              ERRFEMX  EQU   (*-ERRFE-4)/4,,C'N'
 000560                            12540                       DS    0S(ERRFEMX-FEBTMAX,FEBTMAX-ERRFEMX)
-000560 00000000                   12542              DIEFE    DC    A(0)
 000564 00000000                   12543                       DC    V(CONSDIE)          FEBTCONS
 000568 00000000                   12544                       DC    A(0)
 00056C 00000000                   12545                       DC    A(0)
 000570 00000000                   12546                       DC    A(0)
 000574 00000000                   12547                       DC    V(VIRTDIE)          FEBTVIRT
 000578 00000000                   12548                       DC    A(0)
 00057C 00000000                   12549                       DC    V(ELFDIE)           FEBTELF
 000580 00000000                   12550                       DC    A(0)
 000584 00000000                   12551                       DC    A(0)
                                   12552              DIEFEMX  EQU   (*-DIEFE-4)/4,,C'N'
 000588                            12553                       DS    0S(DIEFEMX-FEBTMAX,FEBTMAX-DIEFEMX)
1MUD      (MUD2047) (12:36) (15MAR04) Dump Formatter                                                                        Page   33
0Current Usings:  (CV,R12)
0Loc    Object Code    Addr1 Addr2  Stmt Lv Lineno    Source Statement           (Hibal 5, Asmedit 3.3)  HLASM R4.0  2004/03/15 12.36
+___    ______ ____    _____ _____  ____ __ ______    ______ _________
0000000                00000 00004 12555              FMTWA    RECORD BEGIN
 000000                            12563  1           FMTSDWA    DS    A                   SDWA ptr
 000004                00004 00004 12564                       END
-                                  12574              ¿þþþþþþþþþþþþþþþþþþþþþþþþþþþþþþþþþþþþþþþþþþþþþþþþþþþþþþþþþþþþþþþþþþþþþÜ
                                   12575              Ÿ                                                                     Ÿ
                                   12576              Ÿ  FMTDUMP -- Routine to format a failsoft dump.                      Ÿ
                                   12577              Ÿ                                                                     Ÿ
                                   12578              Ÿ    On entry:                                                        Ÿ
                                   12579              Ÿ      R1 - SDWA ptr                                                  Ÿ
                                   12580              Ÿ                                                                     Ÿ
                                                      ¾þþþþþþþþþþþþþþþþþþþþþþþþþþþþþþþþþþþþþþþþþþþþþþþþþþþþþþþþþþþþþþþþþþþþþ»
0000588 50E0 D044/902B_      00044 12581              FMTDUMP  PROC  FMTWA
 USING  *,R8
 USING  FMTWA-@@,R13
 0005A2 47F0 8018            005AA 12628                       B     FMTBASE
                                   12629
                                   12630                       QLTORG
                                   12643
 0005AA                            12644              FMTBASE  LABEL
 0005AA 4190 8FB8            0154A 12646                       LA    BRR,FMTBASE+4000
 USING  FMTBASE+4000,R9            12647                       WITH  (FMTBASE+4000,BRR)
 0005AE 41A0 9FA0            024EA 12660                       LA    BRRR,FMTBASE+8000
 USING  FMTBASE+8000,R10           12661                       WITH  (FMTBASE+8000,BRRR)
                                   12674
 0005B2 1861                       12675                       LR    R6,R1               SDWA ptr
 USING  SDWA,R6                    12676                       WITH  (SDWA,R6),BEGIN
 0005B4 5060 D04C            00000 12690  1                      ST    R6,FMTSDWA          Save SDWA ptr
                                   12691  1
 0005B8 58B0 9096            015E0 12692  1                      L     SEGCBR,=A(PRTSG)
 USING  SEGCB,R11                  12693  1                      USING SEGCB
                                   12702  1                      SEGDEF (SEGCBR)
 0005BC D203 B004 909A 00004 015E4 12703  1                      MVC   SEGCBMAXF,=F'79'    Good for CRTs
                                   12704  1
 0005C2 58E0 909E/0DEE       015E8 12705  1                      ACALL FREESYSP            Free any previous SYSPRINT
 0005C8 58E0 90A2/0DEE       015EC 12709  1                      ACALL ALLOSYSP            Allocate a new SYSPRINT
 0005CE 5820 90A6            015F0 12713  1                      L     R2,=A(SYSPRINT)
 USING  DCB,R2                     12714  1                      WITH  (DCB,R2),BEGIN
 0005D2 D201 2052 9186 00052 016D0 12728  2                        MVC   DCBLRECL,=H'137'    Set for max.
 0005D8 4510 804E/8F/0_      005E0 12729  2                        OPEN  (SYSPRINT,(OUTPUT))
 0005E2 9110 2030/47E0_00030       12735  2                        IF    ~DCBOFLGS.DCBOFOPN,EXIT,FMTDUMP
 DROP   DCB,R2                     12754  1                      END
                                   12762  1
 0005EA 92F1 B03B      0003B       12763  1                      MVI   SEGCC,C'1'
 0005EE 4110 9258/4100_      017A2 12764  1                      SEGB  'Dump of'
 0005FE 4110 C4C0/4100_      004C0 12780  1                      SEGTB CVMJOBNM
 00060E 58E0 90B2/0DEE       015FC 12806  1                      VCALL LOCALTOD
 000614 4BD0 9188/BED7_      016D2 12810  1                      PUSH  30,PTR=R15
 000624 58E0 90B6/0DEE       01600 12817  1                      VCALL FMTCLCK             Current time & date
 00062A 18FB/58E0 90BA_            12821  1                      SEGWR (R1),(R0)
 000632 41D0 D024/50D0_      00024 12843  1                      POP   30
                                   12848  1
1MUD      (MUD2047) (12:36) (15MAR04) Dump Formatter                                                                        Page   34
0Current Usings:  (SDWA,R6) (*,R8) (FMTBASE+4000,R9) (FMTBASE+8000,R10) (SEGCB,R11) (CV,R12) (FMTWA-@@,R13)
0Loc    Object Code    Addr1 Addr2  Stmt Lv Lineno    Source Statement           (Hibal 5, Asmedit 3.3)  HLASM R4.0  2004/03/15 12.36
+___    ______ ____    _____ _____  ____ __ ______    ______ _________
000063A 92F0 B03B      0003B       12849  1                      MVI   SEGCC,C'0'
 00063E D64F C4C8 C4C8_004C8 004C8 12850  1                      IF    (CVMVERS,NZ),'SEGT CVMVERS'
 000658 1B00/18FB/58E0_            12897  1                      SEGWR
 000662 92F0 B03B      0003B       12919  1                      MVI   SEGCC,C'0'
                                   12920  1
 000666 0700/0ADE/1116_            12921  1                      QSNAP 'Milten failure buffer:',MODE=WTO !!!
 000670 0ADE/18280000C_            12926  1                      QSNAP CVNIZSAV,40         !!!
 000678 4110 918A/4100_      016D4 12930  1                      SEGWR 'Milten failure buffer:'  !!!
 000688 4110 C6FC/4100_      006FC 12946  1                      SEGCORE CVNIZSAV,40  !!!!
 000698 92F0 B03B      0003B       12973  1                      MVI   SEGCC,C'0'  !!!!
                                   12974  1
 00069C 50B0 D044/4BD0_      00044 12975  1                      PUSH  SEGCBR
 0006AC 41B0 C5D4            005D4 12982  1                      LA    SEGCBR,CVWSG        WTO seg buffer
 0006B0 D203 C60C 90C6 0060C 01610 12983  1                      MVC   CVWSGUSR,=X'80000000'  action message
 0006B6 5820 606C            0006C 12984  1                      L     R2,SDWANXT1
 0006BA 4120 2000            00000 12985  1                      LA    R2,0(,R2)
 0006BE 1F00/4300 6071             12986  1                      LC    R0,SDWAILC1
 0006C4 1B20                       12991  1                      SR    R2,R0
 0006C6 5810 6004            00004 12992  1                      L     R1,SDWAABCC
 0006CA 18F2                       12993  1                      LR    R15,R2
 0006CC 58E0 90CA/0DEE       01614 12994  1                      ACALL DISPINST            Display code/instruction
 0006D2 1B00/18FB/58E0_            12998  1                      SEGWR
 0006DC 41D0 D008/58B0_      00008 13020  1                      POP   SEGCBR
                                   13026  1
 0006E8 5810 6004            00004 13027  1                      L     R1,SDWAABCC
 0006EC 18F2                       13028  1                      LR    R15,R2
 0006EE 58E0 90CA/0DEE       01614 13029  1                      ACALL DISPINST            Display code/instruction
                                   13033  1
 0006F4 58E0 90B2/0DEE       015FC 13034  1                      VCALL LOCALTOD            Clock at failsoft
 0006FA 5000 C544            00544 13038  1                      ST    R0,CVMFCLCK
 0006FE D23F C548 C141 00548 00141 13039  1                      MVC   CVMFINFO,CVBLANKS
 000704 5810 B020            00020 13040  1                      L     R1,SEGCBLOC
 000708 58F0 B00C            0000C 13041  1                      L     R15,SEGCBLENF
 00070C 59F0 90CE/47D0_      01618 13042  1                      CEIL  R15,L'CVMFINFO
 000718 06F0/12FF/4740_            13061  1                      MOVE  R15,CVMFINFO,@R1    Save failsoft msg
                                   13099  1
 000724 1B00/18FB/58E0_            13100  1                      SEGWR
 00072E 4110 91A2/4100_      016EC 13122  1                      SEGWR 'Registers:'
 00073E 4110 C141/4100_      00141 13138  1                      SEG   CVBLANKS,8
 00074E 4800 91AC            016F6 13165  1                      LH    R0,=H'-1'           Print all regs
 000752 4110 6018            00018 13166  1                      LA    R1,SDWAGRSV         R0-R15 regs
 000756 4DE0 9926            01E70 13167  1                      LCALL DISPREGS
                                   13169  1
 00075A 1B00/18FB/58E0_            13170  1                      SEGWR
 000764 92F0 B03B      0003B       13192  1                      MVI   SEGCC,C'0'
 000768 D503 606C 607C_0006C 0007C 13193  1                      IF    (SDWANXT1,NE,SDWANXT2),BEGIN
 000772 4110 925F/4100_      017A9 13211  2                        SEG   'LAST RB PSW AT '
 000782 58F0 607C            0007C 13226  2                        L     R15,SDWANXT2
 000786 41F0 F000            00000 13227  2                        LA    R15,0(,R15)         RB PSW interrupt address
 00078A 1F00/4300 6081             13228  2                        LC    R0,SDWAILC2
 000790 1BF0                       13233  2                        SR    R15,R0
 000792 58E0 90D6/0DEE       01620 13234  2                        ACALL DISPPSW
 000798 1B00/18FB/58E0_            13238  2                        SEGWR
 0007A2 4110 91AE/4100_      016F8 13260  2                        SEG   'RB REGS:  '
1MUD      (MUD2047) (12:36) (15MAR04) Dump Formatter                                                                        Page   35
0Current Usings:  (SDWA,R6) (*,R8) (FMTBASE+4000,R9) (FMTBASE+8000,R10) (SEGCB,R11) (CV,R12) (FMTWA-@@,R13)
0Loc    Object Code    Addr1 Addr2  Stmt Lv Lineno    Source Statement           (Hibal 5, Asmedit 3.3)  HLASM R4.0  2004/03/15 12.36
+___    ______ ____    _____ _____  ____ __ ______    ______ _________
00007B2 4800 91AC            016F6 13275  2                        LH    R0,=H'-1'
 0007B6 4110 6088            00088 13276  2                        LA    R1,SDWASRSV
 0007BA 4DE0 9926            01E70 13277  2                        LCALL DISPREGS
 0007BE                            13279  1                      END
 DROP   SDWA,R6                    13283                       END
                                   13291
 0007BE 92F0 B03B      0003B       13292                       MVI   SEGCC,C'0'
 0007C2 4110 90DA/4100_      01624 13293                       SEGWR 'Active RB''s:'
 0007D2 5850 0010            00010 13309                       L     R5,CVTPTR
 0007D6 5850 5000/5850_      00000 13310                       WITH  (CVT,R5),'L R5,CVTTCBP; L R5,4(,R5)'
 USING  CVT,R5
 DROP   CVT,R5
 USING  TCB,R5                     13335                       USING TCB,R5              Our TCB
 0007DE 5840 5000            00020 13344                       L     R4,TCBRBP           First RB
 0007E2 5840 401C            0005C 13345                       WITH  (RB,R4),'L R4,RBLINK'  skip over stae RB
 USING  RB,R4
 DROP   RB,R4
 0007E6 1945/4780 839A             13369                       WHILE (R4,NE,R5),BEGIN
 USING  RB,R4                      13386  1                      WITH  (RB,R4)
 0007EC 1814/4100 0008_            13399  1                      SEGHX (R4),8
 0007FA 1B00/18FB/58E0_            13421  1                      SEGB
 000804 4110 90EA/4100_      01634 13443  1                      SETMSG 'PRB '
 00080C 9140 400A/47E0_0004A       13447  1                      IF    RBSTAB1.RBFTIRB,'SETMSG "IRB "'
 00081C 91C0 400A/47E0_0004A       13472  1                      IF    RBSTAB1.RBFTSVRB,'SETMSG "SVRB"'
 00082C 18FB/58E0 90D2_            13497  1                      SEG   (R1),(R0)
 000834 4110 926E/4100_      017B8 13518  1                      SEG   ' PSW-IA AT '
 000844 5810 4014/1B00_      00054 13533  1                      SEGLOC RBOPSW+4
 000850 4110 91B8/4100_      01702 13550  1                      SEG   ', '
 000860 91C0 400A/47E0_0004A       13565  1                      IF    RBSTAB1.RBFTSVRB,BEGIN  get svc no...
 000868 4110 90F6/4100_      01640 13581  2                        SEG   'SVC '
 000878 58F0 401C            0005C 13596  2                        L     R15,RBLINK          Previous RB
 00087C 4BF0 91BA            01704 13597  2                        SH    R15,=H'2'           RB prefix
 000880 4810 F000/1B00_      00000 13598  2                        SEGDC LH:@R15             Rbintcod is the svc no
 00088E 4110 91B8/4100_      01702 13616  2                        SEG   ', '
 00089E                            13631  1                      END
 00089E 91C0 400A/4710_0004A       13635  1                      IF    (RBSTAB1.RBFTSVRB,OR,~RBSTAB1.RBFTIRB),BEGIN
 0008AE 1F22/BF27 400D_            13666  2                        IF    ('L3 R2,RBCDE1',Z),EXIT
 USING  CDE,R2                     13689  2                        WITH  (CDE,R2)
 0008B8 D507 905E 2008_015A8 00008 13702  2                        IF    (CDNAME,EQ,=XL8'00'),EXIT  no cdename
 0008C2 4110 2008/4100_      00008 13722  2                        SEGT  CDNAME
 0008D2 4110 9279/4100_      017C3 13748  2                        SEG   ', ENTRY AT '
 0008E2 1F11/BF17 2011_            13763  2                        SEGLOC L3:CDENTPT+1       Entry point
 DROP   CDE,R2                     13786  1                      END
 0008F0 1B00/18FB/58E0_            13795  1                      SEGWR
 0008FA 4110 91BC/4100_      01706 13817  1                      SEG   '       Regs:  '
 00090A 4800 91AC            016F6 13832  1                      LH    R0,=H'-1'           Register print mask--all regs
 00090E 4110 4020            00060 13833  1                      LA    R1,RBGRS0           R0-r15
 000912 4DE0 9926            01E70 13834  1                      LCALL DISPREGS
 000916 1B00/18FB/58E0_            13836  1                      SEGWR
 000920 5840 401C            0005C 13858  1                      L     R4,RBLINK           Next RB down
 000924 4140 4000            00000 13859  1                      LA    R4,0(,R4)           Drop high byte
 000928 47F0 8254            007E6 13860                       END
 DROP   RB,R4
 DROP   TCB,R5                     13870                       DROP  TCB
1MUD      (MUD2047) (12:36) (15MAR04) Dump Formatter                                                                        Page   36
0Current Usings:  (*,R8) (FMTBASE+4000,R9) (FMTBASE+8000,R10) (SEGCB,R11) (CV,R12) (FMTWA-@@,R13)
0Loc    Object Code    Addr1 Addr2  Stmt Lv Lineno    Source Statement           (Hibal 5, Asmedit 3.3)  HLASM R4.0  2004/03/15 12.36
+___    ______ ____    _____ _____  ____ __ ______    ______ _________
0                                  13878
 00092C 92F0 B03B      0003B       13879                       MVI   SEGCC,C'0'
 000930 D603 C484 C484_00484 00484 13880                       IF    (CVRCLOC,Z),BEGIN
 00093A 4110 90FE/4100_      01648 13896  1                      SEGWR '****  No Reserve Core -- Low In Memory  ****'
 00094A 92F0 B03B      0003B       13912  1                      MVI   SEGCC,C'0'
 00094E                            13913                       END
                                   13917
 00094E 4810 C540/1B00_      00540 13918                       SEGDC LH:CVMNFAIL
 00095C 4110 9284/4100_      017CE 13936                       SEGB  ' FAILSOFTS,'
 00096C 9260 B03B      0003B       13952                       MVI   SEGCC,C'-'
                                   13953
 000970 4110 928F/4100_      017D9 13954                       SEG   'Stack'
 000980 5810 C058/4800_      00058 13969                       SETMSG L:CVSTKP,LH:=H'4096'
 000988 58E0 912A/0DEE       01674 13980                       ACALL DISPSTK
                                   13984
 00098E D627 C750 C750_00750 00750 13985                       IF    (CVCUR,NZ),BEGIN    Current stuff...
 000998 9260 B03B      0003B       14001  1                      MVI   SEGCC,C'-'
 00099C 5860 C750/1266_      00750 14002  1                      IF    ('LT R6,CVCURFEB',NZ),BEGIN  Current front-end...
 USING  FEB,R6                     14018  2                        WITH  (FEB,R6)
 0009A6 1816/4100 0008_            14031  2                        SEGHX (R6),8
 0009B4 D502 9294 6000_017DE 00000 14053  2                        IF    (FEB,NE,'FEB'),'SEG "  **INVALID**"'
 0009CE 4110 912E/4100_      01678 14090  2                        SEGB  '  Current Front-end:'
 0009DE 4110 6014/4100_      00014 14106  2                        SEGTB FEBNAME
 0009EE 1B00/18FB/58E0_            14132  2                        SEGWR
 0009F8 92F0 B03B      0003B       14154  2                        MVI   SEGCC,C'0'
 DROP   FEB,R6                     14155  1                      END
 0009FC 5860 C754/1266_      00754 14164  1                      IF    ('LT R6,CVCURPIB',NZ),BEGIN
 USING  PIB,R6                     14180  2                        WITH  (PIB,R6)
 000A06 1816/4100 0008_            14193  2                        SEGHX (R6),8
 000A14 D502 92A4 6000_017EE 00000 14215  2                        IF    (PIB,NE,'PIB'),'SEG "  **INVALID**"'
 000A2E 4110 92A7/4100_      017F1 14252  2                        SEGB  '  Current port:'
 000A3E 4110 6034/4100_      00034 14268  2                        SEGTB PIBNAME
 000A4E 4110 92B6/4100_      01800 14294  2                        SEG   '('
 000A5E 4810 6004/1B00_      00004 14309  2                        SEGDC LH:PIBNO
 000A6C 4110 92B7/4100_      01801 14327  2                        SEGB  ')'
 000A7C 5820 600C/1222_      0000C 14343  2                        IF    ('LT R2,PIBSCBP',NZ),'SEGB "SESSION:"; SEGHX (R2),6'
 000AA4 1B00/18FB/58E0_            14402  2                        SEGWR
 000AAE 92F0 B03B      0003B       14424  2                        MVI   SEGCC,C'0'
 DROP   PIB,R6                     14425  1                      END
 000AB2 5860 C758/1266_      00758 14434  1                      IF    ('LT R6,CVCURSCB',NZ),BEGIN
 USING  SCB,R6                     14450  2                        WITH  (SCB,R6)
 000ABC 1816/4100 0008_            14463  2                        SEGHX (R6),8
 000ACA D502 92B8 6000_01802 00000 14485  2                        IF    (SCB,NE,'SCB'),'SEG "  **INVALID**"'
 000AE4 4110 91CC/4100_      01716 14522  2                        SEG   '  CURRENT SESSION:'
 000AF4 D604 6124 6124_00124 00124 14537  2                        IF    (SCBACCT,Z),'SEGB "------"'
 000B0E 8580/47F0 861E 00B0E 00AFC 14574  2                        ELSE  BEGIN
 000B12 4110 6127/4100_      00127 14585  3                          SEG   SCBGRP
 000B22 4110 92BB/4100_      01805 14610  3                          SEG   '.'
 000B32 4110 6124/4100_      00124 14625  3                          SEG   SCBUSER
 000B42 D601 6129 6129_00129 00129 14650  3                          IF    (SCBANO,NZ),'SEG "#"; SEGDC L2:SCBANO'
 000B6C D613 6136 6136_00136 00136 14711  3                          IF    (SCBNAME,NZ),'SEG X"407F"; SEGT SCBNAME; SEG X"7F"'
 000BA6 1B00/18FB/58E0_            14788  3                          SEGB
 000BB0                            14810  2                        END
 000BB0 4810 60F8/1B00_      000F8 14814  2                        SEGDC LH:SCBNO
1MUD      (MUD2047) (12:36) (15MAR04) Dump Formatter                                                                        Page   37
0Current Usings:  (SCB,R6) (*,R8) (FMTBASE+4000,R9) (FMTBASE+8000,R10) (SEGCB,R11) (CV,R12) (FMTWA-@@,R13)
0Loc    Object Code    Addr1 Addr2  Stmt Lv Lineno    Source Statement           (Hibal 5, Asmedit 3.3)  HLASM R4.0  2004/03/15 12.36
+___    ______ ____    _____ _____  ____ __ ______    ______ _________
0000BBE 4110 906E/4100_      015B8 14832  2                        SEGB  ' NUMBER,'
 000BCE 5810 60F4/1B00_      000F4 14848  2                        SEGDC L:SCBID
 000BDC 4110 92BE/4100_      01808 14867  2                        SEGB  ' ID'
 000BEC 1B00/18FB/58E0_            14883  2                        SEGWR
 000BF6 92F0 B03B      0003B       14905  2                        MVI   SEGCC,C'0'
 DROP   SCB,R6                     14906  1                      END
 000BFA 5860 C75C/1266_      0075C 14915  1                      IF    ('LT R6,CVCURSUB',NZ),BEGIN
 USING  SUB,R6                     14931  2                        WITH  (SUB,R6)
 000C04 1816/4100 0008_            14944  2                        SEGHX (R6),8
 000C12 D502 92C1 6000_0180B 00000 14966  2                        IF    (SUB,NE,'SUB'),'SEG "  **INVALID**"'
 000C2C 4110 91E6/4100_      01730 15003  2                        SEGB  'CURRENT SUBSYSTEM:'
 000C3C 4110 6010/4100_      00010 15019  2                        SEGTB SUBNAME
 000C4C 9500 6080/4780_00080       15045  2                        IF    (SUBSFLAG,NZ),BEGIN
 000C54 4110 92C4/4100_      0180E 15061  3                          SEGB  'POST:'
 000C64 9108 6080/47E0_00080       15077  3                          IF    SUBSFLAG.PATHFOPN,'SEGB "OPENED"'
 000C7C 9120 6080/47E0_00080       15114  3                          IF    SUBSFLAG.PATHFNI,'SEGB "NEW-INFO"'
 000C94 9180 6080/47E0_00080       15151  3                          IF    SUBSFLAG.PATHFCLS,'SEGB "CLOSING"'
 000CAC                            15188  2                        END
 DROP   SUB,R6                     15192  1                      END
 000CAC                            15201                       END
1MUD      (MUD2047) (12:36) (15MAR04) Dump Formatter                                                                        Page   38
0Current Usings:  (*,R8) (FMTBASE+4000,R9) (FMTBASE+8000,R10) (SEGCB,R11) (CV,R12) (FMTWA-@@,R13)
0Loc    Object Code    Addr1 Addr2  Stmt Lv Lineno    Source Statement           (Hibal 5, Asmedit 3.3)  HLASM R4.0  2004/03/15 12.36
+___    ______ ____    _____ _____  ____ __ ______    ______ _________
0000CAC 9260 B03B      0003B       15206                       MVI   SEGCC,C'-'
 000CB0 4110 91FE/4100_      01748 15207                       SEGB  'Started at'
 000CC0 58E0 90B2/0DEE       015FC 15223                       VCALL LOCALTOD            Get current local time
 000CC6 1820                       15227                       LR    R2,R0
 000CC8 5800 C518            00518 15228                       L     R0,CVMCLCK
 000CCC 1B11/1B33                  15229                       CLEAR R1,R3
 000CD0 4BD0 9188/BED7_      016D2 15235                       PUSH  30,PTR=R15
 000CE0 58E0 9142/0DEE       0168C 15242                       VCALL FMTRCLCK            "hh:mm" or "hh:mm mm/dd/yy"
 000CE6 18FB/58E0 90BA_            15246                       SEGWR (R1),(R0)
 000CEE 41D0 D024/50D0_      00024 15268                       POP   30
                                   15273
 000CF6 4810 C52C/1B00_      0052C 15274                       SEGDC LH:CVMCRSES
 000D04 4110 907E/4100_      015C8 15292                       SEG   ' users logged on'
 000D14 D501 C52E C52C_0052E 0052C 15307                       IF    (CVMMXSES,GT,CVMCRSES),BEGIN
 000D1E 4110 9208/4100_      01752 15325  1                      SEG   ' ('
 000D2E 4810 C52E/1B00_      0052E 15340  1                      SEGDC LH:CVMMXSES
 000D3C 4110 92D0/4100_      0181A 15358  1                      SEGB  ' MAX AT'
 000D4C 5800 C530            00530 15374  1                      L     R0,CVMCKSES
 000D50 1B11/1B22/1B33             15375  1                      CLEAR R1,R2,R3            Compare to current date
 000D56 4BD0 9188/BED7_      016D2 15383  1                      PUSH  30,PTR=R15
 000D66 58E0 9142/0DEE       0168C 15390  1                      VCALL FMTRCLCK            "hh:mm" or "hh:mm mm/dd/yy"
 000D6C 18FB/58E0 90D2_            15394  1                      SEG   (R1),(R0)
 000D74 41D0 D024/50D0_      00024 15415  1                      POP   30
 000D7C 4110 92B7/4100_      01801 15420  1                      SEG   ')'
 000D8C                            15435                       END
 000D8C 4110 92D7/4100_      01821 15439                       SEGB  ','
 000D9C 4810 C53E/1B00_      0053E 15455                       SEGDC LH:CVMCRVIR
 000DAA 4110 920A/4100_      01754 15473                       SEGB  ' VIRTUAL JOBS,'
 000DBA 5810 C528/1B00_      00528 15489                       SEGDC L:CVMTLSES
 000DC8 4110 9218/4100_      01762 15508                       SEGB  ' TOTAL'
 000DD8 9180 C51C/47E0_0051C       15524                       IF    CVMFSTOP,'SEG " (STOPPING)"'
 000DF0 1B00/18FB/58E0_            15559                       SEGWR
                                   15581
 000DFA 5810 C520/1B00_      00520 15582                       SEGDC L:CVMNIO
 000E08 4110 921E/4100_      01768 15601                       SEGB  ' I/O''S'
1MUD      (MUD2047) (12:36) (15MAR04) Dump Formatter                                                                        Page   39
0Current Usings:  (*,R8) (FMTBASE+4000,R9) (FMTBASE+8000,R10) (SEGCB,R11) (CV,R12) (FMTWA-@@,R13)
0Loc    Object Code    Addr1 Addr2  Stmt Lv Lineno    Source Statement           (Hibal 5, Asmedit 3.3)  HLASM R4.0  2004/03/15 12.36
+___    ______ ____    _____ _____  ____ __ ______    ______ _________
0                                  15618                       ¿þþþþþþþþþþþþþþþþþþþþþþþþþÜ
                                   15619                       Ÿ  Display memory usage.  Ÿ
                                   15620                       ¾þþþþþþþþþþþþþþþþþþþþþþþþþ»
 000E18 92F1 B03B      0003B       15621                       MVI   SEGCC,C'1'
 000E1C 41F0 B000            00000 15622                       LA    R15,SEGCB
 000E20 58E0 9146/12EE_      01690 15623                       VCALL COREFMT,*
-                                  15630                       ¿þþþþþþþþþþþþþþþþþþþþþþþþþÜ
                                   15631                       Ÿ  Display symbol table.  Ÿ
                                   15632                       ¾þþþþþþþþþþþþþþþþþþþþþþþþþ»
 000E2C 92F1 B03B      0003B       15633                       MVI   SEGCC,C'1'
 000E30 4110 92E3/4100_      0182D 15634                       SEGWR 'Symbol Table:'
                                   15650
 000E40 92F0 B03B      0003B       15651                       MVI   SEGCC,C'0'
 000E44 5860 914A            01694 15652                       L     R6,=A(SYMBOLS)      Start of symbol table
 000E48                            15653                       LOOP  BEGIN
 USING  SYMBOL,R6                  15659  1                      WITH  (SYMBOL,R6)
 000E48 95FF 6000/4780_00000       15672  1                      UNTIL SYMFEND
 000E50 5810 6004/4100_      00004 15691  1                      SEGHX L:SYMLOC,8
 000E60 4110 C141/4100_      00141 15713  1                      SEG   CVBLANKS,2
 000E70 4110 6008/4100_      00008 15740  1                      SEGT  SYMNAME
 000E80 9180 6000/47E0_00000       15766  1                      IF    SYMFCSCT,BEGIN      Csects have idents...
 000E88 4100 000E/18FB_      0000E 15781  2                        SEGCOL 14
 000E94 58F0 6004/12FF_      00004 15799  2                        IF    ('LT R15,SYMLOC',Z),EXIT
 000E9E D503 9152 6008_0169C 00008 15818  2                        IF    ((SYMNAME,EQ,'MAIN'),AND,(@R15,EQ,'CV')),'LA R15,@R15+4'
 000EB6 9513 F000/4740_00000       15856  2                        IF    ((@R15,LT,X'13'),OR,(@R15,GT,X'18')),EXIT  bad len byte
 000EC6 91C0 F001/47E0_00001       15890  2                        IF    (@R15+1.X'C0',~ONES),EXIT  not alpha
 000ECE 4110 F001/1F00_      00001 15911  2                        SEGT  @R15+1,LC:@R15
 000EE0                            15940  1                      END
 000EE0 1B00/18FB/58E0_            15944  1                      SEGWR
 000EEA 4160 6010            00010 15966  1                      LA    R6,SYMNEXT
 000EEE 47F0 88B6            00E48 15967                       END
 DROP   SYMBOL,R6
1MUD      (MUD2047) (12:36) (15MAR04) Dump Formatter                                                                        Page   40
0Current Usings:  (*,R8) (FMTBASE+4000,R9) (FMTBASE+8000,R10) (SEGCB,R11) (CV,R12) (FMTWA-@@,R13)
0Loc    Object Code    Addr1 Addr2  Stmt Lv Lineno    Source Statement           (Hibal 5, Asmedit 3.3)  HLASM R4.0  2004/03/15 12.36
+___    ______ ____    _____ _____  ____ __ ______    ______ _________
0000EF2 92F1 B03B      0003B       15978                       MVI   SEGCC,C'1'
 000EF6 4110 9156/4100_      016A0 15979                       SEG   'SUBSYSTEMS ('
 000F06 4110 C290/4100_      00290 15994                       SEGT  CVDEFSYS
 000F16 D603 C298 C298_00298 00298 16020                       IF    (CVDEFSUB,NZ),'SEG "/"; SEGHX L:CVDEFSUB,6'
 000F40 4110 9226/4100_      01770 16078                       SEGWR ' default):'
                                   16094
 000F50 4160 C2A0            002A0 16095                       LA    R6,CVSUBQH-(SUBLINK-SUB)
 USING  SUB,R6                     16096                       USING SUB,R6
 000F54 5860 6008/1266_      00008 16105                       WHILE ('LT R6,SUBLINK',NZ),BEGIN
 000F5E D607 6010 6010_00010 00010 16123  1                      IF    (SUBNAME,Z),NEXT
 000F68 92F0 B03B      0003B       16142  1                      MVI   SEGCC,C'0'
 000F6C 1816/4100 0008_            16143  1                      SEGHX (R6),8
 000F7A 4110 C141/4100_      00141 16165  1                      SEG   CVBLANKS,2
 000F8A 4110 6010/4100_      00010 16192  1                      SEGTB SUBNAME
 000F9A D502 92C1 6000_0180B 00000 16218  1                      IF    (SUB,NE,'SUB'),'SEGB "**INVALID**"'
 000FB4 9500 6080/4780_00080       16256  1                      IF    (SUBSFLAG,NZ),BEGIN
 000FBC 4110 92C4/4100_      0180E 16272  2                        SEGB  'POST:'
 000FCC 9108 6080/47E0_00080       16288  2                        IF    SUBSFLAG.PATHFOPN,'SEGB "OPENED"'
 000FE4 9120 6080/47E0_00080       16325  2                        IF    SUBSFLAG.PATHFNI,'SEGB "NEW-INFO"'
 000FFC 9180 6080/47E0_00080       16362  2                        IF    SUBSFLAG.PATHFCLS,'SEGB "CLOSING"'
 001014                            16399  1                      END
 001014 1B00/18FB/58E0_            16403  1                      SEGWR
 00101E 1816/4100 0084_            16425  1                      SEGCORE SUB
 00102C 47F0 89C2            00F54 16450                       END
 DROP   SUB,R6                     16455                       DROP  SUB
                                   16463
 001030 4160 C294            00294 16464                       LA    R6,CVFEBQH-(FEBLINK-FEB)
 001034                            16465                       LOOP  BEGIN
 USING  FEB,R6                     16471  1                      WITH  (FEB,R6)
 001034 5860 6008/1266_      00008 16484  1                      WHILE ('LT R6,FEBLINK',NZ)
 00103E 92F1 B03B      0003B       16501  1                      MVI   SEGCC,C'1'
 001042 4110 6000            00000 16502  1                      LA    R1,FEB
 001046 41F0 B000            00000 16503  1                      LA    R15,SEGCB
 00104A 1FEE/43E0 600D             16504  1                      LC    RAR,FEBTYPE
 001050 59E0 9162/47D0_      016AC 16511  1                      IF    (RAR,GT,FEBTMAX),'CLEAR RAR'
 00105A 89E0 0002            00002 16537  1                      SLL   RAR,2
 00105E 58EE 9032/12EE       0157C 16538  1                      LT    RAR,FMTFE(RAR)      Appropriate routine
 001064 4780 8AD8/05EE       0106A 16542  1                      IF    NZ,'BALR RAR,RAR'
 00106A 8ADC/47F0 8B36 0106A 01066 16559  1                      ELSE  BEGIN
 00106E 1816/4100 0008_            16570  2                        SEGHX (R6),8
 00107C 4110 C141/4100_      00141 16592  2                        SEG   CVBLANKS,2
 00108C 4110 6014/4100_      00014 16619  2                        SEGTB FEBNAME
 00109C 4110 92FC/4100_      01846 16645  2                        SEG   'TYPE='
 0010AC 1F11/4310 600D_            16660  2                        SEGHX IC:FEBTYPE,2
 0010BE 1B00/18FB/58E0_            16687  2                        SEGWR
 0010C8                            16709  1                      END
 0010C8 47F0 8AA2            01034 16713                       END
 DROP   FEB,R6
                                   16723
 0010CC 92F1 B03B      0003B       16724                       MVI   SEGCC,C'1'
 0010D0 4110 9301/4100_      0184B 16725                       SEGWR 'Sessions:'
 0010E0 92F0 B03B      0003B       16741                       MVI   SEGCC,C'0'
 0010E4 4160 C2B0            002B0 16742                       LA    R6,CVSCBQH-(SCBLINK-SCB)
 USING  SCB,R6                     16743                       USING SCB,R6
1MUD      (MUD2047) (12:36) (15MAR04) Dump Formatter                                                                        Page   41
0Current Usings:  (SCB,R6) (*,R8) (FMTBASE+4000,R9) (FMTBASE+8000,R10) (SEGCB,R11) (CV,R12) (FMTWA-@@,R13)
0Loc    Object Code    Addr1 Addr2  Stmt Lv Lineno    Source Statement           (Hibal 5, Asmedit 3.3)  HLASM R4.0  2004/03/15 12.36
+___    ______ ____    _____ _____  ____ __ ______    ______ _________
00010E8 5860 6004/1266_      00004 16752                       WHILE ('LT R6,SCBLINK',NZ),BEGIN
 0010F2 1816/4100 0008_            16770  1                      SEGHX (R6),8
 001100 4110 C141/4100_      00141 16792  1                      SEG   CVBLANKS,2
 001110 D604 6124 6124_00124 00124 16819  1                      IF    (SCBACCT,Z),'SEGB "------"'
 00112A 8B9C/47F0 8C3A 0112A 01118 16856  1                      ELSE  BEGIN
 00112E 4110 6127/4100_      00127 16867  2                        SEG   SCBGRP
 00113E 4110 92BB/4100_      01805 16892  2                        SEG   '.'
 00114E 4110 6124/4100_      00124 16907  2                        SEG   SCBUSER
 00115E D601 6129 6129_00129 00129 16932  2                        IF    (SCBANO,NZ),'SEG "#"; SEGDC L2:SCBANO'
 001188 D613 6136 6136_00136 00136 16993  2                        IF    (SCBNAME,NZ),'SEG X"407F"; SEGT SCBNAME; SEG X"7F"'
 0011C2 1B00/18FB/58E0_            17070  2                        SEGB
 0011CC                            17092  1                      END
 0011CC D502 92B8 6000_01802 00000 17096  1                      IF    (SCB,NE,'SCB'),'SEGB "**INVALID**"'
 0011E6 1B00/18FB/58E0_            17134  1                      SEGWR
 0011F0 47F0 8B56            010E8 17156                       END
 DROP   SCB,R6                     17161                       DROP  SCB
1MUD      (MUD2047) (12:36) (15MAR04) Dump Formatter                                                                        Page   42
0Current Usings:  (*,R8) (FMTBASE+4000,R9) (FMTBASE+8000,R10) (SEGCB,R11) (CV,R12) (FMTWA-@@,R13)
0Loc    Object Code    Addr1 Addr2  Stmt Lv Lineno    Source Statement           (Hibal 5, Asmedit 3.3)  HLASM R4.0  2004/03/15 12.36
+___    ______ ____    _____ _____  ____ __ ______    ______ _________
0                                  17170              *
                                   17171              *  format out ECB list...
 0011F4 92F1 B03B      0003B       17172                       MVI   SEGCC,C'1'
 0011F8 4110 C030/4100_      00030 17173                       SEGHX LA:CVECBLIS,8
 001208 4110 930A/4100_      01854 17195                       SEGWR '  ECB list...'
                                   17211
 001218 4130 C02C            0002C 17212                       LA    R3,CVECBLIS-4
 00121C                            17213                       LOOP  BEGIN
 00121C 4130 3004            00004 17219  1                      LA    R3,@R3+4            First/next ecb
 001220 5820 3000            00000 17220  1                      L     R2,@R3              Ecb ptr
 001224 1812/4100 0008_            17221  1                      SEGHX (R2),8
 001232 4110 9230/4100_      0177A 17243  1                      SEG   '  --> ECB='
 001242 5810 2000/4100_      00000 17258  1                      SEGHX L:@R2,8
 001252 1B00/18FB/58E0_            17280  1                      SEGWR
 00125C 9180 3000/47E0_00000       17302                       UNTIL @R3.X'80',END
1MUD      (MUD2047) (12:36) (15MAR04) Dump Formatter                                                                        Page   43
0Current Usings:  (*,R8) (FMTBASE+4000,R9) (FMTBASE+8000,R10) (SEGCB,R11) (CV,R12) (FMTWA-@@,R13)
0Loc    Object Code    Addr1 Addr2  Stmt Lv Lineno    Source Statement           (Hibal 5, Asmedit 3.3)  HLASM R4.0  2004/03/15 12.36
+___    ______ ____    _____ _____  ____ __ ______    ______ _________
0001264 D603 C33C C33C_0033C 0033C 17327                       IF    (CVTQEQH,NZ),BEGIN  Timer queue...
 00126E 92F1 B03B      0003B       17343  1                      MVI   SEGCC,C'1'
 001272 4110 9166/4100_      016B0 17344  1                      SEGWR 'Timer Queue:'
 001282 92F0 B03B      0003B       17360  1                      MVI   SEGCC,C'0'
                                   17361  1
 001286 4160 C338            00338 17362  1                      LA    R6,CVTQEQH-(TQELINK-TQE)  dummy first entry
 00128A                            17363  1                      LOOP  BEGIN
 USING  TQE,R6                     17369  2                        WITH  (TQE,R6)
 00128A 5860 6004/1266_      00004 17382  2                        WHILE ('LT R6,TQELINK',NZ)
 001294 1816/4100 0008_            17399  2                        SEGHX (R6),8
 0012A2 4110 C141/4100_      00141 17421  2                        SEG   CVBLANKS,2
 0012B2 9801 600C            0000C 17448  2                        LM    R0,R1,TQECLCK       Expiration clock
 0012B6 4BD0 923A/BED7_      01784 17449  2                        PUSH  11,PTR=R15
 0012C6 58E0 9172/0DEE       016BC 17456  2                        VCALL FMTTIME
 0012CC 18FB/58E0 90AA_            17460  2                        SEGB  (R1),(R0)           Hh:mm:ss.hh
 0012D4 41D0 D010/50D0_      00010 17482  2                        POP   11
 0012DC 4110 908E/4100_      015D8 17487  2                        SEG   'ROUTINE='
 0012EC 5810 6014/1B00_      00014 17502  2                        SEGLOC L:TQERTN
 0012F8 4110 9317/4100_      01861 17519  2                        SEG   ', PARM='
 001308 5810 6018/1B00_      00018 17534  2                        SEGLOC L:TQEPARM
 001314 5810 6018            00018 17551  2                        L     R1,TQEPARM
 001318 9140 1000/47E0_00000       17552  2                        IF    @R1.X'40','SEG "/"; SEGT L:TQEPARM,4'
 001340 1B00/18FB/58E0_            17614  2                        SEGB
 00134A D502 931E 6000_01868 00000 17636  2                        IF    (TQE,NE,'TQE'),'SEGB "**INVALID**"'
 001364 1B00/18FB/58E0_            17674  2                        SEGWR
 00136E 47F0 8CF8            0128A 17696  1                      END
 DROP   TQE,R6
 001372                            17706                       END
1MUD      (MUD2047) (12:36) (15MAR04) Dump Formatter                                                                        Page   44
0Current Usings:  (*,R8) (FMTBASE+4000,R9) (FMTBASE+8000,R10) (SEGCB,R11) (CV,R12) (FMTWA-@@,R13)
0Loc    Object Code    Addr1 Addr2  Stmt Lv Lineno    Source Statement           (Hibal 5, Asmedit 3.3)  HLASM R4.0  2004/03/15 12.36
+___    ______ ____    _____ _____  ____ __ ______    ______ _________
0001372 D603 C350 C350_00350 00350 17711                       IF    (CVWTONO,NZ),BEGIN  WTO queue...
 00137C 92F1 B03B      0003B       17727  1                      MVI   SEGCC,C'1'
 001380 4110 9321/4100_      0186B 17728  1                      SEG   'WTO queue ('
 001390 5810 C350/1B00_      00350 17743  1                      SEGDC L:CVWTONO
 00139E 4110 923C/4100_      01786 17762  1                      SEGWR ' entries):'
 0013AE 92F0 B03B      0003B       17778  1                      MVI   SEGCC,C'0'
 0013B2 4160 C354            00354 17779  1                      LA    R6,CVWTOQH
 0013B6 5860 6000/1266_      00000 17780  1                      WHILE ('LT R6,@R6',NZ),BEGIN
 0013C0 4110 C141/4100_      00141 17798  2                        SEG   CVBLANKS,2
 0013D0 4800 6008            00008 17825  2                        LH    R0,@R6+8
 0013D4 4B00 9246            01790 17826  2                        SH    R0,=H'4'
 0013D8 4110 600C/18FB_      0000C 17827  2                        SEGWR @R6+12,(R0)
 0013E4 47F0 8E24            013B6 17852  1                      END
 0013E8                            17857                       END
1MUD      (MUD2047) (12:36) (15MAR04) Dump Formatter                                                                        Page   45
0Current Usings:  (*,R8) (FMTBASE+4000,R9) (FMTBASE+8000,R10) (SEGCB,R11) (CV,R12) (FMTWA-@@,R13)
0Loc    Object Code    Addr1 Addr2  Stmt Lv Lineno    Source Statement           (Hibal 5, Asmedit 3.3)  HLASM R4.0  2004/03/15 12.36
+___    ______ ____    _____ _____  ____ __ ______    ______ _________
0                                  17862              *  Dump remaining stuff (unformatted), just in case it's needed...
                                   17863              *
 0013E8 D203 B004 9176 00004 016C0 17864                       MVC   SEGCBMAXF,=A(L'PRTSGBUF)
                                   17865
 0013EE 92F1 B03B      0003B       17866                       MVI   SEGCC,C'1'
 0013F2 4110 932C/4100_      01876 17867                       SEGWR 'SDWA:'
 001402 92F0 B03B      0003B       17883                       MVI   SEGCC,C'0'
 001406 5810 D04C/4100_      00000 17884                       SEGCORE L:FMTSDWA,SDWALEN,,NOADDR
                                   17910
 001418 92F1 B03B      0003B       17911                       MVI   SEGCC,C'1'
 00141C 4110 9331/4100_      0187B 17912                       SEGWR 'CV:'
 00142C 92F0 B03B      0003B       17928                       MVI   SEGCC,C'0'
 001430 181C/4100 0778_            17929                       SEGCORE CV,,,NOADDR
                                   17955
 001440 92F1 B03B      0003B       17956                       MVI   SEGCC,C'1'
 001444 4110 9334/4100_      0187E 17957                       SEGWR 'PDB Buffer:'
 001454 5810 C060/4800_      00060 17973                       SEGCORE L:CVPDBP,LH:=AL2(CVBUFLEN),,NOADDR
                                   17996
 001466 92F1 B03B      0003B       17997                       MVI   SEGCC,C'1'
 00146A 4110 917A/4100_      016C4 17998                       SEGWR 'Work Buffer:'
 00147A 5810 C064/4800_      00064 18014                       SEGCORE L:CVWKBUFP,LH:=AL2(CVBUFLEN),,NOADDR
                                   18037
 00148C 92F1 B03B      0003B       18038                       MVI   SEGCC,C'1'
 001490 4110 933F/4100_      01889 18039                       SEGWR 'Dump Of Sessions:'
 0014A0 4160 C2B0            002B0 18055                       LA    R6,CVSCBQH-(SCBLINK-SCB)  dummy first entry
 0014A4                            18056                       LOOP  BEGIN
 USING  SCB,R6                     18062  1                      WITH  (SCB,R6)
 0014A4 5860 6004/1266_      00004 18075  1                      WHILE ('LT R6,SCBLINK',NZ)
 0014AE 92F0 B03B      0003B       18092  1                      MVI   SEGCC,C'0'
 0014B2 1816/4100 01B2_            18093  1                      SEGCORE SCB,,,NOADDR
 0014C2 47F0 8F12            014A4 18119                       END
 DROP   SCB,R6
                                   18129
 0014C6 92F1 B03B      0003B       18130                       MVI   SEGCC,C'1'
 0014CA 4110 924A/4100_      01794 18131                       SEGWR 'Dump of Stack:'
 0014DA 5810 C058/4800_      00058 18147                       SEGCORE L:CVSTKP,LH:=H'4096'
                                   18169
 0014EA 9260 B03B      0003B       18170                       MVI   SEGCC,C'-'
 0014EE 4110 9350/4100_      0189A 18171                       SEGWR 'Ciao!'
                                   18187
 0014FE 5820 90A6            015F0 18188                       L     R2,=A(SYSPRINT)
 001502 9110 2030/47E0_00030       18189                       IF    @R2+(DCBOFLGS-DCB).DCBOFOPN,BEGIN  if open...
 00150A 0700/4510 8F82_            18205  1                      CLOSE (SYSPRINT)
 001516 1812/9101 1017_            18211  1                      FREEPOOL (R2)
 001562                            18237                       END
 001562 58E0 909E/0DEE       015E8 18241                       ACALL FREESYSP            Free SYSPRINT now
 001568 41D0 D034/982B_      00034 18245                       PEND
 DROP   FMTBASE+8000,R10
 DROP   FMTBASE+4000,R9
 DROP   FMTWA-@@,R13
 DROP   *,R8
                                   18281
 00157C 00000000                   18282              FMTFE    DC    A(0)
 001580 00000000                   18283                       DC    V(CONSFMT)          FEBTCONS
1MUD      (MUD2047) (12:36) (15MAR04) Dump Formatter                                                                        Page   46
0Current Usings:  (SEGCB,R11) (CV,R12)
0Loc    Object Code    Addr1 Addr2  Stmt Lv Lineno    Source Statement           (Hibal 5, Asmedit 3.3)  HLASM R4.0  2004/03/15 12.36
+___    ______ ____    _____ _____  ____ __ ______    ______ _________
0                                  18284              *         DC    V(ASYNFMT)          FEBTASYN
 001584 00000000                   18285                       DC    A(0)
                                   18286              *         DC    V(PDPFMT)           FEBTPDP
 001588 00000000                   18287                       DC    A(0)
                                   18288              *         DC    V(VTAMFMT)          FEBTVTAM
 00158C 00000000                   18289                       DC    A(0)
 001590 00000000                   18290                       DC    V(VIRTFMT)          FEBTVIRT
                                   18291              *         DC    V(NSCFMT)           FEBTNSC
 001594 00000000                   18292                       DC    A(0)
 001598 00000000                   18293                       DC    V(ELFFMT)           FEBTELF
                                   18294              *         DC    V(ALFFMT)           FEBTALF
 00159C 00000000                   18295                       DC    A(0)
                                   18296              *         DC    V(ECUFMT)           FEBTECU
 0015A0 00000000                   18297                       DC    A(0)
                                   18298              FMTFEMX  EQU   (*-FMTFE-4)/4,,C'N'
 0015A4                            18299                       DS    0S(FMTFEMX-FEBTMAX,FEBTMAX-FMTFEMX)
                                   18300
                                   18301                       QLTORG
1MUD      (MUD2047) (12:36) (15MAR04) Dump Formatter                                                                        Page   47
0Current Usings:  (SEGCB,R11) (CV,R12)
0Loc    Object Code    Addr1 Addr2  Stmt Lv Lineno    Source Statement           (Hibal 5, Asmedit 3.3)  HLASM R4.0  2004/03/15 12.36
+___    ______ ____    _____ _____  ____ __ ______    ______ _________
0                                  18424              ¿þþþþþþþþþþþþþþþþþþþþþþþþþþþþþþþþþþþþþþþþþþþþþþþþþþþþþþþþþþþþþþþþþþþþþÜ
                                   18425              Ÿ                                                                     Ÿ
                                   18426              Ÿ  ABENDCD -- Routine to format abend code in R15 (in xxsssuuu fmt).  Ÿ
                                   18427              Ÿ                                                                     Ÿ
                                                      ¾þþþþþþþþþþþþþþþþþþþþþþþþþþþþþþþþþþþþþþþþþþþþþþþþþþþþþþþþþþþþþþþþþþþþþ»
00018A6 50E0 D044/902B_      00044 18428              ABENDCD  PROC
 USING  *,R8
 0018C0 187F                       18464                       LR    R7,R15
 0018C2 186F                       18465                       LR    R6,R15
 0018C4 5460 8680            01F30 18466                       N     R6,=A(X'FFF000')    Isolate system code
 0018C8 4780 803E            018EE 18467                       IF    NZ,BEGIN            System completion code...
 0018CC 4110 86F4/4100_      01FA4 18478  1                      SEG   'S'
 0018DC 8860 000C            0000C 18493  1                      SRL   R6,12               Move over
 0018E0 1816/4100 0003_            18494  1                      SEGHX (R6),3              Abend code - shhh
 0018EE                            18516                       END
 0018EE 8042/47F0 8062 018EE 018CA 18520                       ELSE  BEGIN               otherwise, it's user completion...
 0018F2 4110 86F5/4100_      01FA5 18531  1                      SEG   'U'
 001902 5470 868C            01F3C 18546  1                      N     R7,=A(X'FFF')       Only keep user code
 001906 1817/1B00/18FB_            18547  1                      SEGDC (R7)                Abend code - udddd
 001912                            18566                       END
 001912 41D0 D030/982B_      00030 18570                       PEND
 DROP   *,R8
1MUD      (MUD2047) (12:36) (15MAR04) Dump Formatter                                                                        Page   48
0Current Usings:  (SEGCB,R11) (CV,R12)
0Loc    Object Code    Addr1 Addr2  Stmt Lv Lineno    Source Statement           (Hibal 5, Asmedit 3.3)  HLASM R4.0  2004/03/15 12.36
+___    ______ ____    _____ _____  ____ __ ______    ______ _________
0                                  18591              ¿þþþþþþþþþþþþþþþþþþþþþþþþþþþþþþþþþþþþþþþþþþþþþþþþþþþþþþþþþþþþþþþþþþþþþÜ
                                   18592              Ÿ                                                                     Ÿ
                                   18593              Ÿ  DISPINST -- Routine to seg PSW addr and abend code.                Ÿ
                                   18594              Ÿ                                                                     Ÿ
                                   18595              Ÿ    On entry:                                                        Ÿ
                                   18596              Ÿ      R1 - abend code                                                Ÿ
                                   18597              Ÿ      R15- PSW addr  (already adjusted for ILC)                      Ÿ
                                   18598              Ÿ                                                                     Ÿ
                                                      ¾þþþþþþþþþþþþþþþþþþþþþþþþþþþþþþþþþþþþþþþþþþþþþþþþþþþþþþþþþþþþþþþþþþþþþ»
0001926 50E0 D044/902B_      00044 18599              DISPINST PROC
 USING  *,R8
 001940 187F                       18635                       LR    R7,R15
 001942 1861                       18636                       LR    R6,R1
                                   18637
 001944 4D10 8028/0000_      01958 18638                       ESPIE SET,DINSERR,(4,5)   Addressing exceptions
 001962 1851                       18651                       LR    R5,R1               Save token
                                   18652
 001964 D501 7000 7000 00000 00000 18653                       CLC   @R7(2),@R7          May cause an interrupt
                                   18654
 00196A D501 863E 7000_01F6E 00000 18655                       IF    (@R7,EQ,X'FEDC'),BEGIN  fail pseudo-instruction...
 001974 4110 8614/4100_      01F44 18671  1                      SEG   'FAIL'
 001984                            18686                       END
 001984 8058/47F0 8070 01984 01972 18690                       ELSE  BEGIN               If abend, give code...
 001988 4110 8676/4100_      01FA6 18701  1           DINSRES    SEGB  'ABEND'
 001998 18F6                       18717  1                      LR    R15,R6
 00199A 58E0 861C/0DEE       01F4C 18718  1                      ACALL ABENDCD
 0019A0                            18722                       END
                                   18726
 0019A0 4110 867B/4100_      01FAB 18727                       SEGB  ' AT'
 0019B0 18F7                       18743                       LR    R15,R7
 0019B2 58E0 8620/0DEE       01F50 18744                       ACALL DISPPSW             (fail text will get written)
 0019B8 1815/4100 0008_            18748                       ESPIE RESET,(5)           Restore old ESPIE
 0019C4 41D0 D030/982B_      00030 18754                       PEND
 DROP   *,R8
                                   18774
 USING  *,R15                      18775              DINSERR  WITH  (*,R15),BEGIN       ESPIE exit...
 USING  EPIE,R1                    18791  1                      WITH  (EPIE,R1)
 0019D8 D202 104D F5D6 0004D 01FAE 18804  1                      MVC   EPIEADD1,=AL3(DINSRES)  Retry routine
 0019DE 07FE                       18805  1                      BR    R14
 DROP   EPIE,R1                    18806                       END
 DROP   *,R15
1MUD      (MUD2047) (12:36) (15MAR04) Dump Formatter                                                                        Page   49
0Current Usings:  (SEGCB,R11) (CV,R12)
0Loc    Object Code    Addr1 Addr2  Stmt Lv Lineno    Source Statement           (Hibal 5, Asmedit 3.3)  HLASM R4.0  2004/03/15 12.36
+___    ______ ____    _____ _____  ____ __ ______    ______ _________
0                                  18820              ¿þþþþþþþþþþþþþþþþþþþþþþþþþþþþþþþþþþþþþþþþþþþþþþþþþþþþþþþþþþþþþþþþþþþþþÜ
                                   18821              Ÿ                                                                     Ÿ
                                   18822              Ÿ  DISPPSW -- Routine to seg PSW addr and the instruction it          Ÿ
                                   18823              Ÿ    points to.                                                       Ÿ
                                   18824              Ÿ                                                                     Ÿ
                                   18825              Ÿ      On entry:                                                      Ÿ
                                   18826              Ÿ        R15 - PSW addr (lready adjusted for ILC)                     Ÿ
                                   18827              Ÿ                                                                     Ÿ
                                                      ¾þþþþþþþþþþþþþþþþþþþþþþþþþþþþþþþþþþþþþþþþþþþþþþþþþþþþþþþþþþþþþþþþþþþþþ»
00019E0 50E0 D044/902B_      00044 18828              DISPPSW  PROC
 USING  *,R8
 0019FA 187F                       18864                       LR    R7,R15
 0019FC 1817/1B00/18FB_            18865                       SEGLOC (R7)
                                   18882
 001A06 0700/4D10 8032_            18883                       ESPIE SET,DPSWERR,(4,5)   Addressing exceptions
 001A26 1861                       18896                       LR    R6,R1               Save token
                                   18897
 001A28 1B55                       18898                       CLEAR R5
 001A2A D505 7000 7000 00000 00000 18902                       CLC   @R7(6),@R7          May cause an interrupt
 001A30 1857                       18903                       LR    R5,R7
 001A32 D501 8584 7000_01F6E 00000 18904                       IF    (@R7,EQ,X'FEDC'),BEGIN  fail pseudo-instruction...
 001A3C 1FFF/43F0 7002             18920  1                      LC    R15,@R7+2           Text len
 001A42 06F0/12FF/4740_            18927  1                      CMPR  R15,@R7+3,@R7+3     May cause interrupt
 001A4E 4150 7002            00002 18965  1                      LA    R5,@R7+2
 001A52 1355                       18966  1                      LCR   R5,R5
 001A54                            18967                       END
                                   18971
 001A54 1816/4100 0008_            18972              DPSWEXIT ESPIE RESET,(6)           Restore old ESPIE
 001A60 1255/4780 8130             18979                       IF    (R5,NZ),BEGIN       Additional info...
 001A66 1B00/18FB/58E0_            18993  1                      SEGB
                                   19015  1
 001A70 41F0 C5D4            005D4 19016  1                      LA    R15,CVWSG
 001A74 19BF/4780 80A0_            19017  1                      IF    (SEGCBR,NE,R15),'SEGB "--"'  non-WTO style
 001A8A 80A4/47F0 80C2 01A8A 01A78 19053  1                      ELSE  BEGIN               WTO style...
 001A8E 5840 C60C            0060C 19064  2                        L     R4,CVWSGUSR         Save WTO options
 001A92 1B00/18FB/58E0_            19065  2                        SEGWR
 001A9C 5040 C60C            0060C 19087  2                        ST    R4,CVWSGUSR         Restore WTO options
 001AA0 1255/47D0 80C2_            19088  2                        IF    (R5,POS),'LA R7,SOFTERR-2; LCR R5,R7'  give msg
 001AAC                            19109  1                      END
                                   19113  1
 001AAC 1255/47D0 810C             19114  1                      IF    (R5,POS),BEGIN      Display instruction...
 001AB2 4810 5000/4100_      00000 19128  2                        SEGHX LH:@R5,4
 001AC2 1B00/18FB/58E0_            19149  2                        SEGB
 001ACC 4810 5002/4100_      00002 19171  2                        SEGHX LH:@R5+2,4
 001ADC 1B00/18FB/58E0_            19192  2                        SEGB
 001AE6 4810 5004/4100_      00004 19214  2                        SEGHX LH:@R5+4,4
 001AF6                            19235  1                      END
 001AF6 8110/47F0 8130 01AF6 01AB0 19239  1                      ELSE  BEGIN               Fail text...
 001AFA 4110 7003/1F00_      00003 19250  2                        SETMSG @R7+3,LC:@R7+2
 001B04 1200/4770 8128_            19267  2                        IF    (R0,Z),'SETMSG "FAIL"'
 001B12 18FB/58E0 854A_            19290  2                        SEG   (R1),(R0)
 001B1A                            19311  1                      END
 001B1A                            19315                       END
1MUD      (MUD2047) (12:36) (15MAR04) Dump Formatter                                                                        Page   50
0Current Usings:  (SEGCB,R11) (CV,R12)
0Loc    Object Code    Addr1 Addr2  Stmt Lv Lineno    Source Statement           (Hibal 5, Asmedit 3.3)  HLASM R4.0  2004/03/15 12.36
+___    ______ ____    _____ _____  ____ __ ______    ______ _________
0001B1A 41D0 D030/982B_      00030 19319                       PEND
 DROP   *,R8
                                   19339
 USING  *,R15                      19340              DPSWERR  WITH  (*,R15),BEGIN       ESPIE exit...
 USING  EPIE,R1                    19356  1                      WITH  (EPIE,R1)
 001B2E D202 104D F483 0004D 01FB1 19369  1                      MVC   EPIEADD1,=AL3(DPSWEXIT)  Retry routine
 001B34 07FE                       19370  1                      BR    R14
 DROP   EPIE,R1                    19371                       END
 DROP   *,R15
                                   19384
 001B36 0E                         19385              SOFTERR  DC    AL1(L'SOFTMSG)
 001B37 E2D6C6E3E6C1D9C5           19386              SOFTMSG  DC    C'SOFTWARE ERROR'
1MUD      (MUD2047) (12:36) (15MAR04) Dump Formatter                                                                        Page   51
0Current Usings:  (SEGCB,R11) (CV,R12)
0Loc    Object Code    Addr1 Addr2  Stmt Lv Lineno    Source Statement           (Hibal 5, Asmedit 3.3)  HLASM R4.0  2004/03/15 12.36
+___    ______ ____    _____ _____  ____ __ ______    ______ _________
0000000                00000 00050 19388              DSTKWA   RECORD BEGIN
 000000                            19396  1           DSTKFRST   DS    A                   First NSP ptr
 000004                            19397  1           DSTKLAST   DS    A                   Last entry processed
 000008                            19398  1           DSTKLOW    DS    A                   Lowest point in stack
 00000C                            19399  1           DSTKPICA   DS    A                   Saved previous PICA addr
 000010                            19400  1           DSTKREGS   DS    16A                 Register area (for DISPREGS)
 000050                00050 00050 19401                       END
-                                  19411              ¿þþþþþþþþþþþþþþþþþþþþþþþþþþþþþþþþþþþþþþþþþþþþþþþþþþþþþþþþþþþþþþþþþþþþþÜ
                                   19412              Ÿ                                                                     Ÿ
                                   19413              Ÿ  DISPSTK -- Routine to format and display stack.                    Ÿ
                                   19414              Ÿ                                                                     Ÿ
                                   19415              Ÿ    On entry:                                                        Ÿ
                                   19416              Ÿ      R1,R0 - stack area start, len                                  Ÿ
                                   19417              Ÿ                                                                     Ÿ
                                                      ¾þþþþþþþþþþþþþþþþþþþþþþþþþþþþþþþþþþþþþþþþþþþþþþþþþþþþþþþþþþþþþþþþþþþþþ»
0001B46 50E0 D044/902B_      00044 19418              DISPSTK  PROC  DSTKWA
 USING  *,R8
 USING  DSTKWA-@@,R13
 001B60 D74F D04C D04C 00000 00000 19465                       CLEAR DSTKWA
 001B66 4110 1000            00000 19472                       LA    R1,@R1
 001B6A 5010 D054            00008 19473                       ST    R1,DSTKLOW
 001B6E 1A10                       19474                       AR    R1,R0
 001B70 4B10 8424            01F74 19475                       SH    R1,=AL2(L'STK)      First (oldest) entry
 001B74 5010 D04C            00000 19476                       ST    R1,DSTKFRST
                                   19477
 001B78 9260 B03B      0003B       19478                       MVI   SEGCC,C'-'
 001B7C 4110 8464/4100_      01FB4 19479                       SEGWR ':'
                                   19495
 001B8C 4D10 8050/0000_      01BA0 19496                       ESPIE SET,DSTKERR,(4,5)       Addressing exceptions
 001BAA 5010 D058            0000C 19509                       ST    R1,DSTKPICA
                                   19510
 001BAE 5870 D04C            00000 19511                       L     R7,DSTKFRST
 001BB2                            19512                       LOOP  BEGIN
 USING  STK,R7                     19518  1                      WITH  (STK,R7)
 001BB2 5860 7048            00048 19531  1                      L     R6,STKNSP
 001BB6 5460 8408            01F58 19532  1                      N     R6,=A(X'FFFFFC')
 001BBA 1967/4780 8084             19533  1                      WHILE (R6,NE,R7)
 001BC0 1967/4720 827A_            19549  1                      IF    ((R6,GT,R7),OR,(R6,LT,DSTKLOW)),DSTKBAD
 001BCE 1876                       19583  1                      LR    R7,R6
 001BD0 47F0 8062            01BB2 19584                       END
 DROP   STK,R7
 001BD4 5070 D050            00004 19594              DSTKSET  ST    R7,DSTKLAST         Save last stack entry
                                   19595
 001BD8 5810 D058            0000C 19596                       L     R1,DSTKPICA
 001BDC 4100 0008/41F0_      00008 19597                       ESPIE RESET,(1)
                                   19602
 001BE6 D503 D04C D050_00000 00004 19603                       IF    (DSTKFRST,EQ,DSTKLAST),BEGIN
 001BF0 92F0 B03B      0003B       19621  1                      MVI   SEGCC,C'0'
 001BF4 4110 8465/4100_      01FB5 19622  1                      SEGWR 'Empty Stack'
 001C04 47F0 82C4            01E14 19638  1                      EXIT  DISPSTK
 001C08                            19641                       END
1MUD      (MUD2047) (12:36) (15MAR04) Dump Formatter                                                                        Page   52
0Current Usings:  (*,R8) (SEGCB,R11) (CV,R12) (DSTKWA-@@,R13)
0Loc    Object Code    Addr1 Addr2  Stmt Lv Lineno    Source Statement           (Hibal 5, Asmedit 3.3)  HLASM R4.0  2004/03/15 12.36
+___    ______ ____    _____ _____  ____ __ ______    ______ _________
0                                  19645
 001C08 5870 D04C            00000 19646              DSTKLP   L     R7,DSTKFRST
 001C0C 5970 D050/4780_      00004 19647                       IF    (R7,EQ,DSTKLAST),EXIT
 001C14                            19667                       LOOP  BEGIN
 USING  STK,R7                     19673  1                      WITH  (STK,R7)
 001C14 5860 7048            00048 19686  1                      L     R6,STKNSP
 001C18 5460 8408            01F58 19687  1                      N     R6,=A(X'FFFFFC')
 001C1C 5960 D050/4780_      00004 19688  1                      WHILE (R6,NE,DSTKLAST)
 001C24 1876                       19706  1                      LR    R7,R6
 001C26 47F0 80C4            01C14 19707                       END
 DROP   STK,R7
 001C2A 5070 D050            00004 19717                       ST    R7,DSTKLAST
                                   19718
 001C2E 1B76                       19719                       SR    R7,R6
 001C30 4B70 8426            01F76 19720                       SH    R7,=H'4'            WA LENGTH (W/O L'NSP)
 001C34 1F55/4350 6048_            19721                       WITH  (STK,R6),'LC R5,STKRS; LA R6,STKWA'
 USING  STK,R6
 DROP   STK,R6
 001C3E 92F0 B03B      0003B       19752                       MVI   SEGCC,C'0'
 001C42 1816/1B00/18FB_            19753                       SEGHX (R6)
 001C4E 4110 C141/4100_      00141 19772                       SEG   CVBLANKS,2
 001C5E 1255/4770 817E             19799                       IF    (R5,Z),BEGIN        Push entry...
 001C64 4110 8428/4100_      01F78 19813  1                      SEG   'PUSH:  LENGTH='
 001C74 1817/1B00/18FB_            19828  1                      SEGDC (R7)
 001C80 5970 840C/47D0_      01F5C 19847  1                      IF    (R7,GT,9),'SEG " (0"; SEGHX (R7); SEG ")"'
 001CB4 1B00/18FB/58E0_            19918  1                      SEGWR
 001CBE 1816/1807/18FB_            19940  1                      SEGCORE (R6),(R7)
 001CCA 47F0 80B8            01C08 19963  1                      B     DSTKLP
 001CCE                            19964                       END
                                   19968
 001CCE 4110 8436/4100_      01F86 19969                       SEG   'PROC:  RETURN='
 001CDE 4B70 8426            01F76 19984                       SH    R7,=H'4'
 001CE2 4137 6000            00000 19985                       LA    R3,@R6(R7)
 001CE6 5810 3000/1B00_      00000 19986                       SEGLOC L:@R3
 001CF2 1B00/18FB/58E0_            20003                       SEGWR
 001CFC 1845                       20025                       LR    R4,R5
 001CFE 8840 0004            00004 20026                       SRL   R4,4                R4 = first saved reg
 001D02 5450 8414            01F64 20027                       N     R5,=A(X'F')         R5 = last saved reg
 001D06 41F0 5001            00001 20028                       LA    R15,@R5+1
 001D0A 1BF4                       20029                       SR    R15,R4
 001D0C 4720 81C6            01D16 20030                       IF    ~POS,BEGIN          High-reg,low-reg...
 001D10 41F0 5011            00011 20041  1                      LA    R15,16+@R5+1
 001D14 1BF4                       20042  1                      SR    R15,R4
 001D16                            20043                       END
 001D16 89F0 0002            00002 20047                       SLL   R15,2               No. of bytes needed for regs
 001D1A 1B3F                       20048                       SR    R3,R15              Registers start here
 001D1C 1B7F                       20049                       SR    R7,R15              Length of extra wa
 001D1E 4110 8474/4100_      01FC4 20050                       SEGB  '  REGS:'
 001D2E 4110 D05C            00010 20066                       LA    R1,DSTKREGS
 001D32 1B00                       20067                       CLEAR R0                  Register print mask
 001D34 8940 0002            00002 20071                       SLL   R4,2
 001D38 8950 0002            00002 20072                       SLL   R5,2
 001D3C 1945/47B0 820E             20073                       IF    (R4,LT,R5),BEGIN
 001D42                            20088  1                      LOOP  BEGIN
1MUD      (MUD2047) (12:36) (15MAR04) Dump Formatter                                                                        Page   53
0Current Usings:  (*,R8) (SEGCB,R11) (CV,R12) (DSTKWA-@@,R13)
0Loc    Object Code    Addr1 Addr2  Stmt Lv Lineno    Source Statement           (Hibal 5, Asmedit 3.3)  HLASM R4.0  2004/03/15 12.36
+___    ______ ____    _____ _____  ____ __ ______    ______ _________
0001D42 41F4 1000            00000 20094  2                        LA    R15,@R1(R4)
 001D46 D203 F000 3000 00000 00000 20095  2                        MVC   @R15(4),@R3
 001D4C 4130 3004            00004 20096  2                        LA    R3,@R3+4
 001D50 5604 82E0            01E30 20097  2                        O     R0,DSTKMASK(R4)
 001D54 4140 4004            00004 20098  2                        LA    R4,@R4+4
 001D58 1945/47D0 81F2             20099  1                      UNTIL (R4,GT,R5),END
 001D5E                            20122                       END
 001D5E 8212/47F0 8250 01D5E 01D40 20126                       ELSE  BEGIN
 001D62 4120 003C            0003C 20137  1                      LA    R2,15*4
 001D66                            20138  1                      LOOP  BEGIN
 001D66 41F4 1000            00000 20144  2                        LA    R15,@R1(R4)
 001D6A D203 F000 3000 00000 00000 20145  2                        MVC   @R15(4),@R3
 001D70 4130 3004            00004 20146  2                        LA    R3,@R3+4
 001D74 5604 82E0            01E30 20147  2                        O     R0,DSTKMASK(R4)
 001D78 4140 4004            00004 20148  2                        LA    R4,@R4+4
 001D7C 1942/47D0 8216             20149  1                      UNTIL (R4,GT,R2),END
 001D82 1B22                       20172  1                      CLEAR R2
 001D84                            20176  1                      LOOP  BEGIN
 001D84 41F2 1000            00000 20182  2                        LA    R15,@R1(R2)
 001D88 D203 F000 3000 00000 00000 20183  2                        MVC   @R15(4),@R3
 001D8E 4130 3004            00004 20184  2                        LA    R3,@R3+4
 001D92 5602 82E0            01E30 20185  2                        O     R0,DSTKMASK(R2)
 001D96 4120 2004            00004 20186  2                        LA    R2,@R2+4
 001D9A 1925/47D0 8234             20187  1                      UNTIL (R2,GT,R5),END
 001DA0                            20210                       END
 001DA0 4DE0 8320            01E70 20214                       LCALL DISPREGS
 001DA4 1277/47D0 8276             20216                       IF    (R7,POS),BEGIN
 001DAA 4110 847B/4100_      01FCB 20230  1                      SEGWR '  WA:'
 001DBA 1816/1807/18FB_            20246  1                      SEGCORE (R6),(R7)
 001DC6                            20269                       END
 001DC6 47F0 80B8            01C08 20273                       B     DSTKLP
                                   20274
 001DCA 92F0 B03B      0003B       20275              DSTKBAD  MVI   SEGCC,C'0'
 001DCE 4110 8444/4100_      01F94 20276                       SEGB  'STACK ERROR AT'
 001DDE 1817/1B00/18FB_            20292                       SEGHX (R7)
 001DEA 4110 8480/4100_      01FD0 20311                       SEGB  ', NEXT ENTRY WOULD BE'
 001DFA 1816/1B00/18FB_            20327                       SEGHX (R6)
 001E06 1B00/18FB/58E0_            20346                       SEGWR
 001E10 47F0 8084            01BD4 20368                       B     DSTKSET
                                   20369
 001E14 41D0 D080/982B_      00080 20370                       PEND
 DROP   DSTKWA-@@,R13
 DROP   *,R8
                                   20396
 USING  *,R15                      20397              DSTKERR  WITH  (*,R15),BEGIN       ESPIE exit...
 USING  EPIE,R1                    20413  1                      WITH  (EPIE,R1)
 001E28 D202 104D F1BD 0004D 01FE5 20426  1                      MVC   EPIEADD1,=AL3(DSTKBAD)  Retry routine
 001E2E 07FE                       20427  1                      BR    R14
 DROP   EPIE,R1                    20428                       END
 DROP   *,R15
                                   20441
 001E30 0000800000004000           20442              DSTKMASK DC    A(X'8000',X'4000',X'2000',X'1000')
 001E40 0000080000000400           20443                       DC    A(X'0800',X'0400',X'0200',X'0100')
 001E50 0000008000000040           20444                       DC    A(X'0080',X'0040',X'0020',X'0010')
1MUD      (MUD2047) (12:36) (15MAR04) Dump Formatter                                                                        Page   54
0Current Usings:  (SEGCB,R11) (CV,R12)
0Loc    Object Code    Addr1 Addr2  Stmt Lv Lineno    Source Statement           (Hibal 5, Asmedit 3.3)  HLASM R4.0  2004/03/15 12.36
+___    ______ ____    _____ _____  ____ __ ______    ______ _________
0001E60 0000000800000004           20445                       DC    A(X'0008',X'0004',X'0002',X'0001')
1MUD      (MUD2047) (12:36) (15MAR04) Dump Formatter                                                                        Page   55
0Current Usings:  (SEGCB,R11) (CV,R12)
0Loc    Object Code    Addr1 Addr2  Stmt Lv Lineno    Source Statement           (Hibal 5, Asmedit 3.3)  HLASM R4.0  2004/03/15 12.36
+___    ______ ____    _____ _____  ____ __ ______    ______ _________
0                                  20447              ¿þþþþþþþþþþþþþþþþþþþþþþþþþþþþþþþþþþþþþþþþþþþþþþþþþþþþþþþþþþþþþþþþþþþþþÜ
                                   20448              Ÿ                                                                     Ÿ
                                   20449              Ÿ  DISPREGS -- Routine to seg saved GPRs.                             Ÿ
                                   20450              Ÿ                                                                     Ÿ
                                   20451              Ÿ    On entry:                                                        Ÿ
                                   20452              Ÿ      R0 - register print mask (low 16 bits)                         Ÿ
                                   20453              Ÿ      R1 - addr of R0-R15 save area                                  Ÿ
                                   20454              Ÿ                                                                     Ÿ
                                                      ¾þþþþþþþþþþþþþþþþþþþþþþþþþþþþþþþþþþþþþþþþþþþþþþþþþþþþþþþþþþþþþþþþþþþþþ»
0001E70 50E0 D044/902B_      00044 20455              DISPREGS PROC
 USING  *,R8
 001E8A 5870 B010            00010 20491                       L     R7,SEGCBINDF        Previous indent count
 001E8E D203 B010 B00C 00010 0000C 20492                       MVC   SEGCBINDF,SEGCBLENF  Indent at this length
 001E94 1830                       20493                       LR    R3,R0               Print mask
 001E96 8930 0010            00010 20494                       SLL   R3,16               Move it to upper 16 bits
 001E9A 1841                       20495                       LR    R4,R1               Regs addr
 001E9C 1B55                       20496                       CLEAR R5                  Reg no
 001E9E 1B00                       20500                       CLEAR R0                  (for first seg in loop)
 001EA0 1233/4780 8094             20504                       WHILE (R3,NZ),BEGIN       Do while still regs to print
 001EA6 1B22                       20520  1                      CLEAR R2
 001EA8 8D20 0001            00001 20524  1                      SLDL  R2,1                Move a bit into r2
 001EAC 1222/4780 8088             20525  1                      IF    (R2,NZ),BEGIN       Print this reg...
 001EB2 18FB/58E0 80BA_            20539  2                        SEG   (R1),(R0)
 001EBA 18FB/58E0 80EE_            20560  2                        SEGMARK
 001EC2 4110 816E/4100_      01FE8 20571  2                        SEG   'R'
 001ED2 1815/1B00/18FB_            20586  2                        SEGDC (R5)
 001EDE 4110 816F/4100_      01FE9 20605  2                        SEG   '='
 001EEE 5810 4000/1B00_      00000 20620  2                        SEGLOC @R4
 001EFA 4110 8128/4100_      01FA2 20637  2                        SETMSG ', '
 001F02                            20641  1                      END
 001F02 4150 5001            00001 20645  1                      LA    R5,@R5+1
 001F06 4140 4004            00004 20646  1                      LA    R4,@R4+4
 001F0A 47F0 8026            01EA0 20647                       END
 001F0E 1B00/18FB/58E0_            20652                       SEGWR
 001F18 5070 B010            00010 20674                       ST    R7,SEGCBINDF        Restore indent count
 001F1C 41D0 D030/982B_      00030 20675                       PEND
 DROP   *,R8
                                   20695                       QLTORG ,
1MUD      (MUD2047) (12:36) (15MAR04) Dump Formatter                                                                        Page   56
0Current Usings:  (SEGCB,R11) (CV,R12)
0Loc    Object Code    Addr1 Addr2  Stmt Lv Lineno    Source Statement           (Hibal 5, Asmedit 3.3)  HLASM R4.0  2004/03/15 12.36
+___    ______ ____    _____ _____  ____ __ ______    ______ _________
0                                  20749              ¿þþþþþþþþþþþþþþþþþþþþþþþþþþþþþþþþþþþþþþþþþþþþþþþþþþþþþþþþþþþþþþþþþþþþþÜ
                                   20750              Ÿ                                                                     Ÿ
                                   20751              Ÿ  SEGCORE -- Internal routine to seg memory contents in dump format. Ÿ
                                   20752              Ÿ                                                                     Ÿ
                                   20753              Ÿ    On entry:                                                        Ÿ
                                   20754              Ÿ      R1 - starting memory address                                   Ÿ
                                   20755              Ÿ      R0 - len (complimented if "address" form not wanted)           Ÿ
                                   20756              Ÿ      R15- SEGCB ptr                                                 Ÿ
                                   20757              Ÿ                                                                     Ÿ
                                                      ¾þþþþþþþþþþþþþþþþþþþþþþþþþþþþþþþþþþþþþþþþþþþþþþþþþþþþþþþþþþþþþþþþþþþþþ»
0001FF0 50E0 D044/902B_      00044 20758              SEGCORE  XPROC
 USING  *,R8
 00200A 18BF                       20796                       LR    SEGCBR,R15
                                   20797                       SEGDEF (SEGCBR)
                                   20798
 00200C 1861                       20799                       LR    R6,R1               Starting addr
 00200E 1850                       20800                       LR    R5,R0               Len
 002010 4D10 802A/0000_      02024 20801                       ESPIE SET,BADCORE,(4,5)       Addressing exceptions
 00202E 5010 D044/4BD0_      00044 20814                       PUSH  R1                  Save old pica addr
 00203E 1045                       20821                       LPR   R4,R5
 002040 1244/47D0 81F2             20822                       WHILE (R4,POS),BEGIN
 002046 1B00/18FB/58E0_            20838  1                      SEGWR
 002050 41F0 6000            00000 20860  1                      LA    R15,@R6             Get core addr
 002054 181F/4100 0008_            20861  1                      SEGHX (R15),8             Starting addr
 002062 5460 851E            02518 20883  1                      N     R6,=F'-4'           Align to word
 002066 1836                       20884  1                      LR    R3,R6               Save ptr for later
 002068 1255/47B0 8134             20885  1                      IF    (R5,NEG),BEGIN
 00206E 4110 C141/4100_      00141 20899  2                        SEG   CVBLANKS,2
 00207E 4120 0008            00008 20926  2                        LA    R2,8                8 words
 002082 D503 8526 B004_02520 00004 20927  2                        IF    (SEGCBMAXF,LE,80),'LA R2,4'  Half size
 002090                            20951  2                        LOOP  BEGIN
 002090 5810 6000/4100_      00000 20957  3                          SEGHX L:@R6,8
 0020A0 1B00/18FB/58E0_            20979  3                          SEGB
 0020AA 4160 6004            00004 21001  3                          LA    R6,@R6+4
 0020AE 4B40 8546/47D0_      02540 21002  3                          IF    ('SH R4,=H"4"',~POS),EXIT
 0020B6 0620                       21018  3                          DECR  R2
 0020B8 1222/4770 8096             21020  2                        UNTIL (R2,Z),END
 0020BE 4100 0051            00051 21042  2                        LA    R0,8+(8*9)+1
 0020C2 D503 8526 B004_02520 00004 21043  2                        IF    (SEGCBMAXF,LE,80),'LA R0,8+(4*9)+1'  Half size
 0020D0 18FB/58E0 852E_            21067  2                        SEGCOL (R0)
 0020D8 4110 8552/4100_      0254C 21082  2                        SEG   '*'
 0020E8 D503 8526 B004_02520 00004 21097  2                        IF    (SEGCBMAXF,LE,80),BEGIN
 0020F2 D50F 3000 3000 00000 00000 21115  3                          CLC   @R3(16),@R3         Force any interrupt
 0020F8 1813/4100 0010_            21116  3                          SEG   (R3),16
 002106                            21141  2                        END
 002106 8110/47F0 8124 02106 020F0 21145  2                        ELSE  BEGIN
 00210A D51F 3000 3000 00000 00000 21156  3                          CLC   @R3(32),@R3         Force any interrupt
 002110 1813/4100 0020_            21157  3                          SEG   (R3),32
 00211E                            21182  2                        END
 00211E 4110 8552/4100_      0254C 21186  2                        SEG   '*'
 00212E                            21201  1                      END
                                   21205  1
 00212E 8138/47F0 81EE 0212E 0206C 21206  1                      ELSE  BEGIN
1MUD      (MUD2047) (12:36) (15MAR04) Dump Formatter                                                                        Page   57
0Current Usings:  (*,R8) (SEGCB,R11) (CV,R12)
0Loc    Object Code    Addr1 Addr2  Stmt Lv Lineno    Source Statement           (Hibal 5, Asmedit 3.3)  HLASM R4.0  2004/03/15 12.36
+___    ______ ____    _____ _____  ____ __ ______    ______ _________
0002132 4170 0060            00060 21217  2                        LA    R7,8+4*22
 002136 D503 8526 B004_02520 00004 21218  2                        IF    (SEGCBMAXF,LE,80),'LA R7,8+2*22'
 002144 4120 0008            00008 21242  2                        LA    R2,8                Column
 002148                            21243  2                        LOOP  BEGIN
 002148 1802/18FB/58E0_            21249  3                          SEGCOL (R2)
 002152 5810 6000/4100_      00000 21265  3                          SEGLOC L:@R6,8            Display hex & addr
 002160 18FB/58E0 8532_            21285  3                          SEGMARK
 002168 4120 2016            00016 21296  3                          LA    R2,@R2+22           Next column
 00216C 4160 6004            00004 21297  3                          LA    R6,@R6+4            Next word
 002170 4B40 8546/47D0_      02540 21298  3                          IF    ('SH R4,=H"4"',~POS),EXIT  all done
 002178 1927/4750 814E             21314  2                        UNTIL (R2,GE,R7),END
 00217E 4100 7002/18FB_      00002 21337  2                        SEGCOL @R7+2
 00218A 18FB/58E0 8532_            21355  2                        SEGMARK
 002192 4110 8552/4100_      0254C 21366  2                        SEG   '*'
 0021A2 D503 8526 B004_02520 00004 21381  2                        IF    (SEGCBMAXF,LE,80),BEGIN
 0021AC D507 3000 3000 00000 00000 21399  3                          CLC   @R3(8),@R3          Force any interrupt
 0021B2 1813/4100 0008_            21400  3                          SEG   (R3),8
 0021C0                            21425  2                        END
 0021C0 81CA/47F0 81DE 021C0 021AA 21429  2                        ELSE  BEGIN
 0021C4 D50F 3000 3000 00000 00000 21440  3                          CLC   @R3(16),@R3         Force any interrupt
 0021CA 1813/4100 0010_            21441  3                          SEG   (R3),16
 0021D8                            21466  2                        END
 0021D8 4110 8552/4100_      0254C 21470  2                        SEG   '*'
 0021E8                            21485  1                      END
 0021E8 47F0 8046            02040 21489                       END
 0021EC 47F0 8210            0220A 21494                       B     SEGCDONE
 0021F0 1B00/18FB/58E0_            21495              BADCRS   SEGWR ,                   Spie recovery reentry
 0021FA 4110 8553/4100_      0254D 21518                       SEG   'BAD ADDRESS'
 00220A 1B00/18FB/58E0_            21533              SEGCDONE SEGWR
 002214 41D0 D008/5810_      00008 21556                       POP   R1                  Restore pica
 002220 4100 0008/41F0_      00008 21562                       ESPIE RESET,(1)           Restore old ESPIE
 00222A 41D0 D030/982B_      00030 21567                       PEND
 DROP   *,R8
                                   21587
 USING  *,R15                      21588              BADCORE  WITH  (*,R15),BEGIN       ESPIE exit...
 USING  EPIE,R1                    21604  1                      WITH  (EPIE,R1)
 00223E D202 104D F31A 0004D 02558 21617  1                      MVC   EPIEADD1,=AL3(BADCRS)  Retry routine
 002244 07FE                       21618  1                      BR    R14
 DROP   EPIE,R1                    21619                       END
 DROP   *,R15
1MUD      (MUD2047) (12:36) (15MAR04) Dump Formatter                                                                        Page   58
0Current Usings:  (SEGCB,R11) (CV,R12)
0Loc    Object Code    Addr1 Addr2  Stmt Lv Lineno    Source Statement           (Hibal 5, Asmedit 3.3)  HLASM R4.0  2004/03/15 12.36
+___    ______ ____    _____ _____  ____ __ ______    ______ _________
0                                  21633              ¿þþþþþþþþþþþþþþþþþþþþþþþþþþþþþþþþþþþþþþþþþþþþþþþþþþþþþþþþþþþþþþþþþþþþþÜ
                                   21634              Ÿ                                                                     Ÿ
                                   21635              Ÿ   SEGLOC - Routine to seg hex address in R1 and                     Ÿ
                                   21636              Ÿ            csect+offset if the address is in MILTEN.                Ÿ
                                   21637              Ÿ                                                                     Ÿ
                                   21638              Ÿ   SEGPSW - Enter here if R1 has the right half of a PSW             Ÿ
                                   21639              Ÿ       (So we can subtract the ILC).                                 Ÿ
                                   21640              Ÿ                                                                     Ÿ
                                                      ¾þþþþþþþþþþþþþþþþþþþþþþþþþþþþþþþþþþþþþþþþþþþþþþþþþþþþþþþþþþþþþþþþþþþþþ»
0002246 50E0 D044/902B_      00044 21641              SEGPSW   XPROC
 USING  *,R8
 002260 18BF                       21679                       LR    SEGCBR,R15
 002262 18F1                       21680                       LR    R15,R1
 002264 1BEE                       21681                       CLEAR R14
 002266 8DE0 0002            00002 21685                       SLDL  R14,2               Get ILC in low two bits
 00226A 1AEE                       21686                       AR    R14,R14             Times two
 00226C 88F0 0002            00002 21687                       SRL   R15,2               Put r15 back to normal
 002270 1BFE                       21688                       SR    R15,R14             Subtract ILC
 002272 4110 F000            00000 21689                       LA    R1,@R15             Drop high byte
 002276 18FB                       21690                       LR    R15,SEGCBR
 002278 4DE0 8040            02290 21691                       LCALL SEGLOC
 00227C 41D0 D030/982B_      00030 21693                       PEND
 DROP   *,R8
-002290 50E0 D044/902B_      00044 21714              SEGLOC   XPROC LOC
 USING  *,R8
 USING  LOC-@@,R13
 0022AA 18BF                       21763                       LR    SEGCBR,R15
                                   21764                       SEGDEF (SEGCBR)
                                   21765
 0022AC 1850                       21766                       LR    R5,R0               Addr len (for seghx)
 0022AE 5010 D04C            00000 21767                       ST    R1,LOCADDR          Save addr for findloc
 0022B2 4110 D04C            00000 21768                       LA    R1,LOC              Set param reg
 0022B6 4DE0 81A0            0243A 21769                       LCALL FINDLOC
 0022BA 5810 D04C/1805_      00000 21771                       SEGHX LOCADDR,(R5)
 0022C8 D507 D058 C141_0000C 00141 21791                       IF    (LOCSYM,NE,CVBLANKS),BEGIN
 0022D2 4110 82AA/4100_      02544 21809  1                      SEG   ' ('
 0022E2 4110 D058/4100_      0000C 21824  1                      SEGT  LOCSYM
 0022F2 D601 D062 D062_00016 00016 21850  1                      IF    (LOCSYOFS,NZ),'SEG "+0"; SEGHX LH:LOCSYOFS'
 00231A 4110 82C1/4100_      0255B 21904  1                      SEG   ')'
 00232A                            21919                       END
 00232A 8094/47F0 80F6_0232A 022D0 21923                       ELSEIF (LOCCSECT,NE,CVBLANKS),BEGIN
 002338 4110 82AA/4100_      02544 21950  1                      SEG   ' ('
 002348 4110 D050/4100_      00004 21965  1                      SEGT  LOCCSECT
 002358 D601 D060 D060_00014 00014 21991  1                      IF    (LOCCSOFS,NZ),'SEG "+0"; SEGHX LH:LOCCSOFS'
 002380 4110 82C1/4100_      0255B 22045  1                      SEG   ')'
 002390                            22060                       END
 002390 41D0 D048/982B_      00048 22064                       PEND
 DROP   LOC-@@,R13
 DROP   *,R8
                                   22090
 DROP   SEGCB,R11                  22091                       DROP  SEGCB
1MUD      (MUD2047) (12:36) (15MAR04) Dump Formatter                                                                        Page   59
0Current Usings:  (CV,R12)
0Loc    Object Code    Addr1 Addr2  Stmt Lv Lineno    Source Statement           (Hibal 5, Asmedit 3.3)  HLASM R4.0  2004/03/15 12.36
+___    ______ ____    _____ _____  ____ __ ______    ______ _________
0                                  22100              ¿þþþþþþþþþþþþþþþþþþþþþþþþþþþþþþþþþþþþþþþþþþþþþþþþþþþþþþþþþþþþþþþþþþþþþÜ
                                   22101              Ÿ                                                                     Ÿ
                                   22102              Ÿ  ADDRSYM -- Routine to return the address of the symbol specified   Ÿ
                                   22103              Ÿ    or -1 if the symbol is unrecognized.                             Ÿ
                                   22104              Ÿ                                                                     Ÿ
                                   22105              Ÿ    On entry:                                                        Ÿ
                                   22106              Ÿ      R1 - symbol name ptr                                           Ÿ
                                   22107              Ÿ      R0 - symbol len                                                Ÿ
                                   22108              Ÿ                                                                     Ÿ
                                   22109              Ÿ    On exit, R15 (and cc):                                           Ÿ
                                   22110              Ÿ      -1  - unknown symbol                                           Ÿ
                                   22111              Ÿ      pos - symbol's address                                         Ÿ
                                   22112              Ÿ                                                                     Ÿ
                                                      ¾þþþþþþþþþþþþþþþþþþþþþþþþþþþþþþþþþþþþþþþþþþþþþþþþþþþþþþþþþþþþþþþþþþþþþ»
00023A4 50E0 D044/902B_      00044 22113              ADDRSYM  XPROC
 USING  *,R8
 0023BE 1BFF                       22151                       CLEAR R15                 Assume no match
 0023C0 1200/47D0 8078_            22155                       IF    ((R0,~POS),OR,(R0,GT,8)),EXIT
 0023CE 4BD0 819A/BED7_      02548 22188                       PUSH  8,PTR=R6
 0023DE D207 6000 C141 00000 00141 22195                       MVC   @R6(8),CVBLANKS
 0023E4 18F0                       22196                       LR    R15,R0
 0023E6 06F0/44F0 81AE_            22197                       DEX   R15,'MVC @R6(0),@R1'
 0023EC 58F0 818A            02538 22216                       L     R15,=A(SYMBOLS)     Start of symbol table
 USING  SYMBOL,R15                 22217                       WITH  (SYMBOL,R15)
 0023F0 95FF F000/4780_00000       22230                       UNTIL SYMFEND,BEGIN
 0023F8 D507 F008 6000_00008 00000 22250  1                      IF    (SYMNAME,EQ,@R6),EXIT  Found it
 002402 41F0 F010            00010 22270  1                      LA    R15,SYMNEXT
 002406 47F0 8042            023F0 22271                       END
                                   22276
 00240A 95FF F000/4770_00000       22277                       IF    SYMFEND,'LH R15,=H"-1"'  No match
 002416 806C/47F0 8070_02416 02410 22298                       ELSE  'L R15,SYMLOC'      Get symbol address
                                   22315
 00241E 41D0 D00C/50D0_      0000C 22316                       POP   8
 002426 41D0 D030/982B_      00030 22321                       PEND
 DROP   SYMBOL,R15
 DROP   *,R8
1MUD      (MUD2047) (12:36) (15MAR04) Dump Formatter                                                                        Page   60
0Current Usings:  (CV,R12)
0Loc    Object Code    Addr1 Addr2  Stmt Lv Lineno    Source Statement           (Hibal 5, Asmedit 3.3)  HLASM R4.0  2004/03/15 12.36
+___    ______ ____    _____ _____  ____ __ ______    ______ _________
0                                  22347              ¿þþþþþþþþþþþþþþþþþþþþþþþþþþþþþþþþþþþþþþþþþþþþþþþþþþþþþþþþþþþþþþþþþþþþþÜ
                                   22348              Ÿ                                                                     Ÿ
                                   22349              Ÿ  FINDLOC -- Routine to find the closest symbol table offsets        Ÿ
                                   22350              Ÿ             for a given address.  On entry, R1 points to a          Ÿ
                                   22351              Ÿ             parameter area with "locaddr" filled in (see            Ÿ
                                   22352              Ÿ             "LOC" dsect).                                           Ÿ
                                   22353              Ÿ                                                                     Ÿ
                                                      ¾þþþþþþþþþþþþþþþþþþþþþþþþþþþþþþþþþþþþþþþþþþþþþþþþþþþþþþþþþþþþþþþþþþþþþ»
000243A 50E0 D044/902B_      00044 22354              FINDLOC  PROC
 USING  *,R8
 002454 1861                       22390                       LR    R6,R1               Copy param reg
 USING  LOC,R6                     22391                       WITH  (LOC,R6)
 002456 D207 6004 C141 00004 00141 22404                       MVC   LOCCSECT,CVBLANKS   Init fields
 00245C D207 600C C141 0000C 00141 22405                       MVC   LOCSYM,CVBLANKS
 002462 1B00/4000 6016_            22406                       CLEAR R0,LOCSYOFS,LOCCSOFS
 00246C 5850 80F4/1255       02538 22420                       LT    R5,=A(SYMBOLS)      Addr of symbol table
 002472 4780 80B4            024F8 22424                       IF    Z,EXIT              No table
                                   22438                       ¿þþþþþþþþþþþþþþþþþþþþþþþþþþþþþþþþþþþþþþþþþþþþþþþþþþþþÜ
                                   22439                       Ÿ  The symbol table has been sorted by symbol addr.  Ÿ
                                   22440                       ¾þþþþþþþþþþþþþþþþþþþþþþþþþþþþþþþþþþþþþþþþþþþþþþþþþþþþ»
 USING  SYMBOL,R5                  22441                       WITH  (SYMBOL,R5)
 002476 5840 6000            00000 22454                       L     R4,LOCADDR          Get comparison addr
 00247A 4140 4000            00000 22455                       LA    R4,@R4              Drop high byte
                                   22456
 00247E 1B22/1B33                  22457                       CLEAR R2,R3               Old symbol ptr, old csect ptr
 002482 95FF 5000/4780_00000       22463                       WHILE (~SYMFEND,AND,(R4,GE,SYMLOC)),BEGIN
 002492 9180 5000/47E0_00000       22496  1                      IF    SYMFCSCT,'LR R3,R5'
 00249C 805C/47F0 805E_0249C 02498 22517  1                      ELSE  'LR R2,R5'
 0024A2 4150 5010            00010 22534  1                      LA    R5,SYMNEXT
 0024A6 47F0 803E            02482 22535                       END
                                   22540
 0024AA 1252/4780 80B4             22541                       IF    ('LTR R5,R2',NZ),BEGIN
 0024B0 1233/4780 8078_            22554  1                      IF    ((R3,Z),OR,(R2,LE,R3)),BEGIN  only give symbol if it's
                                   22582  2           *                                  closer than the csect
 0024BC 18F4                       22583  2                        LR    R15,R4
 0024BE 5FF0 5004            00004 22584  2                        SL    R15,SYMLOC          Offset from symbol
 0024C2 41F0 F000            00000 22585  2                        LA    R15,@R15            Drop high byte
 0024C6 49F0 5002/4730_      00002 22586  2                        IF    (R15,LE,SYMLEN),BEGIN
 0024CE 40F0 6016            00016 22603  3                          STH   R15,LOCSYOFS
 0024D2 D207 600C 5008 0000C 00008 22604  3                          MVC   LOCSYM,SYMNAME
 0024D8                            22605  2                        END
 0024D8                            22609  1                      END
                                   22613  1
 0024D8 1253/4780 80B4             22614  1                      IF    ('LTR R5,R3',NZ),BEGIN
 0024DE 5F40 5004            00004 22627  2                        SL    R4,SYMLOC           Offset from csect
 0024E2 4140 4000            00000 22628  2                        LA    R4,@R4
 0024E6 4940 5002/4730_      00002 22629  2                        IF    (R4,LE,SYMLEN),BEGIN
 0024EE 4040 6014            00014 22646  3                          STH   R4,LOCCSOFS
 0024F2 D207 6004 5008 00004 00008 22647  3                          MVC   LOCCSECT,SYMNAME
 0024F8                            22648  2                        END
 0024F8                            22652  1                      END
 0024F8                            22656                       END
 0024F8 41D0 D030/982B_      00030 22660                       PEND
1MUD      (MUD2047) (12:36) (15MAR04) Dump Formatter                                                                        Page   61
0Current Usings:  (CV,R12)
0Loc    Object Code    Addr1 Addr2  Stmt Lv Lineno    Source Statement           (Hibal 5, Asmedit 3.3)  HLASM R4.0  2004/03/15 12.36
+___    ______ ____    _____ _____  ____ __ ______    ______ _________
0DROP   SYMBOL,R5
 DROP   LOC,R6
 DROP   *,R8
                                   22690
                                   22691                       QLTORG
1MUD      (MUD2047) (12:36) (15MAR04) Dump Formatter                                                                        Page   62
0Current Usings:  (CV,R12)
0Loc    Object Code    Addr1 Addr2  Stmt Lv Lineno    Source Statement           (Hibal 5, Asmedit 3.3)  HLASM R4.0  2004/03/15 12.36
+___    ______ ____    _____ _____  ____ __ ______    ______ _________
0                                  22727              ¿þþþþþþþþþþþþþþþþþþþþþþþþþþþþþþþþþþþþþþþþþþþþþþþþþþþþþþþþþþþþþþþþþþþþþÜ
                                   22728              Ÿ                                                                     Ÿ
                                   22729              Ÿ  PRTSEG -- SEG routine to write line to SYSPRINT.                   Ÿ
                                   22730              Ÿ                                                                     Ÿ
                                   22731              Ÿ    On entry:                                                        Ÿ
                                   22732              Ÿ                                                                     Ÿ
                                   22733              Ÿ      R15 - SEGCB ptr                                                Ÿ
                                   22734              Ÿ                                                                     Ÿ
                                                      ¾þþþþþþþþþþþþþþþþþþþþþþþþþþþþþþþþþþþþþþþþþþþþþþþþþþþþþþþþþþþþþþþþþþþþþ»
0002562 50E0 D044/902B_      00044 22735              PRTSEG   PROC
 USING  *,R8
 00257C 186F                       22771                       LR    R6,R15
 USING  SEGCB,R6                   22772                       WITH  (SEGCB,R6)
                                   22785
 00257E 9502 6000/4780_00000       22786                       IF    (SEGCBWR,OR,SEGCBOVF),BEGIN  segwr or overflow entry...
 00258E 1851                       22815  1                      LR    R5,R1
 002590 1840                       22816  1                      LR    R4,R0
                                   22817  1
 002592 5830 809C            02608 22818  1                      L     R3,=A(SYSPRINT)     SYSPRINT DCB
 002596 9110 3030/47E0_00030       22819  1                      IF    @R3+(DCBOFLGS-DCB).DCBOFOPN,BEGIN  it's open...
 00259E 1824                       22835  2                        LR    R2,R4
 0025A0 4120 2005            00005 22836  2                        LA    R2,4+1+@R2          l'rdw + cc char + text
 0025A4 4020 3052            00052 22837  2                        STH   R2,@R3+(DCBLRECL-DCB)
 0025A8 1813/1FFF/BFF7_            22838  2                        PUT   (R3)                Get buffer space
 0025B2 9110 3030/47E0_00030       22844  2                        IF    ~@R3+(DCBOFLGS-DCB).DCBOFOPN,EXIT  DCB abend, scram
 0025BA 4020 1000            00000 22863  2                        STH   R2,@R1              Rdw len
 0025BE D701 1002 1002 00002 00002 22864  2                        CLEAR (@R1+2,2)           Rdw flags
 0025C4 9240 1004      00004       22871  2                        MVI   @R1+4,C' '          Cc char
 0025C8 9500 603B/4780_0003B       22872  2                        IF    (SEGCC,NZ),'MVC @R1+4(1),SEGCC'
 0025D6 1244/47D0 8082             22894  2                        IF    (R4,POS),BEGIN
 0025DC 18F4                       22908  3                          LR    R15,R4
 0025DE 06F0/12FF/4740_            22909  3                          MOVE  R15,@R1+5,@R5
 0025EA 44F0 80A8/DC00_      02614 22947  3                          EX    R15,'TR @R1+5(0),SEGTRTBL'
 0025EE                            22963  2                        END
 0025EE                            22967  1                      END
                                   22971  1
 0025EE 9200 603B      0003B       22972  1                      CLEAR SEGCC               Reset
 0025F2 1304                       22979  1                      LCR   R0,R4               Amnt we reduced bfr--for segcbovf
 0025F4                            22980                       END
 0025F4 41D0 D030/982B_      00030 22984                       PEND
 DROP   SEGCB,R6
 DROP   *,R8
                                   23009
                                   23010                       QLTORG
                                   23024              *
                                   23025              **  translate table to convert funny chars to dots.
 00261A 4B4B4B4B4B4B4B4B           23026              SEGTRTBL DC    X'4B4B4B4B4B4B4B4B4B4B4B4B4B4B4B4B'
 00262A 4B4B4B4B4B4B4B4B           23027                       DC    X'4B4B4B4B4B4B4B4B4B4B4B4B4B4B4B4B'
 00263A 4B4B4B4B4B4B4B4B           23028                       DC    X'4B4B4B4B4B4B4B4B4B4B4B4B4B4B4B4B'
 00264A 4B4B4B4B4B4B4B4B           23029                       DC    X'4B4B4B4B4B4B4B4B4B4B4B4B4B4B4B4B'
 00265A 404B4B4B4B4B4B4B           23030                       DC    X'404B4B4B4B4B4B4B4B4B4A4B4C4D4E4F'
 00266A 504B4B4B4B4B4B4B           23031                       DC    X'504B4B4B4B4B4B4B4B4B5A5B5C5D5E4B'
 00267A 60614B4B4B4B4B4B           23032                       DC    X'60614B4B4B4B4B4B4B4B4B6B6C6D6E6F'
1MUD      (MUD2047) (12:36) (15MAR04) Dump Formatter                                                                        Page   63
0Current Usings:  (CV,R12)
0Loc    Object Code    Addr1 Addr2  Stmt Lv Lineno    Source Statement           (Hibal 5, Asmedit 3.3)  HLASM R4.0  2004/03/15 12.36
+___    ______ ____    _____ _____  ____ __ ______    ______ _________
000268A 4B4B4B4B4B4B4B4B           23033                       DC    X'4B4B4B4B4B4B4B4B4B4B7A7B7C7D7E7F'
 00269A 4B81828384858687           23034                       DC    X'4B8182838485868788894B4B4B4B4B4B'
 0026AA 4B91929394959697           23035                       DC    X'4B9192939495969798994B4B4B4B4B4B'
 0026BA 4B4BA2A3A4A5A6A7           23036                       DC    X'4B4BA2A3A4A5A6A7A8A94B4B4B4B4B4B'
 0026CA 4B4B4B4B4B4B4B4B           23037                       DC    X'4B4B4B4B4B4B4B4B4B4B4B4B4B4B4B4B'
 0026DA 4BC1C2C3C4C5C6C7           23038                       DC    X'4BC1C2C3C4C5C6C7C8C94B4B4B4B4B4B'
 0026EA 4BD1D2D3D4D5D6D7           23039                       DC    X'4BD1D2D3D4D5D6D7D8D94B4B4B4B4B4B'
 0026FA 4B4BE2E3E4E5E6E7           23040                       DC    X'4B4BE2E3E4E5E6E7E8E94B4B4B4B4B4B'
 00270A F0F1F2F3F4F5F6F7           23041                       DC    X'F0F1F2F3F4F5F6F7F8F94B4B4B4B4B4B'
1MUD      (MUD2047) (12:36) (15MAR04) Dump Formatter                                                                        Page   64
0Current Usings:  (CV,R12)
0Loc    Object Code    Addr1 Addr2  Stmt Lv Lineno    Source Statement           (Hibal 5, Asmedit 3.3)  HLASM R4.0  2004/03/15 12.36
+___    ______ ____    _____ _____  ____ __ ______    ______ _________
0                                  23043              ¿þþþþþþþþþþþþþþþþþþþþþþþþþþþþþþþþþþþþþþþþþþþþþþþþþþþþþþþþþþþþþþþþþþþþþÜ
                                   23044              Ÿ                                                                     Ÿ
                                   23045              Ÿ  ALLOSYSP -- Allocate a SYSPRINT ddcard.                            Ÿ
                                   23046              Ÿ                                                                     Ÿ
                                                      ¾þþþþþþþþþþþþþþþþþþþþþþþþþþþþþþþþþþþþþþþþþþþþþþþþþþþþþþþþþþþþþþþþþþþþþ»
000271A 50E0 D044/902B_      00044 23047              ALLOSYSP PROC
 USING  *,R8
 002734 4110 8060            02784 23083                       LA    R1,BALLOC
 002738 0A63                       23084                       DYNALLOC ,                Allocate SYSPRINT
 00273A 41D0 D030/982B_      00030 23087                       PEND
 DROP   *,R8
-                                  23108              ¿þþþþþþþþþþþþþþþþþþþþþþþþþþþþþþþþþþþþþþþþþþþþþþþþþþþþþþþþþþþþþþþþþþþþþÜ
                                   23109              Ÿ                                                                     Ÿ
                                   23110              Ÿ  FREESYSP -- De-allocate SYSPRINT ddcard (so it can be fetched      Ÿ
                                   23111              Ÿ    or printed).                                                     Ÿ
                                   23112              Ÿ                                                                     Ÿ
                                                      ¾þþþþþþþþþþþþþþþþþþþþþþþþþþþþþþþþþþþþþþþþþþþþþþþþþþþþþþþþþþþþþþþþþþþþþ»
000274E 50E0 D044/902B_      00044 23113              FREESYSP PROC
 USING  *,R8
 002768 4110 8060            027B8 23149                       LA    R1,BDEALLOC
 00276C 0A63                       23150                       DYNALLOC ,                De-allocate SYSPRINT
 00276E 41D0 D030/982B_      00030 23153                       PEND
 DROP   *,R8
-                                  23174              *  Dynamic allocation/de-allocation parameter list...
 002784                            23175              BALLOC   DS    0F
 002784 80002788                   23176                       DC    X'80',AL3(BALRB)    Alloc request block ptr
 002788 14                         23177              BALRB    DC    AL1(20)
 002789 01                         23178              BALVERB  DC    AL1(S99VRBAL)       Allocation
 00278A 20                         23179                       DC    AL1(S99NOMNT)
 00278B 00                         23180                       DC    AL1(0)
 00278C                            23181                       DS    0F
 00278C 0000                       23182              BALERROR DC    H'0'
 00278E 0000                       23183              BALINFO  DC    H'0'
 002790 0000279C                   23184                       DC    A(BALTXTP)
 002794 00000000                   23185                       DC    A(0)
 002798 00000000                   23186                       DC    A(0)
 00279C 000027D4                   23187              BALTXTP  DC    A(BDLTXTDD)
 0027A0 000027AC                   23188                       DC    A(BALTXTF)
 0027A4 800027A8                   23189                       DC    X'80',AL3(BALTXTS)
 0027A8 00180000                   23190              BALTXTS  DC    AL2(DALSYSOU,0)     SYSOUT=$
 0027AC 001A00010004C4E4           23191              BALTXTF  DC    AL2(DALSFMNO,1,4),C'DUMP'  FORMS=DUMP
                                   23192
 0027B8                            23193              BDEALLOC DS    0F
 0027B8 800027BC                   23194                       DC    X'80',AL3(BDLRB)    De-alloc request block ptr
 0027BC 14                         23195              BDLRB    DC    AL1(20)
 0027BD 02                         23196                       DC    AL1(S99VRBUN)       SYSPRINT de-allocation
 0027BE 20                         23197                       DC    AL1(S99NOMNT)
 0027BF 00                         23198                       DC    AL1(0)
1MUD      (MUD2047) (12:36) (15MAR04) Dump Formatter                                                                        Page   65
0Current Usings:  (CV,R12)
0Loc    Object Code    Addr1 Addr2  Stmt Lv Lineno    Source Statement           (Hibal 5, Asmedit 3.3)  HLASM R4.0  2004/03/15 12.36
+___    ______ ____    _____ _____  ____ __ ______    ______ _________
00027C0                            23199                       DS    0F
 0027C0 0000                       23200              BDLERROR DC    H'0'
 0027C2 0000                       23201              BDLINFO  DC    H'0'
 0027C4 000027D0                   23202                       DC    A(BDLTXTP)
 0027C8 00000000                   23203                       DC    A(0)
 0027CC 00000000                   23204                       DC    A(0)
 0027D0 800027D4                   23205              BDLTXTP  DC    X'80',AL3(BDLTXTDD)
 0027D4 000100010008E2E8           23206              BDLTXTDD DC    AL2(DALDDNAM,1,8),CL8'SYSPRINT'
                                   23207
                                   23208                       QLTORG
                                   23221                       PUSH  NOGEN
 0027EC 00                         23225              PRTSG    SEGCB PRTSGBUF,,RTN=PRTSEG
 PRTSGCOD.PRTSGSEG 01 EQ
 PRTSGCOD.PRTSGWR  02 EQ
 PRTSGCOD.PRTSGCLR 03 EQ
 PRTSGCOD.PRTSGSPP 04 EQ
 PRTSGCOD.PRTSGOVF 05 EQ
 PRTSGCOD.PRTSGCR  06 EQ
 PRTSGCOD.PRTSGMAR 07 EQ
 002828                            23313              PRTSGBUF DS    CL132
                                   23314
                                   23315            C SYSPRINT DCB   DDNAME=SYSPRINT,DSORG=PS,MACRF=PL,
 0028AC 0000000000000000                                             RECFM=VBA,LRECL=137,BLKSIZE=6233,EXLST=PRTEXLST
                                   23357                       POP   PRINT
                                   23359
 00290C 91002910                   23360              PRTEXLST DC    0A(0),X'91',AL3(PRTABEND)  DCB abend exit
                                   23361
 USING  *,R15                      23362              PRTABEND WITH  (*,R15),BEGIN
 002910 9204 1003      00003       23378  1                      MVI   @R1+3,4             Tell os to ignore the abend
 002914 07FE                       23379  1                      BR    R14                 Return
 DROP   *,R15                      23380                       END
                                   23388
 002918                            23389                       DS    0F
 002918                            23390              STAESTK  DS    XL4096
                                   23391
 003918 0000077800000000           23392              SYMBOLS  SYMBOLS (CV,,L'CV),CSECT=NO
 003928 8000780000000000_          23395                       SYMBOLS (MILMAIN,MAIN),(MILMALT,MALT),(MILMUD,MUD)
 003958 8000780000000000_          23399                       SYMBOLS (MILMISC,MISC),(MILSIFT,SIFT),(MILMSVC,MSVC)
 003988 8000780000000000_          23403                       SYMBOLS (MILMORT,MORT),(MILCONS,CONS)
 0039A8 8000780000000000           23406                       SYMBOLS (MILVIRT,VIRT)
 0039B8 8000780000000000           23408                       SYMBOLS (MILELF,ELF)
 0039C8 8000780000000000           23410                       SYMBOLS (MILMCOM,MCOM)
 0039D8 FFFFFFFFFFFFFFFF           23412                       DC    (L'SYMBOL)X'FF'     End of symbol table
                                   23413
 0039E8                039E8 039E8 23414                       END   .

1MUD      (MUD2047) (12:36) (15MAR04) Relocation Dictionary                                                                 Page   66
-   Pos.Id   Rel.Id   Flags    Address                                                       HLASM R4.0  2004/03/15 12.36
0  00000001 00000001    0C    00000068
   00000001 00000001    0C    000000D8
   00000001 00000001    0C    000004B8
   00000001 00000001    0C    000004C4
   00000001 00000001    0C    000004DC
   00000001 00000001    08    000005DD
   00000001 00000001    08    00001511
   00000001 00000001    0C    000015E0
   00000001 00000001    0C    000015E8
   00000001 00000001    0C    000015EC
   00000001 00000001    0C    000015F0
   00000001 00000001    0C    00001614
   00000001 00000001    0C    00001620
   00000001 00000001    0C    00001674
   00000001 00000001    0C    00001694
   00000001 00000001    0C    00001948
   00000001 00000001    0C    00001A0C
   00000001 00000001    0C    00001B90
   00000001 00000001    0C    00001F4C
   00000001 00000001    0C    00001F50
   00000001 00000001    08    00001FAE
   00000001 00000001    08    00001FB1
   00000001 00000001    08    00001FE5
   00000001 00000001    0C    00002014
   00000001 00000001    0C    00002538
   00000001 00000001    08    00002558
   00000001 00000001    0C    00002608
   00000001 00000001    08    00002785
   00000001 00000001    0C    00002790
   00000001 00000001    0C    0000279C
   00000001 00000001    0C    000027A0
   00000001 00000001    08    000027A5
   00000001 00000001    08    000027B9
   00000001 00000001    0C    000027C4
   00000001 00000001    08    000027D1
   00000001 00000001    0C    0000280C
   00000001 00000001    0C    00002810
   00000001 00000001    08    000028D1
   00000001 00000001    08    0000290D
   00000001 00000002    1C    000004B4
   00000001 00000002    1C    0000391C
   00000001 00000003    1C    000004C8
   00000001 00000004    1C    000004CC
   00000001 00000005    1C    000004D0
   00000001 00000006    1C    000004D8
   00000001 00000007    1C    000004E8
   00000001 00000008    1C    000004EC
   00000001 00000009    1C    000004F0
   00000001 00000009    1C    00001604
   00000001 00000009    1C    00001F54
   00000001 00000009    1C    00002510
   00000001 0000000A    1C    000004F4
   00000001 0000000B    1C    000004FC
   00000001 0000000C    1C    00000500
   00000001 0000000D    1C    0000054C
1MUD      (MUD2047) (12:36) (15MAR04) Relocation Dictionary                                                                 Page   67
   00000001 0000000E    1C    00000554
   00000001 0000000F    1C    00000564
   00000001 00000010    1C    00000574
   00000001 00000011    1C    0000057C
   00000001 00000012    1C    00001580
   00000001 00000013    1C    00001590
   00000001 00000014    1C    00001598
   00000001 00000015    1C    000015F4
   00000001 00000015    1C    00001F48
   00000001 00000015    1C    00002524
   00000001 00000016    1C    000015F8
   00000001 00000017    1C    000015FC
   00000001 00000018    1C    00001600
   00000001 00000019    1C    00001608
   00000001 00000019    1C    00002530
   00000001 0000001A    1C    0000160C
   00000001 0000001A    1C    00001F60
   00000001 0000001B    1C    0000161C
   00000001 0000001B    1C    00001F34
   00000001 0000001B    1C    0000251C
   00000001 0000001C    1C    00001630
   00000001 0000001C    1C    00001F38
   00000001 0000001C    1C    00002514
   00000001 0000001D    1C    00001644
   00000001 0000001D    1C    00001F40
   00000001 0000001E    1C    0000168C
   00000001 0000001F    1C    00001690
   00000001 00000020    1C    00001698
   00000001 00000020    1C    00002528
   00000001 00000021    1C    000016BC
   00000001 00000022    1C    00001F68
   00000001 00000022    1C    0000252C
   00000001 00000023    1C    0000392C
   00000001 00000024    1C    0000393C
   00000001 00000025    1C    0000394C
   00000001 00000026    1C    0000395C
   00000001 00000027    1C    0000396C
   00000001 00000028    1C    0000397C
   00000001 00000029    1C    0000398C
   00000001 0000002A    1C    0000399C
   00000001 0000002B    1C    000039AC
   00000001 0000002C    1C    000039BC
   00000001 0000002D    1C    000039CC

1MUD      (MUD2047) (12:36) (15MAR04) Ordinary Symbol and Literal Cross Reference                                           Page   68
-Symbol   Length   Value     Id    R Type   Defn References                                  HLASM R4.0  2004/03/15 12.36
0$$$@R10       1 00000000 FFFFFFF4     J     842  1063
 $$$@R11       1 00000000 FFFFFFF3     J     855  1076   1088
 $$$@R12       1 00000000 FFFFFFF2     J     868  1101
 $$$@R13       1 00000000 FFFFFFF1     J     881  1114   1118   1121   1123   1124
 $$$@R14       1 00000000 FFFFFFF0     J     894  1136
 $$$@R2        1 00000000 FFFFFFFC     J     738  1024
 $$$@R8        1 00000000 FFFFFFF6     J     816  1037
 $$$@R9        1 00000000 FFFFFFF5     J     829  1050
 $$$C1MILMUD
               1 000000DE 00000001     J   11086 11088
 $$$C2MILMUD
               1 00000537 00000001     J   12523 12525  12571
 $$$C3MILMUD
               1 000005AA 00000001     J   12638 12640  13093
 $$$C4MILMUD
               1 000018A6 00000001     J   18418 18420  18959  19408
 $$$C5MILMUD
               1 00001FF0 00000001     J   20743 20745  22214
 $$$C6MILMUD
               1 00002562 00000001     J   22721 22723  22941  22961
 $$$C7MILMUD
               1 0000261A 00000001     J   23019 23021
 $$$C8MILMUD
               1 000027EA 00000001     J   23216 23218
 $$$C9MILMUD
               1 000039E8 00000001     J   23417 23419
 $$$D3MILMUD
               1 0000189F 00000001     J   12639 13082
 $$$D4MILMUD
               1 00001FEA 00000001     J   18419 18948
 $$$D5MILMUD
               1 0000255C 00000001     J   20744 22203
 $$$D6MILMUD
               1 0000260E 00000001     J   22722 22930  22950
 $$$RDSTKWA
               1 00000000 FFFFFFC4     J   19390 19407  19407
 $$$RFEB       1 00000000 FFFFFFCC     J    9502  9625   9625
 $$$RFMTWA
               1 00000000 FFFFFFC5     J   12557 12570  12570
 $$$RLOC       1 00000000 FFFFFFC6     J   10779 10796  10796
 $$$RPATHD
               1 00000000 FFFFFFE8     J    3192  3244   3244
 $$$RPIB       1 00000000 FFFFFFCB     J    9631  9830   9830
 $$$RSCB       1 00000000 FFFFFFCA     J    9836 10595  10595
 $$$RSEGCB
               1 00000000 FFFFFFC9     J   10601 10701  10701
 $$$RSTK       1 00000000 FFFFFFC8     J   10710 10730  10730
 $$$RSUB       1 00000000 FFFFFFCD     J    9383  9496   9496
 $$$RSYMBOL
               1 00000000 FFFFFFC7     J   10736 10773  10773
 $$$RTQE       1 00000000 FFFFFFCE     J    9354  9372   9372
 $$$RUSERCVT
               1 00000000 FFFFFFE9     J    3103  3186   3186
 $$$SEGCB2
               4 000005D4 FFFFFFCF     F    9229  9315   9315
1MUD      (MUD2047) (12:36) (15MAR04) Ordinary Symbol and Literal Cross Reference                                           Page   69
 $$$SEGCB336
               4 000027EC 00000001     F   23226 23312  23312
 $$$100F       2 000008F0 00000001     H   13794 13661B 13683B 13716B
 $$$100T       2 000008AE 00000001     H   13664 13650B
 $$$106F       2 0000094E 00000001     H   13916 13891B
 $$$107F       2 00000CAC 00000001     H   15204 13996B
 $$$108F       2 000009FC 00000001     H   14163 14013B
 $$$109F       2 000009CE 00000001     H   14089 14065B
 $$$110F       2 00000AB2 00000001     H   14433 14175B
 $$$111F       2 00000A2E 00000001     H   14251 14227B
 $$$112F       2 00000AA4 00000001     H   14401 14354B
 $$$113F       2 00000BFA 00000001     H   14914 14445B
 $$$114F       2 00000AE4 00000001     H   14521 14497B
 $$$115B       4 00000AFA 00000001     I   14548 14576
 $$$115F       2 00000B0E 00000001     H   14573 14548B 14575
 $$$116E       2 00000B12 00000001     H   14583 14577
 $$$116F       2 00000BB0 00000001     H   14813 14579B
 $$$117F       2 00000B6C 00000001     H   14710 14661B
 $$$118F       2 00000BA6 00000001     H   14787 14722B
 $$$119F       2 00000CAC 00000001     H   15200 14926B
 $$$120F       2 00000C2C 00000001     H   15002 14978B
 $$$121F       2 00000CAC 00000001     H   15191 15056B
 $$$122F       2 00000C7C 00000001     H   15113 15088B
 $$$124F       2 00000C94 00000001     H   15150 15125B
 $$$126F       2 00000CAC 00000001     H   15187 15162B
 $$$128        1 00000020 00000001 A   U   15271 15269
 $$$129F       2 00000D8C 00000001     H   15438 15320B
 $$$130        1 00000020 00000001 A   U   15418 15416
 $$$131F       2 00000DF0 00000001     H   15558 15534B
 $$$132F       2 00000EF2 00000001     H   15976 15686B
 $$$132S       2 00000E48 00000001     H   15657 15975B
 $$$135F       2 00000EE0 00000001     H   15943 15776B 15812B 15871B 15884B 15905B
 $$$137F       2 00000EB6 00000001     H   15855 15832B 15845B
 $$$143F       2 00000F40 00000001     H   16077 16031B
 $$$144F       2 00001030 00000001     H   16454 16118B
 $$$144S       2 00000F54 00000001     H   16110 16136B 16453B
 $$$147F       2 00000FB4 00000001     H   16255 16230B
 $$$148F       2 00001014 00000001     H   16402 16267B
 $$$149F       2 00000FE4 00000001     H   16324 16299B
 $$$151F       2 00000FFC 00000001     H   16361 16336B
 $$$153F       2 00001014 00000001     H   16398 16373B
 $$$155F       2 000010CC 00000001     H   16722 16496B
 $$$155S       2 00001034 00000001     H   16469 16721B
 $$$158F       2 0000105A 00000001     H   16536 16523B
 $$$159B       4 00001064 00000001     I   16548 16561
 $$$159F       2 0000106A 00000001     H   16558 16548B 16560
 $$$160E       2 0000106E 00000001     H   16568 16562
 $$$160F       2 000010C8 00000001     H   16712 16564B
 $$$161F       2 000011F4 00000001     H   17160 16765B
 $$$161S       2 000010E8 00000001     H   16757 17159B
 $$$163B       4 00001116 00000001     I   16830 16858
 $$$163F       2 0000112A 00000001     H   16855 16830B 16857
 $$$164E       2 0000112E 00000001     H   16865 16859
 $$$164F       2 000011CC 00000001     H   17095 16861B
 $$$165F       2 00001188 00000001     H   16992 16943B
 $$$166F       2 000011C2 00000001     H   17069 17004B
 $$$167F       2 000011E6 00000001     H   17133 17108B
 $$$168S       2 0000121C 00000001     H   17217 17320B
 $$$172F       2 00001372 00000001     H   17709 17338B
1MUD      (MUD2047) (12:36) (15MAR04) Ordinary Symbol and Literal Cross Reference                                           Page   70
 $$$173F       2 00001372 00000001     H   17705 17394B
 $$$173S       2 0000128A 00000001     H   17367 17704B
 $$$176        1 0000000C 00000001 A   U   17485 17483
 $$$177F       2 00001340 00000001     H   17613 17563B
 $$$179F       2 00001364 00000001     H   17673 17648B
 $$$180F       2 000013E8 00000001     H   17860 17722B
 $$$181F       2 000013E8 00000001     H   17856 17793B
 $$$181S       2 000013B6 00000001     H   17785 17855B
 $$$183F       2 000014C6 00000001     H   18128 18087B
 $$$183S       2 000014A4 00000001     H   18060 18127B
 $$$186F       2 00001562 00000001     H   18240 18200B
 $$$188        1 00000030 00000001 A   U   18277 18270  18274  18276
 $$$190B       1 000018B0 00000001     X   18443 18450U
 $$$191B       4 000018C8 00000001     I   18473 18522
 $$$191F       2 000018EE 00000001     H   18519 18473B 18521
 $$$192E       2 000018F2 00000001     H   18529 18523
 $$$192F       2 00001912 00000001     H   18569 18525B
 $$$193        1 0000002C 00000001 A   U   18586 18580  18583  18585
 $$$195B       1 00001930 00000001     X   18614 18621U
 $$$196B       4 00001970 00000001     I   18666 18692
 $$$196F       2 00001984 00000001     H   18689 18666B 18691
 $$$197E       2 00001988 00000001     H   18699 18693
 $$$197F       2 000019A0 00000001     H   18725 18695B
 $$$198        1 0000002C 00000001 A   U   18770 18764  18767  18769
 $$$199B       1 000019D8 00000001     X   18778 18785U
 $$$201B       1 000019EA 00000001     X   18843 18850U
 $$$202F       2 00001A54 00000001     H   18970 18915B
 $$$203F       2 00001A4E 00000001     H   18964 18940B
 $$$204        6 00001FEA 00000001     I   18954 18946X
 $$$205        6 00001FEA 00000001     I   18953 18954  18954
 $$$206F       2 00001B1A 00000001     H   19318 18988B
 $$$207B       4 00001A76 00000001     I   19027 19055
 $$$207F       2 00001A8A 00000001     H   19052 19027B 19054
 $$$208E       2 00001A8E 00000001     H   19062 19056
 $$$208F       2 00001AAC 00000001     H   19112 19058B
 $$$209F       2 00001AAC 00000001     H   19108 19097B
 $$$210B       4 00001AAE 00000001     I   19123 19241
 $$$210F       2 00001AF6 00000001     H   19238 19123B 19240
 $$$211E       2 00001AFA 00000001     H   19248 19242
 $$$211F       2 00001B1A 00000001     H   19314 19244B
 $$$212F       2 00001B12 00000001     H   19289 19276B
 $$$213        1 0000002C 00000001 A   U   19335 19329  19332  19334
 $$$214B       1 00001B2E 00000001     X   19343 19350U
 $$$215F       2 00001E14 00000001     H   20383 19640B 19661B
 $$$216B       1 00001B50 00000001     X   19435 19442U
 $$$217F       2 00001BD4 00000001     H   19593 19544B
 $$$217S       2 00001BB2 00000001     H   19516 19592B
 $$$222F       2 00001C08 00000001     H   19644 19616B
 $$$224F       2 00001C2A 00000001     H   19716 19701B
 $$$224S       2 00001C14 00000001     H   19671 19715B
 $$$227F       2 00001CCE 00000001     H   19967 19808B
 $$$228F       2 00001CB4 00000001     H   19917 19859B
 $$$229F       2 00001D16 00000001     H   20046 20036B
 $$$230B       4 00001D3E 00000001     I   20083 20128
 $$$230F       2 00001D5E 00000001     H   20125 20083B 20127
 $$$231S       2 00001D42 00000001     H   20092 20116B
 $$$234E       2 00001D62 00000001     H   20135 20129
 $$$234F       2 00001DA0 00000001     H   20213 20131B
 $$$235S       2 00001D66 00000001     H   20142 20166B
1MUD      (MUD2047) (12:36) (15MAR04) Ordinary Symbol and Literal Cross Reference                                           Page   71
 $$$238S       2 00001D84 00000001     H   20180 20204B
 $$$241F       2 00001DC6 00000001     H   20272 20225B
 $$$242        1 0000007C 00000001 A   U   20392 20385  20389  20391
 $$$243B       1 00001E28 00000001     X   20400 20407U
 $$$245B       1 00001E7A 00000001     X   20470 20477U
 $$$246F       2 00001F0E 00000001     H   20651 20515B
 $$$246S       2 00001EA0 00000001     H   20509 20650B
 $$$248F       2 00001F02 00000001     H   20644 20534B
 $$$249        1 0000002C 00000001 A   U   20691 20685  20688  20690
 $$$251B       1 00001FFA 00000001     X   20775 20782U
 $$$252F       2 000021EC 00000001     H   21493 20833B
 $$$252S       2 00002040 00000001     H   20827 21492B
 $$$254B       4 0000206A 00000001     I   20894 21208
 $$$254F       2 0000212E 00000001     H   21204 20894B 21207
 $$$255F       2 00002090 00000001     H   20950 20940B
 $$$256F       2 000020BE 00000001     H   21039 21012B
 $$$256S       2 00002090 00000001     H   20955 21036B
 $$$260F       2 000020D0 00000001     H   21066 21056B
 $$$261B       4 000020EE 00000001     I   21110 21147
 $$$261F       2 00002106 00000001     H   21144 21110B 21146
 $$$262E       2 0000210A 00000001     H   21154 21148
 $$$262F       2 0000211E 00000001     H   21185 21150B
 $$$263E       2 00002132 00000001     H   21215 21209
 $$$263F       2 000021E8 00000001     H   21488 21211B
 $$$264F       2 00002144 00000001     H   21241 21231B
 $$$265F       2 0000217E 00000001     H   21334 21308B
 $$$265S       2 00002148 00000001     H   21247 21331B
 $$$269B       4 000021A8 00000001     I   21394 21431
 $$$269F       2 000021C0 00000001     H   21428 21394B 21430
 $$$27F        2 000000B6 00000001     H   11063 10939B
 $$$270E       2 000021C4 00000001     H   21438 21432
 $$$270F       2 000021D8 00000001     H   21469 21434B
 $$$271        1 00000004 00000001 A   U   21560 21557  21559
 $$$272        1 0000002C 00000001 A   U   21583 21577  21580  21582
 $$$273B       1 0000223E 00000001     X   21591 21598U
 $$$275B       1 00002250 00000001     X   21658 21665U
 $$$276        1 0000002C 00000001 A   U   21709 21703  21706  21708
 $$$278B       1 0000229A 00000001     X   21733 21740U
 $$$279B       4 000022CE 00000001     I   21804 21926
 $$$279F       2 0000232A 00000001     H   21922 21804B 21925
 $$$28B        1 00000020 00000001     X   10825 10832U
 $$$280F       2 0000231A 00000001     H   21903 21861B
 $$$281E       2 0000232E 00000001     H   21933 21927
 $$$281F       2 00002390 00000001     H   22063 21929B 21945B
 $$$283F       2 00002380 00000001     H   22044 22002B
 $$$284        1 00000044 00000001 A   U   22086 22079  22083  22085
 $$$285F       2 00002426 00000001     H   22334 22168B 22182B
 $$$286B       1 000023AE 00000001     X   22130 22137U
 $$$289        6 0000255C 00000001     I   22209 22201X
 $$$29F        2 00000046 00000001     H   10881 10866B
 $$$290        6 0000255C 00000001     I   22208 22209  22209
 $$$291F       2 0000240A 00000001     H   22275 22245B 22264B
 $$$291S       2 000023F0 00000001     H   22236 22274B
 $$$294B       4 0000240E 00000001     I   22287 22300
 $$$294F       2 00002416 00000001     H   22297 22287B 22299
 $$$295E       2 0000241A 00000001     H   22307 22301
 $$$295F       2 0000241E 00000001     H   22314 22303B
 $$$296        1 00000008 00000001 A   U   22319 22317
 $$$297        1 0000002C 00000001 A   U   22342 22336  22339  22341
1MUD      (MUD2047) (12:36) (15MAR04) Ordinary Symbol and Literal Cross Reference                                           Page   72
 $$$298F       2 000024F8 00000001     H   22678 22432B
 $$$299B       1 00002444 00000001     X   22369 22376U
 $$$30F        2 00000076 00000001     H   10923 10896B
 $$$301F       2 000024AA 00000001     H   22539 22477B 22491B
 $$$301S       2 00002482 00000001     H   22468 22538B
 $$$304B       4 00002496 00000001     I   22506 22519
 $$$304F       2 0000249C 00000001     H   22516 22506B 22518
 $$$305E       2 000024A0 00000001     H   22526 22520
 $$$305F       2 000024A2 00000001     H   22533 22522B
 $$$306F       2 000024F8 00000001     H   22659 22549B
 $$$307F       2 000024D8 00000001     H   22612 22577B
 $$$307T       2 000024BC 00000001     H   22580 22567B
 $$$309F       2 000024D8 00000001     H   22608 22598B
 $$$310F       2 000024F8 00000001     H   22655 22622B
 $$$311F       2 000024F8 00000001     H   22651 22641B
 $$$312        1 0000002C 00000001 A   U   22686 22680  22683  22685
 $$$314B       1 0000256C 00000001     X   22750 22757U
 $$$315F       2 000025F4 00000001     H   22983 22810B
 $$$315T       2 0000258E 00000001     H   22813 22800B
 $$$317F       2 000025EE 00000001     H   22970 22830B 22857B
 $$$32S        2 00000080 00000001     H   10949 11044B
 $$$322F       2 000025D6 00000001     H   22893 22883B
 $$$323F       2 000025EE 00000001     H   22966 22903B
 $$$324F       2 000025EA 00000001     H   22946 22922B
 $$$325        6 0000260E 00000001     I   22936 22928X
 $$$326        6 0000260E 00000001     I   22935 22936  22936
 $$$327        6 00002614 00000001     I   22956 22948X
 $$$328        6 00002614 00000001     I   22955 22956  22956
 $$$329        1 0000002C 00000001 A   U   23005 22999  23002  23004
 $$$33S        2 00000084 00000001     H   10973 11022B
 $$$331B       1 00002724 00000001     X   23062 23069U
 $$$332        1 0000002C 00000001 A   U   23103 23097  23100  23102
 $$$334B       1 00002758 00000001     X   23128 23135U
 $$$335        1 0000002C 00000001 A   U   23169 23163  23166  23168
 $$$34F        2 000000A4 00000001     H   11003 10987B
 $$$344B       1 00002910 00000001     X   23365 23372U
 $$$39         1 0000002C 00000001 A   U   11071 11065  11068  11070
 $$$40F        2 000000EA 00000001     H   11137 11123B
 $$$41B        1 000000EC 00000001     X   11152 11159U
 $$$42F        2 00000136 00000001     H   11240 11210B 11230B
 $$$48F        2 00000192 00000001     H   11372 11311B 11343B
 $$$50F        2 000001A6 00000001     H   11398 11385B
 $$$51F        2 000001CA 00000001     H   11469 11411B 11443B
 $$$53F        2 000001F2 00000001     H   11541 11482B 11514B
 $$$55F        2 00000234 00000001     H   11662 11554B 11586B 11646B
 $$$57F        2 00000220 00000001     H   11632 11619B
 $$$59B        4 0000024A 00000001     I   11682 11706
 $$$59F        2 00000266 00000001     H   11702 11682B 11705
 $$$60E        2 0000026A 00000001     H   11713 11707
 $$$60F        2 00000282 00000001     H   11730 11709B
 $$$61B        1 0000029A 00000001     X   11766 11773U
 $$$62B        1 000002CC 00000001     X   11826 11833U
 $$$63F        2 000002F0 00000001     H   11876 11866B
 $$$64B        1 0000034C 00000001     X   11974 11981U
 $$$65F        2 000003CA 00000001     H   12167 12003B 12034B 12067B
 $$$69F        2 0000039E 00000001     H   12117 12101B
 $$$70F        2 0000040E 00000001     H   12282 12211B
 $$$70S        2 000003DA 00000001     H   12184 12281B
 $$$73F        2 000003FA 00000001     H   12250 12237B
1MUD      (MUD2047) (12:36) (15MAR04) Ordinary Symbol and Literal Cross Reference                                           Page   73
 $$$74F        2 0000040A 00000001     H   12272 12262B
 $$$75F        2 00000420 00000001     H   12311 12301B
 $$$76F        2 00000440 00000001     H   12352 12339B
 $$$77F        2 00000460 00000001     H   12410 12389B
 $$$78F        2 00000476 00000001     H   12443 12422B
 $$$79F        2 0000048C 00000001     H   12472 12454B
 $$$80F        2 00001568 00000001     H   18268 12748B
 $$$81B        1 00000592 00000001     X   12598 12605U
 $$$84         1 00000020 00000001 A   U   12846 12844
 $$$85F        2 00000658 00000001     H   12896 12861B
 $$$86         1 00000004 00000001 A   U   13024 13021  13023
 $$$87F        2 00000718 00000001     H   13060 13051B
 $$$88F        2 00000724 00000001     H   13098 13074B
 $$$89         6 000018A0 00000001     I   13088 13080X
 $$$90         6 000018A0 00000001     I   13087 13088  13088
 $$$91F        2 000007BE 00000001     H   13282 13206B
 $$$92F        2 0000092C 00000001     H   13869 13381B
 $$$92S        2 000007E6 00000001     H   13374 13868B
 $$$94F        2 0000081C 00000001     H   13471 13458B
 $$$96F        2 0000082C 00000001     H   13496 13483B
 $$$98F        2 0000089E 00000001     H   13634 13576B
 @@            1 0000004C FFFFFFF1 A   U    1121 12516  12517  12624  19461  21759
 @NSP          4 00000048 FFFFFFF1     A    1120 10817M 10820M 10838M 10839M 10840M 11068  11070  11072M 11177M 11784M
                                                 11844M 11991M 12589M 12592M 12611M 12612M 12613M 12814M 12815M 12847M
                                                 12977M 12980M 12981M 13023  13025M 15239M 15240M 15272M 15387M 15388M
                                                 15419M 17453M 17454M 17486M 18274  18276  18278M 18435M 18438M 18456M
                                                 18457M 18458M 18583  18585  18587M 18606M 18609M 18627M 18628M 18629M
                                                 18767  18769  18771M 18835M 18838M 18856M 18857M 18858M 19332  19334
                                                 19336M 19426M 19429M 19448M 19449M 19450M 20389  20391  20393M 20462M
                                                 20465M 20483M 20484M 20485M 20688  20690  20692M 20767M 20770M 20788M
                                                 20789M 20790M 20816M 20819M 20820M 21559  21561M 21580  21582  21584M
                                                 21650M 21653M 21671M 21672M 21673M 21706  21708  21710M 21724M 21727M
                                                 21746M 21747M 21748M 22083  22085  22087M 22122M 22125M 22143M 22144M
                                                 22145M 22192M 22193M 22320M 22339  22341  22343M 22361M 22364M 22382M
                                                 22383M 22384M 22683  22685  22687M 22742M 22745M 22763M 22764M 22765M
                                                 23002  23004  23006M 23054M 23057M 23075M 23076M 23077M 23100  23102
                                                 23104M 23120M 23123M 23141M 23142M 23143M 23166  23168  23170M
 @R0           0 00000000 FFFFFFFE     @     713   989U
 @R1           0 00000000 FFFFFFFD     @     726   985U  9324   9328   9329   9331   9332M 11369U 11466U 13087  13773U
                                                 14692U 16669U 16974U 17562  18811U 19376U 19472  20094  20144  20182
                                                 20433U 21624U 22208  22863M 22870M 22870  22871M 22889M 22935M 22955M
                                                 23378M
 @R10          0 00000000 FFFFFFF4     @     843   949U 11538U 11659U 12278U 18251U
 @R11          0 00000000 FFFFFFF3     @     856   945U 22097U
 @R12          0 00000000 FFFFFFF2     @     869   941U
 @R13          0 00000000 FFFFFFF1     @     882   937U 10854  18261U 20376U 22070U
 @R14          0 00000000 FFFFFFF0     @     895   933U 11606U 12224U 16510U
 @R15          0 00000000 FFFFFFEF     @     908   929U  9334M 11144U 13601  15844  15851  15868  15881  15902  15921
                                                 15929  18817U 18926U 19382U 20095M 20145M 20183M 20439U 21630U 21689
                                                 22327U 22585  23386U
 @R2           0 00000000 FFFFFFFC     @     739   981U 12760U 13680U 13791U 17262  18199  20186  21296  22836
 @R3           0 00000000 FFFFFFFB     @     752   977U 17219  17220  17317  19990  20095  20096  20145  20146  20183
                                                 20184  21115  21115  21156  21156  21399  21399  21440  21440  22829
                                                 22837M 22854
 @R4           0 00000000 FFFFFFFA     @     765   973U 13367U 13865U 20098  20148  20624  20646  22455  22628
 @R5           0 00000000 FFFFFFF9     @     778   969U 11053U 12159U 13333U 13876U 19131  19174  19217  19742U 20028
                                                 20041  20645  22666U 22935
 @R6           0 00000000 FFFFFFF8     @     791   965U 11747U 12164U 13289U 14160U 14430U 14911U 15197U 15972U 16461U
                                                 16718U 17167U 17701U 17791  17825  17837  18124U 19750U 19985  20860
1MUD      (MUD2047) (12:36) (15MAR04) Ordinary Symbol and Literal Cross Reference                                           Page   74
                                                 20961  21001  21269  21297  22195M 22208M 22261  22671U 22990U
 @R7           0 00000000 FFFFFFF7     @     804   961U 18653  18653  18665  18902  18902  18914  18925  18953  18953
                                                 18965  19258  19266  19589U 19712U 21344
 @R8           0 00000000 FFFFFFF6     @     817   957U 11061U 11753U 11813U 11958U 12482U 18266U 18576U 18760U 19325U
                                                 20381U 20681U 21573U 21699U 22075U 22332U 22676U 22995U 23093U 23159U
 @R9           0 00000000 FFFFFFF5     @     830   953U 18256U
 @SPR          0 00000000 FFFFFFF1     @    1115 10817M 10820M 10838M 10839M 10840M 11068  11070  11072M 11177M 11784M
                                                 11844M 11991M 12589M 12592M 12611M 12612M 12613M 12814M 12815M 12816
                                                 12847M 12977M 12980M 12981M 13023  13025M 15239M 15240M 15241  15272M
                                                 15387M 15388M 15389  15419M 17453M 17454M 17455  17486M 18274  18276
                                                 18278M 18435M 18438M 18456M 18457M 18458M 18583  18585  18587M 18606M
                                                 18609M 18627M 18628M 18629M 18767  18769  18771M 18835M 18838M 18856M
                                                 18857M 18858M 19332  19334  19336M 19426M 19429M 19448M 19449M 19450M
                                                 20389  20391  20393M 20462M 20465M 20483M 20484M 20485M 20688  20690
                                                 20692M 20767M 20770M 20788M 20789M 20790M 20816M 20819M 20820M 21559
                                                 21561M 21580  21582  21584M 21650M 21653M 21671M 21672M 21673M 21706
                                                 21708  21710M 21724M 21727M 21746M 21747M 21748M 22083  22085  22087M
                                                 22122M 22125M 22143M 22144M 22145M 22192M 22193M 22194  22320M 22339
                                                 22341  22343M 22361M 22364M 22382M 22383M 22384M 22683  22685  22687M
                                                 22742M 22745M 22763M 22764M 22765M 23002  23004  23006M 23054M 23057M
                                                 23075M 23076M 23077M 23100  23102  23104M 23120M 23123M 23141M 23142M
                                                 23143M 23166  23168  23170M
 @WA           1 0000004C FFFFFFF1     U    1122 12816  15241  15389  17455  22194
 ABENDCD       2 000018A6 00000001     H   18431 20709
 ADDRSYM       2 000023A4 00000001     H   22118 22114
 AHLHEAD       1 00000000 00000000 A   T    2176  2176
 AHLVCCR8      1 00000000 00000000 A   T    2667  2667
 ALLOSYSP      2 0000271A 00000001     H   23050 18317
 ASCTBL        1 00000000 00000000 A   T    9148  9148
 ASMVT         1 00000000 00000000 A   T    2556  2556
 BADCORE       2 0000223E 00000001     H   21602 20806
 BADCRS        2 000021F0 00000001     H   21503 22719
 BALLOC        4 00002784 00000001     F   23175 23083
 BALRB         1 00002788 00000001     R   23177 23176
 BALTXTF       2 000027AC 00000001     R   23191 23188
 BALTXTP       4 0000279C 00000001     A   23187 23184
 BALTXTS       2 000027A8 00000001     R   23190 23189
 BDEALLOC      4 000027B8 00000001     F   23193 23149
 BDLRB         1 000027BC 00000001     R   23195 23194
 BDLTXTDD      2 000027D4 00000001     R   23206 23187  23205
 BDLTXTP       1 000027D0 00000001     X   23205 23202
 BIT0          1 00000080 FFFFFFE6 A   U    4298  4315   4338   4339   4592   4619   4667   4671   4672   4754   4774
                                                  4788   4819
 BIT1          1 00000040 FFFFFFE6 A   U    4299  4316   4340   4342   4622   4667   4669   4670   4672   4755   4776
                                                  4789   4821
 BIT2          1 00000020 FFFFFFE6 A   U    4300  4317   4625   4667   4669   4695   4758   4778   4791   4822
 BIT3          1 00000010 FFFFFFE6 A   U    4301  4318   4626   4673   4684   4697   4698   4760   4779   4793   4824
 BIT4          1 00000008 FFFFFFE6 A   U    4302  4319   4628   4685   4699   4704   4705   4761   4780   4795   4827
 BIT5          1 00000004 FFFFFFE6 A   U    4303  4320   4332   4334   4629   4699   4702   4705   4762   4781   4797
                                                  4828
 BIT6          1 00000002 FFFFFFE6 A   U    4304  4321   4324   4345   4346   4630   4688   4764   4767   4782   4798
                                                  4829
 BIT7          1 00000001 FFFFFFE6 A   U    4305  4321   4323   4324   4347   4352   4632   4689   4764   4768   4783
                                                  4799   4830
 BLTBL         1 00000000 00000000 A   T    9150  9150
 BR            8 00000008 00000001 A   #    1031 10821M 10832U 12594M 12605U 18439M 18450U 18610M 18621U 18839M 18850U
                                                 19431M 19442U 20466M 20477U 20771M 20782U 21654M 21665U 21729M 21740U
                                                 22126M 22137U 22365M 22376U 22746M 22757U 23058M 23069U 23124M 23135U
 BRR           9 00000009 00000001 A   #    1044 12646M 12656U
1MUD      (MUD2047) (12:36) (15MAR04) Ordinary Symbol and Literal Cross Reference                                           Page   75
 BRRR         10 0000000A 00000001 A   #    1057 12660M 12670U
 CBBRANCH      1 00000000 00000000 A   T    2712  2712
 CDE           1 00000000 FFFFFFE4 C   U    4877 13698U
 CDENTPT       4 00000010 FFFFFFE4     F    4892 13772
 CDENTRY       1 00000000 FFFFFFE4     J    4879  4877
 CDNAME        8 00000008 FFFFFFE4     C    4891 13713  13732  13737
 CONSDIE       1 00000000 0000000F     T   12543 12543
 CONSFMT       1 00000000 00000012     T   18283 18283
 COREFMT       1 00000000 0000001F     T   18342 18342
 CRBRANCH      1 00000000 00000000 A   T    2453  2453
 CSRTABLE      1 00000000 00000000 A   T    2473  2473
 CSVARMGR      1 00000000 00000000 A   T    2521  2521
 CSVEXIT       1 00000000 00000000 A   T    2394  2394
 CSVLLCB       1 00000000 00000000 A   T    1994  1994
 CSVLLTRM      1 00000000 00000000 A   T    1995  1995
 CSVMEM        1 00000000 00000000 A   T    2222  2222
 CSVVFGET      1 00000000 00000000 A   T    2786  2786
 CSVVFIND      1 00000000 00000000 A   T    2784  2784
 CV         1912 00000000 FFFFFFCF     X    9349  8898U 17943  23394
 CV            1 00000000 00000002     T   12496 12496  23394
 CVBLANKS    256 00000141 FFFFFFCF     C    9050 13039  13147  15722  16174  16601  16801  17430  17807  19781  20908
                                                 21803  21944  22195  22404  22405
 CVBUFLEN      1 00002800 FFFFFFCF A   N    8932 18379
 CVCUR        40 00000750 FFFFFFCF     X    9347 11889M 11889  13995M 13995
 CVCURCMD      4 00000760 FFFFFFCF     A    9344 11383
 CVCURFEB      4 00000750 FFFFFFCF     A    9340  9347   9347  11552  11598M 11598  14011
 CVCURFRSCB
               4 00000764 FFFFFFCF     A    9345 11309  11362M 11362
 CVCURPIB      4 00000754 FFFFFFCF     A    9341 14173
 CVCURSCB      4 00000758 FFFFFFCF     A    9342 11409  11455M 11455  14443
 CVCURSUB      4 0000075C FFFFFFCF     A    9343 11480  11526M 11526  14924
 CVDEFSUB      4 00000298 FFFFFFCF     A    9065 16030M 16030  16056
 CVDEFSYS      8 00000290 FFFFFFCF     C    9064 16004  16009
 CVDSECT       1 00000000 FFFFFFCF     J    8885  9373   9497   9626   9831  10596  10702  10731  10774  10797
 CVECB         4 00000038 FFFFFFCF     A    8915  8912  11946M
 CVECBLIS      4 00000030 FFFFFFCF     A    8912 17177  17212
 CVFABEND      8 0000013C FFFFFFCF         8999 11184M 11852M 12300
 CVFDUMP      16 0000013D FFFFFFCF         9039 11681
 CVFEBQH       4 0000029C FFFFFFCF     A    9067 12179  16464
 CVFLAG        1 0000013C FFFFFFCF     R    8975  8979   8984   8989   8994   8999   9004   9009   9014
 CVFLAG2       1 0000013D FFFFFFCF     R    9020  9024   9029   9034   9039
 CVFNORET     16 0000013C FFFFFFCF         8994 11290
 CVFNSTAE     32 0000013C FFFFFFCF         8989 10895
 CVFSPIN       2 0000013C FFFFFFCF         9009 10877M
 CVFSTOP       4 0000013C FFFFFFCF         9004 12289M
 CVFTEST     128 0000013C FFFFFFCF         8979 12002
 CVFTIMER     64 0000013D FFFFFFCF         9029 11945M
 CVKSCB#       1 00000032 FFFFFFCF A   N    8938  8939   8940
 CVMACH        1 0000013B FFFFFFCF     R    8950  8959   8969
 CVMCKSES      4 00000530 FFFFFFCF     F    9181 15374
 CVMCLCK       4 00000518 FFFFFFCF     F    9162 15228
 CVMCRSES      2 0000052C FFFFFFCF     H    9179 15277  15319
 CVMCRVIR      2 0000053E FFFFFFCF     H    9190 15458
 CVMFCLCK      4 00000544 FFFFFFCF     F    9194 13038M
 CVMFINFO     64 00000548 FFFFFFCF     X    9195 13039M 13087M 18328
 CVMFLAG       1 0000051C FFFFFFCF     R    9166  9170
 CVMFSTOP    128 0000051C FFFFFFCF         9170 15533
 CVMJOBNM      8 000004C0 FFFFFFCF     X    9159 12100  12790  12795
 CVMMXSES      2 0000052E FFFFFFCF     H    9180 15319  15343
1MUD      (MUD2047) (12:36) (15MAR04) Ordinary Symbol and Literal Cross Reference                                           Page   76
 CVMNFAIL      2 00000540 FFFFFFCF     H    9192 11881  11882M 13921
 CVMNIO        4 00000520 FFFFFFCF     F    9175 15586
 CVMRTTCB      4 00000330 FFFFFFCF     A    9094 12388M 12388  12398  12406M 12406
 CVMSTART      8 000004B8 FFFFFFCF     D    9157  9211   9211
 CVMTLSES      4 00000528 FFFFFFCF     F    9178 15493
 CVMVERS      80 000004C8 FFFFFFCF     X    9160 12860M 12860  12877  12882
 CVNIZSAV     40 000006FC FFFFFFCF     X    9320 12929  12955
 CVOSRA        4 00000040 FFFFFFCF     A    8918 12474
 CVPDBP        4 00000060 FFFFFFCF     A    8933 17980
 CVR          12 0000000C 00000001 A   #    1095  8898U 11161M 11775M 11835M
 CVRCLOC       4 00000484 FFFFFFCF     A    9136 13890M 13890
 CVRETCOD      4 00000044 FFFFFFCF     F    8919 11865  11872M 12473
 CVSCBQH       4 000002B4 FFFFFFCF     A    9075 16742  18055
 CVSCNCB       4 000005B4 FFFFFFCF     F    9215  9226
 CVSTART       4 00000000 FFFFFFCF     C    8908  9349   9349
 CVSTKP        4 00000058 FFFFFFCF     A    8927 11782  11842  11989  13975  18154
 CVSUBQH       4 000002A8 FFFFFFCF     A    9071 16095
 CVT           1 00000000 FFFFFFED     J    1964 12018U 13319U
 CVTBRET       2 00000052 FFFFFFED     H    2019  2532   2611
 CVTPTR        1 00000010 FFFFFFEE A   U    1960 12008  13309
 CVTQEQH       4 0000033C FFFFFFCF     A    9099 17337M 17337  17362
 CVTRCRTN      4 00000724 FFFFFFCF     I    9324  9333B
 CVTTCBP       4 00000000 FFFFFFED     V    1971 13325
 CVTUSER       4 000000CC FFFFFFED     A    2144 12024
 CVTVSTGX      1 00000000 FFFFFFEC     J    2984  2848
 CVTXTNT1      1 00000000 FFFFFFEB     J    3023  2191
 CVTXTNT2      1 00000000 FFFFFFEA     J    3031  2261   3187   3245
 CVT4MS1       1 00000010 FFFFFFED A   U    2044  2052
 CVT6DAT       1 00000002 FFFFFFED A   U    2048  2052
 CVWKBUFP      4 00000064 FFFFFFCF     A    8934 18021
 CVWSG        60 000005D4 FFFFFFCF     X    9315 11915  11933  12321  12372  12982  19016
 CVWSGBUF    235 00000610 FFFFFFCF     C    9317  9305   9311
 CVWSGCOD      1 000005D4 FFFFFFCF     R    9232  9241   9251   9261   9271   9281   9291   9301
 CVWSGUSR      4 0000060C FFFFFFCF     A    9314  9316  12983M 19064  19087M
 CVWTONO       4 00000350 FFFFFFCF     F    9106 17721M 17721  17747
 CVWTOQH       4 00000354 FFFFFFCF     A    9107 17779
 CVWTOTCB      4 00000360 FFFFFFCF     A    9111 12421M 12421  12431  12439M 12439
 DALDDNAM      1 00000001 FFFFFFDB A   U    6482 23206
 DALSFMNO      1 0000001A FFFFFFDB A   U    6507 23191
 DALSYSOU      1 00000018 FFFFFFDB A   U    6505 23190
 DCB           1 00000000 FFFFFFEE     X    1768 12723U 18199  22829  22837M 22854
 DCBBIT0       1 00000080 FFFFFFEE A   U    1217  1305   1313   1327   1349   1391   1393   1394   1396   1416   1419
                                                  1441   1445   1460   1497   1553   1579   1617   1621   1640   1746
 DCBBIT1       1 00000040 FFFFFFEE A   U    1218  1306   1314   1329   1358   1359   1368   1374   1391   1393   1395
                                                  1396   1421   1441   1443   1445   1463   1464   1465   1500   1501
                                                  1553   1581   1623   1625   1643   1688   1747
 DCBBIT2       1 00000020 FFFFFFEE A   U    1219  1307   1315   1330   1331   1332   1358   1359   1363   1369   1374
                                                  1391   1392   1397   1423   1446   1447   1468   1469   1470   1504
                                                  1505   1554   1586   1626   1648   1691   1694   1748
 DCBBIT3       1 00000010 FFFFFFEE A   U    1220  1308   1330   1332   1333   1358   1371   1398   1426   1446   1449
                                                  1472   1473   1474   1508   1509   1554   1588   1590   1592   1628
                                                  1649   1691   1695
 DCBBIT4       1 00000008 FFFFFFEE A   U    1221  1316   1372   1373   1374   1399   1427   1451   1456   1457   1477
                                                  1478   1512   1513   1515   1516   1555   1595   1630   1650   1691
                                                  1696
 DCBBIT5       1 00000004 FFFFFFEE A   U    1222  1317   1379   1402   1403   1429   1451   1453   1454   1457   1481
                                                  1483   1484   1485   1519   1520   1521   1522   1555   1597   1600
                                                  1633   1652   1686
 DCBBIT6       1 00000002 FFFFFFEE A   U    1223  1309   1381   1382   1385   1402   1404   1430   1488   1489   1490
1MUD      (MUD2047) (12:36) (15MAR04) Ordinary Symbol and Literal Cross Reference                                           Page   77
                                                  1491   1525   1526   1527   1528   1556   1603   1635   1654   1697
 DCBBIT7       1 00000001 FFFFFFEE A   U    1224  1310   1381   1383   1385   1406   1435   1493   1494   1531   1532
                                                  1534   1535   1606   1636   1637   1655   1699   1749
 DCBDCBE       4 00000000 FFFFFFEE     A    1232  1236
 DCBFDAD       8 00000005 FFFFFFEE     C    1248  1250
 DCBLRECL      2 00000052 FFFFFFEE     H    1721 12728M 22837M
 DCBOFIOF      1 00000001 FFFFFFEE A   U    1435  1437
 DCBOFLGS      1 00000030 FFFFFFEE     B    1415 12745  18199  22829  22854
 DCBOFOPN      1 00000010 FFFFFFEE A   U    1426 12743  18197  22827  22852
 DCBOFUEX      1 00000002 FFFFFFEE A   U    1430  1434
 DFAIDTAB      1 00000000 00000000 A   T    2861  2861
 DIEFE         4 00000560 00000001     A   12542 12254  12552
 DIEFEMX       1 00000009 00000001 A   N   12552 12553  12553
 DINSERR       2 000019D8 00000001     H   18789 18643
 DINSRES       4 00001988 00000001     I   18705 20731
 DISPATCH      1 00000000 0000000A     T   12512 12512
 DISPINST      2 00001926 00000001     H   18602 18327
 DISPPSW       2 000019E0 00000001     H   18831 18330  20710
 DISPREGS      2 00001E70 00000001     H   20458 13168B 13278B 13835B 20215B
 DISPSTK       2 00001B46 00000001     H   19421 18339
 DOM           1 00000000 00000007     T   12509 12509
 DPSWERR       2 00001B2E 00000001     H   19354 18888
 DPSWEXIT      2 00001A54 00000001     H   18974 20732
 DSTKBAD       4 00001DCA 00000001     I   20275 19563B 19577B 20740
 DSTKERR       2 00001E28 00000001     H   20411 19501
 DSTKFRST      4 00000000 FFFFFFC4     A   19396 19476M 19511  19615  19646
 DSTKLAST      4 00000004 FFFFFFC4     A   19397 19594M 19615  19658  19700  19717M
 DSTKLOW       4 00000008 FFFFFFC4     A   19398 19473M 19574
 DSTKLP        4 00001C08 00000001     I   19646 19963B 20273B
 DSTKMASK      4 00001E30 00000001     A   20442 20097  20147  20185
 DSTKPICA      4 0000000C FFFFFFC4     A   19399 19509M 19596
 DSTKREGS      4 00000010 FFFFFFC4     A   19400 20066
 DSTKSET       4 00001BD4 00000001     I   19594 20368B
 DSTKWA       80 00000000 FFFFFFC4     J   19407 19448M 19461U 19471M 19471  20389  20391  20392  20720
 EBCTBL        1 00000000 00000000 A   T    9149  9149
 EBCTBL7       1 00000000 00000000 A   T    9152  9152
 ELFDIE        1 00000000 00000011     T   12549 12549
 ELFERR        1 00000000 0000000E     T   12536 12536
 ELFFMT        1 00000000 00000014     T   18293 18293
 EPARTBL       1 00000000 00000000 A   T    9144  9144
 EPIE          1 00000000 FFFFFFD0     J    8788  8860   8861   8879   8880  18800U 19365U 20422U 21613U
 EPIEADD1      3 0000004D FFFFFFD0     C    8818 18804M 19369M 20426M 21617M
 EPIETEA       4 00000054 FFFFFFD0     A    8832  8833
 ERRFE         4 00000538 00000001     A   12529 11636  12539
 ERRFEMX       1 00000009 00000001 A   N   12539 12540  12540
 ESTAE         2 000000DE 00000001     H   11109 10916  11105U
 FEB         184 00000000 FFFFFFCC     J    9625 11568U 11583  11599  12179  12195U 12217  14027U 14064  16464  16480U
                                                 16502
 FEBGFLG       1 0000000C FFFFFFCC     R    9521  9525   9530
 FEBLINK       4 00000008 FFFFFFCC     A    9517 12179  12209  16464  16494
 FEBNAME       8 00000014 FFFFFFCC     C    9550 14116  14121  16629  16634
 FEBPFLG       1 00000070 FFFFFFCC     R    9558  9562   9567   9572
 FEBPFLG2      1 00000071 FFFFFFCC     R    9578  9582   9587   9592
 FEBTMAX       1 00000009 FFFFFFCC A   U    9544 12504  12540  12540  12553  12553  18299  18299  18347
 FEBTYPE       1 0000000D FFFFFFCC     X    9534 11605  12223  16509  16668
 FEBUC         2 00000010 FFFFFFCC     H    9547  9610   9610
 FINDLOC       2 0000243A 00000001     H   22357 21770B
 FMBRANCH      1 00000000 00000000 A   T    2637  2637
 FMTBASE       2 000005AA 00000001     H   12645 12628B 12646  12656U 12660  12670U
1MUD      (MUD2047) (12:36) (15MAR04) Ordinary Symbol and Literal Cross Reference                                           Page   78
 FMTCLCK       1 00000000 00000018     T   18322 18322
 FMTDUMP       2 00000588 00000001     H   12584 12500
 FMTFE         4 0000157C 00000001     A   18282 16540  18298
 FMTFEMX       1 00000009 00000001 A   N   18298 18299  18299
 FMTRCLCK      1 00000000 0000001E     T   18341 18341
 FMTSDWA       4 00000000 FFFFFFC5     A   12563 12690M 17891
 FMTTIME       1 00000000 00000021     T   18349 18349
 FMTWA         4 00000000 FFFFFFC5     J   12570 12611M 12624U 12637  18274  18276  18277
 FREESYSP      2 0000274E 00000001     H   23116 18316
 FSR           2 00000002 00000001 A   #    1018 10820  10840  11068M 12592  12613  18274M 18438  18458  18583M 18609
                                                 18629  18767M 18838  18858  19332M 19429  19450  20389M 20465  20485
                                                 20688M 20770  20790  21580M 21653  21673  21706M 21727  21748  22083M
                                                 22125  22145  22339M 22364  22384  22683M 22745  22765  23002M 23057
                                                 23077  23100M 23123  23143  23166M
 GLBRANCH      1 00000000 00000000 A   T    2543  2543
 GMBRANCH      1 00000000 00000000 A   T    2639  2639
 GVT           1 00000000 00000000 A   T    2405  2405
 HIBAL         1 00000000 FFFFFFFF     J     698   714    727    740    753    766    779    792    805    818    831
                                                   844    857    870    883    896    909
 HSPFMIL       1 00000080 FFFFFFE9 A   U    3115  3119   3120  12085
 HSPFORV       1 00000020 FFFFFFE9 A   U    3117  3119
 HSPFORVR      1 00000010 FFFFFFE9 A   U    3118  3120
 HSPFWYL       1 00000040 FFFFFFE9 A   U    3116  3119   3120
 IARMPVT       1 00000000 00000000 A   T    2280  2280
 IARMRRCE      1 00000000 00000000 A   T    2825  2825
 IARPIBR       1 00000000 00000000 A   T    2795  2795
 IARPSIV       1 00000000 00000000 A   T    2619  2619
 IARPSXM       1 00000000 00000000 A   T    2768  2768
 IARXKEY       1 00000000 00000000 A   T    2726  2726
 IARXVIO       1 00000000 00000000 A   T    2620  2620
 ICYMMVTC      1 00000000 00000000 A   T    3051  3051
 IDA121CV      1 00000000 00000000 A   T    2558  2558
 IEABEND       1 00000000 00000000 A   T    2142  2142
 IEADQIQE      1 00000000 00000000 A   T    2538  2538
 IEAECVT       1 00000000 00000000 A   T    2067  2067
 IEAGSMQ       1 00000000 00000000 A   T    2515  2515
 IEAIHASU      1 00000000 00000000 A   T    2755  2755
 IEALSMQ       1 00000000 00000000 A   T    2517  2517
 IEAMASCB      1 00000000 00000000 A   T    2485  2485   2489
 IEAPATCH      1 00000000 00000000 A   T    2150  2150
 IEAPDSRT      1 00000000 00000000 A   T    2413  2413
 IEAPTRV       1 00000000 00000000 A   T    2229  2229
 IEAQCDSR      1 00000000 00000000 A   T    2133  2133
 IEAQCS01      1 00000000 00000000 A   T    2525  2525
 IEAQLPAQ      1 00000000 00000000 A   T    2134  2134
 IEAQTD00      1 00000000 00000000 A   T    2030  2030
 IEAQTE00      1 00000000 00000000 A   T    2028  2028
 IEARPOST      1 00000000 00000000 A   T    2540  2540
 IEASMFEX      1 00000000 00000000 A   T    2417  2417
 IEASMFSP      1 00000000 00000000 A   T    2763  2763
 IEASPOST      1 00000000 00000000 A   T    2560  2560
 IEASVDCB      1 00000000 00000000 A   T    2021  2021
 IEATCBP       1 00000000 00000000 A   T    1971  1971
 IEATPC        1 00000000 00000000 A   T    2023  2023
 IEATRSCN      1 00000000 00000000 A   T    2381  2381
 IEAVAR02      1 00000000 00000000 A   T    2465  2465
 IEAVBLDP      1 00000000 00000000 A   T    2449  2449
 IEAVDELP      1 00000000 00000000 A   T    2452  2452
 IEAVEAC0      1 00000000 00000000 A   T    2542  2542
1MUD      (MUD2047) (12:36) (15MAR04) Ordinary Symbol and Literal Cross Reference                                           Page   79
 IEAVEADV      1 00000000 00000000 A   T    2700  2700
 IEAVEDR1      1 00000000 00000000 A   T    2585  2585
 IEAVELRM      1 00000000 00000000 A   T    2534  2534
 IEAVENLU      1 00000000 00000000 A   T    2881  2881
 IEAVENQ2      1 00000000 00000000 A   T    2531  2531
 IEAVEQV1      1 00000000 00000000 A   T    2688  2688
 IEAVEQV2      1 00000000 00000000 A   T    2691  2691
 IEAVEQV3      1 00000000 00000000 A   T    2694  2694
 IEAVERI1      1 00000000 00000000 A   T    2587  2587
 IEAVERP1      1 00000000 00000000 A   T    2589  2589
 IEAVERX1      1 00000000 00000000 A   T    2777  2777
 IEAVESC1      1 00000000 00000000 A   T    2716  2716
 IEAVESPR      1 00000000 00000000 A   T    2645  2645
 IEAVESTU      1 00000000 00000000 A   T    2879  2879
 IEAVESVT      1 00000000 00000000 A   T    2651  2651
 IEAVET6E      1 00000000 00000000 A   T    2751  2751
 IEAVEVT2      1 00000000 00000000 A   T    2705  2705
 IEAVEXPR      1 00000000 00000000 A   T    2513  2513
 IEAVEXP1      1 00000000 00000000 A   T    2682  2682
 IEAVFRCL      1 00000000 00000000 A   T    2451  2451
 IEAVGSDA      1 00000000 00000000 A   T    2696  2696
 IEAVGTCL      1 00000000 00000000 A   T    2450  2450
 IEAVGWSA      1 00000000 00000000 A   T    2545  2545
 IEAVLKRM      1 00000000 00000000 A   T    2252  2252
 IEAVMFRM      1 00000000 00000000 A   T    2630  2630
 IEAVMSGS      1 00000000 00000000 A   T    2199  2199
 IEAVNVT0      1 00000000 00000000 A   T    2864  2864
 IEAVRSUH      1 00000000 00000000 A   T    2743  2743
 IEAVRT03      1 00000000 00000000 A   T    2357  2357
 IEAVSPND      1 00000000 00000000 A   T    2753  2753
 IEAVSTAG      1 00000000 00000000 A   T    2493  2493
 IEAVTCTL      1 00000000 00000000 A   T    2745  2745
 IEAVTEST      1 00000000 00000000 A   T    2256  2256
 IEAVTRGR      1 00000000 00000000 A   T    2553  2553
 IEAVTRG1      1 00000000 00000000 A   T    2002  2002
 IEAVTRV3      1 00000000 00000000 A   T    2249  2249
 IEAVTSBP      1 00000000 00000000 A   T    2499  2499
 IEAVTSFR      1 00000000 00000000 A   T    2220  2220
 IEAVTSGL      1 00000000 00000000 A   T    2497  2497
 IEAVVMSR      1 00000000 00000000 A   T    2278  2278
 IEAVWAIT      1 00000000 00000000 A   T    2520  2520
 IEAVWSAC      1 00000000 00000000 A   T    2551  2551
 IEAVWSAG      1 00000000 00000000 A   T    2549  2549
 IEAVWSAL      1 00000000 00000000 A   T    2547  2547
 IEAVXEXT      1 00000000 00000000 A   T    2628  2628
 IEAVXSFT      1 00000000 00000000 A   T    2595  2595
 IEAVXSTN      1 00000000 00000000 A   T    2601  2601
 IEAVXSTS      1 00000000 00000000 A   T    2599  2599
 IEAVXUNN      1 00000000 00000000 A   T    2624  2624
 IEAVXUNS      1 00000000 00000000 A   T    2603  2603
 IEAWTCB       1 00000000 00000000 A   T    2660  2660
 IEA0DS        1 00000000 00000000 A   T    2066  2066
 IEA0EF00      1 00000000 00000000 A   T    1972  1972
 IEA0EF01      1 00000000 00000000 A   T    2012  2012
 IEA0PT0E      1 00000000 00000000 A   T    2732  2732
 IEA0PT01      1 00000000 00000000 A   T    2073  2073
 IEA0PT02      1 00000000 00000000 A   T    2657  2657
 IEA0PT03      1 00000000 00000000 A   T    2734  2734
 IEA0VL00      1 00000000 00000000 A   T    1983  1983
1MUD      (MUD2047) (12:36) (15MAR04) Ordinary Symbol and Literal Cross Reference                                           Page   80
 IEA0VL01      1 00000000 00000000 A   T    2390  2390
 IECIXAVL      1 00000000 00000000 A   T    2058  2058
 IECPCNVT      1 00000000 00000000 A   T    1986  1986
 IECPRLTV      1 00000000 00000000 A   T    1990  1990
 IECVEXCL      1 00000000 00000000 A   T    2622  2622
 IECXAPG       1 00000000 00000000 A   T    1981  1981
 IECXITP       1 00000000 00000000 A   T    2011  2011
 IECXTLER      1 00000000 00000000 A   T    1997  1997
 IEC0SCR1      1 00000000 00000000 A   T    2156  2156
 IEECUCB       1 00000000 00000000 A   T    2027  2027
 IEEMSER       1 00000000 00000000 A   T    2005  2005   2071
 IEEVEXSN      1 00000000 00000000 A   T    2360  2360
 IEEVSTOP      1 00000000 00000000 A   T    2670  2670
 IEFAQTOP      1 00000000 00000000 A   T    2477  2477
 IEFAUSDM      1 00000000 00000000 A   T    1977  1977
 IEFENFDM      1 00000000 00000000 A   T    2136  2136
 IEFJESCT      1 00000000 00000000 A   T    2236  2236
 IEFLINK       1 00000000 00000000 A   T    1974  1974
 IEFQMWR       1 00000000 00000000 A   T    2087  2087
 IEWFBOSV      1 00000000 00000000 A   T    2064  2064
 IEWMSEPT      1 00000000 00000000 A   T    2569  2569
 IFBDCB        1 00000000 00000000 A   T    2053  2053
 IFDOLT0A      1 00000000 00000000 A   T    2415  2415
 IFGDEBVR      1 00000000 00000000 A   T    3046  3046
 IGC043BR      1 00000000 00000000 A   T    2461  2461
 IGC044R2      1 00000000 00000000 A   T    2571  2571
 IGC062R1      1 00000000 00000000 A   T    2541  2541
 IGC07903      1 00000000 00000000 A   T    2686  2686
 IGC124        1 00000000 00000000 A   T    2702  2702
 IGFRVT        1 00000000 00000000 A   T    2151  2151
 IGVCPBDB      1 00000000 00000000 A   T    2817  2817
 IGVCPDLB      1 00000000 00000000 A   T    2819  2819
 IGVCPFRE      1 00000000 00000000 A   T    2809  2809
 IGVCPGTC      1 00000000 00000000 A   T    2807  2807
 IGVCPGUB      1 00000000 00000000 A   T    2801  2801
 IGVCPGUP      1 00000000 00000000 A   T    2804  2804
 IGVCPGUS      1 00000000 00000000 A   T    2827  2827
 IGVGCAS       1 00000000 00000000 A   T    2455  2455
 IGVGFAS       1 00000000 00000000 A   T    2459  2459
 IGVGRRGN      1 00000000 00000000 A   T    2831  2831
 IGVGVRGN      1 00000000 00000000 A   T    2833  2833
 IGVQSPET      1 00000000 00000000 A   T    2457  2457
 IGVSLIST      1 00000000 00000000 A   T    2811  2811
 IGVSLOC       1 00000000 00000000 A   T    2815  2815
 IGVSREGN      1 00000000 00000000 A   T    2813  2813
 IGVSTSKI      1 00000000 00000000 A   T    2798  2798
 IHADCB        1 00000000 FFFFFFEE     J    1207  1287   1337   1412   1539   1544   1559   1565   1574   1674   1677
                                                  1682   1707   1725   1726   1730   1766   1767   1768
 IHB5439       2 00001562 00000001     H   18236 18215B 18222B
 ILRJTERM      1 00000000 00000000 A   T    2740  2740
 IOSATTSN     40 0000002C FFFFFFE2     X    5766  5767
 IOSB          1 00000000 FFFFFFE2     J    5374  5886
 IOSCCWAD      4 00000014 FFFFFFE2     A    5619  5620
 IOSCSW        7 00000015 FFFFFFE2     X    5625  5626   5653   5653
 IOSCTCDW      8 00000060 FFFFFFE2     D    5756  5757   5759   5759
 IOSEEKA       8 00000064 FFFFFFE2     C    5739  5740   5755
 IOSEND        1 0000006C FFFFFFE2     U    5750  5797   5886
 IOSPCHN       4 00000030 FFFFFFE2     A    5697  5698
 IOSSECT       1 0000002C FFFFFFE2     U    5693  5765   5793
1MUD      (MUD2047) (12:36) (15MAR04) Ordinary Symbol and Literal Cross Reference                                           Page   81
 IOSTATUS      2 00000018 FFFFFFE2     X    5628  5629
 IOSTSA        1 00000018 FFFFFFE2     X    5630  5631
 IOSTSB        1 00000019 FFFFFFE2     X    5641  5642
 IOSVDEVN      1 00000000 00000000 A   T    2757  2757
 IOSVHID       1 00000000 00000000 A   T    2767  2767
 IOSVSUCB      1 00000000 00000000 A   T    2770  2770
 IRARMCNS      1 00000000 00000000 A   T    2511  2511
 IRARMEPS      1 00000000 00000000 A   T    2729  2729
 IRARMI00      1 00000000 00000000 A   T    2468  2468
 IRBEND        4 000000A0 FFFFFFE5     F    4727  4853   4858   4869
 ISNBRNCH      1 00000000 00000000 A   T    2626  2626
 KEYNZERO      1 00000000 00000006     T   12505 12505
 LOC          24 00000000 FFFFFFC6     J   10796 21746M 21759U 21768  22083  22085  22086  22400U 22712
 LOCADDR       4 00000000 FFFFFFC6     F   10785 21767M 21775  22454
 LOCALTOD      1 00000000 00000017     T   18321 18321
 LOCCSECT      8 00000004 FFFFFFC6     C   10786 21944  21975  21980  22404M 22647M
 LOCCSOFS      2 00000014 FFFFFFC6     H   10788 22001M 22001  22026  22419M 22646M
 LOCSYM        8 0000000C FFFFFFC6     C   10787 21803  21834  21839  22405M 22604M
 LOCSYOFS      2 00000016 FFFFFFC6     H   10789 21860M 21860  21885  22414M 22603M
 LOWTBL        1 00000000 00000000 A   T    9147  9147
 LSR          11 0000000B 00000001 A   #    1082 10820  10840  11068M 12592  12613  18274M 18438  18458  18583M 18609
                                                 18629  18767M 18838  18858  19332M 19429  19450  20389M 20465  20485
                                                 20688M 20770  20790  21580M 21653  21673  21706M 21727  21748  22083M
                                                 22125  22145  22339M 22364  22384  22683M 22745  22765  23002M 23057
                                                 23077  23100M 23123  23143  23166M
 MCOMFAIL      1 00000000 00000003     T   12501 12501
 MILCONS       1 00000000 0000002A     T   23405 23405
 MILELF        1 00000000 0000002C     T   23409 23409
 MILMAIN       1 00000000 00000023     T   23396 23396
 MILMALT       1 00000000 00000024     T   23397 23397
 MILMCOM       1 00000000 0000002D     T   23411 23411
 MILMISC       1 00000000 00000026     T   23400 23400
 MILMORT       1 00000000 00000029     T   23404 23404
 MILMSVC       1 00000000 00000028     T   23402 23402
 MILMUD        1 00000000 00000001     J     999  1001   1026   1039   1052   1065   1078   1090   1103   1125   1138
                                                 10801
 MILMUD        1 00000000 00000025     T   23398 23398
 MILSIFT       1 00000000 00000027     T   23401 23401
 MILVIRT       1 00000000 0000002B     T   23407 23407
 MUDINIT       2 00000016 00000001     H   10813 10809
 MUD2047       1 00000000 00000001     R    1008  1006
 NBLTBL        1 00000000 00000000 A   T    9151  9151
 NPARTBL       1 00000000 00000000 A   T    9145  9145
 PATH          4 00000000 FFFFFFE8     F    3200  3237
 PATHFCLS      1 00000080 FFFFFFE8 A   U    3227 15159  16370
 PATHFNI       1 00000020 FFFFFFE8 A   U    3229 15122  16333
 PATHFOPN      1 00000008 FFFFFFE8 A   U    3231 15085  16296
 PIB         160 00000000 FFFFFFCB     J    9830 14189U 14226
 PIBFLAG       1 00000064 FFFFFFCB     R    9678  9682   9687   9692   9697   9702
 PIBFLAG2      1 00000065 FFFFFFCB     R    9708  9712   9717   9722   9727
 PIBFLAG3      1 00000066 FFFFFFCB     R    9733  9737   9742   9747   9752   9757   9762
 PIBFLAG4      1 00000067 FFFFFFCB     R    9768  9772   9777   9782
 PIBFLAG5      1 00000068 FFFFFFCB     R    9788  9792   9797   9802
 PIBGFLG       1 00000018 FFFFFFCB     R    9651  9655
 PIBNAME       8 00000034 FFFFFFCB     C    9672  9807   9807  14278  14283
 PIBNO         2 00000004 FFFFFFCB     H    9643 14312
 PIBSCBP       4 0000000C FFFFFFCB     A    9646 14352
 PIBUC         2 00000030 FFFFFFCB     H    9669  9819   9819
 PRBEND        4 000000A8 FFFFFFE5     F    4742  4866
1MUD      (MUD2047) (12:36) (15MAR04) Ordinary Symbol and Literal Cross Reference                                           Page   82
 PRTABEND      2 00002910 00000001     H   23376 23360
 PRTEXLST      4 0000290C 00000001     A   23360 23334
 PRTSEG        2 00002562 00000001     H   22738 23309
 PRTSG        60 000027EC 00000001     X   23312 18314
 PRTSGBUF    132 00002828 00000001     C   23313 18350  23302  23308
 PRTSGCOD      1 000027EC 00000001     R   23229 23238  23248  23258  23268  23278  23288  23298
 RAR          14 0000000E 00000001 A   #    1130  9326B  9336B 10817  11070M 11074B 11252M 11253M 11253B 11392M 11393M
                                                 11393B 11458M 11459M 11459B 11530M 11531M 11531B 11605M 11618  11628M
                                                 11628  11633M 11636M 11636  11637M 11637  11652M 11652B 11795M 11796M
                                                 11796B 11804M 11805M 11805B 11900M 11901M 11901B 11905M 11906M 11906B
                                                 11918M 11919M 11919B 11936M 11937M 11937B 11949M 11950M 11950B 12171M
                                                 12172M 12172B 12176M 12177M 12177B 12223M 12236  12246M 12246  12251M
                                                 12254M 12254  12255M 12255  12268M 12268B 12324M 12325M 12325B 12375M
                                                 12376M 12376B 12475B 12589  12707M 12708M 12708B 12711M 12712M 12712B
                                                 12778M 12779M 12779B 12804M 12805M 12805B 12808M 12809M 12809B 12819M
                                                 12820M 12820B 12841M 12842M 12842B 12891M 12892M 12892B 12917M 12918M
                                                 12918B 12944M 12945M 12945B 12971M 12972M 12972B 12996M 12997M 12997B
                                                 13018M 13019M 13019B 13031M 13032M 13032B 13036M 13037M 13037B 13120M
                                                 13121M 13121B 13136M 13137M 13137B 13163M 13164M 13164B 13168M 13190M
                                                 13191M 13191B 13224M 13225M 13225B 13236M 13237M 13237B 13258M 13259M
                                                 13259B 13273M 13274M 13274B 13278M 13307M 13308M 13308B 13419M 13420M
                                                 13420B 13441M 13442M 13442B 13516M 13517M 13517B 13531M 13532M 13532B
                                                 13549M 13563M 13564M 13564B 13594M 13595M 13595B 13614M 13615M 13615B
                                                 13629M 13630M 13630B 13746M 13747M 13747B 13761M 13762M 13762B 13785M
                                                 13815M 13816M 13816B 13830M 13831M 13831B 13835M 13856M 13857M 13857B
                                                 13910M 13911M 13911B 13934M 13935M 13935B 13950M 13951M 13951B 13967M
                                                 13968M 13968B 13982M 13983M 13983B 14051M 14052M 14052B 14084M 14085M
                                                 14085B 14104M 14105M 14105B 14130M 14131M 14131B 14152M 14153M 14153B
                                                 14213M 14214M 14214B 14246M 14247M 14247B 14266M 14267M 14267B 14292M
                                                 14293M 14293B 14307M 14308M 14308B 14325M 14326M 14326B 14341M 14342M
                                                 14342B 14374M 14375M 14375B 14396M 14397M 14397B 14422M 14423M 14423B
                                                 14483M 14484M 14484B 14516M 14517M 14517B 14535M 14536M 14536B 14568M
                                                 14569M 14569B 14608M 14609M 14609B 14623M 14624M 14624B 14648M 14649M
                                                 14649B 14680M 14681M 14681B 14705M 14706M 14706B 14741M 14742M 14742B
                                                 14767M 14768M 14768B 14782M 14783M 14783B 14808M 14809M 14809B 14830M
                                                 14831M 14831B 14846M 14847M 14847B 14865M 14866M 14866B 14881M 14882M
                                                 14882B 14903M 14904M 14904B 14964M 14965M 14965B 14997M 14998M 14998B
                                                 15017M 15018M 15018B 15043M 15044M 15044B 15075M 15076M 15076B 15108M
                                                 15109M 15109B 15145M 15146M 15146B 15182M 15183M 15183B 15221M 15222M
                                                 15222B 15225M 15226M 15226B 15244M 15245M 15245B 15266M 15267M 15267B
                                                 15290M 15291M 15291B 15305M 15306M 15306B 15338M 15339M 15339B 15356M
                                                 15357M 15357B 15372M 15373M 15373B 15392M 15393M 15393B 15413M 15414M
                                                 15414B 15433M 15434M 15434B 15453M 15454M 15454B 15471M 15472M 15472B
                                                 15487M 15488M 15488B 15506M 15507M 15507B 15522M 15523M 15523B 15553M
                                                 15554M 15554B 15579M 15580M 15580B 15599M 15600M 15600B 15615M 15616M
                                                 15616B 15625M 15626M 15626  15628M 15628B 15648M 15649M 15649B 15711M
                                                 15712M 15712B 15738M 15739M 15739B 15764M 15765M 15765B 15797M 15798M
                                                 15798B 15938M 15939M 15939B 15964M 15965M 15965B 15992M 15993M 15993B
                                                 16018M 16019M 16019B 16050M 16051M 16051B 16072M 16073M 16073B 16092M
                                                 16093M 16093B 16163M 16164M 16164B 16190M 16191M 16191B 16216M 16217M
                                                 16217B 16250M 16251M 16251B 16286M 16287M 16287B 16319M 16320M 16320B
                                                 16356M 16357M 16357B 16393M 16394M 16394B 16423M 16424M 16424B 16448M
                                                 16449M 16449B 16509M 16522  16532M 16532  16537M 16540M 16540  16541M
                                                 16541  16554M 16554B 16590M 16591M 16591B 16617M 16618M 16618B 16643M
                                                 16644M 16644B 16658M 16659M 16659B 16685M 16686M 16686B 16707M 16708M
                                                 16708B 16739M 16740M 16740B 16790M 16791M 16791B 16817M 16818M 16818B
                                                 16850M 16851M 16851B 16890M 16891M 16891B 16905M 16906M 16906B 16930M
                                                 16931M 16931B 16962M 16963M 16963B 16987M 16988M 16988B 17023M 17024M
                                                 17024B 17049M 17050M 17050B 17064M 17065M 17065B 17090M 17091M 17091B
1MUD      (MUD2047) (12:36) (15MAR04) Ordinary Symbol and Literal Cross Reference                                           Page   83
                                                 17128M 17129M 17129B 17154M 17155M 17155B 17193M 17194M 17194B 17209M
                                                 17210M 17210B 17241M 17242M 17242B 17256M 17257M 17257B 17278M 17279M
                                                 17279B 17300M 17301M 17301B 17358M 17359M 17359B 17419M 17420M 17420B
                                                 17446M 17447M 17447B 17458M 17459M 17459B 17480M 17481M 17481B 17500M
                                                 17501M 17501B 17518M 17532M 17533M 17533B 17550M 17582M 17583M 17583B
                                                 17608M 17609M 17609B 17634M 17635M 17635B 17668M 17669M 17669B 17694M
                                                 17695M 17695B 17741M 17742M 17742B 17760M 17761M 17761B 17776M 17777M
                                                 17777B 17823M 17824M 17824B 17850M 17851M 17851B 17881M 17882M 17882B
                                                 17908M 17909M 17909B 17926M 17927M 17927B 17953M 17954M 17954B 17971M
                                                 17972M 17972B 17994M 17995M 17995B 18012M 18013M 18013B 18035M 18036M
                                                 18036B 18053M 18054M 18054B 18117M 18118M 18118B 18145M 18146M 18146B
                                                 18167M 18168M 18168B 18185M 18186M 18186B 18243M 18244M 18244B 18276M
                                                 18280B 18435  18491M 18492M 18492B 18514M 18515M 18515B 18544M 18545M
                                                 18545B 18564M 18565M 18565B 18585M 18589B 18606  18684M 18685M 18685B
                                                 18715M 18716M 18716B 18720M 18721M 18721B 18741M 18742M 18742B 18746M
                                                 18747M 18747B 18769M 18773B 18835  18881M 19013M 19014M 19014B 19047M
                                                 19048M 19048B 19085M 19086M 19086B 19147M 19148M 19148B 19169M 19170M
                                                 19170B 19190M 19191M 19191B 19212M 19213M 19213B 19233M 19234M 19234B
                                                 19309M 19310M 19310B 19334M 19338B 19426  19493M 19494M 19494B 19636M
                                                 19637M 19637B 19770M 19771M 19771B 19797M 19798M 19798B 19826M 19827M
                                                 19827B 19845M 19846M 19846B 19878M 19879M 19879B 19897M 19898M 19898B
                                                 19912M 19913M 19913B 19938M 19939M 19939B 19961M 19962M 19962B 19982M
                                                 19983M 19983B 20002M 20023M 20024M 20024B 20064M 20065M 20065B 20215M
                                                 20244M 20245M 20245B 20267M 20268M 20268B 20290M 20291M 20291B 20309M
                                                 20310M 20310B 20325M 20326M 20326B 20344M 20345M 20345B 20366M 20367M
                                                 20367B 20391M 20395B 20462  20558M 20559M 20559B 20569M 20570M 20570B
                                                 20584M 20585M 20585B 20603M 20604M 20604B 20618M 20619M 20619B 20636M
                                                 20672M 20673M 20673B 20690M 20694B 20767  20858M 20859M 20859B 20881M
                                                 20882M 20882B 20924M 20925M 20925B 20977M 20978M 20978B 20999M 21000M
                                                 21000B 21080M 21081M 21081B 21095M 21096M 21096B 21139M 21140M 21140B
                                                 21180M 21181M 21181B 21199M 21200M 21200B 21263M 21264M 21264B 21284M
                                                 21294M 21295M 21295B 21353M 21354M 21354B 21364M 21365M 21365B 21379M
                                                 21380M 21380B 21423M 21424M 21424B 21464M 21465M 21465B 21483M 21484M
                                                 21484B 21516M 21517M 21517B 21531M 21532M 21532B 21554M 21555M 21555B
                                                 21582M 21586B 21650  21692M 21708M 21712B 21724  21770M 21789M 21790M
                                                 21790B 21822M 21823M 21823B 21848M 21849M 21849B 21880M 21881M 21881B
                                                 21898M 21899M 21899B 21917M 21918M 21918B 21963M 21964M 21964B 21989M
                                                 21990M 21990B 22021M 22022M 22022B 22039M 22040M 22040B 22058M 22059M
                                                 22059B 22085M 22089B 22122  22341M 22345B 22361  22685M 22689B 22742
                                                 23004M 23008B 23054  23102M 23106B 23120  23168M 23172B
 RB            1 00000040 FFFFFFE5 C   U    4162 13354U 13395U
 RBCDE1        3 0000004D FFFFFFE5     R    4831 13679
 RBEP          4 0000004C FFFFFFE5     A    4709  4816
 RBFTIRB       1 00000040 FFFFFFE5 A   U    4670 13455  13658
 RBFTSVRB      1 000000C0 FFFFFFE5 A   U    4672 13480  13573  13645
 RBGRS0        4 00000060 FFFFFFE5     F    4387 13833
 RBLINK        4 0000005C FFFFFFE5     A    4370 13360  13596  13858
 RBOPSW        8 00000050 FFFFFFE5     C    4354 13537
 RBPGMQ        4 00000058 FFFFFFE5     A    4717  4834   4843   4848
 RBPREFIX      1 00000000 FFFFFFE5     U    4540  4863
 RBPRFX        1 00000000 FFFFFFE5     J    4307  4538
 RBPRFXND      1 00000040 FFFFFFE5     C    4651  4863   4865
 RBPRFXST      8 00000020 FFFFFFE5     D    4580  4865   4866   4867   4868   4869   4871
 RBSECT        1 00000040 FFFFFFE5     U    4654  4162
 RBSTAB1       1 0000004A FFFFFFE5     B    4329 13457  13482  13575  13647  13660
 RMBRANCH      1 00000000 00000000 A   T    2636  2636
 R0            0 00000000 FFFFFFFF A   #     706  9327M  9328M  9329   9331M  9332  11122  11801M 11801  11880M 11881M
                                                 11882  11925M 11983  12216M 12329M 12348M 12769M 12795M 12882M 12908M
                                                 12908  12935M 12962M 12990M 12991  13009M 13009  13038  13111M 13111
1MUD      (MUD2047) (12:36) (15MAR04) Ordinary Symbol and Literal Cross Reference                                           Page   84
                                                 13127M 13154M 13165M 13181M 13181  13215M 13232M 13233  13249M 13249
                                                 13264M 13275M 13298M 13410M 13432M 13432  13446M 13467M 13492M 13522M
                                                 13541M 13541  13554M 13585M 13605M 13605  13620M 13737M 13752M 13777M
                                                 13777  13806M 13806  13821M 13832M 13847M 13847  13901M 13925M 13925
                                                 13941M 13958M 13979M 14042M 14075M 14095M 14121M 14143M 14143  14204M
                                                 14237M 14257M 14283M 14298M 14316M 14316  14332M 14365M 14387M 14413M
                                                 14413  14474M 14507M 14526M 14559M 14599M 14614M 14639M 14671M 14696M
                                                 14696  14732M 14758M 14773M 14799M 14799  14821M 14821  14837M 14856M
                                                 14856  14872M 14894M 14894  14955M 14988M 15008M 15034M 15066M 15099M
                                                 15136M 15173M 15212M 15227  15228M 15281M 15281  15296M 15329M 15347M
                                                 15347  15363M 15374M 15424M 15444M 15462M 15462  15478M 15497M 15497
                                                 15513M 15544M 15570M 15570  15590M 15590  15606M 15639M 15702M 15729M
                                                 15755M 15788M 15929M 15955M 15955  15983M 16009M 16041M 16063M 16083M
                                                 16154M 16181M 16207M 16241M 16277M 16310M 16347M 16384M 16414M 16414
                                                 16439M 16581M 16608M 16634M 16649M 16676M 16698M 16698  16730M 16781M
                                                 16808M 16841M 16881M 16896M 16921M 16953M 16978M 16978  17014M 17040M
                                                 17055M 17081M 17081  17119M 17145M 17145  17184M 17200M 17232M 17247M
                                                 17269M 17291M 17291  17349M 17410M 17437M 17448M 17491M 17510M 17510
                                                 17523M 17542M 17542  17573M 17599M 17625M 17625  17659M 17685M 17685
                                                 17732M 17751M 17751  17767M 17814M 17825M 17826M 17872M 17898M 17899M
                                                 17899  17917M 17943M 17944M 17944  17962M 17984M 17985M 17985  18003M
                                                 18025M 18026M 18026  18044M 18107M 18108M 18108  18136M 18158M 18176M
                                                 18482M 18505M 18535M 18555M 18555  18675M 18706M 18732M 18873M 18873
                                                 19004M 19004  19038M 19076M 19076  19138M 19160M 19160  19181M 19203M
                                                 19203  19224M 19266M 19275M 19275  19285M 19474  19484M 19627M 19761M
                                                 19761  19788M 19817M 19836M 19836  19869M 19888M 19888  19903M 19929M
                                                 19929  19952M 19973M 19994M 19994  20014M 20014  20055M 20070M 20070
                                                 20097M 20147M 20185M 20235M 20258M 20281M 20300M 20300  20316M 20335M
                                                 20335  20357M 20357  20493  20503M 20503  20575M 20594M 20594  20609M
                                                 20628M 20628  20640M 20663M 20663  20800  20849M 20849  20872M 20915M
                                                 20968M 20990M 20990  21042M 21062M 21086M 21130M 21171M 21190M 21254M
                                                 21276M 21344M 21370M 21414M 21455M 21474M 21507M 21507  21522M 21545M
                                                 21545  21766  21780M 21813M 21839M 21871M 21889M 21889  21908M 21954M
                                                 21980M 22012M 22030M 22030  22049M 22165M 22165  22179  22196  22409M
                                                 22409  22816  22979M
 R1            1 00000001 FFFFFFFF A   #     719 11162  11249M 11309M 11310M 11310  11325U 11383M 11384M 11384  11409M
                                                 11410M 11410  11425U 11527M 11599M 11687M 11715M 11924M 12217M 12328M
                                                 12347M 12675  12768M 12790M 12877M 12934M 12955M 12992M 13027M 13040M
                                                 13126M 13147M 13166M 13214M 13263M 13276M 13297M 13403M 13445M 13466M
                                                 13491M 13521M 13537M 13553M 13584M 13601M 13619M 13732M 13751M 13772M
                                                 13820M 13833M 13900M 13921M 13940M 13957M 13975M 14035M 14074M 14094M
                                                 14116M 14197M 14236M 14256M 14278M 14297M 14312M 14331M 14364M 14380M
                                                 14467M 14506M 14525M 14558M 14594M 14613M 14634M 14670M 14691M 14731M
                                                 14753M 14772M 14817M 14836M 14852M 14871M 14948M 14987M 15007M 15029M
                                                 15065M 15098M 15135M 15172M 15211M 15232M 15232  15277M 15295M 15328M
                                                 15343M 15362M 15378M 15378  15423M 15443M 15458M 15477M 15493M 15512M
                                                 15543M 15586M 15605M 15638M 15695M 15722M 15750M 15921M 15982M 16004M
                                                 16040M 16056M 16082M 16147M 16174M 16202M 16240M 16276M 16309M 16346M
                                                 16383M 16434M 16502M 16574M 16601M 16629M 16648M 16668M 16729M 16774M
                                                 16801M 16840M 16876M 16895M 16916M 16952M 16973M 17013M 17035M 17054M
                                                 17118M 17177M 17199M 17225M 17246M 17262M 17348M 17403M 17430M 17448M
                                                 17490M 17506M 17522M 17538M 17551M 17572M 17592M 17658M 17731M 17747M
                                                 17766M 17807M 17837M 17871M 17891M 17916M 17938M 17961M 17980M 18002M
                                                 18021M 18043M 18102M 18135M 18154M 18175M 18481M 18498M 18534M 18551M
                                                 18636  18651  18674M 18705M 18731M 18800U 18869M 18896  19037M 19131M
                                                 19174M 19217M 19258M 19284M 19365U 19472M 19473  19474M 19475M 19476
                                                 19483M 19509  19596M 19626M 19757M 19781M 19816M 19832M 19868M 19884M
                                                 19902M 19947M 19972M 19990M 20054M 20066M 20234M 20253M 20280M 20296M
                                                 20315M 20331M 20422U 20495  20574M 20590M 20608M 20624M 20639M 20799
1MUD      (MUD2047) (12:36) (15MAR04) Ordinary Symbol and Literal Cross Reference                                           Page   85
                                                 20816  20865M 20908M 20961M 21085M 21123M 21164M 21189M 21269M 21369M
                                                 21407M 21448M 21473M 21521M 21559M 21613U 21680  21689M 21767  21768M
                                                 21775M 21812M 21834M 21870M 21885M 21907M 21953M 21975M 22011M 22026M
                                                 22048M 22390  22815  23083M 23149M
 R10          10 0000000A FFFFFFFF A   #     836 11480M 11481M 11481  11496U 11552M 11553M 11553  11568U 12179M 12195U
                                                 12209M 12210M 12210
 R13          13 0000000D FFFFFFFF A   #     875 12624U 19461U 21759U
 R14          14 0000000E FFFFFFFF A   #     888 11133B 11172  11738M 11739B 12306M 12307B 12474M 18805B 19370B 20427B
                                                 21618B 21684M 21684  21685M 21686M 21686  21688  23379B
 R15          15 0000000F FFFFFFFF A   #     901  9324M  9325M  9325   9327   9332M  9335M  9335  10865M 10865  11073M
                                                 11073  11105U 11132M 11132  11215M 11216M 11227  11915M 11933M 12321M
                                                 12372M 12473M 12775M 12801M 12816M 12838M 12888M 12914M 12941M 12968M
                                                 12993M 13015M 13028M 13041M 13044  13056M 13064M 13073M 13073  13080
                                                 13117M 13133M 13160M 13187M 13221M 13226M 13227M 13227  13233M 13255M
                                                 13270M 13304M 13416M 13438M 13513M 13528M 13547M 13560M 13591M 13596M
                                                 13597M 13611M 13626M 13743M 13758M 13783M 13812M 13827M 13853M 13907M
                                                 13931M 13947M 13964M 14048M 14081M 14101M 14127M 14149M 14210M 14243M
                                                 14263M 14289M 14304M 14322M 14338M 14371M 14393M 14419M 14480M 14513M
                                                 14532M 14565M 14605M 14620M 14645M 14677M 14702M 14738M 14764M 14779M
                                                 14805M 14827M 14843M 14862M 14878M 14900M 14961M 14994M 15014M 15040M
                                                 15072M 15105M 15142M 15179M 15218M 15241M 15263M 15287M 15302M 15335M
                                                 15353M 15369M 15389M 15410M 15430M 15450M 15468M 15484M 15503M 15519M
                                                 15550M 15576M 15596M 15612M 15622M 15645M 15708M 15735M 15761M 15794M
                                                 15808M 15809M 15809  15851M 15935M 15961M 15989M 16015M 16047M 16069M
                                                 16089M 16160M 16187M 16213M 16247M 16283M 16316M 16353M 16390M 16420M
                                                 16445M 16503M 16587M 16614M 16640M 16655M 16682M 16704M 16736M 16787M
                                                 16814M 16847M 16887M 16902M 16927M 16959M 16984M 17020M 17046M 17061M
                                                 17087M 17125M 17151M 17190M 17206M 17238M 17253M 17275M 17297M 17355M
                                                 17416M 17443M 17455M 17477M 17497M 17516M 17529M 17548M 17579M 17605M
                                                 17631M 17665M 17691M 17738M 17757M 17773M 17820M 17847M 17878M 17905M
                                                 17923M 17950M 17968M 17991M 18009M 18032M 18050M 18114M 18142M 18164M
                                                 18182M 18279M 18279  18464  18465  18488M 18511M 18541M 18561M 18588M
                                                 18588  18635  18681M 18712M 18717M 18738M 18743M 18772M 18772  18785U
                                                 18864  18879M 18925M 18930M 18939M 18939  18946  19010M 19016M 19026
                                                 19044M 19082M 19144M 19166M 19187M 19209M 19230M 19306M 19337M 19337
                                                 19350U 19490M 19633M 19767M 19794M 19823M 19842M 19875M 19894M 19909M
                                                 19935M 19958M 19979M 20000M 20020M 20028M 20029M 20041M 20042M 20047M
                                                 20048  20049  20061M 20094M 20144M 20182M 20241M 20264M 20287M 20306M
                                                 20322M 20341M 20363M 20394M 20394  20407U 20555M 20566M 20581M 20600M
                                                 20615M 20634M 20669M 20693M 20693  20796  20855M 20860M 20865  20878M
                                                 20921M 20974M 20996M 21077M 21092M 21136M 21177M 21196M 21260M 21282M
                                                 21291M 21350M 21361M 21376M 21420M 21461M 21480M 21513M 21528M 21551M
                                                 21585M 21585  21598U 21679  21680M 21687M 21688M 21690M 21711M 21711
                                                 21763  21786M 21819M 21845M 21877M 21895M 21914M 21960M 21986M 22018M
                                                 22036M 22055M 22088M 22088  22154M 22154  22196M 22199M 22201  22216M
                                                 22226U 22270M 22293M 22310M 22344M 22344  22583M 22584M 22585M 22597
                                                 22603  22688M 22688  22771  22908M 22912M 22921M 22921  22928  22948
                                                 23007M 23007  23105M 23105  23171M 23171  23372U
 R2            2 00000002 FFFFFFFF A   #     732 12713M 12723U 12984M 12985M 12985  12991M 12993  13028  13679M 13698U
                                                 14352M 14353M 14353  14380  15227M 15380M 15380  17220M 17225  18188M
                                                 18213  20137M 20163  20175M 20175  20182  20185  20186M 20201  20523M
                                                 20523  20524M 20533M 20533  20926M 20946M 21019M 21033M 21033  21242M
                                                 21254  21296M 21328  22460M 22460  22529M 22548  22576  22835M 22836M
                                                 22837  22863
 R3            3 00000003 FFFFFFFF A   #     745 15234M 15234  15382M 15382  17212M 17219M 19985M 20048M 20096M 20146M
                                                 20184M 20493M 20494M 20514M 20514  20884M 21123  21164  21407  21448
                                                 22462M 22462  22512M 22564M 22564  22576  22621  22818M 22840
 R4            4 00000004 FFFFFFFF A   #     758 10954M 10954  10999M 11041M 11041  13344M 13354U 13360M 13380  13395U
                                                 13403  13858M 13859M 13859  19064M 19087  20025M 20026M 20029  20042
1MUD      (MUD2047) (12:36) (15MAR04) Ordinary Symbol and Literal Cross Reference                                           Page   86
                                                 20071M 20082  20094  20097  20098M 20113  20144  20147  20148M 20163
                                                 20495M 20646M 20821M 20832M 20832  21009M 21305M 22454M 22455M 22490
                                                 22583  22627M 22628M 22640  22646  22816M 22835  22902M 22902  22908
                                                 22979
 R5            5 00000005 FFFFFFFF A   #     771 10955M 10965U 11004M 12024M 12025M 12025  12049U 13309M 13319U 13325M
                                                 13326M 13326  13342U 13380  18651M 18901M 18901  18903M 18965M 18966M
                                                 18966  18987M 18987  19096M 19096  19104M 19122M 19122  19741M 19807M
                                                 19807  20025  20027M 20072M 20082  20113  20201  20499M 20499  20590
                                                 20645M 20800M 20821  20893M 20893  21766M 21780  22422M 22423M 22423
                                                 22450U 22512  22529  22534M 22548M 22621M 22815M
 R6            6 00000006 FFFFFFFF A   #     784 10929M 10930M 10930  10955  11162M 11170U 12008M 12018U 12675M 12685U
                                                 12690  14011M 14012M 14012  14027U 14035  14173M 14174M 14174  14189U
                                                 14197  14443M 14444M 14444  14459U 14467  14924M 14925M 14925  14940U
                                                 14948  15652M 15668U 15966M 16095M 16103U 16116M 16117M 16117  16147
                                                 16464M 16480U 16494M 16495M 16495  16574  16742M 16750U 16763M 16764M
                                                 16764  16774  17362M 17378U 17392M 17393M 17393  17403  17779M 17791M
                                                 17792M 17792  18055M 18071U 18085M 18086M 18086  18465M 18466M 18493M
                                                 18498  18636M 18717  18896M 19531M 19532M 19543  19560  19574  19583
                                                 19686M 19687M 19700  19706  19719  19730U 19743M 19757  19947  20253
                                                 20331  20799M 20883M 20884  21001M 21297M 22194M 22390M 22400U 22771M
                                                 22781U
 R7            7 00000007 FFFFFFFF A   #     797 11983M 12216  12338M 12338  12453M 12453  18464M 18546M 18551  18635M
                                                 18743  18864M 18869  18903  19103M 19104  19511M 19527U 19543  19560
                                                 19583M 19594  19646M 19658  19682U 19706M 19717  19719M 19720M 19832
                                                 19858  19884  19952  19984M 19985  20049M 20224M 20224  20258  20296
                                                 20491M 20674  21217M 21237M 21328
 SAVERA        4 00000498 00000001     A   12485 11172M 11738  12306
 SCB         434 00000000 FFFFFFCA     J   10595 11325U 11340  11425U 11440  14459U 14496  16742  16750U 17107  18055
                                                 18071U 18107
 SCBACCT       5 00000124 FFFFFFCA     C   10187 10350  10350  14547M 14547  16829M 16829
 SCBACLCK      8 000000E8 FFFFFFCA     D   10029 10031  10031
 SCBAFLAG      1 000000CC FFFFFFCA     R    9986  9990   9995  10000  10005
 SCBANO        2 00000129 FFFFFFCA     X   10190 14660M 14660  14691  16942M 16942  16973
 SCBBFLAG      1 000000CD FFFFFFCA     R   10011 10015
 SCBCRI        2 000001A4 FFFFFFCA     H   10577 10582  10582
 SCBFLG        1 00000168 FFFFFFCA     R   10465 10469  10474  10479  10484  10489  10494  10499  10504
 SCBFLG2       1 00000169 FFFFFFCA     R   10510 10514  10519  10524
 SCBGRP        2 00000127 FFFFFFCA     C   10189 14594  14599  16876  16881
 SCBID         4 000000F4 FFFFFFCA     F   10036 14852
 SCBKAFL       1 0000012F FFFFFFCA     R   10321 10325  10330  10335  10340  10345
 SCBKIFL       1 0000012E FFFFFFCA     R   10276 10280  10285  10290  10295  10300  10305  10310  10315
 SCBLINK       4 00000004 FFFFFFCA     A    9848 16742  16763  18055  18085
 SCBNAME      20 00000136 FFFFFFCA     C   10357 14721M 14721  14753  14758  17003M 17003  17035  17040
 SCBNO         2 000000F8 FFFFFFCA     H   10037 14817
 SCBOFLAG      1 00000186 FFFFFFCA     R   10535 10539  10544  10549  10554  10559
 SCBOPST       4 00000134 FFFFFFCA     F   10355 10584  10584
 SCBPIBP       4 00000008 FFFFFFCA     A    9850 11355M 11355
 SCBQFLG       1 0000015C FFFFFFCA     R   10384 10388
 SCBSFLG       1 0000012B FFFFFFCA     R   10194 10198  10203  10208  10213  10218  10223
 SCBSTART      4 000000F4 FFFFFFCA     F   10035 10039  10039  10351  10351  10456  10456
 SCBSTAT       1 000000FF FFFFFFCA     R   10131 10135  10140  10145  10150  10155  10160  10165
 SCBTACF       1 0000012C FFFFFFCA     R   10229 10233  10238  10243  10248  10253  10258  10263  10268
 SCBTFLAG      1 0000015A FFFFFFCA     R   10362 10366  10371  10376
 SCBTFLG       1 000000B0 FFFFFFCA     R    9873  9877   9882   9887   9892   9897   9902
 SCBTFLG2      1 000000B1 FFFFFFCA     R    9908  9912   9917   9922   9927   9932
 SCBTFLG3      1 000000B8 FFFFFFCA     R    9961  9965   9970
 SCBTYPE       1 000000FC FFFFFFCA     R   10044 10053  10063  10073  10083  10093  10103  10113  10123
 SCBUFLG       1 0000015E FFFFFFCA     R   10399 10403  10408  10413  10418  10423  10428  10433  10438
 SCBUFLG2      1 0000015F FFFFFFCA     R   10444 10448  10453
1MUD      (MUD2047) (12:36) (15MAR04) Ordinary Symbol and Literal Cross Reference                                           Page   87
 SCBUSER       3 00000124 FFFFFFCA     C   10188 14634  14639  16916  16921
 SCBVPGM       8 0000010C FFFFFFCA     C   10177 10183  10183
 SCBXFLG       1 000000B2 FFFFFFCA     R    9938  9942   9947
 SCB1ST        4 000000FC FFFFFFCA     F   10041 10586  10586
 SDWA          1 00000000 FFFFFFDA     J    6977  7973   8716  11170U 11249  11687  11694M 11696M 11697M 11698M 11715
                                                 11722M 11724M 11725M 11726M 12685U
 SDWAABCC      4 00000004 FFFFFFDA     B    6992 11215  12992  13027
 SDWAACF2      1 000000FD FFFFFFDA     B    7416 11697M 11725M
 SDWACLEN      8 000001C8 FFFFFFD2 A   U    7976  7983   7984
 SDWACLUP      1 00000080 FFFFFFDA A   U    7347 11270
 SDWACMPF      1 00000004 FFFFFFDA     B    6993 11209  11698M 11726M
 SDWADEND      8 000000F0 FFFFFFD2     D    7970  7980
 SDWADLEN      8 000000F0 FFFFFFD2 A   U    7980  7981
 SDWAEEND      8 00000150 FFFFFFD6     D    7921  7982
 SDWAELEN      8 00000150 FFFFFFD2 A   U    7982  7983   7984   7991
 SDWAEND       8 00000298 FFFFFFDA     D    7616  7973
 SDWAERRD      1 000000EB FFFFFFDA     B    7346 11272
 SDWAFREE      1 00000004 FFFFFFDA A   U    7432 11697  11725
 SDWAGRSV     64 00000018 FFFFFFDA     C    7049 13166
 SDWAIEND      8 00000010 FFFFFFD8     D    7843  7977
 SDWAILC1      1 00000071 FFFFFFDA     B    7126 12990
 SDWAILC2      1 00000081 FFFFFFDA     B    7188 13232
 SDWAILEN      8 00000010 FFFFFFD2 A   U    7977  7983   7984
 SDWALEN       8 00000298 FFFFFFD2 A   U    7973  7984  17898
 SDWALEND      8 00000020 FFFFFFD7     D    7891  7978
 SDWALLEN      8 00000020 FFFFFFD2 A   U    7978  7983   7984
 SDWAMLEN      8 00000600 FFFFFFD2 A   U    7985  7988   7994
 SDWAMLNP      8 000005E0 FFFFFFD2 A   U    7984  7985
 SDWANLNS      8 000001F0 FFFFFFD2 A   U    7981  7988   7996
 SDWANOPR      1 00000000 FFFFFFD2 A   U    7999 11690B 11718B
 SDWANRC1      1 00000000 FFFFFFD4     J    7945  7975
 SDWANRC2      1 00000000 FFFFFFD3     J    7954  7979
 SDWANRC3      1 00000000 FFFFFFD2     J    7967  7980
 SDWANXT1      4 0000006C FFFFFFDA     F    7119 12984  13205
 SDWANXT2      4 0000007C FFFFFFDA     F    7180 13205  13226
 SDWAPEND      8 00000020 FFFFFFD5     D    7939  7974
 SDWAPLEN      8 00000020 FFFFFFD2 A   U    7974  7985
 SDWAPTRS      1 00000000 FFFFFFD5     J    7930  7974
 SDWARCDE      1 000000FC FFFFFFDA     B    7410 11694M 11722M
 SDWARC1       1 00000000 FFFFFFD9     J    7618  7976
 SDWARC2       1 00000000 FFFFFFD8     J    7837  7977
 SDWARC3       1 00000000 FFFFFFD7     J    7849  7978
 SDWARC4       1 00000000 FFFFFFD6     J    7899  7982
 SDWAREND      8 000000F0 FFFFFFD4     D    7947  7975
 SDWAREQ       1 00000080 FFFFFFDA A   U    6994 11207  11698  11726
 SDWARLEN      8 000000F0 FFFFFFD2 A   U    7975  7981
 SDWARTYA      4 000000F0 FFFFFFDA     A    7395 11696M 11724M
 SDWASEN       8 00000010 FFFFFFD3     D    7960  7979
 SDWASEND      8 000001C8 FFFFFFD9     D    7831  7976
 SDWASLEN      8 00000710 FFFFFFD2 A   U    7994  7996
 SDWASPL       8 00000010 FFFFFFD2 A   U    7979  7981
 SDWASRSV     64 00000088 FFFFFFDA     C    7203 13276
 SDWATLEN      8 000007F0 FFFFFFD2 A   U    7988  7991
 SDWATRAN      4 00000074 FFFFFFDA     A    7139  7141
 SEG           1 00000000 0000001B     T   18329 18329  20703  22701
 SEGB          1 00000000 00000015     T   18319 18319  20708  22703
 SEGCB        60 00000000 FFFFFFC9     J   10701 12700U 15622  16503  22781U
 SEGCBCOD      1 00000000 FFFFFFC9     R   10612 10621  10631  10641  10651  10661  10671  10681
 SEGCBINDF
1MUD      (MUD2047) (12:36) (15MAR04) Ordinary Symbol and Literal Cross Reference                                           Page   88
               4 00000010 FFFFFFC9     A   10688 20491  20492M 20674M
 SEGCBLENF
               4 0000000C FFFFFFC9     A   10687 13041  20492
 SEGCBLOC      4 00000020 FFFFFFC9     A   10691 13040
 SEGCBMAXF
               4 00000004 FFFFFFC9     A   10685 12703M 17864M 20939  21055  21109  21230  21393
 SEGCBOVF      5 00000000 FFFFFFC9        10661 22809
 SEGCBR       11 0000000B 00000001 A   #    1070 12692M 12700U 12775  12801  12838  12888  12914  12941  12968  12977
                                                 12982M 13015  13023M 13117  13133  13160  13187  13221  13255  13270
                                                 13304  13416  13438  13513  13528  13547  13560  13591  13611  13626
                                                 13743  13758  13783  13812  13827  13853  13907  13931  13947  13964
                                                 14048  14081  14101  14127  14149  14210  14243  14263  14289  14304
                                                 14322  14338  14371  14393  14419  14480  14513  14532  14565  14605
                                                 14620  14645  14677  14702  14738  14764  14779  14805  14827  14843
                                                 14862  14878  14900  14961  14994  15014  15040  15072  15105  15142
                                                 15179  15218  15263  15287  15302  15335  15353  15369  15410  15430
                                                 15450  15468  15484  15503  15519  15550  15576  15596  15612  15645
                                                 15708  15735  15761  15794  15935  15961  15989  16015  16047  16069
                                                 16089  16160  16187  16213  16247  16283  16316  16353  16390  16420
                                                 16445  16587  16614  16640  16655  16682  16704  16736  16787  16814
                                                 16847  16887  16902  16927  16959  16984  17020  17046  17061  17087
                                                 17125  17151  17190  17206  17238  17253  17275  17297  17355  17416
                                                 17443  17477  17497  17516  17529  17548  17579  17605  17631  17665
                                                 17691  17738  17757  17773  17820  17847  17878  17905  17923  17950
                                                 17968  17991  18009  18032  18050  18114  18142  18164  18182  18488
                                                 18511  18541  18561  18681  18712  18738  18879  19010  19026  19044
                                                 19082  19144  19166  19187  19209  19230  19306  19490  19633  19767
                                                 19794  19823  19842  19875  19894  19909  19935  19958  19979  20000
                                                 20020  20061  20241  20264  20287  20306  20322  20341  20363  20555
                                                 20566  20581  20600  20615  20634  20669  20796M 20855  20878  20921
                                                 20974  20996  21077  21092  21136  21177  21196  21260  21282  21291
                                                 21350  21361  21376  21420  21461  21480  21513  21528  21551  21679M
                                                 21690  21763M 21786  21819  21845  21877  21895  21914  21960  21986
                                                 22018  22036  22055
 SEGCBUSR      4 00000038 FFFFFFC9     A   10694 10705
 SEGCBWR       2 00000000 FFFFFFC9        10631 22797
 SEGCC         1 0000003B FFFFFFC9     C   10705 12763M 12849M 12919M 12973M 13192M 13292M 13879M 13912M 13952M 14001M
                                                 14154M 14424M 14905M 15206M 15621M 15633M 15651M 15978M 16142M 16501M
                                                 16724M 16741M 17172M 17343M 17360M 17727M 17778M 17866M 17883M 17911M
                                                 17928M 17956M 17997M 18038M 18092M 18130M 18170M 19478M 19621M 19752M
                                                 20275M 22882  22889  22978M
 SEGCDONE      2 0000220A 00000001     H   21541 21494B
 SEGCLR        1 00000000 00000008     T   12510 12510
 SEGCOL        1 00000000 00000020     T   18344 18344  22704
 SEGCORE       2 00001FF0 00000001     H   20763 20759
 SEGCORE       1 00000000 0000001A     T   18325 18325  20714
 SEGDC         1 00000000 0000001D     T   18337 18337  20706
 SEGHX         1 00000000 0000001C     T   18332 18332  20704  22699
 SEGLOC        2 00002290 00000001     H   21719 13549B 13785B 17518B 17550B 18881B 20002B 20636B 21284B 21692B 21715
 SEGMARK       1 00000000 00000022     T   20716 20716  22705
 SEGPSW        2 00002246 00000001     H   21646 21642
 SEGT          1 00000000 00000019     T   18324 18324  22706
 SEGTB         1 00000000 00000016     T   18320 18320
 SEGTRTBL     16 0000261A 00000001     X   23026 22955
 SEGWR         1 00000000 00000009     T   12511 12511  18323  20711  22698
 SESSERR       1 00000000 00000004     T   12502 12502
 SHUTDOWN      2 0000034A 00000001     I   11971 11968  12506
 SINTFREE      1 00000000 0000000B     T   12514 12514
 SIRBEND       4 000000E8 FFFFFFE5     F    4805  4867
1MUD      (MUD2047) (12:36) (15MAR04) Ordinary Symbol and Literal Cross Reference                                           Page   89
 SOFTERR       1 00001B36 00000001     R   19385 19103
 SOFTMSG      14 00001B37 00000001     C   19386 19385
 SPR          13 0000000D 00000001 A   #    1108 10817  10820  10836M 10838  10838  10839  10839  10840  11065M 11065
                                                 11068  11070  11072  11072  11175M 11176M 11177  11177  11782M 11783M
                                                 11784  11784  11842M 11843M 11844  11844  11989M 11990M 11991  11991
                                                 12589  12592  12609M 12611  12611  12612  12612  12613  12812M 12814
                                                 12814  12815  12815  12816  12844M 12844  12847  12847  12977  12978M
                                                 12980  12980  12981  12981  13021M 13021  13023  13025  13025  15237M
                                                 15239  15239  15240  15240  15241  15269M 15269  15272  15272  15385M
                                                 15387  15387  15388  15388  15389  15416M 15416  15419  15419  17451M
                                                 17453  17453  17454  17454  17455  17483M 17483  17486  17486  18270M
                                                 18270  18274  18276  18278  18278  18435  18438  18454M 18456  18456
                                                 18457  18457  18458  18580M 18580  18583  18585  18587  18587  18606
                                                 18609  18625M 18627  18627  18628  18628  18629  18764M 18764  18767
                                                 18769  18771  18771  18835  18838  18854M 18856  18856  18857  18857
                                                 18858  19329M 19329  19332  19334  19336  19336  19426  19429  19446M
                                                 19448  19448  19449  19449  19450  20385M 20385  20389  20391  20393
                                                 20393  20462  20465  20481M 20483  20483  20484  20484  20485  20685M
                                                 20685  20688  20690  20692  20692  20767  20770  20786M 20788  20788
                                                 20789  20789  20790  20816  20817M 20819  20819  20820  20820  21557M
                                                 21557  21559  21561  21561  21577M 21577  21580  21582  21584  21584
                                                 21650  21653  21669M 21671  21671  21672  21672  21673  21703M 21703
                                                 21706  21708  21710  21710  21724  21727  21744M 21746  21746  21747
                                                 21747  21748  22079M 22079  22083  22085  22087  22087  22122  22125
                                                 22141M 22143  22143  22144  22144  22145  22190M 22192  22192  22193
                                                 22193  22194  22317M 22317  22320  22320  22336M 22336  22339  22341
                                                 22343  22343  22361  22364  22380M 22382  22382  22383  22383  22384
                                                 22680M 22680  22683  22685  22687  22687  22742  22745  22761M 22763
                                                 22763  22764  22764  22765  22999M 22999  23002  23004  23006  23006
                                                 23054  23057  23073M 23075  23075  23076  23076  23077  23097M 23097
                                                 23100  23102  23104  23104  23120  23123  23139M 23141  23141  23142
                                                 23142  23143  23163M 23163  23166  23168  23170  23170
 SRBEND        4 0000002C FFFFFFE3     F    5140  5141
 SRBSECT       1 00000000 FFFFFFE3     J    5073  5141
 STAEOK        4 00000238 00000001     I   11668 11363B 11394B 11460B 11532B 11653B
 STAERTRY      2 000002CA 00000001     I   11823 11695  11723
 STAESTK    4096 00002918 00000001     X   23390 12497  12516
 STAETERM      2 00000298 00000001     I   11763 11236B 11275B 11293B 11663B
 STK          76 00000000 FFFFFFC8     J   10730 19527U 19682U 19730U 20721
 STKNSP        4 00000048 FFFFFFC8     A   10717 10720  10721  19531  19686
 STKRS         1 00000048 FFFFFFC8     X   10720 19741
 STKWA         1 0000004C FFFFFFC8     U   10723 19743
 SUB         132 00000000 FFFFFFCD     J    9496 11496U 11511  11527  14940U 14977  16095  16103U 16229  16439
 SUBDIE        1 00000000 0000000C     T   12515 12515
 SUBERR        1 00000000 00000005     T   12503 12503
 SUBFLAG       1 00000020 FFFFFFCD     R    9400  9404
 SUBLINK       4 00000008 FFFFFFCD     F    9393 16095  16116
 SUBNAME       8 00000010 FFFFFFCD     C    9396  9420   9420  15029  15034  16133M 16133  16202  16207
 SUBP          4 00000048 FFFFFFCD     F    9426  9485
 SUBPATHX      4 00000048 FFFFFFCD     F    9425  9486   9486
 SUBSFLAG      1 00000080 FFFFFFCD     X    9488  9449  15055  15087  15124  15161  16266  16298  16335  16372
 SVRBEND       4 00000110 FFFFFFE5     F    4814  4871
 SYMBOL       16 00000000 FFFFFFC7     J   10773 10965U 10986  10996  10996M 10997  10997  10998  10998M 15668U 22226U
                                                 22450U 23412
 SYMBOLS       4 00003918 00000001     F   23393 11084  18343  22708
 SYMFCSCT    128 00000000 FFFFFFC7        10758 15775  22505
 SYMFEND     255 00000000 FFFFFFC7        10753 11019  15685  22244  22286  22476
 SYMFLGS       1 00000000 FFFFFFC7     R   10744 10753  10758
 SYMLEN        2 00000002 FFFFFFC7     H   10762 22597  22640
1MUD      (MUD2047) (12:36) (15MAR04) Ordinary Symbol and Literal Cross Reference                                           Page   90
 SYMLOC        4 00000004 FFFFFFC7     A   10763 10986  10986  15695  15808  22310  22490  22584  22627
 SYMNAME       8 00000008 FFFFFFC7     C   10764 15750  15755  15831  22261  22604  22647
 SYMNEXT       1 00000010 FFFFFFC7     U   10766 10986  10996  10997M 10998  11004  15966  22270  22534
 SYSPRINT      4 000028AC 00000001     F   23320 12733  18209  18318  23017
 S99NOMNT      1 00000020 FFFFFFE0 A   U    6132 23179  23197
 S99VRBAL      1 00000001 FFFFFFE0 A   U    6116 23178
 S99VRBUN      1 00000002 FFFFFFE0 A   U    6117 23196
 TCB           1 00000020 FFFFFFE7     U    3411  4110  13342U
 TCBAE         4 000000BC FFFFFFE7     A    3655  3658
 TCBDARPN      1 00000040 FFFFFFE7 A   U    3701  3703
 TCBDARTN      1 00000080 FFFFFFE7 A   U    3698  3700
 TCBFIX        1 00000000 FFFFFFE7     J    3399  3406
 TCBMNLEN      1 00000158 FFFFFFE7 A   U    4110  4155
 TCBPXLEN      1 00000020 FFFFFFE7 A   U    3406  4155
 TCBRBP        4 00000020 FFFFFFE7     A    3413 13344
 TCBRD         4 000000B8 FFFFFFE7     A    3650  3654
 TCBXTNT2      1 00000000 FFFFFFE6     J    4115  4153
 TCBX2LEN      1 00000020 FFFFFFE6 A   U    4153  4155
 TIRBEND       4 000000A8 FFFFFFE5     F    4743  4868
 TQE          28 00000000 FFFFFFCE     J    9372 17362  17378U 17647
 TQECLCK       8 0000000C FFFFFFCE     X    9363 17448
 TQELINK       4 00000004 FFFFFFCE     A    9361 17362  17392
 TQEPARM       4 00000018 FFFFFFCE     A    9365 17538  17551  17592
 TQERTN        4 00000014 FFFFFFCE     A    9364 17506
 UPPTBL        1 00000000 00000000 A   T    9146  9146
 USEHSPFL      1 00000004 FFFFFFE9     X    3114 12087M
 USEMASCB      4 0000004C FFFFFFE9     A    3159 12131M 12131
 USEMGINP      4 00000050 FFFFFFE9     A    3160 12136M 12136
 USEMILCT      2 0000000C FFFFFFE9     H    3140 12124M 12124
 USEMILNM      8 0000006C FFFFFFE9     C    3167 12100  12113M 12113
 USEMNSIN      4 00000058 FFFFFFE9     A    3162 12146M 12146
 USEMSITP      4 00000054 FFFFFFE9     A    3161 12141M 12141
 USERCVT     863 00000000 FFFFFFE9     J    3186 12049U 12064
 VIRTDIE       1 00000000 00000010     T   12547 12547
 VIRTERR       1 00000000 0000000D     T   12534 12534
 VIRTFMT       1 00000000 00000013     T   18290 18290
 VRADAT        1 00000002 FFFFFFD1     G    8129  8133
 VRAKL         2 00000000 FFFFFFD1     G    8121  8133
 =A(ABENDCD)
               4 00001F4C 00000001     A   20709 18720
 =A(ALLOSYSP)
               4 000015EC 00000001     A   18317 12711
 =A(DISPINST)
               4 00001614 00000001     A   18327 12996  13031
 =A(DISPPSW)
               4 00001620 00000001     A   18330 13236
 =A(DISPPSW)
               4 00001F50 00000001     A   20710 18746
 =A(DISPSTK)
               4 00001674 00000001     A   18339 13982
 =A(FEBTMAX)
               4 000004D4 00000001     A   12504 11618  12236
 =A(FEBTMAX)
               4 000016AC 00000001     A   18347 16522
 =A(FMTDUMP)
               4 000004C4 00000001     A   12500 11252
 =A(FREESYSP)
               4 000015E8 00000001     A   18316 12707  18243
 =A(L'CVMFINFO)
1MUD      (MUD2047) (12:36) (15MAR04) Ordinary Symbol and Literal Cross Reference                                           Page   91
               4 00001618 00000001     A   18328 13044  13056
 =A(L'PRTSGBUF)
               4 000016C0 00000001     A   18350 17864
 =A(PRTSG)
               4 000015E0 00000001     A   18314 12692
 =A(SHUTDOWN)
               4 000004DC 00000001     A   12506 11804
 =A(STAESTK)
               4 000004B8 00000001     A   12497 11175
 =A(SYMBOLS)
               4 000000D8 00000001     A   11084 10929
 =A(SYMBOLS)
               4 00001694 00000001     A   18343 15652
 =A(SYMBOLS)
               4 00002538 00000001     A   22708 22216  22422
 =A(SYSPRINT)
               4 000015F0 00000001     A   18318 12713  18188
 =A(SYSPRINT)
               4 00002608 00000001     A   23017 22818
 =A(X'F')      4 00001F64 00000001     A   20715 20027
 =A(X'FFF')
               4 00001F3C 00000001     A   20705 18546
 =A(X'FFFFFC')
               4 00001F58 00000001     A   20712 19532  19687
 =A(X'FFF000')
               4 000004BC 00000001     A   12498 11216
 =A(X'FFF000')
               4 00001F30 00000001     A   20702 18466
 =A(X'122000')
               4 000004C0 00000001     A   12499 11227
 =A(12)        4 000004B0 00000001     A   12495 11122
 =A(8)         4 00002534 00000001     A   22707 22179
 =A(9)         4 00001F5C 00000001     A   20713 19858
 =AL2(CVBUFLEN)
               2 00001792 00000001     R   18379 17984  18025
 =AL2(L'STK)
               2 00001F74 00000001     R   20721 19475
 =AL3(BADCRS)
               3 00002558 00000001     R   22719 21617
 =AL3(DINSRES)
               3 00001FAE 00000001     R   20731 18804
 =AL3(DPSWEXIT)
               3 00001FB1 00000001     R   20732 19369
 =AL3(DSTKBAD)
               3 00001FE5 00000001     R   20740 20426
 =AL4(4)       4 000004E0 00000001     R   12507 11865
 =AL4(80)      4 00002520 00000001     R   22702 20939  21055  21109  21230  21393
 =C'       Regs:  '
              14 00001706 00000001     C   18361 13820
 =C'  **INVALID**'
              13 000017E1 00000001     C   18388 14074  14236  14506  14987
 =C'  --> ECB='
              10 0000177A 00000001     C   18375 17246
 =C'  Current port:'
              15 000017F1 00000001     C   18390 14256
 =C'  Current Front-end:'
              20 00001678 00000001     C   18340 14094
 =C'  CURRENT SESSION:'
              18 00001716 00000001     C   18363 14525
1MUD      (MUD2047) (12:36) (15MAR04) Ordinary Symbol and Literal Cross Reference                                           Page   92
 =C'  ECB list...'
              13 00001854 00000001     C   18409 17199
 =C'  REGS:'
               7 00001FC4 00000001     C   20737 20054
 =C'  WA:'
               5 00001FCB 00000001     C   20738 20234
 =C' ('        2 00001752 00000001     C   18369 15328
 =C' ('        2 00002544 00000001     C   22713 21812  21953
 =C' (STOPPING)'
              11 00001822 00000001     C   18403 15543
 =C' (0'       3 00001FC0 00000001     C   20735 19868
 =C' default):'
              10 00001770 00000001     C   18374 16082
 =C' entries):'
              10 00001786 00000001     C   18377 17766
 =C' users logged on'
              16 000015C8 00000001     C   18312 15295
 =C' AT'       3 00001FAB 00000001     C   20730 18731
 =C' FAILSOFTS,'
              11 000017CE 00000001     C   18385 13940
 =C' I/O''S'
               6 00001768 00000001     C   18372 15605
 =C' ID'       3 00001808 00000001     C   18397 14871
 =C' MAX AT'
               7 0000181A 00000001     C   18401 15362
 =C' NUMBER,'
               8 000015B8 00000001     C   18310 14836
 =C' PSW-IA AT '
              11 000017B8 00000001     C   18383 13521
 =C' TOTAL'
               6 00001762 00000001     C   18371 15512
 =C' VIRTUAL JOBS,'
              14 00001754 00000001     C   18370 15477
 =C'.'         1 00001805 00000001     C   18394 14613  16895
 =C'('         1 00001800 00000001     C   18391 14297
 =C'+0'        2 00002546 00000001     C   22714 21870  22011
 =C'****  No Reserve Core -- Low In Memory  ****'
              44 00001648 00000001     C   18338 13900
 =C'**INVALID**'
              11 0000183B 00000001     C   18406 16240  17118  17658
 =C'*'         1 0000254C 00000001     C   22717 21085  21189  21369  21473
 =C')'         1 00001801 00000001     C   18392 14331  15423
 =C')'         1 00001FC3 00000001     C   20736 19902
 =C')'         1 0000255B 00000001     C   22720 21907  22048
 =C'------'
               6 00001728 00000001     C   18364 14558  16840
 =C'--'        2 00001F70 00000001     C   20719 19037
 =C'/'         1 0000183A 00000001     C   18405 16040  17572
 =C', '        2 00001702 00000001     C   18359 13553  13619
 =C', '        2 00001FA2 00000001     C   20726 20639
 =C', ENTRY AT '
              11 000017C3 00000001     C   18384 13751
 =C', NEXT ENTRY WOULD BE'
              21 00001FD0 00000001     C   20739 20315
 =C', PARM='
               7 00001861 00000001     C   18410 17522
 =C','         1 00001821 00000001     C   18402 15443
 =C':'         1 00001FB4 00000001     C   20733 19483
 =C'#'         1 00001806 00000001     C   18395 14670  16952
1MUD      (MUD2047) (12:36) (15MAR04) Ordinary Symbol and Literal Cross Reference                                           Page   93
 =C'='         1 00001FE9 00000001     C   20742 20608
 =C'Abending!'
               9 0000052E 00000001     C   12522 12347
 =C'Active RB''s:'
              12 00001624 00000001     C   18331 13297
 =C'ABEND'
               5 00001FA6 00000001     C   20729 18705
 =C'BAD ADDRESS'
              11 0000254D 00000001     C   22718 21521
 =C'Ciao!'
               5 0000189A 00000001     C   18417 18175
 =C'CLOSING'
               7 00001813 00000001     C   18400 15172  16383
 =C'CURRENT SUBSYSTEM:'
              18 00001730 00000001     C   18366 15007
 =C'CV:'       3 0000187B 00000001     C   18414 17916
 =C'CV'        2 0000176E 00000001     C   18373 15844
 =C'Dump of Stack:'
              14 00001794 00000001     C   18380 18135
 =C'Dump of'
               7 000017A2 00000001     C   18381 12768
 =C'Dump Of Sessions:'
              17 00001889 00000001     C   18416 18043
 =C'Empty Stack'
              11 00001FB5 00000001     C   20734 19626
 =C'Ending normally.'
              16 000004A0 00000001     C   12494 12328
 =C'Failsoft recovery successful.'
              29 00000511 00000001     C   12521 11924
 =C'FAIL'      4 00001F44 00000001     C   20707 18674  19284
 =C'FEB'       3 0000050E 00000001     C   12520 11583
 =C'FEB'       3 000017DE 00000001     C   18387 14064
 =C'IRB '      4 00001638 00000001     C   18334 13466
 =C'LAST RB PSW AT '
              15 000017A9 00000001     C   18382 13214
 =C'Milten failure buffer:'
              22 000016D4 00000001     C   18354 12925  12934
 =C'MAIN'      4 0000169C 00000001     C   18345 15831
 =C'NEW-INFO'
               8 000015C0 00000001     C   18311 15135  16346
 =C'OPENED'
               6 00001742 00000001     C   18367 15098  16309
 =C'PDB Buffer:'
              11 0000187E 00000001     C   18415 17961
 =C'PIB'       3 000017EE 00000001     C   18389 14226
 =C'POST:'
               5 0000180E 00000001     C   18399 15065  16276
 =C'PRB '      4 00001634 00000001     C   18333 13445
 =C'PROC:  RETURN='
              14 00001F86 00000001     C   20724 19972
 =C'PUSH:  LENGTH='
              14 00001F78 00000001     C   20723 19816
 =C'R'         1 00001FE8 00000001     C   20741 20574
 =C'Registers:'
              10 000016EC 00000001     C   18356 13126
 =C'RB REGS:  '
              10 000016F8 00000001     C   18358 13263
 =C'ROUTINE='
               8 000015D8 00000001     C   18313 17490
1MUD      (MUD2047) (12:36) (15MAR04) Ordinary Symbol and Literal Cross Reference                                           Page   94
 =C'S'         1 00001FA4 00000001     C   20727 18481
 =C'Sessions:'
               9 0000184B 00000001     C   18408 16729
 =C'Stack'
               5 000017D9 00000001     C   18386 13957
 =C'Started at'
              10 00001748 00000001     C   18368 15211
 =C'Symbol Table:'
              13 0000182D 00000001     C   18404 15638
 =C'SCB'       3 00000508 00000001     C   12518 11340  11440
 =C'SCB'       3 00001802 00000001     C   18393 14496  17107
 =C'SCIP'      4 000004F8 00000001     C   12513 12064
 =C'SDWA:'
               5 00001876 00000001     C   18413 17871
 =C'SESSION:'
               8 000015B0 00000001     C   18309 14364
 =C'STACK ERROR AT'
              14 00001F94 00000001     C   20725 20280
 =C'SUB'       3 0000050B 00000001     C   12519 11511
 =C'SUB'       3 0000180B 00000001     C   18398 14977  16229
 =C'SUBSYSTEMS ('
              12 000016A0 00000001     C   18346 15982
 =C'SVC '      4 00001640 00000001     C   18336 13584
 =C'SVRB'      4 0000163C 00000001     C   18335 13491
 =C'Timer Queue:'
              12 000016B0 00000001     C   18348 17348
 =C'TQE'       3 00001868 00000001     C   18411 17647
 =C'TYPE='
               5 00001846 00000001     C   18407 16648
 =C'U'         1 00001FA5 00000001     C   20728 18534
 =C'Work Buffer:'
              12 000016C4 00000001     C   18351 18002
 =C'WTO queue ('
              11 0000186B 00000001     C   18412 17731
 =CL8'SYSPRINT'
               8 000000D0 00000001     C   11083 10853
 =F'-4'        4 00002518 00000001     F   22700 20883
 =F'4'         4 000004E4 00000001     F   12508 11872
 =F'79'        4 000015E4 00000001     F   18315 12703
 =H'-1'        2 000016F6 00000001     H   18357 13165  13275  13832
 =H'-1'        2 0000254A 00000001     H   22716 22293
 =H'137'       2 000016D0 00000001     H   18352 12728
 =H'2'         2 00001704 00000001     H   18360 13597
 =H'4'         2 00001790 00000001     H   18378 17826
 =H'4'         2 00001F76 00000001     H   20722 19720  19984
 =H'4'         2 00002540 00000001     H   22711 21009  21305
 =H'4096'      2 00001714 00000001     H   18362 13979  18158
 =V(COREFMT)
               4 00001690 00000001     V   18342 15625
 =V(CV)        4 000004B4 00000001     V   12496 11161  11775  11835
 =V(DISPATCH)
               4 000004F4 00000001     V   12512 11949
 =V(DOM)       4 000004E8 00000001     V   12509 11905
 =V(FMTCLCK)
               4 00001600 00000001     V   18322 12819
 =V(FMTRCLCK)
               4 0000168C 00000001     V   18341 15244  15392
 =V(FMTTIME)
               4 000016BC 00000001     V   18349 17458
1MUD      (MUD2047) (12:36) (15MAR04) Ordinary Symbol and Literal Cross Reference                                           Page   95
 =V(KEYNZERO)
               4 000004D8 00000001     V   12505 11795  11900
 =V(LOCALTOD)
               4 000015FC 00000001     V   18321 12808  13036  15225
 =V(MCOMFAIL)
               4 000004C8 00000001     V   12501 11392
 =V(SEG)       4 0000161C 00000001     V   18329 13163  13224  13273  13516  13531  13563  13594  13629  13761  13830
                                                 13967  14084  14246  14307  14516  14535  14608  14623  14648  14680
                                                 14741  14782  14997  15305  15338  15413  15433  15553  15738  15992
                                                 16050  16190  16617  16658  16817  16890  16905  16930  16962  17023
                                                 17064  17256  17446  17500  17532  17582  17741  17823
 =V(SEG)       4 00001F34 00000001     V   20703 18491  18544  18684  19309  19797  19826  19878  19912  19982  20558
                                                 20584  20618
 =V(SEG)       4 0000251C 00000001     V   22701 20924  21095  21139  21180  21199  21379  21423  21464  21483  21531
                                                 21822  21880  21917  21963  22021  22058
 =V(SEGB)      4 000015F4 00000001     V   18319 12778  13441  13950  14104  14266  14341  14374  14568  14808  14846
                                                 14881  15017  15075  15108  15145  15182  15221  15372  15453  15487
                                                 15522  15615  16250  16286  16319  16356  16393  16850  17090  17128
                                                 17480  17634  17668
 =V(SEGB)      4 00001F48 00000001     V   20708 18715  18741  19013  19047  19169  19212  20064  20290  20325
 =V(SEGB)      4 00002524 00000001     V   22703 20999
 =V(SEGCLR)
               4 000004EC 00000001     V   12510 11918  12324
 =V(SEGCOL)
               4 00001698 00000001     V   18344 15797
 =V(SEGCOL)
               4 00002528 00000001     V   22704 21080  21263  21353
 =V(SEGCORE)
               4 0000160C 00000001     V   18325 12971  16448  17908  17953  17994  18035  18117  18167
 =V(SEGCORE)
               4 00001F60 00000001     V   20714 19961  20267
 =V(SEGDC)
               4 00001644 00000001     V   18337 13614  13934  14325  14705  14830  14865  15290  15356  15471  15506
                                                 15599  16987  17760
 =V(SEGDC)
               4 00001F40 00000001     V   20706 18564  19845  20603
 =V(SEGHX)
               4 00001630 00000001     V   18332 13419  14051  14213  14396  14483  14964  15711  16072  16163  16590
                                                 16685  16790  17193  17241  17278  17419
 =V(SEGHX)
               4 00001F38 00000001     V   20704 18514  19147  19190  19233  19770  19897  20309  20344
 =V(SEGHX)
               4 00002514 00000001     V   22699 20881  20977  21789  21898  22039
 =V(SEGMARK)
               4 00001F68 00000001     V   20716 20569
 =V(SEGMARK)
               4 0000252C 00000001     V   22705 21294  21364
 =V(SEGT)      4 00001608 00000001     V   18324 12891  13746  14767  15764  15938  16018  17049  17608
 =V(SEGT)      4 00002530 00000001     V   22706 21848  21989
 =V(SEGTB)
               4 000015F8 00000001     V   18320 12804  14130  14292  15043  16216  16643
 =V(SEGWR)
               4 000004F0 00000001     V   12511 11936  12375
 =V(SEGWR)
               4 00001604 00000001     V   18323 12841  12917  12944  13018  13120  13136  13190  13258  13307  13815
                                                 13856  13910  14152  14422  14903  15266  15579  15648  15964  16092
                                                 16423  16707  16739  17154  17209  17300  17358  17694  17776  17850
                                                 17881  17926  17971  18012  18053  18145  18185
 =V(SEGWR)
1MUD      (MUD2047) (12:36) (15MAR04) Ordinary Symbol and Literal Cross Reference                                           Page   96
               4 00001F54 00000001     V   20711 19085  19493  19636  19938  20023  20244  20366  20672
 =V(SEGWR)
               4 00002510 00000001     V   22698 20858  21516  21554
 =V(SESSERR)
               4 000004CC 00000001     V   12502 11458
 =V(SINTFREE)
               4 000004FC 00000001     V   12514 12171
 =V(SUBDIE)
               4 00000500 00000001     V   12515 12176
 =V(SUBERR)
               4 000004D0 00000001     V   12503 11530
 =X'FEDC'      2 00001F6E 00000001     X   20718 18665  18914
 =X'407F'      2 0000172E 00000001     X   18365 14731  17013
 =X'7F'        1 00001807 00000001     X   18396 14772  17054
 =X'80000000'
               4 00001610 00000001     X   18326 12983
 =XL8'00'      8 000015A8 00000001     X   18308 13713
 =Y(L'STAESTK-@@)
               2 00000504 00000001     Y   12516 11176
 =Y(0+((11+3)/4*4)+4)
               2 00001784 00000001     Y   18376 17451
 =Y(0+((30+3)/4*4)+4)
               2 000016D2 00000001     Y   18353 12812  15237  15385
 =Y(0+((8+3)/4*4)+4)
               2 00002548 00000001     Y   22715 22190
 =Y(0+4+4)
               2 000016EA 00000001     Y   18355 12978
 =Y(0+4+4)
               2 0000253E 00000001     Y   22710 20817
 =Y(0+4+40+((L'DSTKWA+3)/4*4)+4)
               2 00001F72 00000001     Y   20720 19446
 =Y(0+4+40+((L'FMTWA+3)/4*4)+4)
               2 000005A8 00000001     Y   12637 12609
 =Y(0+4+40+((L'LOC+3)/4*4)+4)
               2 00002542 00000001     Y   22712 21744
 =Y(0+4+40+4)
               2 000000DC 00000001     Y   11085 10836
 =Y(0+4+40+4)
               2 00001F6C 00000001     Y   20717 18454  18625  18854  20481
 =Y(0+4+40+4)
               2 0000253C 00000001     Y   22709 20786  21669  22141  22380
 =Y(0+4+40+4)
               2 0000260C 00000001     Y   23018 22761
 =Y(0+4+40+4)
               2 000027E8 00000001     Y   23215 23073  23139
 =Y(4096-@@)
               2 00000506 00000001     Y   12517 11783  11843  11990

1MUD      (MUD2047) (12:36) (15MAR04) Macro and Copy Code Source Summary                                                    Page   97
- Con Source                                        Volume    Members                        HLASM R4.0  2004/03/15 12.36
0     PRIMARY INPUT                                           CSECT    DROP     END      EX       LTORG    POP
                                                              PRINT    PUSH     SEGLOC   SEGPSW   START    SYMBOLS
                                                              USING
   L1 WYL.GS.MIL.MILTEN.MACLIB                      SYSB05    CV       FEB      PEND     PIB      POP      PROC     PUSH
                                                              REG      SCANCB   SCB      SEGCORE  STKDEF   STKINIT
                                                              STKRCD   SUB      TQE      XPROC
   L2 WYL.GG.SYS.MACLIB                             SYSB05    $BC      $BFLKUP  $BV      $CCLKUP  $CRS     $CSS     $L
                                                              $LA      $LBLAD   $LEXP    $LOR     $REL     $RGLKUP
                                                              $USLKUP  ACALL    BASE     BEGIN    CEIL     CLEAR    CMPR
                                                              CSECT    DATA     DECR     DEFCC    DEX      DROP     DTEX
                                                              ELSE     ELSEIF   END      EX       EXIT     FLAG     FLIP
                                                              GEN      HIBAL    IDENT    IF       INCR     LABEL    LC
                                                              LCALL    LCM      LOOP     LS       LT       LTORG    L2
                                                              L3       MOVE     PRINT    QLTORG   RECORD   REGS     SET
                                                              SETMSG   START    ST3      UNTIL    USING    VCALL
                                                              WHILE    WITH
   L3 SYS3.IS.MACLIB                                SYSB05    DEFINE   MIB      SEG      SEGB     SEGCB    SEGCLR
                                                              SEGCOL   SEGDC    SEGDEF   SEGHX    SEGLD    SEGMARK  SEGT
                                                              SEGTB    SEGWR    SIB      SYSDEFN
   L4 SYS3.MACLIB                                   SYSB02    PATH     QSNAP    SCIPCVT  USERCVT
   L5 SYS1.MACLIB                                   MVSBR9    ABEND    CLOSE    CVT      DCB      DCBD     DETACH
                                                              DEVTYPE  DYNALLOC ESPIE    ESTAE    FREEPOOL IEFSJDKY
                                                              IEFZB4D0 IEFZB4D2 IHAEPIE  IHARB    IHASDWA  IHASRB
                                                              IHAVRA   IHBINNRA IHBINNRR IHB01    IKJTCB   MODESET  OPEN
                                                              PUT      SETRP    SPLEVEL  SYSSTATE TTIMER
   L6 SYS1.MODGEN                                   MVSBR9    IECDIOSB IEZBITS  IHACDE   IKJRB

1MUD      (MUD2047) (12:36) (15MAR04) Dsect Cross Reference                                                                 Page   98
-Dsect     Length      Id       Defn                                                         HLASM R4.0  2004/03/15 12.36
0$$$@R0   00000000  FFFFFFFE     712
 $$$@R1   00000000  FFFFFFFD     725
 $$$@R10  00000000  FFFFFFF4     842
 $$$@R11  00000000  FFFFFFF3     855
 $$$@R12  00000000  FFFFFFF2     868
 $$$@R13  0000004C  FFFFFFF1     881
 $$$@R14  00000000  FFFFFFF0     894
 $$$@R15  00000000  FFFFFFEF     907
 $$$@R2   00000000  FFFFFFFC     738
 $$$@R3   00000000  FFFFFFFB     751
 $$$@R4   00000000  FFFFFFFA     764
 $$$@R5   00000000  FFFFFFF9     777
 $$$@R6   00000000  FFFFFFF8     790
 $$$@R7   00000000  FFFFFFF7     803
 $$$@R8   00000000  FFFFFFF6     816
 $$$@R9   00000000  FFFFFFF5     829
 $$$RDSTKWA
          00000050  FFFFFFC4   19390
 $$$RFEB  000000B8  FFFFFFCC    9502
 $$$RFMTWA
          00000004  FFFFFFC5   12557
 $$$RLOC  00000018  FFFFFFC6   10779
 $$$RPATHD
          00000028  FFFFFFE8    3192
 $$$RPIB  000000A0  FFFFFFCB    9631
 $$$RSCB  000001B2  FFFFFFCA    9836
 $$$RSEGCB
          0000003C  FFFFFFC9   10601
 $$$RSTK  0000004C  FFFFFFC8   10710
 $$$RSUB  00000084  FFFFFFCD    9383
 $$$RSYMBOL
          00000010  FFFFFFC7   10736
 $$$RTQE  0000001C  FFFFFFCE    9354
 $$$RUSERCVT
          0000035F  FFFFFFE9    3103
 CDENTRY  00000020  FFFFFFE4    4879
 CVDSECT  00000778  FFFFFFCF    8885
 CVT      00000500  FFFFFFED    1964
 CVTVSTGX 00000050  FFFFFFEC    2984
 CVTXTNT1 0000000C  FFFFFFEB    3023
 CVTXTNT2 00000084  FFFFFFEA    3031
 EPIE     00000120  FFFFFFD0    8788
 HIBAL    00000000  FFFFFFFF     698
 IHADCB   00000060  FFFFFFEE    1207
 IOSB     0000006C  FFFFFFE2    5374
 RBPRFX   00000110  FFFFFFE5    4307
 SDWA     00000298  FFFFFFDA    6977
 SDWANRC1 000000F0  FFFFFFD4    7945
 SDWANRC2 00000010  FFFFFFD3    7954
 SDWANRC3 000000F0  FFFFFFD2    7967
 SDWAPTRS 00000020  FFFFFFD5    7930
 SDWARC1  000001C8  FFFFFFD9    7618
 SDWARC2  00000010  FFFFFFD8    7837
 SDWARC3  00000020  FFFFFFD7    7849
 SDWARC4  00000150  FFFFFFD6    7899
1MUD      (MUD2047) (12:36) (15MAR04) Dsect Cross Reference                                                                 Page   99
 SRBSECT  0000002C  FFFFFFE3    5073
 SVC99KYS 00000000  FFFFFFDB    6476
 S99RB    00000014  FFFFFFE0    6112
 S99RBP   00000004  FFFFFFE1    6109
 S99RBX   00000024  FFFFFFDC    6245
 S99TUFLD 00000003  FFFFFFDD    6239
 S99TUNIT 00000007  FFFFFFDE    6230
 S99TUPL  00000004  FFFFFFDF    6224
 TCBFIX   00000178  FFFFFFE7    3399
 TCBXTNT2 00000020  FFFFFFE6    4115
 VRAMAP   00000002  FFFFFFD1    8120

1MUD      (MUD2047) (12:36) (15MAR04) Using Map                                                                             Page  100
-                                                                                            HLASM R4.0  2004/03/15 12.36
   Stmt  -----Location----- Action ----------------Using----------------- Reg Max    Last  Label and Using Text
           Count      Id           Type          Value    Range     Id        Disp   Stmt
0   929  00000000  FFFFFFFF USING  ORDINARY    00000000 00001000 FFFFFFEF  15 000    9334  @R15,15
    933  00000000  FFFFFFFF USING  ORDINARY    00000000 00001000 FFFFFFF0  14 000          @R14,14
    937  00000000  FFFFFFFF USING  ORDINARY    00000000 00001000 FFFFFFF1  13 000   10854  @R13,13
    941  00000000  FFFFFFFF USING  ORDINARY    00000000 00001000 FFFFFFF2  12 000          @R12,12
    945  00000000  FFFFFFFF USING  ORDINARY    00000000 00001000 FFFFFFF3  11 000          @R11,11
    949  00000000  FFFFFFFF USING  ORDINARY    00000000 00001000 FFFFFFF4  10 000          @R10,10
    953  00000000  FFFFFFFF USING  ORDINARY    00000000 00001000 FFFFFFF5   9 000          @R9,9
    957  00000000  FFFFFFFF USING  ORDINARY    00000000 00001000 FFFFFFF6   8 000          @R8,8
    961  00000000  FFFFFFFF USING  ORDINARY    00000000 00001000 FFFFFFF7   7 003   19266  @R7,7
    965  00000000  FFFFFFFF USING  ORDINARY    00000000 00001000 FFFFFFF8   6 000          @R6,6
    969  00000000  FFFFFFFF USING  ORDINARY    00000000 00001000 FFFFFFF9   5 000          @R5,5
    973  00000000  FFFFFFFF USING  ORDINARY    00000000 00001000 FFFFFFFA   4 000          @R4,4
    977  00000000  FFFFFFFF USING  ORDINARY    00000000 00001000 FFFFFFFB   3 052   22854  @R3,3
    981  00000000  FFFFFFFF USING  ORDINARY    00000000 00001000 FFFFFFFC   2 000          @R2,2
    985  00000000  FFFFFFFF USING  ORDINARY    00000000 00001000 FFFFFFFD   1 00C    9332  @R1,1
    989  00000000  FFFFFFFF USING  ORDINARY    00000000 00001000 FFFFFFFE   0 000          @R0,0
    990  00000000  FFFFFFFF DROP                                            0              0
   8898  00000000  FFFFFFCF USING  ORDINARY    00000000 00001000 FFFFFFCF  12 764   22405  CV,CVR
  10832  00000020  00000001 USING  ORDINARY    00000020 00001000 00000001   8 0BC   11044  $$$28B,BR
  10965  00000084  00000001 USING  ORDINARY    00000000 00001000 FFFFFFC7   5 014   11019  SYMBOL,R5
  11053  000000B6  00000001 USING  ORDINARY    00000000 00001000 FFFFFFF9   5 000          @R5,5
  11061  000000B6  00000001 USING  ORDINARY    00000000 00001000 FFFFFFF6   8 000          @R8,8
  11105  000000DE  00000001 USING  ORDINARY    000000DE 00001000 00000001  15 3D2   11123  ESTAE,R15
  11144  000000EA  00000001 USING  ORDINARY    00000000 00001000 FFFFFFEF  15 004   15929  @R15,15
  11159  000000EC  00000001 USING  ORDINARY    000000EC 00001000 00000001   8 44C   11738  $$$41B,8
  11170  000000F2  00000001 USING  ORDINARY    00000000 00001000 FFFFFFDA   6 0EB   11715  SDWA,R6
  11325  00000178  00000001 USING  ORDINARY    00000000 00001000 FFFFFFCA   1 008   11355  SCB,R1
  11369  00000192  00000001 USING  ORDINARY    00000000 00001000 FFFFFFFD   1 000          @R1,1
  11425  000001B0  00000001 USING  ORDINARY    00000000 00001000 FFFFFFCA   1 000   11440  SCB,R1
  11466  000001CA  00000001 USING  ORDINARY    00000000 00001000 FFFFFFFD   1 000   13087  @R1,1
  11496  000001D4  00000001 USING  ORDINARY    00000000 00001000 FFFFFFCD  10 000   11527  SUB,R10
  11538  000001F2  00000001 USING  ORDINARY    00000000 00001000 FFFFFFF4  10 000          @R10,10
  11568  000001FC  00000001 USING  ORDINARY    00000000 00001000 FFFFFFCC  10 00D   11605  FEB,R10
  11602  00000210  00000001 DROP                                           14              14
  11606  00000216  00000001 USING  ORDINARY    00000000 00001000 FFFFFFF0  14 000          @R14,14
  11659  00000234  00000001 USING  ORDINARY    00000000 00001000 FFFFFFF4  10 000          @R10,10
  11747  00000298  00000001 USING  ORDINARY    00000000 00001000 FFFFFFF8   6 000          @R6,6
  11753  00000298  00000001 USING  ORDINARY    00000000 00001000 FFFFFFF6   8 000          @R8,8
  11773  0000029A  00000001 USING  ORDINARY    0000029A 00001000 00000001   8 26C   11804  $$$61B,8
  11813  000002CA  00000001 USING  ORDINARY    00000000 00001000 FFFFFFF6   8 000          @R8,8
  11833  000002CC  00000001 USING  ORDINARY    000002CC 00001000 00000001   8 245   11949  $$$62B,8
  11958  0000034A  00000001 USING  ORDINARY    00000000 00001000 FFFFFFF6   8 000          @R8,8
  11981  0000034C  00000001 USING  ORDINARY    0000034C 00001000 00000001   8 214   12454  $$$64B,8
  12018  00000366  00000001 USING  ORDINARY    00000000 00001000 FFFFFFED   6 0CC   12024  CVT,R6
  12049  00000370  00000001 USING  ORDINARY    00000000 00001000 FFFFFFE9   5 06C   12146  USERCVT,R5
  12159  000003CA  00000001 USING  ORDINARY    00000000 00001000 FFFFFFF9   5 000          @R5,5
  12164  000003CA  00000001 USING  ORDINARY    00000000 00001000 FFFFFFF8   6 000          @R6,6
  12195  000003DA  00000001 USING  ORDINARY    00000000 00001000 FFFFFFCC  10 00D   12223  FEB,R10
  12220  000003EA  00000001 DROP                                           14              14
  12224  000003F0  00000001 USING  ORDINARY    00000000 00001000 FFFFFFF0  14 000          @R14,14
  12278  0000040A  00000001 USING  ORDINARY    00000000 00001000 FFFFFFF4  10 000          @R10,10
  12482  00000496  00000001 USING  ORDINARY    00000000 00001000 FFFFFFF6   8 000          @R8,8
  12605  00000592  00000001 USING  ORDINARY    00000592 00001000 00000001   8 FB8   18220  $$$81B,BR
1MUD      (MUD2047) (12:36) (15MAR04) Using Map                                                                             Page  101
  12624  000005A2  00000001 USING  ORDINARY    FFFFFFB4 00001000 FFFFFFC5  13 04C   17891  FMTWA-@@,R13
  12656  000005AE  00000001 USING  ORDINARY    0000154A 00001000 00000001   9 FA0   18243  FMTBASE+4000,BRR
  12670  000005B2  00000001 USING  ORDINARY    000024EA 00001000 00000001  10 000          FMTBASE+8000,BRRR
  12685  000005B4  00000001 USING  ORDINARY    00000000 00001000 FFFFFFDA   6 088   13276  SDWA,R6
  12700  000005BC  00000001 USING  ORDINARY    00000000 00001000 FFFFFFC9  11 03B   21393  SEGCB,SEGCBR
  12723  000005D2  00000001 USING  ORDINARY    00000000 00001000 FFFFFFEE   2 052   12745  DCB,R2
  12760  000005EA  00000001 USING  ORDINARY    00000000 00001000 FFFFFFFC   2 000          @R2,2
  13289  000007BE  00000001 USING  ORDINARY    00000000 00001000 FFFFFFF8   6 000          @R6,6
  13319  000007D6  00000001 USING  ORDINARY    00000000 00001000 FFFFFFED   5 000   13325  CVT,R5
  13333  000007DE  00000001 USING  ORDINARY    00000000 00001000 FFFFFFF9   5 000          @R5,5
  13342  000007DE  00000001 USING  ORDINARY    00000020 00001000 FFFFFFE7   5 000   13344  TCB,R5
  13354  000007E2  00000001 USING  ORDINARY    00000040 00001000 FFFFFFE5   4 01C   13360  RB,R4
  13367  000007E6  00000001 USING  ORDINARY    00000000 00001000 FFFFFFFA   4 000          @R4,4
  13395  000007EC  00000001 USING  ORDINARY    00000040 00001000 FFFFFFE5   4 020   13858  RB,R4
  13676  000008AE  00000001 DROP                                            2              2
  13680  000008B4  00000001 USING  ORDINARY    00000000 00001000 FFFFFFFC   2 000          @R2,2
  13698  000008B8  00000001 USING  ORDINARY    00000000 00001000 FFFFFFE4   2 011   13772  CDE,R2
  13769  000008E2  00000001 DROP                                            1              1
  13773  000008E8  00000001 USING  ORDINARY    00000000 00001000 FFFFFFFD   1 000          @R1,1
  13791  000008F0  00000001 USING  ORDINARY    00000000 00001000 FFFFFFFC   2 030   22836  @R2,2
  13865  00000928  00000001 USING  ORDINARY    00000000 00001000 FFFFFFFA   4 004   22628  @R4,4
  13876  0000092C  00000001 USING  ORDINARY    00000000 00001000 FFFFFFF9   5 004   19217  @R5,5
  14027  000009A6  00000001 USING  ORDINARY    00000000 00001000 FFFFFFCC   6 014   14116  FEB,R6
  14160  000009FC  00000001 USING  ORDINARY    00000000 00001000 FFFFFFF8   6 000          @R6,6
  14189  00000A06  00000001 USING  ORDINARY    00000000 00001000 FFFFFFCB   6 034   14352  PIB,R6
  14430  00000AB2  00000001 USING  ORDINARY    00000000 00001000 FFFFFFF8   6 000          @R6,6
  14459  00000ABC  00000001 USING  ORDINARY    00000000 00001000 FFFFFFCA   6 136   14852  SCB,R6
  14688  00000B5C  00000001 DROP                                            1              1
  14692  00000B62  00000001 USING  ORDINARY    00000000 00001000 FFFFFFFD   1 000          @R1,1
  14911  00000BFA  00000001 USING  ORDINARY    00000000 00001000 FFFFFFF8   6 000          @R6,6
  14940  00000C04  00000001 USING  ORDINARY    00000000 00001000 FFFFFFCD   6 080   15161  SUB,R6
  15197  00000CAC  00000001 USING  ORDINARY    00000000 00001000 FFFFFFF8   6 000          @R6,6
  15668  00000E48  00000001 USING  ORDINARY    00000000 00001000 FFFFFFC7   6 010   15966  SYMBOL,R6
  15972  00000EEE  00000001 USING  ORDINARY    00000000 00001000 FFFFFFF8   6 000          @R6,6
  16103  00000F54  00000001 USING  ORDINARY    00000000 00001000 FFFFFFCD   6 080   16372  SUB,R6
  16461  00001030  00000001 USING  ORDINARY    00000000 00001000 FFFFFFF8   6 000          @R6,6
  16480  00001034  00000001 USING  ORDINARY    00000000 00001000 FFFFFFCC   6 014   16668  FEB,R6
  16506  0000104A  00000001 DROP                                           14              14
  16510  00001050  00000001 USING  ORDINARY    00000000 00001000 FFFFFFF0  14 000          @R14,14
  16665  000010AC  00000001 DROP                                            1              1
  16669  000010B2  00000001 USING  ORDINARY    00000000 00001000 FFFFFFFD   1 000          @R1,1
  16718  000010C8  00000001 USING  ORDINARY    00000000 00001000 FFFFFFF8   6 000          @R6,6
  16750  000010E8  00000001 USING  ORDINARY    00000000 00001000 FFFFFFCA   6 136   17107  SCB,R6
  16970  00001178  00000001 DROP                                            1              1
  16974  0000117E  00000001 USING  ORDINARY    00000000 00001000 FFFFFFFD   1 000   17562  @R1,1
  17167  000011F4  00000001 USING  ORDINARY    00000000 00001000 FFFFFFF8   6 000          @R6,6
  17378  0000128A  00000001 USING  ORDINARY    00000000 00001000 FFFFFFCE   6 018   17647  TQE,R6
  17701  0000136E  00000001 USING  ORDINARY    00000000 00001000 FFFFFFF8   6 00C   17837  @R6,6
  18071  000014A4  00000001 USING  ORDINARY    00000000 00001000 FFFFFFCA   6 004   18085  SCB,R6
  18124  000014C2  00000001 USING  ORDINARY    00000000 00001000 FFFFFFF8   6 000          @R6,6
  18251  00001568  00000001 USING  ORDINARY    00000000 00001000 FFFFFFF4  10 000          @R10,10
  18256  00001568  00000001 USING  ORDINARY    00000000 00001000 FFFFFFF5   9 000          @R9,9
  18261  00001568  00000001 USING  ORDINARY    00000000 00001000 FFFFFFF1  13 000          @R13,13
  18266  00001568  00000001 USING  ORDINARY    00000000 00001000 FFFFFFF6   8 000          @R8,8
  18450  000018B0  00000001 USING  ORDINARY    000018B0 00001000 00000001   8 6F5   18564  $$$190B,BR
  18576  00001912  00000001 USING  ORDINARY    00000000 00001000 FFFFFFF6   8 000          @R8,8
  18621  00001930  00000001 USING  ORDINARY    00001930 00001000 00000001   8 67B   18746  $$$195B,BR
  18760  000019C4  00000001 USING  ORDINARY    00000000 00001000 FFFFFFF6   8 000          @R8,8
  18785  000019D8  00000001 USING  ORDINARY    000019D8 00001000 00000001  15 5D6   18804  $$$199B,R15
1MUD      (MUD2047) (12:36) (15MAR04) Using Map                                                                             Page  102
  18800  000019D8  00000001 USING  ORDINARY    00000000 00001000 FFFFFFD0   1 04D   18804  EPIE,R1
  18811  000019E0  00000001 USING  ORDINARY    00000000 00001000 FFFFFFFD   1 000          @R1,1
  18817  000019E0  00000001 USING  ORDINARY    00000000 00001000 FFFFFFEF  15 000          @R15,15
  18850  000019EA  00000001 USING  ORDINARY    000019EA 00001000 00000001   8 8A6   19309  $$$201B,BR
  18922  00001A3C  00000001 DROP                                           15              15
  18926  00001A42  00000001 USING  ORDINARY    00000000 00001000 FFFFFFEF  15 000          @R15,15
  19325  00001B1A  00000001 USING  ORDINARY    00000000 00001000 FFFFFFF6   8 000          @R8,8
  19350  00001B2E  00000001 USING  ORDINARY    00001B2E 00001000 00000001  15 483   19369  $$$214B,R15
  19365  00001B2E  00000001 USING  ORDINARY    00000000 00001000 FFFFFFD0   1 04D   19369  EPIE,R1
  19376  00001B36  00000001 USING  ORDINARY    00000000 00001000 FFFFFFFD   1 000   20182  @R1,1
  19382  00001B36  00000001 USING  ORDINARY    00000000 00001000 FFFFFFEF  15 000   20183  @R15,15
  19442  00001B50  00000001 USING  ORDINARY    00001B50 00001000 00000001   8 740   20368  $$$216B,BR
  19461  00001B60  00000001 USING  ORDINARY    FFFFFFB4 00001000 FFFFFFC4  13 05C   20066  DSTKWA-@@,R13
  19527  00001BB2  00000001 USING  ORDINARY    00000000 00001000 FFFFFFC8   7 048   19531  STK,R7
  19589  00001BD0  00000001 USING  ORDINARY    00000000 00001000 FFFFFFF7   7 000          @R7,7
  19682  00001C14  00000001 USING  ORDINARY    00000000 00001000 FFFFFFC8   7 048   19686  STK,R7
  19712  00001C26  00000001 USING  ORDINARY    00000000 00001000 FFFFFFF7   7 002   21344  @R7,7
  19730  00001C34  00000001 USING  ORDINARY    00000000 00001000 FFFFFFC8   6 04C   19743  STK,R6
  19738  00001C34  00000001 DROP                                            5              5
  19742  00001C3A  00000001 USING  ORDINARY    00000000 00001000 FFFFFFF9   5 011   20645  @R5,5
  19750  00001C3E  00000001 USING  ORDINARY    00000000 00001000 FFFFFFF8   6 004   22261  @R6,6
  20376  00001E14  00000001 USING  ORDINARY    00000000 00001000 FFFFFFF1  13 000          @R13,13
  20381  00001E14  00000001 USING  ORDINARY    00000000 00001000 FFFFFFF6   8 000          @R8,8
  20407  00001E28  00000001 USING  ORDINARY    00001E28 00001000 00000001  15 1BD   20426  $$$243B,R15
  20422  00001E28  00000001 USING  ORDINARY    00000000 00001000 FFFFFFD0   1 04D   20426  EPIE,R1
  20433  00001E30  00000001 USING  ORDINARY    00000000 00001000 FFFFFFFD   1 000          @R1,1
  20439  00001E30  00000001 USING  ORDINARY    00000000 00001000 FFFFFFEF  15 000          @R15,15
  20477  00001E7A  00000001 USING  ORDINARY    00001E7A 00001000 00000001   8 416   20672  $$$245B,BR
  20681  00001F1C  00000001 USING  ORDINARY    00000000 00001000 FFFFFFF6   8 000          @R8,8
  20782  00001FFA  00000001 USING  ORDINARY    00001FFA 00001000 00000001   8 553   21554  $$$251B,BR
  21573  0000222A  00000001 USING  ORDINARY    00000000 00001000 FFFFFFF6   8 000          @R8,8
  21598  0000223E  00000001 USING  ORDINARY    0000223E 00001000 00000001  15 31A   21617  $$$273B,R15
  21613  0000223E  00000001 USING  ORDINARY    00000000 00001000 FFFFFFD0   1 04D   21617  EPIE,R1
  21624  00002246  00000001 USING  ORDINARY    00000000 00001000 FFFFFFFD   1 005   23378  @R1,1
  21630  00002246  00000001 USING  ORDINARY    00000000 00001000 FFFFFFEF  15 000   21689  @R15,15
  21665  00002250  00000001 USING  ORDINARY    00002250 00001000 00000001   8 2EC   21692  $$$275B,BR
  21699  0000227C  00000001 USING  ORDINARY    00000000 00001000 FFFFFFF6   8 000          @R8,8
  21740  0000229A  00000001 USING  ORDINARY    0000229A 00001000 00000001   8 2C1   22058  $$$278B,BR
  21759  000022AA  00000001 USING  ORDINARY    FFFFFFB4 00001000 FFFFFFC6  13 062   22026  LOC-@@,R13
  22070  00002390  00000001 USING  ORDINARY    00000000 00001000 FFFFFFF1  13 000          @R13,13
  22075  00002390  00000001 USING  ORDINARY    00000000 00001000 FFFFFFF6   8 000          @R8,8
  22097  000023A4  00000001 USING  ORDINARY    00000000 00001000 FFFFFFF3  11 000          @R11,11
  22137  000023AE  00000001 USING  ORDINARY    000023AE 00001000 00000001   8 1AE   22303  $$$286B,BR
  22226  000023F0  00000001 USING  ORDINARY    00000000 00001000 FFFFFFC7  15 010   22310  SYMBOL,R15
  22327  00002426  00000001 USING  ORDINARY    00000000 00001000 FFFFFFEF  15 000   22585  @R15,15
  22332  00002426  00000001 USING  ORDINARY    00000000 00001000 FFFFFFF6   8 000          @R8,8
  22376  00002444  00000001 USING  ORDINARY    00002444 00001000 00000001   8 0F8   22641  $$$299B,BR
  22400  00002456  00000001 USING  ORDINARY    00000000 00001000 FFFFFFC6   6 016   22647  LOC,R6
  22450  00002476  00000001 USING  ORDINARY    00000000 00001000 FFFFFFC7   5 010   22647  SYMBOL,R5
  22666  000024F8  00000001 USING  ORDINARY    00000000 00001000 FFFFFFF9   5 000   22935  @R5,5
  22671  000024F8  00000001 USING  ORDINARY    00000000 00001000 FFFFFFF8   6 000          @R6,6
  22676  000024F8  00000001 USING  ORDINARY    00000000 00001000 FFFFFFF6   8 000          @R8,8
  22757  0000256C  00000001 USING  ORDINARY    0000256C 00001000 00000001   8 0AE   22955  $$$314B,BR
  22781  0000257E  00000001 USING  ORDINARY    00000000 00001000 FFFFFFC9   6 03B   22978  SEGCB,R6
  22990  000025F4  00000001 USING  ORDINARY    00000000 00001000 FFFFFFF8   6 000          @R6,6
  22995  000025F4  00000001 USING  ORDINARY    00000000 00001000 FFFFFFF6   8 000          @R8,8
  23069  00002724  00000001 USING  ORDINARY    00002724 00001000 00000001   8 0C4   23083  $$$331B,BR
  23093  0000273A  00000001 USING  ORDINARY    00000000 00001000 FFFFFFF6   8 000          @R8,8
  23135  00002758  00000001 USING  ORDINARY    00002758 00001000 00000001   8 090   23149  $$$334B,BR
1MUD      (MUD2047) (12:36) (15MAR04) Using Map                                                                             Page  103
  23159  0000276E  00000001 USING  ORDINARY    00000000 00001000 FFFFFFF6   8 000          @R8,8
  23372  00002910  00000001 USING  ORDINARY    00002910 00001000 00000001  15 000          $$$344B,R15
  23386  00002916  00000001 USING  ORDINARY    00000000 00001000 FFFFFFEF  15 000          @R15,15

1         (MUD2047) (12:36) (15MAR04) General Purpose Register Cross Reference                                              Page  104
- Register  References (M=modified, B=branch, U=USING, D=DROP, N=index)                      HLASM R4.0  2004/03/15 12.36
0    0(0)      989U   990D  9327M  9328M  9329   9331M  9332  10854M 10855M 10855  10917M 11122  11801M 11801  11880M
             11881M 11882  11925M 11983  12216M 12329M 12348M 12465M 12466M 12467  12769M 12795M 12882M 12908M 12908
             12925M 12935M 12962M 12989M 12989  12990M 12991  13009M 13009  13038  13111M 13111  13127M 13154M 13165M
             13181M 13181  13215M 13231M 13231  13232M 13233  13249M 13249  13264M 13275M 13298M 13410M 13432M 13432
             13446M 13467M 13492M 13522M 13541M 13541  13554M 13585M 13605M 13605  13620M 13737M 13752M 13777M 13777
             13806M 13806  13821M 13832M 13847M 13847  13901M 13925M 13925  13941M 13958M 13979M 14042M 14075M 14095M
             14121M 14143M 14143  14204M 14237M 14257M 14283M 14298M 14316M 14316  14332M 14365M 14387M 14413M 14413
             14474M 14507M 14526M 14559M 14599M 14614M 14639M 14671M 14696M 14696  14732M 14758M 14773M 14799M 14799
             14821M 14821  14837M 14856M 14856  14872M 14894M 14894  14955M 14988M 15008M 15034M 15066M 15099M 15136M
             15173M 15212M 15227  15228M 15281M 15281  15296M 15329M 15347M 15347  15363M 15374M 15424M 15444M 15462M
             15462  15478M 15497M 15497  15513M 15544M 15570M 15570  15590M 15590  15606M 15639M 15702M 15729M 15755M
             15788M 15928M 15928  15929M 15955M 15955  15983M 16009M 16041M 16063M 16083M 16154M 16181M 16207M 16241M
             16277M 16310M 16347M 16384M 16414M 16414  16439M 16581M 16608M 16634M 16649M 16676M 16698M 16698  16730M
             16781M 16808M 16841M 16881M 16896M 16921M 16953M 16978M 16978  17014M 17040M 17055M 17081M 17081  17119M
             17145M 17145  17184M 17200M 17232M 17247M 17269M 17291M 17291  17349M 17410M 17437M 17448M 17491M 17510M
             17510  17523M 17542M 17542  17573M 17599M 17625M 17625  17659M 17685M 17685  17732M 17751M 17751  17767M
             17814M 17825M 17826M 17872M 17898M 17899M 17899  17917M 17943M 17944M 17944  17962M 17984M 17985M 17985
             18003M 18025M 18026M 18026  18044M 18107M 18108M 18108  18136M 18158M 18176M 18228M 18233M 18482M 18505M
             18535M 18555M 18555  18648M 18675M 18706M 18732M 18751M 18873M 18873  18893M 18976M 19004M 19004  19038M
             19076M 19076  19138M 19160M 19160  19181M 19203M 19203  19224M 19265M 19265  19266M 19275M 19275  19285M
             19474  19484M 19506M 19599M 19627M 19761M 19761  19788M 19817M 19836M 19836  19869M 19888M 19888  19903M
             19929M 19929  19952M 19973M 19994M 19994  20014M 20014  20055M 20070M 20070  20097M 20147M 20185M 20235M
             20258M 20281M 20300M 20300  20316M 20335M 20335  20357M 20357  20493  20503M 20503  20575M 20594M 20594
             20609M 20628M 20628  20640M 20663M 20663  20800  20811M 20849M 20849  20872M 20915M 20968M 20990M 20990
             21042M 21062M 21086M 21130M 21171M 21190M 21254M 21276M 21344M 21370M 21414M 21455M 21474M 21507M 21507
             21522M 21545M 21545  21564M 21766  21780M 21813M 21839M 21871M 21889M 21889  21908M 21954M 21980M 22012M
             22030M 22030  22049M 22165M 22165  22179  22196  22409M 22409  22414  22419  22816  22979M
     1(1)      985U 10853M 10906M 10918M 10918  11162  11188M 11194M 11196M 11196  11245M 11247M 11247  11249M 11257M
             11259M 11259  11309M 11310M 11310  11325U 11369U 11383M 11384M 11384  11409M 11410M 11410  11425U 11466U
             11527M 11599M 11668M 11670M 11670  11687M 11694  11696  11697  11698  11715M 11722  11724  11725  11726
             11734M 11736M 11736  11789M 11791M 11791  11894M 11896M 11896  11924M 12076M 12078M 12078  12150M 12152M
             12152  12217M 12328M 12347M 12398M 12431M 12464M 12467M 12675  12731M 12768M 12790M 12877M 12934M 12955M
             12992M 13027M 13040M 13126M 13147M 13166M 13214M 13263M 13276M 13297M 13403M 13445M 13466M 13491M 13521M
             13537M 13553M 13584M 13601M 13619M 13732M 13751M 13769D 13771M 13771  13772M 13773U 13820M 13833M 13900M
             13921M 13940M 13957M 13975M 14035M 14074M 14094M 14116M 14197M 14236M 14256M 14278M 14297M 14312M 14331M
             14364M 14380M 14467M 14506M 14525M 14558M 14594M 14613M 14634M 14670M 14688D 14690M 14690  14691M 14692U
             14731M 14753M 14772M 14817M 14836M 14852M 14871M 14948M 14987M 15007M 15029M 15065M 15098M 15135M 15172M
             15211M 15232M 15232  15277M 15295M 15328M 15343M 15362M 15378M 15378  15423M 15443M 15458M 15477M 15493M
             15512M 15543M 15586M 15605M 15638M 15695M 15722M 15750M 15921M 15982M 16004M 16040M 16056M 16082M 16147M
             16174M 16202M 16240M 16276M 16309M 16346M 16383M 16434M 16502M 16574M 16601M 16629M 16648M 16665D 16667M
             16667  16668M 16669U 16729M 16774M 16801M 16840M 16876M 16895M 16916M 16952M 16970D 16972M 16972  16973M
             16974U 17013M 17035M 17054M 17118M 17177M 17199M 17225M 17246M 17262M 17348M 17403M 17430M 17448M 17490M
             17506M 17522M 17538M 17551M 17572M 17592M 17658M 17731M 17747M 17766M 17807M 17837M 17871M 17891M 17916M
             17938M 17961M 17980M 18002M 18021M 18043M 18102M 18135M 18154M 18175M 18207M 18213M 18214  18217  18223
             18225M 18225  18226M 18228M 18229M 18229  18232M 18232  18233  18234M 18481M 18498M 18534M 18551M 18636
             18641M 18651  18674M 18705M 18731M 18750M 18800U 18811U 18869M 18886M 18896  18975M 19037M 19131M 19174M
             19217M 19258M 19284M 19365U 19376U 19472M 19473  19474M 19475M 19476  19483M 19499M 19509  19596M 19626M
             19757M 19781M 19816M 19832M 19868M 19884M 19902M 19947M 19972M 19990M 20054M 20066M 20234M 20253M 20280M
             20296M 20315M 20331M 20422U 20433U 20495  20574M 20590M 20608M 20624M 20639M 20799  20804M 20816  20865M
             20908M 20961M 21085M 21123M 21164M 21189M 21269M 21369M 21407M 21448M 21473M 21521M 21559M 21613U 21624U
             21680  21689M 21767  21768M 21775M 21812M 21834M 21870M 21885M 21907M 21953M 21975M 22011M 22026M 22048M
             22390  22815  22840M 22842  23083M 23149M
     2(2)      981U 10820  11068M 12592  12713M 12984M 12985M 12985  12991M 12993  13028  13676D 13678M 13678  13679M
             14352M 14353M 14353  14380  15227M 15380M 15380  17220M 17225  18188M 18213  18274M 18438  18583M 18609
             18767M 18838  19332M 19429  20137M 20163  20175M 20175  20182N 20185N 20186M 20201  20389M 20465  20523M
1         (MUD2047) (12:36) (15MAR04) General Purpose Register Cross Reference                                              Page  105
             20523  20524M 20533M 20533  20688M 20770  20926M 20946M 21019M 21033M 21033  21242M 21254  21296M 21328
             21580M 21653  21706M 21727  22083M 22125  22339M 22364  22460M 22460  22529M 22548  22576  22683M 22745
             22835M 22836M 22837  22863  23002M 23057  23100M 23123  23166M
     3(3)      977U 10820  11068M 12592  15234M 15234  15382M 15382  17212M 17219M 18274M 18438  18583M 18609  18767M
             18838  19332M 19429  19985M 20048M 20096M 20146M 20184M 20389M 20465  20493M 20494M 20514M 20514  20524M
             20688M 20770  20884M 21123  21164  21407  21448  21580M 21653  21706M 21727  22083M 22125  22339M 22364
             22462M 22462  22512M 22564M 22564  22576  22621  22683M 22745  22818M 22840  23002M 23057  23100M 23123
             23166M
     4(4)      973U 10820  10954M 10954  10999M 11041M 11041  11068M 12592  13344M 13354U 13360M 13367U 13380  13395U
             13403  13858M 13859M 13859  13865U 18274M 18438  18583M 18609  18767M 18838  19064M 19087  19332M 19429
             20025M 20026M 20029  20042  20071M 20082  20094N 20097N 20098M 20113  20144N 20147N 20148M 20163  20389M
             20465  20495M 20646M 20688M 20770  20821M 20832M 20832  21009M 21305M 21580M 21653  21706M 21727  22083M
             22125  22339M 22364  22454M 22455M 22490  22583  22627M 22628M 22640  22646  22683M 22745  22816M 22835
             22902M 22902  22908  22979  23002M 23057  23100M 23123  23166M
     5(5)      969U 10820  10955M 10965U 11004M 11053U 11068M 12024M 12025M 12025  12049U 12159U 12592  13309M 13319U
             13325M 13326M 13326  13333U 13342U 13380  13876U 18274M 18438  18583M 18609  18651M 18750  18767M 18838
             18901M 18901  18903M 18965M 18966M 18966  18987M 18987  19096M 19096  19104M 19122M 19122  19332M 19429
             19738D 19740M 19740  19741M 19742U 19807M 19807  20025  20027M 20072M 20082  20113  20201  20389M 20465
             20499M 20499  20590  20645M 20688M 20770  20800M 20821  20893M 20893  21580M 21653  21706M 21727  21766M
             21780  22083M 22125  22339M 22364  22422M 22423M 22423  22450U 22512  22529  22534M 22548M 22621M 22666U
             22683M 22745  22815M 23002M 23057  23100M 23123  23166M
     6(6)      965U 10820  10929M 10930M 10930  10955  11068M 11162M 11170U 11747U 12008M 12018U 12164U 12592  12675M
             12685U 12690  13289U 14011M 14012M 14012  14027U 14035  14160U 14173M 14174M 14174  14189U 14197  14430U
             14443M 14444M 14444  14459U 14467  14911U 14924M 14925M 14925  14940U 14948  15197U 15652M 15668U 15966M
             15972U 16095M 16103U 16116M 16117M 16117  16147  16434  16461U 16464M 16480U 16494M 16495M 16495  16574
             16718U 16742M 16750U 16763M 16764M 16764  16774  17167U 17362M 17378U 17392M 17393M 17393  17403  17701U
             17779M 17791M 17792M 17792  18055M 18071U 18085M 18086M 18086  18102  18124U 18274M 18438  18465M 18466M
             18493M 18498  18583M 18609  18636M 18717  18767M 18838  18896M 18975  19332M 19429  19531M 19532M 19543
             19560  19574  19583  19686M 19687M 19700  19706  19719  19730U 19743M 19750U 19757  19947  20253  20331
             20389M 20465  20688M 20770  20799M 20883M 20884  21001M 21297M 21580M 21653  21706M 21727  22083M 22125
             22194M 22339M 22364  22390M 22400U 22671U 22683M 22745  22771M 22781U 22990U 23002M 23057  23100M 23123
             23166M
     7(7)      961U 10820  11068M 11983M 12216  12338M 12338  12453M 12453  12592  18274M 18438  18464M 18546M 18551
             18583M 18609  18635M 18743  18767M 18838  18864M 18869  18903  19103M 19104  19332M 19429  19511M 19527U
             19543  19560  19583M 19589U 19594  19646M 19658  19682U 19706M 19712U 19717  19719M 19720M 19832  19858
             19884  19952  19984M 19985N 20049M 20224M 20224  20258  20296  20389M 20465  20491M 20674  20688M 20770
             21217M 21237M 21328  21580M 21653  21706M 21727  22083M 22125  22339M 22364  22683M 22745  23002M 23057
             23100M 23123  23166M
     8(8)      957U 10820  10821M 10832U 11061U 11068M 11149M 11159U 11753U 11763M 11773U 11813U 11823M 11833U 11958U
             11971M 11981U 12482U 12592  12594M 12605U 18266U 18274M 18438  18439M 18450U 18576U 18583M 18609  18610M
             18621U 18760U 18767M 18838  18839M 18850U 19325U 19332M 19429  19431M 19442U 20381U 20389M 20465  20466M
             20477U 20681U 20688M 20770  20771M 20782U 21573U 21580M 21653  21654M 21665U 21699U 21706M 21727  21729M
             21740U 22075U 22083M 22125  22126M 22137U 22332U 22339M 22364  22365M 22376U 22676U 22683M 22745  22746M
             22757U 22995U 23002M 23057  23058M 23069U 23093U 23100M 23123  23124M 23135U 23159U 23166M
     9(9)      953U 10820  11068M 12592  12646M 12656U 18256U 18274M 18438  18583M 18609  18767M 18838  19332M 19429
             20389M 20465  20688M 20770  21580M 21653  21706M 21727  22083M 22125  22339M 22364  22683M 22745  23002M
             23057  23100M 23123  23166M
    10(A)      949U 10820  11068M 11480M 11481M 11481  11496U 11538U 11552M 11553M 11553  11568U 11659U 12179M 12195U
             12209M 12210M 12210  12278U 12592  12660M 12670U 18251U 18274M 18438  18583M 18609  18767M 18838  19332M
             19429  20389M 20465  20688M 20770  21580M 21653  21706M 21727  22083M 22125  22339M 22364  22683M 22745
             23002M 23057  23100M 23123  23166M
    11(B)      945U  2379B  2380B 10820  11068M 12592  12692M 12700U 12775  12801  12838  12888  12914  12941  12968
             12977  12982M 13015  13023M 13117  13133  13160  13187  13221  13255  13270  13304  13416  13438  13513
             13528  13547  13560  13591  13611  13626  13743  13758  13783  13812  13827  13853  13907  13931  13947
             13964  14048  14081  14101  14127  14149  14210  14243  14263  14289  14304  14322  14338  14371  14393
             14419  14480  14513  14532  14565  14605  14620  14645  14677  14702  14738  14764  14779  14805  14827
             14843  14862  14878  14900  14961  14994  15014  15040  15072  15105  15142  15179  15218  15263  15287
             15302  15335  15353  15369  15410  15430  15450  15468  15484  15503  15519  15550  15576  15596  15612
             15645  15708  15735  15761  15794  15935  15961  15989  16015  16047  16069  16089  16160  16187  16213
1         (MUD2047) (12:36) (15MAR04) General Purpose Register Cross Reference                                              Page  106
             16247  16283  16316  16353  16390  16420  16445  16587  16614  16640  16655  16682  16704  16736  16787
             16814  16847  16887  16902  16927  16959  16984  17020  17046  17061  17087  17125  17151  17190  17206
             17238  17253  17275  17297  17355  17416  17443  17477  17497  17516  17529  17548  17579  17605  17631
             17665  17691  17738  17757  17773  17820  17847  17878  17905  17923  17950  17968  17991  18009  18032
             18050  18114  18142  18164  18182  18274M 18438  18488  18511  18541  18561  18583M 18609  18681  18712
             18738  18767M 18838  18879  19010  19026  19044  19082  19144  19166  19187  19209  19230  19306  19332M
             19429  19490  19633  19767  19794  19823  19842  19875  19894  19909  19935  19958  19979  20000  20020
             20061  20241  20264  20287  20306  20322  20341  20363  20389M 20465  20555  20566  20581  20600  20615
             20634  20669  20688M 20770  20796M 20855  20878  20921  20974  20996  21077  21092  21136  21177  21196
             21260  21282  21291  21350  21361  21376  21420  21461  21480  21513  21528  21551  21580M 21653  21679M
             21690  21706M 21727  21763M 21786  21819  21845  21877  21895  21914  21960  21986  22018  22036  22055
             22083M 22097U 22125  22339M 22364  22683M 22745  23002M 23057  23100M 23123  23166M
    12(C)      941U  8898U 11161M 11775M 11835M 17938
    13(D)      937U 10817  10820  10836M 10838  10838  10839  10839  10840  11065M 11065  11068  11070  11072  11072
             11175M 11176M 11177  11177  11782M 11783M 11784  11784  11842M 11843M 11844  11844  11989M 11990M 11991
             11991  12589  12592  12609M 12611  12611  12612  12612  12613  12624U 12812M 12814  12814  12815  12815
             12816  12844M 12844  12847  12847  12977  12978M 12980  12980  12981  12981  13021M 13021  13023  13025
             13025  15237M 15239  15239  15240  15240  15241  15269M 15269  15272  15272  15385M 15387  15387  15388
             15388  15389  15416M 15416  15419  15419  17451M 17453  17453  17454  17454  17455  17483M 17483  17486
             17486  18261U 18270M 18270  18274  18276  18278  18278  18435  18438  18454M 18456  18456  18457  18457
             18458  18580M 18580  18583  18585  18587  18587  18606  18609  18625M 18627  18627  18628  18628  18629
             18764M 18764  18767  18769  18771  18771  18835  18838  18854M 18856  18856  18857  18857  18858  19329M
             19329  19332  19334  19336  19336  19426  19429  19446M 19448  19448  19449  19449  19450  19461U 20376U
             20385M 20385  20389  20391  20393  20393  20462  20465  20481M 20483  20483  20484  20484  20485  20685M
             20685  20688  20690  20692  20692  20767  20770  20786M 20788  20788  20789  20789  20790  20816  20817M
             20819  20819  20820  20820  21557M 21557  21559  21561  21561  21577M 21577  21580  21582  21584  21584
             21650  21653  21669M 21671  21671  21672  21672  21673  21703M 21703  21706  21708  21710  21710  21724
             21727  21744M 21746  21746  21747  21747  21748  21759U 22070U 22079M 22079  22083  22085  22087  22087
             22122  22125  22141M 22143  22143  22144  22144  22145  22190M 22192  22192  22193  22193  22194  22317M
             22317  22320  22320  22336M 22336  22339  22341  22343  22343  22361  22364  22380M 22382  22382  22383
             22383  22384  22680M 22680  22683  22685  22687  22687  22742  22745  22761M 22763  22763  22764  22764
             22765  22999M 22999  23002  23004  23006  23006  23054  23057  23073M 23075  23075  23076  23076  23077
             23097M 23097  23100  23102  23104  23104  23120  23123  23139M 23141  23141  23142  23142  23143  23163M
             23163  23166  23168  23170  23170
    14(E)      933U  9326B  9336B 10817  11070M 11074B 11133B 11172  11252M 11253M 11253B 11392M 11393M 11393B 11458M
             11459M 11459B 11530M 11531M 11531B 11602D 11604M 11604  11605M 11606U 11618  11628M 11628  11633M 11636M
             11636N 11637M 11637  11652M 11652B 11738M 11739B 11795M 11796M 11796B 11804M 11805M 11805B 11900M 11901M
             11901B 11905M 11906M 11906B 11918M 11919M 11919B 11936M 11937M 11937B 11949M 11950M 11950B 12171M 12172M
             12172B 12176M 12177M 12177B 12220D 12222M 12222  12223M 12224U 12236  12246M 12246  12251M 12254M 12254N
             12255M 12255  12268M 12268B 12306M 12307B 12324M 12325M 12325B 12375M 12376M 12376B 12474M 12475B 12589
             12707M 12708M 12708B 12711M 12712M 12712B 12778M 12779M 12779B 12804M 12805M 12805B 12808M 12809M 12809B
             12819M 12820M 12820B 12841M 12842M 12842B 12891M 12892M 12892B 12917M 12918M 12918B 12944M 12945M 12945B
             12971M 12972M 12972B 12996M 12997M 12997B 13018M 13019M 13019B 13031M 13032M 13032B 13036M 13037M 13037B
             13120M 13121M 13121B 13136M 13137M 13137B 13163M 13164M 13164B 13168M 13190M 13191M 13191B 13224M 13225M
             13225B 13236M 13237M 13237B 13258M 13259M 13259B 13273M 13274M 13274B 13278M 13307M 13308M 13308B 13419M
             13420M 13420B 13441M 13442M 13442B 13516M 13517M 13517B 13531M 13532M 13532B 13549M 13563M 13564M 13564B
             13594M 13595M 13595B 13614M 13615M 13615B 13629M 13630M 13630B 13746M 13747M 13747B 13761M 13762M 13762B
             13785M 13815M 13816M 13816B 13830M 13831M 13831B 13835M 13856M 13857M 13857B 13910M 13911M 13911B 13934M
             13935M 13935B 13950M 13951M 13951B 13967M 13968M 13968B 13982M 13983M 13983B 14051M 14052M 14052B 14084M
             14085M 14085B 14104M 14105M 14105B 14130M 14131M 14131B 14152M 14153M 14153B 14213M 14214M 14214B 14246M
             14247M 14247B 14266M 14267M 14267B 14292M 14293M 14293B 14307M 14308M 14308B 14325M 14326M 14326B 14341M
             14342M 14342B 14374M 14375M 14375B 14396M 14397M 14397B 14422M 14423M 14423B 14483M 14484M 14484B 14516M
             14517M 14517B 14535M 14536M 14536B 14568M 14569M 14569B 14608M 14609M 14609B 14623M 14624M 14624B 14648M
             14649M 14649B 14680M 14681M 14681B 14705M 14706M 14706B 14741M 14742M 14742B 14767M 14768M 14768B 14782M
             14783M 14783B 14808M 14809M 14809B 14830M 14831M 14831B 14846M 14847M 14847B 14865M 14866M 14866B 14881M
             14882M 14882B 14903M 14904M 14904B 14964M 14965M 14965B 14997M 14998M 14998B 15017M 15018M 15018B 15043M
             15044M 15044B 15075M 15076M 15076B 15108M 15109M 15109B 15145M 15146M 15146B 15182M 15183M 15183B 15221M
             15222M 15222B 15225M 15226M 15226B 15244M 15245M 15245B 15266M 15267M 15267B 15290M 15291M 15291B 15305M
             15306M 15306B 15338M 15339M 15339B 15356M 15357M 15357B 15372M 15373M 15373B 15392M 15393M 15393B 15413M
1         (MUD2047) (12:36) (15MAR04) General Purpose Register Cross Reference                                              Page  107
             15414M 15414B 15433M 15434M 15434B 15453M 15454M 15454B 15471M 15472M 15472B 15487M 15488M 15488B 15506M
             15507M 15507B 15522M 15523M 15523B 15553M 15554M 15554B 15579M 15580M 15580B 15599M 15600M 15600B 15615M
             15616M 15616B 15625M 15626M 15626  15628M 15628B 15648M 15649M 15649B 15711M 15712M 15712B 15738M 15739M
             15739B 15764M 15765M 15765B 15797M 15798M 15798B 15938M 15939M 15939B 15964M 15965M 15965B 15992M 15993M
             15993B 16018M 16019M 16019B 16050M 16051M 16051B 16072M 16073M 16073B 16092M 16093M 16093B 16163M 16164M
             16164B 16190M 16191M 16191B 16216M 16217M 16217B 16250M 16251M 16251B 16286M 16287M 16287B 16319M 16320M
             16320B 16356M 16357M 16357B 16393M 16394M 16394B 16423M 16424M 16424B 16448M 16449M 16449B 16506D 16508M
             16508  16509M 16510U 16522  16532M 16532  16537M 16540M 16540N 16541M 16541  16554M 16554B 16590M 16591M
             16591B 16617M 16618M 16618B 16643M 16644M 16644B 16658M 16659M 16659B 16685M 16686M 16686B 16707M 16708M
             16708B 16739M 16740M 16740B 16790M 16791M 16791B 16817M 16818M 16818B 16850M 16851M 16851B 16890M 16891M
             16891B 16905M 16906M 16906B 16930M 16931M 16931B 16962M 16963M 16963B 16987M 16988M 16988B 17023M 17024M
             17024B 17049M 17050M 17050B 17064M 17065M 17065B 17090M 17091M 17091B 17128M 17129M 17129B 17154M 17155M
             17155B 17193M 17194M 17194B 17209M 17210M 17210B 17241M 17242M 17242B 17256M 17257M 17257B 17278M 17279M
             17279B 17300M 17301M 17301B 17358M 17359M 17359B 17419M 17420M 17420B 17446M 17447M 17447B 17458M 17459M
             17459B 17480M 17481M 17481B 17500M 17501M 17501B 17518M 17532M 17533M 17533B 17550M 17582M 17583M 17583B
             17608M 17609M 17609B 17634M 17635M 17635B 17668M 17669M 17669B 17694M 17695M 17695B 17741M 17742M 17742B
             17760M 17761M 17761B 17776M 17777M 17777B 17823M 17824M 17824B 17850M 17851M 17851B 17881M 17882M 17882B
             17908M 17909M 17909B 17926M 17927M 17927B 17953M 17954M 17954B 17971M 17972M 17972B 17994M 17995M 17995B
             18012M 18013M 18013B 18035M 18036M 18036B 18053M 18054M 18054B 18117M 18118M 18118B 18145M 18146M 18146B
             18167M 18168M 18168B 18185M 18186M 18186B 18218M 18219M 18219  18224M 18224  18227M 18228  18243M 18244M
             18244B 18276M 18280B 18435  18491M 18492M 18492B 18514M 18515M 18515B 18544M 18545M 18545B 18564M 18565M
             18565B 18585M 18589B 18606  18684M 18685M 18685B 18715M 18716M 18716B 18720M 18721M 18721B 18741M 18742M
             18742B 18746M 18747M 18747B 18769M 18773B 18805B 18835  18881M 19013M 19014M 19014B 19047M 19048M 19048B
             19085M 19086M 19086B 19147M 19148M 19148B 19169M 19170M 19170B 19190M 19191M 19191B 19212M 19213M 19213B
             19233M 19234M 19234B 19309M 19310M 19310B 19334M 19338B 19370B 19426  19493M 19494M 19494B 19636M 19637M
             19637B 19770M 19771M 19771B 19797M 19798M 19798B 19826M 19827M 19827B 19845M 19846M 19846B 19878M 19879M
             19879B 19897M 19898M 19898B 19912M 19913M 19913B 19938M 19939M 19939B 19961M 19962M 19962B 19982M 19983M
             19983B 20002M 20023M 20024M 20024B 20064M 20065M 20065B 20215M 20244M 20245M 20245B 20267M 20268M 20268B
             20290M 20291M 20291B 20309M 20310M 20310B 20325M 20326M 20326B 20344M 20345M 20345B 20366M 20367M 20367B
             20391M 20395B 20427B 20462  20558M 20559M 20559B 20569M 20570M 20570B 20584M 20585M 20585B 20603M 20604M
             20604B 20618M 20619M 20619B 20636M 20672M 20673M 20673B 20690M 20694B 20767  20858M 20859M 20859B 20881M
             20882M 20882B 20924M 20925M 20925B 20977M 20978M 20978B 20999M 21000M 21000B 21080M 21081M 21081B 21095M
             21096M 21096B 21139M 21140M 21140B 21180M 21181M 21181B 21199M 21200M 21200B 21263M 21264M 21264B 21284M
             21294M 21295M 21295B 21353M 21354M 21354B 21364M 21365M 21365B 21379M 21380M 21380B 21423M 21424M 21424B
             21464M 21465M 21465B 21483M 21484M 21484B 21516M 21517M 21517B 21531M 21532M 21532B 21554M 21555M 21555B
             21582M 21586B 21618B 21650  21684M 21684  21685M 21686M 21686  21688  21692M 21708M 21712B 21724  21770M
             21789M 21790M 21790B 21822M 21823M 21823B 21848M 21849M 21849B 21880M 21881M 21881B 21898M 21899M 21899B
             21917M 21918M 21918B 21963M 21964M 21964B 21989M 21990M 21990B 22021M 22022M 22022B 22039M 22040M 22040B
             22058M 22059M 22059B 22085M 22089B 22122  22341M 22345B 22361  22685M 22689B 22742  22843M 23004M 23008B
             23054  23102M 23106B 23120  23168M 23172B 23379B
    15(F)      929U  2841M  2841   9324M  9325M  9325   9327   9332M  9335M  9335  10865M 10865  11073M 11073  11105U
             11132M 11132  11144U 11215M 11216M 11227  11695M 11696  11723M 11724  11915M 11933M 12321M 12372M 12473M
             12775M 12801M 12816M 12838M 12888M 12914M 12941M 12968M 12993M 13015M 13028M 13041M 13044  13056M 13064M
             13073M 13073  13080  13117M 13133M 13160M 13187M 13221M 13226M 13227M 13227  13233M 13255M 13270M 13304M
             13416M 13438M 13513M 13528M 13547M 13560M 13591M 13596M 13597M 13611M 13626M 13743M 13758M 13783M 13812M
             13827M 13853M 13907M 13931M 13947M 13964M 14048M 14081M 14101M 14127M 14149M 14210M 14243M 14263M 14289M
             14304M 14322M 14338M 14371M 14393M 14419M 14480M 14513M 14532M 14565M 14605M 14620M 14645M 14677M 14702M
             14738M 14764M 14779M 14805M 14827M 14843M 14862M 14878M 14900M 14961M 14994M 15014M 15040M 15072M 15105M
             15142M 15179M 15218M 15241M 15263M 15287M 15302M 15335M 15353M 15369M 15389M 15410M 15430M 15450M 15468M
             15484M 15503M 15519M 15550M 15576M 15596M 15612M 15622M 15645M 15708M 15735M 15761M 15794M 15808M 15809M
             15809  15851M 15935M 15961M 15989M 16015M 16047M 16069M 16089M 16160M 16187M 16213M 16247M 16283M 16316M
             16353M 16390M 16420M 16445M 16503M 16587M 16614M 16640M 16655M 16682M 16704M 16736M 16787M 16814M 16847M
             16887M 16902M 16927M 16959M 16984M 17020M 17046M 17061M 17087M 17125M 17151M 17190M 17206M 17238M 17253M
             17275M 17297M 17355M 17416M 17443M 17455M 17477M 17497M 17516M 17529M 17548M 17579M 17605M 17631M 17665M
             17691M 17738M 17757M 17773M 17820M 17847M 17878M 17905M 17923M 17950M 17968M 17991M 18009M 18032M 18050M
             18114M 18142M 18164M 18182M 18216M 18216  18217M 18218  18221  18226  18227  18230  18234  18279M 18279
             18464  18465  18488M 18511M 18541M 18561M 18588M 18588  18635  18649M 18681M 18712M 18717M 18738M 18743M
             18752M 18772M 18772  18785U 18817U 18864  18879M 18894M 18922D 18924M 18924  18925M 18926U 18930M 18939M
             18939  18946  18977M 19010M 19016M 19026  19044M 19082M 19144M 19166M 19187M 19209M 19230M 19306M 19337M
1         (MUD2047) (12:36) (15MAR04) General Purpose Register Cross Reference                                              Page  108
             19337  19350U 19382U 19490M 19507M 19600M 19633M 19767M 19794M 19823M 19842M 19875M 19894M 19909M 19935M
             19958M 19979M 20000M 20020M 20028M 20029M 20041M 20042M 20047M 20048  20049  20061M 20094M 20144M 20182M
             20241M 20264M 20287M 20306M 20322M 20341M 20363M 20394M 20394  20407U 20439U 20555M 20566M 20581M 20600M
             20615M 20634M 20669M 20693M 20693  20796  20812M 20855M 20860M 20865  20878M 20921M 20974M 20996M 21077M
             21092M 21136M 21177M 21196M 21260M 21282M 21291M 21350M 21361M 21376M 21420M 21461M 21480M 21513M 21528M
             21551M 21565M 21585M 21585  21598U 21630U 21679  21680M 21685M 21687M 21688M 21690M 21711M 21711  21763
             21786M 21819M 21845M 21877M 21895M 21914M 21960M 21986M 22018M 22036M 22055M 22088M 22088  22154M 22154
             22196M 22199M 22201  22216M 22226U 22270M 22293M 22310M 22327U 22344M 22344  22583M 22584M 22585M 22597
             22603  22688M 22688  22771  22841M 22841  22842M 22843B 22908M 22912M 22921M 22921  22928  22948  23007M
             23007  23105M 23105  23171M 23171  23372U 23386U

1MUD      (MUD2047) (12:36) (15MAR04) Diagnostic Cross Reference and Assembler Summary                                      Page  109
-                                                                                            HLASM R4.0  2004/03/15 12.36
0     No Statements Flagged in this Assembly
 HIGH LEVEL ASSEMBLER, 5696-234, RELEASE 4.0, PTF UQ57391
0SYSTEM: OS/390 02.10.00            JOBNAME: MIL#MUD     STEPNAME: ASM        PROCSTEP: (NOPROC)
0Datasets Allocated for this Assembly
  Con DDname   Dataset Name                                 Volume  Member
   P1 SYSIN    WYL.GS.MIL.MILTEN.SOURCE                     SYSB05  MUD
   L1 SYSLIB   WYL.GS.MIL.MILTEN.MACLIB                     SYSB05
   L2          WYL.GG.SYS.MACLIB                            SYSB05
   L3          SYS3.IS.MACLIB                               SYSB05
   L4          SYS3.MACLIB                                  SYSB02
   L5          SYS1.MACLIB                                  MVSBR9
   L6          SYS1.MODGEN                                  MVSBR9
      SYSPRINT SYS04075.T123651.RA000.MIL#MUD.PRINT.H01     SCR101
      SYSTERM  GG$SLP.MIL#MUD.JOB03426.D0000101.?

    3776K allocated to Buffer Pool,         5033K would be required for this to be an In-Storage Assembly
    1596 Primary Input Records Read        22389 Library Records Read                316 Work File Reads
       0 ASMAOPT Records Read               9778 Primary Print Records Written       320 Work File Writes
       0 Punch Records Written                 0 ADATA Records Written
0Assembly Start Time: 12.36.53 Stop Time: 12.37.02 Processor Time: 00.00.03.9705
 Return Code 000
