1                        J E S 2  J O B  L O G  --  S Y S T E M  S Y S B  --  N O D E  R L G
0
 12.35.19 JOB03415 ---- MONDAY,    15 MAR 2004 ----
 12.35.19 JOB03415  ICH70001I GG$SLP   LAST ACCESS AT 12:35:09 ON MONDAY, MARCH 15, 2004
 12.35.19 JOB03415  $HASP373 MIL#ELF  STARTED - INIT 9    - CLASS B - SYS SYSB
 12.35.19 JOB03415  ***  HCMD      STEP $$QUIET
 12.35.19 JOB03415  PUR * Q OUT MUL
 12.35.19 JOB03415  JOB 5459 MIL#ELF  WILL BE PURGED
 12.35.20 JOB03415  MIL#ELF .$$QUIET .         RC=Zero TapeIO=0000 DiskIO=0000 CPU=  .01s Elapsed=19.88s
 12.35.39 JOB03415  MIL#ELF .ASM     .         RC=Zero TapeIO=0000 DiskIO=0816 CPU= 7.86s Elapsed=21.01s
 12.35.42 JOB03415  MIL#ELF .EDIT    .         RC=Zero TapeIO=0000 DiskIO=0417 CPU= 1.32s Elapsed=39.96s
 12.35.42 JOB03415  MIL#ELF  Ended.  Name=Assemble ELF                   Total CPU= 9.19s Elapsed=19.88s
 12.35.42 JOB03415
 12.35.42 JOB03415  Execution charges   Priority=Standard   Block=Day
 12.35.42 JOB03415
 12.35.42 JOB03415  CPU Usage         170.43         $105.66   Standard Processing Unit Equivalent
 12.35.42 JOB03415                                   =======
 12.35.42 JOB03415                                   $105.66   Total Job execution charge
 12.35.42 JOB03415
 12.35.42 JOB03415  See back separator page for print charges
 12.35.42 JOB03415
 12.35.42 JOB03415  $HASP395 MIL#ELF  ENDED  ASM=0, EDIT=0
1        1 //MIL#ELF JOB SLP$GG,'Assemble ELF',TIME=4,REGION=4M                    JOB03415
           //*
           /*JOBPARM LINES=99,COPIES=1
           /*JOBPARM FORMS=3HOL,PFORMAT=LAND,CHARS=BD13,DUPLEX=YES,FLASH=BAR4
           //*
           /*JOBPARM NOTIFY=GG.SLP,HOLD=OUTPUT                                     WYLGEN
         2 //$$QUIET EXEC PGM=HCMDX,PARM='PUR * Q OUT MUL'
           //*
         3 //ASM    EXEC PGM=ASMA90,REGION=8M,
           //            PARM=('NORENT,TERM,FLAG(NOCONT),US(MAP,WARN(10)),NODECK',
           //            'LC(32767),XREF(SHORT),ESD,DXREF,NOOBJECT')
           //*STEPLIB  DD DSN=SYS1.SASMMOD1,DISP=SHR
         4 //SYSLIB   DD  DSN=WYL.GS.MIL.MILTEN.MACLIB,DISP=SHR
         5 //         DD  DSN=WYL.GG.SYS.MACLIB,DISP=SHR
         6 //         DD  DSN=SYS3.IS.MACLIB,DISP=SHR
         7 //         DD  DSN=SYS3.MACLIB,DISP=SHR
         8 //         DD  DSN=SYS1.MACLIB,DISP=SHR
         9 //         DD  DSN=SYS1.MODGEN,DISP=SHR
        10 //SYSUT1   DD DSN=&&SYSUT1,UNIT=VIO,DISP=(,DELETE),
           //            SPACE=(4088,(500,250),,CONTIG,ROUND)
        11 //SYSTERM  DD SYSOUT=T
        12 //SYSPRINT DD DSN=&&PRINT,UNIT=SYSDA,DISP=(,PASS),
           //            SPACE=(6650,(250,250),RLSE),
           //            DCB=(BLKSIZE=6650,LRECL=133,RECFM=FB)
        13 //SYSUDUMP DD SYSOUT=A
        14 //SYSIN    DD  DSN=WYL.GS.MIL.MILTEN.SOURCE(ELF),DISP=SHR
           //*
        15 //EDIT    EXEC PGM=ASMEDIT,TIME=2,REGION=4000K,
           //             PARM='STMT'
        16 //STEPLIB  DD  DSN=WYL.GG.SYS.LINKLIB,DISP=SHR
        17 //ASMOUT   DD  DSN=&PRINT,DISP=(OLD,DELETE)
        18 //SYSPRINT DD  SYSOUT=A
1 STMT NO. MESSAGE
 -
        10 IGD01010I STORCLAS= TEMP STORGROUP =
        10 IGD01010I STORGRP=VIO ASSIGNED.
        12 IGD01010I STORCLAS= TEMP STORGROUP =
        12 IGD01010I STORGRP=VIO ASSIGNED.
 ICH70001I GG$SLP   LAST ACCESS AT 12:35:09 ON MONDAY, MARCH 15, 2004
 IEF142I MIL#ELF $$QUIET - STEP WAS EXECUTED - COND CODE 0000
 *********************************************************************************
 *   MIL#ELF /$$QUIET /                    Return Code      Zero                 *
 *   Region used      260K (16K user + 244K system)                              *
 *   Extended region  9464K (4K user + 9460K system)                             *
 *                                                                               *
 *   Paging              In      Out                                             *
 *   Private <-> Aux      0        0       CPU time (TCB)   00:00:00.01          *
 *   Private <-> Exp      0        0       CPU time (SRB)   00:00:00.00          *
 *   VIO                  0        0       Elapsed time    917:52:33.08          *
 *   Common               0      ---                                             *
 *                                                                               *
 *                                                                               *
 *   CPU Usage          0.18         $0.11  Standard Processing Unit Equivalent  *
 *                                   $0.11  Total Step execution charge          *
 *                                                                               *
 *    I/O count  DDname   Type Addr           I/O count  DDname   Type Addr      *
 *                         *** No I/O for this step ***                          *
 *********************************************************************************
 IEF373I STEP/$$QUIET /START 2004075.1235
 IEF374I STEP/$$QUIET /STOP  2004075.1235 CPU    0MIN 00.01SEC SRB    0MIN 00.00SEC VIRT    16K SYS   244K EXT       4K SYS    9460K
 IEF236I ALLOC. FOR MIL#ELF ASM
 IEF237I 04DC ALLOCATED TO SYSLIB
 IEF237I 04DC ALLOCATED TO
 IEF237I 04DC ALLOCATED TO
 IEF237I 0402 ALLOCATED TO
 IEF237I 04A0 ALLOCATED TO
 IEF237I 04A0 ALLOCATED TO
 IGD101I SMS ALLOCATED TO DDNAME (SYSUT1  )
         DSN (SYS04075.T123519.RA000.MIL#ELF.SYSUT1.H01   )
         STORCLAS (TEMP) MGMTCLAS (        ) DATACLAS (        )
         VOL SER NOS= VIO
 IEF237I JES2 ALLOCATED TO SYSTERM
 IGD101I SMS ALLOCATED TO DDNAME (SYSPRINT)
         DSN (SYS04075.T123519.RA000.MIL#ELF.PRINT.H01    )
         STORCLAS (TEMP) MGMTCLAS (        ) DATACLAS (        )
         VOL SER NOS= SCR100
 IEF237I JES2 ALLOCATED TO SYSUDUMP
 IEF237I 04DC ALLOCATED TO SYSIN
 IEF142I MIL#ELF ASM - STEP WAS EXECUTED - COND CODE 0000
 IEF285I   WYL.GS.MIL.MILTEN.MACLIB                     KEPT
 IEF285I   VOL SER NOS= SYSB05.
 IEF285I   WYL.GG.SYS.MACLIB                            KEPT
 IEF285I   VOL SER NOS= SYSB05.
 IEF285I   SYS3.IS.MACLIB                               KEPT
 IEF285I   VOL SER NOS= SYSB05.
 IEF285I   SYS3.MACLIB                                  KEPT
 IEF285I   VOL SER NOS= SYSB02.
 IEF285I   SYS1.MACLIB                                  KEPT
 IEF285I   VOL SER NOS= MVSBR9.
 IEF285I   SYS1.MODGEN                                  KEPT
 IEF285I   VOL SER NOS= MVSBR9.
 IGD105I SYS04075.T123519.RA000.MIL#ELF.SYSUT1.H01    DELETED,   DDNAME=SYSUT1
 IEF285I   GG$SLP.MIL#ELF.JOB03415.D0000101.?           SYSOUT
 IGD106I SYS04075.T123519.RA000.MIL#ELF.PRINT.H01     PASSED,    DDNAME=SYSPRINT
 IEF285I   GG$SLP.MIL#ELF.JOB03415.D0000102.?           SYSOUT
 IEF285I   WYL.GS.MIL.MILTEN.SOURCE                     KEPT
 IEF285I   VOL SER NOS= SYSB05.
 *********************************************************************************
 *   MIL#ELF /ASM     /                    Return Code      Zero                 *
 *   Region used      4372K (4096K user + 276K system)                           *
 *   Extended region  10072K (412K user + 9660K system)                          *
 *                                                                               *
 *   Paging              In      Out                                             *
 *   Private <-> Aux      0        0       CPU time (TCB)   00:00:07.80          *
 *   Private <-> Exp      0        0       CPU time (SRB)   00:00:00.06          *
 *   VIO                  0        0       Elapsed time    917:52:31.95          *
 *   Common               0      ---                                             *
 *                                                                               *
 *                                                                               *
 *   CPU Usage        146.25        $90.67  Standard Processing Unit Equivalent  *
 *                                  $90.67  Total Step execution charge          *
 *                                                                               *
 *    I/O count  DDname   Type Addr           I/O count  DDname   Type Addr      *
 *          287  SYSLIB   Disk 04DC                   0  SYSLIB   Disk 04DC      *
 *            0  SYSLIB   Disk 04DC                   7  SYSLIB   Disk 0402      *
 *           38  SYSLIB   Disk 04A0                   0  SYSLIB   Disk 04A0      *
 *          422  SYSUT1   VIO  ----                   0  SYSTERM       ----      *
 *          414  SYSPRINT Disk 038B                   0  SYSUDUMP      ----      *
 *           70  SYSIN    Disk 04DC                                              *
 *********************************************************************************
 IEF373I STEP/ASM     /START 2004075.1235
 IEF374I STEP/ASM     /STOP  2004075.1235 CPU    0MIN 07.80SEC SRB    0MIN 00.06SEC VIRT  4096K SYS   276K EXT     412K SYS    9660K
 IEF236I ALLOC. FOR MIL#ELF EDIT
 IEF237I 0402 ALLOCATED TO STEPLIB
 IGD103I SMS ALLOCATED TO DDNAME ASMOUT
 IEF237I JES2 ALLOCATED TO SYSPRINT
 IEF142I MIL#ELF EDIT - STEP WAS EXECUTED - COND CODE 0000
 IEF285I   WYL.GG.SYS.LINKLIB                           KEPT
 IEF285I   VOL SER NOS= SYSB02.
 IGD105I SYS04075.T123519.RA000.MIL#ELF.PRINT.H01     DELETED,   DDNAME=ASMOUT
 IEF285I   GG$SLP.MIL#ELF.JOB03415.D0000103.?           SYSOUT
 *********************************************************************************
 *   MIL#ELF /EDIT    /                    Return Code      Zero                 *
 *   Region used      380K (116K user + 264K system)                             *
 *   Extended region  9584K (4K user + 9580K system)                             *
 *                                                                               *
 *   Paging              In      Out                                             *
 *   Private <-> Aux      0        0       CPU time (TCB)   00:00:01.28          *
 *   Private <-> Exp      0        0       CPU time (SRB)   00:00:00.04          *
 *   VIO                  0        0       Elapsed time    917:52:13.00          *
 *   Common               0      ---                                             *
 *                                                                               *
 *                                                                               *
 *   CPU Usage         24.00        $14.88  Standard Processing Unit Equivalent  *
 *                                  $14.88  Total Step execution charge          *
 *                                                                               *
 *    I/O count  DDname   Type Addr           I/O count  DDname   Type Addr      *
 *            2  STEPLIB  Disk 0402                 415  ASMOUT   Disk 038B      *
 *            0  SYSPRINT      ----                                              *
 *********************************************************************************
 IEF373I STEP/EDIT    /START 2004075.1235
 IEF374I STEP/EDIT    /STOP  2004075.1235 CPU    0MIN 01.28SEC SRB    0MIN 00.04SEC VIRT   116K SYS   264K EXT       4K SYS    9580K
 *********************************************************************************
 *                                                                               *
 *                      S t a n f o r d   U n i v e r s i t y                    *
 *                                                                               *
 *                              *** Job Summary ***                              *
 *                                                                               *
 *   System Id      SYSB                   Input time     12:35:09  Mar 15, 2004 *
 *                                                                               *
 *   System Release SP6.1.0                Start time     12:35:19  Mar 15, 2004 *
 *                                                                               *
 *   Job name       MIL#ELF                Stop  time     00:00:00  Mar 15, 2004 *
 *                                                                               *
 *   Account        SLP$GG                 Elapsed time  917:52:33.08            *
 *                                                                               *
 *   User Name      Assemble ELF           CPU time       00:00:09.09            *
 *                                                                               *
 *   Job class      B                      SRB Time       00:00:00.10            *
 *                                                                               *
 *********************************************************************************
 IEF375I  JOB/MIL#ELF /START 2004075.1235
 IEF376I  JOB/MIL#ELF /STOP  2004075.1235 CPU    0MIN 09.09SEC SRB    0MIN 00.10SEC
1Assembler Done ELF No Statements Flagged
1         High Level Assembler Option Summary                   (PTF UQ57391)                                               Page    1
-                                                                                            HLASM R4.0  2004/03/15 12.35
0  No Overriding ASMAOPT Parameters
   Overriding Parameters-  NORENT,TERM,FLAG(NOCONT),US(MAP,WARN(10)),NODECK,LC(32767),XREF(SHORT),ESD,DXREF,NOOBJECT
   No Process Statements


   Options for this Assembly
0  NOADATA
     ALIGN
   NOASA
     BATCH
     CODEPAGE(047C)
   NOCOMPAT
   NODBCS
 3 NODECK
 3   DXREF
 3   ESD
   NOEXIT
 3   FLAG(0,ALIGN,NOCONT,NOIMPLEN,NOPAGE0,PUSH,RECORD,NOSUBSTR,USING0)
   NOFOLD
   NOGOFF
   NOINFO
     LANGUAGE(EN)
   NOLIBMAC
 3   LINECOUNT(32767)
     LIST(121)
     MXREF(SOURCE)
 3 NOOBJECT
     OPTABLE(UNI,NOLIST)
   NOPCONTROL
   NOPESTOP
   NOPROFILE
   NORA2
 3 NORENT
     RLD
     RXREF
     SIZE(MAX)
     SYSPARM()
 3   TERM(WIDE)
   NOTEST
     THREAD
   NOTRANSLATE
 3   USING(NOLIMIT,MAP,WARN(10))
 3   XREF(SHORT)

   No Overriding DD Names

1ELF      External Symbol Dictionary                                                                                        Page    2
-Symbol   Type   Id     Address  Length     LD ID  Flags Alias-of                            HLASM R4.0  2004/03/15 12.35
0MILELF    SD 00000001 00000000 000060B0             00
 ELF2047   LD          00000000           00000001
 ELFDEF    LD          00000016           00000001
 DEFPRT    ER 00000002
 ELFPORT   LD          00000140           00000001
 ELFFIN    LD          00000508           00000001
 ELFCNTL   LD          0000098C           00000001
 ELFUPD    LD          00000B8E           00000001
 SCAN      ER 00000003
 GETFEB    ER 00000004
 GETTRC    ER 00000005
 DTB       ER 00000006
 NGETCORE  ER 00000007
 SEGWR     ER 00000008
 SEGINIT   ER 00000009
 GETSIN    ER 0000000A
 SCINIT    ER 0000000B
 UNGETSIN  ER 0000000C
 SCTELL    ER 0000000D
 SEG       ER 0000000E
 SEGCR     ER 0000000F
 SEGDC     ER 00000010
 DEQUOTE   ER 00000011
 PATHINIT  ER 00000012
 SEGINITR  ER 00000013
 LOCALTOD  ER 00000014
 PATHOPEN  ER 00000015
 DISCSESS  ER 00000016
 FREECORE  ER 00000017
 TIMERDQ   ER 00000018
 FREEPIB   ER 00000019
 PATHCLS   ER 0000001A
 SEGCLR    ER 0000001B
 ELFDO     LD          00000F34           00000001
 FREESCB   ER 0000001C
 SUBSEND   ER 0000001D
 ELFPOST   LD          00001866           00000001
 PATHREAD  ER 0000001E
 GETPIB    ER 0000001F
 BTD       ER 00000020
 TIMERQ    ER 00000021
 GETSCB    ER 00000022
 INCRSES   ER 00000023
 SEGT      ER 00000024
 SUBSTART  ER 00000025
 SCANTOK   ER 00000026
 LRTRIM    ER 00000027
 RTRIM     ER 00000028
 TOEBCDIC  ER 00000029
 KILLSESS  ER 0000002A
 ELFCMD    LD          00004274           00000001
 ELFFMT    LD          000042AC           00000001
 ELFERR    LD          00004888           00000001
 ELFDIE    LD          000048CA           00000001
 SEGHX     ER 0000002B
1ELF      External Symbol Dictionary                                                                                        Page    3
 SEGTB     ER 0000002C
 SEGB      ER 0000002D
 SEGCOL    ER 0000002E
 FMTTIME   ER 0000002F
 SETELF    LD          000049E0           00000001
 SHOWELF   LD          00004ED0           00000001
 PATHRC    ER 00000030

1ELF      MILTEN'S ELF Interface                                                                                            Page    4
0Loc    Object Code    Addr1 Addr2  Stmt Lv Lineno    Source Statement                    (Asmedit 3.3)  HLASM R4.0  2004/03/15 12.35
+___    ______ ____    _____ _____  ____ __ ______    ______ _________
0                                      2              *******************************************************************
                                       3              *                                                                 *
                                       4              *     MILTEN/370 - Release IV - Class I - Stanford Proprietary    *
                                       5              *                                                                 *
                                       6              *******************************************************************
                                       7                       HIBAL
                                     995              ¿þþþþþþþþþþþþþþþþþþþþþþþþþþþþþþþþþþþþþþþþþþþþþþþþþþþþþþþþþþþþþþþþþþþþþÜ
                                     996              Ÿ                                                                     Ÿ
                                     997              Ÿ  Things to do (2/4/88):                                             Ÿ
                                     998              Ÿ                                                                     Ÿ
                                     999              Ÿ  -  Make IACCHK state driven so that an IAC sequence split across   Ÿ
                                    1000              Ÿ     TCPDATA packets will still work correctly.                      Ÿ
                                    1001              Ÿ                                                                     Ÿ
                                    1002              Ÿ  -  Add support for IAC sub-options (skip IAC SB ... IAC SE).       Ÿ
                                    1003              Ÿ                                                                     Ÿ
                                    1004              Ÿ  -  Support long lines; add a PDB completion flag that says 'more   Ÿ
                                    1005              Ÿ     data waiting' or something.  Server SMTP would use this for     Ÿ
                                    1006              Ÿ     lines of data much longer than a Wylbur line.  We need          Ÿ
                                    1007              Ÿ     something like wrap/split.                                      Ÿ
                                    1008              Ÿ                                                                     Ÿ
                                    1009              Ÿ  -  Complete the implementation of the ELF protocol.                Ÿ
                                    1010              Ÿ                                                                     Ÿ
                                    1011              Ÿ  -  A read which ends with BREAK should return the data if          Ÿ
                                    1012              Ÿ     TRANSPARENT mode.                                               Ÿ
                                    1013              Ÿ                                                                     Ÿ
                                    1014              Ÿ                                                                     Ÿ
                                    1015              Ÿ  Major revisions:                                                   Ÿ
                                    1016              Ÿ                                                                     Ÿ
                                    1017              Ÿ     8/10/90  Niz  Add ELF reconnect protocol and scanning for       Ÿ
                                    1018              Ÿ                   initial parameters.  The reconnect changes        Ÿ
                                    1019              Ÿ                   work with the new Samson/MacSamson, and the       Ÿ
                                    1020              Ÿ                   ELF parameters are passed by the new ELF.         Ÿ
                                    1021              Ÿ                                                                     Ÿ
                                    1022              Ÿ     8/13/90  Niz  Add SET/SHOW ELF commands.                        Ÿ
                                    1023              Ÿ                                                                     Ÿ
                                                      ¾þþþþþþþþþþþþþþþþþþþþþþþþþþþþþþþþþþþþþþþþþþþþþþþþþþþþþþþþþþþþþþþþþþþþþ»
0000000                00000 060B0  1024              MILELF   CSECT
                                    1028              ELF      IDENT 2047                10:16:23 02/16/02  (SLP)
                                    1031             +
                                    1032    01-IDENT +         ENTRY ELF2047
                                    1033             +
 000000 15C5D3C6F2F0F4F7            1034    01-IDENT +ELF2047  DC    AL1(21),C'ELF2047,15MAR04,12:35'
                                    1035             +*
                                    1037                       REGS  ,,FSR,,,,,,BR,SCBR,PIBR,(FEBR,LSR),CVR,SPR,RAR
                                    1169
                                    1170                       PUSH  DSECTS
 USING  CV,R12                      1182             =         USING CV
 000016                00000 060B0  1191             =         POP   PRINT
1ELF      (ELF2047) (12:35) (15MAR04) MILTEN'S ELF Interface                                                                Page    5
0Current Usings:  (CV,R12)
0Loc    Object Code    Addr1 Addr2  Stmt Lv Lineno    Source Statement           (Hibal 5, Asmedit 3.3)  HLASM R4.0  2004/03/15 12.35
+___    ______ ____    _____ _____  ____ __ ______    ______ _________
0                                   2876                       COPY  SUBPOOLS
                                    2877             =WTOQSUBP EQU   11                  Subpool for WTOQ elements
                                    2878             =IOHQSUBP EQU   12                  Subpool for IOHQ elements
                                    2879             =SCBSUBPL EQU   13                  Subpool for SCBs
                                    2880             =TRCSUBPL EQU   14                  Subpool for TRC entries
                                    2881             =TQESUBPL EQU   15                  Timer queue subpool
                                    2882             =FEBSUBPL EQU   16                  FEBs (non-page fixed)
                                    2883             =PIBSUBPL EQU   17                  PIBS (non-page fixed)
                                    2884             =SUBSUBPL EQU   18                  Subsystem blocks
                                    2885             =STRCSUBP EQU   19                  Session trace buffers
                                    2886             =QPDBSUBP EQU   20                  Queued PDBs
                                    2887             =SPDBSUBP EQU   21                  Saved PDBs
                                    2888             =PRMTSUBP EQU   22                  Saved prompts
                                    2889             =RTXTSUBP EQU   23                  Saved read text
                                    2890             =SQPDSUBP EQU   24                  Queued PDBs on subsystem
                                    2891             =CONSQPDB EQU   25                  Queued CONS PDBs
                                    2892             =PATSUBP  EQU   26                  Port address tables
                                    2893             =TRCHSUBP EQU   27                  Device trace table hdrs
                                    2894             =ITBLSUBP EQU   28                  Input xlate table
                                    2895             =MCOMSUBP EQU   29                  MCOM command buffers
                                    2896             =STMPSUBP EQU   30                  MCOM temp trace buffer
                                    2897             =EIBSUBP  EQU   31                  ELF EIB
                                    2898             =AMYQSUBP EQU   32                  Amelia queue ELF
                                    2899             =SOCKSUBP EQU   33                  ELF SOCK control block
                                    2900             =SMSGSUBP EQU   34                  Saved socket msg (ELF)
                                    2901             =PWRTSUBP EQU   35                  ELF Path write subpool
                                    2902             =TELISUBP EQU   36                  Telnet input data buffer
                                    2903             =EPIBSUBP EQU   37                  ELF PIB input buffer
                                    2904             =VPATSUBP EQU   38                  VIRT PAT
                                    2905             =VBUFSUBP EQU   39                  SDD VTAM buffer
                                    2906             =VRUSUBP  EQU   40                  SDD RU
                                    2907             =VDPBSUBP EQU   41                  VTAM dummy PIB
                                    2908             =VPPSUBP  EQU   42                  VTAM PIB parms
                                    2909             =VISTSUBP EQU   43                  VTAM FEB IRB stack
                                    2910             =VACBSUBP EQU   44                  VTAM ACB subpool
                                    2911             =VRPLSUBP EQU   45                  VTAM RPL subpool
                                    2912             =VSRRSUBP EQU   46                  VSRR VBUF
                                    2913             =VNIBSUBP EQU   47                  VSRR NIB
                                    2914             =VBNDSUBP EQU   48                  BIND area VSRR
                                    2915             =VDVCSUBP EQU   49                  DVCHAR subpool VSRR
                                    2916             =VRBFSUBP EQU   50                  Reply buffer
                                    2917             =V3BFSUBP EQU   51                  D3767 VBUF
                                    2918             =RSYNSUBP EQU   52                  RSYN RPL data
                                    2919             =RESPSUBP EQU   53                  RESP RPL subpool
                                    2920             =REXPSUBP EQU   54                  Expedited flow subpool
1ELF      (ELF2047) (12:35) (15MAR04) MILTEN'S ELF Interface                                                                Page    6
0Current Usings:  (CV,R12)
0Loc    Object Code    Addr1 Addr2  Stmt Lv Lineno    Source Statement           (Hibal 5, Asmedit 3.3)  HLASM R4.0  2004/03/15 12.35
+___    ______ ____    _____ _____  ____ __ ______    ______ _________
0                                   2922              ¿þþþþþþþþþþþþþþþþþþþþþþþþþþþþþþþþþþþþþþþþþþþþþþþþþþþþþþþþþþþþþþþþþþþþþÜ
                                    2923              Ÿ                                                                     Ÿ
                                    2924              Ÿ    User Path control block.                                         Ÿ
                                    2925              Ÿ                                                                     Ÿ
                                    2926              Ÿ      MUST BE EXACTLY THE SAME AS MPATH!                             Ÿ
                                    2927              Ÿ                                                                     Ÿ
                                                      ¾þþþþþþþþþþþþþþþþþþþþþþþþþþþþþþþþþþþþþþþþþþþþþþþþþþþþþþþþþþþþþþþþþþþþþ»
0000000                00000 0007C  2928              UPATH    RECORD BEGIN
                                    2936  1           UPAT       MILPATH
                                    2937+ 1          +¿þþþþþþþþþþþþþþþþþþþþþþþþþþþþþþþþþþþþþþþþþþþþþþþþþþþþþþþþþþþþþþþþþþþþþÜ
                                    2938+ 1          +Ÿ                                                                     Ÿ
                                    2939+ 1          +Ÿ    Milten Path control block.                                       Ÿ
                                    2940+ 1          +Ÿ                                                                     Ÿ
                                          1           ¾þþþþþþþþþþþþþþþþþþþþþþþþþþþþþþþþþþþþþþþþþþþþþþþþþþþþþþþþþþþþþþþþþþþþþ»
0000000                             2941  1 01-MILPA +           DS    0F
 000000 D7C1E3C8                    2942  1 01-MILPA +           DC    CL4'PATH'
 000004 00                          2943  1          +*
 UPATFLAG.UPATFOPE 80 ONES
 UPATFLAG.UPATFHDR 40 ONES
 UPATFLAG.UPATFSPR 20 ONES
 UPATFLAG.UPATFOPR 10 ONES
                                    2968  1          +*
 000005                             2969  1 01-MILPA +           DS    XL3                 Reserved
                                    2970  1          +
 000008                             2972  1 02-PATH  +UPAT       DC    0F'0'
 000008 00000000                    2974  1 03-DEFIN +UPATMGC    DC    AL4(0)
 00000C 00000000                    2976  1 03-DEFIN +UPATDJNM   DC    AL4(0)
 000010 D4E8E3C1C7404040            2978  1 03-DEFIN +UPATMY     DC    CL8'MYTAG'
 000018 FFFFFFFFFFFFFFFF            2980  1 03-DEFIN +UPATYOU    DC    XL8'FFFFFFFFFFFFFFFF'
 000020 80                          2982  1 03-DEFIN +UPATMFL    DC    AL1(1*X'80'+0*X'40'+0*X'20')
                                    2983  1          +
                                    2984  1 02-PATH  +UPATVER2    EQU  X'80'         CALLER IS USING VERSION 2
                                    2985  1 02-PATH  +UPATMCTL    EQU  X'40'         CALLER ASKS TERMINATION CONTROL
                                    2986  1 02-PATH  +UPATMNAM    EQU  X'20'         CALLER PROVIDES CALLEE NAME
                                    2987  1 02-PATH  +UPATMDP1    EQU  X'10'         DUPLICATE TAGS FOUND: MY=PCBO, YOU=PCBA
                                    2988  1 02-PATH  +UPATMDP2    EQU  X'08'         DUPLICATE TAGS FOUND: MY=PCBA, YOU=PCBO
                                    2989  1          +
 000021 000000                      2991  1 03-DEFIN +UPATOECB   DC    AL3(0)
 000024 00004000                    2993  1 03-DEFIN +UPATBUF    DC    AL4(16384)
 000028 00000040                    2995  1 03-DEFIN +UPATECBF   DC    AL4(UPATSFLG)
                                    2996  1          +
                                    2997  1 02-PATH  +UPATFCLS    EQU   X'80'         I AM POSTED BECAUSE HE CLOSED
                                    2998  1 02-PATH  +UPATFFQE    EQU   X'40'         I AM POSTED BECAUSE HIS FULL Q EMPTIED
                                    2999  1 02-PATH  +UPATFNI     EQU   X'20'         I AM POSTED BECAUSE NEW INFO IN MY Q
                                    3000  1 02-PATH  +UPATFDP     EQU   X'10'         I AM POSTED AT HIS DISCRETION
                                    3001  1 02-PATH  +UPATFOPN    EQU   X'08'         I AM POSTED BECAUSE HE OPENED
                                    3002  1 02-PATH  +UPATFCLC    EQU   X'04'         I AM POSTED BECAUSE MY CLOSE IS COMPLETE
                                    3003  1          +
 00002C D7D9D6C4                    3005  1 03-DEFIN +UPATPASS   DC    CL4'PROD'
 000030 00000000                    3007  1 03-DEFIN +UPATECB    DC    AL4(*-*)
 000034 00000000                    3009  1 03-DEFIN +UPATEXIT   DC    AL4(0)
 000038 00000000                    3011  1 03-DEFIN +UPATPINP   DC    XL4'0'
1ELF      (ELF2047) (12:35) (15MAR04) MILTEN'S ELF Interface                                                                Page    7
0Current Usings:  (CV,R12)
0Loc    Object Code    Addr1 Addr2  Stmt Lv Lineno    Source Statement           (Hibal 5, Asmedit 3.3)  HLASM R4.0  2004/03/15 12.35
+___    ______ ____    _____ _____  ____ __ ______    ______ _________
000003C 00000000                    3013  1 03-DEFIN +UPATRESV   DC    XL4'0'
                                    3014  1          +*
                                    3015  1          +*  VERSION 2 RETURN CODES
                                    3016  1          +*
                                    3017  1 02-PATH  +UPATROK     EQU  0                       COMPLETE OK
                                    3018  1 02-PATH  +UPATRIFC    EQU  4                       INVALID FUNCTION CODE
                                    3019  1 02-PATH  +UPATRPMW    EQU  8                       INVALID PATH MAGIC WORD
                                    3020  1 02-PATH  +UPATRBAF    EQU  12                      PARTNER'S BUFFER AREA FULL
                                    3021  1 02-PATH  +UPATRNOP    EQU  16                      PARTNER NOT THERE
                                    3022  1 02-PATH  +UPATRBOM    EQU  20                      BUFFER OVER PARTNER'S MAXIMUM
                                    3023  1 02-PATH  +UPATRIBS    EQU  24                      RECEIVE BUFFER TOO SMALL
                                    3024  1 02-PATH  +UPATRBPI    EQU  28                      INVALID BUFFER POINTER
                                    3025  1 02-PATH  +UPATRIAD    EQU  32                      INVALID ADDRESS
                                    3026  1 02-PATH  +UPATRES1    EQU  36                      RESERVED
                                    3027  1 02-PATH  +UPATRES2    EQU  40                      RESERVED
                                    3028  1 02-PATH  +UPATRES3    EQU  44                      RESERVED
                                    3029  1 02-PATH  +UPATRES4    EQU  48                      RESERVED
                                    3030  1          +
                                    3031  1 02-PATH  +UPATSIZE    EQU  *-UPAT        LENGTH OF PATH BLOCK
                                    3032  1          +
 000040 00                          3033  1 01-MILPA +UPATSFLG   DC    X'00'               Suzan post flag
                                    3034  1          +* Suzan needs to be able to access one word at "&L.SFLG", so
                                    3035  1          +* just to be safe we always have a word of padding in our UPATH.
 000041 000000                            1          +
 000044 FFFFFFFF                    3036  1 01-MILPA +           DC    F'-1'               Padding (must be present)
                                    3037  1          +
 000048 00000000                    3038  1 01-MILPA +UPATPASC   DC    F'0'                Partner's ASCB ptr
 00004C 0000                        3039  1 01-MILPA +UPATPLNO   DC    H'0'                Partner's line number
 00004E 0000000000000000            3040  1 01-MILPA +UPATPJOB   DC    XL8'00'             Partner's jobname
 000056 0000000000000000            3041  1 01-MILPA +UPATPACT   DC    XL8'00'             Partner's account
 00005E 0000000000000000            3042  1 01-MILPA +UPATPNAM   DC    XL20'00'            Partner's user name
                                    3043  1          +
 000072 0000                              1          +
 000074 0000000000000000            3044  1 01-MILPA +UPATRCP    DC    2A(0)               Error msg loc, len
 00007C                0007C 0007C  3045                       END
1ELF      (ELF2047) (12:35) (15MAR04) MILTEN'S ELF Interface                                                                Page    8
0Current Usings:  (CV,R12)
0Loc    Object Code    Addr1 Addr2  Stmt Lv Lineno    Source Statement           (Hibal 5, Asmedit 3.3)  HLASM R4.0  2004/03/15 12.35
+___    ______ ____    _____ _____  ____ __ ______    ______ _________
0000000                00000 001A4  3055              FEB      RECORD BEGIN
                                    3063  1                      COPY  FEB
                                    3064= 1          =¿þþþþþþþþþþþþþþþþþþþþþþþþþþþþþþþþþþþþþþþþþþþþþþþþþþþþþþþþþþþþþþþþþþþþþÜ
                                    3065= 1          =Ÿ                                                                     Ÿ
                                    3066= 1          =Ÿ  Front End Block                                                    Ÿ
                                    3067= 1          =Ÿ                                                                     Ÿ
                                          1           ¾þþþþþþþþþþþþþþþþþþþþþþþþþþþþþþþþþþþþþþþþþþþþþþþþþþþþþþþþþþþþþþþþþþþþþ»
0000000                             3068  1          =           DS    CL4'FEB'
 000004                             3069  1          =FEBID      DS    H                   Unique identifier
 000006                             3070  1          =           DS    H                   Reserved
                                    3071  1          =
 000008                             3072  1          =FEBLINK    DS    A                   Ptr to next FEB (or zero)
                                    3073  1          =
 00000C 00                          3074  1          =FEBGFLG    FLAG
 FEBGFLG.FEBFFIX   80 ONES          3078  1          =           FLAG  FEBFFIX             - FEB is in page-fixed core
 FEBGFLG.FEBFOPEN  40 ONES          3083  1          =           FLAG  FEBFOPEN            - Front-end is open
                                    3088  1          =
 00000D                             3089  1          =FEBTYPE    DS    X                   Type
                                    3090  1          =FEBTCONS   EQU   1                   - Console
                                    3091  1          =FEBTASYN   EQU   2                   - Async (3705ep, 1270, etc.)
                                    3092  1          =FEBTPDP    EQU   3                   - Pdp
                                    3093  1          =FEBTVTAM   EQU   4                   - Vtam
                                    3094  1          =FEBTVIRT   EQU   5                   - Virtual
                                    3095  1          =FEBTNSC    EQU   6                   - Nsc (RLIN)
                                    3096  1          =FEBTELF    EQU   7                   - Elf
                                    3097  1          =FEBTALF    EQU   8                   - Alf
                                    3098  1          =FEBTECU    EQU   9                   - ECU (RLIN)
                                    3099  1          =FEBTMAX    EQU   9
                                    3100  1          =
 000010                             3101  1          =           DS    0F
 000010                             3102  1          =FEBUC      DS    H                   Update count
 000012                             3103  1          =FEBTMLIM   DS    H                   Notime limit during PEAK times
                                    3104  1          =
 000014                             3105  1          =FEBNAME    DS    CL8                 Name
 00001C                             3106  1          =FEBINFO    DS    CL12                Info (text)
                                    3107  1          =
 000028                             3108  1          =FEBMCLCK   DS    XL8                 Clock when message was set
 000030                             3109  1          =FEBMSG     DS    CL64                Message
                                    3110  1          =
 000070 00                          3111  1          =FEBPFLG    FLAG
 FEBPFLG.FEBFPS    80 ONES          3115  1          =           FLAG  FEBFPS              - "Pseudo" front-end
 FEBPFLG.FEBFLEAS  40 ONES          3120  1          =           FLAG  FEBFLEAS            - Front-end is leased
 FEBPFLG.FEBFRLIN  20 ONES          3125  1          =           FLAG  FEBFRLIN            - Front-end belongs to rlin
                                    3130  1          =
 000071 00                          3131  1          =FEBPFLG2   FLAG
 FEBPFLG2.FEBFCLS  80 ONES          3135  1          =           FLAG  FEBFCLS             - Closed
 FEBPFLG2.FEBFDET  40 ONES          3140  1          =           FLAG  FEBFDET             - Detached
 FEBPFLG2.FEBFDOWN 20 ONES          3145  1          =           FLAG  FEBFDOWN            - Status: down
                                    3150  1          =
 000072                             3151  1          =FEBQMAX    DS    H                   Max I/O queue size (for stats)
                                    3152  1          =
 000074                             3153  1          =FEBPCUR    DS    H                   Current no. of ports
 000076                             3154  1          =FEBPMAX    DS    H                   Max no. of ports
1ELF      (ELF2047) (12:35) (15MAR04) MILTEN'S ELF Interface                                                                Page    9
0Current Usings:  (CV,R12)
0Loc    Object Code    Addr1 Addr2  Stmt Lv Lineno    Source Statement           (Hibal 5, Asmedit 3.3)  HLASM R4.0  2004/03/15 12.35
+___    ______ ____    _____ _____  ____ __ ______    ______ _________
0                                   3155  1          =
 000078                             3156  1          =FEBSCLCK   DS    XL8                 Clock at start
                                    3157  1          =
 000080                             3158  1          =FEBSCUR    DS    H                   Current no. of sessions
 000082                             3159  1          =FEBSMAX    DS    H                   Max no. of sessions
 000084                             3160  1          =FEBSMCLK   DS    XL8                 Clock at max
 00008C                             3161  1          =FEBNSES    DS    F                   Total no. of sessions
                                    3162  1          =
 000090                             3163  1          =FEBNIO     DS    F                   Total no. of I/O's
 000094                             3164  1          =FEBNHWE    DS    F                   Total no. of hw errors
                                    3165  1          =FEBBASIC   EQU   FEBUC,*-FEBUC,C'X'  ******
                                    3166  1          =
 000098                             3167  1          =FEBPATP    DS    A                   PAT ptr
                                    3168  1          =
 00009C                             3169  1          =FEBTRCP    DS    4A                  Trace ptrs: len,cur,first,end
                                    3170  1          =
 0000AC                             3171  1          =           DS    2F                  Reserved
                                    3172  1          =
 0000B8                             3173  1          =           DS    0D
                                    3174  1           *****  DEVICE DEPENDENT LINE
 0000B8 00                          3175  1           FEBTFLG1   FLAG
 FEBTFLG1.FEBFCTRL 80 ONES          3179  1                      FLAG  FEBFCTRL            - Segging "control" information
 FEBTFLG1.FEBFASC  40 ONES          3184  1                      FLAG  FEBFASC             - Translate seg data to ASCII
                                    3189  1
 0000BA                             3190  1           FEBPLAST   DS    H                   Last port number assigned
                                    3191  1
 0000C0                             3192  1                      DS    0D
 0000C0                             3193  1           FEBUPATH   DS    XL(L'UPATH)         Room for UPATH
                                    3194  1           *
 00013C 00/00/0000/00000_           3196  1           FEBUSG     SEGCB ,                   SEGCB for path writes
 FEBUSGCOD.FEBUSGS 01 EQ
 FEBUSGCOD.FEBUSGW 02 EQ
 FEBUSGCOD.FEBUSGC 03 EQ
 FEBUSGCOD.FEBUSGS 04 EQ
 FEBUSGCOD.FEBUSGO 05 EQ
 FEBUSGCOD.FEBUSGC 06 EQ
 FEBUSGCOD.FEBUSGM 07 EQ
                                    3285  1           *
 000178                             3286  1           FEBAPATH   DS    CL8                 Amelia's pathname (YOURTAG=)
 000180                             3287  1           FEBSOCKH   DS    A                   Socket listen queue head
 000184                             3288  1           FEBFLOWH   DS    F                   Flow control: high water mark
 000188                             3289  1           FEBFLOWL   DS    F                   Flow control: low water mark
                                    3290  1
 00018C 0000000000000000            3291  1           FEBRCP     DC    2A(0)               Return code string len, loc
                                    3292  1
 000194                             3293  1           FEBAMY#E   DS    F                   Number of Suzan errors
 000198                             3294  1           FEBAMY#F   DS    F                   Number of full queue conditions
                                    3295  1
 00019C                             3296  1           FEBAMYQH   DS    A                   Amelia full queue head ptr
 0001A0                             3297  1           FEBAMYQT   DS    A                   Amelia full queue tail ptr
 0001A4                001A4 001A4  3298                       END
1ELF      (ELF2047) (12:35) (15MAR04) MILTEN'S ELF Interface                                                                Page   10
0Current Usings:  (CV,R12)
0Loc    Object Code    Addr1 Addr2  Stmt Lv Lineno    Source Statement           (Hibal 5, Asmedit 3.3)  HLASM R4.0  2004/03/15 12.35
+___    ______ ____    _____ _____  ____ __ ______    ______ _________
0                                   3308              ¿þþþþþþþþþþþþþþþþþþþþþþþþþþþþþþþþþþþþþþþþþþþþþþþþþþþþþþþþþþþþþþþþþþþþþÜ
                                    3309              Ÿ                                                                     Ÿ
                                    3310              Ÿ  External front-end packet header                                   Ÿ
                                    3311              Ÿ                                                                     Ÿ
                                                      ¾þþþþþþþþþþþþþþþþþþþþþþþþþþþþþþþþþþþþþþþþþþþþþþþþþþþþþþþþþþþþþþþþþþþþþ»
0000000                00000 00014  3312              HDR      RECORD BEGIN
 000000                             3320  1           HDRID      DS    CL4'ELF0'           Self identification ID
                                    3321  1
 000004                             3322  1           HDRTYPE    DS    C                   >=from MILTEN; <=to MILTEN
 000005                             3323  1           HDRCMD     DS    C                   Command code
                                    3324  1           HDRFRD     EQU   C'R',,C'N'          - Terminal read
                                    3325  1           HDRFWR     EQU   C'W',,C'N'          - Terminal write
                                    3326  1           HDRFHALT   EQU   C'H',,C'N'          - Halt the last operation
                                    3327  1           HDRFINFO   EQU   C'I',,C'N'          - Session info (set terminal)
                                    3328  1           HDRFSOS    EQU   C'S',,C'N'          - Start a session
                                    3329  1           HDRFEOS    EQU   C'E',,C'N'          - End a session
                                    3330  1
 000006                             3331  1           HDRCPL     DS    C                   Completion code
                                    3332  1           HDRRNORM   EQU   C' ',,C'N'          - Normal completion
                                    3333  1           HDRRATTN   EQU   C'A',,C'N'          - Attn completion
                                    3334  1           HDRRHALT   EQU   C'H',,C'N'          - Ended because of halt
                                    3335  1           HDRRERR    EQU   C'E',,C'N'          - Ended with error
                                    3336  1
 000007                             3337  1           HDRBLANK   DS    C                   Blank (reserved)
                                    3338  1           HDRXL      EQU   HDRID,*-HDRID,C'X'  (Parts of HDR to translate)
                                    3339  1
 000008 00                          3340  1           HDROFLG    FLAG
 HDROFLG.HDRFDISP  80 ONES          3344  1                      FLAG  HDRFDISP            - Display mode I/O
 HDROFLG.HDRFSTIB  40 ONES          3349  1                      FLAG  HDRFSTIB            - Suppress trailing input blanks
 HDROFLG.HDRFRUND  20 ONES          3354  1                      FLAG  HDRFRUND            - Rundown mode (for reads)
 HDROFLG.HDRFTAH   10 ONES          3359  1                      FLAG  HDRFTAH             - Typeahead mode
 HDROFLG.HDRFUPL   08 ONES          3364  1                      FLAG  HDRFUPL             - Uplow
 HDROFLG.HDRFTRAN  04 ONES          3369  1                      FLAG  HDRFTRAN            - Transparent I/O
 HDROFLG.HDRFBACK  02 ONES          3374  1                      FLAG  HDRFBACK            - Back
 HDROFLG.HDRFNWA   01 ONES          3379  1                      FLAG  HDRFNWA             - No write attentions
                                    3384  1
 000009 00                          3385  1           HDROFLG2   FLAG
 HDROFLG2.HDRFNECH 80 ONES          3389  1                      FLAG  HDRFNECH            - Noecho
 HDROFLG2.HDRFNST  40 ONES          3394  1                      FLAG  HDRFNST             - No stars on read attn
 HDROFLG2.HDRFSLOW 20 ONES          3399  1                      FLAG  HDRFSLOW            - Slow (no tabs)
 HDROFLG2.HDRFXON  10 ONES          3404  1                      FLAG  HDRFXON             - Send XON char for reads
 HDROFLG2.HDRFFILT 08 ONES          3409  1                      FLAG  HDRFFILT            - Filter input ctrl chars
 HDROFLG2.HDRFNLF  04 ONES          3414  1                      FLAG  HDRFNLF             - No read LF on CR
 HDROFLG2.HDRFHALF 02 ONES          3419  1                      FLAG  HDRFHALF            - Half duplex terminal (noecho)
 HDROFLG2.HDRFNMOD 01 ONES          3424  1                      FLAG  HDRFNMOD            - No model terminal translation
                                    3429  1
 00000A 00                          3430  1           HDROFLG3   FLAG
 HDROFLG3.HDRFVFAS 80 ONES          3434  1                      FLAG  HDRFVFAST           - View fast mode
 HDROFLG3.HDRFBUFI 40 ONES          3439  1                      FLAG  HDRFBUFIO           - Buffered (transparent) I/O
                                    3444  1
 00000B 00                          3445  1           HDROFLG4   FLAG
                                    3449  1
 00000C                             3450  1           HDRRSV     DS    F                   Reserved (zeros)
1ELF      (ELF2047) (12:35) (15MAR04) MILTEN'S ELF Interface                                                                Page   11
0Current Usings:  (CV,R12)
0Loc    Object Code    Addr1 Addr2  Stmt Lv Lineno    Source Statement           (Hibal 5, Asmedit 3.3)  HLASM R4.0  2004/03/15 12.35
+___    ______ ____    _____ _____  ____ __ ______    ______ _________
0                                   3451  1
 000010                             3452  1           HDRINMAX   DS    H                   Max input data length (for READ)
                                    3453  1
 000012                             3454  1           HDRLEN     DS    H                   Length of data that follows
                                    3455  1
                                    3456  1           HDRTEXT    EQU   *                   Text (if any) starts here
 000014                00014 00014  3457                       END
1ELF      (ELF2047) (12:35) (15MAR04) MILTEN'S ELF Interface                                                                Page   12
0Current Usings:  (CV,R12)
0Loc    Object Code    Addr1 Addr2  Stmt Lv Lineno    Source Statement           (Hibal 5, Asmedit 3.3)  HLASM R4.0  2004/03/15 12.35
+___    ______ ____    _____ _____  ____ __ ______    ______ _________
0                                   3467              ¿þþþþþþþþþþþþþþþþþþþþþþþþþþþþþþþþþþþþþþþþþþþþþþþþþþþþþþþþþþþþþþþþþþþþþÜ
                                    3468              Ÿ                                                                     Ÿ
                                    3469              Ÿ  Socket Information Entry                                           Ÿ
                                    3470              Ÿ                                                                     Ÿ
                                                      ¾þþþþþþþþþþþþþþþþþþþþþþþþþþþþþþþþþþþþþþþþþþþþþþþþþþþþþþþþþþþþþþþþþþþþþ»
0000000                00000 000FC  3471              SOCK     RECORD BEGIN
 000000                             3479  1           SOCKID     DS    CL4'SOCK'           Self identification
 000004                             3480  1           SOCKLINK   DS    A                   Next SOCK ptr (or zero)
                                    3481  1
 000008 00                          3482  1           SOCKPROTO   FLAG
 SOCKPROTO.SOCKPEL 01 EQ            3486  1                      FLAG  (SOCKPELF,1,EQ)        - ELF protocol
 SOCKPROTO.SOCKPRE 02 EQ            3496  1                      FLAG  (SOCKPRECONNECT,2,EQ)  - RECONNECT protocol
 SOCKPROTO.SOCKPTE 03 EQ            3506  1                      FLAG  (SOCKPTELNET,3,EQ)     - TELNET protcol
                                    3516  1
 000009 00                          3517  1           SOCKFLAG   FLAG
 SOCKFLAG.SOCKFIAC 80 ONES          3521  1                      FLAG  SOCKFIAC            - Use IAC sequences
 SOCKFLAG.SOCKFLIS 40 ONES          3526  1                      FLAG  SOCKFLISTEN         - We are listening to this socket
 SOCKFLAG.SOCKFTRA 20 ONES          3531  1                      FLAG  SOCKFTRACE          - Trace session I/Os
 SOCKFLAG.SOCKFKEE 10 ONES          3536  1                      FLAG  SOCKFKEEP           - Keep after logoff (for debugging)
                                    3541  1
 00000A                             3542  1                      DS    XL3                 Reserved
                                    3543  1
 000010                             3544  1           SOCKNO     DS    F                   Socket number to listen on
 000014                             3545  1           SOCKMAX    DS    F                   Max number of sessions to allow
 000018                             3546  1           SOCKFLOH   DS    F                   Flow control: high water mark
 00001C                             3547  1           SOCKFLOL   DS    F                   Flow control: low water mark
 000020                             3548  1           SOCKSYS    DS    CL8                 Initial subsystem name (or zeros)
 000028                             3549  1           SOCKACCT   DS    CL(L'SCBACCT)       Session account (uuugg)
 00002D                             3550  1           SOCKCMD    DS    CL200               First command to execute
                                    3551  1
 0000F6                             3552  1           SOCKMSGL   DS    H                   Initial message text length
 0000F8                             3553  1           SOCKMSGP   DS    A                   Message text ptr
 0000FC                000FC 000FC  3554                       END
1ELF      (ELF2047) (12:35) (15MAR04) MILTEN'S ELF Interface                                                                Page   13
0Current Usings:  (CV,R12)
0Loc    Object Code    Addr1 Addr2  Stmt Lv Lineno    Source Statement           (Hibal 5, Asmedit 3.3)  HLASM R4.0  2004/03/15 12.35
+___    ______ ____    _____ _____  ____ __ ______    ______ _________
0                                   3564              ¿þþþþþþþþþþþþþþþþþþþþþþþþþþþþþþþþþþþþþþþþþþþþþþþþþþþþþþþþþþþþþþþþþþþþþÜ
                                    3565              Ÿ                                                                     Ÿ
                                    3566              Ÿ  Special control byte values.                                       Ÿ
                                    3567              Ÿ                                                                     Ÿ
                                                      ¾þþþþþþþþþþþþþþþþþþþþþþþþþþþþþþþþþþþþþþþþþþþþþþþþþþþþþþþþþþþþþþþþþþþþþ»
0                                   3568              $CTRLC   EQU   X'03',,C'N'         Ctrl-C (treated as break)
                                    3569              $LF      EQU   X'0A',,C'N'         Line-feed
                                    3570              $CR      EQU   X'0D',,C'N'         Carriage return
                                    3571
                                    3572              $SE      EQU   X'F0',,C'N'         240: End of subparms
                                    3573              $NOP     EQU   X'F1',,C'N'         241: No operation
                                    3574              $DM      EQU   X'F2',,C'N'         242: Data mark
                                    3575              $BRK     EQU   X'F3',,C'N'         243: Break
                                    3576              $IP      EQU   X'F4',,C'N'         244: Interrupt process
                                    3577              $ABORT   EQU   X'F5',,C'N'         245: Abort output
                                    3578              $AYT     EQU   X'F6',,C'N'         246: Are you there
                                    3579              $EC      EQU   X'F7',,C'N'         247: Erase character
                                    3580              $EL      EQU   X'F8',,C'N'         248: Erase line
                                    3581              $GA      EQU   X'F9',,C'N'         249: Go ahead
                                    3582              $SB      EQU   X'FA',,C'N'         250: Start of subparms
                                    3583              $WILL    EQU   X'FB',,C'N'         251: Will
                                    3584              $WONT    EQU   X'FC',,C'N'         252: Won't
                                    3585              $DO      EQU   X'FD',,C'N'         253: Do
                                    3586              $DONT    EQU   X'FE',,C'N'         254: Don't
                                    3587              $IAC     EQU   X'FF',,C'N'         255: I am a control byte
                                    3588
                                    3589              $BINARY  EQU   0,,C'N'             Transmit-binary
                                    3590              $ECHO    EQU   1,,C'N'             Echo
                                    3591              $SGA     EQU   3,,C'N'             Suppress go ahead
                                    3592              $SENDLC  EQU   23,,C'N'            Send Location
                                    3593
                                    3594              $RECON   EQU   180,,C'N'           Reconnect (IAC SB option)
                                    3595              $SBCONN  EQU   0,,C'N'             Connect (IAC SB RECONNECT option)
                                    3596
                                    3597              $CRLF    EQU   1000,,C'N'          Our internal code for CR/LF
                                    3598              $STOP    EQU   1001,,C'N'          Our internal code for "stop!"
1ELF      (ELF2047) (12:35) (15MAR04) MILTEN'S ELF Interface                                                                Page   14
0Current Usings:  (CV,R12)
0Loc    Object Code    Addr1 Addr2  Stmt Lv Lineno    Source Statement           (Hibal 5, Asmedit 3.3)  HLASM R4.0  2004/03/15 12.35
+___    ______ ____    _____ _____  ____ __ ______    ______ _________
0000000                00000 00014  3600              PINFO    RECORD BEGIN
 000000                             3608  1           PINFTABS   DS    CL(L'SCBTABS)       Current tab stops (one byte ea)
 000010                             3609  1           PINFWID    DS    H                   Screen width
 000012                             3610  1           PINFHEI    DS    H                   Screen height
 000014                00014 00014  3611                       END
-000000                00000 00150  3621              PIB      RECORD BEGIN
                                    3629  1                      COPY  PIB
                                    3630= 1          =¿þþþþþþþþþþþþþþþþþþþþþþþþþþþþþþþþþþþþþþþþþþþþþþþþþþþþþþþþþþþþþþþþþþþþþÜ
                                    3631= 1          =Ÿ                                                                     Ÿ
                                    3632= 1          =Ÿ  Port Information Block                                             Ÿ
                                    3633= 1          =Ÿ                                                                     Ÿ
                                          1           ¾þþþþþþþþþþþþþþþþþþþþþþþþþþþþþþþþþþþþþþþþþþþþþþþþþþþþþþþþþþþþþþþþþþþþþ»
0000000                             3634  1          =           DS    CL4'PIB'
 000004                             3635  1          =PIBNO      DS    H                   Port number
 000006                             3636  1          =           DS    H                   Reserved
 000008                             3637  1          =PIBFEBP    DS    A                   FEB ptr
 00000C                             3638  1          =PIBSCBP    DS    A                   SCB ptr
 000010                             3639  1          =PIBDFSYS   DS    CL8                 Default subsystem name (or zeros)
                                    3640  1          =
 000018 00                          3641  1          =PIBGFLG    FLAG
 PIBGFLG.PIBFFIX   80 ONES          3645  1          =           FLAG  PIBFFIX             - PIB is in page-fixed core
                                    3650  1          =
 000019                             3651  1          =PIBTID     DS    CL8                 Pre-assigned terminal id
                                    3652  1          =
 000021                             3653  1          =PIBDFACT   DS    XL5                 Default logon account (uuugg)
                                    3654  1          =
 000026                             3655  1          =PIBTETYP   DS    X                   SMF port type
 000027                             3656  1          =           DS    XL3                 Reserved
                                    3657  1          =
 00002C                             3658  1          =           DS    F                   Reserved
                                    3659  1          =
 000030                             3660  1          =           DS    0F
 000030                             3661  1          =PIBUC      DS    H                   Update count
 000032                             3662  1          =           DS    XL2                 Reserved
                                    3663  1          =
 000034                             3664  1          =PIBNAME    DS    CL8                 Port name
 00003C                             3665  1          =PIBINFO    DS    CL20                Port information (NCC address)
 000050                             3666  1          =PIBLOC     DS    CL20                Port location
                                    3667  1          =
 000064 00                          3668  1          =PIBFLAG    FLAG
 PIBFLAG.PIBFDIAL  80 ONES          3672  1          =           FLAG  PIBFDIAL            - Dial-up
 PIBFLAG.PIBFSUN   40 ONES          3677  1          =           FLAG  PIBFSUN             - SUNet
 PIBFLAG.PIBFDIR   20 ONES          3682  1          =           FLAG  PIBFDIR             - Direct
 PIBFLAG.PIBFGAND  10 ONES          3687  1          =           FLAG  PIBFGAND            - Gandalf
 PIBFLAG.PIBFDUMB  08 ONES          3692  1          =           FLAG  PIBFDUMB            - Dumb front-end (ASYNC, etc.)
                                    3697  1          =
 000065 00                          3698  1          =PIBFLAG2   FLAG
 PIBFLAG2.PIBFLEAS 80 ONES          3702  1          =           FLAG  PIBFLEAS            - Leased
 PIBFLAG2.PIBFTEL  40 ONES          3707  1          =           FLAG  PIBFTEL             - Telenet
 PIBFLAG2.PIBFTYM  20 ONES          3712  1          =           FLAG  PIBFTYM             - Tymnet
 PIBFLAG2.PIBFRLIN 10 ONES          3717  1          =           FLAG  PIBFRLIN            - Rlin
1ELF      (ELF2047) (12:35) (15MAR04) MILTEN'S ELF Interface                                                                Page   15
0Current Usings:  (CV,R12)
0Loc    Object Code    Addr1 Addr2  Stmt Lv Lineno    Source Statement           (Hibal 5, Asmedit 3.3)  HLASM R4.0  2004/03/15 12.35
+___    ______ ____    _____ _____  ____ __ ______    ______ _________
0                                   3722  1          =
 000066 00                          3723  1          =PIBFLAG3   FLAG
 PIBFLAG3.PIBFPS   80 ONES          3727  1          =           FLAG  PIBFPS              - Pseudo session
 PIBFLAG3.PIBFPTID 40 ONES          3732  1          =           FLAG  PIBFPTID            - Terminal id is pre-assigned
 PIBFLAG3.PIBFOP   20 ONES          3737  1          =           FLAG  PIBFOP              - Operator
 PIBFLAG3.PIBFSEC  10 ONES          3742  1          =           FLAG  PIBFSEC             - Secure session
 PIBFLAG3.PIBFSEST 08 ONES          3747  1          =           FLAG  PIBFSESTRC          - Do session tracing
 PIBFLAG3.PIBFSESK 04 ONES          3752  1          =           FLAG  PIBFSESKEEP         - Keep session corpse around
                                    3757  1          =
 000067 00                          3758  1          =PIBFLAG4   FLAG
 PIBFLAG4.PIBFSTOP 80 ONES          3762  1          =           FLAG  PIBFSTOP            - Stopped
 PIBFLAG4.PIBFDET  40 ONES          3767  1          =           FLAG  PIBFDET             - Detached
 PIBFLAG4.PIBFDUM  20 ONES          3772  1          =           FLAG  PIBFDUM             - Dummy
                                    3777  1          =
 000068 00                          3778  1          =PIBFLAG5   FLAG
 PIBFLAG5.PIBFDOWN 80 ONES          3782  1          =           FLAG  PIBFDOWN            - Status: down
 PIBFLAG5.PIBFHU   40 ONES          3787  1          =           FLAG  PIBFHU              - Status: hung-up
 PIBFLAG5.PIBFERR  20 ONES          3792  1          =           FLAG  PIBFERR             - Status: serious error occurred
                                    3797  1          =
 000069                             3798  1          =           DS    X                   Reserved
                                    3799  1          =PIBSIB     EQU   PIBNAME,*-PIBNAME,C'X'
                                    3800  1          =
 00006A                             3801  1          =PIBSCUR    DS    H                   Current no. of sessions
 00006C                             3802  1          =PIBSMAX    DS    H                   Max no. of sessions
 00006E                             3803  1          =PIBSMCLK   DS    XL8                 Clock at max
 000078                             3804  1          =PIBNSES    DS    F                   Total no. of sessions
                                    3805  1          =
 00007C                             3806  1          =PIBNIO     DS    F                   Total no. of I/O's
 000080                             3807  1          =PIBNHWE    DS    F                   Total no. of hw errors
                                    3808  1          =
 000084                             3809  1          =PIBDEVD    DS    F                   Device dependent data
 000088                             3810  1          =           DS    2F                  Reserved
                                    3811  1          =PIBBASIC   EQU   PIBUC,*-PIBUC,C'X'  ******
                                    3812  1          =
 000090                             3813  1          =PIBTRCP    DS    4A                  Trace ptrs: len,cur,first,end
                                    3814  1          =
 0000A0                             3815  1          =           DS    0D
                                    3816  1                      ¿þþþþþþþþþþþþþþþþþþþþþþþþþÜ
                                    3817  1                      Ÿ  DEVICE DEPENDENT LINE  Ÿ
                                    3818  1                      ¾þþþþþþþþþþþþþþþþþþþþþþþþþ»
 0000A0 00                          3819  1           PIBPROTO   FLAG
 PIBPROTO.PIBPELF  01 EQ            3823  1                      FLAG  (PIBPELF,1,EQ)        - ELF protocol
 PIBPROTO.PIBPRECO 02 EQ            3833  1                      FLAG  (PIBPRECONNECT,2,EQ)  - RECONNECT protocol
 PIBPROTO.PIBPTELN 03 EQ            3843  1                      FLAG  (PIBPTELNET,3,EQ)     - TELNET protcol
                                    3853  1
 0000A1 00                          3854  1           PIBAFLG1   FLAG
 PIBAFLG1.PIBFCLOS 80 ONES          3858  1                      FLAG  PIBFCLOSING         - TCP connection is closing
 PIBAFLG1.PIBFREAD 40 ONES          3863  1                      FLAG  PIBFREAD            - Subsystem waiting for read data
 PIBAFLG1.PIBFREOF 20 ONES          3868  1                      FLAG  PIBFREOF            - Read end of file received
 PIBAFLG1.PIBFHALT 10 ONES          3873  1                      FLAG  PIBFHALT            - Halt operation in progress
 PIBAFLG1.PIBFIAC  08 ONES          3878  1                      FLAG  PIBFIAC             - Send TELNET IAC sequences
                                    3883  1
 0000A2 00                          3884  1           PIBAFLG2   FLAG
 PIBAFLG2.PIBFDSTO 80 ONES          3888  1                      FLAG  PIBFDSTOP           - Stop sending data to Amelia
1ELF      (ELF2047) (12:35) (15MAR04) MILTEN'S ELF Interface                                                                Page   16
0Current Usings:  (CV,R12)
0Loc    Object Code    Addr1 Addr2  Stmt Lv Lineno    Source Statement           (Hibal 5, Asmedit 3.3)  HLASM R4.0  2004/03/15 12.35
+___    ______ ____    _____ _____  ____ __ ______    ______ _________
0PIBAFLG2.PIBFPCOM 40 ONES          3893  1                      FLAG  PIBFPCOMP           - Write completion pending
 PIBAFLG2.PIBFINST 20 ONES          3898  1                      FLAG  PIBFINSTOP          - Stop buffering data from Amelia
 PIBAFLG2.PIBFTRAN 10 ONES          3903  1                      FLAG  PIBFTRAN            - Currently in transparent mode
 PIBAFLG2.PIBFNOEC 08 ONES          3908  1                      FLAG  PIBFNOECHO          - Currently in noecho mode
 PIBAFLG2.PIBFCR   04 ONES          3913  1                      FLAG  PIBFCR              - Last input character was a CR
                                    3918  1
 0000A3 00                          3919  1           PIBINSTATE   FLAG ,                  Input steam state:
 PIBINSTATE.PIBINF 00 EQ            3923  1                      FLAG  (PIBINFDATA,0,EQ)     - Expecting input data
 PIBINSTATE.PIBINF 01 EQ            3933  1                      FLAG  (PIBINFIAC,1,EQ)      - Expecting IAC option
 PIBINSTATE.PIBINF 02 EQ            3943  1                      FLAG  (PIBINFIACWILL,2,EQ)  - Expecting IAC WILL option
 PIBINSTATE.PIBINF 03 EQ            3953  1                      FLAG  (PIBINFIACWONT,3,EQ)  - Expecting IAC WONT option
 PIBINSTATE.PIBINF 04 EQ            3963  1                      FLAG  (PIBINFIACDO,4,EQ)    - Expecting IAC DO   option
 PIBINSTATE.PIBINF 05 EQ            3973  1                      FLAG  (PIBINFIACDONT,5,EQ)  - Expecting IAC DONT option
                                    3983  1
 0000A4                             3984  1           PIBTTYPE   DS    CL8                 Terminal type if avail (from ELF)
                                    3985  1
 0000AC                             3986  1           PIBTCLS    DS    CL8                 Terminal class
                                    3987  1
 0000B4                             3988  1           PIBXACCT   DS    CL5                 Session account when we sent info
                                    3989  1
 0000B9                             3990  1           PIBOTCLS   DS    CL8                 Saved terminal type
 0000C1                             3991  1           PIBOINFO   DS    XL(L'PINFO)         Saved PINFO
                                    3992  1
                                    3993  1           PIBRMSG#   EQU   15,,C'N'            15 seconds before message
                                    3994  1           PIBRLGF#   EQU   30,,C'N'            30 seconds before disconnect
 0000D8                             3995  1           PIBTIMERID   DS  F                   Timer ID
 0000DC                             3996  1           PIBTICKCUR   DS  F                   Current tick count (in seconds)
 0000E0                             3997  1           PIBTICKMSG   DS  F                   Write a msg after this many ticks
 0000E4                             3998  1           PIBTICKLGF   DS  F                   Disconnect after this many ticks
                                    3999  1
 0000E8                             4000  1           PIBSOCKP   DS    F                   Our SOCK ptr
                                    4001  1
 0000EC                             4002  1           PIBFLOWH   DS    F                   Flow control: high water mark
 0000F0                             4003  1           PIBFLOWL   DS    F                   Flow control: low water mark
 0000F4                             4004  1           PIBAID     DS    F                   Amelia's TCP connection ID
                                    4005  1
 0000F8                             4006  1           PIBRIP     DS    F                   Remote host IP address (ELF ip)
 0000FC                             4007  1           PIBTELIP   DS    F                   User's IP address
                                    4008  1
                                    4009  1           PIBINX#    EQU   64,,C'N'            "Chunk" size (must be power of 2)
                                    4010  1           PIBINMX#   EQU   31*1024,,C'N'       Can't handle more than this
                                    4011  1           PIBINHI#   EQU   10*1024,,C'N'       Stop buffering more data
                                    4012  1           PIBINLO#   EQU   5*1024,,C'N'        Start buffering data again
 000100 00/00/0000/00000_           4014  1           PIBINSG    SEGCB
 PIBINSGCOD.PIBINS 01 EQ
 PIBINSGCOD.PIBINS 02 EQ
 PIBINSGCOD.PIBINS 03 EQ
 PIBINSGCOD.PIBINS 04 EQ
 PIBINSGCOD.PIBINS 05 EQ
 PIBINSGCOD.PIBINS 06 EQ
 PIBINSGCOD.PIBINS 07 EQ
                                    4102  1                      SEGDEF DUMMY              (Safety)
                                    4104  1           *
 00013C                             4105  1           PIBEHDR    DS    XL(L'HDR)           Input ELF header
1ELF      (ELF2047) (12:35) (15MAR04) MILTEN'S ELF Interface                                                                Page   17
0Current Usings:  (CV,R12)
0Loc    Object Code    Addr1 Addr2  Stmt Lv Lineno    Source Statement           (Hibal 5, Asmedit 3.3)  HLASM R4.0  2004/03/15 12.35
+___    ______ ____    _____ _____  ____ __ ______    ______ _________
0000150                00150 00150  4106                       END
1ELF      (ELF2047) (12:35) (15MAR04) MILTEN'S ELF Interface                                                                Page   18
0Current Usings:  (CV,R12)
0Loc    Object Code    Addr1 Addr2  Stmt Lv Lineno    Source Statement           (Hibal 5, Asmedit 3.3)  HLASM R4.0  2004/03/15 12.35
+___    ______ ____    _____ _____  ____ __ ______    ______ _________
0                                   4116              TTRC#    EQU   120                 No. of trace entries
                                    4117              TTRCP#   EQU   15                  No. of PIBTRC entries
-                                   4119                       COPY  ELFTRC
                                    4120=            =¿þþþþþþþþþþþþþþþþþþþþþþþþþþþþþþþþþþþþþþþþþþþþþþþþþþþþþþþþþþþþþþþþþþþþþÜ
                                    4121=            =Ÿ                                                                     Ÿ
                                    4122=            =Ÿ    MILTEN/ELF TRACE FORMAT                                          Ÿ
                                    4123=            =Ÿ      (for both port and front-end trace entries.)                   Ÿ
                                    4124=            =Ÿ                                                                     Ÿ
                                                      ¾þþþþþþþþþþþþþþþþþþþþþþþþþþþþþþþþþþþþþþþþþþþþþþþþþþþþþþþþþþþþþþþþþþþþþ»
0000000                00000 00048  4125             =TTRC     RECORD BEGIN
 000000                             4133  1          =TTRCCLCK   DS    D                   Stck clock
                                    4134= 1          =           ¿þþþþþþþþþþþþþþÜ
                                    4135= 1          =           Ÿ  IF PIBTRC:  Ÿ
                                    4136= 1          =           ¾þþþþþþþþþþþþþþ»
                                    4137  1          =TTRCPTYP   EQU   TTRCCLCK+7,1,C'C'   Trace type (T=to, F=from)
 000008                             4138  1          =TTRCPCMD   DS    X                   PDBCMD
 000009                             4139  1          =           DS    X                   Reserved
 00000A                             4140  1          =TTRCPCPL   DS    XL2                 PDBCPL
 00000C                             4141  1          =TTRCPLEN   DS    H                   PDBLENG
                                    4142  1          =TTRCP      EQU   TTRCCLCK,*-TTRCCLCK,C'X'
                                    4143= 1          =           ¿þþþþþþþþþþþþþþÜ
                                    4144= 1          =           Ÿ  IF FEBTRC:  Ÿ
                                    4145= 1          =           ¾þþþþþþþþþþþþþþ»
 00000E                0000E 00008  4146  1          =           ORG   TTRCCLCK+8
 000008                             4147  1          =TTRCNAME   DS    CL8                 Trace name
 000010                             4148  1          =TTRCPNAM   DS    CL8                 Port name
                                    4149  1          =TTRCDATA   EQU   *
                                    4150= 1          =           ¿þþþþþþþþþþþþþþþþþþþþþþþþÜ
                                    4151= 1          =           Ÿ  IF TTRCNAME = 'TERM'  Ÿ
                                    4152= 1          =           ¾þþþþþþþþþþþþþþþþþþþþþþþþ»
 000018                00018 00018  4153  1          =           ORG   TTRCDATA
 000018                             4154  1          =TTRCSID    DS    F                   Session id
 00001C                             4155  1          =TTRCSACC   DS    CL5                 Session uuugg
 000021                             4156  1          =TTRCCMD    DS    X                   PDBCMD
 000022                             4157  1          =TTRCCPL    DS    XL2                 PDBCPL  (TNETPOST only)
 000024                             4158  1          =TTRCTLEN   DS    H                   PDBLENG
 000026                             4159  1          =TTRCTEXT   DS    CL20                PDBTEXT
                                    4160= 1          =           ¿þþþþþþþþþþþþþþþþþþþþþþÜ
                                    4161= 1          =           Ÿ  IF TTRCNAME = 'IO'  Ÿ
                                    4162= 1          =           ¾þþþþþþþþþþþþþþþþþþþþþþ»
 00003A                0003A 00018  4163  1          =           ORG   TTRCDATA
 000018                             4164  1          =TTRCILEN   DS    H                   Total path data length
 00001A                             4165  1          =TTRCIHDR   DS    CL16                Header text (e.g. "TCP_WRITE:")
 00002A                             4166  1          =TTRCIREM   DS    CL30                Data beyond header
                                    4167  1          =TTRCITOT   EQU   TTRCIHDR,*-TTRCIHDR,C'X'
                                    4168= 1          =           ¿þþþþþþþþþþþþþþþþþþþþþþþÜ
                                    4169= 1          =           Ÿ  IF TTRCNAME = 'MSG'  Ÿ
                                    4170= 1          =           ¾þþþþþþþþþþþþþþþþþþþþþþþ»
 000048                00048 00018  4171  1          =           ORG   TTRCDATA
 000018                             4172  1          =TTRCMSG    DS    CL40                Information message (blank pad)
 000040                00040 00048  4173             =         END
1ELF      (ELF2047) (12:35) (15MAR04) MILTEN'S ELF Interface                                                                Page   19
0Current Usings:  (CV,R12)
0Loc    Object Code    Addr1 Addr2  Stmt Lv Lineno    Source Statement           (Hibal 5, Asmedit 3.3)  HLASM R4.0  2004/03/15 12.35
+___    ______ ____    _____ _____  ____ __ ______    ______ _________
0                                   4183              ¿þþþþþþþþþþþþþþþþþþþþþþþþþþþþþþþþþþþþþþþþþþþþþþþþþþþþþþþþþþþþþþþþþþþþþÜ
                                    4184              Ÿ                                                                     Ÿ
                                    4185              Ÿ        ELF Information Block                                        Ÿ
                                    4186              Ÿ                                                                     Ÿ
                                                      ¾þþþþþþþþþþþþþþþþþþþþþþþþþþþþþþþþþþþþþþþþþþþþþþþþþþþþþþþþþþþþþþþþþþþþþ»
0000000                00000 00049  4187              EIB      RECORD BEGIN
 000000                             4195  1           EIBID      DS    CL4'EIB'            Self identification
 000004                             4196  1           EIBLINK    DS    A                   Next EIB ptr (or zero)
                                    4197  1
 000008                             4198  1           EIBNAME    DS    CL16                ELF name
 000018                             4199  1           EIBADDRF   DS    CL16                EBCDIC formatted IP address
 000028                             4200  1           EIBADDR    DS    F                   ELF IP address (binary)
 00002C                             4201  1           EIBPORT    DS    F                   Port number (0=same as us)
 000030                             4202  1           EIBSIP     DS    F                   Subnet IP address (0=all)
 000034                             4203  1           EIBSMASK   DS    F                   Subnet mask
 000038                             4204  1           EIBCUR     DS    F                   Current number of sessions
 00003C                             4205  1           EIBMAX     DS    F                   Maximum number of sessions
 000040                             4206  1           EIBBIAS    DS    F                   Number to add to EIBCUR for load
 000044                             4207  1           EIBLIMIT   DS    F                   Max number of sessions allowed
 000048 00                          4208  1           EIBFLAG    FLAG
 EIBFLAG.EIBFDOWN  80 ONES          4212  1                      FLAG  EIBFDOWN            - This ELF is down
 EIBFLAG.EIBFSTOPP 40 ONES          4217  1                      FLAG  EIBFSTOPPED         - This ELF is stopped
                                    4222  1           EIBINFO    EQU   EIBNAME,*-EIBNAME,C'X'
 000049                00049 00049  4223                       END
1ELF      (ELF2047) (12:35) (15MAR04) MILTEN'S ELF Interface                                                                Page   20
0Current Usings:  (CV,R12)
0Loc    Object Code    Addr1 Addr2  Stmt Lv Lineno    Source Statement           (Hibal 5, Asmedit 3.3)  HLASM R4.0  2004/03/15 12.35
+___    ______ ____    _____ _____  ____ __ ______    ______ _________
0                                   4233              ¿þþþþþþþþþþþþþþþþþþþþþþþþþþþþþþþþþþþþþþþþþþþþþþþþþþþþþþþþþþþþþþþþþþþþþÜ
                                    4234              Ÿ                                                                     Ÿ
                                    4235              Ÿ        AMYQ -- Buffered transaction for when Amelia's Suzan         Ÿ
                                    4236              Ÿ          buffer is full.                                            Ÿ
                                    4237              Ÿ                                                                     Ÿ
                                                      ¾þþþþþþþþþþþþþþþþþþþþþþþþþþþþþþþþþþþþþþþþþþþþþþþþþþþþþþþþþþþþþþþþþþþþþ»
0000000                00000 0000C  4238              AMYQ     RECORD BEGIN
 000000                             4246  1           AMYQID     DS    CL4                 Control block ID
 000004                             4247  1           AMYQLINK   DS    A                   Next AMYQ entry (or zero)
 000008                             4248  1           AMYQDLEN   DS    F                   Length of data which follows
                                    4249  1           AMYQHDR    EQU   AMYQID,*-AMYQID,C'X'
                                    4250  1
 00000C                             4251  1           AMYQDATA   DS    0X                  Message for Amelia goes here
 00000C                0000C 0000C  4252                       END
1ELF      (ELF2047) (12:35) (15MAR04) ELF Interface                                                                         Page   21
0Current Usings:  (CV,R12)
0Loc    Object Code    Addr1 Addr2  Stmt Lv Lineno    Source Statement           (Hibal 5, Asmedit 3.3)  HLASM R4.0  2004/03/15 12.35
+___    ______ ____    _____ _____  ____ __ ______    ______ _________
0                                   4262              ¿þþþþþþþþþþþþþþþþþþþþþþþþþþþþþþþþþþþþþþþþþþþþþþþþþþþþþþþþþþþþþþþþþþþþþÜ
                                    4263              Ÿ                                                                     Ÿ
                                    4264              Ÿ  ELFDEF -- Routine to process ELF FEB definition.                   Ÿ
                                    4265              Ÿ                                                                     Ÿ
                                    4266              Ÿ    On entry:                                                        Ÿ
                                    4267              Ÿ       R15 - SCANCB ptr                                              Ÿ
                                    4268              Ÿ                                                                     Ÿ
                                    4269              Ÿ    On exit, R15 (and CC):                                           Ÿ
                                    4270              Ÿ      0 - ok, R1 - new FEB ptr                                       Ÿ
                                    4271              Ÿ      4 - error, R1,R0 - msg loc, len                                Ÿ
                                    4272              Ÿ                                                                     Ÿ
                                                      ¾þþþþþþþþþþþþþþþþþþþþþþþþþþþþþþþþþþþþþþþþþþþþþþþþþþþþþþþþþþþþþþþþþþþþþ»
0000016 50E0 D044/902B_      00044  4273              ELFDEF   XPROC
 USING  *,R8
 000030 187F                        4311                       LR    R7,R15
 USING  SCANCB,R7                   4312                       WITH  (SCANCB,R7)
                                    4325
                                    4326                       SEGDEF CVWSG
                                    4327
 000032 1B11/18F7/58E0_             4328                       SCAN  ,SCANCB             Scan for front-end name
 00003C 47B0 8030/4110_      00050  4344                       IF    NEG,'SETMSG "invalid string."; LA R15,4; EXIT ELFDEF'
                                    4368                       ¿þþþþþþþþþþþþþþþþþþþþþþþþþþþþþþþþþþþþþþþþþþþþþþþþþþþÜ
                                    4369                       Ÿ  Allocate and initialize Telnet front-end block.  Ÿ
                                    4370                       ¾þþþþþþþþþþþþþþþþþþþþþþþþþþþþþþþþþþþþþþþþþþþþþþþþþþþ»
 000050 4100 01A4            001A4  4371                       LA    R0,L'FEB            Length of a ELF FEB
 000054 58E0 8D94/0DEE       00DB4  4372                       VCALL GETFEB
 00005A 18B1                        4376                       LR    FEBR,R1
 USING  FEB,R11                     4377                       WITH  FEB
 00005C 9207 B00D      0000D        4389                       MVI   FEBTYPE,FEBTELF
 000060 D207 B014 7004 00014 00004  4390                       MVC   FEBNAME,SCNKW       Front-end name
 000066 D20B B01C C141 0001C 00141  4391                       MVC   FEBINFO,CVBLANKS    No special info
 00006C D201 B076 C390 00076 00390  4392                       MVC   FEBPMAX,CVMAXSES    Maximum number of sessions
 000072 D207 B178 8CC0 00178 00CE0  4393                       MVC   FEBAPATH,=CL8'AMELIA'  Path YOURTAG
                                    4394                       ¿þþþþþþþþþþþþþþþþþþþþþþþþþþþþþþþþÜ
                                    4395                       Ÿ  Scan for DEFINE ELF options.  Ÿ
                                    4396                       ¾þþþþþþþþþþþþþþþþþþþþþþþþþþþþþþþþ»
 000078 4110 80B0/18F7_      000D0  4397                       SCAN  TDEFPRT,SCANCB
                                    4416
 000084 D603 B184 B184_00184 00184  4417                       IF    (FEBFLOWH,Z),'MVC FEBFLOWH,=F"4096"'  Flow control
 000094 D603 B188 B188_00188 00188  4439                       IF    ((FEBFLOWL,Z),OR,(FEBFLOWL,GE,FEBFLOWH)),BEGIN
 0000A8 58F0 B184            00184  4472  1                      L     R15,FEBFLOWH        High flow
 0000AC 88F0 0002            00002  4473  1                      SRL   R15,2               1/4th
 0000B0 50F0 B188            00188  4474  1                      ST    R15,FEBFLOWL        Set low flow
 0000B4                             4475                       END
                                    4479                       ¿þþþþþþþþþþþþþþþþþþþþþþþþþþþþþþþþþþþÜ
                                    4480                       Ÿ  Allocate front-end trace table.  Ÿ
                                    4481                       ¾þþþþþþþþþþþþþþþþþþþþþþþþþþþþþþþþþþþ»
 0000B4 4100 0048            00048  4482                       LA    R0,L'TTRC           Length of trace entry
 0000B8 4110 0078            00078  4483                       LA    R1,TTRC#            No. of entries
 0000BC 41F0 B09C            0009C  4484                       LA    R15,FEBTRCP
 0000C0 58E0 8D9C/0DEE       00DBC  4485                       VCALL GETTRC              Get trace table
                                    4489
 0000C6 4110 B000            00000  4490                       LA    R1,FEB              Return newly created FEB ptr
1ELF      (ELF2047) (12:35) (15MAR04) ELF Interface                                                                         Page   22
0Current Usings:  (SCANCB,R7) (*,R8) (FEB,R11) (CV,R12)
0Loc    Object Code    Addr1 Addr2  Stmt Lv Lineno    Source Statement           (Hibal 5, Asmedit 3.3)  HLASM R4.0  2004/03/15 12.35
+___    ______ ____    _____ _____  ____ __ ______    ______ _________
00000CA 1BFF                        4491                       CLEAR R15                 A-ok
 0000CC 47F0 810C            0012C  4495                       EXIT
1ELF      (ELF2047) (12:35) (15MAR04) ELF Interface                                                                         Page   23
0Current Usings:  (SCANCB,R7) (*,R8) (FEB,R11) (CV,R12)
0Loc    Object Code    Addr1 Addr2  Stmt Lv Lineno    Source Statement           (Hibal 5, Asmedit 3.3)  HLASM R4.0  2004/03/15 12.35
+___    ______ ____    _____ _____  ____ __ ______    ______ _________
0                                   4499                       ¿þþþþþþþþþþþþþþþþþþþþþþþÜ
                                    4500                       Ÿ  DEFINE ELF Options.  Ÿ
                                    4501                       ¾þþþþþþþþþþþþþþþþþþþþþþþ»
 0000D0 BC00010CD7D6D9E3_           4502              TDEFPRT  SCKW  PORTS,DEFPORTS,(A,P,PI),99999
 0000DD 8F000114D7C1E3C8            4505                       SCKW  PATHNAME,DEFPATH,(A,P)
 0000E9 DF00011CC6D3D6E6_           4507                       SCKW  FLOWHIGH,DEFFHIGH,(A,P,I),999999
 0000F9 DE000124C6D3D6E6_           4510                       SCKW  FLOWLOW,DEFFLOW,(A,P,I),999999
 000108 F8000000                    4513                       SCKW  ,V(DEFPRT),PUSH     (No return)
                                    4515
 00010C D201 B076 7002 00076 00002  4516              DEFPORTS MVC   FEBPMAX,SCNVAL+2
 000112 07FE                        4517                       BR    RAR
                                    4518
 000114 D207 B178 7004 00178 00004  4519              DEFPATH  MVC   FEBAPATH,SCNKW
 00011A 07FE                        4520                       BR    RAR
                                    4521
 00011C D203 B184 7000 00184 00000  4522              DEFFHIGH MVC   FEBFLOWH,SCNVAL
 000122 07FE                        4523                       BR    RAR
                                    4524
 000124 D203 B188 7000 00188 00000  4525              DEFFLOW  MVC   FEBFLOWL,SCNVAL
 00012A 07FE                        4526                       BR    RAR
                                    4527
 00012C 41D0 D030/982B_      00030  4528                       PEND
 DROP   FEB,R11
 DROP   SCANCB,R7
 DROP   *,R8
1ELF      (ELF2047) (12:35) (15MAR04) ELF Interface                                                                         Page   24
0Current Usings:  (CV,R12)
0Loc    Object Code    Addr1 Addr2  Stmt Lv Lineno    Source Statement           (Hibal 5, Asmedit 3.3)  HLASM R4.0  2004/03/15 12.35
+___    ______ ____    _____ _____  ____ __ ______    ______ _________
0                                   4559              ¿þþþþþþþþþþþþþþþþþþþþþþþþþþþþþþþþþþþþþþþþþþþþþþþþþþþþþþþþþþþþþþþþþþþþþÜ
                                    4560              Ÿ                                                                     Ÿ
                                    4561              Ÿ  ELFPORT -- Routine to process ELF port definition.                 Ÿ
                                    4562              Ÿ    This is a little different than other front-end PORT             Ÿ
                                    4563              Ÿ    statements in that it does not build a PIB control block.        Ÿ
                                    4564              Ÿ                                                                     Ÿ
                                    4565              Ÿ    The telnet PORT statement defines a TCP socket number to         Ÿ
                                    4566              Ÿ    listen to, and what to do when we get a connection on that       Ÿ
                                    4567              Ÿ    socket number.                                                   Ÿ
                                    4568              Ÿ                                                                     Ÿ
                                    4569              Ÿ    On entry:                                                        Ÿ
                                    4570              Ÿ      R1 - FEB ptr                                                   Ÿ
                                    4571              Ÿ      R15 - SCANCB ptr                                               Ÿ
                                    4572              Ÿ                                                                     Ÿ
                                                      ¾þþþþþþþþþþþþþþþþþþþþþþþþþþþþþþþþþþþþþþþþþþþþþþþþþþþþþþþþþþþþþþþþþþþþþ»
0000000                00000 00BF4  4573              TPORTWA  RECORD BEGIN
 000000                             4581  1           TPORTSG    DS    XL(L'SEGCB)         Working seg buffer
 00003C                             4582  1           TPORTBUF   DS    CL3000              Working msg text area
 000BF4                00BF4 00BF4  4583                       END
                                    4592              þþþþ
 000140 50E0 D044/902B_      00044  4593              ELFPORT  XPROC TPORTWA
 USING  *,R8
 USING  TPORTWA-@@,R13
 00015A 187F                        4642                       LR    R7,R15
 USING  SCANCB,R7                   4643                       WITH  (SCANCB,R7)
 00015C 18B1                        4656                       LR    FEBR,R1
 USING  FEB,R11                     4657                       WITH  FEB
                                    4669
                                    4670                       SEGDEF CVWSG
                                    4671                       ¿þþþþþþþþþþþþþþþþþþþþþþþþþþÜ
                                    4672                       Ÿ  Get TCP socket number.  Ÿ
                                    4673                       ¾þþþþþþþþþþþþþþþþþþþþþþþþþþ»
 00015E 1B11/18F7/58E0_             4674                       SCAN  ,SCANCB
 000168 4720 8032            0017C  4690                       IF    NP,BEGIN
 00016C 4110 8D9F/4100_      00EE9  4701  1                      SETMSG 'Missing TCP socket number'
 000174 41F0 0004            00004  4705  1                      LA    R15,4
 000178 47F0 83AA            004F4  4706  1                      B     TPOREXIT
 00017C                             4707                       END
                                    4711
 00017C 58E0 8C76/0DEE       00DC0  4712                       DTB   (R1),(R0)           Convert socket number to binary
 000182 4780 804C            00196  4727                       IF    NZ,BEGIN            Bad numerics...
 000186 4110 8B9E/4100_      00CE8  4738  1                      SETMSG 'Bad numeric socket value'
 00018E 41F0 0004            00004  4742  1                      LA    R15,4
 000192 47F0 83AA            004F4  4743  1                      B     TPOREXIT
 000196                             4744                       END
 000196 182F                        4748                       LR    R2,R15              Save numeric socket number
                                    4749
 000198 4100 00FC            000FC  4750                       LA    R0,L'SOCK
 00019C 4110 0021            00021  4751                       LA    R1,SOCKSUBP
 0001A0 58E0 8C7A/0DEE       00DC4  4752                       VCALL NGETCORE            Get SOCK control block
 0001A6 1851                        4756                       LR    R5,R1
 USING  SOCK,R5                     4757                       WITH  (SOCK,R5)
 0001A8 D7FB 5000 5000 00000 00000  4770                       CLEAR SOCK
1ELF      (ELF2047) (12:35) (15MAR04) ELF Interface                                                                         Page   25
0Current Usings:  (SOCK,R5) (SCANCB,R7) (*,R8) (FEB,R11) (CV,R12) (TPORTWA-@@,R13)
0Loc    Object Code    Addr1 Addr2  Stmt Lv Lineno    Source Statement           (Hibal 5, Asmedit 3.3)  HLASM R4.0  2004/03/15 12.35
+___    ______ ____    _____ _____  ____ __ ______    ______ _________
00001AE D203 5000 8C7E 00000 00DC8  4777                       MVC   SOCKID,=CL4'SOCK'   Set self identification
 0001B4 5020 5010            00010  4778                       ST    R2,SOCKNO           Save socket number
 0001B8 D203 5018 B184 00018 00184  4779                       MVC   SOCKFLOH,FEBFLOWH   Save flow control...
 0001BE D203 501C B188 0001C 00188  4780                       MVC   SOCKFLOL,FEBFLOWL   ...numbers
                                    4781                       ¿þþþþþþþþþþþþþþþþþþþþþþþþþþþþþþþþþþþþþþþþþþþÜ
                                    4782                       Ÿ  Save Telnet PORT options in SOCK entry.  Ÿ
                                    4783                       ¾þþþþþþþþþþþþþþþþþþþþþþþþþþþþþþþþþþþþþþþþþþþ»
 0001C4 4110 81E6/18F7_      00330  4784                       SCAN  TPORTPRT,SCANCB
 0001D0 47B0 809C/4110_      001E6  4803                       IF    NEG,'SEGWR "Invalid string"'
                                    4837                       ¿þþþþþþþþþþþþþþþþþþþþþþþþþþþþþþþþþþþþþþþþþþþþþþþþþþþþþþþÜ
                                    4838                       Ÿ  Accept one or more "msg" lines from SYSIN following  Ÿ
                                    4839                       Ÿ    our current PORT definition.                       Ÿ
                                    4840                       ¾þþþþþþþþþþþþþþþþþþþþþþþþþþþþþþþþþþþþþþþþþþþþþþþþþþþþþþþ»
 0001E6 4110 D088/4100_      0003C  4841                       SEGINIT TPORTBUF,,TPORTSG
 0001F8 58E0 8C8A/0DEE_      00DD4  4868                       WHILE ('VCALL GETSIN',Z),BEGIN  Get next line of SYSIN...
 000202 18F7/58E0 8C8E_             4886  1                      SCINIT (R1),(R0),SCANCB
 00020A 1B11/18F7/58E0_             4908  1                      SCAN  ,SCANCB             Pick off first word
                                    4924  1
 USING  SCANCB,R15                  4925  1                      WITH  (SCANCB,R15),BEGIN  (Scanner returns R15=SCANCB)
 000214 D503 8C92 F004_00DDC 00004  4939  2                        IF    (SCNKW,NE,'MSG '),BEGIN  Not for us...
 00021E 58E0 8C96/0DEE       00DE0  4956  3                          VCALL UNGETSIN            We don't want this line
 000224 47F0 8106            00250  4960  3                          B     TPORTSSV
 000228                             4961  2                        END
 DROP   SCANCB,R15                  4965  1                      END
                                    4973  1
 000228 18F7/58E0 8C9A_             4974  1                      SCTELL SCANCB             Get remainder of line
 000230 4110 1001            00001  4986  1                      LA    R1,@R1+1
 000234 0600                        4987  1                      DECR  R0
 000236 41F0 D04C/58E0_      00000  4989  1                      SEG   (R1),(R0)           Line of text
 000240 1B00/41F0 D04C_             5012  1                      SEGCR
 00024C 47F0 80AE            001F8  5036                       END
                                    5041
                                    5042                       SEGDEF CVWSG              Back to regular SEG buffer
                                    5043
 000250 5820 D058/1222       0000C  5044              TPORTSSV LT    R2,TPORTSG+(SEGCBLENF-SEGCB)  Get text length
 000256 47D0 814C            00296  5048                       IF    POS,BEGIN           We have some text...
 00025A 1802                        5059  1                      LR    R0,R2
 00025C 9022 D044/4BD0_      00044  5060  1                      XPUSH R2
 00026C 4110 0022            00022  5071  1                      LA    R1,SMSGSUBP
 000270 58E0 8C7A/0DEE       00DC4  5072  1                      VCALL NGETCORE            Get memory to save the text
 000276 41D0 D008/9822_      00008  5076  1                      XPOP  R2
 000282 5010 50F8            000F8  5086  1                      ST    R1,SOCKMSGP         Save text ptr
 000286 18E1/18F2/4100_             5087  1                      MOVEL @R1,TPORTBUF,(R2)   Save text
 000292 4020 50F6            000F6  5109  1                      STH   R2,SOCKMSGL         Save text length
 000296                             5110                       END
                                    5114
 000296 D603 5018 5018_00018 00018  5115                       IF    (SOCKFLOH,Z),'MVC SOCKFLOH,=F"4096"'  Flow control
 0002A6 D603 501C 501C_0001C 0001C  5137                       IF    ((SOCKFLOL,Z),OR,(SOCKFLOL,GE,SOCKFLOH)),BEGIN
 0002BA 58F0 5018            00018  5170  1                      L     R15,SOCKFLOH        High flow
 0002BE 88F0 0002            00002  5171  1                      SRL   R15,2               1/4th
 0002C2 50F0 501C            0001C  5172  1                      ST    R15,SOCKFLOL        Set low flow
 0002C6                             5173                       END
1ELF      (ELF2047) (12:35) (15MAR04) ELF Interface                                                                         Page   26
0Current Usings:  (SOCK,R5) (SCANCB,R7) (*,R8) (FEB,R11) (CV,R12) (TPORTWA-@@,R13)
0Loc    Object Code    Addr1 Addr2  Stmt Lv Lineno    Source Statement           (Hibal 5, Asmedit 3.3)  HLASM R4.0  2004/03/15 12.35
+___    ______ ____    _____ _____  ____ __ ______    ______ _________
0                                   5177                       ¿þþþþþþþþþþþþþþþþþþþþþþþþþþþÜ
                                    5178                       Ÿ  Tidy up the SOCK entry.  Ÿ
                                    5179                       ¾þþþþþþþþþþþþþþþþþþþþþþþþþþþ»
 0002C6 D5C7 502D C141_0002D 00141  5180                       IF    (SOCKCMD,EQ,CVBLANKS),'CLEAR SOCKCMD'  No command
                                    5210                       ¿þþþþþþþþþþþþþþþþþþþþþþþþþþþþþþþþþþþþþþþþþþþþþþþþþþþþþþþþÜ
                                    5211                       Ÿ  Make sure a protocol (TELNET, ELF) has been defined.  Ÿ
                                    5212                       ¾þþþþþþþþþþþþþþþþþþþþþþþþþþþþþþþþþþþþþþþþþþþþþþþþþþþþþþþþ»
 0002D6 9500 5008/4770_00008        5213                       IF    (SOCKPROTO,Z),BEGIN  No definition...
 0002DE 4110 8DB8/4100_      00F02  5229  1                      SEG   'Port '
 0002F0 5810 5010/1B00_      00010  5246  1                      SEGDC L:SOCKNO
 000300 4110 8D32/4100_      00E7C  5267  1                      SETMSG ' definition is incomplete.'
 000308 41F0 0004            00004  5271  1                      LA    R15,4
 00030C 47F0 83AA            004F4  5272  1                      B     TPOREXIT
 000310                             5273                       END
                                    5277                       ¿þþþþþþþþþþþþþþþþþþþþþþþþþþþþþþþþþþþþþþþþþþþþþþþþþþþþþþþþþÜ
                                    5278                       Ÿ  Add this SOCK entry to the end of our FEB SOCK queue.  Ÿ
                                    5279                       ¾þþþþþþþþþþþþþþþþþþþþþþþþþþþþþþþþþþþþþþþþþþþþþþþþþþþþþþþþþ»
 000310 4130 B17C            0017C  5280                       LA    R3,FEBSOCKH-(SOCKLINK-SOCK)  Dummy first entry
 DROP   SOCK,R5                     5281                       WITH  (SOCK,R3),BEGIN
 USING  SOCK,R3
 000314 1823/5830 3004_             5303  1                      WHILE ('LR R2,R3; LT R3,SOCKLINK',NZ),''  Find last SOCK
 USING  SOCK,R5                     5328                       END
 DROP   SOCK,R3
                                    5345
 000324 5050 2004            00004  5346                       ST    R5,SOCKLINK-SOCK(,R2)  Set prev SOCK to point to us
                                    5347
 000328 1B11/1BFF                   5348                       CLEAR R1,R15              A-ok
 00032C 47F0 83AA            004F4  5354                       B     TPOREXIT
1ELF      (ELF2047) (12:35) (15MAR04) ELF Interface                                                                         Page   27
0Current Usings:  (SOCK,R5) (SCANCB,R7) (*,R8) (FEB,R11) (CV,R12) (TPORTWA-@@,R13)
0Loc    Object Code    Addr1 Addr2  Stmt Lv Lineno    Source Statement           (Hibal 5, Asmedit 3.3)  HLASM R4.0  2004/03/15 12.35
+___    ______ ____    _____ _____  ____ __ ______    ______ _________
0                                   5356                       ¿þþþþþþþþþþþþþþþþþÜ
                                    5357                       Ÿ  PORT options.  Ÿ
                                    5358                       ¾þþþþþþþþþþþþþþþþþ»
 000330 8D0003D0E2E8E2E3            5359              TPORTPRT SCKW  SYSTEM,TPORTSYS,(A,P)
 00033A 8E00041CC1C3C3D6            5361                       SCKW  ACCOUNT,TPORTACC,(A,P)
 000345 8B00041CC1C3C3E3            5363                       SCKW  ACCT,TPORTACC,(A,P)
 00034D 8E00043AC3D6D4D4            5365                       SCKW  COMMAND,TPORTCMD,(A,P)
 000358 8A00043AC3D4C4              5367                       SCKW  CMD,TPORTCMD,(A,P)
 00035F BE000494D4C1E7C9_           5369                       SCKW  MAXIMUM,TPORTMAX,(A,P,PI),99999
 00036E 0D00049CE3C5D3D5            5372                       SCKW  TELNET,TPORTTEL,A
 000378 0F0004A6D9C5C3D6            5374                       SCKW  RECONNEC,TPORTRC,A
 000384 020004ACC5D3C6              5376                       SCKW  ELF,TPORTELF
 00038B DF0004CAC6D3D6E6_           5378                       SCKW  FLOWHIGH,TPORTHI,(A,P,I),999999
 00039B DE0004D2C6D3D6E6_           5381                       SCKW  FLOWLOW,TPORTLOW,(A,P,I),999999
 0003AA 0C0004B2E3D9C1C3            5384                       SCKW  TRACE,TPORTTRC,A
 0003B3 0B0004B8D2C5C5D7            5386                       SCKW  KEEP,TPORTKP,A
 0003BB 020004BEC9C1C3              5388                       SCKW  IAC,TPORTIAC
 0003C2 0C0004C4D5D6C9C1            5390                       SCKW  NOIAC,TPORTNOI,A
 0003CB FF0004DA                    5392                       SCKW  ,TPORTERR
                                    5394
 0003D0 50E0 D044/90FF_      00044  5395              TPORTSYS LPROC R15
 DROP   TPORTWA-@@,R13
 0003E8 D207 5020 C141 00020 00141  5421                       MVC   SOCKSYS,CVBLANKS
 0003EE 5900 8CAA/47D0_      00DF4  5422                       CEIL  R0,L'SOCKSYS
 0003FA 18F0                        5441                       LR    R15,R0
 0003FC 06F0/12FF/4740_             5442                       MOVE  R15,SOCKSYS,@R1     Save default subsystem name
 000408 41D0 D00C/98FF_      0000C  5480                       PEND
                                    5495
 00041C 5900 8CAE/4770_      00DF8  5496              TPORTACC IF    (R0,NE,6),TPORTERR
 000424 954B 1002/4770_00002        5517                       IF    (@R1+2,NE,'.'),TPORTERR
 00042C D202 5028 1003 00028 00003  5536                       MVC   SOCKACCT(3),@R1+3   uuu
 000432 D201 502B 1000 0002B 00000  5537                       MVC   SOCKACCT+3(2),@R1   gg
 000438 07FE                        5538                       BR    RAR
                                    5539
 00043A 50E0 D044/90FF_      00044  5540              TPORTCMD LPROC R15
 000452 9203 5008      00008        5563                       SET   SOCKPTELNET         TELNET protocol
 000456 947F 5009      00009        5569                       CLEAR SOCKFIAC            No IAC sequences
 00045A 58E0 8CB2/0DEE       00DFC  5576                       VCALL DEQUOTE             Dequote string if quoted
 000460 D2C7 502D C141 0002D 00141  5580                       MVC   SOCKCMD,CVBLANKS    Pre-blank command field
 000466 5900 8CB6/47D0_      00E00  5581                       CEIL  R0,L'SOCKCMD
 000472 18F0                        5600                       LR    R15,R0
 000474 06F0/12FF/4740_             5601                       MOVE  R15,SOCKCMD,@R1     Save first command
 000480 41D0 D00C/98FF_      0000C  5639                       PEND
                                    5654
 000494 D203 5014 F000 00014 00000  5655              TPORTMAX MVC   SOCKMAX,@R15        Save maximum number of sessions
 00049A 07FE                        5656                       BR    RAR
                                    5657
 00049C 9203 5008      00008        5658              TPORTTEL SET   SOCKPTELNET         TELNET protocol
 0004A0 9680 5009      00009        5665                       SET   SOCKFIAC            Using IAC sequences
 0004A4 07FE                        5671                       BR    RAR
                                    5672
 0004A6 9202 5008      00008        5673              TPORTRC  SET   SOCKPRECONNECT      RECONNECT protocol
 0004AA 07FE                        5680                       BR    RAR
                                    5681
1ELF      (ELF2047) (12:35) (15MAR04) ELF Interface                                                                         Page   28
0Current Usings:  (SOCK,R5) (SCANCB,R7) (*,R8) (FEB,R11) (CV,R12)
0Loc    Object Code    Addr1 Addr2  Stmt Lv Lineno    Source Statement           (Hibal 5, Asmedit 3.3)  HLASM R4.0  2004/03/15 12.35
+___    ______ ____    _____ _____  ____ __ ______    ______ _________
00004AC 9201 5008      00008        5682              TPORTELF SET   SOCKPELF            ELF protocol
 0004B0 07FE                        5689                       BR    RAR
                                    5690
 0004B2 9620 5009      00009        5691              TPORTTRC SET   SOCKFTRACE
 0004B6 07FE                        5698                       BR    RAR
                                    5699
 0004B8 9610 5009      00009        5700              TPORTKP  SET   SOCKFKEEP
 0004BC 07FE                        5707                       BR    RAR
                                    5708
 0004BE 9680 5009      00009        5709              TPORTIAC SET   SOCKFIAC
 0004C2 07FE                        5716                       BR    RAR
                                    5717
 0004C4 947F 5009      00009        5718              TPORTNOI CLEAR SOCKFIAC
 0004C8 07FE                        5726                       BR    RAR
                                    5727
 0004CA D203 5018 7000 00018 00000  5728              TPORTHI  MVC   SOCKFLOH,SCNVAL
 0004D0 07FE                        5729                       BR    RAR
                                    5730
 0004D2 D203 501C 7000 0001C 00000  5731              TPORTLOW MVC   SOCKFLOL,SCNVAL
 0004D8 07FE                        5732                       BR    RAR
                                    5733
 0004DA 41F0 C5D4/58E0_      005D4  5734              TPORTERR SEG   (R1),(R0)
 0004E4 4110 8D4E/4100_      00E98  5758                       SETMSG ' is an invalid ELF PORT option'
 0004EC 41F0 0004            00004  5762                       LA    R15,4
 0004F0 47F0 83AA            004F4  5763                       B     TPOREXIT
                                    5764
 0004F4 41D0 DC24/982B_      00C24  5765              TPOREXIT PEND
 DROP   SOCK,R5
 DROP   FEB,R11
 DROP   SCANCB,R7
 DROP   *,R8
                                    5804
                                    5805                       SEGDEF DUMMY              (Neatness)
1ELF      (ELF2047) (12:35) (15MAR04) ELF Interface                                                                         Page   29
0Current Usings:  (CV,R12)
0Loc    Object Code    Addr1 Addr2  Stmt Lv Lineno    Source Statement           (Hibal 5, Asmedit 3.3)  HLASM R4.0  2004/03/15 12.35
+___    ______ ____    _____ _____  ____ __ ______    ______ _________
0                                   5807              ¿þþþþþþþþþþþþþþþþþþþþþþþþþþþþþþþþþþþþþþþþþþþþþþþþþþþþþþþþþþþþþþþþþþþþþÜ
                                    5808              Ÿ                                                                     Ÿ
                                    5809              Ÿ  ELFFIN -- Routine to finish building ELF front-end.                Ÿ
                                    5810              Ÿ                                                                     Ÿ
                                    5811              Ÿ    On entry:                                                        Ÿ
                                    5812              Ÿ       R1 - FEB ptr                                                  Ÿ
                                    5813              Ÿ                                                                     Ÿ
                                                      ¾þþþþþþþþþþþþþþþþþþþþþþþþþþþþþþþþþþþþþþþþþþþþþþþþþþþþþþþþþþþþþþþþþþþþþ»
0000508 50E0 D044/902B_      00044  5814              ELFFIN   XPROC
 USING  *,R8
 000522 18B1                        5852                       LR    FEBR,R1
 USING  FEB,R11                     5853                       WITH  FEB
                                    5865                       ¿þþþþþþþþþþþþþþþþþþþþþþþþþþþþþþþþþþþþþþþþþþþþþþþþþþþþþþþÜ
                                    5866                       Ÿ  Initialize UPATH data area (but do not open path to  Ÿ
                                    5867                       Ÿ    Amelia).                                           Ÿ
                                    5868                       ¾þþþþþþþþþþþþþþþþþþþþþþþþþþþþþþþþþþþþþþþþþþþþþþþþþþþþþþþ»
 000524 4110 B0C0            000C0  5869                       LA    R1,FEBUPATH         UPATH in FEB
 000528 58E0 88F2/0DEE       00E04  5870                       VCALL PATHINIT            Initialize path info
                                    5874
 00052E 4120 B0C0            000C0  5875                       LA    R2,FEBUPATH
 USING  UPATH,R2                    5876                       WITH  (UPATH,R2),BEGIN
 000532 D207 2010 B014 00010 00014  5890  1                      MVC   UPATMY,FEBNAME      MYTAG (our front-end name)
 000538 9620 2020      00020        5891  1                      SET   UPATMFL.UPATMNAM    Specific YOURTAG specified
 00053C D207 2018 B178 00018 00178  5898  1                      MVC   UPATYOU,FEBAPATH    YOURTAG (usually AMELIA)
 DROP   UPATH,R2                    5899                       END
                                    5907                       ¿þþþþþþþþþþþþþþþþþþþþþþþþþþþþþþþÜ
                                    5908                       Ÿ  Allocate path write buffer.  Ÿ
                                    5909                       ¾þþþþþþþþþþþþþþþþþþþþþþþþþþþþþþþ»
 000542 5800 88F6            00E08  5910                       L     R0,=A(CVBUFLEN)     Milten's buffer size (+ slop)
 000546 4110 0023            00023  5911                       LA    R1,PWRTSUBP
 00054A 58E0 88B2/0DEE       00DC4  5912                       VCALL NGETCORE            Get SEG write buffer
 000550 41F0 B13C/58E0_      0013C  5916                       SEGINIT (R1),(R0),FEBUSG,RTN=AMYSEG
                                    5956
 00056A 96A0 B071      00071        5957                       SET   FEBFCLS+FEBFDOWN    Closed & down
 00056E 41D0 D030/982B_      00030  5966                       PEND
 DROP   FEB,R11
 DROP   *,R8
1ELF      (ELF2047) (12:35) (15MAR04) ELF Interface                                                                         Page   30
0Current Usings:  (CV,R12)
0Loc    Object Code    Addr1 Addr2  Stmt Lv Lineno    Source Statement           (Hibal 5, Asmedit 3.3)  HLASM R4.0  2004/03/15 12.35
+___    ______ ____    _____ _____  ____ __ ______    ______ _________
0000000                00000 00028  5992              ELFWA    RECORD BEGIN
 000000                             6000  1           ELFCUR     DS    XL(L'CVCUR)         Saved context (for failsoft)
 000028                00028 00028  6001                       END
-                                   6011              ¿þþþþþþþþþþþþþþþþþþþþþþþþþþþþþþþþþþþþþþþþþþþþþþþþþþþþþþþþþþþþþþþþþþþþþÜ
                                    6012              Ÿ                                                                     Ÿ
                                    6013              Ÿ  ELFOPEN -- Routine to open a TCP path and listen on                Ÿ
                                    6014              Ÿ    the requested sockets (Telnet, etc).                             Ÿ
                                    6015              Ÿ                                                                     Ÿ
                                    6016              Ÿ    On entry:                                                        Ÿ
                                    6017              Ÿ      R1 - FEB ptr                                                   Ÿ
                                    6018              Ÿ                                                                     Ÿ
                                    6019              Ÿ    On exit, R15 (and cc):                                           Ÿ
                                    6020              Ÿ       0 - ok                                                        Ÿ
                                    6021              Ÿ      12 - can't open                                                Ÿ
                                    6022              Ÿ                                                                     Ÿ
                                                      ¾þþþþþþþþþþþþþþþþþþþþþþþþþþþþþþþþþþþþþþþþþþþþþþþþþþþþþþþþþþþþþþþþþþþþþ»
0000582 50E0 D044/902B_      00044  6023              ELFOPEN  PROC  ELFWA
 USING  *,R8
 USING  ELFWA-@@,R13
 00059C 18B1                        6070                       LR    FEBR,R1
 USING  FEB,R11                     6071                       WITH  FEB
 00059E D502 897B B000_00F07 00000  6083                       FAIL  (FEB,NE,'FEB'),'Bad FEB ptr.'
                                    6109
 0005B8 D227 D04C C750 00000 00750  6110                       MVC   ELFCUR,CVCUR        Save current ptrs
 0005BE D727 C750 C750 00750 00750  6111                       CLEAR CVCUR
 0005C4 50B0 C750            00750  6118                       ST    FEBR,CVCURFEB       Set current--for failure recovery
                                    6119
 0005C8 9140 B071/47E0_00071        6120                       IF    FEBFDET,'LA R15,12; B ELFOXIT'  Scram if detached
                                    6142                       ¿þþþþþþþþþþþþþþþþþþþþþþþþþþþþþþþþþþþþþþþþþþþþþþþÜ
                                    6143                       Ÿ  If the front-end is closed then re-open it.  Ÿ
                                    6144                       ¾þþþþþþþþþþþþþþþþþþþþþþþþþþþþþþþþþþþþþþþþþþþþþþþ»
 0005D8 91A0 B071/47E0_00071        6145                       IF    FEBFCLS*FEBFDOWN,BEGIN  Reopen...
 0005E0 41F0 0001/4AF0_      00001  6163  1                      INCR  R15,FEBUC           Kick update count
                                    6169  1
 0005EC D20B B01C 8888 0001C 00E14  6170  1                      MVC   FEBINFO,=CL(L'FEBINFO)'Opening'
 0005F2 58E0 8894/0DEE       00E20  6171  1                      VCALL LOCALTOD            Get local time
 0005F8 9001 B028            00028  6175  1                      STM   R0,R1,FEBMCLCK
                                    6176  1
 0005FC D73F B030 B030 00030 00030  6177  1                      CLEAR FEBMSG
                                    6184  1                      ¿þþþþþþþþþþþþþþþþþþþþþþþþþþþþþþþþÜ
                                    6185  1                      Ÿ  Open network path to Amelia.  Ÿ
                                    6186  1                      ¾þþþþþþþþþþþþþþþþþþþþþþþþþþþþþþþþ»
 000602 4110 B0C0            000C0  6187  1                      LA    R1,FEBUPATH
 000606 58E0 8898/0DEE       00E24  6188  1                      VCALL PATHOPEN            Open Amelia path
 00060C 4780 808E            0061A  6192  1                      IF    NZ,BEGIN            Path did not open...
 000610 D23F B030 8774 00030 00D00  6203  2                        MVC   FEBMSG,=CL(L'FEBMSG)'Amelia path did not open.'
 000616 47F0 80A2            0062E  6204  2                        B     ELFOXIT
 00061A                             6205  1                      END
                                    6209  1
 00061A 945F B071      00071        6210  1                      CLEAR FEBFCLS+FEBFDOWN    Up and running
 00061E 9640 B00C      0000C        6220  1                      SET   FEBFOPEN            Opened
1ELF      (ELF2047) (12:35) (15MAR04) ELF Interface                                                                         Page   31
0Current Usings:  (*,R8) (FEB,R11) (CV,R12) (ELFWA-@@,R13)
0Loc    Object Code    Addr1 Addr2  Stmt Lv Lineno    Source Statement           (Hibal 5, Asmedit 3.3)  HLASM R4.0  2004/03/15 12.35
+___    ______ ____    _____ _____  ____ __ ______    ______ _________
0000622                             6226                       END
                                    6230                       ¿þþþþþþþþþþþþþþþþþþþþþþþþþþþþþþþþþþþþþþþþþþþþþþþþþþþþþþþÜ
                                    6231                       Ÿ  If the path is already open then start the listens.  Ÿ
                                    6232                       ¾þþþþþþþþþþþþþþþþþþþþþþþþþþþþþþþþþþþþþþþþþþþþþþþþþþþþþþþ»
 000622 4110 B000            00000  6233                       LA    R1,FEB
 000626 58E0 889C/0DEE       00E28  6234                       ACALL ELFSTART            Start listening on sockets
                                    6238
 00062C 1BFF                        6239                       CLEAR R15                 A-ok return code
 00062E D227 C750 D04C 00750 00000  6243              ELFOXIT  MVC   CVCUR,ELFCUR        Restore failsoft ptrs
 000634 41D0 D058/982B_      00058  6244                       PEND
 DROP   FEB,R11
 DROP   ELFWA-@@,R13
 DROP   *,R8
1ELF      (ELF2047) (12:35) (15MAR04) ELF Interface                                                                         Page   32
0Current Usings:  (CV,R12)
0Loc    Object Code    Addr1 Addr2  Stmt Lv Lineno    Source Statement           (Hibal 5, Asmedit 3.3)  HLASM R4.0  2004/03/15 12.35
+___    ______ ____    _____ _____  ____ __ ______    ______ _________
0                                   6276              ¿þþþþþþþþþþþþþþþþþþþþþþþþþþþþþþþþþþþþþþþþþþþþþþþþþþþþþþþþþþþþþþþþþþþþþÜ
                                    6277              Ÿ                                                                     Ÿ
                                    6278              Ÿ  ELFCLOSE -- Routine to close ELF front-end.                        Ÿ
                                    6279              Ÿ                                                                     Ÿ
                                    6280              Ÿ    On entry:                                                        Ÿ
                                    6281              Ÿ      R1 - FEB ptr                                                   Ÿ
                                    6282              Ÿ                                                                     Ÿ
                                                      ¾þþþþþþþþþþþþþþþþþþþþþþþþþþþþþþþþþþþþþþþþþþþþþþþþþþþþþþþþþþþþþþþþþþþþþ»
0000648 50E0 D044/902B_      00044  6283              ELFCLOSE PROC  ELFWA
 USING  *,R8
 USING  ELFWA-@@,R13
 000662 D727 D04C D04C 00000 00000  6330                       CLEAR ELFWA
                                    6337
 000668 18B1                        6338                       LR    FEBR,R1
 USING  FEB,R11                     6339                       WITH  FEB
 00066A D502 88B5 B000_00F07 00000  6351                       FAIL  (FEB,NE,'FEB'),'Bad FEB ptr.'
                                    6377
 000684 D227 D04C C750 00000 00750  6378                       MVC   ELFCUR,CVCUR
 00068A D727 C750 C750 00750 00750  6379                       CLEAR CVCUR
 000690 50B0 C750            00750  6386                       ST    FEBR,CVCURFEB       Set current (for failsoft)
                                    6387
 000694 58E0 87CE/0DEE       00E20  6388                       VCALL LOCALTOD            Current time
 00069A 9001 B028            00028  6392                       STM   R0,R1,FEBMCLCK
                                    6393                       ¿þþþþþþþþþþþþþþþþþþþþþþþþþþþþÜ
                                    6394                       Ÿ  Disconnect any sessions.  Ÿ
                                    6395                       ¾þþþþþþþþþþþþþþþþþþþþþþþþþþþþ»
 00069E 5870 B098            00098  6396                       L     R7,FEBPATP
 0006A2 1B66                        6397                       CLEAR R6
 0006A4 4960 B076/47B0_      00076  6401                       WHILE (R6,LT,FEBPMAX),BEGIN  Disconnect current sessions...
 0006AC 18F6                        6420  1                      LR    R15,R6
 0006AE 89F0 0002            00002  6421  1                      SLL   R15,2               PAT offset
 0006B2 58AF 7000/12AA       00000  6422  1                      LT    PIBR,@R7(R15)
 0006B8 4780 80DA            0072C  6426  1                      IF    NZ,BEGIN
 USING  PIB,R10                     6437  2                        WITH  PIB
 0006BC 41F0 0001/4AF0_      00001  6449  2                        INCR  R15,PIBUC
 0006C8 5810 A00C/1211       0000C  6455  2                        LT    R1,PIBSCBP
 0006CE 4780 8086/58E0_      006D8  6459  2                        IF    NZ,'VCALL DISCSESS'  Disconnect session
 0006D8 9680 A067/9680_00067        6479  2                        SET   PIBFSTOP,PIBFDOWN   Stopped
                                    6489  2                        ¿þþþþþþþþþþþþþþþþþþþþþþþþþþþþþþþþþþþþþþþþþÜ
                                    6490  2                        Ÿ  Reduce user count by one on this ELF.  Ÿ
                                    6491  2                        ¾þþþþþþþþþþþþþþþþþþþþþþþþþþþþþþþþþþþþþþþþþ»
 0006E0 9501 A0A0/4770_000A0        6492  2                        IF    PIBPELF,BEGIN       Adjust ELF user count...
 0006E8 4800 8866            00EB8  6507  3                          LH    R0,=H'-1'           Reduce count by one
 0006EC 5810 A0F8            000F8  6508  3                          L     R1,PIBRIP           ELF's IP address
 0006F0 58E0 87DE/0DEE       00E30  6509  3                          ACALL COUNTEIB            Do it
 0006F6                             6513  2                        END
                                    6517  2                        ¿þþþþþþþþþþþþþþþþþþþþþþþþþþþþþÜ
                                    6518  2                        Ÿ  Free port control blocks.  Ÿ
                                    6519  2                        ¾þþþþþþþþþþþþþþþþþþþþþþþþþþþþþ»
 0006F6 5810 A120/1211       00120  6520  2                        LT    R1,PIBINSGLOC
 0006FC 4780 80BA/D703_      0070C  6524  2                        IF    NZ,'CLEAR PIBINSGLOC; VCALL FREECORE'  Free inp buf
                                    6551  2
 00070C 58F0 A0D8/12FF       000D8  6552  2                        LT    R15,PIBTIMERID
1ELF      (ELF2047) (12:35) (15MAR04) ELF Interface                                                                         Page   33
0Current Usings:  (*,R8) (PIB,R10) (FEB,R11) (CV,R12) (ELFWA-@@,R13)
0Loc    Object Code    Addr1 Addr2  Stmt Lv Lineno    Source Statement           (Hibal 5, Asmedit 3.3)  HLASM R4.0  2004/03/15 12.35
+___    ______ ____    _____ _____  ____ __ ______    ______ _________
0000712 4780 80D0/D703_      00722  6556  2                        IF    NZ,'CLEAR PIBTIMERID; VCALL TIMERDQ'  Dequeue timer
                                    6583  2
 000722 4110 A000            00000  6584  2                        LA    R1,PIB
 000726 58E0 87EA/0DEE       00E3C  6585  2                        VCALL FREEPIB             Free the port block
 DROP   PIB,R10                     6589  1                      END
                                    6598  1
 00072C 4160 6001            00001  6599  1                      LA    R6,@R6+1
 000730 47F0 8052            006A4  6600                       END
                                    6605                       ¿þþþþþþþþþþþþþþþþþþþþþþþþþþþþþÜ
                                    6606                       Ÿ  Close the path to Amelia.  Ÿ
                                    6607                       ¾þþþþþþþþþþþþþþþþþþþþþþþþþþþþþ»
 000734 4110 B0C0            000C0  6608                       LA    R1,FEBUPATH
 000738 58E0 87EE/0DEE       00E40  6609                       VCALL PATHCLS             Close path
 00073E 4150 B0C0            000C0  6613                       LA    R5,FEBUPATH
 USING  UPATH,R5                    6614                       WITH  (UPATH,R5),BEGIN
 000742 947F 5004      00004        6628  1                      CLEAR UPATFOPENED         Path is no longer open
 000746 9200 5040      00040        6635  1                      CLEAR UPATSFLG            Reset Suzan post byte
 DROP   UPATH,R5                    6642                       END
                                    6650                       ¿þþþþþþþþþþþþþþþþþþþþþþþþþþþþþþþþþþþþÜ
                                    6651                       Ÿ  Free pending send message queue.  Ÿ
                                    6652                       ¾þþþþþþþþþþþþþþþþþþþþþþþþþþþþþþþþþþþþ»
 00074A 5850 B19C            0019C  6653                       L     R5,FEBAMYQH         Get queue head
 00074E D703 B19C B19C_0019C 0019C  6654                       CLEAR FEBAMYQH,FEBAMYQT   Reset queue ptrs first
                                    6666
 00075A 1255/4780 8130              6667                       WHILE (R5,NZ),BEGIN       Go through queue...
 USING  AMYQ,R5                     6683  1                      WITH  (AMYQ,R5)
                                    6696  1
 000760 D503 87F2 5000_00E44 00000  6697  1                      IF    (AMYQID,NE,'AMYQ'),EXIT  Bad ID, can't free
 00076A D203 5000 87F6 00000 00E48  6717  1                      MVC   AMYQID,=C'FREQ'     Change ID
                                    6718  1
 000770 4110 5000            00000  6719  1                      LA    R1,AMYQ
 000774 5850 5004            00004  6720  1                      L     R5,AMYQLINK         Get next AMYQ entry
 000778 58E0 87E2/0DEE       00E34  6721  1                      VCALL FREECORE            Release entry
 00077E 47F0 8108            0075A  6725                       END
 DROP   AMYQ,R5
                                    6735                       ¿þþþþþþþþþþþþþþþþþþþþþþþþþþþþþÜ
                                    6736                       Ÿ  Reset socket information.  Ÿ
                                    6737                       ¾þþþþþþþþþþþþþþþþþþþþþþþþþþþþþ»
 000782 4130 B17C            0017C  6738                       LA    R3,FEBSOCKH-(SOCKLINK-SOCK)  Dummy first link
 USING  SOCK,R3                     6739                       WITH  (SOCK,R3),BEGIN
 000786 5830 3004/1233_      00004  6753  1                      WHILE ('LT R3,SOCKLINK',NZ),BEGIN
 000790 94BF 3009      00009        6771  2                        CLEAR SOCKFLISTEN         Not listening now
 000794 47F0 8134            00786  6778  1                      END
 DROP   SOCK,R3                     6783                       END
                                    6791                       ¿þþþþþþþþþþþþþþþþþþþþþþþþþþþþþþþþþþÜ
                                    6792                       Ÿ  Tidy up front-end information.  Ÿ
                                    6793                       ¾þþþþþþþþþþþþþþþþþþþþþþþþþþþþþþþþþþ»
 000798 D701 B080 B080 00080 00080  6794                       CLEAR FEBSCUR             Indicate no sessions active
                                    6801
 00079E 96A0 B071      00071        6802                       SET   FEBFCLS+FEBFDOWN    Closed
 0007A2 94BF B00C      0000C        6811                       CLEAR FEBFOPEN            Not opened
                                    6818
 0007A6 D227 C750 D04C 00750 00000  6819                       MVC   CVCUR,ELFCUR        Restore current
 0007AC 41D0 D058/982B_      00058  6820                       PEND
1ELF      (ELF2047) (12:35) (15MAR04) ELF Interface                                                                         Page   34
0Current Usings:  (CV,R12)
0Loc    Object Code    Addr1 Addr2  Stmt Lv Lineno    Source Statement           (Hibal 5, Asmedit 3.3)  HLASM R4.0  2004/03/15 12.35
+___    ______ ____    _____ _____  ____ __ ______    ______ _________
0DROP   FEB,R11
 DROP   ELFWA-@@,R13
 DROP   *,R8
1ELF      (ELF2047) (12:35) (15MAR04) ELF Interface                                                                         Page   35
0Current Usings:  (CV,R12)
0Loc    Object Code    Addr1 Addr2  Stmt Lv Lineno    Source Statement           (Hibal 5, Asmedit 3.3)  HLASM R4.0  2004/03/15 12.35
+___    ______ ____    _____ _____  ____ __ ______    ______ _________
0                                   6852              ¿þþþþþþþþþþþþþþþþþþþþþþþþþþþþþþþþþþþþþþþþþþþþþþþþþþþþþþþþþþþþþþþþþþþþþÜ
                                    6853              Ÿ                                                                     Ÿ
                                    6854              Ÿ  ELFSTART -- Local routine to start accepting new sessions.         Ÿ
                                    6855              Ÿ                                                                     Ÿ
                                                      ¾þþþþþþþþþþþþþþþþþþþþþþþþþþþþþþþþþþþþþþþþþþþþþþþþþþþþþþþþþþþþþþþþþþþþþ»
00007C0 50E0 D044/902B_      00044  6856              ELFSTART PROC  ELFWA
 USING  *,R8
 USING  ELFWA-@@,R13
 0007DA D727 D04C D04C 00000 00000  6903                       CLEAR ELFWA
                                    6910
 USING  FEB,R11                     6911                       WITH  FEB                 (Entry assumption)
 0007E0 D227 D04C C750 00000 00750  6923                       MVC   ELFCUR,CVCUR
 0007E6 D727 C750 C750 00750 00750  6924                       CLEAR CVCUR
 0007EC 50B0 C750            00750  6931                       ST    FEBR,CVCURFEB       Set current (for failsoft)
                                    6932
 0007F0 4150 B0C0            000C0  6933                       LA    R5,FEBUPATH
 USING  UPATH,R5                    6934                       WITH  (UPATH,R5)
 0007F4 9180 5004/47E0_00004        6947                       IF    ~UPATFOPENED,ELFSXIT  Path not open, forget it
                                    6965
 0007FC 41F0 B13C/58E0_      0013C  6966                       SEGCLR FEBUSG
                                    6979                       ¿þþþþþþþþþþþþþþþþþþþþþþþþþþþþþþþþþþþþþþþÜ
                                    6980                       Ÿ  Start listening on all our sockets.  Ÿ
                                    6981                       ¾þþþþþþþþþþþþþþþþþþþþþþþþþþþþþþþþþþþþþþþ»
 000806 4130 B17C            0017C  6982                       LA    R3,FEBSOCKH-(SOCKLINK-SOCK)  Dummy first link
 USING  SOCK,R3                     6983                       WITH  (SOCK,R3),BEGIN
 00080A 5830 3004/1233_      00004  6997  1                      WHILE ('LT R3,SOCKLINK',NZ),BEGIN
 000814 9140 3009/4710_00009        7015  2                        IF    ~SOCKFLISTEN,BEGIN  Not listening on this socket...
 00081C 9640 3009      00009        7030  3                          SET   SOCKFLISTEN         We are listening now
 000820 9680 B0B8      000B8        7036  3                          SET   FEBFCTRL            Segging control info
 000824 4110 8576/4100_      00D40  7042  3                          SEG   LA:=CL16'TCP_LISTEN:',16
 000836 4110 86F0/4100_      00EBA  7069  3                          SEG   'LPORT='
 000848 5810 3010/1B00_      00010  7086  3                          SEGDC L:SOCKNO            Listen on this socket number
 000858 4110 8740/4100_      00F0A  7107  3                          SEG   ' MAX='
 00086A 5810 3014/1B00_      00014  7124  3                          SEGDC L:SOCKMAX           Maximum number of connections
 00087A 4110 8745/4100_      00F0F  7145  3                          SEG   ' FLOWL='
 00088C 5810 301C/1B00_      0001C  7162  3                          SEGDC L:SOCKFLOL
 00089C 4110 874C/4100_      00F16  7183  3                          SEG   ' FLOWH='
 0008AE 5810 3018/1B00_      00018  7200  3                          SEGDC L:SOCKFLOH
 0008BE 1B00/41F0 B13C_             7221  3                          SEGWR
 0008CA 947F B0B8      000B8        7245  3                          CLEAR FEBFCTRL            Reset
 0008CE                             7252  2                        END
 0008CE 47F0 8040            0080A  7256  1                      END
 DROP   SOCK,R3                     7261                       END
                                    7269
 0008D2 D227 C750 D04C 00750 00000  7270              ELFSXIT  MVC   CVCUR,ELFCUR        Restore current
 0008D8 41D0 D058/982B_      00058  7271                       PEND
 DROP   UPATH,R5
 DROP   FEB,R11
 DROP   ELFWA-@@,R13
 DROP   *,R8
1ELF      (ELF2047) (12:35) (15MAR04) ELF Interface                                                                         Page   36
0Current Usings:  (CV,R12)
0Loc    Object Code    Addr1 Addr2  Stmt Lv Lineno    Source Statement           (Hibal 5, Asmedit 3.3)  HLASM R4.0  2004/03/15 12.35
+___    ______ ____    _____ _____  ____ __ ______    ______ _________
0                                   7308              ¿þþþþþþþþþþþþþþþþþþþþþþþþþþþþþþþþþþþþþþþþþþþþþþþþþþþþþþþþþþþþþþþþþþþþþÜ
                                    7309              Ÿ                                                                     Ÿ
                                    7310              Ÿ  ELFSTOP -- Local routine to stop accepting new sessions.           Ÿ
                                    7311              Ÿ                                                                     Ÿ
                                                      ¾þþþþþþþþþþþþþþþþþþþþþþþþþþþþþþþþþþþþþþþþþþþþþþþþþþþþþþþþþþþþþþþþþþþþþ»
00008EC 50E0 D044/902B_      00044  7312              ELFSTOP  PROC  ELFWA
 USING  *,R8
 USING  ELFWA-@@,R13
 000906 D727 D04C D04C 00000 00000  7359                       CLEAR ELFWA
                                    7366
 USING  FEB,R11                     7367                       WITH  FEB                 (Entry assumption)
                                    7379
 00090C D227 D04C C750 00000 00750  7380                       MVC   ELFCUR,CVCUR
 000912 D727 C750 C750 00750 00750  7381                       CLEAR CVCUR
 000918 50B0 C750            00750  7388                       ST    FEBR,CVCURFEB       Set current (for failsoft)
                                    7389                       ¿þþþþþþþþþþþþþþþþþþþþþþþþþþþþþþþþþþþþþþÜ
                                    7390                       Ÿ  Stop listening on all our sockets.  Ÿ
                                    7391                       ¾þþþþþþþþþþþþþþþþþþþþþþþþþþþþþþþþþþþþþþ»
 00091C 4130 B17C            0017C  7392                       LA    R3,FEBSOCKH-(SOCKLINK-SOCK)  Dummy first link
 USING  SOCK,R3                     7393                       WITH  (SOCK,R3),BEGIN
 000920 5830 3004/1233_      00004  7407  1                      WHILE ('LT R3,SOCKLINK',NZ),BEGIN
 00092A 9140 3009/47E0_00009        7425  2                        IF    SOCKFLISTEN,BEGIN   We were listening...
 000932 94BF 3009      00009        7440  3                          CLEAR SOCKFLISTEN         Not listening any more
 000936 9680 B0B8      000B8        7447  3                          SET   FEBFCTRL            Segging control info
 00093A 4110 845A/4100_      00D50  7453  3                          SEG   LA:=CL16'TCP_END_LISTEN:',16
 00094C 4110 3010/4100_      00010  7480  3                          SEG   SOCKNO              Socket number
 00095E 1B00/41F0 B13C_             7507  3                          SEGWR
 00096A 947F B0B8      000B8        7531  3                          CLEAR FEBFCTRL            Reset
 00096E                             7538  2                        END
 00096E 47F0 802A            00920  7542  1                      END
 DROP   SOCK,R3                     7547                       END
                                    7555
 000972 D227 C750 D04C 00750 00000  7556                       MVC   CVCUR,ELFCUR        Restore current
 000978 41D0 D058/982B_      00058  7557                       PEND
 DROP   FEB,R11
 DROP   ELFWA-@@,R13
 DROP   *,R8
1ELF      (ELF2047) (12:35) (15MAR04) ELF Interface                                                                         Page   37
0Current Usings:  (CV,R12)
0Loc    Object Code    Addr1 Addr2  Stmt Lv Lineno    Source Statement           (Hibal 5, Asmedit 3.3)  HLASM R4.0  2004/03/15 12.35
+___    ______ ____    _____ _____  ____ __ ______    ______ _________
0                                   7589              ¿þþþþþþþþþþþþþþþþþþþþþþþþþþþþþþþþþþþþþþþþþþþþþþþþþþþþþþþþþþþþþþþþþþþþþÜ
                                    7590              Ÿ                                                                     Ÿ
                                    7591              Ÿ  ELFCNTL -- Routine to perform an ELF control operation.            Ÿ
                                    7592              Ÿ                                                                     Ÿ
                                    7593              Ÿ    On entry:                                                        Ÿ
                                    7594              Ÿ      R0 - control number                                            Ÿ
                                    7595              Ÿ      R1 - FEB ptr                                                   Ÿ
                                    7596              Ÿ      R15- PDB ptr                                                   Ÿ
                                    7597              Ÿ                                                                     Ÿ
                                    7598              Ÿ    On exit, R15 (and CC):                                           Ÿ
                                    7599              Ÿ      -8 - bad control number                                        Ÿ
                                    7600              Ÿ      -4 - bad format                                                Ÿ
                                    7601              Ÿ       0 - ok (PDB has return data)                                  Ÿ
                                    7602              Ÿ      12 - error                                                     Ÿ
                                    7603              Ÿ                                                                     Ÿ
                                                      ¾þþþþþþþþþþþþþþþþþþþþþþþþþþþþþþþþþþþþþþþþþþþþþþþþþþþþþþþþþþþþþþþþþþþþþ»
000098C 50E0 D044/902B_      00044  7604              ELFCNTL  XPROC
 USING  *,R8
 0009A6 18B1                        7642                       LR    FEBR,R1
 USING  FEB,R11                     7643                       WITH  FEB
 0009A8 D502 8571 B000_00F07 00000  7655                       FAIL  (FEB,NE,'FEB'),'Bad FEB ptr.'
 0009C2 187F                        7681                       LR    R7,R15
 USING  PDB,R7                      7682                       WITH  (PDB,R7)
                                    7695
 0009C4 4160 7038            00038  7696                       LA    R6,PDBTEXT
 USING  FDB,R6                      7697                       WITH  (FDB,R6)
                                    7710
 0009C8 18E0                        7711                       LR    RAR,R0
 0009CA 59E0 84BA/4750_      00E50  7712                       IF    (RAR,GE,100),BEGIN  Priv'd control...
 0009D2 59E0 84BE/47D0_      00E54  7729  1                      IF    (RAR,GT,TCTLPMAX),'LA RAR,100'
 0009DE 4BE0 852A            00EC0  7752  1                      SH    RAR,=H'100'
 0009E2 89E0 0002            00002  7753  1                      SLL   RAR,2
 0009E6 58EE 8076            00A0C  7754  1                      L     RAR,TCTLPTBL(RAR)   Processing routine
 0009EA 07FE                        7755  1                      BR    RAR
 0009EC                             7756                       END
                                    7760
 0009EC 55E0 84C2/47D0_      00E58  7761                       IF    (RAR,LGT,TCTLMAX),'CLEAR RAR'
 0009F6 89E0 0002            00002  7787                       SLL   RAR,2
 0009FA 58EE 806A            00A00  7788                       L     RAR,TCTLTBL(RAR)    Processing routine
 0009FE 07FE                        7789                       BR    RAR
1ELF      (ELF2047) (12:35) (15MAR04) ELF Interface                                                                         Page   38
0Current Usings:  (FDB,R6) (PDB,R7) (*,R8) (FEB,R11) (CV,R12)
0Loc    Object Code    Addr1 Addr2  Stmt Lv Lineno    Source Statement           (Hibal 5, Asmedit 3.3)  HLASM R4.0  2004/03/15 12.35
+___    ______ ____    _____ _____  ____ __ ______    ______ _________
0000A00 00000A18                    7791              TCTLTBL  DC    A(TCTL0)
 000A04 00000A36                    7792                       DC    A(TCTL1)            1:   sense Telnet front-end info
 000A08 00000A8A                    7793                       DC    A(TCTL2)            2:   sense Telnet port info
                                    7794              TCTLMAX  EQU   (*-TCTLTBL-4)/4,,C'N'
                                    7795
 000A0C                             7796                       DS    0S(TCTLMAX-FDBCMAX,FDBCMAX-TCTLMAX)
-000A0C 00000A18                    7798              TCTLPTBL DC    A(TCTL0)
 000A10 00000AFC                    7799                       DC    A(TCTL101)          101: set Telnet front-end
 000A14 00000B6C                    7800                       DC    A(TCTL102)          102: set Telnet port
                                    7801              TCTLPMAX EQU   (*-TCTLPTBL-4)/4+100,,C'N'
                                    7802
 000A18                             7803                       DS    0S(TCTLPMAX-FDBPMAX,FDBPMAX-TCTLPMAX)
-                                   7805              ¿þþþþþþþþþþþþþþþþþþþþþþþþþþþþþþþþþþþþþþþþþþþþþþþþþþþþþþþþþþþþþþþþþþþþþÜ
                                    7806              Ÿ                                                                     Ÿ
                                    7807              Ÿ  CONTROL 0:   bad control number                                    Ÿ
                                    7808              Ÿ                                                                     Ÿ
                                                      ¾þþþþþþþþþþþþþþþþþþþþþþþþþþþþþþþþþþþþþþþþþþþþþþþþþþþþþþþþþþþþþþþþþþþþþ»
0000A18 48F0 852C            00EC2  7809              TCTL0    LH    R15,=H'-8'
 000A1C 47F0 81E4            00B7A  7810                       B     TCTLEXIT
                                    7811
 000A20 48F0 852E            00EC4  7812              TCTLBF   LH    R15,=H'-4'
 000A24 47F0 81E4            00B7A  7813                       B     TCTLEXIT
                                    7814
 000A28 41F0 000C            0000C  7815              TCTLRC12 LA    R15,12
 000A2C 47F0 81E4            00B7A  7816                       B     TCTLEXIT
                                    7817
 000A30 1BFF                        7818              TCTLOK   CLEAR R15
 000A32 47F0 81E4            00B7A  7823                       B     TCTLEXIT
1ELF      (ELF2047) (12:35) (15MAR04) ELF Interface                                                                         Page   39
0Current Usings:  (FDB,R6) (PDB,R7) (*,R8) (FEB,R11) (CV,R12)
0Loc    Object Code    Addr1 Addr2  Stmt Lv Lineno    Source Statement           (Hibal 5, Asmedit 3.3)  HLASM R4.0  2004/03/15 12.35
+___    ______ ____    _____ _____  ____ __ ______    ______ _________
0                                   7825              ¿þþþþþþþþþþþþþþþþþþþþþþþþþþþþþþþþþþþþþþþþþþþþþþþþþþþþþþþþþþþþþþþþþþþþþÜ
                                    7826              Ÿ                                                                     Ÿ
                                    7827              Ÿ  CONTROL 1:   sense Telnet front-end info                           Ÿ
                                    7828              Ÿ                                                                     Ÿ
                                                      ¾þþþþþþþþþþþþþþþþþþþþþþþþþþþþþþþþþþþþþþþþþþþþþþþþþþþþþþþþþþþþþþþþþþþþþ»
-000A36 D501 8530 7032_00EC6 00032  7830              TCTL1    IF    (PDBWC,NE,L'FDBT1),TCTLBF  Bad parms
 000A40 D70B 6000 6000 00000 00000  7851                       CLEAR FDBF1
 000A46 D201 6008 8532 00008 00EC8  7858                       MVC   FDBFFTNO,=AL2(TTRC#)  No. of entries
 000A4C D201 600A 8534 0000A 00ECA  7859                       MVC   FDBFFLEN,=AL2(L'TTRC)  Size of an entry
 000A52 4120 600C            0000C  7860                       LA    R2,FDBFFTRC
 000A56 9835 B0A0            000A0  7861                       LM    R3,R5,FEBTRCP+4     R3=next,R4=first,R5=end
 000A5A                             7862                       LOOP  BEGIN
 000A5A 5B30 B09C            0009C  7868  1                      S     R3,FEBTRCP          Back up
 000A5E 1934/47B0 80D4_             7869  1                      IF    (R3,LT,R4),'LR R3,R5; S R3,FEBTRCP'  Last
 000A6A D247 2000 3000 00000 00000  7891  1                      MVC   @R2(L'TTRC),@R3     Copy trace entry
 000A70 4120 2048            00048  7892  1                      LA    R2,@R2+L'TTRC       Next entry
 000A74 5930 B0A0/4780_      000A0  7893  1                      UNTIL ('C R3,FEBTRCP+4',EQ)
 000A7C 47F0 80C4            00A5A  7910                       END
 000A80 D201 7000 8536 00000 00ECC  7915                       MVC   PDBLENG,=AL2(L'PDBHDR+L'FDBF1+TTRC#*L'TTRC)
 000A86 47F0 809A            00A30  7916                       B     TCTLOK
-                                   7918              ¿þþþþþþþþþþþþþþþþþþþþþþþþþþþþþþþþþþþþþþþþþþþþþþþþþþþþþþþþþþþþþþþþþþþþþÜ
                                    7919              Ÿ                                                                     Ÿ
                                    7920              Ÿ  CONTROL 2:   sense Telnet port info                                Ÿ
                                    7921              Ÿ                                                                     Ÿ
                                                      ¾þþþþþþþþþþþþþþþþþþþþþþþþþþþþþþþþþþþþþþþþþþþþþþþþþþþþþþþþþþþþþþþþþþþþþ»
0000A8A D501 8538 7032_00ECE 00032  7922              TCTL2    IF    (PDBWC,NE,L'FDBT2),TCTLBF  Bad parms
 000A94 48F0 6004            00004  7943                       LH    R15,FDBT2P          Port no.
 000A98 BDF3 B076/47A0_      00076  7944                       IF    (R15,LGE,FEBPMAX),TCTLRC12  Out of bounds
 000AA0 89F0 0002            00002  7964                       SLL   R15,2
 000AA4 58A0 B098            00098  7965                       L     PIBR,FEBPATP
 000AA8 58AF A000/12AA       00000  7966                       LT    PIBR,@PIBR(R15)     PIB ptr
 000AAE 4780 8092            00A28  7970                       BZ    TCTLRC12
 000AB2 D70F 6000 6000 00000 00000  7971                       CLEAR FDBF2
 USING  PIB,R10                     7978                       WITH  PIB,BEGIN
 000AB8 D201 600C 853A 0000C 00ED0  7991  1                      MVC   FDBFPTNO,=AL2(TTRCP#)  No. of trace entries
 000ABE D201 600E 853C 0000E 00ED2  7992  1                      MVC   FDBFPLEN,=AL2(L'TTRCP)  Length of a trace entry
                                    7993  1
 000AC4 4120 6010            00010  7994  1                      LA    R2,FDBFPTRC
 000AC8 9835 A094            00094  7995  1                      LM    R3,R5,PIBTRCP+4     R3=next,R4=first,R5=end
 000ACC                             7996  1                      LOOP  BEGIN
 000ACC 5B30 A090            00090  8002  2                        S     R3,PIBTRCP          Back up
 000AD0 1934/47B0 8146_             8003  2                        IF    (R3,LT,R4),'LR R3,R5; S R3,PIBTRCP'  Last
 000ADC D20D 2000 3000 00000 00000  8025  2                        MVC   @R2(L'TTRCP),@R3    Copy trace entry
 000AE2 4120 200E            0000E  8026  2                        LA    R2,@R2+L'TTRCP      Next entry
 000AE6 5930 A094/4780_      00094  8027  2                        UNTIL ('C R3,PIBTRCP+4',EQ)
 000AEE 47F0 8136            00ACC  8044  1                      END
 DROP   PIB,R10                     8049                       END
 000AF2 D201 7000 853E 00000 00ED4  8057                       MVC   PDBLENG,=AL2(L'PDBHDR+L'FDBF2+TTRCP#*L'TTRCP)
 000AF8 47F0 809A            00A30  8058                       B     TCTLOK
1ELF      (ELF2047) (12:35) (15MAR04) ELF Interface                                                                         Page   40
0Current Usings:  (FDB,R6) (PDB,R7) (*,R8) (FEB,R11) (CV,R12)
0Loc    Object Code    Addr1 Addr2  Stmt Lv Lineno    Source Statement           (Hibal 5, Asmedit 3.3)  HLASM R4.0  2004/03/15 12.35
+___    ______ ____    _____ _____  ____ __ ______    ______ _________
0                                   8060              ¿þþþþþþþþþþþþþþþþþþþþþþþþþþþþþþþþþþþþþþþþþþþþþþþþþþþþþþþþþþþþþþþþþþþþþÜ
                                    8061              Ÿ                                                                     Ÿ
                                    8062              Ÿ  CONTROL 101: set Telnet front-end                                  Ÿ
                                    8063              Ÿ                                                                     Ÿ
                                                      ¾þþþþþþþþþþþþþþþþþþþþþþþþþþþþþþþþþþþþþþþþþþþþþþþþþþþþþþþþþþþþþþþþþþþþþ»
0000AFC D501 8540 7032_00ED6 00032  8064              TCTL101  IF    (PDBWC,NE,L'FDBT101),TCTLBF  Bad parms
                                    8085
 000B06 91A0 6004/4780_00004        8086                       IF    FDBTFOPN+FDBTFSTR,BEGIN  Open or start...
 000B0E 4110 B000            00000  8104  1                      LA    R1,FEB
 000B12 58E0 84C6/0DEE       00E5C  8105  1                      ACALL ELFOPEN             Open fe, if not already open
 000B18 47F0 81E4            00B7A  8109  1                      B     TCTLEXIT
 000B1C                             8110                       END
                                    8114
 000B1C 9140 6004/47E0_00004        8115                       IF    FDBTFSTP,BEGIN      Stop...
 000B24 58E0 84CA/0DEE       00E60  8130  1                      ACALL ELFSTOP
 000B2A 47F0 809A            00A30  8134  1                      B     TCTLOK
 000B2E                             8135                       END
                                    8139
 000B2E 9110 6004/47E0_00004        8140                       IF    FDBTFCLS,BEGIN      Close...
 000B36 D23F B030 83CA 00030 00D60  8155  1                      MVC   FEBMSG,=CL(L'FEBMSG)'Closed by gg.uuu'
 000B3C 58F0 C758            00758  8156  1                      L     R15,CVCURSCB
 USING  SCB,R15                     8157  1                      WITH  (SCB,R15),BEGIN
 000B40 D201 B03A F127 0003A 00127  8171  2                        MVC   FEBMSG+10(2),SCBGRP
 000B46 D202 B03D F124 0003D 00124  8172  2                        MVC   FEBMSG+13(3),SCBUSER
 000B4C 9501 F0FC/4770_000FC        8173  2                        IF    SCBTCONS,'MVC FEBMSG+10(20),SCBNAME'
 DROP   SCB,R15                     8194  1                      END
                                    8202  1
 000B5A 4110 B000            00000  8203  1                      LA    R1,FEB
 000B5E 58E0 84CE/0DEE       00E64  8204  1                      ACALL ELFCLOSE            Close front-end
 000B64 47F0 809A            00A30  8208  1                      B     TCTLOK
 000B68                             8209                       END
                                    8213
 000B68 47F0 808A            00A20  8214                       B     TCTLBF
-                                   8216              ¿þþþþþþþþþþþþþþþþþþþþþþþþþþþþþþþþþþþþþþþþþþþþþþþþþþþþþþþþþþþþþþþþþþþþþÜ
                                    8217              Ÿ                                                                     Ÿ
                                    8218              Ÿ  CONTROL 102: set Telnet port                                       Ÿ
                                    8219              Ÿ                                                                     Ÿ
                                                      ¾þþþþþþþþþþþþþþþþþþþþþþþþþþþþþþþþþþþþþþþþþþþþþþþþþþþþþþþþþþþþþþþþþþþþþ»
0000B6C D501 8542 7032_00ED8 00032  8220              TCTL102  IF    (PDBWC,NE,L'FDBT102),TCTLBF  bad parms
 000B76 47F0 8092            00A28  8241                       B     TCTLRC12            Can't start/stop individual port
                                    8242              *
                                    8243              *
 000B7A 41D0 D030/982B_      00030  8244              TCTLEXIT PEND
 DROP   FDB,R6
 DROP   PDB,R7
 DROP   FEB,R11
 DROP   *,R8
1ELF      (ELF2047) (12:35) (15MAR04) ELF Interface                                                                         Page   41
0Current Usings:  (CV,R12)
0Loc    Object Code    Addr1 Addr2  Stmt Lv Lineno    Source Statement           (Hibal 5, Asmedit 3.3)  HLASM R4.0  2004/03/15 12.35
+___    ______ ____    _____ _____  ____ __ ______    ______ _________
0                                   8281              ¿þþþþþþþþþþþþþþþþþþþþþþþþþþþþþþþþþþþþþþþþþþþþþþþþþþþþþþþþþþþþþþþþþþþþþÜ
                                    8282              Ÿ                                                                     Ÿ
                                    8283              Ÿ  ELFUPD -- Routine to check SCB updates.                            Ÿ
                                    8284              Ÿ                                                                     Ÿ
                                    8285              Ÿ    On entry:                                                        Ÿ
                                    8286              Ÿ      R1 - SCB ptr                                                   Ÿ
                                    8287              Ÿ                                                                     Ÿ
                                                      ¾þþþþþþþþþþþþþþþþþþþþþþþþþþþþþþþþþþþþþþþþþþþþþþþþþþþþþþþþþþþþþþþþþþþþþ»
0000B8E 50E0 D044/902B_      00044  8288              ELFUPD   XPROC
 USING  *,R8
 000BA8 1891                        8326                       LR    SCBR,R1
 USING  SCB,R9                      8327                       WITH  SCB
 000BAA 58A0 9008/12AA       00008  8339                       LT    PIBR,SCBPIBP
 000BB0 4780 8132            00CCA  8343                       IF    Z,EXIT              No PIB, forget it
 USING  PIB,R10                     8357                       WITH  PIB
 000BB4 D502 8385 A000_00F1D 00000  8369                       FAIL  (PIB,NE,'PIB'),'Bad PIB ptr.'
 000BCE 58B0 A008/12BB       00008  8395                       LT    FEBR,PIBFEBP
 000BD4 4780 8132            00CCA  8399                       IF    Z,EXIT              No FEB, forget it
 USING  FEB,R11                     8413                       WITH  FEB
 000BD8 D502 836F B000_00F07 00000  8425                       FAIL  (FEB,NE,'FEB'),'Bad FEB ptr.'
                                    8451                       ¿þþþþþþþþþþþþþþþþþþþþþþþþþþþþþþþþþþþþþþþþþþþþþþþþþþþþþþþþþÜ
                                    8452                       Ÿ  Replace the IPADR field (don't allow user to set it).  Ÿ
                                    8453                       ¾þþþþþþþþþþþþþþþþþþþþþþþþþþþþþþþþþþþþþþþþþþþþþþþþþþþþþþþþþ»
 000BF2 D203 9198 A0FC 00198 000FC  8454                       MVC   SCBIPADR,PIBTELIP
                                    8455                       ¿þþþþþþþþþþþþþþþþþþþþþþþþþþþþþþþþþþþþþþþþþþþþþþþþþþþþþþþþþþþÜ
                                    8456                       Ÿ  Don't allow session to be flagged as supporting model    Ÿ
                                    8457                       Ÿ    terminal if it is a direct connection.  This to force  Ÿ
                                    8458                       Ÿ    Spires to reject full screen operations.               Ÿ
                                    8459                       ¾þþþþþþþþþþþþþþþþþþþþþþþþþþþþþþþþþþþþþþþþþþþþþþþþþþþþþþþþþþþ»
 000BF8 9501 A0A0/4780_000A0        8460                       IF    ~PIBPELF,'CLEAR SCBFMOD'  Not a model terminal
                                    8487                       ¿þþþþþþþþþþþþþþþþþþþþþþþþþþþþþþþþþþþþþþþþþþþþþþþþþþþþþþþþþþþþÜ
                                    8488                       Ÿ  Send Amelia information about the TCP connection as soon  Ÿ
                                    8489                       Ÿ    as the user logs on (and SCBACCT is set).               Ÿ
                                    8490                       ¾þþþþþþþþþþþþþþþþþþþþþþþþþþþþþþþþþþþþþþþþþþþþþþþþþþþþþþþþþþþþ»
 000C04 D504 9124 A0B4_00124 000B4  8491                       IF    (SCBACCT,NE,PIBXACCT),BEGIN  Account has changed...
 000C0E 41F0 B13C/58E0_      0013C  8509  1                      SEGCLR FEBUSG
 000C18 9680 B0B8      000B8        8522  1                      SET   FEBFCTRL            Segging control info
 000C1C 4110 8208/4100_      00DA0  8528  1                      SEG   LA:=CL16'TCP_INFO:',16
 000C2E 4110 A0F4/4100_      000F4  8555  1                      SEG   PIBAID              Amelia's connection ID
 000C40 4110 8388/4100_      00F20  8582  1                      SEG   'Line '
 000C52 4810 90F8/1B00_      000F8  8599  1                      SEGDC LH:SCBNO
 000C62 D604 9124 9124_00124 00124  8619  1                      IF    (SCBACCT,NZ),BEGIN  Give account if logged on...
 000C6C 4110 838D/4100_      00F25  8635  2                        SEG   ' '
 000C7E 4110 9127/4100_      00127  8652  2                        SEG   SCBGRP
 000C90 4110 838E/4100_      00F26  8679  2                        SEG   '.'
 000CA2 4110 9124/4100_      00124  8696  2                        SEG   SCBUSER
 000CB4                             8723  1                      END
 000CB4 1B00/41F0 B13C_             8727  1                      SEGWR
 000CC0 947F B0B8      000B8        8751  1                      CLEAR FEBFCTRL            Reset
                                    8758  1
 000CC4 D204 A0B4 9124 000B4 00124  8759  1                      MVC   PIBXACCT,SCBACCT    Save Info account for comparison
 000CCA                             8760                       END
                                    8764
1ELF      (ELF2047) (12:35) (15MAR04) ELF Interface                                                                         Page   42
0Current Usings:  (CV,R12)
0Loc    Object Code    Addr1 Addr2  Stmt Lv Lineno    Source Statement           (Hibal 5, Asmedit 3.3)  HLASM R4.0  2004/03/15 12.35
+___    ______ ____    _____ _____  ____ __ ______    ______ _________
0000CCA 41D0 D030/982B_      00030  8765                       PEND
 DROP   FEB,R11
 DROP   PIB,R10
 DROP   SCB,R9
 DROP   *,R8
                                    8800
                                    8801                       QLTORG
1ELF      (ELF2047) (12:35) (15MAR04) ELF Interface                                                                         Page   43
0Current Usings:  (CV,R12)
0Loc    Object Code    Addr1 Addr2  Stmt Lv Lineno    Source Statement           (Hibal 5, Asmedit 3.3)  HLASM R4.0  2004/03/15 12.35
+___    ______ ____    _____ _____  ____ __ ______    ______ _________
0                                   8899              ¿þþþþþþþþþþþþþþþþþþþþþþþþþþþþþþþþþþþþþþþþþþþþþþþþþþþþþþþþþþþþþþþþþþþþþÜ
                                    8900              Ÿ                                                                     Ÿ
                                    8901              Ÿ  ELFDO -- Routine to do ELF terminal I/O.                           Ÿ
                                    8902              Ÿ                                                                     Ÿ
                                    8903              Ÿ    On entry:                                                        Ÿ
                                    8904              Ÿ       R1 - SCB ptr                                                  Ÿ
                                    8905              Ÿ       R15 - PDB ptr                                                 Ÿ
                                    8906              Ÿ                                                                     Ÿ
                                                      ¾þþþþþþþþþþþþþþþþþþþþþþþþþþþþþþþþþþþþþþþþþþþþþþþþþþþþþþþþþþþþþþþþþþþþþ»
0000F34 50E0 D044/902B_      00044  8907              ELFDO    XPROC
 USING  *,R8
 000F4E 1891                        8945                       LR    SCBR,R1
 USING  SCB,R9                      8946                       WITH  SCB
 000F50 58A0 9008            00008  8958                       L     PIBR,SCBPIBP
 USING  PIB,R10                     8959                       WITH  PIB
 000F54 58B0 A008            00008  8971                       L     FEBR,PIBFEBP
 USING  FEB,R11                     8972                       WITH  FEB
 000F58 187F                        8984                       LR    R7,R15
 USING  PDB,R7                      8985                       WITH  (PDB,R7)
                                    8998
                                    8999                       SEGDEF FEBUSG
                                    9000
 000F5A 4110 B09C/4DE0_      0009C  9001                       XTRACE FEBTRCP,TERMDO
 USING  TTRC,R15                    9012                       WITH  (TTRC,R15),BEGIN
 000F68 D207 F010 A034 00010 00034  9026  1                      MVC   TTRCPNAM,PIBNAME
 000F6E D203 F018 90F4 00018 000F4  9027  1                      MVC   TTRCSID,SCBID
 000F74 D204 F01C 9124 0001C 00124  9028  1                      MVC   TTRCSACC,SCBACCT
 000F7A D200 F021 90B3 00021 000B3  9029  1                      MVC   TTRCCMD,SCBCMD
 000F80 D201 F024 7000 00024 00000  9030  1                      MVC   TTRCTLEN,PDBLENG
 000F86 D213 F026 7038 00026 00038  9031  1                      MVC   TTRCTEXT,PDBTEXT
 DROP   TTRC,R15                    9032                       END
                                    9040
 000F8C 4110 A090/4DE0_      00090  9041                       XTRACE PIBTRCP
 USING  TTRCP,R15                   9051                       WITH  (TTRCP,R15),BEGIN
 000F94 92E3 F007      00007        9065  1                      MVI   TTRCPTYP,C'T'       T = TOAMY
 000F98 D200 F008 90B3 00008 000B3  9066  1                      MVC   TTRCPCMD,SCBCMD
 000F9E D701 F00A F00A 0000A 0000A  9067  1                      CLEAR TTRCPCPL
 000FA4 D201 F00C 7000 0000C 00000  9074  1                      MVC   TTRCPLEN,PDBLENG
 DROP   TTRCP,R15                   9075                       END
                                    9083                       ¿þþþþþþþþþþþþþþþþþþþþþþþþþþþþþþþþþþþþÜ
                                    9084                       Ÿ  Handle adding page/pause prompt.  Ÿ
                                    9085                       ¾þþþþþþþþþþþþþþþþþþþþþþþþþþþþþþþþþþþþ»
 000FAA 9140 90B1/47E0_000B1        9086                       IF    SCBTFPP,BEGIN       Page/pause read...
 000FB2 48F0 702E            0002E  9101  1                      LH    R15,PDBOUTCT
 000FB6 411F 7038            00038  9102  1                      LA    R1,PDBTEXT(R15)
 000FBA D201 1000 8804 00000 01742  9103  1                      MVC   @R1(2),=C': '       Page/pause prompt
 000FC0 41F0 F002            00002  9104  1                      LA    R15,@R15+2          Kick data count
 000FC4 40F0 702E            0002E  9105  1                      STH   R15,PDBOUTCT
                                    9106  1
 000FC8 9604 7009      00009        9107  1                      SET   PDBMODB.MODBNLF     No LF on read CR
 000FCC 9604 90B5      000B5        9114  1                      SET   SCBMODB.MODBNLF     Ditto
 000FD0                             9121                       END
                                    9125
1ELF      (ELF2047) (12:35) (15MAR04) ELF Interface                                                                         Page   44
0Current Usings:  (PDB,R7) (*,R8) (SCB,R9) (PIB,R10) (FEB,R11) (CV,R12)
0Loc    Object Code    Addr1 Addr2  Stmt Lv Lineno    Source Statement           (Hibal 5, Asmedit 3.3)  HLASM R4.0  2004/03/15 12.35
+___    ______ ____    _____ _____  ____ __ ______    ______ _________
0000FD0 41F0 0001/5EF0_      00001  9126                       INCR  R15,PIBNIO          Count the I/O
                                    9132                       ¿þþþþþþþþþþþþþþþþþþþþþþþþþþþþþþþþÜ
                                    9133                       Ÿ  Handle terminal I/O request.  Ÿ
                                    9134                       ¾þþþþþþþþþþþþþþþþþþþþþþþþþþþþþþþþ»
 000FDC 9501 A0A0/4770_000A0        9135                       IF    PIBPELF,'LCALL IOELF'  ELF style I/O
 000FE8 80AE/47F0 80BA_00FE8 00FE2  9157                       ELSEIF PIBPTELNET,'LCALL IOTELNET'  Telnet style I/O
 000FF8 80BE/47F0 80CA_00FF8 00FF2  9188                       ELSEIF PIBPRECONNECT,'LCALL IORCON'  Reconnect I/O
 001008 80CE/47F0 80E2_01008 01002  9219                       ELSE  'FAIL "ELF driver error."'
                                    9240
 001020 41D0 D030/982B_      00030  9241                       PEND
 DROP   PDB,R7
 DROP   FEB,R11
 DROP   PIB,R10
 DROP   SCB,R9
 DROP   *,R8
1ELF      (ELF2047) (12:35) (15MAR04) ELF Interface                                                                         Page   45
0Current Usings:  (CV,R12)
0Loc    Object Code    Addr1 Addr2  Stmt Lv Lineno    Source Statement           (Hibal 5, Asmedit 3.3)  HLASM R4.0  2004/03/15 12.35
+___    ______ ____    _____ _____  ____ __ ______    ______ _________
0                                   9282              ¿þþþþþþþþþþþþþþþþþþþþþþþþþþþþþþþþþþþþþþþþþþþþþþþþþþþþþþþþþþþþþþþþþþþþþÜ
                                    9283              Ÿ                                                                     Ÿ
                                    9284              Ÿ  IOTELNET -- Routine to do telnet style terminal I/O.               Ÿ
                                    9285              Ÿ                                                                     Ÿ
                                                      ¾þþþþþþþþþþþþþþþþþþþþþþþþþþþþþþþþþþþþþþþþþþþþþþþþþþþþþþþþþþþþþþþþþþþþþ»
0001034 50E0 D044/902B_      00044  9286              IOTELNET PROC
 USING  *,R8
 USING  FEB,R11                     9322                       WITH  FEB,PIB,SCB,(PDB,R7)
 USING  PIB,R10
 USING  SCB,R9
 USING  PDB,R7
                                    9362
                                    9363                       SEGDEF FEBUSG
                                    9364                       ¿þþþþþþþþþþþþþþþþþþþþþþþþþþþþþþþþþþþþþþþÜ
                                    9365                       Ÿ  Start of new synchronous operation.  Ÿ
                                    9366                       ¾þþþþþþþþþþþþþþþþþþþþþþþþþþþþþþþþþþþþþþþ»
 00104E 9550 7006/4780_00006        9367                       IF    (PDBCMD,NE,FMILASYN),BEGIN  New synchronous...
 001056 94EF A0A1      000A1        9385  1                      CLEAR PIBFHALT            Reset previous I/O flags
 00105A                             9392                       END
                                    9396                       ¿þþþþþþþþþþþþþþþþþþþþþþþþÜ
                                    9397                       Ÿ  Terminal read/write.  Ÿ
                                    9398                       ¾þþþþþþþþþþþþþþþþþþþþþþþþ»
 00105A 9541 7006/4780_00006        9399                       IF    ((PDBCMD,EQ,TMILWRIT),OR,(PDBCMD,EQ,TMILREAD)),BEGIN
                                    9434  1                      ¿þþþþþþþþþþþþþþþþþþþþþþþþþþþþþþþþþþþþþÜ
                                    9435  1                      Ÿ  Reject display mode I/O requests.  Ÿ
                                    9436  1                      ¾þþþþþþþþþþþþþþþþþþþþþþþþþþþþþþþþþþþþþ»
 00106A 9140 700A/47E0_0000A        9437  1                      IF    PDBMODC.MODCDSPL,BEGIN Display mode I/O request...
 001072 5850 C060            00060  9453  2                        L     R5,CVPDBP
 DROP   PDB,R7                      9454  2                        WITH  (PDB,R5)
 USING  PDB,R5
 001076 D201 5000 8706 00000 01744  9475  2                        MVC   PDBLENG,=AL2(L'PDBHDR)  Standard PDB length
 00107C D730 5007 5007 00007 00007  9476  2                        CLEAR PDBOPT
 001082 D200 5006 90B3 00006 000B3  9483  2                        MVC   PDBCMD,SCBCMD       Set operation code
 001088 9640 500D      0000D        9484  2                        SET   PDBCPLB.CPLBILT     Can't do it
 00108C 9680 500C      0000C        9491  2                        SET   PDBCPLA.CPLAATTN    Mark with ATTN too
 001090 47F0 828A            012C8  9498  2                        B     DTELPDB
 USING  PDB,R7                      9499  1                      END
 DROP   PDB,R5
                                    9517  1                      ¿þþþþþþþþþþþþþþþþþþþþþþþþþþþþþþþþþþþþþÜ
                                    9518  1                      Ÿ  Set appropriate telnet data mode.  Ÿ
                                    9519  1                      ¾þþþþþþþþþþþþþþþþþþþþþþþþþþþþþþþþþþþþþ»
 001094 9108 A0A1/47E0_000A1        9520  1                      IF    PIBFIAC,BEGIN       Do Telnet IACs...
 00109C 9120 700B/47E0_0000B        9535  2                        IF    PDBMODD.MODDTRAN,BEGIN  Transparent...
 0010A4 9110 A0A2/4710_000A2        9551  3                          IF    PIBFTRAN,EXIT       Already in transparent mode
 0010AC 9610 A0A2      000A2        9569  3                          SET   PIBFTRAN            Entering transparent mode now
                                    9575  3           *11/91:  SEG   =AL1($IAC,$WILL,$SGA,$IAC,$DO,$SGA),6
                                    9576  3           *12/91:  SEG   =AL1($IAC,$WILL,$BINARY,$IAC,$DO,$BINARY),6
 0010B0                             9577  2                        END
                                    9581  2
 0010B0 8076/47F0 8082 010B0 010A2  9582  2                        ELSE  BEGIN               Not transparent...
 0010B4 9110 A0A2/47E0_000A2        9593  3                          IF    ~PIBFTRAN,EXIT      Already in text mode
 0010BC 94EF A0A2      000A2        9611  3                          CLEAR PIBFTRAN            Exiting transparent mode now
                                    9618  3           *12/91:  SEG   =AL1($IAC,$WONT,$BINARY,$IAC,$DONT,$BINARY),6
1ELF      (ELF2047) (12:35) (15MAR04) ELF Interface                                                                         Page   46
0Current Usings:  (PDB,R7) (*,R8) (SCB,R9) (PIB,R10) (FEB,R11) (CV,R12)
0Loc    Object Code    Addr1 Addr2  Stmt Lv Lineno    Source Statement           (Hibal 5, Asmedit 3.3)  HLASM R4.0  2004/03/15 12.35
+___    ______ ____    _____ _____  ____ __ ______    ______ _________
0                                   9619  3           *11/91:  SEG   =AL1($IAC,$WONT,$SGA,$IAC,$DONT,$SGA),6
 0010C0                             9620  2                        END
                                    9624  2
 0010C0 9104 700A/47E0_0000A        9625  2                        IF    PDBMODC.MODCNECH,BEGIN  No echo...
 0010C8 9108 A0A2/4710_000A2        9641  3                          IF    PIBFNOECHO,EXIT     Already in noecho more
 0010D0 9608 A0A2      000A2        9659  3                          SET   PIBFNOECHO          Entering noecho mode
 0010D4 4110 870E/4100_      0174C  9665  3                          SEG   =AL1($IAC,$WILL,$ECHO),3
 0010E6                             9694  2                        END
                                    9698  2
 0010E6 80AC/47F0 80CA 010E6 010C6  9699  2                        ELSE  BEGIN               Echo...
 0010EA 9108 A0A2/47E0_000A2        9710  3                          IF    ~PIBFNOECHO,EXIT    Already in echo mode
 0010F2 94F7 A0A2      000A2        9728  3                          CLEAR PIBFNOECHO          Exiting noecho mode now
 0010F6 4110 8711/4100_      0174F  9735  3                          SEG   =AL1($IAC,$WONT,$ECHO),3
 001108                             9764  2                        END
                                    9768  2
 001108                             9769  1                      END
                                    9773  1                      ¿þþþþþþþþþþþþþþþþþþþþþþþþþþþþÜ
                                    9774  1                      Ÿ  Send out the write data.  Ÿ
                                    9775  1                      ¾þþþþþþþþþþþþþþþþþþþþþþþþþþþþ»
 001108 D601 702E 702E_0002E 0002E  9776  1                      IF    (PDBOUTCT,NZ),BEGIN  We have something to write...
 001112 4110 7038/4800_      00038  9792  2                        SETMSG LA:PDBTEXT,LH:PDBOUTCT
 00111A 41F0 B13C            0013C  9803  2                        LA    R15,FEBUSG
 00111E 58E0 86E6/0DEE       01724  9804  2                        ACALL OUTPROC             Do any output reformatting
                                    9808  2
 001124 41F0 0001/5EF0_      00001  9809  2                        INCR  R15,PIBNIO          Port I/O count
 001130                             9815  1                      END
                                    9819  1
 001130 D603 B148 B148_00148 00148  9820  1                      IF    (FEBUSGLENF,NZ),'SEGWR'
                                    9865  1                      ¿þþþþþþþþþþþþþþþþþþþþþþþþþþþþÜ
                                    9866  1                      Ÿ  Read data from terminal.  Ÿ
                                    9867  1                      ¾þþþþþþþþþþþþþþþþþþþþþþþþþþþþ»
 001146 9542 7006/4770_00006        9868  1                      IF    (PDBCMD,EQ,TMILREAD),BEGIN  Read completion...
 00114E 9101 700B/47E0_0000B        9886  2                        IF    PDBMODD.MODDNTYP,'CLEAR PIBINSGLENF,PIBINSGMRKF'
                                    9919  2           * !!!!!!! must check for PIBFINSTOP set above !!!!!!
                                    9920  2           *
 001162 9640 A0A1      000A1        9921  2                        SET   PIBFREAD            Waiting for read data
 001166 D603 A120 A120_00120 00120  9927  2                        IF    (PIBINSGLOC,NZ),BEGIN   We already have input...
 001170 58E0 86EE/0DEE       0172C  9943  3                          ACALL READCHK             Check out the input data
 001176                             9947  2                        END
 001176 47F0 82EE            0132C  9951  2                        B     DTELEXIT
 00117A                             9952  1                      END
                                    9956  1                      ¿þþþþþþþþþþþþþþþþþþþþþþþþþþÜ
                                    9957  1                      Ÿ  Write data completion.  Ÿ
                                    9958  1                      ¾þþþþþþþþþþþþþþþþþþþþþþþþþþ»
 00117A 9180 A0A2/47E0_000A2        9959  1                      IF    PIBFDSTOP,BEGIN     We should stop sending data...
 001182 9640 A0A2      000A2        9974  2                        SET   PIBFPCOMP           Pending write I/O completion
 001186 47F0 82EE            0132C  9980  2                        B     DTELEXIT
 00118A                             9981  1                      END
                                    9985  1
 00118A 47F0 8274            012B2  9986  1                      B     DTELCOMP            Send write I/O completion
 00118E                             9987                       END
1ELF      (ELF2047) (12:35) (15MAR04) ELF Interface                                                                         Page   47
0Current Usings:  (PDB,R7) (*,R8) (SCB,R9) (PIB,R10) (FEB,R11) (CV,R12)
0Loc    Object Code    Addr1 Addr2  Stmt Lv Lineno    Source Statement           (Hibal 5, Asmedit 3.3)  HLASM R4.0  2004/03/15 12.35
+___    ______ ____    _____ _____  ____ __ ______    ______ _________
0                                   9991                       ¿þþþþþþþþþþþþþþþþþþþþþþþþþþþÜ
                                    9992                       Ÿ  Halt current operation.  Ÿ
                                    9993                       ¾þþþþþþþþþþþþþþþþþþþþþþþþþþþ»
 00118E 9550 7006/4770_00006        9994                       IF    (PDBCMD,EQ,TMILBRK),BEGIN  Halt request...
 001196 9140 A0A1/47E0_000A1       10012  1                      IF    ~PIBFREAD,DTELEXIT  Not doing a read, forget it
 00119E 9120 90B7/4710_000B7       10030  1                      IF    ~SCBMODD.MODDTRAN,BEGIN  Not transparent...
 0011A6 9110 90B5/4710_000B5       10046  2                        IF    SCBMODB.MODBNNLA,EXIT  NOSTARS also means no "###"s
 0011AE 9640 B0B8      000B8       10065  2                        SET   FEBFASC             Convert to ASCII
 0011B2 4110 8714/4100_      01752 10071  2                        SEG   X'2F'               bell
 0011C4 4110 8715/4100_      01753 10088  2                        SEG   '###'
 0011D6 4110 8708/4100_      01746 10105  2                        SEG   X'0D25'             cr,lf
 0011E8 1B00/41F0 B13C_            10122  2                        SEGWR
 0011F4 94BF B0B8      000B8       10146  2                        CLEAR FEBFASC             Reset
 0011F8                            10153  1                      END
                                   10157  1
 0011F8 9610 A0A1      000A1       10158  1                      SET   PIBFHALT            Halt current operation
 0011FC 58E0 86EE/0DEE       0172C 10164  1                      ACALL READCHK             Complete read now
 001202                            10168                       END
                                   10172                       ¿þþþþþþþþþþþþþþþþþþþþþþþþþþþþÜ
                                   10173                       Ÿ  End of terminal session.  Ÿ
                                   10174                       ¾þþþþþþþþþþþþþþþþþþþþþþþþþþþþ»
 001202 9540 7006/4770_00006       10175                       IF    (PDBCMD,EQ,TMILEOS),BEGIN  End of session...
                                   10193  1                      ¿þþþþþþþþþþþþþþþþþþþþþþþþþþþþþþþþþþþþþþþþþþþþþÜ
                                   10194  1                      Ÿ  Tell Amelia to close this TCP connection.  Ÿ
                                   10195  1                      ¾þþþþþþþþþþþþþþþþþþþþþþþþþþþþþþþþþþþþþþþþþþþþþ»
 00120A 41F0 B13C/58E0_      0013C 10196  1                      SEGCLR FEBUSG
 001214 9680 B0B8      000B8       10209  1                      SET   FEBFCTRL            Segging control info
 001218 4110 86BA/4100_      016F8 10215  1                      SEG   LA:=CL16'TCP_EOF:',16
 00122A 4110 A0F4/4100_      000F4 10242  1                      SEG   PIBAID              Amelia connection ID
 00123C 1B00/41F0 B13C_            10269  1                      SEGWR
 001248 947F B0B8      000B8       10293  1                      CLEAR FEBFCTRL            Reset
                                   10300  1
 00124C 9680 B0B8      000B8       10301  1                      SET   FEBFCTRL            Segging control info
 001250 4110 86CA/4100_      01708 10307  1                      SEG   LA:=CL16'TCP_CLOSE:',16
 001262 4110 A0F4/4100_      000F4 10334  1                      SEG   PIBAID              Amelia connection ID
 001274 1B00/41F0 B13C_            10361  1                      SEGWR
 001280 947F B0B8      000B8       10385  1                      CLEAR FEBFCTRL            Reset
                                   10392  1
 001284 9680 A0A1      000A1       10393  1                      SET   PIBFCLOSING         We are closing the connection
                                   10399  1
 001288 5990 A00C/4780_      0000C 10400  1                      FAIL  (SCBR,NE,PIBSCBP),'Bad SCB ptr.'
 0012A0 1819                       10426  1                      LR    R1,SCBR
 0012A2 1B99/5090 A00C             10427  1                      CLEAR SCBR,PIBSCBP
 0012A8 58E0 86F6/0DEE       01734 10436  1                      VCALL FREESCB             Free the session block
                                   10440  1
 0012AE 47F0 82EE            0132C 10441  1                      B     DTELEXIT
                                   10442  1                      ¿þþþþþþþþþþþþþþþþþþþþþþþþþþþþþþþþþþþþþþþþþþþþþþþþþþþÜ
                                   10443  1                      Ÿ  Send operation completed PDB back to subsystem.  Ÿ
                                   10444  1                      ¾þþþþþþþþþþþþþþþþþþþþþþþþþþþþþþþþþþþþþþþþþþþþþþþþþþþ»
 0012B2 5850 C060            00060 10445  1           DTELCOMP   L     R5,CVPDBP
 DROP   PDB,R7                     10446  1                      WITH  (PDB,R5)
 USING  PDB,R5
 0012B6 D201 5000 8706 00000 01744 10467  1                      MVC   PDBLENG,=AL2(L'PDBHDR)  Standard PDB length
 0012BC D730 5007 5007 00007 00007 10468  1                      CLEAR PDBOPT
1ELF      (ELF2047) (12:35) (15MAR04) ELF Interface                                                                         Page   48
0Current Usings:  (PDB,R5) (*,R8) (SCB,R9) (PIB,R10) (FEB,R11) (CV,R12)
0Loc    Object Code    Addr1 Addr2  Stmt Lv Lineno    Source Statement           (Hibal 5, Asmedit 3.3)  HLASM R4.0  2004/03/15 12.35
+___    ______ ____    _____ _____  ____ __ ______    ______ _________
00012C2 D200 5006 90B3 00006 000B3 10475  1                      MVC   PDBCMD,SCBCMD       Set operation code
                                   10476  1
 0012C8                            10477  1           DTELPDB    LABEL ,
 0012C8 4110 B09C/4DE0_      0009C 10479  1                      XTRACE FEBTRCP,TERMCMP1   Trace completion
 USING  TTRC,R15                   10490  1                      WITH  (TTRC,R15),BEGIN
 0012D6 D207 F010 A034 00010 00034 10504  2                        MVC   TTRCPNAM,PIBNAME
 0012DC D203 F018 90F4 00018 000F4 10505  2                        MVC   TTRCSID,SCBID
 0012E2 D204 F01C 9124 0001C 00124 10506  2                        MVC   TTRCSACC,SCBACCT
 0012E8 D200 F021 5006 00021 00006 10507  2                        MVC   TTRCCMD,PDBCMD
 0012EE D201 F022 500C 00022 0000C 10508  2                        MVC   TTRCCPL,PDBCPL
 0012F4 D201 F024 5000 00024 00000 10509  2                        MVC   TTRCTLEN,PDBLENG
 0012FA D213 F026 5038 00026 00038 10510  2                        MVC   TTRCTEXT,PDBTEXT
 DROP   TTRC,R15                   10511  1                      END
                                   10519  1
 001300 4110 A090/4DE0_      00090 10520  1                      XTRACE PIBTRCP
 USING  TTRCP,R15                  10530  1                      WITH  (TTRCP,R15),BEGIN
 001308 92C6 F007      00007       10544  2                        MVI   TTRCPTYP,C'F'       F = FROMAMY
 00130C D200 F008 5006 00008 00006 10545  2                        MVC   TTRCPCMD,PDBCMD
 001312 D201 F00A 500C 0000A 0000C 10546  2                        MVC   TTRCPCPL,PDBCPL
 001318 D201 F00C 5000 0000C 00000 10547  2                        MVC   TTRCPLEN,PDBLENG
 DROP   TTRCP,R15                  10548  1                      END
                                   10556  1
 00131E 4110 9000            00000 10557  1                      LA    R1,SCB
 001322 41F0 5000            00000 10558  1                      LA    R15,PDB
 001326 58E0 86FA/0DEE       01738 10559  1                      VCALL SUBSEND             Send completion
 USING  PDB,R7                     10563                       END
 DROP   PDB,R5
                                   10581
 00132C 41D0 D030/982B_      00030 10582              DTELEXIT PEND
 DROP   PDB,R7
 DROP   SCB,R9
 DROP   PIB,R10
 DROP   FEB,R11
 DROP   *,R8
1ELF      (ELF2047) (12:35) (15MAR04) ELF Interface                                                                         Page   49
0Current Usings:  (CV,R12)
0Loc    Object Code    Addr1 Addr2  Stmt Lv Lineno    Source Statement           (Hibal 5, Asmedit 3.3)  HLASM R4.0  2004/03/15 12.35
+___    ______ ____    _____ _____  ____ __ ______    ______ _________
0                                  10624              ¿þþþþþþþþþþþþþþþþþþþþþþþþþþþþþþþþþþþþþþþþþþþþþþþþþþþþþþþþþþþþþþþþþþþþþÜ
                                   10625              Ÿ                                                                     Ÿ
                                   10626              Ÿ  IORCON -- Routine to do reconnect style terminal I/O.              Ÿ
                                   10627              Ÿ                                                                     Ÿ
                                   10628              Ÿ    This should never happen because we never start a subsystem      Ÿ
                                   10629              Ÿ    session for reconnect requests.                                  Ÿ
                                   10630              Ÿ                                                                     Ÿ
                                                      ¾þþþþþþþþþþþþþþþþþþþþþþþþþþþþþþþþþþþþþþþþþþþþþþþþþþþþþþþþþþþþþþþþþþþþþ»
0001340 50E0 D044/902B_      00044 10631              IORCON   PROC
 USING  *,R8
 00135A FEDC1A/C5D3C6409_          10667                       FAIL  'ELF reconnect logic error.'
 001378 41D0 D030/982B_      00030 10672                       PEND
 DROP   *,R8
1ELF      (ELF2047) (12:35) (15MAR04) ELF Interface                                                                         Page   50
0Current Usings:  (CV,R12)
0Loc    Object Code    Addr1 Addr2  Stmt Lv Lineno    Source Statement           (Hibal 5, Asmedit 3.3)  HLASM R4.0  2004/03/15 12.35
+___    ______ ____    _____ _____  ____ __ ______    ______ _________
0                                  10693              ¿þþþþþþþþþþþþþþþþþþþþþþþþþþþþþþþþþþþþþþþþþþþþþþþþþþþþþþþþþþþþþþþþþþþþþÜ
                                   10694              Ÿ                                                                     Ÿ
                                   10695              Ÿ  IOELF -- Routine to do ELF style terminal I/O.                     Ÿ
                                   10696              Ÿ                                                                     Ÿ
                                                      ¾þþþþþþþþþþþþþþþþþþþþþþþþþþþþþþþþþþþþþþþþþþþþþþþþþþþþþþþþþþþþþþþþþþþþþ»
000138C 50E0 D044/902B_      00044 10697              IOELF    PROC  HDR
 USING  *,R8
 USING  HDR-@@,R13
 USING  FEB,R11                    10744                       WITH  FEB,PIB,SCB,(PDB,R7)
 USING  PIB,R10
 USING  SCB,R9
 USING  PDB,R7
                                   10784
                                   10785                       SEGDEF FEBUSG
                                   10786                       ¿þþþþþþþþþþþþþþþþþþþþþþþþþþþþþþþþþÜ
                                   10787                       Ÿ  Send any new ELF information.  Ÿ
                                   10788                       ¾þþþþþþþþþþþþþþþþþþþþþþþþþþþþþþþþþ»
 0013A6 4DE0 83C0            01756 10789                       LCALL ELFINFO             Send new ELF info (if necessary)
                                   10791                       ¿þþþþþþþþþþþþþþþþþþþþþþþþþþþþþþþþþþÜ
                                   10792                       Ÿ  Build ELF terminal I/O header.  Ÿ
                                   10793                       ¾þþþþþþþþþþþþþþþþþþþþþþþþþþþþþþþþþþ»
 0013AA D713 D04C D04C 00000 00000 10794                       CLEAR HDR
 0013B0 D203 D04C 83A6 00000 0173C 10801                       MVC   HDRID,=C'ELF0'      Set identification
 0013B6 926E D050      00004       10802                       MVI   HDRTYPE,C'>'        We are sending a command
                                   10803
 0013BA 9541 7006/4770_00006       10804                       IF    (PDBCMD,EQ,TMILWRIT),'MVI HDRCMD,HDRFWR'
 0013C6 8034/47F0 8040_013C6 013C0 10828                       ELSEIF (PDBCMD,EQ,TMILREAD),'MVI HDRCMD,HDRFRD'
 0013D6 8044/47F0 8050_013D6 013D0 10861                       ELSEIF (PDBCMD,EQ,TMILBRK),'MVI HDRCMD,HDRFHALT'
 0013E6 8054/47F0 8060_013E6 013E0 10894                       ELSEIF (PDBCMD,EQ,TMILEOS),'MVI HDRCMD,HDRFEOS'
 0013F6 8064/47F0 8076 013F6 013F0 10927                       ELSE  BEGIN
 0013FA FEDC0F/C2818440C_          10938  1                      FAIL  'Bad ELF command'
 00140C                            10943                       END
                                   10947
 00140C 9240 D052      00006       10948                       MVI   HDRCPL,C' '
 001410 9240 D053      00007       10949                       MVI   HDRBLANK,C' '
                                   10950
 001414 9140 700A/47E0_0000A       10951                       IF    PDBMODC.MODCDSPL,'SET HDRFDISP'  Display mode I/O
 001420 9110 700B/47E0_0000B       10978                       IF    PDBMODD.MODDNMOD,'SET HDRFNMOD'  Nomodel
 00142C 9120 7009/47E0_00009       11005                       IF    PDBMODB.MODBDWAT,'SET HDRFNWA'   No write attn
 001438 9120 700B/47E0_0000B       11032                       IF    PDBMODD.MODDTRAN,'SET HDRFTRAN'  Transparent I/O
 001444 9108 7009/47E0_00009       11059                       IF    PDBMODB.MODBSLOL,'SET HDRFSLOW'  Slow (no tabs)
                                   11086
 001450 9120 9169/4710_00169       11087                       IF    ~SCBFNTYP,BEGIN     Global typeahead mode...
 001458 9101 700B/4710_0000B       11102  1                      IF    PDBMODD.MODDNTYP,EXIT  Local override of no typeahead
 001460 9610 D054      00008       11121  1                      SET   HDRFTAH             Typeahead mode
 001464                            11127                       END
                                   11131
 001464 9180 915C/47E0_0015C       11132                       IF    SCBFVFAST,'SET HDRFVFAST'        Set VFast mode
                                   11158
 001470 9542 7006/4770_00006       11159                       IF    (PDBCMD,EQ,TMILREAD),BEGIN  It's a terminal read...
 001478 9101 9168/47E0_00168       11177  1                      IF    SCBFNECH,'SET HDRFHALF'          Half duplex
 001484 9104 700A/47E0_0000A       11203  1                      IF    PDBMODC.MODCNECH,'SET HDRFNECH'  Noecho
 001490 9110 7009/47E0_00009       11230  1                      IF    PDBMODB.MODBNNLA,'SET HDRFNST'   No read attn stars
1ELF      (ELF2047) (12:35) (15MAR04) ELF Interface                                                                         Page   51
0Current Usings:  (PDB,R7) (*,R8) (SCB,R9) (PIB,R10) (FEB,R11) (CV,R12) (HDR-@@,R13)
0Loc    Object Code    Addr1 Addr2  Stmt Lv Lineno    Source Statement           (Hibal 5, Asmedit 3.3)  HLASM R4.0  2004/03/15 12.35
+___    ______ ____    _____ _____  ____ __ ______    ______ _________
000149C 9104 7009/47E0_00009       11257  1                      IF    PDBMODB.MODBNLF,'SET HDRFNLF'    No read LF on CR
 0014A8 9140 7009/47E0_00009       11284  1                      IF    PDBMODB.MODBUPLO,'SET HDRFUPL'   Uplow
 0014B4 9120 700A/47E0_0000A       11311  1                      IF    PDBMODC.MODCSTIB,'SET HDRFSTIB'  Suppress trail blanks
 0014C0 9108 700B/4710_0000B       11338  1                      IF    ~PDBMODD.MODDNFLT,'SET HDRFFILT' Filter ctrl chars
 0014CC 9104 700B/47E0_0000B       11365  1                      IF    PDBMODD.MODDXON,'SET HDRFXON'    Send XON for read
 0014D8 9102 700B/47E0_0000B       11392  1                      IF    PDBMODD.MODDRUND,'SET HDRFRUND'  Count rundown mode
 0014E4 9140 9168/47E0_00168       11419  1                      IF    SCBFBACK,'SET HDRFBACK'          Back
 0014F0 9108 7008/47E0_00008       11445  1                      IF    PDBMODA.MODABUF,'SET HDRFBUFIO'  Buffered I/O
                                   11472  1
 0014FC D201 D05C 7030 00010 00030 11473  1                      MVC   HDRINMAX,PDBINCT    Max input count for read
 001502                            11474                       END
                                   11478                       ¿þþþþþþþþþþþþþþþþþþþþþÜ
                                   11479                       Ÿ  Write ELF header.  Ÿ
                                   11480                       ¾þþþþþþþþþþþþþþþþþþþþþ»
 001502 4110 D04C/4100_      00000 11481                       SEG   HDR                 Add header to output
                                   11508              þþþþ
 001514 4110 7038/4800_      00038 11509                       SEG   PDBTEXT,LH:PDBOUTCT  Add text as-is
                                   11535                       ¿þþþþþþþþþþþþþþþþþþþþþþþþþþþþþþþþþþþþþþþþþþþþþþþþþþþþþþþþþþþÜ
                                   11536                       Ÿ  This is a little sneaky:  Go back in to the seg buffer   Ÿ
                                   11537                       Ÿ    and fill in the ELF "hdrlen" based on the actual size  Ÿ
                                   11538                       Ÿ    of the buffer.                                         Ÿ
                                   11539                       ¾þþþþþþþþþþþþþþþþþþþþþþþþþþþþþþþþþþþþþþþþþþþþþþþþþþþþþþþþþþþ»
 001526 58F0 B148            00148 11540                       L     R15,FEBUSGLENF      Total seg buffer length
 00152A 4BF0 83B4            0174A 11541                       SH    R15,=AL2(16+4+L'HDR)  Deduct ELF hdr length
 00152E 4720 819E/1BFF       01534 11542                       IF    NP,'CLEAR R15'
                                   11562
 001534 5810 B15C            0015C 11563                       L     R1,FEBUSGLOC        Start of seg buffer
 001538 4110 1014            00014 11564                       LA    R1,@R1+16+4         Skip past "TCP_DATA:" and id
 00153C 40F0 1012            00012 11565                       WITH  (HDR,R1),'STH R15,HDRLEN'  Set correct length
 USING  HDR,R1
 DROP   HDR,R1
                                   11589
 001540 1B00/41F0 B13C_            11590                       SEGWR ,                   Send ELF packet
                                   11614                       ¿þþþþþþþþþþþþþþþþþþþþþþþþþþþþþþþþþþþþþþþþþþþþþþþþþþþþþþþþþþþÜ
                                   11615                       Ÿ  If we just sent the logoff packet then free the session  Ÿ
                                   11616                       Ÿ    and close the TCP connection.                          Ÿ
                                   11617                       ¾þþþþþþþþþþþþþþþþþþþþþþþþþþþþþþþþþþþþþþþþþþþþþþþþþþþþþþþþþþþ»
 00154C 9540 7006/4770_00006       11618                       IF    (PDBCMD,EQ,TMILEOS),BEGIN  End of session...
 001554 1819                       11636  1                      LR    R1,SCBR
 001556 1B99/5090 A00C             11637  1                      CLEAR SCBR,PIBSCBP
 00155C 58E0 839E/0DEE       01734 11646  1                      VCALL FREESCB             Free session control block
                                   11650  1
 001562 9680 B0B8      000B8       11651  1                      SET   FEBFCTRL            Sending control info
 001566 4110 8362/4100_      016F8 11657  1                      SEG   LA:=CL16'TCP_EOF:',16
 001578 4110 A0F4/4100_      000F4 11684  1                      SEG   PIBAID              Amelia connection ID
 00158A 1B00/41F0 B13C_            11711  1                      SEGWR
 001596 947F B0B8      000B8       11735  1                      CLEAR FEBFCTRL            Reset
                                   11742  1
 00159A 9680 B0B8      000B8       11743  1                      SET   FEBFCTRL            Sending control info
 00159E 4110 8372/4100_      01708 11749  1                      SEG   LA:=CL16'TCP_CLOSE:',16
 0015B0 4110 A0F4/4100_      000F4 11776  1                      SEG   PIBAID              Amelia connection ID
 0015C2 1B00/41F0 B13C_            11803  1                      SEGWR
 0015CE 947F B0B8      000B8       11827  1                      CLEAR FEBFCTRL            Reset
                                   11834  1
1ELF      (ELF2047) (12:35) (15MAR04) ELF Interface                                                                         Page   52
0Current Usings:  (PDB,R7) (*,R8) (SCB,R9) (PIB,R10) (FEB,R11) (CV,R12) (HDR-@@,R13)
0Loc    Object Code    Addr1 Addr2  Stmt Lv Lineno    Source Statement           (Hibal 5, Asmedit 3.3)  HLASM R4.0  2004/03/15 12.35
+___    ______ ____    _____ _____  ____ __ ______    ______ _________
00015D2 9680 A0A1      000A1       11835  1                      SET   PIBFCLOSING         This port is now closing
 0015D6                            11841                       END
                                   11845
 0015D6 41D0 D044/982B_      00044 11846                       PEND
 DROP   PDB,R7
 DROP   SCB,R9
 DROP   PIB,R10
 DROP   FEB,R11
 DROP   HDR-@@,R13
 DROP   *,R8
                                   11892                       ¿þþþþþþþþþþþþþþþþþþþþþþþþþþþþþþþþÜ
                                   11893                       Ÿ  Stop on EBCDIC NL TRT table.  Ÿ
                                   11894                       ¾þþþþþþþþþþþþþþþþþþþþþþþþþþþþþþþþ»
 0015EA 0000000000000000           11895              NLTRT    DC    XL256'00'
 0016EA                016EA 015FF 11896                       ORG   NLTRT+X'15'         EBCDIC NL
 0015FF 15                         11897                       DC    X'15'
 001600                01600 016EA 11898                       ORG
                                   11899
                                   11900                       QLTORG
1ELF      (ELF2047) (12:35) (15MAR04) ELF Interface                                                                         Page   53
0Current Usings:  (CV,R12)
0Loc    Object Code    Addr1 Addr2  Stmt Lv Lineno    Source Statement           (Hibal 5, Asmedit 3.3)  HLASM R4.0  2004/03/15 12.35
+___    ______ ____    _____ _____  ____ __ ______    ______ _________
0                                  11935              ¿þþþþþþþþþþþþþþþþþþþþþþþþþþþþþþþþþþþþþþþþþþþþþþþþþþþþþþþþþþþþþþþþþþþþþÜ
                                   11936              Ÿ                                                                     Ÿ
                                   11937              Ÿ  ELFINFO -- Local routine to send updated ELF information if        Ÿ
                                   11938              Ÿ    necessary.                                                       Ÿ
                                   11939              Ÿ                                                                     Ÿ
                                                      ¾þþþþþþþþþþþþþþþþþþþþþþþþþþþþþþþþþþþþþþþþþþþþþþþþþþþþþþþþþþþþþþþþþþþþþ»
0001756 50E0 D044/902B_      00044 11940              ELFINFO  PROC
 USING  *,R8
 USING  FEB,R11                    11976                       WITH  FEB,PIB,SCB         Entry assumption
 USING  PIB,R10
 USING  SCB,R9
                                   12006
                                   12007                       SEGDEF FEBUSG
                                   12008                       ¿þþþþþþþþþþþþþþþþþþþþþþþþþþþþþþþþþþþþþþþþþþþþþþþþþþþþþþþþþþþÜ
                                   12009                       Ÿ  Only send new ELF information if something has changed.  Ÿ
                                   12010                       ¾þþþþþþþþþþþþþþþþþþþþþþþþþþþþþþþþþþþþþþþþþþþþþþþþþþþþþþþþþþþ»
 001770 4BD0 83A2/BED7_      01B02 12011                       PUSH  L'PINFO,PTR=R7
 USING  PINFO,R7                   12018                       WITH  (PINFO,R7)
 001780 D713 7000 7000 00000 00000 12031                       CLEAR PINFO
 001786 D20F 7000 9176 00000 00176 12038                       MVC   PINFTABS,SCBTABS    Tab stops
                                   12039
 00178C 48F0 9188/12FF       00188 12040                       LTH   R15,SCBWID          Screen width
 001792 4720 803A/41F0_      0179A 12044                       IF    NP,'LA R15,80'      Set universal default
 00179A 40F0 7010            00010 12061                       STH   R15,PINFWID         Save it
                                   12062
 00179E 48F0 918C/12FF       0018C 12063                       LTH   R15,SCBHEI          Screen height
 0017A4 4720 804C/41F0_      017AC 12067                       IF    NP,'LA R15,24'      Set universal default
 0017AC 40F0 7012            00012 12084                       STH   R15,PINFHEI         Save it
                                   12085
                                   12086            C          IF    ((SCBTCLS,NE,PIBOTCLS),
 0017B0 D507 9152 A0B9_00152 000B9                                   OR,(PINFO,NE,PIBOINFO)),BEGIN  Something's new...
 0017C4 D207 A0B9 9152 000B9 00152 12121  1                      MVC   PIBOTCLS,SCBTCLS    Save current terminal type
 0017CA D213 A0C1 7000 000C1 00000 12122  1                      MVC   PIBOINFO,PINFO      Save current PINFO
                                   12123  1
 0017D0 4BD0 83A4/BED7_      01B04 12124  1                      PUSH  L'HDR,PTR=R6
 USING  HDR,R6                     12131  1                      WITH  (HDR,R6),BEGIN
 0017E0 D713 6000 6000 00000 00000 12145  2                        CLEAR HDR
 0017E6 D203 6000 8340 00000 01AA0 12152  2                        MVC   HDRID,=C'ELF0'      Set identification
 0017EC 926E 6004      00004       12153  2                        MVI   HDRTYPE,C'>'        We are sending a command
 0017F0 92C9 6005      00005       12154  2                        MVI   HDRCMD,HDRFINFO     Send ELF info
 0017F4 D201 6012 83A6 00012 01B06 12155  2                        MVC   HDRLEN,=AL2(L'PIBOTCLS+L'PIBOINFO)  Data length
                                   12156  2
 0017FA 9240 6006      00006       12157  2                        MVI   HDRCPL,C' '
 0017FE 9240 6007      00007       12158  2                        MVI   HDRBLANK,C' '
                                   12159  2
 001802 1816/4100 0014_            12160  2                        SEG   HDR                 ELF header
 001812 41D0 D018/50D0_      00018 12187  2                        POP   L'HDR
 DROP   HDR,R6                     12192  1                      END
                                   12200  1
 00181A 4110 A0B9/4100_      000B9 12201  1                      SEG   PIBOTCLS            Terminal type
                                   12228  1
 00182C 4110 A0C1/4100_      000C1 12229  1                      SEG   PIBOINFO            PINFO (binary info)
                                   12256  1
1ELF      (ELF2047) (12:35) (15MAR04) ELF Interface                                                                         Page   54
0Current Usings:  (PINFO,R7) (*,R8) (SCB,R9) (PIB,R10) (FEB,R11) (CV,R12)
0Loc    Object Code    Addr1 Addr2  Stmt Lv Lineno    Source Statement           (Hibal 5, Asmedit 3.3)  HLASM R4.0  2004/03/15 12.35
+___    ______ ____    _____ _____  ____ __ ______    ______ _________
000183E 1B00/41F0 B13C_            12257  1                      SEGWR
 00184A                            12281                       END
                                   12285
 00184A 41D0 D018/50D0_      00018 12286                       POP   L'PINFO             Restore stack ptr
                                   12291
 001852 41D0 D030/982B_      00030 12292                       PEND
 DROP   PINFO,R7
 DROP   SCB,R9
 DROP   PIB,R10
 DROP   FEB,R11
 DROP   *,R8
1ELF      (ELF2047) (12:35) (15MAR04) ELF Interface                                                                         Page   55
0Current Usings:  (CV,R12)
0Loc    Object Code    Addr1 Addr2  Stmt Lv Lineno    Source Statement           (Hibal 5, Asmedit 3.3)  HLASM R4.0  2004/03/15 12.35
+___    ______ ____    _____ _____  ____ __ ______    ______ _________
0                                  12333              ¿þþþþþþþþþþþþþþþþþþþþþþþþþþþþþþþþþþþþþþþþþþþþþþþþþþþþþþþþþþþþþþþþþþþþþÜ
                                   12334              Ÿ                                                                     Ÿ
                                   12335              Ÿ  ELFPOST -- Routine to process posts from telnet path.              Ÿ
                                   12336              Ÿ                                                                     Ÿ
                                   12337              Ÿ    On entry:                                                        Ÿ
                                   12338              Ÿ      R1 - FEB ptr                                                   Ÿ
                                   12339              Ÿ                                                                     Ÿ
                                                      ¾þþþþþþþþþþþþþþþþþþþþþþþþþþþþþþþþþþþþþþþþþþþþþþþþþþþþþþþþþþþþþþþþþþþþþ»
0000000                00000 0008C 12340              TPWA     RECORD BEGIN
 000000                            12348  1           TPXPTRS    DS    2F                  Packet length, location ptrs
                                   12349  1
 000008                            12350  1           TPID       DS    CL16                Packet identification
 000018                            12351  1           TPWORD1    DS    F                   Word 1 parameter
 00001C                            12352  1           TPWORD2    DS    F                   Word 2 parameter
 000020                            12353  1           TPWORD3    DS    F                   Word 3 parameter
 000024                            12354  1           TPWORD4    DS    F                   Word 4 parameter
 000028                            12355  1           TPWORD5    DS    F                   Word 5 parameter
 00002C                            12356  1           TPWORD6    DS    F                   Word 6 parameter
 000030                            12357  1                      DS    XL16                Extra stuff (possibly header)
                                   12358  1           TPHDR      EQU   TPID,*-TPID,C'X'
                                   12359  1
 000040                            12360  1           TPSEGCB    DS    XL(L'SEGCB)         Working SEGCB control block
                                   12361  1
 00007C                            12362  1           TPWATEMP   DS    4F                  Temp area
 00008C                0008C 0008C 12363                       END
                                   12372                       ¿þþþþþþþþþþþþþþþþþþþþþþþþþþþþþþþþþþþþþþþþþþþþþþþþþþþþþþþþþþÜ
                                   12373                       Ÿ  Performance modification:  Quick check to see if there  Ÿ
                                   12374                       Ÿ    is anything for us to do before doing anything else.  Ÿ
                                   12375                       ¾þþþþþþþþþþþþþþþþþþþþþþþþþþþþþþþþþþþþþþþþþþþþþþþþþþþþþþþþþþ»
                                   12376                       ENTRY ELFPOST
 001866 91E8 1100      00100       12377            C ELFPOST  TM    @R1+(FEBUPATH-FEB)+(UPATSFLG-UPATH),UPATFNI+UPATFOPN+UPA
                                                                     TFCLS+UPATFFQE      Anything for us to do?
 00186A 078E                       12378                       BZR   RAR                 No, scram
                                   12379
 00186C 50E0 D044/902B_      00044 12380                       XPROC
 USING  *,R8
 001886 4BD0 8292/BED7_      01B08 12416                       PUSH  L'TPWA,PTR=R7       TPWA used by subroutines too
 USING  TPWA,R7                    12423                       WITH  (TPWA,R7)
 001896 D78B 7000 7000 00000 00000 12436                       CLEAR TPWA
                                   12443
 00189C 18B1                       12444                       LR    FEBR,R1
 USING  FEB,R11                    12445                       WITH  FEB
                                   12457
 00189E 4150 B0C0            000C0 12458                       LA    R5,FEBUPATH
 USING  UPATH,R5                   12459                       WITH  (UPATH,R5)
 0018A2 D503 8236 5000_01AAC 00000 12472                       FAIL  (UPATH,NE,'PATH'),'Bad ELF UPATH ptr.'
                                   12498                       ¿þþþþþþþþþþþþþþþþþþþþþþþþþþþþþþþþÜ
                                   12499                       Ÿ  Process Amelia path opening.  Ÿ
                                   12500                       ¾þþþþþþþþþþþþþþþþþþþþþþþþþþþþþþþþ»
 0018C2 9108 5040/47E0_00040       12501                       IF    UPATSFLG.UPATFOPN,BEGIN  Path is open...
 001B3A F7/41F0 0001/1_01B3A 060B0 12517  1                      CLEAR UPATSFLG.UPATFOPN,MODE=LOCKED,REF=UPATH
1ELF      (ELF2047) (12:35) (15MAR04) ELF Interface                                                                         Page   56
0Current Usings:  (UPATH,R5) (TPWA,R7) (*,R8) (FEB,R11) (CV,R12)
0Loc    Object Code    Addr1 Addr2  Stmt Lv Lineno    Source Statement           (Hibal 5, Asmedit 3.3)  HLASM R4.0  2004/03/15 12.35
+___    ______ ____    _____ _____  ____ __ ______    ______ _________
0                                  12563  1                      ¿þþþþþþþþþþþþþþþþþþþþþþþþþþþþþþþþþþþþþþþþþþþþþþþþþþþþÜ
                                   12564  1                      Ÿ  If path just opened then get partner's job name.  Ÿ
                                   12565  1                      ¾þþþþþþþþþþþþþþþþþþþþþþþþþþþþþþþþþþþþþþþþþþþþþþþþþþþþ»
 0018E8 9180 5004/4710_00004       12566  1                      IF    ~UPATFOPENED,BEGIN       Just opened...
 0018F0 D20B B01C 823A 0001C 01AB0 12581  2                        MVC   FEBINFO,=CL(L'FEBINFO)'Opened'
 0018F6 9680 5004      00004       12582  2                        SET   UPATFOPENED         Our path is open now
 0018FA 4110 7084            00084 12588  2                        LA    R1,TPWATEMP+8       Build SCOM calling
 0018FE 5010 707C            0007C 12589  2                        ST    R1,TPWATEMP           sequence to sense
 001902 D203 7080 8246 00080 01ABC 12590  2                        MVC   TPWATEMP+4(4),=A(4)     partner's ASCB address
 001908 9680 707C      0007C       12591  2                        OI    TPWATEMP,X'80'
 00190C 41F0 0020/5800_      00020 12592  2                        SCOM  INFO,TPWATEMP,UPATMGC  Sense ASCB address
 00191A 12FF/4770 80C8             12613  2                        IF    (R15,Z),BEGIN       We got the info...
 001920 5810 7084            00084 12627  3                          L     R1,TPWATEMP+8       Get ASCB address
 001924 5821 00AC            000AC 12628  3                          L     R2,172(R1)          Get ASCBJBNI field
 001928 1222/4770 80BC_            12629  3                          IF    (R2,Z),'L R2,176(R1)'  or ASCBJBNS field
 001932 1222/4780 80C8             12649  3                          IF    (R2,NZ),BEGIN
 001938 D207 B01C 2000 0001C 00000 12663  4                            MVC   FEBINFO(8),@R2      Set job name in status msg
 00193E                            12664  3                          END
 00193E                            12668  2                        END
                                   12672  2                        ¿þþþþþþþþþþþþþþþþþþþþþþþþþþþþþþþþþþþþþþþþþþþþþþþþþþþþþþþþþþþþþþþÜ
                                   12673  2                        Ÿ  Tell Amelia what TCP socket(s) we are willing to listen on.  Ÿ
                                   12674  2                        ¾þþþþþþþþþþþþþþþþþþþþþþþþþþþþþþþþþþþþþþþþþþþþþþþþþþþþþþþþþþþþþþþ»
 00193E 58E0 824A/0DEE       01AC0 12675  2                        ACALL ELFSTART            Start listening
                                   12679  2
 001944                            12680  1                      END
 001944                            12684                       END
                                   12688                       ¿þþþþþþþþþþþþþþþþþþþþþþþþþþþþþþþþþþþþþþþþþþþþþþþþþÜ
                                   12689                       Ÿ  Send any locally buffered messages to Amelia.  Ÿ
                                   12690                       ¾þþþþþþþþþþþþþþþþþþþþþþþþþþþþþþþþþþþþþþþþþþþþþþþþþ»
 001944 9140 5040/47E0_00040       12691                       IF    UPATSFLG.UPATFFQE,BEGIN  Full queue emptied...
 00194C 58E0 824E/0DEE       01AC4 12707  1                      ACALL AMYSENDQ            Send messages (reset FFQE)
 001952                            12711                       END
                                   12715                       ¿þþþþþþþþþþþþþþþþþþþþþþþþþþþþþþþþþþþþþþþþþþÜ
                                   12716                       Ÿ  Process any new data from Amelia path.  Ÿ
                                   12717                       ¾þþþþþþþþþþþþþþþþþþþþþþþþþþþþþþþþþþþþþþþþþþ»
 001952 4140 0008            00008 12718                       LA    R4,8                Max number of requests
 001956 1244/47D0 81DA             12719                       WHILE (R4,POS),BEGIN      Process requests...
 00195C 4110 5000            00000 12735  1                      LA    R1,UPATH
 001960 58E0 8252/0DEE       01AC8 12736  1                      VCALL PATHREAD            Get any new info
 001966 4770 81E2            01A58 12740  1                      BNZ   TPDONE              No new info, scram
 00196A 9001 7000            00000 12741  1                      STM   R0,R1,TPXPTRS       Save packet ptrs
                                   12742  1
 00196E 41F0 0001/5EF0_      00001 12743  1                      INCR  R15,FEBNIO          Total front-end I/O count
                                   12749  1                      ¿þþþþþþþþþþþþþþþþþþþþþþþþÜ
                                   12750  1                      Ÿ  Trace incoming data.  Ÿ
                                   12751  1                      ¾þþþþþþþþþþþþþþþþþþþþþþþþ»
 00197A 4110 B09C/4DE0_      0009C 12752  1                      XTRACE FEBTRCP,IOREAD
 USING  TTRC,R15                   12763  1                      WITH  (TTRC,R15),BEGIN
 001988 9801 7000            00000 12777  2                        LM    R0,R1,TPXPTRS       Get packet ptrs
 00198C 4000 F018            00018 12778  2                        STH   R0,TTRCILEN         Data length
 001990 1820                       12779  2                        LR    R2,R0
 001992 5920 8256/47D0_      01ACC 12780  2                        CEIL  R2,L'TTRCITOT
 00199E 0620/1222/4740_            12799  2                        MOVE  R2,TTRCITOT,@R1     Save first part of data
 DROP   TTRC,R15                   12837  1                      END
1ELF      (ELF2047) (12:35) (15MAR04) ELF Interface                                                                         Page   57
0Current Usings:  (UPATH,R5) (TPWA,R7) (*,R8) (FEB,R11) (CV,R12)
0Loc    Object Code    Addr1 Addr2  Stmt Lv Lineno    Source Statement           (Hibal 5, Asmedit 3.3)  HLASM R4.0  2004/03/15 12.35
+___    ______ ____    _____ _____  ____ __ ______    ______ _________
0                                  12845  1
 0019AA 9801 7000            00000 12846  1                      LM    R0,R1,TPXPTRS       Get packet ptrs again
 0019AE 18F0                       12847  1                      LR    R15,R0
 0019B0 59F0 825A/47D0_      01AD0 12848  1                      CEIL  R15,L'TPHDR
 0019BC 06F0/12FF/4740_            12867  1                      MOVE  R15,TPHDR,@R1       Save header information
                                   12905  1
 0019C8 D50B 825E 7008_01AD4 00008 12906  1                      IF    (TPID,EQ,'TCP_CONNECT:'),BEGIN  New session...
 0019D2 58E0 826A/0DEE       01AE0 12923  2                        ACALL TCPCONN             Handle new TCP connection
 0019D8                            12927  1                      END
                                   12931  1
 0019D8 8166/47F0 8176_019D8 019D0 12932  1                      ELSEIF  (TPID,EQ,'TCP_DATA:'),BEGIN  Data...
 0019E6 58E0 826E/0DEE       01AE4 12958  2                        ACALL TCPDATA             Handle incoming TCP data
 0019EC                            12962  1                      END
                                   12966  1
                                   12967  1         C            ELSEIF  ((TPID,EQ,'TCP_STOP:'),OR,
 0019EC 817A/47F0 8194_019EC 019E4        1                            (TPID,EQ,'TCP_START:')),BEGIN
 001A04 58E0 8272/0DEE       01AE8 13009  2                        ACALL TCPFLOW             Handle flow control
 001A0A                            13013  1                      END
                                   13017  1
 001A0A 8198/47F0 81A8_01A0A 01A02 13018  1                      ELSEIF  (TPID,EQ,'TCP_EOF:'),BEGIN
 001A18 58E0 8276/0DEE       01AEC 13044  2                        ACALL TCPEOF              End of file
 001A1E                            13048  1                      END
                                   13052  1
 001A1E 81AC/47F0 81BC_01A1E 01A16 13053  1                      ELSEIF  (TPID,EQ,'TCP_ABORT:'),BEGIN
 001A2C 58E0 827A/0DEE       01AF0 13079  2                        ACALL TCPABORT            Abort TCP connection
 001A32                            13083  1                      END
                                   13087  1
 001A32 81C0/47F0 81D0_01A32 01A2A 13088  1                      ELSEIF  (TPID,EQ,'TCP_CLOSE:'),BEGIN
 001A40 58E0 827E/0DEE       01AF4 13114  2                        ACALL TCPCLOSE            Close TCP connection
 001A46                            13118  1                      END
                                   13122  1                      ¿þþþþþþþþþþþþþþÜ
                                   13123  1                      Ÿ  BAD PACKET  Ÿ
                                   13124  1                      ¾þþþþþþþþþþþþþþ»
 001A46 81D4/47F0 81D4 01A46 01A3E 13125  1                      ELSE  BEGIN
                                   13136  2           * !!!!!  FAIL  'BAD PACKET TYPE.'
 001A4A                            13137  1                      END
                                   13141  1
 001A4A 0640                       13142  1                      DECR  R4                  We've processed a request
 001A4C 47F0 80E0            01956 13144                       END
                                   13149                       ¿þþþþþþþþþþþþþþþþþþþþþþþþþþþþþþþþþþþþþþþþþþþþþþþþþþþþþþþþþþþþþþÜ
                                   13150                       Ÿ  After processing a number of requests, we will mark the     Ÿ
                                   13151                       Ÿ  main ECB as posted and return to the dispatcher.            Ÿ
                                   13152                       Ÿ  Eventually we'll get called again to finish up (this gives  Ÿ
                                   13153                       Ÿ  other front-end drivers a chance to do things).             Ÿ
                                   13154                       ¾þþþþþþþþþþþþþþþþþþþþþþþþþþþþþþþþþþþþþþþþþþþþþþþþþþþþþþþþþþþþþþ»
 001A50 9240 C038      00038       13155                       MVI   CVECB,X'40'         Milten ECB stays posted
 001A54 47F0 81FE            01A74 13156                       B     TPEXIT
                                   13157                       ¿þþþþþþþþþþþþþþþþþþþþþþþþþþþþþþþþþþÜ
                                   13158                       Ÿ  Check for Amelia path closing.  Ÿ
                                   13159                       ¾þþþþþþþþþþþþþþþþþþþþþþþþþþþþþþþþþþ»
 001A58 9180 5040/47E0_00040       13160              TPDONE   IF    UPATSFLG.UPATFCLS,BEGIN  Path closed...
 001A60 4110 B000            00000 13177  1                      LA    R1,FEB
 001A64 58E0 8282/0DEE       01AF8 13178  1                      ACALL ELFCLOSE            Close front-end
                                   13182  1
1ELF      (ELF2047) (12:35) (15MAR04) ELF Interface                                                                         Page   58
0Current Usings:  (UPATH,R5) (TPWA,R7) (*,R8) (FEB,R11) (CV,R12)
0Loc    Object Code    Addr1 Addr2  Stmt Lv Lineno    Source Statement           (Hibal 5, Asmedit 3.3)  HLASM R4.0  2004/03/15 12.35
+___    ______ ____    _____ _____  ____ __ ______    ______ _________
0001A6A 4110 B000            00000 13183  1                      LA    R1,FEB
 001A6E 58E0 8286/0DEE       01AFC 13184  1                      ACALL ELFOPEN             Open it up again
 001A74                            13188                       END
                                   13192
 001A74 41D0 D090/50D0_      00090 13193              TPEXIT   POP   L'TPWA
 001A7C 41D0 D030/982B_      00030 13198                       PEND
 DROP   UPATH,R5
 DROP   FEB,R11
 DROP   TPWA,R7
 DROP   *,R8
                                   13233
                                   13234                       QLTORG
1ELF      (ELF2047) (12:35) (15MAR04) ELF Interface                                                                         Page   59
0Current Usings:  (CV,R12)
0Loc    Object Code    Addr1 Addr2  Stmt Lv Lineno    Source Statement           (Hibal 5, Asmedit 3.3)  HLASM R4.0  2004/03/15 12.35
+___    ______ ____    _____ _____  ____ __ ______    ______ _________
0                                  13279              ¿þþþþþþþþþþþþþþþþþþþþþþþþþþþþþþþþþþþþþþþþþþþþþþþþþþþþþþþþþþþþþþþþþþþþþÜ
                                   13280              Ÿ                                                                     Ÿ
                                   13281              Ÿ  TCPCONN -- Routine to process a new TCP connection.                Ÿ
                                   13282              Ÿ                                                                     Ÿ
                                   13283              Ÿ    On entry:                                                        Ÿ
                                   13284              Ÿ      R1,R0 - packet location, length                                Ÿ
                                   13285              Ÿ      R15 - working header area                                      Ÿ
                                   13286              Ÿ                                                                     Ÿ
                                                      ¾þþþþþþþþþþþþþþþþþþþþþþþþþþþþþþþþþþþþþþþþþþþþþþþþþþþþþþþþþþþþþþþþþþþþþ»
0001B4C 50E0 D044/902B_      00044 13287              TCPCONN  PROC
 USING  *,R8
 USING  FEB,R11                    13323                       WITH  FEB,(TPWA,R7)       (Entry assumptions)
 USING  TPWA,R7
                                   13345                       ¿þþþþþþþþþþþþþþþþþþþþþþþþþþþþþþþþþþþþþþþþþþþþþþþþþþþþþþþþþþþþþþþÜ
                                   13346                       Ÿ  Find our SOCK entry for the socket number we are connecting  Ÿ
                                   13347                       Ÿ    to so we know what to do.                                  Ÿ
                                   13348                       ¾þþþþþþþþþþþþþþþþþþþþþþþþþþþþþþþþþþþþþþþþþþþþþþþþþþþþþþþþþþþþþþþ»
 001B66 4160 B17C            0017C 13349                       LA    R6,FEBSOCKH-(SOCKLINK-SOCK)  Dummy first link
 USING  SOCK,R6                    13350                       WITH  (SOCK,R6)
 001B6A 5860 6004/1266_      00004 13363                       WHILE ('LT R6,SOCKLINK',NZ),BEGIN  Go through queue...
 001B74 D503 6010 7024_00010 00024 13381  1                      IF    (SOCKNO,EQ,TPWORD4),TCONSOCK  Got our SOCK entry
 001B7E 47F0 8014            01B6A 13402                       END
                                   13407                       ¿þþþþþþþþþþþþþþþþþþþþþþþþþþþþþþÜ
                                   13408                       Ÿ  Reject the TCP connection.  Ÿ
                                   13409                       ¾þþþþþþþþþþþþþþþþþþþþþþþþþþþþþþ»
                                   13410                       SEGDEF FEBUSG
 001B82 9680 B0B8      000B8       13411              TCONABRT SET   FEBFCTRL            Segging control sequence
 001B86 4110 852A/4100_      02080 13418                       SEG   LA:=CL16'TCP_REJECT:',16
 001B98 4110 701C/4100_      0001C 13445                       SEG   TPWORD2             Amelia connection ID
 001BAA 1B00/41F0 B13C_            13472                       SEGWR
 001BB6 947F B0B8      000B8       13496                       CLEAR FEBFCTRL            Reset
 001BBA 47F0 840C            01F62 13503                       EXIT  TCPCONN             All done
                                   13506                       ¿þþþþþþþþþþþþþþþþþþþþþþþþþþþþþþÜ
                                   13507                       Ÿ  Get front-end port number.  Ÿ
                                   13508                       ¾þþþþþþþþþþþþþþþþþþþþþþþþþþþþþþ»
 001BBE 4840 B0BA            000BA 13509              TCONSOCK LH    R4,FEBPLAST         Last port number assigned
 001BC2                            13510                       LOOP  BEGIN
 001BC2 4140 4001            00001 13516  1                      LA    R4,@R4+1            Next port number
 001BC6 4940 B076/47D0_      00076 13517  1                      IF    (R4,GT,FEBPMAX),'CLEAR R4'  Wrap around
 001BD0 4940 B0BA/4780_      000BA 13543  1                      IF    (R4,EQ,FEBPLAST),TCONABRT  All ports in use, abort
 001BD8 1854                       13563  1                      LR    R5,R4
 001BDA 8950 0002            00002 13564  1                      SLL   R5,2                Times 4 for word offset
 001BDE 5E50 B098            00098 13565  1                      AL    R5,FEBPATP          Addr of PIB ptr in address table
 001BE2 58F0 5000/12FF       00000 13566  1                      LT    R15,@R5             Zero if this port is available
 001BE8 4780 809A            01BF0 13570  1                      UNTIL Z
 001BEC 47F0 806C            01BC2 13585                       END
                                   13590                       ¿þþþþþþþþþþþþþþþþþþþþþþþþþþþþþþþþþþþþþþþÜ
                                   13591                       Ÿ  Allocate and initialize port block.  Ÿ
                                   13592                       ¾þþþþþþþþþþþþþþþþþþþþþþþþþþþþþþþþþþþþþþþ»
 001BF0 4100 0150            00150 13593                       LA    R0,L'PIB
 001BF4 58E0 8552/0DEE       020A8 13594                       VCALL GETPIB              Get a new port
 001BFA 18A1                       13598                       LR    PIBR,R1
 USING  PIB,R10                    13599                       WITH  PIB
1ELF      (ELF2047) (12:35) (15MAR04) ELF Interface                                                                         Page   60
0Current Usings:  (SOCK,R6) (TPWA,R7) (*,R8) (PIB,R10) (FEB,R11) (CV,R12)
0Loc    Object Code    Addr1 Addr2  Stmt Lv Lineno    Source Statement           (Hibal 5, Asmedit 3.3)  HLASM R4.0  2004/03/15 12.35
+___    ______ ____    _____ _____  ____ __ ______    ______ _________
0001BFC 50A0 5000            00000 13611                       ST    PIBR,@R5            Save PIB ptr in PAT
 001C00 50B0 A008            00008 13612                       ST    FEBR,PIBFEBP        Save FEB ptr
 001C04 5060 A0E8            000E8 13613                       ST    R6,PIBSOCKP         Save SOCK ptr
 001C08 92FF A0B4      000B4       13614                       MVI   PIBXACCT,X'FF'      Force TCP_INFO (see ELFUPD)
 001C0C D203 A0F4 701C 000F4 0001C 13615                       MVC   PIBAID,TPWORD2      Save Amelia connection ID
 001C12 D207 A010 6020 00010 00020 13616                       MVC   PIBDFSYS,SOCKSYS    Set initial subsystem name
 001C18 D604 6028 6028_00028 00028 13617                       IF    (SOCKACCT,NZ),'SET PIBFPS'  Logon as pseudo session
 001C26 9501 6008/4770_00008       13644                       IF    SOCKPELF,'SET PIBPELF'  Set appropriate protocol...
 001C32 9503 6008/4770_00008       13670                       IF    SOCKPTELNET,'SET PIBPTELNET'
 001C3E 9502 6008/4770_00008       13696                       IF    SOCKPRECONNECT,'SET PIBPRECONNECT'
 001C4A 9180 6009/47E0_00009       13722                       IF    SOCKFIAC,'SET PIBFIAC'  Use TELNET IACs
 001C56 9120 6009/47E0_00009       13748                       IF    SOCKFTRACE,'SET PIBFSESTRC'
 001C62 9110 6009/47E0_00009       13774                       IF    SOCKFKEEP,'SET PIBFSESKEEP'
 001C6E 9501 A0A0/4780_000A0       13800                       IF    ~PIBPELF,'SET PIBFDUMB'  Dumb front-end port
 001C7A 4040 A004            00004 13826                       STH   R4,PIBNO            Save our port number
 001C7E 18F4                       13827                       LR    R15,R4
 001C80 5AF0 8556            020AC 13828                       A     R15,=A(100000)      Force leading zeros for BTD below
 001C84 D207 A034 C141 00034 00141 13829                       MVC   PIBNAME,CVBLANKS
 001C8A 4100 0005/4110_      00005 13830                       BTD   PIBNAME,5,(R15)     Port number
                                   13852
 001C98 4040 B0BA            000BA 13853                       STH   R4,FEBPLAST         Save last port number assigned
                                   13854                       ¿þþþþþþþþþþþþþþþþþþþþþþþþþþþþþþþþþþþþþþþþþþþþþþþþþþþþþþþþþþþþÜ
                                   13855                       Ÿ  Set port location field to the remote host's IP address.  Ÿ
                                   13856                       ¾þþþþþþþþþþþþþþþþþþþþþþþþþþþþþþþþþþþþþþþþþþþþþþþþþþþþþþþþþþþþ»
 001C9C D203 A0F8 7028 000F8 00028 13857                       MVC   PIBRIP,TPWORD5      Remote IP address (binary form)
 001CA2 D203 A0FC A0F8 000FC 000F8 13858                       MVC   PIBTELIP,PIBRIP     Initialize TELNET ip address
 001CA8 D713 A03C A03C 0003C 0003C 13859                       CLEAR PIBINFO             No special port info
 001CAE D213 A050 C141 00050 00141 13866                       MVC   PIBLOC,CVBLANKS
 001CB4 4110 A050/4100_      00050 13867                       SEGINIT PIBLOC,,TPSEGCB
 001CC6 1F11/4310 A0F8_            13894                       SEGDC LC:PIBRIP           Format IP address "x.x.x.x"...
 001CD8 4110 85A6/4100_      020FC 13920                       SEG   '.'
 001CEA 1F11/4310 A0F9_            13937                       SEGDC LC:PIBRIP+1
 001CFC 4110 85A6/4100_      020FC 13963                       SEG   '.'
 001D0E 1F11/4310 A0FA_            13980                       SEGDC LC:PIBRIP+2
 001D20 4110 85A6/4100_      020FC 14006                       SEG   '.'
 001D32 1F11/4310 A0FB_            14023                       SEGDC LC:PIBRIP+3
                                   14049
 001D44 9140 B070/47E0_00070       14050                       IF    FEBFLEAS,'SET PIBFLEAS'  Like FEB, like PIB
 001D50 9120 B070/47E0_00070       14076                       IF    FEBFRLIN,'SET PIBFRLIN'
 001D5C 9120 B070/47E0_00070       14102                       IF    FEBFRLIN,'SET PIBFPTID'  preset term id
                                   14128
 001D68 58E0 8566/0DEE       020BC 14129                       ACALL SETIPINF            Set flags based on IP addr
                                   14133
 001D6E 4100 000E            0000E 14134                       LA    R0,L'TTRCP          Length of a trace entry
 001D72 4110 000F            0000F 14135                       LA    R1,TTRCP#           No. of trace entries
 001D76 41F0 A090            00090 14136                       LA    R15,PIBTRCP
 001D7A 58E0 856A/0DEE       020C0 14137                       VCALL GETTRC
                                   14141                       ¿þþþþþþþþþþþþþþþþþþþþþþþþþþþþþþÜ
                                   14142                       Ÿ  Accept the TCP connection.  Ÿ
                                   14143                       ¾þþþþþþþþþþþþþþþþþþþþþþþþþþþþþþ»
                                   14144                       SEGDEF FEBUSG
 001D80 9680 B0B8      000B8       14145                       SET   FEBFCTRL            Segging control sequence
 001D84 4110 853A/4100_      02090 14151                       SEG   LA:=CL16'TCP_ACCEPT:',16
 001D96 4110 A0F4/4100_      000F4 14178                       SEG   PIBAID              Amelia connection ID
1ELF      (ELF2047) (12:35) (15MAR04) ELF Interface                                                                         Page   61
0Current Usings:  (SOCK,R6) (TPWA,R7) (*,R8) (PIB,R10) (FEB,R11) (CV,R12)
0Loc    Object Code    Addr1 Addr2  Stmt Lv Lineno    Source Statement           (Hibal 5, Asmedit 3.3)  HLASM R4.0  2004/03/15 12.35
+___    ______ ____    _____ _____  ____ __ ______    ______ _________
0001DA8 4110 859C/4100_      020F2 14205                       SEG   X'0000'             High order zeros of Milten ID
 001DBA 4110 A004/4100_      00004 14222                       SEG   PIBNO               Milten ID
 001DCC 1B00/41F0 B13C_            14249                       SEGWR
 001DD8 947F B0B8      000B8       14273                       CLEAR FEBFCTRL            Reset
                                   14280                       ¿þþþþþþþþþþþþþþþþþþþþþþþþþþþþþþþþÜ
                                   14281                       Ÿ  ELF protocol initialization.  Ÿ
                                   14282                       ¾þþþþþþþþþþþþþþþþþþþþþþþþþþþþþþþþ»
 001DDC 9501 A0A0/4770_000A0       14283                       IF    PIBPELF,BEGIN       ELF specific initialization...
 001DE4 4100 0001            00001 14298  1                      LA    R0,1                Add one to current count
 001DE8 5810 A0F8            000F8 14299  1                      L     R1,PIBRIP           ELF's IP address
 001DEC 58E0 856E/0DEE       020C4 14300  1                      ACALL COUNTEIB            Add one to ELF user count
                                   14304  1
 001DF2 47F0 840C            01F62 14305  1                      B     TCONEXIT            All done
 001DF6                            14306                       END
                                   14310                       ¿þþþþþþþþþþþþþþþþþþþþþþþþþþþþþþþþþþþþþþÜ
                                   14311                       Ÿ  Reconnect protocol initialization.  Ÿ
                                   14312                       ¾þþþþþþþþþþþþþþþþþþþþþþþþþþþþþþþþþþþþþþ»
 001DF6 9502 A0A0/4770_000A0       14313                       IF    PIBPRECONNECT,BEGIN  Reconnect protocol...
 001DFE 5800 8572            020C8 14328  1                      L     R0,=A(RCONTIMR)     Reconnect timer routine
 001E02 4110 A000            00000 14329  1                      LA    R1,PIB              Our PIB is the entry parm
 001E06 41F0 0064            00064 14330  1                      LA    R15,100             1 second interval
 001E0A 58E0 8576/0DEE       020CC 14331  1                      VCALL TIMERQ              Queue a timer routine
 001E10 50F0 A0D8            000D8 14335  1                      ST    R15,PIBTIMERID      Save our timer ID
 001E14 D703 A0DC A0DC 000DC 000DC 14336  1                      CLEAR PIBTICKCUR          Reset current tick count
 001E1A D203 A0E0 857A 000E0 020D0 14343  1                      MVC   PIBTICKMSG,=A(PIBRMSG#)  Write info message timeout
 001E20 D203 A0E4 857E 000E4 020D4 14344  1                      MVC   PIBTICKLGF,=A(PIBRLGF#)  Force disconnect timeout
                                   14345  1
 001E26 4110 85A7/4100_      020FD 14346  1                      SEG   =AL1($IAC,$DO,$RECON),3  Do reconnect
 001E38 1B00/41F0 B13C_            14375  1                      SEGWR
 001E44 9200 A0A3      000A3       14399  1                      SET   PIBINFDATA          Reset input telnet stream state
 001E48 47F0 840C            01F62 14405  1                      B     TCONEXIT            That's it
 001E4C                            14406                       END
                                   14410                       ¿þþþþþþþþþþþþþþþþþþþþþþþþþþþþþþþþþþþÜ
                                   14411                       Ÿ  Telnet protocol initialization.  Ÿ
                                   14412                       ¾þþþþþþþþþþþþþþþþþþþþþþþþþþþþþþþþþþþ»
 001E4C 9108 A0A1/47E0_000A1       14413                       IF    PIBFIAC,BEGIN       Send TELNET IAC sequences..
 001E54 4110 8420/4100_      01F76 14428  1                      SEG   TCONCTRL            Send initial IAC information
 001E66 1B00/41F0 B13C_            14455  1                      SEGWR
 001E72 41F0 0001/5EF0_      00001 14479  1                      INCR  R15,PIBNIO          Port I/O count
 001E7E                            14485                       END
                                   14489                       ¿þþþþþþþþþþþþþþþþþþþþþþþþþþþÜ
                                   14490                       Ÿ  Allocate a new session.  Ÿ
                                   14491                       ¾þþþþþþþþþþþþþþþþþþþþþþþþþþþ»
 001E7E 4110 A000            00000 14492                       LA    R1,PIB
 001E82 4100 01B2            001B2 14493                       LA    R0,L'SCB
 001E86 58E0 8582/0DEE       020D8 14494                       VCALL GETSCB              Get a session
 001E8C 1891                       14498                       LR    SCBR,R1
 USING  SCB,R9                     14499                       WITH  SCB
 001E8E 9602 9168      00168       14511                       SET   SCBFFILT
 001E92 D201 9188 859E 00188 020F4 14517                       MVC   SCBWID,=H'80'       Width
 001E98 D207 9152 A0AC 00152 000AC 14518                       MVC   SCBTCLS,PIBTCLS     Set terminal class
 001E9E D201 90FD 85A0 000FD 020F6 14519                       MVC   SCBTINFO,=X'8188'   Ttype info is faked
 001EA4 D203 9198 A0FC 00198 000FC 14520                       MVC   SCBIPADR,PIBTELIP   Copy in IP address
1ELF      (ELF2047) (12:35) (15MAR04) ELF Interface                                                                         Page   62
0Current Usings:  (SOCK,R6) (TPWA,R7) (*,R8) (SCB,R9) (PIB,R10) (FEB,R11) (CV,R12)
0Loc    Object Code    Addr1 Addr2  Stmt Lv Lineno    Source Statement           (Hibal 5, Asmedit 3.3)  HLASM R4.0  2004/03/15 12.35
+___    ______ ____    _____ _____  ____ __ ______    ______ _________
0                                  14521                       ¿þþþþþþþþþþþþþþþþþþþþþþþþþþþþþþþþþþþþþþþþþþþþþþþþþþþþþþþþþÜ
                                   14522                       Ÿ  Set session defaults (including the logged on account  Ÿ
                                   14523                       Ÿ    and pseudo-session flags).                           Ÿ
                                   14524                       ¾þþþþþþþþþþþþþþþþþþþþþþþþþþþþþþþþþþþþþþþþþþþþþþþþþþþþþþþþþ»
 001EAA D604 6028 6028_00028 00028 14525                       IF    (SOCKACCT,NZ),BEGIN  Pre-logged...
 001EB4 D204 9124 6028 00124 00028 14541  1                      MVC   SCBACCT,SOCKACCT    Set account
 001EBA 96E0 912B      0012B       14542  1                      SET   SCBSFNAT+SCBSFNAR+SCBSFPS  Pseudo session
 001EBE 9608 9186      00186       14555  1                      SET   SCBFQUIET           Quiet terminal I/O mode
                                   14561  1
 001EC2 4110 9000            00000 14562  1                      LA    R1,SCB
 001EC6 58E0 8586/0DEE       020DC 14563  1                      VCALL INCRSES             Count the new session
 001ECC                            14567                       END
                                   14571                       ¿þþþþþþþþþþþþþþþþþþþþþþþþþþþþþþþþþþþþþþþþþþþþþþþþþþþþþÜ
                                   14572                       Ÿ  Start up the new session.                          Ÿ
                                   14573                       Ÿ    (The first command for Wylbur to execute can be  Ÿ
                                   14574                       Ÿ    passed as a parameter.)                          Ÿ
                                   14575                       ¾þþþþþþþþþþþþþþþþþþþþþþþþþþþþþþþþþþþþþþþþþþþþþþþþþþþþþ»
 001ECC 5850 C060            00060 14576                       L     R5,CVPDBP
 USING  PDB,R5                     14577                       WITH  (PDB,R5)
 001ED0 D737 5000 5000 00000 00000 14590                       CLEAR PDBHDR              Build default PDB for subsys
 001ED6 D201 5000 85A2 00000 020F8 14597                       MVC   PDBLENG,=AL2(L'PDBHDR)  Standard size, no parms
                                   14598
 001EDC D6C7 602D 602D_0002D 0002D 14599                       IF    (SOCKCMD,NZ),BEGIN  Do this command...
 001EE6 4110 5038/4100_      00038 14615  1                      SEGINIT PDBTEXT,512,TPSEGCB
 001EF8 4110 602D/4100_      0002D 14644  1                      SEGT  SOCKCMD             Add first command to execute
 001F0A 41F0 0038            00038 14672  1                      LA    R15,L'PDBHDR        Standard PDB size
 001F0E 5AF0 704C            0004C 14673  1                      A     R15,TPSEGCB+(SEGCBLENF-SEGCB)  Add in length of cmd
 001F12 40F0 5000            00000 14674  1                      STH   R15,PDBLENG         Set total PDB length
 001F16                            14675                       END
                                   14679
 001F16 4110 9000            00000 14680                       LA    R1,SCB
 001F1A 41F0 5000            00000 14681                       LA    R15,PDB
 001F1E 58E0 858E/0DEE       020E4 14682                       VCALL SUBSTART            Send signon to subsystem
                                   14686                       ¿þþþþþþþþþþþþþþþþþþþþþþþþþþþþþþþþþþþþþþþþþþþþþþþþÜ
                                   14687                       Ÿ  Finally, write out any initial message text.  Ÿ
                                   14688                       ¾þþþþþþþþþþþþþþþþþþþþþþþþþþþþþþþþþþþþþþþþþþþþþþþþ»
 001F24 D601 60F6 60F6_000F6 000F6 14689                       IF    (SOCKMSGL,NZ),BEGIN  We have an initial message...
 001F2E 41F0 B13C/58E0_      0013C 14705  1                      SEGCLR FEBUSG
                                   14718  1
 001F38 5810 60F8/4800_      000F8 14719  1                      SETMSG L:SOCKMSGP,LH:SOCKMSGL  Message text (if any)
 001F40 41F0 B13C            0013C 14730  1                      LA    R15,FEBUSG
 001F44 58E0 8596/0DEE       020EC 14731  1                      ACALL OUTPROC             Convert to ASCII and then SEG
 001F4A 1B00/41F0 B13C_            14735  1                      SEGWR
                                   14759  1
 001F56 41F0 0001/5EF0_      00001 14760  1                      INCR  R15,PIBNIO          Port I/O count
 001F62                            14766                       END
                                   14770
 001F62 41D0 D030/982B_      00030 14771              TCONEXIT PEND
 DROP   PDB,R5
 DROP   SCB,R9
 DROP   PIB,R10
 DROP   SOCK,R6
 DROP   TPWA,R7
 DROP   FEB,R11
1ELF      (ELF2047) (12:35) (15MAR04) ELF Interface                                                                         Page   63
0Current Usings:  (CV,R12)
0Loc    Object Code    Addr1 Addr2  Stmt Lv Lineno    Source Statement           (Hibal 5, Asmedit 3.3)  HLASM R4.0  2004/03/15 12.35
+___    ______ ____    _____ _____  ____ __ ______    ______ _________
0DROP   *,R8
-                                  14823                       ¿þþþþþþþþþþþþþþþþþþþþþþþþþþþþþþþþþþþþþÜ
                                   14824                       Ÿ  Initial telnet control sequences.  Ÿ
                                   14825                       ¾þþþþþþþþþþþþþþþþþþþþþþþþþþþþþþþþþþþþþ»
 001F76 FFFC01                     14826              TCONCX   DC    AL1($IAC,$WONT,$ECHO)  We won't echo input chars
 001F79 FFFE01                     14827                       DC    AL1($IAC,$DONT,$ECHO)  Don't echo our output chars
 001F7C FFFC03                     14828                       DC    AL1($IAC,$WONT,$SGA)
 001F7F FFFE03                     14829                       DC    AL1($IAC,$DONT,$SGA)   Use GAs to force "line mode"
                                   14830              TCONCTRL EQU   TCONCX,*-TCONCX,C'X'
1ELF      (ELF2047) (12:35) (15MAR04) ELF Interface                                                                         Page   64
0Current Usings:  (CV,R12)
0Loc    Object Code    Addr1 Addr2  Stmt Lv Lineno    Source Statement           (Hibal 5, Asmedit 3.3)  HLASM R4.0  2004/03/15 12.35
+___    ______ ____    _____ _____  ____ __ ______    ______ _________
0                                  14832              ¿þþþþþþþþþþþþþþþþþþþþþþþþþþþþþþþþþþþþþþþþþþþþþþþþþþþþþþþþþþþþþþþþþþþþþÜ
                                   14833              Ÿ                                                                     Ÿ
                                   14834              Ÿ  TCPDATA -- Routine to handle data from an existing TCP             Ÿ
                                   14835              Ÿ    connection.                                                      Ÿ
                                   14836              Ÿ                                                                     Ÿ
                                   14837              Ÿ    On entry:                                                        Ÿ
                                   14838              Ÿ      R1,R0 - packet location, length                                Ÿ
                                   14839              Ÿ      R15 - header                                                   Ÿ
                                   14840              Ÿ                                                                     Ÿ
                                                      ¾þþþþþþþþþþþþþþþþþþþþþþþþþþþþþþþþþþþþþþþþþþþþþþþþþþþþþþþþþþþþþþþþþþþþþ»
0001F82 50E0 D044/902B_      00044 14841              TCPDATA  PROC
 USING  *,R8
 USING  FEB,R11                    14877                       WITH  FEB,(TPWA,R7)       (Entry assumptions)
 USING  TPWA,R7
                                   14899
 001F9C 58F0 7018            00018 14900                       L     R15,TPWORD1         Our id
 001FA0 BDF3 B076/47D0_      00076 14901                       FAIL  (R15,LGT,FEBPMAX),'Bad TCP_DATA id'
 001FBA 89F0 0002            00002 14927                       SLL   R15,2
 001FBE 5AF0 B098            00098 14928                       A     R15,FEBPATP
 001FC2 58A0 F000            00000 14929                       L     PIBR,@R15
 USING  PIB,R10                    14930                       WITH  PIB
                                   14942
 001FC6 D502 8174 A000_02100 00000 14943                       IF    (PIB,NE,'PIB'),BEGIN  Synchronization error...
 001FD0 4510 805A/0011_      01FE6 14960  1                      WTO   'TCPDATA error'
 001FE8 47F0 80E0            0206C 14968  1                      EXIT  TCPDATA
 001FEC                            14971                       END
                                   14975
 001FEC D502 8174 A000_02100 00000 14976                       FAIL  (PIB,NE,'PIB'),'Bad port'
                                   15002
 002002 9180 A0A1/4710_000A1       15003                       IF    PIBFCLOSING,TDATEXIT  Ignore if closing
                                   15021
 00200A 41F0 0001/5EF0_      00001 15022                       INCR  R15,PIBNIO          Port I/O count
                                   15028
 002016 9801 7000            00000 15029                       LM    R0,R1,TPXPTRS       Get packet ptrs
 00201A 4110 1014            00014 15030                       LA    R1,@R1+L'TPID+4     Skip past header...
 00201E 4B00 816E            020FA 15031                       SH    R0,=AL2(L'TPID+4)   Keep length accurate
 002022 47B0 809C/1B00       02028 15032                       IF    NEG,'CLEAR R0'
                                   15052                       ¿þþþþþþþþþþþþþþþþþþþþþþþþþþþþþþþÜ
                                   15053                       Ÿ  Handle terminal input data.  Ÿ
                                   15054                       ¾þþþþþþþþþþþþþþþþþþþþþþþþþþþþþþþ»
 002028 9501 A0A0/4770_000A0       15055                       IF    PIBPELF,'LCALL ELFDATA'  ELF style I/O
 002034 80AC/47F0 80B8_02034 0202E 15077                       ELSEIF PIBPTELNET,'LCALL TELDATA'  Telnet style I/O
 002044 80BC/47F0 80C8_02044 0203E 15108                       ELSEIF PIBPRECONNECT,'LCALL RCONDATA'  Reconnect I/O
 002054 80CC/47F0 80E0_02054 0204E 15139                       ELSE  'FAIL "ELF driver error."'
                                   15160
 00206C 41D0 D030/982B_      00030 15161              TDATEXIT PEND
 DROP   PIB,R10
 DROP   TPWA,R7
 DROP   FEB,R11
 DROP   *,R8
                                   15197
                                   15198                       QLTORG
1ELF      (ELF2047) (12:35) (15MAR04) ELF Interface                                                                         Page   65
0Current Usings:  (CV,R12)
0Loc    Object Code    Addr1 Addr2  Stmt Lv Lineno    Source Statement           (Hibal 5, Asmedit 3.3)  HLASM R4.0  2004/03/15 12.35
+___    ______ ____    _____ _____  ____ __ ______    ______ _________
0                                  15242              ¿þþþþþþþþþþþþþþþþþþþþþþþþþþþþþþþþþþþþþþþþþþþþþþþþþþþþþþþþþþþþþþþþþþþþþÜ
                                   15243              Ÿ                                                                     Ÿ
                                   15244              Ÿ  TCPCLOSE -- Local routine to handle the closing of the TCP         Ÿ
                                   15245              Ÿ    connection.  We send Amelia a TCP_CLOSE and when Amelia          Ÿ
                                   15246              Ÿ    responds with a TCP_CLOSE then the connection can be freed.      Ÿ
                                   15247              Ÿ                                                                     Ÿ
                                                      ¾þþþþþþþþþþþþþþþþþþþþþþþþþþþþþþþþþþþþþþþþþþþþþþþþþþþþþþþþþþþþþþþþþþþþþ»
0002104 50E0 D044/902B_      00044 15248              TCPCLOSE PROC
 USING  *,R8
 USING  FEB,R11                    15284                       WITH  FEB,(TPWA,R7)       (Entry assumptions)
 USING  TPWA,R7
                                   15306
 00211E 58F0 7018            00018 15307                       L     R15,TPWORD1         Our id
 002122 BDF3 B076/47D0_      00076 15308                       FAIL  (R15,LGT,FEBPMAX),'Bad TCP_DATA id'
 00213C 89F0 0002            00002 15334                       SLL   R15,2
 002140 5AF0 B098            00098 15335                       A     R15,FEBPATP
 002144 58A0 F000            00000 15336                       L     PIBR,@R15           Get PIB ptr
 USING  PIB,R10                    15337                       WITH  PIB
 002148 D502 83E0 A000_024EE 00000 15349                       FAIL  (PIB,NE,'PIB'),'Bad port'
                                   15375                       ¿þþþþþþþþþþþþþþþþþþþþþþþþþþþþþþþþþþþþþþþþþþþþþþþþþþþþþþþþþÜ
                                   15376                       Ÿ  This must be a response to our TCP_CLOSE; when we get  Ÿ
                                   15377                       Ÿ    this response we can free up the control blocks.     Ÿ
                                   15378                       ¾þþþþþþþþþþþþþþþþþþþþþþþþþþþþþþþþþþþþþþþþþþþþþþþþþþþþþþþþþ»
 00215E 9180 A0A1/4710_000A1       15379                       FAIL  ~PIBFCLOSING,'TCPCLOSE logic error #1.'
 002182 D603 A00C A00C_0000C 0000C 15403                       FAIL  (PIBSCBP,NZ),'TCPCLOSE logic error #2.'
                                   15428                       ¿þþþþþþþþþþþþþþþþþþþþþþþþþþþþþþþþþþþþþþþþþÜ
                                   15429                       Ÿ  Reduce user count by one on this ELF.  Ÿ
                                   15430                       ¾þþþþþþþþþþþþþþþþþþþþþþþþþþþþþþþþþþþþþþþþþ»
 0021A8 9501 A0A0/4770_000A0       15431                       IF    PIBPELF,BEGIN       Adjust ELF user count...
 0021B0 4800 83DC            024EA 15446  1                      LH    R0,=H'-1'           Reduce count by one
 0021B4 5810 A0F8            000F8 15447  1                      L     R1,PIBRIP           ELF's IP address
 0021B8 58E0 83BA/0DEE       024C8 15448  1                      ACALL COUNTEIB            Do it
 0021BE                            15452                       END
                                   15456                       ¿þþþþþþþþþþþþþþþþþþþþþþþþþþþþþÜ
                                   15457                       Ÿ  Free user control blocks.  Ÿ
                                   15458                       ¾þþþþþþþþþþþþþþþþþþþþþþþþþþþþþ»
 0021BE 5810 A120/1211       00120 15459                       LT    R1,PIBINSGLOC
 0021C4 4780 80C6/D703_      021D4 15463                       IF    NZ,'CLEAR PIBINSGLOC; VCALL FREECORE'  Free inp buf
                                   15490
 0021D4 58F0 A0D8/12FF       000D8 15491                       LT    R15,PIBTIMERID
 0021DA 4780 80DC/D703_      021EA 15495                       IF    NZ,'CLEAR PIBTIMERID; VCALL TIMERDQ'  Dequeue timer
                                   15522
 0021EA 4110 A000            00000 15523                       LA    R1,PIB
 0021EE 58E0 83C6/0DEE       024D4 15524                       VCALL FREEPIB             Free the port block
                                   15528
 0021F4 41D0 D030/982B_      00030 15529                       PEND
 DROP   PIB,R10
 DROP   TPWA,R7
 DROP   FEB,R11
 DROP   *,R8
1ELF      (ELF2047) (12:35) (15MAR04) ELF Interface                                                                         Page   66
0Current Usings:  (CV,R12)
0Loc    Object Code    Addr1 Addr2  Stmt Lv Lineno    Source Statement           (Hibal 5, Asmedit 3.3)  HLASM R4.0  2004/03/15 12.35
+___    ______ ____    _____ _____  ____ __ ______    ______ _________
0                                  15565              ¿þþþþþþþþþþþþþþþþþþþþþþþþþþþþþþþþþþþþþþþþþþþþþþþþþþþþþþþþþþþþþþþþþþþþþÜ
                                   15566              Ÿ                                                                     Ÿ
                                   15567              Ÿ  TCPFLOW -- Local routine to handle Amelia flow control requests.   Ÿ
                                   15568              Ÿ    If we get a TCP_STOP request then we simply set a flag here;     Ÿ
                                   15569              Ÿ    when we get the next I/O request we will process it but not      Ÿ
                                   15570              Ÿ    send the completion back to the subsystem.  Then, when we get    Ÿ
                                   15571              Ÿ    a TCP_START request we will send the I/O completion back to the  Ÿ
                                   15572              Ÿ    subsystem (presumably the subsystem will then send us more       Ÿ
                                   15573              Ÿ    data).                                                           Ÿ
                                   15574              Ÿ                                                                     Ÿ
                                                      ¾þþþþþþþþþþþþþþþþþþþþþþþþþþþþþþþþþþþþþþþþþþþþþþþþþþþþþþþþþþþþþþþþþþþþþ»
0002208 50E0 D044/902B_      00044 15575              TCPFLOW  PROC
 USING  *,R8
 USING  FEB,R11                    15611                       WITH  FEB,(TPWA,R7)       (Entry assumptions)
 USING  TPWA,R7
                                   15633
 002222 58F0 7018            00018 15634                       L     R15,TPWORD1         Our id
 002226 BDF3 B076/47D0_      00076 15635                       FAIL  (R15,LGT,FEBPMAX),'Bad TCP_DATA id'
 002240 89F0 0002            00002 15661                       SLL   R15,2
 002244 5AF0 B098            00098 15662                       A     R15,FEBPATP
 002248 58A0 F000            00000 15663                       L     PIBR,@R15
 USING  PIB,R10                    15664                       WITH  PIB
 00224C D502 82DC A000_024EE 00000 15676                       FAIL  (PIB,NE,'PIB'),'Bad port'
                                   15702                       ¿þþþþþþþþþþþþþþþþþþþþþþþþþþþþþþþþþþþþþþþþþþþþÜ
                                   15703                       Ÿ  TCP_STOP:   Stop sending data to Amelia.  Ÿ
                                   15704                       ¾þþþþþþþþþþþþþþþþþþþþþþþþþþþþþþþþþþþþþþþþþþþþ»
 002262 D508 82DF 7008_024F1 00008 15705                       IF    (TPID,EQ,'TCP_STOP:'),BEGIN  Stop...
 00226C 9680 A0A2      000A2       15722  1                      SET   PIBFDSTOP           Stop sending data
 002270                            15728                       END
                                   15732                       ¿þþþþþþþþþþþþþþþþþþþþþþþþþþþþþþþþþþþþþþþþþþþþþþþþÜ
                                   15733                       Ÿ  TCP_START:  OK to send data to Amelia again.  Ÿ
                                   15734                       ¾þþþþþþþþþþþþþþþþþþþþþþþþþþþþþþþþþþþþþþþþþþþþþþþþ»
 002270 8062/47F0 810A 02270 0226A 15735                       ELSE  BEGIN               Start...
 002274 947F A0A2      000A2       15746  1                      CLEAR PIBFDSTOP           Start sending data again
                                   15753  1
 002278 5890 A00C/1299       0000C 15754  1                      LT    SCBR,PIBSCBP        Get session
 00227E 4780 810A            0231C 15758  1                      IF    Z,EXIT              No session, scram
                                   15772  1
 USING  SCB,R9                     15773  1                      WITH  SCB
 002282 D502 82E8 9000_024FA 00000 15785  1                      FAIL  (SCB,NE,'SCB'),'Bad SCB'
                                   15811  1
 002296 9140 A0A2/47E0_000A2       15812  1                      IF    PIBFPCOMP,BEGIN     Post I/O completion...
 00229E 5850 C060            00060 15827  2                        L     R5,CVPDBP
 USING  PDB,R5                     15828  2                        WITH  (PDB,R5)
 0022A2 D201 5000 82DA 00000 024EC 15841  2                        MVC   PDBLENG,=AL2(L'PDBHDR)  Standard PDB length
 0022A8 D730 5007 5007 00007 00007 15842  2                        CLEAR PDBOPT
 0022AE D200 5006 90B3 00006 000B3 15849  2                        MVC   PDBCMD,SCBCMD       Set operation code
 0022B4 94BF A0A2      000A2       15850  2                        CLEAR PIBFPCOMP
                                   15857  2
 0022B8 4110 B09C/4DE0_      0009C 15858  2                        XTRACE FEBTRCP,TERMCMP2   Trace completion
 USING  TTRC,R15                   15869  2                        WITH  (TTRC,R15),BEGIN
 0022C6 D207 F010 A034 00010 00034 15883  3                          MVC   TTRCPNAM,PIBNAME
 0022CC D203 F018 90F4 00018 000F4 15884  3                          MVC   TTRCSID,SCBID
1ELF      (ELF2047) (12:35) (15MAR04) ELF Interface                                                                         Page   67
0Current Usings:  (PDB,R5) (TPWA,R7) (*,R8) (SCB,R9) (PIB,R10) (FEB,R11) (CV,R12) (TTRC,R15)
0Loc    Object Code    Addr1 Addr2  Stmt Lv Lineno    Source Statement           (Hibal 5, Asmedit 3.3)  HLASM R4.0  2004/03/15 12.35
+___    ______ ____    _____ _____  ____ __ ______    ______ _________
00022D2 D204 F01C 9124 0001C 00124 15885  3                          MVC   TTRCSACC,SCBACCT
 0022D8 D200 F021 5006 00021 00006 15886  3                          MVC   TTRCCMD,PDBCMD
 0022DE D201 F022 500C 00022 0000C 15887  3                          MVC   TTRCCPL,PDBCPL
 0022E4 D201 F024 5000 00024 00000 15888  3                          MVC   TTRCTLEN,PDBLENG
 0022EA D213 F026 5038 00026 00038 15889  3                          MVC   TTRCTEXT,PDBTEXT
 DROP   TTRC,R15                   15890  2                        END
                                   15898  2
 0022F0 4110 A090/4DE0_      00090 15899  2                        XTRACE PIBTRCP
 USING  TTRCP,R15                  15909  2                        WITH  (TTRCP,R15),BEGIN
 0022F8 92C6 F007      00007       15923  3                          MVI   TTRCPTYP,C'F'       F = FROMAMY
 0022FC D200 F008 5006 00008 00006 15924  3                          MVC   TTRCPCMD,PDBCMD
 002302 D201 F00A 500C 0000A 0000C 15925  3                          MVC   TTRCPCPL,PDBCPL
 002308 D201 F00C 5000 0000C 00000 15926  3                          MVC   TTRCPLEN,PDBLENG
 DROP   TTRCP,R15                  15927  2                        END
                                   15935  2
 00230E 4110 9000            00000 15936  2                        LA    R1,SCB
 002312 41F0 5000            00000 15937  2                        LA    R15,PDB
 002316 58E0 82C6/0DEE       024D8 15938  2                        VCALL SUBSEND             Send completion
 DROP   PDB,R5                     15942  1                      END
 DROP   SCB,R9                     15951                       END
                                   15960
 00231C 41D0 D030/982B_      00030 15961                       PEND
 DROP   PIB,R10
 DROP   TPWA,R7
 DROP   FEB,R11
 DROP   *,R8
1ELF      (ELF2047) (12:35) (15MAR04) ELF Interface                                                                         Page   68
0Current Usings:  (CV,R12)
0Loc    Object Code    Addr1 Addr2  Stmt Lv Lineno    Source Statement           (Hibal 5, Asmedit 3.3)  HLASM R4.0  2004/03/15 12.35
+___    ______ ____    _____ _____  ____ __ ______    ______ _________
0                                  15997              ¿þþþþþþþþþþþþþþþþþþþþþþþþþþþþþþþþþþþþþþþþþþþþþþþþþþþþþþþþþþþþþþþþþþþþþÜ
                                   15998              Ÿ                                                                     Ÿ
                                   15999              Ÿ  TCPEOF -- Local routine to handle an end of file on a TCP          Ÿ
                                   16000              Ÿ    connection.                                                      Ÿ
                                   16001              Ÿ                                                                     Ÿ
                                                      ¾þþþþþþþþþþþþþþþþþþþþþþþþþþþþþþþþþþþþþþþþþþþþþþþþþþþþþþþþþþþþþþþþþþþþþ»
0002330 50E0 D044/902B_      00044 16002              TCPEOF   PROC
 USING  *,R8
 USING  FEB,R11                    16038                       WITH  FEB,(TPWA,R7)       (Entry assumptions)
 USING  TPWA,R7
                                   16060
 00234A 58F0 7018            00018 16061                       L     R15,TPWORD1         Our id
 00234E BDF3 B076/47D0_      00076 16062                       FAIL  (R15,LGT,FEBPMAX),'Bad TCP_DATA id'
 002368 89F0 0002            00002 16088                       SLL   R15,2
 00236C 5AF0 B098            00098 16089                       A     R15,FEBPATP
 002370 58A0 F000            00000 16090                       L     PIBR,@R15           Get PIB ptr
 USING  PIB,R10                    16091                       WITH  PIB
 002374 D502 81B4 A000_024EE 00000 16103                       FAIL  (PIB,NE,'PIB'),'Bad port'
                                   16129
 00238A 9180 A0A1/4710_000A1       16130                       IF    PIBFCLOSING,TEOFEXIT  Ignore if already closing
                                   16148                       ¿þþþþþþþþþþþþþþþþþþþþþþþþþþþþþþþþþþþþþþþþþþþþÜ
                                   16149                       Ÿ  Handle end of file on input data stream.  Ÿ
                                   16150                       ¾þþþþþþþþþþþþþþþþþþþþþþþþþþþþþþþþþþþþþþþþþþþþ»
 002392 9501 A0A0/4770_000A0       16151                       IF    PIBPELF,'LCALL ELFEOF'  ELF protocol
 00239E 8068/47F0 8074_0239E 02398 16173                       ELSEIF PIBPTELNET,'LCALL TELEOF'  Telnet protocol
 0023AE 8078/47F0 8084_023AE 023A8 16204                       ELSEIF PIBPRECONNECT,'LCALL RCONEOF'  Reconnect protocol
 0023BE 8088/47F0 809C_023BE 023B8 16235                       ELSE  'FAIL "ELF driver error."'
                                   16256
 0023D6 41D0 D030/982B_      00030 16257              TEOFEXIT PEND
 DROP   PIB,R10
 DROP   TPWA,R7
 DROP   FEB,R11
 DROP   *,R8
1ELF      (ELF2047) (12:35) (15MAR04) ELF Interface                                                                         Page   69
0Current Usings:  (CV,R12)
0Loc    Object Code    Addr1 Addr2  Stmt Lv Lineno    Source Statement           (Hibal 5, Asmedit 3.3)  HLASM R4.0  2004/03/15 12.35
+___    ______ ____    _____ _____  ____ __ ______    ______ _________
0                                  16294              ¿þþþþþþþþþþþþþþþþþþþþþþþþþþþþþþþþþþþþþþþþþþþþþþþþþþþþþþþþþþþþþþþþþþþþþÜ
                                   16295              Ÿ                                                                     Ÿ
                                   16296              Ÿ  TCPABORT -- Local routine to handle an aborted TCP connection.     Ÿ
                                   16297              Ÿ    We have to free up the session, and then send a TCP_CLOSE.       Ÿ
                                   16298              Ÿ                                                                     Ÿ
                                                      ¾þþþþþþþþþþþþþþþþþþþþþþþþþþþþþþþþþþþþþþþþþþþþþþþþþþþþþþþþþþþþþþþþþþþþþ»
00023EA 50E0 D044/902B_      00044 16299              TCPABORT PROC
 USING  *,R8
 USING  FEB,R11                    16335                       WITH  FEB,(TPWA,R7)       (Entry assumptions)
 USING  TPWA,R7
                                   16357
 002404 58F0 7018            00018 16358                       L     R15,TPWORD1         Our id
 002408 BDF3 B076/47D0_      00076 16359                       FAIL  (R15,LGT,FEBPMAX),'Bad TCP_DATA id'
 002422 89F0 0002            00002 16385                       SLL   R15,2
 002426 5AF0 B098            00098 16386                       A     R15,FEBPATP
 00242A 58A0 F000            00000 16387                       L     PIBR,@R15           Get PIB ptr
 USING  PIB,R10                    16388                       WITH  PIB
 00242E D502 80FA A000_024EE 00000 16400                       FAIL  (PIB,NE,'PIB'),'Bad port'
                                   16426                       ¿þþþþþþþþþþþþþþþþþþþþþþþþþþþþþþþþþþþþþþþþþþþþþþþþþþþÜ
                                   16427                       Ÿ  Disconnect session.                              Ÿ
                                   16428                       Ÿ    Subsystem will eventually logoff the session.  Ÿ
                                   16429                       ¾þþþþþþþþþþþþþþþþþþþþþþþþþþþþþþþþþþþþþþþþþþþþþþþþþþþ»
 002444 5810 A00C/1211       0000C 16430                       LT    R1,PIBSCBP
 00244A 4780 8060/58E0_      02454 16434                       IF    NZ,'VCALL DISCSESS'  Disconnect session
                                   16454                       ¿þþþþþþþþþþþþþþþþþþþþþþþþþþþþþþþþþþþþþþþþþþþþþþþþþÜ
                                   16455                       Ÿ  Send TCP_CLOSE to get rid of this connection.  Ÿ
                                   16456                       ¾þþþþþþþþþþþþþþþþþþþþþþþþþþþþþþþþþþþþþþþþþþþþþþþþþ»
 002454 9180 A0A1/4710_000A1       16457                       IF    ~PIBFCLOSING,BEGIN  Not already closing...
                                   16472  1                      SEGDEF FEBUSG
 00245C 9680 B0B8      000B8       16473  1                      SET   FEBFCTRL            Segging control info
 002460 4110 80C4/4100_      024B8 16479  1                      SEG   LA:=CL16'TCP_CLOSE:',16
 002472 4110 A0F4/4100_      000F4 16506  1                      SEG   PIBAID              Amelia connection ID
 002484 1B00/41F0 B13C_            16533  1                      SEGWR
 002490 947F B0B8      000B8       16557  1                      CLEAR FEBFCTRL            Reset
                                   16564  1
 002494 9680 A0A1      000A1       16565  1                      SET   PIBFCLOSING         Connection is going away
 002498                            16571                       END
                                   16575
 002498 41D0 D030/982B_      00030 16576                       PEND
 DROP   PIB,R10
 DROP   TPWA,R7
 DROP   FEB,R11
 DROP   *,R8
                                   16611
                                   16612                       SEGDEF DUMMY              (Safety)
                                   16613
                                   16614                       QLTORG
1ELF      (ELF2047) (12:35) (15MAR04) ELF Interface                                                                         Page   70
0Current Usings:  (CV,R12)
0Loc    Object Code    Addr1 Addr2  Stmt Lv Lineno    Source Statement           (Hibal 5, Asmedit 3.3)  HLASM R4.0  2004/03/15 12.35
+___    ______ ____    _____ _____  ____ __ ______    ______ _________
0                                  16643              ¿þþþþþþþþþþþþþþþþþþþþþþþþþþþþþþþþþþþþþþþþþþþþþþþþþþþþþþþþþþþþþþþþþþþþþÜ
                                   16644              Ÿ                                                                     Ÿ
                                   16645              Ÿ  TELDATA -- Routine to handle new telnet style input data.          Ÿ
                                   16646              Ÿ                                                                     Ÿ
                                   16647              Ÿ    On entry:                                                        Ÿ
                                   16648              Ÿ      R1,R0 - new data loc, len                                      Ÿ
                                   16649              Ÿ                                                                     Ÿ
                                                      ¾þþþþþþþþþþþþþþþþþþþþþþþþþþþþþþþþþþþþþþþþþþþþþþþþþþþþþþþþþþþþþþþþþþþþþ»
00024FE 50E0 D044/902B_      00044 16650              TELDATA  PROC
 USING  *,R8
 USING  FEB,R11                    16686                       WITH  FEB,PIB             (Entry assumption)
 USING  PIB,R10
                                   16707                       ¿þþþþþþþþþþþþþþþþþþþþþþþþþþþþþþþþþþþþþþþþþþþþþþþþþÜ
                                   16708                       Ÿ  Buffer input data.                             Ÿ
                                   16709                       Ÿ    (If we have not already buffered too much).  Ÿ
                                   16710                       ¾þþþþþþþþþþþþþþþþþþþþþþþþþþþþþþþþþþþþþþþþþþþþþþþþþ»
 002518 1851                       16711                       LR    R5,R1               Packet ptrs
 00251A 1840                       16712                       LR    R4,R0
                                   16713                       ¿þþþþþþþþþþþþþþþþþþþþþþþþþþþþþþþþþþþþþþþþþþþþþþþþþþþþþþþþþþþþþÜ
                                   16714                       Ÿ  Allocate a buffer large enough for input data plus a bit.  Ÿ
                                   16715                       ¾þþþþþþþþþþþþþþþþþþþþþþþþþþþþþþþþþþþþþþþþþþþþþþþþþþþþþþþþþþþþþ»
 00251C 58F0 A10C            0010C 16716                       L     R15,PIBINSGLENF     Current buffer length
 002520 1AF4                       16717                       AR    R15,R4              New total length
                                   16718
 002522 59F0 A104/47D0_      00104 16719                       IF    (R15,GT,PIBINSGMAXF),BEGIN  Need a bigger buffer...
 00252A 4100 F040            00040 16736  1                      LA    R0,@R15+PIBINX#     New buffer length
 00252E 5400 8140            02648 16737  1                      N     R0,=A(-PIBINX#)     Quantize to PIBINX# bytes
 002532 4110 0024            00024 16738  1                      LA    R1,TELISUBP
 002536 182E                       16739  1                      LR    R2,RAR
 002538 58E0 8144/0DEE       0264C 16740  1                      VCALL NGETCORE            Get the new buffer
 00253E 5000 A104            00104 16744  1                      ST    R0,PIBINSGMAXF      New total length
 002542 1821                       16745  1                      LR    R2,R1               New data ptr
                                   16746  1                      ¿þþþþþþþþþþþþþþþþþþþþþþþþþþþþþþþþþþþþþþþþþþþþþþþþþþþÜ
                                   16747  1                      Ÿ  Copy data from old buffer in to the new buffer.  Ÿ
                                   16748  1                      ¾þþþþþþþþþþþþþþþþþþþþþþþþþþþþþþþþþþþþþþþþþþþþþþþþþþþ»
 002544 D603 A120 A120_00120 00120 16749  1                      IF    (PIBINSGLOC,NZ),BEGIN   We had an old buffer...
 00254E 18E2/58F0 A10C_            16765  2                        MOVEL @R2,L:PIBINSGLOC,L:PIBINSGLENF  Move old buf data
                                   16785  2
 00255C 5810 A120            00120 16786  2                        L     R1,PIBINSGLOC
 002560 58E0 8148/0DEE       02650 16787  2                        VCALL FREECORE            Free old data buffer
 002566                            16791  1                      END
                                   16795  1
 002566 5020 A120            00120 16796  1                      ST    R2,PIBINSGLOC       New buffer ptr
 00256A                            16797                       END
                                   16801                       ¿þþþþþþþþþþþþþþþþþþþþþþþþþþþþþþþþþþþþþþþþþþþþþþÜ
                                   16802                       Ÿ  Process imbedded Telnet control sequences.  Ÿ
                                   16803                       ¾þþþþþþþþþþþþþþþþþþþþþþþþþþþþþþþþþþþþþþþþþþþþþþ»
 00256A 1815/1804                  16804                       SETMSG (R5),(R4)           New data
 00256E 41F0 A100            00100 16816                       LA    R15,PIBINSG         Add new data to this seg buffer
 002572 58E0 814C/0DEE       02654 16817                       ACALL IACCHK              Handle telnet control sequences
1ELF      (ELF2047) (12:35) (15MAR04) ELF Interface                                                                         Page   71
0Current Usings:  (*,R8) (PIB,R10) (FEB,R11) (CV,R12)
0Loc    Object Code    Addr1 Addr2  Stmt Lv Lineno    Source Statement           (Hibal 5, Asmedit 3.3)  HLASM R4.0  2004/03/15 12.35
+___    ______ ____    _____ _____  ____ __ ______    ______ _________
0                                  16821                       ¿þþþþþþþþþþþþþþþþþþþþþþþþþþþþþþþþþþþþþþþþþþþþþþþþþþþþþþþþþþþþþþÜ
                                   16822                       Ÿ  If we have buffered a lot of data then tell Amelia to       Ÿ
                                   16823                       Ÿ    stop sending us new stuff for a while until we catch up.  Ÿ
                                   16824                       ¾þþþþþþþþþþþþþþþþþþþþþþþþþþþþþþþþþþþþþþþþþþþþþþþþþþþþþþþþþþþþþþ»
 002578 D503 8150 A10C_02658 0010C 16825                       IF    (PIBINSGLENF,GE,PIBINHI#),BEGIN  We have lots...
                                   16843  1           *        FAIL  (PIBINSGLENF,GE,PIBINMX#),'Too much input telnet data'
 002582 9120 A0A2/4710_000A2       16844  1                      IF    PIBFINSTOP,EXIT     We are already stopped, scram
 00258A 9620 A0A2      000A2       16862  1                      SET   PIBFINSTOP          We will stop getting new data
                                   16868  1
 00258E 41F0 B13C/58E0_      0013C 16869  1                      SEGCLR FEBUSG
 002598 9680 B0B8      000B8       16882  1                      SET   FEBFCTRL            Segging control info
 00259C 4110 8130/4100_      02638 16888  1                      SEG   LA:=CL16'TCP_STOP:',16
 0025AE 4110 A0F4/4100_      000F4 16915  1                      SEG   PIBAID              Amelia connection ID
 0025C0 1B00/41F0 B13C_            16942  1                      SEGWR
 0025CC 947F B0B8      000B8       16966  1                      CLEAR FEBFCTRL            Reset
 0025D0                            16973                       END
                                   16977                       ¿þþþþþþþþþþþþþþþþþþþþþþþþþþþþþþþþþþþþþþþþþþþþþþþþþþþþþþþþþþÜ
                                   16978                       Ÿ  Check to see if we can now complete the terminal read.  Ÿ
                                   16979                       ¾þþþþþþþþþþþþþþþþþþþþþþþþþþþþþþþþþþþþþþþþþþþþþþþþþþþþþþþþþþ»
 0025D0 9140 A0A1/47E0_000A1       16980                       IF    PIBFREAD,BEGIN      Waiting for read data...
 0025D8 58E0 8160/0DEE       02668 16995  1                      ACALL READCHK             See if this completes read
 0025DE                            16999                       END
                                   17003
 0025DE 41D0 D030/982B_      00030 17004                       PEND
 DROP   PIB,R10
 DROP   FEB,R11
 DROP   *,R8
1ELF      (ELF2047) (12:35) (15MAR04) ELF Interface                                                                         Page   72
0Current Usings:  (CV,R12)
0Loc    Object Code    Addr1 Addr2  Stmt Lv Lineno    Source Statement           (Hibal 5, Asmedit 3.3)  HLASM R4.0  2004/03/15 12.35
+___    ______ ____    _____ _____  ____ __ ______    ______ _________
0                                  17035              ¿þþþþþþþþþþþþþþþþþþþþþþþþþþþþþþþþþþþþþþþþþþþþþþþþþþþþþþþþþþþþþþþþþþþþþÜ
                                   17036              Ÿ                                                                     Ÿ
                                   17037              Ÿ  TELEOF -- Local routine to handle end of file on a Telnet          Ÿ
                                   17038              Ÿ    connection.                                                      Ÿ
                                   17039              Ÿ                                                                     Ÿ
                                                      ¾þþþþþþþþþþþþþþþþþþþþþþþþþþþþþþþþþþþþþþþþþþþþþþþþþþþþþþþþþþþþþþþþþþþþþ»
00025F2 50E0 D044/902B_      00044 17040              TELEOF   PROC
 USING  *,R8
 USING  PIB,R10                    17076                       WITH  PIB                 Entry assumption
                                   17088
 00260C 9620 A0A1      000A1       17089                       SET   PIBFREOF            End of file on input stream
                                   17095                       ¿þþþþþþþþþþþþþþþþþþþþþþþþþþþþþþþþþþþþþþþþþþþþþþþþþþÜ
                                   17096                       Ÿ  See if we can terminate read with end of file.  Ÿ
                                   17097                       ¾þþþþþþþþþþþþþþþþþþþþþþþþþþþþþþþþþþþþþþþþþþþþþþþþþþ»
 002610 9140 A0A1/47E0_000A1       17098                       IF    PIBFREAD,'ACALL READCHK'
 00261E 41D0 D030/982B_      00030 17122                       PEND
 DROP   PIB,R10
 DROP   *,R8
                                   17147
                                   17148                       QLTORG
1ELF      (ELF2047) (12:35) (15MAR04) ELF Interface                                                                         Page   73
0Current Usings:  (CV,R12)
0Loc    Object Code    Addr1 Addr2  Stmt Lv Lineno    Source Statement           (Hibal 5, Asmedit 3.3)  HLASM R4.0  2004/03/15 12.35
+___    ______ ____    _____ _____  ____ __ ______    ______ _________
0                                  17172              ¿þþþþþþþþþþþþþþþþþþþþþþþþþþþþþþþþþþþþþþþþþþþþþþþþþþþþþþþþþþþþþþþþþþþþþÜ
                                   17173              Ÿ                                                                     Ÿ
                                   17174              Ÿ  RCONDATA -- Routine to handle new input data for a reconnect       Ÿ
                                   17175              Ÿ    session.                                                         Ÿ
                                   17176              Ÿ                                                                     Ÿ
                                   17177              Ÿ    On entry:                                                        Ÿ
                                   17178              Ÿ      R1,R0 - new data loc, len                                      Ÿ
                                   17179              Ÿ                                                                     Ÿ
                                                      ¾þþþþþþþþþþþþþþþþþþþþþþþþþþþþþþþþþþþþþþþþþþþþþþþþþþþþþþþþþþþþþþþþþþþþþ»
000266E 50E0 D044/902B_      00044 17180              RCONDATA PROC
 USING  *,R8
 USING  FEB,R11                    17216                       WITH  FEB,PIB             (Entry assumption)
 USING  PIB,R10
                                   17237                       SEGDEF FEBUSG             Default seg buffer
                                   17238                       ¿þþþþþþþþþþþþþþþþþþþþþþþþþþþþþþþþþþþþþþþþþþþþþþþþþþþþþþþþþþþþÜ
                                   17239                       Ÿ  Process the input data looking for "IAC WILL RECONNECT"   Ÿ
                                   17240                       Ÿ    response to our initial "IAC DO RECONNECT".  We ignore  Ÿ
                                   17241                       Ÿ    everything else.                                        Ÿ
                                   17242                       ¾þþþþþþþþþþþþþþþþþþþþþþþþþþþþþþþþþþþþþþþþþþþþþþþþþþþþþþþþþþþþ»
 002688 1851                       17243                       LR    R5,R1               Packet ptrs
 00268A 1840                       17244                       LR    R4,R0
                                   17245
 00268C 1244/47D0 8214             17246                       WHILE (R4,POS),BEGIN      Process input data...
                                   17262  1                      ¿þþþþþþþþþþþþþþþþþþþþþþþþþþþþþþþþþþþþþþþþþÜ
                                   17263  1                      Ÿ  Check for first byte of IAC sequence.  Ÿ
                                   17264  1                      ¾þþþþþþþþþþþþþþþþþþþþþþþþþþþþþþþþþþþþþþþþþ»
 002692 9500 A0A3/4770_000A3       17265  1                      IF    PIBINFDATA,BEGIN    We don't have IAC yet...
 00269A 95FF 5000/4770_00000       17280  2                        IF    (@R5,EQ,$IAC),'SET PIBINFIAC'  We got an IAC
 0026A6 47F0 820A            02882 17308  2                        B     RCDNEXT
 0026AA                            17309  1                      END
                                   17313  1                      ¿þþþþþþþþþþþþþþþþþþþþþþþþþþþþþþþþþþÜ
                                   17314  1                      Ÿ  Check for IAC sequence option.  Ÿ
                                   17315  1                      ¾þþþþþþþþþþþþþþþþþþþþþþþþþþþþþþþþþþ»
 0026AA 9501 A0A3/4770_000A3       17316  1                      IF    PIBINFIAC,BEGIN     We have an IAC...
 0026B2 95FB 5000/4770_00000       17331  2                        IF    (@R5,EQ,$WILL),'SET PIBINFIACWILL'
 0026BE 804A/47F0 8056_026BE 026B8 17359  2                        ELSEIF (@R5,EQ,$WONT),'SET PIBINFIACWONT'
 0026CE 805A/47F0 8066_026CE 026C8 17396  2                        ELSEIF (@R5,EQ,$DO),'SET PIBINFIACDO'
 0026DE 806A/47F0 8076_026DE 026D8 17433  2                        ELSEIF (@R5,EQ,$DONT),'SET PIBINFIACDONT'
 0026EE 807A/47F0 8086_026EE 026E8 17470  2                        ELSEIF (@R5,EQ,X'FF'),'SET PIBINFDATA'
 0026FE 808A/47F0 808E_026FE 026F8 17506  2                        ELSE  'SET PIBINFDATA'    Unknown option
 002706 47F0 820A            02882 17528  2                        B     RCDNEXT
 00270A                            17529  1                      END
                                   17533  1                      ¿þþþþþþþþþþþþþþþþþþþþþþÜ
                                   17534  1                      Ÿ  IAC WILL sequence.  Ÿ
                                   17535  1                      ¾þþþþþþþþþþþþþþþþþþþþþþ»
 00270A 9502 A0A3/4770_000A3       17536  1                      IF    PIBINFIACWILL,BEGIN  IAC WILL sequence...
                                   17551  2                        ¿þþþþþþþþþþþþþþþþþþþþþþþþþþþþþþþþÜ
                                   17552  2                        Ÿ  IAC WILL RECONNECT sequence.  Ÿ
                                   17553  2                        ¾þþþþþþþþþþþþþþþþþþþþþþþþþþþþþþþþ»
 002712 95B4 5000/4770_00000       17554  2                        IF    (@R5,EQ,$RECON),BEGIN  Will reconnect...
 00271A D203 A0E0 8238 000E0 028B0 17571  3                          MVC   PIBTICKMSG,=F'-1'   No message any more
 002720 58F0 A0DC            000DC 17572  3                          L     R15,PIBTICKCUR
 002724 41F0 F00A            0000A 17573  3                          LA    R15,@R15+10
1ELF      (ELF2047) (12:35) (15MAR04) ELF Interface                                                                         Page   74
0Current Usings:  (*,R8) (PIB,R10) (FEB,R11) (CV,R12)
0Loc    Object Code    Addr1 Addr2  Stmt Lv Lineno    Source Statement           (Hibal 5, Asmedit 3.3)  HLASM R4.0  2004/03/15 12.35
+___    ______ ____    _____ _____  ____ __ ______    ______ _________
0002728 50F0 A0E4            000E4 17574  3                          ST    R15,PIBTICKLGF      10 seconds before we close
                                   17575  3
 00272C 5810 A0F8            000F8 17576  3                          L     R1,PIBRIP           Remote IP address
 002730 58E0 823C/0DEE       028B4 17577  3                          ACALL BESTEIB             Get best ELF for us
 002736 4770 8100            02778 17581  3                          IF    Z,BEGIN             No ELFs at all...
 00273A 9640 B0B8      000B8       17592  4                            SET   FEBFASC
 00273E 4110 8256/4100_      028CE 17598  4                            SEG   'No ELF front-ends are currently available.'
 002750 4110 8286/4100_      028FE 17615  4                            SEG   '  Please try again later.'
 002762 4110 8280/4100_      028F8 17632  4                            SEG   X'0D25'             CR,LF (EBCDIC)
 002774 94BF B0B8      000B8       17649  4                            CLEAR FEBFASC
 002778                            17656  3                          END
                                   17660  3
 002778 8104/47F0 8186 02778 02738 17661  3                          ELSE  BEGIN               Use best ELF...
 00277C 183F                       17672  4                            LR    R3,R15
 USING  EIB,R3                     17673  4                            WITH  (EIB,R3)
 00277E 4110 8244/4100_      028BC 17686  4                            SEG   =AL1($IAC,$SB,$RECON,$SBCONN),4
 002790 9640 B0B8      000B8       17715  4                            SET   FEBFASC
 002794 4110 3018/4100_      00018 17721  4                            SEGT  EIBADDRF            EBCDIC formatted IP address
 0027A6 4110 829F/4100_      02917 17749  4                            SEG   ','
 0027B8 5820 302C/1222       0002C 17766  4                            LT    R2,EIBPORT          TCP port number
 0027BE 4780 8158            027D0 17770  4                            IF    NZ,BEGIN            We have a specific port...
 0027C2 1812/1B00/41F0_            17781  5                              SEGDC (R2)                Port number
 0027D0                            17802  4                            END
 0027D0 815C/47F0 8170 027D0 027C0 17806  4                            ELSE  BEGIN               Use our port number...
 0027D4 5820 A0E8            000E8 17817  5                              L     R2,PIBSOCKP
 0027D8 5810 2010/1B00_      00010 17818  5                              WITH  (SOCK,R2),'SEGDC L:SOCKNO'  Our socket number
 USING  SOCK,R2
 DROP   SOCK,R2
 0027E8                            17862  4                            END
 0027E8 94BF B0B8      000B8       17866  4                            CLEAR FEBFASC
 0027EC 4110 8282/4100_      028FA 17873  4                            SEG   =AL1($IAC,$SE),2
 DROP   EIB,R3                     17902  3                          END
 0027FE                            17911  2                        END
                                   17915  2
 0027FE 9200 A0A3      000A3       17916  2                        SET   PIBINFDATA          OK, so they will do something
 002802 47F0 820A            02882 17922  2                        B     RCDNEXT
 002806                            17923  1                      END
                                   17927  1                      ¿þþþþþþþþþþþþþþþþþþþþþþÜ
                                   17928  1                      Ÿ  IAC WONT sequence.  Ÿ
                                   17929  1                      ¾þþþþþþþþþþþþþþþþþþþþþþ»
 002806 9503 A0A3/4770_000A3       17930  1                      IF    PIBINFIACWONT,BEGIN  IAC WONT sequence...
                                   17945  2                        ¿þþþþþþþþþþþþþþþþþþþþþþþþþþþþþþþþÜ
                                   17946  2                        Ÿ  IAC WONT RECONNECT sequence.  Ÿ
                                   17947  2                        ¾þþþþþþþþþþþþþþþþþþþþþþþþþþþþþþþþ»
 00280E 95B4 5000/4770_00000       17948  2                        IF    (@R5,EQ,$RECON),BEGIN  Won't reconnect...
 002816 D703 A0E0 A0E0 000E0 000E0 17965  3                          CLEAR PIBTICKMSG          Force the message to be displayed
 00281C 58F0 A0DC            000DC 17972  3                          L     R15,PIBTICKCUR
 002820 41F0 F00F            0000F 17973  3                          LA    R15,@R15+15
 002824 50F0 A0E4            000E4 17974  3                          ST    R15,PIBTICKLGF      15 seconds before we close
 002828                            17975  2                        END
                                   17979  2
 002828 9200 A0A3      000A3       17980  2                        SET   PIBINFDATA          OK, so they won't do something
 00282C 47F0 820A            02882 17986  2                        B     RCDNEXT
 002830                            17987  1                      END
1ELF      (ELF2047) (12:35) (15MAR04) ELF Interface                                                                         Page   75
0Current Usings:  (*,R8) (PIB,R10) (FEB,R11) (CV,R12)
0Loc    Object Code    Addr1 Addr2  Stmt Lv Lineno    Source Statement           (Hibal 5, Asmedit 3.3)  HLASM R4.0  2004/03/15 12.35
+___    ______ ____    _____ _____  ____ __ ______    ______ _________
0                                  17991  1                      ¿þþþþþþþþþþþþþþþþþþþþþþþþþþþþþþþþþþþþþþþþþþþþþþþþþþþþþþþþþþþþþþÜ
                                   17992  1                      Ÿ  IAC DO sequence.                                            Ÿ
                                   17993  1                      Ÿ    We will reject anything they ask us to do, unless it's    Ÿ
                                   17994  1                      Ÿ    something common like ECHO or SGA -- which we don't care  Ÿ
                                   17995  1                      Ÿ    about one way or the other.                               Ÿ
                                   17996  1                      ¾þþþþþþþþþþþþþþþþþþþþþþþþþþþþþþþþþþþþþþþþþþþþþþþþþþþþþþþþþþþþþþ»
 002830 9504 A0A3/4770_000A3       17997  1                      IF    PIBINFIACDO,BEGIN   IAC DO sequence...
 002838 9501 5000/4780_00000       18012  2                        IF    (@R5,NE,$ECHO),BEGIN  Some unusual IAC DO sequence...
 002840 9503 5000/4780_00000       18029  3                          IF    (@R5,EQ,$SGA),EXIT  Don't complain about DO SGA
                                   18049  3
 002848 4110 8284/4100_      028FC 18050  3                          SEG   =AL1($IAC,$WONT),2
 00285A 1815/4100 0001_            18079  3                          SEG   @R5,1
 00286A                            18108  2                        END
                                   18112  2
 00286A 9200 A0A3      000A3       18113  2                        SET   PIBINFDATA
 00286E 47F0 820A            02882 18119  2                        B     RCDNEXT
 002872                            18120  1                      END
                                   18124  1                      ¿þþþþþþþþþþþþþþþþþþþþþþÜ
                                   18125  1                      Ÿ  IAC DONT sequence.  Ÿ
                                   18126  1                      ¾þþþþþþþþþþþþþþþþþþþþþþ»
 002872 9505 A0A3/4770_000A3       18127  1                      IF    PIBINFIACDONT,BEGIN  IAC DONT sequence...
 00287A 9200 A0A3      000A3       18142  2                        SET   PIBINFDATA          Accept demand
 00287E 47F0 820A            02882 18148  2                        B     RCDNEXT
 002882                            18149  1                      END
                                   18153  1                      ¿þþþþþþþþþþþþþþþþþþþþþþþþþþþþþþþþþþþÜ
                                   18154  1                      Ÿ  Next character in input stream.  Ÿ
                                   18155  1                      ¾þþþþþþþþþþþþþþþþþþþþþþþþþþþþþþþþþþþ»
 002882 4150 5001            00001 18156  1           RCDNEXT    LA    R5,@R5+1            Next character
 002886 0640                       18157  1                      DECR  R4
 002888 47F0 8014            0268C 18159                       END
                                   18164
 00288C 1B00/41F0 B13C_            18165                       SEGWR
                                   18189
 002898 41D0 D030/982B_      00030 18190                       PEND
 DROP   PIB,R10
 DROP   FEB,R11
 DROP   *,R8
                                   18220
                                   18221                       QLTORG
                                   18247
                                   18248                       SEGDEF DUMMY              (Neatness)
1ELF      (ELF2047) (12:35) (15MAR04) ELF Interface                                                                         Page   76
0Current Usings:  (CV,R12)
0Loc    Object Code    Addr1 Addr2  Stmt Lv Lineno    Source Statement           (Hibal 5, Asmedit 3.3)  HLASM R4.0  2004/03/15 12.35
+___    ______ ____    _____ _____  ____ __ ______    ______ _________
0                                  18250              ¿þþþþþþþþþþþþþþþþþþþþþþþþþþþþþþþþþþþþþþþþþþþþþþþþþþþþþþþþþþþþþþþþþþþþþÜ
                                   18251              Ÿ                                                                     Ÿ
                                   18252              Ÿ  RCONEOF -- Local routine to handle end of file on a                Ÿ
                                   18253              Ÿ    re-connect session.                                              Ÿ
                                   18254              Ÿ                                                                     Ÿ
                                                      ¾þþþþþþþþþþþþþþþþþþþþþþþþþþþþþþþþþþþþþþþþþþþþþþþþþþþþþþþþþþþþþþþþþþþþþ»
0002918 50E0 D044/902B_      00044 18255              RCONEOF  PROC
 USING  *,R8
 USING  FEB,R11                    18291                       WITH  FEB,PIB             Entry assumption
 USING  PIB,R10
                                   18312                       ¿þþþþþþþþþþþþþþþþþþþþþþþþþþþþþþþþþþþþþþþþþþþþþÜ
                                   18313                       Ÿ  Tell Amelia to close this TCP connection.  Ÿ
                                   18314                       ¾þþþþþþþþþþþþþþþþþþþþþþþþþþþþþþþþþþþþþþþþþþþþþ»
 002932 41F0 B13C/58E0_      0013C 18315                       SEGCLR FEBUSG
 00293C 9680 B0B8      000B8       18328                       SET   FEBFCTRL            Segging control info
 002940 4110 837E/4100_      02CA0 18334                       SEG   LA:=CL16'TCP_EOF:',16
 002952 4110 A0F4/4100_      000F4 18361                       SEG   PIBAID              Amelia connection ID
 002964 1B00/41F0 B13C_            18388                       SEGWR
 002970 947F B0B8      000B8       18412                       CLEAR FEBFCTRL            Reset
                                   18419
 002974 9680 B0B8      000B8       18420                       SET   FEBFCTRL            Segging control info
 002978 4110 838E/4100_      02CB0 18426                       SEG   LA:=CL16'TCP_CLOSE:',16
 00298A 4110 A0F4/4100_      000F4 18453                       SEG   PIBAID              Amelia connection ID
 00299C 1B00/41F0 B13C_            18480                       SEGWR
 0029A8 947F B0B8      000B8       18504                       CLEAR FEBFCTRL            Reset
                                   18511
 0029AC 9680 A0A1      000A1       18512                       SET   PIBFCLOSING         We are closing the connection
 0029B0 41D0 D030/982B_      00030 18518                       PEND
 DROP   PIB,R10
 DROP   FEB,R11
 DROP   *,R8
1ELF      (ELF2047) (12:35) (15MAR04) ELF Interface                                                                         Page   77
0Current Usings:  (CV,R12)
0Loc    Object Code    Addr1 Addr2  Stmt Lv Lineno    Source Statement           (Hibal 5, Asmedit 3.3)  HLASM R4.0  2004/03/15 12.35
+___    ______ ____    _____ _____  ____ __ ______    ______ _________
0                                  18549              ¿þþþþþþþþþþþþþþþþþþþþþþþþþþþþþþþþþþþþþþþþþþþþþþþþþþþþþþþþþþþþþþþþþþþþþÜ
                                   18550              Ÿ                                                                     Ÿ
                                   18551              Ÿ  RCONTIMR -- Routine to handle reconnect protocol timeouts.         Ÿ
                                   18552              Ÿ    (Entered as a timer exit routine from the dispatcher.)           Ÿ
                                   18553              Ÿ                                                                     Ÿ
                                                      ¾þþþþþþþþþþþþþþþþþþþþþþþþþþþþþþþþþþþþþþþþþþþþþþþþþþþþþþþþþþþþþþþþþþþþþ»
0000000                00000 00028 18554              RTMWA    RECORD BEGIN
 000000                            18562  1           RTMCUR     DS    XL(L'CVCUR)         Saved failsoft information
 000028                00028 00028 18563                       END
                                   18572              þþþþ
 0029C4 50E0 D044/902B_      00044 18573              RCONTIMR PROC  RTMWA
 USING  *,R8
 USING  RTMWA-@@,R13
 0029DE 18A1                       18620                       LR    PIBR,R1
 USING  PIB,R10                    18621                       WITH  PIB
 0029E0 D502 833C A000_02D0A 00000 18633                       FAIL  (PIB,NE,'PIB'),'Bad PIB ptr.'
 0029FA 58B0 A008            00008 18659                       L     FEBR,PIBFEBP        Get FEB ptr
 USING  FEB,R11                    18660                       WITH  FEB
                                   18672
 0029FE 41F0 B13C/58E0_      0013C 18673                       SEGCLR FEBUSG             Default seg buffer
                                   18686
 002A08 D227 D04C C750 00000 00750 18687                       MVC   RTMCUR,CVCUR        Save current failsoft info
 002A0E 50B0 C750            00750 18688                       ST    FEBR,CVCURFEB       Save current fe
 002A12 50A0 C754            00754 18689                       ST    PIBR,CVCURPIB       Save current port
                                   18690
 002A16 D703 A0D8 A0D8 000D8 000D8 18691                       CLEAR PIBTIMERID          Reset our timer ID
 002A1C 4150 0001/5E50_      00001 18698                       INCR  R5,PIBTICKCUR       Count one more second
                                   18704
 002A28 9180 A0A1/4710_000A1       18705                       IF    PIBFCLOSING,RCTMEXIT  Closing, forget it
                                   18723                       ¿þþþþþþþþþþþþþþþþþþþþþþþþþþþþþþþþþþþþþþþþþþþþþþþþþþþþþþþÜ
                                   18724                       Ÿ  Write out an information message when the automatic  Ÿ
                                   18725                       Ÿ    reconnect doesn't work.                            Ÿ
                                   18726                       ¾þþþþþþþþþþþþþþþþþþþþþþþþþþþþþþþþþþþþþþþþþþþþþþþþþþþþþþþ»
 002A30 5550 A0E0/47D0_      000E0 18727                       IF    (R5,LGT,PIBTICKMSG),BEGIN  Time for a message...
 002A38 5860 A0E8            000E8 18744  1                      L     R6,PIBSOCKP         Our SOCK ptr
 USING  SOCK,R6                    18745  1                      WITH  (SOCK,R6)
 002A3C D503 830E 6000_02CDC 00000 18758  1                      FAIL  (SOCK,NE,'SOCK'),'Bad SOCK ptr.'
                                   18784  1
 002A56 D601 60F6 60F6_000F6 000F6 18785  1                      IF    (SOCKMSGL,NZ),BEGIN  Write out any messages now...
 002A60 41F0 B13C/58E0_      0013C 18801  2                        SEGCLR FEBUSG
 002A6A 9640 B0B8      000B8       18814  2                        SET   FEBFASC
 002A6E 5810 60F8/4800_      000F8 18820  2                        SEG   L:SOCKMSGP,LH:SOCKMSGL  Message text (if any)
 002A80 4110 833A/4100_      02D08 18844  2                        SEG   X'0D25'             CR,LF (EBCDIC)
 002A92 94BF B0B8      000B8       18861  2                        CLEAR FEBFASC
 002A96 1B00/41F0 B13C_            18868  2                        SEGWR
 002AA2                            18892  1                      END
                                   18896  1
 002AA2 D203 A0E0 8312 000E0 02CE0 18897  1                      MVC   PIBTICKMSG,=F'-1'   Never again
 002AA8 47F0 816A            02B38 18898  1                      B     RCTMREST            Restart timer and scram
 DROP   SOCK,R6                    18899                       END
1ELF      (ELF2047) (12:35) (15MAR04) ELF Interface                                                                         Page   78
0Current Usings:  (*,R8) (PIB,R10) (FEB,R11) (CV,R12) (RTMWA-@@,R13)
0Loc    Object Code    Addr1 Addr2  Stmt Lv Lineno    Source Statement           (Hibal 5, Asmedit 3.3)  HLASM R4.0  2004/03/15 12.35
+___    ______ ____    _____ _____  ____ __ ______    ______ _________
0                                  18908                       ¿þþþþþþþþþþþþþþþþþþþþþþþþþþþþþþþþÜ
                                   18909                       Ÿ  Time to disconnect this guy.  Ÿ
                                   18910                       ¾þþþþþþþþþþþþþþþþþþþþþþþþþþþþþþþþ»
 002AAC 5550 A0E4/47D0_      000E4 18911                       IF    (R5,LGT,PIBTICKLGF),BEGIN  Time to disconnect...
 002AB4 5810 A00C/1211       0000C 18928  1                      LT    R1,PIBSCBP
 002ABA 4780 80F6/58E0_      02AC4 18932  1                      IF    NZ,'VCALL DISCSESS'  Disconnect session
                                   18952  1
 002AC4 9680 B0B8      000B8       18953  1                      SET   FEBFCTRL            Segging control sequence
 002AC8 4110 82F2/4100_      02CC0 18959  1                      SEG   LA:=CL16'TCP_ABORT:',16
 002ADA 4110 A0F4/4100_      000F4 18986  1                      SEG   PIBAID              Amelia connection ID
 002AEC 1B00/41F0 B13C_            19013  1                      SEGWR
 002AF8 947F B0B8      000B8       19037  1                      CLEAR FEBFCTRL            Reset
                                   19044  1
 002AFC 9680 B0B8      000B8       19045  1                      SET   FEBFCTRL            Segging control sequence
 002B00 4110 82E2/4100_      02CB0 19051  1                      SEG   LA:=CL16'TCP_CLOSE:',16
 002B12 4110 A0F4/4100_      000F4 19078  1                      SEG   PIBAID              Amelia connection ID
 002B24 1B00/41F0 B13C_            19105  1                      SEGWR
 002B30 947F B0B8      000B8       19129  1                      CLEAR FEBFCTRL            Reset
                                   19136  1
 002B34 9680 A0A1      000A1       19137  1                      SET   PIBFCLOSING         Connection is closing
 002B38                            19143                       END
                                   19147                       ¿þþþþþþþþþþþþþþþþþþÜ
                                   19148                       Ÿ  Restart timer.  Ÿ
                                   19149                       ¾þþþþþþþþþþþþþþþþþþ»
 002B38 5800 831A            02CE8 19150              RCTMREST L     R0,=A(RCONTIMR)
 002B3C 4110 A000            00000 19151                       LA    R1,PIB
 002B40 41F0 0064            00064 19152                       LA    R15,100             1 second interval
 002B44 58E0 831E/0DEE       02CEC 19153                       VCALL TIMERQ
 002B4A 50F0 A0D8            000D8 19157                       ST    R15,PIBTIMERID      Save our timer ID
                                   19158
 002B4E D227 C750 D04C 00750 00000 19159              RCTMEXIT MVC   CVCUR,RTMCUR        Restore failsoft info
 002B54 41D0 D058/982B_      00058 19160                       PEND
 DROP   FEB,R11
 DROP   PIB,R10
 DROP   RTMWA-@@,R13
 DROP   *,R8
                                   19196
                                   19197                       SEGDEF DUMMY              (Neatness)
1ELF      (ELF2047) (12:35) (15MAR04) ELF Interface                                                                         Page   79
0Current Usings:  (CV,R12)
0Loc    Object Code    Addr1 Addr2  Stmt Lv Lineno    Source Statement           (Hibal 5, Asmedit 3.3)  HLASM R4.0  2004/03/15 12.35
+___    ______ ____    _____ _____  ____ __ ______    ______ _________
0                                  19199              ¿þþþþþþþþþþþþþþþþþþþþþþþþþþþþþþþþþþþþþþþþþþþþþþþþþþþþþþþþþþþþþþþþþþþþþÜ
                                   19200              Ÿ                                                                     Ÿ
                                   19201              Ÿ  ELFDATA -- Routine to handle new ELF style input data.             Ÿ
                                   19202              Ÿ                                                                     Ÿ
                                   19203              Ÿ    On entry:                                                        Ÿ
                                   19204              Ÿ      R1,R0 - new data loc, len                                      Ÿ
                                   19205              Ÿ                                                                     Ÿ
                                                      ¾þþþþþþþþþþþþþþþþþþþþþþþþþþþþþþþþþþþþþþþþþþþþþþþþþþþþþþþþþþþþþþþþþþþþþ»
0002B68 50E0 D044/902B_      00044 19206              ELFDATA  PROC  ,
 USING  *,R8
 USING  FEB,R11                    19242                       WITH  FEB,PIB             (Entry assumption)
 USING  PIB,R10
                                   19263                       ¿þþþþþþþþþþþþþþþþþþþþþþþþþþþþþþþþþþþþþþþþþþþþþþþþþÜ
                                   19264                       Ÿ  Buffer input data.                             Ÿ
                                   19265                       Ÿ    (If we have not already buffered too much).  Ÿ
                                   19266                       ¾þþþþþþþþþþþþþþþþþþþþþþþþþþþþþþþþþþþþþþþþþþþþþþþþþ»
 002B82 1851                       19267                       LR    R5,R1               Packet ptrs
 002B84 1840                       19268                       LR    R4,R0
                                   19269                       ¿þþþþþþþþþþþþþþþþþþþþþþþþþþþþþþþþþþþþþþþþþþþþþþþþþþþþþþþþþþþþþÜ
                                   19270                       Ÿ  Allocate a buffer large enough for input data plus a bit.  Ÿ
                                   19271                       ¾þþþþþþþþþþþþþþþþþþþþþþþþþþþþþþþþþþþþþþþþþþþþþþþþþþþþþþþþþþþþþ»
 002B86 58F0 A10C            0010C 19272                       L     R15,PIBINSGLENF     Current buffer length
 002B8A 1AF4                       19273                       AR    R15,R4              New total length
                                   19274
 002B8C 59F0 A104/47D0_      00104 19275                       IF    (R15,GT,PIBINSGMAXF),BEGIN  Need a bigger buffer...
 002B94 4100 F040            00040 19292  1                      LA    R0,@R15+PIBINX#     New buffer length
 002B98 5400 817E            02CF0 19293  1                      N     R0,=A(-PIBINX#)     Quantize to PIBINX# bytes
 002B9C 4110 0025            00025 19294  1                      LA    R1,EPIBSUBP
 002BA0 182E                       19295  1                      LR    R2,RAR
 002BA2 58E0 8182/0DEE       02CF4 19296  1                      VCALL NGETCORE            Get the new buffer
 002BA8 5000 A104            00104 19300  1                      ST    R0,PIBINSGMAXF      New total length
 002BAC 1821                       19301  1                      LR    R2,R1               New data ptr
                                   19302  1                      ¿þþþþþþþþþþþþþþþþþþþþþþþþþþþþþþþþþþþþþþþþþþþþþþþþþþþÜ
                                   19303  1                      Ÿ  Copy data from old buffer in to the new buffer.  Ÿ
                                   19304  1                      ¾þþþþþþþþþþþþþþþþþþþþþþþþþþþþþþþþþþþþþþþþþþþþþþþþþþþ»
 002BAE D603 A120 A120_00120 00120 19305  1                      IF    (PIBINSGLOC,NZ),BEGIN   We had an old buffer...
 002BB8 18E2/58F0 A10C_            19321  2                        MOVEL @R2,L:PIBINSGLOC,L:PIBINSGLENF  Move old buf data
                                   19341  2
 002BC6 5810 A120            00120 19342  2                        L     R1,PIBINSGLOC
 002BCA 58E0 8186/0DEE       02CF8 19343  2                        VCALL FREECORE            Free old data buffer
 002BD0                            19347  1                      END
                                   19351  1
 002BD0 5020 A120            00120 19352  1                      ST    R2,PIBINSGLOC       New buffer ptr
 002BD4                            19353                       END
                                   19357
 002BD4 1815/1804/41F0_            19358                       SEG   (R5),(R4),.PIBINSG  Add new data to buffer
                                   19383                       ¿þþþþþþþþþþþþþþþþþþþþþþþþþþþþþÜ
                                   19384                       Ÿ  Check out the ELF header.  Ÿ
                                   19385                       ¾þþþþþþþþþþþþþþþþþþþþþþþþþþþþþ»
 002BE2 D503 818A A10C_02CFC 0010C 19386                       WHILE (PIBINSGLENF,GE,L'HDR),BEGIN  Do while headers...
 002BEC 5850 A120            00120 19405  1                      L     R5,PIBINSGLOC
 USING  HDR,R5                     19406  1                      WITH  (HDR,R5)
                                   19419  1
1ELF      (ELF2047) (12:35) (15MAR04) ELF Interface                                                                         Page   80
0Current Usings:  (HDR,R5) (*,R8) (PIB,R10) (FEB,R11) (CV,R12)
0Loc    Object Code    Addr1 Addr2  Stmt Lv Lineno    Source Statement           (Hibal 5, Asmedit 3.3)  HLASM R4.0  2004/03/15 12.35
+___    ______ ____    _____ _____  ____ __ ______    ______ _________
0002BF0 D503 818E 5000_02D00 00000 19420  1                      IF    (HDRID,NE,'ELF0'),'LCALL ELFERROR; B ELFDEXIT'
                                   19445  1
 002C02 4120 0014            00014 19446  1                      LA    R2,L'HDR
 002C06 4A20 5012            00012 19447  1                      AH    R2,HDRLEN           Total header length
                                   19448  1                      ¿þþþþþþþþþþþþþþþþþþþþþþþþþþþþþþþþþþþþþþþþþþþþþþþþþþþþþþÜ
                                   19449  1                      Ÿ  We have a complete ELF packet, process it and then  Ÿ
                                   19450  1                      Ÿ    delete it from our buffer.                        Ÿ
                                   19451  1                      ¾þþþþþþþþþþþþþþþþþþþþþþþþþþþþþþþþþþþþþþþþþþþþþþþþþþþþþþ»
 002C0A 5920 A10C/4720_      0010C 19452  1                      IF    (PIBINSGLENF,LT,R2),ELFDEXIT  Not complete, scram
                                   19472  1
 002C12 4110 5000            00000 19473  1                      LA    R1,HDR
 002C16 4DE0 819C            02D0E 19474  1                      LCALL ELFPROC             Process input ELF transaction
 002C1A 4770 811A            02C8C 19476  1                      BNZ   ELFDEXIT            Something bad happened, scram
                                   19477  1
 002C1E 5920 A10C/4750_      0010C 19478  1                      IF    (R2,GE,PIBINSGLENF),BEGIN  Everything processed...
 002C26 5810 A120/1211       00120 19495  2                        LT    R1,PIBINSGLOC
 002C2C 4770 80E0/FEDC_      02C52 19499  2                        FAIL  Z,'Telnet ELFDATA buffer problem.'
 002C52 58E0 8186/0DEE       02CF8 19519  2                        VCALL FREECORE            Free input buffer
 002C58 D703 A10C A10C_0010C 0010C 19523  2                        CLEAR PIBINSGLENF,PIBINSGMAXF,PIBINSGLOC
 002C6A                            19540  1                      END
                                   19544  1
 002C6A 80FC/47F0 8116 02C6A 02C24 19545  1                      ELSE  BEGIN               Move residual read text up...
 002C6E 5860 A120            00120 19556  2                        L     R6,PIBINSGLOC       Start of buffer
 002C72 5850 A10C            0010C 19557  2                        L     R5,PIBINSGLENF      Data length
 002C76 1B52                       19558  2                        SR    R5,R2               Deduct data we are deleting
 002C78 1A26                       19559  2                        AR    R2,R6               Data we want to keep starts here
 002C7A 18E6/18F5/1802_            19560  2                        MOVEL @R6,@R2,(R5)        Move data over (delete old text)
 002C84 5050 A10C            0010C 19582  2                        ST    R5,PIBINSGLENF      Save updated data length
 002C88                            19583  1                      END
 002C88 47F0 8070            02BE2 19587                       END
 DROP   HDR,R5
                                   19597
 002C8C 41D0 D030/982B_      00030 19598              ELFDEXIT PEND
 DROP   PIB,R10
 DROP   FEB,R11
 DROP   *,R8
                                   19629
                                   19630                       QLTORG
1ELF      (ELF2047) (12:35) (15MAR04) ELF Interface                                                                         Page   81
0Current Usings:  (CV,R12)
0Loc    Object Code    Addr1 Addr2  Stmt Lv Lineno    Source Statement           (Hibal 5, Asmedit 3.3)  HLASM R4.0  2004/03/15 12.35
+___    ______ ____    _____ _____  ____ __ ______    ______ _________
0                                  19663              ¿þþþþþþþþþþþþþþþþþþþþþþþþþþþþþþþþþþþþþþþþþþþþþþþþþþþþþþþþþþþþþþþþþþþþþÜ
                                   19664              Ÿ                                                                     Ÿ
                                   19665              Ÿ  ELFPROC -- Routine to process an incoming ELF packet.              Ÿ
                                   19666              Ÿ                                                                     Ÿ
                                   19667              Ÿ    On entry:                                                        Ÿ
                                   19668              Ÿ      R1 - HDR with data                                             Ÿ
                                   19669              Ÿ                                                                     Ÿ
                                   19670              Ÿ    On exit, R15 (and cc):                                           Ÿ
                                   19671              Ÿ      0 - processed OK                                               Ÿ
                                   19672              Ÿ      4 - error (careful--the PIB will be freed on return)           Ÿ
                                   19673              Ÿ                                                                     Ÿ
                                                      ¾þþþþþþþþþþþþþþþþþþþþþþþþþþþþþþþþþþþþþþþþþþþþþþþþþþþþþþþþþþþþþþþþþþþþþ»
0002D0E 50E0 D044/902B_      00044 19674              ELFPROC  PROC
 USING  *,R8
 USING  FEB,R11                    19710                       WITH  FEB,PIB             (Entry assumptions)
 USING  PIB,R10
 002D28 5890 A00C            0000C 19731                       L     SCBR,PIBSCBP
 USING  SCB,R9                     19732                       WITH  SCB
                                   19744
 002D2C 1861                       19745                       LR    R6,R1
 USING  HDR,R6                     19746                       WITH  (HDR,R6)
                                   19759
 002D2E 5870 C060            00060 19760                       L     R7,CVPDBP
 USING  PDB,R7                     19761                       WITH  (PDB,R7)
 002D32 D737 7000 7000 00000 00000 19774                       CLEAR PDBHDR
                                   19781              *
                                   19782                       ¿þþþþþþþþþþþþþþþþþþþþþþþÜ
                                   19783                       Ÿ  Must be a response.  Ÿ
                                   19784                       ¾þþþþþþþþþþþþþþþþþþþþþþþ»
                                   19785              *CHAZBUG!IF    (HDRTYPE,NE,'<'),'LCALL ELFERROR; B ELFPEXIT'
                                   19786                       ¿þþþþþþþþþþþþþþþþþþþþþþþþþþþÜ
                                   19787                       Ÿ  Allocate a new session.  Ÿ
                                   19788                       ¾þþþþþþþþþþþþþþþþþþþþþþþþþþþ»
 002D38 1299/4770 8046             19789                       IF    (SCBR,Z),BEGIN      No session yet...
 002D3E 95E2 6005/4780_00005       19803  1                      IF    (HDRCMD,NE,HDRFSOS),'LCALL ELFERROR; B ELFPEXIT'
 002D4E 4110 A000            00000 19829  1                      LA    R1,PIB
 002D52 4100 01B2            001B2 19830  1                      LA    R0,L'SCB
 002D56 58E0 8230/0DEE       02F48 19831  1                      VCALL GETSCB              Get a session
 002D5C 1891                       19835  1                      LR    SCBR,R1
                                   19836  1                      WITH  SCB
 002D5E                            19839                       END
                                   19843                       ¿þþþþþþþþþþþþþþþþþþþþþþþþþþþþþþþþþþÜ
                                   19844                       Ÿ  Check out header command code.  Ÿ
                                   19845                       ¾þþþþþþþþþþþþþþþþþþþþþþþþþþþþþþþþþþ»
 002D5E 95D9 6005/4770_00005       19846                       IF    (HDRCMD,EQ,HDRFRD),'MVI PDBCMD,FMILREAD'
 002D6A 8056/47F0 8062_02D6A 02D64 19870                       ELSEIF (HDRCMD,EQ,HDRFWR),'MVI PDBCMD,FMILWRIT'
 002D7A 8066/47F0 8072_02D7A 02D74 19903                       ELSEIF (HDRCMD,EQ,HDRFSOS),'MVI PDBCMD,FMILSOS'
 002D8A 8076/47F0 8086_02D8A 02D84 19936                       ELSEIF (HDRCMD,EQ,HDRFHALT),BEGIN
 002D96 9250 7006      00006       19963  1                      MVI   PDBCMD,FMILASYN     Asynchronous status
 002D9A 9620 700D      0000D       19964  1                      SET   PDBCPLB.CPLBIA      Idle attn
 002D9E                            19971                       END
 002D9E 808A/47F0 8092_02D9E 02D94 19975                       ELSE  'LCALL ELFERROR; B ELFPEXIT'
                                   19994
1ELF      (ELF2047) (12:35) (15MAR04) ELF Interface                                                                         Page   82
0Current Usings:  (HDR,R6) (PDB,R7) (*,R8) (SCB,R9) (PIB,R10) (FEB,R11) (CV,R12)
0Loc    Object Code    Addr1 Addr2  Stmt Lv Lineno    Source Statement           (Hibal 5, Asmedit 3.3)  HLASM R4.0  2004/03/15 12.35
+___    ______ ____    _____ _____  ____ __ ______    ______ _________
0002DAA 95C1 6006/4770_00006       19995                       IF    (HDRCPL,EQ,HDRRATTN),'SET PDBCPLA.CPLAATTN'
 002DB6 80A2/47F0 80AE_02DB6 02DB0 20025                       ELSEIF (HDRCPL,EQ,HDRRHALT),'SET PDBCPLA.CPLABRK'
 002DC6 80B2/47F0 80BE_02DC6 02DC0 20064                       ELSEIF (HDRCPL,EQ,HDRRERR),'SET PDBCPLA.CPLAIOE'
                                   20103
 002DD6 4820 6012            00012 20104                       LH    R2,HDRLEN
 002DDA 41E0 7038/18F2_      00038 20105                       MOVEL PDBTEXT,HDRTEXT,(R2)  Move data in to PDB
 002DE8 4020 7036            00036 20127                       STH   R2,PDBRC            Save input text count
                                   20128
 002DEC 95E2 6005/4770_00005       20129                       IF    (HDRCMD,EQ,HDRFSOS),BEGIN  Start of session...
 002DF4 41F0 7000            00000 20147  1                      LA    R15,PDB
 002DF8 58E0 8234/0DEE       02F4C 20148  1                      ACALL ELFSPARM            Process ELF signon parms
                                   20152  1
 002DFE 9602 9168      00168       20153  1                      SET   SCBFFILT
 002E02 D201 9188 824E 00188 02F66 20159  1                      MVC   SCBWID,=H'80'       Width
 002E08 D201 90FD 8250 000FD 02F68 20160  1                      MVC   SCBTINFO,=X'8188'   Ttype info is faked
 002E0E D207 918E A0A4 0018E 000A4 20161  1                      MVC   SCBTTYPE,PIBTTYPE   Preset terminal type
 002E14 D203 9198 A0FC 00198 000FC 20162  1                      MVC   SCBIPADR,PIBTELIP   Copy in IP address
 002E1A                            20163                       END
                                   20167
 002E1A 4120 0038            00038 20168                       LA    R2,L'PDBHDR
 002E1E 4A20 7036            00036 20169                       AH    R2,PDBRC
 002E22 4020 7000            00000 20170                       STH   R2,PDBLENG          Total PDB length
                                   20171                       ¿þþþþþþþþþþþþþþþþþþþþþþþþþþþþþþþþþþþþÜ
                                   20172                       Ÿ  Send response text to subsystem.  Ÿ
                                   20173                       ¾þþþþþþþþþþþþþþþþþþþþþþþþþþþþþþþþþþþþ»
 002E26 4110 B09C/4DE0_      0009C 20174                       XTRACE FEBTRCP,TERMRCMP   Trace read completion
 USING  TTRC,R15                   20185                       WITH  (TTRC,R15),BEGIN
 002E34 D207 F010 A034 00010 00034 20199  1                      MVC   TTRCPNAM,PIBNAME
 002E3A D203 F018 90F4 00018 000F4 20200  1                      MVC   TTRCSID,SCBID
 002E40 D204 F01C 9124 0001C 00124 20201  1                      MVC   TTRCSACC,SCBACCT
 002E46 D200 F021 7006 00021 00006 20202  1                      MVC   TTRCCMD,PDBCMD
 002E4C D201 F024 7000 00024 00000 20203  1                      MVC   TTRCTLEN,PDBLENG
 002E52 D213 F026 7038 00026 00038 20204  1                      MVC   TTRCTEXT,PDBTEXT
 DROP   TTRC,R15                   20205                       END
                                   20213
 002E58 4110 A090/4DE0_      00090 20214                       XTRACE PIBTRCP
 USING  TTRCP,R15                  20224                       WITH  (TTRCP,R15),BEGIN
 002E60 92C6 F007      00007       20238  1                      MVI   TTRCPTYP,C'F'       F = FROMAMY
 002E64 D200 F008 7006 00008 00006 20239  1                      MVC   TTRCPCMD,PDBCMD
 002E6A D201 F00A 700C 0000A 0000C 20240  1                      MVC   TTRCPCPL,PDBCPL
 002E70 D201 F00C 7000 0000C 00000 20241  1                      MVC   TTRCPLEN,PDBLENG
 DROP   TTRCP,R15                  20242                       END
                                   20250
 002E76 4110 9000            00000 20251                       LA    R1,SCB
 002E7A 41F0 7000            00000 20252                       LA    R15,PDB
 002E7E 9540 7006/4770_00006       20253                       IF    (PDBCMD,EQ,FMILSOS),'VCALL SUBSTART'
 002E8C 8178/47F0 817E_02E8C 02E84 20280                       ELSE  'VCALL SUBSEND'
                                   20300
 002E96 1BFF                       20301                       CLEAR R15                 A-ok
 002E98 41D0 D030/982B_      00030 20305              ELFPEXIT PEND
 DROP   PDB,R7
 DROP   HDR,R6
 DROP   SCB,R9
 DROP   PIB,R10
1ELF      (ELF2047) (12:35) (15MAR04) ELF Interface                                                                         Page   83
0Current Usings:  (CV,R12)
0Loc    Object Code    Addr1 Addr2  Stmt Lv Lineno    Source Statement           (Hibal 5, Asmedit 3.3)  HLASM R4.0  2004/03/15 12.35
+___    ______ ____    _____ _____  ____ __ ______    ______ _________
0DROP   FEB,R11
 DROP   *,R8
1ELF      (ELF2047) (12:35) (15MAR04) ELF Interface                                                                         Page   84
0Current Usings:  (CV,R12)
0Loc    Object Code    Addr1 Addr2  Stmt Lv Lineno    Source Statement           (Hibal 5, Asmedit 3.3)  HLASM R4.0  2004/03/15 12.35
+___    ______ ____    _____ _____  ____ __ ______    ______ _________
0                                  20352              ¿þþþþþþþþþþþþþþþþþþþþþþþþþþþþþþþþþþþþþþþþþþþþþþþþþþþþþþþþþþþþþþþþþþþþþÜ
                                   20353              Ÿ                                                                     Ÿ
                                   20354              Ÿ  ELFEOF -- Local routine to handle an end of file on an ELF         Ÿ
                                   20355              Ÿ    connection.                                                      Ÿ
                                   20356              Ÿ                                                                     Ÿ
                                                      ¾þþþþþþþþþþþþþþþþþþþþþþþþþþþþþþþþþþþþþþþþþþþþþþþþþþþþþþþþþþþþþþþþþþþþþ»
0002EAC 50E0 D044/902B_      00044 20357              ELFEOF   PROC
 USING  *,R8
 USING  FEB,R11                    20393                       WITH  FEB,PIB             Entry assumption
 USING  PIB,R10
                                   20414                       ¿þþþþþþþþþþþþþþþþþþþþþþþþþþþþþþþþþþþþþþþþþþþþþþþþþþþÜ
                                   20415                       Ÿ  Disconnect session.                              Ÿ
                                   20416                       Ÿ    Subsystem will eventually logoff the session.  Ÿ
                                   20417                       ¾þþþþþþþþþþþþþþþþþþþþþþþþþþþþþþþþþþþþþþþþþþþþþþþþþþþ»
 002EC6 5810 A00C/1211       0000C 20418                       LT    R1,PIBSCBP
 002ECC 4780 8020/58E0_      02ED6 20422                       IF    NZ,'VCALL DISCSESS'  Disconnect session
                                   20442                       ¿þþþþþþþþþþþþþþþþþþþþþþþþþþþþþþþþþþþþþþþþþþþþþþþþÜ
                                   20443                       Ÿ  Tell Amelia that this connection is history.  Ÿ
                                   20444                       ¾þþþþþþþþþþþþþþþþþþþþþþþþþþþþþþþþþþþþþþþþþþþþþþþþ»
 002ED6 9180 A0A1/4710_000A1       20445                       IF    ~PIBFCLOSING,BEGIN  Only send one close...
                                   20460  1                      SEGDEF FEBUSG
 002EDE 9680 B0B8      000B8       20461  1                      SET   FEBFCTRL            Segging control sequence
 002EE2 4110 8082/4100_      02F38 20467  1                      SEG   LA:=CL16'TCP_CLOSE:',16
 002EF4 4110 A0F4/4100_      000F4 20494  1                      SEG   PIBAID              Amelia connection ID
 002F06 1B00/41F0 B13C_            20521  1                      SEGWR
 002F12 947F B0B8      000B8       20545  1                      CLEAR FEBFCTRL            Reset
                                   20552  1
 002F16 9680 A0A1      000A1       20553  1                      SET   PIBFCLOSING         Connection is going away
 002F1A                            20559                       END
                                   20563
 002F1A 41D0 D030/982B_      00030 20564                       PEND
 DROP   PIB,R10
 DROP   FEB,R11
 DROP   *,R8
                                   20594
                                   20595                       QLTORG
1ELF      (ELF2047) (12:35) (15MAR04) ELF Interface                                                                         Page   85
0Current Usings:  (CV,R12)
0Loc    Object Code    Addr1 Addr2  Stmt Lv Lineno    Source Statement           (Hibal 5, Asmedit 3.3)  HLASM R4.0  2004/03/15 12.35
+___    ______ ____    _____ _____  ____ __ ______    ______ _________
0                                  20620              ¿þþþþþþþþþþþþþþþþþþþþþþþþþþþþþþþþþþþþþþþþþþþþþþþþþþþþþþþþþþþþþþþþþþþþþÜ
                                   20621              Ÿ                                                                     Ÿ
                                   20622              Ÿ  ELFERROR -- Routine to handle an ELF protocol error; right         Ÿ
                                   20623              Ÿ    now this means closing the connection.                           Ÿ
                                   20624              Ÿ                                                                     Ÿ
                                   20625              Ÿ    On exit, R15 (and cc):                                           Ÿ
                                   20626              Ÿ      4 - port has been freed (ELFPROC returns this RC)              Ÿ
                                   20627              Ÿ                                                                     Ÿ
                                                      ¾þþþþþþþþþþþþþþþþþþþþþþþþþþþþþþþþþþþþþþþþþþþþþþþþþþþþþþþþþþþþþþþþþþþþþ»
0002F6A 50E0 D044/902B_      00044 20628              ELFERROR PROC
 USING  *,R8
 USING  FEB,R11                    20664                       WITH  FEB,PIB             (Entry assumptions)
 USING  PIB,R10
                                   20685                       ¿þþþþþþþþþþþþþþþþþþþþþþþþþþþþþþþþþþþþþþþþþþþþþþþþþþþÜ
                                   20686                       Ÿ  Disconnect session.                              Ÿ
                                   20687                       Ÿ    Subsystem will eventually logoff the session.  Ÿ
                                   20688                       ¾þþþþþþþþþþþþþþþþþþþþþþþþþþþþþþþþþþþþþþþþþþþþþþþþþþþ»
 002F84 5810 A00C/1211       0000C 20689                       LT    R1,PIBSCBP
 002F8A 4780 8020/58E0_      02F94 20693                       IF    NZ,'VCALL DISCSESS'  Disconnect session
                                   20713                       ¿þþþþþþþþþþþþþþþþþþþþþþþþþþþþþþþþþþþþþþþþþþþþþþþþÜ
                                   20714                       Ÿ  Tell Amelia that this connection is history.  Ÿ
                                   20715                       ¾þþþþþþþþþþþþþþþþþþþþþþþþþþþþþþþþþþþþþþþþþþþþþþþþ»
                                   20716                       SEGDEF FEBUSG
 002F94 9680 B0B8      000B8       20717                       SET   FEBFCTRL            Segging control sequence
 002F98 4110 8A2C/4100_      039A0 20723                       SEG   LA:=CL16'TCP_ABORT:',16
 002FAA 4110 A0F4/4100_      000F4 20750                       SEG   PIBAID              Amelia connection ID
 002FBC 1B00/41F0 B13C_            20777                       SEGWR
 002FC8 947F B0B8      000B8       20801                       CLEAR FEBFCTRL            Reset
                                   20808
 002FCC 9680 B0B8      000B8       20809                       SET   FEBFCTRL            Segging control sequence
 002FD0 4110 8A3C/4100_      039B0 20815                       SEG   LA:=CL16'TCP_CLOSE:',16
 002FE2 4110 A0F4/4100_      000F4 20842                       SEG   PIBAID              Amelia connection ID
 002FF4 1B00/41F0 B13C_            20869                       SEGWR
 003000 947F B0B8      000B8       20893                       CLEAR FEBFCTRL            Reset
                                   20900
 003004 9680 A0A1      000A1       20901                       SET   PIBFCLOSING         Connection is closing
                                   20907
 003008 41F0 0004            00004 20908                       LA    R15,4               Return "port freed" rc
 00300C 41D0 D030/982B_      00030 20909                       PEND
 DROP   PIB,R10
 DROP   FEB,R11
 DROP   *,R8
                                   20939
                                   20940                       SEGDEF DUMMY              (Safety)
1ELF      (ELF2047) (12:35) (15MAR04) ELF Interface                                                                         Page   86
0Current Usings:  (CV,R12)
0Loc    Object Code    Addr1 Addr2  Stmt Lv Lineno    Source Statement           (Hibal 5, Asmedit 3.3)  HLASM R4.0  2004/03/15 12.35
+___    ______ ____    _____ _____  ____ __ ______    ______ _________
0                                  20942              ¿þþþþþþþþþþþþþþþþþþþþþþþþþþþþþþþþþþþþþþþþþþþþþþþþþþþþþþþþþþþþþþþþþþþþþÜ
                                   20943              Ÿ                                                                     Ÿ
                                   20944              Ÿ  ELFSPARM -- Routine to process the start of session parameters     Ÿ
                                   20945              Ÿ    sent by the ELF.                                                 Ÿ
                                   20946              Ÿ                                                                     Ÿ
                                   20947              Ÿ    On entry:                                                        Ÿ
                                   20948              Ÿ      R15 - PDB ptr (with parameters in PDBTEXT, len in PDBRC)       Ÿ
                                   20949              Ÿ                                                                     Ÿ
                                   20950              Ÿ    On exit:                                                         Ÿ
                                   20951              Ÿ      The parameter line is left untouched in the PDB and then       Ÿ
                                   20952              Ÿ      passed on to Wylbur.                                           Ÿ
                                   20953              Ÿ                                                                     Ÿ
                                                      ¾þþþþþþþþþþþþþþþþþþþþþþþþþþþþþþþþþþþþþþþþþþþþþþþþþþþþþþþþþþþþþþþþþþþþþ»
0000000                00000 001E0 20954              ESPWA    RECORD BEGIN
 000000                            20962  1           ESPSCNCB   DS    XL(L'SCNCB)         Working SCANCB
                                   20963  1           ESPSG      SEGCB ,                   Working SEGCB
 000004 00                         20964  1 01-SEGCB +$$$SEGCB526   DS 0F
 ESPSGCOD.ESPSGSEG 01 EQ
 ESPSGCOD.ESPSGWR  02 EQ
 ESPSGCOD.ESPSGCLR 03 EQ
 ESPSGCOD.ESPSGSPP 04 EQ
 ESPSGCOD.ESPSGOVF 05 EQ
 ESPSGCOD.ESPSGCR  06 EQ
 ESPSGCOD.ESPSGMAR 07 EQ
 000005 00                         21039  1 01-SEGCB +           DC    X'00'               Reserved
 000006 0000                              1          +
 000008 00000000                   21040  1 01-SEGCB +ESPSGMAXF   DC   A(0)                Maximum buffer length
 00000C 00000000                   21041  1 01-SEGCB +ESPSGMRKF   DC   A(0)                Length at last mark
 000010 00000000                   21042  1 01-SEGCB +ESPSGLENF   DC   A(0)                Current length
 000014 00000000                   21043  1 01-SEGCB +ESPSGINDF   DC   A(0)                Overflow/indent count
 000018 00000000                   21044  1 01-SEGCB +ESPSGERR   DC    A(0)                Address of error recovery routine
 00001C 0000000000000000           21045  1 01-SEGCB +           DC    2F'0'               Reserved
 000024 00000000                   21046  1 01-SEGCB +ESPSGLOC   DC    A(0)                Location of buffer
 000028 00000000                   21047  1 01-SEGCB +ESPSGRTN   DC    A(0)                Processing routine
 00002C 0000000000000000           21048  1 01-SEGCB +           DC    4F'0'               Reserved
 00003C 00000000                   21049  1 01-SEGCB +ESPSGUSR   DC    A(0)                USER field
                                   21050  1 01-SEGCB +ESPSG      EQU   $$$SEGCB526,*-$$$SEGCB526,C'X'
                                   21051  1
                                   21052  1           ESPPLEN#   EQU   64                  Generic parameter length
 000040                            21053  1           ESPWELF    DS    CL(ESPPLEN#)        ELF hostname
 000080                            21054  1           ESPWELFA   DS    CL(ESPPLEN#)        ELF IP address
 0000C0                            21055  1           ESPWPID    DS    CL(ESPPLEN#)        ELF process id
 000100                            21056  1           ESPWTEL    DS    CL(ESPPLEN#)        TELNET hostname
 000140                            21057  1           ESPWTELA   DS    CL(ESPPLEN#)        TELNET host IP address
 000180                            21058  1           ESPWACCT   DS    CL8                 Account
 000188                            21059  1           ESPWPASS   DS    CL8                 Password
 000190                            21060  1           ESPWSYS    DS    CL8                 Initial subsystem name
 000198                            21061  1           ESPWTTYP   DS    CL8                 Terminal type
                                   21062  1
 0001A0                            21063  1           ESPWORK    DS    CL(ESPPLEN#)        Working hostname area
 0001E0                001E0 001E0 21064                       END
                                   21073              þþþþ
 003020 50E0 D044/902B_      00044 21074              ELFSPARM PROC  ESPWA
1ELF      (ELF2047) (12:35) (15MAR04) ELF Interface                                                                         Page   87
0Current Usings:  (*,R8) (CV,R12) (ESPWA-@@,R13)
0Loc    Object Code    Addr1 Addr2  Stmt Lv Lineno    Source Statement           (Hibal 5, Asmedit 3.3)  HLASM R4.0  2004/03/15 12.35
+___    ______ ____    _____ _____  ____ __ ______    ______ _________
0USING  *,R8
 USING  ESPWA-@@,R13
 00303A D7FF D04C D04C_00000 00000 21121                       CLEAR ESPWA
                                   21129
 USING  FEB,R11                    21130                       WITH  FEB,PIB             Entry assumption
 USING  PIB,R10
                                   21151
 003046 187F                       21152                       LR    R7,R15
 USING  PDB,R7                     21153                       WITH  (PDB,R7)
                                   21166
 003048 4160 D04C            00000 21167                       LA    R6,ESPSCNCB
 USING  SCANCB,R6                  21168                       WITH  (SCANCB,R6)
                                   21181                       ¿þþþþþþþþþþþþþþþþþþþþþþþþþþþþþþþÜ
                                   21182                       Ÿ  Scan ELF signon parameters.  Ÿ
                                   21183                       ¾þþþþþþþþþþþþþþþþþþþþþþþþþþþþþþþ»
 00304C D501 8A46 7036_03A70 00036 21184                       IF    (PDBRC,GT,6),BEGIN  Possibly elf parms...
 003056 4110 7038/4800_      00038 21202  1                      SETMSG PDBTEXT,LH:PDBRC    ELF parameters
 00305E D505 8A48 1000_03A72 00000 21215  1                      IF    (@R1,NE,'login:'),EXIT
 003068 4110 1006            00006 21234  1                      LA    R1,@R1+6            Skip past "login:"
 00306C 4B00 8A4E            03A78 21235  1                      SH    R0,=H'6'
                                   21236  1
 003070 5010 C278            00278 21237  1                      ST    R1,CVTOKLOC         Save string addr
 003074 4000 C27C            0027C 21238  1                      STH   R0,CVTOKLEN         Save string length
 003078 58E0 89CA/0DEE_      039F4 21239  1           ELFSLOOP   WHILE ('VCALL SCANTOK',Z),BEGIN  Go through tokens...
                                   21258  2                        ¿þþþþþþþþþþþþþþþþþþþþþþþþþþþÜ
                                   21259  2                        Ÿ  ELF_HOSTADDR=ip-address  Ÿ
                                   21260  2                        ¾þþþþþþþþþþþþþþþþþþþþþþþþþþþ»
 003082 D50C 8A7A C268_03AA4 00268 21261  2                        IF    (CVTOKUPP,EQ,'ELF_HOSTADDR '),BEGIN
 00308C 58E0 89CA/0DEE       039F4 21278  3                          VCALL SCANTOK             Next token
 003092 D23F D0CC C141 00080 00141 21282  3                          MVC   ESPWELFA,CVBLANKS   Pre-blank
 003098 18F0                       21283  3                          LR    R15,R0
 00309A 59F0 89CE/47D0_      039F8 21284  3                          CEIL  R15,L'ESPWELFA
 0030A6 06F0/12FF/4740_            21303  3                          MOVE  R15,ESPWELFA,@R1    Save parameter
 0030B2 47F0 804E            03078 21341  3                          B     ELFSLOOP
 0030B6                            21342  2                        END
                                   21346  2                        ¿þþþþþþþþþþþþþþþþþþþþþþþþþÜ
                                   21347  2                        Ÿ  ELF_HOSTNAME=hostname  Ÿ
                                   21348  2                        ¾þþþþþþþþþþþþþþþþþþþþþþþþþ»
 0030B6 D50C 8A87 C268_03AB1 00268 21349  2                        IF    (CVTOKUPP,EQ,'ELF_HOSTNAME '),BEGIN
 0030C0 58E0 89CA/0DEE       039F4 21366  3                          VCALL SCANTOK             Next token
 0030C6 D23F D08C C141 00040 00141 21370  3                          MVC   ESPWELF,CVBLANKS    Pre-blank
 0030CC 18F0                       21371  3                          LR    R15,R0
 0030CE 59F0 89D2/47D0_      039FC 21372  3                          CEIL  R15,L'ESPWELF
 0030DA 06F0/12FF/4740_            21391  3                          MOVE  R15,ESPWELF,@R1     Save parameter
 0030E6 9581 D08C/4750_00040       21429  3                          IF    ((ESPWELF,GE,'a'),AND,(ESPWELF,LE,'z')),BEGIN
 0030F6 9640 D08C      00040       21462  4                            OI    ESPWELF,C' '        Capitalize first letter
 0030FA                            21463  3                          END
 0030FA 47F0 804E            03078 21467  3                          B     ELFSLOOP
 0030FE                            21468  2                        END
1ELF      (ELF2047) (12:35) (15MAR04) ELF Interface                                                                         Page   88
0Current Usings:  (SCANCB,R6) (PDB,R7) (*,R8) (PIB,R10) (FEB,R11) (CV,R12) (ESPWA-@@,R13)
0Loc    Object Code    Addr1 Addr2  Stmt Lv Lineno    Source Statement           (Hibal 5, Asmedit 3.3)  HLASM R4.0  2004/03/15 12.35
+___    ______ ____    _____ _____  ____ __ ______    ______ _________
0                                  21472  2                        ¿þþþþþþþþþþþþþþþþþþþþþþÜ
                                   21473  2                        Ÿ  PID=process-number  Ÿ
                                   21474  2                        ¾þþþþþþþþþþþþþþþþþþþþþþ»
 0030FE D503 89D6 C268_03A00 00268 21475  2                        IF    (CVTOKUPP,EQ,'PID '),BEGIN
 003108 58E0 89CA/0DEE       039F4 21492  3                          VCALL SCANTOK             Next token
 00310E D23F D10C C141 000C0 00141 21496  3                          MVC   ESPWPID,CVBLANKS    Pre-blank
 003114 18F0                       21497  3                          LR    R15,R0
 003116 59F0 89DA/47D0_      03A04 21498  3                          CEIL  R15,L'ESPWPID
 003122 06F0/12FF/4740_            21517  3                          MOVE  R15,ESPWPID,@R1     Save parameter
 00312E 47F0 804E            03078 21555  3                          B     ELFSLOOP
 003132                            21556  2                        END
                                   21560  2                        ¿þþþþþþþþþþþþþþþþþþþþþþþþþþþþþþÜ
                                   21561  2                        Ÿ  TELNET_HOSTADDR=ip-address  Ÿ
                                   21562  2                        ¾þþþþþþþþþþþþþþþþþþþþþþþþþþþþþþ»
 003132 D50F 8996 C268_039C0 00268 21563  2                        IF    (CVTOKUPP,EQ,'TELNET_HOSTADDR '),BEGIN
 00313C 58E0 89CA/0DEE       039F4 21580  3                          VCALL SCANTOK             Next token
 003142 D23F D18C C141 00140 00141 21584  3                          MVC   ESPWTELA,CVBLANKS   Pre-blank
 003148 18F0                       21585  3                          LR    R15,R0
 00314A 59F0 89DE/47D0_      03A08 21586  3                          CEIL  R15,L'ESPWTELA
 003156 06F0/12FF/4740_            21605  3                          MOVE  R15,ESPWTELA,@R1    Save parameter
 003162 47F0 804E            03078 21643  3                          B     ELFSLOOP
 003166                            21644  2                        END
                                   21648  2                        ¿þþþþþþþþþþþþþþþþþþþþþþþþþþþþÜ
                                   21649  2                        Ÿ  TELNET_HOSTNAME=hostname  Ÿ
                                   21650  2                        ¾þþþþþþþþþþþþþþþþþþþþþþþþþþþþ»
 003166 D50F 89A6 C268_039D0 00268 21651  2                        IF    (CVTOKUPP,EQ,'TELNET_HOSTNAME '),BEGIN
 003170 58E0 89CA/0DEE       039F4 21668  3                          VCALL SCANTOK             Next token
 003176 D23F D14C C141 00100 00141 21672  3                          MVC   ESPWTEL,CVBLANKS    Pre-blank
 00317C 18F0                       21673  3                          LR    R15,R0
 00317E 59F0 89E2/47D0_      03A0C 21674  3                          CEIL  R15,L'ESPWTEL
 00318A 06F0/12FF/4740_            21693  3                          MOVE  R15,ESPWTEL,@R1     Save parameter
 003196 9581 D14C/4750_00100       21731  3                          IF    ((ESPWTEL,GE,'a'),AND,(ESPWTEL,LE,'z')),BEGIN
 0031A6 9640 D14C      00100       21764  4                            OI    ESPWTEL,C' '        Capitalize first letter
 0031AA                            21765  3                          END
 0031AA 47F0 804E            03078 21769  3                          B     ELFSLOOP
 0031AE                            21770  2                        END
                                   21774  2                        ¿þþþþþþþþþþþþþþþþþþþþþþþþÜ
                                   21775  2                        Ÿ  AUTH_IDENTITY=string  Ÿ
                                   21776  2                        ¾þþþþþþþþþþþþþþþþþþþþþþþþ»
 0031AE D50D 8A50 C268_03A7A 00268 21777  2                        IF    (CVTOKUPP,EQ,'AUTH_IDENTITY '),BEGIN
 0031B8 58E0 89CA/0DEE       039F4 21794  3                          VCALL SCANTOK             Next token
 0031BE 47F0 804E            03078 21798  3                          B     ELFSLOOP
 0031C2                            21799  2                        END
                                   21803  2                        ¿þþþþþþþþþþþþþþþþþþþþþþÜ
                                   21804  2                        Ÿ  AUTH_METHOD=string  Ÿ
                                   21805  2                        ¾þþþþþþþþþþþþþþþþþþþþþþ»
 0031C2 D50B 89E6 C268_03A10 00268 21806  2                        IF    (CVTOKUPP,EQ,'AUTH_METHOD '),BEGIN
 0031CC 58E0 89CA/0DEE       039F4 21823  3                          VCALL SCANTOK             Next token
 0031D2 47F0 804E            03078 21827  3                          B     ELFSLOOP
 0031D6                            21828  2                        END
1ELF      (ELF2047) (12:35) (15MAR04) ELF Interface                                                                         Page   89
0Current Usings:  (SCANCB,R6) (PDB,R7) (*,R8) (PIB,R10) (FEB,R11) (CV,R12) (ESPWA-@@,R13)
0Loc    Object Code    Addr1 Addr2  Stmt Lv Lineno    Source Statement           (Hibal 5, Asmedit 3.3)  HLASM R4.0  2004/03/15 12.35
+___    ______ ____    _____ _____  ____ __ ______    ______ _________
0                                  21832  2                        ¿þþþþþþþþþþþþþþþþþþþÜ
                                   21833  2                        Ÿ  ACCOUNT=account  Ÿ
                                   21834  2                        ¾þþþþþþþþþþþþþþþþþþþ»
 0031D6 D507 89B6 C268_039E0 00268 21835  2                        IF    (CVTOKUPP,EQ,'ACCOUNT '),BEGIN
 0031E0 58E0 89CA/0DEE       039F4 21852  3                          VCALL SCANTOK             Get parameter
 0031E6 D207 D1CC C268 00180 00268 21856  3                          MVC   ESPWACCT,CVTOKUPP
 0031EC 47F0 804E            03078 21857  3                          B     ELFSLOOP
 0031F0                            21858  2                        END
                                   21862  2                        ¿þþþþþþþþþþþþþþþþþþþþÜ
                                   21863  2                        Ÿ  XACCOUNT=account  Ÿ
                                   21864  2                        ¾þþþþþþþþþþþþþþþþþþþþ»
 0031F0 D508 8A94 C268_03ABE 00268 21865  2                        IF    (CVTOKUPP,EQ,'XACCOUNT '),BEGIN
 0031FA 58E0 89CA/0DEE       039F4 21882  3                          VCALL SCANTOK             Get parameter
                                   21886  3           *         MVC   ESPWACCT,CVTOKUPP
 003200 47F0 804E            03078 21887  3                          B     ELFSLOOP
 003204                            21888  2                        END
                                   21892  2                        ¿þþþþþþþþþþþþþþþþþþþþþÜ
                                   21893  2                        Ÿ  PASSWORD=password  Ÿ
                                   21894  2                        ¾þþþþþþþþþþþþþþþþþþþþþ»
 003204 D508 8A9D C268_03AC7 00268 21895  2                        IF    (CVTOKUPP,EQ,'PASSWORD '),BEGIN
 00320E 58E0 89CA/0DEE       039F4 21912  3                          VCALL SCANTOK             Get parameter
 003214 D207 D1D4 C268 00188 00268 21916  3                          MVC   ESPWPASS,CVTOKUPP
 00321A 47F0 804E            03078 21917  3                          B     ELFSLOOP
 00321E                            21918  2                        END
                                   21922  2                        ¿þþþþþþþþþþþþþþþþþÜ
                                   21923  2                        Ÿ  SYSTEM=subsys  Ÿ
                                   21924  2                        ¾þþþþþþþþþþþþþþþþþ»
 00321E D506 8AA6 C268_03AD0 00268 21925  2                        IF    (CVTOKUPP,EQ,'SYSTEM '),BEGIN
 003228 58E0 89CA/0DEE       039F4 21942  3                          VCALL SCANTOK             Get parameter
 00322E D207 D1DC C268 00190 00268 21946  3                          MVC   ESPWSYS,CVTOKUPP
 003234 47F0 804E            03078 21947  3                          B     ELFSLOOP
 003238                            21948  2                        END
                                   21952  2                        ¿þþþþþþþþþþþþþþþþþþþþþþÜ
                                   21953  2                        Ÿ  TERMTYPE=termtype.  Ÿ
                                   21954  2                        ¾þþþþþþþþþþþþþþþþþþþþþþ»
 003238 D508 8AAD C268_03AD7 00268 21955  2                        IF    (CVTOKUPP,EQ,'TERMTYPE '),BEGIN
 003242 58E0 89CA/0DEE       039F4 21972  3                          VCALL SCANTOK             Get parameter
 003248 D207 D1E4 C268 00198 00268 21976  3                          MVC   ESPWTTYP,CVTOKUPP
 00324E 47F0 804E            03078 21977  3                          B     ELFSLOOP
 003252                            21978  2                        END
 003252 47F0 804E            03078 21982  1                      END
                                   21987  1                      ¿þþþþþþþþþþþþþþþþþþþþþþþþþþþþþþþþþþþþþþþþþÜ
                                   21988  1                      Ÿ  Get TELNET host IP address in binary.  Ÿ
                                   21989  1                      ¾þþþþþþþþþþþþþþþþþþþþþþþþþþþþþþþþþþþþþþþþþ»
 003256 D63F D18C D18C_00140 00140 21990  1                      IF    (ESPWTELA,NZ),BEGIN
 003260 4110 D18C/4100_      00140 22006  2                        SETMSG ESPWTELA
 003268 58E0 89F2/0DEE       03A1C 22020  2                        VCALL LRTRIM
 00326E 58E0 89F6/0DEE       03A20 22024  2                        ACALL CNVTIP              Convert IP addr to binary
 003274 4780 8252/50F0_      0327C 22028  2                        IF    NZ,'ST R15,PIBTELIP'  Save IP address
 00327C                            22045  1                      END
1ELF      (ELF2047) (12:35) (15MAR04) ELF Interface                                                                         Page   90
0Current Usings:  (SCANCB,R6) (PDB,R7) (*,R8) (PIB,R10) (FEB,R11) (CV,R12) (ESPWA-@@,R13)
0Loc    Object Code    Addr1 Addr2  Stmt Lv Lineno    Source Statement           (Hibal 5, Asmedit 3.3)  HLASM R4.0  2004/03/15 12.35
+___    ______ ____    _____ _____  ____ __ ______    ______ _________
0                                  22049  1                      ¿þþþþþþþþþþþþþþþþþþþþþþþþþþþþþþþþþþþþþþþþþþþþþþþþþþþþþÜ
                                   22050  1                      Ÿ  Remove ".STANFORD.EDU" suffix from ELF and TELNET  Ÿ
                                   22051  1                      Ÿ    host names if possible.                          Ÿ
                                   22052  1                      ¾þþþþþþþþþþþþþþþþþþþþþþþþþþþþþþþþþþþþþþþþþþþþþþþþþþþþþ»
 00327C D63F D08C D08C_00040 00040 22053  1                      IF    (ESPWELF,NZ),BEGIN  We have an ELF hostname...
 003286 D23F D1EC D08C 001A0 00040 22069  2                        MVC   ESPWORK,ESPWELF     Copy
 00328C D63F D1EC C141 001A0 00141 22070  2                        OC    ESPWORK,CVBLANKS    Convert copy to caps
 003292 4110 D1EC/4100_      001A0 22071  2                        SETMSG ESPWORK
 00329A 58E0 89FA/0DEE       03A24 22085  2                        VCALL RTRIM               Trim trailing blanks
 0032A0 5900 89FE/4750_      03A28 22089  2                        IF    (R0,GE,L'NAMESFX),BEGIN  Check for local suffix...
 0032A8 1821                       22106  3                          LR    R2,R1
 0032AA 1A20                       22107  3                          AR    R2,R0
 0032AC 4B20 8A5E            03A88 22108  3                          SH    R2,=AL2(L'NAMESFX)
 0032B0 D50C 846C 2000_03496 00000 22109  3                          IF    (@R2,NE,NAMESFX),EXIT  Not a local hostname, scram
 0032BA 1B21                       22129  3                          SR    R2,R1               Offset into suffix
 0032BC 4122 D08C            00040 22130  3                          LA    R2,ESPWELF(R2)
 0032C0 D20C 2000 C141 00000 00141 22131  3                          MVC   @R2(L'NAMESFX),CVBLANKS  Blank out local suffix
 0032C6                            22132  2                        END
                                   22136  2
 0032C6 D23F D1EC D08C 001A0 00040 22137  2                        MVC   ESPWORK,ESPWELF     Copy
 0032CC D63F D1EC C141 001A0 00141 22138  2                        OC    ESPWORK,CVBLANKS    Convert copy to caps
 0032D2 4110 D1EC/4100_      001A0 22139  2                        SETMSG ESPWORK
 0032DA 58E0 89FA/0DEE       03A24 22153  2                        VCALL RTRIM               Trim trailing blanks
 0032E0 5900 8A02/4750_      03A2C 22157  2                        IF    (R0,GE,L'DYNSFX),BEGIN  Check for screwy suffix...
 0032E8 1821                       22174  3                          LR    R2,R1
 0032EA 1A20                       22175  3                          AR    R2,R0
 0032EC 4B20 8A60            03A8A 22176  3                          SH    R2,=AL2(L'DYNSFX)
 0032F0 D507 8479 2000_034A3 00000 22177  3                          IF    (@R2,NE,DYNSFX),EXIT  No screwy suffix, scram
 0032FA 1B21                       22197  3                          SR    R2,R1               Offset into suffix
 0032FC 4122 D08C            00040 22198  3                          LA    R2,ESPWELF(R2)
 003300 D207 2000 C141 00000 00141 22199  3                          MVC   @R2(L'DYNSFX),CVBLANKS  Blank out local suffix
 003306                            22200  2                        END
 003306                            22204  1                      END
                                   22208  1
 003306 D63F D14C D14C_00100 00100 22209  1                      IF    (ESPWTEL,NZ),BEGIN  We have a telnet hostname...
 003310 D23F D1EC D14C 001A0 00100 22225  2                        MVC   ESPWORK,ESPWTEL     Copy
 003316 D63F D1EC C141 001A0 00141 22226  2                        OC    ESPWORK,CVBLANKS    Convert copy to caps
 00331C 4110 D1EC/4100_      001A0 22227  2                        SETMSG ESPWORK
 003324 58E0 89FA/0DEE       03A24 22241  2                        VCALL RTRIM               Trim trailing blanks
 00332A 5900 89FE/4750_      03A28 22245  2                        IF    (R0,GE,L'NAMESFX),BEGIN  Check for local suffix...
 003332 1821                       22262  3                          LR    R2,R1
 003334 1A20                       22263  3                          AR    R2,R0
 003336 4B20 8A5E            03A88 22264  3                          SH    R2,=AL2(L'NAMESFX)
 00333A D50C 846C 2000_03496 00000 22265  3                          IF    (@R2,NE,NAMESFX),EXIT  Not a local hostname, scram
 003344 1B21                       22285  3                          SR    R2,R1               Offset into suffix
 003346 4122 D14C            00100 22286  3                          LA    R2,ESPWTEL(R2)
 00334A D20C 2000 C141 00000 00141 22287  3                          MVC   @R2(L'NAMESFX),CVBLANKS  Blank out local suffix
 003350                            22288  2                        END
                                   22292  2
 003350 D23F D1EC D14C 001A0 00100 22293  2                        MVC   ESPWORK,ESPWTEL     Copy
 003356 D63F D1EC C141 001A0 00141 22294  2                        OC    ESPWORK,CVBLANKS    Convert copy to caps
 00335C 4110 D1EC/4100_      001A0 22295  2                        SETMSG ESPWORK
 003364 58E0 89FA/0DEE       03A24 22309  2                        VCALL RTRIM               Trim trailing blanks
 00336A 5900 8A02/4750_      03A2C 22313  2                        IF    (R0,GE,L'DYNSFX),BEGIN  Check for screwy suffix...
1ELF      (ELF2047) (12:35) (15MAR04) ELF Interface                                                                         Page   91
0Current Usings:  (SCANCB,R6) (PDB,R7) (*,R8) (PIB,R10) (FEB,R11) (CV,R12) (ESPWA-@@,R13)
0Loc    Object Code    Addr1 Addr2  Stmt Lv Lineno    Source Statement           (Hibal 5, Asmedit 3.3)  HLASM R4.0  2004/03/15 12.35
+___    ______ ____    _____ _____  ____ __ ______    ______ _________
0003372 1821                       22330  3                          LR    R2,R1
 003374 1A20                       22331  3                          AR    R2,R0
 003376 4B20 8A60            03A8A 22332  3                          SH    R2,=AL2(L'DYNSFX)
 00337A D507 8479 2000_034A3 00000 22333  3                          IF    (@R2,NE,DYNSFX),EXIT  No screwy suffix, scram
 003384 1B21                       22353  3                          SR    R2,R1               Offset into suffix
 003386 4122 D14C            00100 22354  3                          LA    R2,ESPWTEL(R2)
 00338A D207 2000 C141 00000 00141 22355  3                          MVC   @R2(L'DYNSFX),CVBLANKS  Blank out local suffix
 003390                            22356  2                        END
 003390                            22360  1                      END
                                   22364  1                      ¿þþþþþþþþþþþþþþþþþþþþþþþþþþþþþþþþþþþþþþÜ
                                   22365  1                      Ÿ  Format PIBINFO field as "elf-pid".  Ÿ
                                   22366  1                      ¾þþþþþþþþþþþþþþþþþþþþþþþþþþþþþþþþþþþþþþ»
 003390 D63F D08C D08C_00040 00040 22367  1                      IF    (ESPWELF,NZ),BEGIN  We have an elf name...
 00339A D213 A03C C141 0003C 00141 22383  2                        MVC   PIBINFO,CVBLANKS    Pre-blank
 0033A0 4110 A03C/4100_      0003C 22384  2                        SEGINIT PIBINFO,,ESPSG
 0033B2 4110 D08C/4100_      00040 22411  2                        SEGT  ESPWELF             Elf name
 0033C4 4110 8AB6/4100_      03AE0 22439  2                        SEG   '-'
 0033D6 4110 D10C/4100_      000C0 22456  2                        SETMSG ESPWPID
 0033DE 58E0 89FA/0DEE       03A24 22470  2                        VCALL RTRIM
 0033E4 4120 0005            00005 22474  2                        LA    R2,5
 0033E8 1B20                       22475  2                        SR    R2,R0
 0033EA 47D0 83D4            033FE 22476  2                        IF    POS,BEGIN
 0033EE 4110 8AB7            03AE1 22487  3                          LA    R1,=C'00000'
 0033F2 1802/41F0 D050_            22488  3                          SEG   (R1),(R2)          Add leading zeros
 0033FE                            22512  2                        END
 0033FE 4110 D10C/4100_      000C0 22516  2                        SEGT  ESPWPID             Process id
                                   22544  2                        SEGDEF DUMMY
                                   22545  2
 003410 D713 A050 A050 00050 00050 22546  2                        CLEAR PIBLOC              Assume no location information
 003416                            22553  1                      END
                                   22557  1                      ¿þþþþþþþþþþþþþþþþþþþþþþþþþþþþþþþþþþþþþþþþþþþþþþþþþþþþþþþþþþþþþþþÜ
                                   22558  1                      Ÿ  Save hostname (or host address) of person doing the telnet.  Ÿ
                                   22559  1                      ¾þþþþþþþþþþþþþþþþþþþþþþþþþþþþþþþþþþþþþþþþþþþþþþþþþþþþþþþþþþþþþþþ»
 003416 4120 D18C            00140 22560  1                      LA    R2,ESPWTELA         Assume we have their IP address
 00341A D63F D14C D14C_00100 00100 22561  1                      IF    (ESPWTEL,NZ),'LA R2,ESPWTEL'  We have their hostname
 003428 9500 2000/4780_00000       22583  1                      IF    (@R2,NE,X'00'),BEGIN  We have something...
 003430 D53F D08C D14C_00040 00100 22599  2                        IF    (ESPWELF,EQ,ESPWTEL),EXIT  Local ELF, forget it
 00343A D213 A050 C141 00050 00141 22620  2                        MVC   PIBLOC,CVBLANKS    Pre-blank
 003440 41F0 0040            00040 22621  2                        LA    R15,L'ESPWTEL
 003444 59F0 8A0E/47D0_      03A38 22622  2                        CEIL  R15,L'PIBLOC
 003450 06F0/12FF/4740_            22641  2                        MOVE  R15,PIBLOC,@R2     Save TELNET hostname
 00345C                            22679  1                      END
                                   22683  1
 00345C D607 D1E4 D1E4_00198 00198 22684  1                      IF    (ESPWTTYP,NZ),'MVC PIBTTYPE,ESPWTTYP'  Set term type
                                   22706  1
 00346C D607 D1DC D1DC_00190 00190 22707  1                      IF    (ESPWSYS,NZ),'MVC PIBDFSYS,ESPWSYS'  Set default sys
                                   22729  1
 00347C 58E0 8A12/0DEE       03A3C 22730  1                      ACALL SETIPINF            Set flags based on their IP addr
 003482                            22734                       END
                                   22738
 003482 41D0 D210/982B_      00210 22739                       PEND
 DROP   SCANCB,R6
 DROP   PDB,R7
 DROP   PIB,R10
1ELF      (ELF2047) (12:35) (15MAR04) ELF Interface                                                                         Page   92
0Current Usings:  (CV,R12)
0Loc    Object Code    Addr1 Addr2  Stmt Lv Lineno    Source Statement           (Hibal 5, Asmedit 3.3)  HLASM R4.0  2004/03/15 12.35
+___    ______ ____    _____ _____  ____ __ ______    ______ _________
0DROP   FEB,R11
 DROP   ESPWA-@@,R13
 DROP   *,R8
                                   22785
 003496 4BE2E3C1D5C6D6D9           22786              NAMESFX  DC    C'.STANFORD.EDU'    Hostname suffix which is local
 0034A3 60C4E8D5C1D4C9C3           22787              DYNSFX   DC    C'-DYNAMIC'         Kinetics "-dynamic" suffix
                                   22788                       SEGDEF DUMMY              (Neatness)
1ELF      (ELF2047) (12:35) (15MAR04) ELF Interface                                                                         Page   93
0Current Usings:  (CV,R12)
0Loc    Object Code    Addr1 Addr2  Stmt Lv Lineno    Source Statement           (Hibal 5, Asmedit 3.3)  HLASM R4.0  2004/03/15 12.35
+___    ______ ____    _____ _____  ____ __ ______    ______ _________
0                                  22790              ¿þþþþþþþþþþþþþþþþþþþþþþþþþþþþþþþþþþþþþþþþþþþþþþþþþþþþþþþþþþþþþþþþþþþþþÜ
                                   22791              Ÿ                                                                     Ÿ
                                   22792              Ÿ   SETIPINF -- Routine to set special information based on the       Ÿ
                                   22793              Ÿ      remote host's IP address.                                      Ÿ
                                   22794              Ÿ                                                                     Ÿ
                                   22795              Ÿ      On entry:                                                      Ÿ
                                   22796              Ÿ                                                                     Ÿ
                                   22797              Ÿ                                                                     Ÿ
                                                      ¾þþþþþþþþþþþþþþþþþþþþþþþþþþþþþþþþþþþþþþþþþþþþþþþþþþþþþþþþþþþþþþþþþþþþþ»
00034AC 50E0 D044/902B_      00044 22798              SETIPINF PROC
 USING  *,R8
 USING  PIB,R10                    22834                       WITH  PIB                 (Entry assumption)
                                   22846                       ¿þþþþþþþþþþþþþþþþþþþþþþþþþþþþþþþþþþþþþþþþþþþþþþþþþþþþþþþþþþþþÜ
                                   22847                       Ÿ  RLG modification to set SMF port type based on where the  Ÿ
                                   22848                       Ÿ    connection came from.                                   Ÿ
                                   22849                       ¾þþþþþþþþþþþþþþþþþþþþþþþþþþþþþþþþþþþþþþþþþþþþþþþþþþþþþþþþþþþþ»
 0034C6 D503 A0FC 8032_000FC 034E8 22850                       IF    (PIBTELIP,EQ,RLGIP),'MVI PIBTETYP,C"T"'
 0034D4 41D0 D030/982B_      00030 22874                       PEND
 DROP   PIB,R10
 DROP   *,R8
                                   22899
 0034E8                            22900              RLGIP    DS    0A
 0034E8 24360078                   22901                       DC    AL1(36,54,0,120)    *** RLG-IXGATE1 Sprintnet gateway
1ELF      (ELF2047) (12:35) (15MAR04) ELF Interface                                                                         Page   94
0Current Usings:  (CV,R12)
0Loc    Object Code    Addr1 Addr2  Stmt Lv Lineno    Source Statement           (Hibal 5, Asmedit 3.3)  HLASM R4.0  2004/03/15 12.35
+___    ______ ____    _____ _____  ____ __ ______    ______ _________
0                                  22903              ¿þþþþþþþþþþþþþþþþþþþþþþþþþþþþþþþþþþþþþþþþþþþþþþþþþþþþþþþþþþþþþþþþþþþþþÜ
                                   22904              Ÿ                                                                     Ÿ
                                   22905              Ÿ  IACCHK -- Local routine to process Telnet IAC control sequences    Ÿ
                                   22906              Ÿ    in the input data stream.  This routine processes all IAC        Ÿ
                                   22907              Ÿ    sequences, and SEGs the user data using the SEGCB ptr the        Ÿ
                                   22908              Ÿ    caller provides.                                                 Ÿ
                                   22909              Ÿ                                                                     Ÿ
                                   22910              Ÿ    On entry:                                                        Ÿ
                                   22911              Ÿ      R1,R0 - data location, length                                  Ÿ
                                   22912              Ÿ      R15 - output SEGCB ptr                                         Ÿ
                                   22913              Ÿ                                                                     Ÿ
                                   22914              Ÿ    On exit:                                                         Ÿ
                                   22915              Ÿ      User data has been SEG'd                                       Ÿ
                                   22916              Ÿ                                                                     Ÿ
                                                      ¾þþþþþþþþþþþþþþþþþþþþþþþþþþþþþþþþþþþþþþþþþþþþþþþþþþþþþþþþþþþþþþþþþþþþþ»
0000000                00000 000F3 22917              IACWA    RECORD BEGIN
 000000                            22925  1           IACPLOC    DS    A                   Data location on entry
 000004                            22926  1           IACSUBST   DS    A                   Start of subnegotiation
 000008                            22927  1           IACPLINE   DS    CL235               Working line buffer
 0000F3                000F3 000F3 22928                       END
                                   22937              þþþþ
 0034EC 50E0 D044/902B_      00044 22938              IACCHK   PROC  (R2,LSR),IACWA
 USING  *,R8
 USING  IACWA-@@,R13
 USING  FEB,R11                    22984                       WITH  FEB,PIB             (Entry assumptions)
 USING  PIB,R10
                                   23005
 003506 5010 D04C            00000 23006                       ST    R1,IACPLOC          Save original data ptr
 00350A D703 D050 D050 00004 00004 23007                       CLEAR IACSUBST            Not in subnegotiation yet
                                   23014
 003510 187F                       23015                       LR    R7,R15              SEGCB ptr
                                   23016                       SEGDEF (R7)
                                   23017
 003512 1861                       23018                       LR    R6,R1               Input ptr
 003514 1250                       23019                       LTR   R5,R0               Input length
 003516 47D0 82EA            037E0 23020                       BNP   ICHKDONE            Nothing new to look at, scram
                                   23021
 00351A 5890 A00C/1299       0000C 23022                       LT    SCBR,PIBSCBP        SCB ptr
 003520 4780 82EA            037E0 23026                       BZ    ICHKDONE            No session, forget this
 USING  SCB,R9                     23027                       WITH  SCB
                                   23039
 003524 9108 A0A1/4710_000A1       23040                       IF    ~PIBFIAC,BEGIN      Don't do any IAC processing...
 00352C 18F7/58E0 84F6_            23055  1                      SEG   (R1),(R0)           Copy input to direct to output
 003534 47F0 82EA            037E0 23076  1                      B     ICHKDONE
 003538                            23077                       END
                                   23081                       ¿þþþþþþþþþþþþþþþþþþþþþþþþþþþþþþþþþþþþþþþþþþþþþþþþþþþþþþþþþÜ
                                   23082                       Ÿ  Look for telnet control sequences in the data stream.  Ÿ
                                   23083                       ¾þþþþþþþþþþþþþþþþþþþþþþþþþþþþþþþþþþþþþþþþþþþþþþþþþþþþþþþþþ»
 003538 1255/47D0 80F6             23084              IACLOOP  WHILE (R5,POS),BEGIN      Look for control sequences...
 00353E 18F5                       23101  1                      LR    R15,R5
 003540 59F0 854A/47D0_      03A40 23102  1                      CEIL  R15,256
 00354C 411F 6000            00000 23121  1                      LA    R1,@R6(R15)
 003550 1B22                       23122  1                      CLEAR R2
1ELF      (ELF2047) (12:35) (15MAR04) ELF Interface                                                                         Page   95
0Current Usings:  (*,R8) (SCB,R9) (PIB,R10) (FEB,R11) (CV,R12) (IACWA-@@,R13)
0Loc    Object Code    Addr1 Addr2  Stmt Lv Lineno    Source Statement           (Hibal 5, Asmedit 3.3)  HLASM R4.0  2004/03/15 12.35
+___    ______ ____    _____ _____  ____ __ ______    ______ _________
0003552 06F0/44F0 861C_            23126  1                      DEX   R15,'TRT @R6(0),IACTRT'  Look for IAC character
 003558 1831                       23145  1                      LR    R3,R1
 00355A 1B36                       23146  1                      SR    R3,R6               Length to skip
                                   23147  1           *
                                   23148  1           * Don't add the information if we're in a subnegotiation,
                                   23149  1           * since it's not actual data intended for the user.
                                   23150  1           *
 00355C 5800 D050/1200       00004 23151  1                      LT    R0,IACSUBST
 003562 1200/4770 807E             23155  1                      IF    (R0,Z),BEGIN
 003568 1816/1803/18F7_            23169  2                        SEG   (R6),(R3)           Add text to caller's buffer
 003574                            23192  1                      END
                                   23196  1
 003574 1A63                       23197  1                      AR    R6,R3               Skip past data characters
 003576 1B53                       23198  1                      SR    R5,R3               Keep length accurate
 003578 47D0 82EA            037E0 23199  1                      BNP   ICHKDONE            Nothing left, scram
                                   23200  1                      ¿þþþþþþþþþþþþþþþþþþþþþþþþþþþþþþþþþþþþþþþþþþþþþþþþþþþþþþþþþþþþþþþÜ
                                   23201  1                      Ÿ  Treat Control-C in input data as idle attention if no read.  Ÿ
                                   23202  1                      Ÿ    Note that Control-C as an idle attention also clears the   Ÿ
                                   23203  1                      Ÿ    typeahead input queue.                                     Ÿ
                                   23204  1                      ¾þþþþþþþþþþþþþþþþþþþþþþþþþþþþþþþþþþþþþþþþþþþþþþþþþþþþþþþþþþþþþþþ»
 00357C 5920 854E/4770_      03A44 23205  1                      IF    (R2,EQ,$CTRLC),BEGIN  CTRL-C...
 003584 9140 A0A1/47E0_000A1       23222  2                        IF    PIBFREAD,BEGIN      Skip CTRL-C here if doing read...
 00358C 4110 85F0/4100_      03AE6 23237  3                          SEG   =AL1($CTRLC),1      Add CTRL-C to input data
 00359C                            23264  2                        END
                                   23268  2
 00359C 80AA/47F0 80B6 0359C 0358A 23269  2                        ELSE  BEGIN               Do idle attn if no read...
 0035A0 18F7/58E0 8552_            23280  3                          SEGCLR ,                  Zap previous input characters
 0035A8 4DE0 8C5E            04154 23291  3                          LCALL IDLEATTN            Send idle attention to subsystem
 0035AC                            23293  2                        END
                                   23297  2
 0035AC 4160 6001            00001 23298  2                        LA    R6,@R6+1            Skip past the CTRL-C
 0035B0 0650                       23299  2                        DECR  R5
 0035B2                            23301  1                      END
                                   23305  1                      ¿þþþþþþþþþþþþþþþþþþþþþþþþþþþþþþþþþþþþþþþþþþþÜ
                                   23306  1                      Ÿ  Start of "IAC" telnet control sequence.  Ÿ
                                   23307  1                      ¾þþþþþþþþþþþþþþþþþþþþþþþþþþþþþþþþþþþþþþþþþþþ»
 0035B2 80C0/47F0 80F2_035B2 03582 23308  1                      ELSEIF (R2,EQ,X'FF'),BEGIN  IAC telnet control sequence...
 0035BE 5950 855A/4740_      03A50 23334  2                        IF    (R5,LT,2),ICHKDONE  Not enough for a sequence
 0035C6 1F22/4320 6001             23354  2                        LC    R2,@R6+1            Opcode after IAC
 0035CC 4B20 8598            03A8E 23361  2                        SH    R2,=AL2(239)        Valid opcodes are 240-255
 0035D0 47B0 80E0/1B22       035D6 23362  2                        IF    NEG,'CLEAR R2'
                                   23382  2
 0035D6 4160 6002            00002 23383  2                        LA    R6,@R6+2            Skip past IAC sequence
 0035DA 4B50 859A            03A90 23384  2                        SH    R5,=H'2'
                                   23385  2
 0035DE 8920 0002            00002 23386  2                        SLL   R2,2                Times 4
 0035E2 58E2 8416            0390C 23387  2                        L     RAR,IACTABLE(R2)
 0035E6 07FE                       23388  2                        BR    RAR                 Go do telnet control function
 0035E8                            23389  1                      END
 0035E8 47F0 8042            03538 23393                       END
                                   23398
 0035EC 47F0 82EA            037E0 23399                       B     ICHKDONE
1ELF      (ELF2047) (12:35) (15MAR04) ELF Interface                                                                         Page   96
0Current Usings:  (*,R8) (SCB,R9) (PIB,R10) (FEB,R11) (CV,R12) (IACWA-@@,R13)
0Loc    Object Code    Addr1 Addr2  Stmt Lv Lineno    Source Statement           (Hibal 5, Asmedit 3.3)  HLASM R4.0  2004/03/15 12.35
+___    ______ ____    _____ _____  ____ __ ______    ______ _________
0                                  23401                       ¿þþþþþþþþþþþþþþþþþþþþþþþþþþþþþÜ
                                   23402                       Ÿ  Bad IAC control sequence.  Ÿ
                                   23403                       ¾þþþþþþþþþþþþþþþþþþþþþþþþþþþþþ»
 0035F0 47F0 8042            03538 23404              IACERROR B     IACLOOP             Skip past bad IAC byte
-                                  23406                       ¿þþþþþþþþþþþþþþþþþÜ
                                   23407                       Ÿ  No operation.  Ÿ
                                   23408                       ¾þþþþþþþþþþþþþþþþþ»
 0035F4 47F0 8042            03538 23409              IACNOP   B     IACLOOP
-                                  23411                       ¿þþþþþþþþþþþþþþþþþþþÜ
                                   23412                       Ÿ  Sub-negotiation  Ÿ
                                   23413                       ¾þþþþþþþþþþþþþþþþþþþ»
 0035F8 5950 855E/4740_      03A54 23414              IACSUB   IF    (R5,LT,3),ICHKDONE  Incomplete sequence, scram
 003600 5060 D050            00004 23435                       ST    R6,IACSUBST         Save start address
 003604 47F0 8042            03538 23436                       B     IACLOOP
                                   23437                       ¿þþþþþþþþþþþþþþþþþþþþþþþþþþÜ
                                   23438                       Ÿ  End of sub-negotiation  Ÿ
                                   23439                       ¾þþþþþþþþþþþþþþþþþþþþþþþþþþ»
 003608 5810 D050/1211       00004 23440              IACSBE   LT    R1,IACSUBST         Point to sequence start
 00360E 1211/4780 81A2             23444                       IF    (R1,NZ),BEGIN
 003614 1F22/4320 1000             23458  1                      LC    R2,@R1              Get subnegotiation type
                                   23465  1
 00361A 5920 8562/4770_      03A58 23466  1                      IF    (R2,EQ,$SENDLC),BEGIN
 003622 4110 1001            00001 23483  2                        LA    R1,@R1+1
 003626 4120 6000            00000 23484  2                        LA    R2,0(,R6)
 00362A 0620                       23485  2                        DECR  R2                  Point to IAC SE
 00362C 0620                       23487  2                        DECR  R2
 00362E 1B21                       23489  2                        SR    R2,R1               Get IP string length
 003630 5920 8566/47D0_      03A5C 23490  2                        IF    (R2,GT,1),BEGIN     Should be > 1
 003638 D200 A026 1000 00026 00000 23507  3                          MVC   PIBTETYP,@R1        Copy over the SMF code
 00363E 0620                       23508  3                          DECR  R2
 003640 5E10 8566            03A5C 23510  3                          INCR  R1                  Point to IP address part
 003644 1222/47D0 81A2             23513  3                          IF    (R2,GT),BEGIN
 00364A D213 A050 C141 00050 00141 23527  4                            MVC   PIBLOC,CVBLANKS    Pre-blank
 003650 18F2                       23528  4                            LR    R15,R2
 003652 59F0 8542/47D0_      03A38 23529  4                            CEIL  R15,L'PIBLOC
 00365E 182F                       23548  4                            LR    R2,R15              Save this
 003660 06F0/12FF/4740_            23549  4                            MOVE  R15,PIBLOC,@R1     Save location string
 00366C 1802                       23587  4                            LR    R0,R2               Get back truncated length
 00366E 4110 A050            00050 23588  4                            LA    R1,PIBLOC
 003672 58E0 856A/0DEE       03A60 23589  4                            VCALL TOEBCDIC            Translate location data
 003678 4110 A026            00026 23593  4                            LA    R1,PIBTETYP         Translate the SMF type code
 00367C 4100 0001            00001 23594  4                            LA    R0,L'PIBTETYP
 003680 58E0 856A/0DEE       03A60 23595  4                            VCALL TOEBCDIC            I know - it's just one char.
 003686 58F0 A00C/12FF       0000C 23599  4                            LT    R15,PIBSCBP
 00368C 12FF/4780 81A2             23603  4                            IF    (R15,NZ),BEGIN
 003692 D200 F102 A026 00102 00026 23617  5                              WITH  (SCB,R15),' MVC SCBTETYP,PIBTETYP'
 USING  SCB,R15
 DROP   SCB,R15
 003698                            23641  4                            END
 003698                            23645  3                          END
1ELF      (ELF2047) (12:35) (15MAR04) ELF Interface                                                                         Page   97
0Current Usings:  (*,R8) (SCB,R9) (PIB,R10) (FEB,R11) (CV,R12) (IACWA-@@,R13)
0Loc    Object Code    Addr1 Addr2  Stmt Lv Lineno    Source Statement           (Hibal 5, Asmedit 3.3)  HLASM R4.0  2004/03/15 12.35
+___    ______ ____    _____ _____  ____ __ ______    ______ _________
0003698                            23649  2                        END
 003698                            23653  1                      END
 003698                            23657                       END
                                   23661
 003698 D703 D050 D050 00004 00004 23662                       CLEAR IACSUBST
 00369E 47F0 8042            03538 23669                       B     IACLOOP
                                   23670                       ¿þþþþþþþþþþþþþþþþþþþþþþþþþþþþÜ
                                   23671                       Ÿ  Break/Interrupt process.  Ÿ
                                   23672                       ¾þþþþþþþþþþþþþþþþþþþþþþþþþþþþ»
 0036A2 9140 A0A1/47E0_000A1       23673              IACBREAK IF    PIBFREAD,BEGIN      Doing read now...
 0036AA 4110 85F0/4100_      03AE6 23689  1                      SEG   =AL1($CTRLC),1      Add CTRL-C to input data
 0036BA                            23716                       END
                                   23720
 0036BA 81C8/47F0 81D4 036BA 036A8 23721                       ELSE  BEGIN               Do idle attn if no read...
 0036BE 18F7/58E0 8552_            23732  1                      SEGCLR ,                  Zap typeahead queue
 0036C6 4DE0 8C5E            04154 23743  1                      LCALL IDLEATTN            Send idle attention to subsystem
 0036CA                            23745                       END
                                   23749
 0036CA 47F0 8042            03538 23750                       B     IACLOOP
-                                  23752                       ¿þþþþþþþþþþþþþþþþþþþþþþþþþþþþþþþþþþþþþþÜ
                                   23753                       Ÿ  Remote is asking "Are you there?".  Ÿ
                                   23754                       ¾þþþþþþþþþþþþþþþþþþþþþþþþþþþþþþþþþþþþþþ»
 0036CE 4110 D054            00008 23755              IACAYT   LA    R1,IACPLINE
 0036D2 D20D 1000 859C 00000 03A92 23756                       MVC   @R1(14),=C'(We are here!)'
 0036D8 5820 C4A0            004A0 23757                       L     R2,CVASCTBL
 0036DC DC0D 1000 2000 00000 00000 23758                       TR    @R1(14),@R2         Convert to ASCII
 0036E2 4100 000E/41F0_      0000E 23759                       SEG   (R1),14,.FEBUSG     Add it to output
 0036F0 47F0 8042            03538 23785                       B     IACLOOP
-                                  23787                       ¿þþþþþþþþþþþþþþþþþþþþÜ
                                   23788                       Ÿ  Erase character.  Ÿ
                                   23789                       ¾þþþþþþþþþþþþþþþþþþþþ»
 0036F4 4110 85F1/4100_      03AE7 23790              IACEC    SEG   X'08'               ASCII backspace character
 003704 47F0 8042            03538 23805                       B     IACLOOP
-                                  23807                       ¿þþþþþþþþþþþþþþþÜ
                                   23808                       Ÿ  Erase line.  Ÿ
                                   23809                       ¾þþþþþþþþþþþþþþþ»
 003708 4110 85F2/4100_      03AE8 23810              IACEL    SEG   X'18'               ASCII CTRL-X character
 003718 47F0 8042            03538 23825                       B     IACLOOP
-                                  23827                       ¿þþþþþþþþþþþþþþþþþþþþþþþþþþþþþþþþþþþþþþþþþþþþþþþþþþþþþþþþÜ
                                   23828                       Ÿ  Remote host is telling us that it will do something.  Ÿ
                                   23829                       ¾þþþþþþþþþþþþþþþþþþþþþþþþþþþþþþþþþþþþþþþþþþþþþþþþþþþþþþþþ»
 00371C 1255/47D0 82EA             23830              IACWILL  IF    (R5,NP),ICHKDONE    Incomplete sequence, scram
                                   23848
 003722 1F22/4320 6000             23849                       LC    R2,@R6
 003728 5920 8562/4770_      03A58 23856                       IF    (R2,EQ,$SENDLC),BEGIN
 003730 4110 85F3/4100_      03AE9 23873  1                      SEG   =AL1($IAC,$DO,$SENDLC),3,.FEBUSG  Do it
1ELF      (ELF2047) (12:35) (15MAR04) ELF Interface                                                                         Page   98
0Current Usings:  (*,R8) (SCB,R9) (PIB,R10) (FEB,R11) (CV,R12) (IACWA-@@,R13)
0Loc    Object Code    Addr1 Addr2  Stmt Lv Lineno    Source Statement           (Hibal 5, Asmedit 3.3)  HLASM R4.0  2004/03/15 12.35
+___    ______ ____    _____ _____  ____ __ ______    ______ _________
0003742                            23902                       END
 003742 4160 6001            00001 23906                       LA    R6,@R6+1            Skip past the IAC WILL opcode
 003746 0650                       23907                       DECR  R5
 003748 47F0 8042            03538 23909                       B     IACLOOP
-                                  23911                       ¿þþþþþþþþþþþþþþþþþþþþþþþþþþþþþþþþþþþþþþþþþþþþþþþþþþþþþþþþþÜ
                                   23912                       Ÿ  Remote host is telling us that it won't do something.  Ÿ
                                   23913                       ¾þþþþþþþþþþþþþþþþþþþþþþþþþþþþþþþþþþþþþþþþþþþþþþþþþþþþþþþþþ»
 00374C 1255/47D0 82EA             23914              IACWONT  IF    (R5,NP),ICHKDONE    Incomplete sequence, scram
                                   23932
 003752 4160 6001            00001 23933                       LA    R6,@R6+1            Skip past the IAC WONT opcode
 003756 0650                       23934                       DECR  R5
 003758 47F0 8042            03538 23936                       B     IACLOOP
-                                  23938                       ¿þþþþþþþþþþþþþþþþþþþþþþþþþþþþþþþþþþþþþþþþþþþþþþþþþþÜ
                                   23939                       Ÿ  Remote host is demanding that we do something.  Ÿ
                                   23940                       ¾þþþþþþþþþþþþþþþþþþþþþþþþþþþþþþþþþþþþþþþþþþþþþþþþþþ»
 00375C 1255/47D0 82EA             23941              IACDO    IF    (R5,NP),ICHKDONE    Incomplete sequence, scram
 003762 1F22/4320 6000             23959                       LC    R2,@R6              Do "opcode"
                                   23966
 003768 5920 856E/4770_      03A64 23967                       IF    (R2,EQ,$BINARY),'SET PIBFTRAN'  We are in binary mode
                                   23995
 003774 8282/47F0 828A_03774 0376E 23996                       ELSEIF  (R2,EQ,$ECHO),''  We will accept DO ECHO request
                                   24027
 003780 828E/47F0 82B0 03780 0377E 24028                       ELSE  BEGIN               Anything else...
 003784 4110 85AA/4100_      03AA0 24039  1                      SEG   =AL1($IAC,$WONT),2,.FEBUSG  Won't
 003796 1816/4100 0001_            24068  1                      SEG   @R6,1,.FEBUSG       Whatever
 0037A6                            24097                       END
                                   24101
 0037A6 4160 6001            00001 24102                       LA    R6,@R6+1
 0037AA 0650                       24103                       DECR  R5
 0037AC 47F0 8042            03538 24105                       B     IACLOOP
-                                  24107                       ¿þþþþþþþþþþþþþþþþþþþþþþþþþþþþþþþþþþþþþþþþþþþþþþþþþþþþþþþþþþÜ
                                   24108                       Ÿ  Remote host is demanding that we stop doing something.  Ÿ
                                   24109                       ¾þþþþþþþþþþþþþþþþþþþþþþþþþþþþþþþþþþþþþþþþþþþþþþþþþþþþþþþþþþ»
 0037B0 1255/47D0 82EA             24110              IACDONT  IF    (R5,NP),ICHKDONE    Incomplete sequence, scram
 0037B6 4160 6001            00001 24128                       LA    R6,@R6+1
 0037BA 0650                       24129                       DECR  R5
 0037BC 47F0 8042            03538 24131                       B     IACLOOP
-                                  24133                       ¿þþþþþþþþþþþþþþþþþþþþþÜ
                                   24134                       Ÿ  Data byte of 255.  Ÿ
                                   24135                       ¾þþþþþþþþþþþþþþþþþþþþþ»
 0037C0 5800 D050/1200       00004 24136              IAC255   LT    R0,IACSUBST         Don't seg if subnegotiation
 0037C6 1200/4770 82E6             24140                       IF    (R0,Z),BEGIN
 0037CC 4110 85F6/4100_      03AEC 24154  1                      SEG   X'FF'               Data byte of X'FF'
 0037DC                            24169                       END
 0037DC 47F0 8042            03538 24173                       B     IACLOOP
                                   24174
1ELF      (ELF2047) (12:35) (15MAR04) ELF Interface                                                                         Page   99
0Current Usings:  (*,R8) (SCB,R9) (PIB,R10) (FEB,R11) (CV,R12) (IACWA-@@,R13)
0Loc    Object Code    Addr1 Addr2  Stmt Lv Lineno    Source Statement           (Hibal 5, Asmedit 3.3)  HLASM R4.0  2004/03/15 12.35
+___    ______ ____    _____ _____  ____ __ ______    ______ _________
00037E0 D603 B148 B148_00148 00148 24175              ICHKDONE IF    (FEBUSGLENF,NZ),BEGIN  Force output out now...
 0037EA 1B00/41F0 B13C_            24192  1                      SEGWR ,,.FEBUSG
 0037F6                            24216                       END
                                   24220
 0037F6 41D0 D124/982B_      00124 24221                       PEND
 DROP   SCB,R9
 DROP   PIB,R10
 DROP   FEB,R11
 DROP   IACWA-@@,R13
 DROP   *,R8
                                   24262
                                   24263                       SEGDEF DUMMY              (Safety)
1ELF      (ELF2047) (12:35) (15MAR04) ELF Interface                                                                         Page  100
0Current Usings:  (CV,R12)
0Loc    Object Code    Addr1 Addr2  Stmt Lv Lineno    Source Statement           (Hibal 5, Asmedit 3.3)  HLASM R4.0  2004/03/15 12.35
+___    ______ ____    _____ _____  ____ __ ______    ______ _________
0                                  24265                       ¿þþþþþþþþþþþþþþþþþþþþþþþþþþþþþþþþþÜ
                                   24266                       Ÿ  Telnet data control sequences  Ÿ
                                   24267                       ¾þþþþþþþþþþþþþþþþþþþþþþþþþþþþþþþþþ»
 00380A 0000000000000000           24268              IACTRT   DC    256X'00'            Non-zero for telnet control chars
 00390A                0390A 0380D 24269                       ORG   IACTRT+$CTRLC
 00380D 03                         24270                       DC    AL1($CTRLC)         Control-C
 00380E                0380E 0388D 24271                       ORG   IACTRT+$CTRLC+128
 00388D 03                         24272                       DC    AL1($CTRLC)         Control-C (with parity on)
 00388E                0388E 03909 24273                       ORG   IACTRT+X'FF'
 003909 FF                         24274                       DC    X'FF'               IAC
 00390A                0390A 0390A 24275                       ORG
                                   24276              *
                                   24277              *
 00390A 0000
 00390C 000035F0                   24278              IACTABLE DC    A(IACERROR)
 003910 00003608                   24279                       DC    A(IACSBE)      240: End of subnegotiation parms
 003914 000035F4                   24280                       DC    A(IACNOP)      241: No operation
 003918 000035F4                   24281                       DC    A(IACNOP)      242: Data mark
 00391C 000036A2                   24282                       DC    A(IACBREAK)    243: Break
 003920 000036A2                   24283                       DC    A(IACBREAK)    244: Interrupt process
 003924 000036A2                   24284                       DC    A(IACBREAK)    245: Abort output
 003928 000036CE                   24285                       DC    A(IACAYT)      246: Are you there
 00392C 000036F4                   24286                       DC    A(IACEC)       247: Erase character
 003930 00003708                   24287                       DC    A(IACEL)       248: Erase line
 003934 000035F4                   24288                       DC    A(IACNOP)      249: The "go ahead" signal
 003938 000035F8                   24289                       DC    A(IACSUB)      250: Sub-option follows
 00393C 0000371C                   24290                       DC    A(IACWILL)     251: He will do the following option
 003940 0000374C                   24291                       DC    A(IACWONT)     252: He wont do the following option
 003944 0000375C                   24292                       DC    A(IACDO)       253: He wants us to do  " "    "  "
 003948 000037B0                   24293                       DC    A(IACDONT)     254: He wants us to stop doing "  "
 00394C 000037C0                   24294                       DC    A(IAC255)      255: Data byte of 255
1ELF      (ELF2047) (12:35) (15MAR04) ELF Interface                                                                         Page  101
0Current Usings:  (CV,R12)
0Loc    Object Code    Addr1 Addr2  Stmt Lv Lineno    Source Statement           (Hibal 5, Asmedit 3.3)  HLASM R4.0  2004/03/15 12.35
+___    ______ ____    _____ _____  ____ __ ______    ______ _________
0                                  24296              ¿þþþþþþþþþþþþþþþþþþþþþþþþþþþþþþþþþþþþþþþþþþþþþþþþþþþþþþþþþþþþþþþþþþþþþÜ
                                   24297              Ÿ                                                                     Ÿ
                                   24298              Ÿ  IACDEL -- Local routine to delete the number of characters         Ÿ
                                   24299              Ÿ    specified from the current position in the input buffer.         Ÿ
                                   24300              Ÿ                                                                     Ÿ
                                   24301              Ÿ    On entry:                                                        Ÿ
                                   24302              Ÿ      R15 - number of bytes to remove from buffer                    Ÿ
                                   24303              Ÿ      R6,R5 - current remaining buffer location, length              Ÿ
                                   24304              Ÿ                                                                     Ÿ
                                   24305              Ÿ    On exit:                                                         Ÿ
                                   24306              Ÿ      R6,R5 - updated remaining buffer location, length              Ÿ
                                   24307              Ÿ                                                                     Ÿ
                                                      ¾þþþþþþþþþþþþþþþþþþþþþþþþþþþþþþþþþþþþþþþþþþþþþþþþþþþþþþþþþþþþþþþþþþþþþ»
0003950 50E0 D044/907B_      00044 24308              IACDEL   PROC  (R7,LSR)
 USING  *,R8
                                   24344
 00396A 15F5/4750 801A             24345                       IF    (R15,LGE,R5),BEGIN  Deleting rest of buffer...
 003970 1A65                       24360  1                      AR    R6,R5               Kick buffer ptr
 003972 1B55                       24361  1                      CLEAR R5                  Nothing left in buffer
 003974                            24365                       END
                                   24369
 003974 801E/47F0 802C 03974 0396E 24370                       ELSE  BEGIN               Move buffer over...
 003978 1B5F                       24381  1                      SR    R5,R15              Deduct chars to be deleted
                                   24382  1
 00397A 18E6                       24383  1                      LR    R14,R6              Dest ptr
 00397C 410F 6000            00000 24384  1                      LA    R0,@R6(R15)         Source ptr
 003980 18F5                       24385  1                      LR    R15,R5              Len
 003982 1815                       24386  1                      LR    R1,R5               (ditto)
 003984 0EE0                       24387  1                      MVCL  R14,R0              Move text over to delete chars
 003986                            24388                       END
                                   24392
 003986 41D0 D01C/987B_      0001C 24393                       PEND
 DROP   *,R8
                                   24413
                                   24414                       QLTORG
1ELF      (ELF2047) (12:35) (15MAR04) ELF Interface                                                                         Page  102
0Current Usings:  (CV,R12)
0Loc    Object Code    Addr1 Addr2  Stmt Lv Lineno    Source Statement           (Hibal 5, Asmedit 3.3)  HLASM R4.0  2004/03/15 12.35
+___    ______ ____    _____ _____  ____ __ ______    ______ _________
0                                  24490              ¿þþþþþþþþþþþþþþþþþþþþþþþþþþþþþþþþþþþþþþþþþþþþþþþþþþþþþþþþþþþþþþþþþþþþþÜ
                                   24491              Ÿ                                                                     Ÿ
                                   24492              Ÿ  READCHK -- Local routine to see if we can now complete the         Ÿ
                                   24493              Ÿ    terminal read in progress.                                       Ÿ
                                   24494              Ÿ                                                                     Ÿ
                                   24495              Ÿ    If the read has completed then we will send the response data    Ÿ
                                   24496              Ÿ    back to the subsystem and will reset read mode.                  Ÿ
                                   24497              Ÿ                                                                     Ÿ
                                                      ¾þþþþþþþþþþþþþþþþþþþþþþþþþþþþþþþþþþþþþþþþþþþþþþþþþþþþþþþþþþþþþþþþþþþþþ»
0000000                00000 00001 24498              RCHKWA   RECORD BEGIN
 000000 00                         24506  1           RCHKFLAG   FLAG
 RCHKFLAG.RCHKFTER 80 ONES         24510  1                      FLAG  RCHKFTERM           - Must send what we have
 000001                00001 00001 24515                       END
                                   24524              þþþþ
 003B1E 50E0 D044/902B_      00044 24525              READCHK  PROC  RCHKWA
 USING  *,R8
 USING  RCHKWA-@@,R13
 USING  FEB,R11                    24572                       WITH  FEB,PIB             (Entry assumptions)
 USING  PIB,R10
 003B38 9200 D04C      00000       24593                       CLEAR RCHKWA
                                   24600
 003B3C 9140 A0A1/4710_000A1       24601                       FAIL  ~PIBFREAD,'Bad telnet READCHK call.'
                                   24625
                                   24626                       SEGDEF FEBUSG
                                   24627
 003B60 5890 A00C            0000C 24628                       L     SCBR,PIBSCBP
 USING  SCB,R9                     24629                       WITH  SCB
                                   24641
 003B64 5860 A120/1266       00120 24642                       LT    R6,PIBINSGLOC       Input buffer ptr
 003B6A 4780 835E            03E86 24646                       BZ    RCHKEND             Nothing, go check for eof
 003B6E 5850 A10C            0010C 24647                       L     R5,PIBINSGLENF      Input buffer length
                                   24648
                                   24649                       COMMENT                   If transparent rundown
                                   24650                       COMMENT                   do no data processing
 003B72 9120 90B7/47E0_000B7       24651                       IF    (SCBMODD.MODDTRAN,AND,SCBMODD.MODDRUND),BEGIN
 003B82 4950 90BE/4750_      000BE 24682  1                      IF    (R5,GE,SCBINCT),BEGIN
                                   24699  2                        COMMENT ASSUMPTION        IF MRK NOT ZERO, BOMB
 003B8A D603 A108 A108_00108 00108 24700  2                        IF    (PIBINSGMRKF,NZ),' CLEAR R9'
 003B96 48F0 90BE            000BE 24725  2                        LH    R15,SCBINCT
 003B9A 50F0 A108            00108 24726  2                        ST    R15,PIBINSGMRKF
 003B9E 4120 03E9            003E9 24727  2                        LA    R2,$STOP            STOP READ, NO STOP CHAR NEEDED
 003BA2 47F0 8200            03D28 24728  2                        B     RCHKSEND
 003BA6                            24729  1                      END
 003BA6 8082/47F0 8086 03BA6 03B88 24733  1                      ELSE  BEGIN
 003BAA 47F0 835E            03E86 24744  2                        B     RCHKEND
 003BAE                            24745  1                      END
 003BAE                            24749                       END
1ELF      (ELF2047) (12:35) (15MAR04) ELF Interface                                                                         Page  103
0Current Usings:  (*,R8) (SCB,R9) (PIB,R10) (FEB,R11) (CV,R12) (RCHKWA-@@,R13)
0Loc    Object Code    Addr1 Addr2  Stmt Lv Lineno    Source Statement           (Hibal 5, Asmedit 3.3)  HLASM R4.0  2004/03/15 12.35
+___    ______ ____    _____ _____  ____ __ ______    ______ _________
0                                  24753                       ¿þþþþþþþþþþþþþþþþþþþþþþþþþþþþþþþþþþþþþþþþþþþþþþþþþþþþþþþþþþþÜ
                                   24754                       Ÿ  If the last data character processed was a CR then we    Ÿ
                                   24755                       Ÿ    we need to check if next character is a LF.  If it is  Ÿ
                                   24756                       Ÿ    then the LF is ignored.                                Ÿ
                                   24757                       ¾þþþþþþþþþþþþþþþþþþþþþþþþþþþþþþþþþþþþþþþþþþþþþþþþþþþþþþþþþþþ»
 003BAE 9104 A0A2/47E0_000A2       24758                       IF    (PIBFCR,AND,(R5,POS)),BEGIN  Check for LF...
 003BBC D603 A108 A108_00108 00108 24786  1                      FAIL  (PIBINSGMRKF,NZ),'READCHK logic error'
 003BDC 950A 6000/4780_00000       24811  1                      IF    ((@R6,EQ,X'0A'),OR,(@R6,EQ,X'8A')),BEGIN  LF...
 003BEC 18E6/18F5/4100_            24842  2                        MOVEL @R6,@R6+1,(R5)      Delete the line-feed
 003BF8 0650                       24864  2                        DECR  R5                  Reduce data length accordingly
 003BFA 5050 A10C            0010C 24866  2                        ST    R5,PIBINSGLENF      Save new length
 003BFE                            24867  1                      END
                                   24871  1
 003BFE 94FB A0A2      000A2       24872  1                      CLEAR PIBFCR
 003C02                            24879                       END
                                   24883                       ¿þþþþþþþþþþþþþþþþþþþþþþþþþþþþþþþþþþþþþþþþþþþþþþþþþþþþþþþþþþþþþþþÜ
                                   24884                       Ÿ  The read has been halted, so we must send whatever we have.  Ÿ
                                   24885                       ¾þþþþþþþþþþþþþþþþþþþþþþþþþþþþþþþþþþþþþþþþþþþþþþþþþþþþþþþþþþþþþþþ»
 003C02 9110 A0A1/47E0_000A1       24886                       IF    PIBFHALT,'SET RCHKFTERM'  Halting, send what we have
                                   24912                       ¿þþþþþþþþþþþþþþþþþþþþþþþþþþþþþþþþþþþþþþþþþþþþþþþþþþþþþþþþþþþþþÜ
                                   24913                       Ÿ  A TRANSPARENT read ends on either a terminating character  Ÿ
                                   24914                       Ÿ    or when the read count is exhaused.                      Ÿ
                                   24915                       ¾þþþþþþþþþþþþþþþþþþþþþþþþþþþþþþþþþþþþþþþþþþþþþþþþþþþþþþþþþþþþþ»
 003C0E 9120 90B7/47E0_000B7       24916                       IF    SCBMODD.MODDTRAN,BEGIN  Stop when we get too much...
 003C16 4950 90BE/4750_      000BE 24932  1                      IF    (R5,GE,SCBINCT),BEGIN  Too much...
 003C1E 4850 90BE            000BE 24949  2                        LH    R5,SCBINCT          Don't take too much
 003C22 9680 D04C      00000       24950  2                        SET   RCHKFTERM           We have to send this
 003C26                            24956  1                      END
 003C26                            24960                       END
                                   24964
 003C26 5A60 A108            00108 24965                       A     R6,PIBINSGMRKF      Skip past characters...
 003C2A 5B50 A108            00108 24966                       S     R5,PIBINSGMRKF      ...already scanned
                                   24967                       ¿þþþþþþþþþþþþþþþþþþþþþþþþþþþþþþÜ
                                   24968                       Ÿ  Look for ending character.  Ÿ
                                   24969                       ¾þþþþþþþþþþþþþþþþþþþþþþþþþþþþþþ»
 003C2E                            24970                       LOOP  BEGIN               Look for ending character...
 003C2E 12F5                       24976  1                      LTR   R15,R5              Length of data remaining
 003C30 4720 8120            03C48 24977  1                      IF    NP,BEGIN            Nothing left...
 003C34 9180 D04C/47E0_00000       24988  2                        IF    RCHKFTERM,'LA R2,$STOP; B RCHKSEND'  Send it
 003C44 47F0 835E            03E86 25010  2                        B     RCHKEND             Scram
 003C48                            25011  1                      END
                                   25015  1
 003C48 59F0 8700/47D0_      04228 25016  1                      CEIL  R15,256
 003C54 411F 6000            00000 25035  1                      LA    R1,@R6(R15)
 003C58 1B22                       25036  1                      CLEAR R2                  Pre-clear; TRT sets low byte
 003C5A 4130 842C            03F54 25040  1                      LA    R3,READTRT          Normal ending characters
 003C5E 9104 90B4/47E0_000B4       25041  1                      IF    SCBMODA.MODADRAT,'LA R3,READTRTD'  Ctrl-C is data
 003C6A 06F0/44F0 8746_            25063  1                      DEX   R15,'TRT @R6(0),@R3'   Look for ending character
 003C70 1841                       25082  1                      LR    R4,R1
 003C72 1B46                       25083  1                      SR    R4,R6               Length to skip
 003C74 47D0 8154            03C7C 25084  1                      IF    POS,BEGIN           We have some data bytes...
 003C78 94FB A0A2      000A2       25095  2                        CLEAR PIBFCR              Data invalidates CR/LF check
1ELF      (ELF2047) (12:35) (15MAR04) ELF Interface                                                                         Page  104
0Current Usings:  (*,R8) (SCB,R9) (PIB,R10) (FEB,R11) (CV,R12) (RCHKWA-@@,R13)
0Loc    Object Code    Addr1 Addr2  Stmt Lv Lineno    Source Statement           (Hibal 5, Asmedit 3.3)  HLASM R4.0  2004/03/15 12.35
+___    ______ ____    _____ _____  ____ __ ______    ______ _________
0                                  25102  2                        ¿þþþþþþþþþþþþþþþþþþþþþþþþþþþþþþþþþþþþþþþþþþþþþþþþþþþþþþþþþþþþþþÜ
                                   25103  2                        Ÿ  If necessary, we do the character echoing here.             Ÿ
                                   25104  2                        Ÿ    Normally we request that the remote host do the echoing,  Ÿ
                                   25105  2                        Ÿ    but some hosts won't.                                     Ÿ
                                   25106  2                        ¾þþþþþþþþþþþþþþþþþþþþþþþþþþþþþþþþþþþþþþþþþþþþþþþþþþþþþþþþþþþþþþ»
                                   25107  2           *NEVER   IF    (PIBFNOECHO,AND,~SCBMODC.MODCNECH),BEGIN
                                   25108  2           *NEVER   SEG   (R6),(R4)           Echo the data ourselves
                                   25109  2           *NEVER   END
 003C7C                            25110  1                      END
                                   25114  1
 003C7C 5830 A108            00108 25115  1                      L     R3,PIBINSGMRKF
 003C80 1A34                       25116  1                      AR    R3,R4
 003C82 5030 A108            00108 25117  1                      ST    R3,PIBINSGMRKF      New read position index
                                   25118  1
 003C86 1A64                       25119  1                      AR    R6,R4               Skip past data characters
 003C88 1B54                       25120  1                      SR    R5,R4               Keep length accurate
 003C8A 4720 817A            03CA2 25121  1                      IF    NP,BEGIN            Nothing left...
 003C8E 9180 D04C/47E0_00000       25132  2                        IF    RCHKFTERM,'LA R2,$STOP; B RCHKSEND'  Send it
 003C9E 47F0 835E            03E86 25154  2                        B     RCHKEND             Scram
 003CA2                            25155  1                      END
                                   25159  1                      ¿þþþþþþþþþþþþþþþþþþþþþþþþþþþþþþþþþþþþþþþþþþþþþþþþþþþþþþþþþþÜ
                                   25160  1                      Ÿ  The line can either end with "CRLF" or just "LF", we    Ÿ
                                   25161  1                      Ÿ    need to do a little special processing here to avoid  Ÿ
                                   25162  1                      Ÿ    treating "CRLF" as two line terminators.              Ÿ
                                   25163  1                      ¾þþþþþþþþþþþþþþþþþþþþþþþþþþþþþþþþþþþþþþþþþþþþþþþþþþþþþþþþþþ»
 003CA2 5920 8704/4770_      0422C 25164  1                      IF    (R2,EQ,$CR),BEGIN   Stopped on CR...
 003CAA 5950 8708/47D0_      04230 25181  2                        IF    (R5,GT,1),BEGIN     Check for LF following CR...
 003CB2 950A 6001/4780_00001       25198  3                          IF    ((@R6+1,EQ,X'0A'),OR,(@R6+1,EQ,X'8A')),'LA R2,$CRLF'
 003CC6                            25235  2                        END
                                   25239  2
 003CC6 81A2/47F0 81A6_03CC6 03CB0 25240  2                        ELSE  'SET PIBFCR'        Must check next byte for LF
 003CCE                            25262  1                      END
                                   25266  1
 003CCE 81AA/47F0 81AE_03CCE 03CA8 25267  1                      ELSE  'CLEAR PIBFCR'      Reset CR found flag
                                   25290  1
 003CD6 1222/4770 81B8             25291  1                      IF    (R2,NZ),EXIT        We have a terminating character
 003CDC 47F0 8106            03C2E 25308                       END
                                   25313                       ¿þþþþþþþþþþþþþþþþþþþþþþþþþþþþþþþþþþþþþþþþþþþþþþþþþþþþþþþþÜ
                                   25314                       Ÿ  If we are doing the echoing then we must also echo a  Ÿ
                                   25315                       Ÿ    CR/LF for ending characters.                        Ÿ
                                   25316                       ¾þþþþþþþþþþþþþþþþþþþþþþþþþþþþþþþþþþþþþþþþþþþþþþþþþþþþþþþþ»
 003CE0 9120 90B7/4710_000B7       25317                       IF    ~SCBMODD.MODDTRAN,BEGIN  Write ending chars...
 003CE8 5920 870C/4770_      04234 25333  1                      IF    (R2,EQ,$CTRLC),BEGIN  Ended with BREAK...
 003CF0 9110 90B5/4710_000B5       25350  2                        IF    SCBMODB.MODBNNLA,EXIT  Skip if NOSTARS
 003CF8 4110 8740/4100_      04268 25369  2                        SEG   X'2A2A2A0D0A'       Famous "***<cr><lf>"
 003D0A                            25386  1                      END
                                   25390  1
 003D0A 81E6/47F0 8200 03D0A 03CEE 25391  1                      ELSE  BEGIN               Ended with CR...
 003D0E 9108 A0A2/47E0_000A2       25402  2                        IF    PIBFNOECHO,BEGIN    We need to do the CR...
 003D16 4110 873A/4100_      04262 25417  3                          SEG   =AL1($CR,$LF),2
 003D28                            25446  2                        END
 003D28                            25450  1                      END
 003D28                            25454                       END
1ELF      (ELF2047) (12:35) (15MAR04) ELF Interface                                                                         Page  105
0Current Usings:  (*,R8) (SCB,R9) (PIB,R10) (FEB,R11) (CV,R12) (RCHKWA-@@,R13)
0Loc    Object Code    Addr1 Addr2  Stmt Lv Lineno    Source Statement           (Hibal 5, Asmedit 3.3)  HLASM R4.0  2004/03/15 12.35
+___    ______ ____    _____ _____  ____ __ ______    ______ _________
0                                  25458                       ¿þþþþþþþþþþþþþþþþþþþþþþþþþþþþþþþþþþþþþþþþþþþþþþþþþþþþþÜ
                                   25459                       Ÿ  End the read on the ending character and send the  Ÿ
                                   25460                       Ÿ    data to the subsystem now.                       Ÿ
                                   25461                       ¾þþþþþþþþþþþþþþþþþþþþþþþþþþþþþþþþþþþþþþþþþþþþþþþþþþþþþ»
 003D28 5840 C060            00060 25462              RCHKSEND L     R4,CVPDBP
 USING  PDB,R4                     25463                       WITH  (PDB,R4),BEGIN
 003D2C D737 4000 4000 00000 00000 25477  1                      CLEAR PDBHDR
 003D32 9242 4006      00006       25484  1                      MVI   PDBCMD,FMILREAD     Read completion
 003D36 5920 870C/4770_      04234 25485  1                      IF    (R2,EQ,$CTRLC),'SET PDBCPLA.CPLAATTN'  Attn
 003D42 9110 A0A1/47E0_000A1       25514  1                      IF    PIBFHALT,BEGIN      Ended with break...
 003D4A 9610 400C      0000C       25529  2                        SET   PDBCPLA.CPLABRK     Set I/O completion status
 003D4E 94EF A0A1      000A1       25536  2                        CLEAR PIBFHALT            Reset
 003D52                            25543  1                      END
                                   25547  1
 003D52 5810 A120/5800_      00120 25548  1                      SETMSG L:PIBINSGLOC,L:PIBINSGMRKF  Input data
                                   25560  1
 003D5A 58F0 A108            00108 25561  1                      L     R15,PIBINSGMRKF     Number of characters we processed
 003D5E 5920 8714/4770_      0423C 25562  1                      IF    (R2,EQ,$CRLF),'LA R15,@R15+2'  Skip CR/LF chars
 003D6A 8246/47F0 8252_03D6A 03D64 25585  1                      ELSEIF (R2,NE,$STOP),'LA R15,@R15+1'  Skip ending char
                                   25617  1
 003D7A 9120 90B7/47E0_000B7       25618  1                      IF    SCBMODD.MODDTRAN,BEGIN  Transparent...
 003D82 9108 90B4/47E0_000B4       25634  2                        IF    SCBMODA.MODABUF,BEGIN  Return a full buffer...
 003D8A 58F0 A10C            0010C 25650  3                          L     R15,PIBINSGLENF     Accept the full buffer
 003D8E 49F0 90BE/47D0_      000BE 25651  3                          CEIL  R15,SCBINCT         But not more than asked for
 003D9A                            25657  2                        END
                                   25661  2
 003D9A 180F                       25662  2                        LR    R0,R15              Process any data characters
 003D9C                            25663  1                      END
                                   25667  1
 003D9C 50F0 A108            00108 25668  1                      ST    R15,PIBINSGMRKF     Update length of processed buffer
                                   25669  1
 003DA0 41F0 4038            00038 25670  1                      LA    R15,PDBTEXT         Put translated text here
 003DA4 58E0 871C/0DEE       04244 25671  1                      ACALL INPROC              Process input text
 003DAA 41F0 0038            00038 25675  1                      LA    R15,L'PDBHDR
 003DAE 1AF0                       25676  1                      AR    R15,R0              Total response PDB length
 003DB0 40F0 4000            00000 25677  1                      STH   R15,PDBLENG
                                   25678  1                      ¿þþþþþþþþþþþþþþþþþþþþþþþþþþþþþþþþþþþþþþÜ
                                   25679  1                      Ÿ  Remove read text from input queue.  Ÿ
                                   25680  1                      ¾þþþþþþþþþþþþþþþþþþþþþþþþþþþþþþþþþþþþþþ»
 003DB4 58F0 A108            00108 25681  1                      L     R15,PIBINSGMRKF     Number of characters we processed
                                   25682  1
 003DB8 59F0 A10C/4750_      0010C 25683  1                      IF    (R15,GE,PIBINSGLENF),BEGIN  No more input left...
 003DC0 5810 A120/1211       00120 25700  2                        LT    R1,PIBINSGLOC
 003DC6 4770 82C4/FEDC_      03DEC 25704  2                        FAIL  Z,'Telnet READCHK buffer problem.'
 003DEC 58E0 8720/0DEE       04248 25724  2                        VCALL FREECORE            Free input buffer
 003DF2 1B33/5030 A10C_            25728  2                        CLEAR R3,PIBINSGLENF,PIBINSGMRKF,PIBINSGMAXF,PIBINSGLOC
 003E04                            25752  1                      END
                                   25756  1
 003E04 82E0/47F0 8302 03E04 03DBE 25757  1                      ELSE  BEGIN               Move residual read text up...
 003E08 5860 A120            00120 25768  2                        L     R6,PIBINSGLOC       Start of buffer
 003E0C 1826                       25769  2                        LR    R2,R6
 003E0E 1A2F                       25770  2                        AR    R2,R15              Data we want to keep starts here
 003E10 5850 A10C            0010C 25771  2                        L     R5,PIBINSGLENF      Data length
 003E14 1B5F                       25772  2                        SR    R5,R15              Deduct data we are deleting
1ELF      (ELF2047) (12:35) (15MAR04) ELF Interface                                                                         Page  106
0Current Usings:  (PDB,R4) (*,R8) (SCB,R9) (PIB,R10) (FEB,R11) (CV,R12) (RCHKWA-@@,R13)
0Loc    Object Code    Addr1 Addr2  Stmt Lv Lineno    Source Statement           (Hibal 5, Asmedit 3.3)  HLASM R4.0  2004/03/15 12.35
+___    ______ ____    _____ _____  ____ __ ______    ______ _________
0003E16 18E6/18F5/1802_            25773  2                        MOVEL @R6,@R2,(R5)        Move data over (delete old text)
 003E20 5050 A10C            0010C 25795  2                        ST    R5,PIBINSGLENF      Save updated data length
 003E24 D703 A108 A108 00108 00108 25796  2                        CLEAR PIBINSGMRKF         Reset read scan index
 003E2A                            25803  1                      END
                                   25807  1                      ¿þþþþþþþþþþþþþþþþþþþþþþþþþþþþþþþþþþþþþþþþþþþþþþþþþþþþþþþþþÜ
                                   25808  1                      Ÿ  If we have reduced our buffered data enough then tell  Ÿ
                                   25809  1                      Ÿ    Amelia to start sending again.                       Ÿ
                                   25810  1                      ¾þþþþþþþþþþþþþþþþþþþþþþþþþþþþþþþþþþþþþþþþþþþþþþþþþþþþþþþþþ»
 003E2A 9120 A0A2/47E0_000A2       25811  1                      IF    PIBFINSTOP,BEGIN    We told Amelia to stop...
 003E32 D503 8724 A10C_0424C 0010C 25826  2                        IF    (PIBINSGLENF,GT,PIBINLO#),EXIT  Still too much, scram
 003E3C 94DF A0A2      000A2       25847  2                        CLEAR PIBFINSTOP          We are no longer stopped
                                   25854  2
 003E40 41F0 B13C/58E0_      0013C 25855  2                        SEGCLR FEBUSG
 003E4A 9680 B0B8      000B8       25868  2                        SET   FEBFCTRL            Segging control info
 003E4E 4110 86E0/4100_      04208 25874  2                        SEG   LA:=CL16'TCP_START:',16
 003E60 4110 A0F4/4100_      000F4 25901  2                        SEG   PIBAID              Amelia connection ID
 003E72 1B00/41F0 B13C_            25928  2                        SEGWR
 003E7E 947F B0B8      000B8       25952  2                        CLEAR FEBFCTRL            Reset
 003E82                            25959  1                      END
                                   25963  1
 003E82 47F0 8380            03EA8 25964  1                      B     RCHKCOMP
 DROP   PDB,R4                     25965                       END
                                   25973                       ¿þþþþþþþþþþþþþþþþþþþþþþþþþþþþþþþþþþþþþþþþþþþþþþþþÜ
                                   25974                       Ÿ  Check for halt (we only get here if there is  Ÿ
                                   25975                       Ÿ    no read data).                              Ÿ
                                   25976                       ¾þþþþþþþþþþþþþþþþþþþþþþþþþþþþþþþþþþþþþþþþþþþþþþþþ»
 003E86 9150 A0A1/47E0_000A1       25977              RCHKEND  IF    PIBFREAD*PIBFHALT,BEGIN  Read and halting...
 003E8E 5840 C060            00060 25996  1                      L     R4,CVPDBP
 USING  PDB,R4                     25997  1                      WITH  (PDB,R4)
 003E92 D201 4000 873C 00000 04264 26010  1                      MVC   PDBLENG,=AL2(L'PDBHDR)  Standard PDB length
 003E98 D730 4007 4007 00007 00007 26011  1                      CLEAR PDBOPT
 003E9E D200 4006 90B3 00006 000B3 26018  1                      MVC   PDBCMD,SCBCMD       Set operation code
 003EA4 9610 400C      0000C       26019  1                      SET   PDBCPLA.CPLABRK     Read ended by break
                                   26026  1                      ¿þþþþþþþþþþþþþþþþþþþþþþþþþþþþþþþþþþþþþþþþþÜ
                                   26027  1                      Ÿ  Send read response text to subsystem.  Ÿ
                                   26028  1                      ¾þþþþþþþþþþþþþþþþþþþþþþþþþþþþþþþþþþþþþþþþþ»
 003EA8 94BF A0A1      000A1       26029  1           RCHKCOMP   CLEAR PIBFREAD            No read pending now
                                   26037  1
 003EAC 5840 C060            00060 26038  1                      L     R4,CVPDBP           Response PDB already built
                                   26039  1                      WITH  (PDB,R4)
                                   26043  1
 003EB0 4110 B09C/4DE0_      0009C 26044  1                      XTRACE FEBTRCP,TERMRCMP   Trace read completion
 USING  TTRC,R15                   26055  1                      WITH  (TTRC,R15),BEGIN
 003EBE D207 F010 A034 00010 00034 26069  2                        MVC   TTRCPNAM,PIBNAME
 003EC4 D203 F018 90F4 00018 000F4 26070  2                        MVC   TTRCSID,SCBID
 003ECA D204 F01C 9124 0001C 00124 26071  2                        MVC   TTRCSACC,SCBACCT
 003ED0 D200 F021 90B3 00021 000B3 26072  2                        MVC   TTRCCMD,SCBCMD
 003ED6 D201 F024 4000 00024 00000 26073  2                        MVC   TTRCTLEN,PDBLENG
 003EDC D213 F026 4038 00026 00038 26074  2                        MVC   TTRCTEXT,PDBTEXT
 DROP   TTRC,R15                   26075  1                      END
                                   26083  1
 003EE2 4110 A090/4DE0_      00090 26084  1                      XTRACE PIBTRCP
 USING  TTRCP,R15                  26094  1                      WITH  (TTRCP,R15),BEGIN
 003EEA 92C6 F007      00007       26108  2                        MVI   TTRCPTYP,C'F'       F = FROMAMY
1ELF      (ELF2047) (12:35) (15MAR04) ELF Interface                                                                         Page  107
0Current Usings:  (PDB,R4) (*,R8) (SCB,R9) (PIB,R10) (FEB,R11) (CV,R12) (RCHKWA-@@,R13) (TTRCP,R15)
0Loc    Object Code    Addr1 Addr2  Stmt Lv Lineno    Source Statement           (Hibal 5, Asmedit 3.3)  HLASM R4.0  2004/03/15 12.35
+___    ______ ____    _____ _____  ____ __ ______    ______ _________
0003EEE D200 F008 4006 00008 00006 26109  2                        MVC   TTRCPCMD,PDBCMD
 003EF4 D201 F00A 400C 0000A 0000C 26110  2                        MVC   TTRCPCPL,PDBCPL
 003EFA D201 F00C 4000 0000C 00000 26111  2                        MVC   TTRCPLEN,PDBLENG
 DROP   TTRCP,R15                  26112  1                      END
                                   26120  1
 003F00 4110 9000            00000 26121  1                      LA    R1,SCB
 003F04 41F0 4000            00000 26122  1                      LA    R15,PDB
 003F08 58E0 8730/0DEE       04258 26123  1                      VCALL SUBSEND             Send completion
 DROP   PDB,R4                     26127                       END
                                   26136                       ¿þþþþþþþþþþþþþþþþþþþþþþþþþþþþþþþþþþþþþþþþþþþþþþþþþþþþþþþþþÜ
                                   26137                       Ÿ  Check for read still pending with no new data and end  Ÿ
                                   26138                       Ÿ    of file.                                             Ÿ
                                   26139                       ¾þþþþþþþþþþþþþþþþþþþþþþþþþþþþþþþþþþþþþþþþþþþþþþþþþþþþþþþþþ»
 003F0E 9160 A0A1/47E0_000A1       26140                       IF    PIBFREAD*PIBFREOF,BEGIN  Read and eof pending...
 003F16 D503 A108 A10C_00108 0010C 26158  1                      IF    (PIBINSGMRKF,LT,PIBINSGLENF),EXIT  Still more, scram
                                   26179  1
 003F20 4110 9000            00000 26180  1                      LA    R1,SCB
 003F24 58E0 8734/0DEE       0425C 26181  1                      VCALL KILLSESS            Send in logoff request now
 003F2A                            26185                       END
                                   26189                       ¿þþþþþþþþþþþþþþþþþþþþþþþþþþþþþþþþþþþþþþþþþþþþÜ
                                   26190                       Ÿ  Write out any characters we are echoing.  Ÿ
                                   26191                       ¾þþþþþþþþþþþþþþþþþþþþþþþþþþþþþþþþþþþþþþþþþþþþ»
 003F2A D603 B148 B148_00148 00148 26192                       IF    (FEBUSGLENF,NZ),BEGIN  Write out buffer...
 003F34 1B00/41F0 B13C_            26208  1                      SEGWR
 003F40                            26232                       END
                                   26236
 003F40 41D0 D034/982B_      00034 26237                       PEND
 DROP   SCB,R9
 DROP   PIB,R10
 DROP   FEB,R11
 DROP   RCHKWA-@@,R13
 DROP   *,R8
                                   26278
                                   26279                       SEGDEF  DUMMY             (Safety)
-                                  26281                       ¿þþþþþþþþþþþþþþþþþþþþþþþþþþþþþþþþþÜ
                                   26282                       Ÿ  Read ending character tables.  Ÿ
                                   26283                       ¾þþþþþþþþþþþþþþþþþþþþþþþþþþþþþþþþþ»
 003F54 0000000000000000           26284              READTRT  DC    256X'00'            Non-zero for ending chars
 004054                04054 03F57 26285                       ORG   READTRT+$CTRLC
 003F57 03                         26286                       DC    AL1($CTRLC)         Control-C
 003F58                03F58 03FD7 26287                       ORG   READTRT+$CTRLC+128
 003FD7 03                         26288                       DC    AL1($CTRLC)         Control-C (with parity on)
 003FD8                03FD8 03F5E 26289                       ORG   READTRT+$LF
 003F5E 0A                         26290                       DC    AL1($LF)            LF
 003F5F                03F5F 03FDE 26291                       ORG   READTRT+$LF+128
 003FDE 0A                         26292                       DC    AL1($LF)            LF (with parity on)
 003FDF                03FDF 03F61 26293                       ORG   READTRT+$CR
 003F61 0D                         26294                       DC    AL1($CR)            CR
 003F62                03F62 03FE1 26295                       ORG   READTRT+$CR+128
 003FE1 0D                         26296                       DC    AL1($CR)            CR (with parity on)
 003FE2                03FE2 04054 26297                       ORG
                                   26298
1ELF      (ELF2047) (12:35) (15MAR04) ELF Interface                                                                         Page  108
0Current Usings:  (CV,R12)
0Loc    Object Code    Addr1 Addr2  Stmt Lv Lineno    Source Statement           (Hibal 5, Asmedit 3.3)  HLASM R4.0  2004/03/15 12.35
+___    ______ ____    _____ _____  ____ __ ______    ______ _________
0004054 0000000000000000           26299              READTRTD DC    256X'00'            Non-zero for ending chars
 004154                04154 0405E 26300                       ORG   READTRTD+$LF
 00405E 0A                         26301                       DC    AL1($LF)            LF
 00405F                0405F 040DE 26302                       ORG   READTRTD+$LF+128
 0040DE 0A                         26303                       DC    AL1($LF)            LF (with parity on)
 0040DF                040DF 04061 26304                       ORG   READTRTD+$CR
 004061 0D                         26305                       DC    AL1($CR)            CR
 004062                04062 040E1 26306                       ORG   READTRTD+$CR+128
 0040E1 0D                         26307                       DC    AL1($CR)            CR (with parity on)
 0040E2                040E2 04154 26308                       ORG
                                   26309
                                   26310                       SEGDEF DUMMY              (Safety)
1ELF      (ELF2047) (12:35) (15MAR04) ELF Interface                                                                         Page  109
0Current Usings:  (CV,R12)
0Loc    Object Code    Addr1 Addr2  Stmt Lv Lineno    Source Statement           (Hibal 5, Asmedit 3.3)  HLASM R4.0  2004/03/15 12.35
+___    ______ ____    _____ _____  ____ __ ______    ______ _________
0                                  26312              ¿þþþþþþþþþþþþþþþþþþþþþþþþþþþþþþþþþþþþþþþþþþþþþþþþþþþþþþþþþþþþþþþþþþþþþÜ
                                   26313              Ÿ                                                                     Ÿ
                                   26314              Ÿ  IDLEATTN -- Local routine to send idle attention to subsytem.      Ÿ
                                   26315              Ÿ                                                                     Ÿ
                                                      ¾þþþþþþþþþþþþþþþþþþþþþþþþþþþþþþþþþþþþþþþþþþþþþþþþþþþþþþþþþþþþþþþþþþþþþ»
0004154 50E0 D044/902B_      00044 26316              IDLEATTN PROC
 USING  *,R8
 USING  FEB,R11                    26352                       WITH  FEB,PIB             (Entry assumptions)
 USING  PIB,R10
                                   26373
 00416E 5890 A00C/1299       0000C 26374                       LT    SCBR,PIBSCBP        Get SCB ptr
 004174 4780 8096            041F4 26378                       IF    NZ,BEGIN            We have a session...
 USING  SCB,R9                     26389  1                      WITH  SCB
 004178 5830 C060            00060 26401  1                      L     R3,CVPDBP
 USING  PDB,R3                     26402  1                      WITH  (PDB,R3)
 00417C D737 3000 3000 00000 00000 26415  1                      CLEAR PDBHDR
 004182 D201 3000 8106 00000 04264 26422  1                      MVC   PDBLENG,=AL2(L'PDBHDR)
 004188 9250 3006      00006       26423  1                      MVI   PDBCMD,FMILASYN     Asynchronous response
 00418C 9620 300D      0000D       26424  1                      SET   PDBCPLB.CPLBIA      Idle attention
                                   26431  1
 004190 4110 B09C/4DE0_      0009C 26432  1                      XTRACE FEBTRCP,TERMCMP3   Trace completion
 USING  TTRC,R15                   26443  1                      WITH  (TTRC,R15),BEGIN
 00419E D207 F010 A034 00010 00034 26457  2                        MVC   TTRCPNAM,PIBNAME
 0041A4 D203 F018 90F4 00018 000F4 26458  2                        MVC   TTRCSID,SCBID
 0041AA D204 F01C 9124 0001C 00124 26459  2                        MVC   TTRCSACC,SCBACCT
 0041B0 D200 F021 3006 00021 00006 26460  2                        MVC   TTRCCMD,PDBCMD
 0041B6 D201 F022 300C 00022 0000C 26461  2                        MVC   TTRCCPL,PDBCPL
 0041BC D201 F024 3000 00024 00000 26462  2                        MVC   TTRCTLEN,PDBLENG
 0041C2 D213 F026 3038 00026 00038 26463  2                        MVC   TTRCTEXT,PDBTEXT
 DROP   TTRC,R15                   26464  1                      END
                                   26472  1
 0041C8 4110 A090/4DE0_      00090 26473  1                      XTRACE PIBTRCP
 USING  TTRCP,R15                  26483  1                      WITH  (TTRCP,R15),BEGIN
 0041D0 92C6 F007      00007       26497  2                        MVI   TTRCPTYP,C'F'       F = FROMAMY
 0041D4 D200 F008 3006 00008 00006 26498  2                        MVC   TTRCPCMD,PDBCMD
 0041DA D201 F00A 300C 0000A 0000C 26499  2                        MVC   TTRCPCPL,PDBCPL
 0041E0 D201 F00C 3000 0000C 00000 26500  2                        MVC   TTRCPLEN,PDBLENG
 DROP   TTRCP,R15                  26501  1                      END
                                   26509  1
 0041E6 4110 9000            00000 26510  1                      LA    R1,SCB
 0041EA 41F0 3000            00000 26511  1                      LA    R15,PDB
 0041EE 58E0 80FA/0DEE       04258 26512  1                      VCALL SUBSEND             Send PDB to subsystem
 DROP   PDB,R3                     26516                       END
 DROP   SCB,R9
 0041F4 41D0 D030/982B_      00030 26530                       PEND
 DROP   PIB,R10
 DROP   FEB,R11
 DROP   *,R8
                                   26560
                                   26561                       QLTORG
1ELF      (ELF2047) (12:35) (15MAR04) ELF Interface                                                                         Page  110
0Current Usings:  (CV,R12)
0Loc    Object Code    Addr1 Addr2  Stmt Lv Lineno    Source Statement           (Hibal 5, Asmedit 3.3)  HLASM R4.0  2004/03/15 12.35
+___    ______ ____    _____ _____  ____ __ ______    ______ _________
0                                  26596              ¿þþþþþþþþþþþþþþþþþþþþþþþþþþþþþþþþþþþþþþþþþþþþþþþþþþþþþþþþþþþþþþþþþþþþþÜ
                                   26597              Ÿ                                                                     Ÿ
                                   26598              Ÿ  ELFCMD -- Routine to process Telnet commands; the scanner          Ÿ
                                   26599              Ÿ    is all set up to scan the command.                               Ÿ
                                   26600              Ÿ                                                                     Ÿ
                                   26601              Ÿ    On entry:                                                        Ÿ
                                   26602              Ÿ      R1 - FEB ptr                                                   Ÿ
                                   26603              Ÿ      R15- SEGCB ptr                                                 Ÿ
                                   26604              Ÿ                                                                     Ÿ
                                                      ¾þþþþþþþþþþþþþþþþþþþþþþþþþþþþþþþþþþþþþþþþþþþþþþþþþþþþþþþþþþþþþþþþþþþþþ»
0004274 50E0 D044/902B_      00044 26605              ELFCMD   XPROC
 USING  *,R8
 00428E 18B1                       26643                       LR    FEBR,R1
 USING  FEB,R11                    26644                       WITH  FEB
 004290 187F                       26656                       LR    R7,R15              Segcb ptr
 USING  SEGCB,R7                   26657                       WITH  (SEGCB,R7)
                                   26670                       SEGDEF (R7)
                                   26671
 004292 58E0 8692/0DEE       04910 26672                       ACALL ELFFMT              !!! Temporary !!!
                                   26676
 004298 41D0 D030/982B_      00030 26677                       PEND
 DROP   SEGCB,R7
 DROP   FEB,R11
 DROP   *,R8
1ELF      (ELF2047) (12:35) (15MAR04) ELF Interface                                                                         Page  111
0Current Usings:  (CV,R12)
0Loc    Object Code    Addr1 Addr2  Stmt Lv Lineno    Source Statement           (Hibal 5, Asmedit 3.3)  HLASM R4.0  2004/03/15 12.35
+___    ______ ____    _____ _____  ____ __ ______    ______ _________
0                                  26708              ¿þþþþþþþþþþþþþþþþþþþþþþþþþþþþþþþþþþþþþþþþþþþþþþþþþþþþþþþþþþþþþþþþþþþþþÜ
                                   26709              Ÿ                                                                     Ÿ
                                   26710              Ÿ  ELFFMT -- Routine to do control block formatting.                  Ÿ
                                   26711              Ÿ                                                                     Ÿ
                                   26712              Ÿ    On entry:                                                        Ÿ
                                   26713              Ÿ      R1 - FEB ptr                                                   Ÿ
                                   26714              Ÿ      R15- SEGCB ptr                                                 Ÿ
                                   26715              Ÿ                                                                     Ÿ
                                                      ¾þþþþþþþþþþþþþþþþþþþþþþþþþþþþþþþþþþþþþþþþþþþþþþþþþþþþþþþþþþþþþþþþþþþþþ»
00042AC 50E0 D044/902B_      00044 26716              ELFFMT   XPROC
 USING  *,R8
 0042C6 18B1                       26754                       LR    FEBR,R1
 USING  FEB,R11                    26755                       WITH  FEB
 0042C8 187F                       26767                       LR    R7,R15              SEGCB ptr
 USING  SEGCB,R7                   26768                       WITH  (SEGCB,R7)
                                   26781                       SEGDEF (R7)
                                   26782
 0042CA 181B/4100 0008_            26783                       SEGHX (FEBR),8
 0042D8 4110 86A4/4100_      0495A 26805                       SEG   '  '
 0042E8 4110 B014/4100_      00014 26820                       SEGTB FEBNAME
 0042F8 4110 86F0/4100_      049A6 26846                       SEG   'front-end, '
 004308 4810 B076/1B00_      00076 26861                       SEGDC LH:FEBPMAX
 004316 4110 86FB/4100_      049B1 26879                       SEGB  ' ports '
 004326 9140 B00C/4710_0000C       26895                       IF    ~FEBFOPEN,'SEGB "** Not open **"'
 00433E D502 8702 B000_049B8 00000 26931                       IF    (FEB,NE,'FEB'),'SEGB "** Invalid **"'
 004358 1B00/18F7/58E0_            26969                       SEGWR
                                   26991
 004362 5850 B098            00098 26992                       L     R5,FEBPATP          Start
 004366 4860 B076            00076 26993                       LH    R6,FEBPMAX
 00436A 8960 0002            00002 26994                       SLL   R6,2
 00436E 1A65                       26995                       AR    R6,R5               End
 004370 1956/47B0 82BE             26996                       WHILE (R5,LT,R6),BEGIN
 004376 58A0 5000/12AA_      00000 27013  1                      IF    ('LT PIBR,@R5',NZ),BEGIN
 USING  PIB,R10                    27029  2                        WITH  PIB
 004380 4100 0003/18F7_      00003 27041  2                        SEGCOL 3
 00438C 181A/4100 0008_            27059  2                        SEGHX (PIBR),8
 00439A 4110 86B4/4100_      0496A 27081  2                        SEG   ' Port '
 0043AA 18F5                       27096  2                        LR    R15,R5
 0043AC 5BF0 B098            00098 27097  2                        S     R15,FEBPATP
 0043B0 88F0 0002            00002 27098  2                        SRL   R15,2
 0043B4 181F/1B00/18F7_            27099  2                        SEGDC (R15)
 0043C0 1B00/18F7/58E0_            27118  2                        SEGB
 0043CA 4110 A034/4100_      00034 27140  2                        SEGB  PIBNAME
                                   27166  2
 0043DA 5890 A00C/1299_      0000C 27167  2                        IF    ('LT SCBR,PIBSCBP',NZ),BEGIN
 USING  SCB,R9                     27183  3                          WITH  SCB
 0043E4 4110 8642/4100_      048F8 27195  3                          SEGB  'Session:'
 0043F4 4110 9127/4100_      00127 27211  3                          SEG   SCBGRP
 004404 4110 8712/4100_      049C8 27236  3                          SEG   '.'
 004414 4110 9124/4100_      00124 27251  3                          SEG   SCBUSER
 004424 1F22/BF23 9129_            27276  3                          IF    ('L2 R2,SCBANO',NZ),'SEG "#"; SEGDC (R2)'
 DROP   SCB,R9                     27335  2                        END
 00444A 1B00/18F7/58E0_            27344  2                        SEGWR
1ELF      (ELF2047) (12:35) (15MAR04) ELF Interface                                                                         Page  112
0Current Usings:  (SEGCB,R7) (*,R8) (PIB,R10) (FEB,R11) (CV,R12)
0Loc    Object Code    Addr1 Addr2  Stmt Lv Lineno    Source Statement           (Hibal 5, Asmedit 3.3)  HLASM R4.0  2004/03/15 12.35
+___    ______ ____    _____ _____  ____ __ ______    ______ _________
0                                  27366  2
 004454 4110 C141/4100_      00141 27367  2                        SEG   CVBLANKS,10
 004464 4110 86BA/4100_      04970 27394  2                        SEG   'Input buf='
 004474 5810 A120/4100_      00120 27409  2                        SEGHX L:PIBINSGLOC,8
 004484 4110 86C4/4100_      0497A 27431  2                        SEG   ', len='
 004494 5810 A10C/1B00_      0010C 27446  2                        SEGDC L:PIBINSGLENF
 0044A2 4110 867A/4100_      04930 27465  2                        SEG   ', read mark='
 0044B2 5810 A108/1B00_      00108 27480  2                        SEGDC L:PIBINSGMRKF
 0044C0 4110 86CA/4100_      04980 27499  2                        SEG   ', max='
 0044D0 5810 A104/1B00_      00104 27514  2                        SEGDC L:PIBINSGMAXF
 0044DE 1B00/18F7/58E0_            27533  2                        SEGWR
                                   27555  2
 0044E8 5820 A120/1222_      00120 27556  2                        IF    ('LT R2,PIBINSGLOC',NZ),BEGIN
 0044F2 4110 C141/4100_      00141 27572  3                          SEG   CVBLANKS,10
 004502 4110 864A/4100_      04900 27599  3                          SEG   'Buffer contents='
 004512 5810 2000/4100_      00000 27614  3                          SEGHX L:@R2,8
 004522 4110 8714/4100_      049CA 27636  3                          SEG   ' '
 004532 5810 2004/4100_      00004 27651  3                          SEGHX L:@R2+4,8
 004542 4110 8714/4100_      049CA 27673  3                          SEG   ' '
 004552 5810 2008/4100_      00008 27688  3                          SEGHX L:@R2+8,8
 004562 1B00/18F7/58E0_            27710  3                          SEGWR
 00456C                            27732  2                        END
 DROP   PIB,R10                    27736  1                      END
                                   27745  1
 00456C 4150 5004            00004 27746  1                      LA    R5,@R5+4
 004570 47F0 80BA            04370 27747                       END
 004574 4110 8714/4100_      049CA 27752                       SEGWR ' '
 004584 4110 8714/4100_      049CA 27768                       SEGWR ' '
                                   27784                       ¿þþþþþþþþþþþþþþþþþþþþþþþþÜ
                                   27785                       Ÿ  Display trace table.  Ÿ
                                   27786                       ¾þþþþþþþþþþþþþþþþþþþþþþþþ»
 004594 4110 86D0/4100_      04986 27787                       SEGWR 'Trace:'
 0045A4 D203 7010 8686 00010 0493C 27803                       MVC   SEGCBINDF,=F'25'
 0045AA 9846 B0A0            000A0 27804                       LM    R4,R6,FEBTRCP+4     R4=next, R5=first, R6=end
 0045AE                            27805                       LOOP  BEGIN
 0045AE 5B40 B09C            0009C 27811  1                      S     R4,FEBTRCP          Back up
 0045B2 1945/47B0 8308_            27812  1                      IF    (R4,LT,R5),'LR R4,R6; S R4,FEBTRCP'  last
 USING  TTRC,R4                    27834  1                      WITH  (TTRC,R4)
 0045BE D607 4000 4000_00000 00000 27847  1                      IF    (TTRCCLCK,Z),EXIT   All done
 0045C8 9801 4000            00000 27866  1                      LM    R0,R1,TTRCCLCK
 0045CC 4BD0 86D6/BED7_      0498C 27867  1                      PUSH  32,PTR=R15          L'hh:mm:ss.hh
 0045DC 58E0 868A/0DEE       04940 27874  1                      VCALL FMTTIME
 0045E2 18F7/58E0 866E_            27878  1                      SEGB  (R1),(R0)
 0045EA 41D0 D024/50D0_      00024 27900  1                      POP   32
 0045F2 4110 4010/4100_      00010 27905  1                      SETMSG TTRCPNAM            Port name
 0045FA D607 4010 4010_00010 00010 27919  1                      IF    (TTRCPNAM,Z),'LA R1,CVBLANKS'  No port--use blanks
 004608 18F7/58E0 866E_            27941  1                      SEGB  (R1),(R0)
 004610 4110 4008/4100_      00008 27963  1                      SEGB  TTRCNAME            Trace name
                                   27989  1
 004620 D503 868E 4008_04944 00008 27990  1                      IF    (TTRCNAME,EQ,'TERM'),BEGIN
 00462A D604 401C 401C_0001C 0001C 28007  2                        IF    (TTRCSACC,Z),'SEG "------"'
 004644 8392/47F0 83C2 04644 04632 28043  2                        ELSE  BEGIN
 004648 4110 401F/4100_      0001F 28054  3                          SEG   TTRCSACC+3,2
 004658 4110 8712/4100_      049C8 28081  3                          SEG   '.'
1ELF      (ELF2047) (12:35) (15MAR04) ELF Interface                                                                         Page  113
0Current Usings:  (TTRC,R4) (SEGCB,R7) (*,R8) (FEB,R11) (CV,R12)
0Loc    Object Code    Addr1 Addr2  Stmt Lv Lineno    Source Statement           (Hibal 5, Asmedit 3.3)  HLASM R4.0  2004/03/15 12.35
+___    ______ ____    _____ _____  ____ __ ______    ______ _________
0004668 4110 401C/4100_      0001C 28096  3                          SEG   TTRCSACC,3
 004678                            28123  2                        END
 004678 4110 8715/4100_      049CB 28127  2                        SEG   ','
 004688 5810 4018/1B00_      00018 28142  2                        SEGDC L:TTRCSID
 004696 1B00/18F7/58E0_            28161  2                        SEGB
 0046A0 9541 4021/4770_00021       28183  2                        IF    (TTRCCMD,EQ,TMILWRIT),'SEG "WRITE:"'
 0046B8 8406/47F0 841E_046B8 046A6 28221  2                        ELSEIF (TTRCCMD,EQ,TMILREAD),'SEG "READ:"'
 0046D4 8422/47F0 8444_046D4 046C2 28268  2                        ELSE  'SEG "CMD="; SEGHX IC:TTRCCMD,2'
 0046FA 1B00/18F7/58E0_            28326  2                        SEGB
 004704 4820 4024            00024 28348  2                        LH    R2,TTRCTLEN
 004708 4B20 86E4            0499A 28349  2                        SH    R2,=AL2(L'PDBHDR)
 00470C 4740 84A6            0475C 28350  2                        IF    ~NEG,BEGIN
 004710 4110 871B/4100_      049D1 28361  3                          SEG   'Length='
 004720 1812/1B00/18F7_            28376  3                          SEGDC (R2)
 00472C 1222/47D0 84A6             28395  3                          IF    (R2,POS),BEGIN
 004732 4110 8722/4100_      049D8 28409  4                            SEG   ', Text='
 004742 5920 8696/47D0_      0494C 28424  4                            CEIL  R2,L'TTRCTEXT
 00474E 4110 4026/1802_      00026 28443  4                            SEGT  TTRCTEXT,(R2)
 00475C                            28469  3                          END
 00475C                            28473  2                        END
 00475C                            28477  1                      END
                                   28481  1
 00475C D501 86E6 4008_0499C 00008 28482  1                      IF    (TTRCNAME,EQ,'IO'),BEGIN
 004766 4110 871B/4100_      049D1 28499  2                        SEG   'Length='
 004776 4810 4018/1B00_      00018 28514  2                        SEGDC LH:TTRCILEN         Total packet length
 004784 4110 86E8/4100_      0499E 28532  2                        SEG   ', '
 004794 4110 401A/4100_      0001A 28547  2                        SEG   TTRCIHDR            Header text
 0047A4 1B00/18F7/58E0_            28572  2                        SEGWR
 0047AE 4110 C141/4100_      00141 28594  2                        SEG   CVBLANKS,8
 0047BE BF1F 402A/4100_      0002A 28621  2                        SEGHX L4:TTRCIREM,8
 0047CE 4110 8714/4100_      049CA 28643  2                        SEG   ' '
 0047DE BF1F 402E/4100_      0002E 28658  2                        SEGHX L4:TTRCIREM+4,8
 0047EE 4110 8714/4100_      049CA 28680  2                        SEG   ' '
 0047FE BF1F 4032/4100_      00032 28695  2                        SEGHX L4:TTRCIREM+8,8
 00480E 4110 8714/4100_      049CA 28717  2                        SEG   ' '
 00481E BF1F 4036/4100_      00036 28732  2                        SEGHX L4:TTRCIREM+12,8
 00482E                            28754  1                      END
                                   28758  1
 00482E D505 86EA 4008_049A0 00008 28759  1                      IF    (TTRCNAME,EQ,'SETMSG'),BEGIN
 004838 4110 8729/4100_      049DF 28776  2                        SEG   '"'
 004848 4110 4018/4100_      00018 28791  2                        SEGT  TTRCMSG             Message text
 004858                            28817  1                      END
                                   28821  1
 004858 1B00/18F7/58E0_            28822  1                      SEGWR
                                   28844  1
 004862 5940 B0A0/4780_      000A0 28845  1                      UNTIL ('C R4,FEBTRCP+4',EQ)
 00486A 47F0 82F8            045AE 28862                       END
 DROP   TTRC,R4
 00486E D703 7010 7010 00010 00010 28872                       CLEAR SEGCBINDF           Reset indentation
                                   28879
 004874 41D0 D030/982B_      00030 28880                       PEND
 DROP   SEGCB,R7
 DROP   FEB,R11
 DROP   *,R8
1ELF      (ELF2047) (12:35) (15MAR04) ELF Interface                                                                         Page  114
0Current Usings:  (CV,R12)
0Loc    Object Code    Addr1 Addr2  Stmt Lv Lineno    Source Statement           (Hibal 5, Asmedit 3.3)  HLASM R4.0  2004/03/15 12.35
+___    ______ ____    _____ _____  ____ __ ______    ______ _________
0                                  28911              ¿þþþþþþþþþþþþþþþþþþþþþþþþþþþþþþþþþþþþþþþþþþþþþþþþþþþþþþþþþþþþþþþþþþþþþÜ
                                   28912              Ÿ                                                                     Ÿ
                                   28913              Ÿ  ELFERR -- Routine to do error recovery.                            Ÿ
                                   28914              Ÿ                                                                     Ÿ
                                   28915              Ÿ    On entry:                                                        Ÿ
                                   28916              Ÿ      R1 - FEB ptr                                                   Ÿ
                                   28917              Ÿ                                                                     Ÿ
                                   28918              Ÿ    On exit, R15 (and CC):                                           Ÿ
                                   28919              Ÿ      0 - attempt retry                                              Ÿ
                                   28920              Ÿ      4 - no retry, shutdown MILTEN                                  Ÿ
                                   28921              Ÿ                                                                     Ÿ
                                                      ¾þþþþþþþþþþþþþþþþþþþþþþþþþþþþþþþþþþþþþþþþþþþþþþþþþþþþþþþþþþþþþþþþþþþþþ»
0004888 50E0 D044/902B_      00044 28922              ELFERR   XPROC
 USING  *,R8
 0048A2 18B1                       28960                       LR    FEBR,R1
 USING  FEB,R11                    28961                       WITH  FEB
                                   28973
 0048A4 D727 C750 C750 00750 00750 28974                       CLEAR CVCUR
                                   28981
 0048AA 4110 B000            00000 28982                       LA    R1,FEB
 0048AE 58E0 80C2/0DEE       04954 28983                       ACALL ELFCLOSE            Release front-end
 0048B4 1BFF                       28987                       CLEAR R15                 Retry rc
 0048B6 41D0 D030/982B_      00030 28991                       PEND
 DROP   FEB,R11
 DROP   *,R8
1ELF      (ELF2047) (12:35) (15MAR04) ELF Interface                                                                         Page  115
0Current Usings:  (CV,R12)
0Loc    Object Code    Addr1 Addr2  Stmt Lv Lineno    Source Statement           (Hibal 5, Asmedit 3.3)  HLASM R4.0  2004/03/15 12.35
+___    ______ ____    _____ _____  ____ __ ______    ______ _________
0                                  29017              ¿þþþþþþþþþþþþþþþþþþþþþþþþþþþþþþþþþþþþþþþþþþþþþþþþþþþþþþþþþþþþþþþþþþþþþÜ
                                   29018              Ÿ                                                                     Ÿ
                                   29019              Ÿ  ELFDIE -- Routine to do final cleanup.  It is entered when         Ÿ
                                   29020              Ÿ    MILTEN is terminating.                                           Ÿ
                                   29021              Ÿ                                                                     Ÿ
                                   29022              Ÿ    On entry:                                                        Ÿ
                                   29023              Ÿ      R0 - 0: normal, 4: error                                       Ÿ
                                   29024              Ÿ      R1 - FEB ptr                                                   Ÿ
                                   29025              Ÿ                                                                     Ÿ
                                                      ¾þþþþþþþþþþþþþþþþþþþþþþþþþþþþþþþþþþþþþþþþþþþþþþþþþþþþþþþþþþþþþþþþþþþþþ»
00048CA 50E0 D044/902B_      00044 29026              ELFDIE   XPROC
 USING  *,R8
                                   29064                       ¿þþþþþþþþþþþþþþþþþþþþþþþþþþþþþþþþþÜ
                                   29065                       Ÿ  Nothing to do, simply return.  Ÿ
                                   29066                       ¾þþþþþþþþþþþþþþþþþþþþþþþþþþþþþþþþþ»
 0048E4 41D0 D030/982B_      00030 29067                       PEND
 DROP   *,R8
                                   29087
                                   29088                       QLTORG
1ELF      (ELF2047) (12:35) (15MAR04) ELF Interface                                                                         Page  116
0Current Usings:  (CV,R12)
0Loc    Object Code    Addr1 Addr2  Stmt Lv Lineno    Source Statement           (Hibal 5, Asmedit 3.3)  HLASM R4.0  2004/03/15 12.35
+___    ______ ____    _____ _____  ____ __ ______    ______ _________
0                                  29146              ¿þþþþþþþþþþþþþþþþþþþþþþþþþþþþþþþþþþþþþþþþþþþþþþþþþþþþþþþþþþþþþþþþþþþþþÜ
                                   29147              Ÿ                                                                     Ÿ
                                   29148              Ÿ  SETELF -- SET ELF command.                                         Ÿ
                                   29149              Ÿ                                                                     Ÿ
                                   29150              Ÿ    On entry:                                                        Ÿ
                                   29151              Ÿ       R1  - SCANCB ptr                                              Ÿ
                                   29152              Ÿ       R15 - SEGCB ptr                                               Ÿ
                                   29153              Ÿ                                                                     Ÿ
                                   29154              Ÿ    On exit, R15 (and cc):                                           Ÿ
                                   29155              Ÿ       0 - command OK                                                Ÿ
                                   29156              Ÿ       4 - command error                                             Ÿ
                                   29157              Ÿ                                                                     Ÿ
                                                      ¾þþþþþþþþþþþþþþþþþþþþþþþþþþþþþþþþþþþþþþþþþþþþþþþþþþþþþþþþþþþþþþþþþþþþþ»
0000000                00000 00090 29158              SETEWA   RECORD BEGIN
 000000 00                         29166  1           SETEFLAG   FLAG
 SETEFLAG.SETEFCRE 80 ONES         29170  1                      FLAG  SETEFCREATE         - CREATE new EIB
 SETEFLAG.SETEFDEL 40 ONES         29175  1                      FLAG  SETEFDELETE         - DELETE existing EIB
                                   29180  1
 000004                            29181  1           SETEPTR    DS    A                   Old EIB ptr (if it exists)
                                   29182  1
 000008                            29183  1           SETEEIB    DS    XL(L'EIB)           Working ELF information block
                                   29184  1           SETESC     SEGCB ,                   Working SEGCB
 000054 00                         29185  1 01-SEGCB +$$$SEGCB762   DS 0F
 SETESCCOD.SETESCS 01 EQ
 SETESCCOD.SETESCW 02 EQ
 SETESCCOD.SETESCC 03 EQ
 SETESCCOD.SETESCS 04 EQ
 SETESCCOD.SETESCO 05 EQ
 SETESCCOD.SETESCC 06 EQ
 SETESCCOD.SETESCM 07 EQ
 000055 00                         29260  1 01-SEGCB +           DC    X'00'               Reserved
 000056 0000                              1          +
 000058 00000000                   29261  1 01-SEGCB +SETESCMAXF   DC  A(0)                Maximum buffer length
 00005C 00000000                   29262  1 01-SEGCB +SETESCMRKF   DC  A(0)                Length at last mark
 000060 00000000                   29263  1 01-SEGCB +SETESCLENF   DC  A(0)                Current length
 000064 00000000                   29264  1 01-SEGCB +SETESCINDF   DC  A(0)                Overflow/indent count
 000068 00000000                   29265  1 01-SEGCB +SETESCERR   DC   A(0)                Address of error recovery routine
 00006C 0000000000000000           29266  1 01-SEGCB +           DC    2F'0'               Reserved
 000074 00000000                   29267  1 01-SEGCB +SETESCLOC   DC   A(0)                Location of buffer
 000078 00000000                   29268  1 01-SEGCB +SETESCRTN   DC   A(0)                Processing routine
 00007C 0000000000000000           29269  1 01-SEGCB +           DC    4F'0'               Reserved
 00008C 00000000                   29270  1 01-SEGCB +SETESCUSR   DC   A(0)                USER field
                                   29271  1 01-SEGCB +SETESC     EQU   $$$SEGCB762,*-$$$SEGCB762,C'X'
 000090                00090 00090 29272                       END
                                   29281              þþþþ
 0049E0 50E0 D044/902B_      00044 29282              SETELF   XPROC SETEWA
 USING  *,R8
 USING  SETEWA-@@,R13
 0049FA D78F D04C D04C 00000 00000 29331                       CLEAR SETEWA
                                   29338
 004A00 18BF                       29339                       LR    R11,R15
 USING  SEGCB,R11                  29340                       WITH  (SEGCB,R11)
                                   29353                       SEGDEF SEGCB
1ELF      (ELF2047) (12:35) (15MAR04) ELF Interface                                                                         Page  117
0Current Usings:  (*,R8) (SEGCB,R11) (CV,R12) (SETEWA-@@,R13)
0Loc    Object Code    Addr1 Addr2  Stmt Lv Lineno    Source Statement           (Hibal 5, Asmedit 3.3)  HLASM R4.0  2004/03/15 12.35
+___    ______ ____    _____ _____  ____ __ ______    ______ _________
0                                  29354
 004A02 18A1                       29355                       LR    R10,R1
 USING  SCANCB,R10                 29356                       WITH  (SCANCB,R10)
                                   29369
 004A04 4170 D054            00008 29370                       LA    R7,SETEEIB          Our EIB
 USING  EIB,R7                     29371                       WITH  (EIB,R7)
                                   29384                       ¿þþþþþþþþþþþþþþþþþþÜ
                                   29385                       Ÿ  Scan ELF name.  Ÿ
                                   29386                       ¾þþþþþþþþþþþþþþþþþþ»
 004A08 1B11/18FA/58E0_            29387                       SCAN  ,SCANCB
 004A12 47D0 83FC            04DE6 29403                       BNP   STEERR
 004A16 D20F 7008 C141 00008 00141 29404                       MVC   EIBNAME,CVBLANKS
 004A1C 1820                       29405                       LR    R2,R0
 004A1E 5920 843A/47D0_      04E24 29406                       CEIL  R2,L'EIBNAME
 004A2A 0620/1222/4740_            29425                       MOVE  R2,EIBNAME,@R1      Save ELF name
                                   29463
 004A36 4110 7008            00008 29464                       LA    R1,EIBNAME
 004A3A 58E0 843E/0DEE       04E28 29465                       ACALL GETEIB              Lookup EIB ptr
 004A40 4780 8064            04A4E 29469                       IF    NZ,BEGIN            Found it...
 004A44 50F0 D050            00004 29480  1                      ST    R15,SETEPTR         Save old EIB ptr
 004A48 D248 7000 F000 00000 00000 29481  1                      MVC   EIB,@R15            Use old EIB as template
 004A4E                            29482                       END
                                   29486                       ¿þþþþþþþþþþþþþþþþþþþþþÜ
                                   29487                       Ÿ  Scan ELF options.  Ÿ
                                   29488                       ¾þþþþþþþþþþþþþþþþþþþþþ»
 004A4E 4110 8226/18FA_      04C10 29489                       SCAN  STELFPRT,SCANCB
                                   29508                       ¿þþþþþþþþþþþþþþþþþþþþþþþþþþþþþþþþþþþþþþþÜ
                                   29509                       Ÿ  Create a new ELF information block.  Ÿ
                                   29510                       ¾þþþþþþþþþþþþþþþþþþþþþþþþþþþþþþþþþþþþþþþ»
 004A5A 9180 D04C/47E0_00000       29511                       IF    SETEFCREATE,BEGIN   Create...
 004A62 D603 D050 D050_00004 00004 29526  1                      IF    (SETEPTR,NZ),BEGIN
 004A6C 4110 7008/4100_      00008 29542  2                        SEGT  EIBNAME
 004A7C 4110 8416/4100_      04E00 29570  2                        SEG   ' already exists.'
 004A8C 1B00/18FB/58E0_            29587  2                        SEGWR
 004A96 47F0 8218            04C02 29611  2                        B     SETEERR
 004A9A                            29612  1                      END
                                   29616  1
 004A9A D603 7028 7028_00028 00028 29617  1                      IF    (EIBADDR,Z),BEGIN   No IP address...
 004AA4 4110 84B0/4100_      04E9A 29633  2                        SEG   'Missing IP=n.n.n.n for '
 004AB4 4110 7008/4100_      00008 29650  2                        SEGT  EIBNAME
 004AC4 47F0 8218            04C02 29678  2                        B     SETEERR
 004AC8                            29679  1                      END
                                   29683  1
 004AC8 D603 7030 7030_00030 00030 29684  1                      IF    (EIBSIP,NZ),BEGIN   Subnet specified...
 004AD2 D603 7034 7034_00034 00034 29700  2                        IF    (EIBSMASK,NZ),EXIT  Mask also specified, good
 004ADC 4110 844E/4100_      04E38 29719  2                        SEG   'SUBNET=n.n.n.n specifed without MASK=n.n.n.n'
 004AEC 4110 84C7/4100_      04EB1 29736  2                        SEG   ' for '
 004AFC 4110 7008/4100_      00008 29753  2                        SEGT  EIBNAME
 004B0C 47F0 8218            04C02 29781  2                        B     SETEERR
 004B10                            29782  1                      END
                                   29786  1
 004B10 D20F 7018 C141 00018 00141 29787  1                      MVC   EIBADDRF,CVBLANKS   EBCDIC formatted IP address
 004B16 4110 7018/4100_      00018 29788  1                      SEGINIT EIBADDRF,,.SETESC
 004B28 1F11/4310 7028_            29815  1                      SEGDC LC:EIBADDR,,.SETESC
1ELF      (ELF2047) (12:35) (15MAR04) ELF Interface                                                                         Page  118
0Current Usings:  (EIB,R7) (*,R8) (SCANCB,R10) (SEGCB,R11) (CV,R12) (SETEWA-@@,R13)
0Loc    Object Code    Addr1 Addr2  Stmt Lv Lineno    Source Statement           (Hibal 5, Asmedit 3.3)  HLASM R4.0  2004/03/15 12.35
+___    ______ ____    _____ _____  ____ __ ______    ______ _________
0004B3A 4110 84CC/4100_      04EB6 29841  1                      SEG   '.',,.SETESC
 004B4C 1F11/4310 7029_            29858  1                      SEGDC LC:EIBADDR+1,,.SETESC
 004B5E 4110 84CC/4100_      04EB6 29884  1                      SEG   '.',,.SETESC
 004B70 1F11/4310 702A_            29901  1                      SEGDC LC:EIBADDR+2,,.SETESC
 004B82 4110 84CC/4100_      04EB6 29927  1                      SEG   '.',,.SETESC
 004B94 1F11/4310 702B_            29944  1                      SEGDC LC:EIBADDR+3,,.SETESC
                                   29970  1
 004BA6 4110 7000            00000 29971  1                      LA    R1,EIB
 004BAA 58E0 8482/0DEE       04E6C 29972  1                      ACALL CREEIB              Create a new EIB
 004BB0 47F0 8220            04C0A 29976  1                      B     SETEOK
 004BB4                            29977                       END
                                   29981                       ¿þþþþþþþþþþþþþþþþþþþþþþþþþþþþþþþÜ
                                   29982                       Ÿ  Old EIB must already exist.  Ÿ
                                   29983                       ¾þþþþþþþþþþþþþþþþþþþþþþþþþþþþþþþ»
 004BB4 D603 D050 D050_00004 00004 29984                       IF    (SETEPTR,Z),BEGIN   Doesn't exist...
 004BBE 4110 7008/4100_      00008 30000  1                      SEGT  EIBNAME
 004BCE 4110 8426/4100_      04E10 30028  1                      SEG   ' does not exist.'
 004BDE 47F0 8218            04C02 30045  1                      B     SETEERR
 004BE2                            30046                       END
                                   30050                       ¿þþþþþþþþþþþþþþþþþþþþþþþþþþþþþþþþþþþþþþþþþþÜ
                                   30051                       Ÿ  Delete existing ELF information block.  Ÿ
                                   30052                       ¾þþþþþþþþþþþþþþþþþþþþþþþþþþþþþþþþþþþþþþþþþþ»
 004BE2 9140 D04C/47E0_00000       30053                       IF    SETEFDELETE,BEGIN   Delete...
 004BEA 58F0 D050            00004 30068  1                      L     R15,SETEPTR
 004BEE 58E0 8486/0DEE       04E70 30069  1                      ACALL DELEIB              Delete EIB
 004BF4 47F0 8220            04C0A 30073  1                      B     SETEOK
 004BF8                            30074                       END
                                   30078                       ¿þþþþþþþþþþþþþþþþþþþþþþþþþþþþþþþþþþþþþþþþþþÜ
                                   30079                       Ÿ  Modify existing ELF information block.  Ÿ
                                   30080                       ¾þþþþþþþþþþþþþþþþþþþþþþþþþþþþþþþþþþþþþþþþþþ»
 004BF8 58F0 D050            00004 30081                       L     R15,SETEPTR
 004BFC D240 F008 7008 00008 00008 30082                       MVC   @R15+EIBINFO-EIB(L'EIBINFO),EIBINFO  Update EIB
                                   30083
 004C02 41F0 0004            00004 30084              SETEERR  LA    R15,4               Error
 004C06 47F0 8400            04DEA 30085                       B     SETEEXIT
                                   30086
 004C0A 1BFF                       30087              SETEOK   CLEAR R15                 A-ok
 004C0C 47F0 8400            04DEA 30092                       B     SETEEXIT
                                   30093                       ¿þþþþþþþþþþþþþþþþþþþþÜ
                                   30094                       Ÿ  SET ELF Options.  Ÿ
                                   30095                       ¾þþþþþþþþþþþþþþþþþþþþ»
 004C10 0D004C90C3D9C5C1           30096              STELFPRT SCKW  CREATE,STECRE,A
 004C1A 0D004C96C4C5D3C5           30098                       SCKW  DELETE,STEDEL,A
 004C24 01004D84E4D7               30100                       SCKW  UP,STEUP
 004C2A 0B004D8AC4D6E6D5           30102                       SCKW  DOWN,STEDOWN,A
 004C32 0C004D90E2E3C1D9           30104                       SCKW  START,STESTART,A
 004C3B 0B004D96E2E3D6D7           30106                       SCKW  STOP,STESTOP,A
 004C43 89004C9CC9D7               30108                       SCKW  IP,STEIP,(A,P)
 004C49 CB004CE2D7D6D9E3           30110                       SCKW  PORT,STEPORT,(A,P,I)
 004C51 8D004CEAE2E4C2D5           30112                       SCKW  SUBNET,STESUBN,(A,P)
 004C5B 0F004D30D5D6E2E4           30114                       SCKW  NOSUBNET,CLRSUBN,A
 004C67 8E004D3EE2E4C2D4           30116                       SCKW  SUBMASK,STESUBM,(A,P)
 004C72 CC004D9CC3D6E4D5           30118                       SCKW  COUNT,STECOUNT,(A,P,I)
 004C7B CB004DB4C2C9C1E2           30120                       SCKW  BIAS,STEBIAS,(A,P,I)
1ELF      (ELF2047) (12:35) (15MAR04) ELF Interface                                                                         Page  119
0Current Usings:  (EIB,R7) (*,R8) (SCANCB,R10) (SEGCB,R11) (CV,R12) (SETEWA-@@,R13)
0Loc    Object Code    Addr1 Addr2  Stmt Lv Lineno    Source Statement           (Hibal 5, Asmedit 3.3)  HLASM R4.0  2004/03/15 12.35
+___    ______ ____    _____ _____  ____ __ ______    ______ _________
0004C83 CC004DBCD3C9D4C9           30122                       SCKW  LIMIT,STELIMIT,(A,P,I)
 004C8C FF004DC4                   30124                       SCKW  ,STEINV
                                   30126              þþþþ
 004C90 9680 D04C      00000       30127              STECRE   SET   SETEFCREATE
 004C94 07FE                       30134                       BR    RAR
                                   30135
 004C96 9640 D04C      00000       30136              STEDEL   SET   SETEFDELETE
 004C9A 07FE                       30143                       BR    RAR
                                   30144
 004C9C                            30145              STEIP    LABEL
 004C9C 90EF D040/4BD0_      00040 30147                       PUSH  (RAR,R15)
 004CAC 58E0 848A/0DEE       04E74 30155                       ACALL CNVTIP              Convert IP address to binary
 004CB2 50F0 7028            00028 30159                       ST    R15,EIBADDR         Save IP address
 004CB6 41D0 D00C/98EF_      0000C 30160                       POP   (RAR,R15)
 004CC2 D603 7028 7028_00028 00028 30167                       IF    (EIBADDR,Z),'SEGWR "Invalid IP address."; B STEERR'
 004CE0 07FE                       30207                       BR    RAR
                                   30208
 004CE2 D203 702C A000 0002C 00000 30209              STEPORT  MVC   EIBPORT,SCNVAL
 004CE8 07FE                       30210                       BR    RAR
                                   30211
 004CEA                            30212              STESUBN  LABEL
 004CEA 90EF D040/4BD0_      00040 30214                       PUSH  (RAR,R15)
 004CFA 58E0 848A/0DEE       04E74 30222                       ACALL CNVTIP              Convert IP address to binary
 004D00 50F0 7030            00030 30226                       ST    R15,EIBSIP          Save IP address
 004D04 41D0 D00C/98EF_      0000C 30227                       POP   (RAR,R15)
 004D10 D603 7030 7030_00030 00030 30234                       IF    (EIBSIP,Z),'SEGWR "Invalid IP address."; B STEERR'
 004D2E 07FE                       30274                       BR    RAR
                                   30275
 004D30                            30276              CLRSUBN  LABEL
 004D30 D703 7030 7030 00030 00030 30278                       CLEAR EIBSIP
 004D36 D703 7034 7034 00034 00034 30285                       CLEAR EIBSMASK
 004D3C 07FE                       30292                       BR    RAR
                                   30293
 004D3E                            30294              STESUBM  LABEL
 004D3E 90EF D040/4BD0_      00040 30296                       PUSH  (RAR,R15)
 004D4E 58E0 848A/0DEE       04E74 30304                       ACALL CNVTIP              Convert IP address to binary
 004D54 50F0 7034            00034 30308                       ST    R15,EIBSMASK        Save IP mask
 004D58 41D0 D00C/98EF_      0000C 30309                       POP   (RAR,R15)
 004D64 D603 7034 7034_00034 00034 30316                       IF    (EIBSMASK,Z),'SEGWR "Invalid IP address."; B STEERR'
 004D82 07FE                       30356                       BR    RAR
                                   30357
 004D84 947F 7048      00048       30358              STEUP    CLEAR EIBFDOWN
 004D88 07FE                       30366                       BR    RAR
                                   30367
 004D8A 9680 7048      00048       30368              STEDOWN  SET   EIBFDOWN
 004D8E 07FE                       30375                       BR    RAR
                                   30376
 004D90 94BF 7048      00048       30377              STESTART CLEAR EIBFSTOPPED
 004D94 07FE                       30385                       BR    RAR
                                   30386
 004D96 9640 7048      00048       30387              STESTOP  SET   EIBFSTOPPED
 004D9A 07FE                       30394                       BR    RAR
                                   30395
 004D9C D203 7038 A000 00038 00000 30396              STECOUNT MVC   EIBCUR,SCNVAL
1ELF      (ELF2047) (12:35) (15MAR04) ELF Interface                                                                         Page  120
0Current Usings:  (EIB,R7) (*,R8) (SCANCB,R10) (SEGCB,R11) (CV,R12) (SETEWA-@@,R13)
0Loc    Object Code    Addr1 Addr2  Stmt Lv Lineno    Source Statement           (Hibal 5, Asmedit 3.3)  HLASM R4.0  2004/03/15 12.35
+___    ______ ____    _____ _____  ____ __ ______    ______ _________
0004DA2 D503 7038 703C_00038 0003C 30397                       IF    (EIBCUR,GT,EIBMAX),'MVC EIBMAX,EIBCUR'  New max
 004DB2 07FE                       30421                       BR    RAR
                                   30422
 004DB4 D203 7040 A000 00040 00000 30423              STEBIAS  MVC   EIBBIAS,SCNVAL
 004DBA 07FE                       30424                       BR    RAR
                                   30425
 004DBC D203 7044 A000 00044 00000 30426              STELIMIT MVC   EIBLIMIT,SCNVAL
 004DC2 07FE                       30427                       BR    RAR
                                   30428
 004DC4 18FB/58E0 8446_            30429              STEINV   SEG   (R1),(R0)
 004DCC 4110 8492/4100_      04E7C 30453                       SEG   ': unrecognized SET ELF option.'
 004DDC 1B00/18FB/58E0_            30470                       SEGWR
 004DE6 41F0 0004            00004 30494              STEERR   LA    R15,4
                                   30495
 004DEA 41D0 D0C0/982B_      000C0 30496              SETEEXIT PEND
 DROP   EIB,R7
 DROP   SCANCB,R10
 DROP   SEGCB,R11
 DROP   SETEWA-@@,R13
 DROP   *,R8
                                   30538
                                   30539                       SEGDEF DUMMY              (Neatness)
                                   30540
                                   30541                       QLTORG
1ELF      (ELF2047) (12:35) (15MAR04) ELF Interface                                                                         Page  121
0Current Usings:  (CV,R12)
0Loc    Object Code    Addr1 Addr2  Stmt Lv Lineno    Source Statement           (Hibal 5, Asmedit 3.3)  HLASM R4.0  2004/03/15 12.35
+___    ______ ____    _____ _____  ____ __ ______    ______ _________
0                                  30575              ¿þþþþþþþþþþþþþþþþþþþþþþþþþþþþþþþþþþþþþþþþþþþþþþþþþþþþþþþþþþþþþþþþþþþþþÜ
                                   30576              Ÿ                                                                     Ÿ
                                   30577              Ÿ  SHOWELF -- SHOW ELF command.                                       Ÿ
                                   30578              Ÿ                                                                     Ÿ
                                   30579              Ÿ    On entry:                                                        Ÿ
                                   30580              Ÿ       R1  - SCANCB ptr                                              Ÿ
                                   30581              Ÿ       R15 - SEGCB ptr                                               Ÿ
                                   30582              Ÿ                                                                     Ÿ
                                   30583              Ÿ    On exit, R15 (and cc):                                           Ÿ
                                   30584              Ÿ       0 - command OK                                                Ÿ
                                   30585              Ÿ       4 - command error                                             Ÿ
                                   30586              Ÿ                                                                     Ÿ
                                                      ¾þþþþþþþþþþþþþþþþþþþþþþþþþþþþþþþþþþþþþþþþþþþþþþþþþþþþþþþþþþþþþþþþþþþþþ»
0004ED0 50E0 D044/902B_      00044 30587              SHOWELF  XPROC
 USING  *,R8
 004EEA 18BF                       30625                       LR    R11,R15
 USING  SEGCB,R11                  30626                       WITH  (SEGCB,R11)
                                   30639                       SEGDEF SEGCB
                                   30640
 004EEC 18A1                       30641                       LR    R10,R1
 USING  SCANCB,R10                 30642                       WITH  (SCANCB,R10)
                                   30655
 004EEE 4110 8282/18FA_      0515C 30656                       SCAN  SHELFPRT,SCANCB
                                   30675
 004EFA 4170 C2C8            002C8 30676                       LA    R7,CVEIBQH-(EIBLINK-EIB)  Dummy queue head
 004EFE                            30677                       LOOP  BEGIN
 USING  EIB,R7                     30683  1                      WITH  (EIB,R7)
 004EFE 5870 7004/1277_      00004 30696  1                      WHILE ('LT R7,EIBLINK',NZ)
 004F08 4110 8D14/4100_      05BEE 30713  1                      SEG   '  '
 004F18 4110 7008/4100_      00008 30730  1                      SEGTB EIBNAME             ELF name
                                   30758  1
 004F28 4110 7008/4100_      00008 30759  1                      SETMSG EIBNAME
 004F30 58E0 8CB2/0DEE       05B8C 30773  1                      VCALL RTRIM
 004F36 5900 8CB6/4730_      05B90 30777  1                      IF    (R0,LE,6),BEGIN     Add IP address if room...
 004F3E 4110 8D42/4100_      05C1C 30794  2                        SEG   '('
 004F4E 4110 7018/4100_      00018 30811  2                        SEGT  EIBADDRF            IP address
 004F5E 4110 8D43/4100_      05C1D 30839  2                        SEG   ')'
 004F6E                            30856  1                      END
                                   30860  1
 004F6E 4100 0017/18FB_      00017 30861  1                      SEGCOL 23                 Keep alignment
                                   30881  1
 004F7A 5810 7038/4100_      00038 30882  1                      SEGDC L:EIBCUR,5
 004F8A 4110 8D16/4100_      05BF0 30906  1                      SEG   ' users'
                                   30923  1
 004F9A 5810 703C/4100_      0003C 30924  1                      SEGDC L:EIBMAX,6
 004FAA 4110 8CC6/4100_      05BA0 30948  1                      SEG   ' max'
                                   30965  1
 004FBA D603 7030 7030_00030 00030 30966  1                      IF    (EIBSIP,NZ),BEGIN   Serving only this subnet...
 004FC4 4110 8D44/4100_      05C1E 30982  2                        SEG   ' (Subnet='
 004FD4 1F11/4310 7030_            30999  2                        SEGDC LC:EIBSIP
 004FE4 4110 8D4D/4100_      05C27 31025  2                        SEG   '.'
 004FF4 9500 7035/4770_00035       31042  2                        IF    (EIBSMASK+1,EQ,X'00'),'SEG "x"'
 00500C 8136/47F0 8146_0500C 04FFA 31081  2                        ELSE  'SEGDC LC:EIBSIP+1'
1ELF      (ELF2047) (12:35) (15MAR04) ELF Interface                                                                         Page  122
0Current Usings:  (EIB,R7) (*,R8) (SCANCB,R10) (SEGCB,R11) (CV,R12)
0Loc    Object Code    Addr1 Addr2  Stmt Lv Lineno    Source Statement           (Hibal 5, Asmedit 3.3)  HLASM R4.0  2004/03/15 12.35
+___    ______ ____    _____ _____  ____ __ ______    ______ _________
0005020 4110 8D4D/4100_      05C27 31123  2                        SEG   '.'
 005030 9500 7036/4770_00036       31140  2                        IF    (EIBSMASK+2,EQ,X'00'),'SEG "x"'
 005048 8172/47F0 8182_05048 05036 31179  2                        ELSE  'SEGDC LC:EIBSIP+2'
 00505C 4110 8D4D/4100_      05C27 31221  2                        SEG   '.'
 00506C 9500 7037/4770_00037       31238  2                        IF    (EIBSMASK+3,EQ,X'00'),'SEG "x"'
 005084 81AE/47F0 81BE_05084 05072 31277  2                        ELSE  'SEGDC LC:EIBSIP+3'
 005098 4110 8D43/4100_      05C1D 31319  2                        SEG   ')'
 0050A8                            31336  1                      END
                                   31340  1
 0050A8 D603 7040 7040_00040 00040 31341  1                      IF    (EIBBIAS,NZ),BEGIN
 0050B2 4110 8D4F/4100_      05C29 31357  2                        SEG   ' (Bias='
 0050C2 5810 7040/1B00_      00040 31374  2                        SEGDC L:EIBBIAS
 0050D0 4110 8D43/4100_      05C1D 31395  2                        SEG   ')'
 0050E0                            31412  1                      END
                                   31416  1
 0050E0 D603 7044 7044_00044 00044 31417  1                      IF    (EIBLIMIT,NZ),BEGIN
 0050EA 4110 8C9E/4100_      05B78 31433  2                        SEG   ' (Limit='
 0050FA 5810 7044/1B00_      00044 31450  2                        SEGDC L:EIBLIMIT
 005108 4110 8D43/4100_      05C1D 31471  2                        SEG   ')'
 005118                            31488  1                      END
                                   31492  1
 005118 9180 7048/47E0_00048       31493  1                      IF    EIBFDOWN,'SEG " (Down)"'
 005130 9140 7048/47E0_00048       31530  1                      IF    EIBFSTOPPED,'SEG " (Stopped)"'
 005148 1B00/18FB/58E0_            31567  1                      SEGWR
 005152 47F0 8024            04EFE 31591                       END
 DROP   EIB,R7
                                   31601
 005156 1BFF                       31602                       CLEAR R15                 A-ok
 005158 47F0 836C            05246 31606                       B     SHOEEXIT
                                   31607                       ¿þþþþþþþþþþþþþþþþþþþþþÜ
                                   31608                       Ÿ  SHOW ELF Options.  Ÿ
                                   31609                       ¾þþþþþþþþþþþþþþþþþþþþþ»
 00515C AB005168C2C5E2E3           31610              SHELFPRT SCKW  BEST,SHEBEST,(A,P,PI)
 005164 FF005220                   31612                       SCKW  ,SHEINV
                                   31614
 005168 4110 8D26/4100_      05C00 31615              SHEBEST  SEG   'Testing BESTEIB...'
 005178 5850 A000            00000 31632                       L     R5,SCNVAL           Loop count
 00517C 1255/47D0 832C             31633                       WHILE (R5,POS),BEGIN      Try it "n" times...
 005182 5810 8342            0521C 31649  1                      L     R1,SHEBRIP
 005186 58E0 8CCE/0DEE       05BA8 31650  1                      ACALL BESTEIB             Get best ELF
 00518C 184F                       31654  1                      LR    R4,R15
 00518E 12FF/4770 82CA_            31655  1                      IF    (R15,Z),'SEG "No ELF available."'
 0051A4 82CE/47F0 831C 051A4 05192 31691  1                      ELSE  BEGIN
 USING  EIB,R4                     31702  2                        WITH  (EIB,R4)
 0051A8 1814/4100 0008_            31715  2                        SEGHX (R4),8
 0051B6 4110 8D6E/4100_      05C48 31739  2                        SEG   ' '
 0051C6 4110 4008/4100_      00008 31756  2                        SEGT  EIBNAME
 0051D6 4110 8CD6/4100_      05BB0 31784  2                        SEG   ' -- '
 0051E6 4110 4018/4100_      00018 31801  2                        SEGT  EIBADDRF
 DROP   EIB,R4                     31829  1                      END
                                   31838  1
 0051F6 1B00/18FB/58E0_            31839  1                      SEGWR
                                   31863  1
 005200 0650                       31864  1                      DECR  R5
1ELF      (ELF2047) (12:35) (15MAR04) ELF Interface                                                                         Page  123
0Current Usings:  (*,R8) (SCANCB,R10) (SEGCB,R11) (CV,R12)
0Loc    Object Code    Addr1 Addr2  Stmt Lv Lineno    Source Statement           (Hibal 5, Asmedit 3.3)  HLASM R4.0  2004/03/15 12.35
+___    ______ ____    _____ _____  ____ __ ______    ______ _________
0005202 47F0 82A2            0517C 31866                       END
 005206 4110 8D6F/4100_      05C49 31871                       SEGWR 'Done.'
 005216 1BFF                       31889                       CLEAR R15
 005218 47F0 836C            05246 31893                       B     SHOEEXIT
 00521C 245F00C3                   31894              SHEBRIP  DC    0F'0',AL1(36,95,0,195)  Sample remote IP addr
                                   31895
 005220 18FB/58E0 8CAA_            31896              SHEINV   SEG   (R1),(R0)
 005228 4110 8D74/4100_      05C4E 31920                       SEG   ': unrecognized SHOW ELF option.'
 005238 1B00/18FB/58E0_            31937                       SEGWR
 005242 41F0 0004            00004 31961              SHEERR   LA    R15,4
                                   31962
 005246 41D0 D030/982B_      00030 31963              SHOEEXIT PEND
 DROP   SCANCB,R10
 DROP   SEGCB,R11
 DROP   *,R8
                                   31994
                                   31995                       SEGDEF DUMMY              (Neatness)
1ELF      (ELF2047) (12:35) (15MAR04) ELF Interface                                                                         Page  124
0Current Usings:  (CV,R12)
0Loc    Object Code    Addr1 Addr2  Stmt Lv Lineno    Source Statement           (Hibal 5, Asmedit 3.3)  HLASM R4.0  2004/03/15 12.35
+___    ______ ____    _____ _____  ____ __ ______    ______ _________
0                                  31997              ¿þþþþþþþþþþþþþþþþþþþþþþþþþþþþþþþþþþþþþþþþþþþþþþþþþþþþþþþþþþþþþþþþþþþþþÜ
                                   31998              Ÿ                                                                     Ÿ
                                   31999              Ÿ  GETEIB -- Routine to get the ELF information block (EIB)           Ÿ
                                   32000              Ÿ    address, given the ELF name.                                     Ÿ
                                   32001              Ÿ                                                                     Ÿ
                                   32002              Ÿ    On entry:                                                        Ÿ
                                   32003              Ÿ      R1 - ELF name (must be L'EIBNAME long)                         Ÿ
                                   32004              Ÿ                                                                     Ÿ
                                   32005              Ÿ    On exit, R15 (and cc):                                           Ÿ
                                   32006              Ÿ      0 - not found                                                  Ÿ
                                   32007              Ÿ      nz- EIB ptr                                                    Ÿ
                                   32008              Ÿ                                                                     Ÿ
                                                      ¾þþþþþþþþþþþþþþþþþþþþþþþþþþþþþþþþþþþþþþþþþþþþþþþþþþþþþþþþþþþþþþþþþþþþþ»
000525A 50E0 D044/902B_      00044 32009              GETEIB   PROC
 USING  *,R8
 005274 1861                       32045                       LR    R6,R1               Save ELF name
                                   32046
 005276 41F0 C2C8            002C8 32047                       LA    R15,CVEIBQH-(EIBLINK-EIB)  Dummy first link
 00527A                            32048                       LOOP  BEGIN
 USING  EIB,R15                    32054  1                      WITH  (EIB,R15)
 00527A 58F0 F004/12FF_      00004 32067  1                      WHILE ('LT R15,EIBLINK',NZ)
 005284 D50F F008 6000_00008 00000 32084  1                      IF    (EIBNAME,EQ,@R6),EXIT  We found it
 00528E 47F0 8016            0527A 32104                       END
 DROP   EIB,R15
                                   32114
 005292 41D0 D030/982B_      00030 32115                       PEND
 DROP   *,R8
1ELF      (ELF2047) (12:35) (15MAR04) ELF Interface                                                                         Page  125
0Current Usings:  (CV,R12)
0Loc    Object Code    Addr1 Addr2  Stmt Lv Lineno    Source Statement           (Hibal 5, Asmedit 3.3)  HLASM R4.0  2004/03/15 12.35
+___    ______ ____    _____ _____  ____ __ ______    ______ _________
0                                  32136              ¿þþþþþþþþþþþþþþþþþþþþþþþþþþþþþþþþþþþþþþþþþþþþþþþþþþþþþþþþþþþþþþþþþþþþþÜ
                                   32137              Ÿ                                                                     Ÿ
                                   32138              Ÿ  COUNTEIB -- Routine to adjust the count of logged on users on      Ÿ
                                   32139              Ÿ    the ELF with the IP address specified.                           Ÿ
                                   32140              Ÿ                                                                     Ÿ
                                   32141              Ÿ    On entry:                                                        Ÿ
                                   32142              Ÿ      R0 - signed amount to adjust count by (usually 1 or -1)        Ÿ
                                   32143              Ÿ      R1 - IP address of ELF                                         Ÿ
                                   32144              Ÿ                                                                     Ÿ
                                                      ¾þþþþþþþþþþþþþþþþþþþþþþþþþþþþþþþþþþþþþþþþþþþþþþþþþþþþþþþþþþþþþþþþþþþþþ»
00052A6 50E0 D044/902B_      00044 32145              COUNTEIB PROC
 USING  *,R8
 0052C0 1861                       32181                       LR    R6,R1               Save ELF IP address
 0052C2 1850                       32182                       LR    R5,R0               Save adjustment value
                                   32183                       ¿þþþþþþþþþþþþþþþþþþþþþþþþþþþþþþþþþþþþþþþþþþþþþþþþþþþþþÜ
                                   32184                       Ÿ  Find an ELF information block (EIB) for this ELF.  Ÿ
                                   32185                       ¾þþþþþþþþþþþþþþþþþþþþþþþþþþþþþþþþþþþþþþþþþþþþþþþþþþþþþ»
 0052C4 4140 C2C8            002C8 32186                       LA    R4,CVEIBQH-(EIBLINK-EIB)  Dummy first link
 0052C8                            32187                       LOOP  BEGIN
 USING  EIB,R4                     32193  1                      WITH  (EIB,R4)
 0052C8 5840 4004/1244_      00004 32206  1                      WHILE ('LT R4,EIBLINK',NZ)
 0052D2 5960 4028/4780_      00028 32223  1                      IF    (R6,EQ,EIBADDR),EXIT  We found it
 0052DA 47F0 8018            052C8 32243                       END
 DROP   EIB,R4
                                   32253                       ¿þþþþþþþþþþþþþþþþþþþþþþþþþþþþþþþþþþþþþþþþþÜ
                                   32254                       Ÿ  Update user count if we found an EIB.  Ÿ
                                   32255                       ¾þþþþþþþþþþþþþþþþþþþþþþþþþþþþþþþþþþþþþþþþþ»
 0052DE 1244/4780 8050             32256                       IF    (R4,NZ),BEGIN       We found a matching EIB...
 USING  EIB,R4                     32270  1                      WITH  (EIB,R4)
 0052E4 5A50 4038            00038 32283  1                      A     R5,EIBCUR           Make signed adjustment to count
 0052E8 1255/47B0 8040_            32284  1                      IF    (R5,NEG),'CLEAR R5'  Be reasonable
 0052F0 5050 4038            00038 32307  1                      ST    R5,EIBCUR           Save it
 0052F4 5950 403C/47D0_      0003C 32308  1                      IF    (R5,GT,EIBMAX),'ST R5,EIBMAX'  New max
 DROP   EIB,R4                     32331                       END
                                   32340
 005300 1BFF                       32341                       CLEAR R15                 A-ok
 005302 41D0 D030/982B_      00030 32345                       PEND
 DROP   *,R8
1ELF      (ELF2047) (12:35) (15MAR04) ELF Interface                                                                         Page  126
0Current Usings:  (CV,R12)
0Loc    Object Code    Addr1 Addr2  Stmt Lv Lineno    Source Statement           (Hibal 5, Asmedit 3.3)  HLASM R4.0  2004/03/15 12.35
+___    ______ ____    _____ _____  ____ __ ______    ______ _________
0                                  32366              ¿þþþþþþþþþþþþþþþþþþþþþþþþþþþþþþþþþþþþþþþþþþþþþþþþþþþþþþþþþþþþþþþþþþþþþÜ
                                   32367              Ÿ                                                                     Ÿ
                                   32368              Ÿ  BESTEIB -- Routine to find the best ELF to use.  This routine      Ÿ
                                   32369              Ÿ    is passed the IP address of the requestor, to allow for ELFs     Ÿ
                                   32370              Ÿ    which only want to provide service for certain IP addresses.     Ÿ
                                   32371              Ÿ                                                                     Ÿ
                                   32372              Ÿ    On entry:                                                        Ÿ
                                   32373              Ÿ      R1 - my IP address                                             Ÿ
                                   32374              Ÿ                                                                     Ÿ
                                   32375              Ÿ    On exit, R15 (and cc):                                           Ÿ
                                   32376              Ÿ      0 - no ELFs available                                          Ÿ
                                   32377              Ÿ      nz- EIB ptr                                                    Ÿ
                                   32378              Ÿ                                                                     Ÿ
                                                      ¾þþþþþþþþþþþþþþþþþþþþþþþþþþþþþþþþþþþþþþþþþþþþþþþþþþþþþþþþþþþþþþþþþþþþþ»
0000000                00000 00014 32379              FEIBWA   RECORD BEGIN
 000000                            32387  1           FEIBRIP    DS    F                   Requestor's IP address
                                   32388  1
 000004                            32389  1           FEIBGCNT   DS    F                   Lowest count so far for general
 000008                            32390  1           FEIBGPTR   DS    F                   General EIB with lowest count
                                   32391  1
 00000C                            32392  1           FEIBSCNT   DS    F                   Lowest count so far for subnet
 000010                            32393  1           FEIBSPTR   DS    F                   Subnet EIB with lowest count
 000014                00014 00014 32394                       END
                                   32403              þþþþ
 005316 50E0 D044/902B_      00044 32404              BESTEIB  PROC  FEIBWA
 USING  *,R8
 USING  FEIBWA-@@,R13
 005330 D713 D04C D04C 00000 00000 32451                       CLEAR FEIBWA
 005336 5010 D04C            00000 32458                       ST    R1,FEIBRIP          Save requestee's IP address
 00533A D203 D050 8894 00004 05BB4 32459                       MVC   FEIBGCNT,=F'9999999'  Initialize with large number
 005340 D203 D058 8894 0000C 05BB4 32460                       MVC   FEIBSCNT,=F'9999999'  Initialize with large number
                                   32461
 005346 D603 C2D4 C2D4_002D4 002D4 32462                       IF    (CVEIBQC,Z),'MVC CVEIBQC,CVEIBQT'  Set last assigned
                                   32484
 005356 5850 C2D4/1255       002D4 32485                       LT    R5,CVEIBQC          Get last assigned EIB
 00535C 4780 80DC            053FC 32489                       BZ    FEIBDONE            No ELFs, scram
                                   32490                       ¿þþþþþþþþþþþþþþþþþþþþþþþþþþþþþþþþþþþþþþþþþþþþþþþþþþþþþþþþÜ
                                   32491                       Ÿ  Loop through list of available ELFs and find the one  Ÿ
                                   32492                       Ÿ    with the fewest users on it.                        Ÿ
                                   32493                       ¾þþþþþþþþþþþþþþþþþþþþþþþþþþþþþþþþþþþþþþþþþþþþþþþþþþþþþþþþ»
 005360                            32494                       LOOP  BEGIN
 USING  EIB,R5                     32500  1                      WITH  (EIB,R5)
 005360 5850 5004/1255       00004 32513  1                      LT    R5,EIBLINK          Get next EIB
 005366 4770 804E/5850_      0536E 32517  1                      IF    Z,'L R5,CVEIBQH'    Wrap around
                                   32534  1
 00536E 9180 5048/4710_00048       32535  1                      IF    (EIBFDOWN,OR,EIBFSTOPPED),FEIBNEXT  Not this one
                                   32567  1                      ¿þþþþþþþþþþþþþþþþþþþþþþþþþþþþþþþþþþþÜ
                                   32568  1                      Ÿ  ELF for only a specific subnet.  Ÿ
                                   32569  1                      ¾þþþþþþþþþþþþþþþþþþþþþþþþþþþþþþþþþþþ»
 00537E D603 5030 5030_00030 00030 32570  1                      IF    (EIBSIP,NZ),BEGIN   ELF for only a specific subnet...
 005388 5820 D04C            00000 32586  2                        L     R2,FEIBRIP          Our remote IP address
 00538C 5420 5034            00034 32587  2                        N     R2,EIBSMASK         Mask out unwanted bits
 005390 5920 5030/4770_      00030 32588  2                        IF    (R2,NE,EIBSIP),FEIBNEXT  Can't use this one
1ELF      (ELF2047) (12:35) (15MAR04) ELF Interface                                                                         Page  127
0Current Usings:  (EIB,R5) (*,R8) (CV,R12) (FEIBWA-@@,R13)
0Loc    Object Code    Addr1 Addr2  Stmt Lv Lineno    Source Statement           (Hibal 5, Asmedit 3.3)  HLASM R4.0  2004/03/15 12.35
+___    ______ ____    _____ _____  ____ __ ______    ______ _________
0005398 58F0 5038            00038 32608  2                        L     R15,EIBCUR          Current number of users
 00539C 5AF0 5040            00040 32609  2                        A     R15,EIBBIAS         Plus "bias"
 0053A0 D603 5044 5044_00044 00044 32610  2                        IF    ((EIBLIMIT,NZ),AND,(R15,LGT,EIBLIMIT)),FEIBNEXT
 0053B2 55F0 D058/47B0_      0000C 32645  2                        IF    (R15,LLT,FEIBSCNT),BEGIN  Found a better ELF...
 0053BA 50F0 D058            0000C 32662  3                          ST    R15,FEIBSCNT        Save lowest user count
 0053BE 5050 D05C            00010 32663  3                          ST    R5,FEIBSPTR         Save best ELF for this subnet ptr
 0053C2                            32664  2                        END
 0053C2                            32668  1                      END
                                   32672  1                      ¿þþþþþþþþþþþþþþþþþþþþþþþþÜ
                                   32673  1                      Ÿ  General purpose ELF.  Ÿ
                                   32674  1                      ¾þþþþþþþþþþþþþþþþþþþþþþþþ»
 0053C2 80A6/47F0 80D0 053C2 05386 32675  1                      ELSE  BEGIN               General purpose ELF...
 0053C6 58F0 5038            00038 32686  2                        L     R15,EIBCUR          Current number of users
 0053CA 5AF0 5040            00040 32687  2                        A     R15,EIBBIAS         Plus "bias"
 0053CE D603 5044 5044_00044 00044 32688  2                        IF    ((EIBLIMIT,NZ),AND,(R15,LGT,EIBLIMIT)),FEIBNEXT
 0053E0 55F0 D050/47B0_      00004 32723  2                        IF    (R15,LLT,FEIBGCNT),BEGIN  Found a better ELF...
 0053E8 50F0 D050            00004 32740  3                          ST    R15,FEIBGCNT        Save lowest user count
 0053EC 5050 D054            00008 32741  3                          ST    R5,FEIBGPTR         Save best ELF for this subnet ptr
 0053F0                            32742  2                        END
 0053F0                            32746  1                      END
                                   32750  1
 0053F0 5950 C2D4/4780_      002D4 32751  1           FEIBNEXT   IF    (R5,EQ,CVEIBQC),EXIT  We've looked at all of them now
 0053F8 47F0 8040            05360 32772                       END
 DROP   EIB,R5
                                   32782
 0053FC 58F0 D05C/12FF       00010 32783              FEIBDONE LT    R15,FEIBSPTR        Best ELF for this subnet ptr
 005402 4770 80F4            05414 32787                       IF    Z,BEGIN             No subnet match...
 005406 58F0 D054            00008 32798  1                      L     R15,FEIBGPTR        Get best general ELF ptr
 00540A 12FF/4780 80F4_            32799  1                      IF    (R15,NZ),'ST R15,CVEIBQC'  Save last used EIB ptr
 005414                            32819                       END
 005414 41D0 D044/982B_      00044 32823                       PEND
 DROP   FEIBWA-@@,R13
 DROP   *,R8
1ELF      (ELF2047) (12:35) (15MAR04) ELF Interface                                                                         Page  128
0Current Usings:  (CV,R12)
0Loc    Object Code    Addr1 Addr2  Stmt Lv Lineno    Source Statement           (Hibal 5, Asmedit 3.3)  HLASM R4.0  2004/03/15 12.35
+___    ______ ____    _____ _____  ____ __ ______    ______ _________
0                                  32850              ¿þþþþþþþþþþþþþþþþþþþþþþþþþþþþþþþþþþþþþþþþþþþþþþþþþþþþþþþþþþþþþþþþþþþþþÜ
                                   32851              Ÿ                                                                     Ÿ
                                   32852              Ÿ  CREEIB -- Routine to make a new EIB and add it to the queue.       Ÿ
                                   32853              Ÿ    The caller should have already checked to make sure that an      Ÿ
                                   32854              Ÿ    EIB with the same name doesn't already exist.                    Ÿ
                                   32855              Ÿ                                                                     Ÿ
                                   32856              Ÿ    On entry:                                                        Ÿ
                                   32857              Ÿ      R1 - EIB to be created                                         Ÿ
                                   32858              Ÿ                                                                     Ÿ
                                   32859              Ÿ    On exit, R15 (and cc):                                           Ÿ
                                   32860              Ÿ      0 - ok                                                         Ÿ
                                   32861              Ÿ                                                                     Ÿ
                                                      ¾þþþþþþþþþþþþþþþþþþþþþþþþþþþþþþþþþþþþþþþþþþþþþþþþþþþþþþþþþþþþþþþþþþþþþ»
0005428 50E0 D044/902B_      00044 32862              CREEIB   PROC
 USING  *,R8
 005442 1861                       32898                       LR    R6,R1               Save EIB ptr
 USING  EIB,R6                     32899                       WITH  (EIB,R6)
                                   32912
 005444 4100 0049            00049 32913                       LA    R0,L'EIB
 005448 4110 001F            0001F 32914                       LA    R1,EIBSUBP
 00544C 182E                       32915                       LR    R2,RAR
 00544E 58E0 8786/0DEE       05BB8 32916                       VCALL NGETCORE            Get new EIB
 005454 D248 1000 6000 00000 00000 32920                       MVC   @R1(L'EIB),EIB      Copy in EIB
 00545A 1861                       32921                       LR    R6,R1               Use new copy
 00545C D203 6000 878A 00000 05BBC 32922                       MVC   EIBID,=C'EIB '      Set ID
 005462 D703 6004 6004 00004 00004 32923                       CLEAR EIBLINK
                                   32930
 005468 5850 C2D0/1255       002D0 32931                       LT    R5,CVEIBQT          Get last EIB
 00546E 4770 8048            0547A 32935                       IF    Z,BEGIN             Nothing on the queue...
 005472 5060 C2CC            002CC 32946  1                      ST    R6,CVEIBQH
 005476 5060 C2D0            002D0 32947  1                      ST    R6,CVEIBQT
 00547A                            32948                       END
                                   32952
 00547A 804C/47F0 8054 0547A 05470 32953                       ELSE  BEGIN               Add us to the end of the queue...
 00547E 5060 5004            00004 32964  1                      ST    R6,EIBLINK-EIB(,R5)  Link us to old tail
 005482 5060 C2D0            002D0 32965  1                      ST    R6,CVEIBQT          We are the new tail
 005486                            32966                       END
                                   32970
 005486 1BFF                       32971                       CLEAR R15                 A-ok
 005488 41D0 D030/982B_      00030 32975                       PEND
 DROP   EIB,R6
 DROP   *,R8
1ELF      (ELF2047) (12:35) (15MAR04) ELF Interface                                                                         Page  129
0Current Usings:  (CV,R12)
0Loc    Object Code    Addr1 Addr2  Stmt Lv Lineno    Source Statement           (Hibal 5, Asmedit 3.3)  HLASM R4.0  2004/03/15 12.35
+___    ______ ____    _____ _____  ____ __ ______    ______ _________
0                                  33001              ¿þþþþþþþþþþþþþþþþþþþþþþþþþþþþþþþþþþþþþþþþþþþþþþþþþþþþþþþþþþþþþþþþþþþþþÜ
                                   33002              Ÿ                                                                     Ÿ
                                   33003              Ÿ  DELEIB -- Routine to remove an existing EIB from the queue         Ÿ
                                   33004              Ÿ    and then free it.                                                Ÿ
                                   33005              Ÿ                                                                     Ÿ
                                   33006              Ÿ    On entry:                                                        Ÿ
                                   33007              Ÿ      R15 - EIB to be deleted                                        Ÿ
                                   33008              Ÿ                                                                     Ÿ
                                   33009              Ÿ    On exit, R15 (and cc):                                           Ÿ
                                   33010              Ÿ      0 - ok                                                         Ÿ
                                   33011              Ÿ      4 - not found                                                  Ÿ
                                   33012              Ÿ                                                                     Ÿ
                                                      ¾þþþþþþþþþþþþþþþþþþþþþþþþþþþþþþþþþþþþþþþþþþþþþþþþþþþþþþþþþþþþþþþþþþþþþ»
000549C 50E0 D044/902B_      00044 33013              DELEIB   PROC
 USING  *,R8
 0054B6 186F                       33049                       LR    R6,R15              Save EIB ptr
                                   33050                       ¿þþþþþþþþþþþþþþþþþþþþþþþþþþÜ
                                   33051                       Ÿ  Find the matching EIB.  Ÿ
                                   33052                       ¾þþþþþþþþþþþþþþþþþþþþþþþþþþ»
 0054B8 1B44                       33053                       CLEAR R4                  Previous EIB
 0054BA 4150 C2C8            002C8 33057                       LA    R5,CVEIBQH-(EIBLINK-EIB)  Dummy first link
 0054BE                            33058                       LOOP  BEGIN
 USING  EIB,R5                     33064  1                      WITH  (EIB,R5)
 0054BE 5850 5004/1255_      00004 33077  1                      WHILE ('LT R5,EIBLINK',NZ)
 0054C8 1956/4780 802E             33094  1                      IF    (R5,EQ,R6),EXIT
                                   33112  1
 0054CE 1845                       33113  1                      LR    R4,R5               Save previous EIB ptr
 0054D0 47F0 8018            054BE 33114                       END
 DROP   EIB,R5
                                   33124                       ¿þþþþþþþþþþþþþþþþþþþþþþþþþþþþþþþþþþÜ
                                   33125                       Ÿ  Remove the EIB from the queue.  Ÿ
                                   33126                       ¾þþþþþþþþþþþþþþþþþþþþþþþþþþþþþþþþþþ»
 0054D4 41F0 0004            00004 33127                       LA    R15,4               Preset bad rc
                                   33128
 0054D8 1255/4780 808A             33129                       IF    (R5,NZ),BEGIN       We found it...
 0054DE 5950 C2D4/4770_      002D4 33143  1                      IF    (R5,EQ,CVEIBQC),'CLEAR CVEIBQC'  No current
                                   33172  1
 USING  EIB,R5                     33173  1                      WITH  (EIB,R5)
 0054EC 1244/4770 8062             33186  1                      IF    (R4,Z),BEGIN        No entries before us...
 0054F2 D203 C2CC 5004 002CC 00004 33200  2                        MVC   CVEIBQH,EIBLINK     Move in the new queue head
 0054F8 D603 C2CC C2CC_002CC 002CC 33201  2                        IF    (CVEIBQH,Z),'CLEAR CVEIBQT'  Nothing in the queue
 005508                            33229  1                      END
                                   33233  1
 005508 8066/47F0 8078 05508 054F0 33234  1                      ELSE  BEGIN               We are not the first entry...
 00550C D203 4004 5004 00004 00004 33245  2                        MVC   EIBLINK-EIB(4,R4),EIBLINK  Dequeue us
 005512 5950 C2D0/4770_      002D0 33246  2                        IF    (R5,EQ,CVEIBQT),'ST R4,CVEIBQT'  Save new queue tail
 00551E                            33269  1                      END
                                   33273  1                      ¿þþþþþþþþþþþþþþþþþþþþþÜ
                                   33274  1                      Ÿ  Now free the EIB.  Ÿ
                                   33275  1                      ¾þþþþþþþþþþþþþþþþþþþþþ»
 00551E D203 5000 871A 00000 05BC0 33276  1                      MVC   EIBID,=C'XEIB'
 005524 4110 5000            00000 33277  1                      LA    R1,EIB
 005528 58E0 871E/0DEE       05BC4 33278  1                      VCALL FREECORE            Free EIB
1ELF      (ELF2047) (12:35) (15MAR04) ELF Interface                                                                         Page  130
0Current Usings:  (EIB,R5) (*,R8) (CV,R12)
0Loc    Object Code    Addr1 Addr2  Stmt Lv Lineno    Source Statement           (Hibal 5, Asmedit 3.3)  HLASM R4.0  2004/03/15 12.35
+___    ______ ____    _____ _____  ____ __ ______    ______ _________
000552E 1BFF                       33282  1                      CLEAR R15                 A-ok
 DROP   EIB,R5                     33286                       END
                                   33295
 005530 41D0 D030/982B_      00030 33296                       PEND
 DROP   *,R8
1ELF      (ELF2047) (12:35) (15MAR04) ELF Interface                                                                         Page  131
0Current Usings:  (CV,R12)
0Loc    Object Code    Addr1 Addr2  Stmt Lv Lineno    Source Statement           (Hibal 5, Asmedit 3.3)  HLASM R4.0  2004/03/15 12.35
+___    ______ ____    _____ _____  ____ __ ______    ______ _________
0                                  33317              ¿þþþþþþþþþþþþþþþþþþþþþþþþþþþþþþþþþþþþþþþþþþþþþþþþþþþþþþþþþþþþþþþþþþþþþÜ
                                   33318              Ÿ                                                                     Ÿ
                                   33319              Ÿ  CNVTIP - Routine to convert a printable IP address to binary.      Ÿ
                                   33320              Ÿ                                                                     Ÿ
                                   33321              Ÿ        On entry:  R0,R1 = length and pointer to IP address          Ÿ
                                   33322              Ÿ                                                                     Ÿ
                                   33323              Ÿ        On exit:   CC=Z   Not valid IP address                       Ÿ
                                   33324              Ÿ                   CC=NZ  IP address returned in R15                 Ÿ
                                   33325              Ÿ                                                                     Ÿ
                                                      ¾þþþþþþþþþþþþþþþþþþþþþþþþþþþþþþþþþþþþþþþþþþþþþþþþþþþþþþþþþþþþþþþþþþþþþ»
0005544 50E0 D044/902B_      00044 33326              CNVTIP   PROC
 USING  *,R8
 00555E 95AD 1000/4770_00000       33362                       IF    (@R1,EQ,'['),BEGIN  Check for [addr]
 005566 18F1                       33378  1                      LR    R15,R1
 005568 1AF0                       33379  1                      AR    R15,R0
 00556A 06F0                       33380  1                      DECR  R15
 00556C 95BD F000/4770_00000       33382  1                      IF    (@R15,EQ,']'),BEGIN
 005574 5E10 867A            05BC8 33398  2                        INCR  R1
 005578 0600                       33401  2                        DECR  R0
 00557A 0600                       33403  2                        DECR  R0
 00557C                            33405  1                      END
 00557C                            33409                       END
                                   33413
 00557C 1821                       33414                       LR    R2,R1               Copy parm address
 00557E 1830                       33415                       LR    R3,R0               Copy parm length
 005580 1A31                       33416                       AR    R3,R1               Get parm end address
 005582 1B44                       33417                       CLEAR R4                  Clear loop counter
 005584 1B55                       33421                       CLEAR R5                  Init result register
 005586 1923/47B0 808E             33425                       WHILE (R2,LT,R3),BEGIN
 00558C 1812                       33442  1                      LR    R1,R2               Copy parm pointer
 00558E 1923/47B0 8056_            33443  1                      WHILE ((R2,LT,R3),AND,(@R2,NE,'.')),'INCR R2' Find delimiter
 0055A4 1802                       33484  1                      LR    R0,R2               Compute
 0055A6 1B01                       33485  1                      SR    R0,R1                 subparm length
 0055A8 4770 8064/1BFF_      055B2 33486  1                      IF    Z,'CLEAR R15; EXIT CNVTIP'
 0055B2 58E0 867E/0DEE       05BCC 33509  1                      DTB   (R1),(R0)           Convert
 0055B8 4740 8076/59F0_      055C4 33524  1                      IF    (M,OR,(R15,GT,255)),'CLEAR R15; EXIT CNVTIP'
 0055CA 8950 0008            00008 33563  1                      SLL   R5,8                Shift address over
 0055CE 165F                       33564  1                      OR    R5,R15              Move next byte into result
 0055D0 5E20 867A            05BC8 33565  1                      INCR  R2                  Step pointer past delimiter
 0055D4 5E40 867A            05BC8 33568  1                      INCR  R4                  Incr loop counter
 0055D8 47F0 8038            05586 33571                       END
 0055DC 1923/4740 809C_            33576                       IF    ((R2,LT,R3),OR,(R4,NE,4)),BEGIN  If invalid parm,
 0055EA 1B55                       33607  1                      CLEAR R5                             Return null result
 0055EC                            33611                       END
 0055EC 18F5                       33615                       LR    R15,R5                 Copy result
 0055EE 41D0 D030/982B_      00030 33616                       PEND
 DROP   *,R8
1ELF      (ELF2047) (12:35) (15MAR04) ELF Interface                                                                         Page  132
0Current Usings:  (CV,R12)
0Loc    Object Code    Addr1 Addr2  Stmt Lv Lineno    Source Statement           (Hibal 5, Asmedit 3.3)  HLASM R4.0  2004/03/15 12.35
+___    ______ ____    _____ _____  ____ __ ______    ______ _________
0000000                00000 00048 33637              INWA     RECORD BEGIN
 000000                            33645  1           INPOS      DS    H                   Cursor position
 000002                            33646  1                      DS    H                   Reserved
                                   33647  1
 000004                            33648  1           INPTRS     DS    2A                  Read text len, loc
                                   33649  1
                                   33650  1           INSG       SEGCB
 00000C 00                         33651  1 01-SEGCB +$$$SEGCB884   DS 0F
 INSGCOD.INSGSEG   01 EQ
 INSGCOD.INSGWR    02 EQ
 INSGCOD.INSGCLR   03 EQ
 INSGCOD.INSGSPP   04 EQ
 INSGCOD.INSGOVF   05 EQ
 INSGCOD.INSGCR    06 EQ
 INSGCOD.INSGMAR   07 EQ
 00000D 00                         33726  1 01-SEGCB +           DC    X'00'               Reserved
 00000E 0000                              1          +
 000010 00000000                   33727  1 01-SEGCB +INSGMAXF   DC    A(0)                Maximum buffer length
 000014 00000000                   33728  1 01-SEGCB +INSGMRKF   DC    A(0)                Length at last mark
 000018 00000000                   33729  1 01-SEGCB +INSGLENF   DC    A(0)                Current length
 00001C 00000000                   33730  1 01-SEGCB +INSGINDF   DC    A(0)                Overflow/indent count
 000020 00000000                   33731  1 01-SEGCB +INSGERR    DC    A(0)                Address of error recovery routine
 000024 0000000000000000           33732  1 01-SEGCB +           DC    2F'0'               Reserved
 00002C 00000000                   33733  1 01-SEGCB +INSGLOC    DC    A(0)                Location of buffer
 000030 00000000                   33734  1 01-SEGCB +INSGRTN    DC    A(0)                Processing routine
 000034 0000000000000000           33735  1 01-SEGCB +           DC    4F'0'               Reserved
 000044 00000000                   33736  1 01-SEGCB +INSGUSR    DC    A(0)                USER field
                                   33737  1 01-SEGCB +INSG       EQU   $$$SEGCB884,*-$$$SEGCB884,C'X'
 000048                00048 00048 33738                       END
-                                  33748              ¿þþþþþþþþþþþþþþþþþþþþþþþþþþþþþþþþþþþþþþþþþþþþþþþþþþþþþþþþþþþþþþþþþþþþþÜ
                                   33749              Ÿ                                                                     Ÿ
                                   33750              Ÿ  INPROC -- Routine to process read text.                            Ÿ
                                   33751              Ÿ                                                                     Ÿ
                                   33752              Ÿ    On entry:                                                        Ÿ
                                   33753              Ÿ      R1,R0 - text loc, len (in ASCII)                               Ÿ
                                   33754              Ÿ      R15   - work buffer ptr                                        Ÿ
                                   33755              Ÿ                                                                     Ÿ
                                   33756              Ÿ     On exit:                                                        Ÿ
                                   33757              Ÿ      R1,R0 - new text loc, len (in EBCDIC)                          Ÿ
                                   33758              Ÿ                                                                     Ÿ
                                                      ¾þþþþþþþþþþþþþþþþþþþþþþþþþþþþþþþþþþþþþþþþþþþþþþþþþþþþþþþþþþþþþþþþþþþþþ»
0005602 50E0 D044/902B_      00044 33759              INPROC   PROC  INWA
 USING  *,R8
 USING  INWA-@@,R13
 USING  SCB,R9                     33806                       WITH  SCB,(PDB,R7)        (Entry assumptions)
 USING  PDB,R7
 00561C 58A0 9008            00008 33828                       L     PIBR,SCBPIBP
 USING  PIB,R10                    33829                       WITH  PIB
                                   33841
 005620 D747 D04C D04C 00000 00000 33842                       CLEAR INWA
 005626 9001 D050            00004 33849                       STM   R0,R1,INPTRS        Save ptrs
1ELF      (ELF2047) (12:35) (15MAR04) ELF Interface                                                                         Page  133
0Current Usings:  (PDB,R7) (*,R8) (SCB,R9) (PIB,R10) (CV,R12) (INWA-@@,R13)
0Loc    Object Code    Addr1 Addr2  Stmt Lv Lineno    Source Statement           (Hibal 5, Asmedit 3.3)  HLASM R4.0  2004/03/15 12.35
+___    ______ ____    _____ _____  ____ __ ______    ______ _________
000562A D201 D04C 90C0 00000 000C0 33850                       MVC   INPOS,SCBOPOS       Start at last output pos
 005630 181F/4100 0FA0_            33851                       SEGINIT (R15),4000,INSG
                                   33878                       ¿þþþþþþþþþþþþþþþþþþþþþþþþþþþþþþþþþþþþþþþþþþþþþþþþþþþþþþÜ
                                   33879                       Ÿ  Handle transparent input (no translations needed).  Ÿ
                                   33880                       ¾þþþþþþþþþþþþþþþþþþþþþþþþþþþþþþþþþþþþþþþþþþþþþþþþþþþþþþ»
 005640 9120 90B7/47E0_000B7       33881                       IF    SCBMODD.MODDTRAN,BEGIN
 005648 9801 D050            00004 33897  1                      LM    R0,R1,INPTRS
 00564C 41F0 D058/58E0_      0000C 33898  1                      SEG   (R1),(R0)           Just what came in
 005656 47F0 8348            05954 33921  1                      EXIT  INPROC
 00565A                            33924                       END
                                   33928                       ¿þþþþþþþþþþþþþþþþþþþþþþþþþþþþþþþþþþþþþþþþþþþþþþþÜ
                                   33929                       Ÿ  First translate input from ASCII to EBCDIC.  Ÿ
                                   33930                       ¾þþþþþþþþþþþþþþþþþþþþþþþþþþþþþþþþþþþþþþþþþþþþþþþ»
 00565A 9856 D050            00004 33931                       LM    R5,R6,INPTRS
 00565E 5840 C4B0            004B0 33932                       L     R4,CVEB7TBL         Translate 7-bit ASCII to EBCDIC
                                   33933
 005662 1255/47D0 807C             33934                       WHILE (R5,POS),BEGIN
 005668 18F5                       33950  1                      LR    R15,R5
 00566A 59F0 85D0/47D0_      05BDC 33951  1                      CEIL  R15,256
 005676 06F0/44F0 8664_            33970  1                      DEX   R15,'TR @R6(0),@R4'
 00567C 4166 F001            00001 33989  1                      LA    R6,@R15+1(R6)
 005680 1B5F                       33990  1                      SR    R5,R15
 005682 0650                       33991  1                      DECR  R5
 005684 47F0 8056            05662 33993                       END
                                   33998
 005688 4100 00FB/41F0_      000FB 33999                       SEGCOL 250+1              Fudge area for backspaces
                                   34019
 005696 9856 D050            00004 34020                       LM    R5,R6,INPTRS
 00569A 1255/47D0 80EC             34021              INLOOP   WHILE (R5,POS),BEGIN
 0056A0 18F5                       34038  1                      LR    R15,R5
 0056A2 59F0 85D0/47D0_      05BDC 34039  1                      CEIL  R15,256
 0056AE 411F 6000            00000 34058  1                      LA    R1,@R6(R15)
 0056B2 1B22                       34059  1                      CLEAR R2
 0056B4 06F0/44F0 866A_            34063  1                      DEX   R15,'TRT @R6(0),INTBL'
 0056BA 1B16                       34082  1                      SR    R1,R6               Length processed
 0056BC 1801                       34083  1                      LR    R0,R1
 0056BE 4A10 D04C            00000 34084  1                      AH    R1,INPOS
 0056C2 4010 D04C            00000 34085  1                      STH   R1,INPOS            Kick cursor position
 0056C6 1816                       34086  1                      LR    R1,R6               Start of text
 0056C8 1A60                       34087  1                      AR    R6,R0               Update...
 0056CA 1B50                       34088  1                      SR    R5,R0               ...ptrs
 0056CC 41F0 D058/58E0_      0000C 34089  1                      SEG   (R1),(R0)           Seg text up to special char
                                   34112  1
 0056D6 1222/4780 80E8             34113  1                      IF    (R2,NZ),BEGIN       Process special character...
 0056DC 1816/4100 0001             34127  2                        SETMSG (R6),1              Special character
 0056E2 4160 6001            00001 34141  2                        LA    R6,@R6+1            Skip past...
 0056E6 0650                       34142  2                        DECR  R5                  ...the special character
 0056E8 58E2 8218/12EE       05824 34144  2                        LT    RAR,INVECT(R2)
 0056EE 4780 80E8/05EE       056F4 34148  2                        IF    NZ,'BALR RAR,RAR'   Go process it
 0056F4                            34165  1                      END
 0056F4 47F0 808E            0569A 34169                       END
                                   34174
 0056F8 5810 D078/5800_      0002C 34175                       SETMSG L:INSGLOC,L:INSGLENF
 005700 4B00 860A            05C16 34187                       SH    R0,=H'250'
1ELF      (ELF2047) (12:35) (15MAR04) ELF Interface                                                                         Page  134
0Current Usings:  (PDB,R7) (*,R8) (SCB,R9) (PIB,R10) (CV,R12) (INWA-@@,R13)
0Loc    Object Code    Addr1 Addr2  Stmt Lv Lineno    Source Statement           (Hibal 5, Asmedit 3.3)  HLASM R4.0  2004/03/15 12.35
+___    ______ ____    _____ _____  ____ __ ______    ______ _________
0005704 47D0 8108            05714 34188                       IF    POS,BEGIN
 005708 18E1/18F0/4120_            34199  1                      MOVEL (R1),@R1+250,(R0),REG2=R2  Delete fudge area
 005714                            34219                       END
 005714 5900 85D4/47B0_      05BE0 34223                       FLOOR R0,0
 005720 47F0 8348            05954 34242                       B     INPREXIT
-                                  34244                       ¿þþþþþþþþþþþþþþþþþþþþþþþþþþþþþþþþþþþþþþþþþþþÜ
                                   34245                       Ÿ  TRT table for special input characters.  Ÿ
                                   34246                       ¾þþþþþþþþþþþþþþþþþþþþþþþþþþþþþþþþþþþþþþþþþþþ»
                                   34247              IN       TBL   (X'00',X'01',X'02',X'03'),INCTRL              (Ctrl)
                                   34248                       TBL   X'05',INHT                                    HT
                                   34249                       TBL   X'07',INDEL                                   DEL
                                   34250                       TBL   (X'0B',X'0C',X'0D',X'0E',X'0F'),INCTRL        (Ctrl)
                                   34251                       TBL   (X'10',X'11',X'12',X'13'),INCTRL              (Ctrl)
                                   34252                       TBL   X'16',INBS                                    BS
                                   34253                       TBL   X'18',INCAN                                   Ctrl-X
                                   34254                       TBL   (X'19',X'1C',X'1D',X'1E',X'1F'),INCTRL        (Ctrl)
                                   34255                       TBL   (X'25',X'26',X'27',X'2D',X'2E',X'2F'),INCTRL  (Ctrl)
                                   34256                       TBL   (X'32',X'37',X'3C'),INCTRL                    (Ctrl)
                                   34257                       TBL   X'3D',INCAN                                   Ctrl-U
                                   34258                       TBL   X'3F',INCTRL                                  (Ctrl)
                                   34259                       TBL
-00583C 41F0 D058/58E0_      0000C 34338              INCTRL   SEG   (R1),(R0)
 005846 47F0 808E            0569A 34362                       B     INLOOP
                                   34363
 00584A 9140 9168/4710_00168       34364              INBS     IF    ~SCBFBACK,BEGIN     Regular mode...
 005852 D603 D064 D064_00018 00018 34380  1                      IF    (INSGLENF,NZ),'DECR R15,INSGLENF'
 005866 D601 D04C D04C_00000 00000 34406  1                      IF    (INPOS,NZ),'DECR R15,INPOS'
 00587A                            34432                       END
 00587A 8272/47F0 8290 0587A 05850 34436                       ELSE  BEGIN               Enter backspace as data...
 00587E 41F0 D058/58E0_      0000C 34447  1                      SEG   (R1),(R0)
 005888 D601 D04C D04C_00000 00000 34470  1                      IF    (INPOS,NZ),'DECR R15,INPOS'
 00589C                            34496                       END
 00589C 47F0 808E            0569A 34500                       B     INLOOP
                                   34501
 0058A0 D603 D064 D064_00018 00018 34502              INDEL    IF    (INSGLENF,NZ),'DECR R15,INSGLENF'
 0058B4 D601 D04C D04C_00000 00000 34529                       IF    (INPOS,NZ),'DECR R15,INPOS'
 0058C8 47F0 808E            0569A 34555                       B     INLOOP
                                   34556
 0058CC 41F0 D058/58E0_      0000C 34557              INCAN    SEGCLR ,                  Reset all input
 0058D6 4100 00FB/41F0_      000FB 34570                       SEGCOL 250+1              Fudge area for backspaces
 0058E4 D701 D04C D04C 00000 00000 34590                       CLEAR INPOS               Reset position too
 0058EA 47F0 808E            0569A 34597                       B     INLOOP
                                   34598
 0058EE 4140 9176            00176 34599              INHT     LA    R4,SCBTABS
 0058F2 1B33                       34600                       CLEAR R3
 0058F4 5930 85DC/47B0_      05BE8 34604                       WHILE (R3,LT,16),BEGIN
 0058FC 1F00/4303 9176             34623  1                      LC    R0,SCBTABS(R3)
 005902 1200/4780 832E             34628  1                      IF    (R0,Z),EXIT
 005908 0600                       34645  1                      DECR  R0                  Rel to zero, not one
 00590A 4900 D04C/47D0_      00000 34647  1                      IF    (R0,GT,INPOS),BEGIN
1ELF      (ELF2047) (12:35) (15MAR04) ELF Interface                                                                         Page  135
0Current Usings:  (PDB,R7) (*,R8) (SCB,R9) (PIB,R10) (CV,R12) (INWA-@@,R13)
0Loc    Object Code    Addr1 Addr2  Stmt Lv Lineno    Source Statement           (Hibal 5, Asmedit 3.3)  HLASM R4.0  2004/03/15 12.35
+___    ______ ____    _____ _____  ____ __ ______    ______ _________
0005912 48F0 D04C            00000 34664  2                        LH    R15,INPOS
 005916 4000 D04C            00000 34665  2                        STH   R0,INPOS
 00591A 1B0F                       34666  2                        SR    R0,R15
 00591C 4110 C141/41F0_      00141 34667  2                        SEG   CVBLANKS,(R0)
 00592A 47F0 808E            0569A 34693  2                        B     INLOOP
 00592E                            34694  1                      END
 00592E 4140 4001            00001 34698  1                      LA    R4,@R4+1
 005932 4130 3001            00001 34699  1                      LA    R3,@R3+1
 005936 47F0 82E8            058F4 34700                       END
 00593A 9620 700C      0000C       34705                       SET   PDBCPLA.CPLAUST     Unset tabs
 00593E 4110 8661/4100_      05C6D 34712                       SEG   X'05'               Add tab char
 005950 47F0 808E            0569A 34729                       B     INLOOP
                                   34730              *
                                   34731              *
 005954 41D0 D078/982B_      00078 34732              INPREXIT PEND
 DROP   PIB,R10
 DROP   PDB,R7
 DROP   SCB,R9
 DROP   INWA-@@,R13
 DROP   *,R8
1ELF      (ELF2047) (12:35) (15MAR04) ELF Interface                                                                         Page  136
0Current Usings:  (CV,R12)
0Loc    Object Code    Addr1 Addr2  Stmt Lv Lineno    Source Statement           (Hibal 5, Asmedit 3.3)  HLASM R4.0  2004/03/15 12.35
+___    ______ ____    _____ _____  ____ __ ______    ______ _________
0                                  34775              ¿þþþþþþþþþþþþþþþþþþþþþþþþþþþþþþþþþþþþþþþþþþþþþþþþþþþþþþþþþþþþþþþþþþþþþÜ
                                   34776              Ÿ                                                                     Ÿ
                                   34777              Ÿ  OUTPROC -- Routine to process write text.                          Ÿ
                                   34778              Ÿ                                                                     Ÿ
                                   34779              Ÿ    On entry:                                                        Ÿ
                                   34780              Ÿ      R1,R0 - input text loc, len (in EBCDIC)                        Ÿ
                                   34781              Ÿ      R15 - SEGCB ptr                                                Ÿ
                                   34782              Ÿ                                                                     Ÿ
                                   34783              Ÿ    On exit, R15 (and cc):                                           Ÿ
                                   34784              Ÿ      0 - ok                                                         Ÿ
                                   34785              Ÿ                                                                     Ÿ
                                                      ¾þþþþþþþþþþþþþþþþþþþþþþþþþþþþþþþþþþþþþþþþþþþþþþþþþþþþþþþþþþþþþþþþþþþþþ»
0005968 50E0 D044/902B_      00044 34786              OUTPROC  PROC
 USING  *,R8
 USING  SCB,R9                     34822                       WITH  SCB                  (Entry assumption)
 005982 58A0 9008            00008 34834                       L     PIBR,SCBPIBP
 USING  PIB,R10                    34835                       WITH  PIB
 005986 58B0 A008            00008 34847                       L     FEBR,PIBFEBP
 USING  FEB,R11                    34848                       WITH  FEB
                                   34860
 00598A 1871                       34861                       LR    R7,R1               Text loc
 00598C 1860                       34862                       LR    R6,R0               ... and length
 00598E 185F                       34863                       LR    R5,R15              SEGCB ptr
                                   34864                       SEGDEF (R5)
                                   34865                       ¿þþþþþþþþþþþþþþþþþþþþþþþþþþþþþþþþþþþþþþþþþþþþþþÜ
                                   34866                       Ÿ  Process special characters in output data.  Ÿ
                                   34867                       ¾þþþþþþþþþþþþþþþþþþþþþþþþþþþþþþþþþþþþþþþþþþþþþþ»
 005990 9120 90B7/4710_000B7       34868                       IF    ~SCBMODD.MODDTRAN,'SET FEBFASC'  Convert to ASCII
                                   34895
 00599C 1266/47D0 807E             34896              OUTLOOP  WHILE (R6,POS),BEGIN
 0059A2 18F6                       34913  1                      LR    R15,R6
 0059A4 59F0 826A/47D0_      05BDC 34914  1                      CEIL  R15,256
 0059B0 411F 7000            00000 34933  1                      LA    R1,@R7(R15)
 0059B4 1B22                       34934  1                      CLEAR R2
 0059B6 06F0/44F0 830A_            34938  1                      DEX   R15,'TRT @R7(0),OUTTBL'
 0059BC 1801                       34957  1                      LR    R0,R1
 0059BE 1B07                       34958  1                      SR    R0,R7               Len processed
 0059C0 1817                       34959  1                      LR    R1,R7               Start of text
 0059C2 1A70                       34960  1                      AR    R7,R0               Update
 0059C4 1B60                       34961  1                      SR    R6,R0               ... ptrs
 0059C6 18F5/58E0 8212_            34962  1                      SEG   (R1),(R0)           Seg text up to special char
                                   34983  1
 0059CE 1222/4780 807A             34984  1                      IF    (R2,NZ),BEGIN       Process special character...
 0059D4 1817/4100 0001             34998  2                        SETMSG (R7),1              Special character
 0059DA 4170 7001            00001 35012  2                        LA    R7,@R7+1            Skip past...
 0059DE 0660                       35013  2                        DECR  R6                  ...the special character
 0059E0 58E2 81AA/12EE       05B1C 35015  2                        LT    RAR,OUTVECT(R2)
 0059E6 4780 807A/0DEE       059EC 35019  2                        IF    NZ,'BASR RAR,RAR'   Go process it
 0059EC                            35036  1                      END
 0059EC 47F0 802A            0599C 35040                       END
                                   35045
 0059F0 9542 90B3/4770_000B3       35046                       IF    (SCBCMD,EQ,TMILREAD),BEGIN  Terminal read...
 0059F8 9120 90B7/4710_000B7       35064  1                      IF    SCBMODD.MODDTRAN,EXIT  Don't if TRANSPARENT
1ELF      (ELF2047) (12:35) (15MAR04) ELF Interface                                                                         Page  137
0Current Usings:  (*,R8) (SCB,R9) (PIB,R10) (FEB,R11) (CV,R12)
0Loc    Object Code    Addr1 Addr2  Stmt Lv Lineno    Source Statement           (Hibal 5, Asmedit 3.3)  HLASM R4.0  2004/03/15 12.35
+___    ______ ____    _____ _____  ____ __ ______    ______ _________
0005A00 9104 9168/47E0_00168       35083  1                      IF    SCBFXON,'SEG X"11"'  Xon
 005A18                            35118                       END
                                   35122
 005A18 47F0 81EE            05B60 35123                       B     OUTPEXIT
-                                  35125                       ¿þþþþþþþþþþþþþþþþþþþþþþþþþþþþþþþþþþþþþþþþþþþþÜ
                                   35126                       Ÿ  TRT table for special output characters.  Ÿ
                                   35127                       ¾þþþþþþþþþþþþþþþþþþþþþþþþþþþþþþþþþþþþþþþþþþþþ»
                                   35128              OUT      TBL   X'15',OUTNL         NL
                                   35129                       TBL   X'FF',OUTIAC        Telnet "IAC" conflict
                                   35130                       TBL
-005B28 9120 90B7/4710_000B7       35206              OUTNL    IF    ~SCBMODD.MODDTRAN,'SETMSG X"0D25"'  CR,LF
 005B38 18F5/58E0 8212_            35232                       SEG   (R1),(R0)
 005B40 47F0 802A            0599C 35253                       B     OUTLOOP
                                   35254
 005B44 9108 A0A1/47E0_000A1       35255              OUTIAC   IF    PIBFIAC,'SETMSG X"FFFF"'  Send "IAC FF" for FF
 005B54 18F5/58E0 8212_            35280                       SEG   (R1),(R0)
 005B5C 47F0 802A            0599C 35301                       B     OUTLOOP
                                   35302              *
                                   35303              *
 005B60 94BF B0B8      000B8       35304              OUTPEXIT CLEAR FEBFASC             Reset
 005B64 41D0 D030/982B_      00030 35312                       PEND
 DROP   FEB,R11
 DROP   PIB,R10
 DROP   SCB,R9
 DROP   *,R8
                                   35347
                                   35348                       SEGDEF DUMMY              (Safety)
                                   35349
                                   35350                       QLTORG
1ELF      (ELF2047) (12:35) (15MAR04) ELF Interface                                                                         Page  138
0Current Usings:  (CV,R12)
0Loc    Object Code    Addr1 Addr2  Stmt Lv Lineno    Source Statement           (Hibal 5, Asmedit 3.3)  HLASM R4.0  2004/03/15 12.35
+___    ______ ____    _____ _____  ____ __ ______    ______ _________
0                                  35414              ¿þþþþþþþþþþþþþþþþþþþþþþþþþþþþþþþþþþþþþþþþþþþþþþþþþþþþþþþþþþþþþþþþþþþþþÜ
                                   35415              Ÿ                                                                     Ÿ
                                   35416              Ÿ   AMYSEG -- Seg processing routine to handle writing                Ÿ
                                   35417              Ÿ     data across the Suzan path.                                     Ÿ
                                   35418              Ÿ                                                                     Ÿ
                                   35419              Ÿ     On entry:                                                       Ÿ
                                   35420              Ÿ       R15 - SEGCB ptr                                               Ÿ
                                   35421              Ÿ                                                                     Ÿ
                                                      ¾þþþþþþþþþþþþþþþþþþþþþþþþþþþþþþþþþþþþþþþþþþþþþþþþþþþþþþþþþþþþþþþþþþþþþ»
0000000                00000 00008 35422              PSGWA    RECORD BEGIN
 000000                            35430  1           PSGDATAA   DS    A                   SCOM parm: address
 000004                            35431  1           PSGDATAL   DS    F                   SCOM parm: length
 000008                00008 00008 35432                       END
                                   35441              þþþþ
 005C82 50E0 D044/902B_      00044 35442              AMYSEG   PROC  PSGWA
 USING  *,R8
 USING  PSGWA-@@,R13
 005C9C D707 D04C D04C 00000 00000 35489                       CLEAR PSGWA
                                   35496
 USING  FEB,R11                    35497                       WITH  FEB                 (Entry assumption)
 005CA2 D502 8404 B000_06090 00000 35509                       FAIL  (FEB,NE,'FEB'),'Bad FEB ptr.'
                                   35535
 005CBC 185F                       35536                       LR    R5,R15
 USING  SEGCB,R5                   35537                       WITH  (SEGCB,R5)
                                   35550                       ¿þþþþþþþÜ
                                   35551                       Ÿ  SEG  Ÿ
                                   35552                       ¾þþþþþþþ»
 005CBE 9501 5000/4770_00000       35553                       IF    SEGCBSEG,BEGIN      Adding text to buffer...
                                   35568  1                      ¿þþþþþþþþþþþþþþþþþþþþþþþþþþþþþþþþþþþþþþþþþþþþþþþþþþþþþþþþþþþÜ
                                   35569  1                      Ÿ  If it's not control data then add the TCP_WRITE prefix.  Ÿ
                                   35570  1                      ¾þþþþþþþþþþþþþþþþþþþþþþþþþþþþþþþþþþþþþþþþþþþþþþþþþþþþþþþþþþþ»
 005CC6 D603 500C 500C_0000C 0000C 35571  1                      IF    ((SEGCBLENF,Z),AND,~FEBFCTRL),BEGIN  Add prefix...
 USING  PIB,R10                    35601  2                        WITH  PIB                 (Entry assumption)
 005CD8 D502 8407 A000_06093 00000 35613  2                        FAIL  (PIB,NE,'PIB'),'Bad PIB ptr.'
                                   35639  2
 005CF2 5820 5020            00020 35640  2                        L     R2,SEGCBLOC         Start of buffer
 005CF6 D20F 2000 83AC 00000 06038 35641  2                        MVC   @R2(16),=CL16'TCP_WRITE:'  Add TCP_WRITE
 005CFC D203 2010 A0F4 00010 000F4 35642  2                        MVC   @R2+16(4),PIBAID    And Amelia connection ID
 005D02 D203 500C 83CC 0000C 06058 35643  2                        MVC   SEGCBLENF,=F'20'    Set buffer length
 DROP   PIB,R10                    35644  1                      END
                                   35653  1                      ¿þþþþþþþþþþþþþþþþþþþþþþþþþþþþþþþþþþþþþþþþþþþþþþþþþþþÜ
                                   35654  1                      Ÿ  If it's EBCDIC data then translate it to ASCII.  Ÿ
                                   35655  1                      ¾þþþþþþþþþþþþþþþþþþþþþþþþþþþþþþþþþþþþþþþþþþþþþþþþþþþ»
 005D08 9140 B0B8/47E0_000B8       35656  1                      IF    FEBFASC,BEGIN       Translate to ASCII...
 005D10 5500 83D0/47D0_      0605C 35671  2                        FAIL  (R0,LGT,CVBUFLEN),'TCP/TELNET data error.'
 005D32 1820                       35697  2                        LR    R2,R0               Save text length
 005D34 58E0 C064/18F2_      00064 35698  2                        MOVEL L:CVWKBUFP,@R1,(R2)  Copy text
 005D40 1802                       35718  2                        LR    R0,R2               Restore R0 as length
                                   35719  2
 005D42 5840 C4A0            004A0 35720  2                        L     R4,CVASCTBL         EBCDIC to ASCII translate table
 005D46 5830 C064            00064 35721  2                        L     R3,CVWKBUFP         Start of buffer...
 005D4A 5920 83D4/47D0_      06060 35722  2                        WHILE (R2,GT,256),BEGIN   Translate 256 bytes at a time...
 005D52 DCFF 3000 4000 00000 00000 35741  3                          TR    @R3(256),@R4
1ELF      (ELF2047) (12:35) (15MAR04) ELF Interface                                                                         Page  139
0Current Usings:  (SEGCB,R5) (*,R8) (FEB,R11) (CV,R12) (PSGWA-@@,R13)
0Loc    Object Code    Addr1 Addr2  Stmt Lv Lineno    Source Statement           (Hibal 5, Asmedit 3.3)  HLASM R4.0  2004/03/15 12.35
+___    ______ ____    _____ _____  ____ __ ______    ______ _________
0005D58 4130 3100            00100 35742  3                          LA    R3,@R3+256
 005D5C 4B20 83FE            0608A 35743  3                          SH    R2,=H'256'
 005D60 47F0 80BE            05D4A 35744  2                        END
 005D64 1222/47D0 80E4_            35749  2                        TDEX  R2,'TR @R3(0),@R4'     Translate remaining text
                                   35787  2
 005D70 5810 C064            00064 35788  2                        SETMSG L:CVWKBUFP,(R0)
 005D74                            35799  1                      END
 005D74                            35803                       END
                                   35807                       ¿þþþþþþþþþþþþþþþþþþþþþþþþþþþþþþÜ
                                   35808                       Ÿ  SEGWR/SEGCR (or overflow).  Ÿ
                                   35809                       ¾þþþþþþþþþþþþþþþþþþþþþþþþþþþþþþ»
 005D74 80EC/47F0 823C_05D74 05CC4 35810                       ELSEIF (SEGCBWR,OR,SEGCBCR,OR,SEGCBOVF),BEGIN  SEGWR...
 005D90 1220                       35860  1                      LTR   R2,R0               Current buffer length
 005D92 47D0 823C            05EC8 35861  1                      IF    NP,EXIT             Nothing to write, scram
                                   35875  1
 005D96 5010 D04C            00000 35876  1                      ST    R1,PSGDATAA         Seg data ptrs
 005D9A 5000 D050            00004 35877  1                      ST    R0,PSGDATAL
 005D9E 9680 D04C      00000       35878  1                      SET   PSGDATAA.X'80'      Send end of parms bit
                                   35885  1
 005DA2 4130 B0C0            000C0 35886  1                      LA    R3,FEBUPATH         Amelia path
 USING  UPATH,R3                   35887  1                      WITH  (UPATH,R3),BEGIN
 005DA6 D503 83D8 3000_06064 00000 35901  2                        FAIL  (UPATH,NE,'PATH'),'Bad ELF UPATH ptr.'
                                   35927  2
 005DC6 D603 B19C B19C_0019C 0019C 35928  2                        IF    (FEBAMYQH,NZ),BEGIN  We already have a buffer Q...
 005DD0 58E0 83DC/0DEE       06068 35944  3                          ACALL AMYSENDQ            Send pending messages
 005DD6 D603 B19C B19C_0019C 0019C 35948  3                          IF    (FEBAMYQH,Z),EXIT   Everything was sent, fine
 005DE0 47F0 81A4            05E30 35967  3                          B     ASGQ                Put new message at end of queue
 005DE4                            35968  2                        END
                                   35972  2
 005DE4 4110 B09C/4DE0_      0009C 35973  2                        XTRACE FEBTRCP,IOWRITE
 USING  TTRC,R15                   35984  2                        WITH  (TTRC,R15),BEGIN
 005DF2 D201 F018 D052 00018 00006 35998  3                          MVC   TTRCILEN,PSGDATAL+2  Data length
 005DF8 1F22/BF23 F018             35999  3                          L2    R2,TTRCILEN
 005DFE 5920 83E0/47D0_      0606C 36007  3                          CEIL  R2,L'TTRCITOT
 005E0A 5810 D04C            00000 36026  3                          L     R1,PSGDATAA
 005E0E 0620/1222/4740_            36027  3                          MOVE  R2,TTRCITOT,@R1     Save first part of data
 DROP   TTRC,R15                   36065  2                        END
                                   36073  2                        ¿þþþþþþþþþþþþþþþþþþþþþþþþþþþÜ
                                   36074  2                        Ÿ  Send message to Amelia.  Ÿ
                                   36075  2                        ¾þþþþþþþþþþþþþþþþþþþþþþþþþþþ»
 005E1A 41F0 0008/5800_      00008 36076  2                        SCOM  SEND,PSGDATAA,L:UPATMGC  Send message data
                                   36097  2                        ¿þþþþþþþþþþþþþþþþþþþþþþþþþþþþþþþþþþþþþþþþþþþþþþþþþþþþþþþþþÜ
                                   36098  2                        Ÿ  If Amelia's buffer queue is full (rare), then we will  Ÿ
                                   36099  2                        Ÿ    buffer the message ourselves until the full queue    Ÿ
                                   36100  2                        Ÿ    empties.                                             Ÿ
                                   36101  2                        ¾þþþþþþþþþþþþþþþþþþþþþþþþþþþþþþþþþþþþþþþþþþþþþþþþþþþþþþþþþ»
 005E28 59F0 83E4/4770_      06070 36102  2                        IF    (R15,EQ,UPATRBAF),BEGIN  Buffer full...
 005E30 4100 0001/5E00_      00001 36119  3           ASGQ           INCR  R0,FEBAMY#F         Count full queue condition
                                   36125  3
 005E3C 5800 D050            00004 36126  3                          L     R0,PSGDATAL         Message data
 005E40 4A00 8400            0608C 36127  3                          AH    R0,=AL2(L'AMYQHDR)  Room for AMYQ entry header
 005E44 4110 0020            00020 36128  3                          LA    R1,AMYQSUBP
 005E48 182E                       36129  3                          LR    R2,RAR
 005E4A 58E0 83E8/0DEE       06074 36130  3                          VCALL NGETCORE            Get a buffer
1ELF      (ELF2047) (12:35) (15MAR04) ELF Interface                                                                         Page  140
0Current Usings:  (UPATH,R3) (SEGCB,R5) (*,R8) (FEB,R11) (CV,R12) (PSGWA-@@,R13)
0Loc    Object Code    Addr1 Addr2  Stmt Lv Lineno    Source Statement           (Hibal 5, Asmedit 3.3)  HLASM R4.0  2004/03/15 12.35
+___    ______ ____    _____ _____  ____ __ ______    ______ _________
0005E50 1821                       36134  3                          LR    R2,R1
 USING  AMYQ,R2                    36135  3                          WITH  (AMYQ,R2)
 005E52 D203 2000 83EC 00000 06078 36148  3                          MVC   AMYQ(4),=C'AMYQ'    Set control block id
 005E58 D703 2004 2004 00004 00004 36149  3                          CLEAR AMYQLINK            No forward link
 005E5E D203 2008 D050 00008 00004 36156  3                          MVC   AMYQDLEN,PSGDATAL   Save data length
 005E64 41E0 200C/58F0_      0000C 36157  3                          MOVEL AMYQDATA,L:PSGDATAA,L:PSGDATAL  Copy transaction data
                                   36177  3
 005E74 58F0 B1A0/12FF       001A0 36178  3                          LT    R15,FEBAMYQT        Get last entry
 005E7A 4770 81FA            05E86 36182  3                          IF    Z,BEGIN             Nothing on the queue...
 005E7E 5020 B19C            0019C 36193  4                            ST    R2,FEBAMYQH         We are the queue head
 005E82 5020 B1A0            001A0 36194  4                            ST    R2,FEBAMYQT         ... and the queue tail
 005E86                            36195  3                          END
                                   36199  3
 005E86 81FE/47F0 8206 05E86 05E7C 36200  3                          ELSE  BEGIN               Add us to the end of the queue...
 005E8A 5020 F004            00004 36211  4                            ST    R2,AMYQLINK-AMYQ(,R15)  Link our entry to the end
 005E8E 5020 B1A0            001A0 36212  4                            ST    R2,FEBAMYQT         We are the new queue tail
 005E92                            36213  3                          END
                                   36217  3
 005E92 1BFF                       36218  3                          CLEAR R15                 It's a "normal" return code now
 DROP   AMYQ,R2                    36222  2                        END
                                   36231  2                        ¿þþþþþþþþþþþþþþþþþþþþþþþþþþþþþþþþþþþþþþþþþÜ
                                   36232  2                        Ÿ  Suzan path error (e.g., path closed).  Ÿ
                                   36233  2                        ¾þþþþþþþþþþþþþþþþþþþþþþþþþþþþþþþþþþþþþþþþþ»
 005E94 12FF/4780 822E             36234  2                        IF    (R15,NZ),BEGIN      Suzan path error...
 005E9A 4100 0001/5E00_      00001 36248  3                          INCR  R0,FEBAMY#E         Count Suzan path errors
                                   36254  3
 005EA6 58E0 83F0/0DEE       0607C 36255  3                          VCALL PATHRC              Get return code string
                                   36259  3
 005EAC D603 B18C B18C_0018C 0018C 36260  3                          IF    (FEBRCP,Z),BEGIN    Only set it the first time...
 005EB6 9001 B18C            0018C 36276  4                            STM   R0,R1,FEBRCP        Save return code string ptrs
 005EBA                            36277  3                          END
 005EBA                            36281  2                        END
 DROP   UPATH,R3                   36285  1                      END
                                   36293  1
 005EBA 41F0 0001/5EF0_      00001 36294  1                      INCR  R15,FEBNIO          Total front-end I/O count
 005EC6 1302                       36300  1                      LCR   R0,R2               For overflow: nbytes processed
 005EC8                            36301                       END
                                   36305                       ¿þþþþþþþþþþþþþþþþþþþþþþþþþþþþþþþþþþþþþþþþþþþÜ
                                   36306                       Ÿ  Post processing (set return code only).  Ÿ
                                   36307                       ¾þþþþþþþþþþþþþþþþþþþþþþþþþþþþþþþþþþþþþþþþþþþ»
 005EC8 8240/47F0 8258_05EC8 05D8E 36308                       ELSEIF SEGCBSPP,BEGIN     Post processing...
 005ED4 1B00                       36332  1                      CLEAR R0                  Assume A-ok
 005ED6 D603 B18C B18C_0018C 0018C 36336  1                      IF    (FEBRCP,NZ),'LA R0,4'  Trouble
 005EE4                            36358                       END
                                   36362
 005EE4 41D0 D038/982B_      00038 36363                       PEND
 DROP   SEGCB,R5
 DROP   FEB,R11
 DROP   PSGWA-@@,R13
 DROP   *,R8
1ELF      (ELF2047) (12:35) (15MAR04) ELF Interface                                                                         Page  141
0Current Usings:  (CV,R12)
0Loc    Object Code    Addr1 Addr2  Stmt Lv Lineno    Source Statement           (Hibal 5, Asmedit 3.3)  HLASM R4.0  2004/03/15 12.35
+___    ______ ____    _____ _____  ____ __ ______    ______ _________
0                                  36400              ¿þþþþþþþþþþþþþþþþþþþþþþþþþþþþþþþþþþþþþþþþþþþþþþþþþþþþþþþþþþþþþþþþþþþþþÜ
                                   36401              Ÿ                                                                     Ÿ
                                   36402              Ÿ  AMYSENDQ -- Local routine to send the queue of pending messages    Ÿ
                                   36403              Ÿ    to Amelia.                                                       Ÿ
                                   36404              Ÿ                                                                     Ÿ
                                   36405              Ÿ    On exit, R15 (and cc):                                           Ÿ
                                   36406              Ÿ      0 - nothing left on the pending queue                          Ÿ
                                   36407              Ÿ      4 - data still remains                                         Ÿ
                                   36408              Ÿ                                                                     Ÿ
                                                      ¾þþþþþþþþþþþþþþþþþþþþþþþþþþþþþþþþþþþþþþþþþþþþþþþþþþþþþþþþþþþþþþþþþþþþþ»
0000000                00000 00008 36409              ASQWA    RECORD BEGIN
 000000                            36417  1           ASQDATAA   DS    A                   SCOM parm: address
 000004                            36418  1           ASQDATAL   DS    F                   SCOM parm: length
 000008                00008 00008 36419                       END
                                   36428              þþþþ
 005EF8 50E0 D044/902B_      00044 36429              AMYSENDQ PROC  ASQWA
 USING  *,R8
 USING  ASQWA-@@,R13
 USING  FEB,R11                    36476                       WITH  FEB                 (Entry assumption)
                                   36488
 005F12 4160 B0C0            000C0 36489                       LA    R6,FEBUPATH         Amelia path
 USING  UPATH,R6                   36490                       WITH  (UPATH,R6)
 005F16 D503 8162 6000_06064 00000 36503                       FAIL  (UPATH,NE,'PATH'),'Bad ELF UPATH ptr.'
                                   36529                       ¿þþþþþþþþþþþþþþþþþþþþþþþþþþþþþþþþþþþþþþþþþþÜ
                                   36530                       Ÿ  Send all messages on our buffer queue.  Ÿ
                                   36531                       ¾þþþþþþþþþþþþþþþþþþþþþþþþþþþþþþþþþþþþþþþþþþ»
 005F36 5850 B19C/1255_      0019C 36532                       WHILE ('LT R5,FEBAMYQH',NZ),BEGIN  First entry on our Q...
 USING  AMYQ,R5                    36550  1                      WITH  (AMYQ,R5)
 005F40 D503 8176 5000_06078 00000 36563  1                      FAIL  (AMYQID,NE,'AMYQ'),'Bad AMYQ ptr.'
                                   36589  1
 005F5A 4110 500C            0000C 36590  1                      LA    R1,AMYQDATA         Start of data
 005F5E 5010 D04C            00000 36591  1                      ST    R1,ASQDATAA         Save it
 005F62 9680 D04C      00000       36592  1                      SET   ASQDATAA.X'80'      Send end of parms bit
 005F66 D203 D050 5008 00004 00008 36599  1                      MVC   ASQDATAL,AMYQDLEN   Save data length
                                   36600  1
 005F6C 4110 B09C/4DE0_      0009C 36601  1                      XTRACE FEBTRCP,IORETRY
 USING  TTRC,R15                   36612  1                      WITH  (TTRC,R15),BEGIN
 005F7A D201 F018 D052 00018 00006 36626  2                        MVC   TTRCILEN,ASQDATAL+2 Data length
 005F80 1F22/BF23 F018             36627  2                        L2    R2,TTRCILEN
 005F86 5920 816A/47D0_      0606C 36635  2                        CEIL  R2,L'TTRCITOT
 005F92 5810 D04C            00000 36654  2                        L     R1,ASQDATAA
 005F96 0620/1222/4740_            36655  2                        MOVE  R2,TTRCITOT,@R1     Save data
 DROP   TTRC,R15                   36693  1                      END
                                   36701  1                      ¿þþþþþþþþþþþþþþþþþþþþþþþþþþþÜ
                                   36702  1                      Ÿ  Send message to Amelia.  Ÿ
                                   36703  1                      ¾þþþþþþþþþþþþþþþþþþþþþþþþþþþ»
 005FA2 41F0 0008/5800_      00008 36704  1                      SCOM  SEND,ASQDATAA,L:UPATMGC  Send message data
 005FB0 59F0 816E/4780_      06070 36725  1                      IF    (R15,EQ,UPATRBAF),EXIT  Scram
 005FB8 12FF/4780 80C8             36745  1                      IF    (R15,NZ),BEGIN      Suzan path error...
 005FBE 4100 0001/5E00_      00001 36759  2                        INCR  R0,FEBAMY#E         Count Suzan path errors
 005FCA                            36765  1                      END
                                   36769  1
 005FCA D203 B19C 5004 0019C 00004 36770  1                      MVC   FEBAMYQH,AMYQLINK   Remove us from the queue
1ELF      (ELF2047) (12:35) (15MAR04) ELF Interface                                                                         Page  142
0Current Usings:  (AMYQ,R5) (UPATH,R6) (*,R8) (FEB,R11) (CV,R12) (ASQWA-@@,R13)
0Loc    Object Code    Addr1 Addr2  Stmt Lv Lineno    Source Statement           (Hibal 5, Asmedit 3.3)  HLASM R4.0  2004/03/15 12.35
+___    ______ ____    _____ _____  ____ __ ______    ______ _________
0005FD0 D603 B19C B19C_0019C 0019C 36771  1                      IF    (FEBAMYQH,Z),'CLEAR FEBAMYQT'  Nothing on the queue
                                   36799  1
 005FE0 D203 5000 817E 00000 06080 36800  1                      MVC   AMYQID,=C'OLDQ'     Change ID
 005FE6 4110 5000            00000 36801  1                      LA    R1,AMYQ
 005FEA 58E0 8182/0DEE       06084 36802  1                      VCALL FREECORE            Release entry
 005FF0 47F0 8034            05F36 36806                       END
 DROP   AMYQ,R5
                                   36816                       ¿þþþþþþþþþþþþþþþþþþþþþþþþþþþþþþþþþþþþþþþþþþþþþþþþþþþþþþþþþþÜ
                                   36817                       Ÿ  If there is nothing on our buffer, then reset the full  Ÿ
                                   36818                       Ÿ    queue empty bit and return RC=0.                      Ÿ
                                   36819                       ¾þþþþþþþþþþþþþþþþþþþþþþþþþþþþþþþþþþþþþþþþþþþþþþþþþþþþþþþþþþ»
 005FF4 41F0 0004            00004 36820                       LA    R15,4               Assume data still on queue
                                   36821
 005FF8 D603 B19C B19C_0019C 0019C 36822                       IF    (FEBAMYQH,Z),BEGIN  Nothing on queue...
 0060A8 BF/41F0 0001/1_06096 060B0 36838  1                      CLEAR UPATSFLG.UPATFFQE,MODE=LOCKED,REF=UPATH  Clear flag
 006020 1BFF                       36884  1                      CLEAR R15                 A-ok return code
 006022                            36888                       END
                                   36892
 006022 41D0 D038/982B_      00038 36893                       PEND
 DROP   UPATH,R6
 DROP   FEB,R11
 DROP   ASQWA-@@,R13
 DROP   *,R8
                                   36929
                                   36930                       QLTORG
 0060B0                060B0 060B0 36963                       END   .

1ELF      (ELF2047) (12:35) (15MAR04) Relocation Dictionary                                                                 Page  143
-   Pos.Id   Rel.Id   Flags    Address                                                       HLASM R4.0  2004/03/15 12.35
0  00000001 00000001    08    000000D1
   00000001 00000001    08    000000DE
   00000001 00000001    08    000000EA
   00000001 00000001    08    000000FA
   00000001 00000001    08    00000331
   00000001 00000001    08    0000033B
   00000001 00000001    08    00000346
   00000001 00000001    08    0000034E
   00000001 00000001    08    00000359
   00000001 00000001    08    00000360
   00000001 00000001    08    0000036F
   00000001 00000001    08    00000379
   00000001 00000001    08    00000385
   00000001 00000001    08    0000038C
   00000001 00000001    08    0000039C
   00000001 00000001    08    000003AB
   00000001 00000001    08    000003B4
   00000001 00000001    08    000003BC
   00000001 00000001    08    000003C3
   00000001 00000001    08    000003CC
   00000001 00000001    0C    00000A00
   00000001 00000001    0C    00000A04
   00000001 00000001    0C    00000A08
   00000001 00000001    0C    00000A0C
   00000001 00000001    0C    00000A10
   00000001 00000001    0C    00000A14
   00000001 00000001    0C    00000E0C
   00000001 00000001    0C    00000E28
   00000001 00000001    0C    00000E30
   00000001 00000001    0C    00000E5C
   00000001 00000001    0C    00000E60
   00000001 00000001    0C    00000E64
   00000001 00000001    0C    00001724
   00000001 00000001    0C    0000172C
   00000001 00000001    0C    00001AC0
   00000001 00000001    0C    00001AC4
   00000001 00000001    0C    00001AE0
   00000001 00000001    0C    00001AE4
   00000001 00000001    0C    00001AE8
   00000001 00000001    0C    00001AEC
   00000001 00000001    0C    00001AF0
   00000001 00000001    0C    00001AF4
   00000001 00000001    0C    00001AF8
   00000001 00000001    0C    00001AFC
   00000001 00000001    0C    000020BC
   00000001 00000001    0C    000020C4
   00000001 00000001    0C    000020C8
   00000001 00000001    0C    000020EC
   00000001 00000001    0C    000024C8
   00000001 00000001    0C    00002654
   00000001 00000001    0C    00002668
   00000001 00000001    0C    000028B4
   00000001 00000001    0C    00002CE8
   00000001 00000001    0C    00002F4C
   00000001 00000001    0C    0000390C
1ELF      (ELF2047) (12:35) (15MAR04) Relocation Dictionary                                                                 Page  144
   00000001 00000001    0C    00003910
   00000001 00000001    0C    00003914
   00000001 00000001    0C    00003918
   00000001 00000001    0C    0000391C
   00000001 00000001    0C    00003920
   00000001 00000001    0C    00003924
   00000001 00000001    0C    00003928
   00000001 00000001    0C    0000392C
   00000001 00000001    0C    00003930
   00000001 00000001    0C    00003934
   00000001 00000001    0C    00003938
   00000001 00000001    0C    0000393C
   00000001 00000001    0C    00003940
   00000001 00000001    0C    00003944
   00000001 00000001    0C    00003948
   00000001 00000001    0C    0000394C
   00000001 00000001    0C    00003A20
   00000001 00000001    0C    00003A3C
   00000001 00000001    0C    00004244
   00000001 00000001    0C    00004910
   00000001 00000001    0C    00004954
   00000001 00000001    08    00004C11
   00000001 00000001    08    00004C1B
   00000001 00000001    08    00004C25
   00000001 00000001    08    00004C2B
   00000001 00000001    08    00004C33
   00000001 00000001    08    00004C3C
   00000001 00000001    08    00004C44
   00000001 00000001    08    00004C4A
   00000001 00000001    08    00004C52
   00000001 00000001    08    00004C5C
   00000001 00000001    08    00004C68
   00000001 00000001    08    00004C73
   00000001 00000001    08    00004C7C
   00000001 00000001    08    00004C84
   00000001 00000001    08    00004C8D
   00000001 00000001    0C    00004E28
   00000001 00000001    0C    00004E6C
   00000001 00000001    0C    00004E70
   00000001 00000001    0C    00004E74
   00000001 00000001    08    0000515D
   00000001 00000001    08    00005165
   00000001 00000001    0C    00005828
   00000001 00000001    0C    0000582C
   00000001 00000001    0C    00005830
   00000001 00000001    0C    00005834
   00000001 00000001    0C    00005838
   00000001 00000001    0C    00005B20
   00000001 00000001    0C    00005B24
   00000001 00000001    0C    00005BA8
   00000001 00000001    0C    00006068
   00000001 00000002    18    00000109
   00000001 00000003    1C    00000DB0
   00000001 00000003    1C    00004E20
   00000001 00000003    1C    00005B80
   00000001 00000004    1C    00000DB4
   00000001 00000005    1C    00000DBC
   00000001 00000005    1C    000020C0
   00000001 00000006    1C    00000DC0
1ELF      (ELF2047) (12:35) (15MAR04) Relocation Dictionary                                                                 Page  145
   00000001 00000006    1C    00005BCC
   00000001 00000007    1C    00000DC4
   00000001 00000007    1C    0000264C
   00000001 00000007    1C    00002CF4
   00000001 00000007    1C    00005BB8
   00000001 00000007    1C    00006074
   00000001 00000008    1C    00000DCC
   00000001 00000008    1C    00001728
   00000001 00000008    1C    00001AA8
   00000001 00000008    1C    000020A4
   00000001 00000008    1C    000024E4
   00000001 00000008    1C    00002664
   00000001 00000008    1C    000028C8
   00000001 00000008    1C    00002CD8
   00000001 00000008    1C    00002F60
   00000001 00000008    1C    000039F0
   00000001 00000008    1C    00004254
   00000001 00000008    1C    00004928
   00000001 00000008    1C    00004E34
   00000001 00000008    1C    00005BA4
   00000001 00000009    1C    00000DD0
   00000001 00000009    1C    000020B4
   00000001 00000009    1C    00003A30
   00000001 00000009    1C    00004E64
   00000001 00000009    1C    00005BD8
   00000001 0000000A    1C    00000DD4
   00000001 0000000B    1C    00000DD8
   00000001 0000000C    1C    00000DE0
   00000001 0000000D    1C    00000DE4
   00000001 0000000E    1C    00000DE8
   00000001 0000000E    1C    00001720
   00000001 0000000E    1C    00001AA4
   00000001 0000000E    1C    000020A0
   00000001 0000000E    1C    000024E0
   00000001 0000000E    1C    00002660
   00000001 0000000E    1C    000028B8
   00000001 0000000E    1C    00002CD4
   00000001 0000000E    1C    00002F5C
   00000001 0000000E    1C    000039EC
   00000001 0000000E    1C    00004238
   00000001 0000000E    1C    00004918
   00000001 0000000E    1C    00004E30
   00000001 0000000E    1C    00005B84
   00000001 0000000F    1C    00000DEC
   00000001 00000010    1C    00000DF0
   00000001 00000010    1C    000020B8
   00000001 00000010    1C    000028C4
   00000001 00000010    1C    00004920
   00000001 00000010    1C    00004E68
   00000001 00000010    1C    00005B9C
   00000001 00000011    1C    00000DFC
   00000001 00000012    1C    00000E04
   00000001 00000013    1C    00000E10
   00000001 00000014    1C    00000E20
   00000001 00000015    1C    00000E24
   00000001 00000016    1C    00000E2C
   00000001 00000016    1C    000024DC
   00000001 00000016    1C    00002CE4
   00000001 00000016    1C    00002F58
1ELF      (ELF2047) (12:35) (15MAR04) Relocation Dictionary                                                                 Page  146
   00000001 00000016    1C    000039E8
   00000001 00000017    1C    00000E34
   00000001 00000017    1C    000024CC
   00000001 00000017    1C    00002650
   00000001 00000017    1C    00002CF8
   00000001 00000017    1C    00004248
   00000001 00000017    1C    00005BC4
   00000001 00000017    1C    00006084
   00000001 00000018    1C    00000E38
   00000001 00000018    1C    000024D0
   00000001 00000019    1C    00000E3C
   00000001 00000019    1C    000024D4
   00000001 0000001A    1C    00000E40
   00000001 0000001B    1C    00000E4C
   00000001 0000001B    1C    00001730
   00000001 0000001B    1C    000020E8
   00000001 0000001B    1C    0000265C
   00000001 0000001B    1C    00002CD0
   00000001 0000001B    1C    00003A48
   00000001 0000001B    1C    00004250
   00000001 0000001B    1C    00005BE4
   00000001 0000001C    1C    00001734
   00000001 0000001D    1C    00001738
   00000001 0000001D    1C    000024D8
   00000001 0000001D    1C    00002F54
   00000001 0000001D    1C    00004258
   00000001 0000001E    1C    00001AC8
   00000001 0000001F    1C    000020A8
   00000001 00000020    1C    000020B0
   00000001 00000021    1C    000020CC
   00000001 00000021    1C    00002CEC
   00000001 00000022    1C    000020D8
   00000001 00000022    1C    00002F48
   00000001 00000023    1C    000020DC
   00000001 00000024    1C    000020E0
   00000001 00000024    1C    000028C0
   00000001 00000024    1C    00003A34
   00000001 00000024    1C    00004950
   00000001 00000024    1C    00004E2C
   00000001 00000024    1C    00005B94
   00000001 00000025    1C    000020E4
   00000001 00000025    1C    00002F50
   00000001 00000026    1C    000039F4
   00000001 00000027    1C    00003A1C
   00000001 00000028    1C    00003A24
   00000001 00000028    1C    00005B8C
   00000001 00000029    1C    00003A60
   00000001 0000002A    1C    0000425C
   00000001 0000002B    1C    00004914
   00000001 0000002B    1C    00005BAC
   00000001 0000002C    1C    0000491C
   00000001 0000002C    1C    00005B88
   00000001 0000002D    1C    00004924
   00000001 0000002E    1C    0000492C
   00000001 0000002E    1C    00005B98
   00000001 0000002F    1C    00004940
   00000001 00000030    1C    0000607C

1ELF      (ELF2047) (12:35) (15MAR04) Ordinary Symbol and Literal Cross Reference                                           Page  147
-Symbol   Length   Value     Id    R Type   Defn References                                  HLASM R4.0  2004/03/15 12.35
0$$$@R10       1 00000000 FFFFFFF4     J     842  1089
 $$$@R11       1 00000000 FFFFFFF3     J     855  1102   1114
 $$$@R12       1 00000000 FFFFFFF2     J     868  1127
 $$$@R13       1 00000000 FFFFFFF1     J     881  1140   1144   1147   1149   1150
 $$$@R14       1 00000000 FFFFFFF0     J     894  1162
 $$$@R2        1 00000000 FFFFFFFC     J     738  1050
 $$$@R8        1 00000000 FFFFFFF6     J     816  1063
 $$$@R9        1 00000000 FFFFFFF5     J     829  1076
 $$$C1MILELF
               1 00000F34 00000001     J    8893  8895
 $$$C10MILELF
               1 00003B1E 00000001     J   24484 24486  24522  25080
 $$$C11MILELF
               1 00004274 00000001     J   26590 26592
 $$$C12MILELF
               1 000049E0 00000001     J   29140 29142  29279  29457
 $$$C13MILELF
               1 00004ED0 00000001     J   30569 30571  32401  33745  33987  34080  34955
 $$$C14MILELF
               1 00005C82 00000001     J   35408 35410  35439  35781  36059  36426  36687  36857  36876
 $$$C15MILELF
               1 000060AE 00000001     J   36958 36960
 $$$C16MILELF
               1 000060B0 00000001     J   36966 36968
 $$$C2MILELF
               1 00001756 00000001     J   11929 11931  12370  12536  12555  12831  12899
 $$$C3MILELF
               1 00001B4C 00000001     J   13273 13275
 $$$C4MILELF
               1 00002103 00000001     J   15236 15238
 $$$C5MILELF
               1 000024FD 00000001     J   16637 16639
 $$$C6MILELF
               1 0000266E 00000001     J   17166 17168
 $$$C7MILELF
               1 00002918 00000001     J   18242 18244  18570
 $$$C8MILELF
               1 00002D0D 00000001     J   19657 19659
 $$$C9MILELF
               1 00002F6A 00000001     J   20614 20616  21071  21335  21423  21549  21637  21725  22673  22935  23143
                                                 23581
 $$$D0MILELF
               1 00000F27 00000001     J    1026  5463   5622
 $$$D10MILELF
               1 0000426D 00000001     J   24485 25069
 $$$D12MILELF
               1 00004ECA 00000001     J   29141 29446
 $$$D13MILELF
               1 00005C6F 00000001     J   30570 33976  34069  34944
 $$$D14MILELF
               1 00006096 00000001     J   35409 35770  36048  36676  36847  36865
 $$$D2MILELF
               1 00001B3A 00000001     J   11930 12526  12544  12820  12888
 $$$D9MILELF
               1 00003AED 00000001     J   20615 21324  21412  21538  21626  21714  22662  23132  23570
1ELF      (ELF2047) (12:35) (15MAR04) Ordinary Symbol and Literal Cross Reference                                           Page  148
 $$$FAIL107
               1 00000683 00000001     U    6372  6370
 $$$FAIL137
               1 000009C1 00000001     U    7676  7674
 $$$FAIL163
               1 00000BCD 00000001     U    8390  8388
 $$$FAIL166
               1 00000BF1 00000001     U    8446  8444
 $$$FAIL183
               1 00001020 00000001     U    9235  9233
 $$$FAIL219
               1 0000129F 00000001     U   10421 10419
 $$$FAIL224
               1 00001377 00000001     U   10671 10669
 $$$FAIL236
               1 0000140C 00000001     U   10942 10940
 $$$FAIL286
               1 000018C1 00000001     U   12493 12491
 $$$FAIL356
               1 00001FBA 00000001     U   14922 14920
 $$$FAIL359
               1 00002001 00000001     U   14997 14995
 $$$FAIL369
               1 0000206C 00000001     U   15155 15153
 $$$FAIL373
               1 0000213C 00000001     U   15329 15327
 $$$FAIL375
               1 0000215D 00000001     U   15370 15368
 $$$FAIL377
               1 00002181 00000001     U   15398 15396
 $$$FAIL379
               1 000021A7 00000001     U   15423 15421
 $$$FAIL387
               1 00002240 00000001     U   15656 15654
 $$$FAIL389
               1 00002261 00000001     U   15697 15695
 $$$FAIL394
               1 00002296 00000001     U   15806 15804
 $$$FAIL400
               1 00002368 00000001     U   16083 16081
 $$$FAIL402
               1 00002389 00000001     U   16124 16122
 $$$FAIL411
               1 000023D6 00000001     U   16251 16249
 $$$FAIL415
               1 00002422 00000001     U   16380 16378
 $$$FAIL417
               1 00002443 00000001     U   16421 16419
 $$$FAIL469
               1 000029F9 00000001     U   18654 18652
 $$$FAIL473
               1 00002A56 00000001     U   18779 18777
 $$$FAIL488
               1 00002C51 00000001     U   19514 19512
 $$$FAIL651
               1 00003B5F 00000001     U   24620 24618
 $$$FAIL662
               1 00003BDC 00000001     U   24806 24804
 $$$FAIL707
1ELF      (ELF2047) (12:35) (15MAR04) Ordinary Symbol and Literal Cross Reference                                           Page  149
               1 00003DEB 00000001     U   25719 25717
 $$$FAIL944
               1 00005CBB 00000001     U   35530 35528
 $$$FAIL949
               1 00005CF1 00000001     U   35634 35632
 $$$FAIL952
               1 00005D31 00000001     U   35692 35690
 $$$FAIL965
               1 00005DC5 00000001     U   35922 35920
 $$$FAIL984
               1 00005F35 00000001     U   36524 36522
 $$$FAIL988
               1 00005F5A 00000001     U   36584 36582
 $$$FAIL99
               1 000005B7 00000001     U    6104  6102
 $$$RAMYQ      1 00000000 FFFFFFE0     J    4240  4258   4258
 $$$RASQWA
               1 00000000 FFFFFFD4     J   36411 36425  36425
 $$$REIB       1 00000000 FFFFFFE1     J    4189  4229   4229
 $$$RELFWA
               1 00000000 FFFFFFDE     J    5994  6007   6007
 $$$RESPWA
               1 00000000 FFFFFFDB     J   20956 21070  21070
 $$$RFDB       1 00000000 FFFFFFEC     J    1856  1964   1964
 $$$RFEB       1 00000000 FFFFFFE7     J    3057  3304   3304
 $$$RFEIBWA
               1 00000000 FFFFFFD7     J   32381 32400  32400
 $$$RHDR       1 00000000 FFFFFFE6     J    3314  3463   3463
 $$$RIACWA
               1 00000000 FFFFFFDA     J   22919 22934  22934
 $$$RINWA      1 00000000 FFFFFFD6     J   33639 33744  33744
 $$$RPDB       1 00000000 FFFFFFED     J    1644  1836   1836
 $$$RPIB       1 00000000 FFFFFFE3     J    3623  4112   4112
 $$$RPINFO
               1 00000000 FFFFFFE4     J    3602  3617   3617
 $$$RPSGWA
               1 00000000 FFFFFFD5     J   35424 35438  35438
 $$$RRCHKWA
               1 00000000 FFFFFFD9     J   24500 24521  24521
 $$$RRTMWA
               1 00000000 FFFFFFDC     J   18556 18569  18569
 $$$RSCANCB
               1 00000000 FFFFFFEA     J    2735  2761   2761
 $$$RSCB       1 00000000 FFFFFFEB     J    1970  2729   2729
 $$$RSEGCB
               1 00000000 FFFFFFE9     J    2767  2867   2867
 $$$RSETEWA
               1 00000000 FFFFFFD8     J   29160 29278  29278
 $$$RSOCK      1 00000000 FFFFFFE5     J    3473  3560   3560
 $$$RTPORTWA
               1 00000000 FFFFFFDF     J    4575  4589   4589
 $$$RTPWA      1 00000000 FFFFFFDD     J   12342 12369  12369
 $$$RTTRC      1 00000000 FFFFFFE2     J    4127  4179   4179
 $$$RUPATH
               1 00000000 FFFFFFE8     J    2930  3051   3051
 $$$SEGCB2
               4 000005D4 FFFFFFEE     F    1520  1606   1606
 $$$SEGCB26
               4 0000013C FFFFFFE7     F    3197  3283   3283
1ELF      (ELF2047) (12:35) (15MAR04) Ordinary Symbol and Literal Cross Reference                                           Page  150
 $$$SEGCB46
               4 00000100 FFFFFFE3     F    4015  4101   4101
 $$$SEGCB526
               4 00000004 FFFFFFDB     F   20964 21050  21050
 $$$SEGCB762
               4 00000054 FFFFFFD8     F   29185 29271  29271
 $$$SEGCB884
               4 0000000C FFFFFFD6     F   33651 33737  33737
 $$$100F       2 000005B8 00000001     H    6108  6097B
 $$$1000       4 000060AA 00000001     I   36871 36863X
 $$$1001       4 000060AA 00000001     I   36870 36871  36871
 $$$1002       1 00000034 00000001 A   U   36925 36918  36922  36924
 $$$101F       2 000005D8 00000001     H    6141  6130B
 $$$102F       2 00000622 00000001     H    6229  6158B
 $$$103F       2 0000061A 00000001     H    6208  6198B
 $$$104        1 00000054 00000001 A   U    6271  6264   6268   6270
 $$$106B       1 00000652 00000001     X    6300  6307U
 $$$108F       2 00000684 00000001     H    6376  6365B
 $$$109F       2 00000734 00000001     H    6604  6415B
 $$$109S       2 000006A4 00000001     H    6406  6603B
 $$$111F       2 0000072C 00000001     H    6597  6432B
 $$$112F       2 000006D8 00000001     H    6478  6465B
 $$$113F       2 000006F6 00000001     H    6516  6502B
 $$$114F       2 0000070C 00000001     H    6550  6530B
 $$$115F       2 00000722 00000001     H    6582  6562B
 $$$116F       2 00000782 00000001     H    6734  6678B  6711B
 $$$116S       2 0000075A 00000001     H    6672  6733B
 $$$119F       2 00000798 00000001     H    6782  6766B
 $$$119S       2 00000786 00000001     H    6758  6781B
 $$$121        1 00000054 00000001 A   U    6847  6840   6844   6846
 $$$123B       1 000007CA 00000001     X    6873  6880U
 $$$125F       2 000008D2 00000001     H    7260  7010B
 $$$125S       2 0000080A 00000001     H    7002  7259B
 $$$127F       2 000008CE 00000001     H    7255  7025B
 $$$128        1 00000054 00000001 A   U    7303  7296   7300   7302
 $$$130B       1 000008F6 00000001     X    7329  7336U
 $$$131F       2 00000972 00000001     H    7546  7420B
 $$$131S       2 00000920 00000001     H    7412  7545B
 $$$133F       2 0000096E 00000001     H    7541  7435B
 $$$134        1 00000054 00000001 A   U    7584  7577   7581   7583
 $$$136B       1 00000996 00000001     X    7621  7628U
 $$$138F       2 000009C2 00000001     H    7680  7669B
 $$$139F       2 000009EC 00000001     H    7759  7724B
 $$$140F       2 000009DE 00000001     H    7751  7741B
 $$$141F       2 000009F6 00000001     H    7786  7773B
 $$$143F       2 00000A80 00000001     H    7914  7905B
 $$$143S       2 00000A5A 00000001     H    7866  7913B
 $$$144F       2 00000A6A 00000001     H    7890  7879B
 $$$149F       2 00000AF2 00000001     H    8048  8039B
 $$$149S       2 00000ACC 00000001     H    8000  8047B
 $$$150F       2 00000ADC 00000001     H    8024  8013B
 $$$154F       2 00000B1C 00000001     H    8113  8099B
 $$$155F       2 00000B2E 00000001     H    8138  8125B
 $$$156F       2 00000B68 00000001     H    8212  8150B
 $$$157F       2 00000B5A 00000001     H    8193  8183B
 $$$159        1 0000002C 00000001 A   U    8276  8270   8273   8275
 $$$160F       2 00000CCA 00000001     H    8788  8351B  8407B
 $$$161B       1 00000B98 00000001     X    8305  8312U
 $$$164F       2 00000BCE 00000001     H    8394  8383B
1ELF      (ELF2047) (12:35) (15MAR04) Ordinary Symbol and Literal Cross Reference                                           Page  151
 $$$167F       2 00000BF2 00000001     H    8450  8439B
 $$$168F       2 00000C04 00000001     H    8486  8470B
 $$$169F       2 00000CCA 00000001     H    8763  8504B
 $$$170F       2 00000CB4 00000001     H    8726  8630B
 $$$171        1 0000002C 00000001 A   U    8796  8790   8793   8795
 $$$173B       1 00000F3E 00000001     X    8924  8931U
 $$$174F       2 00000FD0 00000001     H    9124  9096B
 $$$177B       4 00000FE0 00000001     I    9145  9160
 $$$177F       2 00000FE8 00000001     H    9156  9145B  9159
 $$$178B       4 00000FF0 00000001     I    9176  9191
 $$$178E       2 00000FEC 00000001     H    9167  9161
 $$$178F       2 00000FF8 00000001     H    9187  9163B  9176B  9190
 $$$180B       4 00001000 00000001     I    9207  9221
 $$$180E       2 00000FFC 00000001     H    9198  9192
 $$$180F       2 00001008 00000001     H    9218  9194B  9207B  9220
 $$$182E       2 0000100C 00000001     H    9228  9222
 $$$182F       2 00001020 00000001     H    9239  9224B
 $$$184        1 0000002C 00000001 A   U    9277  9271   9274   9276
 $$$186B       1 0000103E 00000001     X    9301  9308U
 $$$187F       2 0000105A 00000001     H    9395  9380B
 $$$188F       2 0000118E 00000001     H    9990  9429B
 $$$188T       2 0000106A 00000001     H    9432  9416B
 $$$190F       2 00001094 00000001     H    9516  9448B
 $$$194F       2 00001108 00000001     H    9772  9530B
 $$$195B       4 000010A0 00000001     I    9546  9584
 $$$195F       2 000010B0 00000001     H    9580  9546B  9563B  9583
 $$$198E       2 000010B4 00000001     H    9591  9585
 $$$198F       2 000010C0 00000001     H    9623  9587B  9605B
 $$$200B       4 000010C4 00000001     I    9636  9701
 $$$200F       2 000010E6 00000001     H    9697  9636B  9653B  9700
 $$$203E       2 000010EA 00000001     H    9708  9702
 $$$203F       2 00001108 00000001     H    9767  9704B  9722B
 $$$205F       2 00001130 00000001     H    9818  9787B
 $$$206F       2 00001146 00000001     H    9864  9831B
 $$$207F       2 0000117A 00000001     H    9955  9881B
 $$$208F       2 00001162 00000001     H    9918  9897B
 $$$210F       2 00001176 00000001     H    9950  9938B
 $$$211F       2 0000118A 00000001     H    9984  9969B
 $$$212F       2 00001202 00000001     H   10171 10007B
 $$$214F       2 000011F8 00000001     H   10156 10041B 10059B
 $$$218F       2 0000132C 00000001     H   10580 10188B
 $$$220F       2 000012A0 00000001     H   10425 10414B
 $$$221        1 0000002C 00000001 A   U   10619 10613  10616  10618
 $$$223B       1 0000134A 00000001     X   10646 10653U
 $$$225        1 0000002C 00000001 A   U   10688 10682  10685  10687
 $$$227B       1 00001396 00000001     X   10714 10721U
 $$$228B       4 000013BE 00000001     I   10817 10831
 $$$228F       2 000013C6 00000001     H   10827 10817B 10830
 $$$229B       4 000013CE 00000001     I   10850 10864
 $$$229E       2 000013CA 00000001     H   10838 10832
 $$$229F       2 000013D6 00000001     H   10860 10834B 10850B 10863
 $$$231B       4 000013DE 00000001     I   10883 10897
 $$$231E       2 000013DA 00000001     H   10871 10865
 $$$231F       2 000013E6 00000001     H   10893 10867B 10883B 10896
 $$$233B       4 000013EE 00000001     I   10916 10929
 $$$233E       2 000013EA 00000001     H   10904 10898
 $$$233F       2 000013F6 00000001     H   10926 10900B 10916B 10928
 $$$235E       2 000013FA 00000001     H   10936 10930
 $$$235F       2 0000140C 00000001     H   10946 10932B
1ELF      (ELF2047) (12:35) (15MAR04) Ordinary Symbol and Literal Cross Reference                                           Page  152
 $$$237F       2 00001420 00000001     H   10977 10962B
 $$$239F       2 0000142C 00000001     H   11004 10989B
 $$$241F       2 00001438 00000001     H   11031 11016B
 $$$243F       2 00001444 00000001     H   11058 11043B
 $$$245F       2 00001450 00000001     H   11085 11070B
 $$$247F       2 00001464 00000001     H   11130 11097B 11115B
 $$$250F       2 00001470 00000001     H   11157 11142B
 $$$251F       2 00001502 00000001     H   11477 11172B
 $$$252F       2 00001484 00000001     H   11202 11187B
 $$$253F       2 00001490 00000001     H   11229 11214B
 $$$255F       2 0000149C 00000001     H   11256 11241B
 $$$257F       2 000014A8 00000001     H   11283 11268B
 $$$259F       2 000014B4 00000001     H   11310 11295B
 $$$261F       2 000014C0 00000001     H   11337 11322B
 $$$263F       2 000014CC 00000001     H   11364 11349B
 $$$265F       2 000014D8 00000001     H   11391 11376B
 $$$267F       2 000014E4 00000001     H   11418 11403B
 $$$269F       2 000014F0 00000001     H   11444 11429B
 $$$270F       2 000014FC 00000001     H   11471 11456B
 $$$272F       2 00001534 00000001     H   11561 11548B
 $$$273F       2 000015D6 00000001     H   11844 11631B
 $$$274        1 00000040 00000001 A   U   11888 11881  11885  11887
 $$$276B       1 00001760 00000001     X   11955 11962U
 $$$277F       2 0000179A 00000001     H   12060 12050B
 $$$278F       2 000017AC 00000001     H   12083 12073B
 $$$279F       2 0000184A 00000001     H   12284 12116B
 $$$279T       2 000017C4 00000001     H   12119 12103B
 $$$281        1 00000014 00000001 A   U   12190 12188
 $$$282        1 00000014 00000001 A   U   12289 12287
 $$$283        1 0000002C 00000001 A   U   12328 12322  12325  12327
 $$$285B       1 00001876 00000001     X   12395 12402U
 $$$287F       2 000018C2 00000001     H   12497 12486B
 $$$288F       2 00001944 00000001     H   12687 12512B
 $$$291        4 00001B3C 00000001     I   12550 12542X
 $$$292        4 00001B3C 00000001     I   12549 12550  12550
 $$$293F       2 00001944 00000001     H   12683 12576B
 $$$294F       2 0000193E 00000001     H   12671 12622B
 $$$295F       2 00001932 00000001     H   12648 12638B
 $$$296F       2 0000193E 00000001     H   12667 12658B
 $$$297F       2 00001952 00000001     H   12714 12702B
 $$$299F       2 00001A50 00000001     H   13148 12730B
 $$$299S       2 00001956 00000001     H   12724 13147B
 $$$301F       2 0000199E 00000001     H   12798 12789B
 $$$302F       2 000019AA 00000001     H   12836 12812B
 $$$303        6 00001B40 00000001     I   12826 12818X
 $$$304        6 00001B40 00000001     I   12825 12826  12826
 $$$305F       2 000019BC 00000001     H   12866 12857B
 $$$306F       2 000019C8 00000001     H   12904 12880B
 $$$307        6 00001B46 00000001     I   12894 12886X
 $$$308        6 00001B46 00000001     I   12893 12894  12894
 $$$309B       4 000019CE 00000001     I   12918 12935
 $$$309F       2 000019D8 00000001     H   12930 12918B 12934
 $$$310B       4 000019E2 00000001     I   12953 12970
 $$$310E       2 000019DC 00000001     H   12942 12936
 $$$310F       2 000019EC 00000001     H   12965 12938B 12953B 12969
 $$$312B       4 00001A00 00000001     I   13004 13021
 $$$312E       2 000019F0 00000001     H   12977 12971
 $$$312F       2 00001A0A 00000001     H   13016 12973B 13004B 13020
 $$$312T       2 00001A04 00000001     H   13007 12992B
1ELF      (ELF2047) (12:35) (15MAR04) Ordinary Symbol and Literal Cross Reference                                           Page  153
 $$$315B       4 00001A14 00000001     I   13039 13056
 $$$315E       2 00001A0E 00000001     H   13028 13022
 $$$315F       2 00001A1E 00000001     H   13051 13024B 13039B 13055
 $$$317B       4 00001A28 00000001     I   13074 13091
 $$$317E       2 00001A22 00000001     H   13063 13057
 $$$317F       2 00001A32 00000001     H   13086 13059B 13074B 13090
 $$$319B       4 00001A3C 00000001     I   13109 13127
 $$$319E       2 00001A36 00000001     H   13098 13092
 $$$319F       2 00001A46 00000001     H   13121 13094B 13109B 13126
 $$$321E       2 00001A4A 00000001     H   13134 13128
 $$$321F       2 00001A4A 00000001     H   13140 13130B
 $$$322F       2 00001A74 00000001     H   13191 13172B
 $$$324        1 0000008C 00000001 A   U   13196 13194
 $$$325        1 0000002C 00000001 A   U   13229 13223  13226  13228
 $$$326F       2 00001F62 00000001     H   14810 13505B
 $$$327B       1 00001B56 00000001     X   13302 13309U
 $$$328F       2 00001B82 00000001     H   13406 13376B
 $$$328S       2 00001B6A 00000001     H   13368 13405B
 $$$331F       2 00001BF0 00000001     H   13589 13580B
 $$$331S       2 00001BC2 00000001     H   13514 13588B
 $$$332F       2 00001BD0 00000001     H   13542 13529B
 $$$336F       2 00001C26 00000001     H   13643 13628B
 $$$337F       2 00001C32 00000001     H   13669 13654B
 $$$338F       2 00001C3E 00000001     H   13695 13680B
 $$$339F       2 00001C4A 00000001     H   13721 13706B
 $$$340F       2 00001C56 00000001     H   13747 13732B
 $$$341F       2 00001C62 00000001     H   13773 13758B
 $$$342F       2 00001C6E 00000001     H   13799 13784B
 $$$343F       2 00001C7A 00000001     H   13825 13810B
 $$$344F       2 00001D50 00000001     H   14075 14060B
 $$$345F       2 00001D5C 00000001     H   14101 14086B
 $$$346F       2 00001D68 00000001     H   14127 14112B
 $$$347F       2 00001DF6 00000001     H   14309 14293B
 $$$348F       2 00001E4C 00000001     H   14409 14323B
 $$$349F       2 00001E7E 00000001     H   14488 14423B
 $$$350F       2 00001ECC 00000001     H   14570 14536B
 $$$351F       2 00001F16 00000001     H   14678 14610B
 $$$352F       2 00001F62 00000001     H   14769 14700B
 $$$353        1 0000002C 00000001 A   U   14818 14812  14815  14817
 $$$354F       2 0000206C 00000001     H   15185 14970B
 $$$355B       1 00001F8C 00000001     X   14856 14863U
 $$$357F       2 00001FBA 00000001     H   14926 14915B
 $$$358F       2 00001FEC 00000001     H   14974 14955B
 $$$360F       2 00002002 00000001     H   15001 14990B
 $$$362F       2 00002028 00000001     H   15051 15038B
 $$$363B       4 0000202C 00000001     I   15065 15080
 $$$363F       2 00002034 00000001     H   15076 15065B 15079
 $$$364B       4 0000203C 00000001     I   15096 15111
 $$$364E       2 00002038 00000001     H   15087 15081
 $$$364F       2 00002044 00000001     H   15107 15083B 15096B 15110
 $$$366B       4 0000204C 00000001     I   15127 15141
 $$$366E       2 00002048 00000001     H   15118 15112
 $$$366F       2 00002054 00000001     H   15138 15114B 15127B 15140
 $$$368E       2 00002058 00000001     H   15148 15142
 $$$368F       2 0000206C 00000001     H   15159 15144B
 $$$370        1 0000002C 00000001 A   U   15193 15187  15190  15192
 $$$372B       1 0000210E 00000001     X   15263 15270U
 $$$374F       2 0000213C 00000001     H   15333 15322B
 $$$376F       2 0000215E 00000001     H   15374 15363B
1ELF      (ELF2047) (12:35) (15MAR04) Ordinary Symbol and Literal Cross Reference                                           Page  154
 $$$378F       2 00002182 00000001     H   15402 15391B
 $$$380F       2 000021A8 00000001     H   15427 15416B
 $$$381F       2 000021BE 00000001     H   15455 15441B
 $$$382F       2 000021D4 00000001     H   15489 15469B
 $$$383F       2 000021EA 00000001     H   15521 15501B
 $$$384        1 0000002C 00000001 A   U   15560 15554  15557  15559
 $$$386B       1 00002212 00000001     X   15590 15597U
 $$$388F       2 00002240 00000001     H   15660 15649B
 $$$390F       2 00002262 00000001     H   15701 15690B
 $$$391B       4 00002268 00000001     I   15717 15737
 $$$391F       2 00002270 00000001     H   15731 15717B 15736
 $$$392E       2 00002274 00000001     H   15744 15738
 $$$392F       2 0000231C 00000001     H   15959 15740B 15766B
 $$$395F       2 00002296 00000001     H   15810 15799B
 $$$396F       2 0000231C 00000001     H   15950 15822B
 $$$397        1 0000002C 00000001 A   U   15992 15986  15989  15991
 $$$399B       1 0000233A 00000001     X   16017 16024U
 $$$401F       2 00002368 00000001     H   16087 16076B
 $$$403F       2 0000238A 00000001     H   16128 16117B
 $$$405B       4 00002396 00000001     I   16161 16176
 $$$405F       2 0000239E 00000001     H   16172 16161B 16175
 $$$406B       4 000023A6 00000001     I   16192 16207
 $$$406E       2 000023A2 00000001     H   16183 16177
 $$$406F       2 000023AE 00000001     H   16203 16179B 16192B 16206
 $$$408B       4 000023B6 00000001     I   16223 16237
 $$$408E       2 000023B2 00000001     H   16214 16208
 $$$408F       2 000023BE 00000001     H   16234 16210B 16223B 16236
 $$$410E       2 000023C2 00000001     H   16244 16238
 $$$410F       2 000023D6 00000001     H   16255 16240B
 $$$412        1 0000002C 00000001 A   U   16289 16283  16286  16288
 $$$414B       1 000023F4 00000001     X   16314 16321U
 $$$416F       2 00002422 00000001     H   16384 16373B
 $$$418F       2 00002444 00000001     H   16425 16414B
 $$$419F       2 00002454 00000001     H   16453 16440B
 $$$420F       2 00002498 00000001     H   16574 16467B
 $$$421        1 0000002C 00000001 A   U   16607 16601  16604  16606
 $$$423B       1 00002508 00000001     X   16665 16672U
 $$$424F       2 0000256A 00000001     H   16800 16731B
 $$$425F       2 00002566 00000001     H   16794 16760B
 $$$426F       2 000025D0 00000001     H   16976 16838B 16856B
 $$$428F       2 000025DE 00000001     H   17002 16990B
 $$$429        1 0000002C 00000001 A   U   17030 17024  17027  17029
 $$$431B       1 000025FC 00000001     X   17055 17062U
 $$$432F       2 0000261E 00000001     H   17121 17108B
 $$$433        1 0000002C 00000001 A   U   17143 17137  17140  17142
 $$$435B       1 00002678 00000001     X   17195 17202U
 $$$436F       2 0000288C 00000001     H   18163 17257B
 $$$436S       2 0000268C 00000001     H   17251 18162B
 $$$438F       2 000026AA 00000001     H   17312 17275B
 $$$439F       2 000026A6 00000001     H   17307 17292B
 $$$440F       2 0000270A 00000001     H   17532 17326B
 $$$441B       4 000026B6 00000001     I   17343 17362
 $$$441F       2 000026BE 00000001     H   17358 17343B 17361
 $$$442B       4 000026C6 00000001     I   17380 17399
 $$$442E       2 000026C2 00000001     H   17369 17363
 $$$442F       2 000026CE 00000001     H   17395 17365B 17380B 17398
 $$$444B       4 000026D6 00000001     I   17417 17436
 $$$444E       2 000026D2 00000001     H   17406 17400
 $$$444F       2 000026DE 00000001     H   17432 17402B 17417B 17435
1ELF      (ELF2047) (12:35) (15MAR04) Ordinary Symbol and Literal Cross Reference                                           Page  155
 $$$446B       4 000026E6 00000001     I   17454 17473
 $$$446E       2 000026E2 00000001     H   17443 17437
 $$$446F       2 000026EE 00000001     H   17469 17439B 17454B 17472
 $$$448B       4 000026F6 00000001     I   17490 17508
 $$$448E       2 000026F2 00000001     H   17480 17474
 $$$448F       2 000026FE 00000001     H   17505 17476B 17490B 17507
 $$$450E       2 00002702 00000001     H   17515 17509
 $$$450F       2 00002706 00000001     H   17527 17511B
 $$$451F       2 00002806 00000001     H   17926 17546B
 $$$452F       2 000027FE 00000001     H   17914 17566B
 $$$453B       4 00002736 00000001     I   17587 17663
 $$$453F       2 00002778 00000001     H   17659 17587B 17662
 $$$454E       2 0000277C 00000001     H   17670 17664
 $$$454F       2 000027FE 00000001     H   17910 17666B
 $$$455B       4 000027BE 00000001     I   17776 17808
 $$$455F       2 000027D0 00000001     H   17805 17776B 17807
 $$$456E       2 000027D4 00000001     H   17815 17809
 $$$456F       2 000027E8 00000001     H   17865 17811B
 $$$457F       2 00002830 00000001     H   17990 17940B
 $$$458F       2 00002828 00000001     H   17978 17960B
 $$$459F       2 00002872 00000001     H   18123 18007B
 $$$460F       2 0000286A 00000001     H   18111 18024B 18043B
 $$$462F       2 00002882 00000001     H   18152 18137B
 $$$463        1 0000002C 00000001 A   U   18216 18210  18213  18215
 $$$465B       1 00002922 00000001     X   18270 18277U
 $$$466        1 0000002C 00000001 A   U   18544 18538  18541  18543
 $$$468B       1 000029CE 00000001     X   18590 18597U
 $$$470F       2 000029FA 00000001     H   18658 18647B
 $$$472F       2 00002AAC 00000001     H   18907 18739B
 $$$474F       2 00002A56 00000001     H   18783 18772B
 $$$475F       2 00002AA2 00000001     H   18895 18796B
 $$$476F       2 00002B38 00000001     H   19146 18923B
 $$$477F       2 00002AC4 00000001     H   18951 18938B
 $$$478        1 00000054 00000001 A   U   19192 19185  19189  19191
 $$$480B       1 00002B72 00000001     X   19221 19228U
 $$$481F       2 00002BD4 00000001     H   19356 19287B
 $$$482F       2 00002BD0 00000001     H   19350 19316B
 $$$483F       2 00002C8C 00000001     H   19596 19400B
 $$$483S       2 00002BE2 00000001     H   19391 19595B
 $$$485F       2 00002C02 00000001     H   19444 19432B
 $$$487B       4 00002C22 00000001     I   19490 19547
 $$$487F       2 00002C6A 00000001     H   19543 19490B 19546
 $$$489F       2 00002C52 00000001     H   19518 19507B
 $$$490E       2 00002C6E 00000001     H   19554 19548
 $$$490F       2 00002C88 00000001     H   19586 19550B
 $$$491        1 0000002C 00000001 A   U   19625 19619  19622  19624
 $$$493B       1 00002D18 00000001     X   19689 19696U
 $$$494F       2 00002D5E 00000001     H   19842 19798B
 $$$495F       2 00002D4E 00000001     H   19828 19816B
 $$$496B       4 00002D62 00000001     I   19859 19873
 $$$496F       2 00002D6A 00000001     H   19869 19859B 19872
 $$$497B       4 00002D72 00000001     I   19892 19906
 $$$497E       2 00002D6E 00000001     H   19880 19874
 $$$497F       2 00002D7A 00000001     H   19902 19876B 19892B 19905
 $$$499B       4 00002D82 00000001     I   19925 19939
 $$$499E       2 00002D7E 00000001     H   19913 19907
 $$$499F       2 00002D8A 00000001     H   19935 19909B 19925B 19938
 $$$501B       4 00002D92 00000001     I   19958 19977
 $$$501E       2 00002D8E 00000001     H   19946 19940
1ELF      (ELF2047) (12:35) (15MAR04) Ordinary Symbol and Literal Cross Reference                                           Page  156
 $$$501F       2 00002D9E 00000001     H   19974 19942B 19958B 19976
 $$$504E       2 00002DA2 00000001     H   19984 19978
 $$$504F       2 00002DAA 00000001     H   19993 19980B
 $$$505B       4 00002DAE 00000001     I   20008 20028
 $$$505F       2 00002DB6 00000001     H   20024 20008B 20027
 $$$507B       4 00002DBE 00000001     I   20047 20067
 $$$507E       2 00002DBA 00000001     H   20035 20029
 $$$507F       2 00002DC6 00000001     H   20063 20031B 20047B 20066
 $$$510E       2 00002DCA 00000001     H   20074 20068
 $$$510F       2 00002DD6 00000001     H   20102 20070B 20086B
 $$$513F       2 00002E1A 00000001     H   20166 20142B
 $$$514B       4 00002E82 00000001     I   20266 20282
 $$$514F       2 00002E8C 00000001     H   20279 20266B 20281
 $$$515E       2 00002E90 00000001     H   20289 20283
 $$$515F       2 00002E96 00000001     H   20299 20285B
 $$$516        1 0000002C 00000001 A   U   20347 20341  20344  20346
 $$$518B       1 00002EB6 00000001     X   20372 20379U
 $$$519F       2 00002ED6 00000001     H   20441 20428B
 $$$520F       2 00002F1A 00000001     H   20562 20455B
 $$$521        1 0000002C 00000001 A   U   20590 20584  20587  20589
 $$$523B       1 00002F74 00000001     X   20643 20650U
 $$$524F       2 00002F94 00000001     H   20712 20699B
 $$$525        1 0000002C 00000001 A   U   20935 20929  20932  20934
 $$$535B       1 0000302A 00000001     X   21091 21098U
 $$$536F       2 00003482 00000001     H   22737 21197B 21228B
 $$$538F       2 00003256 00000001     H   21986 21253B
 $$$538S       2 00003078 00000001     H   21245 21985B
 $$$54F        2 0000012C 00000001     H    4546  4363B  4497B
 $$$540F       2 000030B6 00000001     H   21345 21273B
 $$$541F       2 000030A6 00000001     H   21302 21293B
 $$$542F       2 000030B2 00000001     H   21340 21316B
 $$$543        6 00003AEE 00000001     I   21330 21322X
 $$$544        6 00003AEE 00000001     I   21329 21330  21330
 $$$545F       2 000030FE 00000001     H   21471 21361B
 $$$546F       2 000030DA 00000001     H   21390 21381B
 $$$547F       2 000030E6 00000001     H   21428 21404B
 $$$548        6 00003AF4 00000001     I   21418 21410X
 $$$549        6 00003AF4 00000001     I   21417 21418  21418
 $$$55B        1 00000020 00000001     X    4290  4297U
 $$$550F       2 000030FA 00000001     H   21466 21443B 21457B
 $$$552F       2 00003132 00000001     H   21559 21487B
 $$$553F       2 00003122 00000001     H   21516 21507B
 $$$554F       2 0000312E 00000001     H   21554 21530B
 $$$555        6 00003AFA 00000001     I   21544 21536X
 $$$556        6 00003AFA 00000001     I   21543 21544  21544
 $$$557F       2 00003166 00000001     H   21647 21575B
 $$$558F       2 00003156 00000001     H   21604 21595B
 $$$559F       2 00003162 00000001     H   21642 21618B
 $$$56F        2 00000050 00000001     H    4367  4350B
 $$$560        6 00003B00 00000001     I   21632 21624X
 $$$561        6 00003B00 00000001     I   21631 21632  21632
 $$$562F       2 000031AE 00000001     H   21773 21663B
 $$$563F       2 0000318A 00000001     H   21692 21683B
 $$$564F       2 00003196 00000001     H   21730 21706B
 $$$565        6 00003B06 00000001     I   21720 21712X
 $$$566        6 00003B06 00000001     I   21719 21720  21720
 $$$567F       2 000031AA 00000001     H   21768 21745B 21759B
 $$$569F       2 000031C2 00000001     H   21802 21789B
 $$$57F        2 00000094 00000001     H    4438  4428B
1ELF      (ELF2047) (12:35) (15MAR04) Ordinary Symbol and Literal Cross Reference                                           Page  157
 $$$570F       2 000031D6 00000001     H   21831 21818B
 $$$571F       2 000031F0 00000001     H   21861 21847B
 $$$572F       2 00003204 00000001     H   21891 21877B
 $$$573F       2 0000321E 00000001     H   21921 21907B
 $$$574F       2 00003238 00000001     H   21951 21937B
 $$$575F       2 00003252 00000001     H   21981 21967B
 $$$576F       2 0000327C 00000001     H   22048 22001B
 $$$577F       2 0000327C 00000001     H   22044 22034B
 $$$578F       2 00003306 00000001     H   22207 22064B
 $$$579F       2 000032C6 00000001     H   22135 22101B 22123B
 $$$58F        2 000000B4 00000001     H    4478  4467B
 $$$58T        2 000000A8 00000001     H    4470  4454B
 $$$581F       2 00003306 00000001     H   22203 22169B 22191B
 $$$583F       2 00003390 00000001     H   22363 22220B
 $$$584F       2 00003350 00000001     H   22291 22257B 22279B
 $$$586F       2 00003390 00000001     H   22359 22325B 22347B
 $$$588F       2 00003416 00000001     H   22556 22378B
 $$$589F       2 000033FE 00000001     H   22515 22482B
 $$$590F       2 00003428 00000001     H   22582 22572B
 $$$591F       2 0000345C 00000001     H   22682 22594B 22614B
 $$$593F       2 00003450 00000001     H   22640 22631B
 $$$594F       2 0000345C 00000001     H   22678 22654B
 $$$595        6 00003B0C 00000001     I   22668 22660X
 $$$596        6 00003B0C 00000001     I   22667 22668  22668
 $$$597F       2 0000346C 00000001     H   22705 22695B
 $$$598F       2 0000347C 00000001     H   22728 22718B
 $$$599        1 0000020C 00000001 A   U   22781 22774  22778  22780
 $$$60         1 0000002C 00000001 A   U    4554  4548   4551   4553
 $$$601B       1 000034B6 00000001     X   22813 22820U
 $$$602F       2 000034D4 00000001     H   22873 22863B
 $$$603        1 0000002C 00000001 A   U   22895 22889  22892  22894
 $$$605B       1 000034F6 00000001     X   22954 22961U
 $$$606F       2 00003538 00000001     H   23080 23050B
 $$$607F       2 000035EC 00000001     H   23397 23096B
 $$$607S       2 00003538 00000001     H   23090 23396B
 $$$609F       2 0000354C 00000001     H   23120 23111B
 $$$610        6 00003B12 00000001     I   23138 23130X
 $$$611        6 00003B12 00000001     I   23137 23138  23138
 $$$612F       2 00003574 00000001     H   23195 23164B
 $$$613B       4 00003580 00000001     I   23217 23311
 $$$613F       2 000035B2 00000001     H   23304 23217B 23310
 $$$614B       4 00003588 00000001     I   23232 23271
 $$$614F       2 0000359C 00000001     H   23267 23232B 23270
 $$$615E       2 000035A0 00000001     H   23278 23272
 $$$615F       2 000035AC 00000001     H   23296 23274B
 $$$616E       2 000035B6 00000001     H   23318 23312
 $$$616F       2 000035E8 00000001     H   23392 23314B 23329B
 $$$619F       2 000035D6 00000001     H   23381 23368B
 $$$62B        1 0000014A 00000001     X    4612  4619U
 $$$621F       2 00003698 00000001     H   23660 23453B
 $$$622F       2 00003698 00000001     H   23656 23478B
 $$$623F       2 00003698 00000001     H   23652 23502B
 $$$624F       2 00003698 00000001     H   23648 23522B
 $$$625F       2 0000365E 00000001     H   23547 23538B
 $$$626F       2 0000366C 00000001     H   23586 23562B
 $$$627        6 00003B18 00000001     I   23576 23568X
 $$$628        6 00003B18 00000001     I   23575 23576  23576
 $$$629F       2 00003698 00000001     H   23644 23612B
 $$$63F        2 0000017C 00000001     H    4710  4696B
1ELF      (ELF2047) (12:35) (15MAR04) Ordinary Symbol and Literal Cross Reference                                           Page  158
 $$$630B       4 000036A6 00000001     I   23684 23723
 $$$630F       2 000036BA 00000001     H   23719 23684B 23722
 $$$631E       2 000036BE 00000001     H   23730 23724
 $$$631F       2 000036CA 00000001     H   23748 23726B
 $$$633F       2 00003742 00000001     H   23905 23868B
 $$$636B       4 0000376C 00000001     I   23979 23999
 $$$636F       2 00003774 00000001     H   23994 23979B 23998
 $$$637B       4 0000377C 00000001     I   24017 24030
 $$$637E       2 00003778 00000001     H   24006 24000
 $$$637F       2 00003780 00000001     H   24026 24002B 24017B 24029
 $$$639E       2 00003784 00000001     H   24037 24031
 $$$639F       2 000037A6 00000001     H   24100 24033B
 $$$64F        2 00000196 00000001     H    4747  4733B
 $$$641F       2 000037DC 00000001     H   24172 24149B
 $$$642F       2 000037F6 00000001     H   24219 24187B
 $$$643        1 00000120 00000001 A   U   24258 24251  24255  24257
 $$$645B       1 0000395A 00000001     X   24323 24330U
 $$$646B       4 0000396C 00000001     I   24355 24372
 $$$646F       2 00003974 00000001     H   24368 24355B 24371
 $$$647E       2 00003978 00000001     H   24379 24373
 $$$647F       2 00003986 00000001     H   24391 24375B
 $$$648        1 00000018 00000001 A   U   24409 24403  24406  24408
 $$$65F        2 000001E6 00000001     H    4836  4809B
 $$$650B       1 00003B28 00000001     X   24542 24549U
 $$$652F       2 00003B60 00000001     H   24624 24613B
 $$$653F       2 00003BAE 00000001     H   24752 24664B 24677B
 $$$657B       4 00003B86 00000001     I   24694 24735
 $$$657F       2 00003BA6 00000001     H   24732 24694B 24734
 $$$658F       2 00003B96 00000001     H   24724 24711B
 $$$659E       2 00003BAA 00000001     H   24742 24736
 $$$659F       2 00003BAE 00000001     H   24748 24738B
 $$$66F        2 00000250 00000001     H    5040  4881B
 $$$66S        2 000001F8 00000001     H    4873  5039B
 $$$660F       2 00003C02 00000001     H   24882 24770B 24781B
 $$$663F       2 00003BDC 00000001     H   24810 24799B
 $$$664F       2 00003BFE 00000001     H   24870 24837B
 $$$664T       2 00003BEC 00000001     H   24840 24826B
 $$$666F       2 00003C0E 00000001     H   24911 24896B
 $$$667F       2 00003C26 00000001     H   24963 24927B
 $$$669F       2 00003C26 00000001     H   24959 24944B
 $$$670F       2 00003CE0 00000001     H   25312 25302B
 $$$670S       2 00003C2E 00000001     H   24974 25311B
 $$$671F       2 00003C48 00000001     H   25014 24983B
 $$$672F       2 00003C44 00000001     H   25009 24998B
 $$$673F       2 00003C54 00000001     H   25034 25025B
 $$$674F       2 00003C6A 00000001     H   25062 25052B
 $$$676        6 0000426E 00000001     I   25075 25067X
 $$$677        6 0000426E 00000001     I   25074 25075  25075
 $$$678F       2 00003C7C 00000001     H   25113 25090B
 $$$679F       2 00003CA2 00000001     H   25158 25127B
 $$$68F        2 00000228 00000001     H    4964  4951B
 $$$680F       2 00003C9E 00000001     H   25153 25142B
 $$$681B       4 00003CA6 00000001     I   25176 25269
 $$$681F       2 00003CCE 00000001     H   25265 25176B 25268
 $$$682B       4 00003CAE 00000001     I   25193 25242
 $$$682F       2 00003CC6 00000001     H   25238 25193B 25241
 $$$683F       2 00003CC6 00000001     H   25234 25224B
 $$$683T       2 00003CC2 00000001     H   25227 25213B
 $$$685E       2 00003CCA 00000001     H   25249 25243
1ELF      (ELF2047) (12:35) (15MAR04) Ordinary Symbol and Literal Cross Reference                                           Page  159
 $$$685F       2 00003CCE 00000001     H   25261 25245B
 $$$686E       2 00003CD2 00000001     H   25276 25270
 $$$686F       2 00003CD6 00000001     H   25289 25272B
 $$$688F       2 00003D28 00000001     H   25457 25328B
 $$$69F        2 00000296 00000001     H    5113  5054B
 $$$690B       4 00003CEC 00000001     I   25345 25393
 $$$690F       2 00003D0A 00000001     H   25389 25345B 25363B 25392
 $$$693E       2 00003D0E 00000001     H   25400 25394
 $$$693F       2 00003D28 00000001     H   25453 25396B
 $$$694F       2 00003D28 00000001     H   25449 25412B
 $$$695F       2 00003D42 00000001     H   25513 25497B
 $$$697F       2 00003D52 00000001     H   25546 25524B
 $$$699B       4 00003D62 00000001     I   25574 25588
 $$$699F       2 00003D6A 00000001     H   25584 25574B 25587
 $$$70         1 00000004 00000001 A   U    5084  5080   5083
 $$$700E       2 00003D6E 00000001     H   25595 25589
 $$$700F       2 00003D7A 00000001     H   25616 25591B 25606B
 $$$702F       2 00003D9C 00000001     H   25666 25629B
 $$$704F       2 00003D9A 00000001     H   25660 25645B
 $$$706B       4 00003DBC 00000001     I   25695 25759
 $$$706F       2 00003E04 00000001     H   25755 25695B 25758
 $$$708F       2 00003DEC 00000001     H   25723 25712B
 $$$709E       2 00003E08 00000001     H   25766 25760
 $$$709F       2 00003E2A 00000001     H   25806 25762B
 $$$71F        2 000002A6 00000001     H    5136  5126B
 $$$710F       2 00003E82 00000001     H   25962 25821B 25841B
 $$$712F       2 00003F0E 00000001     H   26135 25991B
 $$$714F       2 00003F2A 00000001     H   26188 26153B 26173B
 $$$716F       2 00003F40 00000001     H   26235 26203B
 $$$717        1 00000030 00000001 A   U   26274 26267  26271  26273
 $$$719B       1 0000415E 00000001     X   26331 26338U
 $$$72F        2 000002C6 00000001     H    5176  5165B
 $$$72T        2 000002BA 00000001     H    5168  5152B
 $$$720F       2 000041F4 00000001     H   26529 26384B
 $$$722        1 0000002C 00000001 A   U   26556 26550  26553  26555
 $$$724B       1 0000427E 00000001     X   26622 26629U
 $$$725        1 0000002C 00000001 A   U   26703 26697  26700  26702
 $$$727B       1 000042B6 00000001     X   26733 26740U
 $$$728F       2 0000433E 00000001     H   26930 26905B
 $$$729F       2 00004358 00000001     H   26968 26943B
 $$$730F       2 00004574 00000001     H   27751 27008B
 $$$730S       2 00004370 00000001     H   27001 27750B
 $$$732F       2 0000456C 00000001     H   27744 27024B
 $$$733F       2 0000444A 00000001     H   27343 27178B
 $$$734F       2 0000444A 00000001     H   27334 27291B
 $$$735F       2 0000456C 00000001     H   27735 27567B
 $$$736F       2 0000486E 00000001     H   28871 27860B 28857B
 $$$736S       2 000045AE 00000001     H   27809 28870B
 $$$737F       2 000045BE 00000001     H   27833 27822B
 $$$739        1 00000020 00000001 A   U   27903 27901
 $$$74F        2 000002D6 00000001     H    5209  5193B
 $$$740F       2 00004608 00000001     H   27940 27930B
 $$$741F       2 0000475C 00000001     H   28480 28002B
 $$$742B       4 00004630 00000001     I   28018 28045
 $$$742F       2 00004644 00000001     H   28042 28018B 28044
 $$$743E       2 00004648 00000001     H   28052 28046
 $$$743F       2 00004678 00000001     H   28126 28048B
 $$$744B       4 000046A4 00000001     I   28196 28224
 $$$744F       2 000046B8 00000001     H   28220 28196B 28223
1ELF      (ELF2047) (12:35) (15MAR04) Ordinary Symbol and Literal Cross Reference                                           Page  160
 $$$745B       4 000046C0 00000001     I   28243 28270
 $$$745E       2 000046BC 00000001     H   28231 28225
 $$$745F       2 000046D4 00000001     H   28267 28227B 28243B 28269
 $$$747E       2 000046D8 00000001     H   28277 28271
 $$$747F       2 000046FA 00000001     H   28325 28273B
 $$$748F       2 0000475C 00000001     H   28476 28356B
 $$$749F       2 0000475C 00000001     H   28472 28404B
 $$$75F        2 00000310 00000001     H    5276  5224B
 $$$750F       2 0000474E 00000001     H   28442 28433B
 $$$751F       2 0000482E 00000001     H   28757 28494B
 $$$752F       2 00004858 00000001     H   28820 28771B
 $$$755        1 0000002C 00000001 A   U   28906 28900  28903  28905
 $$$757B       1 00004892 00000001     X   28939 28946U
 $$$758        1 0000002C 00000001 A   U   29012 29006  29009  29011
 $$$76F        2 00000324 00000001     H    5327  5317B
 $$$76S        2 00000314 00000001     H    5308  5326B
 $$$760B       1 000048D4 00000001     X   29043 29050U
 $$$761        1 0000002C 00000001 A   U   29083 29077  29080  29082
 $$$771B       1 000049EA 00000001     X   29301 29308U
 $$$772F       2 00004A2A 00000001     H   29424 29415B
 $$$773F       2 00004A36 00000001     H   29462 29438B
 $$$774        6 00004ECA 00000001     I   29452 29444X
 $$$775        6 00004ECA 00000001     I   29451 29452  29452
 $$$776F       2 00004A4E 00000001     H   29485 29475B
 $$$777F       2 00004BB4 00000001     H   29980 29521B
 $$$778F       2 00004A9A 00000001     H   29615 29537B
 $$$779F       2 00004AC8 00000001     H   29682 29628B
 $$$780F       2 00004B10 00000001     H   29785 29695B 29713B
 $$$782F       2 00004BE2 00000001     H   30049 29995B
 $$$783F       2 00004BF8 00000001     H   30077 30063B
 $$$784        1 00000008 00000001 A   U   30165 30161  30164
 $$$785F       2 00004CE0 00000001     H   30206 30178B
 $$$786        1 00000008 00000001 A   U   30232 30228  30231
 $$$787F       2 00004D2E 00000001     H   30273 30245B
 $$$788        1 00000008 00000001 A   U   30314 30310  30313
 $$$789F       2 00004D82 00000001     H   30355 30327B
 $$$79F        2 000003FA 00000001     H    5440  5431B
 $$$790F       2 00004DB2 00000001     H   30420 30410B
 $$$791        1 000000BC 00000001 A   U   30534 30527  30531  30533
 $$$793B       1 00004EDA 00000001     X   30604 30611U
 $$$794F       2 00005156 00000001     H   31600 30708B
 $$$794S       2 00004EFE 00000001     H   30681 31599B
 $$$797F       2 00004F6E 00000001     H   30859 30789B
 $$$798F       2 000050A8 00000001     H   31339 30977B
 $$$799B       4 00004FF8 00000001     I   31054 31083
 $$$799F       2 0000500C 00000001     H   31080 31054B 31082
 $$$80F        2 00000408 00000001     H    5479  5455B
 $$$800E       2 00005010 00000001     H   31090 31084
 $$$800F       2 00005020 00000001     H   31122 31086B
 $$$801B       4 00005034 00000001     I   31152 31181
 $$$801F       2 00005048 00000001     H   31178 31152B 31180
 $$$802E       2 0000504C 00000001     H   31188 31182
 $$$802F       2 0000505C 00000001     H   31220 31184B
 $$$803B       4 00005070 00000001     I   31250 31279
 $$$803F       2 00005084 00000001     H   31276 31250B 31278
 $$$804E       2 00005088 00000001     H   31286 31280
 $$$804F       2 00005098 00000001     H   31318 31282B
 $$$805F       2 000050E0 00000001     H   31415 31352B
 $$$806F       2 00005118 00000001     H   31491 31428B
1ELF      (ELF2047) (12:35) (15MAR04) Ordinary Symbol and Literal Cross Reference                                           Page  161
 $$$807F       2 00005130 00000001     H   31529 31503B
 $$$808F       2 00005148 00000001     H   31566 31540B
 $$$809F       2 00005206 00000001     H   31870 31644B
 $$$809S       2 0000517C 00000001     H   31638 31869B
 $$$81         6 00000F28 00000001     I    5469  5461X
 $$$811B       4 00005190 00000001     I   31664 31693
 $$$811F       2 000051A4 00000001     H   31690 31664B 31692
 $$$812E       2 000051A8 00000001     H   31700 31694
 $$$812F       2 000051F6 00000001     H   31837 31696B
 $$$813        1 0000002C 00000001 A   U   31990 31984  31987  31989
 $$$815B       1 00005264 00000001     X   32024 32031U
 $$$816F       2 00005292 00000001     H   32113 32079B 32098B
 $$$816S       2 0000527A 00000001     H   32052 32112B
 $$$82         6 00000F28 00000001     I    5468  5469   5469
 $$$820        1 0000002C 00000001 A   U   32131 32125  32128  32130
 $$$822B       1 000052B0 00000001     X   32160 32167U
 $$$823F       2 000052DE 00000001     H   32252 32218B 32237B
 $$$823S       2 000052C8 00000001     H   32191 32251B
 $$$827F       2 00005300 00000001     H   32339 32265B
 $$$828F       2 000052F0 00000001     H   32306 32293B
 $$$829F       2 00005300 00000001     H   32330 32320B
 $$$83         1 00000008 00000001 A   U    5491  5485   5488   5490
 $$$830        1 0000002C 00000001 A   U   32361 32355  32358  32360
 $$$832B       1 00005320 00000001     X   32421 32428U
 $$$833F       2 00005356 00000001     H   32483 32473B
 $$$834F       2 000053FC 00000001     H   32781 32766B
 $$$834S       2 00005360 00000001     H   32498 32780B
 $$$835F       2 0000536E 00000001     H   32533 32523B
 $$$838B       4 00005384 00000001     I   32581 32677
 $$$838F       2 000053C2 00000001     H   32671 32581B 32676
 $$$840F       2 000053B2 00000001     H   32642 32623B
 $$$842F       2 000053C2 00000001     H   32667 32657B
 $$$843E       2 000053C6 00000001     H   32684 32678
 $$$843F       2 000053F0 00000001     H   32749 32680B
 $$$844F       2 000053E0 00000001     H   32720 32701B
 $$$846F       2 000053F0 00000001     H   32745 32735B
 $$$848F       2 00005414 00000001     H   32822 32793B
 $$$849F       2 00005414 00000001     H   32818 32808B
 $$$850        1 00000040 00000001 A   U   32845 32838  32842  32844
 $$$852B       1 00005432 00000001     X   32877 32884U
 $$$853B       4 0000546E 00000001     I   32941 32955
 $$$853F       2 0000547A 00000001     H   32951 32941B 32954
 $$$854E       2 0000547E 00000001     H   32962 32956
 $$$854F       2 00005486 00000001     H   32969 32958B
 $$$855        1 0000002C 00000001 A   U   32996 32990  32993  32995
 $$$857B       1 000054A6 00000001     X   33028 33035U
 $$$858F       2 000054D4 00000001     H   33123 33089B 33106B
 $$$858S       2 000054BE 00000001     H   33062 33122B
 $$$862F       2 00005530 00000001     H   33294 33138B
 $$$863F       2 000054EC 00000001     H   33171 33155B
 $$$864B       4 000054EE 00000001     I   33195 33236
 $$$864F       2 00005508 00000001     H   33232 33195B 33235
 $$$865F       2 00005508 00000001     H   33228 33212B
 $$$866E       2 0000550C 00000001     H   33243 33237
 $$$866F       2 0000551E 00000001     H   33272 33239B
 $$$867F       2 0000551E 00000001     H   33268 33258B
 $$$868        1 0000002C 00000001 A   U   33312 33306  33309  33311
 $$$869F       2 000055EE 00000001     H   33624 33504B 33558B
 $$$87F        2 00000472 00000001     H    5599  5590B
1ELF      (ELF2047) (12:35) (15MAR04) Ordinary Symbol and Literal Cross Reference                                           Page  162
 $$$870B       1 0000554E 00000001     X   33341 33348U
 $$$871F       2 0000557C 00000001     H   33412 33373B
 $$$872F       2 0000557C 00000001     H   33408 33393B
 $$$873F       2 000055DC 00000001     H   33575 33437B
 $$$873S       2 00005586 00000001     H   33430 33574B
 $$$875F       2 000055A4 00000001     H   33483 33457B 33470B
 $$$875S       2 0000558E 00000001     H   33448 33482B
 $$$878F       2 000055B2 00000001     H   33508 33492B
 $$$879F       2 000055CA 00000001     H   33562 33546B
 $$$879T       2 000055C4 00000001     H   33549 33534B
 $$$88F        2 00000480 00000001     H    5638  5614B
 $$$881F       2 000055EC 00000001     H   33614 33602B
 $$$881T       2 000055EA 00000001     H   33605 33590B
 $$$883        1 0000002C 00000001 A   U   33632 33626  33629  33631
 $$$89         6 00000F2E 00000001     I    5628  5620X
 $$$892F       2 00005954 00000001     H   34761 33923B
 $$$893B       1 0000560C 00000001     X   33776 33783U
 $$$894F       2 0000565A 00000001     H   33927 33892B
 $$$896F       2 00005688 00000001     H   33997 33945B
 $$$896S       2 00005662 00000001     H   33939 33996B
 $$$898F       2 00005676 00000001     H   33969 33960B
 $$$899        6 00005C70 00000001     I   33982 33974X
 $$$90         6 00000F2E 00000001     I    5627  5628   5628
 $$$900        6 00005C70 00000001     I   33981 33982  33982
 $$$901F       2 000056F8 00000001     H   34173 34033B
 $$$901S       2 0000569A 00000001     H   34027 34172B
 $$$903F       2 000056AE 00000001     H   34057 34048B
 $$$904        6 00005C76 00000001     I   34075 34067X
 $$$905        6 00005C76 00000001     I   34074 34075  34075
 $$$906F       2 000056F4 00000001     H   34168 34122B
 $$$907F       2 000056F4 00000001     H   34164 34154B
 $$$908F       2 00005714 00000001     H   34222 34194B
 $$$909F       2 00005720 00000001     H   34241 34232B
 $$$91         1 00000008 00000001 A   U    5650  5644   5647   5649
 $$$910B       4 0000584E 00000001     I   34375 34438
 $$$910F       2 0000587A 00000001     H   34435 34375B 34437
 $$$911F       2 00005866 00000001     H   34405 34391B
 $$$912F       2 0000587A 00000001     H   34431 34417B
 $$$913E       2 0000587E 00000001     H   34445 34439
 $$$913F       2 0000589C 00000001     H   34499 34441B
 $$$914F       2 0000589C 00000001     H   34495 34481B
 $$$915F       2 000058B4 00000001     H   34528 34514B
 $$$916F       2 000058C8 00000001     H   34554 34540B
 $$$917F       2 0000593A 00000001     H   34704 34618B 34639B
 $$$917S       2 000058F4 00000001     H   34609 34703B
 $$$92         1 00000C20 00000001 A   U    5800  5793   5797   5799
 $$$920F       2 0000592E 00000001     H   34697 34659B
 $$$922        1 00000074 00000001 A   U   34770 34763  34767  34769
 $$$924B       1 00005972 00000001     X   34801 34808U
 $$$925F       2 0000599C 00000001     H   34894 34879B
 $$$927F       2 000059F0 00000001     H   35044 34908B
 $$$927S       2 0000599C 00000001     H   34902 35043B
 $$$929F       2 000059B0 00000001     H   34932 34923B
 $$$930        6 00005C7C 00000001     I   34950 34942X
 $$$931        6 00005C7C 00000001     I   34949 34950  34950
 $$$932F       2 000059EC 00000001     H   35039 34993B
 $$$933F       2 000059EC 00000001     H   35035 35025B
 $$$934F       2 00005A18 00000001     H   35121 35059B 35077B
 $$$937F       2 00005A18 00000001     H   35117 35093B
1ELF      (ELF2047) (12:35) (15MAR04) Ordinary Symbol and Literal Cross Reference                                           Page  163
 $$$938F       2 00005B38 00000001     H   35231 35218B
 $$$94B        1 00000512 00000001     X    5831  5838U
 $$$940F       2 00005B54 00000001     H   35279 35266B
 $$$941        1 0000002C 00000001 A   U   35343 35337  35340  35342
 $$$943B       1 00005C8C 00000001     X   35459 35466U
 $$$945F       2 00005CBC 00000001     H   35534 35523B
 $$$946B       4 00005CC2 00000001     I   35563 35813
 $$$946F       2 00005D74 00000001     H   35806 35563B 35812
 $$$947F       2 00005D08 00000001     H   35652 35584B 35596B
 $$$950F       2 00005CF2 00000001     H   35638 35627B
 $$$951F       2 00005D74 00000001     H   35802 35666B
 $$$953F       2 00005D32 00000001     H   35696 35685B
 $$$954F       2 00005D64 00000001     H   35748 35736B
 $$$954S       2 00005D4A 00000001     H   35727 35747B
 $$$956F       2 00005D70 00000001     H   35786 35759B
 $$$957        6 00006096 00000001     I   35776 35768X
 $$$958        6 00006096 00000001     I   35775 35776  35776
 $$$959B       4 00005D8C 00000001     I   35855 36311
 $$$959E       2 00005D78 00000001     H   35820 35814
 $$$959F       2 00005EC8 00000001     H   36304 35816B 35855B 35869B 36310
 $$$959T       2 00005D90 00000001     H   35858 35833B 35845B
 $$$96         1 0000002C 00000001 A   U    5987  5981   5984   5986
 $$$966F       2 00005DC6 00000001     H   35926 35915B
 $$$967F       2 00005DE4 00000001     H   35971 35939B 35961B
 $$$969F       2 00005E0A 00000001     H   36025 36016B
 $$$970F       2 00005E1A 00000001     H   36064 36040B
 $$$971        6 0000609C 00000001     I   36054 36046X
 $$$972        6 0000609C 00000001     I   36053 36054  36054
 $$$973F       2 00005E94 00000001     H   36230 36114B
 $$$974B       4 00005E7A 00000001     I   36188 36202
 $$$974F       2 00005E86 00000001     H   36198 36188B 36201
 $$$975E       2 00005E8A 00000001     H   36209 36203
 $$$975F       2 00005E92 00000001     H   36216 36205B
 $$$976F       2 00005EBA 00000001     H   36284 36243B
 $$$977F       2 00005EBA 00000001     H   36280 36271B
 $$$978E       2 00005ECC 00000001     H   36318 36312
 $$$978F       2 00005EE4 00000001     H   36361 36314B 36327B
 $$$98B        1 0000058C 00000001     X    6040  6047U
 $$$980F       2 00005EE4 00000001     H   36357 36347B
 $$$981        1 00000034 00000001 A   U   36395 36388  36392  36394
 $$$983B       1 00005F02 00000001     X   36446 36453U
 $$$985F       2 00005F36 00000001     H   36528 36517B
 $$$986F       2 00005FF4 00000001     H   36815 36545B 36739B
 $$$986S       2 00005F36 00000001     H   36537 36814B
 $$$989F       2 00005F5A 00000001     H   36588 36577B
 $$$991F       2 00005F92 00000001     H   36653 36644B
 $$$992F       2 00005FA2 00000001     H   36692 36668B
 $$$993        6 000060A2 00000001     I   36682 36674X
 $$$994        6 000060A2 00000001     I   36681 36682  36682
 $$$996F       2 00005FCA 00000001     H   36768 36754B
 $$$997F       2 00005FE0 00000001     H   36798 36782B
 $$$998F       2 00006022 00000001     H   36891 36833B
 $BINARY       1 00000000 00000001 A   N    3589 24455
 $CR           1 0000000D 00000001 A   N    3570 26293  26294  26295  26296  26304  26305  26306  26307  26572  26586
 $CRLF         1 000003E8 00000001 A   N    3597 25230  26576
 $CTRLC        1 00000003 00000001 A   N    3568 24269  24270  24271  24272  24447  24479  26285  26286  26287  26288
                                                 26574
 $DO           1 000000FD 00000001 A   N    3585 15234  17416  24482
 $DONT         1 000000FE 00000001 A   N    3586 14827  14829  17453
1ELF      (ELF2047) (12:35) (15MAR04) Ordinary Symbol and Literal Cross Reference                                           Page  164
 $ECHO         1 00000001 00000001 A   N    3590 11925  11926  14826  14827  18023  24456
 $IAC          1 000000FF 00000001 A   N    3587 11925  11926  14826  14827  14828  14829  15234  17291  18231  18238
                                                 18239  24469  24482
 $LF           1 0000000A 00000001 A   N    3569 26289  26290  26291  26292  26300  26301  26302  26303  26586
 $NLL20693
               2 00006014 00000001     I   36879 36883B
 $NLL5968      2 000018DC 00000001     I   12558 12562B
 $NLM20693
               1 000060A8 00000001     R   36852 36870
 $NLM5968      1 00001B3A 00000001     R   12531 12549
 $RECON        1 000000B4 00000001 A   N    3594 15234  17565  17959  18231
 $SB           1 000000FA 00000001 A   N    3582 18231
 $SBCONN       1 00000000 00000001 A   N    3595 18231
 $SE           1 000000F0 00000001 A   N    3572 18238
 $SENDLC       1 00000017 00000001 A   N    3592 24452  24482
 $SGA          1 00000003 00000001 A   N    3591 14828  14829  18040
 $STOP         1 000003E9 00000001 A   N    3598 24727  25004  25148  26577
 $WILL         1 000000FB 00000001 A   N    3583 11925  17342
 $WONT         1 000000FC 00000001 A   N    3584 11926  14826  14828  17379  18239  24469
 @@            1 0000004C FFFFFFF1 A   U    1147  4638   6066   6326   6899   7355  10740  18616  21117  22980  24568
                                                 29327  32447  33802  35485  36472
 @NSP          4 00000048 FFFFFFF1     A    1146  4282M  4285M  4303M  4304M  4305M  4551   4553   4555M  4603M  4606M
                                                  4625M  4626M  4627M  5066M  5069M  5070M  5083   5085M  5404M  5407M
                                                  5410M  5411M  5412M  5488   5490   5492M  5549M  5552M  5555M  5556M
                                                  5557M  5647   5649   5651M  5797   5799   5801M  5823M  5826M  5844M
                                                  5845M  5846M  5984   5986   5988M  6031M  6034M  6053M  6054M  6055M
                                                  6268   6270   6272M  6291M  6294M  6313M  6314M  6315M  6844   6846
                                                  6848M  6864M  6867M  6886M  6887M  6888M  7300   7302   7304M  7320M
                                                  7323M  7342M  7343M  7344M  7581   7583   7585M  7613M  7616M  7634M
                                                  7635M  7636M  8273   8275   8277M  8297M  8300M  8318M  8319M  8320M
                                                  8793   8795   8797M  8916M  8919M  8937M  8938M  8939M  9274   9276
                                                  9278M  9293M  9296M  9314M  9315M  9316M 10616  10618  10620M 10638M
                                                 10641M 10659M 10660M 10661M 10685  10687  10689M 10705M 10708M 10727M
                                                 10728M 10729M 11885  11887  11889M 11947M 11950M 11968M 11969M 11970M
                                                 12015M 12016M 12128M 12129M 12191M 12290M 12325  12327  12329M 12387M
                                                 12390M 12408M 12409M 12410M 12420M 12421M 13197M 13226  13228  13230M
                                                 13294M 13297M 13315M 13316M 13317M 14815  14817  14819M 14848M 14851M
                                                 14869M 14870M 14871M 15190  15192  15194M 15255M 15258M 15276M 15277M
                                                 15278M 15557  15559  15561M 15582M 15585M 15603M 15604M 15605M 15989
                                                 15991  15993M 16009M 16012M 16030M 16031M 16032M 16286  16288  16290M
                                                 16306M 16309M 16327M 16328M 16329M 16604  16606  16608M 16657M 16660M
                                                 16678M 16679M 16680M 17027  17029  17031M 17047M 17050M 17068M 17069M
                                                 17070M 17140  17142  17144M 17187M 17190M 17208M 17209M 17210M 18213
                                                 18215  18217M 18262M 18265M 18283M 18284M 18285M 18541  18543  18545M
                                                 18581M 18584M 18603M 18604M 18605M 19189  19191  19193M 19213M 19216M
                                                 19234M 19235M 19236M 19622  19624  19626M 19681M 19684M 19702M 19703M
                                                 19704M 20344  20346  20348M 20364M 20367M 20385M 20386M 20387M 20587
                                                 20589  20591M 20635M 20638M 20656M 20657M 20658M 20932  20934  20936M
                                                 21082M 21085M 21104M 21105M 21106M 22778  22780  22782M 22805M 22808M
                                                 22826M 22827M 22828M 22892  22894  22896M 22945M 22948M 22967M 22968M
                                                 22969M 24255  24257  24259M 24315M 24318M 24336M 24337M 24338M 24406
                                                 24408  24410M 24533M 24536M 24555M 24556M 24557M 26271  26273  26275M
                                                 26323M 26326M 26344M 26345M 26346M 26553  26555  26557M 26614M 26617M
                                                 26635M 26636M 26637M 26700  26702  26704M 26725M 26728M 26746M 26747M
                                                 26748M 27871M 27872M 27904M 28903  28905  28907M 28931M 28934M 28952M
                                                 28953M 28954M 29009  29011  29013M 29035M 29038M 29056M 29057M 29058M
                                                 29080  29082  29084M 29292M 29295M 29314M 29315M 29316M 30150M 30153M
                                                 30154M 30164  30166M 30217M 30220M 30221M 30231  30233M 30299M 30302M
                                                 30303M 30313  30315M 30531  30533  30535M 30596M 30599M 30617M 30618M
1ELF      (ELF2047) (12:35) (15MAR04) Ordinary Symbol and Literal Cross Reference                                           Page  165
                                                 30619M 31987  31989  31991M 32016M 32019M 32037M 32038M 32039M 32128
                                                 32130  32132M 32152M 32155M 32173M 32174M 32175M 32358  32360  32362M
                                                 32412M 32415M 32434M 32435M 32436M 32842  32844  32846M 32869M 32872M
                                                 32890M 32891M 32892M 32993  32995  32997M 33020M 33023M 33041M 33042M
                                                 33043M 33309  33311  33313M 33333M 33336M 33354M 33355M 33356M 33629
                                                 33631  33633M 33767M 33770M 33789M 33790M 33791M 34767  34769  34771M
                                                 34793M 34796M 34814M 34815M 34816M 35340  35342  35344M 35450M 35453M
                                                 35472M 35473M 35474M 36392  36394  36396M 36437M 36440M 36459M 36460M
                                                 36461M 36922  36924  36926M
 @PIBR         0 00000000 FFFFFFF4     @    1090  7968
 @R0           0 00000000 FFFFFFFE     @     713   989U
 @R1           0 00000000 FFFFFFFD     @     726   985U  1615   1619   1620   1622   1623M  4986   5468   5527   5536
                                                  5537   5627   9103M 11564  11587U 12377  12825  12893  13903U 13946U
                                                 13989U 14032U 15030  21225  21234  21329  21417  21543  21631  21719
                                                 23463  23483  23507  23575  23756M 23758M 28304U 29451  29824U 29867U
                                                 29910U 29953U 31008U 31102U 31200U 31298U 32920M 33372  34216  36053
                                                 36681
 @R10          0 00000000 FFFFFFF4     @     843   949U  6594U  8055U  8776U  9257U 10599U 11862U 12308U 14788U 15168U
                                                 15535U 15967U 16264U 16582U 17010U 17128U 18196U 18524U 19171U 19605U
                                                 20327U 20570U 20915U 22755U 22880U 24232U 26248U 26536U 27741U 30508U
                                                 31970U 34739U 35323U 35649U
 @R11          0 00000000 FFFFFFF3     @     856   945U  4534U  5777U  5972U  6250U  6826U  7282U  7563U  8261U  8771U
                                                  9252U 10604U 11867U 12313U 13209U 14803U 15178U 15545U 15977U 16274U
                                                 16592U 17015U 18201U 18529U 19166U 19610U 20332U 20575U 20920U 22760U
                                                 24237U 26253U 26541U 26688U 28891U 28997U 30513U 31975U 35318U 36374U
                                                 36904U
 @R12          0 00000000 FFFFFFF2     @     869   941U
 @R13          0 00000000 FFFFFFF1     @     882   937U  5419U  6255U  6831U  7287U  7568U 11872U 19176U 22765U 24242U
                                                 26258U 30518U 32829U 34754U 36379U 36909U
 @R14          0 00000000 FFFFFFF0     @     895   933U
 @R15          0 00000000 FFFFFFEF     @     908   929U  1625M  4971U  5655   8200U  9011M  9038U  9081U  9104  10489M
                                                 10517U 10554U 12762M 12843U 14929  15336  15663  15868M 15896U 15933U
                                                 16090  16387  16736  17573  17973  19292  20184M 20211U 20248U 23639U
                                                 25580  25612  26054M 26081U 26118U 26442M 26470U 26507U 29481  30082M
                                                 32109U 33392  33989  35983M 36071U 36611M 36699U
 @R2           0 00000000 FFFFFFFC     @     739   981U  5905U  7891M  7892   8025M  8026  12663  17860U 22120  22131M
                                                 22188  22199M 22276  22287M 22344  22355M 22593  22667  23360U 23464U
                                                 23758  23855U 23965U 27290U 27618  27655  27692  33469  35641M 35642M
                                                 36006U 36227U 36634U
 @R3           0 00000000 FFFFFFFB     @     752   977U  5343U  6789U  7267U  7553U  7891   8025  17907U 25074  26521U
                                                 34699  35741M 35742  35775M 36291U
 @R4           0 00000000 FFFFFFFA     @     765   973U 13516  25971U 26132U 28867U 31834U 32248U 32336U 33981  34698
                                                 35741  35775
 @R5           0 00000000 FFFFFFF9     @     778   969U  5295U  5772U  6648U  6730U  7277U  9513U 10577U 13204U 13568
                                                 13611M 14778U 15947U 17291  17342  17379  17416  17453  17489  17565
                                                 17959  18023  18040  18156  19592U 27022  27746  32777U 33119U 33291U
                                                 36369U 36811U
 @R6           0 00000000 FFFFFFF8     @     791   965U  6599   8251U 12198U 14793U 18904U 20317U 22745U 23121  23137
                                                 23298  23359  23383  23854  23906  23933  23964  24102  24128  24384
                                                 24823  24836  24861  25035  25074  25210  25223  32095  32981U 33981M
                                                 34058  34074  34141  36899U
 @R7           0 00000000 FFFFFFF7     @     804   961U  4539U  5782U  6424   8256U  9247U  9468U 10460U 10589U 11852U
                                                 12298U 13214U 14798U 15173U 15540U 15972U 16269U 16587U 20312U 22750U
                                                 26683U 28886U 30503U 31596U 34744U 34933  34949  35012
 @R8           0 00000000 FFFFFFF6     @     817   957U  4544U  5789U  5977U  6260U  6836U  7292U  7573U  8266U  8786U
                                                  9267U 10609U 10678U 11877U 12318U 13219U 14808U 15183U 15550U 15982U
                                                 16279U 16597U 17020U 17133U 18206U 18534U 19181U 19615U 20337U 20580U
                                                 20925U 22770U 22885U 24247U 24399U 26263U 26546U 26693U 28896U 29002U
                                                 29073U 30523U 31980U 32121U 32351U 32834U 32986U 33302U 33622U 34759U
1ELF      (ELF2047) (12:35) (15MAR04) Ordinary Symbol and Literal Cross Reference                                           Page  166
                                                 35333U 36384U 36914U
 @R9           0 00000000 FFFFFFF5     @     830   953U  8781U  9262U 10594U 11857U 12303U 14783U 15956U 20322U 24227U
                                                 26243U 26526U 27340U 34749U 35328U
 @SPR          0 00000000 FFFFFFF1     @    1141  4282M  4285M  4303M  4304M  4305M  4551   4553   4555M  4603M  4606M
                                                  4625M  4626M  4627M  5066M  5069M  5070M  5083   5085M  5404M  5407M
                                                  5410M  5411M  5412M  5488   5490   5492M  5549M  5552M  5555M  5556M
                                                  5557M  5647   5649   5651M  5797   5799   5801M  5823M  5826M  5844M
                                                  5845M  5846M  5984   5986   5988M  6031M  6034M  6053M  6054M  6055M
                                                  6268   6270   6272M  6291M  6294M  6313M  6314M  6315M  6844   6846
                                                  6848M  6864M  6867M  6886M  6887M  6888M  7300   7302   7304M  7320M
                                                  7323M  7342M  7343M  7344M  7581   7583   7585M  7613M  7616M  7634M
                                                  7635M  7636M  8273   8275   8277M  8297M  8300M  8318M  8319M  8320M
                                                  8793   8795   8797M  8916M  8919M  8937M  8938M  8939M  9274   9276
                                                  9278M  9293M  9296M  9314M  9315M  9316M 10616  10618  10620M 10638M
                                                 10641M 10659M 10660M 10661M 10685  10687  10689M 10705M 10708M 10727M
                                                 10728M 10729M 11885  11887  11889M 11947M 11950M 11968M 11969M 11970M
                                                 12015M 12016M 12017  12128M 12129M 12130  12191M 12290M 12325  12327
                                                 12329M 12387M 12390M 12408M 12409M 12410M 12420M 12421M 12422  13197M
                                                 13226  13228  13230M 13294M 13297M 13315M 13316M 13317M 14815  14817
                                                 14819M 14848M 14851M 14869M 14870M 14871M 15190  15192  15194M 15255M
                                                 15258M 15276M 15277M 15278M 15557  15559  15561M 15582M 15585M 15603M
                                                 15604M 15605M 15989  15991  15993M 16009M 16012M 16030M 16031M 16032M
                                                 16286  16288  16290M 16306M 16309M 16327M 16328M 16329M 16604  16606
                                                 16608M 16657M 16660M 16678M 16679M 16680M 17027  17029  17031M 17047M
                                                 17050M 17068M 17069M 17070M 17140  17142  17144M 17187M 17190M 17208M
                                                 17209M 17210M 18213  18215  18217M 18262M 18265M 18283M 18284M 18285M
                                                 18541  18543  18545M 18581M 18584M 18603M 18604M 18605M 19189  19191
                                                 19193M 19213M 19216M 19234M 19235M 19236M 19622  19624  19626M 19681M
                                                 19684M 19702M 19703M 19704M 20344  20346  20348M 20364M 20367M 20385M
                                                 20386M 20387M 20587  20589  20591M 20635M 20638M 20656M 20657M 20658M
                                                 20932  20934  20936M 21082M 21085M 21104M 21105M 21106M 22778  22780
                                                 22782M 22805M 22808M 22826M 22827M 22828M 22892  22894  22896M 22945M
                                                 22948M 22967M 22968M 22969M 24255  24257  24259M 24315M 24318M 24336M
                                                 24337M 24338M 24406  24408  24410M 24533M 24536M 24555M 24556M 24557M
                                                 26271  26273  26275M 26323M 26326M 26344M 26345M 26346M 26553  26555
                                                 26557M 26614M 26617M 26635M 26636M 26637M 26700  26702  26704M 26725M
                                                 26728M 26746M 26747M 26748M 27871M 27872M 27873  27904M 28903  28905
                                                 28907M 28931M 28934M 28952M 28953M 28954M 29009  29011  29013M 29035M
                                                 29038M 29056M 29057M 29058M 29080  29082  29084M 29292M 29295M 29314M
                                                 29315M 29316M 30150M 30153M 30154M 30164  30166M 30217M 30220M 30221M
                                                 30231  30233M 30299M 30302M 30303M 30313  30315M 30531  30533  30535M
                                                 30596M 30599M 30617M 30618M 30619M 31987  31989  31991M 32016M 32019M
                                                 32037M 32038M 32039M 32128  32130  32132M 32152M 32155M 32173M 32174M
                                                 32175M 32358  32360  32362M 32412M 32415M 32434M 32435M 32436M 32842
                                                 32844  32846M 32869M 32872M 32890M 32891M 32892M 32993  32995  32997M
                                                 33020M 33023M 33041M 33042M 33043M 33309  33311  33313M 33333M 33336M
                                                 33354M 33355M 33356M 33629  33631  33633M 33767M 33770M 33789M 33790M
                                                 33791M 34767  34769  34771M 34793M 34796M 34814M 34815M 34816M 35340
                                                 35342  35344M 35450M 35453M 35472M 35473M 35474M 36392  36394  36396M
                                                 36437M 36440M 36459M 36460M 36461M 36922  36924  36926M
 @WA           1 0000004C FFFFFFF1     U    1148 12017  12130  12422  27873
 AMYQ         12 00000000 FFFFFFE0     J    4258  6692U  6719  36144U 36148M 36211M 36559U 36801
 AMYQDATA      1 0000000C FFFFFFE0     X    4251 36164  36590
 AMYQDLEN      4 00000008 FFFFFFE0     F    4248 36156M 36599
 AMYQHDR      12 00000000 FFFFFFE0     X    4249 36954
 AMYQID        4 00000000 FFFFFFE0     C    4246  4249   4249   6708   6717M 36576  36800M
 AMYQLINK      4 00000004 FFFFFFE0     A    4247  6720  36155M 36155  36211M 36770
 AMYQSUBP      1 00000020 00000001 A   U    2898 36128
 AMYSEG        2 00005C82 00000001     H   35445  8838
1ELF      (ELF2047) (12:35) (15MAR04) Ordinary Symbol and Literal Cross Reference                                           Page  167
 AMYSENDQ      2 00005EF8 00000001     H   36432 13250  36944
 ASCTBL        1 00000000 00000000 A   T    1439  1439
 ASGQ          4 00005E30 00000001     I   36122 35967B
 ASQDATAA      4 00000000 FFFFFFD4     A   36417 36591M 36598M 36654  36723
 ASQDATAL      4 00000004 FFFFFFD4     F   36418 36599M 36626
 ASQWA         8 00000000 FFFFFFD4     J   36425 36459M 36472U 36922  36924  36925  36955
 BESTEIB       2 00005316 00000001     H   32407 18229  35368
 BLTBL         1 00000000 00000000 A   T    1441  1441
 BR            8 00000008 00000001 A   #    1057  4286M  4297U  4608M  4619U  5827M  5838U  6036M  6047U  6296M  6307U
                                                  6869M  6880U  7325M  7336U  7617M  7628U  8301M  8312U  8920M  8931U
                                                  9297M  9308U 10642M 10653U 10710M 10721U 11951M 11962U 12391M 12402U
                                                 13298M 13309U 14852M 14863U 15259M 15270U 15586M 15597U 16013M 16024U
                                                 16310M 16321U 16661M 16672U 17051M 17062U 17191M 17202U 18266M 18277U
                                                 18586M 18597U 19217M 19228U 19685M 19696U 20368M 20379U 20639M 20650U
                                                 21087M 21098U 22809M 22820U 22950M 22961U 24319M 24330U 24538M 24549U
                                                 26327M 26338U 26618M 26629U 26729M 26740U 28935M 28946U 29039M 29050U
                                                 29297M 29308U 30600M 30611U 32020M 32031U 32156M 32167U 32417M 32428U
                                                 32873M 32884U 33024M 33035U 33337M 33348U 33772M 33783U 34797M 34808U
                                                 35455M 35466U 36442M 36453U
 BTD           1 00000000 00000020     T   15211 15211
 CLRSUBN       2 00004D30 00000001     H   30277 30115
 CNVTIP        2 00005544 00000001     H   33329 24438  30561
 COUNTEIB      2 000052A6 00000001     H   32148  8845  15216  16623
 CPLAATTN      1 00000080 FFFFFFED A   U    1821  9495  20018  25507
 CPLABRK       1 00000010 FFFFFFED A   U    1824 20057  25533  26023
 CPLAIOE       1 00000040 FFFFFFED A   U    1822 20096
 CPLAUST       1 00000020 FFFFFFED A   U    1823 34709
 CPLBIA        1 00000020 FFFFFFED A   U    1828 19968  26428
 CPLBILT       1 00000040 FFFFFFED A   U    1827  9488
 CREEIB        2 00005428 00000001     H   32865 30559
 CV         1912 00000000 FFFFFFEE     X    1640  1189U
 CVASCTBL      4 000004A0 FFFFFFEE     V    1439 23757  35720
 CVBLANKS    256 00000141 FFFFFFEE     C    1341  4391   5192   5421   5580  13829  13866  21282  21370  21496  21584
                                                 21672  22070  22131  22138  22199  22226  22287  22294  22355  22383
                                                 22620  23527  27376  27581  27936  28603  29404  29787  34676
 CVBUFLEN      1 00002800 FFFFFFEE A   N    1223  8837  36941
 CVCUR        40 00000750 FFFFFFEE     X    1638  6000   6110   6117M  6117   6243M  6378   6385M  6385   6819M  6923
                                                  6930M  6930   7270M  7380   7387M  7387   7556M 18562  18687  19159M
                                                 28980M 28980
 CVCURFEB      4 00000750 FFFFFFEE     A    1631  1638   1638   6118M  6386M  6931M  7388M 18688M
 CVCURPIB      4 00000754 FFFFFFEE     A    1632 18689M
 CVCURSCB      4 00000758 FFFFFFEE     A    1633  8156
 CVDSECT       1 00000000 FFFFFFEE     J    1176  1837   1965   2730   2762   2868
 CVEB7TBL      4 000004B0 FFFFFFEE     V    1443 33932
 CVECB         4 00000038 FFFFFFEE     A    1206  1203  13155M
 CVEIBQC       4 000002D4 FFFFFFEE     A    1377 32472M 32472  32479M 32487  32763  32814M 33154  33167M 33167
 CVEIBQH       4 000002CC FFFFFFEE     A    1375 30676  32047  32186  32529  32946M 33057  33200M 33211M 33211
 CVEIBQT       4 000002D0 FFFFFFEE     A    1376 32479  32933  32947M 32965M 33224M 33224  33257  33264M
 CVFLAG        1 0000013C FFFFFFEE     R    1266  1270   1275   1280   1285   1290   1295   1300   1305
 CVFLAG2       1 0000013D FFFFFFEE     R    1311  1315   1320   1325   1330
 CVKSCB#       1 00000032 FFFFFFEE A   N    1229  1230   1231
 CVMACH        1 0000013B FFFFFFEE     R    1241  1250   1260
 CVMAXSES      2 00000390 FFFFFFEE     H    1419  4392
 CVMFLAG       1 0000051C FFFFFFEE     R    1457  1461
 CVMSTART      8 000004B8 FFFFFFEE     D    1448  1502   1502
 CVPDBP        4 00000060 FFFFFFEE     A    1224  9453  10445  14576  15827  19760  25462  25996  26038  26401
 CVR          12 0000000C 00000001 A   #    1121  1189U
 CVSCNCB       4 000005B4 FFFFFFEE     F    1506  1517
 CVSTART       4 00000000 FFFFFFEE     C    1199  1640   1640
1ELF      (ELF2047) (12:35) (15MAR04) Ordinary Symbol and Literal Cross Reference                                           Page  168
 CVTOKLEN      2 0000027C FFFFFFEE     H    1349 21238M
 CVTOKLOC      4 00000278 FFFFFFEE     A    1348 21237M
 CVTOKUPP     16 00000268 FFFFFFEE     C    1347 21272  21360  21486  21574  21662  21788  21817  21846  21856  21876
                                                 21906  21916  21936  21946  21966  21976
 CVTRCRTN      4 00000724 FFFFFFEE     I    1615  1624B  9010B  9050B 10488B 10529B 12761B 15867B 15908B 20183B 20223B
                                                 26053B 26093B 26441B 26482B 35982B 36610B
 CVWKBUFP      4 00000064 FFFFFFEE     A    1225 35703  35721  35794
 CVWSG        60 000005D4 FFFFFFEE     X    1606  4828   5241   5262   5753
 CVWSGBUF    235 00000610 FFFFFFEE     C    1608  1596   1602
 CVWSGCOD      1 000005D4 FFFFFFEE     R    1523  1532   1542   1552   1562   1572   1582   1592
 CVWSGUSR      4 0000060C FFFFFFEE     A    1605  1607
 DEFFHIGH      6 0000011C 00000001     I    4522  4508
 DEFFLOW       6 00000124 00000001     I    4525  4511
 DEFPATH       6 00000114 00000001     I    4519  4506
 DEFPORTS      6 0000010C 00000001     I    4516  4503
 DEFPRT        1 00000000 00000002     T    4514  4514
 DELEIB        2 0000549C 00000001     H   33016 30560
 DEQUOTE       1 00000000 00000011     T    8834  8834
 DISCSESS      1 00000000 00000016     T    8844  8844  16628  19645  20608  24426
 DTB           1 00000000 00000006     T    8819  8819  35377
 DTELCOMP      4 000012B2 00000001     I   10445  9986B
 DTELEXIT      2 0000132C 00000001     H   10585  9951B  9980B 10024B 10441B
 DTELPDB       2 000012C8 00000001     H   10478  9498B
 DYNSFX        8 000034A3 00000001     C   22787 22188  22199  22344  22355  24441  24464
 EBCTBL        1 00000000 00000000 A   T    1440  1440
 EBCTBL7       1 00000000 00000000 A   T    1443  1443
 EIB          73 00000000 FFFFFFE1     J    4229 17682U 29183  29380U 29481M 29971  30082M 30676  30692U 31711U 32047
                                                 32063U 32186  32202U 32279U 32509U 32908U 32913  32920  32920  32964M
                                                 33057  33073U 33182U 33245M 33277
 EIBADDR       4 00000028 FFFFFFE1     F    4200 29627M 29627  29823  29866  29909  29952  30159M 30177M 30177  32234
 EIBADDRF     16 00000018 FFFFFFE1     C    4199 17731  17736  29787M 29797  29802  30821  30826  31811  31816
 EIBBIAS       4 00000040 FFFFFFE1     F    4206 30423M 31351M 31351  31378  32609  32687
 EIBCUR        4 00000038 FFFFFFE1     F    4204 30396M 30409  30416  30886  32283  32307M 32608  32686
 EIBFDOWN    128 00000048 FFFFFFE1         4214 30365M 30374M 31502  32546
 EIBFLAG       1 00000048 FFFFFFE1     R    4210  4214   4219
 EIBFSTOPPED
              64 00000048 FFFFFFE1         4219 30384M 30393M 31539  32558
 EIBID         4 00000000 FFFFFFE1     C    4195 32922M 33276M
 EIBINFO      65 00000008 FFFFFFE1     X    4222 30082  30082M 30082
 EIBLIMIT      4 00000044 FFFFFFE1     F    4207 30426M 31427M 31427  31454  32622M 32622  32636  32700M 32700  32714
 EIBLINK       4 00000004 FFFFFFE1     A    4196 30676  30706  32047  32077  32186  32216  32515  32929M 32929  32964M
                                                 33057  33087  33200  33245M 33245
 EIBMAX        4 0000003C FFFFFFE1     F    4205 30409  30416M 30928  32319  32326M
 EIBNAME      16 00000008 FFFFFFE1     C    4198  4222   4222  29404M 29451M 29464  29552  29557  29660  29665  29763
                                                 29768  30010  30015  30551  30740  30745  30767  30772  31766  31771
                                                 32095
 EIBPORT       4 0000002C FFFFFFE1     F    4201 17768  30209M
 EIBSIP        4 00000030 FFFFFFE1     F    4202 29694M 29694  30226M 30244M 30244  30284M 30284  30976M 30976  31007
                                                 31101  31199  31297  32580M 32580  32599
 EIBSMASK      4 00000034 FFFFFFE1     F    4203 29710M 29710  30291M 30291  30308M 30326M 30326  31053  31151  31249
                                                 32587
 EIBSUBP       1 0000001F 00000001 A   U    2897 32914
 ELFCLOSE      2 00000648 00000001     H    6286  8858  13261  29112
 ELFCMD        2 00004274 00000001     H   26610 26606
 ELFCNTL       2 0000098C 00000001     H    7609  7605
 ELFCUR       40 00000000 FFFFFFDE     X    6000  6110M  6243   6378M  6819   6923M  7270   7380M  7556
 ELFDATA       2 00002B68 00000001     H   19209 15072B
 ELFDEF        2 00000016 00000001     H    4278  4274
 ELFDEXIT      2 00002C8C 00000001     H   19601 19440B 19466B 19476B
1ELF      (ELF2047) (12:35) (15MAR04) Ordinary Symbol and Literal Cross Reference                                           Page  169
 ELFDIE        2 000048CA 00000001     H   29031 29027
 ELFDO         2 00000F34 00000001     H    8912  8908
 ELFEOF        2 00002EAC 00000001     H   20360 16168B
 ELFERR        2 00004888 00000001     H   28927 28923
 ELFERROR      2 00002F6A 00000001     H   20631 19439B 19823B 19988B
 ELFFIN        2 00000508 00000001     H    5819  5815
 ELFFMT        2 000042AC 00000001     H   26721 26717  29097
 ELFINFO       2 00001756 00000001     H   11943 10790B
 ELFOPEN       2 00000582 00000001     H    6026  8856  13262
 ELFOXIT       6 0000062E 00000001     I    6243  6137B  6204B
 ELFPEXIT      2 00002E98 00000001     H   20308 19824B 19989B
 ELFPORT       2 00000140 00000001     H    4598  4594
 ELFPOST       4 00001866 00000001     I   12377 12376
 ELFPROC       2 00002D0E 00000001     H   19677 19475B
 ELFSLOOP      2 00003078 00000001     H   21242 21341B 21467B 21555B 21643B 21769B 21798B 21827B 21857B 21887B 21917B
                                                 21947B 21977B
 ELFSPARM      2 00003020 00000001     H   21077 20605
 ELFSTART      2 000007C0 00000001     H    6859  8843  13249
 ELFSTOP       2 000008EC 00000001     H    7315  8857
 ELFSXIT       6 000008D2 00000001     I    7270  6959B
 ELFUPD        2 00000B8E 00000001     H    8293  8289
 ELFWA        40 00000000 FFFFFFDE     J    6007  6053M  6066U  6268   6270   6271   6313M  6326U  6336M  6336   6844
                                                  6846   6847   6886M  6899U  6909M  6909   7300   7302   7303   7342M
                                                  7355U  7365M  7365   7581   7583   7584   8866
 ELF2047       1 00000000 00000001     R    1034  1032
 EPARTBL       1 00000000 00000000 A   T    1435  1435
 EPIBSUBP      1 00000025 00000001 A   U    2903 19294
 ESPPLEN#      1 00000040 FFFFFFDB A   U   21052 21053  21054  21055  21056  21057  21063
 ESPSCNCB      4 00000000 FFFFFFDB     X   20962 21167
 ESPSG        60 00000004 FFFFFFDB     X   21050 22406  22434  22451  22507  22539
 ESPSGCOD      1 00000004 FFFFFFDB     R   20967 20976  20986  20996  21006  21016  21026  21036
 ESPWA       480 00000000 FFFFFFDB     J   21070 21104M 21117U 21127M 21127  21128M 21128  22778  22780  22781  24458
 ESPWACCT      8 00000180 FFFFFFDB     C   21058 21856M
 ESPWELF      64 00000040 FFFFFFDB     C   21053 21370M 21417M 21442  21456  21462M 22063M 22063  22069  22130  22137
                                                 22198  22377M 22377  22421  22426  22611  24431
 ESPWELFA     64 00000080 FFFFFFDB     C   21054 21282M 21329M 24430
 ESPWORK      64 000001A0 FFFFFFDB     C   21063 22069M 22070M 22079  22084  22137M 22138M 22147  22152  22225M 22226M
                                                 22235  22240  22293M 22294M 22303  22308
 ESPWPASS      8 00000188 FFFFFFDB     C   21059 21916M
 ESPWPID      64 000000C0 FFFFFFDB     C   21055 21496M 21543M 22464  22469  22526  22531  24433
 ESPWSYS       8 00000190 FFFFFFDB     C   21060 21946M 22717M 22717  22724
 ESPWTEL      64 00000100 FFFFFFDB     C   21056 21672M 21719M 21744  21758  21764M 22219M 22219  22225  22286  22293
                                                 22354  22571M 22571  22578  22611  22621  24435
 ESPWTELA     64 00000140 FFFFFFDB     C   21057 21584M 21631M 22000M 22000  22014  22019  22560  24434
 ESPWTTYP      8 00000198 FFFFFFDB     C   21061 21976M 22694M 22694  22701
 FDB          16 00000000 FFFFFFEC     J    1964  7706U
 FDBCMAX       1 00000002 FFFFFFEE A   U    1848  7796   7796
 FDBF          4 00000000 FFFFFFEC     F    1929  1932   1937   1937   1940   1948   1948   1951   1952   1952   1955
                                                  1956   1956
 FDBFFLEN      2 0000000A FFFFFFEC     H    1935  7859M
 FDBFFTNO      2 00000008 FFFFFFEC     H    1934  7858M
 FDBFFTRC      1 0000000C FFFFFFEC     X    1936  7860
 FDBFPLEN      2 0000000E FFFFFFEC     H    1946  7992M
 FDBFPTNO      2 0000000C FFFFFFEC     H    1945  7991M
 FDBFPTRC      1 00000010 FFFFFFEC     X    1947  7994
 FDBF1        12 00000000 FFFFFFEC     X    1937  7857M  7857   8875
 FDBF2        16 00000000 FFFFFFEC     X    1948  7977M  7977   8879
 FDBPMAX       1 00000066 FFFFFFEE A   U    1852  7803   7803
 FDBT          4 00000000 FFFFFFEC     F    1863  1872   1872   1877   1877   1905   1905   1925   1925   1928
1ELF      (ELF2047) (12:35) (15MAR04) Ordinary Symbol and Literal Cross Reference                                           Page  170
 FDBTDATA      1 00000004 FFFFFFEC     U    1868  1871   1875   1880   1908
 FDBTFCLS     16 00000004 FFFFFFEC         1902  8149
 FDBTFOPN     32 00000004 FFFFFFEC         1897  8097   8097   8098
 FDBTFSTP     64 00000004 FFFFFFEC         1892  8124
 FDBTFSTR    128 00000004 FFFFFFEC         1887  8097   8097
 FDBT1         4 00000000 FFFFFFEC     X    1872  8872
 FDBT101       5 00000000 FFFFFFEC     X    1905  8880
 FDBT101F      1 00000004 FFFFFFEC     R    1883  1887   1892   1897   1902
 FDBT102       7 00000000 FFFFFFEC     X    1925  8881
 FDBT102F      1 00000006 FFFFFFEC     R    1913  1917   1922
 FDBT2         6 00000000 FFFFFFEC     X    1877  8876
 FDBT2P        2 00000004 FFFFFFEC     H    1876  7943
 FEB         420 00000000 FFFFFFE7     J    3304  4371   4385U  4490   4665U  5861U  6079U  6096   6233   6347U  6364
                                                  6919U  7375U  7651U  7668   8104   8203   8421U  8438   8980U  9330U
                                                 10752U 11984U 12377  12453U 13177  13183  13331U 14885U 15292U 15619U
                                                 16046U 16343U 16694U 17224U 18299U 18668U 19250U 19718U 20401U 20672U
                                                 21138U 22992U 24580U 26360U 26652U 26763U 26942  28969U 28982  34856U
                                                 35505U 35522  36484U
 FEBAMY#E      4 00000194 FFFFFFE7     F    3293 36252  36253M 36763  36764M
 FEBAMY#F      4 00000198 FFFFFFE7     F    3294 36123  36124M
 FEBAMYQH      4 0000019C FFFFFFE7     A    3296  6653   6660M  6660  35938M 35938  35958M 35958  36193M 36543  36770M
                                                 36781M 36781  36832M 36832
 FEBAMYQT      4 000001A0 FFFFFFE7     A    3297  6665M  6665  36180  36194M 36212M 36794M 36794
 FEBAPATH      8 00000178 FFFFFFE7     C    3286  4393M  4519M  5898
 FEBFASC      64 000000B8 FFFFFFE7         3186 10070M 10152M 17597M 17655M 17720M 17872M 18819M 18867M 34890M 35311M
                                                 35665
 FEBFCLS     128 00000071 FFFFFFE7         3137  5964   5964   5965M  6156   6156   6157   6218   6218   6219M  6809
                                                  6809   6810M
 FEBFCTRL    128 000000B8 FFFFFFE7         3181  7041M  7251M  7452M  7537M  8527M  8757M 10214M 10299M 10306M 10391M
                                                 11656M 11741M 11748M 11833M 13417M 13502M 14150M 14279M 16478M 16563M
                                                 16887M 16972M 18333M 18418M 18425M 18510M 18958M 19043M 19050M 19135M
                                                 20466M 20551M 20722M 20807M 20814M 20899M 25873M 25958M 35595
 FEBFDET      64 00000071 FFFFFFE7         3142  6129
 FEBFDOWN     32 00000071 FFFFFFE7         3147  5964   5964   6156   6156   6218   6218   6809   6809
 FEBFLEAS     64 00000070 FFFFFFE7         3122 14059
 FEBFLOWH      4 00000184 FFFFFFE7     F    3288  4427M  4427   4434M  4466   4472   4522M  4779
 FEBFLOWL      4 00000188 FFFFFFE7     F    3289  4451M  4451   4466   4474M  4525M  4780
 FEBFOPEN     64 0000000C FFFFFFE7         3085  6225M  6817M 26904
 FEBFRLIN     32 00000070 FFFFFFE7         3127 14085  14111
 FEBGFLG       1 0000000C FFFFFFE7     R    3076  3080   3085
 FEBINFO      12 0000001C FFFFFFE7     C    3106  4391M  6170M  8840  12581M 12663M 13247
 FEBMCLCK      8 00000028 FFFFFFE7     X    3108  6175M  6392M
 FEBMSG       64 00000030 FFFFFFE7     C    3109  6183M  6183   6203M  8155M  8171M  8172M  8189M  8810   8813
 FEBNAME       8 00000014 FFFFFFE7     C    3105  4390M  5890  26830  26835
 FEBNIO        4 00000090 FFFFFFE7     F    3163 12747  12748M 36298  36299M
 FEBPATP       4 00000098 FFFFFFE7     A    3167  6396   7965  13565  14928  15335  15662  16089  16386  26992  27097
 FEBPFLG       1 00000070 FFFFFFE7     R    3113  3117   3122   3127
 FEBPFLG2      1 00000071 FFFFFFE7     R    3133  3137   3142   3147
 FEBPLAST      2 000000BA FFFFFFE7     H    3190 13509  13554  13853M
 FEBPMAX       2 00000076 FFFFFFE7     H    3154  4392M  4516M  6414   7955  13528  14914  15321  15648  16075  16372
                                                 26864  26993
 FEBR         11 0000000B 00000001 A   #    1096  4376M  4385U  4656M  4665U  5852M  5861U  6070M  6079U  6118   6338M
                                                  6347U  6386   6919U  6931   7375U  7388   7642M  7651U  8397M  8398M
                                                  8398   8421U  8971M  8980U  9330U 10752U 11984U 12444M 12453U 13331U
                                                 13612  14885U 15292U 15619U 16046U 16343U 16694U 17224U 18299U 18659M
                                                 18668U 18688  19250U 19718U 20401U 20672U 21138U 22992U 24580U 26360U
                                                 26643M 26652U 26754M 26763U 26787  28960M 28969U 34847M 34856U 35505U
                                                 36484U
 FEBRCP        4 0000018C FFFFFFE7     A    3291 36270M 36270  36276M 36346M 36346
1ELF      (ELF2047) (12:35) (15MAR04) Ordinary Symbol and Literal Cross Reference                                           Page  171
 FEBSCUR       2 00000080 FFFFFFE7     H    3158  6800M  6800
 FEBSOCKH      4 00000180 FFFFFFE7     A    3287  5280   6738   6982   7392  13349
 FEBTELF       1 00000007 FFFFFFE7 A   U    3096  4389
 FEBTFLG1      1 000000B8 FFFFFFE7     R    3177  3181   3186
 FEBTRCP       4 0000009C FFFFFFE7     A    3169  4484   7861   7868   7886   7904   9008  10486  12759  15865  20181
                                                 26051  26439  27804  27811  27829  28856  35980  36608
 FEBTYPE       1 0000000D FFFFFFE7     X    3089  4389M
 FEBUC         2 00000010 FFFFFFE7     H    3102  3165   3165   6167   6168M
 FEBUPATH    124 000000C0 FFFFFFE7     X    3193  5869   5875   6187   6608   6613   6933  12377  12458  35886  36489
 FEBUSG       60 0000013C FFFFFFE7     X    3283  5934   5951   6974   7064   7081   7102   7119   7140   7157   7178
                                                  7195   7216   7240   7475   7502   7526   8517   8550   8577   8594
                                                  8614   8647   8674   8691   8718   8746   9689   9759   9803   9856
                                                 10083  10100  10117  10141  10204  10237  10264  10288  10329  10356
                                                 10380  11503  11530  11609  11679  11706  11730  11771  11798  11822
                                                 12182  12223  12251  12276  13440  13467  13491  14173  14200  14217
                                                 14244  14268  14370  14394  14450  14474  14713  14730  14754  16501
                                                 16528  16552  16877  16910  16937  16961  17610  17627  17644  17710
                                                 17744  17761  17797  17849  17897  18074  18103  18184  18323  18356
                                                 18383  18407  18448  18475  18499  18681  18809  18839  18856  18887
                                                 18981  19008  19032  19073  19100  19124  20489  20516  20540  20745
                                                 20772  20796  20837  20864  20888  23780  23897  24063  24092  24211
                                                 25381  25441  25863  25896  25923  25947  26227
 FEBUSGCOD
               1 0000013C FFFFFFE7     R    3200  3209   3219   3229   3239   3249   3259   3269
 FEBUSGLENF
               4 00000148 FFFFFFE7     A    3275  9830M  9830  11540  24186M 24186  26202M 26202
 FEBUSGLOC
               4 0000015C FFFFFFE7     A    3279 11563
 FEIBDONE      4 000053FC 00000001     I   32785 32489B
 FEIBGCNT      4 00000004 FFFFFFD7     F   32389 32459M 32734  32740M
 FEIBGPTR      4 00000008 FFFFFFD7     F   32390 32741M 32798
 FEIBNEXT      2 000053F0 00000001     H   32753 32549B 32561B 32602B 32639B 32717B
 FEIBRIP       4 00000000 FFFFFFD7     F   32387 32458M 32586
 FEIBSCNT      4 0000000C FFFFFFD7     F   32392 32460M 32656  32662M
 FEIBSPTR      4 00000010 FFFFFFD7     F   32393 32663M 32785
 FEIBWA       20 00000000 FFFFFFD7     J   32400 32434M 32447U 32457M 32457  32842  32844  32845  35390
 FMILASYN      1 00000050 FFFFFFED A   U    1756  9379  19963  26423
 FMILREAD      1 00000042 FFFFFFED A   U    1753 19865  25484
 FMILSOS       1 00000040 FFFFFFED A   U    1751 19931  20265
 FMILWRIT      1 00000041 FFFFFFED A   U    1752 19898
 FMTTIME       1 00000000 0000002F     T   29107 29107
 FREECORE      1 00000000 00000017     T    8846  8846  16624  17158  19650  26579  35375  36951
 FREEPIB       1 00000000 00000019     T    8848  8848  16626
 FREESCB       1 00000000 0000001C     T   11916 11916
 FSR           2 00000002 00000001 A   #    1044  4285   4305   4551M  4606   4627   5797M  5826   5846   5984M  6034
                                                  6055   6268M  6294   6315   6844M  6867   6888   7300M  7323   7344
                                                  7581M  7616   7636   8273M  8300   8320   8793M  8919   8939   9274M
                                                  9296   9316  10616M 10641  10661  10685M 10708  10729  11885M 11950
                                                 11970  12325M 12390  12410  13226M 13297  13317  14815M 14851  14871
                                                 15190M 15258  15278  15557M 15585  15605  15989M 16012  16032  16286M
                                                 16309  16329  16604M 16660  16680  17027M 17050  17070  17140M 17190
                                                 17210  18213M 18265  18285  18541M 18584  18605  19189M 19216  19236
                                                 19622M 19684  19704  20344M 20367  20387  20587M 20638  20658  20932M
                                                 21085  21106  22778M 22808  22828  22892M 24536  24557  26271M 26326
                                                 26346  26553M 26617  26637  26700M 26728  26748  28903M 28934  28954
                                                 29009M 29038  29058  29080M 29295  29316  30531M 30599  30619  31987M
                                                 32019  32039  32128M 32155  32175  32358M 32415  32436  32842M 32872
                                                 32892  32993M 33023  33043  33309M 33336  33356  33629M 33770  33791
                                                 34767M 34796  34816  35340M 35453  35474  36392M 36440  36461  36922M
1ELF      (ELF2047) (12:35) (15MAR04) Ordinary Symbol and Literal Cross Reference                                           Page  172
 GETEIB        2 0000525A 00000001     H   32012 30552
 GETFEB        1 00000000 00000004     T    8816  8816
 GETPIB        1 00000000 0000001F     T   15209 15209
 GETSCB        1 00000000 00000022     T   15221 15221  20604
 GETSIN        1 00000000 0000000A     T    8824  8824
 GETTRC        1 00000000 00000005     T    8818  8818  15215
 HDR          20 00000000 FFFFFFE6     J    3463  4105  10727M 10740U 10800M 10800  11490  11495  11574U 11885  11887
                                                 11888  11923  11924  12128M 12140U 12151M 12151  12174  12190  13265
                                                 19415U 19446  19473  19651  19755U
 HDRBLANK      1 00000007 FFFFFFE6     C    3337 10949M 12158M
 HDRCMD        1 00000005 FFFFFFE6     C    3323 10823M 10856M 10889M 10922M 12154M 19815  19858  19891  19924  19957
                                                 20141
 HDRCPL        1 00000006 FFFFFFE6     C    3331 10948M 12157M 20007  20046  20085
 HDRFBACK      2 00000008 FFFFFFE6         3376 11440M
 HDRFBUFIO
              64 0000000A FFFFFFE6         3441 11467M
 HDRFDISP    128 00000008 FFFFFFE6         3346 10973M
 HDRFEOS       1 000000C5 FFFFFFE6 A   N    3329 10922
 HDRFFILT      8 00000009 FFFFFFE6         3411 11360M
 HDRFHALF      2 00000009 FFFFFFE6         3421 11198M
 HDRFHALT      1 000000C8 FFFFFFE6 A   N    3326 10889  19957
 HDRFINFO      1 000000C9 FFFFFFE6 A   N    3327 12154
 HDRFNECH    128 00000009 FFFFFFE6         3391 11225M
 HDRFNLF       4 00000009 FFFFFFE6         3416 11279M
 HDRFNMOD      1 00000009 FFFFFFE6         3426 11000M
 HDRFNST      64 00000009 FFFFFFE6         3396 11252M
 HDRFNWA       1 00000008 FFFFFFE6         3381 11027M
 HDRFRD        1 000000D9 FFFFFFE6 A   N    3324 10856  19858
 HDRFRUND     32 00000008 FFFFFFE6         3356 11414M
 HDRFSLOW     32 00000009 FFFFFFE6         3401 11081M
 HDRFSOS       1 000000E2 FFFFFFE6 A   N    3328 19815  19924  20141
 HDRFSTIB     64 00000008 FFFFFFE6         3351 11333M
 HDRFTAH      16 00000008 FFFFFFE6         3361 11126M
 HDRFTRAN      4 00000008 FFFFFFE6         3371 11054M
 HDRFUPL       8 00000008 FFFFFFE6         3366 11306M
 HDRFVFAST
             128 0000000A FFFFFFE6         3436 11153M
 HDRFWR        1 000000E6 FFFFFFE6 A   N    3325 10823  19891
 HDRFXON      16 00000009 FFFFFFE6         3406 11387M
 HDRID         4 00000000 FFFFFFE6     C    3320  3338   3338  10801M 12152M 19431
 HDRINMAX      2 00000010 FFFFFFE6     H    3452 11473M
 HDRLEN        2 00000012 FFFFFFE6     H    3454 11580M 12155M 19447  20104
 HDROFLG       1 00000008 FFFFFFE6     R    3342  3346   3351   3356   3361   3366   3371   3376   3381
 HDROFLG2      1 00000009 FFFFFFE6     R    3387  3391   3396   3401   3406   3411   3416   3421   3426
 HDROFLG3      1 0000000A FFFFFFE6     R    3432  3436   3441
 HDRRATTN      1 000000C1 FFFFFFE6 A   N    3333 20007
 HDRRERR       1 000000C5 FFFFFFE6 A   N    3335 20085
 HDRRHALT      1 000000C8 FFFFFFE6 A   N    3334 20046
 HDRTEXT       1 00000014 FFFFFFE6     U    3456 20124
 HDRTYPE       1 00000004 FFFFFFE6     C    3322 10802M 12153M
 HIBAL         1 00000000 FFFFFFFF     J     698   714    727    740    753    766    779    792    805    818    831
                                                   844    857    870    883    896    909
 IACAYT        4 000036CE 00000001     I   23755 24285
 IACBREAK      2 000036A2 00000001     H   23675 24282  24283  24284
 IACCHK        2 000034EC 00000001     H   22941 17159
 IACDO         2 0000375C 00000001     H   23943 24292
 IACDONT       2 000037B0 00000001     H   24112 24293
 IACEC         4 000036F4 00000001     I   23793 24286
 IACEL         4 00003708 00000001     I   23813 24287
1ELF      (ELF2047) (12:35) (15MAR04) Ordinary Symbol and Literal Cross Reference                                           Page  173
 IACERROR      4 000035F0 00000001     I   23404 24278
 IACLOOP       2 00003538 00000001     H   23087 23404B 23409B 23436B 23669B 23750B 23785B 23805B 23825B 23909B 23936B
                                                 24105B 24131B 24173B
 IACNOP        4 000035F4 00000001     I   23409 24280  24281  24288
 IACPLINE    235 00000008 FFFFFFDA     C   22927 23755
 IACPLOC       4 00000000 FFFFFFDA     A   22925 23006M
 IACSBE        4 00003608 00000001     I   23442 24279
 IACSUB        2 000035F8 00000001     H   23416 24289
 IACSUBST      4 00000004 FFFFFFDA     A   22926 23013M 23013  23153  23435M 23442  23668M 23668  24138
 IACTABLE      4 0000390C 00000001     A   24278 23387
 IACTRT        1 0000380A 00000001     X   24268 23137  24269  24271  24273
 IACWA       243 00000000 FFFFFFDA     J   22934 22967M 22980U 24255  24257  24258  24465
 IACWILL       2 0000371C 00000001     H   23832 24290
 IACWONT       2 0000374C 00000001     H   23916 24291
 IAC255        4 000037C0 00000001     I   24138 24294
 ICHKDONE      2 000037E0 00000001     H   24177 23020B 23026B 23076B 23199B 23348B 23399B 23429B 23842B 23926B 23953B
                                                 24122B
 IDLEATTN      2 00004154 00000001     H   26319 23292B 23744B
 IHB7453A      2 00001FE6 00000001     H   14966 14962B
 INBS          2 0000584A 00000001     H   34366 34333
 INCAN         4 000058CC 00000001     I   34565 34334
 INCRSES       1 00000000 00000023     T   15222 15222
 INCTRL        2 0000583C 00000001     H   34345 34330
 INDEL         2 000058A0 00000001     H   34504 34332
 INHT          4 000058EE 00000001     I   34599 34331
 INLOOP        2 0000569A 00000001     H   34024 34362B 34500B 34555B 34597B 34693B 34729B
 INPOS         2 00000000 FFFFFFD6     H   33645 33850M 34084  34085M 34416M 34416  34425  34427M 34480M 34480  34489
                                                 34491M 34539M 34539  34548  34550M 34596M 34596  34658  34664  34665M
 INPREXIT      2 00005954 00000001     H   34735 34242B
 INPROC        2 00005602 00000001     H   33762 26578
 INPTRS        4 00000004 FFFFFFD6     A   33648 33849M 33897  33931  34020
 INSG         60 0000000C FFFFFFD6     X   33737 33873  33916  34014  34107  34357  34465  34565  34585  34688  34724
 INSGCOD       1 0000000C FFFFFFD6     R   33654 33663  33673  33683  33693  33703  33713  33723
 INSGLENF      4 00000018 FFFFFFD6     A   33729 34186  34390M 34390  34399  34401M 34513M 34513  34522  34524M
 INSGLOC       4 0000002C FFFFFFD6     A   33733 34181
 INTBL         4 00005724 00000001     F   34264 34074
 INVECT        4 00005824 00000001     A   34329 34146
 INWA         72 00000000 FFFFFFD6     J   33744 33789M 33802U 33848M 33848  34767  34769  34770  35391
 IOELF         2 0000138C 00000001     H   10700  9152B
 IORCON        2 00001340 00000001     H   10634  9214B
 IOTELNET      2 00001034 00000001     H    9289  9183B
 KILLSESS      1 00000000 0000002A     T   26584 26584
 LOCALTOD      1 00000000 00000014     T    8841  8841
 LOWTBL        1 00000000 00000000 A   T    1438  1438
 LRTRIM        1 00000000 00000027     T   24437 24437
 LSR          11 0000000B 00000001 A   #    1108  4285   4305   4551M  4606   4627   5797M  5826   5846   5984M  6034
                                                  6055   6268M  6294   6315   6844M  6867   6888   7300M  7323   7344
                                                  7581M  7616   7636   8273M  8300   8320   8793M  8919   8939   9274M
                                                  9296   9316  10616M 10641  10661  10685M 10708  10729  11885M 11950
                                                 11970  12325M 12390  12410  13226M 13297  13317  14815M 14851  14871
                                                 15190M 15258  15278  15557M 15585  15605  15989M 16012  16032  16286M
                                                 16309  16329  16604M 16660  16680  17027M 17050  17070  17140M 17190
                                                 17210  18213M 18265  18285  18541M 18584  18605  19189M 19216  19236
                                                 19622M 19684  19704  20344M 20367  20387  20587M 20638  20658  20932M
                                                 21085  21106  22778M 22808  22828  22892M 22948  22969  24255M 24318
                                                 24338  24406M 24536  24557  26271M 26326  26346  26553M 26617  26637
                                                 26700M 26728  26748  28903M 28934  28954  29009M 29038  29058  29080M
                                                 29295  29316  30531M 30599  30619  31987M 32019  32039  32128M 32155
                                                 32175  32358M 32415  32436  32842M 32872  32892  32993M 33023  33043
1ELF      (ELF2047) (12:35) (15MAR04) Ordinary Symbol and Literal Cross Reference                                           Page  174
                                                 33309M 33336  33356  33629M 33770  33791  34767M 34796  34816  35340M
                                                 35453  35474  36392M 36440  36461  36922M
 MILELF        1 00000000 00000001     J    1025  1027   1052   1065   1078   1091   1104   1116   1129   1151   1164
                                                  2873   3052   3305   3464   3561   3618   4113   4180   4230   4259
                                                  4590   5474   5633   6008
 MODABUF       1 00000008 FFFFFFED A   U    1765 11453  25642
 MODADRAT      1 00000004 FFFFFFED A   U    1766 25049
 MODBDWAT      1 00000020 FFFFFFED A   U    1770 11013
 MODBNLF       1 00000004 FFFFFFED A   U    1773  9111   9118  11265
 MODBNNLA      1 00000010 FFFFFFED A   U    1771 10054  11238  25358
 MODBSLOL      1 00000008 FFFFFFED A   U    1772 11067
 MODBUPLO      1 00000040 FFFFFFED A   U    1769 11292
 MODCDSPL      1 00000040 FFFFFFED A   U    1778  9445  10959
 MODCNECH      1 00000004 FFFFFFED A   U    1782  9633  11211
 MODCSTIB      1 00000020 FFFFFFED A   U    1779 11319
 MODDNFLT      1 00000008 FFFFFFED A   U    1790 11346
 MODDNMOD      1 00000010 FFFFFFED A   U    1789 10986
 MODDNTYP      1 00000001 FFFFFFED A   U    1793  9894  11110
 MODDRUND      1 00000002 FFFFFFED A   U    1792 11400  24674
 MODDTRAN      1 00000020 FFFFFFED A   U    1788  9543  10038  11040  24661  24924  25325  25626  33889  34876  35072
                                                 35215
 MODDXON       1 00000004 FFFFFFED A   U    1791 11373
 NAMESFX      13 00003496 00000001     C   22786 22120  22131  22276  22287  24440  24463
 NBLTBL        1 00000000 00000000 A   T    1442  1442
 NGETCORE      1 00000000 00000007     T    8820  8820  17157  19649  35372  36947
 NLTRT       256 000015EA 00000001     X   11895 11896
 NPARTBL       1 00000000 00000000 A   T    1436  1436
 OUTIAC        2 00005B44 00000001     H   35257 35202
 OUTLOOP       2 0000599C 00000001     H   34899 35253B 35301B
 OUTNL         2 00005B28 00000001     H   35208 35201
 OUTPEXIT      2 00005B60 00000001     H   35306 35123B
 OUTPROC       2 00005968 00000001     H   34789 11912  15226
 OUTTBL        4 00005A1C 00000001     F   35135 34949
 OUTVECT       4 00005B1C 00000001     A   35200 35017
 PATHCLS       1 00000000 0000001A     T    8849  8849
 PATHINIT      1 00000000 00000012     T    8836  8836
 PATHOPEN      1 00000000 00000015     T    8842  8842
 PATHRC        1 00000000 00000030     T   36949 36949
 PATHREAD      1 00000000 0000001E     T   13251 13251
 PDB          56 00000000 FFFFFFED     J    1836  7691U  8994U  9358U  9471U  9508U 10463U 10558  10572U 10780U 14586U
                                                 14681  15837U 15937  19770U 20147  20252  21162U 25472U 26006U 26122
                                                 26411U 26511  33824U
 PDBBYT1       1 0000000E FFFFFFED     X    1675  1707
 PDBBYT2       1 0000000F FFFFFFED     X    1676  1713
 PDBCMD        1 00000006 FFFFFFED     X    1662  9379   9413   9428   9483M  9880  10006  10187  10475M 10507  10545
                                                 10816  10849  10882  10915  11171  11630  15849M 15886  15924  19865M
                                                 19898M 19931M 19963M 20202  20239  20265  25484M 26018M 26109  26423M
                                                 26460  26498
 PDBCMDFL      1 00000007 FFFFFFED     X    1663  1699   1699   1705
 PDBCPL        2 0000000C FFFFFFED     X    1671 10508  10546  15887  15925  20240  26110  26461  26499
 PDBCPLA       1 0000000C FFFFFFED     X    1672  9497M 20020M 20059M 20098M 25509M 25535M 26025M 34711M
 PDBCPLB       1 0000000D FFFFFFED     X    1673  9490M 19970M 26430M
 PDBHDR       56 00000000 FFFFFFED     X    1700  8875   8879  11921  14596M 14596  14672  15231  16633  19780M 19780
                                                 20168  25483M 25483  25675  26421M 26421  26587  29124
 PDBINCT       2 00000030 FFFFFFED     H    1693  1697   1697  11473
 PDBLENG       2 00000000 FFFFFFED     H    1656  7915M  8057M  9030   9074   9475M 10467M 10509  10547  14597M 14674M
                                                 15841M 15888  15926  20170M 20203  20241  25677M 26010M 26073  26111
                                                 26422M 26462  26500
 PDBMODA       1 00000008 FFFFFFED     X    1666 11455
1ELF      (ELF2047) (12:35) (15MAR04) Ordinary Symbol and Literal Cross Reference                                           Page  175
 PDBMODB       1 00000009 FFFFFFED     X    1667  9113M 11015  11069  11240  11267  11294
 PDBMODC       1 0000000A FFFFFFED     X    1668  9447   9635  10961  11213  11321
 PDBMODD       1 0000000B FFFFFFED     X    1669  9545   9896  10988  11042  11112  11348  11375  11402
 PDBOPT       49 00000007 FFFFFFED     X    1699  9482M  9482  10474M 10474  15848M 15848  26017M 26017
 PDBOUTCT      2 0000002E FFFFFFED     H    1692  9101   9105M  9786M  9786   9802  11522
 PDBRC         2 00000036 FFFFFFED     H    1696 20127M 20169  21196  21214
 PDBSINP       4 00000010 FFFFFFED     A    1678  1679
 PDBSTRT       4 00000000 FFFFFFED     F    1655  1700   1700
 PDBTEXT       1 00000038 FFFFFFED     C    1701  7696   9031   9102   9798  10510  11518  14624  15889  20112  20204
                                                 21210  25670  26074  26463
 PDBVPGM       8 00000014 FFFFFFED     C    1681  1687   1687
 PDBWC         2 00000032 FFFFFFED     H    1694  7842   7934   8076   8232
 PIB         336 00000000 FFFFFFE3     J    4112  6445U  6584   7986U  8365U  8382   8967U  9339U 10761U 11993U 13593
                                                 13607U 14329  14492  14938U 14954  14989  15345U 15362  15523  15672U
                                                 15689  16099U 16116  16396U 16413  16703U 17084U 17233U 18308U 18629U
                                                 18646  19151  19259U 19727U 19829  20410U 20681U 21147U 22842U 23001U
                                                 24589U 26369U 27037U 33837U 34843U 35609U 35626
 PIBAFLG1      1 000000A1 FFFFFFE3     R    3856  3860   3865   3870   3875   3880
 PIBAFLG2      1 000000A2 FFFFFFE3     R    3886  3890   3895   3900   3905   3910   3915
 PIBAID        4 000000F4 FFFFFFE3     F    4004  8564   8569  10251  10256  10343  10348  11693  11698  11785  11790
                                                 13615M 14187  14192  16515  16520  16924  16929  18370  18375  18462
                                                 18467  18995  19000  19087  19092  20503  20508  20759  20764  20851
                                                 20856  25910  25915  35642
 PIBDFSYS      8 00000010 FFFFFFE3     C    3639 13616M 22724M
 PIBFCLOSING
             128 000000A1 FFFFFFE3         3860 10398M 11840M 15012  15390  16139  16466  16570M 18517M 18714  19142M
                                                 20454  20558M 20906M
 PIBFCR        4 000000A2 FFFFFFE3         3915 24769  24878M 25101M 25257M 25285M
 PIBFDOWN    128 00000068 FFFFFFE3         3784  6488M
 PIBFDSTOP
             128 000000A2 FFFFFFE3         3890  9968  15727M 15752M
 PIBFDUMB      8 00000064 FFFFFFE3         3694 13821M
 PIBFEBP       4 00000008 FFFFFFE3     A    3637  8397   8971  13612M 18659  34847
 PIBFHALT     16 000000A1 FFFFFFE3         3875  9391M 10163M 24895  25523  25542M 25989  25989
 PIBFIAC       8 000000A1 FFFFFFE3         3880  9529  13743M 14422  23049  35265
 PIBFINSTOP
              32 000000A2 FFFFFFE3         3900 16853  16867M 25820  25853M
 PIBFLAG       1 00000064 FFFFFFE3     R    3670  3674   3679   3684   3689   3694
 PIBFLAG2      1 00000065 FFFFFFE3     R    3700  3704   3709   3714   3719
 PIBFLAG3      1 00000066 FFFFFFE3     R    3725  3729   3734   3739   3744   3749   3754
 PIBFLAG4      1 00000067 FFFFFFE3     R    3760  3764   3769   3774
 PIBFLAG5      1 00000068 FFFFFFE3     R    3780  3784   3789   3794
 PIBFLEAS    128 00000065 FFFFFFE3         3704 14071M
 PIBFNOECHO
               8 000000A2 FFFFFFE3         3910  9650   9664M  9719   9734M 25411
 PIBFPCOMP
              64 000000A2 FFFFFFE3         3895  9979M 15821  15856M
 PIBFPS      128 00000066 FFFFFFE3         3729 13639M
 PIBFPTID     64 00000066 FFFFFFE3         3734 14123M
 PIBFREAD     64 000000A1 FFFFFFE3         3865  9926M 10021  16989  17107  23231  23683  24612  25989  25989  25990
                                                 26036M 26151  26151  26152
 PIBFREOF     32 000000A1 FFFFFFE3         3870 17094M 26151  26151
 PIBFRLIN     16 00000065 FFFFFFE3         3719 14097M
 PIBFSESKEEP
               4 00000066 FFFFFFE3         3754 13795M
 PIBFSESTRC
               8 00000066 FFFFFFE3         3749 13769M
 PIBFSTOP    128 00000067 FFFFFFE3         3764  6484M
 PIBFTRAN     16 000000A2 FFFFFFE3         3905  9560   9574M  9602   9617M 23990M
1ELF      (ELF2047) (12:35) (15MAR04) Ordinary Symbol and Literal Cross Reference                                           Page  176
 PIBGFLG       1 00000018 FFFFFFE3     R    3643  3647
 PIBINFDATA
               0 000000A3 FFFFFFE3         3930 14404M 17274  17501M 17523M 17921M 17985M 18118M 18147M
 PIBINFIAC
               1 000000A3 FFFFFFE3         3940 17303M 17325
 PIBINFIACDO
               4 000000A3 FFFFFFE3         3970 17428M 18006
 PIBINFIACDONT
               5 000000A3 FFFFFFE3         3980 17465M 18136
 PIBINFIACWILL
               2 000000A3 FFFFFFE3         3950 17354M 17545
 PIBINFIACWONT
               3 000000A3 FFFFFFE3         3960 17391M 17939
 PIBINFO      20 0000003C FFFFFFE3     C    3665 13865M 13865  22383M 22393  22398
 PIBINHI#      1 00002800 FFFFFFE3 A   N    4011 17160
 PIBINLO#      1 00001400 FFFFFFE3 A   N    4012 26580
 PIBINSG      60 00000100 FFFFFFE3     X    4101 16816  19378
 PIBINSGCOD
               1 00000100 FFFFFFE3     R    4018  4027   4037   4047   4057   4067   4077   4087
 PIBINSGLENF
               4 0000010C FFFFFFE3     A    4093  9909M  9909  16716  16777  16837  19272  19333  19399  19463  19489
                                                 19529M 19529  19557  19582M 24647  24866M 25650  25694  25736M 25771
                                                 25795M 25838  26170  27450
 PIBINSGLOC
               4 00000120 FFFFFFE3     A    4097  6522   6542M  6542   9937M  9937  15461  15481M 15481  16759M 16759
                                                 16782  16786  16796M 19315M 19315  19338  19342  19352M 19405  19497
                                                 19539M 19539  19556  24644  25554  25702  25751M 25768  27413  27565
 PIBINSGMAXF
               4 00000104 FFFFFFE3     A    4091 16730  16744M 19286  19300M 19534M 19534  25746M 27518
 PIBINSGMRKF
               4 00000108 FFFFFFE3     A    4092  9914M  9914  24710M 24710  24726M 24798M 24798  24965  24966  25115
                                                 25117M 25559  25561  25668M 25681  25741M 25802M 25802  26170  27484
 PIBINSTATE
               1 000000A3 FFFFFFE3     R    3921  3930   3940   3950   3960   3970   3980
 PIBINX#       1 00000040 FFFFFFE3 A   N    4009 16736  17156  19292  19648
 PIBLOC       20 00000050 FFFFFFE3     C    3666 13866M 13876  13881  22552M 22552  22620M 22667M 23527M 23575M 23588
                                                 24444
 PIBNAME       8 00000034 FFFFFFE3     C    3664  3799   3799   9026  10504  13829M 13847  15883  20199  26069  26457
                                                 27150  27155
 PIBNIO        4 0000007C FFFFFFE3     F    3806  9130   9131M  9813   9814M 14483  14484M 14764  14765M 15026  15027M
 PIBNO         2 00000004 FFFFFFE3     H    3635 13826M 14231  14236
 PIBOINFO     20 000000C1 FFFFFFE3     X    3991 12115  12122M 12238  12243  13266
 PIBOTCLS      8 000000B9 FFFFFFE3     C    3990 12100  12121M 12210  12215  13266
 PIBPELF       1 000000A0 FFFFFFE3         3830  6501   8469   9144  13665M 13809  14292  15064  15440  16160
 PIBPRECONNECT
               2 000000A0 FFFFFFE3         3840  9206  13717M 14322  15126  16222
 PIBPROTO      1 000000A0 FFFFFFE3     R    3821  3830   3840   3850
 PIBPTELNET
               3 000000A0 FFFFFFE3         3850  9175  13691M 15095  16191
 PIBR         10 0000000A 00000001 A   #    1083  6424M  6425M  6425   6445U  7965M  7968M  7969M  7969   7986U  8341M
                                                  8342M  8342   8365U  8958M  8967U  9339U 10761U 11993U 13598M 13607U
                                                 13611  14929M 14938U 15336M 15345U 15663M 15672U 16090M 16099U 16387M
                                                 16396U 16703U 17084U 17233U 18308U 18620M 18629U 18689  19259U 19727U
                                                 20410U 20681U 21147U 22842U 23001U 24589U 26369U 27022M 27023M 27023
                                                 27037U 27063  33828M 33837U 34834M 34843U 35609U
 PIBRIP        4 000000F8 FFFFFFE3     F    4006  6508  13857M 13858  13902  13945  13988  14031  14299  15447  17576
 PIBRLGF#      1 0000001E FFFFFFE3 A   N    3994 15220
 PIBRMSG#      1 0000000F FFFFFFE3 A   N    3993 15219
 PIBSCBP       4 0000000C FFFFFFE3     A    3638  6457  10413  10435M 11645M 15415M 15415  15756  16432  18930  19731
1ELF      (ELF2047) (12:35) (15MAR04) Ordinary Symbol and Literal Cross Reference                                           Page  177
                                                 20420  20691  23024  23601  24628  26376  27176
 PIBSOCKP      4 000000E8 FFFFFFE3     F    4000 13613M 17817  18744
 PIBTCLS       8 000000AC FFFFFFE3     C    3986 14518
 PIBTELIP      4 000000FC FFFFFFE3     F    4007  8454  13858M 14520  20162  22040M 22862
 PIBTETYP      1 00000026 FFFFFFE3     X    3655 22869M 23507M 23593  23594  23632
 PIBTICKCUR
               4 000000DC FFFFFFE3     F    3996 14342M 14342  17572  17972  18702  18703M
 PIBTICKLGF
               4 000000E4 FFFFFFE3     F    3998 14344M 17574M 17974M 18922
 PIBTICKMSG
               4 000000E0 FFFFFFE3     F    3997 14343M 17571M 17971M 17971  18738  18897M
 PIBTIMERID
               4 000000D8 FFFFFFE3     F    3995  6554   6574M  6574  14335M 15493  15513M 15513  18697M 18697  19157M
 PIBTRCP       4 00000090 FFFFFFE3     A    3813  7995   8002   8020   8038   9048  10527  14136  15906  20221  26091
                                                 26480
 PIBTTYPE      8 000000A4 FFFFFFE3     C    3984 20161  22701M
 PIBUC         2 00000030 FFFFFFE3     H    3661  3811   3811   6453   6454M
 PIBXACCT      5 000000B4 FFFFFFE3     C    3988  8503   8759M 13614M
 PINFHEI       2 00000012 FFFFFFE4     H    3610 12084M
 PINFO        20 00000000 FFFFFFE4     J    3617  3991  12015M 12027U 12037M 12037  12115  12122  12289  13264
 PINFTABS     16 00000000 FFFFFFE4     C    3608 12038M
 PINFWID       2 00000010 FFFFFFE4     H    3609 12061M
 PSGDATAA      4 00000000 FFFFFFD5     A   35430 35876M 35884M 36026  36095  36174
 PSGDATAL      4 00000004 FFFFFFD5     F   35431 35877M 35998  36126  36156  36169
 PSGWA         8 00000000 FFFFFFD5     J   35438 35472M 35485U 35495M 35495  36392  36394  36395  36952
 PWRTSUBP      1 00000023 00000001 A   U    2901  5911
 RAR          14 0000000E 00000001 A   #    1156  1617B  1627B  4282   4342M  4343M  4343B  4374M  4375M  4375B  4414M
                                                  4415M  4415B  4487M  4488M  4488B  4517B  4520B  4523B  4526B  4553M
                                                  4557B  4603   4688M  4689M  4689B  4725M  4726M  4726B  4754M  4755M
                                                  4755B  4801M  4802M  4802B  4831M  4832M  4832B  4866M  4867M  4867B
                                                  4879M  4880M  4880B  4906M  4907M  4907B  4922M  4923M  4923B  4958M
                                                  4959M  4959B  4984M  4985M  4985B  5010M  5011M  5011B  5034M  5035M
                                                  5035B  5074M  5075M  5075B  5244M  5245M  5245B  5265M  5266M  5266B
                                                  5404   5490M  5494B  5538B  5549   5578M  5579M  5579B  5649M  5653B
                                                  5656B  5671B  5680B  5689B  5698B  5707B  5716B  5726B  5729B  5732B
                                                  5756M  5757M  5757B  5799M  5803B  5823   5872M  5873M  5873B  5914M
                                                  5915M  5915B  5937M  5938M  5938B  5954M  5955M  5955B  5986M  5990B
                                                  6031   6173M  6174M  6174B  6190M  6191M  6191B  6236M  6237M  6237B
                                                  6270M  6274B  6291   6390M  6391M  6391B  6473M  6474M  6474B  6511M
                                                  6512M  6512B  6545M  6546M  6546B  6577M  6578M  6578B  6587M  6588M
                                                  6588B  6611M  6612M  6612B  6723M  6724M  6724B  6846M  6850B  6864
                                                  6977M  6978M  6978B  7067M  7068M  7068B  7084M  7085M  7085B  7105M
                                                  7106M  7106B  7122M  7123M  7123B  7143M  7144M  7144B  7160M  7161M
                                                  7161B  7181M  7182M  7182B  7198M  7199M  7199B  7219M  7220M  7220B
                                                  7243M  7244M  7244B  7302M  7306B  7320   7478M  7479M  7479B  7505M
                                                  7506M  7506B  7529M  7530M  7530B  7583M  7587B  7613   7711M  7723
                                                  7740   7747M  7752M  7753M  7754M  7754   7755B  7772   7782M  7782
                                                  7787M  7788M  7788   7789B  8107M  8108M  8108B  8132M  8133M  8133B
                                                  8206M  8207M  8207B  8275M  8279B  8297   8520M  8521M  8521B  8553M
                                                  8554M  8554B  8580M  8581M  8581B  8597M  8598M  8598B  8617M  8618M
                                                  8618B  8650M  8651M  8651B  8677M  8678M  8678B  8694M  8695M  8695B
                                                  8721M  8722M  8722B  8749M  8750M  8750B  8795M  8799B  8916   9010M
                                                  9050M  9152M  9183M  9214M  9276M  9280B  9293   9692M  9693M  9693B
                                                  9762M  9763M  9763B  9806M  9807M  9807B  9859M  9860M  9860B  9945M
                                                  9946M  9946B 10086M 10087M 10087B 10103M 10104M 10104B 10120M 10121M
                                                 10121B 10144M 10145M 10145B 10166M 10167M 10167B 10207M 10208M 10208B
                                                 10240M 10241M 10241B 10267M 10268M 10268B 10291M 10292M 10292B 10332M
                                                 10333M 10333B 10359M 10360M 10360B 10383M 10384M 10384B 10438M 10439M
                                                 10439B 10488M 10529M 10561M 10562M 10562B 10618M 10622B 10638  10687M
1ELF      (ELF2047) (12:35) (15MAR04) Ordinary Symbol and Literal Cross Reference                                           Page  178
                                                 10691B 10705  10790M 11506M 11507M 11507B 11533M 11534M 11534B 11612M
                                                 11613M 11613B 11648M 11649M 11649B 11682M 11683M 11683B 11709M 11710M
                                                 11710B 11733M 11734M 11734B 11774M 11775M 11775B 11801M 11802M 11802B
                                                 11825M 11826M 11826B 11887M 11891B 11947  12185M 12186M 12186B 12226M
                                                 12227M 12227B 12254M 12255M 12255B 12279M 12280M 12280B 12327M 12331B
                                                 12378B 12387  12677M 12678M 12678B 12709M 12710M 12710B 12738M 12739M
                                                 12739B 12761M 12925M 12926M 12926B 12960M 12961M 12961B 13011M 13012M
                                                 13012B 13046M 13047M 13047B 13081M 13082M 13082B 13116M 13117M 13117B
                                                 13180M 13181M 13181B 13186M 13187M 13187B 13228M 13232B 13294  13443M
                                                 13444M 13444B 13470M 13471M 13471B 13494M 13495M 13495B 13596M 13597M
                                                 13597B 13850M 13851M 13851B 13892M 13893M 13893B 13918M 13919M 13919B
                                                 13935M 13936M 13936B 13961M 13962M 13962B 13978M 13979M 13979B 14004M
                                                 14005M 14005B 14021M 14022M 14022B 14047M 14048M 14048B 14131M 14132M
                                                 14132B 14139M 14140M 14140B 14176M 14177M 14177B 14203M 14204M 14204B
                                                 14220M 14221M 14221B 14247M 14248M 14248B 14271M 14272M 14272B 14302M
                                                 14303M 14303B 14333M 14334M 14334B 14373M 14374M 14374B 14397M 14398M
                                                 14398B 14453M 14454M 14454B 14477M 14478M 14478B 14496M 14497M 14497B
                                                 14565M 14566M 14566B 14642M 14643M 14643B 14670M 14671M 14671B 14684M
                                                 14685M 14685B 14716M 14717M 14717B 14733M 14734M 14734B 14757M 14758M
                                                 14758B 14817M 14821B 14848  15072M 15103M 15134M 15192M 15196B 15255
                                                 15450M 15451M 15451B 15484M 15485M 15485B 15516M 15517M 15517B 15526M
                                                 15527M 15527B 15559M 15563B 15582  15867M 15908M 15940M 15941M 15941B
                                                 15991M 15995B 16009  16168M 16199M 16230M 16288M 16292B 16306  16448M
                                                 16449M 16449B 16504M 16505M 16505B 16531M 16532M 16532B 16555M 16556M
                                                 16556B 16606M 16610B 16657  16739  16742M 16743M 16743B 16789M 16790M
                                                 16790B 16819M 16820M 16820B 16880M 16881M 16881B 16913M 16914M 16914B
                                                 16940M 16941M 16941B 16964M 16965M 16965B 16997M 16998M 16998B 17029M
                                                 17033B 17047  17116M 17117M 17117B 17142M 17146B 17187  17579M 17580M
                                                 17580B 17613M 17614M 17614B 17630M 17631M 17631B 17647M 17648M 17648B
                                                 17713M 17714M 17714B 17747M 17748M 17748B 17764M 17765M 17765B 17800M
                                                 17801M 17801B 17852M 17853M 17853B 17900M 17901M 17901B 18077M 18078M
                                                 18078B 18106M 18107M 18107B 18187M 18188M 18188B 18215M 18219B 18262
                                                 18326M 18327M 18327B 18359M 18360M 18360B 18386M 18387M 18387B 18410M
                                                 18411M 18411B 18451M 18452M 18452B 18478M 18479M 18479B 18502M 18503M
                                                 18503B 18543M 18547B 18581  18684M 18685M 18685B 18812M 18813M 18813B
                                                 18842M 18843M 18843B 18859M 18860M 18860B 18890M 18891M 18891B 18946M
                                                 18947M 18947B 18984M 18985M 18985B 19011M 19012M 19012B 19035M 19036M
                                                 19036B 19076M 19077M 19077B 19103M 19104M 19104B 19127M 19128M 19128B
                                                 19155M 19156M 19156B 19191M 19195B 19213  19295  19298M 19299M 19299B
                                                 19345M 19346M 19346B 19381M 19382M 19382B 19439M 19475M 19521M 19522M
                                                 19522B 19624M 19628B 19681  19823M 19833M 19834M 19834B 19988M 20150M
                                                 20151M 20151B 20183M 20223M 20274M 20275M 20275B 20294M 20295M 20295B
                                                 20346M 20350B 20364  20436M 20437M 20437B 20492M 20493M 20493B 20519M
                                                 20520M 20520B 20543M 20544M 20544B 20589M 20593B 20635  20707M 20708M
                                                 20708B 20748M 20749M 20749B 20775M 20776M 20776B 20799M 20800M 20800B
                                                 20840M 20841M 20841B 20867M 20868M 20868B 20891M 20892M 20892B 20934M
                                                 20938B 21082  21251M 21252M 21252B 21280M 21281M 21281B 21368M 21369M
                                                 21369B 21494M 21495M 21495B 21582M 21583M 21583B 21670M 21671M 21671B
                                                 21796M 21797M 21797B 21825M 21826M 21826B 21854M 21855M 21855B 21884M
                                                 21885M 21885B 21914M 21915M 21915B 21944M 21945M 21945B 21974M 21975M
                                                 21975B 22022M 22023M 22023B 22026M 22027M 22027B 22087M 22088M 22088B
                                                 22155M 22156M 22156B 22243M 22244M 22244B 22311M 22312M 22312B 22409M
                                                 22410M 22410B 22437M 22438M 22438B 22454M 22455M 22455B 22472M 22473M
                                                 22473B 22510M 22511M 22511B 22542M 22543M 22543B 22732M 22733M 22733B
                                                 22780M 22784B 22805  22894M 22898B 22945  23074M 23075M 23075B 23190M
                                                 23191M 23191B 23262M 23263M 23263B 23289M 23290M 23290B 23292M 23387M
                                                 23388B 23591M 23592M 23592B 23597M 23598M 23598B 23714M 23715M 23715B
                                                 23741M 23742M 23742B 23744M 23783M 23784M 23784B 23803M 23804M 23804B
                                                 23823M 23824M 23824B 23900M 23901M 23901B 24066M 24067M 24067B 24095M
1ELF      (ELF2047) (12:35) (15MAR04) Ordinary Symbol and Literal Cross Reference                                           Page  179
                                                 24096M 24096B 24167M 24168M 24168B 24214M 24215M 24215B 24257M 24261B
                                                 24315  24408M 24412B 24533  25384M 25385M 25385B 25444M 25445M 25445B
                                                 25673M 25674M 25674B 25726M 25727M 25727B 25866M 25867M 25867B 25899M
                                                 25900M 25900B 25926M 25927M 25927B 25950M 25951M 25951B 26053M 26093M
                                                 26125M 26126M 26126B 26183M 26184M 26184B 26230M 26231M 26231B 26273M
                                                 26277B 26323  26441M 26482M 26514M 26515M 26515B 26555M 26559B 26614
                                                 26674M 26675M 26675B 26702M 26706B 26725  26803M 26804M 26804B 26818M
                                                 26819M 26819B 26844M 26845M 26845B 26859M 26860M 26860B 26877M 26878M
                                                 26878B 26893M 26894M 26894B 26925M 26926M 26926B 26963M 26964M 26964B
                                                 26989M 26990M 26990B 27057M 27058M 27058B 27079M 27080M 27080B 27094M
                                                 27095M 27095B 27116M 27117M 27117B 27138M 27139M 27139B 27164M 27165M
                                                 27165B 27209M 27210M 27210B 27234M 27235M 27235B 27249M 27250M 27250B
                                                 27274M 27275M 27275B 27310M 27311M 27311B 27329M 27330M 27330B 27364M
                                                 27365M 27365B 27392M 27393M 27393B 27407M 27408M 27408B 27429M 27430M
                                                 27430B 27444M 27445M 27445B 27463M 27464M 27464B 27478M 27479M 27479B
                                                 27497M 27498M 27498B 27512M 27513M 27513B 27531M 27532M 27532B 27553M
                                                 27554M 27554B 27597M 27598M 27598B 27612M 27613M 27613B 27634M 27635M
                                                 27635B 27649M 27650M 27650B 27671M 27672M 27672B 27686M 27687M 27687B
                                                 27708M 27709M 27709B 27730M 27731M 27731B 27766M 27767M 27767B 27782M
                                                 27783M 27783B 27801M 27802M 27802B 27876M 27877M 27877B 27898M 27899M
                                                 27899B 27961M 27962M 27962B 27987M 27988M 27988B 28037M 28038M 28038B
                                                 28079M 28080M 28080B 28094M 28095M 28095B 28121M 28122M 28122B 28140M
                                                 28141M 28141B 28159M 28160M 28160B 28181M 28182M 28182B 28215M 28216M
                                                 28216B 28262M 28263M 28263B 28293M 28294M 28294B 28320M 28321M 28321B
                                                 28346M 28347M 28347B 28374M 28375M 28375B 28393M 28394M 28394B 28422M
                                                 28423M 28423B 28467M 28468M 28468B 28512M 28513M 28513B 28530M 28531M
                                                 28531B 28545M 28546M 28546B 28570M 28571M 28571B 28592M 28593M 28593B
                                                 28619M 28620M 28620B 28641M 28642M 28642B 28656M 28657M 28657B 28678M
                                                 28679M 28679B 28693M 28694M 28694B 28715M 28716M 28716B 28730M 28731M
                                                 28731B 28752M 28753M 28753B 28789M 28790M 28790B 28815M 28816M 28816B
                                                 28842M 28843M 28843B 28905M 28909B 28931  28985M 28986M 28986B 29011M
                                                 29015B 29035  29082M 29086B 29292  29401M 29402M 29402B 29467M 29468M
                                                 29468B 29506M 29507M 29507B 29568M 29569M 29569B 29585M 29586M 29586B
                                                 29609M 29610M 29610B 29648M 29649M 29649B 29676M 29677M 29677B 29734M
                                                 29735M 29735B 29751M 29752M 29752B 29779M 29780M 29780B 29813M 29814M
                                                 29814B 29839M 29840M 29840B 29856M 29857M 29857B 29882M 29883M 29883B
                                                 29899M 29900M 29900B 29925M 29926M 29926B 29942M 29943M 29943B 29968M
                                                 29969M 29969B 29974M 29975M 29975B 30026M 30027M 30027B 30043M 30044M
                                                 30044B 30071M 30072M 30072B 30134B 30143B 30150  30157M 30158M 30158B
                                                 30164M 30200M 30201M 30201B 30207B 30210B 30217  30224M 30225M 30225B
                                                 30231M 30267M 30268M 30268B 30274B 30292B 30299  30306M 30307M 30307B
                                                 30313M 30349M 30350M 30350B 30356B 30366B 30375B 30385B 30394B 30421B
                                                 30424B 30427B 30451M 30452M 30452B 30468M 30469M 30469B 30492M 30493M
                                                 30493B 30533M 30537B 30596  30673M 30674M 30674B 30728M 30729M 30729B
                                                 30756M 30757M 30757B 30775M 30776M 30776B 30809M 30810M 30810B 30837M
                                                 30838M 30838B 30854M 30855M 30855B 30879M 30880M 30880B 30904M 30905M
                                                 30905B 30921M 30922M 30922B 30946M 30947M 30947B 30963M 30964M 30964B
                                                 30997M 30998M 30998B 31023M 31024M 31024B 31040M 31041M 31041B 31075M
                                                 31076M 31076B 31117M 31118M 31118B 31138M 31139M 31139B 31173M 31174M
                                                 31174B 31215M 31216M 31216B 31236M 31237M 31237B 31271M 31272M 31272B
                                                 31313M 31314M 31314B 31334M 31335M 31335B 31372M 31373M 31373B 31393M
                                                 31394M 31394B 31410M 31411M 31411B 31448M 31449M 31449B 31469M 31470M
                                                 31470B 31486M 31487M 31487B 31524M 31525M 31525B 31561M 31562M 31562B
                                                 31589M 31590M 31590B 31630M 31631M 31631B 31652M 31653M 31653B 31685M
                                                 31686M 31686B 31737M 31738M 31738B 31754M 31755M 31755B 31782M 31783M
                                                 31783B 31799M 31800M 31800B 31827M 31828M 31828B 31861M 31862M 31862B
                                                 31887M 31888M 31888B 31918M 31919M 31919B 31935M 31936M 31936B 31959M
                                                 31960M 31960B 31989M 31993B 32016  32130M 32134B 32152  32360M 32364B
                                                 32412  32844M 32848B 32869  32915  32918M 32919M 32919B 32995M 32999B
1ELF      (ELF2047) (12:35) (15MAR04) Ordinary Symbol and Literal Cross Reference                                           Page  180
                                                 33020  33280M 33281M 33281B 33311M 33315B 33333  33522M 33523M 33523B
                                                 33631M 33635B 33767  33876M 33877M 33877B 33919M 33920M 33920B 34017M
                                                 34018M 34018B 34110M 34111M 34111B 34146M 34147M 34147  34160M 34160B
                                                 34360M 34361M 34361B 34468M 34469M 34469B 34568M 34569M 34569B 34588M
                                                 34589M 34589B 34691M 34692M 34692B 34727M 34728M 34728B 34769M 34773B
                                                 34793  34981M 34982M 34982B 35017M 35018M 35018  35031M 35031B 35112M
                                                 35113M 35113B 35251M 35252M 35252B 35299M 35300M 35300B 35342M 35346B
                                                 35450  35946M 35947M 35947B 35982M 36129  36132M 36133M 36133B 36257M
                                                 36258M 36258B 36394M 36398B 36437  36610M 36804M 36805M 36805B 36924M
                                                 36928B
 RCDNEXT       4 00002882 00000001     I   18156 17308B 17528B 17922B 17986B 18119B 18148B
 RCHKCOMP      2 00003EA8 00000001     H   26031 25964B
 RCHKEND       2 00003E86 00000001     H   25979 24646B 24744B 25010B 25154B
 RCHKFLAG      1 00000000 FFFFFFD9     R   24508 24512
 RCHKFTERM
             128 00000000 FFFFFFD9        24512 24907M 24955M 24997  25141
 RCHKSEND      4 00003D28 00000001     I   25462 24728B 25005B 25149B
 RCHKWA        1 00000000 FFFFFFD9     J   24521 24555M 24568U 24599M 26271  26273  26274  26585
 RCONDATA      2 0000266E 00000001     H   17183 15134B
 RCONEOF       2 00002918 00000001     H   18258 16230B
 RCONTIMR      2 000029C4 00000001     H   18576 15217  19646
 RCTMEXIT      6 00002B4E 00000001     I   19159 18717B
 RCTMREST      4 00002B38 00000001     I   19150 18898B
 READCHK       2 00003B1E 00000001     H   24528 11914  17164
 READTRT       1 00003F54 00000001     X   26284 25040  26285  26287  26289  26291  26293  26295
 READTRTD      1 00004054 00000001     X   26299 25058  26300  26302  26304  26306
 RLGIP         4 000034E8 00000001     A   22900 22862
 RTMCUR       40 00000000 FFFFFFDC     X   18562 18687M 19159
 RTMWA        40 00000000 FFFFFFDC     J   18569 18603M 18616U 19189  19191  19192  19654
 RTRIM         1 00000000 00000028     T   24439 24439  35361
 R0            0 00000000 FFFFFFFF A   #     706  1618M  1619M  1620   1622M  1623   4359M  4371M  4482M  4704M  4741M
                                                  4750M  4820M  4855M  4988M  5023M  5023   5059M  5106M  5107M  5108M
                                                  5233M  5254M  5254   5270M  5424   5436M  5441   5508   5583   5595M
                                                  5600   5761M  5910M  5939M  6175   6392   6507M  7056M  7073M  7094M
                                                  7094   7111M  7132M  7132   7149M  7170M  7170   7187M  7208M  7208
                                                  7232M  7232   7467M  7494M  7518M  7518   7711   8542M  8569M  8586M
                                                  8606M  8606   8639M  8666M  8683M  8710M  8738M  8738   9681M  9751M
                                                  9802M  9848M  9848  10075M 10092M 10109M 10133M 10133  10229M 10256M
                                                 10280M 10280  10321M 10348M 10372M 10372  11495M 11522M 11601M 11601
                                                 11671M 11698M 11722M 11722  11763M 11790M 11814M 11814  12174M 12215M
                                                 12243M 12268M 12268  12558M 12559M 12561  12741  12777M 12778  12779
                                                 12846M 12847  13432M 13459M 13483M 13483  13593M 13840M 13881M 13907M
                                                 13907  13924M 13950M 13950  13967M 13993M 13993  14010M 14036M 14036
                                                 14134M 14165M 14192M 14209M 14236M 14260M 14260  14298M 14328M 14362M
                                                 14386M 14386  14442M 14466M 14466  14493M 14631M 14659M 14729M 14746M
                                                 14746  15029M 15031M 15047M 15047  15446M 16493M 16520M 16544M 16544
                                                 16712  16736M 16737M 16744  16782M 16783M 16784M 16815M 16902M 16929M
                                                 16953M 16953  17244  17602M 17619M 17636M 17702M 17736M 17753M 17789M
                                                 17789  17841M 17841  17889M 18066M 18095M 18176M 18176  18348M 18375M
                                                 18399M 18399  18440M 18467M 18491M 18491  18831M 18848M 18879M 18879
                                                 18973M 19000M 19024M 19024  19065M 19092M 19116M 19116  19150M 19268
                                                 19292M 19293M 19300  19338M 19339M 19340M 19370M 19579M 19580M 19581M
                                                 19830M 20124M 20125M 20126M 20481M 20508M 20532M 20532  20737M 20764M
                                                 20788M 20788  20829M 20856M 20880M 20880  21214M 21235M 21238  21283
                                                 21371  21497  21585  21673  22019M 22084M 22100  22107  22152M 22168
                                                 22175  22240M 22256  22263  22308M 22324  22331  22398M 22426M 22443M
                                                 22469M 22475  22499M 22531M 23019  23153M 23154M 23154  23163M 23163
                                                 23181M 23253M 23587M 23594M 23705M 23772M 23794M 23814M 23889M 24055M
                                                 24084M 24138M 24139M 24139  24148M 24148  24158M 24203M 24203  24384M
1ELF      (ELF2047) (12:35) (15MAR04) Ordinary Symbol and Literal Cross Reference                                           Page  181
                                                 24387M 24861M 24862M 24863M 25373M 25433M 25559M 25662M 25676  25792M
                                                 25793M 25794M 25888M 25915M 25939M 25939  26219M 26219  26794M 26809M
                                                 26835M 26850M 26868M 26868  26884M 26916M 26954M 26980M 26980  27048M
                                                 27070M 27085M 27107M 27107  27129M 27129  27155M 27200M 27225M 27240M
                                                 27265M 27301M 27320M 27320  27355M 27355  27383M 27398M 27420M 27435M
                                                 27454M 27454  27469M 27488M 27488  27503M 27522M 27522  27544M 27544
                                                 27588M 27603M 27625M 27640M 27662M 27677M 27699M 27721M 27721  27757M
                                                 27773M 27792M 27866M 27918M 27978M 28028M 28070M 28085M 28112M 28131M
                                                 28150M 28150  28172M 28172  28206M 28253M 28284M 28311M 28337M 28337
                                                 28365M 28384M 28384  28413M 28458M 28503M 28521M 28521  28536M 28561M
                                                 28583M 28583  28610M 28632M 28647M 28669M 28684M 28706M 28721M 28743M
                                                 28780M 28806M 28833M 28833  29405  29557M 29574M 29598M 29598  29637M
                                                 29665M 29723M 29740M 29768M 29802M 29828M 29828  29845M 29871M 29871
                                                 29888M 29914M 29914  29931M 29957M 29957  30015M 30032M 30189M 30256M
                                                 30338M 30457M 30481M 30481  30717M 30745M 30772M 30788  30798M 30826M
                                                 30843M 30868M 30893M 30910M 30935M 30952M 30986M 31012M 31012  31029M
                                                 31064M 31106M 31106  31127M 31162M 31204M 31204  31225M 31260M 31302M
                                                 31302  31323M 31361M 31382M 31382  31399M 31437M 31458M 31458  31475M
                                                 31513M 31550M 31578M 31578  31619M 31674M 31726M 31743M 31771M 31788M
                                                 31816M 31850M 31850  31876M 31924M 31948M 31948  32182  32913M 33379
                                                 33402M 33404M 33415  33484M 33485M 33849  33865M 33897M 34006M 34083M
                                                 34087  34088  34140M 34186M 34187M 34209  34225  34237M 34577M 34627M
                                                 34636M 34636  34646M 34658  34665  34666M 34716M 34862  34957M 34958M
                                                 34960  34961  35011M 35103M 35227M 35275M 35684  35697  35715M 35716M
                                                 35717M 35718M 35860  35877  36122M 36123M 36124  36126M 36127M 36174M
                                                 36175M 36176M 36251M 36252M 36253  36276  36300M 36335M 36335  36353M
                                                 36762M 36763M 36764  36879M 36880M 36882
 R1            1 00000001 FFFFFFFF A   #     719  4332M  4332   4358M  4376   4404M  4483M  4490M  4656   4678M  4678
                                                  4703M  4740M  4751M  4756   4791M  4819M  4850M  4912M  4912   4986M
                                                  5071M  5086   5232M  5250M  5269M  5351M  5351   5760M  5852   5869M
                                                  5911M  5943M  5943   6070   6175   6187M  6233M  6338   6392   6457M
                                                  6458M  6458   6508M  6522M  6523M  6523   6584M  6608M  6719M  7049M
                                                  7072M  7090M  7110M  7128M  7148M  7166M  7186M  7204M  7460M  7489M
                                                  7642   8104M  8203M  8326   8535M  8564M  8585M  8602M  8638M  8661M
                                                  8682M  8705M  8945   9008M  9048M  9102M  9674M  9744M  9798M 10074M
                                                 10091M 10108M 10222M 10251M 10314M 10343M 10426M 10486M 10527M 10557M
                                                 11490M 11518M 11563M 11564M 11574U 11636M 11664M 11693M 11756M 11785M
                                                 12169M 12210M 12238M 12444  12539M 12549M 12559  12588M 12589  12627M
                                                 12628  12644  12735M 12741  12759M 12777M 12846M 13177M 13183M 13425M
                                                 13454M 13598  13847M 13876M 13902M 13923M 13945M 13966M 13988M 14009M
                                                 14031M 14135M 14158M 14187M 14208M 14231M 14299M 14329M 14355M 14437M
                                                 14492M 14498  14562M 14624M 14654M 14680M 14725M 15029M 15030M 15447M
                                                 15461M 15462M 15462  15523M 15865M 15906M 15936M 16432M 16433M 16433
                                                 16486M 16515M 16711  16738M 16745  16786M 16810M 16895M 16924M 17243
                                                 17576M 17601M 17618M 17635M 17695M 17731M 17752M 17785M 17837M 17882M
                                                 18059M 18088M 18341M 18370M 18433M 18462M 18620  18827M 18847M 18930M
                                                 18931M 18931  18966M 18995M 19058M 19087M 19151M 19267  19294M 19301
                                                 19342M 19365M 19473M 19497M 19498M 19498  19745  19829M 19835  20181M
                                                 20221M 20251M 20420M 20421M 20421  20474M 20503M 20691M 20692M 20692
                                                 20730M 20759M 20822M 20851M 21210M 21234M 21237  22014M 22079M 22106
                                                 22129  22147M 22174  22197  22235M 22262  22285  22303M 22330  22353
                                                 22393M 22421M 22442M 22464M 22487M 22526M 23006  23018  23121M 23145
                                                 23176M 23246M 23442M 23443M 23443  23452M 23452  23483M 23489  23512M
                                                 23588M 23593M 23698M 23755M 23793M 23813M 23882M 24048M 24077M 24157M
                                                 24386M 25035M 25082  25372M 25426M 25554M 25702M 25703M 25703  25881M
                                                 25910M 26051M 26091M 26121M 26180M 26439M 26480M 26510M 26643  26754
                                                 26787M 26808M 26830M 26849M 26864M 26883M 26915M 26953M 27063M 27084M
                                                 27103M 27150M 27199M 27220M 27239M 27260M 27300M 27316M 27376M 27397M
                                                 27413M 27434M 27450M 27468M 27484M 27502M 27518M 27581M 27602M 27618M
1ELF      (ELF2047) (12:35) (15MAR04) Ordinary Symbol and Literal Cross Reference                                           Page  182
                                                 27639M 27655M 27676M 27692M 27756M 27772M 27791M 27866M 27913M 27936M
                                                 27973M 28027M 28063M 28084M 28105M 28130M 28146M 28205M 28252M 28283M
                                                 28303M 28364M 28380M 28412M 28453M 28502M 28517M 28535M 28556M 28603M
                                                 28625M 28646M 28662M 28683M 28699M 28720M 28736M 28779M 28801M 28960
                                                 28982M 29355  29391M 29391  29464M 29496M 29552M 29573M 29636M 29660M
                                                 29722M 29739M 29763M 29797M 29823M 29844M 29866M 29887M 29909M 29930M
                                                 29952M 29971M 30010M 30031M 30188M 30255M 30337M 30456M 30641  30663M
                                                 30716M 30740M 30767M 30797M 30821M 30842M 30886M 30909M 30928M 30951M
                                                 30985M 31007M 31028M 31063M 31101M 31126M 31161M 31199M 31224M 31259M
                                                 31297M 31322M 31360M 31378M 31398M 31436M 31454M 31474M 31512M 31549M
                                                 31618M 31649M 31673M 31719M 31742M 31766M 31787M 31811M 31875M 31923M
                                                 32045  32181  32458  32898  32914M 32921  33277M 33378  33400M 33414
                                                 33416  33442M 33485  33849  33858M 33897M 34058M 34082M 34083  34084M
                                                 34085  34086M 34133M 34181M 34204  34676M 34715M 34861  34933M 34957
                                                 34959M 35004M 35102M 35226M 35274M 35794M 35876  35980M 36026M 36128M
                                                 36134  36276  36590M 36591  36608M 36654M 36801M 36860M 36870M 36880
 R10          10 0000000A FFFFFFFF A   #     836 29355M 29365U 30641M 30651U
 R11          11 0000000B FFFFFFFF A   #     849 29339M 29349U 30625M 30635U
 R13          13 0000000D FFFFFFFF A   #     875  4638U  5419U  6066U  6326U  6899U  7355U 10740U 18616U 21117U 22980U
                                                 24568U 29327U 32447U 33802U 35485U 36472U
 R14          14 0000000E FFFFFFFF A   #     888  5094M  5099M  5107   5108M 16772M 16777M 16783  16784M 19328M 19333M
                                                 19339  19340M 19567M 19572M 19580  19581M 20112M 20117M 20125  20126M
                                                 24383M 24387M 24849M 24854M 24862  24863M 25780M 25785M 25793  25794M
                                                 34204M 34209M 34217  34218M 35703M 35708M 35716  35717M 36164M 36169M
                                                 36175  36176M
 R15          15 0000000F FFFFFFFF A   #     901  1615M  1616M  1616   1618   1623M  1626M  1626   4311   4339M  4360M
                                                  4411M  4472M  4473M  4474   4484M  4494M  4494   4556M  4556   4642
                                                  4685M  4705M  4742M  4748   4798M  4828M  4863M  4903M  4919M  4934U
                                                  4981M  5007M  5031M  5170M  5171M  5172   5241M  5262M  5271M  5353M
                                                  5353   5407   5407   5412   5412   5441M  5445M  5454M  5454   5461
                                                  5488M  5488M  5493M  5493   5552   5552   5557   5557   5600M  5604M
                                                  5613M  5613   5620   5647M  5647M  5652M  5652   5753M  5762M  5802M
                                                  5802   5934M  5951M  5989M  5989   6136M  6166M  6167M  6168   6242M
                                                  6242   6273M  6273   6420M  6421M  6424   6452M  6453M  6454   6554M
                                                  6555M  6555   6849M  6849   6974M  7064M  7081M  7102M  7119M  7140M
                                                  7157M  7178M  7195M  7216M  7240M  7305M  7305   7475M  7502M  7526M
                                                  7586M  7586   7681   7809M  7812M  7815M  7822M  7822   7943M  7955
                                                  7964M  7968   8156M  8166U  8278M  8278   8517M  8550M  8577M  8594M
                                                  8614M  8647M  8674M  8691M  8718M  8746M  8798M  8798   8984   9021U
                                                  9060U  9101M  9102   9104M  9105   9129M  9130M  9131   9279M  9279
                                                  9689M  9759M  9803M  9812M  9813M  9814   9856M 10083M 10100M 10117M
                                                 10141M 10204M 10237M 10264M 10288M 10329M 10356M 10380M 10499U 10539U
                                                 10558M 10621M 10621  10690M 10690  11503M 11530M 11540M 11541M 11557M
                                                 11557  11580  11609M 11679M 11706M 11730M 11771M 11798M 11822M 11890M
                                                 11890  12042M 12043M 12043  12056M 12061  12065M 12066M 12066  12079M
                                                 12084  12182M 12223M 12251M 12276M 12330M 12330  12538M 12539  12540M
                                                 12542  12557M 12558  12561M 12621M 12621  12746M 12747M 12748  12772U
                                                 12847M 12850  12862M 12870M 12879M 12879  12886  13231M 13231  13440M
                                                 13467M 13491M 13568M 13569M 13569  13827M 13828M 13889M 13915M 13932M
                                                 13958M 13975M 14001M 14018M 14044M 14136M 14173M 14200M 14217M 14244M
                                                 14268M 14330M 14335  14370M 14394M 14450M 14474M 14482M 14483M 14484
                                                 14639M 14667M 14672M 14673M 14674  14681M 14713M 14730M 14754M 14763M
                                                 14764M 14765  14820M 14820  14900M 14914  14927M 14928M 15025M 15026M
                                                 15027  15195M 15195  15307M 15321  15334M 15335M 15493M 15494M 15494
                                                 15562M 15562  15634M 15648  15661M 15662M 15878U 15918U 15937M 15994M
                                                 15994  16061M 16075  16088M 16089M 16291M 16291  16358M 16372  16385M
                                                 16386M 16501M 16528M 16552M 16609M 16609  16716M 16717M 16730  16816M
                                                 16877M 16910M 16937M 16961M 17032M 17032  17145M 17145  17572M 17573M
                                                 17574  17610M 17627M 17644M 17672  17710M 17744M 17761M 17797M 17849M
1ELF      (ELF2047) (12:35) (15MAR04) Ordinary Symbol and Literal Cross Reference                                           Page  183
                                                 17897M 17972M 17973M 17974  18074M 18103M 18184M 18218M 18218  18323M
                                                 18356M 18383M 18407M 18448M 18475M 18499M 18546M 18546  18681M 18809M
                                                 18839M 18856M 18887M 18981M 19008M 19032M 19073M 19100M 19124M 19152M
                                                 19157  19194M 19194  19272M 19273M 19286  19378M 19627M 19627  20147M
                                                 20194U 20233U 20252M 20304M 20304  20349M 20349  20489M 20516M 20540M
                                                 20592M 20592  20745M 20772M 20796M 20837M 20864M 20888M 20908M 20937M
                                                 20937  21152  21283M 21286  21298M 21306M 21315M 21315  21322  21371M
                                                 21374  21386M 21394M 21403M 21403  21410  21497M 21500  21512M 21520M
                                                 21529M 21529  21536  21585M 21588  21600M 21608M 21617M 21617  21624
                                                 21673M 21676  21688M 21696M 21705M 21705  21712  22040  22406M 22434M
                                                 22451M 22507M 22539M 22621M 22624  22636M 22644M 22653M 22653  22660
                                                 22783M 22783  22897M 22897  23015  23071M 23101M 23104  23116M 23121
                                                 23128M 23130  23187M 23259M 23286M 23528M 23531  23543M 23548  23552M
                                                 23561M 23561  23568  23601M 23602M 23602  23611M 23611  23626U 23711M
                                                 23738M 23780M 23800M 23820M 23897M 24063M 24092M 24164M 24211M 24260M
                                                 24260  24354  24381  24384  24385M 24411M 24411  24725M 24726  24976M
                                                 25018  25030M 25035  25065M 25067  25381M 25441M 25561M 25580M 25612M
                                                 25650M 25654  25656M 25662  25668  25670M 25675M 25676M 25677  25681M
                                                 25694  25770  25772  25863M 25896M 25923M 25947M 26064U 26103U 26122M
                                                 26227M 26276M 26276  26452U 26492U 26511M 26558M 26558  26656  26705M
                                                 26705  26767  26800M 26815M 26841M 26856M 26874M 26890M 26922M 26960M
                                                 26986M 27054M 27076M 27091M 27096M 27097M 27098M 27103  27113M 27135M
                                                 27161M 27206M 27231M 27246M 27271M 27307M 27326M 27361M 27389M 27404M
                                                 27426M 27441M 27460M 27475M 27494M 27509M 27528M 27550M 27594M 27609M
                                                 27631M 27646M 27668M 27683M 27705M 27727M 27763M 27779M 27798M 27873M
                                                 27895M 27958M 27984M 28034M 28076M 28091M 28118M 28137M 28156M 28178M
                                                 28212M 28259M 28290M 28317M 28343M 28371M 28390M 28419M 28464M 28509M
                                                 28527M 28542M 28567M 28589M 28616M 28638M 28653M 28675M 28690M 28712M
                                                 28727M 28749M 28786M 28812M 28839M 28908M 28908  28990M 28990  29014M
                                                 29014  29085M 29085  29339  29398M 29480  29503M 29565M 29582M 29606M
                                                 29645M 29673M 29731M 29748M 29776M 29810M 29836M 29853M 29879M 29896M
                                                 29922M 29939M 29965M 30023M 30040M 30068M 30081M 30084M 30091M 30091
                                                 30150  30159  30164M 30197M 30217  30226  30231M 30264M 30299  30308
                                                 30313M 30346M 30448M 30465M 30489M 30494M 30536M 30536  30625  30670M
                                                 30725M 30753M 30806M 30834M 30851M 30876M 30901M 30918M 30943M 30960M
                                                 30994M 31020M 31037M 31072M 31114M 31135M 31170M 31212M 31233M 31268M
                                                 31310M 31331M 31369M 31390M 31407M 31445M 31466M 31483M 31521M 31558M
                                                 31586M 31605M 31605  31627M 31654  31663M 31663  31682M 31734M 31751M
                                                 31779M 31796M 31824M 31858M 31884M 31892M 31892  31915M 31932M 31956M
                                                 31961M 31992M 31992  32047M 32063U 32077M 32078M 32078  32133M 32133
                                                 32344M 32344  32363M 32363  32608M 32609M 32636  32656  32662  32686M
                                                 32687M 32714  32734  32740  32785M 32786M 32786  32798M 32807M 32807
                                                 32814  32847M 32847  32974M 32974  32998M 32998  33049  33127M 33285M
                                                 33285  33314M 33314  33378M 33379M 33381M 33501M 33501  33545  33555M
                                                 33555  33564  33615M 33634M 33634  33858  33873M 33916M 33950M 33953
                                                 33965M 33972M 33974  33990  34014M 34038M 34041  34053M 34058  34065M
                                                 34067  34107M 34357M 34399M 34400M 34401  34425M 34426M 34427  34465M
                                                 34489M 34490M 34491  34522M 34523M 34524  34548M 34549M 34550  34565M
                                                 34585M 34664M 34666  34688M 34724M 34772M 34772  34863  34913M 34916
                                                 34928M 34933  34940M 34942  34978M 35109M 35248M 35296M 35345M 35345
                                                 35536  35993U 36113  36180M 36181M 36181  36211  36221M 36221  36242M
                                                 36242  36297M 36298M 36299  36397M 36397  36621U 36736  36753M 36753
                                                 36820M 36859M 36860  36861M 36863  36878M 36879  36882M 36887M 36887
                                                 36927M 36927
 R2            2 00000002 FFFFFFFF A   #     732  4748M  4778   5046M  5047M  5047   5059   5066   5066   5083M  5083M
                                                  5099   5109   5312M  5346   5875M  5885U  7860M  7892M  7994M  8026M
                                                 12628M 12637M 12637  12644M 12657M 12657  12779M 12782  12794M 12802M
                                                 12811M 12811  12818  16739M 16745M 16796  17768M 17769M 17769  17785
                                                 17817M 17827U 19295M 19301M 19352  19446M 19447M 19463  19489  19558
1ELF      (ELF2047) (12:35) (15MAR04) Ordinary Symbol and Literal Cross Reference                                           Page  184
                                                 19559M 20104M 20117  20127  20168M 20169M 20170  22106M 22107M 22108M
                                                 22129M 22130M 22130  22174M 22175M 22176M 22197M 22198M 22198  22262M
                                                 22263M 22264M 22285M 22286M 22286  22330M 22331M 22332M 22353M 22354M
                                                 22354  22474M 22475M 22499  22560M 22578M 22948  22969  23125M 23125
                                                 23216  23328  23359M 23361M 23377M 23377  23386M 23387  23463M 23477
                                                 23484M 23486M 23488M 23489M 23501  23509M 23521M 23521  23528  23548M
                                                 23587  23757M 23854M 23867  23964M 23978  24016  24255M 24727M 25004M
                                                 25039M 25039  25148M 25175  25230M 25299M 25299  25344  25496  25573
                                                 25605  25769M 25770M 27289M 27316  27565M 27566M 27566  28348M 28349M
                                                 28380  28403M 28403  28426  28438M 28458  29405M 29408  29420M 29428M
                                                 29437M 29437  29444  32586M 32587M 32599  32915M 33414M 33436  33442
                                                 33456  33478M 33484  33567M 33587  34062M 34062  34121M 34121  34146
                                                 34216M 34217M 34218M 34937M 34937  34992M 34992  35017  35640M 35697M
                                                 35708  35718  35735  35743M 35758M 35758  35766M 35768  35860M 36005M
                                                 36009  36021M 36030M 36039M 36039  36046  36129M 36134M 36144U 36193
                                                 36194  36211  36212  36300  36633M 36637  36649M 36658M 36667M 36667
                                                 36674
 R3            3 00000003 FFFFFFFF A   #     745  5280M  5298U  5312   5315M  5316M  5316   6738M  6748U  6764M  6765M
                                                  6765   6982M  6992U  7008M  7009M  7009   7392M  7402U  7418M  7419M
                                                  7419   7861M  7868M  7878   7885M  7886M  7904   7995M  8002M  8012
                                                  8019M  8020M  8038  17672M 17682U 23145M 23146M 23181  23197  23198
                                                 25040M 25058M 25115M 25116M 25117  25731M 25731  26401M 26411U 33415M
                                                 33416M 33436  33456  33587  34603M 34603  34617  34627  34699M 35721M
                                                 35742M 35886M 35896U
 R4            4 00000004 FFFFFFFF A   #     758  7878   8012  12718M 12729M 12729  13143M 13509M 13516M 13528  13538M
                                                 13538  13554  13563  13826  13827  13853  16712M 16717  16815  17244M
                                                 17256M 17256  18158M 19268M 19273  19370  25082M 25083M 25116  25119
                                                 25120  25462M 25472U 25996M 26006U 26038M 27804M 27811M 27821  27828M
                                                 27829M 27843U 28856  31654M 31711U 31719  32186M 32202U 32216M 32217M
                                                 32217  32264M 32264  32279U 33056M 33056  33113M 33194M 33194  33245
                                                 33264  33420M 33420  33570M 33601  33932M 34599M 34698M 35720M
 R5            5 00000005 FFFFFFFF A   #     771  4756M  4766U  5346   6613M  6623U  6653M  6677M  6677   6692U  6720M
                                                  6933M  6943U  7861M  7885   7995M  8019   9453M  9471U 10445M 10463U
                                                 12458M 12468U 13563M 13564M 13565M 14576M 14586U 15827M 15837U 16711M
                                                 16810  17243M 18156M 18701M 18702M 18703  18738  18922  19267M 19365
                                                 19405M 19415U 19557M 19558M 19572  19582  23019M 23095M 23095  23101
                                                 23198M 23300M 23345  23384M 23426  23839M 23839  23908M 23923M 23923
                                                 23935M 23950M 23950  24104M 24119M 24119  24130M 24354  24360  24364M
                                                 24364  24381M 24385  24386  24647M 24693  24780M 24780  24854  24865M
                                                 24866  24943  24949M 24966M 24976  25120M 25192  25771M 25772M 25785
                                                 25795  26992M 26995  27007  27096  27746M 27821  31632M 31643M 31643
                                                 31865M 32182M 32283M 32292M 32292  32302M 32302  32307  32319  32326
                                                 32487M 32488M 32488  32509U 32515M 32516M 32516  32529M 32663  32741
                                                 32763  32933M 32934M 32934  32964  33057M 33073U 33087M 33088M 33088
                                                 33103  33113  33137M 33137  33154  33182U 33257  33424M 33424  33563M
                                                 33564M 33610M 33610  33615  33931M 33944M 33944  33950  33990M 33992M
                                                 34020M 34032M 34032  34038  34088M 34143M 34863M 34978  35109  35248
                                                 35296  35536M 35546U 36543M 36544M 36544  36559U
 R6            6 00000006 FFFFFFFF A   #     784  6400M  6400   6414   6420   6599M  7696M  7706U 12130M 12140U 13349M
                                                 13359U 13374M 13375M 13375  13613  18744M 18754U 19556M 19559  19745M
                                                 19755U 21167M 21177U 23018M 23146  23176  23197M 23298M 23383M 23435
                                                 23484  23906M 23933M 24102M 24128M 24360M 24383  24644M 24645M 24645
                                                 24965M 25083  25119M 25768M 25769  26993M 26994M 26995M 27007  27804M
                                                 27828  32045M 32181M 32234  32898M 32908U 32921M 32946  32947  32964
                                                 32965  33049M 33103  33931M 33989M 33989  34020M 34082  34086  34087M
                                                 34133  34141M 34862M 34907M 34907  34913  34961M 35014M 36489M 36499U
 R7            7 00000007 FFFFFFFF A   #     797  4311M  4321U  4642M  4652U  6396M  7681M  7691U  8984M  8994U  9358U
                                                 10780U 12017M 12027U 12422M 12432U 13341U 14895U 15302U 15629U 16056U
                                                 16353U 19760M 19770U 21152M 21162U 23015M 23071  23187  23259  23286
1ELF      (ELF2047) (12:35) (15MAR04) Ordinary Symbol and Literal Cross Reference                                           Page  185
                                                 23711  23738  23800  23820  24164  24318  24338  24406M 26656M 26666U
                                                 26767M 26777U 26800  26815  26841  26856  26874  26890  26922  26960
                                                 26986  27054  27076  27091  27113  27135  27161  27206  27231  27246
                                                 27271  27307  27326  27361  27389  27404  27426  27441  27460  27475
                                                 27494  27509  27528  27550  27594  27609  27631  27646  27668  27683
                                                 27705  27727  27763  27779  27798  27895  27958  27984  28034  28076
                                                 28091  28118  28137  28156  28178  28212  28259  28290  28317  28343
                                                 28371  28390  28419  28464  28509  28527  28542  28567  28589  28616
                                                 28638  28653  28675  28690  28712  28727  28749  28786  28812  28839
                                                 29370M 29380U 30676M 30692U 30706M 30707M 30707  33824U 34861M 34958
                                                 34959  34960M 35004  35012M
 R9            9 00000009 FFFFFFFF A   #     823 24720M 24720
 SCAN          1 00000000 00000003     T    8815  8815  30550  35358
 SCANCB       32 00000000 FFFFFFEA     J    2761  4321U  4652U  4934U 21177U 29365U 30651U
 SCANTOK       1 00000000 00000026     T   24429 24429
 SCB         434 00000000 FFFFFFEB     J    2729  8166U  8335U  8954U  9348U 10557  10770U 12002U 14493  14507U 14562
                                                 14680  15781U 15798  15936  19740U 19830  20251  23035U 23626U 24637U
                                                 26121  26180  26397U 26510  27191U 33814U 34830U
 SCBACCT       5 00000124 FFFFFFEB     C    2321  2484   2484   3549   8503   8629M  8629   8759   9028  10506  14541M
                                                 15885  20201  26071  26459
 SCBACLCK      8 000000E8 FFFFFFEB     D    2163  2165   2165
 SCBAFLAG      1 000000CC FFFFFFEB     R    2120  2124   2129   2134   2139
 SCBANO        2 00000129 FFFFFFEB     X    2324 27289
 SCBBFLAG      1 000000CD FFFFFFEB     R    2145  2149
 SCBCMD        1 000000B3 FFFFFFEB     X    2085  9029   9066   9483  10475  15849  26018  26072  35058
 SCBCRI        2 000001A4 FFFFFFEB     H    2711  2716   2716
 SCBFBACK     64 00000168 FFFFFFEB         2608 11428  34374
 SCBFFILT      2 00000168 FFFFFFEB         2633 14516M 20158M
 SCBFLG        1 00000168 FFFFFFEB     R    2599  2603   2608   2613   2618   2623   2628   2633   2638
 SCBFLG2       1 00000169 FFFFFFEB     R    2644  2648   2653   2658
 SCBFMOD     128 0000015A FFFFFFEB         2500  8482M
 SCBFNECH      1 00000168 FFFFFFEB         2638 11186
 SCBFNTYP     32 00000169 FFFFFFEB         2658 11096
 SCBFQUIET
               8 00000186 FFFFFFEB         2693 14560M
 SCBFVFAST
             128 0000015C FFFFFFEB         2522 11141
 SCBFXON       4 00000168 FFFFFFEB         2628 35092
 SCBGRP        2 00000127 FFFFFFEB     C    2323  8171   8661   8666  27220  27225
 SCBHEI        2 0000018C FFFFFFEB     H    2699 12065
 SCBID         4 000000F4 FFFFFFEB     F    2170  9027  10505  15884  20200  26070  26458
 SCBINCT       2 000000BE FFFFFFEB     H    2110 24693  24725  24943  24949  25654  25656
 SCBIPADR      4 00000198 FFFFFFEB     F    2703  8454M 14520M 20162M
 SCBKAFL       1 0000012F FFFFFFEB     R    2455  2459   2464   2469   2474   2479
 SCBKIFL       1 0000012E FFFFFFEB     R    2410  2414   2419   2424   2429   2434   2439   2444   2449
 SCBMODA       1 000000B4 FFFFFFEB     X    2088 25051  25644
 SCBMODB       1 000000B5 FFFFFFEB     X    2089  9120M 10056  25360
 SCBMODD       1 000000B7 FFFFFFEB     X    2091 10040  24663  24676  24926  25327  25628  33891  34878  35074  35217
 SCBNAME      20 00000136 FFFFFFEB     C    2491  8189
 SCBNO         2 000000F8 FFFFFFEB     H    2171  8602
 SCBOFLAG      1 00000186 FFFFFFEB     R    2669  2673   2678   2683   2688   2693
 SCBOPOS       2 000000C0 FFFFFFEB     H    2112 33850
 SCBOPST       4 00000134 FFFFFFEB     F    2489  2718   2718
 SCBPIBP       4 00000008 FFFFFFEB     A    1984  8341   8958  33828  34834
 SCBQFLG       1 0000015C FFFFFFEB     R    2518  2522
 SCBR          9 00000009 00000001 A   #    1070  8326M  8335U  8945M  8954U  9348U 10413  10426  10430M 10430  10770U
                                                 11636  11640M 11640  12002U 14498M 14507U 15756M 15757M 15757  15781U
                                                 19731M 19740U 19797M 19797  19835M 23024M 23025M 23025  23035U 24628M
                                                 24637U 26376M 26377M 26377  26397U 27176M 27177M 27177  27191U 33814U
1ELF      (ELF2047) (12:35) (15MAR04) Ordinary Symbol and Literal Cross Reference                                           Page  186
                                                 34830U
 SCBSFLG       1 0000012B FFFFFFEB     R    2328  2332   2337   2342   2347   2352   2357
 SCBSFNAR     64 0000012B FFFFFFEB         2337 14551  14551  14553  14553
 SCBSFNAT    128 0000012B FFFFFFEB         2332 14551  14551  14552  14552  14554M
 SCBSFPS      32 0000012B FFFFFFEB         2342 14552  14552  14553  14553
 SCBSTART      4 000000F4 FFFFFFEB     F    2169  2173   2173   2485   2485   2590   2590
 SCBSTAT       1 000000FF FFFFFFEB     R    2265  2269   2274   2279   2284   2289   2294   2299
 SCBTABS      16 00000176 FFFFFFEB     X    2665  3608  12038  34599  34627
 SCBTACF       1 0000012C FFFFFFEB     R    2363  2367   2372   2377   2382   2387   2392   2397   2402
 SCBTCLS       8 00000152 FFFFFFEB     C    2493 12100  12121  14518M
 SCBTCONS      1 000000FC FFFFFFEB         2187  8182
 SCBTETYP      1 00000102 FFFFFFEB     C    2305 23632M
 SCBTFLAG      1 0000015A FFFFFFEB     R    2496  2500   2505   2510
 SCBTFLG       1 000000B0 FFFFFFEB     R    2007  2011   2016   2021   2026   2031   2036
 SCBTFLG2      1 000000B1 FFFFFFEB     R    2042  2046   2051   2056   2061   2066
 SCBTFLG3      1 000000B8 FFFFFFEB     R    2095  2099   2104
 SCBTFPP      64 000000B1 FFFFFFEB         2051  9095
 SCBTINFO      2 000000FD FFFFFFEB     X    2261 14519M 20160M
 SCBTTYPE      8 0000018E FFFFFFEB     C    2701 20161M
 SCBTYPE       1 000000FC FFFFFFEB     R    2178  2187   2197   2207   2217   2227   2237   2247   2257
 SCBUFLG       1 0000015E FFFFFFEB     R    2533  2537   2542   2547   2552   2557   2562   2567   2572
 SCBUFLG2      1 0000015F FFFFFFEB     R    2578  2582   2587
 SCBUSER       3 00000124 FFFFFFEB     C    2322  8172   8705   8710  27260  27265
 SCBVPGM       8 0000010C FFFFFFEB     C    2311  2317   2317
 SCBWID        2 00000188 FFFFFFEB     H    2697 12042  14517M 20159M
 SCBXFLG       1 000000B2 FFFFFFEB     R    2072  2076   2081
 SCB1ST        4 000000FC FFFFFFEB     F    2175  2720   2720
 SCINIT        1 00000000 0000000B     T    8825  8825
 SCNCB         4 00000000 FFFFFFEA     F    2743  2754  20962
 SCNKW         8 00000004 FFFFFFEA     C    2745  4390   4519   4950
 SCNVAL        4 00000000 FFFFFFEA     A    2744  4516   4522   4525   5728   5731  30209  30396  30423  30426  31632
 SCTELL        1 00000000 0000000D     T    8828  8828
 SEG           1 00000000 0000000E     T    8829  8829  11911  13244  15207  16629  17162  18230  19641  20609  24427
                                                 26575  29099  30554  35359
 SEGB          1 00000000 0000002D     T   29102 29102
 SEGCB        60 00000000 FFFFFFE9     J    2867  4581   5046  12360  14673  26666U 26777U 29349U 30635U 35546U
 SEGCBCOD      1 00000000 FFFFFFE9     R    2778  2787   2797   2807   2817   2827   2837   2847
 SEGCBCR       6 00000000 FFFFFFE9         2837 35842
 SEGCBINDF
               4 00000010 FFFFFFE9     A    2854 27803M 28878M 28878
 SEGCBLENF
               4 0000000C FFFFFFE9     A    2853  5046  14673  35583M 35583  35643M
 SEGCBLOC      4 00000020 FFFFFFE9     A    2857 35640
 SEGCBOVF      5 00000000 FFFFFFE9         2827 35854
 SEGCBSEG      1 00000000 FFFFFFE9         2787 35562
 SEGCBSPP      4 00000000 FFFFFFE9         2817 36326
 SEGCBWR       2 00000000 FFFFFFE9         2797 35830
 SEGCLR        1 00000000 0000001B     T    8852  8852  11915  15225  17161  19640  24448  26581  35383
 SEGCOL        1 00000000 0000002E     T   29104 29104  35364
 SEGCR         1 00000000 0000000F     T    8830  8830
 SEGDC         1 00000000 00000010     T    8831  8831  15213  18233  29101  30558  35365
 SEGHX         1 00000000 0000002B     T   29098 29098  35369
 SEGINIT       1 00000000 00000009     T    8823  8823  15212  24442  30557  35380
 SEGINITR      1 00000000 00000013     T    8839  8839
 SEGT          1 00000000 00000024     T   15223 15223  18232  24443  29111  30553  35363
 SEGTB         1 00000000 0000002C     T   29100 29100  35360
 SEGWR         1 00000000 00000008     T    8822  8822  11913  13245  15208  16630  17163  18234  19642  20610  24428
                                                 26582  29103  30555  35367
 SETEEIB      73 00000008 FFFFFFD8     X   29183 29370
1ELF      (ELF2047) (12:35) (15MAR04) Ordinary Symbol and Literal Cross Reference                                           Page  187
 SETEERR       4 00004C02 00000001     I   30084 29611B 29678B 29781B 30045B
 SETEEXIT      2 00004DEA 00000001     H   30499 30085B 30092B
 SETEFCREATE
             128 00000000 FFFFFFD8        29172 29520  30133M
 SETEFDELETE
              64 00000000 FFFFFFD8        29177 30062  30142M
 SETEFLAG      1 00000000 FFFFFFD8     R   29168 29172  29177
 SETELF        2 000049E0 00000001     H   29287 29283
 SETEOK        2 00004C0A 00000001     H   30089 29976B 30073B
 SETEPTR       4 00000004 FFFFFFD8     A   29181 29480M 29536M 29536  29994M 29994  30068  30081
 SETESC       60 00000054 FFFFFFD8     X   29271 29810  29836  29853  29879  29896  29922  29939  29965
 SETESCCOD
               1 00000054 FFFFFFD8     R   29188 29197  29207  29217  29227  29237  29247  29257
 SETEWA      144 00000000 FFFFFFD8     J   29278 29314M 29327U 29337M 29337  30531  30533  30534  30562
 SETIPINF      2 000034AC 00000001     H   22801 15214  24445
 SHEBEST       4 00005168 00000001     I   31618 31611
 SHEBRIP       4 0000521C 00000001     F   31894 31649
 SHEINV        2 00005220 00000001     H   31903 31613
 SHELFPRT      1 0000515C 00000001     R   31611 30663
 SHOEEXIT      2 00005246 00000001     H   31966 31606B 31893B
 SHOWELF       2 00004ED0 00000001     H   30592 30588
 SMSGSUBP      1 00000022 00000001 A   U    2900  5071
 SOCK        252 00000000 FFFFFFE5     J    3560  4750   4766U  4776M  4776   5280   5298U  5338U  5346M  6738   6748U
                                                  6982   6992U  7392   7402U 13349  13359U 17827U 18754U 18771
 SOCKACCT      5 00000028 FFFFFFE5     C    3549  5536M  5537M 13627M 13627  14535M 14535  14541
 SOCKCMD     200 0000002D FFFFFFE5     C    3550  5192   5205M  5205   5580M  5627M  8835  14609M 14609  14654  14659
 SOCKFIAC    128 00000009 FFFFFFE5         3523  5575M  5670M  5715M  5725M 13731
 SOCKFKEEP
              16 00000009 FFFFFFE5         3538  5706M 13783
 SOCKFLAG      1 00000009 FFFFFFE5     R    3519  3523   3528   3533   3538
 SOCKFLISTEN
              64 00000009 FFFFFFE5         3528  6777M  7024   7035M  7434   7446M
 SOCKFLOH      4 00000018 FFFFFFE5     F    3546  4779M  5125M  5125   5132M  5164   5170   5728M  7204
 SOCKFLOL      4 0000001C FFFFFFE5     F    3547  4780M  5149M  5149   5164   5172M  5731M  7166
 SOCKFTRACE
              32 00000009 FFFFFFE5         3533  5697M 13757
 SOCKID        4 00000000 FFFFFFE5     C    3479  4777M
 SOCKLINK      4 00000004 FFFFFFE5     A    3480  5280   5315   5346M  6738   6764   6982   7008   7392   7418  13349
                                                 13374
 SOCKMAX       4 00000014 FFFFFFE5     F    3545  5655M  7128
 SOCKMSGL      2 000000F6 FFFFFFE5     H    3552  5109M 14699M 14699  14729  18795M 18795  18831
 SOCKMSGP      4 000000F8 FFFFFFE5     A    3553  5086M 14725  18827
 SOCKNO        4 00000010 FFFFFFE5     F    3544  4778M  5250   7090   7489   7494  13393  17837
 SOCKPELF      1 00000008 FFFFFFE5         3493  5688M 13653
 SOCKPRECONNECT
               2 00000008 FFFFFFE5         3503  5679M 13705
 SOCKPROTO
               1 00000008 FFFFFFE5     R    3484  3493   3503   3513   5223
 SOCKPTELNET
               3 00000008 FFFFFFE5         3513  5568M  5664M 13679
 SOCKSUBP      1 00000021 00000001 A   U    2899  4751
 SOCKSYS       8 00000020 FFFFFFE5     C    3548  5421M  5468M  8832  13616
 SPR          13 0000000D 00000001 A   #    1134  4282   4285   4301M  4303   4303   4304   4304   4305   4548M  4548
                                                  4551   4553   4555   4555   4603   4606   4623M  4625   4625   4626
                                                  4626   4627   5066   5067M  5069   5069   5070   5070   5080M  5080
                                                  5083   5085   5085   5404   5407   5408M  5410   5410   5411   5411
                                                  5412   5485M  5485   5488   5490   5492   5492   5549   5552   5553M
                                                  5555   5555   5556   5556   5557   5644M  5644   5647   5649   5651
                                                  5651   5793M  5793   5797   5799   5801   5801   5823   5826   5842M
1ELF      (ELF2047) (12:35) (15MAR04) Ordinary Symbol and Literal Cross Reference                                           Page  188
                                                  5844   5844   5845   5845   5846   5981M  5981   5984   5986   5988
                                                  5988   6031   6034   6051M  6053   6053   6054   6054   6055   6264M
                                                  6264   6268   6270   6272   6272   6291   6294   6311M  6313   6313
                                                  6314   6314   6315   6840M  6840   6844   6846   6848   6848   6864
                                                  6867   6884M  6886   6886   6887   6887   6888   7296M  7296   7300
                                                  7302   7304   7304   7320   7323   7340M  7342   7342   7343   7343
                                                  7344   7577M  7577   7581   7583   7585   7585   7613   7616   7632M
                                                  7634   7634   7635   7635   7636   8270M  8270   8273   8275   8277
                                                  8277   8297   8300   8316M  8318   8318   8319   8319   8320   8790M
                                                  8790   8793   8795   8797   8797   8916   8919   8935M  8937   8937
                                                  8938   8938   8939   9271M  9271   9274   9276   9278   9278   9293
                                                  9296   9312M  9314   9314   9315   9315   9316  10613M 10613  10616
                                                 10618  10620  10620  10638  10641  10657M 10659  10659  10660  10660
                                                 10661  10682M 10682  10685  10687  10689  10689  10705  10708  10725M
                                                 10727  10727  10728  10728  10729  11881M 11881  11885  11887  11889
                                                 11889  11947  11950  11966M 11968  11968  11969  11969  11970  12013M
                                                 12015  12015  12016  12016  12017  12126M 12128  12128  12129  12129
                                                 12130  12188M 12188  12191  12191  12287M 12287  12290  12290  12322M
                                                 12322  12325  12327  12329  12329  12387  12390  12406M 12408  12408
                                                 12409  12409  12410  12418M 12420  12420  12421  12421  12422  13194M
                                                 13194  13197  13197  13223M 13223  13226  13228  13230  13230  13294
                                                 13297  13313M 13315  13315  13316  13316  13317  14812M 14812  14815
                                                 14817  14819  14819  14848  14851  14867M 14869  14869  14870  14870
                                                 14871  15187M 15187  15190  15192  15194  15194  15255  15258  15274M
                                                 15276  15276  15277  15277  15278  15554M 15554  15557  15559  15561
                                                 15561  15582  15585  15601M 15603  15603  15604  15604  15605  15986M
                                                 15986  15989  15991  15993  15993  16009  16012  16028M 16030  16030
                                                 16031  16031  16032  16283M 16283  16286  16288  16290  16290  16306
                                                 16309  16325M 16327  16327  16328  16328  16329  16601M 16601  16604
                                                 16606  16608  16608  16657  16660  16676M 16678  16678  16679  16679
                                                 16680  17024M 17024  17027  17029  17031  17031  17047  17050  17066M
                                                 17068  17068  17069  17069  17070  17137M 17137  17140  17142  17144
                                                 17144  17187  17190  17206M 17208  17208  17209  17209  17210  18210M
                                                 18210  18213  18215  18217  18217  18262  18265  18281M 18283  18283
                                                 18284  18284  18285  18538M 18538  18541  18543  18545  18545  18581
                                                 18584  18601M 18603  18603  18604  18604  18605  19185M 19185  19189
                                                 19191  19193  19193  19213  19216  19232M 19234  19234  19235  19235
                                                 19236  19619M 19619  19622  19624  19626  19626  19681  19684  19700M
                                                 19702  19702  19703  19703  19704  20341M 20341  20344  20346  20348
                                                 20348  20364  20367  20383M 20385  20385  20386  20386  20387  20584M
                                                 20584  20587  20589  20591  20591  20635  20638  20654M 20656  20656
                                                 20657  20657  20658  20929M 20929  20932  20934  20936  20936  21082
                                                 21085  21102M 21104  21104  21105  21105  21106  22774M 22774  22778
                                                 22780  22782  22782  22805  22808  22824M 22826  22826  22827  22827
                                                 22828  22889M 22889  22892  22894  22896  22896  22945  22948  22965M
                                                 22967  22967  22968  22968  22969  24251M 24251  24255  24257  24259
                                                 24259  24315  24318  24334M 24336  24336  24337  24337  24338  24403M
                                                 24403  24406  24408  24410  24410  24533  24536  24553M 24555  24555
                                                 24556  24556  24557  26267M 26267  26271  26273  26275  26275  26323
                                                 26326  26342M 26344  26344  26345  26345  26346  26550M 26550  26553
                                                 26555  26557  26557  26614  26617  26633M 26635  26635  26636  26636
                                                 26637  26697M 26697  26700  26702  26704  26704  26725  26728  26744M
                                                 26746  26746  26747  26747  26748  27869M 27871  27871  27872  27872
                                                 27873  27901M 27901  27904  27904  28900M 28900  28903  28905  28907
                                                 28907  28931  28934  28950M 28952  28952  28953  28953  28954  29006M
                                                 29006  29009  29011  29013  29013  29035  29038  29054M 29056  29056
                                                 29057  29057  29058  29077M 29077  29080  29082  29084  29084  29292
                                                 29295  29312M 29314  29314  29315  29315  29316  30150  30151M 30153
                                                 30153  30154  30154  30161M 30161  30164  30166  30166  30217  30218M
1ELF      (ELF2047) (12:35) (15MAR04) Ordinary Symbol and Literal Cross Reference                                           Page  189
                                                 30220  30220  30221  30221  30228M 30228  30231  30233  30233  30299
                                                 30300M 30302  30302  30303  30303  30310M 30310  30313  30315  30315
                                                 30527M 30527  30531  30533  30535  30535  30596  30599  30615M 30617
                                                 30617  30618  30618  30619  31984M 31984  31987  31989  31991  31991
                                                 32016  32019  32035M 32037  32037  32038  32038  32039  32125M 32125
                                                 32128  32130  32132  32132  32152  32155  32171M 32173  32173  32174
                                                 32174  32175  32355M 32355  32358  32360  32362  32362  32412  32415
                                                 32432M 32434  32434  32435  32435  32436  32838M 32838  32842  32844
                                                 32846  32846  32869  32872  32888M 32890  32890  32891  32891  32892
                                                 32990M 32990  32993  32995  32997  32997  33020  33023  33039M 33041
                                                 33041  33042  33042  33043  33306M 33306  33309  33311  33313  33313
                                                 33333  33336  33352M 33354  33354  33355  33355  33356  33626M 33626
                                                 33629  33631  33633  33633  33767  33770  33787M 33789  33789  33790
                                                 33790  33791  34763M 34763  34767  34769  34771  34771  34793  34796
                                                 34812M 34814  34814  34815  34815  34816  35337M 35337  35340  35342
                                                 35344  35344  35450  35453  35470M 35472  35472  35473  35473  35474
                                                 36388M 36388  36392  36394  36396  36396  36437  36440  36457M 36459
                                                 36459  36460  36460  36461  36918M 36918  36922  36924  36926  36926
 STEBIAS       6 00004DB4 00000001     I   30423 30121
 STECOUNT      6 00004D9C 00000001     I   30396 30119
 STECRE        2 00004C90 00000001     H   30129 30097
 STEDEL        2 00004C96 00000001     H   30138 30099
 STEDOWN       2 00004D8A 00000001     H   30370 30103
 STEERR        4 00004DE6 00000001     I   30494 29403B 30202B 30269B 30351B
 STEINV        2 00004DC4 00000001     H   30436 30125
 STEIP         2 00004C9C 00000001     H   30146 30109
 STELFPRT      1 00004C10 00000001     R   30097 29496
 STELIMIT      6 00004DBC 00000001     I   30426 30123
 STEPORT       6 00004CE2 00000001     I   30209 30111
 STESTART      2 00004D90 00000001     H   30379 30105
 STESTOP       2 00004D96 00000001     H   30389 30107
 STESUBM       2 00004D3E 00000001     H   30295 30117
 STESUBN       2 00004CEA 00000001     H   30213 30113
 STEUP         2 00004D84 00000001     H   30360 30101
 SUBSEND       1 00000000 0000001D     T   11917 11917  16627  20607  26583
 SUBSTART      1 00000000 00000025     T   15224 15224  20606
 TCONABRT      2 00001B82 00000001     H   13413 13557B
 TCONCTRL     12 00001F76 00000001     X   14830 14437  14442
 TCONCX        1 00001F76 00000001     R   14826 14830  14830
 TCONEXIT      2 00001F62 00000001     H   14774 14305B 14405B
 TCONSOCK      4 00001BBE 00000001     I   13509 13396B
 TCPABORT      2 000023EA 00000001     H   16302 13259
 TCPCLOSE      2 00002104 00000001     H   15251 13260
 TCPCONN       2 00001B4C 00000001     H   13290 13255
 TCPDATA       2 00001F82 00000001     H   14844 13256
 TCPEOF        2 00002330 00000001     H   16005 13258
 TCPFLOW       2 00002208 00000001     H   15578 13257
 TCTLBF        4 00000A20 00000001     I    7812  7845B  7937B  8079B  8214B  8235B
 TCTLEXIT      2 00000B7A 00000001     H    8247  7810B  7813B  7816B  7823B  8109B
 TCTLMAX       1 00000002 00000001 A   N    7794  7796   7796   8855
 TCTLOK        2 00000A30 00000001     H    7820  7916B  8058B  8134B  8208B
 TCTLPMAX      1 00000066 00000001 A   N    7801  7803   7803   8854
 TCTLPTBL      4 00000A0C 00000001     A    7798  7754   7801
 TCTLRC12      4 00000A28 00000001     I    7815  7958B  7970B  8241B
 TCTLTBL       4 00000A00 00000001     A    7791  7788   7794
 TCTL0         4 00000A18 00000001     I    7809  7791   7798
 TCTL1         2 00000A36 00000001     H    7832  7792
 TCTL101       2 00000AFC 00000001     H    8066  7799
 TCTL102       2 00000B6C 00000001     H    8222  7800
1ELF      (ELF2047) (12:35) (15MAR04) Ordinary Symbol and Literal Cross Reference                                           Page  190
 TCTL2         2 00000A8A 00000001     H    7924  7793
 TDATEXIT      2 0000206C 00000001     H   15164 15015B
 TDEFPRT       1 000000D0 00000001     R    4503  4404
 TELDATA       2 000024FE 00000001     H   16653 15103B
 TELEOF        2 000025F2 00000001     H   17043 16199B
 TELISUBP      1 00000024 00000001 A   U    2902 16738
 TEOFEXIT      2 000023D6 00000001     H   16260 16142B
 TIMERDQ       1 00000000 00000018     T    8847  8847  16625
 TIMERQ        1 00000000 00000021     T   15218 15218  19647
 TMILBRK       1 00000050 FFFFFFED A   U    1738 10006  10882
 TMILEOS       1 00000040 FFFFFFED A   U    1724 10187  10915  11630
 TMILREAD      1 00000042 FFFFFFED A   U    1728  9428   9880  10849  11171  28242  35058
 TMILWRIT      1 00000041 FFFFFFED A   U    1727  9413  10816  28195
 TOEBCDIC      1 00000000 00000029     T   24454 24454
 TPDONE        2 00001A58 00000001     H   13162 12740B
 TPEXIT        4 00001A74 00000001     I   13194 13156B
 TPHDR        56 00000008 FFFFFFDD     X   12358 12893M 13253
 TPID         16 00000008 FFFFFFDD     C   12350 12358  12358  12917  12952  12989  13003  13038  13073  13108  15030
                                                 15232  15716
 TPOREXIT      2 000004F4 00000001     H    5768  4706B  4743B  5272B  5354B  5763B
 TPORTACC      2 0000041C 00000001     H    5498  5362   5364
 TPORTBUF   3000 0000003C FFFFFFDF     C    4582  4850   4855   5106
 TPORTCMD      2 0000043A 00000001     H    5544  5366   5368
 TPORTELF      2 000004AC 00000001     H    5684  5377
 TPORTERR      2 000004DA 00000001     H    5741  5393   5511B  5530B
 TPORTHI       6 000004CA 00000001     I    5728  5379
 TPORTIAC      2 000004BE 00000001     H    5711  5389
 TPORTKP       2 000004B8 00000001     H    5702  5387
 TPORTLOW      6 000004D2 00000001     I    5731  5382
 TPORTMAX      6 00000494 00000001     I    5655  5370
 TPORTNOI      2 000004C4 00000001     H    5720  5391
 TPORTPRT      1 00000330 00000001     R    5360  4791
 TPORTRC       2 000004A6 00000001     H    5675  5375
 TPORTSG      60 00000000 FFFFFFDF     X    4581  4863   5007   5031   5046
 TPORTSSV      4 00000250 00000001     I    5046  4960B
 TPORTSYS      2 000003D0 00000001     H    5399  5360
 TPORTTEL      2 0000049C 00000001     H    5660  5373
 TPORTTRC      2 000004B2 00000001     H    5693  5385
 TPORTWA    3060 00000000 FFFFFFDF     J    4589  4625M  4638U  5797   5799   5800   8860
 TPSEGCB      60 00000040 FFFFFFDD     X   12360 13889  13915  13932  13958  13975  14001  14018  14044  14639  14667
                                                 14673
 TPWA        140 00000000 FFFFFFDD     J   12369 12420M 12432U 12442M 12442  13196  13267  13341U 14895U 15302U 15629U
                                                 16056U 16353U
 TPWATEMP      4 0000007C FFFFFFDD     F   12362 12588  12589M 12590M 12591M 12611  12627
 TPWORD1       4 00000018 FFFFFFDD     F   12351 14900  15307  15634  16061  16358
 TPWORD2       4 0000001C FFFFFFDD     F   12352 13454  13459  13615
 TPWORD4       4 00000024 FFFFFFDD     F   12354 13393
 TPWORD5       4 00000028 FFFFFFDD     F   12355 13857
 TPXPTRS       4 00000000 FFFFFFDD     F   12348 12741M 12777  12846  15029
 TTRC         72 00000000 FFFFFFE2     J    4179  4482   7891   7892   8874   8875   9021U 10499U 12772U 15878U 20194U
                                                 26064U 26452U 27843U 35993U 36621U
 TTRC#         1 00000078 00000001 A   U    4116  4483   8873   8875
 TTRCCLCK      8 00000000 FFFFFFE2     D    4133  4137   4142   4142   4146  27857M 27857  27866
 TTRCCMD       1 00000021 FFFFFFE2     X    4156  9029M 10507M 15886M 20202M 26072M 26460M 28195  28242  28303
 TTRCCPL       2 00000022 FFFFFFE2     X    4157 10508M 15887M 26461M
 TTRCDATA      1 00000018 FFFFFFE2     U    4149  4153   4163   4171
 TTRCIHDR     16 0000001A FFFFFFE2     C    4165  4167   4167  28556  28561
 TTRCILEN      2 00000018 FFFFFFE2     H    4164 12778M 28517  35998M 36005  36626M 36633
 TTRCIREM     30 0000002A FFFFFFE2     C    4166 28625  28662  28699  28736
1ELF      (ELF2047) (12:35) (15MAR04) Ordinary Symbol and Literal Cross Reference                                           Page  191
 TTRCITOT     46 0000001A FFFFFFE2     X    4167 12825M 13252  36053M 36681M 36945
 TTRCMSG      40 00000018 FFFFFFE2     C    4172 28801  28806
 TTRCNAME      8 00000008 FFFFFFE2     C    4147 27973  27978  28001  28493  28770
 TTRCP        14 00000000 FFFFFFE2     X    4142  8025   8026   8878   8879   9060U 10539U 14134  15918U 20233U 26103U
                                                 26492U
 TTRCP#        1 0000000F 00000001 A   U    4117  8877   8879  14135
 TTRCPCMD      1 00000008 FFFFFFE2     X    4138  9066M 10545M 15924M 20239M 26109M 26498M
 TTRCPCPL      2 0000000A FFFFFFE2     X    4140  9073M  9073  10546M 15925M 20240M 26110M 26499M
 TTRCPLEN      2 0000000C FFFFFFE2     H    4141  9074M 10547M 15926M 20241M 26111M 26500M
 TTRCPNAM      8 00000010 FFFFFFE2     C    4148  9026M 10504M 15883M 20199M 26069M 26457M 27913  27918  27929M 27929
 TTRCPTYP      1 00000007 FFFFFFE2     C    4137  9065M 10544M 15923M 20238M 26108M 26497M
 TTRCSACC      5 0000001C FFFFFFE2     C    4155  9028M 10506M 15885M 20201M 26071M 26459M 28017M 28017  28063  28105
 TTRCSID       4 00000018 FFFFFFE2     F    4154  9027M 10505M 15884M 20200M 26070M 26458M 28146
 TTRCTEXT     20 00000026 FFFFFFE2     C    4159  9031M 10510M 15889M 20204M 26074M 26463M 28453  29110
 TTRCTLEN      2 00000024 FFFFFFE2     H    4158  9030M 10509M 15888M 20203M 26073M 26462M 28348
 UNGETSIN      1 00000000 0000000C     T    8827  8827
 UPAT          4 00000008 FFFFFFE8     F    2972  3031
 UPATFCLS      1 00000080 FFFFFFE8 A   U    2997 12377  13169
 UPATFFQE      1 00000040 FFFFFFE8 A   U    2998 12377  12699  36843
 UPATFLAG      1 00000004 FFFFFFE8     R    2946  2950   2955   2960   2965
 UPATFNI       1 00000020 FFFFFFE8 A   U    2999 12377
 UPATFOPENED
             128 00000004 FFFFFFE8         2950  6634M  6956  12575  12587M
 UPATFOPN      1 00000008 FFFFFFE8 A   U    3001 12377  12509  12522
 UPATH       124 00000000 FFFFFFE8     J    3051  3193   5885U  6623U  6943U 12377  12468U 12485  12540  12540  12557
                                                 12557  12561M 12561M 12735  35896U 35914  36499U 36516  36861  36861
                                                 36878  36878  36882M 36882M
 UPATMFL       1 00000020 FFFFFFE8     R    2982  5897M
 UPATMGC       4 00000008 FFFFFFE8     R    2974 12604  36088  36716
 UPATMNAM      1 00000020 FFFFFFE8 A   U    2986  5895
 UPATMY        8 00000010 FFFFFFE8     C    2978  5890M
 UPATRBAF      1 0000000C FFFFFFE8 A   U    3020 36946
 UPATSFLG      1 00000040 FFFFFFE8     X    3033  2995   6641M 12377  12511  12540  12540  12557  12561M 12701  13171
                                                 36861  36861  36878  36882M
 UPATYOU       8 00000018 FFFFFFE8     X    2980  5898M
 UPPTBL        1 00000000 00000000 A   T    1437  1437
 =A($BINARY)
               4 00003A64 00000001     A   24455 23978
 =A($CR)       4 0000422C 00000001     A   26572 25175
 =A($CRLF)
               4 0000423C 00000001     A   26576 25573
 =A($CTRLC)
               4 00003A44 00000001     A   24447 23216
 =A($CTRLC)
               4 00004234 00000001     A   26574 25344  25496
 =A($ECHO)
               4 00003A68 00000001     A   24456 24016
 =A($SENDLC)
               4 00003A58 00000001     A   24452 23477  23867
 =A($STOP)
               4 00004240 00000001     A   26577 25605
 =A(-PIBINX#)
               4 00002648 00000001     A   17156 16737
 =A(-PIBINX#)
               4 00002CF0 00000001     A   19648 19293
 =A(AMYSEG)
               4 00000E0C 00000001     A    8838  5939
 =A(AMYSENDQ)
               4 00001AC4 00000001     A   13250 12709
1ELF      (ELF2047) (12:35) (15MAR04) Ordinary Symbol and Literal Cross Reference                                           Page  192
 =A(AMYSENDQ)
               4 00006068 00000001     A   36944 35946
 =A(BESTEIB)
               4 000028B4 00000001     A   18229 17579
 =A(BESTEIB)
               4 00005BA8 00000001     A   35368 31652
 =A(CNVTIP)
               4 00003A20 00000001     A   24438 22026
 =A(CNVTIP)
               4 00004E74 00000001     A   30561 30157  30224  30306
 =A(COUNTEIB)
               4 00000E30 00000001     A    8845  6511
 =A(COUNTEIB)
               4 000020C4 00000001     A   15216 14302
 =A(COUNTEIB)
               4 000024C8 00000001     A   16623 15450
 =A(CREEIB)
               4 00004E6C 00000001     A   30559 29974
 =A(CVBUFLEN)
               4 00000E08 00000001     A    8837  5910
 =A(CVBUFLEN)
               4 0000605C 00000001     A   36941 35684
 =A(DELEIB)
               4 00004E70 00000001     A   30560 30071
 =A(ELFCLOSE)
               4 00000E64 00000001     A    8858  8206
 =A(ELFCLOSE)
               4 00001AF8 00000001     A   13261 13180
 =A(ELFCLOSE)
               4 00004954 00000001     A   29112 28985
 =A(ELFFMT)
               4 00004910 00000001     A   29097 26674
 =A(ELFOPEN)
               4 00000E5C 00000001     A    8856  8107
 =A(ELFOPEN)
               4 00001AFC 00000001     A   13262 13186
 =A(ELFSPARM)
               4 00002F4C 00000001     A   20605 20150
 =A(ELFSTART)
               4 00000E28 00000001     A    8843  6236
 =A(ELFSTART)
               4 00001AC0 00000001     A   13249 12677
 =A(ELFSTOP)
               4 00000E60 00000001     A    8857  8132
 =A(GETEIB)
               4 00004E28 00000001     A   30552 29467
 =A(IACCHK)
               4 00002654 00000001     A   17159 16819
 =A(INPROC)
               4 00004244 00000001     A   26578 25673
 =A(L'DYNSFX)
               4 00003A2C 00000001     A   24441 22168  22324
 =A(L'EIBNAME)
               4 00004E24 00000001     A   30551 29408  29420
 =A(L'ESPWELF)
               4 000039FC 00000001     A   24431 21374  21386
 =A(L'ESPWELFA)
               4 000039F8 00000001     A   24430 21286  21298
 =A(L'ESPWPID)
1ELF      (ELF2047) (12:35) (15MAR04) Ordinary Symbol and Literal Cross Reference                                           Page  193
               4 00003A04 00000001     A   24433 21500  21512
 =A(L'ESPWTEL)
               4 00003A0C 00000001     A   24435 21676  21688
 =A(L'ESPWTELA)
               4 00003A08 00000001     A   24434 21588  21600
 =A(L'NAMESFX)
               4 00003A28 00000001     A   24440 22100  22256
 =A(L'PIBLOC)
               4 00003A38 00000001     A   24444 22624  22636  23531  23543
 =A(L'SOCKCMD)
               4 00000E00 00000001     A    8835  5583   5595
 =A(L'SOCKSYS)
               4 00000DF4 00000001     A    8832  5424   5436
 =A(L'TPHDR)
               4 00001AD0 00000001     A   13253 12850  12862
 =A(L'TTRCITOT)
               4 00001ACC 00000001     A   13252 12782  12794
 =A(L'TTRCITOT)
               4 0000606C 00000001     A   36945 36009  36021  36637  36649
 =A(L'TTRCTEXT)
               4 0000494C 00000001     A   29110 28426  28438
 =A(OUTPROC)
               4 00001724 00000001     A   11912  9806
 =A(OUTPROC)
               4 000020EC 00000001     A   15226 14733
 =A(PIBRLGF#)
               4 000020D4 00000001     A   15220 14344
 =A(PIBRMSG#)
               4 000020D0 00000001     A   15219 14343
 =A(RCONTIMR)
               4 000020C8 00000001     A   15217 14328
 =A(RCONTIMR)
               4 00002CE8 00000001     A   19646 19150
 =A(READCHK)
               4 0000172C 00000001     A   11914  9945  10166
 =A(READCHK)
               4 00002668 00000001     A   17164 16997  17116
 =A(SETIPINF)
               4 000020BC 00000001     A   15214 14131
 =A(SETIPINF)
               4 00003A3C 00000001     A   24445 22732
 =A(TCPABORT)
               4 00001AF0 00000001     A   13259 13081
 =A(TCPCLOSE)
               4 00001AF4 00000001     A   13260 13116
 =A(TCPCONN)
               4 00001AE0 00000001     A   13255 12925
 =A(TCPDATA)
               4 00001AE4 00000001     A   13256 12960
 =A(TCPEOF)
               4 00001AEC 00000001     A   13258 13046
 =A(TCPFLOW)
               4 00001AE8 00000001     A   13257 13011
 =A(TCTLMAX)
               4 00000E58 00000001     A    8855  7772
 =A(TCTLPMAX)
               4 00000E54 00000001     A    8854  7740
 =A(UPATRBAF)
               4 00006070 00000001     A   36946 36113  36736
1ELF      (ELF2047) (12:35) (15MAR04) Ordinary Symbol and Literal Cross Reference                                           Page  194
 =A(X'FF')
               4 00003A4C 00000001     A   24449 23328
 =A(0)         4 00005BE0 00000001     A   35382 34225  34237
 =A(1)         4 00003A5C 00000001     A   24453 23501  23512
 =A(1)         4 00004230 00000001     A   26573 25192
 =A(1)         4 00005BC8 00000001     A   35376 33400  33478  33567  33570
 =A(100)       4 00000E50 00000001     A    8853  7723
 =A(100000)
               4 000020AC 00000001     A   15210 13828
 =A(16)        4 00005BE8 00000001     A   35384 34617
 =A(2)         4 00003A50 00000001     A   24450 23345
 =A(255)       4 00005BD0 00000001     A   35378 33545
 =A(256)       4 00003A40 00000001     A   24446 23104  23116
 =A(256)       4 00004228 00000001     A   26571 25018  25030
 =A(256)       4 00005BDC 00000001     A   35381 33953  33965  34041  34053  34916  34928
 =A(256)       4 00006060 00000001     A   36942 35735
 =A(3)         4 00003A54 00000001     A   24451 23426
 =A(4)         4 00001ABC 00000001     A   13248 12590
 =A(4)         4 00005BD4 00000001     A   35379 33601
 =A(6)         4 00000DF8 00000001     A    8833  5508
 =A(6)         4 00005B90 00000001     A   35362 30788
 =AL1($CR,$LF)
               1 00004262 00000001     R   26586 25426
 =AL1($CTRLC)
               1 00003AE6 00000001     R   24479 23246  23698
 =AL1($IAC,$DO,$RECON)
               1 000020FD 00000001     R   15234 14355
 =AL1($IAC,$DO,$SENDLC)
               1 00003AE9 00000001     R   24482 23882
 =AL1($IAC,$SB,$RECON,$SBCONN)
               1 000028BC 00000001     R   18231 17695
 =AL1($IAC,$SE)
               1 000028FA 00000001     R   18238 17882
 =AL1($IAC,$WILL,$ECHO)
               1 0000174C 00000001     R   11925  9674
 =AL1($IAC,$WONT)
               1 000028FC 00000001     R   18239 18059
 =AL1($IAC,$WONT)
               1 00003AA0 00000001     R   24469 24048
 =AL1($IAC,$WONT,$ECHO)
               1 0000174F 00000001     R   11926  9744
 =AL2(L'AMYQHDR)
               2 0000608C 00000001     R   36954 36127
 =AL2(L'DYNSFX)
               2 00003A8A 00000001     R   24464 22176  22332
 =AL2(L'FDBT1)
               2 00000EC6 00000001     R    8872  7842
 =AL2(L'FDBT101)
               2 00000ED6 00000001     R    8880  8076
 =AL2(L'FDBT102)
               2 00000ED8 00000001     R    8881  8232
 =AL2(L'FDBT2)
               2 00000ECE 00000001     R    8876  7934
 =AL2(L'NAMESFX)
               2 00003A88 00000001     R   24463 22108  22264
 =AL2(L'PDBHDR+L'FDBF1+TTRC#*L'TTRC)
               2 00000ECC 00000001     R    8875  7915
 =AL2(L'PDBHDR+L'FDBF2+TTRCP#*L'TTRCP)
               2 00000ED4 00000001     R    8879  8057
1ELF      (ELF2047) (12:35) (15MAR04) Ordinary Symbol and Literal Cross Reference                                           Page  195
 =AL2(L'PDBHDR)
               2 00001744 00000001     R   11921  9475  10467
 =AL2(L'PDBHDR)
               2 000020F8 00000001     R   15231 14597
 =AL2(L'PDBHDR)
               2 000024EC 00000001     R   16633 15841
 =AL2(L'PDBHDR)
               2 00004264 00000001     R   26587 26010  26422
 =AL2(L'PDBHDR)
               2 0000499A 00000001     R   29124 28349
 =AL2(L'PIBOTCLS+L'PIBOINFO)
               2 00001B06 00000001     R   13266 12155
 =AL2(L'TPID+4)
               2 000020FA 00000001     R   15232 15031
 =AL2(L'TTRC)
               2 00000ECA 00000001     R    8874  7859
 =AL2(L'TTRCP)
               2 00000ED2 00000001     R    8878  7992
 =AL2(TTRC#)
               2 00000EC8 00000001     R    8873  7858
 =AL2(TTRCP#)
               2 00000ED0 00000001     R    8877  7991
 =AL2(16+4+L'HDR)
               2 0000174A 00000001     R   11924 11541
 =AL2(239)
               2 00003A8E 00000001     R   24466 23361
 =AL2(6)       2 00003A70 00000001     R   24459 21196
 =AL4(L'HDR)
               4 00002CFC 00000001     R   19651 19399
 =AL4(PIBINHI#)
               4 00002658 00000001     R   17160 16837
 =AL4(PIBINLO#)
               4 0000424C 00000001     R   26580 25838
 =C'  '        2 0000495A 00000001     C   29114 26808
 =C'  '        2 00005BEE 00000001     C   35386 30716
 =C'  Please try again later.'
              25 000028FE 00000001     C   18240 17618
 =C' (Bias='
               7 00005C29 00000001     C   35400 31360
 =C' (Down)'
               7 00005C30 00000001     C   35401 31512
 =C' (Limit='
               8 00005B78 00000001     C   35357 31436
 =C' (Stopped)'
              10 00005BF6 00000001     C   35388 31549
 =C' (Subnet='
               9 00005C1E 00000001     C   35397 30985
 =C' -- '      4 00005BB0 00000001     C   35370 31787
 =C' '         1 00000F25 00000001     C    8891  8638
 =C' '         1 000049CA 00000001     C   29134 27639  27676  27756  27772  28646  28683  28720
 =C' '         1 00005C48 00000001     C   35403 31742
 =C' already exists.'
              16 00004E00 00000001     C   30548 29573
 =C' definition is incomplete.'
              26 00000E7C 00000001     C    8863  5269
 =C' does not exist.'
              16 00004E10 00000001     C   30549 30031
 =C' for '
               5 00004EB1 00000001     C   30566 29739
1ELF      (ELF2047) (12:35) (15MAR04) Ordinary Symbol and Literal Cross Reference                                           Page  196
 =C' is an invalid ELF PORT option'
              30 00000E98 00000001     C    8865  5760
 =C' max'      4 00005BA0 00000001     C   35366 30951
 =C' ports '
               7 000049B1 00000001     C   29129 26883
 =C' users'
               6 00005BF0 00000001     C   35387 30909
 =C' FLOWH='
               7 00000F16 00000001     C    8888  7186
 =C' FLOWL='
               7 00000F0F 00000001     C    8887  7148
 =C' MAX='
               5 00000F0A 00000001     C    8886  7110
 =C' Port '
               6 0000496A 00000001     C   29116 27084
 =C'.'         1 00000F26 00000001     C    8892  8682
 =C'.'         1 000020FC 00000001     C   15233 13923  13966  14009
 =C'.'         1 000049C8 00000001     C   29132 27239  28084
 =C'.'         1 00004EB6 00000001     C   30567 29844  29887  29930
 =C'.'         1 00005C27 00000001     C   35398 31028  31126  31224
 =C'('         1 00005C1C 00000001     C   35395 30797
 =C'(We are here!)'
              14 00003A92 00000001     C   24468 23756
 =C'** Invalid **'
              13 000049BB 00000001     C   29131 26953
 =C'** Not open **'
              14 0000495C 00000001     C   29115 26915
 =C')'         1 00005C1D 00000001     C   35396 30842  31322  31398  31474
 =C'------'
               6 0000498E 00000001     C   29122 28027
 =C'-'         1 00003AE0 00000001     C   24477 22442
 =C', '        2 0000499E 00000001     C   29126 28535
 =C', len='
               6 0000497A 00000001     C   29118 27434
 =C', max='
               6 00004980 00000001     C   29119 27502
 =C', read mark='
              12 00004930 00000001     C   29105 27468
 =C', Text='
               7 000049D8 00000001     C   29138 28412
 =C','         1 00002917 00000001     C   18241 17752
 =C','         1 000049CB 00000001     C   29135 28130
 =C': '        2 00001742 00000001     C   11920  9103
 =C': unrecognized SET ELF option.'
              30 00004E7C 00000001     C   30564 30456
 =C': unrecognized SHOW ELF option.'
              31 00005C4E 00000001     C   35405 31923
 =C'###'       3 00001753 00000001     C   11928 10091
 =C'#'         1 000049C9 00000001     C   29133 27300
 =C'"'         1 000049DF 00000001     C   29139 28779
 =C'front-end, '
              11 000049A6 00000001     C   29128 26849
 =C'invalid string.'
              15 00000EDA 00000001     C    8882  4358
 =C'login:'
               6 00003A72 00000001     C   24460 21225
 =C'x'         1 00005C28 00000001     C   35399 31063  31161  31259
 =C'ACCOUNT '
               8 000039E0 00000001     C   24425 21846
1ELF      (ELF2047) (12:35) (15MAR04) Ordinary Symbol and Literal Cross Reference                                           Page  197
 =C'AMYQ'      4 00000E44 00000001     C    8850  6708
 =C'AMYQ'      4 00006078 00000001     C   36948 36148  36576
 =C'AUTH_IDENTITY '
              14 00003A7A 00000001     C   24462 21788
 =C'AUTH_METHOD '
              12 00003A10 00000001     C   24436 21817
 =C'Bad numeric socket value'
              24 00000CE8 00000001     C    8809  4740
 =C'Buffer contents='
              16 00004900 00000001     C   29096 27602
 =C'CMD='      4 00004948 00000001     C   29109 28283
 =C'Done.'
               5 00005C49 00000001     C   35404 31875
 =C'EIB '      4 00005BBC 00000001     C   35373 32922
 =C'ELF_HOSTADDR '
              13 00003AA4 00000001     C   24471 21272
 =C'ELF_HOSTNAME '
              13 00003AB1 00000001     C   24472 21360
 =C'ELF0'      4 0000173C 00000001     C   11918 10801
 =C'ELF0'      4 00001AA0 00000001     C   13243 12152
 =C'ELF0'      4 00002D00 00000001     C   19652 19431
 =C'FEB'       3 00000F07 00000001     C    8885  6096   6364   7668   8438
 =C'FEB'       3 000049B8 00000001     C   29130 26942
 =C'FEB'       3 00006090 00000001     C   36956 35522
 =C'FREQ'      4 00000E48 00000001     C    8851  6717
 =C'Input buf='
              10 00004970 00000001     C   29117 27397
 =C'Invalid string'
              14 00000E6C 00000001     C    8861  4819
 =C'Invalid IP address.'
              19 00004EB7 00000001     C   30568 30188  30255  30337
 =C'IO'        2 0000499C 00000001     C   29125 28493
 =C'Length='
               7 000049D1 00000001     C   29137 28364  28502
 =C'Line '
               5 00000F20 00000001     C    8890  8585
 =C'LPORT='
               6 00000EBA 00000001     C    8868  7072
 =C'Missing IP=n.n.n.n for '
              23 00004E9A 00000001     C   30565 29636
 =C'Missing TCP socket number'
              25 00000EE9 00000001     C    8883  4703
 =C'MSG '      4 00000DDC 00000001     C    8826  4950
 =C'No ELF available.'
              17 00005C37 00000001     C   35402 31673
 =C'No ELF front-ends are currently available.'
              42 000028CE 00000001     C   18236 17601
 =C'OLDQ'      4 00006080 00000001     C   36950 36800
 =C'Port '
               5 00000F02 00000001     C    8884  5232
 =C'PASSWORD '
               9 00003AC7 00000001     C   24474 21906
 =C'PATH'      4 00001AAC 00000001     C   13246 12485
 =C'PATH'      4 00006064 00000001     C   36943 35914  36516
 =C'PIB'       3 00000F1D 00000001     C    8889  8382
 =C'PIB'       3 00002100 00000001     C   15235 14954  14989
 =C'PIB'       3 000024EE 00000001     C   16634 15362  15689  16116  16413
 =C'PIB'       3 00002D0A 00000001     C   19656 18646
 =C'PIB'       3 00006093 00000001     C   36957 35626
1ELF      (ELF2047) (12:35) (15MAR04) Ordinary Symbol and Literal Cross Reference                                           Page  198
 =C'PID '      4 00003A00 00000001     C   24432 21486
 =C'READ:'
               5 000049CC 00000001     C   29136 28252
 =C'Session:'
               8 000048F8 00000001     C   29095 27199
 =C'SCB'       3 000024FA 00000001     C   16636 15798
 =C'SETMSG'
               6 000049A0 00000001     C   29127 28770
 =C'SOCK'      4 00002CDC 00000001     C   19643 18771
 =C'SUBNET=n.n.n.n specifed without MASK=n.n.n.n'
              44 00004E38 00000001     C   30556 29722
 =C'SYSTEM '
               7 00003AD0 00000001     C   24475 21936
 =C'Testing BESTEIB...'
              18 00005C00 00000001     C   35389 31618
 =C'Trace:'
               6 00004986 00000001     C   29120 27791
 =C'TCP_ABORT:'
              10 00001B14 00000001     C   13269 13073
 =C'TCP_CLOSE:'
              10 00001B1E 00000001     C   13270 13108
 =C'TCP_CONNECT:'
              12 00001AD4 00000001     C   13254 12917
 =C'TCP_DATA:'
               9 00001B28 00000001     C   13271 12952
 =C'TCP_EOF:'
               8 00001A98 00000001     C   13242 13038
 =C'TCP_START:'
              10 00001B0A 00000001     C   13268 13003
 =C'TCP_STOP:'
               9 00001B31 00000001     C   13272 12989
 =C'TCP_STOP:'
               9 000024F1 00000001     C   16635 15716
 =C'TELNET_HOSTADDR '
              16 000039C0 00000001     C   24423 21574
 =C'TELNET_HOSTNAME '
              16 000039D0 00000001     C   24424 21662
 =C'TERM'      4 00004944 00000001     C   29108 28001
 =C'TERMTYPE '
               9 00003AD7 00000001     C   24476 21966
 =C'WRITE:'
               6 00004994 00000001     C   29123 28205
 =C'XACCOUNT '
               9 00003ABE 00000001     C   24473 21876
 =C'XEIB'      4 00005BC0 00000001     C   35374 33276
 =C'00000'
               5 00003AE1 00000001     C   24478 22487
 =CL(L'FEBINFO)'Opened'
              12 00001AB0 00000001     C   13247 12581
 =CL(L'FEBINFO)'Opening'
              12 00000E14 00000001     C    8840  6170
 =CL(L'FEBMSG)'Amelia path did not open.'
              64 00000D00 00000001     C    8810  6203
 =CL(L'FEBMSG)'Closed by gg.uuu'
              64 00000D60 00000001     C    8813  8155
 =CL16'TCP_ABORT:'
              16 00002CC0 00000001     C   19639 18966
 =CL16'TCP_ABORT:'
              16 000039A0 00000001     C   24421 20730
1ELF      (ELF2047) (12:35) (15MAR04) Ordinary Symbol and Literal Cross Reference                                           Page  199
 =CL16'TCP_ACCEPT:'
              16 00002090 00000001     C   15206 14158
 =CL16'TCP_CLOSE:'
              16 00001708 00000001     C   11909 10314  11756
 =CL16'TCP_CLOSE:'
              16 000024B8 00000001     C   16622 16486
 =CL16'TCP_CLOSE:'
              16 00002CB0 00000001     C   19638 18433  19058
 =CL16'TCP_CLOSE:'
              16 00002F38 00000001     C   20603 20474
 =CL16'TCP_CLOSE:'
              16 000039B0 00000001     C   24422 20822
 =CL16'TCP_END_LISTEN:'
              16 00000D50 00000001     C    8812  7460
 =CL16'TCP_EOF:'
              16 000016F8 00000001     C   11908 10222  11664
 =CL16'TCP_EOF:'
              16 00002CA0 00000001     C   19637 18341
 =CL16'TCP_INFO:'
              16 00000DA0 00000001     C    8814  8535
 =CL16'TCP_LISTEN:'
              16 00000D40 00000001     C    8811  7049
 =CL16'TCP_REJECT:'
              16 00002080 00000001     C   15205 13425
 =CL16'TCP_START:'
              16 00004208 00000001     C   26568 25881
 =CL16'TCP_STOP:'
              16 00002638 00000001     C   17155 16895
 =CL16'TCP_WRITE:'
              16 00006038 00000001     C   36937 35641
 =CL4'SOCK'
               4 00000DC8 00000001     C    8821  4777
 =CL8'AMELIA'
               8 00000CE0 00000001     C    8808  4393
 =CL8'IOREAD'
               8 00001A90 00000001     C   13241 12762
 =CL8'IORETRY'
               8 00006050 00000001     C   36939 36611
 =CL8'IOWRITE'
               8 00006048 00000001     C   36938 35983
 =CL8'TERMCMP1'
               8 00001718 00000001     C   11910 10489
 =CL8'TERMCMP2'
               8 000024B0 00000001     C   16621 15868
 =CL8'TERMCMP3'
               8 00004220 00000001     C   26570 26442
 =CL8'TERMDO'
               8 000016F0 00000001     C   11907  9011
 =CL8'TERMRCMP'
               8 00002F30 00000001     C   20602 20184
 =CL8'TERMRCMP'
               8 00004218 00000001     C   26569 26054
 =F'-1'        4 000028B0 00000001     F   18228 17571
 =F'-1'        4 00002CE0 00000001     F   19644 18897
 =F'20'        4 00006058 00000001     F   36940 35643
 =F'25'        4 0000493C 00000001     F   29106 27803
 =F'4096'      4 00000DB8 00000001     F    8817  4434   5132
 =F'9999999'
               4 00005BB4 00000001     F   35371 32459  32460
1ELF      (ELF2047) (12:35) (15MAR04) Ordinary Symbol and Literal Cross Reference                                           Page  200
 =H'-1'        2 00000EB8 00000001     H    8867  6507
 =H'-1'        2 000024EA 00000001     H   16632 15446
 =H'-4'        2 00000EC4 00000001     H    8871  7812
 =H'-8'        2 00000EC2 00000001     H    8870  7809
 =H'100'       2 00000EC0 00000001     H    8869  7752
 =H'2'         2 00003A90 00000001     H   24467 23384
 =H'250'       2 00005C16 00000001     H   35392 34187
 =H'256'       2 0000608A 00000001     H   36953 35743
 =H'6'         2 00003A78 00000001     H   24461 21235
 =H'80'        2 000020F4 00000001     H   15229 14517
 =H'80'        2 00002F66 00000001     H   20612 20159
 =V(BTD)       4 000020B0 00000001     V   15211 13850
 =V(DEQUOTE)
               4 00000DFC 00000001     V    8834  5578
 =V(DISCSESS)
               4 00000E2C 00000001     V    8844  6473
 =V(DISCSESS)
               4 000024DC 00000001     V   16628 16448
 =V(DISCSESS)
               4 00002CE4 00000001     V   19645 18946
 =V(DISCSESS)
               4 00002F58 00000001     V   20608 20436
 =V(DISCSESS)
               4 000039E8 00000001     V   24426 20707
 =V(DTB)       4 00000DC0 00000001     V    8819  4725
 =V(DTB)       4 00005BCC 00000001     V   35377 33522
 =V(FMTTIME)
               4 00004940 00000001     V   29107 27876
 =V(FREECORE)
               4 00000E34 00000001     V    8846  6545   6723
 =V(FREECORE)
               4 000024CC 00000001     V   16624 15484
 =V(FREECORE)
               4 00002650 00000001     V   17158 16789
 =V(FREECORE)
               4 00002CF8 00000001     V   19650 19345  19521
 =V(FREECORE)
               4 00004248 00000001     V   26579 25726
 =V(FREECORE)
               4 00005BC4 00000001     V   35375 33280
 =V(FREECORE)
               4 00006084 00000001     V   36951 36804
 =V(FREEPIB)
               4 00000E3C 00000001     V    8848  6587
 =V(FREEPIB)
               4 000024D4 00000001     V   16626 15526
 =V(FREESCB)
               4 00001734 00000001     V   11916 10438  11648
 =V(GETFEB)
               4 00000DB4 00000001     V    8816  4374
 =V(GETPIB)
               4 000020A8 00000001     V   15209 13596
 =V(GETSCB)
               4 000020D8 00000001     V   15221 14496
 =V(GETSCB)
               4 00002F48 00000001     V   20604 19833
 =V(GETSIN)
               4 00000DD4 00000001     V    8824  4879
 =V(GETTRC)
1ELF      (ELF2047) (12:35) (15MAR04) Ordinary Symbol and Literal Cross Reference                                           Page  201
               4 00000DBC 00000001     V    8818  4487
 =V(GETTRC)
               4 000020C0 00000001     V   15215 14139
 =V(INCRSES)
               4 000020DC 00000001     V   15222 14565
 =V(KILLSESS)
               4 0000425C 00000001     V   26584 26183
 =V(LOCALTOD)
               4 00000E20 00000001     V    8841  6173   6390
 =V(LRTRIM)
               4 00003A1C 00000001     V   24437 22022
 =V(NGETCORE)
               4 00000DC4 00000001     V    8820  4754   5074   5914
 =V(NGETCORE)
               4 0000264C 00000001     V   17157 16742
 =V(NGETCORE)
               4 00002CF4 00000001     V   19649 19298
 =V(NGETCORE)
               4 00005BB8 00000001     V   35372 32918
 =V(NGETCORE)
               4 00006074 00000001     V   36947 36132
 =V(PATHCLS)
               4 00000E40 00000001     V    8849  6611
 =V(PATHINIT)
               4 00000E04 00000001     V    8836  5872
 =V(PATHOPEN)
               4 00000E24 00000001     V    8842  6190
 =V(PATHRC)
               4 0000607C 00000001     V   36949 36257
 =V(PATHREAD)
               4 00001AC8 00000001     V   13251 12738
 =V(RTRIM)
               4 00003A24 00000001     V   24439 22087  22155  22243  22311  22472
 =V(RTRIM)
               4 00005B8C 00000001     V   35361 30775
 =V(SCAN)      4 00000DB0 00000001     V    8815  4342   4414   4688   4801   4922
 =V(SCAN)      4 00004E20 00000001     V   30550 29401  29506
 =V(SCAN)      4 00005B80 00000001     V   35358 30673
 =V(SCANTOK)
               4 000039F4 00000001     V   24429 21251  21280  21368  21494  21582  21670  21796  21825  21854  21884
                                                 21914  21944  21974
 =V(SCINIT)
               4 00000DD8 00000001     V    8825  4906
 =V(SCTELL)
               4 00000DE4 00000001     V    8828  4984
 =V(SEG)       4 00000DE8 00000001     V    8829  5010   5244   5756   7067   7084   7122   7160   7198   7478   7505
                                                  8553   8580   8597   8650   8677   8694   8721
 =V(SEG)       4 00001720 00000001     V   11911  9692   9762  10086  10103  10120  10240  10267  10332  10359  11506
                                                 11533  11682  11709  11774  11801
 =V(SEG)       4 00001AA4 00000001     V   13244 12185  12226  12254
 =V(SEG)       4 000020A0 00000001     V   15207 13443  13470  13935  13978  14021  14176  14203  14220  14247  14373
                                                 14453
 =V(SEG)       4 000024E0 00000001     V   16629 16504  16531
 =V(SEG)       4 00002660 00000001     V   17162 16913  16940
 =V(SEG)       4 000028B8 00000001     V   18230 17613  17630  17647  17713  17764  17900  18077  18106
 =V(SEG)       4 00002CD4 00000001     V   19641 18359  18386  18451  18478  18842  18859  18984  19011  19076  19103
                                                 19381
 =V(SEG)       4 00002F5C 00000001     V   20609 20492  20519
 =V(SEG)       4 000039EC 00000001     V   24427 20748  20775  20840  20867  22454  22510  23074  23190  23262  23714
1ELF      (ELF2047) (12:35) (15MAR04) Ordinary Symbol and Literal Cross Reference                                           Page  202
                                                 23783  23803  23823  23900  24066  24095  24167
 =V(SEG)       4 00004238 00000001     V   26575 25384  25444  25899  25926
 =V(SEG)       4 00004918 00000001     V   29099 26818  26859  27094  27234  27249  27274  27310  27392  27407  27444
                                                 27478  27512  27597  27612  27649  27686  28037  28079  28094  28121
                                                 28140  28215  28262  28293  28374  28422  28512  28545  28570  28619
                                                 28656  28693  28730  28789
 =V(SEG)       4 00004E30 00000001     V   30554 29585  29648  29734  29751  29856  29899  29942  30043  30451  30468
 =V(SEG)       4 00005B84 00000001     V   35359 30728  30809  30854  30921  30963  30997  31040  31075  31138  31173
                                                 31236  31271  31334  31372  31410  31448  31486  31524  31561  31630
                                                 31685  31754  31799  31918  31935  33919  34110  34360  34468  34691
                                                 34727  34981  35112  35251  35299
 =V(SEGB)      4 00004924 00000001     V   29102 26893  26925  26963  27138  27164  27209  27898  27961  27987  28181
                                                 28346
 =V(SEGCLR)
               4 00000E4C 00000001     V    8852  6977   8520
 =V(SEGCLR)
               4 00001730 00000001     V   11915 10207
 =V(SEGCLR)
               4 000020E8 00000001     V   15225 14716
 =V(SEGCLR)
               4 0000265C 00000001     V   17161 16880
 =V(SEGCLR)
               4 00002CD0 00000001     V   19640 18326  18684  18812
 =V(SEGCLR)
               4 00003A48 00000001     V   24448 23289  23741
 =V(SEGCLR)
               4 00004250 00000001     V   26581 25866
 =V(SEGCLR)
               4 00005BE4 00000001     V   35383 34568
 =V(SEGCOL)
               4 0000492C 00000001     V   29104 27057
 =V(SEGCOL)
               4 00005B98 00000001     V   35364 30879  34017  34588
 =V(SEGCR)
               4 00000DEC 00000001     V    8830  5034
 =V(SEGDC)
               4 00000DF0 00000001     V    8831  5265   7105   7143   7181   7219   8617
 =V(SEGDC)
               4 000020B8 00000001     V   15213 13918  13961  14004  14047
 =V(SEGDC)
               4 000028C4 00000001     V   18233 17800  17852
 =V(SEGDC)
               4 00004920 00000001     V   29101 26877  27116  27329  27463  27497  27531  28159  28393  28530
 =V(SEGDC)
               4 00004E68 00000001     V   30558 29839  29882  29925  29968
 =V(SEGDC)
               4 00005B9C 00000001     V   35365 30904  30946  31023  31117  31215  31313  31393  31469
 =V(SEGHX)
               4 00004914 00000001     V   29098 26803  27079  27429  27634  27671  27708  28320  28641  28678  28715
                                                 28752
 =V(SEGHX)
               4 00005BAC 00000001     V   35369 31737
 =V(SEGINIT)
               4 00000DD0 00000001     V    8823  4866   5937
 =V(SEGINIT)
               4 000020B4 00000001     V   15212 13892  14642
 =V(SEGINIT)
               4 00003A30 00000001     V   24442 22409
 =V(SEGINIT)
1ELF      (ELF2047) (12:35) (15MAR04) Ordinary Symbol and Literal Cross Reference                                           Page  203
               4 00004E64 00000001     V   30557 29813
 =V(SEGINIT)
               4 00005BD8 00000001     V   35380 33876
 =V(SEGINITR)
               4 00000E10 00000001     V    8839  5954
 =V(SEGT)      4 000020E0 00000001     V   15223 14670
 =V(SEGT)      4 000028C0 00000001     V   18232 17747
 =V(SEGT)      4 00003A34 00000001     V   24443 22437  22542
 =V(SEGT)      4 00004950 00000001     V   29111 28467  28815
 =V(SEGT)      4 00004E2C 00000001     V   30553 29568  29676  29779  30026
 =V(SEGT)      4 00005B94 00000001     V   35363 30837  31782  31827
 =V(SEGTB)
               4 0000491C 00000001     V   29100 26844
 =V(SEGTB)
               4 00005B88 00000001     V   35360 30756
 =V(SEGWR)
               4 00000DCC 00000001     V    8822  4831   7243   7529   8749
 =V(SEGWR)
               4 00001728 00000001     V   11913  9859  10144  10291  10383  11612  11733  11825
 =V(SEGWR)
               4 00001AA8 00000001     V   13245 12279
 =V(SEGWR)
               4 000020A4 00000001     V   15208 13494  14271  14397  14477  14757
 =V(SEGWR)
               4 000024E4 00000001     V   16630 16555
 =V(SEGWR)
               4 00002664 00000001     V   17163 16964
 =V(SEGWR)
               4 000028C8 00000001     V   18234 18187
 =V(SEGWR)
               4 00002CD8 00000001     V   19642 18410  18502  18890  19035  19127
 =V(SEGWR)
               4 00002F60 00000001     V   20610 20543
 =V(SEGWR)
               4 000039F0 00000001     V   24428 20799  20891  24214
 =V(SEGWR)
               4 00004254 00000001     V   26582 25950  26230
 =V(SEGWR)
               4 00004928 00000001     V   29103 26989  27364  27553  27730  27766  27782  27801  28592  28842
 =V(SEGWR)
               4 00004E34 00000001     V   30555 29609  30200  30267  30349  30492
 =V(SEGWR)
               4 00005BA4 00000001     V   35367 31589  31861  31887  31959
 =V(SUBSEND)
               4 00001738 00000001     V   11917 10561
 =V(SUBSEND)
               4 000024D8 00000001     V   16627 15940
 =V(SUBSEND)
               4 00002F54 00000001     V   20607 20294
 =V(SUBSEND)
               4 00004258 00000001     V   26583 26125  26514
 =V(SUBSTART)
               4 000020E4 00000001     V   15224 14684
 =V(SUBSTART)
               4 00002F50 00000001     V   20606 20274
 =V(TIMERDQ)
               4 00000E38 00000001     V    8847  6577
 =V(TIMERDQ)
               4 000024D0 00000001     V   16625 15516
1ELF      (ELF2047) (12:35) (15MAR04) Ordinary Symbol and Literal Cross Reference                                           Page  204
 =V(TIMERQ)
               4 000020CC 00000001     V   15218 14333
 =V(TIMERQ)
               4 00002CEC 00000001     V   19647 19155
 =V(TOEBCDIC)
               4 00003A60 00000001     V   24454 23591  23597
 =V(UNGETSIN)
               4 00000DE0 00000001     V    8827  4958
 =X'FF'        1 00003AEC 00000001     X   24483 24157
 =X'FFFF'      2 00005C1A 00000001     X   35394 35274
 =X'0D25'      2 00001746 00000001     X   11922 10108
 =X'0D25'      2 000028F8 00000001     X   18237 17635
 =X'0D25'      2 00002D08 00000001     X   19655 18847
 =X'0D25'      2 00005C18 00000001     X   35393 35226
 =X'0000'      2 000020F2 00000001     X   15228 14208
 =X'05'        1 00005C6D 00000001     X   35406 34715
 =X'08'        1 00003AE7 00000001     X   24480 23793
 =X'11'        1 00005C6E 00000001     X   35407 35102
 =X'18'        1 00003AE8 00000001     X   24481 23813
 =X'2A2A2A0D0A'
               5 00004268 00000001     X   26589 25372
 =X'2F'        1 00001752 00000001     X   11927 10074
 =X'8188'      2 000020F6 00000001     X   15230 14519
 =X'8188'      2 00002F68 00000001     X   20613 20160
 =Y(0+((L'HDR+3)/4*4)+4)
               2 00001B04 00000001     Y   13265 12126
 =Y(0+((L'PINFO+3)/4*4)+4)
               2 00001B02 00000001     Y   13264 12013
 =Y(0+((L'TPWA+3)/4*4)+4)
               2 00001B08 00000001     Y   13267 12418
 =Y(0+((32+3)/4*4)+4)
               2 0000498C 00000001     Y   29121 27869
 =Y(0+4+20+4)
               2 00003AA2 00000001     Y   24470 24334
 =Y(0+4+4+4)
               2 00000E96 00000001     Y    8864  5408   5553
 =Y(0+4+4)
               2 00000E7A 00000001     Y    8862  5067
 =Y(0+4+40+((L'ASQWA+3)/4*4)+4)
               2 0000608E 00000001     Y   36955 36457
 =Y(0+4+40+((L'ELFWA+3)/4*4)+4)
               2 00000EB6 00000001     Y    8866  6051   6311   6884   7340
 =Y(0+4+40+((L'ESPWA+3)/4*4)+4)
               2 00003A6E 00000001     Y   24458 21102
 =Y(0+4+40+((L'FEIBWA+3)/4*4)+4)
               2 00005C12 00000001     Y   35390 32432
 =Y(0+4+40+((L'HDR+3)/4*4)+4)
               2 00001748 00000001     Y   11923 10725
 =Y(0+4+40+((L'IACWA+3)/4*4)+4)
               2 00003A8C 00000001     Y   24465 22965
 =Y(0+4+40+((L'INWA+3)/4*4)+4)
               2 00005C14 00000001     Y   35391 33787
 =Y(0+4+40+((L'PSGWA+3)/4*4)+4)
               2 00006088 00000001     Y   36952 35470
 =Y(0+4+40+((L'RCHKWA+3)/4*4)+4)
               2 00004260 00000001     Y   26585 24553
 =Y(0+4+40+((L'RTMWA+3)/4*4)+4)
               2 00002D06 00000001     Y   19654 18601
 =Y(0+4+40+((L'SETEWA+3)/4*4)+4)
1ELF      (ELF2047) (12:35) (15MAR04) Ordinary Symbol and Literal Cross Reference                                           Page  205
               2 00004E78 00000001     Y   30562 29312
 =Y(0+4+40+((L'TPORTWA+3)/4*4)+4)
               2 00000E6A 00000001     Y    8860  4623
 =Y(0+4+40+4)
               2 00000E68 00000001     Y    8859  4301   5842   7632   8316
 =Y(0+4+40+4)
               2 00001740 00000001     Y   11919  8935   9312  10657
 =Y(0+4+40+4)
               2 00001B00 00000001     Y   13263 11966  12406
 =Y(0+4+40+4)
               2 000020F0 00000001     Y   15227 13313  14867
 =Y(0+4+40+4)
               2 000024E8 00000001     Y   16631 15274  15601  16028  16325
 =Y(0+4+40+4)
               2 0000266C 00000001     Y   17165 16676  17066
 =Y(0+4+40+4)
               2 000028CC 00000001     Y   18235 17206
 =Y(0+4+40+4)
               2 00002D04 00000001     Y   19653 18281  19232
 =Y(0+4+40+4)
               2 00002F64 00000001     Y   20611 19700  20383
 =Y(0+4+40+4)
               2 00003A6C 00000001     Y   24457 20654  22824
 =Y(0+4+40+4)
               2 00004266 00000001     Y   26588 26342
 =Y(0+4+40+4)
               2 00004958 00000001     Y   29113 26633  26744  28950  29054
 =Y(0+4+40+4)
               2 00005BEC 00000001     Y   35385 30615  32035  32171  32888  33039  33352  34812
 =Y(0+8+4)
               2 00004E7A 00000001     Y   30563 30151  30218  30300

1ELF      (ELF2047) (12:35) (15MAR04) Macro and Copy Code Source Summary                                                    Page  206
- Con Source                                        Volume    Members                        HLASM R4.0  2004/03/15 12.35
0     PRIMARY INPUT                                           CSECT    DROP     END      EX       LTORG    POP
                                                              PRINT    PUSH     START    USING
   L1 WYL.GS.MIL.MILTEN.MACLIB                      SYSB05    BTD      COMMENT  CV       DTB      FAIL     FEB
                                                              MILPATH  PEND     PIB      POP      PROC     PUSH     REG
                                                              SCAN     SCANCB   SCB      SCINIT   SCKW     SCTELL
                                                              STKDEF   SUBPOOLS TBL      XPOP     XPROC    XPUSH
                                                              XTRACE
   L2 WYL.GG.SYS.MACLIB                             SYSB05    $BC      $BFLKUP  $BV      $CCLKUP  $CRS     $CSS     $L
                                                              $LA      $LBLAD   $LEXP    $LOR     $NIL     $REL
                                                              $RGLKUP  $USLKUP  ACALL    BEGIN    CEIL     CLEAR
                                                              CSECT    DATA     DECR     DEFCC    DEX      DROP     DTEX
                                                              ELSE     ELSEIF   END      EX       EXIT     FLAG
                                                              FLOOR    GEN      HIBAL    IDENT    IF       INCR
                                                              LABEL    LC       LCALL    LCM      LOOP     LPROC    LS
                                                              LT       LTH      LTORG    L2       L4       MOVE
                                                              MOVEL    PRINT    QLTORG   RECORD   REGS     SET
                                                              SETMSG   START    ST3      SYSLR    TDEX     UNTIL
                                                              USING    VCALL    WHILE    WITH
   L3 SYS3.IS.MACLIB                                SYSB05    DEFINE   ELFTRC   FDB      MIB      PDB      SEG      SEGB
                                                              SEGCB    SEGCLR   SEGCOL   SEGCR    SEGDC    SEGDEF
                                                              SEGHX    SEGINIT  SEGLD    SEGT     SEGTB    SEGWR    SIB
   L4 SYS3.MACLIB                                   SYSB02    PATH     SCOM
   L5 SYS1.MACLIB                                   MVSBR9    WTO

1ELF      (ELF2047) (12:35) (15MAR04) Dsect Cross Reference                                                                 Page  207
-Dsect     Length      Id       Defn                                                         HLASM R4.0  2004/03/15 12.35
0$$$@R0   00000000  FFFFFFFE     712
 $$$@R1   00000000  FFFFFFFD     725
 $$$@R10  00000000  FFFFFFF4     842
 $$$@R11  00000000  FFFFFFF3     855
 $$$@R12  00000000  FFFFFFF2     868
 $$$@R13  0000004C  FFFFFFF1     881
 $$$@R14  00000000  FFFFFFF0     894
 $$$@R15  00000000  FFFFFFEF     907
 $$$@R2   00000000  FFFFFFFC     738
 $$$@R3   00000000  FFFFFFFB     751
 $$$@R4   00000000  FFFFFFFA     764
 $$$@R5   00000000  FFFFFFF9     777
 $$$@R6   00000000  FFFFFFF8     790
 $$$@R7   00000000  FFFFFFF7     803
 $$$@R8   00000000  FFFFFFF6     816
 $$$@R9   00000000  FFFFFFF5     829
 $$$RAMYQ 0000000C  FFFFFFE0    4240
 $$$RASQWA
          00000008  FFFFFFD4   36411
 $$$REIB  00000049  FFFFFFE1    4189
 $$$RELFWA
          00000028  FFFFFFDE    5994
 $$$RESPWA
          000001E0  FFFFFFDB   20956
 $$$RFDB  00000010  FFFFFFEC    1856
 $$$RFEB  000001A4  FFFFFFE7    3057
 $$$RFEIBWA
          00000014  FFFFFFD7   32381
 $$$RHDR  00000014  FFFFFFE6    3314
 $$$RIACWA
          000000F3  FFFFFFDA   22919
 $$$RINWA 00000048  FFFFFFD6   33639
 $$$RPDB  00000038  FFFFFFED    1644
 $$$RPIB  00000150  FFFFFFE3    3623
 $$$RPINFO
          00000014  FFFFFFE4    3602
 $$$RPSGWA
          00000008  FFFFFFD5   35424
 $$$RRCHKWA
          00000001  FFFFFFD9   24500
 $$$RRTMWA
          00000028  FFFFFFDC   18556
 $$$RSCANCB
          00000020  FFFFFFEA    2735
 $$$RSCB  000001B2  FFFFFFEB    1970
 $$$RSEGCB
          0000003C  FFFFFFE9    2767
 $$$RSETEWA
          00000090  FFFFFFD8   29160
 $$$RSOCK 000000FC  FFFFFFE5    3473
 $$$RTPORTWA
          00000BF4  FFFFFFDF    4575
 $$$RTPWA 0000008C  FFFFFFDD   12342
 $$$RTTRC 00000048  FFFFFFE2    4127
 $$$RUPATH
1ELF      (ELF2047) (12:35) (15MAR04) Dsect Cross Reference                                                                 Page  208
          0000007C  FFFFFFE8    2930
 CVDSECT  00000778  FFFFFFEE    1176
 HIBAL    00000000  FFFFFFFF     698

1ELF      (ELF2047) (12:35) (15MAR04) Using Map                                                                             Page  209
-                                                                                            HLASM R4.0  2004/03/15 12.35
   Stmt  -----Location----- Action ----------------Using----------------- Reg Max    Last  Label and Using Text
           Count      Id           Type          Value    Range     Id        Disp   Stmt
0   929  00000000  FFFFFFFF USING  ORDINARY    00000000 00001000 FFFFFFEF  15 000    1625  @R15,15
    933  00000000  FFFFFFFF USING  ORDINARY    00000000 00001000 FFFFFFF0  14 000          @R14,14
    937  00000000  FFFFFFFF USING  ORDINARY    00000000 00001000 FFFFFFF1  13 000          @R13,13
    941  00000000  FFFFFFFF USING  ORDINARY    00000000 00001000 FFFFFFF2  12 000          @R12,12
    945  00000000  FFFFFFFF USING  ORDINARY    00000000 00001000 FFFFFFF3  11 000          @R11,11
    949  00000000  FFFFFFFF USING  ORDINARY    00000000 00001000 FFFFFFF4  10 000          @R10,10
    953  00000000  FFFFFFFF USING  ORDINARY    00000000 00001000 FFFFFFF5   9 000          @R9,9
    957  00000000  FFFFFFFF USING  ORDINARY    00000000 00001000 FFFFFFF6   8 000          @R8,8
    961  00000000  FFFFFFFF USING  ORDINARY    00000000 00001000 FFFFFFF7   7 000          @R7,7
    965  00000000  FFFFFFFF USING  ORDINARY    00000000 00001000 FFFFFFF8   6 001    6599  @R6,6
    969  00000000  FFFFFFFF USING  ORDINARY    00000000 00001000 FFFFFFF9   5 000          @R5,5
    973  00000000  FFFFFFFF USING  ORDINARY    00000000 00001000 FFFFFFFA   4 001   13516  @R4,4
    977  00000000  FFFFFFFF USING  ORDINARY    00000000 00001000 FFFFFFFB   3 000          @R3,3
    981  00000000  FFFFFFFF USING  ORDINARY    00000000 00001000 FFFFFFFC   2 000          @R2,2
    985  00000000  FFFFFFFF USING  ORDINARY    00000000 00001000 FFFFFFFD   1 014   11564  @R1,1
    989  00000000  FFFFFFFF USING  ORDINARY    00000000 00001000 FFFFFFFE   0 000          @R0,0
    990  00000000  FFFFFFFF DROP                                            0              0
   1189  00000000  FFFFFFEE USING  ORDINARY    00000000 00001000 FFFFFFEE  12 758   36610  CV,CVR
   4297  00000020  00000001 USING  ORDINARY    00000020 00001000 00000001   8 EBA    4497  $$$55B,BR
   4321  00000032  00000001 USING  ORDINARY    00000000 00001000 FFFFFFEA   7 004    4525  SCANCB,R7
   4385  0000005C  00000001 USING  ORDINARY    00000000 00001000 FFFFFFE7  11 188    4525  FEB,FEBR
   4534  0000012C  00000001 USING  ORDINARY    00000000 00001000 FFFFFFF3  11 000          @R11,11
   4539  0000012C  00000001 USING  ORDINARY    00000000 00001000 FFFFFFF7   7 000          @R7,7
   4544  0000012C  00000001 USING  ORDINARY    00000000 00001000 FFFFFFF6   8 000          @R8,8
   4619  0000014A  00000001 USING  ORDINARY    0000014A 00001000 00000001   8 DE4    5763  $$$62B,BR
   4638  0000015A  00000001 USING  ORDINARY    FFFFFFB4 00001000 FFFFFFDF  13 088    5106  TPORTWA-@@,R13
   4652  0000015C  00000001 USING  ORDINARY    00000000 00001000 FFFFFFEA   7 000    5731  SCANCB,R7
   4665  0000015E  00000001 USING  ORDINARY    00000000 00001000 FFFFFFE7  11 188    5280  FEB,FEBR
   4766  000001A8  00000001 USING  ORDINARY    00000000 00001000 FFFFFFE5   5 0F8    5250  SOCK,R5
   4934  00000214  00000001 USING  ORDINARY    00000000 00001000 FFFFFFEA  15 004    4950  SCANCB,R15
   4971  00000228  00000001 USING  ORDINARY    00000000 00001000 FFFFFFEF  15 000    5655  @R15,15
   5295  00000314  00000001 USING  ORDINARY    00000000 00001000 FFFFFFF9   5 000          @R5,5
   5298  00000314  00000001 USING  ORDINARY    00000000 00001000 FFFFFFE5   3 004    5315  SOCK,R3
   5338  00000324  00000001 USING  ORDINARY    00000000 00001000 FFFFFFE5   5 02D    5731  SOCK,5
   5343  00000324  00000001 USING  ORDINARY    00000000 00001000 FFFFFFFB   3 000          @R3,3
   5419  000003E8  00000001 USING  ORDINARY    00000000 00001000 FFFFFFF1  13 000          @R13,R13
   5772  000004F4  00000001 USING  ORDINARY    00000000 00001000 FFFFFFF9   5 000          @R5,5
   5777  000004F4  00000001 USING  ORDINARY    00000000 00001000 FFFFFFF3  11 000          @R11,11
   5782  000004F4  00000001 USING  ORDINARY    00000000 00001000 FFFFFFF7   7 000    6424  @R7,7
   5789  000004F4  00000001 USING  ORDINARY    00000000 00001000 FFFFFFF6   8 000          @R8,8
   5838  00000512  00000001 USING  ORDINARY    00000512 00001000 00000001   8 956    5954  $$$94B,BR
   5861  00000524  00000001 USING  ORDINARY    00000000 00001000 FFFFFFE7  11 178    5965  FEB,FEBR
   5885  00000532  00000001 USING  ORDINARY    00000000 00001000 FFFFFFE8   2 020    5898  UPATH,R2
   5905  00000542  00000001 USING  ORDINARY    00000000 00001000 FFFFFFFC   2 048   12663  @R2,2
   5972  0000056E  00000001 USING  ORDINARY    00000000 00001000 FFFFFFF3  11 000          @R11,11
   5977  0000056E  00000001 USING  ORDINARY    00000000 00001000 FFFFFFF6   8 000          @R8,8
   6047  0000058C  00000001 USING  ORDINARY    0000058C 00001000 00000001   8 97B    6236  $$$98B,BR
   6066  0000059C  00000001 USING  ORDINARY    FFFFFFB4 00001000 FFFFFFDE  13 04C    6243  ELFWA-@@,R13
   6079  0000059E  00000001 USING  ORDINARY    00000000 00001000 FFFFFFE7  11 0C0    6233  FEB,FEBR
   6250  00000634  00000001 USING  ORDINARY    00000000 00001000 FFFFFFF3  11 000          @R11,11
   6255  00000634  00000001 USING  ORDINARY    00000000 00001000 FFFFFFF1  13 000          @R13,13
   6260  00000634  00000001 USING  ORDINARY    00000000 00001000 FFFFFFF6   8 000          @R8,8
   6307  00000652  00000001 USING  ORDINARY    00000652 00001000 00000001   8 8B5    6781  $$$106B,BR
1ELF      (ELF2047) (12:35) (15MAR04) Using Map                                                                             Page  210
   6326  00000662  00000001 USING  ORDINARY    FFFFFFB4 00001000 FFFFFFDE  13 04C    6819  ELFWA-@@,R13
   6347  0000066A  00000001 USING  ORDINARY    00000000 00001000 FFFFFFE7  11 1A0    6817  FEB,FEBR
   6445  000006BC  00000001 USING  ORDINARY    00000000 00001000 FFFFFFE3  10 120    6584  PIB,PIBR
   6594  0000072C  00000001 USING  ORDINARY    00000000 00001000 FFFFFFF4  10 000    7968  @R10,10
   6623  00000742  00000001 USING  ORDINARY    00000000 00001000 FFFFFFE8   5 040    6641  UPATH,R5
   6648  0000074A  00000001 USING  ORDINARY    00000000 00001000 FFFFFFF9   5 000          @R5,5
   6692  00000760  00000001 USING  ORDINARY    00000000 00001000 FFFFFFE0   5 004    6720  AMYQ,R5
   6730  0000077E  00000001 USING  ORDINARY    00000000 00001000 FFFFFFF9   5 000          @R5,5
   6748  00000786  00000001 USING  ORDINARY    00000000 00001000 FFFFFFE5   3 009    6777  SOCK,R3
   6789  00000798  00000001 USING  ORDINARY    00000000 00001000 FFFFFFFB   3 000          @R3,3
   6826  000007AC  00000001 USING  ORDINARY    00000000 00001000 FFFFFFF3  11 000          @R11,11
   6831  000007AC  00000001 USING  ORDINARY    00000000 00001000 FFFFFFF1  13 000          @R13,13
   6836  000007AC  00000001 USING  ORDINARY    00000000 00001000 FFFFFFF6   8 000          @R8,8
   6880  000007CA  00000001 USING  ORDINARY    000007CA 00001000 00000001   8 74C    7259  $$$123B,BR
   6899  000007DA  00000001 USING  ORDINARY    FFFFFFB4 00001000 FFFFFFDE  13 04C    7270  ELFWA-@@,R13
   6919  000007E0  00000001 USING  ORDINARY    00000000 00001000 FFFFFFE7  11 17C    7251  FEB,FEBR
   6943  000007F4  00000001 USING  ORDINARY    00000000 00001000 FFFFFFE8   5 004    6956  UPATH,R5
   6992  0000080A  00000001 USING  ORDINARY    00000000 00001000 FFFFFFE5   3 01C    7204  SOCK,R3
   7267  000008D2  00000001 USING  ORDINARY    00000000 00001000 FFFFFFFB   3 000          @R3,3
   7277  000008D8  00000001 USING  ORDINARY    00000000 00001000 FFFFFFF9   5 000          @R5,5
   7282  000008D8  00000001 USING  ORDINARY    00000000 00001000 FFFFFFF3  11 000          @R11,11
   7287  000008D8  00000001 USING  ORDINARY    00000000 00001000 FFFFFFF1  13 000          @R13,13
   7292  000008D8  00000001 USING  ORDINARY    00000000 00001000 FFFFFFF6   8 000          @R8,8
   7336  000008F6  00000001 USING  ORDINARY    000008F6 00001000 00000001   8 5C0    7545  $$$130B,BR
   7355  00000906  00000001 USING  ORDINARY    FFFFFFB4 00001000 FFFFFFDE  13 04C    7556  ELFWA-@@,R13
   7375  0000090C  00000001 USING  ORDINARY    00000000 00001000 FFFFFFE7  11 17C    7537  FEB,FEBR
   7402  00000920  00000001 USING  ORDINARY    00000000 00001000 FFFFFFE5   3 010    7489  SOCK,R3
   7553  00000972  00000001 USING  ORDINARY    00000000 00001000 FFFFFFFB   3 000    8025  @R3,3
   7563  00000978  00000001 USING  ORDINARY    00000000 00001000 FFFFFFF3  11 000          @R11,11
   7568  00000978  00000001 USING  ORDINARY    00000000 00001000 FFFFFFF1  13 000          @R13,13
   7573  00000978  00000001 USING  ORDINARY    00000000 00001000 FFFFFFF6   8 000          @R8,8
   7628  00000996  00000001 USING  ORDINARY    00000996 00001000 00000001   8 571    8241  $$$136B,BR
   7651  000009A8  00000001 USING  ORDINARY    00000000 00001000 FFFFFFE7  11 0A0    8203  FEB,FEBR
   7691  000009C4  00000001 USING  ORDINARY    00000000 00001000 FFFFFFED   7 038    8232  PDB,R7
   7706  000009C8  00000001 USING  ORDINARY    00000000 00001000 FFFFFFEC   6 010    8149  FDB,R6
   7986  00000AB8  00000001 USING  ORDINARY    00000000 00001000 FFFFFFE3  10 094    8038  PIB,PIBR
   8055  00000AF2  00000001 USING  ORDINARY    00000000 00001000 FFFFFFF4  10 000          @R10,10
   8166  00000B40  00000001 USING  ORDINARY    00000000 00001000 FFFFFFEB  15 136    8189  SCB,R15
   8200  00000B5A  00000001 USING  ORDINARY    00000000 00001000 FFFFFFEF  15 008    9011  @R15,15
   8251  00000B7A  00000001 USING  ORDINARY    00000000 00001000 FFFFFFF8   6 000          @R6,6
   8256  00000B7A  00000001 USING  ORDINARY    00000000 00001000 FFFFFFF7   7 000          @R7,7
   8261  00000B7A  00000001 USING  ORDINARY    00000000 00001000 FFFFFFF3  11 000          @R11,11
   8266  00000B7A  00000001 USING  ORDINARY    00000000 00001000 FFFFFFF6   8 000          @R8,8
   8312  00000B98  00000001 USING  ORDINARY    00000B98 00001000 00000001   8 38E    8749  $$$161B,BR
   8335  00000BAA  00000001 USING  ORDINARY    00000000 00001000 FFFFFFEB   9 198    8759  SCB,SCBR
   8365  00000BB4  00000001 USING  ORDINARY    00000000 00001000 FFFFFFE3  10 0FC    8759  PIB,PIBR
   8421  00000BD8  00000001 USING  ORDINARY    00000000 00001000 FFFFFFE7  11 13C    8757  FEB,FEBR
   8771  00000CCA  00000001 USING  ORDINARY    00000000 00001000 FFFFFFF3  11 000          @R11,11
   8776  00000CCA  00000001 USING  ORDINARY    00000000 00001000 FFFFFFF4  10 000          @R10,10
   8781  00000CCA  00000001 USING  ORDINARY    00000000 00001000 FFFFFFF5   9 000          @R9,9
   8786  00000CCA  00000001 USING  ORDINARY    00000000 00001000 FFFFFFF6   8 000          @R8,8
   8931  00000F3E  00000001 USING  ORDINARY    00000F3E 00001000 00000001   8 804    9224  $$$173B,BR
   8954  00000F50  00000001 USING  ORDINARY    00000000 00001000 FFFFFFEB   9 124    9120  SCB,SCBR
   8967  00000F54  00000001 USING  ORDINARY    00000000 00001000 FFFFFFE3  10 0A0    9206  PIB,PIBR
   8980  00000F58  00000001 USING  ORDINARY    00000000 00001000 FFFFFFE7  11 09C    9008  FEB,FEBR
   8994  00000F5A  00000001 USING  ORDINARY    00000000 00001000 FFFFFFED   7 038    9113  PDB,R7
   9021  00000F68  00000001 USING  ORDINARY    00000000 00001000 FFFFFFE2  15 026    9031  TTRC,R15
   9038  00000F8C  00000001 USING  ORDINARY    00000000 00001000 FFFFFFEF  15 000          @R15,15
   9060  00000F94  00000001 USING  ORDINARY    00000000 00001000 FFFFFFE2  15 00C    9074  TTRCP,R15
1ELF      (ELF2047) (12:35) (15MAR04) Using Map                                                                             Page  211
   9081  00000FAA  00000001 USING  ORDINARY    00000000 00001000 FFFFFFEF  15 008   10489  @R15,15
   9247  00001020  00000001 USING  ORDINARY    00000000 00001000 FFFFFFF7   7 000          @R7,7
   9252  00001020  00000001 USING  ORDINARY    00000000 00001000 FFFFFFF3  11 000          @R11,11
   9257  00001020  00000001 USING  ORDINARY    00000000 00001000 FFFFFFF4  10 000          @R10,10
   9262  00001020  00000001 USING  ORDINARY    00000000 00001000 FFFFFFF5   9 000          @R9,9
   9267  00001020  00000001 USING  ORDINARY    00000000 00001000 FFFFFFF6   8 000          @R8,8
   9308  0000103E  00000001 USING  ORDINARY    0000103E 00001000 00000001   8 715   10561  $$$186B,BR
   9330  0000104E  00000001 USING  ORDINARY    00000000 00001000 FFFFFFE7  11 148   10486  FEB,FEBR
   9339  0000104E  00000001 USING  ORDINARY    00000000 00001000 FFFFFFE3  10 120   10527  PIB,PIBR
   9348  0000104E  00000001 USING  ORDINARY    00000000 00001000 FFFFFFEB   9 124   10557  SCB,SCBR
   9358  0000104E  00000001 USING  ORDINARY    00000000 00001000 FFFFFFED   7 00A    9447  PDB,R7
   9468  00001076  00000001 USING  ORDINARY    00000000 00001000 FFFFFFF7   7 000          @R7,7
   9471  00001076  00000001 USING  ORDINARY    00000000 00001000 FFFFFFED   5 00D    9497  PDB,R5
   9508  00001094  00000001 USING  ORDINARY    00000000 00001000 FFFFFFED   7 038   10187  PDB,7
   9513  00001094  00000001 USING  ORDINARY    00000000 00001000 FFFFFFF9   5 000          @R5,5
  10460  000012B6  00000001 USING  ORDINARY    00000000 00001000 FFFFFFF7   7 000          @R7,7
  10463  000012B6  00000001 USING  ORDINARY    00000000 00001000 FFFFFFED   5 038   10558  PDB,R5
  10499  000012D6  00000001 USING  ORDINARY    00000000 00001000 FFFFFFE2  15 026   10510  TTRC,R15
  10517  00001300  00000001 USING  ORDINARY    00000000 00001000 FFFFFFEF  15 000          @R15,15
  10539  00001308  00000001 USING  ORDINARY    00000000 00001000 FFFFFFE2  15 00C   10547  TTRCP,R15
  10554  0000131E  00000001 USING  ORDINARY    00000000 00001000 FFFFFFEF  15 008   12762  @R15,15
  10572  0000132C  00000001 USING  ORDINARY    00000000 00001000 FFFFFFED   7 000          PDB,7
  10577  0000132C  00000001 USING  ORDINARY    00000000 00001000 FFFFFFF9   5 000          @R5,5
  10589  0000132C  00000001 USING  ORDINARY    00000000 00001000 FFFFFFF7   7 000          @R7,7
  10594  0000132C  00000001 USING  ORDINARY    00000000 00001000 FFFFFFF5   9 000          @R9,9
  10599  0000132C  00000001 USING  ORDINARY    00000000 00001000 FFFFFFF4  10 000          @R10,10
  10604  0000132C  00000001 USING  ORDINARY    00000000 00001000 FFFFFFF3  11 000          @R11,11
  10609  0000132C  00000001 USING  ORDINARY    00000000 00001000 FFFFFFF6   8 000          @R8,8
  10653  0000134A  00000001 USING  ORDINARY    0000134A 00001000 00000001   8 3F6   10657  $$$223B,BR
  10678  00001377  00000001 USING  ORDINARY    00000000 00001000 FFFFFFF6   8 000          @R8,8
  10721  00001396  00000001 USING  ORDINARY    00001396 00001000 00000001   8 3C0   11825  $$$227B,BR
  10740  000013A6  00000001 USING  ORDINARY    FFFFFFB4 00001000 FFFFFFE6  13 05C   11490  HDR-@@,R13
  10752  000013A6  00000001 USING  ORDINARY    00000000 00001000 FFFFFFE7  11 15C   11833  FEB,FEBR
  10761  000013A6  00000001 USING  ORDINARY    00000000 00001000 FFFFFFE3  10 0F4   11840  PIB,PIBR
  10770  000013A6  00000001 USING  ORDINARY    00000000 00001000 FFFFFFEB   9 169   11428  SCB,SCBR
  10780  000013A6  00000001 USING  ORDINARY    00000000 00001000 FFFFFFED   7 038   11630  PDB,R7
  11574  0000153C  00000001 USING  ORDINARY    00000000 00001000 FFFFFFE6   1 012   11580  HDR,R1
  11587  00001540  00000001 USING  ORDINARY    00000000 00001000 FFFFFFFD   1 100   12893  @R1,1
  11852  000015D6  00000001 USING  ORDINARY    00000000 00001000 FFFFFFF7   7 000          @R7,7
  11857  000015D6  00000001 USING  ORDINARY    00000000 00001000 FFFFFFF5   9 000          @R9,9
  11862  000015D6  00000001 USING  ORDINARY    00000000 00001000 FFFFFFF4  10 000          @R10,10
  11867  000015D6  00000001 USING  ORDINARY    00000000 00001000 FFFFFFF3  11 000          @R11,11
  11872  000015D6  00000001 USING  ORDINARY    00000000 00001000 FFFFFFF1  13 000          @R13,13
  11877  000015D6  00000001 USING  ORDINARY    00000000 00001000 FFFFFFF6   8 000          @R8,8
  11962  00001760  00000001 USING  ORDINARY    00001760 00001000 00000001   8 3A6   12279  $$$276B,BR
  11984  00001770  00000001 USING  ORDINARY    00000000 00001000 FFFFFFE7  11 13C   12276  FEB,FEBR
  11993  00001770  00000001 USING  ORDINARY    00000000 00001000 FFFFFFE3  10 0C1   12238  PIB,PIBR
  12002  00001770  00000001 USING  ORDINARY    00000000 00001000 FFFFFFEB   9 18C   12121  SCB,SCBR
  12027  00001780  00000001 USING  ORDINARY    00000000 00001000 FFFFFFE4   7 012   12122  PINFO,R7
  12140  000017E0  00000001 USING  ORDINARY    00000000 00001000 FFFFFFE6   6 012   12158  HDR,R6
  12198  0000181A  00000001 USING  ORDINARY    00000000 00001000 FFFFFFF8   6 000          @R6,6
  12298  00001852  00000001 USING  ORDINARY    00000000 00001000 FFFFFFF7   7 000          @R7,7
  12303  00001852  00000001 USING  ORDINARY    00000000 00001000 FFFFFFF5   9 000          @R9,9
  12308  00001852  00000001 USING  ORDINARY    00000000 00001000 FFFFFFF4  10 000          @R10,10
  12313  00001852  00000001 USING  ORDINARY    00000000 00001000 FFFFFFF3  11 000          @R11,11
  12318  00001852  00000001 USING  ORDINARY    00000000 00001000 FFFFFFF6   8 000          @R8,8
  12402  00001876  00000001 USING  ORDINARY    00001876 00001000 00000001   8 2D0   13186  $$$285B,BR
  12432  00001896  00000001 USING  ORDINARY    00000000 00001000 FFFFFFDD   7 084   13108  TPWA,R7
  12453  0000189E  00000001 USING  ORDINARY    00000000 00001000 FFFFFFE7  11 0C0   13183  FEB,FEBR
1ELF      (ELF2047) (12:35) (15MAR04) Using Map                                                                             Page  212
  12468  000018A2  00000001 USING  ORDINARY    00000000 00001000 FFFFFFE8   5 040   13171  UPATH,R5
  12772  00001988  00000001 USING  ORDINARY    00000000 00001000 FFFFFFE2  15 01A   12825  TTRC,R15
  12843  000019AA  00000001 USING  ORDINARY    00000000 00001000 FFFFFFEF  15 008   15868  @R15,15
  13204  00001A7C  00000001 USING  ORDINARY    00000000 00001000 FFFFFFF9   5 000   13611  @R5,5
  13209  00001A7C  00000001 USING  ORDINARY    00000000 00001000 FFFFFFF3  11 000          @R11,11
  13214  00001A7C  00000001 USING  ORDINARY    00000000 00001000 FFFFFFF7   7 000          @R7,7
  13219  00001A7C  00000001 USING  ORDINARY    00000000 00001000 FFFFFFF6   8 000          @R8,8
  13309  00001B56  00000001 USING  ORDINARY    00001B56 00001000 00000001   8 5A7   14757  $$$327B,BR
  13331  00001B66  00000001 USING  ORDINARY    00000000 00001000 FFFFFFE7  11 17C   14754  FEB,FEBR
  13341  00001B66  00000001 USING  ORDINARY    00000000 00001000 FFFFFFDD   7 04C   14673  TPWA,R7
  13359  00001B6A  00000001 USING  ORDINARY    00000000 00001000 FFFFFFE5   6 0F8   14729  SOCK,R6
  13607  00001BFC  00000001 USING  ORDINARY    00000000 00001000 FFFFFFE3  10 0FC   14765  PIB,PIBR
  13899  00001CC6  00000001 DROP                                            1              1
  13903  00001CCC  00000001 USING  ORDINARY    00000000 00001000 FFFFFFFD   1 000          @R1,1
  13942  00001CEA  00000001 DROP                                            1              1
  13946  00001CF0  00000001 USING  ORDINARY    00000000 00001000 FFFFFFFD   1 000          @R1,1
  13985  00001D0E  00000001 DROP                                            1              1
  13989  00001D14  00000001 USING  ORDINARY    00000000 00001000 FFFFFFFD   1 000          @R1,1
  14028  00001D32  00000001 DROP                                            1              1
  14032  00001D38  00000001 USING  ORDINARY    00000000 00001000 FFFFFFFD   1 014   23758  @R1,1
  14507  00001E8E  00000001 USING  ORDINARY    00000000 00001000 FFFFFFEB   9 198   14680  SCB,SCBR
  14586  00001ED0  00000001 USING  ORDINARY    00000000 00001000 FFFFFFED   5 038   14681  PDB,R5
  14778  00001F62  00000001 USING  ORDINARY    00000000 00001000 FFFFFFF9   5 000          @R5,5
  14783  00001F62  00000001 USING  ORDINARY    00000000 00001000 FFFFFFF5   9 000          @R9,9
  14788  00001F62  00000001 USING  ORDINARY    00000000 00001000 FFFFFFF4  10 000          @R10,10
  14793  00001F62  00000001 USING  ORDINARY    00000000 00001000 FFFFFFF8   6 000          @R6,6
  14798  00001F62  00000001 USING  ORDINARY    00000000 00001000 FFFFFFF7   7 000          @R7,7
  14803  00001F62  00000001 USING  ORDINARY    00000000 00001000 FFFFFFF3  11 000          @R11,11
  14808  00001F62  00000001 USING  ORDINARY    00000000 00001000 FFFFFFF6   8 000          @R8,8
  14863  00001F8C  00000001 USING  ORDINARY    00001F8C 00001000 00000001   8 BDC   15144  $$$355B,BR
  14885  00001F9C  00000001 USING  ORDINARY    00000000 00001000 FFFFFFE7  11 098   14928  FEB,FEBR
  14895  00001F9C  00000001 USING  ORDINARY    00000000 00001000 FFFFFFDD   7 018   15029  TPWA,R7
  14938  00001FC6  00000001 USING  ORDINARY    00000000 00001000 FFFFFFE3  10 0A1   15126  PIB,PIBR
  15168  0000206C  00000001 USING  ORDINARY    00000000 00001000 FFFFFFF4  10 000          @R10,10
  15173  0000206C  00000001 USING  ORDINARY    00000000 00001000 FFFFFFF7   7 000          @R7,7
  15178  0000206C  00000001 USING  ORDINARY    00000000 00001000 FFFFFFF3  11 000          @R11,11
  15183  0000206C  00000001 USING  ORDINARY    00000000 00001000 FFFFFFF6   8 000          @R8,8
  15270  0000210E  00000001 USING  ORDINARY    0000210E 00001000 00000001   8 3E0   15526  $$$372B,BR
  15292  0000211E  00000001 USING  ORDINARY    00000000 00001000 FFFFFFE7  11 098   15335  FEB,FEBR
  15302  0000211E  00000001 USING  ORDINARY    00000000 00001000 FFFFFFDD   7 018   15307  TPWA,R7
  15345  00002148  00000001 USING  ORDINARY    00000000 00001000 FFFFFFE3  10 120   15523  PIB,PIBR
  15535  000021F4  00000001 USING  ORDINARY    00000000 00001000 FFFFFFF4  10 000          @R10,10
  15540  000021F4  00000001 USING  ORDINARY    00000000 00001000 FFFFFFF7   7 000          @R7,7
  15545  000021F4  00000001 USING  ORDINARY    00000000 00001000 FFFFFFF3  11 000          @R11,11
  15550  000021F4  00000001 USING  ORDINARY    00000000 00001000 FFFFFFF6   8 000          @R8,8
  15597  00002212  00000001 USING  ORDINARY    00002212 00001000 00000001   8 2E8   15940  $$$386B,BR
  15619  00002222  00000001 USING  ORDINARY    00000000 00001000 FFFFFFE7  11 09C   15865  FEB,FEBR
  15629  00002222  00000001 USING  ORDINARY    00000000 00001000 FFFFFFDD   7 018   15716  TPWA,R7
  15672  0000224C  00000001 USING  ORDINARY    00000000 00001000 FFFFFFE3  10 0A2   15906  PIB,PIBR
  15781  00002282  00000001 USING  ORDINARY    00000000 00001000 FFFFFFEB   9 124   15936  SCB,SCBR
  15837  000022A2  00000001 USING  ORDINARY    00000000 00001000 FFFFFFED   5 038   15937  PDB,R5
  15878  000022C6  00000001 USING  ORDINARY    00000000 00001000 FFFFFFE2  15 026   15889  TTRC,R15
  15896  000022F0  00000001 USING  ORDINARY    00000000 00001000 FFFFFFEF  15 000          @R15,15
  15918  000022F8  00000001 USING  ORDINARY    00000000 00001000 FFFFFFE2  15 00C   15926  TTRCP,R15
  15933  0000230E  00000001 USING  ORDINARY    00000000 00001000 FFFFFFEF  15 040   20184  @R15,15
  15947  0000231C  00000001 USING  ORDINARY    00000000 00001000 FFFFFFF9   5 001   18156  @R5,5
  15956  0000231C  00000001 USING  ORDINARY    00000000 00001000 FFFFFFF5   9 000          @R9,9
  15967  0000231C  00000001 USING  ORDINARY    00000000 00001000 FFFFFFF4  10 000          @R10,10
  15972  0000231C  00000001 USING  ORDINARY    00000000 00001000 FFFFFFF7   7 000          @R7,7
1ELF      (ELF2047) (12:35) (15MAR04) Using Map                                                                             Page  213
  15977  0000231C  00000001 USING  ORDINARY    00000000 00001000 FFFFFFF3  11 000          @R11,11
  15982  0000231C  00000001 USING  ORDINARY    00000000 00001000 FFFFFFF6   8 000          @R8,8
  16024  0000233A  00000001 USING  ORDINARY    0000233A 00001000 00000001   8 B72   16240  $$$399B,BR
  16046  0000234A  00000001 USING  ORDINARY    00000000 00001000 FFFFFFE7  11 098   16089  FEB,FEBR
  16056  0000234A  00000001 USING  ORDINARY    00000000 00001000 FFFFFFDD   7 018   16061  TPWA,R7
  16099  00002374  00000001 USING  ORDINARY    00000000 00001000 FFFFFFE3  10 0A1   16222  PIB,PIBR
  16264  000023D6  00000001 USING  ORDINARY    00000000 00001000 FFFFFFF4  10 000          @R10,10
  16269  000023D6  00000001 USING  ORDINARY    00000000 00001000 FFFFFFF7   7 000          @R7,7
  16274  000023D6  00000001 USING  ORDINARY    00000000 00001000 FFFFFFF3  11 000          @R11,11
  16279  000023D6  00000001 USING  ORDINARY    00000000 00001000 FFFFFFF6   8 000          @R8,8
  16321  000023F4  00000001 USING  ORDINARY    000023F4 00001000 00000001   8 0FA   16555  $$$414B,BR
  16343  00002404  00000001 USING  ORDINARY    00000000 00001000 FFFFFFE7  11 13C   16563  FEB,FEBR
  16353  00002404  00000001 USING  ORDINARY    00000000 00001000 FFFFFFDD   7 018   16358  TPWA,R7
  16396  0000242E  00000001 USING  ORDINARY    00000000 00001000 FFFFFFE3  10 0F4   16570  PIB,PIBR
  16582  00002498  00000001 USING  ORDINARY    00000000 00001000 FFFFFFF4  10 000          @R10,10
  16587  00002498  00000001 USING  ORDINARY    00000000 00001000 FFFFFFF7   7 000          @R7,7
  16592  00002498  00000001 USING  ORDINARY    00000000 00001000 FFFFFFF3  11 000          @R11,11
  16597  00002498  00000001 USING  ORDINARY    00000000 00001000 FFFFFFF6   8 000          @R8,8
  16672  00002508  00000001 USING  ORDINARY    00002508 00001000 00000001   8 164   16997  $$$423B,BR
  16694  00002518  00000001 USING  ORDINARY    00000000 00001000 FFFFFFE7  11 13C   16972  FEB,FEBR
  16703  00002518  00000001 USING  ORDINARY    00000000 00001000 FFFFFFE3  10 120   16989  PIB,PIBR
  17010  000025DE  00000001 USING  ORDINARY    00000000 00001000 FFFFFFF4  10 000          @R10,10
  17015  000025DE  00000001 USING  ORDINARY    00000000 00001000 FFFFFFF3  11 000          @R11,11
  17020  000025DE  00000001 USING  ORDINARY    00000000 00001000 FFFFFFF6   8 000          @R8,8
  17062  000025FC  00000001 USING  ORDINARY    000025FC 00001000 00000001   8 070   17116  $$$431B,BR
  17084  0000260C  00000001 USING  ORDINARY    00000000 00001000 FFFFFFE3  10 0A1   17107  PIB,PIBR
  17128  0000261E  00000001 USING  ORDINARY    00000000 00001000 FFFFFFF4  10 000          @R10,10
  17133  0000261E  00000001 USING  ORDINARY    00000000 00001000 FFFFFFF6   8 000          @R8,8
  17202  00002678  00000001 USING  ORDINARY    00002678 00001000 00000001   8 29F   18187  $$$435B,BR
  17224  00002688  00000001 USING  ORDINARY    00000000 00001000 FFFFFFE7  11 13C   18184  FEB,FEBR
  17233  00002688  00000001 USING  ORDINARY    00000000 00001000 FFFFFFE3  10 0F8   18147  PIB,PIBR
  17682  0000277E  00000001 USING  ORDINARY    00000000 00001000 FFFFFFE1   3 02C   17768  EIB,R3
  17827  000027D8  00000001 USING  ORDINARY    00000000 00001000 FFFFFFE5   2 010   17837  SOCK,R2
  17860  000027E8  00000001 USING  ORDINARY    00000000 00001000 FFFFFFFC   2 000   22667  @R2,2
  17907  000027FE  00000001 USING  ORDINARY    00000000 00001000 FFFFFFFB   3 000   25074  @R3,3
  18196  00002898  00000001 USING  ORDINARY    00000000 00001000 FFFFFFF4  10 000          @R10,10
  18201  00002898  00000001 USING  ORDINARY    00000000 00001000 FFFFFFF3  11 000          @R11,11
  18206  00002898  00000001 USING  ORDINARY    00000000 00001000 FFFFFFF6   8 000          @R8,8
  18277  00002922  00000001 USING  ORDINARY    00002922 00001000 00000001   8 3E2   18502  $$$465B,BR
  18299  00002932  00000001 USING  ORDINARY    00000000 00001000 FFFFFFE7  11 13C   18510  FEB,FEBR
  18308  00002932  00000001 USING  ORDINARY    00000000 00001000 FFFFFFE3  10 0F4   18517  PIB,PIBR
  18524  000029B0  00000001 USING  ORDINARY    00000000 00001000 FFFFFFF4  10 000          @R10,10
  18529  000029B0  00000001 USING  ORDINARY    00000000 00001000 FFFFFFF3  11 000          @R11,11
  18534  000029B0  00000001 USING  ORDINARY    00000000 00001000 FFFFFFF6   8 000          @R8,8
  18597  000029CE  00000001 USING  ORDINARY    000029CE 00001000 00000001   8 33C   19155  $$$468B,BR
  18616  000029DE  00000001 USING  ORDINARY    FFFFFFB4 00001000 FFFFFFDC  13 04C   19159  RTMWA-@@,R13
  18629  000029E0  00000001 USING  ORDINARY    00000000 00001000 FFFFFFE3  10 0F4   19157  PIB,PIBR
  18668  000029FE  00000001 USING  ORDINARY    00000000 00001000 FFFFFFE7  11 13C   19135  FEB,FEBR
  18754  00002A3C  00000001 USING  ORDINARY    00000000 00001000 FFFFFFE5   6 0F8   18831  SOCK,R6
  18904  00002AAC  00000001 USING  ORDINARY    00000000 00001000 FFFFFFF8   6 000          @R6,6
  19166  00002B54  00000001 USING  ORDINARY    00000000 00001000 FFFFFFF3  11 000          @R11,11
  19171  00002B54  00000001 USING  ORDINARY    00000000 00001000 FFFFFFF4  10 000          @R10,10
  19176  00002B54  00000001 USING  ORDINARY    00000000 00001000 FFFFFFF1  13 000          @R13,13
  19181  00002B54  00000001 USING  ORDINARY    00000000 00001000 FFFFFFF6   8 000          @R8,8
  19228  00002B72  00000001 USING  ORDINARY    00002B72 00001000 00000001   8 3F8   19595  $$$480B,BR
  19250  00002B82  00000001 USING  ORDINARY    00000000 00001000 FFFFFFE7  11 000          FEB,FEBR
  19259  00002B82  00000001 USING  ORDINARY    00000000 00001000 FFFFFFE3  10 120   19582  PIB,PIBR
  19415  00002BF0  00000001 USING  ORDINARY    00000000 00001000 FFFFFFE6   5 012   19473  HDR,R5
  19592  00002C88  00000001 USING  ORDINARY    00000000 00001000 FFFFFFF9   5 004   27746  @R5,5
1ELF      (ELF2047) (12:35) (15MAR04) Using Map                                                                             Page  214
  19605  00002C8C  00000001 USING  ORDINARY    00000000 00001000 FFFFFFF4  10 000          @R10,10
  19610  00002C8C  00000001 USING  ORDINARY    00000000 00001000 FFFFFFF3  11 000          @R11,11
  19615  00002C8C  00000001 USING  ORDINARY    00000000 00001000 FFFFFFF6   8 000          @R8,8
  19696  00002D18  00000001 USING  ORDINARY    00002D18 00001000 00000001   8 252   20294  $$$493B,BR
  19718  00002D28  00000001 USING  ORDINARY    00000000 00001000 FFFFFFE7  11 09C   20181  FEB,FEBR
  19727  00002D28  00000001 USING  ORDINARY    00000000 00001000 FFFFFFE3  10 0FC   20221  PIB,PIBR
  19740  00002D2C  00000001 USING  ORDINARY    00000000 00001000 FFFFFFEB   9 198   20251  SCB,SCBR
  19755  00002D2E  00000001 USING  ORDINARY    00000000 00001000 FFFFFFE6   6 014   20141  HDR,R6
  19770  00002D32  00000001 USING  ORDINARY    00000000 00001000 FFFFFFED   7 038   20265  PDB,R7
  20194  00002E34  00000001 USING  ORDINARY    00000000 00001000 FFFFFFE2  15 026   20204  TTRC,R15
  20211  00002E58  00000001 USING  ORDINARY    00000000 00001000 FFFFFFEF  15 000          @R15,15
  20233  00002E60  00000001 USING  ORDINARY    00000000 00001000 FFFFFFE2  15 00C   20241  TTRCP,R15
  20248  00002E76  00000001 USING  ORDINARY    00000000 00001000 FFFFFFEF  15 000          @R15,15
  20312  00002E98  00000001 USING  ORDINARY    00000000 00001000 FFFFFFF7   7 000          @R7,7
  20317  00002E98  00000001 USING  ORDINARY    00000000 00001000 FFFFFFF8   6 000          @R6,6
  20322  00002E98  00000001 USING  ORDINARY    00000000 00001000 FFFFFFF5   9 000          @R9,9
  20327  00002E98  00000001 USING  ORDINARY    00000000 00001000 FFFFFFF4  10 000          @R10,10
  20332  00002E98  00000001 USING  ORDINARY    00000000 00001000 FFFFFFF3  11 000          @R11,11
  20337  00002E98  00000001 USING  ORDINARY    00000000 00001000 FFFFFFF6   8 000          @R8,8
  20379  00002EB6  00000001 USING  ORDINARY    00002EB6 00001000 00000001   8 0AE   20543  $$$518B,BR
  20401  00002EC6  00000001 USING  ORDINARY    00000000 00001000 FFFFFFE7  11 13C   20551  FEB,FEBR
  20410  00002EC6  00000001 USING  ORDINARY    00000000 00001000 FFFFFFE3  10 0F4   20558  PIB,PIBR
  20570  00002F1A  00000001 USING  ORDINARY    00000000 00001000 FFFFFFF4  10 000          @R10,10
  20575  00002F1A  00000001 USING  ORDINARY    00000000 00001000 FFFFFFF3  11 000          @R11,11
  20580  00002F1A  00000001 USING  ORDINARY    00000000 00001000 FFFFFFF6   8 000          @R8,8
  20650  00002F74  00000001 USING  ORDINARY    00002F74 00001000 00000001   8 AF8   20891  $$$523B,BR
  20672  00002F84  00000001 USING  ORDINARY    00000000 00001000 FFFFFFE7  11 13C   20899  FEB,FEBR
  20681  00002F84  00000001 USING  ORDINARY    00000000 00001000 FFFFFFE3  10 0F4   20906  PIB,PIBR
  20915  0000300C  00000001 USING  ORDINARY    00000000 00001000 FFFFFFF4  10 000          @R10,10
  20920  0000300C  00000001 USING  ORDINARY    00000000 00001000 FFFFFFF3  11 000          @R11,11
  20925  0000300C  00000001 USING  ORDINARY    00000000 00001000 FFFFFFF6   8 000          @R8,8
  21098  0000302A  00000001 USING  ORDINARY    0000302A 00001000 00000001   8 AE2   22732  $$$535B,BR
  21117  0000303A  00000001 USING  ORDINARY    FFFFFFB4 00001000 FFFFFFDB  13 1EC   22724  ESPWA-@@,R13
  21138  00003046  00000001 USING  ORDINARY    00000000 00001000 FFFFFFE7  11 000          FEB,FEBR
  21147  00003046  00000001 USING  ORDINARY    00000000 00001000 FFFFFFE3  10 0FC   22724  PIB,PIBR
  21162  00003048  00000001 USING  ORDINARY    00000000 00001000 FFFFFFED   7 038   21214  PDB,R7
  21177  0000304C  00000001 USING  ORDINARY    00000000 00001000 FFFFFFEA   6 000          SCANCB,R6
  22745  00003482  00000001 USING  ORDINARY    00000000 00001000 FFFFFFF8   6 002   32095  @R6,6
  22750  00003482  00000001 USING  ORDINARY    00000000 00001000 FFFFFFF7   7 000          @R7,7
  22755  00003482  00000001 USING  ORDINARY    00000000 00001000 FFFFFFF4  10 000          @R10,10
  22760  00003482  00000001 USING  ORDINARY    00000000 00001000 FFFFFFF3  11 000          @R11,11
  22765  00003482  00000001 USING  ORDINARY    00000000 00001000 FFFFFFF1  13 000          @R13,13
  22770  00003482  00000001 USING  ORDINARY    00000000 00001000 FFFFFFF6   8 000          @R8,8
  22820  000034B6  00000001 USING  ORDINARY    000034B6 00001000 00000001   8 5B6   22863  $$$601B,BR
  22842  000034C6  00000001 USING  ORDINARY    00000000 00001000 FFFFFFE3  10 0FC   22869  PIB,PIBR
  22880  000034D4  00000001 USING  ORDINARY    00000000 00001000 FFFFFFF4  10 000          @R10,10
  22885  000034D4  00000001 USING  ORDINARY    00000000 00001000 FFFFFFF6   8 000          @R8,8
  22961  000034F6  00000001 USING  ORDINARY    000034F6 00001000 00000001   8 C5E   24214  $$$605B,BR
  22980  00003506  00000001 USING  ORDINARY    FFFFFFB4 00001000 FFFFFFDA  13 054   24138  IACWA-@@,R13
  22992  00003506  00000001 USING  ORDINARY    00000000 00001000 FFFFFFE7  11 148   24211  FEB,FEBR
  23001  00003506  00000001 USING  ORDINARY    00000000 00001000 FFFFFFE3  10 0A2   23990  PIB,PIBR
  23035  00003524  00000001 USING  ORDINARY    00000000 00001000 FFFFFFEB   9 000          SCB,SCBR
  23356  000035C6  00000001 DROP                                            2              2
  23360  000035CC  00000001 USING  ORDINARY    00000000 00001000 FFFFFFFC   2 000          @R2,2
  23460  00003614  00000001 DROP                                            2              2
  23464  0000361A  00000001 USING  ORDINARY    00000000 00001000 FFFFFFFC   2 000   23758  @R2,2
  23626  00003692  00000001 USING  ORDINARY    00000000 00001000 FFFFFFEB  15 102   23632  SCB,R15
  23639  00003698  00000001 USING  ORDINARY    00000000 00001000 FFFFFFEF  15 008   26054  @R15,15
  23851  00003722  00000001 DROP                                            2              2
1ELF      (ELF2047) (12:35) (15MAR04) Using Map                                                                             Page  215
  23855  00003728  00000001 USING  ORDINARY    00000000 00001000 FFFFFFFC   2 000          @R2,2
  23961  00003762  00000001 DROP                                            2              2
  23965  00003768  00000001 USING  ORDINARY    00000000 00001000 FFFFFFFC   2 000          @R2,2
  24227  000037F6  00000001 USING  ORDINARY    00000000 00001000 FFFFFFF5   9 000          @R9,9
  24232  000037F6  00000001 USING  ORDINARY    00000000 00001000 FFFFFFF4  10 000          @R10,10
  24237  000037F6  00000001 USING  ORDINARY    00000000 00001000 FFFFFFF3  11 000          @R11,11
  24242  000037F6  00000001 USING  ORDINARY    00000000 00001000 FFFFFFF1  13 000          @R13,13
  24247  000037F6  00000001 USING  ORDINARY    00000000 00001000 FFFFFFF6   8 000          @R8,8
  24330  0000395A  00000001 USING  ORDINARY    0000395A 00001000 00000001   8 148   24375  $$$645B,BR
  24399  00003986  00000001 USING  ORDINARY    00000000 00001000 FFFFFFF6   8 000          @R8,8
  24549  00003B28  00000001 USING  ORDINARY    00003B28 00001000 00000001   8 746   26230  $$$650B,BR
  24568  00003B38  00000001 USING  ORDINARY    FFFFFFB4 00001000 FFFFFFD9  13 04C   25141  RCHKWA-@@,R13
  24580  00003B38  00000001 USING  ORDINARY    00000000 00001000 FFFFFFE7  11 148   26227  FEB,FEBR
  24589  00003B38  00000001 USING  ORDINARY    00000000 00001000 FFFFFFE3  10 120   26170  PIB,PIBR
  24637  00003B64  00000001 USING  ORDINARY    00000000 00001000 FFFFFFEB   9 124   26180  SCB,SCBR
  25472  00003D2C  00000001 USING  ORDINARY    00000000 00001000 FFFFFFED   4 038   25677  PDB,R4
  25971  00003E86  00000001 USING  ORDINARY    00000000 00001000 FFFFFFFA   4 000          @R4,4
  26006  00003E92  00000001 USING  ORDINARY    00000000 00001000 FFFFFFED   4 038   26122  PDB,R4
  26064  00003EBE  00000001 USING  ORDINARY    00000000 00001000 FFFFFFE2  15 026   26074  TTRC,R15
  26081  00003EE2  00000001 USING  ORDINARY    00000000 00001000 FFFFFFEF  15 000          @R15,15
  26103  00003EEA  00000001 USING  ORDINARY    00000000 00001000 FFFFFFE2  15 00C   26111  TTRCP,R15
  26118  00003F00  00000001 USING  ORDINARY    00000000 00001000 FFFFFFEF  15 008   26442  @R15,15
  26132  00003F0E  00000001 USING  ORDINARY    00000000 00001000 FFFFFFFA   4 000          @R4,4
  26243  00003F40  00000001 USING  ORDINARY    00000000 00001000 FFFFFFF5   9 000          @R9,9
  26248  00003F40  00000001 USING  ORDINARY    00000000 00001000 FFFFFFF4  10 000          @R10,10
  26253  00003F40  00000001 USING  ORDINARY    00000000 00001000 FFFFFFF3  11 000          @R11,11
  26258  00003F40  00000001 USING  ORDINARY    00000000 00001000 FFFFFFF1  13 000          @R13,13
  26263  00003F40  00000001 USING  ORDINARY    00000000 00001000 FFFFFFF6   8 000          @R8,8
  26338  0000415E  00000001 USING  ORDINARY    0000415E 00001000 00000001   8 108   26514  $$$719B,BR
  26360  0000416E  00000001 USING  ORDINARY    00000000 00001000 FFFFFFE7  11 09C   26439  FEB,FEBR
  26369  0000416E  00000001 USING  ORDINARY    00000000 00001000 FFFFFFE3  10 090   26480  PIB,PIBR
  26397  00004178  00000001 USING  ORDINARY    00000000 00001000 FFFFFFEB   9 124   26510  SCB,SCBR
  26411  0000417C  00000001 USING  ORDINARY    00000000 00001000 FFFFFFED   3 038   26511  PDB,R3
  26452  0000419E  00000001 USING  ORDINARY    00000000 00001000 FFFFFFE2  15 026   26463  TTRC,R15
  26470  000041C8  00000001 USING  ORDINARY    00000000 00001000 FFFFFFEF  15 000          @R15,15
  26492  000041D0  00000001 USING  ORDINARY    00000000 00001000 FFFFFFE2  15 00C   26500  TTRCP,R15
  26507  000041E6  00000001 USING  ORDINARY    00000000 00001000 FFFFFFEF  15 008   30082  @R15,15
  26521  000041F4  00000001 USING  ORDINARY    00000000 00001000 FFFFFFFB   3 100   35775  @R3,3
  26526  000041F4  00000001 USING  ORDINARY    00000000 00001000 FFFFFFF5   9 000          @R9,9
  26536  000041F4  00000001 USING  ORDINARY    00000000 00001000 FFFFFFF4  10 000          @R10,10
  26541  000041F4  00000001 USING  ORDINARY    00000000 00001000 FFFFFFF3  11 000          @R11,11
  26546  000041F4  00000001 USING  ORDINARY    00000000 00001000 FFFFFFF6   8 000          @R8,8
  26629  0000427E  00000001 USING  ORDINARY    0000427E 00001000 00000001   8 6DA   26674  $$$724B,BR
  26652  00004290  00000001 USING  ORDINARY    00000000 00001000 FFFFFFE7  11 000          FEB,FEBR
  26666  00004292  00000001 USING  ORDINARY    00000000 00001000 FFFFFFE9   7 000          SEGCB,R7
  26683  00004298  00000001 USING  ORDINARY    00000000 00001000 FFFFFFF7   7 000          @R7,7
  26688  00004298  00000001 USING  ORDINARY    00000000 00001000 FFFFFFF3  11 000          @R11,11
  26693  00004298  00000001 USING  ORDINARY    00000000 00001000 FFFFFFF6   8 000          @R8,8
  26740  000042B6  00000001 USING  ORDINARY    000042B6 00001000 00000001   8 729   28870  $$$727B,BR
  26763  000042C8  00000001 USING  ORDINARY    00000000 00001000 FFFFFFE7  11 0A0   28856  FEB,FEBR
  26777  000042CA  00000001 USING  ORDINARY    00000000 00001000 FFFFFFE9   7 010   28878  SEGCB,R7
  27037  00004380  00000001 USING  ORDINARY    00000000 00001000 FFFFFFE3  10 120   27565  PIB,PIBR
  27191  000043E4  00000001 USING  ORDINARY    00000000 00001000 FFFFFFEB   9 129   27289  SCB,SCBR
  27286  00004424  00000001 DROP                                            2              2
  27290  0000442A  00000001 USING  ORDINARY    00000000 00001000 FFFFFFFC   2 010   35642  @R2,2
  27340  0000444A  00000001 USING  ORDINARY    00000000 00001000 FFFFFFF5   9 000          @R9,9
  27741  0000456C  00000001 USING  ORDINARY    00000000 00001000 FFFFFFF4  10 000          @R10,10
  27843  000045BE  00000001 USING  ORDINARY    00000000 00001000 FFFFFFE2   4 036   28801  TTRC,R4
  28300  000046E8  00000001 DROP                                            1              1
1ELF      (ELF2047) (12:35) (15MAR04) Using Map                                                                             Page  216
  28304  000046EE  00000001 USING  ORDINARY    00000000 00001000 FFFFFFFD   1 000   29451  @R1,1
  28867  0000486A  00000001 USING  ORDINARY    00000000 00001000 FFFFFFFA   4 000          @R4,4
  28886  00004874  00000001 USING  ORDINARY    00000000 00001000 FFFFFFF7   7 000          @R7,7
  28891  00004874  00000001 USING  ORDINARY    00000000 00001000 FFFFFFF3  11 000          @R11,11
  28896  00004874  00000001 USING  ORDINARY    00000000 00001000 FFFFFFF6   8 000          @R8,8
  28946  00004892  00000001 USING  ORDINARY    00004892 00001000 00000001   8 0C6   28985  $$$757B,BR
  28969  000048A4  00000001 USING  ORDINARY    00000000 00001000 FFFFFFE7  11 000   28982  FEB,FEBR
  28997  000048B6  00000001 USING  ORDINARY    00000000 00001000 FFFFFFF3  11 000          @R11,11
  29002  000048B6  00000001 USING  ORDINARY    00000000 00001000 FFFFFFF6   8 000          @R8,8
  29050  000048D4  00000001 USING  ORDINARY    000048D4 00001000 00000001   8 084   29054  $$$760B,BR
  29073  000048E4  00000001 USING  ORDINARY    00000000 00001000 FFFFFFF6   8 000          @R8,8
  29308  000049EA  00000001 USING  ORDINARY    000049EA 00001000 00000001   8 4E0   30492  $$$771B,BR
  29327  000049FA  00000001 USING  ORDINARY    FFFFFFB4 00001000 FFFFFFD8  13 0A0   30142  SETEWA-@@,R13
  29349  00004A02  00000001 USING  ORDINARY    00000000 00001000 FFFFFFE9  11 000          SEGCB,R11
  29365  00004A04  00000001 USING  ORDINARY    00000000 00001000 FFFFFFEA  10 000   30426  SCANCB,R10
  29380  00004A08  00000001 USING  ORDINARY    00000000 00001000 FFFFFFE1   7 048   30426  EIB,R7
  29820  00004B28  00000001 DROP                                            1              1
  29824  00004B2E  00000001 USING  ORDINARY    00000000 00001000 FFFFFFFD   1 000          @R1,1
  29863  00004B4C  00000001 DROP                                            1              1
  29867  00004B52  00000001 USING  ORDINARY    00000000 00001000 FFFFFFFD   1 000          @R1,1
  29906  00004B70  00000001 DROP                                            1              1
  29910  00004B76  00000001 USING  ORDINARY    00000000 00001000 FFFFFFFD   1 000          @R1,1
  29949  00004B94  00000001 DROP                                            1              1
  29953  00004B9A  00000001 USING  ORDINARY    00000000 00001000 FFFFFFFD   1 000          @R1,1
  30503  00004DEA  00000001 USING  ORDINARY    00000000 00001000 FFFFFFF7   7 000          @R7,7
  30508  00004DEA  00000001 USING  ORDINARY    00000000 00001000 FFFFFFF4  10 000          @R10,10
  30513  00004DEA  00000001 USING  ORDINARY    00000000 00001000 FFFFFFF3  11 000          @R11,11
  30518  00004DEA  00000001 USING  ORDINARY    00000000 00001000 FFFFFFF1  13 000          @R13,13
  30523  00004DEA  00000001 USING  ORDINARY    00000000 00001000 FFFFFFF6   8 000          @R8,8
  30611  00004EDA  00000001 USING  ORDINARY    00004EDA 00001000 00000001   8 D74   31959  $$$793B,BR
  30635  00004EEC  00000001 USING  ORDINARY    00000000 00001000 FFFFFFE9  11 000          SEGCB,R11
  30651  00004EEE  00000001 USING  ORDINARY    00000000 00001000 FFFFFFEA  10 000   31632  SCANCB,R10
  30692  00004EFE  00000001 USING  ORDINARY    00000000 00001000 FFFFFFE1   7 048   31539  EIB,R7
  31004  00004FD4  00000001 DROP                                            1              1
  31008  00004FDA  00000001 USING  ORDINARY    00000000 00001000 FFFFFFFD   1 000          @R1,1
  31098  00005010  00000001 DROP                                            1              1
  31102  00005016  00000001 USING  ORDINARY    00000000 00001000 FFFFFFFD   1 000          @R1,1
  31196  0000504C  00000001 DROP                                            1              1
  31200  00005052  00000001 USING  ORDINARY    00000000 00001000 FFFFFFFD   1 000          @R1,1
  31294  00005088  00000001 DROP                                            1              1
  31298  0000508E  00000001 USING  ORDINARY    00000000 00001000 FFFFFFFD   1 0FA   36681  @R1,1
  31596  00005152  00000001 USING  ORDINARY    00000000 00001000 FFFFFFF7   7 000          @R7,7
  31711  000051A8  00000001 USING  ORDINARY    00000000 00001000 FFFFFFE1   4 018   31811  EIB,R4
  31834  000051F6  00000001 USING  ORDINARY    00000000 00001000 FFFFFFFA   4 000          @R4,4
  31970  00005246  00000001 USING  ORDINARY    00000000 00001000 FFFFFFF4  10 000          @R10,10
  31975  00005246  00000001 USING  ORDINARY    00000000 00001000 FFFFFFF3  11 000          @R11,11
  31980  00005246  00000001 USING  ORDINARY    00000000 00001000 FFFFFFF6   8 000          @R8,8
  32031  00005264  00000001 USING  ORDINARY    00005264 00001000 00000001   8 988   32112  $$$815B,BR
  32063  0000527A  00000001 USING  ORDINARY    00000000 00001000 FFFFFFE1  15 008   32095  EIB,R15
  32109  0000528E  00000001 USING  ORDINARY    00000000 00001000 FFFFFFEF  15 008   35983  @R15,15
  32121  00005292  00000001 USING  ORDINARY    00000000 00001000 FFFFFFF6   8 000          @R8,8
  32167  000052B0  00000001 USING  ORDINARY    000052B0 00001000 00000001   8 93C   32320  $$$822B,BR
  32202  000052C8  00000001 USING  ORDINARY    00000000 00001000 FFFFFFE1   4 028   32234  EIB,R4
  32248  000052DA  00000001 USING  ORDINARY    00000000 00001000 FFFFFFFA   4 000          @R4,4
  32279  000052E4  00000001 USING  ORDINARY    00000000 00001000 FFFFFFE1   4 03C   32326  EIB,R4
  32336  00005300  00000001 USING  ORDINARY    00000000 00001000 FFFFFFFA   4 001   35775  @R4,4
  32351  00005302  00000001 USING  ORDINARY    00000000 00001000 FFFFFFF6   8 000          @R8,8
  32428  00005320  00000001 USING  ORDINARY    00005320 00001000 00000001   8 8F2   32808  $$$832B,BR
  32447  00005330  00000001 USING  ORDINARY    FFFFFFB4 00001000 FFFFFFD7  13 05C   32798  FEIBWA-@@,R13
1ELF      (ELF2047) (12:35) (15MAR04) Using Map                                                                             Page  217
  32509  00005360  00000001 USING  ORDINARY    00000000 00001000 FFFFFFE1   5 048   32714  EIB,R5
  32777  000053F8  00000001 USING  ORDINARY    00000000 00001000 FFFFFFF9   5 000          @R5,5
  32829  00005414  00000001 USING  ORDINARY    00000000 00001000 FFFFFFF1  13 000          @R13,13
  32834  00005414  00000001 USING  ORDINARY    00000000 00001000 FFFFFFF6   8 000          @R8,8
  32884  00005432  00000001 USING  ORDINARY    00005432 00001000 00000001   8 7BA   32958  $$$852B,BR
  32908  00005444  00000001 USING  ORDINARY    00000000 00001000 FFFFFFE1   6 004   32929  EIB,R6
  32981  00005488  00000001 USING  ORDINARY    00000000 00001000 FFFFFFF8   6 001   34141  @R6,6
  32986  00005488  00000001 USING  ORDINARY    00000000 00001000 FFFFFFF6   8 000          @R8,8
  33035  000054A6  00000001 USING  ORDINARY    000054A6 00001000 00000001   8 746   33280  $$$857B,BR
  33073  000054BE  00000001 USING  ORDINARY    00000000 00001000 FFFFFFE1   5 004   33087  EIB,R5
  33119  000054D0  00000001 USING  ORDINARY    00000000 00001000 FFFFFFF9   5 000          @R5,5
  33182  000054EC  00000001 USING  ORDINARY    00000000 00001000 FFFFFFE1   5 004   33277  EIB,R5
  33291  00005530  00000001 USING  ORDINARY    00000000 00001000 FFFFFFF9   5 000          @R5,5
  33302  00005530  00000001 USING  ORDINARY    00000000 00001000 FFFFFFF6   8 000          @R8,8
  33348  0000554E  00000001 USING  ORDINARY    0000554E 00001000 00000001   8 69E   33602  $$$870B,BR
  33622  000055EE  00000001 USING  ORDINARY    00000000 00001000 FFFFFFF6   8 000          @R8,8
  33783  0000560C  00000001 USING  ORDINARY    0000560C 00001000 00000001   8 66A   34729  $$$893B,BR
  33802  0000561C  00000001 USING  ORDINARY    FFFFFFB4 00001000 FFFFFFD6  13 078   34724  INWA-@@,R13
  33814  0000561C  00000001 USING  ORDINARY    00000000 00001000 FFFFFFEB   9 176   34627  SCB,SCBR
  33824  0000561C  00000001 USING  ORDINARY    00000000 00001000 FFFFFFED   7 00C   34711  PDB,R7
  33837  00005620  00000001 USING  ORDINARY    00000000 00001000 FFFFFFE3  10 000          PIB,PIBR
  34739  00005954  00000001 USING  ORDINARY    00000000 00001000 FFFFFFF4  10 000          @R10,10
  34744  00005954  00000001 USING  ORDINARY    00000000 00001000 FFFFFFF7   7 001   35012  @R7,7
  34749  00005954  00000001 USING  ORDINARY    00000000 00001000 FFFFFFF5   9 000          @R9,9
  34754  00005954  00000001 USING  ORDINARY    00000000 00001000 FFFFFFF1  13 000          @R13,13
  34759  00005954  00000001 USING  ORDINARY    00000000 00001000 FFFFFFF6   8 000          @R8,8
  34808  00005972  00000001 USING  ORDINARY    00005972 00001000 00000001   8 30A   35301  $$$924B,BR
  34830  00005982  00000001 USING  ORDINARY    00000000 00001000 FFFFFFEB   9 168   35217  SCB,SCBR
  34843  00005986  00000001 USING  ORDINARY    00000000 00001000 FFFFFFE3  10 0A1   35265  PIB,PIBR
  34856  0000598A  00000001 USING  ORDINARY    00000000 00001000 FFFFFFE7  11 0B8   35311  FEB,FEBR
  35318  00005B64  00000001 USING  ORDINARY    00000000 00001000 FFFFFFF3  11 000          @R11,11
  35323  00005B64  00000001 USING  ORDINARY    00000000 00001000 FFFFFFF4  10 000          @R10,10
  35328  00005B64  00000001 USING  ORDINARY    00000000 00001000 FFFFFFF5   9 000          @R9,9
  35333  00005B64  00000001 USING  ORDINARY    00000000 00001000 FFFFFFF6   8 000          @R8,8
  35466  00005C8C  00000001 USING  ORDINARY    00005C8C 00001000 00000001   8 410   36347  $$$943B,BR
  35485  00005C9C  00000001 USING  ORDINARY    FFFFFFB4 00001000 FFFFFFD5  13 052   36174  PSGWA-@@,R13
  35505  00005CA2  00000001 USING  ORDINARY    00000000 00001000 FFFFFFE7  11 1A0   36346  FEB,FEBR
  35546  00005CBE  00000001 USING  ORDINARY    00000000 00001000 FFFFFFE9   5 020   36326  SEGCB,R5
  35609  00005CD8  00000001 USING  ORDINARY    00000000 00001000 FFFFFFE3  10 0F4   35642  PIB,PIBR
  35649  00005D08  00000001 USING  ORDINARY    00000000 00001000 FFFFFFF4  10 000          @R10,10
  35896  00005DA6  00000001 USING  ORDINARY    00000000 00001000 FFFFFFE8   3 008   36088  UPATH,R3
  35993  00005DF2  00000001 USING  ORDINARY    00000000 00001000 FFFFFFE2  15 01A   36053  TTRC,R15
  36002  00005DF8  00000001 DROP                                            2              2
  36006  00005DFE  00000001 USING  ORDINARY    00000000 00001000 FFFFFFFC   2 000          @R2,2
  36071  00005E1A  00000001 USING  ORDINARY    00000000 00001000 FFFFFFEF  15 008   36611  @R15,15
  36144  00005E52  00000001 USING  ORDINARY    00000000 00001000 FFFFFFE0   2 00C   36164  AMYQ,R2
  36227  00005E94  00000001 USING  ORDINARY    00000000 00001000 FFFFFFFC   2 000          @R2,2
  36291  00005EBA  00000001 USING  ORDINARY    00000000 00001000 FFFFFFFB   3 000          @R3,3
  36369  00005EE4  00000001 USING  ORDINARY    00000000 00001000 FFFFFFF9   5 000          @R5,5
  36374  00005EE4  00000001 USING  ORDINARY    00000000 00001000 FFFFFFF3  11 000          @R11,11
  36379  00005EE4  00000001 USING  ORDINARY    00000000 00001000 FFFFFFF1  13 000          @R13,13
  36384  00005EE4  00000001 USING  ORDINARY    00000000 00001000 FFFFFFF6   8 000          @R8,8
  36453  00005F02  00000001 USING  ORDINARY    00005F02 00001000 00000001   8 1A8   36883  $$$983B,BR
  36472  00005F12  00000001 USING  ORDINARY    FFFFFFB4 00001000 FFFFFFD4  13 052   36723  ASQWA-@@,R13
  36484  00005F12  00000001 USING  ORDINARY    00000000 00001000 FFFFFFE7  11 1A0   36832  FEB,FEBR
  36499  00005F16  00000001 USING  ORDINARY    00000000 00001000 FFFFFFE8   6 040   36882  UPATH,R6
  36559  00005F40  00000001 USING  ORDINARY    00000000 00001000 FFFFFFE0   5 00C   36801  AMYQ,R5
  36621  00005F7A  00000001 USING  ORDINARY    00000000 00001000 FFFFFFE2  15 01A   36681  TTRC,R15
  36630  00005F80  00000001 DROP                                            2              2
1ELF      (ELF2047) (12:35) (15MAR04) Using Map                                                                             Page  218
  36634  00005F86  00000001 USING  ORDINARY    00000000 00001000 FFFFFFFC   2 000          @R2,2
  36699  00005FA2  00000001 USING  ORDINARY    00000000 00001000 FFFFFFEF  15 000          @R15,15
  36811  00005FF0  00000001 USING  ORDINARY    00000000 00001000 FFFFFFF9   5 000          @R5,5
  36899  00006022  00000001 USING  ORDINARY    00000000 00001000 FFFFFFF8   6 000          @R6,6
  36904  00006022  00000001 USING  ORDINARY    00000000 00001000 FFFFFFF3  11 000          @R11,11
  36909  00006022  00000001 USING  ORDINARY    00000000 00001000 FFFFFFF1  13 000          @R13,13
  36914  00006022  00000001 USING  ORDINARY    00000000 00001000 FFFFFFF6   8 000          @R8,8

1         (ELF2047) (12:35) (15MAR04) General Purpose Register Cross Reference                                              Page  219
- Register  References (M=modified, B=branch, U=USING, D=DROP, N=index)                      HLASM R4.0  2004/03/15 12.35
0    0(0)      989U   990D  1618M  1619M  1620   1622M  1623   4359M  4371M  4482M  4704M  4741M  4750M  4820M  4855M
              4988M  5023M  5023   5059M  5106M  5108M  5233M  5254M  5254   5270M  5424   5436M  5441   5508   5583
              5595M  5600   5761M  5910M  5939M  6175   6392   6507M  7056M  7073M  7094M  7094   7111M  7132M  7132
              7149M  7170M  7170   7187M  7208M  7208   7232M  7232   7467M  7494M  7518M  7518   7711   8542M  8569M
              8586M  8606M  8606   8639M  8666M  8683M  8710M  8738M  8738   9681M  9751M  9802M  9848M  9848  10075M
             10092M 10109M 10133M 10133  10229M 10256M 10280M 10280  10321M 10348M 10372M 10372  11495M 11522M 11601M
             11601  11671M 11698M 11722M 11722  11763M 11790M 11814M 11814  12174M 12215M 12243M 12268M 12268  12558M
             12559M 12561  12604M 12741  12777M 12778  12779  12846M 12847  13432M 13459M 13483M 13483  13593M 13840M
             13881M 13907M 13907  13924M 13950M 13950  13967M 13993M 13993  14010M 14036M 14036  14134M 14165M 14192M
             14209M 14236M 14260M 14260  14298M 14328M 14362M 14386M 14386  14442M 14466M 14466  14493M 14631M 14659M
             14729M 14746M 14746  15029M 15031M 15047M 15047  15446M 16493M 16520M 16544M 16544  16712  16736M 16737M
             16744  16782M 16784M 16815M 16902M 16929M 16953M 16953  17244  17602M 17619M 17636M 17702M 17736M 17753M
             17789M 17789  17841M 17841  17889M 18066M 18095M 18176M 18176  18348M 18375M 18399M 18399  18440M 18467M
             18491M 18491  18831M 18848M 18879M 18879  18973M 19000M 19024M 19024  19065M 19092M 19116M 19116  19150M
             19268  19292M 19293M 19300  19338M 19340M 19370M 19579M 19581M 19830M 20124M 20126M 20481M 20508M 20532M
             20532  20737M 20764M 20788M 20788  20829M 20856M 20880M 20880  21214M 21235M 21238  21283  21371  21497
             21585  21673  22019M 22084M 22100  22107  22152M 22168  22175  22240M 22256  22263  22308M 22324  22331
             22398M 22426M 22443M 22469M 22475  22499M 22531M 23019  23153M 23154M 23154  23163M 23163  23181M 23253M
             23587M 23594M 23705M 23772M 23794M 23814M 23889M 24055M 24084M 24138M 24139M 24139  24148M 24148  24158M
             24203M 24203  24384M 24387M 24861M 24863M 25373M 25433M 25559M 25662M 25676  25792M 25794M 25888M 25915M
             25939M 25939  26219M 26219  26794M 26809M 26835M 26850M 26868M 26868  26884M 26916M 26954M 26980M 26980
             27048M 27070M 27085M 27107M 27107  27129M 27129  27155M 27200M 27225M 27240M 27265M 27301M 27320M 27320
             27355M 27355  27383M 27398M 27420M 27435M 27454M 27454  27469M 27488M 27488  27503M 27522M 27522  27544M
             27544  27588M 27603M 27625M 27640M 27662M 27677M 27699M 27721M 27721  27757M 27773M 27792M 27866M 27918M
             27978M 28028M 28070M 28085M 28112M 28131M 28150M 28150  28172M 28172  28206M 28253M 28284M 28311M 28337M
             28337  28365M 28384M 28384  28413M 28458M 28503M 28521M 28521  28536M 28561M 28583M 28583  28610M 28632M
             28647M 28669M 28684M 28706M 28721M 28743M 28780M 28806M 28833M 28833  29405  29557M 29574M 29598M 29598
             29637M 29665M 29723M 29740M 29768M 29802M 29828M 29828  29845M 29871M 29871  29888M 29914M 29914  29931M
             29957M 29957  30015M 30032M 30189M 30256M 30338M 30457M 30481M 30481  30717M 30745M 30772M 30788  30798M
             30826M 30843M 30868M 30893M 30910M 30935M 30952M 30986M 31012M 31012  31029M 31064M 31106M 31106  31127M
             31162M 31204M 31204  31225M 31260M 31302M 31302  31323M 31361M 31382M 31382  31399M 31437M 31458M 31458
             31475M 31513M 31550M 31578M 31578  31619M 31674M 31726M 31743M 31771M 31788M 31816M 31850M 31850  31876M
             31924M 31948M 31948  32182  32913M 33379  33402M 33404M 33415  33484M 33485M 33849  33865M 33897M 34006M
             34083M 34087  34088  34140M 34186M 34187M 34209  34225  34237M 34577M 34626M 34626  34627M 34636M 34636
             34646M 34658  34665  34666M 34716M 34862  34957M 34958M 34960  34961  35011M 35103M 35227M 35275M 35684
             35697  35715M 35717M 35718M 35860  35877  36088M 36122M 36123M 36124  36126M 36127M 36174M 36176M 36251M
             36252M 36253  36276  36300M 36335M 36335  36353M 36716M 36762M 36763M 36764  36879M 36880M 36882
     1(1)      985U  4332M  4332   4358M  4376   4404M  4483M  4490M  4656   4678M  4678   4703M  4740M  4751M  4756
              4791M  4819M  4850M  4912M  4912   4986M  5071M  5086   5094   5107M  5108M  5232M  5250M  5269M  5351M
              5351   5760M  5852   5869M  5911M  5943M  5943   6070   6175   6187M  6233M  6338   6392   6457M  6458M
              6458   6508M  6522M  6523M  6523   6584M  6608M  6719M  7049M  7072M  7090M  7110M  7128M  7148M  7166M
              7186M  7204M  7460M  7489M  7642   8104M  8203M  8326   8535M  8564M  8585M  8602M  8638M  8661M  8682M
              8705M  8945   9008M  9048M  9102M  9674M  9744M  9798M 10074M 10091M 10108M 10222M 10251M 10314M 10343M
             10426M 10486M 10527M 10557M 11490M 11518M 11563M 11564M 11574U 11587U 11636M 11664M 11693M 11756M 11785M
             12169M 12210M 12238M 12444  12539M 12549M 12559  12588M 12589  12611M 12627M 12628N 12644N 12735M 12741
             12759M 12777M 12846M 13177M 13183M 13425M 13454M 13598  13847M 13876M 13899D 13901M 13901  13902M 13903U
             13923M 13942D 13944M 13944  13945M 13946U 13966M 13985D 13987M 13987  13988M 13989U 14009M 14028D 14030M
             14030  14031M 14032U 14135M 14158M 14187M 14208M 14231M 14299M 14329M 14355M 14437M 14492M 14498  14562M
             14624M 14654M 14680M 14725M 14962M 15029M 15030M 15447M 15461M 15462M 15462  15523M 15865M 15906M 15936M
             16432M 16433M 16433  16486M 16515M 16711  16738M 16745  16783M 16784M 16786M 16810M 16895M 16924M 17243
             17576M 17601M 17618M 17635M 17695M 17731M 17752M 17785M 17837M 17882M 18059M 18088M 18341M 18370M 18433M
             18462M 18620  18827M 18847M 18930M 18931M 18931  18966M 18995M 19058M 19087M 19151M 19267  19294M 19301
             19339M 19340M 19342M 19365M 19473M 19497M 19498M 19498  19580M 19581M 19745  19829M 19835  20125M 20126M
             20181M 20221M 20251M 20420M 20421M 20421  20474M 20503M 20691M 20692M 20692  20730M 20759M 20822M 20851M
             21210M 21234M 21237  22014M 22079M 22106  22129  22147M 22174  22197  22235M 22262  22285  22303M 22330
1         (ELF2047) (12:35) (15MAR04) General Purpose Register Cross Reference                                              Page  220
             22353  22393M 22421M 22442M 22464M 22487M 22526M 23006  23018  23121M 23137M 23145  23176M 23246M 23442M
             23443M 23443  23452M 23452  23483M 23489  23512M 23588M 23593M 23698M 23755M 23793M 23813M 23882M 24048M
             24077M 24157M 24386M 24387M 24862M 24863M 25035M 25074M 25082  25372M 25426M 25554M 25702M 25703M 25703
             25793M 25794M 25881M 25910M 26051M 26091M 26121M 26180M 26439M 26480M 26510M 26643  26754  26787M 26808M
             26830M 26849M 26864M 26883M 26915M 26953M 27063M 27084M 27103M 27150M 27199M 27220M 27239M 27260M 27300M
             27316M 27376M 27397M 27413M 27434M 27450M 27468M 27484M 27502M 27518M 27581M 27602M 27618M 27639M 27655M
             27676M 27692M 27756M 27772M 27791M 27866M 27913M 27936M 27973M 28027M 28063M 28084M 28105M 28130M 28146M
             28205M 28252M 28283M 28300D 28302M 28302  28303M 28304U 28364M 28380M 28412M 28453M 28502M 28517M 28535M
             28556M 28603M 28625M 28646M 28662M 28683M 28699M 28720M 28736M 28779M 28801M 28960  28982M 29355  29391M
             29391  29464M 29496M 29552M 29573M 29636M 29660M 29722M 29739M 29763M 29797M 29820D 29822M 29822  29823M
             29824U 29844M 29863D 29865M 29865  29866M 29867U 29887M 29906D 29908M 29908  29909M 29910U 29930M 29949D
             29951M 29951  29952M 29953U 29971M 30010M 30031M 30188M 30255M 30337M 30456M 30641  30663M 30716M 30740M
             30767M 30797M 30821M 30842M 30886M 30909M 30928M 30951M 30985M 31004D 31006M 31006  31007M 31008U 31028M
             31063M 31098D 31100M 31100  31101M 31102U 31126M 31161M 31196D 31198M 31198  31199M 31200U 31224M 31259M
             31294D 31296M 31296  31297M 31298U 31322M 31360M 31378M 31398M 31436M 31454M 31474M 31512M 31549M 31618M
             31649M 31673M 31719M 31742M 31766M 31787M 31811M 31875M 31923M 32045  32181  32458  32898  32914M 32921
             33277M 33378  33400M 33414  33416  33442M 33485  33849  33858M 33897M 34058M 34074M 34082M 34083  34084M
             34085  34086M 34133M 34181M 34204  34676M 34715M 34861  34933M 34949M 34957  34959M 35004M 35102M 35226M
             35274M 35715  35716M 35717M 35794M 35876  35980M 36026M 36095M 36128M 36134  36175M 36176M 36276  36590M
             36591  36608M 36654M 36723M 36801M 36860M 36870M 36880
     2(2)      981U  4285   4551M  4606   4748M  4778   5046M  5047M  5047   5059   5066   5083M  5099   5109   5312M
              5346   5797M  5826   5875M  5984M  6034   6268M  6294   6844M  6867   7300M  7323   7581M  7616   7860M
              7892M  7994M  8026M  8273M  8300   8793M  8919   9274M  9296  10616M 10641  10685M 10708  11885M 11950
             12325M 12390  12628M 12637M 12637  12644M 12657M 12657  12779M 12782  12794M 12802M 12811M 12811  12818
             13226M 13297  14815M 14851  15190M 15258  15557M 15585  15989M 16012  16286M 16309  16604M 16660  16739M
             16745M 16772  16796  17027M 17050  17140M 17190  17768M 17769M 17769  17785  17817M 18213M 18265  18541M
             18584  19189M 19216  19295M 19301M 19328  19352  19446M 19447M 19463  19489  19558  19559M 19579  19622M
             19684  20104M 20117  20127  20168M 20169M 20170  20344M 20367  20587M 20638  20932M 21085  22106M 22107M
             22108M 22129M 22130M 22130N 22174M 22175M 22176M 22197M 22198M 22198N 22262M 22263M 22264M 22285M 22286M
             22286N 22330M 22331M 22332M 22353M 22354M 22354N 22474M 22475M 22499  22560M 22578M 22778M 22808  22892M
             22948  23125M 23125  23137M 23216  23328  23356D 23358M 23358  23359M 23361M 23377M 23377  23386M 23387N
             23460D 23462M 23462  23463M 23477  23484M 23486M 23488M 23489M 23501  23509M 23521M 23521  23528  23548M
             23587  23757M 23851D 23853M 23853  23854M 23867  23961D 23963M 23963  23964M 23978  24016  24255M 24536
             24727M 25004M 25039M 25039  25074M 25148M 25175  25230M 25299M 25299  25344  25496  25573  25605  25769M
             25770M 25792  26271M 26326  26553M 26617  26700M 26728  27286D 27288M 27288  27289M 27316  27565M 27566M
             27566  28348M 28349M 28380  28403M 28403  28426  28438M 28458  28903M 28934  29009M 29038  29080M 29295
             29405M 29408  29420M 29428M 29437M 29437  29444  30531M 30599  31987M 32019  32128M 32155  32358M 32415
             32586M 32587M 32599  32842M 32872  32915M 32993M 33023  33309M 33336  33414M 33436  33442  33456  33478M
             33484  33567M 33587  33629M 33770  34062M 34062  34074M 34121M 34121  34146N 34216M 34218M 34767M 34796
             34937M 34937  34949M 34992M 34992  35017N 35340M 35453  35640M 35697M 35708  35718  35735  35743M 35758M
             35758  35766M 35768  35860M 36002D 36004M 36004  36005M 36009  36021M 36030M 36039M 36039  36046  36129M
             36134M 36193  36194  36211  36212  36300  36392M 36440  36630D 36632M 36632  36633M 36637  36649M 36658M
             36667M 36667  36674  36922M
     3(3)      977U  4285   4551M  4606   5280M  5298U  5312   5315M  5316M  5316   5343U  5797M  5826   5984M  6034
              6268M  6294   6738M  6748U  6764M  6765M  6765   6789U  6844M  6867   6982M  6992U  7008M  7009M  7009
              7267U  7300M  7323   7392M  7402U  7418M  7419M  7419   7553U  7581M  7616   7861M  7868M  7878   7885M
              7886M  7904   7995M  8002M  8012   8019M  8020M  8038   8273M  8300   8793M  8919   9274M  9296  10616M
             10641  10685M 10708  11885M 11950  12325M 12390  13226M 13297  14815M 14851  15190M 15258  15557M 15585
             15989M 16012  16286M 16309  16604M 16660  17027M 17050  17140M 17190  17672M 17682U 17907U 18213M 18265
             18541M 18584  19189M 19216  19622M 19684  20344M 20367  20587M 20638  20932M 21085  22778M 22808  22892M
             22948  23145M 23146M 23181  23197  23198  24255M 24536  25040M 25058M 25115M 25116M 25117  25731M 25731
             25736  25741  25746  25751  26271M 26326  26401M 26411U 26521U 26553M 26617  26700M 26728  28903M 28934
             29009M 29038  29080M 29295  30531M 30599  31987M 32019  32128M 32155  32358M 32415  32842M 32872  32993M
             33023  33309M 33336  33415M 33416M 33436  33456  33587  33629M 33770  34217M 34218M 34603M 34603  34617
             34627N 34699M 34767M 34796  35340M 35453  35721M 35742M 35886M 35896U 36291U 36392M 36440  36922M
     4(4)      973U  4285   4551M  4606   5797M  5826   5984M  6034   6268M  6294   6844M  6867   7300M  7323   7581M
              7616   7861M  7878   7995M  8012   8273M  8300   8793M  8919   9274M  9296  10616M 10641  10685M 10708
             11885M 11950  12325M 12390  12718M 12729M 12729  13143M 13226M 13297  13509M 13516M 13528  13538M 13538
             13554  13563  13826  13827  13853  14815M 14851  15190M 15258  15557M 15585  15989M 16012  16286M 16309
1         (ELF2047) (12:35) (15MAR04) General Purpose Register Cross Reference                                              Page  221
             16604M 16660  16712M 16717  16815  17027M 17050  17140M 17190  17244M 17256M 17256  18158M 18213M 18265
             18541M 18584  19189M 19216  19268M 19273  19370  19622M 19684  20344M 20367  20587M 20638  20932M 21085
             22778M 22808  22892M 22948  24255M 24536  25082M 25083M 25116  25119  25120  25462M 25472U 25971U 25996M
             26006U 26038M 26132U 26271M 26326  26553M 26617  26700M 26728  27804M 27811M 27821  27828M 27829M 28856
             28867U 28903M 28934  29009M 29038  29080M 29295  30531M 30599  31654M 31711U 31719  31834U 31987M 32019
             32128M 32155  32186M 32202U 32216M 32217M 32217  32248U 32264M 32264  32279U 32336U 32358M 32415  32842M
             32872  32993M 33023  33056M 33056  33113M 33194M 33194  33245  33264  33309M 33336  33420M 33420  33570M
             33601  33629M 33770  33932M 34599M 34698M 34767M 34796  35340M 35453  35720M 36392M 36440  36922M
     5(5)      969U  4285   4551M  4606   4756M  4766U  5295U  5338U  5346   5772U  5797M  5826   5984M  6034   6268M
              6294   6613M  6623U  6648U  6653M  6677M  6677   6692U  6720M  6730U  6844M  6867   6933M  6943U  7277U
              7300M  7323   7581M  7616   7861M  7885   7995M  8019   8273M  8300   8793M  8919   9274M  9296   9453M
              9471U  9513U 10445M 10463U 10577U 10616M 10641  10685M 10708  11885M 11950  12325M 12390  12458M 12468U
             13204U 13226M 13297  13563M 13564M 13565M 14576M 14586U 14778U 14815M 14851  15190M 15258  15557M 15585
             15827M 15837U 15947U 15989M 16012  16286M 16309  16604M 16660  16711M 16810  17027M 17050  17140M 17190
             17243M 18088  18156M 18213M 18265  18541M 18584  18701M 18702M 18703  18738  18922  19189M 19216  19267M
             19365  19405M 19415U 19557M 19558M 19572  19582  19592U 19622M 19684  20344M 20367  20587M 20638  20932M
             21085  22778M 22808  22892M 22948  23019M 23095M 23095  23101  23198M 23300M 23345  23384M 23426  23839M
             23839  23908M 23923M 23923  23935M 23950M 23950  24104M 24119M 24119  24130M 24255M 24354  24360  24364M
             24364  24381M 24385  24386  24536  24647M 24693  24780M 24780  24854  24865M 24866  24943  24949M 24966M
             24976  25120M 25192  25771M 25772M 25785  25795  26271M 26326  26553M 26617  26700M 26728  26992M 26995
             27007  27096  27746M 27804M 27821  28903M 28934  29009M 29038  29080M 29295  30531M 30599  31632M 31643M
             31643  31865M 31987M 32019  32128M 32155  32182M 32283M 32292M 32292  32302M 32302  32307  32319  32326
             32358M 32415  32487M 32488M 32488  32509U 32515M 32516M 32516  32529M 32663  32741  32763  32777U 32842M
             32872  32933M 32934M 32934  32964  32993M 33023  33057M 33073U 33087M 33088M 33088  33103  33113  33119U
             33137M 33137  33154  33182U 33257  33291U 33309M 33336  33424M 33424  33563M 33564M 33610M 33610  33615
             33629M 33770  33931M 33944M 33944  33950  33990M 33992M 34020M 34032M 34032  34038  34088M 34143M 34767M
             34796  34863M 34978  35109  35248  35296  35340M 35453  35536M 35546U 36369U 36392M 36440  36543M 36544M
             36544  36559U 36811U 36922M
     6(6)      965U  4285   4551M  4606   5797M  5826   5984M  6034   6268M  6294   6400M  6400   6414   6420   6599M
              6844M  6867   7300M  7323   7581M  7616   7696M  7706U  8251U  8273M  8300   8793M  8919   9274M  9296
             10616M 10641  10685M 10708  11885M 11950  12130M 12140U 12169  12198U 12325M 12390  13226M 13297  13349M
             13359U 13374M 13375M 13375  13613  14793U 14815M 14851  15190M 15258  15557M 15585  15989M 16012  16286M
             16309  16604M 16660  17027M 17050  17140M 17190  18213M 18265  18541M 18584  18744M 18754U 18904U 19189M
             19216  19556M 19559  19567  19622M 19684  19745M 19755U 20317U 20344M 20367  20587M 20638  20932M 21085
             21167M 21177U 22745U 22778M 22808  22892M 22948  23018M 23146  23176  23197M 23298M 23383M 23435  23484
             23906M 23933M 24077  24102M 24128M 24255M 24360M 24383  24536  24644M 24645M 24645  24849  24965M 25083
             25119M 25768M 25769  25780  26271M 26326  26553M 26617  26700M 26728  26993M 26994M 26995M 27007  27804M
             27828  28903M 28934  29009M 29038  29080M 29295  30531M 30599  31987M 32019  32045M 32128M 32155  32181M
             32234  32358M 32415  32842M 32872  32898M 32908U 32921M 32946  32947  32964  32965  32981U 32993M 33023
             33049M 33103  33309M 33336  33629M 33770  33931M 33989M 33989N 34020M 34082  34086  34087M 34133  34141M
             34767M 34796  34862M 34907M 34907  34913  34961M 35014M 35340M 35453  36392M 36440  36489M 36499U 36899U
             36922M
     7(7)      961U  4285   4311M  4321U  4339   4411   4539U  4551M  4606   4642M  4652U  4685   4798   4903   4919
              4981   5782U  5797M  5826   5984M  6034   6268M  6294   6396M  6844M  6867   7300M  7323   7581M  7616
              7681M  7691U  8256U  8273M  8300   8793M  8919   8984M  8994U  9247U  9274M  9296   9358U  9468U  9508U
             10460U 10572U 10589U 10616M 10641  10685M 10708  10780U 11852U 11885M 11950  12017M 12027U 12298U 12325M
             12390  12422M 12432U 13214U 13226M 13297  13341U 14798U 14815M 14851  14895U 15173U 15190M 15258  15302U
             15540U 15557M 15585  15629U 15972U 15989M 16012  16056U 16269U 16286M 16309  16353U 16587U 16604M 16660
             17027M 17050  17140M 17190  18213M 18265  18541M 18584  19189M 19216  19622M 19684  19760M 19770U 20312U
             20344M 20367  20587M 20638  20932M 21085  21152M 21162U 22750U 22778M 22808  22892M 22948  23015M 23071
             23187  23259  23286  23711  23738  23800  23820  24164  24255M 24318  24406M 24536  26271M 26326  26553M
             26617  26656M 26666U 26683U 26700M 26728  26767M 26777U 26800  26815  26841  26856  26874  26890  26922
             26960  26986  27054  27076  27091  27113  27135  27161  27206  27231  27246  27271  27307  27326  27361
             27389  27404  27426  27441  27460  27475  27494  27509  27528  27550  27594  27609  27631  27646  27668
             27683  27705  27727  27763  27779  27798  27895  27958  27984  28034  28076  28091  28118  28137  28156
             28178  28212  28259  28290  28317  28343  28371  28390  28419  28464  28509  28527  28542  28567  28589
             28616  28638  28653  28675  28690  28712  28727  28749  28786  28812  28839  28886U 28903M 28934  29009M
             29038  29080M 29295  29370M 29380U 30503U 30531M 30599  30676M 30692U 30706M 30707M 30707  31596U 31987M
             32019  32128M 32155  32358M 32415  32842M 32872  32993M 33023  33309M 33336  33629M 33770  33824U 34744U
1         (ELF2047) (12:35) (15MAR04) General Purpose Register Cross Reference                                              Page  222
             34767M 34796  34861M 34958  34959  34960M 35004  35012M 35340M 35453  36392M 36440  36922M
     8(8)      957U  4285   4286M  4297U  4544U  4551M  4606   4608M  4619U  5789U  5797M  5826   5827M  5838U  5977U
              5984M  6034   6036M  6047U  6260U  6268M  6294   6296M  6307U  6836U  6844M  6867   6869M  6880U  7292U
              7300M  7323   7325M  7336U  7573U  7581M  7616   7617M  7628U  8266U  8273M  8300   8301M  8312U  8786U
              8793M  8919   8920M  8931U  9267U  9274M  9296   9297M  9308U 10609U 10616M 10641  10642M 10653U 10678U
             10685M 10708  10710M 10721U 11877U 11885M 11950  11951M 11962U 12318U 12325M 12390  12391M 12402U 13219U
             13226M 13297  13298M 13309U 14808U 14815M 14851  14852M 14863U 15183U 15190M 15258  15259M 15270U 15550U
             15557M 15585  15586M 15597U 15982U 15989M 16012  16013M 16024U 16279U 16286M 16309  16310M 16321U 16597U
             16604M 16660  16661M 16672U 17020U 17027M 17050  17051M 17062U 17133U 17140M 17190  17191M 17202U 18206U
             18213M 18265  18266M 18277U 18534U 18541M 18584  18586M 18597U 19181U 19189M 19216  19217M 19228U 19615U
             19622M 19684  19685M 19696U 20337U 20344M 20367  20368M 20379U 20580U 20587M 20638  20639M 20650U 20925U
             20932M 21085  21087M 21098U 22770U 22778M 22808  22809M 22820U 22885U 22892M 22948  22950M 22961U 24247U
             24255M 24318  24319M 24330U 24399U 24406M 24536  24538M 24549U 26263U 26271M 26326  26327M 26338U 26546U
             26553M 26617  26618M 26629U 26693U 26700M 26728  26729M 26740U 28896U 28903M 28934  28935M 28946U 29002U
             29009M 29038  29039M 29050U 29073U 29080M 29295  29297M 29308U 30523U 30531M 30599  30600M 30611U 31980U
             31987M 32019  32020M 32031U 32121U 32128M 32155  32156M 32167U 32351U 32358M 32415  32417M 32428U 32834U
             32842M 32872  32873M 32884U 32986U 32993M 33023  33024M 33035U 33302U 33309M 33336  33337M 33348U 33622U
             33629M 33770  33772M 33783U 34759U 34767M 34796  34797M 34808U 35333U 35340M 35453  35455M 35466U 36384U
             36392M 36440  36442M 36453U 36914U 36922M
     9(9)      953U  4285   4551M  4606   5797M  5826   5984M  6034   6268M  6294   6844M  6867   7300M  7323   7581M
              7616   8273M  8300   8326M  8335U  8781U  8793M  8919   8945M  8954U  9262U  9274M  9296   9348U 10413
             10426  10430M 10430  10435  10594U 10616M 10641  10685M 10708  10770U 11636  11640M 11640  11645  11857U
             11885M 11950  12002U 12303U 12325M 12390  13226M 13297  14498M 14507U 14783U 14815M 14851  15190M 15258
             15557M 15585  15756M 15757M 15757  15781U 15956U 15989M 16012  16286M 16309  16604M 16660  17027M 17050
             17140M 17190  18213M 18265  18541M 18584  19189M 19216  19622M 19684  19731M 19740U 19797M 19797  19835M
             20322U 20344M 20367  20587M 20638  20932M 21085  22778M 22808  22892M 22948  23024M 23025M 23025  23035U
             24227U 24255M 24318  24406M 24536  24628M 24637U 24720M 24720  26243U 26271M 26326  26376M 26377M 26377
             26397U 26526U 26553M 26617  26700M 26728  27176M 27177M 27177  27191U 27340U 28903M 28934  29009M 29038
             29080M 29295  30531M 30599  31987M 32019  32128M 32155  32358M 32415  32842M 32872  32993M 33023  33309M
             33336  33629M 33770  33814U 34749U 34767M 34796  34830U 35328U 35340M 35453  36392M 36440  36922M
    10(A)      949U  4285   4551M  4606   5797M  5826   5984M  6034   6268M  6294   6424M  6425M  6425   6445U  6594U
              6844M  6867   7300M  7323   7581M  7616   7965M  7968M  7969M  7969   7986U  8055U  8273M  8300   8341M
              8342M  8342   8365U  8776U  8793M  8919   8958M  8967U  9257U  9274M  9296   9339U 10599U 10616M 10641
             10685M 10708  10761U 11862U 11885M 11950  11993U 12308U 12325M 12390  13226M 13297  13598M 13607U 13611
             14788U 14815M 14851  14929M 14938U 15168U 15190M 15258  15336M 15345U 15535U 15557M 15585  15663M 15672U
             15967U 15989M 16012  16090M 16099U 16264U 16286M 16309  16387M 16396U 16582U 16604M 16660  16703U 17010U
             17027M 17050  17084U 17128U 17140M 17190  17233U 18196U 18213M 18265  18308U 18524U 18541M 18584  18620M
             18629U 18689  19171U 19189M 19216  19259U 19605U 19622M 19684  19727U 20327U 20344M 20367  20410U 20570U
             20587M 20638  20681U 20915U 20932M 21085  21147U 22755U 22778M 22808  22842U 22880U 22892M 22948  23001U
             24232U 24255M 24318  24406M 24536  24589U 26248U 26271M 26326  26369U 26536U 26553M 26617  26700M 26728
             27022M 27023M 27023  27037U 27063  27741U 28903M 28934  29009M 29038  29080M 29295  29355M 29365U 29398
             29503  30508U 30531M 30599  30641M 30651U 30670  31970U 31987M 32019  32128M 32155  32358M 32415  32842M
             32872  32993M 33023  33309M 33336  33629M 33770  33828M 33837U 34739U 34767M 34796  34834M 34843U 35323U
             35340M 35453  35609U 35649U 36392M 36440  36922M
    11(B)      945U  4285   4376M  4385U  4534U  4551M  4606   4656M  4665U  5777U  5797M  5826   5852M  5861U  5972U
              5984M  6034   6070M  6079U  6118   6250U  6268M  6294   6338M  6347U  6386   6826U  6844M  6867   6919U
              6931   7282U  7300M  7323   7375U  7388   7563U  7581M  7616   7642M  7651U  8261U  8273M  8300   8397M
              8398M  8398   8421U  8771U  8793M  8919   8971M  8980U  9252U  9274M  9296   9330U 10604U 10616M 10641
             10685M 10708  10752U 11867U 11885M 11950  11984U 12313U 12325M 12390  12444M 12453U 13209U 13226M 13297
             13331U 13612  14803U 14815M 14851  14885U 15178U 15190M 15258  15292U 15545U 15557M 15585  15619U 15977U
             15989M 16012  16046U 16274U 16286M 16309  16343U 16592U 16604M 16660  16694U 17015U 17027M 17050  17140M
             17190  17224U 18201U 18213M 18265  18299U 18529U 18541M 18584  18659M 18668U 18688  19166U 19189M 19216
             19250U 19610U 19622M 19684  19718U 20332U 20344M 20367  20401U 20575U 20587M 20638  20672U 20920U 20932M
             21085  21138U 22760U 22778M 22808  22892M 22948  22992U 24237U 24255M 24318  24406M 24536  24580U 26253U
             26271M 26326  26360U 26541U 26553M 26617  26643M 26652U 26688U 26700M 26728  26754M 26763U 26787  28891U
             28903M 28934  28960M 28969U 28997U 29009M 29038  29080M 29295  29339M 29349U 29565  29582  29606  29645
             29673  29731  29748  29776  30023  30040  30197  30264  30346  30448  30465  30489  30513U 30531M 30599
             30625M 30635U 30725  30753  30806  30834  30851  30876  30901  30918  30943  30960  30994  31020  31037
             31072  31114  31135  31170  31212  31233  31268  31310  31331  31369  31390  31407  31445  31466  31483
1         (ELF2047) (12:35) (15MAR04) General Purpose Register Cross Reference                                              Page  223
             31521  31558  31586  31627  31682  31734  31751  31779  31796  31824  31858  31884  31915  31932  31956
             31975U 31987M 32019  32128M 32155  32358M 32415  32842M 32872  32993M 33023  33309M 33336  33629M 33770
             34767M 34796  34847M 34856U 35318U 35340M 35453  35505U 36374U 36392M 36440  36484U 36904U 36922M
    12(C)      941U  1189U
    13(D)      937U  4282   4285   4301M  4303   4303   4304   4304   4305   4548M  4548   4551   4553   4555   4555
              4603   4606   4623M  4625   4625   4626   4626   4627   4638U  5066   5067M  5069   5069   5070   5070
              5080M  5080   5083   5085   5085   5404   5407   5408M  5410   5410   5411   5411   5412   5419U  5485M
              5485   5488   5490   5492   5492   5549   5552   5553M  5555   5555   5556   5556   5557   5644M  5644
              5647   5649   5651   5651   5793M  5793   5797   5799   5801   5801   5823   5826   5842M  5844   5844
              5845   5845   5846   5981M  5981   5984   5986   5988   5988   6031   6034   6051M  6053   6053   6054
              6054   6055   6066U  6255U  6264M  6264   6268   6270   6272   6272   6291   6294   6311M  6313   6313
              6314   6314   6315   6326U  6831U  6840M  6840   6844   6846   6848   6848   6864   6867   6884M  6886
              6886   6887   6887   6888   6899U  7287U  7296M  7296   7300   7302   7304   7304   7320   7323   7340M
              7342   7342   7343   7343   7344   7355U  7568U  7577M  7577   7581   7583   7585   7585   7613   7616
              7632M  7634   7634   7635   7635   7636   8270M  8270   8273   8275   8277   8277   8297   8300   8316M
              8318   8318   8319   8319   8320   8790M  8790   8793   8795   8797   8797   8916   8919   8935M  8937
              8937   8938   8938   8939   9271M  9271   9274   9276   9278   9278   9293   9296   9312M  9314   9314
              9315   9315   9316  10613M 10613  10616  10618  10620  10620  10638  10641  10657M 10659  10659  10660
             10660  10661  10682M 10682  10685  10687  10689  10689  10705  10708  10725M 10727  10727  10728  10728
             10729  10740U 11872U 11881M 11881  11885  11887  11889  11889  11947  11950  11966M 11968  11968  11969
             11969  11970  12013M 12015  12015  12016  12016  12017  12126M 12128  12128  12129  12129  12130  12188M
             12188  12191  12191  12287M 12287  12290  12290  12322M 12322  12325  12327  12329  12329  12387  12390
             12406M 12408  12408  12409  12409  12410  12418M 12420  12420  12421  12421  12422  13194M 13194  13197
             13197  13223M 13223  13226  13228  13230  13230  13294  13297  13313M 13315  13315  13316  13316  13317
             14812M 14812  14815  14817  14819  14819  14848  14851  14867M 14869  14869  14870  14870  14871  15187M
             15187  15190  15192  15194  15194  15255  15258  15274M 15276  15276  15277  15277  15278  15554M 15554
             15557  15559  15561  15561  15582  15585  15601M 15603  15603  15604  15604  15605  15986M 15986  15989
             15991  15993  15993  16009  16012  16028M 16030  16030  16031  16031  16032  16283M 16283  16286  16288
             16290  16290  16306  16309  16325M 16327  16327  16328  16328  16329  16601M 16601  16604  16606  16608
             16608  16657  16660  16676M 16678  16678  16679  16679  16680  17024M 17024  17027  17029  17031  17031
             17047  17050  17066M 17068  17068  17069  17069  17070  17137M 17137  17140  17142  17144  17144  17187
             17190  17206M 17208  17208  17209  17209  17210  18210M 18210  18213  18215  18217  18217  18262  18265
             18281M 18283  18283  18284  18284  18285  18538M 18538  18541  18543  18545  18545  18581  18584  18601M
             18603  18603  18604  18604  18605  18616U 19176U 19185M 19185  19189  19191  19193  19193  19213  19216
             19232M 19234  19234  19235  19235  19236  19619M 19619  19622  19624  19626  19626  19681  19684  19700M
             19702  19702  19703  19703  19704  20341M 20341  20344  20346  20348  20348  20364  20367  20383M 20385
             20385  20386  20386  20387  20584M 20584  20587  20589  20591  20591  20635  20638  20654M 20656  20656
             20657  20657  20658  20929M 20929  20932  20934  20936  20936  21082  21085  21102M 21104  21104  21105
             21105  21106  21117U 22765U 22774M 22774  22778  22780  22782  22782  22805  22808  22824M 22826  22826
             22827  22827  22828  22889M 22889  22892  22894  22896  22896  22945  22948  22965M 22967  22967  22968
             22968  22969  22980U 24242U 24251M 24251  24255  24257  24259  24259  24315  24318  24334M 24336  24336
             24337  24337  24338  24403M 24403  24406  24408  24410  24410  24533  24536  24553M 24555  24555  24556
             24556  24557  24568U 26258U 26267M 26267  26271  26273  26275  26275  26323  26326  26342M 26344  26344
             26345  26345  26346  26550M 26550  26553  26555  26557  26557  26614  26617  26633M 26635  26635  26636
             26636  26637  26697M 26697  26700  26702  26704  26704  26725  26728  26744M 26746  26746  26747  26747
             26748  27869M 27871  27871  27872  27872  27873  27901M 27901  27904  27904  28900M 28900  28903  28905
             28907  28907  28931  28934  28950M 28952  28952  28953  28953  28954  29006M 29006  29009  29011  29013
             29013  29035  29038  29054M 29056  29056  29057  29057  29058  29077M 29077  29080  29082  29084  29084
             29292  29295  29312M 29314  29314  29315  29315  29316  29327U 30150  30151M 30153  30153  30154  30154
             30161M 30161  30164  30166  30166  30217  30218M 30220  30220  30221  30221  30228M 30228  30231  30233
             30233  30299  30300M 30302  30302  30303  30303  30310M 30310  30313  30315  30315  30518U 30527M 30527
             30531  30533  30535  30535  30596  30599  30615M 30617  30617  30618  30618  30619  31984M 31984  31987
             31989  31991  31991  32016  32019  32035M 32037  32037  32038  32038  32039  32125M 32125  32128  32130
             32132  32132  32152  32155  32171M 32173  32173  32174  32174  32175  32355M 32355  32358  32360  32362
             32362  32412  32415  32432M 32434  32434  32435  32435  32436  32447U 32829U 32838M 32838  32842  32844
             32846  32846  32869  32872  32888M 32890  32890  32891  32891  32892  32990M 32990  32993  32995  32997
             32997  33020  33023  33039M 33041  33041  33042  33042  33043  33306M 33306  33309  33311  33313  33313
             33333  33336  33352M 33354  33354  33355  33355  33356  33626M 33626  33629  33631  33633  33633  33767
             33770  33787M 33789  33789  33790  33790  33791  33802U 34754U 34763M 34763  34767  34769  34771  34771
1         (ELF2047) (12:35) (15MAR04) General Purpose Register Cross Reference                                              Page  224
             34793  34796  34812M 34814  34814  34815  34815  34816  35337M 35337  35340  35342  35344  35344  35450
             35453  35470M 35472  35472  35473  35473  35474  35485U 36379U 36388M 36388  36392  36394  36396  36396
             36437  36440  36457M 36459  36459  36460  36460  36461  36472U 36909U 36918M 36918  36922  36924  36926
             36926
    14(E)      933U  1617B  1627B  4282   4342M  4343M  4343B  4374M  4375M  4375B  4414M  4415M  4415B  4487M  4488M
              4488B  4517B  4520B  4523B  4526B  4553M  4557B  4603   4688M  4689M  4689B  4725M  4726M  4726B  4754M
              4755M  4755B  4801M  4802M  4802B  4831M  4832M  4832B  4866M  4867M  4867B  4879M  4880M  4880B  4906M
              4907M  4907B  4922M  4923M  4923B  4958M  4959M  4959B  4984M  4985M  4985B  5010M  5011M  5011B  5034M
              5035M  5035B  5074M  5075M  5075B  5094M  5108M  5244M  5245M  5245B  5265M  5266M  5266B  5404   5490M
              5494B  5538B  5549   5578M  5579M  5579B  5649M  5653B  5656B  5671B  5680B  5689B  5698B  5707B  5716B
              5726B  5729B  5732B  5756M  5757M  5757B  5799M  5803B  5823   5872M  5873M  5873B  5914M  5915M  5915B
              5937M  5938M  5938B  5954M  5955M  5955B  5986M  5990B  6031   6173M  6174M  6174B  6190M  6191M  6191B
              6236M  6237M  6237B  6270M  6274B  6291   6390M  6391M  6391B  6473M  6474M  6474B  6511M  6512M  6512B
              6545M  6546M  6546B  6577M  6578M  6578B  6587M  6588M  6588B  6611M  6612M  6612B  6723M  6724M  6724B
              6846M  6850B  6864   6977M  6978M  6978B  7067M  7068M  7068B  7084M  7085M  7085B  7105M  7106M  7106B
              7122M  7123M  7123B  7143M  7144M  7144B  7160M  7161M  7161B  7181M  7182M  7182B  7198M  7199M  7199B
              7219M  7220M  7220B  7243M  7244M  7244B  7302M  7306B  7320   7478M  7479M  7479B  7505M  7506M  7506B
              7529M  7530M  7530B  7583M  7587B  7613   7711M  7723   7740   7747M  7752M  7753M  7754M  7754N  7755B
              7772   7782M  7782   7787M  7788M  7788N  7789B  8107M  8108M  8108B  8132M  8133M  8133B  8206M  8207M
              8207B  8275M  8279B  8297   8520M  8521M  8521B  8553M  8554M  8554B  8580M  8581M  8581B  8597M  8598M
              8598B  8617M  8618M  8618B  8650M  8651M  8651B  8677M  8678M  8678B  8694M  8695M  8695B  8721M  8722M
              8722B  8749M  8750M  8750B  8795M  8799B  8916   9010M  9050M  9152M  9183M  9214M  9276M  9280B  9293
              9692M  9693M  9693B  9762M  9763M  9763B  9806M  9807M  9807B  9859M  9860M  9860B  9945M  9946M  9946B
             10086M 10087M 10087B 10103M 10104M 10104B 10120M 10121M 10121B 10144M 10145M 10145B 10166M 10167M 10167B
             10207M 10208M 10208B 10240M 10241M 10241B 10267M 10268M 10268B 10291M 10292M 10292B 10332M 10333M 10333B
             10359M 10360M 10360B 10383M 10384M 10384B 10438M 10439M 10439B 10488M 10529M 10561M 10562M 10562B 10618M
             10622B 10638  10687M 10691B 10705  10790M 11506M 11507M 11507B 11533M 11534M 11534B 11612M 11613M 11613B
             11648M 11649M 11649B 11682M 11683M 11683B 11709M 11710M 11710B 11733M 11734M 11734B 11774M 11775M 11775B
             11801M 11802M 11802B 11825M 11826M 11826B 11887M 11891B 11947  12185M 12186M 12186B 12226M 12227M 12227B
             12254M 12255M 12255B 12279M 12280M 12280B 12327M 12331B 12378B 12387  12677M 12678M 12678B 12709M 12710M
             12710B 12738M 12739M 12739B 12761M 12925M 12926M 12926B 12960M 12961M 12961B 13011M 13012M 13012B 13046M
             13047M 13047B 13081M 13082M 13082B 13116M 13117M 13117B 13180M 13181M 13181B 13186M 13187M 13187B 13228M
             13232B 13294  13443M 13444M 13444B 13470M 13471M 13471B 13494M 13495M 13495B 13596M 13597M 13597B 13850M
             13851M 13851B 13892M 13893M 13893B 13918M 13919M 13919B 13935M 13936M 13936B 13961M 13962M 13962B 13978M
             13979M 13979B 14004M 14005M 14005B 14021M 14022M 14022B 14047M 14048M 14048B 14131M 14132M 14132B 14139M
             14140M 14140B 14176M 14177M 14177B 14203M 14204M 14204B 14220M 14221M 14221B 14247M 14248M 14248B 14271M
             14272M 14272B 14302M 14303M 14303B 14333M 14334M 14334B 14373M 14374M 14374B 14397M 14398M 14398B 14453M
             14454M 14454B 14477M 14478M 14478B 14496M 14497M 14497B 14565M 14566M 14566B 14642M 14643M 14643B 14670M
             14671M 14671B 14684M 14685M 14685B 14716M 14717M 14717B 14733M 14734M 14734B 14757M 14758M 14758B 14817M
             14821B 14848  15072M 15103M 15134M 15192M 15196B 15255  15450M 15451M 15451B 15484M 15485M 15485B 15516M
             15517M 15517B 15526M 15527M 15527B 15559M 15563B 15582  15867M 15908M 15940M 15941M 15941B 15991M 15995B
             16009  16168M 16199M 16230M 16288M 16292B 16306  16448M 16449M 16449B 16504M 16505M 16505B 16531M 16532M
             16532B 16555M 16556M 16556B 16606M 16610B 16657  16739  16742M 16743M 16743B 16772M 16784M 16789M 16790M
             16790B 16819M 16820M 16820B 16880M 16881M 16881B 16913M 16914M 16914B 16940M 16941M 16941B 16964M 16965M
             16965B 16997M 16998M 16998B 17029M 17033B 17047  17116M 17117M 17117B 17142M 17146B 17187  17579M 17580M
             17580B 17613M 17614M 17614B 17630M 17631M 17631B 17647M 17648M 17648B 17713M 17714M 17714B 17747M 17748M
             17748B 17764M 17765M 17765B 17800M 17801M 17801B 17852M 17853M 17853B 17900M 17901M 17901B 18077M 18078M
             18078B 18106M 18107M 18107B 18187M 18188M 18188B 18215M 18219B 18262  18326M 18327M 18327B 18359M 18360M
             18360B 18386M 18387M 18387B 18410M 18411M 18411B 18451M 18452M 18452B 18478M 18479M 18479B 18502M 18503M
             18503B 18543M 18547B 18581  18684M 18685M 18685B 18812M 18813M 18813B 18842M 18843M 18843B 18859M 18860M
             18860B 18890M 18891M 18891B 18946M 18947M 18947B 18984M 18985M 18985B 19011M 19012M 19012B 19035M 19036M
             19036B 19076M 19077M 19077B 19103M 19104M 19104B 19127M 19128M 19128B 19155M 19156M 19156B 19191M 19195B
             19213  19295  19298M 19299M 19299B 19328M 19340M 19345M 19346M 19346B 19381M 19382M 19382B 19439M 19475M
             19521M 19522M 19522B 19567M 19581M 19624M 19628B 19681  19823M 19833M 19834M 19834B 19988M 20112M 20126M
             20150M 20151M 20151B 20183M 20223M 20274M 20275M 20275B 20294M 20295M 20295B 20346M 20350B 20364  20436M
             20437M 20437B 20492M 20493M 20493B 20519M 20520M 20520B 20543M 20544M 20544B 20589M 20593B 20635  20707M
             20708M 20708B 20748M 20749M 20749B 20775M 20776M 20776B 20799M 20800M 20800B 20840M 20841M 20841B 20867M
             20868M 20868B 20891M 20892M 20892B 20934M 20938B 21082  21251M 21252M 21252B 21280M 21281M 21281B 21368M
             21369M 21369B 21494M 21495M 21495B 21582M 21583M 21583B 21670M 21671M 21671B 21796M 21797M 21797B 21825M
1         (ELF2047) (12:35) (15MAR04) General Purpose Register Cross Reference                                              Page  225
             21826M 21826B 21854M 21855M 21855B 21884M 21885M 21885B 21914M 21915M 21915B 21944M 21945M 21945B 21974M
             21975M 21975B 22022M 22023M 22023B 22026M 22027M 22027B 22087M 22088M 22088B 22155M 22156M 22156B 22243M
             22244M 22244B 22311M 22312M 22312B 22409M 22410M 22410B 22437M 22438M 22438B 22454M 22455M 22455B 22472M
             22473M 22473B 22510M 22511M 22511B 22542M 22543M 22543B 22732M 22733M 22733B 22780M 22784B 22805  22894M
             22898B 22945  23074M 23075M 23075B 23190M 23191M 23191B 23262M 23263M 23263B 23289M 23290M 23290B 23292M
             23387M 23388B 23591M 23592M 23592B 23597M 23598M 23598B 23714M 23715M 23715B 23741M 23742M 23742B 23744M
             23783M 23784M 23784B 23803M 23804M 23804B 23823M 23824M 23824B 23900M 23901M 23901B 24066M 24067M 24067B
             24095M 24096M 24096B 24167M 24168M 24168B 24214M 24215M 24215B 24257M 24261B 24315  24383M 24387M 24408M
             24412B 24533  24849M 24863M 25384M 25385M 25385B 25444M 25445M 25445B 25673M 25674M 25674B 25726M 25727M
             25727B 25780M 25794M 25866M 25867M 25867B 25899M 25900M 25900B 25926M 25927M 25927B 25950M 25951M 25951B
             26053M 26093M 26125M 26126M 26126B 26183M 26184M 26184B 26230M 26231M 26231B 26273M 26277B 26323  26441M
             26482M 26514M 26515M 26515B 26555M 26559B 26614  26674M 26675M 26675B 26702M 26706B 26725  26803M 26804M
             26804B 26818M 26819M 26819B 26844M 26845M 26845B 26859M 26860M 26860B 26877M 26878M 26878B 26893M 26894M
             26894B 26925M 26926M 26926B 26963M 26964M 26964B 26989M 26990M 26990B 27057M 27058M 27058B 27079M 27080M
             27080B 27094M 27095M 27095B 27116M 27117M 27117B 27138M 27139M 27139B 27164M 27165M 27165B 27209M 27210M
             27210B 27234M 27235M 27235B 27249M 27250M 27250B 27274M 27275M 27275B 27310M 27311M 27311B 27329M 27330M
             27330B 27364M 27365M 27365B 27392M 27393M 27393B 27407M 27408M 27408B 27429M 27430M 27430B 27444M 27445M
             27445B 27463M 27464M 27464B 27478M 27479M 27479B 27497M 27498M 27498B 27512M 27513M 27513B 27531M 27532M
             27532B 27553M 27554M 27554B 27597M 27598M 27598B 27612M 27613M 27613B 27634M 27635M 27635B 27649M 27650M
             27650B 27671M 27672M 27672B 27686M 27687M 27687B 27708M 27709M 27709B 27730M 27731M 27731B 27766M 27767M
             27767B 27782M 27783M 27783B 27801M 27802M 27802B 27876M 27877M 27877B 27898M 27899M 27899B 27961M 27962M
             27962B 27987M 27988M 27988B 28037M 28038M 28038B 28079M 28080M 28080B 28094M 28095M 28095B 28121M 28122M
             28122B 28140M 28141M 28141B 28159M 28160M 28160B 28181M 28182M 28182B 28215M 28216M 28216B 28262M 28263M
             28263B 28293M 28294M 28294B 28320M 28321M 28321B 28346M 28347M 28347B 28374M 28375M 28375B 28393M 28394M
             28394B 28422M 28423M 28423B 28467M 28468M 28468B 28512M 28513M 28513B 28530M 28531M 28531B 28545M 28546M
             28546B 28570M 28571M 28571B 28592M 28593M 28593B 28619M 28620M 28620B 28641M 28642M 28642B 28656M 28657M
             28657B 28678M 28679M 28679B 28693M 28694M 28694B 28715M 28716M 28716B 28730M 28731M 28731B 28752M 28753M
             28753B 28789M 28790M 28790B 28815M 28816M 28816B 28842M 28843M 28843B 28905M 28909B 28931  28985M 28986M
             28986B 29011M 29015B 29035  29082M 29086B 29292  29401M 29402M 29402B 29467M 29468M 29468B 29506M 29507M
             29507B 29568M 29569M 29569B 29585M 29586M 29586B 29609M 29610M 29610B 29648M 29649M 29649B 29676M 29677M
             29677B 29734M 29735M 29735B 29751M 29752M 29752B 29779M 29780M 29780B 29813M 29814M 29814B 29839M 29840M
             29840B 29856M 29857M 29857B 29882M 29883M 29883B 29899M 29900M 29900B 29925M 29926M 29926B 29942M 29943M
             29943B 29968M 29969M 29969B 29974M 29975M 29975B 30026M 30027M 30027B 30043M 30044M 30044B 30071M 30072M
             30072B 30134B 30143B 30150  30157M 30158M 30158B 30164M 30200M 30201M 30201B 30207B 30210B 30217  30224M
             30225M 30225B 30231M 30267M 30268M 30268B 30274B 30292B 30299  30306M 30307M 30307B 30313M 30349M 30350M
             30350B 30356B 30366B 30375B 30385B 30394B 30421B 30424B 30427B 30451M 30452M 30452B 30468M 30469M 30469B
             30492M 30493M 30493B 30533M 30537B 30596  30673M 30674M 30674B 30728M 30729M 30729B 30756M 30757M 30757B
             30775M 30776M 30776B 30809M 30810M 30810B 30837M 30838M 30838B 30854M 30855M 30855B 30879M 30880M 30880B
             30904M 30905M 30905B 30921M 30922M 30922B 30946M 30947M 30947B 30963M 30964M 30964B 30997M 30998M 30998B
             31023M 31024M 31024B 31040M 31041M 31041B 31075M 31076M 31076B 31117M 31118M 31118B 31138M 31139M 31139B
             31173M 31174M 31174B 31215M 31216M 31216B 31236M 31237M 31237B 31271M 31272M 31272B 31313M 31314M 31314B
             31334M 31335M 31335B 31372M 31373M 31373B 31393M 31394M 31394B 31410M 31411M 31411B 31448M 31449M 31449B
             31469M 31470M 31470B 31486M 31487M 31487B 31524M 31525M 31525B 31561M 31562M 31562B 31589M 31590M 31590B
             31630M 31631M 31631B 31652M 31653M 31653B 31685M 31686M 31686B 31737M 31738M 31738B 31754M 31755M 31755B
             31782M 31783M 31783B 31799M 31800M 31800B 31827M 31828M 31828B 31861M 31862M 31862B 31887M 31888M 31888B
             31918M 31919M 31919B 31935M 31936M 31936B 31959M 31960M 31960B 31989M 31993B 32016  32130M 32134B 32152
             32360M 32364B 32412  32844M 32848B 32869  32915  32918M 32919M 32919B 32995M 32999B 33020  33280M 33281M
             33281B 33311M 33315B 33333  33522M 33523M 33523B 33631M 33635B 33767  33876M 33877M 33877B 33919M 33920M
             33920B 34017M 34018M 34018B 34110M 34111M 34111B 34146M 34147M 34147  34160M 34160B 34204M 34218M 34360M
             34361M 34361B 34468M 34469M 34469B 34568M 34569M 34569B 34588M 34589M 34589B 34691M 34692M 34692B 34727M
             34728M 34728B 34769M 34773B 34793  34981M 34982M 34982B 35017M 35018M 35018  35031M 35031B 35112M 35113M
             35113B 35251M 35252M 35252B 35299M 35300M 35300B 35342M 35346B 35450  35703M 35717M 35946M 35947M 35947B
             35982M 36129  36132M 36133M 36133B 36164M 36176M 36257M 36258M 36258B 36394M 36398B 36437  36610M 36804M
             36805M 36805B 36924M 36928B
    15(F)      929U  1615M  1616M  1616   1618   1623M  1626M  1626   4311   4339M  4360M  4411M  4472M  4473M  4474
              4484M  4494M  4494   4556M  4556   4642   4685M  4705M  4742M  4748   4798M  4828M  4863M  4903M  4919M
              4934U  4971U  4981M  5007M  5031M  5099M  5107   5108M  5170M  5171M  5172   5241M  5262M  5271M  5353M
              5353   5407   5441M  5445M  5454M  5454   5461   5488M  5493M  5493   5552   5600M  5604M  5613M  5613
              5620   5647M  5652M  5652   5753M  5762M  5802M  5802   5934M  5951M  5989M  5989   6136M  6166M  6167M
1         (ELF2047) (12:35) (15MAR04) General Purpose Register Cross Reference                                              Page  226
              6168   6242M  6242   6273M  6273   6420M  6421M  6424N  6452M  6453M  6454   6554M  6555M  6555   6849M
              6849   6974M  7064M  7081M  7102M  7119M  7140M  7157M  7178M  7195M  7216M  7240M  7305M  7305   7475M
              7502M  7526M  7586M  7586   7681   7809M  7812M  7815M  7822M  7822   7943M  7955   7964M  7968N  8156M
              8166U  8200U  8278M  8278   8517M  8550M  8577M  8594M  8614M  8647M  8674M  8691M  8718M  8746M  8798M
              8798   8984   9021U  9038U  9060U  9081U  9101M  9102N  9104M  9105   9129M  9130M  9131   9279M  9279
              9689M  9759M  9803M  9812M  9813M  9814   9856M 10083M 10100M 10117M 10141M 10204M 10237M 10264M 10288M
             10329M 10356M 10380M 10499U 10517U 10539U 10554U 10558M 10621M 10621  10690M 10690  11503M 11530M 11540M
             11541M 11557M 11557  11580  11609M 11679M 11706M 11730M 11771M 11798M 11822M 11890M 11890  12042M 12043M
             12043  12056M 12061  12065M 12066M 12066  12079M 12084  12182M 12223M 12251M 12276M 12330M 12330  12538M
             12539  12540M 12542  12557M 12558  12561M 12599M 12621M 12621  12746M 12747M 12748  12772U 12843U 12847M
             12850  12862M 12870M 12879M 12879  12886  13231M 13231  13440M 13467M 13491M 13568M 13569M 13569  13827M
             13828M 13889M 13915M 13932M 13958M 13975M 14001M 14018M 14044M 14136M 14173M 14200M 14217M 14244M 14268M
             14330M 14335  14370M 14394M 14450M 14474M 14482M 14483M 14484  14639M 14667M 14672M 14673M 14674  14681M
             14713M 14730M 14754M 14763M 14764M 14765  14820M 14820  14900M 14914  14927M 14928M 15025M 15026M 15027
             15195M 15195  15307M 15321  15334M 15335M 15493M 15494M 15494  15562M 15562  15634M 15648  15661M 15662M
             15878U 15896U 15918U 15933U 15937M 15994M 15994  16061M 16075  16088M 16089M 16291M 16291  16358M 16372
             16385M 16386M 16501M 16528M 16552M 16609M 16609  16716M 16717M 16730  16777M 16783  16784M 16816M 16877M
             16910M 16937M 16961M 17032M 17032  17145M 17145  17572M 17573M 17574  17610M 17627M 17644M 17672  17710M
             17744M 17761M 17797M 17849M 17897M 17972M 17973M 17974  18074M 18103M 18184M 18218M 18218  18323M 18356M
             18383M 18407M 18448M 18475M 18499M 18546M 18546  18681M 18809M 18839M 18856M 18887M 18981M 19008M 19032M
             19073M 19100M 19124M 19152M 19157  19194M 19194  19272M 19273M 19286  19333M 19339  19340M 19378M 19572M
             19580  19581M 19627M 19627  20117M 20125  20126M 20147M 20194U 20211U 20233U 20248U 20252M 20304M 20304
             20349M 20349  20489M 20516M 20540M 20592M 20592  20745M 20772M 20796M 20837M 20864M 20888M 20908M 20937M
             20937  21152  21283M 21286  21298M 21306M 21315M 21315  21322  21371M 21374  21386M 21394M 21403M 21403
             21410  21497M 21500  21512M 21520M 21529M 21529  21536  21585M 21588  21600M 21608M 21617M 21617  21624
             21673M 21676  21688M 21696M 21705M 21705  21712  22040  22406M 22434M 22451M 22507M 22539M 22621M 22624
             22636M 22644M 22653M 22653  22660  22783M 22783  22897M 22897  23015  23071M 23101M 23104  23116M 23121N
             23128M 23130  23187M 23259M 23286M 23528M 23531  23543M 23548  23552M 23561M 23561  23568  23601M 23602M
             23602  23611M 23611  23626U 23639U 23711M 23738M 23780M 23800M 23820M 23897M 24063M 24092M 24164M 24211M
             24260M 24260  24354  24381  24384N 24385M 24387M 24411M 24411  24725M 24726  24854M 24862  24863M 24976M
             25018  25030M 25035N 25065M 25067  25381M 25441M 25561M 25580M 25612M 25650M 25654  25656M 25662  25668
             25670M 25675M 25676M 25677  25681M 25694  25770  25772  25785M 25793  25794M 25863M 25896M 25923M 25947M
             26064U 26081U 26103U 26118U 26122M 26227M 26276M 26276  26452U 26470U 26492U 26507U 26511M 26558M 26558
             26656  26705M 26705  26767  26800M 26815M 26841M 26856M 26874M 26890M 26922M 26960M 26986M 27054M 27076M
             27091M 27096M 27097M 27098M 27103  27113M 27135M 27161M 27206M 27231M 27246M 27271M 27307M 27326M 27361M
             27389M 27404M 27426M 27441M 27460M 27475M 27494M 27509M 27528M 27550M 27594M 27609M 27631M 27646M 27668M
             27683M 27705M 27727M 27763M 27779M 27798M 27873M 27895M 27958M 27984M 28034M 28076M 28091M 28118M 28137M
             28156M 28178M 28212M 28259M 28290M 28317M 28343M 28371M 28390M 28419M 28464M 28509M 28527M 28542M 28567M
             28589M 28616M 28638M 28653M 28675M 28690M 28712M 28727M 28749M 28786M 28812M 28839M 28908M 28908  28990M
             28990  29014M 29014  29085M 29085  29339  29398M 29480  29503M 29565M 29582M 29606M 29645M 29673M 29731M
             29748M 29776M 29810M 29836M 29853M 29879M 29896M 29922M 29939M 29965M 30023M 30040M 30068M 30081M 30084M
             30091M 30091  30150  30159  30164M 30197M 30217  30226  30231M 30264M 30299  30308  30313M 30346M 30448M
             30465M 30489M 30494M 30536M 30536  30625  30670M 30725M 30753M 30806M 30834M 30851M 30876M 30901M 30918M
             30943M 30960M 30994M 31020M 31037M 31072M 31114M 31135M 31170M 31212M 31233M 31268M 31310M 31331M 31369M
             31390M 31407M 31445M 31466M 31483M 31521M 31558M 31586M 31605M 31605  31627M 31654  31663M 31663  31682M
             31734M 31751M 31779M 31796M 31824M 31858M 31884M 31892M 31892  31915M 31932M 31956M 31961M 31992M 31992
             32047M 32063U 32077M 32078M 32078  32109U 32133M 32133  32344M 32344  32363M 32363  32608M 32609M 32636
             32656  32662  32686M 32687M 32714  32734  32740  32785M 32786M 32786  32798M 32807M 32807  32814  32847M
             32847  32974M 32974  32998M 32998  33049  33127M 33285M 33285  33314M 33314  33378M 33379M 33381M 33501M
             33501  33545  33555M 33555  33564  33615M 33634M 33634  33858  33873M 33916M 33950M 33953  33965M 33972M
             33974  33990  34014M 34038M 34041  34053M 34058N 34065M 34067  34107M 34209M 34217  34218M 34357M 34399M
             34400M 34401  34425M 34426M 34427  34465M 34489M 34490M 34491  34522M 34523M 34524  34548M 34549M 34550
             34565M 34585M 34664M 34666  34688M 34724M 34772M 34772  34863  34913M 34916  34928M 34933N 34940M 34942
             34978M 35109M 35248M 35296M 35345M 35345  35536  35708M 35716  35717M 35993U 36071U 36083M 36113  36169M
             36175  36176M 36180M 36181M 36181  36211  36221M 36221  36242M 36242  36297M 36298M 36299  36397M 36397
             36621U 36699U 36711M 36736  36753M 36753  36820M 36859M 36860  36861M 36863  36878M 36879  36882M 36887M
             36887  36927M 36927

1ELF      (ELF2047) (12:35) (15MAR04) Diagnostic Cross Reference and Assembler Summary                                      Page  227
-                                                                                            HLASM R4.0  2004/03/15 12.35
0     No Statements Flagged in this Assembly
 HIGH LEVEL ASSEMBLER, 5696-234, RELEASE 4.0, PTF UQ57391
0SYSTEM: OS/390 02.10.00            JOBNAME: MIL#ELF     STEPNAME: ASM        PROCSTEP: (NOPROC)
0Datasets Allocated for this Assembly
  Con DDname   Dataset Name                                 Volume  Member
   P1 SYSIN    WYL.GS.MIL.MILTEN.SOURCE                     SYSB05  ELF
   L1 SYSLIB   WYL.GS.MIL.MILTEN.MACLIB                     SYSB05
   L2          WYL.GG.SYS.MACLIB                            SYSB05
   L3          SYS3.IS.MACLIB                               SYSB05
   L4          SYS3.MACLIB                                  SYSB02
   L5          SYS1.MACLIB                                  MVSBR9
   L6          SYS1.MODGEN                                  MVSBR9
      SYSPRINT SYS04075.T123519.RA000.MIL#ELF.PRINT.H01     SCR100
      SYSTERM  GG$SLP.MIL#ELF.JOB03415.D0000101.?

    3776K allocated to Buffer Pool,         4681K would be required for this to be an In-Storage Assembly
    5022 Primary Input Records Read         7953 Library Records Read                193 Work File Reads
       0 ASMAOPT Records Read              20661 Primary Print Records Written       229 Work File Writes
       0 Punch Records Written                 0 ADATA Records Written
0Assembly Start Time: 12.35.21 Stop Time: 12.35.39 Processor Time: 00.00.07.6932
 Return Code 000
