1                        J E S 2  J O B  L O G  --  S Y S T E M  S Y S B  --  N O D E  R L G
0
 12.37.35 JOB03431 ---- MONDAY,    15 MAR 2004 ----
 12.37.35 JOB03431  ICH70001I GG$SLP   LAST ACCESS AT 12:37:30 ON MONDAY, MARCH 15, 2004
 12.37.35 JOB03431  $HASP373 MIL#VIRT STARTED - INIT 9    - CLASS B - SYS SYSB
 12.37.35 JOB03431  ***  HCMD      STEP $$QUIET
 12.37.35 JOB03431  PUR * Q OUT MUL
 12.37.35 JOB03431  JOB 5472 MIL#VIRT WILL BE PURGED
 12.37.36 JOB03431  MIL#VIRT.$$QUIET .         RC=Zero TapeIO=0000 DiskIO=0000 CPU=  .01s Elapsed=55.51s
 12.37.51 JOB03431  MIL#VIRT.ASM     .         RC=Zero TapeIO=0000 DiskIO=0420 CPU= 2.27s Elapsed=57.03s
 12.37.52 JOB03431  MIL#VIRT.EDIT    .         RC=Zero TapeIO=0000 DiskIO=0111 CPU=  .37s Elapsed=71.18s
 12.37.52 JOB03431  MIL#VIRT Ended.  Name=Assemble VIRT                  Total CPU= 2.65s Elapsed=55.51s
 12.37.52 JOB03431
 12.37.52 JOB03431  Execution charges   Priority=Standard   Block=Day
 12.37.52 JOB03431
 12.37.52 JOB03431  CPU Usage          48.75          $30.22   Standard Processing Unit Equivalent
 12.37.52 JOB03431                                   =======
 12.37.52 JOB03431                                    $30.22   Total Job execution charge
 12.37.52 JOB03431
 12.37.52 JOB03431  See back separator page for print charges
 12.37.52 JOB03431
 12.37.52 JOB03431  $HASP395 MIL#VIRT ENDED  ASM=0, EDIT=0
1        1 //MIL#VIRT JOB SLP$GG,'Assemble VIRT',TIME=4,REGION=4M                  JOB03431
           //*
           /*JOBPARM LINES=99,COPIES=1
           /*JOBPARM FORMS=3HOL,PFORMAT=LAND,CHARS=BD13,DUPLEX=YES,FLASH=BAR4
           //*
           /*JOBPARM NOTIFY=GG.SLP,HOLD=OUTPUT                                     WYLGEN
         2 //$$QUIET EXEC PGM=HCMDX,PARM='PUR * Q OUT MUL'
           //*
         3 //ASM    EXEC PGM=ASMA90,REGION=8M,
           //            PARM=('NORENT,TERM,FLAG(NOCONT),US(MAP,WARN(10)),NODECK',
           //            'LC(32767),XREF(SHORT),ESD,DXREF,NOOBJECT')
           //*STEPLIB  DD DSN=SYS1.SASMMOD1,DISP=SHR
         4 //SYSLIB   DD  DSN=WYL.GS.MIL.MILTEN.MACLIB,DISP=SHR
         5 //         DD  DSN=WYL.GG.SYS.MACLIB,DISP=SHR
         6 //         DD  DSN=SYS3.IS.MACLIB,DISP=SHR
         7 //         DD  DSN=SYS3.MACLIB,DISP=SHR
         8 //         DD  DSN=SYS1.MACLIB,DISP=SHR
         9 //         DD  DSN=SYS1.MODGEN,DISP=SHR
        10 //SYSUT1   DD DSN=&&SYSUT1,UNIT=VIO,DISP=(,DELETE),
           //            SPACE=(4088,(500,250),,CONTIG,ROUND)
        11 //SYSTERM  DD SYSOUT=T
        12 //SYSPRINT DD DSN=&&PRINT,UNIT=SYSDA,DISP=(,PASS),
           //            SPACE=(6650,(250,250),RLSE),
           //            DCB=(BLKSIZE=6650,LRECL=133,RECFM=FB)
        13 //SYSUDUMP DD SYSOUT=A
        14 //SYSIN    DD  DSN=WYL.GS.MIL.MILTEN.SOURCE(VIRT),DISP=SHR
           //*
        15 //EDIT    EXEC PGM=ASMEDIT,TIME=2,REGION=4000K,
           //             PARM='STMT'
        16 //STEPLIB  DD  DSN=WYL.GG.SYS.LINKLIB,DISP=SHR
        17 //ASMOUT   DD  DSN=&PRINT,DISP=(OLD,DELETE)
        18 //SYSPRINT DD  SYSOUT=A
1 STMT NO. MESSAGE
 -
        10 IGD01010I STORCLAS= TEMP STORGROUP =
        10 IGD01010I STORGRP=VIO ASSIGNED.
        12 IGD01010I STORCLAS= TEMP STORGROUP =
        12 IGD01010I STORGRP=VIO ASSIGNED.
 ICH70001I GG$SLP   LAST ACCESS AT 12:37:30 ON MONDAY, MARCH 15, 2004
 IEF142I MIL#VIRT $$QUIET - STEP WAS EXECUTED - COND CODE 0000
 *********************************************************************************
 *   MIL#VIRT/$$QUIET /                    Return Code      Zero                 *
 *   Region used      260K (16K user + 244K system)                              *
 *   Extended region  9464K (4K user + 9460K system)                             *
 *                                                                               *
 *   Paging              In      Out                                             *
 *   Private <-> Aux      0        0       CPU time (TCB)   00:00:00.01          *
 *   Private <-> Exp      0        0       CPU time (SRB)   00:00:00.00          *
 *   VIO                  0        0       Elapsed time    917:50:17.45          *
 *   Common               0      ---                                             *
 *                                                                               *
 *                                                                               *
 *   CPU Usage          0.18         $0.11  Standard Processing Unit Equivalent  *
 *                                   $0.11  Total Step execution charge          *
 *                                                                               *
 *    I/O count  DDname   Type Addr           I/O count  DDname   Type Addr      *
 *                         *** No I/O for this step ***                          *
 *********************************************************************************
 IEF373I STEP/$$QUIET /START 2004075.1237
 IEF374I STEP/$$QUIET /STOP  2004075.1237 CPU    0MIN 00.01SEC SRB    0MIN 00.00SEC VIRT    16K SYS   244K EXT       4K SYS    9460K
 IEF236I ALLOC. FOR MIL#VIRT ASM
 IEF237I 04DC ALLOCATED TO SYSLIB
 IEF237I 04DC ALLOCATED TO
 IEF237I 04DC ALLOCATED TO
 IEF237I 0402 ALLOCATED TO
 IEF237I 04A0 ALLOCATED TO
 IEF237I 04A0 ALLOCATED TO
 IGD101I SMS ALLOCATED TO DDNAME (SYSUT1  )
         DSN (SYS04075.T123735.RA000.MIL#VIRT.SYSUT1.H01  )
         STORCLAS (TEMP) MGMTCLAS (        ) DATACLAS (        )
         VOL SER NOS= VIO
 IEF237I JES2 ALLOCATED TO SYSTERM
 IGD101I SMS ALLOCATED TO DDNAME (SYSPRINT)
         DSN (SYS04075.T123735.RA000.MIL#VIRT.PRINT.H01   )
         STORCLAS (TEMP) MGMTCLAS (        ) DATACLAS (        )
         VOL SER NOS= SCR101
 IEF237I JES2 ALLOCATED TO SYSUDUMP
 IEF237I 04DC ALLOCATED TO SYSIN
 IEF142I MIL#VIRT ASM - STEP WAS EXECUTED - COND CODE 0000
 IEF285I   WYL.GS.MIL.MILTEN.MACLIB                     KEPT
 IEF285I   VOL SER NOS= SYSB05.
 IEF285I   WYL.GG.SYS.MACLIB                            KEPT
 IEF285I   VOL SER NOS= SYSB05.
 IEF285I   SYS3.IS.MACLIB                               KEPT
 IEF285I   VOL SER NOS= SYSB05.
 IEF285I   SYS3.MACLIB                                  KEPT
 IEF285I   VOL SER NOS= SYSB02.
 IEF285I   SYS1.MACLIB                                  KEPT
 IEF285I   VOL SER NOS= MVSBR9.
 IEF285I   SYS1.MODGEN                                  KEPT
 IEF285I   VOL SER NOS= MVSBR9.
 IGD105I SYS04075.T123735.RA000.MIL#VIRT.SYSUT1.H01   DELETED,   DDNAME=SYSUT1
 IEF285I   GG$SLP.MIL#VIRT.JOB03431.D0000101.?          SYSOUT
 IGD106I SYS04075.T123735.RA000.MIL#VIRT.PRINT.H01    PASSED,    DDNAME=SYSPRINT
 IEF285I   GG$SLP.MIL#VIRT.JOB03431.D0000102.?          SYSOUT
 IEF285I   WYL.GS.MIL.MILTEN.SOURCE                     KEPT
 IEF285I   VOL SER NOS= SYSB05.
 *********************************************************************************
 *   MIL#VIRT/ASM     /                    Return Code      Zero                 *
 *   Region used      4372K (4096K user + 276K system)                           *
 *   Extended region  10056K (412K user + 9644K system)                          *
 *                                                                               *
 *   Paging              In      Out                                             *
 *   Private <-> Aux      0        0       CPU time (TCB)   00:00:02.23          *
 *   Private <-> Exp      0        0       CPU time (SRB)   00:00:00.04          *
 *   VIO                  0        0       Elapsed time    917:50:15.93          *
 *   Common               0      ---                                             *
 *                                                                               *
 *                                                                               *
 *   CPU Usage         41.81        $25.92  Standard Processing Unit Equivalent  *
 *                                  $25.92  Total Step execution charge          *
 *                                                                               *
 *    I/O count  DDname   Type Addr           I/O count  DDname   Type Addr      *
 *          255  SYSLIB   Disk 04DC                   0  SYSLIB   Disk 04DC      *
 *            0  SYSLIB   Disk 04DC                  12  SYSLIB   Disk 0402      *
 *           29  SYSLIB   Disk 04A0                   0  SYSLIB   Disk 04A0      *
 *            0  SYSUT1   VIO  ----                   0  SYSTERM       ----      *
 *          108  SYSPRINT Disk 04E3                   0  SYSUDUMP      ----      *
 *           16  SYSIN    Disk 04DC                                              *
 *********************************************************************************
 IEF373I STEP/ASM     /START 2004075.1237
 IEF374I STEP/ASM     /STOP  2004075.1237 CPU    0MIN 02.23SEC SRB    0MIN 00.04SEC VIRT  4096K SYS   276K EXT     412K SYS    9644K
 IEF236I ALLOC. FOR MIL#VIRT EDIT
 IEF237I 0402 ALLOCATED TO STEPLIB
 IGD103I SMS ALLOCATED TO DDNAME ASMOUT
 IEF237I JES2 ALLOCATED TO SYSPRINT
 IEF142I MIL#VIRT EDIT - STEP WAS EXECUTED - COND CODE 0000
 IEF285I   WYL.GG.SYS.LINKLIB                           KEPT
 IEF285I   VOL SER NOS= SYSB02.
 IGD105I SYS04075.T123735.RA000.MIL#VIRT.PRINT.H01    DELETED,   DDNAME=ASMOUT
 IEF285I   GG$SLP.MIL#VIRT.JOB03431.D0000103.?          SYSOUT
 *********************************************************************************
 *   MIL#VIRT/EDIT    /                    Return Code      Zero                 *
 *   Region used      380K (116K user + 264K system)                             *
 *   Extended region  9584K (4K user + 9580K system)                             *
 *                                                                               *
 *   Paging              In      Out                                             *
 *   Private <-> Aux      0        0       CPU time (TCB)   00:00:00.36          *
 *   Private <-> Exp      0        0       CPU time (SRB)   00:00:00.01          *
 *   VIO                  0        0       Elapsed time    917:50:01.78          *
 *   Common               0      ---                                             *
 *                                                                               *
 *                                                                               *
 *   CPU Usage          6.75         $4.18  Standard Processing Unit Equivalent  *
 *                                   $4.18  Total Step execution charge          *
 *                                                                               *
 *    I/O count  DDname   Type Addr           I/O count  DDname   Type Addr      *
 *            2  STEPLIB  Disk 0402                 109  ASMOUT   Disk 04E3      *
 *            0  SYSPRINT      ----                                              *
 *********************************************************************************
 IEF373I STEP/EDIT    /START 2004075.1237
 IEF374I STEP/EDIT    /STOP  2004075.1237 CPU    0MIN 00.36SEC SRB    0MIN 00.01SEC VIRT   116K SYS   264K EXT       4K SYS    9580K
 *********************************************************************************
 *                                                                               *
 *                      S t a n f o r d   U n i v e r s i t y                    *
 *                                                                               *
 *                              *** Job Summary ***                              *
 *                                                                               *
 *   System Id      SYSB                   Input time     12:35:11  Mar 15, 2004 *
 *                                                                               *
 *   System Release SP6.1.0                Start time     12:37:35  Mar 15, 2004 *
 *                                                                               *
 *   Job name       MIL#VIRT               Stop  time     00:00:00  Mar 15, 2004 *
 *                                                                               *
 *   Account        SLP$GG                 Elapsed time  917:50:17.45            *
 *                                                                               *
 *   User Name      Assemble VIRT          CPU time       00:00:02.60            *
 *                                                                               *
 *   Job class      B                      SRB Time       00:00:00.05            *
 *                                                                               *
 *********************************************************************************
 IEF375I  JOB/MIL#VIRT/START 2004075.1237
 IEF376I  JOB/MIL#VIRT/STOP  2004075.1237 CPU    0MIN 02.60SEC SRB    0MIN 00.05SEC
1Assembler Done VIRT No Statements Flagged
1         High Level Assembler Option Summary                   (PTF UQ57391)                                               Page    1
-                                                                                            HLASM R4.0  2004/03/15 12.37
0  No Overriding ASMAOPT Parameters
   Overriding Parameters-  NORENT,TERM,FLAG(NOCONT),US(MAP,WARN(10)),NODECK,LC(32767),XREF(SHORT),ESD,DXREF,NOOBJECT
   No Process Statements


   Options for this Assembly
0  NOADATA
     ALIGN
   NOASA
     BATCH
     CODEPAGE(047C)
   NOCOMPAT
   NODBCS
 3 NODECK
 3   DXREF
 3   ESD
   NOEXIT
 3   FLAG(0,ALIGN,NOCONT,NOIMPLEN,NOPAGE0,PUSH,RECORD,NOSUBSTR,USING0)
   NOFOLD
   NOGOFF
   NOINFO
     LANGUAGE(EN)
   NOLIBMAC
 3   LINECOUNT(32767)
     LIST(121)
     MXREF(SOURCE)
 3 NOOBJECT
     OPTABLE(UNI,NOLIST)
   NOPCONTROL
   NOPESTOP
   NOPROFILE
   NORA2
 3 NORENT
     RLD
     RXREF
     SIZE(MAX)
     SYSPARM()
 3   TERM(WIDE)
   NOTEST
     THREAD
   NOTRANSLATE
 3   USING(NOLIMIT,MAP,WARN(10))
 3   XREF(SHORT)

   No Overriding DD Names

1VIRT     External Symbol Dictionary                                                                                        Page    2
-Symbol   Type   Id     Address  Length     LD ID  Flags Alias-of                            HLASM R4.0  2004/03/15 12.37
0MILVIRT   SD 00000001 00000000 00001600             00
 VIRT2047  LD          00000000           00000001
 VIRTDEF   LD          00000018           00000001
 VIRTPORT  LD          00000066           00000001
 VIRTFIN   LD          000000A6           00000001
 VIRTXCLS  LD          00000184           00000001
 GETFEB    ER 00000002
 DISCSESS  ER 00000003
 FREEPIB   ER 00000004
 FREEFEB   ER 00000005
 STOPCHK   ER 00000006
 VIRTCNTL  LD          00000300           00000001
 VIRTUPD   LD          000004C6           00000001
 VIRTDO    LD          00000572           00000001
 FREESCB   ER 00000007
 FREETRC   ER 00000008
 SUBSEND   ER 00000009
 VIRTPOST  LD          000007C8           00000001
 LOCALTOD  ER 0000000A
 GETTRC    ER 0000000B
 NGETCORE  ER 0000000C
 GETPIB    ER 0000000D
 BTD       ER 0000000E
 GETSCB    ER 0000000F
 SUBSTART  ER 00000010
 VIRTERR   LD          00001062           00000001
 VIRTDIE   LD          000010A4           00000001
 VIRTCMD   LD          000010D2           00000001
 VIRTFMT   LD          0000118C           00000001
 SEGHX     ER 00000011
 SEGB      ER 00000012
 SEGTB     ER 00000013
 SEGDC     ER 00000014
 SEGWR     ER 00000015
 SEGCOL    ER 00000016
 SEG       ER 00000017
 FMTTIME   ER 00000018
 SEGT      ER 00000019

1VIRT     MILTEN's Virtual Terminal Interface                                                                               Page    3
0Loc    Object Code    Addr1 Addr2  Stmt Lv Lineno    Source Statement                    (Asmedit 3.3)  HLASM R4.0  2004/03/15 12.37
+___    ______ ____    _____ _____  ____ __ ______    ______ _________
0                                      2              *******************************************************************
                                       3              *                                                                 *
                                       4              *     MILTEN/370 - Release VI - Class I - Stanford Proprietary    *
                                       5              *                                                                 *
                                       6              *******************************************************************
                                       7                       HIBAL
                                     995
                                     996                       SYSDEFN
                                     997
 000000                00000 01600   998              MILVIRT  CSECT
                                    1002              VIRT     IDENT 2047                10:16:25 02/16/02  (SLP)
                                    1005             +
                                    1006    01-IDENT +         ENTRY VIRT2047
                                    1007             +
 000000 16E5C9D9E3F2F0F4            1008    01-IDENT +VIRT2047 DC    AL1(22),C'VIRT2047,15MAR04,12:37'
                                    1009             +*
                                    1011                       REGS  ,,FSR,,,,,,BR,SCBR,PIBR,(FEBR,LSR),CVR,SPR,RAR
                                    1143
                                    1144                       PUSH  DSECTS
 USING  CV,R12                      1156             =         USING CV
 000017                00000 01600  1165             =         POP   PRINT
1VIRT     (VIRT2047) (12:37) (15MAR04) DSECTS                                                                               Page    4
0Current Usings:  (CV,R12)
0Loc    Object Code    Addr1 Addr2  Stmt Lv Lineno    Source Statement           (Hibal 5, Asmedit 3.3)  HLASM R4.0  2004/03/15 12.37
+___    ______ ____    _____ _____  ____ __ ______    ______ _________
0                                   4260                       COPY  SUBPOOLS
                                    4261             =WTOQSUBP EQU   11                  Subpool for WTOQ elements
                                    4262             =IOHQSUBP EQU   12                  Subpool for IOHQ elements
                                    4263             =SCBSUBPL EQU   13                  Subpool for SCBs
                                    4264             =TRCSUBPL EQU   14                  Subpool for TRC entries
                                    4265             =TQESUBPL EQU   15                  Timer queue subpool
                                    4266             =FEBSUBPL EQU   16                  FEBs (non-page fixed)
                                    4267             =PIBSUBPL EQU   17                  PIBS (non-page fixed)
                                    4268             =SUBSUBPL EQU   18                  Subsystem blocks
                                    4269             =STRCSUBP EQU   19                  Session trace buffers
                                    4270             =QPDBSUBP EQU   20                  Queued PDBs
                                    4271             =SPDBSUBP EQU   21                  Saved PDBs
                                    4272             =PRMTSUBP EQU   22                  Saved prompts
                                    4273             =RTXTSUBP EQU   23                  Saved read text
                                    4274             =SQPDSUBP EQU   24                  Queued PDBs on subsystem
                                    4275             =CONSQPDB EQU   25                  Queued CONS PDBs
                                    4276             =PATSUBP  EQU   26                  Port address tables
                                    4277             =TRCHSUBP EQU   27                  Device trace table hdrs
                                    4278             =ITBLSUBP EQU   28                  Input xlate table
                                    4279             =MCOMSUBP EQU   29                  MCOM command buffers
                                    4280             =STMPSUBP EQU   30                  MCOM temp trace buffer
                                    4281             =EIBSUBP  EQU   31                  ELF EIB
                                    4282             =AMYQSUBP EQU   32                  Amelia queue ELF
                                    4283             =SOCKSUBP EQU   33                  ELF SOCK control block
                                    4284             =SMSGSUBP EQU   34                  Saved socket msg (ELF)
                                    4285             =PWRTSUBP EQU   35                  ELF Path write subpool
                                    4286             =TELISUBP EQU   36                  Telnet input data buffer
                                    4287             =EPIBSUBP EQU   37                  ELF PIB input buffer
                                    4288             =VPATSUBP EQU   38                  VIRT PAT
                                    4289             =VBUFSUBP EQU   39                  SDD VTAM buffer
                                    4290             =VRUSUBP  EQU   40                  SDD RU
                                    4291             =VDPBSUBP EQU   41                  VTAM dummy PIB
                                    4292             =VPPSUBP  EQU   42                  VTAM PIB parms
                                    4293             =VISTSUBP EQU   43                  VTAM FEB IRB stack
                                    4294             =VACBSUBP EQU   44                  VTAM ACB subpool
                                    4295             =VRPLSUBP EQU   45                  VTAM RPL subpool
                                    4296             =VSRRSUBP EQU   46                  VSRR VBUF
                                    4297             =VNIBSUBP EQU   47                  VSRR NIB
                                    4298             =VBNDSUBP EQU   48                  BIND area VSRR
                                    4299             =VDVCSUBP EQU   49                  DVCHAR subpool VSRR
                                    4300             =VRBFSUBP EQU   50                  Reply buffer
                                    4301             =V3BFSUBP EQU   51                  D3767 VBUF
                                    4302             =RSYNSUBP EQU   52                  RSYN RPL data
                                    4303             =RESPSUBP EQU   53                  RESP RPL subpool
                                    4304             =REXPSUBP EQU   54                  Expedited flow subpool
1VIRT     (VIRT2047) (12:37) (15MAR04) DSECTS                                                                               Page    5
0Current Usings:  (CV,R12)
0Loc    Object Code    Addr1 Addr2  Stmt Lv Lineno    Source Statement           (Hibal 5, Asmedit 3.3)  HLASM R4.0  2004/03/15 12.37
+___    ______ ____    _____ _____  ____ __ ______    ______ _________
0                                   4306              ¿þþþþþþþþþþþþþþþþþþþþþþþþþþþþþþþþþþþþþþþþþþþþþþþþþþþþþþþþþþþþþþþþþþþþþÜ
                                    4307              Ÿ                                                                     Ÿ
                                    4308              Ÿ  RQST -- Front-end Request Block                                    Ÿ
                                    4309              Ÿ                                                                     Ÿ
                                                      ¾þþþþþþþþþþþþþþþþþþþþþþþþþþþþþþþþþþþþþþþþþþþþþþþþþþþþþþþþþþþþþþþþþþþþþ»
0000000                00000 00012  4310              RQST     RECORD 'RQST'
 000000                             4320  1 03-RQST  +RQSTLEN    DS    H                   TOTAL LENGTH      (SUZAN RDW)
 000002                             4321  1 03-RQST  +           DS    H                   RESERVED          (SUZAN RDW)
                                    4322  1          +
 000004                             4323  1 03-RQST  +RQSTRSV    DS    H                   RESERVED (MUST BE ZERO)
 000006                             4324  1 03-RQST  +RQSTPNO    DS    H                   PORT NUMBER
                                    4325  1          +
 000008                             4326  1 03-RQST  +RQSTCMD    DS    X                   COMMAND CODE (SEE "PDBCMD")
 000009                             4327  1 03-RQST  +RQSTCMFL    DS   X                   COMMAND FLAGS
                                    4328  1          +
 00000A                             4329  1 03-RQST  +RQSTMODB    DS   X                   PDBMODB
 00000B                             4330  1 03-RQST  +RQSTMODC    DS   X                   PDBMODC
                                    4331  1          +
 00000C                             4332  1 03-RQST  +RQSTCPL    DS    0XL2                COMPLETION FLAGS
 00000C                             4333  1 03-RQST  +RQSTCPLA    DS   X                   .A  (SEE "PDBCPLA")
 00000D                             4334  1 03-RQST  +RQSTCPLB    DS   X                   .B  (SEE "PDBCPLB")
                                    4335  1          +
 00000E                             4336  1 03-RQST  +RQSTOUCT    DS   H                   OUTPUT COUNT (FROM MILTEN)
 000010                             4337  1 03-RQST  +RQSTINCT    DS   H                   INPUT COUNT
                                    4338  1          +
                                    4339  1 03-RQST  +RQSTOPT    EQU   RQSTCMFL,*-RQSTCMFL,C'X'
                                    4340  1 03-RQST  +RQSTDATA    EQU  RQSTRSV,*-RQSTRSV,C'X'
                                    4341  1 03-RQST  +RQSTHDR    EQU   RQSTLEN,*-RQSTLEN,C'X'
                                    4342  1          +
 000012                00012 00012  4343    03-RQST  +RQSTTEXT  DS   0X
1VIRT     (VIRT2047) (12:37) (15MAR04) DSECTS                                                                               Page    6
0Current Usings:  (CV,R12)
0Loc    Object Code    Addr1 Addr2  Stmt Lv Lineno    Source Statement           (Hibal 5, Asmedit 3.3)  HLASM R4.0  2004/03/15 12.37
+___    ______ ____    _____ _____  ____ __ ______    ______ _________
0000000                00000 00118  4354              FEB      RECORD BEGIN
                                    4362  1                      COPY  FEB
                                    4363= 1          =¿þþþþþþþþþþþþþþþþþþþþþþþþþþþþþþþþþþþþþþþþþþþþþþþþþþþþþþþþþþþþþþþþþþþþþÜ
                                    4364= 1          =Ÿ                                                                     Ÿ
                                    4365= 1          =Ÿ  Front End Block                                                    Ÿ
                                    4366= 1          =Ÿ                                                                     Ÿ
                                          1           ¾þþþþþþþþþþþþþþþþþþþþþþþþþþþþþþþþþþþþþþþþþþþþþþþþþþþþþþþþþþþþþþþþþþþþþ»
0000000                             4367  1          =           DS    CL4'FEB'
 000004                             4368  1          =FEBID      DS    H                   Unique identifier
 000006                             4369  1          =           DS    H                   Reserved
                                    4370  1          =
 000008                             4371  1          =FEBLINK    DS    A                   Ptr to next FEB (or zero)
                                    4372  1          =
 00000C 00                          4373  1          =FEBGFLG    FLAG
 FEBGFLG.FEBFFIX   80 ONES          4377  1          =           FLAG  FEBFFIX             - FEB is in page-fixed core
 FEBGFLG.FEBFOPEN  40 ONES          4382  1          =           FLAG  FEBFOPEN            - Front-end is open
                                    4387  1          =
 00000D                             4388  1          =FEBTYPE    DS    X                   Type
                                    4389  1          =FEBTCONS   EQU   1                   - Console
                                    4390  1          =FEBTASYN   EQU   2                   - Async (3705ep, 1270, etc.)
                                    4391  1          =FEBTPDP    EQU   3                   - Pdp
                                    4392  1          =FEBTVTAM   EQU   4                   - Vtam
                                    4393  1          =FEBTVIRT   EQU   5                   - Virtual
                                    4394  1          =FEBTNSC    EQU   6                   - Nsc (RLIN)
                                    4395  1          =FEBTELF    EQU   7                   - Elf
                                    4396  1          =FEBTALF    EQU   8                   - Alf
                                    4397  1          =FEBTECU    EQU   9                   - ECU (RLIN)
                                    4398  1          =FEBTMAX    EQU   9
                                    4399  1          =
 000010                             4400  1          =           DS    0F
 000010                             4401  1          =FEBUC      DS    H                   Update count
 000012                             4402  1          =FEBTMLIM   DS    H                   Notime limit during PEAK times
                                    4403  1          =
 000014                             4404  1          =FEBNAME    DS    CL8                 Name
 00001C                             4405  1          =FEBINFO    DS    CL12                Info (text)
                                    4406  1          =
 000028                             4407  1          =FEBMCLCK   DS    XL8                 Clock when message was set
 000030                             4408  1          =FEBMSG     DS    CL64                Message
                                    4409  1          =
 000070 00                          4410  1          =FEBPFLG    FLAG
 FEBPFLG.FEBFPS    80 ONES          4414  1          =           FLAG  FEBFPS              - "Pseudo" front-end
 FEBPFLG.FEBFLEAS  40 ONES          4419  1          =           FLAG  FEBFLEAS            - Front-end is leased
 FEBPFLG.FEBFRLIN  20 ONES          4424  1          =           FLAG  FEBFRLIN            - Front-end belongs to rlin
                                    4429  1          =
 000071 00                          4430  1          =FEBPFLG2   FLAG
 FEBPFLG2.FEBFCLS  80 ONES          4434  1          =           FLAG  FEBFCLS             - Closed
 FEBPFLG2.FEBFDET  40 ONES          4439  1          =           FLAG  FEBFDET             - Detached
 FEBPFLG2.FEBFDOWN 20 ONES          4444  1          =           FLAG  FEBFDOWN            - Status: down
                                    4449  1          =
 000072                             4450  1          =FEBQMAX    DS    H                   Max I/O queue size (for stats)
                                    4451  1          =
 000074                             4452  1          =FEBPCUR    DS    H                   Current no. of ports
 000076                             4453  1          =FEBPMAX    DS    H                   Max no. of ports
1VIRT     (VIRT2047) (12:37) (15MAR04) DSECTS                                                                               Page    7
0Current Usings:  (CV,R12)
0Loc    Object Code    Addr1 Addr2  Stmt Lv Lineno    Source Statement           (Hibal 5, Asmedit 3.3)  HLASM R4.0  2004/03/15 12.37
+___    ______ ____    _____ _____  ____ __ ______    ______ _________
0                                   4454  1          =
 000078                             4455  1          =FEBSCLCK   DS    XL8                 Clock at start
                                    4456  1          =
 000080                             4457  1          =FEBSCUR    DS    H                   Current no. of sessions
 000082                             4458  1          =FEBSMAX    DS    H                   Max no. of sessions
 000084                             4459  1          =FEBSMCLK   DS    XL8                 Clock at max
 00008C                             4460  1          =FEBNSES    DS    F                   Total no. of sessions
                                    4461  1          =
 000090                             4462  1          =FEBNIO     DS    F                   Total no. of I/O's
 000094                             4463  1          =FEBNHWE    DS    F                   Total no. of hw errors
                                    4464  1          =FEBBASIC   EQU   FEBUC,*-FEBUC,C'X'  ******
                                    4465  1          =
 000098                             4466  1          =FEBPATP    DS    A                   PAT ptr
                                    4467  1          =
 00009C                             4468  1          =FEBTRCP    DS    4A                  Trace ptrs: len,cur,first,end
                                    4469  1          =
 0000AC                             4470  1          =           DS    2F                  Reserved
                                    4471  1          =
 0000B8                             4472  1          =           DS    0D
                                    4473  1           *****  device dependent line
 0000B8 00                          4474  1           FEBFLAG    FLAG
 FEBFLAG.FEBFINIT  80 ONES          4478  1                      FLAG  FEBFINIT            - Connection established
 FEBFLAG.FEBFEXT   40 ONES          4483  1                      FLAG  FEBFEXT             - Extended mode (sends EOS)
                                    4488  1
 0000BC                             4489  1           FEBASCBP   DS    A                   Partner's ASCB ptr
 0000C0                             4490  1           FEBTAG     DS    CL8                 Path "tag" name
 0000C8                             4491  1           FEBACCT    DS    CL5                 Account (uuugg)
                                    4492  1
 0000CE                             4493  1           FEBINMX    DS    H                   Maximum input length
 0000D0                             4494  1           FEBOUMX    DS    H                   Maximum output length
                                    4495  1
                                    4496  1         C FEBPATHX   PATH  PFX=FEBP,ECB=0,FLAG=FEBSFLAG,MYTAG=*,YOURTAG=*,PASS=*,
                                          1                            VERSION=2
 0000D2 0000                              1          +
 0000D4                             4497  1 01-PATH  +FEBPATHX   DC    0F'0'
 0000D4                             4498  1 01-PATH  +FEBP       DC    0F'0'
 0000D4 00000000                    4500  1 02-DEFIN +FEBPMGC    DC    AL4(0)
 0000D8 00000000                    4502  1 02-DEFIN +FEBPDJNM   DC    AL4(0)
 0000DC 5C40404040404040            4504  1 02-DEFIN +FEBPMY     DC    CL8'*'
 0000E4 5C40404040404040            4506  1 02-DEFIN +FEBPYOU    DC    CL8'*'
 0000EC A0                          4508  1 02-DEFIN +FEBPMFL    DC    AL1(1*X'80'+0*X'40'+1*X'20')
                                    4509  1          +
                                    4510  1 01-PATH  +FEBPVER2    EQU  X'80'         CALLER IS USING VERSION 2
                                    4511  1 01-PATH  +FEBPMCTL    EQU  X'40'         CALLER ASKS TERMINATION CONTROL
                                    4512  1 01-PATH  +FEBPMNAM    EQU  X'20'         CALLER PROVIDES CALLEE NAME
                                    4513  1 01-PATH  +FEBPMDP1    EQU  X'10'         DUPLICATE TAGS FOUND: MY=PCBO, YOU=PCBA
                                    4514  1 01-PATH  +FEBPMDP2    EQU  X'08'         DUPLICATE TAGS FOUND: MY=PCBA, YOU=PCBO
                                    4515  1          +
 0000ED 000000                      4517  1 02-DEFIN +FEBPOECB   DC    AL3(0)
 0000F0 00000000                    4519  1 02-DEFIN +FEBPBUF    DC    AL4(0)
 0000F4 0000010C                    4521  1 02-DEFIN +FEBPECBF   DC    AL4(FEBSFLAG)
                                    4522  1          +
                                    4523  1 01-PATH  +FEBPFCLS    EQU   X'80'         I AM POSTED BECAUSE HE CLOSED
                                    4524  1 01-PATH  +FEBPFFQE    EQU   X'40'         I AM POSTED BECAUSE HIS FULL Q EMPTIED
1VIRT     (VIRT2047) (12:37) (15MAR04) DSECTS                                                                               Page    8
0Current Usings:  (CV,R12)
0Loc    Object Code    Addr1 Addr2  Stmt Lv Lineno    Source Statement           (Hibal 5, Asmedit 3.3)  HLASM R4.0  2004/03/15 12.37
+___    ______ ____    _____ _____  ____ __ ______    ______ _________
0                                   4525  1 01-PATH  +FEBPFNI     EQU   X'20'         I AM POSTED BECAUSE NEW INFO IN MY Q
                                    4526  1 01-PATH  +FEBPFDP     EQU   X'10'         I AM POSTED AT HIS DISCRETION
                                    4527  1 01-PATH  +FEBPFOPN    EQU   X'08'         I AM POSTED BECAUSE HE OPENED
                                    4528  1 01-PATH  +FEBPFCLC    EQU   X'04'         I AM POSTED BECAUSE MY CLOSE IS COMPLETE
                                    4529  1          +
 0000F8 5C404040                    4531  1 02-DEFIN +FEBPPASS   DC    CL4'*'
 0000FC 00000000                    4533  1 02-DEFIN +FEBPECB    DC    AL4(0)
 000100 00000000                    4535  1 02-DEFIN +FEBPEXIT   DC    AL4(0)
 000104 00000000                    4537  1 02-DEFIN +FEBPPINP   DC    XL4'0'
 000108 00000000                    4539  1 02-DEFIN +FEBPRESV   DC    XL4'0'
                                    4540  1          +*
                                    4541  1          +*  VERSION 2 RETURN CODES
                                    4542  1          +*
                                    4543  1 01-PATH  +FEBPROK     EQU  0                       COMPLETE OK
                                    4544  1 01-PATH  +FEBPRIFC    EQU  4                       INVALID FUNCTION CODE
                                    4545  1 01-PATH  +FEBPRPMW    EQU  8                       INVALID PATH MAGIC WORD
                                    4546  1 01-PATH  +FEBPRBAF    EQU  12                      PARTNER'S BUFFER AREA FULL
                                    4547  1 01-PATH  +FEBPRNOP    EQU  16                      PARTNER NOT THERE
                                    4548  1 01-PATH  +FEBPRBOM    EQU  20                      BUFFER OVER PARTNER'S MAXIMUM
                                    4549  1 01-PATH  +FEBPRIBS    EQU  24                      RECEIVE BUFFER TOO SMALL
                                    4550  1 01-PATH  +FEBPRBPI    EQU  28                      INVALID BUFFER POINTER
                                    4551  1 01-PATH  +FEBPRIAD    EQU  32                      INVALID ADDRESS
                                    4552  1 01-PATH  +FEBPRES1    EQU  36                      RESERVED
                                    4553  1 01-PATH  +FEBPRES2    EQU  40                      RESERVED
                                    4554  1 01-PATH  +FEBPRES3    EQU  44                      RESERVED
                                    4555  1 01-PATH  +FEBPRES4    EQU  48                      RESERVED
                                    4556  1          +
                                    4557  1 01-PATH  +FEBPSIZE    EQU  *-FEBP        LENGTH OF PATH BLOCK
                                    4558  1           FEBPATH    EQU   FEBPATHX,*-FEBPATHX,C'X'
                                    4559  1
 00010C                             4560  1           FEBSFLAG   DS    X                   Suzan post flag byte
                                    4561  1
 00010E                             4562  1           FEBPNO     DS    H                   Current no. of active ports
                                    4563  1
 000110                             4564  1           FEBNICLK   DS    D                   Clock at last new-info post
 000118                00118 00118  4565                       END
1VIRT     (VIRT2047) (12:37) (15MAR04) DSECTS                                                                               Page    9
0Current Usings:  (CV,R12)
0Loc    Object Code    Addr1 Addr2  Stmt Lv Lineno    Source Statement           (Hibal 5, Asmedit 3.3)  HLASM R4.0  2004/03/15 12.37
+___    ______ ____    _____ _____  ____ __ ______    ______ _________
0000000                00000 000A0  4575              PIB      RECORD BEGIN
                                    4583  1                      COPY  PIB
                                    4584= 1          =¿þþþþþþþþþþþþþþþþþþþþþþþþþþþþþþþþþþþþþþþþþþþþþþþþþþþþþþþþþþþþþþþþþþþþþÜ
                                    4585= 1          =Ÿ                                                                     Ÿ
                                    4586= 1          =Ÿ  Port Information Block                                             Ÿ
                                    4587= 1          =Ÿ                                                                     Ÿ
                                          1           ¾þþþþþþþþþþþþþþþþþþþþþþþþþþþþþþþþþþþþþþþþþþþþþþþþþþþþþþþþþþþþþþþþþþþþþ»
0000000                             4588  1          =           DS    CL4'PIB'
 000004                             4589  1          =PIBNO      DS    H                   Port number
 000006                             4590  1          =           DS    H                   Reserved
 000008                             4591  1          =PIBFEBP    DS    A                   FEB ptr
 00000C                             4592  1          =PIBSCBP    DS    A                   SCB ptr
 000010                             4593  1          =PIBDFSYS   DS    CL8                 Default subsystem name (or zeros)
                                    4594  1          =
 000018 00                          4595  1          =PIBGFLG    FLAG
 PIBGFLG.PIBFFIX   80 ONES          4599  1          =           FLAG  PIBFFIX             - PIB is in page-fixed core
                                    4604  1          =
 000019                             4605  1          =PIBTID     DS    CL8                 Pre-assigned terminal id
                                    4606  1          =
 000021                             4607  1          =PIBDFACT   DS    XL5                 Default logon account (uuugg)
                                    4608  1          =
 000026                             4609  1          =PIBTETYP   DS    X                   SMF port type
 000027                             4610  1          =           DS    XL3                 Reserved
                                    4611  1          =
 00002C                             4612  1          =           DS    F                   Reserved
                                    4613  1          =
 000030                             4614  1          =           DS    0F
 000030                             4615  1          =PIBUC      DS    H                   Update count
 000032                             4616  1          =           DS    XL2                 Reserved
                                    4617  1          =
 000034                             4618  1          =PIBNAME    DS    CL8                 Port name
 00003C                             4619  1          =PIBINFO    DS    CL20                Port information (NCC address)
 000050                             4620  1          =PIBLOC     DS    CL20                Port location
                                    4621  1          =
 000064 00                          4622  1          =PIBFLAG    FLAG
 PIBFLAG.PIBFDIAL  80 ONES          4626  1          =           FLAG  PIBFDIAL            - Dial-up
 PIBFLAG.PIBFSUN   40 ONES          4631  1          =           FLAG  PIBFSUN             - SUNet
 PIBFLAG.PIBFDIR   20 ONES          4636  1          =           FLAG  PIBFDIR             - Direct
 PIBFLAG.PIBFGAND  10 ONES          4641  1          =           FLAG  PIBFGAND            - Gandalf
 PIBFLAG.PIBFDUMB  08 ONES          4646  1          =           FLAG  PIBFDUMB            - Dumb front-end (ASYNC, etc.)
                                    4651  1          =
 000065 00                          4652  1          =PIBFLAG2   FLAG
 PIBFLAG2.PIBFLEAS 80 ONES          4656  1          =           FLAG  PIBFLEAS            - Leased
 PIBFLAG2.PIBFTEL  40 ONES          4661  1          =           FLAG  PIBFTEL             - Telenet
 PIBFLAG2.PIBFTYM  20 ONES          4666  1          =           FLAG  PIBFTYM             - Tymnet
 PIBFLAG2.PIBFRLIN 10 ONES          4671  1          =           FLAG  PIBFRLIN            - Rlin
                                    4676  1          =
 000066 00                          4677  1          =PIBFLAG3   FLAG
 PIBFLAG3.PIBFPS   80 ONES          4681  1          =           FLAG  PIBFPS              - Pseudo session
 PIBFLAG3.PIBFPTID 40 ONES          4686  1          =           FLAG  PIBFPTID            - Terminal id is pre-assigned
 PIBFLAG3.PIBFOP   20 ONES          4691  1          =           FLAG  PIBFOP              - Operator
 PIBFLAG3.PIBFSEC  10 ONES          4696  1          =           FLAG  PIBFSEC             - Secure session
 PIBFLAG3.PIBFSEST 08 ONES          4701  1          =           FLAG  PIBFSESTRC          - Do session tracing
1VIRT     (VIRT2047) (12:37) (15MAR04) DSECTS                                                                               Page   10
0Current Usings:  (CV,R12)
0Loc    Object Code    Addr1 Addr2  Stmt Lv Lineno    Source Statement           (Hibal 5, Asmedit 3.3)  HLASM R4.0  2004/03/15 12.37
+___    ______ ____    _____ _____  ____ __ ______    ______ _________
0PIBFLAG3.PIBFSESK 04 ONES          4706  1          =           FLAG  PIBFSESKEEP         - Keep session corpse around
                                    4711  1          =
 000067 00                          4712  1          =PIBFLAG4   FLAG
 PIBFLAG4.PIBFSTOP 80 ONES          4716  1          =           FLAG  PIBFSTOP            - Stopped
 PIBFLAG4.PIBFDET  40 ONES          4721  1          =           FLAG  PIBFDET             - Detached
 PIBFLAG4.PIBFDUM  20 ONES          4726  1          =           FLAG  PIBFDUM             - Dummy
                                    4731  1          =
 000068 00                          4732  1          =PIBFLAG5   FLAG
 PIBFLAG5.PIBFDOWN 80 ONES          4736  1          =           FLAG  PIBFDOWN            - Status: down
 PIBFLAG5.PIBFHU   40 ONES          4741  1          =           FLAG  PIBFHU              - Status: hung-up
 PIBFLAG5.PIBFERR  20 ONES          4746  1          =           FLAG  PIBFERR             - Status: serious error occurred
                                    4751  1          =
 000069                             4752  1          =           DS    X                   Reserved
                                    4753  1          =PIBSIB     EQU   PIBNAME,*-PIBNAME,C'X'
                                    4754  1          =
 00006A                             4755  1          =PIBSCUR    DS    H                   Current no. of sessions
 00006C                             4756  1          =PIBSMAX    DS    H                   Max no. of sessions
 00006E                             4757  1          =PIBSMCLK   DS    XL8                 Clock at max
 000078                             4758  1          =PIBNSES    DS    F                   Total no. of sessions
                                    4759  1          =
 00007C                             4760  1          =PIBNIO     DS    F                   Total no. of I/O's
 000080                             4761  1          =PIBNHWE    DS    F                   Total no. of hw errors
                                    4762  1          =
 000084                             4763  1          =PIBDEVD    DS    F                   Device dependent data
 000088                             4764  1          =           DS    2F                  Reserved
                                    4765  1          =PIBBASIC   EQU   PIBUC,*-PIBUC,C'X'  ******
                                    4766  1          =
 000090                             4767  1          =PIBTRCP    DS    4A                  Trace ptrs: len,cur,first,end
                                    4768  1          =
 0000A0                             4769  1          =           DS    0D
                                    4770  1           *****  device dependent line
 0000A0                000A0 000A0  4771                       END
1VIRT     (VIRT2047) (12:37) (15MAR04) DSECTS                                                                               Page   11
0Current Usings:  (CV,R12)
0Loc    Object Code    Addr1 Addr2  Stmt Lv Lineno    Source Statement           (Hibal 5, Asmedit 3.3)  HLASM R4.0  2004/03/15 12.37
+___    ______ ____    _____ _____  ____ __ ______    ______ _________
0                                   4781              VTRC#    EQU   25                  No. of trace entries
                                    4782              VTRCP#   EQU   5                   No. of PIBtrc entries
-                                   4784                       COPY  VIRTTRC
                                    4785             =*
                                    4786             =**  VIRTUAL TRACE FORMAT
                                    4787             =*
 000000                00000 00052  4788             =VTRC     RECORD BEGIN
 000000                             4796  1          =VTRCCLCK   DS    D                   STCK CLOCK
                                    4797  1          =*
                                    4798  1          =*  IF PIBTRC...
 000008                             4799  1          =VTRCPTYP   DS    C                   TRACE TYPE (T=TO, F=FROM)
 000009                             4800  1          =           DS    X                   RESERVED
 00000A                             4801  1          =VTRCPRQS   DS    XL24                RQST
                                    4802  1          =VTRCP      EQU   VTRCCLCK,*-VTRCCLCK,C'X'
                                    4803  1          =
 000022                00022 00008  4804  1          =           ORG   VTRCCLCK+8
 000008                             4805  1          =VTRCNAME   DS    CL8                 TRACE NAME
 000010                             4806  1          =VTRCPNO    DS    H                   PORT NUMBER
                                    4807  1          =VTRCDATA   EQU   *
                                    4808  1          =*
                                    4809  1          =*  IF VTRCNAME = 'VIRT'...
 000012                00012 00012  4810  1          =           ORG   VTRCDATA
 000014                             4811  1          =VTRCSID    DS    F                   SESSION ID
 000018                             4812  1          =VTRCSACC   DS    CL5                 SESSION UUUGG
 00001D                             4813  1          =VTRCCMD    DS    X                   PDBCMD
 00001E                             4814  1          =VTRCCPL    DS    XL2                 PDBCPL  (VIRTPOST ONLY)
 000020                             4815  1          =VTRCTLEN   DS    H                   PDBLENG
 000022                             4816  1          =VTRCTEXT   DS    CL20                PDBTEXT
                                    4817  1          =*
                                    4818  1          =*  IF VTRCNAME = 'RQST'...
 000036                00036 00012  4819  1          =           ORG   VTRCDATA
 000012                             4820  1          =VTRCRQST   DS    XL64                RQST
 000052                00052 00052  4821             =         END
1VIRT     (VIRT2047) (12:37) (15MAR04) Virtual Terminal Interface                                                           Page   12
0Current Usings:  (CV,R12)
0Loc    Object Code    Addr1 Addr2  Stmt Lv Lineno    Source Statement           (Hibal 5, Asmedit 3.3)  HLASM R4.0  2004/03/15 12.37
+___    ______ ____    _____ _____  ____ __ ______    ______ _________
0                                   4831              ¿þþþþþþþþþþþþþþþþþþþþþþþþþþþþþþþþþþþþþþþþþþþþþþþþþþþþþþþþþþþþþþþþþþþþþÜ
                                    4832              Ÿ                                                                     Ÿ
                                    4833              Ÿ  VIRTDEF -- Routine to process virtual FEB definition.              Ÿ
                                    4834              Ÿ                                                                     Ÿ
                                    4835              Ÿ    On exit, R15 (and CC):                                           Ÿ
                                    4836              Ÿ      0 - ok; R1 - new FEB ptr                                       Ÿ
                                    4837              Ÿ                                                                     Ÿ
                                                      ¾þþþþþþþþþþþþþþþþþþþþþþþþþþþþþþþþþþþþþþþþþþþþþþþþþþþþþþþþþþþþþþþþþþþþþ»
0000018 50E0 D044/902B_      00044  4838              VIRTDEF  XPROC
 USING  *,R8
 000032 4100 0118            00118  4876                       LA    R0,L'FEB
 000036 58E0 82BE/0DEE       002E0  4877                       VCALL GETFEB
 00003C 18B1                        4881                       LR    FEBR,R1
 USING  FEB,R11                     4882                       WITH  FEB
 00003E 9205 B00D      0000D        4894                       MVI   FEBTYPE,FEBTVIRT
 000042 D207 B014 82B6 00014 002D8  4895                       MVC   FEBNAME,=CL8'VIRTUAL'
 000048 9680 B070      00070        4896                       SET   FEBFPS
                                    4902
 00004C 4110 B000            00000  4903                       LA    R1,FEB
 000050 1BFF                        4904                       CLEAR R15
 000052 41D0 D030/982B_      00030  4908                       PEND
 DROP   FEB,R11
 DROP   *,R8
-                                   4934              ¿þþþþþþþþþþþþþþþþþþþþþþþþþþþþþþþþþþþþþþþþþþþþþþþþþþþþþþþþþþþþþþþþþþþþþÜ
                                    4935              Ÿ                                                                     Ÿ
                                    4936              Ÿ  VIRTPORT -- Dummy routine.                                         Ÿ
                                    4937              Ÿ                                                                     Ÿ
                                                      ¾þþþþþþþþþþþþþþþþþþþþþþþþþþþþþþþþþþþþþþþþþþþþþþþþþþþþþþþþþþþþþþþþþþþþþ»
0000066 50E0 D044/902B_      00044  4938              VIRTPORT XPROC
 USING  *,R8
 000080 FEDC0E/E5C9D9E3D_           4976                       FAIL  'VIRTPORT ERROR'
 000092 41D0 D030/982B_      00030  4981                       PEND
 DROP   *,R8
1VIRT     (VIRT2047) (12:37) (15MAR04) Virtual Terminal Interface                                                           Page   13
0Current Usings:  (CV,R12)
0Loc    Object Code    Addr1 Addr2  Stmt Lv Lineno    Source Statement           (Hibal 5, Asmedit 3.3)  HLASM R4.0  2004/03/15 12.37
+___    ______ ____    _____ _____  ____ __ ______    ______ _________
0                                   5002              ¿þþþþþþþþþþþþþþþþþþþþþþþþþþþþþþþþþþþþþþþþþþþþþþþþþþþþþþþþþþþþþþþþþþþþþÜ
                                    5003              Ÿ                                                                     Ÿ
                                    5004              Ÿ  VIRTFIN -- Routine to finish building virtual front-end.           Ÿ
                                    5005              Ÿ                                                                     Ÿ
                                    5006              Ÿ    On entry:                                                        Ÿ
                                    5007              Ÿ      R1 - FEB ptr                                                   Ÿ
                                    5008              Ÿ                                                                     Ÿ
                                                      ¾þþþþþþþþþþþþþþþþþþþþþþþþþþþþþþþþþþþþþþþþþþþþþþþþþþþþþþþþþþþþþþþþþþþþþ»
00000A6 50E0 D044/902B_      00044  5009              VIRTFIN  XPROC
 USING  *,R8
 0000C0 18B1                        5047                       LR    FEBR,R1
 USING  FEB,R11                     5048                       WITH  FEB
 0000C2 D502 8246 B000_002F6 00000  5060                       FAIL  (FEB,NE,'FEB'),'BAD FEB PTR'
 0000DA D237 B0D4 809C 000D4 0014C  5086                       MVC   FEBPATH,MODLPATH
 0000E0 9180 C13C/47E0_0013C        5087                       IF    CVFTEST,'MVI FEBPPASS,C"T"'
 0000EC 4110 C038            00038  5108                       LA    R1,CVECB
 0000F0 5010 B0FC            000FC  5109                       ST    R1,FEBPECB          Save ecb ptr
 0000F4 4110 B10C            0010C  5110                       LA    R1,FEBSFLAG
 0000F8 5010 B0F4            000F4  5111                       ST    R1,FEBPECBF         Save flag ptr
 0000FC 4110 B0D4            000D4  5112                       LA    R1,FEBPATH
 000100 5010 C248            00248  5113                       ST    R1,CVWORK
 000104 9680 C248      00248        5114                       OI    CVWORK,X'80'
 000108 1B00/1BFF/4110_             5115                       SCOM  OPEN,CVWORK        Open
 000112 12FF/4780 8084_             5132                       FAIL  (R15,NZ),'VIRTUAL PATH/SUZAN ERROR'
                                    5155
 000134 9640 B00C      0000C        5156                       SET   FEBFOPEN
 000138 41D0 D030/982B_      00030  5162                       PEND
 DROP   FEB,R11
 DROP   *,R8
1VIRT     (VIRT2047) (12:37) (15MAR04) Virtual Terminal Interface                                                           Page   14
0Current Usings:  (CV,R12)
0Loc    Object Code    Addr1 Addr2  Stmt Lv Lineno    Source Statement           (Hibal 5, Asmedit 3.3)  HLASM R4.0  2004/03/15 12.37
+___    ______ ____    _____ _____  ____ __ ______    ______ _________
0                                   5188            C MODLPATH PATH  PFX=MODL,MYTAG=MILTEN,PASS=PVFE,
 00014C 00000000/0000000_                                            BUFSIZE=CVBUFLEN,ECB=*-*,FLAG=*-*,VERSION=2
1VIRT     (VIRT2047) (12:37) (15MAR04) Virtual Terminal Interface                                                           Page   15
0Current Usings:  (CV,R12)
0Loc    Object Code    Addr1 Addr2  Stmt Lv Lineno    Source Statement           (Hibal 5, Asmedit 3.3)  HLASM R4.0  2004/03/15 12.37
+___    ______ ____    _____ _____  ____ __ ______    ______ _________
0                                   5251              ¿þþþþþþþþþþþþþþþþþþþþþþþþþþþþþþþþþþþþþþþþþþþþþþþþþþþþþþþþþþþþþþþþþþþþþÜ
                                    5252              Ÿ                                                                     Ÿ
                                    5253              Ÿ  VIRTXCLS -- Special routine to mark the front-end as closing       Ÿ
                                    5254              Ÿ    if it needs full service.                                        Ÿ
                                    5255              Ÿ                                                                     Ÿ
                                    5256              Ÿ    This routine is called by SIFT when ORVYL or WYLBUR dies         Ÿ
                                    5257              Ÿ    so that the path will close.                                     Ÿ
                                    5258              Ÿ                                                                     Ÿ
                                    5259              Ÿ    On entry:                                                        Ÿ
                                    5260              Ÿ      R1 - FEB ptr                                                   Ÿ
                                    5261              Ÿ                                                                     Ÿ
                                                      ¾þþþþþþþþþþþþþþþþþþþþþþþþþþþþþþþþþþþþþþþþþþþþþþþþþþþþþþþþþþþþþþþþþþþþþ»
0000184 50E0 D044/902B_      00044  5262              VIRTXCLS XPROC
 USING  *,R8
 00019E 18B1                        5300                       LR    FEBR,R1
 USING  FEB,R11                     5301                       WITH  FEB
                                    5313
 0001A0 D502 8168 B000_002F6 00000  5314                       FAIL  (FEB,NE,'FEB'),'Bad FEB ptr.'
                                    5340                       ¿þþþþþþþþþþþþþþþþþþþþþþþþþþþþþþþþþþþþþþþþþþþþþþþþþþþþþþþþþþþÜ
                                    5341                       Ÿ  Only terminate this front-end if it needs full service.  Ÿ
                                    5342                       ¾þþþþþþþþþþþþþþþþþþþþþþþþþþþþþþþþþþþþþþþþþþþþþþþþþþþþþþþþþþþ»
 0001BA D502 816B B0C0_002F9 000C0  5343                       IF    ((FEBTAG,EQ,'VAM'),OR,(FEBTAG,EQ,'VFE')),BEGIN
 0001CE 58F0 B10C/4110_      0010C  5376  1                      SET   FEBSFLAG.FEBPFCLS,MODE=LOCKED,REF=FEB
 0001E6                             5391                       END
                                    5395
 0001E6 41D0 D030/982B_      00030  5396                       PEND
 DROP   FEB,R11
 DROP   *,R8
1VIRT     (VIRT2047) (12:37) (15MAR04) Virtual Terminal Interface                                                           Page   16
0Current Usings:  (CV,R12)
0Loc    Object Code    Addr1 Addr2  Stmt Lv Lineno    Source Statement           (Hibal 5, Asmedit 3.3)  HLASM R4.0  2004/03/15 12.37
+___    ______ ____    _____ _____  ____ __ ______    ______ _________
0                                   5422              ¿þþþþþþþþþþþþþþþþþþþþþþþþþþþþþþþþþþþþþþþþþþþþþþþþþþþþþþþþþþþþþþþþþþþþþÜ
                                    5423              Ÿ                                                                     Ÿ
                                    5424              Ÿ  VIRTCLS -- Routine to close virtual front-end.                     Ÿ
                                    5425              Ÿ                                                                     Ÿ
                                    5426              Ÿ    On entry:                                                        Ÿ
                                    5427              Ÿ      R1 - FEB ptr                                                   Ÿ
                                    5428              Ÿ                                                                     Ÿ
                                                      ¾þþþþþþþþþþþþþþþþþþþþþþþþþþþþþþþþþþþþþþþþþþþþþþþþþþþþþþþþþþþþþþþþþþþþþ»
00001FA 50E0 D044/902B_      00044  5429              VIRTCLS  PROC
 USING  *,R8
 000214 18B1                        5465                       LR    FEBR,R1
 USING  FEB,R11                     5466                       WITH  FEB
                                    5478
 000216 D502 80F2 B000_002F6 00000  5479                       FAIL  (FEB,NE,'FEB'),'BAD FEB PTR'
                                    5505
 00022E D603 B0D4 B0D4_000D4 000D4  5506                       IF    (FEBPMGC,NZ),BEGIN
 000238 41F0 0004/5800_      00004  5522  1                      SCOM  CLOSE,0,FEBPMGC     Close path
 000244 D703 B0D4 B0D4 000D4 000D4  5540  1                      CLEAR FEBPMGC
 00024A                             5547                       END
                                    5551
 00024A 9200 B10C      0010C        5552                       CLEAR FEBSFLAG
                                    5559
 00024E 5870 B098/1277       00098  5560                       LT    R7,FEBPATP
 000254 4780 809A            0029E  5564                       IF    NZ,BEGIN            Zot current sessions...
 000258 1B66                        5575  1                      CLEAR R6
 00025A 4960 B076/47B0_      00076  5579  1                      WHILE (R6,LT,FEBPMAX),BEGIN
 000262 1856                        5598  2                        LR    R5,R6
 000264 8950 0002            00002  5599  2                        SLL   R5,2                Times 4 for PAT offset
 000268 4160 6001            00001  5600  2                        LA    R6,@R6+1
 00026C 58A5 7000/12AA       00000  5601  2                        LT    PIBR,@R7(R5)
 000272 4780 8056            0025A  5605  2                        IF    Z,NEXT              Go get next PIB ptr
 USING  PIB,R10                     5619  2                        WITH  PIB
 000276 5810 A00C/1211_      0000C  5631  2                        IF    ('LT R1,PIBSCBP',NZ),'VCALL DISCSESS'  Disconnect
 000286 181A                        5656  2                        LR    R1,PIBR
 000288 58E0 80E4/0DEE       002E8  5657  2                        VCALL FREEPIB             Release port
 00028E 1BAA                        5661  2                        CLEAR PIBR
                                    5665  2
 000290 48F0 B10E/06F0_      0010E  5666  2                        DECR  R15,FEBPNO
 00029A 47F0 8056            0025A  5671  1                      END
 DROP   PIB,R10
 00029E                             5681                       END
                                    5685
 00029E D607 B078 B078_00078 00078  5686                       IF    (FEBSCLCK,NZ),'DECR R15,CVMCRVIR'  NO. OF ACTIVE VFE'S
                                    5712
 0002B2 4110 B000            00000  5713                       LA    R1,FEB
 0002B6 58E0 80E8/0DEE       002EC  5714                       VCALL FREEFEB             Release front-end
                                    5718
 0002BC 58E0 80EC/0DEE       002F0  5719                       VCALL STOPCHK             Shutdown now if stop pending
                                    5723
 0002C2 1BFF                        5724                       CLEAR R15
 0002C4 41D0 D030/982B_      00030  5728                       PEND
 DROP   FEB,R11
 DROP   *,R8
1VIRT     (VIRT2047) (12:37) (15MAR04) Virtual Terminal Interface                                                           Page   17
0Current Usings:  (CV,R12)
0Loc    Object Code    Addr1 Addr2  Stmt Lv Lineno    Source Statement           (Hibal 5, Asmedit 3.3)  HLASM R4.0  2004/03/15 12.37
+___    ______ ____    _____ _____  ____ __ ______    ______ _________
0                                   5753                       QLTORG
1VIRT     (VIRT2047) (12:37) (15MAR04) Virtual Terminal Interface                                                           Page   18
0Current Usings:  (CV,R12)
0Loc    Object Code    Addr1 Addr2  Stmt Lv Lineno    Source Statement           (Hibal 5, Asmedit 3.3)  HLASM R4.0  2004/03/15 12.37
+___    ______ ____    _____ _____  ____ __ ______    ______ _________
0                                   5776              ¿þþþþþþþþþþþþþþþþþþþþþþþþþþþþþþþþþþþþþþþþþþþþþþþþþþþþþþþþþþþþþþþþþþþþþÜ
                                    5777              Ÿ                                                                     Ÿ
                                    5778              Ÿ  VIRTCNTL -- Routine to perform virtual control operation.          Ÿ
                                    5779              Ÿ                                                                     Ÿ
                                    5780              Ÿ    On entry:                                                        Ÿ
                                    5781              Ÿ      R0 - control number                                            Ÿ
                                    5782              Ÿ      R1 - FEB ptr                                                   Ÿ
                                    5783              Ÿ      R15- PDB ptr                                                   Ÿ
                                    5784              Ÿ                                                                     Ÿ
                                    5785              Ÿ    On exit, R15 (and CC):                                           Ÿ
                                    5786              Ÿ      -8 - bad control number                                        Ÿ
                                    5787              Ÿ      -4 - bad format                                                Ÿ
                                    5788              Ÿ       0 - ok (PDB has return data)                                  Ÿ
                                    5789              Ÿ      12 - error                                                     Ÿ
                                    5790              Ÿ                                                                     Ÿ
                                                      ¾þþþþþþþþþþþþþþþþþþþþþþþþþþþþþþþþþþþþþþþþþþþþþþþþþþþþþþþþþþþþþþþþþþþþþ»
0000300 50E0 D044/902B_      00044  5791              VIRTCNTL XPROC
 USING  *,R8
 00031A 18B1                        5829                       LR    FEBR,R1
 USING  FEB,R11                     5830                       WITH  FEB
 00031C D502 8264 B000_0056E 00000  5842                       FAIL  (FEB,NE,'FEB'),'BAD FEB PTR'
 000334 187F                        5868                       LR    R7,R15
 USING  PDB,R7                      5869                       WITH  (PDB,R7)
                                    5882
 000336 4160 7038            00038  5883                       LA    R6,PDBTEXT
 USING  FDB,R6                      5884                       WITH  (FDB,R6)
                                    5897
 00033A 18E0                        5898                       LR    RAR,R0
 00033C 59E0 8236/4750_      00540  5899                       IF    (RAR,GE,100),BEGIN  priv'd control...
 000344 59E0 823A/47D0_      00544  5916  1                      IF    (RAR,GT,VCTLPMAX),'LA RAR,100'
 000350 4BE0 8248            00552  5939  1                      SH    RAR,=Y(100)
 000354 89E0 0002            00002  5940  1                      SLL   RAR,2
 000358 58EE 8076            00380  5941  1                      L     RAR,VCTLPTBL(RAR)   Processing routine
 00035C 07FE                        5942  1                      BR    RAR
 00035E                             5943                       END
                                    5947
 00035E 55E0 823E/47D0_      00548  5948                       IF    (RAR,LGT,VCTLMAX),'CLEAR RAR'
 000368 89E0 0002            00002  5974                       SLL   RAR,2
 00036C 58EE 806A            00374  5975                       L     RAR,VCTLTBL(RAR)    Processing routine
 000370 07FE                        5976                       BR    RAR
1VIRT     (VIRT2047) (12:37) (15MAR04) Virtual Terminal Interface                                                           Page   19
0Current Usings:  (FDB,R6) (PDB,R7) (*,R8) (FEB,R11) (CV,R12)
0Loc    Object Code    Addr1 Addr2  Stmt Lv Lineno    Source Statement           (Hibal 5, Asmedit 3.3)  HLASM R4.0  2004/03/15 12.37
+___    ______ ____    _____ _____  ____ __ ______    ______ _________
0000372 0000
 000374 0000038C                    5978              VCTLTBL  DC    A(VCTL0)
 000378 000003AA                    5979                       DC    A(VCTL1)            1:   sense virtual front-end info
 00037C 000003FA                    5980                       DC    A(VCTL2)            2:   sense virtual port info
                                    5981              VCTLMAX  EQU   (*-VCTLTBL-4)/4,,C'N'
                                    5982
 000380                             5983                       DS    0S(VCTLMAX-FDBCMAX,FDBCMAX-VCTLMAX)
-000380 0000038C                    5985              VCTLPTBL DC    A(VCTL0)
 000384 00000468                    5986                       DC    A(VCTL101)          101: set virtual front-end
 000388 000004A4                    5987                       DC    A(VCTL102)          102: set virtual port
                                    5988              VCTLPMAX EQU   (*-VCTLPTBL-4)/4+100,,C'N'
                                    5989
 00038C                             5990                       DS    0S(VCTLPMAX-FDBPMAX,FDBPMAX-VCTLPMAX)
-
0                                   5992              *****  Control 0:   Bad control number
-00038C 48F0 824A            00554  5994              VCTL0    LH    R15,=H'-8'
 000390 47F0 81A8            004B2  5995                       EXIT
                                    5998
 000394 48F0 824C            00556  5999              VCTLBF   LH    R15,=H'-4'
 000398 47F0 81A8            004B2  6000                       EXIT
                                    6003
 00039C 41F0 000C            0000C  6004              VCTLRC12 LA    R15,12
 0003A0 47F0 81A8            004B2  6005                       EXIT
                                    6008
 0003A4 1BFF                        6009              VCTLOK   CLEAR R15
 0003A6 47F0 81A8            004B2  6014                       EXIT
1VIRT     (VIRT2047) (12:37) (15MAR04) Virtual Terminal Interface                                                           Page   20
0Current Usings:  (FDB,R6) (PDB,R7) (*,R8) (FEB,R11) (CV,R12)
0Loc    Object Code    Addr1 Addr2  Stmt Lv Lineno    Source Statement           (Hibal 5, Asmedit 3.3)  HLASM R4.0  2004/03/15 12.37
+___    ______ ____    _____ _____  ____ __ ______    ______ _________
0                                   6018              *****  Control 1:   Sense virtual front-end info
-0003AA D501 824E 7032_00558 00032  6020              VCTL1    IF    (PDBWC,NE,L'FDBT1),VCTLBF  bad parms
 0003B4 D70B 6000 6000 00000 00000  6041                       CLEAR FDBF1
 0003BA D201 6008 8250 00008 0055A  6048                       MVC   FDBFFTNO,=Y(VTRC#)  No. of entries
 0003C0 D201 600A 8252 0000A 0055C  6049                       MVC   FDBFFLEN,=Y(L'VTRC)  size of an entry
 0003C6 4120 600C            0000C  6050                       LA    R2,FDBFFTRC
 0003CA 9835 B0A0            000A0  6051                       LM    R3,R5,FEBTRCP+4     R3=next,r4=first,r5=end
 0003CE                             6052                       LOOP  BEGIN
 0003CE 5B30 B09C            0009C  6058  1                      S     R3,FEBTRCP          Back up
 0003D2 1934/47B0 80D4_             6059  1                      IF    (R3,LT,R4),'LR R3,R5; S R3,FEBTRCP'  last
 0003DE D251 2000 3000 00000 00000  6081  1                      MVC   @R2(L'VTRC),@R3     Copy trace entry
 0003E4 4120 2052            00052  6082  1                      LA    R2,@R2+L'VTRC       Next entry
 0003E8 5930 B0A0/4770_      000A0  6083                       UNTIL ('C R3,FEBTRCP+4',EQ),END
 0003F0 D201 7000 8254 00000 0055E  6104                       MVC   PDBLENG,=Y(L'PDBHDR+L'FDBF1+VTRC#*L'VTRC)
 0003F6 47F0 809A            003A4  6105                       B     VCTLOK
1VIRT     (VIRT2047) (12:37) (15MAR04) Virtual Terminal Interface                                                           Page   21
0Current Usings:  (FDB,R6) (PDB,R7) (*,R8) (FEB,R11) (CV,R12)
0Loc    Object Code    Addr1 Addr2  Stmt Lv Lineno    Source Statement           (Hibal 5, Asmedit 3.3)  HLASM R4.0  2004/03/15 12.37
+___    ______ ____    _____ _____  ____ __ ______    ______ _________
0                                   6107              *****  Control 2:   Sense virtual port info
-0003FA D501 8256 7032_00560 00032  6109              VCTL2    IF    (PDBWC,NE,L'FDBT2),VCTLBF  bad parms
 000404 48F0 6004            00004  6130                       LH    R15,FDBT2P          Port no.
 000408 BDF3 B076/47A0_      00076  6131                       IF    (R15,LGE,FEBPMAX),VCTLRC12  out of bounds
 000410 89F0 0002            00002  6151                       SLL   R15,2
 000414 58A0 B098            00098  6152                       L     PIBR,FEBPATP
 000418 58AF A000/12AA       00000  6153                       LT    PIBR,@PIBR(R15)     PIB ptr
 00041E 4780 8092            0039C  6157                       BZ    VCTLRC12
 000422 D70F 6000 6000 00000 00000  6158                       CLEAR FDBF2
 USING  PIB,R10                     6165                       WITH  PIB,BEGIN
 000428 D201 600C 8258 0000C 00562  6178  1                      MVC   FDBFPTNO,=Y(VTRCP#)  no. of trace entries
 00042E D201 600E 825A 0000E 00564  6179  1                      MVC   FDBFPLEN,=Y(L'VTRCP)  length of a trace entry
                                    6180  1
 000434 4120 6010            00010  6181  1                      LA    R2,FDBFPTRC
 000438 9835 A094            00094  6182  1                      LM    R3,R5,PIBTRCP+4     R3=next,r4=first,r5=end
 00043C                             6183  1                      LOOP  BEGIN
 00043C 5B30 A090            00090  6189  2                        S     R3,PIBTRCP          Back up
 000440 1934/47B0 8142_             6190  2                        IF    (R3,LT,R4),'LR R3,R5; S R3,PIBTRCP'  last
 00044C D221 2000 3000 00000 00000  6212  2                        MVC   @R2(L'VTRCP),@R3    Copy trace entry
 000452 4120 2022            00022  6213  2                        LA    R2,@R2+L'VTRCP      Next entry
 000456 5930 A094/4770_      00094  6214  1                      UNTIL ('C R3,PIBTRCP+4',EQ),END
 DROP   PIB,R10                     6235                       END
 00045E D201 7000 825C 00000 00566  6243                       MVC   PDBLENG,=Y(L'PDBHDR+L'FDBF2+VTRCP#*L'VTRCP)
 000464 47F0 809A            003A4  6244                       B     VCTLOK
1VIRT     (VIRT2047) (12:37) (15MAR04) Virtual Terminal Interface                                                           Page   22
0Current Usings:  (FDB,R6) (PDB,R7) (*,R8) (FEB,R11) (CV,R12)
0Loc    Object Code    Addr1 Addr2  Stmt Lv Lineno    Source Statement           (Hibal 5, Asmedit 3.3)  HLASM R4.0  2004/03/15 12.37
+___    ______ ____    _____ _____  ____ __ ______    ______ _________
0                                   6246              *****  Control 101: Set virtual front-end
-000468 D501 825E 7032_00568 00032  6248              VCTL101  IF    (PDBWC,NE,L'FDBT101),VCTLBF  bad parms
 000472 9120 6004/47E0_00004        6269                       IF    FDBTFOPN,BEGIN      Open...
                                    6284  1           * temp..  what to do?????
 00047A                             6285                       END
                                    6289
 00047A 9110 6004/47E0_00004        6290                       IF    FDBTFCLS,BEGIN      Close...
 000482 4110 B000            00000  6305  1                      LA    R1,FEB
 000486 58E0 8242/0DEE       0054C  6306  1                      ACALL VIRTCLS
                                    6310  1
 00048C D737 7000 7000 00000 00000  6311  1                      CLEAR PDBHDR              (virtcls may have used this area)
 000492 D201 7000 8260 00000 0056A  6318  1                      MVC   PDBLENG,=Y(L'PDBHDR)
 000498 9249 7006      00006        6319  1                      MVI   PDBCMD,MILCNTL
 00049C 47F0 809A            003A4  6320  1                      B     VCTLOK
 0004A0                             6321                       END
                                    6325
 0004A0 47F0 808A            00394  6326                       B     VCTLBF              Bad command code
1VIRT     (VIRT2047) (12:37) (15MAR04) Virtual Terminal Interface                                                           Page   23
0Current Usings:  (FDB,R6) (PDB,R7) (*,R8) (FEB,R11) (CV,R12)
0Loc    Object Code    Addr1 Addr2  Stmt Lv Lineno    Source Statement           (Hibal 5, Asmedit 3.3)  HLASM R4.0  2004/03/15 12.37
+___    ______ ____    _____ _____  ____ __ ______    ______ _________
0                                   6328              *****  Control 102: Set virtual port
-0004A4 D501 8262 7032_0056C 00032  6330              VCTL102  IF    (PDBWC,NE,L'FDBT102),VCTLBF  bad parms
 0004AE 47F0 808A            00394  6351                       B     VCTLBF              Temporary
                                    6352
 0004B2 41D0 D030/982B_      00030  6353                       PEND
 DROP   FDB,R6
 DROP   PDB,R7
 DROP   FEB,R11
 DROP   *,R8
1VIRT     (VIRT2047) (12:37) (15MAR04) Virtual Terminal Interface                                                           Page   24
0Current Usings:  (CV,R12)
0Loc    Object Code    Addr1 Addr2  Stmt Lv Lineno    Source Statement           (Hibal 5, Asmedit 3.3)  HLASM R4.0  2004/03/15 12.37
+___    ______ ____    _____ _____  ____ __ ______    ______ _________
0                                   6389              ¿þþþþþþþþþþþþþþþþþþþþþþþþþþþþþþþþþþþþþþþþþþþþþþþþþþþþþþþþþþþþþþþþþþþþþÜ
                                    6390              Ÿ                                                                     Ÿ
                                    6391              Ÿ  VIRTUPD -- Routine to check SCB updates.                           Ÿ
                                    6392              Ÿ                                                                     Ÿ
                                    6393              Ÿ    On entry:                                                        Ÿ
                                    6394              Ÿ      R1 - SCB ptr                                                   Ÿ
                                    6395              Ÿ                                                                     Ÿ
                                                      ¾þþþþþþþþþþþþþþþþþþþþþþþþþþþþþþþþþþþþþþþþþþþþþþþþþþþþþþþþþþþþþþþþþþþþþ»
00004C6 50E0 D044/902B_      00044  6396              VIRTUPD  XPROC
 USING  *,R8
 0004E0 1891                        6434                       LR    SCBR,R1
 USING  SCB,R9                      6435                       WITH  SCB
 0004E2 58A0 9008            00008  6447                       L     PIBR,SCBPIBP
 USING  PIB,R10                     6448                       WITH  PIB
 0004E6 58B0 A008            00008  6460                       L     FEBR,PIBFEBP
 USING  FEB,R11                     6461                       WITH  FEB
                                    6473
 0004EA 9610 915E      0015E        6474                       SET   SCBFNTIM            Insist on notime
 0004EE D701 918A 918A 0018A 0018A  6480                       CLEAR SCBHEIP             Ignore page/pause
                                    6487
 0004F4 D601 B0CE B0CE_000CE 000CE  6488                       IF    (FEBINMX,NZ),'CEIL SCBINMX,FEBINMX'
 00050E D601 B0D0 B0D0_000D0 000D0  6514                       IF    (FEBOUMX,NZ),'CEIL SCBOUMX,FEBOUMX'
 000528 41D0 D030/982B_      00030  6540                       PEND
 DROP   FEB,R11
 DROP   PIB,R10
 DROP   SCB,R9
 DROP   *,R8
                                    6575
                                    6576                       QLTORG
1VIRT     (VIRT2047) (12:37) (15MAR04) Virtual Terminal Interface                                                           Page   25
0Current Usings:  (CV,R12)
0Loc    Object Code    Addr1 Addr2  Stmt Lv Lineno    Source Statement           (Hibal 5, Asmedit 3.3)  HLASM R4.0  2004/03/15 12.37
+___    ______ ____    _____ _____  ____ __ ______    ______ _________
0                                   6609              ¿þþþþþþþþþþþþþþþþþþþþþþþþþþþþþþþþþþþþþþþþþþþþþþþþþþþþþþþþþþþþþþþþþþþþþÜ
                                    6610              Ÿ                                                                     Ÿ
                                    6611              Ÿ  VIRTDO -- Routine to do virtual terminal I/O.                      Ÿ
                                    6612              Ÿ                                                                     Ÿ
                                    6613              Ÿ    On entry:                                                        Ÿ
                                    6614              Ÿ      R1 - SCB ptr                                                   Ÿ
                                    6615              Ÿ      R15- PDB ptr                                                   Ÿ
                                    6616              Ÿ                                                                     Ÿ
                                                      ¾þþþþþþþþþþþþþþþþþþþþþþþþþþþþþþþþþþþþþþþþþþþþþþþþþþþþþþþþþþþþþþþþþþþþþ»
0000572 50E0 D044/902B_      00044  6617              VIRTDO   XPROC
 USING  *,R8
 00058C 1891                        6655                       LR    SCBR,R1
 USING  SCB,R9                      6656                       WITH  SCB
 00058E 58A0 9008            00008  6668                       L     PIBR,SCBPIBP
 USING  PIB,R10                     6669                       WITH  PIB
 000592 58B0 A008            00008  6681                       L     FEBR,PIBFEBP
 USING  FEB,R11                     6682                       WITH  FEB
 000596 187F                        6694                       LR    R7,R15
 USING  PDB,R7                      6695                       WITH  (PDB,R7)
                                    6708
 000598 4110 B09C/4DE0_      0009C  6709                       XTRACE FEBTRCP,VIRTDO
 USING  VTRC,R15                    6720                       WITH  (VTRC,R15),BEGIN
 0005A6 D201 F010 A004 00010 00004  6734  1                      MVC   VTRCPNO,PIBNO
 0005AC D203 F014 90F4 00014 000F4  6735  1                      MVC   VTRCSID,SCBID
 0005B2 D204 F018 9124 00018 00124  6736  1                      MVC   VTRCSACC,SCBACCT
 0005B8 D200 F01D 7006 0001D 00006  6737  1                      MVC   VTRCCMD,PDBCMD
 0005BE D201 F020 7000 00020 00000  6738  1                      MVC   VTRCTLEN,PDBLENG
 0005C4 D213 F022 7038 00022 00038  6739  1                      MVC   VTRCTEXT,PDBTEXT
 DROP   VTRC,R15                    6740                       END
1VIRT     (VIRT2047) (12:37) (15MAR04) Virtual Terminal Interface                                                           Page   26
0Current Usings:  (PDB,R7) (*,R8) (SCB,R9) (PIB,R10) (FEB,R11) (CV,R12)
0Loc    Object Code    Addr1 Addr2  Stmt Lv Lineno    Source Statement           (Hibal 5, Asmedit 3.3)  HLASM R4.0  2004/03/15 12.37
+___    ______ ____    _____ _____  ____ __ ______    ______ _________
00005CA 9540 7006/4770_00006        6749                       IF    (PDBCMD,EQ,TMILEOS),BEGIN  end of session...
 0005D2 5990 A00C/4780_      0000C  6767  1                      FAIL  (SCBR,NE,PIBSCBP),'BAD PIB SCB PTR'
 0005EC 1819                        6793  1                      LR    R1,SCBR
 0005EE 1B99/5090 A00C              6794  1                      CLEAR SCBR,PIBSCBP
 0005F4 58E0 822C/0DEE       007A8  6803  1                      VCALL FREESCB
 0005FA 4820 A004            00004  6807  1                      LH    R2,PIBNO
 0005FE 8920 0002            00002  6808  1                      SLL   R2,2
 000602 5A20 B098            00098  6809  1                      A     R2,FEBPATP
 000606 59A0 2000/4780_      00000  6810  1                      FAIL  ('C PIBR,@R2',NE),'BAD PAT PIB PTR'
 000620 D603 A090 A090_00090 00090  6832  1                      IF    (PIBTRCP,NZ),'LA R15,PIBTRCP; VCALL FREETRC'
 000634 D703 2000 2000 00000 00000  6858  1                      CLEAR (@R2,4)             Zero pib ptr in pat
 00063A 181A                        6865  1                      LR    R1,PIBR
 00063C 1BAA                        6866  1                      CLEAR PIBR
 00063E 58E0 8234/0DEE       007B0  6870  1                      VCALL FREEPIB
 000644 48F0 B10E/06F0_      0010E  6874  1                      DECR  R15,FEBPNO
                                    6879  1                  ¿þþþþþþþþþþþþþþþþþþþþþþþþþþþþþþþþþþþþþþþþþþþþþþþþþþþþþþþþþþþþþþþþþþþÜ
                                    6880  1                  Ÿ  Last terminal has logged off; now send a global normal shutdown  Ÿ
                                    6881  1                  Ÿ      request (if extended mode) and then close the path.          Ÿ
                                    6882  1                  ¾þþþþþþþþþþþþþþþþþþþþþþþþþþþþþþþþþþþþþþþþþþþþþþþþþþþþþþþþþþþþþþþþþþþ»
 00064E D601 B10E B10E_0010E 0010E  6883  1                      IF    (FEBPNO,Z),BEGIN    No more terminals...
 000658 9140 B0B8/47E0_000B8        6899  2                        IF    FEBFEXT,BEGIN       Extended mode...
 000660 5860 C064            00064  6914  3                          L     R6,CVWKBUFP
 USING  RQST,R6                     6915  3                          WITH  (RQST,R6)
 000664 D711 6000 6000 00000 00000  6928  3                          CLEAR RQSTHDR
 00066A D201 6000 8246 00000 007C2  6935  3                          MVC   RQSTLEN,=AL2(L'RQSTHDR)
 000670 D201 6006 8248 00006 007C4  6936  3                          MVC   RQSTPNO,=H'-1'      Set port number of -1 for Global
 000676 9230 6008      00008        6937  3                          MVI   RQSTCMD,FMILSTOP    Global stop request
                                    6938  3
 00067A 4110 B0D4            000D4  6939  3                          LA    R1,FEBPATH
 00067E 41F0 6000            00000  6940  3                          LA    R15,RQST
 000682 58E0 8238/0DEE       007B4  6941  3                          ACALL PATHSEND            Send global end of session
 DROP   RQST,R6                     6945  2                        END
                                    6954  2
 000688 181B                        6955  2                        LR    R1,FEBR
 00068A 58E0 823C/0DEE       007B8  6956  2                        ACALL VIRTCLS             Close virtual path
 000690                             6960  1                      END
                                    6964  1
 000690 47F0 8204            00780  6965  1                      EXIT  VIRTDO
 000694                             6968                       END
                                    6972              *
                                    6973              *
 000694 9541 7006/4780_00006        6974                       IF    ((PDBCMD,EQ,TMILWRIT),OR,(PDBCMD,EQ,TMILREAD)),BEGIN
 0006A4 41F0 0001/5EF0_      00001  7009  1                      INCR  R15,PIBNIO          Kick port i/o count
 0006B0                             7015                       END
                                    7019
 0006B0 5860 C064            00064  7020                       L     R6,CVWKBUFP
 USING  RQST,R6                     7021                       WITH  (RQST,R6)
 0006B4 D711 6000 6000 00000 00000  7034                       CLEAR RQSTHDR
                                    7041
 0006BA D201 6006 A004 00006 00004  7042                       MVC   RQSTPNO,PIBNO       Port number
 0006C0 D200 6008 7006 00008 00006  7043                       MVC   RQSTCMD,PDBCMD      Command code
 0006C6 D201 600A 7009 0000A 00009  7044                       MVC   RQSTMODB(2),PDBMODB  flags
 0006CC D201 6010 7030 00010 00030  7045                       MVC   RQSTINCT,PDBINCT    Input count
 0006D2 4820 702E            0002E  7046                       LH    R2,PDBOUTCT
1VIRT     (VIRT2047) (12:37) (15MAR04) Virtual Terminal Interface                                                           Page   27
0Current Usings:  (RQST,R6) (PDB,R7) (*,R8) (SCB,R9) (PIB,R10) (FEB,R11) (CV,R12)
0Loc    Object Code    Addr1 Addr2  Stmt Lv Lineno    Source Statement           (Hibal 5, Asmedit 3.3)  HLASM R4.0  2004/03/15 12.37
+___    ______ ____    _____ _____  ____ __ ______    ______ _________
00006D6 4020 600E            0000E  7047                       STH   R2,RQSTOUCT
 0006DA 41E0 6012            00012  7048                       LA    R14,RQSTTEXT
 0006DE 9542 6008/4770_00008        7049                       IF    (RQSTCMD,EQ,TMILREAD),BEGIN  counts (compatability)...
 0006E6 4020 E000            00000  7067  1                      STH   R2,@R14             Write count
 0006EA D701 E002 E002 00002 00002  7068  1                      CLEAR (@R14+2,2)          Prompt count
 0006F0 41F0 2004            00004  7075  1                      LA    R15,@R2+4           Outct includes other counts
 0006F4 40F0 600E            0000E  7076  1                      STH   R15,RQSTOUCT
 0006F8 41E0 E004            00004  7077  1                      LA    R14,@R14+4
 0006FC                             7078                       END
 0006FC 18F2/4100 7038_             7082                       MOVEL (R14),PDBTEXT,(R2)
 000706 41F0 0012            00012  7101                       LA    R15,L'RQSTHDR
 00070A 4AF0 600E            0000E  7102                       AH    R15,RQSTOUCT
 00070E 40F0 6000            00000  7103                       STH   R15,RQSTLEN         Total length
                                    7104
 000712 4110 B09C/4DE0_      0009C  7105                       XTRACE FEBTRCP,RQSTTO
 USING  VTRC,R15                    7116                       WITH  (VTRC,R15),BEGIN
 000720 D201 F010 A004 00010 00004  7130  1                      MVC   VTRCPNO,PIBNO
 000726 D23F F012 6000 00012 00000  7131  1                      MVC   VTRCRQST,RQST
 DROP   VTRC,R15                    7132                       END
                                    7140
 00072C 4110 A090/4DE0_      00090  7141                       XTRACE PIBTRCP
 USING  VTRCP,R15                   7151                       WITH  (VTRCP,R15),BEGIN
 000734 92E3 F008      00008        7165  1                      MVI   VTRCPTYP,C'T'       To virtual front-end
 000738 D217 F00A 6000 0000A 00000  7166  1                      MVC   VTRCPRQS,RQST
 DROP   VTRCP,R15                   7167                       END
                                    7175
 00073E 4110 B0D4            000D4  7176                       LA    R1,FEBPATH
 000742 41F0 6000            00000  7177                       LA    R15,RQST            Send to virtual front-end
 000746 58E0 8238/0DEE       007B4  7178                       ACALL PATHSEND
 00074C 4780 8204            00780  7182                       IF    NZ,BEGIN            Path closing...
 000750 D201 7000 824A 00000 007C6  7193  1                      MVC   PDBLENG,=Y(L'PDBHDR)
 000756 D730 7007 7007 00007 00007  7194  1                      CLEAR PDBOPT
 00075C 9250 7006      00006        7201  1                      MVI   PDBCMD,FMILASYN     Asynchronous
 000760 9140 90B0/47E0_000B0        7202  1                      IF    SCBTFIO,'MVC PDBCMD,SCBCMD'
 00076E 9680 700D      0000D        7223  1                      SET   PDBCPLB.CPLBLGF     Logoff pending
 000772 4110 9000            00000  7230  1                      LA    R1,SCB
 000776 41F0 7000            00000  7231  1                      LA    R15,PDB
 00077A 58E0 8240/0DEE       007BC  7232  1                      VCALL SUBSEND             Tell subsystem
 000780                             7236                       END
 000780 41D0 D030/982B_      00030  7240                       PEND
 DROP   RQST,R6
 DROP   PDB,R7
 DROP   FEB,R11
 DROP   PIB,R10
 DROP   SCB,R9
 DROP   *,R8
                                    7285
                                    7286                       QLTORG
1VIRT     (VIRT2047) (12:37) (15MAR04) Virtual Terminal Interface                                                           Page   28
0Current Usings:  (CV,R12)
0Loc    Object Code    Addr1 Addr2  Stmt Lv Lineno    Source Statement           (Hibal 5, Asmedit 3.3)  HLASM R4.0  2004/03/15 12.37
+___    ______ ____    _____ _____  ____ __ ______    ______ _________
0                                   7311              ¿þþþþþþþþþþþþþþþþþþþþþþþþþþþþþþþþþþþþþþþþþþþþþþþþþþþþþþþþþþþþþþþþþþþþþÜ
                                    7312              Ÿ                                                                     Ÿ
                                    7313              Ÿ  VIRTPOST -- Routine to process posts from virtual front-end.       Ÿ
                                    7314              Ÿ                                                                     Ÿ
                                    7315              Ÿ    On entry:                                                        Ÿ
                                    7316              Ÿ      R1 - FEB ptr                                                   Ÿ
                                    7317              Ÿ                                                                     Ÿ
                                                      ¾þþþþþþþþþþþþþþþþþþþþþþþþþþþþþþþþþþþþþþþþþþþþþþþþþþþþþþþþþþþþþþþþþþþþþ»
00007C8 50E0 D044/902B_      00044  7318              VIRTPOST XPROC
 USING  *,R8
 0007E2 18B1                        7356                       LR    FEBR,R1
 USING  FEB,R11                     7357                       WITH  FEB
                                    7369
 0007E4 9108 B10C/47E0_0010C        7370                       IF    FEBSFLAG.FEBPFOPN,BEGIN  path opened...
 000EC7 F7/41F0 0001/1_00EC7 01600  7386  1                      CLEAR FEBSFLAG.FEBPFOPN,MODE=LOCKED,REF=FEB
                                    7432  1
 00080A 4BD0 86B4/BED7_      00E86  7433  1                      PUSH  8+20+64,PTR=R7      Arglist + info + misc
 00081A D75B 7000 7000 00000 00000  7440  1                      CLEAR (@R7,8+20+64)       Tidy
 000820 41F0 7008            00008  7447  1                      LA    R15,@R7+8
 000824 50F0 7000            00000  7448  1                      ST    R15,@R7             Pcw addr
 000828 9680 7000      00000        7449  1                      OI    @R7,X'80'
 00082C D203 7004 865E 00004 00E30  7450  1                      MVC   @R7+4(4),=F'20'     Length of area
 000832 41F0 0020/5800_      00020  7451  1                      SCOM  INFO,(R7),FEBPMGC   Sense partner info
 00083E 12FF/4780 8082              7470  1                      IF    (R15,NZ),BEGIN
 000844 41D0 D060/50D0_      00060  7484  2                        POP   8+20+64             Cleanup
 00084C 4DE0 87CA            00F9C  7489  2                        LCALL PROCCLS             Error!
 000850 47F0 8216            009E8  7491  2                        EXIT  VIRTPOST
 000854                             7494  1                      END
 000854 D203 B0BC 7008 000BC 00008  7498  1                      MVC   FEBASCBP,@R7+8      Save ASCB addr
 00085A D207 B0C0 7010 000C0 00010  7499  1                      MVC   FEBTAG,@R7+8+8      Save path name
 000860 4100 0004/4110_      00004  7500  1                      HASPSERV JOBNAME,@R7+28,ASCB=@R7+8
 00086E D207 B014 701C 00014 0001C  7521  1                      MVC   FEBNAME,@R7+28      Make jobname = front-end name
                                    7522  1
 000874 12FF/4780 80BA              7523  1                      IF    (R15,NZ),BEGIN
 00087A 0700/0ADE/0120_             7537  2                        QSNAP 'HASPSERV JOBNAME failed in VIRT:'
 000884 0ADE/020100/F0_             7542  2                        QSNAP (R15)
 00088C                             7547  1                      END
                                    7551  1
 00088C 1B00/4110 701C_             7552  1                      HASPSERV JOBACCT,@R7+28,ASCB=@R7+8
 000898 D204 B0C8 701C 000C8 0001C  7570  1                      MVC   FEBACCT,@R7+28      Save account
                                    7571  1
 00089E 12FF/4780 80E2              7572  1                      IF    (R15,NZ),BEGIN
 0008A4 0ADE/0120/4100_             7586  2                        QSNAP 'HASPSERV JOBACCT failed in VIRT:'
 0008AC 0ADE/020100/F0_             7591  2                        QSNAP (R15)
 0008B4                             7596  1                      END
                                    7600  1
 0008B4 4100 0001/4110_      00001  7601  1                      HASPSERV JOBINFO,@R7+28,ASCB=@R7+8  get job-number
 0008C2 D20B B01C 8662 0001C 00E34  7622  1                      MVC   FEBINFO,=CL12'Job ????'
 0008C8 12FF/4770 8102_             7623  1                      IF    (R15,Z),'MVC FEBINFO+4(4),@R7+28'  add jobno
 0008D4 41D0 D060/50D0_      00060  7643  1                      POP   8+20+64
                                    7648  1
 0008DC 58E0 866E/0DEE       00E40  7649  1                      VCALL LOCALTOD            Clock at start
 0008E2 9001 B078            00078  7653  1                      STM   R0,R1,FEBSCLCK
1VIRT     (VIRT2047) (12:37) (15MAR04) Virtual Terminal Interface                                                           Page   29
0Current Usings:  (*,R8) (FEB,R11) (CV,R12)
0Loc    Object Code    Addr1 Addr2  Stmt Lv Lineno    Source Statement           (Hibal 5, Asmedit 3.3)  HLASM R4.0  2004/03/15 12.37
+___    ______ ____    _____ _____  ____ __ ______    ______ _________
00008E6 D207 B110 B078 00110 00078  7654  1                      MVC   FEBNICLK,FEBSCLCK   Start new-info clock timer
 0008EC 41F0 0001/4AF0_      00001  7655  1                      INCR  R15,CVMCRVIR        Kick active vfe count
                                    7661  1
 0008F8 4100 0052            00052  7662  1                      LA    R0,L'VTRC           Length of trace entry
 0008FC 4110 0019            00019  7663  1                      LA    R1,VTRC#            No. of entries
 000900 41F0 B09C            0009C  7664  1                      LA    R15,FEBTRCP
 000904 58E0 8672/0DEE       00E44  7665  1                      VCALL GETTRC              Get trace table
                                    7669  1
 00090A 58E0 8676/0DEE       00E48  7670  1                      ACALL VIRTDEF             Get a spare virtual path
 000910 4770 8154            00926  7674  1                      IF    Z,BEGIN
 000914 58F0 C2A0            002A0  7685  2                        L     R15,CVFEBQT
 000918 5010 F008/5010_      00008  7686  2                        WITH  (FEB,R15),'ST R1,FEBLINK; ST R1,CVFEBQT'  Link up
 USING  FEB,R15
 DROP   FEB,R15
 000920 58E0 867A/0DEE       00E4C  7711  2                        ACALL VIRTFIN
 000926                             7715  1                      END
                                    7719  1
 000926 95E7 B0C7/4770_000C7        7720  1                      IF    (FEBTAG+7,EQ,'X'),'SET FEBFEXT'  Extended mode
                                    7748  1
 000932 D506 86C6 B0C0_00E98 000C0  7749  1                      IF    (FEBTAG,EQ,'RLGPATH'),'SET FEBFRLIN'  RLIN front-end
                                    7777  1
 000940 D506 86CD B0C0_00E9F 000C0  7778  1                      IF    (FEBTAG,EQ,'VFEPATH'),EXIT
 00094A D506 86D4 B0C0_00EA6 000C0  7798  1                      IF    (FEBTAG,EQ,'VAMPATH'),EXIT
 000954 D506 86DB B0C0_00EAD 000C0  7818  1                      IF    (FEBTAG,EQ,'WYLPATH'),EXIT
 00095E D506 86E2 B0C0_00EB4 000C0  7838  1                      IF    (FEBTAG,EQ,'REALPAT'),EXIT
 000968 D506 86C6 B0C0_00E98 000C0  7858  1                      IF    (FEBTAG,EQ,'RLGPATH'),EXIT
 000972 4DE0 87C8            00F9A  7878  1                      LCALL PROCCLSZ            Bad path name
 000976 47F0 8216            009E8  7880  1                      EXIT  VIRTPOST
 00097A                             7883                       END
                                    7887                     ¿þþþþþþþþþþþþþþþþþþþþþþþþþþþþþþþþþþþþþþþþþþþþþþþþþþþþþþþþþþþþþþþþþÜ
                                    7888                     Ÿ  The following code is a work-around for a timing problem with  Ÿ
                                    7889                     Ÿ  MP systems and the Suzan post flag byte.  This code will set   Ÿ
                                    7890                     Ÿ  the new-info bit every 5 seconds, if there has been no         Ÿ
                                    7891                     Ÿ  activity.                                                      Ÿ
                                    7892                     Ÿ                                                                 Ÿ
                                    7893                     Ÿ  Additional note (04/21/98) - This might no longer be           Ÿ
                                    7894                     Ÿ  necessary since Rich has extensively reworked Suzan. Check     Ÿ
                                    7895                     Ÿ  out the possibility of eliminating this code. - MPD            Ÿ
                                    7896                     ¾þþþþþþþþþþþþþþþþþþþþþþþþþþþþþþþþþþþþþþþþþþþþþþþþþþþþþþþþþþþþþþþþþ»
 00097A 9120 B10C/4710_0010C        7897                       IF    ~FEBSFLAG.FEBPFNI,BEGIN  New info...
 000982 D607 B110 B110_00110 00110  7913  1                      IF    (FEBNICLK,Z),EXIT   No new info timer, scram
                                    7932  1
 00098C 58E0 866E/0DEE       00E40  7933  1                      VCALL LOCALTOD            Current time/date
 000992 9001 D000            00000  7937  1                      STM   R0,R1,@R13
 000996 5F10 B114/47B0_      00114  7938  1                      SDL   R0,FEBNICLK         Time since last activity
 0009A4 5500 867E/47D0_      00E50  7943  1                      IF    (R0,LGT,5),BEGIN
 0009AC 58F0 B10C/4110_      0010C  7960  2                        SET   FEBSFLAG.FEBPFNI,MODE=LOCKED,REF=FEB
 0009C4 D207 B110 D000 00110 00000  7975  2                        MVC FEBNICLK,@R13
 0009CA                             7976  1                      END
 0009CA                             7980                       END
1VIRT     (VIRT2047) (12:37) (15MAR04) Virtual Terminal Interface                                                           Page   30
0Current Usings:  (*,R8) (FEB,R11) (CV,R12)
0Loc    Object Code    Addr1 Addr2  Stmt Lv Lineno    Source Statement           (Hibal 5, Asmedit 3.3)  HLASM R4.0  2004/03/15 12.37
+___    ______ ____    _____ _____  ____ __ ______    ______ _________
0                                   7984                       ¿þþþþþþþþþþþþþþþþþþþþþþþþþþþþÜ
                                    7985                       Ÿ  End of work-around code.  Ÿ
                                    7986                       ¾þþþþþþþþþþþþþþþþþþþþþþþþþþþþ»
 0009CA 9120 B10C/47E0_0010C        7987                       IF    FEBSFLAG.FEBPFNI,'LCALL PROCRQST'  Process new info
                                    8010
 0009D6 9180 B10C/47E0_0010C        8011                       IF    FEBSFLAG.FEBPFCLS,'LA R1,FEB; ACALL VIRTCLS'  Close
                                    8037
 0009E8 41D0 D030/982B_      00030  8038                       PEND
 DROP   FEB,R11
 DROP   *,R8
1VIRT     (VIRT2047) (12:37) (15MAR04) Virtual Terminal Interface                                                           Page   31
0Current Usings:  (CV,R12)
0Loc    Object Code    Addr1 Addr2  Stmt Lv Lineno    Source Statement           (Hibal 5, Asmedit 3.3)  HLASM R4.0  2004/03/15 12.37
+___    ______ ____    _____ _____  ____ __ ______    ______ _________
0                                   8064              ¿þþþþþþþþþþþþþþþþþþþþþþþþþþþþþþþþþþþþþþþþþþþþþþþþþþþþþþþþþþþþþþþþþþþþþÜ
                                    8065              Ÿ                                                                     Ÿ
                                    8066              Ÿ  PROCRQST -- Local routine to get request from vfe and process it.  Ÿ
                                    8067              Ÿ                                                                     Ÿ
                                                      ¾þþþþþþþþþþþþþþþþþþþþþþþþþþþþþþþþþþþþþþþþþþþþþþþþþþþþþþþþþþþþþþþþþþþþþ»
00009FC 50E0 D044/902B_      00044  8068              PROCRQST PROC
 USING  *,R8
 USING  FEB,R11                     8104                       WITH  FEB                 (Entry assumption)
                                    8116
 000A16 DF/41F0 0001/1_00EC7 01600  8117              PROCLOOP CLEAR FEBSFLAG.FEBPFNI,MODE=LOCKED,REF=FEB
 000A34 5870 C064            00064  8164                       L     R7,CVWKBUFP
 USING  RQST,R7                     8165                       WITH  (RQST,R7)
 000A38 41F0 7004            00004  8178                       LA    R15,4(,R7)
 000A3C 50F0 D000            00000  8179                       ST    R15,@R13
 000A40 9680 D000      00000        8180                       SET   @R13.X'80'
 000A44 D203 D004 8452 00004 00E58  8187                       MVC   @R13+4(4),=A(CVBUFLEN-4)
 000A4A 41F0 000C/5800_      0000C  8188                       SCOM  GET,(R13),FEBPMGC
 000A56 12FF/4780 8086              8207                       IF    (R15,NZ),BEGIN      Bad return code...
                                    8221  1         C            FAIL  ((R15,LE,PATHRPMW),OR,(R15,GT,PATHRNOP)),
 000A5C 59F0 8456/47C0_      00E5C        1                            'VIRT path read failed'
 000A84 4DE0 8596            00F9C  8263  1                      LCALL PROCCLS
 000A88 47F0 83B6            00DBC  8265  1                      EXIT  PROCRQST
 000A8C                             8268                       END
 000A8C 1211                        8272                       LTR   R1,R1
 000A8E 4780 83B6            00DBC  8273                       IF    Z,EXIT              Nothing
 000A92 4110 1004            00004  8287                       LA    R1,4(,R1)
 000A96 4010 7000            00000  8288                       STH   R1,RQSTLEN
 000A9A D701 7002 7002 00002 00002  8289                       CLEAR (RQST+2,2)          Reset rdw flags
                                    8296
 000AA0 58F0 B10C/4110_      0010C  8297                       SET   FEBSFLAG.FEBPFNI,MODE=LOCKED,REF=FEB
                                    8312
 000AB8 41F0 0001/5EF0_      00001  8313                       INCR  R15,FEBNIO          Total i/o count
1VIRT     (VIRT2047) (12:37) (15MAR04) Virtual Terminal Interface                                                           Page   32
0Current Usings:  (RQST,R7) (*,R8) (FEB,R11) (CV,R12)
0Loc    Object Code    Addr1 Addr2  Stmt Lv Lineno    Source Statement           (Hibal 5, Asmedit 3.3)  HLASM R4.0  2004/03/15 12.37
+___    ______ ____    _____ _____  ____ __ ______    ______ _________
0000AC4 9180 B0B8/4710_000B8        8320                       IF    ~FEBFINIT,BEGIN     Expecting "init"...
 000ACC 9521 7008/4780_00008        8335  1                      IF    (RQSTCMD,NE,TMILINIT),'LCALL PROCCLSZ; EXIT PROCRQST'
                                    8363  1                   ¿þþþþþþþþþþþþþþþþþþþþþþþþþþþþþþþþþþþþþþþþþþþþþþþþþþþþþþþþþþþþþþþþþþÜ
                                    8364  1                   Ÿ  The following check for VAMPATH is to make sure that ORVYL/VAM  Ÿ
                                    8365  1                   Ÿ       does not get lines longer than 168 characters (for         Ÿ
                                    8366  1                   Ÿ       compatability with previous versions of MILTEN).           Ÿ
                                    8367  1                   ¾þþþþþþþþþþþþþþþþþþþþþþþþþþþþþþþþþþþþþþþþþþþþþþþþþþþþþþþþþþþþþþþþþþ»
 000ADC D502 84B5 B0C0_00EBB 000C0  8368  1                      IF    (FEBTAG,EQ,'VAM'),BEGIN
 000AE6 D701 7010 7010 00010 00010  8385  2                        CLEAR RQSTINCT
 000AEC D201 700E 8482 0000E 00E88  8392  2                        MVC   RQSTOUCT,=H'168'    Maximum output length
 000AF2                             8393  1                      END
                                    8397  1           *
                                    8398  1           *
 000AF2 D201 B0CE 7010 000CE 00010  8399  1                      MVC   FEBINMX,RQSTINCT    Maximum input len (if any)
 000AF8 D201 B0D0 700E 000D0 0000E  8400  1                      MVC   FEBOUMX,RQSTOUCT    Maximum output len (if any)
 000AFE 1F00/4300 7009              8401  1                      LC    R0,RQSTCMFL         No. of ports (-1) wanted
 000B04 4A00 8484            00E8A  8406  1                      AH    R0,=H'1'
 000B08 4000 B076            00076  8407  1                      STH   R0,FEBPMAX
 000B0C 8900 0002            00002  8408  1                      SLL   R0,2                Times 4 for pat size
 000B10 4110 0026            00026  8409  1                      LA    R1,VPATSUBP
 000B14 5020 D044/4BD0_      00044  8410  1                      PUSH  R2
 000B24 182E                        8417  1                      LR    R2,RAR
 000B26 58E0 845E/0DEE       00E64  8418  1                      VCALL NGETCORE
 000B2C 41D0 D008/5820_      00008  8422  1                      POP   R2
 000B38 5010 B098            00098  8428  1                      ST    R1,FEBPATP
 000B3C 1701/1710/1701              8429  1                      FLIP  (R0,R1)
 000B42 1BFF                        8437  1                      CLEAR R15
 000B44 0E0E                        8441  1                      MVCL  R0,R14              Zero pat
 000B46 9680 B0B8      000B8        8442  1                      SET   FEBFINIT            Connection established
                                    8448  1
 000B4A 5860 B098            00098  8449  1                      L     R6,FEBPATP
 000B4E 1B55                        8450  1                      CLEAR R5
 000B50 4950 B076/47B0_      00076  8454  1                      WHILE (R5,LT,FEBPMAX),BEGIN
 000B58 4100 00A0            000A0  8473  2                        LA    R0,L'PIB
 000B5C 58E0 8462/0DEE       00E68  8474  2                        VCALL GETPIB
 000B62 18A1                        8478  2                        LR    PIBR,R1
 USING  PIB,R10                     8479  2                        WITH  PIB
 000B64 41F0 0001/4AF0_      00001  8491  2                        INCR  R15,FEBPNO          Kick active port count
 000B70 4050 A004            00004  8497  2                        STH   R5,PIBNO
 000B74 9680 A066      00066        8498  2                        SET   PIBFPS
 000B78 D503 8466 B0C0_00E6C 000C0  8504  2                        IF    (FEBTAG,NE,'REAL'),'MVC PIBDFACT,FEBACCT'  default
 000B88 D207 A034 C141 00034 00141  8527  2                        MVC   PIBNAME,CVBLANKS
 000B8E 18F5/1B00/4110_             8528  2                        BTD   PIBNAME,0,(R5)      Port number
 000B9C D213 A050 C141 00050 00141  8548  2                        MVC   PIBLOC,CVBLANKS
 000BA2 D20B A050 B01C 00050 0001C  8549  2                        MVC   PIBLOC(12),FEBINFO Use jobname as "port location"
 000BA8 9640 A066      00066        8550  2                        SET   PIBFPTID            terminal id can't be changed
                                    8556  2
 000BAC 4100 0022            00022  8557  2                        LA    R0,L'VTRCP          Length of a trace entry
 000BB0 4110 0005            00005  8558  2                        LA    R1,VTRCP#           Number of trace entries
 000BB4 41F0 A090            00090  8559  2                        LA    R15,PIBTRCP
 000BB8 58E0 843E/0DEE       00E44  8560  2                        VCALL GETTRC              Get trace table
                                    8564  2
 000BBE 18F5                        8565  2                        LR    R15,R5
 000BC0 89F0 0002            00002  8566  2                        SLL   R15,2               Times 4 for pat offset
1VIRT     (VIRT2047) (12:37) (15MAR04) Virtual Terminal Interface                                                           Page   33
0Current Usings:  (RQST,R7) (*,R8) (PIB,R10) (FEB,R11) (CV,R12)
0Loc    Object Code    Addr1 Addr2  Stmt Lv Lineno    Source Statement           (Hibal 5, Asmedit 3.3)  HLASM R4.0  2004/03/15 12.37
+___    ______ ____    _____ _____  ____ __ ______    ______ _________
0000BC4 50AF 6000            00000  8567  2                        ST    PIBR,@R6(R15)       Save pib ptr in pat
 000BC8 50B0 A008            00008  8568  2                        ST    FEBR,PIBFEBP        Save feb ptr in pib
 000BCC 4110 A000            00000  8569  2                        LA    R1,PIB
 000BD0 4100 01B2            001B2  8570  2                        LA    R0,L'SCB
 000BD4 58E0 846E/0DEE       00E74  8571  2                        VCALL GETSCB              Get a session
 000BDA 1891                        8575  2                        LR    SCBR,R1
 USING  SCB,R9                      8576  2                        WITH  SCB
                                    8588  2
 000BDC D203 9130 B0BC 00130 000BC  8589  2                        MVC   SCBASCBP,FEBASCBP   Save jobs ASCB addr in SCB
 000BE2 D201 916A B0CE 0016A 000CE  8590  2                        MVC   SCBINMX,FEBINMX     Maximum input len
 000BE8 D201 916C B0D0 0016C 000D0  8591  2                        MVC   SCBOUMX,FEBOUMX     Maximum output len
                                    8592  2
                                    8593  2         C              IF    ((FEBTAG,EQ,'VAM'),OR,(FEBTAG,EQ,'VFE'),OR,
 000BEE D502 84B5 B0C0_00EBB 000C0        2                              (FEBTAG,EQ,'WYL')),BEGIN
 000C0C 96E0 912B      0012B        8640  3                          SET   SCBSFNAT+SCBSFNAR+SCBSFPS  No auto stuff, pses
 000C10 9680 915F      0015F        8653  3                          SET   SCBFTRC             Make session tracing the default
 000C14 D207 918E 840A 0018E 00E10  8659  3                          MVC   SCBTTYPE,=CL8'VIRTUAL'
 000C1A D207 914A 8412 0014A 00E18  8660  3                          MVC   SCBTID,=CL8'VIR'    Terminal id
 000C20 D201 90FD 8488 000FD 00E8E  8661  3                          MVC   SCBTINFO,=X'8188'   Ttype info (for compatibility)
 000C26                             8662  2                        END
                                    8666  2
 000C26 D502 84BE B0C0_00EC4 000C0  8667  2                        IF    (FEBTAG,EQ,'RLG'),BEGIN  RLG monitor...
 000C30 96E0 912B      0012B        8684  3                          SET   SCBSFNAT+SCBSFNAR+SCBSFPS  No auto stuff, pses
 000C34 9680 915F      0015F        8697  3                          SET   SCBFTRC             Make session tracing the default
 000C38 D207 918E 840A 0018E 00E10  8703  3                          MVC   SCBTTYPE,=CL8'VIRTUAL'
 000C3E D207 914A 8412 0014A 00E18  8704  3                          MVC   SCBTID,=CL8'VIR'    Terminal id
 000C44 D201 90FD 848A 000FD 00E90  8705  3                          MVC   SCBTINFO,=X'81C0'   "RLG" ttype info
 000C4A                             8706  2                        END
                                    8710  2
 000C4A D503 8466 B0C0_00E6C 000C0  8711  2                        IF    (FEBTAG,EQ,'REAL'),BEGIN  Pseudo-real...
 000C54 94BF A066      00066        8728  3                          CLEAR PIBFPTID            Allow terminal id to be changed
 000C58 9202 90FC      000FC        8735  3                          SET   SCBTASYN            Assume async
 000C5C                             8741  2                        END
                                    8745  2
 000C5C 58F0 C060            00060  8746  2                        L     R15,CVPDBP
 USING  PDB,R15                     8747  2                        WITH  (PDB,R15)
 000C60 D737 F000 F000 00000 00000  8760  2                        CLEAR PDBHDR
 000C66 D201 F000 848C 00000 00E92  8767  2                        MVC   PDBLENG,=AL2(L'PDBHDR)
 000C6C 4110 9000            00000  8768  2                        LA    R1,SCB
 000C70 58E0 8472/0DEE       00E78  8769  2                        VCALL SUBSTART
 000C76 4150 5001            00001  8773  2                        LA    R5,@R5+1
 000C7A 47F0 814A            00B50  8774  1                      END
 DROP   PDB,R15
 DROP   SCB,R9
 DROP   PIB,R10
 000C7E 47F0 8010            00A16  8794  1                      B     PROCLOOP
 000C82                             8795                       END
1VIRT     (VIRT2047) (12:37) (15MAR04) Virtual Terminal Interface                                                           Page   34
0Current Usings:  (RQST,R7) (*,R8) (FEB,R11) (CV,R12)
0Loc    Object Code    Addr1 Addr2  Stmt Lv Lineno    Source Statement           (Hibal 5, Asmedit 3.3)  HLASM R4.0  2004/03/15 12.37
+___    ______ ____    _____ _____  ____ __ ______    ______ _________
0000C82 48F0 7006            00006  8800                       LH    R15,RQSTPNO         Port number
 000C86 BDF3 B076/4750_      00076  8801                       IF    (R15,LGE,FEBPMAX),'LCALL PROCCLSZ; EXIT PROCRQST'
 000C96 89F0 0002            00002  8828                       SLL   R15,2               Pat offset
 000C9A 5810 B098            00098  8829                       L     R1,FEBPATP
 000C9E 58AF 1000/12AA       00000  8830                       LT    PIBR,@R1(R15)       PIB ptr
 000CA4 4770 82AA/4DE0_      00CB0  8834                       IF    Z,'LCALL PROCCLSZ; EXIT PROCRQST'
 USING  PIB,R10                     8855                       WITH  PIB
 000CB0 5890 A00C            0000C  8867                       L     SCBR,PIBSCBP
 USING  SCB,R9                      8868                       WITH  SCB
                                    8880
 000CB4 4110 B09C/4DE0_      0009C  8881                       XTRACE FEBTRCP,RQSTFROM
 USING  VTRC,R15                    8892                       WITH  (VTRC,R15),BEGIN
 000CC2 D201 F010 A004 00010 00004  8906  1                      MVC   VTRCPNO,PIBNO
 000CC8 D23F F012 7000 00012 00000  8907  1                      MVC   VTRCRQST,RQST
 DROP   VTRC,R15                    8908                       END
                                    8916
 000CCE 4110 A090/4DE0_      00090  8917                       XTRACE PIBTRCP
 USING  VTRCP,R15                   8927                       WITH  (VTRCP,R15),BEGIN
 000CD6 92C6 F008      00008        8941  1                      MVI   VTRCPTYP,C'F'       From virtual front-end
 000CDA D217 F00A 7000 0000A 00000  8942  1                      MVC   VTRCPRQS,RQST
 DROP   VTRCP,R15                   8943                       END
                                    8951
 000CE0 D501 848E 7000_00E94 00000  8952                       IF    (RQSTLEN,LT,L'RQSTHDR),'LCALL PROCCLSZ; EXIT PROCRQST'
 000CF2 9550 7008/4780_00008        8979                       IF    (RQSTCMD,NE,FMILASYN),BEGIN  sync i/o completion...
 000CFA 9160 90B0/4770_000B0        8997  1                      IF    (SCBTFIO+SCBTFAIO,Z),'LCALL PROCCLSZ; EXIT PROCRQST'
                                    9027  1           *batwyl  if    (rqstcmd,ne,scbcmd),'lcall procclsz; exit procrqst'
 000D0A D200 7008 90B3 00008 000B3  9028  1                      MVC   RQSTCMD,SCBCMD      *batwyl
 000D10                             9029                       END
                                    9033
 000D10 5860 C060            00060  9034                       L     R6,CVPDBP
 USING  PDB,R6                      9035                       WITH  (PDB,R6)
 000D14 D737 6000 6000 00000 00000  9048                       CLEAR PDBHDR
 000D1A D201 6004 90F8 00004 000F8  9055                       MVC   PDBLIN#,SCBNO       Session number
 000D20 D200 6006 7008 00006 00008  9056                       MVC   PDBCMD,RQSTCMD      Command code
 000D26 D201 600C 700C 0000C 0000C  9057                       MVC   PDBCPL,RQSTCPL      Completion flags
 000D2C 4820 700E            0000E  9058                       LH    R2,RQSTOUCT
 000D30 5520 8476/47D0_      00E7C  9059                       IF    (R2,LGT,4096),'LCALL PROCCLSZ; EXIT PROCRQST'
 000D40 48F0 7000            00000  9086                       LH    R15,RQSTLEN
 000D44 4BF0 8490            00E96  9087                       SH    R15,=Y(L'RQSTHDR)
 000D48 192F/47D0 834A_             9088                       CEIL  R2,R15              Chop to len actually sent
 000D50 41E0 6038/18F2_      00038  9094                       MOVEL PDBTEXT,RQSTTEXT,(R2)
 000D5E 41F0 2038            00038  9116                       LA    R15,L'PDBHDR+@R2
 000D62 40F0 6000            00000  9117                       STH   R15,PDBLENG
                                    9118
 000D66 4110 B09C/4DE0_      0009C  9119                       XTRACE FEBTRCP,VIRTPOST
 USING  VTRC,R15                    9130                       WITH  (VTRC,R15),BEGIN
 000D74 D201 F010 A004 00010 00004  9144  1                      MVC   VTRCPNO,PIBNO
 000D7A D203 F014 90F4 00014 000F4  9145  1                      MVC   VTRCSID,SCBID
 000D80 D204 F018 9124 00018 00124  9146  1                      MVC   VTRCSACC,SCBACCT
 000D86 D200 F01D 6006 0001D 00006  9147  1                      MVC   VTRCCMD,PDBCMD
 000D8C D201 F01E 600C 0001E 0000C  9148  1                      MVC   VTRCCPL,PDBCPL
 000D92 D201 F020 6000 00020 00000  9149  1                      MVC   VTRCTLEN,PDBLENG
 000D98 D213 F022 6038 00022 00038  9150  1                      MVC   VTRCTEXT,PDBTEXT
 DROP   VTRC,R15                    9151                       END
1VIRT     (VIRT2047) (12:37) (15MAR04) Virtual Terminal Interface                                                           Page   35
0Current Usings:  (PDB,R6) (RQST,R7) (*,R8) (SCB,R9) (PIB,R10) (FEB,R11) (CV,R12)
0Loc    Object Code    Addr1 Addr2  Stmt Lv Lineno    Source Statement           (Hibal 5, Asmedit 3.3)  HLASM R4.0  2004/03/15 12.37
+___    ______ ____    _____ _____  ____ __ ______    ______ _________
0                                   9159
 000D9E 9640 90B5/947F_000B5        9160                       SET   SCBMODB.MODBUPLO,(SCBMODB.MODBUPPR,OFF)  no upper xl
 000DA6 4110 9000            00000  9173                       LA    R1,SCB
 000DAA 41F0 6000            00000  9174                       LA    R15,PDB
 000DAE 58E0 847A/0DEE       00E80  9175                       VCALL SUBSEND
 000DB4 4770 83B6            00DBC  9179                       IF    NZ,EXIT
 000DB8 47F0 8010            00A16  9193                       B     PROCLOOP
 000DBC 41D0 D030/982B_      00030  9194                       PEND
 DROP   PDB,R6
 DROP   SCB,R9
 DROP   PIB,R10
 DROP   RQST,R7
 DROP   FEB,R11
 DROP   *,R8
                                    9239
                                    9240                       QLTORG
1VIRT     (VIRT2047) (12:37) (15MAR04) Virtual Terminal Interface                                                           Page   36
0Current Usings:  (CV,R12)
0Loc    Object Code    Addr1 Addr2  Stmt Lv Lineno    Source Statement           (Hibal 5, Asmedit 3.3)  HLASM R4.0  2004/03/15 12.37
+___    ______ ____    _____ _____  ____ __ ______    ______ _________
0                                   9297              ¿þþþþþþþþþþþþþþþþþþþþþþþþþþþþþþþþþþþþþþþþþþþþþþþþþþþþþþþþþþþþþþþþþþþþþÜ
                                    9298              Ÿ                                                                     Ÿ
                                    9299              Ÿ  PATHSEND -- Routine to send request accoss a SUZAN path.           Ÿ
                                    9300              Ÿ                                                                     Ÿ
                                    9301              Ÿ    On entry:                                                        Ÿ
                                    9302              Ÿ      R1 - PATH ptr                                                  Ÿ
                                    9303              Ÿ      R15- request (starting with RDW)                               Ÿ
                                    9304              Ÿ                                                                     Ÿ
                                    9305              Ÿ    On exit, R15 (and CC):                                           Ÿ
                                    9306              Ÿ       -4 - died                                                     Ÿ
                                    9307              Ÿ        0 - sent                                                     Ÿ
                                    9308              Ÿ                                                                     Ÿ
                                                      ¾þþþþþþþþþþþþþþþþþþþþþþþþþþþþþþþþþþþþþþþþþþþþþþþþþþþþþþþþþþþþþþþþþþþþþ»
0000ED2 50E0 D044/902B_      00044  9309              PATHSEND PROC
 USING  *,R8
 000EEC 1861                        9345                       LR    R6,R1
 000EEE 182F                        9346                       LR    R2,R15              Save PDB pointer
 000EF0 D701 2002 2002 00002 00002  9347                       CLEAR (@R2+2,2)           Clear rdw flags
 USING  PATHD,R6                    9354                       WITH  (PATHD,R6)
 000EF6 5850 6020            00020  9367                       L     R5,PATHECBF
 000EFA 5020 D000            00000  9368              PATHLOOP ST    R2,@R13
 000EFE D703 D004 D004 00004 00004  9369                       CLEAR (@R13+4,4)
 000F04 9680 D000      00000        9376                       SET   @R13.X'80'
 000F08 94BF 5000      00000        9383                       CLEAR @R5.PATHFFQE
 000F0C 5800 6000/1200       00000  9391                       LT    R0,PATHMGC
 000F12 4780 80A6            00F82  9395                       BZ    PATHDOWN            Path is closing
 000F16 41F0 0008/5800_      00008  9396                       SCOM  SEND,(R13),PATHMGC
 000F22 12FF/4780 80AA              9415                       IF    (R15,Z),EXIT
 000F28 59F0 8144/4770_      01020  9432                       IF    (R15,EQ,PATHRBAF),BEGIN  overflow...
 000F30 9180 5000/4710_00000        9449  1                      IF    @R5.PATHFCLS,PATHDOWN  closing, scram
                                    9468  1                ¿þþþþþþþþþþþþþþþþþþþþþþþþþþþþþþþþþþþþþþþþþþþþþþþþþþþþþþþþþþþþþþþþþþþþþÜ
                                    9469  1                Ÿ  If full queues happened more often, the following code would have  Ÿ
                                    9470  1                Ÿ           to be smarter.                                            Ÿ
                                    9471  1                ¾þþþþþþþþþþþþþþþþþþþþþþþþþþþþþþþþþþþþþþþþþþþþþþþþþþþþþþþþþþþþþþþþþþþþþ»
 000F38 0ADE/1116/4100_             9472  1                      QSNAP 'Virtual terminal fullQ',MODE=WTO
 000F40 9680 5000      00000        9477  1                      SET   @R5.PATHFCLS        Closing, closing, closing
 000F44 47F0 80A6            00F82  9484  1                      B     PATHDOWN            Scram
 000F48                             9485                       END
 000F48 59F0 8148/4780_      01024  9489                       IF    (R15,EQ,PATHRNOP),PATHDOWN
 000F50 FEDC2E/E5C9D9E34_           9509                       FAIL  'VIRT - Unxepected SCOM return code in PATHSEND'
                                    9514
 000F81 00
 000F82 48F0 8184            01060  9515              PATHDOWN LH    R15,=H'-4'
 000F86 41D0 D030/982B_      00030  9516                       PEND
 DROP   PATHD,R6
 DROP   *,R8
1VIRT     (VIRT2047) (12:37) (15MAR04) Virtual Terminal Interface                                                           Page   37
0Current Usings:  (CV,R12)
0Loc    Object Code    Addr1 Addr2  Stmt Lv Lineno    Source Statement           (Hibal 5, Asmedit 3.3)  HLASM R4.0  2004/03/15 12.37
+___    ______ ____    _____ _____  ____ __ ______    ______ _________
0                                   9542              ¿þþþþþþþþþþþþþþþþþþþþþþþþþþþþþþþþþþþþþþþþþþþþþþþþþþþþþþþþþþþþþþþþþþþþþÜ
                                    9543              Ÿ                                                                     Ÿ
                                    9544              Ÿ  PROCCLS/PROCCLSZ -- Local routine to close vfe path.               Ÿ
                                    9545              Ÿ                                                                     Ÿ
                                                      ¾þþþþþþþþþþþþþþþþþþþþþþþþþþþþþþþþþþþþþþþþþþþþþþþþþþþþþþþþþþþþþþþþþþþþþ»
0000F9A 1BFF                        9546              PROCCLSZ CLEAR R15
 000F9C 50E0 D044/902B_      00044  9551              PROCCLS  PROC
 USING  *,R8
 USING  RQST,R7                     9587                       WITH  (RQST,R7),FEB       (Entry assumptions)
 USING  FEB,R11
 000FB6 0700/0ADE/111C_             9609                       QSNAP 'Virtual terminal path error:',MODE=WTO
 000FC0 12FF/4780 802A_             9614                       IF    (R15,NZ),'QSNAP (R15)'
 000FD0 0ADE/181000007_             9638                       QSNAP RQSTHDR
 000FD8 0ADE/18100000B_             9642                       QSNAP FEBPATH
 000FE0 5BE0 809E            01044  9646                       S     RAR,=A(MILVIRT)
 000FE4 41E0 E000            00000  9647                       LA    RAR,@RAR
 000FE8 0ADE/120100/E0_             9648                       QSNAP (RAR)               Module offset
 000FF0 58F0 B10C/4110_      0010C  9653                       SET   FEBSFLAG.FEBPFCLS,MODE=LOCKED,REF=FEB
 001008 41D0 D030/982B_      00030  9668                       PEND
 DROP   FEB,R11
 DROP   RQST,R7
 DROP   *,R8
                                    9698                       QLTORG
1VIRT     (VIRT2047) (12:37) (15MAR04) Virtual Terminal Interface                                                           Page   38
0Current Usings:  (CV,R12)
0Loc    Object Code    Addr1 Addr2  Stmt Lv Lineno    Source Statement           (Hibal 5, Asmedit 3.3)  HLASM R4.0  2004/03/15 12.37
+___    ______ ____    _____ _____  ____ __ ______    ______ _________
0                                   9718              ¿þþþþþþþþþþþþþþþþþþþþþþþþþþþþþþþþþþþþþþþþþþþþþþþþþþþþþþþþþþþþþþþþþþþþþÜ
                                    9719              Ÿ                                                                     Ÿ
                                    9720              Ÿ  VIRTERR -- Routine to do error recovery.                           Ÿ
                                    9721              Ÿ                                                                     Ÿ
                                    9722              Ÿ    On entry:                                                        Ÿ
                                    9723              Ÿ      R1 - FEB ptr                                                   Ÿ
                                    9724              Ÿ                                                                     Ÿ
                                    9725              Ÿ    On exit, R15 (and CC):                                           Ÿ
                                    9726              Ÿ      0 - attempt retry                                              Ÿ
                                    9727              Ÿ      4 - no retry, shutdown MILTEN                                  Ÿ
                                    9728              Ÿ                                                                     Ÿ
                                                      ¾þþþþþþþþþþþþþþþþþþþþþþþþþþþþþþþþþþþþþþþþþþþþþþþþþþþþþþþþþþþþþþþþþþþþþ»
0001062 50E0 D044/902B_      00044  9729              VIRTERR  XPROC
 USING  *,R8
 00107C 18B1                        9767                       LR    FEBR,R1
 USING  FEB,R11                     9768                       WITH  FEB
                                    9780
 00107E D727 C750 C750 00750 00750  9781                       CLEAR CVCUR
                                    9788
 001084 4110 B000            00000  9789                       LA    R1,FEB
 001088 58E0 84CC/0DEE       01538  9790                       ACALL VIRTCLS             Release front-end
 00108E 1BFF                        9794                       CLEAR R15                 Retry rc
 001090 41D0 D030/982B_      00030  9798                       PEND
 DROP   FEB,R11
 DROP   *,R8
1VIRT     (VIRT2047) (12:37) (15MAR04) Virtual Terminal Interface                                                           Page   39
0Current Usings:  (CV,R12)
0Loc    Object Code    Addr1 Addr2  Stmt Lv Lineno    Source Statement           (Hibal 5, Asmedit 3.3)  HLASM R4.0  2004/03/15 12.37
+___    ______ ____    _____ _____  ____ __ ______    ______ _________
0                                   9824              ¿þþþþþþþþþþþþþþþþþþþþþþþþþþþþþþþþþþþþþþþþþþþþþþþþþþþþþþþþþþþþþþþþþþþþþÜ
                                    9825              Ÿ                                                                     Ÿ
                                    9826              Ÿ  VIRTDIE -- Routine to do final cleanup.  It is entered when        Ÿ
                                    9827              Ÿ    MILTEN is terminating.                                           Ÿ
                                    9828              Ÿ                                                                     Ÿ
                                    9829              Ÿ    On entry:                                                        Ÿ
                                    9830              Ÿ      R0 - 0: normal, 4: error                                       Ÿ
                                    9831              Ÿ      R1 - FEB ptr                                                   Ÿ
                                    9832              Ÿ                                                                     Ÿ
                                                      ¾þþþþþþþþþþþþþþþþþþþþþþþþþþþþþþþþþþþþþþþþþþþþþþþþþþþþþþþþþþþþþþþþþþþþþ»
00010A4 50E0 D044/902B_      00044  9833              VIRTDIE  XPROC
 USING  *,R8
                                    9871                       ¿þþþþþþþþþþþþþþþþþþþþþþþþþþþþþþþþþÜ
                                    9872                       Ÿ  Nothing to do, simply return.  Ÿ
                                    9873                       ¾þþþþþþþþþþþþþþþþþþþþþþþþþþþþþþþþþ»
 0010BE 41D0 D030/982B_      00030  9874                       PEND
 DROP   *,R8
1VIRT     (VIRT2047) (12:37) (15MAR04) Virtual Terminal Interface                                                           Page   40
0Current Usings:  (CV,R12)
0Loc    Object Code    Addr1 Addr2  Stmt Lv Lineno    Source Statement           (Hibal 5, Asmedit 3.3)  HLASM R4.0  2004/03/15 12.37
+___    ______ ____    _____ _____  ____ __ ______    ______ _________
0                                   9895              ¿þþþþþþþþþþþþþþþþþþþþþþþþþþþþþþþþþþþþþþþþþþþþþþþþþþþþþþþþþþþþþþþþþþþþþÜ
                                    9896              Ÿ                                                                     Ÿ
                                    9897              Ÿ  VIRTCMD -- Routine to process virtual commands; the scanner        Ÿ
                                    9898              Ÿ    is all set up to scan the command.                               Ÿ
                                    9899              Ÿ                                                                     Ÿ
                                    9900              Ÿ    On entry:                                                        Ÿ
                                    9901              Ÿ      R1 - FEB ptr                                                   Ÿ
                                    9902              Ÿ      R15- SEGCB ptr                                                 Ÿ
                                    9903              Ÿ                                                                     Ÿ
                                                      ¾þþþþþþþþþþþþþþþþþþþþþþþþþþþþþþþþþþþþþþþþþþþþþþþþþþþþþþþþþþþþþþþþþþþþþ»
00010D2 50E0 D044/902B_      00044  9904              VIRTCMD  XPROC
 USING  *,R8
 0010EC 18B1                        9942                       LR    FEBR,R1
 USING  FEB,R11                     9943                       WITH  FEB
 0010EE 187F                        9955                       LR    R7,R15              Segcb ptr
 USING  SEGCB,R7                    9956                       WITH  (SEGCB,R7)
                                    9969                       SEGDEF (R7)
                                    9970
 0010F0 181B/4100 0008_             9971                       SEGHX (FEBR),8
 0010FE 4110 84C8/4100_      015A4  9993                       SEGB  '  virtual'
 00110E 4110 B014/4100_      00014 10009                       SEGTB FEBNAME
 00111E 4810 B076/1B00_      00076 10035                       SEGDC LH:FEBPMAX
 00112C 4110 84D1/4100_      015AD 10053                       SEGB  ' ports '
 00113C 9140 B00C/4710_0000C       10069                       IF    ~FEBFOPEN,'SEGB "** Not-open **"'
 001154 D502 84D8 B000_015B4 00000 10105                       IF    (FEB,NE,'FEB'),'SEGB "** Invalid **"'
 00116E 1B00/18F7/58E0_            10143                       SEGWR
                                   10165
 001178 41D0 D030/982B_      00030 10166                       PEND
 DROP   SEGCB,R7
 DROP   FEB,R11
 DROP   *,R8
1VIRT     (VIRT2047) (12:37) (15MAR04) Virtual Terminal Interface                                                           Page   41
0Current Usings:  (CV,R12)
0Loc    Object Code    Addr1 Addr2  Stmt Lv Lineno    Source Statement           (Hibal 5, Asmedit 3.3)  HLASM R4.0  2004/03/15 12.37
+___    ______ ____    _____ _____  ____ __ ______    ______ _________
0                                  10197              ¿þþþþþþþþþþþþþþþþþþþþþþþþþþþþþþþþþþþþþþþþþþþþþþþþþþþþþþþþþþþþþþþþþþþþþÜ
                                   10198              Ÿ                                                                     Ÿ
                                   10199              Ÿ  VIRTFMT -- Routine to do control block formatting.                 Ÿ
                                   10200              Ÿ                                                                     Ÿ
                                   10201              Ÿ    On entry:                                                        Ÿ
                                   10202              Ÿ      R1 - FEB ptr                                                   Ÿ
                                   10203              Ÿ      R15- SEGCB ptr                                                 Ÿ
                                   10204              Ÿ                                                                     Ÿ
                                                      ¾þþþþþþþþþþþþþþþþþþþþþþþþþþþþþþþþþþþþþþþþþþþþþþþþþþþþþþþþþþþþþþþþþþþþþ»
000118C 50E0 D044/902B_      00044 10205              VIRTFMT  XPROC
 USING  *,R8
 0011A6 18B1                       10243                       LR    FEBR,R1
 USING  FEB,R11                    10244                       WITH  FEB
 0011A8 187F                       10256                       LR    R7,R15              Segcb ptr
 USING  SEGCB,R7                   10257                       WITH  (SEGCB,R7)
                                   10270                       SEGDEF (R7)
                                   10271
 0011AA 181B/4100 0008_            10272                       SEGHX (FEBR),8
 0011B8 4110 842E/4100_      015C4 10294                       SEGB  '  VIRTUAL'
 0011C8 4110 B014/4100_      00014 10310                       SEGTB FEBNAME
 0011D8 4810 B076/1B00_      00076 10336                       SEGDC LH:FEBPMAX
 0011E6 4110 8437/4100_      015CD 10354                       SEGB  ' PORTS '
 0011F6 9140 B00C/4710_0000C       10370                       IF    ~FEBFOPEN,'SEGB "** NOT-OPEN **"'
 00120E D502 841E B000_015B4 00000 10406                       IF    (FEB,NE,'FEB'),'SEGB "** INVALID **"'
 001228 1B00/18F7/58E0_            10444                       SEGWR
 001232 D603 B098 B098_00098 00098 10466                       IF    (FEBPATP,Z),EXIT
                                   10485
 00123C 5850 B098            00098 10486                       L     R5,FEBPATP          Start
 001240 4860 B076            00076 10487                       LH    R6,FEBPMAX
 001244 8960 0002            00002 10488                       SLL   R6,2
 001248 1A65                       10489                       AR    R6,R5               End
 00124A 1956/47B0 8190             10490                       WHILE (R5,LT,R6),BEGIN
 001250 58A0 5000/12AA_      00000 10507  1                      IF    ('LT PIBR,@R5',NZ),BEGIN
 USING  PIB,R10                    10523  2                        WITH  PIB
 00125A 4100 0003/18F7_      00003 10535  2                        SEGCOL 3
 001266 181A/4100 0006_            10553  2                        SEGHX (PIBR),6
 001274 4110 83F8/4100_      0158E 10575  2                        SEG   ' PORT#'
 001284 18F5                       10590  2                        LR    R15,R5
 001286 5BF0 B098            00098 10591  2                        S     R15,FEBPATP
 00128A 88F0 0002            00002 10592  2                        SRL   R15,2
 00128E 181F/1B00/18F7_            10593  2                        SEGDC (R15)
 00129A 1B00/18F7/58E0_            10612  2                        SEGB
 0012A4 5890 A00C/1299_      0000C 10634  2                        IF    ('LT SCBR,PIBSCBP',NZ),BEGIN
 USING  SCB,R9                     10650  3                          WITH  SCB
 0012AE 4110 839A/4100_      01530 10662  3                          SEGB  'SESSION:'
 0012BE 4110 9127/4100_      00127 10678  3                          SEG   SCBGRP
 0012CE 4110 844B/4100_      015E1 10703  3                          SEG   '.'
 0012DE 4110 9124/4100_      00124 10718  3                          SEG   SCBUSER
 0012EE 1F22/BF23 9129_            10743  3                          IF    ('L2 R2,SCBANO',NZ),'SEG "#"; SEGDC (R2)'
 DROP   SCB,R9                     10802  2                        END
 001314 1B00/18F7/58E0_            10811  2                        SEGWR
 DROP   PIB,R10                    10833  1                      END
 00131E 4150 5004            00004 10842  1                      LA    R5,@R5+4
1VIRT     (VIRT2047) (12:37) (15MAR04) Virtual Terminal Interface                                                           Page   42
0Current Usings:  (SEGCB,R7) (*,R8) (FEB,R11) (CV,R12)
0Loc    Object Code    Addr1 Addr2  Stmt Lv Lineno    Source Statement           (Hibal 5, Asmedit 3.3)  HLASM R4.0  2004/03/15 12.37
+___    ______ ____    _____ _____  ____ __ ______    ______ _________
0001322 47F0 80B4            0124A 10843                       END
 001326 4110 C141/4100_      00141 10848                       SEGWR CVBLANKS,1
 001336 4110 C141/4100_      00141 10876                       SEGWR CVBLANKS,1
                                   10904              *
                                   10905              *  display trace table...
 001346 4110 83FE/4100_      01594 10906                       SEGWR 'TRACE:'
 001356 D203 7010 83C2 00010 01558 10922                       MVC   SEGCBINDF,=A(25)
 00135C 9846 B0A0            000A0 10923                       LM    R4,R6,FEBTRCP+4     R4=next, r5=first, r6=end
 001360                            10924                       LOOP  BEGIN
 001360 5B40 B09C            0009C 10930  1                      S     R4,FEBTRCP          Back up
 001364 1945/47B0 81DA_            10931  1                      IF    (R4,LT,R5),'LR R4,R6; S R4,FEBTRCP'  last
 USING  VTRC,R4                    10953  1                      WITH  (VTRC,R4)
 001370 D607 4000 4000_00000 00000 10966  1                      IF    (VTRCCLCK,Z),EXIT   All done
 00137A 9801 4000            00000 10985  1                      LM    R0,R1,VTRCCLCK
 00137E 4BD0 8404/BED7_      0159A 10986  1                      PUSH  11,PTR=R15          l'hh:mm:ss.hh
 00138E 58E0 83C6/0DEE       0155C 10993  1                      VCALL FMTTIME
 001394 18F7/58E0 83AA_            10997  1                      SEGB  (R1),(R0)
 00139C 41D0 D010/50D0_      00010 11019  1                      POP   11
 0013A4 4110 4008/4100_      00008 11024  1                      SEGB  VTRCNAME
                                   11050  1
 0013B4 D503 83CA 4008_01560 00008 11051  1                      IF    (VTRCNAME,EQ,'VIRT'),BEGIN
 0013BE 4810 4010/4100_      00010 11068  2                        SEGDC LH:VTRCPNO,3
 0013CE 1B00/18F7/58E0_            11089  2                        SEGB
 0013D8 D604 4018 4018_00018 00018 11111  2                        IF    (VTRCSACC,Z),'SEG "-----"'
 0013F2 8260/47F0 8290 013F2 013E0 11147  2                        ELSE  BEGIN
 0013F6 4110 401B/4100_      0001B 11158  3                          SEG   VTRCSACC+3,2
 001406 4110 844B/4100_      015E1 11185  3                          SEG   '.'
 001416 4110 4018/4100_      00018 11200  3                          SEG   VTRCSACC,3
 001426                            11227  2                        END
 001426 4110 8452/4100_      015E8 11231  2                        SEG   ','
 001436 5810 4014/1B00_      00014 11246  2                        SEGDC L:VTRCSID
 001444 1B00/18F7/58E0_            11265  2                        SEGB
 00144E 9541 401D/4770_0001D       11287  2                        IF    (VTRCCMD,EQ,TMILWRIT),'SEG "WRITE:"'
 001466 82D4/47F0 82EC_01466 01454 11325  2                        ELSEIF (VTRCCMD,EQ,TMILREAD),'SEG "READ:"'
 001482 82F0/47F0 8312_01482 01470 11372  2                        ELSE  'SEG "CMD="; SEGHX IC:VTRCCMD,2'
 0014A8 1B00/18F7/58E0_            11430  2                        SEGB
 0014B2 4820 4020            00020 11452  2                        LH    R2,VTRCTLEN
 0014B6 4B20 840C            015A2 11453  2                        SH    R2,=Y(L'PDBHDR)
 0014BA 4740 836E            01504 11454  2                        IF    ~NEG,BEGIN
 0014BE 4110 8458/4100_      015EE 11465  3                          SEG   'LENGTH='
 0014CE 1812/1B00/18F7_            11480  3                          SEGDC (R2)
 0014DA 4110 845F/4100_      015F5 11499  3                          SEG   ', TEXT='
 0014EA 5920 83D2/47D0_      01568 11514  3                          CEIL  R2,L'VTRCTEXT
 0014F6 4110 4022/1802_      00022 11533  3                          SEGT  VTRCTEXT,(R2)
 001504                            11559  2                        END
 001504                            11563  1                      END
                                   11567  1
 001504 1B00/18F7/58E0_            11568  1                      SEGWR
                                   11590  1
 00150E 5940 B0A0/4770_      000A0 11591                       UNTIL ('C R4,FEBTRCP+4',EQ),END
 DROP   VTRC,R4
 001516 D703 7010 7010 00010 00010 11617                       CLEAR SEGCBINDF           Reset indentation
                                   11624
 00151C 41D0 D030/982B_      00030 11625                       PEND
1VIRT     (VIRT2047) (12:37) (15MAR04) Virtual Terminal Interface                                                           Page   43
0Current Usings:  (CV,R12)
0Loc    Object Code    Addr1 Addr2  Stmt Lv Lineno    Source Statement           (Hibal 5, Asmedit 3.3)  HLASM R4.0  2004/03/15 12.37
+___    ______ ____    _____ _____  ____ __ ______    ______ _________
0DROP   SEGCB,R7
 DROP   FEB,R11
 DROP   *,R8
                                   11655
                                   11656                       QLTORG
                                   11705
 001600                01600 01600 11706                       END   .

1VIRT     (VIRT2047) (12:37) (15MAR04) Relocation Dictionary                                                                Page   44
-   Pos.Id   Rel.Id   Flags    Address                                                       HLASM R4.0  2004/03/15 12.37
0  00000001 00000001    0C    00000374
   00000001 00000001    0C    00000378
   00000001 00000001    0C    0000037C
   00000001 00000001    0C    00000380
   00000001 00000001    0C    00000384
   00000001 00000001    0C    00000388
   00000001 00000001    0C    0000054C
   00000001 00000001    0C    000007B4
   00000001 00000001    0C    000007B8
   00000001 00000001    0C    00000E48
   00000001 00000001    0C    00000E4C
   00000001 00000001    0C    00000E54
   00000001 00000001    0C    00001044
   00000001 00000001    0C    00001538
   00000001 00000002    1C    000002E0
   00000001 00000003    1C    000002E4
   00000001 00000004    1C    000002E8
   00000001 00000004    1C    000007B0
   00000001 00000005    1C    000002EC
   00000001 00000006    1C    000002F0
   00000001 00000007    1C    000007A8
   00000001 00000008    1C    000007AC
   00000001 00000009    1C    000007BC
   00000001 00000009    1C    00000E80
   00000001 0000000A    1C    00000E40
   00000001 0000000B    1C    00000E44
   00000001 0000000C    1C    00000E64
   00000001 0000000D    1C    00000E68
   00000001 0000000E    1C    00000E70
   00000001 0000000F    1C    00000E74
   00000001 00000010    1C    00000E78
   00000001 00000011    1C    0000153C
   00000001 00000012    1C    00001540
   00000001 00000013    1C    00001544
   00000001 00000014    1C    00001548
   00000001 00000015    1C    0000154C
   00000001 00000016    1C    00001550
   00000001 00000017    1C    00001554
   00000001 00000018    1C    0000155C
   00000001 00000019    1C    0000156C

1VIRT     (VIRT2047) (12:37) (15MAR04) Ordinary Symbol and Literal Cross Reference                                          Page   45
-Symbol   Length   Value     Id    R Type   Defn References                                  HLASM R4.0  2004/03/15 12.37
0$$$@R10       1 00000000 FFFFFFF4     J     842  1063
 $$$@R11       1 00000000 FFFFFFF3     J     855  1076   1088
 $$$@R12       1 00000000 FFFFFFF2     J     868  1101
 $$$@R13       1 00000000 FFFFFFF1     J     881  1114   1118   1121   1123   1124
 $$$@R14       1 00000000 FFFFFFF0     J     894  1136
 $$$@R2        1 00000000 FFFFFFFC     J     738  1024
 $$$@R8        1 00000000 FFFFFFF6     J     816  1037
 $$$@R9        1 00000000 FFFFFFF5     J     829  1050
 $$$C1MILVIRT
               1 000002FF 00000001     J    5770  5772
 $$$C2MILVIRT
               1 00000571 00000001     J    6603  6605
 $$$C3MILVIRT
               1 000007C8 00000001     J    7305  7307   7405   7424   8137   8156
 $$$C4MILVIRT
               1 00000ED2 00000001     J    9291  9293
 $$$C5MILVIRT
               1 00001062 00000001     J    9712  9714
 $$$C6MILVIRT
               1 000015FC 00000001     J   11700 11702
 $$$C7MILVIRT
               1 00001600 00000001     J   11709 11711
 $$$D3MILVIRT
               1 00000EC7 00000001     J    7306  7395   7413   8127   8145
 $$$FAIL147
               1 00000A84 00000001     U    8258  8256
 $$$FAIL187
               1 00000F81 00000001     U    9513  9511
 $$$FAIL31
               1 00000091 00000001     U    4980  4978
 $$$FAIL35
               1 000000DA 00000001     U    5081  5079
 $$$FAIL38
               1 00000133 00000001     U    5150  5148
 $$$FAIL43
               1 000001B9 00000001     U    5335  5333
 $$$FAIL51
               1 0000022E 00000001     U    5500  5498
 $$$FAIL63
               1 00000334 00000001     U    5863  5861
 $$$FAIL92
               1 000005EC 00000001     U    6788  6786
 $$$FAIL94
               1 00000620 00000001     U    6827  6825
 $$$RFDB       1 00000000 FFFFFFEB     J    2595  2703   2703
 $$$RFEB       1 00000000 FFFFFFE2     J    4356  4571   4571
 $$$RPATHD
               1 00000000 FFFFFFE8     J    2847  2920   2920
 $$$RPDB       1 00000000 FFFFFFEC     J    2383  2575   2575
 $$$RPIB       1 00000000 FFFFFFE1     J    4577  4777   4777
 $$$RRQST      1 00000000 FFFFFFE3     J    4312  4350   4350
 $$$RSCANCB
               1 00000000 FFFFFFEA     J    2709  2735   2735
 $$$RSCB       1 00000000 FFFFFFED     J    1618  2377   2377
 $$$RSEGCB
1VIRT     (VIRT2047) (12:37) (15MAR04) Ordinary Symbol and Literal Cross Reference                                          Page   46
               1 00000000 FFFFFFE9     J    2741  2841   2841
 $$$RVTRC      1 00000000 FFFFFFE0     J    4790  4827   4827
 $$$SEGCB2
               4 000005D4 FFFFFFEE     F    1494  1580   1580
 $$$100F       2 000006B0 00000001     H    7018  7004B
 $$$100T       2 000006A4 00000001     H    7007  6991B
 $$$102F       2 000006FC 00000001     H    7081  7062B
 $$$104F       2 00000780 00000001     H    7239  7188B
 $$$105F       2 0000076E 00000001     H    7222  7212B
 $$$107        1 0000002C 00000001 A   U    7281  7275   7278   7280
 $$$108F       2 000009E8 00000001     H    8051  7493B  7882B
 $$$109B       1 000007D2 00000001     X    7335  7342U
 $$$110F       2 0000097A 00000001     H    7886  7381B  7792B  7812B  7832B  7852B  7872B
 $$$113        4 00000EC8 00000001     I    7419  7411X
 $$$114        4 00000EC8 00000001     I    7418  7419   7419
 $$$116F       2 00000854 00000001     H    7497  7479B
 $$$117        1 0000005C 00000001 A   U    7487  7485
 $$$118F       2 0000088C 00000001     H    7550  7532B
 $$$119F       2 000008B4 00000001     H    7599  7581B
 $$$120F       2 000008D4 00000001     H    7642  7632B
 $$$121        1 0000005C 00000001 A   U    7646  7644
 $$$122F       2 00000926 00000001     H    7718  7680B
 $$$123F       2 00000932 00000001     H    7747  7732B
 $$$124F       2 00000940 00000001     H    7776  7761B
 $$$130F       2 000009CA 00000001     H    7983  7908B  7926B
 $$$133F       2 000009CA 00000001     H    7979  7955B
 $$$135F       2 000009D6 00000001     H    8009  7998B
 $$$137F       2 000009E8 00000001     H    8036  8022B
 $$$139        1 0000002C 00000001 A   U    8059  8053   8056   8058
 $$$140F       2 00000DBC 00000001     H    9227  8267B  8281B  8358B  8823B  8850B  8974B  9022B  9081B  9187B
 $$$141B       1 00000A06 00000001     X    8083  8090U
 $$$143        4 00000ECE 00000001     I    8151  8143X
 $$$144        4 00000ECE 00000001     I    8150  8151   8151
 $$$146F       2 00000A8C 00000001     H    8271  8216B
 $$$148F       2 00000A84 00000001     H    8262  8251B
 $$$148T       2 00000A6C 00000001     H    8254  8239B
 $$$153F       2 00000C82 00000001     H    8798  8330B
 $$$154F       2 00000ADC 00000001     H    8362  8348B
 $$$155F       2 00000AF2 00000001     H    8396  8380B
 $$$156        1 00000004 00000001 A   U    8426  8423   8425
 $$$157F       2 00000C7E 00000001     H    8793  8468B
 $$$157S       2 00000B50 00000001     H    8459  8792B
 $$$159F       2 00000B88 00000001     H    8526  8516B
 $$$160F       2 00000C26 00000001     H    8665  8635B
 $$$160T       2 00000C0C 00000001     H    8638  8609B  8623B
 $$$163F       2 00000C4A 00000001     H    8709  8679B
 $$$164F       2 00000C5C 00000001     H    8744  8723B
 $$$165F       2 00000C96 00000001     H    8827  8813B
 $$$166F       2 00000CB0 00000001     H    8854  8840B
 $$$167F       2 00000CF2 00000001     H    8978  8964B
 $$$168F       2 00000D10 00000001     H    9032  8992B
 $$$169F       2 00000D0A 00000001     H    9026  9012B
 $$$170F       2 00000D40 00000001     H    9085  9071B
 $$$174        1 0000002C 00000001 A   U    9235  9229   9232   9234
 $$$175F       2 00000F86 00000001     H    9529  9426B
 $$$176B       1 00000EDC 00000001     X    9324  9331U
 $$$182F       2 00000F48 00000001     H    9488  9444B
 $$$188        1 0000002C 00000001 A   U    9537  9531   9534   9536
 $$$190B       1 00000FA6 00000001     X    9566  9573U
1VIRT     (VIRT2047) (12:37) (15MAR04) Ordinary Symbol and Literal Cross Reference                                          Page   47
 $$$191F       2 00000FD0 00000001     H    9637  9623B
 $$$193        1 0000002C 00000001 A   U    9694  9688   9691   9693
 $$$195B       1 0000106C 00000001     X    9746  9753U
 $$$196        1 0000002C 00000001 A   U    9819  9813   9816   9818
 $$$198B       1 000010AE 00000001     X    9850  9857U
 $$$199        1 0000002C 00000001 A   U    9890  9884   9887   9889
 $$$201B       1 000010DC 00000001     X    9921  9928U
 $$$202F       2 00001154 00000001     H   10104 10079B
 $$$203F       2 0000116E 00000001     H   10142 10117B
 $$$204        1 0000002C 00000001 A   U   10192 10186  10189  10191
 $$$205F       2 0000151C 00000001     H   11643 10479B
 $$$206B       1 00001196 00000001     X   10222 10229U
 $$$207F       2 0000120E 00000001     H   10405 10380B
 $$$208F       2 00001228 00000001     H   10443 10418B
 $$$210F       2 00001326 00000001     H   10847 10502B
 $$$210S       2 0000124A 00000001     H   10495 10846B
 $$$212F       2 0000131E 00000001     H   10841 10518B
 $$$213F       2 00001314 00000001     H   10810 10645B
 $$$214F       2 00001314 00000001     H   10801 10758B
 $$$215F       2 00001516 00000001     H   11609 10979B
 $$$215S       2 00001360 00000001     H   10928 11606B
 $$$216F       2 00001370 00000001     H   10952 10941B
 $$$218        1 0000000C 00000001 A   U   11022 11020
 $$$219F       2 00001504 00000001     H   11566 11063B
 $$$220B       4 000013DE 00000001     I   11122 11149
 $$$220F       2 000013F2 00000001     H   11146 11122B 11148
 $$$221E       2 000013F6 00000001     H   11156 11150
 $$$221F       2 00001426 00000001     H   11230 11152B
 $$$222B       4 00001452 00000001     I   11300 11328
 $$$222F       2 00001466 00000001     H   11324 11300B 11327
 $$$223B       4 0000146E 00000001     I   11347 11374
 $$$223E       2 0000146A 00000001     H   11335 11329
 $$$223F       2 00001482 00000001     H   11371 11331B 11347B 11373
 $$$225E       2 00001486 00000001     H   11381 11375
 $$$225F       2 000014A8 00000001     H   11429 11377B
 $$$226F       2 00001504 00000001     H   11562 11460B
 $$$227F       2 000014F6 00000001     H   11532 11523B
 $$$230        1 0000002C 00000001 A   U   11651 11645  11648  11650
 $$$27B        1 00000022 00000001     X    4855  4862U
 $$$28         1 0000002C 00000001 A   U    4929  4923   4926   4928
 $$$30B        1 00000070 00000001     X    4955  4962U
 $$$32         1 0000002C 00000001 A   U    4997  4991   4994   4996
 $$$34B        1 000000B0 00000001     X    5026  5033U
 $$$36F        2 000000DA 00000001     H    5085  5074B
 $$$37F        2 000000EC 00000001     H    5107  5097B
 $$$39F        2 00000134 00000001     H    5154  5143B
 $$$40         1 0000002C 00000001 A   U    5183  5177   5180   5182
 $$$42B        1 0000018E 00000001     X    5279  5286U
 $$$44F        2 000001BA 00000001     H    5339  5328B
 $$$45F        2 000001E6 00000001     H    5394  5371B
 $$$45T        2 000001CE 00000001     H    5374  5359B
 $$$48         1 0000002C 00000001 A   U    5417  5411   5414   5416
 $$$50B        1 00000204 00000001     X    5444  5451U
 $$$52F        2 0000022E 00000001     H    5504  5493B
 $$$53F        2 0000024A 00000001     H    5550  5517B
 $$$54F        2 0000029E 00000001     H    5684  5570B
 $$$55F        2 0000029E 00000001     H    5680  5593B
 $$$55S        2 0000025A 00000001     H    5584  5613B  5679B
 $$$58F        2 00000286 00000001     H    5655  5642B
1VIRT     (VIRT2047) (12:37) (15MAR04) Ordinary Symbol and Literal Cross Reference                                          Page   48
 $$$59F        2 000002B2 00000001     H    5711  5697B
 $$$60         1 0000002C 00000001 A   U    5749  5743   5746   5748
 $$$61F        2 000004B2 00000001     H    6376  5997B  6002B  6007B  6016B
 $$$62B        1 0000030A 00000001     X    5808  5815U
 $$$64F        2 00000334 00000001     H    5867  5856B
 $$$65F        2 0000035E 00000001     H    5946  5911B
 $$$66F        2 00000350 00000001     H    5938  5928B
 $$$67F        2 00000368 00000001     H    5973  5960B
 $$$69S        2 000003CE 00000001     H    6056  6098B
 $$$70F        2 000003DE 00000001     H    6080  6069B
 $$$75S        2 0000043C 00000001     H    6187  6229B
 $$$76F        2 0000044C 00000001     H    6211  6200B
 $$$80F        2 0000047A 00000001     H    6288  6279B
 $$$81F        2 000004A0 00000001     H    6324  6300B
 $$$83         1 0000002C 00000001 A   U    6384  6378   6381   6383
 $$$85B        1 000004D0 00000001     X    6413  6420U
 $$$86F        2 0000050E 00000001     H    6513  6499B
 $$$87F        2 00000528 00000001     H    6539  6525B
 $$$88         1 0000002C 00000001 A   U    6571  6565   6568   6570
 $$$89F        2 00000780 00000001     H    7273  6967B
 $$$90B        1 0000057C 00000001     X    6634  6641U
 $$$91F        2 00000694 00000001     H    6971  6762B
 $$$93F        2 000005EC 00000001     H    6792  6781B
 $$$95F        2 00000620 00000001     H    6831  6820B
 $$$96F        2 00000634 00000001     H    6857  6843B
 $$$98F        2 00000690 00000001     H    6963  6894B
 $$$99F        2 00000688 00000001     H    6953  6909B
 $NLL2119      2 000007FE 00000001     I    7427  7431B
 $NLL2561      2 00000A28 00000001     I    8159  8163B
 $NLM2119      1 00000EC7 00000001     R    7400  7418
 $NLM2561      1 00000ECC 00000001     R    8132  8150
 $OLL0929      2 000001DA 00000001     I    5386  5390B
 $OLL2473      2 000009B8 00000001     I    7970  7974B
 $OLL2672      2 00000AAC 00000001     I    8307  8311B
 $OLL3480      2 00000FFC 00000001     I    9663  9667B
 @NSP          4 00000048 FFFFFFF1     A    1120  4847M  4850M  4868M  4869M  4870M  4926   4928   4930M  4947M  4950M
                                                  4968M  4969M  4970M  4994   4996   4998M  5018M  5021M  5039M  5040M
                                                  5041M  5180   5182   5184M  5271M  5274M  5292M  5293M  5294M  5414
                                                  5416   5418M  5436M  5439M  5457M  5458M  5459M  5746   5748   5750M
                                                  5800M  5803M  5821M  5822M  5823M  6381   6383   6385M  6405M  6408M
                                                  6426M  6427M  6428M  6568   6570   6572M  6626M  6629M  6647M  6648M
                                                  6649M  7278   7280   7282M  7327M  7330M  7348M  7349M  7350M  7437M
                                                  7438M  7488M  7647M  8056   8058   8060M  8075M  8078M  8096M  8097M
                                                  8098M  8412M  8415M  8416M  8425   8427M  9232   9234   9236M  9316M
                                                  9319M  9337M  9338M  9339M  9534   9536   9538M  9558M  9561M  9579M
                                                  9580M  9581M  9691   9693   9695M  9738M  9741M  9759M  9760M  9761M
                                                  9816   9818   9820M  9842M  9845M  9863M  9864M  9865M  9887   9889
                                                  9891M  9913M  9916M  9934M  9935M  9936M 10189  10191  10193M 10214M
                                                 10217M 10235M 10236M 10237M 10990M 10991M 11023M 11648  11650  11652M
 @PIBR         0 00000000 FFFFFFF4     @    1064  6155
 @RAR          0 00000000 FFFFFFF0     @    1137  9647
 @R0           0 00000000 FFFFFFFE     @     713   989U
 @R1           0 00000000 FFFFFFFD     @     726   985U  1589   1593   1594   1596   1597M  8832  11408U
 @R10          0 00000000 FFFFFFF4     @     843   949U  5676U  6241U  6551U  7261U  8789U  9210U 10838U
 @R11          0 00000000 FFFFFFF3     @     856   945U  4914U  5168U  5402U  5734U  6369U  6546U  7256U  8044U  9220U
                                                  9674U  9804U 10177U 11636U
 @R12          0 00000000 FFFFFFF2     @     869   941U
 @R13          0 00000000 FFFFFFF1     @     882   937U  7937M  7975   8179M  8186M  8187M  9368M  9375M  9375   9382M
 @R14          0 00000000 FFFFFFF0     @     895   933U  7067M  7074M  7074   7077
1VIRT     (VIRT2047) (12:37) (15MAR04) Ordinary Symbol and Literal Cross Reference                                          Page   49
 @R15          0 00000000 FFFFFFEF     @     908   929U  1599M  6719M  6746U  7115M  7138U  7173U  7709U  8779U  8891M
                                                  8914U  8949U  9129M  9157U
 @R2           0 00000000 FFFFFFFC     @     739   981U  6081M  6082   6212M  6213   6819   6864M  6864   7075   9116
                                                  9353M  9353  10757U
 @R3           0 00000000 FFFFFFFB     @     752   977U  6081   6212
 @R4           0 00000000 FFFFFFFA     @     765   973U 11615U
 @R5           0 00000000 FFFFFFF9     @     778   969U  8773   9390M  9459   9483M 10516  10842
 @R6           0 00000000 FFFFFFF8     @     791   965U  5600   6359U  6950U  7246U  8567M  9200U  9522U
 @R7           0 00000000 FFFFFFF7     @     804   961U  5603   6364U  7251U  7446M  7446   7447   7448M  7449M  7450M
                                                  7498   7499   7514   7519   7521   7563   7568   7570   7615   7620
                                                  7638   9215U  9679U 10172U 11631U
 @R8           0 00000000 FFFFFFF6     @     817   957U  4919U  4987U  5173U  5407U  5739U  6374U  6561U  7271U  8049U
                                                  9225U  9527U  9684U  9809U  9880U 10182U 11641U
 @R9           0 00000000 FFFFFFF5     @     830   953U  6556U  7266U  8784U  9205U 10807U
 @SPR          0 00000000 FFFFFFF1     @    1115  4847M  4850M  4868M  4869M  4870M  4926   4928   4930M  4947M  4950M
                                                  4968M  4969M  4970M  4994   4996   4998M  5018M  5021M  5039M  5040M
                                                  5041M  5180   5182   5184M  5271M  5274M  5292M  5293M  5294M  5414
                                                  5416   5418M  5436M  5439M  5457M  5458M  5459M  5746   5748   5750M
                                                  5800M  5803M  5821M  5822M  5823M  6381   6383   6385M  6405M  6408M
                                                  6426M  6427M  6428M  6568   6570   6572M  6626M  6629M  6647M  6648M
                                                  6649M  7278   7280   7282M  7327M  7330M  7348M  7349M  7350M  7437M
                                                  7438M  7439   7488M  7647M  8056   8058   8060M  8075M  8078M  8096M
                                                  8097M  8098M  8412M  8415M  8416M  8425   8427M  9232   9234   9236M
                                                  9316M  9319M  9337M  9338M  9339M  9534   9536   9538M  9558M  9561M
                                                  9579M  9580M  9581M  9691   9693   9695M  9738M  9741M  9759M  9760M
                                                  9761M  9816   9818   9820M  9842M  9845M  9863M  9864M  9865M  9887
                                                  9889   9891M  9913M  9916M  9934M  9935M  9936M 10189  10191  10193M
                                                 10214M 10217M 10235M 10236M 10237M 10990M 10991M 10992  11023M 11648
                                                 11650  11652M
 @WA           1 0000004C FFFFFFF1     U    1122  7439  10992
 AHLHEAD       1 00000000 00000000 A   T    3330  3330
 AHLVCCR8      1 00000000 00000000 A   T    3821  3821
 ASCTBL        1 00000000 00000000 A   T    1413  1413
 ASMVT         1 00000000 00000000 A   T    3710  3710
 BLTBL         1 00000000 00000000 A   T    1415  1415
 BR            8 00000008 00000001 A   #    1031  4851M  4862U  4951M  4962U  5022M  5033U  5275M  5286U  5440M  5451U
                                                  5804M  5815U  6409M  6420U  6630M  6641U  7331M  7342U  8079M  8090U
                                                  9320M  9331U  9562M  9573U  9742M  9753U  9846M  9857U  9917M  9928U
                                                 10218M 10229U
 BTD           1 00000000 0000000E     T    9267  9267
 CBBRANCH      1 00000000 00000000 A   T    3866  3866
 CPLBLGF       1 00000080 FFFFFFEC A   U    2565  7227
 CRBRANCH      1 00000000 00000000 A   T    3607  3607
 CSRTABLE      1 00000000 00000000 A   T    3627  3627
 CSVARMGR      1 00000000 00000000 A   T    3675  3675
 CSVEXIT       1 00000000 00000000 A   T    3548  3548
 CSVLLCB       1 00000000 00000000 A   T    3148  3148
 CSVLLTRM      1 00000000 00000000 A   T    3149  3149
 CSVMEM        1 00000000 00000000 A   T    3376  3376
 CSVVFGET      1 00000000 00000000 A   T    3940  3940
 CSVVFIND      1 00000000 00000000 A   T    3938  3938
 CV         1912 00000000 FFFFFFEE     X    1614  1163U
 CVBLANKS    256 00000141 FFFFFFEE     C    1315  8527   8548  10858  10886
 CVBUFLEN      1 00002800 FFFFFFEE A   N    1197  5211   9261
 CVCUR        40 00000750 FFFFFFEE     X    1612  9787M  9787
 CVCURFEB      4 00000750 FFFFFFEE     A    1605  1612   1612
 CVDSECT       1 00000000 FFFFFFEE     J    1150  2378   2576   2704   2736   2842   2921
 CVECB         4 00000038 FFFFFFEE     A    1180  1177   5108
 CVFEBQT       4 000002A0 FFFFFFEE     A    1333  7685   7702M
1VIRT     (VIRT2047) (12:37) (15MAR04) Ordinary Symbol and Literal Cross Reference                                          Page   50
 CVFLAG        1 0000013C FFFFFFEE     R    1240  1244   1249   1254   1259   1264   1269   1274   1279
 CVFLAG2       1 0000013D FFFFFFEE     R    1285  1289   1294   1299   1304
 CVFTEST     128 0000013C FFFFFFEE         1244  5096
 CVKSCB#       1 00000032 FFFFFFEE A   N    1203  1204   1205
 CVMACH        1 0000013B FFFFFFEE     R    1215  1224   1234
 CVMCRVIR      2 0000053E FFFFFFEE     H    1455  5705   5707M  7659   7660M
 CVMFLAG       1 0000051C FFFFFFEE     R    1431  1435
 CVMSTART      8 000004B8 FFFFFFEE     D    1422  1476   1476
 CVPDBP        4 00000060 FFFFFFEE     A    1198  8746   9034
 CVR          12 0000000C 00000001 A   #    1095  1163U
 CVSCNCB       4 000005B4 FFFFFFEE     F    1480  1491
 CVSTART       4 00000000 FFFFFFEE     C    1173  1614   1614
 CVTBRET       2 00000052 FFFFFFE7     H    3173  3686   3765
 CVTRCRTN      4 00000724 FFFFFFEE     I    1589  1598B  6718B  7114B  7150B  8890B  8926B  9128B
 CVTVSTGX      1 00000000 FFFFFFE6     J    4138  4002
 CVTXTNT1      1 00000000 FFFFFFE5     J    4177  3345
 CVTXTNT2      1 00000000 FFFFFFE4     J    4185  3415
 CVT4MS1       1 00000010 FFFFFFE7 A   U    3198  3206
 CVT6DAT       1 00000002 FFFFFFE7 A   U    3202  3206
 CVWKBUFP      4 00000064 FFFFFFEE     A    1199  6914   7020   8164
 CVWORK        8 00000248 FFFFFFEE     D    1317  5113M  5114M  5130
 CVWSGBUF    235 00000610 FFFFFFEE     C    1582  1570   1576
 CVWSGCOD      1 000005D4 FFFFFFEE     R    1497  1506   1516   1526   1536   1546   1556   1566
 CVWSGUSR      4 0000060C FFFFFFEE     A    1579  1581
 DFAIDTAB      1 00000000 00000000 A   T    4015  4015
 DISCSESS      1 00000000 00000003     T    5762  5762
 EBCTBL        1 00000000 00000000 A   T    1414  1414
 EBCTBL7       1 00000000 00000000 A   T    1417  1417
 EPARTBL       1 00000000 00000000 A   T    1409  1409
 FDB          16 00000000 FFFFFFEB     J    2703  5893U
 FDBCMAX       1 00000002 FFFFFFEE A   U    2587  5983   5983
 FDBF          4 00000000 FFFFFFEB     F    2668  2671   2676   2676   2679   2687   2687   2690   2691   2691   2694
                                                  2695   2695
 FDBFFLEN      2 0000000A FFFFFFEB     H    2674  6049M
 FDBFFTNO      2 00000008 FFFFFFEB     H    2673  6048M
 FDBFFTRC      1 0000000C FFFFFFEB     X    2675  6050
 FDBFPLEN      2 0000000E FFFFFFEB     H    2685  6179M
 FDBFPTNO      2 0000000C FFFFFFEB     H    2684  6178M
 FDBFPTRC      1 00000010 FFFFFFEB     X    2686  6181
 FDBF1        12 00000000 FFFFFFEB     X    2676  6047M  6047   6594
 FDBF2        16 00000000 FFFFFFEB     X    2687  6164M  6164   6598
 FDBPMAX       1 00000066 FFFFFFEE A   U    2591  5990   5990
 FDBT          4 00000000 FFFFFFEB     F    2602  2611   2611   2616   2616   2644   2644   2664   2664   2667
 FDBTDATA      1 00000004 FFFFFFEB     U    2607  2610   2614   2619   2647
 FDBTFCLS     16 00000004 FFFFFFEB         2641  6299
 FDBTFOPN     32 00000004 FFFFFFEB         2636  6278
 FDBT1         4 00000000 FFFFFFEB     X    2611  6591
 FDBT101       5 00000000 FFFFFFEB     X    2644  6599
 FDBT101F      1 00000004 FFFFFFEB     R    2622  2626   2631   2636   2641
 FDBT102       7 00000000 FFFFFFEB     X    2664  6601
 FDBT102F      1 00000006 FFFFFFEB     R    2652  2656   2661
 FDBT2         6 00000000 FFFFFFEB     X    2616  6595
 FDBT2P        2 00000004 FFFFFFEB     H    2615  6130
 FEB         280 00000000 FFFFFFE2     J    4571  4876   4890U  4903   5056U  5073   5309U  5327   5383   5383   5385
                                                  5385   5389M  5389M  5474U  5492   5713   5838U  5855   6305   6469U
                                                  6690U  7365U  7409   7409   7426   7426   7430M  7430M  7695U  7967
                                                  7967   7969   7969   7973M  7973M  8028   8112U  8141   8141   8158
                                                  8158   8162M  8162M  8304   8304   8306   8306   8310M  8310M  9605U
                                                  9660   9660   9662   9662   9666M  9666M  9776U  9789   9951U 10116
1VIRT     (VIRT2047) (12:37) (15MAR04) Ordinary Symbol and Literal Cross Reference                                          Page   51
                                                 10252U 10417
 FEBACCT       5 000000C8 FFFFFFE2     C    4491  7570M  8522
 FEBASCBP      4 000000BC FFFFFFE2     A    4489  7498M  8589
 FEBFEXT      64 000000B8 FFFFFFE2         4485  6908   7743M
 FEBFINIT    128 000000B8 FFFFFFE2         4480  8329   8447M
 FEBFLAG       1 000000B8 FFFFFFE2     R    4476  4480   4485
 FEBFOPEN     64 0000000C FFFFFFE2         4384  5161M 10078  10379
 FEBFPS      128 00000070 FFFFFFE2         4416  4901M
 FEBFRLIN     32 00000070 FFFFFFE2         4426  7772M
 FEBGFLG       1 0000000C FFFFFFE2     R    4375  4379   4384
 FEBINFO      12 0000001C FFFFFFE2     C    4405  7622M  7638M  8549
 FEBINMX       2 000000CE FFFFFFE2     H    4493  6498M  6498   6507   6509   8399M  8590
 FEBLINK       4 00000008 FFFFFFE2     A    4371  7701M
 FEBNAME       8 00000014 FFFFFFE2     C    4404  4895M  7521M 10019  10024  10320  10325
 FEBNICLK      8 00000110 FFFFFFE2     D    4564  7654M  7923M  7923   7939   7942   7975M
 FEBNIO        4 00000090 FFFFFFE2     F    4462  8317   8318M
 FEBOUMX       2 000000D0 FFFFFFE2     H    4494  6524M  6524   6533   6535   8400M  8591
 FEBP          4 000000D4 FFFFFFE2     F    4498  4557
 FEBPATH      56 000000D4 FFFFFFE2     X    4558  5086M  5112   6939   7176   9645
 FEBPATHX      4 000000D4 FFFFFFE2     F    4497  4558   4558
 FEBPATP       4 00000098 FFFFFFE2     A    4466  5562   6152   6809   8428M  8449   8829  10476M 10476  10486  10591
 FEBPECB       4 000000FC FFFFFFE2     R    4533  5109M
 FEBPECBF      4 000000F4 FFFFFFE2     R    4521  5111M
 FEBPFCLS      1 00000080 FFFFFFE2 A   U    4523  5380   8019   9657
 FEBPFLG       1 00000070 FFFFFFE2     R    4412  4416   4421   4426
 FEBPFLG2      1 00000071 FFFFFFE2     R    4432  4436   4441   4446
 FEBPFNI       1 00000020 FFFFFFE2 A   U    4525  7905   7964   7995   8123   8301
 FEBPFOPN      1 00000008 FFFFFFE2 A   U    4527  7378   7391
 FEBPMAX       2 00000076 FFFFFFE2     H    4453  5592   6142   8407M  8467   8812  10038  10339  10487
 FEBPMGC       4 000000D4 FFFFFFE2     R    4500  5516M  5516   5534   5546M  5546   7463   8200
 FEBPNO        2 0000010E FFFFFFE2     H    4562  5668   5670M  6876   6878M  6893M  6893   8495   8496M
 FEBPPASS      4 000000F8 FFFFFFE2     C    4531  5103M
 FEBR         11 0000000B 00000001 A   #    1070  4881M  4890U  5047M  5056U  5300M  5309U  5465M  5474U  5829M  5838U
                                                  6460M  6469U  6681M  6690U  6955   7356M  7365U  8112U  8568   9605U
                                                  9767M  9776U  9942M  9951U  9975  10243M 10252U 10276
 FEBSCLCK      8 00000078 FFFFFFE2     X    4455  5696M  5696   7653M  7654
 FEBSFLAG      1 0000010C FFFFFFE2     X    4560  4521   5110   5383   5385   5385   5389M  5558M  7380   7409   7409
                                                  7426   7430M  7907   7967   7969   7969   7973M  7997   8021   8141
                                                  8141   8158   8162M  8304   8306   8306   8310M  9660   9662   9662
                                                  9666M
 FEBTAG        8 000000C0 FFFFFFE2     C    4490  5356   5370   7499M  7731   7760   7789   7809   7829   7849   7869
                                                  8379   8515   8606   8620   8634   8678   8722
 FEBTRCP       4 0000009C FFFFFFE2     A    4468  6051   6058   6076   6095   6716   7112   7664   8888   9126  10923
                                                 10930  10948  11603
 FEBTVIRT      1 00000005 FFFFFFE2 A   U    4393  4894
 FEBTYPE       1 0000000D FFFFFFE2     X    4388  4894M
 FEBUC         2 00000010 FFFFFFE2     H    4401  4464   4464
 FMBRANCH      1 00000000 00000000 A   T    3791  3791
 FMILASYN      1 00000050 FFFFFFEC A   U    2495  7201   8991
 FMILSTOP      1 00000030 FFFFFFEC A   U    2487  6937
 FMTTIME       1 00000000 00000018     T   11673 11673
 FREEFEB       1 00000000 00000005     T    5764  5764
 FREEPIB       1 00000000 00000004     T    5763  5763   7297
 FREESCB       1 00000000 00000007     T    7295  7295
 FREETRC       1 00000000 00000008     T    7296  7296
 FSR           2 00000002 00000001 A   #    1018  4850   4870   4926M  4950   4970   4994M  5021   5041   5180M  5274
                                                  5294   5414M  5439   5459   5746M  5803   5823   6381M  6408   6428
                                                  6568M  6629   6649   7278M  7330   7350   8056M  8078   8098   9232M
                                                  9319   9339   9534M  9561   9581   9691M  9741   9761   9816M  9845
1VIRT     (VIRT2047) (12:37) (15MAR04) Ordinary Symbol and Literal Cross Reference                                          Page   52
                                                  9865   9887M  9916   9936  10189M 10217  10237  11648M
 GETFEB        1 00000000 00000002     T    5761  5761
 GETPIB        1 00000000 0000000D     T    9265  9265
 GETSCB        1 00000000 0000000F     T    9268  9268
 GETTRC        1 00000000 0000000B     T    9256  9256
 GLBRANCH      1 00000000 00000000 A   T    3697  3697
 GMBRANCH      1 00000000 00000000 A   T    3793  3793
 GVT           1 00000000 00000000 A   T    3559  3559
 HIBAL         1 00000000 FFFFFFFF     J     698   714    727    740    753    766    779    792    805    818    831
                                                   844    857    870    883    896    909
 IARMPVT       1 00000000 00000000 A   T    3434  3434
 IARMRRCE      1 00000000 00000000 A   T    3979  3979
 IARPIBR       1 00000000 00000000 A   T    3949  3949
 IARPSIV       1 00000000 00000000 A   T    3773  3773
 IARPSXM       1 00000000 00000000 A   T    3922  3922
 IARXKEY       1 00000000 00000000 A   T    3880  3880
 IARXVIO       1 00000000 00000000 A   T    3774  3774
 ICYMMVTC      1 00000000 00000000 A   T    4205  4205
 IDA121CV      1 00000000 00000000 A   T    3712  3712
 IEABEND       1 00000000 00000000 A   T    3296  3296
 IEADQIQE      1 00000000 00000000 A   T    3692  3692
 IEAECVT       1 00000000 00000000 A   T    3221  3221
 IEAGSMQ       1 00000000 00000000 A   T    3669  3669
 IEAIHASU      1 00000000 00000000 A   T    3909  3909
 IEALSMQ       1 00000000 00000000 A   T    3671  3671
 IEAMASCB      1 00000000 00000000 A   T    3639  3639   3643
 IEAPATCH      1 00000000 00000000 A   T    3304  3304
 IEAPDSRT      1 00000000 00000000 A   T    3567  3567
 IEAPTRV       1 00000000 00000000 A   T    3383  3383
 IEAQCDSR      1 00000000 00000000 A   T    3287  3287
 IEAQCS01      1 00000000 00000000 A   T    3679  3679
 IEAQLPAQ      1 00000000 00000000 A   T    3288  3288
 IEAQTD00      1 00000000 00000000 A   T    3184  3184
 IEAQTE00      1 00000000 00000000 A   T    3182  3182
 IEARPOST      1 00000000 00000000 A   T    3694  3694
 IEASMFEX      1 00000000 00000000 A   T    3571  3571
 IEASMFSP      1 00000000 00000000 A   T    3917  3917
 IEASPOST      1 00000000 00000000 A   T    3714  3714
 IEASVDCB      1 00000000 00000000 A   T    3175  3175
 IEATCBP       1 00000000 00000000 A   T    3125  3125
 IEATPC        1 00000000 00000000 A   T    3177  3177
 IEATRSCN      1 00000000 00000000 A   T    3535  3535
 IEAVAR02      1 00000000 00000000 A   T    3619  3619
 IEAVBLDP      1 00000000 00000000 A   T    3603  3603
 IEAVDELP      1 00000000 00000000 A   T    3606  3606
 IEAVEAC0      1 00000000 00000000 A   T    3696  3696
 IEAVEADV      1 00000000 00000000 A   T    3854  3854
 IEAVEDR1      1 00000000 00000000 A   T    3739  3739
 IEAVELRM      1 00000000 00000000 A   T    3688  3688
 IEAVENLU      1 00000000 00000000 A   T    4035  4035
 IEAVENQ2      1 00000000 00000000 A   T    3685  3685
 IEAVEQV1      1 00000000 00000000 A   T    3842  3842
 IEAVEQV2      1 00000000 00000000 A   T    3845  3845
 IEAVEQV3      1 00000000 00000000 A   T    3848  3848
 IEAVERI1      1 00000000 00000000 A   T    3741  3741
 IEAVERP1      1 00000000 00000000 A   T    3743  3743
 IEAVERX1      1 00000000 00000000 A   T    3931  3931
 IEAVESC1      1 00000000 00000000 A   T    3870  3870
 IEAVESPR      1 00000000 00000000 A   T    3799  3799
1VIRT     (VIRT2047) (12:37) (15MAR04) Ordinary Symbol and Literal Cross Reference                                          Page   53
 IEAVESTU      1 00000000 00000000 A   T    4033  4033
 IEAVESVT      1 00000000 00000000 A   T    3805  3805
 IEAVET6E      1 00000000 00000000 A   T    3905  3905
 IEAVEVT2      1 00000000 00000000 A   T    3859  3859
 IEAVEXPR      1 00000000 00000000 A   T    3667  3667
 IEAVEXP1      1 00000000 00000000 A   T    3836  3836
 IEAVFRCL      1 00000000 00000000 A   T    3605  3605
 IEAVGSDA      1 00000000 00000000 A   T    3850  3850
 IEAVGTCL      1 00000000 00000000 A   T    3604  3604
 IEAVGWSA      1 00000000 00000000 A   T    3699  3699
 IEAVLKRM      1 00000000 00000000 A   T    3406  3406
 IEAVMFRM      1 00000000 00000000 A   T    3784  3784
 IEAVMSGS      1 00000000 00000000 A   T    3353  3353
 IEAVNVT0      1 00000000 00000000 A   T    4018  4018
 IEAVRSUH      1 00000000 00000000 A   T    3897  3897
 IEAVRT03      1 00000000 00000000 A   T    3511  3511
 IEAVSPND      1 00000000 00000000 A   T    3907  3907
 IEAVSTAG      1 00000000 00000000 A   T    3647  3647
 IEAVTCTL      1 00000000 00000000 A   T    3899  3899
 IEAVTEST      1 00000000 00000000 A   T    3410  3410
 IEAVTRGR      1 00000000 00000000 A   T    3707  3707
 IEAVTRG1      1 00000000 00000000 A   T    3156  3156
 IEAVTRV3      1 00000000 00000000 A   T    3403  3403
 IEAVTSBP      1 00000000 00000000 A   T    3653  3653
 IEAVTSFR      1 00000000 00000000 A   T    3374  3374
 IEAVTSGL      1 00000000 00000000 A   T    3651  3651
 IEAVVMSR      1 00000000 00000000 A   T    3432  3432
 IEAVWAIT      1 00000000 00000000 A   T    3674  3674
 IEAVWSAC      1 00000000 00000000 A   T    3705  3705
 IEAVWSAG      1 00000000 00000000 A   T    3703  3703
 IEAVWSAL      1 00000000 00000000 A   T    3701  3701
 IEAVXEXT      1 00000000 00000000 A   T    3782  3782
 IEAVXSFT      1 00000000 00000000 A   T    3749  3749
 IEAVXSTN      1 00000000 00000000 A   T    3755  3755
 IEAVXSTS      1 00000000 00000000 A   T    3753  3753
 IEAVXUNN      1 00000000 00000000 A   T    3778  3778
 IEAVXUNS      1 00000000 00000000 A   T    3757  3757
 IEAWTCB       1 00000000 00000000 A   T    3814  3814
 IEA0DS        1 00000000 00000000 A   T    3220  3220
 IEA0EF00      1 00000000 00000000 A   T    3126  3126
 IEA0EF01      1 00000000 00000000 A   T    3166  3166
 IEA0PT0E      1 00000000 00000000 A   T    3886  3886
 IEA0PT01      1 00000000 00000000 A   T    3227  3227
 IEA0PT02      1 00000000 00000000 A   T    3811  3811
 IEA0PT03      1 00000000 00000000 A   T    3888  3888
 IEA0VL00      1 00000000 00000000 A   T    3137  3137
 IEA0VL01      1 00000000 00000000 A   T    3544  3544
 IECIXAVL      1 00000000 00000000 A   T    3212  3212
 IECPCNVT      1 00000000 00000000 A   T    3140  3140
 IECPRLTV      1 00000000 00000000 A   T    3144  3144
 IECVEXCL      1 00000000 00000000 A   T    3776  3776
 IECXAPG       1 00000000 00000000 A   T    3135  3135
 IECXITP       1 00000000 00000000 A   T    3165  3165
 IECXTLER      1 00000000 00000000 A   T    3151  3151
 IEC0SCR1      1 00000000 00000000 A   T    3310  3310
 IEECUCB       1 00000000 00000000 A   T    3181  3181
 IEEMSER       1 00000000 00000000 A   T    3159  3159   3225
 IEEVEXSN      1 00000000 00000000 A   T    3514  3514
 IEEVSTOP      1 00000000 00000000 A   T    3824  3824
1VIRT     (VIRT2047) (12:37) (15MAR04) Ordinary Symbol and Literal Cross Reference                                          Page   54
 IEFAQTOP      1 00000000 00000000 A   T    3631  3631
 IEFAUSDM      1 00000000 00000000 A   T    3131  3131
 IEFENFDM      1 00000000 00000000 A   T    3290  3290
 IEFJESCT      1 00000000 00000000 A   T    3390  3390
 IEFLINK       1 00000000 00000000 A   T    3128  3128
 IEFQMWR       1 00000000 00000000 A   T    3241  3241
 IEWFBOSV      1 00000000 00000000 A   T    3218  3218
 IEWMSEPT      1 00000000 00000000 A   T    3723  3723
 IFBDCB        1 00000000 00000000 A   T    3207  3207
 IFDOLT0A      1 00000000 00000000 A   T    3569  3569
 IFGDEBVR      1 00000000 00000000 A   T    4200  4200
 IGC043BR      1 00000000 00000000 A   T    3615  3615
 IGC044R2      1 00000000 00000000 A   T    3725  3725
 IGC062R1      1 00000000 00000000 A   T    3695  3695
 IGC07903      1 00000000 00000000 A   T    3840  3840
 IGC124        1 00000000 00000000 A   T    3856  3856
 IGFRVT        1 00000000 00000000 A   T    3305  3305
 IGVCPBDB      1 00000000 00000000 A   T    3971  3971
 IGVCPDLB      1 00000000 00000000 A   T    3973  3973
 IGVCPFRE      1 00000000 00000000 A   T    3963  3963
 IGVCPGTC      1 00000000 00000000 A   T    3961  3961
 IGVCPGUB      1 00000000 00000000 A   T    3955  3955
 IGVCPGUP      1 00000000 00000000 A   T    3958  3958
 IGVCPGUS      1 00000000 00000000 A   T    3981  3981
 IGVGCAS       1 00000000 00000000 A   T    3609  3609
 IGVGFAS       1 00000000 00000000 A   T    3613  3613
 IGVGRRGN      1 00000000 00000000 A   T    3985  3985
 IGVGVRGN      1 00000000 00000000 A   T    3987  3987
 IGVQSPET      1 00000000 00000000 A   T    3611  3611
 IGVSLIST      1 00000000 00000000 A   T    3965  3965
 IGVSLOC       1 00000000 00000000 A   T    3969  3969
 IGVSREGN      1 00000000 00000000 A   T    3967  3967
 IGVSTSKI      1 00000000 00000000 A   T    3952  3952
 ILRJTERM      1 00000000 00000000 A   T    3894  3894
 IOSVDEVN      1 00000000 00000000 A   T    3911  3911
 IOSVHID       1 00000000 00000000 A   T    3921  3921
 IOSVSUCB      1 00000000 00000000 A   T    3924  3924
 IRARMCNS      1 00000000 00000000 A   T    3665  3665
 IRARMEPS      1 00000000 00000000 A   T    3883  3883
 IRARMI00      1 00000000 00000000 A   T    3622  3622
 ISNBRNCH      1 00000000 00000000 A   T    3780  3780
 LOCALTOD      1 00000000 0000000A     T    9255  9255
 LOWTBL        1 00000000 00000000 A   T    1412  1412
 LSR          11 0000000B 00000001 A   #    1082  4850   4870   4926M  4950   4970   4994M  5021   5041   5180M  5274
                                                  5294   5414M  5439   5459   5746M  5803   5823   6381M  6408   6428
                                                  6568M  6629   6649   7278M  7330   7350   8056M  8078   8098   9232M
                                                  9319   9339   9534M  9561   9581   9691M  9741   9761   9816M  9845
                                                  9865   9887M  9916   9936  10189M 10217  10237  11648M
 MILCNTL       1 00000049 FFFFFFEC A   U    2474  6319
 MILVIRT       1 00000000 00000001     J     999  1001   1026   1039   1052   1065   1078   1090   1103   1125   1138
                                                  4257   4351   4572   4778   4828   9708
 MODBUPLO      1 00000040 FFFFFFEC A   U    2508  9164
 MODBUPPR      1 00000080 FFFFFFEC A   U    2507  9170
 MODL          4 0000014C 00000001     F    5190  5249
 MODLPATH      4 0000014C 00000001     F    5189  5086
 NBLTBL        1 00000000 00000000 A   T    1416  1416
 NGETCORE      1 00000000 0000000C     T    9264  9264
 NPARTBL       1 00000000 00000000 A   T    1410  1410
 PATH          4 00000000 FFFFFFE8     F    2854  2913
1VIRT     (VIRT2047) (12:37) (15MAR04) Ordinary Symbol and Literal Cross Reference                                          Page   55
 PATHD        56 00000000 FFFFFFE8     J    2920  9363U
 PATHDOWN      4 00000F82 00000001     I    9515  9395B  9462B  9484B  9503B
 PATHECBF      4 00000020 FFFFFFE8     R    2877  9367
 PATHFCLS      1 00000080 FFFFFFE8 A   U    2879  9457   9481
 PATHFFQE      1 00000040 FFFFFFE8 A   U    2880  9388
 PATHMGC       4 00000000 FFFFFFE8     R    2856  9393   9408
 PATHRBAF      1 0000000C FFFFFFE8 A   U    2902  9705
 PATHRNOP      1 00000010 FFFFFFE8 A   U    2903  9263   9706
 PATHRPMW      1 00000008 FFFFFFE8 A   U    2901  9262
 PATHSEND      2 00000ED2 00000001     H    9312  7298
 PDB          56 00000000 FFFFFFEC     J    2575  5878U  6704U  7231   8756U  9044U  9174
 PDBBYT1       1 0000000E FFFFFFEC     X    2414  2446
 PDBBYT2       1 0000000F FFFFFFEC     X    2415  2452
 PDBCMD        1 00000006 FFFFFFEC     X    2401  6319M  6737   6761   6988   7003   7043   7201M  7218M  9056M  9147
 PDBCMDFL      1 00000007 FFFFFFEC     X    2402  2438   2438   2444
 PDBCPL        2 0000000C FFFFFFEC     X    2410  9057M  9148
 PDBCPLB       1 0000000D FFFFFFEC     X    2412  7229M
 PDBHDR       56 00000000 FFFFFFEC     X    2439  6317M  6317   6594   6598   6600   7304   8766M  8766   9054M  9054
                                                  9116   9279  11685
 PDBINCT       2 00000030 FFFFFFEC     H    2432  2436   2436   7045
 PDBLENG       2 00000000 FFFFFFEC     H    2395  6104M  6243M  6318M  6738   7193M  8767M  9117M  9149
 PDBLIN#       2 00000004 FFFFFFEC     H    2400  9055M
 PDBMODB       1 00000009 FFFFFFEC     X    2406  7044
 PDBOPT       49 00000007 FFFFFFEC     X    2438  7200M  7200
 PDBOUTCT      2 0000002E FFFFFFEC     H    2431  7046
 PDBSINP       4 00000010 FFFFFFEC     A    2417  2418
 PDBSTRT       4 00000000 FFFFFFEC     F    2394  2439   2439
 PDBTEXT       1 00000038 FFFFFFEC     C    2440  5883   6739   7098   9101   9150
 PDBVPGM       8 00000014 FFFFFFEC     C    2420  2426   2426
 PDBWC         2 00000032 FFFFFFEC     H    2433  6032   6121   6260   6342
 PIB         160 00000000 FFFFFFE1     J    4777  5627U  6173U  6456U  6677U  8473   8487U  8569   8863U 10531U
 PIBDFACT      5 00000021 FFFFFFE1     X    4607  8522M
 PIBFEBP       4 00000008 FFFFFFE1     A    4591  6460   6681   8568M
 PIBFLAG       1 00000064 FFFFFFE1     R    4624  4628   4633   4638   4643   4648
 PIBFLAG2      1 00000065 FFFFFFE1     R    4654  4658   4663   4668   4673
 PIBFLAG3      1 00000066 FFFFFFE1     R    4679  4683   4688   4693   4698   4703   4708
 PIBFLAG4      1 00000067 FFFFFFE1     R    4714  4718   4723   4728
 PIBFLAG5      1 00000068 FFFFFFE1     R    4734  4738   4743   4748
 PIBFPS      128 00000066 FFFFFFE1         4683  8503M
 PIBFPTID     64 00000066 FFFFFFE1         4688  8555M  8734M
 PIBGFLG       1 00000018 FFFFFFE1     R    4597  4601
 PIBLOC       20 00000050 FFFFFFE1     C    4620  8548M  8549M
 PIBNAME       8 00000034 FFFFFFE1     C    4618  4753   4753   8527M  8543
 PIBNIO        4 0000007C FFFFFFE1     F    4760  7013   7014M
 PIBNO         2 00000004 FFFFFFE1     H    4589  6734   6807   7042   7130   8497M  8906   9144
 PIBR         10 0000000A 00000001 A   #    1057  5603M  5604M  5604   5627U  5656   5664M  5664   6152M  6155M  6156M
                                                  6156   6173U  6447M  6456U  6668M  6677U  6819   6865   6869M  6869
                                                  8478M  8487U  8567   8832M  8833M  8833   8863U 10516M 10517M 10517
                                                 10531U 10557
 PIBSCBP       4 0000000C FFFFFFE1     A    4592  5640   6780   6802M  8867  10643
 PIBTRCP       4 00000090 FFFFFFE1     A    4767  6182   6189   6207   6226   6842M  6842   6849   7148   8559   8924
 PIBUC         2 00000030 FFFFFFE1     H    4615  4765   4765
 PROCCLS       2 00000F9C 00000001     H    9554  7490B  8264B
 PROCCLSZ      2 00000F9A 00000001     H    9548  7879B  8355B  8820B  8847B  8971B  9019B  9078B
 PROCLOOP      2 00000A16 00000001     H    8119  8794B  9193B
 PROCRQST      2 000009FC 00000001     H    8071  8005B
 RAR          14 0000000E 00000001 A   #    1130  1591B  1601B  4847   4879M  4880M  4880B  4928M  4932B  4947   4996M
                                                  5000B  5018   5182M  5186B  5271   5416M  5420B  5436   5650M  5651M
                                                  5651B  5659M  5660M  5660B  5716M  5717M  5717B  5721M  5722M  5722B
1VIRT     (VIRT2047) (12:37) (15MAR04) Ordinary Symbol and Literal Cross Reference                                          Page   56
                                                  5748M  5752B  5800   5898M  5910   5927   5934M  5939M  5940M  5941M
                                                  5941   5942B  5959   5969M  5969   5974M  5975M  5975   5976B  6308M
                                                  6309M  6309B  6383M  6387B  6405   6570M  6574B  6626   6718M  6805M
                                                  6806M  6806B  6852M  6853M  6853B  6872M  6873M  6873B  6943M  6944M
                                                  6944B  6958M  6959M  6959B  7114M  7150M  7180M  7181M  7181B  7234M
                                                  7235M  7235B  7280M  7284B  7327   7490M  7651M  7652M  7652B  7667M
                                                  7668M  7668B  7672M  7673M  7673B  7713M  7714M  7714B  7879M  7935M
                                                  7936M  7936B  8005M  8031M  8032M  8032B  8058M  8062B  8075   8264M
                                                  8355M  8417   8420M  8421M  8421B  8476M  8477M  8477B  8546M  8547M
                                                  8547B  8562M  8563M  8563B  8573M  8574M  8574B  8771M  8772M  8772B
                                                  8820M  8847M  8890M  8926M  8971M  9019M  9078M  9128M  9177M  9178M
                                                  9178B  9234M  9238B  9316   9536M  9540B  9558   9646M  9647M  9652
                                                  9693M  9697B  9738   9792M  9793M  9793B  9818M  9822B  9842   9889M
                                                  9893B  9913   9991M  9992M  9992B 10007M 10008M 10008B 10033M 10034M
                                                 10034B 10051M 10052M 10052B 10067M 10068M 10068B 10099M 10100M 10100B
                                                 10137M 10138M 10138B 10163M 10164M 10164B 10191M 10195B 10214  10292M
                                                 10293M 10293B 10308M 10309M 10309B 10334M 10335M 10335B 10352M 10353M
                                                 10353B 10368M 10369M 10369B 10400M 10401M 10401B 10438M 10439M 10439B
                                                 10464M 10465M 10465B 10551M 10552M 10552B 10573M 10574M 10574B 10588M
                                                 10589M 10589B 10610M 10611M 10611B 10632M 10633M 10633B 10676M 10677M
                                                 10677B 10701M 10702M 10702B 10716M 10717M 10717B 10741M 10742M 10742B
                                                 10777M 10778M 10778B 10796M 10797M 10797B 10831M 10832M 10832B 10874M
                                                 10875M 10875B 10902M 10903M 10903B 10920M 10921M 10921B 10995M 10996M
                                                 10996B 11017M 11018M 11018B 11048M 11049M 11049B 11087M 11088M 11088B
                                                 11109M 11110M 11110B 11141M 11142M 11142B 11183M 11184M 11184B 11198M
                                                 11199M 11199B 11225M 11226M 11226B 11244M 11245M 11245B 11263M 11264M
                                                 11264B 11285M 11286M 11286B 11319M 11320M 11320B 11366M 11367M 11367B
                                                 11397M 11398M 11398B 11424M 11425M 11425B 11450M 11451M 11451B 11478M
                                                 11479M 11479B 11497M 11498M 11498B 11512M 11513M 11513B 11557M 11558M
                                                 11558B 11588M 11589M 11589B 11650M 11654B
 RMBRANCH      1 00000000 00000000 A   T    3790  3790
 RQST         18 00000000 FFFFFFE3     J    4350  6924U  6940   7030U  7131   7166   7177   8174U  8295M  8295   8907
                                                  8942   9596U
 RQSTCMD       1 00000008 FFFFFFE3     X    4326  6937M  7043M  7061   8347   8991   9028M  9056
 RQSTCMFL      1 00000009 FFFFFFE3     X    4327  4339   4339   8405
 RQSTCPL       2 0000000C FFFFFFE3     X    4332  9057
 RQSTHDR      18 00000000 FFFFFFE3     X    4341  6934M  6934   7040M  7040   7101   7302   9280   9281   9641
 RQSTINCT      2 00000010 FFFFFFE3     H    4337  7045M  8391M  8391   8399
 RQSTLEN       2 00000000 FFFFFFE3     H    4320  4341   4341   6935M  7103M  8288M  8963   9086
 RQSTMODB      1 0000000A FFFFFFE3     X    4329  7044M
 RQSTOUCT      2 0000000E FFFFFFE3     H    4336  7047M  7076M  7102   8392M  8400   9058
 RQSTPNO       2 00000006 FFFFFFE3     H    4324  6936M  7042M  8800
 RQSTRSV       2 00000004 FFFFFFE3     H    4323  4340   4340
 RQSTTEXT      1 00000012 FFFFFFE3     X    4343  7048   9113
 R0            0 00000000 FFFFFFFF A   #     706  1592M  1593M  1594   1596M  1597   4876M  5386M  5387M  5389   5898
                                                  7098M  7099M  7100M  7427M  7428M  7430   7653   7662M  7937   7939M
                                                  7941M  7942M  7954   7970M  7971M  7973   8159M  8160M  8162   8307M
                                                  8308M  8310   8405M  8406M  8407   8408M  8434M  8435   8436M  8441M
                                                  8473M  8536M  8536   8557M  8570M  9113M  9114M  9115M  9393M  9394M
                                                  9394   9663M  9664M  9666   9982M  9998M 10024M 10042M 10042  10058M
                                                 10090M 10128M 10154M 10154  10283M 10299M 10325M 10343M 10343  10359M
                                                 10391M 10429M 10455M 10455  10542M 10564M 10579M 10601M 10601  10623M
                                                 10623  10667M 10692M 10707M 10732M 10768M 10787M 10787  10822M 10822
                                                 10865M 10893M 10911M 10985M 11039M 11078M 11100M 11100  11132M 11174M
                                                 11189M 11216M 11235M 11254M 11254  11276M 11276  11310M 11357M 11388M
                                                 11415M 11441M 11441  11469M 11488M 11488  11503M 11548M 11579M 11579
 R1            1 00000001 FFFFFFFF A   #     719  4881   4903M  5047   5108M  5109   5110M  5111   5112M  5113   5300
                                                  5384M  5385M  5387   5465   5640M  5641M  5641   5656M  5713M  5829
                                                  6305M  6434   6655   6716M  6793M  6865M  6939M  6955M  7112M  7148M
1VIRT     (VIRT2047) (12:37) (15MAR04) Ordinary Symbol and Literal Cross Reference                                          Page   57
                                                  7176M  7230M  7356   7408M  7418M  7428   7653   7663M  7701   7702
                                                  7937   7968M  7969M  7971   8028M  8140M  8150M  8160   8272M  8272
                                                  8287M  8287   8288   8305M  8306M  8308   8409M  8428   8434   8435M
                                                  8436   8478   8543M  8558M  8569M  8575   8768M  8829M  8888M  8924M
                                                  9126M  9173M  9345   9661M  9662M  9664   9767   9789M  9942   9975M
                                                  9997M 10019M 10038M 10057M 10089M 10127M 10243  10276M 10298M 10320M
                                                 10339M 10358M 10390M 10428M 10557M 10578M 10597M 10666M 10687M 10706M
                                                 10727M 10767M 10783M 10858M 10886M 10910M 10985M 11034M 11071M 11131M
                                                 11167M 11188M 11209M 11234M 11250M 11309M 11356M 11387M 11407M 11468M
                                                 11484M 11502M 11543M
 R13          13 0000000D FFFFFFFF A   #     875  8205   9413
 R14          14 0000000E FFFFFFFF A   #     888  7048M  7077M  7091M  7099   7100M  8441M  9101M  9106M  9114   9115M
 R15          15 0000000F FFFFFFFF A   #     901  1589M  1590M  1590   1592   1597M  1600M  1600   4907M  4907   4931M
                                                  4931   4999M  4999   5142M  5142   5185M  5185   5383M  5386   5389M
                                                  5419M  5419   5668M  5669M  5670   5705M  5706M  5707   5727M  5727
                                                  5751M  5751   5868   5994M  5999M  6004M  6013M  6013   6130M  6142
                                                  6151M  6155   6386M  6386   6573M  6573   6694   6729U  6849M  6876M
                                                  6877M  6878   6940M  7012M  7013M  7014   7075M  7076   7101M  7102M
                                                  7103   7125U  7160U  7177M  7231M  7283M  7283   7407M  7408   7409M
                                                  7411   7426M  7427   7430M  7447M  7448   7478M  7478   7531M  7531
                                                  7546   7580M  7580   7595   7631M  7631   7658M  7659M  7660   7664M
                                                  7685M  7695U  7967M  7970   7973M  8061M  8061   8139M  8140   8141M
                                                  8143   8158M  8159   8162M  8178M  8179   8215M  8215   8236   8250
                                                  8304M  8307   8310M  8316M  8317M  8318   8440M  8440   8494M  8495M
                                                  8496   8532M  8559M  8565M  8566M  8567   8746M  8756U  8800M  8812
                                                  8828M  8832   8901U  8936U  9086M  9087M  9091   9093   9116M  9117
                                                  9139U  9174M  9237M  9237   9346   9423M  9423   9443   9500   9515M
                                                  9539M  9539   9550M  9550   9622M  9622   9633   9660M  9663   9666M
                                                  9696M  9696   9797M  9797   9821M  9821   9892M  9892   9955   9988M
                                                 10004M 10030M 10048M 10064M 10096M 10134M 10160M 10194M 10194  10256
                                                 10289M 10305M 10331M 10349M 10365M 10397M 10435M 10461M 10548M 10570M
                                                 10585M 10590M 10591M 10592M 10597  10607M 10629M 10673M 10698M 10713M
                                                 10738M 10774M 10793M 10828M 10871M 10899M 10917M 10992M 11014M 11045M
                                                 11084M 11106M 11138M 11180M 11195M 11222M 11241M 11260M 11282M 11316M
                                                 11363M 11394M 11421M 11447M 11475M 11494M 11509M 11554M 11585M 11653M
                                                 11653
 R2            2 00000002 FFFFFFFF A   #     732  6050M  6082M  6181M  6213M  6807M  6808M  6809M  7046M  7047   7067
                                                  7091   8412   8417M  8425M  9058M  9070   9091   9093M  9106   9346M
                                                  9368  10756M 10783  11452M 11453M 11484  11516  11528M 11548
 R3            3 00000003 FFFFFFFF A   #     745  6051M  6058M  6068   6075M  6076M  6095   6182M  6189M  6199   6206M
                                                  6207M  6226
 R4            4 00000004 FFFFFFFF A   #     758  6068   6199  10923M 10930M 10940  10947M 10948M 10962U 11603
 R5            5 00000005 FFFFFFFF A   #     771  5598M  5599M  5603   6051M  6075   6182M  6206   8453M  8453   8467
                                                  8497   8532   8565   8773M  9367M 10486M 10489  10501  10590  10842M
                                                 10940
 R6            6 00000006 FFFFFFFF A   #     784  5578M  5578   5592   5598   5600M  5883M  5893U  6914M  6924U  7020M
                                                  7030U  8449M  9034M  9044U  9345M  9363U 10487M 10488M 10489M 10501
                                                 10923M 10947
 R7            7 00000007 FFFFFFFF A   #     797  5562M  5563M  5563   5868M  5878U  6694M  6704U  7439M  7468   8164M
                                                  8174U  8178   9596U  9955M  9965U  9988  10004  10030  10048  10064
                                                 10096  10134  10160  10256M 10266U 10289  10305  10331  10349  10365
                                                 10397  10435  10461  10548  10570  10585  10607  10629  10673  10698
                                                 10713  10738  10774  10793  10828  10871  10899  10917  11014  11045
                                                 11084  11106  11138  11180  11195  11222  11241  11260  11282  11316
                                                 11363  11394  11421  11447  11475  11494  11509  11554  11585
 SCB         434 00000000 FFFFFFED     J    2377  6443U  6664U  7230   8570   8584U  8768   8876U  9173  10658U
 SCBACCT       5 00000124 FFFFFFED     C    1969  2132   2132   6736   9146
 SCBACLCK      8 000000E8 FFFFFFED     D    1811  1813   1813
 SCBAFLAG      1 000000CC FFFFFFED     R    1768  1772   1777   1782   1787
1VIRT     (VIRT2047) (12:37) (15MAR04) Ordinary Symbol and Literal Cross Reference                                          Page   58
 SCBANO        2 00000129 FFFFFFED     X    1972 10756
 SCBASCBP      4 00000130 FFFFFFED     A    2131  8589M
 SCBBFLAG      1 000000CD FFFFFFED     R    1793  1797
 SCBCMD        1 000000B3 FFFFFFED     X    1733  7218   9028
 SCBCRI        2 000001A4 FFFFFFED     H    2359  2364   2364
 SCBFLG        1 00000168 FFFFFFED     R    2247  2251   2256   2261   2266   2271   2276   2281   2286
 SCBFLG2       1 00000169 FFFFFFED     R    2292  2296   2301   2306
 SCBFNTIM     16 0000015E FFFFFFED         2200  6479M
 SCBFTRC     128 0000015F FFFFFFED         2230  8658M  8702M
 SCBGRP        2 00000127 FFFFFFED     C    1971 10687  10692
 SCBHEIP       2 0000018A FFFFFFED     H    2346  6486M  6486
 SCBID         4 000000F4 FFFFFFED     F    1818  6735   9145
 SCBINMX       2 0000016A FFFFFFED     H    2310  6507   6509M  8590M
 SCBKAFL       1 0000012F FFFFFFED     R    2103  2107   2112   2117   2122   2127
 SCBKIFL       1 0000012E FFFFFFED     R    2058  2062   2067   2072   2077   2082   2087   2092   2097
 SCBMODB       1 000000B5 FFFFFFED     X    1737  9166M  9172M
 SCBNO         2 000000F8 FFFFFFED     H    1819  9055
 SCBOFLAG      1 00000186 FFFFFFED     R    2317  2321   2326   2331   2336   2341
 SCBOPST       4 00000134 FFFFFFED     F    2137  2366   2366
 SCBOUMX       2 0000016C FFFFFFED     H    2311  6533   6535M  8591M
 SCBPIBP       4 00000008 FFFFFFED     A    1632  6447   6668
 SCBQFLG       1 0000015C FFFFFFED     R    2166  2170
 SCBR          9 00000009 00000001 A   #    1044  6434M  6443U  6655M  6664U  6780   6793   6797M  6797   8575M  8584U
                                                  8867M  8876U 10643M 10644M 10644  10658U
 SCBSFLG       1 0000012B FFFFFFED     R    1976  1980   1985   1990   1995   2000   2005
 SCBSFNAR     64 0000012B FFFFFFED         1985  8649   8649   8651   8651   8693   8693   8695   8695
 SCBSFNAT    128 0000012B FFFFFFED         1980  8649   8649   8650   8650   8652M  8693   8693   8694   8694   8696M
 SCBSFPS      32 0000012B FFFFFFED         1990  8650   8650   8651   8651   8694   8694   8695   8695
 SCBSTART      4 000000F4 FFFFFFED     F    1817  1821   1821   2133   2133   2238   2238
 SCBSTAT       1 000000FF FFFFFFED     R    1913  1917   1922   1927   1932   1937   1942   1947
 SCBTACF       1 0000012C FFFFFFED     R    2011  2015   2020   2025   2030   2035   2040   2045   2050
 SCBTASYN      2 000000FC FFFFFFED         1845  8740M
 SCBTFAIO     32 000000B0 FFFFFFED         1669  9010   9010
 SCBTFIO      64 000000B0 FFFFFFED         1664  7211   9010   9010   9011
 SCBTFLAG      1 0000015A FFFFFFED     R    2144  2148   2153   2158
 SCBTFLG       1 000000B0 FFFFFFED     R    1655  1659   1664   1669   1674   1679   1684
 SCBTFLG2      1 000000B1 FFFFFFED     R    1690  1694   1699   1704   1709   1714
 SCBTFLG3      1 000000B8 FFFFFFED     R    1743  1747   1752
 SCBTID        8 0000014A FFFFFFED     C    2140  8660M  8704M
 SCBTINFO      2 000000FD FFFFFFED     X    1909  8661M  8705M
 SCBTTYPE      8 0000018E FFFFFFED     C    2349  8659M  8703M
 SCBTYPE       1 000000FC FFFFFFED     R    1826  1835   1845   1855   1865   1875   1885   1895   1905
 SCBUFLG       1 0000015E FFFFFFED     R    2181  2185   2190   2195   2200   2205   2210   2215   2220
 SCBUFLG2      1 0000015F FFFFFFED     R    2226  2230   2235
 SCBUSER       3 00000124 FFFFFFED     C    1970 10727  10732
 SCBVPGM       8 0000010C FFFFFFED     C    1959  1965   1965
 SCBXFLG       1 000000B2 FFFFFFED     R    1720  1724   1729
 SCB1ST        4 000000FC FFFFFFED     F    1823  2368   2368
 SCNCB         4 00000000 FFFFFFEA     F    2717  2728
 SEG           1 00000000 00000017     T   11671 11671
 SEGB          1 00000000 00000012     T   11666 11666
 SEGCB        60 00000000 FFFFFFE9     J    2841  9965U 10266U
 SEGCBCOD      1 00000000 FFFFFFE9     R    2752  2761   2771   2781   2791   2801   2811   2821
 SEGCBINDF
               4 00000010 FFFFFFE9     A    2828 10922M 11623M 11623
 SEGCOL        1 00000000 00000016     T   11670 11670
 SEGDC         1 00000000 00000014     T   11668 11668
 SEGHX         1 00000000 00000011     T   11665 11665
 SEGT          1 00000000 00000019     T   11677 11677
1VIRT     (VIRT2047) (12:37) (15MAR04) Ordinary Symbol and Literal Cross Reference                                          Page   59
 SEGTB         1 00000000 00000013     T   11667 11667
 SEGWR         1 00000000 00000015     T   11669 11669
 SPR          13 0000000D 00000001 A   #    1108  4847   4850   4866M  4868   4868   4869   4869   4870   4923M  4923
                                                  4926   4928   4930   4930   4947   4950   4966M  4968   4968   4969
                                                  4969   4970   4991M  4991   4994   4996   4998   4998   5018   5021
                                                  5037M  5039   5039   5040   5040   5041   5177M  5177   5180   5182
                                                  5184   5184   5271   5274   5290M  5292   5292   5293   5293   5294
                                                  5411M  5411   5414   5416   5418   5418   5436   5439   5455M  5457
                                                  5457   5458   5458   5459   5743M  5743   5746   5748   5750   5750
                                                  5800   5803   5819M  5821   5821   5822   5822   5823   6378M  6378
                                                  6381   6383   6385   6385   6405   6408   6424M  6426   6426   6427
                                                  6427   6428   6565M  6565   6568   6570   6572   6572   6626   6629
                                                  6645M  6647   6647   6648   6648   6649   7275M  7275   7278   7280
                                                  7282   7282   7327   7330   7346M  7348   7348   7349   7349   7350
                                                  7435M  7437   7437   7438   7438   7439   7485M  7485   7488   7488
                                                  7644M  7644   7647   7647   8053M  8053   8056   8058   8060   8060
                                                  8075   8078   8094M  8096   8096   8097   8097   8098   8412   8413M
                                                  8415   8415   8416   8416   8423M  8423   8425   8427   8427   9229M
                                                  9229   9232   9234   9236   9236   9316   9319   9335M  9337   9337
                                                  9338   9338   9339   9531M  9531   9534   9536   9538   9538   9558
                                                  9561   9577M  9579   9579   9580   9580   9581   9688M  9688   9691
                                                  9693   9695   9695   9738   9741   9757M  9759   9759   9760   9760
                                                  9761   9813M  9813   9816   9818   9820   9820   9842   9845   9861M
                                                  9863   9863   9864   9864   9865   9884M  9884   9887   9889   9891
                                                  9891   9913   9916   9932M  9934   9934   9935   9935   9936  10186M
                                                 10186  10189  10191  10193  10193  10214  10217  10233M 10235  10235
                                                 10236  10236  10237  10988M 10990  10990  10991  10991  10992  11020M
                                                 11020  11023  11023  11645M 11645  11648  11650  11652  11652
 STOPCHK       1 00000000 00000006     T    5765  5765
 SUBSEND       1 00000000 00000009     T    7300  7300   9271
 SUBSTART      1 00000000 00000010     T    9269  9269
 TMILEOS       1 00000040 FFFFFFEC A   U    2463  6761
 TMILINIT      1 00000021 FFFFFFEC A   U    2457  8347
 TMILREAD      1 00000042 FFFFFFEC A   U    2467  7003   7061  11346
 TMILWRIT      1 00000041 FFFFFFEC A   U    2466  6988  11299
 UPPTBL        1 00000000 00000000 A   T    1411  1411
 VCTLBF        4 00000394 00000001     I    5999  6035B  6124B  6263B  6326B  6345B  6351B
 VCTLMAX       1 00000002 00000001 A   N    5981  5983   5983   6585
 VCTLOK        2 000003A4 00000001     H    6011  6105B  6244B  6320B
 VCTLPMAX      1 00000066 00000001 A   N    5988  5990   5990   6584
 VCTLPTBL      4 00000380 00000001     A    5985  5941   5988
 VCTLRC12      4 0000039C 00000001     I    6004  6145B  6157B
 VCTLTBL       4 00000374 00000001     A    5978  5975   5981
 VCTL0         4 0000038C 00000001     I    5994  5978   5985
 VCTL1         2 000003AA 00000001     H    6022  5979
 VCTL101       2 00000468 00000001     H    6250  5986
 VCTL102       2 000004A4 00000001     H    6332  5987
 VCTL2         2 000003FA 00000001     H    6111  5980
 VIRTCLS       2 000001FA 00000001     H    5432  6586   7299   9260  11664
 VIRTCMD       2 000010D2 00000001     H    9909  9905
 VIRTCNTL      2 00000300 00000001     H    5796  5792
 VIRTDEF       2 00000018 00000001     H    4843  4839   9257
 VIRTDIE       2 000010A4 00000001     H    9838  9834
 VIRTDO        2 00000572 00000001     H    6622  6618
 VIRTERR       2 00001062 00000001     H    9734  9730
 VIRTFIN       2 000000A6 00000001     H    5014  5010   9258
 VIRTFMT       2 0000118C 00000001     H   10210 10206
 VIRTPORT      2 00000066 00000001     H    4943  4939
 VIRTPOST      2 000007C8 00000001     H    7323  7319
1VIRT     (VIRT2047) (12:37) (15MAR04) Ordinary Symbol and Literal Cross Reference                                          Page   60
 VIRTUPD       2 000004C6 00000001     H    6401  6397
 VIRTXCLS      2 00000184 00000001     H    5267  5263
 VIRT2047      1 00000000 00000001     R    1008  1006
 VPATSUBP      1 00000026 00000001 A   U    4288  8409
 VTRC         82 00000000 FFFFFFE0     J    4827  6081   6082   6593   6594   6729U  7125U  7662   8901U  9139U 10962U
 VTRC#         1 00000019 00000001 A   U    4781  6592   6594   7663
 VTRCCLCK      8 00000000 FFFFFFE0     D    4796  4802   4802   4804  10976M 10976  10985
 VTRCCMD       1 0000001D FFFFFFE0     X    4813  6737M  9147M 11299  11346  11407
 VTRCCPL       2 0000001E FFFFFFE0     X    4814  9148M
 VTRCDATA      1 00000012 FFFFFFE0     U    4807  4810   4819
 VTRCNAME      8 00000008 FFFFFFE0     C    4805 11034  11039  11062
 VTRCP        34 00000000 FFFFFFE0     X    4802  6212   6213   6597   6598   7160U  8557   8936U
 VTRCP#        1 00000005 00000001 A   U    4782  6596   6598   8558
 VTRCPNO       2 00000010 FFFFFFE0     H    4806  6734M  7130M  8906M  9144M 11071
 VTRCPRQS     24 0000000A FFFFFFE0     X    4801  7166M  8942M
 VTRCPTYP      1 00000008 FFFFFFE0     C    4799  7165M  8941M
 VTRCRQST     64 00000012 FFFFFFE0     X    4820  7131M  8907M
 VTRCSACC      5 00000018 FFFFFFE0     C    4812  6736M  9146M 11121M 11121  11167  11209
 VTRCSID       4 00000014 FFFFFFE0     F    4811  6735M  9145M 11250
 VTRCTEXT     20 00000022 FFFFFFE0     C    4816  6739M  9150M 11543  11676
 VTRCTLEN      2 00000020 FFFFFFE0     H    4815  6738M  9149M 11452
 =A(CVBUFLEN-4)
               4 00000E58 00000001     A    9261  8187
 =A(L'VTRCTEXT)
               4 00001568 00000001     A   11676 11516  11528
 =A(MILVIRT)
               4 00001044 00000001     A    9708  9646
 =A(PATHRBAF)
               4 00001020 00000001     A    9705  9443
 =A(PATHRNOP)
               4 00000E60 00000001     A    9263  8250
 =A(PATHRNOP)
               4 00001024 00000001     A    9706  9500
 =A(PATHRPMW)
               4 00000E5C 00000001     A    9262  8236
 =A(PATHSEND)
               4 000007B4 00000001     A    7298  6943   7180
 =A(VCTLMAX)
               4 00000548 00000001     A    6585  5959
 =A(VCTLPMAX)
               4 00000544 00000001     A    6584  5927
 =A(VIRTCLS)
               4 0000054C 00000001     A    6586  6308
 =A(VIRTCLS)
               4 000007B8 00000001     A    7299  6958
 =A(VIRTCLS)
               4 00000E54 00000001     A    9260  8031
 =A(VIRTCLS)
               4 00001538 00000001     A   11664  9792
 =A(VIRTDEF)
               4 00000E48 00000001     A    9257  7672
 =A(VIRTFIN)
               4 00000E4C 00000001     A    9258  7713
 =A(100)       4 00000540 00000001     A    6583  5910
 =A(25)        4 00001558 00000001     A   11672 10922
 =A(4096)      4 00000E7C 00000001     A    9270  9070
 =A(5)         4 00000E50 00000001     A    9259  7954
 =AL2(L'FDBT1)
               2 00000558 00000001     R    6591  6032
1VIRT     (VIRT2047) (12:37) (15MAR04) Ordinary Symbol and Literal Cross Reference                                          Page   61
 =AL2(L'FDBT101)
               2 00000568 00000001     R    6599  6260
 =AL2(L'FDBT102)
               2 0000056C 00000001     R    6601  6342
 =AL2(L'FDBT2)
               2 00000560 00000001     R    6595  6121
 =AL2(L'PDBHDR)
               2 00000E92 00000001     R    9279  8767
 =AL2(L'RQSTHDR)
               2 000007C2 00000001     R    7302  6935
 =AL2(L'RQSTHDR)
               2 00000E94 00000001     R    9280  8963
 =C'  virtual'
               9 000015A4 00000001     C   11686  9997
 =C'  VIRTUAL'
               9 000015C4 00000001     C   11690 10298
 =C' ports '
               7 000015AD 00000001     C   11687 10057
 =C' PORT#'
               6 0000158E 00000001     C   11681 10578
 =C' PORTS '
               7 000015CD 00000001     C   11691 10358
 =C'.'         1 000015E1 00000001     C   11693 10706  11188
 =C'** Invalid **'
              13 000015B7 00000001     C   11689 10127
 =C'** INVALID **'
              13 000015D4 00000001     C   11692 10428
 =C'** Not-open **'
              14 00001572 00000001     C   11679 10089
 =C'** NOT-OPEN **'
              14 00001580 00000001     C   11680 10390
 =C'-----'
               5 000015E3 00000001     C   11695 11131
 =C', TEXT='
               7 000015F5 00000001     C   11699 11502
 =C','         1 000015E8 00000001     C   11696 11234
 =C'#'         1 000015E2 00000001     C   11694 10767
 =C'CMD='      4 00001564 00000001     C   11675 11387
 =C'FEB'       3 000002F6 00000001     C    5767  5073   5327   5492
 =C'FEB'       3 0000056E 00000001     C    6602  5855
 =C'FEB'       3 000015B4 00000001     C   11688 10116  10417
 =C'HASPSERV JOBACCT failed in VIRT:'
              32 00000DF0 00000001     C    9248  7590
 =C'HASPSERV JOBNAME failed in VIRT:'
              32 00000DD0 00000001     C    9247  7541
 =C'LENGTH='
               7 000015EE 00000001     C   11698 11468
 =C'READ:'
               5 000015E9 00000001     C   11697 11356
 =C'REAL'      4 00000E6C 00000001     C    9266  8515   8722
 =C'REALPAT'
               7 00000EB4 00000001     C    9286  7849
 =C'RLG'       3 00000EC4 00000001     C    9290  8678
 =C'RLGPATH'
               7 00000E98 00000001     C    9282  7760   7869
 =C'SESSION:'
               8 00001530 00000001     C   11663 10666
 =C'TRACE:'
               6 00001594 00000001     C   11682 10910
1VIRT     (VIRT2047) (12:37) (15MAR04) Ordinary Symbol and Literal Cross Reference                                          Page   62
 =C'Virtual terminal fullQ'
              22 0000104A 00000001     C    9710  9476
 =C'Virtual terminal path error:'
              28 00001028 00000001     C    9707  9613
 =C'VAM'       3 000002F9 00000001     C    5768  5356
 =C'VAM'       3 00000EBB 00000001     C    9287  8379   8606
 =C'VAMPATH'
               7 00000EA6 00000001     C    9284  7809
 =C'VFE'       3 000002FC 00000001     C    5769  5370
 =C'VFE'       3 00000EBE 00000001     C    9288  8620
 =C'VFEPATH'
               7 00000E9F 00000001     C    9283  7789
 =C'VIRT'      4 00001560 00000001     C   11674 11062
 =C'WRITE:'
               6 0000159C 00000001     C   11684 11309
 =C'WYL'       3 00000EC1 00000001     C    9289  8634
 =C'WYLPATH'
               7 00000EAD 00000001     C    9285  7829
 =CL12'Job ????'
              12 00000E34 00000001     C    9254  7622
 =CL8'RQSTFROM'
               8 00000E20 00000001     C    9251  8891
 =CL8'RQSTTO'
               8 000007A0 00000001     C    7294  7115
 =CL8'VIR'
               8 00000E18 00000001     C    9250  8660   8704
 =CL8'VIRTDO'
               8 00000798 00000001     C    7293  6719
 =CL8'VIRTPOST'
               8 00000E28 00000001     C    9252  9129
 =CL8'VIRTUAL'
               8 000002D8 00000001     C    5760  4895
 =CL8'VIRTUAL'
               8 00000E10 00000001     C    9249  8659   8703
 =F'20'        4 00000E30 00000001     F    9253  7450
 =H'-1'        2 000007C4 00000001     H    7303  6936
 =H'-4'        2 00000556 00000001     H    6590  5999
 =H'-4'        2 00001060 00000001     H    9711  9515
 =H'-8'        2 00000554 00000001     H    6589  5994
 =H'1'         2 00000E8A 00000001     H    9275  8406
 =H'168'       2 00000E88 00000001     H    9274  8392
 =V(BTD)       4 00000E70 00000001     V    9267  8546
 =V(DISCSESS)
               4 000002E4 00000001     V    5762  5650
 =V(FMTTIME)
               4 0000155C 00000001     V   11673 10995
 =V(FREEFEB)
               4 000002EC 00000001     V    5764  5716
 =V(FREEPIB)
               4 000002E8 00000001     V    5763  5659
 =V(FREEPIB)
               4 000007B0 00000001     V    7297  6872
 =V(FREESCB)
               4 000007A8 00000001     V    7295  6805
 =V(FREETRC)
               4 000007AC 00000001     V    7296  6852
 =V(GETFEB)
               4 000002E0 00000001     V    5761  4879
 =V(GETPIB)
1VIRT     (VIRT2047) (12:37) (15MAR04) Ordinary Symbol and Literal Cross Reference                                          Page   63
               4 00000E68 00000001     V    9265  8476
 =V(GETSCB)
               4 00000E74 00000001     V    9268  8573
 =V(GETTRC)
               4 00000E44 00000001     V    9256  7667   8562
 =V(LOCALTOD)
               4 00000E40 00000001     V    9255  7651   7935
 =V(NGETCORE)
               4 00000E64 00000001     V    9264  8420
 =V(SEG)       4 00001554 00000001     V   11671 10588  10701  10716  10741  10777  11141  11183  11198  11225  11244
                                                 11319  11366  11397  11478  11512
 =V(SEGB)      4 00001540 00000001     V   11666 10007  10067  10099  10137  10308  10368  10400  10438  10632  10676
                                                 11017  11048  11109  11285  11450
 =V(SEGCOL)
               4 00001550 00000001     V   11670 10551
 =V(SEGDC)
               4 00001548 00000001     V   11668 10051  10352  10610  10796  11087  11263  11497
 =V(SEGHX)
               4 0000153C 00000001     V   11665  9991  10292  10573  11424
 =V(SEGT)      4 0000156C 00000001     V   11677 11557
 =V(SEGTB)
               4 00001544 00000001     V   11667 10033  10334
 =V(SEGWR)
               4 0000154C 00000001     V   11669 10163  10464  10831  10874  10902  10920  11588
 =V(STOPCHK)
               4 000002F0 00000001     V    5765  5721
 =V(SUBSEND)
               4 000007BC 00000001     V    7300  7234
 =V(SUBSEND)
               4 00000E80 00000001     V    9271  9177
 =V(SUBSTART)
               4 00000E78 00000001     V    9269  8771
 =X'81C0'      2 00000E90 00000001     X    9278  8705
 =X'8188'      2 00000E8E 00000001     X    9277  8661
 =Y(L'PDBHDR+L'FDBF1+VTRC#*L'VTRC)
               2 0000055E 00000001     Y    6594  6104
 =Y(L'PDBHDR+L'FDBF2+VTRCP#*L'VTRCP)
               2 00000566 00000001     Y    6598  6243
 =Y(L'PDBHDR)
               2 0000056A 00000001     Y    6600  6318
 =Y(L'PDBHDR)
               2 000007C6 00000001     Y    7304  7193
 =Y(L'PDBHDR)
               2 000015A2 00000001     Y   11685 11453
 =Y(L'RQSTHDR)
               2 00000E96 00000001     Y    9281  9087
 =Y(L'VTRC)
               2 0000055C 00000001     Y    6593  6049
 =Y(L'VTRCP)
               2 00000564 00000001     Y    6597  6179
 =Y(VTRC#)
               2 0000055A 00000001     Y    6592  6048
 =Y(VTRCP#)
               2 00000562 00000001     Y    6596  6178
 =Y(0+((11+3)/4*4)+4)
               2 0000159A 00000001     Y   11683 10988
 =Y(0+((8+20+64+3)/4*4)+4)
               2 00000E86 00000001     Y    9273  7435
 =Y(0+4+4)
1VIRT     (VIRT2047) (12:37) (15MAR04) Ordinary Symbol and Literal Cross Reference                                          Page   64
               2 00000E8C 00000001     Y    9276  8413
 =Y(0+4+40+4)
               2 000002F4 00000001     Y    5766  4866   4966   5037   5290   5455
 =Y(0+4+40+4)
               2 00000550 00000001     Y    6587  5819   6424
 =Y(0+4+40+4)
               2 000007C0 00000001     Y    7301  6645
 =Y(0+4+40+4)
               2 00000E84 00000001     Y    9272  7346   8094
 =Y(0+4+40+4)
               2 00001048 00000001     Y    9709  9335   9577
 =Y(0+4+40+4)
               2 00001570 00000001     Y   11678  9757   9861   9932  10233
 =Y(100)       2 00000552 00000001     Y    6588  5939

1VIRT     (VIRT2047) (12:37) (15MAR04) Macro and Copy Code Source Summary                                                   Page   65
- Con Source                                        Volume    Members                        HLASM R4.0  2004/03/15 12.37
0     PRIMARY INPUT                                           CSECT    DROP     END      EX       LTORG    POP
                                                              PRINT    PUSH     START    USING
   L1 WYL.GS.MIL.MILTEN.MACLIB                      SYSB05    BTD      CV       FAIL     FEB      PEND     PIB      POP
                                                              PROC     PUSH     REG      SCANCB   SCB      STKDEF
                                                              SUBPOOLS XPROC    XTRACE
   L2 WYL.GG.SYS.MACLIB                             SYSB05    $BC      $BFLKUP  $BV      $CCLKUP  $CRS     $CSS     $L
                                                              $LA      $LBLAD   $LEXP    $LOR     $NIL     $OIL     $REL
                                                              $RGLKUP  $USLKUP  ACALL    BEGIN    CEIL     CLEAR
                                                              CSECT    DATA     DECR     DEFCC    DROP     ELSE
                                                              ELSEIF   END      EX       EXIT     FLAG     FLIP     GEN
                                                              HIBAL    IDENT    IF       INCR     LABEL    LC
                                                              LCALL    LCM      LOOP     LS       LT       LTORG    L2
                                                              MOVEL    PRINT    QLTORG   RECORD   REGS     SDL      SET
                                                              SETMSG   START    ST3      SYSLR    UNTIL    USING
                                                              VCALL    WHILE    WITH
   L3 SYS3.IS.MACLIB                                SYSB05    DEFINE   FDB      MIB      PDB      RQST     SEG      SEGB
                                                              SEGCB    SEGCOL   SEGDC    SEGDEF   SEGHX    SEGLD    SEGT
                                                              SEGTB    SEGWR    SIB      SYSDEFN  VIRTTRC
   L4 SYS3.MACLIB                                   SYSB02    HASPSERV PATH     QSNAP    SCOM
   L5 SYS1.MACLIB                                   MVSBR9    CVT

1VIRT     (VIRT2047) (12:37) (15MAR04) Dsect Cross Reference                                                                Page   66
-Dsect     Length      Id       Defn                                                         HLASM R4.0  2004/03/15 12.37
0$$$@R0   00000000  FFFFFFFE     712
 $$$@R1   00000000  FFFFFFFD     725
 $$$@R10  00000000  FFFFFFF4     842
 $$$@R11  00000000  FFFFFFF3     855
 $$$@R12  00000000  FFFFFFF2     868
 $$$@R13  0000004C  FFFFFFF1     881
 $$$@R14  00000000  FFFFFFF0     894
 $$$@R15  00000000  FFFFFFEF     907
 $$$@R2   00000000  FFFFFFFC     738
 $$$@R3   00000000  FFFFFFFB     751
 $$$@R4   00000000  FFFFFFFA     764
 $$$@R5   00000000  FFFFFFF9     777
 $$$@R6   00000000  FFFFFFF8     790
 $$$@R7   00000000  FFFFFFF7     803
 $$$@R8   00000000  FFFFFFF6     816
 $$$@R9   00000000  FFFFFFF5     829
 $$$RFDB  00000010  FFFFFFEB    2595
 $$$RFEB  00000118  FFFFFFE2    4356
 $$$RPATHD
          00000038  FFFFFFE8    2847
 $$$RPDB  00000038  FFFFFFEC    2383
 $$$RPIB  000000A0  FFFFFFE1    4577
 $$$RRQST 00000012  FFFFFFE3    4312
 $$$RSCANCB
          00000020  FFFFFFEA    2709
 $$$RSCB  000001B2  FFFFFFED    1618
 $$$RSEGCB
          0000003C  FFFFFFE9    2741
 $$$RVTRC 00000052  FFFFFFE0    4790
 CVDSECT  00000778  FFFFFFEE    1150
 CVT      00000500  FFFFFFE7    3118
 CVTVSTGX 00000050  FFFFFFE6    4138
 CVTXTNT1 0000000C  FFFFFFE5    4177
 CVTXTNT2 00000084  FFFFFFE4    4185
 HIBAL    00000000  FFFFFFFF     698

1VIRT     (VIRT2047) (12:37) (15MAR04) Using Map                                                                            Page   67
-                                                                                            HLASM R4.0  2004/03/15 12.37
   Stmt  -----Location----- Action ----------------Using----------------- Reg Max    Last  Label and Using Text
           Count      Id           Type          Value    Range     Id        Disp   Stmt
0   929  00000000  FFFFFFFF USING  ORDINARY    00000000 00001000 FFFFFFEF  15 008    6719  @R15,15
    933  00000000  FFFFFFFF USING  ORDINARY    00000000 00001000 FFFFFFF0  14 004    9647  @R14,14
    937  00000000  FFFFFFFF USING  ORDINARY    00000000 00001000 FFFFFFF1  13 004    9382  @R13,13
    941  00000000  FFFFFFFF USING  ORDINARY    00000000 00001000 FFFFFFF2  12 000          @R12,12
    945  00000000  FFFFFFFF USING  ORDINARY    00000000 00001000 FFFFFFF3  11 000          @R11,11
    949  00000000  FFFFFFFF USING  ORDINARY    00000000 00001000 FFFFFFF4  10 000          @R10,10
    953  00000000  FFFFFFFF USING  ORDINARY    00000000 00001000 FFFFFFF5   9 000          @R9,9
    957  00000000  FFFFFFFF USING  ORDINARY    00000000 00001000 FFFFFFF6   8 000          @R8,8
    961  00000000  FFFFFFFF USING  ORDINARY    00000000 00001000 FFFFFFF7   7 000    5603  @R7,7
    965  00000000  FFFFFFFF USING  ORDINARY    00000000 00001000 FFFFFFF8   6 001    5600  @R6,6
    969  00000000  FFFFFFFF USING  ORDINARY    00000000 00001000 FFFFFFF9   5 004   10842  @R5,5
    973  00000000  FFFFFFFF USING  ORDINARY    00000000 00001000 FFFFFFFA   4 000          @R4,4
    977  00000000  FFFFFFFF USING  ORDINARY    00000000 00001000 FFFFFFFB   3 000    6212  @R3,3
    981  00000000  FFFFFFFF USING  ORDINARY    00000000 00001000 FFFFFFFC   2 052    9353  @R2,2
    985  00000000  FFFFFFFF USING  ORDINARY    00000000 00001000 FFFFFFFD   1 00C    8832  @R1,1
    989  00000000  FFFFFFFF USING  ORDINARY    00000000 00001000 FFFFFFFE   0 000          @R0,0
    990  00000000  FFFFFFFF DROP                                            0              0
   1163  00000000  FFFFFFEE USING  ORDINARY    00000000 00001000 FFFFFFEE  12 750   10886  CV,CVR
   4862  00000022  00000001 USING  ORDINARY    00000022 00001000 00000001   8 2D2    4895  $$$27B,BR
   4890  0000003E  00000001 USING  ORDINARY    00000000 00001000 FFFFFFE2  11 070    4903  FEB,FEBR
   4914  00000052  00000001 USING  ORDINARY    00000000 00001000 FFFFFFF3  11 000          @R11,11
   4919  00000052  00000001 USING  ORDINARY    00000000 00001000 FFFFFFF6   8 000          @R8,8
   4962  00000070  00000001 USING  ORDINARY    00000070 00001000 00000001   8 284    4966  $$$30B,BR
   4987  00000091  00000001 USING  ORDINARY    00000000 00001000 FFFFFFF6   8 000          @R8,8
   5033  000000B0  00000001 USING  ORDINARY    000000B0 00001000 00000001   8 246    5143  $$$34B,BR
   5056  000000C2  00000001 USING  ORDINARY    00000000 00001000 FFFFFFE2  11 10C    5161  FEB,FEBR
   5168  00000138  00000001 USING  ORDINARY    00000000 00001000 FFFFFFF3  11 000          @R11,11
   5173  00000138  00000001 USING  ORDINARY    00000000 00001000 FFFFFFF6   8 000          @R8,8
   5286  0000018E  00000001 USING  ORDINARY    0000018E 00001000 00000001   8 16E    5390  $$$42B,BR
   5309  000001A0  00000001 USING  ORDINARY    00000000 00001000 FFFFFFE2  11 10C    5389  FEB,FEBR
   5402  000001E6  00000001 USING  ORDINARY    00000000 00001000 FFFFFFF3  11 000          @R11,11
   5407  000001E6  00000001 USING  ORDINARY    00000000 00001000 FFFFFFF6   8 000          @R8,8
   5451  00000204  00000001 USING  ORDINARY    00000204 00001000 00000001   8 0F2    5721  $$$50B,BR
   5474  00000216  00000001 USING  ORDINARY    00000000 00001000 FFFFFFE2  11 10E    5713  FEB,FEBR
   5627  00000276  00000001 USING  ORDINARY    00000000 00001000 FFFFFFE1  10 00C    5640  PIB,PIBR
   5676  0000029A  00000001 USING  ORDINARY    00000000 00001000 FFFFFFF4  10 000    6155  @R10,10
   5734  000002C4  00000001 USING  ORDINARY    00000000 00001000 FFFFFFF3  11 000          @R11,11
   5739  000002C4  00000001 USING  ORDINARY    00000000 00001000 FFFFFFF6   8 000          @R8,8
   5815  0000030A  00000001 USING  ORDINARY    0000030A 00001000 00000001   8 264    6351  $$$62B,BR
   5838  0000031C  00000001 USING  ORDINARY    00000000 00001000 FFFFFFE2  11 0A0    6305  FEB,FEBR
   5878  00000336  00000001 USING  ORDINARY    00000000 00001000 FFFFFFEC   7 038    6342  PDB,R7
   5893  0000033A  00000001 USING  ORDINARY    00000000 00001000 FFFFFFEB   6 010    6299  FDB,R6
   6173  00000428  00000001 USING  ORDINARY    00000000 00001000 FFFFFFE1  10 094    6226  PIB,PIBR
   6241  0000045E  00000001 USING  ORDINARY    00000000 00001000 FFFFFFF4  10 000          @R10,10
   6359  000004B2  00000001 USING  ORDINARY    00000000 00001000 FFFFFFF8   6 000          @R6,6
   6364  000004B2  00000001 USING  ORDINARY    00000000 00001000 FFFFFFF7   7 000          @R7,7
   6369  000004B2  00000001 USING  ORDINARY    00000000 00001000 FFFFFFF3  11 000          @R11,11
   6374  000004B2  00000001 USING  ORDINARY    00000000 00001000 FFFFFFF6   8 000          @R8,8
   6420  000004D0  00000001 USING  ORDINARY    000004D0 00001000 00000001   8 080    6534  $$$85B,BR
   6443  000004E2  00000001 USING  ORDINARY    00000000 00001000 FFFFFFED   9 18A    6535  SCB,SCBR
   6456  000004E6  00000001 USING  ORDINARY    00000000 00001000 FFFFFFE1  10 008    6460  PIB,PIBR
   6469  000004EA  00000001 USING  ORDINARY    00000000 00001000 FFFFFFE2  11 0D0    6535  FEB,FEBR
   6546  00000528  00000001 USING  ORDINARY    00000000 00001000 FFFFFFF3  11 000          @R11,11
1VIRT     (VIRT2047) (12:37) (15MAR04) Using Map                                                                            Page   68
   6551  00000528  00000001 USING  ORDINARY    00000000 00001000 FFFFFFF4  10 000          @R10,10
   6556  00000528  00000001 USING  ORDINARY    00000000 00001000 FFFFFFF5   9 000          @R9,9
   6561  00000528  00000001 USING  ORDINARY    00000000 00001000 FFFFFFF6   8 000          @R8,8
   6641  0000057C  00000001 USING  ORDINARY    0000057C 00001000 00000001   8 24A    7234  $$$90B,BR
   6664  0000058E  00000001 USING  ORDINARY    00000000 00001000 FFFFFFED   9 124    7230  SCB,SCBR
   6677  00000592  00000001 USING  ORDINARY    00000000 00001000 FFFFFFE1  10 090    7148  PIB,PIBR
   6690  00000596  00000001 USING  ORDINARY    00000000 00001000 FFFFFFE2  11 10E    7176  FEB,FEBR
   6704  00000598  00000001 USING  ORDINARY    00000000 00001000 FFFFFFEC   7 038    7231  PDB,R7
   6729  000005A6  00000001 USING  ORDINARY    00000000 00001000 FFFFFFE0  15 022    6739  VTRC,R15
   6746  000005CA  00000001 USING  ORDINARY    00000000 00001000 FFFFFFEF  15 008    7115  @R15,15
   6924  00000664  00000001 USING  ORDINARY    00000000 00001000 FFFFFFE3   6 008    6940  RQST,R6
   6950  00000688  00000001 USING  ORDINARY    00000000 00001000 FFFFFFF8   6 000          @R6,6
   7030  000006B4  00000001 USING  ORDINARY    00000000 00001000 FFFFFFE3   6 012    7177  RQST,R6
   7125  00000720  00000001 USING  ORDINARY    00000000 00001000 FFFFFFE0  15 012    7131  VTRC,R15
   7138  0000072C  00000001 USING  ORDINARY    00000000 00001000 FFFFFFEF  15 000          @R15,15
   7160  00000734  00000001 USING  ORDINARY    00000000 00001000 FFFFFFE0  15 00A    7166  VTRCP,R15
   7173  0000073E  00000001 USING  ORDINARY    00000000 00001000 FFFFFFEF  15 000          @R15,15
   7246  00000780  00000001 USING  ORDINARY    00000000 00001000 FFFFFFF8   6 000    8567  @R6,6
   7251  00000780  00000001 USING  ORDINARY    00000000 00001000 FFFFFFF7   7 01C    7638  @R7,7
   7256  00000780  00000001 USING  ORDINARY    00000000 00001000 FFFFFFF3  11 000          @R11,11
   7261  00000780  00000001 USING  ORDINARY    00000000 00001000 FFFFFFF4  10 000          @R10,10
   7266  00000780  00000001 USING  ORDINARY    00000000 00001000 FFFFFFF5   9 000          @R9,9
   7271  00000780  00000001 USING  ORDINARY    00000000 00001000 FFFFFFF6   8 000          @R8,8
   7342  000007D2  00000001 USING  ORDINARY    000007D2 00001000 00000001   8 7CA    8031  $$$109B,BR
   7365  000007E4  00000001 USING  ORDINARY    00000000 00001000 FFFFFFE2  11 114    8028  FEB,FEBR
   7695  00000918  00000001 USING  ORDINARY    00000000 00001000 FFFFFFE2  15 008    7701  FEB,R15
   7709  00000920  00000001 USING  ORDINARY    00000000 00001000 FFFFFFEF  15 000          @R15,15
   8044  000009E8  00000001 USING  ORDINARY    00000000 00001000 FFFFFFF3  11 000          @R11,11
   8049  000009E8  00000001 USING  ORDINARY    00000000 00001000 FFFFFFF6   8 000          @R8,8
   8090  00000A06  00000001 USING  ORDINARY    00000A06 00001000 00000001   8 596    9193  $$$141B,BR
   8112  00000A16  00000001 USING  ORDINARY    00000000 00001000 FFFFFFE2  11 10E    9126  FEB,FEBR
   8174  00000A38  00000001 USING  ORDINARY    00000000 00001000 FFFFFFE3   7 012    9113  RQST,R7
   8487  00000B64  00000001 USING  ORDINARY    00000000 00001000 FFFFFFE1  10 090    8734  PIB,PIBR
   8584  00000BDC  00000001 USING  ORDINARY    00000000 00001000 FFFFFFED   9 18E    8768  SCB,SCBR
   8756  00000C60  00000001 USING  ORDINARY    00000000 00001000 FFFFFFEC  15 000    8767  PDB,R15
   8779  00000C7A  00000001 USING  ORDINARY    00000000 00001000 FFFFFFEF  15 008    8891  @R15,15
   8784  00000C7A  00000001 USING  ORDINARY    00000000 00001000 FFFFFFF5   9 000          @R9,9
   8789  00000C7A  00000001 USING  ORDINARY    00000000 00001000 FFFFFFF4  10 000          @R10,10
   8863  00000CB0  00000001 USING  ORDINARY    00000000 00001000 FFFFFFE1  10 090    9144  PIB,PIBR
   8876  00000CB4  00000001 USING  ORDINARY    00000000 00001000 FFFFFFED   9 124    9173  SCB,SCBR
   8901  00000CC2  00000001 USING  ORDINARY    00000000 00001000 FFFFFFE0  15 012    8907  VTRC,R15
   8914  00000CCE  00000001 USING  ORDINARY    00000000 00001000 FFFFFFEF  15 000          @R15,15
   8936  00000CD6  00000001 USING  ORDINARY    00000000 00001000 FFFFFFE0  15 00A    8942  VTRCP,R15
   8949  00000CE0  00000001 USING  ORDINARY    00000000 00001000 FFFFFFEF  15 008    9129  @R15,15
   9044  00000D14  00000001 USING  ORDINARY    00000000 00001000 FFFFFFEC   6 038    9174  PDB,R6
   9139  00000D74  00000001 USING  ORDINARY    00000000 00001000 FFFFFFE0  15 022    9150  VTRC,R15
   9157  00000D9E  00000001 USING  ORDINARY    00000000 00001000 FFFFFFEF  15 000          @R15,15
   9200  00000DBC  00000001 USING  ORDINARY    00000000 00001000 FFFFFFF8   6 000          @R6,6
   9205  00000DBC  00000001 USING  ORDINARY    00000000 00001000 FFFFFFF5   9 000          @R9,9
   9210  00000DBC  00000001 USING  ORDINARY    00000000 00001000 FFFFFFF4  10 000          @R10,10
   9215  00000DBC  00000001 USING  ORDINARY    00000000 00001000 FFFFFFF7   7 000          @R7,7
   9220  00000DBC  00000001 USING  ORDINARY    00000000 00001000 FFFFFFF3  11 000          @R11,11
   9225  00000DBC  00000001 USING  ORDINARY    00000000 00001000 FFFFFFF6   8 000          @R8,8
   9331  00000EDC  00000001 USING  ORDINARY    00000EDC 00001000 00000001   8 184    9515  $$$176B,BR
   9363  00000EF6  00000001 USING  ORDINARY    00000000 00001000 FFFFFFE8   6 020    9408  PATHD,R6
   9522  00000F86  00000001 USING  ORDINARY    00000000 00001000 FFFFFFF8   6 000          @R6,6
   9527  00000F86  00000001 USING  ORDINARY    00000000 00001000 FFFFFFF6   8 000          @R8,8
   9573  00000FA6  00000001 USING  ORDINARY    00000FA6 00001000 00000001   8 0A2    9667  $$$190B,BR
   9596  00000FB6  00000001 USING  ORDINARY    00000000 00001000 FFFFFFE3   7 000          RQST,R7
1VIRT     (VIRT2047) (12:37) (15MAR04) Using Map                                                                            Page   69
   9605  00000FB6  00000001 USING  ORDINARY    00000000 00001000 FFFFFFE2  11 10C    9666  FEB,FEBR
   9674  00001008  00000001 USING  ORDINARY    00000000 00001000 FFFFFFF3  11 000          @R11,11
   9679  00001008  00000001 USING  ORDINARY    00000000 00001000 FFFFFFF7   7 000          @R7,7
   9684  00001008  00000001 USING  ORDINARY    00000000 00001000 FFFFFFF6   8 000          @R8,8
   9753  0000106C  00000001 USING  ORDINARY    0000106C 00001000 00000001   8 504    9792  $$$195B,BR
   9776  0000107E  00000001 USING  ORDINARY    00000000 00001000 FFFFFFE2  11 000    9789  FEB,FEBR
   9804  00001090  00000001 USING  ORDINARY    00000000 00001000 FFFFFFF3  11 000          @R11,11
   9809  00001090  00000001 USING  ORDINARY    00000000 00001000 FFFFFFF6   8 000          @R8,8
   9857  000010AE  00000001 USING  ORDINARY    000010AE 00001000 00000001   8 4C2    9861  $$$198B,BR
   9880  000010BE  00000001 USING  ORDINARY    00000000 00001000 FFFFFFF6   8 000          @R8,8
   9928  000010DC  00000001 USING  ORDINARY    000010DC 00001000 00000001   8 4DB   10163  $$$201B,BR
   9951  000010EE  00000001 USING  ORDINARY    00000000 00001000 FFFFFFE2  11 076   10116  FEB,FEBR
   9965  000010F0  00000001 USING  ORDINARY    00000000 00001000 FFFFFFE9   7 000          SEGCB,R7
  10172  00001178  00000001 USING  ORDINARY    00000000 00001000 FFFFFFF7   7 000          @R7,7
  10177  00001178  00000001 USING  ORDINARY    00000000 00001000 FFFFFFF3  11 000          @R11,11
  10182  00001178  00000001 USING  ORDINARY    00000000 00001000 FFFFFFF6   8 000          @R8,8
  10229  00001196  00000001 USING  ORDINARY    00001196 00001000 00000001   8 45F   11606  $$$206B,BR
  10252  000011A8  00000001 USING  ORDINARY    00000000 00001000 FFFFFFE2  11 0A0   11603  FEB,FEBR
  10266  000011AA  00000001 USING  ORDINARY    00000000 00001000 FFFFFFE9   7 010   11623  SEGCB,R7
  10531  0000125A  00000001 USING  ORDINARY    00000000 00001000 FFFFFFE1  10 00C   10643  PIB,PIBR
  10658  000012AE  00000001 USING  ORDINARY    00000000 00001000 FFFFFFED   9 129   10756  SCB,SCBR
  10753  000012EE  00000001 DROP                                            2              2
  10757  000012F4  00000001 USING  ORDINARY    00000000 00001000 FFFFFFFC   2 000          @R2,2
  10807  00001314  00000001 USING  ORDINARY    00000000 00001000 FFFFFFF5   9 000          @R9,9
  10838  0000131E  00000001 USING  ORDINARY    00000000 00001000 FFFFFFF4  10 000          @R10,10
  10962  00001370  00000001 USING  ORDINARY    00000000 00001000 FFFFFFE0   4 022   11543  VTRC,R4
  11404  00001496  00000001 DROP                                            1              1
  11408  0000149C  00000001 USING  ORDINARY    00000000 00001000 FFFFFFFD   1 000          @R1,1
  11615  00001516  00000001 USING  ORDINARY    00000000 00001000 FFFFFFFA   4 000          @R4,4
  11631  0000151C  00000001 USING  ORDINARY    00000000 00001000 FFFFFFF7   7 000          @R7,7
  11636  0000151C  00000001 USING  ORDINARY    00000000 00001000 FFFFFFF3  11 000          @R11,11
  11641  0000151C  00000001 USING  ORDINARY    00000000 00001000 FFFFFFF6   8 000          @R8,8

1         (VIRT2047) (12:37) (15MAR04) General Purpose Register Cross Reference                                             Page   70
- Register  References (M=modified, B=branch, U=USING, D=DROP, N=index)                      HLASM R4.0  2004/03/15 12.37
0    0(0)      989U   990D  1592M  1593M  1594   1596M  1597   4876M  5119M  5119   5386M  5387M  5389   5534M  5898
              7098M  7100M  7427M  7428M  7430   7463M  7507M  7541M  7556M  7556   7590M  7608M  7653   7662M  7937
              7941M  7942M  7954   7970M  7971M  7973   8159M  8160M  8162   8200M  8307M  8308M  8310   8404M  8404
              8405M  8406M  8407   8408M  8434M  8435   8436M  8441M  8473M  8536M  8536   8557M  8570M  9113M  9115M
              9393M  9394M  9394   9408M  9476M  9613M  9663M  9664M  9666   9982M  9998M 10024M 10042M 10042  10058M
             10090M 10128M 10154M 10154  10283M 10299M 10325M 10343M 10343  10359M 10391M 10429M 10455M 10455  10542M
             10564M 10579M 10601M 10601  10623M 10623  10667M 10692M 10707M 10732M 10768M 10787M 10787  10822M 10822
             10865M 10893M 10911M 10985M 11039M 11078M 11100M 11100  11132M 11174M 11189M 11216M 11235M 11254M 11254
             11276M 11276  11310M 11357M 11388M 11415M 11441M 11441  11469M 11488M 11488  11503M 11548M 11579M 11579
     1(1)      985U  4881   4903M  5047   5108M  5109   5110M  5111   5112M  5113   5130M  5300   5384M  5385M  5387
              5465   5538M  5538   5640M  5641M  5641   5656M  5713M  5829   6305M  6434   6655   6716M  6793M  6865M
              6939M  6955M  7099M  7100M  7112M  7148M  7176M  7230M  7356   7408M  7418M  7428   7468M  7514M  7563M
              7615M  7653   7663M  7701   7702   7937   7939M  7968M  7969M  7971   8028M  8140M  8150M  8160   8205M
              8272M  8272   8287M  8287   8288   8305M  8306M  8308   8409M  8428   8434   8435M  8436   8441M  8478
              8543M  8558M  8569M  8575   8768M  8829M  8888M  8924M  9114M  9115M  9126M  9173M  9345   9413M  9661M
              9662M  9664   9767   9789M  9942   9975M  9997M 10019M 10038M 10057M 10089M 10127M 10243  10276M 10298M
             10320M 10339M 10358M 10390M 10428M 10557M 10578M 10597M 10666M 10687M 10706M 10727M 10767M 10783M 10858M
             10886M 10910M 10985M 11034M 11071M 11131M 11167M 11188M 11209M 11234M 11250M 11309M 11356M 11387M 11404D
             11406M 11406  11407M 11408U 11468M 11484M 11502M 11543M
     2(2)      981U  4850   4926M  4950   4994M  5021   5180M  5274   5414M  5439   5746M  5803   6050M  6082M  6181M
              6213M  6381M  6408   6568M  6629   6807M  6808M  6809M  7046M  7047   7067   7091   7278M  7330   8056M
              8078   8412   8417M  8425M  9058M  9070   9091   9093M  9106   9232M  9319   9346M  9368   9534M  9561
              9691M  9741   9816M  9845   9887M  9916  10189M 10217  10753D 10755M 10755  10756M 10783  11452M 11453M
             11484  11516  11528M 11548  11648M
     3(3)      977U  4850   4926M  4950   4994M  5021   5180M  5274   5414M  5439   5746M  5803   6051M  6058M  6068
              6075M  6076M  6095   6182M  6189M  6199   6206M  6207M  6226   6381M  6408   6568M  6629   7278M  7330
              8056M  8078   9232M  9319   9534M  9561   9691M  9741   9816M  9845   9887M  9916  10189M 10217  11648M
     4(4)      973U  4850   4926M  4950   4994M  5021   5180M  5274   5414M  5439   5746M  5803   6051M  6068   6182M
              6199   6381M  6408   6568M  6629   7278M  7330   8056M  8078   9232M  9319   9534M  9561   9691M  9741
              9816M  9845   9887M  9916  10189M 10217  10923M 10930M 10940  10947M 10948M 11603  11615U 11648M
     5(5)      969U  4850   4926M  4950   4994M  5021   5180M  5274   5414M  5439   5598M  5599M  5603N  5746M  5803
              6051M  6075   6182M  6206   6381M  6408   6568M  6629   7278M  7330   8056M  8078   8453M  8453   8467
              8497   8532   8565   8773M  9232M  9319   9367M  9534M  9561   9691M  9741   9816M  9845   9887M  9916
             10189M 10217  10486M 10489  10501  10590  10842M 10923M 10940  11648M
     6(6)      965U  4850   4926M  4950   4994M  5021   5180M  5274   5414M  5439   5578M  5578   5592   5598   5600M
              5746M  5803   5883M  5893U  6359U  6381M  6408   6568M  6629   6914M  6924U  6950U  7020M  7030U  7246U
              7278M  7330   8056M  8078   8449M  9034M  9044U  9200U  9232M  9319   9345M  9363U  9522U  9534M  9561
              9691M  9741   9816M  9845   9887M  9916  10189M 10217  10487M 10488M 10489M 10501  10923M 10947  11648M
     7(7)      961U  4850   4926M  4950   4994M  5021   5180M  5274   5414M  5439   5562M  5563M  5563   5746M  5803
              5868M  5878U  6364U  6381M  6408   6568M  6629   6694M  6704U  7251U  7278M  7330   7439M  7468   8056M
              8078   8164M  8174U  8178   9215U  9232M  9319   9534M  9561   9596U  9679U  9691M  9741   9816M  9845
              9887M  9916   9955M  9965U  9988  10004  10030  10048  10064  10096  10134  10160  10172U 10189M 10217
             10256M 10266U 10289  10305  10331  10349  10365  10397  10435  10461  10548  10570  10585  10607  10629
             10673  10698  10713  10738  10774  10793  10828  10871  10899  10917  11014  11045  11084  11106  11138
             11180  11195  11222  11241  11260  11282  11316  11363  11394  11421  11447  11475  11494  11509  11554
             11585  11631U 11648M
     8(8)      957U  4850   4851M  4862U  4919U  4926M  4950   4951M  4962U  4987U  4994M  5021   5022M  5033U  5173U
              5180M  5274   5275M  5286U  5407U  5414M  5439   5440M  5451U  5739U  5746M  5803   5804M  5815U  6374U
              6381M  6408   6409M  6420U  6561U  6568M  6629   6630M  6641U  7271U  7278M  7330   7331M  7342U  8049U
              8056M  8078   8079M  8090U  9225U  9232M  9319   9320M  9331U  9527U  9534M  9561   9562M  9573U  9684U
              9691M  9741   9742M  9753U  9809U  9816M  9845   9846M  9857U  9880U  9887M  9916   9917M  9928U 10182U
             10189M 10217  10218M 10229U 11641U 11648M
     9(9)      953U  4850   4926M  4950   4994M  5021   5180M  5274   5414M  5439   5746M  5803   6381M  6408   6434M
              6443U  6556U  6568M  6629   6655M  6664U  6780   6793   6797M  6797   6802   7266U  7278M  7330   8056M
              8078   8575M  8584U  8784U  8867M  8876U  9205U  9232M  9319   9534M  9561   9691M  9741   9816M  9845
1         (VIRT2047) (12:37) (15MAR04) General Purpose Register Cross Reference                                             Page   71
              9887M  9916  10189M 10217  10643M 10644M 10644  10658U 10807U 11648M
    10(A)      949U  4850   4926M  4950   4994M  5021   5180M  5274   5414M  5439   5603M  5604M  5604   5627U  5656
              5664M  5664   5676U  5746M  5803   6152M  6155M  6156M  6156   6173U  6241U  6381M  6408   6447M  6456U
              6551U  6568M  6629   6668M  6677U  6819   6865   6869M  6869   7261U  7278M  7330   8056M  8078   8478M
              8487U  8567   8789U  8832M  8833M  8833   8863U  9210U  9232M  9319   9534M  9561   9691M  9741   9816M
              9845   9887M  9916  10189M 10217  10516M 10517M 10517  10531U 10557  10838U 11648M
    11(B)      945U  3533B  3534B  4850   4881M  4890U  4914U  4926M  4950   4994M  5021   5047M  5056U  5168U  5180M
              5274   5300M  5309U  5402U  5414M  5439   5465M  5474U  5734U  5746M  5803   5829M  5838U  6369U  6381M
              6408   6460M  6469U  6546U  6568M  6629   6681M  6690U  6955   7256U  7278M  7330   7356M  7365U  8044U
              8056M  8078   8112U  8568   9220U  9232M  9319   9534M  9561   9605U  9674U  9691M  9741   9767M  9776U
              9804U  9816M  9845   9887M  9916   9942M  9951U  9975  10177U 10189M 10217  10243M 10252U 10276  11636U
             11648M
    12(C)      941U  1163U
    13(D)      937U  4847   4850   4866M  4868   4868   4869   4869   4870   4923M  4923   4926   4928   4930   4930
              4947   4950   4966M  4968   4968   4969   4969   4970   4991M  4991   4994   4996   4998   4998   5018
              5021   5037M  5039   5039   5040   5040   5041   5177M  5177   5180   5182   5184   5184   5271   5274
              5290M  5292   5292   5293   5293   5294   5411M  5411   5414   5416   5418   5418   5436   5439   5455M
              5457   5457   5458   5458   5459   5743M  5743   5746   5748   5750   5750   5800   5803   5819M  5821
              5821   5822   5822   5823   6378M  6378   6381   6383   6385   6385   6405   6408   6424M  6426   6426
              6427   6427   6428   6565M  6565   6568   6570   6572   6572   6626   6629   6645M  6647   6647   6648
              6648   6649   7275M  7275   7278   7280   7282   7282   7327   7330   7346M  7348   7348   7349   7349
              7350   7435M  7437   7437   7438   7438   7439   7485M  7485   7488   7488   7644M  7644   7647   7647
              8053M  8053   8056   8058   8060   8060   8075   8078   8094M  8096   8096   8097   8097   8098   8205
              8412   8413M  8415   8415   8416   8416   8423M  8423   8425   8427   8427   9229M  9229   9232   9234
              9236   9236   9316   9319   9335M  9337   9337   9338   9338   9339   9413   9531M  9531   9534   9536
              9538   9538   9558   9561   9577M  9579   9579   9580   9580   9581   9688M  9688   9691   9693   9695
              9695   9738   9741   9757M  9759   9759   9760   9760   9761   9813M  9813   9816   9818   9820   9820
              9842   9845   9861M  9863   9863   9864   9864   9865   9884M  9884   9887   9889   9891   9891   9913
              9916   9932M  9934   9934   9935   9935   9936  10186M 10186  10189  10191  10193  10193  10214  10217
             10233M 10235  10235  10236  10236  10237  10988M 10990  10990  10991  10991  10992  11020M 11020  11023
             11023  11645M 11645  11648  11650  11652  11652
    14(E)      933U  1591B  1601B  4847   4879M  4880M  4880B  4928M  4932B  4947   4996M  5000B  5018   5182M  5186B
              5271   5416M  5420B  5436   5650M  5651M  5651B  5659M  5660M  5660B  5716M  5717M  5717B  5721M  5722M
              5722B  5748M  5752B  5800   5898M  5910   5927   5934M  5939M  5940M  5941M  5941N  5942B  5959   5969M
              5969   5974M  5975M  5975N  5976B  6308M  6309M  6309B  6383M  6387B  6405   6570M  6574B  6626   6718M
              6805M  6806M  6806B  6852M  6853M  6853B  6872M  6873M  6873B  6943M  6944M  6944B  6958M  6959M  6959B
              7048M  7077M  7100M  7114M  7150M  7180M  7181M  7181B  7234M  7235M  7235B  7280M  7284B  7327   7490M
              7651M  7652M  7652B  7667M  7668M  7668B  7672M  7673M  7673B  7713M  7714M  7714B  7879M  7935M  7936M
              7936B  8005M  8031M  8032M  8032B  8058M  8062B  8075   8264M  8355M  8417   8420M  8421M  8421B  8441M
              8476M  8477M  8477B  8546M  8547M  8547B  8562M  8563M  8563B  8573M  8574M  8574B  8771M  8772M  8772B
              8820M  8847M  8890M  8926M  8971M  9019M  9078M  9101M  9115M  9128M  9177M  9178M  9178B  9234M  9238B
              9316   9536M  9540B  9558   9646M  9647M  9693M  9697B  9738   9792M  9793M  9793B  9818M  9822B  9842
              9889M  9893B  9913   9991M  9992M  9992B 10007M 10008M 10008B 10033M 10034M 10034B 10051M 10052M 10052B
             10067M 10068M 10068B 10099M 10100M 10100B 10137M 10138M 10138B 10163M 10164M 10164B 10191M 10195B 10214
             10292M 10293M 10293B 10308M 10309M 10309B 10334M 10335M 10335B 10352M 10353M 10353B 10368M 10369M 10369B
             10400M 10401M 10401B 10438M 10439M 10439B 10464M 10465M 10465B 10551M 10552M 10552B 10573M 10574M 10574B
             10588M 10589M 10589B 10610M 10611M 10611B 10632M 10633M 10633B 10676M 10677M 10677B 10701M 10702M 10702B
             10716M 10717M 10717B 10741M 10742M 10742B 10777M 10778M 10778B 10796M 10797M 10797B 10831M 10832M 10832B
             10874M 10875M 10875B 10902M 10903M 10903B 10920M 10921M 10921B 10995M 10996M 10996B 11017M 11018M 11018B
             11048M 11049M 11049B 11087M 11088M 11088B 11109M 11110M 11110B 11141M 11142M 11142B 11183M 11184M 11184B
             11198M 11199M 11199B 11225M 11226M 11226B 11244M 11245M 11245B 11263M 11264M 11264B 11285M 11286M 11286B
             11319M 11320M 11320B 11366M 11367M 11367B 11397M 11398M 11398B 11424M 11425M 11425B 11450M 11451M 11451B
             11478M 11479M 11479B 11497M 11498M 11498B 11512M 11513M 11513B 11557M 11558M 11558B 11588M 11589M 11589B
             11650M 11654B
    15(F)      929U  1589M  1590M  1590   1592   1597M  1600M  1600   3995M  3995   4907M  4907   4931M  4931   4999M
              4999   5123M  5123   5142M  5142   5185M  5185   5383M  5386   5389M  5419M  5419   5529M  5668M  5669M
              5670   5705M  5706M  5707   5727M  5727   5751M  5751   5868   5994M  5999M  6004M  6013M  6013   6130M
              6142   6151M  6155N  6386M  6386   6573M  6573   6694   6729U  6746U  6849M  6876M  6877M  6878   6940M
              7012M  7013M  7014   7075M  7076   7091M  7099   7100M  7101M  7102M  7103   7125U  7138U  7160U  7173U
1         (VIRT2047) (12:37) (15MAR04) General Purpose Register Cross Reference                                             Page   72
              7177M  7231M  7283M  7283   7407M  7408   7409M  7411   7426M  7427   7430M  7447M  7448   7458M  7478M
              7478   7519M  7531M  7531   7568M  7580M  7580   7620M  7631M  7631   7658M  7659M  7660   7664M  7685M
              7695U  7709U  7967M  7970   7973M  8061M  8061   8139M  8140   8141M  8143   8158M  8159   8162M  8178M
              8179   8195M  8215M  8215   8236   8250   8304M  8307   8310M  8316M  8317M  8318   8440M  8440   8441M
              8494M  8495M  8496   8532M  8559M  8565M  8566M  8567N  8746M  8756U  8779U  8800M  8812   8828M  8832N
              8901U  8914U  8936U  8949U  9086M  9087M  9091   9093   9106M  9114   9115M  9116M  9117   9139U  9157U
              9174M  9237M  9237   9346   9403M  9423M  9423   9443   9500   9515M  9539M  9539   9550M  9550   9622M
              9622   9660M  9663   9666M  9696M  9696   9797M  9797   9821M  9821   9892M  9892   9955   9988M 10004M
             10030M 10048M 10064M 10096M 10134M 10160M 10194M 10194  10256  10289M 10305M 10331M 10349M 10365M 10397M
             10435M 10461M 10548M 10570M 10585M 10590M 10591M 10592M 10597  10607M 10629M 10673M 10698M 10713M 10738M
             10774M 10793M 10828M 10871M 10899M 10917M 10992M 11014M 11045M 11084M 11106M 11138M 11180M 11195M 11222M
             11241M 11260M 11282M 11316M 11363M 11394M 11421M 11447M 11475M 11494M 11509M 11554M 11585M 11653M 11653

1VIRT     (VIRT2047) (12:37) (15MAR04) Diagnostic Cross Reference and Assembler Summary                                     Page   73
-                                                                                            HLASM R4.0  2004/03/15 12.37
0     No Statements Flagged in this Assembly
 HIGH LEVEL ASSEMBLER, 5696-234, RELEASE 4.0, PTF UQ57391
0SYSTEM: OS/390 02.10.00            JOBNAME: MIL#VIRT    STEPNAME: ASM        PROCSTEP: (NOPROC)
0Datasets Allocated for this Assembly
  Con DDname   Dataset Name                                 Volume  Member
   P1 SYSIN    WYL.GS.MIL.MILTEN.SOURCE                     SYSB05  VIRT
   L1 SYSLIB   WYL.GS.MIL.MILTEN.MACLIB                     SYSB05
   L2          WYL.GG.SYS.MACLIB                            SYSB05
   L3          SYS3.IS.MACLIB                               SYSB05
   L4          SYS3.MACLIB                                  SYSB02
   L5          SYS1.MACLIB                                  MVSBR9
   L6          SYS1.MODGEN                                  MVSBR9
      SYSPRINT SYS04075.T123735.RA000.MIL#VIRT.PRINT.H01    SCR101
      SYSTERM  GG$SLP.MIL#VIRT.JOB03431.D0000101.?

    3776K allocated to Buffer Pool,         1985K would be required for this to be an In-Storage Assembly
    1034 Primary Input Records Read         7293 Library Records Read                  0 Work File Reads
       0 ASMAOPT Records Read               5378 Primary Print Records Written         0 Work File Writes
       0 Punch Records Written                 0 ADATA Records Written
0Assembly Start Time: 12.37.37 Stop Time: 12.37.51 Processor Time: 00.00.02.1222
 Return Code 000
