1                        J E S 2  J O B  L O G  --  S Y S T E M  S Y S B  --  N O D E  R L G
0
 12.37.04 JOB03427 ---- MONDAY,    15 MAR 2004 ----
 12.37.04 JOB03427  ICH70001I GG$SLP   LAST ACCESS AT 12:36:51 ON MONDAY, MARCH 15, 2004
 12.37.04 JOB03427  $HASP373 MIL#SIFT STARTED - INIT 9    - CLASS B - SYS SYSB
 12.37.04 JOB03427  ***  HCMD      STEP $$QUIET
 12.37.04 JOB03427  PUR * Q OUT MUL
 12.37.04 JOB03427  JOB 5470 MIL#SIFT WILL BE PURGED
 12.37.05 JOB03427  MIL#SIFT.$$QUIET .         RC=Zero TapeIO=0000 DiskIO=0000 CPU=  .01s Elapsed=24.71s
 12.37.27 JOB03427  MIL#SIFT.ASM     .         RC=Zero TapeIO=0000 DiskIO=0930 CPU= 7.95s Elapsed=26.01s
 12.37.30 JOB03427  MIL#SIFT.EDIT    .         RC=Zero TapeIO=0000 DiskIO=0454 CPU= 1.37s Elapsed=47.58s
 12.37.30 JOB03427  MIL#SIFT Ended.  Name=Assemble SIFT                  Total CPU= 9.33s Elapsed=24.71s
 12.37.30 JOB03427
 12.37.30 JOB03427  Execution charges   Priority=Standard   Block=Day
 12.37.30 JOB03427
 12.37.30 JOB03427  CPU Usage         172.87         $107.17   Standard Processing Unit Equivalent
 12.37.30 JOB03427                                   =======
 12.37.30 JOB03427                                   $107.17   Total Job execution charge
 12.37.30 JOB03427
 12.37.30 JOB03427  See back separator page for print charges
 12.37.30 JOB03427
 12.37.30 JOB03427  $HASP395 MIL#SIFT ENDED  ASM=0, EDIT=0
1        1 //MIL#SIFT JOB SLP$GG,'Assemble SIFT',TIME=4,REGION=4M                  JOB03427
           //*
           /*JOBPARM LINES=99,COPIES=1
           /*JOBPARM FORMS=3HOL,PFORMAT=LAND,CHARS=BD13,DUPLEX=YES,FLASH=BAR4
           //*
           /*JOBPARM NOTIFY=GG.SLP,HOLD=OUTPUT                                     WYLGEN
         2 //$$QUIET EXEC PGM=HCMDX,PARM='PUR * Q OUT MUL'
           //*
         3 //ASM    EXEC PGM=ASMA90,REGION=8M,
           //            PARM=('NORENT,TERM,FLAG(NOCONT),US(MAP,WARN(10)),NODECK',
           //            'LC(32767),XREF(SHORT),ESD,DXREF,NOOBJECT')
           //*STEPLIB  DD DSN=SYS1.SASMMOD1,DISP=SHR
         4 //SYSLIB   DD  DSN=WYL.GS.MIL.MILTEN.MACLIB,DISP=SHR
         5 //         DD  DSN=WYL.GG.SYS.MACLIB,DISP=SHR
         6 //         DD  DSN=SYS3.IS.MACLIB,DISP=SHR
         7 //         DD  DSN=SYS3.MACLIB,DISP=SHR
         8 //         DD  DSN=SYS1.MACLIB,DISP=SHR
         9 //         DD  DSN=SYS1.MODGEN,DISP=SHR
        10 //SYSUT1   DD DSN=&&SYSUT1,UNIT=VIO,DISP=(,DELETE),
           //            SPACE=(4088,(500,250),,CONTIG,ROUND)
        11 //SYSTERM  DD SYSOUT=T
        12 //SYSPRINT DD DSN=&&PRINT,UNIT=SYSDA,DISP=(,PASS),
           //            SPACE=(6650,(250,250),RLSE),
           //            DCB=(BLKSIZE=6650,LRECL=133,RECFM=FB)
        13 //SYSUDUMP DD SYSOUT=A
        14 //SYSIN    DD  DSN=WYL.GS.MIL.MILTEN.SOURCE(SIFT),DISP=SHR
           //*
        15 //EDIT    EXEC PGM=ASMEDIT,TIME=2,REGION=4000K,
           //             PARM='STMT'
        16 //STEPLIB  DD  DSN=WYL.GG.SYS.LINKLIB,DISP=SHR
        17 //ASMOUT   DD  DSN=&PRINT,DISP=(OLD,DELETE)
        18 //SYSPRINT DD  SYSOUT=A
1 STMT NO. MESSAGE
 -
        10 IGD01010I STORCLAS= TEMP STORGROUP =
        10 IGD01010I STORGRP=VIO ASSIGNED.
        12 IGD01010I STORCLAS= TEMP STORGROUP =
        12 IGD01010I STORGRP=VIO ASSIGNED.
 ICH70001I GG$SLP   LAST ACCESS AT 12:36:51 ON MONDAY, MARCH 15, 2004
 IEF142I MIL#SIFT $$QUIET - STEP WAS EXECUTED - COND CODE 0000
 *********************************************************************************
 *   MIL#SIFT/$$QUIET /                    Return Code      Zero                 *
 *   Region used      260K (16K user + 244K system)                              *
 *   Extended region  9464K (4K user + 9460K system)                             *
 *                                                                               *
 *   Paging              In      Out                                             *
 *   Private <-> Aux      0        0       CPU time (TCB)   00:00:00.01          *
 *   Private <-> Exp      0        0       CPU time (SRB)   00:00:00.00          *
 *   VIO                  0        0       Elapsed time    917:50:48.25          *
 *   Common               0      ---                                             *
 *                                                                               *
 *                                                                               *
 *   CPU Usage          0.18         $0.11  Standard Processing Unit Equivalent  *
 *                                   $0.11  Total Step execution charge          *
 *                                                                               *
 *    I/O count  DDname   Type Addr           I/O count  DDname   Type Addr      *
 *                         *** No I/O for this step ***                          *
 *********************************************************************************
 IEF373I STEP/$$QUIET /START 2004075.1237
 IEF374I STEP/$$QUIET /STOP  2004075.1237 CPU    0MIN 00.01SEC SRB    0MIN 00.00SEC VIRT    16K SYS   244K EXT       4K SYS    9460K
 IEF236I ALLOC. FOR MIL#SIFT ASM
 IEF237I 04DC ALLOCATED TO SYSLIB
 IEF237I 04DC ALLOCATED TO
 IEF237I 04DC ALLOCATED TO
 IEF237I 0402 ALLOCATED TO
 IEF237I 04A0 ALLOCATED TO
 IEF237I 04A0 ALLOCATED TO
 IGD101I SMS ALLOCATED TO DDNAME (SYSUT1  )
         DSN (SYS04075.T123704.RA000.MIL#SIFT.SYSUT1.H01  )
         STORCLAS (TEMP) MGMTCLAS (        ) DATACLAS (        )
         VOL SER NOS= VIO
 IEF237I JES2 ALLOCATED TO SYSTERM
 IGD101I SMS ALLOCATED TO DDNAME (SYSPRINT)
         DSN (SYS04075.T123704.RA000.MIL#SIFT.PRINT.H01   )
         STORCLAS (TEMP) MGMTCLAS (        ) DATACLAS (        )
         VOL SER NOS= SCR100
 IEF237I JES2 ALLOCATED TO SYSUDUMP
 IEF237I 04DC ALLOCATED TO SYSIN
 IEF142I MIL#SIFT ASM - STEP WAS EXECUTED - COND CODE 0000
 IEF285I   WYL.GS.MIL.MILTEN.MACLIB                     KEPT
 IEF285I   VOL SER NOS= SYSB05.
 IEF285I   WYL.GG.SYS.MACLIB                            KEPT
 IEF285I   VOL SER NOS= SYSB05.
 IEF285I   SYS3.IS.MACLIB                               KEPT
 IEF285I   VOL SER NOS= SYSB05.
 IEF285I   SYS3.MACLIB                                  KEPT
 IEF285I   VOL SER NOS= SYSB02.
 IEF285I   SYS1.MACLIB                                  KEPT
 IEF285I   VOL SER NOS= MVSBR9.
 IEF285I   SYS1.MODGEN                                  KEPT
 IEF285I   VOL SER NOS= MVSBR9.
 IGD105I SYS04075.T123704.RA000.MIL#SIFT.SYSUT1.H01   DELETED,   DDNAME=SYSUT1
 IEF285I   GG$SLP.MIL#SIFT.JOB03427.D0000101.?          SYSOUT
 IGD106I SYS04075.T123704.RA000.MIL#SIFT.PRINT.H01    PASSED,    DDNAME=SYSPRINT
 IEF285I   GG$SLP.MIL#SIFT.JOB03427.D0000102.?          SYSOUT
 IEF285I   WYL.GS.MIL.MILTEN.SOURCE                     KEPT
 IEF285I   VOL SER NOS= SYSB05.
 *********************************************************************************
 *   MIL#SIFT/ASM     /                    Return Code      Zero                 *
 *   Region used      4372K (4096K user + 276K system)                           *
 *   Extended region  10072K (412K user + 9660K system)                          *
 *                                                                               *
 *   Paging              In      Out                                             *
 *   Private <-> Aux      0        0       CPU time (TCB)   00:00:07.88          *
 *   Private <-> Exp      0        0       CPU time (SRB)   00:00:00.07          *
 *   VIO                  0        0       Elapsed time    917:50:46.95          *
 *   Common               0      ---                                             *
 *                                                                               *
 *                                                                               *
 *   CPU Usage        147.75        $91.60  Standard Processing Unit Equivalent  *
 *                                  $91.60  Total Step execution charge          *
 *                                                                               *
 *    I/O count  DDname   Type Addr           I/O count  DDname   Type Addr      *
 *          278  SYSLIB   Disk 04DC                   0  SYSLIB   Disk 04DC      *
 *            0  SYSLIB   Disk 04DC                  16  SYSLIB   Disk 0402      *
 *          121  SYSLIB   Disk 04A0                   0  SYSLIB   Disk 04A0      *
 *          822  SYSUT1   VIO  ----                   0  SYSTERM       ----      *
 *          451  SYSPRINT Disk 038B                   0  SYSUDUMP      ----      *
 *           64  SYSIN    Disk 04DC                                              *
 *********************************************************************************
 IEF373I STEP/ASM     /START 2004075.1237
 IEF374I STEP/ASM     /STOP  2004075.1237 CPU    0MIN 07.88SEC SRB    0MIN 00.07SEC VIRT  4096K SYS   276K EXT     412K SYS    9660K
 IEF236I ALLOC. FOR MIL#SIFT EDIT
 IEF237I 0402 ALLOCATED TO STEPLIB
 IGD103I SMS ALLOCATED TO DDNAME ASMOUT
 IEF237I JES2 ALLOCATED TO SYSPRINT
 IEF142I MIL#SIFT EDIT - STEP WAS EXECUTED - COND CODE 0000
 IEF285I   WYL.GG.SYS.LINKLIB                           KEPT
 IEF285I   VOL SER NOS= SYSB02.
 IGD105I SYS04075.T123704.RA000.MIL#SIFT.PRINT.H01    DELETED,   DDNAME=ASMOUT
 IEF285I   GG$SLP.MIL#SIFT.JOB03427.D0000103.?          SYSOUT
 *********************************************************************************
 *   MIL#SIFT/EDIT    /                    Return Code      Zero                 *
 *   Region used      380K (116K user + 264K system)                             *
 *   Extended region  9588K (4K user + 9584K system)                             *
 *                                                                               *
 *   Paging              In      Out                                             *
 *   Private <-> Aux      0        0       CPU time (TCB)   00:00:01.33          *
 *   Private <-> Exp      0        0       CPU time (SRB)   00:00:00.04          *
 *   VIO                  0        0       Elapsed time    917:50:25.38          *
 *   Common               0      ---                                             *
 *                                                                               *
 *                                                                               *
 *   CPU Usage         24.93        $15.45  Standard Processing Unit Equivalent  *
 *                                  $15.45  Total Step execution charge          *
 *                                                                               *
 *    I/O count  DDname   Type Addr           I/O count  DDname   Type Addr      *
 *            2  STEPLIB  Disk 0402                 452  ASMOUT   Disk 038B      *
 *            0  SYSPRINT      ----                                              *
 *********************************************************************************
 IEF373I STEP/EDIT    /START 2004075.1237
 IEF374I STEP/EDIT    /STOP  2004075.1237 CPU    0MIN 01.33SEC SRB    0MIN 00.04SEC VIRT   116K SYS   264K EXT       4K SYS    9584K
 *********************************************************************************
 *                                                                               *
 *                      S t a n f o r d   U n i v e r s i t y                    *
 *                                                                               *
 *                              *** Job Summary ***                              *
 *                                                                               *
 *   System Id      SYSB                   Input time     12:35:11  Mar 15, 2004 *
 *                                                                               *
 *   System Release SP6.1.0                Start time     12:37:04  Mar 15, 2004 *
 *                                                                               *
 *   Job name       MIL#SIFT               Stop  time     00:00:00  Mar 15, 2004 *
 *                                                                               *
 *   Account        SLP$GG                 Elapsed time  917:50:48.25            *
 *                                                                               *
 *   User Name      Assemble SIFT          CPU time       00:00:09.22            *
 *                                                                               *
 *   Job class      B                      SRB Time       00:00:00.11            *
 *                                                                               *
 *********************************************************************************
 IEF375I  JOB/MIL#SIFT/START 2004075.1237
 IEF376I  JOB/MIL#SIFT/STOP  2004075.1237 CPU    0MIN 09.22SEC SRB    0MIN 00.11SEC
1Assembler Done SIFT No Statements Flagged
1         High Level Assembler Option Summary                   (PTF UQ57391)                                               Page    1
-                                                                                            HLASM R4.0  2004/03/15 12.37
0  No Overriding ASMAOPT Parameters
   Overriding Parameters-  NORENT,TERM,FLAG(NOCONT),US(MAP,WARN(10)),NODECK,LC(32767),XREF(SHORT),ESD,DXREF,NOOBJECT
   No Process Statements


   Options for this Assembly
0  NOADATA
     ALIGN
   NOASA
     BATCH
     CODEPAGE(047C)
   NOCOMPAT
   NODBCS
 3 NODECK
 3   DXREF
 3   ESD
   NOEXIT
 3   FLAG(0,ALIGN,NOCONT,NOIMPLEN,NOPAGE0,PUSH,RECORD,NOSUBSTR,USING0)
   NOFOLD
   NOGOFF
   NOINFO
     LANGUAGE(EN)
   NOLIBMAC
 3   LINECOUNT(32767)
     LIST(121)
     MXREF(SOURCE)
 3 NOOBJECT
     OPTABLE(UNI,NOLIST)
   NOPCONTROL
   NOPESTOP
   NOPROFILE
   NORA2
 3 NORENT
     RLD
     RXREF
     SIZE(MAX)
     SYSPARM()
 3   TERM(WIDE)
   NOTEST
     THREAD
   NOTRANSLATE
 3   USING(NOLIMIT,MAP,WARN(10))
 3   XREF(SHORT)

   No Overriding DD Names

1SIFT     External Symbol Dictionary                                                                                        Page    2
-Symbol   Type   Id     Address  Length     LD ID  Flags Alias-of                            HLASM R4.0  2004/03/15 12.37
0MILSIFT   SD 00000001 00000000 00006538             00
 SIFT2047  LD          00000000           00000001
 SUBFIN    LD          00000018           00000001
 SUBDIE    LD          0000011C           00000001
 MORT      ER 00000002
 NGETCORE  ER 00000003
 VIRTXCLS  ER 00000004
 FREECORE  ER 00000005
 SUBDO     LD          000005AC           00000001
 LOCALTOD  ER 00000006
 SINEUPD   ER 00000007
 DECRSES   ER 00000008
 STOPCHK   ER 00000009
 CONSCNTL  ER 0000000A
 VIRTCNTL  ER 0000000B
 ELFCNTL   ER 0000000C
 DTB       ER 0000000D
 INCRSES   ER 0000000E
 SHUTDOWN  ER 0000000F
 CONSUPD   ER 00000010
 VIRTUPD   ER 00000011
 ELFUPD    ER 00000012
 SESTIMER  LD          0000272C           00000001
 DISCSESS  LD          00002948           00000001
 KILLSESS  LD          00002A04           00000001
 ASYNWRIT  LD          00002B1A           00000001
 MAKESTAG  ER 00000013
 TIMERQ    ER 00000014
 SEGINIT   ER 00000015
 SEG       ER 00000016
 SEGB      ER 00000017
 SEGDC     ER 00000018
 CONSDO    ER 00000019
 VIRTDO    ER 0000001A
 ELFDO     ER 0000001B
 SUBSTART  LD          00003260           00000001
 SUBSEND   LD          00003452           00000001
 FREESCB   ER 0000001C
 SEGBLANK  ER 0000001D
 SESSERR   LD          00006454           00000001
 SUBERR    LD          00006490           00000001

1SIFT     MILTEN's Subsystem Interface                                                                                      Page    3
0Loc    Object Code    Addr1 Addr2  Stmt Lv Lineno    Source Statement                    (Asmedit 3.3)  HLASM R4.0  2004/03/15 12.37
+___    ______ ____    _____ _____  ____ __ ______    ______ _________
0                                      2              *******************************************************************
                                       3              *                                                                 *
                                       4              *     MILTEN/370 - Release VI - Class I - Stanford Proprietary    *
                                       5              *                                                                 *
                                       6              *******************************************************************
                                       7                       HIBAL
                                     995
                                     996                       SYSDEFN
                                     997
 000000                00000 06538   998              MILSIFT  CSECT
                                    1002              SIFT     IDENT 2047                10:16:24 02/16/02  (SLP)
                                    1005             +
                                    1006    01-IDENT +         ENTRY SIFT2047
                                    1007             +
 000000 16E2C9C6E3F2F0F4            1008    01-IDENT +SIFT2047 DC    AL1(22),C'SIFT2047,15MAR04,12:37'
                                    1009             +*
                                    1011                       REGS  ,,FSR,,,,,,BR,SCBR,PDBR,(SUBR,LSR),CVR,SPR,RAR
                                    1143
                                    1144                       PUSH  DSECTS
 USING  CV,R12                      2576             =         USING CV
 000017                00000 06538  2585             =         POP   PRINT
1SIFT     (SIFT2047) (12:37) (15MAR04) DSECTS                                                                               Page    4
0Current Usings:  (CV,R12)
0Loc    Object Code    Addr1 Addr2  Stmt Lv Lineno    Source Statement           (Hibal 5, Asmedit 3.3)  HLASM R4.0  2004/03/15 12.37
+___    ______ ____    _____ _____  ____ __ ______    ______ _________
0                                   4804                       COPY  SUB
                                    4805=            =¿þþþþþþþþþþþþþþþþþþþþþþþþþþþþþþþþþþþþþþþþþþþþþþþþþþþþþþþþþþþþþþþþþþþþþÜ
                                    4806=            =Ÿ                                                                     Ÿ
                                    4807=            =Ÿ  Subsystem Block                                                    Ÿ
                                    4808=            =Ÿ                                                                     Ÿ
                                                      ¾þþþþþþþþþþþþþþþþþþþþþþþþþþþþþþþþþþþþþþþþþþþþþþþþþþþþþþþþþþþþþþþþþþþþþ»
0000000                00000 00084  4809             =SUB      RECORD BEGIN
 000000                             4817  1          =           DS    CL4'SUB'
 000004                             4818  1          =SUBID      DS    H                   Subsystem identifier
 000006                             4819  1          =           DS    H                   Reserved
                                    4820  1          =
 000008                             4821  1          =SUBLINK    DS    F                   Ptr to next SUB (or zero)
 00000C                             4822  1          =SUBASCBP   DS    A                   Subsystems ASCB ptr
                                    4823  1          =
 000010                             4824  1          =SUBNAME    DS    CL8                 Subsystem name
 000018                             4825  1          =SUBJOBNM   DS    CL8                 Subsystem jobname
 000020 00                          4826  1          =SUBFLAG    FLAG
 SUBFLAG.SUBFPRIV  80 ONES          4830  1          =           FLAG  SUBFPRIV            - Priv'd subsystem
                                    4835  1          =
 000021                             4836  1          =           DS    XL3                 Reserved
                                    4837  1          =
 000024                             4838  1          =SUBSCLCK   DS    XL8                 Clock at start
                                    4839  1          =
 00002C                             4840  1          =SUBMAX     DS    H                   Maximum no. of sessions
 00002E                             4841  1          =SUBCUR     DS    H                   Current no. of sessions
                                    4842  1          =
 000030                             4843  1          =SUBNIO     DS    F                   Total no. of I/O's
 000034                             4844  1          =SUBNCNTL   DS    F                   Total no. of controls
 000038                             4845  1          =SUBNSES    DS    F                   Total no. of sessions
 00003C                             4846  1          =SUBNFAIL   DS    F                   Number of unexpected failures
 000040                             4847  1          =           DS    F                   Reserved
                                    4848  1          =SUBBASIC   EQU   SUBNAME,*-SUBNAME,C'X'  ******
                                    4849  1          =
 000044                             4850  1          =SUBPDBQH   DS    A                   Pending PDB queue head
                                    4851  1          =
                                    4852  1         C=SUBPATHX   PATH  PFX=SUBP,ECB=0,FLAG=SUBSFLAG,MYTAG=*,YOURTAG=*,PASS=*,
                                          1                            VERSION=2
 000048                             4853  1 01-PATH  +SUBPATHX   DC    0F'0'
 000048                             4854  1 01-PATH  +SUBP       DC    0F'0'
 000048 00000000                    4856  1 02-DEFIN +SUBPMGC    DC    AL4(0)
 00004C 00000000                    4858  1 02-DEFIN +SUBPDJNM   DC    AL4(0)
 000050 5C40404040404040            4860  1 02-DEFIN +SUBPMY     DC    CL8'*'
 000058 5C40404040404040            4862  1 02-DEFIN +SUBPYOU    DC    CL8'*'
 000060 A0                          4864  1 02-DEFIN +SUBPMFL    DC    AL1(1*X'80'+0*X'40'+1*X'20')
                                    4865  1          +
                                    4866  1 01-PATH  +SUBPVER2    EQU  X'80'         CALLER IS USING VERSION 2
                                    4867  1 01-PATH  +SUBPMCTL    EQU  X'40'         CALLER ASKS TERMINATION CONTROL
                                    4868  1 01-PATH  +SUBPMNAM    EQU  X'20'         CALLER PROVIDES CALLEE NAME
                                    4869  1 01-PATH  +SUBPMDP1    EQU  X'10'         DUPLICATE TAGS FOUND: MY=PCBO, YOU=PCBA
                                    4870  1 01-PATH  +SUBPMDP2    EQU  X'08'         DUPLICATE TAGS FOUND: MY=PCBA, YOU=PCBO
                                    4871  1          +
 000061 000000                      4873  1 02-DEFIN +SUBPOECB   DC    AL3(0)
 000064 00000000                    4875  1 02-DEFIN +SUBPBUF    DC    AL4(0)
1SIFT     (SIFT2047) (12:37) (15MAR04) DSECTS                                                                               Page    5
0Current Usings:  (CV,R12)
0Loc    Object Code    Addr1 Addr2  Stmt Lv Lineno    Source Statement           (Hibal 5, Asmedit 3.3)  HLASM R4.0  2004/03/15 12.37
+___    ______ ____    _____ _____  ____ __ ______    ______ _________
0000068 00000080                    4877  1 02-DEFIN +SUBPECBF   DC    AL4(SUBSFLAG)
                                    4878  1          +
                                    4879  1 01-PATH  +SUBPFCLS    EQU   X'80'         I AM POSTED BECAUSE HE CLOSED
                                    4880  1 01-PATH  +SUBPFFQE    EQU   X'40'         I AM POSTED BECAUSE HIS FULL Q EMPTIED
                                    4881  1 01-PATH  +SUBPFNI     EQU   X'20'         I AM POSTED BECAUSE NEW INFO IN MY Q
                                    4882  1 01-PATH  +SUBPFDP     EQU   X'10'         I AM POSTED AT HIS DISCRETION
                                    4883  1 01-PATH  +SUBPFOPN    EQU   X'08'         I AM POSTED BECAUSE HE OPENED
                                    4884  1 01-PATH  +SUBPFCLC    EQU   X'04'         I AM POSTED BECAUSE MY CLOSE IS COMPLETE
                                    4885  1          +
 00006C 5C404040                    4887  1 02-DEFIN +SUBPPASS   DC    CL4'*'
 000070 00000000                    4889  1 02-DEFIN +SUBPECB    DC    AL4(0)
 000074 00000000                    4891  1 02-DEFIN +SUBPEXIT   DC    AL4(0)
 000078 00000000                    4893  1 02-DEFIN +SUBPPINP   DC    XL4'0'
 00007C 00000000                    4895  1 02-DEFIN +SUBPRESV   DC    XL4'0'
                                    4896  1          +*
                                    4897  1          +*  VERSION 2 RETURN CODES
                                    4898  1          +*
                                    4899  1 01-PATH  +SUBPROK     EQU  0                       COMPLETE OK
                                    4900  1 01-PATH  +SUBPRIFC    EQU  4                       INVALID FUNCTION CODE
                                    4901  1 01-PATH  +SUBPRPMW    EQU  8                       INVALID PATH MAGIC WORD
                                    4902  1 01-PATH  +SUBPRBAF    EQU  12                      PARTNER'S BUFFER AREA FULL
                                    4903  1 01-PATH  +SUBPRNOP    EQU  16                      PARTNER NOT THERE
                                    4904  1 01-PATH  +SUBPRBOM    EQU  20                      BUFFER OVER PARTNER'S MAXIMUM
                                    4905  1 01-PATH  +SUBPRIBS    EQU  24                      RECEIVE BUFFER TOO SMALL
                                    4906  1 01-PATH  +SUBPRBPI    EQU  28                      INVALID BUFFER POINTER
                                    4907  1 01-PATH  +SUBPRIAD    EQU  32                      INVALID ADDRESS
                                    4908  1 01-PATH  +SUBPRES1    EQU  36                      RESERVED
                                    4909  1 01-PATH  +SUBPRES2    EQU  40                      RESERVED
                                    4910  1 01-PATH  +SUBPRES3    EQU  44                      RESERVED
                                    4911  1 01-PATH  +SUBPRES4    EQU  48                      RESERVED
                                    4912  1          +
                                    4913  1 01-PATH  +SUBPSIZE    EQU  *-SUBP        LENGTH OF PATH BLOCK
                                    4914  1          =SUBPATH    EQU   SUBPATHX,*-SUBPATHX,C'X'
                                    4915  1          =
 000080                             4916  1          =SUBSFLAG   DS    X                   Susan post flag byte
 000081                             4917  1          =           DS    XL3                 Reserved
 000084                00084 00084  4918             =         END
1SIFT     (SIFT2047) (12:37) (15MAR04) DSECTS                                                                               Page    6
0Current Usings:  (CV,R12)
0Loc    Object Code    Addr1 Addr2  Stmt Lv Lineno    Source Statement           (Hibal 5, Asmedit 3.3)  HLASM R4.0  2004/03/15 12.37
+___    ______ ____    _____ _____  ____ __ ______    ______ _________
0                                   4928                       COPY  XLE
 000000                00000 00400  4929             =XLE      RECORD BEGIN
 000000                             4937  1          =XLEIN      DS    0XL512              input translation
 000000                             4938  1          =XLEINTR    DS    XL256               .input tr table
 000100                             4939  1          =XLEINTRT   DS    XL256               .input trt table
                                    4940  1          =
 000200                             4941  1          =XLEOUT     DS    0XL512              output translation
 000200                             4942  1          =XLEOUTR    DS    XL256               .output tr table
 000300                             4943  1          =XLEOUTRT   DS    XL256               .output trt table
 000400                00400 00400  4944             =         END
-                                   4954             =*  definition for bytes in the trt table:
                                    4955             =XLEFINV  EQU   1                   - invalid character
                                    4956             =XLEFIGN  EQU   2                   - ignore character
1SIFT     (SIFT2047) (12:37) (15MAR04) DSECTS                                                                               Page    7
0Current Usings:  (CV,R12)
0Loc    Object Code    Addr1 Addr2  Stmt Lv Lineno    Source Statement           (Hibal 5, Asmedit 3.3)  HLASM R4.0  2004/03/15 12.37
+___    ______ ____    _____ _____  ____ __ ______    ______ _________
0                                   4958                       COPY  SSB
                                    4959             =*
                                    4960             =**  SUBSYSTEM STATUS BLOCK
                                    4961             =*
 000000                00000 00038  4962             =SSB      RECORD BEGIN
 000000                             4970  1          =SSBID      DS    H                   SUBSYSTEM IDENTIFIER
 000002                             4971  1          =           DS    H                   RESERVED
                                    4972  1          =
 000004                             4973  1          =SSBNAME    DS    CL8                 SUBSYSTEM NAME
 00000C                             4974  1          =SSBJOBNM   DS    CL8                 SUBSYSTEM JOBNAME
 000014 00                          4975  1          =SSBFLAG    FLAG
 SSBFLAG.SSBFPRIV  80 ONES          4979  1          =           FLAG  SSBFPRIV            - PRIV'D SUBSYSTEM
                                    4984  1          =
 000015                             4985  1          =           DS    XL3                 RESERVED
                                    4986  1          =
 000018                             4987  1          =SSBSCLCK   DS    XL8                 CLOCK AT START
                                    4988  1          =
 000020                             4989  1          =SSBMAX     DS    H                   MAXIMUM NO. OF SESSIONS
 000022                             4990  1          =SSBCUR     DS    H                   CURRENT NO. OF SESSIONS
                                    4991  1          =
 000024                             4992  1          =SSBNIO     DS    F                   TOTAL NO. OF I/O'S
 000028                             4993  1          =SSBNCNTL   DS    F                   TOTAL NO. OF CONTROLS
 00002C                             4994  1          =SSBNSES    DS    F                   TOTAL NO. OF SESSIONS
 000030                             4995  1          =           DS    2F                  RESERVED
                                    4996  1          =SSBBASIC   EQU   SSBNAME,*-SSBNAME,C'X'  ******
 000038                00038 00038  4997             =         END
1SIFT     (SIFT2047) (12:37) (15MAR04) DSECTS                                                                               Page    8
0Current Usings:  (CV,R12)
0Loc    Object Code    Addr1 Addr2  Stmt Lv Lineno    Source Statement           (Hibal 5, Asmedit 3.3)  HLASM R4.0  2004/03/15 12.37
+___    ______ ____    _____ _____  ____ __ ______    ______ _________
0                                   5007                       COPY  FSB
                                    5008             =*
                                    5009             =**  Front-End Status Block
                                    5010             =*
 000000                00000 00090  5011             =FSB      RECORD BEGIN
 000000                             5019  1          =FSBID      DS    H                   Front-end identifier
                                    5020  1          =
 000002 00                          5021  1          =FSBTYPE    FLAG
 FSBTYPE.FSBTCONS  01 EQ            5025  1          =           FLAG  (FSBTCONS,1,EQ)     - Console
 FSBTYPE.FSBTASYN  02 EQ            5035  1          =           FLAG  (FSBTASYN,2,EQ)     - Async
 FSBTYPE.FSBTPDP   03 EQ            5045  1          =           FLAG  (FSBTPDP,3,EQ)      - Pdp
 FSBTYPE.FSBTVTAM  04 EQ            5055  1          =           FLAG  (FSBTVTAM,4,EQ)     - Vtam
 FSBTYPE.FSBTVIRT  05 EQ            5065  1          =           FLAG  (FSBTVIRT,5,EQ)     - Virtual
 FSBTYPE.FSBTNSC   06 EQ            5075  1          =           FLAG  (FSBTNSC,6,EQ)      - Nsc
 FSBTYPE.FSBTELF   07 EQ            5085  1          =           FLAG  (FSBTELF,7,EQ)      - Elf
 FSBTYPE.FSBTALF   08 EQ            5095  1          =           FLAG  (FSBTALF,8,EQ)      - Alf
 FSBTYPE.FSBTECU   09 EQ            5105  1          =           FLAG  (FSBTECU,9,EQ)      - ECU
 FSBTYPE.FSBTMAX   09 EQ            5115  1          =           FLAG  (FSBTMAX,9,EQ)
                                    5125  1          =
 000003                             5126  1          =           DS    X                   Reserved
                                    5127  1          =
 000004                             5128  1          =FSBFEBP    DS    A                   Address of FEB
                                    5129  1          =
 000008                             5130  1          =FSBUC      DS    H                   Update count
 00000A                             5131  1          =FSBTMLIM   DS    H                   Notime limit during PEAK times
                                    5132  1          =
 00000C                             5133  1          =FSBNAME    DS    CL8                 Front-end name
 000014                             5134  1          =FSBINFO    DS    CL12                Front-end info (text)
                                    5135  1          =
 000020                             5136  1          =FSBMCLCK   DS    XL8                 Clock when message was set
 000028                             5137  1          =FSBMSG     DS    CL64                Front-end message
                                    5138  1          =
 000068 00                          5139  1          =FSBPFLG    FLAG
 FSBPFLG.FSBFPS    80 ONES          5143  1          =           FLAG  FSBFPS              - "Pseudo" front-end
 FSBPFLG.FSBFLEAS  40 ONES          5148  1          =           FLAG  FSBFLEAS            - Front-end is leased
 FSBPFLG.FSBFRLIN  20 ONES          5153  1          =           FLAG  FSBFRLIN            - Front-end belongs to rlin
                                    5158  1          =
 000069 00                          5159  1          =FSBPFLG2   FLAG
 FSBPFLG2.FSBFCLS  80 ONES          5163  1          =           FLAG  FSBFCLS             - Closed
 FSBPFLG2.FSBFDET  40 ONES          5168  1          =           FLAG  FSBFDET             - Detached
 FSBPFLG2.FSBFDOWN 20 ONES          5173  1          =           FLAG  FSBFDOWN            - Status: down
                                    5178  1          =
 00006A                             5179  1          =FSBQMAX    DS    H                   Maximum I/O queue size
                                    5180  1          =
 00006C                             5181  1          =FSBPCUR    DS    H                   Current no. of ports
 00006E                             5182  1          =FSBPMAX    DS    H                   Max no. of ports
                                    5183  1          =
 000070                             5184  1          =FSBSCLCK   DS    XL8                 Clock at start
                                    5185  1          =
 000078                             5186  1          =FSBSCUR    DS    H                   Current no. of sessions
 00007A                             5187  1          =FSBSMAX    DS    H                   Max no. of sessions
 00007C                             5188  1          =FSBSMCLK   DS    XL8                 Clock at max
 000084                             5189  1          =FSBNSES    DS    F                   Total no. of sessions
                                    5190  1          =
1SIFT     (SIFT2047) (12:37) (15MAR04) DSECTS                                                                               Page    9
0Current Usings:  (CV,R12)
0Loc    Object Code    Addr1 Addr2  Stmt Lv Lineno    Source Statement           (Hibal 5, Asmedit 3.3)  HLASM R4.0  2004/03/15 12.37
+___    ______ ____    _____ _____  ____ __ ______    ______ _________
0000088                             5191  1          =FSBNIO     DS    F                   Total no. of I/O's
 00008C                             5192  1          =FSBNHWE    DS    F                   Total no. of hw errors
                                    5193  1          =FSBBASIC   EQU   FSBUC,*-FSBUC,C'X'  ******
 000090                00090 00090  5194             =         END
1SIFT     (SIFT2047) (12:37) (15MAR04) DSECTS                                                                               Page   10
0Current Usings:  (CV,R12)
0Loc    Object Code    Addr1 Addr2  Stmt Lv Lineno    Source Statement           (Hibal 5, Asmedit 3.3)  HLASM R4.0  2004/03/15 12.37
+___    ______ ____    _____ _____  ____ __ ______    ______ _________
0                                   5204                       COPY  PSB
                                    5205             =*
                                    5206             =**  Port Status Block
                                    5207             =*
 000000                00000 00074  5208             =PSB      RECORD BEGIN
 000000                             5216  1          =PSBFEID    DS    H                   Front-end identifier
 000002                             5217  1          =PSBPNO     DS    H                   Port number
                                    5218  1          =
 000004 00                          5219  1          =PSBTTYPE   FLAG  ,                   Terminal type (copy of FEBTYPE)
 PSBTTYPE.PSBTCONS 01 EQ            5223  1          =           FLAG  (PSBTCONS,1,EQ)     - Console
 PSBTTYPE.PSBTASYN 02 EQ            5233  1          =           FLAG  (PSBTASYN,2,EQ)     - Async
 PSBTTYPE.PSBTPDP  03 EQ            5243  1          =           FLAG  (PSBTPDP,3,EQ)      - Pdp
 PSBTTYPE.PSBTVTAM 04 EQ            5253  1          =           FLAG  (PSBTVTAM,4,EQ)     - Vtam
 PSBTTYPE.PSBTVIRT 05 EQ            5263  1          =           FLAG  (PSBTVIRT,5,EQ)     - Virtual
 PSBTTYPE.PSBTNSC  06 EQ            5273  1          =           FLAG  (PSBTNSC,6,EQ)      - Nsc
 PSBTTYPE.PSBTELF  07 EQ            5283  1          =           FLAG  (PSBTELF,7,EQ)      - Elf
 PSBTTYPE.PSBTALF  08 EQ            5293  1          =           FLAG  (PSBTALF,8,EQ)      - Alf
 PSBTTYPE.PSBTECU  09 EQ            5303  1          =           FLAG  (PSBTECU,9,EQ)      - ECU
 PSBTTYPE.PSBTMAX  09 EQ            5313  1          =           FLAG  (PSBTMAX,9,EQ)
                                    5323  1          =
 000005                             5324  1          =           DS    XL3                 Reserved
                                    5325  1          =
 000008                             5326  1          =PSBPIBP    DS    A                   Address of PIB
                                    5327  1          =
 00000C                             5328  1          =PSBFENM    DS    CL8                 Front-end name
                                    5329  1          =
 000014                             5330  1          =PSBUC      DS    H                   Update count
                                    5331  1          =
 000016                             5332  1          =           DS    XL2                 Reserved
                                    5333  1          =
 000018                             5334  1          =PSBNAME    DS    CL8                 Port name
 000020                             5335  1          =PSBINFO    DS    CL20                Port information
 000034                             5336  1          =PSBLOC     DS    CL20                Port location
                                    5337  1          =
 000048 00                          5338  1          =PSBFLAG    FLAG
 PSBFLAG.PSBFDIAL  80 ONES          5342  1          =           FLAG  PSBFDIAL            - Dial-up
 PSBFLAG.PSBFSUN   40 ONES          5347  1          =           FLAG  PSBFSUN             - SUNet
 PSBFLAG.PSBFDIR   20 ONES          5352  1          =           FLAG  PSBFDIR             - Direct
 PSBFLAG.PSBFGAND  10 ONES          5357  1          =           FLAG  PSBFGAND            - Gandalf
 PSBFLAG.PSBFDUMB  08 ONES          5362  1          =           FLAG  PSBFDUMB            - Dumb front-end
                                    5367  1          =
 000049 00                          5368  1          =PSBFLAG2   FLAG
 PSBFLAG2.PSBFLEAS 80 ONES          5372  1          =           FLAG  PSBFLEAS            - Teased
 PSBFLAG2.PSBFTEL  40 ONES          5377  1          =           FLAG  PSBFTEL             - Telenet
 PSBFLAG2.PSBFTYM  20 ONES          5382  1          =           FLAG  PSBFTYM             - Tymnet
 PSBFLAG2.PSBFRLIN 10 ONES          5387  1          =           FLAG  PSBFRLIN            - Rlin
                                    5392  1          =
 00004A 00                          5393  1          =PSBFLAG3   FLAG
 PSBFLAG3.PSBFPS   80 ONES          5397  1          =           FLAG  PSBFPS              - "Pseudo" port
 PSBFLAG3.PSBFPTID 40 ONES          5402  1          =           FLAG  PSBFPTID            - Terminal id is pre-assigned
 PSBFLAG3.PSBFOP   20 ONES          5407  1          =           FLAG  PSBFOP              - Operator
                                    5412  1          =
 00004B 00                          5413  1          =PSBFLAG4   FLAG
 PSBFLAG4.PSBFSTOP 80 ONES          5417  1          =           FLAG  PSBFSTOP            - Stopped
1SIFT     (SIFT2047) (12:37) (15MAR04) DSECTS                                                                               Page   11
0Current Usings:  (CV,R12)
0Loc    Object Code    Addr1 Addr2  Stmt Lv Lineno    Source Statement           (Hibal 5, Asmedit 3.3)  HLASM R4.0  2004/03/15 12.37
+___    ______ ____    _____ _____  ____ __ ______    ______ _________
0PSBFLAG4.PSBFDET  40 ONES          5422  1          =           FLAG  PSBFDET             - Detached
 PSBFLAG4.PSBFDUM  20 ONES          5427  1          =           FLAG  PSBFDUM             - Dummy
                                    5432  1          =
 00004C 00                          5433  1          =PSBFLAG5   FLAG
 PSBFLAG5.PSBFDOWN 80 ONES          5437  1          =           FLAG  PSBFDOWN            - Status: down
 PSBFLAG5.PSBFHU   40 ONES          5442  1          =           FLAG  PSBFHU              - Status: hung-up
 PSBFLAG5.PSBFERR  20 ONES          5447  1          =           FLAG  PSBFERR             - Status: serious error occurred
                                    5452  1          =
 00004D                             5453  1          =           DS    X                   Reserved
                                    5454  1          =
 00004E                             5455  1          =PSBSCUR    DS    H                   Current no. of sessions
 000050                             5456  1          =PSBSMAX    DS    H                   Max no. of sessions
 000052                             5457  1          =PSBSMCLK   DS    XL8                 Clock at max
 00005C                             5458  1          =PSBNSES    DS    F                   Total no. of sessions
                                    5459  1          =
 000060                             5460  1          =PSBNIO     DS    F                   Total no. of I/O's
 000064                             5461  1          =PSBNHWE    DS    F                   Total no. of hw errors
                                    5462  1          =
 000068                             5463  1          =           DS    3F                  Reserved
                                    5464  1          =PSBBASIC   EQU   PSBUC,*-PSBUC,C'X'  ******
 000074                00074 00074  5465             =         END
1SIFT     (SIFT2047) (12:37) (15MAR04) DSECTS                                                                               Page   12
0Current Usings:  (CV,R12)
0Loc    Object Code    Addr1 Addr2  Stmt Lv Lineno    Source Statement           (Hibal 5, Asmedit 3.3)  HLASM R4.0  2004/03/15 12.37
+___    ______ ____    _____ _____  ____ __ ______    ______ _________
0                                   5475                       COPY  DEVTRC
                                    5476             =DTRC#    EQU   20                  Number of trace entries wanted
                                    5477             =*
                                    5478             =**  DEVICE TRACE FORMAT
                                    5479             =*
 000000                00000 00010  5480             =DTRC     RECORD BEGIN
 000000                             5488  1          =DTRCCLCK   DS    D                   STCK clock
                                    5489  1          =
 000008                             5490  1          =DTRCNAME   DS    CL8                 Type of operation
 000010                00010 00010  5491             =         END
1SIFT     (SIFT2047) (12:37) (15MAR04) DSECTS                                                                               Page   13
0Current Usings:  (CV,R12)
0Loc    Object Code    Addr1 Addr2  Stmt Lv Lineno    Source Statement           (Hibal 5, Asmedit 3.3)  HLASM R4.0  2004/03/15 12.37
+___    ______ ____    _____ _____  ____ __ ______    ______ _________
0                                   5501                       COPY  STRC
                                    5502=            =¿þþþþþþþþþþþþþþþþþþþþþþþþþþþþþþþþþþþþþþþþþþþþþþþþþþþþþþþþþþþþþþþþþþþþþÜ
                                    5503=            =Ÿ                                                                     Ÿ
                                    5504=            =Ÿ  STRC -- Session terminal I/O trace entry.                          Ÿ
                                    5505=            =Ÿ                                                                     Ÿ
                                                      ¾þþþþþþþþþþþþþþþþþþþþþþþþþþþþþþþþþþþþþþþþþþþþþþþþþþþþþþþþþþþþþþþþþþþþþ»
0                                   5506             =STRCMAX# EQU   500,,C'X'           Max number of trace entries
                                    5507             =
 000000                00000 0002C  5508             =STRC     RECORD BEGIN
 000000                             5516  1          =STRCSTRT   DS    CL4'STRC'           Self identification
 000004                             5517  1          =STRCLINK   DS    A                   Next STRC ptr (or zero)
 000008                             5518  1          =STRCCLCK   DS    D                   Time stamp
                                    5519  1          =
 000010 00                          5520  1          =STRCFLAG   FLAG
 STRCFLAG.STRCFASC 80 ONES          5524  1          =           FLAG  STRCFASCII          - Trace text is in ASCII
                                    5529  1          =
 000011                             5530  1          =STRCTYPE   DS    CL16                Trace type
                                    5531  1          =
 000024                             5532  1          =STRCUID    DS    F                   Unique trace ID
                                    5533  1          =
 000028                             5534  1          =STRCACTLEN    DS H                   Actual length
 00002A                             5535  1          =STRCDLEN   DS    H                   Data length
                                    5536  1          =STRCHDR    EQU   STRCSTRT,*-STRCSTRT,C'X'
                                    5537  1          =
                                    5538  1          =STRCMXDL   EQU   1000,,C'N'          Max allowed trace data length
 00002C                             5539  1          =STRCDATA   DS    0X                  Data starts here (variable len)
 00002C                0002C 0002C  5540             =         END
1SIFT     (SIFT2047) (12:37) (15MAR04) DSECTS                                                                               Page   14
0Current Usings:  (CV,R12)
0Loc    Object Code    Addr1 Addr2  Stmt Lv Lineno    Source Statement           (Hibal 5, Asmedit 3.3)  HLASM R4.0  2004/03/15 12.37
+___    ______ ____    _____ _____  ____ __ ______    ______ _________
0                                   5550                       COPY  SUBPOOLS
                                    5551             =WTOQSUBP EQU   11                  Subpool for WTOQ elements
                                    5552             =IOHQSUBP EQU   12                  Subpool for IOHQ elements
                                    5553             =SCBSUBPL EQU   13                  Subpool for SCBs
                                    5554             =TRCSUBPL EQU   14                  Subpool for TRC entries
                                    5555             =TQESUBPL EQU   15                  Timer queue subpool
                                    5556             =FEBSUBPL EQU   16                  FEBs (non-page fixed)
                                    5557             =PIBSUBPL EQU   17                  PIBS (non-page fixed)
                                    5558             =SUBSUBPL EQU   18                  Subsystem blocks
                                    5559             =STRCSUBP EQU   19                  Session trace buffers
                                    5560             =QPDBSUBP EQU   20                  Queued PDBs
                                    5561             =SPDBSUBP EQU   21                  Saved PDBs
                                    5562             =PRMTSUBP EQU   22                  Saved prompts
                                    5563             =RTXTSUBP EQU   23                  Saved read text
                                    5564             =SQPDSUBP EQU   24                  Queued PDBs on subsystem
                                    5565             =CONSQPDB EQU   25                  Queued CONS PDBs
                                    5566             =PATSUBP  EQU   26                  Port address tables
                                    5567             =TRCHSUBP EQU   27                  Device trace table hdrs
                                    5568             =ITBLSUBP EQU   28                  Input xlate table
                                    5569             =MCOMSUBP EQU   29                  MCOM command buffers
                                    5570             =STMPSUBP EQU   30                  MCOM temp trace buffer
                                    5571             =EIBSUBP  EQU   31                  ELF EIB
                                    5572             =AMYQSUBP EQU   32                  Amelia queue ELF
                                    5573             =SOCKSUBP EQU   33                  ELF SOCK control block
                                    5574             =SMSGSUBP EQU   34                  Saved socket msg (ELF)
                                    5575             =PWRTSUBP EQU   35                  ELF Path write subpool
                                    5576             =TELISUBP EQU   36                  Telnet input data buffer
                                    5577             =EPIBSUBP EQU   37                  ELF PIB input buffer
                                    5578             =VPATSUBP EQU   38                  VIRT PAT
                                    5579             =VBUFSUBP EQU   39                  SDD VTAM buffer
                                    5580             =VRUSUBP  EQU   40                  SDD RU
                                    5581             =VDPBSUBP EQU   41                  VTAM dummy PIB
                                    5582             =VPPSUBP  EQU   42                  VTAM PIB parms
                                    5583             =VISTSUBP EQU   43                  VTAM FEB IRB stack
                                    5584             =VACBSUBP EQU   44                  VTAM ACB subpool
                                    5585             =VRPLSUBP EQU   45                  VTAM RPL subpool
                                    5586             =VSRRSUBP EQU   46                  VSRR VBUF
                                    5587             =VNIBSUBP EQU   47                  VSRR NIB
                                    5588             =VBNDSUBP EQU   48                  BIND area VSRR
                                    5589             =VDVCSUBP EQU   49                  DVCHAR subpool VSRR
                                    5590             =VRBFSUBP EQU   50                  Reply buffer
                                    5591             =V3BFSUBP EQU   51                  D3767 VBUF
                                    5592             =RSYNSUBP EQU   52                  RSYN RPL data
                                    5593             =RESPSUBP EQU   53                  RESP RPL subpool
                                    5594             =REXPSUBP EQU   54                  Expedited flow subpool
1SIFT     (SIFT2047) (12:37) (15MAR04) DSECTS                                                                               Page   15
0Current Usings:  (CV,R12)
0Loc    Object Code    Addr1 Addr2  Stmt Lv Lineno    Source Statement           (Hibal 5, Asmedit 3.3)  HLASM R4.0  2004/03/15 12.37
+___    ______ ____    _____ _____  ____ __ ______    ______ _________
0                                   5596              ¿þþþþþþþþþþþþþþþþþþþþþþþþþþþþþþþþþþþþþþþþþþþþþþþþþþþþþþþþþþþþþþþþþþþþþÜ
                                    5597              Ÿ                                                                     Ÿ
                                    5598              Ÿ  Session information block                                          Ÿ
                                    5599              Ÿ                                                                     Ÿ
                                                      ¾þþþþþþþþþþþþþþþþþþþþþþþþþþþþþþþþþþþþþþþþþþþþþþþþþþþþþþþþþþþþþþþþþþþþþ»
0000000                00000 000FE  5600                       RECORD 'SIB'
 000000                             5611  1 03-SIB   +SIBSTART   DS    0F
 000000                             5612  1 03-SIB   +SIBID      DS    F                   Unique session number
 000004                             5613  1 03-SIB   +SIBNO      DS    H                   Session number
 000006                             5614  1 03-SIB   +SIBTMINC   DS    H                   No. minutes session was idle
                                    5615  1 03-SIB   +SIBIHDR    EQU   SIBSTART,*-SIBSTART,C'X'
                                    5616  1          +
 000008                             5617  1 03-SIB   +SIBFE      DS    CL8                 Front-end name
                                    5618  1          +
 000010                             5619  1 03-SIB   +SIBPORT    DS    CL8                 Port name
 000018                             5620  1 03-SIB   +SIBPINFO   DS    CL20                Port information
 00002C                             5621  1 03-SIB   +SIBPLOC    DS    CL20                Port location
 000040 00                          5622  1          +*
 SIBFL.SIBFDIAL    80 ONES
 SIBFL.SIBFSUN     40 ONES
 SIBFL.SIBFDIR     20 ONES
 SIBFL.SIBFGAND    10 ONES
 SIBFL.SIBFDUMB    08 ONES
 000041 00                          5652  1          +*
 SIBFL2.SIBFLEAS   80 ONES
 SIBFL2.SIBFTEL    40 ONES
 SIBFL2.SIBFTYM    20 ONES
 SIBFL2.SIBFRLIN   10 ONES
 000042 00                          5677  1          +*
 SIBFL3.SIBFPS     80 ONES
 SIBFL3.SIBFPTID   40 ONES
 SIBFL3.SIBFOP     20 ONES
 000043 00                          5697  1          +*
 SIBFL4.SIBFSTOP   80 ONES
 SIBFL4.SIBFDET    40 ONES
 SIBFL4.SIBFDUM    20 ONES
 000044 00                          5717  1          +*
 SIBFL5.SIBFDOWN   80 ONES
 SIBFL5.SIBFHU     40 ONES
 SIBFL5.SIBFERR    20 ONES
                                    5737  1          +*
 000045                             5738  1 03-SIB   +           DS    X                   Reserved
                                    5739  1 03-SIB   +SIBPIB     EQU   SIBPORT,*-SIBPORT,C'X'
                                    5740  1          +
 000048 00                          5741  1 03-SIB   +SIB1ST     DS    0F
 SIBTYPE.SIBTCONS  01 EQ
 SIBTYPE.SIBTASYN  02 EQ
 SIBTYPE.SIBTPDP   03 EQ
 SIBTYPE.SIBTVTAM  04 EQ
 SIBTYPE.SIBTVIRT  05 EQ
 SIBTYPE.SIBTNSC   06 EQ
 SIBTYPE.SIBTELF   07 EQ
 SIBTYPE.SIBTALF   08 EQ
1SIFT     (SIFT2047) (12:37) (15MAR04) DSECTS                                                                               Page   16
0Current Usings:  (CV,R12)
0Loc    Object Code    Addr1 Addr2  Stmt Lv Lineno    Source Statement           (Hibal 5, Asmedit 3.3)  HLASM R4.0  2004/03/15 12.37
+___    ______ ____    _____ _____  ____ __ ______    ______ _________
0                                   5826  1          +
 000049                             5827  1 03-SIB   +SIBTINFO   DS    XL2                 Terminal info flags
 00004B 00                          5828  1          +*
 SIBSTAT.SIBFDSC   80 ONES
 SIBSTAT.SIBFLGF   40 ONES
 SIBSTAT.SIBFSOF   20 ONES
 SIBSTAT.SIBFKL    10 ONES
 SIBSTAT.SIBFTO    08 ONES
 SIBSTAT.SIBFMT    04 ONES
 SIBSTAT.SIBFKEPT  02 ONES
                                    5868  1          +*
 00004C                             5869  1 03-SIB   +SIBNMSG    DS    H                   No. of async msgs waiting
                                    5870  1          +
 00004E                             5871  1 03-SIB   +SIBTETYP   DS    C                   SMF port type
 00004F                             5872  1 03-SIB   +           DS    X                   Reserved (was line-speed)
                                    5873  1          +
 000050                             5874  1 03-SIB   +SIBSUB     DS    CL8                 Current subsystem
                                    5875  1          +
 000058                             5876  1 03-SIB   +           DS    0F
 000058                             5877  1 03-SIB   +SIBVPGM    DS    CL8                 ORVYL program
 000060                             5878  1 03-SIB   +SIBVCPU    DS    F                   ORVYL CPU time used
 000064                             5879  1 03-SIB   +SIBVFLAG   DS    X                   ORVYL flags
                                    5880  1 03-SIB   +SIBVFRUN   EQU   X'80'               - Program is running (not paused)
                                    5881  1 03-SIB   +SIBVFATH   EQU   X'40'               - Program is authorized
 000065                             5882  1 03-SIB   +SIBVDIO    DS    XL3                 ORVYL Disk I/O
                                    5883  1 03-SIB   +SIBVINFO   EQU   SIBVPGM,*-SIBVPGM,C'X'
                                    5884  1          +
 000068                             5885  1 03-SIB   +SIBLCLCK   DS    XL8                 Tod clock at logon
                                    5886  1          +
                                    5887  1 03-SIB   +SIBACCT    EQU   *,5,C'C'            Account (uuugg)
 000070                             5888  1 03-SIB   +SIBUSER    DS    CL3                 .uuu
 000073                             5889  1 03-SIB   +SIBGRP     DS    CL2                 .gg
 000075                             5890  1 03-SIB   +SIBANO     DS    XL2                 .number
 000077 00                          5891  1          +*
 SIBSFLG.SIBSFNAT  80 ONES
 SIBSFLG.SIBSFNAR  40 ONES
 SIBSFLG.SIBSFPS   20 ONES
 SIBSFLG.SIBSFOP   10 ONES
 SIBSFLG.SIBSFSEC  08 ONES
 SIBSFLG.SIBSFPRT  04 ONES
 000078 00                          5926  1          +*
 SIBTACF.SIBFNST   80 ONES
 SIBTACF.SIBFNTM   40 ONES
 SIBTACF.SIBRSVX20 20 ONES
 SIBTACF.SIBRSVX10 10 ONES
 SIBTACF.SIBRSVX08 08 ONES
 SIBTACF.SIBRSVX04 04 ONES
 SIBTACF.SIBFNDAY  02 ONES
 SIBTACF.SIBRSVX01 01 ONES
                                    5971  1          +*
 000079                             5972  1 03-SIB   +           DS    X                   Reserved
 00007A 00                          5973  1          +*
 SIBKIFL.SIBFIVAL  80 ONES
 SIBKIFL.SIBFAPR   40 ONES
1SIFT     (SIFT2047) (12:37) (15MAR04) DSECTS                                                                               Page   17
0Current Usings:  (CV,R12)
0Loc    Object Code    Addr1 Addr2  Stmt Lv Lineno    Source Statement           (Hibal 5, Asmedit 3.3)  HLASM R4.0  2004/03/15 12.37
+___    ______ ____    _____ _____  ____ __ ______    ______ _________
0SIBKIFL.SIBFSPR   20 ONES
 SIBKIFL.SIBFOPR   10 ONES
 SIBKIFL.SIBFSBM   08 ONES
 SIBKIFL.SIBFSUB   04 ONES
 SIBKIFL.SIBFADM   02 ONES
 SIBKIFL.SIBFPC    01 ONES
 00007B 00                          6018  1          +*
 SIBKAFL.SIBFAVAL  80 ONES
 SIBKAFL.SIBFR1    40 ONES
 SIBKAFL.SIBFR2    20 ONES
 SIBKAFL.SIBFR3    10 ONES
 SIBKAFL.SIBFTOK   08 ONES
                                    6048  1          +*
 00007C                             6049  1 03-SIB   +SIBASCBP   DS    A                   ASCB addr, if virtual session
                                    6050  1 03-SIB   +SIBSESS    EQU   SIBACCT,*-SIBACCT,C'X'
                                    6051  1 03-SIB   +SIBINFO    EQU   SIBSTART,*-SIBSTART,C'X'
                                    6052  1          +***
                                    6053  1          +***  Fields below here can be modified by the user program.
                                    6054  1          +***
 000080                             6055  1 03-SIB   +SIBOPST    DS    0F
 000080                             6056  1 03-SIB   +SIBUC      DS    H                   Update count
 000082                             6057  1 03-SIB   +SIBNAME    DS    CL20                User name
 000096                             6058  1 03-SIB   +SIBTID     DS    CL8                 Terminal id
 00009E 00                          6059  1 03-SIB   +SIBTCLS    DS    CL8                 Terminal class
 SIBTFLAG.SIBFMOD  80 ONES
 SIBTFLAG.SIBFSAM  40 ONES
 SIBTFLAG.SIBFALTD 20 ONES
                                    6079  1          +
 0000A7                             6080  1 03-SIB   +           DS    XL1                 Reserved
 0000A8 00                          6081  1          +*
 SIBQFLG.SIBFVFAST 80 ONES
 0000A9 00                          6091  1          +*
 0000AA 00                          6096  1          +*
 SIBUFLG.SIBFNMSG  80 ONES
 SIBUFLG.SIBFNCOM  40 ONES
 SIBUFLG.SIBFNBRK  20 ONES
 SIBUFLG.SIBFNTIM  10 ONES
 SIBUFLG.SIBFCLN   08 ONES
 SIBUFLG.SIBFDISP  04 ONES
 SIBUFLG.SIBFPERM  02 ONES
 SIBUFLG.SIBFTRAN  01 ONES
 0000AB 00                          6141  1          +*
 SIBUFLG2.SIBFTRC  80 ONES
 SIBUFLG2.SIBFKEEP 40 ONES
                                    6156  1 03-SIB   +SIBG       EQU   SIBSTART,*-SIBSTART,C'X'
                                    6157  1          +***
                                    6158  1          +***  Information below this line is considered "private" and
                                    6159  1          +***    the user can only sense it for his own session.
                                    6160  1          +***
 0000AC                             6161  1 03-SIB   +SIBPROJ    DS    CL8                 Project-id
 0000B4 00                          6162  1          +*
 SIBFLG.SIBFUPL    80 ONES
 SIBFLG.SIBFBACK   40 ONES
 SIBFLG.SIBFFAST   20 ONES
1SIFT     (SIFT2047) (12:37) (15MAR04) DSECTS                                                                               Page   18
0Current Usings:  (CV,R12)
0Loc    Object Code    Addr1 Addr2  Stmt Lv Lineno    Source Statement           (Hibal 5, Asmedit 3.3)  HLASM R4.0  2004/03/15 12.37
+___    ______ ____    _____ _____  ____ __ ______    ______ _________
0SIBFLG.SIBFRSV8   10 ONES
 SIBFLG.SIBFPSP    08 ONES
 SIBFLG.SIBFXON    04 ONES
 SIBFLG.SIBFFILT   02 ONES
 SIBFLG.SIBFNECH   01 ONES
 0000B5 00                          6207  1          +*
 SIBFLG2.SIBFSAMFO 80 ONES
 SIBFLG2.SIBFERA   40 ONES
 SIBFLG2.SIBFNTYP  20 ONES
                                    6227  1          +*
 0000B6                             6228  1 03-SIB   +SIBINMX    DS    H                   Maximum input length allowed
 0000B8                             6229  1 03-SIB   +SIBOUMX    DS    H                   Maximum output length allowed
 0000BA                             6230  1 03-SIB   +SIBCHAR    DS    CL8                 Terminal translate table name
 0000C2                             6231  1 03-SIB   +SIBTABS    DS    XL16                Tabs
 0000D2 00                          6232  1          +*
 SIBOFLAG.SIBFPAR  80 ONES
 SIBOFLAG.SIBFEVEN 40 ONES
 SIBOFLAG.SIBFODD  20 ONES
 SIBOFLAG.SIBFMARK 10 ONES
 SIBOFLAG.SIBFQUIE 08 ONES
 0000D3                             6262  1 03-SIB   +           DS    X                   Reserved
 0000D4                             6263  1 03-SIB   +SIBWID     DS    H                   Terminal width, actual
 0000D6                             6264  1 03-SIB   +SIBHEIP    DS    H                   Terminal height, before pausing
 0000D8                             6265  1 03-SIB   +SIBHEI     DS    H                   Terminal height, actual
                                    6266  1          +
 0000DA                             6267  1 03-SIB   +SIBTTYPE   DS    CL8                 Terminal type
 0000E2                             6268  1 03-SIB   +           DS    XL2                 Reserved
 0000E4                             6269  1 03-SIB   +SIBIPADR   DS    F                   IP address for TCP/IP sessions
 0000E8                             6270  1 03-SIB   +           DS    XL2                 Reserved
                                    6271  1          +
 0000EA                             6272  1 03-SIB   +SIBIDMAX   DS    H                   Max no. of idle minutes allowed
                                    6273  1          +
 0000EC                             6274  1 03-SIB   +SIBALTWID   DS   H                   Alternate width (0=none)
 0000EE                             6275  1 03-SIB   +SIBALTHEI   DS   H                   Alternate height (0=none)
                                    6276  1          +
 0000F0                             6277  1 03-SIB   +SIBCRI     DS    2H                  CR idles
 0000F4                             6278  1 03-SIB   +SIBLFI     DS    H                   LF idles
 0000F6                             6279  1 03-SIB   +SIBHTI     DS    2H                  HT idles
 0000FA                             6280  1 03-SIB   +SIBCAI     DS    H                   Cursor-address idles
 0000FC                             6281  1 03-SIB   +SIBCSI     DS    H                   Clear-screen idles
                                    6282  1 03-SIB   +SIBIDLE    EQU   SIBCRI,*-SIBCRI,C'X'
                                    6283  1          +
                                    6284  1 03-SIB   +SIBOPT     EQU   SIBOPST,*-SIBOPST,C'X'
                                    6285  1          +
                                    6286  1 03-SIB   +SIB1       EQU   SIB1ST,*-SIB1ST,C'X'
                                    6287  1          +
 0000FE                000FE 000FE  6288    03-SIB   +SIB      EQU   SIBSTART,*-SIBSTART,C'X'
1SIFT     (SIFT2047) (12:37) (15MAR04) Subsystem Interface                                                                  Page   19
0Current Usings:  (CV,R12)
0Loc    Object Code    Addr1 Addr2  Stmt Lv Lineno    Source Statement           (Hibal 5, Asmedit 3.3)  HLASM R4.0  2004/03/15 12.37
+___    ______ ____    _____ _____  ____ __ ______    ______ _________
0                                   6299              ¿þþþþþþþþþþþþþþþþþþþþþþþþþþþþþþþþþþþþþþþþþþþþþþþþþþþþþþþþþþþþþþþþþþþþþÜ
                                    6300              Ÿ                                                                     Ÿ
                                    6301              Ÿ  SUBFIN -- Routine to finish initializing the subsystem interface.  Ÿ
                                    6302              Ÿ    (Note this includes creating MORT and waiting for it to          Ÿ
                                    6303              Ÿ    initialize.)                                                     Ÿ
                                    6304              Ÿ                                                                     Ÿ
                                                      ¾þþþþþþþþþþþþþþþþþþþþþþþþþþþþþþþþþþþþþþþþþþþþþþþþþþþþþþþþþþþþþþþþþþþþþ»
0000018 50E0 D044/902B_      00044  6305              SUBFIN   XPROC
 USING  *,R8
 000032 58E0 850E/0DEE       00530  6343                       ACALL SUBOPEN             Create a subsystem path
                                    6347                       ¿þþþþþþþþþþþþþþþþþþþþþþþþþþþþþþþþþþþþþÜ
                                    6348                       Ÿ  Start our local subsystem (mort).  Ÿ
                                    6349                       ¾þþþþþþþþþþþþþþþþþþþþþþþþþþþþþþþþþþþþþ»
 000038 5810 8512            00534  6350                       L     R1,=V(MORT)         Entry point
 00003C 4500 8026/D4D6_      00048  6351                       IDENTIFY EP=MORT,ENTRY=(1)
 00004A 41F0 8032/47F0_      00054  6356                       ATTACH EP=MORT,DPMOD=+1,ETXR=MORTFAIL,SHSPL=MORTSPL
 00009E 5010 C330            00330  6386                       ST    R1,CVMRTTCB
                                    6387                       ¿þþþþþþþþþþþþþþþþþþþþþþþþþþþþþþþþÜ
                                    6388                       Ÿ  Wait for mort to initialize.  Ÿ
                                    6389                       ¾þþþþþþþþþþþþþþþþþþþþþþþþþþþþþþþþ»
 0000A2 D603 C32C C32C_0032C 0032C  6390                       WHILE (CVMRTSUB,Z),BEGIN
 0000AC 4100 0001/4110_      00001  6408  1                      WAIT  ECB=CVECB
 0000B6 D703 C038 C038 00038 00038  6415  1                      CLEAR CVECB
 0000BC 58E0 8516/0DEE       00538  6422  1                      ACALL SUBDO               Process post if from subsys
 0000C2 47F0 8080            000A2  6426                       END
 0000C6 9240 C038      00038        6431                       MVI   CVECB,X'40'         Maybe other work to do
 0000CA 41D0 D030/982B_      00030  6432                       PEND
 DROP   *,R8
                                    6452              *
                                    6453              * List of all subpools that MILTEN must share with MORT
                                    6454              *
 0000DE 2C                          6455              MORTSPL  DC    AL1(MORTSPLL)        Number of entries
 0000DF 0B                          6456              MORTSPLS DC    AL1(WTOQSUBP)        Subpool for WTOQ elements
 0000E0 0C                          6457                       DC    AL1(IOHQSUBP)        Subpool for IOHQ elements
 0000E1 0D                          6458                       DC    AL1(SCBSUBPL)        Subpool for SCBs
 0000E2 0E                          6459                       DC    AL1(TRCSUBPL)        Subpool for TRC entries
 0000E3 0F                          6460                       DC    AL1(TQESUBPL)        Timer queue subpool
 0000E4 10                          6461                       DC    AL1(FEBSUBPL)        FEB (non-page fixed)
 0000E5 11                          6462                       DC    AL1(PIBSUBPL)        PIB (non-page fixed)
 0000E6 12                          6463                       DC    AL1(SUBSUBPL)        Subsystem blocks
 0000E7 13                          6464                       DC    AL1(STRCSUBP)        Session trace buffers
 0000E8 14                          6465                       DC    AL1(QPDBSUBP)        Queued PDBs
 0000E9 15                          6466                       DC    AL1(SPDBSUBP)        Saved PDBs
 0000EA 16                          6467                       DC    AL1(PRMTSUBP)        Saved prompts
 0000EB 17                          6468                       DC    AL1(RTXTSUBP)        Saved read text
 0000EC 18                          6469                       DC    AL1(SQPDSUBP)        Queued PDBs on subsystem
 0000ED 19                          6470                       DC    AL1(CONSQPDB)        Queued CONS PDBs
 0000EE 1A                          6471                       DC    AL1(PATSUBP)         Port address tables
 0000EF 1B                          6472                       DC    AL1(TRCHSUBP)        Device trace table hdrs
 0000F0 1C                          6473                       DC    AL1(ITBLSUBP)        Input xlate table
 0000F1 1D                          6474                       DC    AL1(MCOMSUBP)        MCOM command buffers
 0000F2 1E                          6475                       DC    AL1(STMPSUBP)        MCOM temp trace buffer
 0000F3 1F                          6476                       DC    AL1(EIBSUBP)         ELF EIB
1SIFT     (SIFT2047) (12:37) (15MAR04) Subsystem Interface                                                                  Page   20
0Current Usings:  (CV,R12)
0Loc    Object Code    Addr1 Addr2  Stmt Lv Lineno    Source Statement           (Hibal 5, Asmedit 3.3)  HLASM R4.0  2004/03/15 12.37
+___    ______ ____    _____ _____  ____ __ ______    ______ _________
00000F4 20                          6477                       DC    AL1(AMYQSUBP)        Amelia queue ELF
 0000F5 21                          6478                       DC    AL1(SOCKSUBP)        ELF SOCK control block
 0000F6 22                          6479                       DC    AL1(SMSGSUBP)        Saved socket msg (ELF)
 0000F7 23                          6480                       DC    AL1(PWRTSUBP)        ELF Path write subpool
 0000F8 24                          6481                       DC    AL1(TELISUBP)        Telnet input data buffer
 0000F9 25                          6482                       DC    AL1(EPIBSUBP)        ELF PIB input buffer
 0000FA 26                          6483                       DC    AL1(VPATSUBP)        VIRT PAT
 0000FB 27                          6484                       DC    AL1(VBUFSUBP)        SDD VTAM buffer
 0000FC 28                          6485                       DC    AL1(VRUSUBP)         SDD RU
 0000FD 29                          6486                       DC    AL1(VDPBSUBP)        VTAM dummy PIB
 0000FE 2A                          6487                       DC    AL1(VPPSUBP)         VTAM PIB parms
 0000FF 2B                          6488                       DC    AL1(VISTSUBP)        VTAM FEB IRB stack
 000100 2C                          6489                       DC    AL1(VACBSUBP)        VTAM ACB subpool
 000101 2D                          6490                       DC    AL1(VRPLSUBP)        VTAM RPL subpool
 000102 2E                          6491                       DC    AL1(VSRRSUBP)        VSRR VBUF
 000103 2F                          6492                       DC    AL1(VNIBSUBP)        VSRR NIB
 000104 30                          6493                       DC    AL1(VBNDSUBP)        BIND area VSRR
 000105 31                          6494                       DC    AL1(VDVCSUBP)        DVCHAR subpool VSRR
 000106 32                          6495                       DC    AL1(VRBFSUBP)        Reply buffer
 000107 33                          6496                       DC    AL1(V3BFSUBP)        D3767 VBUF
 000108 34                          6497                       DC    AL1(RSYNSUBP)        RSYN RPL data
 000109 35                          6498                       DC    AL1(RESPSUBP)        RESP RPL subpool
 00010A 36                          6499                       DC    AL1(REXPSUBP)        Expdited flow subpool
                                    6500              MORTSPLL EQU   *-MORTSPLS
-                                   6502                       ¿þþþþþþþþþþþþþþþþþþþþþþþþþþþþþþþþþþþþþþþþþþþþþþþþþþþþþþÜ
                                    6503                       Ÿ  Entered asynchronously if the mort subtask abends.  Ÿ
                                    6504                       ¾þþþþþþþþþþþþþþþþþþþþþþþþþþþþþþþþþþþþþþþþþþþþþþþþþþþþþþ»
 00010C 4110 0003/4100_      00003  6505              MORTFAIL WITH  (MORTFAIL,R15),'ABEND 3,DUMP'
 USING  MORTFAIL,R15
 DROP   MORTFAIL,R15
1SIFT     (SIFT2047) (12:37) (15MAR04) Subsystem Interface                                                                  Page   21
0Current Usings:  (CV,R12)
0Loc    Object Code    Addr1 Addr2  Stmt Lv Lineno    Source Statement           (Hibal 5, Asmedit 3.3)  HLASM R4.0  2004/03/15 12.37
+___    ______ ____    _____ _____  ____ __ ______    ______ _________
0                                   6539              ¿þþþþþþþþþþþþþþþþþþþþþþþþþþþþþþþþþþþþþþþþþþþþþþþþþþþþþþþþþþþþþþþþþþþþþÜ
                                    6540              Ÿ                                                                     Ÿ
                                    6541              Ÿ  SUBDIE -- Entered at termination to shutdown the subsystem         Ÿ
                                    6542              Ÿ    interface.                                                       Ÿ
                                    6543              Ÿ                                                                     Ÿ
                                                      ¾þþþþþþþþþþþþþþþþþþþþþþþþþþþþþþþþþþþþþþþþþþþþþþþþþþþþþþþþþþþþþþþþþþþþþ»
000011C 50E0 D044/902B_      00044  6544              SUBDIE   XPROC
 USING  *,R8
                                    6582
 000136 41B0 C2A0            002A0  6583                       LA    SUBR,CVSUBQH-(SUBLINK-SUB)  Dummy first link
 00013A                             6584                       LOOP  BEGIN
 USING  SUB,R11                     6590  1                      WITH  SUB
 00013A 58B0 B008/12BB_      00008  6602  1                      WHILE ('LT SUBR,SUBLINK',NZ)
 000144 D502 8446 B000_0056C 00000  6619  1                      FAIL  (SUB,NE,'SUB'),'Bad SUB ptr'
 00015C D607 B024 B024_00024 00024  6645  1                      IF    (SUBSCLCK,NZ),BEGIN  Active subsystem...
 000166 59B0 C32C/4780_      0032C  6661  2                        IF    (SUBR,EQ,CVMRTSUB),EXIT  Don't kill mort
 00016E 9180 B080/4710_00080        6681  2                        IF    SUBSFLAG.SUBPFCLS,EXIT
 000176 58A0 C060            00060  6700  2                        L     PDBR,CVPDBP
 USING  PDB,R10                     6701  2                        WITH  PDB
 00017A D737 A000 A000 00000 00000  6713  2                        CLEAR PDBHDR
 000180 D201 A000 8444 00000 0056A  6720  2                        MVC   PDBLENG,=AL2(L'PDBHDR)
 000186 9230 A006      00006        6721  2                        MVI   PDBCMD,FMILSTOP     Shutdown request
 00018A 41F0 A000            00000  6722  2                        LA    R15,PDB
 00018E 58E0 8416/0DEE       0053C  6723  2                        ACALL PATHSEND            Tell subsystem to go
 DROP   PDB,R10                     6727  1                      END
 000194 47F0 8014            0013A  6736                       END
 DROP   SUB,R11
                                    6746
 000198 4110 841A/1BFF_      00540  6747                       STIMER WAIT,BINTVL==A(50)  1/2 second for safety
 0001A8 41D0 D030/982B_      00030  6755                       PEND
 DROP   *,R8
1SIFT     (SIFT2047) (12:37) (15MAR04) Subsystem Interface                                                                  Page   22
0Current Usings:  (CV,R12)
0Loc    Object Code    Addr1 Addr2  Stmt Lv Lineno    Source Statement           (Hibal 5, Asmedit 3.3)  HLASM R4.0  2004/03/15 12.37
+___    ______ ____    _____ _____  ____ __ ______    ______ _________
0                                   6776              ¿þþþþþþþþþþþþþþþþþþþþþþþþþþþþþþþþþþþþþþþþþþþþþþþþþþþþþþþþþþþþþþþþþþþþþÜ
                                    6777              Ÿ                                                                     Ÿ
                                    6778              Ÿ  SUBOPEN -- Routine to create and open a subsystem path.            Ÿ
                                    6779              Ÿ                                                                     Ÿ
                                    6780              Ÿ    On exit:                                                         Ÿ
                                    6781              Ÿ      R1 - new SUB ptr                                               Ÿ
                                    6782              Ÿ                                                                     Ÿ
                                                      ¾þþþþþþþþþþþþþþþþþþþþþþþþþþþþþþþþþþþþþþþþþþþþþþþþþþþþþþþþþþþþþþþþþþþþþ»
00001BC 50E0 D044/902B_      00044  6783              SUBOPEN  PROC
 USING  *,R8
 0001D6 4100 0084            00084  6819                       LA    R0,L'SUB
 0001DA 4110 0012            00012  6820                       LA    R1,SUBSUBPL
 0001DE 182E                        6821                       LR    R2,RAR
 0001E0 58E0 837E/0DEE       00544  6822                       VCALL NGETCORE
 0001E6 18B1                        6826                       LR    SUBR,R1
 USING  SUB,R11                     6827                       WITH  SUB
 0001E8 D783 B000 B000 00000 00000  6839                       CLEAR SUB
 0001EE D203 B000 8382 00000 00548  6846                       MVC   SUB(4),=CL4'SUB'
 0001F4 41F0 0001/5EF0_      00001  6847                       INCR  R15,CVSUBID
 000200 40F0 B004            00004  6853                       STH   R15,SUBID           Save SUB identifier
 000204 D237 B048 83AE 00048 00574  6854                       MVC   SUBPATH,MODLPATH
 00020A 9180 C13C/47E0_0013C        6855                       IF    CVFTEST,'MVI SUBPPASS,C"T"'
 000216 4110 C038            00038  6876                       LA    R1,CVECB
 00021A 5010 B070            00070  6877                       ST    R1,SUBPECB          Save ecb ptr
 00021E 4110 B080            00080  6878                       LA    R1,SUBSFLAG
 000222 5010 B068            00068  6879                       ST    R1,SUBPECBF         Save flag ptr
 000226 4110 B048            00048  6880                       LA    R1,SUBPATH
 00022A 5010 C248            00248  6881                       ST    R1,CVWORK
 00022E 9680 C248      00248        6882                       OI    CVWORK,X'80'
 000232 1B00/1BFF/4110_             6883                       SCOM  OPEN,CVWORK         Open
 00023C 12FF/4780 8098_             6900                       FAIL  (R15,NZ),'Subsystem open path error'
                                    6923
 00025E 58F0 C2AC            002AC  6924                       L     R15,CVSUBQT
 000262 50B0 F008/50B0_      00008  6925                       WITH  (SUB,R15),'ST SUBR,SUBLINK; ST SUBR,CVSUBQT'  Link up
 USING  SUB,R15
 DROP   SUB,R15
                                    6950
 00026A 181B                        6951                       LR    R1,SUBR
 00026C 41D0 D030/982B_      00030  6952                       PEND
 DROP   SUB,R11
 DROP   *,R8
1SIFT     (SIFT2047) (12:37) (15MAR04) Subsystem Interface                                                                  Page   23
0Current Usings:  (CV,R12)
0Loc    Object Code    Addr1 Addr2  Stmt Lv Lineno    Source Statement           (Hibal 5, Asmedit 3.3)  HLASM R4.0  2004/03/15 12.37
+___    ______ ____    _____ _____  ____ __ ______    ______ _________
0                                   6978              ¿þþþþþþþþþþþþþþþþþþþþþþþþþþþþþþþþþþþþþþþþþþþþþþþþþþþþþþþþþþþþþþþþþþþþþÜ
                                    6979              Ÿ                                                                     Ÿ
                                    6980              Ÿ  SUBCLS -- Routine to close and free subsystem path.                Ÿ
                                    6981              Ÿ                                                                     Ÿ
                                    6982              Ÿ    On entry:                                                        Ÿ
                                    6983              Ÿ      R1 - SUB ptr                                                   Ÿ
                                    6984              Ÿ                                                                     Ÿ
                                                      ¾þþþþþþþþþþþþþþþþþþþþþþþþþþþþþþþþþþþþþþþþþþþþþþþþþþþþþþþþþþþþþþþþþþþþþ»
0000280 50E0 D044/902B_      00044  6985              SUBCLS   PROC
 USING  *,R8
 00029A 18B1                        7021                       LR    SUBR,R1
 USING  SUB,R11                     7022                       WITH  SUB
                                    7034
 00029C D502 82E2 B000_0056C 00000  7035                       FAIL  (SUB,NE,'SUB'),'Bad SUB control block'
                                    7061
 0002BE 59B0 C32C/4770_      0032C  7062                       FAIL  (SUBR,EQ,CVMRTSUB),'MILTEN/MORT problem'
                                    7088
 0002DC 59B0 C75C/4770_      0075C  7089                       IF    (SUBR,EQ,CVCURSUB),'CLEAR CVCURSUB'  Reset current
                                    7118
 0002EA 41F0 0004/5800_      00004  7119                       SCOM  CLOSE,0,SUBPMGC     Close path
 0002F6 59F0 82C2/4770_      0054C  7137                       IF    (R15,EQ,4),BEGIN
 0002FE 0700/4510 80AC_             7154  1                      WTO   'SCOM close error (invalid function) - ignored.'
 000338 1BFF                        7162  1                      CLEAR R15                 This must be a bug in Suzan
 00033A                             7166                       END
 00033A 12FF/4780 80C8_             7170                       FAIL  (R15,NZ),'SUB path error'
                                    7193                       ¿þþþþþþþþþþþþþþþþþþþþþþþþþþþþþþþþþþþþþþþþþþþþþþþþþþÜ
                                    7194                       Ÿ  The default subsystem (WYLBUR) is terminating.  Ÿ
                                    7195                       ¾þþþþþþþþþþþþþþþþþþþþþþþþþþþþþþþþþþþþþþþþþþþþþþþþþþ»
 000352 D507 B010 C290_00010 00290  7196                       IF    (SUBNAME,EQ,CVDEFSYS),BEGIN  Defsys closing...
 00035C 947F C13D/D703_0013D        7214  1                      CLEAR CVFDFSYS,CVDEFSUB   No default system any more
                                    7226  1                      ¿þþþþþþþþþþþþþþþþþþþþþþþþþþþþþþþþþþþþþþþþÜ
                                    7227  1                      Ÿ  Terminate ORVYL if WYLBUR goes down.  Ÿ
                                    7228  1                      ¾þþþþþþþþþþþþþþþþþþþþþþþþþþþþþþþþþþþþþþþþ»
 000366 4120 C2A0            002A0  7229  1                      LA    R2,CVSUBQH-(SUBLINK-SUB)  Dummy first link
 00036A                             7230  1                      LOOP  BEGIN
 DROP   SUB,R11                     7236  2                        WITH  (SUB,R2)
 USING  SUB,R2
 00036A 5820 2008/1222_      00008  7257  2                        WHILE ('LT R2,SUBLINK',NZ)
 000374 D504 82E5 2010_0056F 00010  7274  2                        IF    (SUBNAME,EQ,'ORVYL'),BEGIN
 00037E 58F0 2080/4110_      00080  7291  3                          SET   SUBSFLAG.SUBPFCLS,MODE=LOCKED,REF=SUB
 000396                             7306  2                        END
 000396 47F0 80E0            0036A  7310  1                      END
 USING  SUB,R11
 DROP   SUB,R2
 00039A                             7329                       END
                                    7333                       ¿þþþþþþþþþþþþþþþþþþþþþþþþþþþþþþþþþþþþþþþþþþþþþþþþþþþþÜ
                                    7334                       Ÿ  Close virtual terminal paths if ORVYL goes down.  Ÿ
                                    7335                       ¾þþþþþþþþþþþþþþþþþþþþþþþþþþþþþþþþþþþþþþþþþþþþþþþþþþþþ»
 00039A D504 82E5 B010_0056F 00010  7336                       IF    (SUBNAME,EQ,'ORVYL'),BEGIN  ORVYL closing...
 0003A4 4170 C294            00294  7353  1                      LA    R7,CVFEBQH-(FEBLINK-FEB)  Dummy first link
 USING  FEB,R7                      7354  1                      WITH  (FEB,R7)
 0003A8 5870 7008/1277_      00008  7367  1                      WHILE ('LT R7,FEBLINK',NZ),BEGIN  Go through FEBs...
 0003B2 9505 700D/4770_0000D        7385  2                        IF    (FEBTYPE,EQ,FEBTVIRT),BEGIN  Virtual...
1SIFT     (SIFT2047) (12:37) (15MAR04) Subsystem Interface                                                                  Page   24
0Current Usings:  (FEB,R7) (*,R8) (SUB,R11) (CV,R12)
0Loc    Object Code    Addr1 Addr2  Stmt Lv Lineno    Source Statement           (Hibal 5, Asmedit 3.3)  HLASM R4.0  2004/03/15 12.37
+___    ______ ____    _____ _____  ____ __ ______    ______ _________
00003BA 4110 7000            00000  7403  3                          LA    R1,FEB
 0003BE 58E0 82C6/0DEE       00550  7404  3                          VCALL VIRTXCLS            Special virtual terminal close
 0003C4                             7408  2                        END
 0003C4 47F0 811E            003A8  7412  1                      END
 DROP   FEB,R7                      7417                       END
                                    7426              *
                                    7427              *
 0003C8 4190 C2B0            002B0  7428                       LA    SCBR,CVSCBQH-(SCBLINK-SCB)  Dummy first entry
 0003CC                             7429                       LOOP  BEGIN
 USING  SCB,R9                      7435  1                      WITH  SCB
 0003CC 5890 9004/1299_      00004  7447  1                      WHILE ('LT SCBR,SCBLINK',NZ)
                                    7464  1
 0003D6 59B0 900C/4770_      0000C  7465  1                      IF    (SUBR,EQ,SCBSUBP),BEGIN  current subsys...
 0003DE D203 900C 82CA 0000C 00554  7482  2                        MVC   SCBSUBP,=F'-1'      Flag as dead
 0003E4 9180 90B0/4710_000B0        7483  2                        IF    (~SCBTFSYN,AND,~SCBTFAIO),BEGIN  No I/O, send to mort...
 0003F4 9680 90B0      000B0        7512  3                          SET   SCBTFSYN            (For SUBSEND validity check)
 0003F8 58A0 C060            00060  7518  3                          L     PDBR,CVPDBP
 USING  PDB,R10                     7519  3                          WITH  PDB
 0003FC D737 A000 A000 00000 00000  7531  3                          CLEAR PDBHDR
 000402 D201 A000 82E0 00000 0056A  7538  3                          MVC   PDBLENG,=AL2(L'PDBHDR)
 000408 5820 C32C            0032C  7539  3                          L     R2,CVMRTSUB
 00040C 4110 9000            00000  7540  3                          LA    R1,SCB
 000410 41F0 A000            00000  7541  3                          LA    R15,PDB
 000414 58E0 82CE/0DEE       00558  7542  3                          ACALL SUBENTER
 DROP   PDB,R10                     7546  2                        END
 00041A 8194/8194/47F0_0041A 003EA  7555  2                        ELSEIF (SCBCMD,EQ,TMILREAD),BEGIN  Read outstanding...
 000426 58A0 C060            00060  7584  3                          L     PDBR,CVPDBP
 USING  PDB,R10                     7585  3                          WITH  PDB
 00042A D737 A000 A000 00000 00000  7597  3                          CLEAR PDBHDR
 000430 D201 A000 82E0 00000 0056A  7604  3                          MVC   PDBLENG,=AL2(L'PDBHDR)
 000436 9250 A006      00006        7605  3                          MVI   PDBCMD,TMILBRK      Break read
 00043A 4110 9000            00000  7606  3                          LA    R1,SCB
 00043E 41F0 A000            00000  7607  3                          LA    R15,PDB
 000442 58E0 82D2/0DEE       0055C  7608  3                          ACALL FEDO
 000448 4780 81DE/FEDC_      00468  7612  3                          FAIL  NZ,'Subsystem interface error'
 DROP   PDB,R10                     7632  2                        END
 000468                             7641  1                      END
                                    7645  1
 000468 59B0 902C/4770_      0002C  7646  1                      IF    (SUBR,EQ,SCBDSUBP),'CLEAR SCBDSUBP'
                                    7675  1
 000476 4120 9030            00030  7676  1                      LA    R2,SCBSUBL
 00047A 4130 9080            00080  7677  1                      LA    R3,SCBSUBE
 00047E 1923/47B0 8214              7678  1                      WHILE (R2,LT,R3),BEGIN    Check for subsys in list...
 000484 59B0 2000/4770_      00000  7695  2                        IF    ('C SUBR,@R2',EQ),'CLEAR (@R2,4); B SUBDN'
 000496 4120 2004            00004  7721  2                        LA    R2,@R2+4
 00049A 47F0 81F4            0047E  7722  1                      END
 00049E 48F0 B02E/06F0_      0002E  7727  1           SUBDN      DECR  R15,SUBCUR          One less session now
 0004A8 47F0 8142            003CC  7732                       END
 DROP   SCB,R9
                                    7742
 0004AC 41F0 C2A0            002A0  7743                       LA    R15,CVSUBQH-(SUBLINK-SUB)  Dummy first entry
 0004B0                             7744                       LOOP  BEGIN
 USING  SUB,R15                     7750  1                      WITH  (SUB,R15)
 0004B0 187F                        7763  1                      LR    R7,R15              Save prev ptr
1SIFT     (SIFT2047) (12:37) (15MAR04) Subsystem Interface                                                                  Page   25
0Current Usings:  (*,R8) (SUB,R11) (CV,R12) (SUB,R15)
0Loc    Object Code    Addr1 Addr2  Stmt Lv Lineno    Source Statement           (Hibal 5, Asmedit 3.3)  HLASM R4.0  2004/03/15 12.37
+___    ______ ____    _____ _____  ____ __ ______    ______ _________
00004B2 58F0 F008/12FF_      00008  7764  1                      WHILE ('LT R15,SUBLINK',NZ)
 0004BC 19FB/4780 824C              7781  1                      IF    (R15,EQ,SUBR),SUBDQ
 0004C2 47F0 8226            004B0  7799                       END
 DROP   SUB,R15
 0004C6 FEDC0D/C2818440E_           7809                       FAIL  'Bad SUB queue'
                                    7814
 0004D6 D203 7008 B008 00008 00008  7815              SUBDQ    MVC   SUBLINK-SUB(4,R7),SUBLINK  Dequeue
 0004DC D603 B008 B008_00008 00008  7816                       IF    (SUBLINK,Z),'ST R7,CVSUBQT'  Keep tail accurate
 0004EA D203 B008 82CA 00008 00554  7838                       MVC   SUBLINK,=F'-1'      Safety
                                    7839
 0004F0 5810 B044/1211_      00044  7840                       WHILE ('LT R1,SUBPDBQH',NZ),BEGIN  Free pending PDB's...
 0004FA D203 B044 1000 00044 00000  7858  1                      MVC   SUBPDBQH,@R1        De-queue
 000500 58E0 82D6/0DEE       00560  7859  1                      VCALL FREECORE            ...and free
 000506 47F0 8266            004F0  7863                       END
                                    7868
 00050A D203 B000 82DA 00000 00564  7869                       MVC   SUB(4),=C'OSUB'
 000510 4110 B000            00000  7870                       LA    R1,SUB
 000514 58E0 82D6/0DEE       00560  7871                       VCALL FREECORE
                                    7875
 00051A 1BFF                        7876                       CLEAR R15
 00051C 41D0 D030/982B_      00030  7880                       PEND
 DROP   SUB,R11
 DROP   *,R8
                                    7905
                                    7906                       QLTORG
                                    7938            C MODLPATH PATH  PFX=MODL,MYTAG=MILTEN,PASS=PSUB,BUFSIZE=CVSUZLEN,
                                                                     ECB=*-*,FLAG=*-*,VERSION=2
 000574                             7939    01-PATH  +MODLPATH DC    0F'0'
 000574                             7940    01-PATH  +MODL     DC    0F'0'
 000574 00000000                    7942    02-DEFIN +MODLMGC  DC    AL4(0)
 000578 00000000                    7944    02-DEFIN +MODLDJNM DC    AL4(0)
 00057C D4C9D3E3C5D54040            7946    02-DEFIN +MODLMY   DC    CL8'MILTEN'
 000584 FFFFFFFFFFFFFFFF            7948    02-DEFIN +MODLYOU  DC    XL8'FFFFFFFFFFFFFFFF'
 00058C 80                          7950    02-DEFIN +MODLMFL  DC    AL1(1*X'80'+0*X'40'+0*X'20')
                                    7951             +
                                    7952    01-PATH  +MODLVER2  EQU  X'80'         CALLER IS USING VERSION 2
                                    7953    01-PATH  +MODLMCTL  EQU  X'40'         CALLER ASKS TERMINATION CONTROL
                                    7954    01-PATH  +MODLMNAM  EQU  X'20'         CALLER PROVIDES CALLEE NAME
                                    7955    01-PATH  +MODLMDP1  EQU  X'10'         DUPLICATE TAGS FOUND: MY=PCBO, YOU=PCBA
                                    7956    01-PATH  +MODLMDP2  EQU  X'08'         DUPLICATE TAGS FOUND: MY=PCBA, YOU=PCBO
                                    7957             +
 00058D 000000                      7959    02-DEFIN +MODLOECB DC    AL3(0)
 000590 00040000                    7961    02-DEFIN +MODLBUF  DC    AL4(CVSUZLEN)
 000594 00000000                    7963    02-DEFIN +MODLECBF DC    AL4(*-*)
                                    7964             +
                                    7965    01-PATH  +MODLFCLS  EQU   X'80'         I AM POSTED BECAUSE HE CLOSED
                                    7966    01-PATH  +MODLFFQE  EQU   X'40'         I AM POSTED BECAUSE HIS FULL Q EMPTIED
                                    7967    01-PATH  +MODLFNI   EQU   X'20'         I AM POSTED BECAUSE NEW INFO IN MY Q
                                    7968    01-PATH  +MODLFDP   EQU   X'10'         I AM POSTED AT HIS DISCRETION
                                    7969    01-PATH  +MODLFOPN  EQU   X'08'         I AM POSTED BECAUSE HE OPENED
                                    7970    01-PATH  +MODLFCLC  EQU   X'04'         I AM POSTED BECAUSE MY CLOSE IS COMPLETE
                                    7971             +
 000598 D7E2E4C2                    7973    02-DEFIN +MODLPASS DC    CL4'PSUB'
 00059C 00000000                    7975    02-DEFIN +MODLECB  DC    AL4(*-*)
1SIFT     (SIFT2047) (12:37) (15MAR04) Subsystem Interface                                                                  Page   26
0Current Usings:  (CV,R12)
0Loc    Object Code    Addr1 Addr2  Stmt Lv Lineno    Source Statement           (Hibal 5, Asmedit 3.3)  HLASM R4.0  2004/03/15 12.37
+___    ______ ____    _____ _____  ____ __ ______    ______ _________
00005A0 00000000                    7977    02-DEFIN +MODLEXIT DC    AL4(0)
 0005A4 00000000                    7979    02-DEFIN +MODLPINP DC    XL4'0'
 0005A8 00000000                    7981    02-DEFIN +MODLRESV DC    XL4'0'
                                    7982             +*
                                    7983             +*  VERSION 2 RETURN CODES
                                    7984             +*
                                    7985    01-PATH  +MODLROK   EQU  0                       COMPLETE OK
                                    7986    01-PATH  +MODLRIFC  EQU  4                       INVALID FUNCTION CODE
                                    7987    01-PATH  +MODLRPMW  EQU  8                       INVALID PATH MAGIC WORD
                                    7988    01-PATH  +MODLRBAF  EQU  12                      PARTNER'S BUFFER AREA FULL
                                    7989    01-PATH  +MODLRNOP  EQU  16                      PARTNER NOT THERE
                                    7990    01-PATH  +MODLRBOM  EQU  20                      BUFFER OVER PARTNER'S MAXIMUM
                                    7991    01-PATH  +MODLRIBS  EQU  24                      RECEIVE BUFFER TOO SMALL
                                    7992    01-PATH  +MODLRBPI  EQU  28                      INVALID BUFFER POINTER
                                    7993    01-PATH  +MODLRIAD  EQU  32                      INVALID ADDRESS
                                    7994    01-PATH  +MODLRES1  EQU  36                      RESERVED
                                    7995    01-PATH  +MODLRES2  EQU  40                      RESERVED
                                    7996    01-PATH  +MODLRES3  EQU  44                      RESERVED
                                    7997    01-PATH  +MODLRES4  EQU  48                      RESERVED
                                    7998             +
                                    7999    01-PATH  +MODLSIZE  EQU  *-MODL        LENGTH OF PATH BLOCK
1SIFT     (SIFT2047) (12:37) (15MAR04) Subsystem Interface                                                                  Page   27
0Current Usings:  (CV,R12)
0Loc    Object Code    Addr1 Addr2  Stmt Lv Lineno    Source Statement           (Hibal 5, Asmedit 3.3)  HLASM R4.0  2004/03/15 12.37
+___    ______ ____    _____ _____  ____ __ ______    ______ _________
0                                   8002              ¿þþþþþþþþþþþþþþþþþþþþþþþþþþþþþþþþþþþþþþþþþþþþþþþþþþþþþþþþþþþþþþþþþþþþþÜ
                                    8003              Ÿ                                                                     Ÿ
                                    8004              Ÿ  SUBDO -- Routine to handle requests from subsystems.               Ÿ
                                    8005              Ÿ    (Called from the dispatcher.)                                    Ÿ
                                    8006              Ÿ                                                                     Ÿ
                                                      ¾þþþþþþþþþþþþþþþþþþþþþþþþþþþþþþþþþþþþþþþþþþþþþþþþþþþþþþþþþþþþþþþþþþþþþ»
00005AC 50E0 D044/902B_      00044  8007              SUBDO    XPROC
 USING  *,R8
 0005C6 41B0 C2A0            002A0  8045              SUBTOP   LA    SUBR,CVSUBQH-(SUBLINK-SUB)  Dummy first entry
                                    8046
 0005CA                             8047              SUBLOOP  LOOP  BEGIN
 USING  SUB,R11                     8054  1                      WITH  SUB
 0005CA 58B0 B008/12BB_      00008  8066  1                      WHILE ('LT SUBR,SUBLINK',NZ)
 0005D4 91E8 B080      00080        8083  1                      TM    SUBSFLAG,SUBPFOPN+SUBPFNI+SUBPFFQE+SUBPFCLS  chk bits
 0005D8 4780 8014            005CA  8084  1                      IF    Z,NEXT              Nothing new
                                    8098  1                      ¿þþþþþþþþþþþþþþþþþþþþþþþþþþþþþþþþþþþÜ
                                    8099  1                      Ÿ  Process opening subsystem path.  Ÿ
                                    8100  1                      ¾þþþþþþþþþþþþþþþþþþþþþþþþþþþþþþþþþþþ»
 0005DC 9108 B080/47E0_00080        8101  1                      IF    SUBSFLAG.SUBPFOPN,BEGIN  Path opened...
 0006CA F7/41F0 0001/1_006CA 06538  8117  2                        CLEAR SUBSFLAG.SUBPFOPN,MODE=LOCKED,REF=SUB
                                    8163  2
 000602 58E0 80FA/0DEE       006B0  8164  2                        ACALL SUBOPEN             Get a spare
 000608                             8168  1                      END
                                    8172  1                      ¿þþþþþþþþþþþþþþþþþþþþþþþþþþþþþþþþþþþÜ
                                    8173  1                      Ÿ  Process closing subsystem path.  Ÿ
                                    8174  1                      ¾þþþþþþþþþþþþþþþþþþþþþþþþþþþþþþþþþþþ»
 000608 9180 B080/47E0_00080        8175  1                      IF    SUBSFLAG.SUBPFCLS,BEGIN  Path closing...
 000610 181B                        8191  2                        LR    R1,SUBR
 000612 58E0 80FE/0DEE       006B4  8192  2                        ACALL SUBCLS              Finish closing
 000618 47F0 8010            005C6  8196  2                        B     SUBTOP              Recheck subsystems from the top
 00061C                             8197  1                      END
                                    8201  1                      ¿þþþþþþþþþþþþþþþþþþþþþþþþþþþþþþþþþþþþþþþþþþþþþþþþþþþþþþþþþþþþþþÜ
                                    8202  1                      Ÿ  Send pending subsystem requests if full queue has emptied.  Ÿ
                                    8203  1                      ¾þþþþþþþþþþþþþþþþþþþþþþþþþþþþþþþþþþþþþþþþþþþþþþþþþþþþþþþþþþþþþþ»
 00061C 9140 B080/47E0_00080        8204  1                      IF    SUBSFLAG.SUBPFFQE,BEGIN  Full queue emptied...
 0006D0 BF/41F0 0001/1_006CA 06538  8220  2                        CLEAR SUBSFLAG.SUBPFFQE,MODE=LOCKED,REF=SUB
                                    8266  2
 000642 5870 B044/1277_      00044  8267  2                        WHILE ('LT R7,SUBPDBQH',NZ),BEGIN  Pending PDB's...
 00064C D203 B044 7000 00044 00000  8285  3                          MVC   SUBPDBQH,@R7        De-queue entry
 000652 D203 7000 8102 00000 006B8  8286  3                          MVC   @R7(4),=F'-1'       (safety)
 000658 41F0 7004            00004  8287  3                          LA    R15,@R7+4           PDB (xact)
 00065C 58E0 8106/0DEE       006BC  8288  3                          ACALL PATHSEND            Try to send it (again)
 000662 182F                        8292  3                          LR    R2,R15              Save rc
 000664 1817                        8293  3                          LR    R1,R7
 000666 58E0 810A/0DEE       006C0  8294  3                          VCALL FREECORE            Release PDB
 00066C 1222/4720 80C0              8298  3                          IF    (R2,POS),EXIT       Entry was re-queued, scram
 000672 47F0 808C            00642  8315  2                        END
 000676                             8320  1                      END
1SIFT     (SIFT2047) (12:37) (15MAR04) Subsystem Interface                                                                  Page   28
0Current Usings:  (*,R8) (SUB,R11) (CV,R12)
0Loc    Object Code    Addr1 Addr2  Stmt Lv Lineno    Source Statement           (Hibal 5, Asmedit 3.3)  HLASM R4.0  2004/03/15 12.37
+___    ______ ____    _____ _____  ____ __ ______    ______ _________
0                                   8324  1                      ¿þþþþþþþþþþþþþþþþþþþþþþþþþþþþþþþþþþþÜ
                                    8325  1                      Ÿ  Process new subsystem requests.  Ÿ
                                    8326  1                      ¾þþþþþþþþþþþþþþþþþþþþþþþþþþþþþþþþþþþ»
 000676 D603 C484 C484_00484 00484  8327  1                      IF    (CVRCLOC,Z),NEXT,SUBLOOP  Ignore new if lowcore
                                    8346  1
 000680 9120 B080/47E0_00080        8347  1                      IF    SUBSFLAG.SUBPFNI,BEGIN  Process new info...
 000688 58E0 810E/0DEE       006C4  8363  2                        ACALL PROCSUB             Process subsystem requests
 00068E 4770 8010            005C6  8367  2                        BNZ   SUBTOP              Recheck subsystems from the top
 000692                             8368  1                      END
 000692 47F0 8014            005CA  8372                       END
 DROP   SUB,R11
 000696 41D0 D030/982B_      00030  8382                       PEND
 DROP   *,R8
                                    8402                       QLTORG
1SIFT     (SIFT2047) (12:37) (15MAR04) Subsystem Interface                                                                  Page   29
0Current Usings:  (CV,R12)
0Loc    Object Code    Addr1 Addr2  Stmt Lv Lineno    Source Statement           (Hibal 5, Asmedit 3.3)  HLASM R4.0  2004/03/15 12.37
+___    ______ ____    _____ _____  ____ __ ______    ______ _________
0                                   8422              ¿þþþþþþþþþþþþþþþþþþþþþþþþþþþþþþþþþþþþþþþþþþþþþþþþþþþþþþþþþþþþþþþþþþþþþÜ
                                    8423              Ÿ                                                                     Ÿ
                                    8424              Ÿ  PROCSUB -- Local routine to get PDB from subsystem and process it. Ÿ
                                    8425              Ÿ                                                                     Ÿ
                                    8426              Ÿ    On exit, R15 (and CC):                                           Ÿ
                                    8427              Ÿ      0 - ok                                                         Ÿ
                                    8428              Ÿ      4 - subsystem error (path closed)                              Ÿ
                                    8429              Ÿ                                                                     Ÿ
                                                      ¾þþþþþþþþþþþþþþþþþþþþþþþþþþþþþþþþþþþþþþþþþþþþþþþþþþþþþþþþþþþþþþþþþþþþþ»
00006D6 50E0 D044/902B_      00044  8430              PROCSUB  PROC
 USING  *,R8
 USING  SUB,R11                     8466                       WITH  SUB                 (Entry assumption)
 0006F0 50B0 C75C            0075C  8478                       ST    SUBR,CVCURSUB
 0006F4 DF/41F0 0001/1_0160C 06538  8479              PSUBLOOP CLEAR SUBSFLAG.SUBPFNI,MODE=LOCKED,REF=SUB
                                    8526
 000712 58A0 C060            00060  8527                       L     PDBR,CVPDBP
 USING  PDB,R10                     8528                       WITH  PDB
                                    8540                       ¿þþþþþþþþþþþþþþþþþþþþþþþþþþþþþþþþþþþþþþþÜ
                                    8541                       Ÿ  Very temporary code.  1/24/92   !!!  Ÿ
                                    8542                       ¾þþþþþþþþþþþþþþþþþþþþþþþþþþþþþþþþþþþþþþþ»
 000716 D227 C6FC A000 006FC 00000  8543                       MVC   CVNIZSAV,PDBHDR     Save off old contents
                                    8544                       ¿þþþþþþþþþþþþþþþþþþþþþþþþþþþþþþþþþþþþÜ
                                    8545                       Ÿ  End of very temporary code.  !!!  Ÿ
                                    8546                       ¾þþþþþþþþþþþþþþþþþþþþþþþþþþþþþþþþþþþþ»
 00071C D737 A000 A000 00000 00000  8547                       CLEAR PDBHDR
 000722 41F0 A004            00004  8554                       LA    R15,4(0,PDBR)
 000726 50F0 D000            00000  8555                       ST    R15,@R13
 00072A 9680 D000      00000        8556                       SET   @R13.X'80'
 00072E D203 D004 8E60 00004 01540  8563                       MVC   @R13+4(4),=A(CVBUFLEN-4)
 000734 41F0 000C/5800_      0000C  8564                       SCOM  GET,(R13),SUBPMGC   Read PDB
 000740 12FF/4780 8096              8583                       IF    (R15,NZ),BEGIN      Bad return code...
                                    8597  1         C            FAIL  ((R15,LE,PATHRPMW),OR,(R15,GT,PATHRNOP)),
 000746 59F0 8E64/47C0_      01544        1                            'Subsystem path error'
 00076E 4DE0 8D88            01468  8639  1                      LCALL PROCCLS
 000772 47F0 8284            00964  8641  1                      B     PSUBERR
 000776                             8642                       END
 000776 1211                        8646                       LTR   R1,R1
 000778 4780 828C            0096C  8647                       BZ    PSUBNORM            Nothing
 00077C 4110 1004            00004  8648                       LA    R1,4(,R1)           Add in for RDW length
 000780 4010 A000            00000  8649                       STH   R1,PDBLENG          Make up length
 000784 D701 A002 A002 00002 00002  8650                       CLEAR (PDBHDR+2,2)        Reset rdw flags
                                    8657
 00078A 58F0 B080/4110_      00080  8658                       SET   SUBSFLAG.SUBPFNI,MODE=LOCKED,REF=SUB
 0007A2 41F0 0001/5EF0_      00001  8673                       INCR  R15,SUBNIO          Kick subsys I/O count
1SIFT     (SIFT2047) (12:37) (15MAR04) Subsystem Interface                                                                  Page   30
0Current Usings:  (*,R8) (PDB,R10) (SUB,R11) (CV,R12)
0Loc    Object Code    Addr1 Addr2  Stmt Lv Lineno    Source Statement           (Hibal 5, Asmedit 3.3)  HLASM R4.0  2004/03/15 12.37
+___    ______ ____    _____ _____  ____ __ ______    ______ _________
00007AE D607 B010 B010_00010 00010  8680                       IF    (SUBNAME,Z),BEGIN   Expecting init...
 0007B8 9521 A006/47B0_00006        8696  1                      IF    (PDBCMD,LT,TMILINIT),'LCALL PROCCLSZ; B PSUBERR'
 0007C8 9522 A006/47D0_00006        8722  1                      IF    (PDBCMD,GT,TMILMW),'LCALL PROCCLSZ; B PSUBERR'
 0007D8 9521 A006/4770_00006        8748  1                      IF    (PDBCMD,EQ,TMILINIT),BEGIN  Init subsys...
 0007E0 4140 C2A0            002A0  8766  2                        LA    R4,CVSUBQH-(SUBLINK-SUB)  Dummy first entry
 DROP   SUB,R11                     8767  2                        WITH  (SUB,R4),BEGIN
 USING  SUB,R4
 0007E4 5840 4008/1244_      00008  8789  3                          WHILE ('LT R4,SUBLINK',NZ),BEGIN
 0007EE D507 A024 4010_00024 00010  8807  4                            IF    (PDBSYSNM,EQ,SUBNAME),BEGIN  Name in use...
 0007F8 4DE0 8D86            01466  8825  5                              LCALL PROCCLSZ
 0007FC 47F0 8284            00964  8827  5                              B     PSUBERR
 000800                             8828  4                            END
 000800 47F0 8104            007E4  8832  3                          END
 USING  SUB,R11                     8837  2                        END
 DROP   SUB,R4
                                    8854  2
 000804 D207 B010 A024 00010 00024  8855  2                        MVC   SUBNAME,PDBSYSNM    Subsys name
 00080A D207 B018 B010 00018 00010  8856  2                        MVC   SUBJOBNM,SUBNAME    Fake jobname
 000810 9680 B020      00020        8857  2                        SET   SUBFPRIV            Assume priv'd
                                    8863  2
 000814 4BD0 8ED6/BED7_      015B6  8864  2                        PUSH  8+20+64,PTR=R7      Arglist + info + haspserv info
 000824 D75B 7000 7000 00000 00000  8871  2                        CLEAR (@R7,8+20+64)
 00082A 41F0 7008            00008  8878  2                        LA    R15,@R7+8
 00082E 50F0 7000            00000  8879  2                        ST    R15,@R7
 000832 9680 7000      00000        8880  2                        OI    @R7,X'80'
 000836 D203 7004 8E6C 00004 0154C  8881  2                        MVC   @R7+4(4),=F'20'
 00083C 41F0 0020/5800_      00020  8882  2                        SCOM  INFO,(R7),SUBPMGC   Sense partner info
 000848 12FF/4770 81C8              8901  2                        IF    (R15,Z),BEGIN
 00084E D203 B00C 7008 0000C 00008  8915  3                          MVC   SUBASCBP,@R7+8
 000854 4100 0004/4110_      00004  8916  3                          HASPSERV JOBNAME,@R7+28,ASCB=SUBASCBP
 000862 12FF/4770 81C8              8937  3                          IF    (R15,NZ),EXIT
 000868 D207 B018 701C 00018 0001C  8954  3                          MVC   SUBJOBNM,@R7+28     Save jobname
                                    8955  3
 00086E 947F B020      00020        8956  3                          CLEAR SUBFPRIV            Not priv'd
 000872 9180 A007/47E0_00007        8963  3                          IF    PDBCMDFL.INITFPRV,BEGIN  Subsys wants to be priv'd...
 00087A 1B00/4110 701C_             8979  4                            HASPSERV JOBACCT,@R7+28,ASCB=SUBASCBP  Get job acct/privs
 000886 12FF/4770 81C4              8997  4                            IF    (R15,Z),BEGIN       Haspserv worked...
 00088C 9130 7023/4770_00023        9011  5                              IF    @R7+28+7.SIBFSPR+SIBFOPR,EXIT  Job is priv'd, scram
 000894 41D0 D060/50D0_      00060  9032  5                              POP   8+20+64
 00089C 4DE0 8D86            01466  9037  5                              LCALL PROCCLSZ            Can't do it
 0008A0 47F0 8284            00964  9039  5                              B     PSUBERR
 0008A4                             9040  4                            END
 0008A4 9680 B020      00020        9044  4                            SET   SUBFPRIV            Indicate priv'd
 0008A8                             9050  3                          END
 0008A8                             9054  2                        END
 0008A8 41D0 D060/50D0_      00060  9058  2                        POP   8+20+64
                                    9063  2
 0008B0 58E0 8E70/0DEE       01550  9064  2                        VCALL LOCALTOD            Clock at start
 0008B6 9001 B024            00024  9068  2                        STM   R0,R1,SUBSCLCK
                                    9069  2
 0008BA D201 A000 8ED8 00000 015B8  9070  2                        MVC   PDBLENG,=AL2(L'PDBHDR+8)
 0008C0 D730 A007 A007 00007 00007  9071  2                        CLEAR PDBOPT
 0008C6 D203 A010 C068 00010 00068  9078  2                        MVC   PDBSINP,CVSITP      Return SIT ptr (in CSA)
 0008CC D207 A038 C4C0 00038 004C0  9079  2                        MVC   PDBTEXT(8),CVMJOBNM  Milten's jobname
1SIFT     (SIFT2047) (12:37) (15MAR04) Subsystem Interface                                                                  Page   31
0Current Usings:  (*,R8) (PDB,R10) (SUB,R11) (CV,R12)
0Loc    Object Code    Addr1 Addr2  Stmt Lv Lineno    Source Statement           (Hibal 5, Asmedit 3.3)  HLASM R4.0  2004/03/15 12.37
+___    ______ ____    _____ _____  ____ __ ______    ______ _________
00008D2 D201 A036 8EDA 00036 015BA  9080  2                        MVC   PDBRC,=AL2(8)
 0008D8 D201 A02E 8EDC 0002E 015BC  9081  2                        MVC   PDBOUTCT,=AL2(8+6)
 0008DE 41F0 A000            00000  9082  2                        LA    R15,PDB
 0008E2 58E0 8E74/0DEE       01554  9083  2                        ACALL PATHSEND            Acknowledge
 0008E8 D737 A000 A000 00000 00000  9087  2                        CLEAR PDBHDR
                                    9094  2
 0008EE D505 8EDE B010_015BE 00010  9095  2                        IF    (SUBNAME,EQ,'MILTEN'),'ST SUBR,CVMRTSUB'  Mort
                                    9118  2
 0008FC D507 B010 C290_00010 00290  9119  2                        IF    (SUBNAME,EQ,CVDEFSYS),BEGIN  Default system...
 000906 50B0 C298            00298  9137  3                          ST    SUBR,CVDEFSUB       Save SUB ptr
 00090A 9680 C13D      0013D        9138  3                          SET   CVFDFSYS            Default subsys available
 00090E 1B00/4110 C334_             9144  3                          POST  CVMRTECB            Post mort
 000916                             9150  2                        END
 000916                             9154  1                      END
 000916 47F0 8014            006F4  9158  1                      B     PSUBLOOP
 00091A                             9159                       END
1SIFT     (SIFT2047) (12:37) (15MAR04) Subsystem Interface                                                                  Page   32
0Current Usings:  (*,R8) (PDB,R10) (SUB,R11) (CV,R12)
0Loc    Object Code    Addr1 Addr2  Stmt Lv Lineno    Source Statement           (Hibal 5, Asmedit 3.3)  HLASM R4.0  2004/03/15 12.37
+___    ______ ____    _____ _____  ____ __ ______    ______ _________
0                                   9164                       ¿þþþþþþþþþþþþþþþþþþþþþþþþþþþþþþþþþþþþþþþþþþþþþþþþþþþþþþþþþþþþþþÜ
                                    9165                       Ÿ  Get SCB pointer from line-oriented PDB, and make sure this  Ÿ
                                    9166                       Ÿ    subsystem is in control of the line specified.            Ÿ
                                    9167                       ¾þþþþþþþþþþþþþþþþþþþþþþþþþþþþþþþþþþþþþþþþþþþþþþþþþþþþþþþþþþþþþþ»
 00091A 48F0 A004            00004  9168                       LH    R15,PDBLIN#         Session no.
 00091E BDF3 C390/4750_      00390  9169                       IF    (R15,LGE,CVMAXSES),'LCALL PROCCLSZ; B PSUBERR'
 00092E 89F0 0002            00002  9194                       SLL   R15,2               SAT offset
 000932 5840 C2BC            002BC  9195                       L     R4,CVSATP
 000936 581F 4000/1211       00000  9196                       LT    R1,@R4(R15)         SCB ptr
 00093C 4720 8268/4DE0_      00948  9200                       IF    ~POS,'LCALL PROCCLSZ; B PSUBERR'
 USING  SCB,R1                      9219                       WITH  (SCB,R1),BEGIN
 000948 59B0 100C/4780_      0000C  9233  1                      IF    (SUBR,NE,SCBSUBP),BEGIN  Not in subsys...
 000950 4DE0 8D86            01466  9250  2                        LCALL PROCCLSZ            Close path
 000954 47F0 8284            00964  9252  2                        B     PSUBERR
 000958                             9253  1                      END
 DROP   SCB,R1                      9257                       END
 000958 41F0 A000            00000  9265                       LA    R15,PDB
 00095C 4DE0 82A8            00988  9266                       LCALL PROCPDB             Process line-oriented PDB
 000960 4780 8014            006F4  9268                       BZ    PSUBLOOP            Get next request if ok
                                    9269
 000964 41F0 0004            00004  9270              PSUBERR  LA    R15,4               Subsystem error return code
 000968 47F0 828E            0096E  9271                       B     PSUBEXIT
                                    9272
 00096C 1BFF                        9273              PSUBNORM CLEAR R15                 Good return code
 00096E D703 C75C C75C 0075C 0075C  9278              PSUBEXIT CLEAR CVCURSUB
 000974 41D0 D030/982B_      00030  9286                       PEND
 DROP   PDB,R10
 DROP   SUB,R11
 DROP   *,R8
1SIFT     (SIFT2047) (12:37) (15MAR04) Subsystem Interface                                                                  Page   33
0Current Usings:  (CV,R12)
0Loc    Object Code    Addr1 Addr2  Stmt Lv Lineno    Source Statement           (Hibal 5, Asmedit 3.3)  HLASM R4.0  2004/03/15 12.37
+___    ______ ____    _____ _____  ____ __ ______    ______ _________
0                                   9317              ¿þþþþþþþþþþþþþþþþþþþþþþþþþþþþþþþþþþþþþþþþþþþþþþþþþþþþþþþþþþþþþþþþþþþþþÜ
                                    9318              Ÿ                                                                     Ÿ
                                    9319              Ÿ  PROCPDB -- Routine to process PDB from subsystem or send it        Ÿ
                                    9320              Ÿ    to the front-end routine if it's device dependent.               Ÿ
                                    9321              Ÿ                                                                     Ÿ
                                    9322              Ÿ    On entry:                                                        Ÿ
                                    9323              Ÿ      R1 - SCB ptr                                                   Ÿ
                                    9324              Ÿ      R15- PDB ptr                                                   Ÿ
                                    9325              Ÿ                                                                     Ÿ
                                    9326              Ÿ    On exit, R15 (and cc):                                           Ÿ
                                    9327              Ÿ      0 - ok                                                         Ÿ
                                    9328              Ÿ      4 - PDB error (path closed)                                    Ÿ
                                    9329              Ÿ                                                                     Ÿ
                                                      ¾þþþþþþþþþþþþþþþþþþþþþþþþþþþþþþþþþþþþþþþþþþþþþþþþþþþþþþþþþþþþþþþþþþþþþ»
0000988 50E0 D044/902B_      00044  9330              PROCPDB  PROC
 USING  *,R8
 0009A2 1891                        9366                       LR    SCBR,R1
 USING  SCB,R9                      9367                       WITH  SCB
 0009A4 18AF                        9379                       LR    PDBR,R15
 USING  PDB,R10                     9380                       WITH  PDB
                                    9392
 0009A6 D703 C75C C75C 0075C 0075C  9393                       CLEAR CVCURSUB
 0009AC 5090 C758            00758  9400                       ST    SCBR,CVCURSCB
                                    9401
 0009B0 94E7 90B0      000B0        9402                       CLEAR SCBTFSIO+SCBTFQIO   Initialize flags
                                    9412
 0009B4 9540 A006/4740_00006        9413                       IF    ((PDBCMD,LT,TMILEOS),OR,(PDBCMD,GT,TMILBRK)),BEGIN
 0009C4 4DE0 8AD4            01466  9448  1                      LCALL PROCCLSZ            Close path
 0009C8 47F0 86BA            0104C  9450  1                      B     PPDBERR
 0009CC                             9451                       END
                                    9455
                                    9456                       WITH  SCB
 0009CC 58B0 900C            0000C  9459                       L     SUBR,SCBSUBP        SUB ptr
 USING  SUB,R11                     9460                       WITH  SUB
                                    9472                       ¿þþþþþþþþþþþþþþþþþþþþþþþþþþþþþþþþþþþþþþþþþþþþþþþþþþþþþþþþþþÜ
                                    9473                       Ÿ  Before doing anything else, fix up ORVYL PDBMOD flags.  Ÿ
                                    9474                       ¾þþþþþþþþþþþþþþþþþþþþþþþþþþþþþþþþþþþþþþþþþþþþþþþþþþþþþþþþþþ»
                                    9475            C          IF    ((SUBNAME,EQ,'ORVYL'),OR,
 0009D0 D504 8C4A B010_015DC 00010                                   (SUBNAME,EQ,'TESTORV')),BEGIN  ORVYL...
 0009E4 9541 A006/4780_00006        9508  1                      IF    ((PDBCMD,EQ,TMILWRIT),OR,(PDBCMD,EQ,TMILREAD)),BEGIN
                                    9543  2
 0009F4 9140 A00A/47E0_0000A        9544  2                        IF    PDBMODC.MODCDSPL,BEGIN  ORVYL display mode...
 0009FC 9602 A009      00009        9560  3                          SET   PDBMODB.MODBUFMT    Unformatted
 000A00                             9567  2                        END
 000A00                             9571  1                      END
 000A00                             9575                       END
                                    9579                   ¿þþþþþþþþþþþþþþþþþþþþþþþþþþþþþþþþþþþþþþþþþþþþþþþþþþþþþþþþþþþþþþþþþþþÜ
                                    9580                   Ÿ  Check for SYSMODE prefix and also check for system I/O request.  Ÿ
                                    9581                   ¾þþþþþþþþþþþþþþþþþþþþþþþþþþþþþþþþþþþþþþþþþþþþþþþþþþþþþþþþþþþþþþþþþþþ»
 000A00 9541 A006/4780_00006        9582                       IF    ((PDBCMD,EQ,TMILWRIT),OR,(PDBCMD,EQ,TMILREAD)),BEGIN
 000A10 58E0 8BC6/0DEE       01558  9617  1                      ACALL SYSMODE             Process any @@SYSMODE prefix
                                    9621  1
 000A16 58E0 8BCA/0DEE       0155C  9622  1                      ACALL SYSCHECK            Check to see if it is system I/O
1SIFT     (SIFT2047) (12:37) (15MAR04) Subsystem Interface                                                                  Page   34
0Current Usings:  (*,R8) (SCB,R9) (PDB,R10) (SUB,R11) (CV,R12)
0Loc    Object Code    Addr1 Addr2  Stmt Lv Lineno    Source Statement           (Hibal 5, Asmedit 3.3)  HLASM R4.0  2004/03/15 12.37
+___    ______ ____    _____ _____  ____ __ ______    ______ _________
0                                   9626  1                      ¿þþþþþþþþþþþþþþþþþþþþþþþþÜ
                                    9627  1                      Ÿ  Check for quiet I/O.  Ÿ
                                    9628  1                      ¾þþþþþþþþþþþþþþþþþþþþþþþþ»
 000A1C 9108 9186/47E0_00186        9629  1                      IF    SCBFQUIET,BEGIN     We are in quiet mode...
 000A24 9101 A009/4710_00009        9644  2                        IF    PDBMODB.MODBFOR,EXIT  Force I/O even in quiet mode
 000A2C 9608 90B0      000B0        9663  2                        SET   SCBTFQIO            Do "quiet I/O"
 000A30                             9669  1                      END
                                    9673  1                      ¿þþþþþþþþþþþþþþþþþþþþþþþþþþþþþþþþþþþÜ
                                    9674  1                      Ÿ  Update display and clean modes.  Ÿ
                                    9675  1                      ¾þþþþþþþþþþþþþþþþþþþþþþþþþþþþþþþþþþþ»
 000A30 9118 90B0/4770_000B0        9676  1                      IF    (SCBTFSIO+SCBTFQIO,Z),BEGIN  Regular I/O...
 000A38 943F 90B8      000B8        9696  2                        CLEAR SCBTFDISP+SCBTFTRAN
 000A3C 9140 A00A/47E0_0000A        9706  2                        IF    PDBMODC.MODCDSPL,'SET SCBTFDISP'  Display mode
 000A48 9120 A00B/47E0_0000B        9733  2                        IF    PDBMODD.MODDTRAN,'SET SCBTFTRAN'  Transparent I/O
                                    9760  2
 000A54 94F7 915E      0015E        9761  2                        CLEAR SCBFCLN             Assume noclean
 000A58 9110 A008/47E0_00008        9768  2                        IF    PDBMODA.MODACL,'SET SCBFCLN'  Clean listing
 000A64                             9795  1                      END
 000A64                             9799                       END
1SIFT     (SIFT2047) (12:37) (15MAR04) Subsystem Interface                                                                  Page   35
0Current Usings:  (*,R8) (SCB,R9) (PDB,R10) (SUB,R11) (CV,R12)
0Loc    Object Code    Addr1 Addr2  Stmt Lv Lineno    Source Statement           (Hibal 5, Asmedit 3.3)  HLASM R4.0  2004/03/15 12.37
+___    ______ ____    _____ _____  ____ __ ______    ______ _________
0                                   9804                       ¿þþþþþþþþþþþþþþþþþþþþþþþþþþþþþþþþþþþþþþþþþþþþþþþþþþþÜ
                                    9805                       Ÿ  Start any new asynchronous I/O now if possible.  Ÿ
                                    9806                       ¾þþþþþþþþþþþþþþþþþþþþþþþþþþþþþþþþþþþþþþþþþþþþþþþþþþþ»
 000A64 4110 9000            00000  9807                       LA    R1,SCB
 000A68 58E0 8BCE/0DEE       01560  9808                       ACALL DOAIO               Start any new asynchronous I/O
                                    9812                       ¿þþþþþþþþþþþþþþþþþþþþþþþþþþþþþþþþþþþþþþþþþþþþþþþþþþþþþþþþþþþþþþÜ
                                    9813                       Ÿ  If asynchronous I/O is in progress then queue the new I/O.  Ÿ
                                    9814                       ¾þþþþþþþþþþþþþþþþþþþþþþþþþþþþþþþþþþþþþþþþþþþþþþþþþþþþþþþþþþþþþþ»
 000A6E 9120 90B0/47E0_000B0        9815                       IF    SCBTFAIO,BEGIN      Async I/O in progress...
 000A76 9550 A006/4780_00006        9830  1                      IF    (PDBCMD,EQ,TMILBRK),PPDBNORM  Ignore break here
 000A7E 9140 90B0/47E0_000B0        9851  1                      IF    SCBTFIO,'LCALL PROCCLS; B PPDBERR'  Sync error
 000A8E D603 901C 901C_0001C 0001C  9874  1                      IF    (SCBSPDBP,NZ),'LCALL PROCCLS; B PPDBERR'
 000AA0 94E7 90B0      000B0        9898  1                      CLEAR SCBTFSIO+SCBTFQIO   Reset flags we might have set
 000AA4 943F 90B8      000B8        9908  1                      CLEAR SCBTFDISP+SCBTFTRAN   Ditto
 000AA8 4800 A000            00000  9918  1                      LH    R0,PDBLENG
 000AAC 4110 0015            00015  9919  1                      LA    R1,SPDBSUBP
 000AB0 4120 8122            00AB4  9920  1                      LA    R2,*+4
 000AB4 58E0 8BD2/0DEE       01564  9921  1                      VCALL NGETCORE
 000ABA 5010 901C            0001C  9925  1                      ST    R1,SCBSPDBP
 000ABE 18E1/48F0 A000_             9926  1                      MOVEL (R1),PDB,LH:PDBLENG  Save PDB
 000ACA 47F0 86C2            01054  9945  1                      B     PPDBNORM
 000ACE                             9946                       END
                                    9950
 000ACE 9550 A006/4780_00006        9951                       IF    (PDBCMD,NE,TMILBRK),BEGIN  New sync operation...
 000AD6 9180 90B0/47E0_000B0        9969  1                      IF    SCBTFSYN,'LCALL PROCCLSZ; B PPDBERR'  Already sync
 000AE6 9680 90B0      000B0        9992  1                      SET   SCBTFSYN
 000AEA                             9998                       END
                                   10002                       ¿þþþþþþþþþþþþþþþþþþþþþþþþþþþþþþþþþþþþþþþþþþþþþþþþþþþþþþþþþþþþþÜ
                                   10003                       Ÿ  Save resource usage information if this is the production  Ÿ
                                   10004                       Ÿ    ORVYL.                                                   Ÿ
                                   10005                       ¾þþþþþþþþþþþþþþþþþþþþþþþþþþþþþþþþþþþþþþþþþþþþþþþþþþþþþþþþþþþþþ»
 000AEA D504 8C4A B010_015DC 00010 10006                       IF    (SUBNAME,EQ,'ORVYL'),BEGIN  Production ORVYL only...
 000AF4 D20F 910C A014 0010C 00014 10023  1                      MVC   SCBVINFO,PDBVINFO   Save ORVYL resource info
 000AFA                            10024                       END
                                   10028                       ¿þþþþþþþþþþþþþþþþþþþþþþþþþþþþþþþþþþþþþþÜ
                                   10029                       Ÿ  Do PDB conversions for ORVYL here.  Ÿ
                                   10030                       ¾þþþþþþþþþþþþþþþþþþþþþþþþþþþþþþþþþþþþþþ»
                                   10031            C          IF    ((SUBNAME,EQ,'ORVYL'),OR,
 000AFA D504 8C4A B010_015DC 00010                                   (SUBNAME,EQ,'TESTORV')),BEGIN  ORVYL special cases...
                                   10064  1
 000B0E 9541 A006/4780_00006       10065  1                      IF    ((PDBCMD,NE,TMILWRIT),AND,(PDBCMD,NE,TMILREAD)),EXIT
                                   10103  1
 000B1E 4820 A032            00032 10104  1                      LH    R2,PDBWC
 000B22 5920 8BD6/4750_      01568 10105  1                      IF    (R2,GE,L'MODPFX+4),BEGIN
 000B2A D507 A038 86DE 00038 01070 10122  2                        CLC   PDBTEXT(L'MODPFX),MODPFX  Special MILMOD prefix?
 000B30 4770 81BE            00B50 10123  2                        IF    NE,EXIT             No, scram
 000B34 D203 A008 A040 00008 00040 10137  2                        MVC   PDBMOD,PDBTEXT+L'MODPFX  Move in mode flags
 000B3A 4B20 8C32            015C4 10138  2                        SH    R2,=AL2(L'MODPFX+4)
 000B3E 4020 A032            00032 10139  2                        STH   R2,PDBWC            New write text count
 000B42 41E0 A038/18F2_      00038 10140  2                        MOVEL PDBTEXT,PDBTEXT+L'MODPFX+4,(R2)  move text over
 000B50                            10162  1                      END
                                   10166  1
 000B50 9140 A00A/47E0_0000A       10167  1                      IF    PDBMODC.MODCDSPL,BEGIN  Display mode...
 000B58 5830 9008/1233       00008 10183  2                        LT    R3,SCBPIBP
1SIFT     (SIFT2047) (12:37) (15MAR04) Subsystem Interface                                                                  Page   36
0Current Usings:  (*,R8) (SCB,R9) (PDB,R10) (SUB,R11) (CV,R12)
0Loc    Object Code    Addr1 Addr2  Stmt Lv Lineno    Source Statement           (Hibal 5, Asmedit 3.3)  HLASM R4.0  2004/03/15 12.37
+___    ______ ____    _____ _____  ____ __ ______    ______ _________
0000B5E 4780 8236            00BC8 10187  2                        IF    NZ,BEGIN
 000B62 5830 3008            00008 10198  3                          WITH  (PIB,R3),'L R3,PIBFEBP'
 USING  PIB,R3
 DROP   PIB,R3
 USING  FEB,R3                     10222  3                          WITH  (FEB,R3)
 000B66 9120 3070/47E0_00070       10235  3                          IF    ~FEBFRLIN,EXIT      Skip special RLIN defaults
 000B6E 9630 A00B      0000B       10253  3                          SET   PDBMODD.MODDTRAN+MODDNMOD  Transparent
 000B72 9542 A006/4770_00006       10263  3                          IF    (PDBCMD,NE,FMILREAD),EXIT
 000B7A 4820 A02E            0002E 10284  3                          LH    R2,PDBOUTCT
 000B7E 5920 8BDA/47B0_      0156C 10285  3                          FLOOR R2,0
 000B8A 5920 8BDE/47D0_      01570 10304  3                          CEIL  R2,4000
 000B96 58E0 C064/18F2_      00064 10323  3                          MOVEL L:CVWKBUFP,PDBWC,(R2)
 000BA4 41E0 A038/18F2_      00038 10343  3                          MOVEL PDBTEXT,L:CVWKBUFP,(R2)  Adjust
 000BB2 D705 A032 A032 00032 00032 10363  3                          CLEAR (PDBWC,6)
 000BB8 4020 A032            00032 10370  3                          STH   R2,PDBWC
 000BBC 48F0 A000            00000 10371  3                          LH    R15,PDBLENG
 000BC0 41F0 F006            00006 10372  3                          LA    R15,@R15+6          (We've expanded the PDB, remember)
 000BC4 40F0 A000            00000 10373  3                          STH   R15,PDBLENG
 DROP   FEB,R3                     10374  2                        END
 000BC8 48F0 A032            00032 10383  2                        LH    R15,PDBWC
 000BCC 4AF0 A034            00034 10384  2                        AH    R15,PDBPC
 000BD0 40F0 A032            00032 10385  2                        STH   R15,PDBWC
 000BD4 D701 A034 A034_00034 00034 10386  2                        CLEAR PDBPC,PDBRC,PDBOUTCT
 000BE6                            10403  1                      END
 000BE6                            10407                       END
1SIFT     (SIFT2047) (12:37) (15MAR04) Subsystem Interface                                                                  Page   37
0Current Usings:  (*,R8) (SCB,R9) (PDB,R10) (SUB,R11) (CV,R12)
0Loc    Object Code    Addr1 Addr2  Stmt Lv Lineno    Source Statement           (Hibal 5, Asmedit 3.3)  HLASM R4.0  2004/03/15 12.37
+___    ______ ____    _____ _____  ____ __ ______    ______ _________
0                                  10412                       ¿þþþþþþþþþþþþþþþþþþþþþþþþþþþþþþþþþþþþþþþþþþþþþþþþþþþþþÜ
                                   10413                       Ÿ  Fix up PDBMOD flags for synchronous PDB requests.  Ÿ
                                   10414                       ¾þþþþþþþþþþþþþþþþþþþþþþþþþþþþþþþþþþþþþþþþþþþþþþþþþþþþþ»
 000BE6 9550 A006/4780_00006       10415                       IF    (PDBCMD,NE,TMILBRK),BEGIN  Save PDB info...
 000BEE 91C0 A009/4770_00009       10433  1                      IF    (PDBMODB.MODBUPPR+MODBUPLO,Z),BEGIN  Use def case...
 000BF6 9680 A009      00009       10454  2                        SET   PDBMODB.MODBUPPR
 000BFA 9180 9168/47E0_00168       10461  2                        IF    SCBFUPL,'SET PDBMODB.MODBUPLO'
 000C06                            10488  1                      END
 000C06 91C0 A009/47E0_00009       10492  1                      IF    (PDBMODB.MODBUPPR+MODBUPLO,ONES),BEGIN  Tidy up...
 000C0E 947F A009      00009       10513  2                        CLEAR PDBMODB.MODBUPPR
 000C12                            10521  1                      END
                                   10525  1
 000C12 9108 A009/4710_00009       10526  1                      IF    ~PDBMODB.MODBSLOL,BEGIN
 000C1A 9120 9168/4710_00168       10542  2                        IF    ~SCBFFAST,'SET PDBMODB.MODBSLOL'  Slow
 000C26                            10569  1                      END
                                   10573  1
 000C26 9104 A00B/4710_0000B       10574  1                      IF    ~PDBMODD.MODDXON,BEGIN
 000C2E 9104 9168/47E0_00168       10590  2                        IF    SCBFXON,'SET PDBMODD.MODDXON'     Xon
 000C3A                            10617  1                      END
                                   10621  1
 000C3A 9120 A00B/47E0_0000B       10622  1                      IF    PDBMODD.MODDTRAN,'SET PDBMODD.MODDNMOD'  Transparent
                                   10650  1
 000C46 9108 A00B/4710_0000B       10651  1                      IF    ~PDBMODD.MODDNFLT,BEGIN
 000C4E 9102 9168/4710_00168       10667  2                        IF    ~SCBFFILT,'SET PDBMODD.MODDNFLT'  No ctrl char filter
 000C5A                            10694  1                      END
                                   10698  1
 000C5A D200 90B3 A006 000B3 00006 10699  1                      MVC   SCBCMD,PDBCMD       Save command code
 000C60 D203 90B4 A008 000B4 00008 10700  1                      MVC   SCBMOD,PDBMOD       Save mode flags
 000C66                            10701                       END
                                   10705                       ¿þþþþþþþþþþþþþþþþþþþþþþþþþþþþþþþþþþþþþþþþþþþþþþþþþÜ
                                   10706                       Ÿ  Special handling of BREAK (halt I/O) request.  Ÿ
                                   10707                       ¾þþþþþþþþþþþþþþþþþþþþþþþþþþþþþþþþþþþþþþþþþþþþþþþþþ»
 000C66 9550 A006/4770_00006       10708                       IF    (PDBCMD,EQ,TMILBRK),BEGIN  Halt request...
 000C6E 9604 90B0      000B0       10726  1                      SET   SCBTFHIO            Halt initiated by us
 000C72                            10732                       END
                                   10736                       ¿þþþþþþþþþþþþþþþþþþþþþþþþþþþþþþþþþþþþþþþþþþþþþþþþþþþþþÜ
                                   10737                       Ÿ  TXCTL: Transfer control to a different subsystem.  Ÿ
                                   10738                       ¾þþþþþþþþþþþþþþþþþþþþþþþþþþþþþþþþþþþþþþþþþþþþþþþþþþþþþ»
 000C72 9547 A006/4770_00006       10739                       IF    (PDBCMD,EQ,TMILXCTL),BEGIN  Change subsys...
 000C7A 9247 A006      00006       10757  1           PROCXCTL   MVI   PDBCMD,TMILXCTL
 000C7E 9160 90FF/4780_000FF       10758  1                      IF    SCBFLGF+SCBFSOF,BEGIN  Refuse TXCTL...
 000C86 D207 A024 8B4E 00024 014E0 10776  2                        MVC   PDBSYSNM,=8X'FF'    Indicate not cool
 000C8C 9640 A008      00008       10777  2                        SET   PDBMODA.MODAFMIL
 000C90 182B                       10784  2                        LR    R2,SUBR             Return to sender
 000C92 47F0 8382            00D14 10785  2                        B     PROCX
 000C96                            10786  1                      END
                                   10790  1                      ¿þþþþþþþþþþþþþþþþþþþþþþþþþþþþþþþþþþþþþþþþþþþþþþþþþþþþþþþþþÜ
                                   10791  1                      Ÿ  A subsystem name of "#DEFAULT" means go to the user's  Ÿ
                                   10792  1                      Ÿ    default subsystem (usually CVDEFSYS).                Ÿ
                                   10793  1                      ¾þþþþþþþþþþþþþþþþþþþþþþþþþþþþþþþþþþþþþþþþþþþþþþþþþþþþþþþþþ»
 000C96 D507 8B56 A024_014E8 00024 10794  1                      IF    (PDBSYSNM,EQ,'#DEFAULT'),BEGIN  User's default...
 000CA0 D207 A024 C290 00024 00290 10811  2                        MVC   PDBSYSNM,CVDEFSYS   Assume default name
                                   10812  2
 000CA6 58F0 902C/12FF       0002C 10813  2                        LT    R15,SCBDSUBP        User's default subsystem
1SIFT     (SIFT2047) (12:37) (15MAR04) Subsystem Interface                                                                  Page   38
0Current Usings:  (*,R8) (SCB,R9) (PDB,R10) (SUB,R11) (CV,R12)
0Loc    Object Code    Addr1 Addr2  Stmt Lv Lineno    Source Statement           (Hibal 5, Asmedit 3.3)  HLASM R4.0  2004/03/15 12.37
+___    ______ ____    _____ _____  ____ __ ______    ______ _________
0000CAC 4780 8324            00CB6 10817  2                        IF    NZ,BEGIN            He has one...
 000CB0 D207 A024 F010 00024 00010 10828  3                          WITH  (SUB,R15),'MVC PDBSYSNM,SUBNAME'
 USING  SUB,R15
 DROP   SUB,R15
 000CB6                            10852  2                        END
 000CB6                            10856  1                      END
                                   10860  1                      ¿þþþþþþþþþþþþþþþþþþþþþþþþþþþþþþþþþþþþþþþþþþþþþþþþþþþþþÜ
                                   10861  1                      Ÿ  Reject any attempt to transfer control to MILTEN.  Ÿ
                                   10862  1                      ¾þþþþþþþþþþþþþþþþþþþþþþþþþþþþþþþþþþþþþþþþþþþþþþþþþþþþþ»
 000CB6 D507 8B5E A024_014F0 00024 10863  1                      IF    (PDBSYSNM,EQ,'MILTEN  '),BEGIN  Compatability...
 000CC0 D207 A024 8B4E 00024 014E0 10880  2                        MVC   PDBSYSNM,=8X'FF'    Indicate not cool
 000CC6 9640 A008      00008       10881  2                        SET   PDBMODA.MODAFMIL
 000CCA 182B                       10888  2                        LR    R2,SUBR             Return to sender
 000CCC 47F0 8382            00D14 10889  2                        B     PROCX
 000CD0                            10890  1                      END
                                   10894  1
 000CD0 4120 C2A0            002A0 10895  1                      LA    R2,CVSUBQH-(SUBLINK-SUB)  Dummy first link
 000CD4                            10896  1                      LOOP  BEGIN
 DROP   SUB,R11                    10902  2                        WITH  (SUB,R2)
 USING  SUB,R2
 000CD4 5820 2008/1222_      00008 10923  2                        WHILE ('LT R2,SUBLINK',NZ)
 000CDE D507 A024 2010_00024 00010 10940  2                        IF    (PDBSYSNM,EQ,SUBNAME),BEGIN
 000CE8 D607 2024 2024_00024 00024 10958  3                          IF    (SUBSCLCK,Z),PROCNX  Can't xctl yet
 000CF2 9140 A008/47E0_00008       10977  3                          IF    PDBMODA.MODAFMIL,'MVC PDBSYSNM,=CL8"MILTEN"'
 000D00 47F0 8382            00D14 10999  3                          B     PROCX
 000D04                            11000  2                        END
 000D04 47F0 8342            00CD4 11004  1                      END
 USING  SUB,R11
 DROP   SUB,R2
 000D08 D707 A024 A024 00024 00024 11023  1           PROCNX     CLEAR PDBSYSNM            Indicate not found
 000D0E 9640 A008      00008       11031  1                      SET   PDBMODA.MODAFMIL
 000D12 182B                       11038  1                      LR    R2,SUBR             Return to sender
                                   11039  1
 000D14 4110 9000            00000 11040  1           PROCX      LA    R1,SCB
 000D18 41F0 A000            00000 11041  1                      LA    R15,PDB
 000D1C 58E0 8BE2/0DEE       01574 11042  1                      ACALL SUBENTER            Transfer control
 000D22 47F0 86C2            01054 11046  1                      B     PPDBNORM
 000D26                            11047                       END
                                   11051                       ¿þþþþþþþþþþþþþþþþþþþþþþþþþÜ
                                   11052                       Ÿ  Terminal I/O request.  Ÿ
                                   11053                       ¾þþþþþþþþþþþþþþþþþþþþþþþþþ»
                                   11054            C          IF    ((PDBCMD,EQ,TMILWRIT),OR,(PDBCMD,EQ,MILAWR),OR,
 000D26 9541 A006/4780_00006                                         (PDBCMD,EQ,TMILREAD)),BEGIN  Count the I/O...
 000D3E 9110 90B0/4710_000B0       11104  1                      IF    SCBTFSIO,EXIT       Don't count system I/O
 000D46 48F0 A000            00000 11122  1                      LH    R15,PDBLENG
 000D4A 4BF0 8C34            015C6 11123  1                      SH    R15,=AL2(L'PDBHDR)  Data length
 000D4E 4720 83C4/41F0_      00D56 11124  1                      IF    ~POS,'LA R15,1'
 000D56 41F0 F0FF            000FF 11141  1                      LA    R15,@R15+255
 000D5A 88F0 0008            00008 11142  1                      SRL   R15,8               No. of 256 byte blocks
 000D5E 5AF0 90F0            000F0 11143  1                      A     R15,SCBNIO
 000D62 50F0 90F0            000F0 11144  1                      ST    R15,SCBNIO          New I/O count
                                   11145  1
 000D66 58E0 8BE6/0DEE       01578 11146  1                      VCALL SINEUPD             Update SIN I/O count too
 000D6C                            11150                       END
1SIFT     (SIFT2047) (12:37) (15MAR04) Subsystem Interface                                                                  Page   39
0Current Usings:  (*,R8) (SCB,R9) (PDB,R10) (SUB,R11) (CV,R12)
0Loc    Object Code    Addr1 Addr2  Stmt Lv Lineno    Source Statement           (Hibal 5, Asmedit 3.3)  HLASM R4.0  2004/03/15 12.37
+___    ______ ____    _____ _____  ____ __ ______    ______ _________
0                                  11154
 000D6C 9541 A006/4780_00006       11155                       IF    ((PDBCMD,EQ,TMILWRIT),OR,(PDBCMD,EQ,TMILXCTL)),BEGIN
 000D7C 947F 90B2/D701_000B2       11190  1                      CLEAR SCBFWARN,SCBTMINC   Reset inactivity timeout
 000D86                            11202                       END
                                   11206
 000D86 D601 A032 A032_00032 00032 11207                       IF    ((PDBWC,Z),AND,(PDBPC,Z)),BEGIN  Zero len write...
 000D9A 9541 A006/4780_00006       11238  1                      IF    ((PDBCMD,NE,TMILWRIT),AND,(PDBCMD,NE,MILAWR)),EXIT
 000DAA D201 A000 8C34 00000 015C6 11276  1                      MVC   PDBLENG,=AL2(L'PDBHDR)
 000DB0 D730 A007 A007 00007 00007 11277  1                      CLEAR PDBOPT
 000DB6 4110 9000            00000 11284  1                      LA    R1,SCB
 000DBA 41F0 A000            00000 11285  1                      LA    R15,PDB
 000DBE 58E0 8BEA/0DEE       0157C 11286  1                      ACALL SUBSEND             Acknowledge immediately
 000DC4 47F0 86C2            01054 11290  1                      B     PPDBNORM
 000DC8                            11291                       END
                                   11295
 000DC8 9546 A006/4770_00006       11296                       IF    (PDBCMD,EQ,MILAWR),BEGIN
 000DD0 58F0 A010            00010 11314  1                      L     R15,PDBAWID         Async write session id
 000DD4 58E0 8BEE/0DEE       01580 11315  1                      ACALL FINDSID
 000DDA 4770 8456            00DE8 11319  1                      IF    Z,BEGIN             Found session...
 000DDE 41F0 A000            00000 11330  2                        LA    R15,PDB
 000DE2 58E0 8BF2/0DEE       01584 11331  2                        ACALL ASYNWRIT            Queue asynchronous write
 000DE8                            11335  1                      END
 000DE8 D730 A007 A007 00007 00007 11339  1                      CLEAR PDBOPT
 000DEE D201 A000 8C34 00000 015C6 11346  1                      MVC   PDBLENG,=AL2(L'PDBHDR)
 000DF4 12FF/4780 846C_            11347  1                      IF    (R15,NZ),'SET PDBCPLB.CPLBILT'
 000DFE 4110 9000            00000 11373  1                      LA    R1,SCB
 000E02 41F0 A000            00000 11374  1                      LA    R15,PDB
 000E06 58E0 8BEA/0DEE       0157C 11375  1                      ACALL SUBSEND
 000E0C 47F0 86C2            01054 11379  1                      B     PPDBNORM
 000E10                            11380                       END
                                   11384                       ¿þþþþþþþþþþþþþþþþþþÜ
                                   11385                       Ÿ  Do system I/O.  Ÿ
                                   11386                       ¾þþþþþþþþþþþþþþþþþþ»
 000E10 9110 90B0/47E0_000B0       11387                       IF    SCBTFSIO,BEGIN      System I/O...
 000E18 58E0 8BF6/0DEE       01588 11402  1                      ACALL SYSDO               Do system I/O
 000E1E 47F0 86C2            01054 11406  1                      B     PPDBNORM            All done, scram
 000E22                            11407                       END
                                   11411                       ¿þþþþþþþþþþþþþþþþþþþþþþþþþþþþþþþþþþþþþþþþÜ
                                   11412                       Ÿ  Trace real and quiet terminal I/O's.  Ÿ
                                   11413                       ¾þþþþþþþþþþþþþþþþþþþþþþþþþþþþþþþþþþþþþþþþ»
 000E22 9180 915F/47E0_0015F       11414                       IF    SCBFTRC,BEGIN       Tracing is active...
 000E2A 9542 A006/4780_00006       11429  1                      IF    ((PDBCMD,EQ,TMILREAD),OR,(PDBCMD,EQ,TMILWRIT)),BEGIN
 000E3A 41F0 8B6E            01500 11464  2                        LA    R15,=CL(L'STRCTYPE)'Read'
 000E3E 9541 A006/4770_00006       11465  2                        IF    (PDBCMD,EQ,TMILWRIT),'LA R15,=CL(L"STRCTYPE)"Write"'
                                   11489  2
 000E4A 9108 9186/47E0_00186       11490  2                        IF    SCBFQUIET,BEGIN     We are in quiet mode...
 000E52 9101 A009/4710_00009       11505  3                          IF    PDBMODB.MODBFOR,EXIT  Forced I/O, scram
 000E5A 41F0 8B8E            01520 11524  3                          LA    R15,=CL(L'STRCTYPE)'Quiet read'
 000E5E 9541 A006/4770_00006       11525  3                          IF    (PDBCMD,EQ,TMILWRIT),BEGIN
 000E66 41F0 8B9E            01530 11543  4                            LA    R15,=CL(L'STRCTYPE)'Quiet write'
 000E6A                            11544  3                          END
 000E6A                            11548  2                        END
 000E6A 4110 A038/4800_      00038 11552  2                        SETMSG PDBTEXT,LH:PDBWC    Write text
 000E72 4A00 A034            00034 11565  2                        AH    R0,PDBPC            Include prompt text too
1SIFT     (SIFT2047) (12:37) (15MAR04) Subsystem Interface                                                                  Page   40
0Current Usings:  (*,R8) (SCB,R9) (PDB,R10) (SUB,R11) (CV,R12)
0Loc    Object Code    Addr1 Addr2  Stmt Lv Lineno    Source Statement           (Hibal 5, Asmedit 3.3)  HLASM R4.0  2004/03/15 12.37
+___    ______ ____    _____ _____  ____ __ ______    ______ _________
0000E76 58E0 8BFA/0DEE       0158C 11566  2                        ACALL SESSTRC             Trace terminal I/O
 000E7C                            11570  1                      END
 000E7C                            11574                       END
                                   11578                       ¿þþþþþþþþþþþþþþþþþÜ
                                   11579                       Ÿ  Do quiet I/O.  Ÿ
                                   11580                       ¾þþþþþþþþþþþþþþþþþ»
 000E7C 9108 90B0/47E0_000B0       11581                       IF    SCBTFQIO,BEGIN      Quiet I/O...
 000E84 58E0 8BFE/0DEE       01590 11596  1                      ACALL QUIETDO             Do quiet I/O
 000E8A 47F0 86C2            01054 11600  1                      B     PPDBNORM            All done, scram
 000E8E                            11601                       END
                                   11605                       ¿þþþþþþþþþþþþþþþþþþþþþþþþþþþþþþþþþþþþþþþþþþþÜ
                                   11606                       Ÿ  Do real I/O (send it to the front-end).  Ÿ
                                   11607                       ¾þþþþþþþþþþþþþþþþþþþþþþþþþþþþþþþþþþþþþþþþþþþ»
                                   11608            C          IF    ((PDBCMD,EQ,TMILWRIT),OR,(PDBCMD,EQ,TMILREAD),OR,
 000E8E 9541 A006/4780_00006                                         (PDBCMD,EQ,TMILBRK)),BEGIN  FE stuff...
 000EA6 4110 9000            00000 11658  1                      LA    R1,SCB
 000EAA 41F0 A000            00000 11659  1                      LA    R15,PDB
 000EAE 58E0 8C02/0DEE       01594 11660  1                      ACALL FEDO
 000EB4 4780 852E/4DE0_      00EC0 11664  1                      IF    NZ,'LCALL PROCCLS; B PPDBERR'
 000EC0 47F0 86C2            01054 11683  1                      B     PPDBNORM
 000EC4                            11684                       END
                                   11688
 000EC4 9549 A006/4770_00006       11689                       IF    (PDBCMD,EQ,MILCNTL),'LCALL CNTL; B PPDBNORM'
                                   11715                       ¿þþþþþþþþþþþþþþþþþþþþþþþþþþþþþþþþþþþþþþþþþþþþþþþþþþþþþþþþþþþÜ
                                   11716                       Ÿ  Subsys-off (request for all other subsystem to logoff).  Ÿ
                                   11717                       ¾þþþþþþþþþþþþþþþþþþþþþþþþþþþþþþþþþþþþþþþþþþþþþþþþþþþþþþþþþþþ»
 000ED4 954A A006/4770_00006       11718                       IF    (PDBCMD,EQ,MILSOF),BEGIN  Subsys off...
 000EDC 9120 90FF/47E0_000FF       11736  1                      IF    SCBFSOF,BEGIN       Already doing a subsys off...
 000EE4 182B                       11751  2                        LR    R2,SUBR             Treat as nop; and return
 000EE6 47F0 864C            00FDE 11752  2                        B     PROCRET
 000EEA                            11753  1                      END
                                   11757  1
 000EEA 9620 90FF      000FF       11758  1                      SET   SCBFSOF             Subsys off now in progress
 000EEE 50B0 902C            0002C 11764  1                      ST    SUBR,SCBDSUBP       We are the default subsystem
                                   11765  1
 000EF2 4DE0 8A44            013D6 11766  1                      LCALL SUBOFF              Tell next subsystem to go away
 000EF6 4770 86C2            01054 11768  1                      BNZ   PPDBNORM            Other subsys now in control
                                   11769  1
 000EFA 94DF 90FF      000FF       11770  1                      CLEAR SCBFSOF             Subsys off is finished
 000EFE 182B                       11777  1                      LR    R2,SUBR             Return to same subsystem
 000F00 47F0 864C            00FDE 11778  1                      B     PROCRET             Return
 000F04                            11779                       END
                                   11783                       ¿þþþþþþþþþþþþþþþþþþþÜ
                                   11784                       Ÿ  End of session.  Ÿ
                                   11785                       ¾þþþþþþþþþþþþþþþþþþþ»
 000F04 9540 A006/4770_00006       11786                       IF    (PDBCMD,EQ,TMILEOS),BEGIN  Logoff...
 000F0C 1B44                       11804  1                      CLEAR R4
 000F0E 4120 9030            00030 11808  1                      LA    R2,SCBSUBL
 000F12 4130 9080            00080 11809  1                      LA    R3,SCBSUBE
 000F16 1923/47B0 85B0             11810  1                      WHILE (R2,LT,R3),BEGIN
 000F1C 5810 2000            00000 11827  2                        L     R1,@R2
 000F20 19B1/4770 859A_            11828  2                        IF    (SUBR,EQ,R1),'CLEAR R1; ST R1,@R2'  Reset
 000F2C 1211/4780 85A8_            11853  2                        IF    ((R1,NZ),AND,(R4,Z)),'LR R4,R1'
 000F3A 4120 2004            00004 11886  2                        LA    R2,@R2+4
1SIFT     (SIFT2047) (12:37) (15MAR04) Subsystem Interface                                                                  Page   41
0Current Usings:  (*,R8) (SCB,R9) (PDB,R10) (SUB,R11) (CV,R12)
0Loc    Object Code    Addr1 Addr2  Stmt Lv Lineno    Source Statement           (Hibal 5, Asmedit 3.3)  HLASM R4.0  2004/03/15 12.37
+___    ______ ____    _____ _____  ____ __ ______    ______ _________
0000F3E 47F0 8584            00F16 11887  1                      END
                                   11892  1
 000F42 48F0 B02E/06F0_      0002E 11893  1                      DECR  R15,SUBCUR          One less session now
                                   11898  1
 000F4C 9120 90FF/47E0_000FF       11899  1                      IF    SCBFSOF,BEGIN       Subsys off in progress...
 000F54 4DE0 8A44            013D6 11914  2                        LCALL SUBOFF              Zot next subsystem
 000F58 4770 86C2            01054 11916  2                        BNZ   PPDBNORM            Another subsys is now in control
                                   11917  2
 000F5C 94DF 90FF      000FF       11918  2                        CLEAR SCBFSOF             All user subsystems gone now
 000F60 5820 902C            0002C 11925  2                        L     R2,SCBDSUBP         Return to default subsystem
 000F64 47F0 864C            00FDE 11926  2                        B     PROCRET
 000F68                            11927  1                      END
                                   11931  1
 000F68 9140 A007/47E0_00007       11932  1                      IF    PDBCMDFL.EOSALL,'SET SCBFLGF'  Logoff terminal
 000F74 9120 A007/4710_00007       11959  1                      IF    PDBCMDFL.EOSXCTL,PROCXCTL  Transfer control
                                   11978  1
 000F7C 1244/4780 85FA             11979  1                      IF    (R4,NZ),BEGIN       Usersys(s) still connected...
 000F82 9640 90FF      000FF       11993  2                        SET   SCBFLGF             Logging off
 000F86 1824                       11999  2                        LR    R2,R4               First usersys
 000F88 47F0 864C            00FDE 12000  2                        B     PROCRET             Tell it end of session
 000F8C                            12001  1                      END
                                   12005  1
 000F8C 1B44                       12006  1                      CLEAR R4
 000F8E D604 9124 9124_00124 00124 12010  1                      IF    ((SCBACCT,NZ),AND,~SCBSFPS),'LA R4,1'  Flag
                                   12046  1
 000FA4 4110 9000            00000 12047  1                      LA    R1,SCB
 000FA8 58E0 8C06/0DEE       01598 12048  1                      VCALL DECRSES             Decr user count
                                   12052  1
 000FAE D705 A032 A032 00032 00032 12053  1                      CLEAR (PDBWC,6)
 000FB4 4110 9000            00000 12060  1                      LA    R1,SCB
 000FB8 41F0 A000            00000 12061  1                      LA    R15,PDB
 000FBC 58E0 8C02/0DEE       01594 12062  1                      ACALL FEDO                Send eos to fe
 000FC2 4780 863C/4DE0_      00FCE 12066  1                      IF    NZ,'LCALL PROCCLS; B PPDBERR'
                                   12085  1
 000FCE 1244/4780 8648_            12086  1                      IF    (R4,NZ),'VCALL STOPCHK'  (May shutdown milten)
 000FDA 47F0 86C2            01054 12109  1                      B     PPDBNORM
                                   12110  1
 000FDE D207 C248 8B66 00248 014F8 12111  1           PROCRET    MVC   CVWORK,=CL8'MILTEN'
 000FE4 D737 A000 A000 00000 00000 12112  1                      CLEAR PDBHDR
 000FEA D201 A000 8C34 00000 015C6 12119  1                      MVC   PDBLENG,=AL2(L'PDBHDR)
 000FF0 D207 A024 C248 00024 00248 12120  1                      MVC   PDBSYSNM,CVWORK
 000FF6 9640 A008      00008       12121  1                      SET   PDBMODA.MODAFMIL
 000FFA 4110 9000            00000 12128  1                      LA    R1,SCB
 000FFE 41F0 A000            00000 12129  1                      LA    R15,PDB
 001002 58E0 8BE2/0DEE       01574 12130  1                      ACALL SUBENTER
 001008 47F0 86C2            01054 12134  1                      B     PPDBNORM
 00100C                            12135                       END
                                   12139
                                   12140            C          IF    ((PDBCMD,EQ,TMILWTO),OR,(PDBCMD,EQ,TMILACCT),
 00100C 9543 A006/4780_00006                                         OR,(PDBCMD,EQ,TMILNOP)),BEGIN
 001024 D201 A000 8C34 00000 015C6 12190  1                      MVC   PDBLENG,=AL2(L'PDBHDR)
 00102A D730 A007 A007 00007 00007 12191  1                      CLEAR PDBOPT
 001030 4110 9000            00000 12198  1                      LA    R1,SCB
 001034 41F0 A000            00000 12199  1                      LA    R15,PDB
1SIFT     (SIFT2047) (12:37) (15MAR04) Subsystem Interface                                                                  Page   42
0Current Usings:  (*,R8) (SCB,R9) (PDB,R10) (SUB,R11) (CV,R12)
0Loc    Object Code    Addr1 Addr2  Stmt Lv Lineno    Source Statement           (Hibal 5, Asmedit 3.3)  HLASM R4.0  2004/03/15 12.37
+___    ______ ____    _____ _____  ____ __ ______    ______ _________
0001038 58E0 8BEA/0DEE       0157C 12200  1                      ACALL SUBSEND             Acknowledge immediately
 00103E 47F0 86C2            01054 12204  1                      B     PPDBNORM
 001042                            12205                       END
                                   12209
 001042 1FFF/43F0 A006             12210                       LC    R15,PDBCMD          Unknown command code
 001048 4DE0 8AD6            01468 12217                       LCALL PROCCLS
                                   12219
 00104C 41F0 0004            00004 12220              PPDBERR  LA    R15,4               Set error return code
 001050 47F0 86C4            01056 12221                       B     PPDBEXIT
                                   12222
 001054 1BFF                       12223              PPDBNORM CLEAR R15                 Set good return code
 001056 D703 C758 C758 00758 00758 12228              PPDBEXIT CLEAR CVCURSCB
 00105C 41D0 D030/982B_      00030 12236                       PEND
 DROP   SUB,R11
 DROP   PDB,R10
 DROP   SCB,R9
 DROP   *,R8
                                   12271
 001070 EED4C9D3D4D6C47A           12272              MODPFXX  DC    X'EE',C'MILMOD:'
                                   12273              MODPFX   EQU   MODPFXX,*-MODPFXX,C'X'
1SIFT     (SIFT2047) (12:37) (15MAR04) Subsystem Interface                                                                  Page   43
0Current Usings:  (CV,R12)
0Loc    Object Code    Addr1 Addr2  Stmt Lv Lineno    Source Statement           (Hibal 5, Asmedit 3.3)  HLASM R4.0  2004/03/15 12.37
+___    ______ ____    _____ _____  ____ __ ______    ______ _________
0                                  12275              ¿þþþþþþþþþþþþþþþþþþþþþþþþþþþþþþþþþþþþþþþþþþþþþþþþþþþþþþþþþþþþþþþþþþþþþÜ
                                   12276              Ÿ                                                                     Ÿ
                                   12277              Ÿ  SYSMODE -- Local routine to process a PDB terminal read/write      Ÿ
                                   12278              Ÿ    with a prefix of "@@SYSMODE:ffff:".  This routine moves the      Ÿ
                                   12279              Ÿ    PDBMOD flags from the "ffff", and then removes the special       Ÿ
                                   12280              Ÿ    prefix.                                                          Ÿ
                                   12281              Ÿ                                                                     Ÿ
                                   12282              Ÿ                                                                     Ÿ
                                                      ¾þþþþþþþþþþþþþþþþþþþþþþþþþþþþþþþþþþþþþþþþþþþþþþþþþþþþþþþþþþþþþþþþþþþþþ»
0001078 50E0 D044/902B_      00044 12283              SYSMODE  PROC
 USING  *,R8
 USING  SCB,R9                     12319                       WITH  SCB,PDB             (Entry assumptions)
 USING  PDB,R10
                                   12340
 001092 D509 8546 A038_015C8 00038 12341                       IF    (PDBTEXT,NE,'@@SYSMODE:'),EXIT
                                   12361
 00109C 4820 A032            00032 12362                       LH    R2,PDBWC
 0010A0 4A20 A034            00034 12363                       AH    R2,PDBPC
 0010A4 4B20 8550            015D2 12364                       SH    R2,=H'15'
 0010A8 4740 806A            010EC 12365                       IF    NEG,EXIT            Bad format, scram
 0010AC 957A A046/4770_00046       12379                       IF    (PDBTEXT+14,NE,':'),EXIT
                                   12399
 0010B4 D203 A008 A042 00008 00042 12400                       MVC   PDBMOD,PDBTEXT+10   Set new mode flags
                                   12401
 0010BA 41E0 A038/18F2_      00038 12402                       MOVEL PDBTEXT,PDBTEXT+15,(R2)  Move text over
                                   12424
 0010C8 4820 A032            00032 12425                       LH    R2,PDBWC
 0010CC 4B20 8550            015D2 12426                       SH    R2,=H'15'           Reduce data length
 0010D0 4740 8056/4020_      010D8 12427                       IF    ~NEG,'STH R2,PDBWC'
 0010D8 805A/47F0 8068 010D8 010D2 12444                       ELSE  BEGIN               Reduce prompt count...
 0010DC 4A20 A034            00034 12455  1                      AH    R2,PDBPC            (This reduces prompt count)
 0010E0 47B0 8064/1B22       010E6 12456  1                      IF    NEG,'CLEAR R2'      (Shouldn't happen)
 0010E6 4020 A034            00034 12476  1                      STH   R2,PDBPC
 0010EA                            12477                       END
                                   12481
 0010EA 1BFF                       12482                       CLEAR R15                 (Neatness)
 0010EC 41D0 D030/982B_      00030 12486                       PEND
 DROP   PDB,R10
 DROP   SCB,R9
 DROP   *,R8
1SIFT     (SIFT2047) (12:37) (15MAR04) Subsystem Interface                                                                  Page   44
0Current Usings:  (CV,R12)
0Loc    Object Code    Addr1 Addr2  Stmt Lv Lineno    Source Statement           (Hibal 5, Asmedit 3.3)  HLASM R4.0  2004/03/15 12.37
+___    ______ ____    _____ _____  ____ __ ______    ______ _________
0                                  12517              ¿þþþþþþþþþþþþþþþþþþþþþþþþþþþþþþþþþþþþþþþþþþþþþþþþþþþþþþþþþþþþþþþþþþþþþÜ
                                   12518              Ÿ                                                                     Ÿ
                                   12519              Ÿ  SYSCHECK -- Local routine to check to see if this is System        Ÿ
                                   12520              Ÿ    I/O.  If it is then the PDB mode flag is set.                    Ÿ
                                   12521              Ÿ                                                                     Ÿ
                                                      ¾þþþþþþþþþþþþþþþþþþþþþþþþþþþþþþþþþþþþþþþþþþþþþþþþþþþþþþþþþþþþþþþþþþþþþ»
0001100 50E0 D044/902B_      00044 12522              SYSCHECK PROC
 USING  *,R8
 USING  SCB,R9                     12558                       WITH  SCB,PDB             (Entry assumptions)
 USING  PDB,R10
                                   12579                       ¿þþþþþþþþþþþþþþþþþþþþþþþþþþþþþþþþþþþþþþþþþþþþþþþþþþþþþþþþþþÜ
                                   12580                       Ÿ  Set "system I/O" PDB flag if it's an @@SYS read/write.  Ÿ
                                   12581                       ¾þþþþþþþþþþþþþþþþþþþþþþþþþþþþþþþþþþþþþþþþþþþþþþþþþþþþþþþþþþ»
 00111A 94EF 90B0      000B0       12582                       CLEAR SCBTFSIO            Assume it's not for us
 00111E 4820 A032            00032 12589                       LH    R2,PDBWC
 001122 4A20 A034            00034 12590                       AH    R2,PDBPC
 001126 5920 8496/4750_      015A0 12591                       IF    (R2,GE,L'SYSPFX),BEGIN  It might have the prefix...
 00112E D504 823A A038_01344 00038 12608  1                      IF    (SYSPFX,NE,PDBTEXT),EXIT  Not system I/O
 001138 9610 90B0      000B0       12629  1                      SET   SCBTFSIO            It's system I/O
 00113C                            12635                       END
                                   12639
 00113C 1BFF                       12640                       CLEAR R15                 (Neatness)
 00113E 41D0 D030/982B_      00030 12644                       PEND
 DROP   PDB,R10
 DROP   SCB,R9
 DROP   *,R8
1SIFT     (SIFT2047) (12:37) (15MAR04) Subsystem Interface                                                                  Page   45
0Current Usings:  (CV,R12)
0Loc    Object Code    Addr1 Addr2  Stmt Lv Lineno    Source Statement           (Hibal 5, Asmedit 3.3)  HLASM R4.0  2004/03/15 12.37
+___    ______ ____    _____ _____  ____ __ ______    ______ _________
0                                  12675              ¿þþþþþþþþþþþþþþþþþþþþþþþþþþþþþþþþþþþþþþþþþþþþþþþþþþþþþþþþþþþþþþþþþþþþþÜ
                                   12676              Ÿ                                                                     Ÿ
                                   12677              Ÿ  SYSDO -- Local routine to process system I/O.  System I/O is       Ÿ
                                   12678              Ÿ    a terminal read or write that begins with @@SYS.                 Ÿ
                                   12679              Ÿ                                                                     Ÿ
                                                      ¾þþþþþþþþþþþþþþþþþþþþþþþþþþþþþþþþþþþþþþþþþþþþþþþþþþþþþþþþþþþþþþþþþþþþþ»
0001152 50E0 D044/902B_      00044 12680              SYSDO    PROC
 USING  *,R8
 USING  SCB,R9                     12716                       WITH  SCB,PDB             (Entry assumptions)
 USING  PDB,R10
                                   12737
 00116C 9110 90B0/4710_000B0       12738                       FAIL  ~SCBTFSIO,'System terminal I/O problem #1'
 001196 D504 81E8 A038_01344 00038 12762                       FAIL  (SYSPFX,NE,PDBTEXT),'System terminal I/O prob #2'
                                   12789
 0011BE 4820 A032            00032 12790                       LH    R2,PDBWC
 0011C2 4A20 A034            00034 12791                       AH    R2,PDBPC
 0011C6 4B20 8478            015D4 12792                       SH    R2,=AL2(L'SYSPFX)   Length of text past prefix
                                   12793
 0011CA 5920 8448/4750_      015A4 12794                       IF    (R2,GE,5),BEGIN
                                   12811  1
 0011D2 9542 A006/4770_00006       12812  1                      IF    (PDBCMD,EQ,TMILREAD),BEGIN  Allow a few more...
                                   12830  2                        ¿þþþþþþþþþþþþþþþþþþþþþþþþþþþþþþþþþþþþþþþþþþþþþþþþþþþþþþþþþþþþþÜ
                                   12831  2                        Ÿ  Set maximum "input count" (the amount of data that can be  Ÿ
                                   12832  2                        Ÿ    returned) accurately.                                    Ÿ
                                   12833  2                        ¾þþþþþþþþþþþþþþþþþþþþþþþþþþþþþþþþþþþþþþþþþþþþþþþþþþþþþþþþþþþþþ»
 0011DA 48F0 A030            00030 12834  2                        LH    R15,PDBINCT         Max amount of input allowed
 0011DE 12FF/4720 808C_            12835  2                        IF    (R15,NP),'LA R15,168'  (Compatability)
 0011E8 4820 916A/1222       0016A 12855  2                        LTH   R2,SCBINMX          Global max allowed
 0011EE 47D0 809E/5920_      011FA 12859  2                        IF    (NP,OR,(R2,GT,4096)),'LH R2,=H"4096"'  Universal max
 0011FE 19F2/47D0 80AA_            12892  2                        CEIL  R15,R2              Not too much
 001206 40F0 A030            00030 12898  2                        STH   R15,PDBINCT
 00120A 40F0 90BE            000BE 12899  2                        STH   R15,SCBINCT
                                   12900  2
 00120E 9610 A00B      0000B       12901  2                        SET   PDBMODD.MODDNMOD    Don't translate our response
                                   12908  2
 001212 D504 848C A03D_015E8 0003D 12909  2                        IF    (PDBTEXT+L'SYSPFX,EQ,'TERM?'),SYSTERM
 00121C D504 8491 A03D_015ED 0003D 12929  2                        IF    (PDBTEXT+L'SYSPFX,EQ,'ACCT?'),SYSACCT
 001226 D504 8496 A03D_015F2 0003D 12949  2                        IF    (PDBTEXT+L'SYSPFX,EQ,'EXPR?'),SYSEXPR
 001230                            12969  1                      END
 001230                            12973                       END
                                   12977                       ¿þþþþþþþþþþþþþþþþþþþþþþþþþþþþþþþþþþþþþþþþþþþþþþþþþþþþþÜ
                                   12978                       Ÿ  Return attn for unrecognized system I/O requests.  Ÿ
                                   12979                       ¾þþþþþþþþþþþþþþþþþþþþþþþþþþþþþþþþþþþþþþþþþþþþþþþþþþþþþ»
 001230 D201 A000 846A 00000 015C6 12980              SYSBAD   MVC   PDBLENG,=AL2(L'PDBHDR)
 001236 D730 A007 A007 00007 00007 12981                       CLEAR PDBOPT
 00123C 9680 A00C      0000C       12988                       SET   PDBCPLA.CPLAATTN
                                   12995
 001240 4110 9000            00000 12996              SYSSEND  LA    R1,SCB
 001244 41F0 A000            00000 12997                       LA    R15,PDB
 001248 58E0 8420/0DEE       0157C 12998                       ACALL SUBSEND             Send response to subsystem
 00124E 1BFF                       13002                       CLEAR R15                 (Neatness)
 001250 47F0 81D4            01330 13006                       EXIT
1SIFT     (SIFT2047) (12:37) (15MAR04) Subsystem Interface                                                                  Page   46
0Current Usings:  (*,R8) (SCB,R9) (PDB,R10) (CV,R12)
0Loc    Object Code    Addr1 Addr2  Stmt Lv Lineno    Source Statement           (Hibal 5, Asmedit 3.3)  HLASM R4.0  2004/03/15 12.37
+___    ______ ____    _____ _____  ____ __ ______    ______ _________
0000000                00000 00020 13010              SYSTWA   RECORD BEGIN
 000000                            13018  1           SYSTTYPE   DS    CL8                 Terminal type
 000008                            13019  1           SYSTID     DS    CL8                 Terminal id
 000010 00                         13020  1           SYSTFLG    FLAG
 SYSTFLG.SYSFMOD   80 ONES         13024  1                      FLAG  SYSFMOD             - Supported by model terminal
 000011 00                         13029  1           SYSTFLG2   FLAG
 000012                            13033  1           SYSTWID    DS    H                   Actual terminal width
 000014                            13034  1           SYSTHEI    DS    H                   Actual terminal height
 000016                            13035  1           SYSTWIDP   DS    H                   User's width
 000018                            13036  1           SYSTHEIP   DS    H                   User's height (page/pause)
 00001A                            13037  1                      DS    XL6                 Reserved
 000020                00020 00020 13038                       END
-                                  13048              **
                                   13049              **  @@SYSTERM?  (Returns terminal information)
                                   13050              **
-001254 D201 A000 847C 00000 015D8 13052              SYSTERM  MVC   PDBLENG,=AL2(L'PDBHDR+L'SYSTWA)
 00125A D730 A007 A007 00007 00007 13053                       CLEAR PDBOPT
                                   13060
 001260 4170 A038            00038 13061                       LA    R7,PDBTEXT
 USING  SYSTWA,R7                  13062                       WITH  (SYSTWA,R7),BEGIN
 001264 D71F 7000 7000 00000 00000 13076  1                      CLEAR SYSTWA
 00126A D207 7000 918E 00000 0018E 13083  1                      MVC   SYSTTYPE,SCBTTYPE
 001270 D207 7008 914A 00008 0014A 13084  1                      MVC   SYSTID,SCBTID
 001276 9180 915A/47E0_0015A       13085  1                      IF    SCBFMOD,'SET SYSFMOD'
 001282 D201 7012 9188 00012 00188 13111  1                      MVC   SYSTWID,SCBWID
 001288 D201 7014 918C 00014 0018C 13112  1                      MVC   SYSTHEI,SCBHEI
 00128E D201 7016 9188 00016 00188 13113  1                      MVC   SYSTWIDP,SCBWID     (Temporary)
 001294 D201 7018 918A 00018 0018A 13114  1                      MVC   SYSTHEIP,SCBHEIP
 DROP   SYSTWA,R7                  13115                       END
 00129A 47F0 80E4            01240 13123                       B     SYSSEND
1SIFT     (SIFT2047) (12:37) (15MAR04) Subsystem Interface                                                                  Page   47
0Current Usings:  (*,R8) (SCB,R9) (PDB,R10) (CV,R12)
0Loc    Object Code    Addr1 Addr2  Stmt Lv Lineno    Source Statement           (Hibal 5, Asmedit 3.3)  HLASM R4.0  2004/03/15 12.37
+___    ______ ____    _____ _____  ____ __ ______    ______ _________
0000000                00000 00084 13125              SYSAWA   RECORD BEGIN
 000000                            13133  1           SYSAACCT   DS    CL8                 Account (gg.uuu format)
 000008                            13134  1           SYSAACT2   DS    CL8                 Saved account (gg.uuu format)
 000010                            13135  1           SYSAPROJ   DS    CL8                 Project id
 000018                            13136  1                      DS    CL8                 Reserved
 000020                            13137  1           SYSANAME   DS    CL20                Name or Lname
 000034                            13138  1           SYSALNAM   DS    CL20                Name
 000048                            13139  1           SYSALINE   DS    CL20                Line text
 00005C                            13140  1           SYSANO     DS    H                   MILTEN session number
 00005E                            13141  1           SYSAANO    DS    H                   User number (for "gg.uuu#nnn")
 000060                            13142  1                      DS    CL36                Reserved
 000084                00084 00084 13143                       END
-                                  13153              **
                                   13154              **  @@SYSACCT?  (Returns account information)
                                   13155              **
-00129E D201 A000 847E 00000 015DA 13157              SYSACCT  MVC   PDBLENG,=AL2(L'PDBHDR+L'SYSAWA)
 0012A4 D730 A007 A007 00007 00007 13158                       CLEAR PDBOPT
 0012AA 4170 A038            00038 13165                       LA    R7,PDBTEXT
 USING  SYSAWA,R7                  13166                       WITH  (SYSAWA,R7),BEGIN
 0012AE D783 7000 7000 00000 00000 13180  1                      CLEAR SYSAWA
 0012B4 D207 7000 C141 00000 00141 13187  1                      MVC   SYSAACCT,CVBLANKS
 0012BA D201 7000 9127 00000 00127 13188  1                      MVC   SYSAACCT(2),SCBGRP
 0012C0 924B 7002      00002       13189  1                      MVI   SYSAACCT+2,C'.'
 0012C4 D202 7003 9124 00003 00124 13190  1                      MVC   SYSAACCT+3(3),SCBUSER
 0012CA D207 7008 C141 00008 00141 13191  1                      MVC   SYSAACT2,CVBLANKS
 0012D0 D213 7020 9136 00020 00136 13192  1                      MVC   SYSANAME,SCBNAME
 0012D6 D213 7034 9136 00034 00136 13193  1                      MVC   SYSALNAM,SCBNAME
 0012DC D213 7048 9136 00048 00136 13194  1                      MVC   SYSALINE,SCBNAME
 0012E2 D201 705C 90F8 0005C 000F8 13195  1                      MVC   SYSANO,SCBNO
 0012E8 D201 705E 9129 0005E 00129 13196  1                      MVC   SYSAANO,SCBANO
 DROP   SYSAWA,R7                  13197                       END
 0012EE 47F0 80E4            01240 13205                       B     SYSSEND
1SIFT     (SIFT2047) (12:37) (15MAR04) Subsystem Interface                                                                  Page   48
0Current Usings:  (*,R8) (SCB,R9) (PDB,R10) (CV,R12)
0Loc    Object Code    Addr1 Addr2  Stmt Lv Lineno    Source Statement           (Hibal 5, Asmedit 3.3)  HLASM R4.0  2004/03/15 12.37
+___    ______ ____    _____ _____  ____ __ ______    ______ _________
0                                  13207              **
                                   13208              **  @@SYSEXPR?  (Returns the result of a WYLBUR expression)
                                   13209              **
-0012F2 48F0 A032            00032 13211              SYSEXPR  LH    R15,PDBWC
 0012F6 4AF0 A034            00034 13212                       AH    R15,PDBPC           Text length
 0012FA D730 A007 A007 00007 00007 13213                       CLEAR PDBOPT
 001300 40F0 A032            00032 13220                       STH   R15,PDBWC           Save total text length
 001304 4100 F006            00006 13221                       LA    R0,@R15+6
 001308 4000 A02E            0002E 13222                       STH   R0,PDBOUTCT         Also save length here
 00130C 41F0 F038            00038 13223                       LA    R15,L'PDBHDR+@R15
 001310 40F0 A000            00000 13224                       STH   R15,PDBLENG
 001314 9201 A030      00030       13225                       MVI   PDBORV,PDBVRCTL     Set "read control" (see &WYL.ORV)
 001318 5820 902C            0002C 13226                       L     R2,SCBDSUBP         Default subsystem (WYLBUR)
 00131C 4110 9000            00000 13227                       LA    R1,SCB
 001320 41F0 A000            00000 13228                       LA    R15,PDB
 001324 58E0 8418/0DEE       01574 13229                       ACALL SUBENTER            Send expression to WYLBUR
                                   13233
 00132A 1BFF                       13234                       CLEAR R15                 (Neatness)
 00132C 47F0 81D4            01330 13238                       EXIT
 001330 41D0 D030/982B_      00030 13241                       PEND
 DROP   PDB,R10
 DROP   SCB,R9
 DROP   *,R8
                                   13271
 001344 7C7CE2E8E2                 13272              SYSPFX   DC    C'@@SYS'
1SIFT     (SIFT2047) (12:37) (15MAR04) Subsystem Interface                                                                  Page   49
0Current Usings:  (CV,R12)
0Loc    Object Code    Addr1 Addr2  Stmt Lv Lineno    Source Statement           (Hibal 5, Asmedit 3.3)  HLASM R4.0  2004/03/15 12.37
+___    ______ ____    _____ _____  ____ __ ______    ______ _________
0                                  13274              ¿þþþþþþþþþþþþþþþþþþþþþþþþþþþþþþþþþþþþþþþþþþþþþþþþþþþþþþþþþþþþþþþþþþþþþÜ
                                   13275              Ÿ                                                                     Ÿ
                                   13276              Ÿ  QUIETIO -- Local routine to process quiet I/O.  A quiet terminal   Ÿ
                                   13277              Ÿ    write is simply thrown away.  A quiet terminal read is           Ÿ
                                   13278              Ÿ    returned with the logoff flag.                                   Ÿ
                                   13279              Ÿ                                                                     Ÿ
                                   13280              Ÿ    It might be nice someday to keep a trace buffer with the         Ÿ
                                   13281              Ÿ    text from the last 50 or so quiet I/Os.  It would help in        Ÿ
                                   13282              Ÿ    debugging servers.                                               Ÿ
                                   13283              Ÿ                                                                     Ÿ
                                                      ¾þþþþþþþþþþþþþþþþþþþþþþþþþþþþþþþþþþþþþþþþþþþþþþþþþþþþþþþþþþþþþþþþþþþþþ»
000134A 50E0 D044/902B_      00044 13284              QUIETDO  PROC
 USING  *,R8
 USING  SCB,R9                     13320                       WITH  SCB,PDB             (Entry assumptions)
 USING  PDB,R10
                                   13341
 001364 9108 90B0/4710_000B0       13342                       FAIL  ~SCBTFQIO,'Quiet terminal I/O problem'
                                   13366                       ¿þþþþþþþþþþþþþþþþþþþþþþþþþþþþþþþþþþþþþþþþþþþþþþþþþþþþþÜ
                                   13367                       Ÿ  Return attn for unrecognized system I/O requests.  Ÿ
                                   13368                       ¾þþþþþþþþþþþþþþþþþþþþþþþþþþþþþþþþþþþþþþþþþþþþþþþþþþþþþ»
 00138A 9541 A006/4780_00006       13369                       IF    ((PDBCMD,EQ,TMILWRIT),OR,(PDBCMD,EQ,TMILREAD)),BEGIN
 00139A D201 A000 8272 00000 015C6 13404  1                      MVC   PDBLENG,=AL2(L'PDBHDR)
 0013A0 D730 A007 A007 00007 00007 13405  1                      CLEAR PDBOPT
 0013A6 9542 A006/4770_00006       13412  1                      IF    (PDBCMD,EQ,TMILREAD),'SET PDBCPLB.CPLBLGF'  Logoff
 0013B2 4110 9000            00000 13442  1                      LA    R1,SCB
 0013B6 41F0 A000            00000 13443  1                      LA    R15,PDB
 0013BA 58E0 8228/0DEE       0157C 13444  1                      ACALL SUBSEND             Send response to subsystem
 0013C0                            13448                       END
 0013C0 1BFF                       13452                       CLEAR R15                 (Neatness)
 0013C2 41D0 D030/982B_      00030 13456                       PEND
 DROP   PDB,R10
 DROP   SCB,R9
 DROP   *,R8
1SIFT     (SIFT2047) (12:37) (15MAR04) Subsystem Interface                                                                  Page   50
0Current Usings:  (CV,R12)
0Loc    Object Code    Addr1 Addr2  Stmt Lv Lineno    Source Statement           (Hibal 5, Asmedit 3.3)  HLASM R4.0  2004/03/15 12.37
+___    ______ ____    _____ _____  ____ __ ______    ______ _________
0                                  13487              ¿þþþþþþþþþþþþþþþþþþþþþþþþþþþþþþþþþþþþþþþþþþþþþþþþþþþþþþþþþþþþþþþþþþþþþÜ
                                   13488              Ÿ                                                                     Ÿ
                                   13489              Ÿ  SUBOFF -- Local routine to re-enter a user subsystem so it can     Ÿ
                                   13490              Ÿ    logoff.                                                          Ÿ
                                   13491              Ÿ                                                                     Ÿ
                                   13492              Ÿ      On exit, R15 (and CC):                                         Ÿ
                                   13493              Ÿ        0 - no user subsystems found                                 Ÿ
                                   13494              Ÿ        4 - entered usersys                                          Ÿ
                                   13495              Ÿ                                                                     Ÿ
                                                      ¾þþþþþþþþþþþþþþþþþþþþþþþþþþþþþþþþþþþþþþþþþþþþþþþþþþþþþþþþþþþþþþþþþþþþþ»
00013D6 50E0 D044/902B_      00044 13496              SUBOFF   PROC
 USING  *,R8
 USING  SCB,R9                     13532                       WITH  SCB,PDB,SUB         (Entry assumptions)
 USING  PDB,R10
 USING  SUB,R11
                                   13562
 0013F0 4130 9030            00030 13563                       LA    R3,SCBSUBL
 0013F4 4140 9080            00080 13564                       LA    R4,SCBSUBE
 0013F8 1934/47B0 8070             13565                       WHILE (R3,LT,R4),BEGIN    Find subsys in list...
 0013FE 5820 3000/1222       00000 13582  1                      LT    R2,@R3
 001404 4780 8068            01448 13586  1                      IF    NZ,BEGIN            Can we subsys-off this system?
 001408 5920 900C/4780_      0000C 13597  2                        IF    (R2,EQ,SCBSUBP),EXIT  Not us
 001410 5920 902C/4780_      0002C 13617  2                        IF    (R2,EQ,SCBDSUBP),EXIT  Not the default system either
 001418 D737 A000 A000 00000 00000 13637  2                        CLEAR PDBHDR
 00141E D201 A000 81E6 00000 015C6 13644  2                        MVC   PDBLENG,=AL2(L'PDBHDR)
 001424 9680 A00D      0000D       13645  2                        SET   PDBCPLB.CPLBLGF     Logoff (won't be latched)
 001428 D207 A024 8118 00024 014F8 13652  2                        MVC   PDBSYSNM,=CL8'MILTEN'
 00142E 9640 A008      00008       13653  2                        SET   PDBMODA.MODAFMIL
 001432 4110 9000            00000 13660  2                        LA    R1,SCB
 001436 41F0 A000            00000 13661  2                        LA    R15,PDB
 00143A 58E0 8194/0DEE       01574 13662  2                        ACALL SUBENTER            Re-enter to signoff
 001440 41F0 0004            00004 13666  2                        LA    R15,4
 001444 47F0 8072            01452 13667  2                        EXIT  SUBOFF
 001448                            13670  1                      END
                                   13674  1
 001448 4130 3004            00004 13675  1                      LA    R3,@R3+4
 00144C 47F0 8018            013F8 13676                       END
 001450 1BFF                       13681                       CLEAR R15                 Set rc
 001452 41D0 D030/982B_      00030 13685                       PEND
 DROP   SUB,R11
 DROP   PDB,R10
 DROP   SCB,R9
 DROP   *,R8
1SIFT     (SIFT2047) (12:37) (15MAR04) Subsystem Interface                                                                  Page   51
0Current Usings:  (CV,R12)
0Loc    Object Code    Addr1 Addr2  Stmt Lv Lineno    Source Statement           (Hibal 5, Asmedit 3.3)  HLASM R4.0  2004/03/15 12.37
+___    ______ ____    _____ _____  ____ __ ______    ______ _________
0                                  13721              ¿þþþþþþþþþþþþþþþþþþþþþþþþþþþþþþþþþþþþþþþþþþþþþþþþþþþþþþþþþþþþþþþþþþþþþÜ
                                   13722              Ÿ                                                                     Ÿ
                                   13723              Ÿ  PROCCLS/PROCCLSZ -- Local routine to close subsystem path.         Ÿ
                                   13724              Ÿ                                                                     Ÿ
                                                      ¾þþþþþþþþþþþþþþþþþþþþþþþþþþþþþþþþþþþþþþþþþþþþþþþþþþþþþþþþþþþþþþþþþþþþþ»
0001466 1BFF                       13725              PROCCLSZ CLEAR R15
 001468 50E0 D044/902B_      00044 13730              PROCCLS  PROC
 USING  *,R8
 USING  SUB,R11                    13766                       WITH  SUB,PDB             (Entry assumptions)
 USING  PDB,R10
 001482 0700/0ADE/1115_            13787                       QSNAP 'Subsystem path error:',MODE=WTO
 00148C 12FF/4780 802A_            13792                       IF    (R15,NZ),'QSNAP (R15)'
 00149C 0ADE/18480000A_            13816                       QSNAP PDBHDR,L'PDBHDR+16
 0014A4 0ADE/18100000B_            13820                       QSNAP SUB
 0014AC 5BE0 813A            015AC 13824                       S     RAR,=A(MILSIFT)
 0014B0 41E0 E000            00000 13825                       LA    RAR,@RAR
 0014B4 0ADE/120100/E0_            13826                       QSNAP (RAR)               Module offset
                                   13831
 0014BC 4110 B000            00000 13832                       LA    R1,SUB
 0014C0 58E0 813E/0DEE       015B0 13833                       ACALL SUBCLS              Close subsystem
 0014C6 1BBB/50B0 C75C             13837                       CLEAR SUBR,CVCURSUB
 0014CC 41D0 D030/982B_      00030 13846                       PEND
 DROP   PDB,R10
 DROP   SUB,R11
 DROP   *,R8
                                   13876                       QLTORG
1SIFT     (SIFT2047) (12:37) (15MAR04) Subsystem Interface                                                                  Page   52
0Current Usings:  (CV,R12)
0Loc    Object Code    Addr1 Addr2  Stmt Lv Lineno    Source Statement           (Hibal 5, Asmedit 3.3)  HLASM R4.0  2004/03/15 12.37
+___    ______ ____    _____ _____  ____ __ ______    ______ _________
0                                  13946              ¿þþþþþþþþþþþþþþþþþþþþþþþþþþþþþþþþþþþþþþþþþþþþþþþþþþþþþþþþþþþþþþþþþþþþþÜ
                                   13947              Ÿ                                                                     Ÿ
                                   13948              Ÿ  CNTL -- Local routine to process "control" PDB.                    Ÿ
                                   13949              Ÿ                                                                     Ÿ
                                                      ¾þþþþþþþþþþþþþþþþþþþþþþþþþþþþþþþþþþþþþþþþþþþþþþþþþþþþþþþþþþþþþþþþþþþþþ»
0001612 50E0 D044/902B_      00044 13950              CNTL     PROC
 USING  *,R8
 USING  SCB,R9                     13986                       WITH  SCB,PDB,SUB         (Entry assumptions)
 USING  PDB,R10
 USING  SUB,R11
                                   14016
 00162C 1FFF/43F0 A007             14017                       LC    R15,PDBCMDFL        Control no.
 001632 9200 A007/9200_00007       14024                       CLEAR PDBCMDFL,PDBCRET,PDBCMOD
                                   14041
 00163E 59F0 8EB4/4750_      024D0 14042                       IF    (R15,GE,100),BEGIN  Priv'd control...
 001646 9180 B020/47E0_00020       14059  1                      IF    ~SUBFPRIV,CNTLPRV   Can't do it if not priv'd
 00164E 59F0 8EB8/47D0_      024D4 14077  1                      IF    (R15,GT,CTLPMAX),'LA R15,100'
 00165A 4BF0 8F22            0253E 14100  1                      SH    R15,=H'100'
 00165E 89F0 0002            00002 14101  1                      SLL   R15,2
 001662 58EF 8094            016B0 14102  1                      L     RAR,CNTLPTBL(R15)   Processing routine
 001666 05EE                       14103  1                      BALR  RAR,RAR
 001668 47F0 8136            01752 14104  1                      B     CNTLDONE
 00166C                            14105                       END
                                   14109
 00166C 59F0 8EBC/47D0_      024D8 14110                       IF    (R15,GT,CTLMAX),'CLEAR R15'
 001676 89F0 0002            00002 14136                       SLL   R15,2
 00167A 58EF 8068            01684 14137                       L     RAR,CNTLTBL(R15)    Processing routine
 00167E 05EE                       14138                       BALR  RAR,RAR
 001680 47F0 8136            01752 14139                       B     CNTLDONE
1SIFT     (SIFT2047) (12:37) (15MAR04) Subsystem Interface                                                                  Page   53
0Current Usings:  (*,R8) (SCB,R9) (PDB,R10) (SUB,R11) (CV,R12)
0Loc    Object Code    Addr1 Addr2  Stmt Lv Lineno    Source Statement           (Hibal 5, Asmedit 3.3)  HLASM R4.0  2004/03/15 12.37
+___    ______ ____    _____ _____  ____ __ ______    ______ _________
0001684 000016FC                   14141              CNTLTBL  DC    A(CNTL0)
 001688 0000177C                   14142                       DC    A(CNTL1)            1:  sense session info
 00168C 00001B80                   14143                       DC    A(CNTL2)            2:  set   session info
 001690 00001BE6                   14144                       DC    A(CNTL3)            3:  sense port info
 001694 00001DBE                   14145                       DC    A(CNTL4)            4:  sense front-end info
 001698 00001ED8                   14146                       DC    A(CNTL5)            5:  sense device dependent info
 00169C 00001F40                   14147                       DC    A(CNTL6)            6:  sense subsystem info
 0016A0 00001FA2                   14148                       DC    A(CNTL7)            7:  sense accounting info
 0016A4 00001FBC                   14149                       DC    A(CNTL8)            8:  sense milten info
 0016A8 00001FDA                   14150                       DC    A(CNTL9)            9:  sense symbol type
 0016AC 00002028                   14151                       DC    A(CNTL10)           10: sense MILTEN device trace
                                   14152              CNTLTMX  EQU   (*-CNTLTBL-4)/4,,C'N'
                                   14153
 0016B0                            14154                       DS    0S(CTLMAX-CNTLTMX,CNTLTMX-CTLMAX)
-0016B0 000016FC                   14156              CNTLPTBL DC    A(CNTL0)
 0016B4 000020B2                   14157                       DC    A(CNTL101)          101: set session
 0016B8 000021CE                   14158                       DC    A(CNTL102)          102: set session options
 0016BC 0000225A                   14159                       DC    A(CNTL103)          103: kill session
 0016C0 000022B2                   14160                       DC    A(CNTL104)          104: set port info
 0016C4 00002372                   14161                       DC    A(CNTL105)          105: set front-end info
 0016C8 00002412                   14162                       DC    A(CNTL106)          106: set device dependent info
 0016CC 0000247A                   14163                       DC    A(CNTL107)          107: set accounting info
 0016D0 00002498                   14164                       DC    A(CNTL108)          108: milten shutdown
                                   14165              CNTLPTMX EQU   (*-CNTLPTBL-4)/4+100,,C'N'
                                   14166
 0016D4                            14167                       DS    0S(CTLPMAX-CNTLPTMX,CNTLPTMX-CTLPMAX)
-                                  14169                       ¿þþþþþþþþþþþþþþþþþþþþþþþþþþþþþþþþþþÜ
                                   14170                       Ÿ  Front-end control vector table  Ÿ
                                   14171                       ¾þþþþþþþþþþþþþþþþþþþþþþþþþþþþþþþþþþ»
 0016D4 00000000                   14172              FCNTLTBL DC    A(0)
 0016D8 00000000                   14173                       DC    V(CONSCNTL)         FEBTCONS
                                   14174              *         DC    V(ASYNCNTL)         FEBTASYN
 0016DC 00000000                   14175                       DC    A(0)
                                   14176              *         DC    V(PDPCNTL)          FEBTPDP
 0016E0 00000000                   14177                       DC    A(0)
                                   14178              *         DC    V(VTAMCNTL)         FEBTVTAM
 0016E4 00000000                   14179                       DC    A(0)
 0016E8 00000000                   14180                       DC    V(VIRTCNTL)         FEBTVIRT
                                   14181              *         DC    V(NSCCNTL)          FEBTNSC
 0016EC 00000000                   14182                       DC    A(0)
 0016F0 00000000                   14183                       DC    V(ELFCNTL)          FEBTELF
                                   14184              *         DC    V(ALFCNTL)          FEBTALF
 0016F4 00000000                   14185                       DC    A(0)
                                   14186              *         DC    V(ECUCNTL)          FEBTECU
 0016F8 00000000                   14187                       DC    A(0)
                                   14188              FCNTLMAX EQU   (*-FCNTLTBL-4)/4,,C'N'
 0016FC                            14189                       DS    0S(FCNTLMAX-FEBTMAX,FEBTMAX-FCNTLMAX)
1SIFT     (SIFT2047) (12:37) (15MAR04) Subsystem Interface                                                                  Page   54
0Current Usings:  (*,R8) (SCB,R9) (PDB,R10) (SUB,R11) (CV,R12)
0Loc    Object Code    Addr1 Addr2  Stmt Lv Lineno    Source Statement           (Hibal 5, Asmedit 3.3)  HLASM R4.0  2004/03/15 12.37
+___    ______ ____    _____ _____  ____ __ ______    ______ _________
0                                  14191              *****  CONTROL 0:    bad control number
00016FC D201 A000 8F24 00000 02540 14193              CNTL0    MVC   PDBLENG,=AL2(L'PDBHDR)
 001702 920C A00E      0000E       14194                       MVI   PDBCRET,PDBCRBAD    Sorry, wrong number
 001706 47F0 8136            01752 14195                       B     CNTLDONE
-                                  14197              ***
                                   14198              ***
 00170A D201 A000 8F24 00000 02540 14199              CNTLPRV  MVC   PDBLENG,=AL2(L'PDBHDR)
 001710 9204 A00E      0000E       14200                       MVI   PDBCRET,PDBCRPRV    Privileged
 001714 47F0 8136            01752 14201                       B     CNTLDONE
                                   14202
 001718 D201 A000 8F24 00000 02540 14203              CNTLBF   MVC   PDBLENG,=AL2(L'PDBHDR)
 00171E 9208 A00E      0000E       14204                       MVI   PDBCRET,PDBCRBF     Bad format
 001722 47F0 8136            01752 14205                       B     CNTLDONE
                                   14206
 001726 1BFF                       14207              CNTLRC0  CLEAR R15
 001728 47F0 8128            01744 14212                       B     CNTLRC
                                   14213
 00172C 41F0 0004            00004 14214              CNTLRC4  LA    R15,4
 001730 47F0 8128            01744 14215                       B     CNTLRC
                                   14216
 001734 41F0 0008            00008 14217              CNTLRC8  LA    R15,8
 001738 47F0 8128            01744 14218                       B     CNTLRC
                                   14219
 00173C 41F0 000C            0000C 14220              CNTLRC12 LA    R15,12
 001740 47F0 8128            01744 14221                       B     CNTLRC
                                   14222
 001744 D201 A000 8F24 00000 02540 14223              CNTLRC   MVC   PDBLENG,=AL2(L'PDBHDR)
 00174A 42F0 A00F            0000F 14224                       STC   R15,PDBCMOD          control return code
 00174E 47F0 8136            01752 14225                       B     CNTLDONE
                                   14226
 001752 48F0 A000            00000 14227              CNTLDONE LH    R15,PDBLENG
 001756 4BF0 8F24            02540 14228                       SH    R15,=AL2(L'PDBHDR)
 00175A 40F0 A032            00032 14229                       STH   R15,PDBWC
 00175E D701 A034 A034_00034 00034 14230                       CLEAR PDBPC,PDBRC
                                   14242
 00176A 4110 9000            00000 14243                       LA    R1,SCB
 00176E 41F0 A000            00000 14244                       LA    R15,PDB
 001772 58E0 8EC0/0DEE       024DC 14245                       ACALL SUBSEND             Send response
 001778 47F0 8E90            024AC 14249                       EXIT
1SIFT     (SIFT2047) (12:37) (15MAR04) Subsystem Interface                                                                  Page   55
0Current Usings:  (*,R8) (SCB,R9) (PDB,R10) (SUB,R11) (CV,R12)
0Loc    Object Code    Addr1 Addr2  Stmt Lv Lineno    Source Statement           (Hibal 5, Asmedit 3.3)  HLASM R4.0  2004/03/15 12.37
+___    ______ ____    _____ _____  ____ __ ______    ______ _________
0                                  14253              *****  CONTROL 1:    sense session info
000177C 4850 A032/1255       00032 14255              CNTL1    LTH   R5,PDBWC
 001782 4770 8170/1879_      0178C 14259                       IF    Z,'LR R7,SCBR; B CNTL1MAT'  RETURN USER'S sib
 00178C 5950 8EC4/4740_      024E0 14277                       IF    (R5,LT,4),CNTLBF    Must have id
                                   14297
 DROP   SCB,R9                     14298                       DROP  SCB
 USING  SCB,R7                     14306                       USING SCB,R7
                                   14315
 001794 5860 A038            00038 14316                       L     R6,PDBTEXT          Current session id
 001798 1805                       14317                       LR    R0,R5
 00179A 4B00 8F26            02542 14318                       SH    R0,=AL2(6+12)       Length of range text
 00179E 4110 A04A            0004A 14319                       LA    R1,PDBTEXT+6+12
                                   14320
 0017A2 5900 8EC8/4770_      024E4 14321                       IF    ((R0,EQ,1),AND,(@R1,EQ,'*')),BEGIN
 0017B2 1879                       14353  1                      LR    R7,SCBR
 0017B4 5960 70F4/47A0_      000F4 14354  1                      IF    (R6,GE,SCBID),CNTLRC4  all done
 0017BC 47F0 854A            01B66 14374  1                      B     CNTL1MAT
 0017C0                            14375                       END
                                   14379
 0017C0 58E0 8ECC/0DEE       024E8 14380                       DTB   (R1),(R0)           Convert to binary (if number)
 0017C6 4770 81E2            017FE 14395                       IF    Z,BEGIN             Session number...
 0017CA 5950 8ED0/4770_      024EC 14406  1                      IF    ((R5,EQ,3+6+12),AND,(PDBTEXT+6+12,EQ,'0')),EXIT
 0017DA BDF3 C390/47A0_      00390 14442  1           CNTL1NUM   IF    (R15,LGE,CVMAXSES),EXIT
 0017E2 89F0 0002            00002 14463  1                      SLL   R15,2
 0017E6 5AF0 C2BC            002BC 14464  1                      A     R15,CVSATP
 0017EA 5870 F000/1277       00000 14465  1                      LT    R7,@R15
 0017F0 4780 8110            0172C 14469  1                      IF    Z,CNTLRC4           No session
 0017F4 1266/4770 8110             14483  1                      IF    (R6,NZ),CNTLRC4     All done
 0017FA 47F0 854A            01B66 14500  1                      B     CNTL1MAT
 0017FE                            14501                       END
                                   14505
 0017FE 4115 A038            00038 14506                       LA    R1,PDBTEXT(R5)
 001802 41F0 0040            00040 14507                       LA    R15,64
 001806 1BF5                       14508                       SR    R15,R5
 001808 47D0 81FC/06F0_      01818 14509                       IF    POS,'MOVE R15,@R1,CVBLANKS'  pad with blanks
                                   14563
 001818 1266/4770 820A_            14564                       IF    (R6,Z),'L R7,CVSCBQH; B CNTL1F'  start at the top
                                   14585
 001826 5950 8ED4/4750_      024F0 14586                       IF    (R5,GE,6),BEGIN     Session no. present...
 00182E 48F0 A03C            0003C 14603  1                      LH    R15,PDBTEXT+4
 001832 BDF3 C390/47A0_      00390 14604  1                      IF    (R15,LGE,CVMAXSES),EXIT  ignore it
 00183A 89F0 0002            00002 14624  1                      SLL   R15,2
 00183E 5AF0 C2BC            002BC 14625  1                      A     R15,CVSATP
 001842 5870 F000/1277       00000 14626  1                      LT    R7,@R15
 001848 4780 8240            0185C 14630  1                      IF    Z,EXIT              No session
 00184C 5960 70F4/4770_      000F4 14644  1                      IF    (R6,NE,SCBID),EXIT  doesn't match, do search
 001854 5870 7004            00004 14664  1                      L     R7,SCBLINK          Next session
 001858 47F0 825A            01876 14665  1                      B     CNTL1F              SCB found -- no search needed
 00185C                            14666                       END
                                   14670
 00185C 4170 C2B0            002B0 14671                       LA    R7,CVSCBQH-(SCBLINK-SCB)  Dummy first link
 001860 5870 7004/1277_      00004 14672                       WHILE (('LT R7,SCBLINK',NZ),AND,(R6,GE,SCBID)),''
                                   14712
1SIFT     (SIFT2047) (12:37) (15MAR04) Subsystem Interface                                                                  Page   56
0Current Usings:  (SCB,R7) (*,R8) (PDB,R10) (SUB,R11) (CV,R12)
0Loc    Object Code    Addr1 Addr2  Stmt Lv Lineno    Source Statement           (Hibal 5, Asmedit 3.3)  HLASM R4.0  2004/03/15 12.37
+___    ______ ____    _____ _____  ____ __ ______    ______ _________
0001876 4160 A04A            0004A 14713              CNTL1F   LA    R6,PDBTEXT+6+12
 00187A 4B50 8F26            02542 14714                       SH    R5,=AL2(6+12)       Account for id,no,prefix
 00187E 47D0 854A            01B66 14715                       BNP   CNTL1MAT            No range text, everything matches
 001882 1277/4780 8546             14716                       WHILE (R7,NZ),BEGIN
 001888 D507 8EA4 6000_024C0 00000 14732  1                      IF    (@R6,EQ,'OPERATOR'),BEGIN
 001892 9110 712B/47E0_0012B       14748  2                        IF    ~SCBSFOP,CNTL1N     Skip non-operator
 00189A 47F0 854A            01B66 14766  2                        B     CNTL1MAT
 00189E                            14767  1                      END
                                   14771  1
 00189E D507 714A 6000_0014A 00000 14772  1                      IF    (@R6,EQ,SCBTID),CNTL1MAT
                                   14792  1
 0018A8 9140 A03E/4710_0003E       14793  1                      IF    ~PDBTEXT+6.X'40',BEGIN  all not specified...
 0018B0 9120 712B/4710_0012B       14809  2                        IF    SCBSFPS,CNTL1CH     Skip pseudo session
 0018B8 D604 7124 7124_00124 00124 14827  2                        IF    (SCBACCT,Z),CNTL1CH  skip zero session (logging on)
 0018C2                            14846  1                      END
                                   14850  1
 0018C2 9180 A03E/4710_0003E       14851  1                      IF    PDBTEXT+6.X'80',CNTL1Q   quoted text
                                   14870  1
 0018CA 5950 8ED4/4750_      024F0 14871  1                      IF    (R5,GE,6),BEGIN     Gg.uuu or uuu$gg...
 0018D2 D704 D000 D000 00000 00000 14888  2                        CLEAR (@R13,5)
 0018D8 954B 6002/4770_00002       14895  2                        IF    (@R6+2,EQ,'.'),BEGIN  gg.uuu...
 0018E0 D201 D000 6000 00000 00000 14911  3                          MVC   @R13(2),@R6
 0018E6 D202 D002 6003 00002 00003 14912  3                          MVC   @R13+2(3),@R6+3
 0018EC                            14913  2                        END
 0018EC 955B 6003/4770_00003       14917  2                        IF    (@R6+3,EQ,'$'),BEGIN  uuu$gg...
 0018F4 D201 D000 6004 00000 00004 14933  3                          MVC   @R13(2),@R6+4
 0018FA D202 D002 6000 00002 00000 14934  3                          MVC   @R13+2(3),@R6
 001900                            14935  2                        END
 001900 9500 D000/4780_00000       14939  2                        IF    (@R13,EQ,X'00'),EXIT
 001908 5950 8ED4/47D0_      024F0 14958  2                        IF    ((R5,GT,6),AND,(@R6+6,NE,'#')),EXIT
 001918 D501 7127 D000_00127 00000 14993  2                        IF    ((SCBGRP,NE,@R13),OR,(SCBUSER,NE,@R13+2)),CNTL1N
 00192C 5950 8ED4/4780_      024F0 15029  2                        IF    (R5,EQ,6),CNTL1MAT
 001934 1805                       15049  2                        LR    R0,R5
 001936 4B00 8F28            02544 15050  2                        SH    R0,=H'7'
 00193A 4110 6007/58E0_      00007 15051  2                        DTB   @R6+7,(R0)
 001944 4770 8120            0173C 15069  2                        IF    NZ,CNTLRC12         Bad digits
 001948 12FF/4780 854A             15083  2                        IF    (R15,Z),CNTL1MAT    Zero matches everything
 00194E BDF3 7129/4770_      00129 15100  2                        IF    ('C2 R15,SCBANO',NE),CNTL1N
 001956 47F0 854A            01B66 15117  2                        B     CNTL1MAT
 00195A                            15118  1                      END
                                   15122  1
 00195A D500 8F4E 6000_0256A 00000 15123  1                      IF    (@R6,EQ,'&&'),BEGIN
 001964 5950 8EC4/4770_      024E0 15139  2                        IF    (R5,NE,4),CNTLRC12
 00196C D502 7124 6001_00124 00001 15159  2                        IF    (@R6+1,NE,SCBUSER),CNTL1N
 001976 47F0 854A            01B66 15179  2                        B     CNTL1MAT
 00197A                            15180  1                      END
                                   15184  1
 00197A 957C 6000/4770_00000       15185  1                      IF    (@R6,EQ,'@'),BEGIN
 001982 5950 8ED8/4720_      024F4 15201  2                        IF    (R5,GT,3),CNTLRC12
 00198A D500 7127 6001_00127 00001 15221  2                        IF    ('CLC SCBGRP(1),@R6+1',NE),CNTL1N
 001994 5950 8EDC/4780_      024F8 15237  2                        IF    (R5,EQ,2),CNTL1MAT  @g
 00199C D501 7127 6001_00127 00001 15257  2                        IF    (SCBGRP,NE,@R6+1),CNTL1N
 0019A6 47F0 854A            01B66 15277  2                        B     CNTL1MAT
 0019AA                            15278  1                      END
1SIFT     (SIFT2047) (12:37) (15MAR04) Subsystem Interface                                                                  Page   57
0Current Usings:  (SCB,R7) (*,R8) (PDB,R10) (SUB,R11) (CV,R12)
0Loc    Object Code    Addr1 Addr2  Stmt Lv Lineno    Source Statement           (Hibal 5, Asmedit 3.3)  HLASM R4.0  2004/03/15 12.37
+___    ______ ____    _____ _____  ____ __ ______    ______ _________
0                                  15282  1
 0019AA 5950 8EC4/4770_      024E0 15283  1                      IF    ((R5,EQ,4),AND,(@R6,EQ,'KEPT')),BEGIN
 0019BC 9102 70FF/4710_000FF       15315  2                        IF    SCBFKEPT,CNTL1MAT
 0019C4                            15333  1                      END
                                   15337  1
 0019C4 5950 8ED8/4770_      024F4 15338  1                      IF    (R5,EQ,3),BEGIN
 0019CC D502 8F4F 6000_0256B 00000 15355  2                        IF    (@R6,EQ,'ALL'),CNTL1MAT
 0019D6 D502 7124 6000_00124 00000 15374  2                        IF    (@R6,EQ,SCBUSER),CNTL1MAT
                                   15394  2
 0019E0 58F0 7008/12FF       00008 15395  2                        LT    R15,SCBPIBP
 0019E6 4780 83D8            019F4 15399  2                        IF    NZ,BEGIN
 USING  PIB,R15                    15410  3                          WITH  (PIB,R15)
 0019EA D507 F034 6000_00034 00000 15423  3                          IF    (@R6,EQ,PIBNAME),CNTL1MAT
 DROP   PIB,R15                    15443  2                        END
 0019F4                            15452  1                      END
                                   15456  1
 0019F4 9501 70FC/4770_000FC       15457  1           CNTL1CH    IF    (SCBTCONS,AND,(@R6,EQ,SCBNAME)),CNTL1MAT
                                   15492  1
 001A06 5830 7008/1233       00008 15493  1                      LT    R3,SCBPIBP
 001A0C 4780 84EE            01B0A 15497  1                      IF    NZ,BEGIN            PIB ptr...
                                   15508  2                        ¿þþþþþþþþþþþþþþþþþþþþþþþþþþþþþþþþþþþþþþþþþþþþþþþþþþþþþþÜ
                                   15509  2                        Ÿ  The following code tries to be extra careful about  Ÿ
                                   15510  2                        Ÿ    recovering from a bad SCBPIBP ptr.                Ÿ
                                   15511  2                        ¾þþþþþþþþþþþþþþþþþþþþþþþþþþþþþþþþþþþþþþþþþþþþþþþþþþþþþþ»
 001A10 5070 C764            00764 15512  2                        ST    R7,CVCURFRSCB       Save current SCB ptr
 USING  PIB,R3                     15513  2                        WITH  (PIB,R3)
 001A14 D502 8F52 3000_0256E 00000 15526  2                        FAIL  (PIB,NE,'PIB'),'PIB validity error #1'
 001A36 5970 300C/4780_      0000C 15552  2                        FAIL  (R7,NE,PIBSCBP),'PIB validity error #2'
 001A56 5840 3008            00008 15578  2                        L     R4,PIBFEBP
 USING  FEB,R4                     15579  2                        WITH  (FEB,R4)
 001A5A D502 8F55 4000_02571 00000 15592  2                        FAIL  (FEB,NE,'FEB'),'FEB validity error'
 001A7A D607 4014 4014 00014 00014 15618  2                        OC    FEBNAME,FEBNAME     Trigger any error now
 001A80 D703 C764 C764 00764 00764 15619  2                        CLEAR CVCURFRSCB          Reset failsoft info
                                   15626  2
 001A86 1816/1805                  15627  2                        SETMSG (R6),(R5)
 001A8A 1BFF                       15639  2                        CLEAR R15
 001A8C 1200/47D0 848C_            15643  2                        WHILE ((R0,POS),AND,(@R1,NE,'-')),BEGIN
 001A9A 41F0 F001            00001 15674  3                          LA    R15,@R15+1
 001A9E 4110 1001            00001 15675  3                          LA    R1,@R1+1
 001AA2 0600                       15676  3                          DECR  R0
 001AA4 47F0 8470            01A8C 15678  2                        END
 001AA8 12FF/47D0 84BA             15683  2                        IF    (R15,POS),BEGIN     Try to match fe name...
 001AAE 59F0 8EE4/47D0_      02500 15697  3                          CEIL  R15,8
 001ABA D207 C248 C141 00248 00141 15716  3                          MVC   CVWORK,CVBLANKS
 001AC0 06F0/12FF/4740_            15717  3                          MOVE  R15,CVWORK,@R6      Fe name
 001ACC D507 4014 C248_00014 00248 15755  3                          IF    (FEBNAME,NE,CVWORK),CNTL1N  doesn't match
 001AD6                            15776  2                        END
                                   15780  2
 001AD6 4110 1001            00001 15781  2                        LA    R1,@R1+1            Past "-"
 001ADA 0600                       15782  2                        DECR  R0
 001ADC 1200/47D0 854A             15784  2                        IF    (R0,NP),CNTL1MAT    Already matched
 001AE2 5900 8EE4/47D0_      02500 15801  2                        CEIL  R0,8
 001AEE 18F0                       15820  2                        LR    R15,R0
 001AF0 D207 C248 C141 00248 00141 15821  2                        MVC   CVWORK,CVBLANKS
1SIFT     (SIFT2047) (12:37) (15MAR04) Subsystem Interface                                                                  Page   58
0Current Usings:  (PIB,R3) (FEB,R4) (SCB,R7) (*,R8) (PDB,R10) (SUB,R11) (CV,R12)
0Loc    Object Code    Addr1 Addr2  Stmt Lv Lineno    Source Statement           (Hibal 5, Asmedit 3.3)  HLASM R4.0  2004/03/15 12.37
+___    ______ ____    _____ _____  ____ __ ______    ______ _________
0001AF6 06F0/12FF/4740_            15822  2                        MOVE  R15,CVWORK,@R1      Device name
 001B02 44F0 8F6A/D500_      02586 15860  2                        EX    R15,'CLC PIBNAME(0),CVWORK'  match?
 001B06 4780 854A            01B66 15876  2                        BE    CNTL1MAT            Yes
 DROP   FEB,R4                     15877  1                      END
 DROP   PIB,R3
 001B0A 47F0 853E            01B5A 15891  1                      B     CNTL1N
                                   15892  1
 001B0E D213 D000 7136 00000 00136 15893  1           CNTL1Q     MVC   @R13(L'SCBNAME),SCBNAME
 001B14 D613 D000 C141 00000 00141 15894  1                      OC    @R13(L'SCBNAME),CVBLANKS
 001B1A 12F5/4720 8512             15895  1                      IF    ('LTR R15,R5',~POS),BEGIN  null string...
 001B20 D513 D000 C141_00000 00141 15908  2                        IF    ('CLC @R13(L"SCBNAME),CVBLANKS',EQ),CNTL1MAT
 001B2A 47F0 853E            01B5A 15924  2                        B     CNTL1N
 001B2E                            15925  1                      END
 001B2E 59F0 8EE8/47D0_      02504 15929  1                      CEIL  R15,L'SCBNAME
 001B3A 06F0                       15948  1                      DECR  R15                 Ex form
 001B3C D63F 6000 C141 00000 00141 15950  1                      OC    @R6(64),CVBLANKS    Caps
 001B42 181D                       15951  1                      LR    R1,R13
 001B44 4140 1014            00014 15952  1                      LA    R4,@R1+L'SCBNAME
 001B48                            15953  1                      LOOP  BEGIN
 001B48 44F0 8F70/D500_      0258C 15959  2                        EX    R15,'CLC @R6(0),@R1' Match?
 001B4C 4780 854A            01B66 15975  2                        BE    CNTL1MAT            Yes
 001B50 4110 1001            00001 15976  2                        LA    R1,@R1+1
 001B54 1914/4750 852C             15977  1                      UNTIL (R1,GE,R4),END
                                   16000  1
 001B5A 5870 7004            00004 16001  1           CNTL1N     L     R7,SCBLINK          Next session
 001B5E 47F0 8266            01882 16002                       END
 001B62 47F0 8110            0172C 16007                       B     CNTLRC4             All done
                                   16008
 001B66 4110 7000            00000 16009              CNTL1MAT LA    R1,SCB
 001B6A 41F0 A038            00038 16010                       LA    R15,PDBTEXT         Put sib here
 001B6E 58E0 8EEC/0DEE       02508 16011                       ACALL FMTSIB
 001B74 41F0 F038            00038 16015                       LA    R15,L'PDBHDR+@R15
 001B78 40F0 A000            00000 16016                       STH   R15,PDBLENG
 001B7C 47F0 8136            01752 16017                       B     CNTLDONE
                                   16018
 DROP   SCB,R7                     16019                       DROP  SCB
 USING  SCB,R9                     16027                       USING SCB
1SIFT     (SIFT2047) (12:37) (15MAR04) Subsystem Interface                                                                  Page   59
0Current Usings:  (*,R8) (SCB,R9) (PDB,R10) (SUB,R11) (CV,R12)
0Loc    Object Code    Addr1 Addr2  Stmt Lv Lineno    Source Statement           (Hibal 5, Asmedit 3.3)  HLASM R4.0  2004/03/15 12.37
+___    ______ ____    _____ _____  ____ __ ______    ______ _________
0                                  16037              *****  CONTROL 2:    set session info
-001B80 48F0 A032            00032 16039              CNTL2    LH    R15,PDBWC
 001B84 59F0 8EDC/4740_      024F8 16040                       IF    ((R15,LT,2),OR,(R15,GT,L'SCBOPT)),CNTLBF
 001B94 1F22/BF23 A038             16076                       L2    R2,PDBTEXT          New SIBUC
 001B9A 0620                       16084                       DECR  R2
 001B9C 1F11/BF13 9134             16086                       L2    R1,SCBUC
 001BA2 1921/4780 85AA             16094                       IF    (R2,NE,R1),BEGIN  Update counts disagree...
 001BA8 4110 9000            00000 16109  1                      LA    R1,SCB
 001BAC 41F0 A038            00038 16110  1                      LA    R15,PDBTEXT         Put SIB here
 001BB0 58E0 8EEC/0DEE       02508 16111  1                      ACALL FMTSIB
 001BB6 41F0 F038            00038 16115  1                      LA    R15,L'PDBHDR+@R15
 001BBA 40F0 A000            00000 16116  1                      STH   R15,PDBLENG
 001BBE 9204 A00F      0000F       16117  1                      MVI   PDBCMOD,4
 001BC2 47F0 8136            01752 16118  1                      B     CNTLDONE            Return SIB with bad rc
 001BC6                            16119                       END
                                   16123
 001BC6 06F0/12FF/4740_            16124                       MOVE  R15,SCBOPT,PDBTEXT  Set SIB options
 001BD2 4110 9000            00000 16162                       LA    R1,SCB
 001BD6 58E0 8EF4/0DEE       02510 16163                       ACALL UPDSCB              Check SCB updates
 001BDC D201 A000 8F24 00000 02540 16167                       MVC   PDBLENG,=AL2(L'PDBHDR)
 001BE2 47F0 8136            01752 16168                       B     CNTLDONE
1SIFT     (SIFT2047) (12:37) (15MAR04) Subsystem Interface                                                                  Page   60
0Current Usings:  (*,R8) (SCB,R9) (PDB,R10) (SUB,R11) (CV,R12)
0Loc    Object Code    Addr1 Addr2  Stmt Lv Lineno    Source Statement           (Hibal 5, Asmedit 3.3)  HLASM R4.0  2004/03/15 12.37
+___    ______ ____    _____ _____  ____ __ ______    ______ _________
0                                  16170              *****  CONTROL 3:    sense port info
-001BE6 4840 A032/1244       00032 16172              CNTL3    LTH   R4,PDBWC
 001BEC 4770 85E0            01BFC 16176                       IF    Z,BEGIN             Our port...
 001BF0 5860 9008            00008 16187  1                      L     R6,SCBPIBP          Our PIB
 001BF4 5870 6008            00008 16188  1                      WITH  (PIB,R6),'L R7,PIBFEBP'  our FEB
 USING  PIB,R6
 DROP   PIB,R6
 001BF8 47F0 876A            01D86 16212  1                      B     CNTL3MAT
 001BFC                            16213                       END
                                   16217
 001BFC 5940 8EC4/4740_      024E0 16218                       IF    (R4,LT,4),CNTLBF    Must have fe/port ids
                                   16238
 001C04 4150 A048            00048 16239                       LA    R5,PDBTEXT+4+12     Range text
 001C08 4B40 8F2A            02546 16240                       SH    R4,=AL2(4+12)
 001C0C 5940 8EC8/4770_      024E4 16241                       IF    ((R4,EQ,1),AND,(@R5,EQ,'*')),BEGIN  our port...
 001C1C 5860 9008            00008 16273  1                      L     R6,SCBPIBP          Our PIB
 USING  PIB,R6                     16274  1                      WITH  (PIB,R6)
 001C20 5870 6008            00008 16287  1                      L     R7,PIBFEBP          Our FEB
 USING  FEB,R7                     16288  1                      WITH  (FEB,R7)
 001C24 48F0 6004            00004 16301  1                      LH    R15,PIBNO
 001C28 D603 A038 A038_00038 00038 16302  1                      IF    ('OC PDBTEXT(4),PDBTEXT',NZ),CNTLRC4  have FEBid..done
 001C32 47F0 876A            01D86 16318  1                      B     CNTL3MAT
 DROP   FEB,R7                     16319                       END
 DROP   PIB,R6
                                   16333
 001C36 48F0 A038            00038 16334                       LH    R15,PDBTEXT         Front-end id to match
 001C3A 4170 C294            00294 16335                       LA    R7,CVFEBQH-(FEBLINK-FEB)  Dummy first link
 USING  FEB,R7                     16336                       USING FEB,R7
 001C3E 5870 7008/1277_      00008 16345                       WHILE ('LT R7,FEBLINK',NZ),BEGIN
 001C48 BDF3 7004/47C0_      00004 16363  1                      IF    (R15,LLE,FEBID),CNTL3FE
 001C50 47F0 8622            01C3E 16383                       END
 001C54 47F0 8110            0172C 16388                       B     CNTLRC4             No match, all done
1SIFT     (SIFT2047) (12:37) (15MAR04) Subsystem Interface                                                                  Page   61
0Current Usings:  (FEB,R7) (*,R8) (SCB,R9) (PDB,R10) (SUB,R11) (CV,R12)
0Loc    Object Code    Addr1 Addr2  Stmt Lv Lineno    Source Statement           (Hibal 5, Asmedit 3.3)  HLASM R4.0  2004/03/15 12.37
+___    ______ ____    _____ _____  ____ __ ______    ______ _________
0001C58 48F0 A03A            0003A 16390              CNTL3FE  LH    R15,PDBTEXT+2       Current port id
 001C5C D501 7004 A038_00004 00038 16391                       IF    (FEBID,EQ,PDBTEXT),'LA R15,@R15+1'  next port
 001C6A 8652/47F0 8654_01C6A 01C64 16415                       ELSE  'CLEAR R15'         New fe, start at port zero
 001C70 49F0 7076/4750_      00076 16435              CNTL3P   IF    (R15,GE,FEBPMAX),BEGIN
 001C78 5870 7008/1277       00008 16453  1           CNTL3NF    LT    R7,FEBLINK          Next front-end
 001C7E 4780 8110            0172C 16457  1                      BZ    CNTLRC4             None, all done
 001C82 1BFF                       16458  1                      CLEAR R15                 Start at port zero
 001C84                            16462                       END
 001C84 181F                       16466                       LR    R1,R15
 001C86 8910 0002            00002 16467                       SLL   R1,2                Port no. times four
 001C8A 5860 7098/1266       00098 16468                       LT    R6,FEBPATP
 001C90 4780 865C            01C78 16472                       BZ    CNTL3NF             No ports, go on to next fe
 001C94 5861 6000/1266       00000 16473                       LT    R6,@R6(R1)          PIB ptr
 001C9A 4770 868A            01CA6 16477                       IF    Z,BEGIN
 001C9E 41F0 F001            00001 16488  1                      LA    R15,@R15+1          Next port
 001CA2 47F0 8654            01C70 16489  1                      B     CNTL3P
 001CA6                            16490                       END
 USING  PIB,R6                     16494                       USING PIB,R6
                                   16503
 001CA6 4150 A048            00048 16504                       LA    R5,PDBTEXT+4+12
 001CAA 4840 A032            00032 16505                       LH    R4,PDBWC
 001CAE 4B40 8F2A            02546 16506                       SH    R4,=AL2(4+12)
 001CB2 47D0 876A            01D86 16507                       BNP   CNTL3MAT
                                   16508
 001CB6 9140 A03C/4710_0003C       16509                       IF    (~PDBTEXT+4.X'40',AND,PIBFPS),CNTL3NP  skip pseudo port
                                   16542
 001CC6 5940 8ED8/4770_      024F4 16543                       IF    (R4,EQ,3),BEGIN
 001CCE D502 8F4F 5000_0256B 00000 16560  1                      IF    (@R5,EQ,'ALL'),CNTL3MAT
 001CD8 95F0 5000/4780_00000       16579  1                      IF    (@R5,EQ,'0'),CNTL3DEV  unit addr
 001CE0 95F6 5000/4780_00000       16598  1                      IF    (@R5,EQ,'6'),CNTL3DEV  unit addr
 001CE8 95C3 5000/4780_00000       16617  1                      IF    (@R5,EQ,'C'),CNTL3DEV  unit addr
 001CF0                            16636                       END
                                   16640
 001CF0 1BFF                       16641                       CLEAR R15
 001CF2 1244/47D0 86F2_            16645                       WHILE ((R4,POS),AND,(@R5,NE,'-')),BEGIN
 001D00 41F0 F001            00001 16676  1                      LA    R15,@R15+1
 001D04 4150 5001            00001 16677  1                      LA    R5,@R5+1
 001D08 0640                       16678  1                      DECR  R4
 001D0A 47F0 86D6            01CF2 16680                       END
 001D0E 12FF/47D0 8720             16685                       IF    (R15,POS),BEGIN     Try to match fe name...
 001D14 59F0 8EE4/47D0_      02500 16699  1                      CEIL  R15,8
 001D20 D207 C248 C141 00248 00141 16718  1                      MVC   CVWORK,CVBLANKS
 001D26 06F0/12FF/4740_            16719  1                      MOVE  R15,CVWORK,PDBTEXT+4+12  fe name
 001D32 D507 7014 C248_00014 00248 16757  1                      IF    (FEBNAME,NE,CVWORK),CNTL3NF  doesn't match
 001D3C                            16778                       END
                                   16782
 001D3C 4150 5001            00001 16783                       LA    R5,@R5+1            Past "-"
 001D40 0640                       16784                       DECR  R4
 001D42 1244/47D0 876A             16786              CNTL3DEV IF    (R4,NP),CNTL3MAT    Already matched
 001D48 5940 8EE4/47D0_      02500 16804                       CEIL  R4,8
 001D54 D207 C248 C141 00248 00141 16823                       MVC   CVWORK,CVBLANKS
 001D5A 0640/1244/4740_            16824                       MOVE  R4,CVWORK,@R5       Device name
 001D66 9180 A03C/47E0_0003C       16862                       IF    PDBTEXT+4.X'80','LA R4,8-1'  quoted
 001D72 4440 8F88/D500_      025A4 16884                       EX    R4,'CLC PIBNAME(0),CVWORK'  match?
1SIFT     (SIFT2047) (12:37) (15MAR04) Subsystem Interface                                                                  Page   62
0Current Usings:  (PIB,R6) (FEB,R7) (*,R8) (SCB,R9) (PDB,R10) (SUB,R11) (CV,R12)
0Loc    Object Code    Addr1 Addr2  Stmt Lv Lineno    Source Statement           (Hibal 5, Asmedit 3.3)  HLASM R4.0  2004/03/15 12.37
+___    ______ ____    _____ _____  ____ __ ______    ______ _________
0001D76 4780 876A            01D86 16900                       BE    CNTL3MAT            Yes
                                   16901
 001D7A 48F0 6004            00004 16902              CNTL3NP  LH    R15,PIBNO
 001D7E 41F0 F001            00001 16903                       LA    R15,@R15+1          Next port
 001D82 47F0 8654            01C70 16904                       B     CNTL3P
1SIFT     (SIFT2047) (12:37) (15MAR04) Subsystem Interface                                                                  Page   63
0Current Usings:  (PIB,R6) (FEB,R7) (*,R8) (SCB,R9) (PDB,R10) (SUB,R11) (CV,R12)
0Loc    Object Code    Addr1 Addr2  Stmt Lv Lineno    Source Statement           (Hibal 5, Asmedit 3.3)  HLASM R4.0  2004/03/15 12.37
+___    ______ ____    _____ _____  ____ __ ______    ______ _________
0001D86 4150 A038            00038 16906              CNTL3MAT LA    R5,PDBTEXT
 USING  PSB,R5                     16907                       WITH  (PSB,R5),BEGIN
 001D8A D773 5000 5000 00000 00000 16921  1                      CLEAR PSB
 001D90 D200 5004 700D 00004 0000D 16928  1                      MVC   PSBTTYPE,FEBTYPE    Save front-end type
 001D96 D201 5000 7004 00000 00004 16929  1                      MVC   PSBFEID,FEBID       FEB id
 001D9C D201 5002 6004 00002 00004 16930  1                      MVC   PSBPNO,PIBNO        PIB no
 001DA2 5060 5008            00008 16931  1                      ST    R6,PSBPIBP          Address of PIB
 001DA6 D207 500C 7014 0000C 00014 16932  1                      MVC   PSBFENM,FEBNAME
 001DAC D25F 5014 6030 00014 00030 16933  1                      MVC   PSBBASIC,PIBBASIC   PIB info
 DROP   PSB,R5                     16934                       END
 001DB2 41F0 00AC            000AC 16942                       LA    R15,L'PDBHDR+L'PSB
 001DB6 40F0 A000            00000 16943                       STH   R15,PDBLENG
 001DBA 47F0 8136            01752 16944                       B     CNTLDONE
                                   16945
 DROP   PIB,R6                     16946                       DROP  PIB,FEB
 DROP   FEB,R7
1SIFT     (SIFT2047) (12:37) (15MAR04) Subsystem Interface                                                                  Page   64
0Current Usings:  (*,R8) (SCB,R9) (PDB,R10) (SUB,R11) (CV,R12)
0Loc    Object Code    Addr1 Addr2  Stmt Lv Lineno    Source Statement           (Hibal 5, Asmedit 3.3)  HLASM R4.0  2004/03/15 12.37
+___    ______ ____    _____ _____  ____ __ ______    ______ _________
0                                  16962              *****  CONTROL 4:    sense front-end info
-001DBE 4800 A032/1200       00032 16964              CNTL4    LTH   R0,PDBWC
 001DC4 4770 87B8            01DD4 16968                       IF    Z,BEGIN             Our front-end...
 001DC8 58F0 9008            00008 16979  1                      L     R15,SCBPIBP
 001DCC 5870 F008            00008 16980  1                      WITH  (PIB,R15),'L R7,PIBFEBP'
 USING  PIB,R15
 DROP   PIB,R15
 001DD0 47F0 8890            01EAC 17004  1                      B     CNTL4MAT
 001DD4                            17005                       END
                                   17009
 001DD4 5900 8EDC/4740_      024F8 17010                       IF    (R0,LT,2),CNTLBF    Must have fe-id
                                   17030
 001DDC 4160 A046            00046 17031                       LA    R6,PDBTEXT+2+12     Range text
 001DE0 1850                       17032                       LR    R5,R0
 001DE2 4B50 8F2C            02548 17033                       SH    R5,=AL2(2+12)
                                   17034
 001DE6 5950 8EC8/4770_      024E4 17035                       IF    ((R5,EQ,1),AND,(@R6,EQ,'*')),BEGIN  our front-end...
 001DF6 58F0 9008            00008 17067  1                      L     R15,SCBPIBP
 001DFA 5870 F008            00008 17068  1                      WITH  (PIB,R15),'L R7,PIBFEBP'
 USING  PIB,R15
 DROP   PIB,R15
 USING  FEB,R7                     17092  1                      WITH  (FEB,R7)
 001DFE 1FFF/BFF3 7004             17105  1                      L2    R15,FEBID
 001E04 BDF3 A038            00038 17113  1                      CLM   R15,B'0011',PDBTEXT
 001E08 47C0 8110            0172C 17114  1                      IF    LLE,CNTLRC4         all done
 001E0C 47F0 8890            01EAC 17128  1                      B     CNTL4MAT
 DROP   FEB,R7                     17129                       END
                                   17138
 001E10 1FFF/BFF3 A038             17139                       L2    R15,PDBTEXT         Front-end id to match
 001E16 4170 C294            00294 17147                       LA    R7,CVFEBQH-(FEBLINK-FEB)  Dummy first link
 USING  FEB,R7                     17148                       USING FEB,R7
 001E1A 5870 7008/1277_      00008 17157                       WHILE ('LT R7,FEBLINK',NZ),BEGIN
 001E24 BDF3 7004/4740_      00004 17175  1                      IF    (R15,LLT,FEBID),CNTL4FE
 001E2C 47F0 87FE            01E1A 17195                       END
 001E30 47F0 8110            0172C 17200                       B     CNTLRC4             No match, all done
1SIFT     (SIFT2047) (12:37) (15MAR04) Subsystem Interface                                                                  Page   65
0Current Usings:  (FEB,R7) (*,R8) (SCB,R9) (PDB,R10) (SUB,R11) (CV,R12)
0Loc    Object Code    Addr1 Addr2  Stmt Lv Lineno    Source Statement           (Hibal 5, Asmedit 3.3)  HLASM R4.0  2004/03/15 12.37
+___    ______ ____    _____ _____  ____ __ ______    ______ _________
0001E34 5870 7008/1277       00008 17202              CNTL4NF  LT    R7,FEBLINK          Next front-end, if any
 001E3A 4780 8110            0172C 17206                       BZ    CNTLRC4             No, all done
                                   17207
 001E3E 9505 700D/4770_0000D       17208              CNTL4FE  IF    ((FEBTYPE,EQ,FEBTVIRT),AND,(FEBINFO,Z)),CNTL4NF  ignore
                                   17245
 001E50 1255/47D0 8890             17246                       IF    (R5,NP),CNTL4MAT    No range text, matched
                                   17263
 001E56 9140 A03A/4710_0003A       17264                       IF    (~PDBTEXT+2.X'40',AND,FEBFPS),CNTL4NF  skip pseudo fe
                                   17297
 001E66 5950 8ED8/4770_      024F4 17298                       IF    ((R5,EQ,3),AND,(@R6,EQ,'ALL')),CNTL4MAT
                                   17333
 001E78 18F5                       17334                       LR    R15,R5
 001E7A 59F0 8EE4/47D0_      02500 17335                       CEIL  R15,8
 001E86 D207 C248 C141 00248 00141 17354                       MVC   CVWORK,CVBLANKS
 001E8C 06F0/12FF/4740_            17355                       MOVE  R15,CVWORK,@R6      Front-end name
 001E98 9180 A03A/47E0_0003A       17393                       IF    PDBTEXT+2.X'80','LA R5,8-1'  quoted
 001EA4 44F0 8F94/D500_      025B0 17415                       EX    R15,'CLC CVWORK(0),FEBNAME'  match?
 001EA8 4770 8818            01E34 17431                       BNE   CNTL4NF             No
                                   17432
 001EAC 4160 A038            00038 17433              CNTL4MAT LA    R6,PDBTEXT
 USING  FSB,R6                     17434                       WITH  (FSB,R6),BEGIN
 001EB0 D78F 6000 6000 00000 00000 17448  1                      CLEAR FSB
 001EB6 D201 6000 7004 00000 00004 17455  1                      MVC   FSBID,FEBID         FEB id
 001EBC D200 6002 700D 00002 0000D 17456  1                      MVC   FSBTYPE,FEBTYPE     Save front-end type
 001EC2 5070 6004            00004 17457  1                      ST    R7,FSBFEBP
 001EC6 D287 6008 7010 00008 00010 17458  1                      MVC   FSBBASIC,FEBBASIC
 DROP   FSB,R6                     17459                       END
 001ECC 41F0 00C8            000C8 17467                       LA    R15,L'PDBHDR+L'FSB
 001ED0 40F0 A000            00000 17468                       STH   R15,PDBLENG
 001ED4 47F0 8136            01752 17469                       B     CNTLDONE
                                   17470
 DROP   FEB,R7                     17471                       DROP  FEB
                                   17479
 001ED8                            17480                       DS    0S(L'FSBBASIC-L'FEBBASIC,L'FEBBASIC-L'FSBBASIC)
1SIFT     (SIFT2047) (12:37) (15MAR04) Subsystem Interface                                                                  Page   66
0Current Usings:  (*,R8) (SCB,R9) (PDB,R10) (SUB,R11) (CV,R12)
0Loc    Object Code    Addr1 Addr2  Stmt Lv Lineno    Source Statement           (Hibal 5, Asmedit 3.3)  HLASM R4.0  2004/03/15 12.37
+___    ______ ____    _____ _____  ____ __ ______    ______ _________
0                                  17482              *****  CONTROL 5:    sense device dependent info
-001ED8 D501 8F2E A032_0254A 00032 17484              CNTL5    IF    (PDBWC,LT,L'FDBT),CNTLBF
 001EE2 4170 A038            00038 17505                       LA    R7,PDBTEXT
 USING  FDB,R7                     17506                       WITH  (FDB,R7),BEGIN
 001EE6 1F00/4300 7002             17520  1                      LC    R0,FDBTDNO
 001EEC 5900 8EB4/47A0_      024D0 17525  1                      IF    (R0,GE,100),CNTLBF
 001EF4 4110 C294            00294 17545  1                      LA    R1,CVFEBQH-(FEBLINK-FEB)  Dummy first link
 001EF8                            17546  1                      LOOP  BEGIN
 USING  FEB,R1                     17552  2                        WITH  (FEB,R1)
 001EF8 5810 1008/1211_      00008 17565  2                        WHILE ('LT R1,FEBLINK',NZ)
 001F02 1FEE/43E0 100D             17582  2                        LC    RAR,FEBTYPE
 001F08 D501 1004 7000_00004 00000 17589  2                        IF    (FEBID,EQ,FDBTFE),CNTL5MAT
 001F12 47F0 88DC            01EF8 17610  1                      END
 DROP   FEB,R1
 001F16 47F0 8110            0172C 17620  1                      B     CNTLRC4             Front-end not found
                                   17621  1
 001F1A 41F0 A000            00000 17622  1           CNTL5MAT   LA    R15,PDB
 001F1E 59E0 8EF8/47D0_      02514 17623  1                      IF    (RAR,GT,FEBTMAX),'CLEAR RAR'
 001F28 89E0 0002            00002 17649  1                      SLL   RAR,2
 001F2C 58EE 80B8/12EE       016D4 17650  1                      LT    RAR,FCNTLTBL(RAR)
 001F32 4780 8118            01734 17654  1                      BZ    CNTLRC8
 001F36 05EE                       17655  1                      BALR  RAR,RAR
 001F38 4770 8128            01744 17656  1                      BNZ   CNTLRC
 001F3C 47F0 8136            01752 17657  1                      B     CNTLDONE
 DROP   FDB,R7                     17658                       END
1SIFT     (SIFT2047) (12:37) (15MAR04) Subsystem Interface                                                                  Page   67
0Current Usings:  (*,R8) (SCB,R9) (PDB,R10) (SUB,R11) (CV,R12)
0Loc    Object Code    Addr1 Addr2  Stmt Lv Lineno    Source Statement           (Hibal 5, Asmedit 3.3)  HLASM R4.0  2004/03/15 12.37
+___    ______ ____    _____ _____  ____ __ ______    ______ _________
0                                  17667              *****  CONTROL 6:    sense subsystem info
-001F40 D501 8F30 A032_0254C 00032 17669              CNTL6    IF    (PDBWC,NE,2),CNTLBF  must have hw id
 001F4A 4870 A038            00038 17691                       LH    R7,PDBTEXT          Current subsys id
 001F4E 4160 C2A0            002A0 17692                       LA    R6,CVSUBQH-(SUBLINK-SUB)  Dummy first link
 001F52                            17693                       LOOP  BEGIN
 DROP   SUB,R11                    17699  1                      WITH  (SUB,R6)
 USING  SUB,R6
 001F52 5860 6008/1266_      00008 17720  1                      WHILE ('LT R6,SUBLINK',NZ)
 001F5C D607 6010 6010_00010 00010 17737  1                      IF    (SUBNAME,Z),NEXT
 001F66 D507 8EAC 6010_024C8 00010 17756  1                      IF    (SUBNAME,EQ,'MILTEN  '),NEXT
 001F70 4970 6004/47B0_      00004 17776  1                      IF    (R7,LT,SUBID),BEGIN  matched...
 001F78 4150 A038            00038 17793  2                        LA    R5,PDBTEXT
 USING  SSB,R5                     17794  2                        WITH  (SSB,R5)
 001F7C D737 5000 5000 00000 00000 17807  2                        CLEAR SSB
 001F82 D201 5000 6004 00000 00004 17814  2                        MVC   SSBID,SUBID         Subsystem id
 001F88 D233 5004 6010 00004 00010 17815  2                        MVC   SSBBASIC,SUBBASIC   Info
 001F8E 41F0 0070            00070 17816  2                        LA    R15,L'PDBHDR+L'SSB
 001F92 40F0 A000            00000 17817  2                        STH   R15,PDBLENG
 001F96 47F0 8136            01752 17818  2                        B     CNTLDONE
 DROP   SSB,R5                     17819  1                      END
 001F9A 47F0 8936            01F52 17828                       END
 USING  SUB,R11
 DROP   SUB,R6
 001F9E 47F0 8110            0172C 17847                       B     CNTLRC4             All done
                                   17848
 001FA2                            17849                       DS    0S(L'SSBBASIC-L'SUBBASIC,L'SUBBASIC-L'SSBBASIC)
1SIFT     (SIFT2047) (12:37) (15MAR04) Subsystem Interface                                                                  Page   68
0Current Usings:  (*,R8) (SCB,R9) (PDB,R10) (SUB,R11) (CV,R12)
0Loc    Object Code    Addr1 Addr2  Stmt Lv Lineno    Source Statement           (Hibal 5, Asmedit 3.3)  HLASM R4.0  2004/03/15 12.37
+___    ______ ____    _____ _____  ____ __ ______    ______ _________
0                                  17851              *****  CONTROL 7:    sense accounting info
-001FA2 D601 A032 A032_00032 00032 17853              CNTL7    IF    (PDBWC,NZ),CNTLBF   No parms
 001FAC D20B A038 90E8 00038 000E8 17873                       MVC   PDBTEXT(L'SCBCHG),SCBCHG  accounting info
 001FB2 D201 A000 8F32 00000 0254E 17874                       MVC   PDBLENG,=AL2(L'PDBHDR+L'SCBCHG)
 001FB8 47F0 8136            01752 17875                       B     CNTLDONE
1SIFT     (SIFT2047) (12:37) (15MAR04) Subsystem Interface                                                                  Page   69
0Current Usings:  (*,R8) (SCB,R9) (PDB,R10) (SUB,R11) (CV,R12)
0Loc    Object Code    Addr1 Addr2  Stmt Lv Lineno    Source Statement           (Hibal 5, Asmedit 3.3)  HLASM R4.0  2004/03/15 12.37
+___    ______ ____    _____ _____  ____ __ ______    ______ _________
0                                  17877              *****  CONTROL 8:    sense MILTEN info
-001FBC D601 A032 A032_00032 00032 17879              CNTL8    IF    (PDBWC,NZ),CNTLBF   No parms
 001FC6 4170 A038            00038 17899                       LA    R7,PDBTEXT
 USING  MIB,R7                     17900                       WITH  (MIB,R7),BEGIN
 001FCA D2FB 7000 C4B8 00000 004B8 17914  1                      MVC   MIB,CVM             Milten info
 DROP   MIB,R7                     17915                       END
 001FD0 D201 A000 8F34 00000 02550 17923                       MVC   PDBLENG,=AL2(L'PDBHDR+L'MIB)
 001FD6 47F0 8136            01752 17924                       B     CNTLDONE
1SIFT     (SIFT2047) (12:37) (15MAR04) Subsystem Interface                                                                  Page   70
0Current Usings:  (*,R8) (SCB,R9) (PDB,R10) (SUB,R11) (CV,R12)
0Loc    Object Code    Addr1 Addr2  Stmt Lv Lineno    Source Statement           (Hibal 5, Asmedit 3.3)  HLASM R4.0  2004/03/15 12.37
+___    ______ ____    _____ _____  ____ __ ______    ______ _________
0                                  17926              *****  CONTROL 9:    sense symbol type
-001FDA 48F0 A032            00032 17928              CNTL9    LH    R15,PDBWC
 001FDE 12FF/47D0 810A_            17929                       IF    ((R15,NP),OR,(R15,GT,8)),CNTLRC0
 001FEC D207 C248 C141 00248 00141 17962                       MVC   CVWORK,CVBLANKS
 001FF2 06F0/12FF/4740_            17963                       MOVE  R15,CVWORK,PDBTEXT
 001FFE D503 8EFC C248_02518 00248 18001                       IF    (CVWORK,EQ,'ALL '),CNTLRC4
                                   18021
 002008 4170 C294            00294 18022                       LA    R7,CVFEBQH-(FEBLINK-FEB)  Dummy first link
 00200C                            18023                       LOOP  BEGIN
 USING  FEB,R7                     18029  1                      WITH  (FEB,R7)
 00200C 5870 7008/1277_      00008 18042  1                      WHILE ('LT R7,FEBLINK',NZ)
 002016 D507 7014 C248_00014 00248 18059  1                      IF    (FEBNAME,EQ,CVWORK),CNTLRC4  symbol is a front-end name
 002020 47F0 89F0            0200C 18080                       END
 DROP   FEB,R7
 002024 47F0 810A            01726 18090                       B     CNTLRC0
1SIFT     (SIFT2047) (12:37) (15MAR04) Subsystem Interface                                                                  Page   71
0Current Usings:  (*,R8) (SCB,R9) (PDB,R10) (SUB,R11) (CV,R12)
0Loc    Object Code    Addr1 Addr2  Stmt Lv Lineno    Source Statement           (Hibal 5, Asmedit 3.3)  HLASM R4.0  2004/03/15 12.37
+___    ______ ____    _____ _____  ____ __ ______    ______ _________
0                                  18092              *****  CONTROL 10:   sense MILTEN device trace
-002028 48F0 A032            00032 18094              CNTL10   LH    R15,PDBWC
 00202C 59F0 8EC4/4770_      024E0 18095                       IF    (R15,NE,4),CNTLBF   Bad parms
 002034 58F0 A038            00038 18115                       L     R15,PDBTEXT         Get channel-unit address
 002038 55F0 8F00/4720_      0251C 18116                       IF    (R15,LGT,X'FFF'),CNTLBF  Bad parms
                                   18136                       ¿þþþþþþþþþþþþþþþþþþþþþþþþþþþþþþþþþþþÜ
                                   18137                       Ÿ  No trace table for this device.  Ÿ
                                   18138                       ¾þþþþþþþþþþþþþþþþþþþþþþþþþþþþþþþþþþþ»
 002040 D703 A038 A038 00038 00038 18139                       CLEAR (PDBTEXT,4)         Assume no trace table info
 002046 D201 A000 8F36 00000 02552 18146                       MVC   PDBLENG,=AL2(L'PDBHDR+4)
 00204C 5860 C338/1266       00338 18147                       LT    R6,CVDEVTRC         Device trace table ptrs
 002052 4780 810A            01726 18151                       BZ    CNTLRC0             No trace table
 002056 89F0 0002            00002 18152                       SLL   R15,2               Times 4 for offset
 00205A 1A6F                       18153                       AR    R6,R15
 00205C 5860 6000/1266       00000 18154                       LT    R6,@R6              Get this device's trace tbl index
 002062 4780 810A            01726 18158                       BZ    CNTLRC0             No trace table for this device
                                   18159                       ¿þþþþþþþþþþþþþþþþþþþþþþþþþþþþþþþÜ
                                   18160                       Ÿ  Return trace table entries.  Ÿ
                                   18161                       ¾þþþþþþþþþþþþþþþþþþþþþþþþþþþþþþþ»
 002066 4120 A03C            0003C 18162                       LA    R2,PDBTEXT+4
 00206A 9835 6004            00004 18163                       LM    R3,R5,@R6+4         R3=next, R4=first, R5=end
 00206E                            18164                       LOOP  BEGIN
 00206E 5B30 6000            00000 18170  1                      S     R3,@R6              Back up
 002072 1934/47B0 8A62_            18171  1                      IF    (R3,LT,R4),'LR R3,R5; S R3,@R6'  last
 00207E D20F 2000 3000 00000 00000 18193  1                      MVC   @R2(L'DTRC),@R3     Copy trace entry
 002084 4120 2010            00010 18194  1                      LA    R2,@R2+L'DTRC       Next entry
 002088 5930 6004/4780_      00004 18195  1                      UNTIL ('C R3,@R6+4',EQ)
 002090 47F0 8A52            0206E 18212                       END
                                   18217
 002094 D201 A038 8F38 00038 02554 18218                       MVC   PDBTEXT(2),=AL2(DTRC#)  no. of entries
 00209A D201 A03A 8F3A 0003A 02556 18219                       MVC   PDBTEXT+2(2),=AL2(L'DTRC)  size of an entry
 0020A0 D201 A000 8F3C 00000 02558 18220                       MVC   PDBLENG,=AL2(L'PDBHDR+4+DTRC#*L'DTRC)
 0020A6 9200 A00E/9200_0000E       18221                       CLEAR PDBCRET,PDBCMOD     Good return code
 0020AE 47F0 8136            01752 18233                       B     CNTLDONE            All done
1SIFT     (SIFT2047) (12:37) (15MAR04) Subsystem Interface                                                                  Page   72
0Current Usings:  (*,R8) (SCB,R9) (PDB,R10) (SUB,R11) (CV,R12)
0Loc    Object Code    Addr1 Addr2  Stmt Lv Lineno    Source Statement           (Hibal 5, Asmedit 3.3)  HLASM R4.0  2004/03/15 12.37
+___    ______ ____    _____ _____  ____ __ ______    ______ _________
0                                  18235              *****  CONTROL 101:  set session
-0020B2 D501 8F3E A032_0255A 00032 18237              CNTL101  IF    (PDBWC,NE,L'SCBSESS),CNTLBF
                                   18258
 0020BC 58E0 8F04/0DEE       02520 18259                       VCALL LOCALTOD            Save logon time
 0020C2 9001 911C            0011C 18263                       STM   R0,R1,SCBLCLCK
 0020C6 D70B 90E8 90E8 000E8 000E8 18264                       CLEAR SCBCHG              Reset previous accounting info
 0020CC D207 90E8 911C 000E8 0011C 18271                       MVC   SCBACLCK,SCBLCLCK   Set accounting start time
 0020D2 D203 902C 900C 0002C 0000C 18272                       MVC   SCBDSUBP,SCBSUBP    Set default subsystem
                                   18273
 0020D8 947F 90B2/94E3_000B2       18274                       CLEAR SCBFWARN,SCBFKL+SCBFTO+SCBFMT  reset misc
                                   18293
 0020E0 4170 A038            00038 18294                       LA    R7,PDBTEXT
 USING  SIBSESS,R7                 18295                       WITH  (SIBSESS,R7),BEGIN
 0020E4 9120 7007/47E0_00077       18309  1                      IF    SIBSFPS,'SET SCBSFPS'  flag as pseudo session now
                                   18335  1
 0020F0 D604 9124 9124_00124 00124 18336  1                      IF    ((SCBACCT,Z),AND,(SIBACCT,NZ)),BEGIN  logon complete...
 002104 4110 9000            00000 18367  2                        LA    R1,SCB
 002108 58E0 8F08/0DEE       02524 18368  2                        VCALL INCRSES             Count the active user
 00210E                            18372  1                      END
                                   18376  1
 00210E D604 9124 9124_00124 00124 18377  1                      IF    ((SCBACCT,NZ),AND,(SIBACCT,Z)),BEGIN  eos/logon...
 002122 D70F 9080 9080 00080 00080 18408  2                        CLEAR SCBSTAG             Clear old session tag
 002128 D70F 910C 910C 0010C 0010C 18415  2                        CLEAR SCBVINFO            Clear ORVYL accounting info
 00212E 9407 915E      0015E       18422  2                        CLEAR SCBFNMSG+SCBFNCOM+SCBFNBRK+SCBFNTIM+SCBFCLN  reset
 002132 9497 9168/94BF_00168       18447  2                        CLEAR SCBFBACK+SCBFFAST+SCBFPSP,SCBFERA
 00213A 9680 9168      00168       18466  2                        SET   SCBFUPL
 00213E D70F 9176 9176_00176 00176 18472  2                        CLEAR SCBTABS,SCBHEIP
                                   18484  2
 00214A 4110 9000            00000 18485  2                        LA    R1,SCB
 00214E 58E0 8F0C/0DEE       02528 18486  2                        VCALL DECRSES             Decr user count
 002154                            18490  1                      END
                                   18494  1
 002154 D20F 9124 7000 00124 00070 18495  1                      MVC   SCBSESS,SIBSESS     Set account, etc.
 DROP   SIBSESS,R7                 18496                       END
                                   18504
 00215A 4110 9000            00000 18505                       LA    R1,SCB
 00215E 58E0 8EF4/0DEE       02510 18506                       ACALL UPDSCB              Check SCB updates
                                   18510
 002164 D201 90D0 8F40 000D0 0255C 18511                       MVC   SCBMXREM,=H'-1'     Assume no max session len
                                   18512                       ¿þþþþþþþþþþþþþþþþþþþþþþþþþþþþþþþþþþþþþþþþþþþþþþþþþþþþþÜ
                                   18513                       Ÿ  Get new session id and put SCB at start of queue.  Ÿ
                                   18514                       ¾þþþþþþþþþþþþþþþþþþþþþþþþþþþþþþþþþþþþþþþþþþþþþþþþþþþþþ»
 00216A 41F0 0001            00001 18515                       LA    R15,1
 00216E 5AF0 C2B8            002B8 18516                       A     R15,CVSCBID
 002172 50F0 90F4            000F4 18517                       ST    R15,SCBID           New session number
 002176 50F0 C2B8            002B8 18518                       ST    R15,CVSCBID
                                   18519
 00217A 41F0 C2B0            002B0 18520                       LA    R15,CVSCBQH-(SCBLINK-SCB)  Dummy first entry
 00217E                            18521                       LOOP  BEGIN
 USING  SCB,R15                    18527  1                      WITH  (SCB,R15)
 00217E 182F                       18540  1                      LR    R2,R15              Save prev ptr
 002180 58F0 F004/12FF_      00004 18541  1                      WHILE ('LT R15,SCBLINK',NZ)
1SIFT     (SIFT2047) (12:37) (15MAR04) Subsystem Interface                                                                  Page   73
0Current Usings:  (*,R8) (SCB,R9) (PDB,R10) (SUB,R11) (CV,R12) (SCB,R15)
0Loc    Object Code    Addr1 Addr2  Stmt Lv Lineno    Source Statement           (Hibal 5, Asmedit 3.3)  HLASM R4.0  2004/03/15 12.37
+___    ______ ____    _____ _____  ____ __ ______    ______ _________
000218A 199F/4780 8B88             18558  1                      IF    (SCBR,EQ,R15),CNTL101Q
 002190 47F0 8B62            0217E 18576                       END
 DROP   SCB,R15
 002194 FEDC0D/C2818440E_          18586                       FAIL  'Bad SCB queue'
                                   18591
 0021A4 D203 2004 9004 00004 00004 18592              CNTL101Q MVC   SCBLINK-SCB(4,R2),SCBLINK  dequeue
                                   18593
 0021AA D203 9004 C2B4 00004 002B4 18594                       MVC   SCBLINK,CVSCBQH     Re-queue
 0021B0 5090 C2B4            002B4 18595                       ST    SCBR,CVSCBQH        New queue head
                                   18596
 0021B4 4110 9000            00000 18597                       LA    R1,SCB
 0021B8 41F0 A038            00038 18598                       LA    R15,PDBTEXT         Put sib here
 0021BC 58E0 8EEC/0DEE       02508 18599                       ACALL FMTSIB
 0021C2 4AF0 8F24            02540 18603                       AH    R15,=AL2(L'PDBHDR)
 0021C6 40F0 A000            00000 18604                       STH   R15,PDBLENG
 0021CA 47F0 8136            01752 18605                       B     CNTLDONE
1SIFT     (SIFT2047) (12:37) (15MAR04) Subsystem Interface                                                                  Page   74
0Current Usings:  (*,R8) (SCB,R9) (PDB,R10) (SUB,R11) (CV,R12)
0Loc    Object Code    Addr1 Addr2  Stmt Lv Lineno    Source Statement           (Hibal 5, Asmedit 3.3)  HLASM R4.0  2004/03/15 12.37
+___    ______ ____    _____ _____  ____ __ ______    ______ _________
0                                  18607              *****  CONTROL 102:  set session options
-0021CE D501 8F42 A032_0255E 00032 18609              CNTL102  IF    (PDBWC,NE,6+2+L'SCBSESS),CNTLBF
 0021D8 48F0 A03C            0003C 18631                       LH    R15,PDBTEXT+4       Session no.
 0021DC BDF3 C390/47A0_      00390 18632                       IF    (R15,LGE,CVMAXSES),CNTLBF  wrong no.
 0021E4 89F0 0002            00002 18652                       SLL   R15,2
 0021E8 5AF0 C2BC            002BC 18653                       A     R15,CVSATP
 0021EC 5870 F000/1277       00000 18654                       LT    R7,@R15             Get SCB ptr
 0021F2 4780 8118            01734 18658                       BZ    CNTLRC8             No session
 DROP   SCB,R9                     18659                       WITH  (SCB,R7),BEGIN
 USING  SCB,R7
 0021F6 58F0 A038/12FF_      00038 18681  1                      IF    ('LT R15,PDBTEXT',NZ),BEGIN  verify session id...
 002200 59F0 70F4/4770_      000F4 18697  2                        IF    (R15,NE,SCBID),CNTLRC8  not the correct session
 002208                            18717  1                      END
                                   18721  1
 002208 1F22/BF23 A03E             18722  1                      L2    R2,PDBTEXT+6        New SIBUC
 00220E 0620                       18730  1                      DECR  R2
 002210 1F11/BF13 7134             18732  1                      L2    R1,SCBUC
 002216 1921/4780 8C1E             18740  1                      IF    (R2,NE,R1),BEGIN   Update counts disagree...
 00221C 4110 7000            00000 18755  2                        LA    R1,SCB
 002220 41F0 A038            00038 18756  2                        LA    R15,PDBTEXT         Put SIB here
 002224 58E0 8EEC/0DEE       02508 18757  2                        ACALL FMTSIB
 00222A 41F0 F038            00038 18761  2                        LA    R15,L'PDBHDR+@R15
 00222E 40F0 A000            00000 18762  2                        STH   R15,PDBLENG
 002232 9204 A00F      0000F       18763  2                        MVI   PDBCMOD,4
 002236 47F0 8136            01752 18764  2                        B     CNTLDONE            Return SIB with bad rc
 00223A                            18765  1                      END
                                   18769  1
 00223A D201 7134 A03E 00134 0003E 18770  1                      MVC   SCBUC,PDBTEXT+6     New update count
 002240 D20F 7124 A040 00124 00040 18771  1                      MVC   SCBSESS,PDBTEXT+6+2  Update options
                                   18772  1
 002246 4110 7000            00000 18773  1                      LA    R1,SCB
 00224A 58E0 8EF4/0DEE       02510 18774  1                      ACALL UPDSCB
 USING  SCB,R9                     18778                       END
 DROP   SCB,R7
                                   18795
 002250 D201 A000 8F24 00000 02540 18796                       MVC   PDBLENG,=AL2(L'PDBHDR)
 002256 47F0 8136            01752 18797                       B     CNTLDONE
1SIFT     (SIFT2047) (12:37) (15MAR04) Subsystem Interface                                                                  Page   75
0Current Usings:  (*,R8) (SCB,R9) (PDB,R10) (SUB,R11) (CV,R12)
0Loc    Object Code    Addr1 Addr2  Stmt Lv Lineno    Source Statement           (Hibal 5, Asmedit 3.3)  HLASM R4.0  2004/03/15 12.37
+___    ______ ____    _____ _____  ____ __ ______    ______ _________
0                                  18799              *****  CONTROL 103:  kill session
-00225A D501 8F44 A032_02560 00032 18801              CNTL103  IF    (PDBWC,NE,6),CNTLBF
 002264 48F0 A03C            0003C 18823                       LH    R15,PDBTEXT+4       Session no
 002268 BDF3 C390/47A0_      00390 18824                       IF    (R15,LGE,CVMAXSES),CNTLBF  wrong no.
 002270 89F0 0002            00002 18844                       SLL   R15,2
 002274 5AF0 C2BC            002BC 18845                       A     R15,CVSATP
 002278 5870 F000/1277       00000 18846                       LT    R7,@R15             Get SCB ptr
 00227E 4780 8118            01734 18850                       BZ    CNTLRC8             No session
 DROP   SCB,R9                     18851                       WITH  (SCB,R7),BEGIN
 USING  SCB,R7
 002282 58F0 A038/12FF_      00038 18873  1                      IF    ('LT R15,PDBTEXT',NZ),BEGIN  verify session id...
 00228C 59F0 70F4/4770_      000F4 18889  2                        IF    (R15,NE,SCBID),CNTLRC8  not the correct session
 002294                            18909  1                      END
                                   18913  1
 002294 9610 70FF      000FF       18914  1                      SET   SCBFKL              Set reason why
 002298 41F0 0001/4AF0_      00001 18920  1                      INCR  R15,SCBUC           Kick update count
                                   18926  1
 0022A4 4110 7000            00000 18927  1                      LA    R1,SCB
 0022A8 58E0 8F10/0DEE       0252C 18928  1                      ACALL KILLSESS            Force logoff
 USING  SCB,R9                     18932                       END
 DROP   SCB,R7
 0022AE 47F0 8136            01752 18949                       B     CNTLDONE
1SIFT     (SIFT2047) (12:37) (15MAR04) Subsystem Interface                                                                  Page   76
0Current Usings:  (*,R8) (SCB,R9) (PDB,R10) (SUB,R11) (CV,R12)
0Loc    Object Code    Addr1 Addr2  Stmt Lv Lineno    Source Statement           (Hibal 5, Asmedit 3.3)  HLASM R4.0  2004/03/15 12.37
+___    ______ ____    _____ _____  ____ __ ______    ______ _________
0                                  18951              *****  CONTROL 104:  set port info
-0022B2 4800 A032/1200       00032 18953              CNTL104  LTH   R0,PDBWC
 0022B8 4770 8CAC            022C8 18957                       IF    Z,BEGIN             Our port...
 0022BC 5860 9008            00008 18968  1                      L     R6,SCBPIBP          Our PIB
 0022C0 5870 6008            00008 18969  1                      WITH  (PIB,R6),'L R7,PIBFEBP'  our FEB
 USING  PIB,R6
 DROP   PIB,R6
 0022C4 47F0 8D02            0231E 18993  1                      B     CNTL104M
 0022C8                            18994                       END
                                   18998
 0022C8 5900 8ED4/4740_      024F0 18999                       IF    (R0,LT,6),CNTLBF    Must have header
                                   19019
 0022D0 1FFF/BFF3 A038             19020                       L2    R15,PDBTEXT         Front-end id to match
 0022D6 4170 C294            00294 19028                       LA    R7,CVFEBQH-(FEBLINK-FEB)  Dummy first link
 USING  FEB,R7                     19029                       USING FEB,R7
 0022DA 5870 7008/1277_      00008 19038                       WHILE ('LT R7,FEBLINK',NZ),BEGIN
 0022E4 BDF3 7004/47C0_      00004 19056  1                      IF    (R15,LLE,FEBID),EXIT  we got it now
 0022EC 47F0 8CBE            022DA 19076                       END
 0022F0 1277/4780 8118_            19081                       IF    ((R7,Z),OR,(R15,NE,FEBID)),CNTLRC8  not found
                                   19114
 0022FE 1FFF/BFF3 A03A             19115                       L2    R15,PDBTEXT+2       Port id to match
 002304 BDF3 7076/47A0_      00076 19123                       IF    (R15,LGE,FEBPMAX),CNTLRC8  not found
 00230C 89F0 0002            00002 19143                       SLL   R15,2
 002310 5860 7098            00098 19144                       L     R6,FEBPATP
 002314 586F 6000/1266       00000 19145                       LT    R6,@R6(R15)         PIB ptr
 00231A 4780 8118            01734 19149                       BZ    CNTLRC8             Not found
 USING  PIB,R6                     19150                       USING PIB,R6
                                   19159
 00231E 1FFF/BFF3 A03C             19160              CNTL104M L2    R15,PDBTEXT+4       New PIBUC
 002324 06F0                       19168                       DECR  R15
 002326 49F0 6030/4780_      00030 19170                       IF    (R15,NE,PIBUC),BEGIN  update counts don't agree...
 00232E D201 A000 8F46 00000 02562 19187  1                      MVC   PDBLENG,=AL2(L'PDBHDR+L'PIBBASIC)
 002334 D25F A038 6030 00038 00030 19188  1                      MVC   PDBTEXT(L'PIBBASIC),PIBBASIC
 00233A 9204 A00F      0000F       19189  1                      MVI   PDBCMOD,4
 00233E 47F0 8136            01752 19190  1                      B     CNTLDONE            can't update, retry
 002342                            19191                       END
 002342 48F0 A032            00032 19195                       LH    R15,PDBWC
 002346 4BF0 8F48            02564 19196                       SH    R15,=H'4'
 00234A 59F0 8F14/47D0_      02530 19197                       CEIL  R15,L'PIBBASIC
 002356 06F0/12FF/4740_            19216                       MOVE  R15,PIBBASIC,PDBTEXT+4  update PIB
 002362 41F0 0001/4AF0_      00001 19254                       INCR  R15,PIBUC           Kick update count
 00236E 47F0 8136            01752 19260                       B     CNTLDONE
                                   19261
 DROP   PIB,R6                     19262                       DROP  PIB,FEB
 DROP   FEB,R7
1SIFT     (SIFT2047) (12:37) (15MAR04) Subsystem Interface                                                                  Page   77
0Current Usings:  (*,R8) (SCB,R9) (PDB,R10) (SUB,R11) (CV,R12)
0Loc    Object Code    Addr1 Addr2  Stmt Lv Lineno    Source Statement           (Hibal 5, Asmedit 3.3)  HLASM R4.0  2004/03/15 12.37
+___    ______ ____    _____ _____  ____ __ ______    ______ _________
0                                  19278              *****  CONTROL 105:  set front-end info
-002372 4800 A032/1200       00032 19280              CNTL105  LTH   R0,PDBWC
 002378 4770 8D6C            02388 19284                       IF    Z,BEGIN             Our FEB...
 00237C 58F0 9008            00008 19295  1                      L     R15,SCBPIBP
 002380 5870 F008            00008 19296  1                      WITH  (PIB,R15),'L R7,PIBFEBP'
 USING  PIB,R15
 DROP   PIB,R15
 002384 47F0 8DA2            023BE 19320  1                      B     CNTL105M
 002388                            19321                       END
                                   19325
 002388 5900 8EC4/4740_      024E0 19326                       IF    (R0,LT,4),CNTLBF    Must have header
                                   19346
 002390 1FFF/BFF3 A038             19347                       L2    R15,PDBTEXT         Front-end id to match
 002396 4170 C294            00294 19355                       LA    R7,CVFEBQH-(FEBLINK-FEB)  Dummy first link
 USING  FEB,R7                     19356                       USING FEB,R7
 00239A 5870 7008/1277_      00008 19365                       WHILE ('LT R7,FEBLINK',NZ),BEGIN
 0023A4 BDF3 7004/47C0_      00004 19383  1                      IF    (R15,LLE,FEBID),EXIT  we got it now
 0023AC 47F0 8D7E            0239A 19403                       END
 0023B0 1277/4780 8118_            19408                       IF    ((R7,Z),OR,(R15,NE,FEBID)),CNTLRC8  not found
                                   19441
 0023BE 1FFF/BFF3 A03A             19442              CNTL105M L2    R15,PDBTEXT+2       New FEBUC
 0023C4 06F0                       19450                       DECR  R15
 0023C6 49F0 7010/4780_      00010 19452                       IF    (R15,NE,FEBUC),BEGIN  update counts don't agree...
 0023CE D201 A000 8F4A 00000 02566 19469  1                      MVC   PDBLENG,=AL2(L'PDBHDR+L'FEBBASIC)
 0023D4 D287 A038 7010 00038 00010 19470  1                      MVC   PDBTEXT(L'FEBBASIC),FEBBASIC
 0023DA 9204 A00F      0000F       19471  1                      MVI   PDBCMOD,4
 0023DE 47F0 8136            01752 19472  1                      B     CNTLDONE            can't update, retry
 0023E2                            19473                       END
 0023E2 48F0 A032            00032 19477                       LH    R15,PDBWC
 0023E6 4BF0 8F4C            02568 19478                       SH    R15,=H'2'
 0023EA 59F0 8F18/47D0_      02534 19479                       CEIL  R15,L'FEBBASIC
 0023F6 06F0/12FF/4740_            19498                       MOVE  R15,FEBBASIC,PDBTEXT+2  update FEB
 002402 41F0 0001/4AF0_      00001 19536                       INCR  R15,FEBUC           Kick update count
 00240E 47F0 8136            01752 19542                       B     CNTLDONE
                                   19543
 DROP   FEB,R7                     19544                       DROP  FEB
1SIFT     (SIFT2047) (12:37) (15MAR04) Subsystem Interface                                                                  Page   78
0Current Usings:  (*,R8) (SCB,R9) (PDB,R10) (SUB,R11) (CV,R12)
0Loc    Object Code    Addr1 Addr2  Stmt Lv Lineno    Source Statement           (Hibal 5, Asmedit 3.3)  HLASM R4.0  2004/03/15 12.37
+___    ______ ____    _____ _____  ____ __ ______    ______ _________
0                                  19553              *****  CONTROL 106:  set device dependent info
-002412 D501 8F2E A032_0254A 00032 19555              CNTL106  IF    (PDBWC,LT,L'FDBT),CNTLBF
 00241C 4170 A038            00038 19576                       LA    R7,PDBTEXT
 USING  FDBT,R7                    19577                       WITH  (FDBT,R7),BEGIN
 002420 1F00/4300 7002             19591  1                      LC    R0,FDBTDNO
 002426 5900 8EB4/4740_      024D0 19596  1                      IF    (R0,LT,100),CNTLBF
 00242E 4110 C294            00294 19616  1                      LA    R1,CVFEBQH-(FEBLINK-FEB)  Dummy first link
 002432                            19617  1                      LOOP  BEGIN
 USING  FEB,R1                     19623  2                        WITH  (FEB,R1)
 002432 5810 1008/1211_      00008 19636  2                        WHILE ('LT R1,FEBLINK',NZ)
 00243C 1FEE/43E0 100D             19653  2                        LC    RAR,FEBTYPE
 002442 D501 1004 7000_00004 00000 19660  2                        IF    (FEBID,EQ,FDBTFE),CNTL106M
 00244C 47F0 8E16            02432 19681  1                      END
 DROP   FEB,R1
 002450 47F0 8110            0172C 19691  1                      B     CNTLRC4             Front-end not found
                                   19692  1
 002454 41F0 A000            00000 19693  1           CNTL106M   LA    R15,PDB
 002458 59E0 8EF8/47D0_      02514 19694  1                      IF    (RAR,GT,FEBTMAX),'CLEAR RAR'
 002462 89E0 0002            00002 19720  1                      SLL   RAR,2
 002466 58EE 80B8/12EE       016D4 19721  1                      LT    RAR,FCNTLTBL(RAR)
 00246C 4780 8118            01734 19725  1                      BZ    CNTLRC8             No routine
 002470 05EE                       19726  1                      BALR  RAR,RAR
 002472 4770 8128            01744 19727  1                      BNZ   CNTLRC
 002476 47F0 8136            01752 19728  1                      B     CNTLDONE
 DROP   FDBT,R7                    19729                       END
1SIFT     (SIFT2047) (12:37) (15MAR04) Subsystem Interface                                                                  Page   79
0Current Usings:  (*,R8) (SCB,R9) (PDB,R10) (SUB,R11) (CV,R12)
0Loc    Object Code    Addr1 Addr2  Stmt Lv Lineno    Source Statement           (Hibal 5, Asmedit 3.3)  HLASM R4.0  2004/03/15 12.37
+___    ______ ____    _____ _____  ____ __ ______    ______ _________
0                                  19738              *****  CONTROL 107:  set accounting info
-00247A D601 A032 A032_00032 00032 19740              CNTL107  IF    (PDBWC,NZ),CNTLBF   No parms
 002484 D70B 90E8 90E8 000E8 000E8 19760                       CLEAR SCBCHG              Reset accounting info
 00248A 58E0 8F04/0DEE       02520 19767                       VCALL LOCALTOD            Clock at start
 002490 9001 90E8            000E8 19771                       STM   R0,R1,SCBACLCK      Update accounting start clock
 002494 47F0 810A            01726 19772                       B     CNTLRC0
1SIFT     (SIFT2047) (12:37) (15MAR04) Subsystem Interface                                                                  Page   80
0Current Usings:  (*,R8) (SCB,R9) (PDB,R10) (SUB,R11) (CV,R12)
0Loc    Object Code    Addr1 Addr2  Stmt Lv Lineno    Source Statement           (Hibal 5, Asmedit 3.3)  HLASM R4.0  2004/03/15 12.37
+___    ______ ____    _____ _____  ____ __ ______    ______ _________
0                                  19774              *****  CONTROL 108:  MILTEN shutdown
-002498 D601 A032 A032_00032 00032 19776              CNTL108  IF    (PDBWC,NZ),CNTLBF
 0024A2 1B00                       19796                       CLEAR R0                  Normal shutdown
 0024A4 58E0 8F1C/0DEE       02538 19800                       VCALL SHUTDOWN
 0024AA 0000                       19804                       DC    H'0'                (no return)
-0024AC 41D0 D030/982B_      00030 19806                       PEND
 DROP   SUB,R11
 DROP   PDB,R10
 DROP   SCB,R9
 DROP   *,R8
                                   19841
                                   19842                       QLTORG
1SIFT     (SIFT2047) (12:37) (15MAR04) Subsystem Interface                                                                  Page   81
0Current Usings:  (CV,R12)
0Loc    Object Code    Addr1 Addr2  Stmt Lv Lineno    Source Statement           (Hibal 5, Asmedit 3.3)  HLASM R4.0  2004/03/15 12.37
+___    ______ ____    _____ _____  ____ __ ______    ______ _________
0                                  19911              ¿þþþþþþþþþþþþþþþþþþþþþþþþþþþþþþþþþþþþþþþþþþþþþþþþþþþþþþþþþþþþþþþþþþþþþÜ
                                   19912              Ÿ                                                                     Ÿ
                                   19913              Ÿ  UPDSCB -- Routine to check updates to SCB.                         Ÿ
                                   19914              Ÿ                                                                     Ÿ
                                   19915              Ÿ    On entry:                                                        Ÿ
                                   19916              Ÿ      R1 - SCB ptr                                                   Ÿ
                                   19917              Ÿ                                                                     Ÿ
                                                      ¾þþþþþþþþþþþþþþþþþþþþþþþþþþþþþþþþþþþþþþþþþþþþþþþþþþþþþþþþþþþþþþþþþþþþþ»
00025C8 50E0 D044/902B_      00044 19918              UPDSCB   PROC
 USING  *,R8
 0025E2 1891                       19954                       LR    SCBR,R1
 USING  SCB,R9                     19955                       WITH  SCB
 0025E4 D502 8842 9000_02E14 00000 19967                       FAIL  (SCB,NE,'SCB'),'Bad SCB ptr'
                                   19993
 0025FC D604 9124 9124_00124 00124 19994                       IF    ((SCBACCT,NZ),AND,(SCBSTAG,Z)),'VCALL MAKESTAG'
 002616 58E0 878A/0DEE       02D5C 20034                       VCALL SINEUPD             Keep SIN in CSA up to date
                                   20038
 00261C 5870 9008/1277       00008 20039                       LT    R7,SCBPIBP
 002622 4780 80FE            026D0 20043                       IF    NZ,BEGIN            We are still connected...
 USING  PIB,R7                     20054  1                      WITH  (PIB,R7)
                                   20067  1
 002626 58F0 7008            00008 20068  1                      L     R15,PIBFEBP
 00262A 1FEE/43E0 F00D             20069  1                      WITH  (FEB,R15),'LC RAR,FEBTYPE'
 USING  FEB,R15
 DROP   FEB,R15
 002630 59E0 878E/47D0_      02D60 20099  1                      IF    (RAR,GT,FEBTMAX),'CLEAR RAR'
 00263A 89E0 0002            00002 20125  1                      SLL   RAR,2
 00263E 4110 9000            00000 20126  1                      LA    R1,SCB
 002642 58EE 8132/12EE       02704 20127  1                      LT    RAR,UPDTBL(RAR)     Front-end SCB update routine
 002648 4780 807C/05EE       0264E 20131  1                      IF    NZ,'BALR RAR,RAR'
                                   20148  1
 00264E 1B22                       20149  1                      CLEAR R2                  Assume no timeout
 002650 9501 90FC/4780_000FC       20153  1                      IF    (~SCBTCONS,AND,~SCBTVIRT),BEGIN
 002660 9140 912C/4710_0012C       20182  2                        IF    SCBFNTM,EXIT        No timeouts, scram
                                   20200  2
 002668 9110 915E/47E0_0015E       20201  2                        IF    SCBFNTIM,BEGIN      Notime...
 002670 9110 7065/4710_00065       20216  3                          IF    ~PIBFRLIN,BEGIN     Only non-rlin gets exemption...
 002678 9120 7064/4710_00064       20231  4                            IF    (PIBFDIR,OR,PIBFLEAS),EXIT  exempt
 002688                            20263  3                          END
                                   20267  3
 002688 4120 0028            00028 20268  3                          LA    R2,40               40 min timeout
 00268C 9501 C13B/4770_0013B       20269  3                          IF    CVFRLG,'LA R2,120'  120 mins on RLG machine
 002698 9640 90B2      000B2       20290  3                          SET   SCBFTDAY            ..only during day block
 00269C                            20296  2                        END
                                   20300  2
 00269C 80CE/47F0 80FA 0269C 0266E 20301  2                        ELSE  BEGIN               Timeout...
 0026A0 94BF 90B2      000B2       20312  3                          CLEAR SCBFTDAY
 0026A4 4120 000A            0000A 20319  3                          LA    R2,10               10 min timeout
 0026A8 9501 C13B/4770_0013B       20320  3                          IF    CVFRLG,'LA R2,40'   40 mins on RLG machine
 0026B4 D604 9124 9124_00124 00124 20341  3                          IF    (SCBACCT,Z),BEGIN   Not logged on...
 0026BE 4120 0005            00005 20357  4                            LA    R2,5                5 mins
 0026C2 9120 7064/47E0_00064       20358  4                            IF    PIBFDIR,'CLEAR R2'
 0026CC                            20382  3                          END
1SIFT     (SIFT2047) (12:37) (15MAR04) Subsystem Interface                                                                  Page   82
0Current Usings:  (PIB,R7) (*,R8) (SCB,R9) (CV,R12)
0Loc    Object Code    Addr1 Addr2  Stmt Lv Lineno    Source Statement           (Hibal 5, Asmedit 3.3)  HLASM R4.0  2004/03/15 12.37
+___    ______ ____    _____ _____  ____ __ ______    ______ _________
00026CC                            20386  2                        END
 0026CC                            20390  1                      END
 0026CC 4020 90D2            000D2 20394  1                      STH   R2,SCBTMOUT         Save new timeout time
 DROP   PIB,R7                     20395                       END
                                   20404                       ¿þþþþþþþþþþþþþþþþþþþþþþþþþþþþþþþþþþþþþþþþÜ
                                   20405                       Ÿ  New style maximum allowed idle time.  Ÿ
                                   20406                       ¾þþþþþþþþþþþþþþþþþþþþþþþþþþþþþþþþþþþþþþþþ»
 0026D0 D604 9124 9124_00124 00124 20407                       IF    (SCBACCT,NZ),BEGIN  Check for new style limit...
 0026DA D501 87FC 919E_02DCE 0019E 20423  1                      IF    (SCBIDMAX,EQ,-1),EXIT  Still using old style limit
 0026E4 D201 90D2 919E 000D2 0019E 20444  1                      MVC   SCBTMOUT,SCBIDMAX   Set timeout time
 0026EA 94BF 90B2      000B2       20445  1                      CLEAR SCBFTDAY            All time blocks
 0026EE                            20452                       END
                                   20456
 0026EE 41D0 D030/982B_      00030 20457                       PEND
 DROP   SCB,R9
 DROP   *,R8
                                   20482                       ¿þþþþþþþþþþþþþþþþþþþþþþþþþþþÜ
                                   20483                       Ÿ  SCB update vector table  Ÿ
                                   20484                       ¾þþþþþþþþþþþþþþþþþþþþþþþþþþþ»
 002702 0000
 002704 00000000                   20485              UPDTBL   DC    A(0)
 002708 00000000                   20486                       DC    V(CONSUPD)          FEBTCONS
                                   20487              *         DC    V(ASYNUPD)          FEBTASYN
 00270C 00000000                   20488                       DC    A(0)
                                   20489              *         DC    V(PDPUPD)           FEBTPDP
 002710 00000000                   20490                       DC    A(0)
                                   20491              *         DC    V(VTAMUPD)          FEBTVTAM
 002714 00000000                   20492                       DC    A(0)
 002718 00000000                   20493                       DC    V(VIRTUPD)          FEBTVIRT
                                   20494              *         DC    V(NSCUPD)           FEBTNSC
 00271C 00000000                   20495                       DC    A(0)
 002720 00000000                   20496                       DC    V(ELFUPD)           FEBTELF
                                   20497              *         DC    V(ALFUPD)           FEBTALF
 002724 00000000                   20498                       DC    A(0)
                                   20499              *         DC    V(ECUUPD)           FEBTECU
 002728 00000000                   20500                       DC    A(0)
                                   20501              UPDMAX   EQU   (*-UPDTBL-4)/4,,C'N'
 00272C                            20502                       DS    0S(UPDMAX-FEBTMAX,FEBTMAX-UPDMAX)
1SIFT     (SIFT2047) (12:37) (15MAR04) Subsystem Interface                                                                  Page   83
0Current Usings:  (CV,R12)
0Loc    Object Code    Addr1 Addr2  Stmt Lv Lineno    Source Statement           (Hibal 5, Asmedit 3.3)  HLASM R4.0  2004/03/15 12.37
+___    ______ ____    _____ _____  ____ __ ______    ______ _________
0                                  20504              ¿þþþþþþþþþþþþþþþþþþþþþþþþþþþþþþþþþþþþþþþþþþþþþþþþþþþþþþþþþþþþþþþþþþþþþÜ
                                   20505              Ÿ                                                                     Ÿ
                                   20506              Ÿ  SESTIMER -- Routine to handle session timeouts.  This routine      Ÿ
                                   20507              Ÿ    is entered every minute (from the dispatcher) to process         Ÿ
                                   20508              Ÿ    session timeouts that may have occurred.                         Ÿ
                                   20509              Ÿ                                                                     Ÿ
                                                      ¾þþþþþþþþþþþþþþþþþþþþþþþþþþþþþþþþþþþþþþþþþþþþþþþþþþþþþþþþþþþþþþþþþþþþþ»
000272C 50E0 D044/902B_      00044 20510              SESTIMER XPROC
 USING  *,R8
                                   20548
 002746 4190 C2B0            002B0 20549                       LA    SCBR,CVSCBQH-(SCBLINK-SCB)  Dummy first link
 USING  SCB,R9                     20550                       WITH  SCB
                                   20562
 00274A 5890 9004/1299_      00004 20563              SESTLP   WHILE ('LT SCBR,SCBLINK',NZ),BEGIN
 002754 4DE0 803A            02770 20582  1                      LCALL SESTMOUT            Check timeout for inactivitiy
 002758 47F0 8014            0274A 20584                       END
                                   20589
 00275C 5800 862E            02D64 20590                       L     R0,=A(SESTIMER)
 002760 1B11                       20591                       CLEAR R1                  (No timer parm)
 002762 58F0 8632            02D68 20595                       L     R15,=A(60*100)      Queue a new timer
 002766 58E0 8636/0DEE       02D6C 20596                       VCALL TIMERQ
 00276C 47F0 81FE            02934 20600                       EXIT
1SIFT     (SIFT2047) (12:37) (15MAR04) Subsystem Interface                                                                  Page   84
0Current Usings:  (*,R8) (SCB,R9) (CV,R12)
0Loc    Object Code    Addr1 Addr2  Stmt Lv Lineno    Source Statement           (Hibal 5, Asmedit 3.3)  HLASM R4.0  2004/03/15 12.37
+___    ______ ____    _____ _____  ____ __ ______    ______ _________
0                                  20604              ¿þþþþþþþþþþþþþþþþþþþþþþþþþþþþþþþþþþþþþþþþþþþþþþþþþþþþþþþþþþþþþþþþþþþþþÜ
                                   20605              Ÿ                                                                     Ÿ
                                   20606              Ÿ  SESTMOUT -- Routine to check for timeout due to inactivity.        Ÿ
                                   20607              Ÿ                                                                     Ÿ
                                                      ¾þþþþþþþþþþþþþþþþþþþþþþþþþþþþþþþþþþþþþþþþþþþþþþþþþþþþþþþþþþþþþþþþþþþþþ»
0002770 50E0 D044/902B_      00044 20608              SESTMOUT LPROC
 002788 41F0 0001/4AF0_      00001 20630                       INCR  R15,SCBTMINC        One more minute has elapsed
                                   20636                       ¿þþþþþþþþþþþþþþþþþþþþþþþþþþþþþþþþþþþþþþþþþþþþþþþþþþþþþþþþþþþþþþÜ
                                   20637                       Ÿ  Check to see if session is exempt from notime limitations.  Ÿ
                                   20638                       ¾þþþþþþþþþþþþþþþþþþþþþþþþþþþþþþþþþþþþþþþþþþþþþþþþþþþþþþþþþþþþþþ»
 002794 D601 90D2 90D2_000D2 000D2 20639                       IF    (SCBTMOUT,Z),EXIT   No timeout
                                   20658
 00279E 9120 912B/4710_0012B       20659                       IF    SCBSFPS,EXIT        Don't disturb pseudo session
                                   20677
 0027A6 9108 915E/4710_0015E       20678                       IF    SCBFCLN,EXIT        Don't disturb page mode
                                   20696                       ¿þþþþþþþþþþþþþþþþþþþþþþþþþþþþþþþþþþþþþþþþþþþÜ
                                   20697                       Ÿ  Get the current time-block value in R2.  Ÿ
                                   20698                       ¾þþþþþþþþþþþþþþþþþþþþþþþþþþþþþþþþþþþþþþþþþþþ»
 0027AE 4820 869A            02DD0 20699                       LH    R2,=H'-1'           Assume unknown timeblock
                                   20700
 0027B2 58F0 0010            00010 20701                       L     R15,CVTPTR
 0027B6 58F0 F0CC            000CC 20702                       WITH  (CVT,R15),'L R15,CVTUSER'
 USING  CVT,R15
 DROP   CVT,R15
 0027BA 12FF/4780 809A             20726                       IF    (R15,NZ),BEGIN      No USERCVT, always check timeout
 0027C0 D503 863A F000_02D70 00000 20740  1                      IF    (@R15,NE,'SCIP'),EXIT  Not the SCIP CVT, forget it
 USING  USERCVT,R15                20759  1                      WITH  (USERCVT,R15)
 0027CA 1F22/4320 F00F             20772  1                      LC    R2,USEBLOCK         Get current timeblock (4=peak)
 DROP   USERCVT,R15                20779                       END
                                   20788                       ¿þþþþþþþþþþþþþþþþþþþþþþþþþþþþþþþþþþþþþþþþÜ
                                   20789                       Ÿ  Check to see if timeout has expired.  Ÿ
                                   20790                       ¾þþþþþþþþþþþþþþþþþþþþþþþþþþþþþþþþþþþþþþþþ»
 0027D0 9140 90B2/47E0_000B2       20791                       IF    SCBFTDAY,BEGIN      Only timeout in day block...
 0027D8 5920 863E/4780_      02D74 20806  1                      IF    ((R2,EQ,0),OR,(R2,EQ,4)),EXIT  Timeout in DAY & PEAK
 0027E8 47F0 81EA            02920 20842  1                      EXIT  SESTMOUT            Non-day time-block, no timeouts
 0027EC                            20845                       END
                                   20849                       ¿þþþþþþþþþþþþþþþþþþþþþþþþþþþþþþþþþþþþþþþþþþþþþþþþþþþþþþþþþþþþþÜ
                                   20850                       Ÿ  If this is peak time, then use the front-end notime limit  Ÿ
                                   20851                       Ÿ    instead of the user's limit.                             Ÿ
                                   20852                       ¾þþþþþþþþþþþþþþþþþþþþþþþþþþþþþþþþþþþþþþþþþþþþþþþþþþþþþþþþþþþþþ»
 0027EC 4850 90D2            000D2 20853                       LH    R5,SCBTMOUT         Get user's limit
                                   20854
 0027F0 5920 8642/4770_      02D78 20855                       IF    (R2,EQ,4),BEGIN     It's peak time...
 0027F8 5830 9008/1233       00008 20872  1                      LT    R3,SCBPIBP          Our PIB ptr
 0027FE 4780 80EC            02822 20876  1                      IF    Z,EXIT              No PIB, scram
 002802 5840 3008            00008 20890  1                      WITH  (PIB,R3),'L R4,PIBFEBP'  Our FEB ptr
 USING  PIB,R3
 DROP   PIB,R3
 002806 1244/4780 80EC             20914  1                      IF    (R4,Z),EXIT         Scram if we don't have one
 USING  FEB,R4                     20931  1                      WITH  (FEB,R4)
                                   20944  1
 00280C D601 4012 4012_00012 00012 20945  1                      IF    (FEBTMLIM,NZ),'CEIL R5,FEBTMLIM'  Use front-end limit
 DROP   FEB,R4                     20972                       END
1SIFT     (SIFT2047) (12:37) (15MAR04) Subsystem Interface                                                                  Page   85
0Current Usings:  (*,R8) (SCB,R9) (CV,R12)
0Loc    Object Code    Addr1 Addr2  Stmt Lv Lineno    Source Statement           (Hibal 5, Asmedit 3.3)  HLASM R4.0  2004/03/15 12.37
+___    ______ ____    _____ _____  ____ __ ______    ______ _________
0                                  20981                       ¿þþþþþþþþþþþþþþþþþþþþþþþþþþþþþþþþþþþþþþþþþþþþþþþþþþþþþþþþÜ
                                   20982                       Ÿ  Check to see if the user has been idle for too long.  Ÿ
                                   20983                       ¾þþþþþþþþþþþþþþþþþþþþþþþþþþþþþþþþþþþþþþþþþþþþþþþþþþþþþþþþ»
 002822 4950 90FA/47A0_      000FA 20984                       IF    (SCBTMINC,LE,R5),EXIT,SESTMOUT  He is fine, scram
                                   21004                       ¿þþþþþþþþþþþþþþþþþþþþþþþþþþþþþþþþþþþþþþþþþþþþþþþþþþþþþþþþþþþþþþþþÜ
                                   21005                       Ÿ  The user has already been warned, now terminate the session.  Ÿ
                                   21006                       ¾þþþþþþþþþþþþþþþþþþþþþþþþþþþþþþþþþþþþþþþþþþþþþþþþþþþþþþþþþþþþþþþþ»
 00282A 9180 90B2/47E0_000B2       21007                       IF    SCBFWARN,BEGIN      Timed out...
 002832 9608 90FF      000FF       21022  1                      SET   SCBFTO              Set reason why
 002836 41F0 0001/4AF0_      00001 21028  1                      INCR  R15,SCBUC           Kick update count
 002842 4110 9000            00000 21034  1                      LA    R1,SCB
 002846 58E0 8646/0DEE       02D7C 21035  1                      ACALL KILLSESS            Terminate session
 00284C 47F0 81EA            02920 21039  1                      EXIT  SESTMOUT
 002850                            21042                       END
                                   21046                       ¿þþþþþþþþþþþþþþþþþþþþþþþþþþþþþþþþþþþþþþþþþþþþþþþþþþþþþþþþþÜ
                                   21047                       Ÿ  Give the user a warning message, and restart the idle  Ÿ
                                   21048                       Ÿ    timeout clock.                                       Ÿ
                                   21049                       ¾þþþþþþþþþþþþþþþþþþþþþþþþþþþþþþþþþþþþþþþþþþþþþþþþþþþþþþþþþ»
 002850 58A0 C060            00060 21050                       L     PDBR,CVPDBP
 USING  PDB,R10                    21051                       WITH  PDB
 002854 D737 A000 A000 00000 00000 21063                       CLEAR PDBHDR
 00285A 4BD0 869C/BED7_      02DD2 21070                       PUSH  L'SEGCB,PTR=R6
 USING  SEGCB,R6                   21077                       WITH  (SEGCB,R6),BEGIN
 00286A 4110 A038/4100_      00038 21091  1                      SEGINIT PDBTEXT,128,SEGCB
 00287A 4110 869E/4100_      02DD4 21120  1                      SEG   X'2F15'             Bell, nl
 00288A D604 9124 9124_00124 00124 21137  1                      IF    (SCBACCT,Z),BEGIN   Not yet logged on...
 002894 4110 86A0/4100_      02DD6 21153  2                        SEG   'Enter account to logon, or type ? for information.'
 0028A4                            21170  1                      END
                                   21174  1
 0028A4 8172/47F0 81A4 028A4 02892 21175  1                      ELSE  BEGIN
 0028A8 4110 86E1/4100_      02E17 21186  2                        SEGB  'No activity for'
 0028B8 48F0 90FA            000FA 21204  2                        LH    R15,SCBTMINC
 0028BC 06F0                       21205  2                        DECR  R15
 0028BE 181F/1B00/18F6_            21207  2                        SEGDC (R15)
 0028CA 4110 865A/4100_      02D90 21228  2                        SEG   ' minutes.  Respond or be logged off.'
 0028DA                            21245  1                      END
                                   21249  1
 0028DA 4110 86D2/4100_      02E08 21250  1                      SEG   X'1515'
                                   21267  1
 0028EA 9246 A006      00006       21268  1                      MVI   PDBCMD,MILAWR       Asynchronous write
 0028EE 58F0 600C            0000C 21269  1                      L     R15,SEGCBLENF
 0028F2 40F0 A032            00032 21270  1                      STH   R15,PDBWC
 0028F6 41F0 F038            00038 21271  1                      LA    R15,L'PDBHDR+@R15
 0028FA 40F0 A000            00000 21272  1                      STH   R15,PDBLENG
 DROP   SEGCB,R6                   21273                       END
 0028FE 41D0 D040/50D0_      00040 21281                       POP   L'SEGCB
                                   21286
 002906 4110 9000            00000 21287                       LA    R1,SCB
 00290A 41F0 A000            00000 21288                       LA    R15,PDB
 00290E 58E0 867E/0DEE       02DB4 21289                       ACALL ASYNWRIT            Queue write
                                   21293
 002914 9680 90B2      000B2       21294                       SET   SCBFWARN            He's been warned
                                   21300
 002918 4B50 86D4            02E0A 21301                       SH    R5,=AL2(5-1)        Give him 5 more mins
1SIFT     (SIFT2047) (12:37) (15MAR04) Subsystem Interface                                                                  Page   86
0Current Usings:  (*,R8) (SCB,R9) (PDB,R10) (CV,R12)
0Loc    Object Code    Addr1 Addr2  Stmt Lv Lineno    Source Statement           (Hibal 5, Asmedit 3.3)  HLASM R4.0  2004/03/15 12.37
+___    ______ ____    _____ _____  ____ __ ______    ______ _________
000291C 4050 90FA            000FA 21302                       STH   R5,SCBTMINC
 002920 41D0 D030/982B_      00030 21303                       PEND
 DROP   PDB,R10
1SIFT     (SIFT2047) (12:37) (15MAR04) Subsystem Interface                                                                  Page   87
0Current Usings:  (*,R8) (SCB,R9) (CV,R12)
0Loc    Object Code    Addr1 Addr2  Stmt Lv Lineno    Source Statement           (Hibal 5, Asmedit 3.3)  HLASM R4.0  2004/03/15 12.37
+___    ______ ____    _____ _____  ____ __ ______    ______ _________
0                                  21324              *
 002934 41D0 D030/982B_      00030 21325                       PEND
 DROP   SCB,R9
 DROP   *,R8
1SIFT     (SIFT2047) (12:37) (15MAR04) Subsystem Interface                                                                  Page   88
0Current Usings:  (CV,R12)
0Loc    Object Code    Addr1 Addr2  Stmt Lv Lineno    Source Statement           (Hibal 5, Asmedit 3.3)  HLASM R4.0  2004/03/15 12.37
+___    ______ ____    _____ _____  ____ __ ______    ______ _________
0                                  21351              ¿þþþþþþþþþþþþþþþþþþþþþþþþþþþþþþþþþþþþþþþþþþþþþþþþþþþþþþþþþþþþþþþþþþþþþÜ
                                   21352              Ÿ                                                                     Ÿ
                                   21353              Ÿ  DISCSESS -- Routine to disconnect session from port.  The          Ÿ
                                   21354              Ÿ    routine will also start session logoff processing.               Ÿ
                                   21355              Ÿ                                                                     Ÿ
                                   21356              Ÿ    On entry:                                                        Ÿ
                                   21357              Ÿ      R1 - SCB ptr                                                   Ÿ
                                   21358              Ÿ                                                                     Ÿ
                                                      ¾þþþþþþþþþþþþþþþþþþþþþþþþþþþþþþþþþþþþþþþþþþþþþþþþþþþþþþþþþþþþþþþþþþþþþ»
0002948 50E0 D044/902B_      00044 21359              DISCSESS XPROC
 USING  *,R8
 002962 1891                       21397                       LR    SCBR,R1
 USING  SCB,R9                     21398                       WITH  SCB
 002964 D502 84C2 9000_02E14 00000 21410                       FAIL  (SCB,NE,'SCB'),'Bad SCB ptr'
                                   21436
 00297C 9680 90FF      000FF       21437                       SET   SCBFDSC             Set disconnected session
                                   21443
 002980 5820 9008/1222       00008 21444                       LT    R2,SCBPIBP
 002986 4780 8096            029E8 21448                       IF    NZ,BEGIN
 USING  PIB,R2                     21459  1                      WITH  (PIB,R2)
 00298A D502 84D4 2000_02E26 00000 21472  1                      FAIL  (PIB,NE,'PIB'),'Bad PIB ptr'
 0029A2 5830 2008            00008 21498  1                      L     R3,PIBFEBP
 USING  FEB,R3                     21499  1                      WITH  (FEB,R3)
 0029A6 D502 84D7 3000_02E29 00000 21512  1                      FAIL  (FEB,NE,'FEB'),'Bad FEB ptr'
 0029BE D703 200C 200C_0000C 0000C 21538  1                      CLEAR PIBSCBP,SCBPIBP     Reset ptrs
 0029CA D604 9124 9124_00124 00124 21550  1                      IF    (SCBACCT,NZ),BEGIN  Reduce active counts now...
 0029D4 48F0 206A/06F0_      0006A 21566  2                        DECR  R15,PIBSCUR         Decr. active session count now
 0029DE 48F0 3080/06F0_      00080 21571  2                        DECR  R15,FEBSCUR         Decr. active session count now
 0029E8                            21576  1                      END
 DROP   FEB,R3                     21580                       END
 DROP   PIB,R2
                                   21594
 0029E8 4110 9000            00000 21595                       LA    R1,SCB
 0029EC 4DE0 80B2            02A04 21596                       LCALL KILLSESS
 0029F0 41D0 D030/982B_      00030 21598                       PEND
 DROP   SCB,R9
 DROP   *,R8
1SIFT     (SIFT2047) (12:37) (15MAR04) Subsystem Interface                                                                  Page   89
0Current Usings:  (CV,R12)
0Loc    Object Code    Addr1 Addr2  Stmt Lv Lineno    Source Statement           (Hibal 5, Asmedit 3.3)  HLASM R4.0  2004/03/15 12.37
+___    ______ ____    _____ _____  ____ __ ______    ______ _________
0                                  21624              ¿þþþþþþþþþþþþþþþþþþþþþþþþþþþþþþþþþþþþþþþþþþþþþþþþþþþþþþþþþþþþþþþþþþþþþÜ
                                   21625              Ÿ                                                                     Ÿ
                                   21626              Ÿ  KILLSESS -- Routine to force end of session.                       Ÿ
                                   21627              Ÿ                                                                     Ÿ
                                   21628              Ÿ    On entry:                                                        Ÿ
                                   21629              Ÿ      R1 - SCB ptr                                                   Ÿ
                                   21630              Ÿ                                                                     Ÿ
                                                      ¾þþþþþþþþþþþþþþþþþþþþþþþþþþþþþþþþþþþþþþþþþþþþþþþþþþþþþþþþþþþþþþþþþþþþþ»
0002A04 50E0 D044/902B_      00044 21631              KILLSESS XPROC
 USING  *,R8
 002A1E 1891                       21669                       LR    SCBR,R1
 USING  SCB,R9                     21670                       WITH  SCB
 002A20 58A0 C060            00060 21682                       L     PDBR,CVPDBP
 USING  PDB,R10                    21683                       WITH  PDB
                                   21695
 002A24 D502 8406 9000_02E14 00000 21696                       FAIL  (SCB,NE,'SCB'),'Bad SCB ptr'
 002A3C 41F0 0001/4AF0_      00001 21722                       INCR  R15,SCBUC
 002A48 9640 90FF      000FF       21728                       SET   SCBFLGF             Set logoff pending
 002A4C 9417 915E      0015E       21734                       CLEAR SCBFNMSG+SCBFNCOM+SCBFNBRK+SCBFCLN
 002A50 D701 918A 918A 0018A 0018A 21753                       CLEAR SCBHEIP
                                   21760
 002A56 4BD0 83FE/BED7_      02E0C 21761                       PUSH  L'PDBHDR,PTR=R7
 002A66 D237 7000 A000 00000 00000 21768                       MVC   @R7(L'PDBHDR),PDBHDR  Save header
                                   21769
 002A6C D737 A000 A000 00000 00000 21770                       CLEAR PDBHDR
 002A72 D201 A000 8400 00000 02E0E 21777                       MVC   PDBLENG,=AL2(L'PDBHDR)
 002A78 9180 90FF/47E0_000FF       21778                       IF    SCBFDSC,BEGIN       Disconnected session...
 002A80 9250 A006      00006       21793  1                      MVI   PDBCMD,FMILASYN
 002A84 91A0 90B0/4780_000B0       21794  1                      IF    SCBTFSYN+SCBTFAIO,BEGIN  We need to complete the I/O...
 002A8C D200 A006 90B3 00006 000B3 21812  2                        MVC   PDBCMD,SCBCMD       Complete I/O
 002A92 9500 A006/4770_00006       21813  2                        IF    (PDBCMD,Z),'MVI PDBCMD,FMILWRIT'  Fake cmd completion
 002A9E                            21835  1                      END
 002A9E 9680 A00D      0000D       21839  1                      SET   PDBCPLB.CPLBLGF
 002AA2 4110 9000            00000 21846  1                      LA    R1,SCB
 002AA6 41F0 A000            00000 21847  1                      LA    R15,PDB
 002AAA 58E0 83AA/0DEE       02DB8 21848  1                      ACALL SUBSEND
 002AB0 47F0 80EA            02AF8 21852  1                      B     KILLRES
 002AB4                            21853                       END
                                   21857
 002AB4 9180 90B0/47E0_000B0       21858                       IF    SCBTFSYN,BEGIN      Synchronous command in progress...
 002ABC 9140 90B0/47E0_000B0       21873  1                      IF    ~SCBTFIO,EXIT       Let it complete naturally
 002AC4 9542 90B3/4770_000B3       21891  1                      IF    (SCBCMD,NE,TMILREAD),EXIT  Ditto
 002ACC 9250 A006      00006       21912  1                      MVI   PDBCMD,TMILBRK      Halt the read
 002AD0 4110 9000            00000 21913  1                      LA    R1,SCB
 002AD4 41F0 A000            00000 21914  1                      LA    R15,PDB
 002AD8 58E0 83AE/0DEE       02DBC 21915  1                      ACALL FEDO
 002ADE                            21919                       END
                                   21923
 002ADE 80D4/47F0 80EA 02ADE 02ABA 21924                       ELSE  BEGIN               Send asynchronous logoff...
 002AE2 9250 A006      00006       21935  1                      MVI   PDBCMD,FMILASYN
 002AE6 9680 A00D      0000D       21936  1                      SET   PDBCPLB.CPLBLGF
 002AEA 4110 9000            00000 21943  1                      LA    R1,SCB
 002AEE 41F0 A000            00000 21944  1                      LA    R15,PDB
1SIFT     (SIFT2047) (12:37) (15MAR04) Subsystem Interface                                                                  Page   90
0Current Usings:  (*,R8) (SCB,R9) (PDB,R10) (CV,R12)
0Loc    Object Code    Addr1 Addr2  Stmt Lv Lineno    Source Statement           (Hibal 5, Asmedit 3.3)  HLASM R4.0  2004/03/15 12.37
+___    ______ ____    _____ _____  ____ __ ______    ______ _________
0002AF2 58E0 83AA/0DEE       02DB8 21945  1                      ACALL SUBSEND             Inform subsystem
 002AF8                            21949                       END
                                   21953
 002AF8 D237 A000 7000 00000 00000 21954              KILLRES  MVC   PDBHDR,@R7          Restore header
 002AFE 41D0 D03C/50D0_      0003C 21955                       POP   L'PDBHDR
 002B06 41D0 D030/982B_      00030 21960                       PEND
 DROP   PDB,R10
 DROP   SCB,R9
 DROP   *,R8
1SIFT     (SIFT2047) (12:37) (15MAR04) Subsystem Interface                                                                  Page   91
0Current Usings:  (CV,R12)
0Loc    Object Code    Addr1 Addr2  Stmt Lv Lineno    Source Statement           (Hibal 5, Asmedit 3.3)  HLASM R4.0  2004/03/15 12.37
+___    ______ ____    _____ _____  ____ __ ______    ______ _________
0                                  21991              ¿þþþþþþþþþþþþþþþþþþþþþþþþþþþþþþþþþþþþþþþþþþþþþþþþþþþþþþþþþþþþþþþþþþþþþÜ
                                   21992              Ÿ                                                                     Ÿ
                                   21993              Ÿ  ASYNWRIT -- Routine to queue asynchronous write.                   Ÿ
                                   21994              Ÿ                                                                     Ÿ
                                   21995              Ÿ    On entry:                                                        Ÿ
                                   21996              Ÿ      R1 - SCB ptr                                                   Ÿ
                                   21997              Ÿ      R15- PDB ptr                                                   Ÿ
                                   21998              Ÿ                                                                     Ÿ
                                   21999              Ÿ    On exit, R15 (and CC):                                           Ÿ
                                   22000              Ÿ      0 - ok                                                         Ÿ
                                   22001              Ÿ      4 - not sent                                                   Ÿ
                                   22002              Ÿ                                                                     Ÿ
                                                      ¾þþþþþþþþþþþþþþþþþþþþþþþþþþþþþþþþþþþþþþþþþþþþþþþþþþþþþþþþþþþþþþþþþþþþþ»
0002B1A 50E0 D044/902B_      00044 22003              ASYNWRIT XPROC
 USING  *,R8
 002B34 1891                       22041                       LR    SCBR,R1
 USING  SCB,R9                     22042                       WITH  SCB
 002B36 18AF                       22054                       LR    PDBR,R15
 USING  PDB,R10                    22055                       WITH  PDB
                                   22067
 002B38 D502 82F0 9000_02E14 00000 22068                       FAIL  (SCB,NE,'SCB'),'Bad SCB ptr'
                                   22094
 002B50 41F0 0004            00004 22095                       LA    R15,4               Pre-set return code
 002B54 9140 90FF/4710_000FF       22096                       IF    SCBFLGF,EXIT        Can't send
 002B5C D501 82EC 9100_02E10 00100 22114                       IF    (SCBNMSG,GE,10),EXIT  Too deep, scram
                                   22135                       ¿þþþþþþþþþþþþþþþþþþþþþþþþþþþþþþþþþþþþþþþþþþþþþþþþþþþþþþþþþþþþþþÜ
                                   22136                       Ÿ  If this SCB isn't connected to a subsystem, then it's port  Ÿ
                                   22137                       Ÿ    should not receive asynchronous I/O.                      Ÿ
                                   22138                       ¾þþþþþþþþþþþþþþþþþþþþþþþþþþþþþþþþþþþþþþþþþþþþþþþþþþþþþþþþþþþþþþ»
 002B66 D603 900C 900C_0000C 0000C 22139                       IF    (SCBSUBP,Z),EXIT    No subsystem, forget it
                                   22158
 002B70 D701 A004 A004_00004 00004 22159                       CLEAR PDBLIN#,PDBAWID     (Tidy)
 002B7C 9680 A00B      0000B       22171                       SET   PDBMODD.MODDNPAU    Don't pause during async write
                                   22178
 002B80 4100 0004            00004 22179                       LA    R0,4
 002B84 4A00 A000            00000 22180                       AH    R0,PDBLENG          Length including link ptr
 002B88 4110 0014            00014 22181                       LA    R1,QPDBSUBP
 002B8C 182E                       22182                       LR    R2,RAR
 002B8E 58E0 829C/0DEE       02DC0 22183                       VCALL NGETCORE
 002B94 1821                       22187                       LR    R2,R1
 002B96 D703 2000 2000 00000 00000 22188                       CLEAR (@R2,4)             Clear link ptr
 002B9C 41E0 2004/48F0_      00004 22195                       MOVEL @R2+4,PDB,LH:PDBLENG
                                   22216
 002BAA 41F0 0001/4AF0_      00001 22217                       INCR  R15,SCBNMSG         Kick queue size
 002BB6 58F0 9028            00028 22223                       L     R15,SCBAWRQT        Old tail
 002BBA 5020 9028            00028 22224                       ST    R2,SCBAWRQT         New tail
 002BBE 5020 F000            00000 22225                       ST    R2,@R15             Link up
                                   22226
 002BC2 4110 9000            00000 22227                       LA    R1,SCB
 002BC6 41F0 A000            00000 22228                       LA    R15,PDB
 002BCA 4DE0 80C0            02BE4 22229                       LCALL DOAIO               Start asynchronous I/O now
                                   22231
 002BCE 1BFF                       22232                       CLEAR R15                 Aok
1SIFT     (SIFT2047) (12:37) (15MAR04) Subsystem Interface                                                                  Page   92
0Current Usings:  (CV,R12)
0Loc    Object Code    Addr1 Addr2  Stmt Lv Lineno    Source Statement           (Hibal 5, Asmedit 3.3)  HLASM R4.0  2004/03/15 12.37
+___    ______ ____    _____ _____  ____ __ ______    ______ _________
0002BD0 41D0 D030/982B_      00030 22236                       PEND
 DROP   PDB,R10
 DROP   SCB,R9
 DROP   *,R8
1SIFT     (SIFT2047) (12:37) (15MAR04) Subsystem Interface                                                                  Page   93
0Current Usings:  (CV,R12)
0Loc    Object Code    Addr1 Addr2  Stmt Lv Lineno    Source Statement           (Hibal 5, Asmedit 3.3)  HLASM R4.0  2004/03/15 12.37
+___    ______ ____    _____ _____  ____ __ ______    ______ _________
0                                  22267              ¿þþþþþþþþþþþþþþþþþþþþþþþþþþþþþþþþþþþþþþþþþþþþþþþþþþþþþþþþþþþþþþþþþþþþþÜ
                                   22268              Ÿ                                                                     Ÿ
                                   22269              Ÿ  DOAIO -- Local routine to start asynchronous I/O (if any).         Ÿ
                                   22270              Ÿ                                                                     Ÿ
                                   22271              Ÿ    On entry:                                                        Ÿ
                                   22272              Ÿ      R1 - SCB ptr                                                   Ÿ
                                   22273              Ÿ                                                                     Ÿ
                                   22274              Ÿ    On exit, R15 (and CC):                                           Ÿ
                                   22275              Ÿ     -4 - No I/O to do                                               Ÿ
                                   22276              Ÿ      0 - Async I/O started                                          Ÿ
                                   22277              Ÿ      4 - I/O already in progress                                    Ÿ
                                   22278              Ÿ                                                                     Ÿ
                                                      ¾þþþþþþþþþþþþþþþþþþþþþþþþþþþþþþþþþþþþþþþþþþþþþþþþþþþþþþþþþþþþþþþþþþþþþ»
0002BE4 50E0 D044/902B_      00044 22279              DOAIO    PROC
 USING  *,R8
 002BFE 1891                       22315                       LR    SCBR,R1
 USING  SCB,R9                     22316                       WITH  SCB
 002C00 58A0 C060            00060 22328                       L     PDBR,CVPDBP
 USING  PDB,R10                    22329                       WITH  PDB
                                   22341                   ¿þþþþþþþþþþþþþþþþþþþþþþþþþþþþþþþþþþþþþþþþþþþþþþþþþþþþþþþþþþþþþþþþþþþÜ
                                   22342                   Ÿ  First check to see if there are any asynchronous I/O's waiting.  Ÿ
                                   22343                   ¾þþþþþþþþþþþþþþþþþþþþþþþþþþþþþþþþþþþþþþþþþþþþþþþþþþþþþþþþþþþþþþþþþþþ»
 002C04 D601 9100 9100_00100 00100 22344                       IF    (SCBNMSG,Z),'LH R15,=H"-4"; EXIT DOAIO'  Nothing
                                   22369                       ¿þþþþþþþþþþþþþþþþþþþþþþþþþþþþþþþþþþþþþþþþþþþþþþþþþþþþþþþþÜ
                                   22370                       Ÿ  Don't do anything if asynchronous I/O already going.  Ÿ
                                   22371                       ¾þþþþþþþþþþþþþþþþþþþþþþþþþþþþþþþþþþþþþþþþþþþþþþþþþþþþþþþþ»
 002C16 9120 90B0/47E0_000B0       22372                       IF    SCBTFAIO,'LA R15,4; EXIT DOAIO'
                                   22396
 002C26 9108 915E/47E0_0015E       22397                       IF    SCBFCLN,'LA R15,4; EXIT DOAIO'  Clean
                                   22421
 002C36 9180 915E/47E0_0015E       22422                       IF    SCBFNMSG,'LA R15,4; EXIT DOAIO'  Nomsg
                                   22446                       ¿þþþþþþþþþþþþþþþþþþþþþþþþþÜ
                                   22447                       Ÿ  Save the working PDB.  Ÿ
                                   22448                       ¾þþþþþþþþþþþþþþþþþþþþþþþþþ»
 002C46 4860 A000            00000 22449                       LH    R6,PDBLENG
 002C4A 5960 81D6/47B0_      02DC4 22450                       FLOOR R6,L'PDBHDR
 002C56 1806                       22469                       LR    R0,R6
 002C58 4110 0015            00015 22470                       LA    R1,SPDBSUBP
 002C5C 182E                       22471                       LR    R2,RAR
 002C5E 58E0 81D2/0DEE       02DC0 22472                       VCALL NGETCORE
 002C64 1871                       22476                       LR    R7,R1
 002C66 18E7/18F6/180A_            22477                       MOVEL @R7,PDB,(R6)        Save PDB
                                   22499                       ¿þþþþþþþþþþþþþþþþþþþþþþþþþþþþþþþþþþþþþþþþþþþþþþþþþþþþþþþþþþþÜ
                                   22500                       Ÿ  Halt the current read so that we can start asynchronous  Ÿ
                                   22501                       Ÿ     I/O.                                                  Ÿ
                                   22502                       ¾þþþþþþþþþþþþþþþþþþþþþþþþþþþþþþþþþþþþþþþþþþþþþþþþþþþþþþþþþþþ»
 002C70 9180 90B0/47E0_000B0       22503                       IF    SCBTFSYN,BEGIN      Synchronous I/O...
 002C78 9542 90B3/4770_000B3       22518  1                      IF    (SCBCMD,EQ,TMILREAD),BEGIN  Read...
 002C80 9120 915E/4710_0015E       22536  2                        IF    SCBFNBRK,EXIT       Can't halt, scram
                                   22554  2
 002C88 91C0 90B8/4770_000B8       22555  2                        IF    (SCBTFDISP+SCBTFTRAN,Z),'SET SCBTFREP'  Re-prompt
                                   22586  2
 002C94 D737 A000 A000 00000 00000 22587  2                        CLEAR PDBHDR
1SIFT     (SIFT2047) (12:37) (15MAR04) Subsystem Interface                                                                  Page   94
0Current Usings:  (*,R8) (SCB,R9) (PDB,R10) (CV,R12)
0Loc    Object Code    Addr1 Addr2  Stmt Lv Lineno    Source Statement           (Hibal 5, Asmedit 3.3)  HLASM R4.0  2004/03/15 12.37
+___    ______ ____    _____ _____  ____ __ ______    ______ _________
0002C9A D201 A000 8220 00000 02E0E 22594  2                        MVC   PDBLENG,=AL2(L'PDBHDR)
 002CA0 9250 A006      00006       22595  2                        MVI   PDBCMD,TMILBRK      Halt read
 002CA4 4110 9000            00000 22596  2                        LA    R1,SCB
 002CA8 41F0 A000            00000 22597  2                        LA    R15,PDB
 002CAC 58E0 81CE/0DEE       02DBC 22598  2                        ACALL FEDO
 002CB2                            22602  1                      END
                                   22606  1
 002CB2 41F0 0004            00004 22607  1                      LA    R15,4               We can't start the async I/O yet
 002CB6 47F0 813A            02D28 22608  1                      B     DOAEXIT
 002CBA                            22609                       END
                                   22613                       ¿þþþþþþþþþþþþþþþþþþþþþþþþþþþþþþþþþþþþþþþþþþþþþþþþþþþþþþþþþþþþÜ
                                   22614                       Ÿ  Don't start the new asynchronous I/O if we are currently  Ÿ
                                   22615                       Ÿ     doing a display mode read.                             Ÿ
                                   22616                       ¾þþþþþþþþþþþþþþþþþþþþþþþþþþþþþþþþþþþþþþþþþþþþþþþþþþþþþþþþþþþþ»
 002CBA 9140 90B8/47E0_000B8       22617                       IF    SCBTFDISP,'LA R15,4; B DOAEXIT'  Don't start I/O
                                   22639                       ¿þþþþþþþþþþþþþþþþþþþþþþþþþþþþþþþþþþþÜ
                                   22640                       Ÿ  Now start the asynchronous I/O.  Ÿ
                                   22641                       ¾þþþþþþþþþþþþþþþþþþþþþþþþþþþþþþþþþþþ»
 002CCA 5820 9024            00024 22642                       L     R2,SCBAWRQH         First entry
 002CCE 18EA/48F0 2004_            22643                       MOVEL PDB,@R2+4,LH:@R2+4  Move PDB back
 002CDC 58F0 2000            00000 22664                       L     R15,@R2
 002CE0 50F0 9024            00024 22665                       ST    R15,SCBAWRQH        New queue head
 002CE4 12FF/4770 8104_            22666                       IF    (R15,Z),'LA R15,SCBAWRQH; ST R15,SCBAWRQT'
 002CF2 48F0 9100/06F0_      00100 22687                       DECR  R15,SCBNMSG         Reduce queue count
 002CFC 1812                       22692                       LR    R1,R2
 002CFE 58E0 81DA/0DEE       02DC8 22693                       VCALL FREECORE            Release entry
                                   22697
 002D04 D200 90B3 A006 000B3 00006 22698                       MVC   SCBCMD,PDBCMD       Save command code
 002D0A D203 90B4 A008 000B4 00008 22699                       MVC   SCBMOD,PDBMOD       Save mode flags
                                   22700
 002D10 4110 9000            00000 22701                       LA    R1,SCB
 002D14 41F0 A000            00000 22702                       LA    R15,PDB
 002D18 58E0 81CE/0DEE       02DBC 22703                       ACALL FEDO
 002D1E 4780 8138/FEDC_      02D26 22707                       FAIL  NZ
                                   22726
 002D26 1BFF                       22727                       CLEAR R15
                                   22731                       ¿þþþþþþþþþþþþþþþþþþþþþþþþÜ
                                   22732                       Ÿ  Restore working PDB.  Ÿ
                                   22733                       ¾þþþþþþþþþþþþþþþþþþþþþþþþ»
 002D28 185F                       22734              DOAEXIT  LR    R5,R15              Save return code
 002D2A 18EA/18F6/1807_            22735                       MOVEL PDB,@R7,(R6)        Restore PDB
 002D34 1817                       22757                       LR    R1,R7
 002D36 58E0 81DA/0DEE       02DC8 22758                       VCALL FREECORE            Free up saved PDB copy
 002D3C 18F5                       22762                       LR    R15,R5              Set RC
 002D3E 41D0 D030/982B_      00030 22763                       PEND
 DROP   PDB,R10
 DROP   SCB,R9
 DROP   *,R8
                                   22793
                                   22794                       QLTORG
1SIFT     (SIFT2047) (12:37) (15MAR04) Subsystem Interface                                                                  Page   95
0Current Usings:  (CV,R12)
0Loc    Object Code    Addr1 Addr2  Stmt Lv Lineno    Source Statement           (Hibal 5, Asmedit 3.3)  HLASM R4.0  2004/03/15 12.37
+___    ______ ____    _____ _____  ____ __ ______    ______ _________
0                                  22844              ¿þþþþþþþþþþþþþþþþþþþþþþþþþþþþþþþþþþþþþþþþþþþþþþþþþþþþþþþþþþþþþþþþþþþþþÜ
                                   22845              Ÿ                                                                     Ÿ
                                   22846              Ÿ  FEDO -- Routine to process and then send PDB to appropriate        Ÿ
                                   22847              Ÿ    front-end.                                                       Ÿ
                                   22848              Ÿ                                                                     Ÿ
                                   22849              Ÿ    On entry:                                                        Ÿ
                                   22850              Ÿ      R1 - SCB ptr                                                   Ÿ
                                   22851              Ÿ      R15- PDB ptr                                                   Ÿ
                                   22852              Ÿ                                                                     Ÿ
                                   22853              Ÿ    On exit, R15 (and CC):                                           Ÿ
                                   22854              Ÿ      0 - ok                                                         Ÿ
                                   22855              Ÿ      4 - I/O already in progress                                    Ÿ
                                   22856              Ÿ                                                                     Ÿ
                                   22857              Ÿ    Note:  Some processing is done here to "tidy up" the PDB         Ÿ
                                   22858              Ÿ      before it is sent to the fe routine.  In particular, the       Ÿ
                                   22859              Ÿ      misc. data counts are cleaned up here.  When the fe routine    Ÿ
                                   22860              Ÿ      is entered all data counts are zero except:                    Ÿ
                                   22861              Ÿ                                                                     Ÿ
                                   22862              Ÿ      PDBLENG  - length of entire PDB (including itself)             Ÿ
                                   22863              Ÿ                                                                     Ÿ
                                   22864              Ÿ      PDBOUTCT - actual write data count (data starts at "PDBTEXT")  Ÿ
                                   22865              Ÿ                                                                     Ÿ
                                   22866              Ÿ      PDBINCT  - for the read command, maximum input data count      Ÿ
                                   22867              Ÿ                 allowed.  The response will be truncated to this    Ÿ
                                   22868              Ÿ                 length (by SIFT) before it is sent to the           Ÿ
                                   22869              Ÿ                 subsystem.                                          Ÿ
                                   22870              Ÿ                                                                     Ÿ
                                                      ¾þþþþþþþþþþþþþþþþþþþþþþþþþþþþþþþþþþþþþþþþþþþþþþþþþþþþþþþþþþþþþþþþþþþþþ»
0002E2C 50E0 D044/902B_      00044 22871              FEDO     PROC
 USING  *,R8
 002E46 1891                       22907                       LR    SCBR,R1
 USING  SCB,R9                     22908                       WITH  SCB
 002E48 18AF                       22920                       LR    PDBR,R15
 USING  PDB,R10                    22921                       WITH  PDB
 002E4A D201 A004 90F8 00004 000F8 22933                       MVC   PDBLIN#,SCBNO       Session number
                                   22934
 002E50 9550 A006/4770_00006       22935                       IF    (PDBCMD,EQ,TMILBRK),BEGIN  halt I/O...
 002E58 1BFF                       22953  1                      CLEAR R15                 Preset rc
 002E5A 9140 90B0/47E0_000B0       22957  1                      IF    ~SCBTFIO,EXIT,FEDO
 002E62 9120 90B0/4710_000B0       22975  1                      IF    SCBTFAIO,EXIT,FEDO
                                   22993  1
 002E6A 9108 90B1/4710_000B1       22994  1                      IF    SCBTFBRK,EXIT,FEDO  One BREAK already sent, scram
 002E72 9608 90B1      000B1       23012  1                      SET   SCBTFBRK            We are doing a break now
 002E76 47F0 8348            0317E 23018  1                      B     FESEND
 002E7A                            23019                       END
                                   23023
 002E7A 9160 90B0/4780_000B0       23024                       IF    SCBTFIO+SCBTFAIO,'LA R15,4; EXIT FEDO'
                                   23051
 002E8A 94F7 90B1      000B1       23052                       CLEAR SCBTFBRK            No BREAK pending now
1SIFT     (SIFT2047) (12:37) (15MAR04) Subsystem Interface                                                                  Page   96
0Current Usings:  (*,R8) (SCB,R9) (PDB,R10) (CV,R12)
0Loc    Object Code    Addr1 Addr2  Stmt Lv Lineno    Source Statement           (Hibal 5, Asmedit 3.3)  HLASM R4.0  2004/03/15 12.37
+___    ______ ____    _____ _____  ____ __ ______    ______ _________
0002E8E 9546 A006/4770_00006       23060                       IF    (PDBCMD,EQ,MILAWR),'SET SCBTFAIO'  async I/O
 002E9A 8068/47F0 806C_02E9A 02E94 23089                       ELSE  'SET SCBTFIO'       I/O in progress
                                   23111
 002EA2 D603 9018 9018_00018 00018 23112                       FAIL  (SCBPDBP,NZ)
 002EB0 9120 A009/47E0_00009       23136                       IF    PDBMODB.MODBDWAT,BEGIN  Must keep PDB around...
 002EB8 4800 A000            00000 23152  1                      LH    R0,PDBLENG
 002EBC 4110 0015            00015 23153  1                      LA    R1,SPDBSUBP
 002EC0 182E                       23154  1                      LR    R2,RAR
 002EC2 58E0 8DBA/0DEE       03BF0 23155  1                      VCALL NGETCORE
 002EC8 5010 9018            00018 23159  1                      ST    R1,SCBPDBP
 002ECC 18E1/48F0 A000_            23160  1                      MOVEL (R1),PDB,LH:PDBLENG  save PDB
 002ED8                            23179                       END
                                   23183
 002ED8 9546 A006/4770_00006       23184                       IF    (PDBCMD,EQ,MILAWR),BEGIN  async write again...
 002EE0 9241 A006      00006       23202  1                      MVI   PDBCMD,TMILWRIT     Looks like a write
 002EE4 D201 A004 90F8 00004 000F8 23203  1                      MVC   PDBLIN#,SCBNO       ... to our line
 002EEA                            23204                       END
                                   23208
 002EEA 4800 A032            00032 23209                       LH    R0,PDBWC
 002EEE 5500 8DBE/47D0_      03BF4 23210                       IF    (R0,LGT,4096),'MVC PDBWC,=H"16"; CLEAR PDBPC,PDBRC'
 002F08 4800 A034            00034 23245                       LH    R0,PDBPC
 002F0C 5500 8DBE/47D0_      03BF4 23246                       IF    (R0,LGT,4096),'MVC PDBPC,=H"16"; CLEAR PDBRC'
 002F20 4800 A036            00036 23276                       LH    R0,PDBRC
 002F24 5500 8DBE/47D0_      03BF4 23277                       IF    (R0,LGT,4096),'MVC PDBRC,=H"16"'
                                   23300
 002F32 9542 A006/4780_00006       23301                       IF    (PDBCMD,NE,TMILREAD),'CLEAR PDBPC,PDBRC,PDBINCT'
 002F4C 811A/47F0 8242 02F4C 02F38 23341                       ELSE  BEGIN               Read...
 002F50 D603 90C4 90C4_000C4 000C4 23352  1                      FAIL  (SCBPRPTR,NZ),'PDB proc error -- prompt text'
 002F7A D601 A034 A034_00034 00034 23377  1                      IF    (PDBPC,NZ),BEGIN    If there is a prompt, save it...
 002F84 4100 0002            00002 23393  2                        LA    R0,2
 002F88 4A00 A034            00034 23394  2                        AH    R0,PDBPC
 002F8C 4110 0016            00016 23395  2                        LA    R1,PRMTSUBP
 002F90 182E                       23396  2                        LR    R2,RAR
 002F92 58E0 8DBA/0DEE       03BF0 23397  2                        VCALL NGETCORE
 002F98 5010 90C4            000C4 23401  2                        ST    R1,SCBPRPTR         Save ptr
 002F9C D201 1000 A034 00000 00034 23402  2                        MVC   @R1(2),PDBPC        Len
 002FA2 4820 A032            00032 23403  2                        LH    R2,PDBWC
 002FA6 41E0 1002/48F0_      00002 23404  2                        MOVEL @R1+2,PDBTEXT(R2),LH:PDBPC  text
 002FB6                            23425  1                      END
                                   23429  1
 002FB6 D603 90C8 90C8_000C8 000C8 23430  1                      FAIL  (SCBDRPTR,NZ),'PDB proc error -- default read text'
 002FE6 9501 90FC/4780_000FC       23455  1                      IF    (SCBTCONS,OR,SCBTPDP,OR,SCBTVIRT),'CLEAR PDBRC'
 003004 D601 A036 A036_00036 00036 23508  1                      IF    (PDBRC,NZ),BEGIN    Default read text...
 00300E 4100 0002            00002 23524  2                        LA    R0,2
 003012 4A00 A036            00036 23525  2                        AH    R0,PDBRC
 003016 4110 0017            00017 23526  2                        LA    R1,RTXTSUBP
 00301A 182E                       23527  2                        LR    R2,RAR
 00301C 58E0 8DBA/0DEE       03BF0 23528  2                        VCALL NGETCORE            Room to save default read text
 003022 5010 90C8            000C8 23532  2                        ST    R1,SCBDRPTR
 003026 D201 1000 A036 00000 00036 23533  2                        MVC   @R1(2),PDBRC
 00302C 4820 A032            00032 23534  2                        LH    R2,PDBWC
 003030 4A20 A034            00034 23535  2                        AH    R2,PDBPC
 003034 41E0 1002/48F0_      00002 23536  2                        MOVEL @R1+2,PDBTEXT(R2),LH:PDBRC
 003044                            23557  1                      END
1SIFT     (SIFT2047) (12:37) (15MAR04) Subsystem Interface                                                                  Page   97
0Current Usings:  (*,R8) (SCB,R9) (PDB,R10) (CV,R12)
0Loc    Object Code    Addr1 Addr2  Stmt Lv Lineno    Source Statement           (Hibal 5, Asmedit 3.3)  HLASM R4.0  2004/03/15 12.37
+___    ______ ____    _____ _____  ____ __ ______    ______ _________
0                                  23561  1
 003044 48F0 A030            00030 23562  1                      LH    R15,PDBINCT         Max amount of input allowed
 003048 12FF/4720 821C_            23563  1                      IF    (R15,NP),'LA R15,168'  (Compatability)
 003052 4820 916A/1222       0016A 23583  1                      LTH   R2,SCBINMX          Global max allowed
 003058 47D0 822E/5920_      03064 23587  1                      IF    (NP,OR,(R2,GT,4096)),'LH R2,=H"4096"'  Universal max
 003068 19F2/47D0 823A_            23620  1                      CEIL  R15,R2              Not too much
 003070 40F0 A030            00030 23626  1                      STH   R15,PDBINCT
 003074 40F0 90BE            000BE 23627  1                      STH   R15,SCBINCT
 003078                            23628                       END
                                   23632
 003078 4800 A032            00032 23633                       LH    R0,PDBWC
 00307C 4A00 A034            00034 23634                       AH    R0,PDBPC
 003080 4A00 A036            00036 23635                       AH    R0,PDBRC            Total output count
 003084 48F0 A000            00000 23636                       LH    R15,PDBLENG
 003088 4BF0 8E10            03C46 23637                       SH    R15,=AL2(L'PDBHDR)
 00308C 47B0 825C/1BFF       03092 23638                       IF    NEG,'CLEAR R15'
 003092 190F/47D0 8264_            23658                       CEIL  R0,R15
 00309A 1200/47B0 826C_            23664                       IF    (R0,NEG),'CLEAR R0'
 0030A2 5900 8DBE/47D0_      03BF4 23687                       IF    (R0,GT,4096),'LH R0,=H"4096"'  universal max
 0030AE 4110 A038            00038 23710                       SETMSG PDBTEXT,(R0)
 0030B2 58E0 8DC2/0DEE       03BF8 23723                       ACALL OUTPROC             Do user translation/scan
 0030B8 4780 832E            03164 23727                       IF    NZ,BEGIN            Must pause here...
 0030BC D603 9020 9020_00020 00020 23738  1                      FAIL  (SCBCPDBP,NZ),'Page/pause PDB problem'
 0030E0 9001 D040/4BD0_      00040 23763  1                      PUSH  (R0,R1)             Save new text ptrs
 0030F0 1222/4780 8310             23771  1                      IF    (R2,NZ),BEGIN       Save remaining text...
 0030F6 4100 2038            00038 23785  2                        LA    R0,L'PDBHDR+@R2
 0030FA 4110 0015            00015 23786  2                        LA    R1,SPDBSUBP
 0030FE 5020 D044/4BD0_      00044 23787  2                        PUSH  R2
 00310E 4120 82DC            03112 23794  2                        LA    R2,*+4
 003112 58E0 8DBA/0DEE       03BF0 23795  2                        VCALL NGETCORE
 003118 41D0 D008/5820_      00008 23799  2                        POP   R2
 003124 5010 9020            00020 23805  2                        ST    R1,SCBCPDBP
 003128 D237 1000 A000 00000 00000 23806  2                        MVC   @R1(L'PDBHDR),PDBHDR
 DROP   PDB,R10                    23807  2                        WITH  (PDB,R1)
 USING  PDB,R1
                                   23828  2           ***      SET   PDBMODD.MODDNXL     don't xl twice
 00312E 4020 1032            00032 23829  2                        STH   R2,PDBWC
 003132 4100 2038            00038 23830  2                        LA    R0,L'PDBHDR+@R2
 003136 4000 1000            00000 23831  2                        STH   R0,PDBLENG
 00313A 41E0 1038/18F2_      00038 23832  2                        MOVEL PDBTEXT,(R3),(R2)   Save text
 USING  PDB,R10                    23852  1                      END
 DROP   PDB,R1
 003146 41D0 D00C/9801_      0000C 23870  1                      POP   (R0,R1)
 003152 9640 90B1      000B1       23877  1                      SET   SCBTFPP             Page/pause read
 003156 9242 A006      00006       23883  1                      MVI   PDBCMD,TMILREAD
 00315A 9242 90B3      000B3       23884  1                      MVI   SCBCMD,TMILREAD
 00315E D201 A030 8E16 00030 03C4C 23885  1                      MVC   PDBINCT,=H'256'
 003164                            23886                       END
 003164 4000 A02E            0002E 23890                       STH   R0,PDBOUTCT
 003168 4A00 8E10            03C46 23891                       AH    R0,=AL2(L'PDBHDR)
 00316C 4000 A000            00000 23892                       STH   R0,PDBLENG
 003170 41E0 A038/48F0_      00038 23893                       MOVEL PDBTEXT,@R1,LH:PDBOUTCT  move in text
                                   23914
 00317E D603 9008 9008_00008 00008 23915              FESEND   IF    (SCBPIBP,Z),BEGIN   Disconnected session...
1SIFT     (SIFT2047) (12:37) (15MAR04) Subsystem Interface                                                                  Page   98
0Current Usings:  (*,R8) (SCB,R9) (PDB,R10) (CV,R12)
0Loc    Object Code    Addr1 Addr2  Stmt Lv Lineno    Source Statement           (Hibal 5, Asmedit 3.3)  HLASM R4.0  2004/03/15 12.37
+___    ______ ____    _____ _____  ____ __ ______    ______ _________
0003188 9540 A006/4770_00006       23932  1                      IF    (PDBCMD,EQ,TMILEOS),BEGIN  end of session...
 003190 4110 9000            00000 23950  2                        LA    R1,SCB
 003194 58E0 8DC6/0DEE       03BFC 23951  2                        VCALL FREESCB
 00319A 1BFF/1B99                  23955  2                        CLEAR R15,SCBR
 00319E 47F0 83EC            03222 23961  2                        EXIT  FEDO
 0031A2                            23964  1                      END
                                   23968  1
 0031A2 D201 A000 8E10 00000 03C46 23969  1                      MVC   PDBLENG,=AL2(L'PDBHDR)
 0031A8 D730 A007 A007 00007 00007 23970  1                      CLEAR PDBOPT
 0031AE 91A0 90B0/4770_000B0       23977  1                      IF    (SCBTFSYN+SCBTFAIO,Z),'MVI PDBCMD,FMILASYN'
 0031BA 9680 A00D      0000D       24003  1                      SET   PDBCPLB.CPLBLGF     Respond with logoff
 0031BE 4110 9000            00000 24010  1                      LA    R1,SCB
 0031C2 41F0 A000            00000 24011  1                      LA    R15,PDB
 0031C6 58E0 8DCA/0DEE       03C00 24012  1                      ACALL SUBSEND             Send disconnect response to subsys
 0031CC 1BFF                       24016  1                      CLEAR R15
 0031CE 47F0 83EC            03222 24020  1                      EXIT  FEDO
 0031D2                            24023                       END
                                   24027
 0031D2 4110 9000            00000 24028                       LA    R1,SCB
 0031D6 41F0 A000            00000 24029                       LA    R15,PDB
 0031DA 5820 9008            00008 24030                       L     R2,SCBPIBP
 0031DE 5830 2008            00008 24031                       WITH  (PIB,R2),'L R3,PIBFEBP'
 USING  PIB,R2
 DROP   PIB,R2
 0031E2 1FEE/43E0 300D             24055                       WITH  (FEB,R3),'LC RAR,FEBTYPE'
 USING  FEB,R3
 DROP   FEB,R3
 0031E8 59E0 8DCE/47D0_      03C04 24085                       IF    (RAR,GT,FEBTMAX),'CLEAR RAR'
 0031F2 89E0 0002            00002 24111                       SLL   RAR,2
 0031F6 58EE 8402/12EE       03238 24112                       LT    RAR,DOFE(RAR)       Load appropriate routine
 0031FC 4770 83DA/FEDC_      03210 24116                       FAIL  Z,'No FE routine'
 003210 5030 C750            00750 24136                       ST    R3,CVCURFEB         Current front-end
 003214 5020 C754            00754 24137                       ST    R2,CVCURPIB         Current port
 003218 05EE                       24138                       BALR  RAR,RAR
 00321A D727 C750 C750 00750 00750 24139                       CLEAR CVCUR
                                   24146
 003220 1BFF                       24147                       CLEAR R15
 003222 41D0 D030/982B_      00030 24151                       PEND
 DROP   PDB,R10
 DROP   SCB,R9
 DROP   *,R8
-003236 0000
 003238 00000000                   24182              DOFE     DC    A(0)
 00323C 00000000                   24183                       DC    V(CONSDO)           FEBTCONS
                                   24184              *         DC    V(ASYNDO)           FEBTASYN
 003240 00000000                   24185                       DC    A(0)
                                   24186              *         DC    V(PDPDO)            FEBTPDP
 003244 00000000                   24187                       DC    A(0)
                                   24188              *         DC    V(VTAMDO)           FEBTVTAM
 003248 00000000                   24189                       DC    A(0)
 00324C 00000000                   24190                       DC    V(VIRTDO)           FEBTVIRT
                                   24191              *         DC    V(NSCDO)            FEBTNSC
1SIFT     (SIFT2047) (12:37) (15MAR04) Subsystem Interface                                                                  Page   99
0Current Usings:  (CV,R12)
0Loc    Object Code    Addr1 Addr2  Stmt Lv Lineno    Source Statement           (Hibal 5, Asmedit 3.3)  HLASM R4.0  2004/03/15 12.37
+___    ______ ____    _____ _____  ____ __ ______    ______ _________
0003250 00000000                   24192                       DC    A(0)
 003254 00000000                   24193                       DC    V(ELFDO)            FEBTELF
                                   24194              *         DC    V(ALFDO)            FEBTALF
 003258 00000000                   24195                       DC    A(0)
                                   24196              *         DC    V(ECUDO)            FEBTECU
 00325C 00000000                   24197                       DC    A(0)
                                   24198              DOFEMX   EQU   (*-DOFE-4)/4,,C'N'
                                   24199
 003260                            24200                       DS    0S(DOFEMX-FEBTMAX,FEBTMAX-DOFEMX)
1SIFT     (SIFT2047) (12:37) (15MAR04) Subsystem Interface                                                                  Page  100
0Current Usings:  (CV,R12)
0Loc    Object Code    Addr1 Addr2  Stmt Lv Lineno    Source Statement           (Hibal 5, Asmedit 3.3)  HLASM R4.0  2004/03/15 12.37
+___    ______ ____    _____ _____  ____ __ ______    ______ _________
0                                  24202              ¿þþþþþþþþþþþþþþþþþþþþþþþþþþþþþþþþþþþþþþþþþþþþþþþþþþþþþþþþþþþþþþþþþþþþþÜ
                                   24203              Ÿ                                                                     Ÿ
                                   24204              Ÿ  SUBSTART -- Routine to start session in default subsystem.         Ÿ
                                   24205              Ÿ                                                                     Ÿ
                                   24206              Ÿ    On entry:                                                        Ÿ
                                   24207              Ÿ      R1 - SCB ptr                                                   Ÿ
                                   24208              Ÿ      R15- PDB ptr                                                   Ÿ
                                   24209              Ÿ                                                                     Ÿ
                                                      ¾þþþþþþþþþþþþþþþþþþþþþþþþþþþþþþþþþþþþþþþþþþþþþþþþþþþþþþþþþþþþþþþþþþþþþ»
0003260 50E0 D044/902B_      00044 24210              SUBSTART XPROC
 USING  *,R8
 00327A 1891                       24248                       LR    SCBR,R1
 USING  SCB,R9                     24249                       WITH  SCB
 00327C 18AF                       24261                       LR    PDBR,R15
 USING  PDB,R10                    24262                       WITH  PDB
                                   24274
 00327E 4110 9000            00000 24275                       LA    R1,SCB
 003282 58E0 899E/0DEE       03C08 24276                       ACALL UPDSCB              Check SCB for updates
                                   24280
 003288 4800 A000            00000 24281                       LH    R0,PDBLENG
 00328C 4B00 89DC            03C46 24282                       SH    R0,=AL2(L'PDBHDR)
 003290 47B0 803E/FEDC_      032A8 24283                       FAIL  NEG,'Bad substart PDB'
 0032A8 4000 A036            00036 24303                       STH   R0,PDBRC            Read count
                                   24304
 0032AC 9680 90B0      000B0       24305                       SET   SCBTFSYN            (For SUBSEND validity check)
                                   24311                       ¿þþþþþþþþþþþþþþþþþþþþþþþþþþþþþþþþþþþþþþþþþþþþþþþþþþþþþþþþþþþÜ
                                   24312                       Ÿ  Start session in the default subsystem.                  Ÿ
                                   24313                       Ÿ    (WYLBUR, usually, but port information can override.)  Ÿ
                                   24314                       ¾þþþþþþþþþþþþþþþþþþþþþþþþþþþþþþþþþþþþþþþþþþþþþþþþþþþþþþþþþþþ»
 0032B0 5860 9008/1266       00008 24315                       LT    R6,SCBPIBP          Port information
 0032B6 4780 8084            032EE 24319                       IF    NZ,BEGIN            Should always be present...
 USING  PIB,R6                     24330  1                      WITH  (PIB,R6)
 0032BA D607 6010 6010_00010 00010 24343  1                      IF    (PIBDFSYS,Z),SSTWYL  Universal default subsystem
                                   24362  1
 0032C4 4120 C2A0            002A0 24363  1                      LA    R2,CVSUBQH-(SUBLINK-SUB)  Dummy first link
 0032C8                            24364  1                      LOOP  BEGIN
 USING  SUB,R2                     24370  2                        WITH  (SUB,R2)
 0032C8 5820 2008/1222_      00008 24383  2                        WHILE ('LT R2,SUBLINK',NZ)
 0032D2 D507 2010 6010_00010 00010 24400  2                        IF    (SUBNAME,EQ,PIBDFSYS),BEGIN  We want this subsys...
 0032DC D607 2024 2024_00024 00024 24418  3                          IF    (SUBSCLCK,Z),SSTWYL  Subsystem isn't ready yet
 0032E6 47F0 8086            032F0 24437  3                          B     SSTENTER            Go use this subsystem
 0032EA                            24438  2                        END
 0032EA 47F0 805E            032C8 24442  1                      END
 DROP   SUB,R2
 DROP   PIB,R6                     24452                       END
                                   24461
 0032EE 1B22                       24462              SSTWYL   CLEAR R2                  Try default subsys
                                   24467
 0032F0 4110 9000            00000 24468              SSTENTER LA    R1,SCB
 0032F4 41F0 A000            00000 24469                       LA    R15,PDB
 0032F8 58E0 89A2/0DEE       03C0C 24470                       ACALL SUBENTER            Logon session in this subsystem
 0032FE 41D0 D030/982B_      00030 24474                       PEND
 DROP   PDB,R10
1SIFT     (SIFT2047) (12:37) (15MAR04) Subsystem Interface                                                                  Page  101
0Current Usings:  (CV,R12)
0Loc    Object Code    Addr1 Addr2  Stmt Lv Lineno    Source Statement           (Hibal 5, Asmedit 3.3)  HLASM R4.0  2004/03/15 12.37
+___    ______ ____    _____ _____  ____ __ ______    ______ _________
0DROP   SCB,R9
 DROP   *,R8
1SIFT     (SIFT2047) (12:37) (15MAR04) Subsystem Interface                                                                  Page  102
0Current Usings:  (CV,R12)
0Loc    Object Code    Addr1 Addr2  Stmt Lv Lineno    Source Statement           (Hibal 5, Asmedit 3.3)  HLASM R4.0  2004/03/15 12.37
+___    ______ ____    _____ _____  ____ __ ______    ______ _________
0                                  24505              ¿þþþþþþþþþþþþþþþþþþþþþþþþþþþþþþþþþþþþþþþþþþþþþþþþþþþþþþþþþþþþþþþþþþþþþÜ
                                   24506              Ÿ                                                                     Ÿ
                                   24507              Ÿ  SUBENTER -- Routine to enter subsystem.                            Ÿ
                                   24508              Ÿ                                                                     Ÿ
                                   24509              Ÿ    On entry:                                                        Ÿ
                                   24510              Ÿ      R2 - SUB ptr of subsys to enter (or zero for default sys)      Ÿ
                                   24511              Ÿ      R1 - SCB ptr                                                   Ÿ
                                   24512              Ÿ      R15- PDB ptr                                                   Ÿ
                                   24513              Ÿ                                                                     Ÿ
                                                      ¾þþþþþþþþþþþþþþþþþþþþþþþþþþþþþþþþþþþþþþþþþþþþþþþþþþþþþþþþþþþþþþþþþþþþþ»
0003312 50E0 D044/902B_      00044 24514              SUBENTER PROC
 USING  *,R8
 00332C 1891                       24550                       LR    SCBR,R1
 USING  SCB,R9                     24551                       WITH  SCB
 00332E 18AF                       24563                       LR    PDBR,R15
 USING  PDB,R10                    24564                       WITH  PDB
                                   24576
 003330 12B2                       24577                       LTR   SUBR,R2
 003332 4770 8028            03344 24578                       IF    Z,BEGIN
 003336 58B0 C298/12BB       00298 24589  1                      LT    SUBR,CVDEFSUB       Default subsys
 00333C 4770 8028/58B0_      03344 24593  1                      IF    Z,'L SUBR,CVMRTSUB'  or mort
 003344                            24610                       END
 USING  SUB,R11                    24614                       WITH  SUB
 003344 D502 8936 B000_03C52 00000 24626                       FAIL  (SUB,NE,'SUB'),'Bad SUB ptr'
                                   24652
 00335C 9247 A006      00006       24653                       MVI   PDBCMD,FMILXCTL     Assume re-entry to subsys
 003360 9140 A008/4710_00008       24654                       IF    ~PDBMODA.MODAFMIL,'MVC PDBSYSNM,SCBSUB'
                                   24676                       ¿þþþþþþþþþþþþþþþþþþþþþþþþþþþþþþþþþþþþþþþþÜ
                                   24677                       Ÿ  Compatibility code needed for ORVYL.  Ÿ
                                   24678                       ¾þþþþþþþþþþþþþþþþþþþþþþþþþþþþþþþþþþþþþþþþ»
                                   24679            C          IF    ((SUBNAME,EQ,'ORVYL'),OR,
 00336E D504 8939 B010_03C55 00010                                   (SUBNAME,EQ,'TESTORV')),BEGIN
 003382 9140 A008/4710_00008       24712  1                      IF    PDBMODA.MODAFMIL,EXIT
                                   24731  1                      ¿þþþþþþþþþþþþþþþþþþþþþþþþþþþþþþþþþþþþþþþþþþþþþþþþþþþþþþþþþþþþþÜ
                                   24732  1                      Ÿ  This special code converts a response to a "READ CONTROL"  Ÿ
                                   24733  1                      Ÿ    from WYLBUR into a PDB that looks like a terminal read   Ÿ
                                   24734  1                      Ÿ    response.  As far as ORVYL is concerned it's a terminal  Ÿ
                                   24735  1                      Ÿ    read completing.                                         Ÿ
                                   24736  1                      ¾þþþþþþþþþþþþþþþþþþþþþþþþþþþþþþþþþþþþþþþþþþþþþþþþþþþþþþþþþþþþþ»
 00338A 9501 A030      00030       24737  1                      CLI   PDBORV,PDBVRCTL     Is it a "read control"?
 00338E 4770 8094            033B0 24738  1                      IF    EQ,BEGIN            Yes...
 003392 48F0 A032            00032 24749  2                        LH    R15,PDBWC           Response data length
 003396 D730 A007 A007 00007 00007 24750  2                        CLEAR PDBOPT
 00339C 40F0 A036            00036 24757  2                        STH   R15,PDBRC           Set it as "read data"
 0033A0 4100 F006            00006 24758  2                        LA    R0,@R15+6
 0033A4 4000 A02E            0002E 24759  2                        STH   R0,PDBOUTCT         Set count here too
 0033A8 41F0 F038            00038 24760  2                        LA    R15,L'PDBHDR+@R15
 0033AC 40F0 A000            00000 24761  2                        STH   R15,PDBLENG         Save total PDB length
 0033B0                            24762  1                      END
 0033B0                            24766                       END
                                   24770
 0033B0 94BF A008      00008       24771                       CLEAR PDBMODA.MODAFMIL
                                   24779
1SIFT     (SIFT2047) (12:37) (15MAR04) Subsystem Interface                                                                  Page  103
0Current Usings:  (*,R8) (SCB,R9) (PDB,R10) (SUB,R11) (CV,R12)
0Loc    Object Code    Addr1 Addr2  Stmt Lv Lineno    Source Statement           (Hibal 5, Asmedit 3.3)  HLASM R4.0  2004/03/15 12.37
+___    ______ ____    _____ _____  ____ __ ______    ______ _________
00033B4 50B0 900C            0000C 24780                       ST    SUBR,SCBSUBP        Set current subsys
 0033B8 D207 9104 B010 00104 00010 24781                       MVC   SCBSUB,SUBNAME      ... and it's name
                                   24782
 0033BE 4130 9030            00030 24783                       LA    R3,SCBSUBL
 0033C2 4140 9080            00080 24784                       LA    R4,SCBSUBE
 0033C6 1BFF                       24785                       CLEAR R15
 0033C8 1934/47B0 80D2             24789                       WHILE (R3,LT,R4),BEGIN
 0033CE 5810 3000            00000 24806  1                      L     R1,@R3
 0033D2 191B/4780 810E             24807  1                      IF    (R1,EQ,SUBR),SUBEN  Subsys is in list
 0033D8 1211/4770 80CA_            24825  1                      IF    ((R1,Z),AND,(R15,Z)),'LR R15,R3'  save avail slot ptr
 0033E6 4130 3004            00004 24858  1                      LA    R3,@R3+4
 0033EA 47F0 80AC            033C8 24859                       END
 0033EE 12FF/4770 80EE_            24864                       FAIL  (R15,Z),'Too many subsystems'
 00340A 50B0 F000            00000 24887                       ST    SUBR,@R15           Save SUB ptr in list
 00340E 41F0 0001/4AF0_      00001 24888                       INCR  R15,SUBCUR          Kick current no. of users
 00341A 49F0 B02C/47D0_      0002C 24894                       IF    (R15,GT,SUBMAX),'STH R15,SUBMAX'  max so far
                                   24917
 003426 9240 A006      00006       24918                       MVI   PDBCMD,FMILSOS      Start of session
 00342A 58E0 88F4/0DEE       03C10 24919              SUBEN    VCALL SINEUPD             Update session information
 003430 4110 9000            00000 24923                       LA    R1,SCB
 003434 41F0 A000            00000 24924                       LA    R15,PDB
 003438 58E0 88E4/0DEE       03C00 24925                       ACALL SUBSEND
 00343E 41D0 D030/982B_      00030 24929                       PEND
 DROP   SUB,R11
 DROP   PDB,R10
 DROP   SCB,R9
 DROP   *,R8
1SIFT     (SIFT2047) (12:37) (15MAR04) Subsystem Interface                                                                  Page  104
0Current Usings:  (CV,R12)
0Loc    Object Code    Addr1 Addr2  Stmt Lv Lineno    Source Statement           (Hibal 5, Asmedit 3.3)  HLASM R4.0  2004/03/15 12.37
+___    ______ ____    _____ _____  ____ __ ______    ______ _________
0                                  24965              ¿þþþþþþþþþþþþþþþþþþþþþþþþþþþþþþþþþþþþþþþþþþþþþþþþþþþþþþþþþþþþþþþþþþþþþÜ
                                   24966              Ÿ                                                                     Ÿ
                                   24967              Ÿ  SUBSEND -- Routine to process and then send PDB to subsystem.      Ÿ
                                   24968              Ÿ                                                                     Ÿ
                                   24969              Ÿ    On entry:                                                        Ÿ
                                   24970              Ÿ      R1  - SCB ptr                                                  Ÿ
                                   24971              Ÿ      R15 - PDB ptr                                                  Ÿ
                                   24972              Ÿ                                                                     Ÿ
                                                      ¾þþþþþþþþþþþþþþþþþþþþþþþþþþþþþþþþþþþþþþþþþþþþþþþþþþþþþþþþþþþþþþþþþþþþþ»
0003452 50E0 D044/902B_      00044 24973              SUBSEND  XPROC
 USING  *,R8
 00346C 1891                       25011                       LR    SCBR,R1
 USING  SCB,R9                     25012                       WITH  SCB
 00346E 18AF                       25024                       LR    PDBR,R15
 USING  PDB,R10                    25025                       WITH  PDB
                                   25037
 003470 5090 C758            00758 25038                       ST    SCBR,CVCURSCB
                                   25039
 003474 9120 90B0/47E0_000B0       25040                       FAIL  (SCBTFAIO,AND,SCBTFSYN+SCBTFIO),'Subsys error'
                                   25081
 003494 D201 A004 90F8 00004 000F8 25082                       MVC   PDBLIN#,SCBNO       Session number
                                   25083
 00349A 9120 90FF/4710_000FF       25084                       IF    (~SCBFSOF,AND,PDBCPLB.CPLBLGF),'SET SCBFLGF'
 0034AE 9140 90FF/47E0_000FF       25125                       IF    SCBFLGF,'SET PDBCPLB.CPLBLGF'  Latch
                                   25152
 0034BA D203 A010 9014 00010 00014 25153                       MVC   PDBSINP,SCBSINP     Session info ptr (in ECSA)
                                   25154
 0034C0 D20F A014 910C 00014 0010C 25155                       MVC   PDBVINFO,SCBVINFO   General ORVYL information
 0034C6 D201 A02C 9134 0002C 00134 25156                       MVC   PDBSUC,SCBUC        SCB update count
 0034CC D203 A008 90B4 00008 000B4 25157                       MVC   PDBMOD,SCBMOD       Mode flags
                                   25158
 0034D2 9550 A006/4780_00006       25159                       IF    (PDBCMD,EQ,FMILASYN),SUBSENDD  Send async now
                                   25180
 0034DA 9500 A006/4770_00006       25181                       FAIL  (PDBCMD,Z),'PDBCMD error'
                                   25206
 0034F2 1B77                       25207                       CLEAR R7                  Assume sync
 0034F4 9120 90B0/47E0_000B0       25211                       IF    SCBTFAIO,'LA R7,1'  Async write
                                   25232
 003500 949F 90B0/9200_000B0       25233                       CLEAR SCBTFIO+SCBTFAIO,SCBCMD
                                   25248
 003508 1277/4770 80DC             25249                       IF    (R7,Z),BEGIN        Sync I/O...
 00350E 9542 A006/4780_00006       25263  1                      IF    ((PDBCMD,NE,FMILREAD),AND,(PDBCMD,NE,FMILWRIT)),EXIT
 00351E 9120 90B1/47E0_000B1       25301  1                      IF    (SCBTFREP,AND,PDBCPLA.CPLABRK),EXIT  Ignore intrnl brk
 00352E 947F 90B2/D701_000B2       25334  1                      CLEAR SCBFWARN,SCBTMINC   Reset inactivity timeout
 003538                            25346                       END
                                   25350                       ¿þþþþþþþþþþþþþþþþþþþþþþþþþþþþþþþþþþþþþþþþþþþþþþþþþÜ
                                   25351                       Ÿ  Re-do I/O if attn disallowed and attn ending.  Ÿ
                                   25352                       ¾þþþþþþþþþþþþþþþþþþþþþþþþþþþþþþþþþþþþþþþþþþþþþþþþþ»
 003538 9120 A009/47E0_00009       25353                       IF    (PDBMODB.MODBDWAT,AND,PDBCPLA.CPLAATTN),BEGIN  Re-do...
 003548 9110 A00C/4710_0000C       25384  1                      IF    PDBCPLA.CPLABRK,EXIT  Computer can break out
 003550 9542 A006/4770_00006       25403  1                      IF    (PDBCMD,EQ,FMILREAD),BEGIN  Reset read fields...
 003558 D701 90C2 90C2 000C2 000C2 25421  2                        CLEAR SCBOCNT             Reset position and depth
 00355E 9110 90B5/4710_000B5       25428  2                        IF    ~SCBMODB.MODBNNLA,BEGIN  Account for read-attn chars...
1SIFT     (SIFT2047) (12:37) (15MAR04) Subsystem Interface                                                                  Page  105
0Current Usings:  (*,R8) (SCB,R9) (PDB,R10) (CV,R12)
0Loc    Object Code    Addr1 Addr2  Stmt Lv Lineno    Source Statement           (Hibal 5, Asmedit 3.3)  HLASM R4.0  2004/03/15 12.37
+___    ______ ____    _____ _____  ____ __ ______    ______ _________
0003566 48F0 90C0            000C0 25444  3                          LH    R15,SCBOPOS
 00356A 41F0 F003            00003 25445  3                          LA    R15,@R15+3          Account for "stars"
 00356E 40F0 90C0            000C0 25446  3                          STH   R15,SCBOPOS
 003572 9610 90B1      000B1       25447  3                          SET   SCBTFPRI
 003576                            25453  2                        END
 003576 5810 9020/1211_      00020 25457  2                        IF    ('LT R1,SCBCPDBP',NZ),'VCALL FREECORE; CLEAR SCBCPDBP'
 00358C 5810 90C8/1211_      000C8 25489  2                        IF    ('LT R1,SCBDRPTR',NZ),'VCALL FREECORE; CLEAR SCBDRPTR'
 0035A2                            25521  1                      END
 0035A2 5820 9018/1222       00018 25525  1                      LT    R2,SCBPDBP          Saved PDB
 0035A8 4770 8168/FEDC_      035C4 25529  1                      FAIL  Z,'PDB processing error'
 0035C4 18EA/48F0 2000_            25549  1                      MOVEL PDB,(R2),LH:@R2
 0035D0 1812                       25568  1                      LR    R1,R2
 0035D2 58E0 87B8/0DEE       03C14 25569  1                      VCALL FREECORE
 0035D8 D703 9018 9018 00018 00018 25573  1                      CLEAR SCBPDBP
                                   25580  1
 0035DE D200 90B3 A006 000B3 00006 25581  1                      MVC   SCBCMD,PDBCMD
 0035E4 D203 90B4 A008 000B4 00008 25582  1                      MVC   SCBMOD,PDBMOD
                                   25583  1
 0035EA 4110 9000            00000 25584  1                      LA    R1,SCB
 0035EE 41F0 A000            00000 25585  1                      LA    R15,PDB
 0035F2 58E0 87BC/0DEE       03C18 25586  1                      ACALL FEDO
 0035F8 4780 81B4/FEDC_      03610 25590  1                      FAIL  NZ,'PDB restart error'
 003610 47F0 85F8            03A54 25610  1                      B     SUBEXIT
 003614                            25611                       END
                                   25615
 003614 5810 9018/1211_      00018 25616                       IF    ('LT R1,SCBPDBP',NZ),'VCALL FREECORE; CLEAR SCBPDBP'
                                   25648                       ¿þþþþþþþþþþþþþþþþþþþþþþþþþþþÜ
                                   25649                       Ÿ  Async write completing.  Ÿ
                                   25650                       ¾þþþþþþþþþþþþþþþþþþþþþþþþþþþ»
 00362A 1277/4780 8248             25651                       IF    (R7,NZ),BEGIN       Async write completing...
 003630 D601 9100 9100_00100 00100 25665  1                      IF    (SCBNMSG,NZ),SUBEXIT  More async I/O to do
                                   25684  1
 00363A 5820 901C/1222_      0001C 25685  1                      IF    ('LT R2,SCBSPDBP',NZ),BEGIN  New sync I/O...
 003644 18EA/48F0 2000_            25701  2                        MOVEL PDB,(R2),LH:@R2     Sync PDB
 003650 1812                       25720  2                        LR    R1,R2
 003652 58E0 87B8/0DEE       03C14 25721  2                        VCALL FREECORE
 003658 D703 901C 901C 0001C 0001C 25725  2                        CLEAR SCBSPDBP
 00365E 4110 9000            00000 25732  2                        LA    R1,SCB
 003662 41F0 A000            00000 25733  2                        LA    R15,PDB
 003666 58E0 87C0/0DEE       03C1C 25734  2                        ACALL PROCPDB             Process new PDB
 00366C 47F0 85F8            03A54 25738  2                        B     SUBEXIT
 003670                            25739  1                      END
                                   25743  1
 003670 D503 87C4 900C_03C20 0000C 25744  1                      IF    (SCBSUBP,EQ,-1),BEGIN  Subsys has died, scram...
 00367A 9680 90B0      000B0       25762  2                        SET   SCBTFSYN            We are sync now (for SUBSEND)
 00367E 58A0 C060            00060 25768  2                        L     PDBR,CVPDBP
                                   25769  2                        WITH  PDB
 003682 D737 A000 A000 00000 00000 25772  2                        CLEAR PDBHDR
 003688 D201 A000 87EA 00000 03C46 25779  2                        MVC   PDBLENG,=AL2(L'PDBHDR)
 00368E 5820 C32C            0032C 25780  2                        L     R2,CVMRTSUB
 003692 4110 9000            00000 25781  2                        LA    R1,SCB
 003696 41F0 A000            00000 25782  2                        LA    R15,PDB
 00369A 58E0 87B0/0DEE       03C0C 25783  2                        ACALL SUBENTER            Transfer to mort
 0036A0                            25787  1                      END
1SIFT     (SIFT2047) (12:37) (15MAR04) Subsystem Interface                                                                  Page  106
0Current Usings:  (*,R8) (SCB,R9) (PDB,R10) (CV,R12)
0Loc    Object Code    Addr1 Addr2  Stmt Lv Lineno    Source Statement           (Hibal 5, Asmedit 3.3)  HLASM R4.0  2004/03/15 12.37
+___    ______ ____    _____ _____  ____ __ ______    ______ _________
00036A0 47F0 85F8            03A54 25791  1                      B     SUBEXIT
 0036A4                            25792                       END
1SIFT     (SIFT2047) (12:37) (15MAR04) Subsystem Interface                                                                  Page  107
0Current Usings:  (*,R8) (SCB,R9) (PDB,R10) (CV,R12)
0Loc    Object Code    Addr1 Addr2  Stmt Lv Lineno    Source Statement           (Hibal 5, Asmedit 3.3)  HLASM R4.0  2004/03/15 12.37
+___    ______ ____    _____ _____  ____ __ ______    ______ _________
00036A4 9542 A006/4770_00006       25797                       IF    (PDBCMD,EQ,FMILREAD),BEGIN  Read completion...
 0036AC D701 90C2 90C2 000C2 000C2 25815  1                      CLEAR SCBOCNT             Reset position and depth
 0036B2 9180 A00C/47E0_0000C       25822  1                      IF    (PDBCPLA.CPLAATTN,AND,~SCBMODB.MODBNNLA),BEGIN
 0036C2 48F0 90C0            000C0 25853  2                        LH    R15,SCBOPOS
 0036C6 41F0 F003            00003 25854  2                        LA    R15,@R15+3          Account for "stars"
 0036CA 40F0 90C0            000C0 25855  2                        STH   R15,SCBOPOS
 0036CE                            25856  1                      END
                                   25860  1
 0036CE 9180 A00C/47E0_0000C       25861  1                      IF    (~PDBCPLA.CPLAATTN,OR,~SCBMODB.MODBNNLA),'SET SCBTFPRI'
                                   25903  1
 0036E2 4800 A000            00000 25904  1                      LH    R0,PDBLENG
 0036E6 4B00 87EA            03C46 25905  1                      SH    R0,=AL2(L'PDBHDR)
 0036EA 47B0 82AC/FEDC_      03708 25906  1                      FAIL  NEG,'Bad read completion PDB'
 003708 4110 A038            00038 25926  1                      SETMSG PDBTEXT,(R0)
 00370C 58E0 87C8/0DEE       03C24 25939  1                      ACALL INPROC              Do user translation, etc.
                                   25943  1                      ¿þþþþþþþþþþþþþþþþþþþþþþþþþþþþþþþþþþþþþþþþþþþþþþþþÜ
                                   25944  1                      Ÿ  Truncate read text to the maximum requested.  Ÿ
                                   25945  1                      ¾þþþþþþþþþþþþþþþþþþþþþþþþþþþþþþþþþþþþþþþþþþþþþþþþ»
 003712 1820                       25946  1                      LR    R2,R0               Prompt+Read count
 003714 1B2F                       25947  1                      SR    R2,R15              Just the read data count
 003716 4920 90BE/47D0_      000BE 25948  1                      IF    (R2,GT,SCBINCT),BEGIN  Too much input...
 00371E 4800 90BE            000BE 25965  2                        LH    R0,SCBINCT          Maximum input count
 003722 1A0F                       25966  2                        AR    R0,R15              ...include prompt length
 003724                            25967  1                      END
                                   25971  1
 003724 D701 A030 A030_00030 00030 25972  1                      CLEAR PDBINCT,PDBOUTCT,PDBWC
 003736 40F0 A034            00034 25989  1                      STH   R15,PDBPC           Prompt count
 00373A 4000 A036            00036 25990  1                      STH   R0,PDBRC            Read count (including prompt)
 00373E 18F0                       25991  1                      LR    R15,R0
 003740 41F0 F006            00006 25992  1                      LA    R15,@R15+6
 003744 40F0 A02E            0002E 25993  1                      STH   R15,PDBOUTCT        Outct=rc+6  (same as old milten)
 003748 18F0                       25994  1                      LR    R15,R0
 00374A 41F0 F038            00038 25995  1                      LA    R15,L'PDBHDR+@R15
 00374E 40F0 A000            00000 25996  1                      STH   R15,PDBLENG         New total length
 003752 41E0 A038/18F0_      00038 25997  1                      MOVEL PDBTEXT,(R1),(R0)
                                   26017  1
 00375E 9120 90B1/47E0_000B1       26018  1                      IF    SCBTFREP,BEGIN      Re-build read (async msg)...
 003766 94DF 90B1      000B1       26033  2                        CLEAR SCBTFREP
 00376A 9110 A00C/47E0_0000C       26040  2                        IF    ~PDBCPLA.CPLABRK,EXIT
 003772 D603 901C 901C_0001C 0001C 26059  2                        FAIL  (SCBSPDBP,NZ),'Async write PDB error'
 003794 9180 90B0/4710_000B0       26084  2                        FAIL  ~SCBTFSYN,'Sync reprompt PDB error'
 0037B6 947B 90B0      000B0       26108  2                        CLEAR SCBTFSYN+SCBTFHIO
 0037BA D701 A00C A00C 0000C 0000C 26118  2                        CLEAR PDBCPL              Clear completion flags
 0037C0 48F0 A036            00036 26125  2                        LH    R15,PDBRC           Prompt+read count
 0037C4 4BF0 A034            00034 26126  2                        SH    R15,PDBPC
 0037C8 40F0 A036            00036 26127  2                        STH   R15,PDBRC           Just the read count
 0037CC D201 A030 90BE 00030 000BE 26128  2                        MVC   PDBINCT,SCBINCT     The maximum read count
 0037D2 4800 A000            00000 26129  2                        LH    R0,PDBLENG
 0037D6 4110 0015            00015 26130  2                        LA    R1,SPDBSUBP
 0037DA 182E                       26131  2                        LR    R2,RAR
 0037DC 58E0 8794/0DEE       03BF0 26132  2                        VCALL NGETCORE
 0037E2 5010 901C            0001C 26136  2                        ST    R1,SCBSPDBP
 0037E6 18E1/48F0 A000_            26137  2                        MOVEL (R1),PDB,LH:PDBLENG  Save PDB
 0037F2 47F0 85F8            03A54 26156  2                        B     SUBEXIT
1SIFT     (SIFT2047) (12:37) (15MAR04) Subsystem Interface                                                                  Page  108
0Current Usings:  (*,R8) (SCB,R9) (PDB,R10) (CV,R12)
0Loc    Object Code    Addr1 Addr2  Stmt Lv Lineno    Source Statement           (Hibal 5, Asmedit 3.3)  HLASM R4.0  2004/03/15 12.37
+___    ______ ____    _____ _____  ____ __ ______    ______ _________
00037F6                            26157  1                      END
                                   26161  1
 0037F6 9140 90B1/47E0_000B1       26162  1                      IF    SCBTFPP,BEGIN       Page/pause read...
 0037FE 94BF 90B1      000B1       26177  2                        CLEAR SCBTFPP
 003802 9542 A006/4780_00006       26184  2                        FAIL  (PDBCMD,NE,FMILREAD),'Page/pause PDB error'
 003822 9241 A006      00006       26211  2                        MVI   PDBCMD,FMILWRIT     Really it's a write completion
 003826 9140 90FF/4710_000FF       26212  2                        IF    SCBFLGF,SUBSENDP    Force completion
 00382E 4820 A036            00036 26230  2                        LH    R2,PDBRC
 003832 18F2                       26231  2                        LR    R15,R2
 003834 4BF0 A034            00034 26232  2                        SH    R15,PDBPC           No. of chars read
 003838 4122 A037            00037 26233  2                        LA    R2,PDBTEXT-1(R2)    Last char
                                   26234  2
 00383C 9180 A00C/47E0_0000C       26235  2                        IF    PDBCPLA.CPLAATTN,BEGIN  Ended with attn...
 003844 12FF/47D0 84F8             26251  3                          IF    (R15,NP),SUBSENDP   Just attn... send completion
 00384A 9140 90B7/4710_000B7       26268  3                          IF    ~SCBMODD.MODDNPT,BEGIN  Page/pause read text allowed...
 003852 957C 2000/4780_00000       26284  4                            IF    (@R2,EQ,'@'),SUBSENDP  (WYLBUR command retry)
 00385A                            26303  3                          END
 00385A D705 A032 A032 00032 00032 26307  3                          CLEAR (PDBWC,6)
 003860 47F0 8442            0389E 26314  3                          B     SUBSPPR             Re-do page/pause read
 003864                            26315  2                        END
                                   26319  2
 003864 12FF/47D0 8498             26320  2                        IF    (R15,NP),SUBSC      Just carriage-return, continue
 00386A 9540 2000/4770_00000       26337  2                        WHILE (@R2,EQ,' '),BEGIN
 003872 0620                       26355  3                          DECR  R2
 003874 06F0                       26357  3                          DECR  R15
 003876 12FF/47D0 8498             26359  3                          IF    (R15,NP),SUBSC      All blanks, continue
 00387C 47F0 840E            0386A 26376  2                        END
                                   26381  2
 003880 9680 90B1      000B1       26382  2                        SET   SCBTFPNL            Must write "nl" before next I/O
                                   26388  2
 003884 9140 90B7/47E0_000B7       26389  2                        IF    ~SCBMODD.MODDNPT,SUBSENDP  send p/p text to subsys
 00388C D705 A032 A032 00032 00032 26408  2                        CLEAR (PDBWC,6)
 003892 D201 A032 87F2 00032 03C4E 26415  2                        MVC   PDBWC,=AL2(L'PPNMSG)
 003898 D23A A038 8626 00038 03A82 26416  2                        MVC   PDBTEXT(L'PPNMSG),PPNMSG
 00389E 9640 90B1      000B1       26417  2           SUBSPPR      SET   SCBTFPP
 0038A2 9242 90B3      000B3       26424  2                        MVI   SCBCMD,TMILREAD
 0038A6 9242 A006      00006       26425  2                        MVI   PDBCMD,TMILREAD
 0038AA D203 A008 90B4 00008 000B4 26426  2                        MVC   PDBMOD,SCBMOD
 0038B0 D201 A030 87F0 00030 03C4C 26427  2                        MVC   PDBINCT,=H'256'
 0038B6 48F0 A032            00032 26428  2                        LH    R15,PDBWC
 0038BA 41F0 F038            00038 26429  2                        LA    R15,L'PDBHDR+@R15
 0038BE 40F0 A000            00000 26430  2                        STH   R15,PDBLENG
 0038C2 4110 9000            00000 26431  2                        LA    R1,SCB
 0038C6 41F0 A000            00000 26432  2                        LA    R15,PDB
 0038CA 58E0 87BC/0DEE       03C18 26433  2                        ACALL FEDO                Re-do page/pause read
 0038D0 4780 8494/FEDC_      038F0 26437  2                        FAIL  NZ,'Page/pause read PDB error'
 0038F0 47F0 85F8            03A54 26457  2                        B     SUBEXIT
                                   26458  2
 0038F4 5820 9020/1222_      00020 26459  2           SUBSC        IF    ('LT R2,SCBCPDBP',Z),SUBSENDP
 0038FE 18EA/48F0 2000_            26479  2                        MOVEL PDB,(R2),LH:@R2     Move in cont PDB
 00390A 1812                       26498  2                        LR    R1,R2
 00390C D703 9020 9020 00020 00020 26499  2                        CLEAR SCBCPDBP
 003912 58E0 87B8/0DEE       03C14 26506  2                        VCALL FREECORE
                                   26510  2
1SIFT     (SIFT2047) (12:37) (15MAR04) Subsystem Interface                                                                  Page  109
0Current Usings:  (*,R8) (SCB,R9) (PDB,R10) (CV,R12)
0Loc    Object Code    Addr1 Addr2  Stmt Lv Lineno    Source Statement           (Hibal 5, Asmedit 3.3)  HLASM R4.0  2004/03/15 12.37
+___    ______ ____    _____ _____  ____ __ ______    ______ _________
0003918 D200 90B3 A006 000B3 00006 26511  2                        MVC   SCBCMD,PDBCMD
 00391E D203 90B4 A008 000B4 00008 26512  2                        MVC   SCBMOD,PDBMOD
                                   26513  2
 003924 4110 9000            00000 26514  2                        LA    R1,SCB
 003928 41F0 A000            00000 26515  2                        LA    R15,PDB
 00392C 58E0 87BC/0DEE       03C18 26516  2                        ACALL FEDO                Start continuation I/O
 003932 4780 84F4/FEDC_      03950 26520  2                        FAIL  NZ,'Continuation PDB error'
 003950 47F0 85F8            03A54 26540  2                        B     SUBEXIT
 003954                            26541  1                      END
                                   26545  1
 003954                            26546                       END
                                   26550                       ¿þþþþþþþþþþþþþþþþþþþþþþþþþþþþþþþþþþþþþþþþþþÜ
                                   26551                       Ÿ  Send PDB (response) back to subsystem.  Ÿ
                                   26552                       ¾þþþþþþþþþþþþþþþþþþþþþþþþþþþþþþþþþþþþþþþþþþ»
 003954 5810 9020/1211_      00020 26553              SUBSENDP IF    ('LT R1,SCBCPDBP',NZ),'CLEAR SCBCPDBP; VCALL FREECORE'
                                   26586
 00396A 58B0 900C/12BB       0000C 26587              SUBSENDD LT    SUBR,SCBSUBP
 003970 47D0 858A            039E6 26591                       IF    POS,BEGIN           Alive and well...
                                   26602  1                      ¿þþþþþþþþþþþþþþþþþþþþþþþþþþþþþþþÜ
                                   26603  1                      Ÿ  Synchronous I/O completion.  Ÿ
                                   26604  1                      ¾þþþþþþþþþþþþþþþþþþþþþþþþþþþþþþþ»
 003974 9550 A006/4780_00006       26605  1                      IF    (PDBCMD,NE,FMILASYN),BEGIN  Sync PDB completing...
 00397C 9180 90B0/4710_000B0       26623  2                        FAIL  ~SCBTFSYN,'Sync PDB error'
                                   26647  2                        ¿þþþþþþþþþþþþþþþþþþþþþþþþþþþþþþþþþþþþþþþþþþþþþþþþþþþþþþþþþþþþþÜ
                                   26648  2                        Ÿ  If the display mode I/O was interrupted by the user then   Ÿ
                                   26649  2                        Ÿ    the CPLABRK flag will be set.  If it was interrupted by  Ÿ
                                   26650  2                        Ÿ    MILTEN (because of an incoming TO message) then it will  Ÿ
                                   26651  2                        Ÿ    not.                                                     Ÿ
                                   26652  2                        ¾þþþþþþþþþþþþþþþþþþþþþþþþþþþþþþþþþþþþþþþþþþþþþþþþþþþþþþþþþþþþþ»
 003996 9140 90B8/47E0_000B8       26653  2                        IF    SCBTFDISP,BEGIN      Display mode I/O completing...
 00399E 9104 90B0/47E0_000B0       26668  3                          IF    SCBTFHIO,'SET PDBCPLA.CPLABRK'  Force BREAK rc
 0039AA                            26695  2                        END
                                   26699  2                        ¿þþþþþþþþþþþþþþþþþþþþþþþþþþþþþþþþþþÜ
                                   26700  2                        Ÿ  Trace terminal I/O completion.  Ÿ
                                   26701  2                        ¾þþþþþþþþþþþþþþþþþþþþþþþþþþþþþþþþþþ»
 0039AA 9180 915F/47E0_0015F       26702  2                        IF    SCBFTRC,BEGIN       Tracing is active...
 0039B2 9542 A006/4770_00006       26717  3                          IF    (PDBCMD,EQ,TMILREAD),BEGIN
 0039BA 41F0 8784            03BE0 26735  4                            LA    R15,=CL(L'STRCTYPE)'Read completion'
 0039BE 4110 A038/4800_      00038 26736  4                            SETMSG PDBTEXT,LH:PDBRC    Prompt and read data
 0039C6 4A10 A034            00034 26749  4                            AH    R1,PDBPC            Skip past prompt
 0039CA 4B00 A034            00034 26750  4                            SH    R0,PDBPC            Only read response text
 0039CE 58E0 87CC/0DEE       03C28 26751  4                            ACALL SESSTRC             Trace terminal I/O
 0039D4                            26755  3                          END
 0039D4                            26759  2                        END
                                   26763  2
 0039D4 947B 90B0      000B0       26764  2                        CLEAR SCBTFSYN+SCBTFHIO
 0039D8                            26774  1                      END
                                   26778  1
 USING  SUB,R11                    26779  1                      WITH  SUB
 0039D8 41F0 A000            00000 26791  1                      LA    R15,PDB
 0039DC 58E0 87D0/0DEE       03C2C 26792  1                      ACALL PATHSEND            Send PDB to subsys
 0039E2 47F0 85F8            03A54 26796  1                      B     SUBEXIT
 DROP   SUB,R11                    26797                       END
                                   26806
1SIFT     (SIFT2047) (12:37) (15MAR04) Subsystem Interface                                                                  Page  110
0Current Usings:  (*,R8) (SCB,R9) (PDB,R10) (CV,R12)
0Loc    Object Code    Addr1 Addr2  Stmt Lv Lineno    Source Statement           (Hibal 5, Asmedit 3.3)  HLASM R4.0  2004/03/15 12.37
+___    ______ ____    _____ _____  ____ __ ______    ______ _________
00039E6 12BB/4770 85C0_            26807                       IF    ((SUBR,Z),AND,CVFDFSYS),BEGIN  Try default subsys...
 0039F4 D737 A000 A000 00000 00000 26835  1                      CLEAR PDBHDR
 0039FA D201 A000 87EA 00000 03C46 26842  1                      MVC   PDBLENG,=AL2(L'PDBHDR)
 003A00 5820 C298/1222       00298 26843  1                      LT    R2,CVDEFSUB
 003A06 4780 85C0            03A1C 26847  1                      IF    Z,EXIT
 003A0A 4110 9000            00000 26861  1                      LA    R1,SCB
 003A0E 41F0 A000            00000 26862  1                      LA    R15,PDB
 003A12 58E0 87B0/0DEE       03C0C 26863  1                      ACALL SUBENTER
 003A18 47F0 85F8            03A54 26867  1                      B     SUBEXIT
 003A1C                            26868                       END
                                   26872                       ¿þþþþþþþþþþþþþþþþþþþþþþþþþþþþþþþþþþþþþþþþþþþþþþþþþþþÜ
                                   26873                       Ÿ  Subsystem is dead or not present, sent to mort.  Ÿ
                                   26874                       ¾þþþþþþþþþþþþþþþþþþþþþþþþþþþþþþþþþþþþþþþþþþþþþþþþþþþ»
 003A1C D737 A000 A000 00000 00000 26875                       CLEAR PDBHDR
 003A22 D201 A000 87EA 00000 03C46 26882                       MVC   PDBLENG,=AL2(L'PDBHDR)
 003A28 5820 C32C/1222       0032C 26883                       LT    R2,CVMRTSUB
 003A2E 4770 85EA/FEDC_      03A46 26887                       FAIL  Z,'MORT subsys error'
 003A46 4110 9000            00000 26907                       LA    R1,SCB
 003A4A 41F0 A000            00000 26908                       LA    R15,PDB
 003A4E 58E0 87B0/0DEE       03C0C 26909                       ACALL SUBENTER
                                   26913
 003A54 D737 A000 A000 00000 00000 26914              SUBEXIT  CLEAR PDBHDR
                                   26922
 003A5A 4110 9000            00000 26923                       LA    R1,SCB
 003A5E 41F0 A000            00000 26924                       LA    R15,PDB
 003A62 58E0 87D4/0DEE       03C30 26925                       ACALL DOAIO               Start any asynchronous I/O
                                   26929
 003A68 D703 C758 C758 00758 00758 26930                       CLEAR CVCURSCB
 003A6E 41D0 D030/982B_      00030 26937                       PEND
 DROP   PDB,R10
 DROP   SCB,R9
 DROP   *,R8
                                   26967
 003A82 C99597A4A3408987           26968              PPNMSGX  DC    C'Input ignored.  Press RETURN to continue'
 003AAA 40969940C2D9C5C1           26969                       DC    C' or BREAK to stop.',X'15'
                                   26970              PPNMSG   EQU   PPNMSGX,*-PPNMSGX,C'X'
1SIFT     (SIFT2047) (12:37) (15MAR04) Subsystem Interface                                                                  Page  111
0Current Usings:  (CV,R12)
0Loc    Object Code    Addr1 Addr2  Stmt Lv Lineno    Source Statement           (Hibal 5, Asmedit 3.3)  HLASM R4.0  2004/03/15 12.37
+___    ______ ____    _____ _____  ____ __ ______    ______ _________
0                                  26972              ¿þþþþþþþþþþþþþþþþþþþþþþþþþþþþþþþþþþþþþþþþþþþþþþþþþþþþþþþþþþþþþþþþþþþþþÜ
                                   26973              Ÿ                                                                     Ÿ
                                   26974              Ÿ  PATHSEND -- Routine to send requests across SUZAN path.            Ÿ
                                   26975              Ÿ                                                                     Ÿ
                                   26976              Ÿ    On entry:                                                        Ÿ
                                   26977              Ÿ      R15 - xact ptr (starting with RDW)                             Ÿ
                                   26978              Ÿ                                                                     Ÿ
                                   26979              Ÿ    On exit, R15 (and CC):                                           Ÿ
                                   26980              Ÿ      -4 - died                                                      Ÿ
                                   26981              Ÿ       0 - sent                                                      Ÿ
                                   26982              Ÿ       4 - queued                                                    Ÿ
                                   26983              Ÿ                                                                     Ÿ
                                                      ¾þþþþþþþþþþþþþþþþþþþþþþþþþþþþþþþþþþþþþþþþþþþþþþþþþþþþþþþþþþþþþþþþþþþþþ»
0003ABE 50E0 D044/902B_      00044 26984              PATHSEND PROC
 USING  *,R8
 USING  SUB,R11                    27020                       WITH  SUB                 (Entry assumption)
 003AD8 D502 818A B000_03C52 00000 27032                       FAIL  (SUB,NE,'SUB'),'Bad PATHSEND SUB ptr'
                                   27058
 003AFA 187F                       27059                       LR    R7,R15
 003AFC 4860 7000            00000 27060                       LH    R6,@R7              RDW len
 003B00 1266/47D0 8046_            27061                       FAIL  ((R6,NP),OR,(R6,GT,CVBUFLEN)),'Bad PATHSEND PDB'
                                   27100
 003B22 D701 7002 7002 00002 00002 27101                       CLEAR (@R7+2,2)           Clear RDW flags
                                   27108
 003B28 5070 D000            00000 27109                       ST    R7,@R13
 003B2C D703 D004 D004 00004 00004 27110                       CLEAR (@R13+4,4)
 003B32 9680 D000      00000       27117                       SET   @R13.X'80'
 003B36 41F0 0008/5800_      00008 27124                       SCOM  SEND,(R13),SUBPMGC
 003B42 12FF/4780 8100             27143                       IF    (R15,Z),EXIT        A-ok, scram
                                   27160
 003B48 59F0 8170/4770_      03C38 27161                       IF    (R15,EQ,PATHRBAF),BEGIN  Overflow...
 003B50 9180 B080/4710_00080       27178  1                      IF    SUBSFLAG.PATHFCLS,PATHDOWN  Closing, scram
 003B58 41F0 0001/4AF0_      00001 27197  1                      INCR  R15,CVMNFULQ        Count the full queues
                                   27203  1                   ¿þþþþþþþþþþþþþþþþþþþþþþþþþþþþþþþþþþþþþþþþþþþþþþþþþþþþþþþþþþþþþþþþþþÜ
                                   27204  1                   Ÿ  Queue the transaction (will be sent when Suzan queue empties).  Ÿ
                                   27205  1                   ¾þþþþþþþþþþþþþþþþþþþþþþþþþþþþþþþþþþþþþþþþþþþþþþþþþþþþþþþþþþþþþþþþþþ»
 003B64 4100 6004            00004 27206  1                      LA    R0,@R6+4            Allow space for link ptr
 003B68 4110 0014            00014 27207  1                      LA    R1,QPDBSUBP
 003B6C 182E                       27208  1                      LR    R2,RAR
 003B6E 58E0 8128/0DEE       03BF0 27209  1                      VCALL NGETCORE
 003B74 1821                       27213  1                      LR    R2,R1
 003B76 D703 2000 2000 00000 00000 27214  1                      CLEAR (@R2,4)             Zero link ptr
 003B7C 41E0 2004/18F6_      00004 27221  1                      MOVEL @R2+4,(R7),(R6)     Save PDB
 003B88 58F0 B044/12FF       00044 27241  1                      LT    R15,SUBPDBQH        Pending PDB queue
 003B8E 4780 80CE/50F0_      03B96 27245  1                      IF    NZ,'ST R15,@R2'     Maintain link
 003B96 5020 B044            00044 27262  1                      ST    R2,SUBPDBQH         New queue head
 003B9A 41F0 0004            00004 27263  1                      LA    R15,4               Rc=4
 003B9E 47F0 8100            03BC8 27264  1                      EXIT  PATHSEND
 003BA2                            27267                       END
                                   27271
 003BA2 59F0 8174/4780_      03C3C 27272                       IF    (R15,EQ,PATHRNOP),PATHDOWN
                                   27292
 003BAA FEDC17/C2818440D_          27293                       FAIL  'Bad PATHSEND Suzan call'
1SIFT     (SIFT2047) (12:37) (15MAR04) Subsystem Interface                                                                  Page  112
0Current Usings:  (*,R8) (SUB,R11) (CV,R12)
0Loc    Object Code    Addr1 Addr2  Stmt Lv Lineno    Source Statement           (Hibal 5, Asmedit 3.3)  HLASM R4.0  2004/03/15 12.37
+___    ______ ____    _____ _____  ____ __ ______    ______ _________
0                                  27298
 003BC4 48F0 8188            03C50 27299              PATHDOWN LH    R15,=H'-4'          Rc=-4
 003BC8 41D0 D030/982B_      00030 27300                       PEND
 DROP   SUB,R11
 DROP   *,R8
                                   27325
                                   27326                       QLTORG
1SIFT     (SIFT2047) (12:37) (15MAR04) Subsystem Interface                                                                  Page  113
0Current Usings:  (CV,R12)
0Loc    Object Code    Addr1 Addr2  Stmt Lv Lineno    Source Statement           (Hibal 5, Asmedit 3.3)  HLASM R4.0  2004/03/15 12.37
+___    ______ ____    _____ _____  ____ __ ______    ______ _________
0000000                00000 0003C 27372              INWA     RECORD BEGIN
                                   27380  1           INSG       SEGCB
 000000 00                         27381  1 01-SEGCB +$$$SEGCB937   DS 0F
 INSGCOD.INSGSEG   01 EQ
 INSGCOD.INSGWR    02 EQ
 INSGCOD.INSGCLR   03 EQ
 INSGCOD.INSGSPP   04 EQ
 INSGCOD.INSGOVF   05 EQ
 INSGCOD.INSGCR    06 EQ
 INSGCOD.INSGMAR   07 EQ
 000001 00                         27456  1 01-SEGCB +           DC    X'00'               Reserved
 000002 0000                              1          +
 000004 00000000                   27457  1 01-SEGCB +INSGMAXF   DC    A(0)                Maximum buffer length
 000008 00000000                   27458  1 01-SEGCB +INSGMRKF   DC    A(0)                Length at last mark
 00000C 00000000                   27459  1 01-SEGCB +INSGLENF   DC    A(0)                Current length
 000010 00000000                   27460  1 01-SEGCB +INSGINDF   DC    A(0)                Overflow/indent count
 000014 00000000                   27461  1 01-SEGCB +INSGERR    DC    A(0)                Address of error recovery routine
 000018 0000000000000000           27462  1 01-SEGCB +           DC    2F'0'               Reserved
 000020 00000000                   27463  1 01-SEGCB +INSGLOC    DC    A(0)                Location of buffer
 000024 00000000                   27464  1 01-SEGCB +INSGRTN    DC    A(0)                Processing routine
 000028 0000000000000000           27465  1 01-SEGCB +           DC    4F'0'               Reserved
 000038 00000000                   27466  1 01-SEGCB +INSGUSR    DC    A(0)                USER field
                                   27467  1 01-SEGCB +INSG       EQU   $$$SEGCB937,*-$$$SEGCB937,C'X'
 00003C                0003C 0003C 27468                       END
-                                  27478              ¿þþþþþþþþþþþþþþþþþþþþþþþþþþþþþþþþþþþþþþþþþþþþþþþþþþþþþþþþþþþþþþþþþþþþþÜ
                                   27479              Ÿ                                                                     Ÿ
                                   27480              Ÿ  INPROC -- Routine to processs read text.                           Ÿ
                                   27481              Ÿ                                                                     Ÿ
                                   27482              Ÿ    On entry:                                                        Ÿ
                                   27483              Ÿ      R1,R0 - text loc, len                                          Ÿ
                                   27484              Ÿ                                                                     Ÿ
                                   27485              Ÿ    On exit:                                                         Ÿ
                                   27486              Ÿ      R1,R0 - new text loc, len                                      Ÿ
                                   27487              Ÿ      R15   - prompt len (included in R0 len)                        Ÿ
                                   27488              Ÿ                                                                     Ÿ
                                                      ¾þþþþþþþþþþþþþþþþþþþþþþþþþþþþþþþþþþþþþþþþþþþþþþþþþþþþþþþþþþþþþþþþþþþþþ»
0003C62 50E0 D044/902B_      00044 27489              INPROC   PROC  INWA
 USING  *,R8
 USING  INWA-@@,R13
 USING  SCB,R9                     27536                       WITH  SCB                 (Entry assumption)
 003C7C D73B D04C D04C 00000 00000 27548                       CLEAR INWA
 003C82 1871                       27555                       LR    R7,R1
 003C84 1860                       27556                       LR    R6,R0
                                   27557                       ¿þþþþþþþþþþþþþþþþþþþþþþþþþþþþþþþÜ
                                   27558                       Ÿ  Do input user translations.  Ÿ
                                   27559                       ¾þþþþþþþþþþþþþþþþþþþþþþþþþþþþþþþ»
 003C86 9110 90B7/4710_000B7       27560                       IF    ~SCBMODD.MODDNMOD,BEGIN  Do user translation...
 003C8E 58E0 8214/0DEE       03E80 27576  1                      ACALL FINDXLE             Find user translation table
 003C94 4780 803E            03CAA 27580  1                      IF    Z,EXIT              None
 003C98 41F0 F000            00000 27594  1                      WITH  (XLE,R15),'LA R15,XLEIN'
 USING  XLE,R15
1SIFT     (SIFT2047) (12:37) (15MAR04) Subsystem Interface                                                                  Page  114
0Current Usings:  (*,R8) (SCB,R9) (CV,R12) (INWA-@@,R13)
0Loc    Object Code    Addr1 Addr2  Stmt Lv Lineno    Source Statement           (Hibal 5, Asmedit 3.3)  HLASM R4.0  2004/03/15 12.37
+___    ______ ____    _____ _____  ____ __ ______    ______ _________
0DROP   XLE,R15
 003C9C 1817                       27618  1                      LR    R1,R7
 003C9E 1806                       27619  1                      LR    R0,R6
 003CA0 58E0 8218/0DEE       03E84 27620  1                      ACALL XLTEXT
 003CA6 1871                       27624  1                      LR    R7,R1
 003CA8 1860                       27625  1                      LR    R6,R0
 003CAA                            27626                       END
                                   27630                       ¿þþþþþþþþþþþþþþþþþþþþþþþþþþþþþþþþþþþÜ
                                   27631                       Ÿ  Do input upper case conversion.  Ÿ
                                   27632                       ¾þþþþþþþþþþþþþþþþþþþþþþþþþþþþþþþþþþþ»
 003CAA 9180 90B5/47E0_000B5       27633                       IF    SCBMODB.MODBUPPR,BEGIN  Upper case only...
 003CB2 9120 90B7/4710_000B7       27649  1                      IF    SCBMODD.MODDTRAN,EXIT  Skip if transparent mode
 003CBA 9140 90B6/4710_000B6       27668  1                      IF    SCBMODC.MODCDSPL,EXIT  Skip for display mode
                                   27687  1
 003CC2 1817                       27688  1                      LR    R1,R7
 003CC4 18F6                       27689  1                      LR    R15,R6
 003CC6 59F0 821C/47D0_      03E88 27690  1                      WHILE (R15,GT,256),BEGIN
 003CCE DCFF 1000 810E 00000 03D7A 27709  2                        TR    @R1(256),UPPTBL
 003CD4 4110 1100            00100 27710  2                        LA    R1,@R1+256
 003CD8 4BF0 822E            03E9A 27711  2                        SH    R15,=H'256'
 003CDC 47F0 805A            03CC6 27712  1                      END
 003CE0 12FF/47D0 8080_            27717  1                      TDEX  R15,'TR @R1(0),UPPTBL'
 003CEC                            27755                       END
                                   27759
 003CEC 4960 90BE/47D0_      000BE 27760                       CEIL  R6,SCBINCT          Not too much
                                   27766
 003CF8 5810 C064/4800_      00064 27767              INSCAN   SEGINIT L:CVWKBUFP,LH:=H'4096',INSG
 003D0A 1B22                       27791                       CLEAR R2                  Prompt len
 003D0C 5830 90C4/1233_      000C4 27795                       IF    ('LT R3,SCBPRPTR',NZ),BEGIN  prompt text...
 003D16 4820 3000            00000 27811  1                      LH    R2,@R3              Prompt len
 003D1A 4110 3002/1802_      00002 27812  1                      SEG   @R3+2,(R2)
 003D2A 1813                       27839  1                      LR    R1,R3
 003D2C 58E0 8228/0DEE       03E94 27840  1                      VCALL FREECORE
 003D32 1B33/5030 90C4             27844  1                      CLEAR R3,SCBPRPTR
 003D38                            27853                       END
                                   27857
 003D38 5810 90C8/1211_      000C8 27858                       IF    ('LT R1,SCBDRPTR',NZ),BEGIN  Free default read text...
 003D42 58E0 8228/0DEE       03E94 27874  1                      VCALL FREECORE
 003D48 D703 90C8 90C8 000C8 000C8 27878  1                      CLEAR SCBDRPTR
 003D4E                            27885                       END
                                   27889
 003D4E 1817/1806/41F0_            27890                       SEG   (R7),(R6)           Read text
                                   27915
 003D5C 5810 D06C/5800_      00020 27916                       SETMSG L:INSGLOC,L:INSGLENF
 003D64 18F2                       27928                       LR    R15,R2
 003D66 41D0 D06C/982B_      0006C 27929                       PEND
 DROP   SCB,R9
 DROP   INWA-@@,R13
 DROP   *,R8
                                   27960
 003D7A 0001020304050607           27961              UPPTBL   DC    256AL1(*-UPPTBL)
 003E7A                03E7A 03DFB 27962                       ORG   UPPTBL+C'a'         LOWER CASE
 003DFB C1C2C3C4C5C6C7C8           27963                       DC    C'ABCDEFGHI'
 003E04                03E04 03E0B 27964                       ORG   UPPTBL+C'j'         LOWER CASE
1SIFT     (SIFT2047) (12:37) (15MAR04) Subsystem Interface                                                                  Page  115
0Current Usings:  (CV,R12)
0Loc    Object Code    Addr1 Addr2  Stmt Lv Lineno    Source Statement           (Hibal 5, Asmedit 3.3)  HLASM R4.0  2004/03/15 12.37
+___    ______ ____    _____ _____  ____ __ ______    ______ _________
0003E0B D1D2D3D4D5D6D7D8           27965                       DC    C'JKLMNOPQR'
 003E14                03E14 03E1C 27966                       ORG   UPPTBL+C's'         LOWER CASE
 003E1C E2E3E4E5E6E7E8E9           27967                       DC    C'STUVWXYZ'
 003E24                03E24 03E7A 27968                       ORG
                                   27969
                                   27970                       QLTORG
1SIFT     (SIFT2047) (12:37) (15MAR04) Subsystem Interface                                                                  Page  116
0Current Usings:  (CV,R12)
0Loc    Object Code    Addr1 Addr2  Stmt Lv Lineno    Source Statement           (Hibal 5, Asmedit 3.3)  HLASM R4.0  2004/03/15 12.37
+___    ______ ____    _____ _____  ____ __ ______    ______ _________
0                                  27992              ¿þþþþþþþþþþþþþþþþþþþþþþþþþþþþþþþþþþþþþþþþþþþþþþþþþþþþþþþþþþþþþþþþþþþþþÜ
                                   27993              Ÿ                                                                     Ÿ
                                   27994              Ÿ  OUTPROC -- Routine to process write text.                          Ÿ
                                   27995              Ÿ                                                                     Ÿ
                                   27996              Ÿ    On entry:                                                        Ÿ
                                   27997              Ÿ      R1,R0 - text loc, len                                          Ÿ
                                   27998              Ÿ                                                                     Ÿ
                                   27999              Ÿ    On exit:                                                         Ÿ
                                   28000              Ÿ      R1,R0 - new text loc, len                                      Ÿ
                                   28001              Ÿ      R3,R2 - unprocessed text loc, len (for page/pause)             Ÿ
                                   28002              Ÿ      R15 (and CC):                                                  Ÿ
                                   28003              Ÿ        0 - ok                                                       Ÿ
                                   28004              Ÿ        4 - page/pause                                               Ÿ
                                   28005              Ÿ                                                                     Ÿ
                                                      ¾þþþþþþþþþþþþþþþþþþþþþþþþþþþþþþþþþþþþþþþþþþþþþþþþþþþþþþþþþþþþþþþþþþþþþ»
0000000                00000 0003C 28006              OUTWA    RECORD BEGIN
                                   28014  1           OUTSG      SEGCB
 000000 00                         28015  1 01-SEGCB +$$$SEGCB964   DS 0F
 OUTSGCOD.OUTSGSEG 01 EQ
 OUTSGCOD.OUTSGWR  02 EQ
 OUTSGCOD.OUTSGCLR 03 EQ
 OUTSGCOD.OUTSGSPP 04 EQ
 OUTSGCOD.OUTSGOVF 05 EQ
 OUTSGCOD.OUTSGCR  06 EQ
 OUTSGCOD.OUTSGMAR 07 EQ
 000001 00                         28090  1 01-SEGCB +           DC    X'00'               Reserved
 000002 0000                              1          +
 000004 00000000                   28091  1 01-SEGCB +OUTSGMAXF   DC   A(0)                Maximum buffer length
 000008 00000000                   28092  1 01-SEGCB +OUTSGMRKF   DC   A(0)                Length at last mark
 00000C 00000000                   28093  1 01-SEGCB +OUTSGLENF   DC   A(0)                Current length
 000010 00000000                   28094  1 01-SEGCB +OUTSGINDF   DC   A(0)                Overflow/indent count
 000014 00000000                   28095  1 01-SEGCB +OUTSGERR   DC    A(0)                Address of error recovery routine
 000018 0000000000000000           28096  1 01-SEGCB +           DC    2F'0'               Reserved
 000020 00000000                   28097  1 01-SEGCB +OUTSGLOC   DC    A(0)                Location of buffer
 000024 00000000                   28098  1 01-SEGCB +OUTSGRTN   DC    A(0)                Processing routine
 000028 0000000000000000           28099  1 01-SEGCB +           DC    4F'0'               Reserved
 000038 00000000                   28100  1 01-SEGCB +OUTSGUSR   DC    A(0)                USER field
                                   28101  1 01-SEGCB +OUTSG      EQU   $$$SEGCB964,*-$$$SEGCB964,C'X'
 00003C                0003C 0003C 28102                       END
                                   28111              þþþþ
 003EA4 50E0 D044/904B_      00044 28112              OUTPROC  PROC  (R4,LSR),OUTWA
 USING  *,R8
 USING  OUTWA-@@,R13
 USING  SCB,R9                     28158                       WITH  SCB                 (Entry assumption)
 003EBE D73B D04C D04C 00000 00000 28170                       CLEAR OUTWA
                                   28177
 003EC4 1871                       28178                       LR    R7,R1
 003EC6 1860                       28179                       LR    R6,R0
                                   28180
 003EC8 947F 90CD      000CD       28181                       CLEAR SCBFSETFONT         Assume font not set
                                   28188
 003ECC 9110 90B7/4710_000B7       28189                       IF    ~SCBMODD.MODDNMOD,BEGIN  Do user translation...
 003ED4 58E0 885A/0DEE       04708 28205  1                      ACALL FINDXLE             Find user translation table
1SIFT     (SIFT2047) (12:37) (15MAR04) Subsystem Interface                                                                  Page  117
0Current Usings:  (*,R8) (SCB,R9) (CV,R12) (OUTWA-@@,R13)
0Loc    Object Code    Addr1 Addr2  Stmt Lv Lineno    Source Statement           (Hibal 5, Asmedit 3.3)  HLASM R4.0  2004/03/15 12.37
+___    ______ ____    _____ _____  ____ __ ______    ______ _________
0003EDA 4780 8042            03EF0 28209  1                      IF    Z,EXIT              None
 003EDE 41F0 F200            00200 28223  1                      WITH  (XLE,R15),'LA R15,XLEOUT'
 USING  XLE,R15
 DROP   XLE,R15
 003EE2 1817                       28247  1                      LR    R1,R7
 003EE4 1806                       28248  1                      LR    R0,R6
 003EE6 58E0 885E/0DEE       0470C 28249  1                      ACALL XLTEXT
 003EEC 1871                       28253  1                      LR    R7,R1
 003EEE 1860                       28254  1                      LR    R6,R0
 003EF0                            28255                       END
                                   28259
 003EF0 5810 C064/4800_      00064 28260              OUTSCAN  SEGINIT L:CVWKBUFP,LH:=H'4000',OUTSG
                                   28284                       ¿þþþþþþþþþþþþþþþþþþþþþþþþþþþþþþþþþþþþþþþþþþþþþþþÜ
                                   28285                       Ÿ  Don't do any processing of transparent I/O.  Ÿ
                                   28286                       ¾þþþþþþþþþþþþþþþþþþþþþþþþþþþþþþþþþþþþþþþþþþþþþþþ»
 003F02 9120 90B7/47E0_000B7       28287                       IF    SCBMODD.MODDTRAN,BEGIN  Transparent...
 003F0A 1817/1806/41F0_            28303  1                      SEG   (R7),(R6)
 003F18 1B77/1B66                  28328  1                      CLEAR R7,R6
 003F1C 47F0 81B8            04066 28334  1                      B     OUTRC0
 003F20                            28335                       END
                                   28339                       ¿þþþþþþþþþþþþþþþþþþþþþþþþþþþþþþþþþþþþþþþþþþþÜ
                                   28340                       Ÿ  Limited processing of display mode I/O.  Ÿ
                                   28341                       ¾þþþþþþþþþþþþþþþþþþþþþþþþþþþþþþþþþþþþþþþþþþþ»
 003F20 9140 90B6/47E0_000B6       28342                       IF    SCBMODC.MODCDSPL,BEGIN  Display mode I/O...
 003F28 9102 90B5/47E0_000B5       28358  1                      IF    SCBMODB.MODBUFMT,BEGIN  No formatting...
 003F30 1817/1806/41F0_            28374  2                        SEG   (R7),(R6)
 003F3E 1B77/1B66                  28399  2                        CLEAR R7,R6
 003F42 47F0 81B8            04066 28405  2                        B     OUTRC0
 003F46                            28406  1                      END
 003F46                            28410                       END
                                   28414                       ¿þþþþþþþþþþþþþþþþþþþþþþþþþþþþþþþþþþþþþþÜ
                                   28415                       Ÿ  Process tabs, returns, idles, etc.  Ÿ
                                   28416                       ¾þþþþþþþþþþþþþþþþþþþþþþþþþþþþþþþþþþþþþþ»
 003F46 9180 90B1/47E0_000B1       28417                       IF    SCBTFPNL,BEGIN      NL character pending...
 003F4E 4110 889C/4100_      0474A 28432  1                      SEG   X'15'               NL
 003F60 947F 90B1      000B1       28449  1                      CLEAR SCBTFPNL
 003F64 9610 90B1      000B1       28456  1                      SET   SCBTFPRI            CR/LF idles needed
 003F68                            28462                       END
                                   28466
 003F68 9110 90B1/47E0_000B1       28467                       IF    SCBTFPRI,BEGIN      Pending read idles...
 003F70 4820 90C0            000C0 28482  1                      LH    R2,SCBOPOS
 003F74 94EF 90B1/D701_000B1       28483  1                      CLEAR SCBTFPRI,SCBOPOS    Reset
 003F7E 4810 889A            04748 28495  1                      LH    R1,=H'960'          Assume 960 cps (9600 baud)
 003F82 4C20 91A6            001A6 28496  1                      MH    R2,SCBCRI+2         Nchars*cri(per-char)
 003F86 48F0 91A4            001A4 28497  1                      LH    R15,SCBCRI          Cri(fixed)
 003F8A 1A2F                       28498  1                      AR    R2,R15
 003F8C 48F0 91A8            001A8 28499  1                      LH    R15,SCBLFI          Lfi(fixed)
 003F90 1A2F                       28500  1                      AR    R2,R15
 003F92 1C02                       28501  1                      MR    R0,R2               R1 = cps*idletime
 003F94 5E10 886A            04718 28502  1                      AL    R1,=F'999'
 003F98 5D00 886E            0471C 28503  1                      D     R0,=F'1000'         No. of idle chars needed
 003F9C 5910 8872/47D0_      04720 28504  1                      CEIL  R1,L'IDLES
 003FA8 1801                       28523  1                      LR    R0,R1
 003FAA 4110 865A/41F0_      04508 28524  1                      SEG   IDLES,(R0)
1SIFT     (SIFT2047) (12:37) (15MAR04) Subsystem Interface                                                                  Page  118
0Current Usings:  (*,R8) (SCB,R9) (CV,R12) (OUTWA-@@,R13)
0Loc    Object Code    Addr1 Addr2  Stmt Lv Lineno    Source Statement           (Hibal 5, Asmedit 3.3)  HLASM R4.0  2004/03/15 12.37
+___    ______ ____    _____ _____  ____ __ ______    ______ _________
0003FB8                            28550                       END
                                   28554
 003FB8 1266/47D0 81B8             28555              OUTLOOP  WHILE (R6,POS),BEGIN
 003FBE 18F6                       28572  1                      LR    R15,R6
 003FC0 4800 9188/1200       00188 28573  1                      LTH   R0,SCBWID           Terminal width
 003FC6 47D0 812E            03FDC 28577  1                      IF    POS,BEGIN
 003FCA 0600                       28588  2                        DECR  R0                  Rel to zero, not one
 003FCC 4B00 90C0            000C0 28590  2                        SH    R0,SCBOPOS          No. of chars until screen end
 003FD0 47D0 812E/19F0_      03FDC 28591  2                        IF    POS,'CEIL R15,R0'
 003FDC                            28613  1                      END
 003FDC 59F0 8876/47D0_      04724 28617  1                      CEIL  R15,256
 003FE8 411F 7000            00000 28636  1                      LA    R1,@R7(R15)
 003FEC 1B22                       28637  1                      CLEAR R2
 003FEE 06F0/44F0 889E_            28641  1                      DEX   R15,'TRT @R7(0),OUTTBL'
 003FF4 1801                       28660  1                      LR    R0,R1
 003FF6 1B07                       28661  1                      SR    R0,R7
 003FF8 1717/1771/1717             28662  1                      FLIP  (R1,R7)
 003FFE 1B60                       28670  1                      SR    R6,R0
 004000 1830                       28671  1                      LR    R3,R0
 004002 41F0 D04C/58E0_      00000 28672  1                      SEG   (R1),(R0)           Text before we stopped
 00400C 4A30 90C0            000C0 28695  1                      AH    R3,SCBOPOS
 004010 4030 90C0            000C0 28696  1                      STH   R3,SCBOPOS
 004014 1222/4770 8198             28697  1                      IF    (R2,Z),BEGIN        Check for wrap...
 00401A 9180 90B7/4710_000B7       28711  2                        IF    SCBMODD.MODDNPAU,EXIT  Can't pause, scram
 004022 48F0 9188/12FF       00188 28730  2                        LTH   R15,SCBWID
 004028 47D0 8198            04046 28734  2                        IF    ~POS,EXIT
 00402C 06F0                       28748  2                        DECR  R15                 Rel to zero, not one
 00402E 193F/4740 8198             28750  2                        IF    (R3,LT,R15),EXIT    Not wrapped
 004034 D701 90C0 90C0 000C0 000C0 28768  2                        CLEAR SCBOPOS             Back at pos 0
 00403A 41F0 0001/4AF0_      00001 28775  2                        INCR  R15,SCBOCNT         Kick line count
 004046                            28781  1                      END
 004046 819C/47F0 81B4 04046 04018 28785  1                      ELSE  BEGIN               Process special char...
 00404A 1817                       28796  2                        LR    R1,R7
 00404C 4170 7001            00001 28797  2                        LA    R7,@R7+1
 004050 0660                       28798  2                        DECR  R6
 004052 4100 0001            00001 28800  2                        SETMSG (R1),1
 004056 58E2 82CA/12EE       04178 28813  2                        LT    RAR,OUTVECT(R2)     Processing routine
 00405C 4780 81B4/05EE       04062 28817  2                        IF    NZ,'BALR RAR,RAR'
 004062                            28834  1                      END
 004062 47F0 810A            03FB8 28838                       END
                                   28843
 004066 1BFF                       28844              OUTRC0   CLEAR R15                 Set rc
 004068 1837                       28849              OUTEXIT  LR    R3,R7               Remaining text loc
 00406A 1826                       28850                       LR    R2,R6               ... and length
 00406C 5810 D06C/5800_      00020 28851                       SETMSG L:OUTSGLOC,L:OUTSGLENF  processed text
 004074 47F0 8646            044F4 28863                       EXIT
1SIFT     (SIFT2047) (12:37) (15MAR04) Subsystem Interface                                                                  Page  119
0Current Usings:  (*,R8) (SCB,R9) (CV,R12) (OUTWA-@@,R13)
0Loc    Object Code    Addr1 Addr2  Stmt Lv Lineno    Source Statement           (Hibal 5, Asmedit 3.3)  HLASM R4.0  2004/03/15 12.37
+___    ______ ____    _____ _____  ____ __ ______    ______ _________
0                                  28867              **
                                   28868              **  TRT table for special output characters.
                                   28869              **
0                                  28871              OUT      TBL   (X'00',X'01',X'02',X'03'),OUTCNTL             control
                                   28872                       TBL   X'05',OUTHT                                   ht
                                   28873                       TBL   (X'07',X'0B',X'0C'),OUTCNTL                   control
                                   28874                       TBL   X'0D',OUTCR                                   cr
                                   28875                       TBL   (X'0E',X'0F',X'10',X'11',X'12',X'13'),OUTCNTL control
                                   28876                       TBL   X'15',OUTNL                                   nl
                                   28877                       TBL   X'16',OUTBS                                   bs
                                   28878                       TBL   (X'18',X'19',X'1C',X'1D',X'1E',X'1F'),OUTCNTL control
                                   28879                       TBL   X'25',OUTLF                                   lf
                                   28880                       TBL   (X'26',X'27',X'2D',X'2E',X'2F'),OUTCNTL       control
                                   28881                       TBL   (X'32',X'37',X'3C',X'3D',X'3F'),OUTCNTL       control
                                   28882                       TBL   X'40',OUTBL                                   blank
                                   28883                       TBL   X'4C',OUTFCHK                                 "<"
                                   28884                       TBL
-00419C 41F0 D04C/58E0_      00000 28966              OUTCNTL  SEG   (R1),(R0)
 0041A6 47F0 810A            03FB8 28990                       B     OUTLOOP
                                   28991                       ¿þþþþþþþþþþþþþþþþþþþþÜ
                                   28992                       Ÿ  Handle new-line.  Ÿ
                                   28993                       ¾þþþþþþþþþþþþþþþþþþþþ»
 0041AA 41F0 D04C/58E0_      00000 28994              OUTNL    SEG   (R1),(R0)
                                   29018
 0041B4 D601 91A4 91A4_001A4 001A4 29019                       IF    ((SCBCRI,NZ),OR,(SCBLFI,NZ)),BEGIN  Add idles...
 0041C8 4810 889A            04748 29050  1                      LH    R1,=H'960'          Assume 960 cps (9600 baud)
 0041CC 4820 91A6            001A6 29051  1                      LH    R2,SCBCRI+2         Cri(per-char)
 0041D0 4C20 90C0            000C0 29052  1                      MH    R2,SCBOPOS          Cri(per-char)*nchars
 0041D4 48F0 91A4            001A4 29053  1                      LH    R15,SCBCRI          Cri(fixed)
 0041D8 1A2F                       29054  1                      AR    R2,R15
 0041DA 48F0 91A8            001A8 29055  1                      LH    R15,SCBLFI          Lfi(fixed)
 0041DE 1A2F                       29056  1                      AR    R2,R15
 0041E0 1C02                       29057  1                      MR    R0,R2               R1=cps*idletime
 0041E2 1B00                       29058  1                      CLEAR R0
 0041E4 5E10 887A            04728 29062  1                      AL    R1,=A(999)
 0041E8 5D00 887E            0472C 29063  1                      D     R0,=A(1000)         No. of idle chars needed
 0041EC 5910 8872/47D0_      04720 29064  1                      CEIL  R1,L'IDLES
 0041F8 1801                       29083  1                      LR    R0,R1
 0041FA 4110 865A/41F0_      04508 29084  1                      SEG   IDLES,(R0)
 004208                            29110                       END
                                   29114
 004208 D701 90C0 90C0 000C0 000C0 29115                       CLEAR SCBOPOS             Reset to pos 0
                                   29122
 00420E 9180 90B7/4710_000B7       29123                       IF    SCBMODD.MODDNPAU,OUTLOOP
 004216 41F0 0001/4AF0_      00001 29142                       INCR  R15,SCBOCNT         Count the line
 004222 D601 918A 918A_0018A 0018A 29148                       IF    ((SCBHEIP,Z),OR,(R15,LT,SCBHEIP)),OUTLOOP  continue
 004234 41F0 0004            00004 29183                       LA    R15,4               Indicate pause
 004238 47F0 81BA            04068 29184                       B     OUTEXIT
1SIFT     (SIFT2047) (12:37) (15MAR04) Subsystem Interface                                                                  Page  120
0Current Usings:  (*,R8) (SCB,R9) (CV,R12) (OUTWA-@@,R13)
0Loc    Object Code    Addr1 Addr2  Stmt Lv Lineno    Source Statement           (Hibal 5, Asmedit 3.3)  HLASM R4.0  2004/03/15 12.37
+___    ______ ____    _____ _____  ____ __ ______    ______ _________
0                                  29185                       ¿þþþþþþþþþþþþþþþþþþþþþþþþþþþþþþþþþþþÜ
                                   29186                       Ÿ  Handle carriage-return (no LF).  Ÿ
                                   29187                       ¾þþþþþþþþþþþþþþþþþþþþþþþþþþþþþþþþþþþ»
 00423C 41F0 D04C/58E0_      00000 29188              OUTCR    SEG   (R1),(R0)
                                   29212
 004246 D601 91A4 91A4_001A4 001A4 29213                       IF    (SCBCRI,NZ),BEGIN   Add idles...
 004250 4810 889A            04748 29229  1                      LH    R1,=H'960'          Assume 960 cps (9600 baud)
 004254 4820 91A6            001A6 29230  1                      LH    R2,SCBCRI+2         Cri(per-char)
 004258 4C20 90C0            000C0 29231  1                      MH    R2,SCBOPOS          Cri(per-char)*nchars
 00425C 48F0 91A4            001A4 29232  1                      LH    R15,SCBCRI          Cri(fixed)
 004260 1A2F                       29233  1                      AR    R2,R15
 004262 1C02                       29234  1                      MR    R0,R2               R1=cps*idletime
 004264 1B00                       29235  1                      CLEAR R0
 004266 5E10 887A            04728 29239  1                      AL    R1,=A(999)
 00426A 5D00 887E            0472C 29240  1                      D     R0,=A(1000)         No. of idle chars needed
 00426E 5910 8872/47D0_      04720 29241  1                      CEIL  R1,L'IDLES
 00427A 1801                       29260  1                      LR    R0,R1
 00427C 4110 865A/41F0_      04508 29261  1                      SEG   IDLES,(R0)
 00428A                            29287                       END
                                   29291
 00428A D701 90C0 90C0 000C0 000C0 29292                       CLEAR SCBOPOS             Reset to pos 0
                                   29299
 004290 47F0 810A            03FB8 29300                       B     OUTLOOP
                                   29301                       ¿þþþþþþþþþþþþþþþþþþþþþÜ
                                   29302                       Ÿ  Handle backspace.  Ÿ
                                   29303                       ¾þþþþþþþþþþþþþþþþþþþþþ»
 004294 41F0 D04C/58E0_      00000 29304              OUTBS    SEG   (R1),(R0)
 00429E 48F0 90C0/06F0_      000C0 29328                       DECR  R15,SCBOPOS
 0042A8 47F0 810A            03FB8 29333                       B     OUTLOOP
                                   29334                       ¿þþþþþþþþþþþþþþþþþþþþþþþþþþÜ
                                   29335                       Ÿ  Handle horizontal tab.  Ÿ
                                   29336                       ¾þþþþþþþþþþþþþþþþþþþþþþþþþþ»
 0042AC 41F0 D04C/58E0_      00000 29337              OUTHT    SEG   (R1),(R0)
 0042B6 47F0 810A            03FB8 29361                       B     OUTLOOP
                                   29362                       ¿þþþþþþþþþþþþþþþþþþþþþÜ
                                   29363                       Ÿ  Handle line-feed.  Ÿ
                                   29364                       ¾þþþþþþþþþþþþþþþþþþþþþ»
 0042BA 41F0 D04C/58E0_      00000 29365              OUTLF    SEG   (R1),(R0)
                                   29389
 0042C4 D601 91A8 91A8_001A8 001A8 29390                       IF    (SCBLFI,NZ),BEGIN   Add idles...
 0042CE 4810 889A            04748 29406  1                      LH    R1,=H'960'          Assume 960 cps (9600 baud)
 0042D2 4820 91A8            001A8 29407  1                      LH    R2,SCBLFI           Lfi(fixed)
 0042D6 1C02                       29408  1                      MR    R0,R2               R1=idletime*cps
 0042D8 1B00                       29409  1                      CLEAR R0
 0042DA 5E10 887A            04728 29413  1                      AL    R1,=A(999)
 0042DE 5D00 887E            0472C 29414  1                      D     R0,=A(1000)         No. of idle chars needed
 0042E2 5910 8872/47D0_      04720 29415  1                      CEIL  R1,L'IDLES
 0042EE 1801                       29434  1                      LR    R0,R1
 0042F0 4110 865A/41F0_      04508 29435  1                      SEG   IDLES,(R0)
 0042FE                            29461                       END
                                   29465
 0042FE 41F0 0001/4AF0_      00001 29466                       INCR  R15,SCBOCNT         Count the line
                                   29472
 00430A 9180 90B7/4710_000B7       29473                       IF    SCBMODD.MODDNPAU,OUTLOOP  Scram if NOPAUSE
1SIFT     (SIFT2047) (12:37) (15MAR04) Subsystem Interface                                                                  Page  121
0Current Usings:  (*,R8) (SCB,R9) (CV,R12) (OUTWA-@@,R13)
0Loc    Object Code    Addr1 Addr2  Stmt Lv Lineno    Source Statement           (Hibal 5, Asmedit 3.3)  HLASM R4.0  2004/03/15 12.37
+___    ______ ____    _____ _____  ____ __ ______    ______ _________
0004312 D601 90C0 90C0_000C0 000C0 29492                       IF    (SCBOPOS,NZ),OUTLOOP  Can't pause anyway
 00431C D601 918A 918A_0018A 0018A 29511                       IF    ((SCBHEIP,Z),OR,(R15,LT,SCBHEIP)),OUTLOOP  continue
 00432E 41F0 0004            00004 29546                       LA    R15,4               Pause here
 004332 47F0 81BA            04068 29547                       B     OUTEXIT
                                   29548                       ¿þþþþþþþþþþþþþþþþþþÜ
                                   29549                       Ÿ  Handle blanks.  Ÿ
                                   29550                       ¾þþþþþþþþþþþþþþþþþþ»
 004336 18F6                       29551              OUTBL    LR    R15,R6
 004338 59F0 8876/47D0_      04724 29552                       CEIL  R15,256
 004344 12FF/4720 84B6_            29571                       IF    (R15,NP),'SEG (R1),(R0); INCR R15,SCBOPOS; B OUTLOOP'
 004364 411F 7000            00000 29620                       LA    R1,@R7(R15)
 004368 5820 C4A8            004A8 29621                       L     R2,CVBLTBL
 00436C 06F0/44F0 88A4_            29622                       DEX   R15,'TRT @R7(0),@R2'
 004372 1B17                       29641                       SR    R1,R7               No. of blanks - 1
 004374 1A71                       29642                       AR    R7,R1
 004376 1B61                       29643                       SR    R6,R1
 004378 4150 1001            00001 29644                       LA    R5,@R1+1
                                   29645
 00437C 9101 90B6/47E0_000B6       29646                       IF    SCBMODC.MODCSTOB,BEGIN  Suppress trailing blanks...
 004384 1266/47D0 84E4             29662  1                      IF    (R6,~POS),EXIT
 00438A 9515 7000/4780_00000       29679  1                      IF    (@R7,EQ,X'15'),OUTLOOP  ignore trailing blanks
 004392                            29698                       END
                                   29702
 004392 9108 90B5/4710_000B5       29703                       IF    ~SCBMODB.MODBSLOL,BEGIN  Use tabs on output...
 00439A 5950 8882/47C0_      04730 29719  1           OUTBLL     IF    (R5,LE,2),EXIT      Don't bother
 0043A2 4840 90C0            000C0 29740  1                      LH    R4,SCBOPOS
 0043A6 4140 4001            00001 29741  1                      LA    R4,@R4+1            Rel to one
 0043AA 4110 9176            00176 29742  1                      LA    R1,SCBTABS
 0043AE 4100 0010            00010 29743  1                      LA    R0,L'SCBTABS
 0043B2                            29744  1                      LOOP  BEGIN
 0043B2 1F33/4330 1000             29750  2                        LC    R3,@R1              Tab stop
 0043B8 4780 8520            043CE 29757  2                        IF    Z,EXIT
 0043BC 1B34                       29771  2                        SR    R3,R4
 0043BE 4720 8520            043CE 29772  2                        IF    POS,EXIT            Far enough, exit
 0043C2 4110 1001            00001 29786  2                        LA    R1,@R1+1
 0043C6 0600                       29787  2                        DECR  R0
 0043C8 1200/4770 8504             29789  1                      UNTIL (R0,Z),END
                                   29811  1
 0043CE 1233/47D0 85A8             29812  1                      IF    (R3,~POS),EXIT
 0043D4 1935/4720 85A8             29829  1                      IF    (R3,GT,R5),EXIT
                                   29847  1
 0043DA 5930 8882/47D0_      04730 29848  1                      IF    (R3,GT,2),BEGIN     Use tab...
 0043E2 4110 889D/4100_      0474B 29865  2                        SEG   X'05'               Tab
 0043F4 D503 8886 91AA_04734 001AA 29882  2                        IF    (SCBHTI,NE,=F'0'),BEGIN  Add idles...
 0043FE 4810 889A            04748 29899  3                          LH    R1,=H'960'          960 cps (9600 baud)
 004402 48F0 91AC            001AC 29900  3                          LH    R15,SCBHTI+2        Hti(per-char)
 004406 1CE3                       29901  3                          MR    R14,R3              Hti(per-char)*nchars
 004408 48E0 91AA            001AA 29902  3                          LH    R14,SCBHTI          Hti(fixed)
 00440C 1AFE                       29903  3                          AR    R15,R14
 00440E 1C0F                       29904  3                          MR    R0,R15              R1 = cps*idletime
 004410 1B00                       29905  3                          CLEAR R0
 004412 5E10 887A            04728 29909  3                          AL    R1,=A(999)
 004416 5D00 887E            0472C 29910  3                          D     R0,=A(1000)         No. of idles needed
 00441A 5910 8872/47D0_      04720 29911  3                          CEIL  R1,L'IDLES
1SIFT     (SIFT2047) (12:37) (15MAR04) Subsystem Interface                                                                  Page  122
0Current Usings:  (*,R8) (SCB,R9) (CV,R12) (OUTWA-@@,R13)
0Loc    Object Code    Addr1 Addr2  Stmt Lv Lineno    Source Statement           (Hibal 5, Asmedit 3.3)  HLASM R4.0  2004/03/15 12.37
+___    ______ ____    _____ _____  ____ __ ______    ______ _________
0004426 1801                       29930  3                          LR    R0,R1
 004428 4110 865A/41F0_      04508 29931  3                          SEG   IDLES,(R0)
 004436                            29957  2                        END
 004436                            29961  1                      END
                                   29965  1
 004436 858C/47F0 8598_04436 043E0 29966  1                      ELSE  'SEGBLANK (R3)'
 004446 48F0 90C0            000C0 30000  1                      LH    R15,SCBOPOS
 00444A 1AF3                       30001  1                      AR    R15,R3
 00444C 40F0 90C0            000C0 30002  1                      STH   R15,SCBOPOS         New cursor position
 004450 1B53                       30003  1                      SR    R5,R3
 004452 47F0 84EC            0439A 30004  1                      B     OUTBLL
 004456                            30005                       END
                                   30009
 004456 1805/41F0 D04C_            30010                       SEGBLANK (R5)
 004462 48F0 90C0            000C0 30028                       LH    R15,SCBOPOS
 004466 1AF5                       30029                       AR    R15,R5
 004468 40F0 90C0            000C0 30030                       STH   R15,SCBOPOS         New cursor postion
 00446C 47F0 810A            03FB8 30031                       B     OUTLOOP
                                   30032              *
                                   30033              *
 004470 9102 90B5/4710_000B5       30034              OUTFCHK  IF    ~SCBMODB.MODBUFMT,BEGIN  Do formatting...
 004478 1857                       30051  1                      LR    R5,R7
 00447A 1846                       30052  1                      LR    R4,R6
                                   30053  1
 00447C 5940 888E/4740_      0473C 30054  1                      IF    (R4,LT,3),OUTFNO    Too few chars, skip it
 004484 954B 5000/4780_00000       30074  1                      IF    ((@R5,NE,'.'),AND,(@R5,NE,':')),OUTFNO  Not ours
                                   30108  1
 004494 1244/47D0 862C             30109  1                      WHILE (R4,POS),BEGIN      Validate characters...
 00449A 956E 5000/4770_00000       30125  2                        IF    (@R5,EQ,'>'),BEGIN  End of formatting command...
 0044A2 1B57                       30141  3                          SR    R5,R7
 0044A4 1817/1805                  30142  3                          SETMSG (R7),(R5)           Formatting command
 0044A8 41F0 D04C            00000 30154  3                          SEGLD ,                   Pass seg control block ptr
 0044AC 58E0 8892/0DEE       04740 30162  3                          ACALL OUTFORM             Process formatting command
                                   30166  3
 0044B2 4150 5001            00001 30167  3                          LA    R5,@R5+1            Skip past cmd (including ">")
 0044B6 1A75                       30168  3                          AR    R7,R5               Kick ptr...
 0044B8 1B65                       30169  3                          SR    R6,R5               ...and decr length
 0044BA 47F0 810A            03FB8 30170  3                          B     OUTLOOP             All done, go process more chars
 0044BE                            30171  2                        END
                                   30175  2
 0044BE 1F22/4320 5000             30176  2                        LC    R2,@R5              Get char
 0044C4 1FFF/43F2 875A             30183  2                        LC    R15,OUTFTBL(R2)     Non-zero if invalid character
 0044CA 12FF/4770 862C             30190  2                        IF    (R15,NZ),OUTFNO     Invalid character, skip it
                                   30207  2
 0044D0 4150 5001            00001 30208  2                        LA    R5,@R5+1            Next char
 0044D4 0640                       30209  2                        DECR  R4
 0044D6 47F0 85E6            04494 30211  1                      END
 0044DA                            30216                       END
                                   30220
 0044DA 41F0 D04C/58E0_      00000 30221              OUTFNO   SEG   (R1),(R0)           Seg character
 0044E4 41F0 0001/4AF0_      00001 30245                       INCR  R15,SCBOPOS         Keep position accurate
 0044F0 47F0 810A            03FB8 30251                       B     OUTLOOP
                                   30252
 0044F4 41D0 D064/984B_      00064 30253                       PEND
1SIFT     (SIFT2047) (12:37) (15MAR04) Subsystem Interface                                                                  Page  123
0Current Usings:  (CV,R12)
0Loc    Object Code    Addr1 Addr2  Stmt Lv Lineno    Source Statement           (Hibal 5, Asmedit 3.3)  HLASM R4.0  2004/03/15 12.37
+___    ______ ____    _____ _____  ____ __ ______    ______ _________
0DROP   SCB,R9
 DROP   OUTWA-@@,R13
 DROP   *,R8
                                   30284
 004508 0000000000000000           30285              IDLES    DC    XL256'00'           Nulls
                                   30286
 004608 FFFFFFFFFFFFFFFF           30287              OUTFTBL  DC    256X'FF'
 004708                04708 04689 30288                       ORG   OUTFTBL+C'a'
 004689 0000000000000000           30289                       DC    X'000000000000000000'    a-i
 004692                04692 04699 30290                       ORG   OUTFTBL+C'j'
 004699 0000000000000000           30291                       DC    X'000000000000000000'        j-r
 0046A2                046A2 046AA 30292                       ORG   OUTFTBL+C's'
 0046AA 0000000000000000           30293                       DC    X'0000000000000000'               s-z
 0046B2                046B2 046C9 30294                       ORG   OUTFTBL+C'A'
 0046C9 0000000000000000           30295                       DC    X'000000000000000000'    A-I
 0046D2                046D2 046D9 30296                       ORG   OUTFTBL+C'J'
 0046D9 0000000000000000           30297                       DC    X'000000000000000000'        J-R
 0046E2                046E2 046EA 30298                       ORG   OUTFTBL+C'S'
 0046EA 0000000000000000           30299                       DC    X'0000000000000000'               S-Z
 0046F2                046F2 046F8 30300                       ORG   OUTFTBL+C'0'
 0046F8 0000000000000000           30301                       DC    X'00000000000000000000'  0-9
 004702                04702 04652 30302                       ORG   OUTFTBL+C'^'
 004652 00000000000000             30303                       DC    X'00000000000000'        ^.<(+|&
 004659                04659 04662 30304                       ORG   OUTFTBL+C'!'
 004662 0000000000000000           30305                       DC    X'0000000000000000'      !$*);~-/
 00466A                0466A 04673 30306                       ORG   OUTFTBL+C','
 004673 000000FF00                 30307                       DC    X'000000FF00'            ,%_>?  (">" is n.g.)
 004678                04678 04681 30308                       ORG   OUTFTBL+C'`'
 004681 00000000000000             30309                       DC    X'00000000000000'        `:#@'="
 004688                04688 046E8 30310                       ORG   OUTFTBL+C'\'
 0046E8 00                         30311                       DC    X'00'                    \
 0046E9                046E9 046C8 30312                       ORG   OUTFTBL+C'{'
 0046C8 00                         30313                       DC    X'00'                    {
 0046C9                046C9 046D8 30314                       ORG   OUTFTBL+C'}'
 0046D8 00                         30315                       DC    X'00'                    }
 0046D9                046D9 046B5 30316                       ORG   OUTFTBL+C'['
 0046B5 00                         30317                       DC    X'00'                    [
 0046B6                046B6 046C5 30318                       ORG   OUTFTBL+C']'
 0046C5 00                         30319                       DC    X'00'                    ]
 0046C6                046C6 04708 30320                       ORG
                                   30321
                                   30322                       QLTORG
1SIFT     (SIFT2047) (12:37) (15MAR04) Subsystem Interface                                                                  Page  124
0Current Usings:  (CV,R12)
0Loc    Object Code    Addr1 Addr2  Stmt Lv Lineno    Source Statement           (Hibal 5, Asmedit 3.3)  HLASM R4.0  2004/03/15 12.37
+___    ______ ____    _____ _____  ____ __ ______    ______ _________
0                                  30355                  ¿þþþþþþþþþþþþþþþþþþþþþþþþþþþþþþþþþþþþþþþþþþþþþþþþþþþþþþþÜ
                                   30356                  Ÿ  Formatting character entry (see FCHAR macro below).  Ÿ
                                   30357                  ¾þþþþþþþþþþþþþþþþþþþþþþþþþþþþþþþþþþþþþþþþþþþþþþþþþþþþþþþ»
 000000                00000 0000E 30358              FCHAR    RECORD BEGIN
 000000                            30366  1           FCHARNEXT   DS   A                   Next FCHAR ptr (0=end)
 000004 00                         30367  1           FCHARFLG   FLAG
 FCHARFLG.FCHARFAN 00 EQ           30371  1                      FLAG  (FCHARFANY,0,EQ)    - Match either upper or lower
 FCHARFLG.FCHARFUP 01 EQ           30381  1                      FLAG  (FCHARFUPPER,1,EQ)  - Match only if any upper case
 FCHARFLG.FCHARFLO 02 EQ           30391  1                      FLAG  (FCHARFLOWER,2,EQ)  - Match only if all lower case
 000005                            30401  1           FCHARALT   DS    C                   Alternate character set char
 000006                            30402  1                      DS    XL2                 Reserved
 000008                            30403  1           FCHARRTN   DS    A                   Processing routine addr
 00000C                            30404  1           FCHARLEN   DS    X                   Length of sequence
 00000D                            30405  1           FCHARSEQ   DS    0C                  Sequence text (variable)
 00000D                            30406  1           FCHARTLEN   DS   X                   Length of TEXT sequence
 00000E                            30407  1           FCHARTEXT   DS   0C                  TEXT sequence
 00000E                0000E 0000E 30408                       END
-                                  30418              ¿þþþþþþþþþþþþþþþþþþþþþþþþþþþþþþþþþþþþþþþþþþþþþþþþþþþþþþþþþþþþþþþþþþþþþÜ
                                   30419              Ÿ                                                                     Ÿ
                                   30420              Ÿ  OUTFORM -- Routine to process formatting command.  This routine    Ÿ
                                   30421              Ÿ    is called by OUTPROC (above) and assumes that a SEG              Ÿ
                                   30422              Ÿ    buffer is set up.                                                Ÿ
                                   30423              Ÿ                                                                     Ÿ
                                   30424              Ÿ    On Entry:                                                        Ÿ
                                   30425              Ÿ       R1,R0 - formatting command location, length                   Ÿ
                                   30426              Ÿ       R15 - output SEGCB ptr                                        Ÿ
                                   30427              Ÿ                                                                     Ÿ
                                                      ¾þþþþþþþþþþþþþþþþþþþþþþþþþþþþþþþþþþþþþþþþþþþþþþþþþþþþþþþþþþþþþþþþþþþþþ»
0000000                00000 0006C 30428              OUTFWA   RECORD BEGIN
 000000 00                         30436  1           OUTFLAG    FLAG
 OUTFLAG.OUTFDISPL 80 ONES         30440  1                      FLAG  OUTFDISPLAYONLY     - Don't do sequence
                                   30445  1
 000004                            30446  1           OUTFPTRS   DS    2A                  Original sequence ptrs
 00000C                            30447  1           OUTFSEQ    DS    CL32                Sequence as user typed it
 00002C                            30448  1           OUTFSEQL   DS    CL32                Sequence in all lower case
 00004C                            30449  1           OUTFTOK    DS    CL32                Current working sequence
 00006C                0006C 0006C 30450                       END
                                   30459              þþþþ
 004758 50E0 D044/902B_      00044 30460              OUTFORM  PROC  OUTFWA
 USING  *,R8
 USING  OUTFWA-@@,R13
 USING  SCB,R9                     30507                       WITH  SCB
 004772 D76B D04C D04C 00000 00000 30519                       CLEAR OUTFWA
 004778 9001 D050            00004 30526                       STM   R0,R1,OUTFPTRS      Original sequence ptrs
                                   30527
 00477C 187F                       30528                       LR    R7,R15              Copy SEGCB ptr
                                   30529                       SEGDEF (R7)
1SIFT     (SIFT2047) (12:37) (15MAR04) Subsystem Interface                                                                  Page  125
0Current Usings:  (*,R8) (SCB,R9) (CV,R12) (OUTFWA-@@,R13)
0Loc    Object Code    Addr1 Addr2  Stmt Lv Lineno    Source Statement           (Hibal 5, Asmedit 3.3)  HLASM R4.0  2004/03/15 12.37
+___    ______ ____    _____ _____  ____ __ ______    ______ _________
0                                  30530                       ¿þþþþþþþþþþþþþþþþþþþþþþþþþþþþþþþþþþþþþþþþþþþþþþþþþþþþþþþþþÜ
                                   30531                       Ÿ  If a sequence begins with "<.." or "<::" then we will  Ÿ
                                   30532                       Ÿ    display it as "<." or "<:" but not act on the        Ÿ
                                   30533                       Ÿ    formatting request.                                  Ÿ
                                   30534                       ¾þþþþþþþþþþþþþþþþþþþþþþþþþþþþþþþþþþþþþþþþþþþþþþþþþþþþþþþþþ»
 00477E 5900 8226/47D0_      04988 30535                       IF    (R0,GT,2),BEGIN     Long enough to be possible...
 004786 D501 823C 1000_0499E 00000 30552  1                      IF    ((@R1,NE,'..'),AND,(@R1,NE,'::')),EXIT
 00479A 9680 D04C      00000       30586  1                      SET   OUTFDISPLAYONLY     Special "skip" sequence
 00479E 4110 1001            00001 30592  1                      LA    R1,@R1+1            Skip past first dot
 0047A2 0600                       30593  1                      DECR  R0                  Adjust length
 0047A4                            30595                       END
                                   30599
 0047A4 5900 822A/47D0_      0498C 30600                       CEIL  R0,L'OUTFSEQ        Not too long now
 0047B0 D21F D058 C141 0000C 00141 30619                       MVC   OUTFSEQ,CVBLANKS
 0047B6 1820                       30620                       LR    R2,R0
 0047B8 0620/1222/4740_            30621                       MOVE  R2,OUTFSEQ,@R1      Save sequence
                                   30659
 0047C4 D21F D078 D058 0002C 0000C 30660                       MVC   OUTFSEQL,OUTFSEQ    Make copy of sequence
 0047CA 5820 C49C            0049C 30661                       L     R2,CVLOWTBL
 0047CE DC1F D078 2000 0002C 00000 30662                       TR    OUTFSEQL,@R2        Translate to all lower
                                   30663                       ¿þþþþþþþþþþþþþþþþþþþþþþþþþþþþþþþþþþþþþþþþþþþþþþþþþþÜ
                                   30664                       Ÿ  Try to match our sequence with an entry in the  Ÿ
                                   30665                       Ÿ    FCHAR table.                                  Ÿ
                                   30666                       ¾þþþþþþþþþþþþþþþþþþþþþþþþþþþþþþþþþþþþþþþþþþþþþþþþþþ»
 0047D4 5860 822E            04990 30667                       L     R6,=A(FCHARTBL)     Start of FCHAR table
 USING  FCHAR,R6                   30668                       WITH  (FCHAR,R6)
 0047D8 1266/4780 80FA             30681                       WHILE (R6,NZ),BEGIN       Go through FCHAR table...
 0047DE 1FFF/43F0 600C             30697  1                      LC    R15,FCHARLEN        Get sequence length
 0047E4 59F0 8232/47D0_      04994 30704  1                      CEIL  R15,L'OUTFTOK       Not too long now
 0047F0 D21F D098 C141 0004C 00141 30723  1                      MVC   OUTFTOK,CVBLANKS
 0047F6 06F0/12FF/4740_            30724  1                      MOVE  R15,OUTFTOK,FCHARSEQ  Copy over sequence
 004802 58F0 C49C            0049C 30762  1                      L     R15,CVLOWTBL
 004806 DC1F D098 F000 0004C 00000 30763  1                      TR    OUTFTOK,@R15        Convert to lower case
                                   30764  1                      ¿þþþþþþþþþþþþþþþþþþþþþþþþþþþþþÜ
                                   30765  1                      Ÿ  Cheap debugging facility.  Ÿ
                                   30766  1                      ¾þþþþþþþþþþþþþþþþþþþþþþþþþþþþþ»
                                   30767  1                      AGO   .NOBUGS
                                   30768  1           .NOBUGS    ANOP
                                   30769  1
 00480C 9500 6004/4770_00004       30770  1                      IF    FCHARFANY,BEGIN     Case insensitive...
 004814 D51F D098 D078_0004C 0002C 30785  2                        IF    (OUTFTOK,EQ,OUTFSEQL),OUTFMAT  Got it
 00481E                            30806  1                      END
                                   30810  1
 00481E 80C0/47F0 80D2_0481E 04812 30811  1                      ELSEIF FCHARFLOWER,BEGIN  All lower case only...
 00482A D51F D098 D058_0004C 0000C 30835  2                        IF    (OUTFTOK,EQ,OUTFSEQ),OUTFMAT  Got it
 004834                            30856  1                      END
                                   30860  1
 004834 80D6/47F0 80F2_04834 04828 30861  1                      ELSEIF FCHARFUPPER,BEGIN  Any upper case...
 004840 D51F D098 D078_0004C 0002C 30885  2                        IF    (OUTFTOK,EQ,OUTFSEQL),BEGIN
 00484A D51F D098 D058_0004C 0000C 30903  3                          IF    (OUTFTOK,NE,OUTFSEQ),OUTFMAT  Some upper--matched
 004854                            30924  2                        END
 004854                            30928  1                      END
                                   30932  1
 004854 5860 6000            00000 30933  1                      L     R6,FCHARNEXT        Get next FCHAR entry
1SIFT     (SIFT2047) (12:37) (15MAR04) Subsystem Interface                                                                  Page  126
0Current Usings:  (FCHAR,R6) (*,R8) (SCB,R9) (CV,R12) (OUTFWA-@@,R13)
0Loc    Object Code    Addr1 Addr2  Stmt Lv Lineno    Source Statement           (Hibal 5, Asmedit 3.3)  HLASM R4.0  2004/03/15 12.37
+___    ______ ____    _____ _____  ____ __ ______    ______ _________
0004858 47F0 8076            047D8 30934                       END
                                   30939                       ¿þþþþþþþþþþþþþþþþþþþþþþþþþþþþþþþþþþþþþþþþþþþþþþþþþþþþÜ
                                   30940                       Ÿ  No match, display the exact text we were passed.  Ÿ
                                   30941                       ¾þþþþþþþþþþþþþþþþþþþþþþþþþþþþþþþþþþþþþþþþþþþþþþþþþþþþ»
 00485C 4110 8240/4100_      049A2 30942                       SEG   '<'
 00486C 9801 D050            00004 30957                       LM    R0,R1,OUTFPTRS      Original input text
 004870 18F7/58E0 8236_            30958                       SEG   (R1),(R0)
 004878 4110 8241/4100_      049A3 30979                       SEG   '>'
 004888 47F0 820C            0496E 30994                       B     OUTFEXIT            All done
                                   30995                       ¿þþþþþþþþþþþþþþþþþþþþþþþþþþþþþÜ
                                   30996                       Ÿ  We found a matched entry.  Ÿ
                                   30997                       ¾þþþþþþþþþþþþþþþþþþþþþþþþþþþþþ»
 00488C 9180 D04C/47E0_00000       30998              OUTFMAT  IF    OUTFDISPLAYONLY,BEGIN  Display sequence only...
 004894 4110 8240/4100_      049A2 31014  1                      SEG   '<'
 0048A4 9801 D050            00004 31029  1                      LM    R0,R1,OUTFPTRS      Original input text
 0048A8 4110 1001            00001 31030  1                      LA    R1,@R1+1
 0048AC 0600                       31031  1                      DECR  R0
 0048AE 18F7/58E0 8236_            31033  1                      SEG   (R1),(R0)
 0048B6 4110 8241/4100_      049A3 31054  1                      SEG   '>'
 0048C6 47F0 820C            0496E 31069  1                      B     OUTFEXIT            All done
 0048CA                            31070                       END
                                   31074
 0048CA 58E0 6008/12EE       00008 31075                       LT    RAR,FCHARRTN        Get processing routine addr
 0048D0 4780 8178/0DEE_      048DA 31079                       IF    NZ,'BASR RAR,RAR; B OUTFEXIT'  Do it
                                   31097                       ¿þþþþþþþþþþþþþþþþþþþþþþþþþþþþþþþþþþþþþþþþþþþþþþþþþþþþþþþþþþþÜ
                                   31098                       Ÿ  Display special character by switching to the alternate  Ÿ
                                   31099                       Ÿ    character set.                                         Ÿ
                                   31100                       ¾þþþþþþþþþþþþþþþþþþþþþþþþþþþþþþþþþþþþþþþþþþþþþþþþþþþþþþþþþþþ»
 0048DA 9500 6005/4780_00005       31101                       IF    (FCHARALT,NZ),BEGIN  We have an alternate...
 0048E2 9180 9169/47E0_00169       31117  1                      IF    ~SCBFSAMFONT,EXIT   Terminal can't display it, scram
 0048EA 9180 90CD/4710_000CD       31135  1                      IF    ~SCBFSETFONT,BEGIN    Set alternate character set...
 0048F2 4110 8220/4100_      04982 31150  2                        SEG   $SETFONT            Set our alternate font
 004902 9680 90CD      000CD       31175  2                        SET   SCBFSETFONT         Remember that for a while
 004906                            31181  1                      END
                                   31185  1
 004906 4110 8223/4100_      04985 31186  1                      SEG   $SI                 Shift-in to alternate charset
 004916 4110 6005/4100_      00005 31211  1                      SEG   FCHARALT            Write the character
 004926 4110 8224/4100_      04986 31236  1                      SEG   $SO                 Shift-out again
 004936 41F0 0001/4AF0_      00001 31261  1                      INCR  R15,SCBOPOS         Kick output position
 004942 47F0 820C            0496E 31267  1                      B     OUTFEXIT            All done, scram
 004946                            31268                       END
                                   31272                       ¿þþþþþþþþþþþþþþþþþþþþþþþþþþþþþþþþþþþþþþþþþÜ
                                   31273                       Ÿ  Display text form for dumb terminals.  Ÿ
                                   31274                       ¾þþþþþþþþþþþþþþþþþþþþþþþþþþþþþþþþþþþþþþþþþ»
 004946 4130 600D            0000D 31275                       LA    R3,FCHARTLEN
 00494A 1FFF/43F0 600C             31276                       LC    R15,FCHARLEN
 004950 1A3F                       31283                       AR    R3,R15              Actual "FCHARTLEN" addr
 004952 1F22/4320 3000             31284                       LC    R2,@R3              Length of text to write
 004958 4110 3001            00001 31291                       LA    R1,@R3+1            Text data
 00495C 1802/18F7/58E0_            31292                       SEG   (R1),(R2)
 004966 4A20 90C0            000C0 31314                       AH    R2,SCBOPOS          Keep output position...
 00496A 4020 90C0            000C0 31315                       STH   R2,SCBOPOS          ...accurate
                                   31316
 00496E 41D0 D09C/982B_      0009C 31317              OUTFEXIT PEND
1SIFT     (SIFT2047) (12:37) (15MAR04) Subsystem Interface                                                                  Page  127
0Current Usings:  (CV,R12)
0Loc    Object Code    Addr1 Addr2  Stmt Lv Lineno    Source Statement           (Hibal 5, Asmedit 3.3)  HLASM R4.0  2004/03/15 12.37
+___    ______ ____    _____ _____  ____ __ ______    ______ _________
0DROP   FCHAR,R6
 DROP   SCB,R9
 DROP   OUTFWA-@@,R13
 DROP   *,R8
                                   31354
 004982 275DF0                     31355              $SETFONT DC    X'275DF0'           Set ruling font
 004985 0E                         31356              $SI      DC    X'0E'               Shift into alternate char set
 004986 0F                         31357              $SO      DC    X'0F'               Shift out of alternate char set
                                   31358
                                   31359                       QLTORG
1SIFT     (SIFT2047) (12:37) (15MAR04) Subsystem Interface                                                                  Page  128
0Current Usings:  (CV,R12)
0Loc    Object Code    Addr1 Addr2  Stmt Lv Lineno    Source Statement           (Hibal 5, Asmedit 3.3)  HLASM R4.0  2004/03/15 12.37
+___    ______ ____    _____ _____  ____ __ ______    ______ _________
0                                  31382              ¿þþþþþþþþþþþþþþþþþþþþþþþþþþþþþþþþþþþþþþþþþþþþþþþþþþþþþþþþþþþþþþþþþþþþþÜ
                                   31383              Ÿ                                                                     Ÿ
                                   31384              Ÿ        Output formatting command routines.                          Ÿ
                                   31385              Ÿ                                                                     Ÿ
                                                      ¾þþþþþþþþþþþþþþþþþþþþþþþþþþþþþþþþþþþþþþþþþþþþþþþþþþþþþþþþþþþþþþþþþþþþþ»
00049B0 50E0 D044/902B_      00044 31386              OUTFBP   PROC
 USING  *,R8
 USING  SCB,R9                     31422                       WITH  SCB
 0049CA 9680 90CC      000CC       31434                       SET   SCBFBOLD            Bold
 0049CE 4DE0 8248            04C02 31440                       LCALL OUTFCSI
 0049D2 41D0 D030/982B_      00030 31442                       PEND
 DROP   SCB,R9
 DROP   *,R8
                                   31467
 0049E6 50E0 D044/902B_      00044 31468              OUTFBM   PROC
 USING  *,R8
 USING  SCB,R9                     31504                       WITH  SCB
 004A00 947F 90CC      000CC       31516                       CLEAR SCBFBOLD
 004A04 4DE0 8212            04C02 31523                       LCALL OUTFCSI
 004A08 41D0 D030/982B_      00030 31525                       PEND
 DROP   SCB,R9
 DROP   *,R8
                                   31550
 004A1C 50E0 D044/902B_      00044 31551              OUTFIP   PROC
 USING  *,R8
 USING  SCB,R9                     31587                       WITH  SCB
 004A36 9610 90CC      000CC       31599                       SET   SCBFINV             Italics (use reverse instead)
 004A3A 4DE0 81DC            04C02 31605                       LCALL OUTFCSI
 004A3E 41D0 D030/982B_      00030 31607                       PEND
 DROP   SCB,R9
 DROP   *,R8
                                   31632
 004A52 50E0 D044/902B_      00044 31633              OUTFIM   PROC
 USING  *,R8
 USING  SCB,R9                     31669                       WITH  SCB
 004A6C 94EF 90CC      000CC       31681                       CLEAR SCBFINV
 004A70 4DE0 81A6            04C02 31688                       LCALL OUTFCSI
 004A74 41D0 D030/982B_      00030 31690                       PEND
 DROP   SCB,R9
 DROP   *,R8
                                   31715
 004A88 50E0 D044/902B_      00044 31716              OUTFUP   PROC
 USING  *,R8
 USING  SCB,R9                     31752                       WITH  SCB
 004AA2 9640 90CC      000CC       31764                       SET   SCBFUND             Underline
 004AA6 4DE0 8170            04C02 31770                       LCALL OUTFCSI
 004AAA 41D0 D030/982B_      00030 31772                       PEND
 DROP   SCB,R9
 DROP   *,R8
                                   31797
 004ABE 50E0 D044/902B_      00044 31798              OUTFUM   PROC
 USING  *,R8
 USING  SCB,R9                     31834                       WITH  SCB
1SIFT     (SIFT2047) (12:37) (15MAR04) Subsystem Interface                                                                  Page  129
0Current Usings:  (*,R8) (SCB,R9) (CV,R12)
0Loc    Object Code    Addr1 Addr2  Stmt Lv Lineno    Source Statement           (Hibal 5, Asmedit 3.3)  HLASM R4.0  2004/03/15 12.37
+___    ______ ____    _____ _____  ____ __ ______    ______ _________
0004AD8 94BF 90CC      000CC       31846                       CLEAR SCBFUND
 004ADC 4DE0 813A            04C02 31853                       LCALL OUTFCSI
 004AE0 41D0 D030/982B_      00030 31855                       PEND
 DROP   SCB,R9
 DROP   *,R8
                                   31880
 004AF4 50E0 D044/902B_      00044 31881              OUTFFP   PROC
 USING  *,R8
 USING  SCB,R9                     31917                       WITH  SCB
 004B0E 9620 90CC      000CC       31929                       SET   SCBFBLNK            Flashing (blinking)
 004B12 4DE0 8104            04C02 31935                       LCALL OUTFCSI
 004B16 41D0 D030/982B_      00030 31937                       PEND
 DROP   SCB,R9
 DROP   *,R8
                                   31962
 004B2A 50E0 D044/902B_      00044 31963              OUTFFM   PROC
 USING  *,R8
 USING  SCB,R9                     31999                       WITH  SCB
 004B44 94DF 90CC      000CC       32011                       CLEAR SCBFBLNK
 004B48 4DE0 80CE            04C02 32018                       LCALL OUTFCSI
 004B4C 41D0 D030/982B_      00030 32020                       PEND
 DROP   SCB,R9
 DROP   *,R8
                                   32045
 004B60 50E0 D044/902B_      00044 32046              OUTFRP   PROC
 USING  *,R8
 USING  SCB,R9                     32082                       WITH  SCB
 004B7A 9610 90CC      000CC       32094                       SET   SCBFINV             Reverse video
 004B7E 4DE0 8098            04C02 32100                       LCALL OUTFCSI
 004B82 41D0 D030/982B_      00030 32102                       PEND
 DROP   SCB,R9
 DROP   *,R8
                                   32127
 004B96 50E0 D044/902B_      00044 32128              OUTFRM   PROC
 USING  *,R8
 USING  SCB,R9                     32164                       WITH  SCB
 004BB0 94EF 90CC      000CC       32176                       CLEAR SCBFINV
 004BB4 4DE0 8062            04C02 32183                       LCALL OUTFCSI
 004BB8 41D0 D030/982B_      00030 32185                       PEND
 DROP   SCB,R9
 DROP   *,R8
                                   32210
 004BCC 50E0 D044/902B_      00044 32211              OUTFNORM PROC
 USING  *,R8
 USING  SCB,R9                     32247                       WITH  SCB
 004BE6 9200 90CC      000CC       32259                       CLEAR SCBAFLAG
 004BEA 4DE0 802C            04C02 32266                       LCALL OUTFCSI
 004BEE 41D0 D030/982B_      00030 32268                       PEND
 DROP   SCB,R9
 DROP   *,R8
                                   32293
 004C02 50E0 D044/902B_      00044 32294              OUTFCSI  PROC
 USING  *,R8
 USING  SCB,R9                     32330                       WITH  SCB
1SIFT     (SIFT2047) (12:37) (15MAR04) Subsystem Interface                                                                  Page  130
0Current Usings:  (*,R8) (SCB,R9) (CV,R12)
0Loc    Object Code    Addr1 Addr2  Stmt Lv Lineno    Source Statement           (Hibal 5, Asmedit 3.3)  HLASM R4.0  2004/03/15 12.37
+___    ______ ____    _____ _____  ____ __ ______    ______ _________
0004C1C 9180 915A/47E0_0015A       32342                       IF    SCBFMOD,BEGIN       Only do if model terminal...
 004C24 4110 83C2/4100_      04FCE 32357  1                      SEG   X'27AD'             CSI
 004C34 9500 90CC/4780_000CC       32372  1                      IF    (SCBAFLAG,NZ),BEGIN  Set special attributes...
 004C3C 4110 83DE/4100_      04FEA 32388  2                        SEG   '0'
 004C4C 9180 90CC/47E0_000CC       32403  2                        IF    SCBFBOLD,'SEG ";1"'
 004C64 9140 90CC/47E0_000CC       32438  2                        IF    SCBFUND,'SEG ";4"'
 004C7C 9120 90CC/47E0_000CC       32473  2                        IF    SCBFBLNK,'SEG ";5"'
 004C94 9110 90CC/47E0_000CC       32508  2                        IF    SCBFINV,'SEG ";7"'
 004CAC                            32543  1                      END
 004CAC 4110 83DF/4100_      04FEB 32547  1                      SEG   'm'                 Set graphic rendition
 004CBC                            32562                       END
 004CBC 41D0 D030/982B_      00030 32566                       PEND
 DROP   SCB,R9
 DROP   *,R8
                                   32591
 004CD0 50E0 D044/902B_      00044 32592              OUTFRED  PROC
 USING  *,R8
 USING  SCB,R9                     32628                       WITH  SCB
 004CEA 4110 82FE/4100_      04FD8 32640                       SETMSG '31'                Red
 004CF2 4DE0 8272            04F4C 32644                       LCALL OUTFSEG
 004CF6 41D0 D030/982B_      00030 32646                       PEND
 DROP   SCB,R9
 DROP   *,R8
                                   32671
 004D0A 50E0 D044/902B_      00044 32672              OUTFGR   PROC
 USING  *,R8
 USING  SCB,R9                     32708                       WITH  SCB
 004D24 4110 82C6/4100_      04FDA 32720                       SETMSG '32'                Green
 004D2C 4DE0 8238            04F4C 32724                       LCALL OUTFSEG
 004D30 41D0 D030/982B_      00030 32726                       PEND
 DROP   SCB,R9
 DROP   *,R8
                                   32751
 004D44 50E0 D044/902B_      00044 32752              OUTFYEL  PROC
 USING  *,R8
 USING  SCB,R9                     32788                       WITH  SCB
 004D5E 4110 828E/4100_      04FDC 32800                       SETMSG '33'                Yellow
 004D66 4DE0 81FE            04F4C 32804                       LCALL OUTFSEG
 004D6A 41D0 D030/982B_      00030 32806                       PEND
 DROP   SCB,R9
 DROP   *,R8
                                   32831
 004D7E 50E0 D044/902B_      00044 32832              OUTFBLUE PROC
 USING  *,R8
 USING  SCB,R9                     32868                       WITH  SCB
 004D98 4110 8256/4100_      04FDE 32880                       SETMSG '34'                Blue
 004DA0 4DE0 81C4            04F4C 32884                       LCALL OUTFSEG
 004DA4 41D0 D030/982B_      00030 32886                       PEND
 DROP   SCB,R9
 DROP   *,R8
                                   32911
 004DB8 50E0 D044/902B_      00044 32912              OUTFMAG  PROC
 USING  *,R8
 USING  SCB,R9                     32948                       WITH  SCB
1SIFT     (SIFT2047) (12:37) (15MAR04) Subsystem Interface                                                                  Page  131
0Current Usings:  (*,R8) (SCB,R9) (CV,R12)
0Loc    Object Code    Addr1 Addr2  Stmt Lv Lineno    Source Statement           (Hibal 5, Asmedit 3.3)  HLASM R4.0  2004/03/15 12.37
+___    ______ ____    _____ _____  ____ __ ______    ______ _________
0004DD2 4110 821E/4100_      04FE0 32960                       SETMSG '35'                Magenta
 004DDA 4DE0 818A            04F4C 32964                       LCALL OUTFSEG
 004DDE 41D0 D030/982B_      00030 32966                       PEND
 DROP   SCB,R9
 DROP   *,R8
                                   32991
 004DF2 50E0 D044/902B_      00044 32992              OUTFCYAN PROC
 USING  *,R8
 USING  SCB,R9                     33028                       WITH  SCB
 004E0C 4110 81E6/4100_      04FE2 33040                       SETMSG '36'                Cyan
 004E14 4DE0 8150            04F4C 33044                       LCALL OUTFSEG
 004E18 41D0 D030/982B_      00030 33046                       PEND
 DROP   SCB,R9
 DROP   *,R8
                                   33071
 004E2C 50E0 D044/902B_      00044 33072              OUTFWH   PROC
 USING  *,R8
 USING  SCB,R9                     33108                       WITH  SCB
 004E46 4110 81AE/4100_      04FE4 33120                       SETMSG '37'                White
 004E4E 4DE0 8116            04F4C 33124                       LCALL OUTFSEG
 004E52 41D0 D030/982B_      00030 33126                       PEND
 DROP   SCB,R9
 DROP   *,R8
                                   33151
 004E66 50E0 D044/902B_      00044 33152              OUTFPAGE PROC
 USING  *,R8
 USING  SCB,R9                     33188                       WITH  SCB
 004E80 4110 817C/4100_      04FEC 33200                       SEG   X'0D'
 004E90 4110 817D/4100_      04FED 33215                       SEG   '-- Page -- '       Indicate page eject
 004EA0 D201 90C0 8176 000C0 04FE6 33230                       MVC   SCBOPOS,=H'11'      Set cursor position accurately
 004EA6 41D0 D030/982B_      00030 33231                       PEND
 DROP   SCB,R9
 DROP   *,R8
                                   33256
 004EBA 50E0 D044/902B_      00044 33257              OUTFFPAG PROC
 USING  *,R8
 USING  SCB,R9                     33293                       WITH  SCB
 004ED4 4110 8128/4100_      04FEC 33305                       SEG   X'0D'
 004EE4 4110 8134/4100_      04FF8 33320                       SEG   '-- Front page -- '  Indicate full page eject
 004EF4 D201 90C0 8122 000C0 04FE6 33335                       MVC   SCBOPOS,=H'11'      Set cursor position accurately
 004EFA 41D0 D030/982B_      00030 33336                       PEND
 DROP   SCB,R9
 DROP   *,R8
                                   33361
 004F0E 50E0 D044/902B_      00044 33362              OUTFBELL PROC
 USING  *,R8
 USING  SCB,R9                     33398                       WITH  SCB
 004F28 4110 80F1/4100_      05009 33410                       SEG   X'2F'               Bell character
 004F38 41D0 D030/982B_      00030 33425                       PEND
 DROP   SCB,R9
 DROP   *,R8
                                   33450
 004F4C 50E0 D044/902B_      00044 33451              OUTFSEG  PROC
 USING  *,R8
1SIFT     (SIFT2047) (12:37) (15MAR04) Subsystem Interface                                                                  Page  132
0Current Usings:  (*,R8) (SCB,R9) (CV,R12)
0Loc    Object Code    Addr1 Addr2  Stmt Lv Lineno    Source Statement           (Hibal 5, Asmedit 3.3)  HLASM R4.0  2004/03/15 12.37
+___    ______ ____    _____ _____  ____ __ ______    ______ _________
0USING  SCB,R9                     33487                       WITH  SCB
 004F66 9180 915A/47E0_0015A       33499                       IF    SCBFMOD,BEGIN       Only do if model terminal...
 004F6E 9001 D040/4BD0_      00040 33514  1                      PUSH  (R0,R1)
 004F7E 4110 8078/4100_      04FCE 33522  1                      SEG   X'27AD'             CSI
 004F8E 41D0 D00C/9801_      0000C 33537  1                      POP   (R0,R1)
 004F9A 18F7/58E0 8072_            33544  1                      SEG   (R1),(R0)
 004FA2 4110 8095/4100_      04FEB 33565  1                      SEG   'm'                 Set graphic rendition
 004FB2                            33580                       END
 004FB2 41D0 D030/982B_      00030 33584                       PEND
 DROP   SCB,R9
 DROP   *,R8
                                   33609
                                   33610                       SEGDEF DUMMY              (Neatness)
                                   33611
                                   33612                       QLTORG
1SIFT     (SIFT2047) (12:37) (15MAR04) Subsystem Interface                                                                  Page  133
0Current Usings:  (CV,R12)
0Loc    Object Code    Addr1 Addr2  Stmt Lv Lineno    Source Statement           (Hibal 5, Asmedit 3.3)  HLASM R4.0  2004/03/15 12.37
+___    ______ ____    _____ _____  ____ __ ______    ______ _________
0                                  33647              ¿þþþþþþþþþþþþþþþþþþþþþþþþþþþþþþþþþþþþþþþþþþþþþþþþþþþþþþþþþþþþþþþþþþþþþÜ
                                   33648              Ÿ                                                                     Ÿ
                                   33649              Ÿ        The Special Character processing table is defined            Ÿ
                                   33650              Ÿ          with the FCHAR macro.  The format is:                      Ÿ
                                   33651              Ÿ                                                                     Ÿ
                                   33652              Ÿ              FCHAR  sequence,                                       Ÿ
                                   33653              Ÿ                       TEXT='plain text string to use',              Ÿ
                                   33654              Ÿ                       ALT='x'   "x" is the character in the         Ÿ
                                   33655              Ÿ                                 (Samson) alternate character        Ÿ
                                   33656              Ÿ                                 set.                                Ÿ
                                   33657              Ÿ                       CASE={ANY|UPPER|LOWER}                        Ÿ
                                   33658              Ÿ                                 Specifies that the sequence         Ÿ
                                   33659              Ÿ                                 must be in upper, lower or          Ÿ
                                   33660              Ÿ                                 any case.                           Ÿ
                                   33661              Ÿ                                                                     Ÿ
                                                      ¾þþþþþþþþþþþþþþþþþþþþþþþþþþþþþþþþþþþþþþþþþþþþþþþþþþþþþþþþþþþþþþþþþþþþþ»
0                                  33662                       MACRO
                                   33663              &L       FCHAR &CHARS,&RTN=0,&TEXT=,&ALT=,&CASE=ANY
                                   33664                       GBLA  &FCHARCNT
                                   33665                       GBLC  &FCHARLAB
                                   33666              &L       DS    0F
                                   33667
                                   33668                       AIF   ('&CHARS' EQ '').ENDTAB
                                   33669              .*
                                   33670              &FCHARLAB LABEL
                                   33671              &CHLAB   SETC  '$$$FCHAR&FCHARCNT'
                                   33672              .*
                                   33673              &FCHARCNT SETA &FCHARCNT+1
                                   33674              &FCHARLAB SETC '$$$FCHAR&FCHARCNT'
                                   33675              .*
                                   33676                       DC    A(&FCHARLAB)        Next FCHAR entry ptr
                                   33677              .*
                                   33678                       DC    AL1(L'FCHARF&CASE)  Case flag
                                   33679              .*
                                   33680                       AIF   ('&ALT' EQ '').ALTNONE
                                   33681                       DC    AL1(C&ALT)          Alternate character
                                   33682                       AGO   .ALTCOM
                                   33683              .ALTNONE DC    AL1(0)              No alternate character
                                   33684              .ALTCOM  ANOP
                                   33685              .*
                                   33686                       DC    AL2(0)              Reserved
                                   33687              .*
                                   33688                       DC    A(&RTN)             Processing routine addr
                                   33689              .*
                                   33690                       DC    AL1(L'&CHLAB.C)
                                   33691              &CHLAB.C DC    C&CHARS             Character string user types
                                   33692                       AIF   ('&TEXT' NE '').GOTTEXT
                                   33693                       DC    AL1(0)              No text we can display
                                   33694                       AGO   .TEXTCOM
                                   33695              .GOTTEXT ANOP
                                   33696                       DC    AL1(L'&CHLAB.T)
                                   33697              &CHLAB.T DC    C&TEXT              Character string we display
                                   33698              .TEXTCOM ANOP
1SIFT     (SIFT2047) (12:37) (15MAR04) Subsystem Interface                                                                  Page  134
0Current Usings:  (CV,R12)
0Loc    Object Code    Addr1 Addr2  Stmt Lv Lineno    Source Statement           (Hibal 5, Asmedit 3.3)  HLASM R4.0  2004/03/15 12.37
+___    ______ ____    _____ _____  ____ __ ______    ______ _________
0                                  33699              .*
                                   33700                       MEXIT
                                   33701              .*
                                   33702              .ENDTAB  ANOP
                                   33703              &FCHARLAB EQU  0                   End of table
                                   33704                       MEND
1SIFT     (SIFT2047) (12:37) (15MAR04) Subsystem Interface                                                                  Page  135
0Current Usings:  (CV,R12)
0Loc    Object Code    Addr1 Addr2  Stmt Lv Lineno    Source Statement           (Hibal 5, Asmedit 3.3)  HLASM R4.0  2004/03/15 12.37
+___    ______ ____    _____ _____  ____ __ ______    ______ _________
0                                  33706              ¿þþþþþþþþþþþþþþþþþþþþþþþþþþþþþþþþþþþþþþþþþþþþþþþþþþþþþþþþþþþþþþþþþþþþþÜ
                                   33707              Ÿ                                                                     Ÿ
                                   33708              Ÿ        Table of special characters.                                 Ÿ
                                   33709              Ÿ                                                                     Ÿ
                                                      ¾þþþþþþþþþþþþþþþþþþþþþþþþþþþþþþþþþþþþþþþþþþþþþþþþþþþþþþþþþþþþþþþþþþþþþ»
000500C 00005020/00/00/0_          33710              FCHARTBL FCHAR '.b+',RTN=OUTFBP                    Bold on
 005020 00005034/00/00/0_          33722                       FCHAR '.b-',RTN=OUTFBM                     " " off
 005034 00005048/00/00/0_          33735                       FCHAR '.i+',RTN=OUTFIP                    Italics/Inverse
 005048 0000505C/00/00/0_          33748                       FCHAR '.i-',RTN=OUTFIM                     " " off
 00505C 00005070/00/00/0_          33761                       FCHAR '.u+',RTN=OUTFUP                    Underline on
 005070 00005084/00/00/0_          33774                       FCHAR '.u-',RTN=OUTFUM                     " " off
 005084 00005098/00/00/0_          33787                       FCHAR '.f+',RTN=OUTFFP                    Flashing on
 005098 000050AC/00/00/0_          33800                       FCHAR '.f-',RTN=OUTFFM                     " " off
 0050AC 000050C0/00/00/0_          33813                       FCHAR '.r+',RTN=OUTFRP                    Reverse on
 0050C0 000050D4/00/00/0_          33826                       FCHAR '.r-',RTN=OUTFRM                     " " off
 0050D4 000050E8/00/00/0_          33839                       FCHAR '.page',RTN=OUTFPAGE                New page
 0050E8 000050FC/00/00/0_          33852                       FCHAR '.front',RTN=OUTFFPAG               New front page
 0050FC 00005114/00/00/0_          33865                       FCHAR '.frontpage',RTN=OUTFFPAG            " "
 005114 0000512C/00/00/0_          33878                       FCHAR '.normal',RTN=OUTFNORM              Reset bold, etc.
 00512C 00005140/00/00/0_          33891                       FCHAR '.bell',RTN=OUTFBELL                Bell
                                   33904
 005140 00005154/00/00/0_          33905                       FCHAR '.red',RTN=OUTFRED                  Red
 005154 00005168/00/00/0_          33918                       FCHAR '.red+',RTN=OUTFRED                 " "
 005168 0000517C/00/00/0_          33931                       FCHAR '.red-',RTN=OUTFWH                  " "
 00517C 00005190/00/00/0_          33944                       FCHAR '.green',RTN=OUTFGR                 Green
 005190 000051A8/00/00/0_          33957                       FCHAR '.green+',RTN=OUTFGR                " "
 0051A8 000051C0/00/00/0_          33970                       FCHAR '.green-',RTN=OUTFWH                " "
 0051C0 000051D8/00/00/0_          33983                       FCHAR '.yellow ',RTN=OUTFYEL              Yellow
 0051D8 000051F0/00/00/0_          33996                       FCHAR '.yellow+',RTN=OUTFYEL              " "
 0051F0 00005208/00/00/0_          34009                       FCHAR '.yellow-',RTN=OUTFWH               " "
 005208 0000521C/00/00/0_          34022                       FCHAR '.blue',RTN=OUTFBLUE                Blue
 00521C 00005230/00/00/0_          34035                       FCHAR '.blue+',RTN=OUTFBLUE               " "
 005230 00005244/00/00/0_          34048                       FCHAR '.blue-',RTN=OUTFWH                 " "
 005244 0000525C/00/00/0_          34061                       FCHAR '.magenta',RTN=OUTFMAG             Magenta
 00525C 00005274/00/00/0_          34074                       FCHAR '.magenta+',RTN=OUTFMAG             " "
 005274 0000528C/00/00/0_          34087                       FCHAR '.magenta-',RTN=OUTFWH              " "
 00528C 000052A0/00/00/0_          34100                       FCHAR '.cyan',RTN=OUTFCYAN                Cyan
 0052A0 000052B4/00/00/0_          34113                       FCHAR '.cyan+',RTN=OUTFCYAN               " "
 0052B4 000052C8/00/00/0_          34126                       FCHAR '.cyan-',RTN=OUTFWH                 " "
 0052C8 000052DC/00/00/0_          34139                       FCHAR '.white',RTN=OUTFWH                 White
 0052DC 000052F4/00/00/0_          34152                       FCHAR '.white+',RTN=OUTFWH                " "
 0052F4 0000530C/00/00/0_          34165                       FCHAR '.white-',RTN=OUTFWH                " "
                                   34178
                                   34179                       COPY  FCHARSYM            Common Wylbur/Milten spec. symbols
                                   34180=            =         ¿þþþþþþþþþþþþþþþþþþþþþþþþþþþþþþþþþþþþþþþþþþþþþþþþþþþþþþþþþþþÜ
                                   34181=            =         Ÿ  List of special symbols, used in both Wylbur (UTIL) and  Ÿ
                                   34182=            =         Ÿ    MILTEN (SIFT).                                         Ÿ
                                   34183=            =         Ÿ                                                           Ÿ
                                   34184=            =         Ÿ    Revision 1, 10/29/90, JNK                              Ÿ
                                   34185=            =         ¾þþþþþþþþþþþþþþþþþþþþþþþþþþþþþþþþþþþþþþþþþþþþþþþþþþþþþþþþþþþ»
 00530C 00005320/00/00/0_          34186             =         FCHAR ':^',TEXT='^'                       Small circumflex
 005320 00005338/00/C9/0_          34200             =         FCHAR ':...',TEXT='...',ALT='I'           Ellipsis
 005338 0000534C/00/F1/0_          34214             =         FCHAR ':+-',TEXT='+/-',ALT='1'            Plus-or-minus
1SIFT     (SIFT2047) (12:37) (15MAR04) Subsystem Interface                                                                  Page  136
0Current Usings:  (CV,R12)
0Loc    Object Code    Addr1 Addr2  Stmt Lv Lineno    Source Statement           (Hibal 5, Asmedit 3.3)  HLASM R4.0  2004/03/15 12.37
+___    ______ ____    _____ _____  ____ __ ______    ______ _________
000534C 00005360/00/C1/0_          34228             =         FCHAR ':!~',TEXT='!',ALT='A'              Upside-down !
 005360 00005374/00/C5/0_          34242             =         FCHAR ':~~',TEXT='~~',ALT='E'             Approximately
 005374 00005388/00/00/0_          34256             =         FCHAR ':~',TEXT='~'                       Small tilde
 005388 0000539C/00/60/0_          34270             =         FCHAR ':~=',TEXT='~=',ALT='-'             Not-equal sign
 00539C 000053B8/00/00/0_          34284             =         FCHAR ':%%',TEXT='<per 1000>'             Per-thousand
 0053B8 000053CC/00/7C/0_          34298             =         FCHAR ':?~',TEXT='?',ALT='@'              Upside-down ?
 0053CC 000053E0/00/4E/0_          34312             =         FCHAR ':''',TEXT='''',ALT='+'             Acute accent
 0053E0 000053F4/02/00/0_          34326             =         FCHAR ':a^',TEXT='a',CASE=LOWER           a-circumflex
 0053F4 00005408/02/00/0_          34340             =         FCHAR ':a~',TEXT='a',CASE=LOWER           a-tilde
 005408 0000541C/00/5E/0_          34354             =         FCHAR ':a_',TEXT='a',ALT=';'              a superscript,ul
 00541C 00005430/02/00/0_          34368             =         FCHAR ':a`',TEXT='a',CASE=LOWER           a-grave
 005430 00005444/02/00/0_          34382             =         FCHAR ':a:',TEXT='a',CASE=LOWER           a-umlaut
 005444 00005458/02/00/0_          34396             =         FCHAR ':a''',TEXT='a',CASE=LOWER          a-acute
 005458 0000546C/02/6E/0_          34410             =         FCHAR ':ae',TEXT='ae',ALT='>',CASE=LOWER  ae ligature
 00546C 00005480/02/00/0_          34424             =         FCHAR ':ao',TEXT='a',CASE=LOWER           a-ring
 005480 00005498/00/00/0_          34438             =         FCHAR ':base''',TEXT=','                  Base '
 005498 000054B0/00/00/0_          34452             =         FCHAR ':base"',TEXT=',,'                  Base "
 0054B0 000054C8/00/81/0_          34466             =         FCHAR ':blotch',TEXT='X',ALT='a'          Checkerboard pattern
 0054C8 000054E4/00/00/0_          34480             =         FCHAR ':breve',TEXT='<breve>'             Breve
 0054E4 000054FC/00/6C/0_          34494             =         FCHAR ':bullet',TEXT='*',ALT='%'          Bullet
 0054FC 00005510/02/00/0_          34508             =         FCHAR ':c,',TEXT='c',CASE=LOWER           C cedilla
 005510 0000552C/00/00/0_          34522             =         FCHAR ':caron',TEXT='<caron>'             Caron (inv. accent)
 00552C 00005544/00/00/0_          34536             =         FCHAR ':cedilla',TEXT=','                 Cedilla
 005544 00005560/00/7F/0_          34550             =         FCHAR ':cent',TEXT='<cent>',ALT='"'       Cent sign
 005560 0000557C/00/5D/0_          34564             =         FCHAR ':copyright',TEXT='(c)',ALT=')'     Copyright
 00557C 00005594/00/84/0_          34578             =         FCHAR ':cr',TEXT='<CR>',ALT='d'           CR=carriage return
 005594 000055B4/00/F6/0_          34592             =         FCHAR ':curly_d',TEXT='<curly_d>',ALT='6' Curly d
 0055B4 000055D8/00/00/0_          34606             =         FCHAR ':currency',TEXT='<currency>'       Currency
 0055D8 000055F8/00/00/0_          34620             =         FCHAR ':dagger',TEXT='<dagger>'           Dagger
 0055F8 00005620/00/00/0_          34634             =         FCHAR ':dbl_dagger',TEXT='<dbl_dagger>'   Dbl dagger
 005620 0000563C/00/5A/0_          34648             =         FCHAR ':deg',ALT='!',TEXT='<degree>'      Degree sign
 00563C 00005650/00/E5/0_          34662             =         FCHAR ':div',TEXT='/',ALT='V'             Division sign
 005650 00005668/00/00/0_          34676             =         FCHAR ':dot',TEXT='<dot>'                 Dot accent
 005668 00005684/00/00/0_          34690             =         FCHAR ':dotless_i',TEXT='i'               Dotless-i
 005684 00005698/02/00/0_          34704             =         FCHAR ':e^',TEXT='e',CASE=LOWER           e-circumflex
 005698 000056AC/02/00/0_          34718             =         FCHAR ':e`',TEXT='e',CASE=LOWER           e-grave
 0056AC 000056C0/02/00/0_          34732             =         FCHAR ':e:',TEXT='e',CASE=LOWER           e-umlaut
 0056C0 000056D4/02/00/0_          34746             =         FCHAR ':e''',TEXT='e',CASE=LOWER          e-acute
 0056D4 000056EC/00/D8/0_          34760             =         FCHAR ':em_dash',TEXT='--',ALT='Q'        Em dash
 0056EC 00005704/00/D7/0_          34774             =         FCHAR ':en_dash',TEXT='-',ALT='P'         En dash
 005704 00005718/00/C4/0_          34788             =         FCHAR ':f',TEXT='f',ALT='D'               Florin / Function
 005718 00005730/00/83/0_          34802             =         FCHAR ':ff',TEXT='<FF>',ALT='c'           FF  form feed
 005730 00005744/00/00/0_          34816             =         FCHAR ':fi',TEXT='fi'                     fi ligature
 005744 00005758/00/00/0_          34830             =         FCHAR ':fl',TEXT='fl'                     fl ligature
 005758 00005770/00/00/0_          34844             =         FCHAR ':fraction',TEXT='/'                Fraction
 005770 00005784/00/F3/0_          34858             =         FCHAR ':ge',TEXT='>=',ALT='3'             > or =
 005784 000057A0/00/00/0_          34872             =         FCHAR ':h_umlaut',TEXT='<>'               h_umlaut
 0057A0 000057B8/00/82/0_          34886             =         FCHAR ':ht',TEXT='<HT>',ALT='b'           HT=horizontal tab
 0057B8 000057CC/02/00/0_          34900             =         FCHAR ':i^',TEXT='i',CASE=LOWER           i-circumflex
 0057CC 000057E0/02/00/0_          34914             =         FCHAR ':i`',TEXT='i',CASE=LOWER           i-grave
 0057E0 000057F4/02/00/0_          34928             =         FCHAR ':i:',TEXT='i',CASE=LOWER           i-umlaut
 0057F4 00005808/02/00/0_          34942             =         FCHAR ':i''',TEXT='i',CASE=LOWER          i-acute
 005808 0000582C/00/F0/0_          34956             =         FCHAR ':infinity',TEXT='<infinity>',ALT='0'  Infinity
 00582C 00005850/00/7A/0_          34970             =         FCHAR ':integral',TEXT='<Integral>',ALT=':'  Integration
1SIFT     (SIFT2047) (12:37) (15MAR04) Subsystem Interface                                                                  Page  137
0Current Usings:  (CV,R12)
0Loc    Object Code    Addr1 Addr2  Stmt Lv Lineno    Source Statement           (Hibal 5, Asmedit 3.3)  HLASM R4.0  2004/03/15 12.37
+___    ______ ____    _____ _____  ____ __ ______    ______ _________
0005850 00005864/00/E3/0_          34984             =         FCHAR ':l''',TEXT='''',ALT='T'            Left '
 005864 0000587C/00/00/0_          34998             =         FCHAR ':l''euro',TEXT='<'                 Left European '
 00587C 00005890/00/D9/0_          35012             =         FCHAR ':l"',TEXT='"',ALT='R'              Left "
 005890 000058A8/00/C7/0_          35026             =         FCHAR ':l"euro',TEXT='<<',ALT='G'         Left European "
 0058A8 000058BC/00/F2/0_          35040             =         FCHAR ':le',TEXT='<=',ALT='2'             < or =
 0058BC 000058D4/00/85/0_          35054             =         FCHAR ':lf',TEXT='<LF>',ALT='e'           LF  line feed
 0058D4 000058EC/00/E6/0_          35068             =         FCHAR ':lozenge',TEXT='<>',ALT='W'        Diamond
 0058EC 00005904/00/00/0_          35082             =         FCHAR ':macron',TEXT='-'                  Macron (horiz bar)
 005904 0000591C/02/F5/0_          35096             =         FCHAR ':mu',TEXT='<mu>',ALT='5',CASE=LOWER   mu
 00591C 00005930/02/00/0_          35110             =         FCHAR ':n~',TEXT='n',CASE=LOWER           n-tilde
 005930 00005948/00/88/0_          35124             =         FCHAR ':nl',TEXT='<NL>',ALT='h'           NL=new line
 005948 0000595C/00/C2/0_          35138             =         FCHAR ':not',TEXT='~',ALT='B'             Not
 00595C 00005970/02/00/0_          35152             =         FCHAR ':o^',TEXT='o',CASE=LOWER           o-circumflex
 005970 00005984/02/00/0_          35166             =         FCHAR ':o~',TEXT='o',CASE=LOWER           o-tilde
 005984 00005998/02/6F/0_          35180             =         FCHAR ':o/',TEXT='o',ALT='?',CASE=LOWER   o-thorn
 005998 000059AC/00/4C/0_          35194             =         FCHAR ':o_',TEXT='o',ALT='<'              o superscript,ul
 0059AC 000059C0/02/00/0_          35208             =         FCHAR ':o`',TEXT='o',CASE=LOWER           o-grave
 0059C0 000059D4/02/00/0_          35222             =         FCHAR ':o:',TEXT='o',CASE=LOWER           o-umlaut
 0059D4 000059E8/02/00/0_          35236             =         FCHAR ':o''',TEXT='o',CASE=LOWER          o-acute
 0059E8 000059FC/02/D6/0_          35250             =         FCHAR ':oe',TEXT='oe',ALT='O',CASE=LOWER  oe ligature
 0059FC 00005A14/00/00/0_          35264             =         FCHAR ':ogonek',TEXT='?'                  ogonek
 005A14 00005A34/00/50/0_          35278             =         FCHAR ':para',TEXT='<paragraph>',ALT='&&'  Paragraph
 005A34 00005A4C/02/F9/0_          35292             =         FCHAR ':pi',TEXT='<pi>',ALT='9',CASE=LOWER  pi
 005A4C 00005A60/00/E4/0_          35306             =         FCHAR ':r''',TEXT='''',ALT='U'            Right '
 005A60 00005A78/00/00/0_          35320             =         FCHAR ':r''euro',TEXT='>'                 Right European '
 005A78 00005A8C/00/E2/0_          35334             =         FCHAR ':r"',TEXT='"',ALT='S'              Right "
 005A8C 00005AA4/00/C8/0_          35348             =         FCHAR ':r"euro',TEXT='>>',ALT='H'         Right European "
 005AA4 00005AC4/00/C3/0_          35362             =         FCHAR ':radical',TEXT='<radical>',ALT='C' Radical
 005AC4 00005AE0/00/4D/0_          35376             =         FCHAR ':regmark',TEXT='(R)',ALT='('       Registered tm
 005AE0 00005AFC/00/00/0_          35390             =         FCHAR ':ring',TEXT='<ring>'               angstrom ring
 005AFC 00005B1C/00/5B/0_          35404             =         FCHAR ':section',TEXT='<section>',ALT='$' Section
 005B1C 00005B38/00/5F/0_          35418             =         FCHAR ':sm_bullet',TEXT='-',ALT='~'       Small bullet
 005B38 00005B4C/00/00/0_          35432             =         FCHAR ':sp',TEXT=' '                      Non-trivial space
 005B4C 00005B60/00/7D/0_          35446             =         FCHAR ':ss',TEXT='ss',ALT=''''            German ss
 005B60 00005B78/00/5C/0_          35460             =         FCHAR ':tm',TEXT='(tm)',ALT='*'           Trademark
 005B78 00005B8C/02/00/0_          35474             =         FCHAR ':u^',TEXT='u',CASE=LOWER           u-circumflex
 005B8C 00005BA0/02/00/0_          35488             =         FCHAR ':u`',TEXT='u',CASE=LOWER           u-grave
 005BA0 00005BB4/02/00/0_          35502             =         FCHAR ':u:',TEXT='u',CASE=LOWER           u-umlaut
 005BB4 00005BC8/02/00/0_          35516             =         FCHAR ':u''',TEXT='u',CASE=LOWER          u-acute
 005BC8 00005BE8/00/7B/0_          35530             =         FCHAR ':ukpound',TEXT='<UKpound>',ALT='#' British pound sign
 005BE8 00005C08/00/6B/0_          35544             =         FCHAR ':umlaut',TEXT='<umlaut>',ALT=','   Umlaut
 005C08 00005C20/00/89/0_          35558             =         FCHAR ':vt',TEXT='<VT>',ALT='i'           VT=vertical tab
 005C20 00005C34/02/E7/0_          35572             =         FCHAR ':y:',TEXT='y',ALT='X',CASE=LOWER   y-umlaut
 005C34 00005C4C/00/F4/0_          35586             =         FCHAR ':yen',TEXT='<yen>',ALT='4'         Yen sign
 005C4C 00005C60/01/00/0_          35600             =         FCHAR ':A^',TEXT='A',CASE=UPPER           A-circumflex
 005C60 00005C74/01/D3/0_          35614             =         FCHAR ':A~',TEXT='A',ALT='L',CASE=UPPER   A-tilde
 005C74 00005C88/01/D2/0_          35628             =         FCHAR ':A`',TEXT='A',ALT='K',CASE=UPPER   A-grave
 005C88 00005C9C/01/00/0_          35642             =         FCHAR ':A:',TEXT='A',CASE=UPPER           A-umlaut
 005C9C 00005CB0/01/00/0_          35656             =         FCHAR ':A''',TEXT='A',CASE=UPPER          A-acute
 005CB0 00005CC4/01/00/0_          35670             =         FCHAR ':Ao',TEXT='A',CASE=UPPER           A-ring
 005CC4 00005CE0/00/00/0_          35684             =         FCHAR ':Apple',TEXT='<Apple>'             Apple logo
 005CE0 00005CF4/01/4B/0_          35698             =         FCHAR ':AE',TEXT='AE',ALT='.',CASE=UPPER  AE ligature
 005CF4 00005D08/01/00/0_          35712             =         FCHAR ':C,',TEXT='C',CASE=UPPER           C cedilla
 005D08 00005D24/00/C6/0_          35726             =         FCHAR ':Delta',TEXT='<Delta>',ALT='F'     Delta
1SIFT     (SIFT2047) (12:37) (15MAR04) Subsystem Interface                                                                  Page  138
0Current Usings:  (CV,R12)
0Loc    Object Code    Addr1 Addr2  Stmt Lv Lineno    Source Statement           (Hibal 5, Asmedit 3.3)  HLASM R4.0  2004/03/15 12.37
+___    ______ ____    _____ _____  ____ __ ______    ______ _________
0005D24 00005D38/01/00/0_          35740             =         FCHAR ':E^',TEXT='E',CASE=UPPER           E-circumflex
 005D38 00005D4C/01/00/0_          35754             =         FCHAR ':E`',TEXT='E',CASE=UPPER           E-grave
 005D4C 00005D60/01/00/0_          35768             =         FCHAR ':E:',TEXT='E',CASE=UPPER           E-umlaut
 005D60 00005D74/01/00/0_          35782             =         FCHAR ':E''',TEXT='E',CASE=UPPER          E-acute
 005D74 00005D88/01/00/0_          35796             =         FCHAR ':I^',TEXT='I',CASE=UPPER           I-circumflex
 005D88 00005D9C/01/00/0_          35810             =         FCHAR ':I`',TEXT='I',CASE=UPPER           I-grave
 005D9C 00005DB0/01/00/0_          35824             =         FCHAR ':I:',TEXT='I',CASE=UPPER           I-umlaut
 005DB0 00005DC4/01/00/0_          35838             =         FCHAR ':I''',TEXT='I',CASE=UPPER          I-acute
 005DC4 00005DD8/01/00/0_          35852             =         FCHAR ':N~',TEXT='N',CASE=UPPER           N-tilde
 005DD8 00005DEC/01/00/0_          35866             =         FCHAR ':O^',TEXT='O',CASE=UPPER           O-circumflex
 005DEC 00005E00/01/D4/0_          35880             =         FCHAR ':O~',TEXT='O',ALT='M',CASE=UPPER   O-tilde
 005E00 00005E14/01/61/0_          35894             =         FCHAR ':O/',TEXT='O',ALT='/',CASE=UPPER   O-thorn
 005E14 00005E28/01/00/0_          35908             =         FCHAR ':O`',TEXT='O',CASE=UPPER           O-grave
 005E28 00005E3C/01/00/0_          35922             =         FCHAR ':O:',TEXT='O',CASE=UPPER           O-umlaut
 005E3C 00005E50/01/00/0_          35936             =         FCHAR ':O''',TEXT='O',CASE=UPPER          O-acute
 005E50 00005E6C/00/7E/0_          35950             =         FCHAR ':Omega',TEXT='<Omega>',ALT='='     Omega
 005E6C 00005E80/01/D5/0_          35964             =         FCHAR ':OE',TEXT='OE',ALT='N',CASE=UPPER  OE ligature
 005E80 00005E98/01/F8/0_          35978             =         FCHAR ':Pi',TEXT='<Pi>',ALT='8',CASE=UPPER  Pi
 005E98 00005EB4/00/F7/0_          35992             =         FCHAR ':Sigma',TEXT='<Sigma>',ALT='7'     Sigma
 005EB4 00005EC8/01/00/0_          36006             =         FCHAR ':U^',TEXT='U',CASE=UPPER           U-circumflex
 005EC8 00005EDC/01/00/0_          36020             =         FCHAR ':U`',TEXT='U',CASE=UPPER           U-grave
 005EDC 00005EF0/01/00/0_          36034             =         FCHAR ':U:',TEXT='U',CASE=UPPER           U-umlaut
 005EF0 00005F04/01/00/0_          36048             =         FCHAR ':U''',TEXT='U',CASE=UPPER          U-acute
 005F04 00005F18/01/00/0_          36062             =         FCHAR ':Y:',TEXT='Y',CASE=UPPER           Y-umlaut
 005F18 00005F30/00/00/0_          36076             =         FCHAR ':1/2',TEXT='1/2'                   1/2 half
 005F30 00000000/00/00/0_          36090             =         FCHAR ':1/4',TEXT='1/4'                   1/4 quarter
                                   36104
 005F48                            36105                       FCHAR ,                                   *** End of Table ***
1SIFT     (SIFT2047) (12:37) (15MAR04) Subsystem Interface                                                                  Page  139
0Current Usings:  (CV,R12)
0Loc    Object Code    Addr1 Addr2  Stmt Lv Lineno    Source Statement           (Hibal 5, Asmedit 3.3)  HLASM R4.0  2004/03/15 12.37
+___    ______ ____    _____ _____  ____ __ ______    ______ _________
0                                  36110              ¿þþþþþþþþþþþþþþþþþþþþþþþþþþþþþþþþþþþþþþþþþþþþþþþþþþþþþþþþþþþþþþþþþþþþþÜ
                                   36111              Ÿ                                                                     Ÿ
                                   36112              Ÿ  FINDXLE -- Routine to find the XLE entry for this session.         Ÿ
                                   36113              Ÿ                                                                     Ÿ
                                   36114              Ÿ    On exit, R15 (and CC):                                           Ÿ
                                   36115              Ÿ      0  - no XLE                                                    Ÿ
                                   36116              Ÿ      nz - XLE ptr                                                   Ÿ
                                   36117              Ÿ                                                                     Ÿ
                                                      ¾þþþþþþþþþþþþþþþþþþþþþþþþþþþþþþþþþþþþþþþþþþþþþþþþþþþþþþþþþþþþþþþþþþþþþ»
0005F48 50E0 D044/902B_      00044 36118              FINDXLE  PROC
 USING  *,R8
 USING  SCB,R9                     36154                       WITH  SCB                 (Entry assumption)
                                   36166
 005F62 D607 916E 916E_0016E 0016E 36167                       IF    (SCBCHAR,Z),BEGIN  no user translation...
 005F6C D703 9010 9010 00010 00010 36183  1                      CLEAR SCBXLEP
 005F72 47F0 8088            05FDA 36190  1                      B     FXLEXIT
 005F76                            36191                       END
                                   36195
 005F76 9504 90FC/4770_000FC       36196                       IF    (SCBTVTAM,AND,(SCBCHAR,EQ,'APL')),BEGIN  no APL xl...
 005F88 D703 9010 9010 00010 00010 36227  1                      CLEAR SCBXLEP
 005F8E 47F0 8088            05FDA 36234  1                      B     FXLEXIT
 005F92                            36235                       END
                                   36239
 005F92 5870 9010/1277       00010 36240                       LT    R7,SCBXLEP
 005F98 4780 8054/D507_      05FA6 36244                       IF    (Z,OR,(SCBCHAR,NE,@R7)),BEGIN
 005FA6 4160 C392            00392 36271  1                      LA    R6,CVXLTBL
 005FAA 4170 C482            00482 36272  1                      LA    R7,CVXLTBE
 005FAE 1967/47B0 807C             36273  1                      WHILE (R6,LT,R7),BEGIN
 005FB4 D507 916E 6000_0016E 00000 36290  2                        IF    (SCBCHAR,EQ,@R6),BEGIN
 005FBE 5060 9010            00010 36307  3                          ST    R6,SCBXLEP
 005FC2 47F0 8088            05FDA 36308  3                          B     FXLEXIT
 005FC6                            36309  2                        END
 005FC6 4160 6002            00002 36313  2                        LA    R6,@R6+2            Next xle
 005FCA 47F0 805C            05FAE 36314  1                      END
 005FCE D707 916E 916E_0016E 0016E 36319  1                      CLEAR SCBCHAR,SCBXLEP     Reset (table not found)
 005FDA                            36331                       END
 005FDA 58F0 9010/12FF       00010 36335              FXLEXIT  LT    R15,SCBXLEP         Xle entry (in cv)
 005FE0 4780 8096/58F0_      05FE8 36339                       IF    NZ,'L R15,@R15+8'   Xle ptr
 005FE8 41D0 D030/982B_      00030 36356                       PEND
 DROP   SCB,R9
 DROP   *,R8
1SIFT     (SIFT2047) (12:37) (15MAR04) Subsystem Interface                                                                  Page  140
0Current Usings:  (CV,R12)
0Loc    Object Code    Addr1 Addr2  Stmt Lv Lineno    Source Statement           (Hibal 5, Asmedit 3.3)  HLASM R4.0  2004/03/15 12.37
+___    ______ ____    _____ _____  ____ __ ______    ______ _________
0000000                00000 0000C 36382              XLTWA    RECORD BEGIN
 000000                            36390  1           XLTPTRS    DS    2A                  Text loc, len
 000008                            36391  1           XLTRC      DS    F                   Return code
 00000C                0000C 0000C 36392                       END
-                                  36402              ¿þþþþþþþþþþþþþþþþþþþþþþþþþþþþþþþþþþþþþþþþþþþþþþþþþþþþþþþþþþþþþþþþþþþþþÜ
                                   36403              Ÿ                                                                     Ÿ
                                   36404              Ÿ  XLTEXT -- Routine to translate text.                               Ÿ
                                   36405              Ÿ                                                                     Ÿ
                                   36406              Ÿ    On entry:                                                        Ÿ
                                   36407              Ÿ      R1,R0 - text loc, len                                          Ÿ
                                   36408              Ÿ      R15 - 512 byte tr/trt table (see "XLE")                        Ÿ
                                   36409              Ÿ                                                                     Ÿ
                                   36410              Ÿ    On exit:                                                         Ÿ
                                   36411              Ÿ      R1,R0 - text loc, len (len may have changed)                   Ÿ
                                   36412              Ÿ      R15 (and CC):                                                  Ÿ
                                   36413              Ÿ        0 - ok                                                       Ÿ
                                   36414              Ÿ        4 - invalid char(s) found                                    Ÿ
                                   36415              Ÿ                                                                     Ÿ
                                                      ¾þþþþþþþþþþþþþþþþþþþþþþþþþþþþþþþþþþþþþþþþþþþþþþþþþþþþþþþþþþþþþþþþþþþþþ»
0005FFC 50E0 D044/902B_      00044 36416              XLTEXT   PROC  XLTWA
 USING  *,R8
 USING  XLTWA-@@,R13
 006016 D70B D04C D04C 00000 00000 36463                       CLEAR XLTWA
 00601C 187F                       36470                       LR    R7,R15              Xle portion
 00601E 9001 D04C            00000 36471                       STM   R0,R1,XLTPTRS       Save text ptrs
 006022 1200/47D0 80C4             36472                       IF    (R0,NP),XLTEXIT
                                   36489
 006028 9856 D04C            00000 36490                       LM    R5,R6,XLTPTRS
 00602C 18F5                       36491              XLTRTLP  LR    R15,R5
 00602E 59F0 8402/47D0_      06408 36492                       CEIL  R15,256
 00603A 411F 6000            00000 36511                       LA    R1,@R6(R15)
 00603E 1B22                       36512                       CLEAR R2
 006040 06F0/44F0 8442_            36516                       DEX   R15,'TRT @R6(0),@R7+256'
 006046 4780 808E            06094 36535                       IF    NZ,BEGIN            Found a special char...
 00604A 5920 8406/4770_      0640C 36546  1                      IF    (R2,EQ,XLEFINV),BEGIN  invalid char...
 006052 D203 D054 840A 00008 06410 36563  2                        MVC   XLTRC,=F'4'         Set return code
 006058 4110 1001            00001 36564  2                        LA    R1,@R1+1
 00605C 47F0 808E            06094 36565  2                        B     XLTRTN
 006060                            36566  1                      END
 006060 5920 840E/4770_      06414 36570  1                      IF    (R2,EQ,XLEFIGN),BEGIN  ignore char...
 006068 0650                       36587  2                        DECR  R5
 00606A 58F0 D04C/06F0_      00000 36589  2                        DECR  R15,XLTPTRS         Reduce len
 006074 1821                       36594  2                        LR    R2,R1
 006076 18F1                       36595  2                        LR    R15,R1
 006078 1BF6                       36596  2                        SR    R15,R6
 00607A 1835                       36597  2                        LR    R3,R5
 00607C 1B3F                       36598  2                        SR    R3,R15              Remaining len
 00607E 41E0 1001            00001 36599  2                        LA    R14,@R1+1
 006082 18F3                       36600  2                        LR    R15,R3
 006084 0E2E                       36601  2                        MVCL  R2,R14              Move text over to delete char
 006086 47F0 808E            06094 36602  2                        B     XLTRTN
1SIFT     (SIFT2047) (12:37) (15MAR04) Subsystem Interface                                                                  Page  141
0Current Usings:  (*,R8) (CV,R12) (XLTWA-@@,R13)
0Loc    Object Code    Addr1 Addr2  Stmt Lv Lineno    Source Statement           (Hibal 5, Asmedit 3.3)  HLASM R4.0  2004/03/15 12.37
+___    ______ ____    _____ _____  ____ __ ______    ______ _________
000608A                            36603  1                      END
 00608A FEDC07/C2818440E_          36607  1                      FAIL  'Bad XLE'
 006094                            36612                       END
 006094 18F1                       36616              XLTRTN   LR    R15,R1
 006096 1BF6                       36617                       SR    R15,R6
 006098 1861                       36618                       LR    R6,R1
 00609A 1B5F                       36619                       SR    R5,R15
 00609C 4720 8026            0602C 36620                       BP    XLTRTLP             More to do
                                   36621
 0060A0 9856 D04C            00000 36622                       LM    R5,R6,XLTPTRS       Now translate text...
 0060A4 5950 8402/47D0_      06408 36623                       WHILE (R5,GT,256),BEGIN
 0060AC DCFF 6000 7000 00000 00000 36642  1                      TR    @R6(256),@R7
 0060B2 4160 6100            00100 36643  1                      LA    R6,@R6+256
 0060B6 4B50 8436            0643C 36644  1                      SH    R5,=H'256'
 0060BA 47F0 809E            060A4 36645                       END
 0060BE 1255/47D0 80C4_            36650                       TDEX  R5,'TR @R6(0),@R7'
                                   36688
 0060CA 9801 D04C            00000 36689              XLTEXIT  LM    R0,R1,XLTPTRS
 0060CE 58F0 D054            00008 36690                       L     R15,XLTRC
 0060D2 41D0 D03C/982B_      0003C 36691                       PEND
 DROP   XLTWA-@@,R13
 DROP   *,R8
1SIFT     (SIFT2047) (12:37) (15MAR04) Subsystem Interface                                                                  Page  142
0Current Usings:  (CV,R12)
0Loc    Object Code    Addr1 Addr2  Stmt Lv Lineno    Source Statement           (Hibal 5, Asmedit 3.3)  HLASM R4.0  2004/03/15 12.37
+___    ______ ____    _____ _____  ____ __ ______    ______ _________
0                                  36718              ¿þþþþþþþþþþþþþþþþþþþþþþþþþþþþþþþþþþþþþþþþþþþþþþþþþþþþþþþþþþþþþþþþþþþþþÜ
                                   36719              Ÿ                                                                     Ÿ
                                   36720              Ÿ  SESSTRC -- Routine to queue a trace buffer to the SCB specified    Ÿ
                                   36721              Ÿ    (if tracing or monitoring has been turned on).                   Ÿ
                                   36722              Ÿ                                                                     Ÿ
                                   36723              Ÿ    On entry:                                                        Ÿ
                                   36724              Ÿ      @R15 - trace type text                                         Ÿ
                                   36725              Ÿ      R1,R0 - trace text loc, len                                    Ÿ
                                   36726              Ÿ      PDB - filled in                                                Ÿ
                                   36727              Ÿ                                                                     Ÿ
                                                      ¾þþþþþþþþþþþþþþþþþþþþþþþþþþþþþþþþþþþþþþþþþþþþþþþþþþþþþþþþþþþþþþþþþþþþþ»
00060E6 50E0 D044/902B_      00044 36728              SESSTRC  PROC
 USING  *,R8
 USING  SCB,R9                     36764                       WITH  SCB,PDB             Entry assumptions
 USING  PDB,R10
 006100 D502 8355 9000_06445 00000 36785                       FAIL  (SCB,NE,'SCB'),'Bad SCB ptr'
 006118 185F                       36811                       LR    R5,R15              Save prompt ptr
                                   36812
 00611A 1841                       36813                       LR    R4,R1               Text
 00611C 1230                       36814                       LTR   R3,R0
 00611E 47B0 8034/1B33       06124 36815                       IF    NEG,'CLEAR R3'
 006124 1823                       36835                       LR    R2,R3
 006126 5920 8328/47D0_      06418 36836                       CEIL  R2,STRCMXDL         Not too long now
                                   36855
 006132 4100 202C            0002C 36856                       LA    R0,L'STRCHDR+@R2    Total STRC entry length
 006136 4110 0013            00013 36857                       LA    R1,STRCSUBP         Subpool
 00613A 5020 D044/4BD0_      00044 36858                       PUSH  R2
 00614A 182E                       36865                       LR    R2,RAR
 00614C 58E0 832C/0DEE       0641C 36866                       VCALL NGETCORE            Get a new trace buffer
 006152 41D0 D008/5820_      00008 36870                       POP   R2
 00615E 1861                       36876                       LR    R6,R1
 USING  STRC,R6                    36877                       WITH  (STRC,R6)
 006160 D72B 6000 6000 00000 00000 36890                       CLEAR STRCHDR
 006166 D203 6000 8330 00000 06420 36897                       MVC   STRC(4),=C'STRC'    Set self-identification
 00616C 58E0 8334/0DEE       06424 36898                       VCALL LOCALTOD            Time stamp
 006172 9001 6008            00008 36902                       STM   R0,R1,STRCCLCK
 006176 41F0 0001/5EF0_      00001 36903                       INCR  R15,CVSCBUID        Kick unique SCB trace id
 006182 50F0 6024            00024 36909                       ST    R15,STRCUID         Save unique trace id in STRC
                                   36910                       ¿þþþþþþþþþþþþþþþþþþþþÜ
                                   36911                       Ÿ  Save trace type.  Ÿ
                                   36912                       ¾þþþþþþþþþþþþþþþþþþþþ»
 006186 D20F 6011 5000 00011 00000 36913                       MVC   STRCTYPE,@R5        Set trace type
                                   36914                       ¿þþþþþþþþþþþþþþþþþþþþÜ
                                   36915                       Ÿ  Save trace data.  Ÿ
                                   36916                       ¾þþþþþþþþþþþþþþþþþþþþ»
 00618C 4030 6028            00028 36917                       STH   R3,STRCACTLEN       Save actual data length
 006190 4020 602A            0002A 36918                       STH   R2,STRCDLEN         Save data length
 006194 41E0 602C/18F2_      0002C 36919                       MOVEL STRCDATA,(R4),(R2)  Save data
                                   36939
 0061A0 9120 A00B/47E0_0000B       36940                       IF    PDBMODD.MODDTRAN,'SET STRCFASCII'  Trace data is ASCII
1SIFT     (SIFT2047) (12:37) (15MAR04) Subsystem Interface                                                                  Page  143
0Current Usings:  (STRC,R6) (*,R8) (SCB,R9) (PDB,R10) (CV,R12)
0Loc    Object Code    Addr1 Addr2  Stmt Lv Lineno    Source Statement           (Hibal 5, Asmedit 3.3)  HLASM R4.0  2004/03/15 12.37
+___    ______ ____    _____ _____  ____ __ ______    ______ _________
0                                  36967                       ¿þþþþþþþþþþþþþþþþþþþþþþþþþþþþþþþþþþþþþþþþþþþþþþþþþþÜ
                                   36968                       Ÿ  Link this trace entry to the end of the queue.  Ÿ
                                   36969                       ¾þþþþþþþþþþþþþþþþþþþþþþþþþþþþþþþþþþþþþþþþþþþþþþþþþþ»
 0061AC 5820 90E0/1222       000E0 36970                       LT    R2,SCBTRCQT         Get last trace entry ptr
 0061B2 4770 80CE            061BE 36974                       IF    Z,BEGIN             Empty trace table...
 0061B6 5060 90DC            000DC 36985  1                      ST    R6,SCBTRCQH         We are the queue head
 0061BA 5060 90E0            000E0 36986  1                      ST    R6,SCBTRCQT         And the queue tail
 0061BE                            36987                       END
                                   36991
 0061BE 80D2/47F0 80DA 061BE 061B4 36992                       ELSE  BEGIN               Add us to the end...
 0061C2 5060 2004            00004 37003  1                      ST    R6,STRCLINK-STRC(,R2)  Link us to last
 0061C6 5060 90E0            000E0 37004  1                      ST    R6,SCBTRCQT         We are the new queue tail
 0061CA                            37005                       END
                                   37009
 0061CA 41F0 0001/5EF0_      00001 37010                       INCR  R15,SCBNTRC         Keep count of number of entries
                                   37016                       ¿þþþþþþþþþþþþþþþþþþþþþþþþÜ
                                   37017                       Ÿ  Free oldest entries.  Ÿ
                                   37018                       ¾þþþþþþþþþþþþþþþþþþþþþþþþ»
 0061D6 D503 8338 90D8_06428 000D8 37019                       WHILE (SCBNTRC,GT,=A(STRCMAX#)),BEGIN
 0061E0 5810 90DC            000DC 37038  1                      L     R1,SCBTRCQH         Oldest STRC entry
 DROP   STRC,R6                    37039  1                      WITH  (STRC,R1)
 USING  STRC,R1
 0061E4 41F0 9000            00000 37060  1                      LA    R15,SCB
 0061E8 4DE0 8114            06204 37061  1                      LCALL FREESTRC            Free a trace entry
 0061EC 47F0 80E6            061D6 37063                       END
 USING  STRC,R6
 DROP   STRC,R1
                                   37082
 0061F0 41D0 D030/982B_      00030 37083                       PEND
 DROP   STRC,R6
 DROP   PDB,R10
 DROP   SCB,R9
 DROP   *,R8
1SIFT     (SIFT2047) (12:37) (15MAR04) Subsystem Interface                                                                  Page  144
0Current Usings:  (CV,R12)
0Loc    Object Code    Addr1 Addr2  Stmt Lv Lineno    Source Statement           (Hibal 5, Asmedit 3.3)  HLASM R4.0  2004/03/15 12.37
+___    ______ ____    _____ _____  ____ __ ______    ______ _________
0                                  37119              ¿þþþþþþþþþþþþþþþþþþþþþþþþþþþþþþþþþþþþþþþþþþþþþþþþþþþþþþþþþþþþþþþþþþþþþÜ
                                   37120              Ÿ                                                                     Ÿ
                                   37121              Ÿ  FREESTRC -- Routine to free a session trace entry.                 Ÿ
                                   37122              Ÿ                                                                     Ÿ
                                   37123              Ÿ    On entry:                                                        Ÿ
                                   37124              Ÿ      R1  - STRC ptr of entry to free                                Ÿ
                                   37125              Ÿ                                                                     Ÿ
                                   37126              Ÿ    On exit, R15 (and cc):                                           Ÿ
                                   37127              Ÿ      0 - no entries left in trace queue                             Ÿ
                                   37128              Ÿ      nz- there are still entries in the trace queue                 Ÿ
                                   37129              Ÿ                                                                     Ÿ
                                                      ¾þþþþþþþþþþþþþþþþþþþþþþþþþþþþþþþþþþþþþþþþþþþþþþþþþþþþþþþþþþþþþþþþþþþþþ»
0006204 50E0 D044/902B_      00044 37130              FREESTRC PROC
 USING  *,R8
 USING  SCB,R9                     37166                       WITH  SCB                 Entry assumption
 00621E D502 8237 9000_06445 00000 37178                       FAIL  (SCB,NE,'SCB'),'Bad SCB ptr'
                                   37204
 006236 1861                       37205                       LR    R6,R1               STRC ptr
 006238 1266/4770 8036_            37206                       IF    (R6,Z),'CLEAR R15; EXIT FREESTRC'  Nothing left
                                   37232                       ¿þþþþþþþþþþþþþþþþþþþþþþþþþþþþþþþþþþþþþþþþþþþþþþþþþþþþþþþþþþþþþÜ
                                   37233                       Ÿ  Find the previous STRC entry so we can unlink this entry.  Ÿ
                                   37234                       ¾þþþþþþþþþþþþþþþþþþþþþþþþþþþþþþþþþþþþþþþþþþþþþþþþþþþþþþþþþþþþþ»
 006244 1B44                       37235                       CLEAR R4                  Previous entry ptr
                                   37239
 006246 4130 90D8            000D8 37240                       LA    R3,SCBTRCQH-(STRCLINK-STRC)  Dummy queue head
 USING  STRC,R3                    37241                       WITH  (STRC,R3),BEGIN
 00624A 5830 3004/1233_      00004 37255  1                      WHILE ('LT R3,STRCLINK',NZ),BEGIN  Go through entries...
                                   37273  2
 006254 1936/4780 806C             37274  2                        IF    (R3,EQ,R6),FSTRCOM  Matched the entry, scram
                                   37292  2
 00625A 1843                       37293  2                        LR    R4,R3               Save previous entry ptr
 00625C 47F0 803C            0624A 37294  1                      END
 DROP   STRC,R3                    37299                       END
                                   37307
 006260 FEDC16/C69985854_          37308                       FAIL  'Free STRC logic error.'
                                   37313                       ¿þþþþþþþþþþþþþþþþþþþþþþþþþþþÜ
                                   37314                       Ÿ  Dequeue our STRC entry.  Ÿ
                                   37315                       ¾þþþþþþþþþþþþþþþþþþþþþþþþþþþ»
 00627A 1244/4770 8088             37316              FSTRCOM  IF    (R4,Z),BEGIN        We are removing the 1st entry...
 006280 D203 90DC 6004 000DC 00004 37331  1                      MVC   SCBTRCQH,STRCLINK-STRC(R6)  Set new queue head
 006286 D603 90DC 90DC_000DC 000DC 37332  1                      IF    (SCBTRCQH,Z),'CLEAR SCBTRCQT'  Nothing on queue
 006296                            37360                       END
                                   37364
 006296 808C/47F0 80C4 06296 0627E 37365                       ELSE  BEGIN               Dequeue...
 USING  STRC,R4                    37376  1                      WITH  (STRC,R4)
 00629A D503 8212 4000_06420 00000 37389  1                      FAIL  (STRC,NE,'STRC'),'Free STRC logic error.'
 0062BE D203 4004 6004 00004 00004 37415  1                      MVC   STRCLINK,STRCLINK-STRC(R6)  Dequeue our entry
 0062C4 D603 4004 4004_00004 00004 37416  1                      IF    (STRCLINK,Z),'ST R4,SCBTRCQT'  Update queue tail
 DROP   STRC,R4                    37438                       END
1SIFT     (SIFT2047) (12:37) (15MAR04) Subsystem Interface                                                                  Page  145
0Current Usings:  (*,R8) (SCB,R9) (CV,R12)
0Loc    Object Code    Addr1 Addr2  Stmt Lv Lineno    Source Statement           (Hibal 5, Asmedit 3.3)  HLASM R4.0  2004/03/15 12.37
+___    ______ ____    _____ _____  ____ __ ______    ______ _________
0                                  37447                       ¿þþþþþþþþþþþþþþþþþþþþþþþþÜ
                                   37448                       Ÿ  Free the STRC entry.  Ÿ
                                   37449                       ¾þþþþþþþþþþþþþþþþþþþþþþþþ»
 USING  STRC,R6                    37450                       WITH  (STRC,R6),BEGIN
 0062D2 D503 8212 6000_06420 00000 37464  1                      FAIL  (STRC,NE,'STRC'),'Free STRC logic error.'
 0062F6 D203 6000 821E 00000 0642C 37490  1                      MVC   STRC(4),=C'OTRC'    Neatness
 0062FC D203 6004 8222 00004 06430 37491  1                      MVC   STRCLINK,=F'-1'     (Ditto)
                                   37492  1
 006302 4110 6000            00000 37493  1                      LA    R1,STRC
 006306 58E0 8226/0DEE       06434 37494  1                      VCALL FREECORE            Free trace entry
                                   37498  1
 00630C 58F0 90D8/06F0_      000D8 37499  1                      DECR  R15,SCBNTRC         Decrement number of trace entries
 DROP   STRC,R6                    37504                       END
                                   37512
 006316 58F0 90DC/12FF       000DC 37513                       LT    R15,SCBTRCQH        Set CC for caller
 00631C 41D0 D030/982B_      00030 37517                       PEND
 DROP   SCB,R9
 DROP   *,R8
1SIFT     (SIFT2047) (12:37) (15MAR04) Subsystem Interface                                                                  Page  146
0Current Usings:  (CV,R12)
0Loc    Object Code    Addr1 Addr2  Stmt Lv Lineno    Source Statement           (Hibal 5, Asmedit 3.3)  HLASM R4.0  2004/03/15 12.37
+___    ______ ____    _____ _____  ____ __ ______    ______ _________
0                                  37543              ¿þþþþþþþþþþþþþþþþþþþþþþþþþþþþþþþþþþþþþþþþþþþþþþþþþþþþþþþþþþþþþþþþþþþþþÜ
                                   37544              Ÿ                                                                     Ÿ
                                   37545              Ÿ  FINDSID -- Routine to find SCB from session id.                    Ÿ
                                   37546              Ÿ                                                                     Ÿ
                                   37547              Ÿ    On entry:                                                        Ÿ
                                   37548              Ÿ      R15 - session id                                               Ÿ
                                   37549              Ÿ                                                                     Ÿ
                                   37550              Ÿ    On exit, R15 (and CC):                                           Ÿ
                                   37551              Ÿ     -4 - no match                                                   Ÿ
                                   37552              Ÿ      0 - matched SCB with id (R1 - SCB ptr)                         Ÿ
                                   37553              Ÿ      4 - matched SCB with id gt than parm id (R1 - SCB ptr)         Ÿ
                                   37554              Ÿ                                                                     Ÿ
                                                      ¾þþþþþþþþþþþþþþþþþþþþþþþþþþþþþþþþþþþþþþþþþþþþþþþþþþþþþþþþþþþþþþþþþþþþþ»
0006330 50E0 D044/902B_      00044 37555              FINDSID  PROC
 USING  *,R8
 00634A 4110 C2B0            002B0 37591                       LA    R1,CVSCBQH-(SCBLINK-SCB)  Dummy first link
 USING  SCB,R1                     37592                       WITH  (SCB,R1)
 00634E 5810 1004/1211_      00004 37605                       WHILE ('LT R1,SCBLINK',NZ),BEGIN
 006358 55F0 10F4/4750_      000F4 37623  1                      IF    (R15,LGE,SCBID),BEGIN
 006360 5BF0 10F4            000F4 37640  2                        S     R15,SCBID
 006364 4780 803E            06378 37641  2                        IF    Z,EXIT,FINDSID      Exact match
 006368 41F0 0004            00004 37655  2                        LA    R15,4               Id is gt than parm id
 00636C 47F0 803E            06378 37656  2                        EXIT  FINDSID
 006370                            37659  1                      END
 006370 47F0 8014            0634E 37663                       END
 006374 48F0 8106            06440 37668                       LH    R15,=H'-4'          No match
 006378 41D0 D030/982B_      00030 37669                       PEND
 DROP   SCB,R1
 DROP   *,R8
1SIFT     (SIFT2047) (12:37) (15MAR04) Subsystem Interface                                                                  Page  147
0Current Usings:  (CV,R12)
0Loc    Object Code    Addr1 Addr2  Stmt Lv Lineno    Source Statement           (Hibal 5, Asmedit 3.3)  HLASM R4.0  2004/03/15 12.37
+___    ______ ____    _____ _____  ____ __ ______    ______ _________
0                                  37695              ¿þþþþþþþþþþþþþþþþþþþþþþþþþþþþþþþþþþþþþþþþþþþþþþþþþþþþþþþþþþþþþþþþþþþþþÜ
                                   37696              Ÿ                                                                     Ÿ
                                   37697              Ÿ  FMTSIB -- Routine to format SIB.                                   Ÿ
                                   37698              Ÿ                                                                     Ÿ
                                   37699              Ÿ    On entry:                                                        Ÿ
                                   37700              Ÿ      R1 - SCB ptr                                                   Ÿ
                                   37701              Ÿ      R15- addr of SIB area                                          Ÿ
                                   37702              Ÿ                                                                     Ÿ
                                   37703              Ÿ    On exit:                                                         Ÿ
                                   37704              Ÿ      R15 - SIB length                                               Ÿ
                                   37705              Ÿ                                                                     Ÿ
                                                      ¾þþþþþþþþþþþþþþþþþþþþþþþþþþþþþþþþþþþþþþþþþþþþþþþþþþþþþþþþþþþþþþþþþþþþþ»
000638C 50E0 D044/902B_      00044 37706              FMTSIB   PROC
 USING  *,R8
 0063A6 1891                       37742                       LR    SCBR,R1
 USING  SCB,R9                     37743                       WITH  SCB
                                   37755
 0063A8 187F                       37756                       LR    R7,R15
 USING  SIB,R7                     37757                       WITH  (SIB,R7)
                                   37770
 0063AA D7FD 7000 7000 00000 00000 37771                       CLEAR SIB
 0063B0 D207 7000 90F4 00000 000F4 37778                       MVC   SIBIHDR,SCBIHDR     Id and session number
 0063B6 5840 9008/1244       00008 37779                       LT    R4,SCBPIBP
 0063BC 4780 803A            063D0 37783                       IF    NZ,BEGIN
 USING  PIB,R4                     37794  1                      WITH  (PIB,R4)
 0063C0 D235 7010 4034 00010 00034 37807  1                      MVC   SIBPIB,PIBSIB
 0063C6 5830 4008            00008 37808  1                      L     R3,PIBFEBP
 0063CA D207 7008 3014 00008 00014 37809  1                      WITH  (FEB,R3),'MVC SIBFE,FEBNAME'
 USING  FEB,R3
 DROP   FEB,R3
 DROP   PIB,R4                     37833                       END
                                   37842
 0063D0 D2B5 7048 90FC 00048 000FC 37843                       MVC   SIB1,SCB1           Sib proper
                                   37844
 0063D6 41F0 00FE            000FE 37845                       LA    R15,L'SIB
 0063DA D503 7000 90F4_00000 000F4 37846                       IF    (SIBID,EQ,SCBID),EXIT
 0063E4 9120 912E/4710_0012E       37867                       IF    SCBFSPR,EXIT
 0063EC 41F0 00AC            000AC 37885                       LA    R15,L'SIBG          Limited sib
                                   37886
 0063F0 41D0 D030/982B_      00030 37887                       PEND
 DROP   SIB,R7
 DROP   SCB,R9
 DROP   *,R8
                                   37917
 006404                            37918                       DS    0S(L'SIBPIB-L'PIBSIB,L'PIBSIB-L'SIBPIB)  bad lengths
                                   37919
                                   37920                       QLTORG
1SIFT     (SIFT2047) (12:37) (15MAR04) Subsystem Interface                                                                  Page  148
0Current Usings:  (CV,R12)
0Loc    Object Code    Addr1 Addr2  Stmt Lv Lineno    Source Statement           (Hibal 5, Asmedit 3.3)  HLASM R4.0  2004/03/15 12.37
+___    ______ ____    _____ _____  ____ __ ______    ______ _________
0                                  37952              ¿þþþþþþþþþþþþþþþþþþþþþþþþþþþþþþþþþþþþþþþþþþþþþþþþþþþþþþþþþþþþþþþþþþþþþÜ
                                   37953              Ÿ                                                                     Ÿ
                                   37954              Ÿ  SESSERR -- Routine to do error recovery.                           Ÿ
                                   37955              Ÿ                                                                     Ÿ
                                   37956              Ÿ    On entry:                                                        Ÿ
                                   37957              Ÿ      R1 - SCB ptr                                                   Ÿ
                                   37958              Ÿ                                                                     Ÿ
                                   37959              Ÿ    On exit, R15 (and CC):                                           Ÿ
                                   37960              Ÿ      0 - attempt retry                                              Ÿ
                                   37961              Ÿ      4 - shutdown MILTEN                                            Ÿ
                                   37962              Ÿ                                                                     Ÿ
                                                      ¾þþþþþþþþþþþþþþþþþþþþþþþþþþþþþþþþþþþþþþþþþþþþþþþþþþþþþþþþþþþþþþþþþþþþþ»
0006454 50E0 D044/902B_      00044 37963              SESSERR  XPROC
 USING  *,R8
 00646E 1891                       38001                       LR    SCBR,R1
 USING  SCB,R9                     38002                       WITH  SCB
                                   38014
 006470 4110 9000            00000 38015                       LA    R1,SCB
 006474 58E0 80CA/0DEE       06528 38016                       ACALL DISCSESS            Disconnect session
 00647A 1BFF                       38020                       CLEAR R15                 Attempt retry
 00647C 41D0 D030/982B_      00030 38024                       PEND
 DROP   SCB,R9
 DROP   *,R8
1SIFT     (SIFT2047) (12:37) (15MAR04) Subsystem Interface                                                                  Page  149
0Current Usings:  (CV,R12)
0Loc    Object Code    Addr1 Addr2  Stmt Lv Lineno    Source Statement           (Hibal 5, Asmedit 3.3)  HLASM R4.0  2004/03/15 12.37
+___    ______ ____    _____ _____  ____ __ ______    ______ _________
0                                  38050              ¿þþþþþþþþþþþþþþþþþþþþþþþþþþþþþþþþþþþþþþþþþþþþþþþþþþþþþþþþþþþþþþþþþþþþþÜ
                                   38051              Ÿ                                                                     Ÿ
                                   38052              Ÿ  SUBERR -- Routine to do error recovery.                            Ÿ
                                   38053              Ÿ                                                                     Ÿ
                                   38054              Ÿ    On entry:                                                        Ÿ
                                   38055              Ÿ      R1 - SUB ptr                                                   Ÿ
                                   38056              Ÿ                                                                     Ÿ
                                   38057              Ÿ    On exit, R15 (and CC):                                           Ÿ
                                   38058              Ÿ      0 - attempt retry                                              Ÿ
                                   38059              Ÿ      4 - no retry, shutdown MILTEN                                  Ÿ
                                   38060              Ÿ                                                                     Ÿ
                                                      ¾þþþþþþþþþþþþþþþþþþþþþþþþþþþþþþþþþþþþþþþþþþþþþþþþþþþþþþþþþþþþþþþþþþþþþ»
0006490 50E0 D044/902B_      00044 38061              SUBERR   XPROC
 USING  *,R8
 0064AA 18B1                       38099                       LR    SUBR,R1
 USING  SUB,R11                    38100                       WITH  SUB
                                   38112
 0064AC 4510 802A/0014_      064C4 38113                       WTO   'SUBSYSTEM ERROR.'
                                   38121
 0064C6 41F0 0004            00004 38122                       LA    R15,4               Assume the worst
 0064CA 59B0 C32C/4780_      0032C 38123                       IF    (SUBR,EQ,CVMRTSUB),EXIT  Mort can't go
                                   38143                       ¿þþþþþþþþþþþþþþþþþþþþþþþþþþþþÜ
                                   38144                       Ÿ  Very temporary addition.  Ÿ
                                   38145                       ¾þþþþþþþþþþþþþþþþþþþþþþþþþþþþ»
 0064D2 41F0 0001/5EF0_      00001 38146                       INCR  R15,SUBNFAIL
 0064DE 59F0 8092/4730_      0652C 38152                       IF    (R15,LE,20),BEGIN
 0064E6 58F0 B080/4110_      00080 38169  1                      SET   SUBSFLAG.SUBPFNI,MODE=LOCKED,REF=SUB
 0064FE                            38184                       END
                                   38188
 0064FE 8068/47F0 8072 064FE 064E4 38189                       ELSE  BEGIN
 006502 4110 B000            00000 38200  1                      LA    R1,SUB
 006506 58E0 8096/0DEE       06530 38201  1                      ACALL SUBCLS              Close the subsystem path
 00650C                            38205                       END
                                   38209
 00650C 1BFF                       38210                       CLEAR R15                 Attempt retry
 00650E 41D0 D030/982B_      00030 38214                       PEND
 DROP   SUB,R11
 DROP   *,R8
                                   38239
                                   38240                       QLTORG
                                   38256
 006538                06538 06538 38257                       END   .

1SIFT     (SIFT2047) (12:37) (15MAR04) Relocation Dictionary                                                                Page  150
-   Pos.Id   Rel.Id   Flags    Address                                                       HLASM R4.0  2004/03/15 12.37
0  00000001 00000001    0C    00000054
   00000001 00000001    0C    00000064
   00000001 00000001    0C    00000068
   00000001 00000001    0C    00000530
   00000001 00000001    0C    00000538
   00000001 00000001    0C    0000053C
   00000001 00000001    0C    00000558
   00000001 00000001    0C    0000055C
   00000001 00000001    0C    000006B0
   00000001 00000001    0C    000006B4
   00000001 00000001    0C    000006BC
   00000001 00000001    0C    000006C4
   00000001 00000001    0C    00001554
   00000001 00000001    0C    00001558
   00000001 00000001    0C    0000155C
   00000001 00000001    0C    00001560
   00000001 00000001    0C    00001574
   00000001 00000001    0C    0000157C
   00000001 00000001    0C    00001580
   00000001 00000001    0C    00001584
   00000001 00000001    0C    00001588
   00000001 00000001    0C    0000158C
   00000001 00000001    0C    00001590
   00000001 00000001    0C    00001594
   00000001 00000001    0C    000015AC
   00000001 00000001    0C    000015B0
   00000001 00000001    0C    00001684
   00000001 00000001    0C    00001688
   00000001 00000001    0C    0000168C
   00000001 00000001    0C    00001690
   00000001 00000001    0C    00001694
   00000001 00000001    0C    00001698
   00000001 00000001    0C    0000169C
   00000001 00000001    0C    000016A0
   00000001 00000001    0C    000016A4
   00000001 00000001    0C    000016A8
   00000001 00000001    0C    000016AC
   00000001 00000001    0C    000016B0
   00000001 00000001    0C    000016B4
   00000001 00000001    0C    000016B8
   00000001 00000001    0C    000016BC
   00000001 00000001    0C    000016C0
   00000001 00000001    0C    000016C4
   00000001 00000001    0C    000016C8
   00000001 00000001    0C    000016CC
   00000001 00000001    0C    000016D0
   00000001 00000001    0C    000024DC
   00000001 00000001    0C    00002508
   00000001 00000001    0C    00002510
   00000001 00000001    0C    0000252C
   00000001 00000001    0C    00002D64
   00000001 00000001    0C    00002D7C
   00000001 00000001    0C    00002DB4
   00000001 00000001    0C    00002DB8
   00000001 00000001    0C    00002DBC
1SIFT     (SIFT2047) (12:37) (15MAR04) Relocation Dictionary                                                                Page  151
   00000001 00000001    0C    00003BF8
   00000001 00000001    0C    00003C00
   00000001 00000001    0C    00003C08
   00000001 00000001    0C    00003C0C
   00000001 00000001    0C    00003C18
   00000001 00000001    0C    00003C1C
   00000001 00000001    0C    00003C24
   00000001 00000001    0C    00003C28
   00000001 00000001    0C    00003C2C
   00000001 00000001    0C    00003C30
   00000001 00000001    0C    00003E80
   00000001 00000001    0C    00003E84
   00000001 00000001    0C    0000417C
   00000001 00000001    0C    00004180
   00000001 00000001    0C    00004184
   00000001 00000001    0C    00004188
   00000001 00000001    0C    0000418C
   00000001 00000001    0C    00004190
   00000001 00000001    0C    00004194
   00000001 00000001    0C    00004198
   00000001 00000001    0C    00004708
   00000001 00000001    0C    0000470C
   00000001 00000001    0C    00004740
   00000001 00000001    0C    00004990
   00000001 00000001    0C    0000500C
   00000001 00000001    0C    00005014
   00000001 00000001    0C    00005020
   00000001 00000001    0C    00005028
   00000001 00000001    0C    00005034
   00000001 00000001    0C    0000503C
   00000001 00000001    0C    00005048
   00000001 00000001    0C    00005050
   00000001 00000001    0C    0000505C
   00000001 00000001    0C    00005064
   00000001 00000001    0C    00005070
   00000001 00000001    0C    00005078
   00000001 00000001    0C    00005084
   00000001 00000001    0C    0000508C
   00000001 00000001    0C    00005098
   00000001 00000001    0C    000050A0
   00000001 00000001    0C    000050AC
   00000001 00000001    0C    000050B4
   00000001 00000001    0C    000050C0
   00000001 00000001    0C    000050C8
   00000001 00000001    0C    000050D4
   00000001 00000001    0C    000050DC
   00000001 00000001    0C    000050E8
   00000001 00000001    0C    000050F0
   00000001 00000001    0C    000050FC
   00000001 00000001    0C    00005104
   00000001 00000001    0C    00005114
   00000001 00000001    0C    0000511C
   00000001 00000001    0C    0000512C
   00000001 00000001    0C    00005134
   00000001 00000001    0C    00005140
   00000001 00000001    0C    00005148
   00000001 00000001    0C    00005154
   00000001 00000001    0C    0000515C
   00000001 00000001    0C    00005168
1SIFT     (SIFT2047) (12:37) (15MAR04) Relocation Dictionary                                                                Page  152
   00000001 00000001    0C    00005170
   00000001 00000001    0C    0000517C
   00000001 00000001    0C    00005184
   00000001 00000001    0C    00005190
   00000001 00000001    0C    00005198
   00000001 00000001    0C    000051A8
   00000001 00000001    0C    000051B0
   00000001 00000001    0C    000051C0
   00000001 00000001    0C    000051C8
   00000001 00000001    0C    000051D8
   00000001 00000001    0C    000051E0
   00000001 00000001    0C    000051F0
   00000001 00000001    0C    000051F8
   00000001 00000001    0C    00005208
   00000001 00000001    0C    00005210
   00000001 00000001    0C    0000521C
   00000001 00000001    0C    00005224
   00000001 00000001    0C    00005230
   00000001 00000001    0C    00005238
   00000001 00000001    0C    00005244
   00000001 00000001    0C    0000524C
   00000001 00000001    0C    0000525C
   00000001 00000001    0C    00005264
   00000001 00000001    0C    00005274
   00000001 00000001    0C    0000527C
   00000001 00000001    0C    0000528C
   00000001 00000001    0C    00005294
   00000001 00000001    0C    000052A0
   00000001 00000001    0C    000052A8
   00000001 00000001    0C    000052B4
   00000001 00000001    0C    000052BC
   00000001 00000001    0C    000052C8
   00000001 00000001    0C    000052D0
   00000001 00000001    0C    000052DC
   00000001 00000001    0C    000052E4
   00000001 00000001    0C    000052F4
   00000001 00000001    0C    000052FC
   00000001 00000001    0C    0000530C
   00000001 00000001    0C    00005320
   00000001 00000001    0C    00005338
   00000001 00000001    0C    0000534C
   00000001 00000001    0C    00005360
   00000001 00000001    0C    00005374
   00000001 00000001    0C    00005388
   00000001 00000001    0C    0000539C
   00000001 00000001    0C    000053B8
   00000001 00000001    0C    000053CC
   00000001 00000001    0C    000053E0
   00000001 00000001    0C    000053F4
   00000001 00000001    0C    00005408
   00000001 00000001    0C    0000541C
   00000001 00000001    0C    00005430
   00000001 00000001    0C    00005444
   00000001 00000001    0C    00005458
   00000001 00000001    0C    0000546C
   00000001 00000001    0C    00005480
   00000001 00000001    0C    00005498
   00000001 00000001    0C    000054B0
   00000001 00000001    0C    000054C8
1SIFT     (SIFT2047) (12:37) (15MAR04) Relocation Dictionary                                                                Page  153
   00000001 00000001    0C    000054E4
   00000001 00000001    0C    000054FC
   00000001 00000001    0C    00005510
   00000001 00000001    0C    0000552C
   00000001 00000001    0C    00005544
   00000001 00000001    0C    00005560
   00000001 00000001    0C    0000557C
   00000001 00000001    0C    00005594
   00000001 00000001    0C    000055B4
   00000001 00000001    0C    000055D8
   00000001 00000001    0C    000055F8
   00000001 00000001    0C    00005620
   00000001 00000001    0C    0000563C
   00000001 00000001    0C    00005650
   00000001 00000001    0C    00005668
   00000001 00000001    0C    00005684
   00000001 00000001    0C    00005698
   00000001 00000001    0C    000056AC
   00000001 00000001    0C    000056C0
   00000001 00000001    0C    000056D4
   00000001 00000001    0C    000056EC
   00000001 00000001    0C    00005704
   00000001 00000001    0C    00005718
   00000001 00000001    0C    00005730
   00000001 00000001    0C    00005744
   00000001 00000001    0C    00005758
   00000001 00000001    0C    00005770
   00000001 00000001    0C    00005784
   00000001 00000001    0C    000057A0
   00000001 00000001    0C    000057B8
   00000001 00000001    0C    000057CC
   00000001 00000001    0C    000057E0
   00000001 00000001    0C    000057F4
   00000001 00000001    0C    00005808
   00000001 00000001    0C    0000582C
   00000001 00000001    0C    00005850
   00000001 00000001    0C    00005864
   00000001 00000001    0C    0000587C
   00000001 00000001    0C    00005890
   00000001 00000001    0C    000058A8
   00000001 00000001    0C    000058BC
   00000001 00000001    0C    000058D4
   00000001 00000001    0C    000058EC
   00000001 00000001    0C    00005904
   00000001 00000001    0C    0000591C
   00000001 00000001    0C    00005930
   00000001 00000001    0C    00005948
   00000001 00000001    0C    0000595C
   00000001 00000001    0C    00005970
   00000001 00000001    0C    00005984
   00000001 00000001    0C    00005998
   00000001 00000001    0C    000059AC
   00000001 00000001    0C    000059C0
   00000001 00000001    0C    000059D4
   00000001 00000001    0C    000059E8
   00000001 00000001    0C    000059FC
   00000001 00000001    0C    00005A14
   00000001 00000001    0C    00005A34
   00000001 00000001    0C    00005A4C
1SIFT     (SIFT2047) (12:37) (15MAR04) Relocation Dictionary                                                                Page  154
   00000001 00000001    0C    00005A60
   00000001 00000001    0C    00005A78
   00000001 00000001    0C    00005A8C
   00000001 00000001    0C    00005AA4
   00000001 00000001    0C    00005AC4
   00000001 00000001    0C    00005AE0
   00000001 00000001    0C    00005AFC
   00000001 00000001    0C    00005B1C
   00000001 00000001    0C    00005B38
   00000001 00000001    0C    00005B4C
   00000001 00000001    0C    00005B60
   00000001 00000001    0C    00005B78
   00000001 00000001    0C    00005B8C
   00000001 00000001    0C    00005BA0
   00000001 00000001    0C    00005BB4
   00000001 00000001    0C    00005BC8
   00000001 00000001    0C    00005BE8
   00000001 00000001    0C    00005C08
   00000001 00000001    0C    00005C20
   00000001 00000001    0C    00005C34
   00000001 00000001    0C    00005C4C
   00000001 00000001    0C    00005C60
   00000001 00000001    0C    00005C74
   00000001 00000001    0C    00005C88
   00000001 00000001    0C    00005C9C
   00000001 00000001    0C    00005CB0
   00000001 00000001    0C    00005CC4
   00000001 00000001    0C    00005CE0
   00000001 00000001    0C    00005CF4
   00000001 00000001    0C    00005D08
   00000001 00000001    0C    00005D24
   00000001 00000001    0C    00005D38
   00000001 00000001    0C    00005D4C
   00000001 00000001    0C    00005D60
   00000001 00000001    0C    00005D74
   00000001 00000001    0C    00005D88
   00000001 00000001    0C    00005D9C
   00000001 00000001    0C    00005DB0
   00000001 00000001    0C    00005DC4
   00000001 00000001    0C    00005DD8
   00000001 00000001    0C    00005DEC
   00000001 00000001    0C    00005E00
   00000001 00000001    0C    00005E14
   00000001 00000001    0C    00005E28
   00000001 00000001    0C    00005E3C
   00000001 00000001    0C    00005E50
   00000001 00000001    0C    00005E6C
   00000001 00000001    0C    00005E80
   00000001 00000001    0C    00005E98
   00000001 00000001    0C    00005EB4
   00000001 00000001    0C    00005EC8
   00000001 00000001    0C    00005EDC
   00000001 00000001    0C    00005EF0
   00000001 00000001    0C    00005F04
   00000001 00000001    0C    00005F18
   00000001 00000001    0C    00006528
   00000001 00000001    0C    00006530
   00000001 00000002    1C    00000534
   00000001 00000003    1C    00000544
1SIFT     (SIFT2047) (12:37) (15MAR04) Relocation Dictionary                                                                Page  155
   00000001 00000003    1C    00001564
   00000001 00000003    1C    00002DC0
   00000001 00000003    1C    00003BF0
   00000001 00000003    1C    0000641C
   00000001 00000004    1C    00000550
   00000001 00000005    1C    00000560
   00000001 00000005    1C    000006C0
   00000001 00000005    1C    00002DC8
   00000001 00000005    1C    00003C14
   00000001 00000005    1C    00003E94
   00000001 00000005    1C    00006434
   00000001 00000006    1C    00001550
   00000001 00000006    1C    00002520
   00000001 00000006    1C    00006424
   00000001 00000007    1C    00001578
   00000001 00000007    1C    00002D5C
   00000001 00000007    1C    00003C10
   00000001 00000008    1C    00001598
   00000001 00000008    1C    00002528
   00000001 00000009    1C    0000159C
   00000001 0000000A    1C    000016D8
   00000001 0000000B    1C    000016E8
   00000001 0000000C    1C    000016F0
   00000001 0000000D    1C    000024E8
   00000001 0000000E    1C    00002524
   00000001 0000000F    1C    00002538
   00000001 00000010    1C    00002708
   00000001 00000011    1C    00002718
   00000001 00000012    1C    00002720
   00000001 00000013    1C    00002D58
   00000001 00000014    1C    00002D6C
   00000001 00000015    1C    00002D80
   00000001 00000015    1C    00003E8C
   00000001 00000015    1C    00004710
   00000001 00000016    1C    00002D84
   00000001 00000016    1C    00003E90
   00000001 00000016    1C    00004714
   00000001 00000016    1C    00004998
   00000001 00000016    1C    00004FC8
   00000001 00000017    1C    00002D88
   00000001 00000018    1C    00002D8C
   00000001 00000019    1C    0000323C
   00000001 0000001A    1C    0000324C
   00000001 0000001B    1C    00003254
   00000001 0000001C    1C    00003BFC
   00000001 0000001D    1C    00004738

1SIFT     (SIFT2047) (12:37) (15MAR04) Ordinary Symbol and Literal Cross Reference                                          Page  156
-Symbol   Length   Value     Id    R Type   Defn References                                  HLASM R4.0  2004/03/15 12.37
0$$$@R10       1 00000000 FFFFFFF4     J     842  1063
 $$$@R11       1 00000000 FFFFFFF3     J     855  1076   1088
 $$$@R12       1 00000000 FFFFFFF2     J     868  1101
 $$$@R13       1 00000000 FFFFFFF1     J     881  1114   1118   1121   1123   1124
 $$$@R14       1 00000000 FFFFFFF0     J     894  1136
 $$$@R2        1 00000000 FFFFFFFC     J     738  1024
 $$$@R8        1 00000000 FFFFFFF6     J     816  1037
 $$$@R9        1 00000000 FFFFFFF5     J     829  1050
 $$$C1MILSIFT
               1 00000574 00000001     J    7931  7933   8136   8155   8239   8258
 $$$C10MILSIFT
               1 0000500A 00000001     J   33641 33643  36399  36533  36682
 $$$C11MILSIFT
               1 00006454 00000001     J   37946 37948
 $$$C12MILSIFT
               1 00006536 00000001     J   38251 38253
 $$$C13MILSIFT
               1 00006538 00000001     J   38260 38262
 $$$C2MILSIFT
               1 000006D6 00000001     J    8416  8418   8499   8518  13045  13150
 $$$C3MILSIFT
               1 00001612 00000001     J   13940 13942  14553  15749  15854  15874  15973  16156  16751  16856  16898
                                                 17387  17429  17995  19248  19530
 $$$C4MILSIFT
               1 000025C8 00000001     J   19905 19907
 $$$C5MILSIFT
               1 00002E2C 00000001     J   22838 22840
 $$$C6MILSIFT
               1 00003C61 00000001     J   27366 27368  27475  27749
 $$$C7MILSIFT
               1 00003EA4 00000001     J   27986 27988  28109  28658  29639
 $$$C8MILSIFT
               1 00004758 00000001     J   30349 30351  30415  30457  30653  30756
 $$$C9MILSIFT
               1 000049B0 00000001     J   31376 31378
 $$$D1MILSIFT
               1 000006CA 00000001     J    7932  8126   8144   8229   8247
 $$$D10MILSIFT
               1 00006448 00000001     J   33642 36522  36671
 $$$D2MILSIFT
               1 0000160C 00000001     J    8417  8489   8507
 $$$D3MILSIFT
               1 00002574 00000001     J   13941 14542  15738  15843  15863  15962  16145  16740  16845  16887  17376
                                                 17418  17984  19237  19519
 $$$D6MILSIFT
               1 00003E9E 00000001     J   27367 27738
 $$$D7MILSIFT
               1 0000474C 00000001     J   27987 28647  29628
 $$$D8MILSIFT
               1 000049A4 00000001     J   30350 30642  30745
 $$$FAIL107
               1 00000468 00000001     U    7627  7625
 $$$FAIL1179
               1 00006094 00000001     U   36611 36609
 $$$FAIL118
1SIFT     (SIFT2047) (12:37) (15MAR04) Ordinary Symbol and Literal Cross Reference                                          Page  157
               1 000004D6 00000001     U    7813  7811
 $$$FAIL1188
               1 00006118 00000001     U   36806 36804
 $$$FAIL1202
               1 00006236 00000001     U   37199 37197
 $$$FAIL1208
               1 00006279 00000001     U   37312 37310
 $$$FAIL1212
               1 000062BD 00000001     U   37410 37408
 $$$FAIL1215
               1 000062F5 00000001     U   37485 37483
 $$$FAIL155
               1 0000076D 00000001     U    8634  8632
 $$$FAIL340
               1 00001195 00000001     U   12757 12755
 $$$FAIL342
               1 000011BE 00000001     U   12784 12782
 $$$FAIL358
               1 00001389 00000001     U   13361 13359
 $$$FAIL451
               1 00001A36 00000001     U   15547 15545
 $$$FAIL453
               1 00001A56 00000001     U   15573 15571
 $$$FAIL455
               1 00001A79 00000001     U   15613 15611
 $$$FAIL592
               1 000021A4 00000001     U   18590 18588
 $$$FAIL639
               1 000025FC 00000001     U   19988 19986
 $$$FAIL66
               1 0000015C 00000001     U    6640  6638
 $$$FAIL687
               1 0000297C 00000001     U   21431 21429
 $$$FAIL690
               1 000029A2 00000001     U   21493 21491
 $$$FAIL692
               1 000029BE 00000001     U   21533 21531
 $$$FAIL698
               1 00002A3C 00000001     U   21717 21715
 $$$FAIL713
               1 00002B50 00000001     U   22089 22087
 $$$FAIL734
               1 00002D25 00000001     U   22721 22720
 $$$FAIL746
               1 00002EAF 00000001     U   23131 23130
 $$$FAIL756
               1 00002F7A 00000001     U   23372 23370
 $$$FAIL759
               1 00002FE6 00000001     U   23450 23448
 $$$FAIL76
               1 0000025E 00000001     U    6918  6916
 $$$FAIL772
               1 000030DF 00000001     U   23758 23756
 $$$FAIL782
               1 00003210 00000001     U   24131 24129
 $$$FAIL787
               1 000032A7 00000001     U   24298 24296
 $$$FAIL801
               1 0000335C 00000001     U   24647 24645
1SIFT     (SIFT2047) (12:37) (15MAR04) Ordinary Symbol and Literal Cross Reference                                          Page  158
 $$$FAIL81
               1 000002BE 00000001     U    7056  7054
 $$$FAIL816
               1 0000340A 00000001     U   24882 24880
 $$$FAIL822
               1 00003493 00000001     U   25076 25074
 $$$FAIL83
               1 000002DC 00000001     U    7083  7081
 $$$FAIL831
               1 000034F1 00000001     U   25201 25199
 $$$FAIL851
               1 000035C3 00000001     U   25544 25542
 $$$FAIL853
               1 00003610 00000001     U   25605 25603
 $$$FAIL869
               1 00003708 00000001     U   25921 25919
 $$$FAIL87
               1 00000351 00000001     U    7188  7186
 $$$FAIL875
               1 00003794 00000001     U   26079 26077
 $$$FAIL877
               1 000037B6 00000001     U   26103 26101
 $$$FAIL880
               1 00003821 00000001     U   26206 26204
 $$$FAIL897
               1 000038F0 00000001     U   26452 26450
 $$$FAIL900
               1 0000394F 00000001     U   26535 26533
 $$$FAIL905
               1 00003995 00000001     U   26642 26640
 $$$FAIL915
               1 00003A46 00000001     U   26902 26900
 $$$FAIL920
               1 00003AF9 00000001     U   27053 27051
 $$$FAIL922
               1 00003B21 00000001     U   27095 27093
 $$$FAIL935
               1 00003BC4 00000001     U   27297 27295
 $$$FCHAR0C
               3 00005019 00000001     C   33720 33719
 $$$FCHAR1
               2 00005020 00000001     H   33726 33714
 $$$FCHAR1C
               3 0000502D 00000001     C   33733 33732
 $$$FCHAR10
               2 000050D4 00000001     H   33843 33831
 $$$FCHAR10C
               5 000050E1 00000001     C   33850 33849
 $$$FCHAR100
               2 000058EC 00000001     H   35086 35073
 $$$FCHAR100C
               7 000058F9 00000001     C   35093 35092
 $$$FCHAR100T
               1 00005901 00000001     C   35095 35094
 $$$FCHAR101
               2 00005904 00000001     H   35100 35087
 $$$FCHAR101C
               3 00005911 00000001     C   35107 35106
 $$$FCHAR101T
1SIFT     (SIFT2047) (12:37) (15MAR04) Ordinary Symbol and Literal Cross Reference                                          Page  159
               4 00005915 00000001     C   35109 35108
 $$$FCHAR102
               2 0000591C 00000001     H   35114 35101
 $$$FCHAR102C
               3 00005929 00000001     C   35121 35120
 $$$FCHAR102T
               1 0000592D 00000001     C   35123 35122
 $$$FCHAR103
               2 00005930 00000001     H   35128 35115
 $$$FCHAR103C
               3 0000593D 00000001     C   35135 35134
 $$$FCHAR103T
               4 00005941 00000001     C   35137 35136
 $$$FCHAR104
               2 00005948 00000001     H   35142 35129
 $$$FCHAR104C
               4 00005955 00000001     C   35149 35148
 $$$FCHAR104T
               1 0000595A 00000001     C   35151 35150
 $$$FCHAR105
               2 0000595C 00000001     H   35156 35143
 $$$FCHAR105C
               3 00005969 00000001     C   35163 35162
 $$$FCHAR105T
               1 0000596D 00000001     C   35165 35164
 $$$FCHAR106
               2 00005970 00000001     H   35170 35157
 $$$FCHAR106C
               3 0000597D 00000001     C   35177 35176
 $$$FCHAR106T
               1 00005981 00000001     C   35179 35178
 $$$FCHAR107
               2 00005984 00000001     H   35184 35171
 $$$FCHAR107C
               3 00005991 00000001     C   35191 35190
 $$$FCHAR107T
               1 00005995 00000001     C   35193 35192
 $$$FCHAR108
               2 00005998 00000001     H   35198 35185
 $$$FCHAR108C
               3 000059A5 00000001     C   35205 35204
 $$$FCHAR108T
               1 000059A9 00000001     C   35207 35206
 $$$FCHAR109
               2 000059AC 00000001     H   35212 35199
 $$$FCHAR109C
               3 000059B9 00000001     C   35219 35218
 $$$FCHAR109T
               1 000059BD 00000001     C   35221 35220
 $$$FCHAR11
               2 000050E8 00000001     H   33856 33844
 $$$FCHAR11C
               6 000050F5 00000001     C   33863 33862
 $$$FCHAR110
               2 000059C0 00000001     H   35226 35213
 $$$FCHAR110C
               3 000059CD 00000001     C   35233 35232
 $$$FCHAR110T
               1 000059D1 00000001     C   35235 35234
1SIFT     (SIFT2047) (12:37) (15MAR04) Ordinary Symbol and Literal Cross Reference                                          Page  160
 $$$FCHAR111
               2 000059D4 00000001     H   35240 35227
 $$$FCHAR111C
               3 000059E1 00000001     C   35247 35246
 $$$FCHAR111T
               1 000059E5 00000001     C   35249 35248
 $$$FCHAR112
               2 000059E8 00000001     H   35254 35241
 $$$FCHAR112C
               3 000059F5 00000001     C   35261 35260
 $$$FCHAR112T
               2 000059F9 00000001     C   35263 35262
 $$$FCHAR113
               2 000059FC 00000001     H   35268 35255
 $$$FCHAR113C
               7 00005A09 00000001     C   35275 35274
 $$$FCHAR113T
               1 00005A11 00000001     C   35277 35276
 $$$FCHAR114
               2 00005A14 00000001     H   35282 35269
 $$$FCHAR114C
               5 00005A21 00000001     C   35289 35288
 $$$FCHAR114T
              11 00005A27 00000001     C   35291 35290
 $$$FCHAR115
               2 00005A34 00000001     H   35296 35283
 $$$FCHAR115C
               3 00005A41 00000001     C   35303 35302
 $$$FCHAR115T
               4 00005A45 00000001     C   35305 35304
 $$$FCHAR116
               2 00005A4C 00000001     H   35310 35297
 $$$FCHAR116C
               3 00005A59 00000001     C   35317 35316
 $$$FCHAR116T
               1 00005A5D 00000001     C   35319 35318
 $$$FCHAR117
               2 00005A60 00000001     H   35324 35311
 $$$FCHAR117C
               7 00005A6D 00000001     C   35331 35330
 $$$FCHAR117T
               1 00005A75 00000001     C   35333 35332
 $$$FCHAR118
               2 00005A78 00000001     H   35338 35325
 $$$FCHAR118C
               3 00005A85 00000001     C   35345 35344
 $$$FCHAR118T
               1 00005A89 00000001     C   35347 35346
 $$$FCHAR119
               2 00005A8C 00000001     H   35352 35339
 $$$FCHAR119C
               7 00005A99 00000001     C   35359 35358
 $$$FCHAR119T
               2 00005AA1 00000001     C   35361 35360
 $$$FCHAR12
               2 000050FC 00000001     H   33869 33857
 $$$FCHAR12C
              10 00005109 00000001     C   33876 33875
 $$$FCHAR120
1SIFT     (SIFT2047) (12:37) (15MAR04) Ordinary Symbol and Literal Cross Reference                                          Page  161
               2 00005AA4 00000001     H   35366 35353
 $$$FCHAR120C
               8 00005AB1 00000001     C   35373 35372
 $$$FCHAR120T
               9 00005ABA 00000001     C   35375 35374
 $$$FCHAR121
               2 00005AC4 00000001     H   35380 35367
 $$$FCHAR121C
               8 00005AD1 00000001     C   35387 35386
 $$$FCHAR121T
               3 00005ADA 00000001     C   35389 35388
 $$$FCHAR122
               2 00005AE0 00000001     H   35394 35381
 $$$FCHAR122C
               5 00005AED 00000001     C   35401 35400
 $$$FCHAR122T
               6 00005AF3 00000001     C   35403 35402
 $$$FCHAR123
               2 00005AFC 00000001     H   35408 35395
 $$$FCHAR123C
               8 00005B09 00000001     C   35415 35414
 $$$FCHAR123T
               9 00005B12 00000001     C   35417 35416
 $$$FCHAR124
               2 00005B1C 00000001     H   35422 35409
 $$$FCHAR124C
              10 00005B29 00000001     C   35429 35428
 $$$FCHAR124T
               1 00005B34 00000001     C   35431 35430
 $$$FCHAR125
               2 00005B38 00000001     H   35436 35423
 $$$FCHAR125C
               3 00005B45 00000001     C   35443 35442
 $$$FCHAR125T
               1 00005B49 00000001     C   35445 35444
 $$$FCHAR126
               2 00005B4C 00000001     H   35450 35437
 $$$FCHAR126C
               3 00005B59 00000001     C   35457 35456
 $$$FCHAR126T
               2 00005B5D 00000001     C   35459 35458
 $$$FCHAR127
               2 00005B60 00000001     H   35464 35451
 $$$FCHAR127C
               3 00005B6D 00000001     C   35471 35470
 $$$FCHAR127T
               4 00005B71 00000001     C   35473 35472
 $$$FCHAR128
               2 00005B78 00000001     H   35478 35465
 $$$FCHAR128C
               3 00005B85 00000001     C   35485 35484
 $$$FCHAR128T
               1 00005B89 00000001     C   35487 35486
 $$$FCHAR129
               2 00005B8C 00000001     H   35492 35479
 $$$FCHAR129C
               3 00005B99 00000001     C   35499 35498
 $$$FCHAR129T
               1 00005B9D 00000001     C   35501 35500
1SIFT     (SIFT2047) (12:37) (15MAR04) Ordinary Symbol and Literal Cross Reference                                          Page  162
 $$$FCHAR13
               2 00005114 00000001     H   33882 33870
 $$$FCHAR13C
               7 00005121 00000001     C   33889 33888
 $$$FCHAR130
               2 00005BA0 00000001     H   35506 35493
 $$$FCHAR130C
               3 00005BAD 00000001     C   35513 35512
 $$$FCHAR130T
               1 00005BB1 00000001     C   35515 35514
 $$$FCHAR131
               2 00005BB4 00000001     H   35520 35507
 $$$FCHAR131C
               3 00005BC1 00000001     C   35527 35526
 $$$FCHAR131T
               1 00005BC5 00000001     C   35529 35528
 $$$FCHAR132
               2 00005BC8 00000001     H   35534 35521
 $$$FCHAR132C
               8 00005BD5 00000001     C   35541 35540
 $$$FCHAR132T
               9 00005BDE 00000001     C   35543 35542
 $$$FCHAR133
               2 00005BE8 00000001     H   35548 35535
 $$$FCHAR133C
               7 00005BF5 00000001     C   35555 35554
 $$$FCHAR133T
               8 00005BFD 00000001     C   35557 35556
 $$$FCHAR134
               2 00005C08 00000001     H   35562 35549
 $$$FCHAR134C
               3 00005C15 00000001     C   35569 35568
 $$$FCHAR134T
               4 00005C19 00000001     C   35571 35570
 $$$FCHAR135
               2 00005C20 00000001     H   35576 35563
 $$$FCHAR135C
               3 00005C2D 00000001     C   35583 35582
 $$$FCHAR135T
               1 00005C31 00000001     C   35585 35584
 $$$FCHAR136
               2 00005C34 00000001     H   35590 35577
 $$$FCHAR136C
               4 00005C41 00000001     C   35597 35596
 $$$FCHAR136T
               5 00005C46 00000001     C   35599 35598
 $$$FCHAR137
               2 00005C4C 00000001     H   35604 35591
 $$$FCHAR137C
               3 00005C59 00000001     C   35611 35610
 $$$FCHAR137T
               1 00005C5D 00000001     C   35613 35612
 $$$FCHAR138
               2 00005C60 00000001     H   35618 35605
 $$$FCHAR138C
               3 00005C6D 00000001     C   35625 35624
 $$$FCHAR138T
               1 00005C71 00000001     C   35627 35626
 $$$FCHAR139
1SIFT     (SIFT2047) (12:37) (15MAR04) Ordinary Symbol and Literal Cross Reference                                          Page  163
               2 00005C74 00000001     H   35632 35619
 $$$FCHAR139C
               3 00005C81 00000001     C   35639 35638
 $$$FCHAR139T
               1 00005C85 00000001     C   35641 35640
 $$$FCHAR14
               2 0000512C 00000001     H   33895 33883
 $$$FCHAR14C
               5 00005139 00000001     C   33902 33901
 $$$FCHAR140
               2 00005C88 00000001     H   35646 35633
 $$$FCHAR140C
               3 00005C95 00000001     C   35653 35652
 $$$FCHAR140T
               1 00005C99 00000001     C   35655 35654
 $$$FCHAR141
               2 00005C9C 00000001     H   35660 35647
 $$$FCHAR141C
               3 00005CA9 00000001     C   35667 35666
 $$$FCHAR141T
               1 00005CAD 00000001     C   35669 35668
 $$$FCHAR142
               2 00005CB0 00000001     H   35674 35661
 $$$FCHAR142C
               3 00005CBD 00000001     C   35681 35680
 $$$FCHAR142T
               1 00005CC1 00000001     C   35683 35682
 $$$FCHAR143
               2 00005CC4 00000001     H   35688 35675
 $$$FCHAR143C
               6 00005CD1 00000001     C   35695 35694
 $$$FCHAR143T
               7 00005CD8 00000001     C   35697 35696
 $$$FCHAR144
               2 00005CE0 00000001     H   35702 35689
 $$$FCHAR144C
               3 00005CED 00000001     C   35709 35708
 $$$FCHAR144T
               2 00005CF1 00000001     C   35711 35710
 $$$FCHAR145
               2 00005CF4 00000001     H   35716 35703
 $$$FCHAR145C
               3 00005D01 00000001     C   35723 35722
 $$$FCHAR145T
               1 00005D05 00000001     C   35725 35724
 $$$FCHAR146
               2 00005D08 00000001     H   35730 35717
 $$$FCHAR146C
               6 00005D15 00000001     C   35737 35736
 $$$FCHAR146T
               7 00005D1C 00000001     C   35739 35738
 $$$FCHAR147
               2 00005D24 00000001     H   35744 35731
 $$$FCHAR147C
               3 00005D31 00000001     C   35751 35750
 $$$FCHAR147T
               1 00005D35 00000001     C   35753 35752
 $$$FCHAR148
               2 00005D38 00000001     H   35758 35745
1SIFT     (SIFT2047) (12:37) (15MAR04) Ordinary Symbol and Literal Cross Reference                                          Page  164
 $$$FCHAR148C
               3 00005D45 00000001     C   35765 35764
 $$$FCHAR148T
               1 00005D49 00000001     C   35767 35766
 $$$FCHAR149
               2 00005D4C 00000001     H   35772 35759
 $$$FCHAR149C
               3 00005D59 00000001     C   35779 35778
 $$$FCHAR149T
               1 00005D5D 00000001     C   35781 35780
 $$$FCHAR15
               2 00005140 00000001     H   33909 33896
 $$$FCHAR15C
               4 0000514D 00000001     C   33916 33915
 $$$FCHAR150
               2 00005D60 00000001     H   35786 35773
 $$$FCHAR150C
               3 00005D6D 00000001     C   35793 35792
 $$$FCHAR150T
               1 00005D71 00000001     C   35795 35794
 $$$FCHAR151
               2 00005D74 00000001     H   35800 35787
 $$$FCHAR151C
               3 00005D81 00000001     C   35807 35806
 $$$FCHAR151T
               1 00005D85 00000001     C   35809 35808
 $$$FCHAR152
               2 00005D88 00000001     H   35814 35801
 $$$FCHAR152C
               3 00005D95 00000001     C   35821 35820
 $$$FCHAR152T
               1 00005D99 00000001     C   35823 35822
 $$$FCHAR153
               2 00005D9C 00000001     H   35828 35815
 $$$FCHAR153C
               3 00005DA9 00000001     C   35835 35834
 $$$FCHAR153T
               1 00005DAD 00000001     C   35837 35836
 $$$FCHAR154
               2 00005DB0 00000001     H   35842 35829
 $$$FCHAR154C
               3 00005DBD 00000001     C   35849 35848
 $$$FCHAR154T
               1 00005DC1 00000001     C   35851 35850
 $$$FCHAR155
               2 00005DC4 00000001     H   35856 35843
 $$$FCHAR155C
               3 00005DD1 00000001     C   35863 35862
 $$$FCHAR155T
               1 00005DD5 00000001     C   35865 35864
 $$$FCHAR156
               2 00005DD8 00000001     H   35870 35857
 $$$FCHAR156C
               3 00005DE5 00000001     C   35877 35876
 $$$FCHAR156T
               1 00005DE9 00000001     C   35879 35878
 $$$FCHAR157
               2 00005DEC 00000001     H   35884 35871
 $$$FCHAR157C
1SIFT     (SIFT2047) (12:37) (15MAR04) Ordinary Symbol and Literal Cross Reference                                          Page  165
               3 00005DF9 00000001     C   35891 35890
 $$$FCHAR157T
               1 00005DFD 00000001     C   35893 35892
 $$$FCHAR158
               2 00005E00 00000001     H   35898 35885
 $$$FCHAR158C
               3 00005E0D 00000001     C   35905 35904
 $$$FCHAR158T
               1 00005E11 00000001     C   35907 35906
 $$$FCHAR159
               2 00005E14 00000001     H   35912 35899
 $$$FCHAR159C
               3 00005E21 00000001     C   35919 35918
 $$$FCHAR159T
               1 00005E25 00000001     C   35921 35920
 $$$FCHAR16
               2 00005154 00000001     H   33922 33910
 $$$FCHAR16C
               5 00005161 00000001     C   33929 33928
 $$$FCHAR160
               2 00005E28 00000001     H   35926 35913
 $$$FCHAR160C
               3 00005E35 00000001     C   35933 35932
 $$$FCHAR160T
               1 00005E39 00000001     C   35935 35934
 $$$FCHAR161
               2 00005E3C 00000001     H   35940 35927
 $$$FCHAR161C
               3 00005E49 00000001     C   35947 35946
 $$$FCHAR161T
               1 00005E4D 00000001     C   35949 35948
 $$$FCHAR162
               2 00005E50 00000001     H   35954 35941
 $$$FCHAR162C
               6 00005E5D 00000001     C   35961 35960
 $$$FCHAR162T
               7 00005E64 00000001     C   35963 35962
 $$$FCHAR163
               2 00005E6C 00000001     H   35968 35955
 $$$FCHAR163C
               3 00005E79 00000001     C   35975 35974
 $$$FCHAR163T
               2 00005E7D 00000001     C   35977 35976
 $$$FCHAR164
               2 00005E80 00000001     H   35982 35969
 $$$FCHAR164C
               3 00005E8D 00000001     C   35989 35988
 $$$FCHAR164T
               4 00005E91 00000001     C   35991 35990
 $$$FCHAR165
               2 00005E98 00000001     H   35996 35983
 $$$FCHAR165C
               6 00005EA5 00000001     C   36003 36002
 $$$FCHAR165T
               7 00005EAC 00000001     C   36005 36004
 $$$FCHAR166
               2 00005EB4 00000001     H   36010 35997
 $$$FCHAR166C
               3 00005EC1 00000001     C   36017 36016
1SIFT     (SIFT2047) (12:37) (15MAR04) Ordinary Symbol and Literal Cross Reference                                          Page  166
 $$$FCHAR166T
               1 00005EC5 00000001     C   36019 36018
 $$$FCHAR167
               2 00005EC8 00000001     H   36024 36011
 $$$FCHAR167C
               3 00005ED5 00000001     C   36031 36030
 $$$FCHAR167T
               1 00005ED9 00000001     C   36033 36032
 $$$FCHAR168
               2 00005EDC 00000001     H   36038 36025
 $$$FCHAR168C
               3 00005EE9 00000001     C   36045 36044
 $$$FCHAR168T
               1 00005EED 00000001     C   36047 36046
 $$$FCHAR169
               2 00005EF0 00000001     H   36052 36039
 $$$FCHAR169C
               3 00005EFD 00000001     C   36059 36058
 $$$FCHAR169T
               1 00005F01 00000001     C   36061 36060
 $$$FCHAR17
               2 00005168 00000001     H   33935 33923
 $$$FCHAR17C
               5 00005175 00000001     C   33942 33941
 $$$FCHAR170
               2 00005F04 00000001     H   36066 36053
 $$$FCHAR170C
               3 00005F11 00000001     C   36073 36072
 $$$FCHAR170T
               1 00005F15 00000001     C   36075 36074
 $$$FCHAR171
               2 00005F18 00000001     H   36080 36067
 $$$FCHAR171C
               4 00005F25 00000001     C   36087 36086
 $$$FCHAR171T
               3 00005F2A 00000001     C   36089 36088
 $$$FCHAR172
               2 00005F30 00000001     H   36094 36081
 $$$FCHAR172C
               4 00005F3D 00000001     C   36101 36100
 $$$FCHAR172T
               3 00005F42 00000001     C   36103 36102
 $$$FCHAR173
               1 00000000 00000001 A   U   36108 36095
 $$$FCHAR18
               2 0000517C 00000001     H   33948 33936
 $$$FCHAR18C
               6 00005189 00000001     C   33955 33954
 $$$FCHAR19
               2 00005190 00000001     H   33961 33949
 $$$FCHAR19C
               7 0000519D 00000001     C   33968 33967
 $$$FCHAR2
               2 00005034 00000001     H   33739 33727
 $$$FCHAR2C
               3 00005041 00000001     C   33746 33745
 $$$FCHAR20
               2 000051A8 00000001     H   33974 33962
 $$$FCHAR20C
1SIFT     (SIFT2047) (12:37) (15MAR04) Ordinary Symbol and Literal Cross Reference                                          Page  167
               7 000051B5 00000001     C   33981 33980
 $$$FCHAR21
               2 000051C0 00000001     H   33987 33975
 $$$FCHAR21C
               8 000051CD 00000001     C   33994 33993
 $$$FCHAR22
               2 000051D8 00000001     H   34000 33988
 $$$FCHAR22C
               8 000051E5 00000001     C   34007 34006
 $$$FCHAR23
               2 000051F0 00000001     H   34013 34001
 $$$FCHAR23C
               8 000051FD 00000001     C   34020 34019
 $$$FCHAR24
               2 00005208 00000001     H   34026 34014
 $$$FCHAR24C
               5 00005215 00000001     C   34033 34032
 $$$FCHAR25
               2 0000521C 00000001     H   34039 34027
 $$$FCHAR25C
               6 00005229 00000001     C   34046 34045
 $$$FCHAR26
               2 00005230 00000001     H   34052 34040
 $$$FCHAR26C
               6 0000523D 00000001     C   34059 34058
 $$$FCHAR27
               2 00005244 00000001     H   34065 34053
 $$$FCHAR27C
               8 00005251 00000001     C   34072 34071
 $$$FCHAR28
               2 0000525C 00000001     H   34078 34066
 $$$FCHAR28C
               9 00005269 00000001     C   34085 34084
 $$$FCHAR29
               2 00005274 00000001     H   34091 34079
 $$$FCHAR29C
               9 00005281 00000001     C   34098 34097
 $$$FCHAR3
               2 00005048 00000001     H   33752 33740
 $$$FCHAR3C
               3 00005055 00000001     C   33759 33758
 $$$FCHAR30
               2 0000528C 00000001     H   34104 34092
 $$$FCHAR30C
               5 00005299 00000001     C   34111 34110
 $$$FCHAR31
               2 000052A0 00000001     H   34117 34105
 $$$FCHAR31C
               6 000052AD 00000001     C   34124 34123
 $$$FCHAR32
               2 000052B4 00000001     H   34130 34118
 $$$FCHAR32C
               6 000052C1 00000001     C   34137 34136
 $$$FCHAR33
               2 000052C8 00000001     H   34143 34131
 $$$FCHAR33C
               6 000052D5 00000001     C   34150 34149
 $$$FCHAR34
               2 000052DC 00000001     H   34156 34144
1SIFT     (SIFT2047) (12:37) (15MAR04) Ordinary Symbol and Literal Cross Reference                                          Page  168
 $$$FCHAR34C
               7 000052E9 00000001     C   34163 34162
 $$$FCHAR35
               2 000052F4 00000001     H   34169 34157
 $$$FCHAR35C
               7 00005301 00000001     C   34176 34175
 $$$FCHAR36
               2 0000530C 00000001     H   34190 34170
 $$$FCHAR36C
               2 00005319 00000001     C   34197 34196
 $$$FCHAR36T
               1 0000531C 00000001     C   34199 34198
 $$$FCHAR37
               2 00005320 00000001     H   34204 34191
 $$$FCHAR37C
               4 0000532D 00000001     C   34211 34210
 $$$FCHAR37T
               3 00005332 00000001     C   34213 34212
 $$$FCHAR38
               2 00005338 00000001     H   34218 34205
 $$$FCHAR38C
               3 00005345 00000001     C   34225 34224
 $$$FCHAR38T
               3 00005349 00000001     C   34227 34226
 $$$FCHAR39
               2 0000534C 00000001     H   34232 34219
 $$$FCHAR39C
               3 00005359 00000001     C   34239 34238
 $$$FCHAR39T
               1 0000535D 00000001     C   34241 34240
 $$$FCHAR4
               2 0000505C 00000001     H   33765 33753
 $$$FCHAR4C
               3 00005069 00000001     C   33772 33771
 $$$FCHAR40
               2 00005360 00000001     H   34246 34233
 $$$FCHAR40C
               3 0000536D 00000001     C   34253 34252
 $$$FCHAR40T
               2 00005371 00000001     C   34255 34254
 $$$FCHAR41
               2 00005374 00000001     H   34260 34247
 $$$FCHAR41C
               2 00005381 00000001     C   34267 34266
 $$$FCHAR41T
               1 00005384 00000001     C   34269 34268
 $$$FCHAR42
               2 00005388 00000001     H   34274 34261
 $$$FCHAR42C
               3 00005395 00000001     C   34281 34280
 $$$FCHAR42T
               2 00005399 00000001     C   34283 34282
 $$$FCHAR43
               2 0000539C 00000001     H   34288 34275
 $$$FCHAR43C
               3 000053A9 00000001     C   34295 34294
 $$$FCHAR43T
              10 000053AD 00000001     C   34297 34296
 $$$FCHAR44
1SIFT     (SIFT2047) (12:37) (15MAR04) Ordinary Symbol and Literal Cross Reference                                          Page  169
               2 000053B8 00000001     H   34302 34289
 $$$FCHAR44C
               3 000053C5 00000001     C   34309 34308
 $$$FCHAR44T
               1 000053C9 00000001     C   34311 34310
 $$$FCHAR45
               2 000053CC 00000001     H   34316 34303
 $$$FCHAR45C
               2 000053D9 00000001     C   34323 34322
 $$$FCHAR45T
               1 000053DC 00000001     C   34325 34324
 $$$FCHAR46
               2 000053E0 00000001     H   34330 34317
 $$$FCHAR46C
               3 000053ED 00000001     C   34337 34336
 $$$FCHAR46T
               1 000053F1 00000001     C   34339 34338
 $$$FCHAR47
               2 000053F4 00000001     H   34344 34331
 $$$FCHAR47C
               3 00005401 00000001     C   34351 34350
 $$$FCHAR47T
               1 00005405 00000001     C   34353 34352
 $$$FCHAR48
               2 00005408 00000001     H   34358 34345
 $$$FCHAR48C
               3 00005415 00000001     C   34365 34364
 $$$FCHAR48T
               1 00005419 00000001     C   34367 34366
 $$$FCHAR49
               2 0000541C 00000001     H   34372 34359
 $$$FCHAR49C
               3 00005429 00000001     C   34379 34378
 $$$FCHAR49T
               1 0000542D 00000001     C   34381 34380
 $$$FCHAR5
               2 00005070 00000001     H   33778 33766
 $$$FCHAR5C
               3 0000507D 00000001     C   33785 33784
 $$$FCHAR50
               2 00005430 00000001     H   34386 34373
 $$$FCHAR50C
               3 0000543D 00000001     C   34393 34392
 $$$FCHAR50T
               1 00005441 00000001     C   34395 34394
 $$$FCHAR51
               2 00005444 00000001     H   34400 34387
 $$$FCHAR51C
               3 00005451 00000001     C   34407 34406
 $$$FCHAR51T
               1 00005455 00000001     C   34409 34408
 $$$FCHAR52
               2 00005458 00000001     H   34414 34401
 $$$FCHAR52C
               3 00005465 00000001     C   34421 34420
 $$$FCHAR52T
               2 00005469 00000001     C   34423 34422
 $$$FCHAR53
               2 0000546C 00000001     H   34428 34415
1SIFT     (SIFT2047) (12:37) (15MAR04) Ordinary Symbol and Literal Cross Reference                                          Page  170
 $$$FCHAR53C
               3 00005479 00000001     C   34435 34434
 $$$FCHAR53T
               1 0000547D 00000001     C   34437 34436
 $$$FCHAR54
               2 00005480 00000001     H   34442 34429
 $$$FCHAR54C
               6 0000548D 00000001     C   34449 34448
 $$$FCHAR54T
               1 00005494 00000001     C   34451 34450
 $$$FCHAR55
               2 00005498 00000001     H   34456 34443
 $$$FCHAR55C
               6 000054A5 00000001     C   34463 34462
 $$$FCHAR55T
               2 000054AC 00000001     C   34465 34464
 $$$FCHAR56
               2 000054B0 00000001     H   34470 34457
 $$$FCHAR56C
               7 000054BD 00000001     C   34477 34476
 $$$FCHAR56T
               1 000054C5 00000001     C   34479 34478
 $$$FCHAR57
               2 000054C8 00000001     H   34484 34471
 $$$FCHAR57C
               6 000054D5 00000001     C   34491 34490
 $$$FCHAR57T
               7 000054DC 00000001     C   34493 34492
 $$$FCHAR58
               2 000054E4 00000001     H   34498 34485
 $$$FCHAR58C
               7 000054F1 00000001     C   34505 34504
 $$$FCHAR58T
               1 000054F9 00000001     C   34507 34506
 $$$FCHAR59
               2 000054FC 00000001     H   34512 34499
 $$$FCHAR59C
               3 00005509 00000001     C   34519 34518
 $$$FCHAR59T
               1 0000550D 00000001     C   34521 34520
 $$$FCHAR6
               2 00005084 00000001     H   33791 33779
 $$$FCHAR6C
               3 00005091 00000001     C   33798 33797
 $$$FCHAR60
               2 00005510 00000001     H   34526 34513
 $$$FCHAR60C
               6 0000551D 00000001     C   34533 34532
 $$$FCHAR60T
               7 00005524 00000001     C   34535 34534
 $$$FCHAR61
               2 0000552C 00000001     H   34540 34527
 $$$FCHAR61C
               8 00005539 00000001     C   34547 34546
 $$$FCHAR61T
               1 00005542 00000001     C   34549 34548
 $$$FCHAR62
               2 00005544 00000001     H   34554 34541
 $$$FCHAR62C
1SIFT     (SIFT2047) (12:37) (15MAR04) Ordinary Symbol and Literal Cross Reference                                          Page  171
               5 00005551 00000001     C   34561 34560
 $$$FCHAR62T
               6 00005557 00000001     C   34563 34562
 $$$FCHAR63
               2 00005560 00000001     H   34568 34555
 $$$FCHAR63C
              10 0000556D 00000001     C   34575 34574
 $$$FCHAR63T
               3 00005578 00000001     C   34577 34576
 $$$FCHAR64
               2 0000557C 00000001     H   34582 34569
 $$$FCHAR64C
               3 00005589 00000001     C   34589 34588
 $$$FCHAR64T
               4 0000558D 00000001     C   34591 34590
 $$$FCHAR65
               2 00005594 00000001     H   34596 34583
 $$$FCHAR65C
               8 000055A1 00000001     C   34603 34602
 $$$FCHAR65T
               9 000055AA 00000001     C   34605 34604
 $$$FCHAR66
               2 000055B4 00000001     H   34610 34597
 $$$FCHAR66C
               9 000055C1 00000001     C   34617 34616
 $$$FCHAR66T
              10 000055CB 00000001     C   34619 34618
 $$$FCHAR67
               2 000055D8 00000001     H   34624 34611
 $$$FCHAR67C
               7 000055E5 00000001     C   34631 34630
 $$$FCHAR67T
               8 000055ED 00000001     C   34633 34632
 $$$FCHAR68
               2 000055F8 00000001     H   34638 34625
 $$$FCHAR68C
              11 00005605 00000001     C   34645 34644
 $$$FCHAR68T
              12 00005611 00000001     C   34647 34646
 $$$FCHAR69
               2 00005620 00000001     H   34652 34639
 $$$FCHAR69C
               4 0000562D 00000001     C   34659 34658
 $$$FCHAR69T
               8 00005632 00000001     C   34661 34660
 $$$FCHAR7
               2 00005098 00000001     H   33804 33792
 $$$FCHAR7C
               3 000050A5 00000001     C   33811 33810
 $$$FCHAR70
               2 0000563C 00000001     H   34666 34653
 $$$FCHAR70C
               4 00005649 00000001     C   34673 34672
 $$$FCHAR70T
               1 0000564E 00000001     C   34675 34674
 $$$FCHAR71
               2 00005650 00000001     H   34680 34667
 $$$FCHAR71C
               4 0000565D 00000001     C   34687 34686
1SIFT     (SIFT2047) (12:37) (15MAR04) Ordinary Symbol and Literal Cross Reference                                          Page  172
 $$$FCHAR71T
               5 00005662 00000001     C   34689 34688
 $$$FCHAR72
               2 00005668 00000001     H   34694 34681
 $$$FCHAR72C
              10 00005675 00000001     C   34701 34700
 $$$FCHAR72T
               1 00005680 00000001     C   34703 34702
 $$$FCHAR73
               2 00005684 00000001     H   34708 34695
 $$$FCHAR73C
               3 00005691 00000001     C   34715 34714
 $$$FCHAR73T
               1 00005695 00000001     C   34717 34716
 $$$FCHAR74
               2 00005698 00000001     H   34722 34709
 $$$FCHAR74C
               3 000056A5 00000001     C   34729 34728
 $$$FCHAR74T
               1 000056A9 00000001     C   34731 34730
 $$$FCHAR75
               2 000056AC 00000001     H   34736 34723
 $$$FCHAR75C
               3 000056B9 00000001     C   34743 34742
 $$$FCHAR75T
               1 000056BD 00000001     C   34745 34744
 $$$FCHAR76
               2 000056C0 00000001     H   34750 34737
 $$$FCHAR76C
               3 000056CD 00000001     C   34757 34756
 $$$FCHAR76T
               1 000056D1 00000001     C   34759 34758
 $$$FCHAR77
               2 000056D4 00000001     H   34764 34751
 $$$FCHAR77C
               8 000056E1 00000001     C   34771 34770
 $$$FCHAR77T
               2 000056EA 00000001     C   34773 34772
 $$$FCHAR78
               2 000056EC 00000001     H   34778 34765
 $$$FCHAR78C
               8 000056F9 00000001     C   34785 34784
 $$$FCHAR78T
               1 00005702 00000001     C   34787 34786
 $$$FCHAR79
               2 00005704 00000001     H   34792 34779
 $$$FCHAR79C
               2 00005711 00000001     C   34799 34798
 $$$FCHAR79T
               1 00005714 00000001     C   34801 34800
 $$$FCHAR8
               2 000050AC 00000001     H   33817 33805
 $$$FCHAR8C
               3 000050B9 00000001     C   33824 33823
 $$$FCHAR80
               2 00005718 00000001     H   34806 34793
 $$$FCHAR80C
               3 00005725 00000001     C   34813 34812
 $$$FCHAR80T
1SIFT     (SIFT2047) (12:37) (15MAR04) Ordinary Symbol and Literal Cross Reference                                          Page  173
               4 00005729 00000001     C   34815 34814
 $$$FCHAR81
               2 00005730 00000001     H   34820 34807
 $$$FCHAR81C
               3 0000573D 00000001     C   34827 34826
 $$$FCHAR81T
               2 00005741 00000001     C   34829 34828
 $$$FCHAR82
               2 00005744 00000001     H   34834 34821
 $$$FCHAR82C
               3 00005751 00000001     C   34841 34840
 $$$FCHAR82T
               2 00005755 00000001     C   34843 34842
 $$$FCHAR83
               2 00005758 00000001     H   34848 34835
 $$$FCHAR83C
               9 00005765 00000001     C   34855 34854
 $$$FCHAR83T
               1 0000576F 00000001     C   34857 34856
 $$$FCHAR84
               2 00005770 00000001     H   34862 34849
 $$$FCHAR84C
               3 0000577D 00000001     C   34869 34868
 $$$FCHAR84T
               2 00005781 00000001     C   34871 34870
 $$$FCHAR85
               2 00005784 00000001     H   34876 34863
 $$$FCHAR85C
               9 00005791 00000001     C   34883 34882
 $$$FCHAR85T
               2 0000579B 00000001     C   34885 34884
 $$$FCHAR86
               2 000057A0 00000001     H   34890 34877
 $$$FCHAR86C
               3 000057AD 00000001     C   34897 34896
 $$$FCHAR86T
               4 000057B1 00000001     C   34899 34898
 $$$FCHAR87
               2 000057B8 00000001     H   34904 34891
 $$$FCHAR87C
               3 000057C5 00000001     C   34911 34910
 $$$FCHAR87T
               1 000057C9 00000001     C   34913 34912
 $$$FCHAR88
               2 000057CC 00000001     H   34918 34905
 $$$FCHAR88C
               3 000057D9 00000001     C   34925 34924
 $$$FCHAR88T
               1 000057DD 00000001     C   34927 34926
 $$$FCHAR89
               2 000057E0 00000001     H   34932 34919
 $$$FCHAR89C
               3 000057ED 00000001     C   34939 34938
 $$$FCHAR89T
               1 000057F1 00000001     C   34941 34940
 $$$FCHAR9
               2 000050C0 00000001     H   33830 33818
 $$$FCHAR9C
               3 000050CD 00000001     C   33837 33836
1SIFT     (SIFT2047) (12:37) (15MAR04) Ordinary Symbol and Literal Cross Reference                                          Page  174
 $$$FCHAR90
               2 000057F4 00000001     H   34946 34933
 $$$FCHAR90C
               3 00005801 00000001     C   34953 34952
 $$$FCHAR90T
               1 00005805 00000001     C   34955 34954
 $$$FCHAR91
               2 00005808 00000001     H   34960 34947
 $$$FCHAR91C
               9 00005815 00000001     C   34967 34966
 $$$FCHAR91T
              10 0000581F 00000001     C   34969 34968
 $$$FCHAR92
               2 0000582C 00000001     H   34974 34961
 $$$FCHAR92C
               9 00005839 00000001     C   34981 34980
 $$$FCHAR92T
              10 00005843 00000001     C   34983 34982
 $$$FCHAR93
               2 00005850 00000001     H   34988 34975
 $$$FCHAR93C
               3 0000585D 00000001     C   34995 34994
 $$$FCHAR93T
               1 00005861 00000001     C   34997 34996
 $$$FCHAR94
               2 00005864 00000001     H   35002 34989
 $$$FCHAR94C
               7 00005871 00000001     C   35009 35008
 $$$FCHAR94T
               1 00005879 00000001     C   35011 35010
 $$$FCHAR95
               2 0000587C 00000001     H   35016 35003
 $$$FCHAR95C
               3 00005889 00000001     C   35023 35022
 $$$FCHAR95T
               1 0000588D 00000001     C   35025 35024
 $$$FCHAR96
               2 00005890 00000001     H   35030 35017
 $$$FCHAR96C
               7 0000589D 00000001     C   35037 35036
 $$$FCHAR96T
               2 000058A5 00000001     C   35039 35038
 $$$FCHAR97
               2 000058A8 00000001     H   35044 35031
 $$$FCHAR97C
               3 000058B5 00000001     C   35051 35050
 $$$FCHAR97T
               2 000058B9 00000001     C   35053 35052
 $$$FCHAR98
               2 000058BC 00000001     H   35058 35045
 $$$FCHAR98C
               3 000058C9 00000001     C   35065 35064
 $$$FCHAR98T
               4 000058CD 00000001     C   35067 35066
 $$$FCHAR99
               2 000058D4 00000001     H   35072 35059
 $$$FCHAR99C
               8 000058E1 00000001     C   35079 35078
 $$$FCHAR99T
1SIFT     (SIFT2047) (12:37) (15MAR04) Ordinary Symbol and Literal Cross Reference                                          Page  175
               2 000058EA 00000001     C   35081 35080
 $$$RDTRC      1 00000000 FFFFFFDA     J    5482  5497   5497
 $$$RFCHAR
               1 00000000 FFFFFFD3     J   30360 30414  30414
 $$$RFDB       1 00000000 FFFFFFE6     J    3257  3365   3365
 $$$RFEB       1 00000000 FFFFFFE7     J    3114  3237   3237
 $$$RFSB       1 00000000 FFFFFFDC     J    5013  5200   5200
 $$$RINWA      1 00000000 FFFFFFD5     J   27374 27474  27474
 $$$ROUTFWA
               1 00000000 FFFFFFD2     J   30430 30456  30456
 $$$ROUTWA
               1 00000000 FFFFFFD4     J   28008 28108  28108
 $$$RPATHD
               1 00000000 FFFFFFE1     J    4616  4689   4689
 $$$RPDB       1 00000000 FFFFFFE2     J    4418  4610   4610
 $$$RPIB       1 00000000 FFFFFFE5     J    3371  3570   3570
 $$$RPSB       1 00000000 FFFFFFDB     J    5210  5471   5471
 $$$RSCB       1 00000000 FFFFFFE4     J    3576  4335   4335
 $$$RSEGCB
               1 00000000 FFFFFFE0     J    4695  4795   4795
 $$$RSIN       1 00000000 FFFFFFE3     J    4341  4412   4412
 $$$RSSB       1 00000000 FFFFFFDD     J    4964  5003   5003
 $$$RSTRC      1 00000000 FFFFFFD9     J    5510  5546   5546
 $$$RSUB       1 00000000 FFFFFFDF     J    4811  4924   4924
 $$$RSYSAWA
               1 00000000 FFFFFFD6     J   13127 13149  13149
 $$$RSYSTWA
               1 00000000 FFFFFFD7     J   13012 13044  13044
 $$$RUSERCVT
               1 00000000 FFFFFFEA     J    2483  2566   2566
 $$$RXLE       1 00000000 FFFFFFDE     J    4931  4950   4950
 $$$RXLTWA
               1 00000000 FFFFFFD1     J   36384 36398  36398
 $$$SEGCB2
               4 000005D4 FFFFFFE9     F    2914  3000   3000
 $$$SEGCB937
               4 00000000 FFFFFFD5     F   27381 27467  27467
 $$$SEGCB964
               4 00000000 FFFFFFD4     F   28015 28101  28101
 $$$1000F      2 00004208 00000001     H   29113 29045B
 $$$1000T      2 000041C8 00000001     H   29048 29034B
 $$$1002F      2 000041F8 00000001     H   29082 29073B
 $$$1007F      2 0000428A 00000001     H   29290 29224B
 $$$1008F      2 0000427A 00000001     H   29259 29250B
 $$$1009F      2 000042FE 00000001     H   29464 29401B
 $$$1010F      2 000042EE 00000001     H   29433 29424B
 $$$1016F      2 00004344 00000001     H   29570 29561B
 $$$1017F      2 00004364 00000001     H   29619 29580B
 $$$1018       6 00004752 00000001     I   29634 29626X
 $$$1019       6 00004752 00000001     I   29633 29634  29634
 $$$102F       2 00000468 00000001     H    7644  7477B
 $$$1020F      2 00004392 00000001     H   29701 29657B 29673B
 $$$1024F      2 00004456 00000001     H   30008 29714B 29734B 29823B 29841B
 $$$1027F      2 000043CE 00000001     H   29808 29765B 29780B
 $$$1027S      2 000043B2 00000001     H   29748 29805B
 $$$103B       4 000003F0 00000001     I    7507  7560
 $$$103F       2 0000041A 00000001     H    7554  7495B  7507B  7557
 $$$1034B      4 000043DE 00000001     I   29860 29968
 $$$1034F      2 00004436 00000001     H   29964 29860B 29967
1SIFT     (SIFT2047) (12:37) (15MAR04) Ordinary Symbol and Literal Cross Reference                                          Page  176
 $$$1035F      2 00004436 00000001     H   29960 29894B
 $$$1036F      2 00004426 00000001     H   29929 29920B
 $$$1037E      2 0000443A 00000001     H   29975 29969
 $$$1037F      2 00004446 00000001     H   29999 29971B
 $$$1038F      2 000044DA 00000001     H   30219 30046B
 $$$104B       4 000003E8 00000001     I    7495  7558
 $$$1041F      2 00004494 00000001     H   30105 30087B
 $$$1043F      2 000044DA 00000001     H   30215 30120B
 $$$1043S      2 00004494 00000001     H   30114 30214B
 $$$1045F      2 000044BE 00000001     H   30174 30136B
 $$$1047       1 00000060 00000001 A   U   30280 30273  30277  30279
 $$$105E       2 0000041E 00000001     H    7567  7559   7561
 $$$105F       2 00000468 00000001     H    7640  7563B  7579B
 $$$1052B      1 00004762 00000001     X   30477 30484U
 $$$1053F      2 000047A4 00000001     H   30598 30547B 30580B
 $$$1054F      2 0000479A 00000001     H   30583 30565B
 $$$1056F      2 000047B0 00000001     H   30618 30609B
 $$$1057F      2 000047C4 00000001     H   30658 30634B
 $$$1058       6 000049A4 00000001     I   30648 30640X
 $$$1059       6 000049A4 00000001     I   30647 30648  30648
 $$$1060F      2 0000485C 00000001     H   30938 30692B
 $$$1060S      2 000047D8 00000001     H   30686 30937B
 $$$1062F      2 000047F0 00000001     H   30722 30713B
 $$$1063F      2 00004802 00000001     H   30761 30737B
 $$$1064       6 000049AA 00000001     I   30751 30743X
 $$$1065       6 000049AA 00000001     I   30750 30751  30751
 $$$1066B      4 00004810 00000001     I   30780 30814
 $$$1066F      2 0000481E 00000001     H   30809 30780B 30813
 $$$1068B      4 00004826 00000001     I   30830 30864
 $$$1068E      2 00004822 00000001     H   30821 30815
 $$$1068F      2 00004834 00000001     H   30859 30817B 30830B 30863
 $$$1071E      2 00004838 00000001     H   30871 30865
 $$$1071F      2 00004854 00000001     H   30931 30867B 30880B
 $$$1073F      2 00004854 00000001     H   30927 30898B
 $$$1075F      2 000048CA 00000001     H   31073 31009B
 $$$1076F      2 000048DA 00000001     H   31096 31085B
 $$$1077F      2 00004946 00000001     H   31271 31112B 31129B
 $$$1079F      2 00004906 00000001     H   31184 31145B
 $$$108F       2 00000468 00000001     H    7631  7620B
 $$$1080       1 00000098 00000001 A   U   31350 31343  31347  31349
 $$$1082B      1 000049BA 00000001     X   31401 31408U
 $$$1083       1 0000002C 00000001 A   U   31463 31457  31460  31462
 $$$1085B      1 000049F0 00000001     X   31483 31490U
 $$$1086       1 0000002C 00000001 A   U   31546 31540  31543  31545
 $$$1088B      1 00004A26 00000001     X   31566 31573U
 $$$1089       1 0000002C 00000001 A   U   31628 31622  31625  31627
 $$$109F       2 00000476 00000001     H    7674  7658B
 $$$1091B      1 00004A5C 00000001     X   31648 31655U
 $$$1092       1 0000002C 00000001 A   U   31711 31705  31708  31710
 $$$1094B      1 00004A92 00000001     X   31731 31738U
 $$$1095       1 0000002C 00000001 A   U   31793 31787  31790  31792
 $$$1097B      1 00004AC8 00000001     X   31813 31820U
 $$$1098       1 0000002C 00000001 A   U   31876 31870  31873  31875
 $$$110F       2 0000049E 00000001     H    7726  7690B
 $$$110S       2 0000047E 00000001     H    7683  7725B
 $$$1100B      1 00004AFE 00000001     X   31896 31903U
 $$$1101       1 0000002C 00000001 A   U   31958 31952  31955  31957
 $$$1103B      1 00004B34 00000001     X   31978 31985U
 $$$1104       1 0000002C 00000001 A   U   32041 32035  32038  32040
1SIFT     (SIFT2047) (12:37) (15MAR04) Ordinary Symbol and Literal Cross Reference                                          Page  177
 $$$1106B      1 00004B6A 00000001     X   32061 32068U
 $$$1107       1 0000002C 00000001 A   U   32123 32117  32120  32122
 $$$1109B      1 00004BA0 00000001     X   32143 32150U
 $$$1110       1 0000002C 00000001 A   U   32206 32200  32203  32205
 $$$1112B      1 00004BD6 00000001     X   32226 32233U
 $$$1113       1 0000002C 00000001 A   U   32289 32283  32286  32288
 $$$1115B      1 00004C0C 00000001     X   32309 32316U
 $$$1116F      2 00004CBC 00000001     H   32565 32352B
 $$$1117F      2 00004CAC 00000001     H   32546 32383B
 $$$1118F      2 00004C64 00000001     H   32437 32413B
 $$$1119F      2 00004C7C 00000001     H   32472 32448B
 $$$112F       2 00000496 00000001     H    7720  7703B
 $$$1120F      2 00004C94 00000001     H   32507 32483B
 $$$1121F      2 00004CAC 00000001     H   32542 32518B
 $$$1122       1 0000002C 00000001 A   U   32587 32581  32584  32586
 $$$1124B      1 00004CDA 00000001     X   32607 32614U
 $$$1125       1 0000002C 00000001 A   U   32667 32661  32664  32666
 $$$1127B      1 00004D14 00000001     X   32687 32694U
 $$$1128       1 0000002C 00000001 A   U   32747 32741  32744  32746
 $$$1130B      1 00004D4E 00000001     X   32767 32774U
 $$$1131       1 0000002C 00000001 A   U   32827 32821  32824  32826
 $$$1133B      1 00004D88 00000001     X   32847 32854U
 $$$1134       1 0000002C 00000001 A   U   32907 32901  32904  32906
 $$$1136B      1 00004DC2 00000001     X   32927 32934U
 $$$1137       1 0000002C 00000001 A   U   32987 32981  32984  32986
 $$$1139B      1 00004DFC 00000001     X   33007 33014U
 $$$114F       2 000004C6 00000001     H    7808  7776B
 $$$114S       2 000004B0 00000001     H    7748  7807B
 $$$1140       1 0000002C 00000001 A   U   33067 33061  33064  33066
 $$$1142B      1 00004E36 00000001     X   33087 33094U
 $$$1143       1 0000002C 00000001 A   U   33147 33141  33144  33146
 $$$1145B      1 00004E70 00000001     X   33167 33174U
 $$$1146       1 0000002C 00000001 A   U   33252 33246  33249  33251
 $$$1148B      1 00004EC4 00000001     X   33272 33279U
 $$$1149       1 0000002C 00000001 A   U   33357 33351  33354  33356
 $$$1151B      1 00004F18 00000001     X   33377 33384U
 $$$1152       1 0000002C 00000001 A   U   33446 33440  33443  33445
 $$$1154B      1 00004F56 00000001     X   33466 33473U
 $$$1155F      2 00004FB2 00000001     H   33583 33509B
 $$$1156       1 00000008 00000001 A   U   33542 33538  33541
 $$$1157       1 0000002C 00000001 A   U   33605 33599  33602  33604
 $$$1159B      1 00005F52 00000001     X   36133 36140U
 $$$1160F      2 00005F76 00000001     H   36194 36178B
 $$$1161F      2 00005F92 00000001     H   36238 36208B 36222B
 $$$1163F      2 00005FDA 00000001     H   36334 36266B
 $$$1163T      2 00005FA6 00000001     H   36269 36254B
 $$$1165F      2 00005FCE 00000001     H   36318 36285B
 $$$1165S      2 00005FAE 00000001     H   36278 36317B
 $$$1167F      2 00005FC6 00000001     H   36312 36302B
 $$$1168F      2 00005FE8 00000001     H   36355 36345B
 $$$1169       1 0000002C 00000001 A   U   36377 36371  36374  36376
 $$$1171B      1 00006006 00000001     X   36433 36440U
 $$$1173F      2 0000603A 00000001     H   36510 36501B
 $$$1174       6 00006448 00000001     I   36528 36520X
 $$$1175       6 00006448 00000001     I   36527 36528  36528
 $$$1176F      2 00006094 00000001     H   36615 36541B
 $$$1177F      2 00006060 00000001     H   36569 36558B
 $$$1178F      2 0000608A 00000001     H   36606 36582B
 $$$1180F      2 000060BE 00000001     H   36649 36637B
1SIFT     (SIFT2047) (12:37) (15MAR04) Ordinary Symbol and Literal Cross Reference                                          Page  178
 $$$1180S      2 000060A4 00000001     H   36628 36648B
 $$$1182F      2 000060CA 00000001     H   36687 36660B
 $$$1183       6 0000644E 00000001     I   36677 36669X
 $$$1184       6 0000644E 00000001     I   36676 36677  36677
 $$$1185       1 00000038 00000001 A   U   36713 36706  36710  36712
 $$$1187B      1 000060F0 00000001     X   36743 36750U
 $$$1189F      2 00006118 00000001     H   36810 36799B
 $$$119F       2 000004EA 00000001     H    7837  7827B
 $$$1190F      2 00006124 00000001     H   36834 36821B
 $$$1191F      2 00006132 00000001     H   36854 36845B
 $$$1192       1 00000004 00000001 A   U   36874 36871  36873
 $$$1193F      2 000061AC 00000001     H   36966 36951B
 $$$1195B      4 000061B2 00000001     I   36980 36994
 $$$1195F      2 000061BE 00000001     H   36990 36980B 36993
 $$$1196E      2 000061C2 00000001     H   37001 36995
 $$$1196F      2 000061CA 00000001     H   37008 36997B
 $$$1197F      2 000061F0 00000001     H   37081 37033B
 $$$1197S      2 000061D6 00000001     H   37024 37080B
 $$$1199       1 0000002C 00000001 A   U   37114 37108  37111  37113
 $$$120F       2 0000050A 00000001     H    7867  7853B
 $$$120S       2 000004F0 00000001     H    7845  7866B
 $$$1200F      2 0000631C 00000001     H   37530 37227B
 $$$1201B      1 0000620E 00000001     X   37145 37152U
 $$$1203F      2 00006236 00000001     H   37203 37192B
 $$$1204F      2 00006244 00000001     H   37231 37215B
 $$$1205F      2 00006260 00000001     H   37298 37268B
 $$$1205S      2 0000624A 00000001     H   37260 37297B
 $$$1209B      4 0000627C 00000001     I   37326 37367
 $$$1209F      2 00006296 00000001     H   37363 37326B 37366
 $$$1210F      2 00006296 00000001     H   37359 37343B
 $$$1211E      2 0000629A 00000001     H   37374 37368
 $$$1211F      2 000062D2 00000001     H   37446 37370B
 $$$1213F      2 000062BE 00000001     H   37414 37403B
 $$$1214F      2 000062D2 00000001     H   37437 37427B
 $$$1216F      2 000062F6 00000001     H   37489 37478B
 $$$1217       1 0000002C 00000001 A   U   37538 37532  37535  37537
 $$$1218F      2 00006378 00000001     H   37682 37649B 37658B
 $$$1219B      1 0000633A 00000001     X   37570 37577U
 $$$122        1 0000002C 00000001 A   U    7901  7895   7898   7900
 $$$1220F      2 00006374 00000001     H   37667 37618B
 $$$1220S      2 0000634E 00000001     H   37610 37666B
 $$$1222F      2 00006370 00000001     H   37662 37635B
 $$$1224       1 0000002C 00000001 A   U   37690 37684  37687  37689
 $$$1225F      2 000063F0 00000001     H   37905 37861B 37879B
 $$$1226B      1 00006396 00000001     X   37721 37728U
 $$$1227F      2 000063D0 00000001     H   37841 37789B
 $$$1230       1 0000002C 00000001 A   U   37913 37907  37910  37912
 $$$1232B      1 0000645E 00000001     X   37980 37987U
 $$$1233       1 0000002C 00000001 A   U   38045 38039  38042  38044
 $$$1234F      2 0000650E 00000001     H   38227 38137B
 $$$1235B      1 0000649A 00000001     X   38078 38085U
 $$$1237B      4 000064E2 00000001     I   38164 38191
 $$$1237F      2 000064FE 00000001     H   38187 38164B 38190
 $$$1239E      2 00006502 00000001     H   38198 38192
 $$$1239F      2 0000650C 00000001     H   38208 38194B
 $$$124B       1 000005B6 00000001     X    8024  8031U
 $$$1240       1 0000002C 00000001 A   U   38235 38229  38232  38234
 $$$125F       2 00000696 00000001     H    8381  8078B
 $$$125S       2 000005CA 00000001     H    8052  8092B  8340B  8380B
1SIFT     (SIFT2047) (12:37) (15MAR04) Ordinary Symbol and Literal Cross Reference                                          Page  179
 $$$129F       2 00000608 00000001     H    8171  8112B
 $$$132        4 000006CC 00000001     I    8150  8142X
 $$$133        4 000006CC 00000001     I    8149  8150   8150
 $$$134F       2 0000061C 00000001     H    8200  8186B
 $$$136F       2 00000676 00000001     H    8323  8215B
 $$$139        4 000006D2 00000001     I    8253  8245X
 $$$140        4 000006D2 00000001     I    8252  8253   8253
 $$$141F       2 00000676 00000001     H    8319  8280B  8309B
 $$$141S       2 00000642 00000001     H    8272  8318B
 $$$145F       2 00000692 00000001     H    8371  8358B
 $$$147        1 0000002C 00000001 A   U    8398  8392   8395   8397
 $$$149B       1 000006E0 00000001     X    8445  8452U
 $$$151        4 0000160E 00000001     I    8513  8505X
 $$$152        4 0000160E 00000001     I    8512  8513   8513
 $$$154F       2 00000776 00000001     H    8645  8592B
 $$$156F       2 0000076E 00000001     H    8638  8627B
 $$$156T       2 00000756 00000001     H    8630  8615B
 $$$160F       2 0000091A 00000001     H    9162  8691B
 $$$161F       2 000007C8 00000001     H    8721  8709B
 $$$162F       2 000007D8 00000001     H    8747  8735B
 $$$163F       2 00000916 00000001     H    9157  8761B
 $$$164F       2 00000804 00000001     H    8836  8802B
 $$$164S       2 000007E4 00000001     H    8794  8835B
 $$$166F       2 00000800 00000001     H    8831  8820B
 $$$168F       2 000008A8 00000001     H    9057  8910B  8948B
 $$$170F       2 000008A8 00000001     H    9053  8974B
 $$$172F       2 000008A4 00000001     H    9043  9006B  9026B
 $$$174        1 0000005C 00000001 A   U    9035  9033
 $$$175        1 0000005C 00000001 A   U    9061  9059
 $$$176F       2 000008FC 00000001     H    9117  9107B
 $$$177F       2 00000916 00000001     H    9153  9132B
 $$$178F       2 0000092E 00000001     H    9193  9181B
 $$$179F       2 00000948 00000001     H    9218  9206B
 $$$180F       2 00000958 00000001     H    9256  9245B
 $$$181        1 0000002C 00000001 A   U    9312  9306   9309   9311
 $$$183B       1 00000992 00000001     X    9345  9352U
 $$$184F       2 000009CC 00000001     H    9454  9443B
 $$$184T       2 000009C4 00000001     H    9446  9430B
 $$$186F       2 00000A00 00000001     H    9578  9503B
 $$$186T       2 000009E4 00000001     H    9506  9491B
 $$$188F       2 00000A00 00000001     H    9574  9538B
 $$$188T       2 000009F4 00000001     H    9541  9525B
 $$$190F       2 00000A00 00000001     H    9570  9555B
 $$$193F       2 00000A64 00000001     H    9802  9612B
 $$$193T       2 00000A10 00000001     H    9615  9599B
 $$$195F       2 00000A30 00000001     H    9672  9639B  9657B
 $$$198F       2 00000A64 00000001     H    9798  9691B
 $$$199F       2 00000A48 00000001     H    9732  9717B
 $$$201F       2 00000A54 00000001     H    9759  9744B
 $$$203F       2 00000A64 00000001     H    9794  9779B
 $$$205F       2 00000ACE 00000001     H    9949  9825B
 $$$207F       2 00000A8E 00000001     H    9873  9861B
 $$$208F       2 00000AA0 00000001     H    9897  9885B
 $$$209F       2 00000AEA 00000001     H   10001  9964B
 $$$210F       2 00000AE6 00000001     H    9991  9979B
 $$$211F       2 00000AFA 00000001     H   10027 10018B
 $$$212F       2 00000BE6 00000001     H   10410 10059B 10097B
 $$$212T       2 00000B0E 00000001     H   10062 10047B
 $$$214F       2 00000B1E 00000001     H   10100 10080B
1SIFT     (SIFT2047) (12:37) (15MAR04) Ordinary Symbol and Literal Cross Reference                                          Page  180
 $$$216F       2 00000B50 00000001     H   10165 10117B 10131B
 $$$218F       2 00000BE6 00000001     H   10406 10178B
 $$$220F       2 00000BC8 00000001     H   10382 10193B 10247B 10278B
 $$$225F       2 00000B8A 00000001     H   10303 10294B
 $$$226F       2 00000B96 00000001     H   10322 10313B
 $$$228F       2 00000C66 00000001     H   10704 10428B
 $$$229F       2 00000C06 00000001     H   10491 10449B
 $$$233F       2 00000C06 00000001     H   10487 10471B
 $$$235F       2 00000C12 00000001     H   10524 10508B
 $$$239F       2 00000C26 00000001     H   10572 10537B
 $$$241F       2 00000C26 00000001     H   10568 10552B
 $$$243F       2 00000C3A 00000001     H   10620 10585B
 $$$245F       2 00000C3A 00000001     H   10616 10600B
 $$$247F       2 00000C46 00000001     H   10649 10633B
 $$$250F       2 00000C5A 00000001     H   10697 10662B
 $$$252F       2 00000C5A 00000001     H   10693 10677B
 $$$254F       2 00000C72 00000001     H   10735 10721B
 $$$255F       2 00000D26 00000001     H   11050 10752B
 $$$256F       2 00000C96 00000001     H   10789 10771B
 $$$258F       2 00000CB6 00000001     H   10859 10806B
 $$$259F       2 00000CB6 00000001     H   10855 10823B
 $$$260F       2 00000CD0 00000001     H   10893 10875B
 $$$262F       2 00000D08 00000001     H   11022 10935B
 $$$262S       2 00000CD4 00000001     H   10900 11021B
 $$$265F       2 00000D04 00000001     H   11003 10953B
 $$$267F       2 00000D00 00000001     H   10998 10988B
 $$$270F       2 00000D6C 00000001     H   11153 11099B 11116B
 $$$270T       2 00000D3E 00000001     H   11102 11071B 11086B
 $$$274F       2 00000D56 00000001     H   11140 11130B
 $$$275F       2 00000D86 00000001     H   11205 11185B
 $$$275T       2 00000D7C 00000001     H   11188 11172B
 $$$277F       2 00000DC8 00000001     H   11294 11220B 11233B 11270B
 $$$279F       2 00000DAA 00000001     H   11273 11253B
 $$$281F       2 00000E10 00000001     H   11383 11309B
 $$$282F       2 00000DE8 00000001     H   11338 11325B
 $$$283F       2 00000DFE 00000001     H   11372 11356B
 $$$285F       2 00000E22 00000001     H   11410 11397B
 $$$286F       2 00000E7C 00000001     H   11577 11424B
 $$$287F       2 00000E7C 00000001     H   11573 11459B
 $$$287T       2 00000E3A 00000001     H   11462 11446B
 $$$289F       2 00000E4A 00000001     H   11488 11478B
 $$$290F       2 00000E6A 00000001     H   11551 11500B 11518B
 $$$293F       2 00000E6A 00000001     H   11547 11538B
 $$$294F       2 00000E8E 00000001     H   11604 11591B
 $$$295F       2 00000EC4 00000001     H   11687 11653B
 $$$295T       2 00000EA6 00000001     H   11656 11625B 11640B
 $$$298F       2 00000EC0 00000001     H   11682 11670B
 $$$299F       2 00000ED4 00000001     H   11714 11702B
 $$$300F       2 00000F04 00000001     H   11782 11731B
 $$$301F       2 00000EEA 00000001     H   11756 11746B
 $$$302F       2 0000100C 00000001     H   12138 11799B
 $$$303F       2 00000F42 00000001     H   11891 11822B
 $$$303S       2 00000F16 00000001     H   11815 11890B
 $$$305F       2 00000F2C 00000001     H   11852 11838B
 $$$306F       2 00000F3A 00000001     H   11885 11864B 11875B
 $$$308F       2 00000F68 00000001     H   11930 11909B
 $$$309F       2 00000F74 00000001     H   11958 11943B
 $$$313F       2 00000F8C 00000001     H   12004 11988B
 $$$314F       2 00000FA4 00000001     H   12045 12023B 12035B
1SIFT     (SIFT2047) (12:37) (15MAR04) Ordinary Symbol and Literal Cross Reference                                          Page  181
 $$$317F       2 00000FCE 00000001     H   12084 12072B
 $$$318F       2 00000FDA 00000001     H   12108 12095B
 $$$320F       2 00001042 00000001     H   12208 12185B
 $$$320T       2 00001024 00000001     H   12188 12157B 12172B
 $$$323        1 0000002C 00000001 A   U   12267 12261  12264  12266
 $$$324F       2 000010EC 00000001     H   12504 12355B 12373B 12393B
 $$$325B       1 00001082 00000001     X   12298 12305U
 $$$329B       4 000010D0 00000001     I   12433 12446
 $$$329F       2 000010D8 00000001     H   12443 12433B 12445
 $$$330E       2 000010DC 00000001     H   12453 12447
 $$$330F       2 000010EA 00000001     H   12480 12449B
 $$$331F       2 000010E6 00000001     H   12475 12462B
 $$$332        1 0000002C 00000001 A   U   12512 12506  12509  12511
 $$$334B       1 0000110A 00000001     X   12537 12544U
 $$$335F       2 0000113C 00000001     H   12638 12603B 12623B
 $$$337        1 0000002C 00000001 A   U   12670 12664  12667  12669
 $$$338F       2 00001330 00000001     H   13259 13008B 13240B
 $$$339B       1 0000115C 00000001     X   12695 12702U
 $$$341F       2 00001196 00000001     H   12761 12750B
 $$$343F       2 000011BE 00000001     H   12788 12777B
 $$$344F       2 00001230 00000001     H   12976 12806B
 $$$345F       2 00001230 00000001     H   12972 12825B
 $$$346F       2 000011E8 00000001     H   12854 12844B
 $$$347F       2 000011FE 00000001     H   12891 12881B
 $$$347T       2 000011FA 00000001     H   12884 12869B
 $$$354F       2 00001282 00000001     H   13110 13095B
 $$$355        1 0000002C 00000001 A   U   13267 13261  13264  13266
 $$$357B       1 00001354 00000001     X   13299 13306U
 $$$359F       2 0000138A 00000001     H   13365 13354B
 $$$360F       2 000013C0 00000001     H   13451 13399B
 $$$360T       2 0000139A 00000001     H   13402 13386B
 $$$362F       2 000013B2 00000001     H   13441 13425B
 $$$364        1 0000002C 00000001 A   U   13482 13476  13479  13481
 $$$365F       2 00001452 00000001     H   13708 13669B
 $$$366B       1 000013E0 00000001     X   13511 13518U
 $$$367F       2 00001450 00000001     H   13680 13577B
 $$$367S       2 000013F8 00000001     H   13570 13679B
 $$$369F       2 00001448 00000001     H   13673 13592B 13611B 13631B
 $$$374        1 0000002C 00000001 A   U   13716 13710  13713  13715
 $$$376B       1 00001472 00000001     X   13745 13752U
 $$$377F       2 0000149C 00000001     H   13815 13801B
 $$$378        1 0000002C 00000001 A   U   13872 13866  13869  13871
 $$$379F       2 000024AC 00000001     H   19829 14251B
 $$$380B       1 0000161C 00000001     X   13965 13972U
 $$$381F       2 0000166C 00000001     H   14108 14054B
 $$$383F       2 0000165A 00000001     H   14099 14089B
 $$$384F       2 00001676 00000001     H   14135 14122B
 $$$385F       2 0000178C 00000001     H   14276 14265B
 $$$387F       2 000017C0 00000001     H   14378 14335B 14348B
 $$$390F       2 000017FE 00000001     H   14504 14401B 14436B 14457B
 $$$391F       2 000017DA 00000001     H   14439 14420B
 $$$396F       2 00001818 00000001     H   14562 14515B
 $$$397F       2 00001818 00000001     H   14558 14534B
 $$$398        6 00002574 00000001     I   14548 14540X
 $$$399        6 00002574 00000001     I   14547 14548  14548
 $$$400F       2 00001826 00000001     H   14584 14573B
 $$$401F       2 0000185C 00000001     H   14669 14598B 14618B 14638B 14658B
 $$$405F       2 00001876 00000001     H   14711 14687B 14701B
 $$$405S       2 00001860 00000001     H   14677 14710B
1SIFT     (SIFT2047) (12:37) (15MAR04) Ordinary Symbol and Literal Cross Reference                                          Page  182
 $$$408F       2 00001B62 00000001     H   16006 14727B
 $$$408S       2 00001882 00000001     H   14721 16005B
 $$$410F       2 0000189E 00000001     H   14770 14743B
 $$$413F       2 000018C2 00000001     H   14849 14804B
 $$$419F       2 0000195A 00000001     H   15121 14883B 14952B 14987B
 $$$421F       2 000018EC 00000001     H   14916 14906B
 $$$422F       2 00001900 00000001     H   14938 14928B
 $$$424F       2 00001918 00000001     H   14990 14972B
 $$$432F       2 0000197A 00000001     H   15183 15134B
 $$$435F       2 000019AA 00000001     H   15281 15196B
 $$$440F       2 000019C4 00000001     H   15336 15297B 15310B
 $$$443F       2 000019F4 00000001     H   15455 15350B
 $$$446F       2 000019F4 00000001     H   15451 15405B
 $$$448F       2 00001A06 00000001     H   15489 15470B
 $$$450F       2 00001B0A 00000001     H   15890 15503B
 $$$452F       2 00001A36 00000001     H   15551 15540B
 $$$454F       2 00001A56 00000001     H   15577 15566B
 $$$456F       2 00001A7A 00000001     H   15617 15606B
 $$$457F       2 00001AA8 00000001     H   15682 15656B 15669B
 $$$457S       2 00001A8C 00000001     H   15648 15681B
 $$$460F       2 00001AD6 00000001     H   15779 15692B
 $$$461F       2 00001ABA 00000001     H   15715 15706B
 $$$462F       2 00001ACC 00000001     H   15754 15730B
 $$$463        6 0000257A 00000001     I   15744 15736X
 $$$464        6 0000257A 00000001     I   15743 15744  15744
 $$$467F       2 00001AEE 00000001     H   15819 15810B
 $$$468F       2 00001B02 00000001     H   15859 15835B
 $$$469        6 00002580 00000001     I   15849 15841X
 $$$470        6 00002580 00000001     I   15848 15849  15849
 $$$471        6 00002586 00000001     I   15869 15861X
 $$$472        6 00002586 00000001     I   15868 15869  15869
 $$$473F       2 00001B2E 00000001     H   15928 15903B
 $$$475F       2 00001B3A 00000001     H   15947 15938B
 $$$476S       2 00001B48 00000001     H   15957 15994B
 $$$477        6 0000258C 00000001     I   15968 15960X
 $$$478        6 0000258C 00000001     I   15967 15968  15968
 $$$483F       2 00001BC6 00000001     H   16122 16104B
 $$$484F       2 00001BD2 00000001     H   16161 16137B
 $$$485        6 00002592 00000001     I   16151 16143X
 $$$486        6 00002592 00000001     I   16150 16151  16151
 $$$487F       2 00001BFC 00000001     H   16216 16182B
 $$$489F       2 00001C36 00000001     H   16332 16255B 16268B
 $$$492F       2 00001C54 00000001     H   16387 16358B
 $$$492S       2 00001C3E 00000001     H   16350 16386B
 $$$495B       4 00001C62 00000001     I   16404 16417
 $$$495F       2 00001C6A 00000001     H   16414 16404B 16416
 $$$496E       2 00001C6E 00000001     H   16424 16418
 $$$496F       2 00001C70 00000001     H   16434 16420B
 $$$497F       2 00001C84 00000001     H   16465 16448B
 $$$498F       2 00001CA6 00000001     H   16493 16483B
 $$$499F       2 00001CC6 00000001     H   16539 16522B
 $$$502F       2 00001CF0 00000001     H   16639 16555B
 $$$507F       2 00001D0E 00000001     H   16684 16658B 16671B
 $$$507S       2 00001CF2 00000001     H   16650 16683B
 $$$510F       2 00001D3C 00000001     H   16781 16694B
 $$$511F       2 00001D20 00000001     H   16717 16708B
 $$$512F       2 00001D32 00000001     H   16756 16732B
 $$$513        6 00002598 00000001     I   16746 16738X
 $$$514        6 00002598 00000001     I   16745 16746  16746
1SIFT     (SIFT2047) (12:37) (15MAR04) Ordinary Symbol and Literal Cross Reference                                          Page  183
 $$$517F       2 00001D54 00000001     H   16822 16813B
 $$$518F       2 00001D66 00000001     H   16861 16837B
 $$$519        6 0000259E 00000001     I   16851 16843X
 $$$520        6 0000259E 00000001     I   16850 16851  16851
 $$$521F       2 00001D72 00000001     H   16883 16873B
 $$$523        6 000025A4 00000001     I   16893 16885X
 $$$524        6 000025A4 00000001     I   16892 16893  16893
 $$$525F       2 00001DD4 00000001     H   17008 16974B
 $$$527F       2 00001E10 00000001     H   17137 17049B 17062B
 $$$530F       2 00001E30 00000001     H   17199 17170B
 $$$530S       2 00001E1A 00000001     H   17162 17198B
 $$$533F       2 00001E50 00000001     H   17242 17224B
 $$$536F       2 00001E66 00000001     H   17294 17277B
 $$$539F       2 00001E78 00000001     H   17330 17312B
 $$$541F       2 00001E86 00000001     H   17353 17344B
 $$$542F       2 00001E98 00000001     H   17392 17368B
 $$$543        6 000025AA 00000001     I   17382 17374X
 $$$544        6 000025AA 00000001     I   17381 17382  17382
 $$$545F       2 00001EA4 00000001     H   17414 17404B
 $$$547        6 000025B0 00000001     I   17424 17416X
 $$$548        6 000025B0 00000001     I   17423 17424  17424
 $$$551F       2 00001F16 00000001     H   17619 17577B
 $$$551S       2 00001EF8 00000001     H   17550 17618B
 $$$555F       2 00001F28 00000001     H   17648 17635B
 $$$557F       2 00001F9E 00000001     H   17846 17732B
 $$$557S       2 00001F52 00000001     H   17697 17750B 17770B 17845B
 $$$562F       2 00001F9A 00000001     H   17827 17788B
 $$$567F       2 00001FFE 00000001     H   18000 17976B
 $$$568        6 000025B6 00000001     I   17990 17982X
 $$$569        6 000025B6 00000001     I   17989 17990  17990
 $$$57B        1 00000022 00000001     X    6322  6329U
 $$$571F       2 00002024 00000001     H   18089 18054B
 $$$571S       2 0000200C 00000001     H   18027 18088B
 $$$578F       2 00002094 00000001     H   18216 18207B
 $$$578S       2 0000206E 00000001     H   18168 18215B
 $$$579F       2 0000207E 00000001     H   18192 18181B
 $$$58F        2 000000C6 00000001     H    6430  6403B
 $$$58S        2 000000A2 00000001     H    6395  6429B
 $$$583F       2 000020F0 00000001     H   18334 18319B
 $$$584F       2 0000210E 00000001     H   18375 18349B 18362B
 $$$586F       2 00002154 00000001     H   18493 18390B 18403B
 $$$588F       2 00002194 00000001     H   18585 18553B
 $$$588S       2 0000217E 00000001     H   18525 18584B
 $$$595F       2 00002208 00000001     H   18720 18692B
 $$$597F       2 0000223A 00000001     H   18768 18750B
 $$$60         1 0000002C 00000001 A   U    6448  6442   6445   6447
 $$$600F       2 00002294 00000001     H   18912 18884B
 $$$602F       2 000022C8 00000001     H   18997 18963B
 $$$604F       2 000022F0 00000001     H   19080 19051B 19070B
 $$$604S       2 000022DA 00000001     H   19043 19079B
 $$$610F       2 00002342 00000001     H   19194 19182B
 $$$611F       2 00002356 00000001     H   19215 19206B
 $$$612F       2 00002362 00000001     H   19253 19229B
 $$$613        6 000025BC 00000001     I   19243 19235X
 $$$614        6 000025BC 00000001     I   19242 19243  19243
 $$$615F       2 00002388 00000001     H   19324 19290B
 $$$617F       2 000023B0 00000001     H   19407 19378B 19397B
 $$$617S       2 0000239A 00000001     H   19370 19406B
 $$$62B        1 00000126 00000001     X    6561  6568U
1SIFT     (SIFT2047) (12:37) (15MAR04) Ordinary Symbol and Literal Cross Reference                                          Page  184
 $$$622F       2 000023E2 00000001     H   19476 19464B
 $$$623F       2 000023F6 00000001     H   19497 19488B
 $$$624F       2 00002402 00000001     H   19535 19511B
 $$$625        6 000025C2 00000001     I   19525 19517X
 $$$626        6 000025C2 00000001     I   19524 19525  19525
 $$$629F       2 00002450 00000001     H   19690 19648B
 $$$629S       2 00002432 00000001     H   19621 19689B
 $$$63F        2 00000198 00000001     H    6745  6614B
 $$$63S        2 0000013A 00000001     H    6588  6744B
 $$$633F       2 00002462 00000001     H   19719 19706B
 $$$636        1 0000002C 00000001 A   U   19837 19831  19834  19836
 $$$638B       1 000025D2 00000001     X   19933 19940U
 $$$640F       2 000025FC 00000001     H   19992 19981B
 $$$641F       2 00002616 00000001     H   20033 20007B 20020B
 $$$643F       2 000026D0 00000001     H   20403 20049B
 $$$644F       2 0000263A 00000001     H   20124 20111B
 $$$645F       2 0000264E 00000001     H   20147 20137B
 $$$646F       2 000026CC 00000001     H   20393 20165B 20177B 20194B
 $$$649B       4 0000266C 00000001     I   20211 20303
 $$$649F       2 0000269C 00000001     H   20299 20211B 20302
 $$$650F       2 00002688 00000001     H   20266 20226B 20245B 20257B
 $$$653F       2 00002698 00000001     H   20289 20279B
 $$$654E       2 000026A0 00000001     H   20310 20304
 $$$654F       2 000026CC 00000001     H   20389 20306B
 $$$655F       2 000026B4 00000001     H   20340 20330B
 $$$656F       2 000026CC 00000001     H   20385 20352B
 $$$657F       2 000026CC 00000001     H   20381 20368B
 $$$658F       2 000026EE 00000001     H   20455 20418B 20438B
 $$$660        1 0000002C 00000001 A   U   20478 20472  20475  20477
 $$$661F       2 00002934 00000001     H   21338 20602B
 $$$662B       1 00002736 00000001     X   20527 20534U
 $$$663F       2 0000275C 00000001     H   20588 20577B
 $$$663S       2 0000274A 00000001     H   20569 20587B
 $$$665F       2 00002920 00000001     H   21311 20652B 20671B 20690B 20844B 20998B 21041B
 $$$669F       2 000027D0 00000001     H   20787 20735B 20753B
 $$$67F        2 0000015C 00000001     H    6644  6633B
 $$$671F       2 000027EC 00000001     H   20848 20801B 20822B 20836B
 $$$674F       2 00002822 00000001     H   20980 20867B 20884B 20925B
 $$$677F       2 00002822 00000001     H   20971 20956B
 $$$679F       2 00002850 00000001     H   21045 21017B
 $$$68F        2 00000194 00000001     H    6735  6656B  6675B  6694B
 $$$680B       4 00002890 00000001     I   21148 21177
 $$$680F       2 000028A4 00000001     H   21173 21148B 21176
 $$$681E       2 000028A8 00000001     H   21184 21178
 $$$681F       2 000028DA 00000001     H   21248 21180B
 $$$682        1 0000003C 00000001 A   U   21284 21282
 $$$683        1 0000002C 00000001 A   U   21319 21313  21316  21318
 $$$684        1 0000002C 00000001 A   U   21346 21340  21343  21345
 $$$686B       1 00002952 00000001     X   21376 21383U
 $$$688F       2 0000297C 00000001     H   21435 21424B
 $$$689F       2 000029E8 00000001     H   21593 21454B
 $$$691F       2 000029A2 00000001     H   21497 21486B
 $$$693F       2 000029BE 00000001     H   21537 21526B
 $$$694F       2 000029E8 00000001     H   21579 21561B
 $$$695        1 0000002C 00000001 A   U   21619 21613  21616  21618
 $$$697B       1 00002A0E 00000001     X   21648 21655U
 $$$699F       2 00002A3C 00000001     H   21721 21710B
 $$$700F       2 00002AB4 00000001     H   21856 21788B
 $$$701F       2 00002A9E 00000001     H   21838 21807B
1SIFT     (SIFT2047) (12:37) (15MAR04) Ordinary Symbol and Literal Cross Reference                                          Page  185
 $$$702F       2 00002A9E 00000001     H   21834 21824B
 $$$704B       4 00002AB8 00000001     I   21868 21926
 $$$704F       2 00002ADE 00000001     H   21922 21868B 21885B 21906B 21925
 $$$707E       2 00002AE2 00000001     H   21933 21927
 $$$707F       2 00002AF8 00000001     H   21952 21929B
 $$$709        1 00000038 00000001 A   U   21958 21956
 $$$710        1 0000002C 00000001 A   U   21986 21980  21983  21985
 $$$711F       2 00002BD0 00000001     H   22254 22108B 22129B 22152B
 $$$712B       1 00002B24 00000001     X   22020 22027U
 $$$714F       2 00002B50 00000001     H   22093 22082B
 $$$72         1 0000002C 00000001 A   U    6771  6765   6768   6770
 $$$720        1 0000002C 00000001 A   U   22262 22256  22259  22261
 $$$721F       2 00002D3E 00000001     H   22781 22364B 22391B 22416B 22441B
 $$$722B       1 00002BEE 00000001     X   22294 22301U
 $$$723F       2 00002C16 00000001     H   22368 22355B
 $$$724F       2 00002C26 00000001     H   22395 22382B
 $$$725F       2 00002C36 00000001     H   22420 22407B
 $$$726F       2 00002C46 00000001     H   22445 22432B
 $$$727F       2 00002C56 00000001     H   22468 22459B
 $$$728F       2 00002CBA 00000001     H   22612 22513B
 $$$729F       2 00002CB2 00000001     H   22605 22531B 22548B
 $$$731F       2 00002C94 00000001     H   22585 22570B
 $$$732F       2 00002CCA 00000001     H   22638 22627B
 $$$733F       2 00002CF2 00000001     H   22686 22675B
 $$$735F       2 00002D26 00000001     H   22725 22715B
 $$$736        1 0000002C 00000001 A   U   22789 22783  22786  22788
 $$$737F       2 00003222 00000001     H   24169 22969B 22987B 23006B 23046B 23963B 24022B
 $$$738B       1 00002E36 00000001     X   22886 22893U
 $$$739F       2 00002E7A 00000001     H   23022 22948B
 $$$74B        1 000001C6 00000001     X    6798  6805U
 $$$743F       2 00002E8A 00000001     H   23050 23037B
 $$$744B       4 00002E92 00000001     I   23073 23091
 $$$744F       2 00002E9A 00000001     H   23088 23073B 23090
 $$$745E       2 00002E9E 00000001     H   23098 23092
 $$$745F       2 00002EA2 00000001     H   23110 23094B
 $$$747F       2 00002EB0 00000001     H   23135 23125B
 $$$748F       2 00002ED8 00000001     H   23182 23147B
 $$$75F        2 00000216 00000001     H    6875  6865B
 $$$750F       2 00002EEA 00000001     H   23207 23197B
 $$$751F       2 00002F08 00000001     H   23244 23222B
 $$$752F       2 00002F20 00000001     H   23275 23258B
 $$$753F       2 00002F32 00000001     H   23299 23289B
 $$$754B       4 00002F36 00000001     I   23314 23343
 $$$754F       2 00002F4C 00000001     H   23340 23314B 23342
 $$$755E       2 00002F50 00000001     H   23350 23344
 $$$755F       2 00003078 00000001     H   23631 23346B
 $$$757F       2 00002F7A 00000001     H   23376 23365B
 $$$758F       2 00002FB6 00000001     H   23428 23388B
 $$$760F       2 00002FE6 00000001     H   23454 23443B
 $$$761F       2 00003004 00000001     H   23507 23491B
 $$$761T       2 00002FFE 00000001     H   23494 23469B 23481B
 $$$764F       2 00003044 00000001     H   23560 23519B
 $$$765F       2 00003052 00000001     H   23582 23572B
 $$$766F       2 00003068 00000001     H   23619 23609B
 $$$766T       2 00003064 00000001     H   23612 23597B
 $$$768F       2 00003092 00000001     H   23657 23644B
 $$$769F       2 000030A2 00000001     H   23686 23673B
 $$$77F        2 0000025E 00000001     H    6922  6911B
 $$$770F       2 000030AE 00000001     H   23709 23699B
1SIFT     (SIFT2047) (12:37) (15MAR04) Ordinary Symbol and Literal Cross Reference                                          Page  186
 $$$771F       2 00003164 00000001     H   23889 23733B
 $$$773F       2 000030E0 00000001     H   23762 23751B
 $$$774F       2 00003146 00000001     H   23869 23780B
 $$$775        1 00000004 00000001 A   U   23803 23800  23802
 $$$776        1 00000008 00000001 A   U   23875 23871  23874
 $$$777F       2 000031D2 00000001     H   24026 23927B
 $$$778F       2 000031A2 00000001     H   23967 23945B
 $$$779F       2 000031BA 00000001     H   24002 23992B
 $$$78         1 0000002C 00000001 A   U    6973  6967   6970   6972
 $$$781F       2 000031F2 00000001     H   24110 24097B
 $$$783F       2 00003210 00000001     H   24135 24124B
 $$$784        1 0000002C 00000001 A   U   24177 24171  24174  24176
 $$$786B       1 0000326A 00000001     X   24227 24234U
 $$$788F       2 000032A8 00000001     H   24302 24291B
 $$$789F       2 000032EE 00000001     H   24460 24325B
 $$$791F       2 000032EE 00000001     H   24451 24395B
 $$$791S       2 000032C8 00000001     H   24368 24450B
 $$$794F       2 000032EA 00000001     H   24441 24413B
 $$$796        1 0000002C 00000001 A   U   24500 24494  24497  24499
 $$$798B       1 0000331C 00000001     X   24529 24536U
 $$$799F       2 00003344 00000001     H   24613 24584B
 $$$80B        1 0000028A 00000001     X    7000  7007U
 $$$800F       2 00003344 00000001     H   24609 24599B
 $$$802F       2 0000335C 00000001     H   24651 24640B
 $$$803F       2 0000336E 00000001     H   24675 24665B
 $$$805F       2 000033B0 00000001     H   24769 24707B 24725B
 $$$805T       2 00003382 00000001     H   24710 24695B
 $$$809F       2 000033B0 00000001     H   24765 24744B
 $$$811F       2 000033EE 00000001     H   24863 24801B
 $$$811S       2 000033C8 00000001     H   24794 24862B
 $$$814F       2 000033E6 00000001     H   24857 24836B 24847B
 $$$817F       2 0000340A 00000001     H   24886 24875B
 $$$818F       2 00003426 00000001     H   24916 24906B
 $$$819        1 0000002C 00000001 A   U   24960 24954  24957  24959
 $$$82F        2 000002BE 00000001     H    7060  7049B
 $$$821B       1 0000345C 00000001     X   24990 24997U
 $$$823F       2 00003494 00000001     H   25080 25054B 25069B
 $$$825F       2 000034AE 00000001     H   25124 25096B 25109B
 $$$828F       2 000034BA 00000001     H   25151 25135B
 $$$832F       2 000034F2 00000001     H   25205 25194B
 $$$833F       2 00003500 00000001     H   25231 25221B
 $$$834F       2 00003538 00000001     H   25349 25258B 25295B 25328B
 $$$835F       2 0000351E 00000001     H   25298 25278B
 $$$837F       2 0000352E 00000001     H   25331 25313B
 $$$84F        2 000002DC 00000001     H    7087  7076B
 $$$840F       2 00003614 00000001     H   25614 25366B 25379B 25397B
 $$$846F       2 000035A2 00000001     H   25524 25416B
 $$$847F       2 00003576 00000001     H   25456 25439B
 $$$849F       2 0000358C 00000001     H   25488 25468B
 $$$85F        2 000002EA 00000001     H    7117  7101B
 $$$850F       2 000035A2 00000001     H   25520 25500B
 $$$852F       2 000035C4 00000001     H   25548 25537B
 $$$854F       2 00003610 00000001     H   25609 25598B
 $$$855F       2 0000362A 00000001     H   25647 25627B
 $$$856F       2 000036A4 00000001     H   25795 25660B
 $$$858F       2 00003670 00000001     H   25742 25696B
 $$$859F       2 000036A0 00000001     H   25790 25757B
 $$$86F        2 0000033A 00000001     H    7169  7149B
 $$$860F       2 00003954 00000001     H   26549 25810B
1SIFT     (SIFT2047) (12:37) (15MAR04) Ordinary Symbol and Literal Cross Reference                                          Page  187
 $$$861F       2 000036CE 00000001     H   25859 25835B 25848B
 $$$865F       2 000036E2 00000001     H   25902 25887B
 $$$865T       2 000036DE 00000001     H   25890 25876B
 $$$870F       2 00003708 00000001     H   25925 25914B
 $$$871F       2 00003724 00000001     H   25970 25960B
 $$$872F       2 000037F6 00000001     H   26160 26028B 26053B
 $$$876F       2 00003794 00000001     H   26083 26072B
 $$$878F       2 000037B6 00000001     H   26107 26096B
 $$$879F       2 00003954 00000001     H   26544 26172B
 $$$88F        2 00000352 00000001     H    7192  7181B
 $$$881F       2 00003822 00000001     H   26210 26199B
 $$$883F       2 00003864 00000001     H   26318 26246B
 $$$886F       2 0000385A 00000001     H   26306 26279B
 $$$89F        2 0000039A 00000001     H    7332  7209B
 $$$891F       2 00003880 00000001     H   26380 26350B
 $$$891S       2 0000386A 00000001     H   26342 26379B
 $$$898F       2 000038F0 00000001     H   26456 26445B
 $$$90F        2 0000039A 00000001     H    7328  7269B
 $$$90S        2 0000036A 00000001     H    7234  7327B
 $$$901F       2 00003950 00000001     H   26539 26528B
 $$$902F       2 0000396A 00000001     H   26585 26565B
 $$$903F       2 000039E6 00000001     H   26805 26597B
 $$$904F       2 000039D8 00000001     H   26777 26618B
 $$$906F       2 00003996 00000001     H   26646 26635B
 $$$907F       2 000039AA 00000001     H   26698 26663B
 $$$908F       2 000039AA 00000001     H   26694 26678B
 $$$910F       2 000039D4 00000001     H   26762 26712B
 $$$911F       2 000039D4 00000001     H   26758 26730B
 $$$912F       2 00003A1C 00000001     H   26871 26818B 26830B 26855B
 $$$916F       2 00003A46 00000001     H   26906 26895B
 $$$917        1 0000002C 00000001 A   U   26963 26957  26960  26962
 $$$918F       2 00003BC8 00000001     H   27313 27154B 27266B
 $$$919B       1 00003AC8 00000001     X   26999 27006U
 $$$921F       2 00003AFA 00000001     H   27057 27046B
 $$$923F       2 00003B22 00000001     H   27099 27088B
 $$$923T       2 00003B0E 00000001     H   27091 27076B
 $$$929F       2 00003BA2 00000001     H   27270 27173B
 $$$93F        2 00000396 00000001     H    7309  7286B
 $$$933F       2 00003B96 00000001     H   27261 27251B
 $$$936        1 0000002C 00000001 A   U   27321 27315  27318  27320
 $$$946B       1 00003C6C 00000001     X   27506 27513U
 $$$947F       2 00003CAA 00000001     H   27629 27571B 27588B
 $$$95F        2 000003C8 00000001     H    7425  7348B
 $$$950F       2 00003CEC 00000001     H   27758 27644B 27662B 27681B
 $$$956F       2 00003CE0 00000001     H   27716 27704B
 $$$956S       2 00003CC6 00000001     H   27695 27715B
 $$$958F       2 00003CEC 00000001     H   27754 27727B
 $$$959        6 00003E9E 00000001     I   27744 27736X
 $$$96F        2 000003C8 00000001     H    7416  7380B
 $$$96S        2 000003A8 00000001     H    7372  7415B
 $$$960        6 00003E9E 00000001     I   27743 27744  27744
 $$$961F       2 00003D38 00000001     H   27856 27806B
 $$$962F       2 00003D4E 00000001     H   27888 27869B
 $$$963        1 00000068 00000001 A   U   27956 27949  27953  27955
 $$$972F       2 000044F4 00000001     H   30271 28865B
 $$$973B       1 00003EAE 00000001     X   28128 28135U
 $$$974F       2 00003EF0 00000001     H   28258 28200B 28217B
 $$$977F       2 00003F20 00000001     H   28338 28298B
 $$$979F       2 00003F46 00000001     H   28413 28353B
1SIFT     (SIFT2047) (12:37) (15MAR04) Ordinary Symbol and Literal Cross Reference                                          Page  188
 $$$98F        2 000003C4 00000001     H    7411  7398B
 $$$981F       2 00003F46 00000001     H   28409 28369B
 $$$983F       2 00003F68 00000001     H   28465 28427B
 $$$984F       2 00003FB8 00000001     H   28553 28477B
 $$$985F       2 00003FA8 00000001     H   28522 28513B
 $$$986F       2 00004066 00000001     H   28842 28567B
 $$$986S       2 00003FB8 00000001     H   28561 28841B
 $$$988F       2 00003FDC 00000001     H   28616 28583B
 $$$989F       2 00003FDC 00000001     H   28612 28597B
 $$$99F        2 000004AC 00000001     H    7741  7459B
 $$$99S        2 000003CC 00000001     H    7433  7740B
 $$$990F       2 00003FE8 00000001     H   28635 28626B
 $$$991        6 0000474C 00000001     I   28653 28645X
 $$$992        6 0000474C 00000001     I   28652 28653  28653
 $$$993B       4 00004016 00000001     I   28706 28787
 $$$993F       2 00004046 00000001     H   28784 28706B 28724B 28742B 28762B 28786
 $$$998E       2 0000404A 00000001     H   28794 28788
 $$$998F       2 00004062 00000001     H   28837 28790B
 $$$999F       2 00004062 00000001     H   28833 28823B
 $NLL1976      2 000005F6 00000001     I    8158  8162B
 $NLL2024      2 00000636 00000001     I    8261  8265B
 $NLL2158      2 00000706 00000001     I    8521  8525B
 $NLM1976      1 000006CA 00000001     R    8131  8149
 $NLM2024      1 000006D0 00000001     R    8234  8252
 $NLM2158      1 0000160C 00000001     R    8494  8512
 $OLL1510      2 0000038A 00000001     I    7301  7305B
 $OLL19325
               2 000064F2 00000001     I   38179 38183B
 $OLL2260      2 00000796 00000001     I    8668  8672B
 $SETFONT      3 00004982 00000001     X   31355 31159  31164
 $SI           1 00004985 00000001     X   31356 31195  31200
 $SO           1 00004986 00000001     X   31357 31245  31250
 @@            1 0000004C FFFFFFF1 A   U    1121 27532  28154  30503  36459
 @NSP          4 00000048 FFFFFFF1     A    1120  6314M  6317M  6335M  6336M  6337M  6445   6447   6449M  6553M  6556M
                                                  6574M  6575M  6576M  6768   6770   6772M  6790M  6793M  6811M  6812M
                                                  6813M  6970   6972   6974M  6992M  6995M  7013M  7014M  7015M  7898
                                                  7900   7902M  8016M  8019M  8037M  8038M  8039M  8395   8397   8399M
                                                  8437M  8440M  8458M  8459M  8460M  8868M  8869M  9036M  9062M  9309
                                                  9311   9313M  9337M  9340M  9358M  9359M  9360M 12264  12266  12268M
                                                 12290M 12293M 12311M 12312M 12313M 12509  12511  12513M 12529M 12532M
                                                 12550M 12551M 12552M 12667  12669  12671M 12687M 12690M 12708M 12709M
                                                 12710M 13264  13266  13268M 13291M 13294M 13312M 13313M 13314M 13479
                                                 13481  13483M 13503M 13506M 13524M 13525M 13526M 13713  13715  13717M
                                                 13737M 13740M 13758M 13759M 13760M 13869  13871  13873M 13957M 13960M
                                                 13978M 13979M 13980M 19834  19836  19838M 19925M 19928M 19946M 19947M
                                                 19948M 20475  20477  20479M 20519M 20522M 20540M 20541M 20542M 20616M
                                                 20619M 20622M 20623M 20624M 21074M 21075M 21285M 21316  21318  21320M
                                                 21343  21345  21347M 21368M 21371M 21389M 21390M 21391M 21616  21618
                                                 21620M 21640M 21643M 21661M 21662M 21663M 21765M 21766M 21959M 21983
                                                 21985  21987M 22012M 22015M 22033M 22034M 22035M 22259  22261  22263M
                                                 22286M 22289M 22307M 22308M 22309M 22786  22788  22790M 22878M 22881M
                                                 22899M 22900M 22901M 23766M 23769M 23770M 23789M 23792M 23793M 23802
                                                 23804M 23874  23876M 24174  24176  24178M 24219M 24222M 24240M 24241M
                                                 24242M 24497  24499  24501M 24521M 24524M 24542M 24543M 24544M 24957
                                                 24959  24961M 24982M 24985M 25003M 25004M 25005M 26960  26962  26964M
                                                 26991M 26994M 27012M 27013M 27014M 27318  27320  27322M 27497M 27500M
                                                 27519M 27520M 27521M 27953  27955  27957M 28119M 28122M 28141M 28142M
                                                 28143M 30277  30279  30281M 30468M 30471M 30490M 30491M 30492M 31347
                                                 31349  31351M 31393M 31396M 31414M 31415M 31416M 31460  31462  31464M
1SIFT     (SIFT2047) (12:37) (15MAR04) Ordinary Symbol and Literal Cross Reference                                          Page  189
                                                 31475M 31478M 31496M 31497M 31498M 31543  31545  31547M 31558M 31561M
                                                 31579M 31580M 31581M 31625  31627  31629M 31640M 31643M 31661M 31662M
                                                 31663M 31708  31710  31712M 31723M 31726M 31744M 31745M 31746M 31790
                                                 31792  31794M 31805M 31808M 31826M 31827M 31828M 31873  31875  31877M
                                                 31888M 31891M 31909M 31910M 31911M 31955  31957  31959M 31970M 31973M
                                                 31991M 31992M 31993M 32038  32040  32042M 32053M 32056M 32074M 32075M
                                                 32076M 32120  32122  32124M 32135M 32138M 32156M 32157M 32158M 32203
                                                 32205  32207M 32218M 32221M 32239M 32240M 32241M 32286  32288  32290M
                                                 32301M 32304M 32322M 32323M 32324M 32584  32586  32588M 32599M 32602M
                                                 32620M 32621M 32622M 32664  32666  32668M 32679M 32682M 32700M 32701M
                                                 32702M 32744  32746  32748M 32759M 32762M 32780M 32781M 32782M 32824
                                                 32826  32828M 32839M 32842M 32860M 32861M 32862M 32904  32906  32908M
                                                 32919M 32922M 32940M 32941M 32942M 32984  32986  32988M 32999M 33002M
                                                 33020M 33021M 33022M 33064  33066  33068M 33079M 33082M 33100M 33101M
                                                 33102M 33144  33146  33148M 33159M 33162M 33180M 33181M 33182M 33249
                                                 33251  33253M 33264M 33267M 33285M 33286M 33287M 33354  33356  33358M
                                                 33369M 33372M 33390M 33391M 33392M 33443  33445  33447M 33458M 33461M
                                                 33479M 33480M 33481M 33517M 33520M 33521M 33541  33543M 33602  33604
                                                 33606M 36125M 36128M 36146M 36147M 36148M 36374  36376  36378M 36424M
                                                 36427M 36446M 36447M 36448M 36710  36712  36714M 36735M 36738M 36756M
                                                 36757M 36758M 36860M 36863M 36864M 36873  36875M 37111  37113  37115M
                                                 37137M 37140M 37158M 37159M 37160M 37535  37537  37539M 37562M 37565M
                                                 37583M 37584M 37585M 37687  37689  37691M 37713M 37716M 37734M 37735M
                                                 37736M 37910  37912  37914M 37972M 37975M 37993M 37994M 37995M 38042
                                                 38044  38046M 38070M 38073M 38091M 38092M 38093M 38232  38234  38236M
 @RAR          0 00000000 FFFFFFF0     @    1137 13825
 @R0           0 00000000 FFFFFFFE     @     713   989U
 @R1           0 00000000 FFFFFFFD     @     726   985U  3009   3013   3014   3016   3017M  7858   9263U 14347  14547M
                                                 15668  15675  15781  15848  15952  15967  15976  16093U 17615U 18739U
                                                 19686U 23402M 23411  23533M 23543  23806M 23866U 27709M 27710  27743M
                                                 29644  29755  29786  30564  30577  30592  30647  31030  36564  36599
                                                 37077U 37675U
 @R10          0 00000000 FFFFFFF4     @     843   949U  6732U  7551U  7637U  9292U 12247U 12492U 12650U 13247U 13462U
                                                 13696U 13852U 19817U 21309U 21966U 22242U 22769U 23821U 24157U 24480U
                                                 24940U 26943U 37094U
 @R11          0 00000000 FFFFFFF3     @     856   945U  6741U  6958U  7250U  7886U  8377U  8781U  9297U 10916U 12242U
                                                 13691U 13857U 17713U 19812U 24935U 26802U 27306U 38220U
 @R12          0 00000000 FFFFFFF2     @     869   941U
 @R13          0 00000000 FFFFFFF1     @     882   937U  8555M  8562M  8563M 14894M 14894  14911M 14912M 14933M 14934M
                                                 14949  15006  15020  15893M 15894M 15915  27109M 27116M 27116  27123M
                                                 27940U 30264U 31334U 36697U
 @R14          0 00000000 FFFFFFF0     @     895   933U 17588U 19659U 20090U 24076U
 @R15          0 00000000 FFFFFFEF     @     908   929U  3019M  6536U  6948U  7804U 10372  10850U 11141  12216U 13221
                                                 13223  14023U 14467  14628  15448U 15674  16015  16115  16410  16488
                                                 16676  16903  17002U 17090U 17112U 17146U 18581U 18656  18761  18848
                                                 19027U 19122U 19167U 19318U 19354U 19449U 20097U 20724U 20750  20784U
                                                 21271  22225M 24758  24760  24887M 25445  25854  25992  25995  26429
                                                 27616U 28245U 30189U 30703U 30763  31282U 36351
 @R2           0 00000000 FFFFFFFC     @     739   981U  7324U  7702   7715M  7715   7721  11018U 11827  11848M 11886
                                                 16083U 18193M 18194  18729U 20778U 21590U 22194M 22194  22202  22654
                                                 22661  22664  23785  23830  24053U 24447U 25560  25712  26294  26349
                                                 26490  27220M 27220  27228  27257M 29633  30182U 30662  31290U 36856
 @R3           0 00000000 FFFFFFFB     @     752   977U 10220U 10379U 13584  13675  15887U 18193  20912U 21585U 24083U
                                                 24806  24858  27811  27821  29756U 31289  31291  37305U 37831U
 @R4           0 00000000 FFFFFFFA     @     765   973U  8852U  9198  15882U 20977U 29741  37443U 37838U
 @R5           0 00000000 FFFFFFF9     @     778   969U 16267  16570  16589  16608  16627  16670  16677  16783  16850
                                                 16940U 17824U 30086  30099  30135  30167  30181  30208  36913
 @R6           0 00000000 FFFFFFF8     @     791   965U 14742  14783  14905  14911  14912  14927  14933  14934  14984
                                                 15060  15133  15170  15195  15228  15268  15309  15365  15385  15434
1SIFT     (SIFT2047) (12:37) (15MAR04) Ordinary Symbol and Literal Cross Reference                                          Page  190
                                                 15483  15743  15950M 15967  16210U 16329U 16475  16952U 17061  17324
                                                 17381  17465U 17842U 18156  18163  18170  18188  18206  18991U 19147
                                                 19268U 21279U 24457U 27206  31324U 36301  36313  36511  36527  36642M
                                                 36643  36676M 37053U 37089U 37510U
 @R7           0 00000000 FFFFFFF7     @     804   961U  7422U  8285   8286M  8287   8877M  8877   8878   8879M  8880M
                                                  8881M  8915   8930   8954   8990   9023  13121U 13203U 16025U 16324U
                                                 16959U 17134U 17477U 17664U 17921U 18085U 18502U 18793U 18947U 19275U
                                                 19550U 19735U 20400U 21768M 21954  27060  27107M 27107  28636  28652
                                                 28797  29620  29633  29689  36265  36527  36642  36676  37893U
 @R8           0 00000000 FFFFFFF6     @     817   957U  6438U  6761U  6963U  7891U  8388U  9302U 12257U 12502U 12660U
                                                 13257U 13472U 13706U 13862U 19827U 20468U 21336U 21609U 21976U 22252U
                                                 22779U 24167U 24490U 24950U 26953U 27311U 27945U 30269U 31339U 31453U
                                                 31536U 31618U 31701U 31783U 31866U 31948U 32031U 32113U 32196U 32279U
                                                 32577U 32657U 32737U 32817U 32897U 32977U 33057U 33137U 33242U 33347U
                                                 33436U 33595U 36367U 36702U 37104U 37528U 37680U 37903U 38035U 38225U
 @R9           0 00000000 FFFFFFF5     @     830   953U  7737U 12252U 12497U 12655U 13252U 13467U 13701U 14304U 18673U
                                                 18865U 19822U 20463U 21331U 21604U 21971U 22247U 22774U 24162U 24485U
                                                 24945U 26948U 27935U 30259U 31329U 31448U 31531U 31613U 31696U 31778U
                                                 31861U 31943U 32026U 32108U 32191U 32274U 32572U 32652U 32732U 32812U
                                                 32892U 32972U 33052U 33132U 33237U 33342U 33431U 33590U 36362U 37099U
                                                 37523U 37898U 38030U
 @SPR          0 00000000 FFFFFFF1     @    1115  6314M  6317M  6335M  6336M  6337M  6445   6447   6449M  6553M  6556M
                                                  6574M  6575M  6576M  6768   6770   6772M  6790M  6793M  6811M  6812M
                                                  6813M  6970   6972   6974M  6992M  6995M  7013M  7014M  7015M  7898
                                                  7900   7902M  8016M  8019M  8037M  8038M  8039M  8395   8397   8399M
                                                  8437M  8440M  8458M  8459M  8460M  8868M  8869M  8870   9036M  9062M
                                                  9309   9311   9313M  9337M  9340M  9358M  9359M  9360M 12264  12266
                                                 12268M 12290M 12293M 12311M 12312M 12313M 12509  12511  12513M 12529M
                                                 12532M 12550M 12551M 12552M 12667  12669  12671M 12687M 12690M 12708M
                                                 12709M 12710M 13264  13266  13268M 13291M 13294M 13312M 13313M 13314M
                                                 13479  13481  13483M 13503M 13506M 13524M 13525M 13526M 13713  13715
                                                 13717M 13737M 13740M 13758M 13759M 13760M 13869  13871  13873M 13957M
                                                 13960M 13978M 13979M 13980M 19834  19836  19838M 19925M 19928M 19946M
                                                 19947M 19948M 20475  20477  20479M 20519M 20522M 20540M 20541M 20542M
                                                 20616M 20619M 20622M 20623M 20624M 21074M 21075M 21076  21285M 21316
                                                 21318  21320M 21343  21345  21347M 21368M 21371M 21389M 21390M 21391M
                                                 21616  21618  21620M 21640M 21643M 21661M 21662M 21663M 21765M 21766M
                                                 21767  21959M 21983  21985  21987M 22012M 22015M 22033M 22034M 22035M
                                                 22259  22261  22263M 22286M 22289M 22307M 22308M 22309M 22786  22788
                                                 22790M 22878M 22881M 22899M 22900M 22901M 23766M 23769M 23770M 23789M
                                                 23792M 23793M 23802  23804M 23874  23876M 24174  24176  24178M 24219M
                                                 24222M 24240M 24241M 24242M 24497  24499  24501M 24521M 24524M 24542M
                                                 24543M 24544M 24957  24959  24961M 24982M 24985M 25003M 25004M 25005M
                                                 26960  26962  26964M 26991M 26994M 27012M 27013M 27014M 27318  27320
                                                 27322M 27497M 27500M 27519M 27520M 27521M 27953  27955  27957M 28119M
                                                 28122M 28141M 28142M 28143M 30277  30279  30281M 30468M 30471M 30490M
                                                 30491M 30492M 31347  31349  31351M 31393M 31396M 31414M 31415M 31416M
                                                 31460  31462  31464M 31475M 31478M 31496M 31497M 31498M 31543  31545
                                                 31547M 31558M 31561M 31579M 31580M 31581M 31625  31627  31629M 31640M
                                                 31643M 31661M 31662M 31663M 31708  31710  31712M 31723M 31726M 31744M
                                                 31745M 31746M 31790  31792  31794M 31805M 31808M 31826M 31827M 31828M
                                                 31873  31875  31877M 31888M 31891M 31909M 31910M 31911M 31955  31957
                                                 31959M 31970M 31973M 31991M 31992M 31993M 32038  32040  32042M 32053M
                                                 32056M 32074M 32075M 32076M 32120  32122  32124M 32135M 32138M 32156M
                                                 32157M 32158M 32203  32205  32207M 32218M 32221M 32239M 32240M 32241M
                                                 32286  32288  32290M 32301M 32304M 32322M 32323M 32324M 32584  32586
                                                 32588M 32599M 32602M 32620M 32621M 32622M 32664  32666  32668M 32679M
                                                 32682M 32700M 32701M 32702M 32744  32746  32748M 32759M 32762M 32780M
                                                 32781M 32782M 32824  32826  32828M 32839M 32842M 32860M 32861M 32862M
1SIFT     (SIFT2047) (12:37) (15MAR04) Ordinary Symbol and Literal Cross Reference                                          Page  191
                                                 32904  32906  32908M 32919M 32922M 32940M 32941M 32942M 32984  32986
                                                 32988M 32999M 33002M 33020M 33021M 33022M 33064  33066  33068M 33079M
                                                 33082M 33100M 33101M 33102M 33144  33146  33148M 33159M 33162M 33180M
                                                 33181M 33182M 33249  33251  33253M 33264M 33267M 33285M 33286M 33287M
                                                 33354  33356  33358M 33369M 33372M 33390M 33391M 33392M 33443  33445
                                                 33447M 33458M 33461M 33479M 33480M 33481M 33517M 33520M 33521M 33541
                                                 33543M 33602  33604  33606M 36125M 36128M 36146M 36147M 36148M 36374
                                                 36376  36378M 36424M 36427M 36446M 36447M 36448M 36710  36712  36714M
                                                 36735M 36738M 36756M 36757M 36758M 36860M 36863M 36864M 36873  36875M
                                                 37111  37113  37115M 37137M 37140M 37158M 37159M 37160M 37535  37537
                                                 37539M 37562M 37565M 37583M 37584M 37585M 37687  37689  37691M 37713M
                                                 37716M 37734M 37735M 37736M 37910  37912  37914M 37972M 37975M 37993M
                                                 37994M 37995M 38042  38044  38046M 38070M 38073M 38091M 38092M 38093M
                                                 38232  38234  38236M
 @WA           1 0000004C FFFFFFF1     U    1122  8870  21076  21767
 AHLHEAD       1 00000000 00000000 A   T    1556  1556
 AHLVCCR8      1 00000000 00000000 A   T    2047  2047
 AMYQSUBP      1 00000020 00000001 A   U    5572  6477
 ASCTBL        1 00000000 00000000 A   T    2833  2833
 ASMVT         1 00000000 00000000 A   T    1936  1936
 ASYNWRIT      2 00002B1A 00000001     H   22008 13908  22004  22816
 BLTBL         1 00000000 00000000 A   T    2835  2835
 BR            8 00000008 00000001 A   #    1031  6318M  6329U  6557M  6568U  6794M  6805U  6996M  7007U  8020M  8031U
                                                  8441M  8452U  9341M  9352U 12294M 12305U 12533M 12544U 12691M 12702U
                                                 13295M 13306U 13507M 13518U 13741M 13752U 13961M 13972U 19929M 19940U
                                                 20523M 20534U 21372M 21383U 21644M 21655U 22016M 22027U 22290M 22301U
                                                 22882M 22893U 24223M 24234U 24525M 24536U 24986M 24997U 26995M 27006U
                                                 27502M 27513U 28124M 28135U 30473M 30484U 31397M 31408U 31479M 31490U
                                                 31562M 31573U 31644M 31655U 31727M 31738U 31809M 31820U 31892M 31903U
                                                 31974M 31985U 32057M 32068U 32139M 32150U 32222M 32233U 32305M 32316U
                                                 32603M 32614U 32683M 32694U 32763M 32774U 32843M 32854U 32923M 32934U
                                                 33003M 33014U 33083M 33094U 33163M 33174U 33268M 33279U 33373M 33384U
                                                 33462M 33473U 36129M 36140U 36429M 36440U 36739M 36750U 37141M 37152U
                                                 37566M 37577U 37717M 37728U 37976M 37987U 38074M 38085U
 CBBRANCH      1 00000000 00000000 A   T    2092  2092
 CNTL          2 00001612 00000001     H   13953 11709B
 CNTLBF        6 00001718 00000001     I   14203 14291B 16056B 16070B 16232B 17024B 17499B 17539B 17685B 17867B 17893B
                                                 18109B 18130B 18252B 18625B 18646B 18817B 18838B 19013B 19340B 19570B
                                                 19610B 19754B 19790B
 CNTLDONE      4 00001752 00000001     I   14227 14104B 14139B 14195B 14201B 14205B 14225B 16017B 16118B 16168B 16944B
                                                 17469B 17657B 17818B 17875B 17924B 18233B 18605B 18764B 18797B 18949B
                                                 19190B 19260B 19472B 19542B 19728B
 CNTLPRV       6 0000170A 00000001     I   14199 14071B
 CNTLPTBL      4 000016B0 00000001     A   14156 14102  14165
 CNTLPTMX      1 0000006C 00000001 A   N   14165 14167  14167
 CNTLRC        6 00001744 00000001     I   14223 14212B 14215B 14218B 14221B 17656B 19727B
 CNTLRC0       2 00001726 00000001     H   14209 17942B 17956B 18090B 18151B 18158B 19772B
 CNTLRC12      4 0000173C 00000001     I   14220 15077B 15153B 15215B
 CNTLRC4       4 0000172C 00000001     I   14214 14368B 14477B 14494B 16007B 16312B 16388B 16457B 17122B 17200B 17206B
                                                 17620B 17847B 18015B 18074B 19691B
 CNTLRC8       4 00001734 00000001     I   14217 17654B 18658B 18711B 18850B 18903B 19094B 19108B 19137B 19149B 19421B
                                                 19435B 19725B
 CNTLTBL       4 00001684 00000001     A   14141 14137  14152
 CNTLTMX       1 0000000A 00000001 A   N   14152 14154  14154
 CNTL0         6 000016FC 00000001     I   14193 14141  14156
 CNTL1         4 0000177C 00000001     I   14257 14142
 CNTL1CH       2 000019F4 00000001     H   15459 14821B 14840B
 CNTL1F        4 00001876 00000001     I   14713 14580B 14665B
 CNTL1MAT      4 00001B66 00000001     I   16009 14272B 14374B 14500B 14715B 14766B 14786B 15043B 15094B 15117B 15179B
1SIFT     (SIFT2047) (12:37) (15MAR04) Ordinary Symbol and Literal Cross Reference                                          Page  192
                                                 15251B 15277B 15327B 15368B 15388B 15437B 15486B 15795B 15876B 15918B
                                                 15975B
 CNTL1N        4 00001B5A 00000001     I   16001 14760B 15009B 15023B 15111B 15173B 15231B 15271B 15770B 15891B 15924B
 CNTL1Q        6 00001B0E 00000001     I   15893 14864B
 CNTL10        4 00002028 00000001     I   18094 14151
 CNTL101       2 000020B2 00000001     H   18239 14157
 CNTL101Q      6 000021A4 00000001     I   18592 18570B
 CNTL102       2 000021CE 00000001     H   18611 14158
 CNTL103       2 0000225A 00000001     H   18803 14159
 CNTL104       4 000022B2 00000001     I   18955 14160
 CNTL104M      2 0000231E 00000001     I   19165 18993B
 CNTL105       4 00002372 00000001     I   19282 14161
 CNTL105M      2 000023BE 00000001     I   19447 19320B
 CNTL106       2 00002412 00000001     H   19557 14162
 CNTL106M      4 00002454 00000001     I   19693 19675B
 CNTL107       2 0000247A 00000001     H   19742 14163
 CNTL108       2 00002498 00000001     H   19778 14164
 CNTL2         4 00001B80 00000001     I   16039 14143
 CNTL3         4 00001BE6 00000001     I   16174 14144
 CNTL3DEV      2 00001D42 00000001     H   16788 16592B 16611B 16630B
 CNTL3FE       4 00001C58 00000001     I   16390 16377B
 CNTL3MAT      4 00001D86 00000001     I   16906 16212B 16318B 16507B 16573B 16798B 16900B
 CNTL3NF       4 00001C78 00000001     I   16455 16472B 16772B
 CNTL3NP       4 00001D7A 00000001     I   16902 16536B
 CNTL3P        2 00001C70 00000001     H   16437 16489B 16904B
 CNTL4         4 00001DBE 00000001     I   16966 14145
 CNTL4FE       2 00001E3E 00000001     H   17210 17189B
 CNTL4MAT      4 00001EAC 00000001     I   17433 17004B 17128B 17257B 17327B
 CNTL4NF       4 00001E34 00000001     I   17204 17239B 17291B 17431B
 CNTL5         2 00001ED8 00000001     H   17486 14146
 CNTL5MAT      4 00001F1A 00000001     I   17622 17604B
 CNTL6         2 00001F40 00000001     H   17671 14147
 CNTL7         2 00001FA2 00000001     H   17855 14148
 CNTL8         2 00001FBC 00000001     H   17881 14149
 CNTL9         4 00001FDA 00000001     I   17928 14150
 CONSCNTL      1 00000000 0000000A     T   14173 14173
 CONSDO        1 00000000 00000019     T   24183 24183
 CONSQPDB      1 00000019 00000001 A   U    5565  6470
 CONSUPD       1 00000000 00000010     T   20486 20486
 CPLAATTN      1 00000080 FFFFFFE2 A   U    4595 12992  25376  25832  25871  26243
 CPLABRK       1 00000010 FFFFFFE2 A   U    4598 25323  25392  26048  26688
 CPLBILT       1 00000040 FFFFFFE2 A   U    4601 11366
 CPLBLGF       1 00000080 FFFFFFE2 A   U    4600 13435  13649  21843  21940  24007  25106  25145
 CRBRANCH      1 00000000 00000000 A   T    1833  1833
 CSRTABLE      1 00000000 00000000 A   T    1853  1853
 CSVARMGR      1 00000000 00000000 A   T    1901  1901
 CSVEXIT       1 00000000 00000000 A   T    1774  1774
 CSVLLCB       1 00000000 00000000 A   T    1374  1374
 CSVLLTRM      1 00000000 00000000 A   T    1375  1375
 CSVMEM        1 00000000 00000000 A   T    1602  1602
 CSVVFGET      1 00000000 00000000 A   T    2166  2166
 CSVVFIND      1 00000000 00000000 A   T    2164  2164
 CTLMAX        1 0000000A FFFFFFE2 A   U    4581 14154  14154  19853
 CTLPMAX       1 0000006C FFFFFFE2 A   U    4591 14167  14167  19852
 CV         1912 00000000 FFFFFFE9     X    3034  2583U
 CVBLANKS    256 00000141 FFFFFFE9     C    2735 13187  13191  14547  15716  15821  15894  15915  15950  16718  16823
                                                 17354  17962  30619  30723
 CVBLTBL       4 000004A8 FFFFFFE9     V    2835 29621
 CVBUFLEN      1 00002800 FFFFFFE9 A   N    2617 13891  27351
1SIFT     (SIFT2047) (12:37) (15MAR04) Ordinary Symbol and Literal Cross Reference                                          Page  193
 CVCUR        40 00000750 FFFFFFE9     X    3032 24145M 24145
 CVCURFEB      4 00000750 FFFFFFE9     A    3025  3032   3032  24136M
 CVCURFRSCB
               4 00000764 FFFFFFE9     A    3030 15512M 15625M 15625
 CVCURPIB      4 00000754 FFFFFFE9     A    3026 24137M
 CVCURSCB      4 00000758 FFFFFFE9     A    3027  9400M 12235M 12235  25038M 26936M 26936
 CVCURSUB      4 0000075C FFFFFFE9     A    3028  7100   7113M  7113   8478M  9285M  9285   9399M  9399  13845M
 CVDEFSUB      4 00000298 FFFFFFE9     A    2750  7225M  7225   9137M 24591  26845
 CVDEFSYS      8 00000290 FFFFFFE9     C    2749  7208   9131  10811
 CVDEVTRC      4 00000338 FFFFFFE9     A    2782 18149
 CVDSECT       1 00000000 FFFFFFE9     J    2570  3109   3238   3366   3571   4336   4413   4611   4690   4796
 CVECB         4 00000038 FFFFFFE9     A    2600  2597   6413   6421M  6421   6431M  6876
 CVFDFSYS    128 0000013D FFFFFFE9         2709  7220M  9143M 26829
 CVFEBQH       4 0000029C FFFFFFE9     A    2752  7353  16335  17147  17545  18022  19028  19355  19616
 CVFLAG        1 0000013C FFFFFFE9     R    2660  2664   2669   2674   2679   2684   2689   2694   2699
 CVFLAG2       1 0000013D FFFFFFE9     R    2705  2709   2714   2719   2724
 CVFRLG        1 0000013B FFFFFFE9         2654 20278  20329
 CVFTEST     128 0000013C FFFFFFE9         2664  6864
 CVKSCB#       1 00000032 FFFFFFE9 A   N    2623  2624   2625
 CVLOWTBL      4 0000049C FFFFFFE9     V    2832 30661  30762
 CVM         252 000004B8 FFFFFFE9     X    2896 17914
 CVMACH        1 0000013B FFFFFFE9     R    2635  2644   2654
 CVMAXSES      2 00000390 FFFFFFE9     H    2813  9180  14454  14615  18643  18835
 CVMFLAG       1 0000051C FFFFFFE9     R    2851  2855
 CVMJOBNM      8 000004C0 FFFFFFE9     X    2844  9079
 CVMNFULQ      2 00000536 FFFFFFE9     H    2869 27201  27202M
 CVMRTECB      4 00000334 FFFFFFE9     A    2780  9148
 CVMRTSUB      4 0000032C FFFFFFE9     A    2778  6402M  6402   6672   7075   7539   9113M 24605  25780  26885  38134
 CVMRTTCB      4 00000330 FFFFFFE9     A    2779  6386M
 CVMSTART      8 000004B8 FFFFFFE9     D    2842  2896   2896
 CVNIZSAV     40 000006FC FFFFFFE9     X    3005  8543M
 CVPDBP        4 00000060 FFFFFFE9     A    2618  6700   7518   7584   8527  21050  21682  22328  25768
 CVR          12 0000000C 00000001 A   #    1095  2583U
 CVRCLOC       4 00000484 FFFFFFE9     A    2821  8337M  8337
 CVSATP        4 000002BC FFFFFFE9     A    2763  9195  14464  14625  18653  18845
 CVSCBID       4 000002B8 FFFFFFE9     A    2761 18516  18518M
 CVSCBQH       4 000002B4 FFFFFFE9     A    2760  7428  14579  14671  18520  18594  18595M 20549  37591
 CVSCBUID      4 00000134 FFFFFFE9     F    2627 36907  36908M
 CVSCNCB       4 000005B4 FFFFFFE9     F    2900  2911
 CVSITP        4 00000068 FFFFFFE9     A    2621  9078
 CVSTART       4 00000000 FFFFFFE9     C    2593  3034   3034
 CVSUBID       4 000002B0 FFFFFFE9     A    2758  6851   6852M
 CVSUBQH       4 000002A8 FFFFFFE9     A    2756  6583   7229   7743   8045   8766  10895  17692  24363
 CVSUBQT       4 000002AC FFFFFFE9     A    2757  6924   6941M  7833M
 CVSUZLEN      1 00040000 FFFFFFE9 A   U    2615  7961
 CVT           1 00000000 FFFFFFEE     J    1344 20711U
 CVTBRET       2 00000052 FFFFFFEE     H    1399  1912   1991
 CVTPTR        1 00000010 00000001 A   U    1340 20701
 CVTRCRTN      4 00000724 FFFFFFE9     I    3009  3018B
 CVTUSER       4 000000CC FFFFFFEE     A    1524 20717
 CVTVSTGX      1 00000000 FFFFFFED     J    2364  2228
 CVTXTNT1      1 00000000 FFFFFFEC     J    2403  1571
 CVTXTNT2      1 00000000 FFFFFFEB     J    2411  1641   2567
 CVT4MS1       1 00000010 FFFFFFEE A   U    1424  1432
 CVT6DAT       1 00000002 FFFFFFEE A   U    1428  1432
 CVWKBUFP      4 00000064 FFFFFFE9     A    2619 10328  10360  27774  28267
 CVWORK        8 00000248 FFFFFFE9     D    2737  6881M  6882M  6898  12111M 12120  15716M 15743M 15767  15821M 15848M
                                                 15868  16718M 16745M 16769  16823M 16850M 16892  17354M 17381M 17423
                                                 17962M 17989M 18012  18071
1SIFT     (SIFT2047) (12:37) (15MAR04) Ordinary Symbol and Literal Cross Reference                                          Page  194
 CVWSGBUF    235 00000610 FFFFFFE9     C    3002  2990   2996
 CVWSGCOD      1 000005D4 FFFFFFE9     R    2917  2926   2936   2946   2956   2966   2976   2986
 CVWSGUSR      4 0000060C FFFFFFE9     A    2999  3001
 CVXLTBE       1 00000482 FFFFFFE9     U    2816 36272
 CVXLTBL      12 00000392 FFFFFFE9     X    2815 36271
 DECRSES       1 00000000 00000008     T   13913 13913  19873
 DFAIDTAB      1 00000000 00000000 A   T    2241  2241
 DISCSESS      2 00002948 00000001     H   21364 21360  38247
 DOAEXIT       2 00002D28 00000001     I   22734 22608B 22634B
 DOAIO         2 00002BE4 00000001     H   22282 13899  22230B 27350
 DOFE          4 00003238 00000001     A   24182 24114  24198
 DOFEMX        1 00000009 00000001 A   N   24198 24200  24200
 DTB           1 00000000 0000000D     T   19857 19857
 DTRC         16 00000000 FFFFFFDA     J    5497 18193  18194  19891  19892
 DTRC#         1 00000014 00000001 A   U    5476 19890  19892
 EBCTBL        1 00000000 00000000 A   T    2834  2834
 EBCTBL7       1 00000000 00000000 A   T    2837  2837
 EIBSUBP       1 0000001F 00000001 A   U    5571  6476
 ELFCNTL       1 00000000 0000000C     T   14183 14183
 ELFDO         1 00000000 0000001B     T   24193 24193
 ELFUPD        1 00000000 00000012     T   20496 20496
 EOSALL        1 00000040 FFFFFFE2 A   U    4499 11940
 EOSXCTL       1 00000020 FFFFFFE2 A   U    4500 11967
 EPARTBL       1 00000000 00000000 A   T    2829  2829
 EPIBSUBP      1 00000025 00000001 A   U    5577  6482
 FCHAR        14 00000000 FFFFFFD3     J   30414 30677U
 FCHARALT      1 00000005 FFFFFFD3     C   30401 31111  31220  31225
 FCHARFANY
               0 00000004 FFFFFFD3        30378 30779  33715  33728  33741  33754  33767  33780  33793  33806  33819
                                                 33832  33845  33858  33871  33884  33897  33911  33924  33937  33950
                                                 33963  33976  33989  34002  34015  34028  34041  34054  34067  34080
                                                 34093  34106  34119  34132  34145  34158  34171  34192  34206  34220
                                                 34234  34248  34262  34276  34290  34304  34318  34360  34444  34458
                                                 34472  34486  34500  34528  34542  34556  34570  34584  34598  34612
                                                 34626  34640  34654  34668  34682  34696  34766  34780  34794  34808
                                                 34822  34836  34850  34864  34878  34892  34962  34976  34990  35004
                                                 35018  35032  35046  35060  35074  35088  35130  35144  35200  35270
                                                 35284  35312  35326  35340  35354  35368  35382  35396  35410  35424
                                                 35438  35452  35466  35536  35550  35564  35592  35690  35732  35956
                                                 35998  36082  36096
 FCHARFLG      1 00000004 FFFFFFD3     R   30369 30378  30388  30398
 FCHARFLOWER
               2 00000004 FFFFFFD3        30398 30829  34332  34346  34374  34388  34402  34416  34430  34514  34710
                                                 34724  34738  34752  34906  34920  34934  34948  35102  35116  35158
                                                 35172  35186  35214  35228  35242  35256  35298  35480  35494  35508
                                                 35522  35578
 FCHARFUPPER
               1 00000004 FFFFFFD3        30388 30879  35606  35620  35634  35648  35662  35676  35704  35718  35746
                                                 35760  35774  35788  35802  35816  35830  35844  35858  35872  35886
                                                 35900  35914  35928  35942  35970  35984  36012  36026  36040  36054
                                                 36068
 FCHARLEN      1 0000000C FFFFFFD3     X   30404 30702  31281
 FCHARNEXT
               4 00000000 FFFFFFD3     A   30366 30933
 FCHARRTN      4 00000008 FFFFFFD3     A   30403 31077
 FCHARSEQ      1 0000000D FFFFFFD3     C   30405 30750
 FCHARTBL      4 0000500C 00000001     F   33711 31368
 FCHARTLEN
               1 0000000D FFFFFFD3     X   30406 31275
1SIFT     (SIFT2047) (12:37) (15MAR04) Ordinary Symbol and Literal Cross Reference                                          Page  195
 FCNTLMAX      1 00000009 00000001 A   N   14188 14189  14189
 FCNTLTBL      4 000016D4 00000001     A   14172 14188  17652  19723
 FDB          16 00000000 FFFFFFE6     J    3365 17515U
 FDBF          4 00000000 FFFFFFE6     F    3330  3333   3338   3338   3341   3349   3349   3352   3353   3353   3356
                                                  3357   3357
 FDBT          4 00000000 FFFFFFE6     F    3264  3273   3273   3278   3278   3306   3306   3326   3326   3329  19586U
                                                 19885
 FDBTDATA      1 00000004 FFFFFFE6     U    3269  3272   3276   3281   3309
 FDBTDNO       1 00000002 FFFFFFE6     X    3267 17524  19595
 FDBTFE        2 00000000 FFFFFFE6     H    3266 17601  19672
 FDBT101F      1 00000004 FFFFFFE6     R    3284  3288   3293   3298   3303
 FDBT102F      1 00000006 FFFFFFE6     R    3314  3318   3323
 FEB         184 00000000 FFFFFFE7     J    3237  7353   7363U  7403  10231U 15588U 15605  16297U 16335  16343U 17101U
                                                 17147  17155U 17545  17561U 18022  18038U 19028  19036U 19355  19363U
                                                 19616  19632U 20078U 20940U 21508U 21525  24064U 37818U
 FEBBASIC    136 00000010 FFFFFFE7     X    3222 17458  17480  17480  19470  19470  19524M 19876  19899
 FEBFPS      128 00000070 FFFFFFE7         3174 17288
 FEBFRLIN     32 00000070 FFFFFFE7         3184 10244
 FEBGFLG       1 0000000C FFFFFFE7     R    3133  3137   3142
 FEBID         2 00000004 FFFFFFE7     H    3126 16374  16403  16929  17111  17186  17455  17601  19067  19105  19394
                                                 19432  19672
 FEBINFO      12 0000001C FFFFFFE7     C    3163 17236M 17236
 FEBLINK       4 00000008 FFFFFFE7     A    3129  7353   7378  16335  16356  16455  17147  17168  17204  17545  17575
                                                 18022  18052  19028  19049  19355  19376  19616  19646
 FEBNAME       8 00000014 FFFFFFE7     C    3162 15618M 15618  15767  16769  16932  17423  18071  37824
 FEBPATP       4 00000098 FFFFFFE7     A    3224 16470  19144
 FEBPFLG       1 00000070 FFFFFFE7     R    3170  3174   3179   3184
 FEBPFLG2      1 00000071 FFFFFFE7     R    3190  3194   3199   3204
 FEBPMAX       2 00000076 FFFFFFE7     H    3211 16447  19134
 FEBSCUR       2 00000080 FFFFFFE7     H    3215 21573  21575M
 FEBSUBPL      1 00000010 00000001 A   U    5556  6461
 FEBTMAX       1 00000009 FFFFFFE7 A   U    3156 14189  14189  19868  20502  20502  22803  24200  24200  27339
 FEBTMLIM      2 00000012 FFFFFFE7     H    3160 20955M 20955  20965  20967
 FEBTVIRT      1 00000005 FFFFFFE7 A   U    3151  7397  17223
 FEBTYPE       1 0000000D FFFFFFE7     X    3146  7397  16928  17223  17456  17587  19658  20089  24075
 FEBUC         2 00000010 FFFFFFE7     H    3159  3222   3222  19463  19540  19541M
 FEDO          2 00002E2C 00000001     H   22874  7924  13912  22818  27344
 FESEND        2 0000317E 00000001     H   23917 23018B
 FINDSID       2 00006330 00000001     H   37558 13907
 FINDXLE       2 00005F48 00000001     H   36121 27977  30329
 FMBRANCH      1 00000000 00000000 A   T    2017  2017
 FMILASYN      1 00000050 FFFFFFE2 A   U    4530 21793  21935  23998  25171  26617
 FMILREAD      1 00000042 FFFFFFE2 A   U    4527 10275  25277  25415  25809  26198
 FMILSOS       1 00000040 FFFFFFE2 A   U    4525 24918
 FMILSTOP      1 00000030 FFFFFFE2 A   U    4522  6721
 FMILWRIT      1 00000041 FFFFFFE2 A   U    4526 21830  25292  26211
 FMILXCTL      1 00000047 FFFFFFE2 A   U    4528 24653
 FMTSIB        2 0000638C 00000001     H   37709 19865
 FREECORE      1 00000000 00000005     T    7925  7925   8413  22821  27343  27982  37938
 FREESCB       1 00000000 0000001C     T   27337 27337
 FREESTRC      2 00006204 00000001     H   37133 37062B
 FSB         144 00000000 FFFFFFDC     J    5200 17443U 17454M 17454  17467
 FSBBASIC    136 00000008 FFFFFFDC     X    5193 17458M 17480  17480
 FSBFEBP       4 00000004 FFFFFFDC     A    5128 17457M
 FSBID         2 00000000 FFFFFFDC     H    5019 17455M
 FSBPFLG       1 00000068 FFFFFFDC     R    5141  5145   5150   5155
 FSBPFLG2      1 00000069 FFFFFFDC     R    5161  5165   5170   5175
 FSBTYPE       1 00000002 FFFFFFDC     R    5023  5032   5042   5052   5062   5072   5082   5092   5102   5112   5122
                                                 17456M
1SIFT     (SIFT2047) (12:37) (15MAR04) Ordinary Symbol and Literal Cross Reference                                          Page  196
 FSBUC         2 00000008 FFFFFFDC     H    5130  5193   5193
 FSR           2 00000002 00000001 A   #    1018  6317   6337   6445M  6556   6576   6768M  6793   6813   6970M  6995
                                                  7015   7898M  8019   8039   8395M  8440   8460   9309M  9340   9360
                                                 12264M 12293  12313  12509M 12532  12552  12667M 12690  12710  13264M
                                                 13294  13314  13479M 13506  13526  13713M 13740  13760  13869M 13960
                                                 13980  19834M 19928  19948  20475M 20522  20542  20619  20624  21316M
                                                 21343M 21371  21391  21616M 21643  21663  21983M 22015  22035  22259M
                                                 22289  22309  22786M 22881  22901  24174M 24222  24242  24497M 24524
                                                 24544  24957M 24985  25005  26960M 26994  27014  27318M 27500  27521
                                                 27953M 30471  30492  31347M 31396  31416  31460M 31478  31498  31543M
                                                 31561  31581  31625M 31643  31663  31708M 31726  31746  31790M 31808
                                                 31828  31873M 31891  31911  31955M 31973  31993  32038M 32056  32076
                                                 32120M 32138  32158  32203M 32221  32241  32286M 32304  32324  32584M
                                                 32602  32622  32664M 32682  32702  32744M 32762  32782  32824M 32842
                                                 32862  32904M 32922  32942  32984M 33002  33022  33064M 33082  33102
                                                 33144M 33162  33182  33249M 33267  33287  33354M 33372  33392  33443M
                                                 33461  33481  33602M 36128  36148  36374M 36427  36448  36710M 36738
                                                 36758  37111M 37140  37160  37535M 37565  37585  37687M 37716  37736
                                                 37910M 37975  37995  38042M 38073  38093  38232M
 FSTRCOM       2 0000627A 00000001     H   37318 37286B
 FXLEXIT       4 00005FDA 00000001     I   36337 36190B 36234B 36308B
 GLBRANCH      1 00000000 00000000 A   T    1923  1923
 GMBRANCH      1 00000000 00000000 A   T    2019  2019
 GVT           1 00000000 00000000 A   T    1785  1785
 HIBAL         1 00000000 FFFFFFFF     J     698   714    727    740    753    766    779    792    805    818    831
                                                   844    857    870    883    896    909
 HSPFMIL       1 00000080 FFFFFFEA A   U    2495  2499   2500
 HSPFORV       1 00000020 FFFFFFEA A   U    2497  2499
 HSPFORVR      1 00000010 FFFFFFEA A   U    2498  2500
 HSPFWYL       1 00000040 FFFFFFEA A   U    2496  2499   2500
 IARMPVT       1 00000000 00000000 A   T    1660  1660
 IARMRRCE      1 00000000 00000000 A   T    2205  2205
 IARPIBR       1 00000000 00000000 A   T    2175  2175
 IARPSIV       1 00000000 00000000 A   T    1999  1999
 IARPSXM       1 00000000 00000000 A   T    2148  2148
 IARXKEY       1 00000000 00000000 A   T    2106  2106
 IARXVIO       1 00000000 00000000 A   T    2000  2000
 ICYMMVTC      1 00000000 00000000 A   T    2431  2431
 IDA121CV      1 00000000 00000000 A   T    1938  1938
 IDLES       256 00004508 00000001     X   30285 28533  29093  29270  29444  29940  30335
 IEABEND       1 00000000 00000000 A   T    1522  1522
 IEADQIQE      1 00000000 00000000 A   T    1918  1918
 IEAECVT       1 00000000 00000000 A   T    1447  1447
 IEAGSMQ       1 00000000 00000000 A   T    1895  1895
 IEAIHASU      1 00000000 00000000 A   T    2135  2135
 IEALSMQ       1 00000000 00000000 A   T    1897  1897
 IEAMASCB      1 00000000 00000000 A   T    1865  1865   1869
 IEAPATCH      1 00000000 00000000 A   T    1530  1530
 IEAPDSRT      1 00000000 00000000 A   T    1793  1793
 IEAPTRV       1 00000000 00000000 A   T    1609  1609
 IEAQCDSR      1 00000000 00000000 A   T    1513  1513
 IEAQCS01      1 00000000 00000000 A   T    1905  1905
 IEAQLPAQ      1 00000000 00000000 A   T    1514  1514
 IEAQTD00      1 00000000 00000000 A   T    1410  1410
 IEAQTE00      1 00000000 00000000 A   T    1408  1408
 IEARPOST      1 00000000 00000000 A   T    1920  1920
 IEASMFEX      1 00000000 00000000 A   T    1797  1797
 IEASMFSP      1 00000000 00000000 A   T    2143  2143
 IEASPOST      1 00000000 00000000 A   T    1940  1940
1SIFT     (SIFT2047) (12:37) (15MAR04) Ordinary Symbol and Literal Cross Reference                                          Page  197
 IEASVDCB      1 00000000 00000000 A   T    1401  1401
 IEATCBP       1 00000000 00000000 A   T    1351  1351
 IEATPC        1 00000000 00000000 A   T    1403  1403
 IEATRSCN      1 00000000 00000000 A   T    1761  1761
 IEAVAR02      1 00000000 00000000 A   T    1845  1845
 IEAVBLDP      1 00000000 00000000 A   T    1829  1829
 IEAVDELP      1 00000000 00000000 A   T    1832  1832
 IEAVEAC0      1 00000000 00000000 A   T    1922  1922
 IEAVEADV      1 00000000 00000000 A   T    2080  2080
 IEAVEDR1      1 00000000 00000000 A   T    1965  1965
 IEAVELRM      1 00000000 00000000 A   T    1914  1914
 IEAVENLU      1 00000000 00000000 A   T    2261  2261
 IEAVENQ2      1 00000000 00000000 A   T    1911  1911
 IEAVEQV1      1 00000000 00000000 A   T    2068  2068
 IEAVEQV2      1 00000000 00000000 A   T    2071  2071
 IEAVEQV3      1 00000000 00000000 A   T    2074  2074
 IEAVERI1      1 00000000 00000000 A   T    1967  1967
 IEAVERP1      1 00000000 00000000 A   T    1969  1969
 IEAVERX1      1 00000000 00000000 A   T    2157  2157
 IEAVESC1      1 00000000 00000000 A   T    2096  2096
 IEAVESPR      1 00000000 00000000 A   T    2025  2025
 IEAVESTU      1 00000000 00000000 A   T    2259  2259
 IEAVESVT      1 00000000 00000000 A   T    2031  2031
 IEAVET6E      1 00000000 00000000 A   T    2131  2131
 IEAVEVT2      1 00000000 00000000 A   T    2085  2085
 IEAVEXPR      1 00000000 00000000 A   T    1893  1893
 IEAVEXP1      1 00000000 00000000 A   T    2062  2062
 IEAVFRCL      1 00000000 00000000 A   T    1831  1831
 IEAVGSDA      1 00000000 00000000 A   T    2076  2076
 IEAVGTCL      1 00000000 00000000 A   T    1830  1830
 IEAVGWSA      1 00000000 00000000 A   T    1925  1925
 IEAVLKRM      1 00000000 00000000 A   T    1632  1632
 IEAVMFRM      1 00000000 00000000 A   T    2010  2010
 IEAVMSGS      1 00000000 00000000 A   T    1579  1579
 IEAVNVT0      1 00000000 00000000 A   T    2244  2244
 IEAVRSUH      1 00000000 00000000 A   T    2123  2123
 IEAVRT03      1 00000000 00000000 A   T    1737  1737
 IEAVSPND      1 00000000 00000000 A   T    2133  2133
 IEAVSTAG      1 00000000 00000000 A   T    1873  1873
 IEAVTCTL      1 00000000 00000000 A   T    2125  2125
 IEAVTEST      1 00000000 00000000 A   T    1636  1636
 IEAVTRGR      1 00000000 00000000 A   T    1933  1933
 IEAVTRG1      1 00000000 00000000 A   T    1382  1382
 IEAVTRV3      1 00000000 00000000 A   T    1629  1629
 IEAVTSBP      1 00000000 00000000 A   T    1879  1879
 IEAVTSFR      1 00000000 00000000 A   T    1600  1600
 IEAVTSGL      1 00000000 00000000 A   T    1877  1877
 IEAVVMSR      1 00000000 00000000 A   T    1658  1658
 IEAVWAIT      1 00000000 00000000 A   T    1900  1900
 IEAVWSAC      1 00000000 00000000 A   T    1931  1931
 IEAVWSAG      1 00000000 00000000 A   T    1929  1929
 IEAVWSAL      1 00000000 00000000 A   T    1927  1927
 IEAVXEXT      1 00000000 00000000 A   T    2008  2008
 IEAVXSFT      1 00000000 00000000 A   T    1975  1975
 IEAVXSTN      1 00000000 00000000 A   T    1981  1981
 IEAVXSTS      1 00000000 00000000 A   T    1979  1979
 IEAVXUNN      1 00000000 00000000 A   T    2004  2004
 IEAVXUNS      1 00000000 00000000 A   T    1983  1983
 IEAWTCB       1 00000000 00000000 A   T    2040  2040
1SIFT     (SIFT2047) (12:37) (15MAR04) Ordinary Symbol and Literal Cross Reference                                          Page  198
 IEA0DS        1 00000000 00000000 A   T    1446  1446
 IEA0EF00      1 00000000 00000000 A   T    1352  1352
 IEA0EF01      1 00000000 00000000 A   T    1392  1392
 IEA0PT0E      1 00000000 00000000 A   T    2112  2112
 IEA0PT01      1 00000000 00000000 A   T    1453  1453
 IEA0PT02      1 00000000 00000000 A   T    2037  2037
 IEA0PT03      1 00000000 00000000 A   T    2114  2114
 IEA0VL00      1 00000000 00000000 A   T    1363  1363
 IEA0VL01      1 00000000 00000000 A   T    1770  1770
 IECIXAVL      1 00000000 00000000 A   T    1438  1438
 IECPCNVT      1 00000000 00000000 A   T    1366  1366
 IECPRLTV      1 00000000 00000000 A   T    1370  1370
 IECVEXCL      1 00000000 00000000 A   T    2002  2002
 IECXAPG       1 00000000 00000000 A   T    1361  1361
 IECXITP       1 00000000 00000000 A   T    1391  1391
 IECXTLER      1 00000000 00000000 A   T    1377  1377
 IEC0SCR1      1 00000000 00000000 A   T    1536  1536
 IEECUCB       1 00000000 00000000 A   T    1407  1407
 IEEMSER       1 00000000 00000000 A   T    1385  1385   1451
 IEEVEXSN      1 00000000 00000000 A   T    1740  1740
 IEEVSTOP      1 00000000 00000000 A   T    2050  2050
 IEFAQTOP      1 00000000 00000000 A   T    1857  1857
 IEFAUSDM      1 00000000 00000000 A   T    1357  1357
 IEFENFDM      1 00000000 00000000 A   T    1516  1516
 IEFJESCT      1 00000000 00000000 A   T    1616  1616
 IEFLINK       1 00000000 00000000 A   T    1354  1354
 IEFQMWR       1 00000000 00000000 A   T    1467  1467
 IEWFBOSV      1 00000000 00000000 A   T    1444  1444
 IEWMSEPT      1 00000000 00000000 A   T    1949  1949
 IFBDCB        1 00000000 00000000 A   T    1433  1433
 IFDOLT0A      1 00000000 00000000 A   T    1795  1795
 IFGDEBVR      1 00000000 00000000 A   T    2426  2426
 IGC043BR      1 00000000 00000000 A   T    1841  1841
 IGC044R2      1 00000000 00000000 A   T    1951  1951
 IGC062R1      1 00000000 00000000 A   T    1921  1921
 IGC07903      1 00000000 00000000 A   T    2066  2066
 IGC124        1 00000000 00000000 A   T    2082  2082
 IGFRVT        1 00000000 00000000 A   T    1531  1531
 IGVCPBDB      1 00000000 00000000 A   T    2197  2197
 IGVCPDLB      1 00000000 00000000 A   T    2199  2199
 IGVCPFRE      1 00000000 00000000 A   T    2189  2189
 IGVCPGTC      1 00000000 00000000 A   T    2187  2187
 IGVCPGUB      1 00000000 00000000 A   T    2181  2181
 IGVCPGUP      1 00000000 00000000 A   T    2184  2184
 IGVCPGUS      1 00000000 00000000 A   T    2207  2207
 IGVGCAS       1 00000000 00000000 A   T    1835  1835
 IGVGFAS       1 00000000 00000000 A   T    1839  1839
 IGVGRRGN      1 00000000 00000000 A   T    2211  2211
 IGVGVRGN      1 00000000 00000000 A   T    2213  2213
 IGVQSPET      1 00000000 00000000 A   T    1837  1837
 IGVSLIST      1 00000000 00000000 A   T    2191  2191
 IGVSLOC       1 00000000 00000000 A   T    2195  2195
 IGVSREGN      1 00000000 00000000 A   T    2193  2193
 IGVSTSKI      1 00000000 00000000 A   T    2178  2178
 IHB0978       4 00000054 00000001     F    6363  6361
 IHB1417A      2 00000336 00000001     H    7160  7156B
 IHB19286A
               2 000064C4 00000001     H   38119 38115B
 ILRJTERM      1 00000000 00000000 A   T    2120  2120
1SIFT     (SIFT2047) (12:37) (15MAR04) Ordinary Symbol and Literal Cross Reference                                          Page  199
 INCRSES       1 00000000 0000000E     T   19872 19872
 INITFPRV      1 00000080 FFFFFFE2 A   U    4493  8971
 INPROC        2 00003C62 00000001     H   27492 27347
 INSG         60 00000000 FFFFFFD5     X   27467 27786  27834  27910
 INSGCOD       1 00000000 FFFFFFD5     R   27384 27393  27403  27413  27423  27433  27443  27453
 INSGLENF      4 0000000C FFFFFFD5     A   27459 27927
 INSGLOC       4 00000020 FFFFFFD5     A   27463 27922
 INWA         60 00000000 FFFFFFD5     J   27474 27519M 27532U 27554M 27554  27953  27955  27956  27983
 IOHQSUBP      1 0000000C 00000001 A   U    5552  6457
 IOSVDEVN      1 00000000 00000000 A   T    2137  2137
 IOSVHID       1 00000000 00000000 A   T    2147  2147
 IOSVSUCB      1 00000000 00000000 A   T    2150  2150
 IRARMCNS      1 00000000 00000000 A   T    1891  1891
 IRARMEPS      1 00000000 00000000 A   T    2109  2109
 IRARMI00      1 00000000 00000000 A   T    1848  1848
 ISNBRNCH      1 00000000 00000000 A   T    2006  2006
 ITBLSUBP      1 0000001C 00000001 A   U    5568  6473
 KILLRES       6 00002AF8 00000001     I   21954 21852B
 KILLSESS      2 00002A04 00000001     H   21636 19874  21597B 21632  22810
 LOCALTOD      1 00000000 00000006     T   13895 13895  19871  37934
 LOWTBL        1 00000000 00000000 A   T    2832  2832
 LSR          11 0000000B 00000001 A   #    1082  6317   6337   6445M  6556   6576   6768M  6793   6813   6970M  6995
                                                  7015   7898M  8019   8039   8395M  8440   8460   9309M  9340   9360
                                                 12264M 12293  12313  12509M 12532  12552  12667M 12690  12710  13264M
                                                 13294  13314  13479M 13506  13526  13713M 13740  13760  13869M 13960
                                                 13980  19834M 19928  19948  20475M 20522  20542  20619  20624  21316M
                                                 21343M 21371  21391  21616M 21643  21663  21983M 22015  22035  22259M
                                                 22289  22309  22786M 22881  22901  24174M 24222  24242  24497M 24524
                                                 24544  24957M 24985  25005  26960M 26994  27014  27318M 27500  27521
                                                 27953M 28122  28143  30277M 30471  30492  31347M 31396  31416  31460M
                                                 31478  31498  31543M 31561  31581  31625M 31643  31663  31708M 31726
                                                 31746  31790M 31808  31828  31873M 31891  31911  31955M 31973  31993
                                                 32038M 32056  32076  32120M 32138  32158  32203M 32221  32241  32286M
                                                 32304  32324  32584M 32602  32622  32664M 32682  32702  32744M 32762
                                                 32782  32824M 32842  32862  32904M 32922  32942  32984M 33002  33022
                                                 33064M 33082  33102  33144M 33162  33182  33249M 33267  33287  33354M
                                                 33372  33392  33443M 33461  33481  33602M 36128  36148  36374M 36427
                                                 36448  36710M 36738  36758  37111M 37140  37160  37535M 37565  37585
                                                 37687M 37716  37736  37910M 37975  37995  38042M 38073  38093  38232M
 MAKESTAG      1 00000000 00000013     T   22801 22801
 MCOMSUBP      1 0000001D 00000001 A   U    5569  6474
 MIB         252 00000000 FFFFFFE8     X    3101 17909U 17914M 19888
 MIBFLAG       1 00000064 FFFFFFE8     R    3056  3060
 MIBSTART      8 00000000 FFFFFFE8     D    3047  3101   3101
 MILAWR        1 00000046 FFFFFFE2 A   U    4506 11083  11267  11308  21268  23072  23196
 MILCNTL       1 00000049 FFFFFFE2 A   U    4509 11701
 MILSIFT       1 00000000 00000001     J     999  1001   1026   1039   1052   1065   1078   1090   1103   1125   1138
                                                  4801   4925   4951   5004   5201   5472   5498   5547   6296  13918
 MILSOF        1 0000004A FFFFFFE2 A   U    4510 11730
 MODACL        1 00000010 FFFFFFE2 A   U    4538  9776
 MODAFMIL      1 00000040 FFFFFFE2 A   U    4536 10781  10885  10985  11035  12125  13657  24662  24720  24776
 MODBDWAT      1 00000020 FFFFFFE2 A   U    4544 23144  25363
 MODBFOR       1 00000001 FFFFFFE2 A   U    4549  9652  11513
 MODBNNLA      1 00000010 FFFFFFE2 A   U    4545 25436  25845  25884
 MODBSLOL      1 00000008 FFFFFFE2 A   U    4546 10534  10562  29711
 MODBUFMT      1 00000002 FFFFFFE2 A   U    4548  9564  28366  30043
 MODBUPLO      1 00000040 FFFFFFE2 A   U    4543 10446  10481  10505
 MODBUPPR      1 00000080 FFFFFFE2 A   U    4542 10443  10458  10502  10518  27641
 MODCDSPL      1 00000040 FFFFFFE2 A   U    4552  9552   9714  10175  27676  28350
1SIFT     (SIFT2047) (12:37) (15MAR04) Ordinary Symbol and Literal Cross Reference                                          Page  200
 MODCSTOB      1 00000001 FFFFFFE2 A   U    4558 29654
 MODDNFLT      1 00000008 FFFFFFE2 A   U    4564 10659  10687
 MODDNMOD      1 00000010 FFFFFFE2 A   U    4563 10260  10643  12905  27568  28197
 MODDNPAU      1 00000080 FFFFFFE2 A   U    4560 22175  28719  29131  29481
 MODDNPT       1 00000040 FFFFFFE2 A   U    4561 26276  26397
 MODDTRAN      1 00000020 FFFFFFE2 A   U    4562  9741  10257  10630  27657  28295  36948
 MODDXON       1 00000004 FFFFFFE2 A   U    4565 10582  10610
 MODL          4 00000574 00000001     F    7940  7999
 MODLPATH      4 00000574 00000001     F    7939  6854
 MODPFX        8 00001070 00000001     X   12273 10122  10122  10137  10159  13901  13926
 MODPFXX       1 00001070 00000001     X   12272 12273  12273
 MORT          1 00000000 00000002     T    7914  7914
 MORTFAIL      2 0000010C 00000001     H    6518  6369   6514U
 MORTSPL       1 000000DE 00000001     R    6455  6368
 MORTSPLL      1 0000002C 00000001 A   U    6500  6455
 MORTSPLS      1 000000DF 00000001     R    6456  6500
 NBLTBL        1 00000000 00000000 A   T    2836  2836
 NGETCORE      1 00000000 00000003     T    7918  7918  13900  22819  27334  37932
 NPARTBL       1 00000000 00000000 A   T    2830  2830
 OUTBL         2 00004336 00000001     I   29551 28961
 OUTBLL        2 0000439A 00000001     H   29721 30004B
 OUTBS         2 00004294 00000001     H   29311 28959
 OUTCNTL       2 0000419C 00000001     H   28973 28955
 OUTCR         2 0000423C 00000001     H   29195 28957
 OUTEXIT       2 00004068 00000001     I   28849 29184B 29547B
 OUTFBELL      2 00004F0E 00000001     H   33365 33900
 OUTFBLUE      2 00004D7E 00000001     H   32835 34031  34044
 OUTFBM        2 000049E6 00000001     H   31471 33731
 OUTFBP        2 000049B0 00000001     H   31389 33718
 OUTFCHK       2 00004470 00000001     H   30036 28962
 OUTFCSI       2 00004C02 00000001     H   32297 31441B 31524B 31606B 31689B 31771B 31854B 31936B 32019B 32101B 32184B
                                                 32267B
 OUTFCYAN      2 00004DF2 00000001     H   32995 34109  34122
 OUTFDISPLAYONLY
             128 00000000 FFFFFFD2        30442 30591M 31008
 OUTFEXIT      2 0000496E 00000001     H   31320 30994B 31069B 31092B 31267B
 OUTFFM        2 00004B2A 00000001     H   31966 33809
 OUTFFP        2 00004AF4 00000001     H   31884 33796
 OUTFFPAG      2 00004EBA 00000001     H   33260 33861  33874
 OUTFGR        2 00004D0A 00000001     H   32675 33953  33966
 OUTFIM        2 00004A52 00000001     H   31636 33757
 OUTFIP        2 00004A1C 00000001     H   31554 33744
 OUTFLAG       1 00000000 FFFFFFD2     R   30438 30442
 OUTFMAG       2 00004DB8 00000001     H   32915 34070  34083
 OUTFMAT       2 0000488C 00000001     H   31000 30800B 30850B 30918B
 OUTFNO        2 000044DA 00000001     H   30228 30068B 30102B 30201B
 OUTFNORM      2 00004BCC 00000001     H   32214 33887
 OUTFORM       2 00004758 00000001     H   30463 30343
 OUTFPAGE      2 00004E66 00000001     H   33155 33848
 OUTFPTRS      4 00000004 FFFFFFD2     A   30446 30526M 30957  31029
 OUTFRED       2 00004CD0 00000001     H   32595 33914  33927
 OUTFRM        2 00004B96 00000001     H   32131 33835
 OUTFRP        2 00004B60 00000001     H   32049 33822
 OUTFSEG       2 00004F4C 00000001     H   33454 32645B 32725B 32805B 32885B 32965B 33045B 33125B
 OUTFSEQ      32 0000000C FFFFFFD2     C   30447 30619M 30647M 30660  30847  30915  31367
 OUTFSEQL     32 0000002C FFFFFFD2     C   30448 30660M 30662M 30797  30897
 OUTFTBL       1 00004608 00000001     X   30287 30188  30288  30290  30292  30294  30296  30298  30300  30302  30304
                                                 30306  30308  30310  30312  30314  30316  30318
 OUTFTOK      32 0000004C FFFFFFD2     C   30449 30723M 30750M 30763M 30797  30847  30897  30915  31369
1SIFT     (SIFT2047) (12:37) (15MAR04) Ordinary Symbol and Literal Cross Reference                                          Page  201
 OUTFUM        2 00004ABE 00000001     H   31801 33783
 OUTFUP        2 00004A88 00000001     H   31719 33770
 OUTFWA      108 00000000 FFFFFFD2     J   30456 30490M 30503U 30525M 30525  31347  31349  31350  31371
 OUTFWH        2 00004E2C 00000001     H   33075 33940  33979  34018  34057  34096  34135  34148  34161  34174
 OUTFYEL       2 00004D44 00000001     H   32755 33992  34005
 OUTHT         2 000042AC 00000001     H   29344 28956
 OUTLF         2 000042BA 00000001     H   29372 28960
 OUTLOOP       2 00003FB8 00000001     H   28558 28990B 29136B 29163B 29177B 29300B 29333B 29361B 29486B 29505B 29526B
                                                 29540B 29615B 29692B 30031B 30170B 30251B
 OUTNL         2 000041AA 00000001     H   29001 28958
 OUTPROC       2 00003EA4 00000001     H   28115 27336
 OUTRC0        2 00004066 00000001     H   28846 28334B 28405B
 OUTSG        60 00000000 FFFFFFD4     X   28101 28279  28323  28394  28444  28545  28690  28985  29013  29105  29207
                                                 29282  29323  29356  29384  29456  29604  29877  29952  29991  30023
                                                 30161  30240
 OUTSGCOD      1 00000000 FFFFFFD4     R   28018 28027  28037  28047  28057  28067  28077  28087
 OUTSGLENF
               4 0000000C FFFFFFD4     A   28093 28862
 OUTSGLOC      4 00000020 FFFFFFD4     A   28097 28857
 OUTTBL        4 00004078 00000001     F   28889 28652
 OUTVECT       4 00004178 00000001     A   28954 28815
 OUTWA        60 00000000 FFFFFFD4     J   28108 28141M 28154U 28176M 28176  30277  30279  30280  30344
 PATH          4 00000000 FFFFFFE1     F    4623  4682
 PATHDOWN      4 00003BC4 00000001     I   27299 27191B 27286B
 PATHFCLS      1 00000080 FFFFFFE1 A   U    4648 27186
 PATHRBAF      1 0000000C FFFFFFE1 A   U    4671 27352
 PATHRNOP      1 00000010 FFFFFFE1 A   U    4672 13893  27353
 PATHRPMW      1 00000008 FFFFFFE1 A   U    4670 13892
 PATHSEND      2 00003ABE 00000001     H   26987  7916   8412  13896  27349
 PATSUBP       1 0000001A 00000001 A   U    5566  6471
 PDB          56 00000000 FFFFFFE2     J    4610  6709U  6722   7527U  7541   7593U  7607   8536U  9082   9265   9388U
                                                 11041  11285  11330  11374  11659  12061  12129  12199  12336U 12575U
                                                 12733U 12997  13228  13337U 13443  13549U 13661  13783U 14003U 14244
                                                 17622  19693  21059U 21288  21691U 21847  21914  21944  22063U 22228
                                                 22337U 22597  22702  22929U 23824U 23861U 24011  24029  24270U 24469
                                                 24572U 24924  25033U 25585  25733  25782  26432  26515  26791  26862
                                                 26908  26924  36781U
 PDBAWID       4 00000010 FFFFFFE2     F    4453 11314  22170M 22170
 PDBBYT1       1 0000000E FFFFFFE2     X    4449  4481
 PDBBYT2       1 0000000F FFFFFFE2     X    4450  4487
 PDBCMD        1 00000006 FFFFFFE2     X    4436  6721M  7605M  8708   8734   8760   9427   9442   9522   9537   9596
                                                  9611   9842   9963  10079  10094  10275  10427  10699  10720  10751
                                                 10757M 11068  11083  11098  11169  11184  11252  11267  11308  11443
                                                 11458  11477  11537  11622  11637  11652  11701  11730  11798  12154
                                                 12169  12184  12215  12824  13383  13398  13424  21268M 21793M 21812M
                                                 21823  21830M 21912M 21935M 22595M 22698  22947  23072  23196  23202M
                                                 23313  23883M 23944  23998M 24653M 24918M 25171  25193  25277  25292
                                                 25415  25581  25809  26198  26211M 26425M 26511  26617  26729
 PDBCMDFL      1 00000007 FFFFFFE2     X    4437  4473   4473   4479   8973  11942  11969  14022  14030M
 PDBCMOD       1 0000000F FFFFFFE2     X    4487 14040M 14224M 16117M 18232M 18763M 19189M 19471M
 PDBCPL        2 0000000C FFFFFFE2     X    4445 26124M 26124
 PDBCPLA       1 0000000C FFFFFFE2     X    4446 12994M 25325  25378  25394  25834  25873  26050  26245  26690M
 PDBCPLB       1 0000000D FFFFFFE2     X    4447 11368M 13437M 13651M 21845M 21942M 24009M 25108  25147M
 PDBCRBAD      1 0000000C FFFFFFE2 A   U    4485 14194
 PDBCRBF       1 00000008 FFFFFFE2 A   U    4484 14204
 PDBCRET       1 0000000E FFFFFFE2     X    4481 14035M 14194M 14200M 14204M 18227M
 PDBCRPRV      1 00000004 FFFFFFE2 A   U    4483 14200
 PDBHDR       56 00000000 FFFFFFE2     X    4474  6719M  6719   7537M  7537   7603M  7603   7928   8543   8553M  8553
                                                  8656M  8656   9093M  9093  12118M 12118  13223  13643M 13643  13819
1SIFT     (SIFT2047) (12:37) (15MAR04) Ordinary Symbol and Literal Cross Reference                                          Page  202
                                                 13819  13922  13927  13932  13933  16015  16115  16942  17467  17816
                                                 18761  19880  19887  19888  19889  19892  19897  19899  21069M 21069
                                                 21271  21765M 21768  21768  21776M 21776  21954M 21958  22593M 22593
                                                 22820  22830  22831  23785  23806  23806  23830  24760  25778M 25778
                                                 25995  26429  26841M 26841  26881M 26881  26921M 26921  27357
 PDBINCT       2 00000030 FFFFFFE2     H    4467  4471   4471  12834  12898M 23336M 23336  23562  23626M 23885M 25978M
                                                 25978  26128M 26427M
 PDBLENG       2 00000000 FFFFFFE2     H    4430  6720M  7538M  7604M  8649M  9070M  9918   9935  10371  10373M 11122
                                                 11276M 11346M 12119M 12190M 12980M 13052M 13157M 13224M 13404M 13644M
                                                 14193M 14199M 14203M 14223M 14227  16016M 16116M 16167M 16943M 17468M
                                                 17817M 17874M 17923M 18146M 18220M 18604M 18762M 18796M 19187M 19469M
                                                 21272M 21777M 22180  22206  22449  22594M 23152  23169  23636  23831M
                                                 23892M 23969M 24281  24761M 25779M 25904  25996M 26129  26146  26430M
                                                 26842M 26882M
 PDBLIN#       2 00000004 FFFFFFE2     H    4435  9168  22165M 22165  22933M 23203M 25082M
 PDBMOD        4 00000008 FFFFFFE2     X    4439 10137M 10700  12400M 22699  25157M 25582  26426M 26512
 PDBMODA       1 00000008 FFFFFFE2     X    4440  9778  10783M 10887M 10987  11037M 12127M 13659M 24664  24722  24778M
 PDBMODB       1 00000009 FFFFFFE2     X    4441  9566M  9654  10448  10460M 10483M 10507  10520M 10536  10564M 11515
                                                 23146  25365
 PDBMODC       1 0000000A FFFFFFE2     X    4442  9554   9716  10177
 PDBMODD       1 0000000B FFFFFFE2     X    4443  9743  10262M 10584  10612M 10632  10645M 10661  10689M 12907M 22177M
                                                 36950
 PDBOPT       49 00000007 FFFFFFE2     X    4473  9077M  9077  11283M 11283  11345M 11345  12197M 12197  12987M 12987
                                                 13059M 13059  13164M 13164  13219M 13219  13411M 13411  23976M 23976
                                                 24756M 24756
 PDBORV        8 00000030 FFFFFFE2     X    4471 13225M 24737
 PDBOUTCT      2 0000002E FFFFFFE2     H    4466  9081M 10284  10402M 10402  13222M 23890M 23904  24759M 25983M 25983
                                                 25993M
 PDBPC         2 00000034 FFFFFFE2     H    4469 10384  10392M 10392  11232M 11232  11565  12363  12455  12476M 12590
                                                 12791  13212  14236M 14236  23235M 23235  23245  23264M 23326M 23326
                                                 23387M 23387  23394  23402  23415  23535  23634  25989M 26126  26232
                                                 26749  26750
 PDBR         10 0000000A 00000001 A   #    1057  6700M  6709U  7518M  7527U  7584M  7593U  8527M  8536U  8554   9379M
                                                  9388U 12336U 12575U 12733U 13337U 13549U 13783U 14003U 21050M 21059U
                                                 21682M 21691U 22054M 22063U 22328M 22337U 22920M 22929U 24261M 24270U
                                                 24563M 24572U 25024M 25033U 25768M 36781U
 PDBRC         2 00000036 FFFFFFE2     H    4470  9080M 10397M 10397  14241M 14241  23240M 23240  23271M 23271  23276
                                                 23295M 23331M 23331  23503M 23503  23518M 23518  23525  23533  23547
                                                 23635  24303M 24757M 25990M 26125  26127M 26230  26748
 PDBSINP       4 00000010 FFFFFFE2     A    4452  4453   9078M 25153M
 PDBSTRT       4 00000000 FFFFFFE2     F    4429  4474   4474
 PDBSUC        2 0000002C FFFFFFE2     H    4465 25156M
 PDBSYSNM      8 00000024 FFFFFFE2     C    4463  8819   8855  10776M 10805  10811M 10843M 10874  10880M 10952  10994M
                                                 11030M 11030  12120M 13652M 24671M
 PDBTEXT       1 00000038 FFFFFFE2     C    4475  9079M 10122  10137  10147  10159  10350  11560  12352  12390  12400
                                                 12409  12421  12620  12776  12920  12940  12960  13061  13165  14316
                                                 14319  14433  14506  14603  14713  14803  14861  16010  16082  16110
                                                 16150  16239  16309M 16309  16334  16390  16403  16504  16521  16745
                                                 16872  16906  17031  17113  17145  17276  17403  17433  17505  17691
                                                 17793  17873M 17899  17989  18115  18145M 18145  18162  18218M 18219M
                                                 18294  18598  18631  18690  18728  18756  18770  18771  18823  18882
                                                 19026  19121  19166  19188M 19242  19353  19448  19470M 19524  19576
                                                 21100  23422  23554  23718  23839  23900  25934  26004  26233  26416M
                                                 26744
 PDBVINFO     16 00000014 FFFFFFE2     X    4461 10023  25155M
 PDBVPGM       8 00000014 FFFFFFE2     C    4455  4461   4461
 PDBVRCTL      1 00000001 FFFFFFE2 A   U    4472 13225  24737
 PDBWC         2 00000032 FFFFFFE2     H    4468 10104  10139M 10340  10369M 10369  10370M 10383  10385M 11219M 11219
                                                 11564  12059M 12059  12362  12425  12439M 12589  12790  13211  13220M
1SIFT     (SIFT2047) (12:37) (15MAR04) Ordinary Symbol and Literal Cross Reference                                          Page  203
                                                 14229M 14257  16039  16174  16505  16966  17496  17682  17864M 17864
                                                 17890M 17890  17928  18094  18249  18622  18814  18955  19195  19282
                                                 19477  19567  19751M 19751  19787M 19787  21270M 23209  23228M 23403
                                                 23534  23633  23829M 24749  25988M 25988  26313M 26313  26414M 26414
                                                 26415M 26428
 PIB         160 00000000 FFFFFFE5     J    3570 10207U 15419U 15522U 15539  16197U 16283U 16501U 16989U 17077U 18978U
                                                 19157U 19305U 20063U 20899U 21468U 21485  24040U 24339U 37803U
 PIBBASIC     96 00000030 FFFFFFE5     X    3559 16933  19188  19188  19242M 19875  19897
 PIBDFSYS      8 00000010 FFFFFFE5     C    3387 24353M 24353  24412
 PIBFDIR      32 00000064 FFFFFFE5         3432 20242  20367
 PIBFEBP       4 00000008 FFFFFFE5     A    3385 10213  15578  16203  16287  16995  17083  18984  19311  20068  20905
                                                 21498  24046  37808
 PIBFLAG       1 00000064 FFFFFFE5     R    3418  3422   3427   3432   3437   3442
 PIBFLAG2      1 00000065 FFFFFFE5     R    3448  3452   3457   3462   3467
 PIBFLAG3      1 00000066 FFFFFFE5     R    3473  3477   3482   3487   3492   3497   3502
 PIBFLAG4      1 00000067 FFFFFFE5     R    3508  3512   3517   3522
 PIBFLAG5      1 00000068 FFFFFFE5     R    3528  3532   3537   3542
 PIBFLEAS    128 00000065 FFFFFFE5         3452 20254
 PIBFPS      128 00000066 FFFFFFE5         3477 16533
 PIBFRLIN     16 00000065 FFFFFFE5         3467 20225
 PIBGFLG       1 00000018 FFFFFFE5     R    3391  3395
 PIBNAME       8 00000034 FFFFFFE5     C    3412  3547   3547  15434  15868  16892
 PIBNO         2 00000004 FFFFFFE5     H    3383 16301  16902  16930
 PIBSCBP       4 0000000C FFFFFFE5     A    3386 15565  21544M 21544
 PIBSCUR       2 0000006A FFFFFFE5     H    3549 21568  21570M
 PIBSIB       54 00000034 FFFFFFE5     X    3547 37807  37918  37918
 PIBSUBPL      1 00000011 00000001 A   U    5557  6462
 PIBUC         2 00000030 FFFFFFE5     H    3409  3559   3559  19181  19258  19259M
 PPDBERR       4 0000104C 00000001     I   12220  9450B  9869B  9893B  9987B 11678B 12080B
 PPDBEXIT      2 00001056 00000001     H   12230 12221B
 PPDBNORM      2 00001054 00000001     H   12225  9845B  9945B 11046B 11290B 11379B 11406B 11600B 11683B 11710B 11768B
                                                 11916B 12109B 12134B 12204B
 PPNMSG       59 00003A82 00000001     X   26970 26416  26416  27361
 PPNMSGX      40 00003A82 00000001     C   26968 26970  26970
 PRMTSUBP      1 00000016 00000001 A   U    5562  6467  23395
 PROCCLS       2 00001468 00000001     H   13733  8640B  9868B  9892B 11677B 12079B 12218B
 PROCCLSZ      2 00001466 00000001     H   13727  8716B  8742B  8826B  9038B  9188B  9213B  9251B  9449B  9986B
 PROCNX        2 00000D08 00000001     H   11025 10971B
 PROCPDB       2 00000988 00000001     H    9333  9267B 27345
 PROCRET       6 00000FDE 00000001     I   12111 11752B 11778B 11926B 12000B
 PROCSUB       2 000006D6 00000001     H    8433  8414
 PROCX         4 00000D14 00000001     I   11040 10785B 10889B 10999B
 PROCXCTL      4 00000C7A 00000001     I   10757 11972B
 PSB         116 00000000 FFFFFFDB     J    5471 16916U 16927M 16927  16942
 PSBBASIC     96 00000014 FFFFFFDB     X    5464 16933M
 PSBFEID       2 00000000 FFFFFFDB     H    5216 16929M
 PSBFENM       8 0000000C FFFFFFDB     C    5328 16932M
 PSBFLAG       1 00000048 FFFFFFDB     R    5340  5344   5349   5354   5359   5364
 PSBFLAG2      1 00000049 FFFFFFDB     R    5370  5374   5379   5384   5389
 PSBFLAG3      1 0000004A FFFFFFDB     R    5395  5399   5404   5409
 PSBFLAG4      1 0000004B FFFFFFDB     R    5415  5419   5424   5429
 PSBFLAG5      1 0000004C FFFFFFDB     R    5435  5439   5444   5449
 PSBPIBP       4 00000008 FFFFFFDB     A    5326 16931M
 PSBPNO        2 00000002 FFFFFFDB     H    5217 16930M
 PSBTTYPE      1 00000004 FFFFFFDB     R    5221  5230   5240   5250   5260   5270   5280   5290   5300   5310   5320
                                                 16928M
 PSBUC         2 00000014 FFFFFFDB     H    5330  5464   5464
 PSUBERR       4 00000964 00000001     I    9270  8641B  8717B  8743B  8827B  9039B  9189B  9214B  9252B
 PSUBEXIT      2 0000096E 00000001     H    9280  9271B
1SIFT     (SIFT2047) (12:37) (15MAR04) Ordinary Symbol and Literal Cross Reference                                          Page  204
 PSUBLOOP      2 000006F4 00000001     H    8481  9158B  9268B
 PSUBNORM      2 0000096C 00000001     H    9275  8647B
 PWRTSUBP      1 00000023 00000001 A   U    5575  6480
 QPDBSUBP      1 00000014 00000001 A   U    5560  6465  22181  27207
 QUIETDO       2 0000134A 00000001     H   13287 13911
 RAR          14 0000000E 00000001 A   #    1130  3011B  3021B  6314   6345M  6346M  6346B  6424M  6425M  6425B  6447M
                                                  6451B  6553   6725M  6726M  6726B  6770M  6774B  6790   6821   6824M
                                                  6825M  6825B  6972M  6976B  6992   7406M  7407M  7407B  7544M  7545M
                                                  7545B  7610M  7611M  7611B  7861M  7862M  7862B  7873M  7874M  7874B
                                                  7900M  7904B  8016   8166M  8167M  8167B  8194M  8195M  8195B  8290M
                                                  8291M  8291B  8296M  8297M  8297B  8365M  8366M  8366B  8397M  8401B
                                                  8437   8640M  8716M  8742M  8826M  9038M  9066M  9067M  9067B  9085M
                                                  9086M  9086B  9188M  9213M  9251M  9267M  9311M  9315B  9337   9449M
                                                  9619M  9620M  9620B  9624M  9625M  9625B  9810M  9811M  9811B  9868M
                                                  9892M  9923M  9924M  9924B  9986M 11044M 11045M 11045B 11148M 11149M
                                                 11149B 11288M 11289M 11289B 11317M 11318M 11318B 11333M 11334M 11334B
                                                 11377M 11378M 11378B 11404M 11405M 11405B 11568M 11569M 11569B 11598M
                                                 11599M 11599B 11662M 11663M 11663B 11677M 11709M 11767M 11915M 12050M
                                                 12051M 12051B 12064M 12065M 12065B 12079M 12103M 12104M 12104B 12132M
                                                 12133M 12133B 12202M 12203M 12203B 12218M 12266M 12270B 12290  12511M
                                                 12515B 12529  12669M 12673B 12687  13000M 13001M 13001B 13231M 13232M
                                                 13232B 13266M 13270B 13291  13446M 13447M 13447B 13481M 13485B 13503
                                                 13664M 13665M 13665B 13715M 13719B 13737  13824M 13825M 13830  13835M
                                                 13836M 13836B 13871M 13875B 13957  14102M 14103M 14103B 14137M 14138M
                                                 14138B 14247M 14248M 14248B 14393M 14394M 14394B 15067M 15068M 15068B
                                                 16013M 16014M 16014B 16113M 16114M 16114B 16165M 16166M 16166B 17587M
                                                 17634  17644M 17644  17649M 17652M 17652  17653M 17653  17655M 17655B
                                                 18261M 18262M 18262B 18370M 18371M 18371B 18488M 18489M 18489B 18508M
                                                 18509M 18509B 18601M 18602M 18602B 18759M 18760M 18760B 18776M 18777M
                                                 18777B 18930M 18931M 18931B 19658M 19705  19715M 19715  19720M 19723M
                                                 19723  19724M 19724  19726M 19726B 19769M 19770M 19770B 19802M 19803M
                                                 19803B 19836M 19840B 19925  20028M 20029M 20029B 20036M 20037M 20037B
                                                 20089M 20110  20120M 20120  20125M 20129M 20129  20130M 20130  20143M
                                                 20143B 20477M 20481B 20519  20583M 20598M 20599M 20599B 20616  21037M
                                                 21038M 21038B 21118M 21119M 21119B 21135M 21136M 21136B 21168M 21169M
                                                 21169B 21202M 21203M 21203B 21226M 21227M 21227B 21243M 21244M 21244B
                                                 21265M 21266M 21266B 21291M 21292M 21292B 21318M 21322B 21345M 21349B
                                                 21368  21597M 21618M 21622B 21640  21850M 21851M 21851B 21917M 21918M
                                                 21918B 21947M 21948M 21948B 21985M 21989B 22012  22182  22185M 22186M
                                                 22186B 22230M 22261M 22265B 22286  22471  22474M 22475M 22475B 22600M
                                                 22601M 22601B 22695M 22696M 22696B 22705M 22706M 22706B 22760M 22761M
                                                 22761B 22788M 22792B 22878  23154  23157M 23158M 23158B 23396  23399M
                                                 23400M 23400B 23527  23530M 23531M 23531B 23725M 23726M 23726B 23797M
                                                 23798M 23798B 23953M 23954M 23954B 24014M 24015M 24015B 24075M 24096
                                                 24106M 24106  24111M 24114M 24114  24115M 24115  24138M 24138B 24176M
                                                 24180B 24219  24278M 24279M 24279B 24472M 24473M 24473B 24499M 24503B
                                                 24521  24921M 24922M 24922B 24927M 24928M 24928B 24959M 24963B 24982
                                                 25476M 25477M 25477B 25508M 25509M 25509B 25571M 25572M 25572B 25588M
                                                 25589M 25589B 25635M 25636M 25636B 25723M 25724M 25724B 25736M 25737M
                                                 25737B 25785M 25786M 25786B 25941M 25942M 25942B 26131  26134M 26135M
                                                 26135B 26435M 26436M 26436B 26508M 26509M 26509B 26518M 26519M 26519B
                                                 26580M 26581M 26581B 26753M 26754M 26754B 26794M 26795M 26795B 26865M
                                                 26866M 26866B 26911M 26912M 26912B 26927M 26928M 26928B 26962M 26966B
                                                 26991  27208  27211M 27212M 27212B 27320M 27324B 27497  27578M 27579M
                                                 27579B 27622M 27623M 27623B 27789M 27790M 27790B 27837M 27838M 27838B
                                                 27842M 27843M 27843B 27876M 27877M 27877B 27913M 27914M 27914B 27955M
                                                 27959B 28119  28207M 28208M 28208B 28251M 28252M 28252B 28282M 28283M
                                                 28283B 28326M 28327M 28327B 28397M 28398M 28398B 28447M 28448M 28448B
                                                 28548M 28549M 28549B 28693M 28694M 28694B 28815M 28816M 28816  28829M
1SIFT     (SIFT2047) (12:37) (15MAR04) Ordinary Symbol and Literal Cross Reference                                          Page  205
                                                 28829B 28988M 28989M 28989B 29016M 29017M 29017B 29108M 29109M 29109B
                                                 29210M 29211M 29211B 29285M 29286M 29286B 29326M 29327M 29327B 29359M
                                                 29360M 29360B 29387M 29388M 29388B 29459M 29460M 29460B 29607M 29608M
                                                 29608B 29880M 29881M 29881B 29955M 29956M 29956B 29994M 29995M 29995B
                                                 30026M 30027M 30027B 30164M 30165M 30165B 30243M 30244M 30244B 30279M
                                                 30283B 30468  30955M 30956M 30956B 30977M 30978M 30978B 30992M 30993M
                                                 30993B 31027M 31028M 31028B 31052M 31053M 31053B 31067M 31068M 31068B
                                                 31077M 31078M 31078  31091M 31091B 31173M 31174M 31174B 31209M 31210M
                                                 31210B 31234M 31235M 31235B 31259M 31260M 31260B 31312M 31313M 31313B
                                                 31349M 31353B 31393  31441M 31462M 31466B 31475  31524M 31545M 31549B
                                                 31558  31606M 31627M 31631B 31640  31689M 31710M 31714B 31723  31771M
                                                 31792M 31796B 31805  31854M 31875M 31879B 31888  31936M 31957M 31961B
                                                 31970  32019M 32040M 32044B 32053  32101M 32122M 32126B 32135  32184M
                                                 32205M 32209B 32218  32267M 32288M 32292B 32301  32370M 32371M 32371B
                                                 32401M 32402M 32402B 32432M 32433M 32433B 32467M 32468M 32468B 32502M
                                                 32503M 32503B 32537M 32538M 32538B 32560M 32561M 32561B 32586M 32590B
                                                 32599  32645M 32666M 32670B 32679  32725M 32746M 32750B 32759  32805M
                                                 32826M 32830B 32839  32885M 32906M 32910B 32919  32965M 32986M 32990B
                                                 32999  33045M 33066M 33070B 33079  33125M 33146M 33150B 33159  33213M
                                                 33214M 33214B 33228M 33229M 33229B 33251M 33255B 33264  33318M 33319M
                                                 33319B 33333M 33334M 33334B 33356M 33360B 33369  33423M 33424M 33424B
                                                 33445M 33449B 33458  33535M 33536M 33536B 33563M 33564M 33564B 33578M
                                                 33579M 33579B 33604M 33608B 36125  36376M 36380B 36424  36712M 36716B
                                                 36735  36865  36868M 36869M 36869B 36900M 36901M 36901B 37062M 37113M
                                                 37117B 37137  37496M 37497M 37497B 37537M 37541B 37562  37689M 37693B
                                                 37713  37912M 37916B 37972  38018M 38019M 38019B 38044M 38048B 38070
                                                 38203M 38204M 38204B 38234M 38238B
 RESPSUBP      1 00000035 00000001 A   U    5593  6498
 REXPSUBP      1 00000036 00000001 A   U    5594  6499
 RMBRANCH      1 00000000 00000000 A   T    2016  2016
 RSYNSUBP      1 00000034 00000001 A   U    5592  6497
 RTXTSUBP      1 00000017 00000001 A   U    5563  6468  23526
 R0            0 00000000 FFFFFFFF A   #     706  3012M  3013M  3014   3016M  3017   6819M  7301M  7302M  7304   8158M
                                                  8159M  8161   8261M  8262M  8264   8521M  8522M  8524   8668M  8669M
                                                  8671   9068   9918M  9942M  9943M  9944M 10159M 10160M 10161M 10340M
                                                 10341M 10342M 10360M 10361M 10362M 11564M 11565M 12421M 12422M 12423M
                                                 13221M 13222  14317M 14318M 14334  15049M 15050M 15638M 15655M 15655
                                                 15677M 15783M 15792M 15792  15803  15815M 15820  16966M 16967M 16967
                                                 17021  17032  17524M 17536  18263  18955M 18956M 18956  19010  19282M
                                                 19283M 19283  19337  19595M 19607  19771  19799M 19799  20590M 21107M
                                                 21124M 21157M 21191M 21215M 21215  21232M 21254M 22179M 22180M 22213M
                                                 22214M 22215M 22469M 22496M 22497M 22498M 22661M 22662M 22663M 22754M
                                                 22755M 22756M 23152M 23176M 23177M 23178M 23209M 23221  23245M 23257
                                                 23276M 23288  23393M 23394M 23422M 23423M 23424M 23524M 23525M 23554M
                                                 23555M 23556M 23633M 23634M 23635M 23661  23663M 23672M 23672  23682M
                                                 23682  23698  23705M 23766  23785M 23830M 23831  23849M 23850M 23851M
                                                 23874M 23890  23891M 23892  23911M 23912M 23913M 24281M 24282M 24303
                                                 24758M 24759  25565M 25566M 25567M 25717M 25718M 25719M 25904M 25905M
                                                 25946  25965M 25966M 25990  25991  25994  26009  26014M 26015M 26016M
                                                 26129M 26153M 26154M 26155M 26495M 26496M 26497M 26748M 26750M 27206M
                                                 27238M 27239M 27240M 27556  27619M 27625  27778M 27826M 27902M 27927M
                                                 28179  28248M 28254  28271M 28315M 28386M 28436M 28501M 28503M 28523M
                                                 28575M 28576M 28576  28589M 28590M 28606  28608  28660M 28661M 28670
                                                 28671  28812M 28862M 29057M 29061M 29061  29063M 29083M 29234M 29238M
                                                 29238  29240M 29260M 29408M 29412M 29412  29414M 29434M 29743M 29788M
                                                 29802M 29802  29869M 29904M 29908M 29908  29910M 29930M 29983M 30015M
                                                 30153M 30526  30546  30594M 30602  30614M 30620  30946M 30957M 30983M
                                                 31018M 31029M 31032M 31058M 31164M 31200M 31225M 31250M 31303M 32361M
                                                 32392M 32423M 32458M 32493M 32528M 32551M 32643M 32723M 32803M 32883M
1SIFT     (SIFT2047) (12:37) (15MAR04) Ordinary Symbol and Literal Cross Reference                                          Page  206
                                                 32963M 33043M 33123M 33204M 33219M 33309M 33324M 33414M 33517  33526M
                                                 33541M 33569M 36471  36480M 36480  36689M 36814  36856M 36902  36936M
                                                 36937M 36938M 38179M 38180M 38182
 R1            1 00000001 FFFFFFFF A   #     719  6350M  6386   6820M  6826   6876M  6877   6878M  6879   6880M  6881
                                                  6951M  7021   7299M  7300M  7302   7403M  7540M  7606M  7851M  7852M
                                                  7852   7870M  8139M  8149M  8159   8191M  8242M  8252M  8262   8293M
                                                  8502M  8512M  8522   8646M  8646   8648M  8648   8649   8666M  8667M
                                                  8669   9068   9198M  9199M  9199   9228U  9366   9807M  9919M  9925
                                                  9931  11040M 11284M 11373M 11560M 11658M 11827M 11837  11847M 11847
                                                 11848  11863M 11863  11881  12047M 12060M 12128M 12198M 12996M 13227M
                                                 13442M 13660M 13832M 14243M 14319M 14506M 15060M 15633M 15675M 15781M
                                                 15951M 15976M 15991  16009M 16092M 16103  16109M 16162M 16466M 16467M
                                                 16475  17545M 17561U 17575M 17576M 17576  18263  18367M 18485M 18505M
                                                 18597M 18738M 18749  18755M 18773M 18927M 19616M 19632U 19646M 19647M
                                                 19647  19771  19954  20126M 20594M 20594  21034M 21100M 21123M 21156M
                                                 21190M 21211M 21231M 21253M 21287M 21397  21595M 21669  21846M 21913M
                                                 21943M 22041  22181M 22187  22227M 22315  22470M 22476  22596M 22692M
                                                 22701M 22757M 22907  23153M 23159  23165  23395M 23401  23526M 23532
                                                 23718M 23766  23786M 23805  23824U 23874M 23950M 24010M 24028M 24248
                                                 24275M 24468M 24550  24806M 24816  24835M 24835  24923M 25011  25466M
                                                 25467M 25467  25498M 25499M 25499  25568M 25584M 25625M 25626M 25626
                                                 25720M 25732M 25781M 25934M 26014  26130M 26136  26142  26431M 26498M
                                                 26514M 26563M 26564M 26564  26744M 26749M 26861M 26907M 26923M 27207M
                                                 27213  27555  27618M 27624  27688M 27710M 27774M 27821M 27839M 27867M
                                                 27868M 27868  27897M 27922M 28178  28247M 28253  28267M 28310M 28381M
                                                 28435M 28495M 28502M 28506  28518M 28523  28533M 28636M 28660  28667M
                                                 28668  28669M 28796M 28857M 29050M 29062M 29066  29078M 29083  29093M
                                                 29229M 29239M 29243  29255M 29260  29270M 29406M 29413M 29417  29429M
                                                 29434  29444M 29620M 29641M 29642  29643  29742M 29786M 29868M 29899M
                                                 29909M 29913  29925M 29930  29940M 30148M 30526  30592M 30945M 30957M
                                                 30982M 31017M 31029M 31030M 31057M 31159M 31195M 31220M 31245M 31291M
                                                 32360M 32391M 32422M 32457M 32492M 32527M 32550M 32642M 32722M 32802M
                                                 32882M 32962M 33042M 33122M 33203M 33218M 33308M 33323M 33413M 33517
                                                 33525M 33541M 33568M 36471  36511M 36564M 36594  36595  36616  36618
                                                 36689M 36813  36857M 36876  36902  37038M 37056U 37205  37493M 37591M
                                                 37601U 37616M 37617M 37617  37742  38001  38015M 38099  38177M 38178M
                                                 38180  38200M
 R13          13 0000000D FFFFFFFF A   #     875  8581  15951  27141  27532U 28154U 30503U 36459U
 R14          14 0000000E FFFFFFFF A   #     888  9931M  9935M  9943   9944M 10147M 10152M 10160  10161M 10328M 10333M
                                                 10341  10342M 10350M 10355M 10361  10362M 12409M 12414M 12422  12423M
                                                 22202M 22206M 22214  22215M 22484M 22489M 22497  22498M 22650M 22654M
                                                 22662  22663M 22742M 22747M 22755  22756M 23165M 23169M 23177  23178M
                                                 23411M 23415M 23423  23424M 23543M 23547M 23555  23556M 23839M 23844M
                                                 23850  23851M 23900M 23904M 23912  23913M 25556M 25560M 25566  25567M
                                                 25708M 25712M 25718  25719M 26004M 26009M 26015  26016M 26142M 26146M
                                                 26154  26155M 26486M 26490M 26496  26497M 27228M 27233M 27239  27240M
                                                 29901M 29902M 29903  36599M 36601M 36926M 36931M 36937  36938M
 R15          15 0000000F FFFFFFFF A   #     901  3009M  3010M  3010   3012   3017M  3020M  3020   6450M  6450   6514U
                                                  6722M  6773M  6773   6850M  6851M  6852   6853   6910M  6910   6924M
                                                  6934U  6975M  6975   7148   7165M  7165   7180M  7180   7298M  7301
                                                  7304M  7541M  7607M  7729M  7730M  7731   7743M  7759U  7763   7774M
                                                  7775M  7775   7790   7879M  7879   7903M  7903   8138M  8139   8140M
                                                  8142   8157M  8158   8161M  8241M  8242   8243M  8245   8260M  8261
                                                  8264M  8287M  8292   8400M  8400   8501M  8502   8503M  8505   8520M
                                                  8521   8524M  8554M  8555   8591M  8591   8612   8626   8665M  8668
                                                  8671M  8676M  8677M  8678   8878M  8879   8909M  8909   8945M  8945
                                                  9005M  9005   9082M  9168M  9180   9194M  9198   9265M  9270M  9277M
                                                  9277   9314M  9314   9379  10371M 10372M 10373  10383M 10384M 10385
                                                 10815M 10816M 10816  10837U 11041M 11122M 11123M 11136M 11141M 11142M
1SIFT     (SIFT2047) (12:37) (15MAR04) Ordinary Symbol and Literal Cross Reference                                          Page  207
                                                 11143M 11144  11285M 11314M 11330M 11355M 11355  11374M 11464M 11484M
                                                 11524M 11543M 11659M 11895M 11896M 11897  12061M 12129M 12199M 12215M
                                                 12220M 12227M 12227  12269M 12269  12485M 12485  12514M 12514  12643M
                                                 12643  12672M 12672  12834M 12843M 12843  12850M 12895  12897M 12898
                                                 12899  12997M 13005M 13005  13211M 13212M 13220  13223M 13224  13228M
                                                 13237M 13237  13269M 13269  13443M 13455M 13455  13484M 13484  13661M
                                                 13666M 13684M 13684  13718M 13718  13729M 13729  13800M 13800  13811
                                                 13874M 13874  14022M 14053  14088  14095M 14100M 14101M 14102  14121
                                                 14131M 14131  14136M 14137  14211M 14211  14214M 14217M 14220M 14224
                                                 14227M 14228M 14229  14244M 14454  14463M 14464M 14507M 14508M 14524M
                                                 14533M 14533  14540  14603M 14615  14624M 14625M 15091M 15091  15108
                                                 15397M 15398M 15398  15419U 15642M 15642  15674M 15691M 15691  15699
                                                 15711M 15720M 15729M 15729  15736  15820M 15825M 15834M 15834  15841
                                                 15861  15902M 15931  15943M 15949M 15960  16010M 16015M 16016  16039M
                                                 16053  16067  16110M 16115M 16116  16127M 16136M 16136  16143  16301M
                                                 16334M 16374  16390M 16410M 16430M 16430  16447  16461M 16461  16466
                                                 16488M 16644M 16644  16676M 16693M 16693  16701  16713M 16722M 16731M
                                                 16731  16738  16902M 16903M 16942M 16943  16979M 16989U 17067M 17077U
                                                 17111M 17113  17145M 17186  17334M 17337  17349M 17358M 17367M 17367
                                                 17374  17416  17467M 17468  17622M 17816M 17817  17928M 17939M 17939
                                                 17953  17966M 17975M 17975  17982  18094M 18106  18115M 18127  18152M
                                                 18153  18515M 18516M 18517  18518  18520M 18536U 18540  18551M 18552M
                                                 18552  18567  18598M 18603M 18604  18631M 18643  18652M 18653M 18690M
                                                 18691M 18691  18708  18756M 18761M 18762  18823M 18835  18844M 18845M
                                                 18882M 18883M 18883  18900  18923M 18924M 18925  19026M 19067  19105
                                                 19121M 19134  19143M 19147  19166M 19169M 19181  19195M 19196M 19199
                                                 19211M 19219M 19228M 19228  19235  19257M 19258M 19259  19295M 19305U
                                                 19353M 19394  19432  19448M 19451M 19463  19477M 19478M 19481  19493M
                                                 19501M 19510M 19510  19517  19539M 19540M 19541  19693M 19839M 19839
                                                 20068M 20078U 20480M 20480  20595M 20633M 20634M 20635  20701M 20711U
                                                 20717M 20734M 20734  20768U 21031M 21032M 21033  21115M 21132M 21165M
                                                 21199M 21204M 21206M 21211  21223M 21240M 21262M 21269M 21270  21271M
                                                 21272  21288M 21321M 21321  21348M 21348  21568M 21569M 21570  21573M
                                                 21574M 21575  21621M 21621  21725M 21726M 21727  21847M 21914M 21944M
                                                 21988M 21988  22054  22095M 22220M 22221M 22222  22223M 22228M 22235M
                                                 22235  22264M 22264  22361M 22388M 22413M 22438M 22597M 22607M 22633M
                                                 22664M 22665  22674M 22674  22681M 22682  22689M 22690M 22691  22702M
                                                 22730M 22730  22734  22762M 22791M 22791  22920  22956M 22956  23043M
                                                 23562M 23571M 23571  23578M 23623  23625M 23626  23627  23636M 23637M
                                                 23653M 23653  23661  23663  23958M 23958  24011M 24019M 24019  24029M
                                                 24150M 24150  24179M 24179  24261  24469M 24502M 24502  24563  24749M
                                                 24757  24760M 24761  24788M 24788  24846M 24846  24853M 24874M 24874
                                                 24891M 24892M 24893  24905  24912  24924M 24962M 24962  25024  25444M
                                                 25445M 25446  25585M 25733M 25782M 25853M 25854M 25855  25947  25966
                                                 25989  25991M 25992M 25993  25994M 25995M 25996  26125M 26126M 26127
                                                 26231M 26232M 26259M 26259  26328M 26328  26358M 26367M 26367  26428M
                                                 26429M 26430  26432M 26515M 26735M 26791M 26862M 26908M 26924M 26965M
                                                 26965  27059  27151M 27151  27172  27200M 27201M 27202  27243M 27244M
                                                 27244  27257  27263M 27283  27299M 27323M 27323  27603U 27609M 27689M
                                                 27703  27711M 27726M 27726  27734M 27736  27786M 27834M 27910M 27928M
                                                 27958M 27958  28232U 28238M 28279M 28323M 28394M 28444M 28497M 28498
                                                 28499M 28500  28545M 28572M 28606  28608M 28619  28631M 28636  28643M
                                                 28645  28690M 28732M 28733M 28733  28749M 28759  28778M 28779M 28780
                                                 28848M 28848  28985M 29013M 29053M 29054  29055M 29056  29105M 29145M
                                                 29146M 29147  29174  29183M 29207M 29232M 29233  29282M 29323M 29330M
                                                 29331M 29332  29356M 29384M 29456M 29469M 29470M 29471  29537  29546M
                                                 29551M 29554  29566M 29579M 29579  29604M 29612M 29613M 29614  29620
                                                 29624M 29626  29877M 29900M 29903M 29904  29952M 29991M 30000M 30001M
                                                 30002  30023M 30028M 30029M 30030  30161M 30188M 30198M 30198  30240M
1SIFT     (SIFT2047) (12:37) (15MAR04) Ordinary Symbol and Literal Cross Reference                                          Page  208
                                                 30248M 30249M 30250  30282M 30282  30528  30702M 30706  30718M 30727M
                                                 30736M 30736  30743  30762M 30952M 30974M 30989M 31024M 31049M 31064M
                                                 31170M 31206M 31231M 31256M 31264M 31265M 31266  31281M 31283  31309M
                                                 31352M 31352  31465M 31465  31548M 31548  31630M 31630  31713M 31713
                                                 31795M 31795  31878M 31878  31960M 31960  32043M 32043  32125M 32125
                                                 32208M 32208  32291M 32291  32367M 32398M 32429M 32464M 32499M 32534M
                                                 32557M 32589M 32589  32669M 32669  32749M 32749  32829M 32829  32909M
                                                 32909  32989M 32989  33069M 33069  33149M 33149  33210M 33225M 33254M
                                                 33254  33315M 33330M 33359M 33359  33420M 33448M 33448  33532M 33560M
                                                 33575M 33607M 33607  36337M 36338M 36338  36351M 36379M 36379  36470
                                                 36491M 36494  36506M 36511  36518M 36520  36591M 36592M 36593  36595M
                                                 36596M 36598  36600M 36616M 36617M 36619  36690M 36715M 36715  36811
                                                 36906M 36907M 36908  36909  37013M 37014M 37015  37060M 37116M 37116
                                                 37224M 37224  37501M 37502M 37503  37515M 37516M 37516  37540M 37540
                                                 37634  37640M 37655M 37668M 37692M 37692  37756  37845M 37885M 37915M
                                                 37915  38023M 38023  38047M 38047  38122M 38149M 38150M 38151  38163
                                                 38176M 38179  38182M 38213M 38213  38237M 38237
 R2            2 00000002 FFFFFFFF A   #     732  6821M  7229M  7253U  7267M  7268M  7268   7539M  7676M  7689   7721M
                                                  8292M  8306M  8306   9920M 10104M 10116  10138M 10139  10152  10284M
                                                 10287  10299M 10306  10318M 10333  10355  10370  10784M 10888M 10895M
                                                 10919U 10933M 10934M 10934  11038M 11751M 11777M 11808M 11821  11886M
                                                 11925M 11999M 12362M 12363M 12364M 12414  12425M 12426M 12439  12455M
                                                 12471M 12471  12476  12589M 12590M 12602  12790M 12791M 12792M 12805
                                                 12857M 12858M 12858  12880  12887M 12895  12897  13226M 13584M 13585M
                                                 13585  13608  13628  16082M 16085M 16103  18162M 18194M 18540M 18592
                                                 18728M 18731M 18749  20152M 20152  20268M 20285M 20319M 20336M 20357M
                                                 20377M 20377  20394  20699M 20777M 20819  20833  20866  21446M 21447M
                                                 21447  21468U 22182M 22187M 22224  22225  22471M 22642M 22692  23154M
                                                 23396M 23403M 23422  23527M 23534M 23535M 23554  23585M 23586M 23586
                                                 23608  23615M 23623  23625  23779M 23779  23789  23794M 23802M 23829
                                                 23844  24030M 24040U 24137  24363M 24379U 24393M 24394M 24394  24466M
                                                 24466  24577  25527M 25528M 25528  25565  25568  25694M 25695M 25695
                                                 25717  25720  25780M 25946M 25947M 25959  26131M 26230M 26231  26233M
                                                 26233  26356M 26469M 26470M 26470  26495  26498  26845M 26846M 26846
                                                 26885M 26886M 26886  27208M 27213M 27262  27794M 27794  27811M 27826
                                                 27928  28482M 28496M 28498M 28500M 28501  28640M 28640  28705M 28705
                                                 28815  28850M 29051M 29052M 29054M 29056M 29057  29230M 29231M 29233M
                                                 29234  29407M 29408  29621M 30181M 30188  30620M 30624M 30633M 30633
                                                 30640  30661M 31289M 31303  31314M 31315  36515M 36515  36557  36581
                                                 36594M 36601M 36835M 36838  36850M 36860  36865M 36873M 36918  36931
                                                 36972M 36973M 36973  37003
 R3            3 00000003 FFFFFFFF A   #     745  7677M  7689  10185M 10186M 10186  10207U 10213M 10231U 11809M 11821
                                                 13563M 13576  13675M 15495M 15496M 15496  15522U 18163M 18170M 18180
                                                 18187M 18188M 18206  20874M 20875M 20875  20899U 21498M 21508U 23849
                                                 24046M 24064U 24136  24783M 24800  24853  24858M 27804M 27805M 27805
                                                 27839  27847M 27847  28671M 28695M 28696  28759  28849M 29755M 29771M
                                                 29820M 29820  29838  29859  29901  29983  30001  30003  31275M 31283M
                                                 36597M 36598M 36600  36814M 36830M 36830  36835  36917  37240M 37250U
                                                 37266M 37267M 37267  37283  37293  37808M 37818U
 R4            4 00000004 FFFFFFFF A   #     758  8766M  8784U  8800M  8801M  8801   9195M 11807M 11807  11874M 11874
                                                 11881M 11987M 11987  11999  12009M 12009  12041M 12094M 12094  13564M
                                                 13576  15578M 15588U 15952M 15991  16174M 16175M 16175  16229  16240M
                                                 16254  16505M 16506M 16554  16657M 16657  16679M 16785M 16795M 16795
                                                 16806  16818M 16827M 16836M 16836  16843  16879M 16885  18180  20905M
                                                 20922M 20922  20940U 24784M 24800  28122  28143  29740M 29741M 29771
                                                 30052M 30065  30119M 30119  30210M 30277M 36813M 36936  37238M 37238
                                                 37293M 37325M 37325  37385U 37433  37781M 37782M 37782  37803U
 R5            5 00000005 FFFFFFFF A   #     771 14257M 14258M 14258  14288  14317  14419  14506  14508  14597  14714M
                                                 14882  14971  15040  15049  15150  15212  15248  15296  15349  15638
1SIFT     (SIFT2047) (12:37) (15MAR04) Ordinary Symbol and Literal Cross Reference                                          Page  209
                                                 15902  16239M 16504M 16677M 16783M 16906M 16916U 17032M 17033M 17048
                                                 17254M 17254  17311  17334  17410M 17793M 17803U 18163M 18187  20853M
                                                 20965  20967M 20995  21301M 21302  22734M 22762  29644M 29731  29838
                                                 30003M 30015  30029  30051M 30141M 30153  30167M 30168  30169  30208M
                                                 36490M 36491  36588M 36597  36619M 36622M 36636  36644M 36659M 36659
                                                 36667M 36669  36811M
 R6            6 00000006 FFFFFFFF A   #     784 14316M 14365  14491M 14491  14572M 14572  14655  14700  14713M 15633
                                                 16187M 16197U 16273M 16283U 16470M 16471M 16471  16475M 16476M 16476
                                                 16501U 16931  17031M 17433M 17443U 17692M 17716U 17730M 17731M 17731
                                                 18149M 18150M 18150  18153M 18156M 18157M 18157  18968M 18978U 19144M
                                                 19147M 19148M 19148  19157U 21076M 21086U 22449M 22452  22464M 22469
                                                 22489  22747  24317M 24318M 24318  24339U 27060M 27073M 27073  27087
                                                 27233  27556M 27619  27625M 27689  27763  27765M 27902  28179M 28248
                                                 28254M 28315  28333M 28333  28386  28404M 28404  28566M 28566  28572
                                                 28670M 28799M 28850  29551  29643M 29670M 29670  30052  30169M 30667M
                                                 30677U 30691M 30691  30933M 36271M 36284  36307  36313M 36490M 36596
                                                 36617  36618M 36622M 36643M 36876M 36886U 36985  36986  37003  37004
                                                 37205M 37214M 37214  37283  37331  37415  37459U
 R7            7 00000007 FFFFFFFF A   #     797  7353M  7363U  7378M  7379M  7379   7763M  7815   7833   8278M  8279M
                                                  8279   8293   8870M  8899  13061M 13071U 13165M 13175U 14271M 14313U
                                                 14353M 14467M 14468M 14468  14579M 14628M 14629M 14629  14664M 14671M
                                                 14685M 14686M 14686  14726M 14726  15512  15565  16001M 16203M 16287M
                                                 16297U 16335M 16343U 16356M 16357M 16357  16455M 16456M 16456  16995M
                                                 17083M 17101U 17147M 17155U 17168M 17169M 17169  17204M 17205M 17205
                                                 17457  17505M 17515U 17691M 17787  17899M 17909U 18022M 18038U 18052M
                                                 18053M 18053  18294M 18304U 18656M 18657M 18657  18676U 18848M 18849M
                                                 18849  18868U 18984M 19028M 19036U 19049M 19050M 19050  19091M 19091
                                                 19311M 19355M 19363U 19376M 19377M 19377  19418M 19418  19576M 19586U
                                                 20041M 20042M 20042  20063U 21767M 22476M 22757  25210M 25210  25227M
                                                 25257M 25257  25659M 25659  27059M 27109  27238  27555M 27618  27624M
                                                 27688  27897  28178M 28247  28253M 28310  28331M 28331  28381  28402M
                                                 28402  28661  28667  28668M 28669  28796  28797M 28849  29641  29642M
                                                 30051  30141  30148  30168M 30528M 30952  30974  30989  31024  31049
                                                 31064  31170  31206  31231  31256  31309  32367  32398  32429  32464
                                                 32499  32534  32557  33210  33225  33315  33330  33420  33532  33560
                                                 33575  36242M 36243M 36243  36272M 36284  36470M 37756M 37766U
 SCB         434 00000000 FFFFFFE4     J    4335  7428   7443U  7540   7606   9228U  9375U  9807  11040  11284  11373
                                                 11658  12047  12060  12128  12198  12327U 12566U 12724U 12996  13227
                                                 13328U 13442  13540U 13660  13994U 14243  14313U 14671  16009  16034U
                                                 16109  16162  18367  18485  18505  18520  18536U 18592M 18597  18676U
                                                 18755  18773  18788U 18868U 18927  18942U 19963U 19980  20126  20549
                                                 20558U 21034  21287  21406U 21423  21595  21678U 21709  21846  21913
                                                 21943  22050U 22081  22227  22324U 22596  22701  22916U 23950  24010
                                                 24028  24257U 24275  24468  24559U 24923  25020U 25584  25732  25781
                                                 26431  26514  26861  26907  26923  27544U 28166U 30515U 31430U 31512U
                                                 31595U 31677U 31760U 31842U 31925U 32007U 32090U 32172U 32255U 32338U
                                                 32636U 32716U 32796U 32876U 32956U 33036U 33116U 33196U 33301U 33406U
                                                 33495U 36162U 36772U 36798  37060  37174U 37191  37591  37601U 37751U
                                                 38010U 38015
 SCBACCT       5 00000124 FFFFFFE4     C    3927  4090   4090  12022M 12022  14837M 14837  18348M 18348  18389M 18389
                                                 20006M 20006  20351M 20351  20417M 20417  21147M 21147  21560M 21560
 SCBACLCK      8 000000E8 FFFFFFE4     D    3769  3771   3771  18271M 19771M
 SCBAFLAG      1 000000CC FFFFFFE4     R    3726  3730   3735   3740   3745  32265M 32382
 SCBANO        2 00000129 FFFFFFE4     X    3930 13196  15108
 SCBAWRQH      4 00000024 FFFFFFE4     A    3600 22642  22665M 22681
 SCBAWRQT      4 00000028 FFFFFFE4     A    3601 22223  22224M 22682M
 SCBBFLAG      1 000000CD FFFFFFE4     R    3751  3755
 SCBCHAR       8 0000016E FFFFFFE4     C    4270 36177M 36177  36221  36265  36301  36325M 36325
 SCBCHG       12 000000E8 FFFFFFE4     X    3771 17873  17873  18270M 18270  19766M 19766  19887
1SIFT     (SIFT2047) (12:37) (15MAR04) Ordinary Symbol and Literal Cross Reference                                          Page  210
 SCBCMD        1 000000B3 FFFFFFE4     X    3691  7578  10699M 21812  21903  22530  22698M 23884M 25247M 25581M 26424M
                                                 26511M
 SCBCPDBP      4 00000020 FFFFFFE4     A    3598 23750M 23750  23805M 25466  25484M 25484  26469  26505M 26505  26563
                                                 26577M 26577
 SCBCRI        2 000001A4 FFFFFFE4     H    4317  4322   4322  28496  28497  29031M 29031  29051  29053  29223M 29223
                                                 29230  29232
 SCBDRPTR      4 000000C8 FFFFFFE4     A    3722 23442M 23442  23532M 25498  25516M 25516  27867  27884M 27884
 SCBDSUBP      4 0000002C FFFFFFE4     A    3603  7657   7670M  7670  10815  11764M 11925  13226  13628  18272M
 SCBFBACK     64 00000168 FFFFFFE4         4214 18457  18457  18458  18458  18460M
 SCBFBLNK     32 000000CC FFFFFFE4         3740 31934M 32017M 32482
 SCBFBOLD    128 000000CC FFFFFFE4         3730 31439M 31522M 32412
 SCBFCLN       8 0000015E FFFFFFE4         4163  9767M  9790M 18442  18442  18443  18443  18444  18444  18445  18445
                                                 20687  21749  21749  21750  21750  21751  21751  22406
 SCBFDSC     128 000000FF FFFFFFE4         3875 21442M 21787
 SCBFERA      64 00000169 FFFFFFE4         4259 18465M
 SCBFFAST     32 00000168 FFFFFFE4         4219 10551  18457  18457  18459  18459
 SCBFFILT      2 00000168 FFFFFFE4         4239 10676
 SCBFINV      16 000000CC FFFFFFE4         3745 31604M 31687M 32099M 32182M 32517
 SCBFKEPT      2 000000FF FFFFFFE4         3905 15324
 SCBFKL       16 000000FF FFFFFFE4         3890 18289  18289  18290  18290  18292M 18919M
 SCBFLG        1 00000168 FFFFFFE4     R    4205  4209   4214   4219   4224   4229   4234   4239   4244
 SCBFLGF      64 000000FF FFFFFFE4         3880 10769  10769  10770  11954M 11998M 21733M 22105  25120M 25134  26221
 SCBFLG2       1 00000169 FFFFFFE4     R    4250  4254   4259   4264
 SCBFMOD     128 0000015A FFFFFFE4         4106 13094  32351  33508
 SCBFMT        4 000000FF FFFFFFE4         3900 18290  18290  18291  18291
 SCBFNBRK     32 0000015E FFFFFFE4         4153 18437  18437  18438  18438  18441  18441  18444  18444  21747  21747
                                                 21748  21748  21751  21751  22545
 SCBFNCOM     64 0000015E FFFFFFE4         4148 18436  18436  18438  18438  18440  18440  18443  18443  21746  21746
                                                 21748  21748  21750  21750
 SCBFNMSG    128 0000015E FFFFFFE4         4143 18436  18436  18437  18437  18439  18439  18442  18442  18446M 21746
                                                 21746  21747  21747  21749  21749  21752M 22431
 SCBFNTIM     16 0000015E FFFFFFE4         4158 18439  18439  18440  18440  18441  18441  18445  18445  20210
 SCBFNTM      64 0000012C FFFFFFE4         3978 20191
 SCBFPSP       8 00000168 FFFFFFE4         4229 18458  18458  18459  18459
 SCBFQUIET
               8 00000186 FFFFFFE4         4299  9638  11499
 SCBFSAMFONT
             128 00000169 FFFFFFE4         4254 31126
 SCBFSETFONT
             128 000000CD FFFFFFE4         3755 28187M 31144  31180M
 SCBFSOF      32 000000FF FFFFFFE4         3885 10769  10769  11745  11763M 11776M 11908  11924M 25095
 SCBFSPR      32 0000012E FFFFFFE4         4030 37876
 SCBFTDAY     64 000000B2 FFFFFFE4         3687 20295M 20318M 20451M 20800
 SCBFTO        8 000000FF FFFFFFE4         3895 18289  18289  18291  18291  21027M
 SCBFTRC     128 0000015F FFFFFFE4         4188 11423  26711
 SCBFUND      64 000000CC FFFFFFE4         3735 31769M 31852M 32447
 SCBFUPL     128 00000168 FFFFFFE4         4209 10470  18471M
 SCBFWARN    128 000000B2 FFFFFFE4         3682 11196M 18280M 21016  21299M 25340M
 SCBFXON       4 00000168 FFFFFFE4         4234 10599
 SCBGRP        2 00000127 FFFFFFE4     C    3929 13188  15006  15228  15268
 SCBHEI        2 0000018C FFFFFFE4     H    4305 13112
 SCBHEIP       2 0000018A FFFFFFE4     H    4304 13114  18483M 18483  21759M 21759  29160M 29160  29174  29523M 29523
                                                 29537
 SCBHTI        2 000001AA FFFFFFE4     H    4319 29893  29900  29902
 SCBID         4 000000F4 FFFFFFE4     F    3776 14365  14655  14700  18517M 18708  18900  37634  37640  37858
 SCBIDMAX      2 0000019E FFFFFFE4     H    4312 20435  20444
 SCBIHDR       8 000000F4 FFFFFFE4     X    3779 37778
 SCBINCT       2 000000BE FFFFFFE4     H    3716 12899M 23627M 25959  25965  26128  27763  27765
 SCBINMX       2 0000016A FFFFFFE4     H    4268 12857  23585
1SIFT     (SIFT2047) (12:37) (15MAR04) Ordinary Symbol and Literal Cross Reference                                          Page  211
 SCBKAFL       1 0000012F FFFFFFE4     R    4061  4065   4070   4075   4080   4085
 SCBKIFL       1 0000012E FFFFFFE4     R    4016  4020   4025   4030   4035   4040   4045   4050   4055
 SCBLCLCK      8 0000011C FFFFFFE4     X    3925 18263M 18271
 SCBLFI        2 000001A8 FFFFFFE4     H    4318 28499  29044M 29044  29055  29400M 29400  29407
 SCBLINK       4 00000004 FFFFFFE4     A    3588  7428   7457  14664  14671  14685  16001  18520  18551  18592M 18592
                                                 18594M 20549  20575  37591  37616
 SCBMOD        4 000000B4 FFFFFFE4     X    3693 10700M 22699M 25157  25582M 26426  26512M
 SCBMODB       1 000000B5 FFFFFFE4     X    3695 25438  25847  25886  27643  28368  29713  30045
 SCBMODC       1 000000B6 FFFFFFE4     X    3696 27678  28352  29656
 SCBMODD       1 000000B7 FFFFFFE4     X    3697 26278  26399  27570  27659  28199  28297  28721  29133  29483
 SCBMXREM      2 000000D0 FFFFFFE4     H    3761 18511M
 SCBNAME      20 00000136 FFFFFFE4     C    4097 13192  13193  13194  15483  15893  15893  15894  15915  15952  19864
 SCBNIO        4 000000F0 FFFFFFE4     F    3770 11143  11144M
 SCBNMSG       2 00000100 FFFFFFE4     H    3909 22126  22221  22222M 22354M 22354  22689  22691M 25675M 25675
 SCBNO         2 000000F8 FFFFFFE4     H    3777 13195  22933  23203  25082
 SCBNTRC       4 000000D8 FFFFFFE4     F    3765 37014  37015M 37032  37501  37503M
 SCBOCNT       2 000000C2 FFFFFFE4     H    3719 25427M 25427  25821M 25821  28779  28780M 29146  29147M 29470  29471M
 SCBOFLAG      1 00000186 FFFFFFE4     R    4275  4279   4284   4289   4294   4299
 SCBOPOS       2 000000C0 FFFFFFE4     H    3718 25444  25446M 25853  25855M 28482  28494M 28494  28590  28695  28696M
                                                 28774M 28774  29052  29121M 29121  29231  29298M 29298  29330  29332M
                                                 29502M 29502  29613  29614M 29740  30000  30002M 30028  30030M 30249
                                                 30250M 31265  31266M 31314  31315M 33230M 33335M
 SCBOPST       4 00000134 FFFFFFE4     F    4095  4324   4324
 SCBOPT      126 00000134 FFFFFFE4     X    4324 16150M 19866
 SCBPDBP       4 00000018 FFFFFFE4     A    3596 23124M 23124  23159M 25527  25579M 25579  25625  25643M 25643
 SCBPIBP       4 00000008 FFFFFFE4     A    3590 10185  15397  15495  16187  16273  16979  17067  18968  19295  20041
                                                 20874  21446  21549M 21549  23926M 23926  24030  24317  37781
 SCBPRPTR      4 000000C4 FFFFFFE4     A    3721 23364M 23364  23401M 27804  27852M
 SCBQFLG       1 0000015C FFFFFFE4     R    4124  4128
 SCBR          9 00000009 00000001 A   #    1044  7428M  7443U  7457M  7458M  7458   9366M  9375U  9400  12327U 12566U
                                                 12724U 13328U 13540U 13994U 14271  14353  16034U 18567  18595  19954M
                                                 19963U 20549M 20558U 20575M 20576M 20576  21397M 21406U 21669M 21678U
                                                 22041M 22050U 22315M 22324U 22907M 22916U 23960M 23960  24248M 24257U
                                                 24550M 24559U 25011M 25020U 25038  27544U 28166U 30515U 31430U 31512U
                                                 31595U 31677U 31760U 31842U 31925U 32007U 32090U 32172U 32255U 32338U
                                                 32636U 32716U 32796U 32876U 32956U 33036U 33116U 33196U 33301U 33406U
                                                 33495U 36162U 36772U 37174U 37742M 37751U 38001M 38010U
 SCBSESS      16 00000124 FFFFFFE4     X    4090 18495M 18771M 19893  19895
 SCBSFLG       1 0000012B FFFFFFE4     R    3934  3938   3943   3948   3953   3958   3963
 SCBSFOP      16 0000012B FFFFFFE4         3953 14757
 SCBSFPS      32 0000012B FFFFFFE4         3948 12034  14818  18330M 20668
 SCBSINP       4 00000014 FFFFFFE4     A    3594 25153
 SCBSPDBP      4 0000001C FFFFFFE4     A    3597  9884M  9884   9925M 25694  25731M 25731  26071M 26071  26136M
 SCBSTAG      16 00000080 FFFFFFE4     C    3608 18414M 18414  20019M 20019
 SCBSTART      4 000000F4 FFFFFFE4     F    3775  3779   3779   4091   4091   4196   4196
 SCBSTAT       1 000000FF FFFFFFE4     R    3871  3875   3880   3885   3890   3895   3900   3905
 SCBSUB        8 00000104 FFFFFFE4     C    3914 24671  24781M
 SCBSUBE       1 00000080 FFFFFFE4     U    3606  7677  11809  13564  24784
 SCBSUBL       4 00000030 FFFFFFE4     A    3605  7676  11808  13563  24783
 SCBSUBP       4 0000000C FFFFFFE4     A    3591  7476   7482M  9244   9459  13608  18272  22149M 22149  24780M 25756
                                                 26589
 SCBSUBPL      1 0000000D 00000001 A   U    5553  6458
 SCBTABS      16 00000176 FFFFFFE4     X    4271 18478M 18478  29742  29743
 SCBTACF       1 0000012C FFFFFFE4     R    3969  3973   3978   3983   3988   3993   3998   4003   4008
 SCBTCONS      1 000000FC FFFFFFE4         3793 15469  20164  23466
 SCBTFAIO     32 000000B0 FFFFFFE4         3627  7506   9824  21805  21805  22381  22984  23035  23035  23084M 23990
                                                 23990  25053  25220  25241  25241
 SCBTFBRK      8 000000B1 FFFFFFE4         3672 23003  23017M 23058M
 SCBTFDISP
1SIFT     (SIFT2047) (12:37) (15MAR04) Ordinary Symbol and Literal Cross Reference                                          Page  212
              64 000000B8 FFFFFFE4         3710  9704   9704   9705M  9728M  9916   9916   9917M 22568  22568  22569
                                                 22626  26662
 SCBTFHIO      4 000000B0 FFFFFFE4         3642 10731M 26116  26116  26677  26772  26772
 SCBTFIO      64 000000B0 FFFFFFE4         3622  9860  21882  22966  23035  23035  23036  23106M 25067  25067  25241
                                                 25241  25242M
 SCBTFLAG      1 0000015A FFFFFFE4     R    4102  4106   4111   4116
 SCBTFLG       1 000000B0 FFFFFFE4     R    3613  3617   3622   3627   3632   3637   3642
 SCBTFLG2      1 000000B1 FFFFFFE4     R    3648  3652   3657   3662   3667   3672
 SCBTFLG3      1 000000B8 FFFFFFE4     R    3701  3705   3710
 SCBTFPNL    128 000000B1 FFFFFFE4         3652 26387M 28426  28455M
 SCBTFPP      64 000000B1 FFFFFFE4         3657 23882M 26171  26183M 26423M
 SCBTFPRI     16 000000B1 FFFFFFE4         3667 25452M 25898M 28461M 28476  28489M
 SCBTFQIO      8 000000B0 FFFFFFE4         3637  9410   9410   9668M  9689   9689   9906   9906  11590  13353
 SCBTFREP     32 000000B1 FFFFFFE4         3662 22581M 25312  26027  26039M
 SCBTFSIO     16 000000B0 FFFFFFE4         3632  9410   9410   9411M  9689   9689   9690   9906   9906   9907M 11113
                                                 11396  12588M 12634M 12749
 SCBTFSYN    128 000000B0 FFFFFFE4         3617  7494   7517M  9978   9997M 21805  21805  21806  21867  22512  23990
                                                 23990  23991  24310M 25067  25067  25068  25767M 26095  26116  26116
                                                 26117M 26634  26772  26772  26773M
 SCBTFTRAN
             128 000000B8 FFFFFFE4         3705  9704   9704   9755M  9916   9916  22568  22568
 SCBTID        8 0000014A FFFFFFE4     C    4098 13084  14783
 SCBTMINC      2 000000FA FFFFFFE4     H    3778 11201M 11201  20634  20635M 20995  21204  21302M 25345M 25345
 SCBTMOUT      2 000000D2 FFFFFFE4     H    3762 20394M 20444M 20649M 20649  20853
 SCBTPDP       3 000000FC FFFFFFE4         3813 23478
 SCBTRCQH      4 000000DC FFFFFFE4     A    3766 36985M 37038  37240  37331M 37342M 37342  37515
 SCBTRCQT      4 000000E0 FFFFFFE4     A    3767 36972  36986M 37004M 37355M 37355  37433M
 SCBTTYPE      8 0000018E FFFFFFE4     C    4307 13083
 SCBTVIRT      5 000000FC FFFFFFE4         3833 20176  23490
 SCBTVTAM      4 000000FC FFFFFFE4         3823 36207
 SCBTYPE       1 000000FC FFFFFFE4     R    3784  3793   3803   3813   3823   3833   3843   3853   3863
 SCBUC         2 00000134 FFFFFFE4     H    4096 16092  18738  18770M 18924  18925M 21032  21033M 21726  21727M 25156
 SCBUFLG       1 0000015E FFFFFFE4     R    4139  4143   4148   4153   4158   4163   4168   4173   4178
 SCBUFLG2      1 0000015F FFFFFFE4     R    4184  4188   4193
 SCBUSER       3 00000124 FFFFFFE4     C    3928 13190  15020  15170  15385
 SCBVINFO     16 0000010C FFFFFFE4     X    3923 10023M 18421M 18421  25155
 SCBVPGM       8 0000010C FFFFFFE4     C    3917  3923   3923
 SCBWID        2 00000188 FFFFFFE4     H    4303 13111  13113  28575  28732
 SCBXFLG       1 000000B2 FFFFFFE4     R    3678  3682   3687
 SCBXLEP       4 00000010 FFFFFFE4     A    3592 36189M 36189  36233M 36233  36242  36307M 36330M 36330  36337
 SCB1        182 000000FC FFFFFFE4     X    4326 37843
 SCB1ST        4 000000FC FFFFFFE4     F    3781  4326   4326
 SEG           1 00000000 00000016     T   22812 22812  27981  30332  31370  33619
 SEGB          1 00000000 00000017     T   22813 22813
 SEGBLANK      1 00000000 0000001D     T   30341 30341
 SEGCB        60 00000000 FFFFFFE0     J    4795 21074M 21086U 21284  22825
 SEGCBCOD      1 00000000 FFFFFFE0     R    4706  4715   4725   4735   4745   4755   4765   4775
 SEGCBLENF
               4 0000000C FFFFFFE0     A    4781 21269
 SEGDC         1 00000000 00000018     T   22814 22814
 SEGINIT       1 00000000 00000015     T   22811 22811  27980  30331
 SESSERR       2 00006454 00000001     H   37968 37964
 SESSTRC       2 000060E6 00000001     H   36731 13910  27348
 SESTIMER      2 0000272C 00000001     H   20515 20511  22804
 SESTMOUT      2 00002770 00000001     H   20612 20583B
 SHUTDOWN      1 00000000 0000000F     T   19877 19877
 SIB         254 00000000 FFFFFFD8     X    6288 37766U 37777M 37777  37845
 SIBACCT       5 00000070 FFFFFFD8     C    5887  6050   6050  18361M 18361  18402M 18402
 SIBCRI        2 000000F0 FFFFFFD8     H    6277  6282   6282
1SIFT     (SIFT2047) (12:37) (15MAR04) Ordinary Symbol and Literal Cross Reference                                          Page  213
 SIBFE         8 00000008 FFFFFFD8     C    5617 37824M
 SIBFL         1 00000040 FFFFFFD8     R    5625  5629   5634   5639   5644   5649
 SIBFLG        1 000000B4 FFFFFFD8     R    6165  6169   6174   6179   6184   6189   6194   6199   6204
 SIBFLG2       1 000000B5 FFFFFFD8     R    6210  6214   6219   6224
 SIBFL2        1 00000041 FFFFFFD8     R    5655  5659   5664   5669   5674
 SIBFL3        1 00000042 FFFFFFD8     R    5680  5684   5689   5694
 SIBFL4        1 00000043 FFFFFFD8     R    5700  5704   5709   5714
 SIBFL5        1 00000044 FFFFFFD8     R    5720  5724   5729   5734
 SIBFOPR      16 0000007A FFFFFFD8         5995  9022   9022
 SIBFSPR      32 0000007A FFFFFFD8         5990  9022   9022
 SIBG        172 00000000 FFFFFFD8     X    6156 37885
 SIBID         4 00000000 FFFFFFD8     F    5612 37858
 SIBIHDR       8 00000000 FFFFFFD8     X    5615 37778M
 SIBKAFL       1 0000007B FFFFFFD8     R    6021  6025   6030   6035   6040   6045
 SIBKIFL       1 0000007A FFFFFFD8     R    5976  5980   5985   5990   5995   6000   6005   6010   6015
 SIBOFLAG      1 000000D2 FFFFFFD8     R    6235  6239   6244   6249   6254   6259
 SIBOPST       4 00000080 FFFFFFD8     F    6055  6284   6284
 SIBPIB       54 00000010 FFFFFFD8     X    5739 37807M 37918  37918
 SIBPORT       8 00000010 FFFFFFD8     C    5619  5739   5739
 SIBQFLG       1 000000A8 FFFFFFD8     R    6084  6088
 SIBSESS      16 00000070 FFFFFFD8     X    6050 18304U 18495
 SIBSFLG       1 00000077 FFFFFFD8     R    5894  5898   5903   5908   5913   5918   5923
 SIBSFPS      32 00000077 FFFFFFD8         5908 18318
 SIBSTART      4 00000000 FFFFFFD8     F    5611  5615   5615   6051   6051   6156   6156   6288   6288
 SIBSTAT       1 0000004B FFFFFFD8     R    5831  5835   5840   5845   5850   5855   5860   5865
 SIBTACF       1 00000078 FFFFFFD8     R    5929  5933   5938   5943   5948   5953   5958   5963   5968
 SIBTFLAG      1 000000A6 FFFFFFD8     R    6062  6066   6071   6076
 SIBTYPE       1 00000048 FFFFFFD8     R    5744  5753   5763   5773   5783   5793   5803   5813   5823
 SIBUFLG       1 000000AA FFFFFFD8     R    6099  6103   6108   6113   6118   6123   6128   6133   6138
 SIBUFLG2      1 000000AB FFFFFFD8     R    6144  6148   6153
 SIBVPGM       8 00000058 FFFFFFD8     C    5877  5883   5883
 SIB1        182 00000048 FFFFFFD8     X    6286 37843M
 SIB1ST        4 00000048 FFFFFFD8     F    5741  6286   6286
 SIFT2047      1 00000000 00000001     R    1008  1006
 SINEUPD       1 00000000 00000007     T   13905 13905  22802  27342
 SINVPGM       8 00000098 FFFFFFE3     C    4380  4386   4386
 SMSGSUBP      1 00000022 00000001 A   U    5574  6479
 SOCKSUBP      1 00000021 00000001 A   U    5573  6478
 SPDBSUBP      1 00000015 00000001 A   U    5561  6466   9919  22470  23153  23786  26130
 SPR          13 0000000D 00000001 A   #    1108  6314   6317   6333M  6335   6335   6336   6336   6337   6442M  6442
                                                  6445   6447   6449   6449   6553   6556   6572M  6574   6574   6575
                                                  6575   6576   6765M  6765   6768   6770   6772   6772   6790   6793
                                                  6809M  6811   6811   6812   6812   6813   6967M  6967   6970   6972
                                                  6974   6974   6992   6995   7011M  7013   7013   7014   7014   7015
                                                  7895M  7895   7898   7900   7902   7902   8016   8019   8035M  8037
                                                  8037   8038   8038   8039   8392M  8392   8395   8397   8399   8399
                                                  8437   8440   8456M  8458   8458   8459   8459   8460   8866M  8868
                                                  8868   8869   8869   8870   9033M  9033   9036   9036   9059M  9059
                                                  9062   9062   9306M  9306   9309   9311   9313   9313   9337   9340
                                                  9356M  9358   9358   9359   9359   9360  12261M 12261  12264  12266
                                                 12268  12268  12290  12293  12309M 12311  12311  12312  12312  12313
                                                 12506M 12506  12509  12511  12513  12513  12529  12532  12548M 12550
                                                 12550  12551  12551  12552  12664M 12664  12667  12669  12671  12671
                                                 12687  12690  12706M 12708  12708  12709  12709  12710  13261M 13261
                                                 13264  13266  13268  13268  13291  13294  13310M 13312  13312  13313
                                                 13313  13314  13476M 13476  13479  13481  13483  13483  13503  13506
                                                 13522M 13524  13524  13525  13525  13526  13710M 13710  13713  13715
                                                 13717  13717  13737  13740  13756M 13758  13758  13759  13759  13760
                                                 13866M 13866  13869  13871  13873  13873  13957  13960  13976M 13978
1SIFT     (SIFT2047) (12:37) (15MAR04) Ordinary Symbol and Literal Cross Reference                                          Page  214
                                                 13978  13979  13979  13980  19831M 19831  19834  19836  19838  19838
                                                 19925  19928  19944M 19946  19946  19947  19947  19948  20472M 20472
                                                 20475  20477  20479  20479  20519  20522  20538M 20540  20540  20541
                                                 20541  20542  20616  20619  20620M 20622  20622  20623  20623  20624
                                                 21072M 21074  21074  21075  21075  21076  21282M 21282  21285  21285
                                                 21313M 21313  21316  21318  21320  21320  21340M 21340  21343  21345
                                                 21347  21347  21368  21371  21387M 21389  21389  21390  21390  21391
                                                 21613M 21613  21616  21618  21620  21620  21640  21643  21659M 21661
                                                 21661  21662  21662  21663  21763M 21765  21765  21766  21766  21767
                                                 21956M 21956  21959  21959  21980M 21980  21983  21985  21987  21987
                                                 22012  22015  22031M 22033  22033  22034  22034  22035  22256M 22256
                                                 22259  22261  22263  22263  22286  22289  22305M 22307  22307  22308
                                                 22308  22309  22783M 22783  22786  22788  22790  22790  22878  22881
                                                 22897M 22899  22899  22900  22900  22901  23766  23767M 23769  23769
                                                 23770  23770  23789  23790M 23792  23792  23793  23793  23800M 23800
                                                 23802  23804  23804  23871M 23871  23874  23876  23876  24171M 24171
                                                 24174  24176  24178  24178  24219  24222  24238M 24240  24240  24241
                                                 24241  24242  24494M 24494  24497  24499  24501  24501  24521  24524
                                                 24540M 24542  24542  24543  24543  24544  24954M 24954  24957  24959
                                                 24961  24961  24982  24985  25001M 25003  25003  25004  25004  25005
                                                 26957M 26957  26960  26962  26964  26964  26991  26994  27010M 27012
                                                 27012  27013  27013  27014  27315M 27315  27318  27320  27322  27322
                                                 27497  27500  27517M 27519  27519  27520  27520  27521  27949M 27949
                                                 27953  27955  27957  27957  28119  28122  28139M 28141  28141  28142
                                                 28142  28143  30273M 30273  30277  30279  30281  30281  30468  30471
                                                 30488M 30490  30490  30491  30491  30492  31343M 31343  31347  31349
                                                 31351  31351  31393  31396  31412M 31414  31414  31415  31415  31416
                                                 31457M 31457  31460  31462  31464  31464  31475  31478  31494M 31496
                                                 31496  31497  31497  31498  31540M 31540  31543  31545  31547  31547
                                                 31558  31561  31577M 31579  31579  31580  31580  31581  31622M 31622
                                                 31625  31627  31629  31629  31640  31643  31659M 31661  31661  31662
                                                 31662  31663  31705M 31705  31708  31710  31712  31712  31723  31726
                                                 31742M 31744  31744  31745  31745  31746  31787M 31787  31790  31792
                                                 31794  31794  31805  31808  31824M 31826  31826  31827  31827  31828
                                                 31870M 31870  31873  31875  31877  31877  31888  31891  31907M 31909
                                                 31909  31910  31910  31911  31952M 31952  31955  31957  31959  31959
                                                 31970  31973  31989M 31991  31991  31992  31992  31993  32035M 32035
                                                 32038  32040  32042  32042  32053  32056  32072M 32074  32074  32075
                                                 32075  32076  32117M 32117  32120  32122  32124  32124  32135  32138
                                                 32154M 32156  32156  32157  32157  32158  32200M 32200  32203  32205
                                                 32207  32207  32218  32221  32237M 32239  32239  32240  32240  32241
                                                 32283M 32283  32286  32288  32290  32290  32301  32304  32320M 32322
                                                 32322  32323  32323  32324  32581M 32581  32584  32586  32588  32588
                                                 32599  32602  32618M 32620  32620  32621  32621  32622  32661M 32661
                                                 32664  32666  32668  32668  32679  32682  32698M 32700  32700  32701
                                                 32701  32702  32741M 32741  32744  32746  32748  32748  32759  32762
                                                 32778M 32780  32780  32781  32781  32782  32821M 32821  32824  32826
                                                 32828  32828  32839  32842  32858M 32860  32860  32861  32861  32862
                                                 32901M 32901  32904  32906  32908  32908  32919  32922  32938M 32940
                                                 32940  32941  32941  32942  32981M 32981  32984  32986  32988  32988
                                                 32999  33002  33018M 33020  33020  33021  33021  33022  33061M 33061
                                                 33064  33066  33068  33068  33079  33082  33098M 33100  33100  33101
                                                 33101  33102  33141M 33141  33144  33146  33148  33148  33159  33162
                                                 33178M 33180  33180  33181  33181  33182  33246M 33246  33249  33251
                                                 33253  33253  33264  33267  33283M 33285  33285  33286  33286  33287
                                                 33351M 33351  33354  33356  33358  33358  33369  33372  33388M 33390
                                                 33390  33391  33391  33392  33440M 33440  33443  33445  33447  33447
                                                 33458  33461  33477M 33479  33479  33480  33480  33481  33517  33518M
                                                 33520  33520  33521  33521  33538M 33538  33541  33543  33543  33599M
1SIFT     (SIFT2047) (12:37) (15MAR04) Ordinary Symbol and Literal Cross Reference                                          Page  215
                                                 33599  33602  33604  33606  33606  36125  36128  36144M 36146  36146
                                                 36147  36147  36148  36371M 36371  36374  36376  36378  36378  36424
                                                 36427  36444M 36446  36446  36447  36447  36448  36706M 36706  36710
                                                 36712  36714  36714  36735  36738  36754M 36756  36756  36757  36757
                                                 36758  36860  36861M 36863  36863  36864  36864  36871M 36871  36873
                                                 36875  36875  37108M 37108  37111  37113  37115  37115  37137  37140
                                                 37156M 37158  37158  37159  37159  37160  37532M 37532  37535  37537
                                                 37539  37539  37562  37565  37581M 37583  37583  37584  37584  37585
                                                 37684M 37684  37687  37689  37691  37691  37713  37716  37732M 37734
                                                 37734  37735  37735  37736  37907M 37907  37910  37912  37914  37914
                                                 37972  37975  37991M 37993  37993  37994  37994  37995  38039M 38039
                                                 38042  38044  38046  38046  38070  38073  38089M 38091  38091  38092
                                                 38092  38093  38229M 38229  38232  38234  38236  38236
 SQPDSUBP      1 00000018 00000001 A   U    5564  6469
 SSB          56 00000000 FFFFFFDD     J    5003 17803U 17813M 17813  17816
 SSBBASIC     52 00000004 FFFFFFDD     X    4996 17815M 17849  17849
 SSBFLAG       1 00000014 FFFFFFDD     R    4977  4981
 SSBID         2 00000000 FFFFFFDD     H    4970 17814M
 SSBNAME       8 00000004 FFFFFFDD     C    4973  4996   4996
 SSTENTER      4 000032F0 00000001     I   24468 24437B
 SSTWYL        2 000032EE 00000001     H   24464 24356B 24431B
 STMPSUBP      1 0000001E 00000001 A   U    5570  6475
 STOPCHK       1 00000000 00000009     T   13914 13914
 STRC         44 00000000 FFFFFFD9     J    5546 36886U 36897M 37003M 37056U 37072U 37240  37250U 37331  37385U 37402
                                                 37415  37459U 37477  37490M 37493
 STRCACTLEN
               2 00000028 FFFFFFD9     H    5534 36917M
 STRCCLCK      8 00000008 FFFFFFD9     D    5518 36902M
 STRCDATA      1 0000002C FFFFFFD9     X    5539 36926
 STRCDLEN      2 0000002A FFFFFFD9     H    5535 36918M
 STRCFASCII
             128 00000010 FFFFFFD9         5526 36962M
 STRCFLAG      1 00000010 FFFFFFD9     R    5522  5526
 STRCHDR      44 00000000 FFFFFFD9     X    5536 36856  36896M 36896
 STRCLINK      4 00000004 FFFFFFD9     A    5517 37003M 37240  37266  37331  37415M 37415  37426M 37426  37491M
 STRCMAX#      1 000001F4 00000001 A   X    5506 37935
 STRCMXDL      1 000003E8 FFFFFFD9 A   N    5538 37931
 STRCSTRT      4 00000000 FFFFFFD9     C    5516  5536   5536
 STRCSUBP      1 00000013 00000001 A   U    5559  6464  36857
 STRCTYPE     16 00000011 FFFFFFD9     C    5530 13887  13888  13889  13890  27333  36913M
 STRCUID       4 00000024 FFFFFFD9     F    5532 36909M
 SUB         132 00000000 FFFFFFDF     J    4924  6583   6598U  6632   6819   6835U  6845M  6845   6846M  6934U  7030U
                                                  7048   7229   7253U  7298   7298   7300   7300   7304M  7304M  7319U
                                                  7743   7759U  7815M  7869M  7870   8045   8062U  8140   8140   8157
                                                  8157   8161M  8161M  8243   8243   8260   8260   8264M  8264M  8474U
                                                  8503   8503   8520   8520   8524M  8524M  8665   8665   8667   8667
                                                  8671M  8671M  8766   8784U  8847U  9468U 10837U 10895  10919U 11013U
                                                 13558U 13774U 13823  13832  14012U 17692  17716U 17837U 24363  24379U
                                                 24622U 24639  26787U 27028U 27045  38108U 38176  38176  38178  38178
                                                 38182M 38182M 38200
 SUBASCBP      4 0000000C FFFFFFDF     A    4822  8915M  8935   8995
 SUBBASIC     52 00000010 FFFFFFDF     X    4848 17815  17849  17849
 SUBCLS        2 00000280 00000001     H    6988  8410  13919  38249
 SUBCUR        2 0000002E FFFFFFDF     H    4841  7729   7731M 11895  11897M 24892  24893M
 SUBDIE        2 0000011C 00000001     H    6549  6545
 SUBDN         4 0000049E 00000001     I    7729  7716B
 SUBDO         2 000005AC 00000001     H    8012  7915   8008
 SUBDQ         6 000004D6 00000001     I    7815  7793B
 SUBEN         4 0000342A 00000001     I   24921 24819B
1SIFT     (SIFT2047) (12:37) (15MAR04) Ordinary Symbol and Literal Cross Reference                                          Page  216
 SUBENTER      2 00003312 00000001     H   24517  7923  13904  27341
 SUBERR        2 00006490 00000001     H   38066 38062
 SUBEXIT       2 00003A54 00000001     H   26916 25610B 25678B 25738B 25791B 26156B 26457B 26540B 26796B 26867B
 SUBFIN        2 00000018 00000001     H    6310  6306
 SUBFLAG       1 00000020 FFFFFFDF     R    4828  4832
 SUBFPRIV    128 00000020 FFFFFFDF         4832  8862M  8962M  9049M 14068
 SUBID         2 00000004 FFFFFFDF     H    4818  6853M 17787  17814
 SUBJOBNM      8 00000018 FFFFFFDF     C    4825  8856M  8954M
 SUBLINK       4 00000008 FFFFFFDF     F    4821  6583   6612   6940M  7229   7267   7743   7774   7815M  7815   7826M
                                                  7826   7838M  8045   8076   8766   8800  10895  10933  17692  17730
                                                 24363  24393
 SUBMAX        2 0000002C FFFFFFDF     H    4840 24905  24912M
 SUBNAME       8 00000010 FFFFFFDF     C    4824  4848   4848   7208   7285   7347   8690M  8690   8819   8855M  8856
                                                  9106   9131   9488   9502  10017  10044  10058  10843  10952  17747M
                                                 17747  17767  24412  24692  24706  24781
 SUBNFAIL      4 0000003C FFFFFFDF     F    4846 38150  38151M
 SUBNIO        4 00000030 FFFFFFDF     F    4843  8677   8678M
 SUBOFF        2 000013D6 00000001     H   13499 11767B 11915B
 SUBOPEN       2 000001BC 00000001     H    6786  7913   8409
 SUBP          4 00000048 FFFFFFDF     F    4854  4913
 SUBPATH      56 00000048 FFFFFFDF     X    4914  6854M  6880
 SUBPATHX      4 00000048 FFFFFFDF     F    4853  4914   4914
 SUBPDBQH      4 00000044 FFFFFFDF     A    4850  7851   7858M  8278   8285M 27243  27262M
 SUBPECB       4 00000070 FFFFFFDF     R    4889  6877M
 SUBPECBF      4 00000068 FFFFFFDF     R    4877  6879M
 SUBPFCLS      1 00000080 FFFFFFDF A   U    4879  6689   7295   8083   8183
 SUBPFFQE      1 00000040 FFFFFFDF A   U    4880  8083   8212   8225
 SUBPFNI       1 00000020 FFFFFFDF A   U    4881  8083   8355   8485   8662  38173
 SUBPFOPN      1 00000008 FFFFFFDF A   U    4883  8083   8109   8122
 SUBPMGC       4 00000048 FFFFFFDF     R    4856  7131   8576   8894  27136
 SUBPPASS      4 0000006C FFFFFFDF     C    4887  6871M
 SUBR         11 0000000B 00000001 A   #    1070  6583M  6598U  6612M  6613M  6613   6672   6826M  6835U  6940   6941
                                                  6951   7021M  7030U  7075   7100   7476   7657   7702   7790   8045M
                                                  8062U  8076M  8077M  8077   8191   8474U  8478   9113   9137   9244
                                                  9459M  9468U 10784  10888  11038  11751  11764  11777  11837  13558U
                                                 13774U 13840M 13840  14012U 24577M 24591M 24592M 24592  24605M 24622U
                                                 24780  24816  24887  26589M 26590M 26590  26787U 26817M 26817  27028U
                                                 38099M 38108U 38134
 SUBSC         2 000038F4 00000001     H   26461 26331B 26370B
 SUBSCLCK      8 00000024 FFFFFFDF     X    4838  6655M  6655   9068M 10968M 10968  24428M 24428
 SUBSEND       2 00003452 00000001     H   24978 13906  19854  22817  24974  27338
 SUBSENDD      4 0000396A 00000001     I   26589 25174B
 SUBSENDP      2 00003954 00000001     H   26555 26224B 26262B 26297B 26402B 26473B
 SUBSFLAG      1 00000080 FFFFFFDF     X    4916  4877   6691   6878   7298   7300   7300   7304M  8083   8111   8140
                                                  8140   8157   8161M  8185   8214   8243   8243   8260   8264M  8357
                                                  8503   8503   8520   8524M  8665   8667   8667   8671M 27188  38176
                                                 38178  38178  38182M
 SUBSPPR       2 0000389E 00000001     H   26419 26314B
 SUBSTART      2 00003260 00000001     H   24215 24211
 SUBSUBPL      1 00000012 00000001 A   U    5558  6463   6820
 SUBTOP        4 000005C6 00000001     I    8045  8196B  8367B
 SYSAACCT      8 00000000 FFFFFFD6     C   13133 13187M 13188M 13189M 13190M
 SYSAACT2      8 00000008 FFFFFFD6     C   13134 13191M
 SYSAANO       2 0000005E FFFFFFD6     H   13141 13196M
 SYSACCT       6 0000129E 00000001     I   13157 12943B
 SYSALINE     20 00000048 FFFFFFD6     C   13139 13194M
 SYSALNAM     20 00000034 FFFFFFD6     C   13138 13193M
 SYSANAME     20 00000020 FFFFFFD6     C   13137 13192M
 SYSANO        2 0000005C FFFFFFD6     H   13140 13195M
1SIFT     (SIFT2047) (12:37) (15MAR04) Ordinary Symbol and Literal Cross Reference                                          Page  217
 SYSAWA      132 00000000 FFFFFFD6     J   13149 13175U 13186M 13186  13933
 SYSCHECK      2 00001100 00000001     H   12525 13898
 SYSDO         2 00001152 00000001     H   12683 13909
 SYSEXPR       4 000012F2 00000001     I   13211 12963B
 SYSFMOD     128 00000010 FFFFFFD7        13026 13106M
 SYSMODE       2 00001078 00000001     H   12286 13897
 SYSPFX        5 00001344 00000001     C   13272 12620  12776  12920  12940  12960  13915  13930
 SYSSEND       4 00001240 00000001     I   12996 13123B 13205B
 SYSTERM       6 00001254 00000001     I   13052 12923B
 SYSTFLG       1 00000010 FFFFFFD7     R   13022 13026
 SYSTHEI       2 00000014 FFFFFFD7     H   13034 13112M
 SYSTHEIP      2 00000018 FFFFFFD7     H   13036 13114M
 SYSTID        8 00000008 FFFFFFD7     C   13019 13084M
 SYSTTYPE      8 00000000 FFFFFFD7     C   13018 13083M
 SYSTWA       32 00000000 FFFFFFD7     J   13044 13071U 13082M 13082  13932
 SYSTWID       2 00000012 FFFFFFD7     H   13033 13111M
 SYSTWIDP      2 00000016 FFFFFFD7     H   13035 13113M
 TELISUBP      1 00000024 00000001 A   U    5576  6481
 TIMERQ        1 00000000 00000014     T   22806 22806
 TMILACCT      1 00000048 FFFFFFE2 A   U    4508 12169
 TMILBRK       1 00000050 FFFFFFE2 A   U    4512  7605   9442   9842   9963  10427  10720  11652  21912  22595  22947
 TMILEOS       1 00000040 FFFFFFE2 A   U    4498  9427  11798  23944
 TMILINIT      1 00000021 FFFFFFE2 A   U    4492  8708   8760
 TMILMW        1 00000022 FFFFFFE2 A   U    4494  8734
 TMILNOP       1 00000045 FFFFFFE2 A   U    4505 12184
 TMILREAD      1 00000042 FFFFFFE2 A   U    4502  7578   9537   9611  10094  11098  11443  11637  12824  13398  13424
                                                 21903  22530  23313  23883  23884  26424  26425  26729
 TMILWRIT      1 00000041 FFFFFFE2 A   U    4501  9522   9596  10079  11068  11169  11252  11458  11477  11537  11622
                                                 13383  23202
 TMILWTO       1 00000043 FFFFFFE2 A   U    4503 12154
 TMILXCTL      1 00000047 FFFFFFE2 A   U    4507 10751  10757  11184
 TQESUBPL      1 0000000F 00000001 A   U    5555  6460
 TRCHSUBP      1 0000001B 00000001 A   U    5567  6472
 TRCSUBPL      1 0000000E 00000001 A   U    5554  6459
 UPDMAX        1 00000009 00000001 A   N   20501 20502  20502
 UPDSCB        2 000025C8 00000001     H   19921 19867  27340
 UPDTBL        4 00002704 00000001     A   20485 20129  20501
 UPPTBL        1 00003D7A 00000001     R   27961 27709  27743  27961  27962  27964  27966
 UPPTBL        1 00000000 00000000 A   T    2831  2831
 USEBLOCK      1 0000000F FFFFFFEA     X    2522 20777
 USERCVT     863 00000000 FFFFFFEA     J    2566 20768U
 VACBSUBP      1 0000002C 00000001 A   U    5584  6489
 VBNDSUBP      1 00000030 00000001 A   U    5588  6493
 VBUFSUBP      1 00000027 00000001 A   U    5579  6484
 VDPBSUBP      1 00000029 00000001 A   U    5581  6486
 VDVCSUBP      1 00000031 00000001 A   U    5589  6494
 VIRTCNTL      1 00000000 0000000B     T   14180 14180
 VIRTDO        1 00000000 0000001A     T   24190 24190
 VIRTUPD       1 00000000 00000011     T   20493 20493
 VIRTXCLS      1 00000000 00000004     T    7921  7921
 VISTSUBP      1 0000002B 00000001 A   U    5583  6488
 VNIBSUBP      1 0000002F 00000001 A   U    5587  6492
 VPATSUBP      1 00000026 00000001 A   U    5578  6483
 VPPSUBP       1 0000002A 00000001 A   U    5582  6487
 VRBFSUBP      1 00000032 00000001 A   U    5590  6495
 VRPLSUBP      1 0000002D 00000001 A   U    5585  6490
 VRUSUBP       1 00000028 00000001 A   U    5580  6485
 VSRRSUBP      1 0000002E 00000001 A   U    5586  6491
 V3BFSUBP      1 00000033 00000001 A   U    5591  6496
1SIFT     (SIFT2047) (12:37) (15MAR04) Ordinary Symbol and Literal Cross Reference                                          Page  218
 WTOQSUBP      1 0000000B 00000001 A   U    5551  6456
 XLE        1024 00000000 FFFFFFDE     J    4950 27603U 28232U
 XLEFIGN       1 00000002 00000001 A   U    4956 37930
 XLEFINV       1 00000001 00000001 A   U    4955 37928
 XLEIN       512 00000000 FFFFFFDE     X    4937 27609
 XLEOUT      512 00000200 FFFFFFDE     X    4941 28238
 XLTEXIT       4 000060CA 00000001     I   36689 36483B
 XLTEXT        2 00005FFC 00000001     H   36419 27978  30330
 XLTPTRS       4 00000000 FFFFFFD1     A   36390 36471M 36490  36591  36593M 36622  36689
 XLTRC         4 00000008 FFFFFFD1     F   36391 36563M 36690
 XLTRTLP       2 0000602C 00000001     I   36491 36620B
 XLTRTN        2 00006094 00000001     I   36616 36565B 36602B
 XLTWA        12 00000000 FFFFFFD1     J   36398 36446M 36459U 36469M 36469  36710  36712  36713  37940
 =A(ASYNWRIT)
               4 00001584 00000001     A   13908 11333
 =A(ASYNWRIT)
               4 00002DB4 00000001     A   22816 21291
 =A(CTLMAX)
               4 000024D8 00000001     A   19853 14121
 =A(CTLPMAX)
               4 000024D4 00000001     A   19852 14088
 =A(CVBUFLEN)
               4 00003C34 00000001     A   27351 27087
 =A(CVBUFLEN-4)
               4 00001540 00000001     A   13891  8563
 =A(DISCSESS)
               4 00006528 00000001     A   38247 38018
 =A(DOAIO)
               4 00001560 00000001     A   13899  9810
 =A(DOAIO)
               4 00003C30 00000001     A   27350 26927
 =A(FCHARTBL)
               4 00004990 00000001     A   31368 30667
 =A(FEBTMAX)
               4 00002514 00000001     A   19868 17634  19705
 =A(FEBTMAX)
               4 00002D60 00000001     A   22803 20110
 =A(FEBTMAX)
               4 00003C04 00000001     A   27339 24096
 =A(FEDO)      4 0000055C 00000001     A    7924  7610
 =A(FEDO)      4 00001594 00000001     A   13912 11662  12064
 =A(FEDO)      4 00002DBC 00000001     A   22818 21917  22600  22705
 =A(FEDO)      4 00003C18 00000001     A   27344 25588  26435  26518
 =A(FINDSID)
               4 00001580 00000001     A   13907 11317
 =A(FINDXLE)
               4 00003E80 00000001     A   27977 27578
 =A(FINDXLE)
               4 00004708 00000001     A   30329 28207
 =A(FMTSIB)
               4 00002508 00000001     A   19865 16013  16113  18601  18759
 =A(INPROC)
               4 00003C24 00000001     A   27347 25941
 =A(KILLSESS)
               4 0000252C 00000001     A   19874 18930
 =A(KILLSESS)
               4 00002D7C 00000001     A   22810 21037
 =A(L'FEBBASIC)
               4 00002534 00000001     A   19876 19481  19493
1SIFT     (SIFT2047) (12:37) (15MAR04) Ordinary Symbol and Literal Cross Reference                                          Page  219
 =A(L'IDLES)
               4 00004720 00000001     A   30335 28506  28518  29066  29078  29243  29255  29417  29429  29913  29925
 =A(L'MODPFX+4)
               4 00001568 00000001     A   13901 10116
 =A(L'OUTFSEQ)
               4 0000498C 00000001     A   31367 30602  30614
 =A(L'OUTFTOK)
               4 00004994 00000001     A   31369 30706  30718
 =A(L'PDBHDR)
               4 00002DC4 00000001     A   22820 22452  22464
 =A(L'PIBBASIC)
               4 00002530 00000001     A   19875 19199  19211
 =A(L'SCBNAME)
               4 00002504 00000001     A   19864 15931  15943
 =A(L'SCBOPT)
               4 0000250C 00000001     A   19866 16067
 =A(L'SYSPFX)
               4 000015A0 00000001     A   13915 12602
 =A(MILSIFT)
               4 000015AC 00000001     A   13918 13824
 =A(OUTFORM)
               4 00004740 00000001     A   30343 30164
 =A(OUTPROC)
               4 00003BF8 00000001     A   27336 23725
 =A(PATHRBAF)
               4 00003C38 00000001     A   27352 27172
 =A(PATHRNOP)
               4 00001548 00000001     A   13893  8626
 =A(PATHRNOP)
               4 00003C3C 00000001     A   27353 27283
 =A(PATHRPMW)
               4 00001544 00000001     A   13892  8612
 =A(PATHSEND)
               4 0000053C 00000001     A    7916  6725
 =A(PATHSEND)
               4 000006BC 00000001     A    8412  8290
 =A(PATHSEND)
               4 00001554 00000001     A   13896  9085
 =A(PATHSEND)
               4 00003C2C 00000001     A   27349 26794
 =A(PROCPDB)
               4 00003C1C 00000001     A   27345 25736
 =A(PROCSUB)
               4 000006C4 00000001     A    8414  8365
 =A(QUIETDO)
               4 00001590 00000001     A   13911 11598
 =A(SESSTRC)
               4 0000158C 00000001     A   13910 11568
 =A(SESSTRC)
               4 00003C28 00000001     A   27348 26753
 =A(SESTIMER)
               4 00002D64 00000001     A   22804 20590
 =A(STRCMAX#)
               4 00006428 00000001     A   37935 37032
 =A(STRCMXDL)
               4 00006418 00000001     A   37931 36838  36850
 =A(SUBCLS)
               4 000006B4 00000001     A    8410  8194
 =A(SUBCLS)
1SIFT     (SIFT2047) (12:37) (15MAR04) Ordinary Symbol and Literal Cross Reference                                          Page  220
               4 000015B0 00000001     A   13919 13835
 =A(SUBCLS)
               4 00006530 00000001     A   38249 38203
 =A(SUBDO)
               4 00000538 00000001     A    7915  6424
 =A(SUBENTER)
               4 00000558 00000001     A    7923  7544
 =A(SUBENTER)
               4 00001574 00000001     A   13904 11044  12132  13231  13664
 =A(SUBENTER)
               4 00003C0C 00000001     A   27341 24472  25785  26865  26911
 =A(SUBOPEN)
               4 00000530 00000001     A    7913  6345
 =A(SUBOPEN)
               4 000006B0 00000001     A    8409  8166
 =A(SUBSEND)
               4 0000157C 00000001     A   13906 11288  11377  12202  13000  13446
 =A(SUBSEND)
               4 000024DC 00000001     A   19854 14247
 =A(SUBSEND)
               4 00002DB8 00000001     A   22817 21850  21947
 =A(SUBSEND)
               4 00003C00 00000001     A   27338 24014  24927
 =A(SYSCHECK)
               4 0000155C 00000001     A   13898  9624
 =A(SYSDO)
               4 00001588 00000001     A   13909 11404
 =A(SYSMODE)
               4 00001558 00000001     A   13897  9619
 =A(UPDSCB)
               4 00002510 00000001     A   19867 16165  18508  18776
 =A(UPDSCB)
               4 00003C08 00000001     A   27340 24278
 =A(X'FFF')
               4 0000251C 00000001     A   19870 18127
 =A(XLEFIGN)
               4 00006414 00000001     A   37930 36581
 =A(XLEFINV)
               4 0000640C 00000001     A   37928 36557
 =A(XLTEXT)
               4 00003E84 00000001     A   27978 27622
 =A(XLTEXT)
               4 0000470C 00000001     A   30330 28251
 =A(0)         4 0000156C 00000001     A   13902 10287  10299
 =A(0)         4 00002D74 00000001     A   22808 20819
 =A(1)         4 000024E4 00000001     A   19856 14334  16254  17048
 =A(100)       4 000024D0 00000001     A   19851 14053  17536  19607
 =A(1000)      4 0000472C 00000001     A   30338 29063  29240  29414  29910
 =A(2)         4 000024F8 00000001     A   19861 15248  16053  17021
 =A(2)         4 00004730 00000001     A   30339 29731  29859
 =A(2)         4 00004988 00000001     A   31366 30546
 =A(20)        4 0000652C 00000001     A   38248 38163
 =A(256)       4 00003E88 00000001     A   27979 27703
 =A(256)       4 00004724 00000001     A   30336 28619  28631  29554  29566
 =A(256)       4 00006408 00000001     A   37927 36494  36506  36636
 =A(3+6+12)
               4 000024EC 00000001     A   19858 14419
 =A(3)         4 000024F4 00000001     A   19860 15212  15349  16554  17311
 =A(3)         4 0000473C 00000001     A   30342 30065
1SIFT     (SIFT2047) (12:37) (15MAR04) Ordinary Symbol and Literal Cross Reference                                          Page  221
 =A(4)         4 0000054C 00000001     A    7920  7148
 =A(4)         4 000024E0 00000001     A   19855 14288  15150  15296  16229  18106  19337
 =A(4)         4 00002D78 00000001     A   22809 20833  20866
 =A(4000)      4 00001570 00000001     A   13903 10306  10318
 =A(4096)      4 000015A8 00000001     A   13917 12880
 =A(4096)      4 00003BF4 00000001     A   27335 23221  23257  23288  23608  23698
 =A(5)         4 000015A4 00000001     A   13916 12805
 =A(50)        4 00000540 00000001     A    7917  6750
 =A(6)         4 000024F0 00000001     A   19859 14597  14882  14971  15040  19010
 =A(60*100)
               4 00002D68 00000001     A   22805 20595
 =A(8)         4 00002500 00000001     A   19863 15699  15711  15803  15815  16701  16713  16806  16818  17337  17349
                                                 17953
 =A(999)       4 00004728 00000001     A   30337 29062  29239  29413  29909
 =AL2(-1)      2 00002DCE 00000001     R   22823 20435
 =AL2(DTRC#)
               2 00002554 00000001     R   19890 18218
 =AL2(L'DTRC)
               2 00002556 00000001     R   19891 18219
 =AL2(L'FDBT)
               2 0000254A 00000001     R   19885 17496  19567
 =AL2(L'MODPFX+4)
               2 000015C4 00000001     R   13926 10138
 =AL2(L'PDBHDR+L'FEBBASIC)
               2 00002566 00000001     R   19899 19469
 =AL2(L'PDBHDR+L'MIB)
               2 00002550 00000001     R   19888 17923
 =AL2(L'PDBHDR+L'PIBBASIC)
               2 00002562 00000001     R   19897 19187
 =AL2(L'PDBHDR+L'SCBCHG)
               2 0000254E 00000001     R   19887 17874
 =AL2(L'PDBHDR+L'SYSAWA)
               2 000015DA 00000001     R   13933 13157
 =AL2(L'PDBHDR+L'SYSTWA)
               2 000015D8 00000001     R   13932 13052
 =AL2(L'PDBHDR+4+DTRC#*L'DTRC)
               2 00002558 00000001     R   19892 18220
 =AL2(L'PDBHDR+4)
               2 00002552 00000001     R   19889 18146
 =AL2(L'PDBHDR+8)
               2 000015B8 00000001     R   13922  9070
 =AL2(L'PDBHDR)
               2 0000056A 00000001     R    7928  6720   7538   7604
 =AL2(L'PDBHDR)
               2 000015C6 00000001     R   13927 11123  11276  11346  12119  12190  12980  13404  13644
 =AL2(L'PDBHDR)
               2 00002540 00000001     R   19880 14193  14199  14203  14223  14228  16167  18603  18796
 =AL2(L'PDBHDR)
               2 00002E0E 00000001     R   22831 21777  22594
 =AL2(L'PDBHDR)
               2 00003C46 00000001     R   27357 23637  23891  23969  24282  25779  25905  26842  26882
 =AL2(L'PPNMSG)
               2 00003C4E 00000001     R   27361 26415
 =AL2(L'SCBSESS)
               2 0000255A 00000001     R   19893 18249
 =AL2(L'SYSPFX)
               2 000015D4 00000001     R   13930 12792
 =AL2(10)      2 00002E10 00000001     R   22832 22126
 =AL2(2+12)
1SIFT     (SIFT2047) (12:37) (15MAR04) Ordinary Symbol and Literal Cross Reference                                          Page  222
               2 00002548 00000001     R   19884 17033
 =AL2(2)       2 0000254C 00000001     R   19886 17682
 =AL2(4+12)
               2 00002546 00000001     R   19883 16240  16506
 =AL2(5-1)
               2 00002E0A 00000001     R   22829 21301
 =AL2(6+12)
               2 00002542 00000001     R   19881 14318  14714
 =AL2(6+2+L'SCBSESS)
               2 0000255E 00000001     R   19895 18622
 =AL2(6)       2 00002560 00000001     R   19896 18814
 =AL2(8+6)
               2 000015BC 00000001     R   13924  9081
 =AL2(8)       2 000015BA 00000001     R   13923  9080
 =AL4(-1)      4 00003C20 00000001     R   27346 25756
 =C' minutes.  Respond or be logged off.'
              36 00002D90 00000001     C   22815 21231
 =C'..'        2 0000499E 00000001     C   31372 30564
 =C'<'         1 000049A2 00000001     C   31374 30945  31017
 =C'&&'        1 0000256A 00000001     C   19901 15133
 =C';1'        2 00004FD0 00000001     C   33622 32422
 =C';4'        2 00004FD2 00000001     C   33623 32457
 =C';5'        2 00004FD4 00000001     C   33624 32492
 =C';7'        2 00004FD6 00000001     C   33625 32527
 =C'-- Front page -- '
              17 00004FF8 00000001     C   33639 33323
 =C'-- Page -- '
              11 00004FED 00000001     C   33638 33218
 =C'>'         1 000049A3 00000001     C   31375 30982  31057
 =C'::'        2 000049A0 00000001     C   31373 30577
 =C'#DEFAULT'
               8 000014E8 00000001     C   13884 10805
 =C'@@SYSMODE:'
              10 000015C8 00000001     C   13928 12352
 =C'm'         1 00004FEB 00000001     C   33636 32550  33568
 =C'ACCT?'
               5 000015ED 00000001     C   13937 12940
 =C'ALL '      4 00002518 00000001     C   19869 18012
 =C'ALL'       3 0000256B 00000001     C   19902 15365  16570  17324
 =C'APL'       3 00006442 00000001     C   37944 36221
 =C'Enter account to logon, or type ? for information.'
              50 00002DD6 00000001     C   22827 21156
 =C'EXPR?'
               5 000015F2 00000001     C   13938 12960
 =C'FEB'       3 00002571 00000001     C   19904 15605
 =C'FEB'       3 00002E29 00000001     C   22837 21525
 =C'KEPT'      4 000024FC 00000001     C   19862 15309
 =C'MILTEN  '
               8 000014F0 00000001     C   13885 10874
 =C'MILTEN  '
               8 000024C8 00000001     C   19850 17767
 =C'MILTEN'
               6 000015BE 00000001     C   13925  9106
 =C'No activity for'
              15 00002E17 00000001     C   22835 21190
 =C'OPERATOR'
               8 000024C0 00000001     C   19849 14742
 =C'ORVYL'
               5 0000056F 00000001     C    7930  7285   7347
1SIFT     (SIFT2047) (12:37) (15MAR04) Ordinary Symbol and Literal Cross Reference                                          Page  223
 =C'ORVYL'
               5 000015DC 00000001     C   13934  9488  10017  10044
 =C'ORVYL'
               5 00003C55 00000001     C   27364 24692
 =C'OSUB'      4 00000564 00000001     C    7926  7869
 =C'OTRC'      4 0000642C 00000001     C   37936 37490
 =C'PIB'       3 0000256E 00000001     C   19903 15539
 =C'PIB'       3 00002E26 00000001     C   22836 21485
 =C'Subsystem path error:'
              21 000015F7 00000001     C   13939 13791
 =C'SCB'       3 00002E14 00000001     C   22834 19980  21423  21709  22081
 =C'SCB'       3 00006445 00000001     C   37945 36798  37191
 =C'SCIP'      4 00002D70 00000001     C   22807 20750
 =C'STRC'      4 00006420 00000001     C   37933 36897  37402  37477
 =C'SUB'       3 0000056C 00000001     C    7929  6632   7048
 =C'SUB'       3 00003C52 00000001     C   27363 24639  27045
 =C'TERM?'
               5 000015E8 00000001     C   13936 12920
 =C'TESTORV'
               7 000015E1 00000001     C   13935  9502  10058
 =C'TESTORV'
               7 00003C5A 00000001     C   27365 24706
 =C'0'         1 00004FEA 00000001     C   33635 32391
 =C'31'        2 00004FD8 00000001     C   33626 32642
 =C'32'        2 00004FDA 00000001     C   33627 32722
 =C'33'        2 00004FDC 00000001     C   33628 32802
 =C'34'        2 00004FDE 00000001     C   33629 32882
 =C'35'        2 00004FE0 00000001     C   33630 32962
 =C'36'        2 00004FE2 00000001     C   33631 33042
 =C'37'        2 00004FE4 00000001     C   33632 33122
 =CL(L'STRCTYPE)'Quiet read'
              16 00001520 00000001     C   13889 11524
 =CL(L'STRCTYPE)'Quiet write'
              16 00001530 00000001     C   13890 11543
 =CL(L'STRCTYPE)'Read completion'
              16 00003BE0 00000001     C   27333 26735
 =CL(L'STRCTYPE)'Read'
              16 00001500 00000001     C   13887 11464
 =CL(L'STRCTYPE)'Write'
              16 00001510 00000001     C   13888 11484
 =CL4'SUB'
               4 00000548 00000001     C    7919  6846
 =CL8'MILTEN'
               8 000014F8 00000001     C   13886 10994  12111  13652
 =F'-1'        4 00000554 00000001     F    7922  7482   7838
 =F'-1'        4 000006B8 00000001     F    8411  8286
 =F'-1'        4 00006430 00000001     F   37937 37491
 =F'0'         4 00004734 00000001     F   30340 29893
 =F'1000'      4 0000471C 00000001     F   30334 28503
 =F'20'        4 0000154C 00000001     F   13894  8881
 =F'4'         4 00006410 00000001     F   37929 36563
 =F'999'       4 00004718 00000001     F   30333 28502
 =H'-1'        2 0000255C 00000001     H   19894 18511
 =H'-1'        2 00002DD0 00000001     H   22824 20699
 =H'-4'        2 00002E12 00000001     H   22833 22361
 =H'-4'        2 00003C50 00000001     H   27362 27299
 =H'-4'        2 00006440 00000001     H   37943 37668
 =H'100'       2 0000253E 00000001     H   19879 14100
 =H'11'        2 00004FE6 00000001     H   33633 33230  33335
1SIFT     (SIFT2047) (12:37) (15MAR04) Ordinary Symbol and Literal Cross Reference                                          Page  224
 =H'15'        2 000015D2 00000001     H   13929 12364  12426
 =H'16'        2 00003C42 00000001     H   27355 23228  23264  23295
 =H'2'         2 00002568 00000001     H   19900 19478
 =H'256'       2 00003C4C 00000001     H   27360 23885  26427
 =H'256'       2 00003E9A 00000001     H   27984 27711
 =H'256'       2 0000643C 00000001     H   37941 36644
 =H'4'         2 00002564 00000001     H   19898 19196
 =H'4000'      2 00004746 00000001     H   30345 28271
 =H'4096'      2 000015D6 00000001     H   13931 12887
 =H'4096'      2 00003C44 00000001     H   27356 23615  23705
 =H'4096'      2 00003E9C 00000001     H   27985 27778
 =H'7'         2 00002544 00000001     H   19882 15050
 =H'960'       2 00004748 00000001     H   30346 28495  29050  29229  29406  29899
 =V(DECRSES)
               4 00001598 00000001     V   13913 12050
 =V(DECRSES)
               4 00002528 00000001     V   19873 18488
 =V(DTB)       4 000024E8 00000001     V   19857 14393  15067
 =V(FREECORE)
               4 00000560 00000001     V    7925  7861   7873
 =V(FREECORE)
               4 000006C0 00000001     V    8413  8296
 =V(FREECORE)
               4 00002DC8 00000001     V   22821 22695  22760
 =V(FREECORE)
               4 00003C14 00000001     V   27343 25476  25508  25571  25635  25723  26508  26580
 =V(FREECORE)
               4 00003E94 00000001     V   27982 27842  27876
 =V(FREECORE)
               4 00006434 00000001     V   37938 37496
 =V(FREESCB)
               4 00003BFC 00000001     V   27337 23953
 =V(INCRSES)
               4 00002524 00000001     V   19872 18370
 =V(LOCALTOD)
               4 00001550 00000001     V   13895  9066
 =V(LOCALTOD)
               4 00002520 00000001     V   19871 18261  19769
 =V(LOCALTOD)
               4 00006424 00000001     V   37934 36900
 =V(MAKESTAG)
               4 00002D58 00000001     V   22801 20028
 =V(MORT)      4 00000534 00000001     V    7914  6350
 =V(NGETCORE)
               4 00000544 00000001     V    7918  6824
 =V(NGETCORE)
               4 00001564 00000001     V   13900  9923
 =V(NGETCORE)
               4 00002DC0 00000001     V   22819 22185  22474
 =V(NGETCORE)
               4 00003BF0 00000001     V   27334 23157  23399  23530  23797  26134  27211
 =V(NGETCORE)
               4 0000641C 00000001     V   37932 36868
 =V(SEG)       4 00002D84 00000001     V   22812 21135  21168  21243  21265
 =V(SEG)       4 00003E90 00000001     V   27981 27837  27913
 =V(SEG)       4 00004714 00000001     V   30332 28326  28397  28447  28548  28693  28988  29016  29108  29210  29285
                                                 29326  29359  29387  29459  29607  29880  29955  30243
 =V(SEG)       4 00004998 00000001     V   31370 30955  30977  30992  31027  31052  31067  31173  31209  31234  31259
                                                 31312
1SIFT     (SIFT2047) (12:37) (15MAR04) Ordinary Symbol and Literal Cross Reference                                          Page  225
 =V(SEG)       4 00004FC8 00000001     V   33619 32370  32401  32432  32467  32502  32537  32560  33213  33228  33318
                                                 33333  33423  33535  33563  33578
 =V(SEGB)      4 00002D88 00000001     V   22813 21202
 =V(SEGBLANK)
               4 00004738 00000001     V   30341 29994  30026
 =V(SEGDC)
               4 00002D8C 00000001     V   22814 21226
 =V(SEGINIT)
               4 00002D80 00000001     V   22811 21118
 =V(SEGINIT)
               4 00003E8C 00000001     V   27980 27789
 =V(SEGINIT)
               4 00004710 00000001     V   30331 28282
 =V(SHUTDOWN)
               4 00002538 00000001     V   19877 19802
 =V(SINEUPD)
               4 00001578 00000001     V   13905 11148
 =V(SINEUPD)
               4 00002D5C 00000001     V   22802 20036
 =V(SINEUPD)
               4 00003C10 00000001     V   27342 24921
 =V(STOPCHK)
               4 0000159C 00000001     V   13914 12103
 =V(TIMERQ)
               4 00002D6C 00000001     V   22806 20598
 =V(VIRTXCLS)
               4 00000550 00000001     V    7921  7406
 =X'0D'        1 00004FEC 00000001     X   33637 33203  33308
 =X'05'        1 0000474B 00000001     X   30348 29868
 =X'15'        1 0000474A 00000001     X   30347 28435
 =X'1515'      2 00002E08 00000001     X   22828 21253
 =X'2F'        1 00005009 00000001     X   33640 33413
 =X'2F15'      2 00002DD4 00000001     X   22826 21123
 =X'27AD'      2 00004FCE 00000001     X   33621 32360  33525
 =Y(0+((L'PDBHDR+3)/4*4)+4)
               2 00002E0C 00000001     Y   22830 21763
 =Y(0+((L'SEGCB+3)/4*4)+4)
               2 00002DD2 00000001     Y   22825 21072
 =Y(0+((8+20+64+3)/4*4)+4)
               2 000015B6 00000001     Y   13921  8866
 =Y(0+4+32+((L'OUTWA+3)/4*4)+4)
               2 00004744 00000001     Y   30344 28139
 =Y(0+4+4)
               2 00003C4A 00000001     Y   27359 23790
 =Y(0+4+4)
               2 0000643E 00000001     Y   37942 36861
 =Y(0+4+40+((L'INWA+3)/4*4)+4)
               2 00003E98 00000001     Y   27983 27517
 =Y(0+4+40+((L'OUTFWA+3)/4*4)+4)
               2 0000499C 00000001     Y   31371 30488
 =Y(0+4+40+((L'XLTWA+3)/4*4)+4)
               2 0000643A 00000001     Y   37940 36444
 =Y(0+4+40+4)
               2 00000568 00000001     Y    7927  6333   6572   6809   7011
 =Y(0+4+40+4)
               2 000006C8 00000001     Y    8415  8035
 =Y(0+4+40+4)
               2 000015B4 00000001     Y   13920  8456   9356  12309  12548  12706  13310  13522  13756
 =Y(0+4+40+4)
1SIFT     (SIFT2047) (12:37) (15MAR04) Ordinary Symbol and Literal Cross Reference                                          Page  226
               2 0000253C 00000001     Y   19878 13976
 =Y(0+4+40+4)
               2 00002DCC 00000001     Y   22822 19944  20538  20620  21387  21659  22031  22305
 =Y(0+4+40+4)
               2 00003C40 00000001     Y   27354 22897  24238  24540  25001  27010
 =Y(0+4+40+4)
               2 00004FCC 00000001     Y   33620 31412  31494  31577  31659  31742  31824  31907  31989  32072  32154
                                                 32237  32320  32618  32698  32778  32858  32938  33018  33098  33178
                                                 33283  33388  33477
 =Y(0+4+40+4)
               2 00006438 00000001     Y   37939 36144  36754  37156  37581  37732
 =Y(0+4+40+4)
               2 00006534 00000001     Y   38250 37991  38089
 =Y(0+8+4)
               2 00003C48 00000001     Y   27358 23767
 =Y(0+8+4)
               2 00004FE8 00000001     Y   33634 33518
 =8X'FF'       1 000014E0 00000001     X   13883 10776  10880

1SIFT     (SIFT2047) (12:37) (15MAR04) Macro and Copy Code Source Summary                                                   Page  227
- Con Source                                        Volume    Members                        HLASM R4.0  2004/03/15 12.37
0     PRIMARY INPUT                                           CSECT    DROP     END      EX       FCHAR    LTORG    POP
                                                              PRINT    PUSH     START    USING
   L1 WYL.GS.MIL.MILTEN.MACLIB                      SYSB05    CV       DTB      FAIL     FEB      PEND     PIB      POP
                                                              PROC     PUSH     REG      SCANCB   SCB      STKDEF   STRC
                                                              SUB      SUBPOOLS TBL      XLE      XPROC
   L2 WYL.GG.SYS.MACLIB                             SYSB05    $BC      $BFLKUP  $BV      $CCLKUP  $CRS     $CSS     $L
                                                              $LA      $LBLAD   $LEXP    $LOR     $NIL     $OIL     $REL
                                                              $RGLKUP  $USLKUP  ACALL    BEGIN    CEIL     CLEAR
                                                              CSECT    C2       DATA     DECR     DEFCC    DEX      DROP
                                                              DTEX     ELSE     ELSEIF   END      EX       EXIT     FLAG
                                                              FLIP     FLOOR    GEN      HIBAL    IDENT    IF       INCR
                                                              LABEL    LC       LCALL    LCM      LOOP     LPROC    LS
                                                              LT       LTH      LTORG    L2       MOVE     MOVEL
                                                              PRINT    QLTORG   RECORD   REGS     SET      SETMSG
                                                              START    ST3      SYSLR    TDEX     UNTIL    USING
                                                              VCALL    WHILE    WITH
   L3 SYS3.IS.MACLIB                                SYSB05    DEFINE   DEVTRC   FCHARSYM FDB      FSB      MIB      PDB
                                                              PSB      SEG      SEGB     SEGBLANK SEGCB    SEGDC
                                                              SEGDEF   SEGINIT  SEGLD    SIB      SIN      SSB
                                                              SYSDEFN
   L4 SYS3.MACLIB                                   SYSB02    HASPSERV PATH     QSNAP    SCIPCVT  SCOM     USERCVT
   L5 SYS1.MACLIB                                   MVSBR9    ABEND    ATTACH   CVT      IDENTIFY IHBINNRA IHBINNRR POST
                                                              SPLEVEL  STIMER   SYSSTATE WAIT     WTO

1SIFT     (SIFT2047) (12:37) (15MAR04) Dsect Cross Reference                                                                Page  228
-Dsect     Length      Id       Defn                                                         HLASM R4.0  2004/03/15 12.37
0$$$@R0   00000000  FFFFFFFE     712
 $$$@R1   00000000  FFFFFFFD     725
 $$$@R10  00000000  FFFFFFF4     842
 $$$@R11  00000000  FFFFFFF3     855
 $$$@R12  00000000  FFFFFFF2     868
 $$$@R13  0000004C  FFFFFFF1     881
 $$$@R14  00000000  FFFFFFF0     894
 $$$@R15  00000000  FFFFFFEF     907
 $$$@R2   00000000  FFFFFFFC     738
 $$$@R3   00000000  FFFFFFFB     751
 $$$@R4   00000000  FFFFFFFA     764
 $$$@R5   00000000  FFFFFFF9     777
 $$$@R6   00000000  FFFFFFF8     790
 $$$@R7   00000000  FFFFFFF7     803
 $$$@R8   00000000  FFFFFFF6     816
 $$$@R9   00000000  FFFFFFF5     829
 $$$RDTRC 00000010  FFFFFFDA    5482
 $$$RFCHAR
          0000000E  FFFFFFD3   30360
 $$$RFDB  00000010  FFFFFFE6    3257
 $$$RFEB  000000B8  FFFFFFE7    3114
 $$$RFSB  00000090  FFFFFFDC    5013
 $$$RINWA 0000003C  FFFFFFD5   27374
 $$$ROUTFWA
          0000006C  FFFFFFD2   30430
 $$$ROUTWA
          0000003C  FFFFFFD4   28008
 $$$RPATHD
          00000038  FFFFFFE1    4616
 $$$RPDB  00000038  FFFFFFE2    4418
 $$$RPIB  000000A0  FFFFFFE5    3371
 $$$RPSB  00000074  FFFFFFDB    5210
 $$$RSCB  000001B2  FFFFFFE4    3576
 $$$RSEGCB
          0000003C  FFFFFFE0    4695
 $$$RSIN  000000E0  FFFFFFE3    4341
 $$$RSSB  00000038  FFFFFFDD    4964
 $$$RSTRC 0000002C  FFFFFFD9    5510
 $$$RSUB  00000084  FFFFFFDF    4811
 $$$RSYSAWA
          00000084  FFFFFFD6   13127
 $$$RSYSTWA
          00000020  FFFFFFD7   13012
 $$$RUSERCVT
          0000035F  FFFFFFEA    2483
 $$$RXLE  00000400  FFFFFFDE    4931
 $$$RXLTWA
          0000000C  FFFFFFD1   36384
 $$$R10   000000FC  FFFFFFE8    3038
 $$$R47   000000FE  FFFFFFD8    5602
 CVDSECT  00000778  FFFFFFE9    2570
 CVT      00000500  FFFFFFEE    1344
 CVTVSTGX 00000050  FFFFFFED    2364
 CVTXTNT1 0000000C  FFFFFFEC    2403
 CVTXTNT2 00000084  FFFFFFEB    2411
1SIFT     (SIFT2047) (12:37) (15MAR04) Dsect Cross Reference                                                                Page  229
 HIBAL    00000000  FFFFFFFF     698

1SIFT     (SIFT2047) (12:37) (15MAR04) Using Map                                                                            Page  230
-                                                                                            HLASM R4.0  2004/03/15 12.37
   Stmt  -----Location----- Action ----------------Using----------------- Reg Max    Last  Label and Using Text
           Count      Id           Type          Value    Range     Id        Disp   Stmt
0   929  00000000  FFFFFFFF USING  ORDINARY    00000000 00001000 FFFFFFEF  15 000    3019  @R15,15
    933  00000000  FFFFFFFF USING  ORDINARY    00000000 00001000 FFFFFFF0  14 000   13825  @R14,14
    937  00000000  FFFFFFFF USING  ORDINARY    00000000 00001000 FFFFFFF1  13 004   27123  @R13,13
    941  00000000  FFFFFFFF USING  ORDINARY    00000000 00001000 FFFFFFF2  12 000          @R12,12
    945  00000000  FFFFFFFF USING  ORDINARY    00000000 00001000 FFFFFFF3  11 000          @R11,11
    949  00000000  FFFFFFFF USING  ORDINARY    00000000 00001000 FFFFFFF4  10 000          @R10,10
    953  00000000  FFFFFFFF USING  ORDINARY    00000000 00001000 FFFFFFF5   9 000          @R9,9
    957  00000000  FFFFFFFF USING  ORDINARY    00000000 00001000 FFFFFFF6   8 000          @R8,8
    961  00000000  FFFFFFFF USING  ORDINARY    00000000 00001000 FFFFFFF7   7 000          @R7,7
    965  00000000  FFFFFFFF USING  ORDINARY    00000000 00001000 FFFFFFF8   6 007   15967  @R6,6
    969  00000000  FFFFFFFF USING  ORDINARY    00000000 00001000 FFFFFFF9   5 001   16850  @R5,5
    973  00000000  FFFFFFFF USING  ORDINARY    00000000 00001000 FFFFFFFA   4 000          @R4,4
    977  00000000  FFFFFFFF USING  ORDINARY    00000000 00001000 FFFFFFFB   3 000          @R3,3
    981  00000000  FFFFFFFF USING  ORDINARY    00000000 00001000 FFFFFFFC   2 000          @R2,2
    985  00000000  FFFFFFFF USING  ORDINARY    00000000 00001000 FFFFFFFD   1 00C    7858  @R1,1
    989  00000000  FFFFFFFF USING  ORDINARY    00000000 00001000 FFFFFFFE   0 000          @R0,0
    990  00000000  FFFFFFFF DROP                                            0              0
   2583  00000000  FFFFFFE9 USING  ORDINARY    00000000 00001000 FFFFFFE9  12 764   38134  CV,CVR
   6329  00000022  00000001 USING  ORDINARY    00000022 00001000 00000001   8 546    6429  $$$57B,BR
   6438  000000CA  00000001 USING  ORDINARY    00000000 00001000 FFFFFFF6   8 000          @R8,8
   6514  0000010B  00000001 USING  ORDINARY    0000010C 00001000 00000001  15 000          MORTFAIL,R15
   6536  0000011C  00000001 USING  ORDINARY    00000000 00001000 FFFFFFEF  15 000          @R15,15
   6568  00000126  00000001 USING  ORDINARY    00000126 00001000 00000001   8 446    6750  $$$62B,BR
   6598  0000013A  00000001 USING  ORDINARY    00000000 00001000 FFFFFFDF  11 080    6691  SUB,SUBR
   6709  0000017A  00000001 USING  ORDINARY    00000000 00001000 FFFFFFE2  10 006    6722  PDB,PDBR
   6732  00000194  00000001 USING  ORDINARY    00000000 00001000 FFFFFFF4  10 000          @R10,10
   6741  00000194  00000001 USING  ORDINARY    00000000 00001000 FFFFFFF3  11 000          @R11,11
   6761  000001A8  00000001 USING  ORDINARY    00000000 00001000 FFFFFFF6   8 000          @R8,8
   6805  000001C6  00000001 USING  ORDINARY    000001C6 00001000 00000001   8 3AE    6911  $$$74B,BR
   6835  000001E8  00000001 USING  ORDINARY    00000000 00001000 FFFFFFDF  11 080    6880  SUB,SUBR
   6934  00000262  00000001 USING  ORDINARY    00000000 00001000 FFFFFFDF  15 008    6940  SUB,R15
   6948  0000026A  00000001 USING  ORDINARY    00000000 00001000 FFFFFFEF  15 000          @R15,15
   6958  0000026C  00000001 USING  ORDINARY    00000000 00001000 FFFFFFF3  11 000          @R11,11
   6963  0000026C  00000001 USING  ORDINARY    00000000 00001000 FFFFFFF6   8 000          @R8,8
   7007  0000028A  00000001 USING  ORDINARY    0000028A 00001000 00000001   8 2E5    7873  $$$80B,BR
   7030  0000029C  00000001 USING  ORDINARY    00000000 00001000 FFFFFFDF  11 048    7208  SUB,SUBR
   7250  0000036A  00000001 USING  ORDINARY    00000000 00001000 FFFFFFF3  11 000          @R11,11
   7253  0000036A  00000001 USING  ORDINARY    00000000 00001000 FFFFFFDF   2 080    7304  SUB,R2
   7319  00000396  00000001 USING  ORDINARY    00000000 00001000 FFFFFFDF  11 044    7870  SUB,11
   7324  00000396  00000001 USING  ORDINARY    00000000 00001000 FFFFFFFC   2 004    7721  @R2,2
   7363  000003A8  00000001 USING  ORDINARY    00000000 00001000 FFFFFFE7   7 00D    7403  FEB,R7
   7422  000003C8  00000001 USING  ORDINARY    00000000 00001000 FFFFFFF7   7 023    9023  @R7,7
   7443  000003CC  00000001 USING  ORDINARY    00000000 00001000 FFFFFFE4   9 0B3    7677  SCB,SCBR
   7527  000003FC  00000001 USING  ORDINARY    00000000 00001000 FFFFFFE2  10 000    7541  PDB,PDBR
   7551  0000041A  00000001 USING  ORDINARY    00000000 00001000 FFFFFFF4  10 000          @R10,10
   7593  0000042A  00000001 USING  ORDINARY    00000000 00001000 FFFFFFE2  10 006    7607  PDB,PDBR
   7637  00000468  00000001 USING  ORDINARY    00000000 00001000 FFFFFFF4  10 000          @R10,10
   7737  000004A8  00000001 USING  ORDINARY    00000000 00001000 FFFFFFF5   9 000          @R9,9
   7759  000004B0  00000001 USING  ORDINARY    00000000 00001000 FFFFFFDF  15 008    7774  SUB,R15
   7804  000004C2  00000001 USING  ORDINARY    00000000 00001000 FFFFFFEF  15 006   10372  @R15,15
   7886  0000051C  00000001 USING  ORDINARY    00000000 00001000 FFFFFFF3  11 000          @R11,11
   7891  0000051C  00000001 USING  ORDINARY    00000000 00001000 FFFFFFF6   8 000          @R8,8
   8031  000005B6  00000001 USING  ORDINARY    000005B6 00001000 00000001   8 11C    8380  $$$124B,BR
1SIFT     (SIFT2047) (12:37) (15MAR04) Using Map                                                                            Page  231
   8062  000005CA  00000001 USING  ORDINARY    00000000 00001000 FFFFFFDF  11 080    8357  SUB,SUBR
   8377  00000692  00000001 USING  ORDINARY    00000000 00001000 FFFFFFF3  11 000          @R11,11
   8388  00000696  00000001 USING  ORDINARY    00000000 00001000 FFFFFFF6   8 000          @R8,8
   8452  000006E0  00000001 USING  ORDINARY    000006E0 00001000 00000001   8 F2E    9271  $$$149B,BR
   8474  000006F0  00000001 USING  ORDINARY    00000000 00001000 FFFFFFDF  11 080    8690  SUB,SUBR
   8536  00000716  00000001 USING  ORDINARY    00000000 00001000 FFFFFFE2  10 038    9265  PDB,PDBR
   8781  000007E4  00000001 USING  ORDINARY    00000000 00001000 FFFFFFF3  11 000          @R11,11
   8784  000007E4  00000001 USING  ORDINARY    00000000 00001000 FFFFFFDF   4 010    8819  SUB,R4
   8847  00000804  00000001 USING  ORDINARY    00000000 00001000 FFFFFFDF  11 048    9131  SUB,11
   8852  00000804  00000001 USING  ORDINARY    00000000 00001000 FFFFFFFA   4 000    9198  @R4,4
   9228  00000948  00000001 USING  ORDINARY    00000000 00001000 FFFFFFE4   1 00C    9244  SCB,R1
   9263  00000958  00000001 USING  ORDINARY    00000000 00001000 FFFFFFFD   1 014   15976  @R1,1
   9292  00000974  00000001 USING  ORDINARY    00000000 00001000 FFFFFFF4  10 000          @R10,10
   9297  00000974  00000001 USING  ORDINARY    00000000 00001000 FFFFFFF3  11 000          @R11,11
   9302  00000974  00000001 USING  ORDINARY    00000000 00001000 FFFFFFF6   8 000          @R8,8
   9352  00000992  00000001 USING  ORDINARY    00000992 00001000 00000001   8 C80   12221  $$$183B,BR
   9375  000009A4  00000001 USING  ORDINARY    00000000 00001000 FFFFFFE4   9 186   12198  SCB,SCBR
   9388  000009A6  00000001 USING  ORDINARY    00000000 00001000 FFFFFFE2  10 044   12215  PDB,PDBR
   9468  000009D0  00000001 USING  ORDINARY    00000000 00001000 FFFFFFDF  11 010   10058  SUB,SUBR
  10207  00000B62  00000001 USING  ORDINARY    00000000 00001000 FFFFFFE5   3 008   10213  PIB,R3
  10220  00000B66  00000001 USING  ORDINARY    00000000 00001000 FFFFFFFB   3 000          @R3,3
  10231  00000B66  00000001 USING  ORDINARY    00000000 00001000 FFFFFFE7   3 070   10244  FEB,R3
  10379  00000BC8  00000001 USING  ORDINARY    00000000 00001000 FFFFFFFB   3 004   13675  @R3,3
  10837  00000CB0  00000001 USING  ORDINARY    00000000 00001000 FFFFFFDF  15 010   10843  SUB,R15
  10850  00000CB6  00000001 USING  ORDINARY    00000000 00001000 FFFFFFEF  15 0FF   11141  @R15,15
  10916  00000CD4  00000001 USING  ORDINARY    00000000 00001000 FFFFFFF3  11 000          @R11,11
  10919  00000CD4  00000001 USING  ORDINARY    00000000 00001000 FFFFFFDF   2 024   10968  SUB,R2
  11013  00000D04  00000001 USING  ORDINARY    00000000 00001000 FFFFFFDF  11 02E   11897  SUB,11
  11018  00000D04  00000001 USING  ORDINARY    00000000 00001000 FFFFFFFC   2 004   11886  @R2,2
  12212  00001042  00000001 DROP                                           15              15
  12216  00001048  00000001 USING  ORDINARY    00000000 00001000 FFFFFFEF  15 038   13223  @R15,15
  12242  0000105C  00000001 USING  ORDINARY    00000000 00001000 FFFFFFF3  11 000          @R11,11
  12247  0000105C  00000001 USING  ORDINARY    00000000 00001000 FFFFFFF4  10 000          @R10,10
  12252  0000105C  00000001 USING  ORDINARY    00000000 00001000 FFFFFFF5   9 000          @R9,9
  12257  0000105C  00000001 USING  ORDINARY    00000000 00001000 FFFFFFF6   8 000          @R8,8
  12305  00001082  00000001 USING  ORDINARY    00001082 00001000 00000001   8 550   12462  $$$325B,BR
  12327  00001092  00000001 USING  ORDINARY    00000000 00001000 FFFFFFE4   9 000          SCB,SCBR
  12336  00001092  00000001 USING  ORDINARY    00000000 00001000 FFFFFFE2  10 047   12476  PDB,PDBR
  12492  000010EC  00000001 USING  ORDINARY    00000000 00001000 FFFFFFF4  10 000          @R10,10
  12497  000010EC  00000001 USING  ORDINARY    00000000 00001000 FFFFFFF5   9 000          @R9,9
  12502  000010EC  00000001 USING  ORDINARY    00000000 00001000 FFFFFFF6   8 000          @R8,8
  12544  0000110A  00000001 USING  ORDINARY    0000110A 00001000 00000001   8 4AA   12623  $$$334B,BR
  12566  0000111A  00000001 USING  ORDINARY    00000000 00001000 FFFFFFE4   9 0B0   12634  SCB,SCBR
  12575  0000111A  00000001 USING  ORDINARY    00000000 00001000 FFFFFFE2  10 038   12620  PDB,PDBR
  12650  0000113E  00000001 USING  ORDINARY    00000000 00001000 FFFFFFF4  10 000          @R10,10
  12655  0000113E  00000001 USING  ORDINARY    00000000 00001000 FFFFFFF5   9 000          @R9,9
  12660  0000113E  00000001 USING  ORDINARY    00000000 00001000 FFFFFFF6   8 000          @R8,8
  12702  0000115C  00000001 USING  ORDINARY    0000115C 00001000 00000001   8 496   13240  $$$339B,BR
  12724  0000116C  00000001 USING  ORDINARY    00000000 00001000 FFFFFFE4   9 18E   13227  SCB,SCBR
  12733  0000116C  00000001 USING  ORDINARY    00000000 00001000 FFFFFFE2  10 03D   13228  PDB,PDBR
  13071  00001264  00000001 USING  ORDINARY    00000000 00001000 FFFFFFD7   7 018   13114  SYSTWA,R7
  13121  0000129A  00000001 USING  ORDINARY    00000000 00001000 FFFFFFF7   7 000          @R7,7
  13175  000012AE  00000001 USING  ORDINARY    00000000 00001000 FFFFFFD6   7 05E   13196  SYSAWA,R7
  13203  000012EE  00000001 USING  ORDINARY    00000000 00001000 FFFFFFF7   7 000          @R7,7
  13247  00001330  00000001 USING  ORDINARY    00000000 00001000 FFFFFFF4  10 000          @R10,10
  13252  00001330  00000001 USING  ORDINARY    00000000 00001000 FFFFFFF5   9 000          @R9,9
  13257  00001330  00000001 USING  ORDINARY    00000000 00001000 FFFFFFF6   8 000          @R8,8
  13306  00001354  00000001 USING  ORDINARY    00001354 00001000 00000001   8 272   13446  $$$357B,BR
  13328  00001364  00000001 USING  ORDINARY    00000000 00001000 FFFFFFE4   9 0B0   13442  SCB,SCBR
1SIFT     (SIFT2047) (12:37) (15MAR04) Using Map                                                                            Page  232
  13337  00001364  00000001 USING  ORDINARY    00000000 00001000 FFFFFFE2  10 00D   13443  PDB,PDBR
  13462  000013C2  00000001 USING  ORDINARY    00000000 00001000 FFFFFFF4  10 000          @R10,10
  13467  000013C2  00000001 USING  ORDINARY    00000000 00001000 FFFFFFF5   9 000          @R9,9
  13472  000013C2  00000001 USING  ORDINARY    00000000 00001000 FFFFFFF6   8 000          @R8,8
  13518  000013E0  00000001 USING  ORDINARY    000013E0 00001000 00000001   8 1E6   13679  $$$366B,BR
  13540  000013F0  00000001 USING  ORDINARY    00000000 00001000 FFFFFFE4   9 080   13660  SCB,SCBR
  13549  000013F0  00000001 USING  ORDINARY    00000000 00001000 FFFFFFE2  10 024   13661  PDB,PDBR
  13558  000013F0  00000001 USING  ORDINARY    00000000 00001000 FFFFFFDF  11 000          SUB,SUBR
  13691  00001452  00000001 USING  ORDINARY    00000000 00001000 FFFFFFF3  11 000          @R11,11
  13696  00001452  00000001 USING  ORDINARY    00000000 00001000 FFFFFFF4  10 000          @R10,10
  13701  00001452  00000001 USING  ORDINARY    00000000 00001000 FFFFFFF5   9 000          @R9,9
  13706  00001452  00000001 USING  ORDINARY    00000000 00001000 FFFFFFF6   8 000          @R8,8
  13752  00001472  00000001 USING  ORDINARY    00001472 00001000 00000001   8 185   13835  $$$376B,BR
  13774  00001482  00000001 USING  ORDINARY    00000000 00001000 FFFFFFDF  11 000   13832  SUB,SUBR
  13783  00001482  00000001 USING  ORDINARY    00000000 00001000 FFFFFFE2  10 000          PDB,PDBR
  13852  000014CC  00000001 USING  ORDINARY    00000000 00001000 FFFFFFF4  10 000          @R10,10
  13857  000014CC  00000001 USING  ORDINARY    00000000 00001000 FFFFFFF3  11 000          @R11,11
  13862  000014CC  00000001 USING  ORDINARY    00000000 00001000 FFFFFFF6   8 000          @R8,8
  13972  0000161C  00000001 USING  ORDINARY    0000161C 00001000 00000001   8 FA6   19802  $$$380B,BR
  13994  0000162C  00000001 USING  ORDINARY    00000000 00001000 FFFFFFE4   9 000   14243  SCB,SCBR
  14003  0000162C  00000001 USING  ORDINARY    00000000 00001000 FFFFFFE2  10 04A   19787  PDB,PDBR
  14012  0000162C  00000001 USING  ORDINARY    00000000 00001000 FFFFFFDF  11 020   14068  SUB,SUBR
  14019  0000162C  00000001 DROP                                           15              15
  14023  00001632  00000001 USING  ORDINARY    00000000 00001000 FFFFFFEF  15 000   14628  @R15,15
  14304  00001794  00000001 USING  ORDINARY    00000000 00001000 FFFFFFF5   9 000          @R9,9
  14313  00001794  00000001 USING  ORDINARY    00000000 00001000 FFFFFFE4   7 14A   16009  SCB,R7
  15419  000019EA  00000001 USING  ORDINARY    00000000 00001000 FFFFFFE5  15 034   15434  PIB,R15
  15448  000019F4  00000001 USING  ORDINARY    00000000 00001000 FFFFFFEF  15 038   16903  @R15,15
  15522  00001A14  00000001 USING  ORDINARY    00000000 00001000 FFFFFFE5   3 034   15868  PIB,R3
  15588  00001A5A  00000001 USING  ORDINARY    00000000 00001000 FFFFFFE7   4 014   15767  FEB,R4
  15882  00001B0A  00000001 USING  ORDINARY    00000000 00001000 FFFFFFFA   4 000          @R4,4
  15887  00001B0A  00000001 USING  ORDINARY    00000000 00001000 FFFFFFFB   3 000   18193  @R3,3
  16025  00001B80  00000001 USING  ORDINARY    00000000 00001000 FFFFFFF7   7 000          @R7,7
  16034  00001B80  00000001 USING  ORDINARY    00000000 00001000 FFFFFFE4   9 18A   18597  SCB,SCBR
  16079  00001B94  00000001 DROP                                            2              2
  16083  00001B9A  00000001 USING  ORDINARY    00000000 00001000 FFFFFFFC   2 010   18194  @R2,2
  16089  00001B9C  00000001 DROP                                            1              1
  16093  00001BA2  00000001 USING  ORDINARY    00000000 00001000 FFFFFFFD   1 000          @R1,1
  16197  00001BF4  00000001 USING  ORDINARY    00000000 00001000 FFFFFFE5   6 008   16203  PIB,R6
  16210  00001BF8  00000001 USING  ORDINARY    00000000 00001000 FFFFFFF8   6 000          @R6,6
  16283  00001C20  00000001 USING  ORDINARY    00000000 00001000 FFFFFFE5   6 008   16301  PIB,R6
  16297  00001C24  00000001 USING  ORDINARY    00000000 00001000 FFFFFFE7   7 000          FEB,R7
  16324  00001C36  00000001 USING  ORDINARY    00000000 00001000 FFFFFFF7   7 000          @R7,7
  16329  00001C36  00000001 USING  ORDINARY    00000000 00001000 FFFFFFF8   6 000   16475  @R6,6
  16343  00001C3E  00000001 USING  ORDINARY    00000000 00001000 FFFFFFE7   7 098   16932  FEB,R7
  16501  00001CA6  00000001 USING  ORDINARY    00000000 00001000 FFFFFFE5   6 066   16933  PIB,R6
  16916  00001D8A  00000001 USING  ORDINARY    00000000 00001000 FFFFFFDB   5 014   16933  PSB,R5
  16940  00001DB2  00000001 USING  ORDINARY    00000000 00001000 FFFFFFF9   5 000          @R5,5
  16952  00001DBE  00000001 USING  ORDINARY    00000000 00001000 FFFFFFF8   6 000   17381  @R6,6
  16959  00001DBE  00000001 USING  ORDINARY    00000000 00001000 FFFFFFF7   7 000          @R7,7
  16989  00001DCC  00000001 USING  ORDINARY    00000000 00001000 FFFFFFE5  15 008   16995  PIB,R15
  17002  00001DD0  00000001 USING  ORDINARY    00000000 00001000 FFFFFFEF  15 000          @R15,15
  17077  00001DFA  00000001 USING  ORDINARY    00000000 00001000 FFFFFFE5  15 008   17083  PIB,R15
  17090  00001DFE  00000001 USING  ORDINARY    00000000 00001000 FFFFFFEF  15 000          @R15,15
  17101  00001DFE  00000001 USING  ORDINARY    00000000 00001000 FFFFFFE7   7 004   17111  FEB,R7
  17108  00001DFE  00000001 DROP                                           15              15
  17112  00001E04  00000001 USING  ORDINARY    00000000 00001000 FFFFFFEF  15 000          @R15,15
  17134  00001E10  00000001 USING  ORDINARY    00000000 00001000 FFFFFFF7   7 000          @R7,7
  17142  00001E10  00000001 DROP                                           15              15
1SIFT     (SIFT2047) (12:37) (15MAR04) Using Map                                                                            Page  233
  17146  00001E16  00000001 USING  ORDINARY    00000000 00001000 FFFFFFEF  15 000          @R15,15
  17155  00001E1A  00000001 USING  ORDINARY    00000000 00001000 FFFFFFE7   7 070   17458  FEB,R7
  17443  00001EB0  00000001 USING  ORDINARY    00000000 00001000 FFFFFFDC   6 008   17458  FSB,R6
  17465  00001ECC  00000001 USING  ORDINARY    00000000 00001000 FFFFFFF8   6 000          @R6,6
  17477  00001ED8  00000001 USING  ORDINARY    00000000 00001000 FFFFFFF7   7 000          @R7,7
  17515  00001EE6  00000001 USING  ORDINARY    00000000 00001000 FFFFFFE6   7 002   17601  FDB,R7
  17561  00001EF8  00000001 USING  ORDINARY    00000000 00001000 FFFFFFE7   1 00D   17601  FEB,R1
  17584  00001F02  00000001 DROP                                           14              14
  17588  00001F08  00000001 USING  ORDINARY    00000000 00001000 FFFFFFF0  14 000          @R14,14
  17615  00001F12  00000001 USING  ORDINARY    00000000 00001000 FFFFFFFD   1 000          @R1,1
  17664  00001F40  00000001 USING  ORDINARY    00000000 00001000 FFFFFFF7   7 000          @R7,7
  17713  00001F52  00000001 USING  ORDINARY    00000000 00001000 FFFFFFF3  11 000          @R11,11
  17716  00001F52  00000001 USING  ORDINARY    00000000 00001000 FFFFFFDF   6 010   17815  SUB,R6
  17803  00001F7C  00000001 USING  ORDINARY    00000000 00001000 FFFFFFDD   5 004   17815  SSB,R5
  17824  00001F9A  00000001 USING  ORDINARY    00000000 00001000 FFFFFFF9   5 001   36913  @R5,5
  17837  00001F9A  00000001 USING  ORDINARY    00000000 00001000 FFFFFFDF  11 000          SUB,11
  17842  00001F9A  00000001 USING  ORDINARY    00000000 00001000 FFFFFFF8   6 004   18206  @R6,6
  17909  00001FCA  00000001 USING  ORDINARY    00000000 00001000 FFFFFFE8   7 000   17914  MIB,R7
  17921  00001FD0  00000001 USING  ORDINARY    00000000 00001000 FFFFFFF7   7 000          @R7,7
  18038  0000200C  00000001 USING  ORDINARY    00000000 00001000 FFFFFFE7   7 014   18071  FEB,R7
  18085  00002020  00000001 USING  ORDINARY    00000000 00001000 FFFFFFF7   7 000          @R7,7
  18304  000020E4  00000001 USING  ORDINARY    00000070 00001000 FFFFFFD8   7 007   18495  SIBSESS,R7
  18502  0000215A  00000001 USING  ORDINARY    00000000 00001000 FFFFFFF7   7 000          @R7,7
  18536  0000217E  00000001 USING  ORDINARY    00000000 00001000 FFFFFFE4  15 004   18551  SCB,R15
  18581  00002190  00000001 USING  ORDINARY    00000000 00001000 FFFFFFEF  15 038   18848  @R15,15
  18673  000021F6  00000001 USING  ORDINARY    00000000 00001000 FFFFFFF5   9 000          @R9,9
  18676  000021F6  00000001 USING  ORDINARY    00000000 00001000 FFFFFFE4   7 134   18773  SCB,R7
  18725  00002208  00000001 DROP                                            2              2
  18729  0000220E  00000001 USING  ORDINARY    00000000 00001000 FFFFFFFC   2 000          @R2,2
  18735  00002210  00000001 DROP                                            1              1
  18739  00002216  00000001 USING  ORDINARY    00000000 00001000 FFFFFFFD   1 000          @R1,1
  18788  00002250  00000001 USING  ORDINARY    00000000 00001000 FFFFFFE4   9 000          SCB,9
  18793  00002250  00000001 USING  ORDINARY    00000000 00001000 FFFFFFF7   7 000          @R7,7
  18865  00002282  00000001 USING  ORDINARY    00000000 00001000 FFFFFFF5   9 000          @R9,9
  18868  00002282  00000001 USING  ORDINARY    00000000 00001000 FFFFFFE4   7 134   18927  SCB,R7
  18942  000022AE  00000001 USING  ORDINARY    00000000 00001000 FFFFFFE4   9 0E8   19771  SCB,9
  18947  000022AE  00000001 USING  ORDINARY    00000000 00001000 FFFFFFF7   7 000          @R7,7
  18978  000022C0  00000001 USING  ORDINARY    00000000 00001000 FFFFFFE5   6 008   18984  PIB,R6
  18991  000022C4  00000001 USING  ORDINARY    00000000 00001000 FFFFFFF8   6 000   19147  @R6,6
  19023  000022D0  00000001 DROP                                           15              15
  19027  000022D6  00000001 USING  ORDINARY    00000000 00001000 FFFFFFEF  15 000          @R15,15
  19036  000022DA  00000001 USING  ORDINARY    00000000 00001000 FFFFFFE7   7 098   19144  FEB,R7
  19118  000022FE  00000001 DROP                                           15              15
  19122  00002304  00000001 USING  ORDINARY    00000000 00001000 FFFFFFEF  15 000          @R15,15
  19157  0000231E  00000001 USING  ORDINARY    00000000 00001000 FFFFFFE5   6 030   19259  PIB,R6
  19163  0000231E  00000001 DROP                                           15              15
  19167  00002324  00000001 USING  ORDINARY    00000000 00001000 FFFFFFEF  15 000          @R15,15
  19268  00002372  00000001 USING  ORDINARY    00000000 00001000 FFFFFFF8   6 000          @R6,6
  19275  00002372  00000001 USING  ORDINARY    00000000 00001000 FFFFFFF7   7 000          @R7,7
  19305  00002380  00000001 USING  ORDINARY    00000000 00001000 FFFFFFE5  15 008   19311  PIB,R15
  19318  00002384  00000001 USING  ORDINARY    00000000 00001000 FFFFFFEF  15 000          @R15,15
  19350  00002390  00000001 DROP                                           15              15
  19354  00002396  00000001 USING  ORDINARY    00000000 00001000 FFFFFFEF  15 000          @R15,15
  19363  0000239A  00000001 USING  ORDINARY    00000000 00001000 FFFFFFE7   7 010   19541  FEB,R7
  19445  000023BE  00000001 DROP                                           15              15
  19449  000023C4  00000001 USING  ORDINARY    00000000 00001000 FFFFFFEF  15 000          @R15,15
  19550  00002412  00000001 USING  ORDINARY    00000000 00001000 FFFFFFF7   7 000          @R7,7
  19586  00002420  00000001 USING  ORDINARY    00000000 00001000 FFFFFFE6   7 002   19672  FDBT,R7
  19632  00002432  00000001 USING  ORDINARY    00000000 00001000 FFFFFFE7   1 00D   19672  FEB,R1
1SIFT     (SIFT2047) (12:37) (15MAR04) Using Map                                                                            Page  234
  19655  0000243C  00000001 DROP                                           14              14
  19659  00002442  00000001 USING  ORDINARY    00000000 00001000 FFFFFFF0  14 000          @R14,14
  19686  0000244C  00000001 USING  ORDINARY    00000000 00001000 FFFFFFFD   1 002   23806  @R1,1
  19735  0000247A  00000001 USING  ORDINARY    00000000 00001000 FFFFFFF7   7 000          @R7,7
  19812  000024AC  00000001 USING  ORDINARY    00000000 00001000 FFFFFFF3  11 000          @R11,11
  19817  000024AC  00000001 USING  ORDINARY    00000000 00001000 FFFFFFF4  10 000          @R10,10
  19822  000024AC  00000001 USING  ORDINARY    00000000 00001000 FFFFFFF5   9 000          @R9,9
  19827  000024AC  00000001 USING  ORDINARY    00000000 00001000 FFFFFFF6   8 000          @R8,8
  19940  000025D2  00000001 USING  ORDINARY    000025D2 00001000 00000001   8 842   20438  $$$638B,BR
  19963  000025E4  00000001 USING  ORDINARY    00000000 00001000 FFFFFFE4   9 19E   20451  SCB,SCBR
  20063  00002626  00000001 USING  ORDINARY    00000000 00001000 FFFFFFE5   7 065   20367  PIB,R7
  20078  0000262A  00000001 USING  ORDINARY    00000000 00001000 FFFFFFE7  15 00D   20089  FEB,R15
  20086  0000262A  00000001 DROP                                           14              14
  20090  00002630  00000001 USING  ORDINARY    00000000 00001000 FFFFFFF0  14 000          @R14,14
  20097  00002630  00000001 USING  ORDINARY    00000000 00001000 FFFFFFEF  15 000          @R15,15
  20400  000026D0  00000001 USING  ORDINARY    00000000 00001000 FFFFFFF7   7 100   36676  @R7,7
  20463  000026EE  00000001 USING  ORDINARY    00000000 00001000 FFFFFFF5   9 000          @R9,9
  20468  000026EE  00000001 USING  ORDINARY    00000000 00001000 FFFFFFF6   8 000          @R8,8
  20534  00002736  00000001 USING  ORDINARY    00002736 00001000 00000001   8 6E1   21301  $$$662B,BR
  20558  0000274A  00000001 USING  ORDINARY    00000000 00001000 FFFFFFE4   9 15E   21302  SCB,SCBR
  20711  000027B6  00000001 USING  ORDINARY    00000000 00001000 FFFFFFEE  15 0CC   20717  CVT,R15
  20724  000027BA  00000001 USING  ORDINARY    00000000 00001000 FFFFFFEF  15 000   20750  @R15,15
  20768  000027CA  00000001 USING  ORDINARY    00000000 00001000 FFFFFFEA  15 00F   20777  USERCVT,R15
  20774  000027CA  00000001 DROP                                            2              2
  20778  000027D0  00000001 USING  ORDINARY    00000000 00001000 FFFFFFFC   2 000          @R2,2
  20784  000027D0  00000001 USING  ORDINARY    00000000 00001000 FFFFFFEF  15 038   26429  @R15,15
  20899  00002802  00000001 USING  ORDINARY    00000000 00001000 FFFFFFE5   3 008   20905  PIB,R3
  20912  00002806  00000001 USING  ORDINARY    00000000 00001000 FFFFFFFB   3 000          @R3,3
  20940  0000280C  00000001 USING  ORDINARY    00000000 00001000 FFFFFFE7   4 012   20967  FEB,R4
  20977  00002822  00000001 USING  ORDINARY    00000000 00001000 FFFFFFFA   4 001   29741  @R4,4
  21059  00002854  00000001 USING  ORDINARY    00000000 00001000 FFFFFFE2  10 038   21288  PDB,PDBR
  21086  0000286A  00000001 USING  ORDINARY    00000000 00001000 FFFFFFE0   6 00C   21269  SEGCB,R6
  21279  000028FE  00000001 USING  ORDINARY    00000000 00001000 FFFFFFF8   6 000          @R6,6
  21309  00002920  00000001 USING  ORDINARY    00000000 00001000 FFFFFFF4  10 000          @R10,10
  21331  00002934  00000001 USING  ORDINARY    00000000 00001000 FFFFFFF5   9 000          @R9,9
  21336  00002934  00000001 USING  ORDINARY    00000000 00001000 FFFFFFF6   8 000          @R8,8
  21383  00002952  00000001 USING  ORDINARY    00002952 00001000 00000001   8 4D7   21597  $$$686B,BR
  21406  00002964  00000001 USING  ORDINARY    00000000 00001000 FFFFFFE4   9 124   21595  SCB,SCBR
  21468  0000298A  00000001 USING  ORDINARY    00000000 00001000 FFFFFFE5   2 06A   21570  PIB,R2
  21508  000029A6  00000001 USING  ORDINARY    00000000 00001000 FFFFFFE7   3 080   21575  FEB,R3
  21585  000029E8  00000001 USING  ORDINARY    00000000 00001000 FFFFFFFB   3 000          @R3,3
  21590  000029E8  00000001 USING  ORDINARY    00000000 00001000 FFFFFFFC   2 038   23830  @R2,2
  21604  000029F0  00000001 USING  ORDINARY    00000000 00001000 FFFFFFF5   9 000          @R9,9
  21609  000029F0  00000001 USING  ORDINARY    00000000 00001000 FFFFFFF6   8 000          @R8,8
  21655  00002A0E  00000001 USING  ORDINARY    00002A0E 00001000 00000001   8 406   21947  $$$697B,BR
  21678  00002A20  00000001 USING  ORDINARY    00000000 00001000 FFFFFFE4   9 18A   21943  SCB,SCBR
  21691  00002A24  00000001 USING  ORDINARY    00000000 00001000 FFFFFFE2  10 00D   21954  PDB,PDBR
  21966  00002B06  00000001 USING  ORDINARY    00000000 00001000 FFFFFFF4  10 000          @R10,10
  21971  00002B06  00000001 USING  ORDINARY    00000000 00001000 FFFFFFF5   9 000          @R9,9
  21976  00002B06  00000001 USING  ORDINARY    00000000 00001000 FFFFFFF6   8 000          @R8,8
  22027  00002B24  00000001 USING  ORDINARY    00002B24 00001000 00000001   8 2F0   22230  $$$712B,BR
  22050  00002B36  00000001 USING  ORDINARY    00000000 00001000 FFFFFFE4   9 100   22227  SCB,SCBR
  22063  00002B38  00000001 USING  ORDINARY    00000000 00001000 FFFFFFE2  10 010   22228  PDB,PDBR
  22242  00002BD0  00000001 USING  ORDINARY    00000000 00001000 FFFFFFF4  10 000          @R10,10
  22247  00002BD0  00000001 USING  ORDINARY    00000000 00001000 FFFFFFF5   9 000          @R9,9
  22252  00002BD0  00000001 USING  ORDINARY    00000000 00001000 FFFFFFF6   8 000          @R8,8
  22301  00002BEE  00000001 USING  ORDINARY    00002BEE 00001000 00000001   8 224   22760  $$$722B,BR
  22324  00002C00  00000001 USING  ORDINARY    00000000 00001000 FFFFFFE4   9 15E   22701  SCB,SCBR
  22337  00002C04  00000001 USING  ORDINARY    00000000 00001000 FFFFFFE2  10 008   22702  PDB,PDBR
1SIFT     (SIFT2047) (12:37) (15MAR04) Using Map                                                                            Page  235
  22769  00002D3E  00000001 USING  ORDINARY    00000000 00001000 FFFFFFF4  10 000          @R10,10
  22774  00002D3E  00000001 USING  ORDINARY    00000000 00001000 FFFFFFF5   9 000          @R9,9
  22779  00002D3E  00000001 USING  ORDINARY    00000000 00001000 FFFFFFF6   8 000          @R8,8
  22893  00002E36  00000001 USING  ORDINARY    00002E36 00001000 00000001   8 E16   24124  $$$738B,BR
  22916  00002E48  00000001 USING  ORDINARY    00000000 00001000 FFFFFFE4   9 16A   24030  SCB,SCBR
  22929  00002E4A  00000001 USING  ORDINARY    00000000 00001000 FFFFFFE2  10 038   23806  PDB,PDBR
  23821  0000312E  00000001 USING  ORDINARY    00000000 00001000 FFFFFFF4  10 000          @R10,10
  23824  0000312E  00000001 USING  ORDINARY    00000000 00001000 FFFFFFE2   1 038   23839  PDB,R1
  23861  00003146  00000001 USING  ORDINARY    00000000 00001000 FFFFFFE2  10 038   24029  PDB,10
  23866  00003146  00000001 USING  ORDINARY    00000000 00001000 FFFFFFFD   1 100   36599  @R1,1
  24040  000031DE  00000001 USING  ORDINARY    00000000 00001000 FFFFFFE5   2 008   24046  PIB,R2
  24053  000031E2  00000001 USING  ORDINARY    00000000 00001000 FFFFFFFC   2 000          @R2,2
  24064  000031E2  00000001 USING  ORDINARY    00000000 00001000 FFFFFFE7   3 00D   24075  FEB,R3
  24072  000031E2  00000001 DROP                                           14              14
  24076  000031E8  00000001 USING  ORDINARY    00000000 00001000 FFFFFFF0  14 000          @R14,14
  24083  000031E8  00000001 USING  ORDINARY    00000000 00001000 FFFFFFFB   3 004   27821  @R3,3
  24157  00003222  00000001 USING  ORDINARY    00000000 00001000 FFFFFFF4  10 000          @R10,10
  24162  00003222  00000001 USING  ORDINARY    00000000 00001000 FFFFFFF5   9 000          @R9,9
  24167  00003222  00000001 USING  ORDINARY    00000000 00001000 FFFFFFF6   8 000          @R8,8
  24234  0000326A  00000001 USING  ORDINARY    0000326A 00001000 00000001   8 9DC   24472  $$$786B,BR
  24257  0000327C  00000001 USING  ORDINARY    00000000 00001000 FFFFFFE4   9 0B0   24468  SCB,SCBR
  24270  0000327E  00000001 USING  ORDINARY    00000000 00001000 FFFFFFE2  10 036   24469  PDB,PDBR
  24339  000032BA  00000001 USING  ORDINARY    00000000 00001000 FFFFFFE5   6 010   24412  PIB,R6
  24379  000032C8  00000001 USING  ORDINARY    00000000 00001000 FFFFFFDF   2 024   24428  SUB,R2
  24447  000032EA  00000001 USING  ORDINARY    00000000 00001000 FFFFFFFC   2 004   29633  @R2,2
  24457  000032EE  00000001 USING  ORDINARY    00000000 00001000 FFFFFFF8   6 004   27206  @R6,6
  24480  000032FE  00000001 USING  ORDINARY    00000000 00001000 FFFFFFF4  10 000          @R10,10
  24485  000032FE  00000001 USING  ORDINARY    00000000 00001000 FFFFFFF5   9 000          @R9,9
  24490  000032FE  00000001 USING  ORDINARY    00000000 00001000 FFFFFFF6   8 000          @R8,8
  24536  0000331C  00000001 USING  ORDINARY    0000331C 00001000 00000001   8 93E   24927  $$$798B,BR
  24559  0000332E  00000001 USING  ORDINARY    00000000 00001000 FFFFFFE4   9 104   24923  SCB,SCBR
  24572  00003330  00000001 USING  ORDINARY    00000000 00001000 FFFFFFE2  10 036   24924  PDB,PDBR
  24622  00003344  00000001 USING  ORDINARY    00000000 00001000 FFFFFFDF  11 02E   24912  SUB,SUBR
  24935  0000343E  00000001 USING  ORDINARY    00000000 00001000 FFFFFFF3  11 000          @R11,11
  24940  0000343E  00000001 USING  ORDINARY    00000000 00001000 FFFFFFF4  10 000          @R10,10
  24945  0000343E  00000001 USING  ORDINARY    00000000 00001000 FFFFFFF5   9 000          @R9,9
  24950  0000343E  00000001 USING  ORDINARY    00000000 00001000 FFFFFFF6   8 000          @R8,8
  24997  0000345C  00000001 USING  ORDINARY    0000345C 00001000 00000001   8 7F2   26927  $$$821B,BR
  25020  0000346E  00000001 USING  ORDINARY    00000000 00001000 FFFFFFE4   9 15F   26923  SCB,SCBR
  25033  00003470  00000001 USING  ORDINARY    00000000 00001000 FFFFFFE2  10 038   26924  PDB,PDBR
  26787  000039D8  00000001 USING  ORDINARY    00000000 00001000 FFFFFFDF  11 000          SUB,SUBR
  26802  000039E6  00000001 USING  ORDINARY    00000000 00001000 FFFFFFF3  11 000          @R11,11
  26943  00003A6E  00000001 USING  ORDINARY    00000000 00001000 FFFFFFF4  10 000          @R10,10
  26948  00003A6E  00000001 USING  ORDINARY    00000000 00001000 FFFFFFF5   9 000          @R9,9
  26953  00003A6E  00000001 USING  ORDINARY    00000000 00001000 FFFFFFF6   8 000          @R8,8
  27006  00003AC8  00000001 USING  ORDINARY    00003AC8 00001000 00000001   8 18A   27299  $$$919B,BR
  27028  00003AD8  00000001 USING  ORDINARY    00000000 00001000 FFFFFFDF  11 080   27262  SUB,SUBR
  27306  00003BC8  00000001 USING  ORDINARY    00000000 00001000 FFFFFFF3  11 000          @R11,11
  27311  00003BC8  00000001 USING  ORDINARY    00000000 00001000 FFFFFFF6   8 000          @R8,8
  27513  00003C6C  00000001 USING  ORDINARY    00003C6C 00001000 00000001   8 232   27913  $$$946B,BR
  27532  00003C7C  00000001 USING  ORDINARY    FFFFFFB4 00001000 FFFFFFD5  13 06C   27927  INWA-@@,R13
  27544  00003C7C  00000001 USING  ORDINARY    00000000 00001000 FFFFFFE4   9 0C8   27884  SCB,SCBR
  27603  00003C98  00000001 USING  ORDINARY    00000000 00001000 FFFFFFDE  15 000   27609  XLE,R15
  27616  00003C9C  00000001 USING  ORDINARY    00000000 00001000 FFFFFFEF  15 000          @R15,15
  27935  00003D66  00000001 USING  ORDINARY    00000000 00001000 FFFFFFF5   9 000          @R9,9
  27940  00003D66  00000001 USING  ORDINARY    00000000 00001000 FFFFFFF1  13 000          @R13,13
  27945  00003D66  00000001 USING  ORDINARY    00000000 00001000 FFFFFFF6   8 000          @R8,8
  28135  00003EAE  00000001 USING  ORDINARY    00003EAE 00001000 00000001   8 8A4   30251  $$$973B,BR
  28154  00003EBE  00000001 USING  ORDINARY    FFFFFFB4 00001000 FFFFFFD4  13 06C   30240  OUTWA-@@,R13
1SIFT     (SIFT2047) (12:37) (15MAR04) Using Map                                                                            Page  236
  28166  00003EBE  00000001 USING  ORDINARY    00000000 00001000 FFFFFFE4   9 1AC   30250  SCB,SCBR
  28232  00003EDE  00000001 USING  ORDINARY    00000000 00001000 FFFFFFDE  15 200   28238  XLE,R15
  28245  00003EE2  00000001 USING  ORDINARY    00000000 00001000 FFFFFFEF  15 000          @R15,15
  29752  000043B2  00000001 DROP                                            3              3
  29756  000043B8  00000001 USING  ORDINARY    00000000 00001000 FFFFFFFB   3 001   31291  @R3,3
  30178  000044BE  00000001 DROP                                            2              2
  30182  000044C4  00000001 USING  ORDINARY    00000000 00001000 FFFFFFFC   2 000   30662  @R2,2
  30185  000044C4  00000001 DROP                                           15              15
  30189  000044CA  00000001 USING  ORDINARY    00000000 00001000 FFFFFFEF  15 000          @R15,15
  30259  000044F4  00000001 USING  ORDINARY    00000000 00001000 FFFFFFF5   9 000          @R9,9
  30264  000044F4  00000001 USING  ORDINARY    00000000 00001000 FFFFFFF1  13 000          @R13,13
  30269  000044F4  00000001 USING  ORDINARY    00000000 00001000 FFFFFFF6   8 000          @R8,8
  30484  00004762  00000001 USING  ORDINARY    00004762 00001000 00000001   8 248   31312  $$$1052B,BR
  30503  00004772  00000001 USING  ORDINARY    FFFFFFB4 00001000 FFFFFFD2  13 098   31029  OUTFWA-@@,R13
  30515  00004772  00000001 USING  ORDINARY    00000000 00001000 FFFFFFE4   9 169   31315  SCB,SCBR
  30677  000047D8  00000001 USING  ORDINARY    00000000 00001000 FFFFFFD3   6 00D   31281  FCHAR,R6
  30699  000047DE  00000001 DROP                                           15              15
  30703  000047E4  00000001 USING  ORDINARY    00000000 00001000 FFFFFFEF  15 000   30763  @R15,15
  31278  0000494A  00000001 DROP                                           15              15
  31282  00004950  00000001 USING  ORDINARY    00000000 00001000 FFFFFFEF  15 008   36351  @R15,15
  31286  00004952  00000001 DROP                                            2              2
  31290  00004958  00000001 USING  ORDINARY    00000000 00001000 FFFFFFFC   2 02C   36856  @R2,2
  31324  0000496E  00000001 USING  ORDINARY    00000000 00001000 FFFFFFF8   6 100   36676  @R6,6
  31329  0000496E  00000001 USING  ORDINARY    00000000 00001000 FFFFFFF5   9 000          @R9,9
  31334  0000496E  00000001 USING  ORDINARY    00000000 00001000 FFFFFFF1  13 000          @R13,13
  31339  0000496E  00000001 USING  ORDINARY    00000000 00001000 FFFFFFF6   8 000          @R8,8
  31408  000049BA  00000001 USING  ORDINARY    000049BA 00001000 00000001   8 612   31441  $$$1082B,BR
  31430  000049CA  00000001 USING  ORDINARY    00000000 00001000 FFFFFFE4   9 0CC   31439  SCB,SCBR
  31448  000049D2  00000001 USING  ORDINARY    00000000 00001000 FFFFFFF5   9 000          @R9,9
  31453  000049D2  00000001 USING  ORDINARY    00000000 00001000 FFFFFFF6   8 000          @R8,8
  31490  000049F0  00000001 USING  ORDINARY    000049F0 00001000 00000001   8 5DC   31524  $$$1085B,BR
  31512  00004A00  00000001 USING  ORDINARY    00000000 00001000 FFFFFFE4   9 0CC   31522  SCB,SCBR
  31531  00004A08  00000001 USING  ORDINARY    00000000 00001000 FFFFFFF5   9 000          @R9,9
  31536  00004A08  00000001 USING  ORDINARY    00000000 00001000 FFFFFFF6   8 000          @R8,8
  31573  00004A26  00000001 USING  ORDINARY    00004A26 00001000 00000001   8 5A6   31606  $$$1088B,BR
  31595  00004A36  00000001 USING  ORDINARY    00000000 00001000 FFFFFFE4   9 0CC   31604  SCB,SCBR
  31613  00004A3E  00000001 USING  ORDINARY    00000000 00001000 FFFFFFF5   9 000          @R9,9
  31618  00004A3E  00000001 USING  ORDINARY    00000000 00001000 FFFFFFF6   8 000          @R8,8
  31655  00004A5C  00000001 USING  ORDINARY    00004A5C 00001000 00000001   8 570   31689  $$$1091B,BR
  31677  00004A6C  00000001 USING  ORDINARY    00000000 00001000 FFFFFFE4   9 0CC   31687  SCB,SCBR
  31696  00004A74  00000001 USING  ORDINARY    00000000 00001000 FFFFFFF5   9 000          @R9,9
  31701  00004A74  00000001 USING  ORDINARY    00000000 00001000 FFFFFFF6   8 000          @R8,8
  31738  00004A92  00000001 USING  ORDINARY    00004A92 00001000 00000001   8 53A   31771  $$$1094B,BR
  31760  00004AA2  00000001 USING  ORDINARY    00000000 00001000 FFFFFFE4   9 0CC   31769  SCB,SCBR
  31778  00004AAA  00000001 USING  ORDINARY    00000000 00001000 FFFFFFF5   9 000          @R9,9
  31783  00004AAA  00000001 USING  ORDINARY    00000000 00001000 FFFFFFF6   8 000          @R8,8
  31820  00004AC8  00000001 USING  ORDINARY    00004AC8 00001000 00000001   8 504   31854  $$$1097B,BR
  31842  00004AD8  00000001 USING  ORDINARY    00000000 00001000 FFFFFFE4   9 0CC   31852  SCB,SCBR
  31861  00004AE0  00000001 USING  ORDINARY    00000000 00001000 FFFFFFF5   9 000          @R9,9
  31866  00004AE0  00000001 USING  ORDINARY    00000000 00001000 FFFFFFF6   8 000          @R8,8
  31903  00004AFE  00000001 USING  ORDINARY    00004AFE 00001000 00000001   8 4CE   31936  $$$1100B,BR
  31925  00004B0E  00000001 USING  ORDINARY    00000000 00001000 FFFFFFE4   9 0CC   31934  SCB,SCBR
  31943  00004B16  00000001 USING  ORDINARY    00000000 00001000 FFFFFFF5   9 000          @R9,9
  31948  00004B16  00000001 USING  ORDINARY    00000000 00001000 FFFFFFF6   8 000          @R8,8
  31985  00004B34  00000001 USING  ORDINARY    00004B34 00001000 00000001   8 498   32019  $$$1103B,BR
  32007  00004B44  00000001 USING  ORDINARY    00000000 00001000 FFFFFFE4   9 0CC   32017  SCB,SCBR
  32026  00004B4C  00000001 USING  ORDINARY    00000000 00001000 FFFFFFF5   9 000          @R9,9
  32031  00004B4C  00000001 USING  ORDINARY    00000000 00001000 FFFFFFF6   8 000          @R8,8
  32068  00004B6A  00000001 USING  ORDINARY    00004B6A 00001000 00000001   8 462   32101  $$$1106B,BR
1SIFT     (SIFT2047) (12:37) (15MAR04) Using Map                                                                            Page  237
  32090  00004B7A  00000001 USING  ORDINARY    00000000 00001000 FFFFFFE4   9 0CC   32099  SCB,SCBR
  32108  00004B82  00000001 USING  ORDINARY    00000000 00001000 FFFFFFF5   9 000          @R9,9
  32113  00004B82  00000001 USING  ORDINARY    00000000 00001000 FFFFFFF6   8 000          @R8,8
  32150  00004BA0  00000001 USING  ORDINARY    00004BA0 00001000 00000001   8 42C   32184  $$$1109B,BR
  32172  00004BB0  00000001 USING  ORDINARY    00000000 00001000 FFFFFFE4   9 0CC   32182  SCB,SCBR
  32191  00004BB8  00000001 USING  ORDINARY    00000000 00001000 FFFFFFF5   9 000          @R9,9
  32196  00004BB8  00000001 USING  ORDINARY    00000000 00001000 FFFFFFF6   8 000          @R8,8
  32233  00004BD6  00000001 USING  ORDINARY    00004BD6 00001000 00000001   8 3F6   32267  $$$1112B,BR
  32255  00004BE6  00000001 USING  ORDINARY    00000000 00001000 FFFFFFE4   9 0CC   32265  SCB,SCBR
  32274  00004BEE  00000001 USING  ORDINARY    00000000 00001000 FFFFFFF5   9 000          @R9,9
  32279  00004BEE  00000001 USING  ORDINARY    00000000 00001000 FFFFFFF6   8 000          @R8,8
  32316  00004C0C  00000001 USING  ORDINARY    00004C0C 00001000 00000001   8 3DF   32560  $$$1115B,BR
  32338  00004C1C  00000001 USING  ORDINARY    00000000 00001000 FFFFFFE4   9 15A   32517  SCB,SCBR
  32572  00004CBC  00000001 USING  ORDINARY    00000000 00001000 FFFFFFF5   9 000          @R9,9
  32577  00004CBC  00000001 USING  ORDINARY    00000000 00001000 FFFFFFF6   8 000          @R8,8
  32614  00004CDA  00000001 USING  ORDINARY    00004CDA 00001000 00000001   8 2FE   32645  $$$1124B,BR
  32636  00004CEA  00000001 USING  ORDINARY    00000000 00001000 FFFFFFE4   9 000          SCB,SCBR
  32652  00004CF6  00000001 USING  ORDINARY    00000000 00001000 FFFFFFF5   9 000          @R9,9
  32657  00004CF6  00000001 USING  ORDINARY    00000000 00001000 FFFFFFF6   8 000          @R8,8
  32694  00004D14  00000001 USING  ORDINARY    00004D14 00001000 00000001   8 2C6   32725  $$$1127B,BR
  32716  00004D24  00000001 USING  ORDINARY    00000000 00001000 FFFFFFE4   9 000          SCB,SCBR
  32732  00004D30  00000001 USING  ORDINARY    00000000 00001000 FFFFFFF5   9 000          @R9,9
  32737  00004D30  00000001 USING  ORDINARY    00000000 00001000 FFFFFFF6   8 000          @R8,8
  32774  00004D4E  00000001 USING  ORDINARY    00004D4E 00001000 00000001   8 28E   32805  $$$1130B,BR
  32796  00004D5E  00000001 USING  ORDINARY    00000000 00001000 FFFFFFE4   9 000          SCB,SCBR
  32812  00004D6A  00000001 USING  ORDINARY    00000000 00001000 FFFFFFF5   9 000          @R9,9
  32817  00004D6A  00000001 USING  ORDINARY    00000000 00001000 FFFFFFF6   8 000          @R8,8
  32854  00004D88  00000001 USING  ORDINARY    00004D88 00001000 00000001   8 256   32885  $$$1133B,BR
  32876  00004D98  00000001 USING  ORDINARY    00000000 00001000 FFFFFFE4   9 000          SCB,SCBR
  32892  00004DA4  00000001 USING  ORDINARY    00000000 00001000 FFFFFFF5   9 000          @R9,9
  32897  00004DA4  00000001 USING  ORDINARY    00000000 00001000 FFFFFFF6   8 000          @R8,8
  32934  00004DC2  00000001 USING  ORDINARY    00004DC2 00001000 00000001   8 21E   32965  $$$1136B,BR
  32956  00004DD2  00000001 USING  ORDINARY    00000000 00001000 FFFFFFE4   9 000          SCB,SCBR
  32972  00004DDE  00000001 USING  ORDINARY    00000000 00001000 FFFFFFF5   9 000          @R9,9
  32977  00004DDE  00000001 USING  ORDINARY    00000000 00001000 FFFFFFF6   8 000          @R8,8
  33014  00004DFC  00000001 USING  ORDINARY    00004DFC 00001000 00000001   8 1E6   33045  $$$1139B,BR
  33036  00004E0C  00000001 USING  ORDINARY    00000000 00001000 FFFFFFE4   9 000          SCB,SCBR
  33052  00004E18  00000001 USING  ORDINARY    00000000 00001000 FFFFFFF5   9 000          @R9,9
  33057  00004E18  00000001 USING  ORDINARY    00000000 00001000 FFFFFFF6   8 000          @R8,8
  33094  00004E36  00000001 USING  ORDINARY    00004E36 00001000 00000001   8 1AE   33125  $$$1142B,BR
  33116  00004E46  00000001 USING  ORDINARY    00000000 00001000 FFFFFFE4   9 000          SCB,SCBR
  33132  00004E52  00000001 USING  ORDINARY    00000000 00001000 FFFFFFF5   9 000          @R9,9
  33137  00004E52  00000001 USING  ORDINARY    00000000 00001000 FFFFFFF6   8 000          @R8,8
  33174  00004E70  00000001 USING  ORDINARY    00004E70 00001000 00000001   8 17D   33230  $$$1145B,BR
  33196  00004E80  00000001 USING  ORDINARY    00000000 00001000 FFFFFFE4   9 0C0   33230  SCB,SCBR
  33237  00004EA6  00000001 USING  ORDINARY    00000000 00001000 FFFFFFF5   9 000          @R9,9
  33242  00004EA6  00000001 USING  ORDINARY    00000000 00001000 FFFFFFF6   8 000          @R8,8
  33279  00004EC4  00000001 USING  ORDINARY    00004EC4 00001000 00000001   8 134   33335  $$$1148B,BR
  33301  00004ED4  00000001 USING  ORDINARY    00000000 00001000 FFFFFFE4   9 0C0   33335  SCB,SCBR
  33342  00004EFA  00000001 USING  ORDINARY    00000000 00001000 FFFFFFF5   9 000          @R9,9
  33347  00004EFA  00000001 USING  ORDINARY    00000000 00001000 FFFFFFF6   8 000          @R8,8
  33384  00004F18  00000001 USING  ORDINARY    00004F18 00001000 00000001   8 0F1   33423  $$$1151B,BR
  33406  00004F28  00000001 USING  ORDINARY    00000000 00001000 FFFFFFE4   9 000          SCB,SCBR
  33431  00004F38  00000001 USING  ORDINARY    00000000 00001000 FFFFFFF5   9 000          @R9,9
  33436  00004F38  00000001 USING  ORDINARY    00000000 00001000 FFFFFFF6   8 000          @R8,8
  33473  00004F56  00000001 USING  ORDINARY    00004F56 00001000 00000001   8 095   33578  $$$1154B,BR
  33495  00004F66  00000001 USING  ORDINARY    00000000 00001000 FFFFFFE4   9 15A   33508  SCB,SCBR
  33590  00004FB2  00000001 USING  ORDINARY    00000000 00001000 FFFFFFF5   9 000          @R9,9
  33595  00004FB2  00000001 USING  ORDINARY    00000000 00001000 FFFFFFF6   8 000          @R8,8
1SIFT     (SIFT2047) (12:37) (15MAR04) Using Map                                                                            Page  238
  36140  00005F52  00000001 USING  ORDINARY    00005F52 00001000 00000001   8 4F0   36345  $$$1159B,BR
  36162  00005F62  00000001 USING  ORDINARY    00000000 00001000 FFFFFFE4   9 16E   36337  SCB,SCBR
  36362  00005FE8  00000001 USING  ORDINARY    00000000 00001000 FFFFFFF5   9 000          @R9,9
  36367  00005FE8  00000001 USING  ORDINARY    00000000 00001000 FFFFFFF6   8 000          @R8,8
  36440  00006006  00000001 USING  ORDINARY    00006006 00001000 00000001   8 448   36669  $$$1171B,BR
  36459  00006016  00000001 USING  ORDINARY    FFFFFFB4 00001000 FFFFFFD1  13 054   36690  XLTWA-@@,R13
  36697  000060D2  00000001 USING  ORDINARY    00000000 00001000 FFFFFFF1  13 000          @R13,13
  36702  000060D2  00000001 USING  ORDINARY    00000000 00001000 FFFFFFF6   8 000          @R8,8
  36750  000060F0  00000001 USING  ORDINARY    000060F0 00001000 00000001   8 355   37080  $$$1187B,BR
  36772  00006100  00000001 USING  ORDINARY    00000000 00001000 FFFFFFE4   9 0E0   37060  SCB,SCBR
  36781  00006100  00000001 USING  ORDINARY    00000000 00001000 FFFFFFE2  10 00B   36950  PDB,PDBR
  36886  00006160  00000001 USING  ORDINARY    00000000 00001000 FFFFFFD9   6 02C   36962  STRC,R6
  37053  000061E4  00000001 USING  ORDINARY    00000000 00001000 FFFFFFF8   6 000          @R6,6
  37056  000061E4  00000001 USING  ORDINARY    00000000 00001000 FFFFFFD9   1 000          STRC,R1
  37072  000061EC  00000001 USING  ORDINARY    00000000 00001000 FFFFFFD9   6 000          STRC,6
  37077  000061EC  00000001 USING  ORDINARY    00000000 00001000 FFFFFFFD   1 000          @R1,1
  37089  000061F0  00000001 USING  ORDINARY    00000000 00001000 FFFFFFF8   6 000          @R6,6
  37094  000061F0  00000001 USING  ORDINARY    00000000 00001000 FFFFFFF4  10 000          @R10,10
  37099  000061F0  00000001 USING  ORDINARY    00000000 00001000 FFFFFFF5   9 000          @R9,9
  37104  000061F0  00000001 USING  ORDINARY    00000000 00001000 FFFFFFF6   8 000          @R8,8
  37152  0000620E  00000001 USING  ORDINARY    0000620E 00001000 00000001   8 237   37496  $$$1201B,BR
  37174  0000621E  00000001 USING  ORDINARY    00000000 00001000 FFFFFFE4   9 0E0   37515  SCB,SCBR
  37250  0000624A  00000001 USING  ORDINARY    00000000 00001000 FFFFFFD9   3 004   37266  STRC,R3
  37305  00006260  00000001 USING  ORDINARY    00000000 00001000 FFFFFFFB   3 000          @R3,3
  37385  0000629A  00000001 USING  ORDINARY    00000000 00001000 FFFFFFD9   4 004   37426  STRC,R4
  37443  000062D2  00000001 USING  ORDINARY    00000000 00001000 FFFFFFFA   4 000          @R4,4
  37459  000062D2  00000001 USING  ORDINARY    00000000 00001000 FFFFFFD9   6 004   37493  STRC,R6
  37510  00006316  00000001 USING  ORDINARY    00000000 00001000 FFFFFFF8   6 000          @R6,6
  37523  0000631C  00000001 USING  ORDINARY    00000000 00001000 FFFFFFF5   9 000          @R9,9
  37528  0000631C  00000001 USING  ORDINARY    00000000 00001000 FFFFFFF6   8 000          @R8,8
  37577  0000633A  00000001 USING  ORDINARY    0000633A 00001000 00000001   8 106   37668  $$$1219B,BR
  37601  0000634E  00000001 USING  ORDINARY    00000000 00001000 FFFFFFE4   1 0F4   37640  SCB,R1
  37675  00006378  00000001 USING  ORDINARY    00000000 00001000 FFFFFFFD   1 000          @R1,1
  37680  00006378  00000001 USING  ORDINARY    00000000 00001000 FFFFFFF6   8 000          @R8,8
  37728  00006396  00000001 USING  ORDINARY    00006396 00001000 00000001   8 0A2   37879  $$$1226B,BR
  37751  000063A8  00000001 USING  ORDINARY    00000000 00001000 FFFFFFE4   9 12E   37876  SCB,SCBR
  37766  000063AA  00000001 USING  ORDINARY    00000000 00001000 FFFFFFD8   7 048   37858  SIB,R7
  37803  000063C0  00000001 USING  ORDINARY    00000000 00001000 FFFFFFE5   4 034   37808  PIB,R4
  37818  000063CA  00000001 USING  ORDINARY    00000000 00001000 FFFFFFE7   3 014   37824  FEB,R3
  37831  000063D0  00000001 USING  ORDINARY    00000000 00001000 FFFFFFFB   3 000          @R3,3
  37838  000063D0  00000001 USING  ORDINARY    00000000 00001000 FFFFFFFA   4 000          @R4,4
  37893  000063F0  00000001 USING  ORDINARY    00000000 00001000 FFFFFFF7   7 000          @R7,7
  37898  000063F0  00000001 USING  ORDINARY    00000000 00001000 FFFFFFF5   9 000          @R9,9
  37903  000063F0  00000001 USING  ORDINARY    00000000 00001000 FFFFFFF6   8 000          @R8,8
  37987  0000645E  00000001 USING  ORDINARY    0000645E 00001000 00000001   8 0D6   38018  $$$1232B,BR
  38010  00006470  00000001 USING  ORDINARY    00000000 00001000 FFFFFFE4   9 000   38015  SCB,SCBR
  38030  0000647C  00000001 USING  ORDINARY    00000000 00001000 FFFFFFF5   9 000          @R9,9
  38035  0000647C  00000001 USING  ORDINARY    00000000 00001000 FFFFFFF6   8 000          @R8,8
  38085  0000649A  00000001 USING  ORDINARY    0000649A 00001000 00000001   8 09A   38203  $$$1235B,BR
  38108  000064AC  00000001 USING  ORDINARY    00000000 00001000 FFFFFFDF  11 080   38200  SUB,SUBR
  38220  0000650E  00000001 USING  ORDINARY    00000000 00001000 FFFFFFF3  11 000          @R11,11
  38225  0000650E  00000001 USING  ORDINARY    00000000 00001000 FFFFFFF6   8 000          @R8,8

1         (SIFT2047) (12:37) (15MAR04) General Purpose Register Cross Reference                                             Page  239
- Register  References (M=modified, B=branch, U=USING, D=DROP, N=index)                      HLASM R4.0  2004/03/15 12.37
0    0(0)      989U   990D  3012M  3013M  3014   3016M  3017   6352M  6411M  6526M  6527M  6528   6752M  6753M  6819M
              6887M  6887   7131M  7301M  7302M  7304   8158M  8159M  8161   8261M  8262M  8264   8521M  8522M  8524
              8576M  8668M  8669M  8671   8894M  8923M  8983M  8983   9068   9147M  9147   9918M  9942M  9944M 10159M
             10161M 10340M 10342M 10360M 10362M 11564M 11565M 12421M 12423M 13221M 13222  13791M 14317M 14318M 14334
             15049M 15050M 15638M 15655M 15655  15677M 15783M 15792M 15792  15803  15815M 15820  16966M 16967M 16967
             17021  17032  17523M 17523  17524M 17536  18263  18955M 18956M 18956  19010  19282M 19283M 19283  19337
             19594M 19594  19595M 19607  19771  19799M 19799  20590M 21107M 21124M 21157M 21191M 21215M 21215  21232M
             21254M 22179M 22180M 22213M 22215M 22469M 22496M 22498M 22661M 22663M 22754M 22756M 23152M 23176M 23178M
             23209M 23221  23245M 23257  23276M 23288  23393M 23394M 23422M 23424M 23524M 23525M 23554M 23556M 23633M
             23634M 23635M 23661  23663M 23672M 23672  23682M 23682  23698  23705M 23766  23785M 23830M 23831  23849M
             23851M 23874M 23890  23891M 23892  23911M 23913M 24281M 24282M 24303  24758M 24759  25565M 25567M 25717M
             25719M 25904M 25905M 25946  25965M 25966M 25990  25991  25994  26009  26014M 26016M 26129M 26153M 26155M
             26495M 26497M 26748M 26750M 27136M 27206M 27238M 27240M 27556  27619M 27625  27778M 27826M 27902M 27927M
             28179  28248M 28254  28271M 28315M 28386M 28436M 28501M 28503M 28523M 28575M 28576M 28576  28589M 28590M
             28606  28608  28660M 28661M 28670  28671  28812M 28862M 29057M 29061M 29061  29063M 29083M 29234M 29238M
             29238  29240M 29260M 29408M 29412M 29412  29414M 29434M 29743M 29788M 29802M 29802  29869M 29904M 29908M
             29908  29910M 29930M 29983M 30015M 30153M 30526  30546  30594M 30602  30614M 30620  30946M 30957M 30983M
             31018M 31029M 31032M 31058M 31164M 31200M 31225M 31250M 31303M 32361M 32392M 32423M 32458M 32493M 32528M
             32551M 32643M 32723M 32803M 32883M 32963M 33043M 33123M 33204M 33219M 33309M 33324M 33414M 33517  33526M
             33541M 33569M 36471  36480M 36480  36689M 36814  36856M 36902  36936M 36938M 38179M 38180M 38182
     1(1)      985U  6350M  6386   6413M  6525M  6528M  6750M  6820M  6826   6876M  6877   6878M  6879   6880M  6881
              6898M  6951M  7021   7135M  7135   7156M  7299M  7300M  7302   7403M  7540M  7606M  7851M  7852M  7852
              7870M  8139M  8149M  8159   8191M  8242M  8252M  8262   8293M  8502M  8512M  8522   8581M  8646M  8646
              8648M  8648   8649   8666M  8667M  8669   8899M  8930M  8990M  9068   9148M  9198M  9199M  9199   9228U
              9263U  9366   9807M  9919M  9925   9931   9943M  9944M 10160M 10161M 10341M 10342M 10361M 10362M 11040M
             11284M 11373M 11560M 11658M 11827M 11837  11847M 11847  11848  11863M 11863  11881  12047M 12060M 12128M
             12198M 12422M 12423M 12996M 13227M 13442M 13660M 13832M 14243M 14319M 14506M 15060M 15633M 15675M 15781M
             15951M 15976M 15991  16009M 16089D 16091M 16091  16092M 16093U 16103  16109M 16162M 16466M 16467M 16475N
             17545M 17561U 17575M 17576M 17576  17615U 18263  18367M 18485M 18505M 18597M 18735D 18737M 18737  18738M
             18739U 18749  18755M 18773M 18927M 19616M 19632U 19646M 19647M 19647  19686U 19771  19954  20126M 20594M
             20594  21034M 21100M 21123M 21156M 21190M 21211M 21231M 21253M 21287M 21397  21595M 21669  21846M 21913M
             21943M 22041  22181M 22187  22214M 22215M 22227M 22315  22470M 22476  22497M 22498M 22596M 22662M 22663M
             22692M 22701M 22755M 22756M 22757M 22907  23153M 23159  23165  23177M 23178M 23395M 23401  23423M 23424M
             23526M 23532  23555M 23556M 23718M 23766  23786M 23805  23824U 23850M 23851M 23866U 23874M 23911  23912M
             23913M 23950M 24010M 24028M 24248  24275M 24468M 24550  24806M 24816  24835M 24835  24923M 25011  25466M
             25467M 25467  25498M 25499M 25499  25566M 25567M 25568M 25584M 25625M 25626M 25626  25718M 25719M 25720M
             25732M 25781M 25934M 26014  26015M 26016M 26130M 26136  26142  26154M 26155M 26431M 26496M 26497M 26498M
             26514M 26563M 26564M 26564  26744M 26749M 26861M 26907M 26923M 27141M 27207M 27213  27239M 27240M 27555
             27618M 27624  27688M 27710M 27774M 27821M 27839M 27867M 27868M 27868  27897M 27922M 28178  28247M 28253
             28267M 28310M 28381M 28435M 28495M 28501M 28502M 28503M 28506  28518M 28523  28533M 28636M 28652M 28660
             28667M 28668  28669M 28796M 28857M 29050M 29057M 29062M 29063M 29066  29078M 29083  29093M 29229M 29234M
             29239M 29240M 29243  29255M 29260  29270M 29406M 29408M 29413M 29414M 29417  29429M 29434  29444M 29620M
             29633M 29641M 29642  29643  29742M 29786M 29868M 29899M 29904M 29909M 29910M 29913  29925M 29930  29940M
             30148M 30526  30592M 30945M 30957M 30982M 31017M 31029M 31030M 31057M 31159M 31195M 31220M 31245M 31291M
             32360M 32391M 32422M 32457M 32492M 32527M 32550M 32642M 32722M 32802M 32882M 32962M 33042M 33122M 33203M
             33218M 33308M 33323M 33413M 33517  33525M 33541M 33568M 36471  36511M 36527M 36564M 36594  36595  36616
             36618  36689M 36813  36857M 36876  36902  36937M 36938M 37038M 37056U 37077U 37205  37493M 37591M 37601U
             37616M 37617M 37617  37675U 37742  38001  38015M 38099  38115M 38177M 38178M 38180  38200M
     2(2)      981U  6317   6445M  6556   6768M  6793   6821M  6970M  6995   7229M  7267M  7268M  7268   7324U  7539M
              7676M  7689   7721M  7898M  8019   8292M  8306M  8306   8395M  8440   9309M  9340   9920M 10104M 10116
             10138M 10139  10152  10284M 10287  10299M 10306  10318M 10333  10355  10370  10784M 10888M 10895M 10933M
             10934M 10934  11018U 11038M 11751M 11777M 11808M 11821  11886M 11925M 11999M 12264M 12293  12362M 12363M
             12364M 12414  12425M 12426M 12439  12455M 12471M 12471  12476  12509M 12532  12589M 12590M 12602  12667M
             12690  12790M 12791M 12792M 12805  12857M 12858M 12858  12880  12887M 12895  12897  13226M 13264M 13294
             13479M 13506  13584M 13585M 13585  13608  13628  13713M 13740  13869M 13960  16079D 16081M 16081  16082M
1         (SIFT2047) (12:37) (15MAR04) General Purpose Register Cross Reference                                             Page  240
             16085M 16103  18162M 18194M 18540M 18592  18725D 18727M 18727  18728M 18729U 18731M 18749  19834M 19928
             20152M 20152  20268M 20285M 20319M 20336M 20357M 20377M 20377  20394  20475M 20522  20619  20699M 20774D
             20776M 20776  20777M 20819  20833  20866  21316M 21343M 21371  21446M 21447M 21447  21616M 21643  21983M
             22015  22182M 22187M 22224  22225  22259M 22289  22471M 22642M 22692  22786M 22881  23154M 23396M 23403M
             23422N 23527M 23534M 23535M 23554N 23585M 23586M 23586  23608  23615M 23623  23625  23779M 23779  23789
             23794M 23802M 23829  23844  24030M 24040U 24053U 24137  24174M 24222  24363M 24393M 24394M 24394  24447U
             24466M 24466  24497M 24524  24577  24957M 24985  25527M 25528M 25528  25565  25568  25694M 25695M 25695
             25717  25720  25780M 25946M 25947M 25959  26131M 26230M 26231  26233M 26233N 26356M 26469M 26470M 26470
             26495  26498  26845M 26846M 26846  26885M 26886M 26886  26960M 26994  27208M 27213M 27262  27318M 27500
             27794M 27794  27811M 27826  27928  27953M 28482M 28496M 28498M 28500M 28501  28640M 28640  28652M 28705M
             28705  28815N 28850M 29051M 29052M 29054M 29056M 29057  29230M 29231M 29233M 29234  29407M 29408  29621M
             29633M 30178D 30180M 30180  30181M 30182U 30188N 30471  30620M 30624M 30633M 30633  30640  30661M 31286D
             31288M 31288  31289M 31290U 31303  31314M 31315  31347M 31396  31460M 31478  31543M 31561  31625M 31643
             31708M 31726  31790M 31808  31873M 31891  31955M 31973  32038M 32056  32120M 32138  32203M 32221  32286M
             32304  32584M 32602  32664M 32682  32744M 32762  32824M 32842  32904M 32922  32984M 33002  33064M 33082
             33144M 33162  33249M 33267  33354M 33372  33443M 33461  33602M 36128  36374M 36427  36515M 36515  36527M
             36557  36581  36594M 36601M 36710M 36738  36835M 36838  36850M 36860  36865M 36873M 36918  36931  36972M
             36973M 36973  37003  37111M 37140  37535M 37565  37687M 37716  37910M 37975  38042M 38073  38232M
     3(3)      977U  6317   6445M  6556   6768M  6793   6970M  6995   7677M  7689   7898M  8019   8395M  8440   9309M
              9340  10185M 10186M 10186  10207U 10213M 10220U 10231U 10379U 11809M 11821  12264M 12293  12509M 12532
             12667M 12690  13264M 13294  13479M 13506  13563M 13576  13675M 13713M 13740  13869M 13960  15495M 15496M
             15496  15522U 15887U 18163M 18170M 18180  18187M 18188M 18206  19834M 19928  20475M 20522  20619  20874M
             20875M 20875  20899U 20912U 21316M 21343M 21371  21498M 21508U 21585U 21616M 21643  21983M 22015  22259M
             22289  22786M 22881  23849  24046M 24064U 24083U 24136  24174M 24222  24497M 24524  24783M 24800  24853
             24858M 24957M 24985  26960M 26994  27318M 27500  27804M 27805M 27805  27839  27847M 27847  27852  27953M
             28671M 28695M 28696  28759  28849M 29752D 29754M 29754  29755M 29756U 29771M 29820M 29820  29838  29859
             29901  29983  30001  30003  30471  31275M 31283M 31347M 31396  31460M 31478  31543M 31561  31625M 31643
             31708M 31726  31790M 31808  31873M 31891  31955M 31973  32038M 32056  32120M 32138  32203M 32221  32286M
             32304  32584M 32602  32664M 32682  32744M 32762  32824M 32842  32904M 32922  32984M 33002  33064M 33082
             33144M 33162  33249M 33267  33354M 33372  33443M 33461  33602M 36128  36374M 36427  36597M 36598M 36600
             36601M 36710M 36738  36814M 36830M 36830  36835  36917  37111M 37140  37240M 37250U 37266M 37267M 37267
             37283  37293  37305U 37535M 37565  37687M 37716  37808M 37818U 37831U 37910M 37975  38042M 38073  38232M
     4(4)      973U  6317   6445M  6556   6768M  6793   6970M  6995   7898M  8019   8395M  8440   8766M  8784U  8800M
              8801M  8801   8852U  9195M  9309M  9340  11807M 11807  11874M 11874  11881M 11987M 11987  11999  12009M
             12009  12041M 12094M 12094  12264M 12293  12509M 12532  12667M 12690  13264M 13294  13479M 13506  13564M
             13576  13713M 13740  13869M 13960  15578M 15588U 15882U 15952M 15991  16174M 16175M 16175  16229  16240M
             16254  16505M 16506M 16554  16657M 16657  16679M 16785M 16795M 16795  16806  16818M 16827M 16836M 16836
             16843  16879M 16885  18163M 18180  19834M 19928  20475M 20522  20619  20905M 20922M 20922  20940U 20977U
             21316M 21343M 21371  21616M 21643  21983M 22015  22259M 22289  22786M 22881  24174M 24222  24497M 24524
             24784M 24800  24957M 24985  26960M 26994  27318M 27500  27953M 28122  29740M 29741M 29771  30052M 30065
             30119M 30119  30210M 30277M 30471  31347M 31396  31460M 31478  31543M 31561  31625M 31643  31708M 31726
             31790M 31808  31873M 31891  31955M 31973  32038M 32056  32120M 32138  32203M 32221  32286M 32304  32584M
             32602  32664M 32682  32744M 32762  32824M 32842  32904M 32922  32984M 33002  33064M 33082  33144M 33162
             33249M 33267  33354M 33372  33443M 33461  33602M 36128  36374M 36427  36710M 36738  36813M 36936  37111M
             37140  37238M 37238  37293M 37325M 37325  37385U 37433  37443U 37535M 37565  37687M 37716  37781M 37782M
             37782  37803U 37838U 37910M 37975  38042M 38073  38232M
     5(5)      969U  6317   6445M  6556   6768M  6793   6970M  6995   7898M  8019   8395M  8440   9309M  9340  12264M
             12293  12509M 12532  12667M 12690  13264M 13294  13479M 13506  13713M 13740  13869M 13960  14257M 14258M
             14258  14288  14317  14419  14506N 14508  14597  14714M 14882  14971  15040  15049  15150  15212  15248
             15296  15349  15638  15902  16239M 16504M 16677M 16783M 16906M 16916U 16940U 17032M 17033M 17048  17254M
             17254  17311  17334  17410M 17793M 17803U 17824U 18163M 18187  19834M 19928  20475M 20522  20619  20853M
             20965  20967M 20995  21301M 21302  21316M 21343M 21371  21616M 21643  21983M 22015  22259M 22289  22734M
             22762  22786M 22881  24174M 24222  24497M 24524  24957M 24985  26960M 26994  27318M 27500  27953M 28122
             29644M 29731  29838  30003M 30015  30029  30051M 30141M 30153  30167M 30168  30169  30208M 30277M 30471
             31347M 31396  31460M 31478  31543M 31561  31625M 31643  31708M 31726  31790M 31808  31873M 31891  31955M
             31973  32038M 32056  32120M 32138  32203M 32221  32286M 32304  32584M 32602  32664M 32682  32744M 32762
             32824M 32842  32904M 32922  32984M 33002  33064M 33082  33144M 33162  33249M 33267  33354M 33372  33443M
             33461  33602M 36128  36374M 36427  36490M 36491  36588M 36597  36619M 36622M 36636  36644M 36659M 36659
             36667M 36669  36710M 36738  36811M 37111M 37140  37535M 37565  37687M 37716  37910M 37975  38042M 38073
1         (SIFT2047) (12:37) (15MAR04) General Purpose Register Cross Reference                                             Page  241
             38232M
     6(6)      965U  6317   6445M  6556   6768M  6793   6970M  6995   7898M  8019   8395M  8440   9309M  9340  12264M
             12293  12509M 12532  12667M 12690  13264M 13294  13479M 13506  13713M 13740  13869M 13960  14316M 14365
             14491M 14491  14572M 14572  14655  14700  14713M 15633  16187M 16197U 16210U 16273M 16283U 16329U 16470M
             16471M 16471  16475M 16476M 16476  16501U 16931  16952U 17031M 17433M 17443U 17465U 17692M 17716U 17730M
             17731M 17731  17842U 18149M 18150M 18150  18153M 18156M 18157M 18157  18968M 18978U 18991U 19144M 19147M
             19148M 19148  19157U 19268U 19834M 19928  20475M 20522  20619  21076M 21086U 21115  21132  21165  21199
             21223  21240  21262  21279U 21316M 21343M 21371  21616M 21643  21983M 22015  22259M 22289  22449M 22452
             22464M 22469  22489  22747  22786M 22881  24174M 24222  24317M 24318M 24318  24339U 24457U 24497M 24524
             24957M 24985  26960M 26994  27060M 27073M 27073  27087  27233  27318M 27500  27556M 27619  27625M 27689
             27763  27765M 27902  27953M 28122  28179M 28248  28254M 28315  28333M 28333  28386  28404M 28404  28566M
             28566  28572  28670M 28799M 28850  29551  29643M 29670M 29670  30052  30169M 30277M 30471  30667M 30677U
             30691M 30691  30933M 31324U 31347M 31396  31460M 31478  31543M 31561  31625M 31643  31708M 31726  31790M
             31808  31873M 31891  31955M 31973  32038M 32056  32120M 32138  32203M 32221  32286M 32304  32584M 32602
             32664M 32682  32744M 32762  32824M 32842  32904M 32922  32984M 33002  33064M 33082  33144M 33162  33249M
             33267  33354M 33372  33443M 33461  33602M 36128  36271M 36284  36307  36313M 36374M 36427  36490M 36596
             36617  36618M 36622M 36643M 36710M 36738  36876M 36886U 36985  36986  37003  37004  37053U 37072U 37089U
             37111M 37140  37205M 37214M 37214  37283  37331  37415  37459U 37510U 37535M 37565  37687M 37716  37910M
             37975  38042M 38073  38232M
     7(7)      961U  6317   6445M  6556   6768M  6793   6970M  6995   7353M  7363U  7378M  7379M  7379   7422U  7763M
              7815   7833   7898M  8019   8278M  8279M  8279   8293   8395M  8440   8870M  8899   9309M  9340  12264M
             12293  12509M 12532  12667M 12690  13061M 13071U 13121U 13165M 13175U 13203U 13264M 13294  13479M 13506
             13713M 13740  13869M 13960  14271M 14313U 14353M 14467M 14468M 14468  14579M 14628M 14629M 14629  14664M
             14671M 14685M 14686M 14686  14726M 14726  15512  15565  16001M 16025U 16203M 16287M 16297U 16324U 16335M
             16343U 16356M 16357M 16357  16455M 16456M 16456  16959U 16995M 17083M 17101U 17134U 17147M 17155U 17168M
             17169M 17169  17204M 17205M 17205  17457  17477U 17505M 17515U 17664U 17691M 17787  17899M 17909U 17921U
             18022M 18038U 18052M 18053M 18053  18085U 18294M 18304U 18502U 18656M 18657M 18657  18676U 18793U 18848M
             18849M 18849  18868U 18947U 18984M 19028M 19036U 19049M 19050M 19050  19091M 19091  19275U 19311M 19355M
             19363U 19376M 19377M 19377  19418M 19418  19550U 19576M 19586U 19735U 19834M 19928  20041M 20042M 20042
             20063U 20400U 20475M 20522  20619  21316M 21343M 21371  21616M 21643  21767M 21983M 22015  22259M 22289
             22476M 22484  22754  22757  22786M 22881  24174M 24222  24497M 24524  24957M 24985  25210M 25210  25227M
             25257M 25257  25659M 25659  26960M 26994  27059M 27109  27238  27318M 27500  27555M 27618  27624M 27688
             27897  27953M 28122  28178M 28247  28253M 28310  28331M 28331  28381  28402M 28402  28661  28667  28668M
             28669  28796  28797M 28849  29641  29642M 30051  30141  30148  30168M 30277M 30471  30528M 30952  30974
             30989  31024  31049  31064  31170  31206  31231  31256  31309  31347M 31396  31460M 31478  31543M 31561
             31625M 31643  31708M 31726  31790M 31808  31873M 31891  31955M 31973  32038M 32056  32120M 32138  32203M
             32221  32286M 32304  32367  32398  32429  32464  32499  32534  32557  32584M 32602  32664M 32682  32744M
             32762  32824M 32842  32904M 32922  32984M 33002  33064M 33082  33144M 33162  33210  33225  33249M 33267
             33315  33330  33354M 33372  33420  33443M 33461  33532  33560  33575  33602M 36128  36242M 36243M 36243
             36272M 36284  36374M 36427  36470M 36710M 36738  37111M 37140  37535M 37565  37687M 37716  37756M 37766U
             37893U 37910M 37975  38042M 38073  38232M
     8(8)      957U  6317   6318M  6329U  6438U  6445M  6556   6557M  6568U  6761U  6768M  6793   6794M  6805U  6963U
              6970M  6995   6996M  7007U  7891U  7898M  8019   8020M  8031U  8388U  8395M  8440   8441M  8452U  9302U
              9309M  9340   9341M  9352U 12257U 12264M 12293  12294M 12305U 12502U 12509M 12532  12533M 12544U 12660U
             12667M 12690  12691M 12702U 13257U 13264M 13294  13295M 13306U 13472U 13479M 13506  13507M 13518U 13706U
             13713M 13740  13741M 13752U 13862U 13869M 13960  13961M 13972U 19827U 19834M 19928  19929M 19940U 20468U
             20475M 20522  20523M 20534U 20619  21316M 21336U 21343M 21371  21372M 21383U 21609U 21616M 21643  21644M
             21655U 21976U 21983M 22015  22016M 22027U 22252U 22259M 22289  22290M 22301U 22779U 22786M 22881  22882M
             22893U 24167U 24174M 24222  24223M 24234U 24490U 24497M 24524  24525M 24536U 24950U 24957M 24985  24986M
             24997U 26953U 26960M 26994  26995M 27006U 27311U 27318M 27500  27502M 27513U 27945U 27953M 28122  28124M
             28135U 30269U 30277M 30471  30473M 30484U 31339U 31347M 31396  31397M 31408U 31453U 31460M 31478  31479M
             31490U 31536U 31543M 31561  31562M 31573U 31618U 31625M 31643  31644M 31655U 31701U 31708M 31726  31727M
             31738U 31783U 31790M 31808  31809M 31820U 31866U 31873M 31891  31892M 31903U 31948U 31955M 31973  31974M
             31985U 32031U 32038M 32056  32057M 32068U 32113U 32120M 32138  32139M 32150U 32196U 32203M 32221  32222M
             32233U 32279U 32286M 32304  32305M 32316U 32577U 32584M 32602  32603M 32614U 32657U 32664M 32682  32683M
             32694U 32737U 32744M 32762  32763M 32774U 32817U 32824M 32842  32843M 32854U 32897U 32904M 32922  32923M
             32934U 32977U 32984M 33002  33003M 33014U 33057U 33064M 33082  33083M 33094U 33137U 33144M 33162  33163M
             33174U 33242U 33249M 33267  33268M 33279U 33347U 33354M 33372  33373M 33384U 33436U 33443M 33461  33462M
             33473U 33595U 33602M 36128  36129M 36140U 36367U 36374M 36427  36429M 36440U 36702U 36710M 36738  36739M
1         (SIFT2047) (12:37) (15MAR04) General Purpose Register Cross Reference                                             Page  242
             36750U 37104U 37111M 37140  37141M 37152U 37528U 37535M 37565  37566M 37577U 37680U 37687M 37716  37717M
             37728U 37903U 37910M 37975  37976M 37987U 38035U 38042M 38073  38074M 38085U 38225U 38232M
     9(9)      953U  6317   6445M  6556   6768M  6793   6970M  6995   7428M  7443U  7457M  7458M  7458   7737U  7898M
              8019   8395M  8440   9309M  9340   9366M  9375U  9400  12252U 12264M 12293  12327U 12497U 12509M 12532
             12566U 12655U 12667M 12690  12724U 13252U 13264M 13294  13328U 13467U 13479M 13506  13540U 13701U 13713M
             13740  13869M 13960  13994U 14271  14304U 14353  16034U 18567  18595  18673U 18788U 18865U 18942U 19822U
             19834M 19928  19954M 19963U 20463U 20475M 20522  20549M 20558U 20575M 20576M 20576  20619  21316M 21331U
             21343M 21371  21397M 21406U 21604U 21616M 21643  21669M 21678U 21971U 21983M 22015  22041M 22050U 22247U
             22259M 22289  22315M 22324U 22774U 22786M 22881  22907M 22916U 23960M 23960  24162U 24174M 24222  24248M
             24257U 24485U 24497M 24524  24550M 24559U 24945U 24957M 24985  25011M 25020U 25038  26948U 26960M 26994
             27318M 27500  27544U 27935U 27953M 28122  28166U 30259U 30277M 30471  30515U 31329U 31347M 31396  31430U
             31448U 31460M 31478  31512U 31531U 31543M 31561  31595U 31613U 31625M 31643  31677U 31696U 31708M 31726
             31760U 31778U 31790M 31808  31842U 31861U 31873M 31891  31925U 31943U 31955M 31973  32007U 32026U 32038M
             32056  32090U 32108U 32120M 32138  32172U 32191U 32203M 32221  32255U 32274U 32286M 32304  32338U 32572U
             32584M 32602  32636U 32652U 32664M 32682  32716U 32732U 32744M 32762  32796U 32812U 32824M 32842  32876U
             32892U 32904M 32922  32956U 32972U 32984M 33002  33036U 33052U 33064M 33082  33116U 33132U 33144M 33162
             33196U 33237U 33249M 33267  33301U 33342U 33354M 33372  33406U 33431U 33443M 33461  33495U 33590U 33602M
             36128  36162U 36362U 36374M 36427  36710M 36738  36772U 37099U 37111M 37140  37174U 37523U 37535M 37565
             37687M 37716  37742M 37751U 37898U 37910M 37975  38001M 38010U 38030U 38042M 38073  38232M
    10(A)      949U  6317   6445M  6556   6700M  6709U  6732U  6768M  6793   6970M  6995   7518M  7527U  7551U  7584M
              7593U  7637U  7898M  8019   8395M  8440   8527M  8536U  8554   9292U  9309M  9340   9379M  9388U  9942
             12247U 12264M 12293  12336U 12492U 12509M 12532  12575U 12650U 12667M 12690  12733U 13247U 13264M 13294
             13337U 13462U 13479M 13506  13549U 13696U 13713M 13740  13783U 13852U 13869M 13960  14003U 19817U 19834M
             19928  20475M 20522  20619  21050M 21059U 21309U 21316M 21343M 21371  21616M 21643  21682M 21691U 21966U
             21983M 22015  22054M 22063U 22213  22242U 22259M 22289  22328M 22337U 22496  22650  22742  22769U 22786M
             22881  22920M 22929U 23176  23821U 23861U 24157U 24174M 24222  24261M 24270U 24480U 24497M 24524  24563M
             24572U 24940U 24957M 24985  25024M 25033U 25556  25708  25768M 26153  26486  26943U 26960M 26994  27318M
             27500  27953M 28122  30277M 30471  31347M 31396  31460M 31478  31543M 31561  31625M 31643  31708M 31726
             31790M 31808  31873M 31891  31955M 31973  32038M 32056  32120M 32138  32203M 32221  32286M 32304  32584M
             32602  32664M 32682  32744M 32762  32824M 32842  32904M 32922  32984M 33002  33064M 33082  33144M 33162
             33249M 33267  33354M 33372  33443M 33461  33602M 36128  36374M 36427  36710M 36738  36781U 37094U 37111M
             37140  37535M 37565  37687M 37716  37910M 37975  38042M 38073  38232M
    11(B)      945U  1759B  1760B  6317   6445M  6556   6583M  6598U  6612M  6613M  6613   6672   6741U  6768M  6793
              6826M  6835U  6940   6941   6951   6958U  6970M  6995   7021M  7030U  7075   7100   7250U  7319U  7476
              7657   7702   7790   7886U  7898M  8019   8045M  8062U  8076M  8077M  8077   8191   8377U  8395M  8440
              8474U  8478   8781U  8847U  9113   9137   9244   9297U  9309M  9340   9459M  9468U 10784  10888  10916U
             11013U 11038  11751  11764  11777  11837  12242U 12264M 12293  12509M 12532  12667M 12690  13264M 13294
             13479M 13506  13558U 13691U 13713M 13740  13774U 13840M 13840  13845  13857U 13869M 13960  14012U 17713U
             17837U 19812U 19834M 19928  20475M 20522  20619  21316M 21343M 21371  21616M 21643  21983M 22015  22259M
             22289  22786M 22881  24174M 24222  24497M 24524  24577M 24591M 24592M 24592  24605M 24622U 24780  24816
             24887  24935U 24957M 24985  26589M 26590M 26590  26787U 26802U 26817M 26817  26960M 26994  27028U 27306U
             27318M 27500  27953M 28122  30277M 30471  31347M 31396  31460M 31478  31543M 31561  31625M 31643  31708M
             31726  31790M 31808  31873M 31891  31955M 31973  32038M 32056  32120M 32138  32203M 32221  32286M 32304
             32584M 32602  32664M 32682  32744M 32762  32824M 32842  32904M 32922  32984M 33002  33064M 33082  33144M
             33162  33249M 33267  33354M 33372  33443M 33461  33602M 36128  36374M 36427  36710M 36738  37111M 37140
             37535M 37565  37687M 37716  37910M 37975  38042M 38073  38099M 38108U 38134  38220U 38232M
    12(C)      941U  2583U
    13(D)      937U  6314   6317   6333M  6335   6335   6336   6336   6337   6442M  6442   6445   6447   6449   6449
              6553   6556   6572M  6574   6574   6575   6575   6576   6765M  6765   6768   6770   6772   6772   6790
              6793   6809M  6811   6811   6812   6812   6813   6967M  6967   6970   6972   6974   6974   6992   6995
              7011M  7013   7013   7014   7014   7015   7895M  7895   7898   7900   7902   7902   8016   8019   8035M
              8037   8037   8038   8038   8039   8392M  8392   8395   8397   8399   8399   8437   8440   8456M  8458
              8458   8459   8459   8460   8581   8866M  8868   8868   8869   8869   8870   9033M  9033   9036   9036
              9059M  9059   9062   9062   9306M  9306   9309   9311   9313   9313   9337   9340   9356M  9358   9358
              9359   9359   9360  12261M 12261  12264  12266  12268  12268  12290  12293  12309M 12311  12311  12312
             12312  12313  12506M 12506  12509  12511  12513  12513  12529  12532  12548M 12550  12550  12551  12551
             12552  12664M 12664  12667  12669  12671  12671  12687  12690  12706M 12708  12708  12709  12709  12710
             13261M 13261  13264  13266  13268  13268  13291  13294  13310M 13312  13312  13313  13313  13314  13476M
             13476  13479  13481  13483  13483  13503  13506  13522M 13524  13524  13525  13525  13526  13710M 13710
1         (SIFT2047) (12:37) (15MAR04) General Purpose Register Cross Reference                                             Page  243
             13713  13715  13717  13717  13737  13740  13756M 13758  13758  13759  13759  13760  13866M 13866  13869
             13871  13873  13873  13957  13960  13976M 13978  13978  13979  13979  13980  15951  19831M 19831  19834
             19836  19838  19838  19925  19928  19944M 19946  19946  19947  19947  19948  20472M 20472  20475  20477
             20479  20479  20519  20522  20538M 20540  20540  20541  20541  20542  20616  20619  20620M 20622  20622
             20623  20623  20624  21072M 21074  21074  21075  21075  21076  21282M 21282  21285  21285  21313M 21313
             21316  21318  21320  21320  21340M 21340  21343  21345  21347  21347  21368  21371  21387M 21389  21389
             21390  21390  21391  21613M 21613  21616  21618  21620  21620  21640  21643  21659M 21661  21661  21662
             21662  21663  21763M 21765  21765  21766  21766  21767  21956M 21956  21959  21959  21980M 21980  21983
             21985  21987  21987  22012  22015  22031M 22033  22033  22034  22034  22035  22256M 22256  22259  22261
             22263  22263  22286  22289  22305M 22307  22307  22308  22308  22309  22783M 22783  22786  22788  22790
             22790  22878  22881  22897M 22899  22899  22900  22900  22901  23766  23767M 23769  23769  23770  23770
             23789  23790M 23792  23792  23793  23793  23800M 23800  23802  23804  23804  23871M 23871  23874  23876
             23876  24171M 24171  24174  24176  24178  24178  24219  24222  24238M 24240  24240  24241  24241  24242
             24494M 24494  24497  24499  24501  24501  24521  24524  24540M 24542  24542  24543  24543  24544  24954M
             24954  24957  24959  24961  24961  24982  24985  25001M 25003  25003  25004  25004  25005  26957M 26957
             26960  26962  26964  26964  26991  26994  27010M 27012  27012  27013  27013  27014  27141  27315M 27315
             27318  27320  27322  27322  27497  27500  27517M 27519  27519  27520  27520  27521  27532U 27940U 27949M
             27949  27953  27955  27957  27957  28119  28122  28139M 28141  28141  28142  28142  28143  28154U 30264U
             30273M 30273  30277  30279  30281  30281  30468  30471  30488M 30490  30490  30491  30491  30492  30503U
             31334U 31343M 31343  31347  31349  31351  31351  31393  31396  31412M 31414  31414  31415  31415  31416
             31457M 31457  31460  31462  31464  31464  31475  31478  31494M 31496  31496  31497  31497  31498  31540M
             31540  31543  31545  31547  31547  31558  31561  31577M 31579  31579  31580  31580  31581  31622M 31622
             31625  31627  31629  31629  31640  31643  31659M 31661  31661  31662  31662  31663  31705M 31705  31708
             31710  31712  31712  31723  31726  31742M 31744  31744  31745  31745  31746  31787M 31787  31790  31792
             31794  31794  31805  31808  31824M 31826  31826  31827  31827  31828  31870M 31870  31873  31875  31877
             31877  31888  31891  31907M 31909  31909  31910  31910  31911  31952M 31952  31955  31957  31959  31959
             31970  31973  31989M 31991  31991  31992  31992  31993  32035M 32035  32038  32040  32042  32042  32053
             32056  32072M 32074  32074  32075  32075  32076  32117M 32117  32120  32122  32124  32124  32135  32138
             32154M 32156  32156  32157  32157  32158  32200M 32200  32203  32205  32207  32207  32218  32221  32237M
             32239  32239  32240  32240  32241  32283M 32283  32286  32288  32290  32290  32301  32304  32320M 32322
             32322  32323  32323  32324  32581M 32581  32584  32586  32588  32588  32599  32602  32618M 32620  32620
             32621  32621  32622  32661M 32661  32664  32666  32668  32668  32679  32682  32698M 32700  32700  32701
             32701  32702  32741M 32741  32744  32746  32748  32748  32759  32762  32778M 32780  32780  32781  32781
             32782  32821M 32821  32824  32826  32828  32828  32839  32842  32858M 32860  32860  32861  32861  32862
             32901M 32901  32904  32906  32908  32908  32919  32922  32938M 32940  32940  32941  32941  32942  32981M
             32981  32984  32986  32988  32988  32999  33002  33018M 33020  33020  33021  33021  33022  33061M 33061
             33064  33066  33068  33068  33079  33082  33098M 33100  33100  33101  33101  33102  33141M 33141  33144
             33146  33148  33148  33159  33162  33178M 33180  33180  33181  33181  33182  33246M 33246  33249  33251
             33253  33253  33264  33267  33283M 33285  33285  33286  33286  33287  33351M 33351  33354  33356  33358
             33358  33369  33372  33388M 33390  33390  33391  33391  33392  33440M 33440  33443  33445  33447  33447
             33458  33461  33477M 33479  33479  33480  33480  33481  33517  33518M 33520  33520  33521  33521  33538M
             33538  33541  33543  33543  33599M 33599  33602  33604  33606  33606  36125  36128  36144M 36146  36146
             36147  36147  36148  36371M 36371  36374  36376  36378  36378  36424  36427  36444M 36446  36446  36447
             36447  36448  36459U 36697U 36706M 36706  36710  36712  36714  36714  36735  36738  36754M 36756  36756
             36757  36757  36758  36860  36861M 36863  36863  36864  36864  36871M 36871  36873  36875  36875  37108M
             37108  37111  37113  37115  37115  37137  37140  37156M 37158  37158  37159  37159  37160  37532M 37532
             37535  37537  37539  37539  37562  37565  37581M 37583  37583  37584  37584  37585  37684M 37684  37687
             37689  37691  37691  37713  37716  37732M 37734  37734  37735  37735  37736  37907M 37907  37910  37912
             37914  37914  37972  37975  37991M 37993  37993  37994  37994  37995  38039M 38039  38042  38044  38046
             38046  38070  38073  38089M 38091  38091  38092  38092  38093  38229M 38229  38232  38234  38236  38236
    14(E)      933U  3011B  3021B  6314   6345M  6346M  6346B  6424M  6425M  6425B  6447M  6451B  6553   6725M  6726M
              6726B  6770M  6774B  6790   6821   6824M  6825M  6825B  6972M  6976B  6992   7406M  7407M  7407B  7544M
              7545M  7545B  7610M  7611M  7611B  7861M  7862M  7862B  7873M  7874M  7874B  7900M  7904B  8016   8166M
              8167M  8167B  8194M  8195M  8195B  8290M  8291M  8291B  8296M  8297M  8297B  8365M  8366M  8366B  8397M
              8401B  8437   8640M  8716M  8742M  8826M  9038M  9066M  9067M  9067B  9085M  9086M  9086B  9188M  9213M
              9251M  9267M  9311M  9315B  9337   9449M  9619M  9620M  9620B  9624M  9625M  9625B  9810M  9811M  9811B
              9868M  9892M  9923M  9924M  9924B  9931M  9944M  9986M 10147M 10161M 10328M 10342M 10350M 10362M 11044M
             11045M 11045B 11148M 11149M 11149B 11288M 11289M 11289B 11317M 11318M 11318B 11333M 11334M 11334B 11377M
             11378M 11378B 11404M 11405M 11405B 11568M 11569M 11569B 11598M 11599M 11599B 11662M 11663M 11663B 11677M
1         (SIFT2047) (12:37) (15MAR04) General Purpose Register Cross Reference                                             Page  244
             11709M 11767M 11915M 12050M 12051M 12051B 12064M 12065M 12065B 12079M 12103M 12104M 12104B 12132M 12133M
             12133B 12202M 12203M 12203B 12218M 12266M 12270B 12290  12409M 12423M 12511M 12515B 12529  12669M 12673B
             12687  13000M 13001M 13001B 13231M 13232M 13232B 13266M 13270B 13291  13446M 13447M 13447B 13481M 13485B
             13503  13664M 13665M 13665B 13715M 13719B 13737  13824M 13825M 13835M 13836M 13836B 13871M 13875B 13957
             14102M 14103M 14103B 14137M 14138M 14138B 14247M 14248M 14248B 14393M 14394M 14394B 15067M 15068M 15068B
             16013M 16014M 16014B 16113M 16114M 16114B 16165M 16166M 16166B 17584D 17586M 17586  17587M 17588U 17634
             17644M 17644  17649M 17652M 17652N 17653M 17653  17655M 17655B 18261M 18262M 18262B 18370M 18371M 18371B
             18488M 18489M 18489B 18508M 18509M 18509B 18601M 18602M 18602B 18759M 18760M 18760B 18776M 18777M 18777B
             18930M 18931M 18931B 19655D 19657M 19657  19658M 19659U 19705  19715M 19715  19720M 19723M 19723N 19724M
             19724  19726M 19726B 19769M 19770M 19770B 19802M 19803M 19803B 19836M 19840B 19925  20028M 20029M 20029B
             20036M 20037M 20037B 20086D 20088M 20088  20089M 20090U 20110  20120M 20120  20125M 20129M 20129N 20130M
             20130  20143M 20143B 20477M 20481B 20519  20583M 20598M 20599M 20599B 20616  21037M 21038M 21038B 21118M
             21119M 21119B 21135M 21136M 21136B 21168M 21169M 21169B 21202M 21203M 21203B 21226M 21227M 21227B 21243M
             21244M 21244B 21265M 21266M 21266B 21291M 21292M 21292B 21318M 21322B 21345M 21349B 21368  21597M 21618M
             21622B 21640  21850M 21851M 21851B 21917M 21918M 21918B 21947M 21948M 21948B 21985M 21989B 22012  22182
             22185M 22186M 22186B 22202M 22215M 22230M 22261M 22265B 22286  22471  22474M 22475M 22475B 22484M 22498M
             22600M 22601M 22601B 22650M 22663M 22695M 22696M 22696B 22705M 22706M 22706B 22742M 22756M 22760M 22761M
             22761B 22788M 22792B 22878  23154  23157M 23158M 23158B 23165M 23178M 23396  23399M 23400M 23400B 23411M
             23424M 23527  23530M 23531M 23531B 23543M 23556M 23725M 23726M 23726B 23797M 23798M 23798B 23839M 23851M
             23900M 23913M 23953M 23954M 23954B 24014M 24015M 24015B 24072D 24074M 24074  24075M 24076U 24096  24106M
             24106  24111M 24114M 24114N 24115M 24115  24138M 24138B 24176M 24180B 24219  24278M 24279M 24279B 24472M
             24473M 24473B 24499M 24503B 24521  24921M 24922M 24922B 24927M 24928M 24928B 24959M 24963B 24982  25476M
             25477M 25477B 25508M 25509M 25509B 25556M 25567M 25571M 25572M 25572B 25588M 25589M 25589B 25635M 25636M
             25636B 25708M 25719M 25723M 25724M 25724B 25736M 25737M 25737B 25785M 25786M 25786B 25941M 25942M 25942B
             26004M 26016M 26131  26134M 26135M 26135B 26142M 26155M 26435M 26436M 26436B 26486M 26497M 26508M 26509M
             26509B 26518M 26519M 26519B 26580M 26581M 26581B 26753M 26754M 26754B 26794M 26795M 26795B 26865M 26866M
             26866B 26911M 26912M 26912B 26927M 26928M 26928B 26962M 26966B 26991  27208  27211M 27212M 27212B 27228M
             27240M 27320M 27324B 27497  27578M 27579M 27579B 27622M 27623M 27623B 27789M 27790M 27790B 27837M 27838M
             27838B 27842M 27843M 27843B 27876M 27877M 27877B 27913M 27914M 27914B 27955M 27959B 28119  28207M 28208M
             28208B 28251M 28252M 28252B 28282M 28283M 28283B 28326M 28327M 28327B 28397M 28398M 28398B 28447M 28448M
             28448B 28548M 28549M 28549B 28693M 28694M 28694B 28815M 28816M 28816  28829M 28829B 28988M 28989M 28989B
             29016M 29017M 29017B 29108M 29109M 29109B 29210M 29211M 29211B 29285M 29286M 29286B 29326M 29327M 29327B
             29359M 29360M 29360B 29387M 29388M 29388B 29459M 29460M 29460B 29607M 29608M 29608B 29880M 29881M 29881B
             29901M 29902M 29903  29955M 29956M 29956B 29994M 29995M 29995B 30026M 30027M 30027B 30164M 30165M 30165B
             30243M 30244M 30244B 30279M 30283B 30468  30955M 30956M 30956B 30977M 30978M 30978B 30992M 30993M 30993B
             31027M 31028M 31028B 31052M 31053M 31053B 31067M 31068M 31068B 31077M 31078M 31078  31091M 31091B 31173M
             31174M 31174B 31209M 31210M 31210B 31234M 31235M 31235B 31259M 31260M 31260B 31312M 31313M 31313B 31349M
             31353B 31393  31441M 31462M 31466B 31475  31524M 31545M 31549B 31558  31606M 31627M 31631B 31640  31689M
             31710M 31714B 31723  31771M 31792M 31796B 31805  31854M 31875M 31879B 31888  31936M 31957M 31961B 31970
             32019M 32040M 32044B 32053  32101M 32122M 32126B 32135  32184M 32205M 32209B 32218  32267M 32288M 32292B
             32301  32370M 32371M 32371B 32401M 32402M 32402B 32432M 32433M 32433B 32467M 32468M 32468B 32502M 32503M
             32503B 32537M 32538M 32538B 32560M 32561M 32561B 32586M 32590B 32599  32645M 32666M 32670B 32679  32725M
             32746M 32750B 32759  32805M 32826M 32830B 32839  32885M 32906M 32910B 32919  32965M 32986M 32990B 32999
             33045M 33066M 33070B 33079  33125M 33146M 33150B 33159  33213M 33214M 33214B 33228M 33229M 33229B 33251M
             33255B 33264  33318M 33319M 33319B 33333M 33334M 33334B 33356M 33360B 33369  33423M 33424M 33424B 33445M
             33449B 33458  33535M 33536M 33536B 33563M 33564M 33564B 33578M 33579M 33579B 33604M 33608B 36125  36376M
             36380B 36424  36599M 36601M 36712M 36716B 36735  36865  36868M 36869M 36869B 36900M 36901M 36901B 36926M
             36938M 37062M 37113M 37117B 37137  37496M 37497M 37497B 37537M 37541B 37562  37689M 37693B 37713  37912M
             37916B 37972  38018M 38019M 38019B 38044M 38048B 38070  38203M 38204M 38204B 38234M 38238B
    15(F)      929U  2221M  2221   3009M  3010M  3010   3012   3017M  3020M  3020   6361M  6362   6450M  6450   6514U
              6536U  6722M  6751M  6751   6773M  6773   6850M  6851M  6852   6853   6891M  6891   6910M  6910   6924M
              6934U  6948U  6975M  6975   7126M  7148   7165M  7165   7180M  7180   7298M  7301   7304M  7541M  7607M
              7729M  7730M  7731   7743M  7759U  7763   7774M  7775M  7775   7790   7804U  7879M  7879   7903M  7903
              8138M  8139   8140M  8142   8157M  8158   8161M  8241M  8242   8243M  8245   8260M  8261   8264M  8287M
              8292   8400M  8400   8501M  8502   8503M  8505   8520M  8521   8524M  8554M  8555   8571M  8591M  8591
              8612   8626   8665M  8668   8671M  8676M  8677M  8678   8878M  8879   8889M  8909M  8909   8935M  8945M
              8945   8995M  9005M  9005   9082M  9168M  9180   9194M  9198N  9265M  9270M  9277M  9277   9314M  9314
              9379   9935M  9943   9944M 10152M 10160  10161M 10333M 10341  10342M 10355M 10361  10362M 10371M 10372M
             10373  10383M 10384M 10385  10815M 10816M 10816  10837U 10850U 11041M 11122M 11123M 11136M 11141M 11142M
1         (SIFT2047) (12:37) (15MAR04) General Purpose Register Cross Reference                                             Page  245
             11143M 11144  11285M 11314M 11330M 11355M 11355  11374M 11464M 11484M 11524M 11543M 11659M 11895M 11896M
             11897  12061M 12129M 12199M 12212D 12214M 12214  12215M 12216U 12220M 12227M 12227  12269M 12269  12414M
             12422  12423M 12485M 12485  12514M 12514  12643M 12643  12672M 12672  12834M 12843M 12843  12850M 12895
             12897M 12898  12899  12997M 13005M 13005  13211M 13212M 13220  13223M 13224  13228M 13237M 13237  13269M
             13269  13443M 13455M 13455  13484M 13484  13661M 13666M 13684M 13684  13718M 13718  13729M 13729  13800M
             13800  13874M 13874  14019D 14021M 14021  14022M 14023U 14053  14088  14095M 14100M 14101M 14102N 14121
             14131M 14131  14136M 14137N 14211M 14211  14214M 14217M 14220M 14224  14227M 14228M 14229  14244M 14454
             14463M 14464M 14507M 14508M 14524M 14533M 14533  14540  14603M 14615  14624M 14625M 15091M 15091  15108
             15397M 15398M 15398  15419U 15448U 15642M 15642  15674M 15691M 15691  15699  15711M 15720M 15729M 15729
             15736  15820M 15825M 15834M 15834  15841  15861  15902M 15931  15943M 15949M 15960  16010M 16015M 16016
             16039M 16053  16067  16110M 16115M 16116  16127M 16136M 16136  16143  16301M 16334M 16374  16390M 16410M
             16430M 16430  16447  16461M 16461  16466  16488M 16644M 16644  16676M 16693M 16693  16701  16713M 16722M
             16731M 16731  16738  16902M 16903M 16942M 16943  16979M 16989U 17002U 17067M 17077U 17090U 17108D 17110M
             17110  17111M 17112U 17113  17142D 17144M 17144  17145M 17146U 17186  17334M 17337  17349M 17358M 17367M
             17367  17374  17416  17467M 17468  17622M 17816M 17817  17928M 17939M 17939  17953  17966M 17975M 17975
             17982  18094M 18106  18115M 18127  18152M 18153  18515M 18516M 18517  18518  18520M 18536U 18540  18551M
             18552M 18552  18567  18581U 18598M 18603M 18604  18631M 18643  18652M 18653M 18690M 18691M 18691  18708
             18756M 18761M 18762  18823M 18835  18844M 18845M 18882M 18883M 18883  18900  18923M 18924M 18925  19023D
             19025M 19025  19026M 19027U 19067  19105  19118D 19120M 19120  19121M 19122U 19134  19143M 19147N 19163D
             19165M 19165  19166M 19167U 19169M 19181  19195M 19196M 19199  19211M 19219M 19228M 19228  19235  19257M
             19258M 19259  19295M 19305U 19318U 19350D 19352M 19352  19353M 19354U 19394  19432  19445D 19447M 19447
             19448M 19449U 19451M 19463  19477M 19478M 19481  19493M 19501M 19510M 19510  19517  19539M 19540M 19541
             19693M 19839M 19839  20068M 20078U 20097U 20480M 20480  20595M 20633M 20634M 20635  20701M 20711U 20717M
             20724U 20734M 20734  20768U 20784U 21031M 21032M 21033  21115M 21132M 21165M 21199M 21204M 21206M 21211
             21223M 21240M 21262M 21269M 21270  21271M 21272  21288M 21321M 21321  21348M 21348  21568M 21569M 21570
             21573M 21574M 21575  21621M 21621  21725M 21726M 21727  21847M 21914M 21944M 21988M 21988  22054  22095M
             22206M 22214  22215M 22220M 22221M 22222  22223M 22228M 22235M 22235  22264M 22264  22361M 22388M 22413M
             22438M 22489M 22497  22498M 22597M 22607M 22633M 22654M 22662  22663M 22664M 22665  22674M 22674  22681M
             22682  22689M 22690M 22691  22702M 22730M 22730  22734  22747M 22755  22756M 22762M 22791M 22791  22920
             22956M 22956  23043M 23169M 23177  23178M 23415M 23423  23424M 23547M 23555  23556M 23562M 23571M 23571
             23578M 23623  23625M 23626  23627  23636M 23637M 23653M 23653  23661  23663  23844M 23850  23851M 23904M
             23912  23913M 23958M 23958  24011M 24019M 24019  24029M 24150M 24150  24179M 24179  24261  24469M 24502M
             24502  24563  24749M 24757  24760M 24761  24788M 24788  24846M 24846  24853M 24874M 24874  24891M 24892M
             24893  24905  24912  24924M 24962M 24962  25024  25444M 25445M 25446  25560M 25566  25567M 25585M 25712M
             25718  25719M 25733M 25782M 25853M 25854M 25855  25947  25966  25989  25991M 25992M 25993  25994M 25995M
             25996  26009M 26015  26016M 26125M 26126M 26127  26146M 26154  26155M 26231M 26232M 26259M 26259  26328M
             26328  26358M 26367M 26367  26428M 26429M 26430  26432M 26490M 26496  26497M 26515M 26735M 26791M 26862M
             26908M 26924M 26965M 26965  27059  27131M 27151M 27151  27172  27200M 27201M 27202  27233M 27239  27240M
             27243M 27244M 27244  27257  27263M 27283  27299M 27323M 27323  27603U 27609M 27616U 27689M 27703  27711M
             27726M 27726  27734M 27736  27786M 27834M 27910M 27928M 27958M 27958  28232U 28238M 28245U 28279M 28323M
             28394M 28444M 28497M 28498  28499M 28500  28545M 28572M 28606  28608M 28619  28631M 28636N 28643M 28645
             28690M 28732M 28733M 28733  28749M 28759  28778M 28779M 28780  28848M 28848  28985M 29013M 29053M 29054
             29055M 29056  29105M 29145M 29146M 29147  29174  29183M 29207M 29232M 29233  29282M 29323M 29330M 29331M
             29332  29356M 29384M 29456M 29469M 29470M 29471  29537  29546M 29551M 29554  29566M 29579M 29579  29604M
             29612M 29613M 29614  29620N 29624M 29626  29877M 29900M 29901M 29903M 29904  29952M 29991M 30000M 30001M
             30002  30023M 30028M 30029M 30030  30161M 30185D 30187M 30187  30188M 30189U 30198M 30198  30240M 30248M
             30249M 30250  30282M 30282  30528  30699D 30701M 30701  30702M 30703U 30706  30718M 30727M 30736M 30736
             30743  30762M 30952M 30974M 30989M 31024M 31049M 31064M 31170M 31206M 31231M 31256M 31264M 31265M 31266
             31278D 31280M 31280  31281M 31282U 31283  31309M 31352M 31352  31465M 31465  31548M 31548  31630M 31630
             31713M 31713  31795M 31795  31878M 31878  31960M 31960  32043M 32043  32125M 32125  32208M 32208  32291M
             32291  32367M 32398M 32429M 32464M 32499M 32534M 32557M 32589M 32589  32669M 32669  32749M 32749  32829M
             32829  32909M 32909  32989M 32989  33069M 33069  33149M 33149  33210M 33225M 33254M 33254  33315M 33330M
             33359M 33359  33420M 33448M 33448  33532M 33560M 33575M 33607M 33607  36337M 36338M 36338  36351M 36379M
             36379  36470  36491M 36494  36506M 36511N 36518M 36520  36591M 36592M 36593  36595M 36596M 36598  36600M
             36601M 36616M 36617M 36619  36690M 36715M 36715  36811  36906M 36907M 36908  36909  36931M 36937  36938M
             37013M 37014M 37015  37060M 37116M 37116  37224M 37224  37501M 37502M 37503  37515M 37516M 37516  37540M
             37540  37634  37640M 37655M 37668M 37692M 37692  37756  37845M 37885M 37915M 37915  38023M 38023  38047M
             38047  38122M 38149M 38150M 38151  38163  38176M 38179  38182M 38213M 38213  38237M 38237

1SIFT     (SIFT2047) (12:37) (15MAR04) Diagnostic Cross Reference and Assembler Summary                                     Page  246
-                                                                                            HLASM R4.0  2004/03/15 12.37
0     No Statements Flagged in this Assembly
 HIGH LEVEL ASSEMBLER, 5696-234, RELEASE 4.0, PTF UQ57391
0SYSTEM: OS/390 02.10.00            JOBNAME: MIL#SIFT    STEPNAME: ASM        PROCSTEP: (NOPROC)
0Datasets Allocated for this Assembly
  Con DDname   Dataset Name                                 Volume  Member
   P1 SYSIN    WYL.GS.MIL.MILTEN.SOURCE                     SYSB05  SIFT
   L1 SYSLIB   WYL.GS.MIL.MILTEN.MACLIB                     SYSB05
   L2          WYL.GG.SYS.MACLIB                            SYSB05
   L3          SYS3.IS.MACLIB                               SYSB05
   L4          SYS3.MACLIB                                  SYSB02
   L5          SYS1.MACLIB                                  MVSBR9
   L6          SYS1.MODGEN                                  MVSBR9
      SYSPRINT SYS04075.T123704.RA000.MIL#SIFT.PRINT.H01    SCR100
      SYSTERM  GG$SLP.MIL#SIFT.JOB03427.D0000101.?

    3776K allocated to Buffer Pool,         5457K would be required for this to be an In-Storage Assembly
    4571 Primary Input Records Read        13650 Library Records Read                398 Work File Reads
       0 ASMAOPT Records Read              22541 Primary Print Records Written       424 Work File Writes
       0 Punch Records Written                 0 ADATA Records Written
0Assembly Start Time: 12.37.06 Stop Time: 12.37.27 Processor Time: 00.00.07.7672
 Return Code 000
