1                        J E S 2  J O B  L O G  --  S Y S T E M  S Y S B  --  N O D E  R L G
0
 12.36.10 JOB03418 ---- MONDAY,    15 MAR 2004 ----
 12.36.10 JOB03418  ICH70001I GG$SLP   LAST ACCESS AT 12:36:04 ON MONDAY, MARCH 15, 2004
 12.36.10 JOB03418  $HASP373 MIL#MCOM STARTED - INIT 6    - CLASS B - SYS SYSB
 12.36.10 JOB03418  ***  HCMD      STEP $$QUIET
 12.36.10 JOB03418  PUR * Q OUT MUL
 12.36.10 JOB03418  JOB 5463 MIL#MCOM WILL BE PURGED
 12.36.11 JOB03418  MIL#MCOM.$$QUIET .         RC=Zero TapeIO=0000 DiskIO=0000 CPU=  .01s Elapsed=70.72s
 12.36.19 JOB03418  MIL#MCOM.ASM     .         RC=Zero TapeIO=0000 DiskIO=0419 CPU= 2.46s Elapsed=71.84s
 12.36.20 JOB03418  MIL#MCOM.EDIT    .         RC=Zero TapeIO=0000 DiskIO=0131 CPU=  .41s Elapsed=79.96s
 12.36.20 JOB03418  MIL#MCOM Ended.  Name=Assemble MCOM                  Total CPU= 2.88s Elapsed=70.72s
 12.36.20 JOB03418
 12.36.20 JOB03418  Execution charges   Priority=Standard   Block=Day
 12.36.20 JOB03418
 12.36.20 JOB03418  CPU Usage          53.06          $32.89   Standard Processing Unit Equivalent
 12.36.21 JOB03418                                   =======
 12.36.21 JOB03418                                    $32.89   Total Job execution charge
 12.36.21 JOB03418
 12.36.21 JOB03418  See back separator page for print charges
 12.36.21 JOB03418
 12.36.21 JOB03418  $HASP395 MIL#MCOM ENDED  ASM=0, EDIT=0
1        1 //MIL#MCOM JOB SLP$GG,'Assemble MCOM',TIME=4,REGION=4M                  JOB03418
           //*
           /*JOBPARM LINES=99,COPIES=1
           /*JOBPARM FORMS=3HOL,PFORMAT=LAND,CHARS=BD13,DUPLEX=YES,FLASH=BAR4
           //*
           /*JOBPARM NOTIFY=GG.SLP,HOLD=OUTPUT                                     WYLGEN
         2 //$$QUIET EXEC PGM=HCMDX,PARM='PUR * Q OUT MUL'
           //*
         3 //ASM    EXEC PGM=ASMA90,REGION=8M,
           //            PARM=('NORENT,TERM,FLAG(NOCONT),US(MAP,WARN(10)),NODECK',
           //            'LC(32767),XREF(SHORT),ESD,DXREF,NOOBJECT')
           //*STEPLIB  DD DSN=SYS1.SASMMOD1,DISP=SHR
         4 //SYSLIB   DD  DSN=WYL.GS.MIL.MILTEN.MACLIB,DISP=SHR
         5 //         DD  DSN=WYL.GG.SYS.MACLIB,DISP=SHR
         6 //         DD  DSN=SYS3.IS.MACLIB,DISP=SHR
         7 //         DD  DSN=SYS3.MACLIB,DISP=SHR
         8 //         DD  DSN=SYS1.MACLIB,DISP=SHR
         9 //         DD  DSN=SYS1.MODGEN,DISP=SHR
        10 //SYSUT1   DD DSN=&&SYSUT1,UNIT=VIO,DISP=(,DELETE),
           //            SPACE=(4088,(500,250),,CONTIG,ROUND)
        11 //SYSTERM  DD SYSOUT=T
        12 //SYSPRINT DD DSN=&&PRINT,UNIT=SYSDA,DISP=(,PASS),
           //            SPACE=(6650,(250,250),RLSE),
           //            DCB=(BLKSIZE=6650,LRECL=133,RECFM=FB)
        13 //SYSUDUMP DD SYSOUT=A
        14 //SYSIN    DD  DSN=WYL.GS.MIL.MILTEN.SOURCE(MCOM),DISP=SHR
           //*
        15 //EDIT    EXEC PGM=ASMEDIT,TIME=2,REGION=4000K,
           //             PARM='STMT'
        16 //STEPLIB  DD  DSN=WYL.GG.SYS.LINKLIB,DISP=SHR
        17 //ASMOUT   DD  DSN=&PRINT,DISP=(OLD,DELETE)
        18 //SYSPRINT DD  SYSOUT=A
1 STMT NO. MESSAGE
 -
        10 IGD01010I STORCLAS= TEMP STORGROUP =
        10 IGD01010I STORGRP=VIO ASSIGNED.
        12 IGD01010I STORCLAS= TEMP STORGROUP =
        12 IGD01010I STORGRP=VIO ASSIGNED.
 ICH70001I GG$SLP   LAST ACCESS AT 12:36:04 ON MONDAY, MARCH 15, 2004
 IEF142I MIL#MCOM $$QUIET - STEP WAS EXECUTED - COND CODE 0000
 *********************************************************************************
 *   MIL#MCOM/$$QUIET /                    Return Code      Zero                 *
 *   Region used      260K (16K user + 244K system)                              *
 *   Extended region  9692K (4K user + 9688K system)                             *
 *                                                                               *
 *   Paging              In      Out                                             *
 *   Private <-> Aux      0        0       CPU time (TCB)   00:00:00.01          *
 *   Private <-> Exp      0        0       CPU time (SRB)   00:00:00.00          *
 *   VIO                  0        0       Elapsed time    917:51:42.24          *
 *   Common               0      ---                                             *
 *                                                                               *
 *                                                                               *
 *   CPU Usage          0.18         $0.11  Standard Processing Unit Equivalent  *
 *                                   $0.11  Total Step execution charge          *
 *                                                                               *
 *    I/O count  DDname   Type Addr           I/O count  DDname   Type Addr      *
 *                         *** No I/O for this step ***                          *
 *********************************************************************************
 IEF373I STEP/$$QUIET /START 2004075.1236
 IEF374I STEP/$$QUIET /STOP  2004075.1236 CPU    0MIN 00.01SEC SRB    0MIN 00.00SEC VIRT    16K SYS   244K EXT       4K SYS    9688K
 IEF236I ALLOC. FOR MIL#MCOM ASM
 IEF237I 04DC ALLOCATED TO SYSLIB
 IEF237I 04DC ALLOCATED TO
 IEF237I 04DC ALLOCATED TO
 IEF237I 0402 ALLOCATED TO
 IEF237I 04A0 ALLOCATED TO
 IEF237I 04A0 ALLOCATED TO
 IGD101I SMS ALLOCATED TO DDNAME (SYSUT1  )
         DSN (SYS04075.T123610.RA000.MIL#MCOM.SYSUT1.H01  )
         STORCLAS (TEMP) MGMTCLAS (        ) DATACLAS (        )
         VOL SER NOS= VIO
 IEF237I JES2 ALLOCATED TO SYSTERM
 IGD101I SMS ALLOCATED TO DDNAME (SYSPRINT)
         DSN (SYS04075.T123610.RA000.MIL#MCOM.PRINT.H01   )
         STORCLAS (TEMP) MGMTCLAS (        ) DATACLAS (        )
         VOL SER NOS= SCR101
 IEF237I JES2 ALLOCATED TO SYSUDUMP
 IEF237I 04DC ALLOCATED TO SYSIN
 IEF142I MIL#MCOM ASM - STEP WAS EXECUTED - COND CODE 0000
 IEF285I   WYL.GS.MIL.MILTEN.MACLIB                     KEPT
 IEF285I   VOL SER NOS= SYSB05.
 IEF285I   WYL.GG.SYS.MACLIB                            KEPT
 IEF285I   VOL SER NOS= SYSB05.
 IEF285I   SYS3.IS.MACLIB                               KEPT
 IEF285I   VOL SER NOS= SYSB05.
 IEF285I   SYS3.MACLIB                                  KEPT
 IEF285I   VOL SER NOS= SYSB02.
 IEF285I   SYS1.MACLIB                                  KEPT
 IEF285I   VOL SER NOS= MVSBR9.
 IEF285I   SYS1.MODGEN                                  KEPT
 IEF285I   VOL SER NOS= MVSBR9.
 IGD105I SYS04075.T123610.RA000.MIL#MCOM.SYSUT1.H01   DELETED,   DDNAME=SYSUT1
 IEF285I   GG$SLP.MIL#MCOM.JOB03418.D0000101.?          SYSOUT
 IGD106I SYS04075.T123610.RA000.MIL#MCOM.PRINT.H01    PASSED,    DDNAME=SYSPRINT
 IEF285I   GG$SLP.MIL#MCOM.JOB03418.D0000102.?          SYSOUT
 IEF285I   WYL.GS.MIL.MILTEN.SOURCE                     KEPT
 IEF285I   VOL SER NOS= SYSB05.
 *********************************************************************************
 *   MIL#MCOM/ASM     /                    Return Code      Zero                 *
 *   Region used      4372K (4096K user + 276K system)                           *
 *   Extended region  10284K (412K user + 9872K system)                          *
 *                                                                               *
 *   Paging              In      Out                                             *
 *   Private <-> Aux      0        0       CPU time (TCB)   00:00:02.42          *
 *   Private <-> Exp      0        0       CPU time (SRB)   00:00:00.04          *
 *   VIO                  0        0       Elapsed time    917:51:41.12          *
 *   Common               0      ---                                             *
 *                                                                               *
 *                                                                               *
 *   CPU Usage         45.37        $28.12  Standard Processing Unit Equivalent  *
 *                                  $28.12  Total Step execution charge          *
 *                                                                               *
 *    I/O count  DDname   Type Addr           I/O count  DDname   Type Addr      *
 *          257  SYSLIB   Disk 04DC                   0  SYSLIB   Disk 04DC      *
 *            0  SYSLIB   Disk 04DC                   4  SYSLIB   Disk 0402      *
 *            9  SYSLIB   Disk 04A0                   0  SYSLIB   Disk 04A0      *
 *            0  SYSUT1   VIO  ----                   0  SYSTERM       ----      *
 *          128  SYSPRINT Disk 04E3                   0  SYSUDUMP      ----      *
 *           21  SYSIN    Disk 04DC                                              *
 *********************************************************************************
 IEF373I STEP/ASM     /START 2004075.1236
 IEF374I STEP/ASM     /STOP  2004075.1236 CPU    0MIN 02.42SEC SRB    0MIN 00.04SEC VIRT  4096K SYS   276K EXT     412K SYS    9872K
 IEF236I ALLOC. FOR MIL#MCOM EDIT
 IEF237I 0402 ALLOCATED TO STEPLIB
 IGD103I SMS ALLOCATED TO DDNAME ASMOUT
 IEF237I JES2 ALLOCATED TO SYSPRINT
 IEF142I MIL#MCOM EDIT - STEP WAS EXECUTED - COND CODE 0000
 IEF285I   WYL.GG.SYS.LINKLIB                           KEPT
 IEF285I   VOL SER NOS= SYSB02.
 IGD105I SYS04075.T123610.RA000.MIL#MCOM.PRINT.H01    DELETED,   DDNAME=ASMOUT
 IEF285I   GG$SLP.MIL#MCOM.JOB03418.D0000103.?          SYSOUT
 *********************************************************************************
 *   MIL#MCOM/EDIT    /                    Return Code      Zero                 *
 *   Region used      380K (116K user + 264K system)                             *
 *   Extended region  9816K (4K user + 9812K system)                             *
 *                                                                               *
 *   Paging              In      Out                                             *
 *   Private <-> Aux      0        0       CPU time (TCB)   00:00:00.40          *
 *   Private <-> Exp      0        0       CPU time (SRB)   00:00:00.01          *
 *   VIO                  0        0       Elapsed time    917:51:33.00          *
 *   Common               0      ---                                             *
 *                                                                               *
 *                                                                               *
 *   CPU Usage          7.50         $4.65  Standard Processing Unit Equivalent  *
 *                                   $4.65  Total Step execution charge          *
 *                                                                               *
 *    I/O count  DDname   Type Addr           I/O count  DDname   Type Addr      *
 *            2  STEPLIB  Disk 0402                 129  ASMOUT   Disk 04E3      *
 *            0  SYSPRINT      ----                                              *
 *********************************************************************************
 IEF373I STEP/EDIT    /START 2004075.1236
 IEF374I STEP/EDIT    /STOP  2004075.1236 CPU    0MIN 00.40SEC SRB    0MIN 00.01SEC VIRT   116K SYS   264K EXT       4K SYS    9812K
 *********************************************************************************
 *                                                                               *
 *                      S t a n f o r d   U n i v e r s i t y                    *
 *                                                                               *
 *                              *** Job Summary ***                              *
 *                                                                               *
 *   System Id      SYSB                   Input time     12:35:09  Mar 15, 2004 *
 *                                                                               *
 *   System Release SP6.1.0                Start time     12:36:10  Mar 15, 2004 *
 *                                                                               *
 *   Job name       MIL#MCOM               Stop  time     00:00:00  Mar 15, 2004 *
 *                                                                               *
 *   Account        SLP$GG                 Elapsed time  917:51:42.24            *
 *                                                                               *
 *   User Name      Assemble MCOM          CPU time       00:00:02.83            *
 *                                                                               *
 *   Job class      B                      SRB Time       00:00:00.05            *
 *                                                                               *
 *********************************************************************************
 IEF375I  JOB/MIL#MCOM/START 2004075.1236
 IEF376I  JOB/MIL#MCOM/STOP  2004075.1236 CPU    0MIN 02.83SEC SRB    0MIN 00.05SEC
1Assembler Done MCOM No Statements Flagged
1         High Level Assembler Option Summary                   (PTF UQ57391)                                               Page    1
-                                                                                            HLASM R4.0  2004/03/15 12.36
0  No Overriding ASMAOPT Parameters
   Overriding Parameters-  NORENT,TERM,FLAG(NOCONT),US(MAP,WARN(10)),NODECK,LC(32767),XREF(SHORT),ESD,DXREF,NOOBJECT
   No Process Statements


   Options for this Assembly
0  NOADATA
     ALIGN
   NOASA
     BATCH
     CODEPAGE(047C)
   NOCOMPAT
   NODBCS
 3 NODECK
 3   DXREF
 3   ESD
   NOEXIT
 3   FLAG(0,ALIGN,NOCONT,NOIMPLEN,NOPAGE0,PUSH,RECORD,NOSUBSTR,USING0)
   NOFOLD
   NOGOFF
   NOINFO
     LANGUAGE(EN)
   NOLIBMAC
 3   LINECOUNT(32767)
     LIST(121)
     MXREF(SOURCE)
 3 NOOBJECT
     OPTABLE(UNI,NOLIST)
   NOPCONTROL
   NOPESTOP
   NOPROFILE
   NORA2
 3 NORENT
     RLD
     RXREF
     SIZE(MAX)
     SYSPARM()
 3   TERM(WIDE)
   NOTEST
     THREAD
   NOTRANSLATE
 3   USING(NOLIMIT,MAP,WARN(10))
 3   XREF(SHORT)

   No Overriding DD Names

1MCOM     External Symbol Dictionary                                                                                        Page    2
-Symbol   Type   Id     Address  Length     LD ID  Flags Alias-of                            HLASM R4.0  2004/03/15 12.36
0MILMCOM   SD 00000001 00000000 00001C30             00
 MCOM2047  LD          00000000           00000001
 MCOMINIT  LD          00000018           00000001
 MCOMDO    LD          0000004C           00000001
 PATHINFO  ER 00000002
 PATHREAD  ER 00000003
 SEGWR     ER 00000004
 NGETCORE  ER 00000005
 PATHINIT  ER 00000006
 PATHOPEN  ER 00000007
 SEGINIT   ER 00000008
 PATHSEG   ER 00000009
 SEGINITR  ER 0000000A
 PATHCLS   ER 0000000B
 FREECORE  ER 0000000C
 COMMAND   LD          000003F0           00000001
 CONSCMD   ER 0000000D
 VIRTCMD   ER 0000000E
 ELFCMD    ER 0000000F
 SCINIT    ER 00000010
 SCAN      ER 00000011
 SEGB      ER 00000012
 SETELF    ER 00000013
 SHOWELF   ER 00000014
 SEGTB     ER 00000015
 SEG       ER 00000016
 SEGHX     ER 00000017
 SEGT      ER 00000018
 SEGCR     ER 00000019
 SEGDC     ER 0000001A
 FMTTIME   ER 0000001B
 TOEBCDIC  ER 0000001C
 SEGCCR    ER 0000001D
 BTX       ER 0000001E
 SEGBLANK  ER 0000001F
 ADDRSYM   ER 00000020
 XTB       ER 00000021
 DTB       ER 00000022
 DEQSTR    ER 00000023
 HEXSTR    ER 00000024
 HEXSEG    ER 00000025
 XMONMSG   LD          000015E2           00000001
 XMONHEX   LD          00001624           00000001
 XMONDUMP  LD          00001676           00000001
 XMONREG   LD          000016BC           00000001
 XMONWR    LD          00001716           00000001
 HEXSEG    LD          0000175A           00000001
 MCOMFAIL  LD          00001B2E           00000001
 MCOMDIE   LD          00001B7C           00000001
 MCOMFMT   LD          00001BAA           00000001

1MCOM     MILTEN's Command Processor                                                                                        Page    3
0Loc    Object Code    Addr1 Addr2  Stmt Lv Lineno    Source Statement                    (Asmedit 3.3)  HLASM R4.0  2004/03/15 12.36
+___    ______ ____    _____ _____  ____ __ ______    ______ _________
0                                      2              *******************************************************************
                                       3              *                                                                 *
                                       4              *     MILTEN/370 - Release VI - Class I - Stanford Proprietary    *
                                       5              *                                                                 *
                                       6              *******************************************************************
                                       7                       HIBAL
                                     995              ¿þþþþþþþþþþþþþþþþþþþþþþþþþþþþþþþþþþþþþþþþþþþþþþþþþþþþþþþþþþþþþþþþþþþþþÜ
                                     996              Ÿ                                                                     Ÿ
                                     997              Ÿ  Things to do:                                                      Ÿ
                                     998              Ÿ                                                                     Ÿ
                                     999              Ÿ  -  Tidy up command processor.                                      Ÿ
                                    1000              Ÿ                                                                     Ÿ
                                                      ¾þþþþþþþþþþþþþþþþþþþþþþþþþþþþþþþþþþþþþþþþþþþþþþþþþþþþþþþþþþþþþþþþþþþþþ»
0000000                00000 01C30  1001              MILMCOM  CSECT
                                    1005              MCOM     IDENT 2047                10:16:23 02/16/02  (SLP)
                                    1008             +
                                    1009    01-IDENT +         ENTRY MCOM2047
                                    1010             +
 000000 16D4C3D6D4F2F0F4            1011    01-IDENT +MCOM2047 DC    AL1(22),C'MCOM2047,15MAR04,12:36'
                                    1012             +*
                                    1014                       REGS  ,,FSR,,,,,,BR,SCBR,(CMDR,CCBR),(FEBR,LSR),CVR,SPR,RAR
                                    1158
                                    1159                       SYSDEFN
                                    1160
                                    1161                       MACRO
                                    1162              &L       HEXDUMP &LOC,&LEN,&SEGCB,&OPT=
                                    1163              &L       SETMSG &LOC,&LEN
                                    1164                       SEGLD &SEGCB
                                    1165                      $L     R2,&OPT
                                    1166                       ACALL HEXDUMP
                                    1167                       MEND
                                    1168
                                    1169                       PUSH  DSECTS
 USING  CV,R12                      1180             =         USING CV
 000017                00000 01C30  1189             =         POP   PRINT
1MCOM     (MCOM2047) (12:36) (15MAR04) Command Processor DSECTS                                                             Page    4
0Current Usings:  (CV,R12)
0Loc    Object Code    Addr1 Addr2  Stmt Lv Lineno    Source Statement           (Hibal 5, Asmedit 3.3)  HLASM R4.0  2004/03/15 12.36
+___    ______ ____    _____ _____  ____ __ ______    ______ _________
0000000                00000 0007C  2931              UPATH    RECORD BEGIN
                                    2939  1           UPAT       MILPATH
                                    2940+ 1          +¿þþþþþþþþþþþþþþþþþþþþþþþþþþþþþþþþþþþþþþþþþþþþþþþþþþþþþþþþþþþþþþþþþþþþþÜ
                                    2941+ 1          +Ÿ                                                                     Ÿ
                                    2942+ 1          +Ÿ    Milten Path control block.                                       Ÿ
                                    2943+ 1          +Ÿ                                                                     Ÿ
                                          1           ¾þþþþþþþþþþþþþþþþþþþþþþþþþþþþþþþþþþþþþþþþþþþþþþþþþþþþþþþþþþþþþþþþþþþþþ»
0000000                             2944  1 01-MILPA +           DS    0F
 000000 D7C1E3C8                    2945  1 01-MILPA +           DC    CL4'PATH'
 000004 00                          2946  1          +*
 UPATFLAG.UPATFOPE 80 ONES
 UPATFLAG.UPATFHDR 40 ONES
 UPATFLAG.UPATFSPR 20 ONES
 UPATFLAG.UPATFOPR 10 ONES
                                    2971  1          +*
 000005                             2972  1 01-MILPA +           DS    XL3                 Reserved
                                    2973  1          +
 000008                             2975  1 02-PATH  +UPAT       DC    0F'0'
 000008 00000000                    2977  1 03-DEFIN +UPATMGC    DC    AL4(0)
 00000C 00000000                    2979  1 03-DEFIN +UPATDJNM   DC    AL4(0)
 000010 D4E8E3C1C7404040            2981  1 03-DEFIN +UPATMY     DC    CL8'MYTAG'
 000018 FFFFFFFFFFFFFFFF            2983  1 03-DEFIN +UPATYOU    DC    XL8'FFFFFFFFFFFFFFFF'
 000020 80                          2985  1 03-DEFIN +UPATMFL    DC    AL1(1*X'80'+0*X'40'+0*X'20')
                                    2986  1          +
                                    2987  1 02-PATH  +UPATVER2    EQU  X'80'         CALLER IS USING VERSION 2
                                    2988  1 02-PATH  +UPATMCTL    EQU  X'40'         CALLER ASKS TERMINATION CONTROL
                                    2989  1 02-PATH  +UPATMNAM    EQU  X'20'         CALLER PROVIDES CALLEE NAME
                                    2990  1 02-PATH  +UPATMDP1    EQU  X'10'         DUPLICATE TAGS FOUND: MY=PCBO, YOU=PCBA
                                    2991  1 02-PATH  +UPATMDP2    EQU  X'08'         DUPLICATE TAGS FOUND: MY=PCBA, YOU=PCBO
                                    2992  1          +
 000021 000000                      2994  1 03-DEFIN +UPATOECB   DC    AL3(0)
 000024 00004000                    2996  1 03-DEFIN +UPATBUF    DC    AL4(16384)
 000028 00000040                    2998  1 03-DEFIN +UPATECBF   DC    AL4(UPATSFLG)
                                    2999  1          +
                                    3000  1 02-PATH  +UPATFCLS    EQU   X'80'         I AM POSTED BECAUSE HE CLOSED
                                    3001  1 02-PATH  +UPATFFQE    EQU   X'40'         I AM POSTED BECAUSE HIS FULL Q EMPTIED
                                    3002  1 02-PATH  +UPATFNI     EQU   X'20'         I AM POSTED BECAUSE NEW INFO IN MY Q
                                    3003  1 02-PATH  +UPATFDP     EQU   X'10'         I AM POSTED AT HIS DISCRETION
                                    3004  1 02-PATH  +UPATFOPN    EQU   X'08'         I AM POSTED BECAUSE HE OPENED
                                    3005  1 02-PATH  +UPATFCLC    EQU   X'04'         I AM POSTED BECAUSE MY CLOSE IS COMPLETE
                                    3006  1          +
 00002C D7D9D6C4                    3008  1 03-DEFIN +UPATPASS   DC    CL4'PROD'
 000030 00000000                    3010  1 03-DEFIN +UPATECB    DC    AL4(*-*)
 000034 00000000                    3012  1 03-DEFIN +UPATEXIT   DC    AL4(0)
 000038 00000000                    3014  1 03-DEFIN +UPATPINP   DC    XL4'0'
 00003C 00000000                    3016  1 03-DEFIN +UPATRESV   DC    XL4'0'
                                    3017  1          +*
                                    3018  1          +*  VERSION 2 RETURN CODES
                                    3019  1          +*
                                    3020  1 02-PATH  +UPATROK     EQU  0                       COMPLETE OK
                                    3021  1 02-PATH  +UPATRIFC    EQU  4                       INVALID FUNCTION CODE
                                    3022  1 02-PATH  +UPATRPMW    EQU  8                       INVALID PATH MAGIC WORD
                                    3023  1 02-PATH  +UPATRBAF    EQU  12                      PARTNER'S BUFFER AREA FULL
1MCOM     (MCOM2047) (12:36) (15MAR04) Command Processor DSECTS                                                             Page    5
0Current Usings:  (CV,R12)
0Loc    Object Code    Addr1 Addr2  Stmt Lv Lineno    Source Statement           (Hibal 5, Asmedit 3.3)  HLASM R4.0  2004/03/15 12.36
+___    ______ ____    _____ _____  ____ __ ______    ______ _________
0                                   3024  1 02-PATH  +UPATRNOP    EQU  16                      PARTNER NOT THERE
                                    3025  1 02-PATH  +UPATRBOM    EQU  20                      BUFFER OVER PARTNER'S MAXIMUM
                                    3026  1 02-PATH  +UPATRIBS    EQU  24                      RECEIVE BUFFER TOO SMALL
                                    3027  1 02-PATH  +UPATRBPI    EQU  28                      INVALID BUFFER POINTER
                                    3028  1 02-PATH  +UPATRIAD    EQU  32                      INVALID ADDRESS
                                    3029  1 02-PATH  +UPATRES1    EQU  36                      RESERVED
                                    3030  1 02-PATH  +UPATRES2    EQU  40                      RESERVED
                                    3031  1 02-PATH  +UPATRES3    EQU  44                      RESERVED
                                    3032  1 02-PATH  +UPATRES4    EQU  48                      RESERVED
                                    3033  1          +
                                    3034  1 02-PATH  +UPATSIZE    EQU  *-UPAT        LENGTH OF PATH BLOCK
                                    3035  1          +
 000040 00                          3036  1 01-MILPA +UPATSFLG   DC    X'00'               Suzan post flag
                                    3037  1          +* Suzan needs to be able to access one word at "&L.SFLG", so
                                    3038  1          +* just to be safe we always have a word of padding in our UPATH.
 000041 000000                            1          +
 000044 FFFFFFFF                    3039  1 01-MILPA +           DC    F'-1'               Padding (must be present)
                                    3040  1          +
 000048 00000000                    3041  1 01-MILPA +UPATPASC   DC    F'0'                Partner's ASCB ptr
 00004C 0000                        3042  1 01-MILPA +UPATPLNO   DC    H'0'                Partner's line number
 00004E 0000000000000000            3043  1 01-MILPA +UPATPJOB   DC    XL8'00'             Partner's jobname
 000056 0000000000000000            3044  1 01-MILPA +UPATPACT   DC    XL8'00'             Partner's account
 00005E 0000000000000000            3045  1 01-MILPA +UPATPNAM   DC    XL20'00'            Partner's user name
                                    3046  1          +
 000072 0000                              1          +
 000074 0000000000000000            3047  1 01-MILPA +UPATRCP    DC    2A(0)               Error msg loc, len
 00007C                0007C 0007C  3048                       END
1MCOM     (MCOM2047) (12:36) (15MAR04) Command Processor DSECTS                                                             Page    6
0Current Usings:  (CV,R12)
0Loc    Object Code    Addr1 Addr2  Stmt Lv Lineno    Source Statement           (Hibal 5, Asmedit 3.3)  HLASM R4.0  2004/03/15 12.36
+___    ______ ____    _____ _____  ____ __ ______    ______ _________
0                                   3058                       COPY  SUBPOOLS
                                    3059             =WTOQSUBP EQU   11                  Subpool for WTOQ elements
                                    3060             =IOHQSUBP EQU   12                  Subpool for IOHQ elements
                                    3061             =SCBSUBPL EQU   13                  Subpool for SCBs
                                    3062             =TRCSUBPL EQU   14                  Subpool for TRC entries
                                    3063             =TQESUBPL EQU   15                  Timer queue subpool
                                    3064             =FEBSUBPL EQU   16                  FEBs (non-page fixed)
                                    3065             =PIBSUBPL EQU   17                  PIBS (non-page fixed)
                                    3066             =SUBSUBPL EQU   18                  Subsystem blocks
                                    3067             =STRCSUBP EQU   19                  Session trace buffers
                                    3068             =QPDBSUBP EQU   20                  Queued PDBs
                                    3069             =SPDBSUBP EQU   21                  Saved PDBs
                                    3070             =PRMTSUBP EQU   22                  Saved prompts
                                    3071             =RTXTSUBP EQU   23                  Saved read text
                                    3072             =SQPDSUBP EQU   24                  Queued PDBs on subsystem
                                    3073             =CONSQPDB EQU   25                  Queued CONS PDBs
                                    3074             =PATSUBP  EQU   26                  Port address tables
                                    3075             =TRCHSUBP EQU   27                  Device trace table hdrs
                                    3076             =ITBLSUBP EQU   28                  Input xlate table
                                    3077             =MCOMSUBP EQU   29                  MCOM command buffers
                                    3078             =STMPSUBP EQU   30                  MCOM temp trace buffer
                                    3079             =EIBSUBP  EQU   31                  ELF EIB
                                    3080             =AMYQSUBP EQU   32                  Amelia queue ELF
                                    3081             =SOCKSUBP EQU   33                  ELF SOCK control block
                                    3082             =SMSGSUBP EQU   34                  Saved socket msg (ELF)
                                    3083             =PWRTSUBP EQU   35                  ELF Path write subpool
                                    3084             =TELISUBP EQU   36                  Telnet input data buffer
                                    3085             =EPIBSUBP EQU   37                  ELF PIB input buffer
                                    3086             =VPATSUBP EQU   38                  VIRT PAT
                                    3087             =VBUFSUBP EQU   39                  SDD VTAM buffer
                                    3088             =VRUSUBP  EQU   40                  SDD RU
                                    3089             =VDPBSUBP EQU   41                  VTAM dummy PIB
                                    3090             =VPPSUBP  EQU   42                  VTAM PIB parms
                                    3091             =VISTSUBP EQU   43                  VTAM FEB IRB stack
                                    3092             =VACBSUBP EQU   44                  VTAM ACB subpool
                                    3093             =VRPLSUBP EQU   45                  VTAM RPL subpool
                                    3094             =VSRRSUBP EQU   46                  VSRR VBUF
                                    3095             =VNIBSUBP EQU   47                  VSRR NIB
                                    3096             =VBNDSUBP EQU   48                  BIND area VSRR
                                    3097             =VDVCSUBP EQU   49                  DVCHAR subpool VSRR
                                    3098             =VRBFSUBP EQU   50                  Reply buffer
                                    3099             =V3BFSUBP EQU   51                  D3767 VBUF
                                    3100             =RSYNSUBP EQU   52                  RSYN RPL data
                                    3101             =RESPSUBP EQU   53                  RESP RPL subpool
                                    3102             =REXPSUBP EQU   54                  Expedited flow subpool
1MCOM     (MCOM2047) (12:36) (15MAR04) Command Processor DSECTS                                                             Page    7
0Current Usings:  (CV,R12)
0Loc    Object Code    Addr1 Addr2  Stmt Lv Lineno    Source Statement           (Hibal 5, Asmedit 3.3)  HLASM R4.0  2004/03/15 12.36
+___    ______ ____    _____ _____  ____ __ ______    ______ _________
0                                   3104              ¿þþþþþþþþþþþþþþþþþþþþþþþþþþþþþþþþþþþþþþþþþþþþþþþþþþþþþþþþþþþþþþþþþþþþþÜ
                                    3105              Ÿ                                                                     Ÿ
                                    3106              Ÿ  Command Control Block                                              Ÿ
                                    3107              Ÿ                                                                     Ÿ
                                                      ¾þþþþþþþþþþþþþþþþþþþþþþþþþþþþþþþþþþþþþþþþþþþþþþþþþþþþþþþþþþþþþþþþþþþþþ»
0000000                00000 005C4  3108              CMD      RECORD BEGIN
 000000                             3116  1                      DS    CL4'CMD'
 000004                             3117  1           CMDID      DS    H                   Unique identifier
 000006                             3118  1                      DS    H                   Reserved
                                    3119  1
 000008                             3120  1           CMDLINK    DS    A                   Ptr to next CMD (or zero)
                                    3121  1                      ¿þþþþþþþþþþþþþþþþþþþþþþþþÜ
                                    3122  1                      Ÿ  Communications path.  Ÿ
                                    3123  1                      ¾þþþþþþþþþþþþþþþþþþþþþþþþ»
 00000C                             3124  1           CMDUPATH   DS    XL(L'UPATH)         UPATH
                                    3125  1           CMDFSPR    EQU   CMDUPATH+(UPATFSPR-UPATH),L'UPATFSPR,1  Sys privs
                                    3126  1           CMDFOPR    EQU   CMDUPATH+(UPATFOPR-UPATH),L'UPATFOPR,1  Opr privs
                                    3127  1
 000088                             3128  1           CMDINP     DS    XL256               Input command
                                    3129  1                      ¿þþþþþþþþþþþþþþþþþþþþþþþþþþþþþþþþþÜ
                                    3130  1                      Ÿ  Seg control block and buffer.  Ÿ
                                    3131  1                      ¾þþþþþþþþþþþþþþþþþþþþþþþþþþþþþþþþþ»
                                    3132  1           CMDSG      SEGCB
 000188 00                          3133  1 01-SEGCB +$$$SEGCB26   DS  0F
 CMDSGCOD.CMDSGSEG 01 EQ
 CMDSGCOD.CMDSGWR  02 EQ
 CMDSGCOD.CMDSGCLR 03 EQ
 CMDSGCOD.CMDSGSPP 04 EQ
 CMDSGCOD.CMDSGOVF 05 EQ
 CMDSGCOD.CMDSGCR  06 EQ
 CMDSGCOD.CMDSGMAR 07 EQ
 000189 00                          3208  1 01-SEGCB +           DC    X'00'               Reserved
 00018A 0000                              1          +
 00018C 00000000                    3209  1 01-SEGCB +CMDSGMAXF   DC   A(0)                Maximum buffer length
 000190 00000000                    3210  1 01-SEGCB +CMDSGMRKF   DC   A(0)                Length at last mark
 000194 00000000                    3211  1 01-SEGCB +CMDSGLENF   DC   A(0)                Current length
 000198 00000000                    3212  1 01-SEGCB +CMDSGINDF   DC   A(0)                Overflow/indent count
 00019C 00000000                    3213  1 01-SEGCB +CMDSGERR   DC    A(0)                Address of error recovery routine
 0001A0 0000000000000000            3214  1 01-SEGCB +           DC    2F'0'               Reserved
 0001A8 00000000                    3215  1 01-SEGCB +CMDSGLOC   DC    A(0)                Location of buffer
 0001AC 00000000                    3216  1 01-SEGCB +CMDSGRTN   DC    A(0)                Processing routine
 0001B0 0000000000000000            3217  1 01-SEGCB +           DC    4F'0'               Reserved
 0001C0 00000000                    3218  1 01-SEGCB +CMDSGUSR   DC    A(0)                USER field
                                    3219  1 01-SEGCB +CMDSG      EQU   $$$SEGCB26,*-$$$SEGCB26,C'X'
 0001C4                             3220  1           CMDBUF     DS    XL1024              Output buffer
 0005C4                005C4 005C4  3221                       END
1MCOM     (MCOM2047) (12:36) (15MAR04) Command Processor                                                                    Page    8
0Current Usings:  (CV,R12)
0Loc    Object Code    Addr1 Addr2  Stmt Lv Lineno    Source Statement           (Hibal 5, Asmedit 3.3)  HLASM R4.0  2004/03/15 12.36
+___    ______ ____    _____ _____  ____ __ ______    ______ _________
0000017                00000 01C30  3231              MILMCOM  CSECT
                                    3233              ¿þþþþþþþþþþþþþþþþþþþþþþþþþþþþþþþþþþþþþþþþþþþþþþþþþþþþþþþþþþþþþþþþþþþþþÜ
                                    3234              Ÿ                                                                     Ÿ
                                    3235              Ÿ  MCOMINIT -- Routine to do command processor initialization.        Ÿ
                                    3236              Ÿ    We open one command path and when someone connects to that       Ÿ
                                    3237              Ÿ    path we'll open a new spare path.                                Ÿ
                                    3238              Ÿ                                                                     Ÿ
                                                      ¾þþþþþþþþþþþþþþþþþþþþþþþþþþþþþþþþþþþþþþþþþþþþþþþþþþþþþþþþþþþþþþþþþþþþþ»
0000018 50E0 D044/902B_      00044  3239              MCOMINIT XPROC
 USING  *,R8
 000032 58E0 8356/0DEE       00378  3277                       ACALL CMDOPEN             Create a command path
 000038 41D0 D030/982B_      00030  3281                       PEND
 DROP   *,R8
1MCOM     (MCOM2047) (12:36) (15MAR04) Command Processor                                                                    Page    9
0Current Usings:  (CV,R12)
0Loc    Object Code    Addr1 Addr2  Stmt Lv Lineno    Source Statement           (Hibal 5, Asmedit 3.3)  HLASM R4.0  2004/03/15 12.36
+___    ______ ____    _____ _____  ____ __ ______    ______ _________
0                                   3302              ¿þþþþþþþþþþþþþþþþþþþþþþþþþþþþþþþþþþþþþþþþþþþþþþþþþþþþþþþþþþþþþþþþþþþþþÜ
                                    3303              Ÿ                                                                     Ÿ
                                    3304              Ÿ  MCOMDO -- Routine to check for commands.                           Ÿ
                                    3305              Ÿ                                                                     Ÿ
                                                      ¾þþþþþþþþþþþþþþþþþþþþþþþþþþþþþþþþþþþþþþþþþþþþþþþþþþþþþþþþþþþþþþþþþþþþþ»
0000000                00000 00028  3306              MDOWA    RECORD BEGIN
 000000                             3314  1           MDOCUR     DS    CL(L'CVCUR)         Saved failsoft information
 000028                00028 00028  3315                       END
                                    3324              þþþþ
 00004C 50E0 D044/902B_      00044  3325              MCOMDO   XPROC MDOWA
 USING  *,R8
 USING  MDOWA-@@,R13
                                    3374                       ¿þþþþþþþþþþþþþþþþþþþþþþþþþþþþþþþþþþÜ
                                    3375                       Ÿ  Go through CMD control blocks.  Ÿ
                                    3376                       ¾þþþþþþþþþþþþþþþþþþþþþþþþþþþþþþþþþþ»
 000066 41A0 C2B8            002B8  3377              MCOMLOOP LA    CMDR,CVCMDQH-(CMDLINK-CMD)  Dummy queue head
 00006A                             3378                       LOOP  BEGIN
 USING  CMD,R10                     3384  1                      WITH  CMD
 00006A 58A0 A008/12AA_      00008  3396  1                      WHILE ('LT CMDR,CMDLINK',NZ)  Get first/next CMD entry
                                    3413  1                      ¿þþþþþþþþþþþþþþþþþþþþþþþþþþþþþþþþþþþþþþþþÜ
                                    3414  1                      Ÿ  Check for any special path activity.  Ÿ
                                    3415  1                      ¾þþþþþþþþþþþþþþþþþþþþþþþþþþþþþþþþþþþþþþþþ»
 000074 4150 A00C            0000C  3416  1                      LA    R5,CMDUPATH
 USING  UPATH,R5                    3417  1                      WITH  (UPATH,R5)
 000078 91A8 5040/4780_00040        3430  1                      IF    UPATSFLG.UPATFOPN+UPATFNI+UPATFCLS,BEGIN
                                    3452  2                        ¿þþþþþþþþþþþþþþþþþþþþþþþþþþþþþþþþþþþþþþþþþþþþþþþþþþþþþþþþþÜ
                                    3453  2                        Ÿ  Command path just opened, so we open a new free path.  Ÿ
                                    3454  2                        ¾þþþþþþþþþþþþþþþþþþþþþþþþþþþþþþþþþþþþþþþþþþþþþþþþþþþþþþþþþ»
 000080 9108 5040/47E0_00040        3455  2                        IF    UPATSFLG.UPATFOPN,BEGIN  Path opened...
 0003E5 F7/41F0 0001/1_003E5 01C30  3471  3                          CLEAR UPATSFLG.UPATFOPN,MODE=LOCKED,REF=UPATH  Turn bit off
                                    3517  3
 0000A6 4110 5000            00000  3518  3                          LA    R1,UPATH
 0000AA 58E0 8326/0DEE       0037C  3519  3                          VCALL PATHINFO            Fill in info about path partner
                                    3523  3
 0000B0 58E0 8322/0DEE       00378  3524  3                          ACALL CMDOPEN             Open a new command path
 0000B6                             3528  2                        END
                                    3532  2                        ¿þþþþþþþþþþþþþþþþþþþþþþþþþþþþþþþþþþþþþþþþþþþþþþþþþþþþþþþþþþþþÜ
                                    3533  2                        Ÿ  We have a command ("new info") sent by the path partner.  Ÿ
                                    3534  2                        ¾þþþþþþþþþþþþþþþþþþþþþþþþþþþþþþþþþþþþþþþþþþþþþþþþþþþþþþþþþþþþ»
 0000B6 9120 5040/47E0_00040        3535  2                        WHILE UPATSFLG.UPATFNI,BEGIN  New info...
 0000BE 4110 5000            00000  3553  3                          LA    R1,UPATH
 0000C2 58E0 832A/0DEE       00380  3554  3                          VCALL PATHREAD            Get a new line
 0000C8 4770 8116            0016C  3558  3                          IF    Z,BEGIN             We have some text...
 0000CC D2FF A088 C141 00088 00141  3569  4                            MVC   CMDINP,CVBLANKS     Pre-blank command text area
 0000D2 18F0                        3570  4                            LR    R15,R0
 0000D4 59F0 832E/47D0_      00384  3571  4                            CEIL  R15,L'CMDINP
 0000E0 06F0/12FF/4740_             3590  4                            MOVE  R15,CMDINP,@R1      Save command text
                                    3628  4
 0000EC D227 D04C C750 00000 00750  3629  4                            MVC   MDOCUR,CVCUR        Save current failsoft ptrs
 0000F2 50A0 C760            00760  3630  4                            ST    CMDR,CVCURCMD       Set current CMD for failsoft rcvy
                                    3631  4
 0000F6 4110 A088            00088  3632  4                            SETMSG CMDINP,(R0)         Command text
 0000FA 41F0 A188            00188  3645  4                            LA    R15,CMDSG           SEGCB
1MCOM     (MCOM2047) (12:36) (15MAR04) Command Processor                                                                    Page   10
0Current Usings:  (UPATH,R5) (*,R8) (CMD,R10) (CV,R12) (MDOWA-@@,R13)
0Loc    Object Code    Addr1 Addr2  Stmt Lv Lineno    Source Statement           (Hibal 5, Asmedit 3.3)  HLASM R4.0  2004/03/15 12.36
+___    ______ ____    _____ _____  ____ __ ______    ______ _________
00000FE 1B22                        3646  4                            CLEAR R2                  Assume normal user
 000100 9130 A010/4780_00010        3650  4                            IF    CMDFSPR+CMDFOPR,'LA R2,1'   Priv'd user
 00010C 58E0 8332/0DEE       00388  3674  4                            ACALL COMMAND             Execute command
                                    3678  4                            ¿þþþþþþþþþþþþþþþþþþþþþþþþþþþþþþþþþþþþþþþþþþþþþþþþþþþþþþþþþþþþÜ
                                    3679  4                            Ÿ  If the command was a request to start monitoring then     Ÿ
                                    3680  4                            Ÿ    we leave the path open and debugging messages are then  Ÿ
                                    3681  4                            Ÿ    sent to it.                                             Ÿ
                                    3682  4                            ¾þþþþþþþþþþþþþþþþþþþþþþþþþþþþþþþþþþþþþþþþþþþþþþþþþþþþþþþþþþþþ»
 000112 59F0 8336/4770_      0038C  3683  4                            IF    (R15,EQ,20),BEGIN   Request to start monitoring...
 00011A 50A0 C2E8            002E8  3700  5                              ST    CMDR,CVMONCMD       Save monitor CMD ptr
 00011E 4110 8376/4100_      003CC  3701  5                              SEGWR 'Monitoring has started',,.CMDSG
 000130                             3719  4                            END
                                    3723  4
 000130 80DE/47F0 8110 00130 00118  3724  4                            ELSE  BEGIN               End of command...
 000134 D603 A194 A194_00194 00194  3735  5                              IF    ((CMDSGLENF,NZ),AND,(CMDSGLENF,NE,CMDSGMRKF)),BEGIN
 000148 1B00/41F0 A188_             3768  6                                SEGWR ,,.CMDSG
 000154                             3792  5                              END
 000154 4110 833E/4100_      00394  3796  5                              SEGWR '$END',,.CMDSG      End of command
 000166                             3814  4                            END
                                    3818  4
 000166 D227 C750 D04C 00750 00000  3819  4                            MVC   CVCUR,MDOCUR        Restore failsoft ptrs
 00016C                             3820  3                          END
 00016C 47F0 8060            000B6  3824  2                        END
                                    3829  2                        ¿þþþþþþþþþþþþþþþþþþþþþþþþþþþþÜ
                                    3830  2                        Ÿ  Command path has closed.  Ÿ
                                    3831  2                        ¾þþþþþþþþþþþþþþþþþþþþþþþþþþþþ»
 000170 9180 5040/47E0_00040        3832  2                        IF    UPATSFLG.UPATFCLS,BEGIN  Path closed...
 000178 4110 A000            00000  3848  3                          LA    R1,CMD
 00017C 58E0 8342/0DEE       00398  3849  3                          ACALL CMDCLOSE            Close and free CMD
 000182 47F0 8010            00066  3853  3                          B     MCOMLOOP
 000186                             3854  2                        END
 000186                             3858  1                      END
 000186 47F0 8014            0006A  3862                       END
 DROP   UPATH,R5
 DROP   CMD,R10
                                    3877
 00018A 41D0 D058/982B_      00058  3878                       PEND
 DROP   MDOWA-@@,R13
 DROP   *,R8
1MCOM     (MCOM2047) (12:36) (15MAR04) Command Processor                                                                    Page   11
0Current Usings:  (CV,R12)
0Loc    Object Code    Addr1 Addr2  Stmt Lv Lineno    Source Statement           (Hibal 5, Asmedit 3.3)  HLASM R4.0  2004/03/15 12.36
+___    ______ ____    _____ _____  ____ __ ______    ______ _________
0                                   3905              ¿þþþþþþþþþþþþþþþþþþþþþþþþþþþþþþþþþþþþþþþþþþþþþþþþþþþþþþþþþþþþþþþþþþþþþÜ
                                    3906              Ÿ                                                                     Ÿ
                                    3907              Ÿ  CMDOPEN -- Routine to open a new command path and put it on        Ÿ
                                    3908              Ÿ    our queue.                                                       Ÿ
                                    3909              Ÿ                                                                     Ÿ
                                    3910              Ÿ    On exit:                                                         Ÿ
                                    3911              Ÿ      R1 - newly built CMD ptr                                       Ÿ
                                    3912              Ÿ                                                                     Ÿ
                                                      ¾þþþþþþþþþþþþþþþþþþþþþþþþþþþþþþþþþþþþþþþþþþþþþþþþþþþþþþþþþþþþþþþþþþþþþ»
000019E 50E0 D044/902B_      00044  3913              CMDOPEN  PROC
 USING  *,R8
 0001B8 4100 05C4            005C4  3949                       LA    R0,L'CMD
 0001BC 4110 001D            0001D  3950                       LA    R1,MCOMSUBP
 0001C0 182E                        3951                       LR    R2,RAR
 0001C2 58E0 81F4/0DEE       0039C  3952                       VCALL NGETCORE            Get memory for CMD
 0001C8 18A1                        3956                       LR    CMDR,R1
 USING  CMD,R10                     3957                       WITH  CMD
 0001CA 18EA/41F0 05C4_             3969                       ZOT   CMD
 0001D4 D203 A000 81F8 00000 003A0  3986                       MVC   CMD(4),=CL4'CMD'    Set identification
 0001DA 41F0 0001/5EF0_      00001  3987                       INCR  R15,CVCMDID         Numeric ID
 0001E6 40F0 A004            00004  3993                       STH   R15,CMDID           Save our ID
                                    3994
 0001EA 4110 A00C            0000C  3995                       LA    R1,CMDUPATH
 0001EE 58E0 81FC/0DEE       003A4  3996                       VCALL PATHINIT            Initialize UPATH
 0001F4 4780 806C/FEDC_      00214  4000                       FAIL  NZ,'CMDOPEN PATHINIT problem'
                                    4020
 000214 4120 A00C            0000C  4021                       LA    R2,CMDUPATH
 USING  UPATH,R2                    4022                       WITH  (UPATH,R2),BEGIN
 000218 D207 2010 C4B8 00010 004B8  4036  1                      MVC   UPATMY,CVMNAME      MYTAG (our name--MILTEN/TESTMIL)
 DROP   UPATH,R2                    4037                       END
                                    4045
 00021E 4110 A00C            0000C  4046                       LA    R1,CMDUPATH
 000222 58E0 8200/0DEE       003A8  4047                       VCALL PATHOPEN            Open UPATH
 000228 4780 80A0/FEDC_      00248  4051                       FAIL  NZ,'CMDOPEN PATHOPEN problem'
                                    4071
 000248 4110 A1C4/4100_      001C4  4072                       SEGINIT CMDBUF,,CMDSG,RTN=PATHSEG,RTNTYPE=V
 00026A 41F0 A00C            0000C  4116                       LA    R15,CMDUPATH
 00026E 50F0 A1C0            001C0  4117                       ST    R15,CMDSGUSR        Save UPATH ptr in SEGCB
                                    4118                       ¿þþþþþþþþþþþþþþþþþþþþþþþþþþþþþþþþþÜ
                                    4119                       Ÿ  Add newly build CMD to queue.  Ÿ
                                    4120                       ¾þþþþþþþþþþþþþþþþþþþþþþþþþþþþþþþþþ»
 000272 5820 C2C4/1222       002C4  4121                       LT    R2,CVCMDQT          Get current queue tail
 000278 4770 80DC            00284  4125                       IF    Z,BEGIN             Nothing on CMD queue...
 00027C 50A0 C2C0            002C0  4136  1                      ST    CMDR,CVCMDQH        We are the queue head...
 000280 50A0 C2C4            002C4  4137  1                      ST    CMDR,CVCMDQT        ...and the tail too
 000284                             4138                       END
                                    4142
 000284 80E0/47F0 80E8 00284 0027A  4143                       ELSE  BEGIN               Add to end of the CMD queue...
 000288 50A2 0008            00008  4154  1                      ST    CMDR,CMDLINK-CMD(R2)  Link us to the last entry
 00028C 50A0 C2C4            002C4  4155  1                      ST    CMDR,CVCMDQT        We are the new tail
 000290                             4156                       END
                                    4160
 000290 4110 A000            00000  4161                       LA    R1,CMD
1MCOM     (MCOM2047) (12:36) (15MAR04) Command Processor                                                                    Page   12
0Current Usings:  (*,R8) (CMD,R10) (CV,R12)
0Loc    Object Code    Addr1 Addr2  Stmt Lv Lineno    Source Statement           (Hibal 5, Asmedit 3.3)  HLASM R4.0  2004/03/15 12.36
+___    ______ ____    _____ _____  ____ __ ______    ______ _________
0000294 1BFF                        4162                       CLEAR R15                 (Neatness)
 000296 41D0 D030/982B_      00030  4166                       PEND
 DROP   CMD,R10
 DROP   *,R8
1MCOM     (MCOM2047) (12:36) (15MAR04) Command Processor                                                                    Page   13
0Current Usings:  (CV,R12)
0Loc    Object Code    Addr1 Addr2  Stmt Lv Lineno    Source Statement           (Hibal 5, Asmedit 3.3)  HLASM R4.0  2004/03/15 12.36
+___    ______ ____    _____ _____  ____ __ ______    ______ _________
0                                   4192              ¿þþþþþþþþþþþþþþþþþþþþþþþþþþþþþþþþþþþþþþþþþþþþþþþþþþþþþþþþþþþþþþþþþþþþþÜ
                                    4193              Ÿ                                                                     Ÿ
                                    4194              Ÿ  CMDCLOSE -- Routine to close and free a command path.              Ÿ
                                    4195              Ÿ                                                                     Ÿ
                                    4196              Ÿ    On entry:                                                        Ÿ
                                    4197              Ÿ      R1 - CMD ptr                                                   Ÿ
                                    4198              Ÿ                                                                     Ÿ
                                                      ¾þþþþþþþþþþþþþþþþþþþþþþþþþþþþþþþþþþþþþþþþþþþþþþþþþþþþþþþþþþþþþþþþþþþþþ»
00002AA 50E0 D044/902B_      00044  4199              CMDCLOSE PROC
 USING  *,R8
 0002C4 18A1                        4235                       LR    CMDR,R1
 USING  CMD,R10                     4236                       WITH  CMD
 0002C6 D502 812E A000_003E2 00000  4248                       FAIL  (CMD,NE,'CMD'),'Bad CMDCLOSE parm'
                                    4274                       ¿þþþþþþþþþþþþþþþþþþþþþþþþþþþþþþþþþþþþþþþþþþþþþþþþÜ
                                    4275                       Ÿ  Stop monitoring if this is the monitor path.  Ÿ
                                    4276                       ¾þþþþþþþþþþþþþþþþþþþþþþþþþþþþþþþþþþþþþþþþþþþþþþþþ»
 0002E4 59A0 C2E8/4770_      002E8  4277                       IF    (CMDR,EQ,CVMONCMD),'CLEAR CVMONCMD'  Stop monitor
                                    4306                       ¿þþþþþþþþþþþþþþþþþþþþþþþþþþþþþþþþþÜ
                                    4307                       Ÿ  First take CMD off our queue.  Ÿ
                                    4308                       ¾þþþþþþþþþþþþþþþþþþþþþþþþþþþþþþþþþ»
 0002F2 4130 C2B8            002B8  4309                       LA    R3,CVCMDQH-(CMDLINK-CMD)  Dummy first link
 0002F6                             4310                       LOOP  BEGIN
 DROP   CMD,R10                     4316  1                      WITH  (CMD,R3)
 USING  CMD,R3
 0002F6 1823                        4337  1                      LR    R2,R3               Save prev entry ptr
 0002F8 5830 3008/1233_      00008  4338  1                      WHILE ('LT R3,CMDLINK',NZ)
 000302 193A/4770 807A              4355  1                      IF    (R3,EQ,CMDR),BEGIN  Matched our CMD entry...
 000308 58F0 3008            00008  4370  2                        L     R15,CMDLINK         Entry after ours (or zero)
 00030C 50F0 2008            00008  4371  2                        ST    R15,@R2+(CMDLINK-CMD)  Take us off the queue
 000310 12FF/4770 8066_             4372  2                        IF    (R15,Z),'ST R2,CVCMDQT'  New tail
 00031A D603 C2C0 C2C0_002C0 002C0  4392  2                        IF    (CVCMDQH,Z),'CLEAR CVCMDQT'  Nothing in queue
 00032A 47F0 808E            00342  4420  2                        B     CCLSCONT
 00032E                             4421  1                      END
 00032E 47F0 8042            002F6  4425                       END
 USING  CMD,R10
 DROP   CMD,R3
                                    4444
 000332 FEDC0D/C2818440C_           4445                       FAIL  'Bad CMD queue'
                                    4450                       ¿þþþþþþþþþþþþþþþþþþþþþþþþþþþþþþþþþþþþþþþþþþþþþþþþþþþþþþþþþÜ
                                    4451                       Ÿ  Close CMD path (if it's not open it's not a problem).  Ÿ
                                    4452                       ¾þþþþþþþþþþþþþþþþþþþþþþþþþþþþþþþþþþþþþþþþþþþþþþþþþþþþþþþþþ»
 000342 4110 A00C            0000C  4453              CCLSCONT LA    R1,CMDUPATH
 000346 58E0 8104/0DEE       003B8  4454                       VCALL PATHCLS             Close path (if it's open)
                                    4458
 00034C D203 A000 8108 00000 003BC  4459                       MVC   CMD(4),=C'OCMD'     Change ID
 000352 D203 A008 810C 00008 003C0  4460                       MVC   CMDLINK,=F'-1'      Zap link ptr
                                    4461                       ¿þþþþþþþþþþþþþþþþþþþþÜ
                                    4462                       Ÿ  Free CMD memory.  Ÿ
                                    4463                       ¾þþþþþþþþþþþþþþþþþþþþ»
 000358 4110 A000            00000  4464                       LA    R1,CMD
 00035C 58E0 8110/0DEE       003C4  4465                       VCALL FREECORE            Free CMD
                                    4469
 000362 1BFF                        4470                       CLEAR R15                 (Neatness)
1MCOM     (MCOM2047) (12:36) (15MAR04) Command Processor                                                                    Page   14
0Current Usings:  (CV,R12)
0Loc    Object Code    Addr1 Addr2  Stmt Lv Lineno    Source Statement           (Hibal 5, Asmedit 3.3)  HLASM R4.0  2004/03/15 12.36
+___    ______ ____    _____ _____  ____ __ ______    ______ _________
0000364 41D0 D030/982B_      00030  4474                       PEND
 DROP   CMD,R10
 DROP   *,R8
                                    4499
                                    4500                       QLTORG
1MCOM     (MCOM2047) (12:36) (15MAR04) Command Processor                                                                    Page   15
0Current Usings:  (CV,R12)
0Loc    Object Code    Addr1 Addr2  Stmt Lv Lineno    Source Statement           (Hibal 5, Asmedit 3.3)  HLASM R4.0  2004/03/15 12.36
+___    ______ ____    _____ _____  ____ __ ______    ______ _________
0                                   4537              ¿þþþþþþþþþþþþþþþþþþþþþþþþþþþþþþþþþþþþþþþþþþþþþþþþþþþþþþþþþþþþþþþþþþþþþÜ
                                    4538              Ÿ                                                                     Ÿ
                                    4539              Ÿ  COMMAND -- Execute a MILTEN command.                               Ÿ
                                    4540              Ÿ                                                                     Ÿ
                                    4541              Ÿ    On entry:                                                        Ÿ
                                    4542              Ÿ      R1,R0 - command loc, len                                       Ÿ
                                    4543              Ÿ      R2  - flags:  0=normal user; 1=priv'd user                     Ÿ
                                    4544              Ÿ      R15 - SEGCB ptr (for output messages)                          Ÿ
                                    4545              Ÿ                                                                     Ÿ
                                    4546              Ÿ    On exit, R15 (and cc):                                           Ÿ
                                    4547              Ÿ      0 - normal command completion                                  Ÿ
                                    4548              Ÿ      4 - command error                                              Ÿ
                                    4549              Ÿ     20 - start monitoring request (command not complete)            Ÿ
                                    4550              Ÿ                                                                     Ÿ
                                                      ¾þþþþþþþþþþþþþþþþþþþþþþþþþþþþþþþþþþþþþþþþþþþþþþþþþþþþþþþþþþþþþþþþþþþþþ»
0000000                00000 00001  4551              CCB      RECORD BEGIN
 000000 00                          4559  1           CCBFLAG    FLAG
 CCBFLAG.CCBFPRIV  01 ONES          4563  1                      FLAG  (CCBFPRIV,1)        - Privileged user
 000001                00001 00001  4572                       END
                                    4581              þþþþ
 0003F0 50E0 D044/902B_      00044  4582              COMMAND  XPROC CCB
 USING  *,R8
 USING  CCB-@@,R13
 00040A 41A0 D04C            00000  4631                       LA    CCBR,CCB
 USING  CCB,R10                     4632                       WITH  CCB
 00040E 9200 A000      00000        4644                       CLEAR CCB
 000412 4220 A000            00000  4651                       STC   R2,CCBFLAG          Save flags
                                    4652
 000416 187F                        4653                       LR    R7,R15
 USING  SEGCB,R7                    4654                       WITH  (SEGCB,R7)
                                    4667
                                    4668                       SEGDEF SEGCB
 000418 41F0 C5B4/58E0_      005B4  4669                       SCINIT (R1),(R0),CVSCNCB  Init scanner
                                    4691
 000422 4110 8078/41F0_      00472  4692                       SCAN  CMDPRT,CVSCNCB
                                    4711
 000430 4780 8074            0046E  4712                       IF    NZ,BEGIN
 000434 1000                        4723  1           CMDERROR   LPR   R0,R0
 000436 1200/47D0 8060_             4724  1                      IF    ((R0,P),AND,(R1,P)),BEGIN
 000442 18F7/58E0 8406_             4751  2                        SEGB  (R1),(R0)
 00044A 4110 848A/4100_      00884  4775  2                        SEGWR '- Invalid'
 00045A                             4793  1                      END
 00045A 8064/8064/47F0_0045A 0043A  4797  1                      ELSE  BEGIN
 00045E 4110 8450/4100_      0084A  4810  2                        SEGWR 'Missing option'
 00046E                             4828  1                      END
 00046E                             4832                       END
                                    4836
 00046E 47F0 83BE            007B8  4837                       B     CMDEND
1MCOM     (MCOM2047) (12:36) (15MAR04) Command Processor                                                                    Page   16
0Current Usings:  (SEGCB,R7) (*,R8) (CCB,R10) (CV,R12) (CCB-@@,R13)
0Loc    Object Code    Addr1 Addr2  Stmt Lv Lineno    Source Statement           (Hibal 5, Asmedit 3.3)  HLASM R4.0  2004/03/15 12.36
+___    ______ ____    _____ _____  ____ __ ______    ______ _________
0                                   4838                       ¿þþþþþþþþþþþþþþþþþþþþþþÜ
                                    4839                       Ÿ  Command verb table  Ÿ
                                    4840                       ¾þþþþþþþþþþþþþþþþþþþþþþ»
 000472 020004C2E2C5E3              4841              CMDPRT   SCKW  SET,CSET
 000479 0B0004E0E2C8D6E6            4843                       SCKW  SHOW,CSHOW,A
 000481 0B0004E0C4E4D4D7            4845                       SCKW  DUMP,CSHOW,A
 000489 01000554E2C3                4847                       SCKW  SC,SCORE
 00048F 01000560D7C3                4849                       SCKW  PC,PCORE
 000495 8D0005A2C1E3E3C1            4851                       SCKW  ATTACH,ATTACH,(A,P)
 00049F 8D000610C4C5E3C1            4853                       SCKW  DETACH,DETACH,(A,P)
 0004A9 0E00067ED4D6D5C9            4855                       SCKW  MONITOR,MONITOR,A
 0004B4 0400056EE7E6C1C9            4857                       SCKW  XWAIT,XWAIT         (Careful with this)
 0004BD FF0006F0                    4859                       SCKW  ,CMDCHECK
                                    4861                       ¿þþþþþþþþþþþþþþþþþÜ
                                    4862                       Ÿ  SET Commands.  Ÿ
                                    4863                       ¾þþþþþþþþþþþþþþþþþ»
 0004C1 00/4110 80DA/41F_           4864              CSET     SCAN  CSETPRT,CVSCNCB
 0004D0 47F0 803A            00434  4883                       B     CMDERROR
                                    4884              þþþþ
 0004D4 02000518C5D3C6              4885              CSETPRT  SCKW  ELF,STELF
 0004DB FF000434                    4887                       SCKW  ,CMDERROR
                                    4889                       ¿þþþþþþþþþþþþþþþþþþÜ
                                    4890                       Ÿ  SHOW Commands.  Ÿ
                                    4891                       ¾þþþþþþþþþþþþþþþþþþ»
 0004DF 00/4110 80F8/41F_           4892              CSHOW    SCAN  CSHOWPRT,CVSCNCB
 0004EE 47F0 803A            00434  4911                       B     CMDERROR
                                    4912              þþþþ
 0004F2 0400053CD3C9D5C5            4913              CSHOWPRT SCKW  LINES,SLINES
 0004FB 0D000548D3E3D9C1            4915                       SCKW  LTRACE,SLTRACE,A
 000505 0B000554C3D6D9C5            4917                       SCKW  CORE,SCORE,A
 00050D 0200052AC5D3C6              4919                       SCKW  ELF,SHELF
 000514 FF000434                    4921                       SCKW  ,CMDERROR
                                    4923                       ¿þþþþþþþþþþþþþþþþþþþþþþþÜ
                                    4924                       Ÿ  Caller subroutines.  Ÿ
                                    4925                       ¾þþþþþþþþþþþþþþþþþþþþþþþ»
 000518 4110 C5B4            005B4  4926              STELF    LA    R1,CVSCNCB
 00051C 41F0 7000            00000  4927                       LA    R15,SEGCB
 000520 58E0 840E/0DEE       00808  4928                       VCALL SETELF              Do SET ELF
 000526 47F0 83BE            007B8  4932                       B     CMDEND              Normal
                                    4933
 00052A 4110 C5B4            005B4  4934              SHELF    LA    R1,CVSCNCB
 00052E 41F0 7000            00000  4935                       LA    R15,SEGCB
 000532 58E0 8412/0DEE       0080C  4936                       VCALL SHOWELF             Do SHOW ELF
 000538 47F0 83BE            007B8  4940                       B     CMDEND              Normal
                                    4941
 00053C 4DE0 84C6            008C0  4942              SLINES   LCALL SHOWLINS            Do SHOW LINES
 000540 4770 803A            00434  4944                       BNZ   CMDERROR            Trouble
 000544 47F0 83BE            007B8  4945                       B     CMDEND              Normal
                                    4946
 000548 4DE0 865A            00A54  4947              SLTRACE  LCALL SHOWLTRC            Do SHOW LTRACE
 00054C 4770 803A            00434  4949                       BNZ   CMDERROR            Trouble
 000550 47F0 83BE            007B8  4950                       B     CMDEND              Normal
                                    4951
 000554 4DE0 8EC6            012C0  4952              SCORE    LCALL SHOWCORE            Do SHOW CORE
1MCOM     (MCOM2047) (12:36) (15MAR04) Command Processor                                                                    Page   17
0Current Usings:  (SEGCB,R7) (*,R8) (CCB,R10) (CV,R12) (CCB-@@,R13)
0Loc    Object Code    Addr1 Addr2  Stmt Lv Lineno    Source Statement           (Hibal 5, Asmedit 3.3)  HLASM R4.0  2004/03/15 12.36
+___    ______ ____    _____ _____  ____ __ ______    ______ _________
0000558 4770 803A            00434  4954                       BNZ   CMDERROR            Trouble
 00055C 47F0 83BE            007B8  4955                       B     CMDEND              Normal
                                    4956
 000560 58E0 8416/0DEE       00810  4957              PCORE    ACALL PATCORE             Do PATCH CORE
 000566 4770 803A            00434  4961                       BNZ   CMDERROR            Trouble
 00056A 47F0 83BE            007B8  4962                       B     CMDEND              Normal
                                    4963                       ¿þþþþþþþþþþþþþþþþþþÜ
                                    4964                       Ÿ  XWAIT command.  Ÿ
                                    4965                       ¾þþþþþþþþþþþþþþþþþþ»
 00056E 4110 8493/4100_      0088D  4966              XWAIT    SEGWR 'Waiting for 30 seconds...'
 00057E 4110 841A/1BFF_      00814  4984                       STIMER WAIT,BINTVL==A(30*100)  Wait 30 seconds
 00058E 4110 84AC/4100_      008A6  4992                       SEGWR 'Done.'
 00059E 47F0 83BE            007B8  5010                       B     CMDEND
                                    5011                       ¿þþþþþþþþþþþþþþþþþþþÜ
                                    5012                       Ÿ  Attach command.  Ÿ
                                    5013                       ¾þþþþþþþþþþþþþþþþþþþ»
 0005A2 9101 A000/4710_00000        5014              ATTACH   IF    ~CCBFPRIV,BEGIN     Not priv'd...
 0005AA 4110 84B1/4100_      008AB  5030  1                      SEGWR 'Privileged command.'
 0005BA 41F0 0004            00004  5048  1                      LA    R15,4
 0005BE 47F0 83C0            007BA  5049  1                      B     CMDEXIT
 0005C2                             5050                       END
                                    5054
 0005C2 4160 C294            00294  5055                       LA    R6,CVFEBQH-(FEBLINK-FEB)  Dummy first link
 0005C6                             5056                       LOOP  BEGIN
 USING  FEB,R6                      5062  1                      WITH  (FEB,R6)
 0005C6 5860 6008/1266_      00008  5075  1                      WHILE ('LT R6,FEBLINK',NZ)  Go through front-end list...
 0005D0 D507 6014 C5B8_00014 005B8  5092  1                      IF    (FEBNAME,EQ,CVSCNKW),BEGIN  Matches this front-end...
 0005DA 94BF 6071      00071        5110  2                        CLEAR FEBFDET
 0005DE 47F0 83BE            007B8  5117  2                        B     CMDEND
 0005E2                             5118  1                      END
 0005E2 47F0 81CC            005C6  5122                       END
 DROP   FEB,R6
                                    5132
 0005E6 18F7/58E0 841E_             5133                       SEGTB (R1),(R0)
 0005EE 4110 83D6/4100_      007D0  5157                       SEG   'is an unknown front-end.'
 0005FE 1B00/18F7/58E0_             5174                       SEGWR
 000608 41F0 0004            00004  5198                       LA    R15,4               Error
 00060C 47F0 83C0            007BA  5199                       B     CMDEXIT
                                    5200                       ¿þþþþþþþþþþþþþþþþþþþÜ
                                    5201                       Ÿ  Detach command.  Ÿ
                                    5202                       ¾þþþþþþþþþþþþþþþþþþþ»
 000610 9101 A000/4710_00000        5203              DETACH   IF    ~CCBFPRIV,BEGIN     Not priv'd...
 000618 4110 84B1/4100_      008AB  5219  1                      SEGWR 'Privileged command.'
 000628 41F0 0004            00004  5237  1                      LA    R15,4
 00062C 47F0 83C0            007BA  5238  1                      B     CMDEXIT
 000630                             5239                       END
                                    5243
 000630 4160 C294            00294  5244                       LA    R6,CVFEBQH-(FEBLINK-FEB)  Dummy first link
 000634                             5245                       LOOP  BEGIN
 USING  FEB,R6                      5251  1                      WITH  (FEB,R6)
 000634 5860 6008/1266_      00008  5264  1                      WHILE ('LT R6,FEBLINK',NZ)  Go through front-end list...
 00063E D507 6014 C5B8_00014 005B8  5281  1                      IF    (FEBNAME,EQ,CVSCNKW),BEGIN  Matches this front-end...
 000648 9640 6071      00071        5299  2                        SET   FEBFDET
 00064C 47F0 83BE            007B8  5305  2                        B     CMDEND
1MCOM     (MCOM2047) (12:36) (15MAR04) Command Processor                                                                    Page   18
0Current Usings:  (FEB,R6) (SEGCB,R7) (*,R8) (CCB,R10) (CV,R12) (CCB-@@,R13)
0Loc    Object Code    Addr1 Addr2  Stmt Lv Lineno    Source Statement           (Hibal 5, Asmedit 3.3)  HLASM R4.0  2004/03/15 12.36
+___    ______ ____    _____ _____  ____ __ ______    ______ _________
0000650                             5306  1                      END
 000650 47F0 823A            00634  5310                       END
 DROP   FEB,R6
                                    5320
 000654 18F7/58E0 841E_             5321                       SEGTB (R1),(R0)
 00065C 4110 83D6/4100_      007D0  5345                       SEG   'is an unknown front-end.'
 00066C 1B00/18F7/58E0_             5362                       SEGWR
 000676 41F0 0004            00004  5386                       LA    R15,4               Error
 00067A 47F0 83C0            007BA  5387                       B     CMDEXIT
                                    5388                       ¿þþþþþþþþþþþþþþþþþþþþÜ
                                    5389                       Ÿ  Monitor command.  Ÿ
                                    5390                       ¾þþþþþþþþþþþþþþþþþþþþ»
 00067E D603 C2E8 C2E8_002E8 002E8  5391              MONITOR  IF    (CVMONCMD,NZ),BEGIN  Monitor already active...
 000688 59A0 C2E8/4770_      002E8  5408  1                      IF    (CMDR,EQ,CVMONCMD),BEGIN
 000690 D703 C2E8 C2E8 002E8 002E8  5425  2                        CLEAR CVMONCMD            Reset monitoring
 000696 4110 845E/4100_      00858  5432  2                        SEG   'Monitoring stopped'
 0006A6                             5449  1                      END
                                    5453  1
 0006A6 82B0/47F0 82E0 006A6 0068E  5454  1                      ELSE  BEGIN
 0006AA 4110 8426/4100_      00820  5465  2                        SEG   'Monitor already active (CMD='
 0006BA 5810 C2E8/4100_      002E8  5482  2                        SEGHX L:CVMONCMD,8
 0006CA 4110 84C4/4100_      008BE  5506  2                        SEG   ')'
 0006DA                             5523  1                      END
 0006DA 1B00/18F7/58E0_             5527  1                      SEGWR
 0006E4 47F0 83BE            007B8  5551  1                      B     CMDEND
 0006E8                             5552                       END
                                    5556
 0006E8 41F0 0014            00014  5557                       LA    R15,20              Request to start monitoring
 0006EC 47F0 83C0            007BA  5558                       B     CMDEXIT
                                    5559                       ¿þþþþþþþþþþþþþþþþþþþþþþþþþþþþþþþþþþþþþþþþþþþþþþþþþþÜ
                                    5560                       Ÿ  Match front-end name and then call that device  Ÿ
                                    5561                       Ÿ    driver's CMD routine.                         Ÿ
                                    5562                       ¾þþþþþþþþþþþþþþþþþþþþþþþþþþþþþþþþþþþþþþþþþþþþþþþþþþ»
 0006F0 4160 C294            00294  5563              CMDCHECK LA    R6,CVFEBQH-(FEBLINK-FEB)  Dummy first link
 0006F4                             5564                       LOOP  BEGIN
 USING  FEB,R6                      5570  1                      WITH  (FEB,R6)
 0006F4 5860 6008/1266_      00008  5583  1                      WHILE ('LT R6,FEBLINK',NZ)  Go through front-end list...
 0006FE D507 6014 C5B8_00014 005B8  5600  1                      IF    (FEBNAME,EQ,CVSCNKW),BEGIN  Matches this front-end...
 000708 4110 6000            00000  5618  2                        LA    R1,FEB
 00070C 41F0 7000            00000  5619  2                        LA    R15,SEGCB
 000710 1FEE/43E0 600D              5620  2                        LC    RAR,FEBTYPE
 000716 59E0 8446/47D0_      00840  5627  2                        IF    (RAR,GT,FEBTMAX),'CLEAR RAR'
 000720 89E0 0002            00002  5653  2                        SLL   RAR,2
 000724 58EE 8396/12EE       00790  5654  2                        LT    RAR,CMDFE(RAR)      Appropriate routine
 00072A 4780 8336/05EE       00730  5658  2                        IF    NZ,'BALR RAR,RAR'
 000730 833A/47F0 8364 00730 0072C  5675  2                        ELSE  BEGIN
 000734 4110 6014/4100_      00014  5686  3                          SEGT  FEBNAME
 000744 4110 8470/4100_      0086A  5714  3                          SEG   ' has no command processor.'
 000754 1B00/18F7/58E0_             5731  3                          SEGWR
 00075E                             5755  2                        END
 00075E 47F0 83BE            007B8  5759  2                        B     CMDEND              All done
 000762                             5760  1                      END
 000762 47F0 82FA            006F4  5764                       END
 DROP   FEB,R6
1MCOM     (MCOM2047) (12:36) (15MAR04) Command Processor                                                                    Page   19
0Current Usings:  (SEGCB,R7) (*,R8) (CCB,R10) (CV,R12) (CCB-@@,R13)
0Loc    Object Code    Addr1 Addr2  Stmt Lv Lineno    Source Statement           (Hibal 5, Asmedit 3.3)  HLASM R4.0  2004/03/15 12.36
+___    ______ ____    _____ _____  ____ __ ______    ______ _________
0                                   5774
 000766 18F7/58E0 841E_             5775                       SEGTB (R1),(R0)
 00076E 4110 83EE/4100_      007E8  5799                       SEG   'is unrecognized.'
 00077E 1B00/18F7/58E0_             5816                       SEGWR
 000788 41F0 0004            00004  5840                       LA    R15,4               Error
 00078C 47F0 83C0            007BA  5841                       B     CMDEXIT
                                    5842                       ¿þþþþþþþþþþþþþþþþþþþþþþþþþþþþþþþþþþþþþþþþþþþþþþþþþþþþþþÜ
                                    5843                       Ÿ  Command processors for the different device types.  Ÿ
                                    5844                       ¾þþþþþþþþþþþþþþþþþþþþþþþþþþþþþþþþþþþþþþþþþþþþþþþþþþþþþþ»
 000790 00000000                    5845              CMDFE    DC    A(0)
 000794 00000000                    5846                       DC    V(CONSCMD)          FEBTCONS
                                    5847              *         DC    V(ASYNCMD)          FEBTASYN
 000798 00000000                    5848                       DC    A(0)
                                    5849              *         DC    V(PDPCMD)           FEBTPDP
 00079C 00000000                    5850                       DC    A(0)
                                    5851              *         DC    V(VTAMCMD)          FEBTVTAM
 0007A0 00000000                    5852                       DC    A(0)
 0007A4 00000000                    5853                       DC    V(VIRTCMD)          FEBTVIRT
                                    5854              *         DC    V(NSCCMD)           FEBTNSC
 0007A8 00000000                    5855                       DC    A(0)
 0007AC 00000000                    5856                       DC    V(ELFCMD)           FEBTELF
                                    5857              *         DC    V(ALFCMD)           FEBTALF
 0007B0 00000000                    5858                       DC    A(0)
                                    5859              *         DC    V(ECUCMD)           FEBTECU
 0007B4 00000000                    5860                       DC    A(0)
                                    5861              CMDFEMX  EQU   (*-CMDFE-4)/4,,C'N'
 0007B8                             5862                       DS    0S(CMDFEMX-FEBTMAX,FEBTMAX-CMDFEMX)
                                    5863
 0007B8 1BFF                        5864              CMDEND   CLEAR R15                 A-ok
 0007BA 41D0 D034/982B_      00034  5869              CMDEXIT  PEND
 DROP   SEGCB,R7
 DROP   CCB,R10
 DROP   CCB-@@,R13
 DROP   *,R8
                                    5906
                                    5907                       QLTORG
1MCOM     (MCOM2047) (12:36) (15MAR04) Command Processor                                                                    Page   20
0Current Usings:  (CV,R12)
0Loc    Object Code    Addr1 Addr2  Stmt Lv Lineno    Source Statement           (Hibal 5, Asmedit 3.3)  HLASM R4.0  2004/03/15 12.36
+___    ______ ____    _____ _____  ____ __ ______    ______ _________
0                                   5945              ¿þþþþþþþþþþþþþþþþþþþþþþþþþþþþþþþþþþþþþþþþþþþþþþþþþþþþþþþþþþþþþþþþþþþþþÜ
                                    5946              Ÿ                                                                     Ÿ
                                    5947              Ÿ  SHOWLINS -- The SHOW LINES command.                                Ÿ
                                    5948              Ÿ                                                                     Ÿ
                                                      ¾þþþþþþþþþþþþþþþþþþþþþþþþþþþþþþþþþþþþþþþþþþþþþþþþþþþþþþþþþþþþþþþþþþþþþ»
0000000                00000 00008  5949              SHLNSWA  RECORD BEGIN
 000000                             5957  1                      DS    D                   Place holder
 000008                00008 00008  5958                       END
                                    5967              þþþþ
 0008C0 50E0 D044/902B_      00044  5968              SHOWLINS PROC  SHLNSWA
 USING  *,R8
 USING  SHLNSWA-@@,R13
 USING  CCB,R10                     6015                       WITH  CCB,(SEGCB,R7)      Entry assumption
 USING  SEGCB,R7
                                    6037
 0008DA D707 D04C D04C 00000 00000  6038                       CLEAR SHLNSWA             Clear work area
                                    6045                       ¿þþþþþþþþþþþþþþþþþþþþþþþþþþþþþþþþÜ
                                    6046                       Ÿ  Scan for SHOW LINES options.  Ÿ
                                    6047                       ¾þþþþþþþþþþþþþþþþþþþþþþþþþþþþþþþþ»
 0008E0 4110 8160/41F0_      00A2A  6048                       SCAN  LINSPRT,CVSCNCB     SHOW LINES options
 0008EE 4770 8300            00BCA  6067                       BNZ   LTRCEXIT            Error of some sort
                                    6068                       ¿þþþþþþþþþþþþþþþþþþþþþþþþþþþþþþþþþþþþþþÜ
                                    6069                       Ÿ  Build the SHOW LINES result table.  Ÿ
                                    6070                       ¾þþþþþþþþþþþþþþþþþþþþþþþþþþþþþþþþþþþþþþ»
 0008F2 4110 8824/4100_      010EE  6071                       SEGCR '100|Milten lines;'
                                    6089
 000902 4110 8716/4100_      00FE0  6090                       SEGCR '101|Tag|Line|Account|Name|flags;'
 000912 4110 8835/4100_      010FF  6108                       SEGCR '102|STRING|NUMBER|STRING|STRING|STRING;'
                                    6126                       ¿þþþþþþþþþþþþþþþþþþþþþþþþþþþþÜ
                                    6127                       Ÿ  Go through list of SCBs.  Ÿ
                                    6128                       ¾þþþþþþþþþþþþþþþþþþþþþþþþþþþþ»
 000922 4150 C2B0            002B0  6129                       LA    R5,CVSCBQH-(SCBLINK-SCB)  Dummy first entry
 000926                             6130                       LOOP  BEGIN
 USING  SCB,R5                      6136  1                      WITH  (SCB,R5)
 000926 5850 5004/1255_      00004  6149  1                      WHILE ('LT R5,SCBLINK',NZ)
                                    6166  1
 000930 D502 885C 5000_01126 00000  6167  1                      IF    (SCB,NE,'SCB'),EXIT  Something changed, scram
                                    6187  1
 00093A 4110 885F/4100_      01129  6188  1                      SEG   '|'
 00094A 4110 5080/4100_      00080  6205  1                      SEG   SCBSTAG             Session tag
 00095A 4110 885F/4100_      01129  6232  1                      SEG   '|'
 00096A 4810 50F8/1B00_      000F8  6249  1                      SEGDC LH:SCBNO            Line number
 000978 4110 885F/4100_      01129  6269  1                      SEG   '|'
 000988 4110 5127/4100_      00127  6286  1                      SEG   SCBGRP              Account
 000998 4110 8860/4100_      0112A  6313  1                      SEG   '.'
 0009A8 4110 5124/4100_      00124  6330  1                      SEG   SCBUSER
 0009B8 4110 885F/4100_      01129  6357  1                      SEG   '|'
 0009C8 4110 5136/4100_      00136  6374  1                      SEGT  SCBNAME             User name
 0009D8 4110 885F/4100_      01129  6402  1                      SEG   '|'
 0009E8 9180 515F/47E0_0015F        6419  1                      IF    SCBFTRC,'SEG "T"'
 000A00 4110 8862/4100_      0112C  6456  1                      SEGCR ';'
 000A10 47F0 805C            00926  6474                       END
 DROP   SCB,R5
1MCOM     (MCOM2047) (12:36) (15MAR04) Command Processor                                                                    Page   21
0Current Usings:  (SEGCB,R7) (*,R8) (CCB,R10) (CV,R12) (SHLNSWA-@@,R13)
0Loc    Object Code    Addr1 Addr2  Stmt Lv Lineno    Source Statement           (Hibal 5, Asmedit 3.3)  HLASM R4.0  2004/03/15 12.36
+___    ______ ____    _____ _____  ____ __ ______    ______ _________
0                                   6484
 000A14 4110 8863/4100_      0112D  6485                       SEGCR '109|End of table;'
                                    6503
 000A24 1BFF                        6504                       CLEAR R15                 A-ok
 000A26 47F0 8176            00A40  6508                       B     LINSEXIT            All done
                                    6509                       ¿þþþþþþþþþþþþþþþþþþþþþþþÜ
                                    6510                       Ÿ  SHOW LINES options.  Ÿ
                                    6511                       ¾þþþþþþþþþþþþþþþþþþþþþþþ»
 000A2A FF000A2E                    6512              LINSPRT  SCKW  ,LINSEMSG
                                    6514              þþþþ
 000A2E 18F7/58E0 8746_             6515              LINSEMSG SEG   (R1),(R0)
 000A36 4110 8752/4100_      0101C  6539                       SETMSG ': invalid SHOW LINES option.'
                                    6543
 000A3E 1BFF                        6544              LINSERR  CLEAR R15                 Universal return code
 000A40 41D0 D038/982B_      00038  6549              LINSEXIT PEND
 DROP   SEGCB,R7
 DROP   CCB,R10
 DROP   SHLNSWA-@@,R13
 DROP   *,R8
1MCOM     (MCOM2047) (12:36) (15MAR04) Command Processor                                                                    Page   22
0Current Usings:  (CV,R12)
0Loc    Object Code    Addr1 Addr2  Stmt Lv Lineno    Source Statement           (Hibal 5, Asmedit 3.3)  HLASM R4.0  2004/03/15 12.36
+___    ______ ____    _____ _____  ____ __ ______    ______ _________
0                                   6587              ¿þþþþþþþþþþþþþþþþþþþþþþþþþþþþþþþþþþþþþþþþþþþþþþþþþþþþþþþþþþþþþþþþþþþþþÜ
                                    6588              Ÿ                                                                     Ÿ
                                    6589              Ÿ  SHOWLTRC -- The SHOW LTRACE command.                               Ÿ
                                    6590              Ÿ                                                                     Ÿ
                                    6591              Ÿ  The syntax for the command is:                                     Ÿ
                                    6592              Ÿ    SHOW LTRACE line-number                                          Ÿ
                                    6593              Ÿ                                                                     Ÿ
                                                      ¾þþþþþþþþþþþþþþþþþþþþþþþþþþþþþþþþþþþþþþþþþþþþþþþþþþþþþþþþþþþþþþþþþþþþþ»
0000000                00000 00018  6594              SHLTRCWA RECORD BEGIN
 000000                             6602  1           SHLTLNO    DS    F                   Milten line-number
 000004                             6603  1           SHLTACCT   DS    CL(L'SCBACCT)       Tracee's account
                                    6604  1
 00000C                             6605  1           SHLTRCQH   DS    A                   Trace entry queue head
 000010                             6606  1           SHLTRCQT   DS    A                   Trace entry queue tail
                                    6607  1
 000014                             6608  1           SHLTAFT    DS    F                   Show unique trace ids after this
 000018                00018 00018  6609                       END
                                    6618              þþþþ
 000A54 50E0 D044/902B_      00044  6619              SHOWLTRC PROC  SHLTRCWA
 USING  *,R8
 USING  SHLTRCWA-@@,R13
 USING  CCB,R10                     6666                       WITH  CCB,(SEGCB,R7)      Entry assumption
 USING  SEGCB,R7
                                    6688
 000A6E D717 D04C D04C 00000 00000  6689                       CLEAR SHLTRCWA            Clear work area
                                    6696                       ¿þþþþþþþþþþþþþþþþþþþþþþþþþþþþþþþþþþþþþÜ
                                    6697                       Ÿ  Check for system privileged user.  Ÿ
                                    6698                       ¾þþþþþþþþþþþþþþþþþþþþþþþþþþþþþþþþþþþþþ»
 000A74 9101 A000/4710_00000        6699                       IF    ~CCBFPRIV,BEGIN     Not priv'd...
 000A7C 4110 86E0/4100_      0113E  6714  1                      SETMSG 'Privileged command.'
 000A84 47F0 816A            00BC8  6718  1                      B     LTRCERR
 000A88                             6719                       END
                                    6723                       ¿þþþþþþþþþþþþþþþþþþþþþþþþþþþþþþþþþÜ
                                    6724                       Ÿ  Scan for SHOW LTRACE options.  Ÿ
                                    6725                       ¾þþþþþþþþþþþþþþþþþþþþþþþþþþþþþþþþþ»
 000A88 4110 8138/41F0_      00B96  6726                       SCAN  LTRCPRT,CVSCNCB     SHOW LTRACE options
                                    6745
 000A96 58F0 D04C            00000  6746                       L     R15,SHLTLNO         Session no.
 000A9A BDF3 C390/4750_      00390  6747                       IF    (R15,LGE,CVMAXSES),BEGIN  Too high...
 000AA2 181F/1B00/18F7_             6764  1                      SEGDC (R15)
 000AAE 4110 862A/4100_      01088  6785  1                      SETMSG ': MILTEN line-number is out of bounds.'
 000AB6 47F0 816A            00BC8  6789  1                      B     LTRCERR
 000ABA                             6790                       END
                                    6794
 000ABA 89F0 0002            00002  6795                       SLL   R15,2               Session no times 4
 000ABE 5810 C2BC            002BC  6796                       L     R1,CVSATP           Session index table ptr
 000AC2 586F 1000/1266       00000  6797                       LT    R6,@R1(R15)         Get SCB ptr
 000AC8 4720 8098            00AF6  6801                       IF    NP,BEGIN
 000ACC 4110 86F3/4100_      01151  6812  1                      SEG   'Line '
 000ADC 5810 D04C/1B00_      00000  6829  1                      SEGDC L:SHLTLNO
 000AEA 4110 8650/4100_      010AE  6850  1                      SETMSG ' is not logged on.'
 000AF2 47F0 816A            00BC8  6854  1                      B     LTRCERR
 000AF6                             6855                       END
1MCOM     (MCOM2047) (12:36) (15MAR04) Command Processor                                                                    Page   23
0Current Usings:  (SEGCB,R7) (*,R8) (CCB,R10) (CV,R12) (SHLTRCWA-@@,R13)
0Loc    Object Code    Addr1 Addr2  Stmt Lv Lineno    Source Statement           (Hibal 5, Asmedit 3.3)  HLASM R4.0  2004/03/15 12.36
+___    ______ ____    _____ _____  ____ __ ______    ______ _________
0                                   6859                       ¿þþþþþþþþþþþþþþþþþþþþþþþþþþþþþþÜ
                                    6860                       Ÿ  Save information from SCB.  Ÿ
                                    6861                       ¾þþþþþþþþþþþþþþþþþþþþþþþþþþþþþþ»
 USING  SCB,R6                      6862                       WITH  (SCB,R6),BEGIN
 000AF6 D204 D050 6124 00004 00124  6876  1                      MVC   SHLTACCT,SCBACCT
 000AFC D203 D058 60DC 0000C 000DC  6877  1                      MVC   SHLTRCQH,SCBTRCQH
 000B02 D203 D05C 60E0 00010 000E0  6878  1                      MVC   SHLTRCQT,SCBTRCQT
 DROP   SCB,R6                      6879                       END
                                    6887                       ¿þþþþþþþþþþþþþþþþþþþþþþþþþþþþþþÜ
                                    6888                       Ÿ  Display trace table title.  Ÿ
                                    6889                       ¾þþþþþþþþþþþþþþþþþþþþþþþþþþþþþþ»
 000B08 D603 D060 D060_00014 00014  6890                       IF    (SHLTAFT,Z),BEGIN   Give title...
 000B12 4110 8662/4100_      010C0  6906  1                      SEG   'Trace of line '
 000B22 5810 D04C/1B00_      00000  6923  1                      SEGDC L:SHLTLNO
 000B30 4110 86F8/4100_      01156  6944  1                      SEG   ' '
 000B40 4110 D053/4100_      00007  6961  1                      SEG   SHLTACCT+3,2        gg
 000B50 4110 86CC/4100_      0112A  6990  1                      SEG   '.'
 000B60 4110 D050/4100_      00004  7007  1                      SEG   SHLTACCT,3          uuu
 000B70 4110 86F9/4100_      01157  7036  1                      SEGWR ':'
 000B80                             7054                       END
                                    7058                       ¿þþþþþþþþþþþþþþþþþþþþþþþþþþþþþþþþÜ
                                    7059                       Ÿ  Display trace table entries.  Ÿ
                                    7060                       ¾þþþþþþþþþþþþþþþþþþþþþþþþþþþþþþþþ»
 000B80 5800 D060            00014  7061                       L     R0,SHLTAFT          Display trace entries after this
 000B84 58F0 D058            0000C  7062                       L     R15,SHLTRCQH        Get first STRC entry
 000B88 4DE0 8180            00BDE  7063                       LCALL DISPLTRC            Display trace table
 000B8C 4770 816C            00BCA  7065                       BNZ   LTRCEXIT            Error of some sort
                                    7066
 000B90 1BFF                        7067                       CLEAR R15                 A-ok
 000B92 47F0 816C            00BCA  7071                       B     LTRCEXIT            All done
                                    7072                       ¿þþþþþþþþþþþþþþþþþþþþþþþþÜ
                                    7073                       Ÿ  SHOW LTRACE options.  Ÿ
                                    7074                       ¾þþþþþþþþþþþþþþþþþþþþþþþþ»
 000B96 40000BA840                  7075              LTRCPRT  SCKW  ,LTRCLNO,I
 000B9B C4000BB0C1C6E3C5            7077                       SCKW  AFTER,LTRCAFT,(P,I)
 000BA4 FF000BB8                    7079                       SCKW  ,LTRCEMSG
                                    7081              þþþþ
 000BA8 D203 D04C F000 00000 00000  7082              LTRCLNO  MVC   SHLTLNO,@R15        Save line-number
 000BAE 07FE                        7083                       BR    RAR
                                    7084
 000BB0 D203 D060 F000 00014 00000  7085              LTRCAFT  MVC   SHLTAFT,@R15        Save after unique trace id num
 000BB6 07FE                        7086                       BR    RAR
                                    7087
 000BB8 18F7/58E0 85B2_             7088              LTRCEMSG SEG   (R1),(R0)
 000BC0 4110 86FA/4100_      01158  7112                       SETMSG ': invalid SHOW LTRACE option.'
                                    7116
 000BC8 1BFF                        7117              LTRCERR  CLEAR R15                 Universal return code
 000BCA 41D0 D048/982B_      00048  7122              LTRCEXIT PEND
 DROP   SEGCB,R7
 DROP   CCB,R10
 DROP   SHLTRCWA-@@,R13
 DROP   *,R8
1MCOM     (MCOM2047) (12:36) (15MAR04) Command Processor                                                                    Page   24
0Current Usings:  (CV,R12)
0Loc    Object Code    Addr1 Addr2  Stmt Lv Lineno    Source Statement           (Hibal 5, Asmedit 3.3)  HLASM R4.0  2004/03/15 12.36
+___    ______ ____    _____ _____  ____ __ ______    ______ _________
0                                   7160              ¿þþþþþþþþþþþþþþþþþþþþþþþþþþþþþþþþþþþþþþþþþþþþþþþþþþþþþþþþþþþþþþþþþþþþþÜ
                                    7161              Ÿ                                                                     Ÿ
                                    7162              Ÿ  DISPLTRC -- Routine to display the server trace table.             Ÿ
                                    7163              Ÿ                                                                     Ÿ
                                    7164              Ÿ    On entry:                                                        Ÿ
                                    7165              Ÿ      R0  - Match uid's higher than this                             Ÿ
                                    7166              Ÿ      R15 - First STRC entry in queue (0=none)                       Ÿ
                                    7167              Ÿ                                                                     Ÿ
                                    7168              Ÿ    On exit, R15 (and cc):                                           Ÿ
                                    7169              Ÿ      0 - ok                                                         Ÿ
                                    7170              Ÿ      nz- error of some kind                                         Ÿ
                                    7171              Ÿ                                                                     Ÿ
                                                      ¾þþþþþþþþþþþþþþþþþþþþþþþþþþþþþþþþþþþþþþþþþþþþþþþþþþþþþþþþþþþþþþþþþþþþþ»
0000000                00000 00008  7172              DTRCWA   RECORD BEGIN
 000000                             7180  1           DTRCUID    DS    F                   Match uid's ge this
 000004                             7181  1           DTRCHID    DS    F                   Highest uid so far
 000008                00008 00008  7182                       END
                                    7191              þþþþ
 000BDE 50E0 D044/902B_      00044  7192              DISPLTRC PROC  DTRCWA
 USING  *,R8
 USING  DTRCWA-@@,R13
 000BF8 D707 D04C D04C 00000 00000  7239                       CLEAR DTRCWA
                                    7246
 USING  CCB,R10                     7247                       WITH  CCB,(SEGCB,R7)      Entry assumption
 USING  SEGCB,R7
                                    7269
 000BFE 186F                        7270                       LR    R6,R15
 000C00 5000 D04C            00000  7271                       ST    R0,DTRCUID          Save uid
                                    7272                       ¿þþþþþþþþþþþþþþþþþþþþþþþþþþþþþþþþþþþþþÜ
                                    7273                       Ÿ  Complain if trace table is empty.  Ÿ
                                    7274                       ¾þþþþþþþþþþþþþþþþþþþþþþþþþþþþþþþþþþþþþ»
 000C04 1266/4770 8032              7275                       IF    (R6,Z),BEGIN        No trace entries...
 000C0A 4110 858D/4100_      01175  7289  1                      SEGCR 'Trace table is empty.'
 000C1A                             7307                       END
                                    7311                       ¿þþþþþþþþþþþþþþþþþþþþþþþþþþþþþþþþþþþþþþþÜ
                                    7312                       Ÿ  Step through the trace entry queue.  Ÿ
                                    7313                       ¾þþþþþþþþþþþþþþþþþþþþþþþþþþþþþþþþþþþþþþþ»
 000C1A 8036/47F0 8070 00C1A 00C08  7314                       ELSE  BEGIN               Display the trace table...
 000C1E 4150 01F4            001F4  7325  1                      LA    R5,500              Maximum loop counter
 000C22 1255/47D0 8070              7326  1                      WHILE (R5,POS),BEGIN      Go through STRC queue...
 USING  STRC,R6                     7342  2                        WITH  (STRC,R6)
 000C28 D203 D050 6024 00004 00024  7355  2                        MVC   DTRCHID,STRCUID     Save highest uid
                                    7356  2
 000C2E D503 6024 D04C_00024 00000  7357  2                        IF    (STRCUID,GT,DTRCUID),BEGIN  Display this trace...
 000C38 41F0 6000            00000  7375  3                          LA    R15,STRC
 000C3C 4DE0 80AE            00C96  7376  3                          LCALL DISPLTRE            Display this trace entry
 000C40 4780 8060/47F0_      00C48  7378  3                          IF    NZ,'EXIT DISPLTRC'  Trouble, scram
 000C48                             7397  2                        END
                                    7401  2
 000C48 5860 6004/1266       00004  7402  2                        LT    R6,STRCLINK         Get next trace entry
 000C4E 4780 8070            00C58  7406  2                        IF    Z,EXIT              No more, all done
                                    7420  2
 000C52 0650                        7421  2                        DECR  R5                  One less entry
1MCOM     (MCOM2047) (12:36) (15MAR04) Command Processor                                                                    Page   25
0Current Usings:  (SEGCB,R7) (*,R8) (CCB,R10) (CV,R12) (DTRCWA-@@,R13)
0Loc    Object Code    Addr1 Addr2  Stmt Lv Lineno    Source Statement           (Hibal 5, Asmedit 3.3)  HLASM R4.0  2004/03/15 12.36
+___    ______ ____    _____ _____  ____ __ ______    ______ _________
0000C54 47F0 803A            00C22  7423  1                      END
 DROP   STRC,R6
 000C58                             7433                       END
                                    7437
 000C58 4110 85A2/4100_      0118A  7438                       SEG   'Highest trace id = '
 000C68 5810 D050/1B00_      00004  7455                       SEGDC L:DTRCHID
 000C76 1B00/18F7/58E0_             7476                       SEGCR
                                    7500
 000C80 1BFF                        7501                       CLEAR R15                 A-ok
 000C82 41D0 D038/982B_      00038  7505                       PEND
 DROP   SEGCB,R7
 DROP   CCB,R10
 DROP   DTRCWA-@@,R13
 DROP   *,R8
1MCOM     (MCOM2047) (12:36) (15MAR04) Command Processor                                                                    Page   26
0Current Usings:  (CV,R12)
0Loc    Object Code    Addr1 Addr2  Stmt Lv Lineno    Source Statement           (Hibal 5, Asmedit 3.3)  HLASM R4.0  2004/03/15 12.36
+___    ______ ____    _____ _____  ____ __ ______    ______ _________
0                                   7542              ¿þþþþþþþþþþþþþþþþþþþþþþþþþþþþþþþþþþþþþþþþþþþþþþþþþþþþþþþþþþþþþþþþþþþþþÜ
                                    7543              Ÿ                                                                     Ÿ
                                    7544              Ÿ  DISPLTRE -- Routine to format a specific trace table entry.        Ÿ
                                    7545              Ÿ                                                                     Ÿ
                                    7546              Ÿ    On entry:                                                        Ÿ
                                    7547              Ÿ      R15 - STRC ptr                                                 Ÿ
                                    7548              Ÿ                                                                     Ÿ
                                    7549              Ÿ    On exit, R15 (and cc):                                           Ÿ
                                    7550              Ÿ      0 - ok                                                         Ÿ
                                    7551              Ÿ      nz- error of some kind                                         Ÿ
                                    7552              Ÿ                                                                     Ÿ
                                                      ¾þþþþþþþþþþþþþþþþþþþþþþþþþþþþþþþþþþþþþþþþþþþþþþþþþþþþþþþþþþþþþþþþþþþþþ»
0000000                00000 00010  7553              SVDTWA   RECORD BEGIN
 000000                             7561  1           SVDTTODW   DS    XL16                Time of day work area
 000010                00010 00010  7562                       END
                                    7571              þþþþ
 000C96 50E0 D044/902B_      00044  7572              DISPLTRE PROC  SVDTWA
 USING  *,R8
 USING  SVDTWA-@@,R13
 USING  CCB,R10                     7619                       WITH  CCB,(SEGCB,R7)      Entry assumption
 USING  SEGCB,R7
                                    7641
 000CB0 186F                        7642                       LR    R6,R15
 USING  STRC,R6                     7643                       WITH  (STRC,R6)
                                    7656                       ¿þþþþþþþþþþþþþþþþþþþþþþþþþþþÜ
                                    7657                       Ÿ  Format the trace entry.  Ÿ
                                    7658                       ¾þþþþþþþþþþþþþþþþþþþþþþþþþþþ»
 000CB2 D503 839C 6000_0103C 00000  7659                       IF    (STRC,NE,'STRC'),BEGIN  Shucks...
 000CBC 4110 8432/4100_      010D2  7676  1                      SEGCR 'Bad trace entry queue!'
 000CCC 41F0 0004            00004  7694  1                      LA    R15,4
 000CD0 47F0 8168            00E08  7695  1                      B     STREEXIT
 000CD4                             7696                       END
                                    7700
 000CD4 9801 6008            00008  7701                       LM    R0,R1,STRCCLCK      Get time stamp
 000CD8 41F0 D04C            00000  7702                       LA    R15,SVDTTODW
 000CDC 58E0 83A0/0DEE       01040  7703                       VCALL FMTTIME             Get "hh:mm:ss.th"
 000CE2 18F7/58E0 83A4_             7707                       SEGB  (R1),(R0)
                                    7731                       ¿þþþþþþþþþþþþþþþþþþþþþþþþþÜ
                                    7732                       Ÿ  Display trace header.  Ÿ
                                    7733                       ¾þþþþþþþþþþþþþþþþþþþþþþþþþ»
 000CEA 4110 6011/4100_      00011  7734                       SEGT  STRCTYPE            Trace type
 000CFA 4110 8448/4100_      010E8  7762                       SEG   ' ('
 000D0A 4810 602A/1B00_      0002A  7779                       SEGDC LH:STRCDLEN         Actual data length
 000D18 D501 602A 6028_0002A 00028  7799                       IF    (STRCDLEN,NE,STRCACTLEN),BEGIN  Truncated trace...
 000D22 4110 83A8/4100_      01048  7817  1                      SEG   ' of '
 000D32 4810 6028/1B00_      00028  7834  1                      SEGDC LH:STRCACTLEN
 000D40                             7854                       END
 000D40 4110 8360/4100_      01000  7858                       SEGCR ' bytes):'
1MCOM     (MCOM2047) (12:36) (15MAR04) Command Processor                                                                    Page   27
0Current Usings:  (STRC,R6) (SEGCB,R7) (*,R8) (CCB,R10) (CV,R12) (SVDTWA-@@,R13)
0Loc    Object Code    Addr1 Addr2  Stmt Lv Lineno    Source Statement           (Hibal 5, Asmedit 3.3)  HLASM R4.0  2004/03/15 12.36
+___    ______ ____    _____ _____  ____ __ ______    ______ _________
0                                   7876                       ¿þþþþþþþþþþþÜ
                                    7877                       Ÿ  Prefix.  Ÿ
                                    7878                       ¾þþþþþþþþþþþ»
 000D50 4110 83AC/4100_      0104C  7879                       SETMSG '<-- '
 000D58 D504 84FD 6011_0119D 00011  7883                       IF    (STRCTYPE,EQ,'Quiet'),'SETMSG "(<) "'
 000D6A D50E 8502 6011_011A2 00011  7909                       IF    (STRCTYPE,EQ,'Read completion'),'SETMSG "--> "'
 000D7C 18F7/58E0 8370_             7935                       SEG   (R1),(R0)
                                    7958                       ¿þþþþþþþþþÜ
                                    7959                       Ÿ  Data.  Ÿ
                                    7960                       ¾þþþþþþþþþ»
 000D84 1B33                        7961                       CLEAR R3                  No alternate buffer
 000D86 D601 602A 602A_0002A 0002A  7965                       IF    (STRCDLEN,NZ),BEGIN  Display trace data...
 000D90 4110 602C/4800_      0002C  7981  1                      SETMSG STRCDATA,LH:STRCDLEN  Trace data
                                    7994  1
 000D98 9180 6010/47E0_00010        7995  1                      IF    STRCFASCII,BEGIN    Trace data is ASCII...
 000DA0 4110 001E            0001E  8010  2                        LA    R1,STMPSUBP
 000DA4 182E                        8011  2                        LR    R2,RAR
 000DA6 58E0 83B8/0DEE       01058  8012  2                        VCALL NGETCORE            Get a temporary buffer
 000DAC 1831                        8016  2                        LR    R3,R1
 000DAE 18E3/48F0 602A_             8017  2                        MOVEL @R3,STRCDATA,LH:STRCDLEN  Copy buffer
 000DBC 1813/4800 602A              8038  2                        SETMSG (R3),LH:STRCDLEN
 000DC2 58E0 83BC/0DEE       0105C  8049  2                        VCALL TOEBCDIC            Convert ASCII to EBCDIC
 000DC8                             8053  1                      END
                                    8057  1
 000DC8 5820 83C0            01060  8058  1                      L     R2,=A(X'15')        EBCDIC NL
 000DCC 41F0 83AC            0104C  8059  1                      LA    R15,=C'<-- '
 000DD0 D504 84FD 6011_0119D 00011  8060  1                      IF    (STRCTYPE,EQ,'Quiet'),'LA R15,=C"(<) "'
 000DDE D50E 8502 6011_011A2 00011  8083  1                      IF    (STRCTYPE,EQ,'Read completion'),'LA R15,=C"--> "'
 000DEC 4DE0 817C            00E1C  8106  1                      LCALL NLFMT               Write lines in mixed format
 000DF0                             8108                       END
 000DF0 1B00/18F7/58E0_             8112                       SEGCCR
                                    8136
 000DFA 1213/4780 8166              8137                       IF    ('LTR R1,R3',NZ),BEGIN  Free alternate buffer...
 000E00 58E0 83C8/0DEE       01068  8150  1                      VCALL FREECORE            Release temporary buffer
 000E06                             8154                       END
                                    8158
 000E06 1BFF                        8159                       CLEAR R15                 A-ok
                                    8163
 000E08 41D0 D040/982B_      00040  8164              STREEXIT PEND
 DROP   STRC,R6
 DROP   SEGCB,R7
 DROP   CCB,R10
 DROP   SVDTWA-@@,R13
 DROP   *,R8
1MCOM     (MCOM2047) (12:36) (15MAR04) Command Processor                                                                    Page   28
0Current Usings:  (CV,R12)
0Loc    Object Code    Addr1 Addr2  Stmt Lv Lineno    Source Statement           (Hibal 5, Asmedit 3.3)  HLASM R4.0  2004/03/15 12.36
+___    ______ ____    _____ _____  ____ __ ______    ______ _________
0                                   8207              ¿þþþþþþþþþþþþþþþþþþþþþþþþþþþþþþþþþþþþþþþþþþþþþþþþþþþþþþþþþþþþþþþþþþþþþÜ
                                    8208              Ÿ                                                                     Ÿ
                                    8209              Ÿ  NLFMT -- Routine to seg text and start a new line every time       Ÿ
                                    8210              Ÿ    an "escape" character is found.  The caller passes up to four    Ÿ
                                    8211              Ÿ    characters which are to be considered ESCAPE characters.         Ÿ
                                    8212              Ÿ                                                                     Ÿ
                                    8213              Ÿ    Based on Wylbur's ESCFMT routine.                                Ÿ
                                    8214              Ÿ                                                                     Ÿ
                                    8215              Ÿ    On entry:                                                        Ÿ
                                    8216              Ÿ      R1,R0 - line loc, len                                          Ÿ
                                    8217              Ÿ      R15 - 4 char continuation prompt ptr                           Ÿ
                                    8218              Ÿ      R2 - four bytes of ESCAPE characters (a X'00' means ignore)    Ÿ
                                    8219              Ÿ                                                                     Ÿ
                                                      ¾þþþþþþþþþþþþþþþþþþþþþþþþþþþþþþþþþþþþþþþþþþþþþþþþþþþþþþþþþþþþþþþþþþþþþ»
0000000                00000 00100  8220              ESCWA    RECORD BEGIN
 000000                             8228  1           ESCTRT     DS    XL256               Working TRT table
 000100                00100 00100  8229                       END
                                    8238              þþþþ
 000E1C 50E0 D044/902B_      00044  8239              NLFMT    PROC  ESCWA
 USING  *,R8
 USING  ESCWA-@@,R13
 USING  CCB,R10                     8286                       WITH  CCB,(SEGCB,R7)      Entry assumption
 USING  SEGCB,R7
                                    8308                       ¿þþþþþþþþþþþþþþþþþþþþþþþþþþþþþþþþþþþþþþþþþþþþþþþþþþþþþþþþÜ
                                    8309                       Ÿ  Set up TRT table to stop on all "escape" characters.  Ÿ
                                    8310                       ¾þþþþþþþþþþþþþþþþþþþþþþþþþþþþþþþþþþþþþþþþþþþþþþþþþþþþþþþþ»
 000E36 D7FF D04C D04C 00000 00000  8311                       CLEAR ESCTRT              Initialize working TRT table
 000E3C 1222/4780 8036              8318                       WHILE (R2,NZ),BEGIN       Set ESC characters...
 000E42 1832                        8334  1                      LR    R3,R2
 000E44 5430 8246            0106C  8335  1                      N     R3,=A(X'FF')
 000E48 4780 802E            00E54  8336  1                      IF    NZ,BEGIN            Set stop byte in TRT table...
 000E4C 4133 D04C            00000  8347  2                        LA    R3,ESCTRT(R3)
 000E50 92FF 3000      00000        8348  2                        MVI   @R3,X'FF'           Stop on this character
 000E54                             8349  1                      END
                                    8353  1
 000E54 8820 0008            00008  8354  1                      SRL   R2,8                Next byte
 000E58 47F0 8016            00E3C  8355                       END
                                    8360
 000E5C 1830                        8361                       LR    R3,R0               Save len...
 000E5E 1841                        8362                       LR    R4,R1               ...loc
 000E60 185F                        8363                       LR    R5,R15              ...and indentation prompt
                                    8364                       ¿þþþþþþþþþþþþþÜ
                                    8365                       Ÿ  Seg text.  Ÿ
                                    8366                       ¾þþþþþþþþþþþþþ»
 000E62 1233/47D0 80A4              8367                       WHILE (R3,POS),BEGIN      Go through text...
 000E68 18F3                        8383  1                      LR    R15,R3
 000E6A 59F0 824A/47D0_      01070  8384  1                      CEIL  R15,256
 000E76 411F 4000            00000  8403  1                      LA    R1,@R4(R15)
 000E7A 06F0/12FF/4740_             8404  1                      DTEX  R15,'TRT @R4(0),ESCTRT'  Find control char
 000E86 1B14                        8441  1                      SR    R1,R4               No. of EBCDIC chars
 000E88 1801                        8442  1                      LR    R0,R1
 000E8A 1814                        8443  1                      LR    R1,R4
 000E8C 1A40                        8444  1                      AR    R4,R0               Update...
1MCOM     (MCOM2047) (12:36) (15MAR04) Command Processor                                                                    Page   29
0Current Usings:  (SEGCB,R7) (*,R8) (CCB,R10) (CV,R12) (ESCWA-@@,R13)
0Loc    Object Code    Addr1 Addr2  Stmt Lv Lineno    Source Statement           (Hibal 5, Asmedit 3.3)  HLASM R4.0  2004/03/15 12.36
+___    ______ ____    _____ _____  ____ __ ______    ______ _________
0000E8E 1B30                        8445  1                      SR    R3,R0               ...ptrs
 000E90 1200/47D0 8074_             8446  1                      IF    (R0,POS),'LCALL MIXFMT'  Write the text
 000E9A 1B00/18F7/58E0_             8467  1                      SEGCCR
                                    8491  1
 000EA4 1233/47D0 80A0              8492  1                      IF    (R3,POS),BEGIN      We stopped on an ESC...
 000EAA 5930 824E/47D0_      01074  8506  2                        IF    (R3,GT,1),'SEG @R5,4'  Continuation line
                                    8557  2
 000EC0 4140 4001            00001  8558  2                        LA    R4,@R4+1            Skip over the ESC character
 000EC4 0630                        8559  2                        DECR  R3                  One less character now
 000EC6                             8561  1                      END
 000EC6 47F0 803C            00E62  8565                       END
                                    8570
 000ECA 1B00/18F7/58E0_             8571                       SEGCCR
 000ED4 41D0 D130/982B_      00130  8595                       PEND
 DROP   SEGCB,R7
 DROP   CCB,R10
 DROP   ESCWA-@@,R13
 DROP   *,R8
1MCOM     (MCOM2047) (12:36) (15MAR04) Command Processor                                                                    Page   30
0Current Usings:  (CV,R12)
0Loc    Object Code    Addr1 Addr2  Stmt Lv Lineno    Source Statement           (Hibal 5, Asmedit 3.3)  HLASM R4.0  2004/03/15 12.36
+___    ______ ____    _____ _____  ____ __ ______    ______ _________
0                                   8632              ¿þþþþþþþþþþþþþþþþþþþþþþþþþþþþþþþþþþþþþþþþþþþþþþþþþþþþþþþþþþþþþþþþþþþþþÜ
                                    8633              Ÿ                                                                     Ÿ
                                    8634              Ÿ  MIXFMT -- Routine to seg line in mixed EBCDIC and HEX              Ÿ
                                    8635              Ÿ    format.  (This routine was "borrowed" from Wylbur.)              Ÿ
                                    8636              Ÿ                                                                     Ÿ
                                    8637              Ÿ    On entry:                                                        Ÿ
                                    8638              Ÿ      R1,R0 - line loc, len                                          Ÿ
                                    8639              Ÿ                                                                     Ÿ
                                                      ¾þþþþþþþþþþþþþþþþþþþþþþþþþþþþþþþþþþþþþþþþþþþþþþþþþþþþþþþþþþþþþþþþþþþþþ»
0000000                00000 00008  8640              MIXWA    RECORD BEGIN
 000000                             8648  1           MIXWORK    DS    D
 000008                00008 00008  8649                       END
                                    8658              þþþþ
 000EE8 50E0 D044/902B_      00044  8659              MIXFMT   PROC  MIXWA
 USING  *,R8
 USING  MIXWA-@@,R13
 USING  CCB,R10                     8706                       WITH  CCB,(SEGCB,R7)      Entry assumption
 USING  SEGCB,R7
                                    8728
 000F02 1830                        8729                       LR    R3,R0
 000F04 1841                        8730                       LR    R4,R1
                                    8731
 000F06 1233/47D0 80D8              8732                       WHILE (R3,POS),BEGIN
 000F0C 58F0 8186            01078  8748  1                      L     R15,=A(MIXTBL)
 000F10 18EF                        8749  1                      LR    R14,R15
 000F12 18F3                        8750  1                      LR    R15,R3
 000F14 59F0 817E/47D0_      01070  8751  1                      CEIL  R15,256
 000F20 411F 4000            00000  8770  1                      LA    R1,@R4(R15)
 000F24 06F0/12FF/4740_             8771  1                      DTEX  R15,'TRT @R4(0),@R14'  Find control char
 000F30 1B14                        8808  1                      SR    R1,R4               No. of EBCDIC chars
 000F32 1801                        8809  1                      LR    R0,R1
 000F34 1814                        8810  1                      LR    R1,R4
 000F36 1A40                        8811  1                      AR    R4,R0               Update...
 000F38 1B30                        8812  1                      SR    R3,R0               ...ptrs
 000F3A 18F7/58E0 811E_             8813  1                      SEG   (R1),(R0)
 000F42 1233/47D0 80D4              8836  1                      IF    (R3,POS),BEGIN
 000F48 4110 82BF/4100_      011B1  8850  2                        SEG  '<'
 000F58 4150 0004            00004  8867  2                        LA    R5,4
 000F5C                             8868  2                        LOOP  BEGIN
 000F5C 58F0 8186            01078  8874  3                          L     R15,=A(MIXTBL)
 000F60 18EF                        8875  3                          LR    R14,R15
 000F62 1FFF/43F0 4000              8876  3                          LC    R15,@R4             Control char
 000F68 1F22/432F E000              8883  3                          LC    R2,@R14(R15)
 000F6E 1222/4780 80C4              8890  3                          IF    (R2,Z),EXIT         Not a control char, scram
 000F74 4100 0002/4110_      00002  8907  3                          BTX   MIXWORK,2,(R15)
 000F82 18F7/58E0 811E_             8929  3                          SEG   (R1),(R0)
 000F8A 4140 4001            00001  8952  3                          LA    R4,@R4+1
 000F8E 0630                        8953  3                          DECR  R3
 000F90 0650                        8955  3                          DECR  R5
 000F92 1233/47D0 80BA_             8957  3                          IF    ((R3,POS),AND,(R5,NP)),'SEGBLANK; LA R5,4'
 000FAC 1233/47D0 80C4              9007  3                          UNTIL (R3,~POS)
 000FB2 47F0 806A            00F5C  9025  2                        END
 000FB6 4110 82C0/4100_      011B2  9030  2                        SEG   '>'
1MCOM     (MCOM2047) (12:36) (15MAR04) Command Processor                                                                    Page   31
0Current Usings:  (SEGCB,R7) (*,R8) (CCB,R10) (CV,R12) (MIXWA-@@,R13)
0Loc    Object Code    Addr1 Addr2  Stmt Lv Lineno    Source Statement           (Hibal 5, Asmedit 3.3)  HLASM R4.0  2004/03/15 12.36
+___    ______ ____    _____ _____  ____ __ ______    ______ _________
0000FC6                             9047  1                      END
 000FC6 47F0 8014            00F06  9051                       END
                                    9056
 000FCA 41D0 D038/982B_      00038  9057                       PEND
 DROP   SEGCB,R7
 DROP   CCB,R10
 DROP   MIXWA-@@,R13
 DROP   *,R8
                                    9093
                                    9094                       QLTORG
                                    9163              ¿þþþþþþþþþþþþþþþþþþþþþþþþþþþþþþþþþþþþþþþþþþþþþþþþþþþþþþþþþþþþþþþþþþþþþÜ
                                    9164              Ÿ                                                                     Ÿ
                                    9165              Ÿ  MIXTBL -- TRT table for non-printing characters.  All              Ÿ
                                    9166              Ÿ       non-printing characters are represented by an X'FF'.          Ÿ
                                    9167              Ÿ       Modified, 11/6/90, to make X'6A' a non-printing               Ÿ
                                    9168              Ÿ       character.                                                    Ÿ
                                    9169              Ÿ                                                                     Ÿ
                                    9170              Ÿ                 0 1 2 3 4 5 6 7 8 9 A B C D E F                     Ÿ
                                    9171              Ÿ                                                                     Ÿ
                                                      ¾þþþþþþþþþþþþþþþþþþþþþþþþþþþþþþþþþþþþþþþþþþþþþþþþþþþþþþþþþþþþþþþþþþþþþ»
00011C0 FFFFFFFFFFFFFFFF            9172              MIXTBL   DC    X'FFFFFFFFFFFFFFFFFFFFFFFFFFFFFFFF'  0
 0011D0 FFFFFFFFFFFFFFFF            9173                       DC    X'FFFFFFFFFFFFFFFFFFFFFFFFFFFFFFFF'  1
 0011E0 FFFFFFFFFFFFFFFF            9174                       DC    X'FFFFFFFFFFFFFFFFFFFFFFFFFFFFFFFF'  2
 0011F0 FFFFFFFFFFFFFFFF            9175                       DC    X'FFFFFFFFFFFFFFFFFFFFFFFFFFFFFFFF'  3
 001200 00FFFFFFFFFFFFFF            9176                       DC    X'00FFFFFFFFFFFFFFFFFF000000000000'  4
 001210 00FFFFFFFFFFFFFF            9177                       DC    X'00FFFFFFFFFFFFFFFFFF000000000000'  5
 001220 0000FFFFFFFFFFFF            9178                       DC    X'0000FFFFFFFFFFFFFFFFFF0000000000'  6
 001230 FFFFFFFFFFFFFFFF            9179                       DC    X'FFFFFFFFFFFFFFFFFF00000000000000'  7
 001240 FF00000000000000            9180                       DC    X'FF000000000000000000FFFFFFFFFFFF'  8
 001250 FF00000000000000            9181                       DC    X'FF000000000000000000FFFFFFFFFFFF'  9
 001260 FFFF000000000000            9182                       DC    X'FFFF0000000000000000FFFFFF00FFFF'  A
 001270 FFFFFFFFFFFFFFFF            9183                       DC    X'FFFFFFFFFFFFFFFFFFFFFFFFFF00FFFF'  B
 001280 0000000000000000            9184                       DC    X'00000000000000000000FFFFFFFFFFFF'  C
 001290 0000000000000000            9185                       DC    X'00000000000000000000FFFFFFFFFFFF'  D
 0012A0 00FF000000000000            9186                       DC    X'00FF0000000000000000FFFFFFFFFFFF'  E
 0012B0 0000000000000000            9187                       DC    X'00000000000000000000FFFFFFFFFFFF'  F
1MCOM     (MCOM2047) (12:36) (15MAR04) Command Processor                                                                    Page   32
0Current Usings:  (CV,R12)
0Loc    Object Code    Addr1 Addr2  Stmt Lv Lineno    Source Statement           (Hibal 5, Asmedit 3.3)  HLASM R4.0  2004/03/15 12.36
+___    ______ ____    _____ _____  ____ __ ______    ______ _________
0                                   9189              ¿þþþþþþþþþþþþþþþþþþþþþþþþþþþþþþþþþþþþþþþþþþþþþþþþþþþþþþþþþþþþþþþþþþþþþÜ
                                    9190              Ÿ                                                                     Ÿ
                                    9191              Ÿ  SHOWCORE -- The SHOW CORE command.                                 Ÿ
                                    9192              Ÿ                                                                     Ÿ
                                    9193              Ÿ  The syntax for the command is:                                     Ÿ
                                    9194              Ÿ    SC [hexaddr|symbol] [+ nnn] [length] [OFFSET] [ASCII]            Ÿ
                                    9195              Ÿ                                                                     Ÿ
                                                      ¾þþþþþþþþþþþþþþþþþþþþþþþþþþþþþþþþþþþþþþþþþþþþþþþþþþþþþþþþþþþþþþþþþþþþþ»
0000000                00000 00001  9196              SHOWCORW RECORD BEGIN
 000000 00                          9204  1           SHOCORFL   FLAG
 SHOCORFL.SHCFLASC 80 ONES          9208  1                      FLAG  SHCFLASC             - ASCII data format
 SHOCORFL.SHCFLDMP 40 ONES          9213  1                      FLAG  SHCFLDMP             - EBCDIC Dump format
 SHOCORFL.SHCFLOFF 20 ONES          9218  1                      FLAG  SHCFLOFF             - Show offset
 SHOCORFL.SHCFLADD 10 ONES          9223  1                      FLAG  SHCFLADD             - Show address
 000001                00001 00001  9228                       END
                                    9237              þþþþ
 0012C0 50E0 D044/902B_      00044  9238              SHOWCORE PROC  SHOWCORW
 USING  *,R8
 USING  SHOWCORW-@@,R13
 USING  CCB,R10                     9285                       WITH  CCB,(SEGCB,R7)      Entry assumption
 USING  SEGCB,R7
                                    9307
 0012DA 9200 D04C      00000        9308                       CLEAR SHOWCORW            Clear work area
 0012DE 1B55                        9315                       CLEAR R5                  Clear start address
 0012E0 1B66                        9319                       CLEAR R6                  Clear length
                                    9323
 0012E2 1B11/41F0 C5B4_             9324                       SCAN  ,CVSCNCB            Scan next token
 0012EE 1200/47D0 8138              9340                       IF    (R0,NP),SHCERR
 0012F4 58E0 82BA/0DEE       01584  9357                       VCALL ADDRSYM             Lookup symbol
 0012FA 4740 8036/185F       01300  9361                       IF    ~NEG,'LR R5,R15'    Symbol address
 001300 803A/47F0 8046 01300 012FC  9378                       ELSE  BEGIN               Not a symbol...
 001304 58E0 82BE/0DEE       01588  9389  1                      XTB   (R1),(R0)           Maybe it's hex
 00130A 4770 8138            01402  9404  1                      BNZ   SHCERR
 00130E 185F                        9405  1                      LR    R5,R15              Set start address
 001310                             9406                       END
                                    9410
 001310 1B11/41F0 C5B4_             9411                       SCAN  ,CVSCNCB
 00131C 1200/47D0 809E_             9427                       IF    ((R0,P),AND,(@R1,EQ,'+')),BEGIN
 00132A 1B11/41F0 C5B4_             9456  1                      SCAN  ,CVSCNCB
 001336 1200/47D0 8138              9472  1                      IF    (R0,NP),SHCERR
 00133C 95F0 1000/4770_00000        9489  1                      IF    (@R1,EQ,'0'),BEGIN
 001344 58E0 82BE/0DEE       01588  9505  2                        XTB   (R1),(R0)
 00134A                             9520  1                      END
 00134A 8084/47F0 808A 0134A 01342  9524  1                      ELSE  BEGIN
 00134E 58E0 82C2/0DEE       0158C  9535  2                        DTB   (R1),(R0)
 001354                             9550  1                      END
 001354 1200/4770 8138              9554  1                      IF    (R0,NZ),SHCERR
 00135A 1A5F                        9571  1                      AR    R5,R15
 00135C 1B11/41F0 C5B4_             9572  1                      SCAN  ,CVSCNCB            Scan next token
 001368                             9588                       END
                                    9592
 001368 1200/47D0 80F8              9593                       WHILE (R0,P),BEGIN        Scan any more options
 00136E D502 82E6 C5B8_015B0 005B8  9609  1                      IF    (CVSCNKW,EQ,'OFF'),'SET SHCFLOFF'
1MCOM     (MCOM2047) (12:36) (15MAR04) Command Processor                                                                    Page   33
0Current Usings:  (SEGCB,R7) (*,R8) (CCB,R10) (CV,R12) (SHOWCORW-@@,R13)
0Loc    Object Code    Addr1 Addr2  Stmt Lv Lineno    Source Statement           (Hibal 5, Asmedit 3.3)  HLASM R4.0  2004/03/15 12.36
+___    ______ ____    _____ _____  ____ __ ______    ______ _________
000137C 80B6/47F0 80C4_0137C 01376  9637  1                      ELSEIF (CVSCNKW,EQ,'ASC'),'SET SHCFLASC'
 00138E 80C8/47F0 80E8 0138E 01388  9674  1                      ELSE  BEGIN
 001392 95F0 1000/4770_00000        9685  2                        IF    (@R1,EQ,'0'),BEGIN
 00139A 58E0 82BE/0DEE       01588  9701  3                          XTB   (R1),(R0)
 0013A0                             9716  2                        END
 0013A0 80DA/47F0 80E0 013A0 01398  9720  2                        ELSE  BEGIN
 0013A4 58E0 82C2/0DEE       0158C  9731  3                          DTB   (R1),(R0)
 0013AA                             9746  2                        END
 0013AA 1200/4770 8138              9750  2                        IF    (R0,NZ),SHCERR
 0013B0 186F                        9767  2                        LR    R6,R15
 0013B2                             9768  1                      END
 0013B2 1B11/41F0 C5B4_             9772  1                      SCAN  ,CVSCNCB
 0013BE 47F0 809E            01368  9788                       END
                                    9793
 0013C2 1200/4770 8138              9794                       IF    (R0,NZ),SHCERR
                                    9811
 0013C8 9120 D04C/4710_00000        9812                       IF    ~SHCFLOFF,'SET SHCFLADD'
 0013D4 9180 D04C/4710_00000        9838                       IF    ~SHCFLASC,'SET SHCFLDMP'
 0013E0 1266/4770 8120_             9864                       IF    (R6,Z),'LA R6,8*16'  Default is 8 lines of text
 0013EA 1815/1806/18F7_             9884                       HEXDUMP (R5),(R6),OPT=LC:SHOCORFL
                                    9918
 0013FC 1BFF                        9919                       CLEAR R15                 A-ok
 0013FE 47F0 813C            01406  9923                       EXIT
                                    9926
 001402 41F0 0004            00004  9927              SHCERR   LA    R15,4               Error
 001406 41D0 D034/982B_      00034  9928                       PEND
 DROP   SEGCB,R7
 DROP   CCB,R10
 DROP   SHOWCORW-@@,R13
 DROP   *,R8
1MCOM     (MCOM2047) (12:36) (15MAR04) Command Processor                                                                    Page   34
0Current Usings:  (CV,R12)
0Loc    Object Code    Addr1 Addr2  Stmt Lv Lineno    Source Statement           (Hibal 5, Asmedit 3.3)  HLASM R4.0  2004/03/15 12.36
+___    ______ ____    _____ _____  ____ __ ______    ______ _________
0                                   9965              ¿þþþþþþþþþþþþþþþþþþþþþþþþþþþþþþþþþþþþþþþþþþþþþþþþþþþþþþþþþþþþþþþþþþþþþÜ
                                    9966              Ÿ                                                                     Ÿ
                                    9967              Ÿ  PATCORE -- Patch core command.                                     Ÿ
                                    9968              Ÿ                                                                     Ÿ
                                    9969              Ÿ  The syntax for the command is:                                     Ÿ
                                    9970              Ÿ    PC hexaddr|symbol [+ nnn] [replacement data]                     Ÿ
                                    9971              Ÿ                                                                     Ÿ
                                                      ¾þþþþþþþþþþþþþþþþþþþþþþþþþþþþþþþþþþþþþþþþþþþþþþþþþþþþþþþþþþþþþþþþþþþþþ»
0000000                00000 00108  9972              PCWA     RECORD BEGIN
 000000                             9980  1           PCLOC      DS    F                   Patch address
 000004                             9981  1           PCTLEN     DS    H                   Replacement text length
 000006                             9982  1                      DS    H                   Reserved
 000008                             9983  1           PCTEXT     DS    CL128               Replacement text
 000088                             9984  1           PCXTEXT    DS    CL128               Old text
 000108                00108 00108  9985                       END
                                    9994              þþþþ
 00141A 50E0 D044/902B_      00044  9995              PATCORE  PROC  PCWA
 USING  *,R8
 USING  PCWA-@@,R13
 USING  CCB,R10                    10042                       WITH  CCB,(SEGCB,R7)      Entry assumption
 USING  SEGCB,R7
                                   10064
 001434 D7FF D04C D04C_00000 00000 10065                       CLEAR PCWA                Clear work area
                                   10073                       ¿þþþþþþþþþþþþþþþþþþþþþþþþþþþþþþþþþþþþþÜ
                                   10074                       Ÿ  Check for system privileged user.  Ÿ
                                   10075                       ¾þþþþþþþþþþþþþþþþþþþþþþþþþþþþþþþþþþþþþ»
 001440 9101 A000/4710_00000       10076                       IF    ~CCBFPRIV,BEGIN     Not priv'd...
 001448 4110 8192/4100_      015B6 10091  1                      SEG   'Privileged command.'
 001458 47F0 8142            01566 10108  1                      B     PCERR
 00145C                            10109                       END
                                   10113                       ¿þþþþþþþþþþþþþþþþþþþþþþþþþþþþþþþþþþÜ
                                   10114                       Ÿ  Scan "hexaddr|symbol [+ nnn]".  Ÿ
                                   10115                       ¾þþþþþþþþþþþþþþþþþþþþþþþþþþþþþþþþþþ»
 00145C 1B11/41F0 C5B4_            10116                       SCAN  ,CVSCNCB            Scan next token
 001468 1200/47D0 8142             10132                       IF    (R0,NP),PCERR
 00146E 58E0 8160/0DEE       01584 10149                       VCALL ADDRSYM             Get symbol addr in R15
 001474 47B0 805E            01482 10153                       IF    NEG,BEGIN           Not a symbol...
 001478 58E0 8164/0DEE       01588 10164  1                      XTB   (R1),(R0)           Maybe it's hex
 00147E 4770 8142            01566 10179  1                      BNZ   PCERR
 001482                            10180                       END
 001482 50F0 D04C            00000 10184                       ST    R15,PCLOC           Save patch core location
                                   10185
 001486 1B11/41F0 C5B4_            10186                       SCAN  ,CVSCNCB
 001492 1200/47D0 80C0_            10202                       IF    ((R0,P),AND,(@R1,EQ,'+')),BEGIN
 0014A0 1B11/41F0 C5B4_            10231  1                      SCAN  ,CVSCNCB
 0014AC 1200/47D0 8142             10247  1                      IF    (R0,NP),PCERR
 0014B2 95F0 1000/4770_00000       10264  1                      IF    (@R1,EQ,'0'),BEGIN
 0014BA 58E0 8164/0DEE       01588 10280  2                        XTB   (R1),(R0)
 0014C0                            10295  1                      END
 0014C0 80A0/47F0 80A6 014C0 014B8 10299  1                      ELSE  BEGIN
 0014C4 58E0 8168/0DEE       0158C 10310  2                        DTB   (R1),(R0)
 0014CA                            10325  1                      END
 0014CA 1200/4770 8142             10329  1                      IF    (R0,NZ),PCERR
1MCOM     (MCOM2047) (12:36) (15MAR04) Command Processor                                                                    Page   35
0Current Usings:  (SEGCB,R7) (*,R8) (CCB,R10) (CV,R12) (PCWA-@@,R13)
0Loc    Object Code    Addr1 Addr2  Stmt Lv Lineno    Source Statement           (Hibal 5, Asmedit 3.3)  HLASM R4.0  2004/03/15 12.36
+___    ______ ____    _____ _____  ____ __ ______    ______ _________
00014D0 5AF0 D04C            00000 10346  1                      A     R15,PCLOC           Add offset to address
 0014D4 50F0 D04C            00000 10347  1                      ST    R15,PCLOC           Save patch core location
 0014D8 1B11/41F0 C5B4_            10348  1                      SCAN  ,CVSCNCB            Scan next token
 0014E4                            10364                       END
                                   10368                       ¿þþþþþþþþþþþþþþþþþþþþþþþþþþþþÜ
                                   10369                       Ÿ  Scan "replacement data".  Ÿ
                                   10370                       ¾þþþþþþþþþþþþþþþþþþþþþþþþþþþþ»
 0014E4 1200/47D0 8142             10371                       IF    (R0,NP),PCERR       Missing data
 0014EA 41F0 D054            00008 10388                       LA    R15,PCTEXT          Put text here
 0014EE 58E0 8174/0DEE       01598 10389                       VCALL DEQSTR              Dequote text
 0014F4 47B0 80DE            01502 10393                       IF    NEG,BEGIN           Not a string...
 0014F8 58E0 8178/0DEE       0159C 10404  1                      VCALL HEXSTR              Check for hex
 0014FE 4740 8142            01566 10408  1                      BM    PCERR               Invalid hex digits
 001502                            10409                       END
 001502 5900 817C/47D0_      015A0 10413                       CEIL  R0,L'PCTEXT
 00150E 4000 D050            00004 10432                       STH   R0,PCTLEN           Save data length
                                   10433                       ¿þþþþþþþþþþþþþþþÜ
                                   10434                       Ÿ  Patch core.  Ÿ
                                   10435                       ¾þþþþþþþþþþþþþþþ»
 001512 4820 D050            00004 10436                       LH    R2,PCTLEN           Length of replacement text
 001516 5830 D04C            00000 10437                       L     R3,PCLOC            Put text here
 00151A 18F2                       10438                       LR    R15,R2
 00151C 06F0/12FF/4740_            10439                       MOVE  R15,PCXTEXT,@R3     Save the old data
                                   10477
 001528 18F2                       10478                       LR    R15,R2
 00152A 06F0/12FF/4740_            10479                       MOVE  R15,@R3,PCTEXT      Patch core
                                   10517                       ¿þþþþþþþþþþþþþþþþþþþþþþþþÜ
                                   10518                       Ÿ  Report the old data.  Ÿ
                                   10519                       ¾þþþþþþþþþþþþþþþþþþþþþþþþ»
 001536 4110 81A5/4100_      015C9 10520                       SEG   'Old data was '
 001546 4110 D0D4/1802       00088 10537                       SETMSG PCXTEXT,(R2)
 00154C 41F0 7000            00000 10551                       LA    R15,SEGCB
 001550 58E0 8180/0DEE       015A4 10552                       VCALL HEXSEG
 001556 1B00/18F7/58E0_            10556                       SEGWR
                                   10580
 001560 1BFF                       10581                       CLEAR R15                 A-ok
 001562 47F0 8146            0156A 10585                       EXIT
                                   10588
 001566 41F0 0004            00004 10589              PCERR    LA    R15,4               Error
 00156A 41D0 D138/982B_      00138 10590                       PEND
 DROP   SEGCB,R7
 DROP   CCB,R10
 DROP   PCWA-@@,R13
 DROP   *,R8
                                   10626
                                   10627                       QLTORG
1MCOM     (MCOM2047) (12:36) (15MAR04) Command Processor                                                                    Page   36
0Current Usings:  (CV,R12)
0Loc    Object Code    Addr1 Addr2  Stmt Lv Lineno    Source Statement           (Hibal 5, Asmedit 3.3)  HLASM R4.0  2004/03/15 12.36
+___    ______ ____    _____ _____  ____ __ ______    ______ _________
0                                  10657              ¿þþþþþþþþþþþþþþþþþþþþþþþþþþþþþþþþþþþþþþþþþþþþþþþþþþþþþþþþþþþþþþþþþþþþþÜ
                                   10658              Ÿ                                                                     Ÿ
                                   10659              Ÿ  XMONMSG -- Routine to write monitor message.                       Ÿ
                                   10660              Ÿ                                                                     Ÿ
                                   10661              Ÿ    On entry:                                                        Ÿ
                                   10662              Ÿ      R1,R0 - message loc, len                                       Ÿ
                                   10663              Ÿ                                                                     Ÿ
                                                      ¾þþþþþþþþþþþþþþþþþþþþþþþþþþþþþþþþþþþþþþþþþþþþþþþþþþþþþþþþþþþþþþþþþþþþþ»
00015E2 50E0 D044/902B_      00044 10664              XMONMSG  XPROC
 USING  *,R8
 0015FC 58A0 C2E8/12AA       002E8 10702                       LT    CMDR,CVMONCMD       CMD ptr for monitor (or zero)
 001602 4780 8024            01610 10706                       IF    NZ,BEGIN            We are monitoring...
 USING  CMD,R10                    10717  1                      WITH  CMD
 001606 41F0 A188/58E0_      00188 10729  1                      SEG   (R1),(R0),.CMDSG    Write the message
 DROP   CMD,R10                    10752                       END
                                   10761
 001610 41D0 D030/982B_      00030 10762                       PEND
 DROP   *,R8
-                                  10783              ¿þþþþþþþþþþþþþþþþþþþþþþþþþþþþþþþþþþþþþþþþþþþþþþþþþþþþþþþþþþþþþþþþþþþþþÜ
                                   10784              Ÿ                                                                     Ÿ
                                   10785              Ÿ  XMONHEX -- Routine to write monitor data in hex.                   Ÿ
                                   10786              Ÿ                                                                     Ÿ
                                   10787              Ÿ    On entry:                                                        Ÿ
                                   10788              Ÿ      R1,R0 - data loc, len                                          Ÿ
                                   10789              Ÿ                                                                     Ÿ
                                                      ¾þþþþþþþþþþþþþþþþþþþþþþþþþþþþþþþþþþþþþþþþþþþþþþþþþþþþþþþþþþþþþþþþþþþþþ»
0001624 50E0 D044/902B_      00044 10790              XMONHEX  XPROC
 USING  *,R8
 00163E 58A0 C2E8/12AA       002E8 10828                       LT    CMDR,CVMONCMD       CMD ptr for monitor (or zero)
 001644 4780 8034            01662 10832                       IF    NZ,BEGIN            We are monitoring...
 USING  CMD,R10                    10843  1                      WITH  CMD
                                   10855  1                      SETMSG (R1),(R0)           Data
 001648 41F0 A188            00188 10865  1                      LA    R15,CMDSG           SEGCB ptr
 00164C 4DE0 812C            0175A 10866  1                      LCALL HEXSEG              Write it in hex
 001650 4110 85F8/4100_      01C26 10868  1                      SEG   ' ',,.CMDSG         Add a blank
 DROP   CMD,R10                    10885                       END
                                   10894
 001662 41D0 D030/982B_      00030 10895                       PEND
 DROP   *,R8
1MCOM     (MCOM2047) (12:36) (15MAR04) Command Processor                                                                    Page   37
0Current Usings:  (CV,R12)
0Loc    Object Code    Addr1 Addr2  Stmt Lv Lineno    Source Statement           (Hibal 5, Asmedit 3.3)  HLASM R4.0  2004/03/15 12.36
+___    ______ ____    _____ _____  ____ __ ______    ______ _________
0                                  10916              ¿þþþþþþþþþþþþþþþþþþþþþþþþþþþþþþþþþþþþþþþþþþþþþþþþþþþþþþþþþþþþþþþþþþþþþÜ
                                   10917              Ÿ                                                                     Ÿ
                                   10918              Ÿ  XMONDUMP -- Routine to write hex dump of area specified.           Ÿ
                                   10919              Ÿ                                                                     Ÿ
                                   10920              Ÿ    On entry:                                                        Ÿ
                                   10921              Ÿ      R1,R0 - area loc, len                                          Ÿ
                                   10922              Ÿ                                                                     Ÿ
                                                      ¾þþþþþþþþþþþþþþþþþþþþþþþþþþþþþþþþþþþþþþþþþþþþþþþþþþþþþþþþþþþþþþþþþþþþþ»
0001676 50E0 D044/902B_      00044 10923              XMONDUMP XPROC
 USING  *,R8
 001690 58A0 C2E8/12AA       002E8 10961                       LT    CMDR,CVMONCMD       CMD ptr for monitor (or zero)
 001696 4780 8028            016A8 10965                       IF    NZ,BEGIN            We are monitoring...
 USING  CMD,R10                    10976  1                      WITH  CMD
 00169A 41F0 A188/5820_      00188 10988  1                      HEXDUMP (R1),(R0),.CMDSG,OPT=L'HXDFLOFF  Show offset
 DROP   CMD,R10                    11015                       END
                                   11024
 0016A8 41D0 D030/982B_      00030 11025                       PEND
 DROP   *,R8
1MCOM     (MCOM2047) (12:36) (15MAR04) Command Processor                                                                    Page   38
0Current Usings:  (CV,R12)
0Loc    Object Code    Addr1 Addr2  Stmt Lv Lineno    Source Statement           (Hibal 5, Asmedit 3.3)  HLASM R4.0  2004/03/15 12.36
+___    ______ ____    _____ _____  ____ __ ______    ______ _________
0                                  11046              ¿þþþþþþþþþþþþþþþþþþþþþþþþþþþþþþþþþþþþþþþþþþþþþþþþþþþþþþþþþþþþþþþþþþþþþÜ
                                   11047              Ÿ                                                                     Ÿ
                                   11048              Ÿ  XMONREG -- Routine to write a register's contents.                 Ÿ
                                   11049              Ÿ                                                                     Ÿ
                                   11050              Ÿ    On entry:                                                        Ÿ
                                   11051              Ÿ      R0 - value of register                                         Ÿ
                                   11052              Ÿ                                                                     Ÿ
                                                      ¾þþþþþþþþþþþþþþþþþþþþþþþþþþþþþþþþþþþþþþþþþþþþþþþþþþþþþþþþþþþþþþþþþþþþþ»
00016BC 50E0 D044/902B_      00044 11053              XMONREG  XPROC
 USING  *,R8
 0016D6 58A0 C2E8/12AA       002E8 11091                       LT    CMDR,CVMONCMD       CMD ptr for monitor (or zero)
 0016DC 4780 803C            01702 11095                       IF    NZ,BEGIN            We are monitoring...
 USING  CMD,R10                    11106  1                      WITH  CMD
 0016E0 181F/4100 0008_            11118  1                      SEGHX (R15),8,.CMDSG      Write contents in hex
 0016F0 4110 8560/4100_      01C26 11142  1                      SEG   ' ',,.CMDSG         Add a blank
 DROP   CMD,R10                    11159                       END
                                   11168
 001702 41D0 D030/982B_      00030 11169                       PEND
 DROP   *,R8
1MCOM     (MCOM2047) (12:36) (15MAR04) Command Processor                                                                    Page   39
0Current Usings:  (CV,R12)
0Loc    Object Code    Addr1 Addr2  Stmt Lv Lineno    Source Statement           (Hibal 5, Asmedit 3.3)  HLASM R4.0  2004/03/15 12.36
+___    ______ ____    _____ _____  ____ __ ______    ______ _________
0                                  11190              ¿þþþþþþþþþþþþþþþþþþþþþþþþþþþþþþþþþþþþþþþþþþþþþþþþþþþþþþþþþþþþþþþþþþþþþÜ
                                   11191              Ÿ                                                                     Ÿ
                                   11192              Ÿ  XMONWR -- Routine to actually write the XMON text.                 Ÿ
                                   11193              Ÿ                                                                     Ÿ
                                   11194              Ÿ    On entry:                                                        Ÿ
                                   11195              Ÿ      R1,R0 - message loc, len                                       Ÿ
                                   11196              Ÿ                                                                     Ÿ
                                                      ¾þþþþþþþþþþþþþþþþþþþþþþþþþþþþþþþþþþþþþþþþþþþþþþþþþþþþþþþþþþþþþþþþþþþþþ»
0001716 50E0 D044/902B_      00044 11197              XMONWR   XPROC
 USING  *,R8
 001730 58A0 C2E8/12AA       002E8 11235                       LT    CMDR,CVMONCMD       CMD ptr for monitor (or zero)
 001736 4780 8026            01746 11239                       IF    NZ,BEGIN            We are monitoring...
 USING  CMD,R10                    11250  1                      WITH  CMD
 00173A 1B00/41F0 A188_            11262  1                      SEGWR ,,.CMDSG            Write the message
 DROP   CMD,R10                    11286                       END
                                   11295
 001746 41D0 D030/982B_      00030 11296                       PEND
 DROP   *,R8
1MCOM     (MCOM2047) (12:36) (15MAR04) Command Processor                                                                    Page   40
0Current Usings:  (CV,R12)
0Loc    Object Code    Addr1 Addr2  Stmt Lv Lineno    Source Statement           (Hibal 5, Asmedit 3.3)  HLASM R4.0  2004/03/15 12.36
+___    ______ ____    _____ _____  ____ __ ______    ______ _________
0                                  11317              ¿þþþþþþþþþþþþþþþþþþþþþþþþþþþþþþþþþþþþþþþþþþþþþþþþþþþþþþþþþþþþþþþþþþþþþÜ
                                   11318              Ÿ                                                                     Ÿ
                                   11319              Ÿ  HEXSEG -- Routine to seg data in hex format.                       Ÿ
                                   11320              Ÿ                                                                     Ÿ
                                   11321              Ÿ    On entry:                                                        Ÿ
                                   11322              Ÿ      R1,R0 - data loc, len                                          Ÿ
                                   11323              Ÿ      R15 - SEGCB ptr                                                Ÿ
                                   11324              Ÿ                                                                     Ÿ
                                                      ¾þþþþþþþþþþþþþþþþþþþþþþþþþþþþþþþþþþþþþþþþþþþþþþþþþþþþþþþþþþþþþþþþþþþþþ»
0000000                00000 00008 11325              HXSWA    RECORD BEGIN
 000000                            11333  1           HXSWORK    DS    D                   Work area
 000008                00008 00008 11334                       END
                                   11343              þþþþ
 00175A 50E0 D044/902B_      00044 11344              HEXSEG   XPROC HXSWA
 USING  *,R8
 USING  HXSWA-@@,R13
 001774 1830                       11393                       LR    R3,R0
 001776 1841                       11394                       LR    R4,R1
 001778 185F                       11395                       LR    R5,R15              Save SEGCB ptr
                                   11396                       SEGDEF (R5)
                                   11397
 00177A 1233/47D0 8056             11398                       WHILE (R3,POS),BEGIN      Keep stepping through the data...
 001780 58F0 4000/4100_      00000 11414  1                      BTX   HXSWORK,8,L:@R4     Convert a word to hex
                                   11437  1
 001792 1803                       11438  1                      LR    R0,R3
 001794 5900 8498/47D0_      01BFC 11439  1                      CEIL  R0,4
 0017A0 1A00                       11458  1                      AR    R0,R0               Get correct length for digits
                                   11459  1
 0017A2 4110 D04C/18F5_      00000 11460  1                      SEG   HXSWORK,(R0)        Seg what we have
 0017AE 4140 4004            00004 11484  1                      LA    R4,@R4+4            Next word
 0017B2 4B30 84BC            01C20 11485  1                      SH    R3,=H'4'
 0017B6 47F0 8016            0177A 11486                       END
                                   11491
 0017BA 41D0 D038/982B_      00038 11492              HEXFEXIT PEND
 DROP   HXSWA-@@,R13
 DROP   *,R8
1MCOM     (MCOM2047) (12:36) (15MAR04) Command Processor                                                                    Page   41
0Current Usings:  (CV,R12)
0Loc    Object Code    Addr1 Addr2  Stmt Lv Lineno    Source Statement           (Hibal 5, Asmedit 3.3)  HLASM R4.0  2004/03/15 12.36
+___    ______ ____    _____ _____  ____ __ ______    ______ _________
0                                  11520              ¿þþþþþþþþþþþþþþþþþþþþþþþþþþþþþþþþþþþþþþþþþþþþþþþþþþþþþþþþþþþþþþþþþþþþþÜ
                                   11521              Ÿ                                                                     Ÿ
                                   11522              Ÿ  HEXDUMP -- Write formatted hex dump.                               Ÿ
                                   11523              Ÿ                                                                     Ÿ
                                   11524              Ÿ    On entry:                                                        Ÿ
                                   11525              Ÿ      R0  - length of area                                           Ÿ
                                   11526              Ÿ      R1  - address of area                                          Ÿ
                                   11527              Ÿ      R2  - option flag byte                                         Ÿ
                                   11528              Ÿ      R15 - SEGCB address                                            Ÿ
                                   11529              Ÿ                                                                     Ÿ
                                                      ¾þþþþþþþþþþþþþþþþþþþþþþþþþþþþþþþþþþþþþþþþþþþþþþþþþþþþþþþþþþþþþþþþþþþþþ»
0000000                00000 0005A 11530              HXDWA    RECORD BEGIN
 000000                            11538  1           HXDSEGCB   DS    A                   SEGCB address
 000004                            11539  1           HXDTRT     DS    A                   Translate table address
                                   11540  1
 000008 00                         11541  1           HXDFLAGS   FLAG
 HXDFLAGS.HXDFLASC 80 ONES         11545  1                      FLAG  HXDFLASC             - ASCII data format
 HXDFLAGS.HXDFLDMP 40 ONES         11550  1                      FLAG  HXDFLDMP             - EBCDIC Dump format
 HXDFLAGS.HXDFLOFF 20 ONES         11555  1                      FLAG  HXDFLOFF             - Show offset
 HXDFLAGS.HXDFLADD 10 ONES         11560  1                      FLAG  HXDFLADD             - Show address
                                   11565  1
 000009                            11566  1           HXDUNPK    DS    CL2                 Working UNPK area
                                   11567  1
 00000B                            11568  1           HXDADDR    DS    CL8                 Address
 000013                            11569  1                      DS    CL2
 000015                            11570  1           HXDHEXDM   DS    0CL(8*4+3)          Hex bytes (dump format)
 000015                            11571  1           HXDHEX     DS    CL(16*3+1)          Hex bytes (data format)
 000046                            11572  1                      DS    CL2
 000048                            11573  1                      DS    C                   '|'
 000049                            11574  1                      DS    CL16                Char display
 000059                            11575  1                      DS    C                   '|'
                                   11576  1           HXDLINE    EQU   HXDADDR,*-HXDADDR,C'C'
 00005A                0005A 0005A 11577                       END
                                   11586              þþþþ
 0017CE 50E0 D044/902B_      00044 11587              HEXDUMP  PROC  HXDWA
 USING  *,R8
 USING  HXDWA-@@,R13
 0017E8 1851                       11634                       LR    R5,R1               Save start address
 0017EA 1861                       11635                       LR    R6,R1               Init data pointer
 0017EC 1870                       11636                       LR    R7,R0               Init data counter
                                   11637
 0017EE 4220 D054            00008 11638                       STC   R2,HXDFLAGS         Save option flags
 0017F2 9120 D054/4710_00008       11639                       IF    ~HXDFLOFF,'SET HXDFLADD'  Tidy up flags
 0017FE 9180 D054/4710_00008       11665                       IF    ~HXDFLASC,'SET HXDFLDMP'  Ditto
                                   11691
 00180A 50F0 D04C            00000 11692                       ST    R15,HXDSEGCB        Save SEGCB address
                                   11693                       SEGDEF L:HXDSEGCB
                                   11694
 00180E 9140 D054/47E0_00008       11695                       IF    HXDFLDMP,'MVC HXDTRT,=A(DUMPTBL)'   Dump fmt
 00181C 8048/47F0 804E_0181C 01814 11716                       ELSE  'MVC HXDTRT,=A(ASCIITBL)'           ASCII fmt
 001826 1277/47D0 8142             11733                       WHILE (R7,P),BEGIN        Loop on data count
 00182C 9240 D057      0000B       11749  1                      MVI   HXDLINE,C' '        Init print line buffer
 001830 D24D D058 D057 0000C 0000B 11750  1                      MVC   HXDLINE+1(L'HXDLINE-1),HXDLINE
1MCOM     (MCOM2047) (12:36) (15MAR04) Command Processor                                                                    Page   42
0Current Usings:  (*,R8) (CV,R12) (HXDWA-@@,R13)
0Loc    Object Code    Addr1 Addr2  Stmt Lv Lineno    Source Statement           (Hibal 5, Asmedit 3.3)  HLASM R4.0  2004/03/15 12.36
+___    ______ ____    _____ _____  ____ __ ______    ______ _________
0001836 18F6                       11751  1                      LR    R15,R6              Data address
 001838 9110 D054/47E0_00008       11752  1                      IF    HXDFLAGS.HXDFLADD,BEGIN   If address format,
 001840 4100 0008/4110_      00008 11767  2                        BTX   HXDADDR,8,(R15)     Format address
 00184E                            11789  1                      END
 00184E 807A/47F0 808A 0184E 0183E 11793  1                      ELSE  BEGIN               Else display offset
 001852 1BF5                       11804  2                        SR    R15,R5              Get data offset
 001854 4100 0004/4110_      00004 11805  2                        BTX   HXDADDR+4,4,(R15)   Format offset
 001862                            11827  1                      END
 001862 4120 D061            00015 11831  1                      LA    R2,HXDHEX           Init hex display pointer
 001866 9140 D054/47E0_00008       11832  1                      IF    HXDFLDMP,BEGIN      If dump format,
 00186E 4132 0025            00025 11847  2                        LA    R3,L'HXDHEXDM+2(R2)  Init char display pointer
 001872                            11848  1                      END
 001872 809E/47F0 80A2 01872 0186C 11852  1                      ELSE  BEGIN               Else data format,
 001876 4132 0033            00033 11863  2                        LA    R3,L'HXDHEX+2(R2)
 00187A                            11864  1                      END
 00187A 924F 3000      00000       11868  1                      MVI   @R3,C'|'
 00187E 924F 3011      00011       11869  1                      MVI   @R3+17,C'|'
 001882 5E30 8430            01C08 11870  1                      INCR  R3
 001886 4140 0001            00001 11873  1                      LA    R4,1                Loop counter for this line
 00188A 5940 8434/4730_      01C0C 11874  1                      WHILE ((R4,LE,16),AND,(R7,P)),BEGIN
 001898 D200 D055 6000 00009 00000 11906  2                        MVC   HXDUNPK(1),@R6      Copy data byte
 00189E F321 2000 D055 00000 00009 11907  2                        UNPK  @R2(3),HXDUNPK(2)   Format data byte (plus junk byte)
 0018A4 D401 2000 844C 00000 01C24 11908  2                        NC    @R2(2),=X'0F0F'
 0018AA DC01 2000 8400 00000 01BD8 11909  2                        TR    @R2(2),=C'0123456789ABCDEF'
 0018B0 9240 2002      00002       11910  2                        MVI   @R2+2,C' '
 0018B4 D200 3000 6000 00000 00000 11911  2                        MVC   @R3(0),@R6          Move to char display
 0018BA 58F0 D050            00004 11912  2                        L     R15,HXDTRT          Translate table address
 0018BE DC00 3000 F000 00000 00000 11913  2                        TR    @R3(0),@R15         Translate to text char
 0018C4 4122 0002            00002 11914  2                        LA    R2,2(R2)            Incr hex pointer
 0018C8 9140 D054/4710_00008       11915  2                        IF    ~HXDFLAGS.HXDFLDMP,BEGIN  If not dump format,
 0018D0 5E20 8430            01C08 11930  3                          INCR  R2                  Extra space
 0018D4 5940 8438/4770_      01C10 11933  3                          IF    (R4,EQ,8),'INCR R2'  Extra space after 8th byte
 0018E0                            11958  2                        END
 0018E0 810C/47F0 811A 018E0 018CE 11962  2                        ELSE  BEGIN
 0018E4 1804                       11973  3                          LR    R0,R4
 0018E6 5400 843C            01C14 11974  3                          N     R0,=A(3)
 0018EA 4770 811A/5E20_      018F2 11975  3                          IF    Z,'INCR R2'         Space after every 4th byte
 0018F2                            11994  2                        END
 0018F2 5E30 8430            01C08 11998  2                        INCR  R3                  Incr char pointer
 0018F6 5E60 8430            01C08 12001  2                        INCR  R6                  Incr data pointer
 0018FA 0670                       12004  2                        DECR  R7                  Decr data counter
 0018FC 5E40 8430            01C08 12006  2                        INCR  R4                  Incr line loop counter
 001900 47F0 80B2            0188A 12009  1                      END
 001904 4110 D057/4100_      0000B 12014  1                      SEGWR HXDLINE             Write line
 001916 47F0 804E            01826 12040                       END
 00191A 41D0 D08C/982B_      0008C 12045                       PEND
 DROP   HXDWA-@@,R13
 DROP   *,R8
                                   12071                       ¿þþþþþþþþþþþþþþþþþþþþþþþþþþþþþþþþþþþþþþþþþþþþþþþþþþþÜ
                                   12072                       Ÿ  Translate table to convert funny chars to dots.  Ÿ
                                   12073                       ¾þþþþþþþþþþþþþþþþþþþþþþþþþþþþþþþþþþþþþþþþþþþþþþþþþþþ»
 00192E 4B4B4B4B4B4B4B4B           12074              DUMPTBL  DC    X'4B4B4B4B4B4B4B4B4B4B4B4B4B4B4B4B'
 00193E 4B4B4B4B4B4B4B4B           12075                       DC    X'4B4B4B4B4B4B4B4B4B4B4B4B4B4B4B4B'
 00194E 4B4B4B4B4B4B4B4B           12076                       DC    X'4B4B4B4B4B4B4B4B4B4B4B4B4B4B4B4B'
1MCOM     (MCOM2047) (12:36) (15MAR04) Command Processor                                                                    Page   43
0Current Usings:  (CV,R12)
0Loc    Object Code    Addr1 Addr2  Stmt Lv Lineno    Source Statement           (Hibal 5, Asmedit 3.3)  HLASM R4.0  2004/03/15 12.36
+___    ______ ____    _____ _____  ____ __ ______    ______ _________
000195E 4B4B4B4B4B4B4B4B           12077                       DC    X'4B4B4B4B4B4B4B4B4B4B4B4B4B4B4B4B'
 00196E 404B4B4B4B4B4B4B           12078                       DC    X'404B4B4B4B4B4B4B4B4B4A4B4C4D4E4F'
 00197E 504B4B4B4B4B4B4B           12079                       DC    X'504B4B4B4B4B4B4B4B4B5A5B5C5D5E4B'
 00198E 60614B4B4B4B4B4B           12080                       DC    X'60614B4B4B4B4B4B4B4B4B6B6C6D6E6F'
 00199E 4B4B4B4B4B4B4B4B           12081                       DC    X'4B4B4B4B4B4B4B4B4B4B7A7B7C7D7E7F'
 0019AE 4B81828384858687           12082                       DC    X'4B8182838485868788894B4B4B4B4B4B'
 0019BE 4B91929394959697           12083                       DC    X'4B9192939495969798994B4B4B4B4B4B'
 0019CE 4B4BA2A3A4A5A6A7           12084                       DC    X'4B4BA2A3A4A5A6A7A8A94B4B4B4B4B4B'
 0019DE 4B4B4B4B4B4B4B4B           12085                       DC    X'4B4B4B4B4B4B4B4B4B4B4B4B4B4B4B4B'
 0019EE 4BC1C2C3C4C5C6C7           12086                       DC    X'4BC1C2C3C4C5C6C7C8C94B4B4B4B4B4B'
 0019FE 4BD1D2D3D4D5D6D7           12087                       DC    X'4BD1D2D3D4D5D6D7D8D94B4B4B4B4B4B'
 001A0E 4B4BE2E3E4E5E6E7           12088                       DC    X'4B4BE2E3E4E5E6E7E8E94B4B4B4B4B4B'
 001A1E F0F1F2F3F4F5F6F7           12089                       DC    X'F0F1F2F3F4F5F6F7F8F94B4B4B4B4B4B'
                                   12090                       ¿þþþþþþþþþþþþþþþþþþþþþþþþþÜ
                                   12091                       Ÿ  ASCII translate table  Ÿ
                                   12092                       ¾þþþþþþþþþþþþþþþþþþþþþþþþþ»
 001A2E 4B4B4B4B4B4B4B4B           12093              ASCIITBL DC    32C'.'                 00-1F
 001A4E 405A7F7B5B6C507D           12094                       DC    C' !"#$%&&''()*+,-./'  20-2F
 001A5E F0F1F2F3F4F5F6F7           12095                       DC    C'0123456789:;<=>?'    30-3F
 001A6E 7CC1C2C3C4C5C6C7           12096                       DC    C'@ABCDEFGHIJKLMNO'    40-4F
 001A7E D7D8D9E2E3E4E5E6           12097                       DC    C'PQRSTUVWXYZ[\]^_'    50-5F
 001A8E 4B81828384858687           12098                       DC    C'.abcdefghijklmno'    60-6F
 001A9E 979899A2A3A4A5A6           12099                       DC    C'pqrstuvwxyz{|}~.'    70-7F
 001AAE 4B4B4B4B4B4B4B4B           12100                       DC    127C'.',C'#'           80-FF
1MCOM     (MCOM2047) (12:36) (15MAR04) Command Processor                                                                    Page   44
0Current Usings:  (CV,R12)
0Loc    Object Code    Addr1 Addr2  Stmt Lv Lineno    Source Statement           (Hibal 5, Asmedit 3.3)  HLASM R4.0  2004/03/15 12.36
+___    ______ ____    _____ _____  ____ __ ______    ______ _________
0                                  12102              ¿þþþþþþþþþþþþþþþþþþþþþþþþþþþþþþþþþþþþþþþþþþþþþþþþþþþþþþþþþþþþþþþþþþþþþÜ
                                   12103              Ÿ                                                                     Ÿ
                                   12104              Ÿ  MCOMFAIL -- Routine to handle an abend when a command was          Ÿ
                                   12105              Ÿ    active.  If we can cleanup the path then we can failsoft,        Ÿ
                                   12106              Ÿ    otherwise MILTEN will go down.                                   Ÿ
                                   12107              Ÿ                                                                     Ÿ
                                   12108              Ÿ    On entry:                                                        Ÿ
                                   12109              Ÿ      R1 - CMD ptr                                                   Ÿ
                                   12110              Ÿ                                                                     Ÿ
                                   12111              Ÿ    On exit, R15 (and cc):                                           Ÿ
                                   12112              Ÿ      0 - OK; we cleaned everything up                               Ÿ
                                   12113              Ÿ      4 - can't recover                                              Ÿ
                                   12114              Ÿ                                                                     Ÿ
                                                      ¾þþþþþþþþþþþþþþþþþþþþþþþþþþþþþþþþþþþþþþþþþþþþþþþþþþþþþþþþþþþþþþþþþþþþþ»
0001B2E 50E0 D044/902B_      00044 12115              MCOMFAIL XPROC
 USING  *,R8
 001B48 18A1                       12153                       LR    CMDR,R1
 USING  CMD,R10                    12154                       WITH  CMD
 001B4A D502 80EF A000_01C27 00000 12166                       IF    (CMD,NE,'CMD'),'LA R15,4; EXIT MCOMFAIL'
                                   12192
 001B5C 4110 A000            00000 12193                       LA    R1,CMD
 001B60 58E0 80E0/0DEE       01C18 12194                       ACALL CMDCLOSE            Close the command path
                                   12198
 001B66 1BFF                       12199                       CLEAR R15                 We cleaned up OK
 001B68 41D0 D030/982B_      00030 12203                       PEND
 DROP   CMD,R10
 DROP   *,R8
1MCOM     (MCOM2047) (12:36) (15MAR04) Command Processor                                                                    Page   45
0Current Usings:  (CV,R12)
0Loc    Object Code    Addr1 Addr2  Stmt Lv Lineno    Source Statement           (Hibal 5, Asmedit 3.3)  HLASM R4.0  2004/03/15 12.36
+___    ______ ____    _____ _____  ____ __ ______    ______ _________
0                                  12229              ¿þþþþþþþþþþþþþþþþþþþþþþþþþþþþþþþþþþþþþþþþþþþþþþþþþþþþþþþþþþþþþþþþþþþþþÜ
                                   12230              Ÿ                                                                     Ÿ
                                   12231              Ÿ  MCOMDIE -- Routine to do final cleanup.  It is entered when        Ÿ
                                   12232              Ÿ    MILTEN is terminating.                                           Ÿ
                                   12233              Ÿ                                                                     Ÿ
                                   12234              Ÿ    On entry:                                                        Ÿ
                                   12235              Ÿ      R0 - 0: normal, 4: error                                       Ÿ
                                   12236              Ÿ      R1 - FEB ptr                                                   Ÿ
                                   12237              Ÿ                                                                     Ÿ
                                                      ¾þþþþþþþþþþþþþþþþþþþþþþþþþþþþþþþþþþþþþþþþþþþþþþþþþþþþþþþþþþþþþþþþþþþþþ»
0001B7C 50E0 D044/902B_      00044 12238              MCOMDIE  XPROC
 USING  *,R8
                                   12276                       ¿þþþþþþþþþþþþþþþþþþþþþþþþþþþþþþþþþÜ
                                   12277                       Ÿ  Nothing to do, simply return.  Ÿ
                                   12278                       ¾þþþþþþþþþþþþþþþþþþþþþþþþþþþþþþþþþ»
 001B96 41D0 D030/982B_      00030 12279                       PEND
 DROP   *,R8
1MCOM     (MCOM2047) (12:36) (15MAR04) Command Processor                                                                    Page   46
0Current Usings:  (CV,R12)
0Loc    Object Code    Addr1 Addr2  Stmt Lv Lineno    Source Statement           (Hibal 5, Asmedit 3.3)  HLASM R4.0  2004/03/15 12.36
+___    ______ ____    _____ _____  ____ __ ______    ______ _________
0                                  12300              ¿þþþþþþþþþþþþþþþþþþþþþþþþþþþþþþþþþþþþþþþþþþþþþþþþþþþþþþþþþþþþþþþþþþþþþÜ
                                   12301              Ÿ                                                                     Ÿ
                                   12302              Ÿ  MCOMFMT -- Routine to do control block formatting.                 Ÿ
                                   12303              Ÿ                                                                     Ÿ
                                   12304              Ÿ    On entry:                                                        Ÿ
                                   12305              Ÿ      R1  - FEB ptr                                                  Ÿ
                                   12306              Ÿ      R15 - SEGCB ptr                                                Ÿ
                                   12307              Ÿ                                                                     Ÿ
                                                      ¾þþþþþþþþþþþþþþþþþþþþþþþþþþþþþþþþþþþþþþþþþþþþþþþþþþþþþþþþþþþþþþþþþþþþþ»
0001BAA 50E0 D044/902B_      00044 12308              MCOMFMT  XPROC
 USING  *,R8
 001BC4 41D0 D030/982B_      00030 12346                       PEND
 DROP   *,R8
                                   12366
                                   12367                       QLTORG
 001C30                01C30 01C30 12400                       END   .

1MCOM     (MCOM2047) (12:36) (15MAR04) Relocation Dictionary                                                                Page   47
-   Pos.Id   Rel.Id   Flags    Address                                                       HLASM R4.0  2004/03/15 12.36
0  00000001 00000001    0C    00000378
   00000001 00000001    0C    00000388
   00000001 00000001    0C    00000398
   00000001 00000001    08    00000473
   00000001 00000001    08    0000047A
   00000001 00000001    08    00000482
   00000001 00000001    08    0000048A
   00000001 00000001    08    00000490
   00000001 00000001    08    00000496
   00000001 00000001    08    000004A0
   00000001 00000001    08    000004AA
   00000001 00000001    08    000004B5
   00000001 00000001    08    000004BE
   00000001 00000001    08    000004D5
   00000001 00000001    08    000004DC
   00000001 00000001    08    000004F3
   00000001 00000001    08    000004FC
   00000001 00000001    08    00000506
   00000001 00000001    08    0000050E
   00000001 00000001    08    00000515
   00000001 00000001    0C    00000810
   00000001 00000001    08    00000A2B
   00000001 00000001    08    00000B97
   00000001 00000001    08    00000B9C
   00000001 00000001    08    00000BA5
   00000001 00000001    0C    00001078
   00000001 00000001    0C    00001590
   00000001 00000001    0C    00001BEC
   00000001 00000001    0C    00001C00
   00000001 00000001    0C    00001C04
   00000001 00000001    0C    00001C18
   00000001 00000002    1C    0000037C
   00000001 00000003    1C    00000380
   00000001 00000004    1C    00000390
   00000001 00000004    1C    00000804
   00000001 00000004    1C    00001038
   00000001 00000004    1C    000015A8
   00000001 00000004    1C    00001BF4
   00000001 00000005    1C    0000039C
   00000001 00000005    1C    00001058
   00000001 00000006    1C    000003A4
   00000001 00000007    1C    000003A8
   00000001 00000008    1C    000003AC
   00000001 00000009    1C    000003B0
   00000001 0000000A    1C    000003B4
   00000001 0000000B    1C    000003B8
   00000001 0000000C    1C    000003C4
   00000001 0000000C    1C    00001068
   00000001 0000000D    1C    00000794
   00000001 0000000E    1C    000007A4
   00000001 0000000F    1C    000007AC
   00000001 00000010    1C    000007F8
   00000001 00000011    1C    000007FC
   00000001 00000011    1C    00001008
   00000001 00000011    1C    00001580
1MCOM     (MCOM2047) (12:36) (15MAR04) Relocation Dictionary                                                                Page   48
   00000001 00000012    1C    00000800
   00000001 00000012    1C    00001044
   00000001 00000013    1C    00000808
   00000001 00000014    1C    0000080C
   00000001 00000015    1C    00000818
   00000001 00000016    1C    0000081C
   00000001 00000016    1C    00001010
   00000001 00000016    1C    00001594
   00000001 00000016    1C    00001BE8
   00000001 00000017    1C    0000083C
   00000001 00000017    1C    00001BF0
   00000001 00000018    1C    00000844
   00000001 00000018    1C    00001018
   00000001 00000019    1C    0000100C
   00000001 0000001A    1C    00001014
   00000001 0000001B    1C    00001040
   00000001 0000001C    1C    0000105C
   00000001 0000001D    1C    00001064
   00000001 0000001E    1C    0000107C
   00000001 0000001E    1C    00001BF8
   00000001 0000001F    1C    00001080
   00000001 00000020    1C    00001584
   00000001 00000021    1C    00001588
   00000001 00000022    1C    0000158C
   00000001 00000023    1C    00001598
   00000001 00000024    1C    0000159C
   00000001 00000025    1C    000015A4

1MCOM     (MCOM2047) (12:36) (15MAR04) Ordinary Symbol and Literal Cross Reference                                          Page   49
-Symbol   Length   Value     Id    R Type   Defn References                                  HLASM R4.0  2004/03/15 12.36
0$$$@R10       1 00000000 FFFFFFF4     J     842  1066   1078
 $$$@R11       1 00000000 FFFFFFF3     J     855  1091   1103
 $$$@R12       1 00000000 FFFFFFF2     J     868  1116
 $$$@R13       1 00000000 FFFFFFF1     J     881  1129   1133   1136   1138   1139
 $$$@R14       1 00000000 FFFFFFF0     J     894  1151
 $$$@R2        1 00000000 FFFFFFFC     J     738  1027
 $$$@R8        1 00000000 FFFFFFF6     J     816  1040
 $$$@R9        1 00000000 FFFFFFF5     J     829  1053
 $$$C1MILMCOM
               1 000003F0 00000001     J    4531  4533   4579
 $$$C2MILMCOM
               1 000008BF 00000001     J    5939  5941   5965   6616   7189   7569   8236   8435   8656   8802
 $$$C3MILMCOM
               1 000011C0 00000001     J    9158  9160   9235   9992  10471  10511
 $$$C4MILMCOM
               1 000015E2 00000001     J   10651 10653  11341  11584
 $$$C5MILMCOM
               1 00001C2A 00000001     J   12395 12397
 $$$C6MILMCOM
               1 00001C30 00000001     J   12403 12405
 $$$D0MILMCOM
               1 000003E5 00000001     J    1003  3480   3498   3611
 $$$D2MILMCOM
               1 000011B3 00000001     J    5940  8424   8791
 $$$D3MILMCOM
               1 000015D6 00000001     J    9159 10460  10500
 $$$FAIL69
               1 00000213 00000001     U    4015  4013
 $$$FAIL71
               1 00000247 00000001     U    4066  4064
 $$$FAIL78
               1 000002E4 00000001     U    4269  4267
 $$$FAIL87
               1 00000342 00000001     U    4449  4447
 $$$RCCB       1 00000000 FFFFFFE4     J    4553  4578   4578
 $$$RCMD       1 00000000 FFFFFFE6     J    3110  3227   3227
 $$$RDTRCWA
               1 00000000 FFFFFFE1     J    7174  7188   7188
 $$$RESCWA
               1 00000000 FFFFFFDF     J    8222  8235   8235
 $$$RFEB       1 00000000 FFFFFFE9     J    2594  2717   2717
 $$$RHXDWA
               1 00000000 FFFFFFDA     J   11532 11583  11583
 $$$RHXSWA
               1 00000000 FFFFFFDB     J   11327 11340  11340
 $$$RMDOWA
               1 00000000 FFFFFFE5     J    3308  3321   3321
 $$$RMIXWA
               1 00000000 FFFFFFDE     J    8642  8655   8655
 $$$RPCWA      1 00000000 FFFFFFDC     J    9974  9991   9991
 $$$RPIB       1 00000000 FFFFFFE8     J    2723  2922   2922
 $$$RSCANCB
               1 00000000 FFFFFFEB     J    2456  2482   2482
 $$$RSCB       1 00000000 FFFFFFED     J    1642  2401   2401
 $$$RSEGCB
1MCOM     (MCOM2047) (12:36) (15MAR04) Ordinary Symbol and Literal Cross Reference                                          Page   50
               1 00000000 FFFFFFEA     J    2488  2588   2588
 $$$RSHLNSWA
               1 00000000 FFFFFFE3     J    5951  5964   5964
 $$$RSHLTRCWA
               1 00000000 FFFFFFE2     J    6596  6615   6615
 $$$RSHOWCORW
               1 00000000 FFFFFFDD     J    9198  9234   9234
 $$$RSTRC      1 00000000 FFFFFFEC     J    2414  2450   2450
 $$$RSVDTWA
               1 00000000 FFFFFFE0     J    7555  7568   7568
 $$$RUPATH
               1 00000000 FFFFFFE7     J    2933  3054   3054
 $$$SEGCB2
               4 000005D4 FFFFFFEE     F    1518  1604   1604
 $$$SEGCB26
               4 00000188 FFFFFFE6     F    3133  3219   3219
 $$$100F       2 000005E2 00000001     H    5121  5105B
 $$$101F       2 00000630 00000001     H    5242  5214B
 $$$102F       2 00000654 00000001     H    5319  5276B
 $$$102S       2 00000634 00000001     H    5249  5318B
 $$$105F       2 00000650 00000001     H    5309  5294B
 $$$106F       2 000006E8 00000001     H    5555  5403B
 $$$107B       4 0000068C 00000001     I    5420  5456
 $$$107F       2 000006A6 00000001     H    5452  5420B  5455
 $$$108E       2 000006AA 00000001     H    5463  5457
 $$$108F       2 000006DA 00000001     H    5526  5459B
 $$$109F       2 00000766 00000001     H    5773  5595B
 $$$109S       2 000006F4 00000001     H    5568  5772B
 $$$112F       2 00000762 00000001     H    5763  5613B
 $$$113F       2 00000720 00000001     H    5652  5639B
 $$$114B       4 0000072A 00000001     I    5664  5677
 $$$114F       2 00000730 00000001     H    5674  5664B  5676
 $$$115E       2 00000734 00000001     H    5684  5678
 $$$115F       2 0000075E 00000001     H    5758  5680B
 $$$116        1 00000030 00000001 A   U    5902  5895   5899   5901
 $$$118B       1 000008CA 00000001     X    5985  5992U
 $$$119F       2 00000A14 00000001     H    6483  6161B  6181B
 $$$119S       2 00000926 00000001     H    6134  6482B
 $$$123F       2 00000A00 00000001     H    6455  6429B
 $$$124        1 00000034 00000001 A   U    6582  6575   6579   6581
 $$$126B       1 00000A5E 00000001     X    6636  6643U
 $$$127F       2 00000A88 00000001     H    6722  6709B
 $$$128F       2 00000ABA 00000001     H    6793  6759B
 $$$129F       2 00000AF6 00000001     H    6858  6807B
 $$$130F       2 00000B80 00000001     H    7057  6901B
 $$$131        1 00000044 00000001 A   U    7155  7148   7152   7154
 $$$132F       2 00000C82 00000001     H    7528  7392B
 $$$133B       1 00000BE8 00000001     X    7209  7216U
 $$$134B       4 00000C06 00000001     I    7284  7316
 $$$134F       2 00000C1A 00000001     H    7310  7284B  7315
 $$$135E       2 00000C1E 00000001     H    7323  7317
 $$$135F       2 00000C58 00000001     H    7436  7319B
 $$$136F       2 00000C58 00000001     H    7432  7337B  7414B
 $$$136S       2 00000C22 00000001     H    7331  7431B
 $$$138F       2 00000C48 00000001     H    7400  7370B
 $$$139F       2 00000C48 00000001     H    7396  7384B
 $$$141        1 00000034 00000001 A   U    7537  7530   7534   7536
 $$$143B       1 00000CA0 00000001     X    7589  7596U
 $$$144F       2 00000CD4 00000001     H    7699  7671B
1MCOM     (MCOM2047) (12:36) (15MAR04) Ordinary Symbol and Literal Cross Reference                                          Page   51
 $$$145F       2 00000D40 00000001     H    7857  7812B
 $$$146F       2 00000D6A 00000001     H    7908  7895B
 $$$147F       2 00000D7C 00000001     H    7934  7921B
 $$$148F       2 00000DF0 00000001     H    8111  7976B
 $$$149F       2 00000DC8 00000001     H    8056  8005B
 $$$150F       2 00000DDE 00000001     H    8082  8072B
 $$$151F       2 00000DEC 00000001     H    8105  8095B
 $$$152F       2 00000E06 00000001     H    8157  8145B
 $$$153        1 0000003C 00000001 A   U    8202  8195   8199   8201
 $$$155B       1 00000E26 00000001     X    8256  8263U
 $$$156F       2 00000E5C 00000001     H    8359  8329B
 $$$156S       2 00000E3C 00000001     H    8323  8358B
 $$$158F       2 00000E54 00000001     H    8352  8342B
 $$$159F       2 00000ECA 00000001     H    8569  8378B
 $$$159S       2 00000E62 00000001     H    8372  8568B
 $$$161F       2 00000E76 00000001     H    8402  8393B
 $$$162F       2 00000E86 00000001     H    8440  8416B
 $$$163        6 000011B4 00000001     I    8430  8422X
 $$$164        6 000011B4 00000001     I    8429  8430   8430
 $$$165F       2 00000E9A 00000001     H    8466  8455B
 $$$166F       2 00000EC6 00000001     H    8564  8501B
 $$$167F       2 00000EC0 00000001     H    8556  8518B
 $$$168        1 0000012C 00000001 A   U    8627  8620   8624   8626
 $$$170B       1 00000EF2 00000001     X    8676  8683U
 $$$171F       2 00000FCA 00000001     H    9055  8743B
 $$$171S       2 00000F06 00000001     H    8737  9054B
 $$$173F       2 00000F20 00000001     H    8769  8760B
 $$$174F       2 00000F30 00000001     H    8807  8783B
 $$$175        6 000011BA 00000001     I    8797  8789X
 $$$176        6 000011BA 00000001     I    8796  8797   8797
 $$$177F       2 00000FC6 00000001     H    9050  8845B
 $$$178F       2 00000FB6 00000001     H    9029  8901B  9020B
 $$$178S       2 00000F5C 00000001     H    8872  9028B
 $$$180F       2 00000FAC 00000001     H    9006  8968B  8979B
 $$$184        1 00000034 00000001 A   U    9089  9082   9086   9088
 $$$185F       2 00001406 00000001     H    9951  9925B
 $$$186B       1 000012CA 00000001     X    9255  9262U
 $$$188B       4 000012FA 00000001     I    9367  9380
 $$$188F       2 00001300 00000001     H    9377  9367B  9379
 $$$189E       2 00001304 00000001     H    9387  9381
 $$$189F       2 00001310 00000001     H    9409  9383B
 $$$190F       2 00001368 00000001     H    9591  9438B  9451B
 $$$193B       4 00001340 00000001     I    9500  9526
 $$$193F       2 0000134A 00000001     H    9523  9500B  9525
 $$$194E       2 0000134E 00000001     H    9533  9527
 $$$194F       2 00001354 00000001     H    9553  9529B
 $$$196F       2 000013C2 00000001     H    9792  9604B
 $$$196S       2 00001368 00000001     H    9598  9791B
 $$$198B       4 00001374 00000001     I    9621  9640
 $$$198F       2 0000137C 00000001     H    9636  9621B  9639
 $$$199B       4 00001386 00000001     I    9658  9676
 $$$199E       2 00001380 00000001     H    9647  9641
 $$$199F       2 0000138E 00000001     H    9673  9643B  9658B  9675
 $$$201E       2 00001392 00000001     H    9683  9677
 $$$201F       2 000013B2 00000001     H    9771  9679B
 $$$202B       4 00001396 00000001     I    9696  9722
 $$$202F       2 000013A0 00000001     H    9719  9696B  9721
 $$$203E       2 000013A4 00000001     H    9729  9723
 $$$203F       2 000013AA 00000001     H    9749  9725B
1MCOM     (MCOM2047) (12:36) (15MAR04) Ordinary Symbol and Literal Cross Reference                                          Page   52
 $$$206F       2 000013D4 00000001     H    9837  9822B
 $$$207F       2 000013E0 00000001     H    9863  9848B
 $$$208F       2 000013EA 00000001     H    9883  9873B
 $$$209        1 00000030 00000001 A   U    9960  9953   9957   9959
 $$$210F       2 0000156A 00000001     H   10613 10587B
 $$$211B       1 00001424 00000001     X   10012 10019U
 $$$212F       2 0000145C 00000001     H   10112 10086B
 $$$214F       2 00001482 00000001     H   10183 10159B
 $$$215F       2 000014E4 00000001     H   10367 10213B 10226B
 $$$218B       4 000014B6 00000001     I   10275 10301
 $$$218F       2 000014C0 00000001     H   10298 10275B 10300
 $$$219E       2 000014C4 00000001     H   10308 10302
 $$$219F       2 000014CA 00000001     H   10328 10304B
 $$$222F       2 00001502 00000001     H   10412 10399B
 $$$223F       2 0000150E 00000001     H   10431 10422B
 $$$224F       2 00001528 00000001     H   10476 10452B
 $$$225        6 000015D6 00000001     I   10466 10458X
 $$$226        6 000015D6 00000001     I   10465 10466  10466
 $$$227F       2 00001536 00000001     H   10516 10492B
 $$$228        6 000015DC 00000001     I   10506 10498X
 $$$229        6 000015DC 00000001     I   10505 10506  10506
 $$$230        1 00000134 00000001 A   U   10622 10615  10619  10621
 $$$232B       1 000015EC 00000001     X   10681 10688U
 $$$233F       2 00001610 00000001     H   10760 10712B
 $$$234        1 0000002C 00000001 A   U   10778 10772  10775  10777
 $$$236B       1 0000162E 00000001     X   10807 10814U
 $$$237F       2 00001662 00000001     H   10893 10838B
 $$$238        1 0000002C 00000001 A   U   10911 10905  10908  10910
 $$$240B       1 00001680 00000001     X   10940 10947U
 $$$241F       2 000016A8 00000001     H   11023 10971B
 $$$242        1 0000002C 00000001 A   U   11041 11035  11038  11040
 $$$244B       1 000016C6 00000001     X   11070 11077U
 $$$245F       2 00001702 00000001     H   11167 11101B
 $$$246        1 0000002C 00000001 A   U   11185 11179  11182  11184
 $$$248B       1 00001720 00000001     X   11214 11221U
 $$$249F       2 00001746 00000001     H   11294 11245B
 $$$250        1 0000002C 00000001 A   U   11312 11306  11309  11311
 $$$252B       1 00001764 00000001     X   11363 11370U
 $$$253F       2 000017BA 00000001     H   11490 11409B
 $$$253S       2 0000177A 00000001     H   11403 11489B
 $$$255F       2 000017A0 00000001     H   11457 11448B
 $$$256        1 00000034 00000001 A   U   11515 11508  11512  11514
 $$$258B       1 000017D8 00000001     X   11604 11611U
 $$$259F       2 000017FE 00000001     H   11664 11649B
 $$$260F       2 0000180A 00000001     H   11690 11675B
 $$$261B       4 00001812 00000001     I   11705 11718
 $$$261F       2 0000181C 00000001     H   11715 11705B 11717
 $$$262E       2 00001820 00000001     H   11725 11719
 $$$262F       2 00001826 00000001     H   11732 11721B
 $$$263F       2 0000191A 00000001     H   12044 11744B
 $$$263S       2 00001826 00000001     H   11738 12043B
 $$$265B       4 0000183C 00000001     I   11762 11795
 $$$265F       2 0000184E 00000001     H   11792 11762B 11794
 $$$266E       2 00001852 00000001     H   11802 11796
 $$$266F       2 00001862 00000001     H   11830 11798B
 $$$267B       4 0000186A 00000001     I   11842 11854
 $$$267F       2 00001872 00000001     H   11851 11842B 11853
 $$$268E       2 00001876 00000001     H   11861 11855
 $$$268F       2 0000187A 00000001     H   11867 11857B
1MCOM     (MCOM2047) (12:36) (15MAR04) Ordinary Symbol and Literal Cross Reference                                          Page   53
 $$$269F       2 00001904 00000001     H   12013 11890B 11901B
 $$$269S       2 0000188A 00000001     H   11879 12012B
 $$$272B       4 000018CC 00000001     I   11925 11964
 $$$272F       2 000018E0 00000001     H   11961 11925B 11963
 $$$273F       2 000018E0 00000001     H   11957 11945B
 $$$274E       2 000018E4 00000001     H   11971 11965
 $$$274F       2 000018F2 00000001     H   11997 11967B
 $$$275F       2 000018F2 00000001     H   11993 11981B
 $$$276        1 00000088 00000001 A   U   12067 12060  12064  12066
 $$$277F       2 00001B68 00000001     H   12216 12187B
 $$$278B       1 00001B38 00000001     X   12132 12139U
 $$$279F       2 00001B5C 00000001     H   12191 12178B
 $$$280        1 0000002C 00000001 A   U   12224 12218  12221  12223
 $$$282B       1 00001B86 00000001     X   12255 12262U
 $$$283        1 0000002C 00000001 A   U   12295 12289  12292  12294
 $$$285B       1 00001BB4 00000001     X   12325 12332U
 $$$286        1 0000002C 00000001 A   U   12362 12356  12359  12361
 $$$35B        1 00000022 00000001     X    3256  3263U
 $$$36         1 0000002C 00000001 A   U    3297  3291   3294   3296
 $$$38B        1 00000056 00000001     X    3344  3351U
 $$$39F        2 0000018A 00000001     H    3876  3408B
 $$$39S        2 0000006A 00000001     H    3382  3875B
 $$$42F        2 00000186 00000001     H    3861  3447B
 $$$46F        2 000000B6 00000001     H    3531  3466B
 $$$49         4 000003E6 00000001     I    3504  3496X
 $$$50         4 000003E6 00000001     I    3503  3504   3504
 $$$51F        2 00000170 00000001     H    3828  3548B
 $$$51S        2 000000B6 00000001     H    3540  3827B
 $$$54F        2 0000016C 00000001     H    3823  3564B
 $$$55F        2 000000E0 00000001     H    3589  3580B
 $$$56F        2 000000EC 00000001     H    3627  3603B
 $$$57         6 000003EA 00000001     I    3617  3609X
 $$$58         6 000003EA 00000001     I    3616  3617   3617
 $$$59F        2 0000010C 00000001     H    3673  3663B
 $$$60B        4 00000116 00000001     I    3695  3726
 $$$60F        2 00000130 00000001     H    3722  3695B  3725
 $$$61E        2 00000134 00000001     H    3733  3727
 $$$61F        2 00000166 00000001     H    3817  3729B
 $$$62F        2 00000154 00000001     H    3795  3748B  3763B
 $$$64F        2 00000186 00000001     H    3857  3843B
 $$$66         1 00000054 00000001 A   U    3900  3893   3897   3899
 $$$68B        1 000001A8 00000001     X    3928  3935U
 $$$70F        2 00000214 00000001     H    4019  4008B
 $$$72F        2 00000248 00000001     H    4070  4059B
 $$$73B        4 00000278 00000001     I    4131  4145
 $$$73F        2 00000284 00000001     H    4141  4131B  4144
 $$$74E        2 00000288 00000001     H    4152  4146
 $$$74F        2 00000290 00000001     H    4159  4148B
 $$$75         1 0000002C 00000001 A   U    4187  4181   4184   4186
 $$$77B        1 000002B4 00000001     X    4214  4221U
 $$$79F        2 000002E4 00000001     H    4273  4262B
 $$$80F        2 000002F2 00000001     H    4305  4289B
 $$$81F        2 00000332 00000001     H    4443  4350B
 $$$81S        2 000002F6 00000001     H    4314  4442B
 $$$84F        2 0000032E 00000001     H    4424  4365B
 $$$85F        2 0000031A 00000001     H    4391  4381B
 $$$86F        2 0000032A 00000001     H    4419  4403B
 $$$88         1 0000002C 00000001 A   U    4495  4489   4492   4494
 $$$91B        1 000003FA 00000001     X    4601  4608U
1MCOM     (MCOM2047) (12:36) (15MAR04) Ordinary Symbol and Literal Cross Reference                                          Page   54
 $$$92F        2 0000046E 00000001     H    4835  4718B
 $$$93B        4 0000043E 00000001     I    4746  4801
 $$$93F        2 0000045A 00000001     H    4796  4735B  4746B  4798
 $$$94B        4 00000438 00000001     I    4735  4799
 $$$95E        2 0000045E 00000001     H    4808  4800   4802
 $$$95F        2 0000046E 00000001     H    4831  4804B
 $$$96F        2 000005C2 00000001     H    5053  5025B
 $$$97F        2 000005E6 00000001     H    5131  5087B
 $$$97S        2 000005C6 00000001     H    5060  5130B
 $NLL0779      2 0000009A 00000001     I    3512  3516B
 $NLM0779      1 000003E5 00000001     R    3485  3503
 @@            1 0000004C FFFFFFF1 A   U    1136  3370   4627   6011   6662   7235   7615   8282   8702   9281  10038
                                                 11389  11630
 @NSP          4 00000048 FFFFFFF1     A    1135  3248M  3251M  3269M  3270M  3271M  3294   3296   3298M  3335M  3338M
                                                  3357M  3358M  3359M  3897   3899   3901M  3920M  3923M  3941M  3942M
                                                  3943M  4184   4186   4188M  4206M  4209M  4227M  4228M  4229M  4492
                                                  4494   4496M  4592M  4595M  4614M  4615M  4616M  5899   5901   5903M
                                                  5976M  5979M  5998M  5999M  6000M  6579   6581   6583M  6627M  6630M
                                                  6649M  6650M  6651M  7152   7154   7156M  7200M  7203M  7222M  7223M
                                                  7224M  7534   7536   7538M  7580M  7583M  7602M  7603M  7604M  8199
                                                  8201   8203M  8247M  8250M  8269M  8270M  8271M  8624   8626   8628M
                                                  8667M  8670M  8689M  8690M  8691M  9086   9088   9090M  9246M  9249M
                                                  9268M  9269M  9270M  9957   9959   9961M 10003M 10006M 10025M 10026M
                                                 10027M 10619  10621  10623M 10673M 10676M 10694M 10695M 10696M 10775
                                                 10777  10779M 10799M 10802M 10820M 10821M 10822M 10908  10910  10912M
                                                 10932M 10935M 10953M 10954M 10955M 11038  11040  11042M 11062M 11065M
                                                 11083M 11084M 11085M 11182  11184  11186M 11206M 11209M 11227M 11228M
                                                 11229M 11309  11311  11313M 11354M 11357M 11376M 11377M 11378M 11512
                                                 11514  11516M 11595M 11598M 11617M 11618M 11619M 12064  12066  12068M
                                                 12124M 12127M 12145M 12146M 12147M 12221  12223  12225M 12247M 12250M
                                                 12268M 12269M 12270M 12292  12294  12296M 12317M 12320M 12338M 12339M
                                                 12340M 12359  12361  12363M
 @R0           0 00000000 FFFFFFFE     @     713   989U
 @R1           0 00000000 FFFFFFFD     @     726   985U  1613   1617   1618   1620   1621M  3616   6799   9450   9499
                                                  9695  10225  10274
 @R10          0 00000000 FFFFFFF4     @     843   949U  3872U  4172U  4330U  4480U  5881U  6561U  7134U  7516U  8181U
                                                  8606U  9068U  9939U 10601U 10757U 10890U 11020U 11164U 11291U 12209U
 @R11          0 00000000 FFFFFFF3     @     856   945U
 @R12          0 00000000 FFFFFFF2     @     869   941U
 @R13          0 00000000 FFFFFFF1     @     882   937U  3884U  5886U  6566U  7139U  7521U  8186U  8611U  9073U  9944U
                                                 10606U 11499U 12051U
 @R14          0 00000000 FFFFFFF0     @     895   933U  5626U  8796   8888
 @R15          0 00000000 FFFFFFEF     @     908   929U  1623M  7082   7085   8882U 11913
 @R2           0 00000000 FFFFFFFC     @     739   981U  4043U  4371M  8889U  9913U 11907M 11908M 11909M 11910M
 @R3           0 00000000 FFFFFFFB     @     752   977U  4439U  8348M 10465  10505M 11868M 11869M 11911M 11913M
 @R4           0 00000000 FFFFFFFA     @     765   973U  8403   8429   8558   8770   8796   8881   8952  11418  11484
 @R5           0 00000000 FFFFFFF9     @     778   969U  3867U  6479U
 @R6           0 00000000 FFFFFFF8     @     791   965U  5127U  5315U  5769U  6885U  7428U  8171U 11906  11911
 @R7           0 00000000 FFFFFFF7     @     804   961U  5876U  6556U  7129U  7511U  8176U  8601U  9063U  9934U 10596U
 @R8           0 00000000 FFFFFFF6     @     817   957U  3287U  3889U  4177U  4485U  5891U  6571U  7144U  7526U  8191U
                                                  8616U  9078U  9949U 10611U 10768U 10901U 11031U 11175U 11302U 11504U
                                                 12056U 12214U 12285U 12352U
 @R9           0 00000000 FFFFFFF5     @     830   953U
 @SPR          0 00000000 FFFFFFF1     @    1130  3248M  3251M  3269M  3270M  3271M  3294   3296   3298M  3335M  3338M
                                                  3357M  3358M  3359M  3897   3899   3901M  3920M  3923M  3941M  3942M
                                                  3943M  4184   4186   4188M  4206M  4209M  4227M  4228M  4229M  4492
                                                  4494   4496M  4592M  4595M  4614M  4615M  4616M  5899   5901   5903M
                                                  5976M  5979M  5998M  5999M  6000M  6579   6581   6583M  6627M  6630M
                                                  6649M  6650M  6651M  7152   7154   7156M  7200M  7203M  7222M  7223M
1MCOM     (MCOM2047) (12:36) (15MAR04) Ordinary Symbol and Literal Cross Reference                                          Page   55
                                                  7224M  7534   7536   7538M  7580M  7583M  7602M  7603M  7604M  8199
                                                  8201   8203M  8247M  8250M  8269M  8270M  8271M  8624   8626   8628M
                                                  8667M  8670M  8689M  8690M  8691M  9086   9088   9090M  9246M  9249M
                                                  9268M  9269M  9270M  9957   9959   9961M 10003M 10006M 10025M 10026M
                                                 10027M 10619  10621  10623M 10673M 10676M 10694M 10695M 10696M 10775
                                                 10777  10779M 10799M 10802M 10820M 10821M 10822M 10908  10910  10912M
                                                 10932M 10935M 10953M 10954M 10955M 11038  11040  11042M 11062M 11065M
                                                 11083M 11084M 11085M 11182  11184  11186M 11206M 11209M 11227M 11228M
                                                 11229M 11309  11311  11313M 11354M 11357M 11376M 11377M 11378M 11512
                                                 11514  11516M 11595M 11598M 11617M 11618M 11619M 12064  12066  12068M
                                                 12124M 12127M 12145M 12146M 12147M 12221  12223  12225M 12247M 12250M
                                                 12268M 12269M 12270M 12292  12294  12296M 12317M 12320M 12338M 12339M
                                                 12340M 12359  12361  12363M
 ADDRSYM       1 00000000 00000020     T   10635 10635
 ASCIITBL      1 00001A2E 00000001     C   12093 12382
 ASCTBL        1 00000000 00000000 A   T    1437  1437
 ATTACH        2 000005A2 00000001     H    5016  4852
 BLTBL         1 00000000 00000000 A   T    1439  1439
 BR            8 00000008 00000001 A   #    1034  3252M  3263U  3340M  3351U  3924M  3935U  4210M  4221U  4597M  4608U
                                                  5981M  5992U  6632M  6643U  7205M  7216U  7585M  7596U  8252M  8263U
                                                  8672M  8683U  9251M  9262U 10008M 10019U 10677M 10688U 10803M 10814U
                                                 10936M 10947U 11066M 11077U 11210M 11221U 11359M 11370U 11600M 11611U
                                                 12128M 12139U 12251M 12262U 12321M 12332U
 BTX           1 00000000 0000001E     T    9126  9126  12379
 CCB           1 00000000 FFFFFFE4     J    4578  4614M  4627U  4631   4640U  4650M  5899   5901   5902   5930   6023U
                                                  6674U  7255U  7627U  8294U  8714U  9293U 10050U
 CCBFLAG       1 00000000 FFFFFFE4     R    4561  4569   4651M
 CCBFPRIV      1 00000000 FFFFFFE4         4569  5024   5213   6708  10085
 CCBR         10 0000000A 00000001 A   #    1072  4631M  4640U  6023U  6674U  7255U  7627U  8294U  8714U  9293U 10050U
 CCLSCONT      4 00000342 00000001     I    4453  4420B
 CMD        1476 00000000 FFFFFFE6     J    3227  3377   3392U  3848   3949   3965U  3983   3986M  4154M  4161   4244U
                                                  4261   4309   4333U  4371M  4434U  4459M  4464  10725U 10851U 10984U
                                                 11114U 11258U 12162U 12177  12193
 CMDBUF     1024 000001C4 FFFFFFE6     X    3220  4081   4086
 CMDCHECK      4 000006F0 00000001     I    5563  4860
 CMDCLOSE      2 000002AA 00000001     H    4202  4515  12387
 CMDEND        2 000007B8 00000001     H    5866  4837B  4932B  4940B  4945B  4950B  4955B  4962B  5010B  5117B  5305B
                                                  5551B  5759B
 CMDERROR      2 00000434 00000001     I    4723  4883B  4888   4911B  4922   4944B  4949B  4954B  4961B
 CMDEXIT       2 000007BA 00000001     H    5872  5049B  5199B  5238B  5387B  5558B  5841B
 CMDFE         4 00000790 00000001     A    5845  5656   5861
 CMDFEMX       1 00000009 00000001 A   N    5861  5862   5862
 CMDFOPR      16 00000010 FFFFFFE6         3126  3661   3661
 CMDFSPR      32 00000010 FFFFFFE6         3125  3661   3661   3662
 CMDID         2 00000004 FFFFFFE6     H    3117  3993M
 CMDINP      256 00000088 FFFFFFE6     X    3128  3569M  3616M  3640   4510
 CMDLINK       4 00000008 FFFFFFE6     A    3120  3377   3406   4154M  4309   4348   4370   4371M  4460M
 CMDOPEN       2 0000019E 00000001     H    3916  4507
 CMDPRT        1 00000472 00000001     R    4842  4699
 CMDR         10 0000000A 00000001 A   #    1060  3377M  3392U  3406M  3407M  3407   3630   3700   3956M  3965U  4136
                                                  4137   4154   4155   4235M  4244U  4288   4364   5419  10704M 10705M
                                                 10705  10725U 10830M 10831M 10831  10851U 10963M 10964M 10964  10984U
                                                 11093M 11094M 11094  11114U 11237M 11238M 11238  11258U 12153M 12162U
 CMDSG        60 00000188 FFFFFFE6     X    3219  3645   3714   3787   3809   4094   4111  10747  10865  10880  11006
                                                 11137  11154  11281
 CMDSGCOD      1 00000188 FFFFFFE6     R    3136  3145   3155   3165   3175   3185   3195   3205
 CMDSGLENF
               4 00000194 FFFFFFE6     A    3211  3747M  3747   3762
 CMDSGMRKF
1MCOM     (MCOM2047) (12:36) (15MAR04) Ordinary Symbol and Literal Cross Reference                                          Page   56
               4 00000190 FFFFFFE6     A    3210  3762
 CMDSGUSR      4 000001C0 FFFFFFE6     A    3218  4117M
 CMDUPATH    124 0000000C FFFFFFE6     X    3124  3125   3126   3416   3995   4021   4046   4116   4453
 COMMAND       2 000003F0 00000001     H    4587  4511   4583
 CONSCMD       1 00000000 0000000D     T    5846  5846
 CSET          4 000004C2 00000001     I    4871  4842
 CSETPRT       1 000004D4 00000001     R    4886  4871
 CSHOW         4 000004E0 00000001     I    4899  4844   4846
 CSHOWPRT      1 000004F2 00000001     R    4914  4899
 CV         1912 00000000 FFFFFFEE     X    1638  1187U
 CVBLANKS    256 00000141 FFFFFFEE     C    1339  3569
 CVCMDID       4 000002C8 FFFFFFEE     A    1371  3991   3992M
 CVCMDQH       4 000002C0 FFFFFFEE     A    1369  3377   4136M  4309   4402M  4402
 CVCMDQT       4 000002C4 FFFFFFEE     A    1370  4123   4137M  4155M  4387M  4415M  4415
 CVCUR        40 00000750 FFFFFFEE     X    1636  3314   3629   3819M
 CVCURCMD      4 00000760 FFFFFFEE     A    1633  3630M
 CVCURFEB      4 00000750 FFFFFFEE     A    1629  1636   1636
 CVDSECT       1 00000000 FFFFFFEE     J    1174  2402   2451   2483   2589   2718   2923
 CVECB         4 00000038 FFFFFFEE     A    1204  1201
 CVFEBQH       4 0000029C FFFFFFEE     A    1356  5055   5244   5563
 CVFLAG        1 0000013C FFFFFFEE     R    1264  1268   1273   1278   1283   1288   1293   1298   1303
 CVFLAG2       1 0000013D FFFFFFEE     R    1309  1313   1318   1323   1328
 CVKSCB#       1 00000032 FFFFFFEE A   N    1227  1228   1229
 CVMACH        1 0000013B FFFFFFEE     R    1239  1248   1258
 CVMAXSES      2 00000390 FFFFFFEE     H    1417  6758
 CVMFLAG       1 0000051C FFFFFFEE     R    1455  1459
 CVMNAME       8 000004B8 FFFFFFEE     C    1447  4036
 CVMONCMD      4 000002E8 FFFFFFEE     A    1379  3700M  4288   4301M  4301   5402M  5402   5419   5431M  5431   5486
                                                 10704  10830  10963  11093  11237
 CVMSTART      8 000004B8 FFFFFFEE     D    1446  1500   1500
 CVR          12 0000000C 00000001 A   #    1110  1187U
 CVSATP        4 000002BC FFFFFFEE     A    1367  6796
 CVSCBQH       4 000002B4 FFFFFFEE     A    1364  6129
 CVSCNCB       4 000005B4 FFFFFFEE     F    1504  1515   4686   4706   4878   4906   4926   4934   6062   6740   9335
                                                  9422   9467   9583   9783  10127  10197  10242  10359
 CVSCNKW       8 000005B8 FFFFFFEE     C    1506  5104   5293   5612   9620   9657
 CVSTART       4 00000000 FFFFFFEE     C    1197  1638   1638
 CVTRCRTN      4 00000724 FFFFFFEE     I    1613  1622B
 CVWSGBUF    235 00000610 FFFFFFEE     C    1606  1594   1600
 CVWSGCOD      1 000005D4 FFFFFFEE     R    1521  1530   1540   1550   1560   1570   1580   1590
 CVWSGUSR      4 0000060C FFFFFFEE     A    1603  1605
 DEQSTR        1 00000000 00000023     T   10640 10640
 DETACH        2 00000610 00000001     H    5205  4854
 DISPLTRC      2 00000BDE 00000001     H    7195  7064B
 DISPLTRE      2 00000C96 00000001     H    7575  7377B
 DTB           1 00000000 00000022     T   10637 10637
 DTRCHID       4 00000004 FFFFFFE1     F    7181  7355M  7459
 DTRCUID       4 00000000 FFFFFFE1     F    7180  7271M  7369
 DTRCWA        8 00000000 FFFFFFE1     J    7188  7222M  7235U  7245M  7245   7534   7536   7537   9133
 DUMPTBL      16 0000192E 00000001     X   12074 12381
 EBCTBL        1 00000000 00000000 A   T    1438  1438
 EBCTBL7       1 00000000 00000000 A   T    1441  1441
 ELFCMD        1 00000000 0000000F     T    5856  5856
 EPARTBL       1 00000000 00000000 A   T    1433  1433
 ESCTRT      256 00000000 FFFFFFDF     X    8228  8317M  8317   8347   8429
 ESCWA       256 00000000 FFFFFFDF     J    8235  8269M  8282U  8624   8626   8627   9137
 FEB         184 00000000 FFFFFFE9     J    2717  5055   5071U  5244   5260U  5563   5579U  5618
 FEBFDET      64 00000071 FFFFFFE9         2679  5116M  5304M
 FEBGFLG       1 0000000C FFFFFFE9     R    2613  2617   2622
1MCOM     (MCOM2047) (12:36) (15MAR04) Ordinary Symbol and Literal Cross Reference                                          Page   57
 FEBLINK       4 00000008 FFFFFFE9     A    2609  5055   5085   5244   5274   5563   5593
 FEBNAME       8 00000014 FFFFFFE9     C    2642  5104   5293   5612   5696   5701
 FEBPFLG       1 00000070 FFFFFFE9     R    2650  2654   2659   2664
 FEBPFLG2      1 00000071 FFFFFFE9     R    2670  2674   2679   2684
 FEBTMAX       1 00000009 FFFFFFE9 A   U    2636  5862   5862   5928
 FEBTYPE       1 0000000D FFFFFFE9     X    2626  5625
 FEBUC         2 00000010 FFFFFFE9     H    2639  2702   2702
 FMTTIME       1 00000000 0000001B     T    9111  9111
 FREECORE      1 00000000 0000000C     T    4526  4526   9121
 FSR           2 00000002 00000001 A   #    1021  3251   3271   3294M  3338   3359   3897M  3923   3943   4184M  4209
                                                  4229   4492M  4595   4616   5899M  5979   6000   6579M  6630   6651
                                                  7152M  7203   7224   7534M  7583   7604   8199M  8250   8271   8624M
                                                  8670   8691   9086M  9249   9270   9957M 10006  10027  10619M 10676
                                                 10696  10775M 10802  10822  10908M 10935  10955  11038M 11065  11085
                                                 11182M 11209  11229  11309M 11357  11378  11512M 11598  11619  12064M
                                                 12127  12147  12221M 12250  12270  12292M 12320  12340  12359M
 HEXDUMP       2 000017CE 00000001     H   11590 10638  12376
 HEXSEG        2 0000175A 00000001     H   11349 10867B 11345
 HEXSEG        1 00000000 00000025     T   10643 10643
 HEXSTR        1 00000000 00000024     T   10641 10641
 HIBAL         1 00000000 FFFFFFFF     J     698   714    727    740    753    766    779    792    805    818    831
                                                   844    857    870    883    896    909
 HXDADDR       8 0000000B FFFFFFDA     C   11568 11576  11576  11784  11822
 HXDFLADD     16 00000008 FFFFFFDA        11562 11660M
 HXDFLAGS      1 00000008 FFFFFFDA     R   11543 11547  11552  11557  11562  11638M 11761  11924
 HXDFLASC    128 00000008 FFFFFFDA        11547 11674
 HXDFLDMP     64 00000008 FFFFFFDA        11552 11686M 11704  11841
 HXDFLOFF     32 00000008 FFFFFFDA        11557 11010  11648
 HXDHEX       49 00000015 FFFFFFDA     C   11571 11831  11863
 HXDHEXDM     35 00000015 FFFFFFDA     C   11570 11847
 HXDLINE      79 0000000B FFFFFFDA     C   11576 11749M 11750  11750M 11750  12024  12029
 HXDSEGCB      4 00000000 FFFFFFDA     A   11538 11692M 12035
 HXDTRT        4 00000004 FFFFFFDA     A   11539 11711M 11728M 11912
 HXDUNPK       2 00000009 FFFFFFDA     C   11566 11906M 11907
 HXDWA        90 00000000 FFFFFFDA     J   11583 11617M 11630U 12064  12066  12067  12391
 HXSWA         8 00000000 FFFFFFDB     J   11340 11376M 11389U 11512  11514  11515  12389
 HXSWORK       8 00000000 FFFFFFDB     D   11333 11432  11469
 LINSEMSG      2 00000A2E 00000001     H    6522  6513
 LINSEXIT      2 00000A40 00000001     H    6552  6508B
 LINSPRT       1 00000A2A 00000001     X    6513  6055
 LOWTBL        1 00000000 00000000 A   T    1436  1436
 LSR          11 0000000B 00000001 A   #    1097  3251   3271   3294M  3338   3359   3897M  3923   3943   4184M  4209
                                                  4229   4492M  4595   4616   5899M  5979   6000   6579M  6630   6651
                                                  7152M  7203   7224   7534M  7583   7604   8199M  8250   8271   8624M
                                                  8670   8691   9086M  9249   9270   9957M 10006  10027  10619M 10676
                                                 10696  10775M 10802  10822  10908M 10935  10955  11038M 11065  11085
                                                 11182M 11209  11229  11309M 11357  11378  11512M 11598  11619  12064M
                                                 12127  12147  12221M 12250  12270  12292M 12320  12340  12359M
 LTRCAFT       6 00000BB0 00000001     I    7085  7078
 LTRCEMSG      2 00000BB8 00000001     H    7095  7080
 LTRCERR       2 00000BC8 00000001     H    7119  6718B  6789B  6854B
 LTRCEXIT      2 00000BCA 00000001     H    7125  6067B  7065B  7071B
 LTRCLNO       6 00000BA8 00000001     I    7082  7076
 LTRCPRT       1 00000B96 00000001     R    7076  6733
 MCOMDIE       2 00001B7C 00000001     H   12243 12239
 MCOMDO        2 0000004C 00000001     H    3330  3326
 MCOMFAIL      2 00001B2E 00000001     H   12120 12116
 MCOMFMT       2 00001BAA 00000001     H   12313 12309
 MCOMINIT      2 00000018 00000001     H    3244  3240
1MCOM     (MCOM2047) (12:36) (15MAR04) Ordinary Symbol and Literal Cross Reference                                          Page   58
 MCOMLOOP      4 00000066 00000001     I    3377  3853B
 MCOMSUBP      1 0000001D 00000001 A   U    3077  3950
 MCOM2047      1 00000000 00000001     R    1011  1009
 MDOCUR       40 00000000 FFFFFFE5     C    3314  3629M  3819
 MDOWA        40 00000000 FFFFFFE5     J    3321  3357M  3370U  3897   3899   3900   4528
 MILMCOM       1 00000000 00000001     J    1002  1004   1029   1042   1055   1068   1080   1093   1105   1118   1140
                                                  1153   2928   3055   3228   3232   3322   3490   3509   3622
 MIXFMT        2 00000EE8 00000001     H    8662  8462B
 MIXTBL       16 000011C0 00000001     X    9172  9125
 MIXWA         8 00000000 FFFFFFDE     J    8655  8689M  8702U  9086   9088   9089   9138
 MIXWORK       8 00000000 FFFFFFDE     D    8648  8924
 MONITOR       2 0000067E 00000001     H    5393  4856
 NBLTBL        1 00000000 00000000 A   T    1440  1440
 NGETCORE      1 00000000 00000005     T    4516  4516   9117
 NLFMT         2 00000E1C 00000001     H    8242  8107B
 NPARTBL       1 00000000 00000000 A   T    1434  1434
 PATCORE       2 0000141A 00000001     H    9998  5922
 PATHCLS       1 00000000 0000000B     T    4523  4523
 PATHINFO      1 00000000 00000002     T    4508  4508
 PATHINIT      1 00000000 00000006     T    4518  4518
 PATHOPEN      1 00000000 00000007     T    4519  4519
 PATHREAD      1 00000000 00000003     T    4509  4509
 PATHSEG       1 00000000 00000009     T    4521  4521
 PCERR         4 00001566 00000001     I   10589 10108B 10143B 10179B 10258B 10340B 10382B 10408B
 PCLOC         4 00000000 FFFFFFDC     F    9980 10184M 10346  10347M 10437
 PCORE         4 00000560 00000001     I    4959  4850
 PCTEXT      128 00000008 FFFFFFDC     C    9983 10388  10505  10642
 PCTLEN        2 00000004 FFFFFFDC     H    9981 10432M 10436
 PCWA        264 00000000 FFFFFFDC     J    9991 10025M 10038U 10071M 10071  10072M 10072  10619  10621  10622  10646
 PCXTEXT     128 00000088 FFFFFFDC     C    9984 10465M 10545
 PIBFLAG       1 00000064 FFFFFFE8     R    2770  2774   2779   2784   2789   2794
 PIBFLAG2      1 00000065 FFFFFFE8     R    2800  2804   2809   2814   2819
 PIBFLAG3      1 00000066 FFFFFFE8     R    2825  2829   2834   2839   2844   2849   2854
 PIBFLAG4      1 00000067 FFFFFFE8     R    2860  2864   2869   2874
 PIBFLAG5      1 00000068 FFFFFFE8     R    2880  2884   2889   2894
 PIBGFLG       1 00000018 FFFFFFE8     R    2743  2747
 PIBNAME       8 00000034 FFFFFFE8     C    2764  2899   2899
 PIBUC         2 00000030 FFFFFFE8     H    2761  2911   2911
 RAR          14 0000000E 00000001 A   #    1145  1615B  1625B  3248   3279M  3280M  3280B  3296M  3300B  3335   3521M
                                                  3522M  3522B  3526M  3527M  3527B  3556M  3557M  3557B  3676M  3677M
                                                  3677B  3717M  3718M  3718B  3790M  3791M  3791B  3812M  3813M  3813B
                                                  3851M  3852M  3852B  3899M  3903B  3920   3951   3954M  3955M  3955B
                                                  3998M  3999M  3999B  4049M  4050M  4050B  4097M  4098M  4098B  4114M
                                                  4115M  4115B  4186M  4190B  4206   4456M  4457M  4457B  4467M  4468M
                                                  4468B  4494M  4498B  4592   4689M  4690M  4690B  4709M  4710M  4710B
                                                  4773M  4774M  4774B  4791M  4792M  4792B  4826M  4827M  4827B  4881M
                                                  4882M  4882B  4909M  4910M  4910B  4930M  4931M  4931B  4938M  4939M
                                                  4939B  4943M  4948M  4953M  4959M  4960M  4960B  4982M  4983M  4983B
                                                  5008M  5009M  5009B  5046M  5047M  5047B  5155M  5156M  5156B  5172M
                                                  5173M  5173B  5196M  5197M  5197B  5235M  5236M  5236B  5343M  5344M
                                                  5344B  5360M  5361M  5361B  5384M  5385M  5385B  5447M  5448M  5448B
                                                  5480M  5481M  5481B  5504M  5505M  5505B  5521M  5522M  5522B  5549M
                                                  5550M  5550B  5625M  5638   5648M  5648   5653M  5656M  5656   5657M
                                                  5657   5670M  5670B  5712M  5713M  5713B  5729M  5730M  5730B  5753M
                                                  5754M  5754B  5797M  5798M  5798B  5814M  5815M  5815B  5838M  5839M
                                                  5839B  5901M  5905B  5976   6065M  6066M  6066B  6087M  6088M  6088B
                                                  6106M  6107M  6107B  6124M  6125M  6125B  6203M  6204M  6204B  6230M
                                                  6231M  6231B  6247M  6248M  6248B  6267M  6268M  6268B  6284M  6285M
                                                  6285B  6311M  6312M  6312B  6328M  6329M  6329B  6355M  6356M  6356B
1MCOM     (MCOM2047) (12:36) (15MAR04) Ordinary Symbol and Literal Cross Reference                                          Page   59
                                                  6372M  6373M  6373B  6400M  6401M  6401B  6417M  6418M  6418B  6450M
                                                  6451M  6451B  6472M  6473M  6473B  6501M  6502M  6502B  6537M  6538M
                                                  6538B  6581M  6585B  6627   6743M  6744M  6744B  6783M  6784M  6784B
                                                  6827M  6828M  6828B  6848M  6849M  6849B  6921M  6922M  6922B  6942M
                                                  6943M  6943B  6959M  6960M  6960B  6988M  6989M  6989B  7005M  7006M
                                                  7006B  7034M  7035M  7035B  7052M  7053M  7053B  7064M  7083B  7086B
                                                  7110M  7111M  7111B  7154M  7158B  7200   7305M  7306M  7306B  7377M
                                                  7453M  7454M  7454B  7474M  7475M  7475B  7498M  7499M  7499B  7536M
                                                  7540B  7580   7692M  7693M  7693B  7705M  7706M  7706B  7729M  7730M
                                                  7730B  7760M  7761M  7761B  7777M  7778M  7778B  7797M  7798M  7798B
                                                  7832M  7833M  7833B  7852M  7853M  7853B  7874M  7875M  7875B  7956M
                                                  7957M  7957B  8011   8014M  8015M  8015B  8051M  8052M  8052B  8107M
                                                  8134M  8135M  8135B  8152M  8153M  8153B  8201M  8205B  8247   8462M
                                                  8489M  8490M  8490B  8551M  8552M  8552B  8593M  8594M  8594B  8626M
                                                  8630B  8667   8834M  8835M  8835B  8865M  8866M  8866B  8927M  8928M
                                                  8928B  8950M  8951M  8951B  9000M  9001M  9001B  9045M  9046M  9046B
                                                  9088M  9092B  9246   9338M  9339M  9339B  9359M  9360M  9360B  9402M
                                                  9403M  9403B  9425M  9426M  9426B  9470M  9471M  9471B  9518M  9519M
                                                  9519B  9548M  9549M  9549B  9586M  9587M  9587B  9714M  9715M  9715B
                                                  9744M  9745M  9745B  9786M  9787M  9787B  9916M  9917M  9917B  9959M
                                                  9963B 10003  10106M 10107M 10107B 10130M 10131M 10131B 10151M 10152M
                                                 10152B 10177M 10178M 10178B 10200M 10201M 10201B 10245M 10246M 10246B
                                                 10293M 10294M 10294B 10323M 10324M 10324B 10362M 10363M 10363B 10391M
                                                 10392M 10392B 10406M 10407M 10407B 10535M 10536M 10536B 10554M 10555M
                                                 10555B 10578M 10579M 10579B 10621M 10625B 10673  10750M 10751M 10751B
                                                 10777M 10781B 10799  10867M 10883M 10884M 10884B 10910M 10914B 10932
                                                 11013M 11014M 11014B 11040M 11044B 11062  11140M 11141M 11141B 11157M
                                                 11158M 11158B 11184M 11188B 11206  11284M 11285M 11285B 11311M 11315B
                                                 11354  11435M 11436M 11436B 11482M 11483M 11483B 11514M 11518B 11595
                                                 11787M 11788M 11788B 11825M 11826M 11826B 12038M 12039M 12039B 12066M
                                                 12070B 12124  12196M 12197M 12197B 12223M 12227B 12247  12294M 12298B
                                                 12317  12361M 12365B
 R0            0 00000000 FFFFFFFF A   #     706  1616M  1617M  1618   1620M  1621   3512M  3513M  3515   3570   3706M
                                                  3779M  3779   3801M  3949M  3984M  3984   3985M  4086M  4099M  4723M
                                                  4723   4734M  4734   4780M  4815M  4971M  4997M  5035M  5161M  5185M
                                                  5185   5224M  5349M  5373M  5373   5436M  5469M  5493M  5510M  5538M
                                                  5538   5701M  5718M  5742M  5742   5803M  5827M  5827   6076M  6095M
                                                  6113M  6192M  6219M  6236M  6256M  6256   6273M  6300M  6317M  6344M
                                                  6361M  6389M  6406M  6439M  6461M  6490M  6542M  6717M  6772M  6772
                                                  6788M  6816M  6837M  6837   6853M  6910M  6931M  6931   6948M  6977M
                                                  6994M  7023M  7041M  7061M  7115M  7271   7294M  7442M  7463M  7463
                                                  7487M  7487   7681M  7701M  7749M  7766M  7786M  7786   7821M  7841M
                                                  7841   7863M  7882M  7904M  7930M  7993M  8035M  8036M  8037M  8048M
                                                  8123M  8123   8361   8442M  8444   8445   8454M  8454   8478M  8478
                                                  8540M  8582M  8582   8729   8809M  8811   8812   8854M  8917M  8989M
                                                  8989   9034M  9348M  9348   9437M  9437   9480M  9480   9562M  9562
                                                  9603M  9603   9758M  9758   9802M  9802   9896M 10095M 10140M 10140
                                                 10212M 10212  10255M 10255  10337M 10337  10379M 10379  10415  10427M
                                                 10432  10524M 10550M 10567M 10567  10872M 11129M 11146M 11273M 11273
                                                 11393  11425M 11438M 11441  11453M 11458M 11458  11636  11777M 11815M
                                                 11973M 11974M 12029M
 R1            1 00000001 FFFFFFFF A   #     719  3493M  3503M  3513   3518M  3553M  3640M  3705M  3800M  3848M  3950M
                                                  3956   3995M  4046M  4081M  4103M  4103   4161M  4235   4453M  4464M
                                                  4699M  4745M  4745   4779M  4814M  4871M  4899M  4926M  4934M  4970M
                                                  4996M  5034M  5160M  5223M  5348M  5435M  5468M  5486M  5509M  5618M
                                                  5696M  5717M  5802M  6055M  6075M  6094M  6112M  6191M  6214M  6235M
                                                  6252M  6272M  6295M  6316M  6339M  6360M  6384M  6405M  6438M  6460M
                                                  6489M  6541M  6716M  6733M  6768M  6787M  6796M  6815M  6833M  6852M
                                                  6909M  6927M  6947M  6970M  6993M  7016M  7040M  7114M  7293M  7441M
1MCOM     (MCOM2047) (12:36) (15MAR04) Ordinary Symbol and Literal Cross Reference                                          Page   60
                                                  7459M  7680M  7701M  7744M  7765M  7782M  7820M  7837M  7862M  7881M
                                                  7903M  7929M  7989M  8010M  8016   8044M  8144M  8362   8403M  8441M
                                                  8442   8443M  8533M  8730   8770M  8808M  8809   8810M  8853M  8924M
                                                  9033M  9328M  9328   9415M  9415   9460M  9460   9576M  9576   9776M
                                                  9776   9891M 10094M 10120M 10120  10190M 10190  10235M 10235  10352M
                                                 10352  10523M 10545M 10871M 11122M 11145M 11394  11432M 11469M 11634
                                                 11635  11784M 11822M 12024M 12153  12193M
 R13          13 0000000D FFFFFFFF A   #     875  3370U  4627U  6011U  6662U  7235U  7615U  8282U  8702U  9281U 10038U
                                                 11389U 11630U
 R14          14 0000000E FFFFFFFF A   #     888  3976M  3983M  3985M  8024M  8028M  8036   8037M  8749M  8875M
 R15          15 0000000F FFFFFFFF A   #     901  1613M  1614M  1614   1616   1621M  1624M  1624   3299M  3299   3492M
                                                  3493   3494M  3496   3511M  3512   3515M  3570M  3573   3585M  3593M
                                                  3602M  3602   3609   3645M  3694   3714M  3787M  3809M  3902M  3902
                                                  3990M  3991M  3992   3993   4094M  4111M  4116M  4117   4165M  4165
                                                  4189M  4189   4370M  4371   4380M  4380   4473M  4473   4497M  4497
                                                  4653   4686M  4706M  4770M  4788M  4823M  4878M  4906M  4927M  4935M
                                                  4979M  5005M  5043M  5048M  5152M  5169M  5193M  5198M  5232M  5237M
                                                  5340M  5357M  5381M  5386M  5444M  5477M  5501M  5518M  5546M  5557M
                                                  5619M  5709M  5726M  5750M  5794M  5811M  5835M  5840M  5868M  5868
                                                  5904M  5904   6062M  6084M  6103M  6121M  6200M  6227M  6244M  6264M
                                                  6281M  6308M  6325M  6352M  6369M  6397M  6414M  6447M  6469M  6498M
                                                  6507M  6507   6534M  6548M  6548   6584M  6584   6740M  6746M  6758
                                                  6768   6780M  6795M  6799   6824M  6845M  6918M  6939M  6956M  6985M
                                                  7002M  7031M  7049M  7062M  7070M  7070   7107M  7121M  7121   7157M
                                                  7157   7270   7302M  7375M  7450M  7471M  7495M  7504M  7504   7539M
                                                  7539   7642   7689M  7694M  7702M  7726M  7757M  7774M  7794M  7829M
                                                  7849M  7871M  7953M  8059M  8078M  8101M  8131M  8162M  8162   8204M
                                                  8204   8363   8383M  8386   8398M  8403   8406M  8415M  8415   8422
                                                  8486M  8548M  8590M  8629M  8629   8748M  8749   8750M  8753   8765M
                                                  8770   8773M  8782M  8782   8789   8831M  8862M  8874M  8875   8881M
                                                  8888   8947M  8997M  9042M  9091M  9091   9335M  9373   9405   9422M
                                                  9467M  9571   9583M  9767   9783M  9904M  9922M  9922   9927M  9962M
                                                  9962  10103M 10127M 10184  10197M 10242M 10346M 10347  10359M 10388M
                                                 10438M 10442M 10451M 10451  10458  10478M 10482M 10491M 10491  10498
                                                 10532M 10551M 10575M 10584M 10584  10589M 10624M 10624  10747M 10780M
                                                 10780  10865M 10880M 10913M 10913  11006M 11043M 11043  11122  11137M
                                                 11154M 11187M 11187  11281M 11314M 11314  11395  11418M 11479M 11517M
                                                 11517  11692  11751M 11804M 11912M 12035M 12069M 12069  12184M 12202M
                                                 12202  12226M 12226  12297M 12297  12364M 12364
 R2            2 00000002 FFFFFFFF A   #     732  3649M  3649   3669M  3951M  4021M  4031U  4123M  4124M  4124   4154
                                                  4337M  4387   4651   8011M  8058M  8328M  8328   8334   8354M  8888M
                                                  8898M  8898   9912M 10436M 10438  10478  10550  11010M 11638  11831M
                                                 11847  11863  11914M 11914  11932M 11953M 11989M
 R3            3 00000003 FFFFFFFF A   #     745  4309M  4333U  4337   4348M  4349M  4349   4364   7964M  7964   8016M
                                                  8044   8144   8334M  8335M  8347M  8347   8361M  8377M  8377   8383
                                                  8445M  8500M  8500   8517   8560M  8729M  8742M  8742   8750   8812M
                                                  8844M  8844   8954M  8967M  8967   9019M  9019  10437M 11393M 11408M
                                                 11408  11438  11485M 11847M 11863M 11872M 12000M
 R4            4 00000004 FFFFFFFF A   #     758  8362M  8441   8443   8444M  8558M  8730M  8808   8810   8811M  8952M
                                                 11394M 11484M 11873M 11889  11944  11973  12008M
 R5            5 00000005 FFFFFFFF A   #     771  3416M  3426U  6129M  6145U  6159M  6160M  6160   7325M  7336M  7336
                                                  7422M  8363M  8867M  8956M  8978M  8978   9002M  9318M  9318   9373M
                                                  9405M  9571M  9891  11395M 11479  11634M 11804
 R6            6 00000006 FFFFFFFF A   #     784  5055M  5071U  5085M  5086M  5086   5244M  5260U  5274M  5275M  5275
                                                  5563M  5579U  5593M  5594M  5594   6799M  6800M  6800   6871U  7270M
                                                  7283M  7283   7351U  7404M  7405M  7405   7642M  7652U  9322M  9322
                                                  9767M  9872M  9872   9879M  9896  11635M 11751  12003M
 R7            7 00000007 FFFFFFFF A   #     797  4653M  4663U  6033U  6684U  7265U  7637U  8304U  8724U  9303U 10060U
                                                 11636M 11743M 11743  11900M 11900  12005M
1MCOM     (MCOM2047) (12:36) (15MAR04) Ordinary Symbol and Literal Cross Reference                                          Page   61
 SCAN          1 00000000 00000011     T    5917  5917   9103  10634
 SCB         434 00000000 FFFFFFED     J    2401  6129   6145U  6178   6871U
 SCBACCT       5 00000124 FFFFFFED     C    1993  2156   2156   6603   6876
 SCBACLCK      8 000000E8 FFFFFFED     D    1835  1837   1837
 SCBAFLAG      1 000000CC FFFFFFED     R    1792  1796   1801   1806   1811
 SCBBFLAG      1 000000CD FFFFFFED     R    1817  1821
 SCBCRI        2 000001A4 FFFFFFED     H    2383  2388   2388
 SCBFLG        1 00000168 FFFFFFED     R    2271  2275   2280   2285   2290   2295   2300   2305   2310
 SCBFLG2       1 00000169 FFFFFFED     R    2316  2320   2325   2330
 SCBFTRC     128 0000015F FFFFFFED         2254  6428
 SCBGRP        2 00000127 FFFFFFED     C    1995  6295   6300
 SCBKAFL       1 0000012F FFFFFFED     R    2127  2131   2136   2141   2146   2151
 SCBKIFL       1 0000012E FFFFFFED     R    2082  2086   2091   2096   2101   2106   2111   2116   2121
 SCBLINK       4 00000004 FFFFFFED     A    1654  6129   6159
 SCBNAME      20 00000136 FFFFFFED     C    2163  6384   6389
 SCBNO         2 000000F8 FFFFFFED     H    1843  6252
 SCBOFLAG      1 00000186 FFFFFFED     R    2341  2345   2350   2355   2360   2365
 SCBOPST       4 00000134 FFFFFFED     F    2161  2390   2390
 SCBQFLG       1 0000015C FFFFFFED     R    2190  2194
 SCBSFLG       1 0000012B FFFFFFED     R    2000  2004   2009   2014   2019   2024   2029
 SCBSTAG      16 00000080 FFFFFFED     C    1674  6214   6219
 SCBSTART      4 000000F4 FFFFFFED     F    1841  1845   1845   2157   2157   2262   2262
 SCBSTAT       1 000000FF FFFFFFED     R    1937  1941   1946   1951   1956   1961   1966   1971
 SCBTACF       1 0000012C FFFFFFED     R    2035  2039   2044   2049   2054   2059   2064   2069   2074
 SCBTFLAG      1 0000015A FFFFFFED     R    2168  2172   2177   2182
 SCBTFLG       1 000000B0 FFFFFFED     R    1679  1683   1688   1693   1698   1703   1708
 SCBTFLG2      1 000000B1 FFFFFFED     R    1714  1718   1723   1728   1733   1738
 SCBTFLG3      1 000000B8 FFFFFFED     R    1767  1771   1776
 SCBTRCQH      4 000000DC FFFFFFED     A    1832  6877
 SCBTRCQT      4 000000E0 FFFFFFED     A    1833  6878
 SCBTYPE       1 000000FC FFFFFFED     R    1850  1859   1869   1879   1889   1899   1909   1919   1929
 SCBUFLG       1 0000015E FFFFFFED     R    2205  2209   2214   2219   2224   2229   2234   2239   2244
 SCBUFLG2      1 0000015F FFFFFFED     R    2250  2254   2259
 SCBUSER       3 00000124 FFFFFFED     C    1994  6339   6344
 SCBVPGM       8 0000010C FFFFFFED     C    1983  1989   1989
 SCBXFLG       1 000000B2 FFFFFFED     R    1744  1748   1753
 SCB1ST        4 000000FC FFFFFFED     F    1847  2392   2392
 SCINIT        1 00000000 00000010     T    5916  5916
 SCNCB         4 00000000 FFFFFFEB     F    2464  2475
 SCORE         4 00000554 00000001     I    4953  4848   4918
 SEG           1 00000000 00000016     T    5925  5925   9105  10639  12375
 SEGB          1 00000000 00000012     T    5918  5918   9112
 SEGBLANK      1 00000000 0000001F     T    9127  9127
 SEGCB        60 00000000 FFFFFFEA     J    2588  4663U  4927   4935   5619   6033U  6684U  7265U  7637U  8304U  8724U
                                                  9303U 10060U 10551
 SEGCBCOD      1 00000000 FFFFFFEA     R    2499  2508   2518   2528   2538   2548   2558   2568
 SEGCCR        1 00000000 0000001D     T    9120  9120
 SEGCR         1 00000000 00000019     T    9104  9104
 SEGDC         1 00000000 0000001A     T    9106  9106
 SEGHX         1 00000000 00000017     T    5927  5927  12377
 SEGINIT       1 00000000 00000008     T    4520  4520
 SEGINITR      1 00000000 0000000A     T    4522  4522
 SEGT          1 00000000 00000018     T    5929  5929   9107
 SEGTB         1 00000000 00000015     T    5924  5924
 SEGWR         1 00000000 00000004     T    4513  4513   5919   9109  10644  12378
 SETELF        1 00000000 00000013     T    5920  5920
 SHCERR        4 00001402 00000001     I    9927  9351B  9404B  9483B  9565B  9761B  9805B
 SHCFLADD     16 00000000 FFFFFFDD         9225  9833M
 SHCFLASC    128 00000000 FFFFFFDD         9210  9669M  9847
1MCOM     (MCOM2047) (12:36) (15MAR04) Ordinary Symbol and Literal Cross Reference                                          Page   62
 SHCFLDMP     64 00000000 FFFFFFDD         9215  9859M
 SHCFLOFF     32 00000000 FFFFFFDD         9220  9632M  9821
 SHELF         4 0000052A 00000001     I    4934  4920
 SHLNSWA       8 00000000 FFFFFFE3     J    5964  5998M  6011U  6044M  6044   6579   6581   6582   9128
 SHLTACCT      5 00000004 FFFFFFE2     C    6603  6876M  6970   7016
 SHLTAFT       4 00000014 FFFFFFE2     F    6608  6900M  6900   7061   7085M
 SHLTLNO       4 00000000 FFFFFFE2     F    6602  6746   6833   6927   7082M
 SHLTRCQH      4 0000000C FFFFFFE2     A    6605  6877M  7062
 SHLTRCQT      4 00000010 FFFFFFE2     A    6606  6878M
 SHLTRCWA     24 00000000 FFFFFFE2     J    6615  6649M  6662U  6695M  6695   7152   7154   7155   9129
 SHOCORFL      1 00000000 FFFFFFDD     R    9206  9210   9215   9220   9225   9912
 SHOWCORE      2 000012C0 00000001     H    9241  4953B
 SHOWCORW      1 00000000 FFFFFFDD     J    9234  9268M  9281U  9314M  9957   9959   9960  10645
 SHOWELF       1 00000000 00000014     T    5921  5921
 SHOWLINS      2 000008C0 00000001     H    5971  4943B
 SHOWLTRC      2 00000A54 00000001     H    6622  4948B
 SLINES        4 0000053C 00000001     I    4943  4914
 SLTRACE       4 00000548 00000001     I    4948  4916
 SPR          13 0000000D 00000001 A   #    1123  3248   3251   3267M  3269   3269   3270   3270   3271   3291M  3291
                                                  3294   3296   3298   3298   3335   3338   3355M  3357   3357   3358
                                                  3358   3359   3893M  3893   3897   3899   3901   3901   3920   3923
                                                  3939M  3941   3941   3942   3942   3943   4181M  4181   4184   4186
                                                  4188   4188   4206   4209   4225M  4227   4227   4228   4228   4229
                                                  4489M  4489   4492   4494   4496   4496   4592   4595   4612M  4614
                                                  4614   4615   4615   4616   5895M  5895   5899   5901   5903   5903
                                                  5976   5979   5996M  5998   5998   5999   5999   6000   6575M  6575
                                                  6579   6581   6583   6583   6627   6630   6647M  6649   6649   6650
                                                  6650   6651   7148M  7148   7152   7154   7156   7156   7200   7203
                                                  7220M  7222   7222   7223   7223   7224   7530M  7530   7534   7536
                                                  7538   7538   7580   7583   7600M  7602   7602   7603   7603   7604
                                                  8195M  8195   8199   8201   8203   8203   8247   8250   8267M  8269
                                                  8269   8270   8270   8271   8620M  8620   8624   8626   8628   8628
                                                  8667   8670   8687M  8689   8689   8690   8690   8691   9082M  9082
                                                  9086   9088   9090   9090   9246   9249   9266M  9268   9268   9269
                                                  9269   9270   9953M  9953   9957   9959   9961   9961  10003  10006
                                                 10023M 10025  10025  10026  10026  10027  10615M 10615  10619  10621
                                                 10623  10623  10673  10676  10692M 10694  10694  10695  10695  10696
                                                 10772M 10772  10775  10777  10779  10779  10799  10802  10818M 10820
                                                 10820  10821  10821  10822  10905M 10905  10908  10910  10912  10912
                                                 10932  10935  10951M 10953  10953  10954  10954  10955  11035M 11035
                                                 11038  11040  11042  11042  11062  11065  11081M 11083  11083  11084
                                                 11084  11085  11179M 11179  11182  11184  11186  11186  11206  11209
                                                 11225M 11227  11227  11228  11228  11229  11306M 11306  11309  11311
                                                 11313  11313  11354  11357  11374M 11376  11376  11377  11377  11378
                                                 11508M 11508  11512  11514  11516  11516  11595  11598  11615M 11617
                                                 11617  11618  11618  11619  12060M 12060  12064  12066  12068  12068
                                                 12124  12127  12143M 12145  12145  12146  12146  12147  12218M 12218
                                                 12221  12223  12225  12225  12247  12250  12266M 12268  12268  12269
                                                 12269  12270  12289M 12289  12292  12294  12296  12296  12317  12320
                                                 12336M 12338  12338  12339  12339  12340  12356M 12356  12359  12361
                                                 12363  12363
 STELF         4 00000518 00000001     I    4926  4886
 STMPSUBP      1 0000001E 00000001 A   U    3078  8010
 STRC         44 00000000 FFFFFFEC     J    2450  7351U  7375   7652U  7670
 STRCACTLEN
               2 00000028 FFFFFFEC     H    2438  7811   7837
 STRCCLCK      8 00000008 FFFFFFEC     D    2422  7701
 STRCDATA      1 0000002C FFFFFFEC     X    2443  7989   8035
 STRCDLEN      2 0000002A FFFFFFEC     H    2439  7782   7811   7975M  7975   7993   8028   8048
1MCOM     (MCOM2047) (12:36) (15MAR04) Ordinary Symbol and Literal Cross Reference                                          Page   63
 STRCFASCII
             128 00000010 FFFFFFEC         2430  8004
 STRCFLAG      1 00000010 FFFFFFEC     R    2426  2430
 STRCLINK      4 00000004 FFFFFFEC     A    2421  7404
 STRCSTRT      4 00000000 FFFFFFEC     C    2420  2440   2440
 STRCTYPE     16 00000011 FFFFFFEC     C    2434  7744   7749   7894   7920   8071   8094
 STRCUID       4 00000024 FFFFFFEC     F    2436  7355   7369
 STREEXIT      2 00000E08 00000001     H    8167  7695B
 SVDTTODW     16 00000000 FFFFFFE0     X    7561  7702
 SVDTWA       16 00000000 FFFFFFE0     J    7568  7602M  7615U  8199   8201   8202   9134
 TOEBCDIC      1 00000000 0000001C     T    9118  9118
 UPAT          4 00000008 FFFFFFE7     F    2975  3034
 UPATFCLS      1 00000080 FFFFFFE7 A   U    3000  3444   3840
 UPATFLAG      1 00000004 FFFFFFE7     R    2949  2953   2958   2963   2968
 UPATFNI       1 00000020 FFFFFFE7 A   U    3002  3441   3545
 UPATFOPN      1 00000008 FFFFFFE7 A   U    3004  3438   3463   3476
 UPATFOPR     16 00000004 FFFFFFE7         2968  3126   3126
 UPATFSPR     32 00000004 FFFFFFE7         2963  3125   3125
 UPATH       124 00000000 FFFFFFE7     J    3054  3124   3125   3126   3426U  3494   3494   3511   3511   3515M  3515M
                                                  3518   3553   4031U
 UPATMY        8 00000010 FFFFFFE7     C    2981  4036M
 UPATSFLG      1 00000040 FFFFFFE7     X    3036  2998   3446   3465   3494   3494   3511   3515M  3547   3842
 UPPTBL        1 00000000 00000000 A   T    1435  1435
 VIRTCMD       1 00000000 0000000E     T    5853  5853
 XMONDUMP      2 00001676 00000001     H   10928 10924
 XMONHEX       2 00001624 00000001     H   10795 10791
 XMONMSG       2 000015E2 00000001     H   10669 10665
 XMONREG       2 000016BC 00000001     H   11058 11054
 XMONWR        2 00001716 00000001     H   11202 11198
 XTB           1 00000000 00000021     T   10636 10636
 XWAIT         4 0000056E 00000001     I    4970  4858
 =A(ASCIITBL)
               4 00001C04 00000001     A   12382 11728
 =A(CMDCLOSE)
               4 00000398 00000001     A    4515  3851
 =A(CMDCLOSE)
               4 00001C18 00000001     A   12387 12196
 =A(CMDOPEN)
               4 00000378 00000001     A    4507  3279   3526
 =A(COMMAND)
               4 00000388 00000001     A    4511  3676
 =A(DUMPTBL)
               4 00001C00 00000001     A   12381 11711
 =A(FEBTMAX)
               4 00000840 00000001     A    5928  5638
 =A(HEXDUMP)
               4 00001590 00000001     A   10638  9916
 =A(HEXDUMP)
               4 00001BEC 00000001     A   12376 11013
 =A(L'CMDINP)
               4 00000384 00000001     A    4510  3573   3585
 =A(L'PCTEXT)
               4 000015A0 00000001     A   10642 10415  10427
 =A(MIXTBL)
               4 00001078 00000001     A    9125  8748   8874
 =A(PATCORE)
               4 00000810 00000001     A    5922  4959
 =A(X'FF')
               4 0000106C 00000001     A    9122  8335
1MCOM     (MCOM2047) (12:36) (15MAR04) Ordinary Symbol and Literal Cross Reference                                          Page   64
 =A(X'15')
               4 00001060 00000001     A    9119  8058
 =A(1)         4 00001074 00000001     A    9124  8517
 =A(1)         4 00001C08 00000001     A   12383 11872  11932  11953  11989  12000  12003  12008
 =A(16)        4 00001C0C 00000001     A   12384 11889
 =A(20)        4 0000038C 00000001     A    4512  3694
 =A(256)       4 00001070 00000001     A    9123  8386   8398   8753   8765
 =A(3)         4 00001C14 00000001     A   12386 11974
 =A(30*100)
               4 00000814 00000001     A    5923  4987
 =A(4)         4 00001BFC 00000001     A   12380 11441  11453
 =A(8)         4 00001C10 00000001     A   12385 11944
 =C' ('        2 000010E8 00000001     C    9136  7765
 =C' '         1 00001156 00000001     C    9149  6947
 =C' '         1 00001C26 00000001     C   12393 10871  11145
 =C' bytes):'
               8 00001000 00000001     C    9102  7862
 =C' has no command processor.'
              26 0000086A 00000001     C    5933  5717
 =C' is not logged on.'
              18 000010AE 00000001     C    9131  6852
 =C' of '      4 00001048 00000001     C    9113  7820
 =C'.'         1 0000112A 00000001     C    9143  6316   6993
 =C'<-- '      4 0000104C 00000001     C    9114  7881   8059
 =C'<'         1 000011B1 00000001     C    9156  8853
 =C'(<) '      4 00001050 00000001     C    9115  7903   8078
 =C'|'         1 00001129 00000001     C    9142  6191   6235   6272   6360   6405
 =C'$END'      4 00000394 00000001     C    4514  3800
 =C')'         1 000008BE 00000001     C    5938  5509
 =C';'         1 0000112C 00000001     C    9145  6460
 =C'- Invalid'
               9 00000884 00000001     C    5934  4779
 =C'--> '      4 00001054 00000001     C    9116  7929   8101
 =C'>'         1 000011B2 00000001     C    9157  9033
 =C': invalid SHOW LINES option.'
              28 0000101C 00000001     C    9108  6541
 =C': invalid SHOW LTRACE option.'
              29 00001158 00000001     C    9151  7114
 =C': MILTEN line-number is out of bounds.'
              38 00001088 00000001     C    9130  6787
 =C':'         1 00001157 00000001     C    9150  7040
 =C'is an unknown front-end.'
              24 000007D0 00000001     C    5914  5160   5348
 =C'is unrecognized.'
              16 000007E8 00000001     C    5915  5802
 =C'ASC'       3 000015B3 00000001     C   10648  9657
 =C'Bad trace entry queue!'
              22 000010D2 00000001     C    9135  7680
 =C'CMD'       3 000003E2 00000001     C    4530  4261
 =C'CMD'       3 00001C27 00000001     C   12394 12177
 =C'Done.'
               5 000008A6 00000001     C    5936  4996
 =C'Highest trace id = '
              19 0000118A 00000001     C    9153  7441
 =C'Line '
               5 00001151 00000001     C    9148  6815
 =C'Missing option'
              14 0000084A 00000001     C    5931  4814
 =C'Monitor already active (CMD='
1MCOM     (MCOM2047) (12:36) (15MAR04) Ordinary Symbol and Literal Cross Reference                                          Page   65
              28 00000820 00000001     C    5926  5468
 =C'Monitoring has started'
              22 000003CC 00000001     C    4529  3705
 =C'Monitoring stopped'
              18 00000858 00000001     C    5932  5435
 =C'Old data was '
              13 000015C9 00000001     C   10650 10523
 =C'OCMD'      4 000003BC 00000001     C    4524  4459
 =C'OFF'       3 000015B0 00000001     C   10647  9620
 =C'Privileged command.'
              19 000008AB 00000001     C    5937  5034   5223
 =C'Privileged command.'
              19 0000113E 00000001     C    9147  6716
 =C'Privileged command.'
              19 000015B6 00000001     C   10649 10094
 =C'Quiet'
               5 0000119D 00000001     C    9154  7894   8071
 =C'Read completion'
              15 000011A2 00000001     C    9155  7920   8094
 =C'SCB'       3 00001126 00000001     C    9141  6178
 =C'STRC'      4 0000103C 00000001     C    9110  7670
 =C'T'         1 0000112B 00000001     C    9144  6438
 =C'Trace of line '
              14 000010C0 00000001     C    9132  6909
 =C'Trace table is empty.'
              21 00001175 00000001     C    9152  7293
 =C'Waiting for 30 seconds...'
              25 0000088D 00000001     C    5935  4970
 =C'0123456789ABCDEF'
              16 00001BD8 00000001     C   12374 11909
 =C'100|Milten lines;'
              17 000010EE 00000001     C    9139  6075
 =C'101|Tag|Line|Account|Name|flags;'
              32 00000FE0 00000001     C    9101  6094
 =C'102|STRING|NUMBER|STRING|STRING|STRING;'
              39 000010FF 00000001     C    9140  6112
 =C'109|End of table;'
              17 0000112D 00000001     C    9146  6489
 =CL4'CMD'
               4 000003A0 00000001     C    4517  3986
 =F'-1'        4 000003C0 00000001     F    4525  4460
 =H'4'         2 00001C20 00000001     H   12390 11485
 =V(ADDRSYM)
               4 00001584 00000001     V   10635  9359  10151
 =V(BTX)       4 0000107C 00000001     V    9126  8927
 =V(BTX)       4 00001BF8 00000001     V   12379 11435  11787  11825
 =V(DEQSTR)
               4 00001598 00000001     V   10640 10391
 =V(DTB)       4 0000158C 00000001     V   10637  9548   9744  10323
 =V(FMTTIME)
               4 00001040 00000001     V    9111  7705
 =V(FREECORE)
               4 000003C4 00000001     V    4526  4467
 =V(FREECORE)
               4 00001068 00000001     V    9121  8152
 =V(HEXSEG)
               4 000015A4 00000001     V   10643 10554
 =V(HEXSTR)
               4 0000159C 00000001     V   10641 10406
1MCOM     (MCOM2047) (12:36) (15MAR04) Ordinary Symbol and Literal Cross Reference                                          Page   66
 =V(NGETCORE)
               4 0000039C 00000001     V    4516  3954
 =V(NGETCORE)
               4 00001058 00000001     V    9117  8014
 =V(PATHCLS)
               4 000003B8 00000001     V    4523  4456
 =V(PATHINFO)
               4 0000037C 00000001     V    4508  3521
 =V(PATHINIT)
               4 000003A4 00000001     V    4518  3998
 =V(PATHOPEN)
               4 000003A8 00000001     V    4519  4049
 =V(PATHREAD)
               4 00000380 00000001     V    4509  3556
 =V(PATHSEG)
               4 000003B0 00000001     V    4521  4099
 =V(SCAN)      4 000007FC 00000001     V    5917  4709   4881   4909
 =V(SCAN)      4 00001008 00000001     V    9103  6065   6743
 =V(SCAN)      4 00001580 00000001     V   10634  9338   9425   9470   9586   9786  10130  10200  10245  10362
 =V(SCINIT)
               4 000007F8 00000001     V    5916  4689
 =V(SEG)       4 0000081C 00000001     V    5925  5172   5360   5447   5480   5521   5729   5814
 =V(SEG)       4 00001010 00000001     V    9105  6203   6230   6247   6284   6311   6328   6355   6372   6417   6450
                                                  6537   6827   6921   6959   6988   7005   7034   7110   7453   7777
                                                  7832   7956   8551   8834   8865   8950   9045
 =V(SEG)       4 00001594 00000001     V   10639 10106  10535
 =V(SEG)       4 00001BE8 00000001     V   12375 10750  10883  11157  11482
 =V(SEGB)      4 00000800 00000001     V    5918  4773
 =V(SEGB)      4 00001044 00000001     V    9112  7729
 =V(SEGBLANK)
               4 00001080 00000001     V    9127  9000
 =V(SEGCCR)
               4 00001064 00000001     V    9120  8134   8489   8593
 =V(SEGCR)
               4 0000100C 00000001     V    9104  6087   6106   6124   6472   6501   7305   7498   7692   7874
 =V(SEGDC)
               4 00001014 00000001     V    9106  6267   6783   6848   6942   7474   7797   7852
 =V(SEGHX)
               4 0000083C 00000001     V    5927  5504
 =V(SEGHX)
               4 00001BF0 00000001     V   12377 11140
 =V(SEGINIT)
               4 000003AC 00000001     V    4520  4097
 =V(SEGINITR)
               4 000003B4 00000001     V    4522  4114
 =V(SEGT)      4 00000844 00000001     V    5929  5712
 =V(SEGT)      4 00001018 00000001     V    9107  6400   7760
 =V(SEGTB)
               4 00000818 00000001     V    5924  5155   5343   5797
 =V(SEGWR)
               4 00000390 00000001     V    4513  3717   3790   3812
 =V(SEGWR)
               4 00000804 00000001     V    5919  4791   4826   4982   5008   5046   5196   5235   5384   5549   5753
                                                  5838
 =V(SEGWR)
               4 00001038 00000001     V    9109  7052
 =V(SEGWR)
               4 000015A8 00000001     V   10644 10578
 =V(SEGWR)
1MCOM     (MCOM2047) (12:36) (15MAR04) Ordinary Symbol and Literal Cross Reference                                          Page   67
               4 00001BF4 00000001     V   12378 11284  12038
 =V(SETELF)
               4 00000808 00000001     V    5920  4930
 =V(SHOWELF)
               4 0000080C 00000001     V    5921  4938
 =V(TOEBCDIC)
               4 0000105C 00000001     V    9118  8051
 =V(XTB)       4 00001588 00000001     V   10636  9402   9518   9714  10177  10293
 =X'0F0F'      2 00001C24 00000001     X   12392 11908
 =Y(0+4+40+((L'CCB+3)/4*4)+4)
               2 00000848 00000001     Y    5930  4612
 =Y(0+4+40+((L'DTRCWA+3)/4*4)+4)
               2 000010CE 00000001     Y    9133  7220
 =Y(0+4+40+((L'ESCWA+3)/4*4)+4)
               2 000010EA 00000001     Y    9137  8267
 =Y(0+4+40+((L'HXDWA+3)/4*4)+4)
               2 00001C22 00000001     Y   12391 11615
 =Y(0+4+40+((L'HXSWA+3)/4*4)+4)
               2 00001C1E 00000001     Y   12389 11374
 =Y(0+4+40+((L'MDOWA+3)/4*4)+4)
               2 000003CA 00000001     Y    4528  3355
 =Y(0+4+40+((L'MIXWA+3)/4*4)+4)
               2 000010EC 00000001     Y    9138  8687
 =Y(0+4+40+((L'PCWA+3)/4*4)+4)
               2 000015AE 00000001     Y   10646 10023
 =Y(0+4+40+((L'SHLNSWA+3)/4*4)+4)
               2 00001084 00000001     Y    9128  5996
 =Y(0+4+40+((L'SHLTRCWA+3)/4*4)+4)
               2 00001086 00000001     Y    9129  6647
 =Y(0+4+40+((L'SHOWCORW+3)/4*4)+4)
               2 000015AC 00000001     Y   10645  9266
 =Y(0+4+40+((L'SVDTWA+3)/4*4)+4)
               2 000010D0 00000001     Y    9134  7600
 =Y(0+4+40+4)
               2 000003C8 00000001     Y    4527  3267   3939   4225
 =Y(0+4+40+4)
               2 00001C1C 00000001     Y   12388 10692  10818  10951  11081  11225  12143  12266  12336

1MCOM     (MCOM2047) (12:36) (15MAR04) Macro and Copy Code Source Summary                                                   Page   68
- Con Source                                        Volume    Members                        HLASM R4.0  2004/03/15 12.36
0     PRIMARY INPUT                                           CSECT    DROP     END      EX       HEXDUMP  LTORG    POP
                                                              PRINT    PUSH     START    USING
   L1 WYL.GS.MIL.MILTEN.MACLIB                      SYSB05    BTX      CV       DTB      FAIL     FEB      MILPATH  PEND
                                                              PIB      POP      PROC     PUSH     REG      SCAN
                                                              SCANCB   SCB      SCINIT   SCKW     STKDEF   STRC
                                                              SUBPOOLS XPROC    XTB
   L2 WYL.GG.SYS.MACLIB                             SYSB05    $BC      $BFLKUP  $BV      $CCLKUP  $CRS     $CSS     $L
                                                              $LA      $LBLAD   $LEXP    $LOR     $NIL     $REL
                                                              $RGLKUP  $USLKUP  ACALL    BEGIN    CEIL     CLEAR
                                                              CSECT    DATA     DECR     DEFCC    DROP     DTEX     ELSE
                                                              ELSEIF   END      EX       EXIT     FLAG     GEN
                                                              HIBAL    IDENT    IF       INCR     LABEL    LC
                                                              LCALL    LOOP     LS       LT       LTORG    MOVE
                                                              MOVEL    PRINT    QLTORG   RECORD   REGS     SET
                                                              SETMSG   START    ST3      UNTIL    USING    VCALL
                                                              WHILE    WITH     ZOT
   L3 SYS3.IS.MACLIB                                SYSB05    DEFINE   MIB      SEG      SEGB     SEGBLANK SEGCB
                                                              SEGCCR   SEGCR    SEGDC    SEGDEF   SEGHX    SEGINIT
                                                              SEGLD    SEGT     SEGTB    SEGWR    SIB      SYSDEFN
   L4 SYS3.MACLIB                                   SYSB02    PATH
   L5 SYS1.MACLIB                                   MVSBR9    SPLEVEL  STIMER

1MCOM     (MCOM2047) (12:36) (15MAR04) Dsect Cross Reference                                                                Page   69
-Dsect     Length      Id       Defn                                                         HLASM R4.0  2004/03/15 12.36
0$$$@R0   00000000  FFFFFFFE     712
 $$$@R1   00000000  FFFFFFFD     725
 $$$@R10  00000000  FFFFFFF4     842
 $$$@R11  00000000  FFFFFFF3     855
 $$$@R12  00000000  FFFFFFF2     868
 $$$@R13  0000004C  FFFFFFF1     881
 $$$@R14  00000000  FFFFFFF0     894
 $$$@R15  00000000  FFFFFFEF     907
 $$$@R2   00000000  FFFFFFFC     738
 $$$@R3   00000000  FFFFFFFB     751
 $$$@R4   00000000  FFFFFFFA     764
 $$$@R5   00000000  FFFFFFF9     777
 $$$@R6   00000000  FFFFFFF8     790
 $$$@R7   00000000  FFFFFFF7     803
 $$$@R8   00000000  FFFFFFF6     816
 $$$@R9   00000000  FFFFFFF5     829
 $$$RCCB  00000001  FFFFFFE4    4553
 $$$RCMD  000005C4  FFFFFFE6    3110
 $$$RDTRCWA
          00000008  FFFFFFE1    7174
 $$$RESCWA
          00000100  FFFFFFDF    8222
 $$$RFEB  000000B8  FFFFFFE9    2594
 $$$RHXDWA
          0000005A  FFFFFFDA   11532
 $$$RHXSWA
          00000008  FFFFFFDB   11327
 $$$RMDOWA
          00000028  FFFFFFE5    3308
 $$$RMIXWA
          00000008  FFFFFFDE    8642
 $$$RPCWA 00000108  FFFFFFDC    9974
 $$$RPIB  000000A0  FFFFFFE8    2723
 $$$RSCANCB
          00000020  FFFFFFEB    2456
 $$$RSCB  000001B2  FFFFFFED    1642
 $$$RSEGCB
          0000003C  FFFFFFEA    2488
 $$$RSHLNSWA
          00000008  FFFFFFE3    5951
 $$$RSHLTRCWA
          00000018  FFFFFFE2    6596
 $$$RSHOWCORW
          00000001  FFFFFFDD    9198
 $$$RSTRC 0000002C  FFFFFFEC    2414
 $$$RSVDTWA
          00000010  FFFFFFE0    7555
 $$$RUPATH
          0000007C  FFFFFFE7    2933
 CVDSECT  00000778  FFFFFFEE    1174
 HIBAL    00000000  FFFFFFFF     698

1MCOM     (MCOM2047) (12:36) (15MAR04) Using Map                                                                            Page   70
-                                                                                            HLASM R4.0  2004/03/15 12.36
   Stmt  -----Location----- Action ----------------Using----------------- Reg Max    Last  Label and Using Text
           Count      Id           Type          Value    Range     Id        Disp   Stmt
0   929  00000000  FFFFFFFF USING  ORDINARY    00000000 00001000 FFFFFFEF  15 000    7085  @R15,15
    933  00000000  FFFFFFFF USING  ORDINARY    00000000 00001000 FFFFFFF0  14 000          @R14,14
    937  00000000  FFFFFFFF USING  ORDINARY    00000000 00001000 FFFFFFF1  13 000          @R13,13
    941  00000000  FFFFFFFF USING  ORDINARY    00000000 00001000 FFFFFFF2  12 000          @R12,12
    945  00000000  FFFFFFFF USING  ORDINARY    00000000 00001000 FFFFFFF3  11 000          @R11,11
    949  00000000  FFFFFFFF USING  ORDINARY    00000000 00001000 FFFFFFF4  10 000          @R10,10
    953  00000000  FFFFFFFF USING  ORDINARY    00000000 00001000 FFFFFFF5   9 000          @R9,9
    957  00000000  FFFFFFFF USING  ORDINARY    00000000 00001000 FFFFFFF6   8 000          @R8,8
    961  00000000  FFFFFFFF USING  ORDINARY    00000000 00001000 FFFFFFF7   7 000          @R7,7
    965  00000000  FFFFFFFF USING  ORDINARY    00000000 00001000 FFFFFFF8   6 000          @R6,6
    969  00000000  FFFFFFFF USING  ORDINARY    00000000 00001000 FFFFFFF9   5 000          @R5,5
    973  00000000  FFFFFFFF USING  ORDINARY    00000000 00001000 FFFFFFFA   4 004   11484  @R4,4
    977  00000000  FFFFFFFF USING  ORDINARY    00000000 00001000 FFFFFFFB   3 000          @R3,3
    981  00000000  FFFFFFFF USING  ORDINARY    00000000 00001000 FFFFFFFC   2 000          @R2,2
    985  00000000  FFFFFFFF USING  ORDINARY    00000000 00001000 FFFFFFFD   1 00C   10274  @R1,1
    989  00000000  FFFFFFFF USING  ORDINARY    00000000 00001000 FFFFFFFE   0 000          @R0,0
    990  00000000  FFFFFFFF DROP                                            0              0
   1187  00000000  FFFFFFEE USING  ORDINARY    00000000 00001000 FFFFFFEE  12 760   11237  CV,CVR
   3263  00000022  00000001 USING  ORDINARY    00000022 00001000 00000001   8 3A6    3279  $$$35B,BR
   3287  00000038  00000001 USING  ORDINARY    00000000 00001000 FFFFFFF6   8 000          @R8,8
   3351  00000056  00000001 USING  ORDINARY    00000056 00001000 00000001   8 394    3875  $$$38B,BR
   3370  00000066  00000001 USING  ORDINARY    FFFFFFB4 00001000 FFFFFFE5  13 04C    3819  MDOWA-@@,R13
   3392  0000006A  00000001 USING  ORDINARY    00000000 00001000 FFFFFFE6  10 194    3848  CMD,CMDR
   3426  00000078  00000001 USING  ORDINARY    00000000 00001000 FFFFFFE7   5 040    3842  UPATH,R5
   3867  00000186  00000001 USING  ORDINARY    00000000 00001000 FFFFFFF9   5 000          @R5,5
   3872  00000186  00000001 USING  ORDINARY    00000000 00001000 FFFFFFF4  10 000          @R10,10
   3884  0000018A  00000001 USING  ORDINARY    00000000 00001000 FFFFFFF1  13 000          @R13,13
   3889  0000018A  00000001 USING  ORDINARY    00000000 00001000 FFFFFFF6   8 000          @R8,8
   3935  000001A8  00000001 USING  ORDINARY    000001A8 00001000 00000001   8 220    4148  $$$68B,BR
   3965  000001CA  00000001 USING  ORDINARY    00000000 00001000 FFFFFFE6  10 1C4    4161  CMD,CMDR
   4031  00000218  00000001 USING  ORDINARY    00000000 00001000 FFFFFFE7   2 010    4036  UPATH,R2
   4043  0000021E  00000001 USING  ORDINARY    00000000 00001000 FFFFFFFC   2 008    4371  @R2,2
   4172  00000296  00000001 USING  ORDINARY    00000000 00001000 FFFFFFF4  10 000          @R10,10
   4177  00000296  00000001 USING  ORDINARY    00000000 00001000 FFFFFFF6   8 000          @R8,8
   4221  000002B4  00000001 USING  ORDINARY    000002B4 00001000 00000001   8 12E    4467  $$$77B,BR
   4244  000002C6  00000001 USING  ORDINARY    00000000 00001000 FFFFFFE6  10 000    4261  CMD,CMDR
   4330  000002F6  00000001 USING  ORDINARY    00000000 00001000 FFFFFFF4  10 000          @R10,10
   4333  000002F6  00000001 USING  ORDINARY    00000000 00001000 FFFFFFE6   3 008    4370  CMD,R3
   4434  0000032E  00000001 USING  ORDINARY    00000000 00001000 FFFFFFE6  10 00C    4464  CMD,10
   4439  0000032E  00000001 USING  ORDINARY    00000000 00001000 FFFFFFFB   3 011   11913  @R3,3
   4480  00000364  00000001 USING  ORDINARY    00000000 00001000 FFFFFFF4  10 000          @R10,10
   4485  00000364  00000001 USING  ORDINARY    00000000 00001000 FFFFFFF6   8 000          @R8,8
   4608  000003FA  00000001 USING  ORDINARY    000003FA 00001000 00000001   8 EC6    5841  $$$91B,BR
   4627  0000040A  00000001 USING  ORDINARY    FFFFFFB4 00001000 FFFFFFE4  13 04C    4631  CCB-@@,R13
   4640  0000040E  00000001 USING  ORDINARY    00000000 00001000 FFFFFFE4  10 000    5213  CCB,CCBR
   4663  00000418  00000001 USING  ORDINARY    00000000 00001000 FFFFFFEA   7 000    5619  SEGCB,R7
   5071  000005C6  00000001 USING  ORDINARY    00000000 00001000 FFFFFFE9   6 071    5116  FEB,R6
   5127  000005E2  00000001 USING  ORDINARY    00000000 00001000 FFFFFFF8   6 000          @R6,6
   5260  00000634  00000001 USING  ORDINARY    00000000 00001000 FFFFFFE9   6 071    5304  FEB,R6
   5315  00000650  00000001 USING  ORDINARY    00000000 00001000 FFFFFFF8   6 000          @R6,6
   5579  000006F4  00000001 USING  ORDINARY    00000000 00001000 FFFFFFE9   6 014    5696  FEB,R6
   5622  00000710  00000001 DROP                                           14              14
   5626  00000716  00000001 USING  ORDINARY    00000000 00001000 FFFFFFF0  14 000    8888  @R14,14
1MCOM     (MCOM2047) (12:36) (15MAR04) Using Map                                                                            Page   71
   5769  00000762  00000001 USING  ORDINARY    00000000 00001000 FFFFFFF8   6 000          @R6,6
   5876  000007BA  00000001 USING  ORDINARY    00000000 00001000 FFFFFFF7   7 000          @R7,7
   5881  000007BA  00000001 USING  ORDINARY    00000000 00001000 FFFFFFF4  10 000          @R10,10
   5886  000007BA  00000001 USING  ORDINARY    00000000 00001000 FFFFFFF1  13 000          @R13,13
   5891  000007BA  00000001 USING  ORDINARY    00000000 00001000 FFFFFFF6   8 000          @R8,8
   5992  000008CA  00000001 USING  ORDINARY    000008CA 00001000 00000001   8 863    6541  $$$118B,BR
   6011  000008DA  00000001 USING  ORDINARY    FFFFFFB4 00001000 FFFFFFE3  13 04C    6044  SHLNSWA-@@,R13
   6023  000008DA  00000001 USING  ORDINARY    00000000 00001000 FFFFFFE4  10 000          CCB,CCBR
   6033  000008DA  00000001 USING  ORDINARY    00000000 00001000 FFFFFFEA   7 000          SEGCB,R7
   6145  00000926  00000001 USING  ORDINARY    00000000 00001000 FFFFFFED   5 15F    6428  SCB,R5
   6479  00000A10  00000001 USING  ORDINARY    00000000 00001000 FFFFFFF9   5 000          @R5,5
   6556  00000A40  00000001 USING  ORDINARY    00000000 00001000 FFFFFFF7   7 000          @R7,7
   6561  00000A40  00000001 USING  ORDINARY    00000000 00001000 FFFFFFF4  10 000          @R10,10
   6566  00000A40  00000001 USING  ORDINARY    00000000 00001000 FFFFFFF1  13 000          @R13,13
   6571  00000A40  00000001 USING  ORDINARY    00000000 00001000 FFFFFFF6   8 000          @R8,8
   6643  00000A5E  00000001 USING  ORDINARY    00000A5E 00001000 00000001   8 6FA    7114  $$$126B,BR
   6662  00000A6E  00000001 USING  ORDINARY    FFFFFFB4 00001000 FFFFFFE2  13 060    7085  SHLTRCWA-@@,R13
   6674  00000A6E  00000001 USING  ORDINARY    00000000 00001000 FFFFFFE4  10 000    6708  CCB,CCBR
   6684  00000A6E  00000001 USING  ORDINARY    00000000 00001000 FFFFFFEA   7 000          SEGCB,R7
   6871  00000AF6  00000001 USING  ORDINARY    00000000 00001000 FFFFFFED   6 124    6878  SCB,R6
   6885  00000B08  00000001 USING  ORDINARY    00000000 00001000 FFFFFFF8   6 000          @R6,6
   7129  00000BCA  00000001 USING  ORDINARY    00000000 00001000 FFFFFFF7   7 000          @R7,7
   7134  00000BCA  00000001 USING  ORDINARY    00000000 00001000 FFFFFFF4  10 000          @R10,10
   7139  00000BCA  00000001 USING  ORDINARY    00000000 00001000 FFFFFFF1  13 000          @R13,13
   7144  00000BCA  00000001 USING  ORDINARY    00000000 00001000 FFFFFFF6   8 000          @R8,8
   7216  00000BE8  00000001 USING  ORDINARY    00000BE8 00001000 00000001   8 5A2    7498  $$$133B,BR
   7235  00000BF8  00000001 USING  ORDINARY    FFFFFFB4 00001000 FFFFFFE1  13 050    7459  DTRCWA-@@,R13
   7255  00000BFE  00000001 USING  ORDINARY    00000000 00001000 FFFFFFE4  10 000          CCB,CCBR
   7265  00000BFE  00000001 USING  ORDINARY    00000000 00001000 FFFFFFEA   7 000          SEGCB,R7
   7351  00000C28  00000001 USING  ORDINARY    00000000 00001000 FFFFFFEC   6 024    7404  STRC,R6
   7428  00000C54  00000001 USING  ORDINARY    00000000 00001000 FFFFFFF8   6 000          @R6,6
   7511  00000C82  00000001 USING  ORDINARY    00000000 00001000 FFFFFFF7   7 000          @R7,7
   7516  00000C82  00000001 USING  ORDINARY    00000000 00001000 FFFFFFF4  10 000          @R10,10
   7521  00000C82  00000001 USING  ORDINARY    00000000 00001000 FFFFFFF1  13 000          @R13,13
   7526  00000C82  00000001 USING  ORDINARY    00000000 00001000 FFFFFFF6   8 000          @R8,8
   7596  00000CA0  00000001 USING  ORDINARY    00000CA0 00001000 00000001   8 502    8152  $$$143B,BR
   7615  00000CB0  00000001 USING  ORDINARY    FFFFFFB4 00001000 FFFFFFE0  13 04C    7702  SVDTWA-@@,R13
   7627  00000CB0  00000001 USING  ORDINARY    00000000 00001000 FFFFFFE4  10 000          CCB,CCBR
   7637  00000CB0  00000001 USING  ORDINARY    00000000 00001000 FFFFFFEA   7 000          SEGCB,R7
   7652  00000CB2  00000001 USING  ORDINARY    00000000 00001000 FFFFFFEC   6 02C    8094  STRC,R6
   8171  00000E08  00000001 USING  ORDINARY    00000000 00001000 FFFFFFF8   6 000   11911  @R6,6
   8176  00000E08  00000001 USING  ORDINARY    00000000 00001000 FFFFFFF7   7 000          @R7,7
   8181  00000E08  00000001 USING  ORDINARY    00000000 00001000 FFFFFFF4  10 000          @R10,10
   8186  00000E08  00000001 USING  ORDINARY    00000000 00001000 FFFFFFF1  13 000          @R13,13
   8191  00000E08  00000001 USING  ORDINARY    00000000 00001000 FFFFFFF6   8 000          @R8,8
   8263  00000E26  00000001 USING  ORDINARY    00000E26 00001000 00000001   8 38E    8593  $$$155B,BR
   8282  00000E36  00000001 USING  ORDINARY    FFFFFFB4 00001000 FFFFFFDF  13 04C    8429  ESCWA-@@,R13
   8294  00000E36  00000001 USING  ORDINARY    00000000 00001000 FFFFFFE4  10 000          CCB,CCBR
   8304  00000E36  00000001 USING  ORDINARY    00000000 00001000 FFFFFFEA   7 000          SEGCB,R7
   8601  00000ED4  00000001 USING  ORDINARY    00000000 00001000 FFFFFFF7   7 000          @R7,7
   8606  00000ED4  00000001 USING  ORDINARY    00000000 00001000 FFFFFFF4  10 000          @R10,10
   8611  00000ED4  00000001 USING  ORDINARY    00000000 00001000 FFFFFFF1  13 000          @R13,13
   8616  00000ED4  00000001 USING  ORDINARY    00000000 00001000 FFFFFFF6   8 000          @R8,8
   8683  00000EF2  00000001 USING  ORDINARY    00000EF2 00001000 00000001   8 2C8    9054  $$$170B,BR
   8702  00000F02  00000001 USING  ORDINARY    FFFFFFB4 00001000 FFFFFFDE  13 04C    8924  MIXWA-@@,R13
   8714  00000F02  00000001 USING  ORDINARY    00000000 00001000 FFFFFFE4  10 000          CCB,CCBR
   8724  00000F02  00000001 USING  ORDINARY    00000000 00001000 FFFFFFEA   7 000          SEGCB,R7
   8878  00000F62  00000001 DROP                                           15              15
   8882  00000F68  00000001 USING  ORDINARY    00000000 00001000 FFFFFFEF  15 000   11913  @R15,15
1MCOM     (MCOM2047) (12:36) (15MAR04) Using Map                                                                            Page   72
   8885  00000F68  00000001 DROP                                            2              2
   8889  00000F6E  00000001 USING  ORDINARY    00000000 00001000 FFFFFFFC   2 000          @R2,2
   9063  00000FCA  00000001 USING  ORDINARY    00000000 00001000 FFFFFFF7   7 000          @R7,7
   9068  00000FCA  00000001 USING  ORDINARY    00000000 00001000 FFFFFFF4  10 000          @R10,10
   9073  00000FCA  00000001 USING  ORDINARY    00000000 00001000 FFFFFFF1  13 000          @R13,13
   9078  00000FCA  00000001 USING  ORDINARY    00000000 00001000 FFFFFFF6   8 000          @R8,8
   9262  000012CA  00000001 USING  ORDINARY    000012CA 00001000 00000001   8 2E9    9925  $$$186B,BR
   9281  000012DA  00000001 USING  ORDINARY    FFFFFFB4 00001000 FFFFFFDD  13 04C    9912  SHOWCORW-@@,R13
   9293  000012DA  00000001 USING  ORDINARY    00000000 00001000 FFFFFFE4  10 000          CCB,CCBR
   9303  000012DA  00000001 USING  ORDINARY    00000000 00001000 FFFFFFEA   7 000          SEGCB,R7
   9909  000013F0  00000001 DROP                                            2              2
   9913  000013F6  00000001 USING  ORDINARY    00000000 00001000 FFFFFFFC   2 002   11910  @R2,2
   9934  00001406  00000001 USING  ORDINARY    00000000 00001000 FFFFFFF7   7 000          @R7,7
   9939  00001406  00000001 USING  ORDINARY    00000000 00001000 FFFFFFF4  10 000          @R10,10
   9944  00001406  00000001 USING  ORDINARY    00000000 00001000 FFFFFFF1  13 000          @R13,13
   9949  00001406  00000001 USING  ORDINARY    00000000 00001000 FFFFFFF6   8 000          @R8,8
  10019  00001424  00000001 USING  ORDINARY    00001424 00001000 00000001   8 1B8   10587  $$$211B,BR
  10038  00001434  00000001 USING  ORDINARY    FFFFFFB4 00001000 FFFFFFDC  13 14C   10545  PCWA-@@,R13
  10050  00001434  00000001 USING  ORDINARY    00000000 00001000 FFFFFFE4  10 000   10085  CCB,CCBR
  10060  00001434  00000001 USING  ORDINARY    00000000 00001000 FFFFFFEA   7 000   10551  SEGCB,R7
  10596  0000156A  00000001 USING  ORDINARY    00000000 00001000 FFFFFFF7   7 000          @R7,7
  10601  0000156A  00000001 USING  ORDINARY    00000000 00001000 FFFFFFF4  10 000          @R10,10
  10606  0000156A  00000001 USING  ORDINARY    00000000 00001000 FFFFFFF1  13 000          @R13,13
  10611  0000156A  00000001 USING  ORDINARY    00000000 00001000 FFFFFFF6   8 000          @R8,8
  10688  000015EC  00000001 USING  ORDINARY    000015EC 00001000 00000001   8 630   10750  $$$232B,BR
  10725  00001606  00000001 USING  ORDINARY    00000000 00001000 FFFFFFE6  10 188   10747  CMD,CMDR
  10757  00001610  00000001 USING  ORDINARY    00000000 00001000 FFFFFFF4  10 000          @R10,10
  10768  00001610  00000001 USING  ORDINARY    00000000 00001000 FFFFFFF6   8 000          @R8,8
  10814  0000162E  00000001 USING  ORDINARY    0000162E 00001000 00000001   8 5F8   10883  $$$236B,BR
  10851  00001648  00000001 USING  ORDINARY    00000000 00001000 FFFFFFE6  10 188   10880  CMD,CMDR
  10890  00001662  00000001 USING  ORDINARY    00000000 00001000 FFFFFFF4  10 000          @R10,10
  10901  00001662  00000001 USING  ORDINARY    00000000 00001000 FFFFFFF6   8 000          @R8,8
  10947  00001680  00000001 USING  ORDINARY    00001680 00001000 00000001   8 59C   11013  $$$240B,BR
  10984  0000169A  00000001 USING  ORDINARY    00000000 00001000 FFFFFFE6  10 188   11006  CMD,CMDR
  11020  000016A8  00000001 USING  ORDINARY    00000000 00001000 FFFFFFF4  10 000          @R10,10
  11031  000016A8  00000001 USING  ORDINARY    00000000 00001000 FFFFFFF6   8 000          @R8,8
  11077  000016C6  00000001 USING  ORDINARY    000016C6 00001000 00000001   8 560   11157  $$$244B,BR
  11114  000016E0  00000001 USING  ORDINARY    00000000 00001000 FFFFFFE6  10 188   11154  CMD,CMDR
  11164  00001702  00000001 USING  ORDINARY    00000000 00001000 FFFFFFF4  10 000          @R10,10
  11175  00001702  00000001 USING  ORDINARY    00000000 00001000 FFFFFFF6   8 000          @R8,8
  11221  00001720  00000001 USING  ORDINARY    00001720 00001000 00000001   8 4FC   11284  $$$248B,BR
  11258  0000173A  00000001 USING  ORDINARY    00000000 00001000 FFFFFFE6  10 188   11281  CMD,CMDR
  11291  00001746  00000001 USING  ORDINARY    00000000 00001000 FFFFFFF4  10 000          @R10,10
  11302  00001746  00000001 USING  ORDINARY    00000000 00001000 FFFFFFF6   8 000          @R8,8
  11370  00001764  00000001 USING  ORDINARY    00001764 00001000 00000001   8 4BC   11489  $$$252B,BR
  11389  00001774  00000001 USING  ORDINARY    FFFFFFB4 00001000 FFFFFFDB  13 04C   11469  HXSWA-@@,R13
  11499  000017BA  00000001 USING  ORDINARY    00000000 00001000 FFFFFFF1  13 000          @R13,13
  11504  000017BA  00000001 USING  ORDINARY    00000000 00001000 FFFFFFF6   8 000          @R8,8
  11611  000017D8  00000001 USING  ORDINARY    000017D8 00001000 00000001   8 44C   12043  $$$258B,BR
  11630  000017E8  00000001 USING  ORDINARY    FFFFFFB4 00001000 FFFFFFDA  13 061   12035  HXDWA-@@,R13
  12051  0000191A  00000001 USING  ORDINARY    00000000 00001000 FFFFFFF1  13 000          @R13,13
  12056  0000191A  00000001 USING  ORDINARY    00000000 00001000 FFFFFFF6   8 000          @R8,8
  12139  00001B38  00000001 USING  ORDINARY    00001B38 00001000 00000001   8 0EF   12196  $$$278B,BR
  12162  00001B4A  00000001 USING  ORDINARY    00000000 00001000 FFFFFFE6  10 000   12193  CMD,CMDR
  12209  00001B68  00000001 USING  ORDINARY    00000000 00001000 FFFFFFF4  10 000          @R10,10
  12214  00001B68  00000001 USING  ORDINARY    00000000 00001000 FFFFFFF6   8 000          @R8,8
  12262  00001B86  00000001 USING  ORDINARY    00001B86 00001000 00000001   8 096   12266  $$$282B,BR
  12285  00001B96  00000001 USING  ORDINARY    00000000 00001000 FFFFFFF6   8 000          @R8,8
  12332  00001BB4  00000001 USING  ORDINARY    00001BB4 00001000 00000001   8 068   12336  $$$285B,BR
1MCOM     (MCOM2047) (12:36) (15MAR04) Using Map                                                                            Page   73
  12352  00001BC4  00000001 USING  ORDINARY    00000000 00001000 FFFFFFF6   8 000          @R8,8

1         (MCOM2047) (12:36) (15MAR04) General Purpose Register Cross Reference                                             Page   74
- Register  References (M=modified, B=branch, U=USING, D=DROP, N=index)                      HLASM R4.0  2004/03/15 12.36
0    0(0)      989U   990D  1616M  1617M  1618   1620M  1621   3512M  3513M  3515   3570   3706M  3779M  3779   3801M
              3949M  3985M  4086M  4099M  4723M  4723   4734M  4734   4780M  4815M  4971M  4989M  4990M  4997M  5035M
              5161M  5185M  5185   5224M  5349M  5373M  5373   5436M  5469M  5493M  5510M  5538M  5538   5701M  5718M
              5742M  5742   5803M  5827M  5827   6076M  6095M  6113M  6192M  6219M  6236M  6256M  6256   6273M  6300M
              6317M  6344M  6361M  6389M  6406M  6439M  6461M  6490M  6542M  6717M  6772M  6772   6788M  6816M  6837M
              6837   6853M  6910M  6931M  6931   6948M  6977M  6994M  7023M  7041M  7061M  7115M  7271   7294M  7442M
              7463M  7463   7487M  7487   7681M  7701M  7749M  7766M  7786M  7786   7821M  7841M  7841   7863M  7882M
              7904M  7930M  7993M  8035M  8037M  8048M  8123M  8123   8361   8442M  8444   8445   8454M  8454   8478M
              8478   8540M  8582M  8582   8729   8809M  8811   8812   8854M  8917M  8989M  8989   9034M  9348M  9348
              9437M  9437   9480M  9480   9562M  9562   9603M  9603   9758M  9758   9802M  9802   9896M 10095M 10140M
             10140  10212M 10212  10255M 10255  10337M 10337  10379M 10379  10415  10427M 10432  10524M 10550M 10567M
             10567  10872M 11129M 11146M 11273M 11273  11393  11425M 11438M 11441  11453M 11458M 11458  11636  11777M
             11815M 11973M 11974M 12029M
     1(1)      985U  3493M  3503M  3513   3518M  3553M  3640M  3705M  3800M  3848M  3950M  3956   3984M  3984   3985M
              3995M  4046M  4081M  4103M  4103   4161M  4235   4453M  4464M  4699M  4745M  4745   4779M  4814M  4871M
              4899M  4926M  4934M  4970M  4987M  4996M  5034M  5160M  5223M  5348M  5435M  5468M  5486M  5509M  5618M
              5696M  5717M  5802M  6055M  6075M  6094M  6112M  6191M  6214M  6235M  6252M  6272M  6295M  6316M  6339M
              6360M  6384M  6405M  6438M  6460M  6489M  6541M  6716M  6733M  6768M  6787M  6796M  6815M  6833M  6852M
              6909M  6927M  6947M  6970M  6993M  7016M  7040M  7114M  7293M  7441M  7459M  7680M  7701M  7744M  7765M
              7782M  7820M  7837M  7862M  7881M  7903M  7929M  7989M  8010M  8016   8036M  8037M  8044M  8144M  8362
              8403M  8429M  8441M  8442   8443M  8533M  8730   8770M  8796M  8808M  8809   8810M  8853M  8924M  9033M
              9328M  9328   9415M  9415   9460M  9460   9576M  9576   9776M  9776   9891M 10094M 10120M 10120  10190M
             10190  10235M 10235  10352M 10352  10523M 10545M 10871M 11122M 11145M 11394  11432M 11469M 11634  11635
             11784M 11822M 12024M 12153  12193M
     2(2)      981U  3251   3294M  3338   3649M  3649   3669M  3897M  3923   3951M  4021M  4123M  4124M  4124   4154N
              4184M  4209   4337M  4387   4492M  4595   4651   5899M  5979   6579M  6630   7152M  7203   7534M  7583
              8011M  8058M  8199M  8250   8328M  8328   8334   8354M  8429M  8624M  8670   8796M  8885D  8887M  8887
              8888M  8898M  8898   9086M  9249   9909D  9911M  9911   9912M  9957M 10006  10436M 10438  10478  10550
             10619M 10676  10775M 10802  10908M 10935  11010M 11038M 11065  11182M 11209  11309M 11357  11512M 11598
             11638  11831M 11847N 11863N 11914M 11914N 11932M 11953M 11989M 12064M 12127  12221M 12250  12292M 12320
             12359M
     3(3)      977U  3251   3294M  3338   3897M  3923   4184M  4209   4309M  4333U  4337   4348M  4349M  4349   4364
              4439U  4492M  4595   5899M  5979   6579M  6630   7152M  7203   7534M  7583   7964M  7964   8016M  8024
              8044   8144   8199M  8250   8334M  8335M  8347M  8347N  8361M  8377M  8377   8383   8445M  8500M  8500
              8517   8560M  8624M  8670   8729M  8742M  8742   8750   8812M  8844M  8844   8954M  8967M  8967   9019M
              9019   9086M  9249   9957M 10006  10437M 10619M 10676  10775M 10802  10908M 10935  11038M 11065  11182M
             11209  11309M 11357  11393M 11408M 11408  11438  11485M 11512M 11598  11847M 11863M 11872M 12000M 12064M
             12127  12221M 12250  12292M 12320  12359M
     4(4)      973U  3251   3294M  3338   3897M  3923   4184M  4209   4492M  4595   5899M  5979   6579M  6630   7152M
              7203   7534M  7583   8199M  8250   8362M  8441   8443   8444M  8558M  8624M  8670   8730M  8808   8810
              8811M  8952M  9086M  9249   9957M 10006  10619M 10676  10775M 10802  10908M 10935  11038M 11065  11182M
             11209  11309M 11357  11394M 11484M 11512M 11598  11873M 11889  11944  11973  12008M 12064M 12127  12221M
             12250  12292M 12320  12359M
     5(5)      969U  3251   3294M  3338   3416M  3426U  3867U  3897M  3923   4184M  4209   4492M  4595   5899M  5979
              6129M  6145U  6159M  6160M  6160   6479U  6579M  6630   7152M  7203   7325M  7336M  7336   7422M  7534M
              7583   8199M  8250   8363M  8533   8624M  8670   8867M  8956M  8978M  8978   9002M  9086M  9249   9318M
              9318   9373M  9405M  9571M  9891   9957M 10006  10619M 10676  10775M 10802  10908M 10935  11038M 11065
             11182M 11209  11309M 11357  11395M 11479  11512M 11598  11634M 11804  12064M 12127  12221M 12250  12292M
             12320  12359M
     6(6)      965U  3251   3294M  3338   3897M  3923   4184M  4209   4492M  4595   5055M  5071U  5085M  5086M  5086
              5127U  5244M  5260U  5274M  5275M  5275   5315U  5563M  5579U  5593M  5594M  5594   5769U  5899M  5979
              6579M  6630   6799M  6800M  6800   6871U  6885U  7152M  7203   7270M  7283M  7283   7351U  7404M  7405M
              7405   7428U  7534M  7583   7642M  7652U  8171U  8199M  8250   8624M  8670   9086M  9249   9322M  9322
              9767M  9872M  9872   9879M  9896   9957M 10006  10619M 10676  10775M 10802  10908M 10935  11038M 11065
             11182M 11209  11309M 11357  11512M 11598  11635M 11751  12003M 12064M 12127  12221M 12250  12292M 12320
1         (MCOM2047) (12:36) (15MAR04) General Purpose Register Cross Reference                                             Page   75
             12359M
     7(7)      961U  3251   3294M  3338   3897M  3923   4184M  4209   4492M  4595   4653M  4663U  4770   4788   4823
              4979   5005   5043   5152   5169   5193   5232   5340   5357   5381   5444   5477   5501   5518   5546
              5709   5726   5750   5794   5811   5835   5876U  5899M  5979   6033U  6084   6103   6121   6200   6227
              6244   6264   6281   6308   6325   6352   6369   6397   6414   6447   6469   6498   6534   6556U  6579M
              6630   6684U  6780   6824   6845   6918   6939   6956   6985   7002   7031   7049   7107   7129U  7152M
              7203   7265U  7302   7450   7471   7495   7511U  7534M  7583   7637U  7689   7726   7757   7774   7794
              7829   7849   7871   7953   8131   8176U  8199M  8250   8304U  8486   8548   8590   8601U  8624M  8670
              8724U  8831   8862   8947   8997   9042   9063U  9086M  9249   9303U  9904   9934U  9957M 10006  10060U
             10103  10532  10575  10596U 10619M 10676  10775M 10802  10908M 10935  11038M 11065  11182M 11209  11309M
             11357  11512M 11598  11636M 11743M 11743  11900M 11900  12005M 12064M 12127  12221M 12250  12292M 12320
             12359M
     8(8)      957U  3251   3252M  3263U  3287U  3294M  3338   3340M  3351U  3889U  3897M  3923   3924M  3935U  4177U
              4184M  4209   4210M  4221U  4485U  4492M  4595   4597M  4608U  5891U  5899M  5979   5981M  5992U  6571U
              6579M  6630   6632M  6643U  7144U  7152M  7203   7205M  7216U  7526U  7534M  7583   7585M  7596U  8191U
              8199M  8250   8252M  8263U  8616U  8624M  8670   8672M  8683U  9078U  9086M  9249   9251M  9262U  9949U
              9957M 10006  10008M 10019U 10611U 10619M 10676  10677M 10688U 10768U 10775M 10802  10803M 10814U 10901U
             10908M 10935  10936M 10947U 11031U 11038M 11065  11066M 11077U 11175U 11182M 11209  11210M 11221U 11302U
             11309M 11357  11359M 11370U 11504U 11512M 11598  11600M 11611U 12056U 12064M 12127  12128M 12139U 12214U
             12221M 12250  12251M 12262U 12285U 12292M 12320  12321M 12332U 12352U 12359M
     9(9)      953U  3251   3294M  3338   3897M  3923   4184M  4209   4492M  4595   5899M  5979   6579M  6630   7152M
              7203   7534M  7583   8199M  8250   8624M  8670   9086M  9249   9957M 10006  10619M 10676  10775M 10802
             10908M 10935  11038M 11065  11182M 11209  11309M 11357  11512M 11598  12064M 12127  12221M 12250  12292M
             12320  12359M
    10(A)      949U  3251   3294M  3338   3377M  3392U  3406M  3407M  3407   3630   3700   3872U  3897M  3923   3956M
              3965U  3976   4136   4137   4154   4155   4172U  4184M  4209   4235M  4244U  4288   4330U  4364   4434U
              4480U  4492M  4595   4631M  4640U  5419   5881U  5899M  5979   6023U  6561U  6579M  6630   6674U  7134U
              7152M  7203   7255U  7516U  7534M  7583   7627U  8181U  8199M  8250   8294U  8606U  8624M  8670   8714U
              9068U  9086M  9249   9293U  9939U  9957M 10006  10050U 10601U 10619M 10676  10704M 10705M 10705  10725U
             10757U 10775M 10802  10830M 10831M 10831  10851U 10890U 10908M 10935  10963M 10964M 10964  10984U 11020U
             11038M 11065  11093M 11094M 11094  11114U 11164U 11182M 11209  11237M 11238M 11238  11258U 11291U 11309M
             11357  11512M 11598  12064M 12127  12153M 12162U 12209U 12221M 12250  12292M 12320  12359M
    11(B)      945U  3251   3294M  3338   3897M  3923   4184M  4209   4492M  4595   5899M  5979   6579M  6630   7152M
              7203   7534M  7583   8199M  8250   8624M  8670   9086M  9249   9957M 10006  10619M 10676  10775M 10802
             10908M 10935  11038M 11065  11182M 11209  11309M 11357  11512M 11598  12064M 12127  12221M 12250  12292M
             12320  12359M
    12(C)      941U  1187U
    13(D)      937U  3248   3251   3267M  3269   3269   3270   3270   3271   3291M  3291   3294   3296   3298   3298
              3335   3338   3355M  3357   3357   3358   3358   3359   3370U  3884U  3893M  3893   3897   3899   3901
              3901   3920   3923   3939M  3941   3941   3942   3942   3943   4181M  4181   4184   4186   4188   4188
              4206   4209   4225M  4227   4227   4228   4228   4229   4489M  4489   4492   4494   4496   4496   4592
              4595   4612M  4614   4614   4615   4615   4616   4627U  5886U  5895M  5895   5899   5901   5903   5903
              5976   5979   5996M  5998   5998   5999   5999   6000   6011U  6566U  6575M  6575   6579   6581   6583
              6583   6627   6630   6647M  6649   6649   6650   6650   6651   6662U  7139U  7148M  7148   7152   7154
              7156   7156   7200   7203   7220M  7222   7222   7223   7223   7224   7235U  7521U  7530M  7530   7534
              7536   7538   7538   7580   7583   7600M  7602   7602   7603   7603   7604   7615U  8186U  8195M  8195
              8199   8201   8203   8203   8247   8250   8267M  8269   8269   8270   8270   8271   8282U  8611U  8620M
              8620   8624   8626   8628   8628   8667   8670   8687M  8689   8689   8690   8690   8691   8702U  9073U
              9082M  9082   9086   9088   9090   9090   9246   9249   9266M  9268   9268   9269   9269   9270   9281U
              9944U  9953M  9953   9957   9959   9961   9961  10003  10006  10023M 10025  10025  10026  10026  10027
             10038U 10606U 10615M 10615  10619  10621  10623  10623  10673  10676  10692M 10694  10694  10695  10695
             10696  10772M 10772  10775  10777  10779  10779  10799  10802  10818M 10820  10820  10821  10821  10822
             10905M 10905  10908  10910  10912  10912  10932  10935  10951M 10953  10953  10954  10954  10955  11035M
             11035  11038  11040  11042  11042  11062  11065  11081M 11083  11083  11084  11084  11085  11179M 11179
             11182  11184  11186  11186  11206  11209  11225M 11227  11227  11228  11228  11229  11306M 11306  11309
             11311  11313  11313  11354  11357  11374M 11376  11376  11377  11377  11378  11389U 11499U 11508M 11508
             11512  11514  11516  11516  11595  11598  11615M 11617  11617  11618  11618  11619  11630U 12051U 12060M
             12060  12064  12066  12068  12068  12124  12127  12143M 12145  12145  12146  12146  12147  12218M 12218
             12221  12223  12225  12225  12247  12250  12266M 12268  12268  12269  12269  12270  12289M 12289  12292
1         (MCOM2047) (12:36) (15MAR04) General Purpose Register Cross Reference                                             Page   76
             12294  12296  12296  12317  12320  12336M 12338  12338  12339  12339  12340  12356M 12356  12359  12361
             12363  12363
    14(E)      933U  1615B  1625B  3248   3279M  3280M  3280B  3296M  3300B  3335   3521M  3522M  3522B  3526M  3527M
              3527B  3556M  3557M  3557B  3676M  3677M  3677B  3717M  3718M  3718B  3790M  3791M  3791B  3812M  3813M
              3813B  3851M  3852M  3852B  3899M  3903B  3920   3951   3954M  3955M  3955B  3976M  3985M  3998M  3999M
              3999B  4049M  4050M  4050B  4097M  4098M  4098B  4114M  4115M  4115B  4186M  4190B  4206   4456M  4457M
              4457B  4467M  4468M  4468B  4494M  4498B  4592   4689M  4690M  4690B  4709M  4710M  4710B  4773M  4774M
              4774B  4791M  4792M  4792B  4826M  4827M  4827B  4881M  4882M  4882B  4909M  4910M  4910B  4930M  4931M
              4931B  4938M  4939M  4939B  4943M  4948M  4953M  4959M  4960M  4960B  4982M  4983M  4983B  5008M  5009M
              5009B  5046M  5047M  5047B  5155M  5156M  5156B  5172M  5173M  5173B  5196M  5197M  5197B  5235M  5236M
              5236B  5343M  5344M  5344B  5360M  5361M  5361B  5384M  5385M  5385B  5447M  5448M  5448B  5480M  5481M
              5481B  5504M  5505M  5505B  5521M  5522M  5522B  5549M  5550M  5550B  5622D  5624M  5624   5625M  5626U
              5638   5648M  5648   5653M  5656M  5656N  5657M  5657   5670M  5670B  5712M  5713M  5713B  5729M  5730M
              5730B  5753M  5754M  5754B  5797M  5798M  5798B  5814M  5815M  5815B  5838M  5839M  5839B  5901M  5905B
              5976   6065M  6066M  6066B  6087M  6088M  6088B  6106M  6107M  6107B  6124M  6125M  6125B  6203M  6204M
              6204B  6230M  6231M  6231B  6247M  6248M  6248B  6267M  6268M  6268B  6284M  6285M  6285B  6311M  6312M
              6312B  6328M  6329M  6329B  6355M  6356M  6356B  6372M  6373M  6373B  6400M  6401M  6401B  6417M  6418M
              6418B  6450M  6451M  6451B  6472M  6473M  6473B  6501M  6502M  6502B  6537M  6538M  6538B  6581M  6585B
              6627   6743M  6744M  6744B  6783M  6784M  6784B  6827M  6828M  6828B  6848M  6849M  6849B  6921M  6922M
              6922B  6942M  6943M  6943B  6959M  6960M  6960B  6988M  6989M  6989B  7005M  7006M  7006B  7034M  7035M
              7035B  7052M  7053M  7053B  7064M  7083B  7086B  7110M  7111M  7111B  7154M  7158B  7200   7305M  7306M
              7306B  7377M  7453M  7454M  7454B  7474M  7475M  7475B  7498M  7499M  7499B  7536M  7540B  7580   7692M
              7693M  7693B  7705M  7706M  7706B  7729M  7730M  7730B  7760M  7761M  7761B  7777M  7778M  7778B  7797M
              7798M  7798B  7832M  7833M  7833B  7852M  7853M  7853B  7874M  7875M  7875B  7956M  7957M  7957B  8011
              8014M  8015M  8015B  8024M  8037M  8051M  8052M  8052B  8107M  8134M  8135M  8135B  8152M  8153M  8153B
              8201M  8205B  8247   8462M  8489M  8490M  8490B  8551M  8552M  8552B  8593M  8594M  8594B  8626M  8630B
              8667   8749M  8834M  8835M  8835B  8865M  8866M  8866B  8875M  8927M  8928M  8928B  8950M  8951M  8951B
              9000M  9001M  9001B  9045M  9046M  9046B  9088M  9092B  9246   9338M  9339M  9339B  9359M  9360M  9360B
              9402M  9403M  9403B  9425M  9426M  9426B  9470M  9471M  9471B  9518M  9519M  9519B  9548M  9549M  9549B
              9586M  9587M  9587B  9714M  9715M  9715B  9744M  9745M  9745B  9786M  9787M  9787B  9916M  9917M  9917B
              9959M  9963B 10003  10106M 10107M 10107B 10130M 10131M 10131B 10151M 10152M 10152B 10177M 10178M 10178B
             10200M 10201M 10201B 10245M 10246M 10246B 10293M 10294M 10294B 10323M 10324M 10324B 10362M 10363M 10363B
             10391M 10392M 10392B 10406M 10407M 10407B 10535M 10536M 10536B 10554M 10555M 10555B 10578M 10579M 10579B
             10621M 10625B 10673  10750M 10751M 10751B 10777M 10781B 10799  10867M 10883M 10884M 10884B 10910M 10914B
             10932  11013M 11014M 11014B 11040M 11044B 11062  11140M 11141M 11141B 11157M 11158M 11158B 11184M 11188B
             11206  11284M 11285M 11285B 11311M 11315B 11354  11435M 11436M 11436B 11482M 11483M 11483B 11514M 11518B
             11595  11787M 11788M 11788B 11825M 11826M 11826B 12038M 12039M 12039B 12066M 12070B 12124  12196M 12197M
             12197B 12223M 12227B 12247  12294M 12298B 12317  12361M 12365B
    15(F)      929U  1613M  1614M  1614   1616   1621M  1624M  1624   3299M  3299   3492M  3493   3494M  3496   3511M
              3512   3515M  3570M  3573   3585M  3593M  3602M  3602   3609   3645M  3694   3714M  3787M  3809M  3902M
              3902   3983M  3985M  3990M  3991M  3992   3993   4094M  4111M  4116M  4117   4165M  4165   4189M  4189
              4370M  4371   4380M  4380   4473M  4473   4497M  4497   4653   4686M  4706M  4770M  4788M  4823M  4878M
              4906M  4927M  4935M  4979M  4988M  4988   5005M  5043M  5048M  5152M  5169M  5193M  5198M  5232M  5237M
              5340M  5357M  5381M  5386M  5444M  5477M  5501M  5518M  5546M  5557M  5619M  5709M  5726M  5750M  5794M
              5811M  5835M  5840M  5868M  5868   5904M  5904   6062M  6084M  6103M  6121M  6200M  6227M  6244M  6264M
              6281M  6308M  6325M  6352M  6369M  6397M  6414M  6447M  6469M  6498M  6507M  6507   6534M  6548M  6548
              6584M  6584   6740M  6746M  6758   6768   6780M  6795M  6799N  6824M  6845M  6918M  6939M  6956M  6985M
              7002M  7031M  7049M  7062M  7070M  7070   7107M  7121M  7121   7157M  7157   7270   7302M  7375M  7450M
              7471M  7495M  7504M  7504   7539M  7539   7642   7689M  7694M  7702M  7726M  7757M  7774M  7794M  7829M
              7849M  7871M  7953M  8028M  8036   8037M  8059M  8078M  8101M  8131M  8162M  8162   8204M  8204   8363
              8383M  8386   8398M  8403N  8406M  8415M  8415   8422   8486M  8548M  8590M  8629M  8629   8748M  8749
              8750M  8753   8765M  8770N  8773M  8782M  8782   8789   8831M  8862M  8874M  8875   8878D  8880M  8880
              8881M  8882U  8888N  8947M  8997M  9042M  9091M  9091   9335M  9373   9405   9422M  9467M  9571   9583M
              9767   9783M  9904M  9922M  9922   9927M  9962M  9962  10103M 10127M 10184  10197M 10242M 10346M 10347
             10359M 10388M 10438M 10442M 10451M 10451  10458  10478M 10482M 10491M 10491  10498  10532M 10551M 10575M
             10584M 10584  10589M 10624M 10624  10747M 10780M 10780  10865M 10880M 10913M 10913  11006M 11043M 11043
             11122  11137M 11154M 11187M 11187  11281M 11314M 11314  11395  11418M 11479M 11517M 11517  11692  11751M
             11804M 11912M 12035M 12069M 12069  12184M 12202M 12202  12226M 12226  12297M 12297  12364M 12364

1MCOM     (MCOM2047) (12:36) (15MAR04) Diagnostic Cross Reference and Assembler Summary                                     Page   77
-                                                                                            HLASM R4.0  2004/03/15 12.36
0     No Statements Flagged in this Assembly
 HIGH LEVEL ASSEMBLER, 5696-234, RELEASE 4.0, PTF UQ57391
0SYSTEM: OS/390 02.10.00            JOBNAME: MIL#MCOM    STEPNAME: ASM        PROCSTEP: (NOPROC)
0Datasets Allocated for this Assembly
  Con DDname   Dataset Name                                 Volume  Member
   P1 SYSIN    WYL.GS.MIL.MILTEN.SOURCE                     SYSB05  MCOM
   L1 SYSLIB   WYL.GS.MIL.MILTEN.MACLIB                     SYSB05
   L2          WYL.GG.SYS.MACLIB                            SYSB05
   L3          SYS3.IS.MACLIB                               SYSB05
   L4          SYS3.MACLIB                                  SYSB02
   L5          SYS1.MACLIB                                  MVSBR9
   L6          SYS1.MODGEN                                  MVSBR9
      SYSPRINT SYS04075.T123610.RA000.MIL#MCOM.PRINT.H01    SCR101
      SYSTERM  GG$SLP.MIL#MCOM.JOB03418.D0000101.?

    3776K allocated to Buffer Pool,         1725K would be required for this to be an In-Storage Assembly
    1435 Primary Input Records Read         5034 Library Records Read                  0 Work File Reads
       0 ASMAOPT Records Read               6359 Primary Print Records Written         0 Work File Writes
       0 Punch Records Written                 0 ADATA Records Written
0Assembly Start Time: 12.36.12 Stop Time: 12.36.19 Processor Time: 00.00.02.3155
 Return Code 000
