1                        J E S 2  J O B  L O G  --  S Y S T E M  S Y S B  --  N O D E  R L G
0
 12.36.22 JOB03419 ---- MONDAY,    15 MAR 2004 ----
 12.36.22 JOB03419  ICH70001I GG$SLP   LAST ACCESS AT 12:36:10 ON MONDAY, MARCH 15, 2004
 12.36.22 JOB03419  $HASP373 MIL#MISC STARTED - INIT 9    - CLASS B - SYS SYSB
 12.36.22 JOB03419  ***  HCMD      STEP $$QUIET
 12.36.22 JOB03419  PUR * Q OUT MUL
 12.36.22 JOB03419  JOB 5464 MIL#MISC WILL BE PURGED
 12.36.23 JOB03419  MIL#MISC.$$QUIET .         RC=Zero TapeIO=0000 DiskIO=0000 CPU=  .01s Elapsed=82.02s
 12.36.31 JOB03419  MIL#MISC.ASM     .         RC=Zero TapeIO=0000 DiskIO=0364 CPU= 1.85s Elapsed=83.12s
 12.36.33 JOB03419  MIL#MISC.EDIT    .         RC=Zero TapeIO=0000 DiskIO=0113 CPU=  .39s Elapsed=91.69s
 12.36.33 JOB03419  MIL#MISC Ended.  Name=Assemble MISC                  Total CPU= 2.25s Elapsed=82.02s
 12.36.33 JOB03419
 12.36.33 JOB03419  Execution charges   Priority=Standard   Block=Day
 12.36.33 JOB03419
 12.36.33 JOB03419  CPU Usage          41.43          $25.68   Standard Processing Unit Equivalent
 12.36.33 JOB03419                                   =======
 12.36.33 JOB03419                                    $25.68   Total Job execution charge
 12.36.33 JOB03419
 12.36.33 JOB03419  See back separator page for print charges
 12.36.33 JOB03419
 12.36.33 JOB03419  $HASP395 MIL#MISC ENDED  ASM=0, EDIT=0
1        1 //MIL#MISC JOB SLP$GG,'Assemble MISC',TIME=4,REGION=4M                  JOB03419
           //*
           /*JOBPARM LINES=99,COPIES=1
           /*JOBPARM FORMS=3HOL,PFORMAT=LAND,CHARS=BD13,DUPLEX=YES,FLASH=BAR4
           //*
           /*JOBPARM NOTIFY=GG.SLP,HOLD=OUTPUT                                     WYLGEN
         2 //$$QUIET EXEC PGM=HCMDX,PARM='PUR * Q OUT MUL'
           //*
         3 //ASM    EXEC PGM=ASMA90,REGION=8M,
           //            PARM=('NORENT,TERM,FLAG(NOCONT),US(MAP,WARN(10)),NODECK',
           //            'LC(32767),XREF(SHORT),ESD,DXREF,NOOBJECT')
           //*STEPLIB  DD DSN=SYS1.SASMMOD1,DISP=SHR
         4 //SYSLIB   DD  DSN=WYL.GS.MIL.MILTEN.MACLIB,DISP=SHR
         5 //         DD  DSN=WYL.GG.SYS.MACLIB,DISP=SHR
         6 //         DD  DSN=SYS3.IS.MACLIB,DISP=SHR
         7 //         DD  DSN=SYS3.MACLIB,DISP=SHR
         8 //         DD  DSN=SYS1.MACLIB,DISP=SHR
         9 //         DD  DSN=SYS1.MODGEN,DISP=SHR
        10 //SYSUT1   DD DSN=&&SYSUT1,UNIT=VIO,DISP=(,DELETE),
           //            SPACE=(4088,(500,250),,CONTIG,ROUND)
        11 //SYSTERM  DD SYSOUT=T
        12 //SYSPRINT DD DSN=&&PRINT,UNIT=SYSDA,DISP=(,PASS),
           //            SPACE=(6650,(250,250),RLSE),
           //            DCB=(BLKSIZE=6650,LRECL=133,RECFM=FB)
        13 //SYSUDUMP DD SYSOUT=A
        14 //SYSIN    DD  DSN=WYL.GS.MIL.MILTEN.SOURCE(MISC),DISP=SHR
           //*
        15 //EDIT    EXEC PGM=ASMEDIT,TIME=2,REGION=4000K,
           //             PARM='STMT'
        16 //STEPLIB  DD  DSN=WYL.GG.SYS.LINKLIB,DISP=SHR
        17 //ASMOUT   DD  DSN=&PRINT,DISP=(OLD,DELETE)
        18 //SYSPRINT DD  SYSOUT=A
1 STMT NO. MESSAGE
 -
        10 IGD01010I STORCLAS= TEMP STORGROUP =
        10 IGD01010I STORGRP=VIO ASSIGNED.
        12 IGD01010I STORCLAS= TEMP STORGROUP =
        12 IGD01010I STORGRP=VIO ASSIGNED.
 ICH70001I GG$SLP   LAST ACCESS AT 12:36:10 ON MONDAY, MARCH 15, 2004
 IEF142I MIL#MISC $$QUIET - STEP WAS EXECUTED - COND CODE 0000
 *********************************************************************************
 *   MIL#MISC/$$QUIET /                    Return Code      Zero                 *
 *   Region used      260K (16K user + 244K system)                              *
 *   Extended region  9464K (4K user + 9460K system)                             *
 *                                                                               *
 *   Paging              In      Out                                             *
 *   Private <-> Aux      0        0       CPU time (TCB)   00:00:00.01          *
 *   Private <-> Exp      0        0       CPU time (SRB)   00:00:00.00          *
 *   VIO                  0        0       Elapsed time    917:51:30.94          *
 *   Common               0      ---                                             *
 *                                                                               *
 *                                                                               *
 *   CPU Usage          0.18         $0.11  Standard Processing Unit Equivalent  *
 *                                   $0.11  Total Step execution charge          *
 *                                                                               *
 *    I/O count  DDname   Type Addr           I/O count  DDname   Type Addr      *
 *                         *** No I/O for this step ***                          *
 *********************************************************************************
 IEF373I STEP/$$QUIET /START 2004075.1236
 IEF374I STEP/$$QUIET /STOP  2004075.1236 CPU    0MIN 00.01SEC SRB    0MIN 00.00SEC VIRT    16K SYS   244K EXT       4K SYS    9460K
 IEF236I ALLOC. FOR MIL#MISC ASM
 IEF237I 04DC ALLOCATED TO SYSLIB
 IEF237I 04DC ALLOCATED TO
 IEF237I 04DC ALLOCATED TO
 IEF237I 0402 ALLOCATED TO
 IEF237I 04A0 ALLOCATED TO
 IEF237I 04A0 ALLOCATED TO
 IGD101I SMS ALLOCATED TO DDNAME (SYSUT1  )
         DSN (SYS04075.T123621.RA000.MIL#MISC.SYSUT1.H01  )
         STORCLAS (TEMP) MGMTCLAS (        ) DATACLAS (        )
         VOL SER NOS= VIO
 IEF237I JES2 ALLOCATED TO SYSTERM
 IGD101I SMS ALLOCATED TO DDNAME (SYSPRINT)
         DSN (SYS04075.T123621.RA000.MIL#MISC.PRINT.H01   )
         STORCLAS (TEMP) MGMTCLAS (        ) DATACLAS (        )
         VOL SER NOS= SCR101
 IEF237I JES2 ALLOCATED TO SYSUDUMP
 IEF237I 04DC ALLOCATED TO SYSIN
 IEF142I MIL#MISC ASM - STEP WAS EXECUTED - COND CODE 0000
 IEF285I   WYL.GS.MIL.MILTEN.MACLIB                     KEPT
 IEF285I   VOL SER NOS= SYSB05.
 IEF285I   WYL.GG.SYS.MACLIB                            KEPT
 IEF285I   VOL SER NOS= SYSB05.
 IEF285I   SYS3.IS.MACLIB                               KEPT
 IEF285I   VOL SER NOS= SYSB05.
 IEF285I   SYS3.MACLIB                                  KEPT
 IEF285I   VOL SER NOS= SYSB02.
 IEF285I   SYS1.MACLIB                                  KEPT
 IEF285I   VOL SER NOS= MVSBR9.
 IEF285I   SYS1.MODGEN                                  KEPT
 IEF285I   VOL SER NOS= MVSBR9.
 IGD105I SYS04075.T123621.RA000.MIL#MISC.SYSUT1.H01   DELETED,   DDNAME=SYSUT1
 IEF285I   GG$SLP.MIL#MISC.JOB03419.D0000101.?          SYSOUT
 IGD106I SYS04075.T123621.RA000.MIL#MISC.PRINT.H01    PASSED,    DDNAME=SYSPRINT
 IEF285I   GG$SLP.MIL#MISC.JOB03419.D0000102.?          SYSOUT
 IEF285I   WYL.GS.MIL.MILTEN.SOURCE                     KEPT
 IEF285I   VOL SER NOS= SYSB05.
 *********************************************************************************
 *   MIL#MISC/ASM     /                    Return Code      Zero                 *
 *   Region used      4372K (4096K user + 276K system)                           *
 *   Extended region  10056K (412K user + 9644K system)                          *
 *                                                                               *
 *   Paging              In      Out                                             *
 *   Private <-> Aux      0        0       CPU time (TCB)   00:00:01.82          *
 *   Private <-> Exp      0        0       CPU time (SRB)   00:00:00.03          *
 *   VIO                  0        0       Elapsed time    917:51:29.84          *
 *   Common               0      ---                                             *
 *                                                                               *
 *                                                                               *
 *   CPU Usage         34.12        $21.15  Standard Processing Unit Equivalent  *
 *                                  $21.15  Total Step execution charge          *
 *                                                                               *
 *    I/O count  DDname   Type Addr           I/O count  DDname   Type Addr      *
 *          193  SYSLIB   Disk 04DC                   0  SYSLIB   Disk 04DC      *
 *            0  SYSLIB   Disk 04DC                   0  SYSLIB   Disk 0402      *
 *           36  SYSLIB   Disk 04A0                   0  SYSLIB   Disk 04A0      *
 *            0  SYSUT1   VIO  ----                   0  SYSTERM       ----      *
 *          110  SYSPRINT Disk 04E3                   0  SYSUDUMP      ----      *
 *           25  SYSIN    Disk 04DC                                              *
 *********************************************************************************
 IEF373I STEP/ASM     /START 2004075.1236
 IEF374I STEP/ASM     /STOP  2004075.1236 CPU    0MIN 01.82SEC SRB    0MIN 00.03SEC VIRT  4096K SYS   276K EXT     412K SYS    9644K
 IEF236I ALLOC. FOR MIL#MISC EDIT
 IEF237I 0402 ALLOCATED TO STEPLIB
 IGD103I SMS ALLOCATED TO DDNAME ASMOUT
 IEF237I JES2 ALLOCATED TO SYSPRINT
 IEF142I MIL#MISC EDIT - STEP WAS EXECUTED - COND CODE 0000
 IEF285I   WYL.GG.SYS.LINKLIB                           KEPT
 IEF285I   VOL SER NOS= SYSB02.
 IGD105I SYS04075.T123621.RA000.MIL#MISC.PRINT.H01    DELETED,   DDNAME=ASMOUT
 IEF285I   GG$SLP.MIL#MISC.JOB03419.D0000103.?          SYSOUT
 *********************************************************************************
 *   MIL#MISC/EDIT    /                    Return Code      Zero                 *
 *   Region used      380K (116K user + 264K system)                             *
 *   Extended region  9584K (4K user + 9580K system)                             *
 *                                                                               *
 *   Paging              In      Out                                             *
 *   Private <-> Aux      0        0       CPU time (TCB)   00:00:00.38          *
 *   Private <-> Exp      0        0       CPU time (SRB)   00:00:00.01          *
 *   VIO                  0        0       Elapsed time    917:51:21.27          *
 *   Common               0      ---                                             *
 *                                                                               *
 *                                                                               *
 *   CPU Usage          7.12         $4.41  Standard Processing Unit Equivalent  *
 *                                   $4.41  Total Step execution charge          *
 *                                                                               *
 *    I/O count  DDname   Type Addr           I/O count  DDname   Type Addr      *
 *            2  STEPLIB  Disk 0402                 111  ASMOUT   Disk 04E3      *
 *            0  SYSPRINT      ----                                              *
 *********************************************************************************
 IEF373I STEP/EDIT    /START 2004075.1236
 IEF374I STEP/EDIT    /STOP  2004075.1236 CPU    0MIN 00.38SEC SRB    0MIN 00.01SEC VIRT   116K SYS   264K EXT       4K SYS    9580K
 *********************************************************************************
 *                                                                               *
 *                      S t a n f o r d   U n i v e r s i t y                    *
 *                                                                               *
 *                              *** Job Summary ***                              *
 *                                                                               *
 *   System Id      SYSB                   Input time     12:35:10  Mar 15, 2004 *
 *                                                                               *
 *   System Release SP6.1.0                Start time     12:36:22  Mar 15, 2004 *
 *                                                                               *
 *   Job name       MIL#MISC               Stop  time     00:00:00  Mar 15, 2004 *
 *                                                                               *
 *   Account        SLP$GG                 Elapsed time  917:51:30.94            *
 *                                                                               *
 *   User Name      Assemble MISC          CPU time       00:00:02.21            *
 *                                                                               *
 *   Job class      B                      SRB Time       00:00:00.04            *
 *                                                                               *
 *********************************************************************************
 IEF375I  JOB/MIL#MISC/START 2004075.1236
 IEF376I  JOB/MIL#MISC/STOP  2004075.1236 CPU    0MIN 02.21SEC SRB    0MIN 00.04SEC
1Assembler Done MISC No Statements Flagged
1         High Level Assembler Option Summary                   (PTF UQ57391)                                               Page    1
-                                                                                            HLASM R4.0  2004/03/15 12.36
0  No Overriding ASMAOPT Parameters
   Overriding Parameters-  NORENT,TERM,FLAG(NOCONT),US(MAP,WARN(10)),NODECK,LC(32767),XREF(SHORT),ESD,DXREF,NOOBJECT
   No Process Statements


   Options for this Assembly
0  NOADATA
     ALIGN
   NOASA
     BATCH
     CODEPAGE(047C)
   NOCOMPAT
   NODBCS
 3 NODECK
 3   DXREF
 3   ESD
   NOEXIT
 3   FLAG(0,ALIGN,NOCONT,NOIMPLEN,NOPAGE0,PUSH,RECORD,NOSUBSTR,USING0)
   NOFOLD
   NOGOFF
   NOINFO
     LANGUAGE(EN)
   NOLIBMAC
 3   LINECOUNT(32767)
     LIST(121)
     MXREF(SOURCE)
 3 NOOBJECT
     OPTABLE(UNI,NOLIST)
   NOPCONTROL
   NOPESTOP
   NOPROFILE
   NORA2
 3 NORENT
     RLD
     RXREF
     SIZE(MAX)
     SYSPARM()
 3   TERM(WIDE)
   NOTEST
     THREAD
   NOTRANSLATE
 3   USING(NOLIMIT,MAP,WARN(10))
 3   XREF(SHORT)

   No Overriding DD Names

1MISC     External Symbol Dictionary                                                                                        Page    2
-Symbol   Type   Id     Address  Length     LD ID  Flags Alias-of                            HLASM R4.0  2004/03/15 12.36
0MILMISC   SD 00000001 00000000 00001BB8             00
 MISC4072  LD          00000000           00000001
 DTB       LD          00000018           00000001
 XTB       LD          00000076           00000001
 BTD       LD          000000EC           00000001
 BTX       LD          00000178           00000001
 BTR       LD          000001F4           00000001
 LOCALTOD  LD          0000027E           00000001
 FMTCLCK   LD          000002DA           00000001
 FMTRCLCK  LD          00000344           00000001
 FMTTIME   LD          000003DA           00000001
 TIMEDATE  LD          000005DC           00000001
 DEQUOTE   LD          000006E6           00000001
 DEQSTR    LD          000006EA           00000001
 HEXSTR    LD          00000770           00000001
 SCANTOK   LD          0000087C           00000001
 SEGINIT   LD          0000095A           00000001
 SEGINITR  LD          00000996           00000001
 SEGB      LD          000009C8           00000001
 SEGTB     LD          00000A0C           00000001
 SEGCR     LD          00000A50           00000001
 SEGCCR    LD          00000AD0           00000001
 SEGWR     LD          00000B22           00000001
 SEGT      LD          00000B82           00000001
 SEG       LD          00000BE0           00000001
 SEGCOL    LD          00000D08           00000001
 SEGBLANK  LD          00000D5A           00000001
 SEGCLR    LD          00000EBA           00000001
 SEGMARK   LD          00000F06           00000001
 SEGDC     LD          00000F0E           00000001
 SEGHX     LD          00000F68           00000001
 SEG       ER 00000002
 SEGCR     ER 00000003
 SEGBLANK  ER 00000004
 BTD       ER 00000005
 BTX       ER 00000006
 SCINIT    LD          0000100E           00000001
 SCTELL    LD          0000101E           00000001
 SCTYPE    LD          00001030           00000001
 SCAN      LD          00001048           00000001
 RTRIM     LD          00001998           00000001
 LRTRIM    LD          000019E2           00000001
 TOEBCDIC  LD          00001A44           00000001
 TOEBC7    LD          00001A9C           00000001
 TOASCII   LD          00001AF4           00000001
 EBCTBL    ER 00000007
 EBCTBL7   ER 00000008
 ASCTBL    ER 00000009

1MISC     MILTEN's Miscellaneous Utility Routines                                                                           Page    3
0Loc    Object Code    Addr1 Addr2  Stmt Lv Lineno    Source Statement                    (Asmedit 3.3)  HLASM R4.0  2004/03/15 12.36
+___    ______ ____    _____ _____  ____ __ ______    ______ _________
0                                      2              *******************************************************************
                                       3              *                                                                 *
                                       4              *     MILTEN/370 - Release VI - Class I - Stanford Proprietary    *
                                       5              *                                                                 *
                                       6              *******************************************************************
                                       7                       HIBAL
                                     995
                                     996                       SYSDEFN
                                     997                       GBLC  &ZONE,&ALTZONE      Time zones
                                     998
                                     999                       PUSH  DSECTS
 AUSING (CV,CVR)                    1010             =         USING CV
 000000                00000 00000  1015             =         POP   PRINT
                                    2800
 000000                00000 01BB8  2801              MILMISC  CSECT
                                    2805                       REGS  ,,(FSR,SR),TR,RR,NR,PR,,BR,,,,(SCANCBR,LSR),SPR,RAR
                                    2962              CVR      REG   R12
-                                   2975              MISC     IDENT 4072                10:31:57 03/12/04  (SLP)
                                    2978             +
                                    2979    01-IDENT +         ENTRY MISC4072
                                    2980             +
 000000 16D4C9E2C3F4F0F7            2981    01-IDENT +MISC4072 DC    AL1(22),C'MISC4072,15MAR04,12:36'
                                    2982             +*
                                    2984              *
 USING  DEC,R6                      2985                       USING DEC,R6
1MISC     (MISC4072) (12:36) (15MAR04) DSECTS                                                                               Page    4
0Current Usings:  (DEC,R6)
0Loc    Object Code    Addr1 Addr2  Stmt Lv Lineno    Source Statement           (Hibal 5, Asmedit 3.3)  HLASM R4.0  2004/03/15 12.36
+___    ______ ____    _____ _____  ____ __ ______    ______ _________
0                                   2995              *
                                    2996              * Work area used for date and time routines
                                    2997              *
 000000                00000 00038  2998              STCKCVWA RECORD BEGIN
 000000                             3006  1           STCKCVCK   DS    XL8                 Clock value to be converted
 000008                             3007  1           STCKCVVL   DS    CL16                Converted output value
 000018                             3008  1           STCKEDIT   DS    XL32                EDIT Work area
 000038                00038 00038  3009                       END
                                    3018              *
                                    3019              *  Work area used by conversion routines
                                    3020              *
 000000                00000 00031  3021              WA       RECORD BEGIN
 000000                             3029  1                      DS    F                   Double word insurance
 000004                             3030  1           DW         DS    2F                  Double word
 00000C                             3031  1           HEXW       DS    F
 000010                             3032  1           HEXS       DS    CL16
                                    3033  1
 000020                00020 0000C  3034  1                      ORG   HEXW                Work area for FMTXDATE
 00000C                             3035  1           SAVEDAY    DS    F                   Save area for day-of-week
 000010                             3036  1           SAVEDATE   DS    F                   Save area for day-of-month
 000014                00014 00020  3037  1                      ORG   ,
                                    3038  1
 000020                             3039  1           REDITWA    DS    CL17
 000031                00031 00031  3040                       END
-000000                00000 00008  3050              DEC      RECORD 'DS D'
 000000                00008 00008  3059    02-GEN   +         DS    D
1MISC     (MISC4072) (12:36) (15MAR04) Conversion Routines                                                                  Page    5
0Current Usings:  (DEC,R6)
0Loc    Object Code    Addr1 Addr2  Stmt Lv Lineno    Source Statement           (Hibal 5, Asmedit 3.3)  HLASM R4.0  2004/03/15 12.36
+___    ______ ____    _____ _____  ____ __ ______    ______ _________
0                                   3070              *  decimal to binary conversion
                                    3071              *
 000018 50E0 D044/902C_      00044  3072              DTB      XPROC
 USING  *,R8
 000032 1BFF                        3110                       CLEAR R15                 Clear result
 000034 1200                        3114              DTBL     LTR   R0,R0               Done?
 000036 47D0 8042            00064  3115                       BNP   DTBX
 00003A 95F0 1000      00000        3116                       CLI   @R1,C'0'            Digit?
 00003E 4740 8042            00064  3117                       BL    DTBX                Br if too low
 000042 95F9 1000      00000        3118                       CLI   @R1,C'9'
 000046 4720 8042            00064  3119                       BH    DTBX                Br if too high
 00004A 1F22/4320 1000              3120                       LC    R2,@R1
 000050 5F20 867E            006A0  3127                       SL    R2,=A(C'0')
 000054 4CF0 86A0            006C2  3128                       MH    R15,=H'10'          Build result
 000058 1EF2                        3129                       ALR   R15,R2
 00005A 4110 1001            00001  3130                       LA    R1,@R1+1
 00005E 0600                        3131                       DECR  R0
 000060 47F0 8012            00034  3133                       B     DTBL
 000064 41D0 D034/982C_      00034  3134              DTBX     PEND  *
 DROP   *,R8
1MISC     (MISC4072) (12:36) (15MAR04) Conversion Routines                                                                  Page    6
0Current Usings:  (DEC,R6)
0Loc    Object Code    Addr1 Addr2  Stmt Lv Lineno    Source Statement           (Hibal 5, Asmedit 3.3)  HLASM R4.0  2004/03/15 12.36
+___    ______ ____    _____ _____  ____ __ ______    ______ _________
0                                   3155              *  hexadecimal to binary conversion
                                    3156              *
 000076 50E0 D044/902C_      00044  3157              XTB      XPROC
 USING  *,R8
 000090 1BFF                        3195                       CLEAR R15
 000092 1200                        3199              XTBL     LTR   R0,R0               Done?
 000094 47D0 805A            000DA  3200                       BNP   XTBX                Br if so
 000098 1F22/4320 1000              3201                       LC    R2,@R1              Pick up digit
 00009E 95C1 1000      00000        3208                       CLI   @R1,C'A'
 0000A2 4740 8036            000B6  3209                       BL    XTBN
 0000A6 95C6 1000      00000        3210                       CLI   @R1,C'F'
 0000AA 4720 8036            000B6  3211                       BH    XTBN
 0000AE 5F20 8624            006A4  3212                       SL    R2,=A(C'A'-10)
 0000B2 47F0 804A            000CA  3213                       B     XTBB
                                    3214
 0000B6 95F0 1000      00000        3215              XTBN     CLI   @R1,C'0'
 0000BA 4740 805A            000DA  3216                       BL    XTBX
 0000BE 95F9 1000      00000        3217                       CLI   @R1,C'9'
 0000C2 4720 805A            000DA  3218                       BH    XTBX
 0000C6 5F20 8620            006A0  3219                       SL    R2,=A(C'0')
 0000CA 89F0 0004            00004  3220              XTBB     SLL   R15,4               Add new digit in
 0000CE 16F2                        3221                       OR    R15,R2
 0000D0 4110 1001            00001  3222                       LA    R1,@R1+1            Next digit
 0000D4 0600                        3223                       DECR  R0
 0000D6 47F0 8012            00092  3225                       B     XTBL
                                    3226
 0000DA 41D0 D034/982C_      00034  3227              XTBX     PEND  *
 DROP   *,R8
1MISC     (MISC4072) (12:36) (15MAR04) Conversion Routines                                                                  Page    7
0Current Usings:  (DEC,R6)
0Loc    Object Code    Addr1 Addr2  Stmt Lv Lineno    Source Statement           (Hibal 5, Asmedit 3.3)  HLASM R4.0  2004/03/15 12.36
+___    ______ ____    _____ _____  ____ __ ______    ______ _________
0                                   3248              *  binary to decimal conversion
                                    3249              *
 0000EC 50E0 D044/902C_      00044  3250              BTD      XPROC WA
 USING  *,R8
 USING  WA-@@,R13
 000106 4160 D050            00004  3299                       LA    R6,DW               Get a double word
 00010A 5460 85B2            006A8  3300                       N     R6,=XL4'FFFFF8'
 00010E 4EF0 6000            00000  3301                       CVD   R15,DEC             Convert number to packed
 000112 D20F D05C 8072 00010 00168  3302                       MVC   HEXS(16),ED15       Edit mask
 000118 1841                        3303                       LR    R4,1                Save result loc.
 00011A 4110 D06B            0001F  3304                       LA    R1,HEXS+15
 00011E DF0F D05C 6000 00010 00000  3305                       EDMK  HEXS(16),DEC
 000124 12FF                        3306                       LTR   R15,R15             Negative?
 000126 47B0 803A            00130  3307                       BNM   *+10                Br if not
 00012A 0610                        3308                       DECR  R1                  Put in a sign
 00012C 9260 1000      00000        3310                       MVI   @R1,C'-'
 000130 4130 D06C            00020  3311                       LA    R3,HEXS+16          Compute actual length
 000134 1B31                        3312                       SR    R3,R1
 000136 1814                        3313                       LR    R1,R4               Restore result pointer
 000138 1200                        3314                       LTR   R0,R0               Field size given?
 00013A 4720 804C            00142  3315                       BP    *+8                 Br if so
 00013E 1300                        3316                       LCR   R0,R0
 000140 1A03                        3317                       AR    R0,R3               Compute field size
 000142 1830                        3318                       LR    R3,R0               Field length
 000144 4120 D06C            00020  3319                       LA    R2,HEXS+16          Compute starting addr
 000148 1B23                        3320                       SR    R2,R3
 00014A 0630/4430 806C              3321                       DEX   R3,BTDMV            Move to result loc.
 000150 41D0 D068/982C_      00068  3326                       PEND  *
 DROP   WA-@@,R13
 DROP   *,R8
                                    3351
 000162 D200 1000 2000 00000 00000  3352              BTDMV    MVC   @R1(0),@R2
                                    3353
 000168 4020202020202020            3354              ED15     DC    C' ',13X'20',X'2120'
1MISC     (MISC4072) (12:36) (15MAR04) Conversion Routines                                                                  Page    8
0Current Usings:  (DEC,R6)
0Loc    Object Code    Addr1 Addr2  Stmt Lv Lineno    Source Statement           (Hibal 5, Asmedit 3.3)  HLASM R4.0  2004/03/15 12.36
+___    ______ ____    _____ _____  ____ __ ______    ______ _________
0                                   3356              *  binary to hexadecimal conversion
                                    3357              *
 000178 50E0 D044/902C_      00044  3358              BTX      XPROC WA
 USING  *,R8
 USING  WA-@@,R13
 000192 50F0 D058            0000C  3407                       ST    R15,HEXW            Word to be converted
 000196 F384 D05C D058 00010 0000C  3408                       UNPK  HEXS(9),HEXW(5)     To zoned format
 00019C DC07 D05C 841E 00010 005A0  3409                       TR    HEXS(8),HEXTBL-C'0' To hex format
 0001A2 1230                        3410                       LTR   R3,R0               Length
 0001A4 4780 8036            001B8  3411                       BZ    BTX0                Zero means calculate it
 0001A8 4120 D064            00018  3412                       LA    R2,HEXS+8           Compute addr to move from
 0001AC 1B23                        3413                       SR    R2,R3
 0001AE 0630                        3414                       DECR  R3
 0001B0 4430 806C            001EE  3416              BTXC     EX    R3,HEXMV            Move to users area
 0001B4 47F0 805A            001DC  3418                       EXIT
                                    3421
 0001B8 4120 D05B            0000F  3422              BTX0     LA    R2,HEXS-1
 0001BC 4130 0007            00007  3423                       LA    R3,7
 0001C0 4120 2001            00001  3424              BTXCHK0  LA    R2,@R2+1            Bump
 0001C4 95F0 2000      00000        3425                       CLI   @R2,C'0'            Start of non-zero stuff?
 0001C8 4770 8052            001D4  3426                       BNE   BTXX                No, branch
 0001CC 4630 803E            001C0  3427                       BCT   R3,BTXCHK0          Loop if not last dig
 0001D0 4120 2001            00001  3428                       LA    R2,@R2+1            Point to last digit
 0001D4 4100 3001            00001  3429              BTXX     LA    R0,@R3+1            Get real length in r0
                                    3430              *              now return with r3 having the length in ex form
 0001D8 47F0 802E            001B0  3431                       B     BTXC
                                    3432
 0001DC 41D0 D068/982C_      00068  3433                       PEND  *
 DROP   WA-@@,R13
 DROP   *,R8
                                    3458
 0001EE D200 1000 2000 00000 00000  3459              HEXMV    MVC   @R1(0),@R2
1MISC     (MISC4072) (12:36) (15MAR04) Conversion Routines                                                                  Page    9
0Current Usings:  (DEC,R6)
0Loc    Object Code    Addr1 Addr2  Stmt Lv Lineno    Source Statement           (Hibal 5, Asmedit 3.3)  HLASM R4.0  2004/03/15 12.36
+___    ______ ____    _____ _____  ____ __ ______    ______ _________
0                                   3461              *  binary to real conversion
                                    3462              *
 0001F4 50E0 D044/902C_      00044  3463              BTR      XPROC WA
 USING  *,R8
 USING  WA-@@,R13
                                    3512              *** r15 has value, r1 has output addr, r0 = length*256+no of digits
 00020E 4160 D050            00004  3513                       LA    R6,DW               Set up
 000212 5460 84AE            006AC  3514                       N     R6,=F'-8'           Double word
 000216 1851                        3515                       LR    R5,R1               Save output pointer
 000218 4EF0 6000            00000  3516                       CVD   R15,DEC
 00021C 4120 0007            00007  3517                       LA    R2,X'07'            Get number
 000220 1420                        3518                       NR    R2,R0               ...of digits
 000222 4132 847A            00678  3519                       LA    R3,BTREDMSK(R2)     Get start of mask to use
 000226 4110 D07B            0002F  3520                       LA    R1,REDITWA+15       Default starting point
 00022A 1B12                        3521                       SR    R1,R2               Minus offset
 00022C D210 D06C 3000 00020 00000  3522                       MVC   REDITWA,@R3         Get mask
 000232 9240 D06C      00020        3523                       MVI   REDITWA,C' '        First byte is pad char
 000236 DF10 D06C 6000 00020 00000  3524                       EDMK  REDITWA,DEC         Edit number
 00023C 12FF/47B0 804A_             3525                       IF    (R15,NEG),'DECR R1; MVI @R1,C"-"'
 000248 8A00 0008            00008  3547                       SRA   R0,8                Get number of digits to produce
 00024C 4770 8058            00256  3548                       IF    Z,BEGIN             If 0, use as much as necessary
 000250 4100 D07D            00031  3559  1                      LA    R0,REDITWA+L'REDITWA  r1 points to start,
 000254 1B01                        3560  1                      SR    R0,R1               Get length in r0
 000256                             3561                       END
 000256 805C/47F0 8062 00256 0024E  3565                       ELSE  BEGIN
 00025A 4110 D07D            00031  3576  1                      LA    R1,REDITWA+L'REDITWA  r0 has length,
 00025E 1B10                        3577  1                      SR    R1,R0               Get start in r1
 000260                             3578                       END
 000260 1820                        3582                       LR    R2,R0               Length in r2 for execute
 000262 0620/4420 84E2_             3583                       DEX   R2,'MVC @R5(0),@R1' Move to output area
 000268 1815                        3602                       LR    R1,R5               Set r1 to point to output
 00026A 41D0 D068/982C_      00068  3603                       PEND
 DROP   WA-@@,R13
 DROP   *,R8
                                    3629
 DROP   DEC,R6                      3630                       DROP  DEC
1MISC     (MISC4072) (12:36) (15MAR04) Conversion Routines                                                                  Page   10
0Loc    Object Code    Addr1 Addr2  Stmt Lv Lineno    Source Statement           (Hibal 5, Asmedit 3.3)  HLASM R4.0  2004/03/15 12.36
+___    ______ ____    _____ _____  ____ __ ______    ______ _________
0                                   3639              ¿þþþþþþþþþþþþþþþþþþþþþþþþþþþþþþþþþþþþþþþþþþþþþþþþþþþþþþþþþþþþþþþþþþþþþÜ
                                    3640              Ÿ                                                                     Ÿ
                                    3641              Ÿ  LOCALTOD -- Routine to obtain the local time and date in           Ÿ
                                    3642              Ÿ              STCK format.                                           Ÿ
                                    3643              Ÿ                                                                     Ÿ
                                    3644              Ÿ    On entry:                                                        Ÿ
                                    3645              Ÿ      No entry parameters                                            Ÿ
                                    3646              Ÿ                                                                     Ÿ
                                    3647              Ÿ    On exit:                                                         Ÿ
                                    3648              Ÿ      R0,R1 contain the local time in STCK format.                   Ÿ
                                    3649              Ÿ                                                                     Ÿ
                                    3650              Ÿ    Notes: This code comes from a message on dejanews posted         Ÿ
                                    3651              Ÿ           by William H. Blair for IBM-MAIN list.                    Ÿ
                                    3652              Ÿ                                                                     Ÿ
                                    3653              Ÿ           Assuming the TOD clock is set to International Atomic     Ÿ
                                    3654              Ÿ           Time (TAI), then:                                         Ÿ
                                    3655              Ÿ               UTC        = TOD - CVTLSO                             Ÿ
                                    3656              Ÿ                    and                                              Ÿ
                                    3657              Ÿ               Local time = UTC + CVTLDTO                            Ÿ
                                    3658              Ÿ                                                                     Ÿ
                                    3659              Ÿ           If the TOD clock is set to UTC ("GMT"), then CVTLSO       Ÿ
                                    3660              Ÿ           will be (or should be) zero.  CVTLDTO is a TOD            Ÿ
                                    3661              Ÿ           clock-format (64 bit) "time zone offset" value            Ÿ
                                    3662              Ÿ           (don't use the old CVTTZ field, which is just             Ÿ
                                    3663              Ÿ           the high-order word of the CVTLDTO field).                Ÿ
                                    3664              Ÿ                                                                     Ÿ
                                                      ¾þþþþþþþþþþþþþþþþþþþþþþþþþþþþþþþþþþþþþþþþþþþþþþþþþþþþþþþþþþþþþþþþþþþþþ»
000027E 50E0 D044/902C_      00044  3665              LOCALTOD XPROC
 USING  *,R8
 000298 B205 D000      00000        3703                       STCK  @R13
 00029C 9801 D000            00000  3704                       LM    R0,R1,@R13
 0002A0 5820 0010            00010  3705                       L     R2,CVTPTR
 0002A4 5820 2148            00148  3706                       WITH  (CVT,R2),'L R2,CVTEXT2'
 USING  CVT,R2
 DROP   CVT,R2
 USING  CVTXTNT2,R2                 3730                       WITH  (CVTXTNT2,R2),BEGIN
 0002A8 5F10 2054/47B0_      00054  3744  1                      SDL   R0,CVTLSO
 0002B6 5E10 203C/47C0_      0003C  3749  1                      ADL   R0,CVTLDTO
 DROP   CVTXTNT2,R2                 3770                       END
 0002C6 41D0 D034/982C_      00034  3778                       PEND
 DROP   *,R8
1MISC     (MISC4072) (12:36) (15MAR04) Conversion Routines                                                                  Page   11
0Loc    Object Code    Addr1 Addr2  Stmt Lv Lineno    Source Statement           (Hibal 5, Asmedit 3.3)  HLASM R4.0  2004/03/15 12.36
+___    ______ ____    _____ _____  ____ __ ______    ______ _________
0                                   3799              ¿þþþþþþþþþþþþþþþþþþþþþþþþþþþþþþþþþþþþþþþþþþþþþþþþþþþþþþþþþþþþþþþþþþþþþÜ
                                    3800              Ÿ                                                                     Ÿ
                                    3801              Ÿ  FMTCLCK -- Routine to format time/date from TOD clock.             Ÿ
                                    3802              Ÿ                                                                     Ÿ
                                    3803              Ÿ    On entry:                                                        Ÿ
                                    3804              Ÿ      R0-R1 - 64 bit clock                                           Ÿ
                                    3805              Ÿ      R15   - return area (30 bytes)                                 Ÿ
                                    3806              Ÿ                                                                     Ÿ
                                    3807              Ÿ    On exit:                                                         Ÿ
                                    3808              Ÿ      R1,R0 - text loc, len    returns: hh:mm:ss mm/dd/yyyy (yyyy.ddd)
                                    3809              Ÿ                                                                     Ÿ
                                                      ¾þþþþþþþþþþþþþþþþþþþþþþþþþþþþþþþþþþþþþþþþþþþþþþþþþþþþþþþþþþþþþþþþþþþþþ»
00002DA 50E0 D044/902C_      00044  3810              FMTCLCK  XPROC
 USING  *,R8
 0002F4 186F                        3848                       LR    R6,R15
 0002F6 D21D 6000 8AD6 00000 00DBA  3849                       MVC   @R6(30),BLANKS
                                    3850
 0002FC 1840                        3851                       LR    R4,R0
 0002FE 1851                        3852                       LR    R5,R1
 000300 4DE0 80F6            003DA  3853                       LCALL FMTTIME             hh:mm:ss.hh
 000304 D202 6008 8AD6 00008 00DBA  3855                       MVC   8(3,R6),BLANKS      Don't want hundredths
                                    3856
 00030A 1804                        3857                       LR    R0,R4
 00030C 1815                        3858                       LR    R1,R5
 00030E 41F0 6009            00009  3859                       LA    R15,@R6+9
 000312 4DE0 81A4            00488  3860                       LCALL FMTDATE             Mm/dd/yyyy
                                    3862
 000316 924D 6014      00014        3863                       MVI   @R6+20,C'('
 00031A 1804                        3864                       LR    R0,R4
 00031C 1815                        3865                       LR    R1,R5
 00031E 41F0 6015            00015  3866                       LA    R15,@R6+21
 000322 4DE0 8250            00534  3867                       LCALL FMTJUL              yyyy.ddd
 000326 925D 601D      0001D        3869                       MVI   @R6+29,C')'
                                    3870
 00032A 1816/4100 001E              3871                       SETMSG @R6,30
                                    3887
 000330 41D0 D034/982C_      00034  3888                       PEND
 DROP   *,R8
1MISC     (MISC4072) (12:36) (15MAR04) Conversion Routines                                                                  Page   12
0Loc    Object Code    Addr1 Addr2  Stmt Lv Lineno    Source Statement           (Hibal 5, Asmedit 3.3)  HLASM R4.0  2004/03/15 12.36
+___    ______ ____    _____ _____  ____ __ ______    ______ _________
0                                   3909              ¿þþþþþþþþþþþþþþþþþþþþþþþþþþþþþþþþþþþþþþþþþþþþþþþþþþþþþþþþþþþþþþþþþþþþþÜ
                                    3910              Ÿ                                                                     Ÿ
                                    3911              Ÿ  FMTRCLCK -- Routine to format time/conditional-date from TOD       Ÿ
                                    3912              Ÿ    clock.                                                           Ÿ
                                    3913              Ÿ                                                                     Ÿ
                                    3914              Ÿ    On entry:                                                        Ÿ
                                    3915              Ÿ      R0-R1 - 64 bit clock                                           Ÿ
                                    3916              Ÿ      R2-R3 - 64 bit comparison clock                                Ÿ
                                    3917              Ÿ      R15   - return area (16 bytes)                                 Ÿ
                                    3918              Ÿ                                                                     Ÿ
                                    3919              Ÿ    On exit:                                                         Ÿ
                                    3920              Ÿ      R1,R0 - text loc,len    returns: hh:mm -or- hh:mm mm/dd/yyyy   Ÿ
                                    3921              Ÿ                                                                     Ÿ
                                                      ¾þþþþþþþþþþþþþþþþþþþþþþþþþþþþþþþþþþþþþþþþþþþþþþþþþþþþþþþþþþþþþþþþþþþþþ»
0000344 50E0 D044/902C_      00044  3922              FMTRCLCK XPROC
 USING  *,R8
 00035E 186F                        3960                       LR    R6,R15
 000360 D20F 6000 8A6C 00000 00DBA  3961                       MVC   @R6(16),BLANKS
                                    3962
 000366 1840                        3963                       LR    R4,R0
 000368 1851                        3964                       LR    R5,R1
 00036A 4BD0 8378/BED7_      006C6  3965                       PUSH  11,PTR=R15
 00037A 4DE0 808C            003DA  3972                       LCALL FMTTIME
 00037E D204 6000 1000 00000 00000  3974                       MVC   @R6(5),@R1          "hh:mm"
                                    3975
 000384 18F1                        3976                       LR    R15,R1
 000386 1804                        3977                       LR    R0,R4
 000388 1815                        3978                       LR    R1,R5
 00038A 4DE0 813A            00488  3979                       LCALL FMTDATE
 00038E D209 6006 1000 00006 00000  3981                       MVC   @R6+6(10),@R1        "mm/dd/yyyy"
 000394 41D0 D010/50D0_      00010  3982                       POP   11
                                    3987
 00039C 1804                        3988                       LR    R0,R4
 00039E 4110 0005            00005  3989                       LA    R1,R5
 0003A2 4DE0 828E            005DC  3990                       LCALL TIMEDATE            Get date in R1
 0003A6 1851                        3992                       LR    R5,R1
                                    3993
 0003A8 1802                        3994                       LR    R0,R2
 0003AA 1813                        3995                       LR    R1,R3
 0003AC 4DE0 828E            005DC  3996                       LCALL TIMEDATE            Get "comparison" date in R1
                                    3998
 0003B0 1915/4770 806E_             3999                       IF    (R1,EQ,R5),'SETMSG @R6,5'  same day
 0003BC 8072/47F0 8078_003BC 003B4  4035                       ELSE  'SETMSG @R6,16'
 0003C6 41D0 D034/982C_      00034  4067                       PEND
 DROP   *,R8
1MISC     (MISC4072) (12:36) (15MAR04) Conversion Routines                                                                  Page   13
0Loc    Object Code    Addr1 Addr2  Stmt Lv Lineno    Source Statement           (Hibal 5, Asmedit 3.3)  HLASM R4.0  2004/03/15 12.36
+___    ______ ____    _____ _____  ____ __ ______    ______ _________
0                                   4088              ¿þþþþþþþþþþþþþþþþþþþþþþþþþþþþþþþþþþþþþþþþþþþþþþþþþþþþþþþþþþþþþþþþþþþþþÜ
                                    4089              Ÿ                                                                     Ÿ
                                    4090              Ÿ  FMTTIME -- Routine to format time from TOD clock.                  Ÿ
                                    4091              Ÿ                                                                     Ÿ
                                    4092              Ÿ    On entry:                                                        Ÿ
                                    4093              Ÿ      R0-R1 - 64 bit clock                                           Ÿ
                                    4094              Ÿ      R15   - return area (11 bytes)                                 Ÿ
                                    4095              Ÿ                                                                     Ÿ
                                    4096              Ÿ    On exit:                                                         Ÿ
                                    4097              Ÿ      R1,R0 - text loc, len    returns: hh:mm:ss.hh                  Ÿ
                                    4098              Ÿ                                                                     Ÿ
                                                      ¾þþþþþþþþþþþþþþþþþþþþþþþþþþþþþþþþþþþþþþþþþþþþþþþþþþþþþþþþþþþþþþþþþþþþþ»
00003DA 50E0 D044/902C_      00044  4099              FMTTIME  XPROC STCKCVWA
 USING  *,R8
 USING  STCKCVWA-@@,R13
 0003F4 9001 D04C            00000  4148                       STM   R0,R1,STCKCVCK      Save the clock value
                                    4149
 0003F8 186F                        4150                       LR    R6,R15
 0003FA D20A 6000 89D6 00000 00DBA  4151                       MVC   @R6(11),BLANKS
 000400 5110 0000/4110_      00000  4152                       STCKCONV STCKVAL=STCKCVCK,CONVVAL=STCKCVVL,DATETYPE=MMDDYYYY
                                    4177
 000456 12FF/4770 808A              4178                       IF    (R15,Z),BEGIN
 00045C D20B D064 82D0 00018 006B4  4192  1                      MVC   STCKEDIT(12),=X'F021207A20207A20204B2020'  HH:MM:SS.HH
 000462 DE0B D064 D054 00018 00008  4193  1                      ED    STCKEDIT(12),STCKCVVL
 000468 D20A 6000 D065 00000 00019  4194  1                      MVC   0(11,R6),STCKEDIT+1
 00046E                             4195                       END
                                    4199
 00046E 1816/4100 000B              4200                       SETMSG @R6,11
                                    4216
 000474 41D0 D06C/982C_      0006C  4217                       PEND
 DROP   STCKCVWA-@@,R13
 DROP   *,R8
1MISC     (MISC4072) (12:36) (15MAR04) Conversion Routines                                                                  Page   14
0Loc    Object Code    Addr1 Addr2  Stmt Lv Lineno    Source Statement           (Hibal 5, Asmedit 3.3)  HLASM R4.0  2004/03/15 12.36
+___    ______ ____    _____ _____  ____ __ ______    ______ _________
0                                   4244              ¿þþþþþþþþþþþþþþþþþþþþþþþþþþþþþþþþþþþþþþþþþþþþþþþþþþþþþþþþþþþþþþþþþþþþþÜ
                                    4245              Ÿ                                                                     Ÿ
                                    4246              Ÿ  FMTDATE -- Routine to format date from TOD clock.                  Ÿ
                                    4247              Ÿ                                                                     Ÿ
                                    4248              Ÿ    On entry:                                                        Ÿ
                                    4249              Ÿ      R0-R1 - 64 bit clock                                           Ÿ
                                    4250              Ÿ      R15   - return area (10 bytes)                                 Ÿ
                                    4251              Ÿ                                                                     Ÿ
                                    4252              Ÿ    On exit:                                                         Ÿ
                                    4253              Ÿ      R1,R0 - text loc,len    returns: mm/dd/yyyy                    Ÿ
                                    4254              Ÿ                                                                     Ÿ
                                                      ¾þþþþþþþþþþþþþþþþþþþþþþþþþþþþþþþþþþþþþþþþþþþþþþþþþþþþþþþþþþþþþþþþþþþþþ»
0000488 50E0 D044/902C_      00044  4255              FMTDATE  PROC  STCKCVWA
 USING  *,R8
 USING  STCKCVWA-@@,R13
 0004A2 9001 D04C            00000  4302                       STM   R0,R1,STCKCVCK      Save the clock value
                                    4303
 0004A6 186F                        4304                       LR    R6,R15
 0004A8 D209 6000 8928 00000 00DBA  4305                       MVC   @R6(10),BLANKS
                                    4306
 0004AE 5110 0000/4110_      00000  4307                       STCKCONV STCKVAL=STCKCVCK,CONVVAL=STCKCVVL,DATETYPE=MMDDYYYY
                                    4332
 000502 12FF/4770 8088              4333                       IF    (R15,Z),BEGIN
 000508 D20A D064 8242 00018 006D4  4347  1                      MVC   STCKEDIT(11),=X'F021206120206120202020'  MM/DD/YYYY
 00050E DE0A D064 D05C 00018 00010  4348  1                      ED    STCKEDIT(11),STCKCVVL+8
 000514 D209 6000 D065 00000 00019  4349  1                      MVC   @R6(10),STCKEDIT+1
 00051A                             4350                       END
                                    4354
 00051A 1816/4100 000A              4355                       SETMSG @R6,10
                                    4371
 000520 41D0 D06C/982C_      0006C  4372                       PEND
 DROP   STCKCVWA-@@,R13
 DROP   *,R8
1MISC     (MISC4072) (12:36) (15MAR04) Conversion Routines                                                                  Page   15
0Loc    Object Code    Addr1 Addr2  Stmt Lv Lineno    Source Statement           (Hibal 5, Asmedit 3.3)  HLASM R4.0  2004/03/15 12.36
+___    ______ ____    _____ _____  ____ __ ______    ______ _________
0                                   4399              ¿þþþþþþþþþþþþþþþþþþþþþþþþþþþþþþþþþþþþþþþþþþþþþþþþþþþþþþþþþþþþþþþþþþþþþÜ
                                    4400              Ÿ                                                                     Ÿ
                                    4401              Ÿ  FMTJUL -- routine to format julian date from TOD clock.            Ÿ
                                    4402              Ÿ                                                                     Ÿ
                                    4403              Ÿ    On entry:                                                        Ÿ
                                    4404              Ÿ      R0-R1 - 64 bit clock                                           Ÿ
                                    4405              Ÿ      R15   - return area (8 bytes)                                  Ÿ
                                    4406              Ÿ                                                                     Ÿ
                                    4407              Ÿ    On exit:                                                         Ÿ
                                    4408              Ÿ      R1,R0 - text loc,len    returns: yyyy.ddd                      Ÿ
                                    4409              Ÿ                                                                     Ÿ
                                                      ¾þþþþþþþþþþþþþþþþþþþþþþþþþþþþþþþþþþþþþþþþþþþþþþþþþþþþþþþþþþþþþþþþþþþþþ»
0000534 50E0 D044/902C_      00044  4410              FMTJUL   PROC  STCKCVWA
 USING  *,R8
 USING  STCKCVWA-@@,R13
 00054E 186F                        4457                       LR    R6,R15
 000550 D207 6000 887C 00000 00DBA  4458                       MVC   0(8,R6),BLANKS
                                    4459
 000556 5110 0000/4110_      00000  4460                       STCKCONV STCKVAL=STCKCVCK,CONVVAL=STCKCVVL
 0005AA 12FF/4770 8084              4485                       IF    (R15,Z),BEGIN
 0005B0 D209 D064 818C 00018 006CA  4499  1                      MVC   STCKEDIT(10),=X'F020212020204B202020'
 0005B6 DE09 D064 D05C 00018 00010  4500  1                      ED    STCKEDIT(10),STCKCVVL+8
 0005BC D207 6000 D066 00000 0001A  4501  1                      MVC   0(8,R6),STCKEDIT+2
 0005C2                             4502                       END
                                    4506
 0005C2 1816/4100 0008              4507                       SETMSG @R6,8
 0005C8 41D0 D06C/982C_      0006C  4523                       PEND
 DROP   STCKCVWA-@@,R13
 DROP   *,R8
1MISC     (MISC4072) (12:36) (15MAR04) Conversion Routines                                                                  Page   16
0Loc    Object Code    Addr1 Addr2  Stmt Lv Lineno    Source Statement           (Hibal 5, Asmedit 3.3)  HLASM R4.0  2004/03/15 12.36
+___    ______ ____    _____ _____  ____ __ ______    ______ _________
0                                   4550              ¿þþþþþþþþþþþþþþþþþþþþþþþþþþþþþþþþþþþþþþþþþþþþþþþþþþþþþþþþþþþþþþþþþþþþþÜ
                                    4551              Ÿ                                                                     Ÿ
                                    4552              Ÿ  TIMEDATE -- Routine to calculate time/date from TOD clock.         Ÿ
                                    4553              Ÿ                                                                     Ÿ
                                    4554              Ÿ    On entry:                                                        Ÿ
                                    4555              Ÿ      R0-R1 - 64 bit clock                                           Ÿ
                                    4556              Ÿ                                                                     Ÿ
                                    4557              Ÿ    On exit:                                                         Ÿ
                                    4558              Ÿ      R0 - time (in .01 sec's past midnight)                         Ÿ
                                    4559              Ÿ      R1 - date (in "0yyyyddd" format)                               Ÿ
                                    4560              Ÿ                                                                     Ÿ
                                                      ¾þþþþþþþþþþþþþþþþþþþþþþþþþþþþþþþþþþþþþþþþþþþþþþþþþþþþþþþþþþþþþþþþþþþþþ»
00005DC 50E0 D044/902C_      00044  4561              TIMEDATE XPROC STCKCVWA
 USING  *,R8
 USING  STCKCVWA-@@,R13
 0005F6 9001 D04C            00000  4610                       STM   R0,R1,STCKCVCK      Save the clock value
                                    4611
 0005FA 5110 0000/4110_      00000  4612                       STCKCONV STCKVAL=STCKCVCK,CONVVAL=STCKCVVL,TIMETYPE=BIN
                                    4637
 00064E 12FF/4770 8076              4638                       IF    (R15,Z),BEGIN
 000654 5800 D054            00008  4652  1                      L     R0,STCKCVVL         Get time
 000658 5810 D05C            00010  4653  1                      L     R1,STCKCVVL+8        and date
 00065C                             4654                       END
                                    4658
 00065C 807A/47F0 807E 0065C 00652  4659                       ELSE  BEGIN
 000660 1B00/1B11                   4670  1                      CLEAR R0,R1
 000664                             4676                       END
 000664 41D0 D06C/982C_      0006C  4680                       PEND
 DROP   STCKCVWA-@@,R13
 DROP   *,R8
1MISC     (MISC4072) (12:36) (15MAR04) Conversion Routines                                                                  Page   17
0Loc    Object Code    Addr1 Addr2  Stmt Lv Lineno    Source Statement           (Hibal 5, Asmedit 3.3)  HLASM R4.0  2004/03/15 12.36
+___    ______ ____    _____ _____  ____ __ ______    ______ _________
0000678 2020202020202020            4707              BTREDMSK DC    0CL24' ',14X'20',X'2120',C'.',7X'20'
 000690 F0F1F2F3F4F5F6F7            4708              HEXTBL   DC    C'0123456789ABCDEF'
                                    4709
                                    4710                       QLTORG
1MISC     (MISC4072) (12:36) (15MAR04) Routine To Dequote A String                                                          Page   18
0Loc    Object Code    Addr1 Addr2  Stmt Lv Lineno    Source Statement           (Hibal 5, Asmedit 3.3)  HLASM R4.0  2004/03/15 12.36
+___    ______ ____    _____ _____  ____ __ ______    ______ _________
0                                   4736              ¿þþþþþþþþþþþþþþþþþþþþþþþþþþþþþþþþþþþþþþþþþþþþþþþþþþþþþþþþþþþþþþþþþþþþþÜ
                                    4737              Ÿ                                                                     Ÿ
                                    4738              Ÿ  DEQUOTE/DEQSTR -- Routine to dequote string.                       Ÿ
                                    4739              Ÿ                                                                     Ÿ
                                    4740              Ÿ   On entry:                                                         Ÿ
                                    4741              Ÿ     R1,R0 - string loc,len                                          Ÿ
                                    4742              Ÿ     R15   - output string loc (only for "DEQSTR" entry)             Ÿ
                                    4743              Ÿ                                                                     Ÿ
                                    4744              Ÿ   On exit, CC:                                                      Ÿ
                                    4745              Ÿ     NEG   - not a string (r1,r0 - same as on entry)                 Ÿ
                                    4746              Ÿ     Z,POS - string dequoted (r1,r0 - loc,len of dequoted string)    Ÿ
                                    4747              Ÿ                                                                     Ÿ
                                                      ¾þþþþþþþþþþþþþþþþþþþþþþþþþþþþþþþþþþþþþþþþþþþþþþþþþþþþþþþþþþþþþþþþþþþþþ»
0                                   4748                       ENTRY DEQUOTE
 0006E6 41F0 1001            00001  4749              DEQUOTE  LA    R15,@R1+1           De-quote string in place
                                    4750
 0006EA 50E0 D044/902C_      00044  4751              DEQSTR   XPROC
 USING  *,R8
 000704 5900 88D4/4740_      00FC8  4789                       IF    (R0,LT,2),DQBAD     Bad string
 00070C 957D 1000/4780_00000        4809                       IF    ((@R1,NE,''''),AND,(@R1,NE,'"')),DQBAD
                                    4843
 00071C 0600                        4844                       DECR  R0                  Strip off outer quotes
 00071E 0600                        4846                       DECR  R0
 000720 1841                        4848                       LR    R4,R1               Remember kind of quote
 000722 4160 1001            00001  4849                       LA    R6,@R1+1            Inp ptr
 000726 181F                        4850                       LR    R1,R15
 000728 1850                        4851                       LR    R5,R0
 00072A 1255/47D0 8062              4852                       WHILE (R5,POS),BEGIN
 000730 D200 F000 6000 00000 00000  4868  1                      MVC   @R15(0),@R6
 000736 D500 F000 4000_00000 00000  4869  1                      IF    ('CLC @R15(1),@R4',EQ),'LA R6,@R6+1; DECR R5; DECR R0'
 000748 41F0 F001            00001  4892  1                      LA    R15,@R15+1
 00074C 4160 6001            00001  4893  1                      LA    R6,@R6+1
 000750 0650                        4894  1                      DECR  R5
 000752 47F0 8036            0072A  4896                       END
 000756 1200                        4901                       LTR   R0,R0               Set cc
 000758 47F0 806A            0075E  4902                       EXIT
                                    4905
 00075C 1148                        4906              DQBAD    LNR   R4,BR               Set cc=neg
 00075E 41D0 D034/982C_      00034  4907                       PEND  *
 DROP   *,R8
1MISC     (MISC4072) (12:36) (15MAR04) Routine to Convert Hex Digits to String                                              Page   19
0Loc    Object Code    Addr1 Addr2  Stmt Lv Lineno    Source Statement           (Hibal 5, Asmedit 3.3)  HLASM R4.0  2004/03/15 12.36
+___    ______ ____    _____ _____  ____ __ ______    ______ _________
0                                   4927              ¿þþþþþþþþþþþþþþþþþþþþþþþþþþþþþþþþþþþþþþþþþþþþþþþþþþþþþþþþþþþþþþþþþþþþþÜ
                                    4928              Ÿ                                                                     Ÿ
                                    4929              Ÿ  HEXCONV/HEXSTR -- Routine to convert hex digits to binary.         Ÿ
                                    4930              Ÿ                                                                     Ÿ
                                    4931              Ÿ    On entry:                                                        Ÿ
                                    4932              Ÿ      R1,R0 - string loc,len                                         Ÿ
                                    4933              Ÿ      R15   - output string loc (only for "HEXSTR" entry)            Ÿ
                                    4934              Ÿ                                                                     Ÿ
                                    4935              Ÿ    On exit, CC:                                                     Ÿ
                                    4936              Ÿ      neg   - bad hex string (R1,R0 - as on entry)                   Ÿ
                                    4937              Ÿ      z,pos - hex string converted. CC set by string len.            Ÿ
                                    4938              Ÿ                (R1,R0 - string loc, len)                            Ÿ
                                    4939              Ÿ                                                                     Ÿ
                                                      ¾þþþþþþþþþþþþþþþþþþþþþþþþþþþþþþþþþþþþþþþþþþþþþþþþþþþþþþþþþþþþþþþþþþþþþ»
0000000                00000 00010  4940              HEXWA    RECORD BEGIN
 000000                             4948  1           HEXPTRS    DS    2A                  Saved ptrs
 000008                             4949  1           HEXWORK    DS    D                   Working area
 000010                00010 00010  4950                       END
                                    4959              þþþþ
 000770 50E0 D044/902C_      00044  4960              HEXSTR   XPROC HEXWA
 USING  *,R8
 USING  HEXWA-@@,R13
 00078A 957D 1000/4780_00000        5009                       IF    ((@R1,EQ,''''),OR,(@R1,EQ,'"')),BEGIN  string quotes...
 00079A 4110 1001            00001  5040  1                      LA    R1,@R1+1
 00079E 4B00 887E            00FF8  5041  1                      SH    R0,=Y(2)
 0007A2                             5042                       END
                                    5046
 0007A2 9001 D04C            00000  5047                       STM   R0,R1,HEXPTRS       Ptrs restored if bad hex
                                    5048
 0007A6 186F                        5049                       LR    R6,R15              Output string ptr
 0007A8 1B55                        5050                       CLEAR R5                  Output string len
 0007AA 1B44/1B33                   5054                       CLEAR R4,R3               Ic regs
                                    5060
 0007AE 1200/47D0 80DC              5061                       WHILE (R0,POS),BEGIN
 0007B4 5000 D054            00008  5077  1                      ST    R0,HEXWORK
 0007B8 9101 D057/47E0_0000B        5078  1                      IF    HEXWORK+3.1,BEGIN   Odd no. of digits...
 0007C0 92F0 D054      00008        5094  2                        MVI   HEXWORK,C'0'
 0007C4 D200 D055 1000 00009 00000  5095  2                        MVC   HEXWORK+1(1),@R1
 0007CA 4110 1001            00001  5096  2                        LA    R1,@R1+1
 0007CE 0600                        5097  2                        DECR  R0
 0007D0                             5099  1                      END
 0007D0 805A/47F0 8068 007D0 007BE  5103  1                      ELSE  BEGIN               Even no. of digits...
 0007D4 D201 D054 1000 00008 00000  5114  2                        MVC   HEXWORK(2),@R1
 0007DA 4110 1002            00002  5115  2                        LA    R1,@R1+2            Kick ptr
 0007DE 4B00 887E            00FF8  5116  2                        SH    R0,=Y(2)            & remaining len
 0007E2                             5117  1                      END
 0007E2 D601 D054 8880 00008 00FFA  5121  1                      OC    HEXWORK(2),=C'  '   Upper case
                                    5122  1                      ¿þþþþþþþþþþþþþþþþÜ
                                    5123  1                      Ÿ  First digit.  Ÿ
                                    5124  1                      ¾þþþþþþþþþþþþþþþþ»
 0007E8 95C1 D054/4740_00008        5125  1                      IF    (HEXWORK,LT,'A'),HEXBAD
 0007F0 4330 D054            00008  5145  1                      IC    R3,HEXWORK          Get char
 0007F4 4120 00B7            000B7  5146  1                      LA    R2,C'A'-10          Assume alpha adjustment
 0007F8 95C6 D054/47D0_00008        5147  1                      IF    (HEXWORK,GT,'F'),BEGIN
 000800 95F0 D054/4740_00008        5164  2                        IF    ((HEXWORK,LT,'0'),OR,(HEXWORK,GT,'9')),HEXBAD
1MISC     (MISC4072) (12:36) (15MAR04) Routine to Convert Hex Digits to String                                              Page   20
0Current Usings:  (*,R8) (HEXWA-@@,R13)
0Loc    Object Code    Addr1 Addr2  Stmt Lv Lineno    Source Statement           (Hibal 5, Asmedit 3.3)  HLASM R4.0  2004/03/15 12.36
+___    ______ ____    _____ _____  ____ __ ______    ______ _________
0000810 4120 00F0            000F0  5200  2                        LA    R2,C'0'             Numeric adjustment
 000814                             5201  1                      END
 000814 1B32                        5205  1                      SR    R3,R2               Binary
                                    5206  1                      ¿þþþþþþþþþþþþþþþþþÜ
                                    5207  1                      Ÿ  Second digit.  Ÿ
                                    5208  1                      ¾þþþþþþþþþþþþþþþþþ»
 000816 95C1 D055/4740_00009        5209  1                      IF    (HEXWORK+1,LT,'A'),HEXBAD
 00081E 4340 D055            00009  5229  1                      IC    R4,HEXWORK+1         Get char
 000822 4120 00B7            000B7  5230  1                      LA    R2,C'A'-10          Assume alpha adjustment
 000826 95C6 D055/47D0_00009        5231  1                      IF    (HEXWORK+1,GT,'F'),BEGIN
 00082E 95F0 D055/4740_00009        5248  2                        IF    ((HEXWORK+1,LT,'0'),OR,(HEXWORK+1,GT,'9')),HEXBAD
 00083E 4120 00F0            000F0  5284  2                        LA    R2,C'0'             Numeric adjustment
 000842                             5285  1                      END
 000842 1B42                        5289  1                      SR    R4,R2               Binary
                                    5290  1
 000844 8930 0004            00004  5291  1                      SLL   R3,4                Move high byte over
 000848 1A34                        5292  1                      AR    R3,R4               Form byte
 00084A 4235 6000            00000  5293  1                      STC   R3,@R6(R5)
 00084E 4150 5001            00001  5294  1                      LA    R5,@R5+1
 000852 47F0 8034            007AE  5295                       END
 000856 1816                        5300                       LR    R1,R6               Loc
 000858 1805                        5301                       LR    R0,R5               Len
 00085A 18F0                        5302                       LR    R15,R0              Set rc
 00085C 47F0 80EE            00868  5303                       EXIT
                                    5306
 000860 9801 D04C            00000  5307              HEXBAD   LM    R0,R1,HEXPTRS       Restore orig ptrs
 000864 48F0 8882            00FFC  5308                       LH    R15,=H'-1'          Set cc=neg
 000868 41D0 D044/982C_      00044  5309                       PEND
 DROP   HEXWA-@@,R13
 DROP   *,R8
1MISC     (MISC4072) (12:36) (15MAR04) Token scanners                                                                       Page   21
0Loc    Object Code    Addr1 Addr2  Stmt Lv Lineno    Source Statement           (Hibal 5, Asmedit 3.3)  HLASM R4.0  2004/03/15 12.36
+___    ______ ____    _____ _____  ____ __ ______    ______ _________
0                                   5336              ¿þþþþþþþþþþþþþþþþþþþþþþþþþþþþþþþþþþþþþþþþþþþþþþþþþþþþþþþþþþþþþþþþþþþþþÜ
                                    5337              Ÿ                                                                     Ÿ
                                    5338              Ÿ   SCANTOK -- Routine to scan off the next token; bypassing          Ÿ
                                    5339              Ÿ     all the scanner's complicated rules and upper casing.           Ÿ
                                    5340              Ÿ                                                                     Ÿ
                                    5341              Ÿ     On exit, R15 (and cc):                                          Ÿ
                                    5342              Ÿ       R15   - 0: token returned; 4: no more text                    Ÿ
                                    5343              Ÿ       R1,R0 - token loc, len                                        Ÿ
                                    5344              Ÿ       (scan loc, len updated)                                       Ÿ
                                    5345              Ÿ                                                                     Ÿ
                                    5346              Ÿ       CVTOKLOC - string addr                                        Ÿ
                                    5347              Ÿ       CVTOKLEN - string length                                      Ÿ
                                    5348              Ÿ       CVTOKEN  - 16 byte isolated token                             Ÿ
                                    5349              Ÿ       CVTOKUPP - 16 byte capitalized token                          Ÿ
                                    5350              Ÿ                                                                     Ÿ
                                                      ¾þþþþþþþþþþþþþþþþþþþþþþþþþþþþþþþþþþþþþþþþþþþþþþþþþþþþþþþþþþþþþþþþþþþþþ»
000087C 50E0 D044/902C_      00044  5351              SCANTOK  XPROC (R2,LSR)
 USING  *,R8
 USING  CV,R12                      5389                       WITH  CV                  Entry assumption
                                    5401
 000896 D20F C258 C141 00258 00141  5402                       MVC   CVTOKEN,CVBLANKS
 00089C D20F C268 C141 00268 00141  5403                       MVC   CVTOKUPP,CVBLANKS
                                    5404
 0008A2 4820 C27C            0027C  5405                       LH    R2,CVTOKLEN
 0008A6 5830 C278            00278  5406                       L     R3,CVTOKLOC         Get remaining len and addr
                                    5407                       ¿þþþþþþþþþþþþþþþþþþþþþþþþþþþþÜ
                                    5408                       Ÿ  Skip leading separators.  Ÿ
                                    5409                       ¾þþþþþþþþþþþþþþþþþþþþþþþþþþþþ»
                                    5410            C          WHILE ((R2,POS),AND,
 0008AA 1222/47D0 804C_                                              ((@R3,EQ,' '),OR,(@R3,EQ,','),OR,(@R3,EQ,'='))),BEGIN
 0008C8 5E30 8746            00FCC  5469  1                      INCR R3
 0008CC 0620                        5472  1                      DECR R2
 0008CE 47F0 8024            008AA  5474                       END
                                    5479                       ¿þþþþþþþþþþþþþþþþþþþþþþþþþþþþÜ
                                    5480                       Ÿ  Scan off the next token.  Ÿ
                                    5481                       ¾þþþþþþþþþþþþþþþþþþþþþþþþþþþþ»
 0008D2 1222/47D0 80B4              5482                       IF    (R2,POS),BEGIN      We have some text...
                                    5496  1                      ¿þþþþþþþþþþþþþþþþþþþþþþþþþþÜ
                                    5497  1                      Ÿ  Find ending separator.  Ÿ
                                    5498  1                      ¾þþþþþþþþþþþþþþþþþþþþþþþþþþ»
 0008D8 1813                        5499  1                      LR    R1,R3               Save start of token ptr
                                    5500  1
                                    5501  1         C            WHILE ((R2,POS),AND,
                                          1         C                  (@R3,NE,' '),AND,
                                          1         C                  (@R3,NE,'='),AND,
 0008DA 1222/47D0 807C_                   1                            (@R3,NE,',')),BEGIN
 0008F8 5E30 8746            00FCC  5558  2                        INCR R3
 0008FC 0620                        5561  2                        DECR R2
 0008FE 47F0 8054            008DA  5563  1                      END
                                    5568  1
 000902 1803                        5569  1                      LR    R0,R3               Compute
 000904 1B01                        5570  1                      SR    R0,R1                 token length
                                    5571  1
 000906 4020 C27C            0027C  5572  1                      STH   R2,CVTOKLEN
 00090A 5030 C278            00278  5573  1                      ST    R3,CVTOKLOC         Update scanner info
1MISC     (MISC4072) (12:36) (15MAR04) Token scanners                                                                       Page   22
0Current Usings:  (*,R8) (CV,R12)
0Loc    Object Code    Addr1 Addr2  Stmt Lv Lineno    Source Statement           (Hibal 5, Asmedit 3.3)  HLASM R4.0  2004/03/15 12.36
+___    ______ ____    _____ _____  ____ __ ______    ______ _________
0                                   5574  1
 00090E 1820                        5575  1                      LR    R2,R0
 000910 5920 874A/47D0_      00FD0  5576  1                      CEIL  R2,L'CVTOKEN
 00091C 0620/1222/4740_             5595  1                      MOVE  R2,CVTOKEN,@R1      Save token
                                    5633  1
 000928 D20F C268 C258 00268 00258  5634  1                      MVC   CVTOKUPP,CVTOKEN    Copy it
 00092E 58F0 C498            00498  5635  1                      L     R15,CVUPPTBL
 000932 DC0F C268 F000 00268 00000  5636  1                      TR    CVTOKUPP,@R15       Capitalized token
                                    5637  1
 000938 1BFF                        5638  1                      CLEAR R15                 Set A-ok RC
 00093A                             5642                       END
                                    5646                       ¿þþþþþþþþþþþþþþþþþþþþþþþþþÜ
                                    5647                       Ÿ  No more text to scan.  Ÿ
                                    5648                       ¾þþþþþþþþþþþþþþþþþþþþþþþþþ»
 00093A 80B8/47F0 80C0 0093A 008D6  5649                       ELSE  BEGIN               No more text...
 00093E 1B00/1B11                   5660  1                      CLEAR R0,R1               Null token
 000942 41F0 0004            00004  5666  1                      LA    R15,4               Set RC
 000946                             5667                       END
                                    5671
 000946 41D0 D034/982C_      00034  5672                       PEND
 DROP   CV,R12
 DROP   *,R8
1MISC     (MISC4072) (12:36) (15MAR04) SEG Routines                                                                         Page   23
0Loc    Object Code    Addr1 Addr2  Stmt Lv Lineno    Source Statement           (Hibal 5, Asmedit 3.3)  HLASM R4.0  2004/03/15 12.36
+___    ______ ____    _____ _____  ____ __ ______    ______ _________
0000000                00000 0003C  5699              SEGCB    RECORD 'SEGCB'
 000000 00                          5709  1 03-SEGCB +$$$SEGCB108   DS 0F
 SEGCBCOD.SEGCBSEG 01 EQ
 SEGCBCOD.SEGCBWR  02 EQ
 SEGCBCOD.SEGCBCLR 03 EQ
 SEGCBCOD.SEGCBSPP 04 EQ
 SEGCBCOD.SEGCBOVF 05 EQ
 SEGCBCOD.SEGCBCR  06 EQ
 SEGCBCOD.SEGCBMAR 07 EQ
 000001 00                          5784  1 03-SEGCB +           DC    X'00'               Reserved
 000002 0000                              1          +
 000004 00000000                    5785  1 03-SEGCB +SEGCBMAXF   DC   A(0)                Maximum buffer length
 000008 00000000                    5786  1 03-SEGCB +SEGCBMRKF   DC   A(0)                Length at last mark
 00000C 00000000                    5787  1 03-SEGCB +SEGCBLENF   DC   A(0)                Current length
 000010 00000000                    5788  1 03-SEGCB +SEGCBINDF   DC   A(0)                Overflow/indent count
 000014 00000000                    5789  1 03-SEGCB +SEGCBERR   DC    A(0)                Address of error recovery routine
 000018 0000000000000000            5790  1 03-SEGCB +           DC    2F'0'               Reserved
 000020 00000000                    5791  1 03-SEGCB +SEGCBLOC   DC    A(0)                Location of buffer
 000024 00000000                    5792  1 03-SEGCB +SEGCBRTN   DC    A(0)                Processing routine
 000028 0000000000000000            5793  1 03-SEGCB +           DC    4F'0'               Reserved
 000038 00000000                    5794    03-SEGCB +SEGCBUSR DC    A(0)                USER field
-                                   5805              ¿þþþþþþþþþþþþþþþþþþþþþþþþþþþþþþþþþþþþþþþþþþþþþþþþþþþþþþþþþþþþþþþþþþþþþÜ
                                    5806              Ÿ                                                                     Ÿ
                                    5807              Ÿ  SEGINIT/SEGINITR --                                                Ÿ
                                    5808              Ÿ    Routine to initialize the SEGCB control block.                   Ÿ
                                    5809              Ÿ                                                                     Ÿ
                                    5810              Ÿ    On entry:                                                        Ÿ
                                    5811              Ÿ      R1,R0 - location & length of seg buffer                        Ÿ
                                    5812              Ÿ      R15   - SEGCB ptr                                              Ÿ
                                    5813              Ÿ                                                                     Ÿ
                                    5814              Ÿ  NOTE (01/23/91):                                                   Ÿ
                                    5815              Ÿ  SEGINIT ROUTINE CHANGED TO SEGINITR (INIT ROUTINE) AND             Ÿ
                                    5816              Ÿ  SEGINITB (INIT BUFFER).  THIS WAS DONE TO ELIMINATE THE            Ÿ
                                    5817              Ÿ  PASSING THE ROUTINE AS AN INLINE 'DC A(ROUTINE)'.                  Ÿ
                                    5818              Ÿ  SEGINITR SHOULD BE CALLED FIRST. IT CLEARS THE SEGCB.              Ÿ
                                    5819              Ÿ                                                                     Ÿ
                                    5820              Ÿ                                                                     Ÿ
                                                      ¾þþþþþþþþþþþþþþþþþþþþþþþþþþþþþþþþþþþþþþþþþþþþþþþþþþþþþþþþþþþþþþþþþþþþþ»
000095A 50E0 D044/902C_      00044  5821              SEGINIT  XPROC
 USING  *,R8
 USING  SEGCB,R15                   5859                       WITH  (SEGCB,R15),BEGIN
 000974 D73B F000 F000 00000 00000  5873  1                      CLEAR SEGCB               Init
 00097A 5000 F004            00004  5880  1                      ST    R0,SEGCBMAXF        Save max seg buffer length
 00097E 5010 F020            00020  5881  1                      ST    R1,SEGCBLOC         ... and location
 DROP   SEGCB,R15                   5882                       END
 000982 41D0 D034/982C_      00034  5890                       PEND
 DROP   *,R8
                                    5910              *
                                    5911              *
 000996 50E0 D044/902C_      00044  5912              SEGINITR XPROC
 USING  *,R8
 USING  SEGCB,R15                   5950                       WITH  (SEGCB,R15),BEGIN
 0009B0 5000 F024            00024  5964  1                      ST    R0,SEGCBRTN         Save processing routine addr
1MISC     (MISC4072) (12:36) (15MAR04) SEG Routines                                                                         Page   24
0Current Usings:  (*,R8)
0Loc    Object Code    Addr1 Addr2  Stmt Lv Lineno    Source Statement           (Hibal 5, Asmedit 3.3)  HLASM R4.0  2004/03/15 12.36
+___    ______ ____    _____ _____  ____ __ ______    ______ _________
0DROP   SEGCB,R15                   5965                       END
 0009B4 41D0 D034/982C_      00034  5973                       PEND
 DROP   *,R8
1MISC     (MISC4072) (12:36) (15MAR04) SEG Routines                                                                         Page   25
0Loc    Object Code    Addr1 Addr2  Stmt Lv Lineno    Source Statement           (Hibal 5, Asmedit 3.3)  HLASM R4.0  2004/03/15 12.36
+___    ______ ____    _____ _____  ____ __ ______    ______ _________
0                                   5994              ¿þþþþþþþþþþþþþþþþþþþþþþþþþþþþþþþþþþþþþþþþþþþþþþþþþþþþþþþþþþþþþþþþþþþþþÜ
                                    5995              Ÿ                                                                     Ÿ
                                    5996              Ÿ  SEGB -- Routine to add segment to buffer followed by a blank.      Ÿ
                                    5997              Ÿ    (Same entry conventions as "SEG" routine below.)                 Ÿ
                                    5998              Ÿ                                                                     Ÿ
                                                      ¾þþþþþþþþþþþþþþþþþþþþþþþþþþþþþþþþþþþþþþþþþþþþþþþþþþþþþþþþþþþþþþþþþþþþþ»
00009C8 50E0 D044/902C_      00044  5999              SEGB     XPROC
 USING  *,R8
 0009E2 186F                        6037                       LR    R6,R15              Save segcb ptr
 0009E4 4DE0 820E            00BE0  6038                       LCALL SEG
 0009E8 4110 8634/4100_      01006  6040                       SEG   ' ',,(R6)
 0009F8 41D0 D034/982C_      00034  6055                       PEND
 DROP   *,R8
-                                   6076              ¿þþþþþþþþþþþþþþþþþþþþþþþþþþþþþþþþþþþþþþþþþþþþþþþþþþþþþþþþþþþþþþþþþþþþþÜ
                                    6077              Ÿ                                                                     Ÿ
                                    6078              Ÿ  SEGTB -- Routine to add "trimmed" segment to buffer followed by    Ÿ
                                    6079              Ÿ    a blank.  (Same entry conventions as "SEG" routine below.)       Ÿ
                                    6080              Ÿ                                                                     Ÿ
                                                      ¾þþþþþþþþþþþþþþþþþþþþþþþþþþþþþþþþþþþþþþþþþþþþþþþþþþþþþþþþþþþþþþþþþþþþþ»
0000A0C 50E0 D044/902C_      00044  6081              SEGTB    XPROC
 USING  *,R8
 000A26 186F                        6119                       LR    R6,R15              Save segcb ptr
 000A28 4DE0 816C            00B82  6120                       LCALL SEGT
 000A2C 4110 85F0/4100_      01006  6122                       SEG   ' ',,(R6)
 000A3C 41D0 D034/982C_      00034  6137                       PEND
 DROP   *,R8
1MISC     (MISC4072) (12:36) (15MAR04) SEG Routines                                                                         Page   26
0Loc    Object Code    Addr1 Addr2  Stmt Lv Lineno    Source Statement           (Hibal 5, Asmedit 3.3)  HLASM R4.0  2004/03/15 12.36
+___    ______ ____    _____ _____  ____ __ ______    ______ _________
0                                   6158              ¿þþþþþþþþþþþþþþþþþþþþþþþþþþþþþþþþþþþþþþþþþþþþþþþþþþþþþþþþþþþþþþþþþþþþþÜ
                                    6159              Ÿ                                                                     Ÿ
                                    6160              Ÿ  SEGCR -- Routine to add segment to buffer followed by a carriage   Ÿ
                                    6161              Ÿ    return.  (Same entry conventions as "SEG" routine below.)        Ÿ
                                    6162              Ÿ                                                                     Ÿ
                                                      ¾þþþþþþþþþþþþþþþþþþþþþþþþþþþþþþþþþþþþþþþþþþþþþþþþþþþþþþþþþþþþþþþþþþþþþ»
0000A50 50E0 D044/902C_      00044  6163              SEGCR    XPROC
 USING  *,R8
 000A6A 186F                        6201                       LR    R6,R15              Save segcb ptr
 000A6C 4DE0 8186            00BE0  6202                       LCALL SEG
                                    6204
 USING  SEGCB,R6                    6205                       WITH  (SEGCB,R6),BEGIN
 000A70 9206 6000      00000        6219  1                      SET   SEGCBCR             Set function code for exit routine
 000A74 5810 6020            00020  6225  1                      L     R1,SEGCBLOC         Location of buffer
 000A78 5800 600C            0000C  6226  1                      L     R0,SEGCBLENF        Length
 000A7C 18F6                        6227  1                      LR    R15,R6              Segcb ptr
 000A7E 58E0 6024/12EE_      00024  6228  1                      IF    ('LT RAR,SEGCBRTN',NZ),BEGIN
 000A88 0DEE                        6244  2                        BASR  RAR,RAR             Go off to exit routine
 000A8A                             6245  1                      END
                                    6249  1
 000A8A 8034/47F0 8046 00A8A 00A86  6250  1                      ELSE  BEGIN
 000A8E 4110 85AD/4100_      01007  6261  2                        SEG   X'15',,(R6)         Followed by a cr
 000A9E 1BFF                        6276  2                        CLEAR R15
 000AA0                             6280  1                      END
                                    6284  1
 000AA0 D203 6008 600C 00008 0000C  6285  1                      MVC   SEGCBMRKF,SEGCBLENF  Segmark
                                    6286  1
 000AA6 9204 6000      00000        6287  1                      SET   SEGCBSPP            Set function code for exit routine
 000AAA 18F6                        6293  1                      LR    R15,R6
 000AAC 1B00                        6294  1                      CLEAR R0                  Pre-set good rc
 000AAE 58E0 6024/12EE_      00024  6298  1                      IF    ('LT RAR,SEGCBRTN',NZ),'BASR RAR,RAR'  User exit
 DROP   SEGCB,R6                    6320                       END
                                    6328
 000ABA 12F0                        6329                       LTR   R15,R0              Set rc
 000ABC 41D0 D034/982C_      00034  6330                       PEND
 DROP   *,R8
-                                   6351              ¿þþþþþþþþþþþþþþþþþþþþþþþþþþþþþþþþþþþþþþþþþþþþþþþþþþþþþþþþþþþþþþþþþþþþþÜ
                                    6352              Ÿ                                                                     Ÿ
                                    6353              Ÿ  SEGCCR -- Routine to add segment to buffer followed by a           Ÿ
                                    6354              Ÿ    conditional carriage return.  (Same entry conventions            Ÿ
                                    6355              Ÿ    as "SEG" routine below.)                                         Ÿ
                                    6356              Ÿ                                                                     Ÿ
                                                      ¾þþþþþþþþþþþþþþþþþþþþþþþþþþþþþþþþþþþþþþþþþþþþþþþþþþþþþþþþþþþþþþþþþþþþþ»
0000AD0 50E0 D044/902C_      00044  6357              SEGCCR   XPROC
 USING  *,R8
 000AEA 186F                        6395                       LR    R6,R15              Save segcb ptr
 USING  SEGCB,R6                    6396                       WITH  (SEGCB,R6)
 000AEC 4DE0 8106            00BE0  6409                       LCALL SEG
 000AF0 D603 600C 600C_0000C 0000C  6411                       IF    ((SEGCBLENF,NZ),AND,(SEGCBLENF,NE,SEGCBMRKF)),BEGIN
 000B04 1B00/18F6/58E0_             6444  1                      SEGCR ,,(R6)              Followed by a CR
 000B0E                             6466                       END
 000B0E 41D0 D034/982C_      00034  6470                       PEND
1MISC     (MISC4072) (12:36) (15MAR04) SEG Routines                                                                         Page   27
0Loc    Object Code    Addr1 Addr2  Stmt Lv Lineno    Source Statement           (Hibal 5, Asmedit 3.3)  HLASM R4.0  2004/03/15 12.36
+___    ______ ____    _____ _____  ____ __ ______    ______ _________
0DROP   SEGCB,R6
 DROP   *,R8
1MISC     (MISC4072) (12:36) (15MAR04) SEG Routines                                                                         Page   28
0Loc    Object Code    Addr1 Addr2  Stmt Lv Lineno    Source Statement           (Hibal 5, Asmedit 3.3)  HLASM R4.0  2004/03/15 12.36
+___    ______ ____    _____ _____  ____ __ ______    ______ _________
0                                   6496              ¿þþþþþþþþþþþþþþþþþþþþþþþþþþþþþþþþþþþþþþþþþþþþþþþþþþþþþþþþþþþþþþþþþþþþþÜ
                                    6497              Ÿ                                                                     Ÿ
                                    6498              Ÿ  SEGWR -- Routine to add (final) segment to buffer and write        Ÿ
                                    6499              Ÿ    contents.  (Same entry conventions as "SEG" routine below.)      Ÿ
                                    6500              Ÿ                                                                     Ÿ
                                                      ¾þþþþþþþþþþþþþþþþþþþþþþþþþþþþþþþþþþþþþþþþþþþþþþþþþþþþþþþþþþþþþþþþþþþþþ»
0000B22 50E0 D044/902C_      00044  6501              SEGWR    XPROC
 USING  *,R8
 000B3C 186F                        6539                       LR    R6,R15              Save segcb ptr
 000B3E 4DE0 80B4            00BE0  6540                       LCALL SEG
 USING  SEGCB,R6                    6542                       WITH  (SEGCB,R6)
 000B42 9202 6000      00000        6555                       SET   SEGCBWR             Set function code for exit routine
 000B46 5810 6020            00020  6561                       L     R1,SEGCBLOC         Start of buffer
 000B4A 5800 600C            0000C  6562                       L     R0,SEGCBLENF        Length
 000B4E 18F6                        6563                       LR    R15,R6              Segcb ptr
 000B50 58E0 6024/12EE_      00024  6564                       IF    ('LT RAR,SEGCBRTN',NZ),BEGIN
 000B5A 0DEE                        6580  1                      BASR  RAR,RAR             Go off to exit routine
 000B5C D203 600C 84B0 0000C 00FDC  6581  1                      MVC   SEGCBLENF,=F'0'     Reset buffer (don't change cc)
 000B62 D203 6008 84B0 00008 00FDC  6582  1                      MVC   SEGCBMRKF,=F'0'     Reset mark too
 000B68                             6583                       END
 000B68 8040/47F0 8042_00B68 00B58  6587                       ELSE  'CLEAR R15'         Set dummy rc
 000B6E 41D0 D034/982C_      00034  6607                       PEND
 DROP   SEGCB,R6
 DROP   *,R8
1MISC     (MISC4072) (12:36) (15MAR04) SEG Routines                                                                         Page   29
0Loc    Object Code    Addr1 Addr2  Stmt Lv Lineno    Source Statement           (Hibal 5, Asmedit 3.3)  HLASM R4.0  2004/03/15 12.36
+___    ______ ____    _____ _____  ____ __ ______    ______ _________
0                                   6633              ¿þþþþþþþþþþþþþþþþþþþþþþþþþþþþþþþþþþþþþþþþþþþþþþþþþþþþþþþþþþþþþþþþþþþþþÜ
                                    6634              Ÿ                                                                     Ÿ
                                    6635              Ÿ  SEG/SEGT -- Routine to add segment to buffer.  "SEGT" entry will   Ÿ
                                    6636              Ÿ    trim trailing blanks.                                            Ÿ
                                    6637              Ÿ                                                                     Ÿ
                                    6638              Ÿ     On entry:                                                       Ÿ
                                    6639              Ÿ       R1,R0 - location & length of segment                          Ÿ
                                    6640              Ÿ       R15 - SEGCB ptr                                               Ÿ
                                    6641              Ÿ                                                                     Ÿ
                                    6642              Ÿ     On exit, R15 (and CC):                                          Ÿ
                                    6643              Ÿ        -4 - overflow occured                                        Ÿ
                                    6644              Ÿ         0 - normal                                                  Ÿ
                                    6645              Ÿ                                                                     Ÿ
                                                      ¾þþþþþþþþþþþþþþþþþþþþþþþþþþþþþþþþþþþþþþþþþþþþþþþþþþþþþþþþþþþþþþþþþþþþþ»
0000B82 50E0 D044/900C_      00044  6646              SEGT     XPROC (R0,LSR)
 USING  *,R8
 000B9C 186F                        6684                       LR    R6,R15
 USING  SEGCB,R6                    6685                       WITH  (SEGCB,R6)
 000B9E 1200/47D0 803C              6698                       IF    (R0,POS),BEGIN      Something to seg...
 000BA4 4110 1000            00000  6712  1                      LA    R1,@R1              Clear high byte
 000BA8 1821                        6713  1                      LR    R2,R1
 000BAA 1A20                        6714  1                      AR    R2,R0
 000BAC 0620                        6715  1                      DECR  R2                  Addr of last char
 000BAE 1921/4750 8036_             6717  1                      WHILE ((R2,GE,R1),AND,(@R2,EQ,' ')),'DECR R2'
 000BC2 1B21                        6757  1                      SR    R2,R1
 000BC4 4100 2001            00001  6758  1                      LA    R0,@R2+1            Trimmed string len
 000BC8                             6759                       END
 000BC8 47F0 8070            00BFC  6763                       B     SEGCOM
 000BCC 41D0 D03C/980C_      0003C  6764                       PEND  ,                   (Dummy)
 DROP   SEGCB,R6
 DROP   *,R8
-000BE0 50E0 D044/900C_      00044  6790              SEG      XPROC (R0,LSR)
 USING  *,R8
 000BFA 186F                        6828                       LR    R6,R15
 USING  SEGCB,R6                    6829                       WITH  (SEGCB,R6)
                                    6842
 000BFC 0D80                        6843              SEGCOM   BASE
 DROP   *,R8
 USING  *,R8
 000BFE 9201 6000      00000        6860                       SET   SEGCBSEG            Set function code for exit routine
 000C02 58E0 6024/12EE_      00024  6866                       IF    ('LT RAR,SEGCBRTN',NZ),'BASR RAR,RAR'
                                    6888
 000C0E 1B55                        6889                       CLEAR R5                  Set ok rc
 000C10 1200/47D0 80E2              6893                       IF    (R0,~POS),SEGEXIT   Skip if nothing to seg
 000C16 5900 6004/47D0_      00004  6910                       CEIL  R0,SEGCBMAXF        Max allowed
 000C22 1821                        6916                       LR    R2,R1
 000C24 1830                        6917                       LR    R3,R0
                                    6918
 000C26 1B55                        6919              SEGRETRY CLEAR R5                  Init return code
 000C28 5A00 600C            0000C  6924                       A     R0,SEGCBLENF        Calc new total length
 000C2C 5900 6004/47D0_      00004  6925                       IF    (R0,GT,SEGCBMAXF),BEGIN  Overflow...
 000C34 9205 6000      00000        6942  1                      SET   SEGCBOVF            Set function code for exit routine
 000C38 5810 6020            00020  6948  1                      L     R1,SEGCBLOC         Start of buffer
1MISC     (MISC4072) (12:36) (15MAR04) SEG Routines                                                                         Page   30
0Current Usings:  (SEGCB,R6) (*,R8)
0Loc    Object Code    Addr1 Addr2  Stmt Lv Lineno    Source Statement           (Hibal 5, Asmedit 3.3)  HLASM R4.0  2004/03/15 12.36
+___    ______ ____    _____ _____  ____ __ ______    ______ _________
0000C3C 5800 6008/1200       00008  6949  1                      LT    R0,SEGCBMRKF        Last marked position
 000C42 4720 804C/5800_      00C4A  6953  1                      IF    NP,'L R0,SEGCBLENF'  Use cur len if no mark
 000C4A 18F6                        6970  1                      LR    R15,R6              Segcb ptr
 000C4C 58E0 6024/12EE_      00024  6971  1                      IF    ('LT RAR,SEGCBRTN',NZ),'BASR RAR,RAR'  user exit
 000C58 1200/47B0 80B4              6993  1                      IF    (R0,NEG),BEGIN      Exit processed something...
 000C5E D703 6008 6008 00008 00008  7007  2                        CLEAR SEGCBMRKF           Clear mark
 000C64 1300                        7014  2                        LCR   R0,R0               Amount processed
 000C66 5810 600C            0000C  7015  2                        L     R1,SEGCBLENF
 000C6A 58E0 6020            00020  7016  2                        L     R14,SEGCBLOC
 000C6E 58F0 6010/12FF_      00010  7017  2                        IF    ('LT R15,SEGCBINDF',NZ),BEGIN  Indent...
 000C78 55F0 6004/47A0_      00004  7033  3                          IF    (R15,LGE,SEGCBMAXF),EXIT
 000C80 5810 83E2            00FE0  7053  3                          L     R1,=A(X'40000000')
 000C84 0EE0                        7054  3                          MVCL  R14,R0              Pad with blanks
 000C86 5810 600C            0000C  7055  3                          L     R1,SEGCBLENF
 000C8A 58F0 6010            00010  7056  3                          L     R15,SEGCBINDF
 000C8E                             7057  2                        END
 000C8E 1B10                        7061  2                        SR    R1,R0               New buffer len
 000C90 1AF1                        7062  2                        AR    R15,R1              Including indentation
 000C92 50F0 600C            0000C  7063  2                        ST    R15,SEGCBLENF
 000C96 1211/4720 80A6_             7064  2                        IF    (R1,~POS),'LA R0,@R3(R15); B SEGDO'  add new segment
 000CA4 18F1                        7085  2                        LR    R15,R1
 000CA6 5A00 6020            00020  7086  2                        A     R0,SEGCBLOC
 000CAA 0EE0                        7087  2                        MVCL  R14,R0              Move remaining text over
 000CAC 1803                        7088  2                        LR    R0,R3               New segment len
 000CAE 47F0 8028            00C26  7089  2                        B     SEGRETRY            Try again
 000CB2                             7090  1                      END
 000CB2 1803                        7094  1                      LR    R0,R3
 000CB4 5A00 600C            0000C  7095  1                      A     R0,SEGCBLENF        Re-calc total len
 000CB8 5B00 6004/47D0_      00004  7096  1                      IF    ('S R0,SEGCBMAXF',NP),SEGDO  It's ok now
 000CC0 4850 8402            01000  7112  1                      LH    R5,=H'-4'           Set return code
 000CC4 1B30                        7113  1                      SR    R3,R0               Only seg as much as will fit
 000CC6 47D0 80E2            00CE0  7114  1                      BNP   SEGEXIT             Nothing will fit
 000CCA 5800 6004            00004  7115  1                      L     R0,SEGCBMAXF        New buffer len
 000CCE                             7116                       END
 000CCE 58F0 600C            0000C  7120              SEGDO    L     R15,SEGCBLENF
 000CD2 5000 600C            0000C  7121                       ST    R0,SEGCBLENF        Update length
 000CD6 5800 6020            00020  7122                       L     R0,SEGCBLOC
 000CDA 1A0F                        7123                       AR    R0,R15              Insertion point
 000CDC 1813                        7124                       LR    R1,R3               Len
 000CDE 0E02                        7125                       MVCL  R0,R2               Move in segment
 000CE0 9204 6000      00000        7126              SEGEXIT  SET   SEGCBSPP            Set function code for exit routine
 000CE4 18F6                        7133                       LR    R15,R6              Segcb ptr
 000CE6 1205                        7134                       LTR   R0,R5               Put rc in r0 for exit routine
 000CE8 58E0 6024/12EE_      00024  7135                       IF    ('LT RAR,SEGCBRTN',NZ),'BASR RAR,RAR'  user exit
 DROP   SEGCB,R6                    7157                       DROP  SEGCB
 000CF4 41D0 D03C/980C_      0003C  7165                       PEND  'LTR R15,R0'
 DROP   *,R8
1MISC     (MISC4072) (12:36) (15MAR04) SEG Routines                                                                         Page   31
0Loc    Object Code    Addr1 Addr2  Stmt Lv Lineno    Source Statement           (Hibal 5, Asmedit 3.3)  HLASM R4.0  2004/03/15 12.36
+___    ______ ____    _____ _____  ____ __ ______    ______ _________
0                                   7189              ¿þþþþþþþþþþþþþþþþþþþþþþþþþþþþþþþþþþþþþþþþþþþþþþþþþþþþþþþþþþþþþþþþþþþþþÜ
                                    7190              Ÿ                                                                     Ÿ
                                    7191              Ÿ  SEGCOL -- Routine to extend seg buffer to absolute column.         Ÿ
                                    7192              Ÿ                                                                     Ÿ
                                    7193              Ÿ    On entry:                                                        Ÿ
                                    7194              Ÿ      R0  - column number                                            Ÿ
                                    7195              Ÿ      R15 - SEGCB ptr                                                Ÿ
                                    7196              Ÿ                                                                     Ÿ
                                                      ¾þþþþþþþþþþþþþþþþþþþþþþþþþþþþþþþþþþþþþþþþþþþþþþþþþþþþþþþþþþþþþþþþþþþþþ»
0000D08 50E0 D044/902C_      00044  7197              SEGCOL   XPROC
 USING  *,R8
 000D22 186F                        7235                       LR    R6,R15
 USING  SEGCB,R6                    7236                       WITH  (SEGCB,R6)
 000D24 0600                        7249                       DECR  R0                  Make rel to zero
 000D26 5900 6004/47D0_      00004  7251                       IF    (R0,GT,SEGCBMAXF),'L R0,SEGCBMAXF'
 000D32 5B00 600C            0000C  7274                       S     R0,SEGCBLENF        No. of blanks
 000D36 4720 802C/4100_      00D3E  7275                       IF    ~POS,'LA R0,1'      At least one blank
 000D3E 18F6/58E0 82D2_             7292                       SEGBLANK (R0)             Add the blanks
 000D46 41D0 D034/982C_      00034  7307                       PEND
 DROP   SEGCB,R6
 DROP   *,R8
1MISC     (MISC4072) (12:36) (15MAR04) SEG Routines                                                                         Page   32
0Loc    Object Code    Addr1 Addr2  Stmt Lv Lineno    Source Statement           (Hibal 5, Asmedit 3.3)  HLASM R4.0  2004/03/15 12.36
+___    ______ ____    _____ _____  ____ __ ______    ______ _________
0                                   7333              ¿þþþþþþþþþþþþþþþþþþþþþþþþþþþþþþþþþþþþþþþþþþþþþþþþþþþþþþþþþþþþþþþþþþþþþÜ
                                    7334              Ÿ                                                                     Ÿ
                                    7335              Ÿ  SEGBLANK -- Routine to add blanks to the seg buffer.               Ÿ
                                    7336              Ÿ                                                                     Ÿ
                                    7337              Ÿ    On entry:                                                        Ÿ
                                    7338              Ÿ      R0  - no. of blanks to add                                     Ÿ
                                    7339              Ÿ      R15 - SEGCB ptr                                                Ÿ
                                    7340              Ÿ                                                                     Ÿ
                                                      ¾þþþþþþþþþþþþþþþþþþþþþþþþþþþþþþþþþþþþþþþþþþþþþþþþþþþþþþþþþþþþþþþþþþþþþ»
0000D5A 50E0 D044/902C_      00044  7341              SEGBLANK XPROC
 USING  *,R8
 000D74 186F                        7379                       LR    R6,R15
 USING  SEGCB,R6                    7380                       WITH  (SEGCB,R6)
 000D76 1850                        7393                       LR    R5,R0
 000D78 5950 8284/47D0_      00FE8  7394                       WHILE (R5,GT,L'BLANKS),BEGIN
 000D80 4110 8056/4100_      00DBA  7413  1                      SEG   BLANKS,,(R6)
 000D90 4B50 829E            01002  7438  1                      SH    R5,=AL2(L'BLANKS)
 000D94 47F0 8014            00D78  7439                       END
 000D98 4110 8056/1805_      00DBA  7444                       SEG   BLANKS,(R5),(R6)
 000DA6 41D0 D034/982C_      00034  7469                       PEND
 DROP   SEGCB,R6
 DROP   *,R8
                                    7494
 000DBA 4040404040404040            7495              BLANKS   DC    CL256' '
1MISC     (MISC4072) (12:36) (15MAR04) SEG Routines                                                                         Page   33
0Loc    Object Code    Addr1 Addr2  Stmt Lv Lineno    Source Statement           (Hibal 5, Asmedit 3.3)  HLASM R4.0  2004/03/15 12.36
+___    ______ ____    _____ _____  ____ __ ______    ______ _________
0                                   7497              ¿þþþþþþþþþþþþþþþþþþþþþþþþþþþþþþþþþþþþþþþþþþþþþþþþþþþþþþþþþþþþþþþþþþþþþÜ
                                    7498              Ÿ                                                                     Ÿ
                                    7499              Ÿ  SEGCLR -- Routine to reset seg buffer.                             Ÿ
                                    7500              Ÿ                                                                     Ÿ
                                    7501              Ÿ    On entry:                                                        Ÿ
                                    7502              Ÿ      R15 - SEGCB ptr                                                Ÿ
                                    7503              Ÿ                                                                     Ÿ
                                                      ¾þþþþþþþþþþþþþþþþþþþþþþþþþþþþþþþþþþþþþþþþþþþþþþþþþþþþþþþþþþþþþþþþþþþþþ»
0000EBA 50E0 D044/902C_      00044  7504              SEGCLR   XPROC
 USING  *,R8
 000ED4 186F                        7542                       LR    R6,R15
 USING  SEGCB,R6                    7543                       WITH  (SEGCB,R6)
 000ED6 9203 6000      00000        7556                       SET   SEGCBCLR            Set function code for exit routine
 000EDA 58E0 6024/12EE_      00024  7562                       IF    ('LT RAR,SEGCBRTN',NZ),'BASR RAR,RAR'  user exit
 000EE6 D703 600C 600C_0000C 0000C  7584                       CLEAR SEGCBLENF,SEGCBMRKF
 000EF2 41D0 D034/982C_      00034  7596                       PEND
 DROP   SEGCB,R6
 DROP   *,R8
-                                   7622              ¿þþþþþþþþþþþþþþþþþþþþþþþþþþþþþþþþþþþþþþþþþþþþþþþþþþþþþþþþþþþþþþþþþþþþþÜ
                                    7623              Ÿ                                                                     Ÿ
                                    7624              Ÿ  SEGMARK -- Routine to mark current location in seg buffer.         Ÿ
                                    7625              Ÿ                                                                     Ÿ
                                    7626              Ÿ    On entry:                                                        Ÿ
                                    7627              Ÿ      r15 - segcb ptr                                                Ÿ
                                    7628              Ÿ                                                                     Ÿ
                                                      ¾þþþþþþþþþþþþþþþþþþþþþþþþþþþþþþþþþþþþþþþþþþþþþþþþþþþþþþþþþþþþþþþþþþþþþ»
0                                   7629                       ENTRY SEGMARK
 000F06 D203 F008 F00C 00008 0000C  7630              SEGMARK  WITH  (SEGCB,R15),'MVC SEGCBMRKF,SEGCBLENF'
 USING  SEGCB,R15
 DROP   SEGCB,R15
 000F0C 07FE                        7655                       BR    RAR
1MISC     (MISC4072) (12:36) (15MAR04) SEG Routines                                                                         Page   34
0Loc    Object Code    Addr1 Addr2  Stmt Lv Lineno    Source Statement           (Hibal 5, Asmedit 3.3)  HLASM R4.0  2004/03/15 12.36
+___    ______ ____    _____ _____  ____ __ ______    ______ _________
0                                   7657              ¿þþþþþþþþþþþþþþþþþþþþþþþþþþþþþþþþþþþþþþþþþþþþþþþþþþþþþþþþþþþþþþþþþþþþþÜ
                                    7658              Ÿ                                                                     Ÿ
                                    7659              Ÿ  SEGDC -- Routine to add number in decimal to seg buffer.           Ÿ
                                    7660              Ÿ                                                                     Ÿ
                                    7661              Ÿ    On entry:                                                        Ÿ
                                    7662              Ÿ    R1 - number; R0 - length                                         Ÿ
                                    7663              Ÿ    R15 - SEGCB ptr                                                  Ÿ
                                    7664              Ÿ                                                                     Ÿ
                                                      ¾þþþþþþþþþþþþþþþþþþþþþþþþþþþþþþþþþþþþþþþþþþþþþþþþþþþþþþþþþþþþþþþþþþþþþ»
0000F0E 50E0 D044/902C_      00044  7665              SEGDC    XPROC
 USING  *,R8
 000F28 186F                        7703                       LR    R6,R15              Save segcb ptr
 000F2A 4BD0 80EC/BED7_      01004  7704                       PUSH  20,PTR=R2
 000F3A 18F1                        7711                       LR    R15,R1
 000F3C 1812/58E0 80D4_             7712                       BTD   (R2),(R0),(R15)     Convert to printable format
 000F44 18F6/58E0 80BC_             7729                       SEG   (R1),(R0),(R6)
 000F4C 41D0 D018/50D0_      00018  7750                       POP   20
 000F54 41D0 D034/982C_      00034  7755                       PEND
 DROP   *,R8
1MISC     (MISC4072) (12:36) (15MAR04) SEG Routines                                                                         Page   35
0Loc    Object Code    Addr1 Addr2  Stmt Lv Lineno    Source Statement           (Hibal 5, Asmedit 3.3)  HLASM R4.0  2004/03/15 12.36
+___    ______ ____    _____ _____  ____ __ ______    ______ _________
0                                   7776              ¿þþþþþþþþþþþþþþþþþþþþþþþþþþþþþþþþþþþþþþþþþþþþþþþþþþþþþþþþþþþþþþþþþþþþþÜ
                                    7777              Ÿ                                                                     Ÿ
                                    7778              Ÿ  SEGHX -- Routine to add number in hex to seg buffer.               Ÿ
                                    7779              Ÿ                                                                     Ÿ
                                    7780              Ÿ    On entry:                                                        Ÿ
                                    7781              Ÿ    R1 - number; R0 - length                                         Ÿ
                                    7782              Ÿ    R15 - SEGCB ptr                                                  Ÿ
                                    7783              Ÿ                                                                     Ÿ
                                                      ¾þþþþþþþþþþþþþþþþþþþþþþþþþþþþþþþþþþþþþþþþþþþþþþþþþþþþþþþþþþþþþþþþþþþþþ»
0000F68 50E0 D044/902C_      00044  7784              SEGHX    XPROC
 USING  *,R8
 000F82 186F                        7822                       LR    R6,R15              Save segcb ptr
 000F84 4BD0 8092/BED7_      01004  7823                       PUSH  20,PTR=R2
 000F94 18F1                        7830                       LR    R15,R1
 000F96 1812/58E0 807E_             7831                       BTX   (R2),(R0),(R15)     Convert to printable format
 000F9E 18F6/58E0 8062_             7848                       SEG   (R1),(R0),(R6)
 000FA6 41D0 D018/50D0_      00018  7869                       POP   20
 000FAE 41D0 D034/982C_      00034  7874                       PEND
 DROP   *,R8
-                                   7895
                                    7896                       QLTORG
1MISC     (MISC4072) (12:36) (15MAR04) Scanner DSECTS                                                                       Page   36
0Loc    Object Code    Addr1 Addr2  Stmt Lv Lineno    Source Statement           (Hibal 5, Asmedit 3.3)  HLASM R4.0  2004/03/15 12.36
+___    ______ ____    _____ _____  ____ __ ______    ______ _________
0000000                00000 00050  7931              SA       RECORD BEGIN
 000000                             7939  1           WORD       DS    2F
 000008                             7940  1           SV15       DS    F
 00000C                             7941  1           CPSAVE     DS    2F
 000014                             7942  1           TEMPD      DS    3F                      dword work area
 000020                             7943  1           PCNT       DS    H
 000022                             7944  1           FL         DS    X
                                    7945  1
                                    7946  1           FSQS       EQU   X'80'                   single quoted string
                                    7947  1           FDQS       EQU   X'40'                   double quoted string
                                    7948  1           FPS        EQU   X'20'                   parened string
                                    7949  1           FISOL      EQU   X'01'                   string isolation
 000024                             7950  1                      DS    0F
                                    7951  1
 000024                             7952  1           WAPC       DS    F                   Current "wap" offset
 000028                             7953  1           WAP        DS    XL(10*4)            Push stack
 000050                00050 00050  7954                       END
-                                   7964              FTBLE    EQU   X'F8'                   last/pop/push
                                    7965              FLAST    EQU   X'FF'                   end
                                    7966              FPARM    EQU   X'80'                   parm
                                    7967              FLINNO   EQU   X'60'                   line no. conv
                                    7968              FINTEG   EQU   X'40'                   integer 0 or gtr
                                    7969              FINTEGP  EQU   X'20'                   integer gtr 0
                                    7970              FCMSET   EQU   X'10'                   set 3 command chars
                                    7971              FLIMIT   EQU   X'10'                   limit
                                    7972              FABBREV  EQU   X'08'                   abbreviation
-                                   7974              LS       EQU   4+(LSR-FSR+1)*4+(L'SA+3)/4*4+4
1MISC     (MISC4072) (12:36) (15MAR04) Scanner DSECTS                                                                       Page   37
0Loc    Object Code    Addr1 Addr2  Stmt Lv Lineno    Source Statement           (Hibal 5, Asmedit 3.3)  HLASM R4.0  2004/03/15 12.36
+___    ______ ____    _____ _____  ____ __ ______    ______ _________
0000000                00000 00020  7976              SCANCB   RECORD BEGIN
                                    7984  1                      SCANCB PFX=
 000000                             7985  1 01-SCANC +CB         DS    0F
 000000                             7986  1 01-SCANC +VAL        DS    A                       value returned
 000004                             7987  1 01-SCANC +KW         DS    CL8                     current key word
 00000C                             7988  1 01-SCANC +LEN        DS    A                       length left to scan
 000010                             7989  1 01-SCANC +LOC        DS    A                       next thing to scan
 000014                             7990  1 01-SCANC +RA         DS    A                       return address
 000018                             7991  1 01-SCANC +PRT        DS    A                       routing table address
 00001C                             7992  1 01-SCANC +CLT        DS    A                       scan type
                                    7993  1          +*                                      0 = normal scan
                                    7994  1          +*                                      4 = expression isolation
                                    7995  1          +*                                      8 = expression scan
                                    7996  1 01-SCANC +CBL        EQU *-CB
 000020                00020 00020  7997                       END
1MISC     (MISC4072) (12:36) (15MAR04) Scanner                                                                              Page   38
0Loc    Object Code    Addr1 Addr2  Stmt Lv Lineno    Source Statement           (Hibal 5, Asmedit 3.3)  HLASM R4.0  2004/03/15 12.36
+___    ______ ____    _____ _____  ____ __ ______    ______ _________
0USING  SCANCB,R15                  8007                       USING SCANCB,R15
                                    8016              * initialize
                                    8017              *
                                    8018                       ENTRY SCINIT
 00100E 4110 1000            00000  8019              SCINIT   LA    R1,@R1
 001012 9001 F00C            0000C  8020                       STM   R0,R1,LEN               save loc and length
 001016 D703 F01C F01C 0001C 0001C  8021                       CLEAR CLT                     reset scan type
 00101C 07FE                        8028                       BR    RAR
1MISC     (MISC4072) (12:36) (15MAR04) Scanner                                                                              Page   39
0Current Usings:  (SCANCB,R15)
0Loc    Object Code    Addr1 Addr2  Stmt Lv Lineno    Source Statement           (Hibal 5, Asmedit 3.3)  HLASM R4.0  2004/03/15 12.36
+___    ______ ____    _____ _____  ____ __ ______    ______ _________
0                                   8030              *  tell location and length
                                    8031              *
                                    8032              *    - scan type is 0, 1, or 2
                                    8033                       ENTRY SCTELL
 00101E 5810 F01C            0001C  8034              SCTELL   L     R1,CLT                  scan type
 001022 8810 0002            00002  8035                       SRL   R1,2                    shift down
 001026 5010 F000            00000  8036                       ST    R1,VAL                  return in scancb
 00102A 9801 F00C            0000C  8037                       LM    R0,R1,LEN
 00102E 07FE                        8038                       BR    RAR
1MISC     (MISC4072) (12:36) (15MAR04) Scanner                                                                              Page   40
0Current Usings:  (SCANCB,R15)
0Loc    Object Code    Addr1 Addr2  Stmt Lv Lineno    Source Statement           (Hibal 5, Asmedit 3.3)  HLASM R4.0  2004/03/15 12.36
+___    ______ ____    _____ _____  ____ __ ______    ______ _________
0                                   8040              *  set scan type
                                    8041              *
                                    8042              *    - scan type is 0, 1, or 2
                                    8043                       ENTRY SCTYPE
 001030 8910 0002            00002  8044              SCTYPE   SLL   R1,2                    shift new scan type
 001034 5010 D000            00000  8045                       ST    R1,@SPR             Save in stack
 001038 5810 F01C            0001C  8046                       L     R1,CLT
 00103C 8810 0002            00002  8047                       SRL   R1,2
 001040 D203 F01C D000 0001C 00000  8048                       MVC   CLT,@SPR            Set new scan type
 001046 07FE                        8049                       BR    RAR
                                    8050
 DROP   SCANCB,R15                  8051                       DROP  SCANCB
1MISC     (MISC4072) (12:36) (15MAR04) Scanner                                                                              Page   41
0Loc    Object Code    Addr1 Addr2  Stmt Lv Lineno    Source Statement           (Hibal 5, Asmedit 3.3)  HLASM R4.0  2004/03/15 12.36
+___    ______ ____    _____ _____  ____ __ ______    ______ _________
0001048 50E0 D044/902C_      00044  8060              SCAN     XPROC SA
 USING  *,R8
 USING  SA-@@,R13
 001062 0D80                        8109                       BASE
 DROP   *,R8
 USING  *,R8
 001064 18CF                        8126              BASE     LR    SCANCBR,R15             set scan work area address
 USING  SCANCB,R12                  8127                       WITH  SCANCB
 001066 50E0 C014            00014  8139                       ST    RAR,RA                  return addr
 00106A 5010 C018            00018  8140                       ST    R1,PRT                  routing table
 00106E 1B44                        8141                       SR    RR,RR
 001070 9856 C00C            0000C  8142              SCANCN   LM    NR,PR,LEN               pick up loc and len
 001074 9200 D06E      00022        8143                       MVI   FL,0                    clear flags
 001078 D503 C01C 8AEC 0001C 01B50  8144                       CLC   CLT,=A(4)               string isolation?
 00107E 4770 8022            01086  8145                       BNE   SCANON                  no
 001082 9201 D06E      00022        8146                       MVI   FL,FISOL
 001086 4115 6000            00000  8147              SCANON   LA    R1,@PR(NR)
 00108A 1255                        8148                       LTR   NR,NR                   any left?
 00108C 47D0 84D6            0153A  8149                       BNP   DONE                    br if not
 001090 1B22                        8150                       SR    2,2                     clear trt regs
 001092 58F0 C01C            0001C  8151                       L     R15,CLT
 001096 58FF 8524            01588  8152                       L     R15,CLTS(R15)
 00109A 0650                        8153                       BCTR  NR,0
 00109C 4450 8060            010C4  8154                       EX    NR,TRT
 0010A0 47F2 8040            010A4  8156                       B     *+4(2)                  br on delim code
 0010A4 47F0 8066            010CA  8157                       B     EOS                     0  end of string
 0010A8 47F0 8080            010E4  8158                       B     BLKCOM                  4  blank-comma
 0010AC 47F0 80CA            0112E  8159                       B     SQUOTE                  8  single quote
 0010B0 47F0 811A            0117E  8160                       B     DQUOTE                  12 double quote
 0010B4 47F0 8154            011B8  8161                       B     LPAR                    16 left paren
 0010B8 47F0 8194            011F8  8162                       B     RPAR                    20 right paren
 0010BC 47F0 80B2            01116  8163                       B     SLASH                    24 slash
 0010C0 47F0 809C            01100  8164                       B     SEMI                    28 semi-colon
 0010C4 DD00 6000 F000 00000 00000  8165              TRT      TRT   @PR(*-*),@R15           scan
1MISC     (MISC4072) (12:36) (15MAR04) Scanner                                                                              Page   42
0Current Usings:  (*,R8) (SCANCB,R12) (SA-@@,R13)
0Loc    Object Code    Addr1 Addr2  Stmt Lv Lineno    Source Statement           (Hibal 5, Asmedit 3.3)  HLASM R4.0  2004/03/15 12.36
+___    ______ ____    _____ _____  ____ __ ______    ______ _________
0                                   8167                       ¿þþþþþþþþþþþþþþþþþþþþþþþþþÜ
                                    8168                       Ÿ  process end of string  Ÿ
                                    8169                       ¾þþþþþþþþþþþþþþþþþþþþþþþþþ»
 0010CA 91E0 D06E      00022        8170              EOS      TM    FL,FSQS+FDQS+FPS        string?
 0010CE 4780 81E4            01248  8171                       BZ    TOKEN                   br if not
 0010D2 1B55                        8172              ILLSTR   SR    NR,NR                   update ptr
 0010D4 1861                        8173                       LR    PR,R1
 0010D6 1801                        8174                       LR    R0,R1                   compute string ptr
 0010D8 5810 C010            00010  8175                       L     R1,LOC
 0010DC 1B01                        8176                       SR    R0,R1
 0010DE 1300                        8177                       LCR   R0,R0                   indicate illegal string
 0010E0 47F0 84FE            01562  8178                       B     RTN                 Return
                                    8179              *
                                    8180              * process blanks
                                    8181              *
 0010E4 91E0 D06E      00022        8182              BLKCOM   TM    FL,FSQS+FDQS+FPS        string being collected?
 0010E8 4770 81C2            01226  8183                       BNZ   GOSTRING                br if so
 0010EC 5910 C010            00010  8184                       C     R1,LOC                  blank at start of string?
 0010F0 4770 81E4            01248  8185                       BNE   TOKEN                   no
 0010F4 4160 1001            00001  8186                       LA    PR,@R1+1                skip over
 0010F8 9056 C00C            0000C  8187                       STM   NR,PR,LEN               start over
 0010FC 47F0 8022            01086  8188                       B     SCANON
                                    8189              *
                                    8190              * process semi-colon
                                    8191              *
 001100 91E0 D06E      00022        8192              SEMI     TM    FL,FSQS+FDQS+FPS        string being collected?
 001104 4770 81C2            01226  8193                       BNZ   GOSTRING                br if so
 001108 1851                        8194                       LR    NR,R1
 00110A 5B50 C010            00010  8195                       S     NR,LOC                  truncate rest of scan
 00110E 5050 C00C            0000C  8196                       ST    NR,LEN
 001112 47F0 81E4            01248  8197                       B     TOKEN
1MISC     (MISC4072) (12:36) (15MAR04) Scanner                                                                              Page   43
0Current Usings:  (*,R8) (SCANCB,R12) (SA-@@,R13)
0Loc    Object Code    Addr1 Addr2  Stmt Lv Lineno    Source Statement           (Hibal 5, Asmedit 3.3)  HLASM R4.0  2004/03/15 12.36
+___    ______ ____    _____ _____  ____ __ ______    ______ _________
0                                   8199              *  process slash
                                    8200              *
 001116 91E0 D06E      00022        8201              SLASH    TM    FL,FSQS+FDQS+FPS         string being collected?
 00111A 4770 81C2            01226  8202                       BNZ   GOSTRING                 br if so
 00111E 5910 C010            00010  8203                       C     R1,LOC                   compute token size
 001122 4770 81E4            01248  8204                       BNE   TOKEN                    token won't be "/"
 001126 4110 1001            00001  8205                       LA    R1,@R1+1                 length "/" token
 00112A 47F0 81E4            01248  8206                       B     TOKEN                    process
                                    8207                       ¿þþþþþþþþþþþþþþþþþþþþþþþþÜ
                                    8208                       Ÿ  process single quote  Ÿ
                                    8209                       ¾þþþþþþþþþþþþþþþþþþþþþþþþ»
 00112E 9160 D06E      00022        8210              SQUOTE   TM    FL,FDQS+FPS             "string"?
 001132 4770 81C2            01226  8211                       BNZ   GOSTRING                br if so
 001136 9180 D06E      00022        8212                       TM    FL,FSQS                 old string?
 00113A 4710 80EA            0114E  8213                       BO    CSQ                     br if so
 00113E 5910 C010            00010  8214                       C     R1,LOC                  compute token size
 001142 4770 81E4            01248  8215                       BNE   TOKEN                  br if previous token
 001146 9680 D06E      00022        8216                       OI    FL,FSQS                 set string scan
 00114A 47F0 81C2            01226  8217                       B     GOSTRING
                                    8218
 00114E 1A56                        8219              CSQ      AR    NR,PR                   bump ptr
 001150 1B51                        8220                       SR    NR,R1
 001152 4110 1001            00001  8221                       LA    R1,@R1+1                point past quote
 001156 1861                        8222                       LR    PR,R1
 001158 47D0 81E4            01248  8223                       BNP   TOKEN                   br if end
 00115C 957D 6000      00000        8224                       CLI   @PR,C''''               quote?
 001160 4780 8110            01174  8225                       BE    MVS
 001164 9101 D06E      00022        8226              ISOLAT   TM    FL,FISOL                string isolating?
 001168 4780 81E4            01248  8227                       BZ    TOKEN                   end of string
 00116C 941F D06E      00022        8228                       NI    FL,255-FSQS-FDQS-FPS    end of string
 001170 47F0 8022            01086  8229                       B     SCANON                  keep going
 001174 0650                        8230              MVS      BCTR  NR,0                    eliminate 2nd quote
 001176 4160 6001            00001  8231                       LA    PR,@PR+1
 00117A 47F0 8022            01086  8232                       B     SCANON
1MISC     (MISC4072) (12:36) (15MAR04) Scanner                                                                              Page   44
0Current Usings:  (*,R8) (SCANCB,R12) (SA-@@,R13)
0Loc    Object Code    Addr1 Addr2  Stmt Lv Lineno    Source Statement           (Hibal 5, Asmedit 3.3)  HLASM R4.0  2004/03/15 12.36
+___    ______ ____    _____ _____  ____ __ ______    ______ _________
0                                   8234              *  process double quote
                                    8235              *
 00117E 91A0 D06E      00022        8236              DQUOTE   TM    FL,FSQS+FPS             'string'?
 001182 4770 81C2            01226  8237                       BNZ   GOSTRING                br if so
 001186 9140 D06E      00022        8238                       TM    FL,FDQS                 old string?
 00118A 4710 813A            0119E  8239                       BO    CDQ                     br if so
 00118E 5910 C010            00010  8240                       C     R1,LOC                  passed over token?
 001192 4770 81E4            01248  8241                       BNE   TOKEN
 001196 9640 D06E      00022        8242                       OI    FL,FDQS                 set string scan
 00119A 47F0 81C2            01226  8243                       B     GOSTRING
                                    8244
 00119E 1A56                        8245              CDQ      AR    NR,PR                   update ptr
 0011A0 1B51                        8246                       SR    NR,R1
 0011A2 4110 1001            00001  8247                       LA    R1,@R1+1                point past quote
 0011A6 1861                        8248                       LR    PR,R1
 0011A8 47D0 81E4            01248  8249                       BNP   TOKEN                   br if end
 0011AC 957F 6000      00000        8250                       CLI   @PR,C'"'                quote?
 0011B0 4780 8110            01174  8251                       BE    MVS                     br if so
 0011B4 47F0 8100            01164  8252                       B     ISOLAT                  make isolation check
                                    8253                       ¿þþþþþþþþþþþþþþþþþþþþþþÜ
                                    8254                       Ÿ  process left paren  Ÿ
                                    8255                       ¾þþþþþþþþþþþþþþþþþþþþþþ»
 0011B8 91C0 D06E      00022        8256              LPAR     TM    FL,FSQS+FDQS            quoted string?
 0011BC 4770 81C2            01226  8257                       BNZ   GOSTRING                br if so
 0011C0 9120 D06E      00022        8258                       TM    FL,FPS                  paren string?
 0011C4 4710 8184            011E8  8259                       BO    INP                     br if so
 0011C8 5910 C010            00010  8260                       C     R1,LOC                  previous token?
 0011CC 4780 8174            011D8  8261                       BE    LPAR1ST                 no
 0011D0 9101 D06E      00022        8262                       TM    FL,FISOL                isolating string?
 0011D4 4780 81E4            01248  8263                       BZ    TOKEN                   no
                                    8264
 0011D8 9620 D06E      00022        8265              LPAR1ST  OI    FL,FPS                  set paren scan
 0011DC 4120 0001            00001  8266                       LA    SR,1
 0011E0 4020 D06C            00020  8267                       STH   SR,PCNT
 0011E4 47F0 81C2            01226  8268                       B     GOSTRING
                                    8269
 0011E8 4820 D06C            00020  8270              INP      LH    SR,PCNT                 paren count
 0011EC 4120 2001            00001  8271                       LA    SR,@SR+1
 0011F0 4020 D06C            00020  8272                       STH   SR,PCNT
 0011F4 47F0 81C2            01226  8273                       B     GOSTRING
1MISC     (MISC4072) (12:36) (15MAR04) Scanner                                                                              Page   45
0Current Usings:  (*,R8) (SCANCB,R12) (SA-@@,R13)
0Loc    Object Code    Addr1 Addr2  Stmt Lv Lineno    Source Statement           (Hibal 5, Asmedit 3.3)  HLASM R4.0  2004/03/15 12.36
+___    ______ ____    _____ _____  ____ __ ______    ______ _________
0                                   8275              *  process right paren
                                    8276              *
 0011F8 91C0 D06E      00022        8277              RPAR     TM    FL,FSQS+FDQS            quoted string?
 0011FC 4770 81C2            01226  8278                       BNZ   GOSTRING                br if so
 001200 9120 D06E      00022        8279                       TM    FL,FPS                  paren string?
 001204 4780 81CE            01232  8280                       BZ    ILLPS                   br if not
 001208 4820 D06C            00020  8281                       LH    SR,PCNT                 decr count
 00120C 0620                        8282                       BCTR  SR,0
 00120E 4020 D06C            00020  8283                       STH   SR,PCNT
 001212 1222                        8284                       LTR   SR,SR
 001214 4770 81C2            01226  8285                       BNZ   GOSTRING
 001218 1A56                        8286                       AR    NR,PR                   update ptr
 00121A 1B51                        8287                       SR    NR,R1
 00121C 4110 1001            00001  8288                       LA    R1,@R1+1                point past quote
 001220 1861                        8289                       LR    PR,R1
 001222 47F0 8100            01164  8290                       B     ISOLAT                  all parens matched
 001226 1B51                        8291              GOSTRING SR    NR,R1                   update string ptrs
 001228 1A56                        8292                       AR    NR,PR
 00122A 4160 1001            00001  8293                       LA    PR,@R1+1
 00122E 47F0 8022            01086  8294                       B     SCANON
                                    8295
 001232 5800 C010            00010  8296              ILLPS    L     R0,LOC                  compute -length
 001236 1B01                        8297                       SR    R0,R1
 001238 5810 C010            00010  8298                       L     R1,LOC                  loc of token
 00123C 1A50                        8299                       AR    NR,R0                   decr length
 00123E 4160 1001            00001  8300                       LA    PR,@R1+1
 001242 1B60                        8301                       SR    PR,R0                   bump ptr
 001244 47F0 84FE            01562  8302                       B     RTN
1MISC     (MISC4072) (12:36) (15MAR04) Scanner                                                                              Page   46
0Current Usings:  (*,R8) (SCANCB,R12) (SA-@@,R13)
0Loc    Object Code    Addr1 Addr2  Stmt Lv Lineno    Source Statement           (Hibal 5, Asmedit 3.3)  HLASM R4.0  2004/03/15 12.36
+___    ______ ____    _____ _____  ____ __ ______    ______ _________
0                                   8304              *  process a token
                                    8305              *
 001248 9856 C00C            0000C  8306              TOKEN    LM    NR,PR,LEN               old loc and length
 00124C 5010 C010            00010  8307                       ST    R1,LOC                  next noken
 001250 1B16                        8308                       SR    R1,PR                   length
 001252 4780 84D6            0153A  8309                       BZ    DONE
 001256 1B51                        8310                       SR    NR,R1                   reduce remaining length
 001258 5050 C00C            0000C  8311                       ST    NR,LEN
 00125C 1801                        8312                       LR    R0,R1                   token length
 00125E 1816                        8313                       LR    R1,PR                   token start
 001260 18F0                        8314                       LR    R15,R0
 001262 9240 C004      00004        8315                       MVI   KW,C' '                 clear kw area
 001266 D206 C005 C004 00005 00004  8316                       MVC   KW+1(7),KW
 00126C D703 D070 D070 00024 00024  8317                       CLEAR WAPC                Clear push/pop stack
 001272 91E1 D06E      00022        8324                       TM    FL,FSQS+FDQS+FPS+FISOL  quote or paren string?
 001276 4770 8238            0129C  8325                       BNZ   PRKW                    br if quote or paren string
 00127A 1820                        8326                       LR    SR,R0                   count
 00127C 1831                        8327                       LR    TR,R1                   ptr
 00127E 9640 3000      00000        8328              MRECH    OI    @TR,X'40'               capital bit
 001282 4130 3001            00001  8329                       LA    TR,@TR+1                move ptr
 001286 4620 821A            0127E  8330                       BCT   SR,MRECH                more?
 00128A 55F0 8AF0/47D0_      01B54  8331                       IF    (R15,LGT,8),'LA R15,8'  Match the first 8 chars
 001296 06F0/44F0 8B2E_             8354                       DEX   R15,'MVC KW(0),@R1'     Move kw
 00129C 1244                        8373              PRKW     LTR   RR,RR                   routine?
 00129E 4770 833A            0139E  8374                       BNZ   SETSR                   br if so
 0012A2 5820 C018            00018  8375                       L     SR,PRT                  routing table
 0012A6 1222                        8376                       LTR   SR,SR
 0012A8 4770 8254            012B8  8377                       BNZ   KWSRCH                  br if one
 0012AC 5840 C014            00014  8378                       L     RR,RA
 0012B0 47F0 833E            013A2  8379                       B     GORTN
                                    8380
 0012B4 4123 2005            00005  8381              KWNEX    LA    SR,@SR+5(TR)            try next
 0012B8 91F8 2000      00000        8382              KWSRCH   TM    @SR,FTBLE               table end/push/pop?
 0012BC 4710 82B8            0131C  8383                       BO    KWFND                   br if so
 0012C0 4330 2000            00000  8384                       IC    TR,@SR                  extract (len-1)
 0012C4 5430 8AF4            01B58  8385                       N     TR,=X'00000007'
 0012C8 91E0 D06E      00022        8386                       TM    FL,FSQS+FDQS+FPS        quote or paren string?
 0012CC 4770 82A0            01304  8387                       BNZ   NXTRY                   br if quote or paren string
 0012D0 1233                        8388                       LTR   TR,TR                   test token len
 0012D2 4770 827A            012DE  8389                       BNZ   COMPOK                  user kw exists
 0012D6 9540 2004      00004        8390                       CLI   @SR+4,C' '              blank?
 0012DA 4780 82B8            0131C  8391                       BE    KWFND                   yes
 0012DE 193F                        8392              COMPOK   CR    TR,R15                  len ok?
 0012E0 4770 8288            012EC  8393                       BNE   QABBRV                  abbrev?
 0012E4 4430 8B34/D500_      01B98  8394                       EX    TR,'CLC KW(0),@SR+4'  compare keywords
 0012E8 4780 82B8            0131C  8410                       BE    KWFND                   br if found
 0012EC 9108 2000      00000        8411              QABBRV   TM    @SR,FABBREV             try abbreviation?
 0012F0 4780 82A0            01304  8412                       BZ    NXTRY                   no
 0012F4 4900 8B1E            01B82  8413                       CH    R0,=Y(3)                3-chars?
 0012F8 4740 82A0            01304  8414                       BL    NXTRY                   must be at least 3
 0012FC 44F0 8B3A/D500_      01B9E  8415                       EX    R15,'CLC KW(0),@SR+4'  equal to given length?
 001300 4780 82B8            0131C  8431                       BE    KWFND                   br if found
 001304 9110 2000      00000        8432              NXTRY    TM    @SR,FLIMIT              limit?
 001308 4780 8250            012B4  8433                       BZ    KWNEX                   no
1MISC     (MISC4072) (12:36) (15MAR04) Scanner                                                                              Page   47
0Current Usings:  (*,R8) (SCANCB,R12) (SA-@@,R13)
0Loc    Object Code    Addr1 Addr2  Stmt Lv Lineno    Source Statement           (Hibal 5, Asmedit 3.3)  HLASM R4.0  2004/03/15 12.36
+___    ______ ____    _____ _____  ____ __ ______    ______ _________
000130C 9160 2000      00000        8434                       TM    @SR,FINTEG+FINTEGP      integer?
 001310 47B0 8250            012B4  8435                       BNM   KWNEX                   no
 001314 4123 2009            00009  8436                       LA    SR,@SR+9(TR)            try next
 001318 47F0 8254            012B8  8437                       B     KWSRCH
1MISC     (MISC4072) (12:36) (15MAR04) Scanner                                                                              Page   48
0Current Usings:  (*,R8) (SCANCB,R12) (SA-@@,R13)
0Loc    Object Code    Addr1 Addr2  Stmt Lv Lineno    Source Statement           (Hibal 5, Asmedit 3.3)  HLASM R4.0  2004/03/15 12.36
+___    ______ ____    _____ _____  ____ __ ______    ______ _________
000131C 941F D06E      00022        8439              KWFND    NI    FL,255-FSQS-FDQS-FPS    reset string scan
 001320 D203 D060 2000 00014 00000  8440                       MVC   TEMPD(4),@SR            to temp bound
 001326 1F44/BF47 D061              8441                       L3    RR,TEMPD+1              routine
 00132C 91F8 2000      00000        8449                       TM    @SR,FTBLE               end/push/pop?
 001330 4710 82E0            01344  8450                       BO    TSTLAST                 br if so
 001334 9180 2000      00000        8451                       TM    @SR,FPARM               parm?
 001338 4780 833E            013A2  8452                       BZ    GORTN                   br if not
 00133C 9023 D04C            00000  8453                       STM   SR,TR,WORD              save sr/tr values
 001340 47F0 800C            01070  8454                       B     SCANCN                  find parm
                                    8455
 001344 9107 2000      00000        8456              TSTLAST  TM    @SR,255-FTBLE           is it last
 001348 4710 833E            013A2  8457                       BO    GORTN                   all on, yes
 00134C 4740 831A            0137E  8458                       BM    GOPOP                   mixed, go pop up one level
                                    8459              *
                                    8460              * push down current scan table pointer
                                    8461              *
 001350 4120 2004            00004  8462                       LA    SR,@SR+4                set for next after pop
 001354 4140 4000            00000  8463                       LA    RR,@RR                  form address and check
 001358 1244                        8464                       LTR   RR,RR                   br if address
 00135A 4780 8254            012B8  8465                       BZ    KWSRCH                  br if no table to push to
 00135E 58E0 D070            00024  8466              GOPUSH1  L     R14,WAPC
 001362 502E D070            00024  8467                       ST    SR,WAPC(R14)
 001366 41E0 E004            00004  8468                       LA    R14,@R14+4
 00136A 59E0 8AF8/47D0_      01B5C  8469                       IF    (R14,GT,L'WAP),'DC H"0"'  too deep
 001374 50E0 D070            00024  8492                       ST    R14,WAPC
 001378 1824                        8493                       LR    SR,RR               Set new prt addr
 00137A 47F0 8254            012B8  8494                       B     KWSRCH              Go search this table
                                    8495              *
                                    8496              * pop current scan table pointer
                                    8497              *
 00137E 58E0 D070            00024  8498              GOPOP    L     R14,WAPC
 001382 4BE0 8B20            01B84  8499                       SH    R14,=Y(4)
 001386 4740 8332            01396  8500                       BM    NXTRY1              Ignore if at top level
 00138A 50E0 D070            00024  8501                       ST    R14,WAPC
 00138E 582E D074            00028  8502                       L     SR,WAP(R14)         Old prt
 001392 47F0 8254            012B8  8503                       B     KWSRCH              Continue
                                    8504
 001396 4120 2001            00001  8505              NXTRY1   LA    SR,@SR+1                step past ignored pop
 00139A 47F0 8254            012B8  8506                       B     KWSRCH                  continue in same table
1MISC     (MISC4072) (12:36) (15MAR04) Scanner                                                                              Page   49
0Current Usings:  (*,R8) (SCANCB,R12) (SA-@@,R13)
0Loc    Object Code    Addr1 Addr2  Stmt Lv Lineno    Source Statement           (Hibal 5, Asmedit 3.3)  HLASM R4.0  2004/03/15 12.36
+___    ______ ____    _____ _____  ____ __ ______    ______ _________
000139E 9823 D04C            00000  8508              SETSR    LM    SR,TR,WORD              reset sr/tr values
 0013A2 4140 4000            00000  8509              GORTN    LA    RR,@RR                  clear hi bit
 0013A6 12E4                        8510                       LTR   R14,RR                  test ep
 0013A8 4780 800C            01070  8511                       BZ    SCANCN                  br if none
 0013AC 9001 D058            0000C  8512                       STM   R0,R1,CPSAVE            save ptrs
 0013B0 50F0 D054            00008  8513                       ST    R15,SV15                save 15
 0013B4 1222                        8514                       LTR   SR,SR                   routing table?
 0013B6 4780 836A            013CE  8515                       BZ    NTCMV                   no
 0013BA 95FF 2000      00000        8516                       CLI   @SR,FLAST               end?
 0013BE 4780 836A            013CE  8517                       BE    NTCMV                   br if so
 0013C2 9160 2000      00000        8518                       TM    @SR,FLINNO              integer or line no conv?
 0013C6 4710 83EE            01452  8519                       BO    LINNOCV                 line no. conv
 0013CA 4740 83BE            01422  8520                       BM    INTGRCV                 integer conv
 0013CE 41F0 C004            00004  8521              NTCMV    LA    R15,KW                  kw ptr
 0013D2 50F0 C000            00000  8522              NOTKWPS  ST    R15,VAL                 save value
 0013D6 18FC                        8523                       LR    R15,SCANCBR             restore r15
 0013D8 18E4                        8524                       LR    R14,RR              Set ep
 0013DA 92FF C018      00018        8525                       MVI   PRT,X'FF'           Set old prt
 0013DE 41D0 D084            00084  8526                       LA    SPR,LS(,SPR)        Unstack
 0013E2 50D0 D048            00048  8527                       ST    SPR,@NSP-@SPR(,SPR)
 0013E6 982C D018            00018  8528                       LM    FSR,LSR,@NSP-@SPR-4-(LSR-FSR+1)*4(SPR)
 0013EA 1200                        8529                       LTR   R0,R0               Set cc
 0013EC 0DEE                        8530                       BASR  RAR,RAR             User routine  ***********
                                    8531              *  return to rar to continue scan
                                    8532              *  return to @rar+4 to continue scan with new kwrt
 0013EE 9200 F018      00018        8533                       MVI   PRT-SCANCB(R15),0   Set to use old kwrt
 0013F2 D203 D044 F014 00044 00014  8534                       MVC   @NSP-@SPR-4(4,SPR),RA-SCANCB(R15)  return addr
 0013F8 902C D018            00018  8535                       STM   FSR,LSR,@NSP-@SPR-4-(LSR-FSR+1)*4(SPR)
 0013FC 0D80                        8536                       BASE
 DROP   *,R8
 USING  *,R8
 0013FE 4BD0 8788            01B86  8553                       SH    SPR,=Y(LS)          Stack
 001402 BED7 D0CD            000CD  8554                       ST3   SPR,@NSP-@SPR+1+LS(SPR)
 001406 50D0 D048            00048  8556                       ST    SPR,@NSP-@SPR(,SPR)
 00140A 5880 8762            01B60  8557                       BASE  BASE                Common base
 DROP   *,R8
 USING  BASE,R8
 00140E 18CF                        8575                       LR    SCANCBR,R15         Scan table ptr
 001410 1B44                        8576                       SR    RR,RR                   no routine
 001412 91FF C018      00018        8577                       TM    PRT,X'FF'               use old prt?
 001416 4780 800C            01070  8578                       BZ    SCANCN                  yes
 00141A 5010 C018            00018  8579                       ST    R1,PRT                  new prt specified
 00141E 47F0 800C            01070  8580                       B     SCANCN                  continue scan
1MISC     (MISC4072) (12:36) (15MAR04) Scanner                                                                              Page   50
0Current Usings:  (BASE,R8) (SCANCB,R12) (SA-@@,R13)
0Loc    Object Code    Addr1 Addr2  Stmt Lv Lineno    Source Statement           (Hibal 5, Asmedit 3.3)  HLASM R4.0  2004/03/15 12.36
+___    ______ ____    _____ _____  ____ __ ______    ______ _________
0                                   8582              * decimal to binary conv rtn for scan
                                    8583              *
 001422 45E0 8474            014D8  8584              INTGRCV  BAL   R14,DOINT               go do cv
 001426 9120 2000      00000        8585                       TM    @SR,FINTEGP             pos int?
 00142A 4780 83D0            01434  8586                       BZ    ANYI                    no
 00142E 1200                        8587                       LTR   R0,R0                   test integ
 001430 47D0 84B8            0151C  8588                       BNP   BOO                     ng
 001434 9110 2000      00000        8589              ANYI     TM    @SR,FLIMIT              limit?
 001438 4780 8430            01494  8590                       BZ    NTRSET                  no
 00143C 5000 D060            00014  8591                       ST    R0,TEMPD                for clc
 001440 4163 2005            00005  8592                       LA    PR,@SR+5(TR)            pt at limit
 001444 D503 D060 6000 00014 00000  8593                       CLC   TEMPD(4),@PR            check limit
 00144A 47D0 8430            01494  8594                       BNH   NTRSET                  ok
 00144E 47F0 84B8            0151C  8595                       B     BOO                     ng
1MISC     (MISC4072) (12:36) (15MAR04) Scanner                                                                              Page   51
0Current Usings:  (BASE,R8) (SCANCB,R12) (SA-@@,R13)
0Loc    Object Code    Addr1 Addr2  Stmt Lv Lineno    Source Statement           (Hibal 5, Asmedit 3.3)  HLASM R4.0  2004/03/15 12.36
+___    ______ ____    _____ _____  ____ __ ______    ______ _________
0001452 5500 8B00            01B64  8597              LINNOCV  CL    R0,=A(9)                max len is 8
 001456 4720 84B8            0151C  8598                       BH    BOO                     too big
 00145A 1BFF                        8599                       SR    R15,R15                 zero counter
 00145C 1861                        8600                       LR    PR,R1                   ptr
 00145E 954B 6000      00000        8601              CHKMR    CLI   @PR,C'.'                period?
 001462 4780 8412            01476  8602                       BE    HVPRD                   yes
 001466 41F0 F001            00001  8603                       LA    R15,@R15+1              kick counter
 00146A 4160 6001            00001  8604                       LA    PR,@PR+1                kick ptr
 00146E 4600 83FA            0145E  8605                       BCT   R0,CHKMR                more?
 001472 47F0 8416            0147A  8606                       B     WHOL                    integer line no
                                    8607
 001476 4600 843A            0149E  8608              HVPRD    BCT   R0,CHKFR                fraction?
 00147A 120F                        8609              WHOL     LTR   R0,R15                  integ count
 00147C 47D0 84B8            0151C  8610                       BNP   BOO                     "." not legal
 001480 1BFF                        8611                       SR    R15,R15                 zero fraction
 001482 5500 8B04            01B68  8612              WHOLDO   CL    R0,=A(5)                4 is max
 001486 4720 84B8            0151C  8613                       BH    BOO
 00148A 45E0 8474            014D8  8614                       BAL   R14,DOINT               conv
 00148E 4C00 8B24            01B88  8615                       MH    R0,=H'1000'             set integer value
 001492 1A0F                        8616                       AR    R0,R15                  add fraction
 001494 18F0                        8617              NTRSET   LR    R15,R0                  set return value into r15
 001496 9801 D058            0000C  8618                       LM    R0,R1,CPSAVE            reset ptrs
 00149A 47F0 836E            013D2  8619                       B     NOTKWPS                 ready to return
                                    8620
 00149E 5500 8AEC            01B50  8621              CHKFR    CL    R0,=A(4)                3 is max
 0014A2 47B0 84B8            0151C  8622                       BNL   BOO                     ng
 0014A6 D201 D061 8B26 00015 01B8A  8623                       MVC   TEMPD+1(2),=C'00'       put zeros
 0014AC 18E0                        8624                       LR    R14,R0                  count
 0014AE 06E0                        8625                       BCTR  R14,0                   for ex
 0014B0 44E0 846E            014D2  8626                       EX    R14,MVFR                mvc   temp(0),1(pr)
 0014B4 4100 0003            00003  8628                       LA    R0,3                    cv count
 0014B8 4110 D060            00014  8629                       LA    R1,TEMPD                 ptr
 0014BC 45E0 8474            014D8  8630                       BAL   R14,DOINT               cv
 0014C0 125F                        8631                       LTR   NR,R15                  any integ count?
 0014C2 47D0 8430            01494  8632                       BNP   NTRSET                  fin
 0014C6 18F0                        8633                       LR    R15,R0                  save frac
 0014C8 1805                        8634                       LR    R0,NR                   integ count
 0014CA 5810 D05C            00010  8635                       L     R1,CPSAVE+4             reset start ptr
 0014CE 47F0 841E            01482  8636                       B     WHOLDO                  integer line no
                                    8637
 0014D2 D200 D060 6001 00014 00001  8638              MVFR     MVC   TEMPD(0),@PR+1
1MISC     (MISC4072) (12:36) (15MAR04) Scanner                                                                              Page   52
0Current Usings:  (BASE,R8) (SCANCB,R12) (SA-@@,R13)
0Loc    Object Code    Addr1 Addr2  Stmt Lv Lineno    Source Statement           (Hibal 5, Asmedit 3.3)  HLASM R4.0  2004/03/15 12.36
+___    ______ ____    _____ _____  ____ __ ______    ______ _________
00014D8 1200                        8640              DOINT    LTR   R0,R0                   any string to convert?
 0014DA 4780 8430            01494  8641                       BZ    NTRSET                  caller can tell from cc
 0014DE 5500 8AF0            01B54  8642                       CL    R0,=A(8)                max len is 7
 0014E2 47B0 84B8            0151C  8643                       BNL   BOO                     ng
 0014E6 1850                        8644                       LR    NR,R0                   count
 0014E8 1861                        8645                       LR    PR,R1                   ptr
 0014EA 95F0 1000      00000        8646              CHNEXT   CLI   @R1,C'0'                too small?
 0014EE 4740 84B8            0151C  8647                       BL    BOO                     yes
 0014F2 95F9 1000      00000        8648                       CLI   @R1,C'9'                too big?
 0014F6 4720 84B8            0151C  8649                       BH    BOO                     yes
 0014FA 4110 1001            00001  8650                       LA    R1,@R1+1                next
 0014FE 4600 8486            014EA  8651                       BCT   R0,CHNEXT               more?
 001502 4110 D067            0001B  8652                       LA    R1,TEMPD+7              get a doubleword
 001506 5410 8B08            01B6C  8653                       N     R1,=F'-8'               round up
 00150A 0650                        8654                       BCTR  NR,0                    reduce for ex of pack
 00150C 4450 84B2            01516  8655                       EX    NR,CHPACK               pack
 001510 4F00 1000            00000  8657                       CVB   R0,@R1                  to doubleword temp
 001514 07FE                        8658                       BR    R14                     return
                                    8659
 001516 F270 1000 6000 00000 00000  8660              CHPACK   PACK  @R1(8),@PR(*-*)         pack number
1MISC     (MISC4072) (12:36) (15MAR04) Scanner                                                                              Page   53
0Current Usings:  (BASE,R8) (SCANCB,R12) (SA-@@,R13)
0Loc    Object Code    Addr1 Addr2  Stmt Lv Lineno    Source Statement           (Hibal 5, Asmedit 3.3)  HLASM R4.0  2004/03/15 12.36
+___    ______ ____    _____ _____  ____ __ ______    ______ _________
000151C 1B44                        8662              BOO      SR    RR,RR                    unset routine
 00151E 9856 C00C            0000C  8663                       LM    NR,PR,LEN                set loc and len
 001522 9801 D058            0000C  8664                       LM    R0,R1,CPSAVE             ptrs
 001526 9180 2000      00000        8665                       TM    @SR,FPARM                parm?
 00152A 58F0 D054            00008  8666                       L     R15,SV15                set 15
 00152E 4780 82A0            01304  8667                       BZ    NXTRY                    no
 001532 1300                        8668                       LCR   R0,R0                    neg
 001534 1B55                        8669                       SR    NR,NR                    fin line
 001536 47F0 84FE            01562  8670                       B     RTN
1MISC     (MISC4072) (12:36) (15MAR04) Scanner                                                                              Page   54
0Current Usings:  (BASE,R8) (SCANCB,R12) (SA-@@,R13)
0Loc    Object Code    Addr1 Addr2  Stmt Lv Lineno    Source Statement           (Hibal 5, Asmedit 3.3)  HLASM R4.0  2004/03/15 12.36
+___    ______ ____    _____ _____  ____ __ ______    ______ _________
0                                   8672              *  terminal processing
                                    8673              *
 00153A 91E0 D06E      00022        8674              DONE     TM    FL,FSQS+FDQS+FPS        collecting string?
 00153E 4770 806E            010D2  8675                       BNZ   ILLSTR                  error if so
 001542 1B00                        8676                       SR    R0,R0                   zot loc and len
 001544 1B11                        8677                       SR    R1,R1
 001546 9240 C004      00004        8678                       MVI   KW,C' '                 clear kw
 00154A D206 C005 C004 00005 00004  8679                       MVC   KW+1(7),KW
 001550 9101 D06E      00022        8680                       TM    FL,FISOL                isolating string?
 001554 4780 84F8            0155C  8681                       BZ    DON1
 001558 9801 C00C            0000C  8682                       LM    R0,R1,LEN               use last pointers
 00155C 1244                        8683              DON1     LTR   RR,RR                   parm missing?
 00155E 4770 833A            0139E  8684                       BNZ   SETSR               Br if so
 001562 9056 C00C            0000C  8685              RTN      STM   NR,PR,LEN               save string ptr
 001566 58E0 C014            00014  8686                       L     R14,RA                  return addr
 00156A 41F0 C004            00004  8687                       LA    R15,KW
 00156E 50F0 C000            00000  8688                       ST    R15,VAL                 save return value
 001572 18FC                        8689                       LR    R15,SCANCBR             restore r15
 001574 41D0 D084/982C_      00084  8690                       PEND  R0
 DROP   SCANCB,R12
 DROP   SA-@@,R13
 DROP   BASE,R8
1MISC     (MISC4072) (12:36) (15MAR04) Scanner                                                                              Page   55
0Loc    Object Code    Addr1 Addr2  Stmt Lv Lineno    Source Statement           (Hibal 5, Asmedit 3.3)  HLASM R4.0  2004/03/15 12.36
+___    ______ ____    _____ _____  ____ __ ______    ______ _________
0                                   8722                       ¿þþþþþþþþþþþþþþþþþþþþþþÜ
                                    8723                       Ÿ  Scan class tables.  Ÿ
                                    8724                       ¾þþþþþþþþþþþþþþþþþþþþþþ»
 001588 0000159800001698            8725              CLTS     DC    A(CLT0,CLT1,CLT2,CLT3)
                                    8726                       ¿þþþþþþþþþþþþþþþþþþþþþþþþþÜ
                                    8727                       Ÿ  0: normal scan table.  Ÿ
                                    8728                       ¾þþþþþþþþþþþþþþþþþþþþþþþþþ»
 001598 0404040404040404            8729              CLT0     DC    256AL1(4)
 001698                01698 01619  8730                       ORG   CLT0+X'81'
 001619 0000000000000000            8731                       DC    9X'00'
 001622                01622 01629  8732                       ORG   CLT0+X'91'
 001629 0000000000000000            8733                       DC    9X'00'
 001632                01632 0163A  8734                       ORG   CLT0+X'A2'
 00163A 0000000000000000            8735                       DC    8X'00'
 001642                01642 01659  8736                       ORG   CLT0+C'A'
 001659 0000000000000000            8737                       DC    9X'00'
 001662                01662 01669  8738                       ORG   CLT0+C'J'
 001669 0000000000000000            8739                       DC    9X'00'
 001672                01672 0167A  8740                       ORG   CLT0+C'S'
 00167A 0000000000000000            8741                       DC    8X'00'
 001682                01682 01688  8742                       ORG   CLT0+C'0'
 001688 0000000000000000            8743                       DC    10X'00'
 001692                01692 015E3  8744                       ORG   CLT0+C'.'
 0015E3 00                          8745                       DC    X'00'
 0015E4                015E4 015F3  8746                       ORG   CLT0+C'$'
 0015F3 00                          8747                       DC    X'00'
 0015F4                015F4 01614  8748                       ORG   CLT0+C'@'
 001614 00                          8749                       DC    X'00'
 001615                01615 01613  8750                       ORG   CLT0+C'#'
 001613 00                          8751                       DC    X'00'
 001614                01614 015E8  8752                       ORG   CLT0+C'&&'
 0015E8 00                          8753                       DC    X'00'
 0015E9                015E9 01605  8754                       ORG   CLT0+C'_'
 001605 00                          8755                       DC    X'00'
 001606                01606 015E6  8756                       ORG   CLT0+C'+'
 0015E6 18                          8757                       DC    AL1(24)
 0015E7                015E7 015F8  8758                       ORG   CLT0+C'-'
 0015F8 18                          8759                       DC    AL1(24)
 0015F9                015F9 015E7  8760                       ORG   CLT0+C'|'
 0015E7 18                          8761                       DC    AL1(24)
 0015E8                015E8 015F9  8762                       ORG   CLT0+C'/'
 0015F9 18                          8763                       DC    AL1(24)
 0015FA                015FA 015F7  8764                       ORG   CLT0+C'~'
 0015F7 18                          8765                       DC    AL1(24)
 0015F8                015F8 015E2  8766                       ORG   CLT0+C'^'               cent sign or carat
 0015E2 00                          8767                       DC    X'00'
 0015E3                015E3 015F2  8768                       ORG   CLT0+C'!'               exclamation point
 0015F2 00                          8769                       DC    X'00'
 0015F3                015F3 015E4  8770                       ORG   CLT0+C'<'
 0015E4 00                          8771                       DC    X'00'
 0015E5                015E5 01606  8772                       ORG   CLT0+C'>'
 001606 00                          8773                       DC    X'00'
 001607                01607 01645  8774                       ORG   CLT0+C'['
 001645 00                          8775                       DC    X'00'
 001646                01646 01655  8776                       ORG   CLT0+C']'
 001655 00                          8777                       DC    X'00'
1MISC     (MISC4072) (12:36) (15MAR04) Scanner                                                                              Page   56
0Loc    Object Code    Addr1 Addr2  Stmt Lv Lineno    Source Statement           (Hibal 5, Asmedit 3.3)  HLASM R4.0  2004/03/15 12.36
+___    ______ ____    _____ _____  ____ __ ______    ______ _________
0001656                01656 01658  8778                       ORG   CLT0+C'{'
 001658 00                          8779                       DC    X'00'
 001659                01659 01668  8780                       ORG   CLT0+C'}'
 001668 00                          8781                       DC    X'00'
 001669                01669 01678  8782                       ORG   CLT0+C'\'
 001678 00                          8783                       DC    X'00'
 001679                01679 01611  8784                       ORG   CLT0+C'`'
 001611 00                          8785                       DC    X'00'
 001612                01612 01612  8786                       ORG   CLT0+C':'
 001612 00                          8787                       DC    X'00'
 001613                01613 01604  8788                       ORG   CLT0+C'%'
 001604 00                          8789                       DC    X'00'
 001605                01605 01607  8790                       ORG   CLT0+C'?'
 001607 00                          8791                       DC    X'00'
 001608                01608 015F4  8792                       ORG   CLT0+C'*'
 0015F4 00                          8793                       DC    X'00'
 0015F5                015F5 015D8  8794                       ORG   CLT0+C' '               a space
 0015D8 04                          8795                       DC    AL1(4)                   is
 0015D9                015D9 01603  8796                       ORG   CLT0+C','                 a comma
 001603 04                          8797                       DC    AL1(4)                     is
 001604                01604 01616  8798                       ORG   CLT0+C'='                   an equals
 001616 04                          8799                       DC    AL1(4)                       sign
 001617                01617 01615  8800                       ORG   CLT0+C''''
 001615 08                          8801                       DC    AL1(8)
 001616                01616 01617  8802                       ORG   CLT0+C'"'
 001617 0C                          8803                       DC    AL1(12)
 001618                01618 015E5  8804                       ORG   CLT0+C'('
 0015E5 10                          8805                       DC    AL1(16)
 0015E6                015E6 015F5  8806                       ORG   CLT0+C')'
 0015F5 14                          8807                       DC    AL1(20)
 0015F6                015F6 015F6  8808                       ORG   CLT0+C';'
 0015F6 1C                          8809                       DC    AL1(28)
 0015F7                015F7 01698  8810                       ORG
                                    8811                       ¿þþþþþþþþþþþþþþþþþþþþþþþþþþþþþþþþþþþþþþþþþþþþþþþþþþþþþþþþþþþþþþþÜ
                                    8812                       Ÿ  scan table for isolating string (bounded by blank or comma)  Ÿ
                                    8813                       ¾þþþþþþþþþþþþþþþþþþþþþþþþþþþþþþþþþþþþþþþþþþþþþþþþþþþþþþþþþþþþþþþ»
 001698 0000000000000000            8814              CLT1     DC    256AL1(0)
 001798                01798 016D8  8815                       ORG   CLT1+C' '
 0016D8 04                          8816                       DC    AL1(4)
 0016D9                016D9 01703  8817                       ORG   CLT1+C','
 001703 04                          8818                       DC    AL1(4)
 001704                01704 01716  8819                       ORG   CLT1+C'='
 001716 04                          8820                       DC    AL1(4)
 001717                01717 01715  8821                       ORG   CLT1+C''''
 001715 08                          8822                       DC    AL1(8)
 001716                01716 01717  8823                       ORG   CLT1+C'"'
 001717 0C                          8824                       DC    AL1(12)
 001718                01718 016E5  8825                       ORG   CLT1+C'('
 0016E5 10                          8826                       DC    AL1(16)
 0016E6                016E6 016F5  8827                       ORG   CLT1+C')'
 0016F5 14                          8828                       DC    AL1(20)
 0016F6                016F6 016F6  8829                       ORG   CLT1+C';'
 0016F6 1C                          8830                       DC    AL1(28)
 0016F7                016F7 01798  8831                       ORG
1MISC     (MISC4072) (12:36) (15MAR04) Scanner                                                                              Page   57
0Loc    Object Code    Addr1 Addr2  Stmt Lv Lineno    Source Statement           (Hibal 5, Asmedit 3.3)  HLASM R4.0  2004/03/15 12.36
+___    ______ ____    _____ _____  ____ __ ______    ______ _________
0                                   8832                       ¿þþþþþþþþþþþþþþþþþþþþþþþþþþþþþþþþþþþþþÜ
                                    8833                       Ÿ  2: table for scanning expressions  Ÿ
                                    8834                       ¾þþþþþþþþþþþþþþþþþþþþþþþþþþþþþþþþþþþþþ»
 001798 1818181818181818            8835              CLT2     DC    256AL1(24)
 001898                01898 01819  8836                       ORG   CLT2+X'81'
 001819 0000000000000000            8837                       DC    9X'00'
 001822                01822 01829  8838                       ORG   CLT2+X'91'
 001829 0000000000000000            8839                       DC    9X'00'
 001832                01832 0183A  8840                       ORG   CLT2+X'A2'
 00183A 0000000000000000            8841                       DC    8X'00'
 001842                01842 01859  8842                       ORG   CLT2+C'A'
 001859 0000000000000000            8843                       DC    9X'00'
 001862                01862 01869  8844                       ORG   CLT2+C'J'
 001869 0000000000000000            8845                       DC    9X'00'
 001872                01872 0187A  8846                       ORG   CLT2+C'S'
 00187A 0000000000000000            8847                       DC    8X'00'
 001882                01882 01888  8848                       ORG   CLT2+C'0'
 001888 0000000000000000            8849                       DC    10X'00'
 001892                01892 017E3  8850                       ORG   CLT2+C'.'
 0017E3 00                          8851                       DC    X'00'
 0017E4                017E4 017F3  8852                       ORG   CLT2+C'$'
 0017F3 00                          8853                       DC    X'00'
 0017F4                017F4 01814  8854                       ORG   CLT2+C'@'
 001814 00                          8855                       DC    X'00'
 001815                01815 01813  8856                       ORG   CLT2+C'#'
 001813 00                          8857                       DC    X'00'
 001814                01814 01805  8858                       ORG   CLT2+C'_'
 001805 00                          8859                       DC    X'00'
 001806                01806 01815  8860                       ORG   CLT2+C''''
 001815 08                          8861                       DC    AL1(8)
 001816                01816 01817  8862                       ORG   CLT2+C'"'
 001817 0C                          8863                       DC    AL1(12)
 001818                01818 017F6  8864                       ORG   CLT2+C';'
 0017F6 1C                          8865                       DC    AL1(28)
 0017F7                017F7 01898  8866                       ORG
                                    8867                       ¿þþþþþþþþþþþþþþþþþþþþþþþþþþþþþþþþþþþþþþþþþþþþþþþþþþþþþþþþþþþþÜ
                                    8868                       Ÿ  3: Same as "normal" except -, /, etc. are regular chars.  Ÿ
                                    8869                       ¾þþþþþþþþþþþþþþþþþþþþþþþþþþþþþþþþþþþþþþþþþþþþþþþþþþþþþþþþþþþþ»
 001898 0404040404040404            8870              CLT3     DC    256AL1(4)
 001998                01998 01919  8871                       ORG   CLT3+X'81'
 001919 0000000000000000            8872                       DC    9X'00'
 001922                01922 01929  8873                       ORG   CLT3+X'91'
 001929 0000000000000000            8874                       DC    9X'00'
 001932                01932 0193A  8875                       ORG   CLT3+X'A2'
 00193A 0000000000000000            8876                       DC    8X'00'
 001942                01942 01959  8877                       ORG   CLT3+C'A'
 001959 0000000000000000            8878                       DC    9X'00'
 001962                01962 01969  8879                       ORG   CLT3+C'J'
 001969 0000000000000000            8880                       DC    9X'00'
 001972                01972 0197A  8881                       ORG   CLT3+C'S'
 00197A 0000000000000000            8882                       DC    8X'00'
 001982                01982 01988  8883                       ORG   CLT3+C'0'
 001988 0000000000000000            8884                       DC    10X'00'
 001992                01992 018E3  8885                       ORG   CLT3+C'.'
 0018E3 00                          8886                       DC    X'00'
 0018E4                018E4 018F3  8887                       ORG   CLT3+C'$'
1MISC     (MISC4072) (12:36) (15MAR04) Scanner                                                                              Page   58
0Loc    Object Code    Addr1 Addr2  Stmt Lv Lineno    Source Statement           (Hibal 5, Asmedit 3.3)  HLASM R4.0  2004/03/15 12.36
+___    ______ ____    _____ _____  ____ __ ______    ______ _________
00018F3 00                          8888                       DC    X'00'
 0018F4                018F4 01914  8889                       ORG   CLT3+C'@'
 001914 00                          8890                       DC    X'00'
 001915                01915 01913  8891                       ORG   CLT3+C'#'
 001913 00                          8892                       DC    X'00'
 001914                01914 018E8  8893                       ORG   CLT3+C'&&'
 0018E8 00                          8894                       DC    X'00'
 0018E9                018E9 01905  8895                       ORG   CLT3+C'_'
 001905 00                          8896                       DC    X'00'
 001906                01906 018E6  8897                       ORG   CLT3+C'+'
 0018E6 00                          8898                       DC    AL1(0)
 0018E7                018E7 018F8  8899                       ORG   CLT3+C'-'
 0018F8 00                          8900                       DC    AL1(0)
 0018F9                018F9 018E7  8901                       ORG   CLT3+C'|'
 0018E7 00                          8902                       DC    AL1(0)
 0018E8                018E8 018F9  8903                       ORG   CLT3+C'/'
 0018F9 00                          8904                       DC    AL1(0)
 0018FA                018FA 018F7  8905                       ORG   CLT3+C'~'
 0018F7 00                          8906                       DC    AL1(0)
 0018F8                018F8 018E2  8907                       ORG   CLT3+C'^'               cent sign or carat
 0018E2 00                          8908                       DC    X'00'
 0018E3                018E3 018F2  8909                       ORG   CLT3+C'!'               exclamation point
 0018F2 00                          8910                       DC    X'00'
 0018F3                018F3 018E4  8911                       ORG   CLT3+C'<'
 0018E4 00                          8912                       DC    X'00'
 0018E5                018E5 01906  8913                       ORG   CLT3+C'>'
 001906 00                          8914                       DC    X'00'
 001907                01907 01945  8915                       ORG   CLT3+C'['
 001945 00                          8916                       DC    X'00'
 001946                01946 01955  8917                       ORG   CLT3+C']'
 001955 00                          8918                       DC    X'00'
 001956                01956 01958  8919                       ORG   CLT3+C'{'
 001958 00                          8920                       DC    X'00'
 001959                01959 01968  8921                       ORG   CLT3+C'}'
 001968 00                          8922                       DC    X'00'
 001969                01969 01978  8923                       ORG   CLT3+C'\'
 001978 00                          8924                       DC    X'00'
 001979                01979 01911  8925                       ORG   CLT3+C'`'
 001911 00                          8926                       DC    X'00'
 001912                01912 01912  8927                       ORG   CLT3+C':'
 001912 00                          8928                       DC    X'00'
 001913                01913 01904  8929                       ORG   CLT3+C'%'
 001904 00                          8930                       DC    X'00'
 001905                01905 01907  8931                       ORG   CLT3+C'?'
 001907 00                          8932                       DC    X'00'
 001908                01908 018F4  8933                       ORG   CLT3+C'*'
 0018F4 00                          8934                       DC    X'00'
 0018F5                018F5 018D8  8935                       ORG   CLT3+C' '               a space
 0018D8 04                          8936                       DC    AL1(4)                   is
 0018D9                018D9 01903  8937                       ORG   CLT3+C','                 a comma
 001903 04                          8938                       DC    AL1(4)                     is
 001904                01904 01916  8939                       ORG   CLT3+C'='                   an equals
 001916 04                          8940                       DC    AL1(4)                       sign
 001917                01917 01915  8941                       ORG   CLT3+C''''
 001915 08                          8942                       DC    AL1(8)
 001916                01916 01917  8943                       ORG   CLT3+C'"'
1MISC     (MISC4072) (12:36) (15MAR04) Scanner                                                                              Page   59
0Loc    Object Code    Addr1 Addr2  Stmt Lv Lineno    Source Statement           (Hibal 5, Asmedit 3.3)  HLASM R4.0  2004/03/15 12.36
+___    ______ ____    _____ _____  ____ __ ______    ______ _________
0001917 0C                          8944                       DC    AL1(12)
 001918                01918 018E5  8945                       ORG   CLT3+C'('
 0018E5 10                          8946                       DC    AL1(16)
 0018E6                018E6 018F5  8947                       ORG   CLT3+C')'
 0018F5 14                          8948                       DC    AL1(20)
 0018F6                018F6 018F6  8949                       ORG   CLT3+C';'
 0018F6 1C                          8950                       DC    AL1(28)
 0018F7                018F7 01998  8951                       ORG
1MISC     (MISC4072) (12:36) (15MAR04) Trim Leading and Trailing Blanks                                                     Page   60
0Loc    Object Code    Addr1 Addr2  Stmt Lv Lineno    Source Statement           (Hibal 5, Asmedit 3.3)  HLASM R4.0  2004/03/15 12.36
+___    ______ ____    _____ _____  ____ __ ______    ______ _________
0                                   8953              ¿þþþþþþþþþþþþþþþþþþþþþþþþþþþþþþþþþþþþþþþþþþþþþþþþþþþþþþþþþþþþþþþþþþþþþÜ
                                    8954              Ÿ                                                                     Ÿ
                                    8955              Ÿ  RTRIM -- Trim right-side (trailing) blanks.                        Ÿ
                                    8956              Ÿ                                                                     Ÿ
                                    8957              Ÿ    On entry:                                                        Ÿ
                                    8958              Ÿ      R1,R0 - string loc, len                                        Ÿ
                                    8959              Ÿ                                                                     Ÿ
                                                      ¾þþþþþþþþþþþþþþþþþþþþþþþþþþþþþþþþþþþþþþþþþþþþþþþþþþþþþþþþþþþþþþþþþþþþþ»
0001998 50E0 D044/902C_      00044  8960              RTRIM    XPROC (R2,LSR)
 USING  *,R8
 0019B2 1861                        8998                       LR    R6,R1
 0019B4 1A60                        8999                       AR    R6,R0
 0019B6 0660                        9000                       DECR  R6
 0019B8 1200/47D0 802C_             9002                       WHILE ((R0,POS),AND,(@R6,EQ,' ')),'DECR R6; DECR R0'
 0019CE 41D0 D034/982C_      00034  9043                       PEND
 DROP   *,R8
-                                   9064              ¿þþþþþþþþþþþþþþþþþþþþþþþþþþþþþþþþþþþþþþþþþþþþþþþþþþþþþþþþþþþþþþþþþþþþþÜ
                                    9065              Ÿ                                                                     Ÿ
                                    9066              Ÿ  LRTRIM -- Trim left and right-side (leading/trailing) blanks.      Ÿ
                                    9067              Ÿ                                                                     Ÿ
                                    9068              Ÿ    On entry:                                                        Ÿ
                                    9069              Ÿ      R1,R0 - string loc, len                                        Ÿ
                                    9070              Ÿ                                                                     Ÿ
                                                      ¾þþþþþþþþþþþþþþþþþþþþþþþþþþþþþþþþþþþþþþþþþþþþþþþþþþþþþþþþþþþþþþþþþþþþþ»
00019E2 50E0 D044/902C_      00044  9071              LRTRIM   XPROC (R2,LSR)
 USING  *,R8
 0019FC 1200/47D0 8028_             9109                       WHILE ((R0,POS),AND,(@R1,EQ,' ')),'LA R1,@R1+1; DECR R0'
                                    9149
 001A14 1861                        9150                       LR    R6,R1
 001A16 1A60                        9151                       AR    R6,R0
 001A18 0660                        9152                       DECR  R6
 001A1A 1200/47D0 8044_             9154                       WHILE ((R0,POS),AND,(@R6,EQ,' ')),'DECR R6; DECR R0'
 001A30 41D0 D034/982C_      00034  9195                       PEND
 DROP   *,R8
1MISC     (MISC4072) (12:36) (15MAR04) Trim Leading and Trailing Blanks                                                     Page   61
0Loc    Object Code    Addr1 Addr2  Stmt Lv Lineno    Source Statement           (Hibal 5, Asmedit 3.3)  HLASM R4.0  2004/03/15 12.36
+___    ______ ____    _____ _____  ____ __ ______    ______ _________
0                                   9216              ¿þþþþþþþþþþþþþþþþþþþþþþþþþþþþþþþþþþþþþþþþþþþþþþþþþþþþþþþþþþþþþþþþþþþþþÜ
                                    9217              Ÿ                                                                     Ÿ
                                    9218              Ÿ  TOEBCDIC -- Routine to translate ASCII text to EBCDIC.             Ÿ
                                    9219              Ÿ                                                                     Ÿ
                                    9220              Ÿ    On entry:                                                        Ÿ
                                    9221              Ÿ      R1,R0 - text loc, len                                          Ÿ
                                    9222              Ÿ                                                                     Ÿ
                                    9223              Ÿ    On exit:                                                         Ÿ
                                    9224              Ÿ      R1,R0 - translated text loc, len                               Ÿ
                                    9225              Ÿ              (the text is translated in place)                      Ÿ
                                    9226              Ÿ                                                                     Ÿ
                                                      ¾þþþþþþþþþþþþþþþþþþþþþþþþþþþþþþþþþþþþþþþþþþþþþþþþþþþþþþþþþþþþþþþþþþþþþ»
0001A44 50E0 D044/900C_      00044  9227              TOEBCDIC XPROC (R0,LSR)
 USING  *,R8
 001A5E 5820 8122            01B70  9265                       L     R2,=V(EBCTBL)       EBCDIC translate table
                                    9266
 001A62 1200/47D0 803A              9267                       WHILE (R0,POS),BEGIN      Translate text...
 001A68 18F0                        9283  1                      LR    R15,R0
 001A6A 59F0 8126/47D0_      01B74  9284  1                      CEIL  R15,256
 001A76 06F0/44F0 8156_             9303  1                      DEX   R15,'TR @R1(0),@R2' To EBCDIC
                                    9322  1
 001A7C 4110 1100            00100  9323  1                      LA    R1,@R1+256
 001A80 4B00 8142            01B90  9324  1                      SH    R0,=H'256'
 001A84 47F0 8014            01A62  9325                       END
 001A88 41D0 D03C/980C_      0003C  9330                       PEND
 DROP   *,R8
1MISC     (MISC4072) (12:36) (15MAR04) Trim Leading and Trailing Blanks                                                     Page   62
0Loc    Object Code    Addr1 Addr2  Stmt Lv Lineno    Source Statement           (Hibal 5, Asmedit 3.3)  HLASM R4.0  2004/03/15 12.36
+___    ______ ____    _____ _____  ____ __ ______    ______ _________
0                                   9351              ¿þþþþþþþþþþþþþþþþþþþþþþþþþþþþþþþþþþþþþþþþþþþþþþþþþþþþþþþþþþþþþþþþþþþþþÜ
                                    9352              Ÿ                                                                     Ÿ
                                    9353              Ÿ  TOEBC7 -- Routine to translate ASCII-7 text to EBCDIC.             Ÿ
                                    9354              Ÿ                                                                     Ÿ
                                    9355              Ÿ    On entry:                                                        Ÿ
                                    9356              Ÿ      R1,R0 - text loc, len                                          Ÿ
                                    9357              Ÿ                                                                     Ÿ
                                    9358              Ÿ    On exit:                                                         Ÿ
                                    9359              Ÿ      R1,R0 - translated text loc, len                               Ÿ
                                    9360              Ÿ              (the text is translated in place)                      Ÿ
                                    9361              Ÿ                                                                     Ÿ
                                                      ¾þþþþþþþþþþþþþþþþþþþþþþþþþþþþþþþþþþþþþþþþþþþþþþþþþþþþþþþþþþþþþþþþþþþþþ»
0001A9C 50E0 D044/900C_      00044  9362              TOEBC7   XPROC (R0,LSR)
 USING  *,R8
 001AB6 5820 80D2            01B78  9400                       L     R2,=V(EBCTBL7)      EBCDIC translate table
                                    9401
 001ABA 1200/47D0 803A              9402                       WHILE (R0,POS),BEGIN      Translate text...
 001AC0 18F0                        9418  1                      LR    R15,R0
 001AC2 59F0 80CE/47D0_      01B74  9419  1                      CEIL  R15,256
 001ACE 06F0/44F0 8104_             9438  1                      DEX   R15,'TR @R1(0),@R2' To EBCDIC
                                    9457  1
 001AD4 4110 1100            00100  9458  1                      LA    R1,@R1+256
 001AD8 4B00 80EA            01B90  9459  1                      SH    R0,=H'256'
 001ADC 47F0 8014            01ABA  9460                       END
 001AE0 41D0 D03C/980C_      0003C  9465                       PEND
 DROP   *,R8
1MISC     (MISC4072) (12:36) (15MAR04) Trim Leading and Trailing Blanks                                                     Page   63
0Loc    Object Code    Addr1 Addr2  Stmt Lv Lineno    Source Statement           (Hibal 5, Asmedit 3.3)  HLASM R4.0  2004/03/15 12.36
+___    ______ ____    _____ _____  ____ __ ______    ______ _________
0                                   9486              ¿þþþþþþþþþþþþþþþþþþþþþþþþþþþþþþþþþþþþþþþþþþþþþþþþþþþþþþþþþþþþþþþþþþþþþÜ
                                    9487              Ÿ                                                                     Ÿ
                                    9488              Ÿ  TOASCII -- Routine to translate EBCDIC text to ASCII.              Ÿ
                                    9489              Ÿ                                                                     Ÿ
                                    9490              Ÿ    On entry:                                                        Ÿ
                                    9491              Ÿ      R1,R0 - text loc, len                                          Ÿ
                                    9492              Ÿ                                                                     Ÿ
                                    9493              Ÿ    On exit:                                                         Ÿ
                                    9494              Ÿ      R1,R0 - translated text loc, len                               Ÿ
                                    9495              Ÿ              (the text is translated in place)                      Ÿ
                                    9496              Ÿ                                                                     Ÿ
                                                      ¾þþþþþþþþþþþþþþþþþþþþþþþþþþþþþþþþþþþþþþþþþþþþþþþþþþþþþþþþþþþþþþþþþþþþþ»
0001AF4 50E0 D044/900C_      00044  9497              TOASCII  XPROC (R0,LSR)
 USING  *,R8
 001B0E 5820 807E            01B7C  9535                       L     R2,=V(ASCTBL)       ASCII translate table
                                    9536
 001B12 1200/47D0 803A              9537                       WHILE (R0,POS),BEGIN      Translate text...
 001B18 18F0                        9553  1                      LR    R15,R0
 001B1A 59F0 8076/47D0_      01B74  9554  1                      CEIL  R15,256
 001B26 06F0/44F0 80B2_             9573  1                      DEX   R15,'TR @R1(0),@R2' To ASCII
                                    9592  1
 001B2C 4110 1100            00100  9593  1                      LA    R1,@R1+256
 001B30 4B00 8092            01B90  9594  1                      SH    R0,=H'256'
 001B34 47F0 8014            01B12  9595                       END
 001B38 41D0 D03C/980C_      0003C  9600                       PEND
 DROP   *,R8
                                    9620
                                    9621                       QLTORG
 001BB8                01BB8 01BB8  9654                       END   .

1MISC     (MISC4072) (12:36) (15MAR04) Relocation Dictionary                                                                Page   64
-   Pos.Id   Rel.Id   Flags    Address                                                       HLASM R4.0  2004/03/15 12.36
0  00000001 00000001    0C    00001588
   00000001 00000001    0C    0000158C
   00000001 00000001    0C    00001590
   00000001 00000001    0C    00001594
   00000001 00000001    0C    00001B60
   00000001 00000002    1C    00000FD4
   00000001 00000003    1C    00000FD8
   00000001 00000004    1C    00000FE4
   00000001 00000005    1C    00000FEC
   00000001 00000006    1C    00000FF0
   00000001 00000007    1C    00001B70
   00000001 00000008    1C    00001B78
   00000001 00000009    1C    00001B7C

1MISC     (MISC4072) (12:36) (15MAR04) Ordinary Symbol and Literal Cross Reference                                          Page   65
-Symbol   Length   Value     Id    R Type   Defn References                                  HLASM R4.0  2004/03/15 12.36
0$$$@R12       1 00000000 FFFFFFF2     J     868 2908  2920  2969
 $$$@R13       1 00000000 FFFFFFF1     J     881 2933  2937  2940  2942  2943
 $$$@R14       1 00000000 FFFFFFF0     J     894 2955
 $$$@R2        1 00000000 FFFFFFFC     J     738 2818  2830
 $$$@R3        1 00000000 FFFFFFFB     J     751 2843
 $$$@R4        1 00000000 FFFFFFFA     J     764 2856
 $$$@R5        1 00000000 FFFFFFF9     J     777 2869
 $$$@R6        1 00000000 FFFFFFF8     J     790 2882
 $$$@R8        1 00000000 FFFFFFF6     J     816 2895
 $$$C1MILMISC
               1 000006E6 00000001     J    4730 4732  4957  5627  5802
 $$$C2MILMISC
               1 0000100E 00000001     J    7925 7927  7961  8004  8371  8408  8429  9320  9455  9590
 $$$C3MILMISC
               1 00001BB6 00000001     J    9649 9651
 $$$C4MILMISC
               1 00001BB8 00000001     J    9657 9659
 $$$D0MILMISC
               1 000006DF 00000001     J    2803 3589
 $$$D1MILMISC
               1 00001008 00000001     J    4731 5616
 $$$D2MILMISC
               1 00001B92 00000001     J    7926 8360  8397  8418  9309  9444  9579
 $$$RDEC       1 00000000 FFFFFFE7     J    3052 3066  3066
 $$$RHEXWA
               1 00000000 FFFFFFE6     J    4942 4956  4956
 $$$RSA        1 00000000 FFFFFFE4     J    7933 7960  7960
 $$$RSCANCB
               1 00000000 FFFFFFE3     J    7978 8003  8003
 $$$RSEGCB
               1 00000000 FFFFFFE5     J    5701 5801  5801
 $$$RSTCKCVWA
               1 00000000 FFFFFFE9     J    3000 3015  3015
 $$$RWA        1 00000000 FFFFFFE8     J    3023 3046  3046
 $$$SEGCB2
               4 000005D4 FFFFFFEE     F    1344 1430  1430
 $$$102F       2 0000091C 00000001     H    5594 5585B
 $$$103F       2 00000928 00000001     H    5632 5608B
 $$$104        6 00001008 00000001     I    5622 5614X
 $$$105        6 00001008 00000001     I    5621 5622  5622
 $$$106E       2 0000093E 00000001     H    5658 5652
 $$$106F       2 00000946 00000001     H    5670 5654B
 $$$107        1 00000030 00000001 A   U    5693 5687  5690  5692
 $$$11B        1 00000022 00000001     X    3089 3096U
 $$$117B       1 00000964 00000001     X    5838 5845U
 $$$118        1 00000030 00000001 A   U    5906 5900  5903  5905
 $$$12         1 00000030 00000001 A   U    3151 3145  3148  3150
 $$$120B       1 000009A0 00000001     X    5929 5936U
 $$$121        1 00000030 00000001 A   U    5989 5983  5986  5988
 $$$123B       1 000009D2 00000001     X    6016 6023U
 $$$124        1 00000030 00000001 A   U    6071 6065  6068  6070
 $$$126B       1 00000A16 00000001     X    6098 6105U
 $$$127        1 00000030 00000001 A   U    6153 6147  6150  6152
 $$$129B       1 00000A5A 00000001     X    6180 6187U
 $$$130B       4 00000A84 00000001     I    6239 6252
1MISC     (MISC4072) (12:36) (15MAR04) Ordinary Symbol and Literal Cross Reference                                          Page   66
 $$$130F       2 00000A8A 00000001     H    6248 6239B 6251
 $$$131E       2 00000A8E 00000001     H    6259 6253
 $$$131F       2 00000AA0 00000001     H    6283 6255B
 $$$132F       2 00000ABA 00000001     H    6319 6309B
 $$$133        1 00000030 00000001 A   U    6346 6340  6343  6345
 $$$135B       1 00000ADA 00000001     X    6374 6381U
 $$$136F       2 00000B0E 00000001     H    6469 6424B 6439B
 $$$138        1 00000030 00000001 A   U    6491 6485  6488  6490
 $$$14B        1 00000080 00000001     X    3174 3181U
 $$$140B       1 00000B2C 00000001     X    6518 6525U
 $$$141B       4 00000B56 00000001     I    6575 6589
 $$$141F       2 00000B68 00000001     H    6586 6575B 6588
 $$$142E       2 00000B6C 00000001     H    6596 6590
 $$$142F       2 00000B6E 00000001     H    6606 6592B
 $$$143        1 00000030 00000001 A   U    6628 6622  6625  6627
 $$$145B       1 00000B8C 00000001     X    6663 6670U
 $$$146F       2 00000BC8 00000001     H    6762 6707B
 $$$147F       2 00000BC2 00000001     H    6756 6731B 6744B
 $$$147S       2 00000BAE 00000001     H    6722 6755B
 $$$15         1 00000030 00000001 A   U    3244 3238  3241  3243
 $$$150        1 00000038 00000001 A   U    6785 6779  6782  6784
 $$$152B       1 00000BEA 00000001     X    6807 6814U
 $$$153B       1 00000BFE 00000001     X    6848 6858U
 $$$154F       2 00000C0E 00000001     H    6887 6877B
 $$$156F       2 00000CCE 00000001     H    7119 6937B
 $$$157F       2 00000C4A 00000001     H    6969 6959B
 $$$158F       2 00000C58 00000001     H    6992 6982B
 $$$159F       2 00000CB2 00000001     H    7093 7002B
 $$$160F       2 00000C8E 00000001     H    7060 7028B 7047B
 $$$162F       2 00000CA4 00000001     H    7084 7073B
 $$$164F       2 00000CF4 00000001     H    7156 7146B
 $$$165        1 00000038 00000001 A   U    7183 7177  7180  7182
 $$$167B       1 00000D12 00000001     X    7214 7221U
 $$$168F       2 00000D32 00000001     H    7273 7263B
 $$$169F       2 00000D3E 00000001     H    7291 7281B
 $$$17B        1 000000F6 00000001     X    3269 3276U
 $$$170        1 00000030 00000001 A   U    7328 7322  7325  7327
 $$$172B       1 00000D64 00000001     X    7358 7365U
 $$$173F       2 00000D98 00000001     H    7443 7408B
 $$$173S       2 00000D78 00000001     H    7399 7442B
 $$$175        1 00000030 00000001 A   U    7490 7484  7487  7489
 $$$177B       1 00000EC4 00000001     X    7521 7528U
 $$$178F       2 00000EE6 00000001     H    7583 7573B
 $$$179        1 00000030 00000001 A   U    7617 7611  7614  7616
 $$$181B       1 00000F18 00000001     X    7682 7689U
 $$$182        1 00000014 00000001 A   U    7753 7751
 $$$183        1 00000030 00000001 A   U    7771 7765  7768  7770
 $$$185B       1 00000F72 00000001     X    7801 7808U
 $$$186        1 00000014 00000001 A   U    7872 7870
 $$$187        1 00000030 00000001 A   U    7890 7884  7887  7889
 $$$189B       1 00001052 00000001     X    8079 8086U
 $$$19         1 00000064 00000001 A   U    3348 3341  3345  3347
 $$$190B       1 00001064 00000001     X    8114 8124U
 $$$192F       2 00001296 00000001     H    8353 8343B
 $$$193        6 00001B92 00000001     I    8366 8358X
 $$$194        6 00001B92 00000001     I    8365 8366  8366
 $$$195        6 00001B98 00000001     I    8403 8395X
 $$$196        6 00001B98 00000001     I    8402 8403  8403
 $$$197        6 00001B9E 00000001     I    8424 8416X
1MISC     (MISC4072) (12:36) (15MAR04) Ordinary Symbol and Literal Cross Reference                                          Page   67
 $$$198        6 00001B9E 00000001     I    8423 8424  8424
 $$$199F       2 00001374 00000001     H    8491 8481B
 $$$20F        2 000001DC 00000001     H    3446 3420B
 $$$200B       1 000013FE 00000001     X    8541 8551U
 $$$203        1 00000080 00000001 A   U    8717 8710  8714  8716
 $$$205B       1 000019A2 00000001     X    8977 8984U
 $$$206F       2 000019CE 00000001     H    9042 9015B 9028B
 $$$206S       2 000019B8 00000001     H    9007 9041B
 $$$209        1 00000030 00000001 A   U    9059 9053  9056  9058
 $$$21B        1 00000182 00000001     X    3377 3384U
 $$$211B       1 000019EC 00000001     X    9088 9095U
 $$$212F       2 00001A14 00000001     H    9148 9122B 9135B
 $$$212S       2 000019FC 00000001     H    9114 9147B
 $$$215F       2 00001A30 00000001     H    9194 9167B 9180B
 $$$215S       2 00001A1A 00000001     H    9159 9193B
 $$$218        1 00000030 00000001 A   U    9211 9205  9208  9210
 $$$220B       1 00001A4E 00000001     X    9244 9251U
 $$$221F       2 00001A88 00000001     H    9329 9278B
 $$$221S       2 00001A62 00000001     H    9272 9328B
 $$$223F       2 00001A76 00000001     H    9302 9293B
 $$$224        6 00001BA4 00000001     I    9315 9307X
 $$$225        6 00001BA4 00000001     I    9314 9315  9315
 $$$226        1 00000038 00000001 A   U    9346 9340  9343  9345
 $$$228B       1 00001AA6 00000001     X    9379 9386U
 $$$229F       2 00001AE0 00000001     H    9464 9413B
 $$$229S       2 00001ABA 00000001     H    9407 9463B
 $$$23         1 00000064 00000001 A   U    3455 3448  3452  3454
 $$$231F       2 00001ACE 00000001     H    9437 9428B
 $$$232        6 00001BAA 00000001     I    9450 9442X
 $$$233        6 00001BAA 00000001     I    9449 9450  9450
 $$$234        1 00000038 00000001 A   U    9481 9475  9478  9480
 $$$236B       1 00001AFE 00000001     X    9514 9521U
 $$$237F       2 00001B38 00000001     H    9599 9548B
 $$$237S       2 00001B12 00000001     H    9542 9598B
 $$$239F       2 00001B26 00000001     H    9572 9563B
 $$$240        6 00001BB0 00000001     I    9585 9577X
 $$$241        6 00001BB0 00000001     I    9584 9585  9585
 $$$242        1 00000038 00000001 A   U    9616 9610  9613  9615
 $$$25B        1 000001FE 00000001     X    3482 3489U
 $$$26F        2 00000248 00000001     H    3546 3534B
 $$$27B        4 0000024C 00000001     I    3554 3567
 $$$27F        2 00000256 00000001     H    3564 3554B 3566
 $$$28E        2 0000025A 00000001     H    3574 3568
 $$$28F        2 00000260 00000001     H    3581 3570B
 $$$29         6 000006E0 00000001     I    3595 3587X
 $$$30         6 000006E0 00000001     I    3594 3595  3595
 $$$31         1 00000064 00000001 A   U    3625 3618  3622  3624
 $$$33B        1 00000288 00000001     X    3682 3689U
 $$$34F        2 000002C2 00000001     H    3768 3758B
 $$$35         1 00000030 00000001 A   U    3794 3788  3791  3793
 $$$37B        1 000002E4 00000001     X    3827 3834U
 $$$38         1 00000030 00000001 A   U    3904 3898  3901  3903
 $$$40B        1 0000034E 00000001     X    3939 3946U
 $$$41         1 0000000C 00000001 A   U    3985 3983
 $$$42B        4 000003B2 00000001     I    4009 4037
 $$$42F        2 000003BC 00000001     H    4034 4009B 4036
 $$$43E        2 000003C0 00000001     H    4044 4038
 $$$43F        2 000003C6 00000001     H    4066 4040B
 $$$44         1 00000030 00000001 A   U    4083 4077  4080  4082
1MISC     (MISC4072) (12:36) (15MAR04) Ordinary Symbol and Literal Cross Reference                                          Page   68
 $$$46B        1 000003E4 00000001     X    4118 4125U
 $$$47F        2 0000046E 00000001     H    4198 4187B
 $$$48         1 00000068 00000001 A   U    4239 4232  4236  4238
 $$$50B        1 00000492 00000001     X    4272 4279U
 $$$51F        2 0000051A 00000001     H    4353 4342B
 $$$52         1 00000068 00000001 A   U    4394 4387  4391  4393
 $$$54B        1 0000053E 00000001     X    4427 4434U
 $$$55F        2 000005C2 00000001     H    4505 4494B
 $$$56         1 00000068 00000001 A   U    4545 4538  4542  4544
 $$$58B        1 000005E6 00000001     X    4580 4587U
 $$$59B        4 00000650 00000001     I    4647 4661
 $$$59F        2 0000065C 00000001     H    4657 4647B 4660
 $$$60E        2 00000660 00000001     H    4668 4662
 $$$60F        2 00000664 00000001     H    4679 4664B
 $$$61         1 00000068 00000001 A   U    4702 4695  4699  4701
 $$$62F        2 0000075E 00000001     H    4915 4904B
 $$$63B        1 000006F4 00000001     X    4768 4775U
 $$$65F        2 0000071C 00000001     H    4840 4822B
 $$$67F        2 00000756 00000001     H    4900 4863B
 $$$67S        2 0000072A 00000001     H    4857 4899B
 $$$69F        2 00000748 00000001     H    4891 4877B
 $$$70         1 00000030 00000001 A   U    4923 4917  4920  4922
 $$$71F        2 00000868 00000001     H    5322 5305B
 $$$72B        1 0000077A 00000001     X    4979 4986U
 $$$73F        2 000007A2 00000001     H    5045 5035B
 $$$73T        2 0000079A 00000001     H    5038 5024B
 $$$75F        2 00000856 00000001     H    5299 5072B
 $$$75S        2 000007AE 00000001     H    5066 5298B
 $$$77B        4 000007BC 00000001     I    5089 5105
 $$$77F        2 000007D0 00000001     H    5102 5089B 5104
 $$$79E        2 000007D4 00000001     H    5112 5106
 $$$79F        2 000007E2 00000001     H    5120 5108B
 $$$81F        2 00000814 00000001     H    5204 5159B
 $$$85F        2 00000842 00000001     H    5288 5243B
 $$$88         1 00000040 00000001 A   U    5331 5324  5328  5330
 $$$90B        1 00000886 00000001     X    5368 5375U
 $$$91F        2 000008D2 00000001     H    5478 5423B 5464B
 $$$91S        2 000008AA 00000001     H    5415 5477B
 $$$91T        2 000008C8 00000001     H    5467 5440B 5453B
 $$$96B        4 000008D4 00000001     I    5491 5651
 $$$96F        2 0000093A 00000001     H    5645 5491B 5650
 $$$97F        2 00000902 00000001     H    5567 5514B 5527B 5540B 5553B
 $$$97S        2 000008DA 00000001     H    5506 5566B
 @@            1 0000004C FFFFFFF1 A   U    2940 3295  3403  3508  4144  4298  4453  4606  5005  8105
 @NSP          4 00000048 FFFFFFF1     A    2939 3081M 3084M 3102M 3103M 3104M 3148  3150  3152M 3166M 3169M 3187M 3188M
                                                 3189M 3241  3243  3245M 3260M 3263M 3282M 3283M 3284M 3345  3347  3349M
                                                 3368M 3371M 3390M 3391M 3392M 3452  3454  3456M 3473M 3476M 3495M 3496M
                                                 3497M 3622  3624  3626M 3674M 3677M 3695M 3696M 3697M 3791  3793  3795M
                                                 3819M 3822M 3840M 3841M 3842M 3901  3903  3905M 3931M 3934M 3952M 3953M
                                                 3954M 3969M 3970M 3986M 4080  4082  4084M 4109M 4112M 4131M 4132M 4133M
                                                 4236  4238  4240M 4263M 4266M 4285M 4286M 4287M 4391  4393  4395M 4418M
                                                 4421M 4440M 4441M 4442M 4542  4544  4546M 4571M 4574M 4593M 4594M 4595M
                                                 4699  4701  4703M 4760M 4763M 4781M 4782M 4783M 4920  4922  4924M 4970M
                                                 4973M 4992M 4993M 4994M 5328  5330  5332M 5360M 5363M 5381M 5382M 5383M
                                                 5690  5692  5694M 5830M 5833M 5851M 5852M 5853M 5903  5905  5907M 5921M
                                                 5924M 5942M 5943M 5944M 5986  5988  5990M 6008M 6011M 6029M 6030M 6031M
                                                 6068  6070  6072M 6090M 6093M 6111M 6112M 6113M 6150  6152  6154M 6172M
                                                 6175M 6193M 6194M 6195M 6343  6345  6347M 6366M 6369M 6387M 6388M 6389M
                                                 6488  6490  6492M 6510M 6513M 6531M 6532M 6533M 6625  6627  6629M 6655M
1MISC     (MISC4072) (12:36) (15MAR04) Ordinary Symbol and Literal Cross Reference                                          Page   69
                                                 6658M 6676M 6677M 6678M 6782  6784  6786M 6799M 6802M 6820M 6821M 6822M
                                                 7180  7182  7184M 7206M 7209M 7227M 7228M 7229M 7325  7327  7329M 7350M
                                                 7353M 7371M 7372M 7373M 7487  7489  7491M 7513M 7516M 7534M 7535M 7536M
                                                 7614  7616  7618M 7674M 7677M 7695M 7696M 7697M 7708M 7709M 7754M 7768
                                                 7770  7772M 7793M 7796M 7814M 7815M 7816M 7827M 7828M 7873M 7887  7889
                                                 7891M 8070M 8073M 8092M 8093M 8094M 8527M 8528  8534M 8535M 8555M 8556M
                                                 8714  8716  8718M 8969M 8972M 8990M 8991M 8992M 9056  9058  9060M 9080M
                                                 9083M 9101M 9102M 9103M 9208  9210  9212M 9236M 9239M 9257M 9258M 9259M
                                                 9343  9345  9347M 9371M 9374M 9392M 9393M 9394M 9478  9480  9482M 9506M
                                                 9509M 9527M 9528M 9529M 9613  9615  9617M
 @PR           0 00000000 FFFFFFF8     @    2883 8147  8165  8224  8231  8250  8593  8601  8604  8638  8660
 @RR           0 00000000 FFFFFFFA     @    2857 8463  8509
 @R0           0 00000000 FFFFFFFE     @     713  989U
 @R1           0 00000000 FFFFFFFD     @     726  985U 1439  1443  1444  1446  1447M 3116  3118  3125  3130  3206  3208
                                                 3210  3215  3217  3222  3310M 3352M 3459M 3542M 3594  3974  3981  4749
                                                 4821  4834  4849  5021  5034  5040  5095  5096  5114  5115  5621  6712
                                                 8019  8186  8205  8221  8247  8288  8293  8300  8365  8646  8648  8650
                                                 8657  8660M 9134  9141  9314M 9323  9449M 9458  9584M 9593
 @R10          0 00000000 FFFFFFF4     @     843  949U
 @R11          0 00000000 FFFFFFF3     @     856  945U
 @R12          0 00000000 FFFFFFF2     @     869  941U 5678U 8696U
 @R13          0 00000000 FFFFFFF1     @     882  937U 3332U 3439U 3609U 3703M 3704  4223U 4378U 4529U 4686U 5315U 8701U
 @R14          0 00000000 FFFFFFF0     @     895  933U 8468
 @R15          0 00000000 FFFFFFEF     @     908  929U 1449M 4868M 4876  4892  5636  5888U 5971U 7653U 8057U 8165  8603
 @R2           0 00000000 FFFFFFFC     @     739  981U 3126U 3207U 3352  3424  3425  3428  3459  3728U 3776U 6743  6758
                                                 9314  9449  9584
 @R3           0 00000000 FFFFFFFB     @     752  977U 3429  3522  5437  5450  5463  5526  5539  5552  7079
 @R4           0 00000000 FFFFFFFA     @     765  973U 4876  8448U
 @R5           0 00000000 FFFFFFF9     @     778  969U 3594M 5294
 @R6           0 00000000 FFFFFFF8     @     791  965U 3636U 3849M 3859  3863M 3866  3869M 3961M 3974M 3981M 4151M 4305M
                                                 4349M 4868  4883  4893  5293M 6326U 6476U 6613U 6770U 7163U 7313U 7475U
                                                 7602U 9027  9179
 @R7           0 00000000 FFFFFFF7     @     804  961U
 @R8           0 00000000 FFFFFFF6     @     817  957U 3141U 3234U 3337U 3444U 3614U 3784U 3894U 4073U 4228U 4383U 4534U
                                                 4691U 4913U 5320U 5683U 5896U 5979U 6061U 6143U 6336U 6481U 6618U 6775U
                                                 6855U 7173U 7318U 7480U 7607U 7761U 7880U 8121U 8548U 8570U 8706U 9049U
                                                 9201U 9336U 9471U 9606U
 @R9           0 00000000 FFFFFFF5     @     830  953U
 @SPR          0 00000000 FFFFFFF1     @    2934 3081M 3084M 3102M 3103M 3104M 3148  3150  3152M 3166M 3169M 3187M 3188M
                                                 3189M 3241  3243  3245M 3260M 3263M 3282M 3283M 3284M 3345  3347  3349M
                                                 3368M 3371M 3390M 3391M 3392M 3452  3454  3456M 3473M 3476M 3495M 3496M
                                                 3497M 3622  3624  3626M 3674M 3677M 3695M 3696M 3697M 3791  3793  3795M
                                                 3819M 3822M 3840M 3841M 3842M 3901  3903  3905M 3931M 3934M 3952M 3953M
                                                 3954M 3969M 3970M 3971  3986M 4080  4082  4084M 4109M 4112M 4131M 4132M
                                                 4133M 4236  4238  4240M 4263M 4266M 4285M 4286M 4287M 4391  4393  4395M
                                                 4418M 4421M 4440M 4441M 4442M 4542  4544  4546M 4571M 4574M 4593M 4594M
                                                 4595M 4699  4701  4703M 4760M 4763M 4781M 4782M 4783M 4920  4922  4924M
                                                 4970M 4973M 4992M 4993M 4994M 5328  5330  5332M 5360M 5363M 5381M 5382M
                                                 5383M 5690  5692  5694M 5830M 5833M 5851M 5852M 5853M 5903  5905  5907M
                                                 5921M 5924M 5942M 5943M 5944M 5986  5988  5990M 6008M 6011M 6029M 6030M
                                                 6031M 6068  6070  6072M 6090M 6093M 6111M 6112M 6113M 6150  6152  6154M
                                                 6172M 6175M 6193M 6194M 6195M 6343  6345  6347M 6366M 6369M 6387M 6388M
                                                 6389M 6488  6490  6492M 6510M 6513M 6531M 6532M 6533M 6625  6627  6629M
                                                 6655M 6658M 6676M 6677M 6678M 6782  6784  6786M 6799M 6802M 6820M 6821M
                                                 6822M 7180  7182  7184M 7206M 7209M 7227M 7228M 7229M 7325  7327  7329M
                                                 7350M 7353M 7371M 7372M 7373M 7487  7489  7491M 7513M 7516M 7534M 7535M
                                                 7536M 7614  7616  7618M 7674M 7677M 7695M 7696M 7697M 7708M 7709M 7710
                                                 7754M 7768  7770  7772M 7793M 7796M 7814M 7815M 7816M 7827M 7828M 7829
                                                 7873M 7887  7889  7891M 8045M 8048  8070M 8073M 8092M 8093M 8094M 8527M
1MISC     (MISC4072) (12:36) (15MAR04) Ordinary Symbol and Literal Cross Reference                                          Page   70
                                                 8528  8534M 8535M 8555M 8556M 8714  8716  8718M 8969M 8972M 8990M 8991M
                                                 8992M 9056  9058  9060M 9080M 9083M 9101M 9102M 9103M 9208  9210  9212M
                                                 9236M 9239M 9257M 9258M 9259M 9343  9345  9347M 9371M 9374M 9392M 9393M
                                                 9394M 9478  9480  9482M 9506M 9509M 9527M 9528M 9529M 9613  9615  9617M
 @SR           0 00000000 FFFFFFFC     @    2831 8271  8381  8382  8384  8390  8402  8411  8423  8432  8434  8436  8440
                                                 8449  8451  8456  8462  8505  8516  8518  8585  8589  8592  8665
 @TR           0 00000000 FFFFFFFB     @    2844 8328M 8329
 @WA           1 0000004C FFFFFFF1     U    2941 3971  7710  7829
 AHLHEAD       1 00000000 00000000 A   T    1872 1872
 AHLVCCR8      1 00000000 00000000 A   T    2363 2363
 ANYI          4 00001434 00000001     I    8589 8586B
 ASCTBL        1 00000000 00000009     T    1011 1263  9639
 ASMVT         1 00000000 00000000 A   T    2252 2252
 BASE          2 00001064 00000001     I    8126 8573U 9632
 BLANKS      256 00000DBA 00000001     C    7495 3849  3855  3961  4151  4305  4458  7422  7427  7453  7911  7921
 BLKCOM        4 000010E4 00000001     I    8182 8158B
 BLTBL         1 00000000 00000000 A   T    1011 1265
 BOO           2 0000151C 00000001     I    8662 8588B 8595B 8598B 8610B 8613B 8622B 8643B 8647B 8649B
 BR            8 00000008 00000001 A   #    2889 3085M 3096U 3170M 3181U 3265M 3276U 3373M 3384U 3478M 3489U 3678M 3689U
                                                 3823M 3834U 3935M 3946U 4114M 4125U 4268M 4279U 4423M 4434U 4576M 4587U
                                                 4764M 4775U 4906  4975M 4986U 5364M 5375U 5834M 5845U 5925M 5936U 6012M
                                                 6023U 6094M 6105U 6176M 6187U 6370M 6381U 6514M 6525U 6659M 6670U 6803M
                                                 6814U 7210M 7221U 7354M 7365U 7517M 7528U 7678M 7689U 7797M 7808U 8075M
                                                 8086U 8973M 8984U 9084M 9095U 9240M 9251U 9375M 9386U 9510M 9521U
 BTD           2 000000EC 00000001     H    3255 3251
 BTD           1 00000000 00000005     T    7912 7912
 BTDMV         6 00000162 00000001     I    3352 3325X
 BTR           2 000001F4 00000001     H    3468 3464
 BTREDMSK     24 00000678 00000001     C    4707 3519
 BTX           2 00000178 00000001     H    3363 3359
 BTX           1 00000000 00000006     T    7913 7913
 BTXC          4 000001B0 00000001     I    3417 3431B
 BTXCHK0       4 000001C0 00000001     I    3424 3427B
 BTXX          4 000001D4 00000001     I    3429 3426B
 BTX0          4 000001B8 00000001     I    3422 3411B
 CB            4 00000000 FFFFFFE3     F    7985 7996
 CBBRANCH      1 00000000 00000000 A   T    2408 2408
 CDQ           2 0000119E 00000001     I    8245 8239B
 CHKFR         4 0000149E 00000001     I    8621 8608B
 CHKMR         4 0000145E 00000001     I    8601 8605B
 CHNEXT        4 000014EA 00000001     I    8646 8651B
 CHPACK        6 00001516 00000001     I    8660 8656X
 CLT           4 0000001C FFFFFFE3     A    7992 8027M 8027  8034  8046  8048M 8144  8151
 CLTS          4 00001588 00000001     A    8725 8152
 CLT0          1 00001598 00000001     R    8729 8725  8730  8732  8734  8736  8738  8740  8742  8744  8746  8748  8750
                                                 8752  8754  8756  8758  8760  8762  8764  8766  8768  8770  8772  8774
                                                 8776  8778  8780  8782  8784  8786  8788  8790  8792  8794  8796  8798
                                                 8800  8802  8804  8806  8808
 CLT1          1 00001698 00000001     R    8814 8725  8815  8817  8819  8821  8823  8825  8827  8829
 CLT2          1 00001798 00000001     R    8835 8725  8836  8838  8840  8842  8844  8846  8848  8850  8852  8854  8856
                                                 8858  8860  8862  8864
 CLT3          1 00001898 00000001     R    8870 8725  8871  8873  8875  8877  8879  8881  8883  8885  8887  8889  8891
                                                 8893  8895  8897  8899  8901  8903  8905  8907  8909  8911  8913  8915
                                                 8917  8919  8921  8923  8925  8927  8929  8931  8933  8935  8937  8939
                                                 8941  8943  8945  8947  8949
 COMPOK        2 000012DE 00000001     I    8392 8389B
 CPSAVE        4 0000000C FFFFFFE4     F    7941 8512M 8618  8635  8664
 CRBRANCH      1 00000000 00000000 A   T    2149 2149
 CSQ           2 0000114E 00000001     I    8219 8213B
1MISC     (MISC4072) (12:36) (15MAR04) Ordinary Symbol and Literal Cross Reference                                          Page   71
 CSRTABLE      1 00000000 00000000 A   T    2169 2169
 CSVARMGR      1 00000000 00000000 A   T    2217 2217
 CSVEXIT       1 00000000 00000000 A   T    2090 2090
 CSVLLCB       1 00000000 00000000 A   T    1690 1690
 CSVLLTRM      1 00000000 00000000 A   T    1691 1691
 CSVMEM        1 00000000 00000000 A   T    1918 1918
 CSVVFGET      1 00000000 00000000 A   T    2482 2482
 CSVVFIND      1 00000000 00000000 A   T    2480 2480
 CV         1912 00000000 FFFFFFEE     X    1464 1013U 5397U
 CVBLANKS    256 00000141 FFFFFFEE     C    1165 5402  5403
 CVCURFEB      4 00000750 FFFFFFEE     A    1455 1462  1462
 CVECB         4 00000038 FFFFFFEE     A    1030 1027
 CVFLAG        1 0000013C FFFFFFEE     R    1090 1094  1099  1104  1109  1114  1119  1124  1129
 CVFLAG2       1 0000013D FFFFFFEE     R    1135 1139  1144  1149  1154
 CVKSCB#       1 00000032 FFFFFFEE A   N    1053 1054  1055
 CVMACH        1 0000013B FFFFFFEE     R    1065 1074  1084
 CVMFLAG       1 0000051C FFFFFFEE     R    1281 1285
 CVMSTART      8 000004B8 FFFFFFEE     D    1272 1326  1326
 CVR          12 0000000C 00000001 A   #    2963 1013U 5397U
 CVSCNCB       4 000005B4 FFFFFFEE     F    1330 1341
 CVSTART       4 00000000 FFFFFFEE     C    1023 1464  1464
 CVT           1 00000000 FFFFFFED     J    1660 3715U
 CVTBRET       2 00000052 FFFFFFED     H    1715 2228  2307
 CVTEXT2       4 00000148 FFFFFFED     A    1954 3721
 CVTLDTO       8 00000038 FFFFFFEA     D    2779 3757  3769
 CVTLSO        8 00000050 FFFFFFEA     D    2788 3745  3748
 CVTOKEN      16 00000258 FFFFFFEE     C    1170 5402M 5621M 5634  7905
 CVTOKLEN      2 0000027C FFFFFFEE     H    1173 5405  5572M
 CVTOKLOC      4 00000278 FFFFFFEE     A    1172 5406  5573M
 CVTOKUPP     16 00000268 FFFFFFEE     C    1171 5403M 5634M 5636M
 CVTPTR        1 00000010 FFFFFFEE A   U    1656 3705
 CVTRCRTN      4 00000724 FFFFFFEE     I    1439 1448B
 CVTVSTGX      1 00000000 FFFFFFEC     J    2680 2544
 CVTXTNT1      1 00000000 FFFFFFEB     J    2719 1887
 CVTXTNT2      1 00000000 FFFFFFEA     J    2727 1957  3739U
 CVT4MS1       1 00000010 FFFFFFED A   U    1740 1748
 CVT6DAT       1 00000002 FFFFFFED A   U    1744 1748
 CVUPPTBL      4 00000498 FFFFFFEE     V    1261 5635
 CVWSGBUF    235 00000610 FFFFFFEE     C    1432 1420  1426
 CVWSGCOD      1 000005D4 FFFFFFEE     R    1347 1356  1366  1376  1386  1396  1406  1416
 CVWSGUSR      4 0000060C FFFFFFEE     A    1429 1431
 DEC           8 00000000 FFFFFFE7     J    3066 2992U 3301M 3305  3516M 3524
 DEQSTR        2 000006EA 00000001     H    4756 4752
 DEQUOTE       4 000006E6 00000001     I    4749 4748
 DFAIDTAB      1 00000000 00000000 A   T    2557 2557
 DOINT         2 000014D8 00000001     I    8640 8584B 8614B 8630B
 DONE          4 0000153A 00000001     I    8674 8149B 8309B
 DON1          2 0000155C 00000001     I    8683 8681B
 DQBAD         2 0000075C 00000001     I    4906 4803B 4837B
 DQUOTE        4 0000117E 00000001     I    8236 8160B
 DTB           2 00000018 00000001     H    3077 3073
 DTBL          2 00000034 00000001     I    3114 3133B
 DTBX          2 00000064 00000001     H    3137 3115B 3117B 3119B
 DW            4 00000004 FFFFFFE8     F    3030 3299  3513
 EBCTBL        1 00000000 00000007     T    1011 1264  9636
 EBCTBL7       1 00000000 00000008     T    1011 1267  9638
 ED15          1 00000168 00000001     C    3354 3302
 EOS           4 000010CA 00000001     I    8170 8157B
 EPARTBL       1 00000000 00000000 A   T    1011 1259
1MISC     (MISC4072) (12:36) (15MAR04) Ordinary Symbol and Literal Cross Reference                                          Page   72
 FABBREV       1 00000008 00000001 A   U    7972 8411
 FDQS          1 00000040 FFFFFFE4 A   U    7947 8170  8182  8192  8201  8210  8228  8238  8242  8256  8277  8324  8386
                                                 8439  8674
 FINTEG        1 00000040 00000001 A   U    7968 8434
 FINTEGP       1 00000020 00000001 A   U    7969 8434  8585
 FISOL         1 00000001 FFFFFFE4 A   U    7949 8146  8226  8262  8324  8680
 FL            1 00000022 FFFFFFE4     X    7944 8143M 8146M 8170  8182  8192  8201  8210  8212  8216M 8226  8228M 8236
                                                 8238  8242M 8256  8258  8262  8265M 8277  8279  8324  8386  8439M 8674
                                                 8680
 FLAST         1 000000FF 00000001 A   U    7965 8516
 FLIMIT        1 00000010 00000001 A   U    7971 8432  8589
 FLINNO        1 00000060 00000001 A   U    7967 8518
 FMBRANCH      1 00000000 00000000 A   T    2333 2333
 FMTCLCK       2 000002DA 00000001     H    3815 3811
 FMTDATE       2 00000488 00000001     H    4258 3861B 3980B
 FMTJUL        2 00000534 00000001     H    4413 3868B
 FMTRCLCK      2 00000344 00000001     H    3927 3923
 FMTTIME       2 000003DA 00000001     H    4104 3854B 3973B 4100
 FPARM         1 00000080 00000001 A   U    7966 8451  8665
 FPS           1 00000020 FFFFFFE4 A   U    7948 8170  8182  8192  8201  8210  8228  8236  8258  8265  8279  8324  8386
                                                 8439  8674
 FSQS          1 00000080 FFFFFFE4 A   U    7946 8170  8182  8192  8201  8212  8216  8228  8236  8256  8277  8324  8386
                                                 8439  8674
 FSR           2 00000002 00000001 A   #    2812 3084  3104  3148M 3169  3189  3241M 3263  3284  3345M 3371  3392  3452M
                                                 3476  3497  3622M 3677  3697  3791M 3822  3842  3901M 3934  3954  4080M
                                                 4112  4133  4236M 4266  4287  4391M 4421  4442  4542M 4574  4595  4699M
                                                 4763  4783  4920M 4973  4994  5328M 5833  5853  5903M 5924  5944  5986M
                                                 6011  6031  6068M 6093  6113  6150M 6175  6195  6343M 6369  6389  6488M
                                                 6513  6533  6625M 7209  7229  7325M 7353  7373  7487M 7516  7536  7614M
                                                 7677  7697  7768M 7796  7816  7887M 7974  8073  8094  8528M 8528  8535
                                                 8535M 8714M
 FTBLE         1 000000F8 00000001 A   U    7964 8382  8449  8456
 GLBRANCH      1 00000000 00000000 A   T    2239 2239
 GMBRANCH      1 00000000 00000000 A   T    2335 2335
 GOPOP         4 0000137E 00000001     I    8498 8458B
 GORTN         4 000013A2 00000001     I    8509 8379B 8452B 8457B
 GOSTRING      2 00001226 00000001     I    8291 8183B 8193B 8202B 8211B 8217B 8237B 8243B 8257B 8268B 8273B 8278B 8285B
 GVT           1 00000000 00000000 A   T    2101 2101
 HEXBAD        4 00000860 00000001     I    5307 5139B 5180B 5194B 5223B 5264B 5278B
 HEXMV         6 000001EE 00000001     I    3459 3417X
 HEXPTRS       4 00000000 FFFFFFE6     A    4948 5047M 5307
 HEXS         16 00000010 FFFFFFE8     C    3032 3302M 3304  3305M 3311  3319  3408M 3409M 3412  3422
 HEXSTR        2 00000770 00000001     H    4965 4961
 HEXTBL       16 00000690 00000001     C    4708 3409
 HEXW          4 0000000C FFFFFFE8     F    3031 3034  3407M 3408
 HEXWA        16 00000000 FFFFFFE6     J    4956 4992M 5005U 5328  5330  5331  7915
 HEXWORK       8 00000008 FFFFFFE6     D    4949 5077M 5088  5094M 5095M 5114M 5121M 5136  5145  5158  5177  5191  5220
                                                 5229  5242  5261  5275
 HIBAL         1 00000000 FFFFFFFF     J     698  714   727   740   753   766   779   792   805   818   831   844   857
                                                  870   883   896   909  2798
 HVPRD         4 00001476 00000001     I    8608 8602B
 IARMPVT       1 00000000 00000000 A   T    1976 1976
 IARMRRCE      1 00000000 00000000 A   T    2521 2521
 IARPIBR       1 00000000 00000000 A   T    2491 2491
 IARPSIV       1 00000000 00000000 A   T    2315 2315
 IARPSXM       1 00000000 00000000 A   T    2464 2464
 IARXKEY       1 00000000 00000000 A   T    2422 2422
 IARXVIO       1 00000000 00000000 A   T    2316 2316
 ICYMMVTC      1 00000000 00000000 A   T    2747 2747
1MISC     (MISC4072) (12:36) (15MAR04) Ordinary Symbol and Literal Cross Reference                                          Page   73
 IDA121CV      1 00000000 00000000 A   T    2254 2254
 IEABEND       1 00000000 00000000 A   T    1838 1838
 IEADQIQE      1 00000000 00000000 A   T    2234 2234
 IEAECVT       1 00000000 00000000 A   T    1763 1763
 IEAGSMQ       1 00000000 00000000 A   T    2211 2211
 IEAIHASU      1 00000000 00000000 A   T    2451 2451
 IEALSMQ       1 00000000 00000000 A   T    2213 2213
 IEAMASCB      1 00000000 00000000 A   T    2181 2181  2185
 IEAPATCH      1 00000000 00000000 A   T    1846 1846
 IEAPDSRT      1 00000000 00000000 A   T    2109 2109
 IEAPTRV       1 00000000 00000000 A   T    1925 1925
 IEAQCDSR      1 00000000 00000000 A   T    1829 1829
 IEAQCS01      1 00000000 00000000 A   T    2221 2221
 IEAQLPAQ      1 00000000 00000000 A   T    1830 1830
 IEAQTD00      1 00000000 00000000 A   T    1726 1726
 IEAQTE00      1 00000000 00000000 A   T    1724 1724
 IEARPOST      1 00000000 00000000 A   T    2236 2236
 IEASMFEX      1 00000000 00000000 A   T    2113 2113
 IEASMFSP      1 00000000 00000000 A   T    2459 2459
 IEASPOST      1 00000000 00000000 A   T    2256 2256
 IEASVDCB      1 00000000 00000000 A   T    1717 1717
 IEATCBP       1 00000000 00000000 A   T    1667 1667
 IEATPC        1 00000000 00000000 A   T    1719 1719
 IEATRSCN      1 00000000 00000000 A   T    2077 2077
 IEAVAR02      1 00000000 00000000 A   T    2161 2161
 IEAVBLDP      1 00000000 00000000 A   T    2145 2145
 IEAVDELP      1 00000000 00000000 A   T    2148 2148
 IEAVEAC0      1 00000000 00000000 A   T    2238 2238
 IEAVEADV      1 00000000 00000000 A   T    2396 2396
 IEAVEDR1      1 00000000 00000000 A   T    2281 2281
 IEAVELRM      1 00000000 00000000 A   T    2230 2230
 IEAVENLU      1 00000000 00000000 A   T    2577 2577
 IEAVENQ2      1 00000000 00000000 A   T    2227 2227
 IEAVEQV1      1 00000000 00000000 A   T    2384 2384
 IEAVEQV2      1 00000000 00000000 A   T    2387 2387
 IEAVEQV3      1 00000000 00000000 A   T    2390 2390
 IEAVERI1      1 00000000 00000000 A   T    2283 2283
 IEAVERP1      1 00000000 00000000 A   T    2285 2285
 IEAVERX1      1 00000000 00000000 A   T    2473 2473
 IEAVESC1      1 00000000 00000000 A   T    2412 2412
 IEAVESPR      1 00000000 00000000 A   T    2341 2341
 IEAVESTU      1 00000000 00000000 A   T    2575 2575
 IEAVESVT      1 00000000 00000000 A   T    2347 2347
 IEAVET6E      1 00000000 00000000 A   T    2447 2447
 IEAVEVT2      1 00000000 00000000 A   T    2401 2401
 IEAVEXPR      1 00000000 00000000 A   T    2209 2209
 IEAVEXP1      1 00000000 00000000 A   T    2378 2378
 IEAVFRCL      1 00000000 00000000 A   T    2147 2147
 IEAVGSDA      1 00000000 00000000 A   T    2392 2392
 IEAVGTCL      1 00000000 00000000 A   T    2146 2146
 IEAVGWSA      1 00000000 00000000 A   T    2241 2241
 IEAVLKRM      1 00000000 00000000 A   T    1948 1948
 IEAVMFRM      1 00000000 00000000 A   T    2326 2326
 IEAVMSGS      1 00000000 00000000 A   T    1895 1895
 IEAVNVT0      1 00000000 00000000 A   T    2560 2560
 IEAVRSUH      1 00000000 00000000 A   T    2439 2439
 IEAVRT03      1 00000000 00000000 A   T    2053 2053
 IEAVSPND      1 00000000 00000000 A   T    2449 2449
 IEAVSTAG      1 00000000 00000000 A   T    2189 2189
1MISC     (MISC4072) (12:36) (15MAR04) Ordinary Symbol and Literal Cross Reference                                          Page   74
 IEAVTCTL      1 00000000 00000000 A   T    2441 2441
 IEAVTEST      1 00000000 00000000 A   T    1952 1952
 IEAVTRGR      1 00000000 00000000 A   T    2249 2249
 IEAVTRG1      1 00000000 00000000 A   T    1698 1698
 IEAVTRV3      1 00000000 00000000 A   T    1945 1945
 IEAVTSBP      1 00000000 00000000 A   T    2195 2195
 IEAVTSFR      1 00000000 00000000 A   T    1916 1916
 IEAVTSGL      1 00000000 00000000 A   T    2193 2193
 IEAVVMSR      1 00000000 00000000 A   T    1974 1974
 IEAVWAIT      1 00000000 00000000 A   T    2216 2216
 IEAVWSAC      1 00000000 00000000 A   T    2247 2247
 IEAVWSAG      1 00000000 00000000 A   T    2245 2245
 IEAVWSAL      1 00000000 00000000 A   T    2243 2243
 IEAVXEXT      1 00000000 00000000 A   T    2324 2324
 IEAVXSFT      1 00000000 00000000 A   T    2291 2291
 IEAVXSTN      1 00000000 00000000 A   T    2297 2297
 IEAVXSTS      1 00000000 00000000 A   T    2295 2295
 IEAVXUNN      1 00000000 00000000 A   T    2320 2320
 IEAVXUNS      1 00000000 00000000 A   T    2299 2299
 IEAWTCB       1 00000000 00000000 A   T    2356 2356
 IEA0DS        1 00000000 00000000 A   T    1762 1762
 IEA0EF00      1 00000000 00000000 A   T    1668 1668
 IEA0EF01      1 00000000 00000000 A   T    1708 1708
 IEA0PT0E      1 00000000 00000000 A   T    2428 2428
 IEA0PT01      1 00000000 00000000 A   T    1769 1769
 IEA0PT02      1 00000000 00000000 A   T    2353 2353
 IEA0PT03      1 00000000 00000000 A   T    2430 2430
 IEA0VL00      1 00000000 00000000 A   T    1679 1679
 IEA0VL01      1 00000000 00000000 A   T    2086 2086
 IECIXAVL      1 00000000 00000000 A   T    1754 1754
 IECPCNVT      1 00000000 00000000 A   T    1682 1682
 IECPRLTV      1 00000000 00000000 A   T    1686 1686
 IECVEXCL      1 00000000 00000000 A   T    2318 2318
 IECXAPG       1 00000000 00000000 A   T    1677 1677
 IECXITP       1 00000000 00000000 A   T    1707 1707
 IECXTLER      1 00000000 00000000 A   T    1693 1693
 IEC0SCR1      1 00000000 00000000 A   T    1852 1852
 IEECUCB       1 00000000 00000000 A   T    1723 1723
 IEEMSER       1 00000000 00000000 A   T    1701 1701  1767
 IEEVEXSN      1 00000000 00000000 A   T    2056 2056
 IEEVSTOP      1 00000000 00000000 A   T    2366 2366
 IEFAQTOP      1 00000000 00000000 A   T    2173 2173
 IEFAUSDM      1 00000000 00000000 A   T    1673 1673
 IEFENFDM      1 00000000 00000000 A   T    1832 1832
 IEFJESCT      1 00000000 00000000 A   T    1932 1932
 IEFLINK       1 00000000 00000000 A   T    1670 1670
 IEFQMWR       1 00000000 00000000 A   T    1783 1783
 IEWFBOSV      1 00000000 00000000 A   T    1760 1760
 IEWMSEPT      1 00000000 00000000 A   T    2265 2265
 IFBDCB        1 00000000 00000000 A   T    1749 1749
 IFDOLT0A      1 00000000 00000000 A   T    2111 2111
 IFGDEBVR      1 00000000 00000000 A   T    2742 2742
 IGC043BR      1 00000000 00000000 A   T    2157 2157
 IGC044R2      1 00000000 00000000 A   T    2267 2267
 IGC062R1      1 00000000 00000000 A   T    2237 2237
 IGC07903      1 00000000 00000000 A   T    2382 2382
 IGC124        1 00000000 00000000 A   T    2398 2398
 IGFRVT        1 00000000 00000000 A   T    1847 1847
 IGVCPBDB      1 00000000 00000000 A   T    2513 2513
1MISC     (MISC4072) (12:36) (15MAR04) Ordinary Symbol and Literal Cross Reference                                          Page   75
 IGVCPDLB      1 00000000 00000000 A   T    2515 2515
 IGVCPFRE      1 00000000 00000000 A   T    2505 2505
 IGVCPGTC      1 00000000 00000000 A   T    2503 2503
 IGVCPGUB      1 00000000 00000000 A   T    2497 2497
 IGVCPGUP      1 00000000 00000000 A   T    2500 2500
 IGVCPGUS      1 00000000 00000000 A   T    2523 2523
 IGVGCAS       1 00000000 00000000 A   T    2151 2151
 IGVGFAS       1 00000000 00000000 A   T    2155 2155
 IGVGRRGN      1 00000000 00000000 A   T    2527 2527
 IGVGVRGN      1 00000000 00000000 A   T    2529 2529
 IGVQSPET      1 00000000 00000000 A   T    2153 2153
 IGVSLIST      1 00000000 00000000 A   T    2507 2507
 IGVSLOC       1 00000000 00000000 A   T    2511 2511
 IGVSREGN      1 00000000 00000000 A   T    2509 2509
 IGVSTSKI      1 00000000 00000000 A   T    2494 2494
 IHB0881A      2 00000438 00000001     H    4168 4160B
 IHB0881K      4 0000041C 00000001     F    4161 4156
 IHB0954A      2 000004E4 00000001     H    4323 4315B
 IHB0954K      4 000004C8 00000001     F    4316 4311
 IHB1027A      2 0000058C 00000001     H    4476 4468B
 IHB1027K      4 00000570 00000001     F    4469 4464
 IHB1101A      2 00000630 00000001     H    4628 4620B
 IHB1101K      4 00000614 00000001     F    4621 4616
 ILLPS         4 00001232 00000001     I    8296 8280B
 ILLSTR        2 000010D2 00000001     I    8172 8675B
 ILRJTERM      1 00000000 00000000 A   T    2436 2436
 INP           4 000011E8 00000001     I    8270 8259B
 INTGRCV       4 00001422 00000001     I    8584 8520B
 IOSVDEVN      1 00000000 00000000 A   T    2453 2453
 IOSVHID       1 00000000 00000000 A   T    2463 2463
 IOSVSUCB      1 00000000 00000000 A   T    2466 2466
 IRARMCNS      1 00000000 00000000 A   T    2207 2207
 IRARMEPS      1 00000000 00000000 A   T    2425 2425
 IRARMI00      1 00000000 00000000 A   T    2164 2164
 ISNBRNCH      1 00000000 00000000 A   T    2322 2322
 ISOLAT        4 00001164 00000001     I    8226 8252B 8290B
 KW            8 00000004 FFFFFFE3     C    7987 8315M 8316M 8316  8365M 8402  8423  8521  8678M 8679M 8679  8687
 KWFND         4 0000131C 00000001     I    8439 8383B 8391B 8410B 8431B
 KWNEX         4 000012B4 00000001     I    8381 8433B 8435B
 KWSRCH        4 000012B8 00000001     I    8382 8377B 8437B 8465B 8494B 8503B 8506B
 LEN           4 0000000C FFFFFFE3     A    7988 8020M 8037  8142  8187M 8196M 8306  8311M 8663  8682  8685M
 LINNOCV       4 00001452 00000001     I    8597 8519B
 LOC           4 00000010 FFFFFFE3     A    7989 8175  8184  8195  8203  8214  8240  8260  8296  8298  8307M
 LOCALTOD      2 0000027E 00000001     H    3670 3666
 LOWTBL        1 00000000 00000000 A   T    1011 1262
 LPAR          4 000011B8 00000001     I    8256 8161B
 LPAR1ST       4 000011D8 00000001     I    8265 8261B
 LRTRIM        2 000019E2 00000001     H    9076 9072
 LS            1 00000084 00000001 A   U    7974 8526  8555M 9643
 LSR          12 0000000C 00000001 A   #    2914 3084  3104  3148M 3169  3189  3241M 3263  3284  3345M 3371  3392  3452M
                                                 3476  3497  3622M 3677  3697  3791M 3822  3842  3901M 3934  3954  4080M
                                                 4112  4133  4236M 4266  4287  4391M 4421  4442  4542M 4574  4595  4699M
                                                 4763  4783  4920M 4973  4994  5328M 5363  5383  5690M 5833  5853  5903M
                                                 5924  5944  5986M 6011  6031  6068M 6093  6113  6150M 6175  6195  6343M
                                                 6369  6389  6488M 6513  6533  6625M 6658  6678  6782M 6802  6822  7180M
                                                 7209  7229  7325M 7353  7373  7487M 7516  7536  7614M 7677  7697  7768M
                                                 7796  7816  7887M 7974  8073  8094  8528M 8528  8535  8535M 8714M 8972
                                                 8992  9056M 9083  9103  9208M 9239  9259  9343M 9374  9394  9478M 9509
                                                 9529  9613M
1MISC     (MISC4072) (12:36) (15MAR04) Ordinary Symbol and Literal Cross Reference                                          Page   76
 MILMISC       1 00000000 00000001     J    2802 2804  2820  2832  2845  2858  2871  2884  2897  2910  2922  2944  2957
                                                 2971  3016  3047  3067  3600
 MISC4072      1 00000000 00000001     R    2981 2979
 MRECH         4 0000127E 00000001     I    8328 8330B
 MVFR          6 000014D2 00000001     I    8638 8627X
 MVS           2 00001174 00000001     I    8230 8225B 8251B
 NBLTBL        1 00000000 00000000 A   T    1011 1266
 NOTKWPS       4 000013D2 00000001     I    8522 8619B
 NPARTBL       1 00000000 00000000 A   T    1011 1260
 NR            5 00000005 00000001 A   #    2863 8142M 8147  8148M 8148  8153M 8155  8172M 8172  8187  8194M 8195M 8196
                                                 8219M 8220M 8230M 8245M 8246M 8286M 8287M 8291M 8292M 8299M 8306M 8310M
                                                 8311  8631M 8634  8644M 8654M 8656  8663M 8669M 8669  8685
 NTCMV         4 000013CE 00000001     I    8521 8515B 8517B
 NTRSET        2 00001494 00000001     I    8617 8590B 8594B 8632B 8641B
 NXTRY         4 00001304 00000001     I    8432 8387B 8412B 8414B 8667B
 NXTRY1        4 00001396 00000001     I    8505 8500B
 PCNT          2 00000020 FFFFFFE4     H    7943 8267M 8270  8272M 8281  8283M
 PR            6 00000006 00000001 A   #    2876 8142M 8173M 8186M 8187  8219  8222M 8231M 8245  8248M 8286  8289M 8292
                                                 8293M 8300M 8301M 8306M 8308  8313  8592M 8600M 8604M 8645M 8663M 8685
 PRKW          2 0000129C 00000001     I    8373 8325B
 PRT           4 00000018 FFFFFFE3     A    7991 8140M 8375  8525M 8533M 8577  8579M
 QABBRV        4 000012EC 00000001     I    8411 8393B
 RA            4 00000014 FFFFFFE3     A    7990 8139M 8378  8534  8686
 RAR          14 0000000E 00000001 A   #    2949 1441B 1451B 3081  3150M 3153B 3166  3243M 3246B 3260  3347M 3350B 3368
                                                 3454M 3457B 3473  3624M 3628B 3674  3793M 3797B 3819  3854M 3861M 3868M
                                                 3903M 3907B 3931  3973M 3980M 3991M 3997M 4082M 4086B 4109  4238M 4242B
                                                 4263  4393M 4397B 4418  4544M 4548B 4571  4701M 4705B 4760  4922M 4925B
                                                 4970  5330M 5334B 5360  5692M 5696B 5830  5905M 5909B 5921  5988M 5992B
                                                 6008  6039M 6053M 6054M 6054B 6070M 6074B 6090  6121M 6135M 6136M 6136B
                                                 6152M 6156B 6172  6203M 6237M 6238M 6238  6244M 6244B 6274M 6275M 6275B
                                                 6307M 6308M 6308  6315M 6315B 6345M 6349B 6366  6410M 6464M 6465M 6465B
                                                 6490M 6494B 6510  6541M 6573M 6574M 6574  6580M 6580B 6627M 6631B 6655
                                                 6784M 6788B 6799  6875M 6876M 6876  6883M 6883B 6980M 6981M 6981  6988M
                                                 6988B 7144M 7145M 7145  7152M 7152B 7182M 7187B 7206  7305M 7306M 7306B
                                                 7327M 7331B 7350  7436M 7437M 7437B 7467M 7468M 7468B 7489M 7493B 7513
                                                 7571M 7572M 7572  7579M 7579B 7616M 7620B 7655B 7674  7727M 7728M 7728B
                                                 7748M 7749M 7749B 7770M 7774B 7793  7846M 7847M 7847B 7867M 7868M 7868B
                                                 7889M 7893B 8028B 8038B 8049B 8070  8139  8530M 8530B 8716M 8720B 8969
                                                 9058M 9062B 9080  9210M 9214B 9236  9345M 9349B 9371  9480M 9484B 9506
                                                 9615M 9619B
 REDITWA      17 00000020 FFFFFFE8     C    3039 3520  3522M 3523M 3524M 3559  3559  3576  3576
 RMBRANCH      1 00000000 00000000 A   T    2332 2332
 RPAR          4 000011F8 00000001     I    8277 8162B
 RR            4 00000004 00000001 A   #    2850 8141M 8141  8373M 8373  8378M 8447M 8463M 8464M 8464  8493  8509M 8510
                                                 8524  8576M 8576  8662M 8662  8683M 8683
 RTN           4 00001562 00000001     I    8685 8178B 8302B 8670B
 RTRIM         2 00001998 00000001     H    8965 8961
 R0            0 00000000 FFFFFFFF A   #     706 1442M 1443M 1444  1446M 1447  3114M 3114  3132M 3199M 3199  3224M 3314M
                                                 3314  3316M 3316  3317M 3318  3410  3429M 3518  3547M 3559M 3560M 3577
                                                 3582  3704M 3745M 3747M 3748M 3757M 3764M 3769M 3851  3857M 3864M 3886M
                                                 3963  3977M 3988M 3994M 4030M 4062M 4148  4215M 4302  4370M 4522M 4610
                                                 4652M 4673M 4673  4800  4845M 4847M 4851  4887M 4901M 4901  5041M 5047
                                                 5071M 5071  5077  5098M 5116M 5301M 5302  5307M 5569M 5570M 5575  5663M
                                                 5663  5880  5964  6044M 6126M 6226M 6265M 6297M 6297  6329  6455M 6455
                                                 6562M 6658  6678  6706M 6706  6714  6758M 6782M 6802  6822  6901M 6901
                                                 6913  6915M 6917  6924M 6936  6951M 6952M 6952  6965M 7001M 7001  7014M
                                                 7014  7054M 7061  7079M 7086M 7087M 7088M 7094M 7095M 7103M 7113  7115M
                                                 7121  7122M 7123M 7125M 7134M 7180M 7186  7250M 7262  7269M 7274M 7287M
                                                 7393  7427M 7458M 8020  8037M 8174M 8176M 8177M 8177  8296M 8297M 8299
1MISC     (MISC4072) (12:36) (15MAR04) Ordinary Symbol and Literal Cross Reference                                          Page   77
                                                 8301  8312M 8314  8326  8413  8512  8529M 8529  8587M 8587  8591  8597
                                                 8605M 8608M 8609M 8612  8615M 8616M 8617  8618M 8621  8624  8628M 8633
                                                 8634M 8640M 8640  8642  8644  8651M 8657M 8664M 8668M 8668  8676M 8676
                                                 8682M 8719M 8719  8999  9014M 9014  9037M 9121M 9121  9143M 9151  9166M
                                                 9166  9189M 9239  9259  9277M 9277  9283  9324M 9343M 9374  9394  9412M
                                                 9412  9418  9459M 9478M 9509  9529  9547M 9547  9553  9594M 9613M
 R1            1 00000001 FFFFFFFF A   #     719 3130M 3222M 3304M 3309M 3312  3313M 3515  3520M 3521M 3541M 3560  3576M
                                                 3577M 3602M 3704M 3852  3858M 3865M 3879M 3964  3976  3978M 3989M 3992
                                                 3995M 4008  4023M 4055M 4148  4208M 4302  4363M 4515M 4610  4653M 4675M
                                                 4675  4848  4850M 5040M 5047  5096M 5115M 5300M 5307M 5499M 5570  5665M
                                                 5665  5881  6043M 6125M 6225M 6264M 6561M 6712M 6713  6730  6757  6916
                                                 6948M 7015M 7053M 7055M 7061M 7062  7072M 7072  7085  7124M 7422M 7453M
                                                 7711  7724M 7830  7843M 8019M 8020  8034M 8035M 8036  8037M 8044M 8045
                                                 8046M 8047M 8140  8147M 8173  8174  8175M 8176  8184  8194  8203  8205M
                                                 8214  8220  8221M 8222  8240  8246  8247M 8248  8260  8287  8288M 8289
                                                 8291  8297  8298M 8307  8308M 8310  8312  8313M 8327  8512  8579  8600
                                                 8618M 8629M 8635M 8645  8650M 8652M 8653M 8664M 8677M 8677  8682M 8998
                                                 9141M 9150  9323M 9458M 9593M
 R12          12 0000000C FFFFFFFF A   #     862 2963  2963
 R13          13 0000000D FFFFFFFF A   #     875 3295U 3403U 3508U 4144U 4298U 4453U 4606U 5005U 8105U
 R14          14 0000000E FFFFFFFF A   #     888 7016M 7054M 7087M 8466M 8467  8468M 8480  8492  8498M 8499M 8501  8502
                                                 8510M 8524M 8584M 8614M 8624M 8625M 8627  8630M 8658B 8686M
 R15          15 0000000F FFFFFFFF A   #     901 1439M 1440M 1440  1442  1447M 1450M 1450  3113M 3113  3128M 3129M 3198M
                                                 3198  3220M 3221M 3301  3306M 3306  3407  3516  3533M 3533  3627M 3627
                                                 3796M 3796  3848  3859M 3866M 3906M 3906  3960  3971M 3976M 4085M 4085
                                                 4150  4186M 4186  4241M 4241  4304  4341M 4341  4396M 4396  4457  4493M
                                                 4493  4547M 4547  4646M 4646  4704M 4704  4749M 4850  4892M 5049  5302M
                                                 5308M 5333M 5333  5635M 5641M 5641  5666M 5695M 5695  5868U 5908M 5908
                                                 5959U 5991M 5991  6037  6050M 6073M 6073  6119  6132M 6155M 6155  6201
                                                 6227M 6271M 6279M 6279  6293M 6329M 6348M 6348  6395  6461M 6493M 6493
                                                 6539  6563M 6602M 6602  6630M 6630  6684  6787M 6787  6828  6970M 7026M
                                                 7027M 7027  7044  7056M 7062M 7063  7079  7085M 7120M 7123  7133M 7186M
                                                 7235  7302M 7330M 7330  7379  7433M 7464M 7492M 7492  7542  7619M 7619
                                                 7639U 7703  7711M 7745M 7773M 7773  7822  7830M 7864M 7892M 7892  8014U
                                                 8126  8151M 8152M 8152  8314M 8342  8349M 8356M 8358  8392  8416  8513
                                                 8521M 8522  8523M 8533  8534  8575  8599M 8599  8603M 8609  8611M 8611
                                                 8616  8617M 8631  8633M 8666M 8687M 8688  8689M 9061M 9061  9213M 9213
                                                 9283M 9286  9298M 9305M 9307  9348M 9348  9418M 9421  9433M 9440M 9442
                                                 9483M 9483  9553M 9556  9568M 9575M 9577  9618M 9618
 R2            2 00000002 FFFFFFFF A   #     732 3125M 3127M 3129  3206M 3212M 3219M 3221  3319M 3320M 3412M 3413M 3422M
                                                 3424M 3428M 3517M 3518M 3519  3521  3582M 3585M 3587  3705M 3715U 3721M
                                                 3739U 3994  5146M 5200M 5205  5230M 5284M 5289  5363  5383  5405M 5422M
                                                 5422  5473M 5490M 5490  5513M 5513  5562M 5572  5575M 5578  5590M 5598M
                                                 5607M 5607  5614  5690M 6713M 6714M 6716M 6730  6751M 6757M 6916M 7125M
                                                 7710M 7724  7829M 7843  8972  8992  9056M 9083  9103  9208M 9265M 9400M
                                                 9535M
 R3            3 00000003 FFFFFFFF A   #     745 3311M 3312M 3317  3318M 3320  3323M 3325  3410M 3413  3415M 3417  3423M
                                                 3427M 3519M 3995  5059M 5059  5145M 5205M 5291M 5292M 5293  5406M 5471M
                                                 5499  5560M 5569  5573  6917M 7088  7094  7113M 7124
 R4            4 00000004 FFFFFFFF A   #     758 3303M 3313  3851M 3857  3864  3963M 3977  3988  4848M 4906M 5057M 5057
                                                 5229M 5289M 5292
 R5            5 00000005 FFFFFFFF A   #     771 3515M 3602  3852M 3858  3865  3964M 3978  3989  3992M 4008  4851M 4862M
                                                 4862  4885M 4895M 5053M 5053  5293  5294M 5301  6892M 6892  6923M 6923
                                                 7112M 7134  7393M 7407  7438M 7458
 R6            6 00000006 FFFFFFFF A   #     784 2992U 3299M 3300M 3513M 3514M 3848M 3855  3960M 4150M 4194  4304M 4457M
                                                 4458  4501  4849M 4883M 4893M 5049M 5300  6037M 6050  6119M 6132  6201M
                                                 6214U 6227  6271  6293  6395M 6405U 6461  6539M 6551U 6563  6684M 6694U
                                                 6828M 6838U 6970  7133  7235M 7245U 7302  7379M 7389U 7433  7464  7542M
                                                 7552U 7703M 7745  7822M 7864  8998M 8999M 9001M 9035M 9150M 9151M 9153M
1MISC     (MISC4072) (12:36) (15MAR04) Ordinary Symbol and Literal Cross Reference                                          Page   78
                                                 9187M
 SA           80 00000000 FFFFFFE4     J    7960 7974  8092M 8105U 8714  8716  8717  9640
 SCAN          2 00001048 00000001     H    8065 8061
 SCANCB       32 00000000 FFFFFFE3     J    8003 8014U 8135U 8533M 8534
 SCANCBR      12 0000000C 00000001 A   #    2902 8126M 8135U 8523  8575M 8689
 SCANCN        4 00001070 00000001     I    8142 8454B 8511B 8578B 8580B
 SCANON        4 00001086 00000001     I    8147 8145B 8188B 8229B 8232B 8294B
 SCANTOK       2 0000087C 00000001     H    5356 5352
 SCINIT        4 0000100E 00000001     I    8019 8018
 SCTELL        4 0000101E 00000001     I    8034 8033
 SCTYPE        4 00001030 00000001     I    8044 8043
 SEG           2 00000BE0 00000001     H    6795 6039B 6203B 6410B 6541B 6791
 SEG           1 00000000 00000002     T    7906 7906
 SEGB          2 000009C8 00000001     H    6004 6000
 SEGBLANK      2 00000D5A 00000001     H    7346 7342
 SEGBLANK      1 00000000 00000004     T    7910 7910
 SEGCB        60 00000000 FFFFFFE5     J    5801 5868U 5879M 5879  5959U 6214U 6405U 6551U 6694U 6838U 7245U 7389U 7552U
                                                 7639U
 SEGCBCLR      3 00000000 FFFFFFE5         5741 7561M
 SEGCBCOD      1 00000000 FFFFFFE5     R    5712 5721  5731  5741  5751  5761  5771  5781
 SEGCBCR       6 00000000 FFFFFFE5         5771 6224M
 SEGCBINDF
               4 00000010 FFFFFFE5     A    5788 7026  7056
 SEGCBLENF
               4 0000000C FFFFFFE5     A    5787 6226  6285  6423M 6423  6438  6562  6581M 6924  6965  7015  7055  7063M
                                                 7095  7120  7121M 7274  7590M 7590  7646
 SEGCBLOC      4 00000020 FFFFFFE5     A    5791 5881M 6225  6561  6948  7016  7086  7122
 SEGCBMAXF
               4 00000004 FFFFFFE5     A    5785 5880M 6913  6915  6936  7044  7103  7115  7262  7269
 SEGCBMRKF
               4 00000008 FFFFFFE5     A    5786 6285M 6438  6582M 6951  7013M 7013  7595M 7595  7646M
 SEGCBOVF      5 00000000 FFFFFFE5         5761 6947M
 SEGCBRTN      4 00000024 FFFFFFE5     A    5792 5964M 6237  6307  6573  6875  6980  7144  7571
 SEGCBSEG      1 00000000 FFFFFFE5         5721 6865M
 SEGCBSPP      4 00000000 FFFFFFE5         5751 6292M 7132M
 SEGCBWR       2 00000000 FFFFFFE5         5731 6560M
 SEGCCR        2 00000AD0 00000001     H    6362 6358
 SEGCLR        2 00000EBA 00000001     H    7509 7505
 SEGCOL        2 00000D08 00000001     H    7202 7198
 SEGCOM        2 00000BFC 00000001     I    6845 6763B
 SEGCR         2 00000A50 00000001     H    6168 6164
 SEGCR         1 00000000 00000003     T    7907 7907
 SEGDC         2 00000F0E 00000001     H    7670 7666
 SEGDO         4 00000CCE 00000001     I    7120 7080B 7106B
 SEGEXIT       2 00000CE0 00000001     H    7128 6904B 7114B
 SEGHX         2 00000F68 00000001     H    7789 7785
 SEGINIT       2 0000095A 00000001     H    5826 5822
 SEGINITR      2 00000996 00000001     H    5917 5913
 SEGMARK       2 00000F06 00000001     H    7643 7629
 SEGRETRY      2 00000C26 00000001     H    6921 7089B
 SEGT          2 00000B82 00000001     H    6651 6121B 6647
 SEGTB         2 00000A0C 00000001     H    6086 6082
 SEGWR         2 00000B22 00000001     H    6506 6502
 SEMI          4 00001100 00000001     I    8192 8164B
 SETSR         4 0000139E 00000001     I    8508 8374B 8684B
 SLASH         4 00001116 00000001     I    8201 8163B
 SPR          13 0000000D 00000001 A   #    2927 3081  3084  3100M 3102  3102  3103  3103  3104  3145M 3145  3148  3150
                                                 3152  3152  3166  3169  3185M 3187  3187  3188  3188  3189  3238M 3238
                                                 3241  3243  3245  3245  3260  3263  3280M 3282  3282  3283  3283  3284
1MISC     (MISC4072) (12:36) (15MAR04) Ordinary Symbol and Literal Cross Reference                                          Page   79
                                                 3341M 3341  3345  3347  3349  3349  3368  3371  3388M 3390  3390  3391
                                                 3391  3392  3448M 3448  3452  3454  3456  3456  3473  3476  3493M 3495
                                                 3495  3496  3496  3497  3618M 3618  3622  3624  3626  3626  3674  3677
                                                 3693M 3695  3695  3696  3696  3697  3788M 3788  3791  3793  3795  3795
                                                 3819  3822  3838M 3840  3840  3841  3841  3842  3898M 3898  3901  3903
                                                 3905  3905  3931  3934  3950M 3952  3952  3953  3953  3954  3967M 3969
                                                 3969  3970  3970  3971  3983M 3983  3986  3986  4077M 4077  4080  4082
                                                 4084  4084  4109  4112  4129M 4131  4131  4132  4132  4133  4232M 4232
                                                 4236  4238  4240  4240  4263  4266  4283M 4285  4285  4286  4286  4287
                                                 4387M 4387  4391  4393  4395  4395  4418  4421  4438M 4440  4440  4441
                                                 4441  4442  4538M 4538  4542  4544  4546  4546  4571  4574  4591M 4593
                                                 4593  4594  4594  4595  4695M 4695  4699  4701  4703  4703  4760  4763
                                                 4779M 4781  4781  4782  4782  4783  4917M 4917  4920  4922  4924  4924
                                                 4970  4973  4990M 4992  4992  4993  4993  4994  5324M 5324  5328  5330
                                                 5332  5332  5360  5363  5379M 5381  5381  5382  5382  5383  5687M 5687
                                                 5690  5692  5694  5694  5830  5833  5849M 5851  5851  5852  5852  5853
                                                 5900M 5900  5903  5905  5907  5907  5921  5924  5940M 5942  5942  5943
                                                 5943  5944  5983M 5983  5986  5988  5990  5990  6008  6011  6027M 6029
                                                 6029  6030  6030  6031  6065M 6065  6068  6070  6072  6072  6090  6093
                                                 6109M 6111  6111  6112  6112  6113  6147M 6147  6150  6152  6154  6154
                                                 6172  6175  6191M 6193  6193  6194  6194  6195  6340M 6340  6343  6345
                                                 6347  6347  6366  6369  6385M 6387  6387  6388  6388  6389  6485M 6485
                                                 6488  6490  6492  6492  6510  6513  6529M 6531  6531  6532  6532  6533
                                                 6622M 6622  6625  6627  6629  6629  6655  6658  6674M 6676  6676  6677
                                                 6677  6678  6779M 6779  6782  6784  6786  6786  6799  6802  6818M 6820
                                                 6820  6821  6821  6822  7177M 7177  7180  7182  7184  7184  7206  7209
                                                 7225M 7227  7227  7228  7228  7229  7322M 7322  7325  7327  7329  7329
                                                 7350  7353  7369M 7371  7371  7372  7372  7373  7484M 7484  7487  7489
                                                 7491  7491  7513  7516  7532M 7534  7534  7535  7535  7536  7611M 7611
                                                 7614  7616  7618  7618  7674  7677  7693M 7695  7695  7696  7696  7697
                                                 7706M 7708  7708  7709  7709  7710  7751M 7751  7754  7754  7765M 7765
                                                 7768  7770  7772  7772  7793  7796  7812M 7814  7814  7815  7815  7816
                                                 7825M 7827  7827  7828  7828  7829  7870M 7870  7873  7873  7884M 7884
                                                 7887  7889  7891  7891  8070  8073  8090M 8092  8092  8093  8093  8094
                                                 8526M 8526  8527  8527  8528  8534  8535  8553M 8555  8555  8556  8556
                                                 8710M 8710  8714  8716  8718  8718  8969  8972  8988M 8990  8990  8991
                                                 8991  8992  9053M 9053  9056  9058  9060  9060  9080  9083  9099M 9101
                                                 9101  9102  9102  9103  9205M 9205  9208  9210  9212  9212  9236  9239
                                                 9255M 9257  9257  9258  9258  9259  9340M 9340  9343  9345  9347  9347
                                                 9371  9374  9390M 9392  9392  9393  9393  9394  9475M 9475  9478  9480
                                                 9482  9482  9506  9509  9525M 9527  9527  9528  9528  9529  9610M 9610
                                                 9613  9615  9617  9617
 SQUOTE        4 0000112E 00000001     I    8210 8159B
 SR            2 00000002 00000001 A   #    2824 8266M 8267  8270M 8271M 8272  8281M 8282M 8283  8284M 8284  8326M 8330M
                                                 8375M 8376M 8376  8381M 8436M 8453  8462M 8467  8493M 8502M 8505M 8508M
                                                 8514M 8514
 STCKCVCK      8 00000000 FFFFFFE9     X    3006 4148M 4158  4302M 4313  4466  4610M 4618
 STCKCVVL     16 00000008 FFFFFFE9     C    3007 4174  4193  4329  4348  4482  4500  4634  4652  4653
 STCKCVWA     56 00000000 FFFFFFE9     J    3015 4131M 4144U 4236  4238  4239  4285M 4298U 4391  4393  4394  4440M 4453U
                                                 4542  4544  4545  4593M 4606U 4699  4701  4702  4727
 STCKEDIT     32 00000018 FFFFFFE9     X    3008 4192M 4193M 4194  4347M 4348M 4349  4499M 4500M 4501
 SV15          4 00000008 FFFFFFE4     F    7940 8513M 8666
 TEMPD         4 00000014 FFFFFFE4     F    7942 8440M 8447  8591M 8593  8623M 8629  8638M 8652
 TIMEDATE      2 000005DC 00000001     H    4566 3991B 3997B 4562
 TOASCII       2 00001AF4 00000001     H    9502 9498
 TOEBCDIC      2 00001A44 00000001     H    9232 9228
 TOEBC7        2 00001A9C 00000001     H    9367 9363
 TOKEN         4 00001248 00000001     I    8306 8171B 8185B 8197B 8204B 8206B 8215B 8223B 8227B 8241B 8249B 8263B
 TR            3 00000003 00000001 A   #    2837 8327M 8329M 8381  8384M 8385M 8388M 8388  8392  8395  8436  8453  8508M
1MISC     (MISC4072) (12:36) (15MAR04) Ordinary Symbol and Literal Cross Reference                                          Page   80
                                                 8592
 TRT           6 000010C4 00000001     I    8165 8155X
 TSTLAST       4 00001344 00000001     I    8456 8450B
 UPPTBL        1 00000000 00000000 A   T    1011 1261
 VAL           4 00000000 FFFFFFE3     A    7986 8036M 8522M 8688M
 WA           49 00000000 FFFFFFE8     J    3046 3282M 3295U 3345  3347  3348  3390M 3403U 3452  3454  3455  3495M 3508U
                                                 3622  3624  3625  4725
 WAP          40 00000028 FFFFFFE4     X    7953 8502  9631
 WAPC          4 00000024 FFFFFFE4     F    7952 8323M 8323  8466  8467M 8492M 8498  8501M
 WHOL          2 0000147A 00000001     I    8609 8606B
 WHOLDO        4 00001482 00000001     I    8612 8636B
 WORD          4 00000000 FFFFFFE4     F    7939 8453M 8508
 XTB           2 00000076 00000001     H    3162 3158
 XTBB          4 000000CA 00000001     I    3220 3213B
 XTBL          2 00000092 00000001     I    3199 3225B
 XTBN          4 000000B6 00000001     I    3215 3209B 3211B
 XTBX          2 000000DA 00000001     H    3230 3200B 3216B 3218B
 =A(BASE)      4 00001B60 00000001     A    9632 8561
 =A(C'A'-10)
               4 000006A4 00000001     A    4718 3212
 =A(C'0')      4 000006A0 00000001     A    4717 3127  3219
 =A(L'BLANKS)
               4 00000FE8 00000001     A    7911 7407
 =A(L'CVTOKEN)
               4 00000FD0 00000001     A    7905 5578  5590
 =A(L'WAP)
               4 00001B5C 00000001     A    9631 8480
 =A(X'40000000')
               4 00000FE0 00000001     A    7909 7053
 =A(1)         4 000006B0 00000001     A    4721 3764
 =A(1)         4 00000FCC 00000001     A    7904 5471  5560
 =A(2)         4 00000FC8 00000001     A    7903 4800
 =A(256)       4 00001B74 00000001     A    9637 9286  9298  9421  9433  9556  9568
 =A(4)         4 00001B50 00000001     A    9628 8144  8621
 =A(5)         4 00001B68 00000001     A    9634 8612
 =A(8)         4 00001B54 00000001     A    9629 8342  8642
 =A(9)         4 00001B64 00000001     A    9633 8597
 =AL2(L'BLANKS)
               2 00001002 00000001     R    7921 7438
 =C'  '        2 00000FFA 00000001     C    7917 5121
 =C' '         1 00001006 00000001     C    7923 6043  6125
 =C'00'        2 00001B8A 00000001     C    9645 8623
 =F'-8'        4 000006AC 00000001     F    4720 3514
 =F'-8'        4 00001B6C 00000001     F    9635 8653
 =F'0'         4 00000FDC 00000001     F    7908 6581  6582
 =H'-1'        2 00000FFC 00000001     H    7918 5308
 =H'-4'        2 00001000 00000001     H    7920 7112
 =H'10'        2 000006C2 00000001     H    4724 3128
 =H'1000'      2 00001B88 00000001     H    9644 8615
 =H'256'       2 00001B90 00000001     H    9648 9324  9459  9594
 =V(ASCTBL)
               4 00001B7C 00000001     V    9639 9535
 =V(BTD)       4 00000FEC 00000001     V    7912 7727
 =V(BTX)       4 00000FF0 00000001     V    7913 7846
 =V(EBCTBL)
               4 00001B70 00000001     V    9636 9265
 =V(EBCTBL7)
               4 00001B78 00000001     V    9638 9400
 =V(SEG)       4 00000FD4 00000001     V    7906 6053  6135  6274  7436  7467  7748  7867
1MISC     (MISC4072) (12:36) (15MAR04) Ordinary Symbol and Literal Cross Reference                                          Page   81
 =V(SEGBLANK)
               4 00000FE4 00000001     V    7910 7305
 =V(SEGCR)
               4 00000FD8 00000001     V    7907 6464
 =X'F020212020204B202020'
              10 000006CA 00000001     X    4728 4499
 =X'F021206120206120202020'
              11 000006D4 00000001     X    4729 4347
 =X'F021207A20207A20204B2020'
              12 000006B4 00000001     X    4722 4192
 =X'00000007'
               4 00001B58 00000001     X    9630 8385
 =X'15'        1 00001007 00000001     X    7924 6264
 =XL4'FFFFF8'
               4 000006A8 00000001     X    4719 3300
 =Y(LS)        2 00001B86 00000001     Y    9643 8553
 =Y(0+((11+3)/4*4)+4)
               2 000006C6 00000001     Y    4726 3967
 =Y(0+((20+3)/4*4)+4)
               2 00001004 00000001     Y    7922 7706  7825
 =Y(0+4+44+((L'HEXWA+3)/4*4)+4)
               2 00000FF6 00000001     Y    7915 4990
 =Y(0+4+44+((L'SA+3)/4*4)+4)
               2 00001B80 00000001     Y    9640 8090
 =Y(0+4+44+((L'STCKCVWA+3)/4*4)+4)
               2 000006C8 00000001     Y    4727 4129  4283  4438  4591
 =Y(0+4+44+((L'WA+3)/4*4)+4)
               2 000006C4 00000001     Y    4725 3280  3388  3493
 =Y(0+4+44+4)
               2 000006C0 00000001     Y    4723 3100  3185  3693  3838  3950
 =Y(0+4+44+4)
               2 00000FF4 00000001     Y    7914 4779  5379  5849  5940  6027  6109  6191  6385  6529  7225  7369  7532
                                                 7693  7812
 =Y(0+4+44+4)
               2 00001B8C 00000001     Y    9646 8988  9099
 =Y(0+4+52+4)
               2 00000FFE 00000001     Y    7919 6674  6818
 =Y(0+4+52+4)
               2 00001B8E 00000001     Y    9647 9255  9390  9525
 =Y(2)         2 00000FF8 00000001     Y    7916 5041  5116
 =Y(3)         2 00001B82 00000001     Y    9641 8413
 =Y(4)         2 00001B84 00000001     Y    9642 8499

1MISC     (MISC4072) (12:36) (15MAR04) Macro and Copy Code Source Summary                                                   Page   82
- Con Source                                        Volume    Members                        HLASM R4.0  2004/03/15 12.36
0     PRIMARY INPUT                                           CSECT    DROP     END      EX       LTORG    POP
                                                              PRINT    PUSH     START    USING
   L1 WYL.GS.MIL.MILTEN.MACLIB                      SYSB05    BTD      BTX      CV       PEND     POP      PROC     PUSH
                                                              REG      SCANCB   STKDEF   XPROC
   L2 WYL.GG.SYS.MACLIB                             SYSB05    $BC      $BFLKUP  $BV      $CCLKUP  $CRS     $CSS     $L
                                                              $LA      $LBLAD   $LEXP    $LOR     $REL     $RGLKUP
                                                              $USLKUP  ADL      AUSING   BASE     BEGIN    CEIL
                                                              CLEAR    CSECT    DATA     DECR     DEFCC    DEX      DROP
                                                              DTEX     ELSE     END      EX       EXIT     FLAG     GEN
                                                              HIBAL    IDENT    IF       INCR     LABEL    LC
                                                              LCALL    LCM      LS       LT       LTORG    L3       MOVE
                                                              PRINT    QLTORG   RECORD   REGS     SDL      SET
                                                              SETMSG   START    ST3      USING    VCALL    WHILE    WITH
   L3 SYS3.IS.MACLIB                                SYSB05    MIB      SEG      SEGBLANK SEGCB    SEGCR    SEGLD
                                                              SYSDEFN
   L5 SYS1.MACLIB                                   MVSBR9    CVT      STCKCONV

1MISC     (MISC4072) (12:36) (15MAR04) Dsect Cross Reference                                                                Page   83
-Dsect     Length      Id       Defn                                                         HLASM R4.0  2004/03/15 12.36
0$$$@R0   00000000  FFFFFFFE     712
 $$$@R1   00000000  FFFFFFFD     725
 $$$@R10  00000000  FFFFFFF4     842
 $$$@R11  00000000  FFFFFFF3     855
 $$$@R12  00000000  FFFFFFF2     868
 $$$@R13  0000004C  FFFFFFF1     881
 $$$@R14  00000000  FFFFFFF0     894
 $$$@R15  00000000  FFFFFFEF     907
 $$$@R2   00000000  FFFFFFFC     738
 $$$@R3   00000000  FFFFFFFB     751
 $$$@R4   00000000  FFFFFFFA     764
 $$$@R5   00000000  FFFFFFF9     777
 $$$@R6   00000000  FFFFFFF8     790
 $$$@R7   00000000  FFFFFFF7     803
 $$$@R8   00000000  FFFFFFF6     816
 $$$@R9   00000000  FFFFFFF5     829
 $$$RDEC  00000008  FFFFFFE7    3052
 $$$RHEXWA
          00000010  FFFFFFE6    4942
 $$$RSA   00000050  FFFFFFE4    7933
 $$$RSCANCB
          00000020  FFFFFFE3    7978
 $$$RSEGCB
          0000003C  FFFFFFE5    5701
 $$$RSTCKCVWA
          00000038  FFFFFFE9    3000
 $$$RWA   00000031  FFFFFFE8    3023
 CVDSECT  00000778  FFFFFFEE    1004
 CVT      00000500  FFFFFFED    1660
 CVTVSTGX 00000050  FFFFFFEC    2680
 CVTXTNT1 0000000C  FFFFFFEB    2719
 CVTXTNT2 00000084  FFFFFFEA    2727
 HIBAL    00000000  FFFFFFFF     698

1MISC     (MISC4072) (12:36) (15MAR04) Using Map                                                                            Page   84
-                                                                                            HLASM R4.0  2004/03/15 12.36
   Stmt  -----Location----- Action ----------------Using----------------- Reg Max    Last  Label and Using Text
           Count      Id           Type          Value    Range     Id        Disp   Stmt
0   929  00000000  FFFFFFFF USING  ORDINARY    00000000 00001000 FFFFFFEF  15 001    5636  @R15,15
    933  00000000  FFFFFFFF USING  ORDINARY    00000000 00001000 FFFFFFF0  14 004    8468  @R14,14
    937  00000000  FFFFFFFF USING  ORDINARY    00000000 00001000 FFFFFFF1  13 000          @R13,13
    941  00000000  FFFFFFFF USING  ORDINARY    00000000 00001000 FFFFFFF2  12 000          @R12,12
    945  00000000  FFFFFFFF USING  ORDINARY    00000000 00001000 FFFFFFF3  11 000          @R11,11
    949  00000000  FFFFFFFF USING  ORDINARY    00000000 00001000 FFFFFFF4  10 000          @R10,10
    953  00000000  FFFFFFFF USING  ORDINARY    00000000 00001000 FFFFFFF5   9 000          @R9,9
    957  00000000  FFFFFFFF USING  ORDINARY    00000000 00001000 FFFFFFF6   8 000          @R8,8
    961  00000000  FFFFFFFF USING  ORDINARY    00000000 00001000 FFFFFFF7   7 000          @R7,7
    965  00000000  FFFFFFFF USING  ORDINARY    00000000 00001000 FFFFFFF8   6 000          @R6,6
    969  00000000  FFFFFFFF USING  ORDINARY    00000000 00001000 FFFFFFF9   5 001    5294  @R5,5
    973  00000000  FFFFFFFF USING  ORDINARY    00000000 00001000 FFFFFFFA   4 000    4876  @R4,4
    977  00000000  FFFFFFFF USING  ORDINARY    00000000 00001000 FFFFFFFB   3 001    8329  @R3,3
    981  00000000  FFFFFFFF USING  ORDINARY    00000000 00001000 FFFFFFFC   2 000          @R2,2
    985  00000000  FFFFFFFF USING  ORDINARY    00000000 00001000 FFFFFFFD   1 100    9593  @R1,1
    989  00000000  FFFFFFFF USING  ORDINARY    00000000 00001000 FFFFFFFE   0 000          @R0,0
    990  00000000  FFFFFFFF DROP                                            0              0
   1013  00000000  FFFFFFEE USING  ORDINARY    00000000 00001000 FFFFFFEE  12 73E    1448  CV,CVR
   2992  00000017  00000001 USING  ORDINARY    00000000 00001000 FFFFFFE7   6 000    3524  DEC,R6
   3096  00000022  00000001 USING  ORDINARY    00000022 00001000 00000001   8 6A0    3133  $$$11B,BR
   3122  0000004A  00000001 DROP                                            2              2
   3126  00000050  00000001 USING  ORDINARY    00000000 00001000 FFFFFFFC   2 000          @R2,2
   3141  00000064  00000001 USING  ORDINARY    00000000 00001000 FFFFFFF6   8 000          @R8,8
   3181  00000080  00000001 USING  ORDINARY    00000080 00001000 00000001   8 640    3225  $$$14B,BR
   3203  00000098  00000001 DROP                                            2              2
   3207  0000009E  00000001 USING  ORDINARY    00000000 00001000 FFFFFFFC   2 001    3459  @R2,2
   3234  000000DA  00000001 USING  ORDINARY    00000000 00001000 FFFFFFF6   8 000          @R8,8
   3276  000000F6  00000001 USING  ORDINARY    000000F6 00001000 00000001   8 5CE    3325  $$$17B,BR
   3295  00000106  00000001 USING  ORDINARY    FFFFFFB4 00001000 FFFFFFE8  13 06C    3319  WA-@@,R13
   3332  00000150  00000001 USING  ORDINARY    00000000 00001000 FFFFFFF1  13 000          @R13,13
   3337  00000150  00000001 USING  ORDINARY    00000000 00001000 FFFFFFF6   8 000          @R8,8
   3384  00000182  00000001 USING  ORDINARY    00000182 00001000 00000001   8 542    3431  $$$21B,BR
   3403  00000192  00000001 USING  ORDINARY    FFFFFFB4 00001000 FFFFFFE8  13 064    3422  WA-@@,R13
   3439  000001DC  00000001 USING  ORDINARY    00000000 00001000 FFFFFFF1  13 000          @R13,13
   3444  000001DC  00000001 USING  ORDINARY    00000000 00001000 FFFFFFF6   8 000          @R8,8
   3489  000001FE  00000001 USING  ORDINARY    000001FE 00001000 00000001   8 4E2    3587  $$$25B,BR
   3508  0000020E  00000001 USING  ORDINARY    FFFFFFB4 00001000 FFFFFFE8  13 07D    3576  WA-@@,R13
   3609  0000026A  00000001 USING  ORDINARY    00000000 00001000 FFFFFFF1  13 000    3704  @R13,13
   3614  0000026A  00000001 USING  ORDINARY    00000000 00001000 FFFFFFF6   8 000          @R8,8
   3636  0000027E  00000001 USING  ORDINARY    00000000 00001000 FFFFFFF8   6 01D    5293  @R6,6
   3689  00000288  00000001 USING  ORDINARY    00000288 00001000 00000001   8 438    3764  $$$33B,BR
   3715  000002A4  00000001 USING  ORDINARY    00000000 00001000 FFFFFFED   2 148    3721  CVT,R2
   3728  000002A8  00000001 USING  ORDINARY    00000000 00001000 FFFFFFFC   2 000          @R2,2
   3739  000002A8  00000001 USING  ORDINARY    00000000 00001000 FFFFFFEA   2 054    3769  CVTXTNT2,R2
   3776  000002C6  00000001 USING  ORDINARY    00000000 00001000 FFFFFFFC   2 009    9584  @R2,2
   3784  000002C6  00000001 USING  ORDINARY    00000000 00001000 FFFFFFF6   8 000          @R8,8
   3834  000002E4  00000001 USING  ORDINARY    000002E4 00001000 00000001   8 AD6    3868  $$$37B,BR
   3894  00000330  00000001 USING  ORDINARY    00000000 00001000 FFFFFFF6   8 000          @R8,8
   3946  0000034E  00000001 USING  ORDINARY    0000034E 00001000 00000001   8 A6C    4040  $$$40B,BR
   4073  000003C6  00000001 USING  ORDINARY    00000000 00001000 FFFFFFF6   8 000          @R8,8
   4125  000003E4  00000001 USING  ORDINARY    000003E4 00001000 00000001   8 9D6    4192  $$$46B,BR
   4144  000003F4  00000001 USING  ORDINARY    FFFFFFB4 00001000 FFFFFFE9  13 065    4194  STCKCVWA-@@,R13
   4223  00000474  00000001 USING  ORDINARY    00000000 00001000 FFFFFFF1  13 000          @R13,13
1MISC     (MISC4072) (12:36) (15MAR04) Using Map                                                                            Page   85
   4228  00000474  00000001 USING  ORDINARY    00000000 00001000 FFFFFFF6   8 000          @R8,8
   4279  00000492  00000001 USING  ORDINARY    00000492 00001000 00000001   8 928    4347  $$$50B,BR
   4298  000004A2  00000001 USING  ORDINARY    FFFFFFB4 00001000 FFFFFFE9  13 065    4349  STCKCVWA-@@,R13
   4378  00000520  00000001 USING  ORDINARY    00000000 00001000 FFFFFFF1  13 000          @R13,13
   4383  00000520  00000001 USING  ORDINARY    00000000 00001000 FFFFFFF6   8 000          @R8,8
   4434  0000053E  00000001 USING  ORDINARY    0000053E 00001000 00000001   8 87C    4499  $$$54B,BR
   4453  0000054E  00000001 USING  ORDINARY    FFFFFFB4 00001000 FFFFFFE9  13 066    4501  STCKCVWA-@@,R13
   4529  000005C8  00000001 USING  ORDINARY    00000000 00001000 FFFFFFF1  13 000          @R13,13
   4534  000005C8  00000001 USING  ORDINARY    00000000 00001000 FFFFFFF6   8 000          @R8,8
   4587  000005E6  00000001 USING  ORDINARY    000005E6 00001000 00000001   8 0E2    4664  $$$58B,BR
   4606  000005F6  00000001 USING  ORDINARY    FFFFFFB4 00001000 FFFFFFE9  13 05C    4653  STCKCVWA-@@,R13
   4686  00000664  00000001 USING  ORDINARY    00000000 00001000 FFFFFFF1  13 000          @R13,13
   4691  00000664  00000001 USING  ORDINARY    00000000 00001000 FFFFFFF6   8 000          @R8,8
   4775  000006F4  00000001 USING  ORDINARY    000006F4 00001000 00000001   8 900    4904  $$$63B,BR
   4913  0000075E  00000001 USING  ORDINARY    00000000 00001000 FFFFFFF6   8 000          @R8,8
   4986  0000077A  00000001 USING  ORDINARY    0000077A 00001000 00000001   8 882    5308  $$$72B,BR
   5005  0000078A  00000001 USING  ORDINARY    FFFFFFB4 00001000 FFFFFFE6  13 057    5307  HEXWA-@@,R13
   5315  00000868  00000001 USING  ORDINARY    00000000 00001000 FFFFFFF1  13 000    8048  @R13,13
   5320  00000868  00000001 USING  ORDINARY    00000000 00001000 FFFFFFF6   8 000          @R8,8
   5375  00000886  00000001 USING  ORDINARY    00000886 00001000 00000001   8 782    5654  $$$90B,BR
   5397  00000896  00000001 USING  ORDINARY    00000000 00001000 FFFFFFEE  12 498    5636  CV,CVR
   5678  00000946  00000001 USING  ORDINARY    00000000 00001000 FFFFFFF2  12 000          @R12,12
   5683  00000946  00000001 USING  ORDINARY    00000000 00001000 FFFFFFF6   8 000          @R8,8
   5845  00000964  00000001 USING  ORDINARY    00000964 00001000 00000001   8 690    5849  $$$117B,BR
   5868  00000974  00000001 USING  ORDINARY    00000000 00001000 FFFFFFE5  15 020    5881  SEGCB,R15
   5888  00000982  00000001 USING  ORDINARY    00000000 00001000 FFFFFFEF  15 000          @R15,15
   5896  00000982  00000001 USING  ORDINARY    00000000 00001000 FFFFFFF6   8 000          @R8,8
   5936  000009A0  00000001 USING  ORDINARY    000009A0 00001000 00000001   8 654    5940  $$$120B,BR
   5959  000009B0  00000001 USING  ORDINARY    00000000 00001000 FFFFFFE5  15 024    5964  SEGCB,R15
   5971  000009B4  00000001 USING  ORDINARY    00000000 00001000 FFFFFFEF  15 000          @R15,15
   5979  000009B4  00000001 USING  ORDINARY    00000000 00001000 FFFFFFF6   8 000          @R8,8
   6023  000009D2  00000001 USING  ORDINARY    000009D2 00001000 00000001   8 634    6053  $$$123B,BR
   6061  000009F8  00000001 USING  ORDINARY    00000000 00001000 FFFFFFF6   8 000          @R8,8
   6105  00000A16  00000001 USING  ORDINARY    00000A16 00001000 00000001   8 5F0    6135  $$$126B,BR
   6143  00000A3C  00000001 USING  ORDINARY    00000000 00001000 FFFFFFF6   8 000          @R8,8
   6187  00000A5A  00000001 USING  ORDINARY    00000A5A 00001000 00000001   8 5AD    6309  $$$129B,BR
   6214  00000A70  00000001 USING  ORDINARY    00000000 00001000 FFFFFFE5   6 024    6307  SEGCB,R6
   6326  00000ABA  00000001 USING  ORDINARY    00000000 00001000 FFFFFFF8   6 000          @R6,6
   6336  00000ABC  00000001 USING  ORDINARY    00000000 00001000 FFFFFFF6   8 000          @R8,8
   6381  00000ADA  00000001 USING  ORDINARY    00000ADA 00001000 00000001   8 51A    6464  $$$135B,BR
   6405  00000AEC  00000001 USING  ORDINARY    00000000 00001000 FFFFFFE5   6 00C    6438  SEGCB,R6
   6476  00000B0E  00000001 USING  ORDINARY    00000000 00001000 FFFFFFF8   6 000          @R6,6
   6481  00000B0E  00000001 USING  ORDINARY    00000000 00001000 FFFFFFF6   8 000          @R8,8
   6525  00000B2C  00000001 USING  ORDINARY    00000B2C 00001000 00000001   8 4C8    6592  $$$140B,BR
   6551  00000B42  00000001 USING  ORDINARY    00000000 00001000 FFFFFFE5   6 024    6582  SEGCB,R6
   6613  00000B6E  00000001 USING  ORDINARY    00000000 00001000 FFFFFFF8   6 000          @R6,6
   6618  00000B6E  00000001 USING  ORDINARY    00000000 00001000 FFFFFFF6   8 000          @R8,8
   6670  00000B8C  00000001 USING  ORDINARY    00000B8C 00001000 00000001   8 472    6763  $$$145B,BR
   6694  00000B9E  00000001 USING  ORDINARY    00000000 00001000 FFFFFFE5   6 000          SEGCB,R6
   6770  00000BCC  00000001 USING  ORDINARY    00000000 00001000 FFFFFFF8   6 000          @R6,6
   6775  00000BCC  00000001 USING  ORDINARY    00000000 00001000 FFFFFFF6   8 000          @R8,8
   6814  00000BEA  00000001 USING  ORDINARY    00000BEA 00001000 00000001   8 414    6818  $$$152B,BR
   6838  00000BFC  00000001 USING  ORDINARY    00000000 00001000 FFFFFFE5   6 024    7144  SEGCB,R6
   6855  00000BFE  00000001 USING  ORDINARY    00000000 00001000 FFFFFFF6   8 000          @R8,8
   6858  00000BFE  00000001 USING  ORDINARY    00000BFE 00001000 00000001   8 402    7146  $$$153B,8
   7163  00000CF4  00000001 USING  ORDINARY    00000000 00001000 FFFFFFF8   6 000          @R6,6
   7173  00000CF4  00000001 USING  ORDINARY    00000000 00001000 FFFFFFF6   8 000          @R8,8
   7221  00000D12  00000001 USING  ORDINARY    00000D12 00001000 00000001   8 2E2    7305  $$$167B,BR
   7245  00000D24  00000001 USING  ORDINARY    00000000 00001000 FFFFFFE5   6 00C    7274  SEGCB,R6
1MISC     (MISC4072) (12:36) (15MAR04) Using Map                                                                            Page   86
   7313  00000D46  00000001 USING  ORDINARY    00000000 00001000 FFFFFFF8   6 000          @R6,6
   7318  00000D46  00000001 USING  ORDINARY    00000000 00001000 FFFFFFF6   8 000          @R8,8
   7365  00000D64  00000001 USING  ORDINARY    00000D64 00001000 00000001   8 29E    7467  $$$172B,BR
   7389  00000D76  00000001 USING  ORDINARY    00000000 00001000 FFFFFFE5   6 000          SEGCB,R6
   7475  00000DA6  00000001 USING  ORDINARY    00000000 00001000 FFFFFFF8   6 000          @R6,6
   7480  00000DA6  00000001 USING  ORDINARY    00000000 00001000 FFFFFFF6   8 000          @R8,8
   7528  00000EC4  00000001 USING  ORDINARY    00000EC4 00001000 00000001   8 130    7573  $$$177B,BR
   7552  00000ED6  00000001 USING  ORDINARY    00000000 00001000 FFFFFFE5   6 024    7595  SEGCB,R6
   7602  00000EF2  00000001 USING  ORDINARY    00000000 00001000 FFFFFFF8   6 001    9179  @R6,6
   7607  00000EF2  00000001 USING  ORDINARY    00000000 00001000 FFFFFFF6   8 000          @R8,8
   7639  00000F06  00000001 USING  ORDINARY    00000000 00001000 FFFFFFE5  15 00C    7646  SEGCB,R15
   7653  00000F0C  00000001 USING  ORDINARY    00000000 00001000 FFFFFFEF  15 000          @R15,15
   7689  00000F18  00000001 USING  ORDINARY    00000F18 00001000 00000001   8 0EC    7748  $$$181B,BR
   7761  00000F54  00000001 USING  ORDINARY    00000000 00001000 FFFFFFF6   8 000          @R8,8
   7808  00000F72  00000001 USING  ORDINARY    00000F72 00001000 00000001   8 092    7867  $$$185B,BR
   7880  00000FAE  00000001 USING  ORDINARY    00000000 00001000 FFFFFFF6   8 000          @R8,8
   8014  0000100E  00000001 USING  ORDINARY    00000000 00001000 FFFFFFE3  15 01C    8048  SCANCB,R15
   8057  00001048  00000001 USING  ORDINARY    00000000 00001000 FFFFFFEF  15 001    8603  @R15,15
   8086  00001052  00000001 USING  ORDINARY    00001052 00001000 00000001   8 B2E    8090  $$$189B,BR
   8105  00001062  00000001 USING  ORDINARY    FFFFFFB4 00001000 FFFFFFE4  13 074    8680  SA-@@,R13
   8121  00001064  00000001 USING  ORDINARY    00000000 00001000 FFFFFFF6   8 000          @R8,8
   8124  00001064  00000001 USING  ORDINARY    00001064 00001000 00000001   8 B3A    8520  $$$190B,8
   8135  00001066  00000001 USING  ORDINARY    00000000 00001000 FFFFFFE3  12 01C    8688  SCANCB,SCANCBR
   8444  00001326  00000001 DROP                                            4              4
   8448  0000132C  00000001 USING  ORDINARY    00000000 00001000 FFFFFFFA   4 000    8509  @R4,4
   8548  000013FE  00000001 USING  ORDINARY    00000000 00001000 FFFFFFF6   8 000          @R8,8
   8551  000013FE  00000001 USING  ORDINARY    000013FE 00001000 00000001   8 788    8561  $$$200B,8
   8570  0000140E  00000001 USING  ORDINARY    00000000 00001000 FFFFFFF6   8 000          @R8,8
   8573  0000140E  00000001 USING  ORDINARY    00001064 00001000 00000001   8 B26    8684  BASE,8
   8696  00001574  00000001 USING  ORDINARY    00000000 00001000 FFFFFFF2  12 000          @R12,12
   8701  00001574  00000001 USING  ORDINARY    00000000 00001000 FFFFFFF1  13 000          @R13,13
   8706  00001574  00000001 USING  ORDINARY    00000000 00001000 FFFFFFF6   8 000          @R8,8
   8984  000019A2  00000001 USING  ORDINARY    000019A2 00001000 00000001   8 1EA    9041  $$$205B,BR
   9049  000019CE  00000001 USING  ORDINARY    00000000 00001000 FFFFFFF6   8 000          @R8,8
   9095  000019EC  00000001 USING  ORDINARY    000019EC 00001000 00000001   8 1A0    9193  $$$211B,BR
   9201  00001A30  00000001 USING  ORDINARY    00000000 00001000 FFFFFFF6   8 000          @R8,8
   9251  00001A4E  00000001 USING  ORDINARY    00001A4E 00001000 00000001   8 156    9328  $$$220B,BR
   9336  00001A88  00000001 USING  ORDINARY    00000000 00001000 FFFFFFF6   8 000          @R8,8
   9386  00001AA6  00000001 USING  ORDINARY    00001AA6 00001000 00000001   8 104    9463  $$$228B,BR
   9471  00001AE0  00000001 USING  ORDINARY    00000000 00001000 FFFFFFF6   8 000          @R8,8
   9521  00001AFE  00000001 USING  ORDINARY    00001AFE 00001000 00000001   8 0B2    9598  $$$236B,BR
   9606  00001B38  00000001 USING  ORDINARY    00000000 00001000 FFFFFFF6   8 000          @R8,8

1         (MISC4072) (12:36) (15MAR04) General Purpose Register Cross Reference                                             Page   87
- Register  References (M=modified, B=branch, U=USING, D=DROP, N=index)                      HLASM R4.0  2004/03/15 12.36
0    0(0)     989U  990D 1442M 1443M 1444  1446M 1447  3114M 3114  3132M 3199M 3199  3224M 3314M 3314  3316M 3316  3317M
             3318  3410  3429M 3518  3547M 3559M 3560M 3577  3582  3704M 3747M 3748M 3764M 3769M 3851  3857M 3864M 3886M
             3963  3977M 3988M 3994M 4030M 4062M 4148  4215M 4302  4370M 4522M 4610  4652M 4673M 4673  4800  4845M 4847M
             4851  4887M 4901M 4901  5041M 5047  5071M 5071  5077  5098M 5116M 5301M 5302  5307M 5569M 5570M 5575  5663M
             5663  5880  5964  6044M 6126M 6226M 6265M 6297M 6297  6329  6455M 6455  6562M 6658  6706M 6706  6714  6758M
             6782M 6802  6901M 6901  6913  6915M 6917  6924M 6936  6951M 6952M 6952  6965M 7001M 7001  7014M 7014  7054M
             7061  7079M 7086M 7087M 7088M 7094M 7095M 7103M 7113  7115M 7121  7122M 7123M 7125M 7134M 7180M 7186  7250M
             7262  7269M 7274M 7287M 7393  7427M 7458M 8020  8037M 8174M 8176M 8177M 8177  8296M 8297M 8299  8301  8312M
             8314  8326  8413  8512  8529M 8529  8587M 8587  8591  8597  8605M 8608M 8609M 8612  8615M 8616M 8617  8618M
             8621  8624  8628M 8633  8634M 8640M 8640  8642  8644  8651M 8657M 8664M 8668M 8668  8676M 8676  8682M 8719M
             8719  8999  9014M 9014  9037M 9121M 9121  9143M 9151  9166M 9166  9189M 9239  9277M 9277  9283  9324M 9343M
             9374  9412M 9412  9418  9459M 9478M 9509  9547M 9547  9553  9594M 9613M
     1(1)     985U 3130M 3222M 3303  3304M 3305M 3309M 3312  3313M 3515  3520M 3521M 3524M 3541M 3560  3576M 3577M 3602M
             3704M 3745M 3757M 3852  3858M 3865M 3879M 3964  3976  3978M 3989M 3992  3995M 4008  4023M 4055M 4148  4155M
             4156M 4157  4159  4169  4175  4208M 4302  4310M 4311M 4312  4314  4324  4330  4363M 4463M 4464M 4465  4467
             4477  4483  4515M 4610  4615M 4616M 4617  4619  4629  4635  4653M 4675M 4675  4848  4850M 5040M 5047  5096M
             5115M 5300M 5307M 5499M 5570  5665M 5665  5881  6043M 6125M 6225M 6264M 6561M 6658  6712M 6713  6730  6757
             6782M 6802  6916  6948M 7015M 7053M 7054M 7055M 7061M 7062  7072M 7072  7085  7087M 7124M 7125M 7180M 7422M
             7453M 7711  7724M 7830  7843M 8019M 8020  8034M 8035M 8036  8037M 8044M 8045  8046M 8047M 8140  8147M 8165M
             8173  8174  8175M 8176  8184  8194  8203  8205M 8214  8220  8221M 8222  8240  8246  8247M 8248  8260  8287
             8288M 8289  8291  8297  8298M 8307  8308M 8310  8312  8313M 8327  8512  8579  8600  8618M 8629M 8635M 8645
             8650M 8652M 8653M 8664M 8677M 8677  8682M 8998  9141M 9150  9239  9323M 9343M 9374  9458M 9478M 9509  9593M
             9613M
     2(2)     981U 3084  3122D 3124M 3124  3125M 3127M 3129  3148M 3169  3203D 3205M 3205  3206M 3212M 3219M 3221  3241M
             3263  3319M 3320M 3345M 3371  3412M 3413M 3422M 3424M 3428M 3452M 3476  3517M 3518M 3519N 3521  3582M 3585M
             3587  3622M 3677  3705M 3715U 3721M 3728U 3739U 3776U 3791M 3822  3901M 3934  3994  4080M 4112  4236M 4266
             4391M 4421  4542M 4574  4699M 4763  4920M 4973  5146M 5200M 5205  5230M 5284M 5289  5328M 5363  5405M 5422M
             5422  5473M 5490M 5490  5513M 5513  5562M 5572  5575M 5578  5590M 5598M 5607M 5607  5614  5690M 5833  5903M
             5924  5986M 6011  6068M 6093  6150M 6175  6343M 6369  6488M 6513  6625M 6658  6713M 6714M 6716M 6730  6751M
             6757M 6782M 6802  6916M 7125M 7180M 7209  7325M 7353  7487M 7516  7614M 7677  7710M 7724  7768M 7796  7829M
             7843  7887M 8073  8150M 8150  8156N 8165M 8266M 8267  8270M 8271M 8272  8281M 8282M 8283  8284M 8284  8326M
             8330M 8375M 8376M 8376  8381M 8436M 8453  8462M 8467  8493M 8502M 8505M 8508M 8514M 8514  8528M 8535  8714M
             8972  9056M 9083  9208M 9239  9265M 9343M 9374  9400M 9478M 9509  9535M 9613M
     3(3)     977U 3084  3148M 3169  3241M 3263  3311M 3312M 3317  3318M 3320  3323M 3325  3345M 3371  3410M 3413  3415M
             3417  3423M 3427M 3452M 3476  3519M 3622M 3677  3791M 3822  3901M 3934  3995  4080M 4112  4173M 4236M 4266
             4328M 4391M 4421  4481M 4542M 4574  4633M 4699M 4763  4920M 4973  5059M 5059  5145M 5205M 5291M 5292M 5293
             5328M 5363  5406M 5471M 5499  5560M 5569  5573  5690M 5833  5903M 5924  5986M 6011  6068M 6093  6150M 6175
             6343M 6369  6488M 6513  6625M 6658  6782M 6802  6917M 7088  7094  7113M 7124  7125M 7180M 7209  7325M 7353
             7487M 7516  7614M 7677  7768M 7796  7887M 8073  8327M 8329M 8381N 8384M 8385M 8388M 8388  8392  8395  8436N
             8453  8508M 8528M 8535  8592N 8714M 8972  9056M 9083  9208M 9239  9343M 9374  9478M 9509  9613M
     4(4)     973U 3084  3148M 3169  3241M 3263  3303M 3313  3345M 3371  3452M 3476  3622M 3677  3791M 3822  3851M 3857
             3864  3901M 3934  3963M 3977  3988  4080M 4112  4173M 4236M 4266  4328M 4391M 4421  4481M 4542M 4574  4633M
             4699M 4763  4848M 4906M 4920M 4973  5057M 5057  5229M 5289M 5292  5328M 5363  5690M 5833  5903M 5924  5986M
             6011  6068M 6093  6150M 6175  6343M 6369  6488M 6513  6625M 6658  6782M 6802  7180M 7209  7325M 7353  7487M
             7516  7614M 7677  7768M 7796  7887M 8073  8141M 8141  8373M 8373  8378M 8444D 8446M 8446  8447M 8448U 8463M
             8464M 8464  8493  8509M 8510  8524  8528M 8535  8576M 8576  8662M 8662  8683M 8683  8714M 8972  9056M 9083
             9208M 9239  9343M 9374  9478M 9509  9613M
     5(5)     969U 3084  3148M 3169  3241M 3263  3345M 3371  3452M 3476  3515M 3602  3622M 3677  3791M 3822  3852M 3858
             3865  3901M 3934  3964M 3978  3992M 4008  4080M 4112  4236M 4266  4391M 4421  4542M 4574  4699M 4763  4851M
             4862M 4862  4885M 4895M 4920M 4973  5053M 5053  5293N 5294M 5301  5328M 5363  5690M 5833  5903M 5924  5986M
             6011  6068M 6093  6150M 6175  6343M 6369  6488M 6513  6625M 6658  6782M 6802  6892M 6892  6923M 6923  7112M
             7134  7180M 7209  7325M 7353  7393M 7407  7438M 7458  7487M 7516  7614M 7677  7768M 7796  7887M 8073  8142M
             8147N 8148M 8148  8153M 8155  8172M 8172  8187  8194M 8195M 8196  8219M 8220M 8230M 8245M 8246M 8286M 8287M
             8291M 8292M 8299M 8306M 8310M 8311  8528M 8535  8631M 8634  8644M 8654M 8656  8663M 8669M 8669  8685  8714M
             8972  9056M 9083  9208M 9239  9343M 9374  9478M 9509  9613M
1         (MISC4072) (12:36) (15MAR04) General Purpose Register Cross Reference                                             Page   88
     6(6)     965U 2992U 3084  3148M 3169  3241M 3263  3299M 3300M 3345M 3371  3452M 3476  3513M 3514M 3622M 3636U 3677
             3791M 3822  3848M 3855  3879  3901M 3934  3960M 4023  4055  4080M 4112  4150M 4194  4208  4236M 4266  4304M
             4363  4391M 4421  4457M 4458  4501  4515  4542M 4574  4699M 4763  4849M 4883M 4893M 4920M 4973  5049M 5300
             5328M 5363  5690M 5833  5903M 5924  5986M 6011  6037M 6050  6068M 6093  6119M 6132  6150M 6175  6201M 6214U
             6227  6271  6293  6326U 6343M 6369  6395M 6405U 6461  6476U 6488M 6513  6539M 6551U 6563  6613U 6625M 6658
             6684M 6694U 6770U 6782M 6802  6828M 6838U 6970  7133  7163U 7180M 7209  7235M 7245U 7302  7313U 7325M 7353
             7379M 7389U 7433  7464  7475U 7487M 7516  7542M 7552U 7602U 7614M 7677  7703M 7745  7768M 7796  7822M 7864
             7887M 8073  8142M 8173M 8186M 8187  8219  8222M 8231M 8245  8248M 8286  8289M 8292  8293M 8300M 8301M 8306M
             8308  8313  8528M 8535  8592M 8600M 8604M 8645M 8663M 8685  8714M 8972  8998M 8999M 9001M 9035M 9056M 9083
             9150M 9151M 9153M 9187M 9208M 9239  9343M 9374  9478M 9509  9613M
     7(7)     961U 3084  3148M 3169  3241M 3263  3345M 3371  3452M 3476  3622M 3677  3791M 3822  3901M 3934  4080M 4112
             4236M 4266  4391M 4421  4542M 4574  4699M 4763  4920M 4973  5328M 5363  5690M 5833  5903M 5924  5986M 6011
             6068M 6093  6150M 6175  6343M 6369  6488M 6513  6625M 6658  6782M 6802  7180M 7209  7325M 7353  7487M 7516
             7614M 7677  7768M 7796  7887M 8073  8528M 8535  8714M 8972  9056M 9083  9208M 9239  9343M 9374  9478M 9509
             9613M
     8(8)     957U 3084  3085M 3096U 3141U 3148M 3169  3170M 3181U 3234U 3241M 3263  3265M 3276U 3337U 3345M 3371  3373M
             3384U 3444U 3452M 3476  3478M 3489U 3614U 3622M 3677  3678M 3689U 3784U 3791M 3822  3823M 3834U 3894U 3901M
             3934  3935M 3946U 4073U 4080M 4112  4114M 4125U 4228U 4236M 4266  4268M 4279U 4383U 4391M 4421  4423M 4434U
             4534U 4542M 4574  4576M 4587U 4691U 4699M 4763  4764M 4775U 4906  4913U 4920M 4973  4975M 4986U 5320U 5328M
             5363  5364M 5375U 5683U 5690M 5833  5834M 5845U 5896U 5903M 5924  5925M 5936U 5979U 5986M 6011  6012M 6023U
             6061U 6068M 6093  6094M 6105U 6143U 6150M 6175  6176M 6187U 6336U 6343M 6369  6370M 6381U 6481U 6488M 6513
             6514M 6525U 6618U 6625M 6658  6659M 6670U 6775U 6782M 6802  6803M 6814U 6845M 6855U 6858U 7173U 7180M 7209
             7210M 7221U 7318U 7325M 7353  7354M 7365U 7480U 7487M 7516  7517M 7528U 7607U 7614M 7677  7678M 7689U 7761U
             7768M 7796  7797M 7808U 7880U 7887M 8073  8075M 8086U 8111M 8121U 8124U 8528M 8535  8538M 8548U 8551U 8561M
             8570U 8573U 8706U 8714M 8972  8973M 8984U 9049U 9056M 9083  9084M 9095U 9201U 9208M 9239  9240M 9251U 9336U
             9343M 9374  9375M 9386U 9471U 9478M 9509  9510M 9521U 9606U 9613M
     9(9)     953U 3084  3148M 3169  3241M 3263  3345M 3371  3452M 3476  3622M 3677  3791M 3822  3901M 3934  4080M 4112
             4236M 4266  4391M 4421  4542M 4574  4699M 4763  4920M 4973  5328M 5363  5690M 5833  5903M 5924  5986M 6011
             6068M 6093  6150M 6175  6343M 6369  6488M 6513  6625M 6658  6782M 6802  7180M 7209  7325M 7353  7487M 7516
             7614M 7677  7768M 7796  7887M 8073  8528M 8535  8714M 8972  9056M 9083  9208M 9239  9343M 9374  9478M 9509
             9613M
    10(A)     949U 3084  3148M 3169  3241M 3263  3345M 3371  3452M 3476  3622M 3677  3791M 3822  3901M 3934  4080M 4112
             4236M 4266  4391M 4421  4542M 4574  4699M 4763  4920M 4973  5328M 5363  5690M 5833  5903M 5924  5986M 6011
             6068M 6093  6150M 6175  6343M 6369  6488M 6513  6625M 6658  6782M 6802  7180M 7209  7325M 7353  7487M 7516
             7614M 7677  7768M 7796  7887M 8073  8528M 8535  8714M 8972  9056M 9083  9208M 9239  9343M 9374  9478M 9509
             9613M
    11(B)     945U 2075B 2076B 3084  3148M 3169  3241M 3263  3345M 3371  3452M 3476  3622M 3677  3791M 3822  3901M 3934
             4080M 4112  4236M 4266  4391M 4421  4542M 4574  4699M 4763  4920M 4973  5328M 5363  5690M 5833  5903M 5924
             5986M 6011  6068M 6093  6150M 6175  6343M 6369  6488M 6513  6625M 6658  6782M 6802  7180M 7209  7325M 7353
             7487M 7516  7614M 7677  7768M 7796  7887M 8073  8528M 8535  8714M 8972  9056M 9083  9208M 9239  9343M 9374
             9478M 9509  9613M
    12(C)     941U 1013U 3084  3148M 3169  3241M 3263  3345M 3371  3452M 3476  3622M 3677  3791M 3822  3901M 3934  4080M
             4112  4236M 4266  4391M 4421  4542M 4574  4699M 4763  4920M 4973  5328M 5363  5397U 5678U 5690M 5833  5903M
             5924  5986M 6011  6068M 6093  6150M 6175  6343M 6369  6488M 6513  6625M 6658  6782M 6802  7180M 7209  7325M
             7353  7487M 7516  7614M 7677  7768M 7796  7887M 8073  8126M 8135U 8523  8528M 8535  8575M 8689  8696U 8714M
             8972  9056M 9083  9208M 9239  9343M 9374  9478M 9509  9613M
    13(D)     937U 3081  3084  3100M 3102  3102  3103  3103  3104  3145M 3145  3148  3150  3152  3152  3166  3169  3185M
             3187  3187  3188  3188  3189  3238M 3238  3241  3243  3245  3245  3260  3263  3280M 3282  3282  3283  3283
             3284  3295U 3332U 3341M 3341  3345  3347  3349  3349  3368  3371  3388M 3390  3390  3391  3391  3392  3403U
             3439U 3448M 3448  3452  3454  3456  3456  3473  3476  3493M 3495  3495  3496  3496  3497  3508U 3609U 3618M
             3618  3622  3624  3626  3626  3674  3677  3693M 3695  3695  3696  3696  3697  3788M 3788  3791  3793  3795
             3795  3819  3822  3838M 3840  3840  3841  3841  3842  3898M 3898  3901  3903  3905  3905  3931  3934  3950M
             3952  3952  3953  3953  3954  3967M 3969  3969  3970  3970  3971  3983M 3983  3986  3986  4077M 4077  4080
             4082  4084  4084  4109  4112  4129M 4131  4131  4132  4132  4133  4144U 4223U 4232M 4232  4236  4238  4240
             4240  4263  4266  4283M 4285  4285  4286  4286  4287  4298U 4378U 4387M 4387  4391  4393  4395  4395  4418
             4421  4438M 4440  4440  4441  4441  4442  4453U 4529U 4538M 4538  4542  4544  4546  4546  4571  4574  4591M
             4593  4593  4594  4594  4595  4606U 4686U 4695M 4695  4699  4701  4703  4703  4760  4763  4779M 4781  4781
             4782  4782  4783  4917M 4917  4920  4922  4924  4924  4970  4973  4990M 4992  4992  4993  4993  4994  5005U
             5315U 5324M 5324  5328  5330  5332  5332  5360  5363  5379M 5381  5381  5382  5382  5383  5687M 5687  5690
1         (MISC4072) (12:36) (15MAR04) General Purpose Register Cross Reference                                             Page   89
             5692  5694  5694  5830  5833  5849M 5851  5851  5852  5852  5853  5900M 5900  5903  5905  5907  5907  5921
             5924  5940M 5942  5942  5943  5943  5944  5983M 5983  5986  5988  5990  5990  6008  6011  6027M 6029  6029
             6030  6030  6031  6065M 6065  6068  6070  6072  6072  6090  6093  6109M 6111  6111  6112  6112  6113  6147M
             6147  6150  6152  6154  6154  6172  6175  6191M 6193  6193  6194  6194  6195  6340M 6340  6343  6345  6347
             6347  6366  6369  6385M 6387  6387  6388  6388  6389  6485M 6485  6488  6490  6492  6492  6510  6513  6529M
             6531  6531  6532  6532  6533  6622M 6622  6625  6627  6629  6629  6655  6658  6674M 6676  6676  6677  6677
             6678  6779M 6779  6782  6784  6786  6786  6799  6802  6818M 6820  6820  6821  6821  6822  7177M 7177  7180
             7182  7184  7184  7206  7209  7225M 7227  7227  7228  7228  7229  7322M 7322  7325  7327  7329  7329  7350
             7353  7369M 7371  7371  7372  7372  7373  7484M 7484  7487  7489  7491  7491  7513  7516  7532M 7534  7534
             7535  7535  7536  7611M 7611  7614  7616  7618  7618  7674  7677  7693M 7695  7695  7696  7696  7697  7706M
             7708  7708  7709  7709  7710  7751M 7751  7754  7754  7765M 7765  7768  7770  7772  7772  7793  7796  7812M
             7814  7814  7815  7815  7816  7825M 7827  7827  7828  7828  7829  7870M 7870  7873  7873  7884M 7884  7887
             7889  7891  7891  8070  8073  8090M 8092  8092  8093  8093  8094  8105U 8526M 8526  8527  8527  8528  8534
             8535  8553M 8555  8555  8556  8556  8701U 8710M 8710  8714  8716  8718  8718  8969  8972  8988M 8990  8990
             8991  8991  8992  9053M 9053  9056  9058  9060  9060  9080  9083  9099M 9101  9101  9102  9102  9103  9205M
             9205  9208  9210  9212  9212  9236  9239  9255M 9257  9257  9258  9258  9259  9340M 9340  9343  9345  9347
             9347  9371  9374  9390M 9392  9392  9393  9393  9394  9475M 9475  9478  9480  9482  9482  9506  9509  9525M
             9527  9527  9528  9528  9529  9610M 9610  9613  9615  9617  9617
    14(E)     933U 1441B 1451B 3081  3150M 3153B 3166  3243M 3246B 3260  3347M 3350B 3368  3454M 3457B 3473  3624M 3628B
             3674  3793M 3797B 3819  3854M 3861M 3868M 3903M 3907B 3931  3973M 3980M 3991M 3997M 4082M 4086B 4109  4158M
             4159  4170M 4171M 4171N 4172M 4172N 4173  4173M 4174M 4175  4238M 4242B 4263  4313M 4314  4325M 4326M 4326N
             4327M 4327N 4328  4328M 4329M 4330  4393M 4397B 4418  4466M 4467  4478M 4479M 4479N 4480M 4480N 4481  4481M
             4482M 4483  4544M 4548B 4571  4618M 4619  4630M 4631M 4631N 4632M 4632N 4633  4633M 4634M 4635  4701M 4705B
             4760  4922M 4925B 4970  5330M 5334B 5360  5692M 5696B 5830  5905M 5909B 5921  5988M 5992B 6008  6039M 6053M
             6054M 6054B 6070M 6074B 6090  6121M 6135M 6136M 6136B 6152M 6156B 6172  6203M 6237M 6238M 6238  6244M 6244B
             6274M 6275M 6275B 6307M 6308M 6308  6315M 6315B 6345M 6349B 6366  6410M 6464M 6465M 6465B 6490M 6494B 6510
             6541M 6573M 6574M 6574  6580M 6580B 6627M 6631B 6655  6784M 6788B 6799  6875M 6876M 6876  6883M 6883B 6980M
             6981M 6981  6988M 6988B 7016M 7054M 7087M 7144M 7145M 7145  7152M 7152B 7182M 7187B 7206  7305M 7306M 7306B
             7327M 7331B 7350  7436M 7437M 7437B 7467M 7468M 7468B 7489M 7493B 7513  7571M 7572M 7572  7579M 7579B 7616M
             7620B 7655B 7674  7727M 7728M 7728B 7748M 7749M 7749B 7770M 7774B 7793  7846M 7847M 7847B 7867M 7868M 7868B
             7889M 7893B 8028B 8038B 8049B 8070  8139  8466M 8467N 8468M 8480  8492  8498M 8499M 8501  8502N 8510M 8524M
             8530M 8530B 8584M 8614M 8624M 8625M 8627  8630M 8658B 8686M 8716M 8720B 8969  9058M 9062B 9080  9210M 9214B
             9236  9345M 9349B 9371  9480M 9484B 9506  9615M 9619B
    15(F)     929U 1439M 1440M 1440  1442  1447M 1450M 1450  2537M 2537  3113M 3113  3128M 3129M 3198M 3198  3220M 3221M
             3301  3306M 3306  3407  3516  3533M 3533  3627M 3627  3796M 3796  3848  3859M 3866M 3906M 3906  3960  3971M
             3976M 4085M 4085  4150  4186M 4186  4241M 4241  4304  4341M 4341  4396M 4396  4457  4493M 4493  4547M 4547
             4646M 4646  4704M 4704  4749M 4850  4892M 5049  5302M 5308M 5333M 5333  5635M 5641M 5641  5666M 5695M 5695
             5868U 5888U 5908M 5908  5959U 5971U 5991M 5991  6037  6050M 6073M 6073  6119  6132M 6155M 6155  6201  6227M
             6271M 6279M 6279  6293M 6329M 6348M 6348  6395  6461M 6493M 6493  6539  6563M 6602M 6602  6630M 6630  6684
             6787M 6787  6828  6970M 7026M 7027M 7027  7044  7054M 7056M 7062M 7063  7079N 7085M 7087M 7120M 7123  7133M
             7186M 7235  7302M 7330M 7330  7379  7433M 7464M 7492M 7492  7542  7619M 7619  7639U 7653U 7703  7711M 7745M
             7773M 7773  7822  7830M 7864M 7892M 7892  8014U 8057U 8126  8151M 8152M 8152N 8314M 8342  8349M 8356M 8358
             8392  8416  8513  8521M 8522  8523M 8533  8534  8575  8599M 8599  8603M 8609  8611M 8611  8616  8617M 8631
             8633M 8666M 8687M 8688  8689M 9061M 9061  9213M 9213  9283M 9286  9298M 9305M 9307  9348M 9348  9418M 9421
             9433M 9440M 9442  9483M 9483  9553M 9556  9568M 9575M 9577  9618M 9618

1MISC     (MISC4072) (12:36) (15MAR04) Diagnostic Cross Reference and Assembler Summary                                     Page   90
-                                                                                            HLASM R4.0  2004/03/15 12.36
0     No Statements Flagged in this Assembly
 HIGH LEVEL ASSEMBLER, 5696-234, RELEASE 4.0, PTF UQ57391
0SYSTEM: OS/390 02.10.00            JOBNAME: MIL#MISC    STEPNAME: ASM        PROCSTEP: (NOPROC)
0Datasets Allocated for this Assembly
  Con DDname   Dataset Name                                 Volume  Member
   P1 SYSIN    WYL.GS.MIL.MILTEN.SOURCE                     SYSB05  MISC
   L1 SYSLIB   WYL.GS.MIL.MILTEN.MACLIB                     SYSB05
   L2          WYL.GG.SYS.MACLIB                            SYSB05
   L3          SYS3.IS.MACLIB                               SYSB05
   L4          SYS3.MACLIB                                  SYSB02
   L5          SYS1.MACLIB                                  MVSBR9
   L6          SYS1.MODGEN                                  MVSBR9
      SYSPRINT SYS04075.T123621.RA000.MIL#MISC.PRINT.H01    SCR101
      SYSTERM  GG$SLP.MIL#MISC.JOB03419.D0000101.?

    3776K allocated to Buffer Pool,         1717K would be required for this to be an In-Storage Assembly
    1752 Primary Input Records Read         6179 Library Records Read                  0 Work File Reads
       0 ASMAOPT Records Read               5500 Primary Print Records Written         0 Work File Writes
       0 Punch Records Written                 0 ADATA Records Written
0Assembly Start Time: 12.36.23 Stop Time: 12.36.31 Processor Time: 00.00.01.7127
 Return Code 000
