1                        J E S 2  J O B  L O G  --  S Y S T E M  S Y S B  --  N O D E  R L G
0
 09.43.38 JOB05958 ---- MONDAY,    22 MAR 2004 ----
 09.43.38 JOB05958  ICH70001I GG$PJG   LAST ACCESS AT 09:43:33 ON MONDAY, MARCH 22, 2004
 09.43.38 JOB05958  $HASP373 PJG#PATH STARTED - INIT 3    - CLASS E - SYS SYSB
 09.43.38 JOB05958  ***  HCMD      STEP $$QUIET
 09.43.38 JOB05958  PURGE * Q=OUTPUT MULTIPLE
 09.43.38 JOB05958  JOB PJG#PATH NOT IN OUTPUT QUEUE
 09.43.39 JOB05958  PJG#PATH.$$QUIET .         RC=0008 TapeIO=0000 DiskIO=0000 CPU=  .01s Elapsed=18.41s
 09.43.39 JOB05958  PJG#PATH.$CND    .         RC=Zero TapeIO=0000 DiskIO=0002 CPU=  .01s Elapsed=19.45s
 09.43.39 JOB05958  PJG#PATH.$UNP    .         RC=Zero TapeIO=0000 DiskIO=0024 CPU=  .05s Elapsed=19.56s
 09.43.44 JOB05958  PJG#PATH.ASM     .         RC=Zero TapeIO=0000 DiskIO=0421 CPU= 2.76s Elapsed=19.78s
 09.43.45 JOB05958  PJG#PATH.$EDIT   .         RC=Zero TapeIO=0000 DiskIO=0170 CPU=  .64s Elapsed=24.11s
 09.43.45 JOB05958  PJG#PATH Ended.  Name=Module: PATH                   Total CPU= 3.47s Elapsed=18.41s
 09.43.45 JOB05958
 09.43.45 JOB05958  Execution charges   Priority=Standard   Block=Day
 09.43.45 JOB05958
 09.43.45 JOB05958  CPU Usage          63.93          $39.63   Standard Processing Unit Equivalent
 09.43.45 JOB05958                                   =======
 09.43.45 JOB05958                                    $39.63   Total Job execution charge
 09.43.45 JOB05958
 09.43.45 JOB05958  See back separator page for print charges
 09.43.45 JOB05958
 09.43.45 JOB05958  $HASP395 PJG#PATH ENDED  ASM=0
1        1 //PJG#PATH JOB PJG$GG,'Module: PATH',TIME=1,MSGCLASS=C                  JOB05958
           /*JOBPARM HOLD=OUTPUT,LINES=50,CHARS=TN15,NOTIFY=YES
         2 //       EXEC PURGEOLD
         3 XXPURGEOLD PROC
           XX*
           XX* This proc is maintained by Jim Stosick
           XX*
         4 XX$$QUIET  EXEC PGM=HCMDX,PARM='PURGE * Q=OUTPUT MULTIPLE',
           XX         ACCT=(PURGEOLD,SYS3)
         5 //$CND   EXEC PGM=BILBO,REGION=512K,PARM='RECS=100'
         6 //STEPLIB  DD DSN=WYL.GG.ORV.LINKLIB,DISP=SHR
         7 //SYSPRINT DD SYSOUT=$
         8 //SYSUT1   DD DSN=WYL.GG.PJG.OBJ,DISP=OLD
         9 //SYSUT2   DD DSN=WYL.GG.PJG.OBJ,DISP=OLD
        10 //SYSIN    DD DUMMY
        11 //$UNP   EXEC PGM=WUNPRESS,PARM='NUM'
        12 //SYSPRINT DD SYSOUT=$
        13 //SYSUT1   DD DSN=WYL.GG.ORV.SOURCE(PATH),DISP=SHR
        14 //SYSUT2   DD DSN=&&INPUT,DISP=(,PASS),UNIT=SYSDA,
           //            SPACE=(TRK,(25,25),RLSE),DCB=CARD
        15 //ASM    EXEC PGM=ASMA90,REGION=8M,COND=(0,NE,$UNP),
           //            PARM=('SYSPARM(PATH),TERM,LANG(EN),OBJ',
           //          'LC(32500),XREF(SHORT),NODECK,NORLD,NODX,NOUS')
           //*STEPLIB  DD DSN=SYS1.SASMMOD1,DISP=SHR
        16 //SYSLIB   DD DSN=SYS3.DUMMYMAC,DISP=SHR,DCB=BLKSIZE=27920
        17 //         DD DSN=WYL.GG.ORV.MACLIB,DISP=SHR
        18 //         DD DSN=WYL.GG.SYS.MACLIB,DISP=SHR
        19 //         DD DSN=SYS3.MACLIB,DISP=SHR
        20 //SYSUT1   DD DSN=&&SYSUT1,UNIT=VIO,DISP=(,DELETE),
           //            SPACE=(4088,(500,250),,CONTIG,ROUND)
        21 //SYSTERM  DD SYSOUT=$
        22 //SYSPRINT DD DSN=&&PRINT,UNIT=SYSDA,DISP=(,PASS),
           //            SPACE=(6650,(250,250),RLSE),
           //            DCB=(BLKSIZE=6650,LRECL=133,RECFM=FB)
        23 //SYSLIN   DD DSN=WYL.GG.PJG.OBJ(PATH),DISP=OLD
        24 //SYSUDUMP DD SYSOUT=A
        25 //SYSIN    DD DSN=&&INPUT,DISP=(OLD,DELETE)
        26 //$EDIT  EXEC PGM=ASMEDIT,REGION=1M,
           //            COND=EVEN,PARM='STMT,DATA'
        27 //STEPLIB  DD DSN=WYL.GG.SYS.LINKLIB,DISP=SHR
        28 //ASMOUT   DD DSN=&&PRINT,DISP=(OLD,DELETE)
        29 //SYSPRINT DD SYSOUT=A
        30 //SYSUDUMP DD SYSOUT=A
1 STMT NO. MESSAGE
         2 IEFC001I PROCEDURE PURGEOLD WAS EXPANDED USING SYSTEM LIBRARY SYS3.BETAPROC
        14 IGD01010I STORCLAS= TEMP STORGROUP =
        14 IGD01010I STORGRP=VIO ASSIGNED.
        20 IGD01010I STORCLAS= TEMP STORGROUP =
        20 IGD01010I STORGRP=VIO ASSIGNED.
        22 IGD01010I STORCLAS= TEMP STORGROUP =
        22 IGD01010I STORGRP=VIO ASSIGNED.
 ICH70001I GG$PJG   LAST ACCESS AT 09:43:33 ON MONDAY, MARCH 22, 2004
 IEF142I PJG#PATH $$QUIET - STEP WAS EXECUTED - COND CODE 0008
 *********************************************************************************
 *   PJG#PATH/$$QUIET /                    Return Code      0008                 *
 *   Region used      260K (16K user + 244K system)                              *
 *   Extended region  9352K (4K user + 9348K system)                             *
 *                                                                               *
 *   Paging              In      Out                                             *
 *   Private <-> Aux      0        0       CPU time (TCB)   00:00:00.01          *
 *   Private <-> Exp      0        0       CPU time (SRB)   00:00:00.00          *
 *   VIO                  0        0       Elapsed time    920:44:14.55          *
 *   Common               0      ---                                             *
 *                                                                               *
 *                                                                               *
 *   CPU Usage          0.18         $0.11  Standard Processing Unit Equivalent  *
 *                                   $0.11  Total Step execution charge          *
 *                                                                               *
 *    I/O count  DDname   Type Addr           I/O count  DDname   Type Addr      *
 *                         *** No I/O for this step ***                          *
 *********************************************************************************
 IEF373I STEP/$$QUIET /START 2004082.0943
 IEF374I STEP/$$QUIET /STOP  2004082.0943 CPU    0MIN 00.01SEC SRB    0MIN 00.00SEC VIRT    16K SYS   244K EXT       4K SYS    9348K
 IEF236I ALLOC. FOR PJG#PATH $CND
 IEF237I 0401 ALLOCATED TO STEPLIB
 IEF237I JES2 ALLOCATED TO SYSPRINT
 IEF237I 04DC ALLOCATED TO SYSUT1
 IEF237I 04DC ALLOCATED TO SYSUT2
 IEF237I DMY  ALLOCATED TO SYSIN
 IEF142I PJG#PATH $CND - STEP WAS EXECUTED - COND CODE 0000
 IEF285I   WYL.GG.ORV.LINKLIB                           KEPT
 IEF285I   VOL SER NOS= SYSB01.
 IEF285I   GG$PJG.PJG#PATH.JOB05958.D0000101.?          SYSOUT
 IEF285I   WYL.GG.PJG.OBJ                               KEPT
 IEF285I   VOL SER NOS= SYSB05.
 IEF285I   WYL.GG.PJG.OBJ                               KEPT
 IEF285I   VOL SER NOS= SYSB05.
 *********************************************************************************
 *   PJG#PATH/$CND    /                    Return Code      Zero                 *
 *   Region used      280K (16K user + 264K system)                              *
 *   Extended region  9392K (4K user + 9388K system)                             *
 *                                                                               *
 *   Paging              In      Out                                             *
 *   Private <-> Aux      0        0       CPU time (TCB)   00:00:00.01          *
 *   Private <-> Exp      0        0       CPU time (SRB)   00:00:00.00          *
 *   VIO                  0        0       Elapsed time    920:44:13.51          *
 *   Common               0      ---                                             *
 *                                                                               *
 *                                                                               *
 *   CPU Usage          0.18         $0.11  Standard Processing Unit Equivalent  *
 *                                   $0.11  Total Step execution charge          *
 *                                                                               *
 *    I/O count  DDname   Type Addr           I/O count  DDname   Type Addr      *
 *            2  STEPLIB  Disk 0401                   0  SYSPRINT      ----      *
 *            0  SYSUT1   Disk 04DC                   0  SYSUT2   Disk 04DC      *
 *            0  SYSIN         ----                                              *
 *********************************************************************************
 IEF373I STEP/$CND    /START 2004082.0943
 IEF374I STEP/$CND    /STOP  2004082.0943 CPU    0MIN 00.01SEC SRB    0MIN 00.00SEC VIRT    16K SYS   264K EXT       4K SYS    9388K
 IEF236I ALLOC. FOR PJG#PATH $UNP
 IEF237I JES2 ALLOCATED TO SYSPRINT
 IEF237I 0402 ALLOCATED TO SYSUT1
 IGD101I SMS ALLOCATED TO DDNAME (SYSUT2  )
         DSN (SYS04082.T094338.RA000.PJG#PATH.INPUT.H01   )
         STORCLAS (TEMP) MGMTCLAS (        ) DATACLAS (        )
         VOL SER NOS= SCR101
 IEF142I PJG#PATH $UNP - STEP WAS EXECUTED - COND CODE 0000
 IEF285I   GG$PJG.PJG#PATH.JOB05958.D0000102.?          SYSOUT
 IEF285I   WYL.GG.ORV.SOURCE                            KEPT
 IEF285I   VOL SER NOS= SYSB02.
 IGD106I SYS04082.T094338.RA000.PJG#PATH.INPUT.H01    PASSED,    DDNAME=SYSUT2
 *********************************************************************************
 *   PJG#PATH/$UNP    /                    Return Code      Zero                 *
 *   Region used      380K (108K user + 272K system)                             *
 *   Extended region  9468K (4K user + 9464K system)                             *
 *                                                                               *
 *   Paging              In      Out                                             *
 *   Private <-> Aux      0        0       CPU time (TCB)   00:00:00.05          *
 *   Private <-> Exp      0        0       CPU time (SRB)   00:00:00.00          *
 *   VIO                  0        0       Elapsed time    920:44:13.40          *
 *   Common               0      ---                                             *
 *                                                                               *
 *                                                                               *
 *   CPU Usage          0.93         $0.57  Standard Processing Unit Equivalent  *
 *                                   $0.57  Total Step execution charge          *
 *                                                                               *
 *    I/O count  DDname   Type Addr           I/O count  DDname   Type Addr      *
 *            0  SYSPRINT      ----                   3  SYSUT1   Disk 0402      *
 *           21  SYSUT2   Disk 04E3                                              *
 *********************************************************************************
 IEF373I STEP/$UNP    /START 2004082.0943
 IEF374I STEP/$UNP    /STOP  2004082.0943 CPU    0MIN 00.05SEC SRB    0MIN 00.00SEC VIRT   108K SYS   272K EXT       4K SYS    9464K
 IEF236I ALLOC. FOR PJG#PATH ASM
 IEF237I 0402 ALLOCATED TO SYSLIB
 IEF237I 0402 ALLOCATED TO
 IEF237I 04DC ALLOCATED TO
 IEF237I 0402 ALLOCATED TO
 IGD101I SMS ALLOCATED TO DDNAME (SYSUT1  )
         DSN (SYS04082.T094338.RA000.PJG#PATH.SYSUT1.H01  )
         STORCLAS (TEMP) MGMTCLAS (        ) DATACLAS (        )
         VOL SER NOS= VIO
 IEF237I JES2 ALLOCATED TO SYSTERM
 IGD101I SMS ALLOCATED TO DDNAME (SYSPRINT)
         DSN (SYS04082.T094338.RA000.PJG#PATH.PRINT.H01   )
         STORCLAS (TEMP) MGMTCLAS (        ) DATACLAS (        )
         VOL SER NOS= SCR101
 IEF237I 04DC ALLOCATED TO SYSLIN
 IEF237I JES2 ALLOCATED TO SYSUDUMP
 IGD103I SMS ALLOCATED TO DDNAME SYSIN
 IEF142I PJG#PATH ASM - STEP WAS EXECUTED - COND CODE 0000
 IEF285I   SYS3.DUMMYMAC                                KEPT
 IEF285I   VOL SER NOS= SYSB02.
 IEF285I   WYL.GG.ORV.MACLIB                            KEPT
 IEF285I   VOL SER NOS= SYSB02.
 IEF285I   WYL.GG.SYS.MACLIB                            KEPT
 IEF285I   VOL SER NOS= SYSB05.
 IEF285I   SYS3.MACLIB                                  KEPT
 IEF285I   VOL SER NOS= SYSB02.
 IGD105I SYS04082.T094338.RA000.PJG#PATH.SYSUT1.H01   DELETED,   DDNAME=SYSUT1
 IEF285I   GG$PJG.PJG#PATH.JOB05958.D0000103.?          SYSOUT
 IGD106I SYS04082.T094338.RA000.PJG#PATH.PRINT.H01    PASSED,    DDNAME=SYSPRINT
 IEF285I   WYL.GG.PJG.OBJ                               KEPT
 IEF285I   VOL SER NOS= SYSB05.
 IEF285I   GG$PJG.PJG#PATH.JOB05958.D0000104.?          SYSOUT
 IGD105I SYS04082.T094338.RA000.PJG#PATH.INPUT.H01    DELETED,   DDNAME=SYSIN
 *********************************************************************************
 *   PJG#PATH/ASM     /                    Return Code      Zero                 *
 *   Region used      8484K (8192K user + 292K system)                           *
 *   Extended region  9952K (412K user + 9540K system)                           *
 *                                                                               *
 *   Paging              In      Out                                             *
 *   Private <-> Aux      0        0       CPU time (TCB)   00:00:02.72          *
 *   Private <-> Exp      0        0       CPU time (SRB)   00:00:00.04          *
 *   VIO                  0        0       Elapsed time    920:44:13.18          *
 *   Common               0      ---                                             *
 *                                                                               *
 *                                                                               *
 *   CPU Usage         51.00        $31.62  Standard Processing Unit Equivalent  *
 *                                  $31.62  Total Step execution charge          *
 *                                                                               *
 *    I/O count  DDname   Type Addr           I/O count  DDname   Type Addr      *
 *           97  SYSLIB   Disk 0402                   0  SYSLIB   Disk 0402      *
 *          130  SYSLIB   Disk 04DC                   0  SYSLIB   Disk 0402      *
 *            0  SYSUT1   VIO  ----                   0  SYSTERM       ----      *
 *          167  SYSPRINT Disk 04E3                   5  SYSLIN   Disk 04DC      *
 *            0  SYSUDUMP      ----                  22  SYSIN    Disk 04E3      *
 *********************************************************************************
 IEF373I STEP/ASM     /START 2004082.0943
 IEF374I STEP/ASM     /STOP  2004082.0943 CPU    0MIN 02.72SEC SRB    0MIN 00.04SEC VIRT  8192K SYS   292K EXT     412K SYS    9540K
 IEF236I ALLOC. FOR PJG#PATH $EDIT
 IEF237I 0402 ALLOCATED TO STEPLIB
 IGD103I SMS ALLOCATED TO DDNAME ASMOUT
 IEF237I JES2 ALLOCATED TO SYSPRINT
 IEF237I JES2 ALLOCATED TO SYSUDUMP
 IEF142I PJG#PATH $EDIT - STEP WAS EXECUTED - COND CODE 0000
 IEF285I   WYL.GG.SYS.LINKLIB                           KEPT
 IEF285I   VOL SER NOS= SYSB02.
 IGD105I SYS04082.T094338.RA000.PJG#PATH.PRINT.H01    DELETED,   DDNAME=ASMOUT
 IEF285I   GG$PJG.PJG#PATH.JOB05958.D0000105.?          SYSOUT
 IEF285I   GG$PJG.PJG#PATH.JOB05958.D0000106.?          SYSOUT
 *********************************************************************************
 *   PJG#PATH/$EDIT   /                    Return Code      Zero                 *
 *   Region used      388K (116K user + 272K system)                             *
 *   Extended region  9476K (4K user + 9472K system)                             *
 *                                                                               *
 *   Paging              In      Out                                             *
 *   Private <-> Aux      0        0       CPU time (TCB)   00:00:00.62          *
 *   Private <-> Exp      0        0       CPU time (SRB)   00:00:00.02          *
 *   VIO                  0        0       Elapsed time    920:44:08.85          *
 *   Common               0      ---                                             *
 *                                                                               *
 *                                                                               *
 *   CPU Usage         11.62         $7.20  Standard Processing Unit Equivalent  *
 *                                   $7.20  Total Step execution charge          *
 *                                                                               *
 *    I/O count  DDname   Type Addr           I/O count  DDname   Type Addr      *
 *            2  STEPLIB  Disk 0402                 168  ASMOUT   Disk 04E3      *
 *            0  SYSPRINT      ----                   0  SYSUDUMP      ----      *
 *********************************************************************************
 IEF373I STEP/$EDIT   /START 2004082.0943
 IEF374I STEP/$EDIT   /STOP  2004082.0943 CPU    0MIN 00.62SEC SRB    0MIN 00.02SEC VIRT   116K SYS   272K EXT       4K SYS    9472K
 *********************************************************************************
 *                                                                               *
 *                      S t a n f o r d   U n i v e r s i t y                    *
 *                                                                               *
 *                              *** Job Summary ***                              *
 *                                                                               *
 *   System Id      SYSB                   Input time     09:38:25  Mar 22, 2004 *
 *                                                                               *
 *   System Release SP6.1.0                Start time     09:43:38  Mar 22, 2004 *
 *                                                                               *
 *   Job name       PJG#PATH               Stop  time     00:00:00  Mar 22, 2004 *
 *                                                                               *
 *   Account        PJG$GG                 Elapsed time  920:44:14.55            *
 *                                                                               *
 *   User Name      Module: PATH           CPU time       00:00:03.41            *
 *                                                                               *
 *   Job class      E                      SRB Time       00:00:00.06            *
 *                                                                               *
 *********************************************************************************
 IEF375I  JOB/PJG#PATH/START 2004082.0943
 IEF376I  JOB/PJG#PATH/STOP  2004082.0943 CPU    0MIN 03.41SEC SRB    0MIN 00.06SEC
1Data set successfully converted from EDIT to FB format
1Assembler Done PATH No Statements Flagged
1         High Level Assembler Option Summary                   (PTF UQ57391)                                               Page    1
-                                                                                            HLASM R4.0  2004/03/22 09.43
0  No Overriding ASMAOPT Parameters
   Overriding Parameters-  SYSPARM(PATH),TERM,LANG(EN),OBJ,LC(32500),XREF(SHORT),NODECK,NORLD,NODX,NOUS
   No Process Statements


   Options for this Assembly
0  NOADATA
     ALIGN
   NOASA
     BATCH
     CODEPAGE(047C)
   NOCOMPAT
   NODBCS
 3 NODECK
 3 NODXREF
     ESD
   NOEXIT
     FLAG(0,ALIGN,CONT,NOIMPLEN,NOPAGE0,PUSH,RECORD,NOSUBSTR,USING0)
   NOFOLD
   NOGOFF
   NOINFO
 3   LANGUAGE(EN)
   NOLIBMAC
 3   LINECOUNT(32500)
     LIST(121)
     MXREF(SOURCE)
 3   OBJECT
     OPTABLE(UNI,NOLIST)
   NOPCONTROL
   NOPESTOP
   NOPROFILE
   NORA2
   NORENT
 3 NORLD
     RXREF
     SIZE(MAX)
 3   SYSPARM(PATH)
 3   TERM(WIDE)
   NOTEST
     THREAD
   NOTRANSLATE
 3 NOUSING
 3   XREF(SHORT)

   No Overriding DD Names

1PATH     External Symbol Dictionary                                                                                        Page    2
-Symbol   Type   Id     Address  Length     LD ID  Flags Alias-of                            HLASM R4.0  2004/03/22 09.43
0PATH      SD 00000001 00000000 00001A02             06
 PATH00    LD          00000000           00000001
 M1PATH    LD          00000022           00000001
 ATTACH14  LD          00000148           00000001
 READ14    LD          0000028A           00000001
 DOREAD14  LD          00000418           00000001
 DOMOVE14  LD          0000064E           00000001
 TCREATE   ER 00000002
 SIGNAL    ER 00000003
 VMGET     ER 00000004
 PAGFIX    ER 00000005
 IOSIDGET  ER 00000006
 IOSDOIO   ER 00000007
 PAGUFIX   ER 00000008
 IOSIDFRE  ER 00000009
 VMFREE    ER 0000000A
 WRITE14   LD          000007C2           00000001
 OWRITE14  LD          0000092A           00000001
 HALT14    LD          00000A9A           00000001
 DETACH14  LD          00000AEA           00000001
 ASLOCK    ER 0000000B
 ASULOCK   ER 0000000C
 THTASK14  LD          00000C2C           00000001
 DONOTE14  LD          00001072           00000001
 EWUPCB14  LD          00001128           00000001
 ELUPCB14  LD          000012C0           00000001
 OPINFO14  LD          00001454           00000001
 LPINFO14  LD          00001526           00000001
 IODONE14  LD          0000157C           00000001
 DOTIME14  LD          00001614           00000001
 ANTIME14  LD          000016A6           00000001
 PTIOCX14  LD          000016EA           00000001
 TTIMEX14  LD          00001770           00000001
 ADDSEG14  LD          000017C4           00000001
 VALBUF14  LD          00001886           00000001
 TRCD14    LD          00001918           00000001
 EXRADD    ER 0000000D
 XITMASK   ER 0000000E
 AWAIT     ER 0000000F
 TEXIT     ER 00000010
 XITNEW    ER 00000011
 XITDEL    ER 00000012
 ACAINFO   ER 00000013
 XITDO     ER 00000014
 RTSET     ER 00000015
 RTCAN     ER 00000016
 EXRDONE   ER 00000017
 PAGTPROT  ER 00000018

1PATH     Orvyl SCOM Path Manager                                                                                           Page    3
0Loc    Object Code    Addr1 Addr2  Stmt Lv Lineno    Source Statement                    (Asmedit 3.3)  HLASM R4.0  2004/03/22 09.43
+___    ______ ____    _____ _____  ____ __ ______    ______ _________
0                                      2       2.              COPY  HEADER
                                       3             =*********************************************************************
                                       4             =*                                                                   *
                                       5             =*                                                                   *
                                       6             =*                          M P - O R V Y L                          *
                                       7             =*                                                                   *
                                       8             =*       ORVYL - Release 5.0 - Class I - Stanford Proprietary        *
                                       9             =*                                                                   *
                                      10             =*                                                                   *
                                      11             =*********************************************************************
-
-                                     13             =         SPLEVEL SET=2
                                      16             =         HIBAL ASSOC=YES
-
                                     998             =*
                                     999             =* REGISTER CONVENTIONS (USE ONLY THE SYMBOLS)
                                    1000             =*
                                    1001             =*                     CLASS  USAGE
                                    1002             =*                     -----  -----------------------------
                                    1003             =RVR      REG   0        1    RETURN VALUE REGISTER
                                    1015             =RS       REG   1        *    SCRATCH
                                    1027             =RA       REG   2        *    SCRATCH
                                    1039             =RB       REG   3        *    SCRATCH
                                    1051             =RJ       REG   4        *    SCRATCH
                                    1063             =RK       REG   5        *    SCRATCH
                                    1075             =RX       REG   6        *    SCRATCH
                                    1087             =RY       REG   7        *    SCRATCH
                                    1099             =RM       REG   8        *    SCRATCH
                                    1111             =RN       REG   9        *    SCRATCH (In Guest)
                                    1123             =RTCBR    REG   9        -    POINTER TO THE RTCB (In Host)
                                    1135             =BR       REG   10       -    FIRST BASE REGISTER
                                    1147             =BRR      REG   11       -    SECOND BASE REGISTER
                                    1159             =WAR      REG   12       -    WORK AREA POINTER
                                    1171             =SPR      REG   13       -    STACK TOP POINTER
                                    1183             =RAR      REG   14       1    RETURN ADDRESS REGISTER
                                    1195             =EPAR     REG   15       1    ENTRY POINT ADDRESS
                                    1207             =*
                                    1208             =*      CLASS   MEANING
                                    1209             =*      -----   --------------------------------------------------
                                    1210             =*        *     Register may be freely used for scratch
                                    1211             =*        -     Register may not be used
                                    1212             =*        1     Available but may change on subroutine calls
                                    1213             =*
1PATH     Orvyl SCOM Path Manager                                                                                           Page    4
0D-Loc  Object Code    Addr1 Addr2  Stmt Lv Lineno    Source Statement           (Hibal 5, Asmedit 3.3)  HLASM R4.0  2004/03/22 09.43
+_____  ______ ____    _____ _____  ____ __ ______    ______ _________
0000000                00000 01A02  1215       3.     PATH     MODULE TRCNUM=14
                                    1225             +*
                                    1226    02-IDENT +         ENTRY PATH00
                                    1227             +
 000000 14D7C1E3C8F0F06B            1228    02-IDENT +PATH00   DC    AL1(20),C'PATH00,22MAR04,09:43'
                                    1229             +*
1PATH     (PATH00) (09:43) (22MAR04) Global Control Blocks                                                                  Page    5
0Loc    Object Code    Addr1 Addr2  Stmt Lv Lineno    Source Statement           (Hibal 5, Asmedit 3.3)  HLASM R4.0  2004/03/22 09.43
+___    ______ ____    _____ _____  ____ __ ______    ______ _________
0                                   1232       5.              COPY  PZERO
 000000                00000 00280  1233             =PZERO    RECORD BEGIN
                                    1241  1          =*
                                    1242  1          =* Real Page 0.  Each CPU has its own copy of this area.
                                    1243  1          =*
-                                   1245  1          =****************************************************************
                                    1246  1          =*               Fields Fixed by the Architecture               *
                                    1247  1          =*               ********************************               *
                                    1248  1          =*                                                              *
 000000                             1249  1          =PZRSNPSW   DS    D             Restart new PSW                 *
 000008                             1250  1          =PZRSOPSW   DS    D             Restart old PSW                 *
 000010                             1251  1          =           DS    D                                             *
 000018                             1252  1          =PZEXOPSW   DS    D             External old PSW                *
 000020                             1253  1          =PZSVOPSW   DS    D             Supervisor old PSW              *
 000028                             1254  1          =PZPIOPSW   DS    D             Program old PSW                 *
 000030                             1255  1          =PZMCOPSW   DS    D             Machine check old PSW           *
 000038                             1256  1          =PZIOOPSW   DS    D             I/O old PSW                     *
 000040                             1257  1          =           DS    3D                                            *
 000058                             1258  1          =PZEXNPSW   DS    D             External new PSW                *
 000060                             1259  1          =PZSVNPSW   DS    D             Supervisor new PSW              *
 000068                             1260  1          =PZPINPSW   DS    D             Program new PSW                 *
 000070                             1261  1          =PZMCNPSW   DS    D             Machine check new PSW           *
 000078                             1262  1          =PZIONPSW   DS    D             I/O new PSW                     *
 000080                             1263  1          =           DS    F                                             *
 000084                             1264  1          =PZEXCPU    DS    H             CPU address for EXT int         *
 000086                             1265  1          =PZEXIC     DS    H             External interrupt code         *
 000088                             1266  1          =PZSVILC    DS    H             Supervisor call ILC             *
 00008A                             1267  1          =PZSVIC     DS    H             Supervisor interrupt code       *
 00008C                             1268  1          =PZPIILC    DS    H             Program ILC                     *
 00008E                             1269  1          =PZPIIC     DS    H             Program interrupt code          *
 000090                             1270  1          =PZTREXA    DS    A             Translation exception address   *
 000094                             1271  1          =PZMONCL    DS    H             Monitor Class number            *
 000096                             1272  1          =PZPERCD    DS    H             PER code                        *
 000098                             1273  1          =PZPERA     DS    A             PER Address                     *
 00009C                             1274  1          =PZMONCD    DS    A             Monitor Code                    *
 0000A0                             1275  1          =           DS    3D                                            *
 0000B8                             1276  1          =PZIOSID    DS    A             I/O subsystem ID word           *
 0000BC                             1277  1          =PZIOPRM    DS    A             I/O Parameter                   *
 0000C0                             1278  1          =PZIOSCS    DS    A             I/O subchannel ending status    *
 0000C4                             1279  1          =           DS    A                                             *
 0000C8                             1280  1          =           DS    39D                                           *
                                    1281  1          =*                                                              *
                                    1282  1          =*            ***************************************           *
                                    1283  1          =*            End of Fields fixed by the architecture           *
                                    1284  1          =****************************************************************
1PATH     (PATH00) (09:43) (22MAR04) Global Control Blocks                                                                  Page    6
0D-Loc  Object Code    Addr1 Addr2  Stmt Lv Lineno    Source Statement           (Hibal 5, Asmedit 3.3)  HLASM R4.0  2004/03/22 09.43
+_____  ______ ____    _____ _____  ____ __ ______    ______ _________
0                                   1286  1          =*
                                    1287  1          =* Fields of general interest
                                    1288  1          =*
 000200                             1289  1          =PZMATP     DS    A             Address of the MAT
 000204                             1290  1          =           DS    A             ** Reserved **
 000208                             1291  1          =PZCURPID   DS    0D            Unique ID of the current process
 000208                             1292  1          =PZCURASB   DS    A             Addr of ASB for current Address space
 00020C                             1293  1          =PZCURTSK   DS    A             ID of current task in the Address space
 000210                             1294  1          =PZLCPUA    DS    A             Logical CPU address
 000214                             1295  1          =PZCPUMSK   DS    A             CPU address mask bit
 000218                             1296  1          =PZPSWM     DS    X             PSW mask for disabling
 000219                             1297  1          =           DS    X             ** Reserved **
                                    1298  1          =*
                                    1299  1          =* Termination/Trace information
                                    1300  1          =*
 00021A 00                          1301  1          =PZTERMFL   FLAG  ,             Termination flags
 PZTERMFL.PZABORT  80 ONES          1305  1          =           FLAG  PZABORT         ABORT macro issued
 PZTERMFL.PZATERM  40 ONES          1310  1          =           FLAG  PZATERM         Start termination processing
 00021B                             1315  1          =PZABSM     DS    X             Save area for system mask in ABORT
 00021C                             1316  1          =PZABR15    DS    A             Save area for R15 in an ABORT
 000220                             1317  1          =PZTZOFF    DS    D             Time zone offset
 000228                             1318  1          =           DS    22A           ** Reserved **
                                    1319  1          =*         DS    24A           ** Reserved **
 000280                00280 00280  1320             =         END   ,
 USING  PZERO,R0                    1329       6.              USING (PZERO,R0)
1PATH     (PATH00) (09:43) (22MAR04) Global Control Blocks                                                                  Page    7
0Current Usings:  (PZERO,R0)
0Loc    Object Code    Addr1 Addr2  Stmt Lv Lineno    Source Statement           (Hibal 5, Asmedit 3.3)  HLASM R4.0  2004/03/22 09.43
+___    ______ ____    _____ _____  ____ __ ______    ______ _________
0                                   1340       8.              COPY  MAT
                                    1341             =*****************************************************************
                                    1342             =*                                                               *
                                    1343             =*        *** M A S T E R   A D D R E S S   T A B L E ***        *
                                    1344             =*                                                               *
                                    1345             =*****************************************************************
-000000                00000 00100  1347             =MAT      RECORD BEGIN
                                    1355  1          =MATPTR     EQU   X'200',4,C'A' Address of the MAT in PZERO
 000000 D4C1E340                    1356  1          =           DC    CL4'MAT'      Control block ID
                                    1357  1          =*
                                    1358  1          =* Addresses of global control blocks
                                    1359  1          =*
 000004                             1360  1          =MATVMCB    DS    A             Virtual memory control block
 000008                             1361  1          =MATDCT     DS    A             Dispatcher control table
 00000C                             1362  1          =MATPAGCB   DS    A             Real memory control block
 000010                             1363  1          =MATM1CT    DS    A             CT for Mode 1 users
 000014                             1364  1          =MATLCT     DS    A             Lock manager control table
 000018                             1365  1          =MATQCT     DS    A             Queue manager control table
 00001C                             1366  1          =MATIOCB    DS    A             I/O Manager control block
 000020                             1367  1          =MATSBWB    DS    A             System buffer wait blocks
 000024                             1368  1          =MATGTCT    DS    A             Terminal global control table
 000028                             1369  1          =MATFILCB   DS    A             File master control table
 00002C                             1370  1          =MATJESCB   DS    A             JES master control table
 000030                             1371  1          =MATSYSCB   DS    A             System task control table
 000034                             1372  1          =MATACCT    DS    A             Accounting control table
 000038                             1373  1          =MATGRCT    DS    A             General Resource control table
 00003C                             1374  1          =MATGNCT    DS    A             Global Network Control table
 000040                             1375  1          =MATTECB    DS    D             Termination wait ECB
 000048                             1376  1          =           DS    25A           Reserved
                                    1377  1          =*
                                    1378  1          =* Control Block Chains
                                    1379  1          =*
 0000AC                             1380  1          =MATASBS    DS    A             Pointer to chain of ASBs
 0000B0                             1381  1          =MATASBL    DS    A             Id of suspend lock for ASB chain
 0000B4                             1382  1          =           DS    8A            **  RESERVED
                                    1383  1          =*
                                    1384  1          =* Control information
                                    1385  1          =*
 0000D4                             1386  1          =MATSNAME   DS    CL8           System Name
 0000DC                             1387  1          =MATPAGFN   DS    A             Current value of the Paging function
 0000E0                             1388  1          =MATSKEY    DS    X             SYSTEM storage key (in high 4 bits)
 0000E1                             1389  1          =MATUKEY    DS    X             USER storage key
                                    1390= 1          =           ¿þþþþþþþþþþþþþþþþþþþþþþþþþþþþþþþþÜ
                                    1391= 1          =           Ÿ  Information about the Kernel  Ÿ
                                    1392= 1          =           ¾þþþþþþþþþþþþþþþþþþþþþþþþþþþþþþþþ»
 0000E4                             1393  1          =MATKSTRT   DS    A             Starting address of the Kernel
 0000E8                             1394  1          =MATKMAP    DS    A             Address of the Kernel map
 0000EC                             1395  1          =MATKMAPL   DS    A             Length of the Kernel map
1PATH     (PATH00) (09:43) (22MAR04) Global Control Blocks                                                                  Page    8
0Current Usings:  (PZERO,R0)
0Loc    Object Code    Addr1 Addr2  Stmt Lv Lineno    Source Statement           (Hibal 5, Asmedit 3.3)  HLASM R4.0  2004/03/22 09.43
+___    ______ ____    _____ _____  ____ __ ______    ______ _________
0                                   1396= 1          =           ¿þþþþþþþþþþþþþþþþþþþþþþþþþÜ
                                    1397= 1          =           Ÿ  Failsoft information.  Ÿ
                                    1398= 1          =           ¾þþþþþþþþþþþþþþþþþþþþþþþþþ»
 0000F0                             1399  1          =MATNCLPE   DS    F             Number of CLP errors
 0000F4                             1400  1          =MATNFAIL   DS    F             Number of failsofts
 0000F8                             1401  1          =           DS    2A            Reserved
 000100                00100 00100  1402             =         END
1PATH     (PATH00) (09:43) (22MAR04) Global Control Blocks                                                                  Page    9
0Current Usings:  (PZERO,R0)
0Loc    Object Code    Addr1 Addr2  Stmt Lv Lineno    Source Statement           (Hibal 5, Asmedit 3.3)  HLASM R4.0  2004/03/22 09.43
+___    ______ ____    _____ _____  ____ __ ______    ______ _________
0                                   1412      10.              COPY  ASB
 000000                00000 00044  1413             =ASB      RECORD BEGIN
 000000 C1E2C240                    1421  1          =ASBID      DC    CL4'ASB'
 000004                             1422  1          =ASBNEXT    DS    A                       Next ASB in system
                                    1423  1          =*
                                    1424  1          =*  Load Address Space Parameters area
                                    1425  1          =*
 000008                             1426  1          =ASBLASP    DS    0D                      Load Addr Space Parms
 000008                             1427  1          =ASBPKM     DS    H                       Program Key Mask
 00000A                             1428  1          =ASBSASN    DS    H                       Secondary ASN
 00000C                             1429  1          =ASBAX      DS    H                       Authorization index
 00000E                             1430  1          =ASBPASN    DS    H                       Primary ASN
                                    1431  1          =ASBLPARM   EQU   3                       LASP parameter
                                    1432  1          =
 000010                             1433  1          =ASBSASB    DS    A                       Address of secondary ASB
 000014 00                          1434  1          =ASBGCFLG   FLAG  ,
 ASBGCFLG.ASBFGBLC 80 ONES          1438  1          =           FLAG  ASBFGBLC                This is ASB for global/common
 000015                             1443  1          =           DS    3X                      - Available -
                                    1444  1          =*
                                    1445  1          =*  Related control blocks
                                    1446  1          =*
 000018                             1447  1          =ASBVSCT    DS    A                       VSCT for the Address space
 00001C                             1448  1          =ASBASDB    DS    A                       AS dispatching block
 000020                             1449  1          =ASBPAGB    DS    A                       AS paging block
 000024                             1450  1          =ASBIOB     DS    A                       AS I/O block
 000028                             1451  1          =ASBENQ     DS    A                       AS Enqueue table
 00002C                             1452  1          =ASBM1SCP   DS    A                       Mode 1 SCP
 000030                             1453  1          =ASBTCCB    DS    A                       Terminal Control block
 000034                             1454  1          =ASBAIB     DS    A                       Accouting information
 000038                             1455  1          =ASBASFB    DS    A                       File services control block
 00003C                             1456  1          =ASBMSTR    DS    A                       AS Master Control block
 000040                             1457  1          =ASBNET     DS    A                       Local Network Control Block
                                    1458  1          =*ASBLW    DS    A     ** Temp RESMAN ** Lock waiting for
                                    1459  1          =*ASBLH    DS    A     ** Temp RESMAN ** Lock held
 000044                00044 00044  1460             =         END   ,
1PATH     (PATH00) (09:43) (22MAR04) Global Control Blocks                                                                  Page   10
0Current Usings:  (PZERO,R0)
0Loc    Object Code    Addr1 Addr2  Stmt Lv Lineno    Source Statement           (Hibal 5, Asmedit 3.3)  HLASM R4.0  2004/03/22 09.43
+___    ______ ____    _____ _____  ____ __ ______    ______ _________
0                                   1470      12.              COPY  DISPPARM
                                    1471             =*****************************************************************
                                    1472             =*                                                               *
                                    1473             =*  DISPPARM -- Parameters for the dispatcher global routines.   *
                                    1474             =*                                                               *
                                    1475             =*****************************************************************
-                                   1477             =*
                                    1478             =* Routines to indicate completion of a page or swap I/O
                                    1479             =*
 000000                00000 00004  1480             =@DISPPIOC RECORD BEGIN                 Page I/O completion parms
 000000                             1488  1          =@DPIOASB   DS    A                       ASB of completing I/O
 000004                00004 00004  1489             =         END   ,
0000000                00000 00004  1499             =@DISPSIOC RECORD BEGIN                 Swap I/O completion parms
 000000                             1507  1          =@DSIOASB   DS    A                       ASB of completing I/O
 000004                00004 00004  1508             =         END   ,
-                                   1518             =*
                                    1519             =* SUSPEND parameters
                                    1520             =*
0000000                00000 00009  1522             =@SUSPEND RECORD BEGIN
 000000                             1530  1          =@SUSPCTL   DS    0D            ID of the Control level suspended
 000000                             1531  1          =@SUSPID    DS    A             ID of the task/address space suspended
 000004                             1532  1          =@SUSPLC    DS    A             For tasks: Level of control suspended
 000008 00                          1533  1          =@SUSPFLG   FLAG  ,
 @SUSPFLG.@SUSPLNG 80 ONES          1537  1          =           FLAG  @SUSPLNG      This will be of long duration
 @SUSPFLG.@SUSPAS  40 ONES          1542  1          =           FLAG  @SUSPAS       Suspend the entire address space
 @SUSPFLG.@SUSPPLC 20 ONES          1547  1          =           FLAG  @SUSPPLC      Suspend previous level of control
 000009                00009 00009  1552             =         END   ,
-                                   1562             =*
                                    1563             =* RESUMAS/RESUMTS parameters
                                    1564             =*
0000000                00000 00008  1566             =@RESUME  RECORD BEGIN
 000000                             1574  1          =@RESCTL    DS    0D            ID of the unit of work to be resumed
 000000                             1575  1          =@RESUNIT   DS    A             Address of the ASB/task Id to resume
 000004                             1576  1          =@RESLC     DS    A             Level of control in a task
 000008                00008 00008  1577             =         END   ,
-                                   1587             =*
                                    1588             =* DISPSHLD/DISPSREL parmameters
                                    1589             =*
0000000                00000 00004  1591             =@DISPSWP RECORD BEGIN
 000000                             1599  1          =@DISPSAS   DS    A             Address of the ASB being manipulated
 000004                00004 00004  1600             =         END   ,
1PATH     (PATH00) (09:43) (22MAR04) Global Control Blocks                                                                  Page   11
0Current Usings:  (PZERO,R0)
0Loc    Object Code    Addr1 Addr2  Stmt Lv Lineno    Source Statement           (Hibal 5, Asmedit 3.3)  HLASM R4.0  2004/03/22 09.43
+___    ______ ____    _____ _____  ____ __ ______    ______ _________
0                                   1610             =*
                                    1611             =* ACREATE parameters
                                    1612             =*
0000000                00000 00008  1614             =@ACREATE RECORD BEGIN
 000000                             1622  1          =@ACRPSW    DS    D             Instruction address for task
 000008                00008 00008  1623             =         END   ,
-                                   1633             =*
                                    1634             =* TCREATE parameters
                                    1635             =*
0000000                00000 00015  1637             =@TCREATE RECORD BEGIN
 000000                             1645  1          =@TCRPSW    DS    D             Initial PSW for the task
 000008                             1646  1          =@TCRPARM   DS    2A            Parameter for the task
 000010                             1647  1          =@TCRPRIO   DS    A             Adjustment to priority from Current task
 000014 00                          1648  1          =@TCRFLAG   FLAG  ,             Task creation flags
 @TCRFLAG.@TCRFSTK 80 ONES          1652  1          =           FLAG  @TCRFSTK        Task entered with a stack
 @TCRFLAG.@TCRFPAB 40 ONES          1657  1          =           FLAG  @TCRFPABS       Prio is absolute
 000015                00015 00015  1662             =         END   ,
-                                   1672             =*
                                    1673             =* TREMOVE parameters
                                    1674             =*
0000000                00000 00004  1676             =@TREMOVE RECORD BEGIN
 000000                             1684  1          =@TREID     DS    A             ID of the task to be removed
 000004                00004 00004  1685             =         END   ,
-                                   1695             =*
                                    1696             =* TENTRY Parameters  (on entry to a created task)
                                    1697             =*
0000000                00000 00008  1699             =@TENTRY  RECORD BEGIN
 000000                             1707  1          =@TEPARM    DS    2A            Entry parm for the task
 000008                00008 00008  1708             =         END   ,
-                                   1718             =*
                                    1719             =* TEXIT parameters
                                    1720             =*
0000000                00000 00004  1722             =@TEXIT   RECORD BEGIN
 000000                             1730  1          =           DS    A             Not used
 000004                00004 00004  1731             =         END   ,
-                                   1741             =*
                                    1742             =* SYSRNEW -- Get a new SYSR ID
                                    1743             =*
1PATH     (PATH00) (09:43) (22MAR04) Global Control Blocks                                                                  Page   12
0Current Usings:  (PZERO,R0)
0Loc    Object Code    Addr1 Addr2  Stmt Lv Lineno    Source Statement           (Hibal 5, Asmedit 3.3)  HLASM R4.0  2004/03/22 09.43
+___    ______ ____    _____ _____  ____ __ ______    ______ _________
0000000                00000 00004  1745             =@SYSRNEW RECORD BEGIN
 000000                             1753  1          =           DS    A             Not used
 000004                00004 00004  1754             =         END   ,
-                                   1764             =*
                                    1765             =* SYSRDEL -- Delete a previous SYSR ID
                                    1766             =*
 000000                00000 00004  1767             =@SYSRDEL RECORD BEGIN
 000000                             1775  1          =@SYSRDID   DS    A             Id of the SYSR
 000004                00004 00004  1776             =         END   ,
-                                   1786             =*
                                    1787             =* SYSRDO -- Schedule a system routine to run in another address space
                                    1788             =*
0000000                00000 0001C  1790             =@SYSRDO  RECORD BEGIN
 000000                             1798  1          =@SYSRID    DS    A             Id from SYSRNEW
 000004                             1799  1          =@SYSRASB   DS    A             ASB of the Address space where it goes
 000008                             1800  1          =@SYSRLOC   DS    A             Location of the system routine
 00000C                             1801  1          =@SYSRPRM   DS    4A            Parameters for the routine
 00001C                0001C 0001C  1802             =         END   ,
-                                   1812             =*
                                    1813             =* SYSRTN -- Parameter passed to a system routine
                                    1814             =*
0000000                00000 00010  1816             =@SYSRTN  RECORD BEGIN
 000000                             1824  1          =@SYSPARS   DS    4A            Parameters
 000010                00010 00010  1825             =         END   ,
-                                   1835             =*
                                    1836             =* PERSET -- Set the Per registers
                                    1837             =*
0000000                00000 0000C  1839             =@PERSET  RECORD BEGIN
 000000                             1847  1          =@PERSDAT   DS    3F            3 Registers (corresponds to CRs 9-11)
 00000C                0000C 0000C  1848             =         END   ,
-                                   1858             =*
                                    1859             =* MONSET -- Set the MON masks
                                    1860             =*
0000000                00000 00002  1862             =@MONSET  RECORD BEGIN
 000000                             1870  1          =@MONSDAT   DS    H             Monitor Class Mask
 000002                00002 00002  1871             =         END   ,
-                                   1881             =*
                                    1882             =* DSPSTAT -- Return Dispatcher Statistics
1PATH     (PATH00) (09:43) (22MAR04) Global Control Blocks                                                                  Page   13
0Current Usings:  (PZERO,R0)
0Loc    Object Code    Addr1 Addr2  Stmt Lv Lineno    Source Statement           (Hibal 5, Asmedit 3.3)  HLASM R4.0  2004/03/22 09.43
+___    ______ ____    _____ _____  ____ __ ______    ______ _________
0                                   1883             =*
0000000                00000 00020  1885             =@DSPSTAT RECORD BEGIN
 000000                             1893  1          =@DSPSST    DS    D             TOD clock when system started
 000008                             1894  1          =@DSPSCHG   DS    D             Total CPU time charged (TOD)
 000010                             1895  1          =@DSPSDSP   DS    D             Dispatch CPU time (TOD)
 000018                             1896  1          =@DSPSIOS   DS    D             I/O Service time (TOD)
 000020                00020 00020  1897             =         END   ,
1PATH     (PATH00) (09:43) (22MAR04) Global Control Blocks                                                                  Page   14
0Current Usings:  (PZERO,R0)
0Loc    Object Code    Addr1 Addr2  Stmt Lv Lineno    Source Statement           (Hibal 5, Asmedit 3.3)  HLASM R4.0  2004/03/22 09.43
+___    ______ ____    _____ _____  ____ __ ______    ______ _________
0                                   1907      14.              COPY  LOCKPARM
                                    1908             =*******************************************************************
                                    1909             =*                                                                 *
                                    1910             =*    LOCKPARM - Lock routine calling parms                        *
                                    1911             =*                                                                 *
                                    1912             =*******************************************************************
0000000                00000 00011  1914             =@LOCKCRE RECORD BEGIN
 000000                             1922  1          =@LOCKNAM   DS    CL16          Name of the lock
 000010 00                          1923  1          =@LOCKFL    FLAG  ,
 @LOCKFL.@LFSPIN   80 ONES          1927  1          =           FLAG  @LFSPIN       Spin type lock
 000011                00011 00011  1932             =         END   ,
                                    1941             =*
 000000                00000 00004  1942             =@LOCKS   RECORD BEGIN
 000000                             1950  1          =@LOCKID    DS    A             Lock id
 000004                00004 00004  1951             =         END   ,
1PATH     (PATH00) (09:43) (22MAR04) Global Control Blocks                                                                  Page   15
0Current Usings:  (PZERO,R0)
0Loc    Object Code    Addr1 Addr2  Stmt Lv Lineno    Source Statement           (Hibal 5, Asmedit 3.3)  HLASM R4.0  2004/03/22 09.43
+___    ______ ____    _____ _____  ____ __ ______    ______ _________
0                                   1961      16.              COPY  IOSPARM
 000000                00000 0001E  1962             =@IOSDOIO RECORD BEGIN
 000000                             1970  1          =@IOSCHID   DS    A                       Subchannel ID
 000004                             1971  1          =@IOSID     DS    A                       I/O ID
 000008                             1972  1          =@IOSPID    DS    D                       Process ID
 000010                             1973  1          =@IOSCP     DS    A                       Channel program addr (VA)
 000014                             1974  1          =@IOSXID    DS    A                       Exit ID/Fast path rtn addr
 000018                             1975  1          =@IOSXPAR   DS    A                       Ending parameter
 00001C                             1976  1          =@IOSKEY    DS    X                       Key for I/O
 00001D 00                          1977  1          =@IOSF1     FLAG  ,
 @IOSF1.@IOSFSYNC  80 ONES          1981  1          =           FLAG  @IOSFSYNC               Do I/O synchronous
 @IOSF1.@IOSFAS    40 ONES          1986  1          =           FLAG  @IOSFAS                 | do AS waits for this I/O
 @IOSF1.@IOSFAST   20 ONES          1991  1          =           FLAG  @IOSFAST                Fast path I/O
 00001E                0001E 0001E  1996             =         END   ,
-000000                00000 00008  2006             =@IOTERM  RECORD BEGIN                  I/O termination routine parms
 000000                             2014  1          =@IOTPARM   DS    A                       Termination routine parameter
 000004                             2015  1          =@IOTEND    DS    A                       Ending status of operation
 000008                00008 00008  2016             =         END   ,
-000000                00000 00010  2026             =@IOSTIME RECORD BEGIN
 000000                             2034  1          =@IOSTID    DS    A                       I/O ID
 000008                             2035  1          =@IOSIOTIME   DS  D                       Time of this I/O
 000010                00010 00010  2036             =         END   ,
-000000                00000 00001  2046             =@IOSIDGET RECORD BEGIN
 000000 00                          2054  1          =@IOSIDF     FLAG   ,
 @IOSIDF.@IOSFWAIT 80 ONES          2058  1          =            FLAG   @IOSFWAIT             If need be, wait for id
 000001                00001 00001  2063             =          END    ,
-000000                00000 00004  2073             =@IOSIDFRE RECORD BEGIN
 000000                             2081  1          =@IOSFID     DS   A                       ID being freed
 000004                00004 00004  2082             =          END  ,
1PATH     (PATH00) (09:43) (22MAR04) Global Control Blocks                                                                  Page   16
0Current Usings:  (PZERO,R0)
0Loc    Object Code    Addr1 Addr2  Stmt Lv Lineno    Source Statement           (Hibal 5, Asmedit 3.3)  HLASM R4.0  2004/03/22 09.43
+___    ______ ____    _____ _____  ____ __ ______    ______ _________
0                                   2092             =         COPY  IORPARM
                                    2093             =*******************************************************************
                                    2094             =*                                                                 *
                                    2095             =*     @IORPARM - ORVYL I/O request parameters                     *
                                    2096             =*                                                                 *
                                    2097             =*******************************************************************
0000000                00000 00014  2099             =@IORB    RECORD BEGIN
 000000                             2107  1          =@IORRQID   DS    A                       Request ID
 000004                             2108  1          =@IOROFF    DS    A                       Offset (guest real to MVS)
 000008                             2109  1          =@IORPARM   DS    A                       Pointer to user parm list
 00000C                             2110  1          =@IORSCH    DS    A                       Subchannel (device ID)
 000010                             2111  1          =@IORKEY    DS    X                       Channel program protect key
 000011                             2112  1          =@IORCC     DS    X                       Condition code (returned)
 000012                             2113  1          =           DS    2X                      Reserved
 000014                00014 00014  2114             =         END   ,
-
                                    2124             =*******************************************************************
                                    2125             =*                                                                 *
                                    2126             =*     @IOUPARM - I/O Device id allocate request parameters        *
                                    2127             =*                                                                 *
                                    2128             =*******************************************************************
0000000                00000 00004  2130             =@IOUPARM RECORD BEGIN
 000000                             2138  1          =@IOUDEVT   DS    A
                                    2139  1          =*
                                    2140  1          =*  Device types
                                    2141  1          =*
                                    2142  1          =#IOUPAGE   EQU   4                       | paging
                                    2143  1          =#IOUSWAP   EQU   8                       | swap
                                    2144  1          =#IOUFILE   EQU   12                      | file
                                    2145  1          =#IOUSCOM   EQU   16                      | path
                                    2146  1          =#IOUJES    EQU   20                      | JES
                                    2147  1          =#IOUHSP    EQU   24                      | Standard hiperspace
                                    2148  1          =#IOUESO    EQU   28                      | Cached hiperspace
 000004                00004 00004  2149             =         END   ,
1PATH     (PATH00) (09:43) (22MAR04) Global Control Blocks                                                                  Page   17
0Current Usings:  (PZERO,R0)
0Loc    Object Code    Addr1 Addr2  Stmt Lv Lineno    Source Statement           (Hibal 5, Asmedit 3.3)  HLASM R4.0  2004/03/22 09.43
+___    ______ ____    _____ _____  ____ __ ______    ______ _________
0                                   2159      18.              COPY  SIGPARM
                                    2160             =*
                                    2161             =*  AWAIT/AWAITAS parameters
                                    2162             =*    For task based calls, the ECB is a double word.
                                    2163             =*    For address space based calls, the ECB is a word.
                                    2164             =*
 000000                00000 00005  2165             =@AWAIT   RECORD BEGIN
 000000                             2173  1          =@AWTECB    DS    A                       Address of ECB
 000004 00                          2174  1          =@AWTFLG    FLAG  ,
 @AWTFLG.@AWTLONG  80 ONES          2178  1          =           FLAG  @AWTLONG                Long term wait
 000005                00005 00005  2183             =         END   ,
0                                   2193             =*
                                    2194             =*  SIGNAL/SIGNALAS parameters
                                    2195             =*    For task based calls, the ECB and post code is a double word.
                                    2196             =*    For address space based calls, the ECB and post code is a word.
                                    2197             =*
 000000                00000 00014  2198             =@SIGNAL  RECORD BEGIN
 000000                             2206  1          =@SGCODE    DS    D                       Post code
 000008                             2207  1          =@SGECB     DS    A                       Address of ECB
                                    2208  1          =*  -- Parms for task signal --
                                    2209  1          =*    Zero ASB means post in this AS
                                    2210  1          =*    @PSSRID is only used for cross AS posts
 00000C                             2211  1          =@SGASB     DS    A                       ASB to be posted
 000010                             2212  1          =@SGSRID    DS    A                       System routine ID for cross
                                    2213  1          =*                                          AS posting
 000014                00014 00014  2214             =         END   ,
1PATH     (PATH00) (09:43) (22MAR04) Global Control Blocks                                                                  Page   18
0Current Usings:  (PZERO,R0)
0Loc    Object Code    Addr1 Addr2  Stmt Lv Lineno    Source Statement           (Hibal 5, Asmedit 3.3)  HLASM R4.0  2004/03/22 09.43
+___    ______ ____    _____ _____  ____ __ ______    ______ _________
0                                   2224      20.              COPY  TIMEPARM
                                    2225             =*****************************************************************
                                    2226             =*                                                               *
                                    2227             =*  TIMEPARM -- Parameters for the timer routines.               *
                                    2228             =*                                                               *
                                    2229             =*****************************************************************
-                                   2231             =*
                                    2232             =* Start a Real-time timer
                                    2233             =*
0000000                00000 00018  2235             =@RTSET   RECORD BEGIN
 000000                             2243  1          =@RTSCLK    DS    D             Time of day or interval in TOD format
 000008 00                          2244  1          =@RTSFLG    FLAG  ,             Request flags
 @RTSFLG.@RTSFINT  80 ONES          2248  1          =           FLAG  @RTSFINT       Interval timer
 00000C                             2253  1          =@RTSXIT    DS    A             ID of the Exit request
 000010                             2254  1          =@RTSPARM   DS    2A            Parms passed to the exit
 000018                00018 00018  2255             =         END   ,
-                                   2265             =*
                                    2266             =* Cancel (RTCAN) Or Check (RTCHK) a Real-time timer
                                    2267             =*
0000000                00000 00020  2269             =@RTCNCK  RECORD BEGIN        Cancel or Check
 000000                             2277  1          =@RTCID     DS    A             ID of the Timer
 000008                             2278  1          =@RTCCLK    DS    D             Interval until the clock expires
 000010                             2279  1          =@RTCPARM   DS    4A            Same as the parm area in exit
 000020                00020 00020  2280             =         END   ,
-                                   2290             =*
                                    2291             =* Layout of parms passed to the Real time timer exit
                                    2292             =*
0000000                00000 00010  2294             =RTEXIT   RECORD BEGIN
 000000                             2302  1          =RTXTID     DS    A             ID of the timer
 000004                             2303  1          =RTXXID     DS    A             ID of the timer Exit
 000008                             2304  1          =RTXPARM    DS    2A            Parms set when the timer was set
 000010                00010 00010  2305             =         END   ,
-                                   2315             =*
                                    2316             =* Start a CPU-time timer
                                    2317             =*
0000000                00000 00014  2319             =@CPSET   RECORD BEGIN
 000000                             2327  1          =@CPSCLK    DS    D             Time of day or interval in TOD format
 000008                             2328  1          =@CPSXIT    DS    A             ID of the Exit request
 00000C                             2329  1          =@CPSPARM   DS    2A            Parms passed to the exit
 000014                00014 00014  2330             =         END   ,
1PATH     (PATH00) (09:43) (22MAR04) Global Control Blocks                                                                  Page   19
0Current Usings:  (PZERO,R0)
0Loc    Object Code    Addr1 Addr2  Stmt Lv Lineno    Source Statement           (Hibal 5, Asmedit 3.3)  HLASM R4.0  2004/03/22 09.43
+___    ______ ____    _____ _____  ____ __ ______    ______ _________
0                                   2340             =*
                                    2341             =* Cancel (CPCAN) Or Check (CPCHK) a CPU-time timer
                                    2342             =*
0000000                00000 00020  2344             =@CPCNCK  RECORD BEGIN        Cancel or Check
 000000                             2352  1          =@CPCID     DS    A             ID of the Timer
 000008                             2353  1          =@CPCCLK    DS    D             Interval until the clock expires
 000010                             2354  1          =@CPCPARM   DS    4A            Same as the parm area in exit
 000020                00020 00020  2355             =         END   ,
-                                   2365             =*
                                    2366             =* Layout of parms passed to the CPU-time timer exit
                                    2367             =*
0000000                00000 00010  2369             =CPEXIT   RECORD BEGIN
 000000                             2377  1          =CPXTID     DS    A             ID of the timer
 000004                             2378  1          =CPXXID     DS    A             ID of the timer Exit
 000008                             2379  1          =CPXPARM    DS    2A            Parms set when the timer was set
 000010                00010 00010  2380             =         END   ,
1PATH     (PATH00) (09:43) (22MAR04) Global Control Blocks                                                                  Page   20
0Current Usings:  (PZERO,R0)
0Loc    Object Code    Addr1 Addr2  Stmt Lv Lineno    Source Statement           (Hibal 5, Asmedit 3.3)  HLASM R4.0  2004/03/22 09.43
+___    ______ ____    _____ _____  ____ __ ______    ______ _________
0                                   2390      22.              COPY  VMPARM
                                    2391             =*******************************************************************
                                    2392             =*                                                                 *
                                    2393             =*    Memory parms for inside the virtual machine.                 *
                                    2394             =*                                                                 *
                                    2395             =*******************************************************************
-000000                00000 0000B  2397             =@VMGET   RECORD BEGIN        Parm area for getting virtual memory
 000000                             2405  1          =@VMGLEN    DS    A             Amount of memory needed
 000004                             2406  1          =@VMGDAT    DS    A             More data. Address or maxlen.
 000008                             2407  1          =@VMGPOOL   DS    H             Pool/Subpool to get the memory from
 00000A 00                          2408  1          =@VMGFLG    FLAG  ,
 @VMGFLG.@VMGPAGE  80 ONES          2412  1          =           FLAG  @VMGPAGE      Page Aligned
 @VMGFLG.@VMGONEP  40 ONES          2417  1          =           FLAG  @VMGONEP      Don't cross page boundary
 00000B                0000B 0000B  2422             =         END   ,
-000000                00000 0000A  2432             =@VMFREE  RECORD BEGIN        Used for VMFREE and VMCHECK
 000000                             2440  1          =@VMFLOC    DS    A             Location of the storage to free
 000004                             2441  1          =@VMFLEN    DS    A             Amount to free
 000008                             2442  1          =@VMFPOOL   DS    H             Pool/Subpool where the storage lives
 00000A                0000A 0000A  2443             =         END   ,
-000000                00000 00009  2453             =@VMINFO  RECORD BEGIN        Returns User address limits/hash val
 000000                             2461  1          =@VMIUST    DS    A             Start of the user address space
 000004                             2462  1          =@VMIULEN   DS    A             Length of the user address space
 000008                             2463  1          =@VMITRSH   DS    X             Trash value
 000009                00009 00009  2464             =         END   ,
1PATH     (PATH00) (09:43) (22MAR04) Global Control Blocks                                                                  Page   21
0Current Usings:  (PZERO,R0)
0Loc    Object Code    Addr1 Addr2  Stmt Lv Lineno    Source Statement           (Hibal 5, Asmedit 3.3)  HLASM R4.0  2004/03/22 09.43
+___    ______ ____    _____ _____  ____ __ ______    ______ _________
0                                   2474      24.              COPY  ACCTPARM
                                    2475             =*****************************************************************
                                    2476             =*                                                               *
                                    2477             =*  ACCTPARM -- Parameters for the Accounting Routines.          *
                                    2478             =*                                                               *
                                    2479             =*****************************************************************
-                                   2481             =*
                                    2482             =* Start accounting for an address space
                                    2483             =*
0000000                00000 0001C  2485             =@ACLOGON RECORD BEGIN
 000000                             2493  1          =@ACLASB    DS    A             ASB of the Address Space
 000004                             2494  1          =@ACLUID    DS    CL8           User ID
 00000C                             2495  1          =@ACLUPR    DS    A             User Privileges
 000010                             2496  1          =@ACLLOT    DS    D             TOD Clock at Logon
 000018                             2497  1          =@ACLTID    DS    A             Terminal ID
 00001C                0001C 0001C  2498             =         END   ,
-                                   2508             =*
                                    2509             =* Get accounting info for an address space.
                                    2510             =*
0000000                00000 00018  2512             =@ACAINFO RECORD BEGIN
 000000                             2520  1          =@ACAASB    DS    A             ASB of the address space
 000004                             2521  1          =@ACAUID    DS    CL8           User ID
 00000C                             2522  1          =@ACAUPR    DS    A             User Privileges
                                    2523  1          =MILPRIV    EQU   @ACAUPR+3     Milten priv byte *** TEMP ***
 000010                             2524  1          =@ACALOT    DS    D             TOD Clock at Logon
 000018                00018 00018  2525             =         END   ,
-                                   2535             =*
                                    2536             =* Get resource usage info for an address space
                                    2537             =*
0000000                00000 00028  2539             =@ACINFO  RECORD BEGIN
 000000                             2547  1          =@ACIASB    DS    A             ASB of the Address space
 000004                             2548  1          =@ACIIOS    DS    A             Number of I/O's
 000008                             2549  1          =@ACICPU    DS    D             CPU time (TOD)
 000010                             2550  1          =@ACICON    DS    D             Connect time (TOD)
 000018                             2551  1          =@ACIPGNM   DS    CL8           Program name
 000020                             2552  1          =@ACITID    DS    A             Terminal Identifier
 000024                             2553  1          =@ACIORG    DS    A             Shared program address
 000028                00028 00028  2554             =         END   ,
                                    2563             =*
                                    2564             =* Set program information
                                    2565             =*
0000000                00000 0000C  2567             =@ACPINFO RECORD BEGIN
 000000                             2575  1          =@ACPASB    DS    A             ASB of the Address space
 000004                             2576  1          =@ACPPGNM   DS    CL8           Program name
1PATH     (PATH00) (09:43) (22MAR04) Global Control Blocks                                                                  Page   22
0Current Usings:  (PZERO,R0)
0Loc    Object Code    Addr1 Addr2  Stmt Lv Lineno    Source Statement           (Hibal 5, Asmedit 3.3)  HLASM R4.0  2004/03/22 09.43
+___    ______ ____    _____ _____  ____ __ ______    ______ _________
000000C                0000C 0000C  2577             =         END   ,
                                    2586             =*
                                    2587             =* Set shared program information
                                    2588             =*
0000000                00000 00008  2590             =@ACSPINF RECORD BEGIN
 000000                             2598  1          =@ACSPASB   DS    A             ASB of the Address space
 000004                             2599  1          =@ACSPORG   DS    A             Shared program address
 000008                00008 00008  2600             =         END   ,
1PATH     (PATH00) (09:43) (22MAR04) Global Control Blocks                                                                  Page   23
0Current Usings:  (PZERO,R0)
0Loc    Object Code    Addr1 Addr2  Stmt Lv Lineno    Source Statement           (Hibal 5, Asmedit 3.3)  HLASM R4.0  2004/03/22 09.43
+___    ______ ____    _____ _____  ____ __ ______    ______ _________
0                                   2610      26.              COPY  PAGEPARM
                                    2611             =*
                                    2612             =*  Page fault return codes
                                    2613             =*
                                    2614             =@PFRINP  EQU   0                       Fault in progress
                                    2615             =@PFRADDR EQU   4                       Addressing exception
                                    2616             =@PFROK   EQU   8                       Fault resolved
                                    2617             =@PFRWAIT EQU   12                      Must wait for some resource
0000000                00000 00005  2619             =@PAGSWAP RECORD BEGIN
 000000                             2627  1          =@SWASB     DS    A                       Address of ASB being swapped
                                    2628  1          =* -- Return parameters --
 000004 00                          2629  1          =@SWFLG     FLAG  ,
 @SWFLG.@SWFINP    00 EQ            2633  1          =           FLAG  (@SWFINP,0,EQ)          Swap in progress
 @SWFLG.@SWFOK     04 EQ            2643  1          =           FLAG  (@SWFOK,4,EQ)           Swap done now
 @SWFLG.@SWFWAIT   08 EQ            2653  1          =           FLAG  (@SWFWAIT,8,EQ)         Must wait for some resource
 000005                00005 00005  2663             =         END   ,
0000000                00000 00004  2673             =@PAGSWADV RECORD BEGIN                 Give swap advice
 000000                             2681  1          =@ADVASB    DS    A                       ASB of advice
 000004                00004 00004  2682             =         END   ,
0000000                00000 0000D  2692             =@PAGWSMA RECORD BEGIN                  Working Set management
 000000                             2700  1          =@WSASB     DS    A                       ASB of AS to be managed
 000004                             2701  1          =@WSINT     DS    A                       Number of elapsed intervals
 000008                             2702  1          =@WSLIMIT   DS    A                       Maximum number of frames
 00000C 00                          2703  1          =@WSFLG     FLAG  ,
 @WSFLG.@WSFGLOB   80 ONES          2707  1          =           FLAG  @WSFGLOB                Manage Global AS
 00000D                0000D 0000D  2712             =         END   ,
0000000                00000 0000A  2722             =@PAGDEF  RECORD BEGIN                  Define a page
 000000                             2730  1          =@PDADDR    DS    A                       Page VA
 000004                             2731  1          =@PDLEN     DS    A                       Length of definition (bytes)
 000008                             2732  1          =@PDKEY     DS    X                       Storage key (+ key protect)
                                    2733  1          =* @PDHASH  DS    X                       Hash value for page
 000009 00                          2734  1          =@PDF1      FLAG  @PDFGLOB                In global memory
 @PDF1.@PDFGLOB    80 ONES
 @PDF1.@PDFPROT    40 ONES          2740  1          =           FLAG  @PDFPROT                Page table protection
 00000A                0000A 0000A  2745             =         END   ,
0000000                00000 0000A  2755             =@PAGSEGD RECORD BEGIN                  Define a segment
 000000                             2763  1          =@SDADDR    DS    A                       Segment address
 000004                             2764  1          =@SDLEN     DS    A                       Length of definition (bytes)
 000008                             2765  1          =@SDHASH    DS    X                       Hash value for segment
 000009 00                          2766  1          =@SDF1      FLAG  @SDFGLOB                In global memory
 @SDF1.@SDFGLOB    80 ONES
 00000A                0000A 0000A  2772             =         END   ,
0000000                00000 00008  2782             =@PAGASC1 RECORD BEGIN
 000000                             2790  1          =@ASCASB    DS    A                       ASB for AS being created
 000004                             2791  1          =@ASCWSLM   DS    A                       Maximum size of working set
 000008                00008 00008  2792             =         END   ,
0000000                00000 00005  2802             =@PAGASC2 RECORD BEGIN                  Address space creation
1PATH     (PATH00) (09:43) (22MAR04) Global Control Blocks                                                                  Page   24
0Current Usings:  (PZERO,R0)
0Loc    Object Code    Addr1 Addr2  Stmt Lv Lineno    Source Statement           (Hibal 5, Asmedit 3.3)  HLASM R4.0  2004/03/22 09.43
+___    ______ ____    _____ _____  ____ __ ______    ______ _________
0000000                             2810  1          =@ASCVA     DS    A                       Virtual address of 1st PT
 000004                             2811  1          =@ASCKEY    DS    X                       Storage key (+ key protect)
 000005                00005 00005  2812             =         END   ,
0000000                00000 00009  2822             =@PAGE    RECORD BEGIN                  General paging routine parms
 000000                             2830  1          =@PAGLOC    DS    A                       Virtual address
 000004                             2831  1          =@PAGLEN    DS    A                       Length (in bytes)
 000008                             2832  1          =@PAGKEY    DS    X                       Key - where required
                                    2833  1          =@PAGHASH   EQU   @PAGKEY                 Hash - where required
 000009                00009 00009  2834             =         END   ,
0000000                00000 00008  2844             =@PAGRV   RECORD BEGIN                  Real to virtual translation
 000000                             2852  1          =@PAGRVAD   DS    A                       Real addr to be translated
                                    2853  1          =* -- Return parms --
 000004                             2854  1          =@PAGRVASB   DS   A                       Address space block
 000008                00008 00008  2855             =         END   ,
0000000                00000 00004  2865             =@PAGINTV RECORD BEGIN                  Paging management interval
 000000                             2873  1          =@PAGINT    DS    A                       Number of intervals in cycle
 000004                00004 00004  2874             =         END   ,
0000000                00000 00008  2884             =@PAGINIT RECORD BEGIN                  Global initialization
 000000                             2892  1          =@PAGIASB   DS    A                       Global ASB address
 000004                             2893  1          =@PAGIMEG   DS    A                       Maximum number of bytes in VA
 000008                00008 00008  2894             =         END   ,
1PATH     (PATH00) (09:43) (22MAR04) Global Control Blocks                                                                  Page   25
0Current Usings:  (PZERO,R0)
0Loc    Object Code    Addr1 Addr2  Stmt Lv Lineno    Source Statement           (Hibal 5, Asmedit 3.3)  HLASM R4.0  2004/03/22 09.43
+___    ______ ____    _____ _____  ____ __ ______    ______ _________
0                                   2904      28.              COPY  XITPARM
                                    2905             =*****************************************************************
                                    2906             =*                                                               *
                                    2907             =*  XITPARM --  Parameters for the routines dealing with exit    *
                                    2908             =*              routine definition and execution.                *
                                    2909             =*                                                               *
                                    2910             =*****************************************************************
-                                   2912             =*
                                    2913             =*  @EXRADD -- Define a new exit routine.
                                    2914             =*
0000000                00000 00015  2916             =@EXRADD  RECORD BEGIN
 000000                             2924  1          =@EXRTYPE   DS    A             Exit type bit map
 000004                             2925  1          =@EXRQUAL   DS    A             Exit Qualifier
 000008                             2926  1          =@EXRPSW    DS    D             Exit PSW
 000010                             2927  1          =@EXRPARM   DS    A             Parm for the exit
 000014 00                          2928  1          =@EXRAFLG   FLAG  ,
 @EXRAFLG.@EXRAFQ  80 ONES          2932  1          =           FLAG  @EXRAFQ       Exit should be qualified
 @EXRAFLG.@EXRAFS  40 ONES          2937  1          =           FLAG  @EXRAFS       System exit (entered with a stack)
 000015                00015 00015  2942             =         END   ,
-                                   2952             =*
                                    2953             =*  @EXRDEL -- Remove an exit routine definition.
                                    2954             =*
0000000                00000 00004  2956             =@EXRDEL  RECORD BEGIN
 000000                             2964  1          =@EXRDID    DS    A             Exit routine ID
 000004                00004 00004  2965             =         END   ,
-                                   2975             =*
                                    2976             =*  @EXRDONE -- Complete exit processing.
                                    2977             =*
0000000                00000 00001  2979             =@EXRDONE RECORD BEGIN
 000000 00                          2987  1          =@EXRDCD    FLAG  ,
 @EXRDCD.@EXRDFIN  00 EQ            2991  1          =           FLAG  (@EXRDFIN,0,EQ)         No further processing needed
 @EXRDCD.@EXRDNXT  01 EQ            3001  1          =           FLAG  (@EXRDNXT,1,EQ)         Percolate the exit request
 000001                00001 00001  3011             =         END   ,
-                                   3021             =*
                                    3022             =*  @XITNEW -- Define a new exit request.
                                    3023             =*
0000000                00000 00001  3025             =@XITNEW  RECORD BEGIN
 000000 00                          3033  1          =@XITNFL    FLAG  ,
 @XITNFL.@XITNFG   80 ONES          3037  1          =           FLAG  @XITNFG       Global exit request
 000001                00001 00001  3042             =         END   ,
1PATH     (PATH00) (09:43) (22MAR04) Global Control Blocks                                                                  Page   26
0Current Usings:  (PZERO,R0)
0Loc    Object Code    Addr1 Addr2  Stmt Lv Lineno    Source Statement           (Hibal 5, Asmedit 3.3)  HLASM R4.0  2004/03/22 09.43
+___    ______ ____    _____ _____  ____ __ ______    ______ _________
0                                   3052             =*
                                    3053             =*  @XITDEL -- Delete an exit request
                                    3054             =*
0000000                00000 00004  3056             =@XITDEL  RECORD BEGIN
 000000                             3064  1          =@XITDID    DS    A             Exit request ID
 000004                00004 00004  3065             =         END   ,
-                                   3075             =*
                                    3076             =*  @XITDO -- Schedule an exit.
                                    3077             =*
 000000                00000 00020  3078             =@XITDO   RECORD BEGIN
 000000                             3086  1          =@XITRQID   DS    A             Request ID (from XITNEW)
 000004                             3087  1          =@XITTSK    DS    A             Task Id where this exit is to run
 000008                             3088  1          =@XITTYPE   DS    X             Exit type (Integer)
 00000C                             3089  1          =@XITQUAL   DS    A             Exit qualifier
 000010                             3090  1          =@XITPARM   DS    XL16          Exit parameter area
 000020                00020 00020  3091             =         END   ,
-                                   3101             =*
                                    3102             =*  @XITGPST -- Info about the status of the previous level of control
                                    3103             =*              used by XITGST and XITPST
                                    3104             =*
0000000                00000 00068  3106             =@XITGPST RECORD BEGIN
 000000                             3114  1          =@XITSPSW   DS    D             PSW
 000008                             3115  1          =@XITSGPR   DS    16F           GPRs
 000048                             3116  1          =@XITSFPR   DS    4D            FPRs
 000068                00068 00068  3117             =         END   ,
-                                   3127             =*
                                    3128             =*  @XITMASK -- Modify the current exit mask
                                    3129             =*
0000000                00000 00005  3131             =@XITMASK RECORD BEGIN
 000000                             3139  1          =@XITMSK    DS    A             Bit mask of the data
 000004 00                          3140  1          =@XITMREQ   FLAG  ,             Request type
 @XITMREQ.@XITMSO  00 EQ            3144  1          =           FLAG  (@XITMSO,0,EQ)  OR this data into the mask
 @XITMREQ.@XITMSN  01 EQ            3154  1          =           FLAG  (@XITMSN,1,EQ)  AND this data into the mask
 @XITMREQ.@XITMSS  02 EQ            3164  1          =           FLAG  (@XITMSS,2,EQ)  Store this data into the mask
 000005                00005 00005  3174             =         END   ,
-                                   3184             =*
                                    3185             =* Definition of the types of exits
                                    3186             =*
0                                   3188             =XITTPI   EQU    0          * Program interrupt
                                    3189             =XITTSVC  EQU    1          * Supervisor Call
                                    3190             =XITTRTC  EQU    2            Real time clock expiration
                                    3191             =XITTCTC  EQU    3            CPU time clock expiration
1PATH     (PATH00) (09:43) (22MAR04) Global Control Blocks                                                                  Page   27
0Current Usings:  (PZERO,R0)
0Loc    Object Code    Addr1 Addr2  Stmt Lv Lineno    Source Statement           (Hibal 5, Asmedit 3.3)  HLASM R4.0  2004/03/22 09.43
+___    ______ ____    _____ _____  ____ __ ______    ______ _________
0                                   3192             =XITTPER  EQU    4            Program Event
                                    3193             =XITTMON  EQU    5            Monitor Call
                                    3194             =XITTLGO  EQU    6            Logoff
                                    3195             =XITTR07  EQU    7            -- reserved --
                                    3196             =XITTATTN EQU    8            Attention
                                    3197             =XITTIOCN EQU    9            I/O Completed normally
                                    3198             =XITTIOCA EQU   10            I/O Completed abnormally
-                                   3200             =*
                                    3201             =* Definition of the exit mask
                                    3202             =*
0000000                00000 00004  3204             =XITMSKD  RECORD BEGIN
                                    3212  1          =
 000000 00                          3213  1          =MITMK1     FLAG  ,             First byte of the mask
 MITMK1.XITMPI     80 ONES          3217  1          =           FLAG  XITMPI          Program interrupt
 MITMK1.XITMSVC    40 ONES          3222  1          =           FLAG  XITMSVC         Supervisor Call
 MITMK1.XITMRTC    20 ONES          3227  1          =           FLAG  XITMRTC         Real time clock expiration
 MITMK1.XITMCTC    10 ONES          3232  1          =           FLAG  XITMCTC         CPU time clock expiration
 MITMK1.XITMPER    08 ONES          3237  1          =           FLAG  XITMPER         Program Event
 MITMK1.XITMMON    04 ONES          3242  1          =           FLAG  XITMMON         Monitor Call
 MITMK1.XITMLGO    02 ONES          3247  1          =           FLAG  XITMLGO         Logoff
 MITMK1.XITMR07    01 ONES          3252  1          =           FLAG  XITMR07         -- reserved --
                                    3257  1          =
 000001 00                          3258  1          =MITMK2     FLAG  ,             Second byte of the mask
 MITMK2.XITMATTN   80 ONES          3262  1          =           FLAG  XITMATTN        Attention
 MITMK2.XITMIOCN   40 ONES          3267  1          =           FLAG  XITMIOCN        I/O Completed normally
 MITMK2.XITMIOCA   20 ONES          3272  1          =           FLAG  XITMIOCA        I/O Completed abnormally
                                    3277  1          =
 000002 00                          3278  1          =MITMK3     FLAG  ,             Third byte of the mask
                                    3282  1          =
 000003 00                          3283  1          =MITMK4     FLAG  ,             Fourth byte of the mask
 000004                00004 00004  3287             =         END   ,
-                                   3297             =*
                                    3298             =* Definition of Exit routine entry data area
                                    3299             =*
0000000                00000 00004  3301             =@XITDATA RECORD BEGIN
 000000                             3309  1          =@XITDSA    DS    A             Pointer to XITSAREA (exit status area)
 000004                00004 00004  3310             =         END   ,
-                                   3320             =*
                                    3321             =* Definition of the Exit Status area
                                    3322             =*
0000000                00000 0001C  3324             =XITSAREA RECORD BEGIN
 000000                             3332  1          =XITSRPRM   DS    A             Parm value for the Routine
 000004                             3333  1          =XITSTYPE   DS    X             Type of the exit
 000008                             3334  1          =XITSQUAL   DS    A             Exit Qualifier
 00000C                             3335  1          =XITSXPRM   DS    XL16          Exit parameter area
1PATH     (PATH00) (09:43) (22MAR04) Global Control Blocks                                                                  Page   28
0Current Usings:  (PZERO,R0)
0Loc    Object Code    Addr1 Addr2  Stmt Lv Lineno    Source Statement           (Hibal 5, Asmedit 3.3)  HLASM R4.0  2004/03/22 09.43
+___    ______ ____    _____ _____  ____ __ ______    ______ _________
000001C                0001C 0001C  3336             =         END   ,
1PATH     (PATH00) (09:43) (22MAR04) Global Control Blocks                                                                  Page   29
0Current Usings:  (PZERO,R0)
0Loc    Object Code    Addr1 Addr2  Stmt Lv Lineno    Source Statement           (Hibal 5, Asmedit 3.3)  HLASM R4.0  2004/03/22 09.43
+___    ______ ____    _____ _____  ____ __ ______    ______ _________
0                                   3346      30.              COPY  UPTHPARM
                                    3347             =*****************************************************************
                                    3348             =*                                                               *
                                    3349             =*  PATHPARM -- Parameters dealing with SCOM SVC I/O.            *
                                    3350             =*                                                               *
                                    3351             =*****************************************************************
-                                   3353             =*
                                    3354             =*  M1PATH  --  Mode 1 path operation
                                    3355             =*
0000000                00000 00017  3357             =@M1PATH  RECORD BEGIN
 000000                             3365  1          =@M1PR01    DS    A             Contents of R1 at SVC time
 000004                             3366  1          =@M1PR14    DS    A             Contents of R14 at SVC time
 000008                             3367  1          =@M1PR15    DS    A             Contents of R15 at SVC time
 00000C                             3368  1          =@M1PRQID   DS    A             Request ID
 000010                             3369  1          =@M1PDVID   DS    A             Device ID
                                    3370  1          =
 000014                             3371  1          =@M1PPKEY   DS    X             PSW key of requestor
                                    3372  1          =
 000015 00                          3373  1          =@M1PTYPE   FLAG  ,             I/O type
 @M1PTYPE.@M1PATCH 04 EQ            3377  1          =           FLAG  (@M1PATCH,4,EQ)   Attach
 @M1PTYPE.@M1PREAD 08 EQ            3387  1          =           FLAG  (@M1PREAD,8,EQ)   Read
 @M1PTYPE.@M1PWRIT 0C EQ            3397  1          =           FLAG  (@M1PWRIT,12,EQ)  Write
 @M1PTYPE.@M1PHALT 10 EQ            3407  1          =           FLAG  (@M1PHALT,16,EQ)  Halt
 @M1PTYPE.@M1PDTCH 18 EQ            3417  1          =           FLAG  (@M1PDTCH,24,EQ)  Detach
                                    3427  1          =
 000016 00                          3428  1          =@M1PFL     FLAG  ,             I/O flags
 @M1PFL.@M1PWAIT   80 ONES          3432  1          =           FLAG  @M1PWAIT          Mode wait
 @M1PFL.@M1PM31    40 ONES          3437  1          =           FLAG  @M1PM31           User in 31 bit mode
 000017                00017 00017  3442             =         END   ,
-                                   3452             =*
                                    3453             =*   M1PIOCP -- This area maps the parm area of the SCOM
                                    3454             =*              I/O complete exit.
                                    3455             =*
-000000                00000 00010  3457             =@M1PIOCP RECORD BEGIN
 000000                             3465  1          =@M1PICRQ   DS    A             Request ID
 000004                             3466  1          =@M1PIR01   DS    A             Value of R1 to be returned to user
 000008                             3467  1          =@M1PIR14   DS    A             Value of R14 to be returned to user
 00000C                             3468  1          =@M1PIR15   DS    A             Value of R15 to be returned to user
                                    3469  1          =
                                    3470  1          =@M1PINRV   EQU   X'80'         Value should not be returned
 000010                00010 00010  3471             =         END   ,
-                                   3481             =*
                                    3482             =*   M1PATP  -- This area maps the parm area of the SCOM
                                    3483             =*              ATTN exit.
                                    3484             =*
1PATH     (PATH00) (09:43) (22MAR04) Global Control Blocks                                                                  Page   30
0Current Usings:  (PZERO,R0)
0Loc    Object Code    Addr1 Addr2  Stmt Lv Lineno    Source Statement           (Hibal 5, Asmedit 3.3)  HLASM R4.0  2004/03/22 09.43
+___    ______ ____    _____ _____  ____ __ ______    ______ _________
0000000                00000 0000C  3486             =@M1PATP  RECORD BEGIN
 000000                             3494  1          =@M1PATRQ   DS    A             Request ID passed at last I/O
 000004                             3495  1          =           DS    2A            Reserved
 00000C                0000C 0000C  3496             =         END   ,
1PATH     (PATH00) (09:43) (22MAR04) Global Control Blocks                                                                  Page   31
0Current Usings:  (PZERO,R0)
0Loc    Object Code    Addr1 Addr2  Stmt Lv Lineno    Source Statement           (Hibal 5, Asmedit 3.3)  HLASM R4.0  2004/03/22 09.43
+___    ______ ____    _____ _____  ____ __ ______    ______ _________
0                                   3506      32.              COPY  SCOMPARM
                                    3507             =*****************************************************************
                                    3508             =*                                                               *
                                    3509             =*  SCOMPARM -- I/O parameters for SCOM devices (paths)          *
                                    3510             =*                                                               *
                                    3511             =*****************************************************************
-                                   3513             =*
                                    3514             =* Prefix for every request
                                    3515             =*
0000000                00000 00004  3517             =#SCOMCMD RECORD BEGIN
 000000                             3525  1          =#SCCMD     DS    A             Request code
                                    3526  1          =*
                                    3527  1          =* SCOM I/O command codes
                                    3528  1          =*
                                    3529  1          =#SCCOPEN   EQU   4             Open the path
                                    3530  1          =#SCCCLOS   EQU   8             Close the path
                                    3531  1          =#SCCSEND   EQU   12            Send a buffer
                                    3532  1          =#SCCRECV   EQU   16            Receive a buffer
                                    3533  1          =#SCCPOST   EQU   32            Post partner
                                    3534  1          =#SCCINFO   EQU   36            Get info about the Path
                                    3535  1          =#SCCNOTE   EQU   40            Notify (Wait for post/Return flags)
                                    3536  1          =*
                                    3537  1          =* Ending status
                                    3538  1          =*
                                    3539  1          =#SCESOK    EQU   0             OK (OPEN,CLOS,POST,SEND,RECV,INFO)
                                    3540  1          =#SCESFQ    EQU   12            Full queue (SEND)
                                    3541  1          =#SCESNP    EQU   16            No partner (POST,SEND,RECV,INFO)
                                    3542  1          =#SCESBOM   EQU   20            Buffer over maximum (SEND)
                                    3543  1          =#SCESBS    EQU   24            Input buffer too small (RECV)
                                    3544  1          =#SCESIBP   EQU   28            Invalid buffer pointer (SEND,RECV)
                                    3545  1          =#SCESIAD   EQU   32            Invalid address (SEND,RECV)
 000004                00004 00004  3546             =         END   ,
-                                   3556             =*
                                    3557             =* SCOM Open request format
                                    3558             =*
0000000                00000 00020  3560             =#SCOPEN  RECORD BEGIN
 000000                             3568  1          =           DS    XL(L'#SCOMCMD)
 000004                             3569  1          =#SCOME     DS    CL8           My name
 00000C                             3570  1          =#SCOYOU    DS    CL8           Your name
 000014                             3571  1          =#SCOPASS   DS    CL4           Password
 000018                             3572  1          =#SCOBUFL   DS    A             Max size of outstanding receive buffs
 00001C                             3573  1          =#SCOINFO   DS    A             Pointer to Info Area
 000020                00020 00020  3574             =         END   ,
-                                   3584             =*
                                    3585             =* SCOM Close request format
                                    3586             =*
1PATH     (PATH00) (09:43) (22MAR04) Global Control Blocks                                                                  Page   32
0Current Usings:  (PZERO,R0)
0Loc    Object Code    Addr1 Addr2  Stmt Lv Lineno    Source Statement           (Hibal 5, Asmedit 3.3)  HLASM R4.0  2004/03/22 09.43
+___    ______ ____    _____ _____  ____ __ ______    ______ _________
0000000                00000 00004  3588             =#SCCLOSE RECORD BEGIN
 000000                             3596  1          =           DS    XL(L'#SCOMCMD)
 000004                00004 00004  3597             =         END   ,
-                                   3607             =*
                                    3608             =* SCOM Post request format
                                    3609             =*
0000000                00000 00004  3611             =#SCPOST  RECORD BEGIN
 000000                             3619  1          =           DS    XL(L'#SCOMCMD)
 000004                00004 00004  3620             =         END   ,
-                                   3630             =*
                                    3631             =* SCOM Send/Receive request format
                                    3632             =*
0000000                00000 00018  3634             =#SCSR    RECORD BEGIN
 000000                             3642  1          =           DS    XL(L'#SCOMCMD)
 000004                             3643  1          =#SCSRLEN   DS    A             Total length of the buffer
 000008                             3644  1          =#SCSRCT    DS    A             Number of segments
 00000C 00                          3645  1          =#SCSRFLG   FLAG
 #SCSRFLG.#SCRMORE 80 ONES          3649  1          =           FLAG  #SCRMORE      Additional buffers waiting (Receive)
 #SCSRFLG.#SCRNONE 40 ONES          3654  1          =           FLAG  #SCRNONE      No buffers were waiting (Receive)
 000010                             3659  1          =#SCSRRLN   DS    A             Actual length returned (Receive)
 000018                             3660  1          =#SCSRSEG   DS    0D            Start of the segments
 000018                00018 00018  3661             =         END   ,
-                                   3671             =*
                                    3672             =* SCOM Info request format
                                    3673             =*
0000000                00000 00010  3675             =#SCINFO  RECORD BEGIN
 000000                             3683  1          =           DS    XL(L'#SCOMCMD)
 000004                             3684  1          =#SCIPART   DS    CL8           Partner's name (path name)
 00000C                             3685  1          =#SCIASCB   DS    A             Address of the partner's ASCB (MVS virt)
 000010                00010 00010  3686             =         END   ,
-                                   3696             =*
                                    3697             =* SCOM Notify request format
                                    3698             =*
0000000                00000 00004  3700             =#SCNOTE  RECORD BEGIN
 000000                             3708  1          =           DS    XL(L'#SCOMCMD)
 000004                00004 00004  3709             =         END   ,
1PATH     (PATH00) (09:43) (22MAR04) Global Control Blocks                                                                  Page   33
0Current Usings:  (PZERO,R0)
0Loc    Object Code    Addr1 Addr2  Stmt Lv Lineno    Source Statement           (Hibal 5, Asmedit 3.3)  HLASM R4.0  2004/03/22 09.43
+___    ______ ____    _____ _____  ____ __ ______    ______ _________
0                                   3719      34.              COPY  PINFO
                                    3720=            =¿þþþþþþþþþþþþþþþþþþþþþþþþþþþþþþþþþþþþþþþþþþþþþþþþþþþþþþþþþþþþþþþþþþþþþÜ
                                    3721=            =Ÿ                                                                     Ÿ
                                    3722=            =Ÿ  USER PATH INFORMATION                                              Ÿ
                                    3723=            =Ÿ                                                                     Ÿ
                                    3724=            =Ÿ                                                                     Ÿ
                                    3725=            =Ÿ  Subsystems provides this information whenever they open user       Ÿ
                                    3726=            =Ÿ  paths.  The information is set with the Suzan SVC                  Ÿ
                                    3727=            =Ÿ  "SETINFO" call (a 1/88 Suzan SVC extension).                       Ÿ
                                    3728=            =Ÿ                                                                     Ÿ
                                    3729=            =Ÿ  Once a path is opened, a program can sense this information        Ÿ
                                    3730=            =Ÿ  for the partner's side of the path.                                Ÿ
                                    3731=            =Ÿ                                                                     Ÿ
                                    3732=            =Ÿ  Extended, 10/20/91, Niz                                            Ÿ
                                    3733=            =Ÿ  Caller ID added for Wings, 6/92, Niz                               Ÿ
                                    3734=            =Ÿ                                                                     Ÿ
                                                      ¾þþþþþþþþþþþþþþþþþþþþþþþþþþþþþþþþþþþþþþþþþþþþþþþþþþþþþþþþþþþþþþþþþþþþþ»
0000000                00000 00080  3735             =PINFO    RECORD BEGIN
 000000 D7C9D5C6                    3743  1          =           DC    CL4'PINF'           Self identification
 000004 00000000                    3744  1          =           DC    F'0'                Reserved
 000008 4040404040404040            3745  1          =PINFOSYS   DC    CL8' '              Subsystem name ("WYLBUR", etc.)
 000010 4040404040404040            3746  1          =PINFOACC   DC    CL8' '              User account ("gg.uuu")
 000018 4040404040404040            3747  1          =PINFOPRJ   DC    CL8' '              Project (subgroup)
 000020 40404040                    3748  1          =PINFOCAL   DC    CL4' '              Caller ID ("AUTH" or zeros)
 000024 00000000                    3749  1          =           DC    XL4'00'             Reserved
 000028 0000000000000000            3750  1          =           DC    2F'0'               Reserved
 000030 00                          3751  1          =PINFOIFL   FLAG  ,                   Copy of KWRIFL flags
 000031 00                          3755  1          =PINFOAFL   FLAG  ,                   Copy of KWRAFL flags
 000032 FFFF                        3759  1          =PINFOLNO   DC    H'-1'               Milten line-number (or -1)
 000034 00000000                    3760  1          =PINFOID    DC    F'0'                Milten session id
 000038 4040404040404040            3761  1          =PINFONAM   DC    CL20' '             User name
 00004C 4040404040404040            3762  1          =PINFONAMX   DC   CL20' '  (Expansion if name field expands)
 000060 0000000000000000            3763  1          =PINFOTAG   DC    XL16'00'            Session tag
 000070 0000000000000000            3764  1          =           DC    XL16'00'            Reserved
 000080                00080 00080  3765             =         END
                                    3774      35.     SCOMPLEN EQU   L'#SCSR+10*8            Room for 10 Segments
1PATH     (PATH00) (09:43) (22MAR04) Local Macros                                                                           Page   34
0Current Usings:  (PZERO,R0)
0Loc    Object Code    Addr1 Addr2  Stmt Lv Lineno    Source Statement           (Hibal 5, Asmedit 3.3)  HLASM R4.0  2004/03/22 09.43
+___    ______ ____    _____ _____  ____ __ ______    ______ _________
0                                   3776      37.              MACRO
                                    3777      38.     &L       FIX   &LOC,&LEN
                                    3778      39.     &L       PSET  @PAGE
                                    3779      40.              PMOV  @PAGLOC,&LOC,OP=LA
                                    3780      41.              PMOV  @PAGLEN,&LEN,OP=LA
                                    3781      42.              VCALL PAGFIX
                                    3782      43.              MEND
-                                   3784      45.              MACRO
                                    3785      46.     &L       UNFIX &LOC,&LEN
                                    3786      47.     &L       PSET  @PAGE
                                    3787      48.              PMOV  @PAGLOC,&LOC,OP=LA
                                    3788      49.              PMOV  @PAGLEN,&LEN,OP=LA
                                    3789      50.              VCALL PAGUFIX
                                    3790      51.              MEND
-                                   3792      53.              MACRO
                                    3793      54.     &L       ADDSG &LOC,&LEN,&PARM
                                    3794      55.     &L       PSET  @ADDSEG,CLEAR=NO
                                    3795      56.              PMOV  @ADDSLOC,&LOC,OP=LA
                                    3796      57.              PMOV  @ADDSLEN,&LEN,OP=LA
                                    3797      58.              PMOV  @ADDSPA,&PARM,OP=LA
                                    3798      59.              ACALL ADDSEG
                                    3799      60.              MEND  ,
-                                   3801      62.              MACRO
                                    3802      63.     &L       VALBUF &LOC,&LEN,&TYPE
                                    3803      64.     &L       PSET  @VALBUF
                                    3804      65.              PMOV  @VALBLOC,&LOC,OP=L
                                    3805      66.              PMOV  @VALBLEN,&LEN,OP=LH
                                    3806      67.              PMOV  @VALBKEY,UPRKEY,OP=IC
                                    3807      68.              AIF   ('&TYPE' NE 'W').NOWRT
                                    3808      69.              SET   @VALBWRT
                                    3809      70.     .NOWRT   ANOP
                                    3810      71.              ACALL VALBUF
                                    3811      72.              MEND
1PATH     (PATH00) (09:43) (22MAR04) Local Control Blocks                                                                   Page   35
0Current Usings:  (PZERO,R0)
0Loc    Object Code    Addr1 Addr2  Stmt Lv Lineno    Source Statement           (Hibal 5, Asmedit 3.3)  HLASM R4.0  2004/03/22 09.43
+___    ______ ____    _____ _____  ____ __ ______    ______ _________
0                                   3813      74.     *****************************************************************
                                    3814      75.     *                                                               *
                                    3815      76.     *    UPCB  --  User Path Control block.  This contains all the  *
                                    3816      77.     *              info about a user path.                          *
                                    3817      78.     *                                                               *
                                    3818      79.     *****************************************************************
-000000                00000 00090  3820      81.     UPCB     RECORD BEGIN
 000000 E4D7C3C2                    3828  1   82.                DC    C'UPCB'       Control block ID
                                    3829  1   83.     *
                                    3830  1   84.     * Path I/O information
                                    3831  1   85.     *
 000004                             3832  1   86.     UPATHID    DS    A             Device ID of the path
 000008                             3833  1   87.     UPIOCB     DS    A             Addr of an I/O control block for notify
 00000C                             3834  1   88.     UPIOPA     DS    A             I/O parameter area
                                    3835  1   89.     *
                                    3836  1   90.     * Path status
                                    3837  1   91.     *
 000010 00                          3838  1   92.     UPPFLG     FLAG  ,             Path status flags (same as PATHFL)
 UPPFLG.CLOSED     80 ONES          3842  1   93.                FLAG  CLOSED          The path closed
 UPPFLG.FULLQE     40 ONES          3847  1   94.                FLAG  FULLQE          His full queue emptied
 UPPFLG.NEWINFO    20 ONES          3852  1   95.                FLAG  NEWINFO         New information pending
 UPPFLG.DISCPOST   10 ONES          3857  1   96.                FLAG  DISCPOST        Discretionary post
 UPPFLG.OPENED     08 ONES          3862  1   97.                FLAG  OPENED          The partner opened his end
                                    3867  1   98.     *
                                    3868  1   99.     * Work task info
                                    3869  1  100.     *
 000011 00                          3870  1  101.     UPWFLG     FLAG  ,             Wakeup flags
 UPWFLG.IOCOMP     80 ONES          3874  1  102.                FLAG  IOCOMP          The notify request has completed
 UPWFLG.DOHALT     40 ONES          3879  1  103.                FLAG  DOHALT          A halt request has been issued
 UPWFLG.TIMEUP     20 ONES          3884  1  104.                FLAG  TIMEUP          The timer expired
 UPWFLG.TIMEST     10 ONES          3889  1  105.                FLAG  TIMEST          Timer needs to be started
 UPWFLG.TIMERUN    08 ONES          3894  1  106.                FLAG  TIMERUN         A timer is running
 UPWFLG.CLOSING    04 ONES          3899  1  107.                FLAG  CLOSING         The path will be closing up
 UPWFLG.OPENING    02 ONES          3904  1  108.                FLAG  OPENING         The path is opening up
 000018                             3909  1  109.     UPECB      DS    D             Control Block for waiting
 000020                             3910  1  110.     UPNIOPA    DS    A             Address of the notify parm area
                                    3911  1  111.     *
                                    3912  1  112.     * Other static info
                                    3913  1  113.     *
 000024                             3914  1  114.     UPATSK     DS    A             Task ID of the Attaching Task
 000028                             3915  1  115.     UPIOXID    DS    A             Exit ID for I/O complete
 00002C                             3916  1  116.     UPNXID     DS    A             Exit ID for the Notify I/O
 000030                             3917  1  117.     UPATXID    DS    A             Exit ID for attention
 000034                             3918  1  118.     UPTOXID    DS    A             Exit ID for timeout
 000038                             3919  1  119.     UPMAXBUF   DS    A             Size of maximum buffer
 00003C                             3920  1  120.     UPNME      DS    CL8           Name for this side of the path
 000044                             3921  1  121.     UPNYOU     DS    CL8           Name for that side of the path
 00004C                             3922  1  122.     UPNPASS    DS    CL4           Password for the path
                                    3923  1  123.     *
                                    3924  1  124.     * Current Request info
                                    3925  1  125.     *
 000050                             3926  1  126.     UPCRID     DS    A             Current request ID
1PATH     (PATH00) (09:43) (22MAR04) Local Control Blocks                                                                   Page   36
0Current Usings:  (PZERO,R0)
0Loc    Object Code    Addr1 Addr2  Stmt Lv Lineno    Source Statement           (Hibal 5, Asmedit 3.3)  HLASM R4.0  2004/03/22 09.43
+___    ______ ____    _____ _____  ____ __ ______    ______ _________
0000054                             3927  1  127.     UPCR01     DS    A             Request register 1
 000058                             3928  1  128.     UPCR14     DS    A             Request register 14
 00005C                             3929  1  129.     UPCR15     DS    A             Request register 15
 000060 00                          3930  1  130.     UPCTYPE    FLAG  ,             Flags for work task(same as @M1PTYPE)
 UPCTYPE.IDLE      00 EQ            3934  1  131.                FLAG  (IDLE,00,EQ)     No I/O active on work task
 UPCTYPE.UPTATCH   04 EQ            3944  1  132.                FLAG  (UPTATCH,04,EQ)  Attach
 UPCTYPE.UPTREAD   08 EQ            3954  1  133.                FLAG  (UPTREAD,08,EQ)  Read
 UPCTYPE.UPTWRIT   0C EQ            3964  1  134.                FLAG  (UPTWRIT,12,EQ)  Write
 UPCTYPE.UPTHALT   10 EQ            3974  1  135.                FLAG  (UPTHALT,16,EQ)  Halt
 UPCTYPE.UPTDTCH   14 EQ            3984  1  136.                FLAG  (UPTDTCH,20,EQ)  Detach
 000061 00                          3994  1  137.     UPRFLGS    FLAG  ,             Other flags
 UPRFLGS.UPMWAIT   80 ONES          3998  1  138.                FLAG  UPMWAIT          Wait mode I/O request
 UPRFLGS.UPMTRUNC  40 ONES          4003  1  139.                FLAG  UPMTRUNC         Truncate mode
                                    4008  1  140.
 000062                             4009  1  141.     UPRKEY     DS    X             Requestor's PSW key
 000064                             4010  1  142.     UPBUFLOC   DS    A             Location of the requestor's buffer
 000068                             4011  1  143.     UPBUFLEN   DS    A             Length of the requestor's buffer
                                    4012  1  144.
 00006C                             4013  1  145.     UPRR01     DS    A             Return register 1
 000070                             4014  1  146.     UPRR14     DS    A             Return register 14
 000074                             4015  1  147.     UPRR15     DS    A             Return register 15
                                    4016  1  148.
 000078                             4017  1  149.     UPTOVAL    DS    D             Timeout value (TOD)
 000080                             4018  1  150.     UPTOID     DS    A             Timer ID
                                    4019  1  151.     *
                                    4020  1  152.     * Unread data pointers
                                    4021  1  153.     *
 000084                             4022  1  154.     UPRLOC     DS    A             Location of the buffer
 000088                             4023  1  155.     UPRLEN     DS    A             Length of the data in the buffer
 00008C                             4024  1  156.     UPROFF     DS    A             Current offset into the buffer
 000090                00090 00090  4025     157.              END   ,
1PATH     (PATH00) (09:43) (22MAR04) Local Control Blocks                                                                   Page   37
0Current Usings:  (PZERO,R0)
0Loc    Object Code    Addr1 Addr2  Stmt Lv Lineno    Source Statement           (Hibal 5, Asmedit 3.3)  HLASM R4.0  2004/03/22 09.43
+___    ______ ____    _____ _____  ____ __ ______    ______ _________
0                                   4035     159.     *
                                    4036     160.     * General parm area for passing the UPCB address
                                    4037     161.     *
0000000                00000 00005  4039     163.     @UPCBP   RECORD BEGIN
 000000                             4047  1  164.     @UPCB      DS    A             UPCB addr
 000004 00                          4048  1  165.     @UPCF      FLAG  ,
 @UPCF.@UPCFM31    80 ONES          4052  1  166.                FLAG  @UPCFM31      User in 31 bit mode
 000005                00005 00005  4057     167.              END   ,
-                                   4067     169.     *
                                    4068     170.     * Parm area for Validating addresses
                                    4069     171.     *
0000000                00000 00008  4071     173.     @VALBUF  RECORD BEGIN
 000000                             4079  1  174.     @VALBLOC   DS    A             Location of the buffer
 000004                             4080  1  175.     @VALBLEN   DS    H             Length of the buffer
 000006                             4081  1  176.     @VALBKEY   DS    X             Key under which to check buffers
 000007 00                          4082  1  177.     @VALBFL    FLAG  ,
 @VALBFL.@VALBWRT  80 ONES          4086  1  178.                FLAG  @VALBWRT      Need write access to the buffer
 000008                00008 00008  4091     179.              END   ,
-                                   4101     181.     *
                                    4102     182.     * Parm area for passing the PINFO address
                                    4103     183.     *
0000000                00000 00004  4105     185.     @PINFO   RECORD BEGIN
 000000                             4113  1  186.     @PINFOP    DS    A             PINFO addr
 000004                00004 00004  4114     187.              END   ,
1PATH     (PATH00) (09:43) (22MAR04) Main Entry                                                                             Page   38
0Current Usings:  (PZERO,R0)
0Loc    Object Code    Addr1 Addr2  Stmt Lv Lineno    Source Statement           (Hibal 5, Asmedit 3.3)  HLASM R4.0  2004/03/22 09.43
+___    ______ ____    _____ _____  ____ __ ______    ______ _________
0                                   4124     189.     *****************************************************************
                                    4125     190.     *                                                               *
                                    4126     191.     *   M1PATH --  This routine is the main entry point for mode 1  *
                                    4127     192.     *              path requests.  Different routines are called,   *
                                    4128     193.     *              depending on the type of the request.            *
                                    4129     194.     *                                                               *
                                    4130     195.     *   Input  --  @M1PATH                                          *
                                    4131     196.     *                                                               *
                                    4132     197.     *  Output  --  none                                             *
                                    4133     198.     *                                                               *
                                    4134     199.     *****************************************************************
-000016                             4136     201.     M1PATH   PROC  @M1PATH,SCOPE=GLOBAL
 000016 D4F1D7C1E3C84040            4142             +
 00001E 0018/0000                   4143             +
 000022 900F D004/18AF       00004  4145             +
 USING  M1PATH,R10
 000028 50D0 C000/18CD       00000  4160             +
 00002E 9680 C000      00000        4162             +
 USING  @M1PATH-72,R12
 000032 41D0 C060            00060  4176             +
                                    4177     202.     *
                                    4178     203.     * Get the UPCB.  If this is an attach, we get a new one.
                                    4179     204.     *
 000036 9504 C05D      00015        4180     205.              IF    @M1PATCH,BEGIN
 00003A 4770 A028            0004A  4190             +
 00003E 58F0 A71E/0DEF       00740  4195  1  206.                ACALL NEWUPCB                 Get a new one
 000044 1860                        4202  1  207.                LR    RX,RVR                  Get the control block
 000046 5060 C058            00010  4203  1  208.                ST    RX,@M1PDVID             Save the device ID
 00004A A02C           0004A 0003C  4204     209.              END   ELSE,'L RX,@M1PDVID'    Otherwise he tells us
 00004A 47F0 A030            00052  4213             +
 00004E 5860 C058            00010  4220             +
 000052                             4225     210.              IF    (@RX,NE,'UPCB'),'ABORT BADUPCB'
 000052 D503 A722 6000 00744 00000  4235             +
 000058 4780 A06A            0008C  4236             +
 00005C AC04 021B      0021B        4245  1          +
 000060 9680 021A      0021A        4251  1          +
 000064 50F0 021C            0021C  4252  1          +
 000068 58F0 0210            00210  4253  1          +
 00006C 89F0 0010            00010  4254  1          +
 000070 88F0 0010            00010  4255  1          +
 000074 41F0 F000            00000  4256  1          +
 000078 AEFF 0006            00006  4257  1          +
 00007C C2C1C4E4D7C3C240            4258             +
 USING  UPCB,R6                     4263     211.              WITH  (UPCB,RX)
                                    4276     212.     *
                                    4277     213.     * Fill in the UPCB with all the info passed.
                                    4278     214.     *
 00008C D203 6050 C054 00050 0000C  4279     215.              MVC   UPCRID,@M1PRQID         Request ID
 000092 D203 6054 C048 00054 00000  4280     216.              MVC   UPCR01,@M1PR01
 000098 D203 6058 C04C 00058 00004  4281     217.              MVC   UPCR14,@M1PR14
 00009E D203 605C C050 0005C 00008  4282     218.              MVC   UPCR15,@M1PR15
 0000A4 D200 6062 C05C 00062 00014  4283     219.              MVC   UPRKEY,@M1PPKEY
1PATH     (PATH00) (09:43) (22MAR04) Main Entry                                                                             Page   39
0Current Usings:  (PZERO,R0) (UPCB,R6) (M1PATH,R10) (@M1PATH-72,R12)
0Loc    Object Code    Addr1 Addr2  Stmt Lv Lineno    Source Statement           (Hibal 5, Asmedit 3.3)  HLASM R4.0  2004/03/22 09.43
+___    ______ ____    _____ _____  ____ __ ______    ______ _________
00000AA 9200 6061      00061        4284     220.              CLEAR UPRFLGS                 Clear request flags
 0000AE 9180 C05E      00016        4291     221.              IF    @M1PWAIT,'SET UPMWAIT'  Mode Wait
 0000B2 47E0 A098            000BA  4301             +
 0000B6 9680 6061      00061        4312             +
 0000BA A09C           000BA 000B4  4317     222.              ELSE  'CLEAR UPMWAIT'
 0000BA 47F0 A0A0            000C2  4322             +
 0000BE 947F 6061      00061        4335             +
                                    4340     223.     *
                                    4341     224.     * Figure out what needs to be done
                                    4342     225.     *
 USING  @UPCBP-72,R13               4343     226.              PSET  @UPCBP                  Common parm area
 0000C2 D704 D048 D048 00000 00000  4360             +
 0000C8 9140 C05E      00016        4361     227.              IF    @M1PM31,'SET @UPCFM31'
 0000CC 47E0 A0B2            000D4  4371             +
 0000D0 9680 D04C      00004        4382             +
 0000D4 5060 D048            00000  4387     228.              ST    RX,@UPCB                control block address
 0000D8 1F11/4310 C05D       00015  4388     229.              LC    RS,@M1PTYPE             Get the request type
 0000DE 1211/4780 A0CA       000EC  4395     230.              IF    ((RS,Z),OR,(RS,GE,TTLEN)),'ABORT BADM1PTYPE'
 0000E4 5910 A726            00748  4419             +
 0000E8 4750 A0FA            0011C  4420             +
 0000EC AC04 021B      0021B        4429  1          +
 0000F0 9680 021A      0021A        4435  1          +
 0000F4 50F0 021C            0021C  4436  1          +
 0000F8 58F0 0210            00210  4437  1          +
 0000FC 89F0 0010            00010  4438  1          +
 000100 88F0 0010            00010  4439  1          +
 000104 41F0 F000            00000  4440  1          +
 000108 AEFF 0006            00006  4441  1          +
 00010C C2C1C4D4F1D7E3E8            4442             +
 00011C 58F1 A10A/0DEF       0012C  4447     231.              ACALL PTTAB(RS)
                                    4454     232.     *
                                    4455     233.     * The return from these is our return, so we are done
                                    4456     234.     *
 000122 981F C008            00008  4457     235.              PEND  ,                       Return to the caller
 DROP   UPCB,R6
 DROP   @M1PATH-72,R12
 DROP   M1PATH,R10
 000126 9680 C000/0B0E 00000        4477             +
 DROP   @UPCBP-72,R13
                                    4486     236.
 00012C 00000000                    4487     237.     PTTAB    DC    A(0)                    Invalid
 000130 00000154                    4488     238.              DC    A(ATTACH)               Attach
 000134 00000296                    4489     239.              DC    A(READ)                 Read
 000138 000007CE                    4490     240.              DC    A(WRITE)                Write
 00013C 00000AA6                    4491     241.              DC    A(HALT)                 Halt
 000140 00000000                    4492     242.              DC    A(0)                    Invalid
 000144 00000AF6                    4493     243.              DC    A(DETACH)               Detach
                                    4494     244.     TTLEN    EQU   *-PTTAB                 length of the table
1PATH     (PATH00) (09:43) (22MAR04) Main Entry                                                                             Page   40
0Current Usings:  (PZERO,R0)
0Loc    Object Code    Addr1 Addr2  Stmt Lv Lineno    Source Statement           (Hibal 5, Asmedit 3.3)  HLASM R4.0  2004/03/22 09.43
+___    ______ ____    _____ _____  ____ __ ______    ______ _________
0                                   4496     246.     *****************************************************************
                                    4497     247.     *                                                               *
                                    4498     248.     *   ATTACH --  This handles the attach request.  It opens this  *
                                    4499     249.     *              side of the path.                                *
                                    4500     250.     *                                                               *
                                    4501     251.     *   Input  --  @UPCBP                                           *
                                    4502     252.     *                                                               *
                                    4503     253.     *  Output  --  RVR contains panic code or zero.                 *
                                    4504     254.     *                                                               *
                                    4505     255.     *****************************************************************
-000148                             4507     257.     ATTACH   PROC  @UPCBP,SCOPE=LOCAL
 000148 C1E3E3C1C3C84040            4514             +
 000150 0008/0000                   4515             +
 000154 900F D004/18AF       00004  4517             +
 USING  ATTACH,R10
 00015A 50D0 C000/18CD       00000  4532             +
 000160 9680 C000      00000        4534             +
 USING  @UPCBP-72,R12
 000164 41D0 C050            00050  4548             +
 000168 5860 C048            00000  4549     258.              L     RX,@UPCB                Get the UPCB address
 USING  UPCB,R6                     4550     259.              WITH  (UPCB,RX)
 00016C D203 606C A5F8 0006C 0074C  4563     260.              MVC   UPRR01,=X'80000000'     Default is no return
 000172 D203 6070 A5F8 00070 0074C  4564     261.              MVC   UPRR14,=X'80000000'     Default is no return
 000178 D203 6074 A5F8 00074 0074C  4565     262.              MVC   UPRR15,=X'80000000'     Default is no return
                                    4566     263.     *
                                    4567     264.     * Validate the parms.  First the path names.
                                    4568     265.     *
 00017E 9180 C04C      00004        4569     266.              IF    ~@UPCFM31,BEGIN
 000182 4710 A036            0018A  4579             +
 000186 9200 6054      00054        4584  1  267.                MVI   UPCR01,0                Only 24 bit addresses allowed
 00018A                             4585     268.              END   ,
 00018A 5820 6054            00054  4589     269.              L     RA,UPCR01               Get the buffer location
 USING  @VALBUF-72,R13              4590     270.              VALBUF (RA),LA:20             Make sure we can read it
 00018E D707 D048 D048 00000 00000  4608             +
 000194 5020 D048            00000  4618             +
 000198 4100 0014            00014  4630             +
 00019C 4000 D04C/1F00       00004  4635             +
 0001A2 4300 6062            00062  4647             +
 0001A6 4200 D04E            00006  4653             +
 0001AA 58F0 A5FC/0DEF       00750  4659             +
 0001B0 1200/4770 A118       0026C  4661     271.              IF    (RVR,NZ),ATTSPEC        Nope...spec 'im
 0001B6 D213 603C 2000 0003C 00000  4678     272.              MVC   UPNME(20),@RA           Move the info in
 0001BC D507 603C A5E4 0003C 00738  4679     273.              CLC   UPNME,=8X'FF'           Is he trying to be Anybody?
 0001C2 4780 A118            0026C  4680     274.              IF    EQ,ATTSPEC              If so, we won't let him.
 0001C6                             4694     275.              IF    (UPNME,EQ,UPNYOU),ATTSPEC  No talking to yourself
 0001C6 D507 603C 6044 0003C 00044  4706             +
 0001CC 4780 A118            0026C  4709             +
                                    4715     276.     *
                                    4716     277.     * Validate the timeout and buffer length
                                    4717     278.     *
 0001D0 4830 605C            0005C  4718     279.              LH    RB,UPCR15               Get the timeout value
 0001D4 1233/4740 A118       0026C  4719     280.              IF    ((RB,NEG),OR,(RB,GT,6000)),ATTSPEC
1PATH     (PATH00) (09:43) (22MAR04) Main Entry                                                                             Page   41
0Current Usings:  (PZERO,R0) (UPCB,R6) (ATTACH,R10) (@UPCBP-72,R12) (@VALBUF-72,R13)
0Loc    Object Code    Addr1 Addr2  Stmt Lv Lineno    Source Statement           (Hibal 5, Asmedit 3.3)  HLASM R4.0  2004/03/22 09.43
+___    ______ ____    _____ _____  ____ __ ______    ______ _________
00001DA 5930 A600            00754  4743             +
 0001DE 4720 A118            0026C  4746             +
 0001E2 1B22                        4752     281.              CLEAR RA
 0001E4 5C20 A604            00758  4756     282.              M     RA,=FE6'1'              Convert to uS
 0001E8 8D20 000C            0000C  4757     283.              SLDL  RA,12                   Convert to TOD format
 0001EC 9023 6078            00078  4758     284.              STM   RA,RB,UPTOVAL           Save the timeout value
                                    4759     285.
 0001F0 4820 605E            0005E  4760     286.              LH    RA,UPCR15+2             Get the buffer length
 0001F4 1222/47D0 A118       0026C  4761     287.              IF    ((RA,NP),OR,(RA,GT,8192)),ATTSPEC
 0001FA 5920 A608            0075C  4785             +
 0001FE 4720 A118            0026C  4788             +
 000202 5020 6038            00038  4794     288.              ST    RA,UPMAXBUF             Maximum buffer size
                                    4795     289.     *
                                    4796     290.     * Ready to do the path stuff.  Start by allocating a device.
                                    4797     291.     *
 000206 4110 0010            00010  4798     292.              LA    RS,#IOUSCOM             SCOM device
 00020A 83100007                    4799     293.              SYSCTL RS,TYPE=ALLOC          Do the device allocation
 00020E 5010 6004            00004  4802     294.              ST    RS,UPATHID              Save it as the path ID
                                    4803     295.     *
                                    4804     296.     * Now we start up the task which will handle asynchronous events for
                                    4805     297.     * this path.
                                    4806     298.     *
 000212 9180 6061      00061        4807     299.              IF    UPMWAIT,BEGIN
 000216 47E0 A0CE            00222  4817             +
 00021A 9204 6060      00060        4822  1  300.                SET   UPTATCH                 Tell the task what to do
 00021E 9610 6011      00011        4828  1  301.                SET   TIMEST                  Start a timer if needed
 000222                             4834     302.              END   ,
 DROP   @VALBUF-72,R13              4838     303.              PSET  @TCREATE
 USING  @TCREATE-72,R13
 000222 D714 D048 D048 00000 00000  4858             +
 000228 D203 D048 A60C 00000 00760  4859     304.              MVC   @TCRPSW(4),=X'070C0000'
 00022E D203 D04C A610 00004 00764  4860     305.              MVC   @TCRPSW+4(4),=A(X'80000000'+PATHTASK)
 000234 D203 D058 A614 00010 00768  4861     306.              MVC   @TCRPRIO,=A(10)         Higher priority
 00023A 5060 D050            00008  4862     307.              ST    RX,@TCRPARM             Parm is the UPCB
 00023E 9680 D05C      00014        4863     308.              SET   @TCRFSTK                It will need a stack
 000242 58F0 A618/0DEF       0076C  4869     309.              VCALL TCREATE                 Create the task
                                    4873     310.     *
                                    4874     311.     * If this was a mode wait request, the response will be from the
                                    4875     312.     * other task.  If not, we will just respond that the path is not
                                    4876     313.     * yet open, and post the I/O complete.
                                    4877     314.     *
 000248 9180 6061      00061        4878     315.              IF    ~UPMWAIT,BEGIN          Not mode wait
 00024C 4710 A112            00266  4888             +
 000250 D203 6074 A61C 00074 00770  4893  1  316.                MVC   UPRR15,=A(16)           Signal path not open yet
 DROP   @TCREATE-72,R13             4894  1  317.                PSET  @UPCBP                  Common control block
 USING  @UPCBP-72,R13
 000256 D704 D048 D048 00000 00000  4914  1          +
 00025C 5060 D048            00000  4915  1  318.                ST    RX,@UPCB                Tell it which one
 000260 58F0 A620/0DEF       00774  4916  1  319.                ACALL IODONE                  And post the I/O complete
 000266                             4923     320.              END   ,
1PATH     (PATH00) (09:43) (22MAR04) Main Entry                                                                             Page   42
0Current Usings:  (PZERO,R0) (UPCB,R6) (ATTACH,R10) (@UPCBP-72,R12) (@UPCBP-72,R13)
0Loc    Object Code    Addr1 Addr2  Stmt Lv Lineno    Source Statement           (Hibal 5, Asmedit 3.3)  HLASM R4.0  2004/03/22 09.43
+___    ______ ____    _____ _____  ____ __ ______    ______ _________
0                                   4928     322.     *
                                    4929     323.     * We are done for now.  Setup the return code and return.
                                    4930     324.     *
 000266 1B00                        4931     325.              CLEAR RVR                     Good return
 000268 47F0 A12C            00280  4935     326.              B     ATTDONE                 The attach is done
                                    4936     327.     *
                                    4937     328.     * If there was some problem, we have to free the UPCB that was
                                    4938     329.     * created before we were entered.
                                    4939     330.     *
 00026C                             4940     331.     ATTSPEC  PSET  @UPCBP
 00026C D704 D048 D048 00000 00000  4951             +
 000272 5060 D048            00000  4952     332.              ST    RX,@UPCB                Save the location
 000276 58F0 A624/0DEF       00778  4953     333.              ACALL DELUPCB                 Free it up
 00027C 4100 0006            00006  4960     334.              LA    RVR,6                   Specification error
                                    4961     335.     *
                                    4962     336.     * All done, return to the caller
                                    4963     337.     *
 000280 981F C008            00008  4964     338.     ATTDONE  PEND  ,
 DROP   UPCB,R6
 DROP   @UPCBP-72,R12
 DROP   ATTACH,R10
 000284 9680 C000/0B0E 00000        4985             +
 DROP   @UPCBP-72,R13
1PATH     (PATH00) (09:43) (22MAR04) Main Entry                                                                             Page   43
0Current Usings:  (PZERO,R0)
0Loc    Object Code    Addr1 Addr2  Stmt Lv Lineno    Source Statement           (Hibal 5, Asmedit 3.3)  HLASM R4.0  2004/03/22 09.43
+___    ______ ____    _____ _____  ____ __ ______    ______ _________
0                                   4995     340.     *****************************************************************
                                    4996     341.     *                                                               *
                                    4997     342.     *     READ --  This routine handles the read I/O requests?      *
                                    4998     343.     *                                                               *
                                    4999     344.     *   Input  --  @UPCBP                                           *
                                    5000     345.     *                                                               *
                                    5001     346.     *  Output  --  none                                             *
                                    5002     347.     *                                                               *
                                    5003     348.     *****************************************************************
-00028A                             5005     350.     READ     PROC  @UPCBP,SCOPE=LOCAL
 00028A D9C5C1C440404040            5012             +
 000292 0008/0000                   5013             +
 000296 900F D004/18AF       00004  5015             +
 USING  READ,R10
 00029C 50D0 C000/18CD       00000  5030             +
 0002A2 9680 C000      00000        5032             +
 USING  @UPCBP-72,R12
 0002A6 41D0 C050            00050  5046             +
 0002AA 5860 C048            00000  5047     351.              L     RX,@UPCB                Get the UPCB address
 USING  UPCB,R6                     5048     352.              WITH  (UPCB,RX)
 0002AE D203 606C A4B6 0006C 0074C  5061     353.              MVC   UPRR01,=X'80000000'     Default is no return
 0002B4 D203 6070 A4B6 00070 0074C  5062     354.              MVC   UPRR14,=X'80000000'     Default is no return
 0002BA D203 6074 A4B6 00074 0074C  5063     355.              MVC   UPRR15,=X'80000000'     Default is no return
                                    5064     356.     *
                                    5065     357.     * Validate the parms.
                                    5066     358.     *
 0002C0 5820 6054/1222       00054  5067     359.              LT    RA,UPCR01               Get the location
 0002C6 47B0 A03A            002D0  5071     360.              IF    NEG,BEGIN
 0002CA 1322                        5082  1  361.                LCR   RA,RA                   Get the positive value
 0002CC 9640 6061      00061        5083  1  362.                SET   UPMTRUNC                Mode truncate
 0002D0                             5089     363.              END   ,
 0002D0 9180 C04C      00004        5093     364.              IF    ~@UPCFM31,BEGIN
 0002D4 4710 A046            002DC  5103             +
 0002D8 5420 A4E6            0077C  5108  1  365.                N     RA,=X'00FFFFFF'         Only 24 bit addresses
 0002DC                             5109     366.              END   ,
 0002DC 5020 6064            00064  5113     367.              ST    RA,UPBUFLOC             Save the location
 0002E0 4830 605E            0005E  5114     368.              LH    RB,UPCR15+2             Get the length of his buffer
 0002E4 1233/47D0 A174       0040A  5115     369.              IF    ((RB,NP),OR,(RB,GT,8192)),READSPEC
 0002EA 5930 A4C6            0075C  5139             +
 0002EE 4720 A174            0040A  5142             +
 0002F2 5030 6068            00068  5148     370.              ST    RB,UPBUFLEN             Save the length of the buffer
 USING  @VALBUF-72,R13              5149     371.              VALBUF (RA),(RB),W            Make sure we can write it
 0002F6 D707 D048 D048 00000 00000  5167             +
 0002FC 5020 D048            00000  5177             +
 000300 4030 D04C/1F00       00004  5187             +
 000306 4300 6062            00062  5199             +
 00030A 4200 D04E            00006  5205             +
 00030E 9680 D04F      00007        5211             +
 000312 58F0 A4BA/0DEF       00750  5217             +
 000318 1200/4770 A178       0040E  5219     372.              IF    (RVR,NZ),READDONE       Can't... signal the exception
                                    5236     373.     *
                                    5237     374.     * Validate the timeout.
1PATH     (PATH00) (09:43) (22MAR04) Main Entry                                                                             Page   44
0Current Usings:  (PZERO,R0) (UPCB,R6) (READ,R10) (@UPCBP-72,R12) (@VALBUF-72,R13)
0Loc    Object Code    Addr1 Addr2  Stmt Lv Lineno    Source Statement           (Hibal 5, Asmedit 3.3)  HLASM R4.0  2004/03/22 09.43
+___    ______ ____    _____ _____  ____ __ ______    ______ _________
0                                   5238     375.     *
 00031E 4830 605C            0005C  5239     376.              LH    RB,UPCR15               Get the timeout value
 000322 1233/4740 A174       0040A  5240     377.              IF    ((RB,NEG),OR,(RB,GT,6000)),READSPEC
 000328 5930 A4BE            00754  5264             +
 00032C 4720 A174            0040A  5267             +
 000330 1B22                        5273     378.              CLEAR RA
 000332 5C20 A4C2            00758  5277     379.              M     RA,=FE6'1'              Convert to uS
 000336 8D20 000C            0000C  5278     380.              SLDL  RA,12                   Convert to TOD format
 00033A 9023 6078            00078  5279     381.              STM   RA,RB,UPTOVAL           Save the timeout value
                                    5280     382.     *
                                    5281     383.     * If there is no data left over from a previous read, we check to
                                    5282     384.     * see if there is any fresh data.
                                    5283     385.     *
 00033E                             5284     386.              IF    (UPRLOC,Z),BEGIN        No leftovers.
 00033E D603 6084 6084 00084 00084  5294             +
 000344 4770 A148            003DE  5295             +
                                    5300  1  387.     *
                                    5301  1  388.     * Mode wait I/O's are handled from the other task unless there are
                                    5302  1  389.     * leftovers.
                                    5303  1  390.     *
 000348 9180 6061      00061        5304  1  391.                IF    UPMWAIT,BEGIN           He will wait for it
 00034C 47E0 A0DC            00372  5314  1          +
 000350 9208 6060      00060        5319  2  392.                  SET   UPTREAD                 Tell the task what to do
 000354 9610 6011      00011        5325  2  393.                  SET   TIMEST                  And start the timer if needed
 DROP   @VALBUF-72,R13              5331  2  394.                  SIGNL UPECB                   Then wake it up
 USING  @SIGNAL-72,R13
 000358 D713 D048 D048 00000 00000  5352  2          +
 00035E 4100 6018            00018  5364  2          +
 000362 5000 D050            00008  5369  2          +
 000366 58F0 A4EA/0DEF       00780  5372  2          +
 00036C 1B00                        5374  2  395.                  CLEAR RVR                     Good return from the SVC
 00036E 47F0 A178            0040E  5378  2  396.                  B     READDONE                And we're done here
 000372                             5379  1  397.                END   ,
                                    5383  1  398.     *
                                    5384  1  399.     * If there is no data on the path, see why not and return.
                                    5385  1  400.     *
 000372 9108 6010      00010        5386  1  401.                IF    ~OPENED,BEGIN           Path not open yet
 000376 4710 A0EE            00384  5396  1          +
 00037A D203 6074 A4DA 00074 00770  5401  2  402.                  MVC   UPRR15,=A(16)           Set return code
 000380 47F0 A15E            003F4  5402  2  403.                  B     READPOST                Post the I/O complete
 000384                             5403  1  404.                END   ,
 000384 9120 6010      00010        5407  1  405.                IF    ~NEWINFO,BEGIN          No fresh data
 000388 4710 A112            003A8  5417  1          +
 00038C 9180 6010      00010        5422  2  406.                  IF    CLOSED,'MVC UPRR15,=A(-4)'        Path is closed
 000390 47E0 A104            0039A  5432  2          +
 000394 D203 6074 A4EE 00074 00784  5438  2          +
 00039A A108           0039A 00392  5443  2  407.                  ELSE  'MVC UPRR15,=A(4)'                Just no data
 00039A 47F0 A10E            003A4  5448  2          +
 00039E D203 6074 A4F2 00074 00788  5455  2          +
 0003A4 47F0 A15E            003F4  5460  2  408.                  B     READPOST                Post the I/O complete
 0003A8                             5461  1  409.                END   ,
                                    5465  1  410.     *
                                    5466  1  411.     * There is data on the path to be received.  We receive it.
                                    5467  1  412.     *
1PATH     (PATH00) (09:43) (22MAR04) Main Entry                                                                             Page   45
0Current Usings:  (PZERO,R0) (UPCB,R6) (READ,R10) (@UPCBP-72,R12) (@UPCBP-72,R13)
0Loc    Object Code    Addr1 Addr2  Stmt Lv Lineno    Source Statement           (Hibal 5, Asmedit 3.3)  HLASM R4.0  2004/03/22 09.43
+___    ______ ____    _____ _____  ____ __ ______    ______ _________
0DROP   @SIGNAL-72,R13              5468  1  413.                PSET  @UPCBP                  Common parm area
 USING  @UPCBP-72,R13
 0003A8 D704 D048 D048 00000 00000  5488  1          +
 0003AE 5060 D048            00000  5489  1  414.                ST    RX,@UPCB                control block address
 0003B2 58F0 A4F6/0DEF       0078C  5490  1  415.                ACALL DOREAD                  Read a message from the path
 0003B8                             5497  1  416.                IF    (UPRLOC,Z),BEGIN        No buffer returned.
 0003B8 D603 6084 6084 00084 00084  5507  1          +
 0003BE 4770 A148            003DE  5508  1          +
 0003C2 9180 6010      00010        5513  2  417.                  IF    CLOSED,'MVC UPRR15,=A(-4)'        Path is closed
 0003C6 47E0 A13A            003D0  5523  2          +
 0003CA D203 6074 A4EE 00074 00784  5529  2          +
 0003D0 A13E           003D0 003C8  5534  2  418.                  ELSE  'MVC UPRR15,=A(4)'                Just no data
 0003D0 47F0 A144            003DA  5539  2          +
 0003D4 D203 6074 A4F2 00074 00788  5546  2          +
 0003DA 47F0 A15E            003F4  5551  2  419.                  B     READPOST                Post the I/O complete
 0003DE                             5552  1  420.                END   ,
 0003DE                             5556     421.              END   ,
                                    5560     422.     *
                                    5561     423.     * We now have a buffer pointed to by UPRLOC, UPRLEN.  It could be
                                    5562     424.     * that we had it left over or that we just got it. We move what we
                                    5563     425.     * can into the user's area.
                                    5564     426.     *
 0003DE                             5565     427.              PSET  @UPCBP                  Common parm area
 0003DE D704 D048 D048 00000 00000  5575             +
 0003E4 5060 D048            00000  5576     428.              ST    RX,@UPCB                control block address
 0003E8 58F0 A4FA/0DEF       00790  5577     429.              ACALL DOMOVE                  Move a message to the user
                                    5584     430.     *
                                    5585     431.     * All done here
                                    5586     432.     *
 0003EE                             5587     433.              CLEAR UPRR15
 0003EE D703 6074 6074 00074 00074  5593             +
 0003F4                             5594     434.     READPOST PSET  @UPCBP                  Common control block
 0003F4 D704 D048 D048 00000 00000  5605             +
 0003FA 5060 D048            00000  5606     435.              ST    RX,@UPCB                Tell it which one
 0003FE 58F0 A4DE/0DEF       00774  5607     436.              ACALL IODONE                  Post it complete
 000404 1B00                        5614     437.              CLEAR RVR                     Good return for the SVC
 000406 47F0 A178            0040E  5618     438.              B     READDONE                All done
                                    5619     439.
 00040A 4100 0006            00006  5620     440.     READSPEC LA    RVR,6
 00040E 981F C008            00008  5621     441.     READDONE PEND  ,                       Return to the caller
 DROP   UPCB,R6
 DROP   @UPCBP-72,R12
 DROP   READ,R10
 000412 9680 C000/0B0E 00000        5642             +
 DROP   @UPCBP-72,R13
1PATH     (PATH00) (09:43) (22MAR04) Main Entry                                                                             Page   46
0Current Usings:  (PZERO,R0)
0Loc    Object Code    Addr1 Addr2  Stmt Lv Lineno    Source Statement           (Hibal 5, Asmedit 3.3)  HLASM R4.0  2004/03/22 09.43
+___    ______ ____    _____ _____  ____ __ ______    ______ _________
0                                   5652     443.     *****************************************************************
                                    5653     444.     *                                                               *
                                    5654     445.     *   DOREAD --  This routine reads a transaction from the path   *
                                    5655     446.     *              into a buffer and puts the address and length of *
                                    5656     447.     *              the buffer in the UPCB.                          *
                                    5657     448.     *                                                               *
                                    5658     449.     *   Input  --  @UPCBP                                           *
                                    5659     450.     *                                                               *
                                    5660     451.     *  Output  --  none                                             *
                                    5661     452.     *                                                               *
                                    5662     453.     *****************************************************************
-000418                             5664     455.     DOREAD   PROC  @UPCBP,SCOPE=LOCAL
 000418 C4D6D9C5C1C44040            5671             +
 000420 0008/0000                   5672             +
 000424 900F D004/18AF       00004  5674             +
 USING  DOREAD,R10
 00042A 50D0 C000/18CD       00000  5689             +
 000430 9680 C000      00000        5691             +
 USING  @UPCBP-72,R12
 000434 41D0 C050            00050  5705             +
 000438 5860 C048            00000  5706     456.              L     RX,@UPCB                Get the UPCB address
 USING  UPCB,R6                     5707     457.              WITH  (UPCB,RX)
                                    5720     458.     *
                                    5721     459.     * Make sure there is not a buffer there already
                                    5722     460.     *
 00043C                             5723     461.              IF    (UPRLOC,NZ),'ABORT GOTRBUF'
 00043C D603 6084 6084 00084 00084  5733             +
 000442 4780 A052            00476  5734             +
 000446 AC04 021B      0021B        5743  1          +
 00044A 9680 021A      0021A        5749  1          +
 00044E 50F0 021C            0021C  5750  1          +
 000452 58F0 0210            00210  5751  1          +
 000456 89F0 0010            00010  5752  1          +
 00045A 88F0 0010            00010  5753  1          +
 00045E 41F0 F000            00000  5754  1          +
 000462 AEFF 0006            00006  5755  1          +
 000466 C7D6E3D9C2E4C640            5756             +
                                    5761     462.     *
                                    5762     463.     * Get a new buffer
                                    5763     464.     *
 USING  @VMGET-72,R13               5764     465.              VMGET L:UPMAXBUF,LOC=LOCSYS   Get a buffer big enough
 000476 D70A D048 D048 00000 00000  5788             +
 00047C D203 D048 6038 00000 00038  5793             +
 000482 D201 D050 A39C 00008 007C0  5794             +
 000488 58F0 A370/0DEF       00794  5797             +
 00048E 1200/4770 A0A0       004C4  5799     466.              IF    (RVR,Z),'ABORT NOMEM'
 000494 AC04 021B      0021B        5817  1          +
 000498 9680 021A      0021A        5823  1          +
 00049C 50F0 021C            0021C  5824  1          +
 0004A0 58F0 0210            00210  5825  1          +
 0004A4 89F0 0010            00010  5826  1          +
 0004A8 88F0 0010            00010  5827  1          +
1PATH     (PATH00) (09:43) (22MAR04) Main Entry                                                                             Page   47
0Current Usings:  (PZERO,R0) (UPCB,R6) (DOREAD,R10) (@UPCBP-72,R12) (@VMGET-72,R13)
0Loc    Object Code    Addr1 Addr2  Stmt Lv Lineno    Source Statement           (Hibal 5, Asmedit 3.3)  HLASM R4.0  2004/03/22 09.43
+___    ______ ____    _____ _____  ____ __ ______    ______ _________
00004AC 41F0 F000            00000  5828  1          +
 0004B0 AEFF 0006            00006  5829  1          +
 0004B4 D5D6D4C5D4404040            5830             +
 0004C4 5000 6084            00084  5835     467.              ST    RVR,UPRLOC              Save the location
                                    5836     468.     *
                                    5837     469.     * Setup for the I/O
                                    5838     470.     *
 0004C8 94DF 6010      00010        5839     471.              CLEAR NEWINFO                 Pre-clear the flag
 0004CC 5870 600C            0000C  5846     472.              L     RY,UPIOPA               Get the parm area
 USING  #SCSR,R7                    5847     473.              WITH  (#SCSR,RY)              Address it
 0004D0                             5860     474.              CLEAR #SCSR
 0004D0 D717 7000 7000 00000 00000  5866             +
 DROP   #SCSR,R7                    5867     475.              WITH  (#SCOMCMD,RY),'MVC #SCCMD,=A(#SCCRECV)'
 USING  #SCOMCMD,R7
 0004D6 D203 7000 A374 00000 00798  5885             +
 DROP   #SCOMCMD,R7
 USING  #SCSR,R7
 DROP   @VMGET-72,R13               5901     476.              FIX   L:UPRLOC,L:UPMAXBUF     Fix the receive buffer
 USING  @PAGE-72,R13
 0004DC D708 D048 D048 00000 00000  5922             +
 0004E2 D203 D048 6084 00000 00084  5927             +
 0004E8 D203 D04C 6038 00004 00038  5932             +
 0004EE 58F0 A378/0DEF       0079C  5935             +
 DROP   @PAGE-72,R13                5937     477.              ADDSG L:UPRLOC,L:UPMAXBUF,#SCSR Add it to the list
 USING  @ADDSEG-72,R13
 0004F4 D203 D04C 6084 00004 00084  5956             +
 0004FA D201 D050 603A 00008 0003A  5961             +
 000500 5070 D048            00000  5972             +
 000504 58F0 A37C/0DEF       007A0  5978             +
                                    5980     478.     *
                                    5981     479.     * Get an IOS ID
                                    5982     480.     *
 00050A 9200 D048      00000        5983     481.              PSET  @IOSIDGET
 DROP   @ADDSEG-72,R13
 USING  @IOSIDGET-72,R13
 00050E 9680 D048      00000        6004     482.              SET   @IOSFWAIT               We can wait
 000512 58F0 A380/0DEF       007A4  6010     483.              VCALL IOSIDGET                Go get us an ID
 000518 1850                        6014     484.              LR    RK,RVR                  Copy the ID
 DROP   @IOSIDGET-72,R13            6015     485.              FIX   #SCSR,SCOMPLEN          Fix the parm area
 USING  @PAGE-72,R13
 00051A D708 D048 D048 00000 00000  6036             +
 000520 5070 D048            00000  6047             +
 000524 4100 0068            00068  6059             +
 000528 5000 D04C            00004  6064             +
 00052C 58F0 A378/0DEF       0079C  6067             +
                                    6069     486.     *
                                    6070     487.     * Send the parm area out on the path
                                    6071     488.     *
 DROP   @PAGE-72,R13                6072     489.              PSET  @IOSDOIO
 USING  @IOSDOIO-72,R13
 000532 D71D D048 D048 00000 00000  6092             +
 000538 D207 D050 0208 00008 00208  6093     490.              MVC   @IOSPID,PZCURPID
 00053E D203 D048 6004 00000 00004  6094     491.              MVC   @IOSCHID,UPATHID        Path ID
 000544 5050 D04C            00004  6095     492.              ST    RK,@IOSID               I/O ID
1PATH     (PATH00) (09:43) (22MAR04) Main Entry                                                                             Page   48
0Current Usings:  (PZERO,R0) (UPCB,R6) (#SCSR,R7) (DOREAD,R10) (@UPCBP-72,R12) (@IOSDOIO-72,R13)
0Loc    Object Code    Addr1 Addr2  Stmt Lv Lineno    Source Statement           (Hibal 5, Asmedit 3.3)  HLASM R4.0  2004/03/22 09.43
+___    ______ ____    _____ _____  ____ __ ______    ______ _________
0000548 5070 D058            00010  6096     493.              PMOV  @IOSCP,LA:#SCSR         Parm area address
 00054C 9680 D065      0001D        6107     494.              SET   @IOSFSYNC               Syncronous
 000550 58F0 A384/0DEF       007A8  6113     495.              VCALL IOSDOIO                 Do the I/O
 000556 1830                        6117     496.              LR    RB,RVR                  Copy the ending status
                                    6118     497.     *
                                    6119     498.     * Free up the stuff we got
                                    6120     499.     *
 DROP   @IOSDOIO-72,R13             6121     500.              UNFIX #SCSR,SCOMPLEN          Unfix the parm area
 USING  @PAGE-72,R13
 000558 D708 D048 D048 00000 00000  6142             +
 00055E 5070 D048            00000  6153             +
 000562 4100 0068            00068  6165             +
 000566 5000 D04C            00004  6170             +
 00056A 58F0 A388/0DEF       007AC  6173             +
 000570                             6175     501.              UNFIX L:UPRLOC,L:UPMAXBUF     And the buffer
 000570 D708 D048 D048 00000 00000  6186             +
 000576 D203 D048 6084 00000 00084  6191             +
 00057C D203 D04C 6038 00004 00038  6196             +
 000582 58F0 A388/0DEF       007AC  6199             +
 DROP   @PAGE-72,R13                6201     502.              PSET  @IOSIDFRE
 USING  @IOSIDFRE-72,R13
 000588 D703 D048 D048 00000 00000  6221             +
 00058E 5050 D048            00000  6222     503.              ST    RK,@IOSFID
 000592 58F0 A38C/0DEF       007B0  6223     504.              VCALL IOSIDFRE                Free the IOS ID
                                    6227     505.     *
                                    6228     506.     * Check the ending status
                                    6229     507.     *
 000598 5930 A390            007B4  6230     508.              IF    (RB,EQ,#SCESOK),BEGIN   Normal response
 00059C 4770 A1C0            005E4  6242             +
 0005A0 5830 7010            00010  6247  1  509.                L     RB,#SCSRRLN             Get the returned length
 0005A4 1233/4770 A1AA       005CE  6248  1  510.                IF    (RB,Z),BEGIN            No buffer returned
 DROP   @IOSIDFRE-72,R13            6262  2  511.                  VMFREE L:UPMAXBUF,A=L:UPRLOC,LOC=LOCSYS
 USING  @VMFREE-72,R13
 0005AA D709 D048 D048 00000 00000  6289  2          +
 0005B0 D203 D04C 6038 00004 00038  6294  2          +
 0005B6 D203 D048 6084 00000 00084  6299  2          +
 0005BC D201 D050 A39C 00008 007C0  6300  2          +
 0005C2 58F0 A394/0DEF       007B8  6303  2          +
 0005C8                             6305  2  512.                  CLEAR UPRLOC                  Clear the buffer location
 0005C8 D703 6084 6084 00084 00084  6311  2          +
 0005CE                             6312  1  513.                END   ,
 0005CE A1AE           005CE 005A8  6316  1  514.                ELSE  'SET NEWINFO'           Assume there is more data
 0005CE 47F0 A1B2            005D6  6321  1          +
 0005D2 9620 6010      00010        6333  1          +
 0005D6 5030 6088            00088  6338  1  515.                ST    RB,UPRLEN               Save the length in the UPCB
 0005DA                             6339  1  516.                CLEAR UPROFF                  Offset is the first byte
 0005DA D703 608C 608C 0008C 0008C  6345  1          +
 0005E0 47F0 A220            00644  6346  1  517.                EXIT  DOREAD                  Return to the caller
 0005E4                             6349     518.              END   ,
                                    6353     519.     *
                                    6354     520.     *
 0005E4 5930 A398            007BC  6355     521.              IF    (RB,EQ,#SCESNP),BEGIN   No partner
 0005E8 4770 A1EC            00610  6367             +
 0005EC                             6372  1  522.                VMFREE L:UPMAXBUF,A=L:UPRLOC,LOC=LOCSYS Free the buffer
1PATH     (PATH00) (09:43) (22MAR04) Main Entry                                                                             Page   49
0Current Usings:  (PZERO,R0) (UPCB,R6) (#SCSR,R7) (DOREAD,R10) (@UPCBP-72,R12) (@VMFREE-72,R13)
0Loc    Object Code    Addr1 Addr2  Stmt Lv Lineno    Source Statement           (Hibal 5, Asmedit 3.3)  HLASM R4.0  2004/03/22 09.43
+___    ______ ____    _____ _____  ____ __ ______    ______ _________
00005EC D709 D048 D048 00000 00000  6389  1          +
 0005F2 D203 D04C 6038 00004 00038  6394  1          +
 0005F8 D203 D048 6084 00000 00084  6399  1          +
 0005FE D201 D050 A39C 00008 007C0  6400  1          +
 000604 58F0 A394/0DEF       007B8  6403  1          +
 00060A                             6405  1  523.                CLEAR UPRLOC                  Clear the buffer location
 00060A D703 6084 6084 00084 00084  6411  1          +
 000610 A1F0           00610 005EA  6412     524.              END   ELSE,BEGIN              Some other bad return
 000610 47F0 A220            00644  6421             +
 000614 AC04 021B      0021B        6427  1  525.                ABORT PATHREAD                Arrrghhhh.....
 000618 9680 021A      0021A        6436  1          +
 00061C 50F0 021C            0021C  6437  1          +
 000620 58F0 0210            00210  6438  1          +
 000624 89F0 0010            00010  6439  1          +
 000628 88F0 0010            00010  6440  1          +
 00062C 41F0 F000            00000  6441  1          +
 000630 AEFF 0006            00006  6442  1          +
 000634 D7C1E3C8D9C5C1C4            6443  1          +
 000644                             6444     526.              END   ,
 000644 981F C008            00008  6448     527.              PEND  ,
 DROP   #SCSR,R7
 DROP   UPCB,R6
 DROP   @UPCBP-72,R12
 DROP   DOREAD,R10
 000648 9680 C000/0B0E 00000        6473             +
 DROP   @VMFREE-72,R13
1PATH     (PATH00) (09:43) (22MAR04) Main Entry                                                                             Page   50
0Current Usings:  (PZERO,R0)
0Loc    Object Code    Addr1 Addr2  Stmt Lv Lineno    Source Statement           (Hibal 5, Asmedit 3.3)  HLASM R4.0  2004/03/22 09.43
+___    ______ ____    _____ _____  ____ __ ______    ______ _________
0                                   6483     529.     *****************************************************************
                                    6484     530.     *                                                               *
                                    6485     531.     *   DOMOVE --  This routine moves data from a previously read   *
                                    6486     532.     *              transaction into the user's buffer area.  The    *
                                    6487     533.     *              pointer to the current data is updated.  If mode *
                                    6488     534.     *              truncate was specified, the rest of the data is  *
                                    6489     535.     *              freed at the end of the request.                 *
                                    6490     536.     *                                                               *
                                    6491     537.     *   Input  --  @UPCBP                                           *
                                    6492     538.     *                                                               *
                                    6493     539.     *  Output  --  none                                             *
                                    6494     540.     *                                                               *
                                    6495     541.     *****************************************************************
-00064E                             6497     543.     DOMOVE   PROC  @UPCBP,SCOPE=LOCAL
 00064E C4D6D4D6E5C54040            6504             +
 000656 0008/0000                   6505             +
 00065A 900F D004/18AF       00004  6507             +
 USING  DOMOVE,R10
 000660 50D0 C000/18CD       00000  6522             +
 000666 9680 C000      00000        6524             +
 USING  @UPCBP-72,R12
 00066A 41D0 C050            00050  6538             +
 00066E 5860 C048            00000  6539     544.              L     RX,@UPCB                Get the UPCB address
 USING  UPCB,R6                     6540     545.              WITH  (UPCB,RX)
                                    6553     546.     *
                                    6554     547.     * Make sure there is not a buffer there already
                                    6555     548.     *
 000672                             6556     549.              IF    (UPRLOC,Z),'ABORT NORBUF'         No data available
 000672 D603 6084 6084 00084 00084  6566             +
 000678 4770 A052            006AC  6567             +
 00067C AC04 021B      0021B        6576  1          +
 000680 9680 021A      0021A        6582  1          +
 000684 50F0 021C            0021C  6583  1          +
 000688 58F0 0210            00210  6584  1          +
 00068C 89F0 0010            00010  6585  1          +
 000690 88F0 0010            00010  6586  1          +
 000694 41F0 F000            00000  6587  1          +
 000698 AEFF 0006            00006  6588  1          +
 00069C D5D6D9C2E4C64040            6589             +
                                    6594     550.     *
                                    6595     551.     * Move the data into the user area
                                    6596     552.     *
 0006AC 5820 6064            00064  6597     553.              L     RA,UPBUFLOC             Get the user buffer area
 0006B0 5830 6068            00068  6598     554.              L     RB,UPBUFLEN             Amount he will accept
 0006B4 5840 6084            00084  6599     555.              L     RJ,UPRLOC               Address of the data
 0006B8 5810 608C            0008C  6600     556.              L     RS,UPROFF               Current offset into the buffer
 0006BC 1A41                        6601     557.              AR    RJ,RS                   Plus the ofset into it
 0006BE 5850 6088            00088  6602     558.              L     RK,UPRLEN               Get the length of the data
 0006C2 1B51                        6603     559.              SR    RK,RS                   Less the amount we've moved
 0006C4 1935/47D0 A072       006CC  6604     560.              CEIL  RB,RK                   No more than we've got
 0006CA 1835                        6609             +
 0006CC 1953/47D0 A07A       006D4  6610     561.              CEIL  RK,RB                   And no more than we want
1PATH     (PATH00) (09:43) (22MAR04) Main Entry                                                                             Page   51
0Current Usings:  (PZERO,R0) (UPCB,R6) (DOMOVE,R10) (@UPCBP-72,R12)
0Loc    Object Code    Addr1 Addr2  Stmt Lv Lineno    Source Statement           (Hibal 5, Asmedit 3.3)  HLASM R4.0  2004/03/22 09.43
+___    ______ ____    _____ _____  ____ __ ______    ______ _________
00006D2 1853                        6615             +
                                    6616     562.     *
                                    6617     563.     * We know how much we're going to move. Tell the caller.
                                    6618     564.     *
 0006D4 5050 606C            0006C  6619     565.              ST    RK,UPRR01               Amount of data moved in
 0006D8 1A15                        6620     566.              AR    RS,RK                   Get the new offset
 0006DA 5010 608C            0008C  6621     567.              ST    RS,UPROFF               Save that
 0006DE 5B10 6088            00088  6622     568.              S     RS,UPRLEN               Get - amount left to move
 0006E2 1311                        6623     569.              LCR   RS,RS
 0006E4 5010 6070            00070  6624     570.              ST    RS,UPRR14               Save the amount not moved.
                                    6625     571.     *
                                    6626     572.     * Do the actual move.
                                    6627     573.     *
 0006E8 0E24                        6628     574.              MVCL  RA,RJ                   Move the data
                                    6629     575.     *
                                    6630     576.     * If we are in truncate mode, or if there is no data left, we free
                                    6631     577.     * the buffer.
                                    6632     578.     *
 0006EA 9140 6061      00061        6633     579.              IF    (UPMTRUNC,OR,(UPROFF,GE,UPRLEN)),BEGIN
 0006EE 4710 A0A2            006FC  6647             +
 0006F2 D503 608C 6088 0008C 00088  6659             +
 0006F8 4750 A0D2            0072C  6660             +
 USING  @VMFREE-72,R13              6665  1  580.                VMFREE L:UPMAXBUF,A=L:UPRLOC,LOC=LOCSYS
 0006FC D709 D048 D048 00000 00000  6689  1          +
 000702 D203 D04C 6038 00004 00038  6694  1          +
 000708 D203 D048 6084 00000 00084  6699  1          +
 00070E D201 D050 A166 00008 007C0  6700  1          +
 000714 58F0 A15E/0DEF       007B8  6703  1          +
 00071A                             6705  1  581.                CLEAR UPRLOC
 00071A D703 6084 6084 00084 00084  6711  1          +
 000720                             6712  1  582.                CLEAR UPROFF
 000720 D703 608C 608C 0008C 0008C  6718  1          +
 000726                             6719  1  583.                CLEAR UPRLEN                  Clear the buffer info
 000726 D703 6088 6088 00088 00088  6725  1          +
 00072C                             6726     584.              END   ,
 00072C 981F C008            00008  6730     585.              PEND  ,
 DROP   UPCB,R6
 DROP   @UPCBP-72,R12
 DROP   DOMOVE,R10
 000730 9680 C000/0B0E 00000        6750             +
 DROP   @VMFREE-72,R13
1PATH     (PATH00) (09:43) (22MAR04) Main Entry                                                                             Page   52
0Current Usings:  (PZERO,R0)
0Loc    Object Code    Addr1 Addr2  Stmt Lv Lineno    Source Statement           (Hibal 5, Asmedit 3.3)  HLASM R4.0  2004/03/22 09.43
+___    ______ ____    _____ _____  ____ __ ______    ______ _________
0000738                             6760     587.              LTORG ,
 000738 FFFFFFFFFFFFFFFF            6762                             =8X'FF'
 000740 00001134                    6763                             =A(NEWUPCB)
 000744 E4D7C3C2                    6764                             =C'UPCB'
 000748 0000001C                    6765                             =A(TTLEN)
 00074C 80000000                    6766                             =X'80000000'
 000750 00001892                    6767                             =A(VALBUF)
 000754 00001770                    6768                             =A(6000)
 000758 000F4240                    6769                             =FE6'1'
 00075C 00002000                    6770                             =A(8192)
 000760 070C0000                    6771                             =X'070C0000'
 000764 80000C38                    6772                             =A(X'80000000'+PATHTASK)
 000768 0000000A                    6773                             =A(10)
 00076C 00000000                    6774                             =V(TCREATE)
 000770 00000010                    6775                             =A(16)
 000774 00001588                    6776                             =A(IODONE)
 000778 000012CC                    6777                             =A(DELUPCB)
 00077C 00FFFFFF                    6778                             =X'00FFFFFF'
 000780 00000000                    6779                             =V(SIGNAL)
 000784 FFFFFFFC                    6780                             =A(-4)
 000788 00000004                    6781                             =A(4)
 00078C 00000424                    6782                             =A(DOREAD)
 000790 0000065A                    6783                             =A(DOMOVE)
 000794 00000000                    6784                             =V(VMGET)
 000798 00000010                    6785                             =A(#SCCRECV)
 00079C 00000000                    6786                             =V(PAGFIX)
 0007A0 000017D0                    6787                             =A(ADDSEG)
 0007A4 00000000                    6788                             =V(IOSIDGET)
 0007A8 00000000                    6789                             =V(IOSDOIO)
 0007AC 00000000                    6790                             =V(PAGUFIX)
 0007B0 00000000                    6791                             =V(IOSIDFRE)
 0007B4 00000000                    6792                             =A(#SCESOK)
 0007B8 00000000                    6793                             =V(VMFREE)
 0007BC 00000010                    6794                             =A(#SCESNP)
 0007C0 1B00           007C2 01A02  6795                             =Y(27*256+0)
1PATH     (PATH00) (09:43) (22MAR04) Main Entry                                                                             Page   53
0Current Usings:  (PZERO,R0)
0Loc    Object Code    Addr1 Addr2  Stmt Lv Lineno    Source Statement           (Hibal 5, Asmedit 3.3)  HLASM R4.0  2004/03/22 09.43
+___    ______ ____    _____ _____  ____ __ ______    ______ _________
0                                   6800     589.     *****************************************************************
                                    6801     590.     *                                                               *
                                    6802     591.     *    WRITE --  This routine handles the write I/O requests.     *
                                    6803     592.     *                                                               *
                                    6804     593.     *   Input  --  @UPCBP                                           *
                                    6805     594.     *                                                               *
                                    6806     595.     *  Output  --  none                                             *
                                    6807     596.     *                                                               *
                                    6808     597.     *****************************************************************
-0007C2                             6810     599.     WRITE    PROC  @UPCBP,SCOPE=LOCAL
 0007C2 E6D9C9E3C5404040            6817             +
 0007CA 0008/0000                   6818             +
 0007CE 900F D004/18AF       00004  6820             +
 USING  WRITE,R10
 0007D4 50D0 C000/18CD       00000  6835             +
 0007DA 9680 C000      00000        6837             +
 USING  @UPCBP-72,R12
 0007DE 41D0 C050            00050  6851             +
 0007E2 5860 C048            00000  6852     600.              L     RX,@UPCB                Get the UPCB address
 USING  UPCB,R6                     6853     601.              WITH  (UPCB,RX)
 0007E6 D203 606C A3FA 0006C 00BC8  6866     602.              MVC   UPRR01,=X'80000000'     Default is no return
 0007EC D203 6070 A3FA 00070 00BC8  6867     603.              MVC   UPRR14,=X'80000000'     Default is no return
 0007F2 D203 6074 A3FA 00074 00BC8  6868     604.              MVC   UPRR15,=X'80000000'     Default is no return
                                    6869     605.     *
                                    6870     606.     * Validate the parms.
                                    6871     607.     *
 0007F8 9180 C04C      00004        6872     608.              IF    ~@UPCFM31,BEGIN
 0007FC 4710 A036            00804  6882             +
 000800 9200 6054      00054        6887  1  609.                MVI   UPCR01,0                Enforce 24 bit mode
 000804                             6888     610.              END   ,
 000804 5820 6054            00054  6892     611.              L     RA,UPCR01               Get the location
 000808 5020 6064            00064  6893     612.              ST    RA,UPBUFLOC             Save the location
 00080C 4830 605E            0005E  6894     613.              LH    RB,UPCR15+2             Get the length of his buffer
 000810 1233/47D0 A14E       0091C  6895     614.              IF    ((RB,NP),OR,(RB,GT,8192)),WRITSPEC
 000816 5930 A3FE            00BCC  6919             +
 00081A 4720 A14E            0091C  6922             +
 00081E 5030 6068            00068  6928     615.              ST    RB,UPBUFLEN             Save the length of the buffer
 USING  @VALBUF-72,R13              6929     616.              VALBUF (RA),(RB)              Make sure we can read it
 000822 D707 D048 D048 00000 00000  6947             +
 000828 5020 D048            00000  6957             +
 00082C 4030 D04C/1F00       00004  6967             +
 000832 4300 6062            00062  6979             +
 000836 4200 D04E            00006  6985             +
 00083A 58F0 A402/0DEF       00BD0  6991             +
 000840 1200/4770 A152       00920  6993     617.              IF    (RVR,NZ),WRITDONE       Can't... signal the exception
                                    7010     618.     *
                                    7011     619.     * Validate the timeout.
                                    7012     620.     *
 000846 4830 605C            0005C  7013     621.              LH    RB,UPCR15               Get the timeout value
 00084A 1233/4740 A14E       0091C  7014     622.              IF    ((RB,NEG),OR,(RB,GT,6000)),WRITSPEC
 000850 5930 A406            00BD4  7038             +
 000854 4720 A14E            0091C  7041             +
1PATH     (PATH00) (09:43) (22MAR04) Main Entry                                                                             Page   54
0Current Usings:  (PZERO,R0) (UPCB,R6) (WRITE,R10) (@UPCBP-72,R12) (@VALBUF-72,R13)
0Loc    Object Code    Addr1 Addr2  Stmt Lv Lineno    Source Statement           (Hibal 5, Asmedit 3.3)  HLASM R4.0  2004/03/22 09.43
+___    ______ ____    _____ _____  ____ __ ______    ______ _________
0000858 1B22                        7047     623.              CLEAR RA
 00085A 5C20 A40A            00BD8  7051     624.              M     RA,=FE6'1'              Convert to uS
 00085E 8D20 000C            0000C  7052     625.              SLDL  RA,12                   Convert to TOD format
 000862 9023 6078            00078  7053     626.              STM   RA,RB,UPTOVAL           Save the timeout value
                                    7054     627.     *
                                    7055     628.     * See if the path is open.  If not, and we're mode wait, we wait
                                    7056     629.     * for it.
                                    7057     630.     *
 000866 9108 6010      00010        7058     631.              IF    ~OPENED,BEGIN           Path not open yet
 00086A 4710 A0D8            008A6  7068             +
 00086E 9180 6061      00061        7073  1  632.                IF    ~UPMWAIT,BEGIN
 000872 4710 A0B2            00880  7083  1          +
 000876 D203 6074 A40E 00074 00BDC  7088  2  633.                  MVC   UPRR15,=A(16)           Set return code
 00087C 47F0 A138            00906  7089  2  634.                  B     WRITPOST                Post the I/O complete
 000880                             7090  1  635.                END   ,
                                    7094  1  636.
 000880 9602 6011      00011        7095  1  637.                SET   OPENING                 Path opening
 000884 920C 6060      00060        7101  1  638.                SET   UPTWRIT                 Tell the task what to do
 000888 9610 6011      00011        7107  1  639.                SET   TIMEST                  Have it start the timer
 DROP   @VALBUF-72,R13              7113  1  640.                SIGNL UPECB                   Wake it up
 USING  @SIGNAL-72,R13
 00088C D713 D048 D048 00000 00000  7134  1          +
 000892 4100 6018            00018  7146  1          +
 000896 5000 D050            00008  7151  1          +
 00089A 58F0 A412/0DEF       00BE0  7154  1          +
 0008A0 1B00                        7156  1  641.                CLEAR RVR                     Good return from the SVC
 0008A2 47F0 A152            00920  7160  1  642.                B     WRITDONE                All done here
 0008A6                             7161     643.              END   ,
                                    7165     644.     *
                                    7166     645.     * Try to write the data out to the path.
                                    7167     646.     *
 DROP   @SIGNAL-72,R13              7168     647.              PSET  @UPCBP
 USING  @UPCBP-72,R13
 0008A6 D704 D048 D048 00000 00000  7188             +
 0008AC 5060 D048            00000  7189     648.              ST    RX,@UPCB                Pass the UPCB pointer
 0008B0 58F0 A416/0DEF       00BE4  7190     649.              ACALL DOWRITE                 Do the write
                                    7197     650.     *
                                    7198     651.     * See how it went
                                    7199     652.     *
 0008B6 1200/4770 A0F8       008C6  7200     653.              IF    (RVR,Z),BEGIN           The write went ok
 0008BC                             7214  1  654.                CLEAR UPRR15                  Good return code
 0008BC D703 6074 6074 00074 00074  7220  1          +
 0008C2 47F0 A138            00906  7221  1  655.                B     WRITPOST                I/O complete
 0008C6                             7222     656.              END   ,
                                    7226     657.
 0008C6 1200/47B0 A108       008D6  7227     658.              IF    (RVR,NEG),BEGIN         Path closed
 0008CC D203 6074 A41A 00074 00BE8  7241  1  659.                MVC   UPRR15,=A(-4)           Signal return code
 0008D2 47F0 A138            00906  7242  1  660.                B     WRITPOST                I/O complete
 0008D6                             7243     661.              END   ,
                                    7247     662.     *
                                    7248     663.     * It must have been a full queue.
                                    7249     664.     *
 0008D6 9180 6061      00061        7250     665.              IF    UPMWAIT,BEGIN           He will wait for it
 0008DA 47E0 A132            00900  7260             +
1PATH     (PATH00) (09:43) (22MAR04) Main Entry                                                                             Page   55
0Current Usings:  (PZERO,R0) (UPCB,R6) (WRITE,R10) (@UPCBP-72,R12) (@UPCBP-72,R13)
0Loc    Object Code    Addr1 Addr2  Stmt Lv Lineno    Source Statement           (Hibal 5, Asmedit 3.3)  HLASM R4.0  2004/03/22 09.43
+___    ______ ____    _____ _____  ____ __ ______    ______ _________
00008DE 920C 6060      00060        7265  1  666.                SET   UPTWRIT                 Tell the task what to do
 0008E2 9610 6011      00011        7271  1  667.                SET   TIMEST                  Star the timer if needed
 DROP   @UPCBP-72,R13               7277  1  668.                SIGNL UPECB                   Wake up the synch task
 USING  @SIGNAL-72,R13
 0008E6 D713 D048 D048 00000 00000  7298  1          +
 0008EC 4100 6018            00018  7310  1          +
 0008F0 5000 D050            00008  7315  1          +
 0008F4 58F0 A412/0DEF       00BE0  7318  1          +
 0008FA 1B00                        7320  1  669.                CLEAR RVR                     Good return from the SVC
 0008FC 47F0 A152            00920  7324  1  670.                B     WRITDONE                And we're done here
 000900                             7325     671.              END   ,
 000900 D203 6074 A41E 00074 00BEC  7329     672.              MVC   UPRR15,=A(8)            Otherwise we just tell him
                                    7330     673.     *
                                    7331     674.     * All done here
                                    7332     675.     *
 DROP   @SIGNAL-72,R13              7333     676.     WRITPOST PSET  @UPCBP                  Common control block
 USING  @UPCBP-72,R13
 000906 D704 D048 D048 00000 00000  7354             +
 00090C 5060 D048            00000  7355     677.              ST    RX,@UPCB                Tell it which one
 000910 58F0 A422/0DEF       00BF0  7356     678.              ACALL IODONE                  Post it complete
 000916 1B00                        7363     679.              CLEAR RVR                     Good return for the SVC
 000918 47F0 A152            00920  7367     680.              B     WRITDONE                All done
                                    7368     681.
 00091C 4100 0006            00006  7369     682.     WRITSPEC LA    RVR,6
 000920 981F C008            00008  7370     683.     WRITDONE PEND  ,                       Return to the caller
 DROP   UPCB,R6
 DROP   @UPCBP-72,R12
 DROP   WRITE,R10
 000924 9680 C000/0B0E 00000        7391             +
 DROP   @UPCBP-72,R13
1PATH     (PATH00) (09:43) (22MAR04) Main Entry                                                                             Page   56
0Current Usings:  (PZERO,R0)
0Loc    Object Code    Addr1 Addr2  Stmt Lv Lineno    Source Statement           (Hibal 5, Asmedit 3.3)  HLASM R4.0  2004/03/22 09.43
+___    ______ ____    _____ _____  ____ __ ______    ______ _________
0                                   7401     685.     *****************************************************************
                                    7402     686.     *                                                               *
                                    7403     687.     *  DOWRITE --  This routine writes a transaction to the path    *
                                    7404     688.     *              from the user's area.  It return an indication   *
                                    7405     689.     *              of success or failure.                           *
                                    7406     690.     *                                                               *
                                    7407     691.     *   Input  --  @UPCBP                                           *
                                    7408     692.     *                                                               *
                                    7409     693.     *  Output  --  RVR=0: OK; RVR < 0: Closed; RVR > 0: Fullqueue   *
                                    7410     694.     *                                                               *
                                    7411     695.     *****************************************************************
-00092A                             7413     697.     DOWRITE  PROC  @UPCBP,SCOPE=LOCAL      Dudley
 00092A C4D6E6D9C9E3C540            7420             +
 000932 0008/0000                   7421             +
 000936 900F D004/18AF       00004  7423             +
 USING  DOWRITE,R10
 00093C 50D0 C000/18CD       00000  7438             +
 000942 9680 C000      00000        7440             +
 USING  @UPCBP-72,R12
 000946 41D0 C050            00050  7454             +
 00094A 5860 C048            00000  7455     698.              L     RX,@UPCB                Get the UPCB address
 USING  UPCB,R6                     7456     699.              WITH  (UPCB,RX)
                                    7469     700.     *
                                    7470     701.     * Setup for the I/O
                                    7471     702.     *
 00094E 94BF 6010      00010        7472     703.              CLEAR FULLQE                  Pre-clear the flag
 000952 5870 600C            0000C  7479     704.              L     RY,UPIOPA               Get the parm area
 USING  #SCSR,R7                    7480     705.              WITH  (#SCSR,RY)              Address it
 000956                             7493     706.              CLEAR #SCSR
 000956 D717 7000 7000 00000 00000  7499             +
 DROP   #SCSR,R7                    7500     707.              WITH  (#SCOMCMD,RY),'MVC #SCCMD,=A(#SCCSEND)'
 USING  #SCOMCMD,R7
 00095C D203 7000 A2BE 00000 00BF4  7518             +
 DROP   #SCOMCMD,R7
 USING  #SCSR,R7
 USING  @PAGE-72,R13                7534     708.              FIX   L:UPBUFLOC,L:UPBUFLEN   Fix the user's area
 000962 D708 D048 D048 00000 00000  7552             +
 000968 D203 D048 6064 00000 00064  7557             +
 00096E D203 D04C 6068 00004 00068  7562             +
 000974 58F0 A2C2/0DEF       00BF8  7565             +
 DROP   @PAGE-72,R13                7567     709.              ADDSG L:UPBUFLOC,L:UPBUFLEN,#SCSR Add it to the list
 USING  @ADDSEG-72,R13
 00097A D203 D04C 6064 00004 00064  7586             +
 000980 D201 D050 606A 00008 0006A  7591             +
 000986 5070 D048            00000  7602             +
 00098A 58F0 A2C6/0DEF       00BFC  7608             +
                                    7610     710.     *
                                    7611     711.     * Get an IOS ID
                                    7612     712.     *
 000990 9200 D048      00000        7613     713.              PSET  @IOSIDGET
 DROP   @ADDSEG-72,R13
 USING  @IOSIDGET-72,R13
1PATH     (PATH00) (09:43) (22MAR04) Main Entry                                                                             Page   57
0Current Usings:  (PZERO,R0) (UPCB,R6) (#SCSR,R7) (DOWRITE,R10) (@UPCBP-72,R12) (@IOSIDGET-72,R13)
0Loc    Object Code    Addr1 Addr2  Stmt Lv Lineno    Source Statement           (Hibal 5, Asmedit 3.3)  HLASM R4.0  2004/03/22 09.43
+___    ______ ____    _____ _____  ____ __ ______    ______ _________
0000994 9680 D048      00000        7634     714.              SET   @IOSFWAIT               We can wait
 000998 58F0 A2CA/0DEF       00C00  7640     715.              VCALL IOSIDGET                Go get us an ID
 00099E 1850                        7644     716.              LR    RK,RVR                  Copy the ID
 DROP   @IOSIDGET-72,R13            7645     717.              FIX   #SCSR,SCOMPLEN          Fix the parm area
 USING  @PAGE-72,R13
 0009A0 D708 D048 D048 00000 00000  7666             +
 0009A6 5070 D048            00000  7677             +
 0009AA 4100 0068            00068  7689             +
 0009AE 5000 D04C            00004  7694             +
 0009B2 58F0 A2C2/0DEF       00BF8  7697             +
                                    7699     718.     *
                                    7700     719.     * Send the parm area out on the path
                                    7701     720.     *
 DROP   @PAGE-72,R13                7702     721.              PSET  @IOSDOIO
 USING  @IOSDOIO-72,R13
 0009B8 D71D D048 D048 00000 00000  7722             +
 0009BE D207 D050 0208 00008 00208  7723     722.              MVC   @IOSPID,PZCURPID
 0009C4 D203 D048 6004 00000 00004  7724     723.              MVC   @IOSCHID,UPATHID        Path ID
 0009CA 5050 D04C            00004  7725     724.              ST    RK,@IOSID               I/O ID
 0009CE 5070 D058            00010  7726     725.              PMOV  @IOSCP,LA:#SCSR         Parm area address
 0009D2 9680 D065      0001D        7737     726.              SET   @IOSFSYNC               Syncronous
 0009D6 58F0 A2CE/0DEF       00C04  7743     727.              VCALL IOSDOIO                 Do the I/O
 0009DC 1830                        7747     728.              LR    RB,RVR                  Copy the ending status
                                    7748     729.     *
                                    7749     730.     * Free up the stuff we got
                                    7750     731.     *
 DROP   @IOSDOIO-72,R13             7751     732.              UNFIX #SCSR,SCOMPLEN          Unfix the parm area
 USING  @PAGE-72,R13
 0009DE D708 D048 D048 00000 00000  7772             +
 0009E4 5070 D048            00000  7783             +
 0009E8 4100 0068            00068  7795             +
 0009EC 5000 D04C            00004  7800             +
 0009F0 58F0 A2D2/0DEF       00C08  7803             +
 0009F6                             7805     733.              UNFIX L:UPBUFLOC,L:UPBUFLEN   And the buffer
 0009F6 D708 D048 D048 00000 00000  7816             +
 0009FC D203 D048 6064 00000 00064  7821             +
 000A02 D203 D04C 6068 00004 00068  7826             +
 000A08 58F0 A2D2/0DEF       00C08  7829             +
 DROP   @PAGE-72,R13                7831     734.              PSET  @IOSIDFRE
 USING  @IOSIDFRE-72,R13
 000A0E D703 D048 D048 00000 00000  7851             +
 000A14 5050 D048            00000  7852     735.              ST    RK,@IOSFID
 000A18 58F0 A2D6/0DEF       00C0C  7853     736.              VCALL IOSIDFRE                Free the IOS ID
                                    7857     737.     *
                                    7858     738.     * Check the ending status
                                    7859     739.     *
 000A1E 5930 A2DA            00C10  7860     740.              IF    (RB,EQ,#SCESOK),BEGIN   Normal response
 000A22 4770 A0F6            00A2C  7872             +
 000A26 1B00                        7877  1  741.                CLEAR RVR                     Good return code
 000A28 47F0 A15A            00A90  7881  1  742.                EXIT  DOWRITE                 Return to the caller
 000A2C                             7884     743.              END   ,
                                    7888     744.
 000A2C 5930 A2DE            00C14  7889     745.              IF    (RB,EQ,#SCESNP),BEGIN   No partner
 000A30 4770 A106            00A3C  7901             +
1PATH     (PATH00) (09:43) (22MAR04) Main Entry                                                                             Page   58
0Current Usings:  (PZERO,R0) (UPCB,R6) (#SCSR,R7) (DOWRITE,R10) (@UPCBP-72,R12) (@IOSIDFRE-72,R13)
0Loc    Object Code    Addr1 Addr2  Stmt Lv Lineno    Source Statement           (Hibal 5, Asmedit 3.3)  HLASM R4.0  2004/03/22 09.43
+___    ______ ____    _____ _____  ____ __ ______    ______ _________
0000A34 5800 A2B2            00BE8  7906  1  746.                L     RVR,=A(-4)              Path closed
 000A38 47F0 A15A            00A90  7907  1  747.                EXIT  DOWRITE
 000A3C                             7910     748.              END   ,
                                    7914     749.
 000A3C 5930 A2E2            00C18  7915     750.              IF    (RB,EQ,#SCESFQ),BEGIN   Buffer too big
 000A40 4770 A116            00A4C  7927             +
 000A44 4100 0004            00004  7932  1  751.                LA    RVR,4                   Full queue code
 000A48 47F0 A15A            00A90  7933  1  752.                EXIT  DOWRITE
 000A4C                             7936     753.              END   ,
                                    7940     754.
 000A4C 5930 A2E6            00C1C  7941     755.              IF    (RB,EQ,#SCESBOM),BEGIN  Buffer too big
 000A50 4770 A12A            00A60  7953             +
 000A54 4100 0004            00004  7958  1  756.                LA    RVR,4                   Full queue code
 000A58 947F 6061      00061        7959  1  757.                CLEAR UPMWAIT                 Don't hold your breath
 000A5C 47F0 A15A            00A90  7966  1  758.                EXIT  DOWRITE
 000A60                             7969     759.              END   ,
                                    7973     760.
 000A60 AC04 021B      0021B        7974     761.              ABORT PATHREAD                Any other...
 000A64 9680 021A      0021A        7983             +
 000A68 50F0 021C            0021C  7984             +
 000A6C 58F0 0210            00210  7985             +
 000A70 89F0 0010            00010  7986             +
 000A74 88F0 0010            00010  7987             +
 000A78 41F0 F000            00000  7988             +
 000A7C AEFF 0006            00006  7989             +
 000A80 D7C1E3C8D9C5C1C4            7990             +
 000A90 981F C008            00008  7991     762.              PEND  ,
 DROP   #SCSR,R7
 DROP   UPCB,R6
 DROP   @UPCBP-72,R12
 DROP   DOWRITE,R10
 000A94 9680 C000/0B0E 00000        8016             +
 DROP   @IOSIDFRE-72,R13
1PATH     (PATH00) (09:43) (22MAR04) Main Entry                                                                             Page   59
0Current Usings:  (PZERO,R0)
0Loc    Object Code    Addr1 Addr2  Stmt Lv Lineno    Source Statement           (Hibal 5, Asmedit 3.3)  HLASM R4.0  2004/03/22 09.43
+___    ______ ____    _____ _____  ____ __ ______    ______ _________
0                                   8026     764.     *****************************************************************
                                    8027     765.     *                                                               *
                                    8028     766.     *     HALT --  This routine handles the Halt  I/O requests.     *
                                    8029     767.     *                                                               *
                                    8030     768.     *   Input  --  @UPCBP                                           *
                                    8031     769.     *                                                               *
                                    8032     770.     *  Output  --  none                                             *
                                    8033     771.     *                                                               *
                                    8034     772.     *****************************************************************
-000A9A                             8036     774.     HALT     PROC  @UPCBP,SCOPE=LOCAL
 000A9A C8C1D3E340404040            8043             +
 000AA2 0008/0000                   8044             +
 000AA6 900F D004/18AF       00004  8046             +
 USING  HALT,R10
 000AAC 50D0 C000/18CD       00000  8061             +
 000AB2 9680 C000      00000        8063             +
 USING  @UPCBP-72,R12
 000AB6 41D0 C050            00050  8077             +
 000ABA 5860 C048            00000  8078     775.              L     RX,@UPCB                Get the UPCB address
 USING  UPCB,R6                     8079     776.              WITH  (UPCB,RX)
 000ABE 9500 6060      00060        8092     777.              IF    ~IDLE,BEGIN             Don't bother if task idle
 000AC2 4780 A038            00ADE  8102             +
 000AC6 9640 6011      00011        8107  1  778.                SET   DOHALT                  Turn on the flag
 USING  @SIGNAL-72,R13              8113  1  779.                SIGNL UPECB                   Wake it up
 000ACA D713 D048 D048 00000 00000  8131  1          +
 000AD0 4100 6018            00018  8143  1          +
 000AD4 5000 D050            00008  8148  1          +
 000AD8 58F0 A13A/0DEF       00BE0  8151  1          +
 000ADE                             8153     780.              END   ,
 000ADE 1B00                        8157     781.              CLEAR RVR                     Good return
 000AE0 981F C008            00008  8161     782.              PEND  ,                       Return to the caller
 DROP   UPCB,R6
 DROP   @UPCBP-72,R12
 DROP   HALT,R10
 000AE4 9680 C000/0B0E 00000        8181             +
 DROP   @SIGNAL-72,R13
1PATH     (PATH00) (09:43) (22MAR04) Main Entry                                                                             Page   60
0Current Usings:  (PZERO,R0)
0Loc    Object Code    Addr1 Addr2  Stmt Lv Lineno    Source Statement           (Hibal 5, Asmedit 3.3)  HLASM R4.0  2004/03/22 09.43
+___    ______ ____    _____ _____  ____ __ ______    ______ _________
0                                   8191     784.     *****************************************************************
                                    8192     785.     *                                                               *
                                    8193     786.     *   DETACH --  This routine handles the Detach I/O request.     *
                                    8194     787.     *                                                               *
                                    8195     788.     *   Input  --  @UPCBP                                           *
                                    8196     789.     *                                                               *
                                    8197     790.     *  Output  --  none                                             *
                                    8198     791.     *                                                               *
                                    8199     792.     *****************************************************************
-000AEA                             8201     794.     DETACH   PROC  @UPCBP,SCOPE=LOCAL
 000AEA C4C5E3C1C3C84040            8208             +
 000AF2 0008/0000                   8209             +
 000AF6 900F D004/18AF       00004  8211             +
 USING  DETACH,R10
 000AFC 50D0 C000/18CD       00000  8226             +
 000B02 9680 C000      00000        8228             +
 USING  @UPCBP-72,R12
 000B06 41D0 C050            00050  8242             +
 000B0A 5860 C048            00000  8243     795.              L     RX,@UPCB                Get the UPCB address
 USING  UPCB,R6                     8244     796.              WITH  (UPCB,RX)
 000B0E 9604 6011      00011        8257     797.              SET   CLOSING                 Prevent anymore notifies
                                    8263     798.     *
                                    8264     799.     * Setup for the I/O
                                    8265     800.     *
 000B12 5870 600C            0000C  8266     801.              L     RY,UPIOPA               Get the parm area
 USING  #SCCLOSE,R7                 8267     802.              WITH  (#SCCLOSE,RY)           Address it
 000B16                             8280     803.              CLEAR #SCCLOSE
 000B16 D703 7000 7000 00000 00000  8286             +
 DROP   #SCCLOSE,R7                 8287     804.              WITH  (#SCOMCMD,RY),'MVC #SCCMD,=A(#SCCCLOS)'
 USING  #SCOMCMD,R7
 000B1C D203 7000 A12A 00000 00C20  8305             +
 DROP   #SCOMCMD,R7
 USING  #SCCLOSE,R7
                                    8321     805.     *
                                    8322     806.     * Get an IOS ID
                                    8323     807.     *
 000B22 9200 D048      00000        8324     808.              PSET  @IOSIDGET
 USING  @IOSIDGET-72,R13
 000B26 9680 D048      00000        8342     809.              SET   @IOSFWAIT               We can wait
 000B2A 58F0 A10A/0DEF       00C00  8348     810.              VCALL IOSIDGET                Go get us an ID
 000B30 1850                        8352     811.              LR    RK,RVR                  Copy the ID
 DROP   @IOSIDGET-72,R13            8353     812.              FIX   #SCCLOSE,L'#SCCLOSE     Fix the parm area
 USING  @PAGE-72,R13
 000B32 D708 D048 D048 00000 00000  8374             +
 000B38 5070 D048            00000  8385             +
 000B3C 4100 0004            00004  8397             +
 000B40 5000 D04C            00004  8402             +
 000B44 58F0 A102/0DEF       00BF8  8405             +
                                    8407     813.     *
                                    8408     814.     * Send the parm area out on the path
                                    8409     815.     *
 DROP   @PAGE-72,R13                8410     816.              PSET  @IOSDOIO
1PATH     (PATH00) (09:43) (22MAR04) Main Entry                                                                             Page   61
0Current Usings:  (PZERO,R0) (UPCB,R6) (#SCCLOSE,R7) (DETACH,R10) (@UPCBP-72,R12) (@IOSDOIO-72,R13)
0Loc    Object Code    Addr1 Addr2  Stmt Lv Lineno    Source Statement           (Hibal 5, Asmedit 3.3)  HLASM R4.0  2004/03/22 09.43
+___    ______ ____    _____ _____  ____ __ ______    ______ _________
0USING  @IOSDOIO-72,R13
 000B4A D71D D048 D048 00000 00000  8430             +
 000B50 D207 D050 0208 00008 00208  8431     817.              MVC   @IOSPID,PZCURPID
 000B56 D203 D048 6004 00000 00004  8432     818.              MVC   @IOSCHID,UPATHID        Path ID
 000B5C 5050 D04C            00004  8433     819.              ST    RK,@IOSID               I/O ID
 000B60 5070 D058            00010  8434     820.              PMOV  @IOSCP,LA:#SCCLOSE      Parm area address
 000B64 9680 D065      0001D        8445     821.              SET   @IOSFSYNC               Syncronous
 000B68 58F0 A10E/0DEF       00C04  8451     822.              VCALL IOSDOIO                 Do the I/O
                                    8455     823.     *
                                    8456     824.     * Free up the stuff we got
                                    8457     825.     *
 DROP   @IOSDOIO-72,R13             8458     826.              UNFIX #SCCLOSE,L'#SCCLOSE     Unfix the parm area
 USING  @PAGE-72,R13
 000B6E D708 D048 D048 00000 00000  8479             +
 000B74 5070 D048            00000  8490             +
 000B78 4100 0004            00004  8502             +
 000B7C 5000 D04C            00004  8507             +
 000B80 58F0 A112/0DEF       00C08  8510             +
 DROP   @PAGE-72,R13                8512     827.              PSET  @IOSIDFRE
 USING  @IOSIDFRE-72,R13
 000B86 D703 D048 D048 00000 00000  8532             +
 000B8C 5050 D048            00000  8533     828.              ST    RK,@IOSFID
 000B90 58F0 A116/0DEF       00C0C  8534     829.              VCALL IOSIDFRE                Free the IOS ID
                                    8538     830.     *
                                    8539     831.     * Make the processing task clean up
                                    8540     832.     *
 000B96 58F0 A12E/0DEF       00C24  8541     833.              VCALL ASLOCK                  Lock up the address space
 000B9C 9214 6060      00060        8545     834.              SET   UPTDTCH                 Set the detach request code
 DROP   @IOSIDFRE-72,R13            8551     835.              SIGNL UPECB                   Wake up the task
 USING  @SIGNAL-72,R13
 000BA0 D713 D048 D048 00000 00000  8572             +
 000BA6 4100 6018            00018  8584             +
 000BAA 5000 D050            00008  8589             +
 000BAE 58F0 A0EA/0DEF       00BE0  8592             +
 000BB4 58F0 A132/0DEF       00C28  8594     836.              VCALL ASULOCK                 Free the lock
 000BBA 1B00                        8598     837.              CLEAR RVR                     Good return code
 000BBC 981F C008            00008  8602     838.              PEND  ,                       Return to the caller
 DROP   #SCCLOSE,R7
 DROP   UPCB,R6
 DROP   @UPCBP-72,R12
 DROP   DETACH,R10
 000BC0 9680 C000/0B0E 00000        8627             +
 DROP   @SIGNAL-72,R13
1PATH     (PATH00) (09:43) (22MAR04) Main Entry                                                                             Page   62
0Current Usings:  (PZERO,R0)
0Loc    Object Code    Addr1 Addr2  Stmt Lv Lineno    Source Statement           (Hibal 5, Asmedit 3.3)  HLASM R4.0  2004/03/22 09.43
+___    ______ ____    _____ _____  ____ __ ______    ______ _________
0000BC8                             8637     840.              LTORG
 000BC8 80000000                    8639                             =X'80000000'
 000BCC 00002000                    8640                             =A(8192)
 000BD0 00001892                    8641                             =A(VALBUF)
 000BD4 00001770                    8642                             =A(6000)
 000BD8 000F4240                    8643                             =FE6'1'
 000BDC 00000010                    8644                             =A(16)
 000BE0 00000000                    8645                             =V(SIGNAL)
 000BE4 00000936                    8646                             =A(DOWRITE)
 000BE8 FFFFFFFC                    8647                             =A(-4)
 000BEC 00000008                    8648                             =A(8)
 000BF0 00001588                    8649                             =A(IODONE)
 000BF4 0000000C                    8650                             =A(#SCCSEND)
 000BF8 00000000                    8651                             =V(PAGFIX)
 000BFC 000017D0                    8652                             =A(ADDSEG)
 000C00 00000000                    8653                             =V(IOSIDGET)
 000C04 00000000                    8654                             =V(IOSDOIO)
 000C08 00000000                    8655                             =V(PAGUFIX)
 000C0C 00000000                    8656                             =V(IOSIDFRE)
 000C10 00000000                    8657                             =A(#SCESOK)
 000C14 00000010                    8658                             =A(#SCESNP)
 000C18 0000000C                    8659                             =A(#SCESFQ)
 000C1C 00000014                    8660                             =A(#SCESBOM)
 000C20 00000008                    8661                             =A(#SCCCLOS)
 000C24 00000000                    8662                             =V(ASLOCK)
 000C28 00000000       00C2C 01A02  8663                             =V(ASULOCK)
1PATH     (PATH00) (09:43) (22MAR04) Main Entry                                                                             Page   63
0Current Usings:  (PZERO,R0)
0Loc    Object Code    Addr1 Addr2  Stmt Lv Lineno    Source Statement           (Hibal 5, Asmedit 3.3)  HLASM R4.0  2004/03/22 09.43
+___    ______ ____    _____ _____  ____ __ ______    ______ _________
0                                   8668     842.     *****************************************************************
                                    8669     843.     *                                                               *
                                    8670     844.     * PATHTASK --  This routine handles the asynchronous nature of  *
                                    8671     845.     *              path I/O.  It waits for things to happen and     *
                                    8672     846.     *              takes action on what needs to be done.           *
                                    8673     847.     *                                                               *
                                    8674     848.     *   Input  --  @TENTRY                                          *
                                    8675     849.     *                                                               *
                                    8676     850.     *  Output  --  none                                             *
                                    8677     851.     *                                                               *
                                    8678     852.     *****************************************************************
-000C2C                             8680     854.     PATHTASK PROC  @TENTRY,SCOPE=LOCAL
 000C2C D7C1E3C8E3C1E2D2            8687             +
 000C34 0008/0000                   8688             +
 000C38 900F D004/18AF       00004  8690             +
 USING  PATHTASK,R10
 000C3E 50D0 C000/18CD       00000  8705             +
 000C44 9680 C000      00000        8707             +
 USING  @TENTRY-72,R12
 000C48 41D0 C050            00050  8721             +
 000C4C 5860 C048            00000  8722     855.              L     RX,@TEPARM              The parm is our UPCB address
 USING  UPCB,R6                     8723     856.              WITH  (UPCB,RX)
                                    8736     857.     *
                                    8737     858.     * First set up the exit for our notify completion
                                    8738     859.     *
 USING  @EXRADD-72,R13              8739     860.              PSET  @EXRADD
 000C50 D714 D048 D048 00000 00000  8756             +
 000C56 D203 D050 ACF0 00008 01928  8757     861.              MVC   @EXRPSW(4),=X'070C0000'
 000C5C D203 D054 ACF4 0000C 0192C  8758     862.              MVC   @EXRPSW+4(4),=A(X'80000000'+PTIOCX)
 000C62 5060 D058            00010  8759     863.              ST    RX,@EXRPARM             The UPCB is the parm
 AUSING (XITMSKD,@EXRTYPE)          8760     864.              WITH  (XITMSKD,@EXRTYPE),BEGIN
 000C66 9660 D049      00001        8770  1  865.                SET   XITMIOCN+XITMIOCA       I/O complete is all
                                    8779     866.              END   ,
 000C6A 9640 D05C      00014        8782     867.              SET   @EXRAFS
 000C6E 58F0 ACF8/0DEF       01930  8788     868.              VCALL EXRADD                  Go do the actual adding
                                    8792     869.     *
                                    8793     870.     * Then do the exit for the timer.
                                    8794     871.     *
 000C74                             8795     872.              PSET  @EXRADD
 000C74 D714 D048 D048 00000 00000  8805             +
 000C7A D203 D050 ACF0 00008 01928  8806     873.              MVC   @EXRPSW(4),=X'070C0000'
 000C80 D203 D054 ACFC 0000C 01934  8807     874.              MVC   @EXRPSW+4(4),=A(X'80000000'+PTTIMEX)
 000C86 5060 D058            00010  8808     875.              ST    RX,@EXRPARM             The UPCB is the parm
 AUSING (XITMSKD,@EXRTYPE)          8809     876.              WITH  (XITMSKD,@EXRTYPE),BEGIN
 000C8A 9620 D048      00000        8819  1  877.                SET   XITMRTC                 Real time timer
                                    8825     878.              END   ,
 000C8E 9640 D05C      00014        8828     879.              SET   @EXRAFS
 000C92 58F0 ACF8/0DEF       01930  8834     880.              VCALL EXRADD                  Go do the actual adding
1PATH     (PATH00) (09:43) (22MAR04) Main Entry                                                                             Page   64
0Current Usings:  (PZERO,R0) (UPCB,R6) (PATHTASK,R10) (@TENTRY-72,R12) (@EXRADD-72,R13)
0Loc    Object Code    Addr1 Addr2  Stmt Lv Lineno    Source Statement           (Hibal 5, Asmedit 3.3)  HLASM R4.0  2004/03/22 09.43
+___    ______ ____    _____ _____  ____ __ ______    ______ _________
0                                   8839     882.     *
                                    8840     883.     * Enable the exits
                                    8841     884.     *
 DROP   @EXRADD-72,R13              8842     885.              PSET  @XITMSK
 USING  @XITMSK-72,R13
 000C98 D703 D048 D048 00000 00000  8862             +
 AUSING (XITMSKD,@XITMSK)           8863     886.              WITH  (XITMSKD,@XITMSK),BEGIN
 000C9E 9620 D048      00000        8873  1  887.                SET   XITMRTC                 Real time clocks
 000CA2 9660 D049      00001        8879  1  888.                SET   XITMIOCN+XITMIOCA       I/O completion
                                    8888     889.              END   ,
 000CA6 58F0 AD00/0DEF       01938  8891     890.              VCALL XITMASK                 Set the mask
                                    8895     891.     *
                                    8896     892.     * Open up the path.  First get an IOS ID.
                                    8897     893.     *
 000CAC 9200 D048      00000        8898     894.              PSET  @IOSIDGET
 DROP   @XITMSK-72,R13
 USING  @IOSIDGET-72,R13
 000CB0 9680 D048      00000        8919     895.              SET   @IOSFWAIT               We can wait
 000CB4 58F0 AD04/0DEF       0193C  8925     896.              VCALL IOSIDGET                Go get us an ID
 000CBA 1850                        8929     897.              LR    RK,RVR                  Copy the ID
                                    8930     898.     *
                                    8931     899.     * Setup the I/O parameter area.
                                    8932     900.     *
 000CBC 5870 600C            0000C  8933     901.              L     RY,UPIOPA               Get our I/O parm area
 USING  #SCOPEN,R7                  8934     902.              WITH  (#SCOPEN,RY),BEGIN
 000CC0                             8948  1  903.                CLEAR #SCOPEN
 000CC0 D71F 7000 7000 00000 00000  8954  1          +
 DROP   #SCOPEN,R7                  8955  1  904.                WITH  (#SCOMCMD,RY),'MVC #SCCMD,=A(#SCCOPEN)'
 USING  #SCOMCMD,R7
 000CC6 D203 7000 AD08 00000 01940  8973  1          +
 DROP   #SCOMCMD,R7
 USING  #SCOPEN,R7
 000CCC D207 7004 603C 00004 0003C  8989  1  905.                MVC   #SCOME,UPNME            Move in our name
 000CD2 D207 700C 6044 0000C 00044  8990  1  906.                MVC   #SCOYOU,UPNYOU          Move in partner's name
 000CD8 D203 7014 604C 00014 0004C  8991  1  907.                MVC   #SCOPASS,UPNPASS        And the password
 000CDE D203 7018 6038 00018 00038  8992  1  908.                MVC   #SCOBUFL,UPMAXBUF       Max buffer size
 000CE4 58F0 AD0C/0DEF       01944  8993  1  909.                ACALL DOPINFO                 Create PINFO area
 000CEA 1830                        9000  1  910.                LR    RB,RVR                  PINFO area address
 000CEC B110 3000            00000  9001  1  911.                LRA   RS,@RB                   to Real
 000CF0 5010 701C            0001C  9002  1  912.                ST    RS,#SCOINFO              to parameter list
 DROP   @IOSIDGET-72,R13            9003  1  913.                FIX   #SCOPEN,L'#SCOPEN       Fix the memory in core
 USING  @PAGE-72,R13
 000CF4 D708 D048 D048 00000 00000  9024  1          +
 000CFA 5070 D048            00000  9035  1          +
 000CFE 4100 0020            00020  9047  1          +
 000D02 5000 D04C            00004  9052  1          +
 000D06 58F0 AD10/0DEF       01948  9055  1          +
 000D0C                             9057  1  914.                FIX   @RB,L'PINFO+4
 000D0C D708 D048 D048 00000 00000  9068  1          +
 000D12 4100 3000            00000  9080  1          +
 000D16 5000 D048            00000  9085  1          +
 000D1A 4100 0084            00084  9097  1          +
 000D1E 5000 D04C            00004  9102  1          +
 000D22 58F0 AD10/0DEF       01948  9105  1          +
1PATH     (PATH00) (09:43) (22MAR04) Main Entry                                                                             Page   65
0Current Usings:  (PZERO,R0) (UPCB,R6) (#SCOPEN,R7) (PATHTASK,R10) (@TENTRY-72,R12) (@PAGE-72,R13)
0Loc    Object Code    Addr1 Addr2  Stmt Lv Lineno    Source Statement           (Hibal 5, Asmedit 3.3)  HLASM R4.0  2004/03/22 09.43
+___    ______ ____    _____ _____  ____ __ ______    ______ _________
0                                   9107  1  915.     *
                                    9108  1  916.     * Go ahead and do the I/O
                                    9109  1  917.     *
 DROP   @PAGE-72,R13                9110  1  918.                PSET  @IOSDOIO                Setup for the Call
 USING  @IOSDOIO-72,R13
 000D28 D71D D048 D048 00000 00000  9130  1          +
 000D2E D207 D050 0208 00008 00208  9131  1  919.                MVC   @IOSPID,PZCURPID
 000D34 5070 D058            00010  9132  1  920.                PMOV  @IOSCP,LA:#SCOPEN       Channel program
 000D38                             9143  1  921.                PMOV  @IOSCHID,UPATHID        Device ID of the path
 000D38 D203 D048 6004 00000 00004  9147  1          +
 000D3E 5050 D04C            00004  9148  1  922.                ST    RK,@IOSID               IOS ID
 000D42 9680 D065      0001D        9149  1  923.                SET   @IOSFSYNC               Synchronous I/O
 000D46 58F0 AD14/0DEF       0194C  9155  1  924.                VCALL IOSDOIO                 Do the OPEN
 000D4C 1200/4780 A14A       00D82  9159  1  925.                IF    (RVR,NZ),'ABORT BADOPEN'
 000D52 AC04 021B      0021B        9177  2          +
 000D56 9680 021A      0021A        9183  2          +
 000D5A 50F0 021C            0021C  9184  2          +
 000D5E 58F0 0210            00210  9185  2          +
 000D62 89F0 0010            00010  9186  2          +
 000D66 88F0 0010            00010  9187  2          +
 000D6A 41F0 F000            00000  9188  2          +
 000D6E AEFF 0006            00006  9189  2          +
 000D72 C2C1C4D6D7C5D540            9190  1          +
                                    9195  1  926.     *
                                    9196  1  927.     * Free up the stuff we got
                                    9197  1  928.     *
 DROP   @IOSDOIO-72,R13             9198  1  929.                UNFIX #SCOPEN,L'#SCOPEN       Unfix the parm area
 USING  @PAGE-72,R13
 000D82 D708 D048 D048 00000 00000  9219  1          +
 000D88 5070 D048            00000  9230  1          +
 000D8C 4100 0020            00020  9242  1          +
 000D90 5000 D04C            00004  9247  1          +
 000D94 58F0 AD18/0DEF       01950  9250  1          +
 000D9A                             9252  1  930.                UNFIX @RB,L'PINFO+4
 000D9A D708 D048 D048 00000 00000  9263  1          +
 000DA0 4100 3000            00000  9275  1          +
 000DA4 5000 D048            00000  9280  1          +
 000DA8 4100 0084            00084  9292  1          +
 000DAC 5000 D04C            00004  9297  1          +
 000DB0 58F0 AD18/0DEF       01950  9300  1          +
 DROP   @PAGE-72,R13                9302  1  931.                PSET  @PINFO
 USING  @PINFO-72,R13
 000DB6 D703 D048 D048 00000 00000  9322  1          +
 000DBC 5030 D048            00000  9323  1  932.                ST    RB,@PINFOP
 000DC0 58F0 AD1C/0DEF       01954  9324  1  933.                ACALL RELPINFO                Release the Pinfo area
 DROP   @PINFO-72,R13               9331  1  934.                PSET  @IOSIDFRE
 USING  @IOSIDFRE-72,R13
 000DC6 D703 D048 D048 00000 00000  9351  1          +
 000DCC 5050 D048            00000  9352  1  935.                ST    RK,@IOSFID
 000DD0 58F0 AD20/0DEF       01958  9353  1  936.                VCALL IOSIDFRE                Free the IOS ID
 DROP   #SCOPEN,R7                  9357     937.              END   ,
                                    9365     938.     *
                                    9366     939.     * If a timer needs to be started, we do that too.
                                    9367     940.     *
1PATH     (PATH00) (09:43) (22MAR04) Main Entry                                                                             Page   66
0Current Usings:  (PZERO,R0) (UPCB,R6) (PATHTASK,R10) (@TENTRY-72,R12) (@IOSIDFRE-72,R13)
0Loc    Object Code    Addr1 Addr2  Stmt Lv Lineno    Source Statement           (Hibal 5, Asmedit 3.3)  HLASM R4.0  2004/03/22 09.43
+___    ______ ____    _____ _____  ____ __ ______    ______ _________
0000DD6 9110 6011      00011        9368     941.              IF    TIMEST,BEGIN
 000DDA 47E0 A1BA            00DF2  9378             +
 000DDE 94EF 6011      00011        9383  1  942.                CLEAR TIMEST                  Clear the flag
 DROP   @IOSIDFRE-72,R13            9390  1  943.                PSET  @UPCBP
 USING  @UPCBP-72,R13
 000DE2 D704 D048 D048 00000 00000  9410  1          +
 000DE8 5060 D048            00000  9411  1  944.                ST    RX,@UPCB
 000DEC 58F0 AD24/0DEF       0195C  9412  1  945.                ACALL DOTIME                  And start the timer
 000DF2                             9419     946.              END   ,
                                    9423     947.     *
                                    9424     948.     * Start the notify up.
                                    9425     949.     *
 000DF2                             9426     950.              PSET  @UPCBP
 000DF2 D704 D048 D048 00000 00000  9436             +
 000DF8 5060 D048            00000  9437     951.              ST    RX,@UPCB
 000DFC 58F0 AD28/0DEF       01960  9438     952.              ACALL DONOTE                  Go and do it
1PATH     (PATH00) (09:43) (22MAR04) Main Entry                                                                             Page   67
0Current Usings:  (PZERO,R0) (UPCB,R6) (PATHTASK,R10) (@TENTRY-72,R12) (@UPCBP-72,R13)
0Loc    Object Code    Addr1 Addr2  Stmt Lv Lineno    Source Statement           (Hibal 5, Asmedit 3.3)  HLASM R4.0  2004/03/22 09.43
+___    ______ ____    _____ _____  ____ __ ______    ______ _________
0                                   9446     954.     *
                                    9447     955.     * This is the main loop of the Path processing task.  It waits for
                                    9448     956.     * event to occur, then handles the event.
                                    9449     957.     *
-000E02                             9451     959.     MLOOP    LABEL ,
                                    9453     960.     *
                                    9454     961.     * Wait for something to happen
                                    9455     962.     *
 DROP   @UPCBP-72,R13               9456     963.              AWAIT UPECB,LEN=LONG          Might be a long time
 USING  @AWAIT-72,R13
 000E02 D704 D048 D048 00000 00000  9477             +
 000E08 4100 6018            00018  9489             +
 000E0C 5000 D048            00000  9494             +
 000E10 9680 D04C      00004        9500             +
 000E14 58F0 AD2C/0DEF       01964  9503             +
 000E1A                             9505     964.              CLEAR UPECB                   Clear it out
 000E1A D707 6018 6018 00018 00018  9511             +
                                    9512     965.     *
                                    9513     966.     * We are awake now, let's find out what happened.
                                    9514     967.     *
 000E20 9500 6060      00060        9515     968.     IOACT    IF    ~IDLE,BEGIN             Some I/O is active
 000E24 4780 A3C8            01000  9526             +
                                    9531  1  969.     *
                                    9532  1  970.     * If a halt request was received we terminate the I/O right now.
                                    9533  1  971.     *
 000E28 9140 6011      00011        9534  1  972.                IF    DOHALT,BEGIN
 000E2C 47E0 A212            00E4A  9544  1          +
 000E30 94BF 6011      00011        9549  2  973.                  CLEAR DOHALT                  Clear the flag
 000E34                             9556  2  974.                  CLEAR UPRR15
 000E34 D703 6074 6074 00074 00074  9562  2          +
 000E3A                             9563  2  975.                  CLEAR UPRR01
 000E3A D703 606C 606C 0006C 0006C  9569  2          +
 000E40                             9570  2  976.                  CLEAR UPRR14                  All registers cleared.
 000E40 D703 6070 6070 00070 00070  9576  2          +
 000E46 47F0 A392            00FCA  9577  2  977.                  B     ACTIOPST                Post it complete
 000E4A                             9578  1  978.                END   ,
                                    9582  1  979.     *
                                    9583  1  980.     * If a timer needs to be started, we do that too.
                                    9584  1  981.     *
 000E4A 9110 6011      00011        9585  1  982.                IF    TIMEST,BEGIN
 000E4E 47E0 A22E            00E66  9595  1          +
 000E52 94EF 6011      00011        9600  2  983.                  CLEAR TIMEST                  Clear the flag
 DROP   @AWAIT-72,R13               9607  2  984.                  PSET  @UPCBP
 USING  @UPCBP-72,R13
 000E56 D704 D048 D048 00000 00000  9627  2          +
 000E5C 5060 D048            00000  9628  2  985.                  ST    RX,@UPCB
 000E60 58F0 AD24/0DEF       0195C  9629  2  986.                  ACALL DOTIME                  And start the timer
 000E66                             9636  1  987.                END   ,
1PATH     (PATH00) (09:43) (22MAR04) Main Entry                                                                             Page   68
0Current Usings:  (PZERO,R0) (UPCB,R6) (PATHTASK,R10) (@TENTRY-72,R12) (@UPCBP-72,R13)
0Loc    Object Code    Addr1 Addr2  Stmt Lv Lineno    Source Statement           (Hibal 5, Asmedit 3.3)  HLASM R4.0  2004/03/22 09.43
+___    ______ ____    _____ _____  ____ __ ______    ______ _________
0                                   9641  1  989.     *
                                    9642  1  990.     *  Attach
                                    9643  1  991.     *
 000E66 9504 6060      00060        9644  1  992.                IF    UPTATCH,BEGIN           An attach is in progress
 000E6A 4770 A262            00E9A  9654  1          +
 000E6E 9120 6011      00011        9659  2  993.                  IF    TIMEUP,BEGIN            No time left
 000E72 47E0 A24C            00E84  9669  2          +
 000E76 94DF 6011      00011        9674  3  994.                    CLEAR TIMEUP
 000E7A D203 6074 AD30 00074 01968  9681  3  995.                    MVC   UPRR15,=A(16)           Not yet opened return code
 000E80 47F0 A392            00FCA  9682  3  996.                    B     ACTIOPST                Post the user
 000E84                             9683  2  997.                  END   ,
 000E84 9108 6010      00010        9687  2  998.                  IF    OPENED,BEGIN            The path is opened...
 000E88 47E0 A25E            00E96  9697  2          +
 000E8C                             9702  3  999.                    CLEAR UPRR15                  Good return code
 000E8C D703 6074 6074 00074 00074  9708  3          +
 000E92 47F0 A392            00FCA  9709  3 1000.                    B     ACTIOPST                Post it complete
 000E96                             9710  2 1001.                  END   ,
 000E96 47F0 A3C8            01000  9714  2 1002.                  EXIT  IOACT                   Otherwise, keep waiting
 000E9A                             9717  1 1003.                END   ,
1PATH     (PATH00) (09:43) (22MAR04) Main Entry                                                                             Page   69
0Current Usings:  (PZERO,R0) (UPCB,R6) (PATHTASK,R10) (@TENTRY-72,R12) (@UPCBP-72,R13)
0Loc    Object Code    Addr1 Addr2  Stmt Lv Lineno    Source Statement           (Hibal 5, Asmedit 3.3)  HLASM R4.0  2004/03/22 09.43
+___    ______ ____    _____ _____  ____ __ ______    ______ _________
0                                   9722  1 1005.     *
                                    9723  1 1006.     *  Read
                                    9724  1 1007.     *
 000E9A 9508 6060      00060        9725  1 1008.                IF    UPTREAD,BEGIN           A read is in progress
 000E9E 4770 A2FA            00F32  9735  1          +
 000EA2 9120 6011      00011        9740  2 1009.                  IF    TIMEUP,BEGIN            The read timed out
 000EA6 47E0 A292            00ECA  9750  2          +
 000EAA 94DF 6011      00011        9755  3 1010.                    CLEAR TIMEUP
 000EAE 9108 6010      00010        9762  3 1011.                    IF    OPENED,'MVC UPRR15,=A(4)'  No buffer received code
 000EB2 47E0 A284            00EBC  9772  3          +
 000EB6 D203 6074 AD34 00074 0196C  9778  3          +
 000EBC A288           00EBC 00EB4  9783  3 1012.                    ELSE  'MVC UPRR15,=A(16)'        Path not open yet
 000EBC 47F0 A28E            00EC6  9788  3          +
 000EC0 D203 6074 AD30 00074 01968  9795  3          +
 000EC6 47F0 A392            00FCA  9800  3 1013.                    B     ACTIOPST                Post it complete
 000ECA                             9801  2 1014.                  END   ,
                                    9805  2 1015.     *
                                    9806  2 1016.     * See if the path is all tapped out.
                                    9807  2 1017.     *
 000ECA 9120 6010      00010        9808  2 1018.                  IF    ~NEWINFO,BEGIN
 000ECE 4710 A2B0            00EE8  9818  2          +
 000ED2 9180 6010      00010        9823  3 1019.                    IF    CLOSED,BEGIN
 000ED6 47E0 A2AC            00EE4  9833  3          +
 000EDA D203 6074 AD38 00074 01970  9838  4 1020.                      MVC   UPRR15,=A(-4)           Path is closed
 000EE0 47F0 A392            00FCA  9839  4 1021.                      B     ACTIOPST                Post the I/O complete
 000EE4                             9840  3 1022.                    END   ,
 000EE4 47F0 A3C8            01000  9844  3 1023.                    EXIT  IOACT                   Otherwise, nothing to do.
 000EE8                             9847  2 1024.                  END   ,
                                    9851  2 1025.     *
                                    9852  2 1026.     * There is data on the path to be received.  We receive it.
                                    9853  2 1027.     *
 000EE8                             9854  2 1028.                  PSET  @UPCBP                  Common parm area
 000EE8 D704 D048 D048 00000 00000  9864  2          +
 000EEE 5060 D048            00000  9865  2 1029.                  ST    RX,@UPCB                control block address
 000EF2 58F0 AD3C/0DEF       01974  9866  2 1030.                  ACALL DOREAD                  Read a message from the path
 000EF8                             9873  2 1031.                  IF    (UPRLOC,Z),BEGIN        No buffer returned.
 000EF8 D603 6084 6084 00084 00084  9883  2          +
 000EFE 4770 A2E0            00F18  9884  2          +
 000F02 9180 6010      00010        9889  3 1032.                    IF    CLOSED,BEGIN
 000F06 47E0 A2DC            00F14  9899  3          +
 000F0A D203 6074 AD38 00074 01970  9904  4 1033.                      MVC   UPRR15,=A(-4)           Path is closed
 000F10 47F0 A392            00FCA  9905  4 1034.                      B     ACTIOPST                Post the I/O complete
 000F14                             9906  3 1035.                    END   ,
 000F14 47F0 A3C8            01000  9910  3 1036.                    EXIT  IOACT                   Have to wait a little longer
 000F18                             9913  2 1037.                  END
 000F18                             9917  2 1038.                  PSET  @UPCBP                  Common parm area
 000F18 D704 D048 D048 00000 00000  9927  2          +
 000F1E 5060 D048            00000  9928  2 1039.                  ST    RX,@UPCB                control block address
 000F22 58F0 AD40/0DEF       01978  9929  2 1040.                  ACALL DOMOVE                  Move a message to the user
                                    9936  2 1041.
 000F28                             9937  2 1042.                  CLEAR UPRR15                  Good return code
 000F28 D703 6074 6074 00074 00074  9943  2          +
 000F2E 47F0 A392            00FCA  9944  2 1043.                  B     ACTIOPST                All done, post it complete
 000F32                             9945  1 1044.                END   ,
1PATH     (PATH00) (09:43) (22MAR04) Main Entry                                                                             Page   70
0Current Usings:  (PZERO,R0) (UPCB,R6) (PATHTASK,R10) (@TENTRY-72,R12) (@UPCBP-72,R13)
0Loc    Object Code    Addr1 Addr2  Stmt Lv Lineno    Source Statement           (Hibal 5, Asmedit 3.3)  HLASM R4.0  2004/03/22 09.43
+___    ______ ____    _____ _____  ____ __ ______    ______ _________
0                                   9950  1 1046.     *
                                    9951  1 1047.     *  Write
                                    9952  1 1048.     *
 000F32 950C 6060      00060        9953  1 1049.                IF    UPTWRIT,BEGIN           An Write is in progress
 000F36 4770 A38E            00FC6  9963  1          +
 000F3A 9120 6011      00011        9968  2 1050.                  IF    TIMEUP,BEGIN            The write timed out
 000F3E 47E0 A32A            00F62  9978  2          +
 000F42 94DF 6011      00011        9983  3 1051.                    CLEAR TIMEUP
 000F46 9108 6010      00010        9990  3 1052.                    IF    OPENED,'MVC UPRR15,=A(8)' Full queue not relieved
 000F4A 47E0 A31C            00F54 10000  3          +
 000F4E D203 6074 AD44 00074 0197C 10006  3          +
 000F54 A320           00F54 00F4C 10011  3 1053.                    ELSE  'MVC UPRR15,=A(16)'       Path not yet open
 000F54 47F0 A326            00F5E 10016  3          +
 000F58 D203 6074 AD30 00074 01968 10023  3          +
 000F5E 47F0 A392            00FCA 10028  3 1054.                    B     ACTIOPST                Post it complete
 000F62                            10029  2 1055.                  END   ,
 000F62 9180 6010      00010       10033  2 1056.                  IF    CLOSED,BEGIN
 000F66 47E0 A33C            00F74 10043  2          +
 000F6A D203 6074 AD38 00074 01970 10048  3 1057.                    MVC   UPRR15,=A(-4)           Path is closed
 000F70 47F0 A392            00FCA 10049  3 1058.                    B     ACTIOPST                Post the I/O complete
 000F74                            10050  2 1059.                  END   ,
                                   10054  2 1060.
 000F74 9140 6010      00010       10055  2 1061.                  IF    (FULLQE,OR,(OPENED,AND,OPENING)),BEGIN
 000F78 4710 A354            00F8C 10069  2          +
 000F7C 9108 6010      00010       10080  2          +
 000F80 47E0 A38E            00FC6 10081  2          +
 000F84 9102 6011      00011       10092  2          +
 000F88 47E0 A38E            00FC6 10093  2          +
 000F8C 94FD 6011      00011       10098  3 1062.                    CLEAR OPENING
 000F90                            10105  3 1063.                    PSET  @UPCBP                  Common parm area
 000F90 D704 D048 D048 00000 00000 10115  3          +
 000F96 5060 D048            00000 10116  3 1064.                    ST    RX,@UPCB                control block address
 000F9A 58F0 AD48/0DEF       01980 10117  3 1065.                    ACALL DOWRITE                 Write the message to the path
                                   10124  3 1066.
 000FA0 1200/4720 A3C8       01000 10125  3 1067.                    IF    (RVR,POS),EXIT,IOACT    Got another full queue
 000FA6 1200/4770 A37E       00FB6 10142  3 1068.                    IF    (RVR,Z),BEGIN           It all went ok
 000FAC                            10156  4 1069.                      CLEAR UPRR15                  Good return code
 000FAC D703 6074 6074 00074 00074 10162  4          +
 000FB2 47F0 A392            00FCA 10163  4 1070.                      B     ACTIOPST                Complete
 000FB6                            10164  3 1071.                    END   ,
 000FB6 1200/47B0 A38E       00FC6 10168  3 1072.                    IF    (RVR,NEG),BEGIN         Path closed
 000FBC D203 6074 AD38 00074 01970 10182  4 1073.                      MVC   UPRR15,=A(-4)           Code
 000FC2 47F0 A392            00FCA 10183  4 1074.                      B     ACTIOPST                Mark it complete
 000FC6                            10184  3 1075.                    END   ,
 000FC6                            10188  2 1076.                  END   ,
 000FC6                            10192  1 1077.                END   ,
 000FC6 47F0 A3C8            01000 10196  1 1078.                EXIT  IOACT                   Any others do nothing
 000FCA                            10199  1 1079.     ACTIOPST   LABEL ,                       Post an active I/O complete
 000FCA                            10201  1 1080.                PSET  @UPCBP
 000FCA D704 D048 D048 00000 00000 10211  1          +
 000FD0 5060 D048            00000 10212  1 1081.                ST    RX,@UPCB
 000FD4 9200 6060      00060       10213  1 1082.                SET   IDLE                    We are Idle now
 000FD8 9108 6011      00011       10219  1 1083.                IF    TIMERUN,BEGIN           If a timer is running...
 000FDC 47E0 A3B8            00FF0 10229  1          +
1PATH     (PATH00) (09:43) (22MAR04) Main Entry                                                                             Page   71
0Current Usings:  (PZERO,R0) (UPCB,R6) (PATHTASK,R10) (@TENTRY-72,R12) (@UPCBP-72,R13)
0Loc    Object Code    Addr1 Addr2  Stmt Lv Lineno    Source Statement           (Hibal 5, Asmedit 3.3)  HLASM R4.0  2004/03/22 09.43
+___    ______ ____    _____ _____  ____ __ ______    ______ _________
0000FE0                            10234  2 1084.                  PSET  @UPCBP
 000FE0 D704 D048 D048 00000 00000 10244  2          +
 000FE6 5060 D048            00000 10245  2 1085.                  ST    RX,@UPCB
 000FEA 58F0 AD4C/0DEF       01984 10246  2 1086.                  ACALL CANTIME                 Cancel it.
 000FF0                            10253  1 1087.                END   ,
 000FF0                            10257  1 1088.                PSET  @UPCBP                  Common control block
 000FF0 D704 D048 D048 00000 00000 10267  1          +
 000FF6 5060 D048            00000 10268  1 1089.                ST    RX,@UPCB                Tell it which one
 000FFA 58F0 AD50/0DEF       01988 10269  1 1090.                ACALL IODONE                  Post the I/O complete
 001000                            10276    1091.              END   ,
                                   10280    1092.     *
                                   10281    1093.     * We have handled the processing for any I/Os that we had to do.
                                   10282    1094.     * If we were awakened because our notify completed, we have to
                                   10283    1095.     * restart it, unless the path is closed, in which case we're done.
                                   10284    1096.     *
 001000 9180 6011      00011       10285    1097.              IF    IOCOMP,BEGIN
 001004 47E0 A3F0            01028 10295             +
 001008 947F 6011      00011       10300  1 1098.                CLEAR IOCOMP
 00100C 9104 6011      00011       10307  1 1099.                IF    CLOSING,'SET CLOSED'
 001010 47E0 A3E0            01018 10317  1          +
 001014 9680 6010      00010       10328  1          +
 001018                            10333  1 1100.                PSET  @UPCBP
 001018 D704 D048 D048 00000 00000 10343  1          +
 00101E 5060 D048            00000 10344  1 1101.                ST    RX,@UPCB
 001022 58F0 AD28/0DEF       01960 10345  1 1102.                ACALL DONOTE                  Start up the notify again
 001028                            10352    1103.              END   ,
                                   10356    1104.
 001028 9514 6060      00060       10357    1105.              IF    (UPTDTCH,AND,CLOSED),BEGIN
 00102C 4770 A42C            01064 10369             +
 001030 9180 6010      00010       10380             +
 001034 47E0 A42C            01064 10381             +
 001038                            10386  1 1106.                CLEAR UPRR15                  Good return
 001038 D703 6074 6074 00074 00074 10392  1          +
 00103E                            10393  1 1107.                PSET  @UPCBP
 00103E D704 D048 D048 00000 00000 10403  1          +
 001044 5060 D048            00000 10404  1 1108.                ST    RX,@UPCB
 001048 58F0 AD50/0DEF       01988 10405  1 1109.                ACALL IODONE                  Detach I/O complete
 00104E                            10412  1 1110.                PSET  @UPCBP
 00104E D704 D048 D048 00000 00000 10422  1          +
 001054 5060 D048            00000 10423  1 1111.                ST    RX,@UPCB
 001058 58F0 AD54/0DEF       0198C 10424  1 1112.                ACALL DELUPCB                 Free the UPCB
 00105E 58F0 AD58/0DEF       01990 10431  1 1113.                VCALL TEXIT                   Then make the task go away
 001064                            10435    1114.              END   ,
 001064 47F0 A1CA            00E02 10439    1115.              B     MLOOP                   Continue
 001068 981F C008            00008 10440    1116.              PEND  ,                       Return to the caller
 DROP   UPCB,R6
 DROP   @TENTRY-72,R12
 DROP   PATHTASK,R10
 00106C 9680 C000/0B0E 00000       10460             +
 DROP   @UPCBP-72,R13
1PATH     (PATH00) (09:43) (22MAR04) Main Entry                                                                             Page   72
0Current Usings:  (PZERO,R0)
0Loc    Object Code    Addr1 Addr2  Stmt Lv Lineno    Source Statement           (Hibal 5, Asmedit 3.3)  HLASM R4.0  2004/03/22 09.43
+___    ______ ____    _____ _____  ____ __ ______    ______ _________
0                                  10470    1118.     *****************************************************************
                                   10471    1119.     *                                                               *
                                   10472    1120.     *   DONOTE --  This routine issues the notify I/O requests.     *
                                   10473    1121.     *                                                               *
                                   10474    1122.     *   Input  --  @UPCBP                                           *
                                   10475    1123.     *                                                               *
                                   10476    1124.     *  Output  --  none                                             *
                                   10477    1125.     *                                                               *
                                   10478    1126.     *****************************************************************
-001072                            10480    1128.     DONOTE   PROC  @UPCBP,SCOPE=LOCAL
 001072 C4D6D5D6E3C54040           10487             +
 00107A 0008/0000                  10488             +
 00107E 900F D004/18AF       00004 10490             +
 USING  DONOTE,R10
 001084 50D0 C000/18CD       00000 10505             +
 00108A 9680 C000      00000       10507             +
 USING  @UPCBP-72,R12
 00108E 41D0 C050            00050 10521             +
 001092 5860 C048            00000 10522    1129.              L     RX,@UPCB                Get the UPCB address
 USING  UPCB,R6                    10523    1130.              WITH  (UPCB,RX)
                                   10536    1131.     *
                                   10537    1132.     * We have to lock to do this so that we make sure no notifies are sent
                                   10538    1133.     * after the path is closed.
                                   10539    1134.     *
 001096 58F0 A916/0DEF       01994 10540    1135.              VCALL ASLOCK                  Lock up the address space
 00109C 9180 6010      00010       10544    1136.              IF    CLOSED,BEGIN            If it's closing, dont send
 0010A0 47E0 A030            010AE 10554             +
 0010A4 58F0 A91A/0DEF       01998 10559  1 1137.                VCALL ASULOCK                 Free the lock
 0010AA 47F0 A0A0            0111E 10563  1 1138.                EXIT  DONOTE
 0010AE                            10566    1139.              END   ,
                                   10570    1140.     *
                                   10571    1141.     * Setup for the I/O
                                   10572    1142.     *
 0010AE 5870 6020            00020 10573    1143.              L     RY,UPNIOPA              Get the parm area
 USING  #SCNOTE,R7                 10574    1144.              WITH  (#SCNOTE,RY)            Address it
 0010B2                            10587    1145.              CLEAR #SCNOTE
 0010B2 D703 7000 7000 00000 00000 10593             +
 DROP   #SCNOTE,R7                 10594    1146.              WITH  (#SCOMCMD,RY),'MVC #SCCMD,=A(#SCCNOTE)'
 USING  #SCOMCMD,R7
 0010B8 D203 7000 A91E 00000 0199C 10612             +
 DROP   #SCOMCMD,R7
 USING  #SCNOTE,R7
 USING  @PAGE-72,R13               10628    1147.              FIX   #SCNOTE,L'#SCNOTE       Fix the parm area
 0010BE D708 D048 D048 00000 00000 10646             +
 0010C4 5070 D048            00000 10657             +
 0010C8 4100 0004            00004 10669             +
 0010CC 5000 D04C            00004 10674             +
 0010D0 58F0 A8CA/0DEF       01948 10677             +
 0010D6 5850 6008            00008 10679    1148.              L     RK,UPIOCB               Get an IOS ID
                                   10680    1149.     *
                                   10681    1150.     * Send the parm area out on the path
                                   10682    1151.     *
1PATH     (PATH00) (09:43) (22MAR04) Main Entry                                                                             Page   73
0Current Usings:  (PZERO,R0) (UPCB,R6) (#SCNOTE,R7) (DONOTE,R10) (@UPCBP-72,R12) (@IOSDOIO-72,R13)
0Loc    Object Code    Addr1 Addr2  Stmt Lv Lineno    Source Statement           (Hibal 5, Asmedit 3.3)  HLASM R4.0  2004/03/22 09.43
+___    ______ ____    _____ _____  ____ __ ______    ______ _________
0DROP   @PAGE-72,R13               10683    1152.              PSET  @IOSDOIO
 USING  @IOSDOIO-72,R13
 0010DA D71D D048 D048 00000 00000 10703             +
 0010E0 D207 D050 0208 00008 00208 10704    1153.              MVC   @IOSPID,PZCURPID
 0010E6 D203 D048 6004 00000 00004 10705    1154.              MVC   @IOSCHID,UPATHID        Path ID
 0010EC 5050 D04C            00004 10706    1155.              ST    RK,@IOSID               I/O ID
 0010F0 5070 D058            00010 10707    1156.              PMOV  @IOSCP,LA:#SCNOTE       Parm area address
 0010F4 D203 D05C 602C 00014 0002C 10718    1157.              MVC   @IOSXID,UPNXID          Notify exit ID
 0010FA 58F0 A8CE/0DEF       0194C 10719    1158.              VCALL IOSDOIO                 Do the I/O
                                   10723    1159.     *
                                   10724    1160.     * Free up the stuff we got
                                   10725    1161.     *
 DROP   @IOSDOIO-72,R13            10726    1162.              UNFIX #SCNOTE,L'#SCNOTE       Unfix the parm area
 USING  @PAGE-72,R13
 001100 D708 D048 D048 00000 00000 10747             +
 001106 5070 D048            00000 10758             +
 00110A 4100 0004            00004 10770             +
 00110E 5000 D04C            00004 10775             +
 001112 58F0 A8D2/0DEF       01950 10778             +
 001118 58F0 A91A/0DEF       01998 10780    1163.              VCALL ASULOCK                 Free the lock
 00111E 981F C008            00008 10784    1164.              PEND  ,                       Return to the caller
 DROP   #SCNOTE,R7
 DROP   UPCB,R6
 DROP   @UPCBP-72,R12
 DROP   DONOTE,R10
 001122 9680 C000/0B0E 00000       10809             +
 DROP   @PAGE-72,R13
1PATH     (PATH00) (09:43) (22MAR04) Main Entry                                                                             Page   74
0Current Usings:  (PZERO,R0)
0Loc    Object Code    Addr1 Addr2  Stmt Lv Lineno    Source Statement           (Hibal 5, Asmedit 3.3)  HLASM R4.0  2004/03/22 09.43
+___    ______ ____    _____ _____  ____ __ ______    ______ _________
0                                  10819    1166.     *****************************************************************
                                   10820    1167.     *                                                               *
                                   10821    1168.     *  NEWUPCB --  This routine allocates a new UPCB some of the    *
                                   10822    1169.     *              subdidiary control blocks and fills in some of   *
                                   10823    1170.     *              the data areas.                                  *
                                   10824    1171.     *                                                               *
                                   10825    1172.     *   Input  --  none                                             *
                                   10826    1173.     *                                                               *
                                   10827    1174.     *  Output  --  RVR contains the UPCB address.                   *
                                   10828    1175.     *                                                               *
                                   10829    1176.     *****************************************************************
-001128                            10831    1178.     NEWUPCB  PROC  SCOPE=LOCAL
 001128 D5C5E6E4D7C3C240           10838             +
 001130 0000/0000                  10839             +
 001134 900F D004/18AF       00004 10841             +
 USING  NEWUPCB,R10
 00113A 50D0 C000/18CD       00000 10856             +
 001140 9680 C000      00000       10858             +
 001144 41D0 C048            00048 10859             +
                                   10860    1179.     *
                                   10861    1180.     * Allocate the UPCB itself
                                   10862    1181.     *
 USING  @VMGET-72,R13              10863    1182.              VMGET L'UPCB,LOC=LOCSYS       Get the memory
 001148 D70A D048 D048 00000 00000 10887             +
 00114E 4100 0090            00090 10899             +
 001152 5000 D048            00000 10904             +
 001156 D201 D050 A8B0 00008 019E4 10905             +
 00115C 58F0 A86C/0DEF       019A0 10908             +
 001162 1200/4770 A064       01198 10910    1183.              IF    (RVR,Z),'ABORT NOMEM'   No memory here
 001168 AC04 021B      0021B       10928  1          +
 00116C 9680 021A      0021A       10934  1          +
 001170 50F0 021C            0021C 10935  1          +
 001174 58F0 0210            00210 10936  1          +
 001178 89F0 0010            00010 10937  1          +
 00117C 88F0 0010            00010 10938  1          +
 001180 41F0 F000            00000 10939  1          +
 001184 AEFF 0006            00006 10940  1          +
 001188 D5D6D4C5D4404040           10941             +
 001198 1860                       10946    1184.              LR    RX,RVR                  Copy the address
 USING  UPCB,R6                    10947    1185.              WITH  (UPCB,RX)
                                   10960    1186.     *
                                   10961    1187.     * Initialize some of it
                                   10962    1188.     *
 00119A                            10963    1189.              CLEAR UPCB                    Zero it out
 00119A D78F 6000 6000 00000 00000 10969             +
 0011A0 D203 6000 A870 00000 019A4 10970    1190.              MVC   UPCB(4),=C'UPCB'        Move in the ID
 0011A6 D203 6024 020C 00024 0020C 10971    1191.              MVC   UPATSK,PZCURTSK         Task ID of the attacher
                                   10972    1192.     *
                                   10973    1193.     * Allocate some other control blocks
                                   10974    1194.     *
 0011AC                            10975    1195.              VMGET SCOMPLEN,LOC=LOCSYS,ONEPAGE=YES  Get the IO parm area
 0011AC D70A D048 D048 00000 00000 10992             +
1PATH     (PATH00) (09:43) (22MAR04) Main Entry                                                                             Page   75
0Current Usings:  (PZERO,R0) (UPCB,R6) (NEWUPCB,R10) (@VMGET-72,R13)
0Loc    Object Code    Addr1 Addr2  Stmt Lv Lineno    Source Statement           (Hibal 5, Asmedit 3.3)  HLASM R4.0  2004/03/22 09.43
+___    ______ ____    _____ _____  ____ __ ______    ______ _________
00011B2 4100 0068            00068 11004             +
 0011B6 5000 D048            00000 11009             +
 0011BA D201 D050 A8B0 00008 019E4 11010             +
 0011C0 9640 D052      0000A       11016             +
 0011C4 58F0 A86C/0DEF       019A0 11019             +
 0011CA 1200/4770 A0CC       01200 11021    1196.              IF    (RVR,Z),'ABORT NOMEM'
 0011D0 AC04 021B      0021B       11039  1          +
 0011D4 9680 021A      0021A       11045  1          +
 0011D8 50F0 021C            0021C 11046  1          +
 0011DC 58F0 0210            00210 11047  1          +
 0011E0 89F0 0010            00010 11048  1          +
 0011E4 88F0 0010            00010 11049  1          +
 0011E8 41F0 F000            00000 11050  1          +
 0011EC AEFF 0006            00006 11051  1          +
 0011F0 D5D6D4C5D4404040           11052             +
 001200 1820                       11057    1197.              LR    RA,RVR
 001202                            11058    1198.              CLEAR (@RA,SCOMPLEN)          Clear it all out
 001202 D767 2000 2000 00000 00000 11064             +
 001208 5020 600C            0000C 11065    1199.              ST    RA,UPIOPA               Save the address
                                   11066    1200.
 00120C                            11067    1201.              VMGET L'#SCNOTE,LOC=LOCSYS    Get an I/O parm for notify
 00120C D70A D048 D048 00000 00000 11084             +
 001212 4100 0004            00004 11096             +
 001216 5000 D048            00000 11101             +
 00121A D201 D050 A8B0 00008 019E4 11102             +
 001220 58F0 A86C/0DEF       019A0 11105             +
 001226 1200/4770 A128       0125C 11107    1202.              IF    (RVR,Z),'ABORT NOMEM'
 00122C AC04 021B      0021B       11125  1          +
 001230 9680 021A      0021A       11131  1          +
 001234 50F0 021C            0021C 11132  1          +
 001238 58F0 0210            00210 11133  1          +
 00123C 89F0 0010            00010 11134  1          +
 001240 88F0 0010            00010 11135  1          +
 001244 41F0 F000            00000 11136  1          +
 001248 AEFF 0006            00006 11137  1          +
 00124C D5D6D4C5D4404040           11138             +
 00125C 1820                       11143    1203.              LR    RA,RVR
 00125E                            11144    1204.              CLEAR (@RA,L'#SCNOTE)         Clear it all out
 00125E D703 2000 2000 00000 00000 11150             +
 001264 5020 6020            00020 11151    1205.              ST    RA,UPNIOPA              Save the address
                                   11152    1206.
 001268 9200 D048      00000       11153    1207.              PSET  @XITNEW
 DROP   @VMGET-72,R13
 USING  @XITNEW-72,R13
 00126C 58F0 A874/0DEF       019A8 11174    1208.              VCALL XITNEW
 001272 5000 6028            00028 11178    1209.              ST    RVR,UPIOXID             Save the I/O XIT ID
 001276 9200 D048      00000       11179    1210.              PSET  @XITNEW
 00127A 58F0 A874/0DEF       019A8 11190    1211.              VCALL XITNEW
 001280 5000 602C            0002C 11194    1212.              ST    RVR,UPNXID              Save the Notify XIT ID
 001284 9200 D048      00000       11195    1213.              PSET  @XITNEW
 001288 58F0 A874/0DEF       019A8 11206    1214.              VCALL XITNEW
 00128E 5000 6030            00030 11210    1215.              ST    RVR,UPATXID             And the Attention XIT ID
 001292 9200 D048      00000       11211    1216.              PSET  @XITNEW
 001296 58F0 A874/0DEF       019A8 11222    1217.              VCALL XITNEW
1PATH     (PATH00) (09:43) (22MAR04) Main Entry                                                                             Page   76
0Current Usings:  (PZERO,R0) (UPCB,R6) (NEWUPCB,R10) (@XITNEW-72,R13)
0Loc    Object Code    Addr1 Addr2  Stmt Lv Lineno    Source Statement           (Hibal 5, Asmedit 3.3)  HLASM R4.0  2004/03/22 09.43
+___    ______ ____    _____ _____  ____ __ ______    ______ _________
000129C 5000 6034            00034 11226    1218.              ST    RVR,UPTOXID             And the Timer XIT ID
                                   11227    1219.     *
                                   11228    1220.     * Get an IOS ID
                                   11229    1221.     *
 0012A0 9200 D048      00000       11230    1222.              PSET  @IOSIDGET
 DROP   @XITNEW-72,R13
 USING  @IOSIDGET-72,R13
 0012A4 9680 D048      00000       11251    1223.              SET   @IOSFWAIT               We can wait
 0012A8 58F0 A808/0DEF       0193C 11257    1224.              VCALL IOSIDGET                Go get us an ID
 0012AE 5000 6008            00008 11261    1225.              ST    RVR,UPIOCB              Save it for notifies
 0012B2 4100 6000            00000 11262    1226.              LA    RVR,UPCB                Return the UPCB pointer
 0012B6 981F C008            00008 11263    1227.              PEND  ,
 DROP   UPCB,R6
 DROP   NEWUPCB,R10
 0012BA 9680 C000/0B0E 00000       11278             +
 DROP   @IOSIDGET-72,R13
1PATH     (PATH00) (09:43) (22MAR04) Main Entry                                                                             Page   77
0Current Usings:  (PZERO,R0)
0Loc    Object Code    Addr1 Addr2  Stmt Lv Lineno    Source Statement           (Hibal 5, Asmedit 3.3)  HLASM R4.0  2004/03/22 09.43
+___    ______ ____    _____ _____  ____ __ ______    ______ _________
0                                  11288    1229.     *****************************************************************
                                   11289    1230.     *                                                               *
                                   11290    1231.     *  DELUPCB --  This routine frees a UPCB and any subsidiary     *
                                   11291    1232.     *              control blocks associated with it.               *
                                   11292    1233.     *                                                               *
                                   11293    1234.     *   Input  --  @UPCBP                                           *
                                   11294    1235.     *                                                               *
                                   11295    1236.     *  Output  --  none                                             *
                                   11296    1237.     *                                                               *
                                   11297    1238.     *****************************************************************
-0012C0                            11299    1240.     DELUPCB  PROC  @UPCBP,SCOPE=LOCAL
 0012C0 C4C5D3E4D7C3C240           11306             +
 0012C8 0008/0000                  11307             +
 0012CC 900F D004/18AF       00004 11309             +
 USING  DELUPCB,R10
 0012D2 50D0 C000/18CD       00000 11324             +
 0012D8 9680 C000      00000       11326             +
 USING  @UPCBP-72,R12
 0012DC 41D0 C050            00050 11340             +
 0012E0 5860 C048            00000 11341    1241.              L     RX,@UPCB                Get the UPCB address
 USING  UPCB,R6                    11342    1242.              WITH  (UPCB,RX)
 0012E4 D203 6000 A6E0 00000 019AC 11355    1243.              MVC   UPCB(4),=C'upcb'        Mark it as deleted
                                   11356    1244.     *
                                   11357    1245.     * Delete the associated control blocks
                                   11358    1246.     *
 USING  @IOSIDFRE-72,R13           11359    1247.              PSET  @IOSIDFRE
 0012EA D703 D048 D048 00000 00000 11376             +
 0012F0                            11377    1248.              PMOV  @IOSFID,UPIOCB
 0012F0 D203 D048 6008 00000 00008 11381             +
 0012F6 58F0 A68C/0DEF       01958 11382    1249.              VCALL IOSIDFRE                Free the IOS ID
                                   11386    1250.
 DROP   @IOSIDFRE-72,R13           11387    1251.              VMFREE SCOMPLEN,A=UPIOPA,LOC=LOCSYS     Free the IO parm
 USING  @VMFREE-72,R13
 0012FC D709 D048 D048 00000 00000 11414             +
 001302 4100 0068            00068 11426             +
 001306 5000 D04C            00004 11431             +
 00130A D203 D048 600C 00000 0000C 11436             +
 001310 D201 D050 A718 00008 019E4 11437             +
 001316 58F0 A6E4/0DEF       019B0 11440             +
 00131C 1200/4780 A086       01352 11442    1252.              IF    (RVR,NZ),'ABORT DELIOPA'
 001322 AC04 021B      0021B       11460  1          +
 001326 9680 021A      0021A       11466  1          +
 00132A 50F0 021C            0021C 11467  1          +
 00132E 58F0 0210            00210 11468  1          +
 001332 89F0 0010            00010 11469  1          +
 001336 88F0 0010            00010 11470  1          +
 00133A 41F0 F000            00000 11471  1          +
 00133E AEFF 0006            00006 11472  1          +
 001342 C4C5D3C9D6D7C140           11473             +
 001352                            11478    1253.              VMFREE L'#SCNOTE,A=UPNIOPA,LOC=LOCSYS   Free the IO parm
 001352 D709 D048 D048 00000 00000 11495             +
 001358 4100 0004            00004 11507             +
1PATH     (PATH00) (09:43) (22MAR04) Main Entry                                                                             Page   78
0Current Usings:  (PZERO,R0) (UPCB,R6) (DELUPCB,R10) (@UPCBP-72,R12) (@VMFREE-72,R13)
0Loc    Object Code    Addr1 Addr2  Stmt Lv Lineno    Source Statement           (Hibal 5, Asmedit 3.3)  HLASM R4.0  2004/03/22 09.43
+___    ______ ____    _____ _____  ____ __ ______    ______ _________
000135C 5000 D04C            00004 11512             +
 001360 D203 D048 6020 00000 00020 11517             +
 001366 D201 D050 A718 00008 019E4 11518             +
 00136C 58F0 A6E4/0DEF       019B0 11521             +
 001372 1200/4780 A0DC       013A8 11523    1254.              IF    (RVR,NZ),'ABORT DELNIOPA'
 001378 AC04 021B      0021B       11541  1          +
 00137C 9680 021A      0021A       11547  1          +
 001380 50F0 021C            0021C 11548  1          +
 001384 58F0 0210            00210 11549  1          +
 001388 89F0 0010            00010 11550  1          +
 00138C 88F0 0010            00010 11551  1          +
 001390 41F0 F000            00000 11552  1          +
 001394 AEFF 0006            00006 11553  1          +
 001398 C4C5D3D5C9D6D7C1           11554             +
                                   11559    1255.     *
 DROP   @VMFREE-72,R13             11560    1256.              PSET  @XITDEL
 USING  @XITDEL-72,R13
 0013A8 D703 D048 D048 00000 00000 11580             +
 0013AE D203 D048 6028 00000 00028 11581    1257.              MVC   @XITDID,UPIOXID         I/O Complete XIT Id
 0013B4 58F0 A6E8/0DEF       019B4 11582    1258.              VCALL XITDEL
 0013BA                            11586    1259.              PSET  @XITDEL
 0013BA D703 D048 D048 00000 00000 11596             +
 0013C0 D203 D048 602C 00000 0002C 11597    1260.              MVC   @XITDID,UPNXID          Notify Complete XIT Id
 0013C6 58F0 A6E8/0DEF       019B4 11598    1261.              VCALL XITDEL
 0013CC                            11602    1262.              PSET  @XITDEL
 0013CC D703 D048 D048 00000 00000 11612             +
 0013D2 D203 D048 6030 00000 00030 11613    1263.              MVC   @XITDID,UPATXID         Attention XIT Id
 0013D8 58F0 A6E8/0DEF       019B4 11614    1264.              VCALL XITDEL
 0013DE                            11618    1265.              PSET  @XITDEL
 0013DE D703 D048 D048 00000 00000 11628             +
 0013E4 D203 D048 6034 00000 00034 11629    1266.              MVC   @XITDID,UPTOXID         Timer XIT Id
 0013EA 58F0 A6E8/0DEF       019B4 11630    1267.              VCALL XITDEL
                                   11634    1268.     *
                                   11635    1269.     * Free the UPCB itself
                                   11636    1270.     *
 0013F0                            11637    1271.              CLEAR UPCB                    Blitz it
 0013F0 D78F 6000 6000 00000 00000 11643             +
 DROP   @XITDEL-72,R13             11644    1272.              VMFREE L'UPCB,A=LA:UPCB,LOC=LOCSYS      Free the memory
 USING  @VMFREE-72,R13
 0013F6 D709 D048 D048 00000 00000 11671             +
 0013FC 4100 0090            00090 11683             +
 001400 5000 D04C            00004 11688             +
 001404 5060 D048            00000 11699             +
 001408 D201 D050 A718 00008 019E4 11700             +
 00140E 58F0 A6E4/0DEF       019B0 11703             +
 001414 1200/4780 A17E       0144A 11705    1273.              IF    (RVR,NZ),'ABORT FREEUPCB'         Something went wrong
 00141A AC04 021B      0021B       11723  1          +
 00141E 9680 021A      0021A       11729  1          +
 001422 50F0 021C            0021C 11730  1          +
 001426 58F0 0210            00210 11731  1          +
 00142A 89F0 0010            00010 11732  1          +
 00142E 88F0 0010            00010 11733  1          +
 001432 41F0 F000            00000 11734  1          +
 001436 AEFF 0006            00006 11735  1          +
1PATH     (PATH00) (09:43) (22MAR04) Main Entry                                                                             Page   79
0Current Usings:  (PZERO,R0) (UPCB,R6) (DELUPCB,R10) (@UPCBP-72,R12) (@VMFREE-72,R13)
0Loc    Object Code    Addr1 Addr2  Stmt Lv Lineno    Source Statement           (Hibal 5, Asmedit 3.3)  HLASM R4.0  2004/03/22 09.43
+___    ______ ____    _____ _____  ____ __ ______    ______ _________
000143A C6D9C5C5E4D7C3C2           11736             +
 00144A 981F C008            00008 11741    1274.              PEND  ,                       Return to the caller
 DROP   UPCB,R6
 DROP   @UPCBP-72,R12
 DROP   DELUPCB,R10
 00144E 9680 C000/0B0E 00000       11761             +
 DROP   @VMFREE-72,R13
1PATH     (PATH00) (09:43) (22MAR04) Main Entry                                                                             Page   80
0Current Usings:  (PZERO,R0)
0Loc    Object Code    Addr1 Addr2  Stmt Lv Lineno    Source Statement           (Hibal 5, Asmedit 3.3)  HLASM R4.0  2004/03/22 09.43
+___    ______ ____    _____ _____  ____ __ ______    ______ _________
0                                  11771    1276.     *****************************************************************
                                   11772    1277.     *                                                               *
                                   11773    1278.     *  DOPINFO --  This routine creates a PINFO area                *
                                   11774    1279.     *                                                               *
                                   11775    1280.     *   Input  --  none                                             *
                                   11776    1281.     *                                                               *
                                   11777    1282.     *  Output  --  Pointer to PINFO area                            *
                                   11778    1283.     *                                                               *
                                   11779    1284.     *****************************************************************
-001454                            11781    1286.     DOPINFO  PROC  ,SCOPE=LOCAL
 001454 C4D6D7C9D5C6D640           11788             +
 00145C 0000/0000                  11789             +
 001460 900F D004/18AF       00004 11791             +
 USING  DOPINFO,R10
 001466 50D0 C000/18CD       00000 11806             +
 00146C 9680 C000      00000       11808             +
 001470 41D0 C048            00048 11809             +
 USING  @VMGET-72,R13              11810    1287.              VMGET L'PINFO+4,LOC=LOCSYS
 001474 D70A D048 D048 00000 00000 11834             +
 00147A 4100 0084            00084 11846             +
 00147E 5000 D048            00000 11851             +
 001482 D201 D050 A584 00008 019E4 11852             +
 001488 58F0 A540/0DEF       019A0 11855             +
 00148E 1230/4770 A064       014C4 11857    1288.              IF    ('LTR RB,RVR',Z),'ABORT NOPINMEM'   No memory here
 001494 AC04 021B      0021B       11874  1          +
 001498 9680 021A      0021A       11880  1          +
 00149C 50F0 021C            0021C 11881  1          +
 0014A0 58F0 0210            00210 11882  1          +
 0014A4 89F0 0010            00010 11883  1          +
 0014A8 88F0 0010            00010 11884  1          +
 0014AC 41F0 F000            00000 11885  1          +
 0014B0 AEFF 0006            00006 11886  1          +
 0014B4 D5D6D7C9D5D4C5D4           11887             +
                                   11892    1289.     *
                                   11893    1290.     *  Set area length
                                   11894    1291.     *
 0014C4 4110 0080            00080 11895    1292.              LA    RS,L'PINFO
 0014C8 5010 3000            00000 11896    1293.              ST    RS,@RB                  First word is area length
                                   11897    1294.     *
                                   11898    1295.     * Fill in PINFO fields
                                   11899    1296.     *
 0014CC 4120 3004            00004 11900    1297.              LA    RA,@RB+4                PINFO area
 USING  PINFO,R2                   11901    1298.              WITH  (PINFO,RA)
 0014D0                            11914    1299.              CLEAR PINFO                   Zero it out
 0014D0 D77F 2000 2000 00000 00000 11920             +
 0014D6 D203 2000 A558 00000 019B8 11921    1300.              MVC   PINFO(4),=CL4'PINF'     Eye catcher id
                                   11922    1301.     *
                                   11923    1302.     *  Set ORVYL system name
                                   11924    1303.     *
                                   11925    1304.              USING PZERO,R0
 0014DC 5810 0200            00200 11927    1305.              L     RS,PZMATP               MAT POINTER
 DROP   PZERO,R0                   11928    1306.              DROP  R0
1PATH     (PATH00) (09:43) (22MAR04) Main Entry                                                                             Page   81
0Current Usings:  (MAT,R1) (PINFO,R2) (DOPINFO,R10) (@VMGET-72,R13)
0Loc    Object Code    Addr1 Addr2  Stmt Lv Lineno    Source Statement           (Hibal 5, Asmedit 3.3)  HLASM R4.0  2004/03/22 09.43
+___    ______ ____    _____ _____  ____ __ ______    ______ _________
0USING  MAT,R1                     11936    1307.              WITH  (MAT,RS)
 0014E0 D207 2008 10D4 00008 000D4 11949    1308.              MVC   PINFOSYS,MATSNAME
 DROP   MAT,R1                     11950    1309.              DROP  RS
                                   11957    1310.     *
                                   11958    1311.     *  Get logged on account and privileges
                                   11959    1312.     *
 DROP   @VMGET-72,R13              11960    1313.              PSET  @ACAINFO
 USING  @ACAINFO-72,R13
 0014E6 D717 D048 D048 00000 00000 11980             +
 USING  PZERO,R0                   11981    1314.              USING PZERO,R0
 0014EC D203 D048 0208 00000 00208 11990    1315.              MVC   @ACAASB,PZCURASB        CURRENT ASB
 DROP   PZERO,R0                   11991    1316.              DROP  R0
 0014F2 58F0 A55C/0DEF       019BC 11999    1317.              VCALL ACAINFO                 GET INFO
 0014F8 D207 2010 A4C0 00010 01920 12003    1318.              MVC   PINFOACC,=CL8' '
 0014FE D201 2010 D04F 00010 00007 12004    1319.              MVC   PINFOACC(2),@ACAUID+3   GROUP
 001504 924B 2012      00012       12005    1320.              MVI   PINFOACC+2,C'.'
 001508 D202 2013 D04C 00013 00004 12006    1321.              MVC   PINFOACC+3(3),@ACAUID   USER
 00150E D200 2030 D057 00030 0000F 12007    1322.              MVC   PINFOIFL,MILPRIV        SET PRIVS
                                   12008    1323.     *
                                   12009    1324.     *  Milten line
                                   12010    1325.     *
 001514 D201 2032 A586 00032 019E6 12011    1326.              MVC   PINFOLNO,=H'-1'
 00151A 1803                       12012    1327.              LR    RVR,RB                  Area pointer
 00151C 981F C008            00008 12013    1328.              PEND  ,
 DROP   PINFO,R2
 DROP   DOPINFO,R10
 001520 9680 C000/0B0E 00000       12030             +
 DROP   @ACAINFO-72,R13
1PATH     (PATH00) (09:43) (22MAR04) Main Entry                                                                             Page   82
0Loc    Object Code    Addr1 Addr2  Stmt Lv Lineno    Source Statement           (Hibal 5, Asmedit 3.3)  HLASM R4.0  2004/03/22 09.43
+___    ______ ____    _____ _____  ____ __ ______    ______ _________
0                                  12040    1330.     *****************************************************************
                                   12041    1331.     *                                                               *
                                   12042    1332.     *  RELPINFO --  This routine deletes a PINFO area               *
                                   12043    1333.     *                                                               *
                                   12044    1334.     *   Input  --  Pointer to PINFO area                            *
                                   12045    1335.     *                                                               *
                                   12046    1336.     *  Output  --  none                                             *
                                   12047    1337.     *                                                               *
                                   12048    1338.     *****************************************************************
-001526                            12050    1340.     RELPINFO PROC  @PINFO,SCOPE=LOCAL
 001526 D9C5D3D7C9D5C6D6           12057             +
 00152E 0008/0000                  12058             +
 001532 900F D004/18AF       00004 12060             +
 USING  RELPINFO,R10
 001538 50D0 C000/18CD       00000 12075             +
 00153E 9680 C000      00000       12077             +
 USING  @PINFO-72,R12
 001542 41D0 C050            00050 12091             +
 001546 5830 C048            00000 12092    1341.              L     RB,@PINFOP
 00154A 4110 3004            00004 12093    1342.              LA    RS,@RB+4
 USING  PINFO,R1                   12094    1343.              WITH  (PINFO,RS)
 00154E                            12107    1344.              CLEAR PINFO
 00154E D77F 1000 1000 00000 00000 12113             +
 USING  @VMFREE-72,R13             12114    1345.              VMFREE L'PINFO+4,A=(RB),LOC=LOCSYS
 001554 D709 D048 D048 00000 00000 12138             +
 00155A 4100 0084            00084 12150             +
 00155E 5000 D04C            00004 12155             +
 001562 5030 D048            00000 12165             +
 001566 D201 D050 A4B2 00008 019E4 12166             +
 00156C 58F0 A47E/0DEF       019B0 12169             +
 001572 981F C008            00008 12171    1346.              PEND  ,
 DROP   PINFO,R1
 DROP   @PINFO-72,R12
 DROP   RELPINFO,R10
 001576 9680 C000/0B0E 00000       12191             +
 DROP   @VMFREE-72,R13
1PATH     (PATH00) (09:43) (22MAR04) Main Entry                                                                             Page   83
0Loc    Object Code    Addr1 Addr2  Stmt Lv Lineno    Source Statement           (Hibal 5, Asmedit 3.3)  HLASM R4.0  2004/03/22 09.43
+___    ______ ____    _____ _____  ____ __ ______    ______ _________
0                                  12201    1348.     *****************************************************************
                                   12202    1349.     *                                                               *
                                   12203    1350.     *   IODONE --  Signal the I/O requestor that the I/O is         *
                                   12204    1351.     *              complete.  It uses information from the UPCB.    *
                                   12205    1352.     *                                                               *
                                   12206    1353.     *   Input  --  @UPCBP                                           *
                                   12207    1354.     *                                                               *
                                   12208    1355.     *  Output  --  none                                             *
                                   12209    1356.     *                                                               *
                                   12210    1357.     *****************************************************************
-00157C                            12212    1359.     IODONE   PROC  @UPCBP,SCOPE=LOCAL
 00157C C9D6C4D6D5C54040           12219             +
 001584 0008/0000                  12220             +
 001588 900F D004/18AF       00004 12222             +
 USING  IODONE,R10
 00158E 50D0 C000/18CD       00000 12237             +
 001594 9680 C000      00000       12239             +
 USING  @UPCBP-72,R12
 001598 41D0 C050            00050 12253             +
 00159C 5860 C048            00000 12254    1360.              L     RX,@UPCB                Get the UPCB address
 USING  UPCB,R6                    12255    1361.              WITH  (UPCB,RX)
                                   12268    1362.     *
                                   12269    1363.     * Schedule the I/O complete exit
                                   12270    1364.     *
 USING  @XITDO-72,R13              12271    1365.              PSET  @XITDO
 0015A0 D71F D048 D048 00000 00000 12288             +
 0015A6 D203 D048 6028 00000 00028 12289    1366.              MVC   @XITRQID,UPIOXID        Move in the request ID
 0015AC D203 D04C 6024 00004 00024 12290    1367.              MVC   @XITTSK,UPATSK          Task ID
 0015B2 9209 D050      00008       12291    1368.              MVI   @XITTYPE,XITTIOCN       I/O complete
 AUSING (@M1PIOCP,@XITPARM)        12292    1369.              WITH  (@M1PIOCP,@XITPARM)     Map the parm area
 0015B6 D203 D058 6050 00000 00050 12299    1370.              MVC   @M1PICRQ,UPCRID         Current request ID
 0015BC D203 D05C 606C 00004 0006C 12300    1371.              MVC   @M1PIR01,UPRR01         Register 1
 0015C2 D203 D060 6070 00008 00070 12301    1372.              MVC   @M1PIR14,UPRR14         Register 14
 0015C8 D203 D064 6074 0000C 00074 12302    1373.              MVC   @M1PIR15,UPRR15         Register 15
 0015CE 58F0 A438/0DEF       019C0 12303    1374.              VCALL XITDO                   Schedule the exit
 0015D4 1200/4780 A082       0160A 12307    1375.              IF    (RVR,NZ),'ABORT BADIOCPX'  Can't schedule the exit
 0015DA AC04 021B      0021B       12334  1          +
 USING  PZERO,R0
 0015DE 9680 021A      0021A       12340  1          +
 0015E2 50F0 021C            0021C 12341  1          +
 0015E6 58F0 0210            00210 12342  1          +
 0015EA 89F0 0010            00010 12343  1          +
 0015EE 88F0 0010            00010 12344  1          +
 0015F2 41F0 F000            00000 12345  1          +
 0015F6 AEFF 0006            00006 12346  1          +
 0015FA C2C1C4C9D6C3D7E7           12347             +
 DROP   PZERO,R0
 00160A 981F C008            00008 12360    1376.              PEND  ,
 DROP   UPCB,R6
 DROP   @UPCBP-72,R12
 DROP   IODONE,R10
 00160E 9680 C000/0B0E 00000       12380             +
 DROP   @XITDO-72,R13
1PATH     (PATH00) (09:43) (22MAR04) Main Entry                                                                             Page   84
0Loc    Object Code    Addr1 Addr2  Stmt Lv Lineno    Source Statement           (Hibal 5, Asmedit 3.3)  HLASM R4.0  2004/03/22 09.43
+___    ______ ____    _____ _____  ____ __ ______    ______ _________
0                                  12390    1378.     *****************************************************************
                                   12391    1379.     *                                                               *
                                   12392    1380.     *   DOTIME --  This routine sets a real time timer.             *
                                   12393    1381.     *                                                               *
                                   12394    1382.     *   Input  --  @UPCBP                                           *
                                   12395    1383.     *                                                               *
                                   12396    1384.     *  Output  --  none                                             *
                                   12397    1385.     *                                                               *
                                   12398    1386.     *****************************************************************
-001614                            12400    1388.     DOTIME   PROC  @UPCBP,SCOPE=LOCAL
 001614 C4D6E3C9D4C54040           12407             +
 00161C 0008/0000                  12408             +
 001620 900F D004/18AF       00004 12410             +
 USING  DOTIME,R10
 001626 50D0 C000/18CD       00000 12425             +
 00162C 9680 C000      00000       12427             +
 USING  @UPCBP-72,R12
 001630 41D0 C050            00050 12441             +
 001634 5860 C048            00000 12442    1389.              L     RX,@UPCB                Get the UPCB address
 USING  UPCB,R6                    12443    1390.              WITH  (UPCB,RX)
 001638                            12456    1391.              IF    (UPTOVAL,Z),EXIT        Don't wait for no time
 001638 D607 6078 6078 00078 00078 12466             +
 00163E 4780 A07C            0169C 12469             +
                                   12475    1392.     *
                                   12476    1393.     * Start the time
                                   12477    1394.     *
 USING  @RTSET-72,R13              12478    1395.              PSET  @RTSET
 001642 D717 D048 D048 00000 00000 12495             +
 001648 D207 D048 6078 00000 00078 12496    1396.              MVC   @RTSCLK,UPTOVAL         Move in the time
 00164E 9680 D050      00008       12497    1397.              SET   @RTSFINT                And it is an interval
 001652 D203 D054 6034 0000C 00034 12503    1398.              MVC   @RTSXIT,UPTOXID         Move in the request ID
 001658 58F0 A3A4/0DEF       019C4 12504    1399.              VCALL RTSET                   Schedule the exit
 00165E 1200/4770 A074       01694 12508    1400.              IF    (RVR,Z),'ABORT SETRT'   Bad timer ID returned
 001664 AC04 021B      0021B       12535  1          +
 USING  PZERO,R0
 001668 9680 021A      0021A       12541  1          +
 00166C 50F0 021C            0021C 12542  1          +
 001670 58F0 0210            00210 12543  1          +
 001674 89F0 0010            00010 12544  1          +
 001678 88F0 0010            00010 12545  1          +
 00167C 41F0 F000            00000 12546  1          +
 001680 AEFF 0006            00006 12547  1          +
 001684 E2C5E3D9E3404040           12548             +
 DROP   PZERO,R0
 001694 5000 6080            00080 12561    1401.              ST    RVR,UPTOID              Save the ID
 001698 9608 6011      00011       12562    1402.              SET   TIMERUN                 Indicate that a timer is running
 00169C 981F C008            00008 12568    1403.              PEND  ,
 DROP   UPCB,R6
 DROP   @UPCBP-72,R12
 DROP   DOTIME,R10
 0016A0 9680 C000/0B0E 00000       12588             +
 DROP   @RTSET-72,R13
1PATH     (PATH00) (09:43) (22MAR04) Main Entry                                                                             Page   85
0Loc    Object Code    Addr1 Addr2  Stmt Lv Lineno    Source Statement           (Hibal 5, Asmedit 3.3)  HLASM R4.0  2004/03/22 09.43
+___    ______ ____    _____ _____  ____ __ ______    ______ _________
0                                  12598    1405.     *****************************************************************
                                   12599    1406.     *                                                               *
                                   12600    1407.     *  CANTIME --  Cancel an outstanding timer.                     *
                                   12601    1408.     *                                                               *
                                   12602    1409.     *   Input  --  @UPCBP                                           *
                                   12603    1410.     *                                                               *
                                   12604    1411.     *  Output  --  none                                             *
                                   12605    1412.     *                                                               *
                                   12606    1413.     *****************************************************************
-0016A6                            12608    1415.     CANTIME  PROC  @UPCBP,SCOPE=LOCAL
 0016A6 C3C1D5E3C9D4C540           12615             +
 0016AE 0008/0000                  12616             +
 0016B2 900F D004/18AF       00004 12618             +
 USING  CANTIME,R10
 0016B8 50D0 C000/18CD       00000 12633             +
 0016BE 9680 C000      00000       12635             +
 USING  @UPCBP-72,R12
 0016C2 41D0 C050            00050 12649             +
 0016C6 5860 C048            00000 12650    1416.              L     RX,@UPCB                Get the UPCB address
 USING  UPCB,R6                    12651    1417.              WITH  (UPCB,RX)
                                   12664    1418.     *
                                   12665    1419.     * Schedule the I/O complete exit
                                   12666    1420.     *
 USING  @RTCNCK-72,R13             12667    1421.              PSET  @RTCNCK
 0016CA D71F D048 D048 00000 00000 12684             +
 0016D0 D203 D048 6080 00000 00080 12685    1422.              MVC   @RTCID,UPTOID           Move in the timer ID
 0016D6 58F0 A316/0DEF       019C8 12686    1423.              VCALL RTCAN                   Schedule the exit
                                   12690    1424.     *         IF    (RVR,NZ),'ABORT RTCAN'  Bad cancel request
 0016DC 94F7 6011      00011       12691    1425.              CLEAR TIMERUN
 0016E0 981F C008            00008 12698    1426.              PEND  ,
 DROP   UPCB,R6
 DROP   @UPCBP-72,R12
 DROP   CANTIME,R10
 0016E4 9680 C000/0B0E 00000       12718             +
 DROP   @RTCNCK-72,R13
1PATH     (PATH00) (09:43) (22MAR04) Main Entry                                                                             Page   86
0Loc    Object Code    Addr1 Addr2  Stmt Lv Lineno    Source Statement           (Hibal 5, Asmedit 3.3)  HLASM R4.0  2004/03/22 09.43
+___    ______ ____    _____ _____  ____ __ ______    ______ _________
0                                  12728    1428.     *****************************************************************
                                   12729    1429.     *                                                               *
                                   12730    1430.     *   PTIOCX --  This is the I/O complete exit.  It just moves    *
                                   12731    1431.     *              new flags to the UPCB.                           *
                                   12732    1432.     *                                                               *
                                   12733    1433.     *   Input  --  @XITDATA                                         *
                                   12734    1434.     *                                                               *
                                   12735    1435.     *  Output  --  none                                             *
                                   12736    1436.     *                                                               *
                                   12737    1437.     *****************************************************************
-0016EA                            12739    1439.     PTIOCX   PROC  @XITDATA,SCOPE=LOCAL
 0016EA D7E3C9D6C3E74040           12746             +
 0016F2 0008/0000                  12747             +
 0016F6 900F D004/18AF       00004 12749             +
 USING  PTIOCX,R10
 0016FC 50D0 C000/18CD       00000 12764             +
 001702 9680 C000      00000       12766             +
 USING  @XITDATA-72,R12
 001706 41D0 C050            00050 12780             +
                                   12781    1440.     *
                                   12782    1441.     * Get the UPCB address and the new flags
                                   12783    1442.     *
 00170A 5810 C048            00000 12784    1443.              L     RS,@XITDSA              Get the Exit Status Area loc
 USING  XITSAREA,R1                12785    1444.              WITH  (XITSAREA,RS),BEGIN
 AUSING (@IOTERM,XITSXPRM)         12799  1 1445.                WITH  (@IOTERM,XITSXPRM)
 00170E 5860 1000            00000 12806  1 1446.                L     RX,XITSRPRM             Get the UPCB address
 001712 5820 1010            00004 12807  1 1447.                L     RA,@IOTEND              Get the ending status
 001716 9922 A2F6            019EC 12808  1 1448.                XTRC  RA,RA,PATHPOST
 0019EA 0000/000019EC                     2          +
 0019F0 00000578/0202              12817  2          +
 0019F6 D7C1E3C8D7D6E2E3           12819  1          +
 DROP   XITSAREA,R1                12826    1449.              END   ,
 USING  UPCB,R6                    12834    1450.              WITH  (UPCB,RX)
                                   12847    1451.     *
                                   12848    1452.     * Update the UPCB flags
                                   12849    1453.     *
 00171A 4420 A308            019FE 12850    1454.              EX    RA,'OI UPPFLG,0'        or the new ones in
 0019FE 9600 6010      00010       12858             +
                                   12866    1455.     *
                                   12867    1456.     * If there is no I/O active in the task, we have to signal the
                                   12868    1457.     * main task that something happened.
                                   12869    1458.     *
 00171E 9500 6060      00060       12870    1459.              IF    IDLE,BEGIN              No synchronous I/O out
 001722 4770 A052            01748 12880             +
 USING  @XITDO-72,R13              12885  1 1460.                PSET  @XITDO
 001726 D71F D048 D048 00000 00000 12902  1          +
 00172C D203 D048 6030 00000 00030 12903  1 1461.                MVC   @XITRQID,UPATXID        Move in the attn ID
 001732 D203 D04C 6024 00004 00024 12904  1 1462.                MVC   @XITTSK,UPATSK          Main task ID
 001738 9208 D050      00008       12905  1 1463.                MVI   @XITTYPE,XITTATTN       Set it as an attention exit
 AUSING (@M1PATP,@XITPARM)         12906  1 1464.                WITH  (@M1PATP,@XITPARM)
 00173C D203 D058 6050 00000 00050 12913  1 1465.                MVC   @M1PATRQ,UPCRID         Move in the request ID
 001742 58F0 A2CA/0DEF       019C0 12914  1 1466.                VCALL XITDO                   Schedule the exit
 001748                            12918    1467.              END   ,
                                   12922    1468.     *
1PATH     (PATH00) (09:43) (22MAR04) Main Entry                                                                             Page   87
0Current Usings:  (UPCB,R6) (PTIOCX,R10) (@XITDATA-72,R12) (@XITDO-72,R13)
0Loc    Object Code    Addr1 Addr2  Stmt Lv Lineno    Source Statement           (Hibal 5, Asmedit 3.3)  HLASM R4.0  2004/03/22 09.43
+___    ______ ____    _____ _____  ____ __ ______    ______ _________
0                                  12923    1469.     * We also have to wake up the processing task
                                   12924    1470.     *
 001748 9680 6011      00011       12925    1471.              SET   IOCOMP                  Tell it why its waking up
 DROP   @XITDO-72,R13              12931    1472.              SIGNL UPECB                   Go to it
 USING  @SIGNAL-72,R13
 00174C D713 D048 D048 00000 00000 12952             +
 001752 4100 6018            00018 12964             +
 001756 5000 D050            00008 12969             +
 00175A 58F0 A2D6/0DEF       019CC 12972             +
 001760 58F0 A2DA/0DEF       019D0 12974    1473.              VCALL EXRDONE                 Then return from the exit
 001766 981F C008            00008 12978    1474.              PEND  ,
 DROP   UPCB,R6
 DROP   @XITDATA-72,R12
 DROP   PTIOCX,R10
 00176A 9680 C000/0B0E 00000       12998             +
 DROP   @SIGNAL-72,R13
1PATH     (PATH00) (09:43) (22MAR04) Main Entry                                                                             Page   88
0Loc    Object Code    Addr1 Addr2  Stmt Lv Lineno    Source Statement           (Hibal 5, Asmedit 3.3)  HLASM R4.0  2004/03/22 09.43
+___    ______ ____    _____ _____  ____ __ ______    ______ _________
0                                  13008    1476.     *****************************************************************
                                   13009    1477.     *                                                               *
                                   13010    1478.     *  PTTIMEX --  This is the timer complete exit. It just wakes   *
                                   13011    1479.     *              up the processing task.                          *
                                   13012    1480.     *                                                               *
                                   13013    1481.     *   Input  --  @XITDATA                                         *
                                   13014    1482.     *                                                               *
                                   13015    1483.     *  Output  --  none                                             *
                                   13016    1484.     *                                                               *
                                   13017    1485.     *****************************************************************
-001770                            13019    1487.     PTTIMEX  PROC  @XITDATA,SCOPE=LOCAL
 001770 D7E3E3C9D4C5E740           13026             +
 001778 0008/0000                  13027             +
 00177C 900F D004/18AF       00004 13029             +
 USING  PTTIMEX,R10
 001782 50D0 C000/18CD       00000 13044             +
 001788 9680 C000      00000       13046             +
 USING  @XITDATA-72,R12
 00178C 41D0 C050            00050 13060             +
                                   13061    1488.     *
                                   13062    1489.     * Get the UPCB address and the new flags
                                   13063    1490.     *
 001790 5810 C048            00000 13064    1491.              L     RS,@XITDSA              Get the Exit Status Area loc
 001794 5860 1000            00000 13065    1492.              WITH  (XITSAREA,RS),'L RX,XITSRPRM'  Get the UPCB address
 USING  XITSAREA,R1
 DROP   XITSAREA,R1
 USING  UPCB,R6                    13089    1493.              WITH  (UPCB,RX)
                                   13102    1494.     *
                                   13103    1495.     * We now have to wake up the processing task
                                   13104    1496.     *
 001798 9620 6011      00011       13105    1497.              SET   TIMEUP                  Tell it why
 00179C 94F7 6011      00011       13111    1498.              CLEAR TIMERUN                 Timer not running now
 USING  @SIGNAL-72,R13             13118    1499.              SIGNL UPECB                   Go to it
 0017A0 D713 D048 D048 00000 00000 13136             +
 0017A6 4100 6018            00018 13148             +
 0017AA 5000 D050            00008 13153             +
 0017AE 58F0 A250/0DEF       019CC 13156             +
 0017B4 58F0 A254/0DEF       019D0 13158    1500.              VCALL EXRDONE                 Then return from the exit
 0017BA 981F C008            00008 13162    1501.              PEND  ,
 DROP   UPCB,R6
 DROP   @XITDATA-72,R12
 DROP   PTTIMEX,R10
 0017BE 9680 C000/0B0E 00000       13182             +
 DROP   @SIGNAL-72,R13
1PATH     (PATH00) (09:43) (22MAR04) Main Entry                                                                             Page   89
0Loc    Object Code    Addr1 Addr2  Stmt Lv Lineno    Source Statement           (Hibal 5, Asmedit 3.3)  HLASM R4.0  2004/03/22 09.43
+___    ______ ____    _____ _____  ____ __ ______    ______ _________
0                                  13192    1503.     *****************************************************************
                                   13193    1504.     *                                                               *
                                   13194    1505.     *   ADDSEG --  This routine adds information about an area of   *
                                   13195    1506.     *              virtual memory to the list in a path send/recv   *
                                   13196    1507.     *              request parameter area.  It updates the count    *
                                   13197    1508.     *              and length values in the parm area.              *
                                   13198    1509.     *                                                               *
                                   13199    1510.     *   Input  --  @ADDSEG                                          *
                                   13200    1511.     *                                                               *
                                   13201    1512.     *  Output  --  none                                             *
                                   13202    1513.     *                                                               *
                                   13203    1514.     *****************************************************************
-000000                00000 0000A 13205    1516.     @ADDSEG  RECORD BEGIN
 000000                            13213  1 1517.     @ADDSPA    DS    A             Address of the parameter area
 000004                            13214  1 1518.     @ADDSLOC   DS    A             Location of the data to add
 000008                            13215  1 1519.     @ADDSLEN   DS    H             Length of the data to add
 00000A                0000A 0000A 13216    1520.              END   ,
-0017C4                            13226    1522.     ADDSEG   PROC  @ADDSEG,SCOPE=LOCAL
 0017C4 C1C4C4E2C5C74040           13233             +
 0017CC 0010/0000                  13234             +
 0017D0 900F D004/18AF       00004 13236             +
 USING  ADDSEG,R10
 0017D6 50D0 C000/18CD       00000 13251             +
 0017DC 9680 C000      00000       13253             +
 USING  @ADDSEG-72,R12
 0017E0 41D0 C058            00058 13267             +
 0017E4 5860 C048            00000 13268    1523.              L     RX,@ADDSPA    Get the parameter area
 USING  #SCSR,R6                   13269    1524.              WITH  (#SCSR,RX)
                                   13282    1525.     *
                                   13283    1526.     * Get our starting point for this data
                                   13284    1527.     *
 0017E8 5840 6008            00008 13285    1528.              L     RJ,#SCSRCT              Get current count
 0017EC 8940 0003            00003 13286    1529.              SLL   RJ,3                    Size of each segment
 0017F0 4144 6018            00018 13287    1530.              LA    RJ,#SCSRSEG(RJ)         Location of new segment ptrs
 0017F4 5820 C04C            00004 13288    1531.              L     RA,@ADDSLOC             Starting location
 0017F8 4830 C050            00008 13289    1532.              LH    RB,@ADDSLEN             And total length
                                   13290    1533.     *
                                   13291    1534.     * Loop through the data area, adding a segment to the parm area for
                                   13292    1535.     * each page or fraction thereof.
                                   13293    1536.     *
 0017FC 1233/4780 A092       01862 13294    1537.              WHILE (RB,NZ),BEGIN           Through the info
                                   13310  1 1538.     *
                                   13311  1 1539.     * Fill in the location for the current part of the data area
                                   13312  1 1540.     *
 001802 B110 2000            00000 13313  1 1541.                LRA   RS,@RA                  Real address of current bit
 001806 4780 A06A            0183A 13314  1 1542.                IF    NZ,'ABORT BADFIX'       What?
 USING  PZERO,R0
 00180A AC04 021B      0021B       13338  2          +
 00180E 9680 021A      0021A       13344  2          +
 001812 50F0 021C            0021C 13345  2          +
 001816 58F0 0210            00210 13346  2          +
 00181A 89F0 0010            00010 13347  2          +
1PATH     (PATH00) (09:43) (22MAR04) Main Entry                                                                             Page   90
0Current Usings:  (PZERO,R0) (#SCSR,R6) (ADDSEG,R10) (@ADDSEG-72,R12)
0Loc    Object Code    Addr1 Addr2  Stmt Lv Lineno    Source Statement           (Hibal 5, Asmedit 3.3)  HLASM R4.0  2004/03/22 09.43
+___    ______ ____    _____ _____  ____ __ ______    ______ _________
000181E 88F0 0010            00010 13348  2          +
 001822 41F0 F000            00000 13349  2          +
 001826 AEFF 0006            00006 13350  2          +
 00182A C2C1C4C6C9E74040           13351  1          +
 DROP   PZERO,R0
 00183A 5010 4000            00000 13364  1 1543.                ST    RS,@RJ                  Save the real address
                                   13365  1 1544.     *
                                   13366  1 1545.     * Figure out how long to the next page boundary
                                   13367  1 1546.     *
 00183E 1812                       13368  1 1547.                LR    RS,RA                   Copy the current address
 001840 4A10 A218            019E8 13369  1 1548.                AH    RS,=Y(4096)             Get to the next page
 001844 5410 A204            019D4 13370  1 1549.                N     RS,=X'7FFFF000'         Address of the next page
 001848 1B12                       13371  1 1550.                SR    RS,RA                   Length to the page boundary
 00184A 1913/47D0 A082       01852 13372  1 1551.                CEIL  RS,RB                   Max is the buffer length
 001850 1813                       13377  1          +
 001852 5010 4004            00004 13378  1 1552.                ST    RS,@RJ+4                Save the segment length
                                   13379  1 1553.     *
                                   13380  1 1554.     * Adjust the pointers for the next pass through
                                   13381  1 1555.     *
 001856 1A21                       13382  1 1556.                AR    RA,RS                   Get to the next segment
 001858 1B31                       13383  1 1557.                SR    RB,RS                   Length is less this segment
 00185A 4140 4008            00008 13384  1 1558.                LA    RJ,@RJ+8                Location for next entry
 00185E 47F0 A02C            017FC 13385    1559.              END   ,
                                   13390    1560.     *
                                   13391    1561.     * Update the count of segments
                                   13392    1562.     *
 001862 4110 6018            00018 13393    1563.              LA    RS,#SCSRSEG             Starting location
 001866 1B41                       13394    1564.              SR    RJ,RS                   Length in bytes
 001868 8840 0003            00003 13395    1565.              SRL   RJ,3                    Length in entries
 00186C 5040 6008            00008 13396    1566.              ST    RJ,#SCSRCT              Save the count
                                   13397    1567.     *
                                   13398    1568.     * Update the overall length
                                   13399    1569.     *
 001870 5810 6004            00004 13400    1570.              L     RS,#SCSRLEN             Get the previous length
 001874 4A10 C050            00008 13401    1571.              AH    RS,@ADDSLEN             Add what we just put in
 001878 5010 6004            00004 13402    1572.              ST    RS,#SCSRLEN             Update the length
 00187C 981F C008            00008 13403    1573.              PEND  ,
 DROP   #SCSR,R6
 DROP   @ADDSEG-72,R12
 DROP   ADDSEG,R10
 001880 9680 C000/0B0E 00000       13423             +
1PATH     (PATH00) (09:43) (22MAR04) Main Entry                                                                             Page   91
0Loc    Object Code    Addr1 Addr2  Stmt Lv Lineno    Source Statement           (Hibal 5, Asmedit 3.3)  HLASM R4.0  2004/03/22 09.43
+___    ______ ____    _____ _____  ____ __ ______    ______ _________
0                                  13430    1575.     *****************************************************************
                                   13431    1576.     *                                                               *
                                   13432    1577.     *  VALBUF  --  Validate a buffer location.                      *
                                   13433    1578.     *                                                               *
                                   13434    1579.     *   Input  --  @VALBUF                                          *
                                   13435    1580.     *                                                               *
                                   13436    1581.     *  Output  --  RVR: 0=OK; 4=Protection; 5=Addressing            *
                                   13437    1582.     *                                                               *
                                   13438    1583.     *****************************************************************
-001886                            13440    1585.     VALBUF   PROC  @VALBUF,SCOPE=LOCAL
 001886 E5C1D3C2E4C64040           13447             +
 00188E 0008/0000                  13448             +
 001892 900F D004/18AF       00004 13450             +
 USING  VALBUF,R10
 001898 50D0 C000/18CD       00000 13465             +
 00189E 9680 C000      00000       13467             +
 USING  @VALBUF-72,R12
 0018A2 41D0 C050            00050 13481             +
 0018A6 5840 C048            00000 13482    1586.              L     RJ,@VALBLOC             Get the buffer location
 0018AA 4850 C04C            00004 13483    1587.              LH    RK,@VALBLEN             And it's length
 0018AE 1F33/4330 C04E       00006 13484    1588.              LC    RB,@VALBKEY             Get the key of the issuer
                                   13491    1589.     *
                                   13492    1590.     * Check out the buffer
                                   13493    1591.     *
 USING  @PAGE-72,R13               13494    1592.              PSET  @PAGE
 0018B4 D708 D048 D048 00000 00000 13511             +
 0018BA D203 D048 C048 00000 00000 13512    1593.              MVC   @PAGLOC,@VALBLOC        Location of the buffer
 0018C0 4810 C04C            00004 13513    1594.              LH    RS,@VALBLEN             Get the length
 0018C4 5010 D04C            00004 13514    1595.              ST    RS,@PAGLEN              Tell him about it
 0018C8 D200 D050 C04E 00008 00006 13515    1596.              MVC   @PAGKEY,@VALBKEY        Inform him of the key too
 0018CE 58F0 A146/0DEF       019D8 13516    1597.              VCALL PAGTPROT                Test the protection
 0018D4 1200/4780 A07A       0190C 13520    1598.              IF    (RVR,Z),EXIT            All is well
 0018DA 5900 A14A            019DC 13537    1599.              IF    (RVR,EQ,3),BEGIN        Addressing exception
 0018DE 4770 A058            018EA 13549             +
 0018E2 4100 0005            00005 13554  1 1600.                LA    RVR,5
 0018E6 47F0 A07A            0190C 13555  1 1601.                EXIT  VALBUF
 0018EA                            13558    1602.              END   ,
 0018EA 5900 A14E            019E0 13562    1603.              IF    (RVR,EQ,2),BEGIN        No access
 0018EE 4770 A068            018FA 13574             +
 0018F2 4100 0004            00004 13579  1 1604.                LA    RVR,4
 0018F6 47F0 A07A            0190C 13580  1 1605.                EXIT  VALBUF
 0018FA                            13583    1606.              END   ,
 0018FA 9180 C04F      00007       13587    1607.              IF    @VALBWRT,'LA RVR,4'     Only read, he wants write
 0018FE 47E0 A074            01906 13597             +
 001902 4100 0004            00004 13603             +
 001906 A078           01906 01900 13608    1608.              ELSE  'CLEAR RVR'             He just wants to look
 001906 47F0 A07A/1B00       0190C 13613             +
 00190C 981F C008            00008 13628    1609.              PEND  ,
 DROP   @VALBUF-72,R12
 DROP   VALBUF,R10
 001910 9680 C000/0B0E 00000       13643             +
 DROP   @PAGE-72,R13
1PATH     (PATH00) (09:43) (22MAR04) Main Entry                                                                             Page   92
0Loc    Object Code    Addr1 Addr2  Stmt Lv Lineno    Source Statement           (Hibal 5, Asmedit 3.3)  HLASM R4.0  2004/03/22 09.43
+___    ______ ____    _____ _____  ____ __ ______    ______ _________
0001916 0000/00000001              13653    1611.              XTRCDATA ,                    Generate the trace info
 00191C 000019EC                   13656             +
 001920                            13657    1612.              END   .
 001920 4040404040404040           13660                             =CL8' '
 001928 070C0000                   13661                             =X'070C0000'
 00192C 800016F6                   13662                             =A(X'80000000'+PTIOCX)
 001930 00000000                   13663                             =V(EXRADD)
 001934 8000177C                   13664                             =A(X'80000000'+PTTIMEX)
 001938 00000000                   13665                             =V(XITMASK)
 00193C 00000000                   13666                             =V(IOSIDGET)
 001940 00000004                   13667                             =A(#SCCOPEN)
 001944 00001460                   13668                             =A(DOPINFO)
 001948 00000000                   13669                             =V(PAGFIX)
 00194C 00000000                   13670                             =V(IOSDOIO)
 001950 00000000                   13671                             =V(PAGUFIX)
 001954 00001532                   13672                             =A(RELPINFO)
 001958 00000000                   13673                             =V(IOSIDFRE)
 00195C 00001620                   13674                             =A(DOTIME)
 001960 0000107E                   13675                             =A(DONOTE)
 001964 00000000                   13676                             =V(AWAIT)
 001968 00000010                   13677                             =A(16)
 00196C 00000004                   13678                             =A(4)
 001970 FFFFFFFC                   13679                             =A(-4)
 001974 00000424                   13680                             =A(DOREAD)
 001978 0000065A                   13681                             =A(DOMOVE)
 00197C 00000008                   13682                             =A(8)
 001980 00000936                   13683                             =A(DOWRITE)
 001984 000016B2                   13684                             =A(CANTIME)
 001988 00001588                   13685                             =A(IODONE)
 00198C 000012CC                   13686                             =A(DELUPCB)
 001990 00000000                   13687                             =V(TEXIT)
 001994 00000000                   13688                             =V(ASLOCK)
 001998 00000000                   13689                             =V(ASULOCK)
 00199C 00000028                   13690                             =A(#SCCNOTE)
 0019A0 00000000                   13691                             =V(VMGET)
 0019A4 E4D7C3C2                   13692                             =C'UPCB'
 0019A8 00000000                   13693                             =V(XITNEW)
 0019AC A4978382                   13694                             =C'upcb'
 0019B0 00000000                   13695                             =V(VMFREE)
 0019B4 00000000                   13696                             =V(XITDEL)
 0019B8 D7C9D5C6                   13697                             =CL4'PINF'
 0019BC 00000000                   13698                             =V(ACAINFO)
 0019C0 00000000                   13699                             =V(XITDO)
 0019C4 00000000                   13700                             =V(RTSET)
 0019C8 00000000                   13701                             =V(RTCAN)
 0019CC 00000000                   13702                             =V(SIGNAL)
 0019D0 00000000                   13703                             =V(EXRDONE)
 0019D4 7FFFF000                   13704                             =X'7FFFF000'
 0019D8 00000000                   13705                             =V(PAGTPROT)
 0019DC 00000003                   13706                             =A(3)
 0019E0 00000002                   13707                             =A(2)
 0019E4 1B00                       13708                             =Y(27*256+0)
 0019E6 FFFF                       13709                             =H'-1'
 0019E8 1000           01A02 01A02 13710                             =Y(4096)

1PATH     (PATH00) (09:43) (22MAR04) Ordinary Symbol and Literal Cross Reference                                            Page   93
-Symbol   Length   Value     Id    R Type   Defn References                                  HLASM R4.0  2004/03/22 09.43
0$$$@R0        1 00000000 FFFFFFFE     J     714  1010
 $$$@R1        1 00000000 FFFFFFFD     J     727  1022
 $$$@R10       1 00000000 FFFFFFF4     J     844  1142
 $$$@R11       1 00000000 FFFFFFF3     J     857  1154
 $$$@R12       1 00000000 FFFFFFF2     J     870  1166
 $$$@R13       1 00000000 FFFFFFF1     J     883  1178
 $$$@R14       1 00000000 FFFFFFF0     J     896  1190
 $$$@R15       1 00000000 FFFFFFEF     J     909  1202
 $$$@R2        1 00000000 FFFFFFFC     J     740  1034
 $$$@R3        1 00000000 FFFFFFFB     J     753  1046
 $$$@R4        1 00000000 FFFFFFFA     J     766  1058
 $$$@R5        1 00000000 FFFFFFF9     J     779  1070
 $$$@R6        1 00000000 FFFFFFF8     J     792  1082
 $$$@R7        1 00000000 FFFFFFF7     J     805  1094
 $$$@R8        1 00000000 FFFFFFF6     J     818  1106
 $$$@R9        1 00000000 FFFFFFF5     J     831  1118   1130
 $$$C1PATH
               1 000007C2 00000001     J    6796  6798
 $$$C2PATH
               1 00000C2C 00000001     J    8664  8666  12824  12864  13223
 $$$C3PATH
               1 00001A02 00000001     J   13711 13713
 $$$D2PATH
               1 000019EA 00000001     J    8665 12812  12853
 $$$R#SCCLOSE
               1 00000000 FFFFFFA6     J    3590  3603   3603
 $$$R#SCINFO
               1 00000000 FFFFFFA3     J    3677  3692   3692
 $$$R#SCNOTE
               1 00000000 FFFFFFA2     J    3702  3715   3715
 $$$R#SCOMCMD
               1 00000000 FFFFFFA8     J    3519  3552   3552
 $$$R#SCOPEN
               1 00000000 FFFFFFA7     J    3562  3580   3580
 $$$R#SCPOST
               1 00000000 FFFFFFA5     J    3613  3626   3626
 $$$R#SCSR
               1 00000000 FFFFFFA4     J    3636  3667   3667
 $$$R@ACAINFO
               1 00000000 FFFFFFC5     J    2514  2531   2531
 $$$R@ACINFO
               1 00000000 FFFFFFC4     J    2541  2560   2560
 $$$R@ACLOGON
               1 00000000 FFFFFFC6     J    2487  2504   2504
 $$$R@ACPINFO
               1 00000000 FFFFFFC3     J    2569  2583   2583
 $$$R@ACREATE
               1 00000000 FFFFFFE6     J    1616  1629   1629
 $$$R@ACSPINF
               1 00000000 FFFFFFC2     J    2592  2606   2606
 $$$R@ADDSEG
               1 00000000 FFFFFF9C     J   13207 13222  13222
 $$$R@AWAIT
               1 00000000 FFFFFFD1     J    2167  2189   2189
 $$$R@CPCNCK
1PATH     (PATH00) (09:43) (22MAR04) Ordinary Symbol and Literal Cross Reference                                            Page   94
               1 00000000 FFFFFFCB     J    2346  2361   2361
 $$$R@CPSET
               1 00000000 FFFFFFCC     J    2321  2336   2336
 $$$R@DISPPIOC
               1 00000000 FFFFFFEB     J    1482  1495   1495
 $$$R@DISPSIOC
               1 00000000 FFFFFFEA     J    1501  1514   1514
 $$$R@DISPSWP
               1 00000000 FFFFFFE7     J    1593  1606   1606
 $$$R@DSPSTAT
               1 00000000 FFFFFFDB     J    1887  1903   1903
 $$$R@EXRADD
               1 00000000 FFFFFFB6     J    2918  2948   2948
 $$$R@EXRDEL
               1 00000000 FFFFFFB5     J    2958  2971   2971
 $$$R@EXRDONE
               1 00000000 FFFFFFB4     J    2981  3017   3017
 $$$R@IORB
               1 00000000 FFFFFFD3     J    2101  2120   2120
 $$$R@IOSDOIO
               1 00000000 FFFFFFD8     J    1964  2002   2002
 $$$R@IOSIDFRE
               1 00000000 FFFFFFD4     J    2075  2088   2088
 $$$R@IOSIDGET
               1 00000000 FFFFFFD5     J    2048  2069   2069
 $$$R@IOSTIME
               1 00000000 FFFFFFD6     J    2028  2042   2042
 $$$R@IOTERM
               1 00000000 FFFFFFD7     J    2008  2022   2022
 $$$R@IOUPARM
               1 00000000 FFFFFFD2     J    2132  2155   2155
 $$$R@LOCKCRE
               1 00000000 FFFFFFDA     J    1916  1938   1938
 $$$R@LOCKS
               1 00000000 FFFFFFD9     J    1944  1957   1957
 $$$R@MONSET
               1 00000000 FFFFFFDC     J    1864  1877   1877
 $$$R@M1PATH
               1 00000000 FFFFFFAB     J    3359  3448   3448
 $$$R@M1PATP
               1 00000000 FFFFFFA9     J    3488  3502   3502
 $$$R@M1PIOCP
               1 00000000 FFFFFFAA     J    3459  3477   3477
 $$$R@PAGASC1
               1 00000000 FFFFFFBC     J    2784  2798   2798
 $$$R@PAGASC2
               1 00000000 FFFFFFBB     J    2804  2818   2818
 $$$R@PAGDEF
               1 00000000 FFFFFFBE     J    2724  2751   2751
 $$$R@PAGE
               1 00000000 FFFFFFBA     J    2824  2840   2840
 $$$R@PAGINIT
               1 00000000 FFFFFFB7     J    2886  2900   2900
 $$$R@PAGINTV
               1 00000000 FFFFFFB8     J    2867  2880   2880
 $$$R@PAGRV
               1 00000000 FFFFFFB9     J    2846  2861   2861
 $$$R@PAGSEGD
               1 00000000 FFFFFFBD     J    2757  2778   2778
1PATH     (PATH00) (09:43) (22MAR04) Ordinary Symbol and Literal Cross Reference                                            Page   95
 $$$R@PAGSWADV
               1 00000000 FFFFFFC0     J    2675  2688   2688
 $$$R@PAGSWAP
               1 00000000 FFFFFFC1     J    2621  2669   2669
 $$$R@PAGWSMA
               1 00000000 FFFFFFBF     J    2694  2718   2718
 $$$R@PERSET
               1 00000000 FFFFFFDD     J    1841  1854   1854
 $$$R@PINFO
               1 00000000 FFFFFF9D     J    4107  4120   4120
 $$$R@RESUME
               1 00000000 FFFFFFE8     J    1568  1583   1583
 $$$R@RTCNCK
               1 00000000 FFFFFFCE     J    2271  2286   2286
 $$$R@RTSET
               1 00000000 FFFFFFCF     J    2237  2261   2261
 $$$R@SIGNAL
               1 00000000 FFFFFFD0     J    2200  2220   2220
 $$$R@SUSPEND
               1 00000000 FFFFFFE9     J    1524  1558   1558
 $$$R@SYSRDEL
               1 00000000 FFFFFFE0     J    1769  1782   1782
 $$$R@SYSRDO
               1 00000000 FFFFFFDF     J    1792  1808   1808
 $$$R@SYSRNEW
               1 00000000 FFFFFFE1     J    1747  1760   1760
 $$$R@SYSRTN
               1 00000000 FFFFFFDE     J    1818  1831   1831
 $$$R@TCREATE
               1 00000000 FFFFFFE5     J    1639  1668   1668
 $$$R@TENTRY
               1 00000000 FFFFFFE3     J    1701  1714   1714
 $$$R@TEXIT
               1 00000000 FFFFFFE2     J    1724  1737   1737
 $$$R@TREMOVE
               1 00000000 FFFFFFE4     J    1678  1691   1691
 $$$R@UPCBP
               1 00000000 FFFFFF9F     J    4041  4063   4063
 $$$R@VALBUF
               1 00000000 FFFFFF9E     J    4073  4097   4097
 $$$R@VMFREE
               1 00000000 FFFFFFC8     J    2434  2449   2449
 $$$R@VMGET
               1 00000000 FFFFFFC9     J    2399  2428   2428
 $$$R@VMINFO
               1 00000000 FFFFFFC7     J    2455  2470   2470
 $$$R@XITDATA
               1 00000000 FFFFFFAD     J    3303  3316   3316
 $$$R@XITDEL
               1 00000000 FFFFFFB2     J    3058  3071   3071
 $$$R@XITDO
               1 00000000 FFFFFFB1     J    3080  3097   3097
 $$$R@XITGPST
               1 00000000 FFFFFFB0     J    3108  3123   3123
 $$$R@XITMASK
               1 00000000 FFFFFFAF     J    3133  3180   3180
 $$$R@XITNEW
               1 00000000 FFFFFFB3     J    3027  3048   3048
 $$$RASB       1 00000000 FFFFFFEC     J    1415  1466   1466
1PATH     (PATH00) (09:43) (22MAR04) Ordinary Symbol and Literal Cross Reference                                            Page   96
 $$$RCPEXIT
               1 00000000 FFFFFFCA     J    2371  2386   2386
 $$$RMAT       1 00000000 FFFFFFED     J    1349  1408   1408
 $$$RPINFO
               1 00000000 FFFFFFA1     J    3737  3771   3771
 $$$RPZERO
               1 00000000 FFFFFFEE     J    1235  1326   1326
 $$$RRTEXIT
               1 00000000 FFFFFFCD     J    2296  2311   2311
 $$$RUPCB      1 00000000 FFFFFFA0     J    3822  4031   4031
 $$$RXITMSKD
               1 00000000 FFFFFFAE     J    3206  3293   3293
 $$$RXITSAREA
               1 00000000 FFFFFFAC     J    3326  3342   3342
 $$$TR$0       4 000019EC 00000001     A   12816 12810  12816  13656
 $$$100E       2 00000EC0 00000001     H    9792  9786
 $$$100F       2 00000EC6 00000001     H    9799  9788B
 $$$101F       2 00000EE8 00000001     H    9850  9818B
 $$$102F       2 00000EE4 00000001     H    9843  9833B
 $$$103F       2 00000F18 00000001     H    9916  9884B
 $$$104F       2 00000F14 00000001     H    9909  9899B
 $$$105F       2 00000FC6 00000001     H   10195  9963B
 $$$106F       2 00000F62 00000001     H   10032  9978B
 $$$107B       4 00000F4A 00000001     I   10000 10013
 $$$107F       2 00000F54 00000001     H   10010 10000B 10012
 $$$108E       2 00000F58 00000001     H   10020 10014
 $$$108F       2 00000F5E 00000001     H   10027 10016B
 $$$109F       2 00000F74 00000001     H   10053 10043B
 $$$110F       2 00000FC6 00000001     H   10191 10081B 10093B
 $$$110T       2 00000F8C 00000001     H   10096 10069B
 $$$114F       2 00000FB6 00000001     H   10167 10151B
 $$$115F       2 00000FC6 00000001     H   10187 10177B
 $$$116F       2 00000FF0 00000001     H   10256 10229B
 $$$117F       2 00001028 00000001     H   10355 10295B
 $$$118F       2 00001018 00000001     H   10332 10317B
 $$$119F       2 00001064 00000001     H   10438 10369B 10381B
 $$$121F       2 0000111E 00000001     H   10807 10565B
 $$$122F       2 000010AE 00000001     H   10569 10554B
 $$$124F       2 00001198 00000001     H   10945 10919B
 $$$125F       2 00001200 00000001     H   11056 11030B
 $$$127F       2 0000125C 00000001     H   11142 11116B
 $$$130F       2 00001352 00000001     H   11477 11451B
 $$$131F       2 000013A8 00000001     H   11558 11532B
 $$$132F       2 0000144A 00000001     H   11740 11714B
 $$$134F       2 000014C4 00000001     H   11891 11865B
 $$$137F       2 0000160A 00000001     H   12359 12316B
 $$$138F       2 0000169C 00000001     H   12586 12469B
 $$$140F       2 00001694 00000001     H   12560 12517B
 $$$144        4 000019FE 00000001     I   12859 12851X
 $$$145        4 000019FE 00000001     I   12858 12859  12859
 $$$146F       2 00001748 00000001     H   12921 12880B
 $$$149F       2 00001862 00000001     H   13389 13305B
 $$$149S       2 000017FC 00000001     H   13299 13388B
 $$$151F       2 0000183A 00000001     H   13363 13320B
 $$$152F       2 0000190C 00000001     H   13641 13531B 13557B 13582B
 $$$154F       2 000018EA 00000001     H   13561 13549B
 $$$155F       2 000018FA 00000001     H   13586 13574B
 $$$156B       4 000018FE 00000001     I   13597 13610
 $$$156F       2 00001906 00000001     H   13607 13597B 13609
1PATH     (PATH00) (09:43) (22MAR04) Ordinary Symbol and Literal Cross Reference                                            Page   97
 $$$157E       2 0000190A 00000001     H   13617 13611
 $$$157F       2 0000190C 00000001     H   13627 13613B
 $$$20B        4 0000003A 00000001     I    4190  4210
 $$$20F        2 0000004A 00000001     H    4207  4190B  4209
 $$$21E        2 0000004E 00000001     H    4217  4211
 $$$21F        2 00000052 00000001     H    4224  4213B
 $$$22F        2 0000008C 00000001     H    4262  4236B
 $$$23B        4 000000B2 00000001     I    4301  4319
 $$$23F        2 000000BA 00000001     H    4316  4301B  4318
 $$$24E        2 000000BE 00000001     H    4326  4320
 $$$24F        2 000000C2 00000001     H    4339  4322B
 $$$25F        2 000000D4 00000001     H    4386  4371B
 $$$26F        2 0000011C 00000001     H    4446  4420B
 $$$26T        2 000000EC 00000001     H    4423  4408B
 $$$29F        2 0000018A 00000001     H    4588  4579B
 $$$37F        2 00000222 00000001     H    4837  4817B
 $$$38F        2 00000266 00000001     H    4926  4888B
 $$$40F        2 000002D0 00000001     H    5092  5077B
 $$$41F        2 000002DC 00000001     H    5112  5103B
 $$$47F        2 000003DE 00000001     H    5559  5295B
 $$$48F        2 00000372 00000001     H    5382  5314B
 $$$49F        2 00000384 00000001     H    5406  5396B
 $$$50F        2 000003A8 00000001     H    5464  5417B
 $$$51B        4 00000390 00000001     I    5432  5445
 $$$51F        2 0000039A 00000001     H    5442  5432B  5444
 $$$52E        2 0000039E 00000001     H    5452  5446
 $$$52F        2 000003A4 00000001     H    5459  5448B
 $$$53F        2 000003DE 00000001     H    5555  5508B
 $$$54B        4 000003C6 00000001     I    5523  5536
 $$$54F        2 000003D0 00000001     H    5533  5523B  5535
 $$$55E        2 000003D4 00000001     H    5543  5537
 $$$55F        2 000003DA 00000001     H    5550  5539B
 $$$56F        2 00000644 00000001     H    6471  6348B
 $$$57F        2 00000476 00000001     H    5760  5734B
 $$$58F        2 000004C4 00000001     H    5834  5808B
 $$$59F        2 000005E4 00000001     H    6352  6242B
 $$$60B        4 000005A6 00000001     I    6257  6318
 $$$60F        2 000005CE 00000001     H    6315  6257B  6317
 $$$61E        2 000005D2 00000001     H    6325  6319
 $$$61F        2 000005D6 00000001     H    6337  6321B
 $$$62B        4 000005E8 00000001     I    6367  6418
 $$$62F        2 00000610 00000001     H    6415  6367B  6417
 $$$63E        2 00000614 00000001     H    6425  6419
 $$$63F        2 00000644 00000001     H    6447  6421B
 $$$65F        2 000006AC 00000001     H    6593  6567B
 $$$66F        2 0000072C 00000001     H    6729  6660B
 $$$66T        2 000006FC 00000001     H    6663  6647B
 $$$69F        2 00000804 00000001     H    6891  6882B
 $$$75F        2 000008A6 00000001     H    7164  7068B
 $$$76F        2 00000880 00000001     H    7093  7083B
 $$$77F        2 000008C6 00000001     H    7225  7209B
 $$$78F        2 000008D6 00000001     H    7246  7236B
 $$$79F        2 00000900 00000001     H    7328  7260B
 $$$80F        2 00000A90 00000001     H    8014  7883B  7909B  7935B  7968B
 $$$81F        2 00000A2C 00000001     H    7887  7872B
 $$$82F        2 00000A3C 00000001     H    7913  7901B
 $$$83F        2 00000A4C 00000001     H    7939  7927B
 $$$84F        2 00000A60 00000001     H    7972  7953B
 $$$86F        2 00000ADE 00000001     H    8156  8102B
1PATH     (PATH00) (09:43) (22MAR04) Ordinary Symbol and Literal Cross Reference                                            Page   98
 $$$89F        2 00000D82 00000001     H    9194  9168B
 $$$90F        2 00000DF2 00000001     H    9422  9378B
 $$$91F        2 00001000 00000001     H   10279  9526B  9716B  9846B  9912B 10136B 10198B
 $$$92F        2 00000E4A 00000001     H    9581  9544B
 $$$93F        2 00000E66 00000001     H    9639  9595B
 $$$94F        2 00000E9A 00000001     H    9720  9654B
 $$$95F        2 00000E84 00000001     H    9686  9669B
 $$$96F        2 00000E96 00000001     H    9713  9697B
 $$$97F        2 00000F32 00000001     H    9948  9735B
 $$$98F        2 00000ECA 00000001     H    9804  9750B
 $$$99B        4 00000EB2 00000001     I    9772  9785
 $$$99F        2 00000EBC 00000001     H    9782  9772B  9784
 #IOUSCOM      1 00000010 FFFFFFD2 A   U    2145  4798
 #SCCCLOS      1 00000008 FFFFFFA8 A   U    3530  8661
 #SCCLOSE      4 00000000 FFFFFFA6     J    3603  8276U  8286M  8286   8319U  8397   8502
 #SCCMD        4 00000000 FFFFFFA8     A    3525  5885M  7518M  8305M  8973M 10612M
 #SCCNOTE      1 00000028 FFFFFFA8 A   U    3535 13690
 #SCCOPEN      1 00000004 FFFFFFA8 A   U    3529 13667
 #SCCRECV      1 00000010 FFFFFFA8 A   U    3532  6785
 #SCCSEND      1 0000000C FFFFFFA8 A   U    3531  8650
 #SCESBOM      1 00000014 FFFFFFA8 A   U    3542  8660
 #SCESFQ       1 0000000C FFFFFFA8 A   U    3540  8659
 #SCESNP       1 00000010 FFFFFFA8 A   U    3541  6794   8658
 #SCESOK       1 00000000 FFFFFFA8 A   U    3539  6792   8657
 #SCNOTE       4 00000000 FFFFFFA2     J    3715 10583U 10593M 10593  10626U 10669  10770  11096  11149  11507
 #SCOBUFL      4 00000018 FFFFFFA7     A    3572  8992M
 #SCOINFO      4 0000001C FFFFFFA7     A    3573  9002M
 #SCOMCMD      4 00000000 FFFFFFA8     J    3552  3568   3596   3619   3642   3683   3708   5879U  7512U  8299U  8967U
                                                 10606U
 #SCOME        8 00000004 FFFFFFA7     C    3569  8989M
 #SCOPASS      4 00000014 FFFFFFA7     C    3571  8991M
 #SCOPEN      32 00000000 FFFFFFA7     J    3580  8943U  8954M  8954   8987U  9047   9242
 #SCOYOU       8 0000000C FFFFFFA7     C    3570  8990M
 #SCSR        24 00000000 FFFFFFA4     J    3667  3774   5856U  5866M  5866   5899U  7489U  7499M  7499   7532U 13278U
 #SCSRCT       4 00000008 FFFFFFA4     A    3644 13285  13396M
 #SCSRFLG      1 0000000C FFFFFFA4     R    3647  3651   3656
 #SCSRLEN      4 00000004 FFFFFFA4     A    3643 13400  13402M
 #SCSRRLN      4 00000010 FFFFFFA4     A    3659  6247
 #SCSRSEG      8 00000018 FFFFFFA4     D    3660 13287  13393
 @ACAASB       4 00000000 FFFFFFC5     A    2520 11990M
 @ACAINFO     24 00000000 FFFFFFC5     J    2531 11972U 11980M 11980
 @ACAUID       8 00000004 FFFFFFC5     C    2521 12004  12006
 @ACAUPR       4 0000000C FFFFFFC5     A    2522  2523
 @ADDSEG      10 00000000 FFFFFF9C     J   13222  5950U  7580U 13263U
 @ADDSLEN      2 00000008 FFFFFF9C     H   13215  5961M  7591M 13289  13401
 @ADDSLOC      4 00000004 FFFFFF9C     A   13214  5956M  7586M 13288
 @ADDSPA       4 00000000 FFFFFF9C     A   13213  5972M  7602M 13268
 @AWAIT        5 00000000 FFFFFFD1     J    2189  9469U  9477M  9477
 @AWTECB       4 00000000 FFFFFFD1     A    2173  9494M
 @AWTFLG       1 00000004 FFFFFFD1     R    2176  2180
 @AWTLONG    128 00000004 FFFFFFD1         2180  9500M
 @EXRADD      21 00000000 FFFFFFB6     J    2948  8748U  8756M  8756   8805M  8805
 @EXRAFLG      1 00000014 FFFFFFB6     R    2930  2934   2939
 @EXRAFS      64 00000014 FFFFFFB6         2939  8787M  8833M
 @EXRDCD       1 00000000 FFFFFFB4     R    2989  2998   3008
 @EXRPARM      4 00000010 FFFFFFB6     A    2927  8759M  8808M
 @EXRPSW       8 00000008 FFFFFFB6     D    2926  8757M  8758M  8806M  8807M
 @EXRTYPE      4 00000000 FFFFFFB6     A    2924  8765U  8814U
 @IOSCHID      4 00000000 FFFFFFD8     A    1970  6094M  7724M  8432M  9147M 10705M
1PATH     (PATH00) (09:43) (22MAR04) Ordinary Symbol and Literal Cross Reference                                            Page   99
 @IOSCP        4 00000010 FFFFFFD8     A    1973  6106M  7736M  8444M  9142M 10717M
 @IOSDOIO     30 00000000 FFFFFFD8     J    2002  6084U  6092M  6092   7714U  7722M  7722   8422U  8430M  8430   9122U
                                                  9130M  9130  10695U 10703M 10703
 @IOSFID       4 00000000 FFFFFFD4     A    2081  6222M  7852M  8533M  9352M 11381M
 @IOSFSYNC
             128 0000001D FFFFFFD8         1983  6112M  7742M  8450M  9154M
 @IOSFWAIT
             128 00000000 FFFFFFD5         2060  6009M  7639M  8347M  8924M 11256M
 @IOSF1        1 0000001D FFFFFFD8     R    1979  1983   1988   1993
 @IOSID        4 00000004 FFFFFFD8     A    1971  6095M  7725M  8433M  9148M 10706M
 @IOSIDF       1 00000000 FFFFFFD5     R    2056  2060
 @IOSIDFRE
               4 00000000 FFFFFFD4     J    2088  6213U  6221M  6221   7843U  7851M  7851   8524U  8532M  8532   9343U
                                                  9351M  9351  11368U 11376M 11376
 @IOSIDGET
               1 00000000 FFFFFFD5     J    2069  5995U  6003M  7625U  7633M  8333U  8341M  8910U  8918M 11242U 11250M
 @IOSPID       8 00000008 FFFFFFD8     D    1972  6093M  7723M  8431M  9131M 10704M
 @IOSXID       4 00000014 FFFFFFD8     A    1974 10718M
 @IOTEND       4 00000004 FFFFFFD7     A    2015 12807
 @IOTERM       8 00000000 FFFFFFD7     J    2022 12804U
 @LOCKFL       1 00000010 FFFFFFDA     R    1925  1929
 @M1PATCH      4 00000015 FFFFFFAB         3384  4189
 @M1PATH      23 00000000 FFFFFFAB     J    3448  4172U
 @M1PATP      12 00000000 FFFFFFA9     J    3502 12911U
 @M1PATRQ      4 00000000 FFFFFFA9     A    3494 12913M
 @M1PDVID      4 00000010 FFFFFFAB     A    3369  4203M  4220
 @M1PFL        1 00000016 FFFFFFAB     R    3430  3434   3439
 @M1PICRQ      4 00000000 FFFFFFAA     A    3465 12299M
 @M1PIOCP     16 00000000 FFFFFFAA     J    3477 12297U
 @M1PIR01      4 00000004 FFFFFFAA     A    3466 12300M
 @M1PIR14      4 00000008 FFFFFFAA     A    3467 12301M
 @M1PIR15      4 0000000C FFFFFFAA     A    3468 12302M
 @M1PM31      64 00000016 FFFFFFAB         3439  4370
 @M1PPKEY      1 00000014 FFFFFFAB     X    3371  4283
 @M1PRQID      4 0000000C FFFFFFAB     A    3368  4279
 @M1PR01       4 00000000 FFFFFFAB     A    3365  4280
 @M1PR14       4 00000004 FFFFFFAB     A    3366  4281
 @M1PR15       4 00000008 FFFFFFAB     A    3367  4282
 @M1PTYPE      1 00000015 FFFFFFAB     R    3375  3384   3394   3404   3414   3424   4393
 @M1PWAIT    128 00000016 FFFFFFAB         3434  4300
 @PAGE         9 00000000 FFFFFFBA     J    2840  5914U  5922M  5922   6028U  6036M  6036   6134U  6142M  6142   6186M
                                                  6186   7544U  7552M  7552   7658U  7666M  7666   7764U  7772M  7772
                                                  7816M  7816   8366U  8374M  8374   8471U  8479M  8479   9016U  9024M
                                                  9024   9068M  9068   9211U  9219M  9219   9263M  9263  10638U 10646M
                                                 10646  10739U 10747M 10747  13503U 13511M 13511
 @PAGKEY       1 00000008 FFFFFFBA     X    2832  2833  13515M
 @PAGLEN       4 00000004 FFFFFFBA     A    2831  5932M  6064M  6170M  6196M  7562M  7694M  7800M  7826M  8402M  8507M
                                                  9052M  9102M  9247M  9297M 10674M 10775M 13514M
 @PAGLOC       4 00000000 FFFFFFBA     A    2830  5927M  6047M  6153M  6191M  7557M  7677M  7783M  7821M  8385M  8490M
                                                  9035M  9085M  9230M  9280M 10657M 10758M 13512M
 @PDF1         1 00000009 FFFFFFBE     R    2736  2737   2742
 @PINFO        4 00000000 FFFFFF9D     J    4120  9314U  9322M  9322  12087U
 @PINFOP       4 00000000 FFFFFF9D     A    4113  9323M 12092
 @RA           0 00000000 FFFFFFFC     @    1035  4678  11064M 11064  11150M 11150  13313
 @RB           0 00000000 FFFFFFFB     @    1047  9001   9080   9275  11896M 11900  12093
 @RJ           0 00000000 FFFFFFFA     @    1059 13364M 13378M 13384
 @RTCID        4 00000000 FFFFFFCE     A    2277 12685M
 @RTCNCK      32 00000000 FFFFFFCE     J    2286 12676U 12684M 12684
 @RTSCLK       8 00000000 FFFFFFCF     D    2243 12496M
1PATH     (PATH00) (09:43) (22MAR04) Ordinary Symbol and Literal Cross Reference                                            Page  100
 @RTSET       24 00000000 FFFFFFCF     J    2261 12487U 12495M 12495
 @RTSFINT    128 00000008 FFFFFFCF         2250 12502M
 @RTSFLG       1 00000008 FFFFFFCF     R    2246  2250
 @RTSXIT       4 0000000C FFFFFFCF     A    2253 12503M
 @RX           0 00000000 FFFFFFF8     @    1083  4235
 @R0           0 00000000 FFFFFFFE     @     715   991U 11933U 11996U 12353U 12554U 13357U
 @R1           0 00000000 FFFFFFFD     @     728   987U  4394U 11955U 12177U 12832U 13087U
 @R10          0 00000000 FFFFFFF4     @     845   951U  4473U  4981U  5638U  6469U  6746U  7387U  8012U  8177U  8623U
                                                 10456U 10805U 11274U 11757U 12026U 12187U 12376U 12584U 12714U 12994U
                                                 13178U 13419U 13639U
 @R11          0 00000000 FFFFFFF3     @     858   947U
 @R12          0 00000000 FFFFFFF2     @     871   943U  4468U  4976U  5633U  6464U  6741U  7382U  8007U  8172U  8618U
                                                 10451U 10800U 11752U 12182U 12371U 12579U 12709U 12989U 13173U 13414U
                                                 13634U
 @R13          0 00000000 FFFFFFF1     @     884   939U  4484U  4847U  4903U  4992U  5341U  5477U  5649U  5911U  5947U
                                                  5992U  6025U  6081U  6131U  6210U  6278U  6480U  6757U  7123U  7177U
                                                  7287U  7343U  7398U  7577U  7622U  7655U  7711U  7761U  7840U  8023U
                                                  8188U  8363U  8419U  8468U  8521U  8561U  8634U  8851U  8907U  9013U
                                                  9119U  9208U  9311U  9340U  9399U  9466U  9616U 10467U 10692U 10736U
                                                 10816U 11162U 11239U 11285U 11403U 11569U 11660U 11768U 11969U 12037U
                                                 12198U 12387U 12595U 12725U 12941U 13005U 13189U 13650U
 @R14          0 00000000 FFFFFFF0     @     897   935U
 @R15          0 00000000 FFFFFFEF     @     910   931U
 @R2           0 00000000 FFFFFFFC     @     741   983U 12021U
 @R3           0 00000000 FFFFFFFB     @     754   979U 13490U
 @R4           0 00000000 FFFFFFFA     @     767   975U
 @R5           0 00000000 FFFFFFF9     @     780   971U
 @R6           0 00000000 FFFFFFF8     @     793   967U  4463U  4971U  5628U  6459U  6736U  7377U  8002U  8167U  8613U
                                                 10446U 10795U 11269U 11747U 12366U 12574U 12704U 12984U 13168U 13409U
 @R7           0 00000000 FFFFFFF7     @     806   963U  5876U  5896U  6454U  7509U  7529U  7997U  8296U  8316U  8608U
                                                  8964U  8984U  9363U 10603U 10623U 10790U
 @R8           0 00000000 FFFFFFF6     @     819   959U
 @R9           0 00000000 FFFFFFF5     @     832   955U
 @SDF1         1 00000009 FFFFFFBD     R    2768  2769
 @SGECB        4 00000008 FFFFFFD0     A    2207  5369M  7151M  7315M  8148M  8589M 12969M 13153M
 @SIGNAL      20 00000000 FFFFFFD0     J    2220  5344U  5352M  5352   7126U  7134M  7134   7290U  7298M  7298   8123U
                                                  8131M  8131   8564U  8572M  8572  12944U 12952M 12952  13128U 13136M
                                                 13136
 @SUSPFLG      1 00000008 FFFFFFE9     R    1535  1539   1544   1549
 @SWFLG        1 00000004 FFFFFFC1     R    2631  2640   2650   2660
 @TCREATE     21 00000000 FFFFFFE5     J    1668  4850U  4858M  4858
 @TCRFLAG      1 00000014 FFFFFFE5     R    1650  1654   1659
 @TCRFSTK    128 00000014 FFFFFFE5         1654  4868M
 @TCRPARM      4 00000008 FFFFFFE5     A    1646  4862M
 @TCRPRIO      4 00000010 FFFFFFE5     A    1647  4861M
 @TCRPSW       8 00000000 FFFFFFE5     D    1645  4859M  4860M
 @TENTRY       8 00000000 FFFFFFE3     J    1714  8717U
 @TEPARM       4 00000000 FFFFFFE3     A    1707  8722
 @UPCB         4 00000000 FFFFFF9F     A    4047  4387M  4549   4915M  4952M  5047   5489M  5576M  5606M  5706   6539
                                                  6852   7189M  7355M  7455   8078   8243   9411M  9437M  9628M  9865M
                                                  9928M 10116M 10212M 10245M 10268M 10344M 10404M 10423M 10522  11341
                                                 12254  12442  12650
 @UPCBP        5 00000000 FFFFFF9F     J    4063  4352U  4360M  4360   4544U  4906U  4914M  4914   4951M  4951   5042U
                                                  5480U  5488M  5488   5575M  5575   5605M  5605   5701U  6534U  6847U
                                                  7180U  7188M  7188   7346U  7354M  7354   7450U  8073U  8238U  9402U
                                                  9410M  9410   9436M  9436   9619U  9627M  9627   9864M  9864   9927M
                                                  9927  10115M 10115  10211M 10211  10244M 10244  10267M 10267  10343M
                                                 10343  10403M 10403  10422M 10422  10517U 11336U 12249U 12437U 12645U
 @UPCF         1 00000004 FFFFFF9F     R    4050  4054
1PATH     (PATH00) (09:43) (22MAR04) Ordinary Symbol and Literal Cross Reference                                            Page  101
 @UPCFM31    128 00000004 FFFFFF9F         4054  4382M  4578   5102   6881
 @VALBFL       1 00000007 FFFFFF9E     R    4084  4088
 @VALBKEY      1 00000006 FFFFFF9E     X    4081  4653M  5205M  6985M 13489  13515
 @VALBLEN      2 00000004 FFFFFF9E     H    4080  4635M  5187M  6967M 13483  13513
 @VALBLOC      4 00000000 FFFFFF9E     A    4079  4618M  5177M  6957M 13482  13512
 @VALBUF       8 00000000 FFFFFF9E     J    4097  4600U  4608M  4608   5159U  5167M  5167   6939U  6947M  6947  13477U
 @VALBWRT    128 00000007 FFFFFF9E         4088  5211M 13596
 @VMFLEN       4 00000004 FFFFFFC8     A    2441  6294M  6394M  6694M 11431M 11512M 11688M 12155M
 @VMFLOC       4 00000000 FFFFFFC8     A    2440  6299M  6399M  6699M 11436M 11517M 11699M 12165M
 @VMFPOOL      2 00000008 FFFFFFC8     H    2442  6300M  6400M  6700M 11437M 11518M 11700M 12166M
 @VMFREE      10 00000000 FFFFFFC8     J    2449  6281U  6289M  6289   6389M  6389   6681U  6689M  6689  11406U 11414M
                                                 11414  11495M 11495  11663U 11671M 11671  12130U 12138M 12138
 @VMGET       11 00000000 FFFFFFC9     J    2428  5780U  5788M  5788  10879U 10887M 10887  10992M 10992  11084M 11084
                                                 11826U 11834M 11834
 @VMGFLG       1 0000000A FFFFFFC9     R    2410  2414   2419
 @VMGLEN       4 00000000 FFFFFFC9     A    2405  5793M 10904M 11009M 11101M 11851M
 @VMGONEP     64 0000000A FFFFFFC9         2419 11016M
 @VMGPOOL      2 00000008 FFFFFFC9     H    2407  5794M 10905M 11010M 11102M 11852M
 @WSFLG        1 0000000C FFFFFFBF     R    2705  2709
 @XITDATA      4 00000000 FFFFFFAD     J    3316 12776U 13056U
 @XITDEL       4 00000000 FFFFFFB2     J    3071 11572U 11580M 11580  11596M 11596  11612M 11612  11628M 11628
 @XITDID       4 00000000 FFFFFFB2     A    3064 11581M 11597M 11613M 11629M
 @XITDO       32 00000000 FFFFFFB1     J    3097 12280U 12288M 12288  12894U 12902M 12902
 @XITDSA       4 00000000 FFFFFFAD     A    3309 12784  13064
 @XITMREQ      1 00000004 FFFFFFAF     R    3142  3151   3161   3171
 @XITMSK       4 00000000 FFFFFFAF     A    3139  8854U  8862M  8862   8868U
 @XITNEW       1 00000000 FFFFFFB3     J    3048 11165U 11173M 11189M 11205M 11221M
 @XITNFL       1 00000000 FFFFFFB3     R    3035  3039
 @XITPARM     16 00000010 FFFFFFB1     X    3090 12297U 12911U
 @XITRQID      4 00000000 FFFFFFB1     A    3086 12289M 12903M
 @XITTSK       4 00000004 FFFFFFB1     A    3087 12290M 12904M
 @XITTYPE      1 00000008 FFFFFFB1     X    3088 12291M 12905M
 ACAINFO       1 00000000 00000013     T   13698 13698
 ACTIOPST      2 00000FCA 00000001     H   10200  9577B  9682B  9709B  9800B  9839B  9905B  9944B 10028B 10049B 10163B
                                                 10183B
 ADDSEG        4 000017D0 00000001     I   13236  6787   8652  13247U
 ADDSEG14      2 000017C4 00000001     H   13231 13230
 ANTIME14      2 000016A6 00000001     H   12613 12612
 ASBGCFLG      1 00000014 FFFFFFEC     R    1436  1440
 ASLOCK        1 00000000 0000000B     T    8662  8662  13688
 ASULOCK       1 00000000 0000000C     T    8663  8663  13689
 ATTACH        4 00000154 00000001     I    4517  4488   4528U
 ATTACH14      2 00000148 00000001     H    4512  4511
 ATTDONE       2 00000280 00000001     H    4967  4935B
 ATTSPEC       2 0000026C 00000001     H    4942  4672B  4688B  4709B  4732B  4746B  4774B  4788B
 AWAIT         1 00000000 0000000F     T   13676 13676
 BR           10 0000000A FFFFFFFF A   #    1136  4146M  4156U  4518M  4528U  5016M  5026U  5675M  5685U  6508M  6518U
                                                  6821M  6831U  7424M  7434U  8047M  8057U  8212M  8222U  8691M  8701U
                                                 10491M 10501U 10842M 10852U 11310M 11320U 11792M 11802U 12061M 12071U
                                                 12223M 12233U 12411M 12421U 12619M 12629U 12750M 12760U 13030M 13040U
                                                 13237M 13247U 13451M 13461U
 CANTIME       4 000016B2 00000001     I   12618 12629U 13684
 CLOSED      128 00000010 FFFFFFA0         3844  5431   5522   9832   9898  10042  10328M 10380  10553
 CLOSING       4 00000011 FFFFFFA0         3901  8262M 10316
 DELUPCB       4 000012CC 00000001     I   11309  6777  11320U 13686
 DETACH        4 00000AF6 00000001     I    8211  4493   8222U
 DETACH14      2 00000AEA 00000001     H    8206  8205
 DOHALT       64 00000011 FFFFFFA0         3881  8112M  9543   9555M
 DOMOVE        4 0000065A 00000001     I    6507  6518U  6783  13681
1PATH     (PATH00) (09:43) (22MAR04) Ordinary Symbol and Literal Cross Reference                                            Page  102
 DOMOVE14      2 0000064E 00000001     H    6502  6501
 DONOTE        4 0000107E 00000001     I   10490 10501U 13675
 DONOTE14      2 00001072 00000001     H   10485 10484
 DOPINFO       4 00001460 00000001     I   11791 11802U 13668
 DOREAD        4 00000424 00000001     I    5674  5685U  6782  13680
 DOREAD14      2 00000418 00000001     H    5669  5668
 DOTIME        4 00001620 00000001     I   12410 12421U 13674
 DOTIME14      2 00001614 00000001     H   12405 12404
 DOWRITE       4 00000936 00000001     I    7423  7434U  8646  13683
 ELUPCB14      2 000012C0 00000001     H   11304 11303
 EPAR         15 0000000F FFFFFFFF A   #    1196  4146   4200M  4201B  4452M  4453B  4518   4659M  4660B  4871M  4872B
                                                  4921M  4922B  4958M  4959B  5016   5217M  5218B  5372M  5373B  5495M
                                                  5496B  5582M  5583B  5612M  5613B  5675   5797M  5798B  5935M  5936B
                                                  5978M  5979B  6012M  6013B  6067M  6068B  6115M  6116B  6173M  6174B
                                                  6199M  6200B  6225M  6226B  6303M  6304B  6403M  6404B  6508   6703M
                                                  6704B  6821   6991M  6992B  7154M  7155B  7195M  7196B  7318M  7319B
                                                  7361M  7362B  7424   7565M  7566B  7608M  7609B  7642M  7643B  7697M
                                                  7698B  7745M  7746B  7803M  7804B  7829M  7830B  7855M  7856B  8047
                                                  8151M  8152B  8212   8350M  8351B  8405M  8406B  8453M  8454B  8510M
                                                  8511B  8536M  8537B  8543M  8544B  8592M  8593B  8596M  8597B  8691
                                                  8790M  8791B  8836M  8837B  8893M  8894B  8927M  8928B  8998M  8999B
                                                  9055M  9056B  9105M  9106B  9157M  9158B  9250M  9251B  9300M  9301B
                                                  9329M  9330B  9355M  9356B  9417M  9418B  9443M  9444B  9503M  9504B
                                                  9634M  9635B  9871M  9872B  9934M  9935B 10122M 10123B 10251M 10252B
                                                 10274M 10275B 10350M 10351B 10410M 10411B 10429M 10430B 10433M 10434B
                                                 10491  10542M 10543B 10561M 10562B 10677M 10678B 10721M 10722B 10778M
                                                 10779B 10782M 10783B 10842  10908M 10909B 11019M 11020B 11105M 11106B
                                                 11176M 11177B 11192M 11193B 11208M 11209B 11224M 11225B 11259M 11260B
                                                 11310  11384M 11385B 11440M 11441B 11521M 11522B 11584M 11585B 11600M
                                                 11601B 11616M 11617B 11632M 11633B 11703M 11704B 11792  11855M 11856B
                                                 12001M 12002B 12061  12169M 12170B 12223  12305M 12306B 12411  12506M
                                                 12507B 12619  12688M 12689B 12750  12916M 12917B 12972M 12973B 12976M
                                                 12977B 13030  13156M 13157B 13160M 13161B 13237  13451  13518M 13519B
 EWUPCB14      2 00001128 00000001     H   10836 10835
 EXRADD        1 00000000 0000000D     T   13663 13663
 EXRDONE       1 00000000 00000017     T   13703 13703
 FULLQE       64 00000010 FFFFFFA0         3849  7478M 10066
 HALT          4 00000AA6 00000001     I    8046  4491   8057U
 HALT14        2 00000A9A 00000001     H    8041  8040
 HIBAL         1 00000000 FFFFFFFF     J     700   716    729    742    755    768    781    794    807    820    833
                                                   846    859    872    885    898    911   1012   1024   1036   1048
                                                  1060   1072   1084   1096   1108   1120   1132   1144   1156   1168
                                                  1180   1192   1204
 IDLE          0 00000060 FFFFFFA0         3941  8101   9525  10218M 12879
 IOCOMP      128 00000011 FFFFFFA0         3876 10294  10306M 12930M
 IODONE        4 00001588 00000001     I   12222  6776   8649  12233U 13685
 IODONE14      2 0000157C 00000001     H   12217 12216
 IOSDOIO       1 00000000 00000007     T    6789  6789   8654  13670
 IOSIDFRE      1 00000000 00000009     T    6791  6791   8656  13673
 IOSIDGET      1 00000000 00000006     T    6788  6788   8653  13666
 LPINFO14      2 00001526 00000001     H   12055 12054
 MAT         256 00000000 FFFFFFED     J    1408 11945U
 MATSNAME      8 000000D4 FFFFFFED     C    1386 11949
 MILPRIV       4 0000000F FFFFFFC5     U    2523 12007
 MITMK1        1 00000000 FFFFFFAE     R    3215  3219   3224   3229   3234   3239   3244   3249   3254
 MITMK2        1 00000001 FFFFFFAE     R    3260  3264   3269   3274
 MLOOP         2 00000E02 00000001     H    9452 10439B
 M1PATH        4 00000022 00000001     I    4145  4140   4156U
 NEWINFO      32 00000010 FFFFFFA0         3854  5416   5845M  6333M  9817
1PATH     (PATH00) (09:43) (22MAR04) Ordinary Symbol and Literal Cross Reference                                            Page  103
 NEWUPCB       4 00001134 00000001     I   10841  6763  10852U
 OPENED        8 00000010 FFFFFFA0         3864  5395   7067   9696   9771   9999  10080
 OPENING       2 00000011 FFFFFFA0         3906  7100M 10092  10104M
 OPINFO14      2 00001454 00000001     H   11786 11785
 OWRITE14      2 0000092A 00000001     H    7418  7417
 PAGFIX        1 00000000 00000005     T    6786  6786   8651  13669
 PAGTPROT      1 00000000 00000018     T   13705 13705
 PAGUFIX       1 00000000 00000008     T    6790  6790   8655  13671
 PATH          1 00000000 00000001     J    1219  1216   1217   1221   1327   1409   1467   1496   1515   1559   1584
                                                  1607   1630   1669   1692   1715   1738   1761   1783   1809   1832
                                                  1855   1878   1904   1939   1958   2003   2023   2043   2070   2089
                                                  2121   2156   2190   2221   2262   2287   2312   2337   2362   2387
                                                  2429   2450   2471   2505   2532   2561   2584   2607   2670   2689
                                                  2719   2752   2779   2799   2819   2841   2862   2881   2901   2949
                                                  2972   3018   3049   3072   3098   3124   3181   3294   3317   3343
                                                  3449   3478   3503   3553   3581   3604   3627   3668   3693   3716
                                                  3772   4032   4064   4098   4121
 PATHTASK      4 00000C38 00000001     I    8690  6772   8701U
 PATH00        1 00000000 00000001     R    1228  1226
 PINFO       128 00000000 FFFFFFA1     J    3771  9097   9292  11846  11895  11910U 11920M 11920  11921M 12103U 12113M
                                                 12113  12150
 PINFOACC      8 00000010 FFFFFFA1     C    3746 12003M 12004M 12005M 12006M
 PINFOIFL      1 00000030 FFFFFFA1     R    3753 12007M
 PINFOLNO      2 00000032 FFFFFFA1     H    3759 12011M
 PINFOSYS      8 00000008 FFFFFFA1     C    3745 11949M
 PTIOCX        4 000016F6 00000001     I   12749 12760U 13662
 PTIOCX14      2 000016EA 00000001     H   12744 12743
 PTTAB         4 0000012C 00000001     A    4487  4452   4494
 PTTIMEX       4 0000177C 00000001     I   13029 13040U 13664
 PZABORT     128 0000021A FFFFFFEE         1307  4251M  4435M  5749M  5823M  6436M  6582M  7983M  9183M 10934M 11045M
                                                 11131M 11466M 11547M 11729M 11880M 12340M 12541M 13344M
 PZABR15       4 0000021C FFFFFFEE     A    1316  4252M  4436M  5750M  5824M  6437M  6583M  7984M  9184M 10935M 11046M
                                                 11132M 11467M 11548M 11730M 11881M 12341M 12542M 13345M
 PZABSM        1 0000021B FFFFFFEE     X    1315  4245M  4429M  5743M  5817M  6430M  6576M  7977M  9177M 10928M 11039M
                                                 11125M 11460M 11541M 11723M 11874M 12334M 12535M 13338M
 PZCURASB      4 00000208 FFFFFFEE     A    1292 11990
 PZCURPID      8 00000208 FFFFFFEE     D    1291  6093   7723   8431   9131  10704
 PZCURTSK      4 0000020C FFFFFFEE     A    1293 10971
 PZERO       640 00000000 FFFFFFEE     J    1326  1337U  4648U  5200U  6980U 11988U 12332U 12533U 13336U
 PZLCPUA       4 00000210 FFFFFFEE     A    1294  4253   4437   5751   5825   6438   6584   7985   9185  10936  11047
                                                 11133  11468  11549  11731  11882  12342  12543  13346
 PZMATP        4 00000200 FFFFFFEE     A    1289 11927
 PZTERMFL      1 0000021A FFFFFFEE     R    1303  1307   1312
 RA            2 00000002 FFFFFFFF A   #    1028  4589M  4755M  4755   4756M  4757M  4758   4760M  4771M  4771   4785
                                                  4794   5069M  5070M  5070   5082M  5082   5108M  5113   5276M  5276
                                                  5277M  5278M  5279   6597M  6628M  6892M  6893   7050M  7050   7051M
                                                  7052M  7053  11057M 11065  11143M 11151  11900M 11910U 12807M 12810
                                                 12810  12818  12818  12851  13288M 13368  13371  13382M
 RAR          14 0000000E FFFFFFFF A   #    1184  4201M  4453M  4478B  4660M  4872M  4922M  4959M  4986B  5218M  5373M
                                                  5496M  5583M  5613M  5643B  5798M  5936M  5979M  6013M  6068M  6116M
                                                  6174M  6200M  6226M  6304M  6404M  6474B  6704M  6751B  6992M  7155M
                                                  7196M  7319M  7362M  7392B  7566M  7609M  7643M  7698M  7746M  7804M
                                                  7830M  7856M  8017B  8152M  8182B  8351M  8406M  8454M  8511M  8537M
                                                  8544M  8593M  8597M  8628B  8791M  8837M  8894M  8928M  8999M  9056M
                                                  9106M  9158M  9251M  9301M  9330M  9356M  9418M  9444M  9504M  9635M
                                                  9872M  9935M 10123M 10252M 10275M 10351M 10411M 10430M 10434M 10461B
                                                 10543M 10562M 10678M 10722M 10779M 10783M 10810B 10909M 11020M 11106M
                                                 11177M 11193M 11209M 11225M 11260M 11279B 11385M 11441M 11522M 11585M
                                                 11601M 11617M 11633M 11704M 11762B 11856M 12002M 12031B 12170M 12192B
1PATH     (PATH00) (09:43) (22MAR04) Ordinary Symbol and Literal Cross Reference                                            Page  104
                                                 12306M 12381B 12507M 12589B 12689M 12719B 12917M 12973M 12977M 12999B
                                                 13157M 13161M 13183B 13424B 13519M 13644B
 RB            3 00000003 FFFFFFFF A   #    1040  4718M  4729M  4729   4743   4758   5114M  5125M  5125   5139   5148
                                                  5239M  5250M  5250   5264   5279   6117M  6241   6247M  6256M  6256
                                                  6338   6366   6598M  6607   6609M  6613   6615   6894M  6905M  6905
                                                  6919   6928   7013M  7024M  7024   7038   7053   7747M  7871   7900
                                                  7926   7952   9000M  9323  11864M 12012  12092M 13289M 13304M 13304
                                                 13375  13377  13383M 13489M
 READ          4 00000296 00000001     I    5015  4489   5026U
 READDONE      2 0000040E 00000001     H    5624  5230B  5378B  5618B
 READPOST      2 000003F4 00000001     H    5596  5402B  5460B  5551B
 READSPEC      4 0000040A 00000001     I    5620  5128B  5142B  5253B  5267B
 READ14        2 0000028A 00000001     H    5010  5009
 RELPINFO      4 00001532 00000001     I   12060 12071U 13672
 RJ            4 00000004 FFFFFFFF A   #    1052  6599M  6601M  6628M 13285M 13286M 13287M 13287  13384M 13394M 13395M
                                                 13396  13482M
 RK            5 00000005 FFFFFFFF A   #    1064  6014M  6095   6222   6602M  6603M  6607   6609   6613   6615M  6619
                                                  6620   7644M  7725   7852   8352M  8433   8533   8929M  9148   9352
                                                 10679M 10706  13483M
 RS            1 00000001 FFFFFFFF A   #    1016  4393M  4405M  4405   4419   4452   4798M  4801   4802   6600M  6601
                                                  6603   6620M  6621   6622M  6623M  6623   6624   9001M  9002  11895M
                                                 11896  11927M 11945U 12093M 12103U 12784M 12794U 13064M 13074U 13313M
                                                 13364  13368M 13369M 13370M 13371M 13375  13377M 13378  13382  13383
                                                 13393M 13394  13400M 13401M 13402  13513M 13514
 RTCAN         1 00000000 00000016     T   13701 13701
 RTSET         1 00000000 00000015     T   13700 13700
 RVR           0 00000000 FFFFFFFF A   #    1004  4202   4630M  4647M  4669M  4669   4934M  4934   4960M  5199M  5227M
                                                  5227   5364M  5377M  5377   5617M  5617   5620M  5807M  5807   5835
                                                  6014   6059M  6117   6165M  6979M  7001M  7001   7146M  7159M  7159
                                                  7208M  7208   7235M  7235   7310M  7323M  7323   7366M  7366   7369M
                                                  7644   7689M  7747   7795M  7880M  7880   7906M  7932M  7958M  8143M
                                                  8160M  8160   8352   8397M  8502M  8584M  8601M  8601   8929   9000
                                                  9047M  9080M  9097M  9167M  9167   9242M  9275M  9292M  9489M 10133M
                                                 10133  10150M 10150  10176M 10176  10669M 10770M 10899M 10918M 10918
                                                 10946  11004M 11029M 11029  11057  11096M 11115M 11115  11143  11178
                                                 11194  11210  11226  11261  11262M 11426M 11450M 11450  11507M 11531M
                                                 11531  11683M 11713M 11713  11846M 11864  12012M 12150M 12315M 12315
                                                 12516M 12516  12561  12964M 13148M 13528M 13528  13548  13554M 13573
                                                 13579M 13603M 13623M 13623
 RX            6 00000006 FFFFFFFF A   #    1076  4202M  4203   4220M  4272U  4387   4549M  4559U  4862   4915   4952
                                                  5047M  5057U  5489   5576   5606   5706M  5716U  6539M  6549U  6852M
                                                  6862U  7189   7355   7455M  7465U  8078M  8088U  8243M  8253U  8722M
                                                  8732U  8759   8808   9411   9437   9628   9865   9928  10116  10212
                                                 10245  10268  10344  10404  10423  10522M 10532U 10946M 10956U 11341M
                                                 11351U 12254M 12264U 12442M 12452U 12650M 12660U 12806M 12843U 13080M
                                                 13098U 13268M 13278U
 RY            7 00000007 FFFFFFFF A   #    1088  5846M  5856U  5879U  7479M  7489U  7512U  8266M  8276U  8299U  8933M
                                                  8943U  8967U 10573M 10583U 10606U
 R0            0 00000000 FFFFFFFF A   #     708  1337U  4145   4517   5015   5674   6507   6820   7423   8046   8211
                                                  8690  10490  10841  11309  11791  11988U 12060  12222  12332U 12410
                                                 12533U 12618  12749  13029  13236  13336U 13450
 R1            1 00000001 FFFFFFFF A   #     721  4476M  4984M  5641M  6472M  6749M  7390M  8015M  8180M  8626M 10459M
                                                 10808M 11277M 11760M 12029M 12190M 12379M 12587M 12717M 12997M 13181M
                                                 13422M 13642M
 R15          15 0000000F FFFFFFFF A   #     903  4145   4252   4253M  4254M  4255M  4256M  4257M  4257   4436   4437M
                                                  4438M  4439M  4440M  4441M  4441   4476M  4517   4984M  5015   5641M
                                                  5674   5750   5751M  5752M  5753M  5754M  5755M  5755   5824   5825M
                                                  5826M  5827M  5828M  5829M  5829   6437   6438M  6439M  6440M  6441M
                                                  6442M  6442   6472M  6507   6583   6584M  6585M  6586M  6587M  6588M
1PATH     (PATH00) (09:43) (22MAR04) Ordinary Symbol and Literal Cross Reference                                            Page  105
                                                  6588   6749M  6820   7390M  7423   7984   7985M  7986M  7987M  7988M
                                                  7989M  7989   8015M  8046   8180M  8211   8626M  8690   9184   9185M
                                                  9186M  9187M  9188M  9189M  9189  10459M 10490  10808M 10841  10935
                                                 10936M 10937M 10938M 10939M 10940M 10940  11046  11047M 11048M 11049M
                                                 11050M 11051M 11051  11132  11133M 11134M 11135M 11136M 11137M 11137
                                                 11277M 11309  11467  11468M 11469M 11470M 11471M 11472M 11472  11548
                                                 11549M 11550M 11551M 11552M 11553M 11553  11730  11731M 11732M 11733M
                                                 11734M 11735M 11735  11760M 11791  11881  11882M 11883M 11884M 11885M
                                                 11886M 11886  12029M 12060  12190M 12222  12341  12342M 12343M 12344M
                                                 12345M 12346M 12346  12379M 12410  12542  12543M 12544M 12545M 12546M
                                                 12547M 12547  12587M 12618  12717M 12749  12997M 13029  13181M 13236
                                                 13345  13346M 13347M 13348M 13349M 13350M 13350  13422M 13450  13642M
 SCOMPLEN      1 00000068 00000001 A   U    3774  6059   6165   7689   7795  11004  11063  11426
 SIGNAL        1 00000000 00000003     T    6779  6779   8645  13702
 SPR          13 0000000D FFFFFFFF A   #    1172  4145   4160   4161   4176M  4352U  4517   4532   4533   4548M  4600U
                                                  4850U  4906U  5015   5030   5031   5046M  5159U  5344U  5480U  5674
                                                  5689   5690   5705M  5780U  5914U  5950U  5995U  6028U  6084U  6134U
                                                  6213U  6281U  6507   6522   6523   6538M  6681U  6820   6835   6836
                                                  6851M  6939U  7126U  7180U  7290U  7346U  7423   7438   7439   7454M
                                                  7544U  7580U  7625U  7658U  7714U  7764U  7843U  8046   8061   8062
                                                  8077M  8123U  8211   8226   8227   8242M  8333U  8366U  8422U  8471U
                                                  8524U  8564U  8690   8705   8706   8721M  8748U  8854U  8910U  9016U
                                                  9122U  9211U  9314U  9343U  9402U  9469U  9619U 10490  10505  10506
                                                 10521M 10638U 10695U 10739U 10841  10856  10857  10859M 10879U 11165U
                                                 11242U 11309  11324  11325  11340M 11368U 11406U 11572U 11663U 11791
                                                 11806  11807  11809M 11826U 11972U 12060  12075  12076  12091M 12130U
                                                 12222  12237  12238  12253M 12280U 12410  12425  12426  12441M 12487U
                                                 12618  12633  12634  12649M 12676U 12749  12764  12765  12780M 12894U
                                                 12944U 13029  13044  13045  13060M 13128U 13236  13251  13252  13267M
                                                 13450  13465  13466  13481M 13503U
 TCREATE       1 00000000 00000002     T    6774  6774
 TEXIT         1 00000000 00000010     T   13687 13687
 THTASK14      2 00000C2C 00000001     H    8685  8684
 TIMERUN       8 00000011 FFFFFFA0         3896 10228  12567M 12697M 13117M
 TIMEST       16 00000011 FFFFFFA0         3891  4833M  5330M  7112M  7276M  9377   9389M  9594   9606M
 TIMEUP       32 00000011 FFFFFFA0         3886  9668   9680M  9749   9761M  9977   9989M 13110M
 TRCD14        4 00001918 00000001     A   13655 13654
 TTIMEX14      2 00001770 00000001     H   13024 13023
 TTLEN         1 0000001C 00000001 A   U    4494  6765
 UPATHID       4 00000004 FFFFFFA0     A    3832  4802M  6094   7724   8432   9147  10705
 UPATSK        4 00000024 FFFFFFA0     A    3914 10971M 12290  12904
 UPATXID       4 00000030 FFFFFFA0     A    3917 11210M 11613  12903
 UPBUFLEN      4 00000068 FFFFFFA0     A    4011  5148M  6598   6928M  7562   7591   7826
 UPBUFLOC      4 00000064 FFFFFFA0     A    4010  5113M  6597   6893M  7557   7586   7821
 UPCB        144 00000000 FFFFFFA0     J    4031  4272U  4559U  5057U  5716U  6549U  6862U  7465U  8088U  8253U  8732U
                                                 10532U 10899  10956U 10969M 10969  10970M 11262  11351U 11355M 11643M
                                                 11643  11683  12264U 12452U 12660U 12843U 13098U
 UPCRID        4 00000050 FFFFFFA0     A    3926  4279M 12299  12913
 UPCR01        4 00000054 FFFFFFA0     A    3927  4280M  4584M  4589   5069   6887M  6892
 UPCR14        4 00000058 FFFFFFA0     A    3928  4281M
 UPCR15        4 0000005C FFFFFFA0     A    3929  4282M  4718   4760   5114   5239   6894   7013
 UPCTYPE       1 00000060 FFFFFFA0     R    3932  3941   3951   3961   3971   3981   3991
 UPECB         8 00000018 FFFFFFA0     D    3909  5364   7146   7310   8143   8584   9489   9511M  9511  12964  13148
 UPIOCB        4 00000008 FFFFFFA0     A    3833 10679  11261M 11381
 UPIOPA        4 0000000C FFFFFFA0     A    3834  5846   7479   8266   8933  11065M 11436
 UPIOXID       4 00000028 FFFFFFA0     A    3915 11178M 11581  12289
 UPMAXBUF      4 00000038 FFFFFFA0     A    3919  4794M  5793   5932   5961   6196   6294   6394   6694   8992
 UPMTRUNC     64 00000061 FFFFFFA0         4005  5088M  6644
 UPMWAIT     128 00000061 FFFFFFA0         4000  4312M  4335M  4816   4887   5313   7082   7259   7965M
1PATH     (PATH00) (09:43) (22MAR04) Ordinary Symbol and Literal Cross Reference                                            Page  106
 UPNIOPA       4 00000020 FFFFFFA0     A    3910 10573  11151M 11517
 UPNME         8 0000003C FFFFFFA0     C    3920  4678M  4679   4706   8989
 UPNPASS       4 0000004C FFFFFFA0     C    3922  8991
 UPNXID        4 0000002C FFFFFFA0     A    3916 10718  11194M 11597
 UPNYOU        8 00000044 FFFFFFA0     C    3921  4706   8990
 UPPFLG        1 00000010 FFFFFFA0     R    3840  3844   3849   3854   3859   3864  12858M
 UPRFLGS       1 00000061 FFFFFFA0     R    3996  4000   4005   4290M
 UPRKEY        1 00000062 FFFFFFA0     X    4009  4283M  4647   5199   6979
 UPRLEN        4 00000088 FFFFFFA0     A    4023  6338M  6602   6622   6659   6725M  6725
 UPRLOC        4 00000084 FFFFFFA0     A    4022  5294M  5294   5507M  5507   5733M  5733   5835M  5927   5956   6191
                                                  6299   6311M  6311   6399   6411M  6411   6566M  6566   6599   6699
                                                  6711M  6711   9883M  9883
 UPROFF        4 0000008C FFFFFFA0     A    4024  6345M  6345   6600   6621M  6659   6718M  6718
 UPRR01        4 0000006C FFFFFFA0     A    4013  4563M  5061M  6619M  6866M  9569M  9569  12300
 UPRR14        4 00000070 FFFFFFA0     A    4014  4564M  5062M  6624M  6867M  9576M  9576  12301
 UPRR15        4 00000074 FFFFFFA0     A    4015  4565M  4893M  5063M  5401M  5438M  5455M  5529M  5546M  5593M  5593
                                                  6868M  7088M  7220M  7220   7241M  7329M  9562M  9562   9681M  9708M
                                                  9708   9778M  9795M  9838M  9904M  9943M  9943  10006M 10023M 10048M
                                                 10162M 10162  10182M 10392M 10392  12302
 UPTATCH       4 00000060 FFFFFFA0         3951  4827M  9653
 UPTDTCH      20 00000060 FFFFFFA0         3991  8550M 10368
 UPTOID        4 00000080 FFFFFFA0     A    4018 12561M 12685
 UPTOVAL       8 00000078 FFFFFFA0     D    4017  4758M  5279M  7053M 12466M 12466  12496
 UPTOXID       4 00000034 FFFFFFA0     A    3918 11226M 11629  12503
 UPTREAD       8 00000060 FFFFFFA0         3961  5324M  9734
 UPTWRIT      12 00000060 FFFFFFA0         3971  7106M  7270M  9962
 UPWFLG        1 00000011 FFFFFFA0     R    3872  3876   3881   3886   3891   3896   3901   3906
 VALBUF        4 00001892 00000001     I   13450  6767   8641  13461U
 VALBUF14      2 00001886 00000001     H   13445 13444
 VMFREE        1 00000000 0000000A     T    6793  6793  13695
 VMGET         1 00000000 00000004     T    6784  6784  13691
 WAR          12 0000000C FFFFFFFF A   #    1160  4160   4161M  4162   4172U  4176   4476   4477   4532   4533M  4534
                                                  4544U  4548   4984   4985   5030   5031M  5032   5042U  5046   5641
                                                  5642   5689   5690M  5691   5701U  5705   6472   6473   6522   6523M
                                                  6524   6534U  6538   6749   6750   6835   6836M  6837   6847U  6851
                                                  7390   7391   7438   7439M  7440   7450U  7454   8015   8016   8061
                                                  8062M  8063   8073U  8077   8180   8181   8226   8227M  8228   8238U
                                                  8242   8626   8627   8705   8706M  8707   8717U  8721  10459  10460
                                                 10505  10506M 10507  10517U 10521  10808  10809  10856  10857M 10858
                                                 10859  11277  11278  11324  11325M 11326  11336U 11340  11760  11761
                                                 11806  11807M 11808  11809  12029  12030  12075  12076M 12077  12087U
                                                 12091  12190  12191  12237  12238M 12239  12249U 12253  12379  12380
                                                 12425  12426M 12427  12437U 12441  12587  12588  12633  12634M 12635
                                                 12645U 12649  12717  12718  12764  12765M 12766  12776U 12780  12997
                                                 12998  13044  13045M 13046  13056U 13060  13181  13182  13251  13252M
                                                 13253  13263U 13267  13422  13423  13465  13466M 13467  13477U 13481
                                                 13642  13643
 WRITDONE      2 00000920 00000001     H    7373  7004B  7160B  7324B  7367B
 WRITE         4 000007CE 00000001     I    6820  4490   6831U
 WRITE14       2 000007C2 00000001     H    6815  6814
 WRITPOST      2 00000906 00000001     H    7335  7089B  7221B  7242B
 WRITSPEC      4 0000091C 00000001     I    7369  6908B  6922B  7027B  7041B
 XITDEL        1 00000000 00000012     T   13696 13696
 XITDO         1 00000000 00000014     T   13699 13699
 XITMASK       1 00000000 0000000E     T   13665 13665
 XITMIOCA     32 00000001 FFFFFFAE         3274  8777   8777   8886   8886
 XITMIOCN     64 00000001 FFFFFFAE         3269  8777   8777   8778M  8886   8886   8887M
 XITMRTC      32 00000000 FFFFFFAE         3229  8824M  8878M
 XITMSKD       4 00000000 FFFFFFAE     J    3293  8765U  8814U  8868U
1PATH     (PATH00) (09:43) (22MAR04) Ordinary Symbol and Literal Cross Reference                                            Page  107
 XITNEW        1 00000000 00000011     T   13693 13693
 XITSAREA     28 00000000 FFFFFFAC     J    3342 12794U 13074U
 XITSRPRM      4 00000000 FFFFFFAC     A    3332 12806  13080
 XITSXPRM     16 0000000C FFFFFFAC     X    3335 12804U
 XITTATTN      1 00000008 00000001 A   U    3196 12905
 XITTIOCN      1 00000009 00000001 A   U    3197 12291
 =A(-4)        4 00000784 00000001     A    6780  5438   5529
 =A(-4)        4 00000BE8 00000001     A    8647  7241   7906
 =A(-4)        4 00001970 00000001     A   13679  9838   9904  10048  10182
 =A(#SCCCLOS)
               4 00000C20 00000001     A    8661  8305
 =A(#SCCNOTE)
               4 0000199C 00000001     A   13690 10612
 =A(#SCCOPEN)
               4 00001940 00000001     A   13667  8973
 =A(#SCCRECV)
               4 00000798 00000001     A    6785  5885
 =A(#SCCSEND)
               4 00000BF4 00000001     A    8650  7518
 =A(#SCESBOM)
               4 00000C1C 00000001     A    8660  7952
 =A(#SCESFQ)
               4 00000C18 00000001     A    8659  7926
 =A(#SCESNP)
               4 000007BC 00000001     A    6794  6366
 =A(#SCESNP)
               4 00000C14 00000001     A    8658  7900
 =A(#SCESOK)
               4 000007B4 00000001     A    6792  6241
 =A(#SCESOK)
               4 00000C10 00000001     A    8657  7871
 =A(ADDSEG)
               4 000007A0 00000001     A    6787  5978
 =A(ADDSEG)
               4 00000BFC 00000001     A    8652  7608
 =A(CANTIME)
               4 00001984 00000001     A   13684 10251
 =A(DELUPCB)
               4 00000778 00000001     A    6777  4958
 =A(DELUPCB)
               4 0000198C 00000001     A   13686 10429
 =A(DOMOVE)
               4 00000790 00000001     A    6783  5582
 =A(DOMOVE)
               4 00001978 00000001     A   13681  9934
 =A(DONOTE)
               4 00001960 00000001     A   13675  9443  10350
 =A(DOPINFO)
               4 00001944 00000001     A   13668  8998
 =A(DOREAD)
               4 0000078C 00000001     A    6782  5495
 =A(DOREAD)
               4 00001974 00000001     A   13680  9871
 =A(DOTIME)
               4 0000195C 00000001     A   13674  9417   9634
 =A(DOWRITE)
               4 00000BE4 00000001     A    8646  7195
 =A(DOWRITE)
               4 00001980 00000001     A   13683 10122
1PATH     (PATH00) (09:43) (22MAR04) Ordinary Symbol and Literal Cross Reference                                            Page  108
 =A(IODONE)
               4 00000774 00000001     A    6776  4921   5612
 =A(IODONE)
               4 00000BF0 00000001     A    8649  7361
 =A(IODONE)
               4 00001988 00000001     A   13685 10274  10410
 =A(NEWUPCB)
               4 00000740 00000001     A    6763  4200
 =A(RELPINFO)
               4 00001954 00000001     A   13672  9329
 =A(TTLEN)
               4 00000748 00000001     A    6765  4419
 =A(VALBUF)
               4 00000750 00000001     A    6767  4659   5217
 =A(VALBUF)
               4 00000BD0 00000001     A    8641  6991
 =A(X'80000000'+PATHTASK)
               4 00000764 00000001     A    6772  4860
 =A(X'80000000'+PTIOCX)
               4 0000192C 00000001     A   13662  8758
 =A(X'80000000'+PTTIMEX)
               4 00001934 00000001     A   13664  8807
 =A(10)        4 00000768 00000001     A    6773  4861
 =A(16)        4 00000770 00000001     A    6775  4893   5401
 =A(16)        4 00000BDC 00000001     A    8644  7088
 =A(16)        4 00001968 00000001     A   13677  9681   9795  10023
 =A(2)         4 000019E0 00000001     A   13707 13573
 =A(3)         4 000019DC 00000001     A   13706 13548
 =A(4)         4 00000788 00000001     A    6781  5455   5546
 =A(4)         4 0000196C 00000001     A   13678  9778
 =A(6000)      4 00000754 00000001     A    6768  4743   5264
 =A(6000)      4 00000BD4 00000001     A    8642  7038
 =A(8)         4 00000BEC 00000001     A    8648  7329
 =A(8)         4 0000197C 00000001     A   13682 10006
 =A(8192)      4 0000075C 00000001     A    6770  4785   5139
 =A(8192)      4 00000BCC 00000001     A    8640  6919
 =C'upcb'      4 000019AC 00000001     C   13694 11355
 =C'UPCB'      4 00000744 00000001     C    6764  4235
 =C'UPCB'      4 000019A4 00000001     C   13692 10970
 =CL4'PINF'
               4 000019B8 00000001     C   13697 11921
 =CL8' '       8 00001920 00000001     C   13660 12003
 =FE6'1'       4 00000758 00000001     F    6769  4756   5277
 =FE6'1'       4 00000BD8 00000001     F    8643  7051
 =H'-1'        2 000019E6 00000001     H   13709 12011
 =V(ACAINFO)
               4 000019BC 00000001     V   13698 12001
 =V(ASLOCK)
               4 00000C24 00000001     V    8662  8543
 =V(ASLOCK)
               4 00001994 00000001     V   13688 10542
 =V(ASULOCK)
               4 00000C28 00000001     V    8663  8596
 =V(ASULOCK)
               4 00001998 00000001     V   13689 10561  10782
 =V(AWAIT)
               4 00001964 00000001     V   13676  9503
 =V(EXRADD)
               4 00001930 00000001     V   13663  8790   8836
1PATH     (PATH00) (09:43) (22MAR04) Ordinary Symbol and Literal Cross Reference                                            Page  109
 =V(EXRDONE)
               4 000019D0 00000001     V   13703 12976  13160
 =V(IOSDOIO)
               4 000007A8 00000001     V    6789  6115
 =V(IOSDOIO)
               4 00000C04 00000001     V    8654  7745   8453
 =V(IOSDOIO)
               4 0000194C 00000001     V   13670  9157  10721
 =V(IOSIDFRE)
               4 000007B0 00000001     V    6791  6225
 =V(IOSIDFRE)
               4 00000C0C 00000001     V    8656  7855   8536
 =V(IOSIDFRE)
               4 00001958 00000001     V   13673  9355  11384
 =V(IOSIDGET)
               4 000007A4 00000001     V    6788  6012
 =V(IOSIDGET)
               4 00000C00 00000001     V    8653  7642   8350
 =V(IOSIDGET)
               4 0000193C 00000001     V   13666  8927  11259
 =V(PAGFIX)
               4 0000079C 00000001     V    6786  5935   6067
 =V(PAGFIX)
               4 00000BF8 00000001     V    8651  7565   7697   8405
 =V(PAGFIX)
               4 00001948 00000001     V   13669  9055   9105  10677
 =V(PAGTPROT)
               4 000019D8 00000001     V   13705 13518
 =V(PAGUFIX)
               4 000007AC 00000001     V    6790  6173   6199
 =V(PAGUFIX)
               4 00000C08 00000001     V    8655  7803   7829   8510
 =V(PAGUFIX)
               4 00001950 00000001     V   13671  9250   9300  10778
 =V(RTCAN)
               4 000019C8 00000001     V   13701 12688
 =V(RTSET)
               4 000019C4 00000001     V   13700 12506
 =V(SIGNAL)
               4 00000780 00000001     V    6779  5372
 =V(SIGNAL)
               4 00000BE0 00000001     V    8645  7154   7318   8151   8592
 =V(SIGNAL)
               4 000019CC 00000001     V   13702 12972  13156
 =V(TCREATE)
               4 0000076C 00000001     V    6774  4871
 =V(TEXIT)
               4 00001990 00000001     V   13687 10433
 =V(VMFREE)
               4 000007B8 00000001     V    6793  6303   6403   6703
 =V(VMFREE)
               4 000019B0 00000001     V   13695 11440  11521  11703  12169
 =V(VMGET)
               4 00000794 00000001     V    6784  5797
 =V(VMGET)
               4 000019A0 00000001     V   13691 10908  11019  11105  11855
 =V(XITDEL)
               4 000019B4 00000001     V   13696 11584  11600  11616  11632
 =V(XITDO)
1PATH     (PATH00) (09:43) (22MAR04) Ordinary Symbol and Literal Cross Reference                                            Page  110
               4 000019C0 00000001     V   13699 12305  12916
 =V(XITMASK)
               4 00001938 00000001     V   13665  8893
 =V(XITNEW)
               4 000019A8 00000001     V   13693 11176  11192  11208  11224
 =X'00FFFFFF'
               4 0000077C 00000001     X    6778  5108
 =X'070C0000'
               4 00000760 00000001     X    6771  4859
 =X'070C0000'
               4 00001928 00000001     X   13661  8757   8806
 =X'7FFFF000'
               4 000019D4 00000001     X   13704 13370
 =X'80000000'
               4 0000074C 00000001     X    6766  4563   4564   4565   5061   5062   5063
 =X'80000000'
               4 00000BC8 00000001     X    8639  6866   6867   6868
 =Y(27*256+0)
               2 000007C0 00000001     Y    6795  5794   6300   6400   6700
 =Y(27*256+0)
               2 000019E4 00000001     Y   13708 10905  11010  11102  11437  11518  11700  11852  12166
 =Y(4096)      2 000019E8 00000001     Y   13710 13369
 =8X'FF'       1 00000738 00000001     X    6762  4679

1PATH     (PATH00) (09:43) (22MAR04) Macro and Copy Code Source Summary                                                     Page  111
- Con Source                                        Volume    Members                        HLASM R4.0  2004/03/22 09.43
0     PRIMARY INPUT                                           ADDSG    CSECT    DROP     END      EX       FIX
                                                              LTORG    POP      PRINT    PUSH     START    UNFIX
                                                              USING    VALBUF
   L2 WYL.GG.ORV.MACLIB                             SYSB02    $LKPARM  ABORT    ACALL    ACCTPARM ASB      AWAIT
                                                              DISPPARM HEADER   IORPARM  IOSPARM  LOCKPARM MAT
                                                              MODULE   PAGEPARM PEND     PMOV     PROC     PSET
                                                              PZERO    REG      SCOMPARM SIGNL    SIGPARM  SPLEVEL
                                                              SYSCTL   TIMEPARM UPTHPARM VCALL    VMFREE   VMGET
                                                              VMPARM   XITPARM  XTRC     XTRCDATA
   L3 WYL.GG.SYS.MACLIB                             SYSB05    $BC      $BFLKUP  $BV      $CCLKUP  $CRS     $CSS     $L
                                                              $LA      $LBLAD   $LEXP    $LOR     $REL     $RGLKUP
                                                              $USLKUP  AUSING   BEGIN    CEIL     CLEAR    CSECT    DATA
                                                              DEFCC    DIAG     DROP     ELSE     END      EX       EXIT
                                                              FLAG     GEN      HIBAL    IDENT    IF       LABEL    LC
                                                              LT       LTORG    POP      PRINT    PUSH     RECORD   REGS
                                                              SET      START    STF      USING    WHILE    WITH
   L4 SYS3.MACLIB                                   SYSB02    PINFO

1         (PATH00) (09:43) (22MAR04) General Purpose Register Cross Reference                                               Page  112
- Register  References (M=modified, B=branch, U=USING, D=DROP, N=index)                      HLASM R4.0  2004/03/22 09.43
0    0(0)      991U   992D  1337U  4145   4202   4517   4630M  4635   4644D  4646M  4646   4647M  4653   4669M  4669
              4934M  4934   4960M  5015   5196D  5198M  5198   5199M  5205   5227M  5227   5364M  5369   5377M  5377
              5617M  5617   5620M  5674   5807M  5807   5835   6014   6059M  6064   6117   6165M  6170   6507   6820
              6976D  6978M  6978   6979M  6985   7001M  7001   7146M  7151   7159M  7159   7208M  7208   7235M  7235
              7310M  7315   7323M  7323   7366M  7366   7369M  7423   7644   7689M  7694   7747   7795M  7800   7880M
              7880   7906M  7932M  7958M  8046   8143M  8148   8160M  8160   8211   8352   8397M  8402   8502M  8507
              8584M  8589   8601M  8601   8690   8929   9000   9047M  9052   9080M  9085   9097M  9102   9167M  9167
              9242M  9247   9275M  9280   9292M  9297   9489M  9494  10133M 10133  10150M 10150  10176M 10176  10490
             10669M 10674  10770M 10775  10841  10899M 10904  10918M 10918  10946  11004M 11009  11029M 11029  11057
             11096M 11101  11115M 11115  11143  11178  11194  11210  11226  11261  11262M 11309  11426M 11431  11450M
             11450  11507M 11512  11531M 11531  11683M 11688  11713M 11713  11791  11846M 11851  11864  11934D 11997D
             12012M 12060  12150M 12155  12222  12315M 12315  12354D 12410  12516M 12516  12555D 12561  12618  12749
             12964M 12969  13029  13148M 13153  13236  13358D 13450  13528M 13528  13548  13554M 13573  13579M 13603M
             13623M 13623
     1(1)      987U  4145   4390D  4392M  4392   4393M  4394U  4405M  4405   4419   4452N  4476M  4517   4798M  4802
              4984M  5015   5641M  5674   6472M  6507   6600M  6601   6603   6620M  6621   6622M  6623M  6623   6624
              6749M  6820   7390M  7423   8015M  8046   8180M  8211   8626M  8690   9001M  9002  10459M 10490  10808M
             10841  11277M 11309  11760M 11791  11895M 11896  11927M 11945U 11955U 12029M 12060  12093M 12103U 12177U
             12190M 12222  12379M 12410  12587M 12618  12717M 12749  12784M 12794U 12832U 12997M 13029  13064M 13074U
             13087U 13181M 13236  13313M 13364  13368M 13369M 13370M 13371M 13375  13377M 13378  13382  13383  13393M
             13394  13400M 13401M 13402  13422M 13450  13513M 13514  13642M
     2(2)      983U  4145   4476M  4517   4589M  4618   4755M  4755   4756M  4757M  4758   4760M  4771M  4771   4785
              4794   4984M  5015   5069M  5070M  5070   5082M  5082   5108M  5113   5177   5276M  5276   5277M  5278M
              5279   5641M  5674   6472M  6507   6597M  6628M  6749M  6820   6892M  6893   6957   7050M  7050   7051M
              7052M  7053   7390M  7423   8015M  8046   8180M  8211   8626M  8690  10459M 10490  10808M 10841  11057M
             11065  11143M 11151  11277M 11309  11760M 11791  11900M 11910U 12021U 12029M 12060  12190M 12222  12379M
             12410  12587M 12618  12717M 12749  12807M 12810  12851  12997M 13029  13181M 13236  13288M 13368  13371
             13382M 13422M 13450  13642M
     3(3)      979U  4145   4476M  4517   4718M  4729M  4729   4743   4756M  4757M  4758   4984M  5015   5114M  5125M
              5125   5139   5148   5187   5239M  5250M  5250   5264   5277M  5278M  5279   5641M  5674   6117M  6241
              6247M  6256M  6256   6338   6366   6472M  6507   6598M  6607   6609M  6613   6615   6628M  6749M  6820
              6894M  6905M  6905   6919   6928   6967   7013M  7024M  7024   7038   7051M  7052M  7053   7390M  7423
              7747M  7871   7900   7926   7952   8015M  8046   8180M  8211   8626M  8690   9000M  9323  10459M 10490
             10808M 10841  11277M 11309  11760M 11791  11864M 12012  12029M 12060  12092M 12165  12190M 12222  12379M
             12410  12587M 12618  12717M 12749  12997M 13029  13181M 13236  13289M 13304M 13304  13375  13377  13383M
             13422M 13450  13486D 13488M 13488  13489M 13490U 13642M
     4(4)      975U  4145   4476M  4517   4984M  5015   5641M  5674   6472M  6507   6599M  6601M  6628M  6749M  6820
              7390M  7423   8015M  8046   8180M  8211   8626M  8690  10459M 10490  10808M 10841  11277M 11309  11760M
             11791  12029M 12060  12190M 12222  12379M 12410  12587M 12618  12717M 12749  12997M 13029  13181M 13236
             13285M 13286M 13287M 13287N 13384M 13394M 13395M 13396  13422M 13450  13482M 13642M
     5(5)      971U  4145   4476M  4517   4984M  5015   5641M  5674   6014M  6095   6222   6472M  6507   6602M  6603M
              6607   6609   6613   6615M  6619   6620   6628M  6749M  6820   7390M  7423   7644M  7725   7852   8015M
              8046   8180M  8211   8352M  8433   8533   8626M  8690   8929M  9148   9352  10459M 10490  10679M 10706
             10808M 10841  11277M 11309  11760M 11791  12029M 12060  12190M 12222  12379M 12410  12587M 12618  12717M
             12749  12997M 13029  13181M 13236  13422M 13450  13483M 13642M
     6(6)      967U  4145   4202M  4203   4220M  4272U  4387   4463U  4476M  4517   4549M  4559U  4862   4915   4952
              4971U  4984M  5015   5047M  5057U  5489   5576   5606   5628U  5641M  5674   5706M  5716U  6459U  6472M
              6507   6539M  6549U  6736U  6749M  6820   6852M  6862U  7189   7355   7377U  7390M  7423   7455M  7465U
              8002U  8015M  8046   8078M  8088U  8167U  8180M  8211   8243M  8253U  8613U  8626M  8690   8722M  8732U
              8759   8808   9411   9437   9628   9865   9928  10116  10212  10245  10268  10344  10404  10423  10446U
             10459M 10490  10522M 10532U 10795U 10808M 10841  10946M 10956U 11269U 11277M 11309  11341M 11351U 11699
             11747U 11760M 11791  12029M 12060  12190M 12222  12254M 12264U 12366U 12379M 12410  12442M 12452U 12574U
             12587M 12618  12650M 12660U 12704U 12717M 12749  12806M 12843U 12984U 12997M 13029  13080M 13098U 13168U
             13181M 13236  13268M 13278U 13409U 13422M 13450  13642M
     7(7)      963U  4145   4476M  4517   4984M  5015   5641M  5674   5846M  5856U  5876U  5879U  5896U  5899U  5972
1         (PATH00) (09:43) (22MAR04) General Purpose Register Cross Reference                                               Page  113
              6047   6106   6153   6454U  6472M  6507   6749M  6820   7390M  7423   7479M  7489U  7509U  7512U  7529U
              7532U  7602   7677   7736   7783   7997U  8015M  8046   8180M  8211   8266M  8276U  8296U  8299U  8316U
              8319U  8385   8444   8490   8608U  8626M  8690   8933M  8943U  8964U  8967U  8984U  8987U  9035   9142
              9230   9363U 10459M 10490  10573M 10583U 10603U 10606U 10623U 10626U 10657  10717  10758  10790U 10808M
             10841  11277M 11309  11760M 11791  12029M 12060  12190M 12222  12379M 12410  12587M 12618  12717M 12749
             12997M 13029  13181M 13236  13422M 13450  13642M
     8(8)      959U  4145   4476M  4517   4984M  5015   5641M  5674   6472M  6507   6749M  6820   7390M  7423   8015M
              8046   8180M  8211   8626M  8690  10459M 10490  10808M 10841  11277M 11309  11760M 11791  12029M 12060
             12190M 12222  12379M 12410  12587M 12618  12717M 12749  12997M 13029  13181M 13236  13422M 13450  13642M
     9(9)      955U  4145   4476M  4517   4984M  5015   5641M  5674   6472M  6507   6749M  6820   7390M  7423   8015M
              8046   8180M  8211   8626M  8690  10459M 10490  10808M 10841  11277M 11309  11760M 11791  12029M 12060
             12190M 12222  12379M 12410  12587M 12618  12717M 12749  12997M 13029  13181M 13236  13422M 13450  13642M
    10(A)      951U  4145   4146M  4156U  4473U  4476M  4517   4518M  4528U  4981U  4984M  5015   5016M  5026U  5638U
              5641M  5674   5675M  5685U  6469U  6472M  6507   6508M  6518U  6746U  6749M  6820   6821M  6831U  7387U
              7390M  7423   7424M  7434U  8012U  8015M  8046   8047M  8057U  8177U  8180M  8211   8212M  8222U  8623U
              8626M  8690   8691M  8701U 10456U 10459M 10490  10491M 10501U 10805U 10808M 10841  10842M 10852U 11274U
             11277M 11309  11310M 11320U 11757U 11760M 11791  11792M 11802U 12026U 12029M 12060  12061M 12071U 12187U
             12190M 12222  12223M 12233U 12376U 12379M 12410  12411M 12421U 12584U 12587M 12618  12619M 12629U 12714U
             12717M 12749  12750M 12760U 12994U 12997M 13029  13030M 13040U 13178U 13181M 13236  13237M 13247U 13419U
             13422M 13450  13451M 13461U 13639U 13642M
    11(B)      947U  4145   4476M  4517   4984M  5015   5641M  5674   6472M  6507   6749M  6820   7390M  7423   8015M
              8046   8180M  8211   8626M  8690  10459M 10490  10808M 10841  11277M 11309  11760M 11791  12029M 12060
             12190M 12222  12379M 12410  12587M 12618  12717M 12749  12997M 13029  13181M 13236  13422M 13450  13642M
    12(C)      943U  4145   4160   4161M  4162   4172U  4176   4468U  4476M  4476   4477   4517   4532   4533M  4534
              4544U  4548   4976U  4984M  4984   4985   5015   5030   5031M  5032   5042U  5046   5633U  5641M  5641
              5642   5674   5689   5690M  5691   5701U  5705   6464U  6472M  6472   6473   6507   6522   6523M  6524
              6534U  6538   6741U  6749M  6749   6750   6820   6835   6836M  6837   6847U  6851   7382U  7390M  7390
              7391   7423   7438   7439M  7440   7450U  7454   8007U  8015M  8015   8016   8046   8061   8062M  8063
              8073U  8077   8172U  8180M  8180   8181   8211   8226   8227M  8228   8238U  8242   8618U  8626M  8626
              8627   8690   8705   8706M  8707   8717U  8721  10451U 10459M 10459  10460  10490  10505  10506M 10507
             10517U 10521  10800U 10808M 10808  10809  10841  10856  10857M 10858  10859  11277M 11277  11278  11309
             11324  11325M 11326  11336U 11340  11752U 11760M 11760  11761  11791  11806  11807M 11808  11809  12029M
             12029  12030  12060  12075  12076M 12077  12087U 12091  12182U 12190M 12190  12191  12222  12237  12238M
             12239  12249U 12253  12371U 12379M 12379  12380  12410  12425  12426M 12427  12437U 12441  12579U 12587M
             12587  12588  12618  12633  12634M 12635  12645U 12649  12709U 12717M 12717  12718  12749  12764  12765M
             12766  12776U 12780  12989U 12997M 12997  12998  13029  13044  13045M 13046  13056U 13060  13173U 13181M
             13181  13182  13236  13251  13252M 13253  13263U 13267  13414U 13422M 13422  13423  13450  13465  13466M
             13467  13477U 13481  13634U 13642M 13642  13643
    13(D)      939U  4145   4145   4160   4161   4176M  4352U  4476M  4484U  4517   4517   4532   4533   4548M  4600U
              4847U  4850U  4903U  4906U  4984M  4992U  5015   5015   5030   5031   5046M  5159U  5341U  5344U  5477U
              5480U  5641M  5649U  5674   5674   5689   5690   5705M  5780U  5911U  5914U  5947U  5950U  5992U  5995U
              6025U  6028U  6081U  6084U  6131U  6134U  6210U  6213U  6278U  6281U  6472M  6480U  6507   6507   6522
              6523   6538M  6681U  6749M  6757U  6820   6820   6835   6836   6851M  6939U  7123U  7126U  7177U  7180U
              7287U  7290U  7343U  7346U  7390M  7398U  7423   7423   7438   7439   7454M  7544U  7577U  7580U  7622U
              7625U  7655U  7658U  7711U  7714U  7761U  7764U  7840U  7843U  8015M  8023U  8046   8046   8061   8062
              8077M  8123U  8180M  8188U  8211   8211   8226   8227   8242M  8333U  8363U  8366U  8419U  8422U  8468U
              8471U  8521U  8524U  8561U  8564U  8626M  8634U  8690   8690   8705   8706   8721M  8748U  8851U  8854U
              8907U  8910U  9013U  9016U  9119U  9122U  9208U  9211U  9311U  9314U  9340U  9343U  9399U  9402U  9466U
              9469U  9616U  9619U 10459M 10467U 10490  10490  10505  10506  10521M 10638U 10692U 10695U 10736U 10739U
             10808M 10816U 10841  10841  10856  10857  10859M 10879U 11162U 11165U 11239U 11242U 11277M 11285U 11309
             11309  11324  11325  11340M 11368U 11403U 11406U 11569U 11572U 11660U 11663U 11760M 11768U 11791  11791
             11806  11807  11809M 11826U 11969U 11972U 12029M 12037U 12060  12060  12075  12076  12091M 12130U 12190M
             12198U 12222  12222  12237  12238  12253M 12280U 12379M 12387U 12410  12410  12425  12426  12441M 12487U
             12587M 12595U 12618  12618  12633  12634  12649M 12676U 12717M 12725U 12749  12749  12764  12765  12780M
             12894U 12941U 12944U 12997M 13005U 13029  13029  13044  13045  13060M 13128U 13181M 13189U 13236  13236
             13251  13252  13267M 13422M 13450  13450  13465  13466  13481M 13503U 13642M 13650U
    14(E)      935U  4145   4201M  4453M  4476M  4478B  4517   4660M  4872M  4922M  4959M  4984M  4986B  5015   5218M
              5373M  5496M  5583M  5613M  5641M  5643B  5674   5798M  5936M  5979M  6013M  6068M  6116M  6174M  6200M
              6226M  6304M  6404M  6472M  6474B  6507   6704M  6749M  6751B  6820   6992M  7155M  7196M  7319M  7362M
1         (PATH00) (09:43) (22MAR04) General Purpose Register Cross Reference                                               Page  114
              7390M  7392B  7423   7566M  7609M  7643M  7698M  7746M  7804M  7830M  7856M  8015M  8017B  8046   8152M
              8180M  8182B  8211   8351M  8406M  8454M  8511M  8537M  8544M  8593M  8597M  8626M  8628B  8690   8791M
              8837M  8894M  8928M  8999M  9056M  9106M  9158M  9251M  9301M  9330M  9356M  9418M  9444M  9504M  9635M
              9872M  9935M 10123M 10252M 10275M 10351M 10411M 10430M 10434M 10459M 10461B 10490  10543M 10562M 10678M
             10722M 10779M 10783M 10808M 10810B 10841  10909M 11020M 11106M 11177M 11193M 11209M 11225M 11260M 11277M
             11279B 11309  11385M 11441M 11522M 11585M 11601M 11617M 11633M 11704M 11760M 11762B 11791  11856M 12002M
             12029M 12031B 12060  12170M 12190M 12192B 12222  12306M 12379M 12381B 12410  12507M 12587M 12589B 12618
             12689M 12717M 12719B 12749  12917M 12973M 12977M 12997M 12999B 13029  13157M 13161M 13181M 13183B 13236
             13422M 13424B 13450  13519M 13642M 13644B
    15(F)      931U  4145   4146   4200M  4201B  4252   4253M  4254M  4255M  4256M  4256   4257M  4257   4436   4437M
              4438M  4439M  4440M  4440   4441M  4441   4452M  4453B  4476M  4517   4518   4659M  4660B  4871M  4872B
              4921M  4922B  4958M  4959B  4984M  5015   5016   5217M  5218B  5372M  5373B  5495M  5496B  5582M  5583B
              5612M  5613B  5641M  5674   5675   5750   5751M  5752M  5753M  5754M  5754   5755M  5755   5797M  5798B
              5824   5825M  5826M  5827M  5828M  5828   5829M  5829   5935M  5936B  5978M  5979B  6012M  6013B  6067M
              6068B  6115M  6116B  6173M  6174B  6199M  6200B  6225M  6226B  6303M  6304B  6403M  6404B  6437   6438M
              6439M  6440M  6441M  6441   6442M  6442   6472M  6507   6508   6583   6584M  6585M  6586M  6587M  6587
              6588M  6588   6703M  6704B  6749M  6820   6821   6991M  6992B  7154M  7155B  7195M  7196B  7318M  7319B
              7361M  7362B  7390M  7423   7424   7565M  7566B  7608M  7609B  7642M  7643B  7697M  7698B  7745M  7746B
              7803M  7804B  7829M  7830B  7855M  7856B  7984   7985M  7986M  7987M  7988M  7988   7989M  7989   8015M
              8046   8047   8151M  8152B  8180M  8211   8212   8350M  8351B  8405M  8406B  8453M  8454B  8510M  8511B
              8536M  8537B  8543M  8544B  8592M  8593B  8596M  8597B  8626M  8690   8691   8790M  8791B  8836M  8837B
              8893M  8894B  8927M  8928B  8998M  8999B  9055M  9056B  9105M  9106B  9157M  9158B  9184   9185M  9186M
              9187M  9188M  9188   9189M  9189   9250M  9251B  9300M  9301B  9329M  9330B  9355M  9356B  9417M  9418B
              9443M  9444B  9503M  9504B  9634M  9635B  9871M  9872B  9934M  9935B 10122M 10123B 10251M 10252B 10274M
             10275B 10350M 10351B 10410M 10411B 10429M 10430B 10433M 10434B 10459M 10490  10491  10542M 10543B 10561M
             10562B 10677M 10678B 10721M 10722B 10778M 10779B 10782M 10783B 10808M 10841  10842  10908M 10909B 10935
             10936M 10937M 10938M 10939M 10939  10940M 10940  11019M 11020B 11046  11047M 11048M 11049M 11050M 11050
             11051M 11051  11105M 11106B 11132  11133M 11134M 11135M 11136M 11136  11137M 11137  11176M 11177B 11192M
             11193B 11208M 11209B 11224M 11225B 11259M 11260B 11277M 11309  11310  11384M 11385B 11440M 11441B 11467
             11468M 11469M 11470M 11471M 11471  11472M 11472  11521M 11522B 11548  11549M 11550M 11551M 11552M 11552
             11553M 11553  11584M 11585B 11600M 11601B 11616M 11617B 11632M 11633B 11703M 11704B 11730  11731M 11732M
             11733M 11734M 11734  11735M 11735  11760M 11791  11792  11855M 11856B 11881  11882M 11883M 11884M 11885M
             11885  11886M 11886  12001M 12002B 12029M 12060  12061  12169M 12170B 12190M 12222  12223  12305M 12306B
             12341  12342M 12343M 12344M 12345M 12345  12346M 12346  12379M 12410  12411  12506M 12507B 12542  12543M
             12544M 12545M 12546M 12546  12547M 12547  12587M 12618  12619  12688M 12689B 12717M 12749  12750  12916M
             12917B 12972M 12973B 12976M 12977B 12997M 13029  13030  13156M 13157B 13160M 13161B 13181M 13236  13237
             13345  13346M 13347M 13348M 13349M 13349  13350M 13350  13422M 13450  13451  13518M 13519B 13642M

1PATH     (PATH00) (09:43) (22MAR04) Diagnostic Cross Reference and Assembler Summary                                       Page  115
-                                                                                            HLASM R4.0  2004/03/22 09.43
0     No Statements Flagged in this Assembly
 HIGH LEVEL ASSEMBLER, 5696-234, RELEASE 4.0, PTF UQ57391
0SYSTEM: OS/390 02.10.00            JOBNAME: PJG#PATH    STEPNAME: ASM        PROCSTEP: (NOPROC)
0Datasets Allocated for this Assembly
  Con DDname   Dataset Name                                 Volume  Member
   P1 SYSIN    SYS04082.T094338.RA000.PJG#PATH.INPUT.H01    SCR101
   L1 SYSLIB   SYS3.DUMMYMAC                                SYSB02
   L2          WYL.GG.ORV.MACLIB                            SYSB02
   L3          WYL.GG.SYS.MACLIB                            SYSB05
   L4          SYS3.MACLIB                                  SYSB02
      SYSLIN   WYL.GG.PJG.OBJ                               SYSB05  PATH
      SYSPRINT SYS04082.T094338.RA000.PJG#PATH.PRINT.H01    SCR101
      SYSTERM  GG$PJG.PJG#PATH.JOB05958.D0000103.?

    7812K allocated to Buffer Pool,         1805K would be required for this to be an In-Storage Assembly
    1612 Primary Input Records Read         5284 Library Records Read                  0 Work File Reads
       0 ASMAOPT Records Read               8350 Primary Print Records Written         0 Work File Writes
     161 Punch Records Written                 0 ADATA Records Written
0Assembly Start Time: 09.43.40 Stop Time: 09.43.43 Processor Time: 00.00.02.6388
 Return Code 000
