1                        J E S 2  J O B  L O G  --  S Y S T E M  S Y S B  --  N O D E  R L G
0
 09.49.58 JOB06010 ---- MONDAY,    22 MAR 2004 ----
 09.49.58 JOB06010  ICH70001I GG$PJG   LAST ACCESS AT 09:49:48 ON MONDAY, MARCH 22, 2004
 09.49.58 JOB06010  $HASP373 PJG#VSTC STARTED - INIT 3    - CLASS E - SYS SYSB
 09.49.58 JOB06010  ***  HCMD      STEP $$QUIET
 09.49.58 JOB06010  PURGE * Q=OUTPUT MULTIPLE
 09.49.58 JOB06010  JOB PJG#VSTC NOT IN OUTPUT QUEUE
 09.49.59 JOB06010  PJG#VSTC.$$QUIET .         RC=0008 TapeIO=0000 DiskIO=0000 CPU=  .01s Elapsed=98.62s
 09.49.59 JOB06010  PJG#VSTC.$CND    .         RC=Zero TapeIO=0000 DiskIO=0002 CPU=  .01s Elapsed=99.69s
 09.50.00 JOB06010  PJG#VSTC.$UNP    .         RC=Zero TapeIO=0000 DiskIO=0012 CPU=  .05s Elapsed=99.86s
 09.50.05 JOB06010  PJG#VSTC.ASM     .         RC=Zero TapeIO=0000 DiskIO=0293 CPU= 1.05s Elapsed=00.14s
 09.50.06 JOB06010  PJG#VSTC.$EDIT   .         RC=Zero TapeIO=0000 DiskIO=0062 CPU=  .26s Elapsed=05.95s
 09.50.06 JOB06010  PJG#VSTC Ended.  Name=Module: VSTC                   Total CPU= 1.38s Elapsed=98.62s
 09.50.06 JOB06010
 09.50.06 JOB06010  Execution charges   Priority=Standard   Block=Day
 09.50.06 JOB06010
 09.50.06 JOB06010  CPU Usage          24.93          $15.45   Standard Processing Unit Equivalent
 09.50.06 JOB06010                                   =======
 09.50.06 JOB06010                                    $15.45   Total Job execution charge
 09.50.06 JOB06010
 09.50.06 JOB06010  See back separator page for print charges
 09.50.06 JOB06010
 09.50.06 JOB06010  $HASP395 PJG#VSTC ENDED  ASM=0
1        1 //PJG#VSTC JOB PJG$GG,'Module: VSTC',TIME=1,MSGCLASS=C                  JOB06010
           /*JOBPARM HOLD=OUTPUT,LINES=50,CHARS=TN15,NOTIFY=YES
         2 //       EXEC PURGEOLD
         3 XXPURGEOLD PROC
           XX*
           XX* This proc is maintained by Jim Stosick
           XX*
         4 XX$$QUIET  EXEC PGM=HCMDX,PARM='PURGE * Q=OUTPUT MULTIPLE',
           XX         ACCT=(PURGEOLD,SYS3)
         5 //$CND   EXEC PGM=BILBO,REGION=512K,PARM='RECS=100'
         6 //STEPLIB  DD DSN=WYL.GG.ORV.LINKLIB,DISP=SHR
         7 //SYSPRINT DD SYSOUT=$
         8 //SYSUT1   DD DSN=WYL.GG.PJG.OBJ,DISP=OLD
         9 //SYSUT2   DD DSN=WYL.GG.PJG.OBJ,DISP=OLD
        10 //SYSIN    DD DUMMY
        11 //$UNP   EXEC PGM=WUNPRESS,PARM='NUM'
        12 //SYSPRINT DD SYSOUT=$
        13 //SYSUT1   DD DSN=WYL.GG.ORV.SOURCE(VSTC),DISP=SHR
        14 //SYSUT2   DD DSN=&&INPUT,DISP=(,PASS),UNIT=SYSDA,
           //            SPACE=(TRK,(25,25),RLSE),DCB=CARD
        15 //ASM    EXEC PGM=ASMA90,REGION=8M,COND=(0,NE,$UNP),
           //            PARM=('SYSPARM(VSTC),TERM,LANG(EN),OBJ',
           //          'LC(32500),XREF(SHORT),NODECK,NORLD,NODX,NOUS')
           //*STEPLIB  DD DSN=SYS1.SASMMOD1,DISP=SHR
        16 //SYSLIB   DD DSN=SYS3.DUMMYMAC,DISP=SHR,DCB=BLKSIZE=27920
        17 //         DD DSN=WYL.GG.SYS.MACLIB,DISP=SHR
        18 //         DD DSN=WYL.GG.ORV.BC.MACLIB,DISP=SHR
        19 //         DD DSN=WYL.GG.ORV.MACLIB,DISP=SHR
        20 //         DD DSN=SYS3.ORVYL.UMACLIB,DISP=SHR
        21 //         DD DSN=SYS3.IS.MACLIB,DISP=SHR
        22 //SYSUT1   DD DSN=&&SYSUT1,UNIT=VIO,DISP=(,DELETE),
           //            SPACE=(4088,(500,250),,CONTIG,ROUND)
        23 //SYSTERM  DD SYSOUT=$
        24 //SYSPRINT DD DSN=&&PRINT,UNIT=SYSDA,DISP=(,PASS),
           //            SPACE=(6650,(250,250),RLSE),
           //            DCB=(BLKSIZE=6650,LRECL=133,RECFM=FB)
        25 //SYSLIN   DD DSN=WYL.GG.PJG.OBJ(VSTC),DISP=OLD
        26 //SYSUDUMP DD SYSOUT=A
        27 //SYSIN    DD DSN=&&INPUT,DISP=(OLD,DELETE)
        28 //$EDIT  EXEC PGM=ASMEDIT,REGION=1M,
           //            COND=EVEN,PARM='STMT,DATA'
        29 //STEPLIB  DD DSN=WYL.GG.SYS.LINKLIB,DISP=SHR
        30 //ASMOUT   DD DSN=&&PRINT,DISP=(OLD,DELETE)
        31 //SYSPRINT DD SYSOUT=A
        32 //SYSUDUMP DD SYSOUT=A
1 STMT NO. MESSAGE
         2 IEFC001I PROCEDURE PURGEOLD WAS EXPANDED USING SYSTEM LIBRARY SYS3.BETAPROC
        14 IGD01010I STORCLAS= TEMP STORGROUP =
        14 IGD01010I STORGRP=VIO ASSIGNED.
        22 IGD01010I STORCLAS= TEMP STORGROUP =
        22 IGD01010I STORGRP=VIO ASSIGNED.
        24 IGD01010I STORCLAS= TEMP STORGROUP =
        24 IGD01010I STORGRP=VIO ASSIGNED.
 ICH70001I GG$PJG   LAST ACCESS AT 09:49:48 ON MONDAY, MARCH 22, 2004
 IEF142I PJG#VSTC $$QUIET - STEP WAS EXECUTED - COND CODE 0008
 *********************************************************************************
 *   PJG#VSTC/$$QUIET /                    Return Code      0008                 *
 *   Region used      260K (16K user + 244K system)                              *
 *   Extended region  9352K (4K user + 9348K system)                             *
 *                                                                               *
 *   Paging              In      Out                                             *
 *   Private <-> Aux      0        0       CPU time (TCB)   00:00:00.01          *
 *   Private <-> Exp      0        0       CPU time (SRB)   00:00:00.00          *
 *   VIO                  0        0       Elapsed time    920:37:54.34          *
 *   Common               0      ---                                             *
 *                                                                               *
 *                                                                               *
 *   CPU Usage          0.18         $0.11  Standard Processing Unit Equivalent  *
 *                                   $0.11  Total Step execution charge          *
 *                                                                               *
 *    I/O count  DDname   Type Addr           I/O count  DDname   Type Addr      *
 *                         *** No I/O for this step ***                          *
 *********************************************************************************
 IEF373I STEP/$$QUIET /START 2004082.0949
 IEF374I STEP/$$QUIET /STOP  2004082.0949 CPU    0MIN 00.01SEC SRB    0MIN 00.00SEC VIRT    16K SYS   244K EXT       4K SYS    9348K
 IEF236I ALLOC. FOR PJG#VSTC $CND
 IEF237I 0401 ALLOCATED TO STEPLIB
 IEF237I JES2 ALLOCATED TO SYSPRINT
 IEF237I 04DC ALLOCATED TO SYSUT1
 IEF237I 04DC ALLOCATED TO SYSUT2
 IEF237I DMY  ALLOCATED TO SYSIN
 IEF142I PJG#VSTC $CND - STEP WAS EXECUTED - COND CODE 0000
 IEF285I   WYL.GG.ORV.LINKLIB                           KEPT
 IEF285I   VOL SER NOS= SYSB01.
 IEF285I   GG$PJG.PJG#VSTC.JOB06010.D0000101.?          SYSOUT
 IEF285I   WYL.GG.PJG.OBJ                               KEPT
 IEF285I   VOL SER NOS= SYSB05.
 IEF285I   WYL.GG.PJG.OBJ                               KEPT
 IEF285I   VOL SER NOS= SYSB05.
 *********************************************************************************
 *   PJG#VSTC/$CND    /                    Return Code      Zero                 *
 *   Region used      280K (16K user + 264K system)                              *
 *   Extended region  9392K (4K user + 9388K system)                             *
 *                                                                               *
 *   Paging              In      Out                                             *
 *   Private <-> Aux      0        0       CPU time (TCB)   00:00:00.01          *
 *   Private <-> Exp      0        0       CPU time (SRB)   00:00:00.00          *
 *   VIO                  0        0       Elapsed time    920:37:53.27          *
 *   Common               0      ---                                             *
 *                                                                               *
 *                                                                               *
 *   CPU Usage          0.18         $0.11  Standard Processing Unit Equivalent  *
 *                                   $0.11  Total Step execution charge          *
 *                                                                               *
 *    I/O count  DDname   Type Addr           I/O count  DDname   Type Addr      *
 *            2  STEPLIB  Disk 0401                   0  SYSPRINT      ----      *
 *            0  SYSUT1   Disk 04DC                   0  SYSUT2   Disk 04DC      *
 *            0  SYSIN         ----                                              *
 *********************************************************************************
 IEF373I STEP/$CND    /START 2004082.0949
 IEF374I STEP/$CND    /STOP  2004082.0949 CPU    0MIN 00.01SEC SRB    0MIN 00.00SEC VIRT    16K SYS   264K EXT       4K SYS    9388K
 IEF236I ALLOC. FOR PJG#VSTC $UNP
 IEF237I JES2 ALLOCATED TO SYSPRINT
 IEF237I 0402 ALLOCATED TO SYSUT1
 IGD101I SMS ALLOCATED TO DDNAME (SYSUT2  )
         DSN (SYS04082.T094958.RA000.PJG#VSTC.INPUT.H01   )
         STORCLAS (TEMP) MGMTCLAS (        ) DATACLAS (        )
         VOL SER NOS= SCR100
 IEF142I PJG#VSTC $UNP - STEP WAS EXECUTED - COND CODE 0000
 IEF285I   GG$PJG.PJG#VSTC.JOB06010.D0000102.?          SYSOUT
 IEF285I   WYL.GG.ORV.SOURCE                            KEPT
 IEF285I   VOL SER NOS= SYSB02.
 IGD106I SYS04082.T094958.RA000.PJG#VSTC.INPUT.H01    PASSED,    DDNAME=SYSUT2
 *********************************************************************************
 *   PJG#VSTC/$UNP    /                    Return Code      Zero                 *
 *   Region used      388K (108K user + 280K system)                             *
 *   Extended region  9468K (4K user + 9464K system)                             *
 *                                                                               *
 *   Paging              In      Out                                             *
 *   Private <-> Aux      0        0       CPU time (TCB)   00:00:00.05          *
 *   Private <-> Exp      0        0       CPU time (SRB)   00:00:00.00          *
 *   VIO                  0        0       Elapsed time    920:37:53.10          *
 *   Common               0      ---                                             *
 *                                                                               *
 *                                                                               *
 *   CPU Usage          0.93         $0.57  Standard Processing Unit Equivalent  *
 *                                   $0.57  Total Step execution charge          *
 *                                                                               *
 *    I/O count  DDname   Type Addr           I/O count  DDname   Type Addr      *
 *            0  SYSPRINT      ----                   2  SYSUT1   Disk 0402      *
 *           10  SYSUT2   Disk 038B                                              *
 *********************************************************************************
 IEF373I STEP/$UNP    /START 2004082.0949
 IEF374I STEP/$UNP    /STOP  2004082.0950 CPU    0MIN 00.05SEC SRB    0MIN 00.00SEC VIRT   108K SYS   280K EXT       4K SYS    9464K
 IEF236I ALLOC. FOR PJG#VSTC ASM
 IEF237I 0402 ALLOCATED TO SYSLIB
 IEF237I 04DC ALLOCATED TO
 IEF237I 0402 ALLOCATED TO
 IEF237I 0402 ALLOCATED TO
 IEF237I 0402 ALLOCATED TO
 IEF237I 04DC ALLOCATED TO
 IGD101I SMS ALLOCATED TO DDNAME (SYSUT1  )
         DSN (SYS04082.T094958.RA000.PJG#VSTC.SYSUT1.H01  )
         STORCLAS (TEMP) MGMTCLAS (        ) DATACLAS (        )
         VOL SER NOS= VIO
 IEF237I JES2 ALLOCATED TO SYSTERM
 IGD101I SMS ALLOCATED TO DDNAME (SYSPRINT)
         DSN (SYS04082.T094958.RA000.PJG#VSTC.PRINT.H01   )
         STORCLAS (TEMP) MGMTCLAS (        ) DATACLAS (        )
         VOL SER NOS= SCR101
 IEF237I 04DC ALLOCATED TO SYSLIN
 IEF237I JES2 ALLOCATED TO SYSUDUMP
 IGD103I SMS ALLOCATED TO DDNAME SYSIN
 IEF142I PJG#VSTC ASM - STEP WAS EXECUTED - COND CODE 0000
 IEF285I   SYS3.DUMMYMAC                                KEPT
 IEF285I   VOL SER NOS= SYSB02.
 IEF285I   WYL.GG.SYS.MACLIB                            KEPT
 IEF285I   VOL SER NOS= SYSB05.
 IEF285I   WYL.GG.ORV.BC.MACLIB                         KEPT
 IEF285I   VOL SER NOS= SYSB02.
 IEF285I   WYL.GG.ORV.MACLIB                            KEPT
 IEF285I   VOL SER NOS= SYSB02.
 IEF285I   SYS3.ORVYL.UMACLIB                           KEPT
 IEF285I   VOL SER NOS= SYSB02.
 IEF285I   SYS3.IS.MACLIB                               KEPT
 IEF285I   VOL SER NOS= SYSB05.
 IGD105I SYS04082.T094958.RA000.PJG#VSTC.SYSUT1.H01   DELETED,   DDNAME=SYSUT1
 IEF285I   GG$PJG.PJG#VSTC.JOB06010.D0000103.?          SYSOUT
 IGD106I SYS04082.T094958.RA000.PJG#VSTC.PRINT.H01    PASSED,    DDNAME=SYSPRINT
 IEF285I   WYL.GG.PJG.OBJ                               KEPT
 IEF285I   VOL SER NOS= SYSB05.
 IEF285I   GG$PJG.PJG#VSTC.JOB06010.D0000104.?          SYSOUT
 IGD105I SYS04082.T094958.RA000.PJG#VSTC.INPUT.H01    DELETED,   DDNAME=SYSIN
 *********************************************************************************
 *   PJG#VSTC/ASM     /                    Return Code      Zero                 *
 *   Region used      8484K (8192K user + 292K system)                           *
 *   Extended region  9952K (412K user + 9540K system)                           *
 *                                                                               *
 *   Paging              In      Out                                             *
 *   Private <-> Aux      0        0       CPU time (TCB)   00:00:01.01          *
 *   Private <-> Exp      0        0       CPU time (SRB)   00:00:00.04          *
 *   VIO                  0        0       Elapsed time    920:37:52.82          *
 *   Common               0      ---                                             *
 *                                                                               *
 *                                                                               *
 *   CPU Usage         18.93        $11.73  Standard Processing Unit Equivalent  *
 *                                  $11.73  Total Step execution charge          *
 *                                                                               *
 *    I/O count  DDname   Type Addr           I/O count  DDname   Type Addr      *
 *           87  SYSLIB   Disk 0402                 133  SYSLIB   Disk 04DC      *
 *            0  SYSLIB   Disk 0402                   0  SYSLIB   Disk 0402      *
 *            0  SYSLIB   Disk 0402                   0  SYSLIB   Disk 04DC      *
 *            0  SYSUT1   VIO  ----                   0  SYSTERM       ----      *
 *           59  SYSPRINT Disk 04E3                   3  SYSLIN   Disk 04DC      *
 *            0  SYSUDUMP      ----                  11  SYSIN    Disk 038B      *
 *********************************************************************************
 IEF373I STEP/ASM     /START 2004082.0950
 IEF374I STEP/ASM     /STOP  2004082.0950 CPU    0MIN 01.01SEC SRB    0MIN 00.04SEC VIRT  8192K SYS   292K EXT     412K SYS    9540K
 IEF236I ALLOC. FOR PJG#VSTC $EDIT
 IEF237I 0402 ALLOCATED TO STEPLIB
 IGD103I SMS ALLOCATED TO DDNAME ASMOUT
 IEF237I JES2 ALLOCATED TO SYSPRINT
 IEF237I JES2 ALLOCATED TO SYSUDUMP
 IEF142I PJG#VSTC $EDIT - STEP WAS EXECUTED - COND CODE 0000
 IEF285I   WYL.GG.SYS.LINKLIB                           KEPT
 IEF285I   VOL SER NOS= SYSB02.
 IGD105I SYS04082.T094958.RA000.PJG#VSTC.PRINT.H01    DELETED,   DDNAME=ASMOUT
 IEF285I   GG$PJG.PJG#VSTC.JOB06010.D0000105.?          SYSOUT
 IEF285I   GG$PJG.PJG#VSTC.JOB06010.D0000106.?          SYSOUT
 *********************************************************************************
 *   PJG#VSTC/$EDIT   /                    Return Code      Zero                 *
 *   Region used      388K (116K user + 272K system)                             *
 *   Extended region  9480K (4K user + 9476K system)                             *
 *                                                                               *
 *   Paging              In      Out                                             *
 *   Private <-> Aux      0        0       CPU time (TCB)   00:00:00.25          *
 *   Private <-> Exp      0        0       CPU time (SRB)   00:00:00.01          *
 *   VIO                  0        0       Elapsed time    920:37:47.01          *
 *   Common               0      ---                                             *
 *                                                                               *
 *                                                                               *
 *   CPU Usage          4.68         $2.90  Standard Processing Unit Equivalent  *
 *                                   $2.90  Total Step execution charge          *
 *                                                                               *
 *    I/O count  DDname   Type Addr           I/O count  DDname   Type Addr      *
 *            2  STEPLIB  Disk 0402                  60  ASMOUT   Disk 04E3      *
 *            0  SYSPRINT      ----                   0  SYSUDUMP      ----      *
 *********************************************************************************
 IEF373I STEP/$EDIT   /START 2004082.0950
 IEF374I STEP/$EDIT   /STOP  2004082.0950 CPU    0MIN 00.25SEC SRB    0MIN 00.01SEC VIRT   116K SYS   272K EXT       4K SYS    9476K
 *********************************************************************************
 *                                                                               *
 *                      S t a n f o r d   U n i v e r s i t y                    *
 *                                                                               *
 *                              *** Job Summary ***                              *
 *                                                                               *
 *   System Id      SYSB                   Input time     09:38:43  Mar 22, 2004 *
 *                                                                               *
 *   System Release SP6.1.0                Start time     09:49:58  Mar 22, 2004 *
 *                                                                               *
 *   Job name       PJG#VSTC               Stop  time     00:00:00  Mar 22, 2004 *
 *                                                                               *
 *   Account        PJG$GG                 Elapsed time  920:37:54.34            *
 *                                                                               *
 *   User Name      Module: VSTC           CPU time       00:00:01.33            *
 *                                                                               *
 *   Job class      E                      SRB Time       00:00:00.05            *
 *                                                                               *
 *********************************************************************************
 IEF375I  JOB/PJG#VSTC/START 2004082.0949
 IEF376I  JOB/PJG#VSTC/STOP  2004082.0950 CPU    0MIN 01.33SEC SRB    0MIN 00.05SEC
1Data set successfully converted from EDIT to FB format
1Assembler Done VSTC No Statements Flagged
1         High Level Assembler Option Summary                   (PTF UQ57391)                                               Page    1
-                                                                                            HLASM R4.0  2004/03/22 09.50
0  No Overriding ASMAOPT Parameters
   Overriding Parameters-  SYSPARM(VSTC),TERM,LANG(EN),OBJ,LC(32500),XREF(SHORT),NODECK,NORLD,NODX,NOUS
   No Process Statements


   Options for this Assembly
0  NOADATA
     ALIGN
   NOASA
     BATCH
     CODEPAGE(047C)
   NOCOMPAT
   NODBCS
 3 NODECK
 3 NODXREF
     ESD
   NOEXIT
     FLAG(0,ALIGN,CONT,NOIMPLEN,NOPAGE0,PUSH,RECORD,NOSUBSTR,USING0)
   NOFOLD
   NOGOFF
   NOINFO
 3   LANGUAGE(EN)
   NOLIBMAC
 3   LINECOUNT(32500)
     LIST(121)
     MXREF(SOURCE)
 3   OBJECT
     OPTABLE(UNI,NOLIST)
   NOPCONTROL
   NOPESTOP
   NOPROFILE
   NORA2
   NORENT
 3 NORLD
     RXREF
     SIZE(MAX)
 3   SYSPARM(VSTC)
 3   TERM(WIDE)
   NOTEST
     THREAD
   NOTRANSLATE
 3 NOUSING
 3   XREF(SHORT)

   No Overriding DD Names

1VSTC     External Symbol Dictionary                                                                                        Page    2
-Symbol   Type   Id     Address  Length     LD ID  Flags Alias-of                            HLASM R4.0  2004/03/22 09.50
0VSTC      SD 00000001 00000000 00000F48             00
 VSTC00    LD          00000000           00000001
 SET       LD          00000016           00000001
 CLEAR     LD          00000992           00000001
 TYPEIT    ER 00000002
 VWRITE    ER 00000003
 SCAN      ER 00000004
 EVAL      ER 00000005
 READCORE  ER 00000006
 VERPATCH  ER 00000007
 RITECORE  ER 00000008
 BTD       ER 00000009
 VSEG      ER 0000000A
 SCINIT    ER 0000000B
 SCTELL    ER 0000000C
 EVHEX     ER 0000000D
 DTB       ER 0000000E
 PROGRAMS  ER 0000000F
 CLPSYSTM  ER 00000010
 CLPSYST2  ER 00000011
 FILES     ER 00000012
 PRIVTEST  ER 00000013
 CLEANTRP  ER 00000014

1VSTC     ORVYL'S SET AND CLEAR COMMANDS                                                                                    Page    3
0Loc    Object Code    Addr1 Addr2  Stmt Lv Lineno    Source Statement                    (Asmedit 3.3)  HLASM R4.0  2004/03/22 09.50
+___    ______ ____    _____ _____  ____ __ ______    ______ _________
0                                      2       2.     ********************************************************************
                                       3       3.     *                                                                  *
                                       4       4.     *       ORVYL/370  RELEASE III - CLASS I - STANFORD PROPRIETARY    *
                                       5       5.     *                                                                  *
                                       6       6.     ********************************************************************
-                                      8       8.              HIBAL ,
-                                    990      10.     * MODIFICATIONS
                                     991      11.     *
1VSTC     ORVYL'S SET AND CLEAR COMMANDS                                                                                    Page    4
0D-Loc  Object Code    Addr1 Addr2  Stmt Lv Lineno    Source Statement           (Hibal 5, Asmedit 3.3)  HLASM R4.0  2004/03/22 09.50
+_____  ______ ____    _____ _____  ____ __ ______    ______ _________
0000000                00000 00F48   993      13.     VSTC     CSECT ,
                                     997      14.              IDENT 00
                                    1000             +
                                    1001    01-IDENT +         ENTRY VSTC00
                                    1002             +
 000000 14E5E2E3C3F0F06B            1003    01-IDENT +VSTC00   DC    AL1(20),C'VSTC00,22MAR04,09:50'
                                    1004             +*
-                                   1007      16.              COPY  ORVDEFN
                                    1008             =         SYSDEFN  ,
                                    1009             =         GBLB  &PROTECT
                                    1010             =         GBLC  &MODULE
-
                                    1012      18.              REGS  ,,SR,TR,QR,RR,PR,BR,WAR,RAR,CLWR
1VSTC     (VSTC00) (09:50) (22MAR04) ORVYL'S SET AND CLEAR COMMANDS                                                         Page    5
0Loc    Object Code    Addr1 Addr2  Stmt Lv Lineno    Source Statement           (Hibal 5, Asmedit 3.3)  HLASM R4.0  2004/03/22 09.50
+___    ______ ____    _____ _____  ____ __ ______    ______ _________
0                                   1137      20.              MACRO
                                    1138      21.     &L       SYSONLY ,
                                    1139      22.     &L       VCALL PRIVTEST
                                    1140      23.              BNZR  BR
                                    1141      24.              MEND
                                    1142      25.
                                    1143      26.              MACRO
                                    1144      27.     &L       BTD   &LOC,&LEN,&WORD,&SW,&COMMAS=NO
                                    1145      28.              LCLC  &CM
                                    1146      29.              AIF   ('&COMMAS' NE 'YES').NOCM
                                    1147      30.     &CM      SETC  'C'
                                    1148      31.     .NOCM    ANOP
                                    1149      32.     &L       SYSLR 15,&WORD,OP=L
                                    1150      33.              SYSLR 0,&LEN,TYPE=&SW
                                    1151      34.              SYSLR 1,&LOC
                                    1152      35.              XCALL BTD&CM
                                    1153      36.              MEND
                                    1154      37.
                                    1155      38.              MACRO
                                    1156      39.     &L       PRVBLOCK ,
                                    1157      40.     &L       LCALL PRVPTEST
                                    1158      41.              MEND
1VSTC     (VSTC00) (09:50) (22MAR04) ORVYL'S SET AND CLEAR COMMANDS                                                         Page    6
0Loc    Object Code    Addr1 Addr2  Stmt Lv Lineno    Source Statement           (Hibal 5, Asmedit 3.3)  HLASM R4.0  2004/03/22 09.50
+___    ______ ____    _____ _____  ____ __ ______    ______ _________
0                                   1161      44.              COPY  SCP
                                    1162             =*******************************************************************
                                    1163             =*                                                                 *
                                    1164             =*    SCP  -  Mode 1 Session Control Page                          *
                                    1165             =*                                                                 *
                                    1166             =*******************************************************************
0000000                00000 00294  1168             =SCP      RECORD BEGIN
 000000                             1176  1          =SCPID      DS    CL4'SCP'
                                    1177  1          =
 000008                             1178  1          =SCPPSW     DS    D                       RESUME PSW
 000010                             1179  1          =SCPGPRS    DS    16F                     RESUME GPRS
 000050                             1180  1          =SCPFPRS    DS    4D                      RESUME FPRS
                                    1181  1          =
 000070                             1182  1          =SCPXPSW    DS    D                       EXIT PSW
 000078                             1183  1          =SCPXGPRS   DS    16F                     EXIT GPRS
                                    1184  1          =
 0000B8                             1185  1          =SCPSBPSW   DS    D                       SESSION BREAK PSW
 0000C0                             1186  1          =SCPSBGPR   DS    16F                     SESSION BREAK GPRS
                                    1187  1          =
 000100                             1188  1          =SCPCLPSW   DS    D                       CLP ERROR PSW
 000108                             1189  1          =SCPCLPGP   DS    16F                     CLP ERROR GPRS
                                    1190  1          =
 000148                             1191  1          =SCPSVPSW   DS    D                       SVC ERROR PSW
 000150                             1192  1          =SCPSVGPR   DS    16F                     SVC ERROR GPRS
                                    1193  1          =
 000190                             1194  1          =SCPCTL8    DS    A                       CONTROL REGISTER 8 (MON CALL)
 000194                             1195  1          =SCPCTL9    DS    3A                      CONTROL REGISTERS 9-11 (PER)
                                    1196  1          =
 0001A0                             1197  1          =SCPPXA     DS    A                       PAGING EXCEPTION ADDR
 0001A4                             1198  1          =SCPIPSW    DS    A                       INTERRUPT PSW
 0001A8                             1199  1          =SCPPAN     DS    H                       PANIC CODE
                                    1200  1          =SCPPANSY   EQU   SCPPAN+1,1,C'X'         FOR ONE BYTE PANIC CODE
                                    1201  1          =
                                    1202  1          =PANOPER    EQU   1,,C'N'                 OPERATION ERROR
                                    1203  1          =PANPROT    EQU   4,,C'N'                 PROTECTION ERROR
                                    1204  1          =PANADDR    EQU   5,,C'N'                 ADDRESSING ERROR
                                    1205  1          =PANSPEC    EQU   6,,C'N'                 SPECIFICATION ERROR
                                    1206  1          =PANWAIT    EQU   16,,C'N'                MISSING WAIT ERROR
                                    1207  1          =
 0001AA                             1208  1          =SCPACCT    DS    C'GG.UUU'               SIGNED-ON ACCOUNT
                                    1209  1          =SCPUSER    EQU   SCPACCT+3,3,C'C'        SIGNED-ON USER
                                    1210  1          =SCPGROUP   EQU   SCPACCT,2,C'C'          SIGNED-ON GROUP
                                    1211  1          =*
                                    1212  1          =*SCPPACCT DS    C'GG.UUU'               PSEUDO ACCOUNT
                                    1213  1          =*SCPPUSER EQU   SCPPACCT+3,3,C'C'       PSEUDO USER
                                    1214  1          =*SCPPGRP  EQU   SCPPACCT,2,C'C'         PSEUDO GROUP
                                    1215  1          =*SCPPRIVS DS    X                       PSEUDO ACCOUNT PRIVS
 0001B0                             1216  1          =           DS    XL7                     SPARE
                                    1217  1          =
 0001B7                             1218  1          =SCPPRIV    DS    X                       ACCOUNT PRIVS
 0001B8                             1219  1          =SCPCLW     DS    A                       POINTER TO THE CLW
 0001BC                             1220  1          =SCPPCAT    DS    A                       PROGRAM CATALOG POINTER
1VSTC     (VSTC00) (09:50) (22MAR04) ORVYL'S SET AND CLEAR COMMANDS                                                         Page    7
0D-Loc  Object Code    Addr1 Addr2  Stmt Lv Lineno    Source Statement           (Hibal 5, Asmedit 3.3)  HLASM R4.0  2004/03/22 09.50
+_____  ______ ____    _____ _____  ____ __ ______    ______ _________
00001C0                             1222  1          =SCPSID     DS    D                       SUSPEND ID
 0001C8                             1223  1          =SCPUCLK    DS    A                       USER CLOCK ID
 0001CC                             1224  1          =SCPUCXIT   DS    A                       USER CLOCK EXIT ID
 0001D0                             1225  1          =SCPCCLK    DS    A                       CLP CLOCK ID
 0001D4                             1226  1          =SCPCCXIT   DS    A                       CLP CLOCK EXIT ID
                                    1227  1          =
 0001D8                             1228  1          =SCPTXEP    DS    A                       TIMER EXIT ENTRY POINT
 0001DC                             1229  1          =SCPTXI     DS    A                       USER POINTER FOR TIMER EXIT
 0001E0                             1230  1          =SCPPXEP    DS    A                       PANIC EXIT ENTRY POINT
 0001E4                             1231  1          =SCPPXI     DS    A                       USER POINTER FOR PANIC EXIT
 0001E8                             1232  1          =SCPSXEP    DS    A                       SVC EXIT ENTRY POINT
 0001EC                             1233  1          =SCPSXI     DS    A                       USER POINTER FOR SVC EXIT
                                    1234  1          =
 0001F0                             1235  1          =SCPUMSIZ   DS    A                       ADDRESS SPACE LIMIT
 0001F4                             1236  1          =SCPRRSEG   DS    A                       LOW ADDR FOR RESERVE/RELEASE
 0001F8                             1237  1          =SCPRESRV   DS    H                       RESERVED (GETMAINED) PAGES
 0001FA                             1238  1          =SCPUNRSV   DS    H                       UNRESERVED PAGE COUNT
 0001FC                             1239  1          =SCPUMAP    DS    A                       USER MAP SIZE
                                    1240  1          =
 000200 00                          1241  1          =SCPFL      FLAG  ,                       FLAG BYTE
 SCPFL.SCPFERR     80 ONES          1245  1          =           FLAG  SCPFERR                 ERROR IN CLP
 SCPFL.SCPFPER     40 ONES          1250  1          =           FLAG  SCPFPER                 PER IS ACTIVE
 SCPFL.SCPFMON     20 ONES          1255  1          =           FLAG  SCPFMON                 MONITOR CALL IS ACTIVE
 SCPFL.SCPFPSEU    10 ONES          1260  1          =           FLAG  SCPFPSEU                PSUEDO USER SET
 SCPFL.SCPFSAM     08 ONES          1265  1          =           FLAG  SCPFSAM                 USER IS STAND-ALONE
 SCPFL.SCPFPRT     04 ONES          1270  1          =           FLAG  SCPFPRT                 USER PROGRAM "PROTECTED"
 SCPFL.SCPFTRU     02 ONES          1275  1          =           FLAG  SCPFTRU                 USER TRACE ACTIVE
 SCPFL.SCPFTRC     01 ONES          1280  1          =           FLAG  SCPFTRC                 CLP TRACE ACTIVE
                                    1285  1          =
 000201                             1286  1          =SCPKLUDG   DS    X     ***KLUDGE***      "KLUDGE" BYTE
 000202                             1287  1          =SCPTRASH   DS    X                       MEMORY CLEARING VALUE
 000203                             1288  1          =SCPJESR    DS    X                       NUMBER OF JES READERS IN USE
                                    1289  1          =
 000204                             1290  1          =SCPPER     DS    A                       PER INTERRUPT CODE,ADDRESS
 000208                             1291  1          =SCPMON     DS    A                       MONITOR INTERRUPT CODE,ADDRESS
                                    1292  1          =
 00020C                             1293  1          =SCPIDT     DS    A                       I/O ID TABLES
 000210                             1294  1          =SCPNIDT    DS    H                       NUMBER OF ID BLOCKS
 000212                             1295  1          =SCPQIDT    DS    H                       ENQ/DEQ ID TABLE
                                    1296  1          =
                                    1297  1          =SCPCWASZ   EQU   16,,C'N'                SIZE OF COMMON WORK AREA
 000214                             1298  1          =SCPCWA     DS    (SCPCWASZ)X
                                    1299  1          =
                                    1300  1          =CLWIBUFL   EQU   235                     LENGTH OF COMMAND BUFFER
 000224                             1301  1          =SCPCMDP    DS    A                       =>AL2(LEN),CL133'COMMAND'
 000228                             1302  1          =SCPPARMP   DS    A                       =>AL2(LEN),CL133'PARM'
 00022C                             1303  1          =SCPLCMDL   DS    H                       LENGTH OF LAST CMD
 00022E                             1304  1          =SCPLCMD    DS    CL40                    LAST COMMAND
                                    1305  1          =
 000256                             1306  1          =SCPNENQ    DS    H                       NUMBER OF ALLOWED ENQ'S
 000258                             1307  1          =SCPENQL    DS    A                       ENQUEUE ID TABLE ADDRESS
                                    1308  1          =
 00025C                             1309  1          =SCPTRACE   DS    A                       MODE 1 TRACE BUFFER CHAIN
1VSTC     (VSTC00) (09:50) (22MAR04) ORVYL'S SET AND CLEAR COMMANDS                                                         Page    8
0D-Loc  Object Code    Addr1 Addr2  Stmt Lv Lineno    Source Statement           (Hibal 5, Asmedit 3.3)  HLASM R4.0  2004/03/22 09.50
+_____  ______ ____    _____ _____  ____ __ ______    ______ _________
0                                   1311  1          =*******************************************************************
                                    1312  1          =*                                                                 *
                                    1313  1          =*    SCB  -  Mode 1 Session Control Block                         *
                                    1314  1          =*                                                                 *
                                    1315  1          =*******************************************************************
0000260 00                          1317  1          =SCBWFL     FLAG  ,                       WAIT FLAGS
 SCBWFL.SCBFWAIT   80 ONES          1321  1          =           FLAG  SCBFWAIT                WAITING
                                    1326  1          =
 000261 00                          1327  1          =SCBCFL     FLAG  ,                       COMMON FLAGS
 SCBCFL.SCBCFALP   80 ONES          1331  1          =           FLAG  SCBCFALP                AUTO LOGOFF BEING PROCESSED
 SCBCFL.SCBCFCLA   40 ONES          1336  1          =           FLAG  SCBCFCLA                IDLE ATTN IN CLP
 SCBCFL.SCBCFAX    20 ONES          1341  1          =           FLAG  SCBCFAX                 BRANCH TO ATTENTION EXIT
 SCBCFL.SCBCFNMA   10 ONES          1346  1          =           FLAG  SCBCFNMA                SUPPRESS MULTIPLE ATTN BREAK
 SCBCFL.SCBFNESC   08 ONES          1351  1          =           FLAG  SCBFNESC                FORCE SESSION BREAK ON ATTN
                                    1356  1          =
 000262 00                          1357  1          =SCBFL      FLAG  ,                       FLAGS
 SCBFL.SCBFCLP     80 ONES          1361  1          =           FLAG  SCBFCLP                 CLP IN CONTROL
 SCBFL.SCBFSVC     40 ONES          1366  1          =           FLAG  SCBFSVC                 USER IS IN SVC PROCESSING
 SCBFL.SCBFNPUP    20 ONES          1371  1          =           FLAG  SCBFNPUP                NO PSW CC CHANGES
 SCBFL.SCBFASLK    10 ONES          1376  1          =           FLAG  SCBFASLK                ADDRESS SPACE LOCK HELD
 SCBFL.SCBFPCLP    08 ONES          1381  1          =           FLAG  SCBFPCLP                PSEUDO CLP
                                    1386  1          =
 000263 00                          1387  1          =SCBTFL     FLAG  ,                       TIMER FLAGS
 SCBTFL.SCBTUTR    80 ONES          1391  1          =           FLAG  SCBTUTR                 USER TIMER RUNNING
 SCBTFL.SCBTUCT    40 ONES          1396  1          =           FLAG  SCBTUCT                 USER TIMING CPU TIME
 SCBTFL.SCBTCPTR   20 ONES          1401  1          =           FLAG  SCBTCPTR                COMMAND TIMER RUNNING
 SCBTFL.SCBTCPCT   10 ONES          1406  1          =           FLAG  SCBTCPCT                COMMAND TIMING CPU TIME
 SCBTFL.SCBTCPQU   08 ONES          1411  1          =           FLAG  SCBTCPQU                "QUEUED" TIMER RUNNING
                                    1416  1          =
 000264 00                          1417  1          =SCBMB      FLAG  ,                       EXIT ENABLED FLAG
                                    1421  1          =*
                                    1422  1          =* FOLLOWING FLAGS USED FOR BOTH SCBMB AND SCBXFL
                                    1423  1          =*
 000265 00                          1424  1          =SCBXFL     FLAG   ,                      EXIT FLAGS
 SCBXFL.SCBXT      80 ONES          1428  1          =           FLAG  SCBXT                   TIMER EXIT
 SCBXFL.SCBXA      40 ONES          1433  1          =           FLAG  SCBXA                   ATTN EXIT
 SCBXFL.SCBXW      20 ONES          1438  1          =           FLAG  SCBXW                   WAIT EXIT
 SCBXFL.SCBXP      10 ONES          1443  1          =           FLAG  SCBXP                   PANIC EXIT
 SCBXFL.SCBXCPT    08 ONES          1448  1          =           FLAG  SCBXCPT                 CLP TIMER EXIT
 SCBXFL.SCBXALO    04 ONES          1453  1          =           FLAG  SCBXALO                 AUTO LOGOFF
 SCBXFL.SCBDEFMB   F0 NZ            1458  1          =           FLAG  (SCBDEFMB,SCBXT+SCBXA+SCBXW+SCBXP)  DEFAULT
                                    1478  1          =
 000268                             1479  1          =SCBSPB     DS    A                       SPB POINTER
 00026C                             1480  1          =SCBENQ     DS    A                       ENQUEUE ID
 000270                             1481  1          =SCPEPXIT   DS    A                       ENQUEUE POST EXIT ID
                                    1482  1          =
 000278                             1483  1          =           DS    D                       Available
 000280                             1484  1          =SCBPNAML   DS    H                       LENGTH OF THE PROGRAM NAME
 000282                             1485  1          =SCBPNAM    DS    CL8                     PROGRAM NAME
 00028A                             1486  1          =SCBUPRI    DS    X                       USER PRIORITY
                                    1487  1          =*
                                    1488  1          =* Shared symbol control
                                    1489  1          =*
 00028C                             1490  1          =SCBSSAB    DS    A                       POINTER TO SSAB CHAIN
                                    1491  1          =
1VSTC     (VSTC00) (09:50) (22MAR04) ORVYL'S SET AND CLEAR COMMANDS                                                         Page    9
0D-Loc  Object Code    Addr1 Addr2  Stmt Lv Lineno    Source Statement           (Hibal 5, Asmedit 3.3)  HLASM R4.0  2004/03/22 09.50
+_____  ______ ____    _____ _____  ____ __ ______    ______ _________
0000290                             1492  1          =SCBWAITB   DS    A         WAIT BLOCK PTR (SEE M1GOWAIT IN M1SERV)
 000294                00294 00294  1493             =         END
1VSTC     (VSTC00) (09:50) (22MAR04) ORVYL'S SET AND CLEAR COMMANDS                                                         Page   10
0Loc    Object Code    Addr1 Addr2  Stmt Lv Lineno    Source Statement           (Hibal 5, Asmedit 3.3)  HLASM R4.0  2004/03/22 09.50
+___    ______ ____    _____ _____  ____ __ ______    ______ _________
0                                   1503      46.              COPY  CLW
                                    1504             =*
                                    1505             =*                   COMMAND LANGUAGE WORK AREA
                                    1506             =*
                                    1507             =* ORGANIZATION:
                                    1508             =*
                                    1509             =*        COMMONLY USED CLP FLAGS, COMMAND BUFFERS AND OTHER CONTROL
                                    1510             =*        INFORMATION FOLLOW THE SESSION CONTROL PAGE INFORMATION.
                                    1511             =*        THE BALANCE OF THIS PAGE IS THE CLP SAVE AREA STACK.
                                    1512             =*
 000000                00000 00618  1513             =CLW      RECORD BEGIN
 000000                             1521  1          =CLWSTART   DS    0F
 000000                             1522  1          =CLWSCP     DS    A                       POINTER TO THE SCP
 000004                             1523  1          =           DS    5A                      AVAILABLE
 000018                             1524  1          =CLWUWST    DS    A                       STARTING LOC OF USER WORK AREA
 00001C                             1525  1          =CLWUPST    DS    A                       STARTING LOC OF USER PROGRAM
 000020                             1526  1          =CLWUPML    DS    A                       MAXIMUM LEN OF USER PROGRAM
 000024                             1527  1          =CLWUPRSV   DS    H                       USER PROGRAM RESERVE COUNT
 000026                             1528  1          =CLWUPURV   DS    H                       USER PROGRAM UN-RESERVE COUNT
 000028                             1529  1          =CLWIBUFN   DS    H                       LENGTH OF INPUT LINE
 00002A 606E40                      1530  1          =           DC    C'-> '
 00002D                             1531  1          =CLWIBUF    DS    CL235                   INPUT BUFFER
                                    1532  1          =
 000118                             1533  1          =CLWOBUF    DS    2H                      WRITE/PROMPT COUNTS
 00011C                             1534  1          =           DS    CL235                   OUTPUT BUFFER
                                    1535  1          =CLWOBUFL   EQU   *-CLWOBUF-4
                                    1536  1          =*                                      SESSION BREAK FLAGS:
 000207 00                          1537  1          =CLWFL      FLAG  ,                       ZEROED AT SESSION BREAK START
 CLWFL.CLWFTYPD    80 ONES          1541  1          =           FLAG  CLWFTYPD                CURRENT COMMAND WAS TYPED
 CLWFL.CLWFCMD     40 ONES          1546  1          =           FLAG  CLWFCMD                 PROCESSING COMMAND SVC
 CLWFL.CLWFWYL     20 ONES          1551  1          =           FLAG  CLWFWYL                 COMMAND HAS BEEN TO WYLBUR
                                    1556  1          =
 000208 00                          1557  1          =CLWFLG     FLAG  ,                       FLAGS
 CLWFLG.CLWFCERR   80 ONES          1561  1          =           FLAG  CLWFCERR                COMMAND ERROR: EXE BREAK
 CLWFLG.CLWFGPW    40 ONES          1566  1          =           FLAG  CLWFGPW                 GET-PUT WORK AREA ALLOCATED
 CLWFLG.CLWFTTRP   20 ONES          1571  1          =           FLAG  CLWFTTRP                TEMPORARY TRAP SET
 CLWFLG.CLWFTRAP   10 ONES          1576  1          =           FLAG  CLWFTRAP                TRAP IN PROGRESS
 CLWFLG.CLWFOSC    08 ONES          1581  1          =           FLAG  CLWFOSC                 READ/WRITE REAL (OS) CORE
 CLWFLG.CLWFQMSG   04 ONES          1586  1          =           FLAG  CLWFQMSG                "QUEUED" MESSAGE SENT
 CLWFLG.CLWFM31    02 ONES          1591  1          =           FLAG  CLWFM31                 PROGRAM IN 31 BIT MODE
                                    1596  1          =
 000209 00                          1597  1          =CLWPFL     FLAG  ,                       PROGRAM FLAGS
 CLWPFL.CLWPFSUP   80 ONES          1601  1          =           FLAG  CLWPFSUP                LINK AREA SET UP
 CLWPFL.CLWPFPL    40 ONES          1606  1          =           FLAG  CLWPFPL                 PROGRAM LOADING
 CLWPFL.CLWPFPIC   20 ONES          1611  1          =           FLAG  CLWPFPIC                PROGRAM ENTERED
 CLWPFL.CLWPFRUN   10 ONES          1616  1          =           FLAG  CLWPFRUN                EXECUTE PROGRAM
 CLWPFL.CLWPFPAU   08 ONES          1621  1          =           FLAG  CLWPFPAU                PAUSE BEFORE EXECUTION
 CLWPFL.CLWPFPRV   04 ONES          1626  1          =           FLAG  CLWPFPRV                PRIVATE PROGRAM
 CLWPFL.CLWPFPRT   02 ONES          1631  1          =           FLAG  CLWPFPRT                PROGRAM PROTECTED
 CLWPFL.CLWPFSHR   01 ONES          1636  1          =           FLAG  CLWPFSHR                SHARED PROGRAM LOADED
                                    1641  1          =
 00020A 00                          1642  1          =CLWMFL     FLAG  ,                       MISCELLANEOUS FLAGS
 CLWMFL.CLWMEVCN   80 ONES          1646  1          =           FLAG  CLWMEVCN                CONTINUE AFTER EVENTS
 CLWMFL.CLWMMNCN   40 ONES          1651  1          =           FLAG  CLWMMNCN                CONTINUE AFTER MONITORS
 CLWMFL.CLWMBSUC   20 ONES          1656  1          =           FLAG  CLWMBSUC                SIMULATED BRANCH SUCCESSFUL
 CLWMFL.CLWMNCST   10 ONES          1661  1          =           FLAG  CLWMNCST                SUPPRESS AUTOMATIC COST PRINT
1VSTC     (VSTC00) (09:50) (22MAR04) ORVYL'S SET AND CLEAR COMMANDS                                                         Page   11
0Loc    Object Code    Addr1 Addr2  Stmt Lv Lineno    Source Statement           (Hibal 5, Asmedit 3.3)  HLASM R4.0  2004/03/22 09.50
+___    ______ ____    _____ _____  ____ __ ______    ______ _________
0CLWMFL.CLWMCLRP   08 ONES          1666  1          =           FLAG  CLWMCLRP                UNREC. CLR FOUND
 CLWMFL.CLWMNOL    04 ONES          1671  1          =           FLAG  CLWMNOL                 DON'T PRINT ON CONT. EVENTS
 CLWMFL.CLWMDSUP   02 ONES          1676  1          =           FLAG  CLWMDSUP                DUMP AREA SET UP
 CLWMFL.CLWMDUMP   01 ONES          1681  1          =           FLAG  CLWMDUMP                DUMP COMMAND BEING PROCESSED
                                    1686  1          =
 00020B 00                          1687  1          =CLWMONF    FLAG  ,                       PROGLOOK/MONITOR FLAGS
 CLWMONF.CLWFMWP   80 ONES          1691  1          =           FLAG  CLWFMWP                 MONITOR WORK PAGE EXISTS
 CLWMONF.CLWFPRGL  40 ONES          1696  1          =           FLAG  CLWFPRGL                PROGLOOK IN PROGRESS
 CLWMONF.CLWDOTIM  20 ONES          1701  1          =           FLAG  CLWDOTIM                SET TIMER AT RUN
 CLWMONF.CLWCPTIM  10 ONES          1706  1          =           FLAG  CLWCPTIM                SET CPU TIME TIMER
                                    1711  1          =
 00020C 00                          1712  1          =CLWSFL     FLAG  ,                       SESSION FLAGS
 CLWSFL.CLWSSAM    80 ONES          1716  1          =           FLAG  CLWSSAM                 STAND ALONE MODE
 CLWSFL.CLWSSP     40 ONES          1721  1          =           FLAG  CLWSSP                  SPECIAL PERSON
                                    1726  1          =
 00020D                             1727  1          =           DS    X
                                    1728  1          =
 00020E                             1729  1          =CLWEXSVC   DS    H                       EXIT SVC
 000210                             1730  1          =CLWPSVC    DS    H                       PAUSE/TRAP SVC
 000212                             1731  1          =CLWCSVC    DS    H                       COMMAND SVC
                                    1732  1          =
 000214                             1733  1          =CLWDSP     DS    X                       DISPATCHING PRIORITY
 000215                             1734  1          =CLWPFS     DS    X                       PARAMTER FLAG SAVE
 000218                             1735  1          =CLWPS      DS    3F                      PARAMETER SAVE
                                    1736  1          =
 000224                             1737  1          =CLWMLMOD   DS    F                       MILTEN MODE WORD
 000228                             1738  1          =CLWWLMOD   DS    F                       WYLBUR MODE WORD
                                    1739  1          =
 00022C                             1740  1          =CLWTIMER   DS    A                       TIMER VALUE TO BE SET AT RUN
 000230                             1741  1          =CLWTIMAX   DS    H                       MAX TIMER INTERVAL (IN .1 SEC)
 000232                             1742  1          =CLWTIVAL   DS    H                       CURRENT TIMER INTERVAL
 000234                             1743  1          =CLWTMAX    DS    H                       CPU TIME LIMIT
 000236                             1744  1          =CLWTIME    DS    H                       CURRENT CPU TIME
 000238                             1745  1          =CLWPELT    DS    A                       ELAPSED TIME
 00023C                             1746  1          =CLWPCVM    DS    A                       VM CHARGES
 000240                             1747  1          =CLWPIOS    DS    A                       I/O COUNTS
 000244                             1748  1          =CLWPCUSE   DS    A                       CPU TIME
                                    1749  1          =
 000248                             1750  1          =CLWPROGN   DS    CL8                     PROGRAM NAME
 000250                             1751  1          =CLWLNKP    DS    A                       LINK PAGE POINTER
 000254                             1752  1          =CLWGPWP    DS    A                       GET-PUT WORK PAGE POINTER
 000258                             1753  1          =CLWMONP    DS    A                       MONITOR/PROGLOOK PAGE
 00025C                             1754  1          =CLWSPB     DS    A                       SHARED PROGRAM BLOCK
 000260                             1755  1          =CLWDUMPB   DS    A                       POINTER TO DUMP BUFFER
                                    1756  1          =
 000264                             1757  1          =CLWPER     DS    A                       PER INFO
 000268                             1758  1          =CLWMON     DS    A                       MONITOR INFO
                                    1759  1          =
 00026C                             1760  1          =CLWEVCNT   DS    A                       NUMBER OF EVENTS TO EXECUTE
 000270                             1761  1          =CLWTRAPA   DS    A                       ADDR OF INST BEING TRAPPED
 000274                             1762  1          =CLWTRAPB   DS    A                       ADDR OF INST AFTER
 000278                             1763  1          =CLWTRAPI   DS    3H                      INSTRUCTION BEING TRAPPED
 00027E                             1764  1          =CLWTRAPJ   DS    H                       1ST HALFWORD OF INST AFTER
                                    1765  1          =
                                    1766  1          =CLWNTRAP   EQU   8,,C'N'                 NO. OF TRAPS
 000280                             1767  1          =CLWTRAPS   DS    (CLWNTRAP)XL5           TRAP TABLE
1VSTC     (VSTC00) (09:50) (22MAR04) ORVYL'S SET AND CLEAR COMMANDS                                                         Page   12
0Loc    Object Code    Addr1 Addr2  Stmt Lv Lineno    Source Statement           (Hibal 5, Asmedit 3.3)  HLASM R4.0  2004/03/22 09.50
+___    ______ ____    _____ _____  ____ __ ______    ______ _________
00002A8                             1768  1          =CLWTTRAP   DS    XL5                     TEMPORARY TRAP
                                    1769  1          =*
                                    1770  1          =* KEYWORD FILE RECORD AREA
                                    1771  1          =*
 0002AD                             1772  1          =CLWKFL     DS    X                       KEYWORD FILE FLAGS
                                    1773  1          =
                                    1774  1          =CLWKFAC    EQU   X'80'                   PROGRAM AUTO CALL
                                    1775  1          =CLWKFMP    EQU   X'40'                   PROGRAM MANDATORY
                                    1776  1          =
 0002AE                             1777  1          =CLWKACC    DS    CL5                     ACCOUNT FOR PROGRAM SEARCH
 0002B3                             1778  1          =CLWKPROG   DS    CL8                     DEFAULT/MANDATORY PROGRAM
 0002BB                             1779  1          =CLWKMISC   DS    CL8                     MISCELLANEOUS FIELDS
                                    1780  1          =*
                                    1781  1          =*  SCANNER UTILITY AREA
                                    1782  1          =*
                                    1783  1          =           SCANCB PFX=CLWKW
 0002C4                             1784  1 01-SCANC +CLWKWCB    DS    0F
 0002C4                             1785  1 01-SCANC +CLWKWVAL   DS    A                       VALUE RETURNED
 0002C8                             1786  1 01-SCANC +CLWKWKW    DS    CL8                     CURRENT KEY WORD
 0002D0                             1787  1 01-SCANC +CLWKWLEN   DS    A                       LENGTH LEFT TO SCAN
 0002D4                             1788  1 01-SCANC +CLWKWLOC   DS    A                       NEXT THING TO SCAN
 0002D8                             1789  1 01-SCANC +CLWKWRA    DS    A                       RETURN ADDRESS
 0002DC                             1790  1 01-SCANC +CLWKWPRT   DS    A                       ROUTING TABLE ADDRESS
 0002E0                             1791  1 01-SCANC +CLWKWCLT   DS    A                       SCAN TYPE
                                    1792  1          +*                                      0 = NORMAL SCAN
                                    1793  1          +*                                      4 = EXPRESSION ISOLATION
                                    1794  1          +*                                      8 = EXPRESSION SCAN
                                    1795  1 01-SCANC +CLWKWCBL   EQU *-CLWKWCB
                                    1796  1          =
 0002E8                             1797  1          =CLWTEMP    DS    4D                      WORK AREA
                                    1798  1          =
 000308                             1799  1          =CLWDELTA   DS    F                       Wylbr line delta
 00030C                             1800  1          =           DS    F                       Spare
 000310                             1801  1          =CLWEVHST   DS    8D                      EVENT HISTORY
 000350                             1802  1          =CLWEVENT   DS    D                       LAST EVENT INFO
 000358                             1803  1          =CLWQRET    DS    3F                      QUICK RETURN FOR VSUB
                                    1804  1          =*                                      SAVE AREA FOR BRR,BR,WAR
                                    1805  1          =*
 000368                             1806  1          =CLWSBPSW   DS    D                       SESSION BREAK PSW
 000370                             1807  1          =CLWSBGPR   DS    16F                     SESSION BREAK GPRS
 0003B0                             1808  1          =CLWACCT    DS    C'GG.UUU'               USER ACCOUNT
                                    1809  1          =CLWUSER    EQU   CLWACCT+3,3,C'C'        USER
                                    1810  1          =CLWGROUP   EQU   CLWACCT,2,C'C'          GROUP
 0003B8                             1811  1          =CLWIDT     DS    A                       ADDRESS OF THE IDTS
 0003BC                             1812  1          =CLWNIDT    DS    H                       NUMBER OF IDTS
 0003C0                             1813  1          =           DS    0F                      START OF SAVE AREA
 0003C0                             1814  1          =CLWSVA     DS    XL600                   SAVE STACK
                                    1815  1          =CLWSVAEN   EQU   *-4,4,C'X'              LAST WORD OF THE STACK
 000618                00618 00618  1816             =         END   ,
1VSTC     (VSTC00) (09:50) (22MAR04) ORVYL'S SET AND CLEAR COMMANDS                                                         Page   13
0Loc    Object Code    Addr1 Addr2  Stmt Lv Lineno    Source Statement           (Hibal 5, Asmedit 3.3)  HLASM R4.0  2004/03/22 09.50
+___    ______ ____    _____ _____  ____ __ ______    ______ _________
0                                   1827      49.     *
 000015                00000 00F48  1828      50.     VSTC     CSECT ,
 USING  CLW,R10                     1830      51.              USING CLW,CLWR                ##
                                    1839      52.     *  SET COMMAND
                                    1840      53.     *
 000015 00/902B D000         00000  1841      54.     SET      VENTER 2,11,*
 00001A 188D/41D0 D028       00028  1845             +
 000020 0D70                        1849             +
 USING  *,R7
 000022 4D70 70A2            000C4  1861      55.              BAS   BR,SETSCAN
 DROP   *,R7                        1862      56.              USING BASE,BR                 ## BASE IS EXIT
 USING  BASE,R7
                                    1874      57.     BASE     EQU   *
                                    1875      58.     *  EXIT
 000026 1BFF                        1876      59.              CLEAR R15                     SET OK RETURN
 000028                             1880      60.     STCRET   LABEL ,
 000028 18D8/982B D000       00000  1882      61.              VEXIT 2,11,LTR
 00002E 12FF/07F9                   1886             +
                                    1888      62.
 000032 1000                        1889      63.     SCRET    LPR   R0,R0
 000034 4780 7054            0007A  1890      64.              BZ    MISSING
 000038 4590 7B5A            00B80  1891      65.     ILLSTR   SEG   (1),(0)
 00003C 4110 0000            00000  1906      66.              SEG   ': Invalid string'
 000040 4590 7B72            00B98  1908             +
 000044 47F0 706C            00092  1909      67.              B     ERROR
                                    1910      68.
 000048 4110 0011            00011  1911      69.     REQABORT SEG   'Request aborted'
 00004C 4590 7B72            00B98  1913             +
 000050 47F0 706C            00092  1914      70.              B     ERROR
                                    1915      71.
 000054 9104 A209/07E9 00209        1916      72.     PRVPTEST IF    ~CLWPFPRV,RAR            PRIVATE PROGRAM?
 00005A 4110 0021            00021  1935      73.              SEG   'Private '
 00005E 4590 7B72            00B98  1937             +
 000062 4110 002A            0002A  1938      74.     PROGLDED SEG   'Program loaded, command blocked'
 000066 4590 7B72            00B98  1940             +
 00006A 47F0 706C            00092  1941      75.              B     ERROR
                                    1942      76.
 00006E 4110 004A            0004A  1943      77.     ILLVAL   SEG   'Invalid value'
 000072 4590 7B72            00B98  1945             +
 000076 47F0 706C            00092  1946      78.              B     ERROR
                                    1947      79.
 00007A 4110 0058            00058  1948      80.     MISSING  SEG   'Missing operand'
 00007E 4590 7B72            00B98  1950             +
 000082 47F0 706C            00092  1951      81.              B     ERROR
                                    1952      82.
 000086                             1953      83.     UNREC    LABEL ,
 000086 4590 7B5A            00B80  1955      84.              SEG   (1),(0)
 00008A 4110 0068            00068  1969      85.              SEG   ': Invalid'
 00008E 4590 7B72            00B98  1971             +
 000092 5890 7B9A/0D99       00BC0  1972      86.     ERROR    VCALL TYPEIT
 000098 07F7                        1976      87.              BR    BR                      EXIT
                                    1977      88.
 00009A                             1978      89.     WYLMIL   LABEL ,
 00009A 41F0 0004            00004  1980      90.              LA    R15,4                   SEND CODE
 00009E 47F0 7002            00028  1981      91.              B     STCRET                  SEND 'SET' ON TO MILTEN
                                    1982      92.
1VSTC     (VSTC00) (09:50) (22MAR04) ORVYL'S SET AND CLEAR COMMANDS                                                         Page   14
0Current Usings:  (BASE,R7) (CLW,R10)
0Loc    Object Code    Addr1 Addr2  Stmt Lv Lineno    Source Statement           (Hibal 5, Asmedit 3.3)  HLASM R4.0  2004/03/22 09.50
+___    ______ ____    _____ _____  ____ __ ______    ______ _________
00000A2 5890 7B9E/0D99       00BC4  1983      93.     STCWREX  VWRITE
 0000A8 07F7                        1988      94.              BR    BR
                                    1989      95.
 0000AA 9089 D000/188D       00000  1990      96.     STCWRITE VSAVE WAR,RAR,*               SAVE RETURN
 0000B0 41D0 D008            00008  1993             +
 0000B4 5890 7B9E/0D99       00BC4  1994      97.              VWRITE
 0000BA 18D8/9889 D000       00000  1999      98.              VREST WAR,RAR
 0000C0 0789                        2002      99.              BZR   RAR                     NO ERROR
 0000C2 07F7                        2003     100.              BR    BR                      EXIT
1VSTC     (VSTC00) (09:50) (22MAR04) ORVYL'S SET AND CLEAR COMMANDS                                                         Page   15
0Current Usings:  (BASE,R7) (CLW,R10)
0Loc    Object Code    Addr1 Addr2  Stmt Lv Lineno    Source Statement           (Hibal 5, Asmedit 3.3)  HLASM R4.0  2004/03/22 09.50
+___    ______ ____    _____ _____  ____ __ ______    ______ _________
0                                   2005     102.     * SCAN SET OPTION
                                    2006     103.     *
 0000C4 4110 70B0            000D6  2007     104.     SETSCAN  SCAN  KWSET,CLWKWCB           SCAN FOR OPTION
 0000C8 41F0 A2C4            002C4  2021             +
 0000CC 58E0 7BA2/0DEE       00BC8  2024             +
 0000D2 47F0 700C            00032  2026     105.              B     SCRET                   UNUSUAL RETURN
0                                   2028     107.     *  SET OPTION TABLE
                                    2029     108.     *
 0000D6                             2030     109.     KWSET    LABEL ,
 0000D6 00000268E3                  2032     110.              SCKW  T,SETTRAP
 0000DB                             2034     111.              SCKW  TRAP,SETTRAP
 0000DB 03000268E3D9C1D7            2035             +
 0000E3                             2036     112.              SCKW  EVENT,SETEVENT,A
 0000E3 0C000476C5E5C5D5            2037             +
 0000EC                             2038     113.              SCKW  MONITOR,SETMONIT,A
 0000EC 0E0003B2D4D6D5C9            2039             +
                                    2040     114.     *        SCKW  SLAVE,NOTYET
                                    2042     116.              VPMTAB SETKWRT                SET KEYWORDS FOR VPM
 0000F7 0C00087AC5D5E3D9            2044    02-SCKW  +         DC    AL1(12),AL3(SETENTRY),CL5'ENTRY'
                                    2045     117.              VGPTAB SETKWRT                SET KEYWORDS FOR VGP
 000100 0A00093AC3D3D7              2047    02-SCKW  +         DC    AL1(10),AL3(SETCLP),CL3'CLP'
 000107 0F000942C6C9D3C5            2049    02-SCKW  +         DC    AL1(15),AL3(SETFILEM),CL8'FILEMASK'
 000113 0D00094AC6D6D9D4            2051    02-SCKW  +         DC    AL1(13),AL3(SETFORMA),CL6'FORMAT'
 00011D 0C000952D5D6C3D3            2053    02-SCKW  +         DC    AL1(12),AL3(SETNOCLP),CL5'NOCLP'
 000126 0E00095AD5D6E2C8            2055    02-SCKW  +         DC    AL1(14),AL3(SETNOSHA),CL7'NOSHARE'
 000131 0F000962D5D6E2D7            2057    02-SCKW  +         DC    AL1(15),AL3(SETNOSPI),CL8'NOSPIFIL'
 00013D 0D00096AD7C5D9D4            2059    02-SCKW  +         DC    AL1(13),AL3(SETPERMI),CL6'PERMIT'
 000147 0F000972D7D9D6C7            2061    02-SCKW  +         DC    AL1(15),AL3(SETPROGR),CL8'PROGRAMS'
 000153 0C00097AE2C8C1D9            2063    02-SCKW  +         DC    AL1(12),AL3(SETSHARE),CL5'SHARE'
 00015C 0E000982E2D7C9C6            2065    02-SCKW  +         DC    AL1(14),AL3(SETSPIFI),CL7'SPIFILE'
                                    2066     118.              VSSVTAB SETKWRT               SET KEYWORDS FOR VSSV
 000167 0E00088AE5D9C5D4            2068    02-SCKW  +         DC    AL1(14),AL3(SETVREMV),CL7'VREMVOL'
 000172 0E000892E5C1C4C4            2070    02-SCKW  +         DC    AL1(14),AL3(SETVADDV),CL7'VADDVOL'
 00017D 0E00089AE5D9C5C7            2072    02-SCKW  +         DC    AL1(14),AL3(SETVREGI),CL7'VREGION'
 000188 0E0008A2D9C5C6D9            2074    02-SCKW  +         DC    AL1(14),AL3(SETREFRE),CL7'REFRESH'
 000193 0C0008AAD7E2C3D3            2076    02-SCKW  +         DC    AL1(12),AL3(SETPSCLP),CL5'PSCLP'
 00019C 0E0008B2D5D6D7E2            2078    02-SCKW  +         DC    AL1(14),AL3(SETNOPSC),CL7'NOPSCLP'
 0001A7 0D0008BAC3D3D7C5            2080    02-SCKW  +         DC    AL1(13),AL3(SETCLPER),CL6'CLPERR'
 0001B1 0C0008C2E5C6C9D3            2082    02-SCKW  +         DC    AL1(12),AL3(SETVFILE),CL5'VFILE'
 0001BA 0E0008CAD5D6E5C6            2084    02-SCKW  +         DC    AL1(14),AL3(SETNOVFI),CL7'NOVFILE'
 0001C5 0C0008D2E5D7C1E3            2086    02-SCKW  +         DC    AL1(12),AL3(SETVPATH),CL5'VPATH'
 0001CE 0E0008DAD5D6E5D7            2088    02-SCKW  +         DC    AL1(14),AL3(SETNOVPA),CL7'NOVPATH'
 0001D9 0B0008E2E5D5C5E3            2090    02-SCKW  +         DC    AL1(11),AL3(SETVNET),CL4'VNET'
 0001E1 0D0008EAD5D6E5D5            2092    02-SCKW  +         DC    AL1(13),AL3(SETNOVNE),CL6'NOVNET'
 0001EB 0B0008F2E5D6E2C6            2094    02-SCKW  +         DC    AL1(11),AL3(SETVOSF),CL4'VOSF'
 0001F3 0D0008FAD5D6E5D6            2096    02-SCKW  +         DC    AL1(13),AL3(SETNOVOS),CL6'NOVOSF'
 0001FD 0B000902E5D1C5E2            2098    02-SCKW  +         DC    AL1(11),AL3(SETVJES),CL4'VJES'
 000205 0D00090AD5D6E5D1            2100    02-SCKW  +         DC    AL1(13),AL3(SETNOVJE),CL6'NOVJES'
 00020F 0D000912E5D4C1C9            2102    02-SCKW  +         DC    AL1(13),AL3(SETVMAIN),CL6'VMAINT'
 000219 0F00091AD5D6E5D4            2104    02-SCKW  +         DC    AL1(15),AL3(SETNOVMA),CL8'NOVMAINT'
                                    2105     119.              VSSWTAB SETKWRT               SET KEYWORDS FOR VSSW
 000225 0D00092AE5C3C1C3            2107    02-SCKW  +         DC    AL1(13),AL3(SETVCACH),CL6'VCACHE'
 00022F                             2109     121.              SCKW  TIMER,SETTIMER,(P,LN)
1VSTC     (VSTC00) (09:50) (22MAR04) ORVYL'S SET AND CLEAR COMMANDS                                                         Page   16
0Current Usings:  (BASE,R7) (CLW,R10)
0Loc    Object Code    Addr1 Addr2  Stmt Lv Lineno    Source Statement           (Hibal 5, Asmedit 3.3)  HLASM R4.0  2004/03/22 09.50
+___    ______ ____    _____ _____  ____ __ ______    ______ _________
000022F E4000638E3C9D4C5            2110             +
 000238                             2111     122.              SCKW  FMSK,SETFILEM,A
 000238 0B000942C6D4E2D2            2112             +
 000240                             2113     123.              SCKW  ZOT,SETZOT
 000240 02000742E9D6E3              2114             +
 000247                             2115     124.              SCKW  CLPERR,SETCLPER
 000247 050008BAC3D3D7C5            2116             +
 000251                             2117     125.              SCKW  PSCLP,SETPSCLP
 000251 040008AAD7E2C3D3            2118             +
 00025A                             2119     126.              SCKW  REGION,SETREGN,A
 00025A 0D000796D9C5C7C9            2120             +
 000264 FF00009A                    2121     127.              SCKW  ,WYLMIL
1VSTC     (VSTC00) (09:50) (22MAR04) ORVYL'S SET AND CLEAR COMMANDS                                                         Page   17
0Current Usings:  (BASE,R7) (CLW,R10)
0Loc    Object Code    Addr1 Addr2  Stmt Lv Lineno    Source Statement           (Hibal 5, Asmedit 3.3)  HLASM R4.0  2004/03/22 09.50
+___    ______ ____    _____ _____  ____ __ ______    ______ _________
0                                   2124     129.     *  SET TRAP
                                    2125     130.     *
 000268                             2126     131.     SETTRAP  LABEL ,
 000268 4D90 702E            00054  2128     132.              PRVBLOCK ,
 00026C 5890 7BA6/0D99       00BCC  2131     133.              VCALL EVAL                    GET LOCATION
 000272 4740 706C            00092  2135     134.              BM    ERROR                   PRINT ERROR MESSAGE
 000276 5400 7BAA            00BD0  2136     135.              N     R0,=X'0FFFFFFF'
 00027A 9140 A20C      0020C        2137     136.              IF    ~CLWSSP,BEGIN
 00027E 4710 7260            00286  2147             +
 000282 5400 7BAE            00BD4  2152  1  137.                N     R0,=X'00FFFFFF'
 000286                             2153     138.              END   ,
 000286 1200/4780 7350       00376  2157     139.              IF    (R0,Z),STILL
 00028C 5000 A2E8            002E8  2174     140.              ST    R0,CLWTEMP
                                    2175     141.     *         CLI   CLWTEMP,0
                                    2176     142.     *         BNE   STILL
 000290 91F0 A2E8      002E8        2177     143.              TM    CLWTEMP,X'F0'
 000294 4770 7350            00376  2178     144.              BNZ   STILL
 000298 9101 A2EB      002EB        2179     145.              TM    CLWTEMP+3,1             MUST BE EVEN
 00029C 4710 735C            00382  2180     146.              BO    STODD
 0002A0 4150 A2A3            002A3  2181     147.              LA    RR,CLWTRAPS+(CLWNTRAP-1)*5
 0002A4 4130 0008            00008  2182     148.              LA    TR,CLWNTRAP
 0002A8 1B22                        2183     149.              CLEAR SR
 0002AA D602 5000 5000 00000 00000  2187     150.     STLOOP   OC    @RR(3),@RR              LOOK FOR EMPTY TABLE ENTRY
 0002B0 4770 7292            002B8  2188     151.              BNZ   STL1
 0002B4 1843                        2189     152.              LR    QR,TR
 0002B6 1825                        2190     153.              LR    SR,RR
 0002B8 D502 5000 A2E9 00000 002E9  2191     154.     STL1     CLC   @RR(3),CLWTEMP+1        TRAP ALREADY THERE?
 0002BE 4780 7368            0038E  2192     155.              BE    STALRDY                 BR IF SO
 0002C2 5B50 7BB2            00BD8  2193     156.              S     RR,=A(5)
 0002C6 4630 7284            002AA  2194     157.              BCT   TR,STLOOP
 0002CA 1222/4770 72B6       002DC  2195     158.              IF    (SR,NZ),STFND           BR IF EMPTY ENTRY FOUND
 0002D0 4110 0072            00072  2212     159.              SEG   'Too many traps'
 0002D4 4590 7B72            00B98  2214             +
 0002D8 47F0 706C            00092  2215     160.              B     ERROR
                                    2216     161.
 0002DC                             2217     162.     STFND    LABEL ,
 0002DC 1810                        2219     163.              LR    R1,R0
 0002DE 4100 2003            00003  2220     164.              LA    R0,@SR+3
 0002E2 41F0 0002            00002  2221     165.              LA    R15,2
 0002E6 5890 7BB6/0D99       00BDC  2222     166.              VCALL READCORE                GET WHATS THERE
 0002EC 47FF 72CA            002F0  2226     167.              B     *+4(15)
 0002F0 47F0 72DA            00300  2227     168.              B     STASK
 0002F4 47F0 72F2            00318  2228     169.              B     STOK
 0002F8 47F0 7344            0036A  2229     170.              B     STNONE
 0002FC 47F0 7350            00376  2230     171.              B     STILL
                                    2231     172.
 000300                             2232     173.     STASK    LABEL ,
 000300 950A 2003      00003        2234     174.              CLI   @SR+3,X'0A'             SVC?
 000304 4780 7374            0039A  2235     175.              BE    STSVC
 000308 95AF 2003      00003        2236     176.              IF    ('CLI  @SR+3,X"AF"',EQ),STMON   MONITOR CALL
 00030C 4780 7380            003A6  2246             +
 000310 5890 7BBA/0D99       00BE0  2252     177.              VCALL VERPATCH                VERIFY
 000316 0777                        2256     178.              BNZR  BR
                                    2257     179.
1VSTC     (VSTC00) (09:50) (22MAR04) ORVYL'S SET AND CLEAR COMMANDS                                                         Page   18
0Current Usings:  (BASE,R7) (CLW,R10)
0Loc    Object Code    Addr1 Addr2  Stmt Lv Lineno    Source Statement           (Hibal 5, Asmedit 3.3)  HLASM R4.0  2004/03/22 09.50
+___    ______ ____    _____ _____  ____ __ ______    ______ _________
0000318                             2258     180.     STOK     LABEL ,
 000318 950A 2003      00003        2260     181.              CLI   3(SR),X'0A'             SVC?
 00031C 4780 7374            0039A  2261     182.              BE    STSVC                   BR IF SO
 000320 95AF 2003      00003        2262     183.              IF    ('CLI  @SR+3,X"AF"',EQ),STMON   MONITOR CALL
 000324 4780 7380            003A6  2272             +
 000328 4100 A210            00210  2278     184.              LA    R0,CLWPSVC              LOCATION OF PAUSE SVC
 00032C 5810 A2E8            002E8  2279     185.              L     R1,CLWTEMP
 000330 41F0 0002            00002  2280     186.              LA    R15,2
 000334 5890 7BBE/0D99       00BE4  2281     187.              VCALL RITECORE
 00033A D202 2000 A2E9 00000 002E9  2285     188.              MVC   @SR(3),CLWTEMP+1        SAVE ADDR IN TABLE
 000340 4110 0081            00081  2286     189.              SEG   'Trap '
 000344 4590 7B72            00B98  2288             +
 000348 18F4/4100 0001       00001  2289     190.              SEGDC 1,(QR)
 00034E 4110 A2E8            002E8  2309             +
 000352 58E0 7BC2/0DEE       00BE8  2312             +
 000358 5890 7BC6/0D99       00BEC  2329             +
 00035E 4110 0087            00087  2331     191.              SEG   ' set'
 000362 4590 7B72            00B98  2333             +
 000366 47F0 707C            000A2  2334     192.              B     STCWREX                 WRITE AND EXIT
                                    2335     193.
 00036A 4110 008C            0008C  2336     194.     STNONE   SEG   'Core not defined'
 00036E 4590 7B72            00B98  2338             +
 000372 47F0 706C            00092  2339     195.              B     ERROR
                                    2340     196.
 000376 4110 009D            0009D  2341     197.     STILL    SEG   'Invalid address'
 00037A 4590 7B72            00B98  2343             +
 00037E 47F0 706C            00092  2344     198.              B     ERROR
                                    2345     199.
 000382 4110 00AD            000AD  2346     200.     STODD    SEG   'Odd address'
 000386 4590 7B72            00B98  2348             +
 00038A 47F0 706C            00092  2349     201.              B     ERROR
                                    2350     202.
 00038E 4110 00B9            000B9  2351     203.     STALRDY  SEG   'Trap already there'
 000392 4590 7B72            00B98  2353             +
 000396 47F0 706C            00092  2354     204.              B     ERROR
                                    2355     205.
 00039A 4110 00CC            000CC  2356     206.     STSVC    SEG   'Svc may not be trapped'
 00039E 4590 7B72            00B98  2358             +
 0003A2 47F0 706C            00092  2359     207.              B     ERROR
                                    2360     208.
 0003A6 4110 00E3            000E3  2361     209.     STMON    SEG   'Monitor call may not be trapped'
 0003AA 4590 7B72            00B98  2363             +
 0003AE 47F0 706C            00092  2364     210.              B     ERROR
                                    2365     211.
1VSTC     (VSTC00) (09:50) (22MAR04) ORVYL'S SET AND CLEAR COMMANDS                                                         Page   19
0Current Usings:  (BASE,R7) (CLW,R10)
0Loc    Object Code    Addr1 Addr2  Stmt Lv Lineno    Source Statement           (Hibal 5, Asmedit 3.3)  HLASM R4.0  2004/03/22 09.50
+___    ______ ____    _____ _____  ____ __ ______    ______ _________
0                                   2367     213.     * SET MONITOR
                                    2368     214.     *
 USING  SEVWA,R8                    2369     215.              USING SEVWA,WAR               ##
 0003B2                             2378     216.     SETMONIT LABEL ,
 0003B2 4D90 702E            00054  2380     217.              PRVBLOCK ,
 0003B6 41D0 8034            00034  2383     218.              LA    R13,SEVWA+SEVWASIZ      RESERVE SOME STACK
 0003BA                             2384     219.              CLEAR (SEVWMSK,12)
 0003BA D70B 8028 8028 00028 00028  2390             +
 0003C0 9160 A209      00209        2391     220.              IF    (CLWPFPL+CLWPFPIC,Z),SEVNPIC  ANY PROGRAM TO MONITOR?
 0003C4 4780 7606            0062C  2408             +
 0003C8 1B33                        2414     221.              CLEAR TR                      NO EVENT LIST YET
 0003CA 4110 740A            00430  2418     222.              SCAN  MONTBL,CLWKWCB
 0003CE 41F0 A2C4            002C4  2432             +
 0003D2 58E0 7BA2/0DEE       00BC8  2435             +
 0003D8 4740 700C            00032  2437     223.              BM    SCRET                   ERROR IN SCAN
 0003DC 1233                        2438     224.     SMN1     LTR   TR,TR                   REG LIST?
 0003DE 4780 73FA            00420  2439     225.              BZ    SMN3
 0003E2 1812/1803                   2440     226.              SCINIT (SR),(TR),CLWKWCB
 0003E6 41F0 A2C4            002C4  2457             +
 0003EA 58E0 7BCA/0DEE       00BF0  2460             +
 0003F0 5890 7BA6/0D99       00BCC  2462     227.     SMN2     VCALL EVAL                    GET REG
 0003F6 4740 706C            00092  2466     228.              BM    ERROR                   PRINT ERROR MESSAGE
 0003FA 4780 73FA            00420  2467     229.              BZ    SMN3                    NO MORE
 0003FE 1220                        2468     230.              LTR   SR,R0
 000400 4740 7048            0006E  2469     231.              BM    ILLVAL
 000404 5920 7BCE            00BF4  2470     232.              C     SR,=A(15)
 000408 4720 7048            0006E  2471     233.              BH    ILLVAL
 00040C 5800 7BD2            00BF8  2472     234.              L     R0,=X'00008000'
 000410 8800 2000            00000  2473     235.              SRL   R0,@SR
 000414 5600 8028            00028  2474     236.              O     R0,SEVWMSK
 000418 5000 8028            00028  2475     237.              ST    R0,SEVWMSK
 00041C 47F0 73CA            003F0  2476     238.              B     SMN2
                                    2477     239.
 000420                             2478     240.     SMN3     LABEL ,                      NEW MONITOR MASKS
 000420 4100 0012            00012  2480     241.              VSET  18,SEVWMSK
 000424 4110 8028/0AFB       00028  2494             +
 00042A 4770 7444            0046A  2504     242.              BNZ   SMNPROG
 00042E 07F7                        2505     243.              BR    BR
 000430 5000044C40                  2506     244.     MONTBL   SCKW  ,MNCLASS,I,15           JUST AN INTEGER
 000435 0000000F                    2508             +
 000439                             2509     245.              SCKW  NONE,,A                 JUST IGNORE
 000439 0B000000D5D6D5C5            2510             +
 000441                             2511     246.              SCKW  ALL,MNALL
 000441 02000462C1D3D3              2512             +
 000448 FF0005DC                    2513     247.              SCKW  ,EVREG1                 LIKE A REGISTER LIST?
                                    2515     248.
 00044C 5800 7BD2            00BF8  2516     249.     MNCLASS  L     R0,=X'00008000'
 000450 5810 A2C4            002C4  2517     250.              L     R1,CLWKWVAL             VALUE OF INTEGER
 000454 8800 1000            00000  2518     251.              SRL   R0,@R1
 000458 5600 8028            00028  2519     252.              O     R0,SEVWMSK
 00045C 5000 8028            00028  2520     253.              ST    R0,SEVWMSK
 000460 07FE                        2521     254.              SCRTN (15)
                                    2528     255.
 000462 D601 802A 7C1E 0002A 00C44  2529     256.     MNALL    OC    SEVWMSK+2(2),=X'FFFF'
1VSTC     (VSTC00) (09:50) (22MAR04) ORVYL'S SET AND CLEAR COMMANDS                                                         Page   20
0Current Usings:  (BASE,R7) (SEVWA,R8) (CLW,R10)
0Loc    Object Code    Addr1 Addr2  Stmt Lv Lineno    Source Statement           (Hibal 5, Asmedit 3.3)  HLASM R4.0  2004/03/22 09.50
+___    ______ ____    _____ _____  ____ __ ______    ______ _________
0000468 07FE                        2530     257.              SCRTN (15)
                                    2537     258.
 00046A 4110 0103            00103  2538     259.     SMNPROG  SEG   'Monitor set by your program'
 00046E 4590 7B72            00B98  2540             +
 000472 47F0 706C            00092  2541     260.              B     ERROR
 DROP   SEVWA,R8                    2542     261.              DROP  WAR                     ##
1VSTC     (VSTC00) (09:50) (22MAR04) ORVYL'S SET AND CLEAR COMMANDS                                                         Page   21
0Current Usings:  (BASE,R7) (CLW,R10)
0Loc    Object Code    Addr1 Addr2  Stmt Lv Lineno    Source Statement           (Hibal 5, Asmedit 3.3)  HLASM R4.0  2004/03/22 09.50
+___    ______ ____    _____ _____  ____ __ ______    ______ _________
0                                   2550     263.     *  SET EVENT
                                    2551     264.     *
 USING  SEVWA,R8                    2552     265.              USING SEVWA,WAR               ##
 000476                             2561     266.     SETEVENT LABEL ,
 000476 4D90 702E            00054  2563     267.              PRVBLOCK ,
 00047A 41D0 8034            00034  2566     268.              LA    R13,SEVWA+SEVWASIZ      RESERVE SOME STACK
 00047E                             2567     269.              CLEAR (SEVWMSK,12)
 00047E D70B 8028 8028 00028 00028  2573             +
 000484 9160 A209      00209        2574     270.              IF    (CLWPFPL+CLWPFPIC,Z),SEVNPIC  ANY PROGRAM TO MONITOR?
 000488 4780 7606            0062C  2591             +
 00048C 1B33                        2597     271.              CLEAR TR                      NO REGISTER LIST YET
 00048E 4110 7542            00568  2601     272.              SCAN  EVENTBL,CLWKWCB
 000492 41F0 A2C4            002C4  2615             +
 000496 58E0 7BA2/0DEE       00BC8  2618             +
 00049C 4740 700C            00032  2620     273.              BM    SCRET                   ERROR IN SCAN
 0004A0 947F A20A      0020A        2621     274.              CLEAR CLWMEVCN                RESET CONTINUE FLAG
 0004A4 D203 802C A01C 0002C 0001C  2628     275.              MVC   SEVWSTRT(4),CLWUPST     DEFAULT RANGE
 0004AA 9180 8029      00029        2629     276.              TM    SEVWFL,SEVWFRAN         RANGE SPECIFIED?
 0004AE 4780 74EE            00514  2630     277.              BZ    SEV1                    NO
 0004B2 9160 8028      00028        2631     278.              TM    SEVWMSK,PEFETCH+PESTORE FETCH OR STORE SET?
 0004B6 4770 7498            004BE  2632     279.              BNZ   SEV0                    YES
 0004BA 9660 8028      00028        2633     280.              OI    SEVWMSK,PEFETCH+PESTORE SET BOTH BY DEFAULT
 0004BE 1814/1805                   2634     281.     SEV0     SCINIT (QR),(RR),CLWKWCB
 0004C2 41F0 A2C4            002C4  2651             +
 0004C6 58E0 7BCA/0DEE       00BF0  2654             +
 0004CC 5890 7BA6/0D99       00BCC  2656     282.              VCALL EVAL
 0004D2 4740 706C            00092  2660     283.              BM    ERROR                   PRINT ERROR MESSAGE
 0004D6 4780 7054            0007A  2661     284.              BZ    MISSING
 0004DA 5400 7BD6            00BFC  2662     285.              N     R0,=X'7FFFFFFF'
 0004DE 9140 A20C      0020C        2663     286.              IF    ~CLWSSP,'N  R0,=X"00FFFFFF"'
 0004E2 4710 74C4            004EA  2673             +
 0004E6 5400 7BAE            00BD4  2679             +
 0004EA 5000 802C            0002C  2684     287.              ST    R0,SEVWSTRT
 0004EE 5000 8030            00030  2685     288.              ST    R0,SEVWEND              ASSUME END=START
 0004F2 5890 7BA6/0D99       00BCC  2686     289.              VCALL EVAL
 0004F8 4740 706C            00092  2690     290.              BM    ERROR                   PRINT ERROR MESSAGE
 0004FC 4780 74EE            00514  2691     291.              BZ    SEV1
 000500 5400 7BD6            00BFC  2692     292.              N     R0,=X'7FFFFFFF'
 000504 9140 A20C      0020C        2693     293.              IF    ~CLWSSP,'N  R0,=X"00FFFFFF"'
 000508 4710 74EA            00510  2703             +
 00050C 5400 7BAE            00BD4  2709             +
 000510 5000 8030            00030  2714     294.              ST    R0,SEVWEND
 000514 1233                        2715     295.     SEV1     LTR   TR,TR                   REG LIST?
 000516 4780 7532            00558  2716     296.              BZ    SEV3
 00051A 1812/1803                   2717     297.              SCINIT (SR),(TR),CLWKWCB
 00051E 41F0 A2C4            002C4  2734             +
 000522 58E0 7BCA/0DEE       00BF0  2737             +
 000528 5890 7BA6/0D99       00BCC  2739     298.     SEV2     VCALL EVAL                    GET REG
 00052E 4740 706C            00092  2743     299.              BM    ERROR                   PRINT ERROR MESSAGE
 000532 4780 7532            00558  2744     300.              BZ    SEV3                    NO MORE
 000536 1220                        2745     301.              LTR   SR,R0
 000538 4740 7048            0006E  2746     302.              BM    ILLVAL
 00053C 5920 7BDA            00C00  2747     303.              C     SR,=A(16)
 000540 47B0 7048            0006E  2748     304.              BNL   ILLVAL
1VSTC     (VSTC00) (09:50) (22MAR04) ORVYL'S SET AND CLEAR COMMANDS                                                         Page   22
0Current Usings:  (BASE,R7) (SEVWA,R8) (CLW,R10)
0Loc    Object Code    Addr1 Addr2  Stmt Lv Lineno    Source Statement           (Hibal 5, Asmedit 3.3)  HLASM R4.0  2004/03/22 09.50
+___    ______ ____    _____ _____  ____ __ ______    ______ _________
0000544 5800 7BD2            00BF8  2749     305.              L     R0,=X'00008000'
 000548 8800 2000            00000  2750     306.              SRL   R0,@SR
 00054C 5600 8028            00028  2751     307.              O     R0,SEVWMSK
 000550 5000 8028            00028  2752     308.              ST    R0,SEVWMSK
 000554 47F0 7502            00528  2753     309.              B     SEV2
                                    2754     310.
 000558                             2755     311.     SEV3     LABEL ,
 000558 4100 0011            00011  2757     312.              VSET  17,SEVWMSK
 00055C 4110 8028/0AFB       00028  2771             +
 000562 4770 75FA            00620  2781     313.              BNZ   SEVPROG
 000566 07F7                        2782     314.              BR    BR
0                                   2784     316.     *  EVENT KEYWORDS
                                    2785     317.     *
 000568                             2786     318.     EVENTBL  SCKW  FETCH,EVFET,A
 000568 0C0005B0C6C5E3C3            2787             +
 000571                             2788     319.              SCKW  STORE,EVSTO,A
 000571 0C0005B6E2E3D6D9            2789             +
 00057A                             2790     320.              SCKW  BRANCH,EVBRA,A
 00057A 0D0005BCC2D9C1D5            2791             +
 000584                             2792     321.              SCKW  REGISTER,EVREG,(A,P)
 000584 8F0005C2D9C5C7C9            2793             +
 000590                             2794     322.              SCKW  RANGE,EVRAN,(A,P)
 000590 8C0005F8D9C1D5C7            2795             +
 000599                             2796     323.              SCKW  CONTINUE,EVCON,A
 000599 0F000614C3D6D5E3            2797             +
 0005A5 01000614C7D6                2798     324.              SCKW  GO,EVCON
 0005AB FF000086                    2800     325.              SCKW  ,UNREC
                                    2802     326.
 0005AF 00
 0005B0 9640 8028      00028        2803     327.     EVFET    OI    SEVWMSK,PEFETCH
 0005B4 07FE                        2804     328.              SCRTN (15)
                                    2811     329.
 0005B6 9620 8028      00028        2812     330.     EVSTO    OI    SEVWMSK,PESTORE
 0005BA 07FE                        2813     331.              SCRTN (15)
                                    2820     332.
 0005BC 9680 8028      00028        2821     333.     EVBRA    OI    SEVWMSK,PEBRANCH
 0005C0 07FE                        2822     334.              SCRTN (15)
                                    2829     335.
 0005C2 4780 7054            0007A  2830     336.     EVREG    BZ    MISSING                 NO PARM
 0005C6 9610 8028      00028        2831     337.              OI    SEVWMSK,PEREG           SET REGISTER EVENT
 0005CA 5900 7BDE            00C04  2832     338.              C     R0,=A(3)                POSSIBLY 'ALL'?
 0005CE 4770 75B6            005DC  2833     339.              BNE   EVREG1
 0005D2 D502 1000 7C2E 00000 00C54  2834     340.              CLC   @R1(3),=C'ALL'
 0005D8 4780 75CA            005F0  2835     341.              BE    EVREGALL
 0005DC 954D 1000      00000        2836     342.     EVREG1   CLI   @R1,C'('                PAREN STRING?
 0005E0 4770 7060            00086  2837     343.              BNE   UNREC
 0005E4 4120 1001            00001  2838     344.              LA    SR,@R1+1                STRING POINTER
 0005E8 1830                        2839     345.              LR    TR,R0
 0005EA 0630                        2840     346.              DECR  TR
 0005EC 0630                        2842     347.              DECR  TR
 0005EE 07FE                        2844     348.              SCRTN (15)
 0005F0 D201 802A 7C1E 0002A 00C44  2851     349.     EVREGALL MVC   SEVWMSK+2(2),=X'FFFF'   SET ALL BITS
 0005F6 07FE                        2852     350.              SCRTN (15)
1VSTC     (VSTC00) (09:50) (22MAR04) ORVYL'S SET AND CLEAR COMMANDS                                                         Page   23
0Current Usings:  (BASE,R7) (SEVWA,R8) (CLW,R10)
0Loc    Object Code    Addr1 Addr2  Stmt Lv Lineno    Source Statement           (Hibal 5, Asmedit 3.3)  HLASM R4.0  2004/03/22 09.50
+___    ______ ____    _____ _____  ____ __ ______    ______ _________
0                                   2859     351.
 0005F8 4780 7054            0007A  2860     352.     EVRAN    BZ    MISSING                 NO PARM
 0005FC 954D 1000      00000        2861     353.              CLI   @R1,C'('                PAREN STRING?
 000600 4770 7060            00086  2862     354.              BNE   UNREC
 000604 9680 8029      00029        2863     355.              OI    SEVWFL,SEVWFRAN         MARK RANGE
 000608 4140 1001            00001  2864     356.              LA    QR,@R1+1
 00060C 1850                        2865     357.              LR    RR,R0
 00060E 0650                        2866     358.              DECR  RR
 000610 0650                        2868     359.              DECR  RR
 000612 07FE                        2870     360.              SCRTN (15)
                                    2877     361.
 000614 4110 011F            0011F  2878     362.     EVCON    SEG   'Continue option moved to the "GO" command'
 000618 4590 7B72            00B98  2880             +
 00061C 47F0 706C            00092  2881     363.              B     ERROR
                                    2882     364.
 000620 4110 0149            00149  2883     365.     SEVPROG  SEG   'Program event recording set by your program'
 000624 4590 7B72            00B98  2885             +
 000628 47F0 706C            00092  2886     366.              B     ERROR
                                    2887     367.
 00062C 4110 0175            00175  2888     368.     SEVNPIC  SEG   'No program in memory'
 000630 4590 7B72            00B98  2890             +
 000634 47F0 706C            00092  2891     369.              B     ERROR
 DROP   SEVWA,R8                    2892     370.              DROP  WAR                     ##
                                    2899     371.     PEFETCH  EQU   B'01000000'
                                    2900     372.     PESTORE  EQU   B'00100000'
                                    2901     373.     PEBRANCH EQU   B'10000000'
                                    2902     374.     PEREG    EQU   B'00010000'
                                    2903     375.
 000000                00000 00034  2904     376.     SEVWA    DSECT
 000000                             2905     377.              VSA   2,11                    REG SAVE
 000028                             2907     378.     SEVWMSK  DS    X                       PER MASK
 000029                             2908     379.     SEVWFL   DS    X                       UNUSED
                                    2909     380.
                                    2910     381.     SEVWFRAN EQU   X'80'                   RANGE SPECIFIED
                                    2911     382.
 00002A                             2912     383.     SEVWREGS DS    X                       REGISTER MASKS
 00002C                             2913     384.     SEVWSTRT DS    A                       START ADDRESS
 000030                             2914     385.     SEVWEND  DS    A                       END ADDRESS
                                    2915     386.     SEVWASIZ EQU   *-SEVWA
 000638                00000 00F48  2916     387.     VSTC     CSECT
1VSTC     (VSTC00) (09:50) (22MAR04) ORVYL'S SET AND CLEAR COMMANDS                                                         Page   24
0Current Usings:  (BASE,R7) (CLW,R10)
0Loc    Object Code    Addr1 Addr2  Stmt Lv Lineno    Source Statement           (Hibal 5, Asmedit 3.3)  HLASM R4.0  2004/03/22 09.50
+___    ______ ____    _____ _____  ____ __ ______    ______ _________
0                                   2919     389.     *
                                    2920     390.     *        SET ORVYL TIMER INTERVAL
                                    2921     391.     *
 000638                             2922     392.     SETTIMER DS    0H                 GET TIMER INTERVAL
 000638 4780 7054            0007A  2923     393.              BZ    MISSING
 00063C 1B22                        2924     394.              SR    SR,SR
 00063E 5830 F000            00000  2925     395.              L     TR,@R15            GET TIMER VALUE IN 1000THS SEC
 000642 5930 7BE2            00C08  2926     396.              IF    ((TR,LT,100),AND,(TR,GT,0)),BEGIN
 000646 47B0 7638            0065E  2940             +
 00064A 5930 7BE6            00C0C  2953             +
 00064E 47D0 7638            0065E  2954             +
 000652 4110 018A            0018A  2959  1  397.                SEG   'Value too small, interval set to minimum.'
 000656 4590 7B72            00B98  2961  1          +
 00065A 4D90 7084            000AA  2962  1  398.                LCALL STCWRITE
 00065E                             2964     399.              END
 00065E 4133 0063            00063  2968     400.              LA    TR,99(TR)
 000662 5D20 7BEA            00C10  2969     401.              D     SR,=F'100'         TR  -  TIMER VALUE IN 10TH OF SECS.
 000666 4030 A232            00232  2970     402.              STH   TR,CLWTIVAL
 00066A 9140 A20B      0020B        2971     403.              IF    CLWFPRGL,BEGIN     CHECK FOR INTERVAL VALIDITY
 00066E 47E0 765A            00680  2981             +
 000672 4110 01B4            001B4  2986  1  404.                SEG   'Timer may not be set when Proglook in effect.'
 000676 4590 7B72            00B98  2988  1          +
 00067A 4D90 7084            000AA  2989  1  405.                LCALL STCWRITE
 00067E 07F7                        2991  1  406.                BR    BR
 000680                             2992     407.              END
 000680 D501 A230 7C20 00230 00C46  2996     408.              CLC   CLWTIMAX,=H'0'
 000686 4770 767E            006A4  2997     409.              IF    (E,AND,(TR,GT,32000)),BEGIN   MAX INTERVAL IS 50 MINS
 00068A 5930 7BEE            00C14  3018             +
 00068E 47D0 767E            006A4  3019             +
 000692 D201 A232 7C22 00232 00C48  3024  1  410.                MVC   CLWTIVAL(2),=H'32000'
 000698 4110 01E2            001E2  3025  1  411.                SEG   'Value too large, interval set to maximum. '
 00069C 4590 7B72            00B98  3027  1          +
 0006A0 4D90 7084            000AA  3028  1  412.                LCALL STCWRITE
 0006A4                             3030     413.              END
 0006A4 D501 A230 7C20 00230 00C46  3034     414.              CLC   CLWTIMAX(2),=H'0'     IF MAX INTERVAL LIMIT, CHECK VALUE
 0006AA 4780 76BC            006E2  3035     415.              IF    NE,BEGIN
 0006AE D501 A232 A230 00232 00230  3046  1  416.                CLC   CLWTIVAL(2),CLWTIMAX
 0006B4 47D0 76A4            006CA  3047  1  417.                IF    H,BEGIN
 0006B8 D201 A232 A230 00232 00230  3058  2  418.                  MVC   CLWTIVAL(2),CLWTIMAX
 0006BE 4110 01E2            001E2  3059  2  419.                  SEG   'Value too large, interval set to maximum. '
 0006C2 4590 7B72            00B98  3061  2          +
 0006C6 4D90 7084            000AA  3062  2  420.                  LCALL STCWRITE
 0006CA                             3064  1  421.                END
 0006CA 1233/4770 76BC       006E2  3068  1  422.                IF    (TR,Z),BEGIN
 0006D0 D201 A232 A230 00232 00230  3082  2  423.                  MVC   CLWTIVAL(2),CLWTIMAX
 0006D6 4110 020D            0020D  3083  2  424.                  SEG   'Timer may not be cleared, interval set to maximum. '
 0006DA 4590 7B72            00B98  3085  2          +
 0006DE 4D90 7084            000AA  3086  2  425.                  LCALL STCWRITE
 0006E2                             3088  1  426.                END
 0006E2                             3092     427.              END
                                    3096     428.     *
                                    3097     429.     *     GOT INTERVAL VALUE,  SET ORVYL TIMER
                                    3098     430.     *
 0006E2 4810 A232            00232  3099     431.              LH    R1,CLWTIVAL        IF INTERVAL IS ZERO, TURN OFF TIMER
1VSTC     (VSTC00) (09:50) (22MAR04) ORVYL'S SET AND CLEAR COMMANDS                                                         Page   25
0Current Usings:  (BASE,R7) (CLW,R10)
0Loc    Object Code    Addr1 Addr2  Stmt Lv Lineno    Source Statement           (Hibal 5, Asmedit 3.3)  HLASM R4.0  2004/03/22 09.50
+___    ______ ____    _____ _____  ____ __ ______    ______ _________
00006E6 4800 A234            00234  3100     432.              LH    R0,CLWTMAX
 0006EA 1211/4770 76E2       00708  3101     433.              IF    (R1,Z),BEGIN
 0006F0 1200/4770 76DA       00700  3115  1  434.                IF    (R0,Z),BEGIN
 0006F6 1B11                        3129  2  435.                  SR    R1,R1
 0006F8 4100 0099/0AFB       00099  3130  2  436.                  VSET  153,(R1)
 0006FE 07F7                        3151  2  437.                  BR    BR
 000700                             3152  1  438.                END
 000700 76DE           00700 006F4  3156  1  439.                ELSE BEGIN                        (UNLESS CPU LIMIT SET, THEN
 000700 47F0 76E2            00708  3161  1          +
 000704 4000 A232            00232  3167  2  440.                  STH   R0,CLWTIVAL                    SET MAX TIMEOUT)
 000708                             3168  1  441.                END
 000708                             3172     442.              END
 000708 4100 0004/0AFA       00004  3176     443.              SENSE 4                  GET CURRENT TIME
 00070E 183F                        3195     444.              LR    TR,R15
 000710 1B22                        3196     445.              SR    SR,SR
 000712 5D20 7BF2            00C18  3197     446.              D     SR,=F'3840'        TR - CURRENT TIME IN 10THS
 000716 4820 A232            00232  3198     447.              LH    SR,CLWTIVAL        SR - TIIMER INTERVAL IN 10THS
 00071A 4810 A234            00234  3199     448.              LH    R1,CLWTMAX         R1 - CPU TIME LIMIT IN 10THS
 00071E 1841                        3200     449.              LR    QR,R1              QR - TIME LEFT TILL CPU MAX TIMEOUT
 000720 1B43                        3201     450.              SR    QR,TR
 000722 1211/4780 770E       00734  3202     451.              IF    (R1,NZ),BEGIN           IF MAX CPU LIMIT THEN
 000728 1931                        3216  1  452.                CR    TR,R1              CURNT TIME > CPU LIMIT, DON'T RESET
 00072A 07B7                        3217  1  453.                BNLR  BR                 TIMER    (GO BYE-BYE)
 00072C 1924/47D0 770E       00734  3218  1  454.                IF    ('CR SR,QR',H),BEGIN
 000732 1824                        3231  2  455.                  LR    SR,QR              NEXT TIMEOUT > CPU LIMIT, THEN USE
 000734                             3232  1  456.                END   ,                   CPU LIMIT
 000734                             3236     457.              END
 000734 4C20 7C24            00C4A  3240     458.              MH    SR,=H'3840'        TIMEOUT INTERVAL
 000738 4100 0099/1812       00099  3241     459.              VSET  153,(SR)           SET TIMER
 00073E 0AFB                        3261             +
 000740 07F7                        3263     460.              BR    BR                 DONE
1VSTC     (VSTC00) (09:50) (22MAR04) ORVYL'S SET AND CLEAR COMMANDS                                                         Page   26
0Current Usings:  (BASE,R7) (CLW,R10)
0Loc    Object Code    Addr1 Addr2  Stmt Lv Lineno    Source Statement           (Hibal 5, Asmedit 3.3)  HLASM R4.0  2004/03/22 09.50
+___    ______ ____    _____ _____  ____ __ ______    ______ _________
0                                   3265     462.     *  SET ZOT VALUE (VALUE TO INITIALIZE CORE TO)
                                    3266     463.     *
 000742                             3267     464.     SETZOT   LABEL ,
 000742 4D90 702E            00054  3269     465.              PRVBLOCK ,
 000746 58E0 7BF6/0DEE       00C1C  3272     466.              SCTELL ,CLWKWCB               SAVE SCAN
 00074C 1820                        3280     467.              LR    SR,R0
 00074E 1831                        3281     468.              LR    TR,R1
 000750 1B11/41F0 A2C4       002C4  3282     469.              SCAN  ,CLWKWCB                GET TOKEN
 000756 58E0 7BA2/0DEE       00BC8  3296             +
 00075C 4780 7768            0078E  3298     470.              BZ    DODEFZOT                NOTHING THERE, TAKE DEFAULT
 000760 1813/1802                   3299     471.              SCINIT (TR),(SR),CLWKWCB      RESTORE SCAN
 000764 41F0 A2C4            002C4  3316             +
 000768 58E0 7BCA/0DEE       00BF0  3319             +
 00076E 4100 0001            00001  3321     472.              LA    R0,1                    ONLY 1 BYTE ALLOWED
 000772 4110 A2E8            002E8  3322     473.              LA    R1,CLWTEMP              WHERE TO PUT IT
 000776 5890 7BFA/0D99       00C20  3323     474.              VCALL EVHEX                   GET HEX STRING
 00077C 4770 706C            00092  3327     475.              BNZ   ERROR                   BAD VALUE
 000780 4100 0017/1F11       00017  3328     476.              VSET  23,LC:CLWTEMP           SET ZOT CHARACTER
 000786 4310 A2E8/0AFB       002E8  3344             +
 00078C 07F7                        3355     477.              BR    BR                      DONE.
                                    3356     478.
 00078E 4100 0050/0AED       00050  3357     479.     DODEFZOT CLPSERV RSTRASH               RESET THE TRASH BYTE
 000794 07F7                        3367     480.              BR    BR
1VSTC     (VSTC00) (09:50) (22MAR04) ORVYL'S SET AND CLEAR COMMANDS                                                         Page   27
0Current Usings:  (BASE,R7) (CLW,R10)
0Loc    Object Code    Addr1 Addr2  Stmt Lv Lineno    Source Statement           (Hibal 5, Asmedit 3.3)  HLASM R4.0  2004/03/22 09.50
+___    ______ ____    _____ _____  ____ __ ______    ______ _________
0                                   3369     482.     *
                                    3370     483.     *    SET REGION SIZE
                                    3371     484.     *
 USING  SEVWA,R8                    3372     485.              USING SEVWA,WAR               ##
 000796                             3381     486.     SETREGN  LABEL ,
 000796 41D0 8034            00034  3383     487.              LA    R13,SEVWA+SEVWASIZ      RESERVE SOME STACK
 00079A                             3384     488.              CLEAR (SEVWMSK,12)
 00079A D70B 8028 8028 00028 00028  3390             +
 0007A0 9140 A207      00207        3391     489.              IF    CLWFCMD,'LA  R1,REGNKTB'  COMMAND SVC
 0007A4 47E0 7786            007AC  3401             +
 0007A8 4110 7800            00826  3407             +
 0007AC 778A           007AC 007A6  3412     490.              ELSE  'LA  R1,REGNTBL'        USER TYPED COMMAND
 0007AC 47F0 778E            007B4  3417             +
 0007B0 4110 77F4            0081A  3424             +
 0007B4 41F0 A2C4            002C4  3429     491.              SCAN  (R1),CLWKWCB
 0007B8 58E0 7BA2/0DEE       00BC8  3443             +
 0007BE 4740 700C            00032  3445     492.              BM    SCRET
 0007C2 5830 8030            00030  3446     493.              L     TR,SEVWEND              GET RANGE VALUE
 0007C6 1233/47D0 7048       0006E  3447     494.              IF    (TR,NP),ILLVAL
 0007CC 5930 A020            00020  3464     495.              IF    (TR,GT,CLWUPML),BEGIN    OVER MAXIMUM REGION SIZE
 0007D0 47D0 77BA            007E0  3476             +
 0007D4 4110 0241            00241  3481  1  496.                SEG   'Region value too large'
 0007D8 4590 7B72            00B98  3483  1          +
 0007DC 47F0 706C            00092  3484  1  497.                B     ERROR
 0007E0                             3485     498.              END   ,
 0007E0 58B0 A000            00000  3489     499.              L     R11,CLWSCP
 USING  SCP,R11                     3490     500.              WITH  (SCP,R11),BEGIN
 0007E4 9160 A209      00209        3504  1  501.                IF    CLWPFPL+CLWPFPIC,BEGIN
 0007E8 4780 77E2            00808  3517  1          +
 0007EC 4B30 A024            00024  3522  2  502.                  SH    TR,CLWUPRSV             REMOVE PROGRAM SIZE
 0007F0 47D0 77E8            0080E  3523  2  503.                  BNP   TOOLOW
 0007F4 9140 A207      00207        3524  2  504.                  IF    ~CLWFCMD,'STH  TR,CLWUPURV'  RESET IF USER COMMAND
 0007F8 4710 77DA            00800  3534  2          +
 0007FC 4030 A026            00026  3540  2          +
 000800 4B30 B1F8            001F8  3545  2  505.                  SH    TR,SCPRESRV             REDUCE BY AMOUNT USED
 000804 47D0 77E8            0080E  3546  2  506.                  BNP   TOOLOW
 000808                             3547  1  507.                END   ,
 000808 4030 B1FA            001FA  3551  1  508.                STH   TR,SCPUNRSV             SET NEW PAGE LIMIT
 DROP   SCP,R11                     3552     509.              END   ,
 00080C 07F7                        3560     510.              BR    BR
                                    3561     511.
 00080E 4110 0258            00258  3562     512.     TOOLOW   SEG   'Region value too small'
 000812 4590 7B72            00B98  3564             +
 000816 47F0 706C            00092  3565     513.              B     ERROR
                                    3566     514.
 00081A                             3567     515.     REGNTBL  SCKW  MAX,RGNMAX
 00081A 02000864D4C1E7              3568             +
 000821 2000087040                  3569     516.              SCKW  ,RGNVAL,(I,PI)
 000826 FF00082A                    3571     517.     REGNKTB  SCKW  ,RGNK
                                    3573     518.
 00082A                             3574     519.     RGNK     LABEL ,
 00082A 1820                        3576     520.              LR    SR,R0                   LENGTH
 00082C 0620                        3577     521.              DECR  SR
 00082E 4122 1000            00000  3579     522.              LA    SR,@R1(SR)              LAST POSITION
1VSTC     (VSTC00) (09:50) (22MAR04) ORVYL'S SET AND CLEAR COMMANDS                                                         Page   28
0Current Usings:  (BASE,R7) (SEVWA,R8) (CLW,R10)
0Loc    Object Code    Addr1 Addr2  Stmt Lv Lineno    Source Statement           (Hibal 5, Asmedit 3.3)  HLASM R4.0  2004/03/22 09.50
+___    ______ ____    _____ _____  ____ __ ______    ______ _________
0000832 95D2 2000      00000        3580     523.              CLI   @SR,C'K'                RIGHT FORMAT?
 000836 4770 7060            00086  3581     524.              BNE   UNREC
 00083A 90EF D000            00000  3582     525.              VPUSH R14,R15,*
 00083E 41D0 D008            00008  3584             +
 000842 0600                        3585     526.              DECR  R0
 000844 58E0 7BFE/0DEE       00C24  3587     527.              XCALL DTB                     CONVERT
 00084A 4770 7048            0006E  3591     528.              BNZ   ILLVAL                  NO GOOD
 00084E 41F0 F003            00003  3592     529.              LA    R15,@R15+3              ROUND UP
 000852 88F0 0002            00002  3593     530.              SRL   R15,2                   TO NUMBER OF PAGES
 000856 50F0 8030            00030  3594     531.              ST    R15,SEVWEND
 00085A 4BD0 7C26            00C4C  3595     532.              VPOP  R14,R15,*
 00085E 98EF D000            00000  3597             +
 000862 07FE                        3598     533.              SCRTN (R15)
                                    3604     534.
 000864 4110 026F            0026F  3605     535.     RGNMAX   SEG   '"MAX" no longer supported - command ignored.'
 000868 4590 7B72            00B98  3607             +
 00086C 47F0 707C            000A2  3608     536.              B     STCWREX
                                    3609     537.
 000870 5810 A2C4            002C4  3610     538.     RGNVAL   L     R1,CLWKWVAL             REGION VALUE
 000874 5010 8030            00030  3611     539.              ST    R1,SEVWEND
 000878 07FE                        3612     540.              SCRTN (15)
 DROP   SEVWA,R8                    3619     541.              DROP  WAR                     ##
1VSTC     (VSTC00) (09:50) (22MAR04) ORVYL'S SET AND CLEAR COMMANDS                                                         Page   29
0Current Usings:  (BASE,R7) (CLW,R10)
0Loc    Object Code    Addr1 Addr2  Stmt Lv Lineno    Source Statement           (Hibal 5, Asmedit 3.3)  HLASM R4.0  2004/03/22 09.50
+___    ______ ____    _____ _____  ____ __ ______    ______ _________
0                                   3627     543.     *
                                    3628     544.     * PROGRAM SET OPTIONS
                                    3629     545.     *
                                    3631     547.              VPMTAB SETTAB,15
 00087A 41F0 0024            00024  3632    01-VPMTA +SETENTRY  LA   15,(10-1)*4
                                    3633    01-VPMTA +$1324    EQU   *
 00087E 5890 7C02/0D99       00C28  3635     549.              VCALL PROGRAMS
 000884 4770 7074            0009A  3639     550.              BNZ   WYLMIL                  PASS ON TO OTHERS
 000888 07F7                        3640     551.              BR    BR
-
-
                                    3642     553.     *
                                    3643     554.     * ORVYL SYSTEM SET OPTIONS
                                    3644     555.     *
                                    3646     557.              VSSVTAB SETTAB,15
 00088A 41F0 0000            00000  3647    01-VSSVT +SETVREMV  LA 15,(1-1)*4
 00088E 47F0 78F8            0091E  3648    01-VSSVT +         B     $1326
 000892 41F0 0004            00004  3649    01-VSSVT +SETVADDV  LA 15,(2-1)*4
 000896 47F0 78F8            0091E  3650    01-VSSVT +         B     $1326
 00089A 41F0 0008            00008  3651    01-VSSVT +SETVREGI  LA 15,(3-1)*4
 00089E 47F0 78F8            0091E  3652    01-VSSVT +         B     $1326
 0008A2 41F0 000C            0000C  3653    01-VSSVT +SETREFRE  LA 15,(4-1)*4
 0008A6 47F0 78F8            0091E  3654    01-VSSVT +         B     $1326
 0008AA 41F0 0010            00010  3655    01-VSSVT +SETPSCLP  LA 15,(5-1)*4
 0008AE 47F0 78F8            0091E  3656    01-VSSVT +         B     $1326
 0008B2 41F0 0014            00014  3657    01-VSSVT +SETNOPSC  LA 15,(6-1)*4
 0008B6 47F0 78F8            0091E  3658    01-VSSVT +         B     $1326
 0008BA 41F0 0018            00018  3659    01-VSSVT +SETCLPER  LA 15,(7-1)*4
 0008BE 47F0 78F8            0091E  3660    01-VSSVT +         B     $1326
 0008C2 41F0 001C            0001C  3661    01-VSSVT +SETVFILE  LA 15,(8-1)*4
 0008C6 47F0 78F8            0091E  3662    01-VSSVT +         B     $1326
 0008CA 41F0 0020            00020  3663    01-VSSVT +SETNOVFI  LA 15,(9-1)*4
 0008CE 47F0 78F8            0091E  3664    01-VSSVT +         B     $1326
 0008D2 41F0 0024            00024  3665    01-VSSVT +SETVPATH  LA 15,(10-1)*4
 0008D6 47F0 78F8            0091E  3666    01-VSSVT +         B     $1326
 0008DA 41F0 0028            00028  3667    01-VSSVT +SETNOVPA  LA 15,(11-1)*4
 0008DE 47F0 78F8            0091E  3668    01-VSSVT +         B     $1326
 0008E2 41F0 002C            0002C  3669    01-VSSVT +SETVNET   LA 15,(12-1)*4
 0008E6 47F0 78F8            0091E  3670    01-VSSVT +         B     $1326
 0008EA 41F0 0030            00030  3671    01-VSSVT +SETNOVNE  LA 15,(13-1)*4
 0008EE 47F0 78F8            0091E  3672    01-VSSVT +         B     $1326
 0008F2 41F0 0034            00034  3673    01-VSSVT +SETVOSF   LA 15,(14-1)*4
 0008F6 47F0 78F8            0091E  3674    01-VSSVT +         B     $1326
 0008FA 41F0 0038            00038  3675    01-VSSVT +SETNOVOS  LA 15,(15-1)*4
 0008FE 47F0 78F8            0091E  3676    01-VSSVT +         B     $1326
 000902 41F0 003C            0003C  3677    01-VSSVT +SETVJES   LA 15,(16-1)*4
 000906 47F0 78F8            0091E  3678    01-VSSVT +         B     $1326
 00090A 41F0 0040            00040  3679    01-VSSVT +SETNOVJE  LA 15,(17-1)*4
 00090E 47F0 78F8            0091E  3680    01-VSSVT +         B     $1326
 000912 41F0 0044            00044  3681    01-VSSVT +SETVMAIN  LA 15,(18-1)*4
1VSTC     (VSTC00) (09:50) (22MAR04) ORVYL'S SET AND CLEAR COMMANDS                                                         Page   30
0Current Usings:  (BASE,R7) (CLW,R10)
0Loc    Object Code    Addr1 Addr2  Stmt Lv Lineno    Source Statement           (Hibal 5, Asmedit 3.3)  HLASM R4.0  2004/03/22 09.50
+___    ______ ____    _____ _____  ____ __ ______    ______ _________
0000916 47F0 78F8            0091E  3682    01-VSSVT +         B     $1326
 00091A 41F0 0048            00048  3683    01-VSSVT +SETNOVMA  LA 15,(19-1)*4
                                    3684    01-VSSVT +$1326    EQU   *
 00091E 5890 7C06/0D99       00C2C  3686     559.              VCALL CLPSYSTM
 000924 4770 7074            0009A  3690     560.              BNZ   WYLMIL                  PASS ON TO OTHERS
 000928 07F7                        3691     561.              BR    BR
                                    3693     563.              VSSWTAB SETTAB,15
 00092A 41F0 0000            00000  3694    01-VSSWT +SETVCACH  LA 15,(1-1)*4
                                    3695    01-VSSWT +$1328    EQU   *
 00092E 5890 7C0A/0D99       00C30  3697     565.              VCALL CLPSYST2
 000934 4770 7074            0009A  3701     566.              BNZ   WYLMIL                  PASS ON TO OTHERS
 000938 07F7                        3702     567.              BR    BR
1VSTC     (VSTC00) (09:50) (22MAR04) ORVYL'S SET AND CLEAR COMMANDS                                                         Page   31
0Current Usings:  (BASE,R7) (CLW,R10)
0Loc    Object Code    Addr1 Addr2  Stmt Lv Lineno    Source Statement           (Hibal 5, Asmedit 3.3)  HLASM R4.0  2004/03/22 09.50
+___    ______ ____    _____ _____  ____ __ ______    ______ _________
0                                   3704     569.     *
                                    3705     570.     * FILE SET OPTIONS
                                    3706     571.     *
                                    3708     573.              VGPTAB SETTAB,15
 00093A 41F0 001C            0001C  3709    01-VGPTA +SETCLP    LA 15,(8-1)*4
 00093E 47F0 7960            00986  3710    01-VGPTA +         B     $1330
 000942 41F0 0020            00020  3711    01-VGPTA +SETFILEM  LA 15,(9-1)*4
 000946 47F0 7960            00986  3712    01-VGPTA +         B     $1330
 00094A 41F0 0024            00024  3713    01-VGPTA +SETFORMA  LA 15,(10-1)*4
 00094E 47F0 7960            00986  3714    01-VGPTA +         B     $1330
 000952 41F0 0028            00028  3715    01-VGPTA +SETNOCLP  LA 15,(11-1)*4
 000956 47F0 7960            00986  3716    01-VGPTA +         B     $1330
 00095A 41F0 002C            0002C  3717    01-VGPTA +SETNOSHA  LA 15,(12-1)*4
 00095E 47F0 7960            00986  3718    01-VGPTA +         B     $1330
 000962 41F0 0030            00030  3719    01-VGPTA +SETNOSPI  LA 15,(13-1)*4
 000966 47F0 7960            00986  3720    01-VGPTA +         B     $1330
 00096A 41F0 0034            00034  3721    01-VGPTA +SETPERMI  LA 15,(14-1)*4
 00096E 47F0 7960            00986  3722    01-VGPTA +         B     $1330
 000972 41F0 0038            00038  3723    01-VGPTA +SETPROGR  LA 15,(15-1)*4
 000976 47F0 7960            00986  3724    01-VGPTA +         B     $1330
 00097A 41F0 003C            0003C  3725    01-VGPTA +SETSHARE  LA 15,(16-1)*4
 00097E 47F0 7960            00986  3726    01-VGPTA +         B     $1330
 000982 41F0 0040            00040  3727    01-VGPTA +SETSPIFI  LA 15,(17-1)*4
                                    3728    01-VGPTA +$1330    EQU   *
 000986 5890 7C0E/0D99       00C34  3730     575.              VCALL FILES
 00098C 4770 7074            0009A  3734     576.              BNZ   WYLMIL                  PASS ON TO OTHERS
 000990 07F7                        3735     577.              BR    BR
1VSTC     (VSTC00) (09:50) (22MAR04) ORVYL'S SET AND CLEAR COMMANDS                                                         Page   32
0Current Usings:  (BASE,R7) (CLW,R10)
0Loc    Object Code    Addr1 Addr2  Stmt Lv Lineno    Source Statement           (Hibal 5, Asmedit 3.3)  HLASM R4.0  2004/03/22 09.50
+___    ______ ____    _____ _____  ____ __ ______    ______ _________
0                                   3737     579.     * CLEAR COMMAND
                                    3738     580.     *
                                    3739     581.     *
                                    3740     582.     *        NOTE:  PR IS USED AS A POINTER FOR BLANKING RECOGNIZED
                                    3741     583.     *               CLEAR OPTIONS - IT'S CONTENTS MUST BE PRESERVED
                                    3742     584.     *               THRU ALL CLEAR ROUTINES.
                                    3743     585.     *
 000992 902B D000/188D       00000  3744     586.     CLEAR    VENTER 2,11,*
 000998 41D0 D028/0D70       00028  3749             +
 00099E 5870 729A            00C38  3767     587.              L     BR,=A(BASE)             BASE AND EXIT ROUTINE
 DROP   BASE,R7
 USING  *,R7
 DROP   *,R7                        3768     588.              USING BASE,BR                 ##
 USING  BASE,R7
 0009A2 94F7 A20A      0020A        3780     589.              CLEAR CLWMCLRP                CLEAR UNREC. FLAG
 0009A6 58E0 7BF6/0DEE       00C1C  3787     590.              SCTELL ,CLWKWCB               FIND WHERE WE ARE
 0009AC 1861                        3795     591.              LR    PR,R1
 0009AE 5010 D000            00000  3796     592.              VPUSH R1,,*
 0009B2 41D0 D004            00004  3798             +
 0009B6 4110 79CC            009F2  3799     593.     CLRETRY  SCAN  CLRTBL,CLWKWCB          SCAN FOR MORE CLEARS
 0009BA 41F0 A2C4            002C4  3813             +
 0009BE 58E0 7BA2/0DEE       00BC8  3816             +
 0009C4 4740 700C            00032  3818     594.              BM    SCRET                   ILLEGAL STRING
 0009C8 9108 A20A      0020A        3819     595.              IF    ~CLWMCLRP,'BR  BR'      ANYTHING TO SEND ON?
 0009CC 4710 79AC/07F7       009D2  3829             +
 0009D2 1806                        3840     596.              LR    R0,PR                   END OF STRING
 0009D4 4120 A02D            0002D  3841     597.              LA    SR,CLWIBUF              START OF COMMAND
 0009D8 1B62                        3842     598.              SR    PR,SR                   LENGTH TO SEND ON
 0009DA 4060 A028            00028  3843     599.              STH   PR,CLWIBUFN             SAVE IT
 0009DE 4BD0 7C28            00C4E  3844     600.              VPOP  R1,,*
 0009E2 5810 D000            00000  3846             +
 0009E6 1B01                        3847     601.              SR    R0,R1                   LENGTH OF ERROR TEXT
 0009E8 58E0 7BCA/0DEE       00BF0  3848     602.              SCINIT (R1),(R0),(R15)        RESET FOR ERROR MESSAGES
 0009EE 47F0 7074            0009A  3865     603.              B     WYLMIL                  SEND THE COMMAND ON
                                    3866     604.
 0009F2                             3867     605.     CLRTBL   SCKW  CORE,CLRCORE,A
 0009F2 0B000A7CC3D6D9C5            3868             +
 0009FA                             3869     606.              SCKW  CLPERR,CLRCLPER
 0009FA 05000A66C3D3D7C5            3870             +
 000A04                             3871     607.              SCKW  TRAP,CLRTRAP,(P,PI),CLWNTRAP
 000A04 B3000A88E3D9C1D7            3872             +
 000A0C 00000008                    3873             +
 000A10 B0000AF0E3                  3874     608.              SCKW  T,CLRT,(P,PI),CLWNTRAP  FOR 'CT' ABBREVIATION
 000A15 00000008                    3876             +
 000A19                             3877     609.              SCKW  TRAPS,CLRTRAPS
 000A19 04000AF6E3D9C1D7            3878             +
 000A22 01000B02E3E2                3879     610.              SCKW  TS,CLRTS                FOR 'CTS' ABBREVIATION
                                    3881     611.     *         SCKW  SCREEN,CLRSCRN
                                    3882     612.     *         SCKW  SCRN,CLRSCRN
 000A28                             3883     613.              SCKW  EVENT,CLREVENT,A
 000A28 0C000B34C5E5C5D5            3884             +
 000A31                             3885     614.              SCKW  MONITOR,CLRMONIT,A
 000A31 0E000B5AD4D6D5C9            3886             +
 000A3C FF000A40                    3887     615.              SCKW  ,CLRUNREC
1VSTC     (VSTC00) (09:50) (22MAR04) ORVYL'S SET AND CLEAR COMMANDS                                                         Page   33
0Current Usings:  (BASE,R7) (CLW,R10)
0Loc    Object Code    Addr1 Addr2  Stmt Lv Lineno    Source Statement           (Hibal 5, Asmedit 3.3)  HLASM R4.0  2004/03/22 09.50
+___    ______ ____    _____ _____  ____ __ ______    ______ _________
0
 000A40                             3890     617.     CLRUNREC LABEL ,
 000A40 9608 A20A      0020A        3892     618.              SET   CLWMCLRP                SET UNREC. CLR FLAG
 000A44 1B16                        3898     619.              SR    R1,PR                   GET LENGTH TO BLANK
 000A46 47D0 7A34            00A5A  3899     620.              BNP   CLRUNR1                 GETTING NOWHERE FAST
 000A4A 9240 6000      00000        3900     621.              MVI   @PR,C' '                BLANK FIRST BYTE
 000A4E 4B10 7C2A            00C50  3901     622.              SH    R1,=Y(2)                REDUCE FOR EXECUTE
 000A52 4740 7A34            00A5A  3902     623.              BM    CLRUNR1
 000A56 4410 7C3C            00C62  3903     624.              EX    R1,'MVC  @PR+1(0),@PR'  BLANK IT
 000C61 00                                1          +
 000C62 D200 6001 6000 00001 00000  3911             +
 000A5A 58E0 7BF6/0DEE       00C1C  3919     625.     CLRUNR1  SCTELL ,CLWKWCB
 000A60 1861                        3928     626.              LR    PR,R1                   SAVE NEW POINTER
 000A62 47F0 7990            009B6  3929     627.              B     CLRETRY                 SCAN FOR MORE CLEARS
1VSTC     (VSTC00) (09:50) (22MAR04) ORVYL'S SET AND CLEAR COMMANDS                                                         Page   34
0Current Usings:  (BASE,R7) (CLW,R10)
0Loc    Object Code    Addr1 Addr2  Stmt Lv Lineno    Source Statement           (Hibal 5, Asmedit 3.3)  HLASM R4.0  2004/03/22 09.50
+___    ______ ____    _____ _____  ____ __ ______    ______ _________
0000A66                             3931     629.     CLRCLPER LABEL ,
 000A66 5890 7C16/0D99       00C3C  3933     630.              VCALL PRIVTEST
 000A6C 4770 7990            009B6  3937     631.              BNZ   CLRETRY                 SCAN FOR MORE CLEARS
 000A70 58B0 A000            00000  3938     632.              L     R11,CLWSCP
 000A74 947F B200      00200        3939     633.              WITH  (SCP,R11),'CLEAR SCPFERR'
 USING  SCP,R11
 DROP   SCP,R11
 000A78 47F0 7990            009B6  3969     634.              B     CLRETRY                 SCAN FOR MORE CLEARS
-
-                                   3971     636.     *
                                    3972     637.     *  CLEAR CORE
                                    3973     638.     *
 000A7C                             3974     639.     CLRCORE  LABEL ,
 000A7C 1BFF                        3976     640.              CLEAR R15                     CODE 0 FOR CLR CORE
 000A7E 5890 7C02/0D99       00C28  3980     641.              VCALL PROGRAMS
 000A84 47F0 7990            009B6  3984     642.              B     CLRETRY                 SCAN FOR MORE CLEARS
1VSTC     (VSTC00) (09:50) (22MAR04) ORVYL'S SET AND CLEAR COMMANDS                                                         Page   35
0Current Usings:  (BASE,R7) (CLW,R10)
0Loc    Object Code    Addr1 Addr2  Stmt Lv Lineno    Source Statement           (Hibal 5, Asmedit 3.3)  HLASM R4.0  2004/03/22 09.50
+___    ______ ____    _____ _____  ____ __ ______    ______ _________
0                                   3986     644.     *  CLEAR TRAP
                                    3987     645.     *
 000A88 4150 7990            009B6  3988     646.     CLRTRAP  LA    RR,CLRETRY
 000A8C 4740 7AAA            00AD0  3989     647.     CLRT1    BM    CLTILL                  BAD TRAP
 000A90 4780 7ABC            00AE2  3990     648.              BZ    MISSTRAP                NO TRAP SPECIFIED
 000A94 58F0 F000            00000  3991     649.              L     R15,@R15                GET VALUE
 000A98 06F0                        3992     650.              DECR  R15                     REDUCE FOR OFFSET
 000A9A 4CF0 7C2C            00C52  3994     651.              MH    R15,=Y(5)               OFFSET INTO TABLE
 000A9E 412F A280            00280  3995     652.              LA    SR,CLWTRAPS(15)         TRAP ENTRY
 000AA2 D502 2000 7C31 00000 00C57  3996     653.              CLC   @SR(3),=XL3'00'         ANY TRAP THERE?
 000AA8 4780 7AAC            00AD2  3997     654.              BE    CLTILL1                 NOPE
 000AAC D202 A2E9 2000 002E9 00000  3998     655.              MVC   CLWTEMP+1(3),@SR        ALIGN
 000AB2 5810 A2E8            002E8  3999     656.              L     R1,CLWTEMP              ADDRESS TO REPAIR
 000AB6 4110 1000            00000  4000     657.              LA    R1,@R1                  CLEAN IT UP
 000ABA 41F0 0002            00002  4001     658.              LA    R15,2                   LENGTH OF TEXT
 000ABE 4100 2003            00003  4002     659.              LA    R0,@SR+3                ADDRESS OF TEXT
 000AC2 5890 7BBE/0D99       00BE4  4003     660.              VCALL RITECORE                RESTORE
 000AC8                             4007     661.              CLEAR (@SR,5)                 CLEAR ENTRY
 000AC8 D704 2000 2000 00000 00000  4013             +
 000ACE 07F5                        4014     662.              BR    RR
-
 000AD0 1300                        4016     664.     CLTILL   LCR   R0,R0                   LENGTH TO POSITIVE
 000AD2 4590 7B5A            00B80  4017     665.     CLTILL1  SEG   (1),(0)                 seg it
 000AD6 4110 029C            0029C  4032     666.              SEG   ': No such trap'
 000ADA 4590 7B72            00B98  4034             +
 000ADE 47F0 7AC4            00AEA  4035     667.              B     MISSWR                  VWRITE AND SCAN
0000AE2 4110 02AB            002AB  4037     669.     MISSTRAP SEG   'No trap specified'
 000AE6 4590 7B72            00B98  4039             +
 000AEA 1895                        4040     670.     MISSWR   LR    RAR,RR                  RETURN FROM WRITE IS SCAN
 000AEC 47F0 7084            000AA  4041     671.              B     STCWRITE
-
                                    4043     673.     *
                                    4044     674.     * CLEAR TRAP ABBREVIATION
                                    4045     675.     *
 000AF0 1857                        4046     676.     CLRT     LR    RR,BR
 000AF2 47F0 7A66            00A8C  4047     677.              B     CLRT1
1VSTC     (VSTC00) (09:50) (22MAR04) ORVYL'S SET AND CLEAR COMMANDS                                                         Page   36
0Current Usings:  (BASE,R7) (CLW,R10)
0Loc    Object Code    Addr1 Addr2  Stmt Lv Lineno    Source Statement           (Hibal 5, Asmedit 3.3)  HLASM R4.0  2004/03/22 09.50
+___    ______ ____    _____ _____  ____ __ ______    ______ _________
0                                   4049     679.     *  CLEAR TRAPS
                                    4050     680.     *
 000AF6 4150 7990            009B6  4051     681.     CLRTRAPS LA    RR,CLRETRY
 000AFA 5890 7C1A/0D99       00C40  4052     682.     CLRTS1   VCALL CLEANTRP
 000B00 07F5                        4056     683.              BR    RR
-
                                    4058     685.     *
                                    4059     686.     * CLEAR TRAPS ABBREVIATION
                                    4060     687.     *
 000B02 1857                        4061     688.     CLRTS    LR    RR,BR
 000B04 47F0 7AD4            00AFA  4062     689.              B     CLRTS1
1VSTC     (VSTC00) (09:50) (22MAR04) ORVYL'S SET AND CLEAR COMMANDS                                                         Page   37
0Current Usings:  (BASE,R7) (CLW,R10)
0Loc    Object Code    Addr1 Addr2  Stmt Lv Lineno    Source Statement           (Hibal 5, Asmedit 3.3)  HLASM R4.0  2004/03/22 09.50
+___    ______ ____    _____ _____  ____ __ ______    ______ _________
0                                   4064     691.     *  CLEAR SCREEN
                                    4065     692.     *
 000B08                             4066     693.     CLRSCRN  LABEL ,
 000B08 4100 0001            00001  4068     694.              CONTROL LA:1,25               TURN OFF NL'S
 000B0C 4110 0019/0AF5       00019  4080             +
 000B12 0AF2                        4090     695.              WAIT  (0)
 000B14 4100 0007            00007  4098     696.              LA    R0,7
 000B18 4110 7C34            00C5A  4099     697.              LA    R1,=X'27ADF2D127AD86'   CLEAR SCREEN SEQUENCE
 000B1C 4590 7B5A            00B80  4100     698.              SEG   (1),(0)
 000B20 4D90 7084            000AA  4114     699.              LCALL STCWRITE
 000B24 4100 0001            00001  4116     700.              CONTROL LA:1,26               TURN NL'S BACK ON
 000B28 4110 001A/0AF5       0001A  4128             +
 000B2E 0AF2                        4138     701.              WAIT  (0)
 000B30 47F0 7990            009B6  4146     702.              B     CLRETRY                 SCAN FOR MORE CLEARS
1VSTC     (VSTC00) (09:50) (22MAR04) ORVYL'S SET AND CLEAR COMMANDS                                                         Page   38
0Current Usings:  (BASE,R7) (CLW,R10)
0Loc    Object Code    Addr1 Addr2  Stmt Lv Lineno    Source Statement           (Hibal 5, Asmedit 3.3)  HLASM R4.0  2004/03/22 09.50
+___    ______ ____    _____ _____  ____ __ ______    ______ _________
0                                   4148     704.     *  CLEAR EVENT
                                    4149     705.     *
 000B34                             4150     706.     CLREVENT LABEL ,
 000B34                             4152     707.              CLEAR (@R13,12)               ZERO A TEMP AREA
 000B34 D70B D000 D000 00000 00000  4158             +
 000B3A 4100 0011/181D       00011  4159     708.              VSET  17,(13)                 CONDITIONAL CLEAR
 000B40 0AFB                        4180             +
 000B42 4770 7B24            00B4A  4182     709.              BNZ   NOCLPPER                NOT ALLOWED
 000B46 47F0 7990            009B6  4183     710.              B     CLRETRY                 SCAN FOR MORE CLEARS
                                    4184     711.
 000B4A 4110 02BD            002BD  4185     712.     NOCLPPER SEG   'Event not set'
 000B4E 4590 7B72            00B98  4187             +
 000B52 4D90 7084            000AA  4188     713.              LCALL STCWRITE
 000B56 47F0 7990            009B6  4190     714.              B     CLRETRY                 SCAN FOR MORE CLEARS
-
                                    4192     716.     *
                                    4193     717.     *  CLEAR MONITOR
                                    4194     718.     *
 000B5A                             4195     719.     CLRMONIT LABEL ,
 000B5A                             4197     720.              CLEAR (@R13,4)                ZERO A TEMP AREA
 000B5A D703 D000 D000 00000 00000  4203             +
 000B60 4100 0012/181D       00012  4204     721.              VSET  18,(13)                 CONDITIONAL MONITOR CLEAR
 000B66 0AFB                        4225             +
 000B68 4770 7B4A            00B70  4227     722.              BNZ   NOCLPMON                NOT ALLOWED
 000B6C 47F0 7990            009B6  4228     723.              B     CLRETRY                 SCAN FOR MORE CLEARS
                                    4229     724.
 000B70 4110 02CB            002CB  4230     725.     NOCLPMON SEG   'Monitor not set'
 000B74 4590 7B72            00B98  4232             +
 000B78 4D90 7084            000AA  4233     726.              LCALL STCWRITE
 000B7C 47F0 7990            009B6  4235     727.              B     CLRETRY                 SCAN FOR MORE CLEARS
1VSTC     (VSTC00) (09:50) (22MAR04) ORVYL'S SET AND CLEAR COMMANDS                                                         Page   39
0Current Usings:  (BASE,R7) (CLW,R10)
0Loc    Object Code    Addr1 Addr2  Stmt Lv Lineno    Source Statement           (Hibal 5, Asmedit 3.3)  HLASM R4.0  2004/03/22 09.50
+___    ______ ____    _____ _____  ____ __ ______    ______ _________
0                                   4237     729.     *  SPECIAL SEG ROUTINE
                                    4238     730.     *
 000B80                             4239     731.     SEG      LABEL ,
 000B80 5090 D000            00000  4241     732.              VPUSH RAR,,*
 000B84 41D0 D004            00004  4243             +
 000B88 5890 7BC6/0D99       00BEC  4244     733.              VSEG  (1),(0)
 000B8E 4BD0 7C28            00C4E  4261     734.              VPOP  RAR,,*
 000B92 5890 D000            00000  4263             +
 000B96 07F9                        4264     735.              BR    RAR
-
-000B98 5090 D000            00000  4266     737.              GENMSGS
 000B9C 41D0 D004/1F00       00004  4270             +
 000BA2 4301 7C42            00C68  4275             +
 000BA6 4111 7C43            00C69  4276             +
 000BAA 5890 7BC6/0D99       00BEC  4292             +
 000BB0 4BD0 7C28            00C4E  4295             +
 000BB4 5890 D000/07F9       00000  4296             +
 000BC0 00000000                    4300                             =V(TYPEIT)
 000BC4 00000000                    4301                             =V(VWRITE)
 000BC8 00000000                    4302                             =V(SCAN)
 000BCC 00000000                    4303                             =V(EVAL)
 000BD0 0FFFFFFF                    4304                             =X'0FFFFFFF'
 000BD4 00FFFFFF                    4305                             =X'00FFFFFF'
 000BD8 00000005                    4306                             =A(5)
 000BDC 00000000                    4307                             =V(READCORE)
 000BE0 00000000                    4308                             =V(VERPATCH)
 000BE4 00000000                    4309                             =V(RITECORE)
 000BE8 00000000                    4310                             =V(BTD)
 000BEC 00000000                    4311                             =V(VSEG)
 000BF0 00000000                    4312                             =V(SCINIT)
 000BF4 0000000F                    4313                             =A(15)
 000BF8 00008000                    4314                             =X'00008000'
 000BFC 7FFFFFFF                    4315                             =X'7FFFFFFF'
 000C00 00000010                    4316                             =A(16)
 000C04 00000003                    4317                             =A(3)
 000C08 00000064                    4318                             =A(100)
 000C0C 00000000                    4319                             =A(0)
 000C10 00000064                    4320                             =F'100'
 000C14 00007D00                    4321                             =A(32000)
 000C18 00000F00                    4322                             =F'3840'
 000C1C 00000000                    4323                             =V(SCTELL)
 000C20 00000000                    4324                             =V(EVHEX)
 000C24 00000000                    4325                             =V(DTB)
 000C28 00000000                    4326                             =V(PROGRAMS)
 000C2C 00000000                    4327                             =V(CLPSYSTM)
 000C30 00000000                    4328                             =V(CLPSYST2)
 000C34 00000000                    4329                             =V(FILES)
 000C38 00000026                    4330                             =A(BASE)
 000C3C 00000000                    4331                             =V(PRIVTEST)
 000C40 00000000                    4332                             =V(CLEANTRP)
1VSTC     (VSTC00) (09:50) (22MAR04) ORVYL'S SET AND CLEAR COMMANDS                                                         Page   40
0Current Usings:  (BASE,R7) (CLW,R10)
0Loc    Object Code    Addr1 Addr2  Stmt Lv Lineno    Source Statement           (Hibal 5, Asmedit 3.3)  HLASM R4.0  2004/03/22 09.50
+___    ______ ____    _____ _____  ____ __ ______    ______ _________
0000C44 FFFF                        4333                             =X'FFFF'
 000C46 0000                        4334                             =H'0'
 000C48 7D00                        4335                             =H'32000'
 000C4A 0F00                        4336                             =H'3840'
 000C4C 0008                        4337                             =Y((R15+1-(R14)+16*((R14)/(R15+1))/((R14)/(R15+1)))*4)
 000C4E 0004                        4338                             =Y(4)
 000C50 0002                        4339                             =Y(2)
 000C52 0005                        4340                             =Y(5)
 000C54 C1D3D3                      4341                             =C'ALL'
 000C57 000000                      4342                             =XL3'00'
 000C5A 27ADF2D127AD86              4343                             =X'27ADF2D127AD86'
 000F48                00F48 00F48  4415     738.              END   .

1VSTC     (VSTC00) (09:50) (22MAR04) Ordinary Symbol and Literal Cross Reference                                            Page   41
-Symbol   Length   Value     Id    R Type   Defn References                                  HLASM R4.0  2004/03/22 09.50
0$$$@R10       1 00000000 FFFFFFF4     J     836 1129
 $$$@R2        1 00000000 FFFFFFFC     J     732 1025
 $$$@R3        1 00000000 FFFFFFFB     J     745 1038
 $$$@R4        1 00000000 FFFFFFFA     J     758 1051
 $$$@R5        1 00000000 FFFFFFF9     J     771 1064
 $$$@R6        1 00000000 FFFFFFF8     J     784 1077
 $$$@R7        1 00000000 FFFFFFF7     J     797 1090
 $$$@R8        1 00000000 FFFFFFF6     J     810 1103
 $$$@R9        1 00000000 FFFFFFF5     J     823 1116
 $$$C1VSTC
               1 00000C68 00000001     J    4344 4346
 $$$C2VSTC
               1 00000F48 00000001     J    4418 4420
 $$$D0VSTC
               1 00000C61 00000001     J     995 3906
 $$$RCLW       1 00000000 FFFFFFED     J    1515 1822  1822
 $$$RSCP       1 00000000 FFFFFFEE     J    1170 1499  1499
 $$$0B         1 00000022 00000001     X    1852 1859U
 $$$11F        2 000004EA 00000001     H    2683 2673B
 $$$12F        2 00000510 00000001     H    2713 2703B
 $$$13F        2 0000065E 00000001     H    2967 2940B 2954B
 $$$15F        2 00000680 00000001     H    2995 2981B
 $$$16F        2 000006A4 00000001     H    3033 3005B 3019B
 $$$18F        2 000006E2 00000001     H    3095 3041B
 $$$19F        2 000006CA 00000001     H    3067 3053B
 $$$2F         2 00000286 00000001     H    2156 2147B
 $$$20F        2 000006E2 00000001     H    3091 3077B
 $$$21F        2 00000708 00000001     H    3175 3110B
 $$$22B        4 000006F2 00000001     I    3124 3158
 $$$22F        2 00000700 00000001     H    3155 3124B 3157
 $$$23E        2 00000704 00000001     H    3165 3159
 $$$23F        2 00000708 00000001     H    3171 3161B
 $$$24F        2 00000734 00000001     H    3239 3211B
 $$$25F        2 00000734 00000001     H    3235 3226B
 $$$27B        4 000007A4 00000001     I    3401 3414
 $$$27F        2 000007AC 00000001     H    3411 3401B 3413
 $$$28E        2 000007B0 00000001     H    3421 3415
 $$$28F        2 000007B4 00000001     H    3428 3417B
 $$$30F        2 000007E0 00000001     H    3488 3476B
 $$$31F        2 00000808 00000001     H    3550 3517B
 $$$32F        2 00000800 00000001     H    3544 3534B
 $$$33B        1 0000099E 00000001     X    3755 3765U
 $$$34F        2 000009D2 00000001     H    3839 3829B
 $$$35         6 00000C62 00000001     I    3912 3904X
 $$$36         6 00000C62 00000001     I    3911 3912  3912
 $1326         1 0000091E 00000001     U    3684 3648B 3650B 3652B 3654B 3656B 3658B 3660B 3662B 3664B 3666B 3668B 3670B
                                                 3672B 3674B 3676B 3678B 3680B 3682B
 $1330         1 00000986 00000001     U    3728 3710B 3712B 3714B 3716B 3718B 3720B 3722B 3724B 3726B
 #VSTCA1M      1 00000C68 00000001     R    4350 1907
 #VSTCA1T     16 00000C69 00000001     C    4351 4350
 #VSTCA2M      1 00000C79 00000001     R    4352 1912
 #VSTCA2T     15 00000C7A 00000001     C    4353 4352
 #VSTCA3M      1 00000C89 00000001     R    4354 1936
 #VSTCA3T      8 00000C8A 00000001     C    4355 4354
 #VSTCA4M      1 00000C92 00000001     R    4356 1939
1VSTC     (VSTC00) (09:50) (22MAR04) Ordinary Symbol and Literal Cross Reference                                            Page   42
 #VSTCA4T     31 00000C93 00000001     C    4357 4356
 #VSTCA5M      1 00000CB2 00000001     R    4358 1944
 #VSTCA5T     13 00000CB3 00000001     C    4359 4358
 #VSTCA6M      1 00000CC0 00000001     R    4360 1949
 #VSTCA6T     15 00000CC1 00000001     C    4361 4360
 #VSTCA7M      1 00000CD0 00000001     R    4362 1970
 #VSTCA7T      9 00000CD1 00000001     C    4363 4362
 #VSTCA8M      1 00000CDA 00000001     R    4364 2213
 #VSTCA8T     14 00000CDB 00000001     C    4365 4364
 #VSTCA9M      1 00000CE9 00000001     R    4366 2287
 #VSTCA9T      5 00000CEA 00000001     C    4367 4366
 #VSTCB0M      1 00000CEF 00000001     R    4368 2332
 #VSTCB0T      4 00000CF0 00000001     C    4369 4368
 #VSTCB1M      1 00000CF4 00000001     R    4370 2337
 #VSTCB1T     16 00000CF5 00000001     C    4371 4370
 #VSTCB2M      1 00000D05 00000001     R    4372 2342
 #VSTCB2T     15 00000D06 00000001     C    4373 4372
 #VSTCB3M      1 00000D15 00000001     R    4374 2347
 #VSTCB3T     11 00000D16 00000001     C    4375 4374
 #VSTCB4M      1 00000D21 00000001     R    4376 2352
 #VSTCB4T     18 00000D22 00000001     C    4377 4376
 #VSTCB5M      1 00000D34 00000001     R    4378 2357
 #VSTCB5T     22 00000D35 00000001     C    4379 4378
 #VSTCB6M      1 00000D4B 00000001     R    4380 2362
 #VSTCB6T     31 00000D4C 00000001     C    4381 4380
 #VSTCB7M      1 00000D6B 00000001     R    4382 2539
 #VSTCB7T     27 00000D6C 00000001     C    4383 4382
 #VSTCB8M      1 00000D87 00000001     R    4384 2879
 #VSTCB8T     41 00000D88 00000001     C    4385 4384
 #VSTCB9M      1 00000DB1 00000001     R    4386 2884
 #VSTCB9T     43 00000DB2 00000001     C    4387 4386
 #VSTCC0M      1 00000DDD 00000001     R    4388 2889
 #VSTCC0T     20 00000DDE 00000001     C    4389 4388
 #VSTCC1M      1 00000DF2 00000001     R    4390 2960
 #VSTCC1T     41 00000DF3 00000001     C    4391 4390
 #VSTCC2M      1 00000E1C 00000001     R    4392 2987
 #VSTCC2T     45 00000E1D 00000001     C    4393 4392
 #VSTCC3M      1 00000E4A 00000001     R    4394 3026  4396
 #VSTCC3T     42 00000E4B 00000001     C    4395 4394
 #VSTCC4M      1 00000E4A 00000001     U    4396 3060
 #VSTCC5M      1 00000E75 00000001     R    4397 3084
 #VSTCC5T     51 00000E76 00000001     C    4398 4397
 #VSTCC6M      1 00000EA9 00000001     R    4399 3482
 #VSTCC6T     22 00000EAA 00000001     C    4400 4399
 #VSTCC7M      1 00000EC0 00000001     R    4401 3563
 #VSTCC7T     22 00000EC1 00000001     C    4402 4401
 #VSTCC8M      1 00000ED7 00000001     R    4403 3606
 #VSTCC8T     44 00000ED8 00000001     C    4404 4403
 #VSTCC9M      1 00000F04 00000001     R    4405 4033
 #VSTCC9T     14 00000F05 00000001     C    4406 4405
 #VSTCD0M      1 00000F13 00000001     R    4407 4038
 #VSTCD0T     17 00000F14 00000001     C    4408 4407
 #VSTCD1M      1 00000F25 00000001     R    4409 4186
 #VSTCD1T     13 00000F26 00000001     C    4410 4409
 #VSTCD2M      1 00000F33 00000001     R    4411 4231
 #VSTCD2T     15 00000F34 00000001     C    4412 4411
 @PR           0 00000000 FFFFFFF8     @    1078 3900M 3911M 3911
 @RR           0 00000000 FFFFFFF9     @    1065 2187M 2187  2191
 @R0           0 00000000 FFFFFFFE     @     707  983U
1VSTC     (VSTC00) (09:50) (22MAR04) Ordinary Symbol and Literal Cross Reference                                            Page   43
 @R1           0 00000000 FFFFFFFD     @     720  979U 2518  2834  2836  2838  2861  2864  3345U 3579  4000
 @R10          0 00000000 FFFFFFF4     @     837  943U
 @R11          0 00000000 FFFFFFF3     @     850  939U 3558U 3967U
 @R12          0 00000000 FFFFFFF2     @     863  935U
 @R13          0 00000000 FFFFFFF1     @     876  931U 4158M 4158  4203M 4203
 @R14          0 00000000 FFFFFFF0     @     889  927U
 @R15          0 00000000 FFFFFFEF     @     902  923U 2925  3592  3991
 @R2           0 00000000 FFFFFFFC     @     733  975U
 @R3           0 00000000 FFFFFFFB     @     746  971U
 @R4           0 00000000 FFFFFFFA     @     759  967U
 @R5           0 00000000 FFFFFFF9     @     772  963U
 @R6           0 00000000 FFFFFFF8     @     785  959U
 @R7           0 00000000 FFFFFFF7     @     798  955U 1869U 3762U 3775U
 @R8           0 00000000 FFFFFFF6     @     811  951U 2547U 2897U 3624U
 @R9           0 00000000 FFFFFFF5     @     824  947U
 @SR           0 00000000 FFFFFFFC     @    1026 2220  2234  2243  2269  2285M 2473  2750  3580  3996  3998  4002  4013M
                                                 4013
 BASE          1 00000026 00000001     U    1874 1872U 3778U 4330
 BR            7 00000007 00000001 A   #    1084 1861M 1872U 1976B 1988B 2003B 2256B 2505B 2782B 2991B 3151B 3217B 3263B
                                                 3355B 3367B 3560B 3640B 3691B 3702B 3735B 3767M 3778U 3835B 4046  4061
 BTD           1 00000000 00000009     T    4310 4310
 CLEANTRP      1 00000000 00000014     T    4332 4332
 CLEAR         4 00000992 00000001     I    3747 3745
 CLPSYSTM      1 00000000 00000010     T    4327 4327
 CLPSYST2      1 00000000 00000011     T    4328 4328
 CLRCLPER      2 00000A66 00000001     H    3932 3870
 CLRCORE       2 00000A7C 00000001     H    3975 3868
 CLRETRY       4 000009B6 00000001     I    3806 3929B 3937B 3969B 3984B 3988  4051  4146B 4183B 4190B 4228B 4235B
 CLREVENT      2 00000B34 00000001     H    4151 3884
 CLRMONIT      2 00000B5A 00000001     H    4196 3886
 CLRT          2 00000AF0 00000001     I    4046 3875
 CLRTBL        1 000009F2 00000001     R    3868 3806
 CLRTRAP       4 00000A88 00000001     I    3988 3872
 CLRTRAPS      4 00000AF6 00000001     I    4051 3878
 CLRTS         2 00000B02 00000001     I    4061 3880
 CLRTS1        4 00000AFA 00000001     I    4054 4062B
 CLRT1         4 00000A8C 00000001     I    3989 4047B
 CLRUNREC      2 00000A40 00000001     H    3891 3888
 CLRUNR1       2 00000A5A 00000001     H    3923 3899B 3902B
 CLTILL        2 00000AD0 00000001     I    4016 3989B
 CLTILL1       2 00000AD2 00000001     H    4025 3997B
 CLW        1560 00000000 FFFFFFED     J    1822 1837U
 CLWACCT       6 000003B0 FFFFFFED     C    1808 1809  1810
 CLWFCMD      64 00000207 FFFFFFED         1548 3400  3533
 CLWFL         1 00000207 FFFFFFED     R    1539 1543  1548  1553
 CLWFLG        1 00000208 FFFFFFED     R    1559 1563  1568  1573  1578  1583  1588  1593
 CLWFPRGL     64 0000020B FFFFFFED         1698 2980
 CLWIBUF     235 0000002D FFFFFFED     C    1531 3841
 CLWIBUFN      2 00000028 FFFFFFED     H    1529 3843M
 CLWKWCB       4 000002C4 FFFFFFED     F    1784 1795  2021  2432  2457  2615  2651  2734  3293  3316  3440  3813
 CLWKWVAL      4 000002C4 FFFFFFED     A    1785 2517  3610
 CLWMCLRP      8 0000020A FFFFFFED         1668 3786M 3828  3897M
 CLWMEVCN    128 0000020A FFFFFFED         1648 2627M
 CLWMFL        1 0000020A FFFFFFED     R    1644 1648  1653  1658  1663  1668  1673  1678  1683
 CLWMONF       1 0000020B FFFFFFED     R    1689 1693  1698  1703  1708
 CLWNTRAP      1 00000008 FFFFFFED A   N    1766 1767  2181  2182  3873  3876
 CLWOBUF       2 00000118 FFFFFFED     H    1533 1535
 CLWPFL        1 00000209 FFFFFFED     R    1599 1603  1608  1613  1618  1623  1628  1633  1638
 CLWPFPIC     32 00000209 FFFFFFED         1613 2404  2404  2587  2587  3515  3515
1VSTC     (VSTC00) (09:50) (22MAR04) Ordinary Symbol and Literal Cross Reference                                            Page   44
 CLWPFPL      64 00000209 FFFFFFED         1608 2404  2404  2405  2587  2587  2588  3515  3515  3516
 CLWPFPRV      4 00000209 FFFFFFED         1628 1926
 CLWPSVC       2 00000210 FFFFFFED     H    1730 2278
 CLWR         10 0000000A 00000001 A   #    1123 1837U
 CLWSCP        4 00000000 FFFFFFED     A    1522 3489  3938
 CLWSFL        1 0000020C FFFFFFED     R    1714 1718  1723
 CLWSSP       64 0000020C FFFFFFED         1723 2146  2672  2702
 CLWTEMP       8 000002E8 FFFFFFED     D    1797 2174M 2177  2179  2191  2279  2285  2309  3322  3344  3998M 3999
 CLWTIMAX      2 00000230 FFFFFFED     H    1741 2996  3034  3046  3058  3082
 CLWTIVAL      2 00000232 FFFFFFED     H    1742 2970M 3024M 3046  3058M 3082M 3099  3167M 3198
 CLWTMAX       2 00000234 FFFFFFED     H    1743 3100  3199
 CLWTRAPS      5 00000280 FFFFFFED     X    1767 2181  3995
 CLWUPML       4 00000020 FFFFFFED     A    1526 3475
 CLWUPRSV      2 00000024 FFFFFFED     H    1527 3522
 CLWUPST       4 0000001C FFFFFFED     A    1525 2628
 CLWUPURV      2 00000026 FFFFFFED     H    1528 3540M
 DODEFZOT      2 0000078E 00000001     H    3358 3298B
 DTB           1 00000000 0000000E     T    4325 4325
 ERROR         4 00000092 00000001     I    1974 1909B 1914B 1941B 1946B 1951B 2135B 2215B 2339B 2344B 2349B 2354B 2359B
                                                 2364B 2466B 2541B 2660B 2690B 2743B 2881B 2886B 2891B 3327B 3484B 3565B
 EVAL          1 00000000 00000005     T    4303 4303
 EVBRA         4 000005BC 00000001     I    2821 2791
 EVCON         4 00000614 00000001     I    2879 2797  2799
 EVENTBL       1 00000568 00000001     R    2787 2608
 EVFET         4 000005B0 00000001     I    2803 2787
 EVHEX         1 00000000 0000000D     T    4324 4324
 EVRAN         4 000005F8 00000001     I    2860 2795
 EVREG         4 000005C2 00000001     I    2830 2793
 EVREGALL      6 000005F0 00000001     I    2851 2835B
 EVREG1        4 000005DC 00000001     I    2836 2514  2833B
 EVSTO         4 000005B6 00000001     I    2812 2789
 FILES         1 00000000 00000012     T    4329 4329
 HIBAL         1 00000000 FFFFFFFF     J     692  708   721   734   747   760   773   786   799   812   825   838   851
                                                  864   877   890   903
 ILLVAL        4 0000006E 00000001     I    1944 2469B 2471B 2746B 2748B 3458B 3591B
 KWSET         2 000000D6 00000001     H    2031 2014
 MISSING       4 0000007A 00000001     I    1949 1890B 2661B 2830B 2860B 2923B
 MISSTRAP      4 00000AE2 00000001     I    4038 3990B
 MISSWR        2 00000AEA 00000001     I    4040 4035B
 MNALL         6 00000462 00000001     I    2529 2512
 MNCLASS       4 0000044C 00000001     I    2516 2507
 MONTBL        1 00000430 00000001     R    2507 2425
 NOCLPMON      4 00000B70 00000001     I    4231 4227B
 NOCLPPER      4 00000B4A 00000001     I    4186 4182B
 PEBRANCH      1 00000080 00000001 A   U    2901 2821
 PEFETCH       1 00000040 00000001 A   U    2899 2631  2633  2803
 PEREG         1 00000010 00000001 A   U    2902 2831
 PESTORE       1 00000020 00000001 A   U    2900 2631  2633  2812
 PR            6 00000006 00000001 A   #    1071 3795M 3840  3842M 3843  3898  3928M
 PRIVTEST      1 00000000 00000013     T    4331 4331
 PROGRAMS      1 00000000 0000000F     T    4326 4326
 PRVPTEST      2 00000054 00000001     H    1918 2130B 2382B 2565B 3271B
 QR            4 00000004 00000001 A   #    1045 2189M 2295  2639  2864M 3200M 3201M 3225  3231
 RAR           9 00000009 00000001 A   #    1110 1905M 1908M 1913M 1929B 1937M 1940M 1945M 1950M 1968M 1971M 1974M 1975M
                                                 1975B 1986M 1987M 1987B 1991  1993  1993  1993  1997M 1998M 1998B 2001M
                                                 2002B 2130M 2133M 2134M 2134B 2214M 2224M 2225M 2225B 2254M 2255M 2255B
                                                 2283M 2284M 2284B 2288M 2329M 2330M 2330B 2333M 2338M 2343M 2348M 2353M
                                                 2358M 2363M 2382M 2464M 2465M 2465B 2540M 2565M 2658M 2659M 2659B 2688M
                                                 2689M 2689B 2741M 2742M 2742B 2880M 2885M 2890M 2961M 2963M 2988M 2990M
1VSTC     (VSTC00) (09:50) (22MAR04) Ordinary Symbol and Literal Cross Reference                                            Page   45
                                                 3027M 3029M 3061M 3063M 3085M 3087M 3271M 3325M 3326M 3326B 3483M 3564M
                                                 3607M 3637M 3638M 3638B 3688M 3689M 3689B 3699M 3700M 3700B 3732M 3733M
                                                 3733B 3935M 3936M 3936B 3982M 3983M 3983B 4005M 4006M 4006B 4031M 4034M
                                                 4039M 4040M 4054M 4055M 4055B 4113M 4115M 4187M 4189M 4232M 4234M 4242
                                                 4259M 4260M 4260B 4263M 4264B 4269  4292M 4293M 4293B 4296M 4297B
 READCORE      1 00000000 00000006     T    4307 4307
 REGNKTB       1 00000826 00000001     X    3572 3407
 REGNTBL       1 0000081A 00000001     R    3568 3424
 RGNK          2 0000082A 00000001     H    3575 3572
 RGNMAX        4 00000864 00000001     I    3606 3568
 RGNVAL        4 00000870 00000001     I    3610 3570
 RITECORE      1 00000000 00000008     T    4309 4309
 RR            5 00000005 00000001 A   #    1058 2181M 2190  2193M 2644  2865M 2867M 2869M 3988M 4014B 4040  4046M 4051M
                                                 4056B 4061M
 R0            0 00000000 FFFFFFFF A   #     700 1889M 1889  2136M 2152M 2165M 2165  2174  2219  2220M 2278M 2468  2472M
                                                 2473M 2474M 2475  2516M 2518M 2519M 2520  2662M 2679M 2684  2685  2692M
                                                 2709M 2714  2745  2749M 2750M 2751M 2752  2832  2839  2865  3100M 3123M
                                                 3123  3167  3280  3321M 3576  3586M 3840M 3847M 4002M 4016M 4016  4098M
                                                 4275M
 R1            1 00000001 FFFFFFFF A   #     713 2219M 2279M 2517M 3099M 3109M 3109  3129M 3129  3199M 3200  3210M 3210
                                                 3216  3281  3322M 3407M 3424M 3610M 3611  3795  3797  3846M 3847  3898M
                                                 3901M 3904  3928  3999M 4000M 4099M 4276M
 R11          11 0000000B FFFFFFFF A   #     843 3489M 3499U 3938M 3948U
 R13          13 0000000D FFFFFFFF A   #     869 2383M 2566M 3383M
 R14          14 0000000E FFFFFFFF A   #     882 3583  3584  3584  3584  3597M 4337  4337  4337
 R15          15 0000000F FFFFFFFF A   #     895 1879M 1879  1980M 2221M 2280M 3195  3583  3584  3584  3584  3592M 3593M
                                                 3594  3597M 3979M 3979  3991M 3993M 3994M 4001M 4337  4337  4337
 SCAN          1 00000000 00000004     T    4302 4302
 SCBCFL        1 00000261 FFFFFFEE     R    1329 1333  1338  1343  1348  1353
 SCBFL         1 00000262 FFFFFFEE     R    1359 1363  1368  1373  1378  1383
 SCBTFL        1 00000263 FFFFFFEE     R    1389 1393  1398  1403  1408  1413
 SCBWFL        1 00000260 FFFFFFEE     R    1319 1323
 SCBXA        64 00000265 FFFFFFEE         1435 1469  1469  1471  1471  1473  1473
 SCBXFL        1 00000265 FFFFFFEE     R    1426 1430  1435  1440  1445  1450  1455  1475
 SCBXP        16 00000265 FFFFFFEE         1445 1472  1472  1473  1473  1474  1474
 SCBXT       128 00000265 FFFFFFEE         1430 1469  1469  1470  1470  1472  1472
 SCBXW        32 00000265 FFFFFFEE         1440 1470  1470  1471  1471  1474  1474
 SCINIT        1 00000000 0000000B     T    4312 4312
 SCP         660 00000000 FFFFFFEE     J    1499 3499U 3948U
 SCPACCT       6 000001AA FFFFFFEE     C    1208 1209  1210
 SCPCWASZ      1 00000010 FFFFFFEE A   N    1297 1298
 SCPFERR     128 00000200 FFFFFFEE         1247 3960M
 SCPFL         1 00000200 FFFFFFEE     R    1243 1247  1252  1257  1262  1267  1272  1277  1282
 SCPPAN        2 000001A8 FFFFFFEE     H    1199 1200
 SCPRESRV      2 000001F8 FFFFFFEE     H    1237 3545
 SCPUNRSV      2 000001FA FFFFFFEE     H    1238 3551M
 SCRET         2 00000032 00000001     I    1889 2026B 2437B 2620B 3445B 3818B
 SCTELL        1 00000000 0000000C     T    4323 4323
 SEG           2 00000B80 00000001     H    4240 1905B 1968B 4031B 4113B
 SET           4 00000016 00000001     I    1844 1842
 SETCLP        4 0000093A 00000001     I    3709 2047
 SETCLPER      4 000008BA 00000001     I    3659 2080  2116
 SETENTRY      4 0000087A 00000001     I    3632 2044
 SETEVENT      2 00000476 00000001     H    2562 2037
 SETFILEM      4 00000942 00000001     I    3711 2049  2112
 SETFORMA      4 0000094A 00000001     I    3713 2051
 SETMONIT      2 000003B2 00000001     H    2379 2039
 SETNOCLP      4 00000952 00000001     I    3715 2053
 SETNOPSC      4 000008B2 00000001     I    3657 2078
1VSTC     (VSTC00) (09:50) (22MAR04) Ordinary Symbol and Literal Cross Reference                                            Page   46
 SETNOSHA      4 0000095A 00000001     I    3717 2055
 SETNOSPI      4 00000962 00000001     I    3719 2057
 SETNOVFI      4 000008CA 00000001     I    3663 2084
 SETNOVJE      4 0000090A 00000001     I    3679 2100
 SETNOVMA      4 0000091A 00000001     I    3683 2104
 SETNOVNE      4 000008EA 00000001     I    3671 2092
 SETNOVOS      4 000008FA 00000001     I    3675 2096
 SETNOVPA      4 000008DA 00000001     I    3667 2088
 SETPERMI      4 0000096A 00000001     I    3721 2059
 SETPROGR      4 00000972 00000001     I    3723 2061
 SETPSCLP      4 000008AA 00000001     I    3655 2076  2118
 SETREFRE      4 000008A2 00000001     I    3653 2074
 SETREGN       2 00000796 00000001     H    3382 2120
 SETSCAN       4 000000C4 00000001     I    2014 1861B
 SETSHARE      4 0000097A 00000001     I    3725 2063
 SETSPIFI      4 00000982 00000001     I    3727 2065
 SETTIMER      2 00000638 00000001     H    2922 2110
 SETTRAP       2 00000268 00000001     H    2127 2033  2035
 SETVADDV      4 00000892 00000001     I    3649 2070
 SETVCACH      4 0000092A 00000001     I    3694 2107
 SETVFILE      4 000008C2 00000001     I    3661 2082
 SETVJES       4 00000902 00000001     I    3677 2098
 SETVMAIN      4 00000912 00000001     I    3681 2102
 SETVNET       4 000008E2 00000001     I    3669 2090
 SETVOSF       4 000008F2 00000001     I    3673 2094
 SETVPATH      4 000008D2 00000001     I    3665 2086
 SETVREGI      4 0000089A 00000001     I    3651 2072
 SETVREMV      4 0000088A 00000001     I    3647 2068
 SETZOT        2 00000742 00000001     H    3268 2114
 SEVNPIC       4 0000062C 00000001     I    2889 2408B 2591B
 SEVPROG       4 00000620 00000001     I    2884 2781B
 SEVWA         1 00000000 FFFFFFEC     J    2904 2376U 2383  2559U 2566  2915  3379U 3383
 SEVWASIZ      1 00000034 FFFFFFEC A   U    2915 2383  2566  3383
 SEVWEND       4 00000030 FFFFFFEC     A    2914 2685M 2714M 3446  3594M 3611M
 SEVWFL        1 00000029 FFFFFFEC     X    2908 2629  2863M
 SEVWFRAN      1 00000080 FFFFFFEC A   U    2910 2629  2863
 SEVWMSK       1 00000028 FFFFFFEC     X    2907 2390M 2390  2474  2475M 2494  2519  2520M 2529M 2573M 2573  2631  2633M
                                                 2751  2752M 2771  2803M 2812M 2821M 2831M 2851M 3390M 3390
 SEVWSTRT      4 0000002C FFFFFFEC     A    2913 2628M 2684M
 SEV0          2 000004BE 00000001     I    2639 2632B
 SEV1          2 00000514 00000001     I    2715 2630B 2691B
 SEV2          4 00000528 00000001     I    2741 2753B
 SEV3          2 00000558 00000001     H    2756 2716B 2744B
 SMNPROG       4 0000046A 00000001     I    2539 2504B
 SMN2          4 000003F0 00000001     I    2464 2476B
 SMN3          2 00000420 00000001     H    2479 2439B 2467B
 SR            2 00000002 00000001 A   #    1019 2186M 2186  2190M 2203M 2203  2260  2445  2468M 2470  2722  2745M 2747
                                                 2838M 2924M 2924  2969M 3196M 3196  3197M 3198M 3225  3231M 3240M 3253
                                                 3280M 3309  3576M 3578M 3579M 3579  3841M 3842  3995M
 STALRDY       4 0000038E 00000001     I    2352 2192B
 STASK         2 00000300 00000001     H    2233 2227B
 STCRET        2 00000028 00000001     H    1881 1981B
 STCWREX       4 000000A2 00000001     I    1986 2334B 3608B
 STCWRITE      4 000000AA 00000001     I    1991 2963B 2990B 3029B 3063B 3087B 4041B 4115B 4189B 4234B
 STFND         2 000002DC 00000001     H    2218 2206B
 STILL         4 00000376 00000001     I    2342 2168B 2178B 2230B
 STLOOP        6 000002AA 00000001     I    2187 2194B
 STL1          6 000002B8 00000001     I    2191 2188B
 STMON         4 000003A6 00000001     I    2362 2246B 2272B
1VSTC     (VSTC00) (09:50) (22MAR04) Ordinary Symbol and Literal Cross Reference                                            Page   47
 STNONE        4 0000036A 00000001     I    2337 2229B
 STODD         4 00000382 00000001     I    2347 2180B
 STOK          2 00000318 00000001     H    2259 2228B
 STSVC         4 0000039A 00000001     I    2357 2235B 2261B
 TOOLOW        4 0000080E 00000001     I    3563 3523B 3546B
 TR            3 00000003 00000001 A   #    1032 2182M 2189  2194M 2417M 2417  2438M 2438  2450  2600M 2600  2715M 2715
                                                 2727  2839M 2841M 2843M 2925M 2939  2953  2968M 2968  2970  3018  3076M
                                                 3076  3195M 3201  3216  3281M 3304  3446M 3455M 3455  3475  3522M 3540
                                                 3545M 3551
 TYPEIT        1 00000000 00000002     T    4300 4300
 UNREC         2 00000086 00000001     H    1954 2801  2837B 2862B 3581B
 VERPATCH      1 00000000 00000007     T    4308 4308
 VSEG          1 00000000 0000000A     T    4311 4311
 VSTC          1 00000000 00000001     J     994  996  1027  1040  1053  1066  1079  1092  1105  1118  1131  1500  1823
                                                 1829  2917  3917
 VSTC#SEG      2 00000B98 00000001     H    4267 1908B 1913B 1937B 1940B 1945B 1950B 1971B 2214B 2288B 2333B 2338B 2343B
                                                 2348B 2353B 2358B 2363B 2540B 2880B 2885B 2890B 2961B 2988B 3027B 3061B
                                                 3085B 3483B 3564B 3607B 4034B 4039B 4187B 4232B
 VSTCMORG      1 00000C68 00000001     U    4347 1907  1912  1936  1939  1944  1949  1970  2213  2287  2332  2337  2342
                                                 2347  2352  2357  2362  2539  2879  2884  2889  2960  2987  3026  3060
                                                 3084  3482  3563  3606  4033  4038  4186  4231  4275  4276
 VSTC00        1 00000000 00000001     R    1003 1001
 VWRITE        1 00000000 00000003     T    4301 4301
 WAR           8 00000008 00000001 A   #    1097 1991  1993  1993  1993  2001M 2376U 2559U 3379U
 WYLMIL        2 0000009A 00000001     H    1979 2122  3639B 3690B 3701B 3734B 3865B
 =A(BASE)      4 00000C38 00000001     A    4330 3767
 =A(0)         4 00000C0C 00000001     A    4319 2953
 =A(100)       4 00000C08 00000001     A    4318 2939
 =A(15)        4 00000BF4 00000001     A    4313 2470
 =A(16)        4 00000C00 00000001     A    4316 2747
 =A(3)         4 00000C04 00000001     A    4317 2832
 =A(32000)
               4 00000C14 00000001     A    4321 3018
 =A(5)         4 00000BD8 00000001     A    4306 2193
 =C'ALL'       3 00000C54 00000001     C    4341 2834
 =F'100'       4 00000C10 00000001     F    4320 2969
 =F'3840'      4 00000C18 00000001     F    4322 3197
 =H'0'         2 00000C46 00000001     H    4334 2996  3034
 =H'32000'
               2 00000C48 00000001     H    4335 3024
 =H'3840'      2 00000C4A 00000001     H    4336 3240
 =V(BTD)       4 00000BE8 00000001     V    4310 2312
 =V(CLEANTRP)
               4 00000C40 00000001     V    4332 4054
 =V(CLPSYSTM)
               4 00000C2C 00000001     V    4327 3688
 =V(CLPSYST2)
               4 00000C30 00000001     V    4328 3699
 =V(DTB)       4 00000C24 00000001     V    4325 3589
 =V(EVAL)      4 00000BCC 00000001     V    4303 2133  2464  2658  2688  2741
 =V(EVHEX)
               4 00000C20 00000001     V    4324 3325
 =V(FILES)
               4 00000C34 00000001     V    4329 3732
 =V(PRIVTEST)
               4 00000C3C 00000001     V    4331 3935
 =V(PROGRAMS)
               4 00000C28 00000001     V    4326 3637  3982
 =V(READCORE)
1VSTC     (VSTC00) (09:50) (22MAR04) Ordinary Symbol and Literal Cross Reference                                            Page   48
               4 00000BDC 00000001     V    4307 2224
 =V(RITECORE)
               4 00000BE4 00000001     V    4309 2283  4005
 =V(SCAN)      4 00000BC8 00000001     V    4302 2024  2435  2618  3296  3443  3816
 =V(SCINIT)
               4 00000BF0 00000001     V    4312 2460  2654  2737  3319  3863
 =V(SCTELL)
               4 00000C1C 00000001     V    4323 3278  3793  3926
 =V(TYPEIT)
               4 00000BC0 00000001     V    4300 1974
 =V(VERPATCH)
               4 00000BE0 00000001     V    4308 2254
 =V(VSEG)      4 00000BEC 00000001     V    4311 2329  4259  4292
 =V(VWRITE)
               4 00000BC4 00000001     V    4301 1986  1997
 =X'FFFF'      2 00000C44 00000001     X    4333 2529  2851
 =X'0FFFFFFF'
               4 00000BD0 00000001     X    4304 2136
 =X'00FFFFFF'
               4 00000BD4 00000001     X    4305 2152  2679  2709
 =X'00008000'
               4 00000BF8 00000001     X    4314 2472  2516  2749
 =X'27ADF2D127AD86'
               7 00000C5A 00000001     X    4343 4099
 =X'7FFFFFFF'
               4 00000BFC 00000001     X    4315 2662  2692
 =XL3'00'      3 00000C57 00000001     X    4342 3996
 =Y((R15+1-(R14)+16*((R14)/(R15+1))/((R14)/(R15+1)))*4)
               2 00000C4C 00000001     Y    4337 3596
 =Y(2)         2 00000C50 00000001     Y    4339 3901
 =Y(4)         2 00000C4E 00000001     Y    4338 3845  4262  4295
 =Y(5)         2 00000C52 00000001     Y    4340 3994

1VSTC     (VSTC00) (09:50) (22MAR04) Macro and Copy Code Source Summary                                                     Page   49
- Con Source                                        Volume    Members                        HLASM R4.0  2004/03/22 09.50
0     PRIMARY INPUT                                           BTD      CSECT    DROP     END      EX       LTORG    POP
                                                              PRINT    PRVBLOCK PUSH     START    SYSONLY  USING
   L2 WYL.GG.SYS.MACLIB                             SYSB05    $BC      $BFLKUP  $BV      $CCLKUP  $CRS     $L       $LA
                                                              $LBLAD   $LEXP    $LOR     $REL     $RGLKUP  $USLKUP  BASE
                                                              BEGIN    CLEAR    CSECT    DATA     DECR     DEFCC    DROP
                                                              ELSE     END      EX       FLAG     GEN      HIBAL
                                                              IDENT    IF       LABEL    LC       LCALL    LS
                                                              LTORG    POP      PRINT    PUSH     RECORD   REG      REGS
                                                              SET      SETMSG   START    SYSLR    SYSQS    USING
                                                              VCALL    WITH
   L3 WYL.GG.ORV.BC.MACLIB                          SYSB02    CLPSERV  CLW      GENMSGS  ORVDEFN  SCAN     SCANCB
                                                              SCINIT   SCKW     SCRTN    SCTELL   SEG      SEGDC
                                                              VENTER   VEXIT    VGPTAB   VPMTAB   VPOP     VPUSH
                                                              VREST    VSA      VSAVE    VSEG     VSSVTAB  VSSWTAB
                                                              VWRITE   XCALL
   L4 WYL.GG.ORV.MACLIB                             SYSB02    SCP
   L5 SYS3.ORVYL.UMACLIB                            SYSB02    CALLSYS  CONTROL  SENSE    SYSKWT   VSET     WAIT
   L6 SYS3.IS.MACLIB                                SYSB05    SYSDEFN

1         (VSTC00) (09:50) (22MAR04) General Purpose Register Cross Reference                                               Page   50
- Register  References (M=modified, B=branch, U=USING, D=DROP, N=index)                      HLASM R4.0  2004/03/22 09.50
0    0(0)     983U  984D 1889M 1889  2136M 2152M 2165M 2165  2174  2219  2220M 2278M 2302M 2450M 2468  2472M 2473M 2474M
             2475  2487M 2516M 2518M 2519M 2520  2644M 2662M 2679M 2684  2685  2692M 2709M 2714  2727M 2745  2749M 2750M
             2751M 2752  2764M 2832  2839  2865  3100M 3123M 3123  3137M 3167  3183M 3248M 3280  3309M 3321M 3335M 3365M
             3576  3586M 3840M 3847M 4002M 4016M 4016  4073M 4098M 4121M 4166M 4211M 4274M 4274  4275M
     1(1)     979U 1907M 1912M 1936M 1939M 1944M 1949M 1970M 2014M 2213M 2219M 2279M 2287M 2309M 2332M 2337M 2342M 2347M
             2352M 2357M 2362M 2425M 2445M 2494M 2517M 2539M 2608M 2639M 2722M 2771M 2879M 2884M 2889M 2960M 2987M 3026M
             3060M 3084M 3099M 3109M 3109  3129M 3129  3199M 3200  3210M 3210  3216  3253M 3281  3286M 3286  3304M 3322M
             3341D 3343M 3343  3344M 3345U 3407M 3424M 3482M 3563M 3606M 3610M 3611  3795  3797  3806M 3846M 3847  3898M
             3901M 3904  3928  3999M 4000M 4033M 4038M 4080M 4099M 4128M 4172M 4186M 4217M 4231M 4275N 4276M 4276N
     2(2)     975U 1844  1885M 2186M 2186  2190M 2203M 2203  2260  2445  2468M 2470  2722  2745M 2747  2838M 2924M 2924
             2969M 3196M 3196  3197M 3198M 3225  3231M 3240M 3253  3280M 3309  3576M 3578M 3579M 3579N 3747  3841M 3842
             3995M
     3(3)     971U 1844  1885M 2182M 2189  2194M 2417M 2417  2438M 2438  2450  2600M 2600  2715M 2715  2727  2839M 2841M
             2843M 2925M 2939  2953  2968M 2968N 2969M 2970  3018  3076M 3076  3195M 3197M 3201  3216  3281M 3304  3446M
             3455M 3455  3475  3522M 3540  3545M 3551  3747
     4(4)     967U 1844  1885M 2189M 2295  2639  2864M 3200M 3201M 3225  3231  3747
     5(5)     963U 1844  1885M 2181M 2190  2193M 2644  2865M 2867M 2869M 3747  3988M 4014B 4040  4046M 4051M 4056B 4061M
     6(6)     959U 1844  1885M 3747  3795M 3840  3842M 3843  3898  3928M
     7(7)     955U 1844  1849M 1859U 1861M 1869U 1872U 1885M 1976B 1988B 2003B 2256B 2505B 2782B 2991B 3151B 3217B 3263B
             3355B 3367B 3560B 3640B 3691B 3702B 3735B 3747  3752M 3762U 3765U 3767M 3775U 3778U 3835B 4046  4061
     8(8)     951U 1844  1845M 1884  1885M 1991  1992M 2000  2001M 2376U 2547U 2559U 2897U 3379U 3624U 3747  3748M
     9(9)     947U 1844  1885M 1887B 1905M 1908M 1913M 1929B 1937M 1940M 1945M 1950M 1968M 1971M 1974M 1975M 1975B 1986M
             1987M 1987B 1991  1997M 1998M 1998B 2001M 2002B 2130M 2133M 2134M 2134B 2214M 2224M 2225M 2225B 2254M 2255M
             2255B 2283M 2284M 2284B 2288M 2329M 2330M 2330B 2333M 2338M 2343M 2348M 2353M 2358M 2363M 2382M 2464M 2465M
             2465B 2540M 2565M 2658M 2659M 2659B 2688M 2689M 2689B 2741M 2742M 2742B 2880M 2885M 2890M 2961M 2963M 2988M
             2990M 3027M 3029M 3061M 3063M 3085M 3087M 3271M 3325M 3326M 3326B 3483M 3564M 3607M 3637M 3638M 3638B 3688M
             3689M 3689B 3699M 3700M 3700B 3732M 3733M 3733B 3747  3935M 3936M 3936B 3982M 3983M 3983B 4005M 4006M 4006B
             4031M 4034M 4039M 4040M 4054M 4055M 4055B 4113M 4115M 4187M 4189M 4232M 4234M 4242  4259M 4260M 4260B 4263M
             4264B 4269  4292M 4293M 4293B 4296M 4297B
    10(A)     943U 1837U 1844  1885M 3747
    11(B)     939U 1844  1885M 3489M 3499U 3558U 3747  3938M 3948U 3967U
    12(C)     935U
    13(D)     931U 1844  1845  1846M 1846  1884M 1885  1991  1992  1993M 1993  2000M 2001  2383M 2566M 3383M 3583  3584M
             3584  3596M 3597  3747  3748  3749M 3749  3797  3798M 3798  3845M 3846  4172  4217  4242  4243M 4243  4262M
             4263  4269  4270M 4270  4295M 4296
    14(E)     927U 2024M 2025M 2025B 2312M 2313M 2313B 2435M 2436M 2436B 2460M 2461M 2461B 2527B 2536B 2618M 2619M 2619B
             2654M 2655M 2655B 2737M 2738M 2738B 2810B 2819B 2828B 2850B 2858B 2876B 3278M 3279M 3279B 3296M 3297M 3297B
             3319M 3320M 3320B 3443M 3444M 3444B 3583  3589M 3590M 3590B 3597M 3603B 3618B 3793M 3794M 3794B 3816M 3817M
             3817B 3863M 3864M 3864B 3926M 3927M 3927B
    15(F)     923U 1879M 1879  1886M 1886  1980M 2021M 2221M 2226N 2280M 2295M 2432M 2457M 2615M 2651M 2734M 3195  3293M
             3316M 3440M 3583  3592M 3593M 3594  3597M 3632M 3647M 3649M 3651M 3653M 3655M 3657M 3659M 3661M 3663M 3665M
             3667M 3669M 3671M 3673M 3675M 3677M 3679M 3681M 3683M 3694M 3709M 3711M 3713M 3715M 3717M 3719M 3721M 3723M
             3725M 3727M 3813M 3979M 3979  3991M 3993M 3994M 3995N 4001M

1VSTC     (VSTC00) (09:50) (22MAR04) Diagnostic Cross Reference and Assembler Summary                                       Page   51
-                                                                                            HLASM R4.0  2004/03/22 09.50
0     No Statements Flagged in this Assembly
 HIGH LEVEL ASSEMBLER, 5696-234, RELEASE 4.0, PTF UQ57391
0SYSTEM: OS/390 02.10.00            JOBNAME: PJG#VSTC    STEPNAME: ASM        PROCSTEP: (NOPROC)
0Datasets Allocated for this Assembly
  Con DDname   Dataset Name                                 Volume  Member
   P1 SYSIN    SYS04082.T094958.RA000.PJG#VSTC.INPUT.H01    SCR100
   L1 SYSLIB   SYS3.DUMMYMAC                                SYSB02
   L2          WYL.GG.SYS.MACLIB                            SYSB05
   L3          WYL.GG.ORV.BC.MACLIB                         SYSB02
   L4          WYL.GG.ORV.MACLIB                            SYSB02
   L5          SYS3.ORVYL.UMACLIB                           SYSB02
   L6          SYS3.IS.MACLIB                               SYSB05
      SYSLIN   WYL.GG.PJG.OBJ                               SYSB05  VSTC
      SYSPRINT SYS04082.T094958.RA000.PJG#VSTC.PRINT.H01    SCR101
      SYSTERM  GG$PJG.PJG#VSTC.JOB06010.D0000103.?

    7812K allocated to Buffer Pool,          801K would be required for this to be an In-Storage Assembly
     738 Primary Input Records Read         4064 Library Records Read                  0 Work File Reads
       0 ASMAOPT Records Read               2925 Primary Print Records Written         0 Work File Writes
      93 Punch Records Written                 0 ADATA Records Written
0Assembly Start Time: 09.50.00 Stop Time: 09.50.05 Processor Time: 00.00.00.9223
 Return Code 000
