1                        J E S 2  J O B  L O G  --  S Y S T E M  S Y S B  --  N O D E  R L G
0
 09.46.21 JOB05974 ---- MONDAY,    22 MAR 2004 ----
 09.46.21 JOB05974  ICH70001I GG$PJG   LAST ACCESS AT 09:46:17 ON MONDAY, MARCH 22, 2004
 09.46.21 JOB05974  $HASP373 PJG#VDMP STARTED - INIT 3    - CLASS E - SYS SYSB
 09.46.21 JOB05974  ***  HCMD      STEP $$QUIET
 09.46.21 JOB05974  PURGE * Q=OUTPUT MULTIPLE
 09.46.21 JOB05974  JOB PJG#VDMP NOT IN OUTPUT QUEUE
 09.46.22 JOB05974  PJG#VDMP.$$QUIET .         RC=0008 TapeIO=0000 DiskIO=0000 CPU=  .01s Elapsed=81.66s
 09.46.22 JOB05974  PJG#VDMP.$CND    .         RC=Zero TapeIO=0000 DiskIO=0002 CPU=  .01s Elapsed=82.69s
 09.46.23 JOB05974  PJG#VDMP.$UNP    .         RC=Zero TapeIO=0000 DiskIO=0143 CPU=  .11s Elapsed=82.79s
 09.46.40 JOB05974  PJG#VDMP.ASM     .         RC=Zero TapeIO=0000 DiskIO=1837 CPU=11.72s Elapsed=83.23s
 09.46.43 JOB05974  PJG#VDMP.$EDIT   .         RC=Zero TapeIO=0000 DiskIO=0669 CPU= 2.29s Elapsed=00.06s
 09.46.43 JOB05974  PJG#VDMP Ended.  Name=Module: VDMP                   Total CPU=14.14s Elapsed=81.66s
 09.46.43 JOB05974
 09.46.43 JOB05974  Execution charges   Priority=Standard   Block=Day
 09.46.43 JOB05974
 09.46.43 JOB05974  CPU Usage         260.43         $161.46   Standard Processing Unit Equivalent
 09.46.43 JOB05974                                   =======
 09.46.43 JOB05974                                   $161.46   Total Job execution charge
 09.46.43 JOB05974
 09.46.43 JOB05974  See back separator page for print charges
 09.46.43 JOB05974
 09.46.43 JOB05974  $HASP395 PJG#VDMP ENDED  ASM=0
1        1 //PJG#VDMP JOB PJG$GG,'Module: VDMP',TIME=1,MSGCLASS=C                  JOB05974
           /*JOBPARM HOLD=OUTPUT,LINES=50,CHARS=TN15,NOTIFY=YES
         2 //       EXEC PURGEOLD
         3 XXPURGEOLD PROC
           XX*
           XX* This proc is maintained by Jim Stosick
           XX*
         4 XX$$QUIET  EXEC PGM=HCMDX,PARM='PURGE * Q=OUTPUT MULTIPLE',
           XX         ACCT=(PURGEOLD,SYS3)
         5 //$CND   EXEC PGM=BILBO,REGION=512K,PARM='RECS=100'
         6 //STEPLIB  DD DSN=WYL.GG.ORV.LINKLIB,DISP=SHR
         7 //SYSPRINT DD SYSOUT=$
         8 //SYSUT1   DD DSN=WYL.GG.PJG.OBJ,DISP=OLD
         9 //SYSUT2   DD DSN=WYL.GG.PJG.OBJ,DISP=OLD
        10 //SYSIN    DD DUMMY
        11 //$UNP   EXEC PGM=WUNPRESS,PARM='NUM'
        12 //SYSPRINT DD SYSOUT=$
        13 //SYSUT1   DD DSN=WYL.GG.ORV.SOURCE.FILEUTIL(VDMP),DISP=SHR
        14 //SYSUT2   DD DSN=&&INPUT,DISP=(,PASS),UNIT=SYSDA,
           //            SPACE=(TRK,(25,25),RLSE),DCB=CARD
        15 //ASM    EXEC PGM=ASMA90,REGION=8M,COND=(0,NE,$UNP),
           //            PARM=('SYSPARM(VDMP),TERM,LANG(EN),OBJ',
           //          'LC(32500),XREF(SHORT),NODECK,NORLD,NODX,NOUS')
           //*STEPLIB  DD DSN=SYS1.SASMMOD1,DISP=SHR
        16 //SYSLIB   DD DSN=SYS3.DUMMYMAC,DISP=SHR,DCB=BLKSIZE=27920
        17 //         DD DSN=WYL.GG.SYS.MACLIB,DISP=SHR
        18 //         DD DSN=WYL.GG.ORV.BC.MACLIB,DISP=SHR
        19 //         DD DSN=SYS3.IS.MACLIB,DISP=SHR
        20 //         DD DSN=SYS3.MACLIB,DISP=SHR
        21 //         DD DSN=SYS1.MACLIB,DISP=SHR
        22 //         DD DSN=SYS1.MODGEN,DISP=SHR
        23 //SYSUT1   DD DSN=&&SYSUT1,UNIT=VIO,DISP=(,DELETE),
           //            SPACE=(4088,(500,250),,CONTIG,ROUND)
        24 //SYSTERM  DD SYSOUT=$
        25 //SYSPRINT DD DSN=&&PRINT,UNIT=SYSDA,DISP=(,PASS),
           //            SPACE=(6650,(250,250),RLSE),
           //            DCB=(BLKSIZE=6650,LRECL=133,RECFM=FB)
        26 //SYSLIN   DD DSN=WYL.GG.PJG.OBJ(VDMP),DISP=OLD
        27 //SYSUDUMP DD SYSOUT=A
        28 //SYSIN    DD DSN=&&INPUT,DISP=(OLD,DELETE)
        29 //$EDIT  EXEC PGM=ASMEDIT,REGION=1M,
           //            COND=EVEN,PARM='STMT,DATA'
        30 //STEPLIB  DD DSN=WYL.GG.SYS.LINKLIB,DISP=SHR
        31 //ASMOUT   DD DSN=&&PRINT,DISP=(OLD,DELETE)
        32 //SYSPRINT DD SYSOUT=A
        33 //SYSUDUMP DD SYSOUT=A
1 STMT NO. MESSAGE
         2 IEFC001I PROCEDURE PURGEOLD WAS EXPANDED USING SYSTEM LIBRARY SYS3.BETAPROC
        14 IGD01010I STORCLAS= TEMP STORGROUP =
        14 IGD01010I STORGRP=VIO ASSIGNED.
        23 IGD01010I STORCLAS= TEMP STORGROUP =
        23 IGD01010I STORGRP=VIO ASSIGNED.
        25 IGD01010I STORCLAS= TEMP STORGROUP =
        25 IGD01010I STORGRP=VIO ASSIGNED.
 ICH70001I GG$PJG   LAST ACCESS AT 09:46:17 ON MONDAY, MARCH 22, 2004
 IEF142I PJG#VDMP $$QUIET - STEP WAS EXECUTED - COND CODE 0008
 *********************************************************************************
 *   PJG#VDMP/$$QUIET /                    Return Code      0008                 *
 *   Region used      260K (16K user + 244K system)                              *
 *   Extended region  9352K (4K user + 9348K system)                             *
 *                                                                               *
 *   Paging              In      Out                                             *
 *   Private <-> Aux      0        0       CPU time (TCB)   00:00:00.01          *
 *   Private <-> Exp      0        0       CPU time (SRB)   00:00:00.00          *
 *   VIO                  0        0       Elapsed time    920:41:31.30          *
 *   Common               0      ---                                             *
 *                                                                               *
 *                                                                               *
 *   CPU Usage          0.18         $0.11  Standard Processing Unit Equivalent  *
 *                                   $0.11  Total Step execution charge          *
 *                                                                               *
 *    I/O count  DDname   Type Addr           I/O count  DDname   Type Addr      *
 *                         *** No I/O for this step ***                          *
 *********************************************************************************
 IEF373I STEP/$$QUIET /START 2004082.0946
 IEF374I STEP/$$QUIET /STOP  2004082.0946 CPU    0MIN 00.01SEC SRB    0MIN 00.00SEC VIRT    16K SYS   244K EXT       4K SYS    9348K
 IEF236I ALLOC. FOR PJG#VDMP $CND
 IEF237I 0401 ALLOCATED TO STEPLIB
 IEF237I JES2 ALLOCATED TO SYSPRINT
 IEF237I 04DC ALLOCATED TO SYSUT1
 IEF237I 04DC ALLOCATED TO SYSUT2
 IEF237I DMY  ALLOCATED TO SYSIN
 IEF142I PJG#VDMP $CND - STEP WAS EXECUTED - COND CODE 0000
 IEF285I   WYL.GG.ORV.LINKLIB                           KEPT
 IEF285I   VOL SER NOS= SYSB01.
 IEF285I   GG$PJG.PJG#VDMP.JOB05974.D0000101.?          SYSOUT
 IEF285I   WYL.GG.PJG.OBJ                               KEPT
 IEF285I   VOL SER NOS= SYSB05.
 IEF285I   WYL.GG.PJG.OBJ                               KEPT
 IEF285I   VOL SER NOS= SYSB05.
 *********************************************************************************
 *   PJG#VDMP/$CND    /                    Return Code      Zero                 *
 *   Region used      288K (16K user + 272K system)                              *
 *   Extended region  9392K (4K user + 9388K system)                             *
 *                                                                               *
 *   Paging              In      Out                                             *
 *   Private <-> Aux      0        0       CPU time (TCB)   00:00:00.01          *
 *   Private <-> Exp      0        0       CPU time (SRB)   00:00:00.00          *
 *   VIO                  0        0       Elapsed time    920:41:30.27          *
 *   Common               0      ---                                             *
 *                                                                               *
 *                                                                               *
 *   CPU Usage          0.18         $0.11  Standard Processing Unit Equivalent  *
 *                                   $0.11  Total Step execution charge          *
 *                                                                               *
 *    I/O count  DDname   Type Addr           I/O count  DDname   Type Addr      *
 *            2  STEPLIB  Disk 0401                   0  SYSPRINT      ----      *
 *            0  SYSUT1   Disk 04DC                   0  SYSUT2   Disk 04DC      *
 *            0  SYSIN         ----                                              *
 *********************************************************************************
 IEF373I STEP/$CND    /START 2004082.0946
 IEF374I STEP/$CND    /STOP  2004082.0946 CPU    0MIN 00.01SEC SRB    0MIN 00.00SEC VIRT    16K SYS   272K EXT       4K SYS    9388K
 IEF236I ALLOC. FOR PJG#VDMP $UNP
 IEF237I JES2 ALLOCATED TO SYSPRINT
 IEF237I 0402 ALLOCATED TO SYSUT1
 IGD101I SMS ALLOCATED TO DDNAME (SYSUT2  )
         DSN (SYS04082.T094621.RA000.PJG#VDMP.INPUT.H01   )
         STORCLAS (TEMP) MGMTCLAS (        ) DATACLAS (        )
         VOL SER NOS= SCR100
 IEF142I PJG#VDMP $UNP - STEP WAS EXECUTED - COND CODE 0000
 IEF285I   GG$PJG.PJG#VDMP.JOB05974.D0000102.?          SYSOUT
 IEF285I   WYL.GG.ORV.SOURCE.FILEUTIL                   KEPT
 IEF285I   VOL SER NOS= SYSB02.
 IGD106I SYS04082.T094621.RA000.PJG#VDMP.INPUT.H01    PASSED,    DDNAME=SYSUT2
 *********************************************************************************
 *   PJG#VDMP/$UNP    /                    Return Code      Zero                 *
 *   Region used      388K (108K user + 280K system)                             *
 *   Extended region  9468K (4K user + 9464K system)                             *
 *                                                                               *
 *   Paging              In      Out                                             *
 *   Private <-> Aux      0        0       CPU time (TCB)   00:00:00.10          *
 *   Private <-> Exp      0        0       CPU time (SRB)   00:00:00.01          *
 *   VIO                  0        0       Elapsed time    920:41:30.17          *
 *   Common               0      ---                                             *
 *                                                                               *
 *                                                                               *
 *   CPU Usage          1.87         $1.15  Standard Processing Unit Equivalent  *
 *                                   $1.15  Total Step execution charge          *
 *                                                                               *
 *    I/O count  DDname   Type Addr           I/O count  DDname   Type Addr      *
 *            0  SYSPRINT      ----                  15  SYSUT1   Disk 0402      *
 *          128  SYSUT2   Disk 038B                                              *
 *********************************************************************************
 IEF373I STEP/$UNP    /START 2004082.0946
 IEF374I STEP/$UNP    /STOP  2004082.0946 CPU    0MIN 00.10SEC SRB    0MIN 00.01SEC VIRT   108K SYS   280K EXT       4K SYS    9464K
 IEF236I ALLOC. FOR PJG#VDMP ASM
 IEF237I 0402 ALLOCATED TO SYSLIB
 IEF237I 04DC ALLOCATED TO
 IEF237I 0402 ALLOCATED TO
 IEF237I 04DC ALLOCATED TO
 IEF237I 0402 ALLOCATED TO
 IEF237I 04A0 ALLOCATED TO
 IEF237I 04A0 ALLOCATED TO
 IGD101I SMS ALLOCATED TO DDNAME (SYSUT1  )
         DSN (SYS04082.T094621.RA000.PJG#VDMP.SYSUT1.H01  )
         STORCLAS (TEMP) MGMTCLAS (        ) DATACLAS (        )
         VOL SER NOS= VIO
 IEF237I JES2 ALLOCATED TO SYSTERM
 IGD101I SMS ALLOCATED TO DDNAME (SYSPRINT)
         DSN (SYS04082.T094621.RA000.PJG#VDMP.PRINT.H01   )
         STORCLAS (TEMP) MGMTCLAS (        ) DATACLAS (        )
         VOL SER NOS= SCR100
 IEF237I 04DC ALLOCATED TO SYSLIN
 IEF237I JES2 ALLOCATED TO SYSUDUMP
 IGD103I SMS ALLOCATED TO DDNAME SYSIN
 IEF142I PJG#VDMP ASM - STEP WAS EXECUTED - COND CODE 0000
 IEF285I   SYS3.DUMMYMAC                                KEPT
 IEF285I   VOL SER NOS= SYSB02.
 IEF285I   WYL.GG.SYS.MACLIB                            KEPT
 IEF285I   VOL SER NOS= SYSB05.
 IEF285I   WYL.GG.ORV.BC.MACLIB                         KEPT
 IEF285I   VOL SER NOS= SYSB02.
 IEF285I   SYS3.IS.MACLIB                               KEPT
 IEF285I   VOL SER NOS= SYSB05.
 IEF285I   SYS3.MACLIB                                  KEPT
 IEF285I   VOL SER NOS= SYSB02.
 IEF285I   SYS1.MACLIB                                  KEPT
 IEF285I   VOL SER NOS= MVSBR9.
 IEF285I   SYS1.MODGEN                                  KEPT
 IEF285I   VOL SER NOS= MVSBR9.
 IGD105I SYS04082.T094621.RA000.PJG#VDMP.SYSUT1.H01   DELETED,   DDNAME=SYSUT1
 IEF285I   GG$PJG.PJG#VDMP.JOB05974.D0000103.?          SYSOUT
 IGD106I SYS04082.T094621.RA000.PJG#VDMP.PRINT.H01    PASSED,    DDNAME=SYSPRINT
 IEF285I   WYL.GG.PJG.OBJ                               KEPT
 IEF285I   VOL SER NOS= SYSB05.
 IEF285I   GG$PJG.PJG#VDMP.JOB05974.D0000104.?          SYSOUT
 IGD105I SYS04082.T094621.RA000.PJG#VDMP.INPUT.H01    DELETED,   DDNAME=SYSIN
 *********************************************************************************
 *   PJG#VDMP/ASM     /                    Return Code      Zero                 *
 *   Region used      8488K (8192K user + 296K system)                           *
 *   Extended region  9980K (412K user + 9568K system)                           *
 *                                                                               *
 *   Paging              In      Out                                             *
 *   Private <-> Aux      0        0       CPU time (TCB)   00:00:11.55          *
 *   Private <-> Exp      0        0       CPU time (SRB)   00:00:00.17          *
 *   VIO                  0        0       Elapsed time    920:41:29.73          *
 *   Common               0      ---                                             *
 *                                                                               *
 *                                                                               *
 *   CPU Usage        216.56       $134.26  Standard Processing Unit Equivalent  *
 *                                 $134.26  Total Step execution charge          *
 *                                                                               *
 *    I/O count  DDname   Type Addr           I/O count  DDname   Type Addr      *
 *           47  SYSLIB   Disk 0402                 180  SYSLIB   Disk 04DC      *
 *            0  SYSLIB   Disk 0402                   0  SYSLIB   Disk 04DC      *
 *            0  SYSLIB   Disk 0402                 787  SYSLIB   Disk 04A0      *
 *            0  SYSLIB   Disk 04A0               2,121  SYSUT1   VIO  ----      *
 *            0  SYSTERM       ----                 666  SYSPRINT Disk 038B      *
 *           28  SYSLIN   Disk 04DC                   0  SYSUDUMP      ----      *
 *          129  SYSIN    Disk 038B                                              *
 *********************************************************************************
 IEF373I STEP/ASM     /START 2004082.0946
 IEF374I STEP/ASM     /STOP  2004082.0946 CPU    0MIN 11.55SEC SRB    0MIN 00.17SEC VIRT  8192K SYS   296K EXT     412K SYS    9568K
 IEF236I ALLOC. FOR PJG#VDMP $EDIT
 IEF237I 0402 ALLOCATED TO STEPLIB
 IGD103I SMS ALLOCATED TO DDNAME ASMOUT
 IEF237I JES2 ALLOCATED TO SYSPRINT
 IEF237I JES2 ALLOCATED TO SYSUDUMP
 IEF142I PJG#VDMP $EDIT - STEP WAS EXECUTED - COND CODE 0000
 IEF285I   WYL.GG.SYS.LINKLIB                           KEPT
 IEF285I   VOL SER NOS= SYSB02.
 IGD105I SYS04082.T094621.RA000.PJG#VDMP.PRINT.H01    DELETED,   DDNAME=ASMOUT
 IEF285I   GG$PJG.PJG#VDMP.JOB05974.D0000105.?          SYSOUT
 IEF285I   GG$PJG.PJG#VDMP.JOB05974.D0000106.?          SYSOUT
 *********************************************************************************
 *   PJG#VDMP/$EDIT   /                    Return Code      Zero                 *
 *   Region used      388K (116K user + 272K system)                             *
 *   Extended region  9472K (4K user + 9468K system)                             *
 *                                                                               *
 *   Paging              In      Out                                             *
 *   Private <-> Aux      0        0       CPU time (TCB)   00:00:02.22          *
 *   Private <-> Exp      0        0       CPU time (SRB)   00:00:00.07          *
 *   VIO                  0        0       Elapsed time    920:41:12.90          *
 *   Common               0      ---                                             *
 *                                                                               *
 *                                                                               *
 *   CPU Usage         41.62        $25.80  Standard Processing Unit Equivalent  *
 *                                  $25.80  Total Step execution charge          *
 *                                                                               *
 *    I/O count  DDname   Type Addr           I/O count  DDname   Type Addr      *
 *            2  STEPLIB  Disk 0402                 667  ASMOUT   Disk 038B      *
 *            0  SYSPRINT      ----                   0  SYSUDUMP      ----      *
 *********************************************************************************
 IEF373I STEP/$EDIT   /START 2004082.0946
 IEF374I STEP/$EDIT   /STOP  2004082.0946 CPU    0MIN 02.22SEC SRB    0MIN 00.07SEC VIRT   116K SYS   272K EXT       4K SYS    9468K
 *********************************************************************************
 *                                                                               *
 *                      S t a n f o r d   U n i v e r s i t y                    *
 *                                                                               *
 *                              *** Job Summary ***                              *
 *                                                                               *
 *   System Id      SYSB                   Input time     09:38:33  Mar 22, 2004 *
 *                                                                               *
 *   System Release SP6.1.0                Start time     09:46:21  Mar 22, 2004 *
 *                                                                               *
 *   Job name       PJG#VDMP               Stop  time     00:00:00  Mar 22, 2004 *
 *                                                                               *
 *   Account        PJG$GG                 Elapsed time  920:41:31.30            *
 *                                                                               *
 *   User Name      Module: VDMP           CPU time       00:00:13.89            *
 *                                                                               *
 *   Job class      E                      SRB Time       00:00:00.25            *
 *                                                                               *
 *********************************************************************************
 IEF375I  JOB/PJG#VDMP/START 2004082.0946
 IEF376I  JOB/PJG#VDMP/STOP  2004082.0946 CPU    0MIN 13.89SEC SRB    0MIN 00.25SEC
1Data set successfully converted from EDIT to FB format
1Assembler Done VDMP No Statements Flagged
1         High Level Assembler Option Summary                   (PTF UQ57391)                                               Page    1
-                                                                                            HLASM R4.0  2004/03/22 09.46
0  No Overriding ASMAOPT Parameters
   Overriding Parameters-  SYSPARM(VDMP),TERM,LANG(EN),OBJ,LC(32500),XREF(SHORT),NODECK,NORLD,NODX,NOUS
   No Process Statements


   Options for this Assembly
0  NOADATA
     ALIGN
   NOASA
     BATCH
     CODEPAGE(047C)
   NOCOMPAT
   NODBCS
 3 NODECK
 3 NODXREF
     ESD
   NOEXIT
     FLAG(0,ALIGN,CONT,NOIMPLEN,NOPAGE0,PUSH,RECORD,NOSUBSTR,USING0)
   NOFOLD
   NOGOFF
   NOINFO
 3   LANGUAGE(EN)
   NOLIBMAC
 3   LINECOUNT(32500)
     LIST(121)
     MXREF(SOURCE)
 3   OBJECT
     OPTABLE(UNI,NOLIST)
   NOPCONTROL
   NOPESTOP
   NOPROFILE
   NORA2
   NORENT
 3 NORLD
     RXREF
     SIZE(MAX)
 3   SYSPARM(VDMP)
 3   TERM(WIDE)
   NOTEST
     THREAD
   NOTRANSLATE
 3 NOUSING
 3   XREF(SHORT)

   No Overriding DD Names

1VDMP     External Symbol Dictionary                                                                                        Page    2
-Symbol   Type   Id     Address  Length     LD ID  Flags Alias-of                            HLASM R4.0  2004/03/22 09.46
0VDMP      SD 00000001 00000000 0000B848             00
 VDMP21    LD          00000000           00000001
 VDMP      ER 00000002
 VSCN      ER 00000003
 VCR       ER 00000004
 DUMP      LD          00000016           00000001
 VSEG      ER 00000005
 VWRITE    ER 00000006
 VCNTRL    ER 00000007
 BTX       ER 00000008
 BTD       ER 00000009
 FMTTIME   ER 0000000A
 FMTCLCK   ER 0000000B
 BTR       ER 0000000C
 SCINIT    ER 0000000D
 SCAN      ER 0000000E
 DTB       ER 0000000F
 BTDC      ER 00000010
 VIDCINIT  ER 00000011
 DAYF      ER 00000012
 TIME      ER 00000013
 VSEG      LD          0000B224           00000001
 VWRITE    LD          0000B26E           00000001
 VCNTRL    LD          0000B2F0           00000001
 VIDCINIT  LD          0000B608           00000001

1VDMP     ORVYL's File System Dump Program: Introduction                                                                    Page    3
0Loc    Object Code    Addr1 Addr2  Stmt Lv Lineno    Source Statement                    (Asmedit 3.3)  HLASM R4.0  2004/03/22 09.46
+___    ______ ____    _____ _____  ____ __ ______    ______ _________
0                                      2       2.     ********************************************************************
                                       3       3.     ********************************************************************
                                       4       4.     ********************************************************************
                                       5       5.     ***                                                              ***
                                       6       6.     ***                                                              ***
                                       7       7.     ***   ORVYL/370 - Release III - Class I - Stanford Proprietary   ***
                                       8       8.     ***                                                              ***
                                       9       9.     ***                                                              ***
                                      10      10.     ********************************************************************
                                      11      11.     ********************************************************************
                                      12      12.     ********************************************************************
-
                                      14      14.              HIBAL ,                   Initialize HIBAL macro system
                                     995      16.              SPLEVEL SET=4             Set SP level macro expansion
-
                                     999      18.     ¿þþþþþþþþþþþþþþþþþþþþþþþþþþþþþþþþþþþþþþþþþþþþþþþþþþþþþþþþþþþþþþþþþþþþþÜ
                                    1000      19.     Ÿ                                                                     Ÿ
                                    1001      20.     Ÿ    Define global register usage                                     Ÿ
                                    1002      21.     Ÿ                                                                     Ÿ
                                                      ¾þþþþþþþþþþþþþþþþþþþþþþþþþþþþþþþþþþþþþþþþþþþþþþþþþþþþþþþþþþþþþþþþþþþþþ»
-                                   1004      24.   C          REGS  ,,(FSR,SR),TR,QR,RR,BRR,BR,WAR,RAR,IOBREG,
                                              25.                    (SWR,VWRK),(DWR,LSR),SPR
1VDMP     ORVYL's File System Dump Program: Introduction                                                                    Page    4
0D-Loc  Object Code    Addr1 Addr2  Stmt Lv Lineno    Source Statement           (Hibal 5, Asmedit 3.3)  HLASM R4.0  2004/03/22 09.46
+_____  ______ ____    _____ _____  ____ __ ______    ______ _________
0                                   1204      27.     ********************************************************************
                                    1205      28.     *                                                                  *
                                    1206      29.     *   Return code definitions from FILEDUMP                          *
                                    1207      30.     *                                                                  *
                                    1208      31.     ********************************************************************
                                    1209      32.     *                                                                  *
                                    1210      33.     *                                                                  *
                                    1211      34.     *       0  -  Successful completion of FILEDUMP utility            *
                                    1212      35.     *                                                                  *
                                    1213      36.     *       4  -  Dump completed, warning messages have been issued    *
                                    1214      37.     *                                                                  *
                                    1215      37.1    *       8  -  Some file system blocks are unreadable due to I/O    *
                                    1216      37.2    *             errors.  Blocks have been zeroed on the dump tape    *
                                    1217      37.3    *                                                                  *
                                    1218      38.     *      12  -  Exec field parameter error                           *
                                    1219      39.     *                                                                  *
                                    1220      40.     *      16  -  Control file syntax error                            *
                                    1221      41.     *                                                                  *
                                    1222      42.     *      20  -  Device error, either file system or tape file.       *
                                    1223      42.1    *             Current dump, incremental dump is not useable.       *
                                    1224      43.     *                                                                  *
                                    1225      44.     *      24  -  Dynamic allocation error occurred                    *
                                    1226      45.     *                                                                  *
                                    1227      46.     *      28  -  Error in HISTORY file processing                     *
                                    1228      47.     *                                                                  *
                                    1229      48.     *      32  -  Unable to allocate sufficient main storage           *
                                    1230      49.     *                                                                  *
                                    1231      49.1    *      36  -  Dump/Incremental subtask has abended                 *
                                    1232      49.2    *                                                                  *
                                    1233      50.     *      40  -  System service routine failure                       *
                                    1234      51.     *                                                                  *
                                    1235      52.     *      44  -  Severe program logic error, I've messed up badly     *
                                    1236      52.1    *                                                                  *
                                    1237      53.     *                                                                  *
                                    1238      54.     ********************************************************************
-                                   1240      54.02   RET_OK   EQU   00,1,C'C'           Successful completion
                                    1241      54.03   RET_WARN EQU   04,1,C'C'           Warning messages have been issued
                                    1242      54.04   RET_BLK  EQU   08,1,C'C'           Some file blocks unreadable
                                    1243      54.05   EXE_PRM  EQU   12,1,C'C'           EXEC field parameter error
                                    1244      54.06   CNT_PRM  EQU   16,1,C'C'           Control file parameter error
                                    1245      54.07   DEV_ERR  EQU   20,1,C'C'           Device error tape/disk
                                    1246      54.08   DYN_ALC  EQU   24,1,C'C'           Dynamic allocation error
                                    1247      54.09   HST_ERR  EQU   28,1,C'C'           Error processsing history file
                                    1248      54.1    NO_MEM   EQU   32,1,C'C'           Insufficient memory to continue
                                    1249      54.11   RET_SUB  EQU   36,1,C'C'           Dump/Inc subtask has aborted
                                    1250      54.98   SYS_FAIL EQU   40,1,C'C'           System service routine failure
                                    1251      54.99   SYS_BAD  EQU   44,1,C'C'           Program Logic Error, bail fast
0                                   1253      55.01   ABT_RET  EQU   EXE_PRM,1,C'C'      Abort utility on return code
1VDMP     ORVYL's File System Dump Program: Introduction                                                                    Page    5
0D-Loc  Object Code    Addr1 Addr2  Stmt Lv Lineno    Source Statement           (Hibal 5, Asmedit 3.3)  HLASM R4.0  2004/03/22 09.46
+_____  ______ ____    _____ _____  ____ __ ______    ______ _________
0                                   1255      55.03   ¿þþþþþþþþþþþþþþþþþþþþþþþþþþþþþþþþþþþþþþþþþþþþþþþþþþþþþþþþþþþþþþþþþþþþþÜ
                                    1256      55.04   Ÿ                                                                     Ÿ
                                    1257      55.05   Ÿ  Define global system equates                                       Ÿ
                                    1258      55.06   Ÿ                                                                     Ÿ
                                                      ¾þþþþþþþþþþþþþþþþþþþþþþþþþþþþþþþþþþþþþþþþþþþþþþþþþþþþþþþþþþþþþþþþþþþþþ»
-                                   1260      55.08            GBLA  &IOBS               Number of IOB's to generate
                                    1261      55.09            GBLB  &QSNAPSW            Boolean flag for QSNAP's
                                    1262      55.1    &IOBS    SETA  2                   Set two buffers for reading
                                    1263      55.11   &QSNAPSW SETB  0                   Qsnap debugging
                                    1264      55.12   HISRECSZ EQU   128                 History file record length
                                    1265      55.13   MXDSNSEG EQU   10                  Maximum data sets/segment
                                    1266      55.14   SVSTCKSZ EQU   8*1024              Main task save stack size
                                    1267      55.15   STSTCKSZ EQU   8*1024              Subtask save stack size
                                    1268      55.25   MAX_DPS  EQU   74                  Maximum data set names per segment
-                                   1270      55.81   ¿þþþþþþþþþþþþþþþþþþþþþþþþþþþþþþþþþþþþþþþþþþþþþþþþþþþþþþþþþþþþþþþþþþþþþÜ
                                    1271      55.82   Ÿ                                                                     Ÿ
                                    1272      55.83   Ÿ  Rules for determining the length of the ORVYL header:              Ÿ
                                    1273      55.84   Ÿ                                                                     Ÿ
                                    1274      55.85   Ÿ    1) Length of the hardware key.                                   Ÿ
                                    1275      55.86   Ÿ                                                                     Ÿ
                                    1276      55.87   Ÿ    2) In the absence of a hardware key the length of the            Ÿ
                                    1277      55.88   Ÿ       ORVYL header WILL be 20 bytes.                                Ÿ
                                    1278      55.89   Ÿ                                                                     Ÿ
                                    1279      55.9    Ÿ       Currently ORVYL only utilizes the first 16 bytes of defined   Ÿ
                                    1280      55.91   Ÿ       header.  Who knows, this might change in the future.          Ÿ
                                    1281      55.92   Ÿ                                                                     Ÿ
                                    1282      55.93   Ÿ       Warning:  Only the first 12 bytes of the ORVYL header are     Ÿ
                                    1283      55.94   Ÿ                 preserved in the dumped records.                    Ÿ
                                    1284      55.95   Ÿ                                                                     Ÿ
                                                      ¾þþþþþþþþþþþþþþþþþþþþþþþþþþþþþþþþþþþþþþþþþþþþþþþþþþþþþþþþþþþþþþþþþþþþþ»
0                                   1285      55.96   FSHDRLEN EQU   20                  Default header length for non-keyed
                                    1286      55.97   FSHDRDMP EQU   12                  Length of preserved header on tape
1VDMP     ORVYL's File System Dump Program: Fixit List                                                                      Page    6
0D-Loc  Object Code    Addr1 Addr2  Stmt Lv Lineno    Source Statement           (Hibal 5, Asmedit 3.3)  HLASM R4.0  2004/03/22 09.46
+_____  ______ ____    _____ _____  ____ __ ______    ______ _________
0                                   1289      56.     ********************************************************************
                                    1290      57.     *                                                                  *
                                    1291      58.     *   Filedump fixit list, for the next programmer to work with      *
                                    1292      59.     *                        this module.                              *
                                    1293      60.     *                                                                  *
                                    1294      61.     ********************************************************************
                                    1295      62.     *                                                                  *
                                    1296      63.     *  1.  Make the number of file system IOB's dynamic instead of     *
                                    1297      64.     *      an assembled set symbol.                                    *
                                    1298      65.     *                                                                  *
                                    1299      66.     *  2.  Add ESTAE exit for dump/read subtasks to release I/O        *
                                    1300      67.     *      buffers.  The dump is getting pretty damn big.              *
                                    1301      68.     *                                                                  *
                                    1302      69.     *  3.  Nice termination after abend.  Terminate remaining subtasks *
                                    1303      70.     *      and don't start any more!                                   *
                                    1304      71.     *                                                                  *
                                    1305      72.     *  4.  Modify all SYSOUT=$ dynamic allocation to general subroutine*
                                    1306      73.     *                                                                  *
                                    1307      74.     *  5.  Take a major pass at renumbering all the messages.  There's *
                                    1308      75.     *      no reason for the scheme at this point.                     *
                                    1309      76.     *                                                                  *
                                    1310      77.     *  6.  Implement dump trace from ESTAE exit.                       *
                                    1311      78.     *                                                                  *
                                    1312      79.     *  7.  Check code dependancies for 2k ORVYL user block length.  Add*
                                    1313      80.     *      option in control file for variable length header and data. *
                                    1314      81.     *                                                                  *
                                    1315      82.     *  8.  Code dynamic io rate setting for various time of day values.*
                                    1316      83.     *      Mainly for RLG incremental dump to keep the operator happy. *
                                    1317      84.     *                                                                  *
                                    1318      85.     *  9.  Recode dump tape i/o to use BSAM for better control over    *
                                    1319      86.     *      tape volume switching and statistics.                       *
                                    1320      87.     *                                                                  *
                                    1321      88.     * 10.  Add code on mainline control to start the directory and     *
                                    1322      89.     *      verify portion of a full dump.                              *
                                    1323      90.     *                                                                  *
                                    1324      91.     * 11.  Enable code to restart failure dump segments after a tape   *
                                    1325      92.     *      I/O error.                                                  *
                                    1326      93.     *                                                                  *
                                    1327      97.     *                                                                  *
                                    1328      98.     ********************************************************************
1VDMP     ORVYL's File System Dump Program: Macro Definitions                                                               Page    7
0D-Loc  Object Code    Addr1 Addr2  Stmt Lv Lineno    Source Statement           (Hibal 5, Asmedit 3.3)  HLASM R4.0  2004/03/22 09.46
+_____  ______ ____    _____ _____  ____ __ ______    ______ _________
0                                   1330     100.              MACRO
                                    1331     101.     &L       VTRACE &SAVE=,&REG=,&OFF=NO
                                    1332     102.              LCLA  &P,&Q
                                    1333     103.              AIF   ('&L' EQ '').NOL
                                    1334     104.     &L       LABEL ,
                                    1335     105.     .NOL     ANOP
                                    1336     106.              AIF   ('&OFF' EQ 'YES').NSV1
                                    1337     107.              AIF   ('&REG' EQ 'NO').NOREG
                                    1338     108.              STM   14,1,0(R13)             ***CHECK***
                                    1339     109.     .NOREG   ANOP
                                    1340     110.     &P       SETA  2
                                    1341     111.     .LOOP    AIF   ('&SYSLIST(&P)' EQ '').NEXT
                                    1342     112.              AIF   ('&SYSLIST(&P)' EQ '*').NEXT MVC STOPPER
                                    1343     113.              AIF   ('&SYSLIST(&P)'(1,1) EQ '@').CREG
                                    1344     114.              AIF   ('&SYSLIST(&P)'(1,1) NE '(').MVC
                                    1345     115.              ST    &SYSLIST(&P),0    ***CHECK *** TRCTEMP-8+&P*4
                                    1346     116.              AGO   .NEXT
                                    1347     117.     .CREG    ANOP
                                    1348     118.              STMC  &SYSLIST(&P)(2,8),&SYSLIST(&P)(2,8),0 TRCTEMP-8+&P*4
                                    1349     119.              AGO   .NEXT
                                    1350     120.     .MVC     ANOP
                                    1351     121.     &Q       SETA  &P
                                    1352     122.     .LUP     AIF   (&P GE 5).LUPEND
                                    1353     123.              AIF   ('&SYSLIST(&P+1)' NE '').LUPEND
                                    1354     124.     &P       SETA  &P+1
                                    1355     125.              AGO   .LUP
                                    1356     126.     .LUPEND  AIF   ('&SYSLIST(&Q)' NE 'CTSTCK').NOSTCK
                                    1357     127.              STCK  0(R13)  ***  CHECK  ***  CTSTCK
                                    1358     128.     .NOSTCK  MVC   TRCTEMP-8+&Q*4((&P-&Q+1)*4),&SYSLIST(&Q)
                                    1359     129.     .NEXT    ANOP
                                    1360     130.     &P       SETA  &P+1
                                    1361     131.              AIF   (&P LE 5).LOOP
                                    1362     132.              AIF   ('&SAVE' EQ 'NO').NSV
                                    1363     133.              AIF   ('&SAVE' EQ '').SAVCT
                                    1364     134.              LR    &SAVE,R9
                                    1365     135.              AGO   .NSV
                                    1366     136.     .SAVCT   ANOP
                                    1367     137.              ST    R9,TRCRSAV9
                                    1368     138.     .NSV     ANOP  ,
                                    1369     139.              LCALL 0  TRACE
                                    1370     140.              DC    CL8'&SYSLIST(1)'
                                    1371     141.              AIF   ('&SAVE' EQ 'NO').NSV1
                                    1372     142.              AIF   ('&SAVE' EQ '').SAVCT1
                                    1373     143.              LR    R9,&SAVE
                                    1374     144.              AGO   .NSV1
                                    1375     145.     .SAVCT1  ANOP  ,
                                    1376     146.              L     R9,0  **  CHECK **  TRCRSAV9
                                    1377     147.     .NSV1    MEXIT
                                    1378     148.              MEND
1VDMP     ORVYL's File System Dump Program: Macro Definitions                                                               Page    8
0D-Loc  Object Code    Addr1 Addr2  Stmt Lv Lineno    Source Statement           (Hibal 5, Asmedit 3.3)  HLASM R4.0  2004/03/22 09.46
+_____  ______ ____    _____ _____  ____ __ ______    ______ _________
0
-                                   1381     149.02            MACRO
                                    1382     149.03   &LABEL   DBSNAP &TEXT,&LEN
                                    1383     149.04            GBLB  &QSNAPSW
                                    1384     149.05            AIF   (NOT &QSNAPSW).NODB
                                    1385     149.06            AIF   ('&TEXT'(1,1) EQ '''').SUBL
                                    1386     149.07            QSNAP &TEXT,&LEN
                                    1387     149.08            AGO   .NODB
                                    1388     149.09   .SUBL    ANOP  ,
                                    1389     149.96            QSNAP &TEXT
                                    1390     149.97            AGO   .NODB
                                    1391     149.98   .NODB    ANOP ,
                                    1392     149.99            MEND
                                    1393     150.              MACRO
                                    1394     151.     &L       DCBQU &FIELD,&LEN,&TYPE=1
                                    1395     152.              GBLA  &DCBPFXL
                                    1396     153.              LCLA  &WORK
                                    1397     154.              LCLC  &AP,&DCBNAM,&MLEN,&FLD
                                    1398     155.     &AP      SETC  ''''
                                    1399     156.              AIF   (&DCBPFXL GE 1).PFXLSET
                                    1400     157.     &DCBPFXL SETA  2
                                    1401     158.     .PFXLSET ANOP
                                    1402     159.              AIF   (T'&FIELD NE 'O').FIELD
                                    1403     160.     &WORK    SETA  K'&L
                                    1404     161.              AIF   (&WORK GE &DCBPFXL+1).GETFLD
                                    1405     162.              MNOTE 4,'NO FIELD SPECIFIED'
                                    1406     163.              MEXIT
                                    1407     164.     .GETFLD  ANOP
                                    1408     165.     &WORK    SETA  &WORK-&DCBPFXL
                                    1409     166.     &FLD     SETC  '&L'(&DCBPFXL+1,&WORK)
                                    1410     167.              AGO   .GOTFLD
                                    1411     168.     .FIELD   ANOP
                                    1412     169.     &FLD     SETC  '&FIELD'
                                    1413     170.     .GOTFLD  ANOP
                                    1414     171.     &FLD     SETC  'DCB&FLD'
                                    1415     172.     &DCBNAM  SETC  '&L'(1,2)
                                    1416     173.     &DCBNAM  SETC  '&DCBNAM.DCB'
                                    1417     174.              AIF   (T'&LEN NE 'O').SETLEN
                                    1418     175.     &MLEN    SETC  'L&AP&FLD'
                                    1419     176.              AGO   .GOTLEN
                                    1420     177.     .SETLEN  ANOP
                                    1421     178.     &MLEN    SETC  '&LEN'
                                    1422     179.     .GOTLEN  ANOP
                                    1423     180.     &L       EQU   &DCBNAM+(&FLD-IHADCB),&MLEN,&TYPE
                                    1424     181.              MEND
-
                                    1426     183.              MACRO
                                    1427     184.     &LABEL   A31   &ADDR,&LAST=OFF
                                    1428     185.              LCLC  &STR
                                    1429     186.     &STR     SETC  '&ADDR'
                                    1430     187.              AIF   ('&LAST' NE 'ON').NOBIT
                                    1431     188.     &STR     SETC  '&STR+X''80000000'''
1VDMP     ORVYL's File System Dump Program: Macro Definitions                                                               Page    9
0D-Loc  Object Code    Addr1 Addr2  Stmt Lv Lineno    Source Statement           (Hibal 5, Asmedit 3.3)  HLASM R4.0  2004/03/22 09.46
+_____  ______ ____    _____ _____  ____ __ ______    ______ _________
0                                   1432     189.     .NOBIT   ANOP  ,
                                    1433     190.     &LABEL   DC    A(&STR)
                                    1434     191.              MEND  ,
-                                   1436     191.2             MACRO
                                    1437     191.3    &L       CLRNW &OP1
                                    1438     191.4             LA    R0,&OP1
                                    1439     191.5             ACALL CLRNW
                                    1440     191.6             MEND  ,
1VDMP     ORVYL's File System Dump Program: Macro Definitions                                                               Page   10
0D-Loc  Object Code    Addr1 Addr2  Stmt Lv Lineno    Source Statement           (Hibal 5, Asmedit 3.3)  HLASM R4.0  2004/03/22 09.46
+_____  ______ ____    _____ _____  ____ __ ______    ______ _________
0                                   1442     193.              MACRO
                                    1443     194.     &L       VCNTL &OP,&P1,&P2,&P3,&PFX=VCN
                                    1444     195.              LCLC  &OPS(15)
                                    1445     196.              LCLC  &LABEL
                                    1446     197.              LCLA  &I,&WORK
                                    1447     198.              AIF   (K'&OP GT 5).INVALID
                                    1448     199.     &I       SETA  1
                                    1449     200.     &OPS(&I) SETC  'WTO'
                                    1450     201.              AIF   ('&OP' EQ '&OPS(&I)').GENCALL
                                    1451     202.     &I       SETA  &I+1
                                    1452     203.     &OPS(&I) SETC  'WTOWR'
                                    1453     204.              AIF   ('&OP' EQ '&OPS(&I)').GENCALL
                                    1454     205.     &I       SETA  &I+1
                                    1455     206.     &OPS(&I) SETC  'SETCC'
                                    1456     207.              AIF   ('&OP' EQ '&OPS(&I)').GENCALL
                                    1457     208.     &I       SETA  &I+1
                                    1458     209.     &OPS(&I) SETC  'CLOSE'
                                    1459     210.              AIF   ('&OP' EQ '&OPS(&I)').GENCALL
                                    1460     211.     &I       SETA  &I+1
                                    1461     212.     &OPS(&I) SETC  'BLANK'
                                    1462     213.              AIF   ('&OP' EQ '&OPS(&I)').GENCALL
                                    1463     214.     &I       SETA  &I+1
                                    1464     215.     &OPS(&I) SETC  'SKIP1'
                                    1465     216.              AIF   ('&OP' EQ '&OPS(&I)').GENCALL
                                    1466     217.     &I       SETA  &I+1
                                    1467     218.     &OPS(&I) SETC  'SKIP2'
                                    1468     219.              AIF   ('&OP' EQ '&OPS(&I)').GENCALL
                                    1469     220.     &I       SETA  &I+1
                                    1470     221.     &OPS(&I) SETC  'PAGE'
                                    1471     222.              AIF   ('&OP' EQ '&OPS(&I)').GENCALL
                                    1472     223.     &I       SETA  &I+1
                                    1473     224.     &OPS(&I) SETC  'DDNAM'
                                    1474     225.              AIF   ('&OP' EQ '&OPS(&I)').GENCALL
                                    1475     226.     &I       SETA  &I+1
                                    1476     227.     &OPS(&I) SETC  'PGRT'
                                    1477     228.              AIF   ('&OP' EQ '&OPS(&I)').GENCALL
                                    1478     229.     &I       SETA  &I+1
                                    1479     230.     &OPS(&I) SETC  'PGLN'
                                    1480     231.              AIF   ('&OP' EQ '&OPS(&I)').GENCALL
                                    1481     231.01   &I       SETA  &I+1
                                    1482     231.02   &OPS(&I) SETC  'ICMD'
                                    1483     231.03            AIF   ('&OP' EQ '&OPS(&I)').GENCALL
                                    1484     231.1    &I       SETA  &I+1
                                    1485     231.2    &OPS(&I) SETC  'STPC'
                                    1486     231.3             AIF   ('&OP' EQ '&OPS(&I)').GENCALL
                                    1487     232.     .*
                                    1488     233.     .*    Insert new codes here, similar in format to the above.
                                    1489     234.     .*    Watch out for limit on array (currently 15).
                                    1490     235.     .*
                                    1491     236.              AIF   ('&OP' NE 'TABLE').INVALID
                                    1492     237.     &LABEL   SETC  '&L'
                                    1493     238.              AIF   (T'&L NE 'O').LABLOK
                                    1494     239.     &LABEL   SETC  '&PFX.BTBL'
                                    1495     240.     .LABLOK  ANOP
                                    1496     241.     &LABEL   B     &LABEL+4(&P1)
                                    1497     242.     &WORK    SETA  1
1VDMP     ORVYL's File System Dump Program: Macro Definitions                                                               Page   11
0D-Loc  Object Code    Addr1 Addr2  Stmt Lv Lineno    Source Statement           (Hibal 5, Asmedit 3.3)  HLASM R4.0  2004/03/22 09.46
+_____  ______ ____    _____ _____  ____ __ ______    ______ _________
0                                   1498     243.     .TABLOOP AIF   (&WORK GT &I).ENDLOOP
                                    1499     244.              B     &PFX&OPS(&WORK)
                                    1500     245.     &WORK    SETA  &WORK+1
                                    1501     246.              AGO   .TABLOOP
                                    1502     247.     .ENDLOOP ANOP
                                    1503     248.              MEXIT
                                    1504     249.     .GENCALL ANOP
                                    1505     250.     &WORK    SETA  (&I*4)-4
                                    1506     251.     &L       LA    0,&WORK
                                    1507     252.              SYSLR 1,&P1,NULL=0
                                    1508     253.              SYSLR 15,&P2,NULL=
                                    1509     254.              SYSLR 14,&P3,NULL=
                                    1510     255.              VCALL VCNTRL
                                    1511     256.              MEXIT
                                    1512     257.     .INVALID ANOP
                                    1513     258.              MNOTE 8,'&OP: Invalid control code'
                                    1514     259.              MEND
-                                   1516     261.              MACRO
                                    1517     262.     &L       VINIT ,
                                    1518     263.     &L       L     RAR,=V(VIDCINIT)    Load external address
                                    1519     264.              BASR  RAR,RAR             Enter initialize routine
                                    1520     265.              MEND  ,
1VDMP     ORVYL's File System Dump Program: Control Blocks                                                                  Page   12
0D-Loc  Object Code    Addr1 Addr2  Stmt Lv Lineno    Source Statement           (Hibal 5, Asmedit 3.3)  HLASM R4.0  2004/03/22 09.46
+_____  ______ ____    _____ _____  ____ __ ______    ______ _________
0                                   1522     267.     ********************************************************************
                                    1523     268.     *                                                                  *
                                    1524     269.     *   Provide module identification                                  *
                                    1525     270.     *                                                                  *
                                    1526     271.     ********************************************************************
-
 000000                00000 0B848  1528     276.     VDMP     CSECT ,                   Set FILEDUMP control section
                                    1532     277.              IDENT 21                    Generate module identifier
                                    1535             +
                                    1536    01-IDENT +         ENTRY VDMP21
                                    1537             +
 000000 14E5C4D4D7F2F16B            1538    01-IDENT +VDMP21   DC    AL1(20),C'VDMP21,22MAR04,09:46'
                                    1539             +*
                                    1541     278.              PRINT OFF                     Suppress macro expansions
1VDMP     (VDMP21) (09:46) (22MAR04) ORVYL's File System Dump Program: Control Blocks                                       Page   13
0D-Loc  Object Code    Addr1 Addr2  Stmt Lv Lineno    Source Statement           (Hibal 5, Asmedit 3.3)  HLASM R4.0  2004/03/22 09.46
+_____  ______ ____    _____ _____  ____ __ ______    ______ _________
0000000                00000 00168 13584     334.     IOB      RECORD BEGIN
                                   13592  1  335.                COPY  IOB
                                   13593  1          =***********************************************************************
                                   13594  1          =*                                                                     *
                                   13595  1          =*                    STANDARD SECTION OF THE IOB                      *
                                   13596  1          =*                                                                     *
                                   13597  1          =***********************************************************************
-                                         1
 000000                            13599  1          =IOBSTDRD   DS    0D
0000000                            13601  1          =IOBFLAG1   DS    B -       FLAG BYTE
                                   13602  1          =IOBDATCH   EQU   X'80' --- DATA CHAINING USED IN CHANNEL PROGRAM
                                   13603  1          =IOBCMDCH   EQU   X'40' --- COMMAND CHAINING USED IN CHANNEL PROGRAM
                                   13604  1          =IOBERRTN   EQU   X'20' --- ERROR ROUTINE IS IN CONTROL
                                   13605  1          =IOBRPSTN   EQU   X'10' --- DEVICE IS TO BE REPOSITIONED
                                   13606  1          =IOBCYCCK   EQU   X'08' --- CYCLIC REDUNDANCY CHECK NEEDED(TAPE ONLY)
                                   13607  1          =IOBFCREX   EQU   X'08' --- FETCH COMMAND RETRY EXIT (DIRECT ACCESS ONLY)
                                   13608  1          =IOBIOERR   EQU   X'04' --- I/O ERROR HAS OCCURRED
                                   13609  1          =IOBUNREL   EQU   X'02' --- THIS I/O REQUEST IS UNRELATED(NON-SEQUENTIAL)
                                   13610  1          =IOBRSTRT   EQU   X'01' --- RESTART ADDR.IN IOB TO BE USED
 000001                            13611  1          =IOBFLAG2   DS    B -       FLAG BYTE
                                   13612  1          =IOBHALT    EQU   X'80' --- HALT I/O HAS BEEN ISSUED BY SVC PURGE ROUTINE
                                   13613  1          =IOBSENSE   EQU   X'40' --- ISSUE SENSE COMMAND AFTER DEVICE END OCCURS
                                   13614  1          =IOBPURGE   EQU   X'20' --- IOB HAS BEEN PURGED *ALLOW I/O TO QUIESCE
                                   13615  1          =IOBRDHA0   EQU   X'10' --- HOME ADDRESS TO BE READ * NO SEEK NEEDED
                                   13616  1          =IOBALTTR   EQU   X'08' --- NO TEST FOR OUT-OF-EXTENT * AN ALTERNATE TRACK
                                   13617  1          =*                        IS IN USE
                                   13618  1          =IOBSKUPD   EQU   X'04' --- SEEK ADDRESS IS BEING UPDATED -CYLINDER END
                                   13619  1          =*                        OR FILE MASK VIOLATION HAS OCCURRED
                                   13620  1          =IOBSTATO   EQU   X'02' --- DEVICE END STATUS HAS BEEN ORED WITH
                                   13621  1          =*                        CHANNEL END STATUS - GRAPHICS DEVICE
                                   13622  1          =IOBPNCH    EQU   X'01' --- TURNED ON BY QSAM WHEN ERROR RECOVERY IS TO
                                   13623  1          =*                        BE PROVIDED FOR THE 2540 CARD PUNCH
 000002                            13624  1          =IOBSENS0   DS    B ------- FIRST SENSE BYTE
                                   13625  1          =IOBS0B0    EQU   X'80' --- BIT 0 (DEVICE DEPENDENT)
                                   13626  1          =IOBS0B1    EQU   X'40' --- BIT 1 (DEVICE DEPENDENT)
                                   13627  1          =IOBS0B2    EQU   X'20' --- BIT 2 (DEVICE DEPENDENT)
                                   13628  1          =IOBS0B3    EQU   X'10' --- BIT 3 (DEVICE DEPENDENT)
                                   13629  1          =IOBS0B4    EQU   X'08' --- BIT 4 (DEVICE DEPENDENT)
                                   13630  1          =IOBS0B5    EQU   X'04' --- BIT 5 (DEVICE DEPENDENT)
                                   13631  1          =IOBS0B6    EQU   X'02' --- BIT 6 (DEVICE DEPENDENT)
                                   13632  1          =IOBS0B7    EQU   X'01' --- BIT 7 (DEVICE DEPENDENT)
                                   13633  1          =IOBSNSC9   EQU   X'01' --- CHANNEL 9 SENSED IN CARRIAGE TAPE
 000003                            13634  1          =IOBSENS1   DS    B ------- SECOND SENSE BYTE
                                   13635  1          =IOBS1B0    EQU   X'80' --- BIT 0 (DEVICE DEPENDENT)
                                   13636  1          =IOBS1B1    EQU   X'40' --- BIT 1 (DEVICE DEPENDENT)
                                   13637  1          =IOBS1B2    EQU   X'20' --- BIT 2 (DEVICE DEPENDENT)
                                   13638  1          =IOBS1B3    EQU   X'10' --- BIT 3 (DEVICE DEPENDENT)
                                   13639  1          =IOBS1B4    EQU   X'08' --- BIT 4 (DEVICE DEPENDENT)
                                   13640  1          =IOBS1B5    EQU   X'04' --- BIT 5 (DEVICE DEPENDENT)
                                   13641  1          =IOBS1B6    EQU   X'02' --- BIT 6 (DEVICE DEPENDENT)
                                   13642  1          =IOBS1B7    EQU   X'01' --- BIT 7 (DEVICE DEPENDENT)
 000004                            13643  1          =IOBECBPT   DS    0A ------ ADDRESS OF ECB TO BE POSTED ON I/O COMPLETION
 000004                            13644  1          =IOBECBCC   DS    CL1 ---- COMPLETION CODE FOR THIS I/O REQUEST
1VDMP     (VDMP21) (09:46) (22MAR04) ORVYL's File System Dump Program: Control Blocks                                       Page   14
0D-Loc  Object Code    Addr1 Addr2  Stmt Lv Lineno    Source Statement           (Hibal 5, Asmedit 3.3)  HLASM R4.0  2004/03/22 09.46
+_____  ______ ____    _____ _____  ____ __ ______    ______ _________
0000005                            13645  1          =IOBECBPB   DS    AL3 ----- ADDRESS OF ECB TO BE POSTED ON I/O COMPLETION
 000008                            13646  1          =IOBFLAG3   DS    B ------- ERROR ROUTINE FLAG BYTE
 000009                            13647  1          =IOBCSW     DS    CL7 ----- LOW ORDER 7 BYTES OF CSW AT CHANNEL END
 000010                            13648  1          =IOBSTART   DS    0A ------ ADDRESS OF CHANNEL PROGRAM
 000010                            13649  1          =IOBSIOCC   DS    B ------- BITS 2 AND 3 = C.C. FROM SIO
 000011                            13650  1          =IOBSTRTB   DS    AL3 ----- ADDRESS OF CHANNEL PROGRAM
 000014                            13651  1          =IOBDCBPT   DS    0A ------ ADDRESS OF DATA CONTROL BLOCK FOR THIS IOB
 000014                            13652  1          =IOBRSV36   DS    XL1 ----- RESERVED
 000015                            13653  1          =IOBDCBPB   DS    AL3 ----- ADDRESS OF DATA CONTROL BLOCK FOR THIS IOB
 000018                            13654  1          =IOBRESTR   DS    0A ------ RESTART ADDRESS FOR ERROR RETRY
 000018                            13655  1          =IOBREPOS   DS    CL1 ----- CODE USED TO REPOSITION DEVICE
 000019                            13656  1          =IOBRSTRB   DS    AL3 ----- RESTART ADDRESS FOR ERROR RETRY
 00001C                            13657  1          =IOBINCAM   DS    0H ------ VALUE USED TO INCREMENT BLOCK COUNT ON TAPE
 00001C                            13658  1          =IOBBTAMF   DS    B ------- FLAG BYTE FOR BTAM
                                   13659  1          =IOBPRMER   EQU   X'80' --- 'SAD','ENABLE' ISSUED BY OPEN CAUSED I/O ERROR
                                   13660  1          =IOBINUSE   EQU   X'40' --- IOB IS IN USE
                                   13661  1          =IOBRSV14   EQU   X'20',,C'X' RESERVED
                                   13662  1          =IOBRSV15   EQU   X'10',,C'X' RESERVED
                                   13663  1          =IOBRSV16   EQU   X'08',,C'X' RESERVED
                                   13664  1          =IOBRSV17   EQU   X'04',,C'X' RESERVED
                                   13665  1          =IOBRFTMG   EQU   X'02' --- INDICATES A REQUEST-FOR-TEST MESSAGE FROM A
                                   13666  1          =*                        REMOTE 3270                             ICB478
                                   13667  1          =IOBOLTST   EQU   X'01' --- LINE IS UNDER ON-LINE TEST OPERATION
 00001D                            13668  1          =IOBRSV19   DS    XL1 ----- RESERVED
000001E                0001E 0001C 13670  1          =           ORG   IOBINCAM
 00001C                            13671  1          =IOBCRDCC   DS    CL1 ----- OPTICAL READER: DATA CHECK ERROR COUNT
 00001D                            13672  1          =IOBCRILC   DS    CL1 ----- OPTICAL READER: INCORRECT LENGTH ERROR COUNT
-00001E                            13674  1          =IOBERRCT   DS    H ------- NUMBER OF ERROR RETRIES
-                                         1
                                   13676  1          =***********************************************************************
                                   13677  1          =*                                                                     *
                                   13678  1          =*                   EXTENSION SECTIONS OF THE IOB                     *
                                   13679  1          =*                                                                     *
                                   13680  1          =***********************************************************************
0000020                            13682  1          =IOBEXTEN   DS    0D
0                                  13684  1          =*                            ******************************************
                                   13685  1          =*                            *                                        *
                                   13686  1          =*                            *  DIRECT ACCESS EXTENSION ** 16 BYTES   *
                                   13687  1          =*                            *                                        *
                                   13688  1          =*                            ******************************************
0000020                            13690  1          =IOBSEEK    DS    0CL8 ----
 000020                            13691  1          =IOBM       DS    CL1 ----- RELATIVE EXTENT NUMBER FOR THIS REQUEST(0-15)
 000021                            13692  1          =IOBBB      DS    0CL2 ---- BIN NUMBER(DATA CELL)
 000021                            13693  1          =IOBBB1     DS    CL1
 000022                            13694  1          =IOBBB2     DS    CL1
 000023                            13695  1          =IOBCC      DS    0CL2 ---- CYLINDER NUMBER
 000023                            13696  1          =IOBCC1     DS    CL1
 000024                            13697  1          =IOBCC2     DS    CL1
1VDMP     (VDMP21) (09:46) (22MAR04) ORVYL's File System Dump Program: Control Blocks                                       Page   15
0D-Loc  Object Code    Addr1 Addr2  Stmt Lv Lineno    Source Statement           (Hibal 5, Asmedit 3.3)  HLASM R4.0  2004/03/22 09.46
+_____  ______ ____    _____ _____  ____ __ ______    ______ _________
0000025                            13698  1          =IOBHH      DS    0CL2 ---- TRACK NUMBER
 000025                            13699  1          =IOBHH1     DS    CL1
 000026                            13700  1          =IOBHH2     DS    CL1
 000027                            13701  1          =IOBR       DS    CL1 ----- RECORD NUMBER
                                   13702  1          =IOBAREA    EQU   IOBSTDRD,*-IOBSTDRD,C'R'         LENGTH OF IOB
                                   13703  1  336.     *                              *************************************
                                   13704  1  337.     *                              *                                   *
                                   13705  1  338.     *                              *   Dump program extension for      *
                                   13706  1  339.     *                              *   channel program, buffer address *
                                   13707  1  340.     *                              *   and length, and ECB             *
                                   13708  1  341.     *                              *                                   *
                                   13709  1  342.     *                              *************************************
0000028                            13711  1  344.     IOBECB     DS    F                   ECB for this IOB
 00002C                            13712  1  345.     IOBNXIOB   DS    A                   Address of next IOB in chain
 000030                            13713  1  346.     IOBBUFFA   DS    A                   Buffer address for this IOB
 000034                            13714  1  347.     IOBBUFFL   DS    F                   Length of current IOB buffer
 000038 00000000                   13715  1  347.1    IOBIOCNT   DC    A(0)                NUMBER OF RECORDS FOR CYL READ
 00003C 00                         13716  1  348.     IOBFLAGA   FLAG  ,                   Define dump flag byte
 IOBFLAGA.IOBEXCPD 80 ONES         13720  1  349.                FLAG  IOBEXCPD                - EXCP done for this IOB
 00003D                            13725  1  350.     IOBSECT    DS    X                   Sector number for retry CCW
000003E 0000                              1
 000040 FA00000000000100           13727  1  351.1    IOBRDDEV   CCW   X'FA',*-*,X'00',256 Read device characteristics
 000048                            13728  1  352.     IOBCHPRO   DS    0D                  Channel program
 000048 2300003D40000001           13729  1  352.1    IOBOPTSS   CCW   CCWSS,IOBSECT,X'40',1
                                   13730  1  353.     IOBRMAX    EQU   28                  Maximum read CCW in IOBCHPRO
 000050                            13731  1  354.     IOBREADS   DS    (IOBRMAX)D          Space for READ DATA CCW's
 000130                            13732  1  354.1               DS    0D
 000130                            13733  1  354.2    IOBLOCRX   DS    XL22'00'            Locate record parameter list
 000148                            13734  1  355.     IOBRETRY   DS    0D                  IOB Retry CCW chain
 000148 2300000040000001           13735  1  356.                CCW   CCWSS,*-*,X'40',1     <Set Sector>
 000150 3100000040000005           13736  1  357.                CCW   CCWSIDEQ,*-*,X'40',5  <Search ID Equal>
 000158 0800000000000001           13737  1  358.                CCW   CCWTIC,*-*,0,1        <TIC *-8>
 000160 0E00000000000808           13738  1  359.     IOBRKD     CCW   CCWRKD,*-*,0,2056     <Read Key,Data>
 000168                00168 00168 13739     361.              END   ,
1VDMP     (VDMP21) (09:46) (22MAR04) ORVYL's File System Dump Program: Control Blocks                                       Page   16
0D-Loc  Object Code    Addr1 Addr2  Stmt Lv Lineno    Source Statement           (Hibal 5, Asmedit 3.3)  HLASM R4.0  2004/03/22 09.46
+_____  ______ ____    _____ _____  ____ __ ______    ______ _________
0                                  13749     363.     ¿þþþþþþþþþþþþþþþþþþþþþþþþþþþþþþþþþþþþþþþþþþþþþþþþþþþþþþþþþþþþþþþþþþþþþÜ
                                   13750     364.     Ÿ                                                                     Ÿ
                                   13751     365.     Ÿ   CCW dsect, command codes and flags                                Ÿ
                                   13752     366.     Ÿ        Format 0 ccw type, well..we're still behind the times        Ÿ
                                   13753     367.     Ÿ                                                                     Ÿ
                                   13754     368.     Ÿ                                                                     Ÿ
                                                      ¾þþþþþþþþþþþþþþþþþþþþþþþþþþþþþþþþþþþþþþþþþþþþþþþþþþþþþþþþþþþþþþþþþþþþþ»
0000000                00000 00008 13756     370.     CCWDSECT RECORD BEGIN
 000000                            13764  1  371.     CCWADDR    DS    0A                  Data address
 000000                            13765  1  372.     CCWOPCDE   DS    X                   CCW command code
 000001                            13766  1  373.     CCWADDR3   DS    AL3                 Data address
 000004                            13767  1  374.     CCWFLAGS   DS    X                   Modifier flags
 000005                            13768  1  375.     CCWPAD     DS    X                   Reserved
 000006                            13769  1  376.     CCWLEN     DS    H                   Data length
                                   13770  1  377.     CCWNEXT    EQU   *
                                   13771  1  378.     CCW        EQU   CCWDSECT,8
                                   13772  1  379.
                                   13773  1  380.     CCWSS      EQU   X'23'               Set sector
                                   13774  1  381.     CCWRKD     EQU   X'0E'               Read KEY & DATA
                                   13775  1  382.     CCWRDD     EQU   X'06'               Read DATA
                                   13776  1  383.     CCWRCKD    EQU   X'1E'               Read COUNT, KEY, DATA
                                   13777  1  384.     CCWSIDEQ   EQU   X'31'               Search ID equal
                                   13778  1  385.     CCWTIC     EQU   X'08'               Transfer In Channel
 CCWOPCDE.CCWMT    80 ONES         13779  1  386.                FLAG  (CCWMT,CCWOPCDE.X'80')  Multi-track mode flag
 CCWFLAGS.CCWDATCH 80 ONES         13788  1  387.                FLAG  (CCWDATCH,CCWFLAGS.X'80')     Data chaining
 CCWFLAGS.CCWCMDCH 40 ONES         13797  1  388.                FLAG  (CCWCMDCH,CCWFLAGS.X'40')     Command chaining
 CCWFLAGS.CCWSLI   20 ONES         13806  1  389.                FLAG  (CCWSLI,CCWFLAGS.X'20')       Skip length error
 000008                00008 00008 13815     390.              END   ,
                                   13824     390.93            COPY  D3990RDC
                                   13825=            =¿þþþþþþþþþþþþþþþþþþþþþþþþþþþþþþþþþþþþþþþþþþþþþþþþþþþþþþþþþþþþþþþþþþþþþÜ
                                   13826=            =Ÿ                                                                     Ÿ
                                   13827=            =Ÿ  Format of the READ DEVICE CHARACTERISTICS information returned     Ÿ
                                   13828=            =Ÿ  by the IBM 3990-6 control unit as defined in                       Ÿ
                                   13829=            =Ÿ                                                                     Ÿ
                                   13830=            =Ÿ     IBM documentation:                                              Ÿ
                                   13831=            =Ÿ         IBM 3990 Storage Control Reference (Models 1, 2, and 3)     Ÿ
                                   13832=            =Ÿ         Document Number GA32-0099-06                                Ÿ
                                   13833=            =Ÿ                                                                     Ÿ
                                   13834=            =Ÿ                                                                     Ÿ
                                                      ¾þþþþþþþþþþþþþþþþþþþþþþþþþþþþþþþþþþþþþþþþþþþþþþþþþþþþþþþþþþþþþþþþþþþþþ»
-000000                00000 0003E 13836             =D3990RDC RECORD BEGIN              Read device characteristics
 000000 3990                       13844  1          =RDC_SCTY   DC    XL2'3990'    0-1    Storage control type
 000002 00                         13845  1          =RDC_SCMD   DC    XL1'00'        2    Storage control model number
 000003 3390                       13846  1          =RDC_DEVT   DC    XL2'3390'    3-4    Device type
 000005 00                         13847  1          =RDC_MODL   DC    XL1'00'        5    Device model
 000006                            13848  1          =RDC_SCDF   DC    0XL4'00'     6-9    Storage control and device fac.
 000006 00                         13849  1          =RDC_SCD1   FLAG  ,
 000007 00                         13853  1          =RDC_SCD2   FLAG  ,
 000008 00                         13857  1          =RDC_SCD3   FLAG  ,
 000009 00                         13861  1          =RDC_SCD4   FLAG  ,               9
 RDC_SCD4.RDC_SSCF 80 ONES         13865  1          =           FLAG  RDC_SSCFW           SUBSYSTEMN CACHE FAST WRITE
 RDC_SCD4.RDC_SCF4 40 ONES         13870  1          =           FLAG  RDC_SCF4R1          RESERVED
 RDC_SCD4.RDC_SCFR 20 ONES         13875  1          =           FLAG  RDC_SCFRR2          RESERVED
1VDMP     (VDMP21) (09:46) (22MAR04) ORVYL's File System Dump Program: Control Blocks                                       Page   17
0D-Loc  Object Code    Addr1 Addr2  Stmt Lv Lineno    Source Statement           (Hibal 5, Asmedit 3.3)  HLASM R4.0  2004/03/22 09.46
+_____  ______ ____    _____ _____  ____ __ ______    ______ _________
0RDC_SCD4.RDC_SSC  10 ONES         13880  1          =           FLAG  RDC_SSC             SUBSYSTEM SUPPORTS CACHING
 RDC_SCD4.RDC_SSDC 08 ONES         13885  1          =           FLAG  RDC_SSDC            SUBSYSTEM SUPPORTS DUAL COPY
 RDC_SCD4.RDC_SSDF 04 ONES         13890  1          =           FLAG  RDC_SSDFW           SUBSYSTEM SUPPORTS DASD FAST WRITE
 RDC_SCD4.RDC_SSRA 02 ONES         13895  1          =           FLAG  RDC_SSRA            SUBSYSTEM SUPPORTS RESET ALLEG
 RDC_SCD4.RDC_SS32 01 ONES         13900  1          =           FLAG  RDC_SS32            SUBSYSTEM TRANSFERS 32 BYTES
 00000A 00                         13905  1          =RDC_DCC    DC    XL1'00'        10   Device class code
 00000B 00                         13906  1          =RDC_DTC    DC    XL1'00'        11   Device type code
 00000C 00                         13907  1          =RDC_NPC    DC    XL1'00'     12-13   Number of primary cylinders
 00000D 00                         13908  1          =RDC_TPC    DC    XL1'00'     14-15   Tracks per cylinder
 00000E 00                         13909  1          =RDC_NS     DC    XL1'00'        16   Number of sectors
 00000F 000000                     13910  1          =RDC_TRKL   DC    XL3'000000' 17-19   Track length
 000012 0000                       13911  1          =RDC_HAR0   DC    XL2'0000'   20-21   Length of ha and r0
 000014 00                         13912  1          =RDC_TCC    DC    XL1'00'        22   Track capactiy calculation factor
 000015 0000000000                 13913  1          =RDC_TCCS   DC    XL5'00'     23-27   Track capactiy calc (f1-f5)
 00001A 0000                       13914  1          =RDC_FAC    DC    XL2'0000'   28-29   First alternate cylinder address
 00001C 0000                       13915  1          =RDC_NAT    DC    XL2'0000'   30-31   Number of alternate tracks
 00001E 0000                       13916  1          =RDC_FDC    DC    XL2'0000'   32-33   First diagnostic cylinder
 000020 0000                       13917  1          =RDC_NDT    DC    XL2'0000'   34-35   Number of dignostic tracks
 000022 0000                       13918  1          =RDC_NDSC   DC    XL2'0000'   36-37   First device support cylinder
 000024 0000                       13919  1          =RDC_NDST   DC    XL2'0000'   38-39   Number of device support tracks
 000026 00                         13920  1          =RDC_MDR    DC    XL1'00'        40   Mdr record id
 000027 00                         13921  1          =RDC_OBR    DC    XL1'00'        41   Obr record id
 000028 00                         13922  1          =RDC_STCT   DC    XL1'00'        42   Storage control type code
 000029 00                         13923  1          =RDC_RTPL   DC    XL1'00'        43   Read trackset parameter length
 00002A 0000                       13924  1          =RDC_MXR0   DC    XL2'0000'   44-45   Maximum record zero length
 00002C 00                         13925  1          =           DC    XL1'00'        46   *** reserved ***
 00002D 00                         13926  1          =RDC_TSSZ   DC    XL1'00'        47   Track set size
 00002E 00                         13927  1          =RDC_TCC6   DC    XL1'00'        48   Track capacity calc (F6)
 00002F 0000                       13928  1          =RDC_RPSF   DC    XL2'0000'   49-50   Rps sector calculation factor
 000031 0000000000000000           13929  1          =           DC    XL13'00'    51-63   *** reserved ***
 00003E                0003E 0003E 13930             =         END   ,
1VDMP     (VDMP21) (09:46) (22MAR04) ORVYL's File System Dump Program: Control Blocks                                       Page   18
0D-Loc  Object Code    Addr1 Addr2  Stmt Lv Lineno    Source Statement           (Hibal 5, Asmedit 3.3)  HLASM R4.0  2004/03/22 09.46
+_____  ______ ____    _____ _____  ____ __ ______    ______ _________
0                                  13940     391.02            Copy  VDMPHIST            Include History record definitions
                                   13941=            =¿þþþþþþþþþþþþþþþþþþþþþþþþþþþþþþþþþþþþþþþþþþþþþþþþþþþþþþþþþþþþþþþþþþþþþÜ
                                   13942=            =Ÿ                                                                     Ÿ
                                   13943=            =Ÿ  Define history file record formats                                 Ÿ
                                   13944=            =Ÿ                                                                     Ÿ
                                   13945=            =Ÿ        The history file is a simple BDAM file which is used to      Ÿ
                                   13946=            =Ÿ        record the file maintenance history.  Records are keep for   Ÿ
                                   13947=            =Ÿ        each full file system dump, each incremental, and the        Ÿ
                                   13948=            =Ÿ        status of the Established/Split state of the EMC business    Ÿ
                                   13949=            =Ÿ        continuance volumes.                                         Ÿ
                                   13950=            =Ÿ                                                                     Ÿ
                                                      ¾þþþþþþþþþþþþþþþþþþþþþþþþþþþþþþþþþþþþþþþþþþþþþþþþþþþþþþþþþþþþþþþþþþþþþ»
0                                                              ¿þþþþþþþþþþþþþþþþþþþþþþþþþþþþþþþþþþþþÜ
-                                  13952=            =         Ÿ  History base block record layout  Ÿ
                                                               ¾þþþþþþþþþþþþþþþþþþþþþþþþþþþþþþþþþþþþ»
                                   13953             =HIS#LEN  EQU   128                 Set length of history record
 000000                00000 00080 13954             =HISBREC  DSECT ,                   Define history base record
 000000 00000000                   13955             =HISBBLK  DC    A(0)                Block number address
 000004 00000000                   13956             =HISBLKS  DC    A(0)                Number of blocks in history file
 000008 00000000                   13957             =HISBLKSZ DC    A(0)                Blocksize in file (multiple of 64)
 00000C 00000000                   13958             =HISBRECS DC    A(0)                Total records in file
 000010 00000000                   13959             =HISBFREE DC    A(0)                Next available record pointer
 000014 00000000                   13960             =HISBDMPS DC    A(0)                Pointer to most recent dump
 000018 00000000                   13961             =HISBINCS DC    A(0)                Pointer to most recent incremental
 00001C 00000000                   13962             =HISBDGEN DC    A(0)                Dump generations to maintain
 000020 00000000                   13963             =HISBDGC  DC    A(0)                Current count of generations
 000024 00000000                   13964             =HISBIGEN DC    A(0)                Incremental gens to maintain
 000028 00000000                   13965             =HISBIGC  DC    A(0)                Current incremental generations
 00002C C3C1D4D7E4E24040           13966             =HISBNAME DC    CL8'CAMPUS'         File system name
                                                               ¿þþþþþþþþþþþþþþþþþþþþþþþþþþþþþþþþþþþþþþþþþþþþþþþþþþþþþþþþþÜ
                                   13967=            =         Ÿ  Expansion growth may start here to avoid invalidating  Ÿ
                                   13968=            =         Ÿ  existing History file data.                            Ÿ
                                                               ¾þþþþþþþþþþþþþþþþþþþþþþþþþþþþþþþþþþþþþþþþþþþþþþþþþþþþþþþþþ»
 000034 00000000                   13969             =HISBSPLT DC    A(0)                Pointer to most recent split
 000038 00000000                   13970             =HISBSPCN DC    A(0)                Current count of split generations
 00003C 00000000                   13971             =HISBSPMX DC    A(0)                Maximum retained count of splits
                                   13972             =HISBLEN  EQU   128-(*-HISBREC)     Define length of block
 000040 0000000000000000           13973             =         DC    XL(HISBLEN)'00'     End of record
                                                               ¿þþþþþþþþþþþþþþþþþþþþþþþþþþþþþþþþþþÜ
-                                  13975=            =         Ÿ  Format of the Full Dump Record  Ÿ
                                                               ¾þþþþþþþþþþþþþþþþþþþþþþþþþþþþþþþþþþ»
 000000                00000 00080 13976             =HISDREC  DSECT ,                   Define dump record format
 000000 00000000                   13977             =HISDBLK  DC    A(0)                Block number address
 000004 00000000                   13978             =HISDNXT  DC    A(0)                Record number chain
 000008 00                         13979             =HISDFLG1 FLAG  ,                   Define record flags
 000009 000000                     13983             =         DC    AL3(0)              Reserved
 00000C 00000000                   13984             =HISDCLCK DC    A(0)                Record time-stamp, (tod format)
 000010 00000000                   13985             =HISDRC   DC    A(0)                Return code from function
 000014 00000000                   13986             =HISDSEG  DC    A(0)                Pointer to segment records
 000018 0000000000000000           13987             =         DC    (128-(*-HISDREC))X'00'  end of record
1VDMP     (VDMP21) (09:46) (22MAR04) ORVYL's File System Dump Program: Control Blocks                                       Page   19
0D-Loc  Object Code    Addr1 Addr2  Stmt Lv Lineno    Source Statement           (Hibal 5, Asmedit 3.3)  HLASM R4.0  2004/03/22 09.46
+_____  ______ ____    _____ _____  ____ __ ______    ______ _________
0                                                              ¿þþþþþþþþþþþþþþþþþþþþþþþþþþþþþþþþþþþþþþþþþÜ
-                                  13989=            =         Ÿ  Format of the BCV split status record  Ÿ
                                                               ¾þþþþþþþþþþþþþþþþþþþþþþþþþþþþþþþþþþþþþþþþþ»
 000000                00000 00080 13990             =HISSPREC DSECT ,                   Define dump record format
 000000 00000000                   13991             =HISSPBLK DC    A(0)                Block number address
 000004 00000000                   13992             =HISSPNXT DC    A(0)                Record number chain
 000008 00                         13993             =HISSPFLG FLAG  ,                   Define record flags
 HISSPFLG.HISSP_es 80 ONES         13997             =         FLAG  HISSP_est             - Volumes are established
 HISSPFLG.HISSP_sp 40 ONES         14002             =         FLAG  HISSP_split           - Volumes are split
 000009 000000                     14007             =         DC    AL3(0)              Reserved
 00000C 00000000                   14008             =HISSPCLK DC    A(0)                Record time-stamp, (tod format)
 000010 00000000                   14009             =HISSPRC  DC    A(0)                Return code from function
 000014 0000000000000000           14010             =         DC    (128-(*-HISSPREC))X'00' Fill to end of record
                                                               ¿þþþþþþþþþþþþþþþþþþþþþþþþþþþþþþþþþþþþþÜ
-                                  14012=            =         Ÿ  Format of the dump Segment record  Ÿ
                                                               ¾þþþþþþþþþþþþþþþþþþþþþþþþþþþþþþþþþþþþþ»
 000000                00000 00080 14013             =HISSREC  DSECT ,                   Define segment record format
 000000 00000000                   14014             =HISSBLK  DC    A(0)                Block number address
 000004 00000000                   14015             =HISSNXT  DC    A(0)                Record number chain
 000008 00                         14016             =HISSFLG1 FLAG  ,                   Define record flags
 000009 000000                     14020             =         DC    AL3(0)              Reserved
 00000C 00000000                   14021             =HISSTIME DC    A(0)                Record time-stamp (tod format)
 000010 4040404040404040           14022             =HISSDSN  DC    CL44' '             Data set name
 00003C 00000000                   14023             =HISSRC   DC    A(0)                Return code for segment
 000040 00000000                   14024             =HISSVOLS DC    A(0)                Pointer to volume records
 000044 0000000000000000           14025             =         DC    (128-(*-HISSREC))X'00'  end of record
-000000                00000 00080 14027             =HISIREC  DSECT ,                   Define incremental record format
 000000 00000000                   14028             =HISIBLK  DC    A(0)                Block number address
 000004 00000000                   14029             =HISINXT  DC    A(0)                Pointer to older record
 000008 00                         14030             =HISIFLG1 FLAG  ,                   Define flag field
 HISIFLG1.HISIFSCR 80 ONES         14034             =         FLAG  HISIFSCR              -  data sets scratched
 000009 000000                     14039             =         DC    AL3(0)              Reserved
 00000C 00000000                   14040             =HISICLCK DC    A(0)                Record time stamp
 000010 00000000                   14041             =HISIPOOL DC    A(0)                Pointer to pool volume records
 000014 4040404040404040           14042             =HISIDSN  DC    CL44' '             Data set name
 000040 00000000                   14043             =HISIRC   DC    A(0)                Return code from function
 000044 00000000                   14044             =HISIVOLS DC    A(0)                Pointer to volume records
 000048 0000000000000000           14045             =         DC    (128-(*-HISIREC))X'00'   end of record
-000000                00000 00080 14047             =HISPREC  DSECT ,
 000000 00000000                   14048             =HISPBLK  DC    A(0)                Block number
 000004 00000000                   14049             =HISPNXT  DC    A(0)                Pointer to the next record
 000008 00                         14050             =HISPFLG  FLAG  ,                   Flag bits
 000009 000000                     14054             =         DC    AL3(0)              Reserved
 00000C 00000000                   14055             =HISPCLCK DC    A(0)                Tod clock value
 000010 4040404040404040           14056             =HISPDSN  DC    CL44' '             Data set name
 00003C 404040404040               14057             =HISPVOL  DC    CL6' '              Volume serial
 000042 0000000000000000           14058             =         DC    (128-(*-HISPREC))X'00'  end of record
1VDMP     (VDMP21) (09:46) (22MAR04) ORVYL's File System Dump Program: Control Blocks                                       Page   20
0D-Loc  Object Code    Addr1 Addr2  Stmt Lv Lineno    Source Statement           (Hibal 5, Asmedit 3.3)  HLASM R4.0  2004/03/22 09.46
+_____  ______ ____    _____ _____  ____ __ ______    ______ _________
0                                                              ¿þþþþþþþþþþþþþþþþþþþþþþþþþþþþþþþþþþþþþþþþþþþþþþþþþþþÜ
-                                  14060=            =         Ÿ  This mapping is used when we are working on the  Ÿ
                                   14061=            =         Ÿ  Dump/Incremental type records for common fields  Ÿ
                                                               ¾þþþþþþþþþþþþþþþþþþþþþþþþþþþþþþþþþþþþþþþþþþþþþþþþþþþ»
 000000                00000 00080 14062             =HISXREC  DSECT ,
 000000 00000000                   14063             =HISXBLK  DC    A(0)                Block number
 000004 00000000                   14064             =HISXNXT  DC    A(0)                Chain pointer
 000008 00                         14065             =HISXFLG  FLAG  ,                   Flag bits
 HISXFLG.HISX_Spli 80 ONES         14069             =         FLAG  HISX_Split           - Time originates from SPLIT
 000009 000000                     14074             =         DC    AL3(0)              Reserved
 00000C 00000000                   14075             =HISXCLCK DC    A(0)                Tod clock value
 000010 00000000                   14076             =HISXRC   DC    A(0)                Return code from function
 000014 0000000000000000           14077             =         DC    (128-(*-HISXREC))X'00'  end of record
-000000                00000 00080 14079             =HISVREC  DSECT ,                   Define volume record format
 000000 00000000                   14080             =HISVBLK  DC    A(0)                Block number address
 000004 00000000                   14081             =HISVNXT  DC    A(0)                Pointer to next volume record
 000008 00000000                   14082             =HISVCNT  DC    A(0)                Number of volumes in this record
 00000C E5D6D3E2C5D9               14083             =HISVOLS  DC    CL6'VOLSER'         Volume serials
 000012 0000000000000000           14084             =         DC    (128-(*-HISVREC))X'00'  end of record
-
                                   14086     391.1    ¿þþþþþþþþþþþþþþþþþþþþþþþþþþþþþþþþþþþþþþþþþþþþþþþþþþþþþþþþþþþþþþþþþþþþþÜ
                                   14087     391.2    Ÿ                                                                     Ÿ
                                   14088     391.3    Ÿ   Filedump exit parameter list definition                           Ÿ
                                   14089     391.4    Ÿ                                                                     Ÿ
                                                      ¾þþþþþþþþþþþþþþþþþþþþþþþþþþþþþþþþþþþþþþþþþþþþþþþþþþþþþþþþþþþþþþþþþþþþþ»
-                                  14091     391.6             Copy  VDMPEXIT            Include VDMP exit parameter list
 000000                00000 00048 14092             =VDMPEXIT RECORD BEGIN              Filedump processing exit parameter
 000000 E5E7C9E3                   14100  1          =VDMPXID    DC    CL4'VXIT'           Exit list identifier
 000004 00000000                   14101  1          =VDMPXLEN   DC    A(0)                Length of this parameter list
 000008 00000000                   14102  1          =VDMPFNC    DC    A(0)                Exit call function vector
 00000C 00000000                   14103  1          =VDMPRETC   DC    A(0)                Exit return code
 000010 00000000                   14104  1          =VDMPUSRW   DC    A(0)                A word to the user
                                   14105= 1          =           ¿þþþþþþþþþþþþþþþþþþþþþþþþþþþþþþþþþþþþÜ
                                   14106= 1          =           Ÿ  Define VDMP entry function codes  Ÿ
                                   14107= 1          =           ¾þþþþþþþþþþþþþþþþþþþþþþþþþþþþþþþþþþþþ»
                                   14108  1          =VDMPF_INIT       EQU    0              Initial call
                                   14109  1          =VDMPF_CLOS       EQU    4              Close call
                                   14110  1          =VDMPF_OPNF       EQU    8              Opening a file data set
                                   14111  1          =VDMPF_OPNT       EQU   12              Opening a dump tape data set
                                   14112  1          =VDMPF_CLSF       EQU   16              Closing a file data set
                                   14113  1          =VDMPF_CLST       EQU   20              Closing a dump tape data set
                                   14114  1          =VDMPF_BLCK       EQU   24              Processing block entry
                                   14115= 1          =           ¿þþþþþþþþþþþþþþþþþþþþþþÜ
                                   14116= 1          =           Ÿ  Define return code  Ÿ
                                   14117= 1          =           ¾þþþþþþþþþþþþþþþþþþþþþþ»
                                   14118  1          =VDMPR_OKAY       EQU    0            Continue, whatever, i'm happy
                                   14119  1          =VDMPR_BMOD       EQU    4            Block has been modified
                                   14120  1          =VDMPR_RET8       EQU    8            --- don't know yet
1VDMP     (VDMP21) (09:46) (22MAR04) ORVYL's File System Dump Program: Control Blocks                                       Page   21
0D-Loc  Object Code    Addr1 Addr2  Stmt Lv Lineno    Source Statement           (Hibal 5, Asmedit 3.3)  HLASM R4.0  2004/03/22 09.46
+_____  ______ ____    _____ _____  ____ __ ______    ______ _________
0                                  14121  1          =VDMPR_RET12      EQU   12            Error occurred, reason code in R0
                                   14122  1          =VDMPR_TERM       EQU   16            Do not call me anymore
0                                  14124= 1          =           ¿þþþþþþþþþþþþþþþþþþþþþþþþþþþþþþþþþþþþþþþþþþþþþþþþþþþþþþþþþþþÜ
                                   14125= 1          =           Ÿ  The format of the following fields are dependent on the  Ÿ
                                   14126= 1          =           Ÿ  function entry code.                                     Ÿ
                                          1                      ¾þþþþþþþþþþþþþþþþþþþþþþþþþþþþþþþþþþþþþþþþþþþþþþþþþþþþþþþþþþþ»
 000014                            14127  1          =VDMP_LL    DC    0A(0)               Start of function dependent fields
                                   14128= 1          =           ¿þþþþþþþþþþþþþþþþþþþþþþþþþþþþþþþþþþþÜ
                                   14129= 1          =           Ÿ  Parameters for an _BLCK request  Ÿ
                                   14130= 1          =           ¾þþþþþþþþþþþþþþþþþþþþþþþþþþþþþþþþþþþ»
 000014 00000000                   14131  1          =VDMP_SEG   DC    A(0)                Current binary segment number
 000018 00000000                   14132  1          =VDMP_BLK   DC    A(0)                Address of current orvyl block
                                   14133= 1          =           ¿þþþþþþþþþþþþþþþþþþþþþþþþþþþÜ
                                   14134= 1          =           Ÿ  Open file/tape data set  Ÿ
                                   14135= 1          =           ¾þþþþþþþþþþþþþþþþþþþþþþþþþþþ»
 00001C                0001C 00014 14136  1          =           ORG   VDMP_LL             Origin back to start of list
 000014 00000000                   14137  1          =VDMP_JFC   DC    A(0)                Address of tape JFCB
 000018 00000000                   14138  1          =VDMP_DCB   DC    A(0)                Address of tape DCB
 00001C C481A38140E285A3           14139  1          =VDMP_NAM   DC    CL44'Data Set name'
 000048                00048 00048 14140  1          =           ORG   ,                   Origin out to maximum displacement
 000048                00048 00048 14141             =         END   ,
-
                                   14151     392.     ********************************************************************
                                   14152     393.     *                                                                  *
                                   14153     394.     *   Incremental direct access dump pool control block              *
                                   14154     395.     *                                                                  *
                                   14155     396.     ********************************************************************
0000000                00000 00056 14157     398.     INCPL    RECORD BEGIN
 000000 00000000                   14165  1  399.     INCPNXT    DC    A(0)                Pointer to next control block
 000004 00000000                   14166  1  400.     INCPBCK    DC    A(0)                Pointer to previous control block
 000008 C9D5C3D7                   14167  1  401.     INCPNAME   DC    CL4'INCP'           Define eye-catcher
 00000C 00000000                   14168  1  402.     INCPUCB    DC    A(0)                Address of unit control block
 000010 00000000                   14169  1  403.     INCPSPC    DC    A(0)                Available tracks on device
 000014 00000000                   14170  1  404.     INCPTPC    DC    A(0)                Tracks/cylinder on this device
 000018 00000000                   14171  1  405.     INCPTLN    DC    A(0)                Track length in bytes
 00001C 00000000                   14172  1  408.     INCPALLO   DC    A(0)                Number of tracks to allocate
 000020 00000000                   14173  1  409.     INCPBYTE   DC    A(0)                Available bytes on this device
 000024 00000000                   14174  1  410.     INCPDVT    DC    A(0)                Address of dev char table entry
 000028 00000000                   14175  1  410.1    Incpblk    DC    A(0)                Optimal blocksize
 00002C 00000000                   14176  1  410.2    IncpTotB   DC    A(0)                Total incremental blocks
 000030 00                         14177  1  411.     INCPTYPE   DC    X'00'               Device type (ucbtype3) for device
 000031 00                         14178  1  412.     INCPFLGS   FLAG  ,                   Define flag status byte
 INCPFLGS.INCPOFF  80 ONES         14182  1  413.                FLAG  INCPOFF               -  This volume does not exist
 000032 E5D6D3E2C5D9               14187  1  414.     INCPVOL    DC    CL6'VOLSER'         Volume serial of dasd device
 000038 D4C5E2E2C1C7C540           14188  1  415.     INCPMSG    DC    CL30'MESSAGE AREA'  Receive area for svc 78
 000056                00056 00056 14189     416.              END   ,
1VDMP     (VDMP21) (09:46) (22MAR04) ORVYL's File System Dump Program: Control Blocks                                       Page   22
0D-Loc  Object Code    Addr1 Addr2  Stmt Lv Lineno    Source Statement           (Hibal 5, Asmedit 3.3)  HLASM R4.0  2004/03/22 09.46
+_____  ______ ____    _____ _____  ____ __ ______    ______ _________
0                                  14199     418.     ********************************************************************
                                   14200     419.     *                                                                  *
                                   14201     420.     *    Disk record format including count area                       *
                                   14202     420.1    *                                                                  *
                                   14203     420.2    *    Warning: Orvyl headers as written to the dump data set only   *
                                   14204     420.3    *             preserve the first 12 bytes of data.                 *
                                   14205     421.     *                                                                  *
                                   14206     422.     ********************************************************************
0000000                00000 00014 14208     424.     DRF      RECORD BEGIN
 000000                            14216  1  425.     DRFCC      DS    XL2                 Cylinder address
 000002                            14217  1  426.     DRFHH      DS    XL2                 Head Address
 000004                            14218  1  427.     DRFID      DS    X                   Record identifier
 000005                            14219  1  428.     DRFKL      DS    X                   Key Length
 000006                            14220  1  429.     DRFDL      DS    XL2                 Data length
                                   14221  1  430.     DRFCOUNT   EQU   DRF,*-DRFCC         Count field address and length
 000008                            14222  1  431.     DRFBLKNO   DS    XL3                 ORVYL absolute block number
 00000B 00                         14223  1  432.     DRFTYPE    FLAG  ,                   ORVYL block type
 DRFTYPE.DRFDATA   01 ONES         14227  1  433.                FLAG  (DRFDATA,X'01')           Data block
 DRFTYPE.DRFIXR    02 ONES         14236  1  434.                FLAG  (DRFIXR,X'02')            IXR block
 DRFTYPE.DRFSIXR   04 ONES         14245  1  435.                FLAG  (DRFSIXR,X'04')           Super-IXR block
 00000C                            14254  1  436.                DS    XL2                 Reserved space
 00000E                            14255  1  437.     DRFORVDL   DS    XL2                 ORVYL File user data length
 000010                            14256  1  438.     DRFSTCK    DS    XL4                 Date block written, TOD bits 0-31
0                                  14258  1  440.     DRFORVHD   EQU   DRFBLKNO,*-DRFBLKNO ORVYL Header definition
 000014                00014 00014 14259     441.              END   ,
1VDMP     (VDMP21) (09:46) (22MAR04) ORVYL's File System Dump Program: Control Blocks                                       Page   23
0D-Loc  Object Code    Addr1 Addr2  Stmt Lv Lineno    Source Statement           (Hibal 5, Asmedit 3.3)  HLASM R4.0  2004/03/22 09.46
+_____  ______ ____    _____ _____  ____ __ ______    ______ _________
0                                  14269     443.     ********************************************************************
                                   14270     444.     *                                                                  *
                                   14271     445.     *  Define parameter list passed to the dump subtask                *
                                   14272     446.     *                                                                  *
                                   14273     447.     *        The subparameter block represents a unit of work to one   *
                                   14274     448.     *        of the dump/readback subtasks.  One SUBPARM block is      *
                                   14275     449.     *        created for each segment in an ORVYL file system.         *
                                   14276     450.     *                                                                  *
                                   14277     451.     ********************************************************************
0000000                00000 00034 14279     452.01   DSNENTRY RECORD BEGIN              FILE DATA SEG MAPPING ENTRY
 000000 4040404040404040           14287  1  452.02   DSNNAME    DC    CL44' '               -  DATA SET NAME
 00002C 404040404040               14288  1  452.03   DSNVOL     DC    CL6' '                -  VOLUME SERIAL NUMBER
 000032 0000                              1
 000034                            14289  1  452.04   DSNENTNX   DC    0A(0)                 -  START OF NEXT ENTRY
 000034                00034 00034 14290     452.98            END   ,
0000000                00000 00F5B 14300     453.     SUBPARM  RECORD BEGIN
 000000 00000000                   14308  1  454.     SUBFWD     DC    A(0)                Forward pointer
 000004 00000000                   14309  1  455.     SUBBCK     DC    A(0)                Backward pointer
 000008 E2E4C2D7                   14310  1  456.     SUBNAME    DC    CL4'SUBP'           Define eye-catcher
 00000C 00000000                   14311  1  457.     SUBSTART   DC    A(0)                Starting orvyl block number
 000010 00000000                   14312  1  458.     SUBSEQ     DC    A(0)                Sequence number for starting
 000014 00000000                   14313  1  459.     SUBDWA     DC    A(0)                Address of dump work area
 000018 00000000                   14314  1  460.     SUBINCP    DC    A(0)                Address of incremental data blocks
 00001C 00000000                   14315  1  461.     SUBRET     DC    A(0)                Subtask return code
 000020 00000000                   14316  1  462.     SUBCNT     DC    A(0)                Count of file data sets this seg
 000024 00                         14317  1  463.     SUBFLG     FLAG  ,                   Subtask return flags
 SUBFLG.SUBSERV    80 ONES         14321  1  464.                FLAG  SUBSERV                 -  tape server option
 SUBFLG.SUBFAIL    40 ONES         14326  1  465.                FLAG  SUBFAIL                 -  subtask has failed
 000025 4040404040404040           14331  1  466.     SUBTAPE    DC    CL44' '             Tape data set prefix
 000051 F0F0                       14332  1  467.     SUBSEG     DC    CL2'00'             Current segment number
 000053 4040404040404040           14333  1  468.2    SUBDSN     DC    (MAX_DPS)CL(L'DSNENTRY)' '
 000F5B                00F5B 00F5B 14334     469.              END   ,
1VDMP     (VDMP21) (09:46) (22MAR04) ORVYL's File System Dump Program: Control Blocks                                       Page   24
0D-Loc  Object Code    Addr1 Addr2  Stmt Lv Lineno    Source Statement           (Hibal 5, Asmedit 3.3)  HLASM R4.0  2004/03/22 09.46
+_____  ______ ____    _____ _____  ____ __ ______    ______ _________
0                                  14344     471.     ********************************************************************
                                   14345     472.     *                                                                  *
                                   14346     473.     *  Define Incremental Data Set Control Clock                       *
                                   14347     474.     *                                                                  *
                                   14348     475.     *        The incremental data set control block represents each    *
                                   14349     476.     *        data set containing incremental dump data.  They are      *
                                   14350     477.     *        created as needed by the incremental dump subtasks.       *
                                   14351     478.     *                                                                  *
                                   14352     479.     ********************************************************************
0000000                00000 00044 14354     481.     INCDSN   RECORD BEGIN
 000000 00000000                   14362  1  482.     INCDFWD    DC    A(0)                Forward chain pointer
 000004 00000000                   14363  1  483.     INCDBCK    DC    A(0)                Backward chain pointer
 000008 C9D5C3C4                   14364  1  484.     INCDNAME   DC    C'INCD'             Define eye-catcher
 00000C 00000000                   14365  1  485.     INCDINC    DC    A(0)                Pointer to pool control block
 000010 00000000                   14366  1  486.     INCDSEG    DC    A(0)                Segment number of origin
 000014 00000000                   14367  1  487.     INCDSEQ    DC    A(0)                Sequence number in this segment
 000018 4040404040404040           14368  1  488.     INCDDSN    DC    CL44' '             Data set name of file
 000044                00044 00044 14369     489.              END   ,
1VDMP     (VDMP21) (09:46) (22MAR04) ORVYL's File System Dump Program: Control Blocks                                       Page   25
0D-Loc  Object Code    Addr1 Addr2  Stmt Lv Lineno    Source Statement           (Hibal 5, Asmedit 3.3)  HLASM R4.0  2004/03/22 09.46
+_____  ______ ____    _____ _____  ____ __ ______    ______ _________
0                                  14379     491.     ********************************************************************
                                   14380     492.     *                                                                  *
                                   14381     493.     *  Define subtask attach control block                             *
                                   14382     494.     *                                                                  *
                                   14383     495.     ********************************************************************
0000000                00000 00080 14385     497.     SUBTASK  RECORD BEGIN
 000000 00000000                   14393  1  498.     STFWD      DC    A(0)                Forward chain
 000004 00000000                   14394  1  499.     STBCK      DC    A(0)                Backward chain
 000008 E2E4C2E3                   14395  1  500.     STNAME     DC    CL4'SUBT'           Define eye-catcher field
 00000C 00000000                   14396  1  501.     STECB      DC    A(0)                Subtask attach ecb
 000010 00                         14397  1  502.     STFLGS     FLAG  ,                   Define subtask flag byte
 STFLGS.STTASK     80 ONES         14401  1  503.                FLAG  STTASK                  - Task block
 STFLGS.STCOM      40 ONES         14406  1  504.                FLAG  STCOM                   - Comm block
 STFLGS.STCAT      20 ONES         14411  1  505.                FLAG  STCAT                   - Catalog dump
 STFLGS.STVER      10 ONES         14416  1  506.                FLAG  STVER                   - Verify
 000011                            14421  1  507.                DS    XL3                 Filler bytes for alignment
 000014 00000000                   14422  1  508.     STTCB      DC    A(0)                Subtask tcb address
 000018 00000000                   14423  1  509.     STSUB      DC    A(0)                Address of subparameter block
 00001C 00000000                   14424  1  510.     STSEQ      DC    A(0)                Subtask block sequence number
 000020 00000000                   14425  1  511.     STSEG      DC    A(0)                SUBTASK SEGMENT NUMBER
 000024 00000000                          1
 000028 0000000000000000           14426  1  512.     STSTRT     DC    D'0'                Subtask starting time
 000030 0000000000000000           14427  1  513.     STEND      DC    D'0'                Subtask ending stck value
                                   14429  1  515.     STATL      ATTACH EP=DMPSEG,ECB=STECB,SZERO=YES,SF=L
                                   14432  1          +* /* MACDATE   11/11/91                                          @L2C*/
                                   14433  1          +* /*
 000038                            14434  1 01-ATTAC +STATL      DS    0F
 000038 00000054                   14435  1 01-ATTAC +           DC    A(*+28)            POINTER TO SYMBOL NAME       @G860PXB
 00003C 00000000                   14436  1 01-ATTAC +           DC    A(0)               DCB ADDRESS                  @G860PXB
 000040 8000000C                   14437  1 01-ATTACC+           DC    A(X'80000000'+STECB)
                                          1          +                                     NEW FORMAT + ECB ADDR       @G860PXB
 000044 00000000                   14438  1 01-ATTAC +           DC    A(0)               GSPL OR GSPV                 @G860PXB
 000048 00000000                   14439  1 01-ATTAC +           DC    A(0)               SHSPV OR SHSPL               @G860PXB
 00004C 00000000                   14440  1 01-ATTAC +           DC    A(0)               EXIT ROUTINE ADDRESS         @G860PXB
 000050 0000                       14441  1 01-ATTAC +           DC    AL2(0)             DPMOD VALUE                  @G860PXB
 000052 00                         14442  1 01-ATTAC +           DC    AL1(0)             LPMOD VALUE                  @G860PXB
 000053 00                         14443  1 01-ATTAC +           DC    AL1(0)             STATUS BYTE                  @G860PXB
 000054 C4D4D7E2C5C74040           14444  1 01-ATTAC +           DC    CL8'DMPSEG'        EP SYMBOL                    @G860PXB
 00005C 00000000                   14445  1 01-ATTAC +           DC    A(0)               ADDRESS OF JSCB              @G860PXB
 000060 00000000                   14446  1 01-ATTAC +           DC    A(0)               (E)STAI PARM LIST            @G860PXB
 000064 00000000                   14447  1 01-ATTAC +           DC    A(0)               EXIT ADDRESS                 @G860PXB
 000068 00000000                   14448  1 01-ATTAC +           DC    A(0)               TASKLIB                      @G860PXB
 00006C 00                         14449  1 01-ATTAC +           DC    AL1(0)             FLAG BYTE                    @G860PXB
 00006D 00                         14450  1 01-ATTAC +           DC    AL1(0)             TASK ID                      @G860PXB
 00006E 0048                       14451  1 01-ATTAC +           DC    AL2(72)            PARM LIST LENGTH             @G860PXB
 000070 00000000                   14452  1 01-ATTAC +           DC    A(0)               SUBPOOL LIST ADDRESS/VALUE   @G860PXB
 000074 00                         14453  1 01-ATTAC +           DC    AL1(0)             SET FLAGS                    @G860PXB
 000075 01                         14454  1 01-ATTAC +           DC    AL1(1)             SET UP FORMAT NUMBER         @G860PXB
 000076 0000000000000000           14455  1 01-ATTAC +           DC    XL10'00'           RESERVED BYTES FOR FUTURE    @G860PXB
 000080                00080 00080 14457     517.              END   ,
1VDMP     (VDMP21) (09:46) (22MAR04) ORVYL's File System Dump Program: Control Blocks                                       Page   26
0D-Loc  Object Code    Addr1 Addr2  Stmt Lv Lineno    Source Statement           (Hibal 5, Asmedit 3.3)  HLASM R4.0  2004/03/22 09.46
+_____  ______ ____    _____ _____  ____ __ ______    ______ _________
0                                  14467     519.     ********************************************************************
                                   14468     520.     *                                                                  *
                                   14469     521.     *   Define READ/WRITE control blocks for the HISTORY file          *
                                   14470     522.     *                                                                  *
                                   14471     523.     ********************************************************************
0000000                00000 000A8 14473     525.     HISTIO   RECORD BEGIN
 000000 C8C9D640                   14481  1  526.     HISTION    DC    CL4'HIO '           Define eye-catcher
 000004 00000000                   14482  1  527.     HISTADR    DC    A(0)                Address of holding record
 000008 00000000                   14483  1  528.     HISTBLK    DC    A(0)                Block number of record
                                   14485  1  530.                READ  HISTDECB,DI,*-*,HISTBUFF,128,,HISTBLK+1,MF=L
 00000C                            14487  1 02-IHBRD +           DS    0F
 00000C 00000000                   14488  1 02-IHBRD +HISTDECB   DC    A(0)                              EVENT CONTROL BLOCK
 000010 00                         14489  1 02-IHBRD +           DC    BL1'00000000'                     TYPE FIELD
 000011 08                         14490  1 02-IHBRD +           DC    BL1'00001000'                 TYPE FIELD
 000012 0080                       14491  1 02-IHBRD +           DC    AL2(128)                          LENGTH
 000014 00000000                   14492  1 02-IHBRD +           DC    A(*-*)                            DCB ADDRESS
 000018 00000028                   14493  1 02-IHBRD +           DC    A(HISTBUFF)                       AREA ADDRESS
 00001C 00000000                   14494  1 02-IHBRD +           DC    A(0)                              IOB ADDRESS
 000020 00000000                   14495  1 02-IHBRD +           DC    A(0)                              KEY ADDRESS
 000024 00000009                   14496  1 02-IHBRD +           DC    A(HISTBLK+1)                      BLKREF ADDRESS
 000028 0000000000000000           14498  1  532.     HISTBUFF   DC    XL128'00'           Buffer address of record
 0000A8                000A8 000A8 14499     533.              END   ,
1VDMP     (VDMP21) (09:46) (22MAR04) ORVYL's File System Dump Program: Control Blocks                                       Page   27
0D-Loc  Object Code    Addr1 Addr2  Stmt Lv Lineno    Source Statement           (Hibal 5, Asmedit 3.3)  HLASM R4.0  2004/03/22 09.46
+_____  ______ ____    _____ _____  ____ __ ______    ______ _________
0                                  14509     535.     ********************************************************************
                                   14510     536.     *                                                                  *
                                   14511     537.     *  DEFINE TRACE TABLE DEFINITION TABLE                             *
                                   14512     538.     *                                                                  *
                                   14513     539.     ********************************************************************
0000000                00000 00018 14515     541.     TRCBLK   RECORD BEGIN
 000000 FFFFFFFF                   14523  1  542.     TRCLOCK    DC    A(-1)               Trace lockword
 000004 FFFFFFFF                   14524  1  543.     TRCWAIT    DC    A(-1)               Trace lock wait list
 000008 FFFFFFFF                   14525  1  544.     TRCHITS    DC    A(-1)               Trace lock hit counter
 00000C FFFFFFFF                   14526  1  545.     TRCADDR    DC    A(-1)               Address of trace table
 000010 FFFFFFFF                   14527  1  546.     TRCCRNT    DC    A(-1)               Next available trace entry
 000014 FFFFFFFF                   14528  1  547.     TRCEND     DC    A(-1)               Last trace entry
 000018                00018 00018 14529     548.              END   ,
-                                  14539     550.     ********************************************************************
                                   14540     551.     *                                                                  *
                                   14541     552.     *   DEFINE FILEDUMP TRACE TABLE FORMAT                             *
                                   14542     553.     *                                                                  *
                                   14543     554.     ********************************************************************
0000000                00000 00028 14545     556.     TRCTABLE RECORD BEGIN
 000000 0000000000000000           14553  1  557.     TRCSTCK    DC    2A(0)               Trace table stck time stamp
 000008 00000000                   14554  1  558.     TRCIA      DC    A(0)                Trace table instruction address
 00000C 00000000                   14555  1  559.     TRCTCB     DC    A(0)                Trace table task control block
 000010 0000000000000000           14556  1  560.     TRCNAME    DC    2A(0)               Trace table symbolic name
 000018 0000000000000000           14557  1  561.     TRCREGS    DC    4A(0)               Trace table registers
 000028                00028 00028 14558     562.              END   ,
1VDMP     (VDMP21) (09:46) (22MAR04) ORVYL's File System Dump Program: Control Blocks                                       Page   28
0D-Loc  Object Code    Addr1 Addr2  Stmt Lv Lineno    Source Statement           (Hibal 5, Asmedit 3.3)  HLASM R4.0  2004/03/22 09.46
+_____  ______ ____    _____ _____  ____ __ ______    ______ _________
0                                  14568     564.     ********************************************************************
                                   14569     565.     *                                                                  *
                                   14570     566.     *                                                                  *
                                   14571     567.     *              Define dump work area                               *
                                   14572     568.     *                                                                  *
                                   14573     569.     *                                                                  *
                                   14574     570.     ********************************************************************
0000015                00000 0B848 14576     572.     VDMP     CSECT ,
0000000                00000 00CF6 14579     573.     DWA      RECORD BEGIN
 000000 00000000                   14587  1  574.     PRTADR     DC    A(0)                Address for dynamic print control
 000004 C4E6C140C4E6C140           14588  1  575.     DWANAME    DC    3CL4'DWA '          Define eye-catcher
 000010                            14589  1  576.     WORK       DS    4D'0'               Conversion work area
                                   14590  1  577.     CLWTEMP    EQU   WORK,8,C'D'         For SEGDC, etc.
 000030 0000000000000000           14591  1  578.     CLCKSTRT   DC    D'0'                TOD clock starting time
 000038 0000000000000000           14592  1  579.     STRT       DC    D'0'                Save for (time,date)
                                   14593  1  580.     TIME       EQU   STRT+0,4,C'F'       Starting time
                                   14594  1  581.     DAY        EQU   STRT+4,4,C'F'       Starting day
 000040 00000000                   14595  1  581.1    TIME2INC   DC    A(0)                Time value in DEC format
0                                  14597  1  583.     *
                                   14598  1  584.     * Define area for system addresses and return
                                   14599  1  585.     *
 000044 00000000                   14600  1  586.     LMLST      DC    A(0)                Filedump module length
 000048 00000000                   14601  1  587.     PARMPTR    DC    A(0)                Pointer to VS parameter info.
 00004C 00000000                   14602  1  588.     ATTRCONV   DC    A(0)                Cvtpcnvt (TTR conversion)
 000050 00000000                   14603  1  588.1    DEVTABL    DC    A(0)                Address of device name table
 000054 00000000                   14604  1  589.     VSSAVE     DC    A(0)                VS Save area pointer
 000058 00000000                   14605  1  590.     RETCODE    DC    A(0)                Return code for FILEDUMP
 00005C 00000000                   14606  1  591.     ESXIT      DC    A(0)                Address for ESTAE reporting
 000060 00000000                   14607  1  592.     SYNCECB    DC    A(0)                Syncronization ECB
 000064 00000000                   14608  1  593.     SVA        DC    A(0)                Address of FILEDUMP save stack
 000068 0000000000000000           14609  1  594.     XVA        DC    32A(0)              Save area stack for estae routine
0                                  14611  1  596.     *
                                   14612  1  597.     *  Define communications task control variables
                                   14613  1  598.     *
 0000E8                            14614  1  599.                DC    0D'0'               Double work alignment for cds
 0000E8 00000000                   14615  1  600.     COMLOCK    DC    A(0)                Lockword for communications task
 0000EC 00000000                   14616  1  601.     COMLPTR    DC    A(0)                Pointer to ecb lock block
 0000F0 00000000                   14617  1  602.     COMHITS    DC    A(0)                Counter for lockword hits
 0000F4 00000000                   14618  1  603.     COMECB     DC    A(0)                Cummunications attach ecb
 0000F8 00000000                   14619  1  604.     COMTCB     DC    A(0)                Communications tcb address
 0000FC 00000000                   14620  1  605.     COMWAIT    DC    A(0)                Communications quiesce ecb
0                                  14622  1  606.1    *
                                   14623  1  606.2    *  Define queue control lock words
                                   14624  1  606.3    *
 000100                            14625  1  606.4               DC    0D'0'               Double word alignment for cds
 000100 00000000                   14626  1  606.5    QUELOCK    DC    A(0)                  --  queue control lock
 000104 00000000                   14627  1  606.6    QUELPTR    DC    A(0)                  --  pointer to ecb lock block
 000108 00000000                   14628  1  606.7    QUELHITS   DC    A(0)                  --  counter for lockword hits
1VDMP     (VDMP21) (09:46) (22MAR04) ORVYL's File System Dump Program: Control Blocks                                       Page   29
0D-Loc  Object Code    Addr1 Addr2  Stmt Lv Lineno    Source Statement           (Hibal 5, Asmedit 3.3)  HLASM R4.0  2004/03/22 09.46
+_____  ______ ____    _____ _____  ____ __ ______    ______ _________
0                                  14630  1  607.     *
                                   14631  1  608.     *  Define CONTROL and FUNCTION values
                                   14632  1  609.     *
 00010C 00000000                   14633  1  610.     CNTNUM     DC    A(0)                Card number from CONTROL file
 000110 00000000                   14634  1  611.     FNCVECT    DC    A(0)                Function vector for procedures
0                                  14636  1  613.     *
                                   14637  1  614.     *  Define Multi-tasking support parameters
                                   14638  1  615.     *
 000114 00000000                   14639  1  616.     TASKLVL    DC    A(0)                Multi-tasking level
 000118 FFFFFFFF                   14640  1  617.     INCLVL     DC    A(-1)               Incremental tasking level
 00011C FFFFFFFF                   14641  1  618.     DMPLVL     DC    A(-1)               Dump tasking level
 000120 FFFFFFFF                   14642  1  619.     RDLVL      DC    A(-1)               Readback tasking level
 000124 00000000                   14643  1  620.     STANC      DC    A(0)                Anchor address for SUBTASK blocks
 000128 00000000                   14644  1  621.     STWRK      DC    A(0)                Address of working SUBTASK queue
 00012C 00000000                   14645  1  622.     SUBANCHR   DC    A(0)                Anchor address for SEGMENT blocks
 000130 00000000                   14646  1  623.     SUBCMPLT   DC    A(0)                Address of SEGMENT complete queue
 000134 00000000                   14647  1  624.     INCCMPLT   DC    A(0)                ANCHOR ADDRESS OF IDSCB COMPLETE Q
 000138 00000000                   14648  1  625.     TSKSEQ     DC    A(0)                Current subtask sequence number
 00013C 00000000                   14649  1  626.     STEVENTS   DC    A(0)                Address of EVENTS table
 000140 00000000                   14650  1  627.     STACTIVE   DC    A(0)                Number of sub-tasks active
0                                  14652  1  629.     *
                                   14653  1  630.     *  Define tape server control fields
                                   14654  1  631.     *
 000144 00000000                   14655  1  632.     SERPOST    DC    A(0)                Server post ecb address (lock)
 000148 00000000                   14656  1  633.     SERADDR    DC    A(0)                Server dump block address
 00014C 00000000                   14657  1  634.     SERTCB     DC    A(0)                Server tcb address
 000150 00000000                   14658  1  635.     SERECB     DC    A(0)                Server completion ecb
0                                  14660  1  637.     *
                                   14661  1  638.     *  Define incremental dump limit parameter values
                                   14662  1  639.     *
 000154 00000000                   14663  1  640.     INCDAYS    DC    A(0)                Days elapsed since 1900
 000158 00000000                   14664  1  641.     INCSEC     DC    A(0)                Elapsed seconds since midnight
 00015C 00000000                   14665  1  642.     INCTOD     DC    A(0)                TOD clock value bits 0-31
 000160 00000000                   14666  1  642.1    INCTODBS   DC    A(0)                TOD clock value for base dump
 000164 00000000                   14667  1  643.     INCPOOL    DC    A(0)                Pointer to inc dump disk pool
 000168 00000000                   14668  1  643.01   INCOBUFR   DC    A(0)                Buffer address for inc merge
 00016C 00000000                   14669  1  643.1    INCPLST    DC    A(0)                Address of last queued pool block
 000170 00000000                   14670  1  644.     TRKALLO    DC    A(0)                Amount for each incremental dsn
0                                  14672  1  646.     *
                                   14673  1  647.     *  Define dump tape error limits
                                   14674  1  648.     *
 000174 00000000                   14675  1  649.     DTTWLMT    DC    A(0)                Limit for temp write errors
 000178 00000000                   14676  1  650.     DTEGLMT    DC    A(0)                Limit for erase gaps
 00017C 000000000000000C           14677  1  651.     DTFEOVC    DC    PL8'0'              Limit count for feov
1VDMP     (VDMP21) (09:46) (22MAR04) ORVYL's File System Dump Program: Control Blocks                                       Page   30
0D-Loc  Object Code    Addr1 Addr2  Stmt Lv Lineno    Source Statement           (Hibal 5, Asmedit 3.3)  HLASM R4.0  2004/03/22 09.46
+_____  ______ ____    _____ _____  ____ __ ______    ______ _________
0                                  14679  1  653.     ********************************************************************
                                   14680  1  654.     *                                                                  *
                                   14681  1  655.     *  Define I/O rate limiting variables.                             *
                                   14682  1  656.     *                                                                  *
                                   14683  1  657.     *        In order to modify any of the fields in this              *
                                   14684  1  658.     *        section the subtask must acquire the communication        *
                                   14685  1  659.     *        lock (comlock).                                           *
                                   14686  1  660.     *                                                                  *
                                   14687  1  661.     ********************************************************************
0                                  14689  1  663.     *                                GLOBAL I/O timing variables
 000184 00000000                   14690  1  664.     GIOLIMIT   DC    A(0)                I/O rate target (.01 units)
 000188 00000000                   14691  1  665.     GIORATE    DC    A(0)                I/O rate actual (.01 units)
 00018C 00000000                   14692  1  666.     GIOCNT     DC    A(0)                Total I/O request issued
 000190 00000000                   14693  1  667.     GIOBLKS    DC    A(0)                Total blocks processed
0                                  14695  1  669.     *                                INSTANTAENOUS I/O Timing variables
 000194 00000000                          1
 000198 0000000000000000           14696  1  670.     IIOCRT     DC    D'0'                Current tod value for computation
 0001A0 0000000000000000           14697  1  671.     IIOLST     DC    D'0'                Last tod value for computation
 0001A8 00000000                   14698  1  672.     IIORATE    DC    A(0)                I/O's/second rate
 0001AC 00000000                   14699  1  673.     IIOBRATE   DC    A(0)                Blocks/second rate
 0001B0 00000000                   14700  1  674.     IIOCNT     DC    A(0)                I/O counter
 0001B4 00000000                   14701  1  675.     IIOBLKS    DC    A(0)                I/O block counter
-                                  14703  1  677.     *
                                   14704  1  678.     *  Define control variables for filedump internal trace routines
                                   14705  1  679.     *
00001B8 00000000                   14707  1  681.     TRCPTR     DC    A(0)                Address of trace control table
 0001BC 00000000                   14708  1  682.     TRCSIZE    DC    A(0)                Size of trace table
1VDMP     (VDMP21) (09:46) (22MAR04) ORVYL's File System Dump Program: Control Blocks                                       Page   31
0D-Loc  Object Code    Addr1 Addr2  Stmt Lv Lineno    Source Statement           (Hibal 5, Asmedit 3.3)  HLASM R4.0  2004/03/22 09.46
+_____  ______ ____    _____ _____  ____ __ ______    ______ _________
0                                  14710  1  684.     *
                                   14711  1  685.     *  Define general control flags for FILEDUMP
                                   14712  1  686.     *
00001C0 00                         14714  1  687.1    PRCFLGS    FLAG  ,                   Define general processing flags
 PRCFLGS.FLEOF     80 ONES         14718  1  689.1               FLAG  FLEOF                   EOF flag for file data set
 PRCFLGS.FLFEOV    40 ONES         14723  1  690.                FLAG  FLFEOV                  Force EOV
 PRCFLGS.FLTHIST   20 ONES         14728  1  691.                FLAG  FLTHIST                 Check error history on tape
 PRCFLGS.FLPOPN    10 ONES         14733  1  692.                FLAG  FLPOPN                  SYSPRT file opened
 PRCFLGS.FLDYN     08 ONES         14738  1  693.                FLAG  FLDYN                   Dynamic allocation in effect
 PRCFLGS.FLIDRC    04 ONES         14743  1  694.01              FLAG  FLIDRC                  Tape IDRC compaction
 PRCFLGS.FLDUMMY   02 ONES         14748  1  694.02              FLAG  FLDUMMY                 Dumping to DD DUMMY
00001C1 00                         14754  1  694.98   GENFLGS    FLAG ,                    Define general flags
 GENFLGS.FL_BCV    80 ONES         14758  1  694.99              FLAG  FL_BCV                  Dump from EMC BC volumes
 GENFLGS.FLLOGHST  40 ONES         14763  1  695.                FLAG  FLLOGHST                Log to history file
 GENFLGS.FLORDER   20 ONES         14768  1  695.01              FLAG  FLORDER                 Utilize pool in "order"
 GENFLGS.FLDAILY   10 ONES         14773  1  695.02              FLAG  FLDAILY                 Do daily increment accumlation
00001C2 00                         14779  1  695.04   VDMP_XIT   FLAG  ,                   Define VDMP invoked exit flags
 VDMP_XIT.XIT_Load 80 ONES         14783  1  695.05              FLAG  XIT_Loaded              Callable exit has been loaded
 VDMP_XIT.XIT_Acti 40 ONES         14788  1  695.06              FLAG  XIT_Active              Callable exit is active
00001C3 00                         14794  1  695.94   CCWTYPE    FLAG  ,
 CCWTYPE.FLSECT    80 ONES         14798  1  695.95              FLAG  FLSECT                  Utilize set sector commands
 CCWTYPE.FLECKD    40 ONES         14803  1  695.96              FLAG  FLECKD                  Utilize ECKD CCW chains
 CCWTYPE.FLCYL     20 ONES         14808  1  695.97              FLAG  FLCYL                   Utilize full cylinder reads
 CCWTYPE.FLRANY    10 ONES         14813  1  695.98              FLAG  FLRANY                  Utilize read any mode (ESCON)
 CCWTYPE.FLPSTAGE  08 ONES         14818  1  695.99              FLAG  FLPSTAGE                Utilize sequential prestage
00001C4 00                         14824  1  697.     COMFLGS    FLAG  ,                   Define communication flags
 COMFLGS.FLCOMACT  80 ONES         14828  1  698.                FLAG  FLCOMACT                communication task active
 COMFLGS.FLQUIT    40 ONES         14833  1  699.                FLAG  FLQUIT                  quisce all processing
 COMFLGS.FLABORT   20 ONES         14838  1  700.                FLAG  FLABORT                 quisce and abort processing
 COMFLGS.FLSTOP    60 NZ           14843  1  701.                FLAG  (FLSTOP,FLQUIT+FLABORT,NZ)
00001C5 00                         14856  1  703.     CNTFLG     FLAG  ,                   Define CONTROL file flags
 CNTFLG.CNTEND     80 ONES         14860  1  704.                FLAG  CNTEND                  Completed reading CNTRL file
 CNTFLG.CNTFILS    40 ONES         14865  1  705.                FLAG  CNTFILS                 At least one file volume
 CNTFLG.CNTSEG     20 ONES         14870  1  706.                FLAG  CNTSEG                  Processing current segment
 CNTFLG.CNTNSEG    10 ONES         14875  1  707.                FLAG  CNTNSEG                 New segment being defined
 CNTFLG.CNTBSET    08 ONES         14880  1  708.                FLAG  CNTBSET                 ORVYL starting block set
 CNTFLG.CNTSKIP    04 ONES         14885  1  708.1               FLAG  CNTSKIP                 Skip until "EndDef"
00001C6 00                         14891  1  710.     FNCFLGS    FLAG  ,                   Define utility function flags
 FNCFLGS.FNCDMP    80 ONES         14895  1  711.                FLAG  FNCDMP                -  full dump function
 FNCFLGS.FNCINC    40 ONES         14900  1  712.                FLAG  FNCINC                -  incremental dump function
 FNCFLGS.FNCLHST   20 ONES         14905  1  713.                FLAG  FNCLHST               -  list history file
 FNCFLGS.FNCFHST   10 ONES         14910  1  714.                FLAG  FNCFHST               -  format history file
 FNCFLGS.FNCOFFL   08 ONES         14915  1  716.                FLAG  FNCOFFL               -  do offload of inc data
 FNCFLGS.FNCFULL   04 ONES         14920  1  717.                FLAG  FNCFULL               -  process catalog and verify
 FNCFLGS.FNCCLN    02 ONES         14925  1  717.1               FLAG  FNCCLN                -  perform data set cleanup
00001C7 00                         14931  1  719.     TFLGS      FLAG ,                    Throttle control flags
 TFLGS.TFRATE      80 ONES         14935  1  720.                FLAG  TFRATE                -  check i/o rates
1VDMP     (VDMP21) (09:46) (22MAR04) ORVYL's File System Dump Program: Control Blocks                                       Page   32
0D-Loc  Object Code    Addr1 Addr2  Stmt Lv Lineno    Source Statement           (Hibal 5, Asmedit 3.3)  HLASM R4.0  2004/03/22 09.46
+_____  ______ ____    _____ _____  ____ __ ______    ______ _________
00001C8 00                         14941  1  722.     SFLGS      FLAG  ,                   Miscellaneous flags
 SFLGS.VEXCH       80 ONES         14945  1  723.                FLAG  VEXCH                 -  Sort flag
 SFLGS.FLABEND     40 ONES         14950  1  723.1               FLAG  FLABEND               -  Test abort
00001C9 00                         14956  1  724.1    IFLGS      FLAG  ,                   Flags for incremental offload
 IFLGS.DMPIXR      80 ONES         14960  1  724.2               FLAG  DMPIXR                -  Dump disk ixrdump file
00001CA 00                         14966  1  725.     CMBFLGS    FLAG  ,                   Combined dump, catalog, verify
 CMBFLGS.STRTRUN   80 ONES         14970  1  726.                FLAG  STRTRUN               -  SPECIALIZED START IS RUNNING
 CMBFLGS.STRTREQ   40 ONES         14975  1  726.1               FLAG  STRTREQ               -  SPECIALIZED START IS REQUIRED
 CMBFLGS.STRTCAT   20 ONES         14980  1  727.                FLAG  STRTCAT               -  catalog dump started
 CMBFLGS.STRTVER   10 ONES         14985  1  728.                FLAG  STRTVER               -  verify started
1VDMP     (VDMP21) (09:46) (22MAR04) ORVYL's File System Dump Program: Control Blocks                                       Page   33
0D-Loc  Object Code    Addr1 Addr2  Stmt Lv Lineno    Source Statement           (Hibal 5, Asmedit 3.3)  HLASM R4.0  2004/03/22 09.46
+_____  ______ ____    _____ _____  ____ __ ______    ______ _________
0                                  14991  1  730.     ********************************************************************
                                   14992  1  731.     *                                                                  *
                                   14993  1  732.     *  Define miscellaneous control variables                          *
                                   14994  1  733.     *                                                                  *
                                   14995  1  734.     ********************************************************************
00001CB 00                                1
 0001CC                            14997  1  735.1               DC    0A(0)               Insure fullword alignment
 0001CC 0000000000000000           14998  1  735.2    MAINXPRM   DC    XL(L'VDMPEXIT)'00'  VDMP exit parameter list (global)
 000214 F0F0                       14999  1  736.     SEGMENT    DC    CL2'00'             Segment number (i.e. "00")
 000216 6F6F                       15000  1  737.     CSEGMNT    DC    CL2'??'             Segment number from control file
 000218 4040404040404040           15001  1  738.     CNTBUF     DC    CL80' '             Input buffer for CONTROL info.
 000268 E6E8D34BC7E24BD6           15002  1  739.     TAPEDSN    DC    CL44'WYL.GS.ORV.ALPHA.FILSEG'   TAPE PREFIX FOR DUMP
 000294 E6E8D34BC7C74BD6           15003  1  740.     HISTFDSN   DC    CL44'WYL.GG.ORV.ALPHA.CAMPUS'   HISTORY FILE
 0002C0 C3C1D4D7E4E24040           15004  1  741.     FSNAME     DC    CL8'CAMPUS'         File system name
 0002C8 E3C1D7C540404040           15005  1  742.     TAPEUNIT   DC    CL8'TAPE'           Tape unit allocation name
 0002D0 C5A789A3D996A4A3           15006  1  742.1    XIT_Name   DC    CL8'ExitRout'       Load module name of callable exit
 0002D8 00000000                   15007  1  742.2    XIT_EP     DC    A(0)                Entry point of callable exit
-                                  15009  1  744.     *
                                   15010  1  745.     *  PARAMETER STRING PASSED TO CATALOG BUILD AND VERIFY PROGRAMS
                                   15011  1  746.     *
00002DC 800002E0                   15013  1  748.     VBLDPTR    DC    A(X'80000000'+VBLDPRM)
 0002E0 0064                       15014  1  749.     VBLDPRM    DC    AL2(L'VBLDTEXT)     PARAMETER STRING LENGTH
 0002E2 C4E4D4D740404040           15015  1  750.     VBLDTEXT   DC    CL100'DUMP'           -  DUMP CATALOG
0000346 0000                              1
 000348 8000034C                   15017  1  752.     VRFYPTR    DC    A(X'80000000'+VRFYPRM)
 00034C 0064                       15018  1  753.     VRFYPRM    DC    AL2(L'VRFYTEXT)     PARAMETER STRING FOR VERIFY
 00034E C9E7D9C4E4D4D740           15019  1  754.     VRFYTEXT   DC    CL100'IXRDUMP'        -  DUMP IXR'S
00003B2 0000                              1
 0003B4 000003B8                   15021  1  756.     SDYNBLK    DC    A(SDYNPRM)          Pointer to svc 99 request block
 0003B8 0000000000000000           15022  1  757.     SDYNPRM    DC    5A(0)               Svc 99 parameter list
0                                  15024  1  758.     *
                                   15025  1  759.     ** Define SYSOUT=$ class text unit Pointers
                                   15026  1  760.     *
 0003CC 000003D4                   15027  1  761.     SOUTPTRS   DC    A(SOUTDD)           Pointer to ddname text unit
 0003D0 000003E2                   15028  1  762.                DC    A(SOUTOUT)                     sysout class text unit
0                                  15030  1  764.     *
                                   15031  1  765.     ** Define SYSOUT=$ class text units
                                   15032  1  766.     *
 0003D4 000100010008               15033  1  767.     SOUTDD     DC    AL2(DALDDNAM,1,8)   Ddname and length
 0003DA E2E8E2D7D9E3E7E7           15034  1  768.     SOUTDDNM   DC    CL8'SYSPRTXX'       Actual ddname
 0003E2 00180000                   15035  1  769.     SOUTOUT    DC    AL2(DALSYSOU,0)     Define sysout=$
1VDMP     (VDMP21) (09:46) (22MAR04) ORVYL's File System Dump Program: Control Blocks                                       Page   34
0D-Loc  Object Code    Addr1 Addr2  Stmt Lv Lineno    Source Statement           (Hibal 5, Asmedit 3.3)  HLASM R4.0  2004/03/22 09.46
+_____  ______ ____    _____ _____  ____ __ ______    ______ _________
0                                  15037  1  771.1    ¿þþþþþþþþþþþþþþþþþþþþþþþþþþþþþþþþþþþþþþþþþþþþþþþþþþþþþþþþþþþþþþþþþþþþþÜ
                                   15038  1  771.2    Ÿ                                                                     Ÿ
                                   15039  1  771.3    Ÿ  Define Control file open parameter lists and exit                  Ÿ
                                   15040  1  771.4    Ÿ  routines                                                           Ÿ
                                   15041  1  771.5    Ÿ                                                                     Ÿ
                                          1           ¾þþþþþþþþþþþþþþþþþþþþþþþþþþþþþþþþþþþþþþþþþþþþþþþþþþþþþþþþþþþþþþþþþþþþþ»
00003E6 0000                              1
 0003E8                            15043  1  771.7               DC    0A(0)               Force alignment
                                   15044  1  773.     CNTOPNL    OPEN  (*-*,(INPUT)),MF=L
 0003E8                            15045  1 01-OPEN  +CNTOPNL    DC    0F'0'                             ALIGN LIST TO FULLWORD
 0003E8 80                         15046  1 01-OPEN  +           DC    AL1(128)                     OPTION BYTE
 0003E9 000000                     15047  1 01-OPEN  +           DC    AL3(*-*)                     DCB ADDRESS
 0003EC                            15048  1  773.1    CNTEXLST   DC    0A(0)               Insure proper alignment
 0003EC 11000000                   15049  1  773.11              DC    X'11',AL3(*-*)      DCB abend exit routine
 0003F0 80000000                   15050  1  773.2               DC    X'80',AL3(*-*)      Last entry, also dummied out
                                   15053  1  775.                SCANCB PFX=SCAN
 0003F4                            15054  1 01-SCANC +SCANCB     DS    0F
 0003F4                            15055  1 01-SCANC +SCANVAL    DS    A                       VALUE RETURNED
 0003F8                            15056  1 01-SCANC +SCANKW     DS    CL8                     CURRENT KEY WORD
 000400                            15057  1 01-SCANC +SCANLEN    DS    A                       LENGTH LEFT TO SCAN
 000404                            15058  1 01-SCANC +SCANLOC    DS    A                       NEXT THING TO SCAN
 000408                            15059  1 01-SCANC +SCANRA     DS    A                       RETURN ADDRESS
 00040C                            15060  1 01-SCANC +SCANPRT    DS    A                       ROUTING TABLE ADDRESS
 000410                            15061  1 01-SCANC +SCANCLT    DS    A                       SCAN TYPE
                                   15062  1          +*                                      0 = NORMAL SCAN
                                   15063  1          +*                                      4 = EXPRESSION ISOLATION
                                   15064  1          +*                                      8 = EXPRESSION SCAN
                                   15065  1 01-SCANC +SCANCBL    EQU *-SCANCB
0                                  15067  1  777.                SCANCB PFX=SCN2           SECONDARY SCANNER CONTROL BLOCK
 000414                            15068  1 01-SCANC +SCN2CB     DS    0F
 000414                            15069  1 01-SCANC +SCN2VAL    DS    A                       VALUE RETURNED
 000418                            15070  1 01-SCANC +SCN2KW     DS    CL8                     CURRENT KEY WORD
 000420                            15071  1 01-SCANC +SCN2LEN    DS    A                       LENGTH LEFT TO SCAN
 000424                            15072  1 01-SCANC +SCN2LOC    DS    A                       NEXT THING TO SCAN
 000428                            15073  1 01-SCANC +SCN2RA     DS    A                       RETURN ADDRESS
 00042C                            15074  1 01-SCANC +SCN2PRT    DS    A                       ROUTING TABLE ADDRESS
 000430                            15075  1 01-SCANC +SCN2CLT    DS    A                       SCAN TYPE
                                   15076  1          +*                                      0 = NORMAL SCAN
                                   15077  1          +*                                      4 = EXPRESSION ISOLATION
                                   15078  1          +*                                      8 = EXPRESSION SCAN
                                   15079  1 01-SCANC +SCN2CBL    EQU *-SCN2CB
 000434 4040404040404040           15080  1  778.     SCERR      DC    CL8' '              CURRENT KEYWORD
1VDMP     (VDMP21) (09:46) (22MAR04) ORVYL's File System Dump Program: Control Blocks                                       Page   35
0D-Loc  Object Code    Addr1 Addr2  Stmt Lv Lineno    Source Statement           (Hibal 5, Asmedit 3.3)  HLASM R4.0  2004/03/22 09.46
+_____  ______ ____    _____ _____  ____ __ ______    ______ _________
0                                  15083  1  781.     ********************************************************************
                                   15084  1  782.     *                                                                  *
                                   15085  1  783.     **  Define dynamic allocation parameters to allocate               *
                                   15086  1  784.     **  incremental dump data sets                                     *
                                   15087  1  785.     *                                                                  *
                                   15088  1  786.     ********************************************************************
000043C 00000000                   15090  1  788.     IINCP      DC    A(0)                Pointer to SVC99 request block
 000440 0000000000000000           15091  1  789.     IINCRB     DC    5A(0)               SVC99 request block
0000454 0000047C                   15093  1  791.     IINCPTRS   DC    A(IINCDDN)          Pointer to ddname
 000458 0000048A                   15094  1  792.                DC    A(IINCDSN)                  to data set name
 00045C 000004BC                   15095  1  793.                DC    A(IINCSTAT)                 to status disp=shr
 000460 000004C3                   15096  1  794.                DC    A(IINCNDSP)                 to status disp keep
 000464 800004CA                   15097  1  795.                DC    A(X'80000000'+IINCFREE)     to free=close
0000468 00000676                   15099  1  796.1    MINCPTRS   DC    A(MDDN)             POINTER TO DDNAME
 00046C 00000684                   15100  1  796.2               DC    A(MDSN)                     TO DATA SET NAME
 000470 000006BD                   15101  1  796.3               DC    A(MSTAT)                    TO STATUS DISP=OLD
 000474 000006B6                   15102  1  796.4               DC    A(MNDSP)                    TO STATUS DISP KEEP
 000478 800006C4                   15103  1  796.5               DC    A(X'80000000'+MFREE)        TO FREE=CLOSE
000047C 0001000100084040           15105  1  797.     IINCDDN    DC    AL2(DALDDNAM,1,8),CL8' '      DDNAME text unit
 00048A 00020001002C4040           15106  1  798.     IINCDSN    DC    AL2(DALDSNAM,1,44),CL44' '    Data set name unit
 0004BC 00040001000108             15107  1  799.     IINCSTAT   DC    AL2(DALSTATS,1,1),X'08'       DISP=SHR
 0004C3 00050001000108             15108  1  800.     IINCNDSP   DC    AL2(DALNDISP,1,1),X'08'       Disposition KEEP
 0004CA 001C0000                   15109  1  801.     IINCFREE   DC    AL2(DALCLOSE,0)               FREE=CLOSE
-0004CE 0000                              1
 0004D0                            15111  1  802.1               DC    0A(0)               Force open parm list alignment
 0004D0 8F/00074C                  15112  1  803.     ITOPNLST   OPEN  (INCDCB,(OUTPUT)),MF=L
 0004D4 80/00080C                  15116  1  804.     IFOPNLST   OPEN  (INCFIL,(INPUT)),MF=L
 0004D8 00000000                   15120  1  805.     IINCBLK    DC    A(0)                Block count written to tape
 0004DC 000000000000000C           15121  1  806.     IINCBYTE   DC    PL8'0'              Byte count writen to tape
 0004E4 00000002                   15122  1  807.     HSTDGEN    DC    A(2)                Default maximum dump gens
 0004E8 00000002                   15123  1  808.     HSTIGEN    DC    A(2)                Default maximum incr gens
 0004EC E385A2A3C6899385           15124  1  808.01   HSTFSNAM   DC    CL8'TestFile'       History file system name
 0004F4 E6D6D9D240C4C1E3           15125  1  808.1    IDSNWRK    DC    CL44'WORK DATA SET' Area for constructing dsn
1VDMP     (VDMP21) (09:46) (22MAR04) ORVYL's File System Dump Program: Control Blocks                                       Page   36
0D-Loc  Object Code    Addr1 Addr2  Stmt Lv Lineno    Source Statement           (Hibal 5, Asmedit 3.3)  HLASM R4.0  2004/03/22 09.46
+_____  ______ ____    _____ _____  ____ __ ______    ______ _________
0                                  15127  1  810.     ********************************************************************
                                   15128  1  811.     *                                                                  *
                                   15129  1  812.     *  Define parameter lists for SVC99 dynamic allocation and         *
                                   15130  1  813.     *  deallocation for tape volumes                                   *
                                   15131  1  814.     *                                                                  *
                                   15132  1  815.     ********************************************************************
0000520 00000000                   15134  1  817.     ODYNP      DC    A(0)                Pointer to SVC99 request block
 000524 0000000000000000           15135  1  818.     ODYNRB     DC    5A(0)               SVC99 request block area
0000538 0000058C                   15137  1  819.1    ODMY       DC    A(ODMYA)            Pointer to DUMMY unit
 00053C 800005A0                   15138  1  819.11              DC    A(X'80000000'+ODSN)         to DSN unit
0000540 00000592                   15140  1  820.     OPTRS      DC    A(ODDN)             Pointer to DDNAME unit
 000544 000005A0                   15141  1  821.                DC    A(ODSN)                     To dsname unit
 000548 000005DA                   15142  1  822.                DC    A(OSTAT)                    To dsn status unit
 00054C 000005D2                   15143  1  823.                DC    A(OMEM)                     To relative generation
 000550 000005E1                   15144  1  824.                DC    A(ONDSP)                    To normal disposition
 000554 000005E8                   15145  1  825.                DC    A(OCDSP)                    To conditional disposition
 000558 000005EF                   15146  1  826.                DC    A(OSP1)                     To space type
 00055C 000005F8                   15147  1  827.                DC    A(OSP2)                     To space primary
 000560 00000601                   15148  1  828.                DC    A(OSP3)                     To space secondary
 000564 0000060A                   15149  1  829.                DC    A(OCNT)                     To volume count
 000568 00000611                   15150  1  830.                DC    A(OUNIT)                    To unit specification
 00056C 0000061F                   15151  1  831.                DC    A(OLBL)                     To label type unit
 000570 00000626                   15152  1  832.                DC    A(OSEQ)                     To label sequence number
 000574 0000062E                   15153  1  833.                DC    A(OPROT)                    To dcb dsname reference
 000578 80000667                   15154  1  834.                DC    A(X'80000000'+ORETP)        To retention period
 00057C 8000066F                   15155  1  834.1               DC    A(X'80000000'+OTRTCH)       TO TAPE RECORDING TECH.
0000580 00000592                   15157  1  836.     OPTRU      DC    A(ODDN)             Pointer To DDNAME text unit
 000584 000005A0                   15158  1  837.                DC    A(ODSN)                     To DSNAME text unit
 000588 00000660                   15159  1  838.                A31   OUNA                        To DISP change unit
000058C 002400000000               15162  1  839.1    ODMYA      DC    AL2(DALDUMMY,0,0)             DD DUMMY
0000592 000100010008E3C1           15164  1  840.     ODDN       DC    AL2(DALDDNAM,1,8),CL8'TAPE00'
 0005A0 00020001002CE6E8           15165  1  841.     ODSN       DC    AL2(DALDSNAM,1,44),CL44'WYL.GS.ORV.FILSEG0'
 0005D2 0003000100024EF1           15166  1  842.     OMEM       DC    AL2(DALMEMBR,1,2),CL2'+1'
 0005DA 00040001000104             15167  1  843.     OSTAT      DC    AL2(DALSTATS,1,1),X'04'       DISP=NEW
 0005E1 00050001000101             15168  1  844.     ONDSP      DC    AL2(DALNDISP,1,1),X'01'       DISP=(,DELETE)
 0005E8 00060001000104             15169  1  845.     OCDSP      DC    AL2(DALCDISP,1,1),X'04'       DISP=(,,DELETE)
 0005EF 0009000100030000           15170  1  846.     OSP1       DC    AL2(DALBLKLN,1,3),XL3'00'     SPACE=(0)
 0005F8 000A000100030000           15171  1  847.     OSP2       DC    AL2(DALPRIME,1,3),XL3'00'     SPACE=(,(0))
 000601 000B000100030000           15172  1  848.     OSP3       DC    AL2(DALSECND,1,3),XL3'04'     SPACE=(,(,4))
 00060A 00130001000115             15173  1  849.     OCNT       DC    AL2(DALVLCNT,1,1),AL1(21)     VOL=(,,,21)
 000611 001500010008E3C1           15174  1  850.     OUNIT      DC    AL2(DALUNIT,1,8),CL8'TAPE'    UNIT=TAPE
 00061F 001E0001000102             15175  1  851.     OLBL       DC    AL2(DALLABEL,1,1),XL1'02'     LABEL=(,SL)
 000626 001F000100020001           15176  1  852.     OSEQ       DC    AL2(DALDSSEQ,1,2),AL2(1)      LABEL=1
 00062E 002C0001002CE2E8           15177  1  853.     OPROT      DC    AL2(DALDCBDS,1,44),CL44'SYS3.PROTO.DSCB'
 000660 00050001000102             15178  1  854.     OUNA       DC    AL2(DUNOVDSP,1,1),X'02'       DISP=(,CATLG)
 000667 002300010002005A           15179  1  855.     ORETP      DC    AL2(DALRETPD,1,2),AL2(90)     RETENTION FOR 90 DAYS
 00066F 004F0001000108             15180  1  855.01   OTRTCH     DC    AL2(DALTRTCH,1,1),AL1(DCBCMPAC)  TRTCH=COMP
0000676 000100010008C9D5           15182  1  855.2    MDDN       DC    AL2(DALDDNAM,1,8),CL8'INCOLD'
 000684 00020001002CD6D3           15183  1  855.3    MDSN       DC    AL2(DALDSNAM,1,44),CL44'OLD INCREMENTAL FILE'
1VDMP     (VDMP21) (09:46) (22MAR04) ORVYL's File System Dump Program: Control Blocks                                       Page   37
0D-Loc  Object Code    Addr1 Addr2  Stmt Lv Lineno    Source Statement           (Hibal 5, Asmedit 3.3)  HLASM R4.0  2004/03/22 09.46
+_____  ______ ____    _____ _____  ____ __ ______    ______ _________
00006B6 00050001000104             15184  1  855.31   MNDSP      DC    AL2(DALNDISP,1,1),X'04'        DISP=(,KEEP)
 0006BD 00040001000108             15185  1  855.4    MSTAT      DC    AL2(DALSTATS,1,1),X'08'       DISP=OLD
 0006C4 001C0000                   15186  1  855.41   MFREE      DC    AL2(DALCLOSE,0)
1VDMP     (VDMP21) (09:46) (22MAR04) ORVYL's File System Dump Program: Control Blocks                                       Page   38
0D-Loc  Object Code    Addr1 Addr2  Stmt Lv Lineno    Source Statement           (Hibal 5, Asmedit 3.3)  HLASM R4.0  2004/03/22 09.46
+_____  ______ ____    _____ _____  ____ __ ______    ______ _________
0                                  15189  1  857.     *
                                   15190  1  858.     ** Define dynamic allocation parameters for history file
                                   15191  1  859.     *
00006C8 00000000                   15193  1  861.     HISTP      DC    A(0)                POINTER TO SVC99 REQUEST BLOCK
 0006CC 0000000000000000           15194  1  862.     HISTRB     DC    5A(0)               SVC99 request block
00006E0 000006F0                   15196  1  864.     HISTPTRS   DC    A(HISTDDN)          POINTER TO DDNAME
 0006E4 000006FE                   15197  1  865.                DC    A(HISTDSN)          POINTER TO DATA SET NAME
 0006E8 00000730                   15198  1  866.                DC    A(HISTSTAT)         POINTER TO DATA SET STATUS (OLD)
 0006EC 00000737                   15199  1  867.                DC    A(HISTFREE)         POINTER TO FREE=CLOSE
00006F0 000100010008C8C9           15201  1  869.     HISTDDN    DC    AL2(DALDDNAM,1,8),CL8'HISTORY'
 0006FE 00020001002CC4E2           15202  1  870.     HISTDSN    DC    AL2(DALDSNAM,1,44),CL44'DSN'
 000730 00040001000101             15203  1  871.     HISTSTAT   DC    AL2(DALSTATS,1,1),X'01'
 000737 001C0000                   15204  1  872.     HISTFREE   DC    AL2(DALCLOSE,0)
0                                  15206  1  874.     *
                                   15207  1  875.     *  Define control variables for accessing the history file
                                   15208  1  876.     *
 00073B 00                                1
 00073C 00000000                   15209  1  877.     HISTRECA   DC    A(0)                POINTER TO I/O CONTROL FOR "A"
 000740 00000000                   15210  1  878.     HISTRECB   DC    A(0)                POINTER TO I/O CONTROL FOR "B"
 000744 00000000                   15211  1  879.     HISTRECC   DC    A(0)                POINTER TO I/O CONTROL FOR "C"
 000748 00000000                   15212  1  880.     HISTRECD   DC    A(0)                POINTER TO I/O CONTROL FOR "D"
1VDMP     (VDMP21) (09:46) (22MAR04) ORVYL's File System Dump Program: Control Blocks                                       Page   39
0D-Loc  Object Code    Addr1 Addr2  Stmt Lv Lineno    Source Statement           (Hibal 5, Asmedit 3.3)  HLASM R4.0  2004/03/22 09.46
+_____  ______ ____    _____ _____  ____ __ ______    ______ _________
0                                  15214  1  882.     *
                                   15215  1  883.     ** DEFINE INCREMENTAL TAPE DCB INFORMATION
                                   15216  1  884.     *
                                   15219  1  886.   C INCDCB     DCB   DDNAME=TAPE00,MACRF=PM,DSORG=PS,BLKSIZE=32760,
                                          1  887.                      LRECL=8196,BUFNO=10,RECFM=VB
0                                  15222  1          +*                       DATA CONTROL BLOCK
                                   15223  1          +*
 00074C                            15224  1 01-DCB   +INCDCB     DC    0F'0'          ORIGIN ON WORD BOUNDARY
                                   15225  1          +*                       DIRECT ACCESS DEVICE INTERFACE
 00074C 0000000000000000           15226  1 01-DCB   +           DC    BL16'0'        FDAD, DVTBL
 00075C 00000000                   15227  1 01-DCB   +           DC    A(0)           KEYLEN, DEVT, TRBAL
                                   15228  1          +*                       COMMON ACCESS METHOD INTERFACE
 000760 0A                         15229  1 01-DCB   +           DC    AL1(10)        BUFNO, NUMBER OF BUFFERS
 000761 000001                     15230  1 01-DCB   +           DC    AL3(1)         BUFCB, BUFFER POOL CONTROL BLOCK
 000764 0000                       15231  1 01-DCB   +           DC    AL2(0)         BUFL, BUFFER LENGTH
 000766 4000                       15232  1 01-DCB   +           DC    BL2'0100000000000000' DSORG, DATA SET ORGANIZATION
 000768 00000001                   15233  1 01-DCB   +           DC    A(1)           IOBAD FOR EXCP OR RESERVED
                                   15234  1          +*                       FOUNDATION EXTENSION
 00076C 00                         15235  1 01-DCB   +           DC    BL1'00000000'  BFTEK, BFALN, DCBE INDICATORS
 00076D 000001                     15236  1 01-DCB   +           DC    AL3(1)         EODAD (END OF DATA ROUTINE ADDRESS)
 000770 50                         15237  1 01-DCB   +           DC    BL1'01010000'  RECFM (RECORD FORMAT)
 000771 000000                     15238  1 01-DCB   +           DC    AL3(0)         EXLST (EXIT LIST ADDRESS)
                                   15239  1          +*                       FOUNDATION BLOCK
 000774 E3C1D7C5F0F04040           15240  1 01-DCB   +           DC    CL8'TAPE00'    DDNAME
 00077C 02                         15241  1 01-DCB   +           DC    BL1'00000010'  OFLGS (OPEN FLAGS)
 00077D 00                         15242  1 01-DCB   +           DC    BL1'00000000'  IFLGS (IOS FLAGS)
 00077E 0050                       15243  1 01-DCB   +           DC    BL2'0000000001010000' MACR (MACRO FORMAT)
                                   15244  1          +*                       BSAM-BPAM-QSAM INTERFACE
 000780 00                         15245  1 01-DCB   +           DC    BL1'00000000'  OPTCD, OPTION CODES
 000781 000001                     15246  1 01-DCB   +           DC    AL3(1)         CHECK OR INTERNAL QSAM SYNCHRONIZING RTN.
 000784 00000001                   15247  1 01-DCB   +           DC    A(1)           SYNAD, SYNCHRONOUS ERROR RTN. (3 BYTES)
 000788 0000                       15248  1 01-DCB   +           DC    H'0'           INTERNAL ACCESS METHOD FLAGS
 00078A 7FF8                       15249  1 01-DCB   +           DC    AL2(32760)     BLKSIZE, BLOCK SIZE
 00078C 00000000                   15250  1 01-DCB   +           DC    F'0'           INTERNAL ACCESS METHOD FLAGS
 000790 00000001                   15251  1 01-DCB   +           DC    A(1)           INTERNAL ACCESS METHOD USE
                                   15252  1          +*                            QSAM INTERFACE
 000794 00000001                   15253  1 01-DCB   +           DC    A(1)           EOBAD
 000798 00000001                   15254  1 01-DCB   +           DC    A(1)           RECAD
 00079C 0000                       15255  1 01-DCB   +           DC    H'0'           QSWS (FLAGS) AND EITHER DIRCT OR BUFOFF
 00079E 2004                       15256  1 01-DCB   +           DC    AL2(8196)      LRECL
 0007A0 00                         15257  1 01-DCB   +           DC    BL1'00000000'  EROPT, ERROR OPTION
 0007A1 000001                     15258  1 01-DCB   +           DC    AL3(1)         CNTRL
 0007A4 00000000                   15259  1 01-DCB   +           DC    H'0,0'         RESERVED AND PRECL
 0007A8 00000001                   15260  1 01-DCB   +           DC    A(1)           EOB, INTERNAL ACCESS METHOD FIELD
                                   15264  1  888.1    INCODCB    DCB   DDNAME=INCOLD,MACRF=GM,DSORG=PS,RECFM=VB
0                                  15267  1          +*                       DATA CONTROL BLOCK
                                   15268  1          +*
 0007AC                            15269  1 01-DCB   +INCODCB    DC    0F'0'          ORIGIN ON WORD BOUNDARY
                                   15270  1          +*                       DIRECT ACCESS DEVICE INTERFACE
 0007AC 0000000000000000           15271  1 01-DCB   +           DC    BL16'0'        FDAD, DVTBL
 0007BC 00000000                   15272  1 01-DCB   +           DC    A(0)           KEYLEN, DEVT, TRBAL
                                   15273  1          +*                       COMMON ACCESS METHOD INTERFACE
 0007C0 00                         15274  1 01-DCB   +           DC    AL1(0)         BUFNO, NUMBER OF BUFFERS
 0007C1 000001                     15275  1 01-DCB   +           DC    AL3(1)         BUFCB, BUFFER POOL CONTROL BLOCK
1VDMP     (VDMP21) (09:46) (22MAR04) ORVYL's File System Dump Program: Control Blocks                                       Page   40
0D-Loc  Object Code    Addr1 Addr2  Stmt Lv Lineno    Source Statement           (Hibal 5, Asmedit 3.3)  HLASM R4.0  2004/03/22 09.46
+_____  ______ ____    _____ _____  ____ __ ______    ______ _________
00007C4 0000                       15276  1 01-DCB   +           DC    AL2(0)         BUFL, BUFFER LENGTH
 0007C6 4000                       15277  1 01-DCB   +           DC    BL2'0100000000000000' DSORG, DATA SET ORGANIZATION
 0007C8 00000001                   15278  1 01-DCB   +           DC    A(1)           IOBAD FOR EXCP OR RESERVED
                                   15279  1          +*                       FOUNDATION EXTENSION
 0007CC 00                         15280  1 01-DCB   +           DC    BL1'00000000'  BFTEK, BFALN, DCBE INDICATORS
 0007CD 000001                     15281  1 01-DCB   +           DC    AL3(1)         EODAD (END OF DATA ROUTINE ADDRESS)
 0007D0 50                         15282  1 01-DCB   +           DC    BL1'01010000'  RECFM (RECORD FORMAT)
 0007D1 000000                     15283  1 01-DCB   +           DC    AL3(0)         EXLST (EXIT LIST ADDRESS)
                                   15284  1          +*                       FOUNDATION BLOCK
 0007D4 C9D5C3D6D3C44040           15285  1 01-DCB   +           DC    CL8'INCOLD'    DDNAME
 0007DC 02                         15286  1 01-DCB   +           DC    BL1'00000010'  OFLGS (OPEN FLAGS)
 0007DD 00                         15287  1 01-DCB   +           DC    BL1'00000000'  IFLGS (IOS FLAGS)
 0007DE 5000                       15288  1 01-DCB   +           DC    BL2'0101000000000000' MACR (MACRO FORMAT)
                                   15289  1          +*                       BSAM-BPAM-QSAM INTERFACE
 0007E0 00                         15290  1 01-DCB   +           DC    BL1'00000000'  OPTCD, OPTION CODES
 0007E1 000001                     15291  1 01-DCB   +           DC    AL3(1)         CHECK OR INTERNAL QSAM SYNCHRONIZING RTN.
 0007E4 00000001                   15292  1 01-DCB   +           DC    A(1)           SYNAD, SYNCHRONOUS ERROR RTN. (3 BYTES)
 0007E8 0000                       15293  1 01-DCB   +           DC    H'0'           INTERNAL ACCESS METHOD FLAGS
 0007EA 0000                       15294  1 01-DCB   +           DC    AL2(0)         BLKSIZE, BLOCK SIZE
 0007EC 00000000                   15295  1 01-DCB   +           DC    F'0'           INTERNAL ACCESS METHOD FLAGS
 0007F0 00000001                   15296  1 01-DCB   +           DC    A(1)           INTERNAL ACCESS METHOD USE
                                   15297  1          +*                            QSAM INTERFACE
 0007F4 00000001                   15298  1 01-DCB   +           DC    A(1)           EOBAD
 0007F8 00000001                   15299  1 01-DCB   +           DC    A(1)           RECAD
 0007FC 0000                       15300  1 01-DCB   +           DC    H'0'           QSWS (FLAGS) AND EITHER DIRCT OR BUFOFF
 0007FE 0000                       15301  1 01-DCB   +           DC    AL2(0)         LRECL
 000800 00                         15302  1 01-DCB   +           DC    BL1'00000000'  EROPT, ERROR OPTION
 000801 000001                     15303  1 01-DCB   +           DC    AL3(1)         CNTRL
 000804 00000000                   15304  1 01-DCB   +           DC    H'0,0'         RESERVED AND PRECL
 000808 00000001                   15305  1 01-DCB   +           DC    A(1)           EOB, INTERNAL ACCESS METHOD FIELD
1VDMP     (VDMP21) (09:46) (22MAR04) ORVYL's File System Dump Program: Control Blocks                                       Page   41
0D-Loc  Object Code    Addr1 Addr2  Stmt Lv Lineno    Source Statement           (Hibal 5, Asmedit 3.3)  HLASM R4.0  2004/03/22 09.46
+_____  ______ ____    _____ _____  ____ __ ______    ______ _________
0                                  15308  1  890.     *
                                   15309  1  891.     **  Define incremental file DCB information
                                   15310  1  892.     *
                                   15312  1  894.     INCFIL     DCB   DDNAME=INCFIL,MACRF=GM,DSORG=PS,BUFNO=10
0                                  15315  1          +*                       DATA CONTROL BLOCK
                                   15316  1          +*
 00080C                            15317  1 01-DCB   +INCFIL     DC    0F'0'          ORIGIN ON WORD BOUNDARY
                                   15318  1          +*                       DIRECT ACCESS DEVICE INTERFACE
 00080C 0000000000000000           15319  1 01-DCB   +           DC    BL16'0'        FDAD, DVTBL
 00081C 00000000                   15320  1 01-DCB   +           DC    A(0)           KEYLEN, DEVT, TRBAL
                                   15321  1          +*                       COMMON ACCESS METHOD INTERFACE
 000820 0A                         15322  1 01-DCB   +           DC    AL1(10)        BUFNO, NUMBER OF BUFFERS
 000821 000001                     15323  1 01-DCB   +           DC    AL3(1)         BUFCB, BUFFER POOL CONTROL BLOCK
 000824 0000                       15324  1 01-DCB   +           DC    AL2(0)         BUFL, BUFFER LENGTH
 000826 4000                       15325  1 01-DCB   +           DC    BL2'0100000000000000' DSORG, DATA SET ORGANIZATION
 000828 00000001                   15326  1 01-DCB   +           DC    A(1)           IOBAD FOR EXCP OR RESERVED
                                   15327  1          +*                       FOUNDATION EXTENSION
 00082C 00                         15328  1 01-DCB   +           DC    BL1'00000000'  BFTEK, BFALN, DCBE INDICATORS
 00082D 000001                     15329  1 01-DCB   +           DC    AL3(1)         EODAD (END OF DATA ROUTINE ADDRESS)
 000830 00                         15330  1 01-DCB   +           DC    BL1'00000000'  RECFM (RECORD FORMAT)
 000831 000000                     15331  1 01-DCB   +           DC    AL3(0)         EXLST (EXIT LIST ADDRESS)
                                   15332  1          +*                       FOUNDATION BLOCK
 000834 C9D5C3C6C9D34040           15333  1 01-DCB   +           DC    CL8'INCFIL'    DDNAME
 00083C 02                         15334  1 01-DCB   +           DC    BL1'00000010'  OFLGS (OPEN FLAGS)
 00083D 00                         15335  1 01-DCB   +           DC    BL1'00000000'  IFLGS (IOS FLAGS)
 00083E 5000                       15336  1 01-DCB   +           DC    BL2'0101000000000000' MACR (MACRO FORMAT)
                                   15337  1          +*                       BSAM-BPAM-QSAM INTERFACE
 000840 00                         15338  1 01-DCB   +           DC    BL1'00000000'  OPTCD, OPTION CODES
 000841 000001                     15339  1 01-DCB   +           DC    AL3(1)         CHECK OR INTERNAL QSAM SYNCHRONIZING RTN.
 000844 00000001                   15340  1 01-DCB   +           DC    A(1)           SYNAD, SYNCHRONOUS ERROR RTN. (3 BYTES)
 000848 0000                       15341  1 01-DCB   +           DC    H'0'           INTERNAL ACCESS METHOD FLAGS
 00084A 0000                       15342  1 01-DCB   +           DC    AL2(0)         BLKSIZE, BLOCK SIZE
 00084C 00000000                   15343  1 01-DCB   +           DC    F'0'           INTERNAL ACCESS METHOD FLAGS
 000850 00000001                   15344  1 01-DCB   +           DC    A(1)           INTERNAL ACCESS METHOD USE
                                   15345  1          +*                            QSAM INTERFACE
 000854 00000001                   15346  1 01-DCB   +           DC    A(1)           EOBAD
 000858 00000001                   15347  1 01-DCB   +           DC    A(1)           RECAD
 00085C 0000                       15348  1 01-DCB   +           DC    H'0'           QSWS (FLAGS) AND EITHER DIRCT OR BUFOFF
 00085E 0000                       15349  1 01-DCB   +           DC    AL2(0)         LRECL
 000860 00                         15350  1 01-DCB   +           DC    BL1'00000000'  EROPT, ERROR OPTION
 000861 000001                     15351  1 01-DCB   +           DC    AL3(1)         CNTRL
 000864 00000000                   15352  1 01-DCB   +           DC    H'0,0'         RESERVED AND PRECL
 000868 00000001                   15353  1 01-DCB   +           DC    A(1)           EOB, INTERNAL ACCESS METHOD FIELD
1VDMP     (VDMP21) (09:46) (22MAR04) ORVYL's File System Dump Program: Control Blocks                                       Page   42
0D-Loc  Object Code    Addr1 Addr2  Stmt Lv Lineno    Source Statement           (Hibal 5, Asmedit 3.3)  HLASM R4.0  2004/03/22 09.46
+_____  ______ ____    _____ _____  ____ __ ______    ______ _________
0                                  15357  1  895.3    INCIXIN    DCB   DDNAME=INCIXIN,MACRF=GM,DSORG=PS,BUFNO=10
0                                  15360  1          +*                       DATA CONTROL BLOCK
                                   15361  1          +*
 00086C                            15362  1 01-DCB   +INCIXIN    DC    0F'0'          ORIGIN ON WORD BOUNDARY
                                   15363  1          +*                       DIRECT ACCESS DEVICE INTERFACE
 00086C 0000000000000000           15364  1 01-DCB   +           DC    BL16'0'        FDAD, DVTBL
 00087C 00000000                   15365  1 01-DCB   +           DC    A(0)           KEYLEN, DEVT, TRBAL
                                   15366  1          +*                       COMMON ACCESS METHOD INTERFACE
 000880 0A                         15367  1 01-DCB   +           DC    AL1(10)        BUFNO, NUMBER OF BUFFERS
 000881 000001                     15368  1 01-DCB   +           DC    AL3(1)         BUFCB, BUFFER POOL CONTROL BLOCK
 000884 0000                       15369  1 01-DCB   +           DC    AL2(0)         BUFL, BUFFER LENGTH
 000886 4000                       15370  1 01-DCB   +           DC    BL2'0100000000000000' DSORG, DATA SET ORGANIZATION
 000888 00000001                   15371  1 01-DCB   +           DC    A(1)           IOBAD FOR EXCP OR RESERVED
                                   15372  1          +*                       FOUNDATION EXTENSION
 00088C 00                         15373  1 01-DCB   +           DC    BL1'00000000'  BFTEK, BFALN, DCBE INDICATORS
 00088D 000001                     15374  1 01-DCB   +           DC    AL3(1)         EODAD (END OF DATA ROUTINE ADDRESS)
 000890 00                         15375  1 01-DCB   +           DC    BL1'00000000'  RECFM (RECORD FORMAT)
 000891 000000                     15376  1 01-DCB   +           DC    AL3(0)         EXLST (EXIT LIST ADDRESS)
                                   15377  1          +*                       FOUNDATION BLOCK
 000894 C9D5C3C9E7C9D540           15378  1 01-DCB   +           DC    CL8'INCIXIN'   DDNAME
 00089C 02                         15379  1 01-DCB   +           DC    BL1'00000010'  OFLGS (OPEN FLAGS)
 00089D 00                         15380  1 01-DCB   +           DC    BL1'00000000'  IFLGS (IOS FLAGS)
 00089E 5000                       15381  1 01-DCB   +           DC    BL2'0101000000000000' MACR (MACRO FORMAT)
                                   15382  1          +*                       BSAM-BPAM-QSAM INTERFACE
 0008A0 00                         15383  1 01-DCB   +           DC    BL1'00000000'  OPTCD, OPTION CODES
 0008A1 000001                     15384  1 01-DCB   +           DC    AL3(1)         CHECK OR INTERNAL QSAM SYNCHRONIZING RTN.
 0008A4 00000001                   15385  1 01-DCB   +           DC    A(1)           SYNAD, SYNCHRONOUS ERROR RTN. (3 BYTES)
 0008A8 0000                       15386  1 01-DCB   +           DC    H'0'           INTERNAL ACCESS METHOD FLAGS
 0008AA 0000                       15387  1 01-DCB   +           DC    AL2(0)         BLKSIZE, BLOCK SIZE
 0008AC 00000000                   15388  1 01-DCB   +           DC    F'0'           INTERNAL ACCESS METHOD FLAGS
 0008B0 00000001                   15389  1 01-DCB   +           DC    A(1)           INTERNAL ACCESS METHOD USE
                                   15390  1          +*                            QSAM INTERFACE
 0008B4 00000001                   15391  1 01-DCB   +           DC    A(1)           EOBAD
 0008B8 00000001                   15392  1 01-DCB   +           DC    A(1)           RECAD
 0008BC 0000                       15393  1 01-DCB   +           DC    H'0'           QSWS (FLAGS) AND EITHER DIRCT OR BUFOFF
 0008BE 0000                       15394  1 01-DCB   +           DC    AL2(0)         LRECL
 0008C0 00                         15395  1 01-DCB   +           DC    BL1'00000000'  EROPT, ERROR OPTION
 0008C1 000001                     15396  1 01-DCB   +           DC    AL3(1)         CNTRL
 0008C4 00000000                   15397  1 01-DCB   +           DC    H'0,0'         RESERVED AND PRECL
 0008C8 00000001                   15398  1 01-DCB   +           DC    A(1)           EOB, INTERNAL ACCESS METHOD FIELD
1VDMP     (VDMP21) (09:46) (22MAR04) ORVYL's File System Dump Program: Control Blocks                                       Page   43
0D-Loc  Object Code    Addr1 Addr2  Stmt Lv Lineno    Source Statement           (Hibal 5, Asmedit 3.3)  HLASM R4.0  2004/03/22 09.46
+_____  ______ ____    _____ _____  ____ __ ______    ______ _________
0                                  15402  1  895.7    INCIXOUT   DCB   DDNAME=INCIXOUT,MACRF=PM,DSORG=PS,BUFNO=10
0                                  15405  1          +*                       DATA CONTROL BLOCK
                                   15406  1          +*
 0008CC                            15407  1 01-DCB   +INCIXOUT   DC    0F'0'          ORIGIN ON WORD BOUNDARY
                                   15408  1          +*                       DIRECT ACCESS DEVICE INTERFACE
 0008CC 0000000000000000           15409  1 01-DCB   +           DC    BL16'0'        FDAD, DVTBL
 0008DC 00000000                   15410  1 01-DCB   +           DC    A(0)           KEYLEN, DEVT, TRBAL
                                   15411  1          +*                       COMMON ACCESS METHOD INTERFACE
 0008E0 0A                         15412  1 01-DCB   +           DC    AL1(10)        BUFNO, NUMBER OF BUFFERS
 0008E1 000001                     15413  1 01-DCB   +           DC    AL3(1)         BUFCB, BUFFER POOL CONTROL BLOCK
 0008E4 0000                       15414  1 01-DCB   +           DC    AL2(0)         BUFL, BUFFER LENGTH
 0008E6 4000                       15415  1 01-DCB   +           DC    BL2'0100000000000000' DSORG, DATA SET ORGANIZATION
 0008E8 00000001                   15416  1 01-DCB   +           DC    A(1)           IOBAD FOR EXCP OR RESERVED
                                   15417  1          +*                       FOUNDATION EXTENSION
 0008EC 00                         15418  1 01-DCB   +           DC    BL1'00000000'  BFTEK, BFALN, DCBE INDICATORS
 0008ED 000001                     15419  1 01-DCB   +           DC    AL3(1)         EODAD (END OF DATA ROUTINE ADDRESS)
 0008F0 00                         15420  1 01-DCB   +           DC    BL1'00000000'  RECFM (RECORD FORMAT)
 0008F1 000000                     15421  1 01-DCB   +           DC    AL3(0)         EXLST (EXIT LIST ADDRESS)
                                   15422  1          +*                       FOUNDATION BLOCK
 0008F4 C9D5C3C9E7D6E4E3           15423  1 01-DCB   +           DC    CL8'INCIXOUT'  DDNAME
 0008FC 02                         15424  1 01-DCB   +           DC    BL1'00000010'  OFLGS (OPEN FLAGS)
 0008FD 00                         15425  1 01-DCB   +           DC    BL1'00000000'  IFLGS (IOS FLAGS)
 0008FE 0050                       15426  1 01-DCB   +           DC    BL2'0000000001010000' MACR (MACRO FORMAT)
                                   15427  1          +*                       BSAM-BPAM-QSAM INTERFACE
 000900 00                         15428  1 01-DCB   +           DC    BL1'00000000'  OPTCD, OPTION CODES
 000901 000001                     15429  1 01-DCB   +           DC    AL3(1)         CHECK OR INTERNAL QSAM SYNCHRONIZING RTN.
 000904 00000001                   15430  1 01-DCB   +           DC    A(1)           SYNAD, SYNCHRONOUS ERROR RTN. (3 BYTES)
 000908 0000                       15431  1 01-DCB   +           DC    H'0'           INTERNAL ACCESS METHOD FLAGS
 00090A 0000                       15432  1 01-DCB   +           DC    AL2(0)         BLKSIZE, BLOCK SIZE
 00090C 00000000                   15433  1 01-DCB   +           DC    F'0'           INTERNAL ACCESS METHOD FLAGS
 000910 00000001                   15434  1 01-DCB   +           DC    A(1)           INTERNAL ACCESS METHOD USE
                                   15435  1          +*                            QSAM INTERFACE
 000914 00000001                   15436  1 01-DCB   +           DC    A(1)           EOBAD
 000918 00000001                   15437  1 01-DCB   +           DC    A(1)           RECAD
 00091C 0000                       15438  1 01-DCB   +           DC    H'0'           QSWS (FLAGS) AND EITHER DIRCT OR BUFOFF
 00091E 0000                       15439  1 01-DCB   +           DC    AL2(0)         LRECL
 000920 00                         15440  1 01-DCB   +           DC    BL1'00000000'  EROPT, ERROR OPTION
 000921 000001                     15441  1 01-DCB   +           DC    AL3(1)         CNTRL
 000924 00000000                   15442  1 01-DCB   +           DC    H'0,0'         RESERVED AND PRECL
 000928 00000001                   15443  1 01-DCB   +           DC    A(1)           EOB, INTERNAL ACCESS METHOD FIELD
1VDMP     (VDMP21) (09:46) (22MAR04) ORVYL's File System Dump Program: Control Blocks                                       Page   44
0D-Loc  Object Code    Addr1 Addr2  Stmt Lv Lineno    Source Statement           (Hibal 5, Asmedit 3.3)  HLASM R4.0  2004/03/22 09.46
+_____  ______ ____    _____ _____  ____ __ ______    ______ _________
0                                  15446  1  897.     *
                                   15447  1  898.     ** Define control DCB information
                                   15448  1  899.     *
                                   15450  1  901.     CNTDCB     DCB   DDNAME=CONTROL,MACRF=GM,DSORG=PS
0                                  15453  1          +*                       DATA CONTROL BLOCK
                                   15454  1          +*
 00092C                            15455  1 01-DCB   +CNTDCB     DC    0F'0'          ORIGIN ON WORD BOUNDARY
                                   15456  1          +*                       DIRECT ACCESS DEVICE INTERFACE
 00092C 0000000000000000           15457  1 01-DCB   +           DC    BL16'0'        FDAD, DVTBL
 00093C 00000000                   15458  1 01-DCB   +           DC    A(0)           KEYLEN, DEVT, TRBAL
                                   15459  1          +*                       COMMON ACCESS METHOD INTERFACE
 000940 00                         15460  1 01-DCB   +           DC    AL1(0)         BUFNO, NUMBER OF BUFFERS
 000941 000001                     15461  1 01-DCB   +           DC    AL3(1)         BUFCB, BUFFER POOL CONTROL BLOCK
 000944 0000                       15462  1 01-DCB   +           DC    AL2(0)         BUFL, BUFFER LENGTH
 000946 4000                       15463  1 01-DCB   +           DC    BL2'0100000000000000' DSORG, DATA SET ORGANIZATION
 000948 00000001                   15464  1 01-DCB   +           DC    A(1)           IOBAD FOR EXCP OR RESERVED
                                   15465  1          +*                       FOUNDATION EXTENSION
 00094C 00                         15466  1 01-DCB   +           DC    BL1'00000000'  BFTEK, BFALN, DCBE INDICATORS
 00094D 000001                     15467  1 01-DCB   +           DC    AL3(1)         EODAD (END OF DATA ROUTINE ADDRESS)
 000950 00                         15468  1 01-DCB   +           DC    BL1'00000000'  RECFM (RECORD FORMAT)
 000951 000000                     15469  1 01-DCB   +           DC    AL3(0)         EXLST (EXIT LIST ADDRESS)
                                   15470  1          +*                       FOUNDATION BLOCK
 000954 C3D6D5E3D9D6D340           15471  1 01-DCB   +           DC    CL8'CONTROL'   DDNAME
 00095C 02                         15472  1 01-DCB   +           DC    BL1'00000010'  OFLGS (OPEN FLAGS)
 00095D 00                         15473  1 01-DCB   +           DC    BL1'00000000'  IFLGS (IOS FLAGS)
 00095E 5000                       15474  1 01-DCB   +           DC    BL2'0101000000000000' MACR (MACRO FORMAT)
                                   15475  1          +*                       BSAM-BPAM-QSAM INTERFACE
 000960 00                         15476  1 01-DCB   +           DC    BL1'00000000'  OPTCD, OPTION CODES
 000961 000001                     15477  1 01-DCB   +           DC    AL3(1)         CHECK OR INTERNAL QSAM SYNCHRONIZING RTN.
 000964 00000001                   15478  1 01-DCB   +           DC    A(1)           SYNAD, SYNCHRONOUS ERROR RTN. (3 BYTES)
 000968 0000                       15479  1 01-DCB   +           DC    H'0'           INTERNAL ACCESS METHOD FLAGS
 00096A 0000                       15480  1 01-DCB   +           DC    AL2(0)         BLKSIZE, BLOCK SIZE
 00096C 00000000                   15481  1 01-DCB   +           DC    F'0'           INTERNAL ACCESS METHOD FLAGS
 000970 00000001                   15482  1 01-DCB   +           DC    A(1)           INTERNAL ACCESS METHOD USE
                                   15483  1          +*                            QSAM INTERFACE
 000974 00000001                   15484  1 01-DCB   +           DC    A(1)           EOBAD
 000978 00000001                   15485  1 01-DCB   +           DC    A(1)           RECAD
 00097C 0000                       15486  1 01-DCB   +           DC    H'0'           QSWS (FLAGS) AND EITHER DIRCT OR BUFOFF
 00097E 0000                       15487  1 01-DCB   +           DC    AL2(0)         LRECL
 000980 00                         15488  1 01-DCB   +           DC    BL1'00000000'  EROPT, ERROR OPTION
 000981 000001                     15489  1 01-DCB   +           DC    AL3(1)         CNTRL
 000984 00000000                   15490  1 01-DCB   +           DC    H'0,0'         RESERVED AND PRECL
 000988 00000001                   15491  1 01-DCB   +           DC    A(1)           EOB, INTERNAL ACCESS METHOD FIELD
1VDMP     (VDMP21) (09:46) (22MAR04) ORVYL's File System Dump Program: Control Blocks                                       Page   45
0D-Loc  Object Code    Addr1 Addr2  Stmt Lv Lineno    Source Statement           (Hibal 5, Asmedit 3.3)  HLASM R4.0  2004/03/22 09.46
+_____  ______ ____    _____ _____  ____ __ ______    ______ _________
0                                  15495  1  905.   C HSTDCB     DCB   DDNAME=HISTORY,DSORG=DA,BLKSIZE=128,
                                          1  906.                      MACRF=(RIC,WIC),OPTCD=R,RECFM=FB
0                                  15498  1          +*                       DATA CONTROL BLOCK
                                   15499  1          +*
 00098C                            15500  1 01-DCB   +HSTDCB     DS    0F'0'          ORIGIN ON WORD BOUNDARY
 00098C                0098C 0099C 15501  1 01-DCB   +           ORG   *+16           TO ORIGIN GENERATION
 00099C 00000000                   15502  1 01-DCB   +           DC    A(0)           KEYLEN, DEVT, TRBAL
                                   15503  1          +*                       COMMON ACCESS METHOD INTERFACE
 0009A0 00                         15504  1 01-DCB   +           DC    AL1(0)         BUFNO, NUMBER OF BUFFERS
 0009A1 000001                     15505  1 01-DCB   +           DC    AL3(1)         BUFCB, BUFFER POOL CONTROL BLOCK
 0009A4 0000                       15506  1 01-DCB   +           DC    AL2(0)         BUFL, BUFFER LENGTH
 0009A6 2000                       15507  1 01-DCB   +           DC    BL2'0010000000000000' DSORG, DATA SET ORGANIZATION
 0009A8 00000001                   15508  1 01-DCB   +           DC    A(1)           IOBAD FOR EXCP OR RESERVED
                                   15509  1          +*                       FOUNDATION EXTENSION
 0009AC 00                         15510  1 01-DCB   +           DC    BL1'00000000'  BFTEK, BFALN, DCBE INDICATORS
 0009AD 000001                     15511  1 01-DCB   +           DC    AL3(1)         EODAD (END OF DATA ROUTINE ADDRESS)
 0009B0 90                         15512  1 01-DCB   +           DC    BL1'10010000'  RECFM (RECORD FORMAT)
 0009B1 000000                     15513  1 01-DCB   +           DC    AL3(0)         EXLST (EXIT LIST ADDRESS)
                                   15514  1          +*                       FOUNDATION BLOCK
 0009B4 C8C9E2E3D6D9E840           15515  1 01-DCB   +           DC    CL8'HISTORY'   DDNAME
 0009BC 02                         15516  1 01-DCB   +           DC    BL1'00000010'  OFLGS (OPEN FLAGS)
 0009BD 00                         15517  1 01-DCB   +           DC    BL1'00000000'  IFLGS (IOS FLAGS)
 0009BE 2928                       15518  1 01-DCB   +           DC    BL2'0010100100101000' MACR (MACRO FORMAT)
                                   15519  1          +*                       BDAM INTERFACE
 0009C0 01                         15520  1 01-DCB   +           DC    BL1'00000001'  OPTCD, OPTION CODES
 0009C1 000001                     15521  1 01-DCB   +           DC    AL3(1)         CHECK
 0009C4 00000001                   15522  1 01-DCB   +           DC    A(1)           SYNAD, SYNCHRONOUS ERROR ROUTINE ADDR
 0009C8 0000                       15523  1 01-DCB   +           DC    H'0'           RESERVED
 0009CA 0080                       15524  1 01-DCB   +           DC    AL2(128)       BLKSIZE, BLOCK SIZE
 0009CC 00000001                   15525  1 01-DCB   +           DC    A(1)           IOBSQ
 0009D0 00000001                   15526  1 01-DCB   +           DC    A(1)           SQND
 0009D4 00000001                   15527  1 01-DCB   +           DC    A(1)           IOBUQ
 0009D8 00000001                   15528  1 01-DCB   +           DC    A(1)           UQND
 0009DC 00000000                   15529  1 01-DCB   +           DC    A(0)           LIMCT, LIMIT COUNT (THREE BYTES)
 0009E0 00000001                   15530  1 01-DCB   +           DC    F'1'           XCNT, XARG
 0009E4 00000001                   15531  1 01-DCB   +           DC    A(1)           DRDX
 0009E8 00000001                   15532  1 01-DCB   +           DC    A(1)           DFOR
 0009EC 00000001                   15533  1 01-DCB   +           DC    A(1)           DFBK
 0009F0 00000001                   15534  1 01-DCB   +           DC    A(1)           DYNB
1VDMP     (VDMP21) (09:46) (22MAR04) ORVYL's File System Dump Program: Control Blocks                                       Page   46
0D-Loc  Object Code    Addr1 Addr2  Stmt Lv Lineno    Source Statement           (Hibal 5, Asmedit 3.3)  HLASM R4.0  2004/03/22 09.46
+_____  ______ ____    _____ _____  ____ __ ______    ______ _________
0                                  15537  1  909.     *
                                   15538  1  910.     *  DEFINE DATA CONTROL BLOCK FOR SYSIN DEFINITION RECORDS
                                   15539  1  911.     *
                                   15541  1  913.   C CRDDCB     DCB   DDNAME=SYSIN,DSORG=PS,RECFM=F,LRECL=80,BLKSIZE=80,
                                          1  914.                      MACRF=GM,EODAD=0
0                                  15544  1          +*                       DATA CONTROL BLOCK
                                   15545  1          +*
 0009F4                            15546  1 01-DCB   +CRDDCB     DC    0F'0'          ORIGIN ON WORD BOUNDARY
                                   15547  1          +*                       DIRECT ACCESS DEVICE INTERFACE
 0009F4 0000000000000000           15548  1 01-DCB   +           DC    BL16'0'        FDAD, DVTBL
 000A04 00000000                   15549  1 01-DCB   +           DC    A(0)           KEYLEN, DEVT, TRBAL
                                   15550  1          +*                       COMMON ACCESS METHOD INTERFACE
 000A08 00                         15551  1 01-DCB   +           DC    AL1(0)         BUFNO, NUMBER OF BUFFERS
 000A09 000001                     15552  1 01-DCB   +           DC    AL3(1)         BUFCB, BUFFER POOL CONTROL BLOCK
 000A0C 0000                       15553  1 01-DCB   +           DC    AL2(0)         BUFL, BUFFER LENGTH
 000A0E 4000                       15554  1 01-DCB   +           DC    BL2'0100000000000000' DSORG, DATA SET ORGANIZATION
 000A10 00000001                   15555  1 01-DCB   +           DC    A(1)           IOBAD FOR EXCP OR RESERVED
                                   15556  1          +*                       FOUNDATION EXTENSION
 000A14 00                         15557  1 01-DCB   +           DC    BL1'00000000'  BFTEK, BFALN, DCBE INDICATORS
 000A15 000000                     15558  1 01-DCB   +           DC    AL3(0)         EODAD (END OF DATA ROUTINE ADDRESS)
 000A18 80                         15559  1 01-DCB   +           DC    BL1'10000000'  RECFM (RECORD FORMAT)
 000A19 000000                     15560  1 01-DCB   +           DC    AL3(0)         EXLST (EXIT LIST ADDRESS)
                                   15561  1          +*                       FOUNDATION BLOCK
 000A1C E2E8E2C9D5404040           15562  1 01-DCB   +           DC    CL8'SYSIN'     DDNAME
 000A24 02                         15563  1 01-DCB   +           DC    BL1'00000010'  OFLGS (OPEN FLAGS)
 000A25 00                         15564  1 01-DCB   +           DC    BL1'00000000'  IFLGS (IOS FLAGS)
 000A26 5000                       15565  1 01-DCB   +           DC    BL2'0101000000000000' MACR (MACRO FORMAT)
                                   15566  1          +*                       BSAM-BPAM-QSAM INTERFACE
 000A28 00                         15567  1 01-DCB   +           DC    BL1'00000000'  OPTCD, OPTION CODES
 000A29 000001                     15568  1 01-DCB   +           DC    AL3(1)         CHECK OR INTERNAL QSAM SYNCHRONIZING RTN.
 000A2C 00000001                   15569  1 01-DCB   +           DC    A(1)           SYNAD, SYNCHRONOUS ERROR RTN. (3 BYTES)
 000A30 0000                       15570  1 01-DCB   +           DC    H'0'           INTERNAL ACCESS METHOD FLAGS
 000A32 0050                       15571  1 01-DCB   +           DC    AL2(80)        BLKSIZE, BLOCK SIZE
 000A34 00000000                   15572  1 01-DCB   +           DC    F'0'           INTERNAL ACCESS METHOD FLAGS
 000A38 00000001                   15573  1 01-DCB   +           DC    A(1)           INTERNAL ACCESS METHOD USE
                                   15574  1          +*                            QSAM INTERFACE
 000A3C 00000001                   15575  1 01-DCB   +           DC    A(1)           EOBAD
 000A40 00000001                   15576  1 01-DCB   +           DC    A(1)           RECAD
 000A44 0000                       15577  1 01-DCB   +           DC    H'0'           QSWS (FLAGS) AND EITHER DIRCT OR BUFOFF
 000A46 0050                       15578  1 01-DCB   +           DC    AL2(80)        LRECL
 000A48 00                         15579  1 01-DCB   +           DC    BL1'00000000'  EROPT, ERROR OPTION
 000A49 000001                     15580  1 01-DCB   +           DC    AL3(1)         CNTRL
 000A4C 00000000                   15581  1 01-DCB   +           DC    H'0,0'         RESERVED AND PRECL
 000A50 00000001                   15582  1 01-DCB   +           DC    A(1)           EOB, INTERNAL ACCESS METHOD FIELD
1VDMP     (VDMP21) (09:46) (22MAR04) ORVYL's File System Dump Program: Control Blocks                                       Page   47
0D-Loc  Object Code    Addr1 Addr2  Stmt Lv Lineno    Source Statement           (Hibal 5, Asmedit 3.3)  HLASM R4.0  2004/03/22 09.46
+_____  ______ ____    _____ _____  ____ __ ______    ______ _________
0                                  15587  1  917.2    LOADXIT    LOAD  EPLOC=*-*,ERRET=*-*,LOADPT=*-*,SF=L
 000A54                            15590  1 02-IHBIN +           CNOP  0,4                                            @G381P2A
 000A54 00000000                   15591  1 02-IHBIN +LOADXIT    DC    AL4(*-*)           EPLOC OR DE PARAMETER       @G381P2A
 000A58 00000000                   15592  1 02-IHBIN +           DC    AL4(0)             DCB ADDRESS PARAMETER       @G381P2A
 000A5C 00                         15593  1 02-IHBIN +           DC    AL1(0)             PARAMETER LIST FORMAT NUMBER
 000A5D 00                         15594  1 02-IHBIN +           DC    AL1(0)             RESERVED                    @G381P2A
 000A5E 21                         15595  1 02-IHBIN +           DC    B'00100001'                                   OPTIONS
 000A5F 00                         15596  1 02-IHBIN +           DC    B'00000000'        OPTIONS                     @YA11577
 000A60 00000000                   15597  1 02-IHBIN +           DC    A(*-*)                       LOADPT PARAMETER  @G860P35
                                   15598  1  918.     ESTLST     ESTAE RECROUT,CT,TERM=YES,MF=L
                                   15600  1          +*    MACDATE   10/01/94                                        @G860P1C
 000A64                            15602  1 01-ESTAE +           DS    0F
 000A64 16                         15603  1 01-ESTAEC+ESTLST     DC    AL1(22)                 FLAGS FOR TCB,PURGE,ASYNCH,
                                          1          +                                         AND CANCEL                  @D1C
 000A65 000000                     15604  1 01-ESTAE +           DC    AL3(0)                  FIELD NO LONGER USED  @G860P1C
 000A68 00000000                   15605  1 01-ESTAE +           DC    A(0)                    PARM. LIST ADDR. NOT SPECIFIED
 000A6C 00000000                   15606  1 01-ESTAE +           DC    A(0)                    TCB NOT SPECIFIED
 000A70 40                         15607  1 01-ESTAE +           DC    AL1(64)                 FLAGS
 000A71 01                         15608  1 01-ESTAE +           DC    AL1(1)                  THIRD FLAG BYTE       @G860P1C
 000A72 0000                       15609  1 01-ESTAE +           DC    AL2(0)                  RESERVED              @G860P1C
 000A74 00000000                   15610  1 01-ESTAE +           DC    A(0)                    TOKEN VALUE AREA      @G81CP2F
 000A78 00000674                   15611  1 01-ESTAE +           DC    AL4(RECROUT)            FOUR BYTE EXIT ADDR   @G860P1C
-                                         1
                                   15613  1  920.     COMATT     ATTACH EP=COMTASK,ECB=COMECB,SZERO=YES,SF=L
                                   15616  1          +* /* MACDATE   11/11/91                                          @L2C*/
                                   15617  1          +* /*
 000A7C                            15618  1 01-ATTAC +COMATT     DS    0F
 000A7C 00000A98                   15619  1 01-ATTAC +           DC    A(*+28)            POINTER TO SYMBOL NAME       @G860PXB
 000A80 00000000                   15620  1 01-ATTAC +           DC    A(0)               DCB ADDRESS                  @G860PXB
 000A84 800000F4                   15621  1 01-ATTACC+           DC    A(X'80000000'+COMECB)
                                          1          +                                     NEW FORMAT + ECB ADDR       @G860PXB
 000A88 00000000                   15622  1 01-ATTAC +           DC    A(0)               GSPL OR GSPV                 @G860PXB
 000A8C 00000000                   15623  1 01-ATTAC +           DC    A(0)               SHSPV OR SHSPL               @G860PXB
 000A90 00000000                   15624  1 01-ATTAC +           DC    A(0)               EXIT ROUTINE ADDRESS         @G860PXB
 000A94 0000                       15625  1 01-ATTAC +           DC    AL2(0)             DPMOD VALUE                  @G860PXB
 000A96 00                         15626  1 01-ATTAC +           DC    AL1(0)             LPMOD VALUE                  @G860PXB
 000A97 00                         15627  1 01-ATTAC +           DC    AL1(0)             STATUS BYTE                  @G860PXB
 000A98 C3D6D4E3C1E2D240           15628  1 01-ATTAC +           DC    CL8'COMTASK'       EP SYMBOL                    @G860PXB
 000AA0 00000000                   15629  1 01-ATTAC +           DC    A(0)               ADDRESS OF JSCB              @G860PXB
 000AA4 00000000                   15630  1 01-ATTAC +           DC    A(0)               (E)STAI PARM LIST            @G860PXB
 000AA8 00000000                   15631  1 01-ATTAC +           DC    A(0)               EXIT ADDRESS                 @G860PXB
 000AAC 00000000                   15632  1 01-ATTAC +           DC    A(0)               TASKLIB                      @G860PXB
 000AB0 00                         15633  1 01-ATTAC +           DC    AL1(0)             FLAG BYTE                    @G860PXB
 000AB1 00                         15634  1 01-ATTAC +           DC    AL1(0)             TASK ID                      @G860PXB
 000AB2 0048                       15635  1 01-ATTAC +           DC    AL2(72)            PARM LIST LENGTH             @G860PXB
 000AB4 00000000                   15636  1 01-ATTAC +           DC    A(0)               SUBPOOL LIST ADDRESS/VALUE   @G860PXB
 000AB8 00                         15637  1 01-ATTAC +           DC    AL1(0)             SET FLAGS                    @G860PXB
 000AB9 01                         15638  1 01-ATTAC +           DC    AL1(1)             SET UP FORMAT NUMBER         @G860PXB
 000ABA 0000000000000000           15639  1 01-ATTAC +           DC    XL10'00'           RESERVED BYTES FOR FUTURE    @G860PXB
1VDMP     (VDMP21) (09:46) (22MAR04) ORVYL's File System Dump Program: Control Blocks                                       Page   48
0D-Loc  Object Code    Addr1 Addr2  Stmt Lv Lineno    Source Statement           (Hibal 5, Asmedit 3.3)  HLASM R4.0  2004/03/22 09.46
+_____  ______ ____    _____ _____  ____ __ ______    ______ _________
0                                  15641  1  922.     IDOFLST    CAMLST NAME,*-*,,IDOFWRK            LOCATE PARAMETER LIST
 000AC4                            15642  1 01-CAMLS +IDOFLST    DS    0F                                ALIGN ON FULL WORD
 000AC4 44                         15643  1 01-CAMLS +           DC    AL1(68)                           THREE BYTES OF FLAGS
 000AC5 00                         15644  1 01-CAMLS +           DC    AL1(0)                            INDICATING THE FUNC-
 000AC6 00                         15645  1 01-CAMLS +           DC    AL1(0)                            TION TO BE PERFORMED
 000AC7 00                         15646  1 01-CAMLS +           DC    AL1(0)                            NO OPTION THREE
 000AC8 00000000                   15647  1 01-CAMLS +           DC    A(*-*)                            PARAMETER TWO
 000ACC 00000000                   15648  1 01-CAMLS +           DC    A(0)                              PARAM. THREE OMMITTED
 000AD0 00000AE4                   15649  1 01-CAMLS +           DC    A(IDOFWRK)                        PARAMETER FOUR
-                                  15651  1  924.     IDOFSCR    CAMLST SCRATCH,*-*,,*-*,,OVRD       SCRATCH PARAMETER LIST
 000AD4                            15652  1 01-CAMLS +IDOFSCR    DS    0F                                ALIGN ON FULL WORD
 000AD4 41                         15653  1 01-CAMLS +           DC    AL1(65)                           THREE BYTES OF FLAGS
 000AD5 00                         15654  1 01-CAMLS +           DC    AL1(0)                            INDICATING THE FUNC-
 000AD6 50                         15655  1 01-CAMLS +           DC    AL1(80)                           TION TO BE PERFORMED
 000AD7 00                         15656  1 01-CAMLS +           DC    AL1(0)                            NO OPTION THREE
 000AD8 00000000                   15657  1 01-CAMLS +           DC    A(*-*)                            PARAMETER TWO
 000ADC 00000000                   15658  1 01-CAMLS +           DC    A(0)                              PARAM. THREE OMMITTED
 000AE0 00000000                   15659  1 01-CAMLS +           DC    A(*-*)                            PARAMETER FOUR
-000AE4 F0F0F0F0F0F0F0F0           15661  1  926.     IDOFWRK    DC    265C'00'                      WORK AREA FOR LOCATE
0000CF6                00CF6 00CF6 15664     929.              END   ,
1VDMP     (VDMP21) (09:46) (22MAR04) ORVYL's File System Dump Program: Control Blocks                                       Page   49
0Loc    Object Code    Addr1 Addr2  Stmt Lv Lineno    Source Statement           (Hibal 5, Asmedit 3.3)  HLASM R4.0  2004/03/22 09.46
+___    ______ ____    _____ _____  ____ __ ______    ______ _________
0                                  15674     930.1    ********************************************************************
                                   15675     931.     *                                                                  *
                                   15676     932.     *  Define control section entry points for ESTAE routine           *
                                   15677     933.     *                                                                  *
                                   15678     933.1    ********************************************************************
-000543                00543 0B848 15680     935.              DATA  BEGIN
0000543 E5C4D4D700000000           15686  1  936.     VSECT      DC    CL4'VDMP',V(VDMP)   Filedump main code
 00054C E5E2C3D500000000           15687  1  938.                DC    CL4'VSCN',V(VSCN)   Scanner routine
 000554 E5C3D94000000000           15688  1  939.                DC    CL4'VCR ',V(VCR)    Conversion routines
                                   15689  1  940.     VSECT#     EQU   (*-VSECT)/8         Number of control sections
-00055C 402020206B202020           15691  1  940.04   EDMSK      DC    X'402020206B2020206B2020206B2020206B202120'
0000015                00000 0B848 15693     941.              END   ,
1VDMP     (VDMP21) (09:46) (22MAR04) ORVYL's File System Dump Program: Initialization                                       Page   50
0Loc    Object Code    Addr1 Addr2  Stmt Lv Lineno    Source Statement           (Hibal 5, Asmedit 3.3)  HLASM R4.0  2004/03/22 09.46
+___    ______ ____    _____ _____  ____ __ ______    ______ _________
0                                  15700     943.     ********************************************************************
                                   15701     944.     ********************************************************************
                                   15702     945.     ********************************************************************
                                   15703     946.     *****                                                          *****
                                   15704     947.     *****                                                          *****
                                   15705     948.     *****                                                          *****
                                   15706     949.     *****                                                          *****
                                   15707     950.     *****          DUMP - Entry point for dump program             *****
                                   15708     951.     *****                                                          *****
                                   15709     952.     *****                                                          *****
                                   15710     953.     *****                                                          *****
                                   15711     954.     *****                                                          *****
                                   15712     955.     ********************************************************************
                                   15713     956.     ********************************************************************
                                   15714     957.     ********************************************************************
-
 000015                00000 0B848 15718     959.     VDMP     CSECT ,                   Continue VDMP control section
                                   15720     960.              ENTRY DUMP                Declare dump entry point
 000015 00
 000016 90EC D00C            0000C 15721     961.     DUMP     STM   R14,R12,@R13+12     Save calling registers
 00001A 186F                       15722     962.              LR    BRR,R15               Move entry address for base
 USING  DUMP,R6                    15723     963.              USING DUMP,BRR                ## Provide routine addr
 00001C 1841                       15732     964.              LR    R4,R1                     Save parmater pointer
000001E 1BBB                       15734     966.              CLEAR SWR                 Clear subtask work address
                                   15738     967.   C          GETMAIN RC,LV=L'DWA,      Request memory for dynamic core
 000020 47F0 6016/0000_      0002C           968.                    BNDRY=PAGE
 000038 12FF/4780 6032             15752     969.              IF    (R15,NZ),BEGIN      Test GETMAIN return code
 00003E 98EC D00C            0000C 15766  1  970.                LM    R14,R12,@R13+12     Restore registers
 000042 41F0 0020            00020 15767  1  971.                LA    R15,NO_MEM          Set no memory return code
 000046 07FE                       15768  1  972.                BR    R14                 Return to system
 000048                            15769     973.              END   ,
 000048 18C1                       15773     974.              LR    DWR,R1              Copy dynamic work area address
 USING  DWA,R12                    15774     975.              USING DWA,DWR             ## Declare addressability
 00004A 1821                       15783     976.              LR    SR,R1               Copy address of dynamic work area
 00004C 4130 0CF6            00CF6 15784     977.              LA    TR,L'DWA              Length of dynamic work area
 000050 1B11                       15785     978.              CLEAR R1                      Zeroed from address
 000052 0E20                       15789     979.              MVCL  SR,R0                     Clear work core
 000054 D20B C004 646A 00004 00480 15790     980.              MVC   DWANAME(3*4),=3CL4'DWA '    Set eye-catcher
 00005A 50D0 C054            00054 15791     981.              ST    R13,VSSAVE          Save address of VS save area
                                   15792     982.1             ¿þþþþþþþþþþþþþþþþþþþþþþþþþþþþþþþþþþþþþþþþþþþÜ
                                   15793     982.2             Ÿ  Acquire storage for FILEDUMP save stack  Ÿ
                                   15794     982.3             ¾þþþþþþþþþþþþþþþþþþþþþþþþþþþþþþþþþþþþþþþþþþþ»
 00005E 0700/47F0 6056_            15795     982.4             STORAGE OBTAIN,LENGTH=SVSTCKSZ,BNDRY=PAGE,COND=YES
 000084 12FF/4780 607E             15811     982.5             IF    (R15,NZ),BEGIN      Insufficient storage for stack
 00008A 98EC D00C            0000C 15825  1  982.51              LM    R14,R12,@R13+12     Restore registers
 00008E 41F0 0020            00020 15826  1  982.52              LA    R15,NO_MEM          Set no memory return code
 000092 07FE                       15827  1  982.53              BR    R14                 Return to system
 000094                            15828     982.6             END   ,
 000094 18D1                       15832     982.7             LR    R13,R1              Move for stack pointer
 000096 50D0 C064            00064 15833     982.8             ST    R13,SVA             Remember location of stack
 00009A 5040 C048            00048 15834     983.              ST    R4,PARMPTR          Tuck parm pointer away
1VDMP     (VDMP21) (09:46) (22MAR04) ORVYL's File System Dump Program: Initialization                                       Page   51
0Current Usings:  (DUMP,R6) (DWA,R12)
0Loc    Object Code    Addr1 Addr2  Stmt Lv Lineno    Source Statement           (Hibal 5, Asmedit 3.3)  HLASM R4.0  2004/03/22 09.46
+___    ______ ____    _____ _____  ____ __ ______    ______ _________
0                                  15836     985.     ********************************************************************
                                   15837     986.     *                                                                  *
                                   15838     987.     *  Call FILEDUMP main code initialization subroutine               *
                                   15839     988.     *                                                                  *
                                   15840     988.1    ********************************************************************
                                   15841     988.2    *                                                                  *
                                   15842     989.     *   1.  Initialize dynamic allocation control blocks               *
                                   15843     989.1    *                                                                  *
                                   15844     990.     *   2.  Report starting time/date of run                           *
                                   15845     990.1    *                                                                  *
                                   15846     991.     *   3.  Establish an extended stae environment                     *
                                   15847     991.1    *                                                                  *
                                   15848     992.     *   4.  Create control section list for debugging trace routines   *
                                   15849     992.1    *                                                                  *
                                   15850     993.     *   5.  Scan exec field parameter options                          *
                                   15851     994.     *                                                                  *
                                   15852     995.     *                                                                  *
                                   15853     996.     ********************************************************************
-
 00009E 5890 6476/0D99       0048C 15855     998.              ACALL INIT                Enter FILEDUMP initialization
1VDMP     (VDMP21) (09:46) (22MAR04) ORVYL's File System Dump Program: Initialization                                       Page   52
0Current Usings:  (DUMP,R6) (DWA,R12)
0Loc    Object Code    Addr1 Addr2  Stmt Lv Lineno    Source Statement           (Hibal 5, Asmedit 3.3)  HLASM R4.0  2004/03/22 09.46
+___    ______ ____    _____ _____  ____ __ ______    ______ _________
0                                  15860    1000.     ********************************************************************
                                   15861    1001.     *                                                                  *
                                   15862    1002.     **  Branch off using function vector                               *
                                   15863    1003.     *                                                                  *
                                   15864    1004.     ********************************************************************
00000A4 D503 C110 647A 00110 00490 15866    1006.              CLC   FNCVECT,=A(ENDVECT-VECTOR)  Validity check
 0000AA 4740 60B4            000CA 15867    1007.              IF    NL,BEGIN            Program logic error
 0000AE 4110 64B0/4100_      004C6 15878  1 1008.                VSEG  'VDMP999S - (2) Severe program logic error'
 0000BC 5890 6482/0D99       00498 15887  1 1009.                VWRITE ,                  Write to report file
 0000C2 922C C05B      0005B       15892  1 1010.                MVI   RETCODE+3,SYS_BAD   Set return code
 0000C6 47F0 60DA            000F0 15893  1 1011.                B     DUMPEXIT            And return
 0000CA                            15894    1012.              END   ,
 0000CA 41F0 60C2            000D8 15898    1013.              LA    R15,VECTOR          Set function vector address
 0000CE 5EF0 C110            00110 15899    1014.              AL    R15,FNCVECT           Plus function offset
 0000D2 58F0 F000            00000 15900    1015.              L     R15,@R15                Set function routine address
 0000D6 07FF                       15901    1016.              BR    R15                       Off to the proper routine
00000D8                            15903    1018.              DC    0A(0)               Force alignment
 0000D8                            15904    1019.     VECTOR   LABEL ,                   Routine address vector
 0000D8 00000746                   15906    1020.              DC    A(DUMPFNC)              Dump and Incremental
 0000DC 00000746                   15907    1021.              DC    A(READFNC)              Readback
 0000E0 0000A47A                   15908    1022.              DC    A(LISTFNC)              List history file
 0000E4 0000A47A                   15909    1023.              DC    A(FORMFNC)              Format history file
 0000E8 0000847A                   15910    1024.              DC    A(OFFLFNC)              Offload incremental data
 0000EC 0000A47A                   15911    1024.1             DC    A(CLENFNC)              Data set cleanup
                                   15912    1025.     ENDVECT  EQU   *                   Declare end of vector list
1VDMP     (VDMP21) (09:46) (22MAR04) ORVYL's File System Dump Program: Common routines                                      Page   53
0Current Usings:  (DUMP,R6) (DWA,R12)
0Loc    Object Code    Addr1 Addr2  Stmt Lv Lineno    Source Statement           (Hibal 5, Asmedit 3.3)  HLASM R4.0  2004/03/22 09.46
+___    ______ ____    _____ _____  ____ __ ______    ______ _________
0                                  15914    1026.51   ********************************************************************
                                   15915    1026.52   *                                                                  *
                                   15916    1026.53   *        The following routines reside in the VDMP common area.    *
                                   15917    1026.54   *        The routines are addressable throughout the dump          *
                                   15918    1026.55   *        routines.                                                 *
                                   15919    1026.56   *                                                                  *
                                   15920    1026.57   *        Code addressability is through register BRR.              *
                                   15921    1026.58   *                                                                  *
                                   15922    1026.59   *                                                                  *
                                   15923    1026.6    ********************************************************************
-
                                   15925    1027.     ********************************************************************
                                   15926    1028.     *                                                                  *
                                   15927    1029.     ** Release resources and return                                    *
                                   15928    1030.     *                                                                  *
                                   15929    1031.     ********************************************************************
-0000F0                            15931    1033.     DUMPEXIT LABEL ,
 0000F0 5870 6486            0049C 15933    1034.              L     BR,=A(MAINEXIT)     Address for dump/readback exit
 0000F4 07F7                       15934    1035.              BR    BR                  Enter cleanup code
-                                  15936    1037.02   ********************************************************************
                                   15937    1037.03   *                                                                  *
                                   15938    1037.04   *  Function has not been implemented at this time                  *
                                   15939    1037.05   *                                                                  *
                                   15940    1037.06   ********************************************************************
-0000F6                            15942    1037.08   NOFNC    LABEL ,
 0000F6 4110 64D9/4100_      004EF 15944    1037.09            VSEG  'VDMP998S - Function not yet implemented, sorry.'
 000104 5890 6482/0D99       00498 15953    1037.1             VWRITE ,                  Output error message
 00010A 922C C05B      0005B       15958    1037.11            MVI   RETCODE+3,SYS_BAD   Set return code
 00010E 47F0 60DA            000F0 15959    1037.12            B     DUMPEXIT            Return empty handed
1VDMP     (VDMP21) (09:46) (22MAR04) ORVYL's File System Dump Program: Common routines                                      Page   54
0Current Usings:  (DUMP,R6) (DWA,R12)
0Loc    Object Code    Addr1 Addr2  Stmt Lv Lineno    Source Statement           (Hibal 5, Asmedit 3.3)  HLASM R4.0  2004/03/22 09.46
+___    ______ ____    _____ _____  ____ __ ______    ______ _________
0                                  15961    1037.4    ********************************************************************
                                   15962    1037.6    *                                                                  *
                                   15963    1041.     ** Initialize common areas in DCB                                  *
                                   15964    1042.     *                                                                  *
                                   15965    1043.     ********************************************************************
0000112                            15967    1045.     DCBINIT  LABEL ,
 USING  IHADCB,R1                  15969    1046.              WITH  (IHADCB,R1),BEGIN   Addressability to the DCB
 000112 9201 1017      00017       15983  1 1047.                MVI   DCBBUFCB+3,1        Set buffer control block address
 000116 9201 101F      0001F       15984  1 1048.                MVI   DCBIOBAD+3,1        Set IOB address
 00011A 9201 1023      00023       15985  1 1049.                MVI   DCBEODAD+3,1        Set EODAD address
 00011E 9201 1037      00037       15986  1 1050.                MVI   DCBCHECK+3,1        Set check module address
 000122 9201 103B      0003B       15987  1 1051.                MVI   DCBSYNAD+3,1        Indicate no SYNAD routine
 000126 9201 1047      00047       15988  1 1052.                MVI   DCBIOBA+3,1         ?? who knows
 00012A 9201 104F      0004F       15989  1 1053.                MVI   DCBRECAD+3,1        Address of next record
 00012E 9602 1030      00030       15990  1 1054.                SET   DCBOFLGS.DCBOFUEX   Set OFLGS to not open
 DROP   IHADCB,R1                  15997    1055.              END   ,
 000132 07F9                       16005    1056.              BR    RAR                 Return to caller
-                                  16007    1057.01   ********************************************************************
                                   16008    1057.02   *                                                                  *
                                   16009    1057.03   *  Release DCB buffer pool                                         *
                                   16010    1057.04   *                                                                  *
                                   16011    1057.05   ********************************************************************
0000134                            16013    1057.07   FREPOOL  LABEL ,                   Release dcb buffer pool
                                   16016    1057.09            FREEPOOL (1)              Release passed dcb buffer pool
 000134 9101 1017      00017       16018    01-FREEP +         TM    23(1),1                 IS BUFCB ALREADY FREED    @L1A
 000138 4710 6168            0017E 16019    01-FREEP +         BO    IHB0652                 IF SO, NO FREEMAIN        @L1A
 00013C 1FFF                       16020    01-FREEP +         SLR   15,15                                             @L1A
 00013E BFF7 1015            00015 16021    01-FREEP +         ICM   15,7,21(1)              LOAD BUFCB ADDRESS        @L1C
 000142 58E0 F000            00000 16022    01-FREEP +         L     14,0(,15)               GET 1ST WORD OF BUFCB     @04A
 000146 12EE                       16023    01-FREEP +         LTR   14,14                   1ST BUFFER ADDR ZERO ?    @04A
 000148 4770 613E            00154 16024    01-FREEP +         BNZ   *+12                    NO, BR TO DO FREEMAIN     @04A
 00014C 9130 F004      00004       16025    01-FREEP +         TM    4(15),X'30'             CAN MACRO DO FREEING?     @L3C
 000150 4770 6168            0017E 16026    01-FREEP +         BNZ   IHB0652                 NO,  BR TO BYPASS FREE    @L3C
 000154 9601 1017      00017       16027    01-FREEP +         OI    23(1),1                 INDICATE NO BUFCB ADDR
 000158 1BEE                       16028    01-FREEP +         SR    14,14                   CLEAR REGISTER
 00015A 1B11                       16029    01-FREEP +         SR    1,1                     CLEAR REGISTER            @01A
 00015C BF13 F006            00006 16030    01-FREEP +         ICM   1,3,6(15)               LOAD LENGTH OF BUFFERS    @02C
 000160 43E0 F005            00005 16031    01-FREEP +         IC    14,5(0,15)              NUMBER OF BUFFERS         @01A
 000164 1C0E                       16032    01-FREEP +         MR    0,14                    AREA TO BE FREED          @01A
 000166 4110 1008            00008 16033    01-FREEP +         LA    1,8(0,1)                ACCOUNT FOR BCB           @02C
 00016A 9140 F004      00004       16034    01-FREEP +         TM    4(15),X'40'             IS BUFCB 16 BYTES       @ZA19719
 00016E 47E0 6160            00176 16035    01-FREEP +         BNO   *+8                     BRANCH IF BUFCB = 8 BYTES
 000172 4110 1008            00008 16036    01-FREEP +         LA    1,8(0,1)                ADJUST SIZE PLUS 8 BYTES   @03C
 000176 1801                       16037    01-FREEP +         LR    0,1                     LOAD LENGTH OF FREEMAIN    @02A
 000178 4110 F000            00000 16038    01-FREEP +         LA    1,0(0,15)               LOAD AREA ADDRESS
 00017C 0A0A                       16039    01-FREEP +         SVC   10                      ISSUE FREEMAIN SVC
 00017E                            16040    01-FREEP +IHB0652    DS    0H                                              @L1A
 00017E 07F9                       16041    1057.1             BR    RAR                 And return to caller
1VDMP     (VDMP21) (09:46) (22MAR04) ORVYL's File System Dump Program: Common routines                                      Page   55
0Current Usings:  (DUMP,R6) (DWA,R12)
0Loc    Object Code    Addr1 Addr2  Stmt Lv Lineno    Source Statement           (Hibal 5, Asmedit 3.3)  HLASM R4.0  2004/03/22 09.46
+___    ______ ____    _____ _____  ____ __ ______    ______ _________
0                                  16044    1058.     ********************************************************************
                                   16045    1059.     *                                                                  *
                                   16046    1060.     *  Trim trailing blanks from a character string                    *
                                   16047    1061.     *                                                                  *
                                   16048    1062.     ********************************************************************
0000180                            16050    1064.     RTRIM    LABEL ,                   Right trim character string
 000180 1200/0789                  16052    1065.              IF    (R0,Z),RAR          Just return if length is zero
 000184 5020 D000/41D0_      00000 16069    1066.              VPUSH SR,,*               Save work register
 00018C 1821                       16072    1067.              LR    SR,R1               Copy address of string start
 00018E 1E20                       16073    1068.              ALR   SR,R0               Set address of end of string +1
 000190 5B20 648A            004A0 16074    1069.              S     SR,=A(1)            Point to last character
 000194                            16075    1070.              LOOP  BEGIN               Find first non-blank character
 000194 9540 2000      00000       16081  1 1071.                CLI   @SR,C' '            Any blank there?
 000198 4770 6192            001A8 16082  1 1072.                IF    NE,EXIT             Exit loop if non-balnk
 00019C 5F20 648A            004A0 16096  1 1073.                SL    SR,=A(1)            Decrement compare address
 0001A0 5B00 648A            004A0 16097  1 1074.                S     R0,=A(1)            Decrement string length
 0001A4 4770 617E            00194 16098    1075.              UNTIL Z,END               Loop back to check next character
 0001A8 4BD0 64A2/5820_      004B8 16117    1076.              VPOP  SR,,*               Restore registers
 0001B0 07F9                       16120    1077.              BR    RAR                 And return
1VDMP     (VDMP21) (09:46) (22MAR04) ORVYL's File System Dump Program: Common routines                                      Page   56
0Current Usings:  (DUMP,R6) (DWA,R12)
0Loc    Object Code    Addr1 Addr2  Stmt Lv Lineno    Source Statement           (Hibal 5, Asmedit 3.3)  HLASM R4.0  2004/03/22 09.46
+___    ______ ____    _____ _____  ____ __ ______    ______ _________
0                                  16122    1077.11   ********************************************************************
                                   16123    1077.12   *                                                                  *
                                   16124    1077.13   *  ENTER/EXIT 370/XA ADDRESSING MODES                              *
                                   16125    1077.14   *                                                                  *
                                   16126    1077.15   ********************************************************************
00001B2                            16128    1077.17   AMODE31  LABEL ,                   Enter addressing mode 31
 0001B2 5690 648E            004A4 16130    1077.18            O     RAR,=A(X'80000000')   Set amode bit
 0001B6 0B09                       16131    1077.19            BSM   0,RAR                   Return with addressing mode set
00001B8                            16133    1077.21   AMODE24  LABEL ,                   Enter addressing mode 24
 0001B8 5490 6492            004A8 16135    1077.22            N     RAR,=A(X'7FFFFFFF')   Clear amode 31 bit
 0001BC 0B09                       16136    1077.23            BSM   0,RAR                   Return with addressing mode set
1VDMP     (VDMP21) (09:46) (22MAR04) ORVYL's File System Dump Program: Common routines                                      Page   57
0Current Usings:  (DUMP,R6) (DWA,R12)
0Loc    Object Code    Addr1 Addr2  Stmt Lv Lineno    Source Statement           (Hibal 5, Asmedit 3.3)  HLASM R4.0  2004/03/22 09.46
+___    ______ ____    _____ _____  ____ __ ______    ______ _________
0                                  16138    1079.     ********************************************************************
                                   16139    1080.     *                                                                  *
                                   16140    1081.     *  Enqueue-Dequeue routines for SUBTASK and SUBPARM control blocks *
                                   16141    1082.     *                                                                  *
                                   16142    1083.     ********************************************************************
00001BE                            16144    1085.     ENQB     LABEL ,
 0001BE 9029 D000/41D0_      00000 16146    1086.              VPUSH SR,RAR,*            Enter and save calling registers
 0001C6 1820                       16149    1087.              LR    SR,R0               Save anchor address
 0001C8 5020 1004            00004 16150    1088.              ST    SR,@R1+4            Set back chain in current block
 0001CC D203 1000 2000 00000 00000 16151    1089.              MVC   @R1(4),@SR          Set forward chain, if any
 0001D2 5830 1000/1233       00000 16152    1090.              LT    TR,@R1              Any blocks after me in the chain?
 0001D8 4780 61CA            001E0 16156    1091.              IF    NZ,BEGIN            Yep - adjust their back chain
 0001DC 5010 3004            00004 16167  1 1092.                ST    R1,@TR+4            With my address
 0001E0                            16168    1093.              END   ,
 0001E0 5010 2000            00000 16172    1094.              ST    R1,@SR              Reset with new anchor address
 0001E4 4BD0 64A4/9829_      004BA 16173    1095.              VPOP  SR,RAR,*            Restore calling registers
 0001EC 07F9                       16176    1096.              BR    RAR                 And return to caller
-0001EE                            16178    1098.     DEQB     LABEL ,
 0001EE 9029 D000/41D0_      00000 16180    1099.              VPUSH SR,RAR,*            Enter and save calling registers
 0001F6 5830 1000            00000 16183    1100.              L     TR,@R1              Current block forward pointer
 0001FA 5840 1004            00004 16184    1101.              L     R4,@R1+4            Current block back pointer
 0001FE 5030 4000            00000 16185    1102.              ST    R3,@R4              Move my forward pointer back
 000202 1233/4780 61F6             16186    1103.              IF    (R3,NZ),BEGIN       Is my forward pointer valid?
 000208 5040 3004            00004 16200  1 1104.                ST    R4,@R3+4            Yep - link next to my previous
 00020C                            16201    1105.              END   ,
 00020C D707 1000 1000 00000 00000 16205    1106.              XC    @R1(8),@R1          Initialize my pointers to zero
 000212 4BD0 64A4/9829_      004BA 16206    1107.              VPOP  SR,RAR,*            Restore calling registers
 00021A 07F9                       16209    1108.              BR    RAR                 And return to caller
1VDMP     (VDMP21) (09:46) (22MAR04) ORVYL's File System Dump Program: Common routines                                      Page   58
0Current Usings:  (DUMP,R6) (DWA,R12)
0Loc    Object Code    Addr1 Addr2  Stmt Lv Lineno    Source Statement           (Hibal 5, Asmedit 3.3)  HLASM R4.0  2004/03/22 09.46
+___    ______ ____    _____ _____  ____ __ ______    ______ _________
0                                  16211    1108.1    ********************************************************************
                                   16212    1108.2    *                                                                  *
                                   16213    1108.21   *  Set maximum return code for FILEDUMP program
                                   16214    1108.3    *                                                                  *
                                   16215    1108.4    ********************************************************************
-00021C                            16217    1108.6    SETRETC  LABEL ,
 00021C 59F0 C058/47D0_      00058 16219    1108.7             IF    (R15,GT,RETCODE),BEGIN
 000224 50F0 C058            00058 16236  1 1108.8               ST    R15,RETCODE         SET MAXIMUM RETURN CODE
 000228                            16237    1108.9             END   ,
 000228 07F9                       16241    1108.91            BR    RAR                 Return to caller
1VDMP     (VDMP21) (09:46) (22MAR04) ORVYL's File System Dump Program: Common routines                                      Page   59
0Current Usings:  (DUMP,R6) (DWA,R12)
0Loc    Object Code    Addr1 Addr2  Stmt Lv Lineno    Source Statement           (Hibal 5, Asmedit 3.3)  HLASM R4.0  2004/03/22 09.46
+___    ______ ____    _____ _____  ____ __ ______    ______ _________
0                                  16243    1110.     ********************************************************************
                                   16244    1111.     *                                                                  *
                                   16245    1112.     *  Add completed subparameter block to the complete queue          *
                                   16246    1113.     *                                                                  *
                                   16247    1114.     ********************************************************************
-00022A                            16249    1116.     QUESUB   LABEL ,
 00022A 5090 D000/41D0_      00000 16251    1117.              VPUSH RAR,,*              Save return register
 USING  SUBPARM,R3                 16254    1118.              USING SUBPARM,TR          ## addressability to head elemnt
 000232 1222/4780 6256             16263    1119.              WHILE (SR,NZ),BEGIN       Look for insert point
 000238 5800 3000/1200       00000 16279  1 1120.                LT    R0,SUBFWD           Empty or last element?
 00023E 4770 6236            0024C 16283  1 1121.                IF    Z,BEGIN             Yes - queue current to end
 000242 5020 3000            00000 16294  2 1122.                  ST    SR,SUBFWD           Chain to end
 000246 5030 2004            00004 16295  2 1123.                  ST    TR,SUBBCK-SUBPARM(,SR)
 00024A 1B22                       16296  2 1124.                  CLEAR SR                  Indicate function completed
 00024C 623A/47F0 6252 0024C 00240 16300  1 1125.                END   ELSE,BEGIN          Check for insertion point
 000250 1803                       16315  2 1126.                  LR    R0,TR               Save anchor address
 000252 5830 3000            00000 16316  2 1127.                  L     TR,SUBFWD           Set record or something
 000256 D501 3051 2051 00051 00051 16317  2 1128.                  CLC   SUBSEG,SUBSEG-SUBPARM(SR)
 00025C 47D0 6252            00268 16318  2 1129.                  IF    GT,BEGIN            Found insertion point
 000260 1812                       16329  3 1130.                    LR    R1,SR               Copy current block address
 000262 4D90 61A8            001BE 16330  3 1131.                    LCALL ENQB                Add to queue
 000266 1B22                       16332  3 1132.                    CLEAR SR                  Indicate function complete
 000268                            16336  2 1133.                  END   ,
 000268                            16340  1 1134.                END   ,
 000268 47F0 621C            00232 16344    1135.              END   ,                   Loop until subparm added
 00026C 4BD0 64A2/5890_      004B8 16349    1136.              VPOP  RAR,,*              Restore return register
 000274 07F9                       16352    1137.              BR    RAR                 Return to caller
0DROP   SUBPARM,R3                 16354    1139.              DROP  TR                  ## release subparm block
1VDMP     (VDMP21) (09:46) (22MAR04) ORVYL's File System Dump Program: Common routines                                      Page   60
0Current Usings:  (DUMP,R6) (DWA,R12)
0Loc    Object Code    Addr1 Addr2  Stmt Lv Lineno    Source Statement           (Hibal 5, Asmedit 3.3)  HLASM R4.0  2004/03/22 09.46
+___    ______ ____    _____ _____  ____ __ ______    ______ _________
0                                  16362    1141.     ********************************************************************
                                   16363    1142.     *                                                                  *
                                   16364    1143.     *  Compute I/O rate subroutine                                     *
                                   16365    1144.     *                                                                  *
                                   16366    1145.     *    Entry parameters:                                             *
                                   16367    1146.     *        (R0,R1):  Register pair containing ending time            *
                                   16368    1147.     *        (SR,TR):  Register pair containing starting time          *
                                   16369    1148.     *            R15:  Register containg the count of operations       *
                                   16370    1149.     *            RAR:  Linkage register                                *
                                   16371    1150.     *                                                                  *
                                   16372    1151.     *    Exit Conditions:                                              *
                                   16373    1152.     *            R15:  Contains operations/sec in .01 units            *
                                   16374    1153.     *                                                                  *
                                   16375    1154.     *    Work Registers:  This routine uses (R0,R1,SR,TR,R14,R15) and  *
                                   16376    1155.     *                     the stack register (R13) for work areas.     *
                                   16377    1156.     *                                                                  *
                                   16378    1157.     ********************************************************************
-000276                            16380    1159.     RATECOMP LABEL ,
 000276 12FF/4780 6284             16382    1160.              IF    (R15,NZ),BEGIN      Prevent divide exception
 00027C 1F13/47B0 626E_            16396  1 1161.                SDLR  R0,SR               Elapsed time for filedump job
 000286 8E00 000C            0000C 16403  1 1162.                SRDA  R0,12               Convert time for micro-seconds
 00028A 5D00 6496            004AC 16404  1 1163.                D     R0,=A(10000)        Convert time to centi-seconds
 00028E 5010 D000            00000 16405  1 1164.                ST    R1,@R13             Save total elapsed time for job
 000292 5CE0 6496            004AC 16406  1 1165.                M     R14,=A(10000)       Adjust for division
 000296 5DE0 D000            00000 16407  1 1166.                D     R14,@R13            Compute operations/centi-second
 00029A 6288/47F0 628A_0029A 0027A 16408    1167.              END   ELSE,'CLEAR R15'    Set to zero if no operations
 0002A0 07F9                       16432    1168.              BR    RAR                 Return to caller
1VDMP     (VDMP21) (09:46) (22MAR04) ORVYL's File System Dump Program: Common routines                                      Page   61
0Current Usings:  (DUMP,R6) (DWA,R12)
0Loc    Object Code    Addr1 Addr2  Stmt Lv Lineno    Source Statement           (Hibal 5, Asmedit 3.3)  HLASM R4.0  2004/03/22 09.46
+___    ______ ____    _____ _____  ____ __ ______    ______ _________
0                                  16434    1170.     ********************************************************************
                                   16435    1171.     *                                                                  *
                                   16436    1172.     *  GETLOCK Subroutines for task syncronization                     *
                                   16437    1173.     *                                                                  *
                                   16438    1173.1    ********************************************************************
                                   16439    1173.2    *                                                                  *
                                   16440    1174.     *        R15  Contains the address of the lock control words       *
                                   16441    1175.     *                                                                  *
                                   16442    1176.     *             GETLOCK destroys the contents of registers           *
                                   16443    1177.     *             R0, R1, and R14.                                     *
                                   16444    1178.     *                                                                  *
                                   16445    1179.     ********************************************************************
-0002A2                            16447    1181.     GETLOCK  LABEL ,                   Get lock subroutine
 0002A2 9024 D000/41D0_      00000 16449    1182.              VPUSH SR,QR,*             Save calling registers
 0002AA 184F                       16452    1183.              LR    QR,R15              Copy and save address of lockwords
 0002AC 58E0 0010            00010 16453    1184.              L     R14,16              Address of the cvt
 0002B0 58E0 E000            00000 16454    1185.              L     R14,@R14              address of tcb double words
 0002B4 58E0 E004            00004 16455    1186.              L     R14,@R14+4              address of current tcb
 0002B8 59E0 F000/4770_      00000 16456    1187.              IF    (R14,EQ,@R15),BEGIN Check for duplicate request lock
 0002C0 4110 03F1/4100_      003F1 16473  1 1188.                ABEND 1009,DUMP,STEP
 0002D0                            16482    1189.              END   ,
00002D0                            16487    1191.              LOOP  BEGIN               Loop until lock is obtained
 0002D0 1B00                       16493  1 1192.                CLEAR R0                  Assume the lock will be free
 0002D2 5810 4004            00004 16497  1 1193.                L     R1,@QR+4            Set possible ecb pointer
 0002D6 182E                       16498  1 1194.                LR    SR,R14              Set my tcb address
 0002D8 1831                       16499  1 1195.                LR    TR,R1               Copy possible ecb pointer
 0002DA BB02 4000            00000 16500  1 1196.                CDS   R0,SR,@QR           Try and get the lock
 0002DE 4780 6302            00318 16501  1 1197.                IF    NZ,BEGIN            Lock is currently unavailable
 0002E2 5820 4008            00008 16512  2 1198.                  L     SR,@QR+8            Load lock unavailable counter
 0002E6                            16513  2 1199.                  LOOP  BEGIN               Update unavailable counter
 0002E6 1832                       16519  3 1200.                    LR    TR,SR               Copy counter value
 0002E8 5A30 648A            004A0 16520  3 1201.                    A     TR,=A(1)            Update counter value
 0002EC BA23 4008            00008 16521  3 1202.                    CS    SR,TR,@QR+8         Conditional replace of counter
 0002F0 4770 62D0            002E6 16522  2 1203.                  UNTIL Z,END               Try again if unnsuccessfull
 0002F4 1820                       16541  2 1204.                  LR    SR,R0               Copy lock holder's tcb address
 0002F6 183D                       16542  2 1205.                  LR    TR,R13              Address of my (ptr,ecb) pair
 0002F8 5010 D000            00000 16543  2 1206.                  ST    R1,@R13             Save possible ecb block pointer
 0002FC D703 D004 D004 00004 00004 16544  2 1207.                  XC    @R13+4(4),@R13+4    Zero ecb control block
 000302 BB02 4000            00000 16545  2 1208.                  CDS   R0,SR,@QR           Attemp to queue myself
 000306 4770 6302            00318 16546  2 1209.                  IF    Z,BEGIN             I'm in -- wait on my ecb
 00030A 4100 0001/4110_      00001 16557  3 1210.                    WAIT  ECB=@R13+4          Wait for lock holder to post me
 000314 9140 D004      00004       16564  3 1211.                    TM    @R13+4,X'40'        Set condition code for loop
 000318                            16565  2 1212.                  END   ,                   Loop back again
 000318                            16569  1 1213.                END   ,
 000318 4770 62BA            002D0 16573    1214.              UNTIL Z,END               Loop until lock is acquired
 00031C 4BD0 64A6/9824_      004BC 16592    1215.              VPOP  SR,QR,*             Restore calling register
 000324 07F9                       16595    1216.              BR    RAR                 And return to the caller
1VDMP     (VDMP21) (09:46) (22MAR04) ORVYL's File System Dump Program: Common routines                                      Page   62
0Current Usings:  (DUMP,R6) (DWA,R12)
0Loc    Object Code    Addr1 Addr2  Stmt Lv Lineno    Source Statement           (Hibal 5, Asmedit 3.3)  HLASM R4.0  2004/03/22 09.46
+___    ______ ____    _____ _____  ____ __ ______    ______ _________
0                                  16597    1218.     ********************************************************************
                                   16598    1219.     *                                                                  *
                                   16599    1220.     *  RELLOCK Subroutines for task syncronization                     *
                                   16600    1221.     *                                                                  *
                                   16601    1222.     *        R15  CONTAINS THE ADDRESS OF THE LOCK CONTROL WORDS       *
                                   16602    1223.     *                                                                  *
                                   16603    1224.     *             Rellock destroys the contents of registers           *
                                   16604    1225.     *             R0, R1, And R14.                                     *
                                   16605    1226.     *                                                                  *
                                   16606    1227.     ********************************************************************
0000326                            16608    1229.     RELLOCK  LABEL ,
 000326 9023 D000/41D0_      00000 16610    1230.              VPUSH SR,TR,*             Save calling registers
 00032E 5810 0010            00010 16613    1231.              L     R1,16               Address of the cvt
 000332 5810 1000            00000 16614    1232.              L     R1,@R1                Address of tcb double words
 000336 5810 1004            00004 16615    1233.              L     R1,@R1+4                Address of the current tcb
 00033A 5910 F000            00000 16616    1234.              C     R1,@R15                   Had better be the holder
 00033E 4780 633C            00352 16617    1235.              IF    NE,BEGIN            Whoops -- lock sync error
 000342 4110 03F2/4100_      003F2 16628  1 1236.                ABEND 1010,DUMP,STEP      Abort in a big way
 000352                            16637    1237.              END   ,
0000352 1B22                       16642    1239.              CLEAR SR                  Zero tcb address
 000354 9801 F000            00000 16646    1240.              LM    R0,R1,@R15          Set lockword pair into (r0,r1)
 000358                            16647    1241.              LOOP  BEGIN               Free the lock loop
 000358 1231                       16653  1 1242.                LTR   TR,R1               Is anybody waiting
 00035A 4780 634C/5830_      00362 16654  1 1243.                IF    NZ,'L TR,@R1'       Yep -- chain to next, if any
 000362 BB02 F000            00000 16671  1 1244.                CDS   R0,SR,@R15          Replace lockword pair
 000366 4770 6342            00358 16672    1245.              UNTIL Z,END               Loop if unsuccessful
000036A 1211/4780 6362             16692    1247.              IF    (R1,NZ),BEGIN       Someone was waiting
 000370 1B00/4110 1004_            16706  1 1248.                POST  @R1+4,0             Post waiting user
 000378                            16712    1249.              END   ,
 000378 4BD0 64A8/9823_      004BE 16716    1250.              VPOP  SR,TR,*             Restore calling registers
 000380 07F9                       16719    1251.              BR    RAR                 And return to caller
1VDMP     (VDMP21) (09:46) (22MAR04) ORVYL's File System Dump Program: Common routines                                      Page   63
0Current Usings:  (DUMP,R6) (DWA,R12)
0Loc    Object Code    Addr1 Addr2  Stmt Lv Lineno    Source Statement           (Hibal 5, Asmedit 3.3)  HLASM R4.0  2004/03/22 09.46
+___    ______ ____    _____ _____  ____ __ ______    ______ _________
0                                  16721    1253.     ********************************************************************
                                   16722    1254.     *                                                                  *
                                   16723    1255.     *  Generate address of HISTORY file I/O buffer                     *
                                   16724    1256.     *                                                                  *
                                   16725    1257.     ********************************************************************
0000382                            16727    1259.     GRADR    LABEL ,
 000382 5B10 648A            004A0 16729    1260.              S     R1,=A(1)            Adjust index
 000386 8910 0002            00002 16730    1261.              SLL   R1,2                  Compute offset value
 00038A 4111 C73C            0073C 16731    1262.              LA    R1,HISTRECA(R1)         Address of pointer value
 00038E 5810 1000            00000 16732    1263.              L     R1,@R1              Address of history i/o workarea
 USING  HISTIO,R1                  16733    1264.              USING HISTIO,R1           ## Addressability to histio
 000392 5810 1004/1211       00004 16742    1265.              LT    R1,HISTADR            Set address of record
 000398 4770 6396/4110_      003AC 16746    1266.              IF    Z,'ABEND 333,DUMP'
 DROP   HISTIO,R1                  16771    1267.              DROP  R1                      ## Release addressability
 0003AC 07F9                       16778    1268.              BR    RAR                 And return to caller
-                                  16780    1270.     ********************************************************************
                                   16781    1271.     *                                                                  *
                                   16782    1272.     *  Initialize HISTORY file I/O buffers                             *
                                   16783    1273.     *                                                                  *
                                   16784    1274.     ********************************************************************
00003AE 5090 D000/41D0_      00000 16786    1276.     HISTINIT VPUSH RAR,,*              Enter and save return register
 0003B6 4110 C73C            0073C 16789    1277.              LA    R1,HISTRECA         Address for record "A"
 0003BA 4D90 63CA            003E0 16790    1278.              LCALL GETHIO              Initialize the area
00003BE 4110 C740            00740 16793    1280.              LA    R1,HISTRECB         Address for record "B"
 0003C2 4D90 63CA            003E0 16794    1281.              LCALL GETHIO              Initialize the area
00003C6 4110 C744            00744 16797    1283.              LA    R1,HISTRECC         Address for record "C"
 0003CA 4D90 63CA            003E0 16798    1284.              LCALL GETHIO              Initialize the area
00003CE 4110 C748            00748 16801    1286.              LA    R1,HISTRECD         Address for record "D"
 0003D2 4D90 63CA            003E0 16802    1287.              LCALL GETHIO              Initialize the area
00003D6 4BD0 64A2/5890_      004B8 16805    1289.              VPOP  RAR,,*              Restore return register
 0003DE 07F9                       16808    1290.              BR    RAR                 And return to caller
1VDMP     (VDMP21) (09:46) (22MAR04) ORVYL's File System Dump Program: Common routines                                      Page   64
0Current Usings:  (DUMP,R6) (DWA,R12)
0Loc    Object Code    Addr1 Addr2  Stmt Lv Lineno    Source Statement           (Hibal 5, Asmedit 3.3)  HLASM R4.0  2004/03/22 09.46
+___    ______ ____    _____ _____  ____ __ ______    ______ _________
0                                  16810    1292.     ********************************************************************
                                   16811    1293.     *                                                                  *
                                   16812    1294.     *  Allocate a HISTORY file I/O buffer                              *
                                   16813    1295.     *                                                                  *
                                   16814    1296.     ********************************************************************
00003E0                            16816    1298.     GETHIO   LABEL ,                   GET AN HIO I/O WORK AREA
 0003E0 1821                       16818    1299.              LR    SR,R1               SAVE POINTER TO BASE
 0003E2 4100 00A8            000A8 16819    1300.              LA    R0,L'HISTIO         LENGTH OF I/O WORK AREA
 0003E6 0700/47F0 63DA_            16820    1301.              GETMAIN RC,LV=(0)         REQUEST MEMORY FOR AREA
 0003F8 12FF/4780 6404             16832    1302.              IF    (R15,NZ),BEGIN      INSUFFICIENT MEMORY
 0003FE 4110 6508/4100_      0051E 16846  1 1303.                VSEG  'VDMP053E - Insufficient memory (HIO).'
 00040C 5890 6482/0D99       00498 16855  1 1304.                VWRITE ,
 000412 9220 C05B      0005B       16860  1 1305.                MVI   RETCODE+3,NO_MEM    SET RETURN CODE
 000416 47F0 60DA            000F0 16861  1 1306.                B     DUMPEXIT            AND RETURN EMPTY HANDED
 00041A                            16862    1307.              END   ,
 00041A 5010 2000            00000 16866    1308.              ST    R1,@SR              SAVE ADDRESS OF AREA
 00041E 1801                       16867    1309.              LR    R0,R1               COPY ADDRESS FOR CLEAR
 000420 4110 00A8            000A8 16868    1310.              LA    R1,L'HISTIO           AND LENGTH OF AREA
 000424 1BFF                       16869    1311.              CLEAR R15                     ZERO FROM LENGTH AND PAD
 000426 0E0E                       16873    1312.              MVCL  R0,R14                    ZERO HISTIO WORK AREA
 000428 5810 2000            00000 16874    1313.              L     R1,@SR              RETRIVE ADDRESS
 00042C D203 1000 649A 00000 004B0 16875    1314.              MVC   @R1(4),=CL4'HIO '   SET EYE-CATCHER IN BLOCK
 000432 07F9                       16876    1315.              BR    RAR                 RETURN TO CALLER
1VDMP     (VDMP21) (09:46) (22MAR04) ORVYL's File System Dump Program: Common routines                                      Page   65
0Current Usings:  (DUMP,R6) (DWA,R12)
0Loc    Object Code    Addr1 Addr2  Stmt Lv Lineno    Source Statement           (Hibal 5, Asmedit 3.3)  HLASM R4.0  2004/03/22 09.46
+___    ______ ____    _____ _____  ____ __ ______    ______ _________
0                                  16878    1317.     ********************************************************************
                                   16879    1318.     *                                                                  *
                                   16880    1319.     **  Dynamic allocation routine for SYSOUT=$ class DD cards         *
                                   16881    1320.     *                                                                  *
                                   16882    1321.     ********************************************************************
0000434                            16884    1323.     DYNPRT   LABEL ,
 000434 9029 D000/41D0_      00000 16886    1324.              VPUSH SR,RAR,*            Save calling registers
 00043C 4130 C3B8            003B8 16889    1325.              LA    TR,SDYNPRM          Address of SVC99 request block
 USING  S99RB,R3                   16890    1326.              USING S99RB,TR            ## Addressability to req block
 000440 D205 C3D4 64AA 003D4 004C0 16899    1327.              MVC   SOUTDD(6),=AL2(DALDDNAM,1,8)
 000446 D203 C3E2 649E 003E2 004B4 16900    1328.              MVC   SOUTOUT(4),=AL2(DALSYSOU,0)
 00044C 4100 C3CC            003CC 16901    1329.              LA    R0,SOUTPTRS         Address of text unit ptr list
 000450 5000 3008            00008 16902    1330.              ST    R0,S99TXTPP         Set into request block
 000454 D207 C3DA 1000 003DA 00000 16903    1331.              MVC   SOUTDDNM,@R1        Set ddname to allocate
 00045A 4100 C3D4            003D4 16904    1332.              LA    R0,SOUTDD           Ddname text unit addres
 00045E 5000 C3CC            003CC 16905    1333.              ST    R0,SOUTPTRS         Set into unit pointer
 000462 4100 C3E2            003E2 16906    1334.              LA    R0,SOUTOUT          Sysout class text unit address
 000466 5000 C3D0            003D0 16907    1335.              ST    R0,SOUTPTRS+4       Set into unit pointer
 00046A 9680 C3D0      003D0       16908    1336.              OI    SOUTPTRS+4,X'80'    Set last text unit indicator
 00046E 4110 C3B4            003B4 16909    1337.              LA    R1,SDYNBLK          Address of request block
 000472 0A63                       16910    1338.              DYNALLOC ,                Issue SVC99 request
 000474 4BD0 64A4/9829_      004BA 16913    1339.              VPOP  SR,RAR,*            Restore registers
 00047C 12FF                       16916    1340.              LTR   R15,R15             Set condition code
 00047E 07F9                       16917    1341.              BR    RAR                 And return to caller
-DROP   S99RB,R3                   16919    1343.              DROP  TR                  ## Release addr to SVC99 RB
1VDMP     (VDMP21) (09:46) (22MAR04) ORVYL's File System Dump Program: Common routines                                      Page   66
0Current Usings:  (DUMP,R6) (DWA,R12)
0Loc    Object Code    Addr1 Addr2  Stmt Lv Lineno    Source Statement           (Hibal 5, Asmedit 3.3)  HLASM R4.0  2004/03/22 09.46
+___    ______ ____    _____ _____  ____ __ ______    ______ _________
0                                  16927    1357.     ¿þþþþþþþþþþþþþþþþþþþþþþþþþþþþþþþþþþþþþþþþþþþþþþþþþþþþþþþþþþþþþþþþþþþþþÜ
                                   16928    1358.     Ÿ                                                                     Ÿ
                                   16929    1359.     Ÿ Define LITERAL pool                                                 Ÿ
                                   16930    1360.     Ÿ                                                                     Ÿ
                                                      ¾þþþþþþþþþþþþþþþþþþþþþþþþþþþþþþþþþþþþþþþþþþþþþþþþþþþþþþþþþþþþþþþþþþþþþ»
-000480                            16932    1363.              LTORG ,
 000480 C4E6C140C4E6C140           16934                             =3CL4'DWA '
 00048C 00003C6E                   16935                             =A(INIT)
 000490 00000018                   16936                             =A(ENDVECT-VECTOR)
 000494 00000000                   16937                             =V(VSEG)
 000498 00000000                   16938                             =V(VWRITE)
 00049C 0000134C                   16939                             =A(MAINEXIT)
 0004A0 00000001                   16940                             =A(1)
 0004A4 80000000                   16941                             =A(X'80000000')
 0004A8 7FFFFFFF                   16942                             =A(X'7FFFFFFF')
 0004AC 00002710                   16943                             =A(10000)
 0004B0 C8C9D640                   16944                             =CL4'HIO '
 0004B4 00180000                   16945                             =AL2(DALSYSOU,0)
 0004B8 0004                       16946                             =Y(4)
 0004BA 0020                       16947                             =Y((RAR+1-(SR)+16*((SR)/(RAR+1))/((SR)/(RAR+1)))*4)
 0004BC 000C                       16948                             =Y((QR+1-(SR)+16*((SR)/(QR+1))/((SR)/(QR+1)))*4)
 0004BE 0008                       16949                             =Y((TR+1-(SR)+16*((SR)/(TR+1))/((SR)/(TR+1)))*4)
 0004C0 000100010008               16950                             =AL2(DALDDNAM,1,8)
 0004C6 E5C4D4D7F9F9F9E2           16951                             =C'VDMP999S - (2) Severe program logic error'
 0004EF E5C4D4D7F9F9F8E2           16952                             =C'VDMP998S - Function not yet implemented, sorry.'
 00051E E5C4D4D7F0F5F3C5           16953                             =C'VDMP053E - Insufficient memory (HIO).'
1VDMP     (VDMP21) (09:46) (22MAR04) ORVYL's File System Dump Program: Scan keywords                                        Page   67
0Current Usings:  (DUMP,R6) (DWA,R12)
0Loc    Object Code    Addr1 Addr2  Stmt Lv Lineno    Source Statement           (Hibal 5, Asmedit 3.3)  HLASM R4.0  2004/03/22 09.46
+___    ______ ____    _____ _____  ____ __ ______    ______ _________
0                                  16958    1365.     ¿þþþþþþþþþþþþþþþþþþþþþþþþþþþþþþþþþþþþþþþþþþþþþþþþþþþþþþþþþþþþþþþþþþþþþÜ
                                   16959    1366.     Ÿ                                                                     Ÿ
                                   16960    1367.     Ÿ   EXEC FIELD Keyword routine tables                                 Ÿ
                                   16961    1368.     Ÿ                                                                     Ÿ
                                                      ¾þþþþþþþþþþþþþþþþþþþþþþþþþþþþþþþþþþþþþþþþþþþþþþþþþþþþþþþþþþþþþþþþþþþþþ»
-000570 CE0044E8E2C5C7D4           16963    1371.     PARMKW   SCKW  SEGMENT,PRMSEG,(A,P,I)        segment number
 00057B 83004516C6C5D6E5           16965    1372.              SCKW  FEOV,PRMFEOV,P                force end of volume
 000583 05004510D5D6C6C5           16967    1373.              SCKW  NOFEOV,PRMNFEOV               no force end of volume
 00058D 8B004302C5E7C9E3           16969    1373.1             SCKW  EXIT,PRMXIT,(A,P)             Callable exit
 000595 0E0042E0E3C1D7C5           16971    1374.              SCKW  TAPECHK,SETTAPC,A             check tape error stats
 0005A0 0F0042E6D5D6E3C1           16973    1375.              SCKW  NOTAPECH,NOTAPCHK,A           don't check tape errors
 0005AC AE0042ECC5C7D3C9           16975    1376.              SCKW  EGLIMIT,SETEG,(A,P,PI)        erase gap limit
 0005B7 AE004322E3E6D3C9           16977    1377.              SCKW  TWLIMIT,SETTW,(A,P,PI)        temporary write limit
 0005C2 0B0043E0D3C9E2E3           16979    1378.              SCKW  LIST,SETLST,A                 list history file
 0005CA 0A0043DAC2C3E5             16981    1378.1             SCKW  BCV,SETFLBCV,A                Set to dump from BCV vols
 0005D1 0D0043EAC6D6D9D4           16983    1379.              SCKW  FORMAT,SETFMT,A               format history file
 0005DB 0E0043FAD6C6C6D3           16985    1380.              SCKW  OFFLOAD,SETOFFL,A             offload incremental data
 0005E6 0C004404C3D3C5C1           16987    1381.1             SCKW  CLEAN,SETCLN,A                cleanup data sets
 0005EF 0B00440EC9D5C3D9           16989    1382.              SCKW  INCR,SETINC,A                 incremental dump
 0005F7 0B004426C4E4D4D7           16991    1383.              SCKW  DUMP,SETDMP,A                 dump function
 0005FF 0B004418C6E4D3D3           16993    1384.              SCKW  FULL,SETFUL,A                 dump with verify
 000607 8B004430C4C1E3C5           16995    1385.              SCKW  DATE,SETDATE,(A,P)            set incremental date
 00060F 8B00448AE3C9D4C5           16997    1386.              SCKW  TIME,SETTIME,(A,P)            set incremental time
 000617 AE004338E3C1E2D2           16999    1388.              SCKW  TASKLVL,SETTASK,(A,P,PI)      Set subtasking level
 000622 AE004378C9D5C3E2           17001    1389.              SCKW  INCSIZE,SETISZE,(A,P,PI)      Set incremental pool size
 00062D AC00438EE3D9C1C3           17003    1390.              SCKW  TRACE,SETTRC,(A,P,PI)
 000636 040043A4C1C2D6D9           17005    1390.01            SCKW  ABORT,SETABORT                abort for testing
 00063F 0C0043CEC4C1C9D3           17007    1390.98            SCKW  DAILY,SETDLY,A                daily incremental merge
 000648 0E0043D4D5D6C4C1           17009    1390.99            SCKW  NODAILY,SETNDLY,A             use base dump
 000653 FF0045B8                   17011    1391.              SCKW  ,PINV
-                                  17014    1392.1    ¿þþþþþþþþþþþþþþþþþþþþþþþþþþþþþþþþþþþþþþþþþþþþþþþþþþþþþþþþþþþþþþþþþþþþþÜ
                                   17015    1392.2    Ÿ                                                                     Ÿ
                                   17016    1392.3    Ÿ  Secondary keywords for formatting the history file                 Ÿ
                                   17017    1392.4    Ÿ                                                                     Ÿ
                                                      ¾þþþþþþþþþþþþþþþþþþþþþþþþþþþþþþþþþþþþþþþþþþþþþþþþþþþþþþþþþþþþþþþþþþþþþ»
0000657 AB0042B4C7C5D5E2           17019    1393.     FKWRT    SCKW  GENS,SETDGEN,(A,P,PI)         Number of full dumps
 00065F AC0042CAC9C7C5D5           17021    1394.              SCKW  IGENS,SETIGEN,(A,P,PI)        Number of incrementals
 000668 8B004294D5C1D4C5           17023    1395.              SCKW  NAME,SETHSTN,(A,P)            File system name
 000670 FF000000                   17025    1396.              SCKW  ,
1VDMP     (VDMP21) (09:46) (22MAR04) ORVYL's File System Dump Program: Recovery ESTAE                                       Page   68
0Current Usings:  (DUMP,R6) (DWA,R12)
0Loc    Object Code    Addr1 Addr2  Stmt Lv Lineno    Source Statement           (Hibal 5, Asmedit 3.3)  HLASM R4.0  2004/03/22 09.46
+___    ______ ____    _____ _____  ____ __ ______    ______ _________
0                                  17028    1398.     ********************************************************************
                                   17029    1399.     *                                                                  *
                                   17030    1400.     *  Define ESTAE recovery routine                                   *
                                   17031    1401.     *                                                                  *
                                   17032    1402.     ********************************************************************
0000674                            17034    1404.     RECROUT  LABEL ,
 USING  RECROUT,R15                17036    1405.              USING RECROUT,R15         ## ESTAE ROUTINE ADDRESSABILITY
 000674 5900 F094/4770_      00708 17045    1406.              IF    (R0,EQ,12),BEGIN    INSUFFICIENT MEMORY TO GET SDWA
 00067C 1BFF                       17062  1 1407.                CLEAR R15                 CONTINUE ABENDING
 00067E 07FE                       17066  1 1408.                BR    R14                 RETURN TO RTM2
 000680                            17067    1409.              END   ,
 DROP   RECROUT,R15                17071    1410.              DROP  R15                 ## RELEASE TEMPORARY ADDRESSABILTY
 000680 90EC D00C            0000C 17078    1411.              STM   R14,R12,@R13+12     SAVE RETURN REGISTERS
 000684 187F                       17079    1412.              LR    BR,R15              COPY ENTRY ADDRESS
 USING  RECROUT,R7                 17080    1413.              USING RECROUT,BR          ## ESTAE ROUTINE ADDRESSABILITY
 000686 1851                       17089    1414.              LR    RR,R1               SET SDWA ADDRESS
 USING  SDWA,R5                    17090    1415.              USING SDWA,RR             ## ADDRESSABILITY TO SDWA
 000688 188D                       17099    1416.              LR    WAR,R13             SAVE ESTAE ROUTINE SAVE ADDRESSS
 00068A 5860 7080            006F4 17100    1417.              L     BRR,XITBSE          RESET PROGRAM BASE
 00068E 58C0 5000            00000 17101    1418.              L     DWR,SDWAPARM        SET ADDRESS OF DUMP WORK AREA
 000692 41D0 C068            00068 17102    1419.              LA    R13,XVA             SET EXIT ROUTINE SAVE AREA
 000696 4110 70A8/4100_      0071C 17103    1420.              VSEG  'VDMP609I - ESTAE routine has been entered.'
 0006A4 5890 709C/0D99       00710 17112    1421.              VWRITE ,
 0006AA 4100 0010/4110_      00010 17117    1422.              VCNTL BLANK,11
 0006B8 4110 7084/4100_      006F8 17136    1423.              VSEG  'Completion code '
 0006C6 58F0 5004/4100_      00004 17145    1424.              SEGHX 8,SDWACMPF          Report abend completion codes
 0006DE 5890 709C/0D99       00710 17187    1425.              VWRITE ,                  WRITE TO REPORT FILE
 0006E4 18D8                       17192    1426.              LR    R13,WAR             RESET ESTAE SAVE AREA ADDRESS
 0006E6 0700/1815/9200_            17193    1427.              SETRP WKAREA=(RR),REGS=(14,12),RC=0
 0006F2 0000
 0006F4 00000016                   17204    1428.     XITBSE   DC    A(DUMP)             ESTAE base address
 DROP   SDWA,R5                    17205    1429.              DROP  RR                  ## RELEASE SDWA ADDRESSABILITY
 DROP   RECROUT,R7                 17212    1430.              DROP  BR                  ## RELEASE BASE REGISTER
-0006F8                            17220    1432.              LTORG ,
 0006F8 C39694979385A389           17222                             =C'Completion code '
 000708 0000000C                   17223                             =A(12)
 00070C 00000000                   17224                             =V(VSEG)
 000710 00000000                   17225                             =V(VWRITE)
 000714 00000000                   17226                             =V(VCNTRL)
 000718 00000000                   17227                             =V(BTX)
 00071C E5C4D4D7F6F0F9C9           17228                             =C'VDMP609I - ESTAE routine has been entered.'
1VDMP     (VDMP21) (09:46) (22MAR04) ORVYL's File System Dump Program: Mainline Control                                     Page   69
0Current Usings:  (DUMP,R6) (DWA,R12)
0Loc    Object Code    Addr1 Addr2  Stmt Lv Lineno    Source Statement           (Hibal 5, Asmedit 3.3)  HLASM R4.0  2004/03/22 09.46
+___    ______ ____    _____ _____  ____ __ ______    ______ _________
0                                  17233    1434.     ********************************************************************
                                   17234    1435.     *                                                                  *
                                   17235    1436.     *  Initialization code for the DUMP and READBACK functions of      *
                                   17236    1437.     *  FILEDUMP.                                                       *
                                   17237    1438.     *                                                                  *
                                   17238    1438.1    ********************************************************************
                                   17239    1438.2    *                                                                  *
                                   17240    1439.     *      1.  Process the CONTROL file.                               *
                                   17241    1439.1    *                                                                  *
                                   17242    1440.     *      2.  Set FILEDUMP default control values                     *
                                   17243    1440.1    *                                                                  *
                                   17244    1441.     *      3.  Allocate SUBTASK control blocks                         *
                                   17245    1443.     *                                                                  *
                                   17246    1444.     ********************************************************************
-000746                            17248    1446.     DUMPFNC  LABEL ,                   Entry point for the DUMP function
 000746                            17250    1447.     READFNC  LABEL ,                   Entry point for READBACK function
 000746 0570                       17252    1448.              BALR  BR,0                Generate dump addressability
 USING  *,R7                       17253    1449.              USING *,BR                Set dump addressability
-                                  17264    1451.     ********************************************************************
                                   17265    1452.     *                                                                  *
                                   17266    1453.     ** Initialize and open dump control file                           *
                                   17267    1454.     *                                                                  *
                                   17268    1455.     ********************************************************************
0000748 4110 7810            00F58 17270    1457.              LA    R1,=CL8'CONTROL'    See if we have a control file
 00074C 5890 7898/0D99       00FE0 17271    1458.              ACALL FINDDD              Checkout TIOT for the ddname
 000752 4770 7014            0075C 17275    1459.              IF    Z,BEGIN             Yep - have one, so go process it
 000756 5890 789C/0D99       00FE4 17286  1 1460.                ACALL DOCNTL              Go process control file
 00075C                            17290    1461.              END   ,
-                                  17295    1461.02   ¿þþþþþþþþþþþþþþþþþþþþþþþþþþþþþþþþþþþþþþþþþþþþþþþþþþþþþþþþþþþþþþþþþþþþþÜ
                                   17296    1461.03   Ÿ                                                                     Ÿ
                                   17297    1461.04   Ÿ  Report CCW command chain selection options                         Ÿ
                                   17298    1461.05   Ÿ                                                                     Ÿ
                                                      ¾þþþþþþþþþþþþþþþþþþþþþþþþþþþþþþþþþþþþþþþþþþþþþþþþþþþþþþþþþþþþþþþþþþþþþ»
000075C 9170 C1C3/4780_001C3       17300    1461.07            IF    FLECKD+FLCYL+FLRANY,BEGIN     VALIDITY CHECK CCW TYPE
 000764 9180 C1C3/47E0_001C3       17322  1 1461.08              IF    FLSECT,BEGIN        SECTOR COMMAND INVALID
 00076C 4110 7A8A/4100_      011D2 17337  2 1461.09                VSEG  'VDMP017W - SECTOR option invalid with ECKD, CYL, '
 00077A 4110 7ABB/4100_      01203 17346  2 1461.1                 VSEG  'or READANY (ESCON);'
 000788 5890 78A4/0D99       00FEC 17355  2 1461.11                VWRITE ,
 00078E 4100 0010/4110_      00010 17360  2 1461.12                VCNTL BLANK,11            PROVIDE SPACING
 00079C 4110 7818/4100_      00F60 17379  2 1461.13                VSEG  'SECTOR option has been disabled.'
 0007AA 5890 78A4/0D99       00FEC 17388  2 1461.14                VWRITE ,
 0007B0 9204 C05B      0005B       17393  2 1461.15                MVI   RETCODE+3,RET_WARN  FLAG AS A WARNING MESSAGE
 0007B4 947F C1C3      001C3       17394  2 1461.16                CLEAR FLSECT              CLEAR SECTOR COMMAND FLAG
 0007B8                            17401  1 1461.17              END   ,
 0007B8 4110 7ACE/4100_      01216 17405  1 1461.18              VSEG  'VDMP016I - '
 0007C6 9160 C1C3/4780_001C3       17414  1 1461.19              IF    FLECKD+FLCYL,BEGIN  REPORT READ TRACKS CCW CHAINS
1VDMP     (VDMP21) (09:46) (22MAR04) ORVYL's File System Dump Program: Mainline Control                                     Page   70
0Current Usings:  (DUMP,R6) (*,R7) (DWA,R12)
0Loc    Object Code    Addr1 Addr2  Stmt Lv Lineno    Source Statement           (Hibal 5, Asmedit 3.3)  HLASM R4.0  2004/03/22 09.46
+___    ______ ____    _____ _____  ____ __ ______    ______ _________
00007CE 9120 C1C3/47E0_001C3       17432  2 1461.2                 IF    FLCYL,BEGIN         REPORT FULL CYLINDER READS
 0007D6 4110 7958/4100_      010A0 17447  3 1461.21                  VSEG  'ECKD full cylinder read CCW''s enabled.'
 0007E4 70A0/47F0 70AE 007E4 007D4 17456  2 1461.22                END   ELSE,BEGIN
 0007E8 4110 797E/4100_      010C6 17471  3 1461.23                  VSEG  'ECKD read track CCW''s enabled.'
 0007F6                            17480  2 1461.24                END   ,
 0007F6 70B2/47F0 70C0 007F6 007CC 17484  1 1461.25              END   ELSE,BEGIN
 0007FA 4110 7AD9/4100_      01221 17499  2 1461.26                VSEG  'Read any (ESCON) CCW''s enabled.'
 000808                            17508  1 1461.27              END   ,
 000808 9108 C1C3/47E0_001C3       17512  1 1461.28              IF    FLPSTAGE,BEGIN
 000810 5890 78A4/0D99       00FEC 17527  2 1461.29                VWRITE ,
 000816 4100 0010/4110_      00010 17532  2 1461.3                 VCNTL BLANK,11
 000824 4110 799C/4100_      010E4 17551  2 1461.31                VSEG  'Sequential Cache Staging will be used.'
 000832                            17560  1 1461.32              END   ,
 000832 70EE/47F0 7124 00832 00762 17564    1461.33            END   ELSE,BEGIN
 000836 4110 7ACE/4100_      01216 17579  1 1461.34              VSEG  'VDMP016I - '
 000844 9180 C1C3/47E0_001C3       17588  1 1461.35              IF    FLSECT,BEGIN
 00084C 4110 79C2/4100_      0110A 17603  2 1461.36                VSEG  'SET SECTOR channel command is enabled.'
 00085A 7116/47F0 7124 0085A 0084A 17612  1 1461.37              END   ELSE,BEGIN
 00085E 4110 79E8/4100_      01130 17627  2 1461.38                VSEG  'Parallel channel CCW chain is enabled.'
 00086C                            17636  1 1461.39              END   ,
 00086C                            17640    1461.4             END   ,
 00086C 5890 78A4/0D99       00FEC 17644    1461.41            VWRITE ,
-
                                   17650    1461.43   ¿þþþþþþþþþþþþþþþþþþþþþþþþþþþþþþþþþþþþþþþþþþþþþþþþþþþþþþþþþþþþþþþþþþþþþÜ
                                   17651    1461.44   Ÿ                                                                     Ÿ
                                   17652    1461.45   Ÿ  Report whether we will be dumping from the EMC business            Ÿ
                                   17653    1461.46   Ÿ  continuance volumes.                                               Ÿ
                                   17654    1461.47   Ÿ                                                                     Ÿ
                                                      ¾þþþþþþþþþþþþþþþþþþþþþþþþþþþþþþþþþþþþþþþþþþþþþþþþþþþþþþþþþþþþþþþþþþþþþ»
-000872 9180 C1C1/47E0_001C1       17656    1461.49            IF    FL_BCV,BEGIN
 00087A 4110 78AC/4100_      00FF4 17671  1 1461.5               VSEG  'VDMP173I - Dumping from BCV volumes.'
 000888 5890 78A4/0D99       00FEC 17680  1 1461.51              VWRITE ,                  Write to report file
 00088E                            17685    1461.99            END   ,
-
                                   17690    1463.     ********************************************************************
                                   17691    1464.     *                                                                  *
                                   17692    1465.     *  Report on incremental dump pool                                 *
                                   17693    1465.1    *                                                                  *
                                   17694    1466.     *  Do date conversion for TOD comparision                          *
                                   17695    1467.     *                                                                  *
                                   17696    1468.     ********************************************************************
000088E 9140 C1C6/47E0_001C6       17698    1470.              IF    FNCINC,BEGIN        Processing an incremental dump?
 000896 D603 C164 C164_00164 00164 17713  1 1471.                IF    (INCPOOL,NZ),BEGIN
 0008A0 5890 78D0/0D99       01018 17729  2 1472.                  ACALL RPTPOOL             REPORT ON INCREMENTAL POOL
 0008A6                            17733  1 1473.                END   ,
 0008A6 5890 78D4/0D99       0101C 17737  1 1474.                ACALL DOINC               FIND DATE FOR INCRMENTAL DUMPING
 0008AC                            17741    1475.              END   ,
1VDMP     (VDMP21) (09:46) (22MAR04) ORVYL's File System Dump Program: Mainline Control                                     Page   71
0Current Usings:  (DUMP,R6) (*,R7) (DWA,R12)
0Loc    Object Code    Addr1 Addr2  Stmt Lv Lineno    Source Statement           (Hibal 5, Asmedit 3.3)  HLASM R4.0  2004/03/22 09.46
+___    ______ ____    _____ _____  ____ __ ______    ______ _________
0                                  17746    1477.     ¿þþþþþþþþþþþþþþþþþþþþþþþþþþþþþþþþþþþþþþþþþþþþþþþþþþþþþþþþþþþþþþþþþþþþþÜ
                                   17747    1478.     Ÿ                                                                     Ÿ
                                   17748    1479.     Ÿ  Set FILEDUMP default values which have not been set from either    Ÿ
                                   17749    1480.     Ÿ  the control file or the EXEC parameter field.                      Ÿ
                                   17750    1481.     Ÿ                                                                     Ÿ
                                                      ¾þþþþþþþþþþþþþþþþþþþþþþþþþþþþþþþþþþþþþþþþþþþþþþþþþþþþþþþþþþþþþþþþþþþþþ»
-0008AC D503 78D8 C114_01020 00114 17753    1484.              IF    (TASKLVL,EQ,-1),BEGIN   SET DEFAULT TASKING LEVEL
 0008B6 D203 C114 78DC 00114 01024 17771  1 1485.                MVC   TASKLVL,=A(1)           DEFAULT OF ONE TASK LEVEL
 0008BC                            17772    1486.              END   ,
00008BC D503 78D8 C118_01020 00118 17777    1488.              IF    (INCLVL,EQ,-1),BEGIN    check incremental tasking
 0008C6 D203 C118 C114 00118 00114 17795  1 1489.                MVC   INCLVL,TASKLVL          set same as global tasking
 0008CC                            17796    1490.              END   ,
00008CC D503 78D8 C11C_01020 0011C 17801    1492.              IF    (DMPLVL,EQ,-1),BEGIN    check dump tasking level
 0008D6 D203 C11C C114 0011C 00114 17819  1 1493.                MVC   DMPLVL,TASKLVL          set same as global tasking
 0008DC                            17820    1494.              END   ,
00008DC D503 78D8 C120_01020 00120 17825    1496.              IF    (RDLVL,EQ,-1),BEGIN     CHECK READ TASKING LEVEL
 0008E6 D203 C120 C114 00120 00114 17843  1 1497.                MVC   RDLVL,TASKLVL           SET SAME AS GLOBAL TASKING
 0008EC                            17844    1498.              END   ,
1VDMP     (VDMP21) (09:46) (22MAR04) ORVYL's File System Dump Program: Mainline Control                                     Page   72
0Current Usings:  (DUMP,R6) (*,R7) (DWA,R12)
0Loc    Object Code    Addr1 Addr2  Stmt Lv Lineno    Source Statement           (Hibal 5, Asmedit 3.3)  HLASM R4.0  2004/03/22 09.46
+___    ______ ____    _____ _____  ____ __ ______    ______ _________
0                                  17849    1498.88   ¿þþþþþþþþþþþþþþþþþþþþþþþþþþþþþþþþþþþþþþþþþþþþþþþþþþþþþþþþþþþþþþþþþþþþþÜ
                                   17850    1498.89   Ÿ                                                                     Ÿ
                                   17851    1498.9    Ÿ  Check for sufficient on-line tape units for the specified          Ÿ
                                   17852    1498.91   Ÿ  tasking level.                                                     Ÿ
                                   17853    1498.92   Ÿ                                                                     Ÿ
                                                      ¾þþþþþþþþþþþþþþþþþþþþþþþþþþþþþþþþþþþþþþþþþþþþþþþþþþþþþþþþþþþþþþþþþþþþþ»
-0008EC                            17855    1498.95            LOOP  BEGIN               Check for available devices
 0008EC 5890 78E0/0D99       01028 17861  1 1498.96              ACALL CHKTASK             Enter tape task level check
 0008F2 59F0 C114/47A0_      00114 17865  1 1498.97              IF    (R15,GE,TASKLVL),EXIT   Sufficient resources exist
 0008FA 5890 78E4/0D99       0102C 17885  1 1498.98              ACALL ASKTASK                 Ask operator for action
 000900 47F0 71A4            008EC 17889    1498.99            END   ,                   Recheck tasking level
1VDMP     (VDMP21) (09:46) (22MAR04) ORVYL's File System Dump Program: Mainline Control                                     Page   73
0Current Usings:  (DUMP,R6) (*,R7) (DWA,R12)
0Loc    Object Code    Addr1 Addr2  Stmt Lv Lineno    Source Statement           (Hibal 5, Asmedit 3.3)  HLASM R4.0  2004/03/22 09.46
+___    ______ ____    _____ _____  ____ __ ______    ______ _________
0                                  17895    1500.     ¿þþþþþþþþþþþþþþþþþþþþþþþþþþþþþþþþþþþþþþþþþþþþþþþþþþþþþþþþþþþþþþþþþþþþþÜ
                                   17896    1501.     Ÿ                                                                     Ÿ
                                   17897    1502.     Ÿ  Allocate storage for subtask control blocks                        Ÿ
                                   17898    1503.     Ÿ                                                                     Ÿ
                                                      ¾þþþþþþþþþþþþþþþþþþþþþþþþþþþþþþþþþþþþþþþþþþþþþþþþþþþþþþþþþþþþþþþþþþþþþ»
-000904 4120 C124            00124 17900    1506.              LA    SR,STANC            Set address of anchor
 000908 5830 C11C            0011C 17901    1507.              L     TR,DMPLVL           Set count ASSUMING DUMP
 00090C 9140 C1C6/47E0_001C6       17902    1508.              IF    FNCINC,'L TR,INCLVL'    NOPE - SET INCREMENTAL LEVEL
 000918 5030 C114            00114 17923    1509.              ST    TR,TASKLVL          RESET INTO TASKLVL VARIABLE
 00091C 4100 3001            00001 17924    1510.              LA    R0,@TR+1            Count of ecbs in event table
 000920 47F0 71DE/8000_      00926 17925    1511.              EVENTS ENTRIES=(0)        Allocate an events table
 000932 12FF/4780 7222             17935    1512.              IF    (R15,NZ),BEGIN      Error creating events table
 000938 182F                       17949  1 1513.                LR    SR,R15              Save return code
 00093A 4110 7A0E/4100_      01156 17950  1 1514.                VSEG  'VDMP574E - Error creating event table, Return='
 000948 18F2/1B00/4110_            17959  1 1515.                SEGDC 0,(SR)              Add return code
 00095C 5890 78A4/0D99       00FEC 17998  1 1516.                VWRITE ,                  Write to report file
 000962 9228 C05B      0005B       18003  1 1517.                MVI   RETCODE+3,SYS_FAIL  Set return code
 000966 47F0 60DA            000F0 18004  1 1518.                B     DUMPEXIT            And return to system
 00096A                            18005    1519.              END   ,
 00096A 5010 C13C            0013C 18009    1520.              ST    R1,STEVENTS         Save address of events table
 00096E 1B33                       18010    1521.              CLEAR TR                  Clear subtask sequence number
 000970 5930 C114/47B0_      00114 18014    1522.              WHILE (TR,LT,TASKLVL),BEGIN   Allocate all blocks
 000978 4100 0080            00080 18033  1 1523.                LA    R0,L'SUBTASK        Length required for block
 00097C 47F0 723C/00/0_      00984 18034  1 1524.                GETMAIN RC,LV=(0)         Request conditional memory
 00098C 12FF/4780 7266             18046  1 1525.                IF    (R15,NZ),BEGIN      Insufficient main memory left
 000992 4110 78EC/4100_      01034 18060  2 1526.                  VSEG  'VDMP029E - Unable to allocate subtask control blocks'
 0009A0 5890 78A4/0D99       00FEC 18069  2 1527.                  VWRITE ,                  Write to report file
 0009A6 9220 C05B      0005B       18074  2 1528.                  MVI   RETCODE+3,NO_MEM    Set return code
 0009AA 47F0 60DA            000F0 18075  2 1529.                  B     DUMPEXIT            And return empty handed
 0009AE                            18076  1 1530.                END   ,
 0009AE 5010 2000            00000 18080  1 1531.                ST    R1,@SR              Set forward chain in previous
 0009B2 1841                       18081  1 1532.                LR    QR,R1               Save address
 0009B4 1801                       18082  1 1533.                LR    R0,R1               Copy address for clearing
 0009B6 4110 0080            00080 18083  1 1534.                LA    R1,L'SUBTASK          Length of block
 0009BA 1BFF                       18084  1 1535.                CLEAR R15                     Zero from length and pad
 0009BC 0E0E                       18088  1 1536.                MVCL  R0,R14                    Zero out subtask block
 USING  SUBTASK,R4                 18089  1 1537.                WITH  (SUBTASK,QR),BEGIN  Addressability to block
 0009BE 5020 4004            00004 18103  2 1538.                  ST    SR,STBCK            Set back chain pointer
 0009C2 5030 401C            0001C 18104  2 1539.                  ST    TR,STSEQ            Set sequnce number in block
 0009C6 D203 4008 7920 00008 01068 18105  2 1540.                  MVC   STNAME,=CL4'SUBT'   Set eye-catcher header in block
 0009CC 1824                       18106  2 1541.                  LR    SR,QR               Reset previous block address
 DROP   SUBTASK,R4                 18107  1 1542.                END   ,
 0009CE 5E30 78DC            01024 18115  1 1543.                AL    TR,=A(1)            Decrement block counter
 0009D2 47F0 7228            00970 18116    1544.              END   ,
1VDMP     (VDMP21) (09:46) (22MAR04) ORVYL's File System Dump Program: Mainline Control                                     Page   74
0Current Usings:  (DUMP,R6) (*,R7) (DWA,R12)
0Loc    Object Code    Addr1 Addr2  Stmt Lv Lineno    Source Statement           (Hibal 5, Asmedit 3.3)  HLASM R4.0  2004/03/22 09.46
+___    ______ ____    _____ _____  ____ __ ______    ______ _________
0                                  18122    1546.     ********************************************************************
                                   18123    1547.     *                                                                  *
                                   18124    1548.     *  Identify "DMPSEG" OR "RDSEG" As valid attach entry names        *
                                   18125    1549.     *                                                                  *
                                   18126    1550.     ********************************************************************
00009D6 4100 7838            00F80 18128    1552.              LA    R0,=CL8'DMPSEG'     EBCDIC name of entry point
 0009DA 5810 7924            0106C 18129    1553.              L     R1,=A(DMPSEG)       And address of name
 0009DE 5890 7928/0D99       01070 18130    1558.              ACALL IDENT               Inform system of entry point
 0009E4 4780 72A8            009F0 18134    1559.              IF    NZ,BEGIN            Didn't work, abort
 0009E8 9228 C05B      0005B       18145  1 1560.                MVI   RETCODE+3,SYS_FAIL  Set return code
 0009EC 47F0 60DA            000F0 18146  1 1561.                B     DUMPEXIT            And return empty handed
 0009F0                            18147    1562.              END   ,
00009F0 4100 7840            00F88 18152    1564.              LA    R0,=CL8'COMTASK'    EBCDIC name of entry point
 0009F4 5810 792C            01074 18153    1565.              L     R1,=A(COMTASK)      And address of entry point
 0009F8 5890 7928/0D99       01070 18154    1566.              ACALL IDENT               Inform system of entry point
 0009FE 4780 72BE/9204_      00A06 18158    1567.              IF    NZ,'MVI RETCODE+3,RET_WARN' warning return code
1VDMP     (VDMP21) (09:46) (22MAR04) ORVYL's File System Dump Program: Mainline Control                                     Page   75
0Current Usings:  (DUMP,R6) (*,R7) (DWA,R12)
0Loc    Object Code    Addr1 Addr2  Stmt Lv Lineno    Source Statement           (Hibal 5, Asmedit 3.3)  HLASM R4.0  2004/03/22 09.46
+___    ______ ____    _____ _____  ____ __ ______    ______ _________
0                                  18177    1579.     ********************************************************************
                                   18178    1580.     *                                                                  *
                                   18179    1581.     *  Attach communications subtask                                   *
                                   18180    1582.     *                                                                  *
                                   18181    1583.     ********************************************************************
0000A06 41F0 CA7C/41E0_      00A7C 18183    1585.              ATTACH EP=COMTASK,ECB=COMECB,SZERO=YES,SF=(E,COMATT)
 000A3E 12FF/4780 7334             18201    1586.              IF    (R15,NZ),BEGIN      Attach error has occurred
 000A44 182F                       18215  1 1587.                LR    SR,R15              Save return code
 000A46 4110 7AF8/4100_      01240 18216  1 1588.                VSEG  'VDMP127W - Unable to initialize comm task, '
 000A54 4110 7B23/4100_      0126B 18225  1 1589.                VSEG  'Return '           Set return code message
 000A62 18F2/1B00/4110_            18234  1 1590.                SEGDC 0,(SR)              Add return code to message
 000A76 5890 78A4/0D99       00FEC 18273  1 1591.                VWRITE ,                  Write to report file
 000A7C 7338/47F0 7364 00A7C 00A42 18278    1592.              END   ELSE,BEGIN          Save tcb and wait for task init
 000A80 5010 C0F8            000F8 18293  1 1593.                ST    R1,COMTCB           Save communications tcb address
 000A84 4100 0001/4110_      00001 18294  1 1594.                WAIT  ECB=SYNCECB         Wait for comm task to activate
 000A8E D703 C060 C060 00060 00060 18301  1 1595.                CLEAR SYNCECB             Zero syncronization ecb
 000A94 4110 7B2A/4100_      01272 18308  1 1596.                VSEG  'VDMP109I - Communication task active.'
 000AA2 5890 78A4/0D99       00FEC 18317  1 1597.                VWRITE ,                  Write to report file
 000AA8 9680 C1C4      001C4       18322  1 1598.                SET   FLCOMACT            Set communitcation task active
 000AAC                            18328    1599.              END   ,
1VDMP     (VDMP21) (09:46) (22MAR04) ORVYL's File System Dump Program: Start dump tasks                                     Page   76
0Current Usings:  (DUMP,R6) (*,R7) (DWA,R12)
0Loc    Object Code    Addr1 Addr2  Stmt Lv Lineno    Source Statement           (Hibal 5, Asmedit 3.3)  HLASM R4.0  2004/03/22 09.46
+___    ______ ____    _____ _____  ____ __ ______    ______ _________
0                                  18335    1625.     ********************************************************************
                                   18336    1626.     *                                                                  *
                                   18337    1627.     *  Process dump segments here                                      *
                                   18338    1628.     *                                                                  *
                                   18339    1629.     *        Register SR points to the SUBPARM parameter block         *
                                   18340    1630.     *        Register TR points to the SUBTASK parameter block         *
                                   18341    1631.     *                                                                  *
                                   18342    1632.     ********************************************************************
0000AAC 9140 C1C1/47E0_001C1       18344    1634.              IF    FLLOGHST,BEGIN      Update history file for dump/inc
 000AB4 91C0 C1C6/4780_001C6       18359  1 1635.                IF    FNCINC+FNCDMP,BEGIN But only for dump/inc
 000ABC 5890 7930/0D99       01078 18377  2 1636.                  ACALL HBASE               Set base record
 000AC2                            18381  1 1637.                END   ,
 000AC2                            18385    1638.              END   ,
0000AC2 9140 C1CA/4710_001CA       18390    1640.              WHILE (STRTREQ,OR,(SUBANCHR,NZ)),BEGIN
 USING  SUBPARM,R2                 18422  1 1641.                USING SUBPARM,SR          ## Addressability to block
 USING  SUBTASK,R3                 18431  1 1642.                USING SUBTASK,TR          ## addr to subtask control block
 000AD4 5830 C124            00124 18440  1 1643.                L     TR,STANC            Get next subtask block
 000AD8 1233/4770 73C2             18441  1 1644.                IF    (TR,Z),BEGIN        None left, process waiting ones
 000ADE 5890 7934/0D99       0107C 18455  2 1645.                  ACALL WTEVENT             Process completed subtask blocks
 000AE4 5830 C124            00124 18459  2 1646.                  L     TR,STANC            Better be one now
 000AE8 1233/4770 73C2             18460  2 1647.                  IF    (TR,Z),BEGIN        Logic error in program
 000AEE 4110 7B4F/4100_      01297 18474  3 1648.                    VSEG  'VDMP909S - (1) Error processing subtask blocks.'
 000AFC 5890 78A4/0D99       00FEC 18483  3 1649.                    VWRITE ,                  Write to report file
 000B02 922C C05B      0005B       18488  3 1650.                    MVI   RETCODE+3,SYS_BAD   Program logic error
 000B06 47F0 60DA            000F0 18489  3 1651.                    B     DUMPEXIT            Just blast out
 000B0A                            18490  2 1652.                  END   ,
 000B0A                            18494  1 1653.                END   ,
-000B0A 1B22                       18499  1 1654.1               CLEAR SR                  Clear work scheduled register
 000B0C 9140 C1CA/47E0_001CA       18503  1 1655.                IF    (STRTREQ,AND,~STRTRUN),BEGIN     START IS REQUIRED
 000B1C 9680 C1CA      001CA       18532  2 1656.1                 SET   STRTRUN             Set special start in progress
 000B20 9120 C1CA/47E0_001CA       18538  2 1657.                  IF    STRTCAT,BEGIN
 000B28 9220 3010      00010       18553  3 1658.                    SET   (STCAT,EQ)          Start catalog dump
 000B2C 94DF C1CA      001CA       18560  3 1659.                    CLEAR STRTCAT             Clear catalog dump required
 000B30 4140 7848            00F90 18567  3 1660.                    LA    QR,=CL8'VBLD'       Set address of program name
 000B34 4120 C2DC            002DC 18568  3 1661.                    LA    SR,VBLDPTR          Address pointer to parameter
 000B38 73F4/47F0 7404 00B38 00B26 18569  2 1662.                  END   ELSE,BEGIN
 000B3C 9210 3010      00010       18584  3 1663.                    SET   (STVER,EQ)          Start verify
 000B40 94EF C1CA      001CA       18591  3 1664.                    CLEAR STRTVER             Clear verify dump required
 000B44 4140 7850            00F98 18598  3 1665.                    LA    QR,=CL8'VERIFY'     Set address of program name
 000B48 4120 C348            00348 18599  3 1666.                    LA    SR,VRFYPTR          Address pointer to parameter
 000B4C                            18600  2 1667.                  END   ,
 000B4C 7408/7408/47F0_00B4C 00B12 18604  1 1668.                END   ELSE,BEGIN          Normal start for dump segments
 000B50 5820 C12C/1222       0012C 18621  2 1669.                  LT    SR,SUBANCHR         Set first SUBPARM block
 000B56 4780 7442            00B8A 18625  2 1669.1                 IF    NZ,BEGIN            ONLY IF THERE IS ONE TO DO
 000B5A                            18636  3 1670.                    LOOP  BEGIN               Find next sequence to start
 000B5A D503 2010 C138_00010 00138 18642  4 1671.                      IF    (SUBSEQ,EQ,TSKSEQ),EXIT  Found the right one
 000B64 5820 2000/1222       00000 18663  4 1672.                      LT    SR,SUBFWD           Chain to next one
 000B6A 4770 7412            00B5A 18667  3 1673.                    UNTIL Z,END               Keep looking
 000B6E 1222/4770 7430             18686  3 1674.                    IF    (SR,Z),BEGIN        Didn't find sequence
 000B74 5820 C12C            0012C 18700  4 1675.                      L     SR,SUBANCHR         Just use the first one then
1VDMP     (VDMP21) (09:46) (22MAR04) ORVYL's File System Dump Program: Start dump tasks                                     Page   77
0Current Usings:  (SUBPARM,R2) (SUBTASK,R3) (DUMP,R6) (*,R7) (DWA,R12)
0Loc    Object Code    Addr1 Addr2  Stmt Lv Lineno    Source Statement           (Hibal 5, Asmedit 3.3)  HLASM R4.0  2004/03/22 09.46
+___    ______ ____    _____ _____  ____ __ ______    ______ _________
0000B78                            18701  3 1676.                    END   ,
 000B78 1812                       18705  3 1677.                    LR    R1,SR               Copy address for dequeue
 000B7A 4D90 61D8            001EE 18706  3 1678.                    LCALL DEQB                Dequeue from subparm list
 000B7E 4100 0001/5E00_      00001 18708  3 1679.                    INCR  R0,TSKSEQ           Bump sequence number
 000B8A                            18714  2 1680.                  END   ,
 000B8A                            18718  1 1680.1               END   ,
-000B8A 1222/4770 744E             18723  1 1681.1               IF    (SR,Z),BEGIN        No qualifying work found
 000B90 5890 7934/0D99       0107C 18737  2 1681.2                 ACALL  WTEVENT            Wait for something to free
 000B96 7452/47F0 7676 00B96 00B8E 18741  1 1681.3               END   ELSE,BEGIN          Schedule found work
 000B9A 9160 C1C4/4780_001C4       18756  2 1682.                  IF    FLSTOP,BEGIN        We are flushing tasks now
 000BA2 4110 7B7E/4100_      012C6 18771  3 1683.                    VSEG  'VDMP404E - '
 000BB0 B205 C010      00010       18780  3 1684.                    STCK  CLWTEMP             Set flush time
 000BB4 9801 C010            00010 18781  3 1685.                    LM    R0,R1,CLWTEMP       Set tod clock value
 000BB8 41F0 C010            00010 18782  3 1686.                    LA    R15,CLWTEMP         Address of work area
 000BBC 58E0 7938/0DEE       01080 18783  3 1687.                    XCALL FMTTIME             Convert TOD clock value
 000BC2 5890 78A0/0D99       00FE8 18787  3 1688.                    VSEG  (R1),(R0)           Add time to message
 000BC8 4110 7A3C/4100_      01184 18802  3 1689.                    VSEG  ' Flushing '
 000BD6 9130 3010/4780_00010       18811  3 1690.                    IF    STCAT+STVER,BEGIN
 000BDE 9120 3010/47E0_00010       18829  4 1691.                      IF    STCAT,'VSEG "CATALOG DUMP"'
 000BF4 74B0/47F0 74BE_00BF4 00BE4 18858  4 1692.                      ELSE  'VSEG "VERIFY"'
 000C06 74C2/47F0 74DE 00C06 00BDC 18883  3 1693.                    END   ELSE,BEGIN
 000C0A 4110 7858/4100_      00FA0 18898  4 1694.                      VSEG  'segment '
 000C18 4110 2051/4100_      00051 18907  4 1695.                      VSEG  SUBSEG,2            Add segment number
 000C26                            18928  3 1696.                    END   ,
 000C26 4110 7860/4100_      00FA8 18932  3 1697.                    VSEG  ' due to '
 000C34 9120 C1C4/47E0_001C4       18941  3 1698.                    IF    FLABORT,BEGIN       Abortion in progress
 000C3C 4110 7B89/4100_      012D1 18956  4 1699.                      VSEG  '"ABORT"'           Quiting due to abort request
 000C4A 7506/47F0 7514 00C4A 00C3A 18965  3 1700.                    END   ELSE,BEGIN
 000C4E 4110 7A4C/4100_      01194 18980  4 1701.                      VSEG  '"QUIT"'            Quiting due to quisce request
 000C5C                            18989  3 1702.                    END   ,
 000C5C 4110 7B90/4100_      012D8 18993  3 1703.                    VSEG  ' Request.'         Add end of message
 000C6A 5890 78A4/0D99       00FEC 19002  3 1704.                    VWRITE ,
 000C70 9130 3010/4770_00010       19007  3 1705.                    IF    (STCAT+STVER,Z),BEGIN
 000C78 4130 C130            00130 19027  4 1706.                      LA    TR,SUBCMPLT         Address of complete queue head
 000C7C 4D90 6214            0022A 19028  4 1707.                      LCALL QUESUB              Queue subparm block
 000C80                            19030  3 1708.                    END   ,
 000C80 753C/47F0 7676 00C80 00BA0 19034  2 1709.                  END   ELSE,BEGIN          Schedule next subtask now
 000C84 1813                       19049  3 1710.                    LR    R1,TR               Set for DEQ from free list
 000C86 4D90 61D8            001EE 19050  3 1711.                    LCALL DEQB                Dequeue this block from list
 000C8A 4100 C128            00128 19052  3 1712.                    LA    R0,STWRK            Anchor address for subtask blocks
 000C8E 1813                       19053  3 1713.                    LR    R1,TR               Set block address for queueing
 000C90 4D90 61A8            001BE 19054  3 1714.                    LCALL ENQB                Place on the active chain
 000C94 D703 300C 300C 0000C 0000C 19056  3 1715.                    CLEAR STECB               Zero ecb in subtask block
 000C9A 9130 3010/4770_00010       19063  3 1716.                    IF    (STCAT+STVER,Z),BEGIN   NORMAL START FOR DUMP,READ
 000CA2 5020 3018            00018 19083  4 1717.                      ST    SR,STSUB            Save subparm block address
 000CA6 F271 C010 2051 00010 00051 19084  4 1718.                      PACK  CLWTEMP,SUBSEG      Convert value to packed
 000CAC 4F00 C010            00010 19085  4 1719.                      CVB   R0,CLWTEMP            Convert to binary
 000CB0 5000 3020            00020 19086  4 1720.                      ST    R0,STSEG                And save in subtask block
 000CB4 4140 7838            00F80 19087  4 1721.                      LA    QR,=CL8'DMPSEG'     Set for dumping
 000CB8                            19088  3 1725.                    END   ,
 000CB8 1812                       19092  3 1726.                    LR    R1,SR               Set for ATTATCH parameter
 000CBA 41F0 3038/5040_      00038 19093  3 1727.                    ATTACH EPLOC=(QR),ECB=STECB,SZERO=YES,SF=(E,STATL)
1VDMP     (VDMP21) (09:46) (22MAR04) ORVYL's File System Dump Program: Start dump tasks                                     Page   78
0Current Usings:  (SUBPARM,R2) (SUBTASK,R3) (DUMP,R6) (*,R7) (DWA,R12)
0Loc    Object Code    Addr1 Addr2  Stmt Lv Lineno    Source Statement           (Hibal 5, Asmedit 3.3)  HLASM R4.0  2004/03/22 09.46
+___    ______ ____    _____ _____  ____ __ ______    ______ _________
0000CDC 5010 3014            00014 19107  3 1728.                    ST    R1,STTCB            Save TCB address for subtask
 000CE0 41F0 300C            0000C 19108  3 1729.                    LA    R15,STECB           Set address of ECB
 000CE4 5810 C13C/18FF_      0013C 19109  3 1730.                    EVENTS TABLE=STEVENTS,ECB=(R15)    Queue ECB to event table
 000CF8 4100 0001/5E00_      00001 19120  3 1731.                    INCR  R0,STACTIVE         Increment subtask active counter
 000D04 4100 0014/1B11_      00014 19126  3 1732.                    VCNTL SKIP1               Provide extra line spacing
 000D10 4110 7B99/4100_      012E1 19142  3 1733.                    VSEG  'VDMP402I - '
 000D1E B205 3028      00028       19151  3 1734.                    STCK  STSTRT              Save starting stck value
 000D22 9801 3028            00028 19152  3 1735.                    LM    R0,R1,STSTRT        Set for conversion
 000D26 41F0 C010            00010 19153  3 1736.                    LA    R15,CLWTEMP         Set work area address
 000D2A 58E0 7938/0DEE       01080 19154  3 1737.                    XCALL FMTTIME             Convert to time
 000D30 5890 78A0/0D99       00FE8 19158  3 1738.                    VSEG  (R1),(R0)           Add to message
 000D36 4110 7BA4/4100_      012EC 19173  3 1739.                    VSEG   ' Starting subtask sequence '
 000D44 58F0 301C/1B00_      0001C 19182  3 1740.                    SEGDC 0,STSEQ             Add sequence number
 000D5A 4110 7BBF/4100_      01307 19221  3 1741.                    VSEG  ' For '
 000D68 9130 3010/4780_00010       19230  3 1742.                    IF    STCAT+STVER,BEGIN
 000D70 9120 3010/47E0_00010       19248  4 1743.                      IF    STCAT,'VSEG "CATALOG DUMP"'
 000D86 7642/47F0 7650_00D86 00D76 19277  4 1744.                      ELSE  'VSEG "VERIFY"'
 000D98 7654/47F0 7670 00D98 00D6E 19302  3 1745.                    END   ELSE,BEGIN
 000D9C 4110 7858/4100_      00FA0 19317  4 1746.                      VSEG  'segment '          Add message segment
 000DAA 4110 2051/4100_      00051 19326  4 1747.                      VSEG  SUBSEG,2            Add segment number
 000DB8                            19347  3 1748.                    END   ,
 000DB8 5890 78A4/0D99       00FEC 19351  3 1749.                    VWRITE ,                  Write to report file
 000DBE                            19356  2 1750.                  END   ,
 000DBE                            19360  1 1750.1               END   ,
 000DBE 47F0 737A            00AC2 19364    1751.              END   ,                   Process next subparm block
1VDMP     (VDMP21) (09:46) (22MAR04) ORVYL's File System Dump Program: Start dump tasks                                     Page   79
0Current Usings:  (SUBPARM,R2) (SUBTASK,R3) (DUMP,R6) (*,R7) (DWA,R12)
0Loc    Object Code    Addr1 Addr2  Stmt Lv Lineno    Source Statement           (Hibal 5, Asmedit 3.3)  HLASM R4.0  2004/03/22 09.46
+___    ______ ____    _____ _____  ____ __ ______    ______ _________
0                                  19370    1753.     ********************************************************************
                                   19371    1754.     *                                                                  *
                                   19372    1755.     *  All available work has been started.  Wait for the remaining    *
                                   19373    1756.     *  subtasks to complete complete processing.                       *
                                   19374    1757.     *                                                                  *
                                   19375    1758.     ********************************************************************
0000DC2 D603 C128 C128_00128 00128 19377    1760.              WHILE (STWRK,NZ),BEGIN    Wait for remaining subtasks
 000DCC 5890 7934/0D99       0107C 19395  1 1761.                ACALL WTEVENT             Go wait for something to happen
 000DD2 47F0 767A            00DC2 19399    1762.              END   ,                   Exit loop when last ecb is done
-000DD6 5890 7948/0D99       01090 19405    1764.              ACALL GLBRPT              Report global i/o stats
-DROP   SUBPARM,R2                 19410    1766.              DROP  SR                  ## Release addr to subparm
 DROP   SUBTASK,R3                 19417    1767.              DROP  TR                  ## Release addr to subtask
1VDMP     (VDMP21) (09:46) (22MAR04) ORVYL's File System Dump Program: Start dump tasks                                     Page   80
0Current Usings:  (DUMP,R6) (*,R7) (DWA,R12)
0Loc    Object Code    Addr1 Addr2  Stmt Lv Lineno    Source Statement           (Hibal 5, Asmedit 3.3)  HLASM R4.0  2004/03/22 09.46
+___    ______ ____    _____ _____  ____ __ ______    ______ _________
0                                  19425    1769.     ********************************************************************
                                   19426    1770.     *                                                                  *
                                   19427    1771.     *  For Incremental Dumps, report on all allocated pool data sets   *
                                   19428    1772.     *                                                                  *
                                   19429    1773.     ********************************************************************
0000DDC 9140 C1C6/47E0_001C6       19431    1775.              IF    (FNCINC,AND,(INCPOOL,NZ)),BEGIN
 000DEE 5890 78A4/0D99       00FEC 19461  1 1776.                VWRITE ,
 000DF4 4110 7868/4100_      00FB0 19466  1 1777.                VSEG  'VDMP087I - Report on incremental dump data sets.'
 000E02 5890 78A4/0D99       00FEC 19475  1 1778.                VWRITE ,
 000E08 4140 C134            00134 19480  1 1779.                LA    QR,INCCMPLT         Address of idscb complete queue
 000E0C 5820 C130            00130 19481  1 1780.                L     SR,SUBCMPLT         Set subparm parameter blocks
 USING  SUBPARM,R2                 19482  1 1781.                USING SUBPARM,SR          ## addressability to subparm
 000E10 1222/4780 773C             19491  1 1782.                WHILE (SR,NZ),BEGIN       Loop through all subparm blocks
 000E16 5830 2018            00018 19507  2 1783.                  L     TR,SUBINCP          Load pointer to idscb's
 USING  INCDSN,R3                  19508  2 1784.                  USING INCDSN,TR           ## addressability to idscb's
 000E1A 1233/4780 7734             19517  2 1785.                  WHILE (TR,NZ),BEGIN       Loop through all idscb's
 000E20 4100 0010/4110_      00010 19533  3 1786.                    VCNTL BLANK,11            Add spacers
 000E2E 1813                       19552  3 1787.                    LR    R1,TR               Set address for dequeue
 000E30 4D90 61D8            001EE 19553  3 1788.                    LCALL DEQB                Dequeue block from subparm
 000E34 4110 3018            00018 19555  3 1789.                    LA    R1,INCDDSN          Address of data set name
 000E38 4100 002C            0002C 19556  3 1790.                    LA    R0,44               Set maximum length
 000E3C 4D90 616A            00180 19557  3 1791.                    LCALL RTRIM               Trim trailing blanks
 000E40 5890 78A0/0D99       00FE8 19559  3 1792.                    VSEG  (R1),(R0)           Report data set
 000E46 1813                       19574  3 1793.                    LR    R1,TR               Copy address for enqueue
 000E48 1804                       19575  3 1794.                    LR    R0,QR               Set anchor address
 000E4A 4D90 61A8            001BE 19576  3 1795.                    LCALL ENQB                Add block to queue
 000E4E 1843                       19578  3 1796.                    LR    QR,TR               Reset to add to end-of-chain
 000E50 4110 7A52/4100_      0119A 19579  3 1797.                    VSEG  ' has been added to complete queue.'
 000E5E 5890 78A4/0D99       00FEC 19588  3 1798.                    VWRITE ,
 000E64 9140 C1C1/47E0_001C1       19593  3 1799.                    IF    FLLOGHST,BEGIN      Logging mode in effect
 000E6C 1813                       19608  4 1799.1                     LR    R1,TR               Copy address of INCDSN
 000E6E 5890 794C/0D99       01094 19609  4 1800.                      ACALL INCLOGD             Allocate next free block
 000E74                            19613  3 1801.                    END   ,
 000E74 5830 2018            00018 19617  3 1802.                    L     TR,SUBINCP          Set first block on chain address
 000E78 47F0 76D2            00E1A 19618  2 1803.                  END   ,
 000E7C 5820 2000            00000 19623  2 1804.                  L     SR,SUBFWD           Set next subparm block
 000E80 47F0 76C8            00E10 19624  1 1805.                END   ,
 000E84                            19629    1806.              END   ,
 DROP   SUBPARM,R2                 19633    1807.              DROP  SR                  ## release subparm addressability
 DROP   INCDSN,R3                  19640    1808.              DROP  TR                  ## release idscb addressability
1VDMP     (VDMP21) (09:46) (22MAR04) ORVYL's File System Dump Program: Start dump tasks                                     Page   81
0Current Usings:  (DUMP,R6) (*,R7) (DWA,R12)
0Loc    Object Code    Addr1 Addr2  Stmt Lv Lineno    Source Statement           (Hibal 5, Asmedit 3.3)  HLASM R4.0  2004/03/22 09.46
+___    ______ ____    _____ _____  ____ __ ______    ______ _________
0                                  19648    1810.     ¿þþþþþþþþþþþþþþþþþþþþþþþþþþþþþþþþþþþþþþþþþþþþþþþþþþþþþþþþþþþþþþþþþþþþþÜ
                                   19649    1811.     Ÿ                                                                     Ÿ
                                   19650    1812.     Ÿ  Write base dump record to history file                             Ÿ
                                   19651    1813.     Ÿ                                                                     Ÿ
                                                      ¾þþþþþþþþþþþþþþþþþþþþþþþþþþþþþþþþþþþþþþþþþþþþþþþþþþþþþþþþþþþþþþþþþþþþþ»
0000E84 9140 C1C1/47E0_001C1       19653    1816.              IF    FLLOGHST,BEGIN      If in logging mode
 000E8C 4110 0002            00002 19668  1 1817.                LA    R1,2                Set buffer number 2
 000E90 4D90 636C            00382 19669  1 1818.                LCALL GRADR               Generate address to buffer
 000E94 1821                       19671  1 1819.                LR    R2,R1               Save address stupid!
                                          1                      ¿þþþþþþþþþþþþþþþþþþþþþþþþþþþþþþþþþþþþþþþþþþþþþþþþþþþþþþþþþÜ
                                   19672  1 1819.1               Ÿ  Damnit!!! Reformat these records for compatibility!!!  Ÿ
                                          1                      ¾þþþþþþþþþþþþþþþþþþþþþþþþþþþþþþþþþþþþþþþþþþþþþþþþþþþþþþþþþ»
 000E96 9180 C1C6/47E0_001C6       19673  1 1819.2               IF    FNCDMP,BEGIN
 000E9E D203 2010 C058 00010 00058 19688  2 1819.3                 MVC   HISDRC-HISDREC(,R2),RETCODE   Set return code
 000EA4 7760/47F0 7766 00EA4 00E9C 19689  1 1819.8               END   ELSE,BEGIN
 000EA8 D203 2040 C058 00040 00058 19704  2 1819.81                MVC   HISIRC-HISIREC(,R2),RETCODE   Set return code
 000EAE                            19705  1 1819.9               END   ,
 USING  HISXREC,R2                 19709  1 1821.                WITH  (HISXREC,R2),BEGIN  Addressability to dump record
 000EAE 4110 7BC4/4100_      0130C 19723  2 1828.                  VSEG  'VDMP923I - History file updated with '
 000EBC 4110 7BE9/4100_      01331 19732  2 1828.01                VSEG  'Termination status.'
 000ECA 5890 78A4/0D99       00FEC 19741  2 1828.02                VWRITE ,                  Write to control file
 000ED0 4100 0010/4110_      00010 19746  2 1828.03                VCNTL BLANK,11            Tab over for next line
 000EDE 4110 7A74/4100_      011BC 19765  2 1828.04                VSEG  'Dump taken at '
 000EEC 5800 200C            0000C 19774  2 1828.05                L     R0,HISXCLCK         Get appropriate TOD value
 000EF0 1B11                       19775  2 1828.06                CLEAR R1                  Zero low order four bytes
 000EF2 41F0 C010            00010 19779  2 1828.07                LA    R15,CLWTEMP         Address of temporary work area
 000EF6 58E0 7950/0DEE       01098 19780  2 1828.08                XCALL FMTCLCK             Format tod clock value
 000EFC 5890 78A0/0D99       00FE8 19784  2 1828.09                VSEG  (R1),(R0)           Add to message line
 000F02 4110 7A82/4100_      011CA 19799  2 1828.1                 VSEG  '  '                And some spaces
 000F10 9180 C1C1/47E0_001C1       19808  2 1828.11                IF    FL_BCV,BEGIN        Report "Split" time
 000F18 9680 2008      00008       19823  3 1828.12                  SET   HISX_Split          Indicate time is from "Split"
 000F1C 4110 7BFC/4100_      01344 19829  3 1828.13                  VSEG  '(SPLIT)'           And say "Split"
 000F2A 77E6/47F0 77F8 00F2A 00F16 19838  2 1828.14                END   ELSE,BEGIN          Else this was a true time dump
 000F2E 947F 2008      00008       19853  3 1828.15                  CLEAR HISX_Split          Indicate time is "True"
 000F32 4110 7A84/4100_      011CC 19860  3 1828.97                  VSEG  '(TRUE)'            And say "True"
 000F40                            19869  2 1828.98                END   ,
 000F40 5890 78A4/0D99       00FEC 19873  2 1828.99                VWRITE ,                  Write status message
 000F46 4100 0002            00002 19878  2 1829.                  LA    R0,2                Set buffer number two
 000F4A 5890 7954/0D99       0109C 19879  2 1830.                  ACALL CLRIO               Write and clear record to file
 DROP   HISXREC,R2                 19883  1 1831.                END   ,
 000F50                            19891    1831.1             END   ,
 000F50 47F0 60DA            000F0 19895    1832.              B     DUMPEXIT            Exit dump code
1VDMP     (VDMP21) (09:46) (22MAR04) ORVYL's File System Dump Program: Start dump tasks                                     Page   82
0Current Usings:  (DUMP,R6) (*,R7) (DWA,R12)
0Loc    Object Code    Addr1 Addr2  Stmt Lv Lineno    Source Statement           (Hibal 5, Asmedit 3.3)  HLASM R4.0  2004/03/22 09.46
+___    ______ ____    _____ _____  ____ __ ______    ______ _________
0                                  19897    1832.2    ¿þþþþþþþþþþþþþþþþþþþþþþþþþþþþþþþþþþþþþþþþþþþþþþþþþþþþþþþþþþþþþþþþþþþþþÜ
                                   19898    1832.3    Ÿ                                                                     Ÿ
                                   19899    1832.4    Ÿ  Define literal pool                                                Ÿ
                                   19900    1832.5    Ÿ                                                                     Ÿ
                                                      ¾þþþþþþþþþþþþþþþþþþþþþþþþþþþþþþþþþþþþþþþþþþþþþþþþþþþþþþþþþþþþþþþþþþþþþ»
0000F58                            19902    1832.7             LTORG ,
 000F58 C3D6D5E3D9D6D340           19904                             =CL8'CONTROL'
 000F60 E2C5C3E3D6D94096           19905                             =C'SECTOR option has been disabled.'
 000F80 C4D4D7E2C5C74040           19906                             =CL8'DMPSEG'
 000F88 C3D6D4E3C1E2D240           19907                             =CL8'COMTASK'
 000F90 E5C2D3C440404040           19908                             =CL8'VBLD'
 000F98 E5C5D9C9C6E84040           19909                             =CL8'VERIFY'
 000FA0 A28587948595A340           19910                             =C'segment '
 000FA8 4084A48540A39640           19911                             =C' due to '
 000FB0 E5C4D4D7F0F8F7C9           19912                             =C'VDMP087I - Report on incremental dump data sets.'
 000FE0 00001F42                   19913                             =A(FINDDD)
 000FE4 000020F6                   19914                             =A(DOCNTL)
 000FE8 00000000                   19915                             =V(VSEG)
 000FEC 00000000                   19916                             =V(VWRITE)
 000FF0 00000000                   19917                             =V(VCNTRL)
 000FF4 E5C4D4D7F1F7F3C9           19918                             =C'VDMP173I - Dumping from BCV volumes.'
 001018 00002FB4                   19919                             =A(RPTPOOL)
 00101C 000030F6                   19920                             =A(DOINC)
 001020 FFFFFFFF                   19921                             =AL4(-1)
 001024 00000001                   19922                             =A(1)
 001028 00004BC8                   19923                             =A(CHKTASK)
 00102C 00004A4A                   19924                             =A(ASKTASK)
 001030 00000000                   19925                             =V(BTD)
 001034 E5C4D4D7F0F2F9C5           19926                             =C'VDMP029E - Unable to allocate subtask control blocks'
 001068 E2E4C2E3                   19927                             =CL4'SUBT'
 00106C 00004D90                   19928                             =A(DMPSEG)
 001070 00001D68                   19929                             =A(IDENT)
 001074 000099F2                   19930                             =A(COMTASK)
 001078 00003580                   19931                             =A(HBASE)
 00107C 000015FE                   19932                             =A(WTEVENT)
 001080 00000000                   19933                             =V(FMTTIME)
 001084 C3C1E3C1D3D6C740           19934                             =C'CATALOG DUMP'
 001090 0000185E                   19935                             =A(GLBRPT)
 001094 000019DC                   19936                             =A(INCLOGD)
 001098 00000000                   19937                             =V(FMTCLCK)
 00109C 000037BC                   19938                             =A(CLRIO)
 0010A0 C5C3D2C44086A493           19939                             =C'ECKD full cylinder read CCW''s enabled.'
 0010C6 C5C3D2C440998581           19940                             =C'ECKD read track CCW''s enabled.'
 0010E4 E28598A48595A389           19941                             =C'Sequential Cache Staging will be used.'
 00110A E2C5E340E2C5C3E3           19942                             =C'SET SECTOR channel command is enabled.'
 001130 D781998193938593           19943                             =C'Parallel channel CCW chain is enabled.'
 001156 E5C4D4D7F5F7F4C5           19944                             =C'VDMP574E - Error creating event table, Return='
 001184 40C693A4A2888995           19945                             =C' Flushing '
 00118E E5C5D9C9C6E8               19946                             =C'VERIFY'
 001194 7FD8E4C9E37F               19947                             =C'"QUIT"'
 00119A 408881A240828585           19948                             =C' has been added to complete queue.'
 0011BC C4A4949740A38192           19949                             =C'Dump taken at '
 0011CA 4040                       19950                             =C'  '
1VDMP     (VDMP21) (09:46) (22MAR04) ORVYL's File System Dump Program: Start dump tasks                                     Page   83
0Current Usings:  (DUMP,R6) (*,R7) (DWA,R12)
0Loc    Object Code    Addr1 Addr2  Stmt Lv Lineno    Source Statement           (Hibal 5, Asmedit 3.3)  HLASM R4.0  2004/03/22 09.46
+___    ______ ____    _____ _____  ____ __ ______    ______ _________
00011CC 4DE3D9E4C55D               19951                             =C'(TRUE)'
 0011D2 E5C4D4D7F0F1F7E6           19952                             =C'VDMP017W - SECTOR option invalid with ECKD, CYL, '
 001203 969940D9C5C1C4C1           19953                             =C'or READANY (ESCON);'
 001216 E5C4D4D7F0F1F6C9           19954                             =C'VDMP016I - '
 001221 D9858184408195A8           19955                             =C'Read any (ESCON) CCW''s enabled.'
 001240 E5C4D4D7F1F2F7E6           19956                             =C'VDMP127W - Unable to initialize comm task, '
 00126B D985A3A4999540             19957                             =C'Return '
 001272 E5C4D4D7F1F0F9C9           19958                             =C'VDMP109I - Communication task active.'
 001297 E5C4D4D7F9F0F9E2           19959                             =C'VDMP909S - (1) Error processing subtask blocks.'
 0012C6 E5C4D4D7F4F0F4C5           19960                             =C'VDMP404E - '
 0012D1 7FC1C2D6D9E37F             19961                             =C'"ABORT"'
 0012D8 40D98598A485A2A3           19962                             =C' Request.'
 0012E1 E5C4D4D7F4F0F2C9           19963                             =C'VDMP402I - '
 0012EC 40E2A38199A38995           19964                             =C' Starting subtask sequence '
 001307 40C6969940                 19965                             =C' For '
 00130C E5C4D4D7F9F2F3C9           19966                             =C'VDMP923I - History file updated with '
 001331 E3859994899581A3           19967                             =C'Termination status.'
 001344 4DE2D7D3C9E35D             19968                             =C'(SPLIT)'
1VDMP     (VDMP21) (09:46) (22MAR04) ORVYL's File System Dump Program: Start dump tasks                                     Page   84
0Current Usings:  (DUMP,R6) (*,R7) (DWA,R12)
0Loc    Object Code    Addr1 Addr2  Stmt Lv Lineno    Source Statement           (Hibal 5, Asmedit 3.3)  HLASM R4.0  2004/03/22 09.46
+___    ______ ____    _____ _____  ____ __ ______    ______ _________
0                                  19973    1833.1    ¿þþþþþþþþþþþþþþþþþþþþþþþþþþþþþþþþþþþþþþþþþþþþþþþþþþþþþþþþþþþþþþþþþþþþþÜ
                                   19974    1833.2    Ÿ                                                                     Ÿ
                                   19975    1833.3    Ÿ  Main exit processing for the filedump utility.                     Ÿ
                                   19976    1833.4    Ÿ                                                                     Ÿ
                                   19977    1833.5    Ÿ        WARNING: Watch out for the damn base BR addressability       Ÿ
                                   19978    1833.6    Ÿ                 switch!!!  It is assumed the BR has been            Ÿ
                                   19979    1833.7    Ÿ                 loaded with the MAINEXIT address.                   Ÿ
                                   19980    1833.71   Ÿ                                                                     Ÿ
                                                      ¾þþþþþþþþþþþþþþþþþþþþþþþþþþþþþþþþþþþþþþþþþþþþþþþþþþþþþþþþþþþþþþþþþþþþþ»
-00134C                            19982    1834.     MAINEXIT LABEL ,
 DROP   *,R7                       19984    1835.              USING MAINEXIT,BR         ## ADDRESSABILITY TO EXIT CODE
 USING  MAINEXIT,R7
0                                  19997    1837.     *        *****************************************************
                                   19998    1838.     *        *                                                   *
                                   19999    1839.     *        *  Shutdown the communications subtask if it is     *
                                   20000    1840.     *        *  is still active.                                 *
                                   20001    1841.     *        *                                                   *
                                   20002    1842.     *        *****************************************************
000134C 9180 C1C4/47E0_001C4       20004    1844.              IF    FLCOMACT,BEGIN      Communications task active?
 001354 1B00/4110 C0FC_            20019  1 1845.                POST  COMWAIT             Kill communications task
 00135C 4100 0001/4110_      00001 20025  1 1846.                WAIT  ECB=COMECB          Wait for it to quiesce
 001366 4110 7276/4100_      015C2 20032  1 1847.                VSEG  'VDMP831I - Communication task shutdown.'
 001374 5890 7240/0D99       0158C 20041  1 1848.                VWRITE ,                  Write to report file
 00137A 4110 C0F8/0A3E       000F8 20046  1 1849.                DETACH COMTCB             Detach subtask from main
 001380 947F C1C4      001C4       20051  1 1850.                CLEAR FLCOMACT            Clear communication act flag
 001384                            20058    1851.              END   ,
0                                  20063    1852.     *              *****************************************************
                                   20064    1853.     *              *
                                   20065    1854.     *              *  Report any communications lockword hits
                                   20066    1855.     *              *
                                   20067    1856.     *              *****************************************************
0001384 91C0 C1C6/4780_001C6       20069    1858.              IF    FNCINC+FNCDMP,BEGIN REPORT LOCKWORD HITS
 00138C 4100 0014/1B11_      00014 20087  1 1859.                VCNTL SKIP1               SKIP LINE IN REPORT FILE
 001398 4110 7260/4100_      015AC 20103  1 1860.                VSEG  'VDMP911I - There were '
 0013A6 58F0 C0F0/1B00_      000F0 20112  1 1861.                SEGDC 0,COMHITS           CONVERT LOCKWORD HITS
 0013BC 4110 729D/4100_      015E9 20151  1 1862.                VSEG  ' lockword spin loops.'
 0013CA 5890 7240/0D99       0158C 20160  1 1863.                VWRITE ,                  WRITE TO REPORT FILE
 0013D0                            20165    1864.              END   ,
0                                  20170    1866.     *              *****************************************************
                                   20171    1867.     *              *                                                   *
                                   20172    1868.     *              *  Close the report file, if left open at this time *
                                   20173    1869.     *              *                                                   *
                                   20174    1870.     *              *****************************************************
00013D0 9110 C1C0/47E0_001C0       20176    1871.              IF    FLPOPN,BEGIN        Close SYSPRT file if open
 0013D8 4100 000C/1B11_      0000C 20191  1 1872.                VCNTL CLOSE               Close out report file
 0013E4                            20207    1873.              END   ,
1VDMP     (VDMP21) (09:46) (22MAR04) ORVYL's File System Dump Program: Start dump tasks                                     Page   85
0Current Usings:  (DUMP,R6) (MAINEXIT,R7) (DWA,R12)
0Loc    Object Code    Addr1 Addr2  Stmt Lv Lineno    Source Statement           (Hibal 5, Asmedit 3.3)  HLASM R4.0  2004/03/22 09.46
+___    ______ ____    _____ _____  ____ __ ______    ______ _________
0                                  20212    1875.     *              *****************************************************
                                   20213    1876.     *              *
                                   20214    1877.     *              *  Release the EVENTS table
                                   20215    1878.     *              *
                                   20216    1879.     *              *****************************************************
00013E4 5820 C13C            0013C 20218    1880.              L     SR,STEVENTS         Address of events table
 0013E8 1222/4780 70AE             20219    1881.              IF    (SR,NZ),BEGIN       Release events table
 0013EE 0700/1812/1700_            20233  1 1882.                EVENTS TABLE=(SR),ENTRIES=DEL
 0013FA                            20241    1883.              END   ,
0                                  20246    1884.     *              *****************************************************
                                   20247    1885.     *              *                                                   *
                                   20248    1886.     *              *  Release subtask control blocks                   *
                                   20249    1887.     *              *                                                   *
                                   20250    1888.     *              *****************************************************
00013FA 5820 C124            00124 20252    1890.              L     SR,STANC            Anchor address for subtask blocks
 0013FE 1222/4780 70D2             20253    1891.              IF    (SR,NZ),BEGIN       Release any subtask blocks
 001404 1222/4780 70D2             20267  1 1892.                WHILE (SR,NZ),BEGIN       Release all subtask blocks
 USING  SUBTASK,R2                 20283  2 1893.                  USING SUBTASK,SR          ## Addressability to subtask
 00140A 4100 0080            00080 20292  2 1894.                  LA    R0,L'SUBTASK        Length of subtask block
 00140E 1812                       20293  2 1895.                  LR    R1,SR               Copy address for block
 001410 5820 2000            00000 20294  2 1896.                  L     SR,STFWD            Set forward chain address
 001414 4110 1000/0A0A       00000 20295  2 1897.                  FREEMAIN R,LV=(0),A=(1)   Release subtask block
 00141A 47F0 70B8            01404 20299  1 1898.                END   ,
 00141E                            20304    1899.              END   ,
0                                  20309    1900.              ¿þþþþþþþþþþþþþþþþþþþþþþþþþþþþþþþÜ
                                   20310    1901.              Ÿ  Release subparameter blocks  Ÿ
                                   20311    1902.              ¾þþþþþþþþþþþþþþþþþþþþþþþþþþþþþþþ»
 00141E 5820 C12C/1222       0012C 20312    1903.              LT    SR,SUBANCHR         Get subtask anchor address
 001424 4780 70F6            01442 20316    1904.              IF    NZ,BEGIN            Subtask blocks exist
 DROP   SUBTASK,R2                 20327  1 1905.                USING SUBPARM,SR          ## addressability to block
 USING  SUBPARM,R2
 001428 1222/4780 70F6             20339  1 1906.                WHILE (SR,NZ),BEGIN       Free all blocks
 00142E 1812                       20355  2 1907.                  LR    R1,SR               Copy address of block
 001430 4100 0F5B            00F5B 20356  2 1908.                  LA    R0,L'SUBPARM        And length to free
 001434 5820 2000            00000 20357  2 1909.                  L     SR,SUBFWD           Chain to next block
 001438 4110 1000/0A0A       00000 20358  2 1910.                  FREEMAIN R,LV=(0),A=(1)   Release memory
 00143E 47F0 70DC            01428 20362  1 1911.                END   ,
 001442                            20367    1912.              END   ,
 DROP   SUBPARM,R2                 20371    1913.              DROP  SR                  ## Release addressability
0                                  20379    1915.              ¿þþþþþþþþþþþþþþþþþþþþþþþþþþþþþþþþþþþþþþþþþÜ
                                   20380    1916.              Ÿ  Release completed subparameter blocks  Ÿ
                                   20381    1917.              ¾þþþþþþþþþþþþþþþþþþþþþþþþþþþþþþþþþþþþþþþþþ»
 001442 5820 C130            00130 20382    1918.              L     SR,SUBCMPLT         Address of first block on queue
 001446 1222/4780 7114             20383    1919.              WHILE (SR,NZ),BEGIN       Release all blocks
 USING  SUBPARM,R2                 20399  1 1920.                USING SUBPARM,SR          ## addressability to subparm
 00144C 4100 0F5B            00F5B 20408  1 1921.                LA    R0,L'SUBPARM        Set length to free
 001450 1812                       20409  1 1922.                LR    R1,SR               Set address to free
 001452 5820 2000            00000 20410  1 1923.                L     SR,SUBFWD           Set next possible subparm block
 001456 4110 1000/0A0A       00000 20411  1 1924.                FREEMAIN R,LV=(0),A=(1)   Release block
1VDMP     (VDMP21) (09:46) (22MAR04) ORVYL's File System Dump Program: Start dump tasks                                     Page   86
0Current Usings:  (DUMP,R6) (MAINEXIT,R7) (DWA,R12)
0Loc    Object Code    Addr1 Addr2  Stmt Lv Lineno    Source Statement           (Hibal 5, Asmedit 3.3)  HLASM R4.0  2004/03/22 09.46
+___    ______ ____    _____ _____  ____ __ ______    ______ _________
0DROP   SUBPARM,R2                 20415  1 1925.                DROP  SR                  ## release addressability
 00145C 47F0 70FA            01446 20422    1926.              END   ,
0                                  20428    1928.              ¿þþþþþþþþþþþþþþþþþþþþþþþþþþþþþþþþþþþÜ
                                   20429    1929.              Ÿ  Release incremental dump blocks  Ÿ
                                   20430    1930.              ¾þþþþþþþþþþþþþþþþþþþþþþþþþþþþþþþþþþþ»
 001460 5820 C134            00134 20431    1931.              L     SR,INCCMPLT         Address of complete queue
 001464 1222/4780 7132             20432    1932.              WHILE (SR,NZ),BEGIN       Release all blocks
 USING  INCDSN,R2                  20448  1 1933.                USING INCDSN,SR           ## addressability to incdsn
 00146A 4100 0044            00044 20457  1 1934.                LA    R0,L'INCDSN         Set length to free
 00146E 1812                       20458  1 1935.                LR    R1,SR               Set address to free
 001470 5820 2000            00000 20459  1 1936.                L     SR,INCDFWD          Set next possible incdsn block
 001474 4110 1000/0A0A       00000 20460  1 1937.                FREEMAIN R,LV=(0),A=(1)   Release block
 DROP   INCDSN,R2                  20464  1 1938.                DROP  SR                  ## release addressability
 00147A 47F0 7118            01464 20471    1939.              END   ,
0                                  20477    1941.              ¿þþþþþþþþþþþþþþþþþþþþþþþþþþþþþþþþþþþþþþþþÜ
                                   20478    1942.              Ÿ  Release incremental dump pool blocks  Ÿ
                                   20479    1943.              ¾þþþþþþþþþþþþþþþþþþþþþþþþþþþþþþþþþþþþþþþþ»
 00147E 5820 C164            00164 20480    1944.              L     SR,INCPOOL          Set first block
 USING  INCPL,R2                   20481    1945.              WITH  (INCPL,SR),BEGIN    Set addressability for incpool
 001482 1222/4780 7150             20495  1 1946.                WHILE (SR,NZ),BEGIN       Release all blocks
 001488 4100 0056            00056 20511  2 1947.                  LA    R0,L'INCPL          Set length to release
 00148C 1812                       20512  2 1948.                  LR    R1,SR               Set address to release
 00148E 5820 2000            00000 20513  2 1949.                  L     SR,INCPNXT          Set possible next address
 001492 4110 1000/0A0A       00000 20514  2 1950.                  FREEMAIN R,LV=(0),A=(1)   Release incpool block
 001498 47F0 7136            01482 20518  1 1951.                END   ,
 DROP   INCPL,R2                   20523    1952.              END   ,
0                                  20532    1954.              ¿þþþþþþþþþþþþþþþþþþþþþþþþþþþþþþþþþþþþþþþþþÜ
                                   20533    1955.              Ÿ  Close control file if it is left open  Ÿ
                                   20534    1956.              ¾þþþþþþþþþþþþþþþþþþþþþþþþþþþþþþþþþþþþþþþþþ»
 00149C 4120 C92C            0092C 20535    1957.              LA    SR,CNTDCB           Check for open dcb
 USING  IHADCB,R2                  20536    1958.              USING IHADCB,SR           ## Addressability to DCB
 0014A0 9110 2030/47E0_00030       20545    1959.              IF    DCBOFLGS.DCBOFOPN,BEGIN  Close file if open
 0014A8 4110 C3E8/43E1_      003E8 20561  1 1960.                CLOSE ((SR)),MF=(E,CNTOPNL)    Issue close macro
 0014BA 1812                       20568  1 1960.1               LR    R1,SR               Copy address of dcb
 0014BC 4D90 611E            00134 20569  1 1960.2               LCALL FREPOOL             And release buffer pool
 0014C0                            20571    1962.              END   ,
0                                  20576    1963.     *
                                                               ¿þþþþþþþþþþþþþþþþþþþþþþþþþþþþþþþþþþþÜ
                                   20577    1964.              Ÿ  Close history file if left open  Ÿ
                                                               ¾þþþþþþþþþþþþþþþþþþþþþþþþþþþþþþþþþþþ»
                                   20578    1965.     *
 0014C0 4120 C98C            0098C 20579    1966.              LA    SR,HSTDCB           Address of history dcb
 0014C4 9110 2030/47E0_00030       20580    1967.              IF    DCBOFLGS.DCBOFOPN,BEGIN
 0014CC 4110 C3E8/43E1_      003E8 20596  1 1968.                CLOSE ((SR)),MF=(E,CNTOPNL)   CLOSE HISTORY FILE
 0014DE                            20603    1969.              END   ,
 DROP   IHADCB,R2                  20607    1970.              DROP  SR                  ## Release DCB
1VDMP     (VDMP21) (09:46) (22MAR04) ORVYL's File System Dump Program: Start dump tasks                                     Page   87
0Current Usings:  (DUMP,R6) (MAINEXIT,R7) (DWA,R12)
0Loc    Object Code    Addr1 Addr2  Stmt Lv Lineno    Source Statement           (Hibal 5, Asmedit 3.3)  HLASM R4.0  2004/03/22 09.46
+___    ______ ____    _____ _____  ____ __ ______    ______ _________
0                                  20615    1972.              ¿þþþþþþþþþþþþþþþþþþþþþþþþþþþþþþþþþþþþþþþþþþþÜ
                                   20616    1973.              Ÿ  Release history file input/output areas  Ÿ
                                   20617    1974.              ¾þþþþþþþþþþþþþþþþþþþþþþþþþþþþþþþþþþþþþþþþþþþ»
 0014DE 4120 C73C            0073C 20618    1975.              LA    SR,HISTRECA         Address of first area
 0014E2 4130 0004            00004 20619    1976.              LA    TR,4                Check for release of all four
 0014E6 1233/4780 71C0             20620    1977.              WHILE (TR,NZ),BEGIN       Loop through each one
 0014EC 5810 2000/1211       00000 20636  1 1978.                LT    R1,@SR              Load possible address of hiowa
 0014F2 4780 71B4            01500 20640  1 1979.                IF    NZ,BEGIN            Area exists -- release it
 0014F6 4100 00A8            000A8 20651  2 1980.                  LA    R0,L'HISTIO         Set length of area
 0014FA 4110 1000/0A0A       00000 20652  2 1981.                  FREEMAIN R,LV=(0),A=(1)   Release memory
 001500                            20656  1 1982.                END   ,
 001500 4120 2004            00004 20660  1 1983.                LA    SR,@SR+4            Bump to next area
 001504 5B30 724C            01598 20661  1 1984.                S     TR,=A(1)            Decrement count
 001508 47F0 719A            014E6 20662    1985.              END   ,
0                                  20668    1986.01            ¿þþþþþþþþþþþþþþþþþþþþþþþþþþþþþþþþþþþþþþþþþþþþþþþþþþþþþþþþþþþþþÜ
                                   20669    1986.02            Ÿ  Inform VDMP exit that it won't be hearing from us anymore  Ÿ
                                   20670    1986.03            ¾þþþþþþþþþþþþþþþþþþþþþþþþþþþþþþþþþþþþþþþþþþþþþþþþþþþþþþþþþþþþþ»
 00150C 9140 C1C2/47E0_001C2       20671    1986.04            IF    XIT_Active,BEGIN    Make initial entry to exit routine
 001514 58F0 C2D8/12FF       002D8 20686  1 1986.05              LT    R15,XIT_EP          Do we have an exit?
 00151A 4780 71F0            0153C 20690  1 1986.06              IF    NZ,BEGIN            Yes we do, call exit for processing
 00151E 4110 C1CC            001CC 20701  2 1986.07                LA    R1,MAINXPRM         Address of main exit list
 USING  VDMPEXIT,R1                20702  2 1986.08                WITH  (VDMPEXIT,R1)       Addressability to list
 001522 D203 1000 7250 00000 0159C 20715  2 1986.09                MVC   VDMPXID,=CL4'VXIT'  Set parameter list identifier
 001528 D203 1004 7254 00004 015A0 20716  2 1986.1                 MVC   VDMPXLEN,=A(L'VDMPEXIT) And total length of the list
 00152E D203 100C 7258 0000C 015A4 20717  2 1986.11                MVC   VDMPRETC,=A(-1)         Just to be a little nasty
 001534 D203 1008 725C 00008 015A8 20718  2 1986.95                MVC   VDMPFNC,=A(VDMPF_CLOS)  Set for exit intialization
 00153A 0CEF                       20719  2 1986.96                BASSM R14,R15             Enter exit routine in proper amode
 DROP   VDMPEXIT,R1                20720  1 1986.97              END   ,
 00153C                            20729    1986.98            END   ,
-00153C 58D0 C054            00054 20734    1987.              L     R13,VSSAVE          Reset vs save-area address
 001540 5810 C064            00064 20735    1987.01            L     R1,SVA              Load address of our stack
 001544 47F0 7204/0000_      01550 20736    1987.1             STORAGE RELEASE,LENGTH=SVSTCKSZ,ADDR=(1)
 001568 5820 C058            00058 20752    1988.              L     SR,RETCODE          Set FILEDUMP return code
 00156C 181C                       20753    1989.              LR    R1,DWR              Prepare to release workarea
 00156E 4100 0CF6            00CF6 20754    1990.              LA    R0,L'DWA            And set length of workarea
-                                  20756    1990.2             ¿þþþþþþþþþþþþþþþþþþþþþþþþþþþþþþþþþþþþÜ
                                   20757    1990.3             Ÿ  Release global dynamic work area  Ÿ
                                   20758    1990.4             ¾þþþþþþþþþþþþþþþþþþþþþþþþþþþþþþþþþþþþ»
 001572 4110 1000/0A0A       00000 20759    1991.              FREEMAIN R,LV=(0),A=(1)   Release memory
 001578 58E0 D00C            0000C 20763    1992.              L     R14,@R13+12         Restore system return address
 00157C 18F2                       20764    1993.              LR    R15,SR              Set return code for FILEDUMP
 00157E 980C D014            00014 20765    1994.              LM    R0,R12,@R13+20      And the remaining registers
 001582 07FE                       20766    1995.              BR    R14                 Say goodnight Dick
-001588                            20768    1995.2             LTORG ,
 001588 00000000                   20770                             =V(VSEG)
 00158C 00000000                   20771                             =V(VWRITE)
 001590 00000000                   20772                             =V(VCNTRL)
1VDMP     (VDMP21) (09:46) (22MAR04) ORVYL's File System Dump Program: Start dump tasks                                     Page   88
0Current Usings:  (DUMP,R6) (MAINEXIT,R7) (DWA,R12)
0Loc    Object Code    Addr1 Addr2  Stmt Lv Lineno    Source Statement           (Hibal 5, Asmedit 3.3)  HLASM R4.0  2004/03/22 09.46
+___    ______ ____    _____ _____  ____ __ ______    ______ _________
0001594 00000000                   20773                             =V(BTD)
 001598 00000001                   20774                             =A(1)
 00159C E5E7C9E3                   20775                             =CL4'VXIT'
 0015A0 00000048                   20776                             =A(L'VDMPEXIT)
 0015A4 FFFFFFFF                   20777                             =A(-1)
 0015A8 00000004                   20778                             =A(VDMPF_CLOS)
 0015AC E5C4D4D7F9F1F1C9           20779                             =C'VDMP911I - There were '
 0015C2 E5C4D4D7F8F3F1C9           20780                             =C'VDMP831I - Communication task shutdown.'
 0015E9 4093968392A69699           20781                             =C' lockword spin loops.'
1VDMP     (VDMP21) (09:46) (22MAR04) ORVYL's File System Dump Program: Common Routines                                      Page   89
0Current Usings:  (DUMP,R6) (MAINEXIT,R7) (DWA,R12)
0Loc    Object Code    Addr1 Addr2  Stmt Lv Lineno    Source Statement           (Hibal 5, Asmedit 3.3)  HLASM R4.0  2004/03/22 09.46
+___    ______ ____    _____ _____  ____ __ ______    ______ _________
0                                  20786    1996.     ¿þþþþþþþþþþþþþþþþþþþþþþþþþþþþþþþþþþþþþþþþþþþþþþþþþþþþþþþþþþþþþþþþþþþþþÜ
                                   20787    1997.     Ÿ                                                                     Ÿ
                                   20788    1998.     Ÿ  Subroutine to wait for subtask event completions                   Ÿ
                                   20789    1999.     Ÿ                                                                     Ÿ
                                                      ¾þþþþþþþþþþþþþþþþþþþþþþþþþþþþþþþþþþþþþþþþþþþþþþþþþþþþþþþþþþþþþþþþþþþþþ»
-0015FE 5090 D000/902C_      00000 20791    2002.     WTEVENT  PROC  ,                   Enter and save calling registers
 DROP   MAINEXIT,R7
 USING  *,R7
 00160E 0700/5810 C13C_            20832    2003.              EVENTS TABLE=STEVENTS,WAIT=YES      Wait for post of an ECB
 001624                            20843    2004.              LOOP  BEGIN               In case any complete after events
 001624 1841                       20849  1 2005.                LR    QR,R1               Save pointer to ecb list
 001626                            20850  1 2006.                LOOP  BEGIN               Process all completed ecb's
 001626 5850 4000            00000 20856  2 2007.                  L     RR,@QR              Address of next ecb
 00162A 5F50 71DA            017E8 20857  2 2008.                  SL    RR,=A(STECB-SUBTASK)  address of subtask block
 00162E 4150 5000            00000 20858  2 2009.                  LA    RR,@RR              Clear according to AMODE
 USING  SUBTASK,R5                 20859  2 2010.                  WITH  (SUBTASK,RR),BEGIN  Address SUBTASK block
 001632 1815                       20873  3 2011.                    LR    R1,RR               Set for deq from working queue
 001634 4D90 61D8            001EE 20874  3 2012.                    LCALL DEQB                Dequeue it from work queue
 001638 5800 C140            00140 20876  3 2013.                    L     R0,STACTIVE         Set subtask active counter
 00163C 5B00 71DE            017EC 20877  3 2014.                    S     R0,=A(1)              Decrement active counter
 001640 5000 C140            00140 20878  3 2015.                    ST    R0,STACTIVE             Reset subtask active counter
 001644 4110 5014/0A3E       00014 20879  3 2016.                    DETACH STTCB              Detach tcb from address space
 00164A 4100 0014/1B11_      00014 20884  3 2017.                    VCNTL SKIP1               Skip extra line for spacing
 001656 4110 723A/4100_      01848 20900  3 2018.                    VSEG  'VDMP404I - '
 001664 B205 5030      00030       20909  3 2019.                    STCK  STEND               Save ending time for subtask
 001668 9801 5030            00030 20910  3 2020.                    LM    R0,R1,STEND         Prepare for subtract
 00166C 41F0 C010            00010 20911  3 2021.                    LA    R15,CLWTEMP         Set address for conversion
 001670 58E0 71EA/0DEE       017F8 20912  3 2022.                    XCALL FMTTIME             Do conversion
 001676 5890 71E6/0D99       017F4 20916  3 2023.                    VSEG  (R1),(R0)           Add to message
 00167C 4110 7245/4100_      01853 20931  3 2024.                    VSEG  ' Subtask '
 00168A 58F0 501C/1B00_      0001C 20940  3 2025.                    SEGDC 0,STSEQ             Add subtask sequence number
 0016A0 4110 720A/4100_      01818 20979  3 2026.                    VSEG  ' has completed, ECB=x'''
 0016AE 58F0 500C            0000C 20988  3 2032.1                   L     R15,STECB           Set event control block
 0016B2 4100 0008/4110_      00008 20989  3 2033.                    SEGHX 8,(R15)             Add ecb to message
 0016C6 4110 724E/4100_      0185C 21030  3 2034.                    VSEG  ''''                Add closing quote
 0016D4 5890 71F6/0D99       01804 21039  3 2035.                    VWRITE ,                  Write to report file
 0016DA 4100 0010/4110_      00010 21044  3 2036.                    VCNTL BLANK,11            Add spacers
 0016E8 4110 7220/4100_      0182E 21063  3 2037.                    VSEG  'Elapsed time for subtask= '
 0016F6 9801 5030            00030 21072  3 2038.                    LM    R0,R1,STEND         Set ending time
 0016FA 5F10 502C/47B0_      0002C 21073  3 2039.                    SDL   R0,STSTRT           Less starting time
 001708 41F0 C010            00010 21078  3 2040.                    LA    R15,CLWTEMP         Address of conversion workarea
 00170C 58E0 71EA/0DEE       017F8 21079  3 2041.                    XCALL FMTTIME             Convert to time value
 001712 5890 71E6/0D99       017F4 21083  3 2042.                    VSEG  (R1),(R0)           Add to message
 001718 5890 71F6/0D99       01804 21098  3 2043.                    VWRITE ,
 00171E 9160 C1C4/4770_001C4       21103  3 2044.                    IF    ~FLSTOP,BEGIN       Check for abortion in prog
 001726 BF13 500D            0000D 21118  4 2046.                      ICM   R1,3,STECB+1        Set any system abend
 00172A 5410 71FA            01808 21119  4 2047.                      N     R1,=A(X'FFF0')      Strip unwanted bits
 00172E 4780 7130            0173E 21120  4 2048.                      IF    NZ,BEGIN
 001732 9620 C1C4      001C4       21131  5 2048.1                       SET   FLABORT             Set abort now in progress
 001736 41F0 0024            00024 21137  5 2048.2                       LA    R15,RET_SUB         Set subtask abend return code
 00173A 4D90 6206            0021C 21138  5 2048.3                       LCALL SETRETC             Set maximum return coce
 00173E                            21140  4 2048.4                     END   ,
1VDMP     (VDMP21) (09:46) (22MAR04) ORVYL's File System Dump Program: Common Routines                                      Page   90
0Current Usings:  (SUBTASK,R5) (DUMP,R6) (*,R7) (DWA,R12)
0Loc    Object Code    Addr1 Addr2  Stmt Lv Lineno    Source Statement           (Hibal 5, Asmedit 3.3)  HLASM R4.0  2004/03/22 09.46
+___    ______ ____    _____ _____  ____ __ ______    ______ _________
000173E 7134/47F0 714C 0173E 01730 21144  4 2049.                      ELSE  BEGIN               Else check user return code
 001742 58F0 500C            0000C 21155  5 2049.1                       L     R15,STECB           Set event control block
 001746 54F0 71FE            0180C 21156  5 2049.2                       N     R15,=A(X'FFF')      Strip unwanted bits
 00174A 4D90 6206            0021C 21157  5 2049.3                       LCALL SETRETC             Set maximum return code
                                   21159  5 2052.   C                    IF    (R15,GE,=A(ABT_RET)),
 00174E 59F0 7202/4750_      01810        5 2052.01                            'SET FLABORT'       Abort now in progress
 00175A                            21186  4 2053.                      END   ,
 00175A                            21190  3 2054.                    END   ,
000175A 9130 5010/4780_00010       21195  3 2055.                    IF    STCAT+STVER,BEGIN   Special post processing
 001762 947F C1CA      001CA       21213  4 2055.1                     CLEAR STRTRUN             Clear special active running
 001766 9130 C1CA/4770_001CA       21220  4 2056.                      IF    (STRTCAT*STRTVER,Z),'CLEAR STRTREQ'
 001772 7168/47F0 718E 01772 01760 21252  3 2057.                    END   ELSE,BEGIN
 001776 5820 5018            00018 21267  4 2058.                      L     SR,STSUB            Address of subparameter block
 00177A 4130 C130            00130 21268  4 2059.                      LA    TR,SUBCMPLT         Address of complete queue head
 00177E 4D90 6214            0022A 21269  4 2060.                      LCALL QUESUB              Queue subparm block
 001782 9140 C1C1/47E0_001C1       21271  4 2061.                      IF    (FLLOGHST,AND,FNCDMP),BEGIN
 001792 5810 5018            00018 21300  5 2062.                        L     R1,STSUB            Address of subparm block
 001796 5890 7206/0D99       01814 21301  5 2063.                        ACALL DHIST               Add segment record to file
 00179C                            21305  4 2064.                      END   ,
 00179C                            21309  3 2065.                    END   ,
 00179C 9200 5010      00010       21313  3 2066.                    CLEAR STFLGS              Clear subtask block flags
 0017A0 D703 5018 5018 00018 00018 21320  3 2067.                    CLEAR STSUB               Zero subparm pointer (deactivate)
 0017A6 4100 C124            00124 21327  3 2068.                    LA    R0,STANC            Address of subtask anchor
 0017AA 1815                       21328  3 2069.                    LR    R1,RR               Set for enq to available queue
 0017AC 4D90 61A8            001BE 21329  3 2070.                    LCALL ENQB                Enq to available queue
 0017B0 9180 4000      00000       21331  3 2071.                    TM    0(QR),X'80'         Set code for last ecb in list
 0017B4 1824                       21332  3 2072.                    LR    SR,QR               Save last address
 DROP   SUBTASK,R5                 21333  2 2073.                  END   ,                   Release SUBTASK block
 0017B6 4140 4004            00004 21341  2 2074.                  LA    QR,@QR+4            Bump to next possible ecb
 0017BA 47E0 7018            01626 21342  1 2075.                UNTIL ONES,END            Go process next ecb, if any
 0017BE 0700/5810 C13C_            21361  1 2076.                EVENTS TABLE=STEVENTS,LAST=(SR),WAIT=NO
 0017D4 1211/4770 7016             21372    2077.              UNTIL (R1,Z),END          If any completed, try again
 0017DA 18D8/982C D004_            21394    2078.              PEND  ,                   Restore calling registers
 DROP   *,R7
 USING  MAINEXIT,R7
1VDMP     (VDMP21) (09:46) (22MAR04) ORVYL's File System Dump Program: Common Routines                                      Page   91
0Current Usings:  (DUMP,R6) (MAINEXIT,R7) (DWA,R12)
0Loc    Object Code    Addr1 Addr2  Stmt Lv Lineno    Source Statement           (Hibal 5, Asmedit 3.3)  HLASM R4.0  2004/03/22 09.46
+___    ______ ____    _____ _____  ____ __ ______    ______ _________
0                                  21422    2079.01   ¿þþþþþþþþþþþþþþþþþþþþþþþþþþþþþþþþþþþþþþþþþþþþþþþþþþþþþþþþþþþþþþþþþþþþþÜ
                                   21423    2079.02   Ÿ                                                                     Ÿ
                                   21424    2079.03   Ÿ  Define literal pool                                                Ÿ
                                   21425    2079.04   Ÿ                                                                     Ÿ
                                                      ¾þþþþþþþþþþþþþþþþþþþþþþþþþþþþþþþþþþþþþþþþþþþþþþþþþþþþþþþþþþþþþþþþþþþþþ»
-0017E8                            21427    2080.              LTORG ,
 0017E8 0000000C                   21429                             =A(STECB-SUBTASK)
 0017EC 00000001                   21430                             =A(1)
 0017F0 00000000                   21431                             =V(VCNTRL)
 0017F4 00000000                   21432                             =V(VSEG)
 0017F8 00000000                   21433                             =V(FMTTIME)
 0017FC 00000000                   21434                             =V(BTD)
 001800 00000000                   21435                             =V(BTX)
 001804 00000000                   21436                             =V(VWRITE)
 001808 0000FFF0                   21437                             =A(X'FFF0')
 00180C 00000FFF                   21438                             =A(X'FFF')
 001810 0000000C                   21439                             =A(ABT_RET)
 001814 00001A7C                   21440                             =A(DHIST)
 001818 408881A240839694           21441                             =C' has completed, ECB=x'''
 00182E C5938197A2858440           21442                             =C'Elapsed time for subtask= '
 001848 E5C4D4D7F4F0F4C9           21443                             =C'VDMP404I - '
 001853 40E2A482A381A292           21444                             =C' Subtask '
 00185C 7D                         21445                             =C''''
1VDMP     (VDMP21) (09:46) (22MAR04) ORVYL's File System Dump Program: Common Routines                                      Page   92
0Current Usings:  (DUMP,R6) (MAINEXIT,R7) (DWA,R12)
0Loc    Object Code    Addr1 Addr2  Stmt Lv Lineno    Source Statement           (Hibal 5, Asmedit 3.3)  HLASM R4.0  2004/03/22 09.46
+___    ______ ____    _____ _____  ____ __ ______    ______ _________
0                                  21450    2082.     ¿þþþþþþþþþþþþþþþþþþþþþþþþþþþþþþþþþþþþþþþþþþþþþþþþþþþþþþþþþþþþþþþþþþþþþÜ
                                   21451    2083.     Ÿ                                                                     Ÿ
                                   21452    2084.     Ÿ  Report global I/O statistics for dump/incremental functions        Ÿ
                                   21453    2085.     Ÿ                                                                     Ÿ
                                                      ¾þþþþþþþþþþþþþþþþþþþþþþþþþþþþþþþþþþþþþþþþþþþþþþþþþþþþþþþþþþþþþþþþþþþþþ»
-00185E 5090 D000/902C_      00000 21455    2088.     GLBRPT   PROC  ,                   Enter and save calling registers
 DROP   MAINEXIT,R7
 USING  *,R7
 00186E 91C0 C1C6/4780_001C6       21496    2089.              IF    FNCDMP+FNCINC,BEGIN Report global statistics
 001876 5890 7552/0D99       01DC0 21514  1 2090.                VWRITE ,                  Write blank line to report
 00187C 4110 75DE/4100_      01E4C 21519  1 2091.                VSEG  'VDMP201I - GLOBAL I/O statistic report for filedump'
 00188A 5890 7552/0D99       01DC0 21528  1 2092.                VWRITE ,                  Write to report file
 001890 4100 0010/4110_      00010 21533  1 2092.01              VCNTL BLANK,11            Add spaces to report line
 00189E 4110 7611/4100_      01E7F 21552  1 2092.02              VSEG  'Total elapsed time='
 0018AC B205 C010      00010       21561  1 2092.03              STCK  CLWTEMP             Set ending STCK time
 0018B0 9801 C010            00010 21562  1 2092.04              LM    R0,R1,CLWTEMP       Retrieve ending time
 0018B4 5F10 C034/47B0_      00034 21563  1 2092.05              SDL   R0,CLCKSTRT         Subtract starting time
 0018C2 41F0 C010            00010 21568  1 2092.06              LA    R15,CLWTEMP         Set conversion work area
 0018C6 58E0 755E/0DEE       01DCC 21569  1 2092.86              XCALL FMTTIME             Convert to a time value
 0018CC 5890 7556/0D99       01DC4 21573  1 2092.89              VSEG  (R1),(R0)           Add to message line
 0018D2 5890 7552/0D99       01DC0 21588  1 2092.91              VWRITE ,                  Write to report file
 0018D8 4100 0010/4110_      00010 21593  1 2092.92              VCNTL BLANK,11            Add spaces to report line
 0018E6 4110 7586/4100_      01DF4 21612  1 2092.93              VSEG  'With tasking level set at '
 0018F4 9140 C1C6/47E0_001C6       21621  1 2092.94              IF    FNCINC,BEGIN        Report incremental tasking
 0018FC 58F0 C118/1B00_      00118 21636  2 2092.95                SEGDC 0,L:INCLVL          Set appropriate level
 001912 70A8/47F0 70BE 01912 018FA 21675  1 2092.96              END   ELSE,BEGIN          Else report full dump level
 001916 58F0 C11C/1B00_      0011C 21690  2 2092.97                SEGDC 0,L:DMPLVL          Set appropriate level
 00192C                            21729  1 2092.98              END   ,
 00192C 5890 7552/0D99       01DC0 21733  1 2092.99              VWRITE ,                  Write to report file
 001932 4100 0010/4110_      00010 21738  1 2093.                VCNTL BLANK,11            Add spaces to report line
 001940 B205 C010      00010       21757  1 2093.1               STCK  CLWTEMP             Set ending STCK time
 001944 9801 C010            00010 21758  1 2095.                LM    R0,R1,CLWTEMP       Set ending time into register
 001948 9001 D000/41D0_      00000 21759  1 2096.                VPUSH R0,R1,*             Push ending stck time for later
 001950 9823 C030            00030 21762  1 2097.                LM    SR,TR,CLCKSTRT      Set begin stck value
 001954 58F0 C18C            0018C 21763  1 2098.                L     R15,GIOCNT          Set global I/O's done
 001958 4D90 6260            00276 21764  1 2099.                LCALL RATECOMP            Compute global I/O rate
 00195C 4110 C010            00010 21766  1 2100.                LA    R1,CLWTEMP          Address of work area
 001960 4100 0002            00002 21767  1 2101.                LA    R0,2                Set precision level
 001964 58E0 7566/0DEE       01DD4 21768  1 2102.                XCALL BTR                 Convert into I/O's per second
 00196A 5890 7556/0D99       01DC4 21772  1 2103.                VSEG  (R1),(R0)           Add to message
 001970 4110 75A0/4100_      01E0E 21787  1 2104.                VSEG  ' I/O''s per second.'
 00197E 5890 7552/0D99       01DC0 21796  1 2105.                VWRITE ,                  Write to report file
 001984 4100 0010/4110_      00010 21801  1 2106.                VCNTL BLANK,11            Add spaces to report line
 001992 4BD0 75B2/9801_      01E20 21820  1 2107.                VPOP  R0,R1,*             Restore ending stck time
 00199A 9823 C030            00030 21823  1 2108.                LM    SR,TR,CLCKSTRT      Set begin stck value
 00199E 58F0 C190            00190 21824  1 2109.                L     R15,GIOBLKS         Set global blocks processed
 0019A2 4D90 6260            00276 21825  1 2110.                LCALL RATECOMP            Compute blocks/second value
 0019A6 4110 C010            00010 21827  1 2111.                LA    R1,CLWTEMP          Address of work area
 0019AA 4100 0002            00002 21828  1 2112.                LA    R0,2                Set precision
 0019AE 58E0 7566/0DEE       01DD4 21829  1 2113.                XCALL BTR                 Convert into blocks per second
 0019B4 5890 7556/0D99       01DC4 21833  1 2114.                VSEG  (R1),(R0)           Add to message
 0019BA 4110 7624/4100_      01E92 21848  1 2115.                VSEG  ' blocks per second.'
1VDMP     (VDMP21) (09:46) (22MAR04) ORVYL's File System Dump Program: Common Routines                                      Page   93
0Current Usings:  (DUMP,R6) (*,R7) (DWA,R12)
0Loc    Object Code    Addr1 Addr2  Stmt Lv Lineno    Source Statement           (Hibal 5, Asmedit 3.3)  HLASM R4.0  2004/03/22 09.46
+___    ______ ____    _____ _____  ____ __ ______    ______ _________
00019C8 5890 7552/0D99       01DC0 21857  1 2116.                VWRITE ,                  Write to report file
 0019CE                            21862    2117.              END   ,
 0019CE 18D8/982C D004_            21866    2118.              PEND  ,                   Return to caller
 DROP   *,R7
 USING  MAINEXIT,R7
1VDMP     (VDMP21) (09:46) (22MAR04) ORVYL's File System Dump Program: Common Routines                                      Page   94
0Current Usings:  (DUMP,R6) (MAINEXIT,R7) (DWA,R12)
0Loc    Object Code    Addr1 Addr2  Stmt Lv Lineno    Source Statement           (Hibal 5, Asmedit 3.3)  HLASM R4.0  2004/03/22 09.46
+___    ______ ____    _____ _____  ____ __ ______    ______ _________
0                                  21894    2120.     ¿þþþþþþþþþþþþþþþþþþþþþþþþþþþþþþþþþþþþþþþþþþþþþþþþþþþþþþþþþþþþþþþþþþþþþÜ
                                   21895    2121.     Ÿ                                                                     Ÿ
                                   21896    2122.     Ÿ  Log incremental data set to history file                           Ÿ
                                   21897    2123.     Ÿ                                                                     Ÿ
                                   21898    2123.1    Ÿ    Entry:    R1 - Address of INCDSN control block                   Ÿ
                                   21899    2123.2    Ÿ                                                                     Ÿ
                                                      ¾þþþþþþþþþþþþþþþþþþþþþþþþþþþþþþþþþþþþþþþþþþþþþþþþþþþþþþþþþþþþþþþþþþþþþ»
-0019DC 5090 D000/902C_      00000 21901    2126.     INCLOGD  PROC  ,                   Enter and save registers
 DROP   MAINEXIT,R7
 USING  *,R7
 0019EC 1831                       21942    2126.1             LR    R3,R1               Set address of INCDSN
 USING  INCDSN,R3                  21943    2127.97            WITH  (INCDSN,R3)         Addressability to INCDSN
 0019EE 4110 0002            00002 21956    2128.              LA    R1,2                Set buffer number two
 0019F2 4D90 636C            00382 21957    2129.              LCALL GRADR               Compute address of record
 0019F6 1821                       21959    2130.              LR    R2,R1               Save address of buffer
 USING  HISIREC,R2                 21960    2131.              WITH  (HISIREC,R2)        Addressability to record
 0019F8 D603 2010 2010_00010 00010 21973    2132.              IF    (HISIPOOL,Z),BEGIN  First record coming in
 001A02 4100 0003            00003 21989  1 2133.                LA    R0,3                Set buffer three
 001A06 5890 73EC/0D99       01DD8 21990  1 2134.                ACALL GETREC              Get next record
 USING  HISPREC,R1                 21994  1 2135.                WITH  (HISPREC,R1),BEGIN  Incremental pool record
 001A0C D203 2010 1000 00010 00000 22008  2 2136.                  MVC   HISIPOOL,HISPBLK    Chain to incremental record
 001A12 4100 0002            00002 22009  2 2137.                  LA    R0,2                Set buffer two
 001A16 1300                       22010  2 2138.                  LCR   R0,R0               Indicate write request
 001A18 5890 73F0/0D99       01DDC 22011  2 2139.                  ACALL HIO                 Write updated incremtantal block
 DROP   HISPREC,R1                 22015  1 2140.                END   ,
 001A1E 7036/47F0 7062 01A1E 01A00 22023    2141.              END   ELSE,BEGIN
 001A22 4110 0001            00001 22038  1 2142.                LA    R1,1                Set master buffer
 001A26 4D90 636C            00382 22039  1 2143.                LCALL GRADR               Compute address of record
 USING  HISBREC,R1                 22041  1 2144.                WITH  (HISBREC,R1),BEGIN  Addressability to record
 001A2A 5800 1010            00010 22055  2 2145.                  L     R0,HISBFREE         Next free record
 001A2E 4110 0003            00003 22056  2 2146.                  LA    R1,3                Set buffer three
 001A32 4D90 636C            00382 22057  2 2147.                  LCALL GRADR               Compute address of record
 DROP   HISBREC,R1                 22059  1 2148.                END   ,
 USING  HISPREC,R1                 22067  1 2149.                WITH  (HISPREC,R1),BEGIN  Incremental pool record
 001A36 5000 1004            00004 22081  2 2150.                  ST    R0,HISPNXT          Add new record to the end
 001A3A 4100 0003            00003 22082  2 2151.                  LA    R0,3                Set buffer three
 001A3E 5890 73F4/0D99       01DE0 22083  2 2152.                  ACALL CLRIO               Write record out
 001A44 4100 0003            00003 22087  2 2153.                  LA    R0,3                Set buffer three
 001A48 5890 73EC/0D99       01DD8 22088  2 2154.                  ACALL GETREC              Allocate the buffer
 DROP   HISPREC,R1                 22092  1 2155.                END   ,
 001A4E                            22100    2156.              END   ,
 USING  HISPREC,R1                 22104    2157.              WITH  (HISPREC,R1),BEGIN  Addressability
 001A4E 4110 0003            00003 22118  1 2158.                LA    R1,3                Set buffer three
 001A52 4D90 636C            00382 22119  1 2159.                LCALL GRADR               Compute address of record
 001A56 D203 100C C030 0000C 00030 22121  1 2160.                MVC   HISPCLCK,CLCKSTRT   Set starting tod clock value
 001A5C D22B 1010 3018 00010 00018 22122  1 2161.                MVC   HISPDSN,INCDDSN     Set data set name
 001A62 4100 0003            00003 22123  1 2162.                LA    R0,3                Set buffer three
 001A66 1300                       22124  1 2163.                LCR   R0,R0               Indicate write
 001A68 5890 73F0/0D99       01DDC 22125  1 2164.                ACALL HIO                 Write record to file
 DROP   HISPREC,R1                 22129    2165.              END   ,
 001A6E 18D8/982C D004_            22137    2166.              PEND  ,                   Restore and return
 DROP   HISIREC,R2
1VDMP     (VDMP21) (09:46) (22MAR04) ORVYL's File System Dump Program: Common Routines                                      Page   95
0Current Usings:  (DUMP,R6) (MAINEXIT,R7) (DWA,R12)
0Loc    Object Code    Addr1 Addr2  Stmt Lv Lineno    Source Statement           (Hibal 5, Asmedit 3.3)  HLASM R4.0  2004/03/22 09.46
+___    ______ ____    _____ _____  ____ __ ______    ______ _________
0DROP   INCDSN,R3
 DROP   *,R7
 USING  MAINEXIT,R7
1VDMP     (VDMP21) (09:46) (22MAR04) ORVYL's File System Dump Program: Common Routines                                      Page   96
0Current Usings:  (DUMP,R6) (MAINEXIT,R7) (DWA,R12)
0Loc    Object Code    Addr1 Addr2  Stmt Lv Lineno    Source Statement           (Hibal 5, Asmedit 3.3)  HLASM R4.0  2004/03/22 09.46
+___    ______ ____    _____ _____  ____ __ ______    ______ _________
0                                  22175    2168.     ¿þþþþþþþþþþþþþþþþþþþþþþþþþþþþþþþþþþþþþþþþþþþþþþþþþþþþþþþþþþþþþþþþþþþþþÜ
                                   22176    2169.     Ÿ                                                                     Ÿ
                                   22177    2170.     Ÿ  Add dump segment to dump queue in history file                     Ÿ
                                   22178    2171.     Ÿ                                                                     Ÿ
                                                      ¾þþþþþþþþþþþþþþþþþþþþþþþþþþþþþþþþþþþþþþþþþþþþþþþþþþþþþþþþþþþþþþþþþþþþþ»
-001A7C 5090 D000/902C_      00000 22180    2174.     DHIST    PROC  ,                   Add dump segment to dumpblock
 DROP   MAINEXIT,R7
 USING  *,R7
 001A8C 1841                       22221    2175.              LR    QR,R1               Save address to subparm block
 USING  SUBPARM,R4                 22222    2176.              WITH (SUBPARM,QR)         ## addressability to block
 001A8E 4110 0001            00001 22235    2177.              LA    R1,1                Set buffer number one
 001A92 4D90 636C            00382 22236    2178.              LCALL GRADR                 Generate address
 001A96 1821                       22238    2179.              LR    SR,R1                   Move address
 USING  HISBREC,R2                 22239    2180.              USING HISBREC,SR                ## Base block addressability
 001A98 5810 2010            00010 22248    2181.              L     R1,HISBFREE         Next free block on queue
 001A9C 4100 0003            00003 22249    2182.              LA    R0,3                  Set buffer number three
 001AA0 5890 7350/0D99       01DDC 22250    2183.              ACALL HIO                     Read free block in
 001AA6 1831                       22254    2184.              LR    TR,R1               Copy free block address
 USING  HISSREC,R3                 22255    2185.              USING HISSREC,TR            ## Addressability to segment
 001AA8 D203 2010 3004 00010 00004 22264    2186.              MVC   HISBFREE,HISSNXT        Update free block pointer
 001AAE D703 3004 3004 00004 00004 22265    2187.              CLEAR HISSNXT                   Zero segment forward ptr
 001AB4 D22B 3010 4025 00010 00025 22272    2188.              MVC   HISSDSN,SUBTAPE     Set completed data set name
 001ABA D203 303C 401C 0003C 0001C 22273    2189.              MVC   HISSRC,SUBRET       Set return code
 001AC0 D203 300C C030 0000C 00030 22274    2190.              MVC   HISSTIME,CLCKSTRT   Set starting time for task
 001AC6 4100 0001            00001 22275    2191.              LA    R0,1                Set buffer number one
 001ACA 1300                       22276    2192.              LCR   R0,R0                 Indicate write
 001ACC 5890 7350/0D99       01DDC 22277    2193.              ACALL HIO                     Update base block
 DROP   HISBREC,R2                 22281    2194.              DROP  SR                  ## Release base block
 001AD2 4110 0002            00002 22288    2195.              LA    R1,2                Set buffer number two
 001AD6 4D90 636C            00382 22289    2196.              LCALL GRADR               Generate address
 001ADA 1821                       22291    2197.              LR    SR,R1               Copy address
 USING  HISDREC,R2                 22292    2198.              USING HISDREC,SR          ## Addressability to dump block
 001ADC D203 3004 2014 00004 00014 22301    2199.              MVC   HISSNXT,HISDSEG       Chain me to front
 001AE2 D203 2014 3000 00014 00000 22302    2200.              MVC   HISDSEG,HISSBLK         Of the chain
 001AE8 4100 0002            00002 22303    2201.              LA    R0,2                Set buffer number two
 001AEC 1300                       22304    2202.              LCR   R0,R0                 Indicate write request
 001AEE 5890 7350/0D99       01DDC 22305    2203.              ACALL HIO                     Write out dump block
 001AF4 4100 0003            00003 22309    2204.              LA    R0,3                Set buffer number three
 001AF8 5890 7354/0D99       01DE0 22310    2205.              ACALL CLRIO                 Write and clear record
 DROP   HISSREC,R3                 22314    2206.              DROP  TR                  ## Release segment record
 DROP   HISDREC,R2                 22321    2208.              DROP  SR                  ## Release record
 001AFE 18D8/982C D004_            22328    2209.              PEND  ,                   And return to caller
 DROP   SUBPARM,R4
 DROP   *,R7
 USING  MAINEXIT,R7
1VDMP     (VDMP21) (09:46) (22MAR04) ORVYL's File System Dump Program: Common Routines                                      Page   97
0Current Usings:  (DUMP,R6) (MAINEXIT,R7) (DWA,R12)
0Loc    Object Code    Addr1 Addr2  Stmt Lv Lineno    Source Statement           (Hibal 5, Asmedit 3.3)  HLASM R4.0  2004/03/22 09.46
+___    ______ ____    _____ _____  ____ __ ______    ______ _________
0                                  22361    2211.     ¿þþþþþþþþþþþþþþþþþþþþþþþþþþþþþþþþþþþþþþþþþþþþþþþþþþþþþþþþþþþþþþþþþþþþþÜ
                                   22362    2212.     Ÿ                                                                     Ÿ
                                   22363    2213.     Ÿ  Report error in dynamic allocation request                         Ÿ
                                   22364    2214.     Ÿ                                                                     Ÿ
                                   22365    2215.     Ÿ              R1   -  Contains address of the svc 99 request         Ÿ
                                   22366    2216.     Ÿ                      block                                          Ÿ
                                   22367    2217.     Ÿ                                                                     Ÿ
                                   22368    2218.     Ÿ              R15  -  Contains the return code from svc 99           Ÿ
                                   22369    2219.     Ÿ                                                                     Ÿ
                                                      ¾þþþþþþþþþþþþþþþþþþþþþþþþþþþþþþþþþþþþþþþþþþþþþþþþþþþþþþþþþþþþþþþþþþþþþ»
-000000                00000 00014 22371    2222.     DYNWRK   RECORD BEGIN              Dynamic allocation work area
 000000 0000000000000000           22379  1 2224.     DYNCONV    DC    2D'0'               Reserve conversion work area
 000010 00000000                   22380  1 2224.1    DYNERBP    DC    A(0)                Pointer to error SVC 99 RB
 000014                00014 00014 22381    2225.              END   ,
0001B0C 5090 D000/902C_      00000 22391    2227.     DYNERR   PROC  DYNWRK              Enter and save registers
 DROP   MAINEXIT,R7
 USING  *,R7
 USING  DYNWRK-(4+44),R8
 001B1C 1821                       22443    2236.              LR    R2,R1               Copy parameter address
 001B1E 5020 8040            00010 22444    2236.1             ST    R2,DYNERBP          Save off SVC99 RB for later
 001B22 183F                       22445    2237.              LR    R3,R15              Copy return code from svc99
 001B24 4100 0014/1B11_      00014 22446    2238.              VCNTL SKIP1               Skip blank line in output
 001B30 4110 7389/4100_      01EA5 22462    2239.              VSEG  'VDMP732E - '       Set dynamic error message
 001B3E 4110 7306/4100_      01E22 22471    2240.              VSEG  'Dynamic allocation failed, RETURN('
 001B4C 18F3/1B00/4110_            22480    2241.              SEGDC 0,(R3),WORK=DYNCONV Add return code
 001B60 4110 7394/4100_      01EB0 22519    2242.              VSEG  ')'                 Add trailing parend
 001B6E 5890 72A4/0D99       01DC0 22528    2243.              VWRITE ,                  Write error message
 001B74 4100 0010/4110_      00010 22533    2244.              VCNTL BLANK,11            Add separator blanks
 001B82 4110 7328/4100_      01E44 22552    2245.              VSEG  'Error('            Report error code
 001B90 1FFF/BFF3 2004             22561    2246.              L2    R15,@R2+4           Set error code from RB
 001B96 4100 0004/4110_      00004 22569    2247.              SEGHX 4,(R15),WORK=DYNCONV add error code
 001BAA 4110 7395/4100_      01EB1 22610    2248.              VSEG  ') Reason('         Set reason code
 001BB8 1FFF/BFF3 2006             22619    2249.              L2    R15,@R2+6           Set error code from rb
 001BBE 4100 0004/4110_      00004 22627    2250.              SEGHX 4,(R15),WORK=DYNCONV add reason code
 001BD2 4110 7394/4100_      01EB0 22668    2251.              VSEG  ')'                 Complete message line
 001BE0 5890 72A4/0D99       01DC0 22677    2252.              VWRITE ,
 001BE6 4100 0010/4110_      00010 22682    2253.              VCNTL BLANK,11            Add separator blanks
 001BF4 18F2/4100 0008_            22701    2254.              SEGHX 8,(R2),WORK=DYNCONV Address of svc99 rb
 001C0A 4110 739E/4100_      01EBA 22743    2255.              VSEG  ' - '               Add spacers
 001C18 4130 0005            00005 22752    2256.              LA    R3,5                Set counter to five words
 001C1C                            22753    2257.              LOOP  BEGIN
 001C1C 58F0 2000            00000 22759  1 2258.                L     R15,@R2             Set word into conversion reg
 001C20 4100 0008/4110_      00008 22760  1 2259.                SEGHX 8,(R15),WORK=DYNCONV add to message
 001C34 4110 73A1/4100_      01EBD 22801  1 2260.                VSEG  ' '                 Add spaces
 001C42 4120 2004            00004 22810  1 2261.                LA    R2,@R2+4            Increment rb address
 001C46 5B30 72CC            01DE8 22811  1 2262.                S     R3,=A(1)            Decrement counter
 001C4A 4770 7100            01C1C 22812    2263.              UNTIL Z,END               Continue dump
 001C4E 5890 72A4/0D99       01DC0 22831    2264.              VWRITE ,                  Write final line
1VDMP     (VDMP21) (09:46) (22MAR04) ORVYL's File System Dump Program: Common Routines                                      Page   98
0Current Usings:  (DUMP,R6) (*,R7) (DYNWRK-(4+44),R8) (DWA,R12)
0Loc    Object Code    Addr1 Addr2  Stmt Lv Lineno    Source Statement           (Hibal 5, Asmedit 3.3)  HLASM R4.0  2004/03/22 09.46
+___    ______ ____    _____ _____  ____ __ ______    ______ _________
0                                                              ¿þþþþþþþþþþþþþþþþþþþþþþþþþþþþþþþþþþþþþþþþþþþþþþþþþþÜ
                                   22836    2264.01            Ÿ  Dump out the text unit pointers and text units  Ÿ
                                                               ¾þþþþþþþþþþþþþþþþþþþþþþþþþþþþþþþþþþþþþþþþþþþþþþþþþþ»
 001C54 5820 8040            00010 22837    2264.02            L     R2,DYNERBP          Reload address of svc99 rb
 001C58 5820 2008            00008 22838    2264.03            L     R2,S99TXTPP-S99RB(,R2)  address of text unit pointers
 001C5C                            22839    2264.04            LOOP  BEGIN               Chain through pointers
 001C5C 4100 0010/4110_      00010 22845  1 2264.05              VCNTL BLANK,11            Tab over for unit pointers
 001C6A 18F2/4100 0008_            22864  1 2264.06              SEGHX 8,(R2),WORK=DYNCONV Convert unit pointer
 001C80 4110 72D0/4100_      01DEC 22906  1 2264.07              VSEG  ' - ('              Open for unit, length, count
 001C8E 5830 2000            00000 22915  1 2264.08              L     R3,@R2              Load text unit pointer
 001C92 1F66/BF63 3000             22916  1 2264.09              L2    R6,@R3              Load unit verb
 001C98 18F6/4100 0004_            22924  1 2264.1               SEGHX 4,(R6),WORK=DYNCONV Convert unit value
 001CAE 4110 73A2/4100_      01EBE 22966  1 2264.11              VSEG  ','                 Add separator
 001CBC 1F55/BF53 3002             22975  1 2264.12              L2    R5,@R3+2            Load count (or length ?)
 001CC2 18F5/4100 0004_            22983  1 2264.13              SEGHX 4,(R5),WORK=DYNCONV Convert count
 001CD8 4110 73A2/4100_      01EBE 23025  1 2264.14              VSEG  ','                 Add spearator
 001CE6 1F66/BF63 3004             23034  1 2264.15              L2    R6,@R3+4            Load length
 001CEC 18F6/4100 0004_            23042  1 2264.16              SEGHX 4,(R6),WORK=DYNCONV Add length to message
 001D02 4110 732E/4100_      01E4A 23084  1 2264.17              VSEG  ') '                Terminate message line
 001D10 1255/4780 722C             23093  1 2264.18              IF    (R5,NZ),BEGIN       Only if count is > 0
 001D16 5960 72D4/4730_      01DF0 23107  2 2264.19                IF    (R6,LE,4),BEGIN     Dump in hex
 001D1E 1806                       23124  3 2264.2                   LR    R0,R6               Copy length of string
 001D20 8900 0001            00001 23125  3 2264.21                  SLL   R0,1                Convert to conversion length
 001D24 BFFF 3006            00006 23126  3 2264.22                  L4    R15,@R3+6           Load up value
 001D28 4110 8030/58E0_      00000 23128  3 2264.23                  SEGHX (R0),(R15),WORK=DYNCONV
 001D38 7220/47F0 722C 01D38 01D1C 23166  2 2264.24                END   ELSE,BEGIN          Report in EBCDIC
 001D3C 4110 3006/1806_      00006 23181  3 2264.25                  VSEG  @R3+6,(R6)          Add parameter to line
 001D48                            23200  2 2264.26                END   ,
 001D48                            23204  1 2264.27              END   ,
 001D48 5890 72A4/0D99       01DC0 23208  1 2264.96              VWRITE ,                  Write to report file
 001D4E 9180 2000      00000       23213  1 2264.97              TM    @R2,X'80'           Test for last pointer unit
 001D52 4120 2004            00004 23214  1 2264.98              LA    R2,@R2+4            Bump to next potential pointer
 001D56 47E0 7140            01C5C 23215    2264.99            UNTIL ONES,END            Back to next pointer
 001D5A 18D8/982C D004_            23234    2266.              PEND  ,                   Restore and return to caller
 DROP   DYNWRK-(4+44),R8
 DROP   *,R7
 USING  MAINEXIT,R7
1VDMP     (VDMP21) (09:46) (22MAR04) ORVYL's File System Dump Program: Common Routines                                      Page   99
0Current Usings:  (DUMP,R6) (MAINEXIT,R7) (DWA,R12)
0Loc    Object Code    Addr1 Addr2  Stmt Lv Lineno    Source Statement           (Hibal 5, Asmedit 3.3)  HLASM R4.0  2004/03/22 09.46
+___    ______ ____    _____ _____  ____ __ ______    ______ _________
0                                  23267    2270.     ¿þþþþþþþþþþþþþþþþþþþþþþþþþþþþþþþþþþþþþþþþþþþþþþþþþþþþþþþþþþþþþþþþþþþþþÜ
                                   23268    2271.     Ÿ                                                                     Ÿ
                                   23269    2272.     Ÿ  Identify subroutine to validate an ATTACH entry point name         Ÿ
                                   23270    2273.     Ÿ                                                                     Ÿ
                                                      ¾þþþþþþþþþþþþþþþþþþþþþþþþþþþþþþþþþþþþþþþþþþþþþþþþþþþþþþþþþþþþþþþþþþþþþ»
-001D68 5090 D000/902C_      00000 23272    2276.     IDENT    PROC  ,                   Enter and save registers
 DROP   MAINEXIT,R7
 USING  *,R7
 001D78 0A29                       23313    2277.              IDENTIFY EPLOC=(0),ENTRY=(1) Identify specified entry point
 001D7A 12FF/4780 7034             23316    2278.              IF    (R15,NZ),BEGIN      Identify error has occurred
 001D80 182F                       23330  1 2279.                LR    SR,R15              Save return code
 001D82 4110 7147/4100_      01EBF 23331  1 2280.                VSEG  'VDMP051E - IDENTIFY of subtask failed, return is '
 001D90 18F2/1B00/4110_            23340  1 2281.                SEGDC 0,(SR)              Add return code from identify
 001DA4 5890 7048/0D99       01DC0 23379  1 2282.                VWRITE ,                  Write to report file
 001DAA 18F2                       23384  1 2283.                LR    R15,SR              Reset return code
 001DAC                            23385    2284.              END   ,
 001DAC 18D8/982C D004_            23389    2285.              PEND  ,                   Return to caller with code set
 DROP   *,R7
 USING  MAINEXIT,R7
1VDMP     (VDMP21) (09:46) (22MAR04) ORVYL's File System Dump Program: Common Routines                                      Page  100
0Current Usings:  (DUMP,R6) (MAINEXIT,R7) (DWA,R12)
0Loc    Object Code    Addr1 Addr2  Stmt Lv Lineno    Source Statement           (Hibal 5, Asmedit 3.3)  HLASM R4.0  2004/03/22 09.46
+___    ______ ____    _____ _____  ____ __ ______    ______ _________
0                                  23417    2286.1    *
                                   23418    2286.2    *  GENERATE LITERAL POOL
                                   23419    2286.3    *
0001DC0                            23421    2286.5             LTORG ,
 001DC0 00000000                   23423                             =V(VWRITE)
 001DC4 00000000                   23424                             =V(VSEG)
 001DC8 00000000                   23425                             =V(VCNTRL)
 001DCC 00000000                   23426                             =V(FMTTIME)
 001DD0 00000000                   23427                             =V(BTD)
 001DD4 00000000                   23428                             =V(BTR)
 001DD8 0000389E                   23429                             =A(GETREC)
 001DDC 00003668                   23430                             =A(HIO)
 001DE0 000037BC                   23431                             =A(CLRIO)
 001DE4 00000000                   23432                             =V(BTX)
 001DE8 00000001                   23433                             =A(1)
 001DEC 4060404D                   23434                             =C' - ('
 001DF0 00000004                   23435                             =A(4)
 001DF4 E689A38840A381A2           23436                             =C'With tasking level set at '
 001E0E 40C961D67DA24097           23437                             =C' I/O''s per second.'
 001E20 0008                       23438                             =Y((R1+1-(R0)+16*((R0)/(R1+1))/((R0)/(R1+1)))*4)
 001E22 C4A8958194898340           23439                             =C'Dynamic allocation failed, RETURN('
 001E44 C5999996994D               23440                             =C'Error('
 001E4A 5D40                       23441                             =C') '
 001E4C E5C4D4D7F2F0F1C9           23442                             =C'VDMP201I - GLOBAL I/O statistic report for filedump'
 001E7F E396A38193408593           23443                             =C'Total elapsed time='
 001E92 408293968392A240           23444                             =C' blocks per second.'
 001EA5 E5C4D4D7F7F3F2C5           23445                             =C'VDMP732E - '
 001EB0 5D                         23446                             =C')'
 001EB1 5D40D98581A29695           23447                             =C') Reason('
 001EBA 406040                     23448                             =C' - '
 001EBD 40                         23449                             =C' '
 001EBE 6B                         23450                             =C','
 001EBF E5C4D4D7F0F5F1C5           23451                             =C'VDMP051E - IDENTIFY of subtask failed, return is '
1VDMP     (VDMP21) (09:46) (22MAR04) ORVYL's File System Dump Program: Common Routines                                      Page  101
0Current Usings:  (DUMP,R6) (MAINEXIT,R7) (DWA,R12)
0Loc    Object Code    Addr1 Addr2  Stmt Lv Lineno    Source Statement           (Hibal 5, Asmedit 3.3)  HLASM R4.0  2004/03/22 09.46
+___    ______ ____    _____ _____  ____ __ ______    ______ _________
0                                  23456    2287.6    ¿þþþþþþþþþþþþþþþþþþþþþþþþþþþþþþþþþþþþþþþþþþþþþþþþþþþþþþþþþþþþþþþþþþþþþÜ
                                   23457    2288.6    Ÿ                                                                     Ÿ
                                   23458    2289.6    Ÿ  LRTRIM -- Trim left and right-side (leading/trailing) blanks.      Ÿ
                                   23459    2290.6    Ÿ                                                                     Ÿ
                                   23460    2291.6    Ÿ    On entry:                                                        Ÿ
                                   23461    2292.6    Ÿ      R1,R0 - string loc, len                                        Ÿ
                                   23462    2293.6    Ÿ                                                                     Ÿ
                                                      ¾þþþþþþþþþþþþþþþþþþþþþþþþþþþþþþþþþþþþþþþþþþþþþþþþþþþþþþþþþþþþþþþþþþþþþ»
0001EF0 5090 D000/902C_      00000 23463    2294.6    LRTRIM   PROC (R2,LSR)
 DROP   MAINEXIT,R7
 USING  *,R7
 001F00 1200/47D0 7018_            23504    2295.6             WHILE ((R0,POS),AND,(@R1,EQ,' ')),'LA R1,@R1+1; DECR R0'
                                   23544    2296.6
 001F18 1821                       23545    2297.6             LR    R2,R1
 001F1A 1A20                       23546    2298.6             AR    R2,R0
 001F1C 0620                       23547    2299.6             DECR  R2
 001F1E 1200/47D0 7034_            23549    2300.6             WHILE ((R0,POS),AND,(@R2,EQ,' ')),'DECR R2; DECR R0'
 001F34 18D8/982C D004_            23590    2301.6             PEND
 DROP   *,R7
 USING  MAINEXIT,R7
1VDMP     (VDMP21) (09:46) (22MAR04) ORVYL's File System Dump Program: Common Routines                                      Page  102
0Current Usings:  (DUMP,R6) (MAINEXIT,R7) (DWA,R12)
0Loc    Object Code    Addr1 Addr2  Stmt Lv Lineno    Source Statement           (Hibal 5, Asmedit 3.3)  HLASM R4.0  2004/03/22 09.46
+___    ______ ____    _____ _____  ____ __ ______    ______ _________
0                                  23618    2322.     ¿þþþþþþþþþþþþþþþþþþþþþþþþþþþþþþþþþþþþþþþþþþþþþþþþþþþþþþþþþþþþþþþþþþþþþÜ
                                   23619    2323.     Ÿ                                                                     Ÿ
                                   23620    2324.     Ÿ   Locate specified DDNAME in TIOT                                   Ÿ
                                   23621    2325.     Ÿ        R1  ->  Eight character right padded DDNAME                  Ÿ
                                   23622    2326.     Ÿ        R1  ->  On return is address of TIOT entry if found          Ÿ
                                   23623    2327.     Ÿ        R15 ->  On return 0, DDNAME found                            Ÿ
                                   23624    2328.     Ÿ                          4, DDNAME not found                        Ÿ
                                   23625    2329.     Ÿ                                                                     Ÿ
                                                      ¾þþþþþþþþþþþþþþþþþþþþþþþþþþþþþþþþþþþþþþþþþþþþþþþþþþþþþþþþþþþþþþþþþþþþþ»
-001F42 5090 D000/902C_      00000 23627    2332.     FINDDD   PROC  ,                   Enter and save calling registers
 DROP   MAINEXIT,R7
 USING  *,R7
 001F52 5820 0010            00010 23668    2333.              L     SR,16               Address of CVT
 USING  CVTMAP,R2                  23669    2334.              USING CVTMAP,SR           ## Addresability to CVT
 001F56 5820 2000            00000 23678    2335.              L     SR,CVTTCBP          Address of TCB double words
 DROP   CVTMAP,R2                  23679    2336.              DROP  SR                  ## Rlse addr to CVT
 001F5A 5820 2004            00004 23686    2337.              L     SR,@SR+4            Current TCB address, ours namely
 USING  TCB,R2                     23687    2338.              USING TCB,SR              ## Addr to tcb
 001F5E 5820 200C            0002C 23696    2339.              L     SR,TCBTIO           TIOT address from TCB
 DROP   TCB,R2                     23697    2340.              USING TIOT1,SR            ## Addr to TIOT
 USING  TIOT1,R2
 001F62 4120 2018            00018 23709    2341.              LA    SR,TIOENTRY         Start of DDNAME entries
 DROP   TIOT1,R2                   23710    2342.              USING TIOENTRY,SR         ## Addr to TIOT entries
 USING  TIOENTRY,R2
 001F66 1F33/4330 2000             23722    2343.              LC    TR,TIOELNGH         Length of current entry or zero
 001F6C 1233/4780 7038             23729    2344.              WHILE (TR,NZ),BEGIN       Loop through non-zero entries
 001F72 D507 2004 1000_0001C 00000 23745  1 2345.                IF    (TIOEDDNM,EQ,@R1),EXIT  Exit loop if DDNAME found
 001F7C 4123 2000            00018 23765  1 2346.                LA    SR,TIOELNGH(TR)     Next possible ddname entry
 001F80 1F33/4330 2000             23766  1 2347.                LC    TR,TIOELNGH         Length of next entry
 001F86 47F0 701A            01F6C 23773    2348.              END   ,
 001F8A 41F0 0004            00004 23778    2349.              LA    R15,4               Set not found return code
 001F8E 1233/4780 7046             23779    2350.              IF    (TR,NZ),BEGIN       Found ddname set return regs
 001F94 1812                       23793  1 2351.                LR    R1,SR               Address of TIOT entry
 001F96 1BFF                       23794  1 2352.                CLEAR R15                 Zero return code
 DROP   TIOENTRY,R2                23798  1 2353.                DROP  SR,TR               ## Release addressability
 001F98                            23808    2354.              END   ,
 001F98 18D8/982C D004_            23812    2355.              PEND  ,                   Return to caller
 DROP   *,R7
 USING  MAINEXIT,R7
1VDMP     (VDMP21) (09:46) (22MAR04) ORVYL's File System Dump Program: Common Routines                                      Page  103
0Current Usings:  (DUMP,R6) (MAINEXIT,R7) (DWA,R12)
0Loc    Object Code    Addr1 Addr2  Stmt Lv Lineno    Source Statement           (Hibal 5, Asmedit 3.3)  HLASM R4.0  2004/03/22 09.46
+___    ______ ____    _____ _____  ____ __ ______    ______ _________
0                                  23840    2357.     ********************************************************************
                                   23841    2358.     *                                                                  *
                                   23842    2359.     *  SUBROUTINE TO LOCATE A UCB ADDRESS GIVEN A 6 CHARACTER          *
                                   23843    2360.     *  VOLUME SERIAL.                                                  *
                                   23844    2361.     *                                                                  *
                                   23845    2362.     ********************************************************************
-                                  23847    2364.     *              *****************************************************
                                   23848    2365.     *              *                                                   *
                                   23849    2366.     *              *      UCB Scan parameter list definition           *
                                   23850    2367.     *              *                                                   *
                                   23851    2368.     *              *****************************************************
0000000                00000 00050 23853    2370.     UPL      RECORD BEGIN              UCB-scan parameter list
                                   23861  1 2371.                UCBLOOK  MF=(L,UPLMFL)    UCBLOOK parmlist
                                   23862  1          +*                   MACDATE -12/13/99-<2>
                                   23864  1 02-00322 +         $$PUSH  PRINT
                                   23866  1 02-00287 +         $$PRINT ON
                                   23867  1 01-UCBLO +M00M4948   EQU   UPLMFL             ++ UCBLOOK NAME
 000000                            23868  1 01-UCBLO +UPLMFL     DS    0D                 ++ UCBLOOK PARM LIST
 000000                            23869  1 01-UCBLO +UPLMFL_XVERSION   DS XL1            ++ INPUT XVERSION
 000001                            23870  1 01-UCBLO +UPLMFL_XRESERVED1   DS CL1          ++ FIELD_LABEL  XRESERVED1
 000002                            23871  1 01-UCBLO +UPLMFL_XDEVN   DS XL2               ++   XDEVN
 000004                            23872  1 01-UCBLO +UPLMFL_XDEVNCHAR   DS CL4           ++   XDEVNCHAR
 000008                            23873  1 01-UCBLO +UPLMFL_XVOLSER   DS CL6             ++   XVOLSER
 00000E                            23874  1 01-UCBLO +UPLMFL_XDEVCLASS   DS XL1           ++  XDEVCLASS
                                   23875  1 01-UCBLO +UPLMFL_XDEVCLASS_DASDTAP  E EQU 0   ++ XDEVCLASS.DASDTAPE KEYWORD
                                   23876  1 01-UCBLO +UPLMFL_XDEVCLASS_TAPE   EQU 1       ++ XDEVCLASS.TAPE KEYWORD
                                   23877  1 01-UCBLO +UPLMFL_XDEVCLASS_DASD   EQU 2       ++ XDEVCLASS.DASD KEYWORD
 00000F                            23878  1 01-UCBLO +UPLMFL_XRESERVED2   DS BL.8         ++ FIELD_LABEL
                                   23879  1 01-UCBLOC+UPLMFL_XNOTFIND_YES   EQU B'10000000'
                                          1          +                                    ++ XNOTFIND.YES KEYWORD
 000010                            23880  1 01-UCBLO +UPLMFL_XUCBPTR   DS A               ++   XUCBPTR
 000014                            23881  1 01-UCBLO +UPLMFL_XCOMPID   DS CL5             ++   XCOMPID
 000019                            23882  1 01-UCBLO +UPLMFL_XMASK   DS BL.8              ++ FIELD_LABEL
                                   23883  1 01-UCBLOC+UPLMFL_XNONBASE_YES   EQU B'10000000'
                                          1          +                                    ++ XNONBASE.YES KEYWORD
                                   23884  1 01-UCBLOC+UPLMFL_XDYNAMIC_NO   EQU B'01000000'
                                          1          +                                    ++ XDYNAMIC.NO KEYWORD
                                   23885  1 01-UCBLOC+UPLMFL_XRANGE_3DIGIT   EQU B'00100000'
                                          1          +                                    ++ XRANGE.3DIGIT KEYWORD
                                   23886  1 01-UCBLO +UPLMFL_XLOC_ANY   EQU B'00010000'   ++ XLOC.ANY KEYWORD
                                   23887  1 01-UCBLOC+UPLMFL_XUNBOUND_ALIAS_YE  S EQU B'00000001'
                                          1          +                                    ++ XUNBOUND_ALIAS.YES KEYWORD
 00001A                            23888  1 01-UCBLO +UPLMFL_XFLAGS   DS BL.8             ++ FIELD_LABEL
                                   23889  1 01-UCBLOC+UPLMFL_KEYUSED_DEVN   EQU B'10000000'
                                          1          +                                    ++ KEYUSED.DEVN KEYWORD
                                   23890  1 01-UCBLOC+UPLMFL_KEYUSED_DEVNCHAR   EQU B'01000000'
                                          1          +                                    ++ KEYUSED.DEVNCHAR KEYWORD
                                   23891  1 01-UCBLOC+UPLMFL_KEYUSED_VOLSER   EQU B'00100000'
                                          1          +                                    ++ KEYUSED.VOLSER KEYWORD
                                   23892  1 01-UCBLOC+UPLMFL_KEYUSED_LASTING   EQU B'00010000'
                                          1          +                                    ++ KEYUSED.LASTING KEYWORD
1VDMP     (VDMP21) (09:46) (22MAR04) ORVYL's File System Dump Program: Common Routines                                      Page  104
0Current Usings:  (DUMP,R6) (MAINEXIT,R7) (DWA,R12)
0Loc    Object Code    Addr1 Addr2  Stmt Lv Lineno    Source Statement           (Hibal 5, Asmedit 3.3)  HLASM R4.0  2004/03/22 09.46
+___    ______ ____    _____ _____  ____ __ ______    ______ _________
0                                  23893  1 01-UCBLOC+UPLMFL_KEYUSED_COMPID   EQU B'00001000'
                                          1          +                                    ++ KEYUSED.COMPID KEYWORD
                                   23894  1 01-UCBLOC+UPLMFL_KEYUSED_HELP   EQU B'00000100'
                                          1          +                                    ++ KEYUSED.HELP KEYWORD
                                   23895  1 01-UCBLOC+UPLMFL_KEYUSED_PIN   EQU B'00000010'
                                          1          +                                    ++ KEYUSED.PIN KEYWORD
                                   23896  1 01-UCBLOC+UPLMFL_KEYUSED_PINPATHS   EQU B'00000001'
                                          1          +                                    ++ KEYUSED.PINPATHS KEYWORD
 00001B                            23897  1 01-UCBLO +UPLMFL_XFLAGS2   DS BL.8            ++ FIELD_LABEL
                                   23898  1 01-UCBLOC+UPLMFL_KEYUSED_UCBCXPTR   EQU B'10000000'
                                          1          +                                    ++ KEYUSED.UCBCXPTR KEYWORD
                                   23899  1 01-UCBLOC+UPLMFL_KEYUSED_UCBPXPTR   EQU B'01000000'
                                          1          +                                    ++ KEYUSED.UCBPXPTR KEYWORD
 00001C                            23900  1 01-UCBLO +UPLMFL_XTEXT_ADDR   DS A            ++  ADDR XTEXT
 000020                            23901  1 01-UCBLO +UPLMFL_XTEXT_ALET   DS F            ++  ALET XTEXT
 000024                            23902  1 01-UCBLO +UPLMFL_XPTOKEN   DS CL8             ++   XPTOKEN
 00002C                            23903  1 01-UCBLO +UPLMFL_XHELP   DS CL8               ++   XHELP
 000034                            23904  1 01-UCBLO +UPLMFL_XIOCTOKEN_ADDR   DS A        ++  ADDR XIOCTOKEN
 000038                            23905  1 01-UCBLO +UPLMFL_XIOCTOKEN_ALET   DS F        ++  ALET XIOCTOKEN
 00003C                            23906  1 01-UCBLO +UPLMFL_XUCBPAREA_ADDR   DS A        ++  ADDR XUCBPAREA
 000040                            23907  1 01-UCBLO +UPLMFL_XUCBPAREA_ALET   DS F        ++  ALET XUCBPAREA
 000044                            23908  1 01-UCBLO +UPLMFL_XUCBCXPTR   DS A             ++   XUCBCXPTR
 000048                            23909  1 01-UCBLO +UPLMFL_XUCBPXPTR   DS A             ++   XUCBPXPTR
                                   23910  1 01-UCBLO +UPLMFLL    EQU   *-UPLMFL           ++ LENGTH OF PLIST
0                                  23913  1 02-00427 +         $$POP   PRINT
                                   23914  1          +*                                            UCBLOOK-2
000004C 00000000                   23916  1 2377.     UPLUCB     DC    A(0)                UCB receive address
 000050                00050 00050 23917    2378.              END   ,
-001FA6 5090 D000/902C_      00000 23927    2380.     FINDUCB  PROC  ,                   Enter and save registers
 DROP   MAINEXIT,R7
 USING  *,R7
 001FB6 1821                       23968    2381.              LR    SR,R1               Save pointer to volume serial
 001FB8 47F0 700E/0000_      01FC4 23969    2382.              GETMAIN RC,LV=L'UPL       Get memory for parameter list
 001FD0 1831                       23983    2383.              LR    TR,R1               Save address
 USING  UPL,R3                     23984    2384.              USING UPL,TR              ## addressability to list
 001FD2 1801                       23993    2385.              LR    R0,R1               copy address for clear
 001FD4 4110 0050            00050 23994    2386.              LA    R1,L'UPL              and length to clear
 001FD8 1BFF                       23995    2387.              CLEAR R15                     zero from and pad character
 001FDA 0E0E                       23999    2388.              MVCL  R0,R14                    zero workarea
-001FDC 4510 702E/0000_      01FE4 24001    2389.5             MODESET  MODE=SUP         grumble
-                                  24009    2390.   C          UCBLOOK  VOLSER=(SR),UCBPTR=UPLUCB,NOPIN,DEVCLASS=DASD,
 001FEA 4110 3000/D74B_      00000          2390.1                   DYNAMIC=YES,RANGE=ALL,MF=(E,UPLMFL,COMPLETE)
-
 002020 184F                       24033    2392.              LR    QR,R15              preserve return code
1VDMP     (VDMP21) (09:46) (22MAR04) ORVYL's File System Dump Program: Common Routines                                      Page  105
0Current Usings:  (UPL,R3) (DUMP,R6) (*,R7) (DWA,R12)
0Loc    Object Code    Addr1 Addr2  Stmt Lv Lineno    Source Statement           (Hibal 5, Asmedit 3.3)  HLASM R4.0  2004/03/22 09.46
+___    ______ ____    _____ _____  ____ __ ______    ______ _________
0002022 0700/4510 7076_            24034    2394.              MODESET  MODE=PROB        be normal again
 002032 5820 304C            0004C 24041    2420.              L     SR,UPLUCB           Set ucb address
 002036 1813                       24042    2422.              LR    R1,TR               Move address for freemain
 002038 4100 0050            00050 24043    2423.              LA    R0,L'UPL            Set length of work area
 00203C 4110 1000/0A0A       00000 24044    2424.              FREEMAIN R,LV=(0),A=(1)   Release memory
 DROP   UPL,R3                     24048    2425.              DROP  TR                  ## release work area memory
 002042 1812                       24055    2426.              LR    R1,SR               Move ucb address
 002044 18F4                       24056    2427.              LR    R15,QR              Move return code
 002046 18D8/982C D004_            24057    2428.              PEND  ,                   Return to cc set
 DROP   *,R7
 USING  MAINEXIT,R7
 002058                02058 0B848 24084    2428.1             LTORG ,                   Generate literal pool
1VDMP     (VDMP21) (09:46) (22MAR04) ORVYL's File System Dump Program: Common Routines                                      Page  106
0Current Usings:  (DUMP,R6) (MAINEXIT,R7) (DWA,R12)
0Loc    Object Code    Addr1 Addr2  Stmt Lv Lineno    Source Statement           (Hibal 5, Asmedit 3.3)  HLASM R4.0  2004/03/22 09.46
+___    ______ ____    _____ _____  ____ __ ______    ______ _________
0                                  24090    2429.1    ¿þþþþþþþþþþþþþþþþþþþþþþþþþþþþþþþþþþþþþþþþþþþþþþþþþþþþþþþþþþþþþþþþþþþþþÜ
                                   24091    2430.     Ÿ                                                                     Ÿ
                                   24092    2431.     Ÿ  Dynamic allocation for SYSOUT=$ units                              Ÿ
                                   24093    2432.     Ÿ                                                                     Ÿ
                                                      ¾þþþþþþþþþþþþþþþþþþþþþþþþþþþþþþþþþþþþþþþþþþþþþþþþþþþþþþþþþþþþþþþþþþþþþ»
0000000                00000 00032 24095    2434.     DOUTREC  RECORD BEGIN
 000000 00000000                   24103  1 2435.     DOUTPTR    DC    A(0)                Pointer to svc99 area
 000004 0000000000000000           24104  1 2436.     DOUTRB     DC    5A(0)               Svc99 request block
 000018 00000000                   24105  1 2437.     DOUTPTRS   DC    A(0)                Pointer to ddname
 00001C 00000000                   24106  1 2438.                DC    A(0)                Pointer to sysout unit
0000020 0001000100084040           24108  1 2440.     DOUTDDNM   DC    AL2(DALDDNAM,1,8),CL8' '
 00002E 00180000                   24109  1 2441.     DOUTCLAS   DC    AL2(DALSYSOU,0)
 000032                00032 00032 24110    2442.              END   ,
0002058                            24120    2444.     DOUTSYS  LABEL ,
 002058 5090 D000/902C_      00000 24122    2445.              PROC  ,                   Enter and save calling registers
 DROP   MAINEXIT,R7
 USING  *,R7
 002068 1821                       24162    2446.              LR    SR,R1               Save pointer to ddname
 00206A 0700/4510 700C_            24163    2447.              GETMAIN R,LV=L'DOUTREC    Request memory to allocation
 00207A 1841                       24170    2448.              LR    QR,R1               Move memory address
 USING  DOUTREC,R4                 24171    2449.              USING DOUTREC,QR          ## addressability to list
 00207C D731 4000 4000 00000 00000 24180    2450.              CLEAR DOUTREC             Zero control block pllllease!
 002082 4110 4004            00004 24187    2451.              LA    R1,DOUTRB           Address of svc99 rb
 002086 5010 4000            00000 24188    2452.              ST    R1,DOUTPTR          Initialize parameter pointer
 00208A 9680 4000      00000       24189    2453.              OI    DOUTPTR,X'80'       Set only one parameter
 00208E 4110 4020            00020 24190    2454.              LA    R1,DOUTDDNM         Address of ddname unit
 002092 5010 4018            00018 24191    2455.              ST    R1,DOUTPTRS+0       Set in text unit list
 002096 4110 402E            0002E 24192    2456.              LA    R1,DOUTCLAS         Address of class unit
 00209A 5010 401C            0001C 24193    2457.              ST    R1,DOUTPTRS+4       Set in text unit list
 00209E 9680 401C      0001C       24194    2458.              OI    DOUTPTRS+4,X'80'    Set last unit
 0020A2 4110 4004            00004 24195    2459.              LA    R1,DOUTRB           Address of rb
 USING  S99RB,R1                   24196    2460.              USING S99RB,R1            ## addressability to svc99 area
 0020A6 9214 1000      00000       24205    2461.              MVI   S99RBLN,20          Set length of list
 0020AA 9201 1001      00001       24206    2462.              MVI   S99VERB,S99VRBAL    Set allocation request
 0020AE 9220 1002      00002       24207    2463.              MVI   S99FLG11,S99NOMNT   Set no mounting allowed
 0020B2 4100 4018            00018 24208    2464.              LA    R0,DOUTPTRS         Address of pointers
 0020B6 5000 1008            00008 24209    2465.              ST    R0,S99TXTPP         Set address in list
 DROP   S99RB,R1                   24210    2466.              DROP  R1                  ## release addressability
 0020BA D205 4020 7CD0 00020 02D38 24217    2467.              MVC   DOUTDDNM(6),=AL2(DALDDNAM,1,8)
 0020C0 D203 402E 7C30 0002E 02C98 24218    2468.              MVC   DOUTCLAS(4),=AL2(DALSYSOU,0)
 0020C6 D207 4026 2000 00026 00000 24219    2469.              MVC   DOUTDDNM+6(8),@SR   Set ddname
 0020CC 4110 4000            00000 24220    2470.              LA    R1,DOUTPTR          Address of request
 0020D0 0A63                       24221    2471.              DYNALLOC ,                Issue request
 0020D2 182F                       24224    2472.              LR    SR,R15              Save return code
 0020D4 5830 4008            00008 24225    2473.              L     TR,DOUTRB+4         Set error and reason codes
 0020D8 1814                       24226    2474.              LR    R1,QR               Set address of dyn block
 0020DA 4100 0032            00032 24227    2475.              LA    R0,L'DOUTREC        And length
 0020DE 4110 1000/0A0A       00000 24228    2476.              FREEMAIN R,LV=(0),A=(1)   Release memory
 0020E4 1803                       24232    2477.              LR    R0,TR               Pass back any error and reasons
 0020E6 18F2                       24233    2478.              LR    R15,SR              Reset dynalloc return code
 0020E8 18D8/982C D004_            24234    2479.              PEND  ,                   Return to caller
1VDMP     (VDMP21) (09:46) (22MAR04) ORVYL's File System Dump Program: Common Routines                                      Page  107
0Current Usings:  (DOUTREC,R4) (DUMP,R6) (MAINEXIT,R7) (DWA,R12)
0Loc    Object Code    Addr1 Addr2  Stmt Lv Lineno    Source Statement           (Hibal 5, Asmedit 3.3)  HLASM R4.0  2004/03/22 09.46
+___    ______ ____    _____ _____  ____ __ ______    ______ _________
0DROP   *,R7
 USING  MAINEXIT,R7
 DROP   DOUTREC,R4                 24261    2480.              DROP  QR                  ## release routine addressabilty
1VDMP     (VDMP21) (09:46) (22MAR04) ORVYL's File System Dump Program: Common Routines                                      Page  108
0Current Usings:  (DUMP,R6) (MAINEXIT,R7) (DWA,R12)
0Loc    Object Code    Addr1 Addr2  Stmt Lv Lineno    Source Statement           (Hibal 5, Asmedit 3.3)  HLASM R4.0  2004/03/22 09.46
+___    ______ ____    _____ _____  ____ __ ______    ______ _________
0                                  24269    2482.     ¿þþþþþþþþþþþþþþþþþþþþþþþþþþþþþþþþþþþþþþþþþþþþþþþþþþþþþþþþþþþþþþþþþþþþþÜ
                                   24270    2483.     Ÿ                                                                     Ÿ
                                   24271    2484.     Ÿ  Initialize and process dynamic control file                        Ÿ
                                   24272    2485.     Ÿ                                                                     Ÿ
                                                      ¾þþþþþþþþþþþþþþþþþþþþþþþþþþþþþþþþþþþþþþþþþþþþþþþþþþþþþþþþþþþþþþþþþþþþþ»
00020F6 9029 D000/188D_      00000 24274    2488.     DOCNTL   VENTER SR,RAR,*,LOCAL     Enter and save registers
 DROP   MAINEXIT,R7
 USING  *,R7
 002102 9680 C3E8      003E8       24296    2489.              OI    CNTOPNL,X'80'       Set only one dcb present
 002106 4120 C92C            0092C 24297    2490.              LA    SR,CNTDCB           Address of control file DCB
 USING  IHADCB,R2                  24298    2491.              USING IHADCB,SR           ## Addressability to DCB
 00210A 1812                       24307    2492.              LR    R1,SR               Copy DCB address
 00210C 4D90 60FC            00112 24308    2493.              LCALL DCBINIT             Finish other DCB fields
 002110 D207 2028 7B46 00028 02C48 24310    2494.              MVC   DCBDDNAM,=CL8'CONTROL'  Set DDNAME into DCB
 002116 9690 2024      00024       24311    2495.              SET   DCBRECFM.DCBRECF+DCBRECBR   RECFM=FB
 00211A 9640 201A      0001A       24321    2496.              SET   DCBDSRG1.DCBDSGPS           DSORG=PS
 00211E 9650 2032      00032       24328    2497.              SET   DCBMACR1.DCBMRGET+DCBMRMVG  MACRF=GM
 002122 4100 7134            02236 24338    2498.              LA    R0,CNTEOD           Set EODAD address
 002126 5000 2020            00020 24339    2499.              ST    R0,DCBEODAD         Save into control file dcb
 00212A 4100 72BA            023BC 24340    2499.01            LA    R0,CNTDCBAX         Address of DCB abend exit
 00212E 5000 C3EC            003EC 24341    2499.02            ST    R0,CNTEXLST         Save in exlst for control dcb
 002132 9211 C3EC      003EC       24342    2499.03            MVI   CNTEXLST,X'11'      Set DCB exit indicator
 002136 9680 C3F0      003F0       24343    2499.04            OI    CNTEXLST+4,X'80'    Mark last exit
 00213A 4100 C3EC            003EC 24344    2499.05            LA    R0,CNTEXLST         Address of exlst for control dcb
 00213E BE07 2025            00025 24345    2499.06            ST3   R0,DCBEXLSA         Save in control dcb
 002142 4110 C3E8/94F0_      003E8 24347    2500.              OPEN  ((SR),(INPUT)),MF=(E,CNTOPNL)  Open control file
 002158 9110 2030/4710_00030       24355    2501.              IF    ~DCBOFLGS.DCBOFOPN,BEGIN       Whoops, no control
 002160 4110 7D38/4100_      02E3A 24371  1 2502.                VSEG  'VDMP007E - Unable to open CONTROL file.'
 00216E 5890 7B9E/0D99       02CA0 24380  1 2503.                VWRITE ,                  Output error message
 002174 9210 C05B      0005B       24385  1 2504.                MVI   RETCODE+3,CNT_PRM   Set return code
 002178 47F0 60DA            000F0 24386  1 2505.                B     DUMPEXIT            Just return from here
 00217C                            24387    2506.              END   ,
 DROP   IHADCB,R2                  24391    2507.              DROP  SR                  ## Release DCB addressability
1VDMP     (VDMP21) (09:46) (22MAR04) ORVYL's File System Dump Program: Common Routines                                      Page  109
0Current Usings:  (DUMP,R6) (*,R7) (DWA,R12)
0Loc    Object Code    Addr1 Addr2  Stmt Lv Lineno    Source Statement           (Hibal 5, Asmedit 3.3)  HLASM R4.0  2004/03/22 09.46
+___    ______ ____    _____ _____  ____ __ ______    ______ _________
0                                  24399    2510.     ********************************************************************
                                   24400    2511.     *                                                                  *
                                   24401    2512.     *  Process control data                                            *
                                   24402    2513.     *                                                                  *
                                   24403    2514.     ********************************************************************
000217C 9200 C1C5      001C5       24405    2516.              CLEAR CNTFLG              Clear control flags
 002180 4130 C12C            0012C 24412    2517.              LA    TR,SUBANCHR         SET ANCHOR FOR BACKCHAIN ADDRESS
 USING  SUBPARM,R3                 24413    2518.              USING SUBPARM,TR          ## ADDRESSABILITY TO SUBPARM BLK
 002184                            24422    2519.              LOOP  BEGIN               Read CONTROL file
 002184 4110 C92C/4100_      0092C 24428  1 2520.                GET   CNTDCB,CNTBUF       Set control record in buffer
 002194 4100 0001/5E00_      00001 24435  1 2521.                INCR  R0,CNTNUM           Bump control card record number
 0021A0 4110 C218/4100_      00218 24441  1 2522.                SCINIT CNTBUF,L'CNTBUF,SCANCB    Initialize scanner
 0021B2 4110 7910/58E0_      02A12 24467  1 2523.                SCAN  CNTKWR,(R15)        Process this record
 0021BC 4770 789C            0299E 24483  1 2524.                IF    NZ,CNTERR           Control card error
 0021C0 9110 C1C5/47E0_001C5       24497  1 2525.                IF    CNTNSEG,BEGIN       Process a new current segment
 0021C8 94EF C1C5      001C5       24512  2 2526.                  CLEAR CNTNSEG             Set segment initialized
 0021CC 4D90 73BA            024BC 24519  2 2527.                  LCALL GETSPRM             ALLOCATE A SUBPARM BLOCK
 0021D0 5010 3000            00000 24521  2 2528.                  ST    R1,SUBFWD           Save forward chain address
 0021D4 5030 1004            00004 24522  2 2529.                  ST    TR,@R1+4            Set backward chain address
 0021D8 1831                       24523  2 2530.                  LR    TR,R1               Copy address
 0021DA D703 3020 3020 00020 00020 24524  2 2531.                  CLEAR SUBCNT              Zero file count
 0021E0 50C0 3014            00014 24531  2 2532.                  ST    DWR,SUBDWA          Save dump area address
 0021E4 D22B 3025 C268 00025 00268 24532  2 2533.                  MVC   SUBTAPE,TAPEDSN     Set tape dsn prefix
 0021EA 4110 3025            00025 24533  2 2536.                  LA    R1,SUBTAPE          Set address of tape dsn prefix
 0021EE 4100 002C            0002C 24534  2 2537.                  LA    R0,L'SUBTAPE        And maximum length
 0021F2 4D90 616A            00180 24535  2 2538.                  LCALL RTRIM               Strip trailing blanks
 0021F6 1A10                       24537  2 2539.                  AR    R1,R0               Adjust trailing address
 0021F8 9140 C1C6/47E0_001C6       24538  2 2539.01                IF    FNCINC,BEGIN        Process incremental suffix
 002200 D201 1000 7C3C 00000 02D3E 24553  3 2539.03                  MVC   @R1(2),=C'.X'       Move into tape prefix
 002206 7108/47F0 710E 02206 021FE 24554  2 2539.04                END   ELSE,BEGIN          Process dump suffix
 00220A D206 1000 7D5F 00000 02E61 24569  3 2540.                    MVC   @R1(7),=C'.FILSEG'  Add the proper suffix
 002210                            24570  2 2540.1                 END   ,
 002210 4100 3053            00053 24574  2 2541.                  LA    R0,SUBDSN           Blank fill file dsn/volume area
 002214 4110 0F08            00F08 24575  2 2542.                  LA    R1,MAX_DPS*L'DSNENTRY   Length of area
 002218 1BFF                       24576  2 2543.                  CLEAR R15                     Zero from length
 00221A BFF8 7D66            02E68 24580  2 2544.                  ICM   R15,8,=C' '               With blanks
 00221E 0E0E                       24581  2 2545.                  MVCL  R0,R14                      And blank fill area
 002220 D201 3051 C216 00051 00216 24582  2 2546.                  MVC   SUBSEG,CSEGMNT      Set current segment number
 002226 94EF C1C5      001C5       24583  2 2547.                  CLEAR CNTNSEG             Clear new segment
 00222A 9620 C1C5      001C5       24590  2 2548.                  SET   CNTSEG              Set processing current segment
 00222E                            24596  1 2549.                END   ,
 00222E 9180 C1C5/47E0_001C5       24600    2550.              UNTIL CNTEND,END          Loop until complete
0002236                            24624    2552.     CNTEOD   LABEL ,                   Eof exit for control file
 002236 4110 C3E8/43E1_      003E8 24626    2562.              CLOSE CNTDCB,MF=(E,CNTOPNL)   Close control file
 00224C 4110 C92C            0092C 24634    2563.1             LA    R1,CNTDCB           Address of control dcb
 002250 4D90 611E            00134 24635    2563.2             LCALL FREPOOL             Release dcb buffer pool
 002254 91C0 C1C6/4780_001C6       24637    2564.              IF    FNCDMP+FNCINC,BEGIN Check for volumes defined
 00225C 9140 C1C5/4710_001C5       24655  1 2565.                IF    ~CNTFILS,BEGIN      Must have at least one volume
 002264 4110 7D67/4100_      02E69 24670  2 2566.                  VSEG  'VDMP061E - No files could be found.'
 002272 5890 7B9E/0D99       02CA0 24679  2 2567.                  VWRITE ,
 002278 9214 C05B      0005B       24684  2 2568.                  MVI   RETCODE+3,DEV_ERR   Set return code
 00227C 47F0 60DA            000F0 24685  2 2569.                  B     DUMPEXIT            And return via cleanup
1VDMP     (VDMP21) (09:46) (22MAR04) ORVYL's File System Dump Program: Common Routines                                      Page  110
0Current Usings:  (SUBPARM,R3) (DUMP,R6) (*,R7) (DWA,R12)
0Loc    Object Code    Addr1 Addr2  Stmt Lv Lineno    Source Statement           (Hibal 5, Asmedit 3.3)  HLASM R4.0  2004/03/22 09.46
+___    ______ ____    _____ _____  ____ __ ______    ______ _________
0002280                            24686  1 2570.                END   ,
 002280                            24690    2571.              END   ,
1VDMP     (VDMP21) (09:46) (22MAR04) ORVYL's File System Dump Program: Common Routines                                      Page  111
0Current Usings:  (SUBPARM,R3) (DUMP,R6) (*,R7) (DWA,R12)
0Loc    Object Code    Addr1 Addr2  Stmt Lv Lineno    Source Statement           (Hibal 5, Asmedit 3.3)  HLASM R4.0  2004/03/22 09.46
+___    ______ ____    _____ _____  ____ __ ______    ______ _________
0                                  24695    2573.     ********************************************************************
                                   24696    2574.     *                                                                  *
                                   24697    2575.     *  REPORT INITIAL GLOBAL I/O RATE FOR INCREMENTAL DUMPING          *
                                   24698    2576.     *                                                                  *
                                   24699    2577.     ********************************************************************
0002280 9140 C1C6/47E0_001C6       24701    2579.              IF    FNCINC,BEGIN        Report only for incremental dump
 002288 9180 C1C7/47E0_001C7       24716  1 2580.                IF    TFRATE,BEGIN        Report global i/o rate desired
 002290 4110 7C3E/4100_      02D40 24731  2 2581.                  VSEG  'VDMP083I - Initial target global I/O rate will be '
 00229E 58F0 C184            00184 24740  2 2582.                  L     R15,GIOLIMIT        Set global i/o limit
 0022A2 4100 0002            00002 24741  2 2583.                  LA    R0,2                Set one decimal place precision
 0022A6 4110 C010            00010 24742  2 2584.                  LA    R1,CLWTEMP          Set work area
 0022AA 58E0 7BAA/0DEE       02CAC 24743  2 2585.                  XCALL BTR                 Enter conversion routine
 0022B0 5890 7B9A/0D99       02C9C 24747  2 2586.                  VSEG  (R1),(R0)           Add to message
 0022B6 4110 7C70/4100_      02D72 24762  2 2587.                  VSEG  ' I/O''s per second.'
 0022C4 5890 7B9E/0D99       02CA0 24771  2 2588.                  VWRITE ,                  Write line to SYSPRT file
 0022CA                            24776  1 2589.                END   ,
 0022CA                            24780    2590.              END   ,
1VDMP     (VDMP21) (09:46) (22MAR04) ORVYL's File System Dump Program: Common Routines                                      Page  112
0Current Usings:  (SUBPARM,R3) (DUMP,R6) (*,R7) (DWA,R12)
0Loc    Object Code    Addr1 Addr2  Stmt Lv Lineno    Source Statement           (Hibal 5, Asmedit 3.3)  HLASM R4.0  2004/03/22 09.46
+___    ______ ____    _____ _____  ____ __ ______    ______ _________
0                                  24785    2592.     ********************************************************************
                                   24786    2593.     *                                                                  *
                                   24787    2594.     *  REPORT ON TAPE DATA SET NAME PREFIX AND HISTORY FILE            *
                                   24788    2595.     *                                                                  *
                                   24789    2596.     ********************************************************************
00022CA D62B C268 C268_00268 00268 24791    2598.              IF    (TAPEDSN,NZ),BEGIN  Report tape dsn prefix
 0022D4 4110 7C82/4100_      02D84 24807  1 2599.                VSEG  'VDMP045I - Tape dsname prefix '
 0022E2 4110 C268            00268 24816  1 2600.                LA    R1,TAPEDSN          Address of prefix
 0022E6 4100 002C            0002C 24817  1 2601.                LA    R0,L'TAPEDSN        And maximum length
 0022EA 4D90 616A            00180 24818  1 2602.                LCALL RTRIM               Trim trailing blanks
 0022EE 5890 7B9A/0D99       02C9C 24820  1 2603.                VSEG  (R1),(R0)           Add to message
 0022F4 5890 7B9E/0D99       02CA0 24835  1 2604.                VWRITE ,                  Output print line
 0022FA 4110 7D8A/4100_      02E8C 24840  1 2604.1               VSEG  'VDMP046I - IDRC data compaction is '
 002308 9104 C1C0/47E0_001C0       24849  1 2604.2               IF    FLIDRC,'VSEG "ENABLED."'
 00231E 7220/47F0 722E_0231E 0230E 24878  1 2604.3               ELSE  'VSEG "DISABLED."'
 002330 5890 7B9E/0D99       02CA0 24903  1 2604.4               VWRITE ,
 002336                            24908    2605.              END   ,
0002336 D62B C294 C294_00294 00294 24913    2607.              IF    (HISTFDSN,NZ),BEGIN Report history file
 002340 91EA C1C6/4780_001C6       24929  1 2608.                IF    (FNCDMP+FNCINC+FNCCLN+FNCLHST+FNCOFFL),BEGIN
 002348 4110 7BAE/4100_      02CB0 24962  2 2609.                  VSEG  'VDMP047I - History file data set is '
 002356 4110 C294            00294 24971  2 2610.                  LA    R1,HISTFDSN         Address of history name
 00235A 4100 002C            0002C 24972  2 2611.                  LA    R0,L'HISTFDSN       Set maximum length of name
 00235E 4D90 616A            00180 24973  2 2612.                  LCALL RTRIM               Strip trailing blanks
 002362 5890 7B9A/0D99       02C9C 24975  2 2613.                  VSEG  (R1),(R0)           Add to message and
 002368 5890 7B9E/0D99       02CA0 24990  2 2614.                  VWRITE ,                  Write to report file
 00236E 5890 7BD2/0D99       02CD4 24995  2 2615.                  ACALL OPENHIST            Open history file data set
 002374 4780 72B2            023B4 24999  2 2616.                  IF    NZ,BEGIN            Error opening history file
 002378 4110 7DB6/4100_      02EB8 25010  3 2617.                    VSEG  'VDMP739E - Unable to open history file.'
 002386 5890 7B9E/0D99       02CA0 25019  3 2618.                    VWRITE ,
 00238C 9204 C05B      0005B       25024  3 2619.                    MVI   RETCODE+3,RET_WARN  Set initial warning code
 002390 9180 C1C6/4710_001C6       25025  3 2620.                    IF    ~FNCDMP,BEGIN       Check if date already specified
 002398 4110 7DDD/4100_      02EDF 25040  4 2622.                      VSEG  'VDMP323E - Run aborted.'     Report failure
 0023A6 5890 7B9E/0D99       02CA0 25049  4 2623.                      VWRITE ,
 0023AC 9210 C05B      0005B       25054  4 2624.                      MVI   RETCODE+3,CNT_PRM   Set return code
 0023B0 47F0 60DA            000F0 25055  4 2625.                      B     DUMPEXIT
 0023B4                            25056  3 2626.                    END   ,
 0023B4                            25060  2 2627.                  END   ,
 0023B4                            25064  1 2628.                END   ,
 0023B4                            25068    2629.              END   ,
 0023B4 18D8/9829 D000_            25072    2630.              VEXIT SR,RAR              Restore registers and return
                                   25077    2630.01   ¿þþþþþþþþþþþþþþþþþþþþþþþþþþþþþþþþþþþþþþþþþþþþþþþþþþþþþþþþþþþþþþþþþþþþþÜ
                                   25078    2630.02   Ÿ                                                                     Ÿ
                                   25079    2630.03   Ÿ  DCB abend exit routine for the Control file                        Ÿ
                                   25080    2630.04   Ÿ                                                                     Ÿ
                                                      ¾þþþþþþþþþþþþþþþþþþþþþþþþþþþþþþþþþþþþþþþþþþþþþþþþþþþþþþþþþþþþþþþþþþþþþ»
-0023BC                            25082    2630.06   CNTDCBAX LABEL ,
 0023BC 9104 1003/47E0_00003       25084    2630.07            IF    @R1+3.X'04',BEGIN   I can ignore this abend
 0023C4 90E1 D000/41D0_      00000 25100  1 2630.08              VPUSH R14,R1,*            Save working registers
 0023CC 1821                       25103  1 2630.09              LR    R2,R1               Copy address of parameter list
 0023CE 9204 2003      00003       25104  1 2630.1               MVI   @R2+3,X'04'         Set to ignore this abend
1VDMP     (VDMP21) (09:46) (22MAR04) ORVYL's File System Dump Program: Common Routines                                      Page  113
0Current Usings:  (SUBPARM,R3) (DUMP,R6) (*,R7) (DWA,R12)
0Loc    Object Code    Addr1 Addr2  Stmt Lv Lineno    Source Statement           (Hibal 5, Asmedit 3.3)  HLASM R4.0  2004/03/22 09.46
+___    ______ ____    _____ _____  ____ __ ______    ______ _________
00023D2 4110 7CA0/4100_      02DA2 25105  1 2630.11              VSEG  'VDMP033E - Open failed on control DCB.'
 0023E0 5890 7B9E/0D99       02CA0 25114  1 2630.12              VWRITE ,                  Write to report file
 0023E6 4100 0010/4110_      00010 25119  1 2630.13              VCNTL BLANK,11            Neatness counts
 0023F4 4110 7CC6/4100_      02DC8 25138  1 2630.14              VSEG  'Abend('            Report captured abend code
 002402 58F0 2000            00000 25147  1 2630.15              L     R15,@R2             Load abend code
 002406 88F0 0014            00014 25148  1 2630.16              SRL   R15,32-12           Move abend code over
 00240A 4100 0003/4110_      00003 25149  1 2630.17              SEGHX 3,(R15)             Convert code into message
 00241E 4110 7DF4/4100_      02EF6 25190  1 2630.18              VSEG  ') Reason('         Add abend reason code
 00242C 58F0 2000            00000 25199  1 2630.19              L     R15,@R2             Reload original abend code
 002430 88F0 0008            00008 25200  1 2630.2               SRL   R15,8               Move reason code over
 002434 54F0 7BDE            02CE0 25201  1 2630.21              N     R15,=A(X'FFF')      Just leave the reason code
 002438 4100 0003/4110_      00003 25202  1 2630.22              SEGHX 3,(R15)             Add reason code
 00244C 4110 7DFD/4100_      02EFF 25243  1 2630.23              VSEG  ')'                 Terminate the message
 00245A 5890 7B9E/0D99       02CA0 25252  1 2630.96              VWRITE ,                  And write to report file
 002460 4BD0 7CCC/98E1_      02DCE 25257  1 2630.97              VPOP  R14,R1,*            Restore working registers
 002468                            25260    2630.98            END   ,
 002468 07FE                       25264    2630.99            BR    R14                 And just return for now
1VDMP     (VDMP21) (09:46) (22MAR04) ORVYL's File System Dump Program: Common Routines                                      Page  114
0Current Usings:  (SUBPARM,R3) (DUMP,R6) (*,R7) (DWA,R12)
0Loc    Object Code    Addr1 Addr2  Stmt Lv Lineno    Source Statement           (Hibal 5, Asmedit 3.3)  HLASM R4.0  2004/03/22 09.46
+___    ______ ____    _____ _____  ____ __ ______    ______ _________
0                                  25266    2631.1    ¿þþþþþþþþþþþþþþþþþþþþþþþþþþþþþþþþþþþþþþþþþþþþþþþþþþþþþþþþþþþþþþþþþþþþþÜ
                                   25267    2632.     Ÿ                                                                     Ÿ
                                   25268    2633.     Ÿ  Internal subroutines for DOCNTL routine                            Ÿ
                                   25269    2634.     Ÿ                                                                     Ÿ
                                                      ¾þþþþþþþþþþþþþþþþþþþþþþþþþþþþþþþþþþþþþþþþþþþþþþþþþþþþþþþþþþþþþþþþþþþþþ»
000246A                            25271    2636.     SETSPRM  LABEL ,                   Initialize readback parameters
 00246A 5090 D000/41D0_      00000 25273    2637.              VPUSH RAR,,*              Save return register
 002472 4D90 73BA            024BC 25276    2638.              LCALL GETSPRM             Allocate a subparm block
 002476 1831                       25278    2639.              LR    TR,R1               Set address register
 002478 D703 300C 300C 0000C 0000C 25279    2640.              CLEAR SUBSTART            No starting block for ixr or dir
 00247E D203 3010 7BE2 00010 02CE4 25286    2641.              MVC   SUBSEQ,=A(0)        Start first
 002484 50C0 3014            00014 25287    2642.              ST    DWR,SUBDWA          Address of dump work area
 002488 D703 301C 301C 0001C 0001C 25288    2643.              CLEAR SUBRET              Zero return code
 00248E D22B 3025 C268 00025 00268 25295    2644.              MVC   SUBTAPE,TAPEDSN     Set data set name prefix
 002494 4110 3025            00025 25296    2645.              LA    R1,SUBTAPE          Address to trim
 002498 4100 002C            0002C 25297    2646.              LA    R0,44               And set maximum length
 00249C 4D90 616A            00180 25298    2647.              LCALL RTRIM               Strip trailing blanks
 0024A0 1E10                       25300    2648.              ALR   R1,R0               Point to last byte + 1
 0024A2 D207 1000 2000 00000 00000 25301    2649.              MVC   @R1(8),@SR          Set suffix into name
 0024A8 1813                       25302    2650.              LR    R1,TR               Set address for enq
 0024AA 4100 C12C            0012C 25303    2651.              LA    R0,SUBANCHR         Anchor address to queue
 0024AE 4D90 61A8            001BE 25304    2652.              LCALL ENQB                Add to front of queue
 0024B2 4BD0 7CCE/5890_      02DD0 25306    2653.              VPOP  RAR,,*              Restore return register
 0024BA 07F9                       25309    2654.              BR    RAR                 And return
00024BC                            25311    2656.     GETSPRM  LABEL ,
 0024BC 4100 0F5B            00F5B 25313    2657.              LA    R0,L'SUBPARM        Length required for subparm block
 0024C0 47F0 73C6/00/0_      024C8 25314    2658.              GETMAIN RC,LV=(0)         Request conditional memory
 0024D0 12FF/4780 73FE             25326    2659.              IF    (R15,NZ),BEGIN      Error return from getmain
 0024D6 4110 7DFE/4100_      02F00 25340  1 2660.                VSEG  'VDMP043E - Insufficient memory to process'
 0024E4 4110 7CD0/4100_      02DD2 25349  1 2661.                VSEG  ' control file.'
 0024F2 5890 7B9E/0D99       02CA0 25358  1 2662.                VWRITE ,                  Output to report file
 0024F8 9220 C05B      0005B       25363  1 2663.                MVI   RETCODE+3,NO_MEM    Set return code
 0024FC 47F0 60DA            000F0 25364  1 2664.                B     DUMPEXIT            Just exit from here
 002500                            25365    2665.              END   ,
 DROP   SUBPARM,R3                 25369    2665.1             WITH  (SUBPARM,R1),BEGIN  Addressability to subparameter
 USING  SUBPARM,R1
 002500 D7FF 1000 1000_00000 00000 25391  1 2665.2               CLEAR SUBPARM             Clear block to zeroes
 002560 D203 1008 7BE6 00008 02CE8 25413  1 2665.3               MVC   SUBNAME,=C'SUBP'    Set dump eye-catcher in block
 USING  SUBPARM,R3                 25414    2665.4             END   ,
 DROP   SUBPARM,R1
 002566 07F9                       25431    2666.              BR    RAR
1VDMP     (VDMP21) (09:46) (22MAR04) ORVYL's File System Dump Program: Common Routines                                      Page  115
0Current Usings:  (SUBPARM,R3) (DUMP,R6) (*,R7) (DWA,R12)
0Loc    Object Code    Addr1 Addr2  Stmt Lv Lineno    Source Statement           (Hibal 5, Asmedit 3.3)  HLASM R4.0  2004/03/22 09.46
+___    ______ ____    _____ _____  ____ __ ______    ______ _________
0                                  25433    2668.     ********************************************************************
                                   25434    2669.     *                                                                  *
                                   25435    2670.     *  Scanner exit routines for control file                          *
                                   25436    2671.     *                                                                  *
                                   25437    2672.     *        CAUTION: Register "TR" needs to be maintained throughout  *
                                   25438    2673.     *                 the SCAN exit routines.  If you use it, put it   *
                                   25439    2674.     *                 back.                                            *
                                   25440    2675.     *                                                                  *
                                   25441    2676.     ********************************************************************
0002568                            25443    2678.     CSEG     LABEL ,
 002568 91C0 C1C6/4780_001C6       25445    2679.              IF    FNCDMP+FNCINC,BEGIN Process segments
 002570 5900 7BEA/4770_      02CEC 25463  1 2680.                IF    (R0,NE,2),CNTERR    Must be two characters
 002578 D201 C216 1000 00216 00000 25483  1 2681.                MVC   CSEGMNT,@R1         Move in segment number
 00257E D501 C216 C214_00216 00214 25484  1 2682.                IF    (CSEGMNT,EQ,SEGMENT),'SET CNTNSEG'
 00258C D501 7CDE C214_02DE0 00214 25513  1 2683.                IF    (SEGMENT,EQ,'  '),'SET CNTNSEG'
 00259A                            25541    2684.              END   ,
 00259A 07FE                       25545    2685.              SCRTN (R15)               Return to the scanner
000259C                            25552    2687.     ESEG     LABEL ,                   Process "end-of-segment"
 00259C 9120 C1C5/47E0_001C5       25554    2688.              IF    CNTSEG,BEGIN        Complete intitialize of subparm
 0025A4 9108 C1C5/4710_001C5       25569  1 2689.                IF    ~CNTBSET,BEGIN      Set no start indicator
 0025AC D203 300C 7BEE 0000C 02CF0 25584  2 2690.                  MVC   SUBSTART,=A(-1)     Set no start given
 0025B2                            25585  1 2691.                END   ,
 0025B2 94DF C1C5      001C5       25589  1 2692.                CLEAR CNTSEG              Clear current segment
 0025B6 94F7 C1C5      001C5       25596  1 2693.                CLEAR CNTBSET             Clear orvyl block set
 0025BA D201 C216 7CDE 00216 02DE0 25603  1 2694.                MVC   CSEGMNT,=C'  '      Blank segment
 0025C0 D501 7CDE C214_02DE0 00214 25604  1 2695.                IF    (SEGMENT,NE,'  '),'CLEAR CNTEND'
 0025CE                            25633    2696.              END   ,
 0025CE 07FE                       25637    2697.              SCRTN (R15)               Return to the scanner
00025D0                            25644    2699.     CTAPE    LABEL ,                   Process tape file prefix
 0025D0 47D0 789C            0299E 25646    2700.              IF    NP,CNTERR           Parameter error, exit
 0025D4 9240 C268      00268       25660    2701.              MVI   TAPEDSN,C' '        Blank fill receive
 0025D8 D22A C269 C268 00269 00268 25661    2702.              MVC   TAPEDSN+1(L'TAPEDSN-1),TAPEDSN   Propogate blanks
 0025DE 5900 7BF2/4720_      02CF4 25662    2703.              IF    (R0,GT,44),CNTERR   Parameter error, exit
 0025E6 1820                       25682    2704.              LR    SR,R0               Copy length for executed MVC
 0025E8 0620/4420 7E7C_            25683    2705.              DEX   SR,'MVC TAPEDSN(0),@R1' move in tape dsn prefix
 0025EE 07FE                       25702    2706.              SCRTN (R15)               Return to the scanner
1VDMP     (VDMP21) (09:46) (22MAR04) ORVYL's File System Dump Program: Common Routines                                      Page  116
0Current Usings:  (SUBPARM,R3) (DUMP,R6) (*,R7) (DWA,R12)
0Loc    Object Code    Addr1 Addr2  Stmt Lv Lineno    Source Statement           (Hibal 5, Asmedit 3.3)  HLASM R4.0  2004/03/22 09.46
+___    ______ ____    _____ _____  ____ __ ______    ______ _________
00025F0                            25709    2708.     CPOOL    LABEL ,                   Incremental dump pool
 0025F0 47D0 789C            0299E 25711    2708.1             IF    NP,CNTERR           Exit on parameter error
 0025F4 5900 7BF6/47C0_      02CF8 25725    2708.2             IF    (R0,LE,1),CNTERR    Exit on parameter length error
 0025FC 90E4 D000/41D0_      00000 25745    2709.              VPUSH R14,QR,*            Save scanner registers
 002604 4110 1001            00001 25748    2710.              LA    R1,@R1+1            Bump to string start
 002608 5B00 7BEA            02CEC 25749    2711.              S     R0,=A(2)            Adjust string length
 00260C 41F0 C414/58E0_      00414 25750    2712.              SCINIT (R1),(R0),SCN2CB   Initialize secondary scanner
 002616                            25770    2713.              LOOP  BEGIN               Build pool block for each volume
 002616 1B11/41F0 C414_            25776  1 2714.                SCAN  ,SCN2CB             Pull off a volume serial
 002622 47D0 75BC            026BE 25792  1 2715.                IF    P,BEGIN             Found a valid string
 002626 9140 C1C6/47E0_001C6       25803  2 2716.                  IF    FNCINC,BEGIN        ONLY FOR INCREMENTAL DUMPING
 00262E 9001 C010            00010 25818  3 2717.                    STM   R0,R1,CLWTEMP       Save length and pointer
 002632 0700/47F0 753E_            25819  3 2718.                    GETMAIN RC,LV=L'INCPL     Request inc pool block memory
 00264C 12FF/4780 756C             25833  3 2719.                    IF    (R15,NZ),BEGIN      INSUFFICIENT MEMORY
 002652 4110 7E27/4100_      02F29 25847  4 2720.                      VSEG  'VDMP089E - Insufficient memory.'
 002660 5890 7B9E/0D99       02CA0 25856  4 2721.                      VWRITE ,
 002666 9220 C05B      0005B       25861  4 2722.                      MVI   RETCODE+3,NO_MEM    SET INSUFFICIENT MEMORY RETURN
 00266A 47F0 60DA            000F0 25862  4 2723.                      B     DUMPEXIT            RETURN WITH FAILURE
 00266E                            25863  3 2724.                    END   ,
 00266E 1821                       25867  3 2725.                    LR    SR,R1               Save address to pool block
 USING  INCPL,R2                   25868  3 2726.                    WITH  (INCPL,SR),BEGIN    ADDRESSABILITY TO POOL BLOCK
 002670 D755 2000 2000 00000 00000 25882  4 2727.                      CLEAR INCPL               ZERO INCREMENTAL POOL BLOCK
 002676 9834 C010            00010 25889  4 2728.                      LM    TR,QR,CLWTEMP       Restore pointers
 00267A D205 2032 7CE0 00032 02DE2 25890  4 2729.                      MVC   INCPVOL,=CL6' '     BLANK FILL VOLUME SERIAL
 002680 0630/4430 7E82_            25891  4 2730.                      DEX   TR,'MVC INCPVOL(0),@QR' SET VOLUME SERIAL
 002686 D203 201C C170 0001C 00170 25910  4 2731.                      MVC   INCPALLO,TRKALLO     SET TRACK ALLOCATION VALUE
 00268C D603 C164 C164_00164 00164 25911  4 2731.1                     IF    (INCPOOL,Z),BEGIN   CHAIN FIRST BLOCK OFF OF ANCHOR
 002696 5020 C164            00164 25927  5 2731.2                       ST    SR,INCPOOL          SET CHAINED FROM ANCHOR
 00269A 5020 C16C            0016C 25928  5 2731.21                      ST    SR,INCPLST          SET LAST CHAINED POOL BLOCK
 00269E 4100 C164            00164 25929  5 2731.22                      LA    R0,INCPOOL          SET ADDRESS OF ANCHOR
 0026A2 5000 2004            00004 25930  5 2731.23                      ST    R0,INCPBCK          SET BACK POINTER TO ANCHOR
 0026A6 75A8/47F0 75B8 026A6 02694 25931  4 2731.3                     END   ELSE,BEGIN
 0026AA 5810 C16C            0016C 25946  5 2731.31                      L     R1,INCPLST          SET LAST CHAINED POOL BLOCK
 0026AE 5020 1000            00000 25947  5 2731.32                      ST    SR,INCPNXT-INCPL(,R1)   CHAIN CURRENT FROM LAST
 0026B2 5010 2004            00004 25948  5 2731.33                      ST    R1,INCPBCK              SET BACK POINTER
 0026B6 5020 C16C            0016C 25949  5 2731.34                      ST    SR,INCPLST              REST CURRENT LAST CHAINED
 0026BA                            25950  4 2731.4                     END   ,
 DROP   INCPL,R2                   25954  3 2735.                    END   ,
 0026BA                            25962  2 2736.                  END   ,
 0026BA 9500 75B8      026BA       25966  2 2737.                  CLI   *,0                 RESET CONDITION CODE TO NZ
 0026BE                            25967  1 2738.                END   ,
 0026BE 4770 7514            02616 25971    2739.              UNTIL Z,END               PROCESS EACH ONE
 0026C2 4BD0 7CE6/98E4_      02DE8 25990    2740.              VPOP  R14,QR,*            Restore scanner registers
 0026CA 07FE                       25993    2741.              SCRTN (R15)               RETURN TO THE SCANNER
00026CC                            26000    2742.01   CDAILY   LABEL ,
 0026CC 9610 C1C1      001C1       26002    2742.02            SET   FLDAILY             DO "DAILY" INCREMENT DUMP
 0026D0 07FE                       26008    2742.03            SCRTN (R15)               RETURN TO SCANNER
00026D2                            26015    2742.88   COPORD   LABEL ,                   USE INCREMENT POOL IN "ORDER"
 0026D2 9620 C1C1      001C1       26017    2742.89            SET   FLORDER             SET ORDER OPTION
 0026D6 07FE                       26023    2742.9             SCRTN (R15)               RETURN TO THE SCANNER
00026D8                            26030    2742.92   CSECT    LABEL ,                   UTILIZE SECTOR COMMANDS
1VDMP     (VDMP21) (09:46) (22MAR04) ORVYL's File System Dump Program: Common Routines                                      Page  117
0Current Usings:  (SUBPARM,R3) (DUMP,R6) (*,R7) (DWA,R12)
0Loc    Object Code    Addr1 Addr2  Stmt Lv Lineno    Source Statement           (Hibal 5, Asmedit 3.3)  HLASM R4.0  2004/03/22 09.46
+___    ______ ____    _____ _____  ____ __ ______    ______ _________
00026D8 9680 C1C3      001C3       26032    2742.93            SET   FLSECT              SET SECTOR COMMANDS TO BE USED
 0026DC 07FE                       26038    2742.94            SCRTN (R15)               RETURN TO SCANNER
00026DE                            26045    2742.96   CNSECT   LABEL ,                   DISABLE SECTOR COMMANDS
 0026DE 947F C1C3      001C3       26047    2742.97            CLEAR FLSECT              DISABLE SET SECTOR COMMANDS
 0026E2 07FE                       26054    2742.98            SCRTN (R15)               RETURN TO SCANNER
00026E4                            26061    2743.     CHIST    LABEL ,                   PROCESS HISTORY FILE DSN
 0026E4 47D0 789C            0299E 26063    2744.              IF    NP,CNTERR           PARAMETER ERROR, EXIT
 0026E8 5900 7BF2/4720_      02CF4 26077    2745.              IF    (R0,GT,44),CNTERR   CAN'T BE TOO LARGE EITHER
 0026F0 9240 C294      00294       26097    2746.              MVI   HISTFDSN,C' '       Blank fill receive area
 0026F4 D22A C295 C294 00295 00294 26098    2747.              MVC   HISTFDSN+1(L'HISTFDSN-1),HISTFDSN  PROPOGATE BLANKS
 0026FA 1820                       26099    2748.              LR    SR,R0               MOVE LENGTH FOR EXECUTED MVC
 0026FC 0620/4420 7E88_            26100    2749.              DEX   SR,'MVC HISTFDSN(0),@R1' MOVE IN HISTORY FILE DSN
 002702 07FE                       26119    2750.              SCRTN (R15)               RETURN TO SCANNER
0002704                            26126    2752.     CTSKLVL  LABEL ,                   Set filedump subtasking level
 002704 47D0 789C            0299E 26128    2753.              IF    NP,CNTERR           Exit on bad parameter
 002708 D503 7BFA C114_02CFC 00114 26142    2754.              IF    (TASKLVL,EQ,-1),BEGIN   Only if not already set
 002712 D203 C114 F000 00114 00000 26160  1 2755.                MVC   TASKLVL,@R15            Set level from scanner block
 002718                            26161    2756.              END   ,
 002718 D503 7BFA C118_02CFC 00118 26165    2756.1             IF    (INCLVL,EQ,-1),BEGIN    And to INC Task is not set
 002722 D203 C114 F000 00114 00000 26183  1 2756.2               MVC   TASKLVL,@R15            Set level from scanner block
 002728                            26184    2756.3             END   ,
 002728 D503 7BFA C11C_02CFC 0011C 26188    2756.4             IF    (DMPLVL,EQ,-1),BEGIN    And to Dump Task is not set
 002732 D203 C114 F000 00114 00000 26206  1 2756.5               MVC   TASKLVL,@R15            Set level from scanner block
 002738                            26207    2756.6             END   ,
 002738 07FE                       26211    2757.              SCRTN (R15)                   Return to the scanner
000273A                            26218    2758.1    CBLDPRM  LABEL ,                   SET CATALOG BUILD PARAMETER
 00273A 47D0 789C            0299E 26220    2758.2             IF    NP,CNTERR           EXIT ON BAD PARAMETER
 00273E 1820                       26234    2758.3             LR    SR,R0               COPY PARAMETER LENGTH
 002740 954D 1000      00000       26235    2758.4             CLI   @R1,C'('            PARANTHETICAL
 002744 4770 764E            02750 26236    2758.5             IF    EQ,BEGIN
 002748 4110 1001            00001 26247  1 2758.6               LA    R1,@R1+1            BUMP PAST DELIMETER
 00274C 5B20 7BEA            02CEC 26248  1 2758.7               S     SR,=A(2)            DECREMENT LENGTH
 002750                            26249    2758.8             END   ,
 002750 957D 1000      00000       26253    2758.9             CLI   @R1,C''''           QUOTED STRING?
 002754 4770 765E            02760 26254    2759.              IF    EQ,BEGIN            ADJUST ADDRESS AND LENGTH
 002758 4110 1001            00001 26265  1 2759.2               LA    R1,@R1+1            BUMP PAST DELIMETER
 00275C 5B20 7BEA            02CEC 26266  1 2759.4               S     SR,=A(2)            DECREMENT LENGTH
 002760                            26267    2759.6             END   ,
 002760 4020 C2E0            002E0 26271    2759.8             STH   SR,VBLDPRM          RESET PARAMETER LENGTH
 002764 0620/4420 7E8E_            26272    2760.              DEX   SR,'MVC VBLDTEXT(0),@R1'      MOVE IN PARAMETER
 00276A 07FE                       26291    2760.2             SCRTN (R15)               RETURN TO THE SCANNER
000276C                            26298    2760.41   CVRFPRM  LABEL ,                   SET VERIFY PARAMETER
 00276C 47D0 789C            0299E 26300    2760.42            IF    NP,CNTERR           EXIT ON BAD PARAMETER
 002770 1820                       26314    2760.43            LR    SR,R0               COPY PARAMETER LENGTH
 002772 954D 1000      00000       26315    2760.44            CLI   @R1,C'('            PARANTHETICAL
 002776 4770 7680            02782 26316    2760.45            IF    EQ,BEGIN
 00277A 4110 1001            00001 26327  1 2760.46              LA    R1,@R1+1            BUMP PAST DELIMETER
 00277E 5B20 7BEA            02CEC 26328  1 2760.47              S     SR,=A(2)            DECREMENT LENGTH
 002782                            26329    2760.48            END   ,
1VDMP     (VDMP21) (09:46) (22MAR04) ORVYL's File System Dump Program: Common Routines                                      Page  118
0Current Usings:  (SUBPARM,R3) (DUMP,R6) (*,R7) (DWA,R12)
0Loc    Object Code    Addr1 Addr2  Stmt Lv Lineno    Source Statement           (Hibal 5, Asmedit 3.3)  HLASM R4.0  2004/03/22 09.46
+___    ______ ____    _____ _____  ____ __ ______    ______ _________
0002782 957D 1000      00000       26333    2760.49            CLI   @R1,C''''           QUOTED STRING?
 002786 4770 7690            02792 26334    2760.5             IF    EQ,BEGIN            ADJUST ADDRESS AND LENGTH
 00278A 4110 1001            00001 26345  1 2760.51              LA    R1,@R1+1            BUMP PAST DELIMETER
 00278E 5B20 7BEA            02CEC 26346  1 2760.52              S     SR,=A(2)            DECREMENT LENGTH
 002792                            26347    2760.53            END   ,
 002792 4020 C34C            0034C 26351    2760.54            STH   SR,VRFYPRM          RESET PARAMETER LENGTH
 002796 0620/4420 7E94_            26352    2760.55            DEX   SR,'MVC VRFYTEXT(0),@R1'      MOVE IN PARAMETER
 00279C 07FE                       26371    2760.56            SCRTN (R15)               RETURN TO THE SCANNER
000279E                            26378    2760.8    CINCLVL  LABEL ,                   Set incremental tasking level
 00279E 47D0 789C            0299E 26380    2761.              IF     NP,CNTERR          Exit on bad parameter
 0027A2 D503 7BFA C118_02CFC 00118 26394    2761.2             IF    (INCLVL,EQ,-1),BEGIN    only if not already set
 0027AC D203 C118 F000 00118 00000 26412  1 2761.4               MVC   INCLVL,@R15             set level from scanner block
 0027B2                            26413    2761.6             END   ,
 0027B2 07FE                       26417    2761.8             SCRTN (R15)               Return to the scanner
00027B4                            26424    2766.     CDMPLVL  LABEL ,                   Set dump tasking level
 0027B4 47D0 789C            0299E 26426    2767.              IF     NP,CNTERR          Exit on bad parameter
 0027B8 D503 7BFA C11C_02CFC 0011C 26440    2768.              IF    (DMPLVL,EQ,-1),BEGIN    only if not already set
 0027C2 D203 C11C F000 0011C 00000 26458  1 2769.                MVC   DMPLVL,@R15             set level from scanner block
 0027C8                            26459    2770.              END   ,
 0027C8 07FE                       26463    2771.              SCRTN (R15)               Return to the scanner
00027CA                            26470    2773.     CIORATE  LABEL ,                   Set dump/incremental i/o rate
 0027CA 47D0 789C            0299E 26472    2774.              IF    NP,CNTERR           Exit on bad parameter
 0027CE 9680 C1C7      001C7       26486    2775.              SET   TFRATE              Set throttle control active
 0027D2 5810 F000            00000 26492    2776.              L     R1,@R15             Set global i/o rate desired
 0027D6 5C00 7BFE            02D00 26493    2777.              M     R0,=A(100)          Convert to hundreths
 0027DA 5010 C184            00184 26494    2778.              ST    R1,GIOLIMIT         Save global i/o rate desired
 0027DE 07FE                       26495    2779.              SCRTN (R15)               Return to the scanner
00027E0                            26502    2779.1    CINCSZ   LABEL ,                   Set incremental track allocation
 0027E0 47D0 789C            0299E 26504    2779.11            IF    NP,CNTERR           Exit on bad parameter
 0027E4 D603 C164 C164_00164 00164 26518    2779.12            IF    (INCPOOL,Z),BEGIN   OK if pool blocks not built yet
 0027EE D203 C170 F000 00170 00000 26534  1 2779.5               MVC   TRKALLO,@R15        Set allocation amount
 0027F4 76F6/47F0 7728 027F4 027EC 26535    2779.51            END   ELSE,BEGIN          Error - must be before pool build
 0027F8 90EF D000/41D0_      00000 26550  1 2779.52              VPUSH R14,R15,*           Save registers
 002800 4110 7CE8/4100_      02DEA 26553  1 2779.53              VSEG  'VDMP763W - Incremental DSN size out of order, '
 00280E 4110 7B56/4100_      02C58 26562  1 2779.54              VSEG  'IGNORED.'
 00281C 5890 7B9E/0D99       02CA0 26571  1 2779.55              VWRITE ,                  Write to report file
 002822 4BD0 7D16/98EF_      02E18 26576  1 2779.56              VPOP  R14,R15,*           Restore registers
 00282A                            26579    2779.57            END   ,
 00282A 07FE                       26583    2779.6             SCRTN (R15)               Return to the scanner
000282C                            26590    2780.01   CTIDRC   LABEL ,
 00282C 47D0 789C            0299E 26592    2780.02            IF    NP,CNTERR           EXIT ON BAD PARAMETER
 002830 D502 7E46 1000_02F48 00000 26606    2780.04            IF    (=C'YES',EQ,@R1),'SET FLIDRC'
 00283E 7740/47F0 7744_0283E 02838 26633    2780.05            ELSE  'CLEAR FLIDRC'
 002846 07FE                       26656    2780.98            SCRTN (R15)               RETURN TO THE SCANNER
0002848                            26663    2781.     CTAPUNIT LABEL ,
 002848 47D0 789C            0299E 26665    2782.              IF    NP,CNTERR           Exit on bad parameter
 00284C D207 C2C8 7B5E 002C8 02C60 26679    2783.              MVC   TAPEUNIT,=CL8' '    Clear tape unit allocation
 002852 1820                       26680    2784.              LR    SR,R0               Copy parameter length
1VDMP     (VDMP21) (09:46) (22MAR04) ORVYL's File System Dump Program: Common Routines                                      Page  119
0Current Usings:  (SUBPARM,R3) (DUMP,R6) (*,R7) (DWA,R12)
0Loc    Object Code    Addr1 Addr2  Stmt Lv Lineno    Source Statement           (Hibal 5, Asmedit 3.3)  HLASM R4.0  2004/03/22 09.46
+___    ______ ____    _____ _____  ____ __ ______    ______ _________
0002854 0620/4420 7E9A_            26681    2784.96            DEX   SR,'CLC @R1(0),=CL8"DUMMY"'
 00285A 4770 7760            02862 26700    2784.97            IF    EQ,BEGIN            Processing dummy tape output
 00285E 9602 C1C0      001C0       26711  1 2784.98              SET   FLDUMMY             Set for DD Dummy processing
 002862 7764/47F0 7768 02862 0285C 26717    2784.99            END   ELSE,BEGIN          ELSE MOVE IN TAPE UNIT
 002866 4420 7EA0/D200_      02FA2 26732  1 2785.                EX    SR,'MVC TAPEUNIT(0),@R1' Set tape unit esoteric
 00286A                            26748    2785.1             END   ,
 00286A 07FE                       26752    2786.              SCRTN (R15)               Return to the scanner
000286C                            26759    2788.     CFILE    LABEL ,
 00286C 47D0 789C            0299E 26761    2789.              IF    NP,CNTERR           Exit on bad parameter
 002870 9120 C1C5/47E0_001C5       26775    2790.              IF    CNTSEG,BEGIN        If processing a valid segment
 002878 9640 C1C5      001C5       26790  1 2791.                SET   CNTFILS             Set files have been defined
 00287C 4140 0001/5E40_      00001 26796  1 2792.                INCR  QR,SUBCNT           Bump file counter
 002888 5B40 7BF6            02CF8 26802  1 2793.                S     QR,=A(1)            Adjust for address computation
 00288C 4C40 7D18            02E1A 26803  1 2794.                MH    QR,=Y(L'DSNENTRY)   Length
 002890 4144 3053            00053 26804  1 2795.                LA    QR,SUBDSN(QR)       Address to place name
 002894 1820                       26805  1 2796.                LR    SR,R0               Copy length for data set name
 002896 0620/4420 7EA6_            26806  1 2797.                DEX   SR,'MVC @QR(0),@R1'   MOVE IN DATA SET NAME
 00289C                            26825    2798.              END   ,
 00289C 07FE                       26829    2799.              SCRTN (R15)               Return to the scanner
000289E                            26836    2801.     CSEQ     LABEL ,                   Process segment sequence number
 00289E 47D0 789C            0299E 26838    2802.              IF    NP,CNTERR             Exit on bad parameter
 0028A2 9120 C1C5/47E0_001C5       26852    2803.              IF    CNTSEG,BEGIN        IF PROCESSING A VALID SEGMENT
 0028AA D203 3010 F000 00010 00000 26867  1 2804.                MVC   SUBSEQ,@R15             Set sequence number
 0028B0                            26868    2805.              END   ,
 0028B0 07FE                       26872    2806.              SCRTN (R15)                     Return to the scanner
00028B2                            26879    2808.     CON      LABEL ,
 0028B2 47D0 789C            0299E 26881    2809.              IF    NP,CNTERR           Exit on bad parameter
 0028B6 9120 C1C5/47E0_001C5       26895    2810.              IF    CNTSEG,BEGIN        If processing a valid segment
 0028BE 5840 3020            00020 26910  1 2811.                L     QR,SUBCNT           Get current file count
 0028C2 5B40 7BF6            02CF8 26911  1 2812.                S     QR,=A(1)            Adjust for address computation
 0028C6 4C40 7D18            02E1A 26912  1 2813.                MH    QR,=Y(L'DSNENTRY)   Offset to current file area
 0028CA 4144 3053            00053 26913  1 2814.                LA    QR,SUBDSN(QR)       Set address of current file area
 0028CE 1820                       26914  1 2815.                LR    SR,R0               Copy length for execute mvc
 0028D0 0620/4420 7EAC_            26915  1 2816.                DEX   SR,'MVC @QR+44(0),@R1'  Move in volume serial
 0028D6                            26934    2817.              END   ,
 0028D6 07FE                       26938    2818.              SCRTN (R15)               Return to the scanner
00028D8                            26945    2820.     CSTRT    LABEL ,                   Set starting ORVYL block
 0028D8 47D0 789C            0299E 26947    2821.              IF    NP,CNTERR           Exit on bad parameter
 0028DC 9120 C1C5/47E0_001C5       26961    2822.              IF    CNTSEG,BEGIN        If processing a valid segment
 0028E4 90EF D000/41D0_      00000 26976  1 2823.                VPUSH R14,R15,*           Save scanner return registers
 0028EC 58E0 7C02/0DEE       02D04 26979  1 2824.                DTB   (R1),(R0)           Convert to binary in reg15
 0028F2 50F0 300C            0000C 26994  1 2825.                ST    R15,SUBSTART        Set into subparameter block
 0028F6 9608 C1C5      001C5       26995  1 2826.                SET   CNTBSET             Set starting block flag
 0028FA 4BD0 7D16/98EF_      02E18 27001  1 2827.                VPOP  R14,R15,*           Restore scranner registers
 002902                            27004    2828.              END   ,
 002902 07FE                       27008    2829.              SCRTN (R15)               Return to the scanner
1VDMP     (VDMP21) (09:46) (22MAR04) ORVYL's File System Dump Program: Common Routines                                      Page  120
0Current Usings:  (SUBPARM,R3) (DUMP,R6) (*,R7) (DWA,R12)
0Loc    Object Code    Addr1 Addr2  Stmt Lv Lineno    Source Statement           (Hibal 5, Asmedit 3.3)  HLASM R4.0  2004/03/22 09.46
+___    ______ ____    _____ _____  ____ __ ______    ______ _________
0002904                            27015    2830.1    SEND_DEF LABEL ,
 002904 94FB C1C5      001C5       27017    2830.2             CLEAR CNTSKIP             Reached end of a definition
 002908 07FE                       27024    2830.3             SCRTN (R15)
 00290A                            27030    2830.4    SBCV_DEF LABEL ,
 00290A 9604 C1C5      001C5       27032    2830.5             SET   CNTSKIP             Skip EMC BCV definitions for now
 00290E 07FE                       27038    2830.6             SCRTN (R15)
 002910                            27044    2831.     CWHAT    LABEL ,                   Report undefined keyword in file
 002910 90E4 D000/41D0_      00000 27046    2832.              VPUSH R14,QR,*            Save scanner registers
 002918 9104 C1C5/4710_001C5       27049    2832.1             IF    ~CNTSKIP,BEGIN      Are we skipping through?
 002920 182F                       27064  1 2833.                LR    SR,R15              Save address of scancb
 USING  SCANCB,R2                  27065  1 2834.                WITH  (SCANCB,SR),BEGIN   Addressability to scancb
 002922 4110 7B6E/4100_      02C70 27079  2 2835.                  VSEG  'VDMP073W - Undefined keyword parameter "'
 002930 4110 2004            003F8 27088  2 2836.                  LA    R1,SCANKW           Address of keyword
 002934 4100 0008            00008 27089  2 2837.                  LA    R0,8                Maximum length
 002938 4D90 616A            00180 27090  2 2838.                  LCALL RTRIM               Strip trailing blanks
 00293C 5890 7B9A/0D99       02C9C 27092  2 2839.                  VSEG  (R1),(R0)           Add invalid parameter
 002942 4110 7D1A/4100_      02E1C 27107  2 2840.                  VSEG  '" in control file at line '
 002950 58F0 C10C/1B00_      0010C 27116  2 2841.                  SEGDC 0,CNTNUM            Add control card number
 002966 5890 7B9E/0D99       02CA0 27155  2 2842.                  VWRITE ,                  Write to report file
 00296C 4100 0010/4110_      00010 27160  2 2842.01                VCNTL BLANK,11            Report flushing remaining
 00297A 4110 7C0A/4100_      02D0C 27179  2 2842.02                VWRITE 'Remaining data on this card will be flushed.'
 00298E D703 200C 200C 00400 00400 27193  2 2842.1                 CLEAR SCANLEN             Clear remaining length in buffer
 DROP   SCANCB,R2                  27200  1 2843.                END   ,
 002994                            27208    2843.1             END   ,
 002994 4BD0 7CE6/98E4_      02DE8 27212    2844.              VPOP  R14,QR,*            Retrieve scanner registers
 00299C 07FE                       27215    2845.              SCRTN (R15)               And return to the scanner
000299E                            27222    2847.     CNTERR   LABEL ,                   Report control parm error
 00299E 4110 7E49/4100_      02F4B 27224    2848.              VSEG  'VDMP011E - Parameter error in control file at card '
 0029AC 58F0 C10C/1B00_      0010C 27233    2849.              SEGDC 0,L:CNTNUM          Add card number to message
 0029C2 5890 7B9E/0D99       02CA0 27272    2850.              VWRITE ,                  Write to report file
 0029C8 4100 0010/4110_      00010 27277    2851.              VCNTL BLANK,11            Add spacer blanks
 0029D6 4110 7D34/4100_      02E36 27296    2852.              VSEG  '=>'                Add delimeter
 0029E4 4110 C218            00218 27305    2853.              LA    R1,CNTBUF           Address of current control card
 0029E8 4100 0050            00050 27306    2854.              LA    R0,L'CNTBUF         Set maximum length of control
 0029EC 4D90 616A            00180 27307    2855.              LCALL RTRIM               Strip trailing blanks
 0029F0 5890 7B9A/0D99       02C9C 27309    2856.              VSEG  (R1),(R0)           Add control card
 0029F6 4110 7D36/4100_      02E38 27324    2857.              VSEG  '<='                Add trailer
 002A04 5890 7B9E/0D99       02CA0 27333    2858.              VWRITE ,                  Write to report file
 002A0A 9210 C05B      0005B       27338    2859.              MVI   RETCODE+3,CNT_PRM   Set return code
 002A0E 47F0 60DA            000F0 27339    2860.              B     DUMPEXIT            And return empty handed
-DROP   SUBPARM,R3                 27341    2861.              DROP  TR                  ## RELEASE SUBPARM ADDRESSABILITY
 DROP   *,R7                       27348    2861.1             Drop  BR                  Release local routine basing
1VDMP     (VDMP21) (09:46) (22MAR04) ORVYL's File System Dump Program: Common Routines                                      Page  121
0Current Usings:  (DUMP,R6) (DWA,R12)
0Loc    Object Code    Addr1 Addr2  Stmt Lv Lineno    Source Statement           (Hibal 5, Asmedit 3.3)  HLASM R4.0  2004/03/22 09.46
+___    ______ ____    _____ _____  ____ __ ______    ______ _________
0                                  27356    2863.     ********************************************************************
                                   27357    2864.     *                                                                  *
                                   27358    2865.     ** Define KWRT for file system definition file                     *
                                   27359    2866.     *                                                                  *
                                   27360    2867.     ********************************************************************
0002A12 8C000000C3D7E4C9           27362    2869.     CNTKWR   SCKW  CPUID,0,(A,P)           Process CPUID for machine
 002A1B 8B000000D5C1D4C5           27364    2870.              SCKW  NAME,0,(A,P)            Process file system name
 002A23 8E002568E2C5C7D4           27366    2871.              SCKW  SEGMENT,CSEG,(A,P)      Process specific segment
 002A2E 0D00259CC5D5C4E2           27368    2872.              SCKW  ENDSEG,ESEG,A           Process end of segment def
 002A38 8B00286CC6C9D3C5           27370    2873.              SCKW  FILE,CFILE,(A,P)        Process file Data set name
 002A40 890028B2D6D5               27372    2874.              SCKW  ON,CON,(A,P)            Process volume
 002A46 8C0028D8E2E3C1D9           27374    2875.              SCKW  START,CSTRT,(A,P)       Process starting block
 002A4F 8E0026E4C8C9E2E3           27376    2876.              SCKW  HISTORY,CHIST,(A,P)     Process HISTORY file
 002A5A 0D0026D8E2C5C3E3           27378    2876.01            SCKW  SECTOR,CSECT,A          PROCESS SECTOR COMMANDS
 002A64 030043B6C5C3D2C4           27380    2876.02            SCKW  ECKD,SETECKD            Process ECKD CCW option
 002A6C 060043BCD9C5C1C4           27382    2876.03            SCKW  READANY,SETRANY         PROCESS READ ANY CCW
 002A77 070043C2D7D9C5E2           27384    2876.13            SCKW  PRESTAGE,SETPSTG        PROCESS CACHE PRESTAGE
 002A83 070043C8C3E8D3C9           27386    2876.98            SCKW  CYLINDER,SETCYL         Process Cylinder I/O
 002A8F 0F0026DED5D6E2C5           27388    2876.99            SCKW  NOSECTOR,CNSECT,A       PROCESS NO SECTOR COMMANDS
 002A9B 8B0025D0E3C1D7C5           27390    2877.              SCKW  TAPE,CTAPE,(A,P)        Process tape prefix dsn
 002AA3 AE0027E0C9D5C3E2           27392    2877.1             SCKW  INCSIZE,CINCSZ,(A,P,PI) Process incremental size
 002AAE CF00289EE2C5D8E4           27394    2878.              SCKW  SEQUENCE,CSEQ,(A,P,I)   PROCESS SEQUENCE NUMBER
 002ABA 8B0025F0D7D6D6D3           27396    2879.              SCKW  POOL,CPOOL,(A,P)        PROCESS INC DUMP POOL
 002AC2 0D0026D2D7D6D9C4           27398    2879.1             SCKW  PORDER,COPORD,A         PROCESS POOL ORDERING
 002ACC 0C0026CCC4C1C9D3           27400    2879.2             SCKW  DAILY,CDAILY,A          PROCESS DAILY INCREMENTAL
 002AD5 CD0027CAC9D6D9C1           27402    2880.              SCKW  IORATE,CIORATE,(A,P,I)  PROCESS DUMP/INC I/O RATE
 002ADF 8B002848E4D5C9E3           27404    2881.              SCKW  UNIT,CTAPUNIT,(A,P),8   PROCESS TAPE ALLOCATION UNIT
 002AE7 86000000E4D5C9E3           27406    2881.01            SCKW  UNITCAT,,P              PROCESS TAPE ALLOCATION UNIT
 002AF2 85000000E4D5C9E3           27408    2881.02            SCKW  UNITIX,,P               PROCESS TAPE ALLOCATION UNIT
 002AFC 8B00282CC9C4D9C3           27410    2881.1             SCKW  IDRC,CTIDRC,(A,P)       PROCESS TAPE COMPACTION
 002B04 AE002704E3C1E2D2           27412    2882.              SCKW  TASKLVL,CTSKLVL,(A,P,PI)
 002B0F AF0027B4C4E4D4D7           27414    2883.              SCKW  DUMPTASK,CDMPLVL,(A,P,PI)
 002B1B AE00279EC9D5C3E3           27416    2884.              SCKW  INCTASK,CINCLVL,(A,P,PI)
 002B26 8F00273AE5C2D3C4           27418    2884.01            SCKW  VBLDPARM,CBLDPRM,(A,P)  PROCESS CATALOG PARAMETER
 002B32 8F00276CE5D9C6E8           27420    2884.02            SCKW  VRFYPARM,CVRFPRM,(A,P)  PROCESS VERIFY PARAMETER
 002B3E 8D000000D3C9D5D2           27422    2884.03            SCKW  LINKED,0,(A,P)          PROCESS LINKED FILE SYSTEMS
 002B48 8E000000E5C5D9E2           27424    2884.04            SCKW  VERSUCC,0,(A,P)         COMMAND FOR SUCCESSFUL VRFY
 002B53 8C000000C6D3C9E2           27426    2884.05            SCKW  FLIST,0,(A,P)           FILELIST DATA SET NAME
 002B5C 8C000000C6D3E5D6           27428    2884.06            SCKW  FLVOL,0,(A,P)           FILELIST VOLUME SERIAL
 002B65 06000000E2E3C1C3           27430    2884.07            SCKW  STACKED,0               Used by VMNT routine
-                                  27433    2884.95   *
                                   27434    2884.96   *  Future reserved keywords for use by Orvyl
                                   27435    2884.97   *
0002B70 8D000000C4C4D5C1           27437    2884.99            SCKW  DDNAME,0,(A,P)
 002B7A 8C000000D6E6D5C5           27439    2885.              SCKW  OWNER,0,(A,P)
 002B83 8F000000C4C5C6C2           27441    2885.1             SCKW  DEFBLOCK,0,(A,P)
 002B8F 8E000000C3C1E3C2           27443    2885.2             SCKW  CATBUFF,0,(A,P)
 002B9A 8E000000C2C9E3C2           27445    2885.3             SCKW  BITBUFF,0,(A,P)
 002BA5 8F000000C2C9E3C3           27447    2885.31            SCKW  BITCACHE,0,(A,P)
 002BB1 8C000000C3C1C3C8           27449    2885.4             SCKW  CACHE,0,(A,P)
1VDMP     (VDMP21) (09:46) (22MAR04) ORVYL's File System Dump Program: Common Routines                                      Page  122
0Current Usings:  (DUMP,R6) (DWA,R12)
0Loc    Object Code    Addr1 Addr2  Stmt Lv Lineno    Source Statement           (Hibal 5, Asmedit 3.3)  HLASM R4.0  2004/03/22 09.46
+___    ______ ____    _____ _____  ____ __ ______    ______ _________
0002BBA 8D000000C2D3D6C3           27451    2886.              SCKW  BLOCKS,0,(A,P)
 002BC4 8D000000D5D6D5C9           27453    2887.              SCKW  NONIXR,0,(A,P)
 002BCE 8F000000D7D9D6C4           27455    2888.              SCKW  PRODUCTION,0,(A,P)
 002BDA 8D000000D5D6D5C9           27457    2888.1             SCKW  NONIXR,0,(A,P)
 002BE4 8B000000C1C3C3E3           27459    2888.2             SCKW  ACCT,0,(A,P)
 002BEC 8E000000C2C1E3C3           27461    2889.              SCKW  BATCHRO,0,(A,P)
 002BF7 0E000000C4E4D4D7           27463    2890.              SCKW  DUMPDEF,0,A
 002C02 0D002904C5D5C4C4           27465    2891.              SCKW  ENDDEF,SEND_DEF,A
 002C0C 0D00290AC2C3E5C4           27467    2891.1             SCKW  BCVDEF,SBCV_DEF,A   Skip EMC BCV definition tables
 002C16 0E000000C6C9D3C5           27469    2892.              SCKW  FILEDEF,0,A
 002C21 AE000000C9E7D9C2           27471    2892.1             SCKW  IXRBUFS,0,(A,P,PI)
 002C2C 0D000000C7D9D7C4           27473    2893.              SCKW  GRPDEF,0,A
 002C36 8B000000E6C1D9D5           27475    2893.1             SCKW  WARN,0,(A,P)        Skip VMNT parameter
 002C3E FF002910                   27477    2894.              SCKW  ,CWHAT              Undefined keyword parameter
1VDMP     (VDMP21) (09:46) (22MAR04) ORVYL's File System Dump Program: Common Routines                                      Page  123
0Current Usings:  (DUMP,R6) (DWA,R12)
0Loc    Object Code    Addr1 Addr2  Stmt Lv Lineno    Source Statement           (Hibal 5, Asmedit 3.3)  HLASM R4.0  2004/03/22 09.46
+___    ______ ____    _____ _____  ____ __ ______    ______ _________
0002C48                            27480    2896.              LTORG ,
 002C48 C3D6D5E3D9D6D340           27482                             =CL8'CONTROL'
 002C50 C5D5C1C2D3C5C44B           27483                             =C'ENABLED.'
 002C58 C9C7D5D6D9C5C44B           27484                             =C'IGNORED.'
 002C60 4040404040404040           27485                             =CL8' '
 002C68 C4E4D4D4E8404040           27486                             =CL8'DUMMY'
 002C70 E5C4D4D7F0F7F3E6           27487                             =C'VDMP073W - Undefined keyword parameter "'
 002C98 00180000                   27488                             =AL2(DALSYSOU,0)
 002C9C 00000000                   27489                             =V(VSEG)
 002CA0 00000000                   27490                             =V(VWRITE)
 002CA4 00000000                   27491                             =V(SCINIT)
 002CA8 00000000                   27492                             =V(SCAN)
 002CAC 00000000                   27493                             =V(BTR)
 002CB0 E5C4D4D7F0F4F7C9           27494                             =C'VDMP047I - History file data set is '
 002CD4 000032D4                   27495                             =A(OPENHIST)
 002CD8 00000000                   27496                             =V(VCNTRL)
 002CDC 00000000                   27497                             =V(BTX)
 002CE0 00000FFF                   27498                             =A(X'FFF')
 002CE4 00000000                   27499                             =A(0)
 002CE8 E2E4C2D7                   27500                             =C'SUBP'
 002CEC 00000002                   27501                             =A(2)
 002CF0 FFFFFFFF                   27502                             =A(-1)
 002CF4 0000002C                   27503                             =A(44)
 002CF8 00000001                   27504                             =A(1)
 002CFC FFFFFFFF                   27505                             =AL4(-1)
 002D00 00000064                   27506                             =A(100)
 002D04 00000000                   27507                             =V(DTB)
 002D08 00000000                   27508                             =V(BTD)
 002D0C D985948189958995           27509                             =C'Remaining data on this card will be flushed.'
 002D38 000100010008               27510                             =AL2(DALDDNAM,1,8)
 002D3E 4BE7                       27511                             =C'.X'
 002D40 E5C4D4D7F0F8F3C9           27512                             =C'VDMP083I - Initial target global I/O rate will be '
 002D72 40C961D67DA24097           27513                             =C' I/O''s per second.'
 002D84 E5C4D4D7F0F4F5C9           27514                             =C'VDMP045I - Tape dsname prefix '
 002DA2 E5C4D4D7F0F3F3C5           27515                             =C'VDMP033E - Open failed on control DCB.'
 002DC8 C1828595844D               27516                             =C'Abend('
 002DCE 0010                       27517                             =Y((R1+1-(R14)+16*((R14)/(R1+1))/((R14)/(R1+1)))*4)
 002DD0 0004                       27518                             =Y(4)
 002DD2 40839695A3999693           27519                             =C' control file.'
 002DE0 4040                       27520                             =C'  '
 002DE2 404040404040               27521                             =CL6' '
 002DE8 001C                       27522                             =Y((QR+1-(R14)+16*((R14)/(QR+1))/((R14)/(QR+1)))*4)
 002DEA E5C4D4D7F7F6F3E6           27523                             =C'VDMP763W - Incremental DSN size out of order, '
 002E18 0008                       27524                             =Y((R15+1-(R14)+16*((R14)/(R15+1))/((R14)/(R15+1)))*4)
 002E1A 0034                       27525                             =Y(L'DSNENTRY)
 002E1C 7F40899540839695           27526                             =C'" in control file at line '
 002E36 7E6E                       27527                             =C'=>'
 002E38 4C7E                       27528                             =C'<='
 002E3A E5C4D4D7F0F0F7C5           27529                             =C'VDMP007E - Unable to open CONTROL file.'
 002E61 4BC6C9D3E2C5C7             27530                             =C'.FILSEG'
 002E68 40                         27531                             =C' '
 002E69 E5C4D4D7F0F6F1C5           27532                             =C'VDMP061E - No files could be found.'
 002E8C E5C4D4D7F0F4F6C9           27533                             =C'VDMP046I - IDRC data compaction is '
 002EAF C4C9E2C1C2D3C5C4           27534                             =C'DISABLED.'
1VDMP     (VDMP21) (09:46) (22MAR04) ORVYL's File System Dump Program: Common Routines                                      Page  124
0Current Usings:  (DUMP,R6) (DWA,R12)
0Loc    Object Code    Addr1 Addr2  Stmt Lv Lineno    Source Statement           (Hibal 5, Asmedit 3.3)  HLASM R4.0  2004/03/22 09.46
+___    ______ ____    _____ _____  ____ __ ______    ______ _________
0002EB8 E5C4D4D7F7F3F9C5           27535                             =C'VDMP739E - Unable to open history file.'
 002EDF E5C4D4D7F3F2F3C5           27536                             =C'VDMP323E - Run aborted.'
 002EF6 5D40D98581A29695           27537                             =C') Reason('
 002EFF 5D                         27538                             =C')'
 002F00 E5C4D4D7F0F4F3C5           27539                             =C'VDMP043E - Insufficient memory to process'
 002F29 E5C4D4D7F0F8F9C5           27540                             =C'VDMP089E - Insufficient memory.'
 002F48 E8C5E2                     27541                             =C'YES'
 002F4B E5C4D4D7F0F1F1C5           27542                             =C'VDMP011E - Parameter error in control file at card '
1VDMP     (VDMP21) (09:46) (22MAR04) ORVYL's File System Dump Program: Common Routines                                      Page  125
0Current Usings:  (DUMP,R6) (DWA,R12)
0Loc    Object Code    Addr1 Addr2  Stmt Lv Lineno    Source Statement           (Hibal 5, Asmedit 3.3)  HLASM R4.0  2004/03/22 09.46
+___    ______ ____    _____ _____  ____ __ ______    ______ _________
0                                  27547    2898.     ¿þþþþþþþþþþþþþþþþþþþþþþþþþþþþþþþþþþþþþþþþþþþþþþþþþþþþþþþþþþþþþþþþþþþþþÜ
                                   27548    2899.     Ÿ                                                                     Ÿ
                                   27549    2900.     Ÿ  Report on incremental dump pool                                    Ÿ
                                   27550    2901.     Ÿ                                                                     Ÿ
                                                      ¾þþþþþþþþþþþþþþþþþþþþþþþþþþþþþþþþþþþþþþþþþþþþþþþþþþþþþþþþþþþþþþþþþþþþþ»
-002FB4 5090 D000/902C_      00000 27552    2904.     RPTPOOL  PROC   ,                  Enter and save registers
 USING  *,R7
 002FC4 5890 7A54/0D99       03A18 27590    2905.              VWRITE ,                  Space between the lines
 002FCA 4110 7AA0/4100_      03A64 27595    2906.              VSEG  'VDMP053I - Incremental dump pool will be -'
 002FD8 5890 7A54/0D99       03A18 27604    2907.              VWRITE ,                  Write to report file
 002FDE 5820 C164            00164 27609    2908.              L     SR,INCPOOL          Set address of first pool
 002FE2 1222/4780 7124             27610    2910.              WHILE (SR,NZ),BEGIN       Report on all blocks
 USING  INCPL,R2                   27626  1 2910.1               WITH  (INCPL,SR)          Addressability to dump pool
 002FE8 4100 0010/4110_      00010 27639  1 2911.                VCNTL BLANK,11            Set spacer
 002FF6 4110 2032/4100_      00032 27658  1 2912.                VSEG  INCPVOL,6           Report volume serial
 003004 4110 7BB2/4100_      03B76 27679  1 2913.                VSEG  '-'                 Add separater character
 003012 4110 2032            00032 27688  1 2914.                LA    R1,INCPVOL          Address of desired volume serial
 003016 5890 7A60/0D99       03A24 27689  1 2915.                ACALL FINDUCB             Find UCB address from volume ser
 00301C 4780 7074            03038 27693  1 2916.                IF    NZ,BEGIN            Didn't find unit control block
 003020 4110 7ACA/4100_      03A8E 27704  2 2917.                  VSEG  'VDMP057W - Unable to locate unit control block'
 00302E 5890 7A54/0D99       03A18 27713  2 2918.                  VWRITE ,                  Write to report file
 003034 9680 2031      00031       27718  2 2919.                  SET   INCPOFF             Disqualify this volume
 003038 7078/47F0 711C 03038 0301E 27724  1 2920.                END   ELSE,BEGIN
 00303C 5010 200C            0000C 27739  2 2921.                  ST    R1,INCPUCB          Save UCB address
 003040 5800 200C            0000C 27740  2 2922.                  L     R0,INCPUCB          Address of unit control block
 003044 4110 2038            00038 27741  2 2923.                  LA    R1,INCPMSG          Address of message buffer
 003048 0A4E                       27742  2 2924.                  SVC   78                  Request lspace service
 00304A 4110 2038/4100_      00038 27743  2 2925.                  VSEG  INCPMSG,30          Report available space
 003058 5890 7A54/0D99       03A18 27764  2 2926.                  VWRITE ,
000305E 5830 0010            00010 27770  2 2928.                  L     TR,CVTPTR           Set CVT pointer
 003062 5830 3040            00040 27771  2 2929.                  L     TR,CVTZDTAB-CVT(,TR)    Set device characteristics
 003066 5840 200C            0000C 27772  2 2930.                  L     QR,INCPUCB          Set ucb address
 USING  UCBOB,R4                   27773  2 2931.                  USING UCBOB,QR            ## addressability to dcb
 00306A 1F11/4310 4013             27782  2 2932.                  LC    R1,UCBTBYT4         Get device type from ucb
 003070 4210 2030            00030 27789  2 2933.                  STC   R1,INCPTYPE         Save type byte for later
 003074 4311 3000            00000 27790  2 2934.                  IC    R1,@TR(R1)          Get index into dct table
 003078 1E31                       27791  2 2935.                  ALR   TR,R1               Set start of device entry
 USING  DVCT,R3                    27792  2 2936.                  WITH  (DVCT,TR),BEGIN     ## address dct table
 00307A 4800 3002            00002 27806  3 2937.                    LH    R0,DVCTRK           Get tracks per cylinder
 00307E 5000 2014            00014 27807  3 2938.                    ST    R0,INCPTPC          Save tracks per cylinder
 003082 1F00/BF03 3004             27808  3 2939.                    L2    R0,DVCTRKLN         Set track length
 003088 5000 2018            00018 27814  3 2940.                    ST    R0,INCPTLN          Save track length
 DROP   DVCT,R3                    27815  2 2941.                  END   ,                   That's enough for now
 DROP   UCBOB,R4                   27823  2 2942.                  DROP  QR                  ## release ucb addressability
 00308C 4100 0010/4110_      00010 27830  2 2943.                  VCNTL BLANK,18
 00309A 58F0 2014            00014 27849  2 2944.                  L     R15,INCPTPC         Set tracks/cylinder
 00309E F273 C010 203E 00010 0003E 27850  2 2945.                  PACK  CLWTEMP,INCPMSG+6(4)    pack available cylinders
 0030A4 4F00 C010            00010 27851  2 2946.                  CVB   R0,CLWTEMP              convert to binary
 0030A8 1CE0                       27852  2 2947.                  MR    R14,R0                  total number of tracks
 0030AA F273 C010 2043 00010 00043 27853  2 2948.                  PACK  CLWTEMP,INCPMSG+11(4)   pack available tracks
 0030B0 4F00 C010            00010 27854  2 2949.                  CVB   R0,CLWTEMP              convert to binary
1VDMP     (VDMP21) (09:46) (22MAR04) ORVYL's File System Dump Program: Common Routines                                      Page  126
0Current Usings:  (INCPL,R2) (DUMP,R6) (*,R7) (DWA,R12)
0Loc    Object Code    Addr1 Addr2  Stmt Lv Lineno    Source Statement           (Hibal 5, Asmedit 3.3)  HLASM R4.0  2004/03/22 09.46
+___    ______ ____    _____ _____  ____ __ ______    ______ _________
00030B4 1AF0                       27855  2 2950.                  AR    R15,R0              Total tracks available
 0030B6 50F0 2010            00010 27856  2 2951.                  ST    R15,INCPSPC         Save total space
 0030BA 1B00/4110 C010_            27857  2 2952.                  SEGDC 0,(R15),COMMAS=YES  Add to message
 0030CC 4110 7AF8/4100_      03ABC 27895  2 2953.                  VSEG  ' Tracks available for incremental data'
 0030DA 5890 7A54/0D99       03A18 27904  2 2954.                  VWRITE ,
 0030E0                            27909  1 2983.                END   ,
 0030E0 5820 2000            00000 27913  1 2983.01              L     SR,INCPNXT          Chain to next control block
 0030E4 47F0 701E            02FE2 27914    2983.1             END   ,
 DROP   INCPL,R2
 0030E8 18D8/982C D004_            27924    2984.              PEND  ,                   Restore and return to caller
 DROP   *,R7
1VDMP     (VDMP21) (09:46) (22MAR04) ORVYL's File System Dump Program: Common Routines                                      Page  127
0Current Usings:  (DUMP,R6) (DWA,R12)
0Loc    Object Code    Addr1 Addr2  Stmt Lv Lineno    Source Statement           (Hibal 5, Asmedit 3.3)  HLASM R4.0  2004/03/22 09.46
+___    ______ ____    _____ _____  ____ __ ______    ______ _________
0                                  27945    2986.     ¿þþþþþþþþþþþþþþþþþþþþþþþþþþþþþþþþþþþþþþþþþþþþþþþþþþþþþþþþþþþþþþþþþþþþþÜ
                                   27946    2987.     Ÿ                                                                     Ÿ
                                   27947    2988.     Ÿ  Process incremental date values                                    Ÿ
                                   27948    2989.     Ÿ                                                                     Ÿ
                                                      ¾þþþþþþþþþþþþþþþþþþþþþþþþþþþþþþþþþþþþþþþþþþþþþþþþþþþþþþþþþþþþþþþþþþþþþ»
-0030F6                            27950    2992.     DOINC    LABEL ,
 0030F6 5090 D000/902C_      00000 27952    2993.              PROC  ,                   Save entry registers
 USING  *,R7
 003106 D603 C154 C154_00154 00154 27989    2994.              IF    (INCDAYS,Z),BEGIN
 003110 9140 C1C1/47E0_001C1       28005  1 2995.                IF    FLLOGHST,BEGIN      If logging file available
 003118 4110 0001            00001 28020  2 2996.                  LA    R1,1                Set master buffer number
 00311C 4D90 636C            00382 28021  2 2997.                  LCALL GRADR               Compute address to buffer
 003120 1821                       28023  2 2998.                  LR    SR,R1               Save address of base record
 USING  HISBREC,R2                 28024  2 2999.                  WITH  (HISBREC,SR),BEGIN  Addressability to base record
 003122 5810 2014/1211       00014 28038  3 3000.                    LT    R1,HISBDMPS         Block number of recent dump
 003128 4770 7042            03148 28042  3 3001.                    IF    Z,BEGIN             No dump records defined
 00312C 4110 786A/4100_      03970 28053  4 3002.                      VSEG  'VDMP559E - No dump record found in history file.'
 00313A 5890 7912/0D99       03A18 28062  4 3003.                      VWRITE ,                  Write to report file
 003140 921C C05B      0005B       28067  4 3004.                      MVI   RETCODE+3,HST_ERR   Set return code
 003144 47F0 60DA            000F0 28068  4 3005.                      B     DUMPEXIT            And return to system
 003148                            28069  3 3006.                    END   ,
 003148 4100 0002            00002 28073  3 3007.                    LA    R0,2                Set buffer number two
 00314C 5890 7926/0D99       03A2C 28074  3 3008.                    ACALL HIO                 Read dump record
 003152 1831                       28078  3 3009.                    LR    TR,R1               Save address of record
 USING  HISDREC,R3                 28079  3 3010.                    WITH (HISDREC,TR),BEGIN   ## addressability to dump record
 003154 D203 C15C 300C 0015C 0000C 28093  4 3011.                      MVC   INCTOD,HISDCLCK     Set tod clock value
 00315A D203 C160 300C 00160 0000C 28094  4 3011.1                     MVC   INCTODBS,HISDCLCK   SET TOD CLOCK FOR BASE DUMP
 DROP   HISDREC,R3                 28095  3 3013.                    END   ,                   ## release dump record
 003160 4100 0002            00002 28103  3 3014.                    LA    R0,2                Set buffer two for dump record
 003164 5890 792A/0D99       03A30 28104  3 3015.                    ACALL CLRNW               Release buffer
 00316A 9110 C1C1/47E0_001C1       28108  3 3015.01                  IF    FLDAILY,BEGIN       Process daily incremental data
 003172 5810 2018/1211       00018 28123  4 3015.02                    LT    R1,HISBINCS         Set last incremental dump
 003178 4100 0002            00002 28127  4 3015.03                    LA    R0,2                Set second buffer
 00317C 5890 7926/0D99       03A2C 28128  4 3015.04                    ACALL HIO                 Read last incremental dump
 003182 1831                       28132  4 3015.05                    LR    TR,R1
 USING  HISIREC,R3                 28133  4 3015.06                    WITH  (HISIREC,TR),BEGIN
 003184 D503 300C C160_0000C 00160 28147  5 3015.07                      IF    (HISICLCK,GT,INCTODBS),BEGIN
 00318E D203 C15C 300C 0015C 0000C 28165  6 3015.08                        MVC   INCTOD,HISICLCK     Set dump from last incremental
 003194                            28166  5 3015.09                      END   ,
 003194 4100 0002            00002 28170  5 3015.1                       LA    R0,2                Set buffer two for dump record
 003198 5890 792A/0D99       03A30 28171  5 3015.11                      ACALL CLRNW               Release buffer
 DROP   HISIREC,R3                 28175  4 3015.12                    END   ,
 00319E                            28183  3 3015.13                  END   ,
 DROP   HISBREC,R2                 28187  2 3015.14                END   ,                   Base block addressability
 00319E 709C/47F0 70B8 0319E 03116 28195  1 3016.                END   ELSE,BEGIN
 0031A2 4110 79DC/4100_      03AE2 28210  2 3017.                  VSEG  'VDMP557E - Unable to determine date range.'
 0031B0 5890 7912/0D99       03A18 28219  2 3018.                  VWRITE ,                  Write to report file
 0031B6 9210 C05B      0005B       28224  2 3019.                  MVI   RETCODE+3,CNT_PRM   Set return code
 0031BA 47F0 60DA            000F0 28225  2 3020.                  B     DUMPEXIT            And return to system
 0031BE                            28226  1 3021.                END   ,
 0031BE 70BC/47F0 70F6 031BE 0310E 28230    3022.              END   ELSE,BEGIN
 0031C2 5810 C154            00154 28245  1 3023.                L     R1,INCDAYS          Set days since 1900
1VDMP     (VDMP21) (09:46) (22MAR04) ORVYL's File System Dump Program: Common Routines                                      Page  128
0Current Usings:  (DUMP,R6) (*,R7) (DWA,R12)
0Loc    Object Code    Addr1 Addr2  Stmt Lv Lineno    Source Statement           (Hibal 5, Asmedit 3.3)  HLASM R4.0  2004/03/22 09.46
+___    ______ ____    _____ _____  ____ __ ______    ______ _________
00031C6 5B10 792E            03A34 28246  1 3024.                S     R1,=A(1)              Adjust day value
 0031CA 5C00 7932            03A38 28247  1 3025.                M     R0,=A(27*390625)        Convert days to
 0031CE 8D00 000D            0000D 28248  1 3026.                SLDL  R0,13                     To micro-seconds
 0031D2 5830 C158            00158 28249  1 3027.                L     TR,INCSEC           Set seconds since midnight
 0031D6 5C20 7936            03A3C 28250  1 3028.                M     SR,=A(5*5*5*5*5*5)    Convert to
 0031DA 8D20 0006            00006 28251  1 3029.                SLDL  SR,6                    Micro-seconds
 0031DE 1E13                       28252  1 3030.                ALR   R1,TR               Complete addition of tod clock
 0031E0 47C0 70E2            031E8 28253  1 3031.                IF    CARRY,BEGIN         Check for overflow
 0031E4 5E00 792E            03A34 28264  2 3032.                  AL    R0,=A(1)            Add in overflow bit
 0031E8                            28265  1 3033.                END   ,
 0031E8 1E02                       28269  1 3034.                ALR   R0,SR               Have micro-seconds since 1900
 0031EA 8D00 000C            0000C 28270  1 3035.                SLDL  R0,12               Convert to tod clock format
 0031EE 1211/47B0 70F2_            28271  1 3036.                IF    (R1,M),'AL R0,=A(1)'  roundoff for 4byte tod clock
 0031F8 5000 C15C            0015C 28291  1 3037.                ST    R0,INCTOD           Save for later compares
 0031FC                            28292    3038.              END   ,
 0031FC 4110 7A71/4100_      03B77 28296    3039.              VSEG  'VDMP003I - Using last successful '
 00320A 4110 7A92/4100_      03B98 28305    3039.01            SYSQS R1,R0,'FULL DUMP'
 003212 9110 C1C1/47E0_001C1       28309    3039.02            IF    (FLDAILY,AND,(INCTOD,GT,INCTODBS)),BEGIN
 003224 4110 7A9B/4100_      03BA1 28341  1 3039.03              SYSQS R1,R0,'INCREMENTAL'
 00322C                            28345    3039.04            END   ,
 00322C 5890 7916/0D99       03A1C 28349    3039.14            VSEG  (R1),(R0)           ADD TO MESSAGE
 003232 4110 789A/4100_      039A0 28364    3039.96            VSEG  ' for date determination.'
 003240 5890 7912/0D99       03A18 28373    3039.97            VWRITE ,
 003246 4100 0010/4110_      00010 28378    3039.98            VCNTL BLANK,11
 003254 4110 78B2/4100_      039B8 28397    3039.99            VSEG  'TOD Clock value '
 003262 58F0 C15C            0015C 28406    3040.              L     R15,INCTOD          Set time of day clock value
 003266 4100 0008/4110_      00008 28407    3041.              SEGHX 8,(R15)             Convert into message line
 00327A 4110 7AA6/4100_      03BAC 28448    3042.              VSEG  '   '               Add spaces to message
 003288 5800 C15C            0015C 28457    3043.              L     R0,INCTOD           Get tod clock value again
 00328C 1B11                       28458    3044.              CLEAR R1                  Zero low order four bytes
 00328E 41F0 C010            00010 28462    3045.              LA    R15,CLWTEMP         Address of temporary work area
 003292 58E0 793E/0DEE       03A44 28463    3046.              XCALL FMTCLCK             Format tod clock value
 003298 5890 7916/0D99       03A1C 28467    3047.              VSEG  (R1),(R0)           Add to message line
 00329E 5890 7912/0D99       03A18 28482    3048.              VWRITE ,                  And write to the report file
 0032A4 4100 0010/4110_      00010 28487    3049.              VCNTL BLANK,11            Add spacers to message
 0032B2 4110 7A06/4100_      03B0C 28506    3050.              VSEG  'Blocks written after this date will be dumped.'
 0032C0 5890 7912/0D99       03A18 28515    3051.              VWRITE ,                  Write to message file
 0032C6 18D8/982C D004_            28520    3052.              PEND  ,                   Restore and return to caller
 DROP   *,R7
1VDMP     (VDMP21) (09:46) (22MAR04) ORVYL's File System Dump Program: Common Routines                                      Page  129
0Current Usings:  (DUMP,R6) (DWA,R12)
0Loc    Object Code    Addr1 Addr2  Stmt Lv Lineno    Source Statement           (Hibal 5, Asmedit 3.3)  HLASM R4.0  2004/03/22 09.46
+___    ______ ____    _____ _____  ____ __ ______    ______ _________
0                                  28541    3054.     ¿þþþþþþþþþþþþþþþþþþþþþþþþþþþþþþþþþþþþþþþþþþþþþþþþþþþþþþþþþþþþþþþþþþþþþÜ
                                   28542    3055.     Ÿ                                                                     Ÿ
                                   28543    3056.     Ÿ  Allocate and open the HISTORY file                                 Ÿ
                                   28544    3057.     Ÿ                                                                     Ÿ
                                                      ¾þþþþþþþþþþþþþþþþþþþþþþþþþþþþþþþþþþþþþþþþþþþþþþþþþþþþþþþþþþþþþþþþþþþþþ»
-0032D4 5090 D000/902C_      00000 28546    3060.     OPENHIST PROC  ,                   Enter and save calling registers
 USING  *,R7
 0032E4 4110 76E4            039C8 28584    3061.              LA    R1,=CL8'HISTORY'    Has history file been defined
 0032E8 5890 7764/0D99       03A48 28585    3062.              ACALL FINDDD              Check for ddname in tiot
 0032EE 4780 70C4            033A8 28589    3063.              IF    NZ,BEGIN            Nope - prepare to allocate it
 0032F2 4110 C6CC            006CC 28600  1 3064.                LA    R1,HISTRB           Address of svc99 request block
 0032F6 5010 C6C8            006C8 28601  1 3065.                ST    R1,HISTP            Save in address pointer
 0032FA 9680 C6C8      006C8       28602  1 3066.                OI    HISTP,X'80'         Mark as only one parameter
0USING  S99RB,R1                   28604  1 3068.                USING S99RB,R1            ## addressability to svc99 rb
 0032FE 9214 1000      00000       28613  1 3069.                MVI   S99RBLN,20          Set length of request block
 003302 9201 1001      00001       28614  1 3070.                MVI   S99VERB,S99VRBAL    Set allocation request
 003306 9220 1002      00002       28615  1 3071.                MVI   S99FLG11,S99NOMNT   Don't mount volumes for request
 00330A 4100 C6E0            006E0 28616  1 3072.                LA    R0,HISTPTRS         Address of text unit pointers
 00330E 5000 1008            00008 28617  1 3073.                ST    R0,S99TXTPP         Set into lest
 DROP   S99RB,R1                   28618  1 3074.                DROP  R1                  ## release svc99 rb
0003312 4110 C6F0            006F0 28626  1 3076.                LA    R1,HISTDDN          Address of ddn unit
 003316 5010 C6E0            006E0 28627  1 3077.                ST    R1,HISTPTRS+00          Save into pointer list
 00331A 4110 C6FE            006FE 28628  1 3078.                LA    R1,HISTDSN          Address of dsn unit
 00331E 5010 C6E4            006E4 28629  1 3079.                ST    R1,HISTPTRS+04          Save into pointer list
 003322 4110 C730            00730 28630  1 3080.                LA    R1,HISTSTAT         Address of status unit
 003326 5010 C6E8            006E8 28631  1 3081.                ST    R1,HISTPTRS+08          Save into pointer list
 00332A 4110 C737            00737 28632  1 3082.                LA    R1,HISTFREE         Address of free unit
 00332E 5010 C6EC            006EC 28633  1 3083.                ST    R1,HISTPTRS+12          Save into pointer list
 003332 9680 C6EC      006EC       28634  1 3084.                OI    HISTPTRS+12,X'80'          Mark as last parameter
0003336 D205 C6F0 7856 006F0 03B3A 28636  1 3086.                MVC   HISTDDN(6),=AL2(DALDDNAM,1,8)
 00333C D207 C6F6 76E4 006F6 039C8 28637  1 3087.                MVC   HISTDDN+6(8),=CL8'HISTORY'
 003342 D205 C6FE 785C 006FE 03B40 28638  1 3088.                MVC   HISTDSN(6),=AL2(DALDSNAM,1,44)
 003348 D22B C704 C294 00704 00294 28639  1 3089.                MVC   HISTDSN+6(44),HISTFDSN
 00334E D205 C730 7862 00730 03B46 28640  1 3090.                MVC   HISTSTAT(6),=AL2(DALSTATS,1,1)
 003354 9201 C736      00736       28641  1 3091.                MVI   HISTSTAT+6,X'01'    SET DISP=OLD
 003358 D203 C737 7768 00737 03A4C 28642  1 3092.                MVC   HISTFREE(4),=AL2(DALCLOSE,0)
000335E 4110 C6C8            006C8 28644  1 3094.                LA    R1,HISTP
 003362 0A63                       28645  1 3095.                DYNALLOC ,                Allocate history file
 003364 12FF/4780 70C4             28648  1 3096.                IF    (R15,NZ),BEGIN
 00336A 4110 78CB/4100_      03BAF 28662  2 3097.                  VSEG  'VDMP097W - Unable to allocate history file.'
 003378 5890 7734/0D99       03A18 28671  2 3098.                  VWRITE ,
 00337E 4100 0010/4110_      00010 28676  2 3099.                  VCNTL BLANK,11
 00338C 4110 76EC/4100_      039D0 28695  2 3100.                  VSEG  'Recording not possible this run.'
 00339A 5890 7734/0D99       03A18 28704  2 3101.                  VWRITE ,
 0033A0 9204 C05B      0005B       28709  2 3102.                  MVI   RETCODE+3,RET_WARN  Set warning return code
 0033A4 47F0 728E            03572 28710  2 3103.                  EXIT  OPENHIST            Return to caller from here
 0033A8                            28713  1 3104.                END   ,
 0033A8                            28717    3105.              END   ,
1VDMP     (VDMP21) (09:46) (22MAR04) ORVYL's File System Dump Program: Common Routines                                      Page  130
0Current Usings:  (DUMP,R6) (*,R7) (DWA,R12)
0Loc    Object Code    Addr1 Addr2  Stmt Lv Lineno    Source Statement           (Hibal 5, Asmedit 3.3)  HLASM R4.0  2004/03/22 09.46
+___    ______ ____    _____ _____  ____ __ ______    ______ _________
00033A8 5810 776C            03A50 28722    3107.              L     R1,=A(PHSTDCB)      Set address of history proto
 0033AC D267 C98C 1000 0098C 00000 28723    3108.              MVC   HSTDCB(PHSTLEN),@R1 Set prototype dcb
 0033B2 4110 C3E8/94F0_      003E8 28724    3109.              OPEN  (HSTDCB,(UPDAT)),MF=(E,CNTOPNL)
 0033D0 4110 C98C            0098C 28734    3110.              LA    R1,HSTDCB           Address of history dcb
 USING  IHADCB,R1                  28735    3111.              USING IHADCB,R1           ## addressability to dcb
 0033D4 9110 1030/4710_00030       28744    3112.              IF    ~DCBOFLGS.DCBOFOPN,BEGIN      CHECK FOR GOOD OPEN
 0033DC 4110 78F6/4100_      03BDA 28760  1 3113.                VSEG  'VDMP085W - Unable to open history file.'
 0033EA 5890 7734/0D99       03A18 28769  1 3114.                VWRITE ,
 0033F0 9204 C05B      0005B       28774  1 3115.                MVI   RETCODE+3,RET_WARN  Set warning return code
 0033F4 47F0 728E            03572 28775  1 3116.                EXIT  OPENHIST            Return to caller from here
 0033F8                            28778    3117.              END   ,
 DROP   IHADCB,R1                  28782    3118.              DROP  R1                  ## release hstdcb addressability
 0033F8 4D90 6398            003AE 28789    3119.              LCALL HISTINIT            Initialize history file buffers
 0033FC 4100 0001            00001 28791    3120.              LA    R0,1                Set master buffer
 003400 4110 0000            00000 28792    3121.              LA    R1,0                Set master record number
 003404 5890 7748/0D99       03A2C 28793    3122.              ACALL HIO                 Read master record
 00340A 1821                       28797    3123.              LR    SR,R1               Copy address of base master record
 00340C 4110 7868/4100_      03B4C 28798    3123.1             VSEG  'VDMP086I - History file base block loaded.'
 00341A 5890 7734/0D99       03A18 28807    3123.2             VWRITE ,
 USING  HISBREC,R2                 28812    3124.              USING HISBREC,SR          ## addressability to master
                                   28821    3125.   C          IF    (FNCDMP,AND,
 003420 9180 C1C6/47E0_001C6                3126.                    (HISBDGC,GE,HISBDGEN)),BEGIN   DELETE LAST GENERATION
 USING  HISDREC,R4                 28853  1 3127.                USING HISDREC,QR          ## addressability to dump record
 003432 5810 2014            00014 28862  1 3128.                L     R1,HISBDMPS         Set most current dump generation
 003436 1211/4780 717C             28863  1 3129.                WHILE (R1,NZ),BEGIN       Chain to the oldest entry
 00343C 4100 0002            00002 28879  2 3130.                  LA    R0,2                Set buffer two for dump record
 003440 5890 774C/0D99       03A30 28880  2 3131.                  ACALL CLRNW               Release previous buffer
 003446 5890 7748/0D99       03A2C 28884  2 3132.                  ACALL HIO                 Read dump record into buffer
 00344C 1841                       28888  2 3133.                  LR    QR,R1               Save address of record
 00344E 5810 4004/1211       00004 28889  2 3134.                  LT    R1,HISDNXT          Chain to potential next record
 003454 4780 7178/5830_      0345C 28893  2 3135.                  IF    NZ,'L TR,HISDBLK'   Save last block number
 00345C 47F0 7152            03436 28910  1 3136.                END   ,                   Loop until last dump found
 003460 1813                       28915  1 3137.                LR    R1,TR               Retrieve last dump record number
 003462 4100 0003            00003 28916  1 3138.                LA    R0,3                Set buffer three
 003466 5890 7748/0D99       03A2C 28917  1 3139.                ACALL HIO                 Get last record back
 DROP   HISDREC,R4                 28921  1 3140.                WITH  (HISDREC,R1),BEGIN
 USING  HISDREC,R1
 00346C D703 1004 1004 00004 00004 28943  2 3141.                  CLEAR HISDNXT             Clear forward pointer
 003472 4100 0003            00003 28950  2 3142.                  LA    R0,3                Set buffer three
 003476 5890 7770/0D99       03A54 28951  2 3143.                  ACALL CLRIO               Rewrite buffer to file
 USING  HISDREC,R4                 28955  1 3144.                END   ,
 DROP   HISDREC,R1
 00347C 5810 4014            00014 28972  1 3145.                L     R1,HISDSEG          Point to first segment
 003480 1211/4780 71C0             28973  1 3146.                WHILE (R1,NZ),BEGIN       Free all segment records
 003486 4100 0003            00003 28989  2 3147.                  LA    R0,3                Set buffer three
 00348A 5890 7748/0D99       03A2C 28990  2 3148.                  ACALL HIO                 Read segment buffer
 USING  HISSREC,R1                 28994  2 3149.                  USING HISSREC,R1          ## addressability to segment
 003490 5830 1004            00004 29003  2 3150.                  L     TR,HISSNXT          Set pointer to next segment
 003494 4100 0003            00003 29004  2 3151.                  LA    R0,3                Set buffer number
 003498 5890 7774/0D99       03A58 29005  2 3152.                  ACALL FREREC              Release record to pool
 00349E 1813                       29009  2 3153.                  LR    R1,TR               Set for next pass
 DROP   HISSREC,R1                 29010  2 3154.                  DROP  R1                  ## release segment buffer
 0034A0 47F0 719C            03480 29017  1 3155.                END   ,                   Free all segment records
 0034A4 4100 0002            00002 29022  1 3156.                LA    R0,2                Set buffer two
1VDMP     (VDMP21) (09:46) (22MAR04) ORVYL's File System Dump Program: Common Routines                                      Page  131
0Current Usings:  (HISBREC,R2) (HISDREC,R4) (DUMP,R6) (*,R7) (DWA,R12)
0Loc    Object Code    Addr1 Addr2  Stmt Lv Lineno    Source Statement           (Hibal 5, Asmedit 3.3)  HLASM R4.0  2004/03/22 09.46
+___    ______ ____    _____ _____  ____ __ ______    ______ _________
00034A8 5890 7774/0D99       03A58 29023  1 3157.                ACALL FREREC              Release dump record
 0034AE 5800 2020            00020 29027  1 3158.                L     R0,HISBDGC          Get generation count
 0034B2 5B00 7750            03A34 29028  1 3159.                S     R0,=A(1)              decrement generation count
 0034B6 5000 2020            00020 29029  1 3160.                ST    R0,HISBDGC              replace generation count
 0034BA 4100 0001            00001 29030  1 3161.                LA    R0,1                Set buffer one
 0034BE 1300                       29031  1 3162.                LCR   R0,R0                 complement to indicate write
 0034C0 5890 7748/0D99       03A2C 29032  1 3163.                ACALL HIO                     rewrite updated base block
 DROP   HISDREC,R4                 29036  1 3164.                DROP  QR                  ## release segment record
 0034C6                            29043    3165.              END   ,
0                                  29048    3167.   C          IF    (FNCINC,AND,
 0034C6 9140 C1C6/47E0_001C6                3168.                    (HISBIGC,GE,HISBIGEN)),BEGIN   Delete last incremental
 USING  HISIREC,R4                 29080  1 3169.                USING HISIREC,QR          ## addressability to incremental
 0034D8 5810 2018            00018 29089  1 3170.                L     R1,HISBINCS         First incremental dump record
 0034DC 1211/4780 7222             29090  1 3171.                WHILE (R1,NZ),BEGIN       Chain to the last record
 0034E2 4100 0002            00002 29106  2 3172.                  LA    R0,2                Set buffer two for inc read
 0034E6 5890 774C/0D99       03A30 29107  2 3173.                  ACALL CLRNW               Zero any previous record
 0034EC 5890 7748/0D99       03A2C 29111  2 3174.                  ACALL HIO                 Read incremental record into two
 0034F2 1841                       29115  2 3175.                  LR    QR,R1               Save address of current block
 0034F4 5810 4004/1211       00004 29116  2 3176.                  LT    R1,HISINXT          Chain to potential next block
 0034FA 4780 721E/5830_      03502 29120  2 3177.                  IF    NZ,'L TR,HISIBLK'   Save last block number
 003502 47F0 71F8            034DC 29137  1 3178.                END   ,                   Loop until chain complete
 003506 1813                       29142  1 3179.                LR    R1,TR               Reset last block number
 003508 4100 0003            00003 29143  1 3180.                LA    R0,3                Set buffer number three
 00350C 5890 7748/0D99       03A2C 29144  1 3181.                ACALL HIO                 Reread new last buffer
 DROP   HISIREC,R4                 29148  1 3182.                WITH  (HISIREC,R1),BEGIN  Reset addressabiity
 USING  HISIREC,R1
 003512 D703 1004 1004 00004 00004 29170  2 3183.                  CLEAR HISINXT             Clear forward pointer
 003518 4100 0003            00003 29177  2 3184.                  LA    R0,3                Set buffer number three
 00351C 5890 7770/0D99       03A54 29178  2 3185.                  ACALL CLRIO               Rewrite and clear buffer
 USING  HISIREC,R4                 29182  1 3186.                END   ,
 DROP   HISIREC,R1
 003522 5810 4010            00010 29199  1 3187.                L     R1,HISIPOOL         Free any pool records
 003526 1211/4780 7266             29200  1 3188.                WHILE (R1,NZ),BEGIN       Release entire chain
 00352C 4100 0003            00003 29216  2 3189.                  LA    R0,3                Set buffer number three
 003530 5890 7748/0D99       03A2C 29217  2 3190.                  ACALL HIO                 Read pool record in
 USING  HISPREC,R1                 29221  2 3191.                  USING HISPREC,R1          ## addressability to pool rec
 003536 5830 1004            00004 29230  2 3192.                  L     TR,HISPNXT          Set chain address
 00353A 4100 0003            00003 29231  2 3193.                  LA    R0,3                Set buffer number three
 00353E 5890 7774/0D99       03A58 29232  2 3194.                  ACALL FREREC              Release record to free chain
 003544 1813                       29236  2 3195.                  LR    R1,TR               Set for next pass
 DROP   HISPREC,R1                 29237  2 3196.                  DROP  R1                  ## release pool block
 003546 47F0 7242            03526 29244  1 3197.                END   ,
 00354A 4100 0002            00002 29249  1 3198.                LA    R0,2                Set buffer two
 00354E 5890 7774/0D99       03A58 29250  1 3199.                ACALL FREREC              Release incremental record
 DROP   HISIREC,R4                 29254  1 3200.                DROP  QR                  ## release incremental record
 003554 5800 2028            00028 29261  1 3201.                L     R0,HISBIGC          Set current incremetnal count
 003558 5B00 7750            03A34 29262  1 3202.                S     R0,=A(1)              decrement current count
 00355C 5000 2028            00028 29263  1 3203.                ST    R0,HISBIGC              and reset into master record
 003560 4100 0001            00001 29264  1 3204.                LA    R0,1                Set master record buffer
 003564 1300                       29265  1 3205.                LCR   R0,R0                 indicate a write request
 003566 5890 7748/0D99       03A2C 29266  1 3206.                ACALL HIO                     and rewrite master record
 00356C                            29270    3207.              END   ,
 DROP   HISBREC,R2                 29274    3208.              DROP  SR                  ## release base block now
1VDMP     (VDMP21) (09:46) (22MAR04) ORVYL's File System Dump Program: Common Routines                                      Page  132
0Current Usings:  (DUMP,R6) (*,R7) (DWA,R12)
0Loc    Object Code    Addr1 Addr2  Stmt Lv Lineno    Source Statement           (Hibal 5, Asmedit 3.3)  HLASM R4.0  2004/03/22 09.46
+___    ______ ____    _____ _____  ____ __ ______    ______ _________
000356C 9640 C1C1      001C1       29281    3209.              SET   FLLOGHST            History data set active
 003570 1BFF                       29287    3210.              CLEAR R15                 Zero return code
 003572 18D8/982C D004_            29291    3211.              PEND  ,                   Return to caller
 DROP   *,R7
1VDMP     (VDMP21) (09:46) (22MAR04) ORVYL's File System Dump Program: Common Routines                                      Page  133
0Current Usings:  (DUMP,R6) (DWA,R12)
0Loc    Object Code    Addr1 Addr2  Stmt Lv Lineno    Source Statement           (Hibal 5, Asmedit 3.3)  HLASM R4.0  2004/03/22 09.46
+___    ______ ____    _____ _____  ____ __ ______    ______ _________
0                                  29312    3213.     ¿þþþþþþþþþþþþþþþþþþþþþþþþþþþþþþþþþþþþþþþþþþþþþþþþþþþþþþþþþþþþþþþþþþþþþÜ
                                   29313    3214.     Ÿ                                                                     Ÿ
                                   29314    3215.     Ÿ  Queue first dump record to HISTORY file                            Ÿ
                                   29315    3216.     Ÿ                                                                     Ÿ
                                                      ¾þþþþþþþþþþþþþþþþþþþþþþþþþþþþþþþþþþþþþþþþþþþþþþþþþþþþþþþþþþþþþþþþþþþþþ»
-003580 5090 D000/902C_      00000 29317    3219.     HBASE    PROC  ,                   Enter and save registers
 USING  *,R7
 003590 4110 0001            00001 29355    3220.              LA    R1,1                Set slot number 1 for master
 003594 4D90 636C            00382 29356    3221.              LCALL GRADR               Generate address of master block
 003598 1821                       29358    3222.              LR    SR,R1               Save address of record
 USING  HISBREC,R2                 29359    3223.              USING HISBREC,SR          ## addressability to base block
 00359A 5810 2010            00010 29368    3224.              L     R1,HISBFREE         Set next available block
 00359E 4100 0002            00002 29369    3225.              LA    R0,2                Set for slot number 2
 0035A2 5890 749C/0D99       03A2C 29370    3226.              ACALL HIO                 Read next available block
 0035A8 1831                       29374    3227.              LR    TR,R1               Set address of available block
 USING  HISXREC,R3                 29375    3228.              USING HISXREC,TR          ## addressability to dump block
 0035AA D203 2010 3004 00010 00004 29384    3229.              MVC   HISBFREE,HISXNXT    Dequeue block from free chain
 0035B0 D703 3004 3004 00004 00004 29385    3230.              CLEAR HISXNXT             Zero forward chain pointer
 0035B6 D203 300C C030 0000C 00030 29392    3230.1             MVC   HISXCLCK,CLCKSTRT   Set start time into record
                                                               ¿þþþþþþþþþþþþþþþþþþþþþþþþþþþþþþþþþþþþþþþþþþþþþþþþþþþþþþþþþþþþÜ
                                   29393    3231.              Ÿ  If we are processing in BCV mode go obtain the time that  Ÿ
                                   29394    3231.01            Ÿ  the BCV volumes were SPLIT and use that as the operative  Ÿ
                                   29395    3231.02            Ÿ  dump time of day.                                         Ÿ
                                                               ¾þþþþþþþþþþþþþþþþþþþþþþþþþþþþþþþþþþþþþþþþþþþþþþþþþþþþþþþþþþþþ»
 0035BC 9180 C1C1/47E0_001C1       29396    3231.03            IF    FL_BCV,BEGIN
 0035C4 4100 0004            00004 29411  1 3231.05              LA    R0,4                Set for buffer number four
 0035C8 5810 2034/1211       00034 29412  1 3231.06              LT    R1,HISBSPLT         Load split record number
 0035CE 4770 7052            035E2 29416  1 3231.07              IF    Z,BEGIN             Oops - unable to determine split
 0035D2 4110 01B5/4100_      001B5 29427  2 3231.08                ABEND 437,DUMP            I'm tired
 0035E2                            29436  1 3231.09              END   ,
 0035E2 5890 749C/0D99       03A2C 29440  1 3231.1               ACALL HIO                 Read in split status history block
 0035E8 1841                       29444  1 3231.11              LR    R4,R1               Move address of split status block
 USING  HISSPREC,R4                29445  1 3231.12              WITH  (HISSPREC,R4)       Addressability to split block
 0035EA D203 300C 400C 0000C 0000C 29458  1 3231.13              MVC   HISXCLCK,HISSPCLK   Update to BCV split time
 0035F0 4100 0004/5890_      00004 29459  1 3231.14              CLRNW 4                   Release buffer number 4
 DROP   HISSPREC,R4                29465    3231.98            END   ,
 DROP   HISXREC,R3                 29474    3231.99            DROP  TR                  ## release block
 0035FA 9180 C1C6/47E0_001C6       29481    3232.              IF    FNCDMP,BEGIN        Dump function processing
 USING  HISDREC,R3                 29496  1 3233.                USING HISDREC,TR          ## dump block addressability
 003602 D203 3004 2014 00004 00014 29505  1 3234.                MVC   HISDNXT,HISBDMPS    Update dump chain
 003608 D203 2014 3000 00014 00000 29506  1 3235.                MVC   HISBDMPS,HISDBLK    Chain me the the front
 00360E 4100 0001/5E00_      00001 29507  1 3236.                INCR  R0,HISBDGC          Update generation counter
 00361A D203 3010 74CC 00010 03A5C 29513  1 3237.                MVC   HISDRC,=A(-1)       Set in progress
 DROP   HISDREC,R3                 29514  1 3239.                DROP  TR                  ## release dump block
 003620 7094/47F0 70B2 03620 03600 29521    3240.              END   ELSE,BEGIN          For incremental processing
 USING  HISIREC,R3                 29536  1 3241.                USING HISIREC,TR          ## incremental block
 003624 D203 3004 2018 00004 00018 29545  1 3242.                MVC   HISINXT,HISBINCS    Update incremental chain
 00362A 4100 0001/5E00_      00001 29546  1 3243.                INCR  R0,HISBIGC          Update generation counter
 003636 D203 2018 3000 00018 00000 29552  1 3244.                MVC   HISBINCS,HISIBLK    Chain me to the front
 00363C D203 3040 74CC 00040 03A5C 29553  1 3245.                MVC   HISIRC,=A(-1)       Set in progress
 DROP   HISIREC,R3                 29554  1 3247.                DROP  TR                  ## release incremental block
 003642                            29561    3248.              END   ,
1VDMP     (VDMP21) (09:46) (22MAR04) ORVYL's File System Dump Program: Common Routines                                      Page  134
0Current Usings:  (HISBREC,R2) (DUMP,R6) (*,R7) (DWA,R12)
0Loc    Object Code    Addr1 Addr2  Stmt Lv Lineno    Source Statement           (Hibal 5, Asmedit 3.3)  HLASM R4.0  2004/03/22 09.46
+___    ______ ____    _____ _____  ____ __ ______    ______ _________
0003642 4100 0002            00002 29565    3249.              LA    R0,2                Set buffer number two
 003646 1300                       29566    3250.              LCR   R0,R0                 indicate a write request
 003648 5890 749C/0D99       03A2C 29567    3251.              ACALL HIO                     update dump/inc block
 00364E 4100 0001            00001 29571    3252.              LA    R0,1                Set slot number one
 003652 1300                       29572    3253.              LCR   R0,R0                 indicate a write request
 003654 5890 749C/0D99       03A2C 29573    3254.              ACALL HIO                     update base block
 DROP   HISBREC,R2                 29577    3255.              DROP  SR                  ## release base block
 00365A 18D8/982C D004_            29584    3256.              PEND  ,                   Restore registers and return
 DROP   *,R7
1VDMP     (VDMP21) (09:46) (22MAR04) ORVYL's File System Dump Program: Common Routines                                      Page  135
0Current Usings:  (DUMP,R6) (DWA,R12)
0Loc    Object Code    Addr1 Addr2  Stmt Lv Lineno    Source Statement           (Hibal 5, Asmedit 3.3)  HLASM R4.0  2004/03/22 09.46
+___    ______ ____    _____ _____  ____ __ ______    ______ _________
0                                  29605    3258.     ¿þþþþþþþþþþþþþþþþþþþþþþþþþþþþþþþþþþþþþþþþþþþþþþþþþþþþþþþþþþþþþþþþþþþþþÜ
                                   29606    3259.     Ÿ                                                                     Ÿ
                                   29607    3260.     Ÿ  History file Input/Output routine                                  Ÿ
                                   29608    3260.1    Ÿ                                                                     Ÿ
                                   29609    3261.     Ÿ        R0 - positive indicates a read operation                     Ÿ
                                   29610    3262.     Ÿ             negative indicates a write operation                    Ÿ
                                   29611    3263.     Ÿ                  the value in R0 determines which buffer            Ÿ
                                   29612    3264.     Ÿ        R1 - record number for a read operation                      Ÿ
                                   29613    3265.     Ÿ                                                                     Ÿ
                                   29614    3266.     Ÿ        On return from read R1 will contain the address of the       Ÿ
                                   29615    3267.     Ÿ        history file record.                                         Ÿ
                                   29616    3268.     Ÿ                                                                     Ÿ
                                   29617    3269.     Ÿ                                                                     Ÿ
                                                      ¾þþþþþþþþþþþþþþþþþþþþþþþþþþþþþþþþþþþþþþþþþþþþþþþþþþþþþþþþþþþþþþþþþþþþþ»
-003668 5090 D000/902C_      00000 29619    3272.     HIO      PROC  ,                   Enter and save calling registers
 USING  *,R7
 003678 1020                       29657    3273.              LPR   SR,R0               Compute index value
 00367A 5F20 73BC            03A34 29658    3274.              SL    SR,=A(1)              Adjust value for index
 00367E 8920 0002            00002 29659    3275.              SLL   SR,2                    Times 4 for index
 003682 4122 C73C            0073C 29660    3276.              LA    SR,HISTRECA(SR)           Address proper table
 003686 5820 2000            00000 29661    3277.              L     SR,@SR              Set address of I/O block
 USING  HISTIO,R2                  29662    3278.              USING HISTIO,SR           ## addressabilty to block
 00368A 1200/4740 70EE             29671    3279.              IF    (R0,NM),BEGIN       "READ" operation requested
 003690 D603 2004 2004_00004 00004 29685  1 3280.                IF    (HISTADR,NZ),BEGIN
 00369A 1831                       29701  2 3281.                  LR    TR,R1               Save record number
 00369C 1840                       29702  2 3282.                  LR    QR,R0               Save entry parameter
 00369E 4110 7589/4100_      03C01 29703  2 3283.                  VSEG  'VDMP907S - History access logic error. (READ)'
 0036AC 5890 73A0/0D99       03A18 29712  2 3284.                  VWRITE ,
 0036B2 4100 0010/4110_      00010 29717  2 3285.                  VCNTL BLANK,11            ADD SPACERS
 0036C0 4110 75B6/4100_      03C2E 29736  2 3286.                  VSEG  'Entry parameters '
 0036CE 18F4/1B00/4110_            29745  2 3287.                  SEGDC 0,(QR)
 0036E2 4110 75C7/4100_      03C3F 29784  2 3288.                  VSEG  ' '
 0036F0 18F3/1B00/4110_            29793  2 3289.                  SEGDC 0,(TR)              Convert block number
 003704 5890 73A0/0D99       03A18 29832  2 3290.                  VWRITE ,
 00370A 922C C05B      0005B       29837  2 3291.                  MVI   RETCODE+3,SYS_BAD   Set severe error message
 00370E 47F0 60DA            000F0 29838  2 3292.                  B     DUMPEXIT            Blast out
 003712                            29839  1 3293.                END   ,
 003712 5010 2008            00008 29843  1 3294.                ST    R1,HISTBLK          Set block address to read
 003716 4110 200C/9200_      0000C 29844  1 3295.                READ  HISTDECB,DI,HSTDCB,HISTBUFF,128,,HISTBLK+1,MF=E
 00374E 4110 200C/58E0_      0000C 29861  1 3296.                CHECK HISTDECB            This had better work damnit
 00375E 4110 2028            00028 29868  1 3297.                LA    R1,HISTBUFF         Address of data buffer
 003762 5010 2004            00004 29869  1 3298.                ST    R1,HISTADR          Set record "locked" indicator
 003766 70F2/47F0 7136 03766 0368E 29870    3299.              END   ELSE,BEGIN          "WRITE" operation requested
 00376A 4110 200C/9200_      0000C 29885  1 3300.                WRITE HISTDECB,DI,HSTDCB,HISTBUFF,128,,HISTBLK+1,MF=E
 00379E 4110 200C/58E0_      0000C 29901  1 3301.                CHECK HISTDECB            CHECK I/O COMPLETION
 0037AE                            29908    3302.              END   ,
 DROP   HISTIO,R2                  29912    3303.              DROP  SR                  ## RELEASE HISTIO
 0037AE 18D8/982C D004_            29919    3304.              PEND  ,                   Return to caller
 DROP   *,R7
1VDMP     (VDMP21) (09:46) (22MAR04) ORVYL's File System Dump Program: Common Routines                                      Page  136
0Current Usings:  (DUMP,R6) (DWA,R12)
0Loc    Object Code    Addr1 Addr2  Stmt Lv Lineno    Source Statement           (Hibal 5, Asmedit 3.3)  HLASM R4.0  2004/03/22 09.46
+___    ______ ____    _____ _____  ____ __ ______    ______ _________
0                                  29940    3306.     ¿þþþþþþþþþþþþþþþþþþþþþþþþþþþþþþþþþþþþþþþþþþþþþþþþþþþþþþþþþþþþþþþþþþþþþÜ
                                   29941    3307.     Ÿ                                                                     Ÿ
                                   29942    3308.     Ÿ  Clear history record slot, write record to file                    Ÿ
                                   29943    3309.     Ÿ                                                                     Ÿ
                                                      ¾þþþþþþþþþþþþþþþþþþþþþþþþþþþþþþþþþþþþþþþþþþþþþþþþþþþþþþþþþþþþþþþþþþþþþ»
-0037BC 5090 D000/902C_      00000 29945    3312.     CLRIO    PROC  ,                   Enter and save calling registers
 USING  *,R7
 0037CC 1020                       29983    3313.              LPR   SR,R0               Compute proper record
 0037CE 5B20 7268            03A34 29984    3314.              S     SR,=A(1)              adjust index
 0037D2 8920 0002            00002 29985    3315.              SLL   SR,2                    time 4 for offset
 0037D6 4122 C73C            0073C 29986    3316.              LA    SR,HISTRECA(SR)           pointer to histio area
 0037DA 5820 2000            00000 29987    3317.              L     SR,@SR              Address of histio area
 USING  HISTIO,R2                  29988    3318.              WITH  (HISTIO,R2)         Addresability to HISTIO area
 0037DE D603 2004 2004_00004 00004 30001    3319.              IF    (HISTADR,Z),BEGIN
 0037E8 4110 7474/4100_      03C40 30017  1 3320.                VSEG  'VDMP907S - History file access error. (WRITE)'
 0037F6 5890 724C/0D99       03A18 30026  1 3321.                VWRITE ,                  Report catastrophic error
 0037FC 922C C05B      0005B       30031  1 3322.                MVI   RETCODE+3,SYS_BAD   Set internal logic error
 003800 47F0 60DA            000F0 30032  1 3323.                B     DUMPEXIT            And abort any further processing
 003804                            30033    3324.              END   ,
 003804 4110 200C/9200_      0000C 30037    3325.              WRITE HISTDECB,DI,HSTDCB,HISTBUFF,128,,HISTBLK+1,MF=E
 003838 4110 200C/58E0_      0000C 30053    3326.              CHECK HISTDECB            Wait for i/o completion
 003848 D703 2004 2004 00004 00004 30060    3327.              CLEAR HISTADR             Zero "locked" record
 00384E D703 2008 2008 00008 00008 30067    3328.              CLEAR HISTBLK             Zero block number
 003854 18D8/982C D004_            30074    3329.              PEND  ,                   Restore registers and return
 DROP   HISTIO,R2
 DROP   *,R7
1VDMP     (VDMP21) (09:46) (22MAR04) ORVYL's File System Dump Program: Common Routines                                      Page  137
0Current Usings:  (DUMP,R6) (DWA,R12)
0Loc    Object Code    Addr1 Addr2  Stmt Lv Lineno    Source Statement           (Hibal 5, Asmedit 3.3)  HLASM R4.0  2004/03/22 09.46
+___    ______ ____    _____ _____  ____ __ ______    ______ _________
0                                  30100    3331.1    ¿þþþþþþþþþþþþþþþþþþþþþþþþþþþþþþþþþþþþþþþþþþþþþþþþþþþþþþþþþþþþþþþþþþþþþÜ
                                   30101    3332.     Ÿ                                                                     Ÿ
                                   30102    3333.     Ÿ  Clear record slot, (no write)                                      Ÿ
                                   30103    3334.     Ÿ                                                                     Ÿ
                                                      ¾þþþþþþþþþþþþþþþþþþþþþþþþþþþþþþþþþþþþþþþþþþþþþþþþþþþþþþþþþþþþþþþþþþþþþ»
0003862 5090 D000/902C_      00000 30105    3336.     CLRNW    PROC  ,                   Enter and save calling registers
 USING  *,R7
 003872 1020                       30143    3337.              LPR   R2,R0               Compute proper record
 003874 5B20 71C2            03A34 30144    3338.              S     R2,=A(1)              adjust index
 003878 8920 0002            00002 30145    3339.              SLL   R2,2                    for pointer to address
 00387C 4122 C73C            0073C 30146    3340.              LA    R2,HISTRECA(R2)     Address of address pointer
 003880 5820 2000            00000 30147    3341.              L     R2,@R2              Pointer to histio control block
 USING  HISTIO,R2                  30148    3342.              WITH  (HISTIO,R2)         Addressability to HISTIO area
 003884 D703 2004 2004 00004 00004 30161    3343.              CLEAR HISTADR             Zero block address pointer
 00388A D703 2008 2008 00008 00008 30168    3344.              CLEAR HISTBLK             And zero block number
 003890 18D8/982C D004_            30175    3345.              PEND  ,                   Restore and return to caller
 DROP   HISTIO,R2
 DROP   *,R7
1VDMP     (VDMP21) (09:46) (22MAR04) ORVYL's File System Dump Program: Common Routines                                      Page  138
0Current Usings:  (DUMP,R6) (DWA,R12)
0Loc    Object Code    Addr1 Addr2  Stmt Lv Lineno    Source Statement           (Hibal 5, Asmedit 3.3)  HLASM R4.0  2004/03/22 09.46
+___    ______ ____    _____ _____  ____ __ ______    ______ _________
0                                  30201    3348.     ¿þþþþþþþþþþþþþþþþþþþþþþþþþþþþþþþþþþþþþþþþþþþþþþþþþþþþþþþþþþþþþþþþþþþþþÜ
                                   30202    3349.     Ÿ                                                                     Ÿ
                                   30203    3350.     Ÿ  Allocate the next available free record from the HISTORY file.     Ÿ
                                   30204    3351.     Ÿ                                                                     Ÿ
                                   30205    3352.     Ÿ        R0  - Contains the buffer number whith which to process      Ÿ
                                   30206    3353.     Ÿ              the record.                                            Ÿ
                                   30207    3354.     Ÿ                                                                     Ÿ
                                   30208    3355.     Ÿ        On return register 1 contains the address of the new         Ÿ
                                   30209    3356.     Ÿ        record.                                                      Ÿ
                                   30210    3357.     Ÿ                                                                     Ÿ
                                   30211    3358.     Ÿ                                                                     Ÿ
                                                      ¾þþþþþþþþþþþþþþþþþþþþþþþþþþþþþþþþþþþþþþþþþþþþþþþþþþþþþþþþþþþþþþþþþþþþþ»
-00389E 5090 D000/902C_      00000 30213    3360.     GETREC   PROC  ,                   Enter and save calling registers
 USING  *,R7
 0038AE 1020                       30251    3361.              LPR   SR,R0               Save buffer number for request
 0038B0 4110 0001            00001 30252    3362.              LA    R1,1                Set buffer master block buffer
 0038B4 4D90 636C            00382 30253    3363.              LCALL GRADR               Generate address to buffer
 0038B8 1831                       30255    3364.              LR    TR,R1               Set buffer address
 USING  HISBREC,R3                 30256    3365.              WITH  (HISBREC,TR)        Addressability to master block
 0038BA 5810 3010            00010 30269    3366.              L     R1,HISBFREE         Next available record
 0038BE 1211/4770 7032             30270    3367.              IF    (R1,Z),BEGIN        Whoops - no more records
 0038C4 4110 7142/4100_      039F0 30284  1 3368.                VSEG  'VDMP769E - History file full, sorry Mom.'
 0038D2 5890 716A/0D99       03A18 30293  1 3369.                VWRITE ,                  Write to report file
 0038D8 921C C05B      0005B       30298  1 3370.                MVI   RETCODE+3,HST_ERR   Set return code
 0038DC 47F0 60DA            000F0 30299  1 3371.                B     DUMPEXIT            And return to system
 0038E0                            30300    3372.              END   ,
 0038E0 1002                       30304    3373.              LPR   R0,SR               Reset just in case
 0038E2 5890 717E/0D99       03A2C 30305    3374.              ACALL HIO                 Go read record into buffer
 0038E8 1821                       30309    3375.              LR    SR,R1               Save address of record
 0038EA D203 3010 2004 00010 00004 30310    3376.              MVC   HISBFREE,@SR+4      Remove record from free queue
 0038F0 D703 2004 2004 00004 00004 30311    3377.              CLEAR (@SR+4,4)           Zero for neatness
 0038F6 4100 0001            00001 30318    3378.              LA    R0,1                Set buffer number one
 0038FA 1300                       30319    3379.              LCR   R0,R0               Complete for write
 0038FC 5890 717E/0D99       03A2C 30320    3380.              ACALL HIO                 Rewrite master block
 003902 1812                       30324    3381.              LR    R1,SR               Set return address for caller
 003904 18D8/982C D004_            30325    3382.              PEND  ,                   Restore and return to caller
 DROP   HISBREC,R3
 DROP   *,R7
1VDMP     (VDMP21) (09:46) (22MAR04) ORVYL's File System Dump Program: Common Routines                                      Page  139
0Current Usings:  (DUMP,R6) (DWA,R12)
0Loc    Object Code    Addr1 Addr2  Stmt Lv Lineno    Source Statement           (Hibal 5, Asmedit 3.3)  HLASM R4.0  2004/03/22 09.46
+___    ______ ____    _____ _____  ____ __ ______    ______ _________
0                                  30351    3385.     ¿þþþþþþþþþþþþþþþþþþþþþþþþþþþþþþþþþþþþþþþþþþþþþþþþþþþþþþþþþþþþþþþþþþþþþÜ
                                   30352    3386.     Ÿ                                                                     Ÿ
                                   30353    3387.     Ÿ  Return history record to the free queue                            Ÿ
                                   30354    3388.     Ÿ                                                                     Ÿ
                                                      ¾þþþþþþþþþþþþþþþþþþþþþþþþþþþþþþþþþþþþþþþþþþþþþþþþþþþþþþþþþþþþþþþþþþþþþ»
-003912 5090 D000/902C_      00000 30356    3391.     FREREC   PROC  ,                   Enter and save calling registers
 USING  *,R7
 003922 1040                       30394    3392.              LPR   QR,R0               Save buffer number
 003924 1010                       30395    3393.              LPR   R1,R0               Set for address computation
 003926 4D90 636C            00382 30396    3394.              LCALL GRADR               Generate address of record
 00392A 1821                       30398    3395.              LR    SR,R1               Save address of record to free
 00392C 4110 0001            00001 30399    3396.              LA    R1,1                Master block buffer number
 003930 4D90 636C            00382 30400    3397.              LCALL GRADR               Generate address of master
 003934 1831                       30402    3398.              LR    TR,R1               Save address of master record
 USING  HISBREC,R3                 30403    3399.              WITH  (HISBREC,TR)        Addressability to record
 003936 D203 2004 3010 00004 00010 30416    3400.              MVC   @SR+4(4),HISBFREE   Update chain pointers
 00393C D203 3010 2000 00010 00000 30417    3401.              MVC   HISBFREE,@SR        Record added to free queue
 003942 D76F 2008 2008 00008 00008 30418    3402.              XC    @SR+8(120-8),@SR+8  Zero record
 003948 1304                       30419    3403.              LCR   R0,QR               Reset buffer number of freed rec
 00394A 5890 7132/0D99       03A54 30420    3404.              ACALL CLRIO               Write and clear buffer
 003950 4100 0001            00001 30424    3405.              LA    R0,1                Set master buffer number
 003954 1300                       30425    3406.              LCR   R0,R0               Indicate write request
 003956 5890 710A/0D99       03A2C 30426    3407.              ACALL HIO                 Rewrite master block
 00395C 18D8/982C D004_            30430    3408.              PEND  ,                   And return to caller
 DROP   HISBREC,R3
 DROP   *,R7
1VDMP     (VDMP21) (09:46) (22MAR04) ORVYL's File System Dump Program: Common Routines                                      Page  140
0Current Usings:  (DUMP,R6) (DWA,R12)
0Loc    Object Code    Addr1 Addr2  Stmt Lv Lineno    Source Statement           (Hibal 5, Asmedit 3.3)  HLASM R4.0  2004/03/22 09.46
+___    ______ ____    _____ _____  ____ __ ______    ______ _________
0                                  30456    3409.11   ¿þþþþþþþþþþþþþþþþþþþþþþþþþþþþþþþþþþþþþþþþþþþþþþþþþþþþþþþþþþþþþþþþþþþþþÜ
                                   30457    3409.12   Ÿ                                                                     Ÿ
                                   30458    3409.13   Ÿ  Define literal pool                                                Ÿ
                                   30459    3409.14   Ÿ                                                                     Ÿ
                                                      ¾þþþþþþþþþþþþþþþþþþþþþþþþþþþþþþþþþþþþþþþþþþþþþþþþþþþþþþþþþþþþþþþþþþþþþ»
-003970                            30461    3410.              LTORG ,
 003970 E5C4D4D7F5F5F9C5           30463                             =C'VDMP559E - No dump record found in history file.'
 0039A0 40869699408481A3           30464                             =C' for date determination.'
 0039B8 E3D6C440C3939683           30465                             =C'TOD Clock value '
 0039C8 C8C9E2E3D6D9E840           30466                             =CL8'HISTORY'
 0039D0 D985839699848995           30467                             =C'Recording not possible this run.'
 0039F0 E5C4D4D7F7F6F9C5           30468                             =C'VDMP769E - History file full, sorry Mom.'
 003A18 00000000                   30469                             =V(VWRITE)
 003A1C 00000000                   30470                             =V(VSEG)
 003A20 00000000                   30471                             =V(VCNTRL)
 003A24 00001FA6                   30472                             =A(FINDUCB)
 003A28 00000000                   30473                             =V(BTDC)
 003A2C 00003668                   30474                             =A(HIO)
 003A30 00003862                   30475                             =A(CLRNW)
 003A34 00000001                   30476                             =A(1)
 003A38 00A0EEBB                   30477                             =A(27*390625)
 003A3C 00003D09                   30478                             =A(5*5*5*5*5*5)
 003A40 00000000                   30479                             =V(BTX)
 003A44 00000000                   30480                             =V(FMTCLCK)
 003A48 00001F42                   30481                             =A(FINDDD)
 003A4C 001C0000                   30482                             =AL2(DALCLOSE,0)
 003A50 00004D28                   30483                             =A(PHSTDCB)
 003A54 000037BC                   30484                             =A(CLRIO)
 003A58 00003912                   30485                             =A(FREREC)
 003A5C FFFFFFFF                   30486                             =A(-1)
 003A60 00000000                   30487                             =V(BTD)
 003A64 E5C4D4D7F0F5F3C9           30488                             =C'VDMP053I - Incremental dump pool will be -'
 003A8E E5C4D4D7F0F5F7E6           30489                             =C'VDMP057W - Unable to locate unit control block'
 003ABC 40E399818392A240           30490                             =C' Tracks available for incremental data'
 003AE2 E5C4D4D7F5F5F7C5           30491                             =C'VDMP557E - Unable to determine date range.'
 003B0C C293968392A240A6           30492                             =C'Blocks written after this date will be dumped.'
 003B3A 000100010008               30493                             =AL2(DALDDNAM,1,8)
 003B40 00020001002C               30494                             =AL2(DALDSNAM,1,44)
 003B46 000400010001               30495                             =AL2(DALSTATS,1,1)
 003B4C E5C4D4D7F0F8F6C9           30496                             =C'VDMP086I - History file base block loaded.'
 003B76 60                         30497                             =C'-'
 003B77 E5C4D4D7F0F0F3C9           30498                             =C'VDMP003I - Using last successful '
 003B98 C6E4D3D340C4E4D4           30499                             =C'FULL DUMP'
 003BA1 C9D5C3D9C5D4C5D5           30500                             =C'INCREMENTAL'
 003BAC 404040                     30501                             =C'   '
 003BAF E5C4D4D7F0F9F7E6           30502                             =C'VDMP097W - Unable to allocate history file.'
 003BDA E5C4D4D7F0F8F5E6           30503                             =C'VDMP085W - Unable to open history file.'
 003C01 E5C4D4D7F9F0F7E2           30504                             =C'VDMP907S - History access logic error. (READ)'
 003C2E C595A399A8409781           30505                             =C'Entry parameters '
 003C3F 40                         30506                             =C' '
 003C40 E5C4D4D7F9F0F7E2           30507                             =C'VDMP907S - History file access error. (WRITE)'
1VDMP     (VDMP21) (09:46) (22MAR04) ORVYL's File System Dump Program: Initialization                                       Page  141
0Current Usings:  (DUMP,R6) (DWA,R12)
0Loc    Object Code    Addr1 Addr2  Stmt Lv Lineno    Source Statement           (Hibal 5, Asmedit 3.3)  HLASM R4.0  2004/03/22 09.46
+___    ______ ____    _____ _____  ____ __ ______    ______ _________
0                                  30512    3411.01   ********************************************************************
                                   30513    3411.02   *                                                                  *
                                   30514    3411.03   *  FILEDUMP main code initialization subroutine                    *
                                   30515    3411.04   *                                                                  *
                                   30516    3411.05   ********************************************************************
                                   30517    3411.06   *                                                                  *
                                   30518    3411.07   *   1.  Initialize dynamic allocation control blocks               *
                                   30519    3411.08   *                                                                  *
                                   30520    3411.09   *   2.  Report starting time/date of run                           *
                                   30521    3411.1    *                                                                  *
                                   30522    3411.11   *   3.  Establish an extended stae environment                     *
                                   30523    3411.12   *                                                                  *
                                   30524    3411.13   *   4.  Create control section list for debugging trace routines   *
                                   30525    3411.14   *                                                                  *
                                   30526    3411.15   *   5.  Scan exec field parameter options                          *
                                   30527    3411.16   *                                                                  *
                                   30528    3411.17   *                                                                  *
                                   30529    3411.18   ********************************************************************
-
 003C6D 00/9029 D000/188_          30531    3411.29   INIT     VENTER SR,RAR,*,LOCAL     Enter and save calling registers
 USING  *,R7
0                                  30551    3412.     ********************************************************************
                                   30552    3413.     *                                                                  *
                                   30553    3414.     *  Initialize SVC99 dynamic allocation blocks for SYSOUT DD's      *
                                   30554    3415.     *                                                                  *
                                   30555    3416.     ********************************************************************
0003C7A 4100 C3B8            003B8 30557    3419.              LA    R0,SDYNPRM          Address of SVC99 request block
 003C7E 5000 C3B4            003B4 30558    3420.              ST    R0,SDYNBLK            Set for SVC99 pointer
 003C82 9680 C3B4      003B4       30559    3421.              OI    SDYNBLK,X'80'           Set last parameter
 003C86 4130 C3B8            003B8 30560    3422.              LA    TR,SDYNPRM          Address of SVC99 request block
 USING  S99RB,R3                   30561    3423.              USING S99RB,TR              ## Addr to request block
 003C8A 9214 3000      00000       30570    3424.              MVI   S99RBLN,20              Set length of RB
 003C8E 9201 3001      00001       30571    3425.              MVI   S99VERB,S99VRBAL          Set allocation request
 003C92 9220 3002      00002       30572    3426.              MVI   S99FLG11,S99NOMNT   Don't mount volumes or offline
 DROP   S99RB,R3                   30573    3427.              DROP  TR                  ## Release addressability
1VDMP     (VDMP21) (09:46) (22MAR04) ORVYL's File System Dump Program: Initialization                                       Page  142
0Current Usings:  (DUMP,R6) (*,R7) (DWA,R12)
0Loc    Object Code    Addr1 Addr2  Stmt Lv Lineno    Source Statement           (Hibal 5, Asmedit 3.3)  HLASM R4.0  2004/03/22 09.46
+___    ______ ____    _____ _____  ____ __ ______    ______ _________
0                                  30581    3429.     ********************************************************************
                                   30582    3430.     *                                                                  *
                                   30583    3431.     *  Test for a SYSPRT SYSOUT=$ ddcard, if none is present           *
                                   30584    3432.     *    then  dynamically allocate one.                               *
                                   30585    3433.     *                                                                  *
                                   30586    3434.     ********************************************************************
0003C96 D201 C214 7B42 00214 047BC 30588    3436.              MVC   SEGMENT,=C'  '      Set default segment
 003C9C 4110 79E6            04660 30589    3437.              LA    R1,=CL8'SYSPRT'     Address of sysout=a ddname
 003CA0 5890 7AB6/0D99       04730 30590    3438.              ACALL FINDDD              Attempt to locate via tiot
 003CA6 12FF/4780 7048             30594    3439.              IF    (R15,NZ),BEGIN      Not there, allocate one
 003CAC 4110 79E6            04660 30608  1 3440.                LA    R1,=CL8'SYSPRT'     Address of ddname
 003CB0 4D90 641E            00434 30609  1 3441.                LCALL DYNPRT              Allocate a print sysout=$
 003CB4 12FF/4780 7048             30611  1 3442.                IF    (R15,NZ),BEGIN      Abort for no sysprint available
 003CBA 9218 C05B      0005B       30625  2 3443.                  MVI   RETCODE+3,DYN_ALC   Can't obtain print file
 003CBE 47F0 60DA            000F0 30626  2 3444.                  B     DUMPEXIT            Let's get out of here
 003CC2                            30627  1 3445.                END   ,
 003CC2                            30631    3446.              END   ,
1VDMP     (VDMP21) (09:46) (22MAR04) ORVYL's File System Dump Program: Initialization                                       Page  143
0Current Usings:  (DUMP,R6) (*,R7) (DWA,R12)
0Loc    Object Code    Addr1 Addr2  Stmt Lv Lineno    Source Statement           (Hibal 5, Asmedit 3.3)  HLASM R4.0  2004/03/22 09.46
+___    ______ ____    _____ _____  ____ __ ______    ______ _________
0                                  30636    3448.     ********************************************************************
                                   30637    3449.     *                                                                  *
                                   30638    3450.     *  Initial messages and startup processing                         *
                                   30639    3451.     *                                                                  *
                                   30640    3452.     ********************************************************************
0003CC2 5890 7ABA/0D99       04734 30642    3454.              VINIT ,                   Initialize print routines
 003CC8 4780 705A            03CD4 30645    3455.              IF    NZ,BEGIN            Can't open report file
 003CCC 9218 C05B      0005B       30656  1 3456.                MVI   RETCODE+3,DYN_ALC   Set return code
 003CD0 47F0 60DA            000F0 30657  1 3457.                B     DUMPEXIT            Return to system from here
 003CD4                            30658    3458.              END   ,
 003CD4 4110 79E6            04660 30662    3459.              LA    R1,=CL8'SYSPRT'     Set address of report ddname
 003CD8 4100 0020/5890_      00020 30663    3460.              VCNTL DDNAM,(R1)          Set SYSPRT DDNAME
 003CE2 9610 C1C0      001C0       30679    3461.              SET   FLPOPN              Set SYSPRT file open
 003CE6 4100 001C/1B11_      0001C 30685    3462.              VCNTL PAGE                Set new page
 003CF2 4110 79EE/4100_      04668 30701    3463.              VSEG  'Filedump'          Say "Filedump" please
 003D00 4110 7C74/4100_      048EE 30710    3464.              VSEG  '    ***ORVYL File Dump Program***    '
 003D0E 4110 79F6/4100_      04670 30719    3465.              VSEG  'Version='          Report version and ASM date
 003D1C 5820 7AC6            04740 30728    3466.              L     SR,=A(VDMP)         Starting address of VDMP
 003D20 1F00/4300 2000             30729    3467.              LC    R0,@SR              Put length in R0
 003D26 4110 2001/5890_      00001 30734    3468.              VSEG  @SR+1,(0)           Add ident in header line
 003D30 5890 7ACA/0D99       04744 30753    3469.              VWRITE ,                  Output line
 003D36 4110 0001/0A0B       00001 30758    3470.              TIME  BIN,ZONE=LT         Get starting time,date
 003D3C 9001 C038            00038 30762    3471.              STM   R0,R1,STRT          Save it for later
 003D40 4110 0002/0A0B       00002 30763    3471.1             TIME  DEC                 GET DECIMAL TIME FOR INC
 003D46 5000 C040            00040 30767    3471.2             ST    R0,TIME2INC         SAVE FOR INCREMENTAL DUMP
 003D4A B205 C030      00030       30768    3472.              STCK  CLCKSTRT            Save TOD time starting
 003D4E D207 C1A0 C030 001A0 00030 30769    3473.              MVC   IIOLST,CLCKSTRT     Save for instantaneous rates
 003D54 4100 0010/4110_      00010 30770    3474.              VCNTL BLANK,15            Add separator blanks
 003D62 5800 C03C            0003C 30789    3475.              L     R0,DAY              Get day
 003D66 4110 C010            00010 30790    3476.              LA    R1,WORK             Address of work area
 003D6A 58E0 7ACE/0DEE       04748 30791    3477.              XCALL DAYF                Format it out
 003D70 5890 7AC2/0D99       0473C 30795    3478.              VSEG  (1),(0)             Into output line
 003D76 4110 7B42/4100_      047BC 30812    3479.              VSEG  '  '                Add spacer
 003D84 5800 C038            00038 30821    3480.              L     R0,TIME             Get time
 003D88 4110 C010            00010 30822    3481.              LA    R1,CLWTEMP          Work area address for conversion
 003D8C 58E0 7AD2/0DEE       0474C 30823    3482.              XCALL TIME                Format time into message
 003D92 4100 0008/5890_      00008 30827    3483.              VSEG  (1),8               Into output line
 003D9C 5890 7ACA/0D99       04744 30846    3484.              VWRITE ,                  Write line to SYSPRT
 003DA2 4100 0014/1B11_      00014 30851    3485.              VCNTL SKIP1               Skip a blank line
 003DAE 5840 C048            00048 30867    3486.              L     QR,PARMPTR          Address EXEC card parameter field
 003DB2 5820 4000            00000 30868    3487.              L     SR,@QR              Parm pointer
 003DB6 4830 2000            00000 30869    3488.              LH    TR,@SR              Parm length
 003DBA 4120 2002            00002 30870    3489.              LA    SR,@SR+2            POINT AT DATA
 003DBE 1233/4780 7176             30871    3490.              IF    (TR,NZ),BEGIN       Only report if any
 003DC4 4110 7C99/4100_      04913 30885  1 3491.                VSEG  'VDMP005I - Input parms =>'
 003DD2 1812/1803/5890_            30894  1 3492.                VSEG  (SR),(TR)           Add parameter value
 003DDC 4110 7B44/4100_      047BE 30911  1 3493.                VSEG  '<='                Add Closing field
 003DEA 5890 7ACA/0D99       04744 30920  1 3494.                VWRITE ,                  Write to SYSPRT
 003DF0                            30925    3495.              END   ,
1VDMP     (VDMP21) (09:46) (22MAR04) ORVYL's File System Dump Program: Initialization                                       Page  144
0Current Usings:  (DUMP,R6) (*,R7) (DWA,R12)
0Loc    Object Code    Addr1 Addr2  Stmt Lv Lineno    Source Statement           (Hibal 5, Asmedit 3.3)  HLASM R4.0  2004/03/22 09.46
+___    ______ ____    _____ _____  ____ __ ______    ______ _________
0                                  30930    3497.     ********************************************************************
                                   30931    3498.     *                                                                  *
                                   30932    3499.     *  Initialize FILEDUMP ESTAE FOR RECOVERY                          *
                                   30933    3500.     *                                                                  *
                                   30934    3501.     ********************************************************************
0003DF0 5820 7AD6            04750 30936    3503.              L     SR,=A(RECROUT)      Address of ESTAE recovery routine
                                   30937    3504.   C          ESTAE (SR),CT,PARAM=(DWR),XCTL=NO,PURGE=QUIESCE,
 003DF4 4110 CA64/5021_      00A64          3505.                    ASYNCH=YES,TERM=YES,MF=(E,ESTLST)
 003E24 12FF/4780 71EC             30954    3506.              IF    (R15,NZ),BEGIN
 003E2A 182F                       30968  1 3507.                LR    SR,R15              Save ESTAE return code
 003E2C 4110 79FE/4100_      04678 30969  1 3508.                VSEG  'VDMP119W - Unable to establish ESTAE environment'
 003E3A 4110 7CB2/4100_      0492C 30978  1 3509.                VSEG  ', Return='         Set for ESATE return code
 003E48 18F2/1B00/4110_            30987  1 3510.                SEGDC 0,(SR)              Report estae return code
 003E5C 5890 7ACA/0D99       04744 31026  1 3511.                VWRITE ,                  Write to report file
 003E62 9204 C05B      0005B       31031  1 3512.                MVI   RETCODE+3,RET_WARN  OK to continue
 003E66 71F0/47F0 7204 03E66 03E28 31032    3513.              END   ELSE,BEGIN
 003E6A 4110 7CBB/4100_      04935 31047  1 3514.                VSEG  'VDMP121I - ESTAE Environment established.'
 003E78 5890 7ACA/0D99       04744 31056  1 3515.                VWRITE ,                  Write to report file
 003E7E                            31061    3516.              END   ,
1VDMP     (VDMP21) (09:46) (22MAR04) ORVYL's File System Dump Program: Initialization                                       Page  145
0Current Usings:  (DUMP,R6) (*,R7) (DWA,R12)
0Loc    Object Code    Addr1 Addr2  Stmt Lv Lineno    Source Statement           (Hibal 5, Asmedit 3.3)  HLASM R4.0  2004/03/22 09.46
+___    ______ ____    _____ _____  ____ __ ______    ______ _________
0                                  31067    3519.     ********************************************************************
                                   31068    3520.     *                                                                  *
                                   31069    3521.     *   Allocate a SYSUDUMP statement also if needed.                  *
                                   31070    3522.     *        Test for a SYSMDUMP or SYSABEND, if one of these          *
                                   31071    3523.     *        are present assume the user wants it left alone.          *
                                   31072    3524.     *                                                                  *
                                   31073    3525.     ********************************************************************
0003E7E 4110 7A2E            046A8 31075    3527.              LA    R1,=CL8'SYSUDUMP'   Dump DDCARD name
 003E82 5890 7AB6/0D99       04730 31076    3528.              ACALL FINDDD              Attempt to locate via TIOT
 003E88 4780 7252            03ECC 31080    3529.              IF    NZ,BEGIN            Not there, go allocate one
 003E8C 4110 7A36            046B0 31091  1 3530.                LA    R1,=CL8'SYSMDUMP'   Machine readable dump
 003E90 5890 7AB6/0D99       04730 31092  1 3531.                ACALL FINDDD              Attempt to locate
 003E96 4780 7252            03ECC 31096  1 3532.                IF    NZ,BEGIN            Not there, keep checking
 003E9A 4110 7A3E            046B8 31107  2 3533.                  LA    R1,=CL8'SYSABEND'   Complete abend dump
 003E9E 5890 7AB6/0D99       04730 31108  2 3534.                  ACALL FINDDD              Attempt to locate abend dump
 003EA4 4780 7252            03ECC 31112  2 3535.                  IF    NZ,BEGIN            Not there, it's allocate time
 003EA8 4110 7A2E            046A8 31123  3 3536.                    LA    R1,=CL8'SYSUDUMP'   Dump DDCARD name
 003EAC 4D90 641E            00434 31124  3 3537.                    LCALL DYNPRT              Allocate dump sysout class
 003EB0 4780 7252            03ECC 31126  3 3538.                    IF    NZ,BEGIN            Whoops, allocation error
 003EB4 4110 7B46/4100_      047C0 31137  4 3539.                      VSEG  'VDMP021W - Unable to allocate SYSUDUMP DD.'
 003EC2 5890 7ACA/0D99       04744 31146  4 3540.                      VWRITE ,                  Write message to SYSPRT
 003EC8 9204 C05B      0005B       31151  4 3541.                      MVI   RETCODE+3,RET_WARN  Set a mild return code
 003ECC                            31152  3 3542.                    END   ,
 003ECC                            31156  2 3543.                  END   ,
 003ECC                            31160  1 3544.                END   ,
 003ECC                            31164    3545.              END   ,
1VDMP     (VDMP21) (09:46) (22MAR04) ORVYL's File System Dump Program: Initialization                                       Page  146
0Current Usings:  (DUMP,R6) (*,R7) (DWA,R12)
0Loc    Object Code    Addr1 Addr2  Stmt Lv Lineno    Source Statement           (Hibal 5, Asmedit 3.3)  HLASM R4.0  2004/03/22 09.46
+___    ______ ____    _____ _____  ____ __ ______    ______ _________
0                                  31169    3547.     ********************************************************************
                                   31170    3548.     *                                                                  *
                                   31171    3549.     *  Sort VSECT list                                                 *
                                   31172    3550.     *       A simple exchange sort should do                           *
                                   31173    3551.     *                                                                  *
                                   31174    3552.     ********************************************************************
0003ECC                            31176    3554.              LOOP  BEGIN                   Sort VSECT list
 003ECC 947F C1C8      001C8       31182  1 3555.                CLEAR VEXCH                   Clear exchange flag
 003ED0 5820 7ADE            04758 31189  1 3556.                L     SR,=A(VSECT)            Starting address of list
 003ED4 4130 0002            00002 31190  1 3557.                LA    TR,VSECT#-1             One less than list
 003ED8                            31191  1 3558.                LOOP  BEGIN                   Scan list for an exchange
 003ED8 D503 2004 200C 00004 0000C 31197  2 3559.                  CLC   @SR+4(4),@SR+12         Compare current with next
 003EDE 47D0 727E            03EF8 31198  2 3560.                  IF    H,BEGIN                 An exchange is needed
 003EE2 D707 2000 2008 00000 00008 31209  3 3561.                    XC    @SR(8),@SR+8            Exchange
 003EE8 D707 2008 2000 00008 00000 31210  3 3562.                    XC    @SR+8(8),@SR              the
 003EEE D707 2000 2008 00000 00008 31211  3 3563.                    XC    @SR(8),@SR+8                pair
 003EF4 9680 C1C8      001C8       31212  3 3564.                    SET   VEXCH                   An exchange has taken place
 003EF8                            31218  2 3565.                  END   ,
 003EF8 4120 2008            00008 31222  2 3566.                  LA    SR,@SR+8                Bump to next entry
 003EFC 5B30 7AE2            0475C 31223  2 3567.                  S     TR,=A(1)                Decrement count
 003F00 4770 725E            03ED8 31224  1 3568.                UNTIL Z,END                   Process entire list
 003F04 9180 C1C8/4710_001C8       31243    3569.              UNTIL ~VEXCH,END              Until no exchange take place
 003F0C 5810 0010            00010 31266    3570.              L     R1,X'10'                Load CVT address
 003F10 5810 1000            00000 31267    3571.              L     R1,CVTTCBP-CVTMAP(,R1)   LOAD TCB DOUBLE WORDS
 003F14 5810 1004            00004 31268    3572.              L     R1,@R1+4                   CURRENT TCB ADDRESS
 003F18 5811 0000            00000 31269    3573.              L     R1,TCBRBP-TCB(R1)            Current RB (me I hope)
 003F1C 5811 000C            0000C 31270    3574.              L     R1,RBCDE-RBBASIC(R1)           CDE Queue pointer
 003F20 5811 0014            00014 31271    3575.              L     R1,CDXLMJP-CDENTRY(R1)           Extent list pointer
 003F24 5811 0008            00008 31272    3576.              L     R1,XTLMSBLA-XTLST(R1)              Load module length
 003F28 5010 C044            00044 31273    3577.              ST    R1,LMLST                             Save for trace rtn
1VDMP     (VDMP21) (09:46) (22MAR04) ORVYL's File System Dump Program: Initialization                                       Page  147
0Current Usings:  (DUMP,R6) (*,R7) (DWA,R12)
0Loc    Object Code    Addr1 Addr2  Stmt Lv Lineno    Source Statement           (Hibal 5, Asmedit 3.3)  HLASM R4.0  2004/03/22 09.46
+___    ______ ____    _____ _____  ____ __ ______    ______ _________
0                                  31275    3579.     ********************************************************************
                                   31276    3580.     *                                                                  *
                                   31277    3581.     *  Report initial status messages                                  *
                                   31278    3582.     *  Initialize dump parameters to default values                    *
                                   31279    3583.     *                                                                  *
                                   31280    3584.     ********************************************************************
0003F2C D203 C4E4 7AE6 004E4 04760 31282    3586.              MVC   HSTDGEN,=A(3)           Default of two generation
 003F32 D203 C4E8 7AEA 004E8 04764 31283    3587.              MVC   HSTIGEN,=A(2)           Default to two generations
 003F38 D203 C174 7AEE 00174 04768 31284    3588.              MVC   DTTWLMT,=A(6)           Six temporary writes
 003F3E D203 C178 7AF2 00178 0476C 31285    3589.              MVC   DTEGLMT,=A(11)          Eleven erase gaps
 003F44 9620 C1C0      001C0       31286    3590.              SET   FLTHIST                 Set tape history error
 003F48 94BF C1C0      001C0       31292    3591.              CLEAR FLFEOV                  Clear EOV as default
 003F4C 9280 C1C6      001C6       31299    3592.              SET   (FNCDMP,EQ)             Default is to dump
 003F50 D203 C1BC 7AF6 001BC 04770 31306    3593.              MVC   TRCSIZE,=A(-1)          Set no trace table set
 003F56 D203 C114 7AF6 00114 04770 31307    3594.              MVC   TASKLVL,=A(-1)          Set no task level set
 003F5C D203 C11C 7AF6 0011C 04770 31308    3595.              MVC   DMPLVL,=A(-1)           Set no dump task level set
 003F62 D203 C118 7AF6 00118 04770 31309    3596.              MVC   INCLVL,=A(-1)           Set no incremental level
 003F68 D203 C120 7AF6 00120 04770 31310    3597.              MVC   RDLVL,=A(-1)            Set no readback level set
 003F6E D203 C170 7AFA 00170 04774 31311    3598.              MVC   TRKALLO,=A(100)         Set default inc allocation
 003F74 F874 C17C 7CE4 0017C 0495E 31312    3599.              ZAP   DTFEOVC,=P'160000000'   Set default eov byte count
 003F7A D207 C2C8 7A46 002C8 046C0 31313    3600.              MVC   TAPEUNIT,=CL8'TAPE'     Set default tape unit name
 003F80 D207 C2D0 7A4E 002D0 046C8 31314    3600.01            MVC   XIT_Name,=CL8' '        Set blank padded exit name
 003F86 943F C1C2      001C2       31315    3600.02            Clear XIT_Loaded*XIT_Active   Clear all exit processing
 003F8A 9240 C4EC      004EC       31325    3600.03            MVI   HSTFSNAM,C' '           Blank fill file system name
 003F8E D206 C4ED C4EC 004ED 004EC 31326    3600.04            MVC   HSTFSNAM+1(L'HSTFSNAM-1),HSTFSNAM
0                                  31328    3600.91   *
                                   31329    3600.92   *  Initialize passed parameters to the catalog build and
                                   31330    3600.93   *  verify programs
                                   31331    3600.94   *
0003F94 4100 0007            00007 31333    3600.96            LA    R0,7                Length of parameter string
 003F98 4000 C34C            0034C 31334    3600.97            STH   R0,VRFYPRM          Save length
 003F9C D263 C34E 7CE9 0034E 04963 31335    3600.98            MVC   VRFYTEXT,=C'IXRDUMP'  set parameter string
 003FA2 4100 C34C            0034C 31336    3600.99            LA    R0,VRFYPRM          Address of parameter
 003FA6 5000 C348            00348 31337    3601.              ST    R0,VRFYPTR          Save pointer address
 003FAA 9680 C348      00348       31338    3601.1             OI    VRFYPTR,X'80'       Mark as last parameter
0003FAE 4100 0004            00004 31340    3601.3             LA    R0,4                Length of parameter string
 003FB2 4000 C2E0            002E0 31341    3601.4             STH   R0,VBLDPRM          Save length of string
 003FB6 D263 C2E2 7AFE 002E2 04778 31342    3601.5             MVC   VBLDTEXT,=C'DUMP'
 003FBC 4100 C2E0            002E0 31343    3601.6             LA    R0,VBLDPRM          Address of parameter
 003FC0 5000 C2DC            002DC 31344    3601.7             ST    R0,VBLDPTR          Save pointer address
 003FC4 9680 C2DC      002DC       31345    3601.8             OI    VBLDPTR,X'80'       Mark as last parameter
0003FC8 5840 0010            00010 31347    3602.1             L     QR,16                   CVT pointer
 003FCC 5840 401C            0001C 31348    3602.2             L     QR,@QR+28               CVTPCNVT (TTR Conversion)
 003FD0 5040 C04C            0004C 31349    3602.3             ST    QR,ATTRCONV             Save for later use
1VDMP     (VDMP21) (09:46) (22MAR04) ORVYL's File System Dump Program: Initialization                                       Page  148
0Current Usings:  (DUMP,R6) (*,R7) (DWA,R12)
0Loc    Object Code    Addr1 Addr2  Stmt Lv Lineno    Source Statement           (Hibal 5, Asmedit 3.3)  HLASM R4.0  2004/03/22 09.46
+___    ______ ____    _____ _____  ____ __ ______    ______ _________
0                                  31351    3602.5             ¿þþþþþþþþþþþþþþþþþþþþþþþþþþþÜ
                                   31352    3602.6             Ÿ  Process EXEC parameters  Ÿ
                                   31353    3602.7             ¾þþþþþþþþþþþþþþþþþþþþþþþþþþþ»
0003FD4 5820 C048            00048 31355    3602.9             L     SR,PARMPTR          Get parm to scan
 003FD8 5820 2000            00000 31356    3603.              L     SR,@SR              Set address of parm header
 003FDC 4830 2000            00000 31357    3606.              LH    TR,@SR              Set exec parm length
 003FE0 4120 2002            00002 31358    3607.              LA    SR,@SR+2            Set address of parm string
 003FE4 1812/1803/41F0_            31359    3608.              SCINIT (SR),(TR),SCANCB   Initialize scanner
 003FF2 4110 655A/58E0_      00570 31381    3609.              SCAN  PARMKW,(R15)        Process parameters
 003FFC 4770 797A            045F4 31397    3610.              IF    NZ,PARMERR          Kill if bad parms given
0                                  31412    3611.01            ¿þþþþþþþþþþþþþþþþþþþþþþþþþþþþþþþþþþþþþþþÜ
                                   31413    3611.02            Ÿ  Bring in callable exit if requested  Ÿ
                                   31414    3611.03            ¾þþþþþþþþþþþþþþþþþþþþþþþþþþþþþþþþþþþþþþþ»
 004000 9180 C1C2/47E0_001C2       31415    3611.04            IF    XIT_Loaded,BEGIN    Try to load specified exit routine
 004008 4110 CA54/4100_      00A54 31430  1 3611.05              LOAD  EPLOC=XIT_Name,ERRET=LOADFAIL,SF=(E,LOADXIT)
 004024                            31442  1 3611.06   LOADFAIL   LABEL ,
 004024 12FF/4780 743C             31444  1 3611.07              IF    (R15,NZ),BEGIN      Unable to load exit
 00402A 182F                       31458  2 3611.08                LR    R2,R15              Save reason code from load
 00402C 1831                       31459  2 3611.09                LR    R3,R1               Save abend code returned from load
 00402E 4110 7CF0/4100_      0496A 31460  2 3611.1                 VSEG  'VDMP834E - Unable to load requested exit '
 00403C 4110 C2D0/4100_      002D0 31469  2 3611.11                VWRITE XIT_Name           Tell him the name, he should know
 004050 4100 0010/4110_      00010 31493  2 3611.12                VCNTL BLANK,11            Provide nifty spacing
 00405E 4110 7B70/4100_      047EA 31512  2 3611.13                VSEG  'Abend('            Report on the failure
 00406C 18F3/1B00/4110_            31521  2 3611.14                SEGHX 0,(R3)              Convert abend code into message
 004080 4110 7D19/4100_      04993 31560  2 3611.15                VSEG  ') Reason('         And add the reason code also
 00408E 18F2/1B00/4110_            31569  2 3611.16                SEGHX 0,(R2)              Convert reason code into message
 0040A2 4110 7D22/4100_      0499C 31608  2 3611.17                VWRITE ')'                Terminate and write error message
 0040B6 7440/47F0 754E 040B6 04028 31622  1 3611.18              END   ELSE,BEGIN          Report successfully loading exit
 0040BA 5000 C2D8            002D8 31637  2 3611.19                ST    R0,XIT_EP           Save entry point (and AMODE)
 0040BE 1820                       31638  2 3611.2                 LR    R2,R0               Move address of loaded routine
 0040C0 1831                       31639  2 3611.21                LR    R3,R1               Move AC and length of module
 0040C2 4110 7B76/4100_      047F0 31640  2 3611.22                VSEG  'VDMP835I - Requested exit '
 0040D0 4110 C2D0            002D0 31649  2 3611.23                LA    R1,XIT_NAME         Address of requested exit
 0040D4 4100 0008            00008 31650  2 3611.24                LA    R0,8                And maximum name length
 0040D8 4D90 616A            00180 31651  2 3611.25                LCALL RTRIM               Trim trailing blanks
 0040DC 5890 7AC2/0D99       0473C 31653  2 3611.26                VSEG  (R1),(R0)           Add exit point name
 0040E2 4110 7D23/4100_      0499D 31668  2 3611.27                VWRITE ' has been loaded.'
 0040F6 4100 0010/4110_      00010 31682  2 3611.28                VCNTL BLANK,11            Space over for alignment
 004104 4110 7B90/4100_      0480A 31701  2 3611.29                VSEG  'Loaded at '        Tell us where we loaded the exit
 004112 58F0 C2D8/4100_      002D8 31710  2 3611.3                 SEGHX 8,L:XIT_EP          Report the loaded entry point
 00412A 4110 7B0E/4100_      04788 31752  2 3611.31                VSEG  ' AC('
 004138 18F3                       31761  2 3611.32                LR    R15,R3              Copy to strip out APF code
 00413A 88F0 0018            00018 31762  2 3611.33                SRL   R15,24              Convert to number of bytes
 00413E 4100 0002/4110_      00002 31763  2 3611.34                SEGHX 2,(R15)             Report APF code and module length
 004152 4110 7D34/4100_      049AE 31804  2 3611.35                VSEG  ') Length(x'''      Terminate parend
 004160 5430 7B12            0478C 31813  2 3611.36                N     R3,=A(X'00FFFFFF')  Leave number of doublewords
 004164 8930 0003            00003 31814  2 3611.37                SLL   R3,3                Convert to number of bytes
 004168 18F3/1B00/4110_            31815  2 3611.38                SEGHX 0,(R3)              Convert into message
 00417C 4110 7B9A/4100_      04814 31854  2 3611.39                VSEG  ''')'               Terminate parend
 00418A 5890 7ACA/0D99       04744 31863  2 3611.4                 VWRITE ,                  Write out this silly message
 004190 9640 C1C2      001C2       31868  2 3611.41                SET   XIT_Active          Set callable exit active for use
 004194 5820 C2D8            002D8 31874  2 3611.42                L     R2,XIT_EP           Set entry point address of exit
1VDMP     (VDMP21) (09:46) (22MAR04) ORVYL's File System Dump Program: Initialization                                       Page  149
0Current Usings:  (DUMP,R6) (*,R7) (DWA,R12)
0Loc    Object Code    Addr1 Addr2  Stmt Lv Lineno    Source Statement           (Hibal 5, Asmedit 3.3)  HLASM R4.0  2004/03/22 09.46
+___    ______ ____    _____ _____  ____ __ ______    ______ _________
0004198 1812/4100 C2D0_            31875  2 3611.43                IDENTIFY EPLOC=XIT_Name,ENTRY=(R2)
 0041A0 12FF/4780 754E             31880  2 3611.44                IF    (R15,NZ),BEGIN      Unexpected return from IDENTIFY
 0041A6 4110 7D3F/4100_      049B9 31894  3 3611.45                  VSEG  'VDMP837W - Unexpected return from IDENTIFY macro '
 0041B4 4110 7B9C/4100_      04816 31903  3 3611.46                  VSEG  'for VDMP exit.'
 0041C2 5890 7ACA/0D99       04744 31912  3 3611.47                  VWRITE ,                  Complain and than ignore
 0041C8                            31917  2 3611.48                END   ,
 0041C8                            31921  1 3611.49              END   ,
 0041C8                            31925    3611.5             END   ,
0                                  31930    3611.52            ¿þþþþþþþþþþþþþþþþþþþþþþþþþþþþþþþþþþþþþþþþþþþþþþþþÜ
                                   31931    3611.53            Ÿ  Call global filedump exit routine if present  Ÿ
                                   31932    3611.54            ¾þþþþþþþþþþþþþþþþþþþþþþþþþþþþþþþþþþþþþþþþþþþþþþþþ»
 0041C8 9140 C1C2/47E0_001C2       31933    3611.55            IF    XIT_Active,BEGIN    Make initial entry to exit routine
 0041D0 58F0 C2D8/12FF       002D8 31948  1 3611.56              LT    R15,XIT_EP          Do we have an exit?
 0041D6 4780 7612            0428C 31952  1 3611.57              IF    NZ,BEGIN            Yes we do, call exit for processing
 0041DA 4110 C1CC            001CC 31963  2 3611.58                LA    R1,MAINXPRM         Address of main exit list
 USING  VDMPEXIT,R1                31964  2 3611.59                WITH  (VDMPEXIT,R1)       Addressability to list
 0041DE D747 1000 1000 00000 00000 31977  2 3611.6                 CLEAR VDMPEXIT            Clear list to binary zeros
 0041E4 D203 1000 7B16 00000 04790 31984  2 3611.61                MVC   VDMPXID,=CL4'VXIT'  Set parameter list identifier
 0041EA D203 1004 7B1A 00004 04794 31985  2 3611.62                MVC   VDMPXLEN,=A(L'VDMPEXIT) And total length of the list
 0041F0 D203 1008 7B1E 00008 04798 31986  2 3611.63                MVC   VDMPFNC,=A(VDMPF_INIT)  Set for exit intialization
 0041F6 0CEF                       31987  2 3611.64                BASSM R14,R15             Enter exit routine in proper amode
 0041F8 12FF/4780 7612             31988  2 3611.65                IF    (R15,NZ),BEGIN      Disable exit on non-zero return
 0041FE 90F0 D000/41D0_      00000 32002  3 3611.66                  XPUSH R15,R0              Save return/reason in stack
 004206 4110 7BAA/4100_      04824 32005  3 3611.67                  VSEG  'VDMP583I - Exit routine has been disabled.'
 004214 5890 7ACA/0D99       04744 32014  3 3611.68                  VWRITE ,                  Write to report file
 00421A 4BD0 7BD4/9823_      0484E 32019  3 3611.69                  XPOP  R2,R3               Pop off return/reason codes
 004222 4100 0010/4110_      00010 32022  3 3611.7                   VCNTL BLANK,11            Add spacing to the message
 004230 4110 7D70/4100_      049EA 32041  3 3611.71                  VSEG  'RETURN('           Report return code
 00423E 18F2/1B00/4110_            32050  3 3611.72                  SEGDC 0,(R2)              Add return code to message
 004252 4110 7D77/4100_      049F1 32089  3 3611.73                  VSEG  ') REASON('         Report the reaason code
 004260 18F3/1B00/4110_            32098  3 3611.74                  SEGDC 0,(R3)              Add reason code
 004274 4110 7D22/4100_      0499C 32137  3 3611.75                  VSEG  ')'                 Terminate message line
 004282 5890 7ACA/0D99       04744 32146  3 3611.76                  VWRITE ,                  Write second line of message
 004288 94BF C1C2      001C2       32151  3 3611.95                  CLEAR XIT_Active          Disable callable exit
 00428C                            32158  2 3611.96                END   ,
 DROP   VDMPEXIT,R1                32162  1 3611.97              END   ,
 00428C                            32171    3611.98            END   ,
-                                  32176    3612.     *
                                   32177    3613.     *  INITIALIZE FILEDUMP TRACE TABLE
                                   32178    3613.2    *        Well -- okay maybe when it's written.
                                   32179    3614.     *
000428C 18D8/9829 D000_            32181    3616.              VEXIT SR,RAR              Return to caller
1VDMP     (VDMP21) (09:46) (22MAR04) ORVYL's File System Dump Program: Initialization                                       Page  150
0Current Usings:  (DUMP,R6) (*,R7) (DWA,R12)
0Loc    Object Code    Addr1 Addr2  Stmt Lv Lineno    Source Statement           (Hibal 5, Asmedit 3.3)  HLASM R4.0  2004/03/22 09.46
+___    ______ ____    _____ _____  ____ __ ______    ______ _________
0                                  32187    3618.     ¿þþþþþþþþþþþþþþþþþþþþþþþþþþþþþþþþþþþþþþþþþþþþþþþþþþþþþþþþþþþþþþþþþþþþþÜ
                                   32188    3619.     Ÿ                                                                     Ÿ
                                   32189    3620.     Ÿ  Scanner exit routines for EXEC parameter keywords                  Ÿ
                                   32190    3621.     Ÿ                                                                     Ÿ
                                                      ¾þþþþþþþþþþþþþþþþþþþþþþþþþþþþþþþþþþþþþþþþþþþþþþþþþþþþþþþþþþþþþþþþþþþþþ»
-004294                            32192    3623.1    SETHSTN  LABEL ,                   Set history file system name
 004294 D207 C434 7A56 00434 046D0 32194    3623.2             MVC   SCERR,=CL8'NAME'    Set error keyword
 00429A 4780 7902            0457C 32195    3623.3             IF    Z,PMISS             Report on missing parameter
 00429E 4740 793E            045B8 32209    3623.4             IF    M,PINV              Report invalid parameter string
 0042A2 5900 7B22/4720_      0479C 32223    3623.41            IF    (R0,GT,8),PINV      Insure name will fit
 0042AA 1820                       32243    3623.7             LR    R2,R0               Copy length of file system name
 0042AC 0620/4420 7DC4_            32244    3623.8             DEX   R2,'MVC HSTFSNAM(*-*),@R1'    move in file system name
 0042B2 07FE                       32263    3623.81            SCRTN (R15)               Return to the scanner
00042B4                            32270    3624.     SETDGEN  LABEL ,                   Set history file dump generations
 0042B4 D207 C434 7A5E 00434 046D8 32272    3625.              MVC   SCERR,=CL8'GENS'      Set error keyword
 0042BA 4780 7902            0457C 32273    3626.              IF    Z,PMISS                 Report missing parameter
 0042BE 4740 793E            045B8 32287    3627.              IF    M,PINV                    Report invalid parameter
 0042C2 D203 C4E4 F000 004E4 00000 32301    3628.              MVC   HSTDGEN,@R15                Set generations maint'nd
 0042C8 07FE                       32302    3629.              SCRTN (R15)                         And return to scanner
00042CA                            32309    3631.     SETIGEN  LABEL ,                   Set history file inc generations
 0042CA D207 C434 7A66 00434 046E0 32311    3632.              MVC   SCERR,=CL8'IGENS'     Set error keyword
 0042D0 4780 7902            0457C 32312    3633.              IF    Z,PMISS                 Report missing parameter
 0042D4 4740 793E            045B8 32326    3634.              IF    M,PINV                    Report invalid parameter
 0042D8 D203 C4E8 F000 004E8 00000 32340    3635.              MVC   HSTIGEN,@R15                Set gens maintained
 0042DE 07FE                       32341    3636.              SCRTN (R15)                         And return to scanner
00042E0                            32348    3638.     SETTAPC  LABEL ,
 0042E0 9620 C1C0      001C0       32350    3639.              SET   FLTHIST             Set tape checking
 0042E4 07FE                       32356    3640.              SCRTN (R15)                 Return to the scanner
00042E6                            32363    3642.     NOTAPCHK LABEL ,
 0042E6 94DF C1C0      001C0       32365    3643.              CLEAR FLTHIST             Set no tape error checking
 0042EA 07FE                       32372    3644.              SCRTN (R15)                 Return to the scanner
00042EC                            32379    3646.     SETEG    LABEL ,
 0042EC D207 C434 7A6E 00434 046E8 32381    3647.              MVC   SCERR,=CL8'EGLIMIT' Set error keyword
 0042F2 4780 7902            0457C 32382    3648.              IF    Z,PMISS               Missing parameter error exit
 0042F6 9620 C1C0      001C0       32396    3649.              SET   FLTHIST                 Set tape error checking
 0042FA D203 C178 F000 00178 00000 32402    3650.              MVC   DTEGLMT,@R15              Set maximum erase gaps
 004300 07FE                       32403    3651.              SCRTN (R15)                       Return to the scanner
0004302                            32410    3652.1    PRMXIT   LABEL ,                   Remember callable exit name
 004302 D207 C434 7A76 00434 046F0 32412    3652.2             MVC   SCERR,=CL8'EXIT'    Set error keyword
 004308 47D0 7902            0457C 32413    3652.3             IF    NP,PMISS              Missing/invalid parameter exit
 00430C 5900 7B22/4720_      0479C 32427    3652.4             IF    (R0,GT,8),PMISS         String is too long
 004314 1820                       32447    3652.5             LR    R2,R0                     Copy length for move
 004316 0620/4420 7DCA_            32448    3652.6             DEX   R2,'MVC XIT_NAME(0),@R1'    Move in exit name
 00431C 9680 C1C2      001C2       32467    3652.7             SET   XIT_LOADED                    Set to load exit routine
 004320 07FE                       32473    3652.71            SCRTN (R15)                           Return to scanner
1VDMP     (VDMP21) (09:46) (22MAR04) ORVYL's File System Dump Program: Initialization                                       Page  151
0Current Usings:  (DUMP,R6) (*,R7) (DWA,R12)
0Loc    Object Code    Addr1 Addr2  Stmt Lv Lineno    Source Statement           (Hibal 5, Asmedit 3.3)  HLASM R4.0  2004/03/22 09.46
+___    ______ ____    _____ _____  ____ __ ______    ______ _________
0004322                            32480    3653.     SETTW    LABEL ,                   Set temporary write error limit
 004322 D207 C434 7A7E 00434 046F8 32482    3654.              MVC   SCERR,=CL8'TWLIMIT'   Set error keyword
 004328 4780 7902            0457C 32483    3655.              IF    Z,PMISS                 Missing parameter error exit
 00432C 9620 C1C0      001C0       32497    3656.              SET   FLTHIST                   Set tape error checking
 004330 D203 C174 F000 00174 00000 32503    3657.              MVC   DTTWLMT,@R15                Set maximum temporary write
 004336 07FE                       32504    3658.              SCRTN (R15)                         Return to the scanner
0004338                            32511    3660.     SETTASK  LABEL ,                   Set FILEDUMP multitasking level
 004338 D207 C434 7A86 00434 04700 32513    3661.              MVC   SCERR,=CL8'TASKLVL'   Set error keyword
 00433E 4780 7902            0457C 32514    3662.              IF    Z,PMISS                 Report missing keyword value
 004342 4740 793E            045B8 32528    3663.              IF    M,PINV                    Report invalid string
 004346 D503 7B26 C114_047A0 00114 32542    3663.01            IF    (TASKLVL,EQ,-1),BEGIN   Only if not already set
 004350 D203 C114 F000 00114 00000 32560  1 3663.02              MVC   TASKLVL,@R15            Set level from scanner block
 004356                            32561    3663.03            END   ,
 004356 D503 7B26 C118_047A0 00118 32565    3663.04            IF    (INCLVL,EQ,-1),BEGIN    And to INC Task is not set
 004360 D203 C118 F000 00118 00000 32583  1 3663.06              MVC   INCLVL,@R15             Set level from scanner block
 004366                            32584    3663.07            END   ,
 004366 D503 7B26 C11C_047A0 0011C 32588    3663.08            IF    (DMPLVL,EQ,-1),BEGIN    And to Dump Task is not set
 004370 D203 C11C F000 0011C 00000 32606  1 3663.1               MVC   DMPLVL,@R15             Set level from scanner block
 004376                            32607    3663.11            END   ,
 004376 07FE                       32611    3663.98            SCRTN (R15)                   Return to the scanner
1VDMP     (VDMP21) (09:46) (22MAR04) ORVYL's File System Dump Program: Initialization                                       Page  152
0Current Usings:  (DUMP,R6) (*,R7) (DWA,R12)
0Loc    Object Code    Addr1 Addr2  Stmt Lv Lineno    Source Statement           (Hibal 5, Asmedit 3.3)  HLASM R4.0  2004/03/22 09.46
+___    ______ ____    _____ _____  ____ __ ______    ______ _________
0                                  32619    3666.1    ********************************************************************
                                   32620    3666.2    *                                                                  *
                                   32621    3666.3    *  Scanner exit routines for EXEC parameter keywords (CONTINUED)   *
                                   32622    3666.4    *                                                                  *
                                   32623    3666.5    ********************************************************************
-004378                            32625    3667.     SETISZE  LABEL ,                   Set incremental track allocation
 004378 D207 C434 7A8E 00434 04708 32627    3668.              MVC   SCERR,=CL8'INCSIZE'   Set error keyword
 00437E 4780 7902            0457C 32628    3669.              IF    Z,PMISS                 Report missing keyword value
 004382 4740 793E            045B8 32642    3670.              IF    M,PINV                    Report invalid string
 004386 D203 C170 F000 00170 00000 32656    3671.              MVC   TRKALLO,@R15                Set allocation amount
 00438C 07FE                       32657    3672.              SCRTN (R15)                         Return to the scanner
000438E                            32664    3674.     SETTRC   LABEL ,                   Set trace table size
 00438E D207 C434 7A96 00434 04710 32666    3675.              MVC   SCERR,=CL8'TRACE'     Set error keyword
 004394 4780 7902            0457C 32667    3676.              IF    Z,PMISS                 Report missing keyword value
 004398 4740 793E            045B8 32681    3677.              IF    M,PINV                    Report invalid string
 00439C D203 C1BC F000 001BC 00000 32695    3678.              MVC   TRCSIZE,@R15                Set trace table size
 0043A2 07FE                       32696    3679.              SCRTN (R15)                         Return to the scanner
00043A4                            32703    3680.1    SETABORT LABEL ,                   Set test abort at end
 0043A4 9640 C1C8      001C8       32705    3680.2             SET   FLABEND             Set abort flag
 0043A8 07FE                       32711    3680.3             SCRTN (R15)               Return to the scanner
00043AA                            32718    3684.01   SETSECT  LABEL ,                   Set SECTOR OPTION
 0043AA 9680 C1C3      001C3       32720    3684.02            SET   FLSECT                SET SECTOR CHANNEL COMMANDS
 0043AE 07FE                       32726    3684.03            SCRTN (R15)                   And return to the scanner
00043B0                            32733    3684.05   SETNSECT LABEL ,                   Disable SET SECTOR channel cmds
 0043B0 947F C1C3      001C3       32735    3684.06            CLEAR FLSECT                Disable SET SECTOR commands
 0043B4 07FE                       32742    3684.07            SCRTN (R15)                   And return to the scanner
00043B6                            32749    3684.09   SETECKD  LABEL ,                   Enable to Extended CKD CCW's
 0043B6 9640 C1C3      001C3       32751    3684.1             SET   FLECKD                Set flags for ECKD CCW's
 0043BA 07FE                       32757    3684.11            SCRTN (R15)
00043BC                            32764    3684.13   SETRANY  LABEL ,                   Enable for ESCON read any CCW's
 0043BC 9610 C1C3      001C3       32766    3684.14            SET   FLRANY                Set flags for read any CCW's
 0043C0 07FE                       32772    3684.15            SCRTN (R15)                   Return to the scanner
00043C2                            32779    3684.17   SETPSTG  LABEL ,                   Set for cache sequential prestage
 0043C2 9608 C1C3      001C3       32781    3684.18            SET   FLPSTAGE              Set flags for sequential pre.
 0043C6 07FE                       32787    3684.19            SCRTN (R15)                   Return to the scanner
00043C8                            32794    3684.21   SETCYL   LABEL ,                   Enable to full cylinder reads
 0043C8 9620 C1C3      001C3       32796    3684.22            SET   FLCYL                 Set flag for cylinder read
 0043CC 07FE                       32802    3684.23            SCRTN (R15)                   Return to the scanner
00043CE                            32809    3684.25   SETDLY   LABEL ,
 0043CE 9610 C1C1      001C1       32811    3684.26            SET   FLDAILY             Set daily incremental merge
 0043D2 07FE                       32817    3684.27            SCRTN (R15)                 Return to the scanner
00043D4                            32824    3684.29   SETNDLY  LABEL ,
1VDMP     (VDMP21) (09:46) (22MAR04) ORVYL's File System Dump Program: Initialization                                       Page  153
0Current Usings:  (DUMP,R6) (*,R7) (DWA,R12)
0Loc    Object Code    Addr1 Addr2  Stmt Lv Lineno    Source Statement           (Hibal 5, Asmedit 3.3)  HLASM R4.0  2004/03/22 09.46
+___    ______ ____    _____ _____  ____ __ ______    ______ _________
00043D4 94EF C1C1      001C1       32826    3684.3             CLEAR FLDAILY             Clear daily incremental merge
 0043D8 07FE                       32833    3684.31            SCRTN (R15)                 And return to the scanner
00043DA                            32840    3684.33   SETFLBCV LABEL ,                   Set to dump from EMC BCV volumes
 0043DA 9680 C1C1      001C1       32842    3684.34            SET   FL_BCV                Set flag for EMC BCV volumes
 0043DE 07FE                       32848    3684.35            SCRTN (R15)                   And return to the scanner
 0043E0                            32854    3690.     SETLST   LABEL ,                   List history file information
 0043E0 9220 C1C6      001C6       32856    3691.              SET   (FNCLHST,EQ)          Set list function flag
 0043E4 9208 C113      00113       32863    3692.              MVI   FNCVECT+3,8             Set function vector
 0043E8 07FE                       32864    3693.              SCRTN (R15)                     Return to the scanner
00043EA                            32871    3695.     SETFMT   LABEL ,                   Format history file information
 0043EA 9210 C1C6      001C6       32873    3696.              SET   (FNCFHST,EQ)          Set format function flag
 0043EE 920C C113      00113       32880    3697.              MVI   FNCVECT+3,12            Set function vector
 0043F2 5810 7B2A            047A4 32881    3698.              L     R1,=A(FKWRT)              Address of new routing table
 0043F6 47F0 E004            00004 32882    3699.              SCRTN (R15),KWRT=(R1)             Return to the scanner
1VDMP     (VDMP21) (09:46) (22MAR04) ORVYL's File System Dump Program: Initialization                                       Page  154
0Current Usings:  (DUMP,R6) (*,R7) (DWA,R12)
0Loc    Object Code    Addr1 Addr2  Stmt Lv Lineno    Source Statement           (Hibal 5, Asmedit 3.3)  HLASM R4.0  2004/03/22 09.46
+___    ______ ____    _____ _____  ____ __ ______    ______ _________
0                                  32893    3700.1    ********************************************************************
                                   32894    3700.2    *                                                                  *
                                   32895    3700.3    *  Scanner exit routines for EXEC parameter keywords (CONTINUED)   *
                                   32896    3700.4    *                                                                  *
                                   32897    3700.5    ********************************************************************
-0043FA                            32899    3701.     SETOFFL  LABEL ,                   Offload incremental data
 0043FA 9208 C1C6      001C6       32901    3702.              SET   (FNCOFFL,EQ)          Set offload function
 0043FE 9210 C113      00113       32908    3703.              MVI   FNCVECT+3,16            Set function vector
 004402 07FE                       32909    3704.              SCRTN (R15)                     Return to the scanner
0004404                            32916    3705.1    SETCLN   LABEL                     Data set cleanup function
 004404 9202 C1C6      001C6       32918    3705.2             SET   (FNCCLN,EQ)           Set cleanup function
 004408 9214 C113      00113       32925    3705.3             MVI   FNCVECT+3,20            Set function vector
 00440C 07FE                       32926    3705.4             SCRTN (R15)                     Return to the scanner
000440E                            32933    3706.     SETINC   LABEL ,                   Incremental dump function
 00440E 9240 C1C6      001C6       32935    3707.              SET   (FNCINC,EQ)           Set incremental dump flag
 004412 9200 C113      00113       32942    3708.              MVI   FNCVECT+3,0             Set function vector
 004416 07FE                       32943    3709.              SCRTN (R15)                     Return to the scanner
0004418                            32950    3711.     SETFUL   LABEL ,                   Full dump function with verify
 004418 9670 C1CA      001CA       32952    3724.              SET   STRTREQ+STRTCAT+STRTVER  SET SPECIFAL STARTS REQUIRED
 00441C 9284 C1C6      001C6       32965    3725.              SET   (FNCDMP+FNCFULL,EQ)   Set dump with verify optioin
 004420 9200 C113      00113       32975    3726.              MVI   FNCVECT+3,0             Set function vector
 004424 07FE                       32976    3727.              SCRTN (R15)                     Return to the scanner
0004426                            32983    3729.     SETDMP   LABEL ,                   Full dump function
 004426 9280 C1C6      001C6       32985    3730.              SET   (FNCDMP,EQ)           Set dump function
 00442A 9200 C113      00113       32992    3731.              MVI   FNCVECT+3,0             Set function vector
 00442E 07FE                       32993    3732.              SCRTN (R15)                     Return to the scanner
0004430                            33000    3734.     SETDATE  LABEL ,                   Incremental dump date
 004430 D207 C434 7A9E 00434 04718 33002    3735.              MVC   SCERR,=CL8'DATE'      Current keyword
 004436 4780 7902            0457C 33003    3736.              IF    Z,PMISS                 Missing keyword parameter
 00443A 47D0 797A            045F4 33017    3737.              IF    NP,PARMERR                Exit on parameter error
 00443E 5900 7AEE/4770_      04768 33031    3738.              IF    (R0,NE,6),PARMERR           Must be YY.DDD
 004446 954B 1002/4770_00002       33051    3739.              IF    (@R1+2,NE,'.'),PARMERR        Check for the period
 00444E 9240 C1C6      001C6       33070    3740.              SET   (FNCINC,EQ)         Set incremental dump function
 004452 9200 C113      00113       33077    3741.              MVI   FNCVECT+3,0           Set function vector
 004456 F271 C010 1000 00010 00000 33078    3742.              PACK  CLWTEMP(8),@R1(2)       Convert year to packed
 00445C 4F30 C010            00010 33079    3743.              CVB   TR,CLWTEMP                Convert to binary
 004460 5030 C010            00010 33080    3744.              ST    TR,CLWTEMP          SAVE TEMPORARILY
 004464 5C20 7B2E            047A8 33081    3745.              M     SR,=A(36525)                Convert year to days
 004468 5D20 7AFA            04774 33082    3746.              D     SR,=A(100)                    And get leap days also
 00446C 9103 C013      00013       33083    3747.              TM    CLWTEMP+3,X'03'     TEST FOR LEAP YEAR ADJUSTMENT
 004470 4770 77FE            04478 33084    3748.              IF    Z,BEGIN               ADJUST FOR CURRENT LEAP YEAR
 004474 5F30 7AE2            0475C 33095  1 3749.                SL    TR,=A(1)                DAY ALREADY TAKEN INTO ACCOUNT
 004478                            33096    3750.              END   ,
 004478 F272 C010 1003 00010 00003 33100    3751.              PACK  CLWTEMP(8),@R1+3(3) Convert days to packed
 00447E 4F20 C010            00010 33101    3752.              CVB   SR,CLWTEMP            Days to binary
 004482 1A32                       33102    3753.              AR    TR,SR                   Days since 1900
 004484 5030 C154            00154 33103    3754.              ST    TR,INCDAYS                Save value
1VDMP     (VDMP21) (09:46) (22MAR04) ORVYL's File System Dump Program: Initialization                                       Page  155
0Current Usings:  (DUMP,R6) (*,R7) (DWA,R12)
0Loc    Object Code    Addr1 Addr2  Stmt Lv Lineno    Source Statement           (Hibal 5, Asmedit 3.3)  HLASM R4.0  2004/03/22 09.46
+___    ______ ____    _____ _____  ____ __ ______    ______ _________
0004488 07FE                       33104    3755.              SCRTN (R15)               Return to the scanner
1VDMP     (VDMP21) (09:46) (22MAR04) ORVYL's File System Dump Program: Initialization                                       Page  156
0Current Usings:  (DUMP,R6) (*,R7) (DWA,R12)
0Loc    Object Code    Addr1 Addr2  Stmt Lv Lineno    Source Statement           (Hibal 5, Asmedit 3.3)  HLASM R4.0  2004/03/22 09.46
+___    ______ ____    _____ _____  ____ __ ______    ______ _________
0                                  33111    3756.1    ********************************************************************
                                   33112    3756.2    *                                                                  *
                                   33113    3756.3    *  Scanner exit routines for EXEC parameter keywords (CONTINUED)   *
                                   33114    3756.4    *                                                                  *
                                   33115    3756.5    ********************************************************************
-00448A                            33117    3757.     SETTIME  LABEL ,
 00448A D207 C434 7AA6 00434 04720 33119    3758.              MVC   SCERR,=CL8'TIME'    Set current keyword value
 004490 4780 7902            0457C 33120    3759.              IF    Z,PMISS               Missing keyword parameter
 004494 47D0 797A            045F4 33134    3760.              IF    NP,PARMERR              Exit on parameter error
 004498 5900 7B22/4770_      0479C 33148    3761.              IF    (R0,NE,8),PARMERR         Must be "HH.MM.SS"
 0044A0 954B 1002/4770_00002       33168    3762.              IF    (@R1+2,NE,'.'),PARMERR      Exit on parameter error
 0044A8 954B 1005/4770_00005       33187    3763.              IF    (@R1+5,NE,'.'),PARMERR        Exit on parameter error
 0044B0 9240 C1C6      001C6       33206    3764.              SET   (FNCINC,EQ)         Set incremental dump function
 0044B4 9200 C113      00113       33213    3765.              MVI   FNCVECT+3,0           Set function vector
 0044B8 F271 C010 1000 00010 00000 33214    3766.              PACK  CLWTEMP(8),@R1(2)       Convert hours value
 0044BE 4F30 C010            00010 33215    3767.              CVB   TR,CLWTEMP                To minutes
 0044C2 5C20 7B32            047AC 33216    3768.              M     SR,=A(60)
 0044C6 F271 C010 1003 00010 00003 33217    3769.              PACK  CLWTEMP(8),@R1+3(2) Convert minutes
 0044CC 4F20 C010            00010 33218    3770.              CVB   SR,CLWTEMP            To binary
 0044D0 1A32                       33219    3771.              AR    TR,SR                   Add for total minutes
 0044D2 5C20 7B32            047AC 33220    3772.              M     SR,=A(60)                 Convert to seconds
 0044D6 F271 C010 1006 00010 00006 33221    3773.              PACK  CLWTEMP(8),@R1+6(2) Convert seconds
 0044DC 4F20 C010            00010 33222    3774.              CVB   SR,CLWTEMP            To binary and
 0044E0 1A32                       33223    3775.              AR    TR,SR                   Create seconds past midnight
 0044E2 5030 C158            00158 33224    3776.              ST    TR,INCSEC                 Save for TOD conversion
 0044E6 07FE                       33225    3777.              SCRTN (R15)               Return to the scanner
1VDMP     (VDMP21) (09:46) (22MAR04) ORVYL's File System Dump Program: Initialization                                       Page  157
0Current Usings:  (DUMP,R6) (*,R7) (DWA,R12)
0Loc    Object Code    Addr1 Addr2  Stmt Lv Lineno    Source Statement           (Hibal 5, Asmedit 3.3)  HLASM R4.0  2004/03/22 09.46
+___    ______ ____    _____ _____  ____ __ ______    ______ _________
0                                  33232    3778.1    ********************************************************************
                                   33233    3778.2    *                                                                  *
                                   33234    3778.3    *  Scanner exit routines for EXEC parameter keywords (CONTINUED)   *
                                   33235    3778.4    *                                                                  *
                                   33236    3778.5    ********************************************************************
-0044E8                            33238    3779.     PRMSEG   LABEL ,
 0044E8 D207 C434 7AAE 00434 04728 33240    3780.              MVC   SCERR,=CL8'SEGMENT' Set keyword value
 0044EE 4780 7902            0457C 33241    3781.              IF    Z,PMISS             Missing parameter value
 0044F2 47D0 797A            045F4 33255    3782.              IF    NP,PARMERR            Exit on bad parameter
 0044F6 5820 F000            00000 33269    3783.              L     SR,@R15                 Get segment value
 0044FA 4E20 C010            00010 33270    3784.              CVD   SR,WORK                   Convert to packed
 0044FE F321 D000 C016 00000 00016 33271    3785.              UNPK  @R13(3),WORK+6(2)   Last three digits
 004504 D201 C214 D001 00214 00001 33272    3786.              MVC   SEGMENT,@R13+1        Move in last two digits
 00450A 96F0 C215      00215       33273    3787.              OI    SEGMENT+1,X'F0'         Fixup sign
 00450E 07FE                       33274    3788.              SCRTN (R15)               Return to the scanner
0004510                            33281    3790.     PRMNFEOV LABEL ,
 004510 94BF C1C0      001C0       33283    3790.1             CLEAR FLFEOV              Don't force end of volume
 004514 07FE                       33290    3791.              SCRTN (R15)               Return to the scanner
0004516                            33297    3793.     PRMFEOV  LABEL ,
 004516 4780 7896            04510 33299    3793.1             IF    Z,PRMNFEOV          Assume he meant to say no
 00451A D501 7BD6 1000_04850 00000 33313    3794.              IF    ((@R1,EQ,'NO'),AND,(R0,EQ,2)),PRMNFEOV
 00452C D502 7D80 1000_049FA 00000 33348    3795.              IF    ((@R1,EQ,'YES'),AND,(R0,EQ,3)),BEGIN  FEOV=YES
 00453E F874 C17C 7CE4 0017C 0495E 33380  1 3796.                ZAP   DTFEOVC,=P'160000000'   Set default FEOV byte count
 004544 9640 C1C0      001C0       33381  1 3797.                SET   FLFEOV              Set force EOV flag
 004548 07FE                       33387  1 3798.                SCRTN (R15)               Return to the scanner
 00454A                            33393    3799.              END  ,
 00454A 90EF D000/41D0_      00000 33397    3800.              VPUSH R14,R15,*           Save return, SCANCB registers
 004552 58E0 7B36/0DEE       047B0 33400    3801.              XCALL DTB                 Try to convert
 004558 1200/4770 797A             33404    3802.              IF   (R0,NZ),PARMERR      Blew it, abort run
 00455E 59F0 7B3A/4720_      047B4 33421    3803.              IF   (R15,GT,1000),PARMERR   Too big (a Gigabyte?)
 004566 5CE0 7B3E            047B8 33441    3804.              M     R14,=F'1000000'     Convert value to bytes
 00456A 4EF0 C17C            0017C 33442    3805.              CVD   R15,DTFEOVC         Set FEOV limit
 00456E 9640 C1C0      001C0       33443    3806.              SET   FLFEOV              Set force EOV flag
 004572 4BD0 7BD8/98EF_      04852 33449    3807.              VPOP  R14,R15,*           Restore registers for scanner
 00457A 07FE                       33452    3808.              SCRTN (R15)               Return to the scanner
1VDMP     (VDMP21) (09:46) (22MAR04) ORVYL's File System Dump Program: Initialization                                       Page  158
0Current Usings:  (DUMP,R6) (*,R7) (DWA,R12)
0Loc    Object Code    Addr1 Addr2  Stmt Lv Lineno    Source Statement           (Hibal 5, Asmedit 3.3)  HLASM R4.0  2004/03/22 09.46
+___    ______ ____    _____ _____  ____ __ ______    ______ _________
0                                  33459    3810.     ********************************************************************
                                   33460    3811.     *                                                                  *
                                   33461    3812.     *  Error messages for scanner problems                             *
                                   33462    3813.     *                                                                  *
                                   33463    3814.     ********************************************************************
000457C                            33465    3816.     PMISS    LABEL ,                   Error exit for missing parameter
 00457C 4110 7BDA/4100_      04854 33467    3817.              VSEG  'VDMP010E - Missing parameter for "'
 00458A 4110 C434            00434 33476    3818.              LA    R1,SCERR            Address of current keyword
 00458E 4100 0008            00008 33477    3819.              LA    R0,8                Maximum length of a keyword
 004592 4D90 616A            00180 33478    3820.              LCALL RTRIM               Trim trailing blanks for keyword
 004596 5890 7AC2/0D99       0473C 33480    3821.              VSEG  (R1),(R0)           Add to message
 00459C 4110 7BFC/4100_      04876 33495    3822.              VSEG  '" keyword.'        Add final message
 0045AA 5890 7ACA/0D99       04744 33504    3823.              VWRITE ,                  Output error message line
 0045B0 920C C05B      0005B       33509    3824.              MVI   RETCODE+3,EXE_PRM   Set bad return code
 0045B4 47F0 60DA            000F0 33510    3825.              B     DUMPEXIT            And exit the dump program please
00045B8                            33512    3827.     PINV     LABEL ,                   Invalid parameter
 0045B8 9001 C010            00010 33514    3828.              STM   R0,R1,CLWTEMP       Save pointers to keyword
 0045BC 4110 7C06/4100_      04880 33515    3829.              VSEG  'VDMP015E - Invalid keyword in EXEC field "'
 0045CA 9801 C010            00010 33524    3830.              LM    R0,R1,CLWTEMP       Restore pointer to keyword
 0045CE 4D90 616A            00180 33525    3831.              LCALL RTRIM               Strip trailing blanks
 0045D2 5890 7AC2/0D99       0473C 33527    3832.              VSEG  (R1),(R0)           Add to message
 0045D8 4110 7D83/4100_      049FD 33542    3833.              VSEG  '"'                 Add closing quote
 0045E6 5890 7ACA/0D99       04744 33551    3834.              VWRITE ,                  Write to report file
 0045EC 920C C05B      0005B       33556    3835.              MVI   RETCODE+3,EXE_PRM   Set bad return code
 0045F0 47F0 60DA            000F0 33557    3836.              B     DUMPEXIT            And return to oz
1VDMP     (VDMP21) (09:46) (22MAR04) ORVYL's File System Dump Program: Initialization                                       Page  159
0Current Usings:  (DUMP,R6) (*,R7) (DWA,R12)
0Loc    Object Code    Addr1 Addr2  Stmt Lv Lineno    Source Statement           (Hibal 5, Asmedit 3.3)  HLASM R4.0  2004/03/22 09.46
+___    ______ ____    _____ _____  ____ __ ______    ______ _________
0                                  33559    3838.     ********************************************************************
                                   33560    3839.     *                                                                  *
                                   33561    3840.     *  Miscelleanous scanner error messages                            *
                                   33562    3841.     *                                                                  *
                                   33563    3842.     ********************************************************************
00045F4                            33565    3844.     PARMERR  LABEL ,
 0045F4 4110 7D84/4100_      049FE 33567    3845.              VSEG  'VDMP035E - Parameter error in EXEC parm field'
 004602 5890 7ACA/0D99       04744 33576    3846.              VWRITE ,                  Write to report file
 004608 920C C05B      0005B       33581    3847.              MVI   RETCODE+3,EXE_PRM   Set return code
 00460C 47F0 60DA            000F0 33582    3848.              B     DUMPEXIT            And return empty handed
0004610                            33584    3850.     NOCORE   LABEL ,
 004610 4110 7C30/4100_      048AA 33586    3851.              VSEG  'Insufficient memory to initialize.'
 00461E 4110 7DB1/4100_      04A2B 33595    3852.              VSEG  ' dynamic allocation'
 00462C 4100 0000/1B11_      00000 33604    3853.              VCNTL WTO                 Issue error message
 004638 9220 C05B      0005B       33620    3854.              MVI   RETCODE+3,NO_MEM    Set no memory return code
 00463C 47F0 60DA            000F0 33621    3855.              B     DUMPEXIT            And return to system
0004640                            33623    3857.     MISSING  LABEL ,
 004640 4110 7C52/4100_      048CC 33625    3858.              VSEG  'VDMP037E - Missing keyword operand'
 00464E 5890 7ACA/0D99       04744 33634    3859.              VWRITE ,                  Add to report file
 004654 920C C05B      0005B       33639    3860.              MVI   RETCODE+3,EXE_PRM   Set return code
 004658 47F0 60DA            000F0 33640    3861.              B     DUMPEXIT            And return to system
1VDMP     (VDMP21) (09:46) (22MAR04) ORVYL's File System Dump Program: Initialization                                       Page  160
0Current Usings:  (DUMP,R6) (*,R7) (DWA,R12)
0Loc    Object Code    Addr1 Addr2  Stmt Lv Lineno    Source Statement           (Hibal 5, Asmedit 3.3)  HLASM R4.0  2004/03/22 09.46
+___    ______ ____    _____ _____  ____ __ ______    ______ _________
0004660                            33642    3863.              LTORG ,
 004660 E2E8E2D7D9E34040           33644                             =CL8'SYSPRT'
 004668 C689938584A49497           33645                             =C'Filedump'
 004670 E58599A28996957E           33646                             =C'Version='
 004678 E5C4D4D7F1F1F9E6           33647                             =C'VDMP119W - Unable to establish ESTAE environment'
 0046A8 E2E8E2E4C4E4D4D7           33648                             =CL8'SYSUDUMP'
 0046B0 E2E8E2D4C4E4D4D7           33649                             =CL8'SYSMDUMP'
 0046B8 E2E8E2C1C2C5D5C4           33650                             =CL8'SYSABEND'
 0046C0 E3C1D7C540404040           33651                             =CL8'TAPE'
 0046C8 4040404040404040           33652                             =CL8' '
 0046D0 D5C1D4C540404040           33653                             =CL8'NAME'
 0046D8 C7C5D5E240404040           33654                             =CL8'GENS'
 0046E0 C9C7C5D5E2404040           33655                             =CL8'IGENS'
 0046E8 C5C7D3C9D4C9E340           33656                             =CL8'EGLIMIT'
 0046F0 C5E7C9E340404040           33657                             =CL8'EXIT'
 0046F8 E3E6D3C9D4C9E340           33658                             =CL8'TWLIMIT'
 004700 E3C1E2D2D3E5D340           33659                             =CL8'TASKLVL'
 004708 C9D5C3E2C9E9C540           33660                             =CL8'INCSIZE'
 004710 E3D9C1C3C5404040           33661                             =CL8'TRACE'
 004718 C4C1E3C540404040           33662                             =CL8'DATE'
 004720 E3C9D4C540404040           33663                             =CL8'TIME'
 004728 E2C5C7D4C5D5E340           33664                             =CL8'SEGMENT'
 004730 00001F42                   33665                             =A(FINDDD)
 004734 00000000                   33666                             =V(VIDCINIT)
 004738 00000000                   33667                             =V(VCNTRL)
 00473C 00000000                   33668                             =V(VSEG)
 004740 00000000                   33669                             =A(VDMP)
 004744 00000000                   33670                             =V(VWRITE)
 004748 00000000                   33671                             =V(DAYF)
 00474C 00000000                   33672                             =V(TIME)
 004750 00000674                   33673                             =A(RECROUT)
 004754 00000000                   33674                             =V(BTD)
 004758 00000543                   33675                             =A(VSECT)
 00475C 00000001                   33676                             =A(1)
 004760 00000003                   33677                             =A(3)
 004764 00000002                   33678                             =A(2)
 004768 00000006                   33679                             =A(6)
 00476C 0000000B                   33680                             =A(11)
 004770 FFFFFFFF                   33681                             =A(-1)
 004774 00000064                   33682                             =A(100)
 004778 C4E4D4D7                   33683                             =C'DUMP'
 00477C 00000000                   33684                             =V(SCINIT)
 004780 00000000                   33685                             =V(SCAN)
 004784 00000000                   33686                             =V(BTX)
 004788 40C1C34D                   33687                             =C' AC('
 00478C 00FFFFFF                   33688                             =A(X'00FFFFFF')
 004790 E5E7C9E3                   33689                             =CL4'VXIT'
 004794 00000048                   33690                             =A(L'VDMPEXIT)
 004798 00000000                   33691                             =A(VDMPF_INIT)
 00479C 00000008                   33692                             =A(8)
 0047A0 FFFFFFFF                   33693                             =AL4(-1)
 0047A4 00000657                   33694                             =A(FKWRT)
 0047A8 00008EAD                   33695                             =A(36525)
 0047AC 0000003C                   33696                             =A(60)
1VDMP     (VDMP21) (09:46) (22MAR04) ORVYL's File System Dump Program: Initialization                                       Page  161
0Current Usings:  (DUMP,R6) (*,R7) (DWA,R12)
0Loc    Object Code    Addr1 Addr2  Stmt Lv Lineno    Source Statement           (Hibal 5, Asmedit 3.3)  HLASM R4.0  2004/03/22 09.46
+___    ______ ____    _____ _____  ____ __ ______    ______ _________
00047B0 00000000                   33697                             =V(DTB)
 0047B4 000003E8                   33698                             =A(1000)
 0047B8 000F4240                   33699                             =F'1000000'
 0047BC 4040                       33700                             =C'  '
 0047BE 4C7E                       33701                             =C'<='
 0047C0 E5C4D4D7F0F2F1E6           33702                             =C'VDMP021W - Unable to allocate SYSUDUMP DD.'
 0047EA C1828595844D               33703                             =C'Abend('
 0047F0 E5C4D4D7F8F3F5C9           33704                             =C'VDMP835I - Requested exit '
 00480A D396818485844081           33705                             =C'Loaded at '
 004814 7D5D                       33706                             =C''')'
 004816 86969940E5C4D4D7           33707                             =C'for VDMP exit.'
 004824 E5C4D4D7F5F8F3C9           33708                             =C'VDMP583I - Exit routine has been disabled.'
 00484E 0008                       33709                             =Y((R3+1-(R2)+16*((R2)/(R3+1))/((R2)/(R3+1)))*4)
 004850 D5D6                       33710                             =C'NO'
 004852 0008                       33711                             =Y((R15+1-(R14)+16*((R14)/(R15+1))/((R14)/(R15+1)))*4)
 004854 E5C4D4D7F0F1F0C5           33712                             =C'VDMP010E - Missing parameter for "'
 004876 7F409285A8A69699           33713                             =C'" keyword.'
 004880 E5C4D4D7F0F1F5C5           33714                             =C'VDMP015E - Invalid keyword in EXEC field "'
 0048AA C995A2A486868983           33715                             =C'Insufficient memory to initialize.'
 0048CC E5C4D4D7F0F3F7C5           33716                             =C'VDMP037E - Missing keyword operand'
 0048EE 404040405C5C5CD6           33717                             =C'    ***ORVYL File Dump Program***    '
 004913 E5C4D4D7F0F0F5C9           33718                             =C'VDMP005I - Input parms =>'
 00492C 6B40D985A3A49995           33719                             =C', Return='
 004935 E5C4D4D7F1F2F1C9           33720                             =C'VDMP121I - ESTAE Environment established.'
 00495E 160000000C                 33721                             =P'160000000'
 004963 C9E7D9C4E4D4D7             33722                             =C'IXRDUMP'
 00496A E5C4D4D7F8F3F4C5           33723                             =C'VDMP834E - Unable to load requested exit '
 004993 5D40D98581A29695           33724                             =C') Reason('
 00499C 5D                         33725                             =C')'
 00499D 408881A240828585           33726                             =C' has been loaded.'
 0049AE 5D40D3859587A388           33727                             =C') Length(x'''
 0049B9 E5C4D4D7F8F3F7E6           33728                             =C'VDMP837W - Unexpected return from IDENTIFY macro '
 0049EA D9C5E3E4D9D54D             33729                             =C'RETURN('
 0049F1 5D40D9C5C1E2D6D5           33730                             =C') REASON('
 0049FA E8C5E2                     33731                             =C'YES'
 0049FD 7F                         33732                             =C'"'
 0049FE E5C4D4D7F0F3F5C5           33733                             =C'VDMP035E - Parameter error in EXEC parm field'
 004A2B 4084A89581948983           33734                             =C' dynamic allocation'
1VDMP     (VDMP21) (09:46) (22MAR04) ORVYL's File System Dump Program: Initialization                                       Page  162
0Current Usings:  (DUMP,R6) (*,R7) (DWA,R12)
0Loc    Object Code    Addr1 Addr2  Stmt Lv Lineno    Source Statement           (Hibal 5, Asmedit 3.3)  HLASM R4.0  2004/03/22 09.46
+___    ______ ____    _____ _____  ____ __ ______    ______ _________
0                                  33739    3863.02   ********************************************************************
                                   33740    3863.03   *                                                                  *
                                   33741    3863.04   *  ASK OPERATOR TO EITHER REDUCE THE TASKING LEVEL OR              *
                                   33742    3863.05   *  RETRY WHEN DEVICES BECOME AVAILABLE                             *
                                   33743    3863.06   *                                                                  *
                                   33744    3863.07   ********************************************************************
0000000                00000 00138 33746    3863.09   ASKDATA  RECORD BEGIN              DEFINE DATA AREA
 000000 00000000                   33754  1 3863.1    ASKDOM     DC    A(0)                MESSAGE ID FOR DOM MACRO
 000004 D9C5E3D9E8                 33755  1 3863.11   ASKREP     DC    C'RETRY'            RESPONSE AREA
                                   33758  1 3863.14 C ASKW1      WTO   ('VDMP823I - THERE ARE ONLY XX TAPE DRIVES',D),
                                          1 3863.15 C                  ('           AVAILABLE TO FILEDUMP WHICH',D),
                                          1 3863.16 C                  ('           REQUIRES XX.',D),
                                          1 3863.17 C                  ('           PLEASE RESPOND "GO" TO USE THE',D),
                                          1 3863.18 C                  ('           REDUCED LEVEL OR "RETRY" WHEN THE',D),
                                          1 3863.19 C                  ('           DRIVES BECOME AVAILABLE',DE),
                                          1 3863.2                     ROUTCDE=(2,3),DESC=(2),MF=L
 00000C                            33759  1 01-WTO   +ASKW1      DS    0F
 00000C 002C                       33760  1 01-WTO   +           DC    AL2(44)                  TEXT LENGTH            @YA17152
 00000E 8040                       33761  1 01-WTO   +           DC    B'1000000001000000'      MCSFLAGS
 000010 E5C4D4D7F8F2F3C9           33762  1 01-WTO  C+           DC    C'VDMP823I - THERE ARE ONLY XX TAPE DRIVES'
 000018 406040E3C8C5D9C5                  1          +                                          MESSAGE TEXT               @L6C
 000038 4000                       33763  1 01-WTO   +           DC    B'0100000000000000'      DESCRIPTOR CODES
 00003A 6000                       33764  1 01-WTO   +           DC    B'0110000000000000'      ROUTING CODES
 00003C 2000                       33765  1 01-WTO   +           DC    XL2'2000'                LINE TYPE
 00003E 00                         33766  1 01-WTO   +           DC    X'00'                    AREA ID
 00003F 06                         33767  1 01-WTO   +           DC    AL1(6)                   TOTAL NUMBER OF LINES    X02007
 000040 002A                       33768  1 01-WTO   +           DC    AL2(42)                  MESSAGE LENGTH         @YA17152
 000042 2000                       33769  1 01-WTO   +           DC    XL2'2000'                LINE TYPE
 000044 4040404040404040           33770  1 01-WTO  C+           DC    C'           AVAILABLE TO FILEDUMP WHICH'
 00004C 404040C1E5C1C9D3                  1          +                                          MESSAGE TEXT               @L6C
 00006A 001B                       33771  1 01-WTO   +           DC    AL2(27)                  MESSAGE LENGTH         @YA17152
 00006C 2000                       33772  1 01-WTO   +           DC    XL2'2000'                LINE TYPE
 00006E 4040404040404040           33773  1 01-WTO  C+           DC    C'           REQUIRES XX.'
 000076 404040D9C5D8E4C9                  1          +                                          MESSAGE TEXT               @L6C
 000085 002D                       33774  1 01-WTO   +           DC    AL2(45)                  MESSAGE LENGTH         @YA17152
 000087 2000                       33775  1 01-WTO   +           DC    XL2'2000'                LINE TYPE
 000089 4040404040404040           33776  1 01-WTO  C+           DC    C'           PLEASE RESPOND "GO" TO USE THE'
 000091 404040D7D3C5C1E2                  1          +                                          MESSAGE TEXT               @L6C
 0000B2 0030                       33777  1 01-WTO   +           DC    AL2(48)                  MESSAGE LENGTH         @YA17152
 0000B4 2000                       33778  1 01-WTO   +           DC    XL2'2000'                LINE TYPE
 0000B6 4040404040404040           33779  1 01-WTO  C+           DC    C'           REDUCED LEVEL OR "RETRY" WHEN THE'
 0000BE 404040D9C5C4E4C3                  1          +                                          MESSAGE TEXT               @L6C
 0000E2 0026                       33780  1 01-WTO   +           DC    AL2(38)                  MESSAGE LENGTH         @YA17152
 0000E4 3000                       33781  1 01-WTO   +           DC    XL2'3000'                LINE TYPE
 0000E6 4040404040404040           33782  1 01-WTO  C+           DC    C'           DRIVES BECOME AVAILABLE'
 0000EE 404040C4D9C9E5C5                  1          +                                          MESSAGE TEXT               @L6C
0                                  33784  1 3863.22 C ASKW2      WTOR  'VDMP824A - REPLY "GO" OR "RETRY"',
                                          1 3863.23                    *-*,L'ASKREP,*-*,ROUTCDE=(1,2,3),MF=L
 000108                            33786  1 01-WTOR  +ASKW2      DS    0F
 000108 80000000                   33788  1 01-WTOR  +           DC    A(X'80000000'+*-*)       REPLY ADDRESS              @P4A
 00010C 00000000                   33789  1 01-WTOR  +           DC    A(*-*)                   ECB ADDRESS                @P4A
 000110 05                         33790  1 01-WTOR  +           DC    AL1(L'ASKREP)            REPLY LENGTH           @G860PSS
1VDMP     (VDMP21) (09:46) (22MAR04) ORVYL's File System Dump Program: Initialization                                       Page  163
0Current Usings:  (DUMP,R6) (*,R7) (DWA,R12)
0Loc    Object Code    Addr1 Addr2  Stmt Lv Lineno    Source Statement           (Hibal 5, Asmedit 3.3)  HLASM R4.0  2004/03/22 09.46
+___    ______ ____    _____ _____  ____ __ ______    ______ _________
0000111 24                         33791  1 01-WTOR  +           DC    AL1(36)                  TEXT LENGTH + 4        @YA17152
 000112 8000                       33792  1 01-WTOR  +           DC    B'1000000000000000'      MCSFLAGS                   @L1A
 000114 E5C4D4D7F8F2F4C1           33793  1 01-WTOR C+           DC    C'VDMP824A - REPLY "GO" OR "RETRY"'
 00011C 406040D9C5D7D3E8                  1          +                                          MESSAGE TEXT               @PBC
 000134 0000                       33794  1 01-WTOR  +           DC    B'0000000000000000'      DESCRIPTOR CODES           @L1A
 000136 E000                       33795  1 01-WTOR  +           DC    B'1110000000000000'      ROUTING CODES              @L1A
0000138                00138 00138 33798    3863.52            END   ,
-004A4A 9029 D000/188D_      00000 33808    3863.54   ASKTASK  VENTER SR,RAR,*,LOCAL     ENTER AND SAVE CALLING REGISTERS
 DROP   *,R7
 USING  *,R7
 004A56 183F                       33830    3863.55            LR    TR,R15              SAVE AVAILABLE DRIVE COUNT
 004A58 4510 700A/0000_      04A60 33831    3863.56            GETMAIN R,LV=L'ASKDATA    REQUEST MEMORY
 004A66 1841                       33838    3863.57            LR    QR,R1               SAVE ADDRESS OF MEMORY
 USING  ASKDATA,R4                 33839    3863.58            USING ASKDATA,QR          ADDRESSABILITY TO WORK AREA
 004A68 D203 400C 7046 0000C 04A9C 33848    3863.59            MVC   ASKW1,ASKMOD1       SET WTO PARAMETER LIST
 004A6E D203 4108 7142 00108 04B98 33849    3863.6             MVC   ASKW2,ASKMOD2       SET WTOR PARAMETER LIST
 004A74 4110 400C/0A23       0000C 33850    3863.61            WTO   ,MF=(E,ASKW1)       ISSUE MULTI-LINE MESSAGE
 004A7A 5010 4000            00000 33854    3863.62            ST    R1,ASKDOM           SAVE MESSAGE IDENTIFIER
 004A7E 4100 0000/0A57       00000 33855    3863.63            DOM   MSG=(1)             DELETE MULTI-LINE MESSAGE
 DROP   ASKDATA,R4                 33858    3863.64            DROP  QR                  RELEASE WORK AREA
 004A84 1814                       33865    3863.65            LR    R1,QR               SET MEMORY ADDRESS FOR FREEMAIN
 004A86 4100 0138            00138 33866    3863.66            LA    R0,L'ASKDATA        SET LENGTH OF MEMORY
 004A8A 4110 1000/0A0A       00000 33867    3863.67            FREEMAIN R,LV=(0),A=(1)   RELEASE MEMORY
 004A90 5030 C114            00114 33871    3863.68            ST    TR,TASKLVL          RESET TASKING LEVEL
 004A94 18D8/9829 D000_            33872    3863.69            VEXIT SR,RAR              RETURN TO CALLER
1VDMP     (VDMP21) (09:46) (22MAR04) ORVYL's File System Dump Program: Initialization                                       Page  164
0Current Usings:  (DUMP,R6) (*,R7) (DWA,R12)
0Loc    Object Code    Addr1 Addr2  Stmt Lv Lineno    Source Statement           (Hibal 5, Asmedit 3.3)  HLASM R4.0  2004/03/22 09.46
+___    ______ ____    _____ _____  ____ __ ______    ______ _________
0                                  33878    3863.71   *
                                   33879    3863.72   *  DEFINE MULI-LINE WTOR FOR REDUCING TASKING LEVEL
                                   33880    3863.73   *
0                                  33882    3863.75 C ASKMOD1  WTO   ('VDMP823I - THERE ARE ONLY XX TAPE DRIVES',D),
                                            3863.76 C                ('           AVAILABLE TO FILEDUMP WHICH',D),
                                            3863.77 C                ('           REQUIRES XX.',D),
                                            3863.78 C                ('           PLEASE RESPOND "GO" TO USE THE',D),
                                            3863.79 C                ('           REDUCED LEVEL OR "RETRY" WHEN THE',D),
                                            3863.8  C                ('           DRIVES BECOME AVAILABLE',DE),
 004A9C 002C/8040/E5C4_                     3863.81                  ROUTCDE=(2,3),DESC=(2),MF=L
0                                  33908    3863.83 C ASKMOD2  WTOR  'VDMP824A - REPLY "GO" OR "RETRY"',
 004B98 80000000/0000000_                   3863.84                  *-*,L'ASKREP,*-*,ROUTCDE=(1,2,3),MF=L
1VDMP     (VDMP21) (09:46) (22MAR04) ORVYL's File System Dump Program: Initialization                                       Page  165
0Current Usings:  (DUMP,R6) (*,R7) (DWA,R12)
0Loc    Object Code    Addr1 Addr2  Stmt Lv Lineno    Source Statement           (Hibal 5, Asmedit 3.3)  HLASM R4.0  2004/03/22 09.46
+___    ______ ____    _____ _____  ____ __ ______    ______ _________
0                                  33921    3863.86   *
                                   33922    3863.87   *  DESCRIPTIONS FOR DEVICE NAME TABLE
                                   33923    3863.88   *
0000000                00000 00020 33925    3863.9    DEVNM    RECORD BEGIN
 000000 00000000                   33933  1 3863.91   DEVNMCNT   DC    A(0)                COUNT OF NAMES IN TABLE
 000004 00000000                   33934  1 3863.92   DEVNMLEN   DC    A(0)                LENGTH OF EACH ENTRY
 000008                            33935  1 3863.93   DEVNMENT   DC    0A(0)               DEVICE NAME ENTRY
 000008 4040404040404040           33936  1 3863.94   DEVNMTXT   DC    CL8' '              CHARACTER DEVICE NAME
 000010 00000000                   33937  1 3863.95   DEVNMUCB   DC    A(0)                UCB TYPE BYTES
 000014 00000000                   33938  1 3863.96   DEVNMMSK   DC    A(0)                ADDRESS OF MASK
 000018 00000000                   33939  1 3863.97   DEVNMGEN   DC    A(0)                NUMBER OF GENERICS
 00001C 00000000                   33940  1 3863.98   DEVNMGTP   DC    A(0)                ADDRESS OF GENERIC TABLE
 000020                00020 00020 33941    3863.99            END   ,
1VDMP     (VDMP21) (09:46) (22MAR04) ORVYL's File System Dump Program: Initialization                                       Page  166
0Current Usings:  (DUMP,R6) (*,R7) (DWA,R12)
0Loc    Object Code    Addr1 Addr2  Stmt Lv Lineno    Source Statement           (Hibal 5, Asmedit 3.3)  HLASM R4.0  2004/03/22 09.46
+___    ______ ____    _____ _____  ____ __ ______    ______ _________
0                                  33951    3875.     ********************************************************************
                                   33952    3875.01   *                                                                  *
                                   33953    3875.02   *   CHECK TAPE TASKING LEVEL FOR SUFFICIENT ONLINE TAPE DEVICES    *
                                   33954    3875.03   *                                                                  *
                                   33955    3875.04   *   RETURN:  R15 CONTAINS THE NUMBER OF ONLINE DEVICES OF THE      *
                                   33956    3875.05   *              PROPER CLASS AND TYPE                               *
                                   33957    3875.06   *                                                                  *
                                   33958    3875.07   ********************************************************************
-004BC8 9029 D000/188D_      00000 33960    3875.09   CHKTASK  VENTER SR,RAR,*,LOCAL     ENTER AND SAVE REGISTERS
 DROP   *,R7
 USING  *,R7
 004BD4 41F0 00FF            000FF 33982    3875.1             LA    R15,255   ** NOT YET WE DON'T **
 004BD8 18D8/9829 D000_            33983    3875.11            VEXIT SR,RAR,LTR   ** JUST RETURN FOR NOW **
 004BE2 4D90 7112            04CE6 33989    3875.76            LCALL GETDEVT             SET ADDRESS OF NAME TABLE
 004BE6 4D90 619C            001B2 33991    3875.77            LCALL AMODE31             ENTER 31-BIT MODE
 004BEA 5820 C050            00050 33993    3875.78            L     SR,DEVTABL          ADDRESS OF DEVICE NAME TABLE
 USING  DEVNM,R2                   33994    3875.79            WITH  (DEVNM,SR),BEGIN    ADDRESSABILITY TO TABLE
 004BEE 5830 2000            00000 34008  1 3875.8               L     TR,DEVNMCNT           SET COUNT OF ENTRIES
 004BF2 5840 2004            00004 34009  1 3875.81              L     QR,DEVNMLEN             SET LENGTH OF EACH ENTRY
 004BF6 4120 2008            00008 34010  1 3875.82              LA    SR,DEVNMENT               POINT TO FIRST ENTRY
 DROP   DEVNM,R2                   34011    3875.83            END   ,
 004BFA 1B00                       34019    3875.84            CLEAR R0                  ZERO DEVICE CLASS
 USING  DEVNMENT,R2                34023    3875.85            WITH  (DEVNMENT,SR),BEGIN ADDRESSABLITY TO TABLE ENTRY
 004BFC                            34037  1 3875.86              LOOP  BEGIN               SCAN DEVICE NAME TABLE
 004BFC D507 C2C8 2000 002C8 00008 34043  2 3875.87                CLC   TAPEUNIT,DEVNMTXT
 004C02 4770 703C            04C10 34044  2 3875.88                IF    EQ,BEGIN            FOUND NAME, GET UCB BYTES
 004C06 5810 2014            0001C 34055  3 3875.89                  L     R1,DEVNMGTP         ADDRESS OF GENERIC ENTRY
 004C0A 4800 1002            00002 34056  3 3875.9                   LH    R0,@R1+2            LOAD CLASS AND TYPE
 004C0E 1B33                       34057  3 3875.91                  CLEAR TR                  CLEAR COUNTER FOR EXIT
 004C10 7040/47F0 7048 04C10 04C04 34061  2 3875.92                END   ELSE,BEGIN
 004C14 4124 2000            00008 34076  3 3875.93                  LA    SR,DEVNMENT(QR)     BUMP TO NEXT ENTRY
 004C18 5B30 7144            04D18 34077  3 3875.94                  S     TR,=A(1)            DECREMENT COUNT
 004C1C                            34078  2 3875.95                END   ,
 004C1C 4720 7028            04BFC 34082  1 3875.96              WHILE P,END               GO CHECK NEXT ENTRY
 DROP   DEVNMENT,R2                34098    3875.97            END   ,
 004C20 4D90 61A2            001B8 34106    3875.98            LCALL AMODE24             ENTER 24-BIT MODE
 004C24 4D90 705E            04C32 34108    3875.99            LCALL CNTONL              COUNT ONLINE DEVICES
 004C28 18D8/9829 D000_            34110    3876.              VEXIT SR,RAR,LTR          RETURN TO CALLER
1VDMP     (VDMP21) (09:46) (22MAR04) ORVYL's File System Dump Program: Initialization                                       Page  167
0Current Usings:  (DUMP,R6) (*,R7) (DWA,R12)
0Loc    Object Code    Addr1 Addr2  Stmt Lv Lineno    Source Statement           (Hibal 5, Asmedit 3.3)  HLASM R4.0  2004/03/22 09.46
+___    ______ ____    _____ _____  ____ __ ______    ______ _________
0                                  34117    3876.02   ********************************************************************
                                   34118    3876.03   *                                                                  *
                                   34119    3876.04   *  LOCATE NUMBER OF ONLINE AVAILABLE UNITS WITHIN A DEVICE CLASS   *
                                   34120    3876.05   *  AND TYPE.                                                       *
                                   34121    3876.06   *                                                                  *
                                   34122    3876.07   *        R0    CONTAINS DEVICE CLASS AND TYPE IN LOW-ORDER         *
                                   34123    3876.08   *              BYTES                                               *
                                   34124    3876.09   *                                                                  *
                                   34125    3876.1    *  RETURNS                                                         *
                                   34126    3876.11   *                                                                  *
                                   34127    3876.12   *        CC    Z  NO DEVICES FOUND TO BE ONLINE                    *
                                   34128    3876.13   *                                                                  *
                                   34129    3876.14   *             NZ  ONLINE AVAILALBE DEVICES FOUND.                  *
                                   34130    3876.15   *                 R15 CONTAINS THE COUNT OF DEVICES.               *
                                   34131    3876.16   *                                                                  *
                                   34132    3876.17   ********************************************************************
0000000                00000 000E0 34134    3876.19   UPS      RECORD BEGIN              UCB-scan parameter list
                                   34142  1 3876.2               UCBSCAN  MF=(L,UPSMFL)    UCBSCAN parmlist
                                   34143  1          +*                   MACDATE -12/13/99-<2>
                                   34145  1 02-00322 +         $$PUSH  PRINT
                                   34147  1 02-00287 +         $$PRINT ON
                                   34148  1 01-UCBSC +M00M10798   EQU  UPSMFL             ++ UCBSCAN NAME
 000000                            34149  1 01-UCBSC +UPSMFL     DS    0D                 ++ UCBSCAN PARM LIST
 000000                            34150  1 01-UCBSC +UPSMFL_XVERSION   DS XL1            ++ INPUT XVERSION
 000001                            34151  1 01-UCBSC +UPSMFL_XRESERVED1   DS CL1          ++ FIELD_LABEL  XRESERVED1
 000002                            34152  1 01-UCBSC +UPSMFL_XDEVN   DS XL2               ++   XDEVN
 000004                            34153  1 01-UCBSC +UPSMFL_XUCBAREA_ADDR   DS A         ++  ADDR XUCBAREA
 000008                            34154  1 01-UCBSC +UPSMFL_XUCBAREA_ALET   DS F         ++  ALET XUCBAREA
 00000C                            34155  1 01-UCBSC +UPSMFL_XWORKAREA_ADDR   DS A        ++  ADDR XWORKAREA
 000010                            34156  1 01-UCBSC +UPSMFL_XWORKAREA_ALET   DS F        ++  ALET XWORKAREA
 000014                            34157  1 01-UCBSC +UPSMFL_XCMXTAREA_ADDR   DS A        ++  ADDR XCMXTAREA
 000018                            34158  1 01-UCBSC +UPSMFL_XCMXTAREA_ALET   DS F        ++  ALET XCMXTAREA
 00001C                            34159  1 01-UCBSC +UPSMFL_XUCBPAREA_ADDR   DS A        ++  ADDR XUCBPAREA
 000020                            34160  1 01-UCBSC +UPSMFL_XUCBPAREA_ALET   DS F        ++  ALET XUCBPAREA
 000024                            34161  1 01-UCBSC +UPSMFL_XDEVNCHAR   DS CL4           ++   XDEVNCHAR
 000028                            34162  1 01-UCBSC +UPSMFL_XUCBPTR   DS A               ++   XUCBPTR
 00002C                            34163  1 01-UCBSC +UPSMFL_XPTOKEN   DS CL8             ++   XPTOKEN
 000034                            34164  1 01-UCBSC +UPSMFL_XHELP   DS CL8               ++   XHELP
 00003C                            34165  1 01-UCBSC +UPSMFL_XCOMPID   DS CL5             ++   XCOMPID
 000041                            34166  1 01-UCBSC +UPSMFL_XFLAGS2   DS BL.8            ++ FIELD_LABEL
                                   34167  1 01-UCBSCC+UPSMFL_KEYUSED_VOLSER   EQU B'10000000'
                                          1          +                                    ++ KEYUSED.VOLSER KEYWORD
                                   34168  1 01-UCBSCC+UPSMFL_XNOTFIND_YES   EQU B'01000000'
                                          1          +                                    ++ XNOTFIND.YES KEYWORD
                                   34169  1 01-UCBSCC+UPSMFL_KEYUSED_UCBCXPTR   EQU B'00100000'
                                          1          +                                    ++ KEYUSED.UCBCXPTR KEYWORD
                                   34170  1 01-UCBSCC+UPSMFL_KEYUSED_UCBPXPTR   EQU B'00010000'
                                          1          +                                    ++ KEYUSED.UCBPXPTR KEYWORD
 000042                            34171  1 01-UCBSC +UPSMFL_XDCELEN   DS XL2             ++   XDCELEN
 000044                            34172  1 01-UCBSC +UPSMFL_XTEXT_ADDR   DS A            ++  ADDR XTEXT
 000048                            34173  1 01-UCBSC +UPSMFL_XTEXT_ALET   DS F            ++  ALET XTEXT
 00004C                            34174  1 01-UCBSC +UPSMFL_XEXITADDR   DS A             ++   XEXITADDR
 000050                            34175  1 01-UCBSC +UPSMFL_XEXITDATA   DS CL8           ++   XEXITDATA
1VDMP     (VDMP21) (09:46) (22MAR04) ORVYL's File System Dump Program: Initialization                                       Page  168
0Current Usings:  (DUMP,R6) (*,R7) (DWA,R12)
0Loc    Object Code    Addr1 Addr2  Stmt Lv Lineno    Source Statement           (Hibal 5, Asmedit 3.3)  HLASM R4.0  2004/03/22 09.46
+___    ______ ____    _____ _____  ____ __ ______    ______ _________
0000058                            34176  1 01-UCBSC +UPSMFL_XIOCTOKEN_ADDR   DS A        ++  ADDR XIOCTOKEN
 00005C                            34177  1 01-UCBSC +UPSMFL_XIOCTOKEN_ALET   DS F        ++  ALET XIOCTOKEN
 000060                            34178  1 01-UCBSC +UPSMFL_XDEVCLASS   DS XL1           ++  XDEVCLASS
                                   34179  1 01-UCBSC +UPSMFL_XDEVCLASS_ALL   EQU 0        ++ XDEVCLASS.ALL KEYWORD
                                   34180  1 01-UCBSC +UPSMFL_XDEVCLASS_TAPE   EQU 128     ++ XDEVCLASS.TAPE KEYWORD
                                   34181  1 01-UCBSC +UPSMFL_XDEVCLASS_COMM   EQU 64      ++ XDEVCLASS.COMM KEYWORD
                                   34182  1 01-UCBSC +UPSMFL_XDEVCLASS_DASD   EQU 32      ++ XDEVCLASS.DASD KEYWORD
                                   34183  1 01-UCBSC +UPSMFL_XDEVCLASS_DISP   EQU 16      ++ XDEVCLASS.DISP KEYWORD
                                   34184  1 01-UCBSC +UPSMFL_XDEVCLASS_UREC   EQU 8       ++ XDEVCLASS.UREC KEYWORD
                                   34185  1 01-UCBSC +UPSMFL_XDEVCLASS_CHAR   EQU 4       ++ XDEVCLASS.CHAR KEYWORD
                                   34186  1 01-UCBSC +UPSMFL_XDEVCLASS_CTC   EQU 65       ++ XDEVCLASS.CTC KEYWORD
 000061                            34187  1 01-UCBSC +UPSMFL_XSCAN_MASK   DS BL.8         ++ FIELD_LABEL
                                   34188  1 01-UCBSCC+UPSMFL_XNONBASE_NO   EQU B'10000000'
                                          1          +                                    ++ XNONBASE.NO KEYWORD
                                   34189  1 01-UCBSCC+UPSMFL_XDYNAMIC_NO   EQU B'01000000'
                                          1          +                                    ++ XDYNAMIC.NO KEYWORD
                                   34190  1 01-UCBSCC+UPSMFL_XRANGE_3DIGIT   EQU B'00100000'
                                          1          +                                    ++ XRANGE.3DIGIT KEYWORD
                                   34191  1 01-UCBSC +UPSMFL_XLOC_ANY   EQU B'00010000'   ++ XLOC.ANY KEYWORD
                                   34192  1 01-UCBSCC+UPSMFL_XUNBOUND_ALIAS_YE  S EQU B'00000001'
                                          1          +                                    ++ XUNBOUND_ALIAS.YES KEYWORD
 000062                            34193  1 01-UCBSC +UPSMFL_XFLAGS   DS BL.8             ++ FIELD_LABEL
                                   34194  1 01-UCBSCC+UPSMFL_KEYUSED_ADDRESS   EQU B'10000000'
                                          1          +                                    ++ KEYUSED.ADDRESS KEYWORD
                                   34195  1 01-UCBSCC+UPSMFL_KEYUSED_EXIT   EQU B'01000000'
                                          1          +                                    ++ KEYUSED.EXIT KEYWORD
                                   34196  1 01-UCBSCC+UPSMFL_KEYUSED_EXITDATA   EQU B'00100000'
                                          1          +                                    ++ KEYUSED.EXITDATA KEYWORD
                                   34197  1 01-UCBSCC+UPSMFL_KEYUSED_DEVNCHAR   EQU B'00010000'
                                          1          +                                    ++ KEYUSED.DEVNCHAR KEYWORD
                                   34198  1 01-UCBSCC+UPSMFL_KEYUSED_COMPID   EQU B'00001000'
                                          1          +                                    ++ KEYUSED.COMPID KEYWORD
                                   34199  1 01-UCBSCC+UPSMFL_KEYUSED_HELP   EQU B'00000100'
                                          1          +                                    ++ KEYUSED.HELP KEYWORD
                                   34200  1 01-UCBSCC+UPSMFL_KEYUSED_PIN   EQU B'00000010'
                                          1          +                                    ++ KEYUSED.PIN KEYWORD
                                   34201  1 01-UCBSCC+UPSMFL_KEYUSED_PINPATHS   EQU B'00000001'
                                          1          +                                    ++ KEYUSED.PINPATHS KEYWORD
 000063                            34202  1 01-UCBSC +UPSMFL_XDEVCID   DS BL.8            ++   XDEVCID
 000064                            34203  1 01-UCBSC +UPSMFL_XDCEAREA   DS A              ++   XDCEAREA
 000068                            34204  1 01-UCBSC +UPSMFL_XDCEAREA_ALET   DS F         ++  ALET XDCEAREA
 00006C                            34205  1 01-UCBSC +UPSMFL_XVOLSER   DS CL6             ++   XVOLSER
 000072                            34206  1 01-UCBSC +UPSMFL_XSCAN_MASK2   DS BL.8        ++ FIELD_LABEL
                                   34207  1 01-UCBSCC+UPSMFL_XUNBOUND_ALIAS_ON  LY EQU B'10000000'
                                          1          +                                    ++ XUNBOUND_ALIAS.ONLY KEYWORD
 000073                            34208  1 01-UCBSC +UPSMFL_XRESERVED4   DS CL1          ++ FIELD_LABEL  XRESERVED4
                                   34209  1 01-UCBSC +UPSMFL_PL_END   EQU *               ++ END OF BASE PLIST
                                   34210  1 01-UCBSC +UPSMFLL    EQU   *-UPSMFL           ++ LENGTH OF PLIST
0                                  34213  1 02-00427 +         $$POP   PRINT
                                   34214  1          +*                                            UCBSCAN-2
0000074 00                         34216  1 3876.21   UPSCID     DC    X'00'               ucb class id
 000075 000000                            1
1VDMP     (VDMP21) (09:46) (22MAR04) ORVYL's File System Dump Program: Initialization                                       Page  169
0Current Usings:  (DUMP,R6) (*,R7) (DWA,R12)
0Loc    Object Code    Addr1 Addr2  Stmt Lv Lineno    Source Statement           (Hibal 5, Asmedit 3.3)  HLASM R4.0  2004/03/22 09.46
+___    ______ ____    _____ _____  ____ __ ______    ______ _________
0000078 00000000                   34217  1 3876.22   UPSUCB     DC    A(0)                UCB receive address
 00007C 0000000000000000           34218  1 3876.23   UPSWRK     DC    XL100'00'           UCBSCAN work area
 0000E0                000E0 000E0 34219    3876.24            END   ,
-004C32                            34229    3876.26   CNTONL   LABEL ,                   Check for online devices in class
 004C32 9029 D000/41D0_      00000 34231    3876.27            VPUSH SR,RAR,*            Save return register
 004C3A 1820                       34234    3876.28            LR    SR,R0               Save input class and type
 004C3C 47F0 7074/0000_      04C48 34235    3876.29            GETMAIN RC,LV=L'UPS       Get memory for parameter list
 004C54 1831                       34249    3876.3             LR    TR,R1               Save address
 USING  UPS,R3                     34250    3876.31            WITH  (UPS,TR),BEGIN      Addressability to list
 004C56 1801                       34264  1 3876.32              LR    R0,R1               Copy address for clear
 004C58 4110 00E0            000E0 34265  1 3876.33              LA    R1,L'UPS              And length to clear
 004C5C 1BFF                       34266  1 3876.34              CLEAR R15                     Zero from and pad character
 004C5E 0E0E                       34270  1 3876.35              MVCL  R0,R14                    Zero workarea
 004C60 BE22 3074            00074 34271  1 3876.36              STCM  SR,B'0010',UPSCID   SET FOR PASSED DEVICE CLASS
 004C64 5420 7148            04D1C 34272  1 3876.37              N     SR,=A(255)          JUST LEAVE DEVICE TYPE
 004C68 1B55                       34273  1 3876.38              CLEAR RR                  ZERO COUNTER REGISTER
0004C6A                            34278  1 3876.4               LOOP  BEGIN
                                   34284  2 3876.41 C              UCBSCAN  ADDRESS,NOPIN,WORKAREA=UPSWRK,UCBPTR=UPSUCB,
 004C6A 4110 3000/D773_      00000        2 3876.95                      DEVCID=UPSCID,DYNAMIC=YES,RANGE=ALL,MF=(E,UPSMFL)
-                                         2
 004CA8 12FF/4770 70F2             34310  2 3876.97                IF    (R15,Z),BEGIN       FOUND A UCB
 004CAE 5840 3078            00078 34324  3 3876.98                  L     QR,UPSUCB           SET POINTER TO UCB
 USING  UCBOB,R4                   34325  3 3876.99                  WITH  (UCBOB,QR),BEGIN    ADDRESSABILITY TO UCB
 004CB2 4420 7150/9500_      04D24 34339  4 3877.                      EX    SR,'CLI UCBTBYT4,0' PROPER DEVICE TYPE
 004CB6 4770 70F2            04CC6 34355  4 3877.01                    IF    EQ,BEGIN
 004CBA 9180 4003/47E0_00003       34366  5 3877.02                      IF    UCBSTAT.UCBONLI,BEGIN
 004CC2 4150 5001            00001 34382  6 3877.03                        LA    RR,@RR+1            INCREMENT COUNTER
 004CC6                            34383  5 3877.04                      END   ,
 004CC6                            34387  4 3877.05                    END   ,
 DROP   UCBOB,R4                   34391  3 3877.06                  END   ,                   RELEASE UCB ADDRESSABILITY
 004CC6                            34399  2 3877.07                END   ,
 004CC6 12FF/4780 7096             34403  1 3877.08              UNTIL (R15,NZ),END        LOOP THROUGH ALL DASD UCB'S
 DROP   UPS,R3                     34425    3877.09            END   ,
0004CCC 1813                       34434    3877.11            LR    R1,TR               Move address for freemain
 004CCE 4100 0050            00050 34435    3877.12            LA    R0,L'UPL            Set length of work area
 004CD2 4110 1000/0A0A       00000 34436    3877.13            FREEMAIN R,LV=(0),A=(1)   Release memory
 004CD8 18F5                       34440    3877.14            LR    R15,RR              Move total count into r15
 004CDA 4BD0 714C/9829_      04D20 34441    3877.15            VPOP  SR,RAR,*            Restore registers
 004CE2 12FF                       34444    3877.16            LTR   R15,R15             Set completion code
 004CE4 07F9                       34445    3877.17            BR    RAR                 And return to caller
1VDMP     (VDMP21) (09:46) (22MAR04) ORVYL's File System Dump Program: Initialization                                       Page  170
0Current Usings:  (DUMP,R6) (*,R7) (DWA,R12)
0Loc    Object Code    Addr1 Addr2  Stmt Lv Lineno    Source Statement           (Hibal 5, Asmedit 3.3)  HLASM R4.0  2004/03/22 09.46
+___    ______ ____    _____ _____  ____ __ ______    ______ _________
0                                  34447    3877.19   ********************************************************************
                                   34448    3877.2    *                                                                  *
                                   34449    3877.21   *  Extract address for the DEVICE NAME TABLE from the JES          *
                                   34450    3877.22   *  control table                                                   *
                                   34451    3877.23   *                                                                  *
                                   34452    3877.24   ********************************************************************
0004CE6                            34454    3877.26   GETDEVT  LABEL ,                   OBTAIN ADDRESS OF DEV NAME TABLE
 004CE6 5090 D000/41D0_      00000 34456    3877.27            VPUSH RAR,,*              SAVE RETURN REGISTER
 004CEE 5810 0010            00010 34459    3877.28            L     R1,CVTPTR           ADDRESS OF CVT
 004CF2 4D90 619C            001B2 34460    3877.29            LCALL AMODE31             ENTER ADDRESSING MODE 31
 004CF6 5810 1128            00128 34462    3877.3             L     R1,CVTJESCT-CVTMAP(,R1)       JES CONTROL TABLE
 004CFA 5810 1034            00034 34463    3877.31            L     R1,JESEDT-JESCT(,R1)          ELLIGIBLE DEVICE TABLE
 004CFE 5810 1000            00000 34464    3877.32            L     R1,0(,R1)               ADDRESS OF NAME TABLE
 004D02 5010 C050            00050 34465    3877.33            ST    R1,DEVTABL              Save address of devtable
 004D06 4D90 61A2            001B8 34466    3877.34            LCALL AMODE24             ENTER ADDRESSING MODE 24
 004D0A 4BD0 714E/5890_      04D22 34468    3877.35            VPOP  RAR,,*
 004D12 07F9                       34471    3877.36            BR    RAR                 RETURN TO CALLER
1VDMP     (VDMP21) (09:46) (22MAR04) ORVYL's File System Dump Program: Initialization                                       Page  171
0Current Usings:  (DUMP,R6) (*,R7) (DWA,R12)
0Loc    Object Code    Addr1 Addr2  Stmt Lv Lineno    Source Statement           (Hibal 5, Asmedit 3.3)  HLASM R4.0  2004/03/22 09.46
+___    ______ ____    _____ _____  ____ __ ______    ______ _________
0004D18                            34473    3877.38            LTORG ,                   DEFINE LITERAL POOL
 004D18 00000001                   34475                             =A(1)
 004D1C 000000FF                   34476                             =A(255)
 004D20 0020                       34477                             =Y((RAR+1-(SR)+16*((SR)/(RAR+1))/((SR)/(RAR+1)))*4)
 004D22 0004                       34478                             =Y(4)
1VDMP     (VDMP21) (09:46) (22MAR04) ORVYL'S File System Dump Program: Protocols                                            Page  172
0Current Usings:  (DUMP,R6) (*,R7) (DWA,R12)
0Loc    Object Code    Addr1 Addr2  Stmt Lv Lineno    Source Statement           (Hibal 5, Asmedit 3.3)  HLASM R4.0  2004/03/22 09.46
+___    ______ ____    _____ _____  ____ __ ______    ______ _________
0                                  34483    3877.4    ********************************************************************
                                   34484    3877.41   *                                                                  *
                                   34485    3877.42   *  Define prototype DCB for random access                          *
                                   34486    3877.43   *                                                                  *
                                   34487    3877.44   ********************************************************************
                                   34490    3877.47 C PHSTDCB  DCB   DDNAME=HISTORY,DSORG=DA,BLKSIZE=128,
                                            3877.48                  MACRF=(RIC,WIC),OPTCD=R,RECFM=F
0                                  34493             +*                       DATA CONTROL BLOCK
                                   34494             +*
 004D28                            34495    01-DCB   +PHSTDCB  DS    0F'0'          ORIGIN ON WORD BOUNDARY
 004D28                04D28 04D38 34496    01-DCB   +         ORG   *+16           TO ORIGIN GENERATION
 004D38 00000000                   34497    01-DCB   +         DC    A(0)           KEYLEN, DEVT, TRBAL
                                   34498             +*                       COMMON ACCESS METHOD INTERFACE
 004D3C 00                         34499    01-DCB   +         DC    AL1(0)         BUFNO, NUMBER OF BUFFERS
 004D3D 000001                     34500    01-DCB   +         DC    AL3(1)         BUFCB, BUFFER POOL CONTROL BLOCK
 004D40 0000                       34501    01-DCB   +         DC    AL2(0)         BUFL, BUFFER LENGTH
 004D42 2000                       34502    01-DCB   +         DC    BL2'0010000000000000' DSORG, DATA SET ORGANIZATION
 004D44 00000001                   34503    01-DCB   +         DC    A(1)           IOBAD FOR EXCP OR RESERVED
                                   34504             +*                       FOUNDATION EXTENSION
 004D48 00                         34505    01-DCB   +         DC    BL1'00000000'  BFTEK, BFALN, DCBE INDICATORS
 004D49 000001                     34506    01-DCB   +         DC    AL3(1)         EODAD (END OF DATA ROUTINE ADDRESS)
 004D4C 80                         34507    01-DCB   +         DC    BL1'10000000'  RECFM (RECORD FORMAT)
 004D4D 000000                     34508    01-DCB   +         DC    AL3(0)         EXLST (EXIT LIST ADDRESS)
                                   34509             +*                       FOUNDATION BLOCK
 004D50 C8C9E2E3D6D9E840           34510    01-DCB   +         DC    CL8'HISTORY'   DDNAME
 004D58 02                         34511    01-DCB   +         DC    BL1'00000010'  OFLGS (OPEN FLAGS)
 004D59 00                         34512    01-DCB   +         DC    BL1'00000000'  IFLGS (IOS FLAGS)
 004D5A 2928                       34513    01-DCB   +         DC    BL2'0010100100101000' MACR (MACRO FORMAT)
                                   34514             +*                       BDAM INTERFACE
 004D5C 01                         34515    01-DCB   +         DC    BL1'00000001'  OPTCD, OPTION CODES
 004D5D 000001                     34516    01-DCB   +         DC    AL3(1)         CHECK
 004D60 00000001                   34517    01-DCB   +         DC    A(1)           SYNAD, SYNCHRONOUS ERROR ROUTINE ADDR
 004D64 0000                       34518    01-DCB   +         DC    H'0'           RESERVED
 004D66 0080                       34519    01-DCB   +         DC    AL2(128)       BLKSIZE, BLOCK SIZE
 004D68 00000001                   34520    01-DCB   +         DC    A(1)           IOBSQ
 004D6C 00000001                   34521    01-DCB   +         DC    A(1)           SQND
 004D70 00000001                   34522    01-DCB   +         DC    A(1)           IOBUQ
 004D74 00000001                   34523    01-DCB   +         DC    A(1)           UQND
 004D78 00000000                   34524    01-DCB   +         DC    A(0)           LIMCT, LIMIT COUNT (THREE BYTES)
 004D7C 00000001                   34525    01-DCB   +         DC    F'1'           XCNT, XARG
 004D80 00000001                   34526    01-DCB   +         DC    A(1)           DRDX
 004D84 00000001                   34527    01-DCB   +         DC    A(1)           DFOR
 004D88 00000001                   34528    01-DCB   +         DC    A(1)           DFBK
 004D8C 00000001                   34529    01-DCB   +         DC    A(1)           DYNB
                                   34530    3877.49   PHSTLEN  EQU   *-PHSTDCB           Define DCB length
1VDMP     (VDMP21) (09:46) (22MAR04) ORVYL's File System Dump Program: Dump task                                            Page  173
0Current Usings:  (DUMP,R6) (*,R7) (DWA,R12)
0Loc    Object Code    Addr1 Addr2  Stmt Lv Lineno    Source Statement           (Hibal 5, Asmedit 3.3)  HLASM R4.0  2004/03/22 09.46
+___    ______ ____    _____ _____  ____ __ ______    ______ _________
0
-
-
-
                                   34534    3878.     ********************************************************************
                                   34535    3879.     ********************************************************************
                                   34536    3880.     ********************************************************************
                                   34537    3881.     ****                                                            ****
                                   34538    3882.     ****                                                            ****
                                   34539    3883.     ****                                                            ****
                                   34540    3884.     ****                                                            ****
                                   34541    3885.     ****                                                            ****
                                   34542    3886.     ****          Dump/Incremental dump subtask                     ****
                                   34543    3887.     ****                                                            ****
                                   34544    3888.     ****                                                            ****
                                   34545    3889.     ****                                                            ****
                                   34546    3890.     ****                                                            ****
                                   34547    3891.     ****                                                            ****
                                   34548    3892.     ****                                                            ****
                                   34549    3893.     ****                                                            ****
                                   34550    3894.     ********************************************************************
                                   34551    3895.     ********************************************************************
                                   34552    3896.     ********************************************************************
-
-                                  34554    3898.     *
                                   34555    3899.     *    THIS SECTION IS THE MAIN CODE FOR DUMP AND
                                   34556    3900.     *    INCREMENTAL PROCESSING
                                   34557    3901.     *
-DROP   DWA,R12                    34559    3903.              DROP  ,                   RELEASE ALL ADDRESSABILITY
 DROP   *,R7
 DROP   DUMP,R6
1VDMP     (VDMP21) (09:46) (22MAR04) ORVYL's File System Dump Program: Dump task                                            Page  174
0Loc    Object Code    Addr1 Addr2  Stmt Lv Lineno    Source Statement           (Hibal 5, Asmedit 3.3)  HLASM R4.0  2004/03/22 09.46
+___    ______ ____    _____ _____  ____ __ ______    ______ _________
0                                  34602    3905.     ********************************************************************
                                   34603    3906.     *                                                                  *
                                   34604    3907.     *   Define subtask work area                                       *
                                   34605    3908.     *                                                                  *
                                   34606    3909.     ********************************************************************
0000000                00000 00C74 34608    3911.     SWA      RECORD BEGIN
 000000 00000000                   34616  1 3912.     SRTADR     DC    A(0)                Print routine buffer address
 000004 E2E6C140E2E6C140           34617  1 3913.     SWANAME    DC    3CL4'SWA '          Define eye-catcher
 000010 00000000                   34618  1 3914.     PBLKADR    DC    A(0)                Parameter block address
 000014 0000000000000000           34619  1 3914.2    SUBTXPRM   DC    XL(L'VDMPEXIT)'00'  VDMP Exit parameter list (subtask)
000005C 00                         34621  1 3916.     ERFLG      FLAG  ,                   Error message return code flags
 ERFLG.ER15        80 ONES         34625  1 3917.                FLAG  ER15                    Register 15 value
 ERFLG.ER0         40 ONES         34630  1 3918.                FLAG  ER0                     Register 0 value
 ERFLG.ER1         20 ONES         34635  1 3919.                FLAG  ER1                     Register 1 value
000005D 00                         34641  1 3921.     FSFLGS     FLAG  ,                   File system flags
 FSFLGS.FSIOERR    80 ONES         34645  1 3922.                FLAG  FSIOERR                 I/O Error ocurred
 FSFLGS.FSTAPERR   40 ONES         34650  1 3923.                FLAG  FSTAPERR                I/O Error occurred on tape
 FSFLGS.FLSOPN     20 ONES         34655  1 3924.                FLAG  FLSOPN                  Print routines are active
 FSFLGS.FLSCACHE   10 ONES         34660  1 3924.1               FLAG  FLSCACHE                Caching 3380 device
 FSFLGS.FLSFSTWT   08 ONES         34665  1 3924.2               FLAG  FLSFSTWT                Fastwrite capable
000005E 00                         34671  1 3925.1    SCCWTYPE   FLAG  ,
 SCCWTYPE.SFLSECT  80 ONES         34675  1 3925.2               FLAG  (SFLSECT,FLSECT)     Utilize set sector commands
 SCCWTYPE.SFLECKD  40 ONES         34683  1 3925.3               FLAG  (SFLECKD,FLECKD)     Utilize ECKD CCW chains
 SCCWTYPE.SFLCYL   20 ONES         34691  1 3925.4               FLAG  (SFLCYL,FLCYL)       Utilize full cylinder reads
 SCCWTYPE.SFLRANY  10 ONES         34699  1 3925.5               FLAG  (SFLRANY,FLRANY)     Utilize read any mode (ESCON)
 SCCWTYPE.SFLPSTAG 08 ONES         34707  1 3925.51              FLAG  (SFLPSTAGE,FLPSTAGE) Utilize sequential prestage
000005F 00                         34716  1 3926.     DTFLGS     FLAG  ,                   Define tape system flags
 DTFLGS.DTRECOK    80 ONES         34720  1 3927.                FLAG  DTRECOK                 Recovery allowed on tape
 DTFLGS.DTREC1     40 ONES         34725  1 3928.                FLAG  DTREC1                  Recovery already in progress
0000060 00                         34731  1 3930.     EOVFLGS    FLAG  ,                   Define end of volume flags
 EOVFLGS.EOVERR    80 ONES         34735  1 3931.                FLAG  EOVERR                -  Maximum temp error
 EOVFLGS.EOVMAX    40 ONES         34740  1 3932.                FLAG  EOVMAX                -  Maximum byte count
 EOVFLGS.EOVNEW    20 ONES         34745  1 3933.                FLAG  EOVNEW                -  New volume encountered
 EOVFLGS.EOVEND    10 ONES         34750  1 3934.                FLAG  EOVEND                -  End of task eov message
 EOVFLGS.EOVASYNC  08 ONES         34755  1 3935.                FLAG  EOVASYNC              -  Asynchronous eov encountered
 EOVFLGS.TRL_Lab   04 ONES         34760  1 3935.1               FLAG  TRL_Lab               -  Trailer label exit
 EOVFLGS.EOVOK     02 ONES         34765  1 3936.                FLAG  EOVOK                 -  EOV processing is ok
 EOVFLGS.EOVFEOV   E0 MIX          34770  1 3937.                FLAG  (EOVFEOV,EOVERR+EOVMAX+EOVNEW,MIXED)
0000061 402020206B202020           34787  1 3938.1    EDT_CNT    DC    X'402020206B2020206B2020206B2020206B202120'
 000075 402020206B202020           34788  1 3938.2    EDT_BYT    DC    X'402020206B2020206B2020206B2020206B202120'
 000089 000000                            1
 00008C 00000000                   34789  1 3939.     EREG15     DC    A(0)                Error register 15
 000090 00000000                   34790  1 3940.     EREG0      DC    A(0)                Error register 0
 000094 00000000                   34791  1 3941.     EREG1      DC    A(0)                Error register 1
0000098 0000000000000000           34793  1 3943.     SWORK      DC    4D'0'               Define subtask work area
 0000B8 0000000000000000           34794  1 3944.     STARTIME   DC    D'0'                Starting time for subtask
 0000C0 00000000                   34795  1 3945.     SRETCODE   DC    A(0)                Subtask return code area
 0000C4 00000000                   34796  1 3946.     SWARNING   DC    A(0)                Count of warning messages
1VDMP     (VDMP21) (09:46) (22MAR04) ORVYL's File System Dump Program: Dump task                                            Page  175
0Loc    Object Code    Addr1 Addr2  Stmt Lv Lineno    Source Statement           (Hibal 5, Asmedit 3.3)  HLASM R4.0  2004/03/22 09.46
+___    ______ ____    _____ _____  ____ __ ______    ______ _________
00000C8 0000000000000000           34797  1 3947.     SUBTIME    DC    2A(0)               Holding area for subtask start
 0000D0 00000000                   34798  1 3948.     SUBVS      DC    A(0)                VS SAVE AREA ADDRESS
 0000D4 00000000                   34799  1 3949.     SUBSLN     DC    A(0)                Subtask save area stack length
 0000D8 00000000                   34800  1 3950.     SUBSAD     DC    A(0)                Subtask save area stack address
 0000DC E2E8E2D7D9E34040           34801  1 3951.     SYSPDDN    DC    CL8'SYSPRT'         SYSPRINT DDname
00000E4                            34803  1 3953.     SYNADBUF   DS    CL78                    FORMATTED SYNAD MESSAGE
1VDMP     (VDMP21) (09:46) (22MAR04) ORVYL's File System Dump Program: Dump task                                            Page  176
0D-Loc  Object Code    Addr1 Addr2  Stmt Lv Lineno    Source Statement           (Hibal 5, Asmedit 3.3)  HLASM R4.0  2004/03/22 09.46
+_____  ______ ____    _____ _____  ____ __ ______    ______ _________
0                                  34805  1 3955.     ********************************************************************
                                   34806  1 3956.     *                                                                  *
                                   34807  1 3957.     *            Define file system controls                           *
                                   34808  1 3958.     *                                                                  *
                                   34809  1 3959.     ********************************************************************
0000138                            34811  1 3961.     FSSTCK     DS    D                   Volume STCK starting time
 000140                            34812  1 3962.     FSSTCKE    DS    D                          STCK Ending time
 000148 00000000                   34813  1 3963.     FSABS      DC    A(0)                ORVYL absolute block number
 00014C                            34814  1 3964.     BLKCNT     DS    F                   Total ORVYL blocks on volume
 000150                            34815  1 3965.     FILENO     DS    F                   Current file number in segment
 000154                            34816  1 3966.     FSDDN      DS    CL8                 File system DDNAME
                                   34817  1 3967.     FSDDPFX    EQU   FSDDN+0,4             - Prefix (I.E. "FILE")
                                   34818  1 3968.     FSDDSEG    EQU   FSDDN+4,2             - Segment (I.E. "00")
                                   34819  1 3969.     FSDDFNO    EQU   FSDDN+6,2             - Fileno (I.E. "0")
 00015C                            34820  1 3970.     FSERRFID   DS    X                   First record ID read from track
 00015D                            34821  1 3971.     FSERRPID   DS    X                   Previous first record ID read
 000160                            34822  1 3973.     FSTRKS     DS    F                   Tracks in this file
 000164                            34823  1 3974.     FSBLOCKS   DS    F                   Blocks total in this file
 000168                            34824  1 3975.     FSBLKCNT   DS    F                   Blocks read this file
 00016C 00000000                   34825  1 3976.     FSINCCNT   DC    A(0)                Incremental blocks dumped
 000170                            34826  1 3977.     FSRPC      DS    F                   Records per cylinder
 000174                            34827  1 3978.     FSRPT      DS    F                   Records per track
 000178                            34828  1 3979.     FSTRKPC    DS    F                   Tracks per cylinder
 00017C                            34829  1 3980.     FSXTNTAB   DS    A                   Address of first deb extent
 000180                            34830  1 3981.     FSXTNTS    DS    F                   Number of deb extents
 000184 00000000                          1
 000188                            34831  1 3981.1               DC    0D'0'               Readability in dumps
 000188 0000                       34832  1 3982.     FSRDLEN    DC    AL2(0)              Read length for ccw's
 00018A 0000                       34833  1 3982.01   FSKEYLEN   DC    AL2(0)              Key length of physical record
 00018C 0000                       34834  1 3982.1    FSBLKLEN   DC    AL2(0)              Data length of physical record
 00018E 0000                       34835  1 3983.     FSORVHD    DC    AL2(0)              Length of orvyl header
 000190 0000                       34836  1 3983.2    FSUDATLN   DC    AL2(0)              User data length
 000192 0000                       34837  1 3983.3    FSIDRPT    DC    AL2(0)              Incremental dump records/track
 000194                            34838  1 3984.     FSVOLSER   DS    CL6                 File system volume serial
 00019A 070007000700               34839  1 3984.1               CNOP  0,8                     ORG DS1FMTID TO DOUBLE WORD
 0001A0                            34840  1 3985.     FSJFCB     DS    CL(L'JFCB)          JFCB AREA
 000250 07000700                   34841  1 3986.                CNOP  4,8                     ORG DS1FMTID TO DOUBLE WORD
 000254                            34842  1 3987.     FSDSNAME   DS    CL44
 000280                            34843  1 3988.     FSOBTA     DS    CL148                   OBTAIN AREA
 000318                            34844  1 3989.                DS    0D
                                   34845  1 3990.     FSIOB      DC    (&IOBS*L'IOB)X'00'  RESERVE SPACE FOR IOB CONTROL
 000318 0000000000000000                  1 3990.    +FSIOB      DC    (2*L'IOB)X'00'      RESERVE SPACE FOR IOB CONTROL
                                   34846  1 3992.     FSIOBEND   EQU   *
                                   34847  1 3993.     FSIOB1     EQU   FSIOB,L'IOB
                                   34848  1 3994.     FSIOB2     EQU   FSIOB+L'IOB,L'IOB
 0005E8                            34849  1 3995.     FSDVTA     DS    CL(L'DVTAREA)           DEVTYPE AREA
-000600 0000000000000000           34851  1 3997.     FSLSTIO    DC    D'0'                Last i/o (stck value)
 000608 0000000000000000           34852  1 3998.     FSELAP     DC    D'0'                Actual elpased time from last
 000610 0000000000000000           34853  1 3999.     FSDELAY    DC    D'0'                Delay between i/o (micro-seconds)
1VDMP     (VDMP21) (09:46) (22MAR04) ORVYL's File System Dump Program: Dump task                                            Page  177
0D-Loc  Object Code    Addr1 Addr2  Stmt Lv Lineno    Source Statement           (Hibal 5, Asmedit 3.3)  HLASM R4.0  2004/03/22 09.46
+_____  ______ ____    _____ _____  ____ __ ______    ______ _________
0                                  34855  1 4001.     *
                                   34856  1 4002.     *              DEFINE DUMP TAPE CONTROLS
                                   34857  1 4003.     *
0000618                            34859  1 4005.     PREVID     DS    F                   PREVIOUS FIRST RECORD ID
 00061C                            34860  1 4006.     INTCTRS    DS    21A                 Count up to 21 intervals
 000670                            34861  1 4008.     DTERRCNT   DS    F                   ERROR LIMIT FOR TAPE
 000674                            34862  1 4009.     DTRPTCNT   DS    F                   REPORT LIMIT FOR TAPE
 000678                            34863  1 4010.     DTDDN      DS    CL8                 DUMP TAPE DDNAME
                                   34864  1 4011.     DTDDPFX    EQU   DTDDN+0,4                PREFIX (I.E. "TAPE")
                                   34865  1 4012.     DTDDSEG    EQU   DTDDN+4,2                segment (i.e. "00")
 000680 000000000000000C           34866  1 4013.     DTEOVCNT   DC    PL8'0'              Bytes toward forced EOV
 000688                            34867  1 4014.     DTDVTA     DS    CL(L'DVTAREA)       Devtype area
 0006A0                            34868  1 4015.     DTMAXBLK   DS    H                   Maximum blocksize for device
 0006A2                            34869  1 4016.     DTMINBLK   DS    H                   Minimum blksize (input lrecl+8)
 0006A4                            34870  1 4017.     DTBLKCNT   DS    F                   Blocks written to dumptape
 0006A8                            34871  1 4018.     DTBYTCNT   DS    PL8                 Data bytes written to tape
 0006B0                            34872  1 4019.     DTRECID    DS    X                   Current record id
 0006B1                            34873  1 4020.     DTLASTID   DS    X                   Last record on track
 0006B2                            34874  1 4021.     DTSAVHDR   DS    CL(FSHDRDMP)        Save area for header
 0006C0                            34875  1 4022.     DTJFCB     DS    22D                 Dumptape jfcb area
 000770                            34876  1 4023.     DTRDSN     DS    CL44                DUMPTAPE RECOVERY DSN
-                                  34878  1 4025.     *
                                   34879  1 4026.     *  DEFINE CONTROL VARIABLES FOR INCREMENTAL DUMPING
                                   34880  1 4027.     *
 00079C 00000000                   34881  1 4028.     DTIBLKS    DC    A(0)                Remaining blocks available
 0007A0 00000000                   34882  1 4029.     DTIANC     DC    A(0)                Anchor address for inc cnt blks
 0007A4 00000000                   34883  1 4030.     DTISEQ     DC    A(0)                Sequence  for incremental segment
 0007A8 00000002                   34884  1 4030.1    DTIRETRY   DC    A(2)                Retry count for space gone
 0007AC 0000                       34885  1 4030.2    DTIBLKSZ   DC    AL2(0)              Incremental pool blocksize
1VDMP     (VDMP21) (09:46) (22MAR04) ORVYL's File System Dump Program: Dump task                                            Page  178
0D-Loc  Object Code    Addr1 Addr2  Stmt Lv Lineno    Source Statement           (Hibal 5, Asmedit 3.3)  HLASM R4.0  2004/03/22 09.46
+_____  ______ ____    _____ _____  ____ __ ______    ______ _________
0                                  34887  1 4032.     ¿þþþþþþþþþþþþþþþþþþþþþþþþþþþþþþþþþþþþþþþþþþþþþþþþþþþþþþþþþþþþþþþþþþþþþÜ
                                   34888  1 4033.     Ÿ                                                                     Ÿ
                                   34889  1 4034.     Ÿ  DEFINE PARAMETER LISTS FOR SVC99 DYNAMIC ALLOCATION FOR            Ÿ
                                   34890  1 4035.     Ÿ  INCREMENTAL DUMPING TO A POOL OF DIRECT ACCESS DEVICES.            Ÿ
                                   34891  1 4036.     Ÿ                                                                     Ÿ
                                   34892  1 4037.     Ÿ                                                                     Ÿ
                                          1           ¾þþþþþþþþþþþþþþþþþþþþþþþþþþþþþþþþþþþþþþþþþþþþþþþþþþþþþþþþþþþþþþþþþþþþþ»
00007AE 0000                              1
 0007B0 00000000                   34894  1 4039.     IDYNP      DC    A(0)                POINTER TO SVC99 REQUEST BLOCK
 0007B4 0000000000000000           34895  1 4040.     IDYNRB     DC    5A(0)               SVC99 REQUEST BLOCK AREA
00007C8 000007F0                   34897  1 4042.     IPTRS      DC    A(IDDN)             Point to ddname unit
 0007CC 000007FE                   34898  1 4043.                DC    A(IDSN)                   To dsname unit
 0007D0 00000830                   34899  1 4044.                DC    A(ISTAT)                  To status unit (new)
 0007D4 00000837                   34900  1 4045.                DC    A(INDSP)                  To disposition (catlg)
 0007D8 0000083E                   34901  1 4046.                DC    A(ISP1)                   To space unit (tracks)
 0007DC 00000842                   34902  1 4047.                DC    A(ISP2)                   To primary quantity
 0007E0 0000084B                   34903  1 4048.                DC    A(IUNIT)                  To unit specification
 0007E4 00000859                   34904  1 4049.                DC    A(IRLSE)                  To release unit
 0007E8 0000085D                   34905  1 4050.                DC    A(IFREE)                  To free=close unit
 0007EC 80000861                   34906  1 4051.                DC    A(X'80000000'+IVOL)       To volume unit
00007F0 000100010008E3C1           34908  1 4053.     IDDN       DC    AL2(DALDDNAM,1,8),CL8'TAPE00'
 0007FE 00020001002C4040           34909  1 4054.     IDSN       DC    AL2(DALDSNAM,1,44),CL44' '
 000830 00040001000104             34910  1 4055.     ISTAT      DC    AL2(DALSTATS,1,1),X'04'
 000837 00050001000102             34911  1 4056.     INDSP      DC    AL2(DALNDISP,1,1),X'02'
 00083E 00070000                   34912  1 4057.     ISP1       DC    AL2(DALTRK,0)
 000842 000A000100030003           34913  1 4058.     ISP2       DC    AL2(DALPRIME,1,3),AL3(1000)
 00084B 001500010008E2E8           34914  1 4059.     IUNIT      DC    AL2(DALUNIT,1,8),CL8'SYSALLDA'
 000859 000D0000                   34915  1 4060.     IRLSE      DC    AL2(DALRLSE,0)
 00085D 001C0000                   34916  1 4061.     IFREE      DC    AL2(DALCLOSE,0)
 000861 001000010006C9D5           34917  1 4062.     IVOL       DC    AL2(DALVLSER,1,6),CL6'INC000'
1VDMP     (VDMP21) (09:46) (22MAR04) ORVYL's File System Dump Program: Dump task                                            Page  179
0D-Loc  Object Code    Addr1 Addr2  Stmt Lv Lineno    Source Statement           (Hibal 5, Asmedit 3.3)  HLASM R4.0  2004/03/22 09.46
+_____  ______ ____    _____ _____  ____ __ ______    ______ _________
0                                  34919  1 4064.     ********************************************************************
                                   34920  1 4065.     *                                                                  *
                                   34921  1 4066.     *  Define parameter lists for SVC99 dynamic allocation and         *
                                   34922  1 4067.     *  deallocation for tape volumes                                   *
                                   34923  1 4068.     *                                                                  *
                                   34924  1 4069.     ********************************************************************
000086D 000000                            1
 000870 00000000                   34926  1 4071.     TDYNP      DC    A(0)                Pointer to SVC99 request block
 000874 0000000000000000           34927  1 4072.     TDYNRB     DC    5A(0)               SVC99 request block area
0000888 000008D4                   34929  1 4074.     TPTRS      DC    A(TDDN)             Pointer to DDNAME unit
 00088C 000008E2                   34930  1 4075.                DC    A(TDSN)                     To dsname unit
 000890 0000091C                   34931  1 4076.                DC    A(TSTAT)                    To dsn status unit
 000894 00000914                   34932  1 4077.                DC    A(TMEM)                     To relative generation
 000898 00000923                   34933  1 4078.                DC    A(TNDSP)                    To normal disposition
 00089C 0000092A                   34934  1 4079.                DC    A(TCDSP)                    To conditional disposition
 0008A0 00000931                   34935  1 4080.                DC    A(TSP1)                     To space type
 0008A4 0000093A                   34936  1 4081.                DC    A(TSP2)                     To space primary
 0008A8 00000943                   34937  1 4082.                DC    A(TSP3)                     To space secondary
 0008AC 0000094C                   34938  1 4083.                DC    A(TCNT)                     To volume count
 0008B0 00000953                   34939  1 4084.                DC    A(TUNIT)                    To unit specification
 0008B4 00000961                   34940  1 4085.                DC    A(TLBL)                     To label type unit
 0008B8 00000968                   34941  1 4086.                DC    A(TSEQ)                     To label sequence number
 0008BC 00000970                   34942  1 4087.                DC    A(TPROT)                    To dcb dsname reference
 0008C0 800009A9                   34943  1 4088.                DC    A(X'80000000'+TRETP)        TO RETENTION PERIOD
 0008C4 800009B1                   34944  1 4088.1               DC    A(X'80000000'+TTRTCH)       TO TRTCH=COMP
00008C8 000008D4                   34946  1 4090.     TPTRU      DC    A(TDDN)             Pointer to DDNAME text unit
 0008CC 000008E2                   34947  1 4091.                DC    A(TDSN)                     to DSNAME text unit
                                   34948  1 4092.                A31   TUNA                        to DISP change unit
 0008D0 000009A2                   34949  1 01-01433 +           DC    A(TUNA)
00008D4 000100010008E3C1           34951  1 4094.     TDDN       DC    AL2(DALDDNAM,1,8),CL8'TAPE00'
 0008E2 00020001002CE6E8           34952  1 4095.     TDSN       DC    AL2(DALDSNAM,1,44),CL44'WYL.GS.ORV.FILSEG0'
 000914 0003000100024EF1           34953  1 4096.     TMEM       DC    AL2(DALMEMBR,1,2),CL2'+1'
 00091C 00040001000104             34954  1 4097.     TSTAT      DC    AL2(DALSTATS,1,1),X'04'       DISP=NEW
 000923 00050001000101             34955  1 4098.     TNDSP      DC    AL2(DALNDISP,1,1),X'01'       DISP=(,DELETE)
 00092A 00060001000104             34956  1 4099.     TCDSP      DC    AL2(DALCDISP,1,1),X'04'       DISP=(,,DELETE)
 000931 0009000100030000           34957  1 4100.     TSP1       DC    AL2(DALBLKLN,1,3),XL3'00'     SPACE=(0)
 00093A 000A000100030000           34958  1 4101.     TSP2       DC    AL2(DALPRIME,1,3),XL3'00'     SPACE=(,(0))
 000943 000B000100030000           34959  1 4102.     TSP3       DC    AL2(DALSECND,1,3),XL3'04'     SPACE=(,(,4))
 00094C 00130001000115             34960  1 4103.     TCNT       DC    AL2(DALVLCNT,1,1),AL1(21)     VOL=(,,,21)
 000953 001500010004E3C1           34961  1 4104.     TUNIT      DC    AL2(DALUNIT,1,4),CL8'TAPE'    UNIT=TAPE
 000961 001E0001000102             34962  1 4105.     TLBL       DC    AL2(DALLABEL,1,1),XL1'02'     LABEL=(,SL)
 000968 001F000100020001           34963  1 4106.     TSEQ       DC    AL2(DALDSSEQ,1,2),AL2(1)      LABEL=1
 000970 002C0001002CE2E8           34964  1 4107.     TPROT      DC    AL2(DALDCBDS,1,44),CL44'SYS3.PROTO.DSCB'
 0009A2 00050001000102             34965  1 4108.     TUNA       DC    AL2(DUNOVDSP,1,1),X'02'       DISP=(,CATLG)
 0009A9 002300010002005A           34966  1 4109.     TRETP      DC    AL2(DALRETPD,1,2),AL2(90)     RETENTION FOR 90 DAYS
 0009B1 004F0001000108             34967  1 4109.1    TTRTCH     DC    AL2(DALTRTCH,1,1),AL1(DCBCMPAC)   TRTCH=COMP
1VDMP     (VDMP21) (09:46) (22MAR04) ORVYL's File System Dump Program: Dump task                                            Page  180
0D-Loc  Object Code    Addr1 Addr2  Stmt Lv Lineno    Source Statement           (Hibal 5, Asmedit 3.3)  HLASM R4.0  2004/03/22 09.46
+_____  ______ ____    _____ _____  ____ __ ______    ______ _________
0                                  34969  1 4111.     ********************************************************************
                                   34970  1 4112.     *                                                                  *
                                   34971  1 4113.     *  Define parameter lists for SVC99 dynamic allocation and         *
                                   34972  1 4114.     *  Deallocation for disk volumes                                   *
                                   34973  1 4115.     *                                                                  *
                                   34974  1 4116.     ********************************************************************
00009B8 00000000                   34976  1 4118.     FDYNP      DC    A(0)                POINTER TO SVC99 REQUEST BLOCK
 0009BC 0000000000000000           34977  1 4119.     FDYNRB     DC    5A(0)               SVC99 REQUEST BLOCK AREA
0                                  34979  1 4121.     *
                                   34980  1 4122.     ** Define direct access class text unit pointers
                                   34981  1 4123.     *
 0009D0 000009F0                   34982  1 4124.     SFILPTRS   DC    A(SFILDD)           Pointer to ddname text unit
 0009D4 000009FE                   34983  1 4125.                DC    A(SFILDSN)          +4         dsn text unit
 0009D8 00000A4E                   34984  1 4126.                DC    A(SFILDISP)         +8         disp=shr text unit
 0009DC 00000A34                   34985  1 4127.                DC    A(SFILUNIT)         +12        unit text unit
 0009E0 00000A42                   34986  1 4128.                DC    A(SFILVOL)          +16        vol=ser text unit
 0009E4 00000A30                   34987  1 4129.                DC    A(SFILFRE)          +20        free=close
0                                  34989  1 4131.     *
                                   34990  1 4132.     ** DEFINE SYSOUT=$ CLASS TEXT UNIT POINTERS
                                   34991  1 4133.     *
 0009E8 00000A55                   34992  1 4134.     SUBSYS     DC    A(SUBDD)
 0009EC 00000A63                   34993  1 4135.                DC    A(SUBOUT)
0                                  34995  1 4137.     *
                                   34996  1 4138.     ** Define direct access class text Unit's
                                   34997  1 4139.     *
 0009F0 0001000100084040           34998  1 4140.     SFILDD     DC    AL2(DALDDNAM,1,8),CL8' '      ddname
 0009FE 00020001002C4040           34999  1 4141.     SFILDSN    DC    AL2(DALDSNAM,1,44),CL44' '    data set name
 000A30 001C0000                   35000  1 4142.     SFILFRE    DC    AL2(DALCLOSE,0)               free=close
 000A34 0015000100044040           35001  1 4143.     SFILUNIT   DC    AL2(DALUNIT,1,4),CL8' '       unit
 000A42 0010000100064040           35002  1 4144.     SFILVOL    DC    AL2(DALVLSER,1,6),CL6' '      vol=ser
 000A4E 00040001000108             35003  1 4145.     SFILDISP   DC    AL2(DALSTATS,1,1),X'08'       disp=shr
0000A55 000100010008E2E8           35005  1 4147.     SUBDD      DC    AL2(DALDDNAM,1,8),CL8'SYSPRT00'
 000A63 00180000                   35006  1 4148.     SUBOUT     DC    AL2(DALSYSOU,0)
 000A67 00                                1
 000A68 00000000                   35007  1 4149.     CNTFNO     DC    A(0)                FILE NUMBER WORK AREA
 000A6C 4040404040404040           35008  1 4150.     CNTDDN     DC    CL8' '              FILE DDNAME
                                   35009  1 4151.     CNTDDPFX   EQU   CNTDDN+0,4               FILE PREFIX
                                   35010  1 4152.     CNTDDSEG   EQU   CNTDDN+4,2               FILE SEGMENT NUMBER
                                   35011  1 4153.     CNTDDFNO   EQU   CNTDDN+6,2               FILE NUMBER
1VDMP     (VDMP21) (09:46) (22MAR04) ORVYL's File System Dump Program: Dump task                                            Page  181
0D-Loc  Object Code    Addr1 Addr2  Stmt Lv Lineno    Source Statement           (Hibal 5, Asmedit 3.3)  HLASM R4.0  2004/03/22 09.46
+_____  ______ ____    _____ _____  ____ __ ______    ______ _________
0                                  35013  1 4155.     ********************************************************************
                                   35014  1 4156.     *                                                                  *
                                   35015  1 4157.     *  Define parameter lists for OPEN, CLOSE, CAMLST                  *
                                   35016  1 4158.     *                                                                  *
                                   35017  1 4159.     ********************************************************************
0000A74                            35019  1 4161.     DTEXLST    DC    0A(0)               Force word alignment
 000A74 0500611C                   35020  1 4162.                DC    X'05',AL3(DTDCBEX)      DCB EXIT ROUTINE
 000A78 070006C0                   35021  1 4163.                DC    X'07',AL3(DTJFCB)       JOB FILE CONTROL BLOCK
 000A7C 04006154                   35022  1 4163.1               DC    X'04',AL3(DTTRLX)       Trailer label exit
 000A80 8600614E                   35023  1 4164.                DC    X'86',AL3(DTEOVEX)      EOV EXIT ROUTINE
0000A84                            35025  1 4166.     FSEXLST    DC    0A(0)               Force alignment
 000A84 870001A0                   35026  1 4167.                DC    X'87',AL3(FSJFCB)
-                                         1
                                   35028  1 4169.     FSCAMLST   CAMLST SEARCH,FSDSNAME,FSVOLSER,FSOBTA
 000A88                            35029  1 01-CAMLS +FSCAMLST   DS    0F                                ALIGN ON FULL WORD
 000A88 C1                         35030  1 01-CAMLS +           DC    AL1(193)                          THREE BYTES OF FLAGS
 000A89 00                         35031  1 01-CAMLS +           DC    AL1(0)                            INDICATING THE FUNC-
 000A8A 00                         35032  1 01-CAMLS +           DC    AL1(0)                            TION TO BE PERFORMED
 000A8B 00                         35033  1 01-CAMLS +           DC    AL1(0)                            NO OPTION THREE
 000A8C 00000254                   35034  1 01-CAMLS +           DC    A(FSDSNAME)                       PARAMETER TWO
 000A90 00000194                   35035  1 01-CAMLS +           DC    A(FSVOLSER)                       PARAMETER THREE
 000A94 00000280                   35036  1 01-CAMLS +           DC    A(FSOBTA)                         PARAMETER FOUR
0                                  35038  1 4169.2    FSVOLCAM   CAMLST NAME,*-*,,FSVOLWRK
 000A98                            35039  1 01-CAMLS +FSVOLCAM   DS    0F                                ALIGN ON FULL WORD
 000A98 44                         35040  1 01-CAMLS +           DC    AL1(68)                           THREE BYTES OF FLAGS
 000A99 00                         35041  1 01-CAMLS +           DC    AL1(0)                            INDICATING THE FUNC-
 000A9A 00                         35042  1 01-CAMLS +           DC    AL1(0)                            TION TO BE PERFORMED
 000A9B 00                         35043  1 01-CAMLS +           DC    AL1(0)                            NO OPTION THREE
 000A9C 00000000                   35044  1 01-CAMLS +           DC    A(*-*)                            PARAMETER TWO
 000AA0 00000000                   35045  1 01-CAMLS +           DC    A(0)                              PARAM. THREE OMMITTED
 000AA4 00000AA8                   35046  1 01-CAMLS +           DC    A(FSVOLWRK)                       PARAMETER FOUR
 000AA8                            35047  1 4169.21              DC    0D'0'
 000AA8 0000000000000000           35048  1 4169.3    FSVOLWRK   DC    265XL1'00'
 000BB1 000000                            1
 000BB4                            35049  1 4169.4               DC    0A(0)
0                                  35051  1 4171.     DTCAMLST   CAMLST UCATDX,DTRDSN
 000BB4                            35052  1 01-CAMLS +DTCAMLST   DS    0F                                ALIGN ON FULL WORD
 000BB4 0C                         35053  1 01-CAMLS +           DC    AL1(12)                           THREE BYTES OF FLAGS
 000BB5 04                         35054  1 01-CAMLS +           DC    AL1(4)                            INDICATING THE FUNC-
 000BB6 00                         35055  1 01-CAMLS +           DC    AL1(0)                            TION TO BE PERFORMED
 000BB7 00                         35056  1 01-CAMLS +           DC    AL1(0)                            NO OPTION THREE
 000BB8 00000770                   35057  1 01-CAMLS +           DC    A(DTRDSN)                         PARAMETER TWO
 000BBC 00000000                   35058  1 01-CAMLS +           DC    A(0)                              PARAM. THREE OMMITTED
0                                  35060  1 4173.     FSOPNL     OPEN  (*-*,(INPUT)),MF=L
 000BC0                            35061  1 01-OPEN  +FSOPNL     DC    0F'0'                             ALIGN LIST TO FULLWORD
 000BC0 80                         35062  1 01-OPEN  +           DC    AL1(128)                     OPTION BYTE
 000BC1 000000                     35063  1 01-OPEN  +           DC    AL3(*-*)                     DCB ADDRESS
                                   35064  1 4174.     DTOPNLST   OPEN  (DTDCB,(OUTPUT)),MF=L
 000BC4                            35065  1 01-OPEN  +DTOPNLST   DC    0F'0'                             ALIGN LIST TO FULLWORD
1VDMP     (VDMP21) (09:46) (22MAR04) ORVYL's File System Dump Program: Dump task                                            Page  182
0D-Loc  Object Code    Addr1 Addr2  Stmt Lv Lineno    Source Statement           (Hibal 5, Asmedit 3.3)  HLASM R4.0  2004/03/22 09.46
+_____  ______ ____    _____ _____  ____ __ ______    ______ _________
0000BC4 8F                         35066  1 01-OPEN  +           DC    AL1(143)                     OPTION BYTE
 000BC5 000C14                     35067  1 01-OPEN  +           DC    AL3(DTDCB)                   DCB ADDRESS
1VDMP     (VDMP21) (09:46) (22MAR04) ORVYL's File System Dump Program: Dump task                                            Page  183
0D-Loc  Object Code    Addr1 Addr2  Stmt Lv Lineno    Source Statement           (Hibal 5, Asmedit 3.3)  HLASM R4.0  2004/03/22 09.46
+_____  ______ ____    _____ _____  ____ __ ______    ______ _________
0                                  35070  1 4177.     SUBEST     ESTAE SUBREC,CT,TERM=YES,MF=L
                                   35072  1          +*    MACDATE   10/01/94                                        @G860P1C
 000BC8                            35074  1 01-ESTAE +           DS    0F
 000BC8 16                         35075  1 01-ESTAEC+SUBEST     DC    AL1(22)                 FLAGS FOR TCB,PURGE,ASYNCH,
                                          1          +                                         AND CANCEL                  @D1C
 000BC9 000000                     35076  1 01-ESTAE +           DC    AL3(0)                  FIELD NO LONGER USED  @G860P1C
 000BCC 00000000                   35077  1 01-ESTAE +           DC    A(0)                    PARM. LIST ADDR. NOT SPECIFIED
 000BD0 00000000                   35078  1 01-ESTAE +           DC    A(0)                    TCB NOT SPECIFIED
 000BD4 40                         35079  1 01-ESTAE +           DC    AL1(64)                 FLAGS
 000BD5 01                         35080  1 01-ESTAE +           DC    AL1(1)                  THIRD FLAG BYTE       @G860P1C
 000BD6 0000                       35081  1 01-ESTAE +           DC    AL2(0)                  RESERVED              @G860P1C
 000BD8 00000000                   35082  1 01-ESTAE +           DC    A(0)                    TOKEN VALUE AREA      @G81CP2F
 000BDC 000081EA                   35083  1 01-ESTAE +           DC    AL4(SUBREC)             FOUR BYTE EXIT ADDR   @G860P1C
1VDMP     (VDMP21) (09:46) (22MAR04) ORVYL's File System Dump Program: Dump task                                            Page  184
0D-Loc  Object Code    Addr1 Addr2  Stmt Lv Lineno    Source Statement           (Hibal 5, Asmedit 3.3)  HLASM R4.0  2004/03/22 09.46
+_____  ______ ____    _____ _____  ____ __ ______    ______ _________
0                                  35087  1 4181.   C FSDCB      DCB   DDNAME=FILE0,DSORG=PS,DEVD=DA,
                                          1 4182.                      MACRF=(E),EXLST=FSEXLST
0                                  35090  1          +*                       DATA CONTROL BLOCK
                                   35091  1          +*
 000BE0                            35092  1 01-DCB   +FSDCB      DC    0F'0'          ORIGIN ON WORD BOUNDARY
                                   35093  1          +*                       DIRECT ACCESS DEVICE INTERFACE
 000BE0 0000000000000000           35094  1 01-DCB   +           DC    BL16'0'        FDAD, DVTBL
 000BF0 00000000                   35095  1 01-DCB   +           DC    A(0)           KEYLEN, DEVT, TRBAL
                                   35096  1          +*                       COMMON ACCESS METHOD INTERFACE
 000BF4 00                         35097  1 01-DCB   +           DC    AL1(0)         BUFNO, NUMBER OF BUFFERS
 000BF5 000001                     35098  1 01-DCB   +           DC    AL3(1)         BUFCB, BUFFER POOL CONTROL BLOCK
 000BF8 0000                       35099  1 01-DCB   +           DC    AL2(0)         BUFL, BUFFER LENGTH
 000BFA 4000                       35100  1 01-DCB   +           DC    BL2'0100000000000000' DSORG, DATA SET ORGANIZATION
 000BFC 00000001                   35101  1 01-DCB   +           DC    A(1)           IOBAD FOR EXCP OR RESERVED
                                   35102  1          +*                       FOUNDATION EXTENSION
 000C00 00                         35103  1 01-DCB   +           DC    BL1'00000000'  BFTEK, BFALN, DCBE INDICATORS
 000C01 000001                     35104  1 01-DCB   +           DC    AL3(1)         EODAD (END OF DATA ROUTINE ADDRESS)
 000C04 00                         35105  1 01-DCB   +           DC    BL1'00000000'  RECFM (RECORD FORMAT)
 000C05 000A84                     35106  1 01-DCB   +           DC    AL3(FSEXLST)   EXLST (EXIT LIST ADDRESS)
                                   35107  1          +*                       FOUNDATION BLOCK
 000C08 C6C9D3C5F0404040           35108  1 01-DCB   +           DC    CL8'FILE0'     DDNAME
 000C10 02                         35109  1 01-DCB   +           DC    BL1'00000010'  OFLGS (OPEN FLAGS)
 000C11 00                         35110  1 01-DCB   +           DC    BL1'00000000'  IFLGS (IOS FLAGS)
 000C12 D008                       35111  1 01-DCB   +           DC    BL2'1101000000001000' MACR (MACRO FORMAT)
                                   35114  1 4184.     FSIOBAD    DCBQU ,
                                   35116  1 4185.     FSRECTO    DCBQU RECFM,DCBRECTO
                                   35118  1 4186.     FSDEBAD    DCBQU ,
                                   35120  1 4187.     FSFOPEN    DCBQU OFLGS,DCBOFOPN
                                   35122  1 4188.     FSDDNAM    DCBQU ,
                                   35124  1 4189.     FSLRECL    DCBQU ,
                                   35126  1 4190.     FSBLKSI    DCBQU ,
1VDMP     (VDMP21) (09:46) (22MAR04) ORVYL's File System Dump Program: Dump task                                            Page  185
0D-Loc  Object Code    Addr1 Addr2  Stmt Lv Lineno    Source Statement           (Hibal 5, Asmedit 3.3)  HLASM R4.0  2004/03/22 09.46
+_____  ______ ____    _____ _____  ____ __ ______    ______ _________
0                                  35131  1 4194.   C DTDCB      DCB   DDNAME=DUMPTAPE,MACRF=(PM),DSORG=PS,DEVD=DA,
                                          1 4195.                      RECFM=VB,EXLST=DTEXLST
0                                  35134  1          +*                       DATA CONTROL BLOCK
                                   35135  1          +*
 000C14                            35136  1 01-DCB   +DTDCB      DC    0F'0'          ORIGIN ON WORD BOUNDARY
                                   35137  1          +*                       DIRECT ACCESS DEVICE INTERFACE
 000C14 0000000000000000           35138  1 01-DCB   +           DC    BL16'0'        FDAD, DVTBL
 000C24 00000000                   35139  1 01-DCB   +           DC    A(0)           KEYLEN, DEVT, TRBAL
                                   35140  1          +*                       COMMON ACCESS METHOD INTERFACE
 000C28 00                         35141  1 01-DCB   +           DC    AL1(0)         BUFNO, NUMBER OF BUFFERS
 000C29 000001                     35142  1 01-DCB   +           DC    AL3(1)         BUFCB, BUFFER POOL CONTROL BLOCK
 000C2C 0000                       35143  1 01-DCB   +           DC    AL2(0)         BUFL, BUFFER LENGTH
 000C2E 4000                       35144  1 01-DCB   +           DC    BL2'0100000000000000' DSORG, DATA SET ORGANIZATION
 000C30 00000001                   35145  1 01-DCB   +           DC    A(1)           IOBAD FOR EXCP OR RESERVED
                                   35146  1          +*                       FOUNDATION EXTENSION
 000C34 00                         35147  1 01-DCB   +           DC    BL1'00000000'  BFTEK, BFALN, DCBE INDICATORS
 000C35 000001                     35148  1 01-DCB   +           DC    AL3(1)         EODAD (END OF DATA ROUTINE ADDRESS)
 000C38 50                         35149  1 01-DCB   +           DC    BL1'01010000'  RECFM (RECORD FORMAT)
 000C39 000A74                     35150  1 01-DCB   +           DC    AL3(DTEXLST)   EXLST (EXIT LIST ADDRESS)
                                   35151  1          +*                       FOUNDATION BLOCK
 000C3C C4E4D4D7E3C1D7C5           35152  1 01-DCB   +           DC    CL8'DUMPTAPE'  DDNAME
 000C44 02                         35153  1 01-DCB   +           DC    BL1'00000010'  OFLGS (OPEN FLAGS)
 000C45 00                         35154  1 01-DCB   +           DC    BL1'00000000'  IFLGS (IOS FLAGS)
 000C46 0050                       35155  1 01-DCB   +           DC    BL2'0000000001010000' MACR (MACRO FORMAT)
                                   35156  1          +*                       BSAM-BPAM-QSAM INTERFACE
 000C48 00                         35157  1 01-DCB   +           DC    BL1'00000000'  OPTCD, OPTION CODES
 000C49 000001                     35158  1 01-DCB   +           DC    AL3(1)         CHECK OR INTERNAL QSAM SYNCHRONIZING RTN.
 000C4C 00000001                   35159  1 01-DCB   +           DC    A(1)           SYNAD, SYNCHRONOUS ERROR RTN. (3 BYTES)
 000C50 0000                       35160  1 01-DCB   +           DC    H'0'           INTERNAL ACCESS METHOD FLAGS
 000C52 0000                       35161  1 01-DCB   +           DC    AL2(0)         BLKSIZE, BLOCK SIZE
 000C54 00000000                   35162  1 01-DCB   +           DC    F'0'           INTERNAL ACCESS METHOD FLAGS
 000C58 00000001                   35163  1 01-DCB   +           DC    A(1)           INTERNAL ACCESS METHOD USE
                                   35164  1          +*                            QSAM INTERFACE
 000C5C 00000001                   35165  1 01-DCB   +           DC    A(1)           EOBAD
 000C60 00000001                   35166  1 01-DCB   +           DC    A(1)           RECAD
 000C64 0000                       35167  1 01-DCB   +           DC    H'0'           QSWS (FLAGS) AND EITHER DIRCT OR BUFOFF
 000C66 0000                       35168  1 01-DCB   +           DC    AL2(0)         LRECL
 000C68 00                         35169  1 01-DCB   +           DC    BL1'00000000'  EROPT, ERROR OPTION
 000C69 000001                     35170  1 01-DCB   +           DC    AL3(1)         CNTRL
 000C6C 00000000                   35171  1 01-DCB   +           DC    H'0,0'         RESERVED AND PRECL
 000C70 00000001                   35172  1 01-DCB   +           DC    A(1)           EOB, INTERNAL ACCESS METHOD FIELD
                                   35174  1 4197.     DTFOPEN    DCBQU OFLGS,DCBOFOPN
                                   35176  1 4198.     DTLRECL    DCBQU ,
                                   35178  1 4199.     DTBLKSI    DCBQU ,
                                   35180  1 4200.     DTDDNAM    DCBQU ,
                                   35182  1 4201.     DTBUFCA    DCBQU ,
                                   35184  1 4202.     DTDEBAD    DCBQU ,                       DEB ADDRESS
                                   35186  1 4203.     DTRECFM    DCBQU ,                       RECFM ADDRESS
-000C74                00C74 00C74 35189    4205.              END   ,
1VDMP     (VDMP21) (09:46) (22MAR04) ORVYL's File System Dump Program: Dump task                                            Page  186
0Loc    Object Code    Addr1 Addr2  Stmt Lv Lineno    Source Statement           (Hibal 5, Asmedit 3.3)  HLASM R4.0  2004/03/22 09.46
+___    ______ ____    _____ _____  ____ __ ______    ______ _________
0                                  35199    4207.     ********************************************************************
                                   35200    4208.     *                                                                  *
                                   35201    4209.     *  Main entry point for multitasking dump segments                 *
                                   35202    4210.     *                                                                  *
                                   35203    4211.     *        Initialize the subtask work area                          *
                                   35204    4212.     *                                                                  *
                                   35205    4213.     *  CAUTION:  While in subtask mode there is addressability to      *
                                   35206    4214.     *            main dump work area but each routine must guarantee   *
                                   35207    4215.     *            sequential access if it intends to modify any area    *
                                   35208    4216.     *            within the dump work area.                            *
                                   35209    4217.     *                                                                  *
                                   35210    4218.     *            Currently the communications lock is used to sequence *
                                   35211    4219.     *            update operations to the dump work area.              *
                                   35212    4220.     *                                                                  *
                                   35213    4221.     ********************************************************************
0004D90                            35215    4223.     DMPSEG   LABEL ,                   Enter and save registers
 004D90 90EC D00C            0000C 35217    4224.              STM   R14,R12,@R13+12     Save calling registers
 004D94 187F                       35218    4225.              LR    BR,R15              Copy entry address
 USING  DMPSEG,R7                  35219    4226.              USING DMPSEG,BR           ## Subtask addressability
 004D96 1821                       35228    4227.              LR    SR,R1               Save address of parameter block
 004D98 47F0 7014/0000_      04DA4 35229    4228.              GETMAIN RC,LV=L'SWA,BNDRY=PAGE
 004DB0 12FF/4780 7036             35243    4229.              IF    (R15,NZ),BEGIN      Insufficient main left for subtask
 USING  SUBPARM,R2                 35257  1 4230.                WITH  (SUBPARM,SR),BEGIN  Addressability to subparm
 004DB6 41F0 001C            0001C 35271  2 4231.                  LA    R15,28              Set insufficient memory return
 004DBA 50F0 201C            0001C 35272  2 4232.                  ST    R15,SUBRET          Save return code in subparm block
 004DBE 9640 2024      00024       35273  2 4233.                  SET   SUBFAIL             Set subtask failure flag
 004DC2 47F0 78CA            0565A 35279  2 4234.                  B     DMPXIT2             Return from subtasking code
 DROP   SUBPARM,R2                 35280  1 4235.                END   ,                   Release addressability
 004DC6                            35288    4236.              END   ,
0004DC6 18B1                       35293    4238.              LR    SWR,R1              Copy address
 004DC8 1801                       35294    4239.              LR    R0,R1               Copy address again for clear
 004DCA 4110 0C74            00C74 35295    4240.              LA    R1,L'SWA              And length to clear
 004DCE 1BFF                       35296    4241.              CLEAR R15                     Zero from length
 004DD0 0E0E                       35300    4242.              MVCL  R0,R14                    And zero gotton memory
1VDMP     (VDMP21) (09:46) (22MAR04) ORVYL's File System Dump Program: Dump task                                            Page  187
0Current Usings:  (DMPSEG,R7)
0Loc    Object Code    Addr1 Addr2  Stmt Lv Lineno    Source Statement           (Hibal 5, Asmedit 3.3)  HLASM R4.0  2004/03/22 09.46
+___    ______ ____    _____ _____  ____ __ ______    ______ _________
0                                  35302    4244.     ********************************************************************
                                   35303    4245.     *                                                                  *
                                   35304    4246.     *   Switch Base Registers.                                         *
                                   35305    4247.     *                                                                  *
                                   35306    4248.     *        Register 12 addresses the subtask work area.              *
                                   35307    4249.     *        Register 11 addresses the main dump work area.            *
                                   35308    4250.     *                                                                  *
                                   35309    4250.1    *        CAUTION:                                                  *
                                   35310    4251.     *        The seg routines expect the address of a work area at     *
                                   35311    4252.     *        zero bytes past register 12.                              *
                                   35312    4253.     *                                                                  *
                                   35313    4254.     ********************************************************************
0004DD2 17BC                       35315    4256.              XR    SWR,DWR             Swap register values
 004DD4 17CB                       35316    4257.              XR    DWR,SWR               for main dump work area
 004DD6 17BC                       35317    4258.              XR    SWR,DWR                 and the subtask work area
0USING  DWA,R11                    35319    4260.              USING DWA,SWR             Declare base for subtask
 USING  SWA,R12                    35328    4261.              USING SWA,DWR             Declare base for mainline
 USING  DUMP,R6                    35337    4262.              USING DUMP,BRR            Declare base for common
0004DD8 5020 C010            00010 35347    4264.              ST    SR,PBLKADR          Save parameter block address
 004DDC D20B C004 79C0 00004 05750 35348    4265.              MVC   SWANAME(3*4),=3CL4'SWA '      Set eye-catcher field
0004DE2 5800 79CC            0575C 35350    4267.              L     R0,=A(STSTCKSZ)     Set stack size for subtask
 004DE6 5000 C0D4            000D4 35351    4268.              ST    R0,SUBSLN           Save length of subtask stack
 004DEA 0700/47F0 7064_            35352    4269.              GETMAIN RC,LV=(0),BNDRY=PAGE  regquest memory for stack
 004DFC 12FF/4780 707A             35364    4270.              IF    (R15,NZ),BEGIN      Insufficient main memory left
 004E02 9220 B05B      0005B       35378  1 4271.                MVI   RETCODE+3,NO_MEM    Set return code
 004E06 47F0 7870            05600 35379  1 4272.                B     DMPXIT1             And just return from subtasking
 004E0A                            35380    4273.              END   ,
 004E0A 5010 C0D8            000D8 35384    4274.              ST    R1,SUBSAD           Save save stack address
 004E0E 50D0 C0D0            000D0 35385    4275.              ST    R13,SUBVS           Save vs area address
 004E12 18D1                       35386    4276.              LR    R13,R1              And set save stack register
0                                  35388    4277.1             ¿þþþþþþþþþþþþþþþþþþþþþþþþþþþþþþþþþþÜ
                                   35389    4277.2             Ÿ  Prime VDMP exit parameter list  Ÿ
                                   35390    4277.3             ¾þþþþþþþþþþþþþþþþþþþþþþþþþþþþþþþþþþ»
 004E14 B205 C0B8      000B8       35391    4278.              STCK  STARTIME            Set subtask starting time
 004E18 D207 C0DC 7998 000DC 05728 35392    4279.              MVC   SYSPDDN,=CL8'SYSPRT'    Set report file ddname
 004E1E D207 C154 79A0 00154 05730 35393    4280.              MVC   FSDDN,=CL8'FILE'    Default FILE ddname prefix
 004E24 D207 CA6C 79A0 00A6C 05730 35394    4281.              MVC   CNTDDN,=CL8'FILE'   Set default FILE ddname
 004E2A D207 C678 79A8 00678 05738 35395    4282.              MVC   DTDDN,=CL8'TAPE'    Default TAPE ddname prefix
 USING  SUBPARM,R2                 35396    4283.              WITH  (SUBPARM,SR),BEGIN  Addressability to parameters
 004E30 D247 C014 B1CC 00014 001CC 35410  1 4283.01              MVC   SUBTXPRM,MAINXPRM   Initialize VDMP exit routine parm
 004E36 4110 C014            00014 35411  1 4283.02              LA    R1,SUBTXPRM         Address of subtask exit parm
 USING  VDMPEXIT,R1                35412  1 4283.03              WITH  (VDMPEXIT,R1)       Addressability to exit list
 004E3A F271 C098 2051 00098 00051 35425  1 4283.1               PACK  SWORK,SUBSEG        Pack segment number
 004E40 4F00 C098            00098 35426  1 4283.2               CVB   R0,SWORK            Convert segment number to binary
 004E44 5000 1014            00014 35427  1 4283.3               ST    R0,VDMP_SEG         Save segment number for exit
 004E48 D201 C67C 2051 0067C 00051 35428  1 4284.                MVC   DTDDSEG,SUBSEG      Set tape segment number
 004E4E D201 C158 2051 00158 00051 35429  1 4285.                MVC   FSDDSEG,SUBSEG      Set file segment number
 004E54 D201 C0E2 2051 000E2 00051 35430  1 4286.                MVC   SYSPDDN+6(2),SUBSEG Set print file ddname
 004E5A D203 C148 200C 00148 0000C 35431  1 4287.                MVC   FSABS,SUBSTART      Set initial orvyl block number
1VDMP     (VDMP21) (09:46) (22MAR04) ORVYL's File System Dump Program: Dump task                                            Page  188
0Current Usings:  (DUMP,R6) (DMPSEG,R7) (DWA,R11) (SWA,R12)
0Loc    Object Code    Addr1 Addr2  Stmt Lv Lineno    Source Statement           (Hibal 5, Asmedit 3.3)  HLASM R4.0  2004/03/22 09.46
+___    ______ ____    _____ _____  ____ __ ______    ______ _________
0DROP   VDMPEXIT,R1                35432    4288.              END   ,
 DROP   SUBPARM,R2
1VDMP     (VDMP21) (09:46) (22MAR04) ORVYL's File System Dump Program: Dump task                                            Page  189
0Current Usings:  (DUMP,R6) (DMPSEG,R7) (DWA,R11) (SWA,R12)
0Loc    Object Code    Addr1 Addr2  Stmt Lv Lineno    Source Statement           (Hibal 5, Asmedit 3.3)  HLASM R4.0  2004/03/22 09.46
+___    ______ ____    _____ _____  ____ __ ______    ______ _________
0                                  35446    4290.     ********************************************************************
                                   35447    4291.     *                                                                  *
                                   35448    4292.     ** Initialize SVC99 parameter areas for allocation                 *
                                   35449    4293.     *                                                                  *
                                   35450    4294.     ********************************************************************
-004E60 4130 C9BC            009BC 35452    4295.1             LA    TR,FDYNRB           Address of parameter list
 USING  S99RB,R3                   35453    4295.2             WITH  (S99RB,TR),BEGIN    Addressability to parm list
 004E64 4100 C9BC            009BC 35467  1 4296.                LA    R0,FDYNRB           Address of SVC99 request block
 004E68 5000 C9B8            009B8 35468  1 4297.                ST    R0,FDYNP            Save pointer
 004E6C 9680 C9B8      009B8       35469  1 4298.                OI    FDYNP,X'80'         Mark end of list
 004E70 4100 C9F0            009F0 35470  1 4299.                LA    R0,SFILDD           Address of DDNAME unit
 004E74 5000 C9D0            009D0 35471  1 4300.                ST    R0,SFILPTRS+0           Set into pointer list
 004E78 4100 C9FE            009FE 35472  1 4301.                LA    R0,SFILDSN          Address of DSN unit
 004E7C 5000 C9D4            009D4 35473  1 4302.                ST    R0,SFILPTRS+4           Set into pointer list
 004E80 4100 CA4E            00A4E 35474  1 4303.                LA    R0,SFILDISP         Address of FREE=CLOSE
 004E84 5000 C9D8            009D8 35475  1 4304.                ST    R0,SFILPTRS+8           Set into pointer list
 004E88 4100 CA42            00A42 35476  1 4305.                LA    R0,SFILVOL          Address of DISP unit
 004E8C 5000 C9DC            009DC 35477  1 4306.                ST    R0,SFILPTRS+12          Set into pointer list
 004E90 4100 CA34            00A34 35478  1 4307.                LA    R0,SFILUNIT         Address of UNIT text unit
 004E94 5000 C9E0            009E0 35479  1 4308.                ST    R0,SFILPTRS+16          Set into pointer list
 004E98 4100 CA30            00A30 35480  1 4309.                LA    R0,SFILFRE          Address of FREE=CLOSE unit
 004E9C 5000 C9E4            009E4 35481  1 4310.                ST    R0,SFILPTRS+20          Set into pointer list
 004EA0 9680 C9E4      009E4       35482  1 4311.                OI    SFILPTRS+20,X'80'   Set last point unit flag
 004EA4 9214 3000      00000       35483  1 4314.                MVI   S99RBLN,20          Set length of parm list
 004EA8 9201 3001      00001       35484  1 4315.                MVI   S99VERB,S99VRBAL    Set an allocation request
 004EAC 9220 3002      00002       35485  1 4316.                MVI   S99FLG11,S99NOMNT   Don't mount volumes
 004EB0 4100 C9D0            009D0 35486  1 4317.                LA    R0,SFILPTRS         Address for pointer units
 004EB4 5000 3008            00008 35487  1 4318.                ST    R0,S99TXTPP         Set address in list
 004EB8 D205 C9F0 7A54 009F0 057E4 35488  1 4319.                MVC   SFILDD(6),=AL2(DALDDNAM,1,8)
 004EBE D205 C9FE 7A5A 009FE 057EA 35489  1 4320.                MVC   SFILDSN(6),=AL2(DALDSNAM,1,44)
 004EC4 D203 CA30 79D0 00A30 05760 35490  1 4321.                MVC   SFILFRE(4),=AL2(DALCLOSE,0)
 004ECA D205 CA34 7A60 00A34 057F0 35491  1 4322.                MVC   SFILUNIT(6),=AL2(DALUNIT,1,8)
 004ED0 D205 CA42 7A66 00A42 057F6 35492  1 4323.                MVC   SFILVOL(6),=AL2(DALVLSER,1,6)
 004ED6 D205 CA4E 7A6C 00A4E 057FC 35493  1 4324.                MVC   SFILDISP(6),=AL2(DALSTATS,1,1)
 004EDC 9208 CA54      00A54       35494  1 4325.                MVI   SFILDISP+6,X'08'             DISP=SHR
 004EE0 D207 CA3A 79B0 00A3A 05740 35495  1 4326.                MVC   SFILUNIT+6(8),=CL8'SYSALLDA' Its always disk, sorry
                                   35496  1 4327.          ¿þþþþþþþþþþþþþþþþþþþþþþþþþþþþþþþþÜ
                                   35497  1 4328.          Ÿ  Initialize SYSOUT=$ pointers  Ÿ
                                          1                ¾þþþþþþþþþþþþþþþþþþþþþþþþþþþþþþþþ»
                                   35498  1 4329.     *
 004EE6 4100 CA55            00A55 35499  1 4330.                LA    R0,SUBDD                Address of ddname specification
 004EEA 5000 C9E8            009E8 35500  1 4331.                ST    R0,SUBSYS+0             Set into pointer list
 004EEE 4100 CA63            00A63 35501  1 4332.                LA    R0,SUBOUT               Address of sysout=$
 004EF2 5000 C9EC            009EC 35502  1 4333.                ST    R0,SUBSYS+4             Set into pointer list
 004EF6 9680 C9EC      009EC       35503  1 4334.                OI    SUBSYS+4,X'80'          Mark end of pointer list
 004EFA D205 CA55 7A54 00A55 057E4 35504  1 4335.                MVC   SUBDD(6),=AL2(DALDDNAM,1,8)   Set DDNAME unit
 004F00 D207 CA5B C0DC 00A5B 000DC 35505  1 4336.                MVC   SUBDD+6(8),SYSPDDN            Set actual print name
 004F06 D203 CA63 79D4 00A63 05764 35506  1 4337.                MVC   SUBOUT(4),=AL2(DALSYSOU,0)    Set sysout class $
 004F0C 4110 C9E8            009E8 35507  1 4338.                LA    R1,SUBSYS           Address of SVC99 request block
 004F10 5010 3008            00008 35508  1 4339.                ST    R1,S99TXTPP         Link up
 004F14 4110 C0DC            000DC 35509  1 4341.                LA    R1,SYSPDDN          Check to see if its there
 004F18 5890 79D8/0D99       05768 35510  1 4342.                ACALL FINDDD              Check via tiot
1VDMP     (VDMP21) (09:46) (22MAR04) ORVYL's File System Dump Program: Dump task                                            Page  190
0Current Usings:  (S99RB,R3) (DUMP,R6) (DMPSEG,R7) (DWA,R11) (SWA,R12)
0Loc    Object Code    Addr1 Addr2  Stmt Lv Lineno    Source Statement           (Hibal 5, Asmedit 3.3)  HLASM R4.0  2004/03/22 09.46
+___    ______ ____    _____ _____  ____ __ ______    ______ _________
0004F1E 4780 71AE            04F3E 35514  1 4343.                IF    NZ,BEGIN            Not there -- allocate it
 004F22 4110 C9B8            009B8 35525  2 4344.                  LA    R1,FDYNP
 004F26 0A63                       35526  2 4345.                  DYNALLOC ,
 004F28 12FF/4780 71AE_            35529  2 4346.                  IF    (R15,NZ),'ABEND 123,DUMP'
 004F3E                            35557  1 4347.                END   ,
 004F3E 4100 C9D0            009D0 35561  1 4350.                LA    R0,SFILPTRS
 004F42 5000 3008            00008 35562  1 4351.                ST    R0,S99TXTPP
 DROP   S99RB,R3                   35563  1 4352.                DROP  TR
 004F46 5890 79DC/0D99       0576C 35570  1 4353.                ACALL SINIT               Report initial subtask messages
 004F4C 4110 7B58/4100_      058E8 35574  1 4354.                VSEG  'VDMP202I - Begin subtask for segment '
 004F5A 4110 C67C/4100_      0067C 35583  1 4355.                VSEG  DTDDSEG,2           Add segment number
                                   35604    4355.1             END   ,                   End of S99 parm list addressability
 004F68 5890 79E4/0D99       05774 35609    4356.              VWRITE ,                  WRITE TO THE REPORT FILE
0004F6E 9140 B1C6/47E0_001C6       35615    4358.              IF    FNCINC,BEGIN        Only for incremental processing
 004F76 9180 B1C7/47E0_001C7       35630  1 4359.                IF    TFRATE,BEGIN        Report initial subtask i/o rate
 004F7E 4110 7A72/4100_      05802 35645  2 4360.                  VSEG  'VDMP208I - Initial subtask target I/O rate is '
 004F8C 5810 B184            00184 35654  2 4361.                  L     R1,GIOLIMIT         Set global desired rate
 004F90 5C00 79E8            05778 35655  2 4362.                  M     R0,=A(100)          Prepare for division
 004F94 5820 B140            00140 35656  2 4363.                  L     SR,STACTIVE         Set active subtasks
 004F98 4C20 7AA0            05830 35657  2 4364.                  MH    SR,=H'100'          Adjust divisor for scaling
 004F9C 1D02                       35658  2 4365.                  DR    R0,SR               Compute subtask i/o rate
 004F9E 18F1                       35659  2 4366.                  LR    R15,R1              Move subtask i/o rate
 004FA0 4110 B010            00010 35660  2 4367.                  LA    R1,WORK             Address of work area
 004FA4 4100 0002            00002 35661  2 4368.                  LA    R0,2                And two decimal places
 004FA8 58E0 79EC/0DEE       0577C 35662  2 4369.                  XCALL BTR                 Format i/o rate
 004FAE 5890 79E0/0D99       05770 35666  2 4370.                  VSEG  (R1),(R0)           Add to message
 004FB4 5890 79E4/0D99       05774 35681  2 4371.                  VWRITE ,                  Write to report file
 004FBA                            35686  1 4372.                END   ,
 004FBA                            35690    4373.              END   ,
1VDMP     (VDMP21) (09:46) (22MAR04) ORVYL's File System Dump Program: Dump task                                            Page  191
0Current Usings:  (DUMP,R6) (DMPSEG,R7) (DWA,R11) (SWA,R12)
0Loc    Object Code    Addr1 Addr2  Stmt Lv Lineno    Source Statement           (Hibal 5, Asmedit 3.3)  HLASM R4.0  2004/03/22 09.46
+___    ______ ____    _____ _____  ____ __ ______    ______ _________
0                                  35695    4375.     ¿þþþþþþþþþþþþþþþþþþþþþþþþþþþþþþþþþþþþþþþþþþþþþþþþþþþþþþþþþþþþþþþþþþþþþÜ
                                   35696    4376.     Ÿ                                                                     Ÿ
                                   35697    4377.     Ÿ  Allocate all defined file system volumes                           Ÿ
                                   35698    4377.1    Ÿ                                                                     Ÿ
                                   35699    4377.2    Ÿ        Allow switch to EMC Business Continuance Volume if           Ÿ
                                   35700    4377.3    Ÿ        requested via the EXEC parameter switch                      Ÿ
                                   35701    4378.     Ÿ                                                                     Ÿ
                                   35702    4378.1    Ÿ        Move FREE=CLOSE up in pointer list to offset +12 (!)         Ÿ
                                   35703    4379.     Ÿ                                                                     Ÿ
                                                      ¾þþþþþþþþþþþþþþþþþþþþþþþþþþþþþþþþþþþþþþþþþþþþþþþþþþþþþþþþþþþþþþþþþþþþþ»
0004FBA 5850 C010            00010 35705    4381.              L     RR,PBLKADR          Set address of parameter block
 USING  SUBPARM,R5                 35706    4382.              USING SUBPARM,RR          ## Addressability to block
 004FBE 4120 5053            00053 35715    4383.              LA    SR,SUBDSN           First FILE,VOLUME group
 004FC2 5840 5020            00020 35716    4384.              L     QR,SUBCNT           And count of files defined
 004FC6 1244/4780 743A             35717    4385.              WHILE (QR,NZ),BEGIN       Allocate all file volumes
 USING  DSNENTRY,R2                35733  1 4385.1               WITH  (DSNENTRY,SR)       Addressability to DSN,VOLpair
 004FCC D22B CA04 2000 00A04 00000 35746  1 4386.                MVC   SFILDSN+6(44),DSNENTRY  Set current data set name
                                          1                ¿þþþþþþþþþþþþþþþþþþþþþþþþþþþþþþþþþþþþþþþþþþþþþþþþþþþþþþþþþþÜ
                                   35747  1 4386.01        Ÿ  ?work Check for volume specified or dumping from BCV's  Ÿ
                                          1                ¾þþþþþþþþþþþþþþþþþþþþþþþþþþþþþþþþþþþþþþþþþþþþþþþþþþþþþþþþþþ»
 004FD2 9540 202C      0002C       35748  1 4386.02              CLI   DSNVOL,C' '         Volume serial blank?
 004FD6 4770 7252/9180_      04FE2 35749  1 4386.03              IF    (NE,OR,FL_BCV),BEGIN    Volume specified or BCV
 004FE2 947F C9D8      009D8       35774  2 4386.04                NI    SFILPTRS+8,X'7F'        Zero end of list
 004FE6 D205 CA48 202C 00A48 0002C 35775  2 4386.05                MVC   SFILVOL+6(6),DSNVOL     Set current volume serial
 004FEC 9180 B1C1/47E0_001C1       35776  2 4386.06                IF    FL_BCV,BEGIN            Dumping from BCV volume
 004FF4 4100 0044            00044 35791  3 4386.07                  LA    R0,X'44'            Set flag bytes
 004FF8 8900 0018            00018 35792  3 4386.08                  SLL   R0,24               Move it over
 004FFC 5000 CA98            00A98 35793  3 4386.09                  ST    R0,FSVOLCAM         Set CAMLST flag bytes
 005000 4100 2000            00000 35794  3 4386.1                   LA    R0,DSNENTRY         Address of data set name
 005004 5000 CA9C            00A9C 35795  3 4386.11                  ST    R0,FSVOLCAM+4       Save in CAMLST parameter list
 005008 4100 CAA8            00AA8 35796  3 4386.12                  LA    R0,FSVOLWRK         Address of work area
 00500C 5000 CAA4            00AA4 35797  3 4386.13                  ST    R0,FSVOLCAM+12      Save in parameter list
 005010 4110 CA98/0A1A       00A98 35798  3 4386.15                  LOCATE FSVOLCAM           Issue catalog locate
 005016 12FF/4780 72B4             35802  3 4386.16                  IF    (R15,NZ),BEGIN      Error in locate, will terminate
 00501C 4110 7B7D/4100_      0590D 35816  4 4386.17                    VSEG  'VDMP388E - Unable to locate volume for DSN='
 00502A 1812/4100 0034_            35825  4 4386.18                    VSEG  DSNENTRY            Add requested data set name
 005036 5890 79E4/0D99       05774 35844  4 4386.19                    VWRITE ,                  Write to report file.
 00503C 9218 C0C3      000C3       35849  4 4386.2                     MVI   SRETCODE+3,DYN_ALC  Set subtask return code
 005040 47F0 7512            052A2 35850  4 4386.21                    B     DONEDUMP            And exit subtask
 005044                            35851  3 4386.22                  END   ,                   End of error abort
 005044 D205 202C CAAE 0002C 00AAE 35855  3 4386.84                  MVC   DSNVOL,FSVOLWRK+6   Move in located volume
 00504A D205 CA48 CAAE 00A48 00AAE 35856  3 4386.85                  MVC   SFILVOL+6(6),FSVOLWRK+6 And again for change
 005050 92C2 CA48      00A48       35857  3 4386.86                  MVI   SFILVOL+6,C'B'      Make volume Bnnnnn
 005054 4110 79F0/4100_      05780 35858  3 4386.87                  VSEG  'VDMP387I - Switching volume '
 005062 4110 202C/4100_      0002C 35867  3 4386.88                  VSEG  DSNVOL              Add cataloged volume
 005070 4110 7AA2/4100_      05832 35886  3 4386.89                  VSEG  ' to paired BCV volume '
 00507E 4110 CA48/4100_      00A48 35895  3 4386.9                   VSEG  SFILVOL+6,6             complete message
 00508C 5890 79E4/0D99       05774 35916  3 4386.91                  VWRITE ,                      write to report file
 005092 4100 0010/4110_      00010 35921  3 4386.92                  VCNTL BLANK,11                add spacing for 2nd line
 0050A0 4110 79B8/4100_      05748 35940  3 4386.93                  VSEG  'For DSN='              Report on which DSN
 0050AE 4110 2000/4100_      00000 35949  3 4386.94                  VSEG  DSNNAME                 Add the DSN we are switching
 0050BC 5890 79E4/0D99       05774 35968  3 4386.95                  VWRITE ,                      write to report file
 0050C2                            35973  2 4386.96                END   ,
1VDMP     (VDMP21) (09:46) (22MAR04) ORVYL's File System Dump Program: Dump task                                            Page  192
0Current Usings:  (DSNENTRY,R2) (SUBPARM,R5) (DUMP,R6) (DMPSEG,R7) (DWA,R11) (SWA,R12)
0Loc    Object Code    Addr1 Addr2  Stmt Lv Lineno    Source Statement           (Hibal 5, Asmedit 3.3)  HLASM R4.0  2004/03/22 09.46
+___    ______ ____    _____ _____  ____ __ ______    ______ _________
00050C2 7336/47F0 733A 050C2 04FE0 35977  1 4386.97              END   ELSE,BEGIN
 0050C6 9680 C9D8      009D8       35992  2 4386.98                OI    SFILPTRS+8,X'80'    Mark end of list
 0050CA                            35993  1 4386.99              END   ,
 0050CA D201 CA70 5051 00A70 00051 35997  1 4391.                MVC   CNTDDSEG(2),SUBSEG  Set segment into ddname
 0050D0 58F0 CA68/1B00_      00A68 35998  1 4395.1               BTD   CNTDDFNO,0,CNTFNO
 0050E0 D207 C9F6 CA6C 009F6 00A6C 36019  1 4396.                MVC   SFILDD+6(8),CNTDDN  Set it, lets go
 0050E6 4100 0001/5E00_      00001 36020  1 4397.                INCR  R0,CNTFNO           Bump file number for next pass
 0050F2 4110 CA6C            00A6C 36026  1 4398.                LA    R1,CNTDDN           Check if its already there
 0050F6 5890 79D8/0D99       05768 36027  1 4399.                ACALL FINDDD              Via tiot search routine
 0050FC 4780 742E            051BE 36031  1 4400.                IF    NZ,BEGIN            Not there, allocate it
 005100 4110 C9B8            009B8 36042  2 4401.                  LA    R1,FDYNP            Address of parameter list
 005104 0A63                       36043  2 4402.                  DYNALLOC ,                Issue dynamic request
 005106 12FF/4780 742E             36046  2 4403.                  IF    (R15,NZ),BEGIN      Error during request
 00510C 183F                       36060  3 4404.                    LR    TR,R15              Save return code for awhile
 00510E 4110 7BA8/4100_      05938 36061  3 4405.                    VSEG  'VDMP123E - Error allocating file volumes.'
 00511C 5890 79E4/0D99       05774 36070  3 4406.                    VWRITE ,                  Write to report file
 005122 4100 0010/4110_      00010 36075  3 4407.                    VCNTL BLANK,11            Add spacers
 005130 4110 7BD1/4100_      05961 36094  3 4408.                    VSEG  'Return('           Set return code message
 00513E 18F3/1B00/4110_            36103  3 4409.                    SEGDC 0,(TR),WORK=SWORK   Add return code to message
 005152 4110 7BD8/4100_      05968 36142  3 4410.                    VSEG  ')  Error('         Set error reason code
 005160 1FFF/BFF3 C9C0             36151  3 4411.                    L2    R15,FDYNRB+4        Get error reason code
 005166 4100 0004/4110_      00004 36159  3 4412.                    SEGHX 4,(R15),WORK=SWORK  And add to message line
 00517A 4110 7AB8/4100_      05848 36200  3 4413.                    VSEG  ')  Reason('        Set reason code
 005188 1FFF/BFF3 C9C2             36209  3 4414.                    L2    R15,FDYNRB+6        Get reason code from svc99 rb
 00518E 4100 0004/4110_      00004 36217  3 4415.                    SEGHX 4,(R15),WORK=SWORK  And add to message
 0051A2 4110 7BE1/4100_      05971 36258  3 4416.                    VSEG  ')'                 Add trailing ")"
 0051B0 5890 79E4/0D99       05774 36267  3 4417.                    VWRITE ,                  Write to report file
 0051B6 9218 C0C3      000C3       36272  3 4418.                    MVI   SRETCODE+3,DYN_ALC  Set subtask return code
 0051BA 47F0 7512            052A2 36273  3 4419.                    B     DONEDUMP            And exit subtask
 0051BE                            36274  2 4420.                  END   ,
 0051BE                            36278  1 4421.                END   ,
 0051BE 4120 2034            00034 36282  1 4422.                LA    SR,DSNENTNX         Address next file,volume pair
 0051C2 5B40 7A18            057A8 36283  1 4423.                S     QR,=A(1)            Decrement count
 0051C6 47F0 7236            04FC6 36284    4424.              END   ,
 DROP   DSNENTRY,R2
 DROP   SUBPARM,R5                 36294    4425.              DROP  RR                  ## release subparm addressability
1VDMP     (VDMP21) (09:46) (22MAR04) ORVYL's File System Dump Program: Dump task                                            Page  193
0Current Usings:  (DUMP,R6) (DMPSEG,R7) (DWA,R11) (SWA,R12)
0Loc    Object Code    Addr1 Addr2  Stmt Lv Lineno    Source Statement           (Hibal 5, Asmedit 3.3)  HLASM R4.0  2004/03/22 09.46
+___    ______ ____    _____ _____  ____ __ ______    ______ _________
0                                  36302    4427.     ********************************************************************
                                   36303    4428.     *                                                                  *
                                   36304    4429.     *    Dump outer loop - One pass per file ddcard                    *
                                   36305    4430.     *                                                                  *
                                   36306    4431.     ********************************************************************
0USING  IOB,R10                    36308    4433.              USING IOB,IOBREG          ## set iob addressability
 0051CA                            36317    4434.              LOOP  BEGIN               Start of volume loop
 0051CA 9110 CC44/47E0_00C44       36323  1 4435.                IF    DTFOPEN,BEGIN       Report elapsed time if tape open
 0051D2 5890 7A1C/0D99       057AC 36338  2 4436.                  ACALL VELAP               Issue elapsed time for volume
 0051D8                            36342  1 4437.                END   ,
 0051D8 5890 7A20/0D99       057B0 36346  1 4438.                ACALL SETUPFS             Open next file volume for dumping
 0051DE 4720 7512            052A2 36350  1 4439.                IF    P,EXIT              No file dd found, end of dump
 0051E2 4740 78D4            05664 36364  1 4440.                IF    M,FSDEVERR          Device error opening file
 0051E6 9110 CC44/47E0_00C44       36378  1 4441.                IF    DTFOPEN,BEGIN       Force eov if tape already open
 0051EE 9140 B1C0/47E0_001C0       36393  2 4442.                  IF    FLFEOV,BEGIN        Actually feov only if it's on tape
 0051F6 9620 C060      00060       36408  3 4443.                    SET   EOVNEW              Set new file volume
 0051FA 5890 7A24/0D99       057B4 36414  3 4444.                    ACALL EOVMSG              Report switching volumes
 005200                            36418  2 4445.                  END   ,
 005200 7474/47F0 747E 05200 051EC 36422  1 4446.                END   ELSE,BEGIN          Dump tape not opened
 005204 5890 7A28/0D99       057B8 36437  2 4447.                  ACALL SETUPDT             Initialize dump tape for output
 00520A 4770 795C            056EC 36441  2 4448.                  IF    NZ,DTDEVERR         Device error occurred on tape
 00520E                            36455  1 4449.                END   ,
000520E 58A0 CBFC            00BFC 36460  1 4451.                L     IOBREG,FSIOBAD      Set first iob in chain
 005212 B205 C138      00138       36461  1 4452.                STCK  FSSTCK              Mark starting time
 005216 9180 A03C/4710_0003C       36462  1 4453.                WHILE ~IOBEXCPD,BEGIN     Start an i/o on each iob in chain
 00521E 5890 7A2C/0D99       057BC 36479  2 4454.                  ACALL READFS              Fire up an i/o for this iob
 005224 4740 78D4            05664 36483  2 4455.                  IF    M,FSDEVERR          Error occurred starting i/o
 005228 58A0 A02C            0002C 36497  2 4456.                  L     IOBREG,IOBNXIOB     Load next iob in chain
 00522C 47F0 7486            05216 36498  1 4457.                END  ,                    While ~iobexcpd
1VDMP     (VDMP21) (09:46) (22MAR04) ORVYL's File System Dump Program: Dump task                                            Page  194
0Current Usings:  (DUMP,R6) (DMPSEG,R7) (IOB,R10) (DWA,R11) (SWA,R12)
0Loc    Object Code    Addr1 Addr2  Stmt Lv Lineno    Source Statement           (Hibal 5, Asmedit 3.3)  HLASM R4.0  2004/03/22 09.46
+___    ______ ____    _____ _____  ____ __ ______    ______ _________
0                                  36504  1 4459.     ********************************************************************
                                   36505  1 4460.     *                                                                  *
                                   36506  1 4461.     *    Main dump loop - Chain thru IOB's (circular chain) until      *
                                   36507  1 4462.     *    one is found which does not have an excp outstanding.  this   *
                                   36508  1 4463.     *    signals end of file.  The control blocks are then             *
                                   36509  1 4464.     *    reinitialized for another file data set.                      *
                                   36510  1 4465.     *                                                                  *
                                   36511  1 4466.     *    On initial entry register IOBREg points to the first iob in   *
                                   36512  1 4467.     *    the chain.                                                    *
                                   36513  1 4468.     *                                                                  *
                                   36514  1 4469.     ********************************************************************
0005230 9180 A03C/47E0_0003C       36516  1 4471.                WHILE IOBEXCPD,BEGIN      Data set dump loop
 005238 4100 0001/4110_      00001 36533  2 4472.                  WAIT  ECB=IOBECB          Wait for i/o to complete
 005242 957F A028/4780_00028       36540  2 4473.                  IF    (IOBECB,NE,X'7F'),'ACall fserranl'
 005250 9160 B1C4/4770_001C4       36566  2 4474.                  IF    FLQUIT+FLABORT,DONEDUmp cease processing
 005258 5890 7A34/0D99       057C4 36587  2 4475.                  ACALL PUTDT               Put dump data on tape
 00525E 9160 B1C4/4770_001C4       36591  2 4476.                  IF    FLQUIT+FLABORT,DONEDUmp cease processing
 005266 5890 7A2C/0D99       057BC 36612  2 4477.                  ACALL READFS              Start up the next read
 00526C 4740 78D4            05664 36616  2 4478.                  IF    M,FSDEVERR          Error occurred starting i/o
 005270 58A0 A02C            0002C 36630  2 4479.                  L     IOBREG,IOBNXIOB     Link to next iob on chain
 005274 47F0 74A0            05230 36631  1 4480.                END  ,                    While iobexcpd
0005278 B205 C140      00140       36637  1 4482.                STCK  FSSTCKE             Mark volume ending time
 00527C 4110 CBC0/43E1_      00BC0 36638  1 4483.                CLOSE (FSDCB),MF=(E,FSOPNL)   close current file volume
 005292 4120 0001/5E20_      00001 36646  1 4484.                INCR  SR,FILENO           Bump to next ddcard
 00529E 47F0 743A            051CA 36652    4485.              END   ,                   Do next dd card
1VDMP     (VDMP21) (09:46) (22MAR04) ORVYL's File System Dump Program: Dump task                                            Page  195
0Current Usings:  (DUMP,R6) (DMPSEG,R7) (IOB,R10) (DWA,R11) (SWA,R12)
0Loc    Object Code    Addr1 Addr2  Stmt Lv Lineno    Source Statement           (Hibal 5, Asmedit 3.3)  HLASM R4.0  2004/03/22 09.46
+___    ______ ____    _____ _____  ____ __ ______    ______ _________
0                                  36658    4487.     ********************************************************************
                                   36659    4488.     *                                                                  *
                                   36660    4489.     * Dump complete - Print statistics and return to oz                *
                                   36661    4490.     *                                                                  *
                                   36662    4491.     ********************************************************************
00052A2                            36664    4493.     DONEDUMP LABEL ,
 0052A2 9160 B1C4/4780_001C4       36666    4494.              IF    FLQUIT+FLABORT,BEGIN    report stop reason
 0052AA 9214 C0C3      000C3       36684  1 4494.1               MVI   SRETCODE+3,DEV_ERR      set return code from subtask
 0052AE 4110 7AC2/4100_      05852 36685  1 4495.                VSEG  'VDMP453I - Subtask terminating due to '
 0052BC 9140 B1C4/47E0_001C4       36694  1 4496.                IF    FLQUIT,BEGIN            test for quit option
 0052C4 4110 7A38/4100_      057C8 36709  2 4497.                  VSEG  'QUIT'                  report quit option
 0052D2 7546/47F0 7554 052D2 052C2 36718  1 4498.                END   ELSE,BEGIN              report abort request
 0052D6 4110 7BE2/4100_      05972 36733  2 4499.                  VSEG  'ABORT'                 write to report file
 0052E4                            36742  1 4500.                END   ,
 0052E4 4110 7BE7/4100_      05977 36746  1 4501.                VSEG  ' request.'
 0052F2 5890 79E4/0D99       05774 36755  1 4502.                VWRITE ,                  Write to report file
 0052F8                            36760    4503.              END   ,
0                                  36765    4505.     *
                                   36766    4506.     *  Clear memory for IOB's
                                   36767    4507.     *
 0052F8 41A0 C318            00318 36768    4508.              LA    IOBREG,FSIOB1       Set first iob address
 0052FC D603 A02C A02C_0002C 0002C 36769    4509.              IF    (IOBNXIOB,NZ),BEGIN If any iob buffer can exit
 005306 4130 0002            00002 36785  1 4510.                LA    TR,&IOBS            And set the count
 00530A                            36786  1 4511.                LOOP  BEGIN               Release all buffers
 00530A 9180 A03C/47E0_0003C       36792  2 4512.                  IF    IOBEXCPD,BEGIN      Any hanging i/o's outstanding?
 005312 4100 0001/4110_      00001 36807  3 4513.                    WAIT  ECB=IOBECB          Wait for hanging i/o to complete
 00531C                            36814  2 4514.                  END   ,
 00531C 5810 A030            00030 36818  2 4515.                  L     R1,IOBBUFFA         Address of iob buffer
 005320 1211/4780 75AC             36819  2 4516.                  IF    (R1,NZ),BEGIN       Something there, release it
 005326 5800 A034            00034 36833  3 4517.                    L     R0,IOBBUFFL         Set length to release
 00532A 4110 1000/0A0A       00000 36834  3 4518.                    FREEMAIN R,LV=(0),A=(1)   Release memory
 005330 D703 A030 A030 00030 00030 36838  3 4519.                    CLEAR IOBBUFFA            Zero iob buffer address
 005336 D703 A034 A034 00034 00034 36845  3 4520.                    CLEAR IOBBUFFL            Zero iob buffer length
 00533C                            36852  2 4521.                  END   ,
 00533C 58A0 A02C            0002C 36856  2 4522.                  L     IOBREG,IOBNXIOB     Chain to next iob
 005340 5B30 7A18            057A8 36857  2 4523.                  S     TR,=A(1)            Decrement iob counter
 005344 4770 757A            0530A 36858  1 4524.                UNTIL Z,END               Process all iob's
 005348                            36877    4525.              END   ,
0                                  36882    4527.     *
                                   36883    4528.     *  CLOSE CURRENT FILE DISK IF OPEN
                                   36884    4529.     *
 005348 4120 CBE0            00BE0 36885    4530.              LA    SR,FSDCB            Address of file system dcb
 USING  IHADCB,R2                  36886    4531.              USING IHADCB,SR           ## addressability to fs dcb
 00534C 9110 2030/47E0_00030       36895    4532.              IF    DCBOFLGS.DCBOFOPN,BEGIN open -- close file
 005354 4110 CBC0/43E1_      00BC0 36911  1 4533.                CLOSE ((SR)),MF=(E,FSOPNL)  close file system dcb
 DROP   IHADCB,R2                  36918  1 4534.                DROP  SR                  ## release dcb addressability
 005366                            36925    4535.              END   ,
0005366 9140 C05D/47E0_0005D       36930    4537.              IF    FSTAPERR,BEGIN      Tape error, try and restart
 00536E 4110 CBC4/43E1_      00BC4 36945  1 4538.                CLOSE DTDCB,MF=(E,DTOPNLST)   close out dump file
 005384 4110 CC14            00C14 36953  1 4539.1               LA    R1,DTDCB            Address of tape dcb
1VDMP     (VDMP21) (09:46) (22MAR04) ORVYL's File System Dump Program: Dump task                                            Page  196
0Current Usings:  (DUMP,R6) (DMPSEG,R7) (IOB,R10) (DWA,R11) (SWA,R12)
0Loc    Object Code    Addr1 Addr2  Stmt Lv Lineno    Source Statement           (Hibal 5, Asmedit 3.3)  HLASM R4.0  2004/03/22 09.46
+___    ______ ____    _____ _____  ____ __ ______    ______ _________
0005388 4D90 611E            00134 36954  1 4539.2               LCALL FREPOOL             Release tape buffer pool
 00538C 4120 C874            00874 36956  1 4540.                LA    SR,TDYNRB           Address of svc99 tape rb
 USING  S99RB,R2                   36957  1 4541.                USING S99RB,SR            ##
 005390 9202 2001      00001       36966  1 4542.                MVI   S99VERB,S99VRBUN    Request unallocation
 005394 4130 C8C8            008C8 36967  1 4543.                LA    TR,TPTRU            Pointers for unallocation
 005398 5030 2008            00008 36968  1 4544.                ST    TR,S99TXTPP         Save in parameter list
 00539C 9202 C9A8      009A8       36969  1 4545.                MVI   TUNA+6,X'02'        Set catalog for this segment
 DROP   S99RB,R2                   36970  1 4546.                DROP  SR                  ##
 0053A0 4110 C870            00870 36977  1 4547.                LA    R1,TDYNP            Address of list
 0053A4 0A63                       36978  1 4548.                DYNALLOC ,
 0053A6 12FF/4780 761C             36981  1 4549.                IF    (R15,NZ),BEGIN
 0053AC                            36995  1 4552.                END   ,
 0053AC 4110 7BF0/4100_      05980 36999  1 4553.                VSEG  'VDMP801I - Tape has been deallocated.'
 0053BA 5890 79E4/0D99       05774 37008  1 4554.                VWRITE ,                  Issue message
 0053C0 4110 7AE8/4100_      05878 37013  1 4555.                VSEG  'VDMP802I - Tape data set has been uncataloged.'
 0053CE 5890 79E4/0D99       05774 37022  1 4556.                VWRITE ,
 0053D4 920C CBB4      00BB4       37027  1 4557.                MVI   DTCAMLST+0,X'0C'    Set option byte 0
 0053D8 9204 CBB5      00BB5       37028  1 4558.                MVI   DTCAMLST+1,X'04'    Set option byte 1
 0053DC 4110 C770            00770 37029  1 4559.                LA    R1,DTRDSN           Address of tape dsn
 0053E0 5010 CBB8            00BB8 37030  1 4560.                ST    R1,DTCAMLST+4       Save in camlst area
 0053E4 4110 CBB4/0A1A       00BB4 37031  1 4561.                CATALOG DTCAMLST          Issue uncatalog request
 0053EA 12FF/4780 76A8             37036  1 4562.                IF    (R15,NZ),BEGIN      Bad return from catalog
 0053F0 182F                       37050  2 4563.                  LR    SR,R15              Save return code from catalog
 0053F2 4110 7C15/4100_      059A5 37051  2 4564.                  VSEG  'VDMP810E - Bad return from uncatalog request '
 005400 4110 7C42/4100_      059D2 37060  2 4565.                  VSEG  ' R15('
 00540E 18F2/1B00/4110_            37069  2 4566.                  SEGDC 0,(SR),WORK=SWORK
 005422 4110 7BE1/4100_      05971 37108  2 4567.                  VSEG  ')'
 005430 5890 79E4/0D99       05774 37117  2 4568.                  VWRITE ,
 005436 1BFF                       37122  2 4569.                  CLEAR R15                 Just for now ***temp***
 005438                            37126  1 4570.                END   ,
 005438 76AC/47F0 7870 05438 0536C 37130    4571.              END   ELSE,BEGIN          Ok, closeout resources and return
 00543C 4110 CC14            00C14 37145  1 4572.                LA    R1,DTDCB            Address of dumptape dcb
 USING  IHADCB,R1                  37146  1 4573.                USING IHADCB,R1           ## addressability to dcb
 005440 9110 1030/47E0_00030       37155  1 4574.                IF    DCBOFLGS.DCBOFOPN,BEGIN       tape dcb is open
 005448 9140 B1C0/47E0_001C0       37171  2 4575.                  IF    FLFEOV,BEGIN        Only report for forced eov's
 005450 9610 C060      00060       37186  3 4576.                    SET   EOVEND              Set end of task message
 005454 5890 7A24/0D99       057B4 37192  3 4577.                    ACALL EOVMSG              And call message routine
 00545A                            37196  2 4578.                  END   ,
 00545A 4110 CBC4/43E1_      00BC4 37200  2 4579.                  CLOSE DTDCB,MF=(E,DTOPNLST)   close out dump tape file
 005470 4110 CC14            00C14 37208  2 4580.1                 LA    R1,DTDCB            Address of tape buffer pool
 005474 4D90 611E            00134 37209  2 4580.2                 LCALL FREPOOL             Release dcb buffer pool
 DROP   IHADCB,R1                  37211  2 4581.                  DROP  R1                  ## release tape dcb addressability
 005478                            37218  1 4582.                END   ,
 005478 9108 B1C0/47E0_001C0       37222  1 4583.                IF    FLDYN,BEGIN         Only release in dynamic mode
 005480 4120 C874            00874 37237  2 4584.                  LA    SR,TDYNRB           Address of svc99 tape rb
 USING  S99RB,R2                   37238  2 4585.                  USING S99RB,SR            ## addr to svc99 rb
 005484 9202 2001      00001       37247  2 4586.                  MVI   S99VERB,S99VRBUN    Request unallocation services
 005488 4130 C8C8            008C8 37248  2 4587.                  LA    TR,TPTRU            Pointers for unallocation
 00548C 5030 2008            00008 37249  2 4588.                  ST    TR,S99TXTPP         Save in parameter list
 DROP   S99RB,R2                   37250  2 4589.                  DROP  SR                  ## release svc99 request block
 005490 4110 C870            00870 37257  2 4590.                  LA    R1,TDYNP            Pointer to svc pointer
 005494 9202 C9A8      009A8       37258  2 4591.                  MVI   TUNA+6,X'02'        Set catalog for this segment
 005498 0A63                       37259  2 4592.                  DYNALLOC ,                Release resource
 00549A 12FF/4780 7714             37262  2 4593.                  IF    (R15,NZ),BEGIN      Error return from dynalloc
1VDMP     (VDMP21) (09:46) (22MAR04) ORVYL's File System Dump Program: Dump task                                            Page  197
0Current Usings:  (DUMP,R6) (DMPSEG,R7) (IOB,R10) (DWA,R11) (SWA,R12)
0Loc    Object Code    Addr1 Addr2  Stmt Lv Lineno    Source Statement           (Hibal 5, Asmedit 3.3)  HLASM R4.0  2004/03/22 09.46
+___    ______ ____    _____ _____  ____ __ ______    ______ _________
00054A0 9218 B05B      0005B       37276  3 4596.                    MVI   RETCODE+3,DYN_ALC   Set return code
 0054A4                            37277  2 4597.                  END   ,
 0054A4                            37281  1 4598.                END   ,
00054A4 4100 0014/1B11_      00014 37286  1 4600.                VCNTL SKIP1                   skip several lines
 0054B0 4110 7C47/4100_      059D7 37302  1 4601.                VSEG  'VDMP701I - '           add message identifier
                                   37311  1 4602.   C            SEGDC 0,L:DTBLKCNT,           report total block count
 0054BE 58F0 C6A4/1B00_      006A4        1 4603.                      COMMAS=YES,WORK=SWORK
 0054D4 4110 7B16/4100_      058A6 37350  1 4604.                VSEG  ' Blocks dumped to '    a little heading also
 0054E2 4110 C678/4100_      00678 37359  1 4605.                VSEG  DTDDN,L'DTDDN           report tape ddname
 0054F0 4100 0004/1B11_      00004 37380  1 4606.                VCNTL WTOWR                   write to message file
 0054FC 4100 0010/4110_      00010 37396  1 4607.                VCNTL BLANK,11                add blank spacing
 00550A D213 B010 6546 00010 0055C 37415  1 4608.                MVC   WORK(L'EDMSK),EDMSK     move in edit mask
 005510 4110 B023            00023 37416  1 4609.                LA    R1,WORK+L'EDMSK-1       address of last byte
 005514 DF13 B010 C6A8 00010 006A8 37417  1 4610.                EDMK  WORK(L'EDMSK),DTBYTCNt  convert byte count
 00551A 4100 B024            00024 37418  1 4611.                LA    R0,WORK+L'EDMSK         last byte + 1
 00551E 1B01                       37419  1 4612.                SR    R0,R1                   length of significant part
 005520 5890 79E0/0D99       05770 37420  1 4613.                VSEG  (1),(0)                 place in message
 005526 4110 7C52/4100_      059E2 37437  1 4614.                VSEG  ' Data bytes written'   report bytes written to tape
 005534 5890 79E4/0D99       05774 37446  1 4615.                VWRITE ,                      write to report file
 00553A 4100 0014/1B11_      00014 37451  1 4616.                VCNTL SKIP1                   space a blank line
1VDMP     (VDMP21) (09:46) (22MAR04) ORVYL's File System Dump Program: Dump task                                            Page  198
0Current Usings:  (DUMP,R6) (DMPSEG,R7) (IOB,R10) (DWA,R11) (SWA,R12)
0Loc    Object Code    Addr1 Addr2  Stmt Lv Lineno    Source Statement           (Hibal 5, Asmedit 3.3)  HLASM R4.0  2004/03/22 09.46
+___    ______ ____    _____ _____  ____ __ ______    ______ _________
0                                  37468  1 4618.     ********************************************************************
                                   37469  1 4619.     *                                                                  *
                                   37470  1 4620.     * Output interval counters                                         *
                                   37471  1 4621.     *                                                                  *
                                   37472  1 4622.     ********************************************************************
0005546 4110 7B28/4100_      058B8 37474  1 4624.                VSEG  'VDMP703I - Interval counters: '
 005554 5890 79E4/0D99       05774 37483  1 4625.                VWRITE ,                  Output message line
 00555A 4130 C61C            0061C 37488  1 4626.                LA    TR,INTCTRS          Address of the interval counters
 00555E 4120 0003            00003 37489  1 4627.                LA    SR,3                Do three sets of seven
 005562                            37490  1 4628.                LOOP  BEGIN               Process all sets
 005562 4100 0010/4110_      00010 37496  2 4629.                  VCNTL BLANK,11            Add spacer for alignment
 005570 4140 0007            00007 37515  2 4630.                  LA    QR,7                Of seven counters per line
 005574                            37516  2 4631.                  LOOP  BEGIN
                                   37522  3 4632.   C                SEGDC 8,L:@TR,COMMAS=YES, Output with commas
 005574 58F0 3000/4100_      00000        3 4633.                          WORK=SWORK
 00558C 4130 3004            00004 37564  3 4634.                    LA    TR,@TR+4            Bump to next possible counter
 005590 5B40 7A18            057A8 37565  3 4635.                    S     QR,=A(1)            Decrement counter
 005594 4770 77E4            05574 37566  2 4636.                  UNTIL Z,END               Complete current line
 005598 5890 79E4/0D99       05774 37585  2 4637.                  VWRITE ,                  Output last line
 00559E 5B20 7A18            057A8 37590  2 4638.                  S     SR,=A(1)            Decrement line count
 0055A2 4770 77D2            05562 37591  1 4639.                UNTIL Z,END               Begin next line of counters
 0055A6 4100 0014/1B11_      00014 37610  1 4640.                VCNTL SKIP1               Skip one blank line
 0055B2 4110 7C65/4100_      059F5 37626  1 4641.                VSEG  'VDMP707I - Elapsed time= '
 0055C0 B205 C098      00098       37635  1 4642.                STCK  SWORK                ending time
 0055C4 9823 C098            00098 37636  1 4643.                LM    SR,TR,SWORK          load work registers
 0055C8 5F30 C0BC/47B0_      000BC 37637  1 4644.                SDL   SR,STARTIME         Elapsed time
 0055D6 8E20 000C            0000C 37642  1 4645.                SRDA  SR,12               Convert to micro-seconds
 0055DA 5D20 7A40            057D0 37643  1 4646.                D     SR,=A(10000)        Convert to centi-seconds
 0055DE 1003                       37644  1 4647.                LPR   R0,TR               In case clock switched
 0055E0 4110 B010            00010 37645  1 4648.                LA    R1,WORK             Address of work area
 0055E4 58E0 7A44/0DEE       057D4 37646  1 4649.                XCALL TIME                Format it
 0055EA 4110 B010/4100_      00010 37650  1 4650.                VWRITE WORK,8             Output elapsed time line
 0055FE 1BFF                       37676  1 4651.                CLEAR R15                 Set coniditon code and return
 005600                            37680    4652.              END   ,
0005600                            37685    4654.     DMPXIT1  LABEL ,
 005600 4100 000C/1B11_      0000C 37687    4655.              VCNTL CLOSE               Release and close report file
 00560C 5820 C010/1222       00010 37703    4656.              LT    SR,PBLKADR          Any subparameter block defined
 005612 4780 78A4            05634 37707    4657.              IF    NZ,BEGIN            Yep -- set subtask return code
 USING  SUBPARM,R2                 37718  1 4658.                USING SUBPARM,SR          ## addressability to subparm
 005616 D203 201C C0C0 0001C 000C0 37727  1 4659.                MVC   SUBRET,SRETCODE     Set subtask return code
 00561C D203 2018 C7A0 00018 007A0 37728  1 4660.                MVC   SUBINCP,DTIANC      Set incremental dsn block anchor
 005622 5810 2018            00018 37729  1 4661.                L     R1,SUBINCP          Set first idscb address
 005626 1211/4780 78A4             37730  1 4662.                IF    (R1,NZ),BEGIN       They exist - update back pointer
 00562C 4100 2018            00018 37744  2 4663.                  LA    R0,SUBINCP          Address of anchor
 005630 5000 1004            00004 37745  2 4664.                  ST    R0,@R1+4            Reset back address pointer
 005634                            37746  1 4665.                END   ,
 DROP   SUBPARM,R2                 37750  1 4666.                DROP  SR                  ## release subparm addr
 005634                            37757    4667.              END   ,
0005634 9801 C0D4            000D4 37762    4669.              LM    R0,R1,SUBSLN        Prepare to release stack
 005638 1200/4780 78B4             37763    4670.              IF    (R0,NZ),BEGIN       Yep -- release it
 00563E 4110 1000/0A0A       00000 37777  1 4671.                FREEMAIN R,LV=(0),A=(1)   Release save stack
1VDMP     (VDMP21) (09:46) (22MAR04) ORVYL's File System Dump Program: Dump task                                            Page  199
0Current Usings:  (DUMP,R6) (DMPSEG,R7) (IOB,R10) (DWA,R11) (SWA,R12)
0Loc    Object Code    Addr1 Addr2  Stmt Lv Lineno    Source Statement           (Hibal 5, Asmedit 3.3)  HLASM R4.0  2004/03/22 09.46
+___    ______ ____    _____ _____  ____ __ ______    ______ _________
0005644                            37781    4672.              END   ,
 005644 58D0 C0D0            000D0 37785    4673.              L     R13,SUBVS           Reset vs save area address
 005648 181C                       37786    4674.              LR    R1,DWR              Copy subtask address register
 00564A 4100 0C74            00C74 37787    4675.              LA    R0,L'SWA            And set length to free
 00564E 5820 C0C0            000C0 37788    4676.              L     SR,SRETCODE         Set subtask return code
 005652 4110 1000/0A0A       00000 37789    4677.              FREEMAIN R,LV=(0),A=(1)   Release subtask work area
 005658 18F2                       37793    4678.              LR    R15,SR              Set return code
000565A                            37795    4680.     DMPXIT2  LABEL ,                   Return to main processing
 00565A 58E0 D00C            0000C 37797    4681.              L     R14,@R13+12         Reset register 14
 00565E 980C D014            00014 37798    4682.              LM    R0,R12,@R13+20      Reset registers 0-12
 005662 07FE                       37799    4683.              BR    R14                 And return to oz
1VDMP     (VDMP21) (09:46) (22MAR04) ORVYL's File System Dump Program: Dump task                                            Page  200
0Current Usings:  (DUMP,R6) (DMPSEG,R7) (IOB,R10) (DWA,R11) (SWA,R12)
0Loc    Object Code    Addr1 Addr2  Stmt Lv Lineno    Source Statement           (Hibal 5, Asmedit 3.3)  HLASM R4.0  2004/03/22 09.46
+___    ______ ____    _____ _____  ____ __ ______    ______ _________
0005664                            37801    4685.     FSDEVERR LABEL ,
 005664 132F                       37803    4686.              LCR   SR,R15              Save return code
 005666 4110 7A48/4100_      057D8 37804    4687.              VSEG  'VDMP601E - ('      Set first part of message
 005674 18F2/1B00/4110_            37813    4688.              SEGDC 0,(SR),WORK=SWORK   Add return code
 005688 4110 7B46/4100_      058D6 37852    4689.              VSEG  ') Device error on '
 005696 4110 C154/4100_      00154 37861    4690.              VSEG  FSDDN,L'FSDDN
 0056A4 9180 C05C/47E0_0005C       37882    4691.              IF    ER15,BEGIN          Report register 15 value
 0056AC 4110 7C42/4100_      059D2 37897  1 4692.                VSEG  ' R15('             Add header
 0056BA 58F0 C08C            0008C 37906  1 4693.                L     R15,EREG15          Retrieve r15 value
 0056BE 1B00/4110 C098_            37907  1 4694.                SEGDC 0,(R15),WORK=SWORK  Add value
 0056D0 4110 7BE1/4100_      05971 37945  1 4695.                VSEG  ')'                 And closing parend
 0056DE                            37954    4696.              END   ,
 0056DE 5890 79E4/0D99       05774 37958    4697.              VWRITE ,
 0056E4 9214 B05B      0005B       37963    4698.              MVI   RETCODE+3,DEV_ERR   Set device error return code
 0056E8 47F0 7512            052A2 37964    4699.              B     DONEDUMP
1VDMP     (VDMP21) (09:46) (22MAR04) ORVYL's File System Dump Program: Dump task                                            Page  201
0Current Usings:  (DUMP,R6) (DMPSEG,R7) (IOB,R10) (DWA,R11) (SWA,R12)
0Loc    Object Code    Addr1 Addr2  Stmt Lv Lineno    Source Statement           (Hibal 5, Asmedit 3.3)  HLASM R4.0  2004/03/22 09.46
+___    ______ ____    _____ _____  ____ __ ______    ______ _________
0                                  37966    4701.     ********************************************************************
                                   37967    4702.     *                                                                  *
                                   37968    4703.     *  Report tape device error                                        *
                                   37969    4704.     *                                                                  *
                                   37970    4705.     ********************************************************************
00056EC                            37972    4707.     DTDEVERR LABEL ,
 0056EC 4110 7C7E/4100_      05A0E 37974    4708.              VSEG  'VDMP377E - Device error on '
 0056FA 4110 C678/4100_      00678 37983    4709.              VSEG  DTDDN,L'DTDDN       Report tape ddname
 005708 5890 79E4/0D99       05774 38004    4710.              VWRITE ,                  Write to report file
 00570E 9214 C0C3      000C3       38009    4711.              MVI   SRETCODE+3,DEV_ERR  Set subtask return code
 005712 47F0 7512            052A2 38010    4712.              B     DONEDUMP            And return empty handed
-
                                   38012    4712.1    ********************************************************************
                                   38013    4712.11   *                                                                  *
                                   38014    4712.12   *  SET MAXIMUM SUBTASK RETURN CODE                                 *
                                   38015    4712.2    *                                                                  *
                                   38016    4712.3    ********************************************************************
-005716                            38018    4712.5    SUBRETC  LABEL ,
 USING  *,R9                       38020    4712.51            WITH  (*,RAR),BEGIN
 005716 59F0 C0C0/47D0_      000C0 38035  1 4712.6               IF    (R15,GT,SRETCODE),BEGIN
 00571E 50F0 C0C0            000C0 38052  2 4712.7                 ST    R15,SRETCODE        Set maximum subtask return code
 005722                            38053  1 4712.8               END   ,
 005722 07F9                       38057  1 4712.9               BR    RAR                 And return to caller
 DROP   *,R9                       38058    4712.91            END   ,
1VDMP     (VDMP21) (09:46) (22MAR04) ORVYL's File System Dump Program: Dump task                                            Page  202
0Current Usings:  (DUMP,R6) (DMPSEG,R7) (IOB,R10) (DWA,R11) (SWA,R12)
0Loc    Object Code    Addr1 Addr2  Stmt Lv Lineno    Source Statement           (Hibal 5, Asmedit 3.3)  HLASM R4.0  2004/03/22 09.46
+___    ______ ____    _____ _____  ____ __ ______    ______ _________
0005728                            38067    4714.              LTORG ,
 005728 E2E8E2D7D9E34040           38069                             =CL8'SYSPRT'
 005730 C6C9D3C540404040           38070                             =CL8'FILE'
 005738 E3C1D7C540404040           38071                             =CL8'TAPE'
 005740 E2E8E2C1D3D3C4C1           38072                             =CL8'SYSALLDA'
 005748 C6969940C4E2D57E           38073                             =C'For DSN='
 005750 E2E6C140E2E6C140           38074                             =3CL4'SWA '
 00575C 00002000                   38075                             =A(STSTCKSZ)
 005760 001C0000                   38076                             =AL2(DALCLOSE,0)
 005764 00180000                   38077                             =AL2(DALSYSOU,0)
 005768 00001F42                   38078                             =A(FINDDD)
 00576C 0000807C                   38079                             =A(SINIT)
 005770 00000000                   38080                             =V(VSEG)
 005774 00000000                   38081                             =V(VWRITE)
 005778 00000064                   38082                             =A(100)
 00577C 00000000                   38083                             =V(BTR)
 005780 E5C4D4D7F3F8F7C9           38084                             =C'VDMP387I - Switching volume '
 00579C 00000000                   38085                             =V(VCNTRL)
 0057A0 00000000                   38086                             =V(BTD)
 0057A4 00000000                   38087                             =V(BTX)
 0057A8 00000001                   38088                             =A(1)
 0057AC 00006A1A                   38089                             =A(VELAP)
 0057B0 00006FC4                   38090                             =A(SETUPFS)
 0057B4 000068BA                   38091                             =A(EOVMSG)
 0057B8 00005A2A                   38092                             =A(SETUPDT)
 0057BC 00007A28                   38093                             =A(READFS)
 0057C0 00007C74                   38094                             =A(fserranl)
 0057C4 000061B6                   38095                             =A(PUTDT)
 0057C8 D8E4C9E3                   38096                             =C'QUIT'
 0057CC 00000000                   38097                             =V(BTDC)
 0057D0 00002710                   38098                             =A(10000)
 0057D4 00000000                   38099                             =V(TIME)
 0057D8 E5C4D4D7F6F0F1C5           38100                             =C'VDMP601E - ('
 0057E4 000100010008               38101                             =AL2(DALDDNAM,1,8)
 0057EA 00020001002C               38102                             =AL2(DALDSNAM,1,44)
 0057F0 001500010008               38103                             =AL2(DALUNIT,1,8)
 0057F6 001000010006               38104                             =AL2(DALVLSER,1,6)
 0057FC 000400010001               38105                             =AL2(DALSTATS,1,1)
 005802 E5C4D4D7F2F0F8C9           38106                             =C'VDMP208I - Initial subtask target I/O rate is '
 005830 0064                       38107                             =H'100'
 005832 40A3964097818999           38108                             =C' to paired BCV volume '
 005848 5D4040D98581A296           38109                             =C')  Reason('
 005852 E5C4D4D7F4F5F3C9           38110                             =C'VDMP453I - Subtask terminating due to '
 005878 E5C4D4D7F8F0F2C9           38111                             =C'VDMP802I - Tape data set has been uncataloged.'
 0058A6 40C293968392A240           38112                             =C' Blocks dumped to '
 0058B8 E5C4D4D7F7F0F3C9           38113                             =C'VDMP703I - Interval counters: '
 0058D6 5D40C485A5898385           38114                             =C') Device error on '
 0058E8 E5C4D4D7F2F0F2C9           38115                             =C'VDMP202I - Begin subtask for segment '
 00590D E5C4D4D7F3F8F8C5           38116                             =C'VDMP388E - Unable to locate volume for DSN='
 005938 E5C4D4D7F1F2F3C5           38117                             =C'VDMP123E - Error allocating file volumes.'
 005961 D985A3A499954D             38118                             =C'Return('
 005968 5D4040C599999699           38119                             =C')  Error('
 005971 5D                         38120                             =C')'
 005972 C1C2D6D9E3                 38121                             =C'ABORT'
1VDMP     (VDMP21) (09:46) (22MAR04) ORVYL's File System Dump Program: Dump task                                            Page  203
0Current Usings:  (DUMP,R6) (DMPSEG,R7) (IOB,R10) (DWA,R11) (SWA,R12)
0Loc    Object Code    Addr1 Addr2  Stmt Lv Lineno    Source Statement           (Hibal 5, Asmedit 3.3)  HLASM R4.0  2004/03/22 09.46
+___    ______ ____    _____ _____  ____ __ ______    ______ _________
0005977 40998598A485A2A3           38122                             =C' request.'
 005980 E5C4D4D7F8F0F1C9           38123                             =C'VDMP801I - Tape has been deallocated.'
 0059A5 E5C4D4D7F8F1F0C5           38124                             =C'VDMP810E - Bad return from uncatalog request '
 0059D2 40D9F1F54D                 38125                             =C' R15('
 0059D7 E5C4D4D7F7F0F1C9           38126                             =C'VDMP701I - '
 0059E2 40C481A3814082A8           38127                             =C' Data bytes written'
 0059F5 E5C4D4D7F7F0F7C9           38128                             =C'VDMP707I - Elapsed time= '
 005A0E E5C4D4D7F3F7F7C5           38129                             =C'VDMP377E - Device error on '
1VDMP     (VDMP21) (09:46) (22MAR04) ORVYL's File System Dump Program: Dump task                                            Page  204
0Current Usings:  (DUMP,R6) (DMPSEG,R7) (IOB,R10) (DWA,R11) (SWA,R12)
0Loc    Object Code    Addr1 Addr2  Stmt Lv Lineno    Source Statement           (Hibal 5, Asmedit 3.3)  HLASM R4.0  2004/03/22 09.46
+___    ______ ____    _____ _____  ____ __ ______    ______ _________
0                                  38134    4716.     ********************************************************************
                                   38135    4717.     *                                                                  *
                                   38136    4718.     *   Get buffer pool and open dump tape or incremental dump pool.   *
                                   38137    4719.     *                                                                  *
                                   38138    4720.     *        For incremental dumping allocate the first incremental    *
                                   38139    4721.     *        control block and allocate the data set to receive        *
                                   38140    4722.     *        data.                                                     *
                                   38141    4723.     *                                                                  *
                                   38142    4724.     ********************************************************************
0005A29 00/9029 D000/188_          38144    4726.     SETUPDT  VENTER SR,RAR,*,LOCAL     Enter and save calling registers
 DROP   DMPSEG,R7
 USING  *,R7
                                   38166    4726.1             DBSNAP 'SetupDT...'       Report setup on dumptape
 005A36 D703 C6A4 C6A4 006A4 006A4 38167    4728.              CLEAR DTBLKCNT            Zero blocks dumped count
 005A3C F870 C6A8 7DF0 006A8 06826 38174    4729.              ZAP   DTBYTCNT,=PL1'0'    Zero bytes written count
 005A42 F870 C680 7DF1 00680 06827 38175    4729.1             ZAP   DTEOVCNT,=P'0'      Set EOV counter
                                   38176    4730.     *
                                   38177    4731.     ** INITIALIZE TAPE DYNAMIC ALLOCATIOn request blocks
                                   38178    4732.     ** AND TEXT UNIT POINTERS
                                   38179    4733.     *
 005A48 9140 B1C6/47E0_001C6       38180    4734.              IF    (FNCINC,AND,(INCPOOL,NZ)),BEGIN   Incremental dumping
 005A5A 4D90 7048            05A7E 38210  1 4735.                LCALL SETUPIT             Initialize for pool dumping
 005A5E 702C/702C/47F0_05A5E 05A4E 38212    4736.              END   ELSE,BEGIN
 005A62 4D90 717E            05BB4 38229  1 4737.                LCALL SETUPTT             Initialize for tape dumping
 005A66                            38231    4738.              END   ,
 005A66 1BFF                       38235    4739.              CLEAR R15                 Ser zero return code
 005A68 9110 CC44/4710_00C44       38239    4740.              IF    ~DTFOPEN,'LA R15,4' Set error return code
 005A74 18D8/9829 D000_            38260    4741.              VEXIT SR,RAR,LTR          And return to caller
1VDMP     (VDMP21) (09:46) (22MAR04) ORVYL's File System Dump Program: Dump task                                            Page  205
0Current Usings:  (DUMP,R6) (*,R7) (IOB,R10) (DWA,R11) (SWA,R12)
0Loc    Object Code    Addr1 Addr2  Stmt Lv Lineno    Source Statement           (Hibal 5, Asmedit 3.3)  HLASM R4.0  2004/03/22 09.46
+___    ______ ____    _____ _____  ____ __ ______    ______ _________
0                                  38267    4743.     *
                                   38268    4744.     *  Initialization for incremental pool dumping
                                   38269    4745.     *
0005A7E 5090 D000/41D0_      00000 38271    4747.     SETUPIT  VPUSH RAR,,*              Enter and save return register
                                   38274    4747.1             DBSNAP 'SetupIT...'       Setting up for incremental dump
 005A86 4120 C7B4            007B4 38275    4748.              LA    SR,IDYNRB           Address of svc99 request block
 005A8A 5020 C7B0            007B0 38276    4749.              ST    SR,IDYNP              save in pointer area
 005A8E 9680 C7B0      007B0       38277    4750.              OI    IDYNP,X'80'             mark only one request block
0USING  S99RB,R2                   38279    4752.              USING S99RB,SR            ## addressability to svc99 area
 005A92 9214 2000      00000       38288    4753.              MVI   S99RBLN,20          Set length of request block
 005A96 9201 2001      00001       38289    4754.              MVI   S99VERB,S99VRBAL    Set data set allocation request
 005A9A 4130 C7C8            007C8 38290    4755.              LA    TR,IPTRS            Address of text unit pointers
 005A9E 5030 2008            00008 38291    4756.              ST    TR,S99TXTPP         Save text pointer address
                                   38292    4757.              DROP  TR                  ## release svc99 rb addressability
0005AA2 4110 C7F0            007F0 38297    4759.              LA    R1,IDDN             Address of ddname text unit
 005AA6 5010 C7C8            007C8 38298    4760.              ST    R1,IPTRS+00             save in parameter list
 005AAA 4110 C7FE            007FE 38299    4761.              LA    R1,IDSN             Address of data set name unit
 005AAE 5010 C7CC            007CC 38300    4762.              ST    R1,IPTRS+04              save in parameter list
 005AB2 4110 C830            00830 38301    4763.              LA    R1,ISTAT            Address of status unit
 005AB6 5010 C7D0            007D0 38302    4764.              ST    R1,IPTRS+08             save in parameter list
 005ABA 4110 C837            00837 38303    4765.              LA    R1,INDSP            Address of normal disposition
 005ABE 5010 C7D4            007D4 38304    4766.              ST    R1,IPTRS+12             save in parameter list
 005AC2 4110 C83E            0083E 38305    4767.              LA    R1,ISP1             Address of space allocation type
 005AC6 5010 C7D8            007D8 38306    4768.              ST    R1,IPTRS+16             save in parameter list
 005ACA 4110 C842            00842 38307    4769.              LA    R1,ISP2             Address of primary quantity
 005ACE 5010 C7DC            007DC 38308    4770.              ST    R1,IPTRS+20             save in parameter list
 005AD2 4110 C84B            0084B 38309    4771.              LA    R1,IUNIT            Address of unit specification
 005AD6 5010 C7E0            007E0 38310    4772.              ST    R1,IPTRS+24             save in parameter list
 005ADA 4110 C859            00859 38311    4773.              LA    R1,IRLSE            Address of release unit
 005ADE 5010 C7E4            007E4 38312    4774.              ST    R1,IPTRS+28             save in parameter list
 005AE2 4110 C85D            0085D 38313    4775.              LA    R1,IFREE            Address of free=close unit
 005AE6 5010 C7E8            007E8 38314    4776.              ST    R1,IPTRS+32             save in parameter list
 005AEA 4110 C861            00861 38315    4777.              LA    R1,IVOL             Address of volume serival unit
 005AEE 5010 C7EC            007EC 38316    4778.              ST    R1,IPTRS+36             save in parameter list
 005AF2 9680 C7EC      007EC       38317    4779.              OI    IPTRS+36,X'80'              mark last pointer unit
0005AF6 D205 C7F0 7CFA 007F0 06730 38319    4781.              MVC   IDDN(6),=AL2(DALDDNAM,1,8)
 005AFC D205 C7FE 7D00 007FE 06736 38320    4782.              MVC   IDSN(6),=AL2(DALDSNAM,1,44)
 005B02 D205 C830 7D06 00830 0673C 38321    4783.              MVC   ISTAT(6),=AL2(DALSTATS,1,1)
 005B08 9204 C836      00836       38322    4784.              MVI   ISTAT+6,X'04'
 005B0C D205 C837 7D0C 00837 06742 38323    4785.              MVC   INDSP(6),=AL2(DALNDISP,1,1)
 005B12 9202 C83D      0083D       38324    4786.              MVI   INDSP+6,X'02'
 005B16 D203 C83E 7C32 0083E 06668 38325    4787.              MVC   ISP1(4),=AL2(DALTRK,0)
 005B1C D205 C842 7D12 00842 06748 38326    4788.              MVC   ISP2(6),=AL2(DALPRIME,1,3)
 005B22 D202 C848 B171 00848 00171 38327    4789.              MVC   ISP2+6(3),TRKALLO+1
 005B28 D205 C84B 7D18 0084B 0674E 38328    4790.              MVC   IUNIT(6),=AL2(DALUNIT,1,8)
 005B2E D207 C851 7BD2 00851 06608 38329    4791.              MVC   IUNIT+6(8),=CL8'SYSALLDA'
 005B34 D203 C859 7C36 00859 0666C 38330    4792.              MVC   IRLSE(4),=AL2(DALRLSE,0)
 005B3A D203 C85D 7C3A 0085D 06670 38331    4793.              MVC   IFREE(4),=AL2(DALCLOSE,0)
 005B40 D205 C861 7D1E 00861 06754 38332    4794.              MVC   IVOL(6),=AL2(DALVLSER,1,6)
1VDMP     (VDMP21) (09:46) (22MAR04) ORVYL's File System Dump Program: Dump task                                            Page  206
0Current Usings:  (S99RB,R2) (DUMP,R6) (*,R7) (IOB,R10) (DWA,R11) (SWA,R12)
0Loc    Object Code    Addr1 Addr2  Stmt Lv Lineno    Source Statement           (Hibal 5, Asmedit 3.3)  HLASM R4.0  2004/03/22 09.46
+___    ______ ____    _____ _____  ____ __ ______    ______ _________
0                                  38334    4796.     *
                                   38335    4797.     *  Allocate the first incremental dump block
                                   38336    4798.     *
 005B46 5890 7C3E/0D99       06674 38337    4799.              ACALL GETIDSN             Go allocate block
 005B4C 1851                       38341    4800.              LR    RR,R1               Save address of idscb
 USING  INCDSN,R5                  38342    4801.              USING INCDSN,RR           ## addressability to block
 005B4E 4110 CC14            00C14 38351    4802.              LA    R1,DTDCB            Set address of tape dcb
 005B52 4D90 60FC            00112 38352    4803.              LCALL DCBINIT             Set common areas of dcb
 005B56 5010 CBC4            00BC4 38354    4804.              ST    R1,DTOPNLST         Set address in open list
 005B5A 9280 CBC4      00BC4       38355    4805.              MVI   DTOPNLST,X'80'      Set only dcb in list
 USING  IHADCB,R1                  38356    4806.              USING IHADCB,R1           ## addressability to dcb
 005B5E D207 1028 C678 00028 00678 38365    4807.              MVC   DCBDDNAM,DTDDN      Set ddname in dcb
 005B64 9240 101A      0001A       38366    4808.              MVI   DCBDSRG1,DCBDSGPS   Set dsorg=ps
 005B68 9290 1024      00024       38367    4809.              MVI   DCBRECFM,DCBRECF+DCBRECBR     set recfm=fb
 005B6C 9250 1033      00033       38368    4810.              MVI   DCBMACR2,DCBMRPUT+DCBMRMVP    set macrf=pm
 DROP   IHADCB,R1                  38369    4811.              DROP  R1                  ## release dcb addressability
 005B70 4100 000C            0000C 38376    4811.1             LA    R0,FSHDRDMP         Length of header on tape
 005B74 4A00 C190            00190 38377    4811.2             AH    R0,FSUDATLN         Plus file system size
 005B78 4000 CC66            00C66 38378    4811.3             STH   R0,DTLRECL          Set lrecl in dcb
 005B7C 4800 C7AC            007AC 38379    4812.3             LH    R0,DTIBLKSZ
 005B80 4000 CC52            00C52 38380    4813.3             STH   R0,DTBLKSI          Set dcb blocksize
 005B84 4110 CBC4/94F0_      00BC4 38381    4819.              OPEN  (,OUTPUT),MF=(E,DTOPNLST)     open that thar dcb
 005B92 4110 7BDA/4100_      06610 38387    4820.              VSEG  'VDMP509I - Incremental DCB open.'
 005BA0 5890 7C46/0D99       0667C 38396    4821.              VWRITE ,
 005BA6 949F B1C0      001C0       38401    4822.              CLEAR FLTHIST*FLFEOV      Clear history and feov
 005BAA 4BD0 7D24/5890_      0675A 38411    4823.              VPOP  RAR,,*              Restore return address
 005BB2 07F9                       38414    4824.              BR    RAR                 And return to caller
                                   38415    4825.              DROP  R1                  ## release dcb addressability
 DROP   INCDSN,R5                  38419    4826.              DROP  RR                  ## release idscb
1VDMP     (VDMP21) (09:46) (22MAR04) ORVYL's File System Dump Program: Dump task                                            Page  207
0Current Usings:  (S99RB,R2) (DUMP,R6) (*,R7) (IOB,R10) (DWA,R11) (SWA,R12)
0Loc    Object Code    Addr1 Addr2  Stmt Lv Lineno    Source Statement           (Hibal 5, Asmedit 3.3)  HLASM R4.0  2004/03/22 09.46
+___    ______ ____    _____ _____  ____ __ ______    ______ _________
0                                  38427    4828.     *
                                   38428    4829.     *  INITIALIZATION FOR DUMPING TO TAPe
                                   38429    4830.     *
 005BB4 5090 D000/41D0_      00000 38430    4831.     SETUPTT  VPUSH RAR,,*              Enter and save return
                                   38433    4831.1             DBSNAP 'SetupTT...'       Setting up for full dump
 005BBC 4120 C874            00874 38434    4832.              LA    SR,TDYNRB           Address of svc99 request block
 005BC0 5020 C870            00870 38435    4833.              ST    SR,TDYNP              save in pointer area
 005BC4 9680 C870      00870       38436    4834.              OI    TDYNP,X'80'             mark only one request block
0                                  38438    4836.              USING S99RB,SR            ## addressability to svc99 area
 005BC8 9214 2000      00000       38440    4837.              MVI   S99RBLN,20          Set length of request block
 005BCC 9201 2001      00001       38441    4838.              MVI   S99VERB,S99VRBAL    Set data set allocation request
 005BD0 9601 2010      00010       38442    4839.              SET   S99FLG21.S99MOUNT   Set ok to mount volumes
 005BD4 9102 B1C0/47E0_001C0       38449    4839.01            IF    FLDUMMY,BEGIN       SET FOR DD DUMMY PROCESSING
 005BDC D205 B58C 7D26 0058C 0675C 38464  1 4839.02              MVC   ODMYA(6),=AL2(DALDUMMY,0,0)
 005BE2 D205 B5A0 7D00 005A0 06736 38465  1 4839.12              MVC   ODSN(6),=AL2(DALDSNAM,1,44)
 005BE8 D22B B5A6 7C4A 005A6 06680 38466  1 4839.22              MVC   ODSN+6(44),=CL44'NULLFILE'
 005BEE 4110 B58C            0058C 38467  1 4839.95              LA    R1,ODMYA            ADDRESS OF DD DUMMY TEXT UNIT
 005BF2 5010 B538            00538 38468  1 4839.96              ST    R1,ODMY             SAVE IN PARAMETER LIST
 005BF6 9680 B53C      0053C       38469  1 4839.97              OI    ODMY+4,X'80'        MARK AS LAST TEXT UNIT
 005BFA 4130 B538            00538 38470  1 4839.98              LA    R3,ODMY             ADDRESS OF DUMMY TEXT UNIT
 005BFE 71CC/47F0 71D0 05BFE 05BDA 38471    4839.99            END   ELSE,BEGIN
 005C02 4130 C888            00888 38486  1 4840.                LA    R3,TPTRS            Address of text unit pointers
 005C06                            38487    4840.1             END   ,
 005C06 5030 2008            00008 38491    4841.              ST    R3,S99TXTPP         Save text pointer address
 DROP   S99RB,R2                   38492    4842.              DROP  SR                  ## release svc99 area
0005C0A 4110 C8D4            008D4 38500    4844.              LA    R1,TDDN             Address of ddn text unit
 005C0E 5010 C888            00888 38501    4845.              ST    R1,TPTRS+0          Save in parameter list
 005C12 4110 C8E2            008E2 38502    4846.              LA    R1,TDSN             Address of dsn text unit
 005C16 5010 C88C            0088C 38503    4847.              ST    R1,TPTRS+4          Save in parameter list
 005C1A 4110 C914            00914 38504    4848.              LA    R1,TMEM             Address of member text unit
 005C1E 5010 C890            00890 38505    4849.              ST    R1,TPTRS+8          Save in parameter list
 005C22 4110 C91C            0091C 38506    4850.              LA    R1,TSTAT            Address of status text unit
 005C26 5010 C894            00894 38507    4851.              ST    R1,TPTRS+12         Save in parameter list
 005C2A 4110 C923            00923 38508    4852.              LA    R1,TNDSP            Address of normal disposition
 005C2E 5010 C898            00898 38509    4853.              ST    R1,TPTRS+16         Save in parameter list
 005C32 4110 C92A            0092A 38510    4854.              LA    R1,TCDSP            Address of conditional disp
 005C36 5010 C89C            0089C 38511    4855.              ST    R1,TPTRS+20         Save in parameter list
 005C3A 4110 C931            00931 38512    4856.              LA    R1,TSP1             Address of space type allocation
 005C3E 5010 C8A0            008A0 38513    4857.              ST    R1,TPTRS+24         Save in parameter list
 005C42 4110 C93A            0093A 38514    4858.              LA    R1,TSP2             Address of primary space
 005C46 5010 C8A4            008A4 38515    4859.              ST    R1,TPTRS+28         Save in parameter list
 005C4A 4110 C943            00943 38516    4860.              LA    R1,TSP3             Address of secondary space
 005C4E 5010 C8A8            008A8 38517    4861.              ST    R1,TPTRS+32         Save in parameter list
 005C52 4110 C94C            0094C 38518    4862.              LA    R1,TCNT             Address of volume count
 005C56 5010 C8AC            008AC 38519    4863.              ST    R1,TPTRS+36         Save in parameter list
 005C5A 4110 C953            00953 38520    4864.              LA    R1,TUNIT            Address of unit allocation
 005C5E 5010 C8B0            008B0 38521    4865.              ST    R1,TPTRS+40         Save in parameter list
 005C62 4110 C961            00961 38522    4866.              LA    R1,TLBL             Address of label type
 005C66 5010 C8B4            008B4 38523    4867.              ST    R1,TPTRS+44         Save in parameter list
 005C6A 4110 C968            00968 38524    4868.              LA    R1,TSEQ             Address of label sequence
 005C6E 5010 C8B8            008B8 38525    4869.              ST    R1,TPTRS+48         Save in parameter list
 005C72 4110 C970            00970 38526    4870.              LA    R1,TPROT            Address of prototype dcb
1VDMP     (VDMP21) (09:46) (22MAR04) ORVYL's File System Dump Program: Dump task                                            Page  208
0Current Usings:  (DUMP,R6) (*,R7) (IOB,R10) (DWA,R11) (SWA,R12)
0Loc    Object Code    Addr1 Addr2  Stmt Lv Lineno    Source Statement           (Hibal 5, Asmedit 3.3)  HLASM R4.0  2004/03/22 09.46
+___    ______ ____    _____ _____  ____ __ ______    ______ _________
0005C76 5010 C8BC            008BC 38527    4871.              ST    R1,TPTRS+52         Save in parameter list
 005C7A 4110 C9A9            009A9 38528    4872.              LA    R1,TRETP            Address of retention period
 005C7E 5010 C8C0            008C0 38529    4873.              ST    R1,TPTRS+56         Save in parameter list
 005C82 4110 C9B1            009B1 38530    4873.1             LA    R1,TTRTCH           Address of trtch parameter
 005C86 5010 C8C4            008C4 38531    4873.2             ST    R1,TPTRS+60         Save in parameter list
 005C8A 9104 B1C0/47E0_001C0       38532    4873.3             IF    FLIDRC,BEGIN
 005C92 9680 C8C4      008C4       38547  1 4873.4               OI    TPTRS+60,X'80'      Mark end of pointer list
 005C96 7264/47F0 7268 05C96 05C90 38548    4873.5             END   ELSE,BEGIN
 005C9A 9680 C8C0      008C0       38563  1 4874.                OI    TPTRS+56,X'80'      Mark end of pointer list
 005C9E                            38564    4874.1             END   ,
                                   38568    4875.     *
                                   38569    4876.     ** Initialize text unit pointers for unallocation
                                   38570    4877.     *
 005C9E 4110 C8D4            008D4 38571    4878.              LA    R1,TDDN             Address of ddn text unit
 005CA2 5010 C8C8            008C8 38572    4879.              ST    R1,TPTRU+0          Save in parameter list
 005CA6 4110 C8E2            008E2 38573    4880.              LA    R1,TDSN             Address of dsn text unit
 005CAA 5010 C8CC            008CC 38574    4881.              ST    R1,TPTRU+4          Save in parameter list
 005CAE 4110 C9A2            009A2 38575    4882.              LA    R1,TUNA             Address of disp change unit
 005CB2 5010 C8D0            008D0 38576    4883.              ST    R1,TPTRU+8          Save in parameter list
 005CB6 9680 C8D0      008D0       38577    4884.              OI    TPTRU+8,X'80'       Mark last pointer ]
0                                  38579    4886.     *
                                   38580    4887.     ** Initialize the text unit's themselves
                                   38581    4888.     *
 005CBA D205 C8D4 7CFA 008D4 06730 38582    4889.              MVC   TDDN(6),=AL2(DALDDNAM,1,8)
 005CC0 D205 C8E2 7D00 008E2 06736 38583    4890.              MVC   TDSN(6),=AL2(DALDSNAM,1,44)
 005CC6 D205 C91C 7D06 0091C 0673C 38584    4891.              MVC   TSTAT(6),=AL2(DALSTATs,1,1)
 005CCC 9204 C922      00922       38585    4892.              MVI   TSTAT+6,X'04'       Set disp=new
 005CD0 D205 C914 7D2C 00914 06762 38586    4893.              MVC   TMEM(6),=AL2(DALMEMBR,1,2)
 005CD6 D201 C91A 7D32 0091A 06768 38587    4894.              MVC   TMEM+6(2),=CL2'+1'  Set generation number
 005CDC D205 C923 7D0C 00923 06742 38588    4895.              MVC   TNDSP(6),=AL2(DALNDISP,1,1)
 005CE2 9202 C929      00929       38589    4896.              MVI   TNDSP+6,X'02'       Disp=(,catlg)
 005CE6 D205 C92A 7D34 0092A 0676A 38590    4897.              MVC   TCDSP(6),=AL2(DALCDISP,1,1)
 005CEC 9204 C930      00930       38591    4898.              MVI   TCDSP+6,X'04'       Disp=(,,delete)
 005CF0 D205 C931 7D3A 00931 06770 38592    4899.              MVC   TSP1(6),=AL2(DALBLKLN,1,3)
 005CF6 D202 C937 7DF2 00937 06828 38593    4900.              MVC   TSP1+6(3),=XL3'0'   Space=0
 005CFC D205 C93A 7D12 0093A 06748 38594    4901.              MVC   TSP2(6),=AL2(DALPRIME,1,3)
 005D02 D202 C940 7DF2 00940 06828 38595    4902.              MVC   TSP2+6(3),=XL3'0'   Space=(,(0))
 005D08 D205 C943 7D40 00943 06776 38596    4903.              MVC   TSP3(6),=AL2(DALSECND,1,3)
 005D0E D202 C949 7DF5 00949 0682B 38597    4904.              MVC   TSP3+6(3),=XL3'4'   Space=(,(,4))
 005D14 D205 C94C 7D46 0094C 0677C 38598    4905.              MVC   TCNT(6),=AL2(DALVLCNT,1,1)
 005D1A 9215 C952      00952       38599    4906.              MVI   TCNT+6,21           Vol=(,,,21)
 005D1E D205 C953 7D18 00953 0674E 38600    4907.              MVC   TUNIT(6),=AL2(DALUNIT,1,8)
 005D24 D207 C959 B2C8 00959 002C8 38601    4908.              MVC   TUNIT+6(8),TAPEUNIT
 005D2A D205 C961 7D4C 00961 06782 38602    4909.              MVC   TLBL(6),=AL2(DALLABEL,1,1)
 005D30 9202 C967      00967       38603    4910.              MVI   TLBL+6,X'02'        Label=(,sl)
 005D34 D205 C968 7D52 00968 06788 38604    4911.              MVC   TSEQ(6),=AL2(DALDSSEQ,1,2)
 005D3A D201 C96E 7D58 0096E 0678E 38605    4912.              MVC   TSEQ+6(2),=XL2'1'   Label=1
 005D40 D205 C970 7D5A 00970 06790 38606    4913.              MVC   TPROT(6),=AL2(DALDCBDS,1,44)
 005D46 D22B C976 7C76 00976 066AC 38607    4914.              MVC   TPROT+6(44),=CL44'SYS3.PROTO.DSCB'
 005D4C D205 C9A9 7D60 009A9 06796 38608    4915.              MVC   TRETP(6),=AL2(DALRETPD,1,2)
 005D52 D201 C9AF 7D66 009AF 0679C 38609    4916.              MVC   TRETP+6(2),=AL2(90)    Set retention period
 005D58 D205 C9B1 7D68 009B1 0679E 38610    4916.1             MVC   TTRTCH(6),=AL2(DALTRTCH,1,1)
 005D5E 9208 C9B7      009B7       38611    4916.2             MVI   TTRTCH+6,DCBCMPAC       set trtch=comp
1VDMP     (VDMP21) (09:46) (22MAR04) ORVYL's File System Dump Program: Dump task                                            Page  209
0Current Usings:  (DUMP,R6) (*,R7) (IOB,R10) (DWA,R11) (SWA,R12)
0Loc    Object Code    Addr1 Addr2  Stmt Lv Lineno    Source Statement           (Hibal 5, Asmedit 3.3)  HLASM R4.0  2004/03/22 09.46
+___    ______ ____    _____ _____  ____ __ ______    ______ _________
0005D62 D205 C9A2 7D6E 009A2 067A4 38612    4917.              MVC   TUNA(6),=AL2(DUNOVDSP,1,1)
 005D68 9202 C9A8      009A8       38613    4918.              MVI   TUNA+6,X'02'        Disp=(,catlg)
0005D6C F271 C098 C67C 00098 0067C 38615    4920.              PACK  SWORK(8),DTDDN+4(2)     convert current segment numb
 005D72 4F30 C098            00098 38616    4921.              CVB   TR,SWORK                convert to binary
 005D76 5820 C010            00010 38617    4922.              L     SR,PBLKADR          Address of subparm block
 USING  SUBPARM,R2                 38618    4923.              USING SUBPARM,SR          ## addressability to subparm block
 005D7A 4110 2025            00025 38627    4924.              LA    R1,SUBTAPE          Address of tape prefix to dump
 005D7E 4100 002C            0002C 38628    4925.              LA    R0,44               Set maximum length
 005D82 4D90 616A            00180 38629    4926.              LCALL RTRIM               Trim right blanks
 005D86 1E10                       38631    4927.              ALR   R1,R0               Address of last+1
 005D88 18F3/1B00/58E0_            38632    4928.              BTD   @R1,0,(TR)          Add segment number
 005D92 D22B C8E8 2025 008E8 00025 38652    4929.              MVC   TDSN+6(44),SUBTAPE  Set into dynamic area
 DROP   SUBPARM,R2                 38653    4930.              DROP  SR                  ## release subparm block
                                   38660    4931.     *
                                   38661    4932.     ** Initialize tape dsn and ddname text units
                                   38662    4933.     *
 005D98 4110 C678            00678 38663    4934.              LA    R1,DTDDN            Address of dump tape ddname
 005D9C 5890 7CA6/0D99       066DC 38664    4935.              ACALL FINDDD              Attempt to locate ddname
 005DA2 4780 7446            05E7C 38668    4936.              IF    NZ,BEGIN            Not there - allocate one
 005DA6 D207 C8DA C678 008DA 00678 38679  1 4937.                MVC   TDDN+6(8),DTDDN     Set ddname to allocate
 005DAC 4110 C870            00870 38680  1 4938.                LA    R1,TDYNP            Address of pointer
 005DB0 0A63                       38681  1 4939.                DYNALLOC ,                Go do it
 005DB2 12FF/4780 743E             38684  1 4940.                IF    (R15,NZ),BEGIN
 005DB8 182F                       38698  2 4941.                  LR    SR,R15              Save return code from allocation
 005DBA 4110 7BFA/4100_      06630 38699  2 4942.                  VSEG  'VDMP313E - Error allocating tape volume.'
 005DC8 5890 7C46/0D99       0667C 38708  2 4943.                  VWRITE ,
 005DCE 4100 0010/4110_      00010 38713  2 4944.                  VCNTL BLANK,11            Set spacer blanks into message
 005DDC 4110 7DF8/4100_      0682E 38732  2 4945.                  VSEG  'RETURN('           Set message
 005DEA 18F2/1B00/4110_            38741  2 4946.                  SEGDC 0,(SR),WORK=SWORK   Convert return code into message
 005DFE 4110 7DFF/4100_      06835 38780  2 4947.                  VSEG  ')  ERROR('         Report error code
 005E0C 1FFF/BFF3 C878             38789  2 4948.                  L2    R15,TDYNRB+4        Load error code from svc99 rb
 005E12 4100 0004/4110_      00004 38797  2 4949.                  SEGHX 4,(R15),WORK=SWORK  Convert error code into message
 005E26 4110 7D74/4100_      067AA 38838  2 4950.                  VSEG  ')  REASON('        Report reason code
 005E34 1FFF/BFF3 C87A             38847  2 4951.                  L2    R15,TDYNRB+6        Load reason code from svc99 rb
 005E3A 4100 0004/4110_      00004 38855  2 4952.                  SEGHX 4,(R15),WORK=SWORK  Convert reasson code into message
 005E4E 4110 7E08/4100_      0683E 38896  2 4953.                  VSEG  ')'                 Add closing parrend
 005E5C 5890 7C46/0D99       0667C 38905  2 4954.                  VWRITE ,                  Write to report file
 005E62 9218 C0C3      000C3       38910  2 4955.                  MVI   SRETCODE+3,DYN_ALC  Set subtask return code
 005E66 41F0 0004            00004 38911  2 4956.                  LA    R15,4               Mark for tape device error
 005E6A 18D8/9829 D000_            38912  2 4957.                  VEXIT SR,RAR,LTR          And return to caller
 005E74                            38918  1 4958.                END   ,
 005E74 9680 C05F      0005F       38922  1 4959.                SET   DTRECOK             Set tape recovery possible
 005E78 9608 B1C0      001C0       38928  1 4960.                SET   FLDYN               Set operating in dynamic mode
 005E7C                            38934    4961.              END   ,
                                   38938    4962.              DROP  SR,TR
                                   38945    4963.     *
                                   38946    4964.     ** Iniialize tape system DCB information
                                   38947    4965.     *
 005E7C 4110 CC14            00C14 38948    4966.              LA    R1,DTDCB            Set address of tape dcb
 005E80 4D90 60FC            00112 38949    4967.              LCALL DCBINIT             Set common areas of dcb
 005E84 4120 76E6            0611C 38951    4968.              LA    SR,DTDCBEX          Dcb exit routine address
 005E88 5020 CA74            00A74 38952    4969.              ST    SR,DTEXLST            save in dcb exlst
 005E8C 9605 CA74      00A74       38953    4970.              OI    DTEXLST,X'05'           mark dcb exit routine
1VDMP     (VDMP21) (09:46) (22MAR04) ORVYL's File System Dump Program: Dump task                                            Page  210
0Current Usings:  (DUMP,R6) (*,R7) (IOB,R10) (DWA,R11) (SWA,R12)
0Loc    Object Code    Addr1 Addr2  Stmt Lv Lineno    Source Statement           (Hibal 5, Asmedit 3.3)  HLASM R4.0  2004/03/22 09.46
+___    ______ ____    _____ _____  ____ __ ______    ______ _________
0005E90 4120 C6C0            006C0 38954    4971.              LA    SR,DTJFCB           Tape tape jfcb address
 005E94 5020 CA78            00A78 38955    4972.              ST    SR,DTEXLST+4          save in dcb exlst
 005E98 9607 CA78      00A78       38956    4973.              OI    DTEXLST+4,X'07'         mark jfcb address
 005E9C 5820 7CB2            066E8 38957    4973.1             L     R2,=A(DTTRLX)       ADDRESS OF TRAILER LABEL EXIT
 005EA0 5020 CA7C            00A7C 38958    4973.2             ST    R2,DTEXLST+8        SAVE IN DCB EXIT LIST
 005EA4 9604 CA7C      00A7C       38959    4973.3             OI    DTEXLST+8,X'04'     MARK AS A TRAILER LABEL EXIT
 005EA8 5820 7CB6            066EC 38960    4974.              L     SR,=A(DTEOVEX)        tape dcb eov exit address
 005EAC 5020 CA80            00A80 38961    4975.              ST    SR,DTEXLST+12         save in dcb exlst
 005EB0 9686 CA80      00A80       38962    4976.              OI    DTEXLST+12,X'86'        mark eov exit and last
 005EB4 4110 CC14            00C14 38963    4977.              LA    R1,DTDCB            Address of dump tape dcb
 005EB8 5010 CBC4            00BC4 38964    4978.              ST    R1,DTOPNLST           Set into open parameter list
 005EBC 9680 CBC4      00BC4       38965    4979.              OI    DTOPNLST,X'80'          Set only one DCB
 005EC0 4120 CC14            00C14 38966    4980.              LA    SR,DTDCB            Dump tape dcb address
 USING  IHADCB,R2                  38967    4981.              USING IHADCB,SR           ## addressability to dump tape
 005EC4 D207 2028 C678 00028 00678 38976    4982.              MVC   DCBDDNAM,DTDDN      Set DDNAME for dump tape
 005ECA 9201 2017      00017       38977    4983.              MVI   DCBBUFCB+3,1          Set buffer control block
 005ECE 9201 201F      0001F       38978    4984.              MVI   DCBIOBAD+3,1            Set IOB address
 005ED2 9201 2023      00023       38979    4985.              MVI   DCBEODAD+3,1              Set EOD address
 005ED6 9202 2030      00030       38980    4986.              MVI   DCBOFLGS,X'02'              Set OFLGS
 005EDA 9201 2037      00037       38981    4987.              MVI   DCBCHECK+3,1                  Set check routine
 005EDE 9201 2047      00047       38982    4988.              MVI   DCBIOBA+3,1                     Set IOB address
 005EE2 9201 204F      0004F       38983    4989.              MVI   DCBRECAD+3,1                      Set next record
 005EE6 9240 201A      0001A       38984    4990.              MVI   DCBDSRG1,DCBDSGPS   Set dsorg=ps
 005EEA 4130 CA74            00A74 38985    4991.              LA    TR,DTEXLST          Address of exit list
 005EEE 5030 2024            00024 38986    4992.              ST    TR,DCBEXLST         Save exit list in dcb
 005EF2 9250 2024      00024       38987    4993.              MVI   DCBRECFM,DCBRECV+DCBRECBR
 005EF6 9250 2033      00033       38988    4994.              MVI   DCBMACR2,DCBMRPUT+DCBMRMVP
 DROP   IHADCB,R2                  38989    4995.              DROP  SR                  ## release dcb addr
 005EFA D717 C688 C688 00688 00688 38996    4995.1             CLEAR DTDVTA              Clear device type area to zeroes
 005F00 9102 B1C0/47E0_001C0       39003    4995.2             IF    FLDUMMY,BEGIN       PROCESSING DUMMY TAPE OUTPUT
 005F08 4120 C688            00688 39018  1 4995.21              LA    R2,DTDVTA           ADDRESS OF DEVTYPE INFORMATION
 USING  DVTAREA,R2                 39019  1 4995.22              WITH  (DVTAREA,R2)        ADDRESSABILITY TO DEVTYPE INFO
 005F0C D203 2004 7CBA 00004 066F0 39032  1 4995.23              MVC   DVTMXBLK,=A(32760)  Set device maximum blksize
 005F12 74E0/47F0 752E 05F12 05F06 39033    4995.3             END   ELSE,BEGIN
 DROP   DVTAREA,R2
 005F16 4110 CC3C/4100_      00C3C 39053  1 4996.                DEVTYPE DTDDNAM,DTDVTA,DEVTAB
 005F22 12FF/4780 752E             39059  1 4997.                IF    (R15,NZ),BEGIN      Process error return from devtype
 005F28 182F                       39073  2 4998.                  LR    SR,R15              Save devtype return code
 005F2A 4110 7D7E/4100_      067B4 39074  2 4999.                  VSEG  'VDMP319E - Error return from devtype, r15('
 005F38 18F2/1B00/4110_            39083  2 5000.                  SEGDC 0,(SR),WORK=SWORK   Report return code
 005F4C 4110 7E08/4100_      0683E 39122  2 5001.                  VSEG  ')'                 Add closing quote to message
 005F5A 5890 7C46/0D99       0667C 39131  2 5001.1                 VWRITE ,
 005F60 47F0 76DC            06112 39136  2 5002.                  B     SETDTXT             Return via tape device error
 005F64                            39137  1 5003.                END   ,
 005F64                            39141    5003.1             END   ,
 005F64 4120 C688            00688 39145    5004.              LA    SR,DTDVTA           Set address of devtype area
 USING  DVTAREA,R2                 39146    5005.              USING DVTAREA,SR              ##
 005F68 9580 2002/4780_00002       39155    5006.              IF    (DVTCLASS,NE,DVTCTAPE),BEGIN
 005F70 94BF B1C0      001C0       39173  1 5008.                CLEAR FLFEOV                  dont do eov if not tape
 005F74 94DF B1C0      001C0       39180  1 5009.                CLEAR FLTHIST                 or tape error history
 005F78 7546/47F0 755E 05F78 05F6E 39187    5010.              END   ELSE,BEGIN          Check for 3480 or 3490
 005F7C 9580 2003/4780_00003       39202  1 5010.1               IF    ((DVTUTYPE,EQ,X'80'),OR,(DVTUTYPE,EQ,X'81')),BEGIN
 005F8C 94BF B1C0      001C0       39235  2 5010.2                 CLEAR FLFEOV                  dont do eov if not tape
 005F90 94DF B1C0      001C0       39242  2 5010.3                 CLEAR FLTHIST                 or tape error history
1VDMP     (VDMP21) (09:46) (22MAR04) ORVYL's File System Dump Program: Dump task                                            Page  211
0Current Usings:  (DVTAREA,R2) (DUMP,R6) (*,R7) (IOB,R10) (DWA,R11) (SWA,R12)
0Loc    Object Code    Addr1 Addr2  Stmt Lv Lineno    Source Statement           (Hibal 5, Asmedit 3.3)  HLASM R4.0  2004/03/22 09.46
+___    ______ ____    _____ _____  ____ __ ______    ______ _________
0005F94                            39249  1 5010.8               END   ,
 005F94                            39253    5010.9             END   ,
 005F94 D603 2000 2000_00000 00000 39257    5011.              IF    (DVTDEVCD,Z),'MVC DVTMXBLK,=A(32760)'
                                   39279    5012.          ¿þþþþþþþþþþþþþþþþþþþþþþþþþþþþþþþþþþþþþþþþþþþþþþþþþþþþþþþþþþþþþþþþÜ
                                   39280    5013.          Ÿ  Calculate and set dump tape LRECL, and maximum and minimum    Ÿ
                                   39281    5014.          Ÿ  Block sizes based on device type and lrecl respectively.      Ÿ
                                   39282    5015.          Ÿ  Dump tape is V format, so allow for record headers (4 bytes)  Ÿ
                                   39283    5016.          ¾þþþþþþþþþþþþþþþþþþþþþþþþþþþþþþþþþþþþþþþþþþþþþþþþþþþþþþþþþþþþþþþþ»
 005FA4 5830 2004            00004 39284    5017.              L     TR,DVTMXBLK             get max blocksize
 DROP   DVTAREA,R2                 39285    5018.              DROP  SR                      ##
 005FA8 4030 C6A0            006A0 39292    5019.              STH   TR,DTMAXBLK             can't be bigger than the device
 005FAC 1F55/BF53 C190             39293    5020.              L2    RR,FSUDATLN         Record size for this file system
 005FB2 4150 500C            0000C 39301    5021.              LA    RR,@RR+FSHDRDMP     + preserved header information
 005FB6 4150 5004            00004 39302    5028.              LA    RR,@RR+4            + length (4) plus input lrecl
 005FBA 4050 CC66            00C66 39303    5029.              STH   RR,DTLRECL            set it
 005FBE 4150 5004            00004 39304    5030.              LA    RR,@RR+4              minimum block is one
 005FC2 4050 C6A2            006A2 39305    5031.              STH   RR,DTMINBLK           record plus block header
 005FC6 4110 CBC4/0A40       00BC4 39306    5032.              RDJFCB MF=(E,DTOPNLST)      get jfcb
 005FCC 12FF/4780 75E0             39311    5033.              IF    (R15,NZ),BEGIN      Report bad return from rdjfcb
 005FD2 182F                       39325  1 5034.                LR    SR,R15              Save return code from rdjfcb
 005FD4 4110 7E09/4100_      0683F 39326  1 5035.                VSEG  'VDMP320E - Bad return from RDJFCB, R15('
 005FE2 18F2/1B00/4110_            39335  1 5036.                SEGDC 0,(SR),WORK=SWORK   Report return code
 005FF6 4110 7E08/4100_      0683E 39374  1 5037.                VSEG  ')'                 Add closing parrend
 006004 5890 7C46/0D99       0667C 39383  1 5038.                VWRITE ,                  Write to report file
 00600A 9102 B1C0/4710_001C0       39388  1 5038.1               IF    FLDUMMY,EXIT   *** Temp Research ***
 006012 47F0 76DC            06112 39406  1 5039.                B     SETDTXT             Return via device error
 006016                            39407    5040.              END   ,
                                   39411    5040.01            ¿þþþþþþþþþþþþþþþþþþþþþþþþþþþþþþþþþþþþþþþþþþþþþþÜ
                                   39412    5040.02            Ÿ  Inform VDMP exit on dump tape open request  Ÿ
                                   39413    5040.03            ¾þþþþþþþþþþþþþþþþþþþþþþþþþþþþþþþþþþþþþþþþþþþþþþ»
 006016 9140 B1C2/47E0_001C2       39414    5040.04            IF    XIT_Active,BEGIN    Make initial entry to exit routine
 00601E 41F0 B0E8            000E8 39429  1 5040.05              LA    R15,COMLOCK         Address of lockwords
 006022 4D90 628C            002A2 39430  1 5040.06              LCALL GETLOCK             Get communications lock
 006026 58F0 B2D8/12FF       002D8 39432  1 5040.07              LT    R15,XIT_EP          Do we have an exit?
 00602C 4780 762E            06064 39436  1 5040.08              IF    NZ,BEGIN            Yes we do, call exit for processing
 006030 4110 C014            00014 39447  2 5040.09                LA    R1,SUBTXPRM         Address of subtask exit list
 USING  VDMPEXIT,R1                39448  2 5040.1                 WITH  (VDMPEXIT,R1)       Addressability to list
 006034 D203 1000 7CBE 00000 066F4 39461  2 5040.11                MVC   VDMPXID,=CL4'VXIT'  Set parameter list identifier
 00603A D203 1004 7CC2 00004 066F8 39462  2 5040.12                MVC   VDMPXLEN,=A(L'VDMPEXIT) And total length of the list
 006040 D203 100C 7CC6 0000C 066FC 39463  2 5040.13                MVC   VDMPRETC,=A(-1)         Just to be a little nasty
 006046 D203 1008 7CCA 00008 06700 39464  2 5040.14                MVC   VDMPFNC,=A(VDMPF_OPNT)  Set for tape open
 00604C 4120 CC14            00C14 39465  2 5040.15                LA    R2,DTDCB                Address of tape DCB
 006050 5020 1018            00018 39466  2 5040.16                ST    R2,VDMP_DCB             Save address in exit list
 006054 4120 C6C0            006C0 39467  2 5040.9                 LA    R2,DTJFCB               Address of tape JFCB
 006058 5020 1014            00014 39468  2 5040.91                ST    R2,VDMP_JFC             Save address in exit list
 USING  JFCBDSNM,R2                39469  2 5040.92                WITH  (JFCBDSNM,R2),BEGIN Addressability to JFCB
 00605C D22B 101C 2000 0001C 00000 39483  3 5040.93                  MVC   VDMP_NAM,JFCBDSNM       Set tape data set name
 DROP   JFCBDSNM,R2                39484  2 5040.94                END   ,
 006062 0CEF                       39492  2 5040.95                BASSM R14,R15             Enter exit routine in proper amode
 DROP   VDMPEXIT,R1                39493  1 5040.96              END   ,
 006064 41F0 B0E8            000E8 39502  1 5040.97              LA    R15,COMLOCK         Address of lockwords
 006068 4D90 6310            00326 39503  1 5040.98              LCALL RELLOCK             Release communications lock
 00606C                            39505    5040.99            END   ,
 00606C 4110 CBC4/94F0_      00BC4 39509    5041.              OPEN  (,OUTPUT),TYPE=J,MF=(E,DTOPNLST)
1VDMP     (VDMP21) (09:46) (22MAR04) ORVYL's File System Dump Program: Dump task                                            Page  212
0Current Usings:  (DUMP,R6) (*,R7) (IOB,R10) (DWA,R11) (SWA,R12)
0Loc    Object Code    Addr1 Addr2  Stmt Lv Lineno    Source Statement           (Hibal 5, Asmedit 3.3)  HLASM R4.0  2004/03/22 09.46
+___    ______ ____    _____ _____  ____ __ ______    ______ _________
000607A 4110 7DA8/4100_      067DE 39515    5042.              VSEG  'VDMP501I - Dumptape open: BLKSIZE='
 006088 48F0 CC52/1B00_      00C52 39524    5043.              SEGDC 0,LH:DTBLKSI        Convert tape blocksize
 00609E 4110 7E30/4100_      06866 39562    5044.              VSEG  ',LRECL='           Report on tape lrecl length
 0060AC 48F0 CC66/1B00_      00C66 39571    5045.              SEGDC 0,LH:DTLRECL        Convert tape lrecl
 0060C2 5890 7C46/0D99       0667C 39609    5046.              VWRITE ,                  Write to report file
 0060C8 4120 C6C0            006C0 39614    5047.              LA    SR,DTJFCB           Address of job file control block
 USING  JFCBDSNM,R2                39615    5048.              USING JFCBDSNM,SR         ## addressability to block
 0060CC 5830 C010            00010 39624    5049.              L     TR,PBLKADR          Address of subparm block
 USING  SUBPARM,R3                 39625    5050.              WITH  (SUBPARM,TR),BEGIN  Addressability to subparm
 0060D0 D22B 3025 2000 00025 00000 39639  1 5051.                MVC   SUBTAPE,JFCBDSNM    Set actual data set name
 DROP   SUBPARM,R3                 39640    5052.              END   ,
 0060D6 4100 0010/4110_      00010 39648    5053.              VCNTL BLANK,11            Set blank filler
 0060E4 4110 7C22/4100_      06658 39667    5054.              VSEG  'Tapedsn='
 0060F2 D22B C770 2000 00770 00000 39676    5055.              MVC   DTRDSN,JFCBDSNM     Save for recover data set name
 0060F8 4100 002C            0002C 39677    5056.              LA    R0,L'DTRDSN         Set maximum length
 0060FC 4110 C770            00770 39678    5057.              LA    R1,DTRDSN           Set address of data set name
 006100 4D90 616A            00180 39679    5058.              LCALL RTRIM               Trim trailing blanks
 006104 5890 7C42/0D99       06678 39681    5059.              VSEG  (R1),(R0)           Add data set
 00610A 5890 7C46/0D99       0667C 39696    5060.              VWRITE ,
 DROP   JFCBDSNM,R2                39701    5061.              DROP  SR                  ## release jfcb addressability
 006110 1BFF                       39708    5062.              CLEAR R15                     set good return code
 006112                            39712    5063.     SETDTXT  LABEL ,                   Error exit point from setupdt
 006112 4BD0 7D24/5890_      0675A 39714    5064.              VPOP  RAR,,*              Restore return register
 00611A 07F9                       39717    5065.              BR    RAR                 And return
1VDMP     (VDMP21) (09:46) (22MAR04) ORVYL's File System Dump Program: Dump task                                            Page  213
0Current Usings:  (DUMP,R6) (*,R7) (IOB,R10) (DWA,R11) (SWA,R12)
0Loc    Object Code    Addr1 Addr2  Stmt Lv Lineno    Source Statement           (Hibal 5, Asmedit 3.3)  HLASM R4.0  2004/03/22 09.46
+___    ______ ____    _____ _____  ____ __ ______    ______ _________
0                                  39719    5067.     ********************************************************************
                                   39720    5068.     *                                                                  *
                                   39721    5069.     *    DCB exit for dump tape - adjust block size if necessary       *
                                   39722    5070.     *                                                                  *
                                   39723    5071.     ********************************************************************
000611C                            39725    5073.     DTDCBEX  LABEL ,
 00611C D501 CC52 C6A2_00C52 006A2 39727    5074.              IF    (DTBLKSI,LT,DTMINBLK),BEGIN
 006126 9102 CC52/4780_00C52       39745  1 5075.                IF    (DTBLKSI,NZ),BEGIN  Blocksize was specified
 00612E D201 CC52 C6A2 00C52 006A2 39762  2 5076.                  MVC   DTBLKSI,DTMINBLK    And it was less then the minimum
 006134 7702/47F0 7708 06134 0612C 39763  1 5077.                END   ELSE,BEGIN          Blocksize has not been set yet
 006138 D201 CC52 C6A0 00C52 006A0 39778  2 5078.                  MVC   DTBLKSI,DTMAXBLK    Use maximum blocksize for device
 00613E                            39779  1 5079.                END   ,
 00613E                            39783    5080.              END   ,
 00613E D501 CC52 C6A0 00C52 006A0 39787    5081.              CLC   DTBLKSI,DTMAXBLK        will it fit?
 006144 07DE                       39788    5082.              BNHR  R14                     yep
 006146 D201 CC52 C6A0 00C52 006A0 39789    5083.              MVC   DTBLKSI,DTMAXBLK        set the max
 00614C 07FE                       39790    5084.              BR    R14
-
                                   39792    5086.     ********************************************************************
                                   39793    5087.     *                                                                  *
                                   39794    5088.     ** EOV Exit routine for dumptape - zero feov counter at eov        *
                                   39795    5089.     *                                                                  *
                                   39796    5090.     ********************************************************************
000614E                            39798    5092.     DTEOVEX  LABEL ,
 USING  DTEOVEX,R15                39800    5093.              WITH  (DTEOVEX,R15),BEGIN Addressability for eov exit
 00614E 9608 C060      00060       39814  1 5094.                SET   EOVASYNC            Set asynchronous eov encountered
 006152 07FE                       39820  1 5096.                BR    R14                 Return to "put" call
 DROP   DTEOVEX,R15                39821    5097.              END   ,
-                                  39830    5097.02   ¿þþþþþþþþþþþþþþþþþþþþþþþþþþþþþþþþþþþþþþþþþþþþþþþþþþþþþþþþþþþþþþþþþþþþþÜ
                                   39831    5097.03   Ÿ                                                                     Ÿ
                                   39832    5097.04   Ÿ  Dump tape output trailer label exit                                Ÿ
                                   39833    5097.05   Ÿ                                                                     Ÿ
                                                      ¾þþþþþþþþþþþþþþþþþþþþþþþþþþþþþþþþþþþþþþþþþþþþþþþþþþþþþþþþþþþþþþþþþþþþþ»
0006154                            39835    5097.07   DTTRLX   LABEL ,
 USING  DTTRLX,R15                 39837    5097.08            WITH  (DTTRLX,R15),BEGIN  Addressability to trailer label exit
 006154 9604 C060      00060       39851  1 5097.09              SET   TRL_Lab             Set trailer label exit encountered
 006158 1BFF                       39857  1 5097.1               CLEAR R15                 Indicate done with trailer labels
 DROP   DTTRLX,R15                 39861    5097.64            END   ,
1VDMP     (VDMP21) (09:46) (22MAR04) ORVYL's File System Dump Program: Dump task                                            Page  214
0Current Usings:  (DUMP,R6) (*,R7) (IOB,R10) (DWA,R11) (SWA,R12)
0Loc    Object Code    Addr1 Addr2  Stmt Lv Lineno    Source Statement           (Hibal 5, Asmedit 3.3)  HLASM R4.0  2004/03/22 09.46
+___    ______ ____    _____ _____  ____ __ ______    ______ _________
0                                  39870    5097.66   ********************************************************************
                                   39871    5097.67   *                                                                  *
                                   39872    5097.68   *   Calculate optimal blocksize for the passed incremental         *
                                   39873    5097.69   *   dump pool volume.  Record length is maximum user data block +  *
                                   39874    5097.7    *   12 bytes of preserved header data.                             *
                                   39875    5097.71   *   maintained header information.  incremental data is recorded   *
                                   39876    5097.72   *   in a fixed block format.                                       *
                                   39877    5097.73   *                                                                  *
                                   39878    5097.74   ********************************************************************
000615A 9029 D000/188D_      00000 39880    5097.76   SETBLK   VENTER SR,RAR,*,LOCAL     Enter and save calling registers
 DROP   *,R7
 USING  *,R7
 006166 1821                       39902    5097.77            LR    SR,R1               Copy incremental pool block addr
 USING  INCPL,R2                   39903    5097.78            WITH  (INCPL,SR),BEGIN    Addressability to pool
 006168 4130 0001            00001 39917  1 5097.79              LA    TR,1                Start with only one record
 00616C 4140 000C            0000C 39918  1 5097.8               LA    QR,FSHDRDMP         Predefined saved header length
 006170 4B40 C190            00190 39919  1 5097.81              SH    QR,FSUDATLN         Plus length of maximum block
 006174 1B55                       39920  1 5097.82              CLEAR RR                  Zero records per track value
 006176 5940 758A/4730_      066F0 39924  1 5097.83              WHILE (QR,LE,32760),BEGIN Check all blocksizes possible
 00617E 1F11/4310 2030             39943  2 5097.84                LC    R1,INCPTYPE         Set ucb type into r1
 006184 1311                       39950  2 5097.85                LCR   R1,R1               Invert for call to calctrk
 006186 1804                       39951  2 5097.86                LR    R0,QR               Set blocksize
 006188 5890 759E/0D99       06704 39952  2 5097.87                ACALL CALCTRK             Compute blocks/trac on device
 00618E 1C03                       39956  2 5097.88                MR    R0,TR               Compute records/track on device
 006190 1915/4750 7036             39957  2 5097.89                IF    (R1,GE,RR),BEGIN
 006196 1851                       39972  3 5097.9                   LR    RR,R1               Save better value
 006198 5040 2028            00028 39973  3 5097.91                  ST    QR,INCPBLK          Save blocksize value
 00619C                            39974  2 5097.92                END   ,
 00619C 4140 400C            0000C 39978  2 5097.93                LA    QR,@QR+FSHDRDMP     Bump to next blocksize
 0061A0 4A40 C190            00190 39979  2 5097.94                AH    QR,FSUDATLN
 0061A4 4130 3001            00001 39980  2 5097.95                LA    TR,@TR+1            Bump count of records
 0061A8 47F0 7010            06176 39981  1 5097.96              END   ,
 0061AC 1805                       39986  1 5097.97              LR    R0,RR               Return records per track
 DROP   INCPL,R2                   39987    5097.98            END   ,
 0061AE 18D8/9829 D000_            39995    5097.99            VEXIT SR,RAR              Restore and return to caller
1VDMP     (VDMP21) (09:46) (22MAR04) ORVYL's File System Dump Program: Dump task                                            Page  215
0Current Usings:  (DUMP,R6) (*,R7) (IOB,R10) (DWA,R11) (SWA,R12)
0Loc    Object Code    Addr1 Addr2  Stmt Lv Lineno    Source Statement           (Hibal 5, Asmedit 3.3)  HLASM R4.0  2004/03/22 09.46
+___    ______ ____    _____ _____  ____ __ ______    ______ _________
0                                  40001    5099.     ********************************************************************
                                   40002    5100.     *                                                                  *
                                   40003    5101.     *  Write data from current IOB to the dump tape or incremental     *
                                   40004    5102.     *  data set.                                                       *
                                   40005    5103.     *                                                                  *
                                   40006    5104.     ********************************************************************
00061B6 9019 D000/188D_      00000 40008    5106.     PUTDT    VENTER R1,RAR,*,LOCAL     Enter and save calling registers
 DROP   *,R7
 USING  *,R7
                                   40030    5107.     *
                                   40031    5108.     * CALCULATE HOW MANY RECORDS WERE MIssed between this excp and
                                   40032    5109.     * THE LAST ONE.
                                   40033    5110.     *
 USING  CCW,R5                     40034    5110.01            USING CCW,RR              Addressability to ccw chain
 USING  DRF,R4                     40043    5110.02            USING DRF,QR              Addressability to buffer data
 0061C2 9160 C05E/4780_0005E       40052    5110.1             IF    SFLECKD+SFLCYL,BEGIN  process extended ckd chain
 0061CA 5840 A030            00030 40070  1 5110.11              L     QR,IOBBUFFA         Address of first data record
 0061CE 7010/47F0 7088 061CE 061C8 40071    5110.2             END   ELSE,BEGIN          Process standard ckd chain
 0061D2 4150 A050            00050 40086  1 5111.                LA    RR,IOBREADS         Set ccw pointer
 0061D6 5840 5000            00000 40087  1 5113.                L     QR,CCWADDR          Pointer to data record
 0061DA 1F11/4310 4004             40088  1 5115.                LC    R1,DRFID            Get id of first rec read
 0061E0 1801                       40095  1 5116.                LR    R0,R1               Save
 0061E2 D603 C618 C618_00618 00618 40096  1 5116.1               IF    (PREVID,Z),BEGIN
 0061EC 1B11                       40112  2 5116.2                 CLEAR R1                  Zero for first pass
 0061EE 7030/47F0 7048 061EE 061EA 40116  1 5116.3               END   ELSE,BEGIN          Subsequent entries
 0061F2 5B10 C618            00618 40131  2 5117.                  S     R1,PREVID           Calculate interval
 0061F6 47B0 703C/5A10_      061FE 40132  2 5118.                  IF    NEG,' A  R1,FSRPT  '  adjust if negative
 0061FE 5510 7546            06708 40149  2 5119.                  CL    R1,=F'19'           Too big somehow?
 006202 47D0 7048/4110_      0620A 40150  2 5120.                  IF    GT,' LA  R1,19 '    Set to max
 00620A                            40167  1 5120.1               END   ,
 00620A 1A11                       40171  1 5121.                AR    R1,R1               Times 2
 00620C 1A11                       40172  1 5122.                AR    R1,R1               Times 2 more is times 4
 00620E 4130 0001/5E31_      00001 40173  1 5123.                INCR  TR,INTCTRS(R1)      Bump the counter
 00621A 5000 C618            00618 40179  1 5124.                ST    R0,PREVID           Save id for next time
                                   40180  1 5125.     *
                                   40181  1 5126.     * FIND RECORD ONE AND START PUTTING the records on the dumptape
                                   40182  1 5127.     *
 00621E 9201 C6B0      006B0       40183  1 5128.                MVI   DTRECID,1           Initialize record id
 006222 5820 C174            00174 40184  1 5129.                L     SR,FSRPT            Set last record id
 006226 4220 C6B1            006B1 40185  1 5130.                STC   SR,DTLASTID
 00622A 5840 5000            00000 40186  1 5131.     SRCHIDEQ   L     QR,CCWADDR          Get buffer address
                                   40187  1 5132.                USING DRF,QR              ##
 00622E 9501 4004/4780_00004       40189  1 5133.                IF   (DRFID,EQ,1),PUTLOOP Found record 1
 006236 9140 5004/47E0_00004       40210  1 5134.                IF   ~CCWCMDCH,SRCHERR    Can't find record 1
 00623E 4150 5008            00008 40228  1 5135.                LA    RR,CCWNEXT          Keep looking
 006242 4620 7068            0622A 40229  1 5136.                BCT   SR,SRCHIDEQ
 006246 47F0 7404            065C6 40230  1 5137.                B     SRCHERR             Can't find record one
 00624A                            40231    5137.1             END   ,
1VDMP     (VDMP21) (09:46) (22MAR04) ORVYL's File System Dump Program: Dump task                                            Page  216
0Current Usings:  (DRF,R4) (CCW,R5) (DUMP,R6) (*,R7) (IOB,R10) (DWA,R11) (SWA,R12)
0Loc    Object Code    Addr1 Addr2  Stmt Lv Lineno    Source Statement           (Hibal 5, Asmedit 3.3)  HLASM R4.0  2004/03/22 09.46
+___    ______ ____    _____ _____  ____ __ ______    ______ _________
0                                  40236    5139.     ********************************************************************
                                   40237    5140.     *                                                                  *
                                   40238    5141.     *  Dumptape put loop   ***fix this for non-2k file systems***      *
                                   40239    5142.     *                                                                  *
                                   40240    5143.     ********************************************************************
000624A                            40242    5145.     PUTLOOP  LABEL ,
 00624A 9500 4004/4770_00004       40244    5145.01            IF    (DRFID,EQ,X'00'),BEGIN  Bump past record 0
 006252 4140 4010            00010 40261  1 5145.02              LA    QR,DRF+16               adjust address
 006256                            40262    5145.94            END   ,
 006256 D602 4008 4008_00008 00008 40266    5146.              IF    (DRFBLKNO,NZ),BEGIN Validity check orvyl block number
 006260 D502 4008 C149 00008 00149 40282  1 5147.                CLC   DRFBLKNO,FSABS+1    Check with computed value?
 006266 4780 7184            06346 40283  1 5148.                IF    NE,BEGIN            Nope -- report out of synch
 00626A D503 754A C0C4_0670C 000C4 40294  2 5149.                  IF    (SWARNING,LT,10),BEGIN    report only first ten errors
 006274 4110 763E/4100_      06800 40312  3 5150.                    VSEG  'VDMP555W - Block sequence error:  '
 006282 4110 76AB/4100_      0686D 40321  3 5150.2                   VSEG  'Computed block='
 006290 58F0 C148/4100_      00148 40330  3 5151.                    SEGDC 12,L:FSABS,COMMAS=YES
 0062A8 5890 74BA/0D99       0667C 40372  3 5153.                    VWRITE ,                  Write to report file
 0062AE 4100 0010/4110_      00010 40377  3 5154.                    VCNTL BLANK,11            Add spaces to message
 0062BC 4110 76BA/4100_      0687C 40396  3 5155.                    VSEG  'Header='
 0062CA 58F0 4008/4100_      00008 40405  3 5156.                    SEGHX 8,L:DRFBLKNO        Add first part
 0062E2 58F0 400C/4100_      0000C 40447  3 5157.                    SEGHX 8,L:DRFBLKNO+4      Add second part
 0062FA 4110 7660/4100_      06822 40489  3 5158.                    VSEG  '  '                Add spacers
 006308 4110 76C1/4100_      06883 40498  3 5159.                    VSEG  'Actual block='     Add block number in decimal
 006316 1FFF/BFF7 4008_            40507  3 5160.                    SEGDC 12,L3:DRFBLKNO,COMMAS=YES      convert block number
 006330 5890 74BA/0D99       0667C 40555  3 5161.                    VWRITE ,                  Write to report file
 006336 9204 C0C3      000C3       40560  3 5162.                    MVI   SRETCODE+3,RET_WARN Set warning return code
 00633A 4100 0001/5E00_      00001 40561  3 5163.                    INCR  R0,SWARNING         Bump warning count
 006346                            40567  2 5164.                  END   ,
 006346                            40571  1 5165.                END   ,
 006346                            40575    5166.              END   ,
 006346 4820 400E            0000E 40579    5167.              LH    SR,DRFORVDL         Get user data length
 00634A 4120 200C            0000C 40580    5168.              LA    SR,@SR+FSHDRDMP     Add preserved orvyl header length
 00634E 4130 4008            00008 40581    5169.              LA    TR,DRFORVHD         Start of orvyl header
 006352 D501 7662 C18E_06824 0018E 40582    5170.              IF    (FSORVHD,GT,FSHDRDMP),BEGIN   Dump only 1st 12 bytes
 00635C D20B C6B2 3000 006B2 00000 40600  1 5171.                MVC   DTSAVHDR,@TR        Save 1st 12 bytes of header
 006362 4A30 C18E            0018E 40601  1 5172.                AH    TR,FSORVHD          Bump to user data
 006366 5F30 7552            06714 40602  1 5173.                SL    TR,=A(FSHDRDMP)     Back off preserved bytes
 00636A D20B 3000 C6B2 00000 006B2 40603  1 5174.                MVC   @TR(FSHDRDMP),DTSAVHDR  move header back in
 006370                            40604    5175.              END   ,
 006370 D202 3000 C149 00000 00149 40608    5176.              MVC   @TR(3),FSABS+1      Set absolute block number
 006376 4110 0001/5E10_      00001 40609    5177.              INCR  R1,FSABS            Increment for next pass
 006382 4110 CC14            00C14 40615    5178.              LA    R1,DTDCB            Address of dump dcb
 USING  IHADCB,R1                  40616    5179.              USING IHADCB,R1           ## addressability to dcb
 006386 9140 1024/47E0_00024       40625    5180.              IF    DCBRECFM.DCBRECV,BEGIN  variable length records
 00638E 5F30 7556            06718 40641  1 5181.                SL    TR,=A(4)            Back off for rdw
 006392 4100 2004            00004 40642  1 5182.                LA    R0,@SR+4            Adjust for rdw length too
 006396 4000 3000            00000 40643  1 5183.                STH   R0,@TR              Set into buffer
 00639A D701 3002 3002 00002 00002 40644  1 5184.                CLEAR (@TR+2,2)           Zero remainder
 0063A0                            40651    5185.              END   ,
 DROP   IHADCB,R1                  40655    5186.              DROP  R1                  ## release dcb addressability
 0063A0 9140 B1C6/47E0_001C6       40662    5187.              IF    FNCINC,BEGIN        Check if incremental dump
 0063A8 4110 CC14            00C14 40677  1 5191.                LA    R1,DTDCB            Address of incremental dcb
 USING  IHADCB,R1                  40678  1 5192.                WITH  (IHADCB,R1),BEGIN   Addressability to dcb
1VDMP     (VDMP21) (09:46) (22MAR04) ORVYL's File System Dump Program: Dump task                                            Page  217
0Current Usings:  (IHADCB,R1) (DRF,R4) (CCW,R5) (DUMP,R6) (*,R7) (IOB,R10) (DWA,R11) (SWA,R12)
0Loc    Object Code    Addr1 Addr2  Stmt Lv Lineno    Source Statement           (Hibal 5, Asmedit 3.3)  HLASM R4.0  2004/03/22 09.46
+___    ______ ____    _____ _____  ____ __ ______    ______ _________
00063AC 5800 3008            00008 40692  2 5193.                  L     R0,@TR+8            Assume fixed record format
 0063B0 9140 1024/47E0_00024       40693  2 5194.                  IF    DCBRECFM.DCBRECV,'L R0,@TR+12'  Include RDW in offset
 DROP   IHADCB,R1                  40715  1 5195.                END   ,                   Release dcb addressability
 0063BC 5500 B15C            0015C 40723  1 5196.                CL    R0,INCTOD           Recently written?
 0063C0 4750 7288            0644A 40724  1 5197.                IF    GE,BEGIN            Yep - write block to data set
 0063C4 5800 C79C/1200       0079C 40735  2 5198.                  LT    R0,DTIBLKS          Room left in file?
 0063CA 4770 7252            06414 40739  2 5199.                  IF    Z,BEGIN             Nope -- close out and reopen
 0063CE 4110 CBC4/43E1_      00BC4 40750  3 5200.                    CLOSE DTDCB,MF=(E,DTOPNLST) close out incremental file
 0063E4 4110 CC14            00C14 40758  3 5201.1                   LA    R1,DTDCB            Address of tape buffer pool
 0063E8 4D90 611E            00134 40759  3 5201.2                   LCALL FREPOOL             Release tape buffer pool
 0063EC 5890 74B2/0D99       06674 40761  3 5202.                    ACALL GETIDSN             Get next block please
 0063F2 4110 CBC4/94F0_      00BC4 40765  3 5203.                    OPEN  (DTDCB,(OUTPUT)),MF=(E,DTOPNLST)
 006410 4110 CC14            00C14 40775  3 5204.                    LA    R1,DTDCB            Reset dcb address
 006414                            40776  2 5205.                  END   ,
 006414 1811/1803/1FFF_            40780  2 5206.                  PUT   (R1),(TR)           Write changed block
 006420 4100 000C            0000C 40787  2 5206.1                 LA    R0,FSHDRDMP         Preserved header to tape
 006424 4A00 C190            00190 40788  2 5206.2                 AH    R0,FSUDATLN         + user block length
 006428 4E00 C098            00098 40789  2 5206.3                 CVD   R0,SWORK            Convert value to packed
 00642C FA77 C6A8 C098 006A8 00098 40790  2 5207.                  AP    DTBYTCNT,SWORK
 006432 4120 0001/5E20_      00001 40791  2 5208.                  INCR  SR,DTBLKCNT         Update blocks written count
 00643E 5800 C79C            0079C 40797  2 5209.                  L     R0,DTIBLKS          Get count remaining
 006442 5B00 755A            0671C 40798  2 5210.                  S     R0,=A(1)            Decrement count
 006446 5000 C79C            0079C 40799  2 5211.                  ST    R0,DTIBLKS          Reset count remaining
 00644A                            40800  1 5212.                END   ,
 00644A 728C/47F0 7334 0644A 063A6 40804    5213.              END   ELSE,BEGIN
                                   40819  1 5213.01              ¿þþþþþþþþþþþþþþþþþþþþþþþþþþþþþþþþþþþþþþþþþþþþþþþþþþþþþþþþÜ
                                   40820  1 5213.02              Ÿ  Check for exit processing                             Ÿ
                                   40821  1 5213.03              Ÿ        Return code:  0  Continue normal processing     Ÿ
                                   40822  1 5213.04              Ÿ                      4  Block modified, address in R1  Ÿ
                                   40823  1 5213.05              ¾þþþþþþþþþþþþþþþþþþþþþþþþþþþþþþþþþþþþþþþþþþþþþþþþþþþþþþþþ»
 00644E 9140 B1C2/47E0_001C2       40824  1 5213.06              IF    XIT_Active,BEGIN    Test for any exit processing
 006456 41F0 B0E8            000E8 40839  2 5213.07                LA    R15,COMLOCK         Address of lockwords
 00645A 4D90 628C            002A2 40840  2 5213.08                LCALL GETLOCK             Get communications lock
 00645E 58F0 B2D8            002D8 40842  2 5213.09                L     R15,XIT_EP          Load up address of exit routine
 006462 4110 C014            00014 40843  2 5213.1                 LA    R1,SUBTXPRM         Address of exit parameters
 USING  VDMPEXIT,R1                40844  2 5213.11                WITH  (VDMPEXIT,R1)       Addressabiity to parameter list
 006466 D203 1008 755E 00008 06720 40857  2 5213.12                MVC   VDMPFNC,=A(VDMPF_BLCK)  Set entry vector code
 00646C D203 100C 753A 0000C 066FC 40858  2 5213.13                MVC   VDMPRETC,=A(-1)     Still being a little nasty
 006472 5030 1018            00018 40859  2 5213.14                ST    TR,VDMP_BLK         Pass address of current block
 006476 0CEF                       40860  2 5213.15                BASSM R14,R15             Enter exit routine
 006478 59F0 7562/4770_      06724 40861  2 5213.16                IF    (R15,EQ,VDMPR_TERM),BEGIN
 006480 94BF B1C2      001C2       40878  3 5213.17                  CLEAR XIT_Active          Clear VDMP exit active
 006484 D703 B2D8 B2D8 002D8 002D8 40885  3 5213.18                  CLEAR XIT_EP              And zero out exit address
 00648A                            40892  2 5213.19                END   ,
 00648A 59F0 7566/4770_      06728 40896  2 5213.2                 IF    (R15,EQ,VDMPR_BMOD),BEGIN
                                          3                          ¿þþþþþþþþþþþþþþþþþþþþþþþþþþþþþþþþþþþþþþþþþþþþþþþþþþþþþþþþþÜ
                                   40913  3 5213.21                  Ÿ  Block has been modified, update register (TR) pointer  Ÿ
                                          3                          ¾þþþþþþþþþþþþþþþþþþþþþþþþþþþþþþþþþþþþþþþþþþþþþþþþþþþþþþþþþ»
 006492 5830 1018            00018 40914  3 5213.22                  L     TR,VDMP_BLK         Load updated block address
 006496 4110 CC14/1803_      00C14 40915  3 5213.23                  PUT   DTDCB,(TR)          Put the record
 0064A4 9108 C060/47E0_00060       40922  3 5213.24                  IF    EOVASYNC,BEGIN      Asynchronous eov occurred
 0064AC 5890 756A/0D99       0672C 40937  4 5213.25                    ACALL EOVMSG              Write statistic message
 0064B2                            40941  3 5213.26                  END   ,
 0064B2                            40945  2 5213.29                END   ,
1VDMP     (VDMP21) (09:46) (22MAR04) ORVYL's File System Dump Program: Dump task                                            Page  218
0Current Usings:  (VDMPEXIT,R1) (DRF,R4) (CCW,R5) (DUMP,R6) (*,R7) (IOB,R10) (DWA,R11) (SWA,R12)
0Loc    Object Code    Addr1 Addr2  Stmt Lv Lineno    Source Statement           (Hibal 5, Asmedit 3.3)  HLASM R4.0  2004/03/22 09.46
+___    ______ ____    _____ _____  ____ __ ______    ______ _________
00064B2 41F0 B0E8            000E8 40949  2 5213.3                 LA    R15,COMLOCK         Address of lockwords
 0064B6 4D90 6310            00326 40950  2 5213.31                LCALL RELLOCK             Release communications lock
 0064BA 72FC/47F0 7318 064BA 06454 40952  1 5213.99              END   ELSE,BEGIN
 DROP   VDMPEXIT,R1
 0064BE 4110 CC14/1803_      00C14 40972  2 5214.                  PUT   DTDCB,(TR)          Put the record
 0064CC 9108 C060/47E0_00060       40979  2 5215.                  IF    EOVASYNC,BEGIN      Asynchronous eov occurred
 0064D4 5890 756A/0D99       0672C 40994  3 5216.                    ACALL EOVMSG              Write statistic message
 0064DA                            40998  2 5217.                  END   ,
 0064DA                            41002  1 5217.1               END   ,
 0064DA 4E20 C098            00098 41006  1 5221.                CVD   SR,SWORK            Bytes writen
 0064DE FA77 C6A8 C098 006A8 00098 41007  1 5222.                AP    DTBYTCNT,SWORK      Bump total written
 0064E4 FA77 C680 C098 00680 00098 41008  1 5222.1               AP    DTEOVCNT,SWORK      Bump total for EOV statistics
 0064EA 4120 0001/5E20_      00001 41009  1 5223.                INCR  SR,DTBLKCNT         Bump block count
 0064F6                            41015    5224.              END   ,
 0064F6 9160 C05E/4780_0005E       41019    5224.01            IF    SFLECKD+SFLCYL,BEGIN  process extended ckd chain
 0064FE 5800 A038            00038 41037  1 5224.14              L     R0,IOBIOCNT         Load up block count
 006502 5B00 755A            0671C 41038  1 5224.92              S     R0,=A(1)            Decrement by one block
 006506 5000 A038            00038 41039  1 5224.93              ST    R0,IOBIOCNT         Replace remaining block count
 00650A 1200/4780 73A6             41040  1 5224.94              IF    (R0,Z),PUTDONE      Done with records
 006510 4A40 C188            00188 41057  1 5224.95              AH    QR,FSRDLEN          Bump to next record
 006514 D507 4000 749E 00000 06660 41058  1 5224.96              CLC   0(8,QR),=8X'FF'     At pseudo count field?
 00651A 4770 7360/4140_      06522 41059  1 5224.97              IF    EQ,'LA QR,8(,QR)'   Skip past pseudo count field
 006522 47F0 7088            0624A 41076  1 5224.98              B     PUTLOOP             Process next record
 006526 7368/47F0 73A6 06526 064FC 41077    5224.99            END   ELSE,BEGIN          Process standard ckd chain
 00652A D500 4004 C6B1_00004 006B1 41092  1 5225.                IF   (DRFID,EQ,DTLASTID),PUTDONE  done yet?
 006534 9140 5004/47E0_00004       41113  1 5226.                IF   CCWCMDCH,'  LA   RR,CCWNEXT '  bump ccw pointer
 006540 7382/47F0 7386 06540 0653A 41134  1 5227.                ELSE  BEGIN
 006544 4150 A050            00050 41145  2 5228.                  LA    RR,IOBREADS             wrap ccw chain
 006548                            41146  1 5229.                END
 006548 1F22/4320 C6B0             41150  1 5230.                LC    SR,DTRECID              bump current record id
 00654E 4120 2001            00001 41157  1 5231.                LA    SR,@SR+1
 006552 4220 C6B0            006B0 41158  1 5232.                STC   SR,DTRECID
 006556 5840 5000            00000 41159  1 5233.                L     QR,CCWADDR              set buffer pointer
 00655A D500 4004 C6B0_00004 006B0 41160  1 5234.                IF   (DRFID,EQ,DTRECID),PUTloop  right record?  keep going
 006564 47F0 7404            065C6 41181  1 5235.                B     SRCHERR                 no, give it up
 006568                            41182    5235.1             END   ,
1VDMP     (VDMP21) (09:46) (22MAR04) ORVYL's File System Dump Program: Dump task                                            Page  219
0Current Usings:  (DRF,R4) (CCW,R5) (DUMP,R6) (*,R7) (IOB,R10) (DWA,R11) (SWA,R12)
0Loc    Object Code    Addr1 Addr2  Stmt Lv Lineno    Source Statement           (Hibal 5, Asmedit 3.3)  HLASM R4.0  2004/03/22 09.46
+___    ______ ____    _____ _____  ____ __ ______    ______ _________
0006568                            41187    5237.     PUTDONE  DS    0H
                                   41188    5238.     *
                                   41189    5239.     *  TAPE ERROR HISTORY FOR ACCEPTABLE limits
                                   41190    5240.     *
0006568 9120 B1C0/47E0_001C0       41192    5242.              IF    FLTHIST,BEGIN           check tape errors encountered
 006570 5820 CC40            00C40 41207  1 5243.                L     SR,DTDEBAD              address of deb
 USING  DEBBASIC,R2                41208  1 5244.                USING DEBBASIC,SR             ## addr for deb basic section
 006574 4120 2020            00044 41217  1 5245.                LA    SR,DEBBASND             point to end of basic section
 DROP   DEBBASIC,R2                41218  1 5246.                USING DEBDASD,SR              ## addressability to dasd
 USING  DEBDASD,R2
 006578 BF27 2001            00001 41230  1 5247.                ICM   SR,7,DEBUCBAD+1         ucb address from deb
 DROP   DEBDASD,R2                 41231  1 5248.                USING UCBOB,SR                ## addr for ucb common
 USING  UCBOB,R2
 00657C 5830 202C            0002C 41243  1 5249.                L     TR,UCBXTN               address for tape extension
 USING  UCBMT,R3                   41244  1 5250.                USING UCBMT,TR                ## addr for tape extension
 006580 1F00/4300 3005             41253  1 5251.                LC    R0,UCBTW                count of temp write errors
                                   41258  1 5252.   C            IF    ((R0,GE,DTTWLMT),OR,          test tw count
 006586 5900 B174/47A0_      00174        1 5253.                      (UCBERG,GE,DTEGLMT+2)),BEGIN  Test eg count
 006598 9680 C060      00060       41292  2 5254.                  SET   EOVERR              Set maximum error occured
 00659C 5890 756A/0D99       0672C 41298  2 5255.                  ACALL EOVMSG              Call eov message
 0065A2                            41302  1 5256.                END   ,
 0065A2                            41306    5257.              END   ,
 DROP   UCBOB,R2                   41310    5258.              DROP  SR                  ## release ucb addressability
-                                  41318    5260.     *
                                   41319    5261.     *  CHECK FOR FEOV DUE TO BYTE COUNT
                                   41320    5262.     *
00065A2 9140 B1C0/47E0_001C0       41322    5264.              IF   (FLFEOV,AND,(DTEOVCNT,GT,DTFEOVC)),BEGIN
 0065B4 9640 C060      00060       41354  1 5265.                SET   EOVMAX
 0065B8 5890 756A/0D99       0672C 41360  1 5266.                ACALL EOVMSG
 0065BE                            41364    5267.              END  ,
 0065BE 18D8/9819 D000_            41368    5268.              VEXIT R1,RAR
1VDMP     (VDMP21) (09:46) (22MAR04) ORVYL's File System Dump Program: Dump task                                            Page  220
0Current Usings:  (UCBMT,R3) (DRF,R4) (CCW,R5) (DUMP,R6) (*,R7) (IOB,R10) (DWA,R11) (SWA,R12)
0Loc    Object Code    Addr1 Addr2  Stmt Lv Lineno    Source Statement           (Hibal 5, Asmedit 3.3)  HLASM R4.0  2004/03/22 09.46
+___    ______ ____    _____ _____  ____ __ ______    ______ _________
00065C6 4110 76CE/4100_      06890 41374    5270.     SRCHERR  VSEG  '*** Search error *** can''t find record # '
 0065D4 1FFF/43F0 C6B0             41383    5271.              LC    R15,DTRECID         Set record number into r15
 0065DA 1B00/4110 B010_            41390    5272.              SEGDC 0,(R15),COMMAS=YES  Add to seg buffer
 0065EC 4100 0000/1B11_      00000 41428    5273.              VCNTL WTO,0               Inform the operator
 0065F8 4110 0384/4100_      00384 41444    5274.              ABEND 900,DUMP            Pull the plug ollie
 DROP   UCBMT,R3                   41453    5275.              DROP  SR,TR,QR,RR         ## drc,ccw,deb,ucb,ucbxtn
 DROP   DRF,R4
 DROP   CCW,R5
1VDMP     (VDMP21) (09:46) (22MAR04) ORVYL's File System Dump Program: Dump task                                            Page  221
0Current Usings:  (DUMP,R6) (*,R7) (IOB,R10) (DWA,R11) (SWA,R12)
0Loc    Object Code    Addr1 Addr2  Stmt Lv Lineno    Source Statement           (Hibal 5, Asmedit 3.3)  HLASM R4.0  2004/03/22 09.46
+___    ______ ____    _____ _____  ____ __ ______    ______ _________
0                                  41476    5276.01   ********************************************************************
                                   41477    5276.1    *                                                                  *
                                   41478    5276.2    *   Define literal pool generated thus far                         *
                                   41479    5276.3    *                                                                  *
                                   41480    5276.31   ********************************************************************
-006608                            41482    5277.              LTORG ,                   Define literal pool
 006608 E2E8E2C1D3D3C4C1           41484                             =CL8'SYSALLDA'
 006610 E5C4D4D7F5F0F9C9           41485                             =C'VDMP509I - Incremental DCB open.'
 006630 E5C4D4D7F3F1F3C5           41486                             =C'VDMP313E - Error allocating tape volume.'
 006658 E381978584A2957E           41487                             =C'Tapedsn='
 006660 FFFFFFFFFFFFFFFF           41488                             =8X'FF'
 006668 00070000                   41489                             =AL2(DALTRK,0)
 00666C 000D0000                   41490                             =AL2(DALRLSE,0)
 006670 001C0000                   41491                             =AL2(DALCLOSE,0)
 006674 00006BD0                   41492                             =A(GETIDSN)
 006678 00000000                   41493                             =V(VSEG)
 00667C 00000000                   41494                             =V(VWRITE)
 006680 D5E4D3D3C6C9D3C5           41495                             =CL44'NULLFILE'
 0066AC E2E8E2F34BD7D9D6           41496                             =CL44'SYS3.PROTO.DSCB'
 0066D8 00000000                   41497                             =V(BTD)
 0066DC 00001F42                   41498                             =A(FINDDD)
 0066E0 00000000                   41499                             =V(VCNTRL)
 0066E4 00000000                   41500                             =V(BTX)
 0066E8 00006154                   41501                             =A(DTTRLX)
 0066EC 0000614E                   41502                             =A(DTEOVEX)
 0066F0 00007FF8                   41503                             =A(32760)
 0066F4 E5E7C9E3                   41504                             =CL4'VXIT'
 0066F8 00000048                   41505                             =A(L'VDMPEXIT)
 0066FC FFFFFFFF                   41506                             =A(-1)
 006700 0000000C                   41507                             =A(VDMPF_OPNT)
 006704 0000B676                   41508                             =A(CALCTRK)
 006708 00000013                   41509                             =F'19'
 00670C 0000000A                   41510                             =AL4(10)
 006710 00000000                   41511                             =V(BTDC)
 006714 0000000C                   41512                             =A(FSHDRDMP)
 006718 00000004                   41513                             =A(4)
 00671C 00000001                   41514                             =A(1)
 006720 00000018                   41515                             =A(VDMPF_BLCK)
 006724 00000010                   41516                             =A(VDMPR_TERM)
 006728 00000004                   41517                             =A(VDMPR_BMOD)
 00672C 000068BA                   41518                             =A(EOVMSG)
 006730 000100010008               41519                             =AL2(DALDDNAM,1,8)
 006736 00020001002C               41520                             =AL2(DALDSNAM,1,44)
 00673C 000400010001               41521                             =AL2(DALSTATS,1,1)
 006742 000500010001               41522                             =AL2(DALNDISP,1,1)
 006748 000A00010003               41523                             =AL2(DALPRIME,1,3)
 00674E 001500010008               41524                             =AL2(DALUNIT,1,8)
 006754 001000010006               41525                             =AL2(DALVLSER,1,6)
 00675A 0004                       41526                             =Y(4)
 00675C 002400000000               41527                             =AL2(DALDUMMY,0,0)
 006762 000300010002               41528                             =AL2(DALMEMBR,1,2)
 006768 4EF1                       41529                             =CL2'+1'
1VDMP     (VDMP21) (09:46) (22MAR04) ORVYL's File System Dump Program: Dump task                                            Page  222
0Current Usings:  (DUMP,R6) (*,R7) (IOB,R10) (DWA,R11) (SWA,R12)
0Loc    Object Code    Addr1 Addr2  Stmt Lv Lineno    Source Statement           (Hibal 5, Asmedit 3.3)  HLASM R4.0  2004/03/22 09.46
+___    ______ ____    _____ _____  ____ __ ______    ______ _________
000676A 000600010001               41530                             =AL2(DALCDISP,1,1)
 006770 000900010003               41531                             =AL2(DALBLKLN,1,3)
 006776 000B00010003               41532                             =AL2(DALSECND,1,3)
 00677C 001300010001               41533                             =AL2(DALVLCNT,1,1)
 006782 001E00010001               41534                             =AL2(DALLABEL,1,1)
 006788 001F00010002               41535                             =AL2(DALDSSEQ,1,2)
 00678E 0001                       41536                             =XL2'1'
 006790 002C0001002C               41537                             =AL2(DALDCBDS,1,44)
 006796 002300010002               41538                             =AL2(DALRETPD,1,2)
 00679C 005A                       41539                             =AL2(90)
 00679E 004F00010001               41540                             =AL2(DALTRTCH,1,1)
 0067A4 000500010001               41541                             =AL2(DUNOVDSP,1,1)
 0067AA 5D4040D9C5C1E2D6           41542                             =C')  REASON('
 0067B4 E5C4D4D7F3F1F9C5           41543                             =C'VDMP319E - Error return from devtype, r15('
 0067DE E5C4D4D7F5F0F1C9           41544                             =C'VDMP501I - Dumptape open: BLKSIZE='
 006800 E5C4D4D7F5F5F5E6           41545                             =C'VDMP555W - Block sequence error:  '
 006822 4040                       41546                             =C'  '
 006824 000C                       41547                             =AL2(FSHDRDMP)
 006826 0C                         41548                             =PL1'0'
 006827 0C                         41549                             =P'0'
 006828 000000                     41550                             =XL3'0'
 00682B 000004                     41551                             =XL3'4'
 00682E D9C5E3E4D9D54D             41552                             =C'RETURN('
 006835 5D4040C5D9D9D6D9           41553                             =C')  ERROR('
 00683E 5D                         41554                             =C')'
 00683F E5C4D4D7F3F2F0C5           41555                             =C'VDMP320E - Bad return from RDJFCB, R15('
 006866 6BD3D9C5C3D37E             41556                             =C',LRECL='
 00686D C3969497A4A38584           41557                             =C'Computed block='
 00687C C885818485997E             41558                             =C'Header='
 006883 C183A3A481934082           41559                             =C'Actual block='
 006890 5C5C5C40E2858199           41560                             =C'*** Search error *** can''t find record # '
1VDMP     (VDMP21) (09:46) (22MAR04) ORVYL's File System Dump Program: Dump task                                            Page  223
0Current Usings:  (DUMP,R6) (*,R7) (IOB,R10) (DWA,R11) (SWA,R12)
0Loc    Object Code    Addr1 Addr2  Stmt Lv Lineno    Source Statement           (Hibal 5, Asmedit 3.3)  HLASM R4.0  2004/03/22 09.46
+___    ______ ____    _____ _____  ____ __ ______    ______ _________
0                                  41565    5279.     ********************************************************************
                                   41566    5280.     *                                                                  *
                                   41567    5281.     *  Issuse end of volume message                                    *
                                   41568    5282.     *         Force end of volume                                      *
                                   41569    5283.     *                                                                  *
                                   41570    5284.     ********************************************************************
-006BA8                06BA8 0B848 41572    5284.2             DATA  BEGIN
 006BA8 402020206B202020           41577  1 5284.21   MSK_CNT    DC    X'402020206B2020206B2020206B2020206B202120'
 006BBC 402020206B202020           41578  1 5284.22   MSK_BYT    DC    X'402020206B2020206B2020206B2020206B202120'
 0068B9                068B9 0B848 41579    5284.3             END   ,
00068BA 5090 D000/902C_      00000 41586    5286.     EOVMSG   PROC  ,
 DROP   *,R7
 USING  *,R7
                                   41627    5288.   C          IF    (~FNCINC,OR,
 0068CA 9140 B1C6/47E0_001C6                5289.                    (FNCINC,AND,~EOVNEW)),BEGIN
 0068E2 5820 CC40            00C40 41670  1 5290.                L     SR,DTDEBAD          Load deb address from dcb
 USING  DEBBASIC,R2                41671  1 5291.                USING DEBBASIC,SR         ## addressability to deb
 0068E6 4120 2020            00044 41680  1 5292.                LA    SR,DEBBASND         Point to end of basic section
 DROP   DEBBASIC,R2                41681  1 5293.                USING DEBDASD,SR          ## addressablity to deb dasd
 USING  DEBDASD,R2
 0068EA 1B33                       41693  1 5294.                CLEAR TR                  Zero for no extra bits
 0068EC BF37 2001            00001 41697  1 5295.                ICM   TR,7,DEBUCBAD+1     Set ucb address
 DROP   DEBDASD,R2                 41698  1 5296.                DROP  SR                  ## release deb dasd section
 USING  UCBOB,R3                   41705  1 5297.                USING UCBOB,TR            ## addressability to ucb
 0068F0 4110 7264/4100_      06B2E 41714  1 5298.                VSEG  'VDMP603I - FEOV on '
 0068FE 1233/4770 7048_            41723  1 5299.                IF    (TR,Z),'VSEG "DUMMY "'
 006912 704C/47F0 705A_06912 06902 41751  1 5300.                ELSE  'VSEG UCBVOLI,6'    Set volume serial into message
                                   41788  1 5301.     *        L     R0,=A(-1)           Set for leading space
                                   41789  1 5302.     *        L     R15,DTEOVCNT        Set bytes written value
                                   41790  1 5303.     *        SEGDC (0),(R15),COMMAS=YES,work=swork
 006924 D213 C075 72F2 00075 06BBC 41791  1 5303.1               MVC   EDT_BYT,MSK_BYT     Set edit mask
 00692A DE13 C075 C680 00075 00680 41792  1 5303.2               ED    EDT_BYT,DTEOVCNT    Edit bytes written
 006930 4110 7277/4100_      06B41 41793  1 5303.3               VSEG  ' '
 00693E 4110 C075/4100_      00075 41802  1 5303.4               VSEG  EDT_BYT
 00694C 4110 720E/4100_      06AD8 41821  1 5304.                VSEG  ' Bytes written, '
 00695A 9180 C060/47E0_00060       41830  1 5305.                IF    EOVERR,'VSEG "Error count too high."'
 006970 70AA/47F0 70C0_06970 06960 41859  1 5306.                ELSEIF EOVNEW,'VSEG "New file volume."'
 00698A 70C4/47F0 70DA_0698A 0697A 41897  1 5307.                ELSEIF EOVMAX,'VSEG "Maximum data."'
 0069A4 70DE/47F0 70F4_069A4 06994 41935  1 5308.                ELSEIF EOVEND,'VSEG "End of task."'
 0069BE 70F8/47F0 710E_069BE 069AE 41973  1 5309.                ELSEIF EOVASYNC,'VSEG "Asynchronous EOV."'
 0069D8 5890 723E/0D99       06B08 42011  1 5310.                VWRITE ,
 0069DE 91E0 C060/47B0_00060       42016  1 5311.                IF    EOVFEOV,BEGIN       Do feov unless we are closing out
 0069E6 9602 C060      00060       42031  2 5312.                  SET   EOVOK               I'm expecting an "eov"
 0069EA 4110 CC14/1BFF_      00C14 42037  2 5313.                  TRUNC DTDCB               Truncate to a short buffer
 0069F8 4110 CC14/0A1F       00C14 42043  2 5314.                  FEOV  DTDCB               Force a volume switch now
 0069FE 94FD C060      00060       42047  2 5315.                  CLEAR EOVOK               If eov happens its an error
 006A02                            42054  1 5316.                END   ,
 006A02 9200 C060      00060       42058  1 5317.                CLEAR EOVFLGS             Clear end of volume flag byte
 006A06                            42065    5318.              END   ,
 006A06 F870 C680 72AB 00680 06B75 42069    5318.1             ZAP   DTEOVCNT,=P'0'      Clear byte written count
 006A0C 18D8/982C D004_            42070    5319.              PEND  ,                   Return to caller
1VDMP     (VDMP21) (09:46) (22MAR04) ORVYL's File System Dump Program: Dump task                                            Page  224
0Current Usings:  (UCBOB,R3) (DUMP,R6) (*,R7) (IOB,R10) (DWA,R11) (SWA,R12)
0Loc    Object Code    Addr1 Addr2  Stmt Lv Lineno    Source Statement           (Hibal 5, Asmedit 3.3)  HLASM R4.0  2004/03/22 09.46
+___    ______ ____    _____ _____  ____ __ ______    ______ _________
0DROP   *,R7
 USING  *,R7
 DROP   UCBOB,R3                   42097    5320.              DROP  SR,TR               ## release addressability
1VDMP     (VDMP21) (09:46) (22MAR04) ORVYL's File System Dump Program: Dump task                                            Page  225
0Current Usings:  (DUMP,R6) (*,R7) (IOB,R10) (DWA,R11) (SWA,R12)
0Loc    Object Code    Addr1 Addr2  Stmt Lv Lineno    Source Statement           (Hibal 5, Asmedit 3.3)  HLASM R4.0  2004/03/22 09.46
+___    ______ ____    _____ _____  ____ __ ______    ______ _________
0                                  42108    5322.     ********************************************************************
                                   42109    5323.     *                                                                  *
                                   42110    5324.     *   Report elapsed dump time for a file data set                   *
                                   42111    5325.     *          Compute blocks/second dumping rate                      *
                                   42112    5326.     *                                                                  *
                                   42113    5327.     ********************************************************************
0006A1A                            42115    5329.     VELAP    LABEL ,
 006A1A 9029 D000/188D_      00000 42117    5330.              VENTER SR,RAR,*,LOCAL     Enter and save registers
 DROP   *,R7
 USING  *,R7
 006A26 4110 7150/4100_      06B76 42139    5331.              VSEG  'VDMP505I - Elapsed time for volume '
 006A34 9801 C140            00140 42148    5332.              LM    R0,R1,FSSTCKE       Set ending time value
 006A38 5F10 C13C/47B0_      0013C 42149    5333.              SDL   R0,FSSTCK           Subtract starting time
 006A46 41F0 B010            00010 42154    5334.              LA    R15,WORK            Set work area address
 006A4A 58E0 70E6/0DEE       06B0C 42155    5335.              XCALL FMTTIME             Format time hh:mm:ss.tt
 006A50 4110 B010/4100_      00010 42159    5336.              VSEG  WORK,11             Add to message
 006A5E 5890 70E2/0D99       06B08 42180    5337.              VWRITE ,                  Issue message
 006A64 4100 0010/4110_      00010 42185    5338.              VCNTL BLANK,11            Add spacer
 006A72 9823 C140            00140 42204    5339.              LM    SR,TR,FSSTCKE       Set ending time store clock value
 006A76 5F30 C13C/47B0_      0013C 42205    5340.              SDL   SR,FSSTCK           Double subtract starting time
 006A84 8C20 000C            0000C 42210    5341.              SRDL  SR,12               Convert value to micro-seconds
 006A88 5E30 70EE            06B14 42211    5342.              AL    TR,=A(50000)        Roundoff factor
 006A8C 47C0 706E            06A94 42212    5343.              IF    CARRY,BEGIN         Check for carry
 006A90 5E20 70F2            06B18 42223  1 5344.                AL    SR,=A(1)            Do carry operation
 006A94                            42224    5345.              END   ,
 006A94 5D20 70F6            06B1C 42228    5346.              D     SR,=A(100000)       Convert vlaue to deci-seconds
 006A98 58F0 C164            00164 42229    5347.              L     R15,FSBLOCKS        Set total blocks for current vol
 006A9C 5CE0 70FA            06B20 42230    5348.              M     R14,=A(100)         Prepare for divide
 006AA0 1DE3                       42231    5349.              DR    R14,TR              Compute blocks/second dump rate
 006AA2 4100 0001            00001 42232    5350.              LA    R0,1                Set one decimal place precision
 006AA6 4110 B010            00010 42233    5351.              LA    R1,WORK             Set work area
 006AAA 58E0 70FE/0DEE       06B24 42234    5352.              XCALL BTR                 Enter conversion routine
 006AB0 5890 70D2/0D99       06AF8 42238    5353.              VSEG  (R1),(R0)           Add to message
 006AB6 4110 7173/4100_      06B99 42253    5354.              VSEG  ' Blocks/second.'
 006AC4 5890 70E2/0D99       06B08 42262    5355.              VWRITE ,                  Write line to sysprtxx file
 006ACA 18D8/9829 D000_            42267    5356.              VEXIT SR,RAR              Restore registers and return
1VDMP     (VDMP21) (09:46) (22MAR04) ORVYL's File System Dump Program: Dump task                                            Page  226
0Current Usings:  (DUMP,R6) (*,R7) (IOB,R10) (DWA,R11) (SWA,R12)
0Loc    Object Code    Addr1 Addr2  Stmt Lv Lineno    Source Statement           (Hibal 5, Asmedit 3.3)  HLASM R4.0  2004/03/22 09.46
+___    ______ ____    _____ _____  ____ __ ______    ______ _________
0                                  42273    5356.1    ********************************************************************
                                   42274    5356.2    *                                                                  *
                                   42275    5356.3    *   Define literal pool generated thus far                         *
                                   42276    5356.4    *                                                                  *
                                   42277    5356.5    ********************************************************************
-006AD8                            42279    5357.              LTORG ,
 006AD8 40C2A8A385A240A6           42281                             =C' Bytes written, '
 006AE8 D585A64086899385           42282                             =C'New file volume.'
 006AF8 00000000                   42283                             =V(VSEG)
 006AFC C5958440968640A3           42284                             =C'End of task.'
 006B08 00000000                   42285                             =V(VWRITE)
 006B0C 00000000                   42286                             =V(FMTTIME)
 006B10 00000000                   42287                             =V(VCNTRL)
 006B14 0000C350                   42288                             =A(50000)
 006B18 00000001                   42289                             =A(1)
 006B1C 000186A0                   42290                             =A(100000)
 006B20 00000064                   42291                             =A(100)
 006B24 00000000                   42292                             =V(BTR)
 006B28 C4E4D4D4E840               42293                             =C'DUMMY '
 006B2E E5C4D4D7F6F0F3C9           42294                             =C'VDMP603I - FEOV on '
 006B41 40                         42295                             =C' '
 006B42 C599999699408396           42296                             =C'Error count too high.'
 006B57 D481A78994A49440           42297                             =C'Maximum data.'
 006B64 C1A2A89583889996           42298                             =C'Asynchronous EOV.'
 006B75 0C                         42299                             =P'0'
 006B76 E5C4D4D7F5F0F5C9           42300                             =C'VDMP505I - Elapsed time for volume '
 006B99 40C293968392A261           42301                             =C' Blocks/second.'
1VDMP     (VDMP21) (09:46) (22MAR04) ORVYL's File System Dump Program: Dump task                                            Page  227
0Current Usings:  (DUMP,R6) (*,R7) (IOB,R10) (DWA,R11) (SWA,R12)
0Loc    Object Code    Addr1 Addr2  Stmt Lv Lineno    Source Statement           (Hibal 5, Asmedit 3.3)  HLASM R4.0  2004/03/22 09.46
+___    ______ ____    _____ _____  ____ __ ______    ______ _________
0                                  42306    5359.     ********************************************************************
                                   42307    5360.     *                                                                  *
                                   42308    5361.     *   Allocate an incremental dump data set from the incremental     *
                                   42309    5362.     *   dump pool.  Since we're not the only thing running when we     *
                                   42310    5362.1    *   run out of space, pause and refresh the pool control blocks.   *
                                   42311    5362.2    *   If we have to refresh more than twice i think we got           *
                                   42312    5362.3    *   problems.                                                      *
                                   42313    5363.     *                                                                  *
                                   42314    5363.01   ********************************************************************
                                   42315    5363.02   *                                                                  *
                                   42316    5363.1    *        1.  Allocate and link incremental data set control block. *
                                   42317    5363.2    *        2.  Find pool control block with most space available.    *
                                   42318    5363.21   *            If the pool order option is in effect select from     *
                                   42319    5363.22   *            the first pool volume which has sufficient space.     *
                                   42320    5363.3    *        3.  Allocate incremental data set.  on error recompute    *
                                   42321    5363.4    *            space available pool control blocks and retry.        *
                                   42322    5363.5    *        4.  Update incremental data set control block with        *
                                   42323    5363.6    *            volume and number of blocks.                          *
                                   42324    5363.7    *                                                                  *
                                   42325    5364.     ********************************************************************
-006BD0 9029 D000/188D_      00000 42327    5366.     GETIDSN  VENTER SR,RAR,*,LOCAL     Enter and save calling registers
 DROP   *,R7
 USING  *,R7
 006BDC 47F0 700C/0000_      06BE8 42349    5366.01            GETMAIN RU,LV=L'INCDSN    Get a data set block
 006BF4 1851                       42363    5366.02            LR    RR,R1               Copy address of block
 USING  INCDSN,R5                  42364    5366.03            USING INCDSN,RR           ## addressability to dsn block
 006BF6 D743 5000 5000 00000 00000 42373    5366.04            CLEAR INCDSN              Zero data set control block
 006BFC D203 5008 731C 00008 06EF8 42380    5366.05            MVC   INCDNAME,=C'INCD'   Set eye-catcher
 006C02 4100 C7A0            007A0 42381    5366.06            LA    R0,DTIANC           Set anchor address for idscb
 006C06                            42382    5366.07            LOOP  BEGIN               Find last block on chain
 006C06 1810                       42388  1 5366.08              LR    R1,R0               Copy good address
 006C08 5800 1000            00000 42389  1 5366.09              L     R0,@R1              Set forward chain address
 006C0C 1200/4770 702A             42390    5366.1             UNTIL (R0,Z),END          Scan to end of chain
 006C12 1801                       42412    5366.11            LR    R0,R1               Copy last block address
 006C14 1815                       42413    5366.12            LR    R1,RR               Set address of enqueue of block
 006C16 4D90 61A8            001BE 42414    5366.13            LCALL ENQB                Add to chain
 006C1A 5830 C010            00010 42416    5366.14            L     TR,PBLKADR          Set pointer to subparm block
 USING  SUBPARM,R3                 42417    5366.15            USING SUBPARM,TR          ## addressability to block
 006C1E D22B 5018 3025 00018 00025 42426    5366.16            MVC   INCDDSN,SUBTAPE     Set dsn prefix
 006C24 4100 002C            0002C 42427    5366.17            LA    R0,44               Set maximum length
 006C28 4110 5018            00018 42428    5366.18            LA    R1,INCDDSN          Address of prefix
 006C2C 4D90 616A            00180 42429    5366.19            LCALL RTRIM               Strip trailing blanks
 006C30 1E10                       42431    5366.2             ALR   R1,R0               Address end of string
0006C32 D201 1000 7350 00000 06F2C 42433    5366.22            MVC   @R1(2),=C'.I'       Set first qualifier
 006C38 D201 1002 3051 00002 00051 42434    5366.23            MVC   @R1+2(2),SUBSEG     Set segment
0006C3E D201 1004 7352 00004 06F2E 42436    5366.25            MVC   @R1+4(2),=C'.D'     Set day qualifier
 006C44 D204 1006 7372 00006 06F4E 42437    5366.26            MVC   @R1+6(5),=X'2120202020' set edit mask
 006C4A DE05 1005 B03D 00005 0003D 42438    5366.27            ED    @R1+5(6),DAY+1      Edit julian into dsn
 006C50 95C4 1006      00006       42439    5366.28            CLI   @R1+6,C'D'          Did the year start in "0"
 006C54 4770 7080            06C5C 42440    5366.29            IF    EQ,BEGIN            Yep -- make it a zero
1VDMP     (VDMP21) (09:46) (22MAR04) ORVYL's File System Dump Program: Dump task                                            Page  228
0Current Usings:  (SUBPARM,R3) (INCDSN,R5) (DUMP,R6) (*,R7) (IOB,R10) (DWA,R11) (SWA,R12)
0Loc    Object Code    Addr1 Addr2  Stmt Lv Lineno    Source Statement           (Hibal 5, Asmedit 3.3)  HLASM R4.0  2004/03/22 09.46
+___    ______ ____    _____ _____  ____ __ ______    ______ _________
0006C58 92F0 1006      00006       42451  1 5366.3               MVI   @r1+6,C'0'          There we go
 006C5C                            42452    5366.74            END   ,
                                                          ¿þþþþþþþþþþþþþþþþþþþþþþþþþþþþþþþþþþþþþþþþþþþþþþþþþþþþþþþþþþþþþþÜ
0                                  42457    5366.76       Ÿ  Temporary removal due to Shark extraneous name length       Ÿ
                                   42458    5366.77       Ÿ       MVC   @R1+11(2),=C'.T'    Set time qualifier           Ÿ
                                   42459    5366.78       Ÿ       MVC   @R1+13(4),=X'21202020'  set edit mask            Ÿ
                                   42460    5366.79       Ÿ       ED    @R1+13(4),TIME2INC  Edit time into dsn           Ÿ
                                   42461    5366.8        Ÿ       OI    @R1+13,X'F0'        Insure 0xxx value not blank  Ÿ
                                   42462    5366.81       Ÿ  Remember to modify offsets in following code when name has  Ÿ
                                   42463    5366.82       Ÿ  been reduced in length                                      Ÿ
                                                          ¾þþþþþþþþþþþþþþþþþþþþþþþþþþþþþþþþþþþþþþþþþþþþþþþþþþþþþþþþþþþþþþ»
0006C5C D201 100B 7354 0000B 06F30 42465    5366.84            MVC   @R1+11(2),=C'.P'    Set part value
 006C62 5800 C7A4            007A4 42466    5366.85            L     R0,DTISEQ           Get current data set sequence
 006C66 4E00 C098            00098 42467    5366.86            CVD   R0,SWORK            Convert to packed
 006C6A F321 100D C09E 0000D 0009E 42468    5366.87            UNPK  @R1+13(3),SWORK+6(2)
 006C70 96F0 100F      0000F       42469    5366.88            OI    @R1+15,X'F0'        Fixup sign byte
 006C74 F271 C098 3051 00098 00051 42470    5366.89            PACK  SWORK(8),SUBSEG     Convert segment to packed
 006C7A 4F20 C098            00098 42471    5366.9             CVB   SR,SWORK            Convert value to binary
 006C7E 5020 5010            00010 42472    5366.91            ST    SR,INCDSEG          Save segment number
 006C82 5800 C7A4            007A4 42473    5366.92            L     R0,DTISEQ           Load inc dscb sequence number
 006C86 5000 5014            00014 42474    5366.93            ST    R0,INCDSEQ          Save in incremental dscb
 006C8A 5A00 7320            06EFC 42475    5366.94            A     R0,=A(1)            Increment for next block
 006C8E 5000 C7A4            007A4 42476    5366.95            ST    R0,DTISEQ           Save dscb sequence number
 006C92 D207 C7F6 C678 007F6 00678 42477    5366.96            MVC   IDDN+6(8),DTDDN     Set ddname to allocate
 006C98 D22B C804 5018 00804 00018 42478    5366.97            MVC   IDSN+6(44),INCDDSN  Set data set name to allocate
 006C9E D203 C7A8 7324 007A8 06F00 42479    5366.98            MVC   DTIRETRY,=A(2)      Try twice before aborting
 006CA4                            42480    5366.99            LOOP  BEGIN
 006CA4 5820 B164            00164 42486  1 5367.                L     SR,INCPOOL          Set base address to pool
 006CA8 1B33                       42487  1 5368.                CLEAR TR                  Zero tracks
 006CAA 1842                       42491  1 5369.                LR    QR,SR               And set initial address
 006CAC 41F0 B0E8            000E8 42492  1 5369.01              LA    R15,COMLOCK         Address of lockword pair
 006CB0 4D90 628C            002A2 42493  1 5369.02              LCALL GETLOCK             Get communications lock
 006CB4 9120 B1C1/47E0_001C1       42495  1 5369.03              IF    FLORDER,BEGIN       Use first available pool volume
 006CBC 1244/4780 70F8             42510  2 5369.04                WHILE (QR,NZ),BEGIN       Look through dump pool
 USING  INCPL,R4                   42526  3 5369.05                  USING INCPL,QR            Addressability to pool block
 006CC2 D503 4010 401C_00010 0001C 42535  3 5369.06                  IF    (INCPSPC,GE,INCPALLO),EXIT
 006CCC 5840 4000            00000 42556  3 5369.07                  L     QR,INCPNXT
 DROP   INCPL,R4                   42557  3 5369.08                  DROP  QR                  Release pool block
 006CD0 47F0 70E0            06CBC 42564  2 5369.09                END   ,
 006CD4 1244/4770 7118             42569  2 5369.94                IF    (QR,Z),BEGIN        No more space available
 006CDA 4110 7377/4100_      06F53 42583  3 5369.95                  VSEG  'VDMP732E - No more incremental dump pool space.'
 006CE8 5890 732C/0D99       06F08 42592  3 5369.96                  VWRITE ,
 006CEE 4110 01B2/0A0D       001B2 42597  3 5369.97                  ABEND 434
 006CF4                            42603  2 5369.98                END   ,
 006CF4 711C/47F0 7138 06CF4 06CBA 42607  1 5369.99              END   ELSE,BEGIN          Use volume with most space
 006CF8 1222/4780 7138             42622  2 5370.                  WHILE (SR,NZ),BEGIN       Scan through for most space
 USING  INCPL,R2                   42638  3 5371.                    USING INCPL,SR            ## addressability to pool
 006CFE 5930 2010/47B0_      00010 42647  3 5372.                    IF    (TR,LT,INCPSPC),BEGIN   save address of largest
 006D06 5830 2010            00010 42664  4 5373.                      L     TR,INCPSPC          Save size of block
 006D0A 1842                       42665  4 5374.                      LR    QR,SR               And save address
 006D0C                            42666  3 5375.                    END   ,
 006D0C 5820 2000            00000 42670  3 5376.                    L     SR,INCPNXT          Chain forward
1VDMP     (VDMP21) (09:46) (22MAR04) ORVYL's File System Dump Program: Dump task                                            Page  229
0Current Usings:  (SUBPARM,R3) (INCDSN,R5) (DUMP,R6) (*,R7) (IOB,R10) (DWA,R11) (SWA,R12)
0Loc    Object Code    Addr1 Addr2  Stmt Lv Lineno    Source Statement           (Hibal 5, Asmedit 3.3)  HLASM R4.0  2004/03/22 09.46
+___    ______ ____    _____ _____  ____ __ ______    ______ _________
0DROP   INCPL,R2                   42671  3 5376.1                   DROP  SR                  ## release pool block adddr
 006D10 47F0 711C            06CF8 42678  2 5377.                  END   ,
 006D14                            42683  1 5377.1               END   ,
 USING  INCPL,R4                   42687  1 5379.                USING INCPL,QR            ## redeclare for largest
 006D14 5800 4010            00010 42696  1 5380.                L     R0,INCPSPC          Set space value
 006D18 5B00 401C            0001C 42697  1 5381.                S     R0,INCPALLO           decrement space used
 006D1C 5000 4010            00010 42698  1 5382.                ST    R0,INCPSPC              reset value for next data set
 006D20 41F0 B0E8            000E8 42699  1 5382.1               LA    R15,COMLOCK         Address of lockword pair
 006D24 4D90 6310            00326 42700  1 5382.2               LCALL RELLOCK             Release communiations lock
 006D28 D205 C867 4032 00867 00032 42702  1 5426.                MVC   IVOL+6(6),INCPVOL   Set volume serial to allocate
 006D2E 4110 C7B0            007B0 42703  1 5427.                LA    R1,IDYNP            Address of svc99 parm list
 006D32 0A63                       42704  1 5428.                DYNALLOC ,                Issue dynamic allocation
 006D34 12FF/4780 71A4             42707  1 5429.                IF    (R15,NZ),BEGIN      Report error from allocation
                                   42721  2 5429.01 C              IF    ((R15,EQ,4),AND,    Check for insufficient space
                                          2 5429.02 C                    (=X'4714',EQ,IDYNRB+4),AND,
 006D3A 59F0 7330/4770_      06F0C        2 5429.03                      (DTIRETRY,NZ)),BEGIN
 006D56 5800 C7A8            007A8 42767  3 5429.04                  L     R0,DTIRETRY         LOAD RETRY COUNT
 006D5A 5B00 7320            06EFC 42768  3 5429.05                  S     R0,=A(1)              DECREMENT RETRY COUNT
 006D5E 5000 C7A8            007A8 42769  3 5429.06                  ST    R0,DTIRETRY             SAVE RETRY COUNT
 006D62 5890 7334/0D99       06F10 42770  3 5429.87                  ACALL CALCPOOL            Recalculate incremental pool
 006D68 7190/7190/7190_06D68 06D40 42774  2 5429.99                END   ELSE,BEGIN
 006D6C 4110 C7B4            007B4 42793  3 5430.                    LA    R1,IDYNRB           Address of svc99 parameter list
 006D70 5890 7338/0D99       06F14 42794  3 5431.                    ACALL DYNERR              Report error in allocation
 006D76 9218 C0C3      000C3       42798  3 5432.                    MVI   SRETCODE+3,DYN_ALC  Set error code
 006D7A 4110 01B1/0A0D       001B1 42799  3 5433.                    ABEND 433
 006D80                            42805  2 5434.1                 END   ,
 006D80                            42809  1 5435.                END   ,
 006D80 12FF/4770 70C8             42813    5445.              UNTIL (R15,Z),END         Try again after recomputed
0006D86 5040 500C            0000C 42836    5445.02            ST    QR,INCDINC          Pointer to pool block
                                   42837    5445.03            ¿þþþþþþþþþþþþþþþþþþþþþþþþþþþþþþþþþþþþþþþþþþþþþþþþþþþþþþþþÜ
                                   42838    5445.04            Ÿ  Compute number of records/track for DASD incremental  Ÿ
                                   42839    5445.05            Ÿ  data.                                                 Ÿ
                                   42840    5445.06            ¾þþþþþþþþþþþþþþþþþþþþþþþþþþþþþþþþþþþþþþþþþþþþþþþþþþþþþþþþ»
 006D8A 41F0 000C            0000C 42841    5445.07            LA    R15,FSHDRDMP        LENGTH OF HEADER SAVED TO TAPE
 006D8E 4AF0 C190            00190 42842    5445.08            AH    R15,FSUDATLN          + MAXIMUM USER DATA LENGTH
 006D92 5800 733C            06F18 42843    5445.09            L     R0,=A(27998)            LOAD MAXIMUM BLOCK LENGTH
 006D96 8E00 0020            00020 42844    5445.1             SRDA  R0,32                     PREPARE FOR DIVISION
 006D9A 1D0F                       42845    5445.11            DR    R0,R15                      MAX RECORDS/BLOCK
 006D9C 1C0F                       42846    5445.12            MR    R0,R15                      TRUE BLOCKSIZE
 006D9E 4010 C7AC            007AC 42847    5445.13            STH   R1,DTIBLKSZ                   SAVE FOR INC DSN BLK
 006DA2 5010 4028            00028 42848    5445.14            ST    R1,IncpBlk
 006DA6 5C00 7324            06F00 42849    5445.15            M     R0,=A(2)                      TWO BLOCKS/TRACK
 006DAA 1D0F                       42850    5445.16            DR    R0,R15              Records per track
 006DAC 4010 C192            00192 42851    5445.86            STH   R1,FSIDRPT          INCREMENTAL RECORDS/TRACK
 006DB0 5C00 401C            0001C 42852    5445.87            M     R0,INCPALLO         X NUMBER OF ALLOCATED TRACKS
 006DB4 5010 C79C            0079C 42853    5445.88            ST    R1,DTIBLKS          SAVE FOR SHUTOFF
 006DB8 5010 402C            0002C 42854    5445.89            ST    R1,IncpTotB
 006DBC 4110 73A6/4100_      06F82 42855    5445.91            VSEG  'VDMP317I - Incremental data set allocated on '
 006DCA 4110 4032/4100_      00032 42864    5445.92            VSEG  INCPVOL
 006DD8 5890 732C/0D99       06F08 42883    5445.93            VWRITE ,
 006DDE 4100 0010/4110_      00010 42888    5445.94            VCNTL BLANK,11            Provide spacing
 006DEC 4110 7344/4100_      06F20 42907    5445.95            VSEG  'DSN='              Add data set name
 006DFA 4110 5018/4100_      00018 42916    5445.96            VSEG  INCDDSN,44          Add data set name to message
1VDMP     (VDMP21) (09:46) (22MAR04) ORVYL's File System Dump Program: Dump task                                            Page  230
0Current Usings:  (SUBPARM,R3) (INCPL,R4) (INCDSN,R5) (DUMP,R6) (*,R7) (IOB,R10) (DWA,R11) (SWA,R12)
0Loc    Object Code    Addr1 Addr2  Stmt Lv Lineno    Source Statement           (Hibal 5, Asmedit 3.3)  HLASM R4.0  2004/03/22 09.46
+___    ______ ____    _____ _____  ____ __ ______    ______ _________
0006E08 5890 732C/0D99       06F08 42937    5445.97            VWRITE ,
 006E0E 1815                       42942    5445.98            LR    R1,RR               Pass back address of dscb
 006E10 1BFF                       42943    5445.99            CLEAR R15                 Zero return code
 006E12 18D8/9829 D000_            42947    5446.              VEXIT SR,RAR,LTR          Restore registers and return
 DROP   SUBPARM,R3                 42953    5447.              DROP  TR                  ## release subparm block
 DROP   INCPL,R4                   42960    5448.              DROP  QR                  ## release dump pool block
 DROP   INCDSN,R5                  42967    5449.              DROP  RR                  ## release data set name block
1VDMP     (VDMP21) (09:46) (22MAR04) ORVYL's File System Dump Program: Dump task                                            Page  231
0Current Usings:  (DUMP,R6) (*,R7) (IOB,R10) (DWA,R11) (SWA,R12)
0Loc    Object Code    Addr1 Addr2  Stmt Lv Lineno    Source Statement           (Hibal 5, Asmedit 3.3)  HLASM R4.0  2004/03/22 09.46
+___    ______ ____    _____ _____  ____ __ ______    ______ _________
0                                  42975    5449.02   ********************************************************************
                                   42976    5449.03   *                                                                  *
                                   42977    5449.04   *  Calculate incremental dump pool                                 *
                                   42978    5449.05   *                                                                  *
                                   42979    5449.06   ********************************************************************
-006E1C 9029 D000/188D_      00000 42981    5449.08   CALCPOOL VENTER SR,RAR,*,LOCAL     ENTER AND SAVE REGISTERS
 DROP   *,R7
 USING  *,R7
 006E28 5820 B164            00164 43003    5449.09            L     SR,INCPOOL          SET FIRST POOL CONTROL BLOCK
 USING  INCPL,R2                   43004    5449.1             WITH  (INCPL,SR),BEGIN    ADDRESSABILITY TO POOL BLOCKS
 006E2C 1222/4780 7058             43018  1 5449.56              WHILE (SR,NZ),BEGIN       RECOMPUTE EACH POOL CONTROL BLOCK
 006E32 947F 2031      00031       43034  2 5449.58                CLEAR INCPOFF             CLEAR QUAILIFIER SWITCH
 006E36 4110 2032            00032 43041  2 5449.59                LA    R1,INCPVOL          ADDRESS OF VOLUME SERIAL
 006E3A 5890 70FC/0D99       06F24 43042  2 5449.6                 ACALL FINDUCB             LOCATE UCB FOR PASSED VOLSER
 006E40 4780 7020/9680_      06E48 43046  2 5449.61                IF    NZ,'SET INCPOFF'    DISQUALIFY THIS VOLUME
 006E48 7024/47F0 7050 06E48 06E42 43068  2 5449.62                ELSE  BEGIN               COMPUTE AVAILABLE SPACE
 006E4C 5010 200C            0000C 43079  3 5449.63                  ST    R1,INCPUCB          SAVE UNIT CONTROL BLOCK ADDRESS
 006E50 1801                       43080  3 5449.64                  LR    R0,R1               COPY UNIT CONTROL BLOCK ADDRESS
 006E52 4110 2038            00038 43081  3 5449.65                  LA    R1,INCPMSG          SET ADDRESS OF MESSAGE AREA
 006E56 0A4E                       43082  3 5449.66                  SVC   78                  ISSUE LSPACE SUPERVISOR CALL
 006E58 58F0 2014            00014 43083  3 5449.67                  L     R15,INCPTPC         SET TRACKS/CYLINDER
 006E5C F273 C098 203E 00098 0003E 43084  3 5449.68                  PACK  SWORK,INCPMSG+6(4)  PACK AVAILABLE CYLINDERS
 006E62 4F00 C098            00098 43085  3 5449.69                  CVB   R0,SWORK            CONVERT TO BINARY
 006E66 1CE0                       43086  3 5449.7                   MR    R14,R0              TOTAL NUMBER OF TRACKS
 006E68 F273 C098 2043 00098 00043 43087  3 5449.71                  PACK  SWORK,INCPMSG+11(4) PACK AVAILABLE TRACKS
 006E6E 4F00 C098            00098 43088  3 5449.72                  CVB   R0,SWORK            CONVERT TO BINARY
 006E72 1AF0                       43089  3 5449.73                  AR    R15,R0              TOTAL TRACKS AVAILABLE
 006E74 50F0 2010            00010 43090  3 5449.74                  ST    R15,INCPSPC         SAVE TOTAL SPACE
 006E78                            43091  2 5449.75                END   ,
 006E78 5820 2000            00000 43095  2 5449.76                L     SR,INCPNXT          CHAIN TO NEXT POOL BLOCK
 006E7C 47F0 7004            06E2C 43096  1 5449.77              END   ,
 006E80 4110 710C/4100_      06F34 43101  1 5449.78              VSEG  'VDMP873I - Recomputed pool'
 006E8E 5890 70E0/0D99       06F08 43110  1 5449.79              VWRITE ,
 006E94 5820 B164            00164 43115  1 5449.8               L     SR,INCPOOL          START AT ANCHOR ADDRESS
 006E98 1222/4780 70C4             43116  1 5449.81              WHILE (SR,NZ),BEGIN       REPORT EACH VOLUME
 006E9E 4100 0010/4110_      00010 43132  2 5449.82                VCNTL BLANK,11            ADD SPACES TO REPORT LINE
 006EAC 58F0 2010/1B00_      00010 43151  2 5449.83                SEGDC 0,INCPSPC,COMMAS=YES,WORK=SWORK
 006EC2 4110 7187/4100_      06FAF 43190  2 5449.84                VSEG  ' TRACKS AVAILABLE ON '
 006ED0 4110 2032/4100_      00032 43199  2 5449.85                VSEG  INCPVOL,6
 006EDE 5890 70E0/0D99       06F08 43220  2 5449.86                VWRITE ,                  WRITE TO REPORT FILE
 006EE4 5820 2000            00000 43225  2 5449.87                L     SR,INCPNXT          CHAIN TO NEXT VOLUME
 006EE8 47F0 7070            06E98 43226  1 5449.88              END   ,
 DROP   INCPL,R2                   43231    5449.89            END   ,
 006EEC 1BFF                       43239    5449.9             CLEAR R15                 ZERO RETURN CODE
 006EEE 18D8/9829 D000_            43243    5449.91            VEXIT SR,RAR,LTR          RESTORE AND RETURN TO CALLER
1VDMP     (VDMP21) (09:46) (22MAR04) ORVYL's File System Dump Program: Dump task                                            Page  232
0Current Usings:  (DUMP,R6) (*,R7) (IOB,R10) (DWA,R11) (SWA,R12)
0Loc    Object Code    Addr1 Addr2  Stmt Lv Lineno    Source Statement           (Hibal 5, Asmedit 3.3)  HLASM R4.0  2004/03/22 09.46
+___    ______ ____    _____ _____  ____ __ ______    ______ _________
0                                  43250    5449.93   ********************************************************************
                                   43251    5449.94   *                                                                  *
                                   43252    5449.95   *  Define literal pool                                             *
                                   43253    5449.96   *                                                                  *
                                   43254    5449.97   ********************************************************************
-006EF8                            43256    5449.99            LTORG ,
 006EF8 C9D5C3C4                   43258                             =C'INCD'
 006EFC 00000001                   43259                             =A(1)
 006F00 00000002                   43260                             =A(2)
 006F04 00000000                   43261                             =V(VSEG)
 006F08 00000000                   43262                             =V(VWRITE)
 006F0C 00000004                   43263                             =A(4)
 006F10 00006E1C                   43264                             =A(CALCPOOL)
 006F14 00001B0C                   43265                             =A(DYNERR)
 006F18 00006D5E                   43266                             =A(27998)
 006F1C 00000000                   43267                             =V(VCNTRL)
 006F20 C4E2D57E                   43268                             =C'DSN='
 006F24 00001FA6                   43269                             =A(FINDUCB)
 006F28 00000000                   43270                             =V(BTDC)
 006F2C 4BC9                       43271                             =C'.I'
 006F2E 4BC4                       43272                             =C'.D'
 006F30 4BD7                       43273                             =C'.P'
 006F32 4714                       43274                             =X'4714'
 006F34 E5C4D4D7F8F7F3C9           43275                             =C'VDMP873I - Recomputed pool'
 006F4E 2120202020                 43276                             =X'2120202020'
 006F53 E5C4D4D7F7F3F2C5           43277                             =C'VDMP732E - No more incremental dump pool space.'
 006F82 E5C4D4D7F3F1F7C9           43278                             =C'VDMP317I - Incremental data set allocated on '
 006FAF 40E3D9C1C3D2E240           43279                             =C' TRACKS AVAILABLE ON '
1VDMP     (VDMP21) (09:46) (22MAR04) ORVYL's File System Dump Program: Dump task                                            Page  233
0Current Usings:  (DUMP,R6) (*,R7) (IOB,R10) (DWA,R11) (SWA,R12)
0Loc    Object Code    Addr1 Addr2  Stmt Lv Lineno    Source Statement           (Hibal 5, Asmedit 3.3)  HLASM R4.0  2004/03/22 09.46
+___    ______ ____    _____ _____  ____ __ ______    ______ _________
0                                  43284    5451.     ¿þþþþþþþþþþþþþþþþþþþþþþþþþþþþþþþþþþþþþþþþþþþþþþþþþþþþþþþþþþþþþþþþþþþþþÜ
                                   43285    5452.     Ÿ                                                                     Ÿ
                                   43286    5453.     Ÿ    Set up input buffers, IOBs and open input data set               Ÿ
                                   43287    5454.     Ÿ                                                                     Ÿ
                                                      ¾þþþþþþþþþþþþþþþþþþþþþþþþþþþþþþþþþþþþþþþþþþþþþþþþþþþþþþþþþþþþþþþþþþþþþ»
0006FC4 9029 D000/188D_      00000 43289    5457.     SETUPFS  VENTER SR,RAR,*,LOCAL     Enter and save registers
 DROP   *,R7
 USING  *,R7
                                   43311    5457.1             DBSNAP 'SetupFS...'       Debugging information
 006FD0 D703 C168 C168 00168 00168 43312    5459.              CLEAR FSBLKCNT            Zero blocks read this file
 006FD6 D703 C618 C618 00618 00618 43319    5460.              CLEAR PREVID              No previous id for int cnt
 006FDC 947F C05D      0005D       43326    5461.              CLEAR FSIOERR             Clear i/o error indicator
 006FE0 94E7 C05D      0005D       43333    5461.1             CLEAR FLSCACHE+FLSFSTWT   Clear caching device
 006FE4 D200 C05E B1C3 0005E 001C3 43343    5461.2             MVC   SCCWTYPE,CCWTYPE    Move CCW type flags into subtask
 006FEA 58F0 C150/1B00_      00150 43344    5462.              BTD   FSDDFNO,0,L:FILENO  Set file number
                                   43365    5463.     *
                                   43366    5464.     ** Initialize file system DCB information
                                   43367    5465.     *
 006FFA 4120 C1A0            001A0 43368    5466.              LA    SR,FSJFCB           Address of job file control blk
 006FFE 5020 CA84            00A84 43369    5467.              ST    SR,FSEXLST            save address for RDJFCB
 007002 9687 CA84      00A84       43370    5468.              OI    FSEXLST,X'87'           mark JFCB exit and last
 007006 4110 CBE0            00BE0 43371    5469.              LA    R1,FSDCB            Address of file system dcb
 00700A 5010 CBC0            00BC0 43372    5470.              ST    R1,FSOPNL             Set into open parameter list
 00700E 9680 CBC0      00BC0       43373    5471.              OI    FSOPNL,X'80'            Set only one DCB
 007012 D207 CC08 C154 00C08 00154 43374    5472.              MVC   FSDDNAM,FSDDN           Set DCB ddname
 007018 4110 CBE0            00BE0 43375    5473.              LA    R1,FSDCB            Address of file system dcb
 USING  IHADCB,R1                  43376    5474.              USING IHADCB,R1           ## addressability to dcb
 00701C 9201 1017      00017       43385    5475.              MVI   DCBBUFCB+3,1        Set buffer control block address
 007020 9201 101F      0001F       43386    5476.              MVI   DCBIOBAD+3,1        Set IOB address
 007024 9201 1023      00023       43387    5477.              MVI   DCBEODAD+3,1        Set EOD address
 007028 9220 101A      0001A       43388    5478.              MVI   DCBDSRG1,DCBDSGDA   Set DSORG=DA
 00702C 9202 1030      00030       43389    5479.              MVI   DCBOFLGS,X'02'      Set OFLGS field
 007030 92D0 1032      00032       43390    5480.              MVI   DCBMACR1,DCBMRECP+DCBMRFE+DCBMRCI
 007034 9210 1033      00033       43391    5481.              MVI   DCBMACR2,DCBMRCI
 007038 4120 CA84            00A84 43392    5482.              LA    SR,FSEXLST          Address of exit list
 00703C 5020 1024            00024 43393    5483.              ST    SR,DCBEXLST         Save exit list address
 DROP   IHADCB,R1                  43394    5484.              DROP  R1                  ## rlease dcb addressability
 007040 4110 C154/4100_      00154 43401    5485.              DEVTYPE FSDDN,FSDVTA,DEVTAB,RPS
 00704E 59F0 7904/4780_      078D4 43408    5486.              IF    (R15,EQ,4),SFSEXIT      If missing, EOF
 007056 12FF/4780 7094             43428    5487.              IF    (R15,NZ),BEGIN          Whoops, something bad
 00705C 58F0 7908            078D8 43442  1 5488.                L     R15,=A(-4)          Set bad devtype return code
 007060 47F0 74FA            074CA 43443  1 5489.                B     SFSEXIT             And return from subroutine
 007064                            43444    5490.              END   ,
 007064 4140 C5E8            005E8 43448    5491.              LA    QR,FSDVTA
 USING  DVTAREA,R4                 43449    5492.              USING DVTAREA,QR              ##
 007068 9520 4002/4780_00002       43458    5493.              IF    (DVTCLASS,NE,DVTCDA),BEGIN    must be direct acc
 007070 58F0 790C            078DC 43476  1 5494.                L     R15,=A(-8)                    set return code
 007074 47F0 74FA            074CA 43477  1 5495.                B     SFSEXIT                       and return
 007078                            43478    5496.              END   ,
 007078 4110 CBC0/43E1_      00BC0 43482    5497.              RDJFCB (FSDCB),MF=(E,FSOPNL)  Get the JFCB
 00708E 12FF/4780 70D4             43491    5498.              IF    (R15,NZ),BEGIN          Should have dd card by now
 007094 9680 C05C      0005C       43505  1 5499.                SET   ER15                Set register 15 value
 007098 50F0 C08C            0008C 43511  1 5500.                ST    R15,EREG15          Save rdjcb return code
1VDMP     (VDMP21) (09:46) (22MAR04) ORVYL's File System Dump Program: Dump task                                            Page  234
0Current Usings:  (DVTAREA,R4) (DUMP,R6) (*,R7) (IOB,R10) (DWA,R11) (SWA,R12)
0Loc    Object Code    Addr1 Addr2  Stmt Lv Lineno    Source Statement           (Hibal 5, Asmedit 3.3)  HLASM R4.0  2004/03/22 09.46
+___    ______ ____    _____ _____  ____ __ ______    ______ _________
000709C 58F0 7910            078E0 43512  1 5501.                L     R15,=A(-12)         Set return code
 0070A0 47F0 74FA            074CA 43513  1 5502.                B     SFSEXIT             And return
 0070A4                            43514    5503.              END   ,
 0070A4 4120 C1A0            001A0 43518    5504.              LA    SR,FSJFCB           Point at the jfcb area
 USING  JFCB,R2                    43519    5505.              USING JFCB,SR             ##
 0070A8 D205 C194 2076 00194 00076 43528    5506.              MVC   FSVOLSER,JFCBVOLS   Set the volume serial,
 0070AE D22B C254 2000 00254 00000 43529    5507.              MVC   FSDSNAME,JFCBDSNM   Dsname for obtain
 DROP   JFCB,R2                    43530    5508.              DROP  SR                  ##
 0070B4 4120 CA88            00A88 43537    5509.              LA    SR,FSCAMLST         Address of camlst parameter list
 0070B8 92C1 2000      00000       43538    5510.              MVI   @SR,X'C1'           Set camlst flags
 0070BC 4110 C254            00254 43539    5511.              LA    R1,FSDSNAME         Address of data set name
 0070C0 5010 2004            00004 43540    5512.              ST    R1,@SR+4              Save in camlst area
 0070C4 4110 C194            00194 43541    5513.              LA    R1,FSVOLSER             Address of volser
 0070C8 5010 2008            00008 43542    5514.              ST    R1,@SR+8                  Save in camlst area
 0070CC 4110 C280            00280 43543    5515.              LA    R1,FSOBTA                   Address of obtain area
 0070D0 5010 200C            0000C 43544    5516.              ST    R1,@SR+12                     Save in camlst area
 0070D4 4110 CA88/0A1B       00A88 43545    5517.              OBTAIN FSCAMLST           Get the format1
 0070DA 12FF                       43549    5518.              LTR   R15,R15
 0070DC 4780 7120            070F0 43550    5519.              IF    NZ,BEGIN            Error in obtain processing
 0070E0 9680 C05C      0005C       43561  1 5520.                SET   ER15                Set register 15 value
 0070E4 50F0 C08C            0008C 43567  1 5521.                ST    R15,EREG15          Save return code from obtain
 0070E8 58F0 7914            078E4 43568  1 5522.                L     R15,=A(-16)         Set return code
 0070EC 47F0 74FA            074CA 43569  1 5523.                B     SFSEXIT             And return
 0070F0                            43570    5524.              END   ,
                                   43574    5524.1    ¿þþþþþþþþþþþþþþþþþþþþþþþþþþþþþþþþþþþþþþþþþþþþþþþþþþþþþþþþþþþþþþþþþþþþþÜ
                                   43575    5524.2    Ÿ                                                                     Ÿ
                                   43576    5524.3    Ÿ  Determine key and data lengths from FMT1 DSCB.  This               Ÿ
                                   43577    5524.4    Ÿ  information will be used to construct the Orvyl header             Ÿ
                                   43578    5524.5    Ÿ  length and the file system size.  (Either 2K or 4K currently)      Ÿ
                                   43579    5524.6    Ÿ                                                                     Ÿ
                                                      ¾þþþþþþþþþþþþþþþþþþþþþþþþþþþþþþþþþþþþþþþþþþþþþþþþþþþþþþþþþþþþþþþþþþþþþ»
00070F0 4120 C254            00254 43580    5525.              LA    SR,FSDSNAME
 USING  FORMAT1,R2                 43581    5526.              WITH  (FORMAT1,SR),BEGIN  Addressability to FMT1 DSCB
 0070F4 1F00/4300 205A             43595  1 5527.                LC    R0,DS1KEYL          Insert keylength from DSCB
 0070FA 1F11/BF13 2056             43600  1 5528.                L2    R1,DS1BLKL          and the block size also
 DROP   FORMAT1,R2                 43608    5528.1             END  ,
 007100 4000C18A                   43616    5528.2             ST2   R0,FSKEYLEN         Set Record key length
 007104 4010C18C                   43618    5528.5             ST2   R1,FSBLKLEN         Save orvyl block length
 007108 1E10                       43620    5528.6             ALR   R1,R0               Keylength+DataLength
 00710A 4110 1008            00008 43621    5528.8             LA    R1,@R1+L'DRFCOUNT   Compute EXCP read count length
 00710E 4010C188                   43622    5528.9             ST2   R1,FSRDLEN            and save for CCW construction
                                   43624    5539.1    ¿þþþþþþþþþþþþþþþþþþþþþþþþþþþþþþþþþþþþþþþþþþþþþþþþþþþþþþþþþþþþþþþþþþþþþÜ
                                   43625    5540.     Ÿ                                                                     Ÿ
                                   43626    5541.     Ÿ  Calculate Orvyl header length and file system size                 Ÿ
                                   43627    5543.     Ÿ                                                                     Ÿ
                                                      ¾þþþþþþþþþþþþþþþþþþþþþþþþþþþþþþþþþþþþþþþþþþþþþþþþþþþþþþþþþþþþþþþþþþþþþ»
0007112 D601 C18A C18A_0018A 0018A 43628    5543.06            IF    (FSKEYLEN,Z),BEGIN  No hardware key, header is fixed
 00711C 4100 0014            00014 43644  1 5543.07              LA    R0,FSHDRLEN         Load default non-keyed length
 007120 4000 C18E            0018E 43645  1 5543.08              STH   R0,FSORVHD          Save default header length
 007124 4810 C18C            0018C 43646  1 5543.09              LH    R1,FSBLKLEN         Load data portion of disk record
 007128 1F10                       43647  1 5543.1               SLR   R1,R0               Less default header
 00712A 4010C190                   43648  1 5543.11              ST2   R1,FSUDATLN         Set file system block size
1VDMP     (VDMP21) (09:46) (22MAR04) ORVYL's File System Dump Program: Dump task                                            Page  235
0Current Usings:  (DVTAREA,R4) (DUMP,R6) (*,R7) (IOB,R10) (DWA,R11) (SWA,R12)
0Loc    Object Code    Addr1 Addr2  Stmt Lv Lineno    Source Statement           (Hibal 5, Asmedit 3.3)  HLASM R4.0  2004/03/22 09.46
+___    ______ ____    _____ _____  ____ __ ______    ______ _________
000712E 7162/47F0 716E 0712E 0711A 43650    5543.12            END   ELSE,BEGIN          Use hardware key for header length
 007132 D201 C18E C18A 0018E 0018A 43665  1 5543.13              MVC   FSORVHD,FSKEYLEN    Move over hardware key length
 007138 D201 C190 C18C 00190 0018C 43666  1 5543.14              MVC   FSUDATLN,FSBLKLEN   Move over hardware data length
 00713E                            43667    5543.22            END   ,
 00713E 4110 7968/4100_      07938 43671    5543.91            VSEG  'VDMP506I - Keylen='
 00714C 48F0 C18A/1B00_      0018A 43680    5543.92            SEGDC 0,LH:FSKEYLEN       Convert hardware key length
 007162 4110 79DC/4100_      079AC 43718    5543.93            VSEG  ' Blocklength='     Report hardware data length
 007170 48F0 C18C/1B00_      0018C 43727    5543.94            SEGDC 0,LH:FSBLKLEN       Convert the data length
 007186 4110 78A0/4100_      07870 43765    5543.95            VSEG  ' Header='
 007194 48F0 C18E/1B00_      0018E 43774    5543.96            SEGDC 0,LH:FSORVHD        Report Orvyl header length
 0071AA 4110 791C/4100_      078EC 43812    5543.97            VSEG  ' Datalength='
 0071B8 48F0 C190/1B00_      00190 43821    5543.98            SEGDC 0,LH:FSUDATLN       Convert maximum data length
 0071CE 5890 7928/0D99       078F8 43859    5543.99            VWRITE ,                  Write to report file
 0071D4 D501 797A C18E_0794A 0018E 43864    5544.4             IF    (FSORVHD,LT,12),SFSERREX  ERROR IF LESS THAN EIGHT
                                                               ¿þþþþþþþþþþþþþþþþþþþþþþþþþþþþþÜ
                                   43885    5544.5             Ÿ  Open file system data set  Ÿ
                                                               ¾þþþþþþþþþþþþþþþþþþþþþþþþþþþþþ»
 0071DE 4110 CBC0/94F0_      00BC0 43886    5549.              OPEN  (FSDCB,(INPUT)),MF=(E,FSOPNL) OPEN THE FILE
 0071F8 9110 CC10/4710_00C10       43895    5550.              IF    ~FSFOPEN,BEGIN      BAD OPEN, BAD TROUBLE
 007200 58F0 792C            078FC 43910  1 5551.                L     R15,=A(-24)         SET BAD RETURN CODE
 007204 47F0 74FA            074CA 43911  1 5552.                B     SFSEXIT             AND RETURN
 007208                            43912    5553.              END   ,
 007208 9120 CC04/4710_00C04       43916    5554.              IF    FSRECTO,SFSERREX        NO TRACK OVERFLOW ALLOWED
                                   43934    5555.     *
                                   43935    5556.     *    CALCULATE RECORDS PER TRACK, CYLINDER
                                   43936    5557.     *
 007210 4120 C254            00254 43937    5558.              LA    SR,FSDSNAME
 USING  FORMAT1,R2                 43938    5559.              USING FORMAT1,SR              ##
 007214 4800 2056            00056 43947    5560.              LH    R0,DS1BLKL              BLKSIZE
 007218 BF04 205A            0005A 43948    5561.              ICM   R0,4,DS1KEYL             ADD KEY LENGTH
 DROP   FORMAT1,R2                 43949    5562.              DROP  SR                      ##
 00721C 4110 C5E8            005E8 43956    5563.              LA    R1,FSDVTA
 007220 5890 7930/0D99       07900 43957    5564.              ACALL CALCTRK
 007226 5010 C174            00174 43961    5565.              ST    R1,FSRPT                SAVE RECORDS PER TRACK
 00722A 5910 7934            07904 43962    5566.              C     R1,=A(IOBRMAX)          HAVE WE SPACE ENOUGH?
 00722E 4720 7504            074D4 43963    5567.              IF    H,SFSERREX              NOPE
 007232 4C10 400A            0000A 43977    5568.              MH    R1,DVTNUMT              CALC. RPC (IGNORE POSSIBLE
 007236 5010 C170            00170 43978    5569.              ST    R1,FSRPC                O'FLOW ADVANTAGE)
 00723A 4810 400A            0000A 43979    5570.              LH    R1,DVTNUMT              CONVERT THIS FIELD TO
 00723E 5010 C178            00178 43980    5571.              ST    R1,FSTRKPC              TO A FULLWORD FOR DIVIDES
1VDMP     (VDMP21) (09:46) (22MAR04) ORVYL's File System Dump Program: Dump task                                            Page  236
0Current Usings:  (DVTAREA,R4) (DUMP,R6) (*,R7) (IOB,R10) (DWA,R11) (SWA,R12)
0Loc    Object Code    Addr1 Addr2  Stmt Lv Lineno    Source Statement           (Hibal 5, Asmedit 3.3)  HLASM R4.0  2004/03/22 09.46
+___    ______ ____    _____ _____  ____ __ ______    ______ _________
0                                  43983    5571.03   ¿þþþþþþþþþþþþþþþþþþþþþþþþþþþþþþþþþþþþþþþþþþþþþþþþþþþþþþþþþþþþþþþþþþþþþÜ
                                   43984    5571.04   Ÿ                                                                     Ÿ
                                   43985    5571.05   Ÿ  Check for a caching controller                                     Ÿ
                                   43986    5571.06   Ÿ                                                                     Ÿ
                                                      ¾þþþþþþþþþþþþþþþþþþþþþþþþþþþþþþþþþþþþþþþþþþþþþþþþþþþþþþþþþþþþþþþþþþþþþ»
0007242 5850 CC0C            00C0C 43987    5571.07            L     RR,FSDEBAD          Address of data extent block
 007246 4150 5020            00020 43988    5571.08            LA    RR,DEBBASND-DEBBASIC(,RR)     End of basic sect.
                                                               ¿þþþþþþþþþþþþþþþþþþþþþþþþþþþþþþþþþþþþþþþþþþþþþÜ
                                   43989    5571.09            Ÿ  Possible "captured" UCB above 16-meg line  Ÿ
                                                               ¾þþþþþþþþþþþþþþþþþþþþþþþþþþþþþþþþþþþþþþþþþþþþþ»
 00724A 1F11/BF17 5001             43990    5571.1             L3    R1,DEBUCBA-DEBDASD(RR)        (24-bit) Address of UCB
 007250 4D90 619C            001B2 43998    5571.13            Lcall AMODE31             Enter 31-bit addressing mode
 007254 41E0 72AA/0BE0_      0727A 44000    5571.14            IOSDCXR ,                 Obtain UCB device class extension
000727A 1851                       44027    5571.15            LR    RR,R1               Preserve address of DCE
 00727C 9110 5010      00010       44028    5572.              TM    DCEFEAT1-DCE(RR),DCECACHE     Caching device?
 007280 47E0 730E            072DE 44029    5572.01            IF    O,BEGIN                       Yep - modify DEB
 007284 5820 CC0C            00C0C 44040  1 5572.02              L     SR,FSDEBAD          Address of data extent block
 007288 5B20 7938            07908 44041  1 5572.03              S     SR,=A(DEBPREFE-DEBPREFX)      Point to prefix
 00728C 5822 0008            00008 44042  1 5572.05              L     SR,DEBXTNP-DEBPREFX(SR)       DEB Extension
 USING  DEBXTN,R2                  44043  1 5572.83              WITH  (DEBXTN,SR),BEGIN   Addressability to extension
 007290 4510 72C8/0000_      07298 44057  2 5572.84                MODESET KEY=ZERO          Enter key zero
 00729E 9610 C05D      0005D       44064  2 5572.85                SET   FLSCACHE            Set caching device
 0072A2 9640 2028      00028       44070  2 5572.86                SET   DEBDEFG1.DEBXVDEF   Note define extend parm
 0072A6 9104 5019      00019       44077  2 5572.87                TM    DCEXFEAT-DCE(RR),DCEFSTWT
 0072AA 47E0 72F6            072C6 44078  2 5572.88                IF    O,BEGIN
 0072AE 9608 C05D      0005D       44089  3 5572.89                  SET   FLSFSTWT            Set fast write cabable
 0072B2 9108 C05E/47E0_0005E       44095  3 5572.9                   IF    SFLPSTAGE,BEGIN     Test for sequential prestage
 0072BA 960C 2029      00029       44110  4 5572.91                    SET   DEBGATTR.DEBSCACH   Set for define extent ccw
 0072BE 72F2/47F0 72F6 072BE 072B8 44117  3 5572.92                  END   ELSE,BEGIN
 0072C2 9608 2029      00029       44132  4 5572.93                    SET   DEBGATTR.DEBICACH   Inhibit cache loading
 0072C6                            44139  3 5572.94                  END   ,
 0072C6 72FA/47F0 72FE 072C6 072AC 44143  2 5572.95                END   ELSE,BEGIN
 0072CA 9604 2029      00029       44158  3 5572.96                  SET   DEBGATTR.DEBBCACH   Bypass cache loading
 0072CE                            44165  2 5572.97                END   ,
 0072CE 0700/4510 7308_            44169  2 5572.98                MODESET KEY=NZERO         Enter problem key
 DROP   DEBXTN,R2                  44176  1 5572.99              END   ,
 0072DE                            44184    5573.              END   ,
 0072DE 4D90 61A2            001B8 44188    5573.4             Lcall AMODE24             Resume 24-bit mode addressing
0                                  44191    5573.6    ¿þþþþþþþþþþþþþþþþþþþþþþþþþþþþþþþþþþþþþþþþþþþþþþþþþþþþþþþþþþþþþþþþþþþþþÜ
                                   44192    5573.7    Ÿ                                                                     Ÿ
                                   44193    5573.8    Ÿ    Compute number of tracks, records in data set                    Ÿ
                                   44194    5573.9    Ÿ                                                                     Ÿ
                                                      ¾þþþþþþþþþþþþþþþþþþþþþþþþþþþþþþþþþþþþþþþþþþþþþþþþþþþþþþþþþþþþþþþþþþþþþ»
00072E2 5850 CC0C            00C0C 44195    5575.              L     RR,FSDEBAD          ADDRESS OF DEB
 USING  DEBBASIC,R5                44196    5576.              WITH  (DEBBASIC,RR),BEGIN
 0072E6 1F33/4330 5010             44210  1 5577.                LC    TR,DEBNMEXT         Get number of extents
 0072EC 5030 C180            00180 44217  1 5578.                ST    TR,FSXTNTS          Save number of extents
 0072F0 4150 5020            00044 44218  1 5579.                LA    RR,DEBBASND         Device dependent section
 0072F4 5050 C17C            0017C 44219  1 5580.                ST    RR,FSXTNTAB         Extent table pointer
 DROP   DEBBASIC,R5                44220    5581.              END   ,
1VDMP     (VDMP21) (09:46) (22MAR04) ORVYL's File System Dump Program: Dump task                                            Page  237
0Current Usings:  (DVTAREA,R4) (DEBDASD,R5) (DUMP,R6) (*,R7) (IOB,R10) (DWA,R11) (SWA,R12)
0Loc    Object Code    Addr1 Addr2  Stmt Lv Lineno    Source Statement           (Hibal 5, Asmedit 3.3)  HLASM R4.0  2004/03/22 09.46
+___    ______ ____    _____ _____  ____ __ ______    ______ _________
0USING  DEBDASD,R5                 44229    5582.              WITH  (DEBDASD,RR),BEGIN  Addressability to extents
 0072F8 1B22                       44243  1 5583.5               CLEAR SR                  Zero track counter
 0072FA                            44247  1 5584.                LOOP  BEGIN               Add all extents in data set
 0072FA 1F00/BF03 500E             44253  2 5584.1                 L2    R0,DEBNMTRK         Load number of tracks
 007300 1E20                       44259  2 5585.                  ALR   SR,R0               Add tracks this extent
 007302 4150 5010            00010 44260  2 5586.                  LA    RR,DEBNMTRK+2       Bump to next
 007306 5B30 793C            0790C 44261  2 5587.                  S     TR,=A(1)            Decrement extent number
 00730A 4770 732A            072FA 44262  1 5588.                UNTIL Z,END               Loop back for next extent
 DROP   DEBDASD,R5                 44281    5589.              END   ,
 00730E 5020 C160            00160 44289    5590.              ST    SR,FSTRKS           Save tracks this data set
 007312 4C20 C176            00176 44290    5591.              MH    SR,FSRPT+2          Get records total
 007316 5020 C164            00164 44291    5592.              ST    SR,FSBLOCKS         Save total records in this dsn
 00731A 4100 0014/1B11_      00014 44292    5593.              VCNTL SKIP1               Skip one space
 007326 4110 79E9/4100_      079B9 44308    5594.              VSEG  'VDMP507I - '       Report blocks dumped/processed
 007334 9140 B1C6/47E0_001C6       44317    5595.              IF    FNCINC,BEGIN
 00733C 4110 797C/4100_      0794C 44332  1 5596.                VSEG  'Processing'
 00734A 737E/47F0 738C 0734A 0733A 44341    5597.              END   ELSE,BEGIN
 00734E 4110 79F4/4100_      079C4 44356  1 5598.                VSEG  'Dumping'
 00735C                            44365    5599.              END   ,
 00735C 18F2/4100 0001_            44369    5600.              SEGDC 1,(SR),PAD,COMMAS=YES
 007374 4110 79FB/4100_      079CB 44412    5601.              VSEG  ' Blocks on '
 007382 4100 0008            00008 44421    5602.              LA    R0,8                Maximum length of ddname
 007386 4120 C15B            0015B 44422    5603.              LA    SR,FSDDN+7          Last byte of ddname
 00738A 9540 2000/4770_00000       44423    5604.              WHILE (@SR,EQ,' '),BEGIN  Trimp off the blanks
 007392 5B00 793C            0790C 44441  1 5605.                S     R0,=A(1)            Decrement length
 007396 5B20 793C            0790C 44442  1 5606.                S     SR,=A(1)            And the address
 00739A 47F0 73BA            0738A 44443    5607.              END   ,
 00739E 4110 C154/5890_      00154 44448    5608.              VSEG  FSDDN,(R0)          Report ddname
 0073A8 4100 0004/1B11_      00004 44466    5609.              VCNTL WTOWR               Report to console and report
 0073B4 4100 0010/4110_      00010 44482    5610.              VCNTL BLANK,11            Add blank spacers
 0073C2 4110 7948/4100_      07918 44501    5611.              VSEG  'Dsn='              Set DSN portion of message
 0073D0 4100 002C            0002C 44510    5612.              LA    R0,44               Maximum data set name length
 0073D4 4110 C254            00254 44511    5613.              LA    R1,FSDSNAME         Address of data set name
 0073D8 4D90 616A            00180 44512    5614.              LCALL RTRIM               Trim trailing blanks
 0073DC 5890 7918/0D99       078E8 44514    5615.              VSEG  (R1),(R0)           Add to message buffer
 0073E2 4110 78A8/4100_      07878 44529    5616.              VSEG  ',Volume='          Set volume portion of message
 0073F0 4110 C194/4100_      00194 44538    5617.              VSEG  FSVOLSER,L'FSVOLSER Add volume serial to message
 0073FE 9110 C05D/47E0_0005D       44559    5617.01            IF    FLSCACHE,BEGIN      MESSAGE FOR CACHING DEVICE
 007406 9108 C05E/47E0_0005E       44574  1 5617.02              IF    SFLPSTAGE,BEGIN
 00740E 4110 7A06/4100_      079D6 44589  2 5617.03                VSEG  ' (SEQ PRESTAGE)'
 00741C 7450/47F0 7478 0741C 0740C 44598  1 5617.04              END   ELSE,BEGIN
 007420 9108 C05D/47E0_0005D       44613  2 5617.05                IF    FLSFSTWT,BEGIN
 007428 4110 78B0/4100_      07880 44628  3 5617.06                  VSEG  ',(CACHE INHIBIT)'
 007436 746A/47F0 7478 07436 07426 44637  2 5617.07                END   ELSE,BEGIN
 00743A 4110 7A15/4100_      079E5 44652  3 5617.08                  VSEG  ',(CACHE BYPASS)'   BYPASSING CACHE LOADING
 007448                            44661  2 5617.09                END   ,
 007448                            44665  1 5617.1               END   ,
 007448                            44669    5617.11            END   ,
 007448 5890 7928/0D99       078F8 44673    5618.              VWRITE ,                  Write to report file
 00744E 4100 0010/4110_      00010 44678    5618.01            VCNTL BLANK,11            Tab over for readability
 00745C 4110 7A24/4100_      079F4 44697    5618.1             VSEG  'HDRlen='           Report data set physical key
 00746A 48F0 C18E/1B00_      0018E 44706    5618.2             SEGDC 0,LH:FSORVHD        Convert Orvyl header length
 007480 4110 791C/4100_      078EC 44744    5618.3             VSEG  ' Datalength='      Report user data block length
 00748E 48F0 C18C/1B00_      0018C 44753    5618.4             SEGDC 0,LH:FSBLKLEN       Convert data block length
1VDMP     (VDMP21) (09:46) (22MAR04) ORVYL's File System Dump Program: Dump task                                            Page  238
0Current Usings:  (DVTAREA,R4) (DUMP,R6) (*,R7) (IOB,R10) (DWA,R11) (SWA,R12)
0Loc    Object Code    Addr1 Addr2  Stmt Lv Lineno    Source Statement           (Hibal 5, Asmedit 3.3)  HLASM R4.0  2004/03/22 09.46
+___    ______ ____    _____ _____  ____ __ ______    ______ _________
00074A4 5890 7928/0D99       078F8 44791    5618.7             VWRITE ,
 0074AA 4120 C318            00318 44796    5619.              LA    SR,FSIOB            Address of first IOB
 0074AE 5020 CBFC            00BFC 44797    5620.              ST    SR,FSIOBAD          Save in DCBIOBAD
 0074B2 4130 C5E8            005E8 44798    5621.              LA    TR,FSIOBEND         Last IOB address
 0074B6 18A2                       44799    5622.     SFSIOBL  LR    IOBREG,SR           Address of IOB
 0074B8 5890 794C/0D99       0791C 44800    5623.              ACALL BUILDIOB            Build it
 0074BE 4120 2168            00168 44804    5624.              LA    SR,@SR+L'IOB        Bump to next IOB address
 0074C2 1523                       44805    5625.              CLR   SR,TR               Done yet?
 0074C4 4740 74E6            074B6 44806    5626.              BL    SFSIOBL             No
 0074C8 1BFF                       44807    5627.              CLEAR R15                 Set good return code
 0074CA 18D8/9829 D000_            44811    5628.     SFSEXIT  VEXIT SR,RAR,LTR          Restore registers and return
                                   44817    5629.
 0074D4 48F0 7986            07956 44818    5630.     SFSERREX LH    R15,=H'-99'         Error return
 0074D8 47F0 74FA            074CA 44819    5631.              B     SFSEXIT             Exit via DEVICE error return
 DROP   DVTAREA,R4                 44820    5632.              DROP  QR                  ## Release DVT area
1VDMP     (VDMP21) (09:46) (22MAR04) ORVYL's File System Dump Program: Dump task                                            Page  239
0Current Usings:  (DUMP,R6) (*,R7) (IOB,R10) (DWA,R11) (SWA,R12)
0Loc    Object Code    Addr1 Addr2  Stmt Lv Lineno    Source Statement           (Hibal 5, Asmedit 3.3)  HLASM R4.0  2004/03/22 09.46
+___    ______ ____    _____ _____  ____ __ ______    ______ _________
0                                  44828    5634.     *
                                   44829    5635.     *    Build an IOB for reading one complete track
                                   44830    5636.     *
 007A02                07A02 0B848 44831    5637.              DATA  BEGIN
                                   44836  1 5638.     *
                                   44837  1 5639.     * Skeleton retry CCW program
                                   44838  1 5640.     *
 007A02 000000000000                      1
 007A08 2300000040000001           44839  1 5641.     SKEL       CCW   CCWSS,*-*,X'40',1   Set sector CCW control
 007A10 3100000040000005           44840  1 5642.                CCW   CCWSIDEQ,*-*,X'40',5 Search record Identifier
 007A18 0800000000000001           44841  1 5643.                CCW   CCWTIC,*-*,0,1      Transfer in channel
 007A20 0E00000000000000           44842  1 5644.                CCW   CCWRKD,*-*,0,0      Read KEY & DATA command
                                   44843  1 5645.     RETRYCCW   EQU   SKEL,*-SKEL,C'X'    Define CCW program length, origin
 0074DC                06FC4 0B848 44844    5646.              END   ,
00074DC 9019 D000/188D_      00000 44851    5648.     BUILDIOB VENTER R1,RAR,*,LOCAL     Enter and save calling registers
 DROP   *,R7
 USING  *,R7
 0074E8 9845 A030            00030 44873    5649.              LM    QR,RR,IOBBUFFA      Save buffer information (if any)
 0074EC 180A                       44874    5650.              LR    R0,IOBREG           First clear the
 0074EE 4110 0168            00168 44875    5651.              LA    R1,L'IOB            IOB to zeros
 0074F2 1B33                       44876    5652.              CLEAR TR
 0074F4 0E02                       44880    5653.              MVCL  R0,SR               Zero fill current IOB
 0074F6 9045 A030            00030 44881    5654.              STM   QR,RR,IOBBUFFA      Save IOB buffer addr and length
 0074FA 50A0 A02C            0002C 44882    5655.              ST    IOBREG,IOBNXIOB     Chain IOB's together
 0074FE 5820 CBFC            00BFC 44883    5656.              L     SR,FSIOBAD          In a circular
 007502 D203 A02C 202C 0002C 0002C 44884    5657.              MVC   IOBNXIOB,@SR+(IOBNXIOB-IOB) Chain even
 007508 50A0 202C            0002C 44885    5658.              ST    IOBREG,@SR+(IOBNXIOB-IOB)     If there is only one
 00750C 9242 A000      00000       44886    5659.              MVI   IOBFLAG1,IOBCMDCH+IOBUNREL Set flags
 007510 4120 CBE0            00BE0 44887    5659.1             LA    SR,FSDCB            Set DCB address
 007514 5020 A014            00014 44888    5659.2             ST    SR,IOBDCBPT           Save in IOB for EXCP
 007518 4120 A028            00028 44889    5660.              LA    SR,IOBECB               Set IOB pointer
 00751C 5020 A004            00004 44890    5661.              ST    SR,IOBECBPT               Save in IOB for ECB
 007520 9110 C05E/47E0_0005E       44891    5661.01            IF    SFLRANY,BEGIN
 007528 4D90 724C            07734 44906  1 5661.02              LCALL CHKESCON            CHECK FOR ESCON CAPABLE
 00752C                            44908    5661.93            END   ,
 00752C 91F0 C05E/4780_0005E       44912    5661.94            IF    SFLSECT+SFLECKD+SFLRANY+SFLCYL,BEGIN
 007534 9180 C05E/47E0_0005E       44939  1 5661.95              IF    SFLSECT,BEGIN        UTILIZE SET SECTOR CCW CHAIN
 00753C 4100 A03D            0003D 44954  2 5661.96                LA    R0,IOBSECT          ADDRESS OF SECTOR
 007540 5000 A048            00048 44955  2 5661.97                ST    R0,IOBCHPRO         SET INTO CCW
 007544 9223 A048      00048       44956  2 5661.98                MVI   IOBCHPRO,X'23'      SET COMMAND CODE
 007548 D203 A04C 7438 0004C 07920 44957  2 5661.99                MVC   IOBCHPRO+4(4),=X'40000001'    COMPLETE CCW
 00754E 4120 A048            00048 44958  2 5662.                  LA    SR,IOBCHPRO         Set IOBSTART for channel program
 007552                            44959  1 5662.01              END   ,
 007552 9140 C05E/47E0_0005E       44963  1 5662.02              IF    SFLECKD,BEGIN       UTILIZE ECKD CCW CHAINS
 00755A D715 A130 A130 00130 00130 44978  2 5662.03                CLEAR IOBLOCRX            CLEAR LOCATE RECORD PARAMETERS
 007560 920C A130      00130       44985  2 5662.04                MVI   IOBLOCRX+0,X'0C'    SET OPERATION CODE - ORIENT (R0)
 007564 9201 A133      00133       44986  2 5662.05                MVI   IOBLOCRX+3,1        SET CCW COUNT
 007568 4100 A130            00130 44987  2 5662.06                LA    R0,IOBLOCRX         ADDRESS OF LOCATE RECORD PARMS
 00756C 5000 A048            00048 44988  2 5662.07                ST    R0,IOBCHPRO         INITIALIZE FIRST HALF OF CCW
 007570 9247 A048      00048       44989  2 5662.08                MVI   IOBCHPRO,X'47'      SET CCW OPCODE
 007574 D203 A04C 743C 0004C 07924 44990  2 5662.09                MVC   IOBCHPRO+4(4),=X'40000010'    COMPLETE LOCATE RECORD
 00757A 4120 A048            00048 44991  2 5662.1                 LA    SR,IOBCHPRO         START OF CHANNEL PROGRAM
 00757E                            44992  1 5662.11              END   ,
1VDMP     (VDMP21) (09:46) (22MAR04) ORVYL's File System Dump Program: Dump task                                            Page  240
0Current Usings:  (DUMP,R6) (*,R7) (IOB,R10) (DWA,R11) (SWA,R12)
0Loc    Object Code    Addr1 Addr2  Stmt Lv Lineno    Source Statement           (Hibal 5, Asmedit 3.3)  HLASM R4.0  2004/03/22 09.46
+___    ______ ____    _____ _____  ____ __ ______    ______ _________
000757E 9120 B1C3/47E0_001C3       44996  1 5662.12              IF    FLCYL,BEGIN         FULL CYLINDER READS
 007586 D715 A130 A130 00130 00130 45011  2 5662.13                CLEAR IOBLOCRX            CLEAR LOCATE RECORD PARAMETERS
 00758C 924C A130      00130       45018  2 5662.14                MVI   IOBLOCRX+0,X'4C'    SET OPERATION CODE - ORIENT (HA)
 007590 4100 A130            00130 45019  2 5662.16                LA    R0,IOBLOCRX         ADDRESS OF LOCATE RECORD PARMS
 007594 5000 A048            00048 45020  2 5662.17                ST    R0,IOBCHPRO         INITIALIZE FIRST HALF OF CCW
 007598 9247 A048      00048       45021  2 5662.18                MVI   IOBCHPRO,X'47'      SET CCW OPCODE
 00759C D203 A04C 743C 0004C 07924 45022  2 5662.19                MVC   IOBCHPRO+4(4),=X'40000010'    COMPLETE LOCATE RECORD
 0075A2 4120 A048            00048 45023  2 5662.2                 LA    SR,IOBCHPRO         START OF CHANNEL PROGRAM
 0075A6                            45024  1 5662.21              END   ,
 0075A6 9110 C05E/47E0_0005E       45028  1 5662.83              IF    SFLRANY,BEGIN        SETUP CHANNEL PROGRAM FOR ESCON
 0075AE D715 A130 A130 00130 00130 45043  2 5662.84                CLEAR IOBLOCRX            CLEAR LOCATE RECORD EXT PARMS
 0075B4 923F A130      00130       45050  2 5662.85                MVI   IOBLOCRX+0,X'3F'    SET OPERATION CODE - EXTENDED
 0075B8 5800 C174            00174 45051  2 5662.86                L     R0,FSRPT            SET RECORDS/TRACK
 0075BC 4200 A133            00133 45052  2 5662.87                STC   R0,IOBLOCRX+3       SET LOC-REC DOMAIN COUNT
 0075C0 920A A141      00141       45053  2 5662.88                MVI   IOBLOCRX+17,X'0A'   SET READ ANY EXTENDED COMMAND
 0075C4 D201 A142 7470 00142 07958 45054  2 5662.89                MVC   IOBLOCRX+18(2),=AL2(1)  SET EXTENDED PARM LENGTH
 0075CA 9201 A144      00144       45055  2 5662.9                 MVI   IOBLOCRX+20,X'01'           SET PARAMETER
 0075CE 4100 A130            00130 45056  2 5662.91                LA    R0,IOBLOCRX         ADDRESS OF LOC-REC PARAMETERS
 0075D2 5000 A048            00048 45057  2 5662.92                ST    R0,IOBCHPRO         INITIALIZE LOC-REC CCW
 0075D6 924B A048      00048       45058  2 5662.93                MVI   IOBCHPRO,X'4B'      SET CCW OPCODE
 0075DA D203 A04C 7440 0004C 07928 45059  2 5662.94                MVC   IOBCHPRO+4(4),=X'40000015'    SET FLAGS + LENGTH
 0075E0 4120 A048            00048 45060  2 5662.95                LA    SR,IOBCHPRO         INITIAL CCW STARTING ADDRESS
 0075E4                            45061  1 5662.96              END   ,
 0075E4 7100/47F0 7104 075E4 07532 45065    5662.97            END   ELSE,BEGIN          NO SET SECTOR BEING USED
 0075E8 4120 A050            00050 45080  1 5662.98              LA    SR,IOBREADS         SET START OF NORMAL CCW CHAIN
 0075EC                            45081    5662.99            END   ,
 0075EC 5020 A010            00010 45085    5663.              ST    SR,IOBSTART         Save in IOB for EXCP
                                   45086    5666.     *
                                   45087    5667.     *  Now set up the buffer for this IOB
                                   45088    5668.     *
 0075F0 5820 C174            00174 45089    5669.              L     SR,FSRPT            Calculate the size
 0075F4 4C20 C188            00188 45090    5670.              MH    SR,FSRDLEN            Required for a complete track
 0075F8 9160 C05E/4780_0005E       45091    5670.01            IF    SFLECKD+SFLCYL,BEGIN  ADJUST IF USING ECKD CHAINS
 007600 5A20 7444            0792C 45109  1 5670.02              A     SR,=A(8)            SPACE FOR DUMMY COUNT FIELD
 007604 9120 B1C3/47E0_001C3       45110  1 5670.03              IF    FLCYL,BEGIN         COMPUTE FOR COMPLETE CYL READ
 00760C 1812                       45125  2 5670.04                LR    R1,SR               COPY FOR TRACK/CYLINDER
 00760E 4110 1010            00010 45126  2 5670.05                LA    R1,@R1+16           ADJUST FOR R0 DATA ALSO
 007612 5C00 C178            00178 45127  2 5670.96                M     R0,FSTRKPC            X TRACKS/CYLINDER
 007616 1821                       45128  2 5670.97                LR    SR,R1                   MOVE BACK FOR GETMAIN TEST
 007618                            45129  1 5670.98              END   ,
 007618                            45133    5670.99            END   ,
 007618 5920 A034/4750_      00034 45137    5671.              IF    (SR,GE,IOBBUFFL),BEGIN  Current one big enough?
 007620 5800 A034/1200       00034 45154  1 5672.                LT    R0,IOBBUFFL         Was there any?
 007626 4780 714C            07634 45158  1 5673.                IF    NZ,BEGIN            Nope, go GETMAIN a buffer
 00762A 5810 A030            00030 45169  2 5674.                  L     R1,IOBBUFFA         Get the address
 00762E 4110 1000/0A0A       00000 45170  2 5675.                  FREEMAIN R,A=(1),LV=(0)   Free the old one
 007634                            45174  1 5676.                END  ,
 007634 4100 2007            00007 45178  1 5677.                LA    R0,@SR+7            Round to doubleword
 007638 5400 7448            07930 45179  1 5678.                N     R0,=F'-8'           Round back up to doubleword
 00763C 5000 A034            00034 45180  1 5679.                ST    R0,IOBBUFFL         Save IOB length
 007640 4510 715C/0A0A       07644 45181  1 5680.                GETMAIN R,LV=(0)          Request memory from system
 007646 5010 A030            00030 45185  1 5681.                ST    R1,IOBBUFFA         Save buffer pointer to memory
 00764A                            45186    5682.              END   ,
                                   45190    5683.     *
