1                        J E S 2  J O B  L O G  --  S Y S T E M  S Y S B  --  N O D E  R L G
0
 09.49.17 JOB05998 ---- MONDAY,    22 MAR 2004 ----
 09.49.17 JOB05998  ICH70001I GG$PJG   LAST ACCESS AT 09:49:04 ON MONDAY, MARCH 22, 2004
 09.49.17 JOB05998  $HASP373 PJG#VPS  STARTED - INIT 3    - CLASS E - SYS SYSB
 09.49.17 JOB05998  ***  HCMD      STEP $$QUIET
 09.49.17 JOB05998  PURGE * Q=OUTPUT MULTIPLE
 09.49.17 JOB05998  JOB PJG#VPS NOT IN OUTPUT QUEUE
 09.49.18 JOB05998  PJG#VPS .$$QUIET .         RC=0008 TapeIO=0000 DiskIO=0000 CPU=  .01s Elapsed=57.40s
 09.49.18 JOB05998  PJG#VPS .$CND    .         RC=Zero TapeIO=0000 DiskIO=0002 CPU=  .01s Elapsed=58.43s
 09.49.18 JOB05998  PJG#VPS .$UNP    .         RC=Zero TapeIO=0000 DiskIO=0009 CPU=  .05s Elapsed=58.59s
 09.49.23 JOB05998  PJG#VPS .ASM     .         RC=Zero TapeIO=0000 DiskIO=0284 CPU= 1.12s Elapsed=58.87s
 09.49.23 JOB05998  PJG#VPS .$EDIT   .         RC=Zero TapeIO=0000 DiskIO=0061 CPU=  .24s Elapsed=63.30s
 09.49.23 JOB05998  PJG#VPS  Ended.  Name=Module: VPS                    Total CPU= 1.43s Elapsed=57.40s
 09.49.23 JOB05998
 09.49.23 JOB05998  Execution charges   Priority=Standard   Block=Day
 09.49.23 JOB05998
 09.49.23 JOB05998  CPU Usage          25.87          $16.03   Standard Processing Unit Equivalent
 09.49.23 JOB05998                                   =======
 09.49.23 JOB05998                                    $16.03   Total Job execution charge
 09.49.23 JOB05998
 09.49.23 JOB05998  See back separator page for print charges
 09.49.23 JOB05998
 09.49.24 JOB05998  $HASP395 PJG#VPS  ENDED  ASM=0
1        1 //PJG#VPS  JOB PJG$GG,'Module: VPS',TIME=1,MSGCLASS=C                   JOB05998
           /*JOBPARM HOLD=OUTPUT,LINES=50,CHARS=TN15,NOTIFY=YES
         2 //       EXEC PURGEOLD
         3 XXPURGEOLD PROC
           XX*
           XX* This proc is maintained by Jim Stosick
           XX*
         4 XX$$QUIET  EXEC PGM=HCMDX,PARM='PURGE * Q=OUTPUT MULTIPLE',
           XX         ACCT=(PURGEOLD,SYS3)
         5 //$CND   EXEC PGM=BILBO,REGION=512K,PARM='RECS=100'
         6 //STEPLIB  DD DSN=WYL.GG.ORV.LINKLIB,DISP=SHR
         7 //SYSPRINT DD SYSOUT=$
         8 //SYSUT1   DD DSN=WYL.GG.PJG.OBJ,DISP=OLD
         9 //SYSUT2   DD DSN=WYL.GG.PJG.OBJ,DISP=OLD
        10 //SYSIN    DD DUMMY
        11 //$UNP   EXEC PGM=WUNPRESS,PARM='NUM'
        12 //SYSPRINT DD SYSOUT=$
        13 //SYSUT1   DD DSN=WYL.GG.ORV.SOURCE(VPS),DISP=SHR
        14 //SYSUT2   DD DSN=&&INPUT,DISP=(,PASS),UNIT=SYSDA,
           //            SPACE=(TRK,(25,25),RLSE),DCB=CARD
        15 //ASM    EXEC PGM=ASMA90,REGION=8M,COND=(0,NE,$UNP),
           //            PARM=('SYSPARM(VPS),TERM,LANG(EN),OBJ',
           //          'LC(32500),XREF(SHORT),NODECK,NORLD,NODX,NOUS')
           //*STEPLIB  DD DSN=SYS1.SASMMOD1,DISP=SHR
        16 //SYSLIB   DD DSN=SYS3.DUMMYMAC,DISP=SHR,DCB=BLKSIZE=27920
        17 //         DD DSN=WYL.GG.SYS.MACLIB,DISP=SHR
        18 //         DD DSN=WYL.GG.ORV.BC.MACLIB,DISP=SHR
        19 //         DD DSN=SYS3.ORVYL.UMACLIB,DISP=SHR
        20 //         DD DSN=SYS3.IS.MACLIB,DISP=SHR
        21 //SYSUT1   DD DSN=&&SYSUT1,UNIT=VIO,DISP=(,DELETE),
           //            SPACE=(4088,(500,250),,CONTIG,ROUND)
        22 //SYSTERM  DD SYSOUT=$
        23 //SYSPRINT DD DSN=&&PRINT,UNIT=SYSDA,DISP=(,PASS),
           //            SPACE=(6650,(250,250),RLSE),
           //            DCB=(BLKSIZE=6650,LRECL=133,RECFM=FB)
        24 //SYSLIN   DD DSN=WYL.GG.PJG.OBJ(VPS),DISP=OLD
        25 //SYSUDUMP DD SYSOUT=A
        26 //SYSIN    DD DSN=&&INPUT,DISP=(OLD,DELETE)
        27 //$EDIT  EXEC PGM=ASMEDIT,REGION=1M,
           //            COND=EVEN,PARM='STMT,DATA'
        28 //STEPLIB  DD DSN=WYL.GG.SYS.LINKLIB,DISP=SHR
        29 //ASMOUT   DD DSN=&&PRINT,DISP=(OLD,DELETE)
        30 //SYSPRINT DD SYSOUT=A
        31 //SYSUDUMP DD SYSOUT=A
1 STMT NO. MESSAGE
         2 IEFC001I PROCEDURE PURGEOLD WAS EXPANDED USING SYSTEM LIBRARY SYS3.BETAPROC
        14 IGD01010I STORCLAS= TEMP STORGROUP =
        14 IGD01010I STORGRP=VIO ASSIGNED.
        21 IGD01010I STORCLAS= TEMP STORGROUP =
        21 IGD01010I STORGRP=VIO ASSIGNED.
        23 IGD01010I STORCLAS= TEMP STORGROUP =
        23 IGD01010I STORGRP=VIO ASSIGNED.
 ICH70001I GG$PJG   LAST ACCESS AT 09:49:04 ON MONDAY, MARCH 22, 2004
 IEF142I PJG#VPS $$QUIET - STEP WAS EXECUTED - COND CODE 0008
 *********************************************************************************
 *   PJG#VPS /$$QUIET /                    Return Code      0008                 *
 *   Region used      260K (16K user + 244K system)                              *
 *   Extended region  9352K (4K user + 9348K system)                             *
 *                                                                               *
 *   Paging              In      Out                                             *
 *   Private <-> Aux      0        0       CPU time (TCB)   00:00:00.01          *
 *   Private <-> Exp      0        0       CPU time (SRB)   00:00:00.00          *
 *   VIO                  0        0       Elapsed time    920:38:35.56          *
 *   Common               0      ---                                             *
 *                                                                               *
 *                                                                               *
 *   CPU Usage          0.18         $0.11  Standard Processing Unit Equivalent  *
 *                                   $0.11  Total Step execution charge          *
 *                                                                               *
 *    I/O count  DDname   Type Addr           I/O count  DDname   Type Addr      *
 *                         *** No I/O for this step ***                          *
 *********************************************************************************
 IEF373I STEP/$$QUIET /START 2004082.0949
 IEF374I STEP/$$QUIET /STOP  2004082.0949 CPU    0MIN 00.01SEC SRB    0MIN 00.00SEC VIRT    16K SYS   244K EXT       4K SYS    9348K
 IEF236I ALLOC. FOR PJG#VPS $CND
 IEF237I 0401 ALLOCATED TO STEPLIB
 IEF237I JES2 ALLOCATED TO SYSPRINT
 IEF237I 04DC ALLOCATED TO SYSUT1
 IEF237I 04DC ALLOCATED TO SYSUT2
 IEF237I DMY  ALLOCATED TO SYSIN
 IEF142I PJG#VPS $CND - STEP WAS EXECUTED - COND CODE 0000
 IEF285I   WYL.GG.ORV.LINKLIB                           KEPT
 IEF285I   VOL SER NOS= SYSB01.
 IEF285I   GG$PJG.PJG#VPS.JOB05998.D0000101.?           SYSOUT
 IEF285I   WYL.GG.PJG.OBJ                               KEPT
 IEF285I   VOL SER NOS= SYSB05.
 IEF285I   WYL.GG.PJG.OBJ                               KEPT
 IEF285I   VOL SER NOS= SYSB05.
 *********************************************************************************
 *   PJG#VPS /$CND    /                    Return Code      Zero                 *
 *   Region used      280K (16K user + 264K system)                              *
 *   Extended region  9392K (4K user + 9388K system)                             *
 *                                                                               *
 *   Paging              In      Out                                             *
 *   Private <-> Aux      0        0       CPU time (TCB)   00:00:00.01          *
 *   Private <-> Exp      0        0       CPU time (SRB)   00:00:00.00          *
 *   VIO                  0        0       Elapsed time    920:38:34.53          *
 *   Common               0      ---                                             *
 *                                                                               *
 *                                                                               *
 *   CPU Usage          0.18         $0.11  Standard Processing Unit Equivalent  *
 *                                   $0.11  Total Step execution charge          *
 *                                                                               *
 *    I/O count  DDname   Type Addr           I/O count  DDname   Type Addr      *
 *            2  STEPLIB  Disk 0401                   0  SYSPRINT      ----      *
 *            0  SYSUT1   Disk 04DC                   0  SYSUT2   Disk 04DC      *
 *            0  SYSIN         ----                                              *
 *********************************************************************************
 IEF373I STEP/$CND    /START 2004082.0949
 IEF374I STEP/$CND    /STOP  2004082.0949 CPU    0MIN 00.01SEC SRB    0MIN 00.00SEC VIRT    16K SYS   264K EXT       4K SYS    9388K
 IEF236I ALLOC. FOR PJG#VPS $UNP
 IEF237I JES2 ALLOCATED TO SYSPRINT
 IEF237I 0402 ALLOCATED TO SYSUT1
 IGD101I SMS ALLOCATED TO DDNAME (SYSUT2  )
         DSN (SYS04082.T094917.RA000.PJG#VPS.INPUT.H01    )
         STORCLAS (TEMP) MGMTCLAS (        ) DATACLAS (        )
         VOL SER NOS= SCR100
 IEF142I PJG#VPS $UNP - STEP WAS EXECUTED - COND CODE 0000
 IEF285I   GG$PJG.PJG#VPS.JOB05998.D0000102.?           SYSOUT
 IEF285I   WYL.GG.ORV.SOURCE                            KEPT
 IEF285I   VOL SER NOS= SYSB02.
 IGD106I SYS04082.T094917.RA000.PJG#VPS.INPUT.H01     PASSED,    DDNAME=SYSUT2
 *********************************************************************************
 *   PJG#VPS /$UNP    /                    Return Code      Zero                 *
 *   Region used      388K (108K user + 280K system)                             *
 *   Extended region  9468K (4K user + 9464K system)                             *
 *                                                                               *
 *   Paging              In      Out                                             *
 *   Private <-> Aux      0        0       CPU time (TCB)   00:00:00.05          *
 *   Private <-> Exp      0        0       CPU time (SRB)   00:00:00.00          *
 *   VIO                  0        0       Elapsed time    920:38:34.37          *
 *   Common               0      ---                                             *
 *                                                                               *
 *                                                                               *
 *   CPU Usage          0.93         $0.57  Standard Processing Unit Equivalent  *
 *                                   $0.57  Total Step execution charge          *
 *                                                                               *
 *    I/O count  DDname   Type Addr           I/O count  DDname   Type Addr      *
 *            0  SYSPRINT      ----                   2  SYSUT1   Disk 0402      *
 *            7  SYSUT2   Disk 038B                                              *
 *********************************************************************************
 IEF373I STEP/$UNP    /START 2004082.0949
 IEF374I STEP/$UNP    /STOP  2004082.0949 CPU    0MIN 00.05SEC SRB    0MIN 00.00SEC VIRT   108K SYS   280K EXT       4K SYS    9464K
 IEF236I ALLOC. FOR PJG#VPS ASM
 IEF237I 0402 ALLOCATED TO SYSLIB
 IEF237I 04DC ALLOCATED TO
 IEF237I 0402 ALLOCATED TO
 IEF237I 0402 ALLOCATED TO
 IEF237I 04DC ALLOCATED TO
 IGD101I SMS ALLOCATED TO DDNAME (SYSUT1  )
         DSN (SYS04082.T094917.RA000.PJG#VPS.SYSUT1.H01   )
         STORCLAS (TEMP) MGMTCLAS (        ) DATACLAS (        )
         VOL SER NOS= VIO
 IEF237I JES2 ALLOCATED TO SYSTERM
 IGD101I SMS ALLOCATED TO DDNAME (SYSPRINT)
         DSN (SYS04082.T094917.RA000.PJG#VPS.PRINT.H01    )
         STORCLAS (TEMP) MGMTCLAS (        ) DATACLAS (        )
         VOL SER NOS= SCR101
 IEF237I 04DC ALLOCATED TO SYSLIN
 IEF237I JES2 ALLOCATED TO SYSUDUMP
 IGD103I SMS ALLOCATED TO DDNAME SYSIN
 IEF142I PJG#VPS ASM - STEP WAS EXECUTED - COND CODE 0000
 IEF285I   SYS3.DUMMYMAC                                KEPT
 IEF285I   VOL SER NOS= SYSB02.
 IEF285I   WYL.GG.SYS.MACLIB                            KEPT
 IEF285I   VOL SER NOS= SYSB05.
 IEF285I   WYL.GG.ORV.BC.MACLIB                         KEPT
 IEF285I   VOL SER NOS= SYSB02.
 IEF285I   SYS3.ORVYL.UMACLIB                           KEPT
 IEF285I   VOL SER NOS= SYSB02.
 IEF285I   SYS3.IS.MACLIB                               KEPT
 IEF285I   VOL SER NOS= SYSB05.
 IGD105I SYS04082.T094917.RA000.PJG#VPS.SYSUT1.H01    DELETED,   DDNAME=SYSUT1
 IEF285I   GG$PJG.PJG#VPS.JOB05998.D0000103.?           SYSOUT
 IGD106I SYS04082.T094917.RA000.PJG#VPS.PRINT.H01     PASSED,    DDNAME=SYSPRINT
 IEF285I   WYL.GG.PJG.OBJ                               KEPT
 IEF285I   VOL SER NOS= SYSB05.
 IEF285I   GG$PJG.PJG#VPS.JOB05998.D0000104.?           SYSOUT
 IGD105I SYS04082.T094917.RA000.PJG#VPS.INPUT.H01     DELETED,   DDNAME=SYSIN
 *********************************************************************************
 *   PJG#VPS /ASM     /                    Return Code      Zero                 *
 *   Region used      8484K (8192K user + 292K system)                           *
 *   Extended region  9952K (412K user + 9540K system)                           *
 *                                                                               *
 *   Paging              In      Out                                             *
 *   Private <-> Aux      0        0       CPU time (TCB)   00:00:01.08          *
 *   Private <-> Exp      0        0       CPU time (SRB)   00:00:00.04          *
 *   VIO                  0        0       Elapsed time    920:38:34.09          *
 *   Common               0      ---                                             *
 *                                                                               *
 *                                                                               *
 *   CPU Usage         20.25        $12.55  Standard Processing Unit Equivalent  *
 *                                  $12.55  Total Step execution charge          *
 *                                                                               *
 *    I/O count  DDname   Type Addr           I/O count  DDname   Type Addr      *
 *           84  SYSLIB   Disk 0402                 132  SYSLIB   Disk 04DC      *
 *            0  SYSLIB   Disk 0402                   0  SYSLIB   Disk 0402      *
 *            0  SYSLIB   Disk 04DC                   0  SYSUT1   VIO  ----      *
 *            0  SYSTERM       ----                  58  SYSPRINT Disk 04E3      *
 *            2  SYSLIN   Disk 04DC                   0  SYSUDUMP      ----      *
 *            8  SYSIN    Disk 038B                                              *
 *********************************************************************************
 IEF373I STEP/ASM     /START 2004082.0949
 IEF374I STEP/ASM     /STOP  2004082.0949 CPU    0MIN 01.08SEC SRB    0MIN 00.04SEC VIRT  8192K SYS   292K EXT     412K SYS    9540K
 IEF236I ALLOC. FOR PJG#VPS $EDIT
 IEF237I 0402 ALLOCATED TO STEPLIB
 IGD103I SMS ALLOCATED TO DDNAME ASMOUT
 IEF237I JES2 ALLOCATED TO SYSPRINT
 IEF237I JES2 ALLOCATED TO SYSUDUMP
 IEF142I PJG#VPS $EDIT - STEP WAS EXECUTED - COND CODE 0000
 IEF285I   WYL.GG.SYS.LINKLIB                           KEPT
 IEF285I   VOL SER NOS= SYSB02.
 IGD105I SYS04082.T094917.RA000.PJG#VPS.PRINT.H01     DELETED,   DDNAME=ASMOUT
 IEF285I   GG$PJG.PJG#VPS.JOB05998.D0000105.?           SYSOUT
 IEF285I   GG$PJG.PJG#VPS.JOB05998.D0000106.?           SYSOUT
 *********************************************************************************
 *   PJG#VPS /$EDIT   /                    Return Code      Zero                 *
 *   Region used      388K (116K user + 272K system)                             *
 *   Extended region  9472K (4K user + 9468K system)                             *
 *                                                                               *
 *   Paging              In      Out                                             *
 *   Private <-> Aux      0        0       CPU time (TCB)   00:00:00.23          *
 *   Private <-> Exp      0        0       CPU time (SRB)   00:00:00.01          *
 *   VIO                  0        0       Elapsed time    920:38:29.66          *
 *   Common               0      ---                                             *
 *                                                                               *
 *                                                                               *
 *   CPU Usage          4.31         $2.67  Standard Processing Unit Equivalent  *
 *                                   $2.67  Total Step execution charge          *
 *                                                                               *
 *    I/O count  DDname   Type Addr           I/O count  DDname   Type Addr      *
 *            2  STEPLIB  Disk 0402                  59  ASMOUT   Disk 04E3      *
 *            0  SYSPRINT      ----                   0  SYSUDUMP      ----      *
 *********************************************************************************
 IEF373I STEP/$EDIT   /START 2004082.0949
 IEF374I STEP/$EDIT   /STOP  2004082.0949 CPU    0MIN 00.23SEC SRB    0MIN 00.01SEC VIRT   116K SYS   272K EXT       4K SYS    9468K
 *********************************************************************************
 *                                                                               *
 *                      S t a n f o r d   U n i v e r s i t y                    *
 *                                                                               *
 *                              *** Job Summary ***                              *
 *                                                                               *
 *   System Id      SYSB                   Input time     09:38:40  Mar 22, 2004 *
 *                                                                               *
 *   System Release SP6.1.0                Start time     09:49:17  Mar 22, 2004 *
 *                                                                               *
 *   Job name       PJG#VPS                Stop  time     00:00:00  Mar 22, 2004 *
 *                                                                               *
 *   Account        PJG$GG                 Elapsed time  920:38:35.56            *
 *                                                                               *
 *   User Name      Module: VPS            CPU time       00:00:01.38            *
 *                                                                               *
 *   Job class      E                      SRB Time       00:00:00.05            *
 *                                                                               *
 *********************************************************************************
 IEF375I  JOB/PJG#VPS /START 2004082.0949
 IEF376I  JOB/PJG#VPS /STOP  2004082.0949 CPU    0MIN 01.38SEC SRB    0MIN 00.05SEC
1Data set successfully converted from EDIT to FB format
1Assembler Done VPS No Statements Flagged
1         High Level Assembler Option Summary                   (PTF UQ57391)                                               Page    1
-                                                                                            HLASM R4.0  2004/03/22 09.49
0  No Overriding ASMAOPT Parameters
   Overriding Parameters-  SYSPARM(VPS),TERM,LANG(EN),OBJ,LC(32500),XREF(SHORT),NODECK,NORLD,NODX,NOUS
   No Process Statements


   Options for this Assembly
0  NOADATA
     ALIGN
   NOASA
     BATCH
     CODEPAGE(047C)
   NOCOMPAT
   NODBCS
 3 NODECK
 3 NODXREF
     ESD
   NOEXIT
     FLAG(0,ALIGN,CONT,NOIMPLEN,NOPAGE0,PUSH,RECORD,NOSUBSTR,USING0)
   NOFOLD
   NOGOFF
   NOINFO
 3   LANGUAGE(EN)
   NOLIBMAC
 3   LINECOUNT(32500)
     LIST(121)
     MXREF(SOURCE)
 3   OBJECT
     OPTABLE(UNI,NOLIST)
   NOPCONTROL
   NOPESTOP
   NOPROFILE
   NORA2
   NORENT
 3 NORLD
     RXREF
     SIZE(MAX)
 3   SYSPARM(VPS)
 3   TERM(WIDE)
   NOTEST
     THREAD
   NOTRANSLATE
 3 NOUSING
 3   XREF(SHORT)

   No Overriding DD Names

1VPS      External Symbol Dictionary                                                                                        Page    2
-Symbol   Type   Id     Address  Length     LD ID  Flags Alias-of                            HLASM R4.0  2004/03/22 09.49
0VPS       SD 00000001 00000000 00000850             00
 VPS00     LD          00000000           00000001
 PROGSERV  LD          00000014           00000001
 TIMEOUT   LD          0000006C           00000001
 PROGMON   LD          000002A0           00000001
 STOPMON   LD          0000035E           00000001
 GOTNKWR   ER 00000002
 KWFNOPT   ER 00000003
 TYPEIT    ER 00000004
 BTD       ER 00000005
 VSEG      ER 00000006
 FREECLW   ER 00000007
 SCAN      ER 00000008
 VWRITE    ER 00000009
 LDSET     ER 0000000A
 LDNEXT    ER 0000000B
 FSUB#COM  ER 0000000C
 BTX       ER 0000000D

1VPS      ORVYL'S PROGRAM SERVICES PROCESSOR                                                                                Page    3
0Loc    Object Code    Addr1 Addr2  Stmt Lv Lineno    Source Statement                    (Asmedit 3.3)  HLASM R4.0  2004/03/22 09.49
+___    ______ ____    _____ _____  ____ __ ______    ______ _________
0                                      2       2.     ********************************************************************
                                       3       3.     *                                                                  *
                                       4       4.     *       ORVYL/370  RELEASE III - CLASS I - STANFORD PROPRIETARY    *
                                       5       5.     *                                                                  *
                                       6       6.     ********************************************************************
-
0                                      8       8.     * MODIFICATIONS
                                       9       9.     *
1VPS      ORVYL'S PROGRAM SERVICES PROCESSOR                                                                                Page    4
0Loc    Object Code    Addr1 Addr2  Stmt Lv Lineno    Source Statement                    (Asmedit 3.3)  HLASM R4.0  2004/03/22 09.49
+___    ______ ____    _____ _____  ____ __ ______    ______ _________
0                                     11      11.              HIBAL
                                     992      12.
 000000                00000 00850   993      13.     VPS      CSECT
                                     997      14.              IDENT 00
                                    1000             +
                                    1001    01-IDENT +         ENTRY VPS00
                                    1002             +
 000000 13E5D7E2F0F06BF2            1003    01-IDENT +VPS00    DC    AL1(19),C'VPS00,22MAR04,09:49'
                                    1004             +*
-                                   1007      16.              COPY  ORVDEFN
                                    1008             =         SYSDEFN  ,
                                    1009             =         GBLB  &PROTECT
                                    1010             =         GBLC  &MODULE
                                    1011      17.     &MODULE  SETC  'VPS'
-
                                    1013      19.              REGS  ,,SR,TR,QR,(RR,FSUBR),BRR,BR,WAR,RAR,CLWR,LCBR,GPWR
1VPS      (VPS00) (09:49) (22MAR04) ORVYL'S PROGRAM SERVICES PROCESSOR                                                      Page    5
0Loc    Object Code    Addr1 Addr2  Stmt Lv Lineno    Source Statement           (Hibal 5, Asmedit 3.3)  HLASM R4.0  2004/03/22 09.49
+___    ______ ____    _____ _____  ____ __ ______    ______ _________
0                                   1177      22.              MACRO
                                    1178      23.     &L       BTD   &LOC,&LEN,&WORD,&SW,&COMMAS=NO
                                    1179      24.              LCLC  &CM
                                    1180      25.              AIF   ('&COMMAS' NE 'YES').NOCM
                                    1181      26.     &CM      SETC  'C'
                                    1182      27.     .NOCM    ANOP
                                    1183      28.     &L       SYSLR 15,&WORD,OP=L
                                    1184      29.              SYSLR 0,&LEN,TYPE=&SW
                                    1185      30.              SYSLR 1,&LOC
                                    1186      31.              XCALL BTD&CM
                                    1187      32.              MEND
                                    1188      33.
                                    1189      34.              MACRO
                                    1190      35.     &L       BTX   &LOC,&LEN,&WORD
                                    1191      36.     &L       SYSLR 15,&WORD,OP=L
                                    1192      37.              SYSLR 0,&LEN
                                    1193      38.              SYSLR 1,&LOC
                                    1194      39.              XCALL BTX
                                    1195      40.              MEND
1VPS      (VPS00) (09:49) (22MAR04) ORVYL'S PROGRAM SERVICES PROCESSOR                                                      Page    6
0Loc    Object Code    Addr1 Addr2  Stmt Lv Lineno    Source Statement           (Hibal 5, Asmedit 3.3)  HLASM R4.0  2004/03/22 09.49
+___    ______ ____    _____ _____  ____ __ ______    ______ _________
0                                   1197      42.              COPY  CLW
                                    1198             =*
                                    1199             =*                   COMMAND LANGUAGE WORK AREA
                                    1200             =*
                                    1201             =* ORGANIZATION:
                                    1202             =*
                                    1203             =*        COMMONLY USED CLP FLAGS, COMMAND BUFFERS AND OTHER CONTROL
                                    1204             =*        INFORMATION FOLLOW THE SESSION CONTROL PAGE INFORMATION.
                                    1205             =*        THE BALANCE OF THIS PAGE IS THE CLP SAVE AREA STACK.
                                    1206             =*
 000000                00000 00618  1207             =CLW      RECORD BEGIN
 000000                             1215  1          =CLWSTART   DS    0F
 000000                             1216  1          =CLWSCP     DS    A                       POINTER TO THE SCP
 000004                             1217  1          =           DS    5A                      AVAILABLE
 000018                             1218  1          =CLWUWST    DS    A                       STARTING LOC OF USER WORK AREA
 00001C                             1219  1          =CLWUPST    DS    A                       STARTING LOC OF USER PROGRAM
 000020                             1220  1          =CLWUPML    DS    A                       MAXIMUM LEN OF USER PROGRAM
 000024                             1221  1          =CLWUPRSV   DS    H                       USER PROGRAM RESERVE COUNT
 000026                             1222  1          =CLWUPURV   DS    H                       USER PROGRAM UN-RESERVE COUNT
 000028                             1223  1          =CLWIBUFN   DS    H                       LENGTH OF INPUT LINE
 00002A 606E40                      1224  1          =           DC    C'-> '
 00002D                             1225  1          =CLWIBUF    DS    CL235                   INPUT BUFFER
                                    1226  1          =
 000118                             1227  1          =CLWOBUF    DS    2H                      WRITE/PROMPT COUNTS
 00011C                             1228  1          =           DS    CL235                   OUTPUT BUFFER
                                    1229  1          =CLWOBUFL   EQU   *-CLWOBUF-4
                                    1230  1          =*                                      SESSION BREAK FLAGS:
 000207 00                          1231  1          =CLWFL      FLAG  ,                       ZEROED AT SESSION BREAK START
 CLWFL.CLWFTYPD    80 ONES          1235  1          =           FLAG  CLWFTYPD                CURRENT COMMAND WAS TYPED
 CLWFL.CLWFCMD     40 ONES          1240  1          =           FLAG  CLWFCMD                 PROCESSING COMMAND SVC
 CLWFL.CLWFWYL     20 ONES          1245  1          =           FLAG  CLWFWYL                 COMMAND HAS BEEN TO WYLBUR
                                    1250  1          =
 000208 00                          1251  1          =CLWFLG     FLAG  ,                       FLAGS
 CLWFLG.CLWFCERR   80 ONES          1255  1          =           FLAG  CLWFCERR                COMMAND ERROR: EXE BREAK
 CLWFLG.CLWFGPW    40 ONES          1260  1          =           FLAG  CLWFGPW                 GET-PUT WORK AREA ALLOCATED
 CLWFLG.CLWFTTRP   20 ONES          1265  1          =           FLAG  CLWFTTRP                TEMPORARY TRAP SET
 CLWFLG.CLWFTRAP   10 ONES          1270  1          =           FLAG  CLWFTRAP                TRAP IN PROGRESS
 CLWFLG.CLWFOSC    08 ONES          1275  1          =           FLAG  CLWFOSC                 READ/WRITE REAL (OS) CORE
 CLWFLG.CLWFQMSG   04 ONES          1280  1          =           FLAG  CLWFQMSG                "QUEUED" MESSAGE SENT
 CLWFLG.CLWFM31    02 ONES          1285  1          =           FLAG  CLWFM31                 PROGRAM IN 31 BIT MODE
                                    1290  1          =
 000209 00                          1291  1          =CLWPFL     FLAG  ,                       PROGRAM FLAGS
 CLWPFL.CLWPFSUP   80 ONES          1295  1          =           FLAG  CLWPFSUP                LINK AREA SET UP
 CLWPFL.CLWPFPL    40 ONES          1300  1          =           FLAG  CLWPFPL                 PROGRAM LOADING
 CLWPFL.CLWPFPIC   20 ONES          1305  1          =           FLAG  CLWPFPIC                PROGRAM ENTERED
 CLWPFL.CLWPFRUN   10 ONES          1310  1          =           FLAG  CLWPFRUN                EXECUTE PROGRAM
 CLWPFL.CLWPFPAU   08 ONES          1315  1          =           FLAG  CLWPFPAU                PAUSE BEFORE EXECUTION
 CLWPFL.CLWPFPRV   04 ONES          1320  1          =           FLAG  CLWPFPRV                PRIVATE PROGRAM
 CLWPFL.CLWPFPRT   02 ONES          1325  1          =           FLAG  CLWPFPRT                PROGRAM PROTECTED
 CLWPFL.CLWPFSHR   01 ONES          1330  1          =           FLAG  CLWPFSHR                SHARED PROGRAM LOADED
                                    1335  1          =
 00020A 00                          1336  1          =CLWMFL     FLAG  ,                       MISCELLANEOUS FLAGS
 CLWMFL.CLWMEVCN   80 ONES          1340  1          =           FLAG  CLWMEVCN                CONTINUE AFTER EVENTS
 CLWMFL.CLWMMNCN   40 ONES          1345  1          =           FLAG  CLWMMNCN                CONTINUE AFTER MONITORS
 CLWMFL.CLWMBSUC   20 ONES          1350  1          =           FLAG  CLWMBSUC                SIMULATED BRANCH SUCCESSFUL
 CLWMFL.CLWMNCST   10 ONES          1355  1          =           FLAG  CLWMNCST                SUPPRESS AUTOMATIC COST PRINT
1VPS      (VPS00) (09:49) (22MAR04) ORVYL'S PROGRAM SERVICES PROCESSOR                                                      Page    7
0Loc    Object Code    Addr1 Addr2  Stmt Lv Lineno    Source Statement           (Hibal 5, Asmedit 3.3)  HLASM R4.0  2004/03/22 09.49
+___    ______ ____    _____ _____  ____ __ ______    ______ _________
0CLWMFL.CLWMCLRP   08 ONES          1360  1          =           FLAG  CLWMCLRP                UNREC. CLR FOUND
 CLWMFL.CLWMNOL    04 ONES          1365  1          =           FLAG  CLWMNOL                 DON'T PRINT ON CONT. EVENTS
 CLWMFL.CLWMDSUP   02 ONES          1370  1          =           FLAG  CLWMDSUP                DUMP AREA SET UP
 CLWMFL.CLWMDUMP   01 ONES          1375  1          =           FLAG  CLWMDUMP                DUMP COMMAND BEING PROCESSED
                                    1380  1          =
 00020B 00                          1381  1          =CLWMONF    FLAG  ,                       PROGLOOK/MONITOR FLAGS
 CLWMONF.CLWFMWP   80 ONES          1385  1          =           FLAG  CLWFMWP                 MONITOR WORK PAGE EXISTS
 CLWMONF.CLWFPRGL  40 ONES          1390  1          =           FLAG  CLWFPRGL                PROGLOOK IN PROGRESS
 CLWMONF.CLWDOTIM  20 ONES          1395  1          =           FLAG  CLWDOTIM                SET TIMER AT RUN
 CLWMONF.CLWCPTIM  10 ONES          1400  1          =           FLAG  CLWCPTIM                SET CPU TIME TIMER
                                    1405  1          =
 00020C 00                          1406  1          =CLWSFL     FLAG  ,                       SESSION FLAGS
 CLWSFL.CLWSSAM    80 ONES          1410  1          =           FLAG  CLWSSAM                 STAND ALONE MODE
 CLWSFL.CLWSSP     40 ONES          1415  1          =           FLAG  CLWSSP                  SPECIAL PERSON
                                    1420  1          =
 00020D                             1421  1          =           DS    X
                                    1422  1          =
 00020E                             1423  1          =CLWEXSVC   DS    H                       EXIT SVC
 000210                             1424  1          =CLWPSVC    DS    H                       PAUSE/TRAP SVC
 000212                             1425  1          =CLWCSVC    DS    H                       COMMAND SVC
                                    1426  1          =
 000214                             1427  1          =CLWDSP     DS    X                       DISPATCHING PRIORITY
 000215                             1428  1          =CLWPFS     DS    X                       PARAMTER FLAG SAVE
 000218                             1429  1          =CLWPS      DS    3F                      PARAMETER SAVE
                                    1430  1          =
 000224                             1431  1          =CLWMLMOD   DS    F                       MILTEN MODE WORD
 000228                             1432  1          =CLWWLMOD   DS    F                       WYLBUR MODE WORD
                                    1433  1          =
 00022C                             1434  1          =CLWTIMER   DS    A                       TIMER VALUE TO BE SET AT RUN
 000230                             1435  1          =CLWTIMAX   DS    H                       MAX TIMER INTERVAL (IN .1 SEC)
 000232                             1436  1          =CLWTIVAL   DS    H                       CURRENT TIMER INTERVAL
 000234                             1437  1          =CLWTMAX    DS    H                       CPU TIME LIMIT
 000236                             1438  1          =CLWTIME    DS    H                       CURRENT CPU TIME
 000238                             1439  1          =CLWPELT    DS    A                       ELAPSED TIME
 00023C                             1440  1          =CLWPCVM    DS    A                       VM CHARGES
 000240                             1441  1          =CLWPIOS    DS    A                       I/O COUNTS
 000244                             1442  1          =CLWPCUSE   DS    A                       CPU TIME
                                    1443  1          =
 000248                             1444  1          =CLWPROGN   DS    CL8                     PROGRAM NAME
 000250                             1445  1          =CLWLNKP    DS    A                       LINK PAGE POINTER
 000254                             1446  1          =CLWGPWP    DS    A                       GET-PUT WORK PAGE POINTER
 000258                             1447  1          =CLWMONP    DS    A                       MONITOR/PROGLOOK PAGE
 00025C                             1448  1          =CLWSPB     DS    A                       SHARED PROGRAM BLOCK
 000260                             1449  1          =CLWDUMPB   DS    A                       POINTER TO DUMP BUFFER
                                    1450  1          =
 000264                             1451  1          =CLWPER     DS    A                       PER INFO
 000268                             1452  1          =CLWMON     DS    A                       MONITOR INFO
                                    1453  1          =
 00026C                             1454  1          =CLWEVCNT   DS    A                       NUMBER OF EVENTS TO EXECUTE
 000270                             1455  1          =CLWTRAPA   DS    A                       ADDR OF INST BEING TRAPPED
 000274                             1456  1          =CLWTRAPB   DS    A                       ADDR OF INST AFTER
 000278                             1457  1          =CLWTRAPI   DS    3H                      INSTRUCTION BEING TRAPPED
 00027E                             1458  1          =CLWTRAPJ   DS    H                       1ST HALFWORD OF INST AFTER
                                    1459  1          =
                                    1460  1          =CLWNTRAP   EQU   8,,C'N'                 NO. OF TRAPS
 000280                             1461  1          =CLWTRAPS   DS    (CLWNTRAP)XL5           TRAP TABLE
1VPS      (VPS00) (09:49) (22MAR04) ORVYL'S PROGRAM SERVICES PROCESSOR                                                      Page    8
0Loc    Object Code    Addr1 Addr2  Stmt Lv Lineno    Source Statement           (Hibal 5, Asmedit 3.3)  HLASM R4.0  2004/03/22 09.49
+___    ______ ____    _____ _____  ____ __ ______    ______ _________
00002A8                             1462  1          =CLWTTRAP   DS    XL5                     TEMPORARY TRAP
                                    1463  1          =*
                                    1464  1          =* KEYWORD FILE RECORD AREA
                                    1465  1          =*
 0002AD                             1466  1          =CLWKFL     DS    X                       KEYWORD FILE FLAGS
                                    1467  1          =
                                    1468  1          =CLWKFAC    EQU   X'80'                   PROGRAM AUTO CALL
                                    1469  1          =CLWKFMP    EQU   X'40'                   PROGRAM MANDATORY
                                    1470  1          =
 0002AE                             1471  1          =CLWKACC    DS    CL5                     ACCOUNT FOR PROGRAM SEARCH
 0002B3                             1472  1          =CLWKPROG   DS    CL8                     DEFAULT/MANDATORY PROGRAM
 0002BB                             1473  1          =CLWKMISC   DS    CL8                     MISCELLANEOUS FIELDS
                                    1474  1          =*
                                    1475  1          =*  SCANNER UTILITY AREA
                                    1476  1          =*
                                    1477  1          =           SCANCB PFX=CLWKW
 0002C4                             1478  1 01-SCANC +CLWKWCB    DS    0F
 0002C4                             1479  1 01-SCANC +CLWKWVAL   DS    A                       VALUE RETURNED
 0002C8                             1480  1 01-SCANC +CLWKWKW    DS    CL8                     CURRENT KEY WORD
 0002D0                             1481  1 01-SCANC +CLWKWLEN   DS    A                       LENGTH LEFT TO SCAN
 0002D4                             1482  1 01-SCANC +CLWKWLOC   DS    A                       NEXT THING TO SCAN
 0002D8                             1483  1 01-SCANC +CLWKWRA    DS    A                       RETURN ADDRESS
 0002DC                             1484  1 01-SCANC +CLWKWPRT   DS    A                       ROUTING TABLE ADDRESS
 0002E0                             1485  1 01-SCANC +CLWKWCLT   DS    A                       SCAN TYPE
                                    1486  1          +*                                      0 = NORMAL SCAN
                                    1487  1          +*                                      4 = EXPRESSION ISOLATION
                                    1488  1          +*                                      8 = EXPRESSION SCAN
                                    1489  1 01-SCANC +CLWKWCBL   EQU *-CLWKWCB
                                    1490  1          =
 0002E8                             1491  1          =CLWTEMP    DS    4D                      WORK AREA
                                    1492  1          =
 000308                             1493  1          =CLWDELTA   DS    F                       Wylbr line delta
 00030C                             1494  1          =           DS    F                       Spare
 000310                             1495  1          =CLWEVHST   DS    8D                      EVENT HISTORY
 000350                             1496  1          =CLWEVENT   DS    D                       LAST EVENT INFO
 000358                             1497  1          =CLWQRET    DS    3F                      QUICK RETURN FOR VSUB
                                    1498  1          =*                                      SAVE AREA FOR BRR,BR,WAR
                                    1499  1          =*
 000368                             1500  1          =CLWSBPSW   DS    D                       SESSION BREAK PSW
 000370                             1501  1          =CLWSBGPR   DS    16F                     SESSION BREAK GPRS
 0003B0                             1502  1          =CLWACCT    DS    C'GG.UUU'               USER ACCOUNT
                                    1503  1          =CLWUSER    EQU   CLWACCT+3,3,C'C'        USER
                                    1504  1          =CLWGROUP   EQU   CLWACCT,2,C'C'          GROUP
 0003B8                             1505  1          =CLWIDT     DS    A                       ADDRESS OF THE IDTS
 0003BC                             1506  1          =CLWNIDT    DS    H                       NUMBER OF IDTS
 0003C0                             1507  1          =           DS    0F                      START OF SAVE AREA
 0003C0                             1508  1          =CLWSVA     DS    XL600                   SAVE STACK
                                    1509  1          =CLWSVAEN   EQU   *-4,4,C'X'              LAST WORD OF THE STACK
 000618                00618 00618  1510             =         END   ,
1VPS      (VPS00) (09:49) (22MAR04) ORVYL'S PROGRAM SERVICES PROCESSOR                                                      Page    9
0Loc    Object Code    Addr1 Addr2  Stmt Lv Lineno    Source Statement           (Hibal 5, Asmedit 3.3)  HLASM R4.0  2004/03/22 09.49
+___    ______ ____    _____ _____  ____ __ ______    ______ _________
0                                   1520      44.              COPY  WYLMDWD
                                    1521             =*
                                    1522             =*   EQUS FOR VALUES IN WYLBUR MODE WORD - LOW ORDER BYTE
                                    1523             =*
                                    1524             =WPREST   EQU   X'01',,C'N'              RETURN DATA IN PREST FORMAT
                                    1525             =WNFORM   EQU   X'02',,C'N'              INFORM OF WDS CHANGES (RE)
                                    1526             =WPRHBT   EQU   X'04',,C'N'              PROHIBIT WDS CHANGES (RE)
                                    1527             =WNNUMB   EQU   X'08',,C'N'              NUMBER COMMAND INVALID
                                    1528             =WNALGN   EQU   X'10',,C'N'              ALIGN,JUSTIFY,CENTER INVALID
                                    1529             =WSSBRK   EQU   X'20',,C'N'              PROHIBIT SESS BREAK WDS CHGS
1VPS      (VPS00) (09:49) (22MAR04) ORVYL'S PROGRAM SERVICES PROCESSOR                                                      Page   10
0Loc    Object Code    Addr1 Addr2  Stmt Lv Lineno    Source Statement           (Hibal 5, Asmedit 3.3)  HLASM R4.0  2004/03/22 09.49
+___    ______ ____    _____ _____  ____ __ ______    ______ _________
0                                   1531      46.              COPY  GPW
                                    1532             =*
                                    1533             =* GET PUT WORK PAGE. ALLOCATED ON ENTRY TO VGP. DE-ALLOCATED ON EXIT
                                    1534             =*
 000000                00000 03000  1535             =GPWDSECT DSECT
 000000                             1536             =GPWSTART DS    0D
 000000 00                          1537             =GPWGFL   FLAG  ,                       GENERAL FLAGS
 GPWGFL.GPWFFREE   80 ONES          1541             =         FLAG  GPWFFREE                FREE CORE
 GPWGFL.GPWFALTF   40 ONES          1546             =         FLAG  GPWFALTF                PROCESS ALTERNATE FILE
 GPWGFL.GPWFALTA   20 ONES          1551             =         FLAG  GPWFALTA                PROCESS ALTERNATE ACCOUNT
 GPWGFL.GPWFARET   10 ONES          1556             =         FLAG  GPWFARET                TAKE ALTERNATE RETURN
 GPWGFL.GPWFPCAT   08 ONES          1561             =         FLAG  GPWFPCAT                PROCESSING PROGRAM CATALOG
                                    1566             =
 000001 00                          1567             =GPWPRFL  FLAG  ,                       PROCESSING FLAGS
 GPWPRFL.GPWFTRN   80 ONES          1571             =         FLAG  GPWFTRN                 SOME LINES TRUNCATED
 GPWPRFL.GPWFNOE   40 ONES          1576             =         FLAG  GPWFNOE                 NO ERROR IF FILE NOT FOUND (ATT)
 GPWPRFL.GPWFANW   20 ONES          1581             =         FLAG  GPWFANW                 ATTACH NEW IF FILE NOT FOUND
 GPWPRFL.GPWFNSF   10 ONES          1586             =         FLAG  GPWFNSF                 DO NOT SENSE USER INFO ON ATTACH
 GPWPRFL.GPWFNSKP  08 ONES          1591             =         FLAG  GPWFNSKP                READ WITH NO MODE = SKIP
 GPWPRFL.GPWFQIET  04 ONES          1596             =         FLAG  GPWFQIET                QUIET OPTION SET
 GPWPRFL.GPWOSFOK  02 ONES          1601             =         FLAG  GPWOSFOK                OS/FILES IMPLEMENTED FOR CMD
                                    1606             =
 000002 00                          1607             =GPWPRFL2 FLAG  ,                       MORE PROCESSING FLAGS
 GPWPRFL2.GPWSRCHC 80 ONES          1611             =         FLAG  GPWSRCHC                CONTINUE DIRECTORY SEARCH
 GPWPRFL2.GPWFFRST 40 ONES          1616             =         FLAG  GPWFFRST                FIRST PASS (FBAL)
 GPWPRFL2.GPWFRST  20 ONES          1621             =         FLAG  GPWFRST                 RESET BLOCKS (FBAL)
 GPWPRFL2.GPWFNIXR 10 ONES          1626             =         FLAG  GPWFNIXR                NON-IXR'ED FILE ATTACHED
 GPWPRFL2.GPWFHYBR 08 ONES          1631             =         FLAG  GPWFHYBR                HYBRID NON-IXR'ED FILE ATTACHED
                                    1636             =
 000003 00                          1637             =GPWKWFL  FLAG  ,                       KEYWORD SCAN FLAGS
 GPWKWFL.GPWFERS   80 ONES          1641             =         FLAG  (GPWFERS,X'80')         ERASE
 GPWKWFL.GPWFCLR   80 ONES          1650             =         FLAG  (GPWFCLR,X'80')         CLEAR TEXT (ON GET)
 GPWKWFL.GPWFAPP   40 ONES          1659             =         FLAG  (GPWFAPP,X'40')         APPEND
 GPWKWFL.GPWFMRG   40 ONES          1668             =         FLAG  (GPWFMRG,X'40')         MERGE
 GPWKWFL.GPWFCON   20 ONES          1677             =         FLAG  (GPWFCON,X'20')         CONTENTS
 GPWKWFL.GPWFCREF  20 ONES          1686             =         FLAG  (GPWFCREF,X'20')        CREATE BEING PROCESSED
 GPWKWFL.GPWFNCOM  10 ONES          1695             =         FLAG  (GPWFNCOM,X'10')        NO COMMENT
 GPWKWFL.GPWFELIB  10 ONES          1704             =         FLAG  (GPWFELIB,X'10')        LIBRARY (ON ERASE)
 GPWKWFL.GPWFPUB   08 ONES          1713             =         FLAG  (GPWFPUB,X'08')         PUBLIC SPECIFIED
 GPWKWFL.GPWFACC   04 ONES          1722             =         FLAG  (GPWFACC,X'04')         ACCOUNT SPECIFIED
 GPWKWFL.GPWFAACC  02 ONES          1731             =         FLAG  (GPWFAACC,X'02')        ALTERNATE ACCOUNT SPECIFIED
 GPWKWFL.GPWFRNUM  01 ONES          1740             =         FLAG  (GPWFRNUM,X'01')        RENUMBER (FOR GET)
 GPWKWFL.GPWFPMBR  01 ONES          1749             =         FLAG  (GPWFPMBR,X'01')        PUT LIBRARY MEMBER
                                    1758             =
 000004 00                          1759             =GPWSFFL  FLAG  ,                       SHOW FILES FLAGS
 GPWSFFL.GPWSFER   80 ONES          1763             =         FLAG  GPWSFER                 ERASE  (SHOW FILES)
 GPWSFFL.GPWSFDT   40 ONES          1768             =         FLAG  GPWSFDT                 DATED    "    "
 GPWSFFL.GPWSFLK   20 ONES          1773             =         FLAG  GPWSFLK                 LIKE     "    "
 GPWSFFL.GPWSFUNL  10 ONES          1778             =         FLAG  GPWSFUNL                UNLIKE   "    "
 GPWSFFL.GPWSFFRO  08 ONES          1783             =         FLAG  GPWSFFRO                FROM     "    "
 GPWSFFL.GPWSFATT  04 ONES          1788             =         FLAG  GPWSFATT                ATTACH   "    "
 GPWSFFL.GPWSFBLO  02 ONES          1793             =         FLAG  GPWSFBLO                BLOCKS   "    "
 GPWSFFL.GPWSFFMT  01 ONES          1798             =         FLAG  GPWSFFMT                FORMAT
1VPS      (VPS00) (09:49) (22MAR04) ORVYL'S PROGRAM SERVICES PROCESSOR                                                      Page   11
0D-Loc  Object Code    Addr1 Addr2  Stmt Lv Lineno    Source Statement           (Hibal 5, Asmedit 3.3)  HLASM R4.0  2004/03/22 09.49
+_____  ______ ____    _____ _____  ____ __ ______    ______ _________
0000005                             1804             =GPWPERM  DS    X                       PERMIT FLAGS
                                    1805             =GPWPRMRD EQU   GPWPERM,X'01',1         READ ONLY
                                    1806             =GPWPRMAP EQU   GPWPERM,X'02',1         APPEND ONLY
                                    1807             =GPWPRMRP EQU   GPWPERM,X'03',1         READ AND APPEND
                                    1808             =GPWPRMWR EQU   GPWPERM,X'07',1         WRITE
                                    1809             =GPWPRMEX EQU   GPWPERM,X'08',1         EXTEND
                                    1810             =
 000006 00                          1811             =GPWGPFL  FLAG  ,                       FLAGS FOR GET/PUT
 GPWGPFL.GPWGPFIN  80 ONES          1815             =         FLAG  GPWGPFIN                INTEGER
 GPWGPFL.GPWGPFV   40 ONES          1820             =         FLAG  GPWGPFV                 VARIABLE
 GPWGPFL.GPWGPFLR  20 ONES          1825             =         FLAG  GPWGPFLR                LRECL
 GPWGPFL.GPWGPFE   10 ONES          1830             =         FLAG  GPWGPFE                 EDIT
 GPWGPFL.GPWGPFSK  08 ONES          1835             =         FLAG  GPWGPFSK                SKIP COUNT
 GPWGPFL.GPWGPFBK  04 ONES          1840             =         FLAG  GPWGPFBK                BLOCKING FACTOR
 GPWGPFL.GPWGPFHX  02 ONES          1845             =         FLAG  GPWGPFHX                HEX
 GPWGPFL.GPWGPFN   01 ONES          1850             =         FLAG  GPWGPFN                 NUMBERED
                                    1855             =
 000007                             1856             =ACCT     DS    0C'UUU$GG'
 000007                             1857             =GPWACCT  DS    C'UUU$GG'               GROUP NAME
 00000D                             1858             =GPWAACCT DS    C'UUU$GG'               ALTERNATE GROUP NAME
 000013                             1859             =UUU      DS    0C'UUU'                 STANDARD USER PATTERN
 000013                             1860             =GG       DS    0C'GG'                  STANDARD GROUP PATTERN
                                    1861             =
 000013                             1862             =GPWSUSER DS    C'UUU'                   'SET' USER
 000016                             1863             =GPWSGRP  DS    C'GG'                    'SET' GROUP
                                    1864             =GPWSACCT EQU   GPWSUSER,*-GPWSUSER
                                    1865             =
 000018                             1866             =         DS    0F                      ALIGN WYLBUR INFO
 000018                             1867             =GPWOPT   DS    AL2(0)                  * READ TEXT OPTION
 00001A 0000                        1868             =GPWBLK   DC    AL2(0)                  W READ BLOCKING FACTOR
                                    1869             =GPWWBL   EQU   GPWBLK                  Y WRITE BUFFER LEN
 00001C                             1870             =GPWFWDS  DS    A(0)                    L FIRST LINE OF WDS
 000020                             1871             =GPWLWDS  DS    A(0)                    B LAST LINE OF WDS
 000024                             1872             =GPWFCOL  DS    AL2(0)                  U FIRST COLUMN (RANGE)
 000026                             1873             =GPWLCOL  DS    AL2(0)                  R LAST COLUMN (RANGE)
 000028                             1874             =GPWSLEN  DS    AL2(0)                  * STRING LEN (RANGE)
 00002A                             1875             =GPWSTR   DS    0CL44                   * STRING (RANGE)
                                    1876             =GPWMSGL  EQU   GPWFWDS,4,C'C'          LENGTH OF SAVED MESSAGE
                                    1877             =GPWMSGA  EQU   GPWLWDS,4               START OF SAVED MESSAGE
 00002A 0000
 00002C 00000000                    1878             =GPWSKIP  DC    A(0)                    SKIPING COUNT
 000030 00000000                    1879             =GPWLINCT DC    A(0)                    LINE COUNT
                                    1880             =
 000034 0000                        1881             =GPWLREC  DC    AL2(0)                  LRECL
 000036 0000                        1882             =GPWRBL   DC    AL2(0)                  READ BUFFER LEN
                                    1883             =GPWWBLK  EQU   GPWRBL                  WRITE BLOCKING FACTOR
1VPS      (VPS00) (09:49) (22MAR04) ORVYL'S PROGRAM SERVICES PROCESSOR                                                      Page   12
0D-Loc  Object Code    Addr1 Addr2  Stmt Lv Lineno    Source Statement           (Hibal 5, Asmedit 3.3)  HLASM R4.0  2004/03/22 09.49
+_____  ______ ____    _____ _____  ____ __ ______    ______ _________
0000038                             1885             =GPWBUFA  DS    A                       ADDRESS OF GENERAL BUFFER
 00003C                             1886             =GPWDATAD DS    A                       START OF DATA IN BLOCK
                                    1887             =MONBUFA  EQU   GPWBUFA,4,C'A'          ALTERNATE NAME FOR VPS
 000040                             1888             =GPWDIRAP DS    A                       POINTER TO FIRST DIRECTORY BLOCK
 000044                             1889             =GPWDIRAL DS    A                       LENGTH OF DIRECTORY AREA
 000048                             1890             =GPWDIRAE DS    A                       ADDR OF END OF LAST VALID DIRB
 00004C                             1891             =GPWARETA DS    A                       ALTERNATE RETURN ADDRESS
 000050                             1892             =GPWDIRLS DS    A                       LAST DIRECTORY ENTRY LOC
-000054                             1894             =PFX      DS    0C'ORV.GG.UUU.'        STANDARD FILENAME PREFIX
 000054                             1895             =GPWFFN   DS    C'ORV.'                 FULL FILE NAME
 000058                             1896             =GPWGRP   DS    C'GG'                    GROUP ON LAST FILE
 00005A                             1897             =GPWGDOT  DS    C'.'
 00005B                             1898             =GPWUSER  DS    C'UUU'                   USER FOR LAST FILE
 00005E                             1899             =GPWUDOT  DS    C'.'
 00005F                             1900             =GPWFN    DS    CL44                    FILE NAME (AS TYPED)
 00008B                             1901             =         DS    C                       SPACE FOR BLANK FOLLOWING NAME
1VPS      (VPS00) (09:49) (22MAR04) ORVYL'S PROGRAM SERVICES PROCESSOR                                                      Page   13
0D-Loc  Object Code    Addr1 Addr2  Stmt Lv Lineno    Source Statement           (Hibal 5, Asmedit 3.3)  HLASM R4.0  2004/03/22 09.49
+_____  ______ ____    _____ _____  ____ __ ______    ______ _________
0
                                    1904             =* GPW FILE CONTROL BLOCK
                                    1905             =*
 00008C                             1906             =GPWFILE  DS    0F                      FILE CONTROL BLOCK
                                    1907             =*
                                    1908             =*                            NOTE:  GPWPFFL AND GPWFID MUST
                                    1909             =*                                   REMAIN PAIRED FOR VPM
                                    1910             =*
 00008C 00                          1911             =GPWPFFL  FLAG  ,                       PRIMARY FILE FLAGS
 GPWPFFL.GPWFATT   80 ONES          1915             =         FLAG  GPWFATT                 FILE IS ATTACHED
 GPWPFFL.GPWFSHR   40 ONES          1920             =         FLAG  GPWFSHR                 ATTACH FILE SHARE
 GPWPFFL.GPWFNEW   20 ONES          1925             =         FLAG  GPWFNEW                 FILE IS NEW
 GPWPFFL.GPWFFMT   10 ONES          1930             =         FLAG  GPWFFMT                 USER INFO IS FORMAT
 GPWPFFL.GPWFVOSF  08 ONES          1935             =         FLAG  GPWFVOSF                FILE IS AN OS/FILE
 GPWPFFL.GPWOSFED  04 ONES          1940             =         FLAG  GPWOSFED                OS/FILE IS EDIT FORMAT
 GPWPFFL.GPWFFFN   02 ONES          1945             =         FLAG  GPWFFFN                 FULL FILENAME SPECIFIED
                                    1950             =
 00008D                             1951             =GPWFID   DS    X                       FILE ID NUMBER
 00008E                             1952             =GPWFNL   DS    X                       FILE NAME LENGTH
                                    1953             =*
                                    1954             =*        LIBRARY DATA AND FLAGS
                                    1955             =*
 00008F                             1956             =GPWLMNL  DS    AL1                     LIBRARY MEMBER NAME LENGTH
 000090                             1957             =GPWLMN   DS    CL8                     LIBRARY MEMBER NAME
 000098                             1958             =GPWLMN2  DS    CL8                     LIBRARY MEMBER NAME2 (ALIAS)
 0000A0                             1959             =GPWLMF1  DS    X                       LIB MEMBER
 0000A1                             1960             =GPWLMF2  DS    X                       DIRECTORY FLAGS
                                    1961             =GPWLMFLS EQU   GPWLMF1,*-GPWLMF1
 0000A4                             1962             =GPWLMFBN DS    A                       FIRST BLOCK # OF LIB MEMBER
 0000A8                             1963             =GPWLMBCT DS    A                       NUM OF BLOCKS IN LIB MEMBER
                                    1964             =GPWLMSPC EQU   GPWLMN,*-GPWLMN,C'X'    SPECIFIES LIB MBR.
                                    1965             =GPWLMFLD EQU   GPWLMF1,*-GPWLMF1       DESCRIPTORS OF LIB MBR.
 0000AC                             1966             =GPWLMLBN DS    A                       LAST BLOCK NUMBER OF LIB MEMBER
 0000B0                             1967             =GPWNXTAD DS    A                       ADDRESS OF NEXT ENTRY IN LIB DIR
                                    1968             =
 0000B4 00                          1969             =GPWLFLAG FLAG  ,                       LIBRARY FLAGS
 GPWLFLAG.GPWLREP  80 ONES          1973             =     FLAG  GPWLREP                     REPLACE PDS MEMBER
 GPWLFLAG.GPWLGOTD 40 ONES          1978             =     FLAG  GPWLGOTD                    GOT DIRECTORY BLK, SKIP READ
 GPWLFLAG.GPWLNEWD 20 ONES          1983             =     FLAG  GPWLNEWD                    NEW DIRECTORY, CREATE DIRE
 GPWLFLAG.GPWALIAS 10 ONES          1988             =     FLAG  GPWALIAS                    ALIAS USED FOR FSCALL, GPWLMN
 GPWLFLAG.GPWLNXTM 08 ONES          1993             =     FLAG  GPWLNXTM                    SCAN NEXT MEMBER IN DIR
 GPWLFLAG.GPWLLDMD 04 ONES          1998             =     FLAG  GPWLLDMD                    OS/LOAD MODULE PDS
 GPWLFLAG.GPWLLIST 02 ONES          2003             =     FLAG  GPWLLIST                    LIST OF MEMBERS IN INCLUDE, ETC
 GPWLFLAG.GPWLMORE 01 ONES          2008             =     FLAG  GPWLMORE                    UNUSED, MORE LIB FLAGS TO COME?
                                    2013             =*
                                    2014             =*  FILE INFO WORD
                                    2015             =*
 0000B8                             2016             =GPWUINFO DS    0F                      USER INFO FIELD
 0000B8                             2017             =GPWUIFMT DS    AL1                     FILE FORMAT
                                    2018             =GPWUILIB EQU   GPWUIFMT,X'80',1        LIBRARY
                                    2019             =GPWUILDF EQU   GPWUIFMT,X'40',1        LOADFILE
                                    2020             =GPWUIDA  EQU   GPWUIFMT,X'20',1        KEYED DIRECT ACCESS (URAM)
                                    2021             =GPWUIUND EQU   GPWUIFMT,X'10',1        UNDEFINED (URAM)
                                    2022             =GPWUIVBS EQU   GPWUIFMT,X'08',1        VAR. BLOCKED SPANNED  (URAM)
                                    2023             =GPWUIFLR EQU   GPWUIFMT,X'04',1        LRECL=
                                    2024             =GPWUIFN  EQU   GPWUIFMT,X'01',1        NUMBERED (LRECL ASSUMED)
1VPS      (VPS00) (09:49) (22MAR04) ORVYL'S PROGRAM SERVICES PROCESSOR                                                      Page   14
0D-Loc  Object Code    Addr1 Addr2  Stmt Lv Lineno    Source Statement           (Hibal 5, Asmedit 3.3)  HLASM R4.0  2004/03/22 09.49
+_____  ______ ____    _____ _____  ____ __ ______    ______ _________
0                                   2025             =GPWUIFI  EQU   GPWUIFMT,X'02',1        INTEGER (LRECL ASSUMED)
                                    2026             =GPWUIFE  EQU   GPWUIFMT,X'01',1        EDIT
                                    2027             =GPWUIFV  EQU   GPWUIFMT,X'02',1        VARIABLE
                                    2028             =GPWUIMSK EQU   GPWUIFMT,X'7F',1        FORMAT MASK
 0000B9                             2029             =         DS    AL1                     RESERVED
 0000BA                             2030             =GPWUILRC DS    AL2                     FILE LRECL
                                    2031             =
                                    2032             =GPWMAXBS EQU   X'02000'                MAXIMUM BLOCKSIZE, 8K
                                    2033             =
 0000BC                             2034             =GPWBLKSZ DS    AL2                     File Block Size
 0000C0                             2035             =GPWBN    DS    A                       NUMBER OF NEXT BLOCK
00000C4                             2037             =GPWFILN  DS    CL44
                                    2038             =GPWFGRP  EQU   GPWFILN+4,2,C'C'        GROUP
                                    2039             =GPWFUSR  EQU   GPWFILN+7,3,C'C'        USER
                                    2040             =GPWFNAM  EQU   GPWFILN+11,33,C'C'
 0000F0                000F0 000C4  2041             =         ORG   GPWFILN                 OVERLAP OSFPB
1VPS      (VPS00) (09:49) (22MAR04) ORVYL'S PROGRAM SERVICES PROCESSOR                                                      Page   15
0D-Loc  Object Code    Addr1 Addr2  Stmt Lv Lineno    Source Statement           (Hibal 5, Asmedit 3.3)  HLASM R4.0  2004/03/22 09.49
+_____  ______ ____    _____ _____  ____ __ ______    ______ _________
0                                   2043             =         COPY  OSFPB                   COPY IN FILE PARAMETER BLOCK
                                    2044             =*
                                    2045             =*  OS FILE PARAMETER BLOCK
                                    2046             =*
 0000C4                             2047             =OSFPBDS  DS    0F
 0000C4                             2048             =OSFDSN   DS    CL44                    DSNAME
 0000F0                             2049             =OSFMEM   DS    CL8                     MEMBER NAME
 0000F8                             2050             =OSFVOL   DS    CL6                     VOLUME ID
                                    2051             =
 0000FE 00                          2052             =OSFFDISP FLAG  ,                       DATA SET DISPOSITION FLAGS
 OSFFDISP.OSFNEW   C0 ONES          2056             =         FLAG  (OSFNEW,X'C0')          NEW DS
 OSFFDISP.OSFMOD   80 ONES          2065             =         FLAG  (OSFMOD,X'80')          MOD DS
 OSFFDISP.OSFOLD   40 ONES          2074             =         FLAG  (OSFOLD,X'40')          OLD DS
 OSFFDISP.OSFSHR   08 ONES          2083             =         FLAG  (OSFSHR,X'08')          SHARE (IMPLIES OLD)
 OSFFDISP.OSFIDSP  37 NZ            2092             =         FLAG  (OSFIDSP,X'37',NZ)      DISPOSITION RESERVED BITS
                                    2102             =
 0000FF 00                          2103             =OSFDSORG FLAG  ,                       DATA SET ORGANIZATION FLAGS
 OSFDSORG.OSFPS    40 ONES          2107             =         FLAG  (OSFPS,X'40')           SEQUENTIAL DATA SET
 OSFDSORG.OSFDA    20 ONES          2116             =         FLAG  (OSFDA,X'20')           DIRECT ACCESS DATA SET
 OSFDSORG.OSFPO    02 ONES          2125             =         FLAG  (OSFPO,X'02')           PARTITIONED DATA SET
 OSFDSORG.OSFIDSG  AD NZ            2134             =         FLAG  (OSFIDSG,X'AD',NZ)      DSORG RESERVED BITS
                                    2144             =
 000100 00                          2145             =OSFRECFM FLAG  ,                       DATA SET FORMAT FLAGS
 OSFRECFM.OSFRCFMU C0 ONES          2149             =         FLAG  (OSFRCFMU,X'C0')        RECFM=U
 OSFRECFM.OSFRCFMF 80 ONES          2158             =         FLAG  (OSFRCFMF,X'80')        RECFM=F
 OSFRECFM.OSFRCFMV 40 ONES          2167             =         FLAG  (OSFRCFMV,X'40')        RECFM=V
 OSFRECFM.OSFRCFMB 10 ONES          2176             =         FLAG  (OSFRCFMB,X'10')        RECFM=?B
 OSFRECFM.OSFRCFMS 08 ONES          2185             =         FLAG  (OSFRCFMS,X'08')        RECFM=?S
 OSFRECFM.OSFRCFMA 04 ONES          2194             =         FLAG  (OSFRCFMA,X'04')        RECFM=?A
 OSFRECFM.OSFRCFMM 02 ONES          2203             =         FLAG  (OSFRCFMM,X'02')        RECFM=?M
 OSFRECFM.OSFIRCFM 21 NZ            2212             =         FLAG  (OSFIRCFM,X'21',NZ)     RESERVED RECFM BITS
                                    2222             =
 000101                             2223             =OSFKEY   DS    X                       KEY LENGTH
 000102                             2224             =OSFLRECL DS    H                       LRECL
 000104                             2225             =OSFBLKSZ DS    H                       BLOCKSIZE
                                    2226             =
 000106 00                          2227             =OSFSPTYP FLAG  ,                       SPACE FLAGS
 OSFSPTYP.OSFSPCYL C0 ONES          2231             =         FLAG  (OSFSPCYL,X'C0')        CYLINDER ALLOCATION
 OSFSPTYP.OSFSPTRK 80 ONES          2240             =         FLAG  (OSFSPTRK,X'80')        TRACK ALLOCATION
 OSFSPTYP.OSFSPBLK 40 ONES          2249             =         FLAG  (OSFSPBLK,X'40')        BLOCK ALLOCATION
 OSFSPTYP.OSFSPCON 08 ONES          2258             =         FLAG  (OSFSPCON,X'08')        CONTIG
 OSFSPTYP.OSFSPMXG 04 ONES          2267             =         FLAG  (OSFSPMXG,X'04')        MAXIMUM CONTIG
 OSFSPTYP.OSFSPRND 01 ONES          2276             =         FLAG  (OSFSPRND,X'01')        ROUND
 OSFSPTYP.OSFISP   32 NZ            2285             =         FLAG  (OSFISP,X'32',NZ)       RESERVED SPACE BITS
                                    2295             =
 000107 00                          2296             =OSFFLAG  FLAG  ,                       MISCELLANY
 OSFFLAG.OSFSPRLS  20 ONES          2300             =         FLAG  (OSFSPRLS,X'20')        RLSE
 OSFFLAG.OSFIN     08 ONES          2309             =         FLAG  (OSFIN,X'08')           WILL READ DATA SET
 OSFFLAG.OSFOUT    04 ONES          2318             =         FLAG  (OSFOUT,X'04')          WILL WRITE DATA SET
 OSFFLAG.OSFUPD    02 ONES          2327             =         FLAG  (OSFUPD,X'02')          WILL UPDATE DATA SET
 OSFFLAG.OSFIFLG   D1 NZ            2336             =         FLAG  (OSFIFLG,X'D1',NZ)      RESERVED MISC BITS
                                    2346             =
 000108                             2347             =OSFSPQTY DS    F                       PRIMARY ALLOCATION QUANTITY
 00010C                             2348             =OSFSSQTY DS    F                       SECONDARY ALLOCATION QUANTITY
 000110                             2349             =OSFSDBLK DS    H                       NUMBER OF DIRECTORY BLOCKS
 000112                             2350             =OSFLIMCT DS    H                       LIMIT COUNT ON DA SEARCH
1VPS      (VPS00) (09:49) (22MAR04) ORVYL'S PROGRAM SERVICES PROCESSOR                                                      Page   16
0D-Loc  Object Code    Addr1 Addr2  Stmt Lv Lineno    Source Statement           (Hibal 5, Asmedit 3.3)  HLASM R4.0  2004/03/22 09.49
+_____  ______ ____    _____ _____  ____ __ ______    ______ _________
0                                   2351             =
 000114                             2352             =         DS    22X                     RESERVED
                                    2353             =
                                    2354             =OSFPB    EQU   OSFPBDS,*-OSFPBDS
 00012A                0012A 0012A  2355             =         ORG   ,
                                    2356             =GPWFCB   EQU   GPWFILE,*-GPWFILE,C'X'  LENGTH OF FILE BLOCK
1VPS      (VPS00) (09:49) (22MAR04) ORVYL'S PROGRAM SERVICES PROCESSOR                                                      Page   17
0D-Loc  Object Code    Addr1 Addr2  Stmt Lv Lineno    Source Statement           (Hibal 5, Asmedit 3.3)  HLASM R4.0  2004/03/22 09.49
+_____  ______ ____    _____ _____  ____ __ ______    ______ _________
0                                   2358             =* ALTERNATE FILE CONTROL BLOCK
                                    2359             =*
 00012C                             2360             =         DS    0F                      ALIGNMENT CHECK
 00012C                             2361             =GPWAFILE DS    0XL(L'GPWFCB)           ALTERNATE FILE CONTROL
 00012C                             2362             =GPWAFFL  DS    X                       ALTERNATE FILE FLAGS
 00012D                             2363             =GPWAFID  DS    X                       ALTERNATE FILE ID
 00012E                             2364             =GPWAFNL  DS    X                       ALTERNATE FILE NAME LEN
 00012F                             2365             =GPWALMNL DS    X                       ALTERNATE MEMBER LENGTH
 000130                             2366             =GPWALMN  DS    CL8                     ALTERNATE MEMBER NAME
 000138                             2367             =GPWALMN2 DS    CL8                     ALTERNAME MEMBER NAME2 (ALIAS)
 000140                             2368             =GPWALMF1 DS    X                       ALTERNATE MEMBER F1
 000141                             2369             =GPWALMF2 DS    X                       ALTERNATE MEMBER F2 FLGS
 000144                             2370             =GPWAMFBN DS    A                       ALTERNATE MEMBER FRST BLK
 000148                             2371             =GPWAMBCT DS    A                       ALTERNATE MEMBER # BLK'S
 00014C                             2372             =GPWAMLBN DS    A                       ALTERNATE MEMBER LST BLK
 000150                             2373             =GPWANXTA DS    A                       ALTERNATE NEXT ADDRESS
 000154                             2374             =GPWAFLG  DS    X                       ALTERNATE LIBRARY FLAGS
 000158                             2375             =GPWAUINF DS    A                       ALTERNATE FILE USER INFO
 00015C                             2376             =GPWABKSZ DS    AL2                     ALTERNATE File Block Size
 000160                             2377             =GPWABN   DS    A                       ALTERNATE FILE BLK #
 000164                             2378             =GPWAFN   DS    CL44                    ALTERNATE FILE NAME
 000190                00190 001CA  2379             =         ORG   GPWAFILE+L'GPWFCB
 0001CC                             2380             =GPWHCNT  DS    F                       COUNT OF HYBRID FILE BLOCKS
 0001D0                             2381             =GPWDELTA DS    F                       WYLBUR LINE NUMBER DELTA
                                    2382             =GPWWRK   EQU   GPWSTART,*-GPWSTART     CLEARED WORK AREA
-
                                    2384             =GPWTST   EQU   *                       1024 BYTE MAXIMUM LENGTH
 0001D4                001D4 00800  2385             =         ORG   GPWSTART+2*1024         PUT HEX BUFFER AT END
 000800                             2386             =         DC    0Y(*-GPWTST)            ASSEMBLY ERROR IF OVERFLOW
 000800                             2387             =GPWHXBUF DS    XL2048                  I/O BUFFER FOR HEX OPERATIONS
 001000                             2388             =GPWBUF   DS    XL8192                  GENERAL I/O BUFFER
                                    2389             =GPW      EQU   GPWSTART,*-GPWSTART,C'X'
1VPS      (VPS00) (09:49) (22MAR04) ORVYL'S PROGRAM SERVICES PROCESSOR                                                      Page   18
0D-Loc  Object Code    Addr1 Addr2  Stmt Lv Lineno    Source Statement           (Hibal 5, Asmedit 3.3)  HLASM R4.0  2004/03/22 09.49
+_____  ______ ____    _____ _____  ____ __ ______    ______ _________
0                                   2391      48.     *
                                    2392      49.     ** MONITOR WORK PAGE. REDEFINES GET/PUT WORK PAGE
                                    2393      50.     *
 003000                00000 03000  2394      51.     GPWDSECT DSECT                         CONTINUE GPW DSECT
                                    2395      52.     MON      EQU   GPW,4096                DEFINE MONITOR PAGE
 003000                03000 01000  2396      53.              ORG   GPWBUF
 001000                             2397      54.     MONBUF   DS    XL(2048/20*20)          MONITOR BUFFER
 0017F8                017F8 00800  2398      55.              ORG   GPWHXBUF                SKIP ESSENTIAL GPW STUFF
 000800                             2399      56.     MONCLRST DS    0D                      ALIGN
 000800                             2400      57.     MONINTVL DS    A                       MONITORING INTERVAL (MS)
 000804                             2401      58.     MONNSAMP DS    A                       NUMBER OF SAMPLES
 000808 00                          2402      59.     MONFLAGS FLAG  ,                       PROGLOOK FLAGS
 MONFLAGS.MONTCPU  80 ONES          2406      60.              FLAG  MONTCPU                 CPU TIME TIMER
 MONFLAGS.MONTREAL 40 ONES          2411      61.              FLAG  MONTREAL                REAL TIME TIMER
 MONFLAGS.MONSHARE 20 ONES          2416      62.              FLAG  MONSHARE                SHARED PGM PROGLOOK OPTION
 MONFLAGS.MONNOMAP 10 ONES          2421      63.              FLAG  MONNOMAP                OMIT MAP RECORDS
 00080C                             2426      64.     MONSAMPL DS    A                       NUMBER OF SAMPLES LEFT
 000810                             2427      65.     MONPRGNM DS    CL8                     NAME FOR PROGLOOK RECORD
 000818                             2428      66.     MONPBASE DS    A                       START OF PROGRAM
 00081C                             2429      67.     MONBUFAD DS    A                       ADDRESS OF NEXT SAMPLE
 000820                             2430      68.     MONBFEND DS    A                       BUFFER LIMIT ADDRESS
                                    2431      69.     MONCLEAR EQU   MONCLRST,*-MONCLRST,C'X'      AREA INIT TO 0 ON ENTRY
-
                                    2433      71.     *
                                    2434      72.     **  PROGLOOK SAMPLE
                                    2435      73.     *
 000000                00000 00014  2436      74.     SAMPDSCT DSECT
 000000                             2437      75.     SAMPADDR DS    A                       ADDRESS OF PROG AT SAMPLE
                                    2438      76.     SAMPTYPE EQU   SAMPADDR,1              SAMPLE TYPE
                                    2439      77.     SAMPRUN  EQU   0                       INDICATE PROGRAM WAS RUNNING
                                    2440      78.     SAMPWAIT EQU   1                       INDICATE PROGRAM WAS WAITING
                                    2441      79.     SAMPMAP  EQU   C'M'                    INDICATE MAP ENTRY
 000004                             2442      80.     SAMPPROG DS    CL8                     PROGRAM NAME
 00000C                             2443      81.     SAMPTCB  DS    A                       YOU'VE GOTTA BE KIDDING
 000010                             2444      82.     SAMPBASE DS    A                       PROGRAM BASE
                                    2445      83.     SAMPLE   EQU   SAMPDSCT,*-SAMPDSCT
 000014                             2446      84.     SAMPNEXT DS    0F                      NEXT SAMPLE ADDRESS
1VPS      (VPS00) (09:49) (22MAR04) ORVYL'S PROGRAM SERVICES PROCESSOR                                                      Page   19
0D-Loc  Object Code    Addr1 Addr2  Stmt Lv Lineno    Source Statement           (Hibal 5, Asmedit 3.3)  HLASM R4.0  2004/03/22 09.49
+_____  ______ ____    _____ _____  ____ __ ______    ______ _________
0000014                00000 00850  2449      87.     VPS      CSECT ,
                                    2451      88.     *
                                    2452      89.     *
                                    2453      90.     ****   PROGLOOK INITIALIZATION
                                    2454      91.     *
                                    2455      92.     *
 USING  CLW,R10                     2456      93.              USING CLW,CLWR                ##
                                    2465      94.
 000014 902B D000/188D       00000  2466      95.     PROGSERV VENTER SR,R11,*
 00001A 41D0 D028/0D70       00028  2471             +
 000020 5870 7030            00050  2486      96.              L     BR,=A(BASE)
 USING  *,R7
 DROP   *,R7                        2487      97.              USING BASE,BR                 ##
 USING  BASE,R7
 000024 1820                        2499      98.              LR    SR,0                    SAVE KEYWORD LENGTH
 000026 183F                        2500      99.              LR    TR,15                   SAVE ENTRY CODE
 000028 9068 A358            00358  2501     100.              STM   BRR,WAR,CLWQRET         QUICK RETURN REGISTERS
 00002C 4D90 75EE/0000       00624  2502     101.              FSCALL FILSETUP
 000032 47F0 7028            0005E  2506     102.              B     SETUPRTN                SKIP ERROR ROUTINE
                                    2507     103.     BASE     EQU   *
                                    2508     104.     *
                                    2509     105.     * EXIT BRANCH TABLE
 000036 47F0 7008            0003E  2510     106.              B     EXIT                    NORMAL EXIT
 00003A 47F0 701E            00054  2511     107.              B     TYPERR                  ERROR MESSAGE EXIT
                                    2512     108.
 00003E                             2513     109.     EXIT     DS    0H
 00003E 18F2                        2514     110.              LR    R15,SR                  RETURN CODE
 000040 1803                        2515     111.              LR    0,TR
 000042 18D8/982B D000       00000  2516     112.              VEXIT SR,R11,LTR
 000048 12FF/07F9                   2520             +
 000050                             2522     113.              LTORG
 000050 00000036       00054 00850  2524                             =A(BASE)
                                    2528     114.     *
 000054 5890 76AA/0D99       006E0  2529     115.     TYPERR   VCALL TYPEIT
 00005A 47F0 74A2            004D8  2533     116.              B     FILEXIT                 DROP FILES
-
-
 USING  GPW,R12                     2535     118.              USING GPW,GPWR                ##
 00005E                             2544     119.     SETUPRTN DS    0H
 00005E                             2545     120.              CLEAR MONCLEAR                INITIALIZE MONITOR AREA
 00005E D723 C800 C800 00800 00800  2551             +
                                    2553     122.              VPSTAB PSTAB,TR               BRANCH ON CODE
 000064 47F3 7032            00068  2554    01-VPSTA +         B     *+4(TR)
 000068 47F0 711E            00154  2555    01-VPSTA +         B     PROGLOOK
1VPS      (VPS00) (09:49) (22MAR04) ORVYL'S PROGRAM SERVICES PROCESSOR                                                      Page   20
0Current Usings:  (BASE,R7) (CLW,R10) (GPW,R12)
0Loc    Object Code    Addr1 Addr2  Stmt Lv Lineno    Source Statement           (Hibal 5, Asmedit 3.3)  HLASM R4.0  2004/03/22 09.49
+___    ______ ____    _____ _____  ____ __ ______    ______ _________
0                                   2558     125.     *
                                    2559     126.     *
                                    2560     127.     ****   CLP TIMER FIRED.
                                    2561     128.     *      NOTIFY USER OF CPU USAGE AND RESET TIMER.
                                    2562     129.     *
 00006C 902B D000/188D       00000  2563     130.     TIMEOUT  VENTER SR,R11,*          CPU TIMER ROUTINE
 000072 41D0 D028/0D70       00028  2568             +
 000078 5870 766C            006E4  2586     131.              L     BR,=A(BASE)
 DROP   BASE,R7
 USING  *,R7
 DROP   *,R7                        2587     132.              USING BASE,BR
 USING  BASE,R7
                                    2599     133.     *
                                    2600     134.     *  PUT 'ORVYL CPU USAGE ...' MESSAGE IN BUFFER
                                    2601     135.     *  DELAY PRINTING MESSAGE UNTIL AFTER TIMER INTERVAL VSET, OTHERWISE
                                    2602     136.     *  AN ATTN BREAK DURING WRITE WILL CAUSE TIMER VSET TO BE SKIPPED
                                    2603     137.     *
 00007C 4110 0000            00000  2604     138.              SEG   'Timer break, Orvyl CPU usage = '   2.80 SECONDS
 000080 4590 7684            006BA  2606             +
 000084 4100 0004/0AFA       00004  2607     139.              SENSE 4                  GET CURRENT CPU TIME  (IN R15)
 00008A 183F                        2626     140.              LR    TR,R15
 00008C 1B22                        2627     141.              SR    SR,SR
 00008E 5D20 76B2            006E8  2628     142.              D     SR,=F'3840'
 000092 4030 A236            00236  2629     143.              STH   TR,CLWTIME         SAV CURRENT CPU TIME IN 10THS SEC.
 000096 183F                        2630     144.              LR    TR,R15
 000098 1B22                        2631     145.              SR    SR,SR
 00009A 5D20 76B6            006EC  2632     146.              D     SR,=F'384'
 00009E 1B22                        2633     147.              SR    SR,SR
 0000A0 5D20 76BA            006F0  2634     148.              D     SR,=F'100'
 0000A4 18F3/4100 0004       00004  2635     149.              SEGDC 4,(TR)             PRINT CPU TIME IN 100THS OF SEC.
 0000AA 4110 A2E8            002E8  2655             +
 0000AE 58E0 76BE/0DEE       006F4  2658             +
 0000B4 5890 76C2/0D99       006F8  2675             +
 0000BA 4110 0020            00020  2677     150.              SEG   '.'
 0000BE 4590 7684            006BA  2679             +
 0000C2 18F2/4100 0002       00002  2680     151.              BTD   CLWTEMP,2,(SR)
 0000C8 4110 A2E8            002E8  2699             +
 0000CC 58E0 76BE/0DEE       006F4  2702             +
 0000D2 D601 A2E8 76F6 002E8 0072C  2704     152.              OC    CLWTEMP(2),=C'00'
 0000D8 4590 75FE            00634  2705     153.              SEG   (R1),(R0)
 0000DC 4110 0022            00022  2717     154.              SEG   ' seconds.'        CPU TIME MESSAGE IN BUFFER
 0000E0 4590 7684            006BA  2719             +
 0000E4 4830 A236            00236  2720     155.              LH    TR,CLWTIME         TR - CURRENT CPU TIME
 0000E8 4810 A234            00234  2721     156.              LH    R1,CLWTMAX         R1 - MAXIMUM CPU TIME LIMIT
 0000EC 4820 A232            00232  2722     157.              LH    SR,CLWTIVAL        SR - TIMEOUT INTERVAL
 0000F0 1211/4780 70D4       0010A  2723     158.              IF    ('LTR R1,R1',NZ),BEGIN  IF WE HAVE MAX CPU LIMIT
 0000F6                             2736  1  159.                BEGIN
 0000F6 1931                        2740  2  160.                  CR    TR,R1              IF CURNT TIME >= CPU LIMIT, LOGOFF
 0000F8 47B0 70FA            00130  2741  2  161.                  BNL   TLOGOFF            IF CURNT TIME >= CPU LIMIT, LOGOFF
 0000FC                             2742  1  162.                END
 0000FC 1B13                        2746  1  163.                SR    R1,TR              TIME BEFORE CPU TIME LIMIT REACHED
 0000FE 4820 A232            00232  2747  1  164.                LH    SR,CLWTIVAL        IF NEXT TIMEOUT > CPU LIMIT, WE FIX
 000102 1921/47D0 70D4       0010A  2748  1  165.                IF    ('CR SR,R1',H),'LR SR,R1'   WE USE CPU LIMIT
 000108 1821                        2762  1          +
1VPS      (VPS00) (09:49) (22MAR04) ORVYL'S PROGRAM SERVICES PROCESSOR                                                      Page   21
0Current Usings:  (BASE,R7) (CLW,R10) (GPW,R12)
0Loc    Object Code    Addr1 Addr2  Stmt Lv Lineno    Source Statement           (Hibal 5, Asmedit 3.3)  HLASM R4.0  2004/03/22 09.49
+___    ______ ____    _____ _____  ____ __ ______    ______ _________
000010A                             2767     166.              END
 00010A 4C20 76F8            0072E  2771     167.              MH    SR,=H'3840'        TIMEOUT INTERVAL
 00010E 4100 0099/1812       00099  2772     168.              VSET  153,(SR)           SET TIMER
 000114 0AFB                        2792             +
 000116 4D90 7626            0065C  2794     169.              LCALL WRITE              PRINT ORVYL CPU USAGE MESSAGE NOW
 00011A 4110 002C            0002C  2796     170.              SEG   'Type ''GO'' to continue.'
 00011E 4590 7684            006BA  2798             +
 000122 4D90 7626            0065C  2799     171.              LCALL WRITE
 000126 18D8/982B D000       00000  2801     172.              VEXIT SR,R11,*           GO CONTINUE
 00012C 12FF/07F9                   2805             +
-000130                             2808     174.     TLOGOFF  DS    0H                 TIME LIMIT EXCEEDED, LOGOFF NOW.
 000130 4110 0D98            00D98  2809     175.              LA    R1,3480            GIVE USER ANOTHER .1 SECONDS
 000134 4100 0099/0AFB       00099  2810     176.              VSET  153,(R1)           AND THEN BADGER HIM TO LOGOFF AGAIN
 00013A 4D90 7626            0065C  2831     177.              LCALL WRITE              PRINT ORVYL CPU USAGE MESSAGE NOW
 00013E 4110 0043            00043  2833     178.              SEG   'Orvyl CPU usage limit exceeded. Please logoff.'
 000142 4590 7684            006BA  2835             +
 000146 4D90 7626            0065C  2836     179.              LCALL WRITE
 00014A 18D8/982B D000       00000  2838     180.              VEXIT SR,R11,*
 000150 12FF/07F9                   2842             +
-                                   2845     182.     *
                                    2846     183.     * TIMER INITIALIZATION  (GOES IN CLP)
                                    2847     184.     *
                                    2848     185.     * NORMAL :
                                    2849     186.     *        MVC   CLWTIMAX(8),XL8'0'   NO LIMITS, NO AUTO TIMEOUT
                                    2850     187.     *
                                    2851     188.     *  FOR STUDENTS:
                                    2852     189.     *
                                    2853     190.     *        MVC   CLWTIMAX(2),=H'20'   2 SECOND MAX INTERVAL
                                    2854     191.     *        MVC   CLWTIVAL(2),=H'5'    .5 SECOND INTERVAL     (SEE NOTE)
                                    2855     192.     *        MVC   CLWTMAX(2),=H'100'   10 SECOND MAX CPU LIMIT (OR 0)
                                    2856     193.     *        MVC   CLWTIME(2),=H'0'            NO NEED TO INIT CLWTIME
                                    2857     194.     *        L     R1,=F'17400'       .5*34800
                                    2858     195.     *        VSET  153,(1)            SET TIMER
                                    2859     196.     * NOTE:
                                    2860     197.     * NOTE!! NOTE.  IF CLWTMAX SET, CLWTIVAL MUST BE NONZERO.
                                    2861     198.     *                                             (CAN BE BIG)
                                    2862     199.     * (CLWTIVAL IS CHECKED TO SEE IF WE ARE TIMING, OR PROGLOOKING)
1VPS      (VPS00) (09:49) (22MAR04) ORVYL'S PROGRAM SERVICES PROCESSOR                                                      Page   22
0Current Usings:  (BASE,R7) (CLW,R10) (GPW,R12)
0Loc    Object Code    Addr1 Addr2  Stmt Lv Lineno    Source Statement           (Hibal 5, Asmedit 3.3)  HLASM R4.0  2004/03/22 09.49
+___    ______ ____    _____ _____  ____ __ ______    ______ _________
0                                   2864     201.     *
                                    2865     202.     *        PROGLOOK
                                    2866     203.     *
 000154                             2867     204.     PROGLOOK DS    0H
 000154                             2868     205.              IF    (CLWTIVAL,NE,0),TIMERERR    TIMER MUST BE OFF
 000154 D501 76A6 A232 006DC 00232  2880             +
 00015A 4770 7302            00338  2883             +
 00015E 9160 A209      00209        2889     206.              IF    (CLWPFPL+CLWPFPIC,Z),NOPROG  MAKE SURE PROGRAM IN CORE
 000162 4780 72DE            00314  2906             +
 000166 9140 A20B      0020B        2912     207.              IF    CLWFPRGL,NOCHANGE       ALREADY MONITORING
 00016A 4710 72EA            00320  2924             +
 00016E 5810 A258            00258  2930     208.              L     R1,CLWMONP              IF ALREADY HAVE MON PAGE,
 000172 1211/4780 7152       00188  2931     209.              IF    (R1,NZ),BEGIN
 000178 58F0 76C6            006FC  2945  1  210.                FREECLW (1),L:=A(L'GPW)       FREE IT
 00017C 5890 76CA/0D99       00700  2958  1          +
 000182                             2960  1  211.                CLEAR CLWMONP
 000182 D703 A258 A258 00258 00258  2966  1          +
 000188                             2967     212.              END   ,
 000188 4110 738E            003C4  2971     213.              SCAN  PRGLOPTS,CLWKWCB        LOOK FOR OPTIONS
 00018C 41F0 A2C4            002C4  2985             +
 000190 58E0 76CE/0DEE       00704  2988             +
 000196 4770 7470            004A6  2990     214.              BNZ   SCRET                   ERROR IN SCAN
 00019A 9500 C08E      0008E        2991     215.              IF    (GPWFNL,EQ,0),MISFILNM  MUST HAVE FILE NAME
 00019E 4780 72F6            0032C  3006             +
 0001A2 4D90 75EE/1408       00624  3012     216.              FSCALL ASMBLNAM               PUT FILENAME TOGETHER
 0001A8 9620 C001      00001        3016     217.              SET   GPWFANW                 CREATE FILE IF NOT THERE
 0001AC 9120 C808      00808        3022     218.              IF    MONSHARE,'FSCALL ATTOLD' IF SHARE, ATTACH SHARED
 0001B0 47E0 7184            001BA  3032             +
 0001B4 4D90 75EE/000C       00624  3040             +
 0001BA 7188           001BA 001B2  3046     219.              ELSE  'FSCALL ATTOLDE'          OTHERWISE
 0001BA 47F0 718E            001C4  3051             +
 0001BE 4D90 75EE/0010       00624  3060             +
 0001C4 4D90 75EE/1420       00624  3066     220.              FSCALL CHKSPIRE               DON'T WRITE ON SPIRES FILES
 0001CA 9120 C08C      0008C        3070     221.              IF    GPWFNEW,ATTACHOK        IF NEW, NO DELETION
 0001CE 4710 71D6            0020C  3082             +
 0001D2 4D90 75EE/0814       00624  3088     222.              FSCALL SENLREC                ANY DATA?
 0001D8 4770 71D6            0020C  3092     223.              BNZ   ATTACHOK                NO, GOOD
 0001DC 4110 1001            00001  3093     224.              LA    R1,@R1+1                INCREMENT IN CASE OF APPEND
 0001E0 5010 C0C0            000C0  3094     225.              ST    R1,GPWBN                SAVE IT
 0001E4 91C0 C003      00003        3095     226.              IF    (GPWFERS+GPWFAPP),ATTNOASK    APPEND OR ERASE?
 0001E8 4770 71C4            001FA  3110             +
 0001EC 4D90 75EE/1410       00624  3116     227.              FSCALL ASKERASE               OK TO ERASE?
 0001F2 91C0 C003      00003        3120     228.              IF    (GPWFERS+GPWFAPP,Z),REQABORT  APPEND OR ERASE?
 0001F6 4780 74C8            004FE  3137             +
 0001FA 9180 C003      00003        3143     229.     ATTNOASK IF    ~GPWFERS,ATTACHOK       ERASE?
 0001FE 47E0 71D6            0020C  3156             +
 000202 4D90 74D4            0050A  3162     230.              LCALL DELETE                 ERASE CONTENTS
 000206                             3164     231.              CLEAR GPWBN                   ZOT BLOCK NUMBER
 000206 D703 C0C0 C0C0 000C0 000C0  3170             +
 00020C                             3171     232.     ATTACHOK DS    0H
 00020C D203 C0B8 76D2 000B8 00708  3172     233.              MVC   GPWUINFO,=AL1(L'GPWUIFLR,0,0,20)  FILE IS FIXED/20
 000212 9610 C08C      0008C        3173     234.              SET   GPWFFMT                  FORMAT
 000216 4D90 75EE/0830       00624  3179     235.              FSCALL SETUINFO                 TO FIXED/20
1VPS      (VPS00) (09:49) (22MAR04) ORVYL'S PROGRAM SERVICES PROCESSOR                                                      Page   23
0Current Usings:  (BASE,R7) (CLW,R10) (GPW,R12)
0Loc    Object Code    Addr1 Addr2  Stmt Lv Lineno    Source Statement           (Hibal 5, Asmedit 3.3)  HLASM R4.0  2004/03/22 09.49
+___    ______ ____    _____ _____  ____ __ ______    ______ _________
0                                   3184     237.     *
                                    3185     238.     ** SET DEFAULT VALUES IF ANY OMITTED
                                    3186     239.     *
 00021C                             3187     240.              IF    (MONINTVL,Z),' MVC  MONINTVL,=A(10) ' SET DEFAULT
 00021C D603 C800 C800 00800 00800  3197             +
 000222 4770 71F6            0022C  3198             +
 000226 D203 C800 76D6 00800 0070C  3204             +
 00022C                             3209     241.              IF    (MONNSAMP,Z),' MVC  MONNSAMP,=A(4096*4096-1)'
 00022C D603 C804 C804 00804 00804  3219             +
 000232 4770 7206            0023C  3220             +
 000236 D203 C804 76DA 00804 00710  3226             +
 00023C 91C0 C808      00808        3231     242.              IF    (MONTCPU+MONTREAL,Z),'SET MONTCPU'
 000240 4770 7212            00248  3246             +
 000244 9680 C808      00808        3257             +
                                    3262     243.     *
                                    3263     244.     * FILE IS ATTACHED, SET UP FOR MONITORING
                                    3264     245.     *
 000248 D207 C810 A248 00810 00248  3265     246.              MVC   MONPRGNM,CLWPROGN       GET PROGRAM NAME
 00024E D203 C818 A01C 00818 0001C  3266     247.              MVC   MONPBASE,CLWUPST         AND START OF PROGRAM
 000254 4D90 7506            0053C  3267     248.              LCALL RESETBUF                RESET THE BUFFER
 000258 9110 C808      00808        3269     249.              IF    ~MONNOMAP,'LCALL WRITEMAP'  WRITE MAP INFO IF WANTED
 00025C 4710 722E            00264  3279             +
 000260 4D90 759A            005D0  3286             +
 000264 5810 76DE            00714  3291     250.              L     R1,=A(768)              CONVERT TIME
 000268 5C00 C800            00800  3292     251.              M     R0,MONINTVL              TO 26 MIC UNITS
 00026C 5A10 76D6            0070C  3293     252.              A     R1,=A(10)
 000270 8C00 0001            00001  3294     253.              SRDL  R0,1
 000274 5D00 76D6            0070C  3295     254.              D     R0,=A(10)
 000278 5010 A22C            0022C  3296     255.              ST    R1,CLWTIMER
 00027C 9620 A20B      0020B        3297     256.              SET   CLWDOTIM                SET TIMER IN VCLP AT RUN
 000280 D203 C80C C804 0080C 00804  3303     257.              MVC   MONSAMPL,MONNSAMP       SET NO OF REMAINING SAMPLES
 000286 94BF A208      00208        3304     258.              CLEAR CLWFGPW                 PRESERVE GPW AFTER COMMAND
 00028A                             3311     259.              CLEAR CLWGPWP
 00028A D703 A254 A254 00254 00254  3317             +
 000290 50C0 A258            00258  3318     260.              ST    GPWR,CLWMONP            SAVE PAGE AS MONITOR PAGE
 000294 9680 A20B      0020B        3319     261.              SET   CLWFMWP                 SET MONITOR PAGE EXISTS
 000298 9640 A20B      0020B        3325     262.              SET   CLWFPRGL                SET PROGLOOK IN OPERATION
 00029C 47F0 74A2            004D8  3331     263.              B     FILEXIT                 DONE
1VPS      (VPS00) (09:49) (22MAR04) ORVYL'S PROGRAM SERVICES PROCESSOR                                                      Page   24
0Current Usings:  (BASE,R7) (CLW,R10) (GPW,R12)
0Loc    Object Code    Addr1 Addr2  Stmt Lv Lineno    Source Statement           (Hibal 5, Asmedit 3.3)  HLASM R4.0  2004/03/22 09.49
+___    ______ ____    _____ _____  ____ __ ______    ______ _________
0                                   3333     265.     *
                                    3334     266.     *
                                    3335     267.     ** CLP TIMER FIRED. RECORD LOCATION
                                    3336     268.     *
 0002A0 902B D000/188D       00000  3337     269.     PROGMON  VENTER SR,R11,*
 0002A6 41D0 D028/0D70       00028  3342             +
 0002AC 5870 7438            006E4  3360     270.              L     BR,=A(BASE)             GET COMMON ADDRESSIBILITY
 DROP   BASE,R7
 USING  *,R7
 DROP   *,R7                        3361     271.              USING BASE,BR                 ##
 USING  BASE,R7
 0002B0 9180 A20B      0020B        3373     272.              IF    ~CLWFMWP,BEGIN         IF NO MONITOR PAGE,
 0002B4 4710 728A            002C0  3383             +
 0002B8 94BF A20B      0020B        3388  1  273.                CLEAR CLWFPRGL                SOMETHING SCREWY, STOP TIMING
 0002BC 47F0 72D6            0030C  3395  1  274.                B     PMEXIT                  AND RETURN
 0002C0                             3396     275.              END
 0002C0 58C0 A258            00258  3400     276.              L     GPWR,CLWMONP            POINT TO MON PAGE
                                    3401     277.              USING GPW,GPWR                ##
 0002C4 5810 C81C            0081C  3403     278.              L     R1,MONBUFAD             GET ADDRESS OF NEXT RECORD
 USING  SAMPLE,R1                   3404     279.              USING SAMPLE,R1               ##
 0002C8 D203 1000 A36C 00000 0036C  3413     280.              MVC   SAMPADDR,CLWSBPSW+4     SET SAMPLE ADDRESS
 0002CE D207 1004 C810 00004 00810  3414     281.              MVC   SAMPPROG,MONPRGNM       SET PROGRAM NAME
 0002D4 D203 1010 C818 00010 00818  3415     282.              MVC   SAMPBASE,MONPBASE       SET PROGRAM BASE
 DROP   SAMPLE,R1                   3416     283.              DROP  R1                      ##
 0002DA 4D90 7536            0056C  3423     284.              LCALL NEXTREC                 BUMP BUFFER POINTER
 0002DE 5810 C80C            0080C  3425     285.              L     R1,MONSAMPL             GET REMAINING SAMPLE COUNT
 0002E2 0610                        3426     286.              DECR  R1                      DECREMENT COUNT
 0002E4 1211/4720 72B8       002EE  3428     287.              IF    (R1,NP),'LCALL ENDPROGL' IF NO MORE, GO CLEAN UP
 0002EA 4D90 7350            00386  3444             +
 0002EE 72BC           002EE 002E8  3449     288.              ELSE  BEGIN                    OTHERWISE,
 0002EE 47F0 72D6            0030C  3454             +
 0002F2 5010 C80C            0080C  3460  1  289.                ST    R1,MONSAMPL                SAVE NEW COUNT
 0002F6 4100 0098            00098  3461  1  290.                LA    R0,152                  ASSUME REAL INTERVAL
 0002FA 9180 C808      00808        3462  1  291.                IF    MONTCPU,'LA R0,153'     IF NOT, SET COMPUTE
 0002FE 47E0 72D0            00306  3472  1          +
 000302 4100 0099            00099  3478  1          +
 000306 5810 A22C/0AFB       0022C  3483  1  292.                VSET  (0),L:CLWTIMER          SET TIMER FOR NEXT TIME
 00030C                             3503     293.              END   ,
 00030C 18D8/982B D000       00000  3507     294.     PMEXIT   VEXIT SR,R11
 000312 07F9                        3511             +
1VPS      (VPS00) (09:49) (22MAR04) ORVYL'S PROGRAM SERVICES PROCESSOR                                                      Page   25
0Current Usings:  (BASE,R7) (CLW,R10) (GPW,R12)
0Loc    Object Code    Addr1 Addr2  Stmt Lv Lineno    Source Statement           (Hibal 5, Asmedit 3.3)  HLASM R4.0  2004/03/22 09.49
+___    ______ ____    _____ _____  ____ __ ______    ______ _________
0                                   3513     296.     *
                                    3514     297.     ** COMMAND ERROR ROUTINES
                                    3515     298.     *
 000314 4110 0072            00072  3516     299.     NOPROG   SEG   'No program in core'
 000318 4590 7684            006BA  3518             +
 00031C 47F0 74AC            004E2  3519     300.              B     WRITEXIT
                                    3520     301.
 000320 4110 0085            00085  3521     302.     NOCHANGE SEG   'Proglook already active'
 000324 4590 7684            006BA  3523             +
 000328 47F0 74AC            004E2  3524     303.              B     WRITEXIT
                                    3525     304.
 00032C 4110 009D            0009D  3526     305.     MISFILNM SEG   'Missing file name'
 000330 4590 7684            006BA  3528             +
 000334 47F0 74AC            004E2  3529     306.              B     WRITEXIT
 000338 4110 00AF            000AF  3530     307.     TIMERERR SEG   'Proglook is not available when timer is set'
 00033C 4590 7684            006BA  3532             +
 000340 47F0 74AC            004E2  3533     308.              B     WRITEXIT
-
-
                                    3535     310.     *
                                    3536     311.     ** ERROR WHILE MONITORING. JUST TERMINATE QUIETLY (FOR NOW)
                                    3537     312.     *
 000344                             3538     313.     MONIOERR DS    0H
 000344 9140 A20B      0020B        3539     314.              IF    ~CLWFPRGL,'FSCALL WRITERR'  IF CMD,  , DO STANDARD ERROR
 000348 4710 731C            00352  3549             +
 00034C 4D90 75EE/0C1C       00624  3557             +
 000352                             3563     315.              CLEAR MONBUFAD                DON'T TRY TO WRITE RESIDUAL
 000352 D703 C81C C81C 0081C 0081C  3569             +
 000358 1897                        3570     316.              LR    RAR,BR                  SET RETURN FROM ENDPROGL
 00035A 47F0 7350            00386  3571     317.              B     ENDPROGL                GO STOP
1VPS      (VPS00) (09:49) (22MAR04) ORVYL'S PROGRAM SERVICES PROCESSOR                                                      Page   26
0Current Usings:  (BASE,R7) (CLW,R10) (GPW,R12)
0Loc    Object Code    Addr1 Addr2  Stmt Lv Lineno    Source Statement           (Hibal 5, Asmedit 3.3)  HLASM R4.0  2004/03/22 09.49
+___    ______ ____    _____ _____  ____ __ ______    ______ _________
0                                   3573     319.     *
                                    3574     320.     ** STOP PROGLOOKING.
                                    3575     321.     *
 00035E 902B D000/188D       00000  3576     322.     STOPMON  VENTER SR,R11,*
 000364 41D0 D028/0D70       00028  3581             +
 00036A 5870 737A            006E4  3599     323.              L     BR,=A(BASE)             GET COMMON ADDRESSIBILITY
 DROP   BASE,R7
 USING  *,R7
 DROP   *,R7                        3600     324.              USING BASE,BR                 ##
 USING  BASE,R7
 00036E 9180 A20B      0020B        3612     325.              IF    CLWFMWP,BEGIN          IF THERE IS A MONITOR PAGE,
 000372 47E0 7348            0037E  3622             +
 000376 58C0 A258            00258  3627  1  326.                L     GPWR,CLWMONP            SET UP GPWR
 00037A 4D90 7350            00386  3628  1  327.                LCALL ENDPROGL                GO CLEAN UP
 00037E                             3630     328.              END   ,
 00037E 18D8/982B D000       00000  3634     329.              VEXIT SR,R11
 000384 07F9                        3638             +
-
 000386                             3640     331.     ENDPROGL DS    0H
 000386 5090 D000            00000  3641     332.              VPUSH RAR,,*                  SAVE RETURN
 00038A 41D0 D004            00004  3643             +
 00038E 94BF A20B      0020B        3644     333.              CLEAR CLWFPRGL                NO MORE PROGLOOKING
 000392 4100 0098/1B11       00098  3651     334.              VSET  152,0                   CANCEL CLP TIMER
 000398 0AFB                        3670             +
 00039A 4D90 7546            0057C  3672     335.              LCALL WRITEBUF                WRITE OUT LAST BUFFER
 00039E 4D90 75EE/0020       00624  3674     336.              FSCALL DETACH                 DETACH FILE
 0003A4 947F A20B      0020B        3678     337.              CLEAR CLWFMWP                 INDICATE NO
 0003A8                             3685     338.              CLEAR CLWMONP                  MORE MON PAGE
 0003A8 D703 A258 A258 00258 00258  3691             +
 0003AE 181C/58F0 76C6       006FC  3692     339.              FREECLW (GPWR),L:=A(L'GPW)    FREE MON PAGE
 0003B4 5890 76CA/0D99       00700  3705             +
 0003BA 4BD0 76FA            00730  3707     340.              VPOP  RAR,,*
 0003BE 5890 D000            00000  3709             +
 0003C2 07F9                        3710     341.              BR    RAR                     RETURN
1VPS      (VPS00) (09:49) (22MAR04) ORVYL'S PROGRAM SERVICES PROCESSOR                                                      Page   27
0Current Usings:  (BASE,R7) (CLW,R10) (GPW,R12)
0Loc    Object Code    Addr1 Addr2  Stmt Lv Lineno    Source Statement           (Hibal 5, Asmedit 3.3)  HLASM R4.0  2004/03/22 09.49
+___    ______ ____    _____ _____  ____ __ ______    ______ _________
0                                   3712     343.     *
                                    3713     344.     ** PROGLOOK KEYWORD ROUTINES
                                    3714     345.     *
0                                   3716     347.              EXTRN GOTNKWR                 DEFINE EXTERNAL ROUTINE
                                    3717     348.              EXTRN KWFNOPT
00003C4                             3719     350.     PRGLOPTS DS    0F
 0003C4                             3720     351.              SCKW  FILE,GOTNKWR,(A,P)
 0003C4 8B000000C6C9D3C5            3721             +
 0003CC                             3722     352.              SCKW  INTERVAL,INTERVAL,(A,P,PI),10000000
 0003CC BF00044AC9D5E3C5            3723             +
 0003D8 00989680                    3724             +
 0003DC                             3725     353.              SCKW  SAMPLES,SAMPLES,(A,P,PI),10000000
 0003DC BE000456E2C1D4D7            3726             +
 0003E7 00989680                    3727             +
 0003EB                             3728     354.              SCKW  REAL,REALTIM,A
 0003EB 0B000462D9C5C1D3            3729             +
 0003F3                             3730     355.              SCKW  CPU,CPUTIME
 0003F3 02000470C3D7E4              3731             +
 0003FA                             3732     356.              SCKW  SHARED,SHARED,A
 0003FA 0D00047EE2C8C1D9            3733             +
 000404                             3734     357.              SCKW  NOMAP,NOMAP,A
 000404 0C000484D5D6D4C1            3735             +
 00040D                             3736     358.              SCKW  COMPUTE,CPUTIME,A
 00040D 0E000470C3D6D4D7            3737             +
 000418 F8000000                    3738     359.              SCKW  ,KWFNOPT,PUSH
 00041C                             3740     360.              SCKW  REPLACE,REPLACE,A
 00041C 0E00048AD9C5D7D3            3741             +
 000427                             3742     361.              SCKW  ERASE,REPLACE,A
 000427 0C00048AC5D9C1E2            3743             +
 000430                             3744     362.              SCKW  SCRATCH,REPLACE,A
 000430 0E00048AE2C3D9C1            3745             +
 00043B                             3746     363.              SCKW  APPEND,APPEND,A
 00043B 0D000498C1D7D7C5            3747             +
 000445 FF0004C8                    3748     364.              SCKW  ,UNREC
1VPS      (VPS00) (09:49) (22MAR04) ORVYL'S PROGRAM SERVICES PROCESSOR                                                      Page   28
0Current Usings:  (BASE,R7) (CLW,R10) (GPW,R12)
0Loc    Object Code    Addr1 Addr2  Stmt Lv Lineno    Source Statement           (Hibal 5, Asmedit 3.3)  HLASM R4.0  2004/03/22 09.49
+___    ______ ____    _____ _____  ____ __ ______    ______ _________
0000449 00
 00044A 4780 7486            004BC  3751     366.     INTERVAL BZ    MISSING                 NO INTERVAL
 00044E D203 C800 F000 00800 00000  3752     367.              MVC   MONINTVL,@R15           SAVE INTERVAL
 000454 07FE                        3753     368.              SCRTN (15)
-000456 4780 7486            004BC  3761     370.     SAMPLES  BZ    MISSING                 NO NUMBER OF SAMPLES
 00045A D203 C804 F000 00804 00000  3762     371.              MVC   MONNSAMP,@R15          SAVE NUMBER
 000460 07FE                        3763     372.              SCRTN (15)
-000462 9180 C808      00808        3771     374.     REALTIM  IF    MONTCPU,UNREC           CAN'T HAVE IT BOTH WAYS
 000466 4710 7492            004C8  3784             +
 00046A 9640 C808      00808        3790     375.              SET   MONTREAL                SET REAL TIME
 00046E 07FE                        3796     376.              SCRTN (15)
-000470 9140 C808      00808        3804     378.     CPUTIME  IF    MONTREAL,UNREC          CAN'T HAVE IT BOTH WAYS
 000474 4710 7492            004C8  3817             +
 000478 9680 C808      00808        3823     379.              SET   MONTCPU                 SET CPU TIME
 00047C 07FE                        3829     380.              SCRTN (15)
-00047E 9620 C808      00808        3837     382.     SHARED   SET   MONSHARE
 000482 07FE                        3844     383.              SCRTN (15)
-000484 9610 C808      00808        3852     385.     NOMAP    SET   MONNOMAP
 000488 07FE                        3859     386.              SCRTN (15)
-00048A                             3867     388.     REPLACE  DS    0H
 00048A 9140 C003      00003        3868     389.              IF    GPWFAPP,UNREC           APPEND SPECIFIED?
 00048E 4710 7492            004C8  3880             +
 000492 9680 C003      00003        3886     390.              SET   GPWFERS                 SET ERASE OK
 000496 07FE                        3892     391.              SCRTN (15)
-000498                             3900     393.     APPEND   DS    0H
 000498 9180 C003      00003        3901     394.              IF    GPWFERS,UNREC           ERASE SPECIFIED?
 00049C 4710 7492            004C8  3913             +
 0004A0 9640 C003      00003        3919     395.              SET   GPWFAPP                 SET APPEND
 0004A4 07FE                        3925     396.              SCRTN (15)
1VPS      (VPS00) (09:49) (22MAR04) ORVYL'S PROGRAM SERVICES PROCESSOR                                                      Page   29
0Current Usings:  (BASE,R7) (CLW,R10) (GPW,R12)
0Loc    Object Code    Addr1 Addr2  Stmt Lv Lineno    Source Statement           (Hibal 5, Asmedit 3.3)  HLASM R4.0  2004/03/22 09.49
+___    ______ ____    _____ _____  ____ __ ______    ______ _________
0                                   3933     398.     *
                                    3934     399.     *  SCAN EXIT ERROR ROUTINES
                                    3935     400.     *
 0004A6 1000                        3936     401.     SCRET    LPR   0,0
 0004A8 4780 7486            004BC  3937     402.              BZ    MISSING
                                    3938     403.
 0004AC 4590 75FE            00634  3939     404.     ILLSTR   SEG   (1),(0)
 0004B0 4110 00DB            000DB  3954     405.              SEG   ': Invalid string'
 0004B4 4590 7684            006BA  3956             +
 0004B8 47F0 7004            00004  3957     406.              B     4(,BR)                  ERROR RETURN
                                    3958     407.
 0004BC 4110 00EC            000EC  3959     408.     MISSING  SEG   'Operand missing'
 0004C0 4590 7684            006BA  3961             +
 0004C4 47F0 7004            00004  3962     409.              B     4(,BR)                  ERROR RETURN
                                    3963     410.
 0004C8 4590 75FE            00634  3964     411.     UNREC    SEG   (1),(0)
 0004CC 4110 00FC            000FC  3979     412.              SEG   ': Invalid'
 0004D0 4590 7684            006BA  3981             +
 0004D4 47F0 7004            00004  3982     413.              B     4(,BR)                  ERROR RETURN
 0004D8                             3983     414.     FILEXIT  DS    0H
 0004D8 4D90 75EE/0898       00624  3984     415.              FSCALL FILEXIT                DOES NOT RETURN HERE
                                    3988     416.     *  SET MESSAGE, CLEAN UP AND LEAVE
                                    3989     417.     *
 0004DE                             3990     418.     MSGEXIT  DS    0H
 0004DE 4590 75FE            00634  3991     419.              SEG   (1),(0)
 0004E2                             4005     420.     WRITEXIT DS    0H                      :::
 0004E2 5890 76E2/0D99       00718  4006     421.              VWRITE ,                      SEND MESSAGE
 0004E8 47F0 74A2            004D8  4011     422.              B     FILEXIT                 RETURN
 0004EC                             4012     423.     QIETEXIT DS    0H                      :::
 0004EC 9104 C001      00001        4013     424.              IF    ~GPWFQIET,WRITEXIT
 0004F0 47E0 74AC            004E2  4025             +
 0004F4                             4031     425.              CLEAR (CLWOBUF,4)             QUIET!!
 0004F4 D703 A118 A118 00118 00118  4037             +
 0004FA 47F0 74A2            004D8  4038     426.              B     FILEXIT
                                    4039     427.
 0004FE 4110 0106            00106  4040     428.     REQABORT SEG   'Request aborted'
 000502 4590 7684            006BA  4042             +
 000506 47F0 7004            00004  4043     429.              B     4(,BR)
1VPS      (VPS00) (09:49) (22MAR04) ORVYL'S PROGRAM SERVICES PROCESSOR                                                      Page   30
0Current Usings:  (BASE,R7) (CLW,R10) (GPW,R12)
0Loc    Object Code    Addr1 Addr2  Stmt Lv Lineno    Source Statement           (Hibal 5, Asmedit 3.3)  HLASM R4.0  2004/03/22 09.49
+___    ______ ____    _____ _____  ____ __ ______    ______ _________
0                                   4045     431.     *
                                    4046     432.     ** MISCELLANEOUS SUBROUTINES
                                    4047     433.     *
 00050A                             4048     434.     DELETE   DS    0H                      DELETE CONTENTS OF FILE
 00050A 5090 D000            00000  4049     435.              VPUSH RAR,,*                  SAVE RETURN
 00050E 41D0 D004            00004  4051             +
 000512 4D90 75EE/0814       00624  4052     436.              FSCALL SENLREC                GET LAST RECORD
 000518 4770 74FC            00532  4056     437.              BNZ   DELETED                 NO BLOCKS (???)
 00051C 18E1                        4057     438.              LR    R14,R1                  SAVE LAST BLOCK IN R14
 00051E 4D90 75EE/0810       00624  4058     439.              FSCALL SENFREC                GET FIRST RECORD
 000524 18F1                        4062     440.              LR    R15,R1                  PUT IN R15
 000526 4D90 75EE/0808       00624  4063     441.              FSCALL DELLOTS                DELETE RANGE OF BLOCKS
 00052C 4D90 75EE/081C       00624  4067     442.              FSCALL FORCE                  FORCE IXR
 000532 4BD0 76FA            00730  4071     443.     DELETED  VPOP  RAR,,*                  RESTORE RETURN
 000536 5890 D000            00000  4073             +
 00053A 07F9                        4074     444.              BR    RAR                     EXIT
-                                   4076     446.     *
                                    4077     447.     ** (RE) INITIALIZE MONITOR BUFFER
                                    4078     448.     *
 00053C                             4079     449.     RESETBUF DS    0H
 00053C 9003 D000            00000  4080     450.              VPUSH R0,R3,*
 000540 41D0 D010            00010  4082             +
 000544 5800 C038            00038  4083     451.              L     R0,MONBUFA              START OF BUFFER
 000548 5000 C81C            0081C  4084     452.              ST    R0,MONBUFAD             SET NEXT SAMPLE LOCATION
 00054C 4110 07F8            007F8  4085     453.              LA    R1,2040                 LENGTH TO INITIALIZE
 000550 5820 C038            00038  4086     454.              L     R2,MONBUFA              GET START OF BUFFER
 000554 4121 2000            00000  4087     455.              LA    R2,@R2(R1)              GET END OF BUFFER
 000558 5020 C820            00820  4088     456.              ST    R2,MONBFEND             SAVE FOR LATER
 00055C 1B22                        4089     457.              CLEAR R2
 00055E 1B33                        4093     458.              CLEAR R3
 000560 0E02                        4097     459.              MVCL  R0,R2                   INITIALIZE BUFFER
 000562 4BD0 76FC            00732  4098     460.              VPOP  R0,R3,*
 000566 9803 D000            00000  4100             +
 00056A 07F9                        4101     461.              BR    RAR                     RETURN
1VPS      (VPS00) (09:49) (22MAR04) ORVYL'S PROGRAM SERVICES PROCESSOR                                                      Page   31
0Current Usings:  (BASE,R7) (CLW,R10) (GPW,R12)
0Loc    Object Code    Addr1 Addr2  Stmt Lv Lineno    Source Statement           (Hibal 5, Asmedit 3.3)  HLASM R4.0  2004/03/22 09.49
+___    ______ ____    _____ _____  ____ __ ______    ______ _________
0                                   4103     463.     *
                                    4104     464.     ** BUMP BUFFER POINTER AND WRITE RECORD IF BUFFER IS FULL
                                    4105     465.     *
                                    4106     466.     *  R1 POINTS TO LAST RECORD. RETURNS WITH R1 POINTING TO NEXT RECORD
                                    4107     467.     *  WRITEBUF IS ENTRY TO FLUSH BUFFER
000056C                             4109     469.     NEXTREC  DS    0H
 00056C 4110 1014            00014  4110     470.              LA    R1,@R1+L'SAMPLE         POINT TO NEXT RECORD
 000570 5010 C81C            0081C  4111     471.              ST    R1,MONBUFAD             UPDATE POINTER
 000574 5910 C820            00820  4112     472.              IF    (R1,GE,MONBFEND),BEGIN BUFFER IS FULL
 000578 4750 7598            005CE  4124             +
 00057C 58F0 C81C            0081C  4129  1  473.     WRITEBUF   L     R15,MONBUFAD            LAST BYTE + 1
 000580 5810 C038            00038  4130  1  474.                L     R1,MONBUFA              START OF BUFFER
 000584 1BF1                        4131  1  475.                SR    R15,R1                  COMPUTE LENGTH
 000586 47D0 7580            005B6  4132  1  476.                IF    P,BEGIN                IF SOMETHING TO WRITE,
 00058A 9120 C808      00808        4143  2  477.                  IF    MONSHARE,BEGIN         IF SHARED, PICK BLOCK NUM
 00058E 47E0 7566            0059C  4153  2          +
 000592 B205 A2E8      002E8        4158  3  478.                    STCK  CLWTEMP                 GET TIME OF DAY
 000596 1BEE                        4159  3  479.                    CLEAR R14
 000598 BFE3 A2EC            002EC  4163  3  480.                    ICM   R14,3,CLWTEMP+4         PICK SOME BITS
 00059C                             4164  2  481.                  END   ,
 00059C 756A           0059C 00590  4168  2  482.                  ELSE  'L R14,GPWBN'           USE NEXT BLOCK IF NOT SHARED
 00059C 47F0 756E            005A4  4173  2          +
 0005A0 58E0 C0C0            000C0  4180  2          +
 0005A4 1F00/4300 C08D       0008D  4185  2  483.                  WRITE IC:GPWFID,(R1),(R15),(R14) WRITE NEXT BLOCK
 0005AA 0AF6                        4207  2          +
 0005AC 0AF2                        4209  2  484.                  WAIT  (0)
 0005AE 50E0 C0C0            000C0  4217  2  485.                  ST    R14,GPWBN               SAVE NEXT BLOCK
 0005B2 4770 730E            00344  4218  2  486.                  BNZ   MONIOERR                ERROR ON FILE. STOP MONITORING
 0005B6                             4219  1  487.                END   ,
 0005B6 5090 D000            00000  4223  1  488.                VPUSH RAR,,*
 0005BA 41D0 D004            00004  4225  1          +
 0005BE 4D90 7506            0053C  4226  1  489.                LCALL RESETBUF                RE-INITIALIZE BUFFER
 0005C2 4BD0 76FA            00730  4228  1  490.                VPOP  RAR,,*
 0005C6 5890 D000            00000  4230  1          +
 0005CA 5810 C038            00038  4231  1  491.                L     R1,MONBUFA              START NEW BUFFER
 0005CE                             4232     492.              END   ,
 0005CE 07F9                        4236     493.              BR    RAR                     RETURN
1VPS      (VPS00) (09:49) (22MAR04) ORVYL'S PROGRAM SERVICES PROCESSOR                                                      Page   32
0Current Usings:  (BASE,R7) (CLW,R10) (GPW,R12)
0Loc    Object Code    Addr1 Addr2  Stmt Lv Lineno    Source Statement           (Hibal 5, Asmedit 3.3)  HLASM R4.0  2004/03/22 09.49
+___    ______ ____    _____ _____  ____ __ ______    ______ _________
0                                   4238     495.     *
                                    4239     496.     ** OUTPUT MAP INFORMATION
                                    4240     497.     *
 0005D0 5090 D000            00000  4241     498.     WRITEMAP VPUSH RAR,,*                  SAVE RETURN
 0005D4 41D0 D004            00004  4243             +
 0005D8 58B0 A250            00250  4244     499.              L     LCBR,CLWLNKP            SET UP LINK PAGE BASE
 0005DC 5890 76E6/0D99       0071C  4245     500.              VCALL LDSET                   INITIALIZE MAP SCAN
 0005E2 5830 C81C            0081C  4249     501.              L     TR,MONBUFAD             SET UP BUFFER POINTER
 USING  SAMPLE,R3                   4250     502.              USING SAMPLE,TR               ##
 0005E6 5890 76EA/0D99       00720  4259     503.     WRMAPLP  VCALL LDNEXT                  GET NEXT SYMBOL
 0005EC 4780 75E0            00616  4263     504.              BZ    WRMAPEND                THAT'S ALL
 0005F0 1200/47D0 75DC       00612  4264     505.              IF    (R0,P),BEGIN           IF SECTION (LENGTH >0)
 0005F6 5010 3010            00010  4278  1  506.                ST    R1,SAMPBASE             SET START ADDRESS
 0005FA D207 3004 F000 00004 00000  4279  1  507.                MVC   SAMPPROG,@R15           SET SYMBOL NAME
 000600 1A01                        4280  1  508.                AR    R0,R1                   COMPUTE END OF SECTION
 000602 5000 3000            00000  4281  1  509.                ST    R0,SAMPADDR             SET SAMPLE ADDRESS
 000606 92D4 3000      00000        4282  1  510.                MVI   SAMPTYPE,SAMPMAP        INDICATE MAP ENTRY
 00060A 1813                        4283  1  511.                LR    R1,TR                   SET R1 TO POINT TO SAMPLE
 00060C 4D90 7536            0056C  4284  1  512.                LCALL NEXTREC                 BUMP POINTER
 000610 1831                        4286  1  513.                LR    TR,R1                   SET NEW SAMPLE ADDRESS
 000612                             4287     514.              END   ,
 000612 47F0 75B0            005E6  4291     515.              B     WRMAPLP                 GO TO NEXT ENTRY
-000616 4D90 7546            0057C  4293     517.     WRMAPEND LCALL WRITEBUF                FLUSH BUFFER
 00061A 4BD0 76FA            00730  4295     518.              VPOP  RAR,,*                  RESTORE RETURN
 00061E 5890 D000            00000  4297             +
 000622 07F9                        4298     519.              BR    RAR                     EXIT
1VPS      (VPS00) (09:49) (22MAR04) ORVYL'S PROGRAM SERVICES PROCESSOR                                                      Page   33
0Current Usings:  (SAMPLE,R3) (BASE,R7) (CLW,R10) (GPW,R12)
0Loc    Object Code    Addr1 Addr2  Stmt Lv Lineno    Source Statement           (Hibal 5, Asmedit 3.3)  HLASM R4.0  2004/03/22 09.49
+___    ______ ____    _____ _____  ____ __ ______    ______ _________
0000624 9029 D000/188D       00000  4300     521.              FSCALL GOSUB
 00062A 41D0 D020            00020  4305             +
 00062E 5860 76EE/07F6       00724  4306             +
 000634                             4308     522.     SEG      DS    0H
 000634 5090 D000            00000  4309     523.              VPUSH RAR,,*                  SAVE RETURN ADDRESS
 000638 41D0 D004            00004  4311             +
 00063C 5890 76C2/0D99       006F8  4312     524.              VSEG  (1),(0)                 CALL SEG ROUTINE
 000642 4BD0 76FA            00730  4329     525.              VPOP  RAR,,*                  RESTORE RETURN REGISTER
 000646 5890 D000            00000  4331             +
 00064A 07F9                        4332     526.              BR    RAR                     RETURN TO CALLER
                                    4333     527.
 00064C 5090 D000            00000  4334     528.     MSG      VPUSH RAR,,*                  SEG, WRITE, AND RETURN
 000650 41D0 D004            00004  4336             +
 000654 4590 75FE            00634  4337     529.              SEG   (1),(0)
 000658 47F0 762E            00664  4351     530.              B     WRIT1
                                    4352     531.
 00065C 5090 D000            00000  4353     532.     WRITE    VPUSH RAR,,*                  SAVE RETURN
 000660 41D0 D004            00004  4355             +
 000664 5890 76E2/0D99       00718  4356     533.     WRIT1    VWRITE ,
 00066A 0777                        4361     534.              BNZR  BR                      ATTN OR ERROR
 00066C 4BD0 76FA            00730  4362     535.              VPOP RAR,,*
 000670 5890 D000            00000  4364             +
 000674 07F9                        4365     536.              BR    RAR                     NO ERROR
                                    4366     537.
 000676 909E D000            00000  4367     538.     SEGDC    VPUSH RAR,14,*
 00067A 41D0 D018            00018  4369             +
 00067E 4110 A2E8            002E8  4370     539.              BTD   CLWTEMP,(0),(15)
 000682 58E0 76BE/0DEE       006F4  4390             +
 000688 5890 76C2/0D99       006F8  4392     540.              VSEG  (1),(0)
 00068E 4BD0 76FE            00734  4409     541.              VPOP  RAR,14,*
 000692 989E D000            00000  4411             +
 000696 07F9                        4412     542.              BR    RAR
                                    4413     543.
 000698 909E D000            00000  4414     544.     SEGHX    VPUSH RAR,14,*
 00069C 41D0 D018            00018  4416             +
 0006A0 4110 A2E8            002E8  4417     545.              BTX   CLWTEMP,(0),(15)
 0006A4 58E0 76F2/0DEE       00728  4437             +
 0006AA 5890 76C2/0D99       006F8  4439     546.              VSEG  (1),(0)
 0006B0 4BD0 76FE            00734  4456     547.              VPOP  RAR,14,*
 0006B4 989E D000            00000  4458             +
 0006B8 07F9                        4459     548.              BR    RAR
                                    4460     549.
1VPS      (VPS00) (09:49) (22MAR04) ORVYL'S PROGRAM SERVICES PROCESSOR                                                      Page   34
0Current Usings:  (SAMPLE,R3) (BASE,R7) (CLW,R10) (GPW,R12)
0Loc    Object Code    Addr1 Addr2  Stmt Lv Lineno    Source Statement           (Hibal 5, Asmedit 3.3)  HLASM R4.0  2004/03/22 09.49
+___    ______ ____    _____ _____  ____ __ ______    ______ _________
00006BA 5090 D000            00000  4462     551.              GENMSGS ,
 0006BE 41D0 D004/1F00       00004  4466             +
 0006C4 4301 7700            00736  4471             +
 0006C8 4111 7701            00737  4472             +
 0006CC 5890 76C2/0D99       006F8  4488             +
 0006D2 4BD0 76FA            00730  4491             +
 0006D6 5890 D000/07F9       00000  4492             +
 0006DC 0000                        4495             +
 0006E0 00000000                    4497                             =V(TYPEIT)
 0006E4 00000036                    4498                             =A(BASE)
 0006E8 00000F00                    4499                             =F'3840'
 0006EC 00000180                    4500                             =F'384'
 0006F0 00000064                    4501                             =F'100'
 0006F4 00000000                    4502                             =V(BTD)
 0006F8 00000000                    4503                             =V(VSEG)
 0006FC 00003000                    4504                             =A(L'GPW)
 000700 00000000                    4505                             =V(FREECLW)
 000704 00000000                    4506                             =V(SCAN)
 000708 04000014                    4507                             =AL1(L'GPWUIFLR,0,0,20)
 00070C 0000000A                    4508                             =A(10)
 000710 00FFFFFF                    4509                             =A(4096*4096-1)
 000714 00000300                    4510                             =A(768)
 000718 00000000                    4511                             =V(VWRITE)
 00071C 00000000                    4512                             =V(LDSET)
 000720 00000000                    4513                             =V(LDNEXT)
 000724 00000000                    4514                             =V(FSUB#COM)
 000728 00000000                    4515                             =V(BTX)
 00072C F0F0                        4516                             =C'00'
 00072E 0F00                        4517                             =H'3840'
 000730 0004                        4518                             =Y(4)
 000732 0010                        4519                             =Y((R3+1-(R0)+16*((R0)/(R3+1))/((R0)/(R3+1)))*4)
 000734 0018           00736 00850  4520                             =Y((14+1-(RAR)+16*((RAR)/(14+1))/((RAR)/(14+1)))*4)
 000850                00850 00850  4555     552.              END   .

1VPS      (VPS00) (09:49) (22MAR04) Ordinary Symbol and Literal Cross Reference                                             Page   35
-Symbol   Length   Value     Id    R Type   Defn References                                  HLASM R4.0  2004/03/22 09.49
0$$$@R10       1 00000000 FFFFFFF4     J     839 1142
 $$$@R11       1 00000000 FFFFFFF3     J     852 1155
 $$$@R12       1 00000000 FFFFFFF2     J     865 1168
 $$$@R2        1 00000000 FFFFFFFC     J     735 1026
 $$$@R3        1 00000000 FFFFFFFB     J     748 1039
 $$$@R4        1 00000000 FFFFFFFA     J     761 1052
 $$$@R5        1 00000000 FFFFFFF9     J     774 1065  1077
 $$$@R6        1 00000000 FFFFFFF8     J     787 1090
 $$$@R7        1 00000000 FFFFFFF7     J     800 1103
 $$$@R8        1 00000000 FFFFFFF6     J     813 1116
 $$$@R9        1 00000000 FFFFFFF5     J     826 1129
 $$$C1VPS      1 00000054 00000001     J    2525 2527
 $$$C2VPS      1 00000736 00000001     J    4521 4523
 $$$C3VPS      1 00000850 00000001     J    4558 4560
 $$$RCLW       1 00000000 FFFFFFEE     J    1209 1516  1516
 $$$Z1         4 000006DC 00000001     F    4495 2880
 $$$42B        1 00000020 00000001     X    2477 2484U
 $$$43B        1 00000078 00000001     X    2574 2584U
 $$$44F        2 0000010A 00000001     H    2770 2731B
 $$$46F        2 0000010A 00000001     H    2766 2756B
 $$$50F        2 00000188 00000001     H    2970 2940B
 $$$52B        4 000001B0 00000001     I    3032 3048
 $$$52F        2 000001BA 00000001     H    3045 3032B 3047
 $$$53E        2 000001BE 00000001     H    3055 3049
 $$$53F        2 000001C4 00000001     H    3065 3051B
 $$$58F        2 0000022C 00000001     H    3208 3198B
 $$$59F        2 0000023C 00000001     H    3230 3220B
 $$$60F        2 00000248 00000001     H    3261 3246B
 $$$61F        2 00000264 00000001     H    3290 3279B
 $$$62B        1 000002AC 00000001     X    3348 3358U
 $$$63F        2 000002C0 00000001     H    3399 3383B
 $$$64B        4 000002E6 00000001     I    3437 3451
 $$$64F        2 000002EE 00000001     H    3448 3437B 3450
 $$$65E        2 000002F2 00000001     H    3458 3452
 $$$65F        2 0000030C 00000001     H    3506 3454B
 $$$66F        2 00000306 00000001     H    3482 3472B
 $$$67F        2 00000352 00000001     H    3562 3549B
 $$$68B        1 0000036A 00000001     X    3587 3597U
 $$$69F        2 0000037E 00000001     H    3633 3622B
 $$$76F        2 000005CE 00000001     H    4235 4124B
 $$$77F        2 000005B6 00000001     H    4222 4138B
 $$$78B        4 0000058E 00000001     I    4153 4170
 $$$78F        2 0000059C 00000001     H    4167 4153B 4169
 $$$79E        2 000005A0 00000001     H    4177 4171
 $$$79F        2 000005A4 00000001     H    4184 4173B
 $$$80F        2 00000612 00000001     H    4290 4273B
 #VPSA1M       1 00000736 00000001     R    4527 2605
 #VPSA1T      31 00000737 00000001     C    4528 4527
 #VPSA2M       1 00000756 00000001     R    4529 2678
 #VPSA2T       1 00000757 00000001     C    4530 4529
 #VPSA3M       1 00000758 00000001     R    4531 2718
 #VPSA3T       9 00000759 00000001     C    4532 4531
 #VPSA4M       1 00000762 00000001     R    4533 2797
 #VPSA4T      22 00000763 00000001     C    4534 4533
 #VPSA5M       1 00000779 00000001     R    4535 2834
1VPS      (VPS00) (09:49) (22MAR04) Ordinary Symbol and Literal Cross Reference                                             Page   36
 #VPSA5T      46 0000077A 00000001     C    4536 4535
 #VPSA6M       1 000007A8 00000001     R    4537 3517
 #VPSA6T      18 000007A9 00000001     C    4538 4537
 #VPSA7M       1 000007BB 00000001     R    4539 3522
 #VPSA7T      23 000007BC 00000001     C    4540 4539
 #VPSA8M       1 000007D3 00000001     R    4541 3527
 #VPSA8T      17 000007D4 00000001     C    4542 4541
 #VPSA9M       1 000007E5 00000001     R    4543 3531
 #VPSA9T      43 000007E6 00000001     C    4544 4543
 #VPSB0M       1 00000811 00000001     R    4545 3955
 #VPSB0T      16 00000812 00000001     C    4546 4545
 #VPSB1M       1 00000822 00000001     R    4547 3960
 #VPSB1T      15 00000823 00000001     C    4548 4547
 #VPSB2M       1 00000832 00000001     R    4549 3980
 #VPSB2T       9 00000833 00000001     C    4550 4549
 #VPSB3M       1 0000083C 00000001     R    4551 4041
 #VPSB3T      15 0000083D 00000001     C    4552 4551
 @R0           0 00000000 FFFFFFFE     @     710  986U
 @R1           0 00000000 FFFFFFFD     @     723  982U 3093  3421U 4110
 @R10          0 00000000 FFFFFFF4     @     840  946U
 @R11          0 00000000 FFFFFFF3     @     853  942U
 @R12          0 00000000 FFFFFFF2     @     866  938U
 @R13          0 00000000 FFFFFFF1     @     879  934U
 @R14          0 00000000 FFFFFFF0     @     892  930U
 @R15          0 00000000 FFFFFFEF     @     905  926U 3752  3762  4279
 @R2           0 00000000 FFFFFFFC     @     736  978U 4087
 @R3           0 00000000 FFFFFFFB     @     749  974U
 @R4           0 00000000 FFFFFFFA     @     762  970U
 @R5           0 00000000 FFFFFFF9     @     775  966U
 @R6           0 00000000 FFFFFFF8     @     788  962U
 @R7           0 00000000 FFFFFFF7     @     801  958U 2494U 2581U 2594U 3355U 3368U 3594U 3607U
 @R8           0 00000000 FFFFFFF6     @     814  954U
 @R9           0 00000000 FFFFFFF5     @     827  950U
 APPEND        2 00000498 00000001     H    3900 3747
 ATTACHOK      2 0000020C 00000001     H    3171 3082B 3092B 3156B
 ATTNOASK      2 000001FA 00000001     H    3145 3110B
 BASE          1 00000036 00000001     U    2507 2497U 2524  2597U 3371U 3610U 4498
 BR            7 00000007 00000001 A   #    1097 2486M 2497U 2586M 2597U 3360M 3371U 3570  3599M 3610U 3957B 3962B 3982B
                                                 4043B 4361B
 BRR           6 00000006 00000001 A   #    1084 2501  4306M 4307B
 BTD           1 00000000 00000005     T    4502 4502
 BTX           1 00000000 0000000D     T    4515 4515
 CLW        1560 00000000 FFFFFFEE     J    1516 2463U
 CLWACCT       6 000003B0 FFFFFFEE     C    1502 1503  1504
 CLWDOTIM     32 0000020B FFFFFFEE         1397 3302M
 CLWFGPW      64 00000208 FFFFFFEE         1262 3310M
 CLWFL         1 00000207 FFFFFFEE     R    1233 1237  1242  1247
 CLWFLG        1 00000208 FFFFFFEE     R    1253 1257  1262  1267  1272  1277  1282  1287
 CLWFMWP     128 0000020B FFFFFFEE         1387 3324M 3382  3621  3684M
 CLWFPRGL     64 0000020B FFFFFFEE         1392 2921  3330M 3394M 3548  3650M
 CLWGPWP       4 00000254 FFFFFFEE     A    1446 3317M 3317
 CLWKWCB       4 000002C4 FFFFFFEE     F    1478 1489  2985
 CLWLNKP       4 00000250 FFFFFFEE     A    1445 4244
 CLWMFL        1 0000020A FFFFFFEE     R    1338 1342  1347  1352  1357  1362  1367  1372  1377
 CLWMONF       1 0000020B FFFFFFEE     R    1383 1387  1392  1397  1402
 CLWMONP       4 00000258 FFFFFFEE     A    1447 2930  2966M 2966  3318M 3400  3627  3691M 3691
 CLWNTRAP      1 00000008 FFFFFFEE A   N    1460 1461
 CLWOBUF       2 00000118 FFFFFFEE     H    1227 1229  4037M 4037
 CLWPFL        1 00000209 FFFFFFEE     R    1293 1297  1302  1307  1312  1317  1322  1327  1332
1VPS      (VPS00) (09:49) (22MAR04) Ordinary Symbol and Literal Cross Reference                                             Page   37
 CLWPFPIC     32 00000209 FFFFFFEE         1307 2902  2902
 CLWPFPL      64 00000209 FFFFFFEE         1302 2902  2902  2903
 CLWPROGN      8 00000248 FFFFFFEE     C    1444 3265
 CLWQRET       4 00000358 FFFFFFEE     F    1497 2501M
 CLWR         10 0000000A 00000001 A   #    1136 2463U
 CLWSBPSW      8 00000368 FFFFFFEE     D    1500 3413
 CLWSFL        1 0000020C FFFFFFEE     R    1408 1412  1417
 CLWTEMP       8 000002E8 FFFFFFEE     D    1491 2655  2699  2704M 4158M 4163  4387  4434
 CLWTIME       2 00000236 FFFFFFEE     H    1438 2629M 2720
 CLWTIMER      4 0000022C FFFFFFEE     A    1434 3296M 3493
 CLWTIVAL      2 00000232 FFFFFFEE     H    1436 2722  2747  2880
 CLWTMAX       2 00000234 FFFFFFEE     H    1437 2721
 CLWUPST       4 0000001C FFFFFFEE     A    1219 3266
 CPUTIME       2 00000470 00000001     H    3806 3731  3737
 DELETE        2 0000050A 00000001     H    4048 3163B
 DELETED       4 00000532 00000001     I    4072 4056B
 ENDPROGL      2 00000386 00000001     H    3640 3444B 3571B 3629B
 EXIT          2 0000003E 00000001     H    2513 2510B
 FILEXIT       2 000004D8 00000001     H    3983 2533B 3331B 4011B 4038B
 FREECLW       1 00000000 00000007     T    4505 4505
 FSUB#COM      1 00000000 0000000C     T    4514 4514
 GOSUB         2 00000624 00000001     H    4301 2504B 3014B 3040B 3060B 3068B 3090B 3118B 3181B 3557B 3676B 3986B 4054B
                                                 4060B 4065B 4069B
 GOTNKWR       1 00000000 00000002     T    3716 3721
 GPW       12288 00000000 FFFFFFED     X    2389 2395  2542U 4504
 GPWAFILE    158 0000012C FFFFFFED     X    2361 2379
 GPWBLK        2 0000001A FFFFFFED     R    1868 1869
 GPWBN         4 000000C0 FFFFFFED     A    2035 3094M 3170M 3170  4180  4217M
 GPWBUF     8192 00001000 FFFFFFED     X    2388 2396
 GPWBUFA       4 00000038 FFFFFFED     A    1885 1887
 GPWDSECT      1 00000000 FFFFFFED     J    1535 2394
 GPWFANW      32 00000001 FFFFFFED         1583 3021M
 GPWFAPP      64 00000003 FFFFFFED         1665 3106  3106  3133  3133  3877  3924M
 GPWFCB      158 0000008C FFFFFFED     X    2356 2361  2379
 GPWFERS     128 00000003 FFFFFFED         1647 3106  3106  3107  3133  3133  3134  3153  3891M 3910
 GPWFFMT      16 0000008C FFFFFFED         1932 3178M
 GPWFID        1 0000008D FFFFFFED     X    1951 4193
 GPWFILE       4 0000008C FFFFFFED     F    1906 2356  2356
 GPWFILN      44 000000C4 FFFFFFED     C    2037 2038  2039  2040  2041
 GPWFNEW      32 0000008C FFFFFFED         1927 3079
 GPWFNL        1 0000008E FFFFFFED     X    1952 3003
 GPWFQIET      4 00000001 FFFFFFED         1598 4022
 GPWFWDS       4 0000001C FFFFFFED     A    1870 1876
 GPWGFL        1 00000000 FFFFFFED     R    1539 1543  1548  1553  1558  1563
 GPWGPFL       1 00000006 FFFFFFED     R    1813 1817  1822  1827  1832  1837  1842  1847  1852
 GPWHXBUF   2048 00000800 FFFFFFED     X    2387 2398
 GPWKWFL       1 00000003 FFFFFFED     R    1639 1647  1656  1665  1674  1683  1692  1701  1710  1719  1728  1737  1746
                                                 1755
 GPWLFLAG      1 000000B4 FFFFFFED     R    1971 1975  1980  1985  1990  1995  2000  2005  2010
 GPWLMF1       1 000000A0 FFFFFFED     X    1959 1961  1961  1965  1965
 GPWLMN        8 00000090 FFFFFFED     C    1957 1964  1964
 GPWLWDS       4 00000020 FFFFFFED     A    1871 1877
 GPWPERM       1 00000005 FFFFFFED     X    1804 1805  1806  1807  1808  1809
 GPWPFFL       1 0000008C FFFFFFED     R    1913 1917  1922  1927  1932  1937  1942  1947
 GPWPRFL       1 00000001 FFFFFFED     R    1569 1573  1578  1583  1588  1593  1598  1603
 GPWPRFL2      1 00000002 FFFFFFED     R    1609 1613  1618  1623  1628  1633
 GPWR         12 0000000C 00000001 A   #    1162 2542U 3318  3400M 3627M 3697
 GPWRBL        2 00000036 FFFFFFED     R    1882 1883
 GPWSFFL       1 00000004 FFFFFFED     R    1761 1765  1770  1775  1780  1785  1790  1795  1800
1VPS      (VPS00) (09:49) (22MAR04) Ordinary Symbol and Literal Cross Reference                                             Page   38
 GPWSTART      8 00000000 FFFFFFED     D    1536 2382  2382  2385  2389  2389
 GPWSUSER      3 00000013 FFFFFFED     C    1862 1864  1864
 GPWTST        1 000001D4 FFFFFFED     U    2384 2386
 GPWUIFLR      4 000000B8 FFFFFFED         2023 4507
 GPWUIFMT      1 000000B8 FFFFFFED     R    2017 2018  2019  2020  2021  2022  2023  2024  2025  2026  2027  2028
 GPWUINFO      4 000000B8 FFFFFFED     F    2016 3172M
 HIBAL         1 00000000 FFFFFFFF     J     695  711   724   737   750   763   776   789   802   815   828   841   854
                                                  867   880   893   906
 INTERVAL      4 0000044A 00000001     I    3751 3723
 KWFNOPT       1 00000000 00000003     T    3717 3739
 LCBR         11 0000000B 00000001 A   #    1149 4244M
 LDNEXT        1 00000000 0000000B     T    4513 4513
 LDSET         1 00000000 0000000A     T    4512 4512
 MISFILNM      4 0000032C 00000001     I    3527 3006B
 MISSING       4 000004BC 00000001     I    3960 3751B 3761B 3937B
 MONBFEND      4 00000820 FFFFFFED     A    2430 4088M 4123
 MONBUFA       4 00000038 FFFFFFED     A    1887 4083  4086  4130  4231
 MONBUFAD      4 0000081C FFFFFFED     A    2429 3403  3569M 3569  4084M 4111M 4129  4249
 MONCLEAR     36 00000800 FFFFFFED     X    2431 2551M 2551
 MONCLRST      8 00000800 FFFFFFED     D    2399 2431  2431
 MONFLAGS      1 00000808 FFFFFFED     R    2404 2408  2413  2418  2423
 MONINTVL      4 00000800 FFFFFFED     A    2400 3197M 3197  3204M 3292  3752M
 MONIOERR      2 00000344 00000001     H    3538 4218B
 MONNOMAP     16 00000808 FFFFFFED         2423 3278  3858M
 MONNSAMP      4 00000804 FFFFFFED     A    2401 3219M 3219  3226M 3303  3762M
 MONPBASE      4 00000818 FFFFFFED     A    2428 3266M 3415
 MONPRGNM      8 00000810 FFFFFFED     C    2427 3265M 3414
 MONSAMPL      4 0000080C FFFFFFED     A    2426 3303M 3425  3460M
 MONSHARE     32 00000808 FFFFFFED         2418 3031  3843M 4152
 MONTCPU     128 00000808 FFFFFFED         2408 3244  3244  3245  3257M 3471  3781  3828M
 MONTREAL     64 00000808 FFFFFFED         2413 3244  3244  3795M 3814
 NEXTREC       2 0000056C 00000001     H    4109 3424B 4285B
 NOCHANGE      4 00000320 00000001     I    3522 2924B
 NOMAP         2 00000484 00000001     H    3854 3735
 NOPROG        4 00000314 00000001     I    3517 2906B
 OSFDSORG      1 000000FF FFFFFFED     R    2105 2113  2122  2131  2141
 OSFFDISP      1 000000FE FFFFFFED     R    2054 2062  2071  2080  2089  2099
 OSFFLAG       1 00000107 FFFFFFED     R    2298 2306  2315  2324  2333  2343
 OSFPBDS       4 000000C4 FFFFFFED     F    2047 2354  2354
 OSFRECFM      1 00000100 FFFFFFED     R    2147 2155  2164  2173  2182  2191  2200  2209  2219
 OSFSPTYP      1 00000106 FFFFFFED     R    2229 2237  2246  2255  2264  2273  2282  2292
 PMEXIT        2 0000030C 00000001     I    3509 3395B
 PRGLOPTS      4 000003C4 00000001     F    3719 2978
 PROGLOOK      2 00000154 00000001     H    2867 2555B
 PROGMON       4 000002A0 00000001     I    3340 3338
 PROGSERV      4 00000014 00000001     I    2469 2467
 RAR           9 00000009 00000001 A   #    1123 2504M 2531M 2532M 2532B 2606M 2675M 2676M 2676B 2679M 2716M 2719M 2795M
                                                 2798M 2800M 2832M 2835M 2837M 2958M 2959M 2959B 3014M 3040M 3060M 3068M
                                                 3090M 3118M 3163M 3181M 3268M 3286M 3424M 3444M 3518M 3523M 3528M 3532M
                                                 3557M 3570M 3629M 3642  3673M 3676M 3705M 3706M 3706B 3709M 3710B 3953M
                                                 3956M 3961M 3978M 3981M 3986M 4004M 4009M 4010M 4010B 4042M 4050  4054M
                                                 4060M 4065M 4069M 4073M 4074B 4101B 4224  4227M 4230M 4236B 4242  4247M
                                                 4248M 4248B 4261M 4262M 4262B 4285M 4294M 4297M 4298B 4303  4305  4305
                                                 4305  4310  4327M 4328M 4328B 4331M 4332B 4335  4350M 4354  4359M 4360M
                                                 4360B 4364M 4365B 4368  4369  4369  4369  4407M 4408M 4408B 4411M 4412B
                                                 4415  4416  4416  4416  4454M 4455M 4455B 4458M 4459B 4465  4488M 4489M
                                                 4489B 4492M 4493B 4520  4520  4520
 REALTIM       2 00000462 00000001     H    3773 3729
 REPLACE       2 0000048A 00000001     H    3867 3741  3743  3745
1VPS      (VPS00) (09:49) (22MAR04) Ordinary Symbol and Literal Cross Reference                                             Page   39
 REQABORT      4 000004FE 00000001     I    4041 3137B
 RESETBUF      2 0000053C 00000001     H    4079 3268B 4227B
 R0            0 00000000 FFFFFFFF A   #     703 3292M 3294M 3295M 3461M 3478M 4081  4082  4082  4082  4083M 4084  4097M
                                                 4100M 4272M 4272  4280M 4281  4471M 4519  4519  4519
 R1            1 00000001 FFFFFFFF A   #     716 2721M 2730M 2730  2740  2746M 2755  2762  2809M 2930M 2939M 2939  3093M
                                                 3094  3291M 3293M 3296  3403M 3411U 3425M 3427M 3436M 3436  3460  4057
                                                 4062  4085M 4087  4110M 4111  4123  4130M 4131  4231M 4278  4280  4283M
                                                 4286  4472M
 R11          11 0000000B FFFFFFFF A   #     846 2469  2471  2471  2471  2519M 2566  2568  2568  2568  2804M 2841M 3340
                                                 3342  3342  3342  3510M 3579  3581  3581  3581  3637M
 R14          14 0000000E FFFFFFFF A   #     885 4057M 4162M 4162  4163M 4180M 4217
 R15          15 0000000F FFFFFFFF A   #     898 2514M 2626  2630  4062M 4129M 4131M
 R2            2 00000002 FFFFFFFF A   #     729 4086M 4087M 4088  4092M 4092  4097M
 R3            3 00000003 FFFFFFFF A   #     742 4081  4082  4082  4082  4096M 4096  4100M 4519  4519  4519
 SAMPADDR      4 00000000 FFFFFFEC     A    2437 2438  3413M 4281M
 SAMPBASE      4 00000010 FFFFFFEC     A    2444 3415M 4278M
 SAMPDSCT      1 00000000 FFFFFFEC     J    2436 2445  2445
 SAMPLE       20 00000000 FFFFFFEC     U    2445 3411U 4110  4257U
 SAMPLES       4 00000456 00000001     I    3761 3726
 SAMPMAP       1 000000D4 FFFFFFEC A   U    2441 4282
 SAMPPROG      8 00000004 FFFFFFEC     C    2442 3414M 4279M
 SAMPTYPE      1 00000000 FFFFFFEC     U    2438 4282M
 SCAN          1 00000000 00000008     T    4506 4506
 SCRET         2 000004A6 00000001     I    3936 2990B
 SEG           2 00000634 00000001     H    4308 2716B 3953B 3978B 4004B 4350B
 SETUPRTN      2 0000005E 00000001     H    2544 2506B
 SHARED        2 0000047E 00000001     H    3839 3733
 SR            2 00000002 00000001 A   #    1020 2469  2471  2471  2471  2499M 2514  2519M 2566  2568  2568  2568  2627M
                                                 2627  2628M 2631M 2631  2632M 2633M 2633  2634M 2685  2722M 2747M 2755
                                                 2762M 2771M 2784  2804M 2841M 3340  3342  3342  3342  3510M 3579  3581
                                                 3581  3581  3637M 4303  4305  4305  4305
 STOPMON       4 0000035E 00000001     I    3579 3577
 TIMEOUT       4 0000006C 00000001     I    2566 2564
 TIMERERR      4 00000338 00000001     I    3531 2883B
 TLOGOFF       2 00000130 00000001     H    2808 2741B
 TR            3 00000003 00000001 A   #    1033 2500M 2515  2554B 2626M 2629  2630M 2641  2720M 2740  2746  4249M 4257U
                                                 4283  4286M
 TYPEIT        1 00000000 00000004     T    4497 4497
 TYPERR        4 00000054 00000001     I    2531 2511B
 UNREC         2 000004C8 00000001     H    3972 3749  3784B 3817B 3880B 3913B
 VPS           1 00000000 00000001     J     994  996  1028  1041  1054  1067  1079  1092  1105  1118  1131  1144  1157
                                                 1170  1517  2450
 VPS#SEG       2 000006BA 00000001     H    4463 2606B 2679B 2719B 2798B 2835B 3518B 3523B 3528B 3532B 3956B 3961B 3981B
                                                 4042B
 VPSMORG       1 00000736 00000001     U    4524 2605  2678  2718  2797  2834  3517  3522  3527  3531  3955  3960  3980
                                                 4041  4471  4472
 VPS00         1 00000000 00000001     R    1003 1001
 VSEG          1 00000000 00000006     T    4503 4503
 VWRITE        1 00000000 00000009     T    4511 4511
 WAR           8 00000008 00000001 A   #    1110 2501
 WRITE         4 0000065C 00000001     I    4354 2795B 2800B 2832B 2837B
 WRITEBUF      4 0000057C 00000001     I    4129 3673B 4294B
 WRITEMAP      4 000005D0 00000001     I    4242 3286B
 WRITEXIT      2 000004E2 00000001     H    4005 3519B 3524B 3529B 3533B 4025B
 WRIT1         4 00000664 00000001     I    4359 4351B
 WRMAPEND      4 00000616 00000001     I    4294 4263B
 WRMAPLP       4 000005E6 00000001     I    4261 4291B
 =A(BASE)      4 00000050 00000001     A    2524 2486
 =A(BASE)      4 000006E4 00000001     A    4498 2586  3360  3599
1VPS      (VPS00) (09:49) (22MAR04) Ordinary Symbol and Literal Cross Reference                                             Page   40
 =A(L'GPW)
               4 000006FC 00000001     A    4504 2955  3702
 =A(10)        4 0000070C 00000001     A    4508 3204  3293  3295
 =A(4096*4096-1)
               4 00000710 00000001     A    4509 3226
 =A(768)       4 00000714 00000001     A    4510 3291
 =AL1(L'GPWUIFLR,0,0,20)
               1 00000708 00000001     R    4507 3172
 =C'00'        2 0000072C 00000001     C    4516 2704
 =F'100'       4 000006F0 00000001     F    4501 2634
 =F'384'       4 000006EC 00000001     F    4500 2632
 =F'3840'      4 000006E8 00000001     F    4499 2628
 =H'3840'      2 0000072E 00000001     H    4517 2771
 =V(BTD)       4 000006F4 00000001     V    4502 2658  2702  4390
 =V(BTX)       4 00000728 00000001     V    4515 4437
 =V(FREECLW)
               4 00000700 00000001     V    4505 2958  3705
 =V(FSUB#COM)
               4 00000724 00000001     V    4514 4306
 =V(LDNEXT)
               4 00000720 00000001     V    4513 4261
 =V(LDSET)
               4 0000071C 00000001     V    4512 4247
 =V(SCAN)      4 00000704 00000001     V    4506 2988
 =V(TYPEIT)
               4 000006E0 00000001     V    4497 2531
 =V(VSEG)      4 000006F8 00000001     V    4503 2675  4327  4407  4454  4488
 =V(VWRITE)
               4 00000718 00000001     V    4511 4009  4359
 =Y((R3+1-(R0)+16*((R0)/(R3+1))/((R0)/(R3+1)))*4)
               2 00000732 00000001     Y    4519 4099
 =Y((14+1-(RAR)+16*((RAR)/(14+1))/((RAR)/(14+1)))*4)
               2 00000734 00000001     Y    4520 4410  4457
 =Y(4)         2 00000730 00000001     Y    4518 3708  4072  4229  4296  4330  4363  4491

1VPS      (VPS00) (09:49) (22MAR04) Macro and Copy Code Source Summary                                                      Page   41
- Con Source                                        Volume    Members                        HLASM R4.0  2004/03/22 09.49
0     PRIMARY INPUT                                           BTD      BTX      CSECT    DROP     END      EX
                                                              LTORG    POP      PRINT    PUSH     START    USING
   L2 WYL.GG.SYS.MACLIB                             SYSB05    $BC      $BFLKUP  $BV      $CCLKUP  $CRS     $CSS     $L
                                                              $LA      $LBLAD   $LEXP    $LOR     $REL     $RGLKUP
                                                              $USLKUP  BASE     BEGIN    CLEAR    CSECT    DECR
                                                              DEFCC    DROP     ELSE     END      EX       FLAG     GEN
                                                              HIBAL    IDENT    IF       LABEL    LC       LCALL    LS
                                                              LTORG    POP      PRINT    PUSH     RECORD   REG      REGS
                                                              SET      SETMSG   START    SYSLR    SYSQS    USING
                                                              VCALL
   L3 WYL.GG.ORV.BC.MACLIB                          SYSB02    CLW      FREECLW  FSCALL   GENMSGS  GPW      ORVDEFN
                                                              OSFPB    SCAN     SCANCB   SCKW     SCRTN    SEG
                                                              SEGDC    VENTER   VEXIT    VPOP     VPSTAB   VPUSH
                                                              VREST    VSAVE    VSEG     VWRITE   WYLMDWD  XCALL
   L4 SYS3.ORVYL.UMACLIB                            SYSB02    CALLSYS  SENSE    SYSKWT   VSET     WAIT     WRITE
   L5 SYS3.IS.MACLIB                                SYSB05    SYSDEFN

1         (VPS00) (09:49) (22MAR04) General Purpose Register Cross Reference                                                Page   42
- Register  References (M=modified, B=branch, U=USING, D=DROP, N=index)                      HLASM R4.0  2004/03/22 09.49
0    0(0)     986U  987D 2499  2515M 2614M 2648M 2692M 2779M 2817M 3292M 3294M 3295M 3461M 3478M 3658M 3936M 3936  4081
             4083M 4084  4097M 4100M 4192M 4192  4193M 4272M 4272  4280M 4281  4470M 4470  4471M
     1(1)     982U 2605M 2655M 2678M 2699M 2718M 2721M 2730M 2730  2740  2746M 2755  2762  2784M 2797M 2809M 2834M 2930M
             2939M 2939  2978M 3093M 3094  3291M 3292M 3293M 3294M 3295M 3296  3403M 3411U 3421U 3425M 3427M 3436M 3436
             3460  3493M 3517M 3522M 3527M 3531M 3662M 3662  3697M 3955M 3960M 3980M 4041M 4057  4062  4081  4085M 4087N
             4097M 4100M 4110M 4111  4123  4130M 4131  4231M 4278  4280  4283M 4286  4387M 4434M 4471N 4472M 4472N
     2(2)     978U 2469  2499M 2514  2519M 2566  2627M 2627  2628M 2631M 2631  2632M 2633M 2633  2634M 2685  2722M 2747M
             2755  2762M 2771M 2784  2804M 2841M 3340  3510M 3579  3637M 4081  4086M 4087M 4088  4092M 4092  4097M 4100M
             4303
     3(3)     974U 2469  2500M 2515  2519M 2554N 2566  2626M 2628M 2629  2630M 2632M 2634M 2641  2720M 2740  2746  2804M
             2841M 3340  3510M 3579  3637M 4081  4096M 4096  4097M 4100M 4249M 4257U 4283  4286M 4303
     4(4)     970U 2469  2519M 2566  2804M 2841M 3340  3510M 3579  3637M 4303
     5(5)     966U 2469  2519M 2566  2804M 2841M 3340  3510M 3579  3637M 4303
     6(6)     962U 2469  2501  2519M 2566  2804M 2841M 3340  3510M 3579  3637M 4303  4306M 4307B
     7(7)     958U 2469  2474M 2484U 2486M 2494U 2497U 2501  2519M 2566  2571M 2581U 2584U 2586M 2594U 2597U 2804M 2841M
             3340  3345M 3355U 3358U 3360M 3368U 3371U 3510M 3570  3579  3584M 3594U 3597U 3599M 3607U 3610U 3637M 3957
             3962  3982  4043  4303  4361B
     8(8)     954U 2469  2470M 2501  2518  2519M 2566  2567M 2803  2804M 2840  2841M 3340  3341M 3509  3510M 3579  3580M
             3636  3637M 4303  4304M
     9(9)     950U 2469  2504M 2519M 2521B 2531M 2532M 2532B 2566  2606M 2675M 2676M 2676B 2679M 2716M 2719M 2795M 2798M
             2800M 2804M 2806B 2832M 2835M 2837M 2841M 2843B 2958M 2959M 2959B 3014M 3040M 3060M 3068M 3090M 3118M 3163M
             3181M 3268M 3286M 3340  3424M 3444M 3510M 3511B 3518M 3523M 3528M 3532M 3557M 3570M 3579  3629M 3637M 3638B
             3642  3673M 3676M 3705M 3706M 3706B 3709M 3710B 3953M 3956M 3961M 3978M 3981M 3986M 4004M 4009M 4010M 4010B
             4042M 4050  4054M 4060M 4065M 4069M 4073M 4074B 4101B 4224  4227M 4230M 4236B 4242  4247M 4248M 4248B 4261M
             4262M 4262B 4285M 4294M 4297M 4298B 4303  4310  4327M 4328M 4328B 4331M 4332B 4335  4350M 4354  4359M 4360M
             4360B 4364M 4365B 4368  4407M 4408M 4408B 4411M 4412B 4415  4454M 4455M 4455B 4458M 4459B 4465  4488M 4489M
             4489B 4492M 4493B
    10(A)     946U 2463U 2469  2519M 2566  2804M 2841M 3340  3510M 3579  3637M 4368  4411M 4415  4458M
    11(B)     942U 2469  2519M 2566  2804M 2841M 3340  3510M 3579  3637M 4244M 4368  4411M 4415  4458M
    12(C)     938U 2542U 3318  3400M 3627M 3697  4368  4411M 4415  4458M
    13(D)     934U 2469  2470  2471M 2471  2518M 2519  2566  2567  2568M 2568  2803M 2804  2840M 2841  3340  3341  3342M
             3342  3509M 3510  3579  3580  3581M 3581  3636M 3637  3642  3643M 3643  3708M 3709  4050  4051M 4051  4072M
             4073  4081  4082M 4082  4099M 4100  4224  4225M 4225  4229M 4230  4242  4243M 4243  4296M 4297  4303  4304
             4305M 4305  4310  4311M 4311  4330M 4331  4335  4336M 4336  4354  4355M 4355  4363M 4364  4368  4368  4369M
             4369  4410M 4411M 4411  4415  4415  4416M 4416  4457M 4458M 4458  4465  4466M 4466  4491M 4492
    14(E)     930U 2658M 2659M 2659B 2702M 2703M 2703B 2988M 2989M 2989B 3759B 3769B 3802B 3835B 3850B 3865B 3898B 3931B
             4057M 4162M 4162  4163M 4180M 4217  4368  4390M 4391M 4391B 4411M 4415  4437M 4438M 4438B 4458M
    15(F)     926U 2500  2514M 2520M 2520  2626  2630  2641M 2685M 2805M 2805  2842M 2842  2955M 2985M 3702M 4062M 4129M
             4131M

1VPS      (VPS00) (09:49) (22MAR04) Diagnostic Cross Reference and Assembler Summary                                        Page   43
-                                                                                            HLASM R4.0  2004/03/22 09.49
0     No Statements Flagged in this Assembly
 HIGH LEVEL ASSEMBLER, 5696-234, RELEASE 4.0, PTF UQ57391
0SYSTEM: OS/390 02.10.00            JOBNAME: PJG#VPS     STEPNAME: ASM        PROCSTEP: (NOPROC)
0Datasets Allocated for this Assembly
  Con DDname   Dataset Name                                 Volume  Member
   P1 SYSIN    SYS04082.T094917.RA000.PJG#VPS.INPUT.H01     SCR100
   L1 SYSLIB   SYS3.DUMMYMAC                                SYSB02
   L2          WYL.GG.SYS.MACLIB                            SYSB05
   L3          WYL.GG.ORV.BC.MACLIB                         SYSB02
   L4          SYS3.ORVYL.UMACLIB                           SYSB02
   L5          SYS3.IS.MACLIB                               SYSB05
      SYSLIN   WYL.GG.PJG.OBJ                               SYSB05  VPS
      SYSPRINT SYS04082.T094917.RA000.PJG#VPS.PRINT.H01     SCR101
      SYSTERM  GG$PJG.PJG#VPS.JOB05998.D0000103.?

    7812K allocated to Buffer Pool,          813K would be required for this to be an In-Storage Assembly
     552 Primary Input Records Read         4100 Library Records Read                  0 Work File Reads
       0 ASMAOPT Records Read               2860 Primary Print Records Written         0 Work File Writes
      54 Punch Records Written                 0 ADATA Records Written
0Assembly Start Time: 09.49.19 Stop Time: 09.49.23 Processor Time: 00.00.00.9995
 Return Code 000
