1GSTINTF  (GSTI00) (09:40) (22MAR04) IHAPSAE  - PSA Extension (ESAME)                                                       Page  269
0Current Usings:  (CPUB,R7) (DTWTO,R10) (INTERP-72,R12) (@MEMGET-72,R13)
0Loc    Object Code    Addr1 Addr2  Stmt Lv Lineno    Source Statement           (Hibal 5, Asmedit 3.3)  HLASM R4.0  2004/03/22 09.40
+___    ______ ____    _____ _____  ____ __ ______    ______ _________
0007A52 1824                       50216    6073.              LR    RA,RJ                   Buffer area
 007A54 4110 C050            00000 50217    6074.              LA    RS,WTOADDRS
 007A58                            50218    6075.              LOOP  BEGIN
 007A58 98EF 1000            00000 50224  1 6076.                LM    R14,R15,@RS
 007A5C 183F                       50225  1 6077.                LR    RB,R15                  Length of this portion
 007A5E 0E2E                       50226  1 6078.                MVCL  RA,R14                  Move this portion
 007A60 9180 1000      00000       50227  1 6079.                IF    @RS.X'80',EXIT          End of list
 007A64 4710 A19E            07A70 50240  1          +
 007A68 4110 1008            00008 50246  1 6080.                LA    RS,@RS+8                Next entry
 007A6C 47F0 A186            07A58 50247    6081.              END
                                   50252    6082.     *
                                   50253    6083.     *  Write the message
                                   50254    6084.     *
 DROP   @MEMGET-72,R13             50255    6085.              PSET  @DOWTO
 USING  @DOWTO-72,R13
 007A70 D709 D048 D048 00000 00000 50275             +
 007A76 5040 D048            00000 50276    6086.              ST    RJ,@DWTLOC              Message location
 007A7A D203 D04C C064 00004 00014 50277    6087.              MVC   @DWTLEN,WTOULEN          and length
 007A80 9101 C06B      0001B       50278    6088.              IF    WTOUPRM+3.X'01','SET  @DWTFSYS'   To system log
 007A84 47E0 A1BA            07A8C 50289             +
 007A88 9680 D050      00008       50300             +
 007A8C 9102 C06B      0001B       50305    6089.              IF    WTOUPRM+3.X'02','SET  @DWTFCON'   To console
 007A90 47E0 A1C6            07A98 50316             +
 007A94 9640 D050      00008       50327             +
 007A98 9104 C06B      0001B       50332    6090.              IF    WTOUPRM+3.X'04','SET  @DWTFND'    Non-deletable
 007A9C 47E0 A1D2            07AA4 50343             +
 007AA0 9620 D050      00008       50354             +
 007AA4 41F0 A23A/0DEF       07B0C 50359    6091.              LCALL DOWTO                   Go do it
                                   50368    6092.     *
                                   50369    6093.     *  Provide the WTO return code in r2
                                   50370    6094.     *
 007AAA 4810 7156            00156 50371    6095.              LH    RS,SIEINST
 007AAE 5410 A8CA            0819C 50372    6096.              N     RS,=X'0000000F'         Isolate the r2 field
 007AB2 5910 A8CE            081A0 50373    6097.              LREGA RS,(RS)                 Get the Address of the Reg
 007AB6 4720 A1F4            07AC6 50379             +
 007ABA 4740 A1FC            07ACE 50380             +
 007ABE 4110 7110            00110 50381             +
 007AC2 47F0 A204            07AD6 50382             +
 007AC6 4110 7114            00114 50383             +
 007ACA 47F0 A204            07AD6 50384             +
 007ACE 8910 0002            00002 50385             +
 007AD2 4111 70BC            000BC 50386             +
 007AD6 5000 1000            00000 50389    6098.              ST    RVR,@RS                 Return code set
                                   50390    6099.     *
                                   50391    6100.     *  Release the buffer
                                   50392    6101.     *
 007ADA 5810 C064            00014 50393    6102.              L     RS,WTOULEN              User data length
 DROP   @DOWTO-72,R13              50394    6103.              MEMFREE @RS,A=(RJ),TYPE=(LOCAL,BELOW16M)
 USING  @MEMFREE-72,R13
 007ADE D709 D048 D048 00000 00000 50416             +
 007AE4 4100 1000            00000 50423             +
 007AE8 5000 D04C            00004 50424             +
 007AEC 5040 D048            00000 50425             +
 007AF0 58F0 A8FA/0DEF       081CC 50428             +
1GSTINTF  (GSTI00) (09:40) (22MAR04) IHAPSAE  - PSA Extension (ESAME)                                                       Page  270
0Current Usings:  (@MEMFREE-72,R13)
0Loc    Object Code    Addr1 Addr2  Stmt Lv Lineno    Source Statement           (Hibal 5, Asmedit 3.3)  HLASM R4.0  2004/03/22 09.40
+___    ______ ____    _____ _____  ____ __ ______    ______ _________
0007AF6 981F C008            00008 50430    6104.              PEND
 DROP   CPUB,R7
 DROP   INTERP-72,R12
 DROP   DTWTO,R10
 007AFA 9680 C000/0B0E 00000       50450             +
 DROP   @MEMFREE-72,R13
1GSTINTF  (GSTI00) (09:40) (22MAR04) IHAPSAE  - PSA Extension (ESAME)                                                       Page  271
0Loc    Object Code    Addr1 Addr2  Stmt Lv Lineno    Source Statement           (Hibal 5, Asmedit 3.3)  HLASM R4.0  2004/03/22 09.40
+___    ______ ____    _____ _____  ____ __ ______    ______ _________
0                                  50460    6106.     *******************************************************************
                                   50461    6107.     *                                                                 *
                                   50462    6108.     *    DWTOWORK - DOWTO Work area                                   *
                                   50463    6109.     *                                                                 *
                                   50464    6110.     *******************************************************************
0000000                00000 00008 50466    6112.     DWTOWORK RECORD BEGIN
 000000                            50474  1 6113.     DWTBUF     DS    A                       Work buffer
 000004                            50475  1 6114.     DWTSIZ     DS    A                       Work buffer size
 000008                00008 00008 50476    6115.              END   ,
1GSTINTF  (GSTI00) (09:40) (22MAR04) IHAPSAE  - PSA Extension (ESAME)                                                       Page  272
0Loc    Object Code    Addr1 Addr2  Stmt Lv Lineno    Source Statement           (Hibal 5, Asmedit 3.3)  HLASM R4.0  2004/03/22 09.40
+___    ______ ____    _____ _____  ____ __ ______    ______ _________
0                                  50486    6117.     *******************************************************************
                                   50487    6118.     *                                                                 *
                                   50488    6119.     *   DOWTO - This is routine processes WTO requests and sends      *
                                   50489    6120.     *           messages to the designated place                      *
                                   50490    6121.     *                                                                 *
                                   50491    6122.     *                                                                 *
                                   50492    6123.     *      Input - @DOWTO                                             *
                                   50493    6124.     *                                                                 *
                                   50494    6125.     *     Output - none                                               *
                                   50495    6126.     *                                                                 *
                                   50496    6127.     *                                                                 *
                                   50497    6128.     *******************************************************************
-007B00                            50499    6130.     DOWTO    PROC  @DOWTO,DWTOWORK,SCOPE=LOCAL
 007B00 C4D6E6E3D6404040           50504             +
 007B08 0010/0008                  50505             +
 007B0C 900F D004/18AF       00004 50507             +
 USING  DOWTO,R10
 007B12 50D0 C000/18CD       00000 50522             +
 007B18 9680 C000      00000       50524             +
 USING  @DOWTO-72,R12
 AUSING (DWTOWORK,@DOWTO+16)
 007B1C 41D0 C060            00060 50543             +
                                   50544    6131.     *
                                   50545    6132.     *  First get a work buffer
                                   50546    6133.     *
 007B20 5810 C04C            00004 50547    6134.              L     RS,@DWTLEN              Message length
 007B24 1211/4780 A0D6       07BE2 50548    6135.              IF    (RS,Z),EXIT             Too short
 007B2A 5910 A6C8            081D4 50565    6136.              CEIL  RS,@DWTLMAX
 007B2E 47D0 A02A            07B36 50574             +
 007B32 5810 A6C8            081D4 50579             +
 007B36 5910 C04C            00004 50584    6137.              STMAX RS,@DWTLEN
 007B3A 47D0 A036            07B42 50589             +
 007B3E 5010 C04C            00004 50590             +
 007B42 4110 1026            00026 50591    6138.        LA    RS,@RS+(WPLTXT-WPL+32+L'WPLROUT)
                                   50592    6139.     *         LA    RS,@RS+(WPLTXT-WPL+L'WPLFLGS+L'WPLROUT)  Overhead
                                   50593    6140.     *         LA    RS,@RS+(WPLTXT-WPL
 007B46 5010 C05C            00004 50594    6141.              ST    RS,DWTSIZ               Buffer size
 USING  @MEMGET-72,R13             50595    6142.              MEMGET (RS),TYPE=BELOW16M
 007B4A D709 D048 D048 00000 00000 50614             +
 007B50 5010 D04C            00004 50615             +
 007B54 9201 D051      00009       50622             +
 007B58 58F0 A69C/0DEF       081A8 50625             +
 007B5E 5000 C058            00000 50627    6143.              ST    RVR,DWTBUF              Local buffer
 007B62 1840                       50628    6144.              LR    RJ,RVR
 USING  WPL,R4                     50629    6145.              WITH  (WPL,RJ)
                                   50642    6146.     *
                                   50643    6147.     *  Move message to work buffer
                                   50644    6148.     *
 007B64 58E0 C048            00000 50645    6149.              L     R14,@DWTLOC             Message location
 007B68 58F0 C04C            00004 50646    6150.              L     R15,@DWTLEN              and length
 007B6C 4120 4004            00004 50647    6151.              LA    RA,WPLTXT               Message area
 007B70 183F                       50648    6152.              LR    RB,R15
 007B72 0E2E                       50649    6153.              MVCL  RA,R14
                                   50650    6154.     *
1GSTINTF  (GSTI00) (09:40) (22MAR04) IHAPSAE  - PSA Extension (ESAME)                                                       Page  273
0Current Usings:  (WPL,R4) (DOWTO,R10) (@DOWTO-72,R12) (@MEMGET-72,R13)
0Loc    Object Code    Addr1 Addr2  Stmt Lv Lineno    Source Statement           (Hibal 5, Asmedit 3.3)  HLASM R4.0  2004/03/22 09.40
+___    ______ ____    _____ _____  ____ __ ______    ______ _________
0                                  50651    6155.     *  Set message length
                                   50652    6156.     *
 007B74 5810 C04C            00004 50653    6157.              L     RS,@DWTLEN              Message length
 007B78 4110 1004            00004 50654    6158.              LA    RS,@RS+L'WPLLGH+L'WPLMCSF  plus length and flag field
 007B7C 4010 4000            00000 50655    6159.              STH   RS,WPLLGH
                                   50656    6160.     *
                                   50657    6161.     *  Set MCS info for console messages
                                   50658    6162.     *
 USING  MSGEND.WPLFLGS,R2          50659    6163.              WITH  (WPLFLGS,RA),LABEL=MSGEND
 007B80 9680 4002      00002       50667    6164.              SET   WPLMCSF.WPLMCSFA        Route/Descriptor codes added
                                   50674    6165.     *
                                   50675    6166.     *  Write message to Jes job log and system log only
                                   50676    6167.     *
 007B84 9140 C050      00008       50677    6168.              IF    (@DWTFCON,Z),BEGIN
 007B88 4770 A090            07B9C 50689             +
 007B8C 9602 2000      00000       50694  1 6169.                SET   MSGEND:WPLDESC1.WPLDESCG       Job status
 007B90 9180 C050      00008       50701  1 6170.                IF    (@DWTFSYS,Z),'SET  WPLMCSF2.WPLMCSFN'
 007B94 4770 A090            07B9C 50713  1          +
 007B98 9604 4003      00003       50725  1          +
 007B9C                            50730    6171.              END   ,
                                   50734    6172.     *
                                   50735    6173.     *  Console message is non-deletable
                                   50736    6174.     *
 007B9C A094           07B9C 07B8A 50737    6175.              ELSEIF  @DWTFND,BEGIN
 007B9C 47F0 A0A4            07BB0 50743             +
 007BA0 9120 C050      00008       50755             +
 007BA4 47E0 A0A4            07BB0 50756             +
 007BA8 9640 2000      00000       50761  1 6176.                SET   MSGEND:WPLDESC1.WPLDESCB       Immediate action
 007BAC 9681 2002      00002       50768  1 6177.                SET   MSGEND:WPLROUT1.WPLROUTA+WPLROUTH   Master & Tp cons
 007BB0                            50778    6178.              END
                                   50782    6179.     *
                                   50783    6180.     *  Standard informational console message
                                   50784    6181.     *
 007BB0 A0A8           07BB0 07BA6 50785    6182.              ELSE  BEGIN
 007BB0 47F0 A0B0            07BBC 50790             +
 007BB4 9610 2000      00000       50796  1 6183.                SET   MSGEND:WPLDESC1.WPLDESCD       System status
 007BB8 9641 2002      00002       50803  1 6184.                SET   MSGEND:WPLROUT1.WPLROUTB+WPLROUTH   Master & Tp cons
 007BBC                            50813    6185.              END
                                   50817    6186.     *
                                   50818    6187.     *  Issue SVC
                                   50819    6188.     *
 007BBC 4110 4000/0A23       00000 50820    6189.              WTO   ,MF=(E,WPL)
 007BC2 1821                       50824    6190.              LR    RA,R1                   Message Id
                                   50825    6191.     *
                                   50826    6192.     *  Release the Buffer
                                   50827    6193.     *
 DROP   @MEMGET-72,R13             50828    6194.              MEMFREE L:DWTSIZ,A=DWTBUF,TYPE=BELOW16M
 USING  @MEMFREE-72,R13
 007BC4 D709 D048 D048 00000 00000 50850             +
 007BCA 5800 C05C            00004 50855             +
 007BCE 5000 D04C            00004 50856             +
 007BD2 5800 C058            00000 50860             +
 007BD6 5000 D048            00000 50861             +
 007BDA 58F0 A6C0/0DEF       081CC 50864             +
1GSTINTF  (GSTI00) (09:40) (22MAR04) IHAPSAE  - PSA Extension (ESAME)                                                       Page  274
0Current Usings:  (MSGEND.WPLFLGS,R2) (WPL,R4) (DOWTO,R10) (@DOWTO-72,R12) (@MEMFREE-72,R13)
0Loc    Object Code    Addr1 Addr2  Stmt Lv Lineno    Source Statement           (Hibal 5, Asmedit 3.3)  HLASM R4.0  2004/03/22 09.40
+___    ______ ____    _____ _____  ____ __ ______    ______ _________
0007BE0 1802                       50866    6195.              LR    RVR,RA                  Return code
 007BE2 981F C008            00008 50867    6196.              PEND
 DROP   MSGEND.WPLFLGS,R2
 DROP   WPL,R4
 DROP   @DOWTO-72,R12
 DROP   DOWTO,R10
 007BE6 9680 C000/0B0E 00000       50895             +
 DROP   @MEMFREE-72,R13
1GSTINTF  (GSTI00) (09:40) (22MAR04) IHAPSAE  - PSA Extension (ESAME)                                                       Page  275
0Loc    Object Code    Addr1 Addr2  Stmt Lv Lineno    Source Statement           (Hibal 5, Asmedit 3.3)  HLASM R4.0  2004/03/22 09.40
+___    ______ ____    _____ _____  ____ __ ______    ______ _________
0                                  50905    6198.     *******************************************************************
                                   50906    6199.     *                                                                 *
                                   50907    6200.     *   DTDOM  - This is a DIAGNOSE service routine.  It deletes a    *
                                   50908    6201.     *            previously issued console operator meesage.  On      *
                                   50909    6202.     *            entry r1 contains the message id returned by the     *
                                   50910    6203.     *            WTO routine.                                         *
                                   50911    6204.     *                                                                 *
                                   50912    6205.     *                                                                 *
                                   50913    6206.     *      Input - INTERP dsect                                       *
                                   50914    6207.     *                                                                 *
                                   50915    6208.     *     Output - none                                               *
                                   50916    6209.     *                                                                 *
                                   50917    6210.     *                                                                 *
                                   50918    6211.     *******************************************************************
-007BEC                            50920    6213.     DTDOM    PROC  INTERP,SCOPE=LOCAL
 007BEC C4E3C4D6D4404040           50925             +
 007BF4 0008/0000                  50926             +
 007BF8 900F D004/18AF       00004 50928             +
 USING  DTDOM,R10
 007BFE 50D0 C000/18CD       00000 50943             +
 007C04 9680 C000      00000       50945             +
 USING  INTERP-72,R12
 007C08 41D0 C050            00050 50959             +
 007C0C 5870 C048            00000 50960    6214.              L     RY,INTCPUB              Parm is the CPUB pointer
 USING  CPUB,R7                    50961    6215.              WITH  (CPUB,RY)
                                   50974    6216.     *
                                   50975    6217.     *  GET THE MESSAGE ID
                                   50976    6218.     *
 007C10 4810 7156            00156 50977    6219.              LH    RS,SIEINST
 007C14 8810 0004            00004 50978    6220.              SRL   RS,4                    Move r1 field to low order
 007C18 5410 A5A4            0819C 50979    6221.              N     RS,=X'0000000F'         Isolate the r1 field
 007C1C 5910 A5A8            081A0 50980    6222.              LREGA RS,(RS)                 Get the Address of the Reg
 007C20 4720 A038            07C30 50986             +
 007C24 4740 A040            07C38 50987             +
 007C28 4110 7110            00110 50988             +
 007C2C 47F0 A048            07C40 50989             +
 007C30 4110 7114            00114 50990             +
 007C34 47F0 A048            07C40 50991             +
 007C38 8910 0002            00002 50992             +
 007C3C 4111 70BC            000BC 50993             +
 007C40 5810 1000            00000 50996    6223.              L     RS,@RS                  Get message id number
                                   50997    6224.     *
                                   50998    6225.     *  Issue the DOM
                                   50999    6226.     *
 007C44 4100 0000/0A57       00000 51000    6227.              DOM   MSG=(1)
 007C4A 981F C008            00008 51003    6228.              PEND
 DROP   CPUB,R7
 DROP   INTERP-72,R12
 DROP   DTDOM,R10
 007C4E 9680 C000/0B0E 00000       51023             +
1GSTINTF  (GSTI00) (09:40) (22MAR04) IHAPSAE  - PSA Extension (ESAME)                                                       Page  276
0Loc    Object Code    Addr1 Addr2  Stmt Lv Lineno    Source Statement           (Hibal 5, Asmedit 3.3)  HLASM R4.0  2004/03/22 09.40
+___    ______ ____    _____ _____  ____ __ ______    ______ _________
0                                  51030    6230.     *******************************************************************
                                   51031    6231.     *                                                                 *
                                   51032    6232.     *   DTCPUTM - This is a DIAGNOSE service routine.  It returns     *
                                   51033    6233.     *             the accumulated CPU time value for host services    *
                                   51034    6234.     *             in the 8 byte doubleword aligned area pointed to    *
                                   51035    6235.     *             by the address in r1.                               *
                                   51036    6236.     *                                                                 *
                                   51037    6237.     *                                                                 *
                                   51038    6238.     *      Input - INTERP dsect                                       *
                                   51039    6239.     *                                                                 *
                                   51040    6240.     *     Output - none                                               *
                                   51041    6241.     *                                                                 *
                                   51042    6242.     *                                                                 *
                                   51043    6243.     *******************************************************************
-007C54                            51045    6245.     DTCPUTM  PROC  INTERP,SCOPE=LOCAL
 007C54 C4E3C3D7E4E3D440           51050             +
 007C5C 0008/0000                  51051             +
 007C60 900F D004/18AF       00004 51053             +
 USING  DTCPUTM,R10
 007C66 50D0 C000/18CD       00000 51068             +
 007C6C 9680 C000      00000       51070             +
 USING  INTERP-72,R12
 007C70 41D0 C050            00050 51084             +
 007C74 5870 C048            00000 51085    6246.              L     RY,INTCPUB              Parm is the CPUB pointer
 USING  CPUB,R7                    51086    6247.              WITH  (CPUB,RY)
                                   51099    6248.     *
                                   51100    6249.     *  Get the answer area address
                                   51101    6250.     *
 007C78 4810 7156            00156 51102    6251.              LH    RS,SIEINST
 007C7C 8810 0004            00004 51103    6252.              SRL   RS,4                    Move r1 field to low order
 007C80 5410 A53C            0819C 51104    6253.              N     RS,=X'0000000F'         Isolate the r1 field
 007C84 5910 A540            081A0 51105    6254.              LREGA RS,(RS)                 Get the Address of the Reg
 007C88 4720 A038            07C98 51111             +
 007C8C 4740 A040            07CA0 51112             +
 007C90 4110 7110            00110 51113             +
 007C94 47F0 A048            07CA8 51114             +
 007C98 4110 7114            00114 51115             +
 007C9C 47F0 A048            07CA8 51116             +
 007CA0 8910 0002            00002 51117             +
 007CA4 4111 70BC            000BC 51118             +
 007CA8 5820 1000            00000 51121    6255.              L     RA,@RS                  Answer area address (virtual)
                                   51122    6256.     *
                                   51123    6257.     *  Make sure answer area on one page
                                   51124    6258.     *
 007CAC 4110 A58C            081EC 51125    6259.              LA    RS,=X'FFF'
 007CB0 1412                       51126    6260.              NR    RS,RA
 007CB2 4110 1008            00008 51127    6261.              LA    RS,@RS+8
 007CB6 5910 A52C            0818C 51128    6262.              IF    (RS,GT,4096),BEGIN
 007CBA 47D0 A090            07CF0 51140             +
 007CBE 5810 7070/18E2       00070 51145  1 6263.                PIINT CODE=6,ILEN=4           Address not on double word
 USING  PZERO,R1
 007CC4 B20B 0000                  51165  2          +
 007CC8 B20A 0000/18F2 00000       51166  2          +
 007CCE 182E                       51168  2          +
1GSTINTF  (GSTI00) (09:40) (22MAR04) IHAPSAE  - PSA Extension (ESAME)                                                       Page  277
0Current Usings:  (PZERO,R1) (CPUB,R7) (DTCPUTM,R10) (INTERP-72,R12)
0Loc    Object Code    Addr1 Addr2  Stmt Lv Lineno    Source Statement           (Hibal 5, Asmedit 3.3)  HLASM R4.0  2004/03/22 09.40
+___    ______ ____    _____ _____  ____ __ ______    ______ _________
0007CD0 D207 1028 7118 00028 00118 51169  2          +
 007CD6 D207 7118 1068 00118 00068 51170  2          +
 007CDC D201 108E A58E 0008E 081EE 51171  2          +
 007CE2 D201 108C A588 0008C 081E8 51172  2          +
 007CE8 B20A F000      00000       51175  1          +
 DROP   PZERO,R1
 007CEC 47F0 A134            07D94 51184  1 6264.                EXIT  DTCPUTM
 007CF0                            51187    6265.              END
                                   51191    6266.     *
                                   51192    6267.     *  Validate the user area
                                   51193    6268.     *
 USING  GVAPARM-72,R13             51194    6269.              PSET  GVAPARM
 007CF0 D70B D048 D048 00000 00000 51211             +
 007CF6 5070 D048            00000 51212    6270.              ST    RY,GVACPUB              Set the CPUB pointer
 007CFA 5020 D04C            00004 51213    6271.              ST    RA,GVAVLOC               Location
 007CFE 58F0 A534/0DEF       08194 51214    6272.              ACALL GVA
                                   51221    6273.     *
                                   51222    6274.     *  Area not in memory - cause a page fault
                                   51223    6275.     *
 007D04 5900 A538            08198 51224    6276.              IF    (RVR,GT,4),BEGIN        Not currently in memory
 007D08 47D0 A0EE            07D4E 51236             +
 007D0C 5810 7070/18E2       00070 51241  1 6277.                PIINT CODE=(RVR),EXA=GVAVLOC,ILEN=4,BACK=YES
 USING  PZERO,R1
 007D12 B20B 0000                  51261  2          +
 007D16 B20A 0000/18F2 00000       51262  2          +
 007D1C 182E                       51264  2          +
 007D1E D207 1028 7118 00028 00118 51265  2          +
 007D24 D207 7118 1068 00118 00068 51266  2          +
 007D2A 4000 108E            0008E 51267  2          +
 007D2E D203 1090 D04C 00090 00004 51268  2          +
 007D34 D201 108C A588 0008C 081E8 51269  2          +
 007D3A 58E0 102C            0002C 51270  2          +
 007D3E 4BE0 108C            0008C 51271  2          +
 007D42 50E0 102C            0002C 51272  2          +
 007D46 B20A F000      00000       51275  1          +
 DROP   PZERO,R1
 007D4A 47F0 A134            07D94 51284  1 6278.                EXIT  DTCPUTM
 007D4E                            51287    6279.              END   ,
                                   51291    6280.     *
                                   51292    6281.     *  Area may not be written - cause protection error
                                   51293    6282.     *
 007D4E 1200/4780 A12A       07D8A 51294    6283.              IF    (RVR,NZ),BEGIN          Not valid location
 007D54 5810 7070/18E2       00070 51308  1 6284.                PIINT CODE=(RVR),EXA=GVAVLOC,ILEN=4
 USING  PZERO,R1
 007D5A B20B 0000                  51328  2          +
 007D5E B20A 0000/18F2 00000       51329  2          +
 007D64 182E                       51331  2          +
 007D66 D207 1028 7118 00028 00118 51332  2          +
 007D6C D207 7118 1068 00118 00068 51333  2          +
 007D72 4000 108E            0008E 51334  2          +
 007D76 D203 1090 D04C 00090 00004 51335  2          +
 007D7C D201 108C A588 0008C 081E8 51336  2          +
 007D82 B20A F000      00000       51339  1          +
 DROP   PZERO,R1
1GSTINTF  (GSTI00) (09:40) (22MAR04) IHAPSAE  - PSA Extension (ESAME)                                                       Page  278
0Current Usings:  (CPUB,R7) (DTCPUTM,R10) (INTERP-72,R12) (GVAPARM-72,R13)
0Loc    Object Code    Addr1 Addr2  Stmt Lv Lineno    Source Statement           (Hibal 5, Asmedit 3.3)  HLASM R4.0  2004/03/22 09.40
+___    ______ ____    _____ _____  ____ __ ______    ______ _________
0007D86 47F0 A134            07D94 51348  1 6285.                EXIT  DTCPUTM
 007D8A                            51351    6286.              END   ,
                                   51355    6287.     *
                                   51356    6288.     *  Address ok, return time
                                   51357    6289.     *
 007D8A 5810 D050            00008 51358    6290.              L     RS,GVAMLOC              MVS address area
 007D8E D207 1000 7078 00000 00078 51359    6291.              MVC   @RS(8),CPCPUTM          Copy in CPU time
 007D94 981F C008            00008 51360    6292.              PEND
 DROP   CPUB,R7
 DROP   INTERP-72,R12
 DROP   DTCPUTM,R10
 007D98 9680 C000/0B0E 00000       51380             +
 DROP   GVAPARM-72,R13
1GSTINTF  (GSTI00) (09:40) (22MAR04) IHAPSAE  - PSA Extension (ESAME)                                                       Page  279
0Loc    Object Code    Addr1 Addr2  Stmt Lv Lineno    Source Statement           (Hibal 5, Asmedit 3.3)  HLASM R4.0  2004/03/22 09.40
+___    ______ ____    _____ _____  ____ __ ______    ______ _________
0                                  51390    6294.
                                   51391    6295.
                                   51392    6296.        DTCPUINF - This is a DIAGNOSE service routine.  It returns
                                   51393    6297.                  the general CPU information in the 8 byte
                                   51394    6298.                  doubleword aligned area pointed to by the address
                                   51395    6299.                  in r1.
                                   51396    6300.
                                   51397    6301.           Input - INTERP dsect
                                   51398    6302.
                                   51399    6303.          Output - none
                                   51400    6304.

0007D9E                            51401    6305.     DTCPUINF PROC  INTERP,SCOPE=LOCAL
 007D9E C4E3C3D7E4C9D5C6           51406             +
 007DA6 0008/0000                  51407             +
 007DAA 900F D004/18AF       00004 51409             +
 USING  DTCPUINF,R10
 007DB0 50D0 C000/18CD       00000 51424             +
 007DB6 9680 C000      00000       51426             +
 USING  INTERP-72,R12
 007DBA 41D0 C050            00050 51440             +
 007DBE 5870 C048            00000 51441    6306.              L     RY,INTCPUB          Parm is the CPUB pointer
 USING  CPUB,R7                    51442    6307.              WITH  (CPUB,RY)
                                   51455    6308.
 007DC2 5860 7004            00004 51456    6309.              L     RX,CPGSTCT          Get GSTCT ptr
 USING  GSTCT,R6                   51457    6310.              WITH  (GSTCT,RX)
                                   51470    6311.
                                   51471    6312.                Build CPU information word and in RA.
                                   51472    6313.
 007DC6 5820 6004            00004 51473    6314.              L     RA,GSTCNCPU         Currently it's just no. of cpus
                                   51474    6315.
                                   51475    6316.                Now put it back into the caller's resume register "r1".
                                   51476    6317.
 007DCA 4810 7156            00156 51477    6318.              LH    RS,SIEINST
 007DCE 8810 0004            00004 51478    6319.              SRL   RS,4                Move r1 field to low order
 007DD2 5410 A3F2            0819C 51479    6320.              N     RS,=X'0000000F'     Isolate the r1 field
 007DD6 18F1                       51480    6321.              LR    R15,RS              Copy
 007DD8 5910 A3F6            081A0 51481    6322.              LREGA RS,(RS)             Get the Address of the Reg
 007DDC 4720 A042            07DEC 51487             +
 007DE0 4740 A04A            07DF4 51488             +
 007DE4 4110 7110            00110 51489             +
 007DE8 47F0 A052            07DFC 51490             +
 007DEC 4110 7114            00114 51491             +
 007DF0 47F0 A052            07DFC 51492             +
 007DF4 8910 0002            00002 51493             +
 007DF8 4111 70BC            000BC 51494             +
 007DFC 5020 1000            00000 51497    6323.              ST    RA,@RS              Put the value in r1
 007E00 981F C008            00008 51498    6324.              PEND
 DROP   GSTCT,R6
 DROP   CPUB,R7
 DROP   INTERP-72,R12
 DROP   DTCPUINF,R10
 007E04 9680 C000/0B0E 00000       51523             +
                                   51529    6325.
                                   51530    6326.
1GSTINTF  (GSTI00) (09:40) (22MAR04) IHAPSAE  - PSA Extension (ESAME)                                                       Page  280
0Loc    Object Code    Addr1 Addr2  Stmt Lv Lineno    Source Statement           (Hibal 5, Asmedit 3.3)  HLASM R4.0  2004/03/22 09.40
+___    ______ ____    _____ _____  ____ __ ______    ______ _________
0                                  51531    6327.        DTQSERV - This is a DIAGNOSE service routine.  It issues a
                                   51532    6328.                  QSERV SVC with information provided by the user.
                                   51533    6329.
                                   51534    6330.                  *** Not yet implemented ***
                                   51535    6331.
                                   51536    6332.           Input - INTERP dsect
                                   51537    6333.
                                   51538    6334.          Output - none
                                   51539    6335.

0007E0A                            51540    6336.     DTQSERV  PROC  INTERP,SCOPE=LOCAL
 007E0A C4E3D8E2C5D9E540           51545             +
 007E12 0008/0000                  51546             +
 007E16 900F D004/18AF       00004 51548             +
 USING  DTQSERV,R10
 007E1C 50D0 C000/18CD       00000 51563             +
 007E22 9680 C000      00000       51565             +
 USING  INTERP-72,R12
 007E26 41D0 C050            00050 51579             +
 007E2A 4110 04B0            004B0 51580    6337.              ABEND 1200,DUMP           Not yet
 007E2E 4100 0080            00080 51585             +
 007E32 8900 0018/1610       00018 51586             +
 007E38 0A0D                       51588             +
 007E3A 981F C008            00008 51589    6338.              PEND
 DROP   INTERP-72,R12
 DROP   DTQSERV,R10
 007E3E 9680 C000/0B0E 00000       51604             +
1GSTINTF  (GSTI00) (09:40) (22MAR04) IHAPSAE  - PSA Extension (ESAME)                                                       Page  281
0Loc    Object Code    Addr1 Addr2  Stmt Lv Lineno    Source Statement           (Hibal 5, Asmedit 3.3)  HLASM R4.0  2004/03/22 09.40
+___    ______ ____    _____ _____  ____ __ ______    ______ _________
0                                  51611    6340.     *******************************************************************
                                   51612    6341.     *     DTDPALLO -This is a DIAGNOSE service routine.  It calls the *
                                   51613    6342.     *                I/O service routine to allocate a SNAPDUMP       *
                                   51614    6343.     *                sysout data set.  It returns to the guest with   *
                                   51615    6344.     *                r1 containing a token representing the opened    *
                                   51616    6345.     *                dump data set.  This token must be presented for *
                                   51617    6346.     *                all subsequent requests for this particular data *
                                   51618    6347.     *                set.                                             *
                                   51619    6348.     *                                                                 *
                                   51620    6349.     *                                                                 *
                                   51621    6350.     *      Input - none                                               *
                                   51622    6351.     *                                                                 *
                                   51623    6352.     *     Output - r1 contains token for dump data set created by     *
                                   51624    6353.     *              this service routine.                              *
                                   51625    6354.     *                                                                 *
                                   51626    6355.     *******************************************************************
-007E44                            51628    6357.     DTDPALLO PROC  INTERP,SCOPE=LOCAL
 007E44 C4E3C4D7C1D3D3D6           51633             +
 007E4C 0008/0000                  51634             +
 007E50 900F D004/18AF       00004 51636             +
 USING  DTDPALLO,R10
 007E56 50D0 C000/18CD       00000 51651             +
 007E5C 9680 C000      00000       51653             +
 USING  INTERP-72,R12
 007E60 41D0 C050            00050 51667             +
 007E64 5870 C048            00000 51668    6358.              L     RY,INTCPUB              Parm is the CPUB pointer
 USING  CPUB,R7                    51669    6359.              WITH  (CPUB,RY)
                                   51682    6360.     *
                                   51683    6361.     *  Go allocate and open a SNAP DUMP data set
                                   51684    6362.     *
 USING  @SNDPPRM-72,R13            51685    6363.              PSET  @SNDPPRM
 007E68 D70B D048 D048 00000 00000 51702             +
 007E6E 58F0 A388/0DEF       081D8 51703    6364.              VCALL SNDPALLO
 007E74 94CF 711A      0011A       51707    6365.              NI    SIEPSW+2,X'CF'          Set CC 0
 007E78 1200/4770 A064       07EB4 51708    6366.              IF (RVR,Z),BEGIN              If SNDPALLO RC was good
                                   51722  1 6367.     *
                                   51723  1 6368.     *  Return token in r1
                                   51724  1 6369.     *
 007E7E 4810 7156            00156 51725  1 6370.                LH    RS,SIEINST
 007E82 8810 0004            00004 51726  1 6371.                SRL   RS,4                    Move r1 field to low order
 007E86 5410 A34C            0819C 51727  1 6372.                N     RS,=X'0000000F'         Isolate the r1 field
 007E8A 5910 A350            081A0 51728  1 6373.                LREGA RS,(RS)                 Get the Address of the Reg
 007E8E 4720 A04E            07E9E 51734  1          +
 007E92 4740 A056            07EA6 51735  1          +
 007E96 4110 7110            00110 51736  1          +
 007E9A 47F0 A05E            07EAE 51737  1          +
 007E9E 4110 7114            00114 51738  1          +
 007EA2 47F0 A05E            07EAE 51739  1          +
 007EA6 8910 0002            00002 51740  1          +
 007EAA 4111 70BC            000BC 51741  1          +
 007EAE D203 1000 D050 00000 00008 51744  1 6374.                MVC   @RS(4),@SNDTOKN         Put the value in r1
 007EB4                            51745    6375.              END   ,                       OF If SNDPALLO RC was good
 007EB4 A068           07EB4 07E7C 51749    6376.              ELSE 'OI SIEPSW+2,X"10"'
 007EB4 47F0 A06C            07EBC 51754             +
1GSTINTF  (GSTI00) (09:40) (22MAR04) IHAPSAE  - PSA Extension (ESAME)                                                       Page  282
0Current Usings:  (CPUB,R7) (DTDPALLO,R10) (INTERP-72,R12) (@SNDPPRM-72,R13)
0Loc    Object Code    Addr1 Addr2  Stmt Lv Lineno    Source Statement           (Hibal 5, Asmedit 3.3)  HLASM R4.0  2004/03/22 09.40
+___    ______ ____    _____ _____  ____ __ ______    ______ _________
0007EB8 9610 711A      0011A       51761             +
 007EBC 981F C008            00008 51766    6377.              PEND
 DROP   CPUB,R7
 DROP   INTERP-72,R12
 DROP   DTDPALLO,R10
 007EC0 9680 C000/0B0E 00000       51786             +
 DROP   @SNDPPRM-72,R13
1GSTINTF  (GSTI00) (09:40) (22MAR04) IHAPSAE  - PSA Extension (ESAME)                                                       Page  283
0Loc    Object Code    Addr1 Addr2  Stmt Lv Lineno    Source Statement           (Hibal 5, Asmedit 3.3)  HLASM R4.0  2004/03/22 09.40
+___    ______ ____    _____ _____  ____ __ ______    ______ _________
0                                  51796    6379.     *******************************************************************
                                   51797    6380.     *                                                                 *
                                   51798    6381.     *       DPWWORK -- MVS memory write work area                     *
                                   51799    6382.     *                                                                 *
                                   51800    6383.     *******************************************************************
0000000                00000 00020 51802    6385.     DPWWORK  RECORD BEGIN
 000000                            51810  1 6386.     DPWADDR    DS    A                       MVS BUFFER AREA
 000004                            51811  1 6387.     DPTOKEN    DS    A                       SNAP DUMP DATA SET TOKEN
 000008                            51812  1 6388.     DPWUADR    DS    A                       USER VIRTUAL ADDRESS
 00000C                            51813  1 6389.     DPWLEN     DS    A                       TOTAL LENGTH
 000010                            51814  1 6390.     DPWLOCS    DS    2D                      USER REAL ADDRESSES
 000020                00020 00020 51815    6391.              END   ,
-
 000000                00000 0000C 51825    6393.     @SNDPPRM RECORD BEGIN
 000000                            51833  1 6394.     @SNDADDR   DS    A                       SNAP DUMP LINE TO WRITE
 000004                            51834  1 6395.     @SNDLEN    DS    A                       SNAP DUMP LINE LENGTH
 000008                            51835  1 6396.     @SNDTOKN   DS    A                       SNAP DUMP DATA SET ID
 00000C                0000C 0000C 51836    6397.              END   ,
1GSTINTF  (GSTI00) (09:40) (22MAR04) IHAPSAE  - PSA Extension (ESAME)                                                       Page  284
0Loc    Object Code    Addr1 Addr2  Stmt Lv Lineno    Source Statement           (Hibal 5, Asmedit 3.3)  HLASM R4.0  2004/03/22 09.40
+___    ______ ____    _____ _____  ____ __ ______    ______ _________
0                                  51846    6399.     *******************************************************************
                                   51847    6400.     *                                                                 *
                                   51848    6401.     *   DTDPWRIT - This is a DIAGNOSE service routine.  It moves a    *
                                   51849    6402.     *             line of ORVYL guest snap dump output to the host    *
                                   51850    6403.     *             for MVS to pass to the JES writer.                  *
                                   51851    6404.     *                                                                 *
                                   51852    6405.     *             On entry r1 is an even-odd register pair while r2   *
                                   51853    6406.     *             is a register containing the following values:      *
                                   51854    6407.     *                                                                 *
                                   51855    6408.     *                 r1    Orvyl guest virtual address               *
                                   51856    6409.     *                 r1+1  Length of the area                        *
                                   51857    6410.     *                 r2    Token from prior call to DTJSALLO         *
                                   51858    6411.     *                                                                 *
                                   51859    6412.     *                                                                 *
                                   51860    6413.     *      Input - INTERP dsect                                       *
                                   51861    6414.     *                                                                 *
                                   51862    6415.     *     Output - none                                               *
                                   51863    6416.     *                                                                 *
                                   51864    6417.     *                                                                 *
                                   51865    6418.     *******************************************************************
-007EC6                            51867    6420.     DTDPWRIT PROC  INTERP,DPWWORK,SCOPE=LOCAL
 007EC6 C4E3C4D7E6D9C9E3           51872             +
 007ECE 0008/0020                  51873             +
 007ED2 900F D004/18AF       00004 51875             +
 USING  DTDPWRIT,R10
 007ED8 50D0 C000/18CD       00000 51890             +
 007EDE 9680 C000      00000       51892             +
 USING  INTERP-72,R12
 AUSING (DPWWORK,INTERP+8)
 007EE2 41D0 C070            00070 51911             +
 007EE6 5870 C048            00000 51912    6421.              L     RY,INTCPUB              Get the cpub address
 USING  CPUB,R7                    51913    6422.              WITH  (CPUB,RY)
                                   51926    6423.     *
                                   51927    6424.     *  Get parameter registers r1 and r1+1
                                   51928    6425.     *
 007EEA 4810 7156            00156 51929    6426.              LH    RS,SIEINST
 007EEE 8810 0004            00004 51930    6427.              SRL   RS,4                    Move r1 field to low order
 007EF2 5410 A2CA            0819C 51931    6428.              N     RS,=X'0000000F'         Isolate the r1 field
 007EF6 4410 A330            08202 51932    6429.              IF    ('EX RS,"TM  =X'01',0"',NZ),BEGIN See if even reg
 008201 00/9100 A32E   08200                         +
 007EFA 4780 A05E            07F30 51955             +
 007EFE 5810 7070/18E2       00070 51960  1 6430.                PIINT CODE=6,ILEN=4           Register not even
 USING  PZERO,R1
 007F04 B20B 0000                  51980  2          +
 007F08 B20A 0000/18F2 00000       51981  2          +
 007F0E 182E                       51983  2          +
 007F10 D207 1028 7118 00028 00118 51984  2          +
 007F16 D207 7118 1068 00118 00068 51985  2          +
 007F1C D201 108E A31C 0008E 081EE 51986  2          +
 007F22 D201 108C A316 0008C 081E8 51987  2          +
 007F28 B20A F000      00000       51990  1          +
 DROP   PZERO,R1
 007F2C 47F0 A22A            080FC 51999  1 6431.                EXIT  DTDPWRIT
 007F30                            52002    6432.              END   ,                       OF See if even reg
1GSTINTF  (GSTI00) (09:40) (22MAR04) IHAPSAE  - PSA Extension (ESAME)                                                       Page  285
0Current Usings:  (CPUB,R7) (DTDPWRIT,R10) (INTERP-72,R12)
0Loc    Object Code    Addr1 Addr2  Stmt Lv Lineno    Source Statement           (Hibal 5, Asmedit 3.3)  HLASM R4.0  2004/03/22 09.40
+___    ______ ____    _____ _____  ____ __ ______    ______ _________
0007F30 5910 A2CE            081A0 52006    6433.              LREGA RS,(RS)                 Get the address of the reg
 007F34 4720 A072            07F44 52012             +
 007F38 4740 A07A            07F4C 52013             +
 007F3C 4110 7110            00110 52014             +
 007F40 47F0 A082            07F54 52015             +
 007F44 4110 7114            00114 52016             +
 007F48 47F0 A082            07F54 52017             +
 007F4C 8910 0002            00002 52018             +
 007F50 4111 70BC            000BC 52019             +
 007F54 98EF 1000            00000 52022    6434.              LM    R14,R15,@RS             r1 and r1+1
 007F58 90EF C058            00008 52023    6435.              STM   R14,R15,DPWUADR         Caller's address and length
                                   52024    6436.     *
                                   52025    6437.     *  Validate user supplied length
                                   52026    6438.     *
 007F5C 12FF/47D0 A098       07F6A 52027    6439.              IF    ((R15,NP),OR,(R15,GT,235)),BEGIN See if length OK
 007F62 59F0 A30A            081DC 52051             +
 007F66 47D0 A0CA            07F9C 52052             +
 007F6A 5810 7070/18E2       00070 52057  1 6440.                PIINT CODE=6,ILEN=4           Length is not valid
 USING  PZERO,R1
 007F70 B20B 0000                  52077  2          +
 007F74 B20A 0000/18F2 00000       52078  2          +
 007F7A 182E                       52080  2          +
 007F7C D207 1028 7118 00028 00118 52081  2          +
 007F82 D207 7118 1068 00118 00068 52082  2          +
 007F88 D201 108E A31C 0008E 081EE 52083  2          +
 007F8E D201 108C A316 0008C 081E8 52084  2          +
 007F94 B20A F000      00000       52087  1          +
 DROP   PZERO,R1
 007F98 47F0 A22A            080FC 52096  1 6441.                EXIT  DTDPWRIT
 007F9C                            52099    6442.              END   ,                       OF See if length OK
                                   52103    6443.     *
                                   52104    6444.     *  Get parameter register r2
                                   52105    6445.     *
 007F9C 4810 7156            00156 52106    6446.              LH    RS,SIEINST
 007FA0 5410 A2CA            0819C 52107    6447.              N     RS,=X'0000000F'         Isolate the r2 field
 007FA4 5910 A2CE            081A0 52108    6448.              LREGA RS,(RS)                 Get the address of the reg
 007FA8 4720 A0E6            07FB8 52114             +
 007FAC 4740 A0EE            07FC0 52115             +
 007FB0 4110 7110            00110 52116             +
 007FB4 47F0 A0F6            07FC8 52117             +
 007FB8 4110 7114            00114 52118             +
 007FBC 47F0 A0F6            07FC8 52119             +
 007FC0 8910 0002            00002 52120             +
 007FC4 4111 70BC            000BC 52121             +
 007FC8 58E0 1000            00000 52124    6449.              L     R14,@RS                 r2
 007FCC 50E0 C054            00004 52125    6450.              ST    R14,DPTOKEN             MVS address
                                   52126    6451.     *
                                   52127    6452.     *  Check user area - page by page
                                   52128    6453.     *
 007FD0 5840 C058            00008 52129    6454.              L     RJ,DPWUADR              Get user address
 007FD4 5830 C05C            0000C 52130    6455.              L     RB,DPWLEN                and length
 007FD8 1B22                       52131    6456.              CLEAR RA                      Clear index
 007FDA                            52135    6457.              LOOP  BEGIN                   Test one page at a time
 007FDA 5850 A2BA            0818C 52141  1 6458.                L     RK,=A(4096)             Calculate
1GSTINTF  (GSTI00) (09:40) (22MAR04) IHAPSAE  - PSA Extension (ESAME)                                                       Page  286
0Current Usings:  (CPUB,R7) (DTDPWRIT,R10) (INTERP-72,R12)
0Loc    Object Code    Addr1 Addr2  Stmt Lv Lineno    Source Statement           (Hibal 5, Asmedit 3.3)  HLASM R4.0  2004/03/22 09.40
+___    ______ ____    _____ _____  ____ __ ______    ______ _________
0007FDE 1E54                       52142  1 6459.                ALR   RK,RJ
 007FE0 5450 A2BE            08190 52143  1 6460.                N     RK,=X'7FFFF000'          Length on
 007FE4 1B54                       52144  1 6461.                SR    RK,RJ                     this page
 007FE6 1953/47D0 A11C       07FEE 52145  1 6462.                CEIL  RK,RB                   Not more than total
 007FEC 1853                       52150  1          +
                                   52151  1 6463.     *
                                   52152  1 6464.     *  Validate user area
                                   52153  1 6465.     *
 USING  GVAPARM-72,R13             52154  1 6466.                PSET  GVAPARM
 007FEE D70B D048 D048 00000 00000 52171  1          +
 007FF4 5070 D048            00000 52172  1 6467.                ST    RY,GVACPUB              Set the CPUB pointer
 007FF8 5040 D04C            00004 52173  1 6468.                ST    RJ,GVAVLOC               Location
 007FFC 58F0 A2C2/0DEF       08194 52174  1 6469.                ACALL GVA
                                   52181  1 6470.     *
                                   52182  1 6471.     *  Area not in memory - cause a page fault
                                   52183  1 6472.     *
 008002 5900 A2C6            08198 52184  1 6473.                IF    (RVR,GT,4),BEGIN        Not currently in memory
 008006 47D0 A17A            0804C 52196  1          +
 00800A 5810 7070/18E2       00070 52201  2 6474.                  PIINT CODE=(RVR),EXA=GVAVLOC,ILEN=4,BACK=YES
 USING  PZERO,R1
 008010 B20B 0000                  52221  3          +
 008014 B20A 0000/18F2 00000       52222  3          +
 00801A 182E                       52224  3          +
 00801C D207 1028 7118 00028 00118 52225  3          +
 008022 D207 7118 1068 00118 00068 52226  3          +
 008028 4000 108E            0008E 52227  3          +
 00802C D203 1090 D04C 00090 00004 52228  3          +
 008032 D201 108C A316 0008C 081E8 52229  3          +
 008038 58E0 102C            0002C 52230  3          +
 00803C 4BE0 108C            0008C 52231  3          +
 008040 50E0 102C            0002C 52232  3          +
 008044 B20A F000      00000       52235  2          +
 DROP   PZERO,R1
 008048 47F0 A22A            080FC 52244  2 6475.                  EXIT  DTDPWRIT
 00804C                            52247  1 6476.                END   ,                       OF Not currently in memory
                                   52251  1 6477.     *
                                   52252  1 6478.     *  Save real locations and lengths
                                   52253  1 6479.     *
 00804C 5810 D050            00008 52254  1 6480.                L     RS,GVAMLOC              Get MVS virtual address
 008050 5012 C060            00010 52255  1 6481.                ST    RS,DPWLOCS(RA)          Save location
 008054 5052 C064            00014 52256  1 6482.                ST    RK,DPWLOCS+4(RA)         and length
 008058 1A45                       52257  1 6483.                AR    RJ,RK                   To next location
 00805A 1B35                       52258  1 6484.                SR    RB,RK                    reduce length remaining
 00805C 1233/47D0 A198       0806A 52259  1 6485.                IF    (RB,NP),EXIT            All done
 008062 4120 2008            00008 52276  1 6486.                LA    RA,@RA+8                Reset index
 008066 47F0 A108            07FDA 52277    6487.              END   ,                       OF Test one page at a time
                                   52282    6488.     *
                                   52283    6489.     *  Mark end of list
                                   52284    6490.     *
 00806A 4122 C060            00010 52285    6491.              LA    RA,DPWLOCS(RA)          List pointer
 00806E 9680 2000      00000       52286    6492.              SET   @RA.X'80'                Mark end
                                   52293    6493.     *
                                   52294    6494.     *  Get a buffer for the data
                                   52295    6495.     *
1GSTINTF  (GSTI00) (09:40) (22MAR04) IHAPSAE  - PSA Extension (ESAME)                                                       Page  287
0Current Usings:  (CPUB,R7) (DTDPWRIT,R10) (INTERP-72,R12) (GVAPARM-72,R13)
0Loc    Object Code    Addr1 Addr2  Stmt Lv Lineno    Source Statement           (Hibal 5, Asmedit 3.3)  HLASM R4.0  2004/03/22 09.40
+___    ______ ____    _____ _____  ____ __ ______    ______ _________
0008072 5850 C05C            0000C 52296    6496.              L     RK,DPWLEN               User data length
 DROP   GVAPARM-72,R13             52297    6497.              MEMGET  @RK,TYPE=(LOCAL,BELOW16M)
 USING  @MEMGET-72,R13
 008076 D709 D048 D048 00000 00000 52319             +
 00807C 4100 5000            00000 52326             +
 008080 5000 D04C            00004 52327             +
 008084 9201 D051      00009       52334             +
 008088 58F0 A2D6/0DEF       081A8 52337             +
 00808E 1840                       52339    6498.              LR    RJ,RVR
                                   52340    6499.     *
                                   52341    6500.     *  Move the user data to the buffer
                                   52342    6501.     *
 008090 1824                       52343    6502.              LR    RA,RJ
 008092 4110 C060            00010 52344    6503.              LA    RS,DPWLOCS
 008096                            52345    6504.              LOOP  BEGIN
 008096 98EF 1000            00000 52351  1 6505.                LM    R14,R15,@RS
 00809A 183F                       52352  1 6506.                LR    RB,R15                  Length of this portion
 00809C 0E2E                       52353  1 6507.                MVCL  RA,R14                  Move this portion
 00809E 9180 1000      00000       52354  1 6508.                IF    @RS.X'80',EXIT          End of list
 0080A2 4710 A1DC            080AE 52367  1          +
 0080A6 4110 1008            00008 52373  1 6509.                LA    RS,@RS+8                Next entry
 0080AA 47F0 A1C4            08096 52374    6510.              END   ,
 0080AE 5040 C050            00000 52379    6511.              ST    RJ,DPWADDR              MVS address
 DROP   @MEMGET-72,R13             52380    6512.              PSET  @SNDPPRM                Setup for VCALL
 USING  @SNDPPRM-72,R13
 0080B2 D70B D048 D048 00000 00000 52400             +
 0080B8 5040 D048            00000 52401    6513.              ST    RJ,@SNDADDR
 0080BC D203 D04C C05C 00004 0000C 52402    6514.              MVC   @SNDLEN,DPWLEN
 0080C2 D203 D050 C054 00008 00004 52403    6515.              MVC   @SNDTOKN,DPTOKEN
 0080C8 58F0 A30E/0DEF       081E0 52404    6516.              VCALL SNDPWRT                 Call Write routine
                                   52408    6517.     *  Release the buffer
                                   52409    6518.     *
 0080CE 94CF 711A      0011A       52410    6519.              NI    SIEPSW+2,X'CF'          Set CC 0
 0080D2 1200/4780 A20A       080DC 52411    6520.              IF    (RVR,NZ),'OI SIEPSW+2,X"1"'  set CC to 1
 0080D8 9601 711A      0011A       52426             +
 0080DC 5820 C050            00000 52431    6521.              L     RA,DPWADDR             MVS address
 0080E0 5810 C05C            0000C 52432    6522.              L     RS,DPWLEN               User data length
 DROP   @SNDPPRM-72,R13            52433    6523.              MEMFREE @RS,A=(RJ),TYPE=(LOCAL,BELOW16M)
 USING  @MEMFREE-72,R13
 0080E4 D709 D048 D048 00000 00000 52455             +
 0080EA 4100 1000            00000 52462             +
 0080EE 5000 D04C            00004 52463             +
 0080F2 5040 D048            00000 52464             +
 0080F6 58F0 A2FA/0DEF       081CC 52467             +
 0080FC 981F C008            00008 52469    6524.              PEND  ,
 DROP   CPUB,R7
 DROP   INTERP-72,R12
 DROP   DTDPWRIT,R10
 008100 9680 C000/0B0E 00000       52489             +
 DROP   @MEMFREE-72,R13
1GSTINTF  (GSTI00) (09:40) (22MAR04) IHAPSAE  - PSA Extension (ESAME)                                                       Page  288
0Loc    Object Code    Addr1 Addr2  Stmt Lv Lineno    Source Statement           (Hibal 5, Asmedit 3.3)  HLASM R4.0  2004/03/22 09.40
+___    ______ ____    _____ _____  ____ __ ______    ______ _________
0                                  52499    6526.     *******************************************************************
                                   52500    6527.     *    DTDPCLOS - This is a DIAGNOSE service routine.  It calls the *
                                   52501    6528.     *                I/O service routine to close and deallocate a    *
                                   52502    6529.     *                snap dump sysout data set.                       *
                                   52503    6530.     *                                                                 *
                                   52504    6531.     *                                                                 *
                                   52505    6532.     *      Input - r1 must contain the token for the dump data set to *
                                   52506    6533.     *              be closed.                                         *
                                   52507    6534.     *                                                                 *
                                   52508    6535.     *     Output - none                                               *
                                   52509    6536.     *                                                                 *
                                   52510    6537.     *                                                                 *
                                   52511    6538.     *******************************************************************
-008106                            52513    6540.     DTDPCLOS PROC  INTERP,DPWWORK,SCOPE=LOCAL
 008106 C4E3C4D7C3D3D6E2           52518             +
 00810E 0008/0020                  52519             +
 008112 900F D004/18AF       00004 52521             +
 USING  DTDPCLOS,R10
 008118 50D0 C000/18CD       00000 52536             +
 00811E 9680 C000      00000       52538             +
 USING  INTERP-72,R12
 AUSING (DPWWORK,INTERP+8)
 008122 41D0 C070            00070 52557             +
 008126 5870 C048            00000 52558    6541.              L     RY,INTCPUB              Get the cpub address
 USING  CPUB,R7                    52559    6542.              WITH  (CPUB,RY)
                                   52572    6543.     *
                                   52573    6544.     *  Get parameter register r1
                                   52574    6545.     *
 00812A 4810 7156            00156 52575    6546.              LH    RS,SIEINST
 00812E 8810 0004            00004 52576    6547.              SRL   RS,4                    Move r1 field to low order
 008132 5410 A08A            0819C 52577    6548.              N     RS,=X'0000000F'         Isolate the r1 field
 008136 5910 A08E            081A0 52578    6549.              LREGA RS,(RS)                 Get the address of the reg
 00813A 4720 A038            0814A 52584             +
 00813E 4740 A040            08152 52585             +
 008142 4110 7110            00110 52586             +
 008146 47F0 A048            0815A 52587             +
 00814A 4110 7114            00114 52588             +
 00814E 47F0 A048            0815A 52589             +
 008152 8910 0002            00002 52590             +
 008156 4111 70BC            000BC 52591             +
 00815A 58E0 1000            00000 52594    6550.              L     R14,@RS                 r1
 USING  @SNDPPRM-72,R13            52595    6551.              PSET  @SNDPPRM                Setup for call
 00815E D70B D048 D048 00000 00000 52612             +
 008164 50E0 D050            00008 52613    6552.              ST    R14,@SNDTOKN            Pass the token
 008168 58F0 A0D2/0DEF       081E4 52614    6553.              VCALL SNDPCLS                 Call close routine
 00816E 94CF 711A      0011A       52618    6554.              NI    SIEPSW+2,X'CF'          Set CC 0
 008172 1200/4780 A06A       0817C 52619    6555.              IF    (RVR,NZ),'OI SIEPSW+2,X"1"'  set CC to 1
 008178 9601 711A      0011A       52634             +
 00817C 981F C008            00008 52639    6556.              PEND  ,
 DROP   CPUB,R7
 DROP   INTERP-72,R12
 DROP   DTDPCLOS,R10
 008180 9680 C000/0B0E 00000       52659             +
 DROP   @SNDPPRM-72,R13
1GSTINTF  (GSTI00) (09:40) (22MAR04) IHAPSAE  - PSA Extension (ESAME)                                                       Page  289
0Loc    Object Code    Addr1 Addr2  Stmt Lv Lineno    Source Statement           (Hibal 5, Asmedit 3.3)  HLASM R4.0  2004/03/22 09.40
+___    ______ ____    _____ _____  ____ __ ______    ______ _________
0008188                            52668    6557.              LTORG ,
 008188 7FFFFFFF                   52670                             =X'7FFFFFFF'
 00818C 00001000                   52671                             =A(4096)
 008190 7FFFF000                   52672                             =X'7FFFF000'
 008194 00005180                   52673                             =A(GVA)
 008198 00000004                   52674                             =A(4)
 00819C 0000000F                   52675                             =X'0000000F'
 0081A0 0000000E                   52676                             =F'14'
 0081A4 00000FFF                   52677                             =X'00000FFF'
 0081A8 00000000                   52678                             =V(MEMGET)
 0081AC 00000000                   52679                             =V(SEGINIT)
 0081B0 00000000                   52680                             =V(SEG)
 0081B4 00000000                   52681                             =V(SEGHEX)
 0081B8 00008000                   52682                             =X'00008000'
 0081BC 00000010                   52683                             =A(16)
 0081C0 00000000                   52684                             =V(BTDBTD)
 0081C4 00000001                   52685                             =A(1)
 0081C8 00000000                   52686                             =V(SEGCORE)
 0081CC 00000000                   52687                             =V(MEMFREE)
 0081D0 0000000F                   52688                             =A(15)
 0081D4 0000007E                   52689                             =A(@DWTLMAX)
 0081D8 00000000                   52690                             =V(SNDPALLO)
 0081DC 000000EB                   52691                             =A(235)
 0081E0 00000000                   52692                             =V(SNDPWRT)
 0081E4 00000000                   52693                             =V(SNDPCLS)
 0081E8 0004                       52694                             =Y(4)
 0081EA 4040                       52695                             =C'  '
 0081EC 0FFF                       52696                             =X'FFF'
 0081EE 0006                       52697                             =Y(6)
 0081F0 D699A5A295819740           52698                             =C'Orvsnap at '
 0081FB 7A                         52699                             =C':'
 0081FC D9                         52700                             =C'R'
 0081FD 407E40                     52701                             =C' = '
 008200 01             08206 08402 52702                             =X'01'
1GSTINTF  (GSTI00) (09:40) (22MAR04) IHAPSAE  - PSA Extension (ESAME)                                                       Page  290
0Loc    Object Code    Addr1 Addr2  Stmt Lv Lineno    Source Statement           (Hibal 5, Asmedit 3.3)  HLASM R4.0  2004/03/22 09.40
+___    ______ ____    _____ _____  ____ __ ______    ______ _________
0                                  52707    6559.     *******************************************************************
                                   52708    6560.     *    DTERMCOM - This is a DIAGNOSE service routine. It signals    *
                                   52709    6561.     *                the termination process that guest termination   *
                                   52710    6562.     *                routines have been completed.                    *
                                   52711    6563.     *                                                                 *
                                   52712    6564.     *     Input  - none                                               *
                                   52713    6565.     *                                                                 *
                                   52714    6566.     *     Output - none                                               *
                                   52715    6567.     *                                                                 *
                                   52716    6568.     *******************************************************************
-008206                            52718    6570.     DTERMCOM PROC  INTERP,SCOPE=LOCAL
 008206 C4E3C5D9D4C3D6D4           52723             +
 00820E 0008/0000                  52724             +
 008212 900F D004/18AF       00004 52726             +
 USING  DTERMCOM,R10
 008218 50D0 C000/18CD       00000 52741             +
 00821E 9680 C000      00000       52743             +
 USING  INTERP-72,R12
 008222 41D0 C050            00050 52757             +
 008226 5870 C048            00000 52758    6571.              L     RY,INTCPUB              Get the CPUB address
 USING  CPUB,R7                    52759    6572.              WITH  (CPUB,RY)
 00822A 5860 7004            00004 52772    6573.              L     RX,CPGSTCT              Point to the GSTCT
 USING  GSTCT,R6                   52773    6574.              WITH  (GSTCT,RX)
 USING  @FPOST-72,R13              52786    6575.              FPOST LA:GSTCTECB             Post termination done
 00822E D703 D048 D048 00000 00000 52804             +
 008234 41E0 6078            00078 52809             +
 008238 50E0 D048            00000 52810             +
 00823C 58F0 A1CE/0DEF       083E0 52813             +
 008242 981F C008            00008 52815    6576.              PEND  ,
 DROP   GSTCT,R6
 DROP   CPUB,R7
 DROP   INTERP-72,R12
 DROP   DTERMCOM,R10
 008246 9680 C000/0B0E 00000       52840             +
 DROP   @FPOST-72,R13
1GSTINTF  (GSTI00) (09:40) (22MAR04) IHAPSAE  - PSA Extension (ESAME)                                                       Page  291
0Loc    Object Code    Addr1 Addr2  Stmt Lv Lineno    Source Statement           (Hibal 5, Asmedit 3.3)  HLASM R4.0  2004/03/22 09.40
+___    ______ ____    _____ _____  ____ __ ______    ______ _________
0                                  52850    6578.     *******************************************************************
                                   52851    6579.     *                                                                 *
                                   52852    6580.     *   DTNOTDMP  - This is a DIAGNOSE service routine.  It adds a    *
                                   52853    6581.     *               range of address to not include in a guest dump   *
                                   52854    6582.     *               to a table of ranges.                             *
                                   52855    6583.     *                                                                 *
                                   52856    6584.     *      Input - INTERP dsect                                       *
                                   52857    6585.     *                                                                 *
                                   52858    6586.     *     Output - None                                               *
                                   52859    6587.     *                                                                 *
                                   52860    6588.     *******************************************************************
-00824C                            52862    6590.     DTNOTDMP PROC  INTERP,SCOPE=LOCAL
 00824C C4E3D5D6E3C4D4D7           52867             +
 008254 0008/0000                  52868             +
 008258 900F D004/18AF       00004 52870             +
 USING  DTNOTDMP,R10
 00825E 50D0 C000/18CD       00000 52885             +
 008264 9680 C000      00000       52887             +
 USING  INTERP-72,R12
 008268 41D0 C050            00050 52901             +
 00826C 5870 C048            00000 52902    6591.              L     RY,INTCPUB              Parm is the CPUB pointer
 USING  CPUB,R7                    52903    6592.              WITH  (CPUB,RY)
                                   52916    6593.     *
                                   52917    6594.     *  Get the first address
                                   52918    6595.     *
 008270 4810 7156            00156 52919    6596.              LH    RS,SIEINST
 008274 8810 0004            00004 52920    6597.              SRL   RS,4                    Move r1 field to low order
 008278 5410 A18C            083E4 52921    6598.              N     RS,=X'0000000F'         Isolate the r1 field
 00827C 5910 A190            083E8 52922    6599.              LREGA RS,(RS)                 Get the Address of the Reg
 008280 4720 A038            08290 52928             +
 008284 4740 A040            08298 52929             +
 008288 4110 7110            00110 52930             +
 00828C 47F0 A048            082A0 52931             +
 008290 4110 7114            00114 52932             +
 008294 47F0 A048            082A0 52933             +
 008298 8910 0002            00002 52934             +
 00829C 4111 70BC            000BC 52935             +
 0082A0 5820 1000            00000 52938    6600.              L     RA,@RS                  Get first address
 0082A4 5830 A194            083EC 52939    6601.              L     RB,=A(16*1024*1024)     Only do Global system High
 0082A8 1923/4740 A0C2       0831A 52940    6602.              IF    (RA,LT,RB),EXIT
                                   52958    6603.     *
                                   52959    6604.     *  Get the length
                                   52960    6605.     *
 0082AE 4810 7156            00156 52961    6606.              LH    RS,SIEINST
 0082B2 5410 A18C            083E4 52962    6607.              N     RS,=X'0000000F'         Isolate the r2 field
 0082B6 5910 A190            083E8 52963    6608.              LREGA RS,(RS)                 Get the Address of the Reg
 0082BA 4720 A072            082CA 52969             +
 0082BE 4740 A07A            082D2 52970             +
 0082C2 4110 7110            00110 52971             +
 0082C6 47F0 A082            082DA 52972             +
 0082CA 4110 7114            00114 52973             +
 0082CE 47F0 A082            082DA 52974             +
 0082D2 8910 0002            00002 52975             +
 0082D6 4111 70BC            000BC 52976             +
1GSTINTF  (GSTI00) (09:40) (22MAR04) IHAPSAE  - PSA Extension (ESAME)                                                       Page  292
0Current Usings:  (CPUB,R7) (DTNOTDMP,R10) (INTERP-72,R12)
0Loc    Object Code    Addr1 Addr2  Stmt Lv Lineno    Source Statement           (Hibal 5, Asmedit 3.3)  HLASM R4.0  2004/03/22 09.40
+___    ______ ____    _____ _____  ____ __ ______    ______ _________
00082DA 5830 1000            00000 52979    6609.              L     RB,@RS                  Get length
                                   52980    6610.     *
                                   52981    6611.     *  Remove partial pages on both ends of range
                                   52982    6612.     *
 0082DE 1A32                       52983    6613.              AR    RB,RA                   Point to end of not dump
 0082E0 4122 0FFF            00FFF 52984    6614.              LA    RA,4095(RA)
 0082E4 5420 A198            083F0 52985    6615.              N     RA,=X'7FFFF000'         No partial pages
 0082E8 5430 A198            083F0 52986    6616.              N     RB,=X'7FFFF000'         No partial pages
 0082EC 5B30 A19C            083F4 52987    6617.              S     RB,=X'00001000'         Back up to last page to not dump
 0082F0 1932/4740 A0C2       0831A 52988    6618.              IF    (RB,LT,RA),EXIT         No complete pages to not dump
                                   53006    6619.     *
                                   53007    6620.     *  Update the not dump table
                                   53008    6621.     *
 0082F6 5860 7004            00004 53009    6622.              L     RX,CPGSTCT              GSTCT
 USING  GSTCT,R6                   53010    6623.              WITH  (GSTCT,RX)
 0082FA 58E0 6094            00094 53023    6624.              L     R14,GSTCNOTC
 0082FE 59E0 A1A0            083F8 53024    6625.              IF    (R14,GE,=A(GSTCNOTM)),EXIT No more room for entries
 008302 47A0 A0C2            0831A 53037             +
 008306 41F0 E001            00001 53043    6626.              LA    R15,@R14+1
 00830A 50F0 6094            00094 53044    6627.              ST    R15,GSTCNOTC            Update count
 00830E 4CE0 A1A8            08400 53045    6628.              MH    R14,=Y(L'GSTCNOTI)      Calc disp to next item
 008312 502E 6098            00098 53046    6629.              ST    RA,GSTCNOTF(R14)        Save first page
 008316 503E 609C            0009C 53047    6630.              ST    RB,GSTCNOTL(R14)        Save last page
 00831A 981F C008            00008 53048    6631.              PEND  ,
 DROP   GSTCT,R6
 DROP   CPUB,R7
 DROP   INTERP-72,R12
 DROP   DTNOTDMP,R10
 00831E 9680 C000/0B0E 00000       53073             +
1GSTINTF  (GSTI00) (09:40) (22MAR04) IHAPSAE  - PSA Extension (ESAME)                                                       Page  293
0Loc    Object Code    Addr1 Addr2  Stmt Lv Lineno    Source Statement           (Hibal 5, Asmedit 3.3)  HLASM R4.0  2004/03/22 09.40
+___    ______ ____    _____ _____  ____ __ ______    ______ _________
0                                  53080    6633.     *******************************************************************
                                   53081    6634.     *   SETCLOCK - This routine will reset the local time offset for  *
                                   53082    6635.     *              all guest CPUs.                                    *
                                   53083    6636.     *                                                                 *
                                   53084    6637.     *     Input  - none                                               *
                                   53085    6638.     *                                                                 *
                                   53086    6639.     *     Output - none                                               *
                                   53087    6640.     *                                                                 *
                                   53088    6641.     *******************************************************************
-008324                            53090    6643.     SETCLOCK PROC  @FUNCPRM,SCOPE=GLOBAL
 008324 E2C5E3C3D3D6C3D2           53096             +
 00832C 0008/0000                  53097             +
 008330 900F D004/18AF       00004 53099             +
 USING  SETCLOCK,R10
 008336 50D0 C000/18CD       00000 53114             +
 00833C 9680 C000      00000       53116             +
 USING  @FUNCPRM-72,R12
 008340 41D0 C050            00050 53130             +
 008344 5860 C048            00000 53131    6644.              L     RX,@FUNCDTA         Get the RUCT Address
 USING  GSTCT,R6                   53132    6645.              WITH  (GSTCT,RX)
 008348 5870 6004            00004 53145    6646.              L     RY,GSTCNCPU         Number of CPUs
 00834C                            53146    6647.              LOOP  BEGIN
 00834C 5800 6038/1200       00038 53152  1 6648.                IF    ('LT R0,GSTCCPUS',Z),EXIT
 008352 4780 A034            08364 53165  1          +
 008356 58F0 A0CC/0DEF       083FC 53171  1 6649.                ACALL SETCLOC2
 00835C 4160 6004            00004 53178  1 6650.                LA    RX,GSTCT+L'GSTCCPUS Increment to next CPU
 008360 4670 A01C            0834C 53179    6651.              UNTIL (BCT,RY),END        For all CPUs
 008364 981F C008            00008 53189    6652.              PEND ,
 DROP   GSTCT,R6
 DROP   @FUNCPRM-72,R12
 DROP   SETCLOCK,R10
 008368 9680 C000/0B0E 00000       53209             +
                                   53215    6653.     *******************************************************************
                                   53216    6654.     *    SETCLOC2 - This routine will periotically set the guest      *
                                   53217    6655.     *                local time offset.                               *
                                   53218    6656.     *                                                                 *
                                   53219    6657.     *     Input  - R0 contains CPUB pointer                           *
                                   53220    6658.     *                                                                 *
                                   53221    6659.     *     Output - none                                               *
                                   53222    6660.     *                                                                 *
                                   53223    6661.     *******************************************************************
-00836E                            53225    6663.     SETCLOC2 PROC  SCOPE=LOCAL
 00836E E2C5E3C3D3D6C3F2           53230             +
 008376 0000/0000                  53231             +
 00837A 900F D004/18AF       00004 53233             +
 USING  SETCLOC2,R10
 008380 50D0 C000/18CD       00000 53248             +
 008386 9680 C000      00000       53250             +
 00838A 41D0 C048            00048 53251             +
 00838E 1870                       53252    6664.              LR    RY,R0
 USING  CPUB,R7                    53253    6665.              WITH  (CPUB,RY)
 008390 5860 0010            00010 53266    6666.              L     RX,CVTPTR
1GSTINTF  (GSTI00) (09:40) (22MAR04) IHAPSAE  - PSA Extension (ESAME)                                                       Page  294
0Current Usings:  (CPUB,R7) (SETCLOC2,R10)
0Loc    Object Code    Addr1 Addr2  Stmt Lv Lineno    Source Statement           (Hibal 5, Asmedit 3.3)  HLASM R4.0  2004/03/22 09.40
+___    ______ ____    _____ _____  ____ __ ______    ______ _________
0008394 5860 6148            00148 53267    6667.              WITH  (CVT,RX),'L RX,CVTEXT2'
 USING  CVT,R6
 DROP   CVT,R6
 USING  CVTXTNT2,R6                53291    6668.              WITH  (CVTXTNT2,RX)
 008398 9889 6038            00038 53304    6669.              LM    RM,RN,CVTLDTO
 00839C 5F90 6054            00054 53305    6670.              SDL   RM,CVTLSO
 0083A0 47B0 A02C/0680       083A6 53307             +
 0083A6 5F80 6050            00050 53309             +
 0083AA 5840 7070            00070 53310    6671.              L     RJ,CPPSALOC
 0083AE B20B 0000                  53311    6672.              MODESET EXTKEY=ZERO,SAVEKEY=(2)
 0083B2 B20A 0000      00000       53314             +
 USING  PZERO,R4                   53315    6673.              WITH  (PZERO,RJ)
 0083B6 9089 4220            00220 53328    6674.              STM   RM,RN,PZTZOFF       Set local time offset
 0083BA B20A 2000      00000       53329    6675.              MODESET KEYADDR=(2)
 0083BE 981F C008            00008 53332    6676.              PEND  ,
 DROP   PZERO,R4
 DROP   CVTXTNT2,R6
 DROP   CPUB,R7
 DROP   SETCLOC2,R10
 0083C2 9680 C000/0B0E 00000       53357             +
1GSTINTF  (GSTI00) (09:40) (22MAR04) IHAPSAE  - PSA Extension (ESAME)                                                       Page  295
0Loc    Object Code    Addr1 Addr2  Stmt Lv Lineno    Source Statement           (Hibal 5, Asmedit 3.3)  HLASM R4.0  2004/03/22 09.40
+___    ______ ____    _____ _____  ____ __ ______    ______ _________
0                                  53364    6678.     *******************************************************************
                                   53365    6679.     *                                                                 *
                                   53366    6680.     *    AM24PARM - AMODE 24 Cap routine request parameters           *
                                   53367    6681.     *                                                                 *
                                   53368    6682.     *******************************************************************
0000000                00000 00094 53370    6684.     @AM24    RECORD BEGIN
 000000                            53378  1 6685.     @AM24SVA   DS    18A                     Save area
 000048                            53379  1 6686.     @AM24PRM   DS    3A                      Parameters for MVS service
                                   53380  1 6687.     @AM24R15   EQU   @AM24PRM,4,C'A'         Parameter register 15
                                   53381  1 6688.     @AM24R0    EQU   @AM24PRM+4,4,C'A'       Parameter register 0
                                   53382  1 6689.     @AM24R1    EQU   @AM24PRM+8,4,C'A'       Parameter register 1
 000054                            53383  1 6690.     @AM24CRS   DS    16A                     Caller's registers
 000094                00094 00094 53384    6691.              END   ,
1GSTINTF  (GSTI00) (09:40) (22MAR04) IHAPSAE  - PSA Extension (ESAME)                                                       Page  296
0Loc    Object Code    Addr1 Addr2  Stmt Lv Lineno    Source Statement           (Hibal 5, Asmedit 3.3)  HLASM R4.0  2004/03/22 09.40
+___    ______ ____    _____ _____  ____ __ ______    ______ _________
0                                  53394    6693.     *******************************************************************
                                   53395    6694.     *                                                                 *
                                   53396    6695.     *   AM24CAP - Cap routine for MVS I/O services which must be      *
                                   53397    6696.     *             entered in AMODE 24.                                *
                                   53398    6697.     *                                                                 *
                                   53399    6698.     *     Input - @AM24 in R1                                         *
                                   53400    6699.     *                                                                 *
                                   53401    6700.     *    Output - As defined by MVS service                           *
                                   53402    6701.     *                                                                 *
                                   53403    6702.     *******************************************************************
-
 0083C8                            53405    6704.     AM24CAP  LABEL ,
 USING  @AM24,R1                   53407    6705.              USING @AM24,R1
 0083C8 902E 1054            00054 53416    6706.              STM   R2,R14,@AM24CRS         Save caller's registers
 0083CC 18D1                       53417    6707.              LR    R13,R1                  Establish save area pointer
 0083CE 98F1 1048            00048 53418    6708.              LM    R15,R1,@AM24PRM         MVS service parms
 DROP   @AM24,R1                   53419    6709.              DROP  R1
 0083D2 05EF                       53426    6710.              BALR  R14,R15                 Branch to MVS service
 USING  @AM24,R13                  53427    6711.              USING @AM24,R13
 0083D4 982E D054            00054 53436    6712.              LM    R2,R14,@AM24CRS         Restore caller's registers
 DROP   @AM24,R13                  53437    6713.              DROP  R13
 0083D8 0B0E                       53444    6714.              BSM   0,R14                   Return to caller
-                                  53446    6716.     AM24     EQU   AM24CAP,*-AM24CAP,C'X'   Length of capping routine
1GSTINTF  (GSTI00) (09:40) (22MAR04) IHAPSAE  - PSA Extension (ESAME)                                                       Page  297
0Loc    Object Code    Addr1 Addr2  Stmt Lv Lineno    Source Statement           (Hibal 5, Asmedit 3.3)  HLASM R4.0  2004/03/22 09.40
+___    ______ ____    _____ _____  ____ __ ______    ______ _________
0                                  53448    6718.     *
                                   53449    6719.     * LOADPARM - This data area lives below the line and has all the
                                   53450    6720.     *            information for the three load diagnose routines.
                                   53451    6721.     *
 000000                00000 02168 53452    6722.     LOADPARM RECORD BEGIN
 000000                            53460  1 6723.     LAM24      DS    XL(L'AM24)              AM24 cap routine
 000014                            53461  1 6724.                DS    0F
 000014                            53462  1 6725.     LAMPARM    DS    XL(L'@AM24)             AM24 parm
                                   53463  1 6726.     LOPENP     OPEN  (,),MF=L                Open parameter list
 0000A8                            53464  1 01-OPEN  +LOPENP     DC    0F'0'                             ALIGN LIST TO FULLWORD
 0000A8 80                         53465  1 01-OPEN  +           DC    AL1(128)                     OPTION BYTE
 0000A9 000000                     53466  1 01-OPEN  +           DC    AL3(0)                       DCB ADDRESS
 0000AC                            53467  1 6727.     LDECB      DS    XL(L'MODDECB)           DECB for read/check
 0000C0                            53468  1 6728.     LDCB       DS    XL(L'MODDCB)            DCB
 000118                            53469  1 6729.     LBLDL      DS    XL(L'MODBLDL)           BLDL list
                                   53470  1 6730.     LKMOD      EQU   LBLDL+4,8,C'C'          Module name
                                   53471  1 6731.     LTTRK      EQU   LBLDL+4+8,4,C'A'        Track address of the module
                                   53472  1 6732.     LMLEN      EQU   LBLDL+4+24,3,C'A'       Total length of the module
                                   53473  1 6733.     LMEPA      EQU   LBLDL+4+29,3,C'A'       Entry point address
 000168                            53474  1 6734.                DS    0D
 000168                            53475  1 6735.     LBUFFER    DS    8192X                   Input buffer
 002168                02168 02168 53476    6736.              END   ,
                                   53485    6737.     *
                                   53486    6738.     * PROFPARM - This data area lives below the line and has all the
                                   53487    6739.     *            information for the profiling function.
                                   53488    6740.     *
 000000                00000 00128 53489    6741.     PROFPARM RECORD BEGIN
 000000                            53497  1 6742.     PAM24      DS    XL(L'AM24)              AM24 cap routine
 000014                            53498  1 6743.                DS    0F
 000014                            53499  1 6744.     PAMPARM    DS    XL(L'@AM24)             AM24 parm
                                   53500  1 6745.     POPENP     OPEN  (,OUTPUT),MF=L          Open parameter list
 0000A8                            53501  1 01-OPEN  +POPENP     DC    0F'0'                             ALIGN LIST TO FULLWORD
 0000A8 8F                         53502  1 01-OPEN  +           DC    AL1(143)                     OPTION BYTE
 0000A9 000000                     53503  1 01-OPEN  +           DC    AL3(0)                       DCB ADDRESS
 0000AC                            53504  1 6746.     PDCB       DS    XL(L'PROFDCB)           DCB
                                   53505  1 6747.     *
                                   53506  1 6748.     * Profile output record.
                                   53507  1 6749.     *
 000110                            53508  1 6750.     PROFOUT    DS    0D
 000110                            53509  1 6751.     PROFCPUA   DS    X                       CPU address
 000111                            53510  1 6752.     PROFICOD   DS    X                       Intercept code
 000112                            53511  1 6753.     PROFINST   DS    H                       Intercepted instruction
 000114                            53512  1 6754.     PROFHIA    DS    A                       Host instruction address
 000118                            53513  1 6755.     PROFPSW    DS    D                       Current PSW
 000120                            53514  1 6756.     PROFTOD    DS    D                       TOD clock value
                                   53515  1 6757.     PROFDATA   EQU   PROFOUT,*-PROFOUT,C'X'  Profile output data
 000128                00128 00128 53516    6758.              END   ,
 0083E0                            53525    6759.              END   .
 0083E0 00000000                   53528                             =V(FPOST)
 0083E4 0000000F                   53529                             =X'0000000F'
 0083E8 0000000E                   53530                             =F'14'
 0083EC 01000000                   53531                             =A(16*1024*1024)
 0083F0 7FFFF000                   53532                             =X'7FFFF000'
 0083F4 00001000                   53533                             =X'00001000'
 0083F8 00000010                   53534                             =A(GSTCNOTM)
 0083FC 0000837A                   53535                             =A(SETCLOC2)
1GSTINTF  (GSTI00) (09:40) (22MAR04) IHAPSAE  - PSA Extension (ESAME)                                                       Page  298
0Loc    Object Code    Addr1 Addr2  Stmt Lv Lineno    Source Statement           (Hibal 5, Asmedit 3.3)  HLASM R4.0  2004/03/22 09.40
+___    ______ ____    _____ _____  ____ __ ______    ______ _________
0008400 0008           08402 08402 53536                             =Y(L'GSTCNOTI)

1GSTINTF  (GSTI00) (09:40) (22MAR04) Ordinary Symbol and Literal Cross Reference                                            Page  299
-Symbol   Length   Value     Id    R Type   Defn References                                  HLASM R4.0  2004/03/22 09.40
0$$$@R0        1 00000000 FFFFFFFE     J     714  1010
 $$$@R1        1 00000000 FFFFFFFD     J     727  1022
 $$$@R10       1 00000000 FFFFFFF4     J     844  1142
 $$$@R11       1 00000000 FFFFFFF3     J     857  1154
 $$$@R12       1 00000000 FFFFFFF2     J     870  1166
 $$$@R13       1 00000000 FFFFFFF1     J     883  1178
 $$$@R14       1 00000000 FFFFFFF0     J     896  1190
 $$$@R15       1 00000000 FFFFFFEF     J     909  1202
 $$$@R2        1 00000000 FFFFFFFC     J     740  1034
 $$$@R3        1 00000000 FFFFFFFB     J     753  1046
 $$$@R4        1 00000000 FFFFFFFA     J     766  1058
 $$$@R5        1 00000000 FFFFFFF9     J     779  1070
 $$$@R6        1 00000000 FFFFFFF8     J     792  1082
 $$$@R7        1 00000000 FFFFFFF7     J     805  1094
 $$$@R8        1 00000000 FFFFFFF6     J     818  1106
 $$$@R9        1 00000000 FFFFFFF5     J     831  1118   1130
 $$$C1GSTINTF
               1 000009BA 00000001     J   13769 13771  13802  14993
 $$$C10GSTINTF
               1 00005B06 00000001     J   40155 40157  40185  40293  40390  40975  40996  41110  41286  41918  41946
                                                 42084  42599  42627  43325  43367  43477  43653  44260
 $$$C11GSTINTF
               1 00006940 00000001     J   44315 44317  44364  44453  44550  45202  45618  45716  46458  47322  47348
                                                 47379
 $$$C12GSTINTF
               1 000072F0 00000001     J   47400 47402  49801  50483  51822  51843  51953
 $$$C13GSTINTF
               1 00008206 00000001     J   52703 52705  53391  53483  53523
 $$$C14GSTINTF
               1 00008402 00000001     J   53537 53539
 $$$C2GSTINTF
               1 00001A2B 00000001     J   19110 19112  19154
 $$$C3GSTINTF
               1 000024F0 00000001     J   23464 23466  23495
 $$$C4GSTINTF
               1 000028E4 00000001     J   24993 24995  25026
 $$$C5GSTINTF
               1 000032C0 00000001     J   28345 28347  30570  30589  30924  30943  31513  31532
 $$$C6GSTINTF
               1 000040A8 00000001     J   31655 31657
 $$$C7GSTINTF
               1 000041D4 00000001     J   32069 32071  32100  32485  32504
 $$$C8GSTINTF
               1 00005054 00000001     J   36549 36551  36580  36984  37155
 $$$C9GSTINTF
               1 0000533C 00000001     J   37779 37781  37812  38074  38093
 $$$D0GSTINTF
               1 0000096C 00000001     J    1221 12411  12962  13108  13246
 $$$D10GSTINTF
               1 000068A2 00000001     J   40156 40282  40379  40985  41099  41275  41928  42073  43466  43642  44249
 $$$D11GSTINTF
               1 000072D7 00000001     J   44316 44442  44539  45191  45607  45705  46447
 $$$D12GSTINTF
               1 00008201 00000001     J   47401 51942
 $$$D5GSTINTF
1GSTINTF  (GSTI00) (09:40) (22MAR04) Ordinary Symbol and Literal Cross Reference                                            Page  300
               1 00004097 00000001     J   28346 30560  30578  30914  30932  31503  31521
 $$$D7GSTINTF
               1 0000504E 00000001     J   32070 32475  32493
 $$$D9GSTINTF
               1 00005B00 00000001     J   37780 38064  38082
 $$$R#DISP1
               1 00000000 FFFFFFAA     J   13786 13801  13801
 $$$R#GDWA
               1 00000000 FFFFFFA9     J   14979 14992  14992
 $$$R@AM24
               1 00000000 FFFFFF91     J   53372 53390  53390
 $$$R@BTD      1 00000000 FFFFFFDC     J    8000  8030   8030
 $$$R@BTS      1 00000000 FFFFFFDA     J    8060  8077   8077
 $$$R@BTX      1 00000000 FFFFFFDB     J    8036  8054   8054
 $$$R@CANTASK
               1 00000000 FFFFFFE0     J    7886  7899   7899
 $$$R@CPTIME
               1 00000000 FFFFFFD9     J    8089  8104   8104
 $$$R@DOWTO
               1 00000000 FFFFFFB0     J   10598 10636  10636
 $$$R@DSALLO
               1 00000000 FFFFFFC1     J    9123  9205   9205
 $$$R@DSDALLO
               1 00000000 FFFFFFC2     J    9098  9111   9111
 $$$R@DTB      1 00000000 FFFFFFDF     J    7905  7930   7930
 $$$R@DUMPPRM
               1 00000000 FFFFFFD6     J    8179  8193   8193
 $$$R@FIXPARM
               1 00000000 FFFFFFD8     J    8116  8140   8140
 $$$R@FPOST
               1 00000000 FFFFFFC8     J    8801  8814   8814
 $$$R@FUNCPRM
               1 00000000 FFFFFFD7     J    8156  8169   8169
 $$$R@FWAIT
               1 00000000 FFFFFFC4     J    8998  9011   9011
 $$$R@GSTIIOT
               1 00000000 FFFFFFB8     J    9481  9495   9495
 $$$R@IORB
               1 00000000 FFFFFFBA     J    9414  9433   9433
 $$$R@IOUPARM
               1 00000000 FFFFFFB9     J    9445  9468   9468
 $$$R@LOCKCRE
               1 00000000 FFFFFFCB     J    8582  8604   8604
 $$$R@LOCKS
               1 00000000 FFFFFFCA     J    8610  8623   8623
 $$$R@MEMFREE
               1 00000000 FFFFFFD2     J    8381  8444   8444
 $$$R@MEMGET
               1 00000000 FFFFFFD3     J    8297  8369   8369
 $$$R@MEMINIT
               1 00000000 FFFFFFD4     J    8228  8285   8285
 $$$R@MEMORY
               1 00000000 FFFFFFC9     J    8635  8789   8789
 $$$R@MSGATT
               1 00000000 FFFFFFD1     J    8450  8464   8464
 $$$R@MSGCAN
               1 00000000 FFFFFFCC     J    8556  8570   8570
 $$$R@MSGFREE
               1 00000000 FFFFFFCD     J    8536  8550   8550
1GSTINTF  (GSTI00) (09:40) (22MAR04) Ordinary Symbol and Literal Cross Reference                                            Page  301
 $$$R@MSGGBUF
               1 00000000 FFFFFFD0     J    8470  8484   8484
 $$$R@MSGRECV
               1 00000000 FFFFFFCE     J    8513  8530   8530
 $$$R@MSGSEND
               1 00000000 FFFFFFCF     J    8490  8507   8507
 $$$R@MVSENQ
               1 00000000 FFFFFF9A     J   43337 43366  43366
 $$$R@PARMDO
               1 00000000 FFFFFFB7     J    9508  9524   9524
 $$$R@SEG      1 00000000 FFFFFFC0     J    9212  9267   9267
 $$$R@SEGCOL
               1 00000000 FFFFFFBE     J    9295  9309   9309
 $$$R@SEGCORE
               1 00000000 FFFFFFBD     J    9315  9362   9362
 $$$R@SEGINIT
               1 00000000 FFFFFFBF     J    9273  9289   9289
 $$$R@SEGRTN
               1 00000000 FFFFFFBC     J    9368  9381   9381
 $$$R@SEGSTK
               1 00000000 FFFFFFBB     J    9387  9401   9401
 $$$R@SNDPPRM
               1 00000000 FFFFFF92     J   51827 51842  51842
 $$$R@SPAWN
               1 00000000 FFFFFFC6     J    8851  8869   8869
 $$$R@STB      1 00000000 FFFFFFDD     J    7967  7994   7994
 $$$R@TERMPRM
               1 00000000 FFFFFFD5     J    8203  8216   8216
 $$$R@TRACE
               1 00000000 FFFFFFC5     J    8881  8986   8986
 $$$R@XTB      1 00000000 FFFFFFDE     J    7936  7961   7961
 $$$RCPUB      1 00000000 FFFFFFB2     J   10044 10112  10546  10546
 $$$RDGATWA
               1 00000000 FFFFFFA7     J   23481 23494  23494
 $$$RDGTRWA
               1 00000000 FFFFFFA6     J   25010 25025  25025
 $$$RDGVMPARM
               1 00000000 FFFFFFAF     J   10642 10671  10671
 $$$RDGVWA
               1 00000000 FFFFFFA8     J   19126 19153  19153
 $$$RDPWWORK
               1 00000000 FFFFFF93     J   51804 51821  51821
 $$$RDWTOWORK
               1 00000000 FFFFFF94     J   50468 50482  50482
 $$$RFRIOCBP
               1 00000000 FFFFFFA3     J   36969 36983  36983
 $$$RGETCPUP
               1 00000000 FFFFFFAD     J   12088 12101  12101
 $$$RGSTCT
               1 00000000 FFFFFFB3     J    9970 10030  10030
 $$$RGSTIPARM
               1 00000000 FFFFFFB5     J    9597  9616   9616
 $$$RGTIOCBP
               1 00000000 FFFFFFA4     J   36566 36579  36579
 $$$RGVAPARM
               1 00000000 FFFFFFA2     J   37139 37154  37154
 $$$RINTERP
               1 00000000 FFFFFFA5     J   32086 32099  32099
 $$$RIOCB      1 00000000 FFFFFFB1     J   10558 10586  10586
1GSTINTF  (GSTI00) (09:40) (22MAR04) Ordinary Symbol and Literal Cross Reference                                            Page  302
 $$$RLOADIP
               1 00000000 FFFFFFA1     J   37798 37811  37811
 $$$RLOADPARM
               1 00000000 FFFFFF90     J   53454 53482  53482
 $$$RMVEWORK
               1 00000000 FFFFFF9B     J   43305 43324  43324
 $$$RMVNWORK
               1 00000000 FFFFFF9E     J   41901 41917  41917
 $$$RMVRWORK
               1 00000000 FFFFFFA0     J   40167 40184  40184
 $$$RMVWWORK
               1 00000000 FFFFFF9F     J   40955 40974  40974
 $$$ROMEMP
               1 00000000 FFFFFFAE     J   11857 11871  11871
 $$$RPARMIN
               1 00000000 FFFFFFB6     J    9530  9588   9588
 $$$RPARWORK
               1 00000000 FFFFFF99     J   44342 44363  44363
 $$$RPRFINTP
               1 00000000 FFFFFFAC     J   12357 12370  12370
 $$$RPROFPARM
               1 00000000 FFFFFF8F     J   53491 53522  53522
 $$$RPROFWORK
               1 00000000 FFFFFFAB     J   12382 12400  12400
 $$$RPZERO
               1 00000000 FFFFFFB4     J    9623  9714   9714
 $$$RSBTPARM
               1 00000000 FFFFFFC7     J    8826  8839   8839
 $$$RSEGCBD
               1 00000000 FFFFFFC3     J    9018  9085   9085
 $$$RSMFREC
               1 00000000 FFFFFF9D     J   42570 42598  42598
 $$$RSMFWORK
               1 00000000 FFFFFF9C     J   42610 42626  42626
 $$$RSNAPPARM
               1 00000000 FFFFFF98     J   47270 47321  47321
 $$$RSNAPSEG
               1 00000000 FFFFFF97     J   47333 47347  47347
 $$$RSNAPWORK
               1 00000000 FFFFFF96     J   47359 47378  47378
 $$$RUSERCVT
               1 00000000 FFFFFFE9     J    3895  3978   3978
 $$$RWTOWORK
               1 00000000 FFFFFF95     J   49784 49800  49800
 $$$100E       2 00000744 00000001     H   13452 13446
 $$$100F       2 000007AE 00000001     H   13587 13448B 13536B
 $$$104S       2 000009F0 00000001     H   13907 13956B
 $$$106F       2 00000AD6 00000001     H   14247 13980B
 $$$106S       2 00000A1C 00000001     H   13972 14246B
 $$$108S       2 00000A82 00000001     H   14135 14231B
 $$$112F       2 00000CC8 00000001     H   14664 14607B
 $$$112S       2 00000C9C 00000001     H   14598 14663B
 $$$114F       2 00000D2E 00000001     H   14803 14730B
 $$$116F       2 00001756 00000001     H   19049 15239B
 $$$117F       2 00000E34 00000001     H   15243 15171B
 $$$118F       2 00000EA4 00000001     H   15433 15371B
 $$$119F       2 000015AC 00000001     H   18373 16543B
 $$$119S       2 0000114A 00000001     H   16534 18372B
 $$$121B       4 000012C0 00000001     I   17152 17224
1GSTINTF  (GSTI00) (09:40) (22MAR04) Ordinary Symbol and Literal Cross Reference                                            Page  303
 $$$121F       2 000012EA 00000001     H   17221 17152B 17223
 $$$122E       2 000012EE 00000001     H   17231 17225
 $$$122F       2 00001314 00000001     H   17297 17227B
 $$$123F       2 00001664 00000001     H   18660 18395B
 $$$123S       2 000015AE 00000001     H   18386 18659B
 $$$125F       2 00001756 00000001     H   19030 18855B
 $$$127B       4 00001A74 00000001     I   19250 19264
 $$$127F       2 00001A7C 00000001     H   19260 19250B 19263
 $$$128E       2 00001A80 00000001     H   19271 19265
 $$$128F       2 00001A8C 00000001     H   19292 19267B 19282B
 $$$130S       2 00001C3C 00000001     H   20093 23184B
 $$$131F       2 00002322 00000001     H   23169 20106B
 $$$132B       4 00001C4C 00000001     I   20118 20136
 $$$132F       2 00001C54 00000001     H   20133 20118B 20135
 $$$133E       2 00001C58 00000001     H   20143 20137
 $$$133F       2 00001C5C 00000001     H   20156 20139B
 $$$134B       4 00001C7C 00000001     I   20181 20195
 $$$134F       2 00001C84 00000001     H   20191 20181B 20194
 $$$135E       2 00001C88 00000001     H   20202 20196
 $$$135F       2 00001C94 00000001     H   20223 20198B 20213B
 $$$137B       4 00001C9C 00000001     I   20232 20566
 $$$137F       2 00001D5E 00000001     H   20563 20232B 20565
 $$$138E       2 00001D62 00000001     H   20573 20567
 $$$138F       2 00002322 00000001     H   23165 20569B
 $$$139F       2 00001F46 00000001     H   21446 20615B 20647B
 $$$140F       2 00001D80 00000001     H   20618 20601B
 $$$142F       2 00001D90 00000001     H   20650 20633B
 $$$144B       4 00001E82 00000001     I   21104 21169
 $$$144F       2 00001EA8 00000001     H   21166 21104B 21168
 $$$145E       2 00001EAC 00000001     H   21176 21170
 $$$145F       2 00001EF0 00000001     H   21293 21172B
 $$$146S       2 00001F46 00000001     H   21454 23157B
 $$$147F       2 00002306 00000001     H   23142 21464B 21495B 21527B
 $$$148F       2 00001F62 00000001     H   21498 21481B
 $$$150F       2 00001F72 00000001     H   21530 21513B
 $$$152B       4 00001F84 00000001     I   21552 21566
 $$$152F       2 00001F8C 00000001     H   21562 21552B 21565
 $$$153E       2 00001F90 00000001     H   21573 21567
 $$$153F       2 00001F9C 00000001     H   21594 21569B 21584B
 $$$155B       4 00001FA4 00000001     I   21604 21938
 $$$155F       2 00002066 00000001     H   21935 21604B 21937
 $$$156E       2 0000206A 00000001     H   21945 21939
 $$$156F       2 00002306 00000001     H   23138 21941B 22063B 22084B
 $$$157F       2 00002098 00000001     H   22051 21984B
 $$$159F       2 00002098 00000001     H   22042 22026B
 $$$159S       2 00002080 00000001     H   21994 22038B
 $$$160F       2 00002090 00000001     H   22029 22010B
 $$$165B       4 000020AA 00000001     I   22101 22167
 $$$165F       2 000020D0 00000001     H   22164 22101B 22166
 $$$166E       2 000020D4 00000001     H   22174 22168
 $$$166F       2 00002118 00000001     H   22291 22170B
 $$$167B       4 00002180 00000001     I   22494 22560
 $$$167F       2 000021A6 00000001     H   22557 22494B 22559
 $$$168E       2 000021AA 00000001     H   22567 22561
 $$$168F       2 000021CC 00000001     H   22627 22563B
 $$$172F       2 000027D2 00000001     H   24770 24162B
 $$$172S       2 00002666 00000001     H   24153 24769B
 $$$174F       2 00002744 00000001     H   24540 24467B
 $$$176B       4 000029A2 00000001     I   25334 25348
1GSTINTF  (GSTI00) (09:40) (22MAR04) Ordinary Symbol and Literal Cross Reference                                            Page  304
 $$$176F       2 000029AA 00000001     H   25344 25334B 25347
 $$$177E       2 000029AE 00000001     H   25355 25349
 $$$177F       2 000029BA 00000001     H   25376 25351B 25366B
 $$$179F       2 00003052 00000001     H   28093 25402B
 $$$179S       2 000029D0 00000001     H   25395 25896B 26134B 26372B 26610B 27891B 28092B
 $$$181F       2 00002B0A 00000001     H   25900 25438B
 $$$181T       2 000029EA 00000001     H   25441 25427B
 $$$184F       2 00002A12 00000001     H   25517 25455B
 $$$185F       2 00002A60 00000001     H   25632 25531B
 $$$188F       2 00002B9E 00000001     H   26138 25916B
 $$$189F       2 00002B36 00000001     H   25980 25930B
 $$$190F       2 00002C32 00000001     H   26376 26154B
 $$$191F       2 00002BCA 00000001     H   26218 26168B
 $$$192F       2 00002CC6 00000001     H   26614 26392B
 $$$193F       2 00002C5E 00000001     H   26456 26406B
 $$$194F       2 00002FCE 00000001     H   27895 26639B
 $$$195F       2 00002CFC 00000001     H   26703 26653B
 $$$196B       4 00002D34 00000001     I   26779 27166
 $$$196F       2 00002E12 00000001     H   27163 26779B 27165
 $$$197B       4 00002D56 00000001     I   26846 27093
 $$$197F       2 00002DEC 00000001     H   27090 26846B 27092
 $$$198E       2 00002DF0 00000001     H   27100 27094
 $$$198F       2 00002E12 00000001     H   27159 27096B
 $$$199E       2 00002E16 00000001     H   27173 27167
 $$$199F       2 00002EC4 00000001     H   27485 27169B
 $$$200S       2 00002F16 00000001     H   27608 27846B
 $$$201F       2 00002F5E 00000001     H   27726 27622B
 $$$204S       2 000032F8 00000001     H   28440 28459B
 $$$208F       2 0000341E 00000001     H   28803 28777B
 $$$208T       2 000033E0 00000001     H   28780 28769B
 $$$210F       2 0000343E 00000001     H   28858 28818B
 $$$210S       2 0000341E 00000001     H   28811 28857B
 $$$212F       2 00003470 00000001     H   28922 28872B
 $$$214B       1 0000348C 00000001     X   28961 28968U
 $$$215F       2 000034A2 00000001     H   28996 28986B
 $$$219F       2 00003826 00000001     H   29108 29097B
 $$$220F       2 0000383C 00000001     H   29134 29123B
 $$$221F       2 00003850 00000001     H   29158 29147B
 $$$223F       2 0000394C 00000001     H   29393 29345B
 $$$225B       4 00003950 00000001     I   29407 29542
 $$$225F       2 000039C4 00000001     H   29537 29407B 29541
 $$$226B       4 00003958 00000001     I   29423 29476
 $$$226F       2 000039A2 00000001     H   29473 29423B 29475
 $$$227F       2 00003998 00000001     H   29466 29441B
 $$$228E       2 000039A6 00000001     H   29483 29477
 $$$228F       2 000039AA 00000001     H   29489 29479B
 $$$230B       4 000039CE 00000001     I   29560 29622
 $$$230E       2 000039C8 00000001     H   29549 29543
 $$$230F       2 00003A08 00000001     H   29617 29545B 29560B 29621
 $$$232B       4 00003A12 00000001     I   29640 29676
 $$$232E       2 00003A0C 00000001     H   29629 29623
 $$$232F       2 00003A24 00000001     H   29671 29625B 29640B 29675
 $$$234B       4 00003A2C 00000001     I   29694 29720
 $$$234E       2 00003A28 00000001     H   29683 29677
 $$$234F       2 00003A3E 00000001     H   29715 29679B 29694B 29719
 $$$236B       4 00003A48 00000001     I   29738 29755
 $$$236E       2 00003A42 00000001     H   29727 29721
 $$$236F       2 00003A5C 00000001     H   29750 29723B 29738B 29754
 $$$238B       4 00003A66 00000001     I   29773 29790
1GSTINTF  (GSTI00) (09:40) (22MAR04) Ordinary Symbol and Literal Cross Reference                                            Page  305
 $$$238E       2 00003A60 00000001     H   29762 29756
 $$$238F       2 00003A7A 00000001     H   29785 29758B 29773B 29789
 $$$240B       4 00003A84 00000001     I   29808 29825
 $$$240E       2 00003A7E 00000001     H   29797 29791
 $$$240F       2 00003A98 00000001     H   29820 29793B 29808B 29824
 $$$242B       4 00003AA2 00000001     I   29843 29860
 $$$242E       2 00003A9C 00000001     H   29832 29826
 $$$242F       2 00003AB6 00000001     H   29855 29828B 29843B 29859
 $$$244B       4 00003AC0 00000001     I   29878 29904
 $$$244E       2 00003ABA 00000001     H   29867 29861
 $$$244F       2 00003AD2 00000001     H   29899 29863B 29878B 29903
 $$$246B       4 00003ADC 00000001     I   29922 29948
 $$$246E       2 00003AD6 00000001     H   29911 29905
 $$$246F       2 00003AEE 00000001     H   29943 29907B 29922B 29947
 $$$248B       4 00003AF8 00000001     I   29966 29992
 $$$248E       2 00003AF2 00000001     H   29955 29949
 $$$248F       2 00003B0A 00000001     H   29987 29951B 29966B 29991
 $$$250B       4 00003B14 00000001     I   30010 30036
 $$$250E       2 00003B0E 00000001     H   29999 29993
 $$$250F       2 00003B26 00000001     H   30031 29995B 30010B 30035
 $$$252B       4 00003B30 00000001     I   30054 30080
 $$$252E       2 00003B2A 00000001     H   30043 30037
 $$$252F       2 00003B42 00000001     H   30075 30039B 30054B 30079
 $$$254B       4 00003B4C 00000001     I   30098 30113
 $$$254E       2 00003B46 00000001     H   30087 30081
 $$$254F       2 00003B54 00000001     H   30108 30083B 30098B 30112
 $$$256B       4 00003B5E 00000001     I   30131 30146
 $$$256E       2 00003B58 00000001     H   30120 30114
 $$$256F       2 00003B66 00000001     H   30141 30116B 30131B 30145
 $$$258B       4 00003B70 00000001     I   30164 30179
 $$$258E       2 00003B6A 00000001     H   30153 30147
 $$$258F       2 00003B78 00000001     H   30174 30149B 30164B 30178
 $$$260B       4 00003B82 00000001     I   30197 30212
 $$$260E       2 00003B7C 00000001     H   30186 30180
 $$$260F       2 00003B8A 00000001     H   30207 30182B 30197B 30211
 $$$262B       4 00003B94 00000001     I   30230 30245
 $$$262E       2 00003B8E 00000001     H   30219 30213
 $$$262F       2 00003B9C 00000001     H   30240 30215B 30230B 30244
 $$$264B       4 00003BA6 00000001     I   30263 30278
 $$$264E       2 00003BA0 00000001     H   30252 30246
 $$$264F       2 00003BAE 00000001     H   30273 30248B 30263B 30277
 $$$266B       4 00003BB8 00000001     I   30296 30311
 $$$266E       2 00003BB2 00000001     H   30285 30279
 $$$266F       2 00003BC0 00000001     H   30306 30281B 30296B 30310
 $$$268B       4 00003BCA 00000001     I   30329 30344
 $$$268E       2 00003BC4 00000001     H   30318 30312
 $$$268F       2 00003BD2 00000001     H   30339 30314B 30329B 30343
 $$$270B       4 00003BDC 00000001     I   30362 30376
 $$$270E       2 00003BD6 00000001     H   30351 30345
 $$$270F       2 00003BE4 00000001     H   30372 30347B 30362B 30375
 $$$273        4 00004098 00000001     I   30584 30576X
 $$$274        4 00004098 00000001     I   30583 30584  30584
 $$$275F       2 00003D84 00000001     H   30773 30608B
 $$$276F       2 00003D18 00000001     H   30642 30629B
 $$$277S       2 00003D4C 00000001     H   30694 30712B
 $$$280F       2 00003D84 00000001     H   30769 30746B
 $$$280T       2 00003D68 00000001     H   30749 30735B
 $$$282F       2 00003DC0 00000001     H   30845 30787B
 $$$283        4 0000409E 00000001     I   30938 30930X
1GSTINTF  (GSTI00) (09:40) (22MAR04) Ordinary Symbol and Literal Cross Reference                                            Page  306
 $$$284        4 0000409E 00000001     I   30937 30938  30938
 $$$286F       2 00003E7C 00000001     H   31117 31095B
 $$$287F       2 00003E98 00000001     H   31156 31139B
 $$$288F       2 00003EBC 00000001     H   31218 31200B
 $$$291F       2 00003EF0 00000001     H   31284 31231B
 $$$292F       2 00003F60 00000001     H   31494 31328B
 $$$293        4 000040A4 00000001     I   31527 31519X
 $$$294        4 000040A4 00000001     I   31526 31527  31527
 $$$296F       2 000040CE 00000001     H   31728 31707B
 $$$297F       2 00004162 00000001     H   31979 31772B
 $$$298S       2 0000411C 00000001     H   31881 31905B
 $$$302F       2 00004590 00000001     H   33368 33313B 33323B 33335B
 $$$304B       4 00004244 00000001     I   32234 32287
 $$$304F       2 0000428E 00000001     H   32284 32234B 32286
 $$$305F       2 00004284 00000001     H   32277 32252B
 $$$306E       2 00004292 00000001     H   32294 32288
 $$$306F       2 00004296 00000001     H   32300 32290B
 $$$308        4 00005050 00000001     I   32499 32491X
 $$$309        4 00005050 00000001     I   32498 32499  32499
 $$$311F       2 000043D0 00000001     H   32752 32742B
 $$$313S       2 0000441A 00000001     H   32868 32886B
 $$$316F       2 00004464 00000001     H   33005 32995B
 $$$317F       2 00004472 00000001     H   33026 33016B
 $$$319F       2 000044D0 00000001     H   33148 33138B
 $$$320F       2 000044E0 00000001     H   33174 33164B
 $$$322F       2 00004738 00000001     H   33853 33627B 33690B 33757B 33819B
 $$$323B       4 000045C2 00000001     I   33467 33520
 $$$323F       2 0000460C 00000001     H   33517 33467B 33519
 $$$324F       2 00004602 00000001     H   33510 33485B
 $$$325E       2 00004610 00000001     H   33527 33521
 $$$325F       2 00004614 00000001     H   33533 33523B
 $$$326F       2 00004672 00000001     H   33631 33577B
 $$$327F       2 000046A8 00000001     H   33694 33644B
 $$$328F       2 000046E6 00000001     H   33761 33711B
 $$$329F       2 00004726 00000001     H   33823 33773B
 $$$330F       2 000048E0 00000001     H   34330 34104B 34167B 34234B 34296B
 $$$331B       4 0000476A 00000001     I   33944 33997
 $$$331F       2 000047B4 00000001     H   33994 33944B 33996
 $$$332F       2 000047AA 00000001     H   33987 33962B
 $$$333E       2 000047B8 00000001     H   34004 33998
 $$$333F       2 000047BC 00000001     H   34010 34000B
 $$$334F       2 0000481A 00000001     H   34108 34054B
 $$$335F       2 00004850 00000001     H   34171 34121B
 $$$336F       2 0000488E 00000001     H   34238 34188B
 $$$337F       2 000048CE 00000001     H   34300 34250B
 $$$338F       2 00004A4C 00000001     H   34736 34584B 34655B
 $$$339B       4 00004912 00000001     I   34421 34474
 $$$339F       2 0000495C 00000001     H   34471 34421B 34473
 $$$340F       2 00004952 00000001     H   34464 34439B
 $$$341E       2 00004960 00000001     H   34481 34475
 $$$341F       2 00004964 00000001     H   34487 34477B
 $$$342F       2 000049C2 00000001     H   34588 34531B
 $$$343F       2 00004A04 00000001     H   34659 34609B
 $$$344F       2 00004BF4 00000001     H   35213 34987B 35050B 35117B 35179B
 $$$345B       4 00004A7E 00000001     I   34827 34880
 $$$345F       2 00004AC8 00000001     H   34877 34827B 34879
 $$$346F       2 00004ABE 00000001     H   34870 34845B
 $$$347E       2 00004ACC 00000001     H   34887 34881
 $$$347F       2 00004AD0 00000001     H   34893 34883B
1GSTINTF  (GSTI00) (09:40) (22MAR04) Ordinary Symbol and Literal Cross Reference                                            Page  307
 $$$348F       2 00004B2E 00000001     H   34991 34937B
 $$$349F       2 00004B64 00000001     H   35054 35004B
 $$$350F       2 00004BA2 00000001     H   35121 35071B
 $$$351F       2 00004BE2 00000001     H   35183 35133B
 $$$352F       2 00004CA4 00000001     H   35432 35408B
 $$$353B       4 00004C26 00000001     I   35304 35316
 $$$353F       2 00004C2E 00000001     H   35313 35304B 35315
 $$$354E       2 00004C32 00000001     H   35323 35317
 $$$354F       2 00004C36 00000001     H   35329 35319B
 $$$355F       2 00004CA0 00000001     H   35412 35362B
 $$$356F       2 00004EB8 00000001     H   36081 35706B 35837B
 $$$357B       4 00004CD6 00000001     I   35520 35573
 $$$357F       2 00004D20 00000001     H   35570 35520B 35572
 $$$358F       2 00004D16 00000001     H   35563 35538B
 $$$359E       2 00004D24 00000001     H   35580 35574
 $$$359F       2 00004D28 00000001     H   35586 35576B
 $$$360B       4 00004D2E 00000001     I   35601 35615
 $$$360F       2 00004D36 00000001     H   35611 35601B 35614
 $$$361E       2 00004D3A 00000001     H   35622 35616
 $$$361F       2 00004D46 00000001     H   35643 35618B 35633B
 $$$363F       2 00004D84 00000001     H   35710 35660B
 $$$364B       4 00004D9A 00000001     I   35735 35749
 $$$364F       2 00004DA2 00000001     H   35745 35735B 35748
 $$$365E       2 00004DA6 00000001     H   35756 35750
 $$$365F       2 00004DB2 00000001     H   35777 35752B 35767B
 $$$367F       2 00004DF0 00000001     H   35841 35791B
 $$$368B       4 00004E7C 00000001     I   35969 36043
 $$$368F       2 00004EB0 00000001     H   36040 35969B 36042
 $$$369E       2 00004EB4 00000001     H   36050 36044
 $$$369F       2 00004EB8 00000001     H   36057 36046B
 $$$370F       2 00004FEE 00000001     H   36512 36382B 36426B
 $$$371B       4 00004EEE 00000001     I   36178 36231
 $$$371F       2 00004F38 00000001     H   36228 36178B 36230
 $$$372F       2 00004F2E 00000001     H   36221 36196B
 $$$373E       2 00004F3C 00000001     H   36238 36232
 $$$373F       2 00004F40 00000001     H   36244 36234B
 $$$374F       2 00004F4A 00000001     H   36263 36253B
 $$$375B       4 00004F50 00000001     I   36277 36291
 $$$375F       2 00004F58 00000001     H   36287 36277B 36290
 $$$376E       2 00004F5C 00000001     H   36298 36292
 $$$376F       2 00004F68 00000001     H   36319 36294B 36309B
 $$$378F       2 00004FA6 00000001     H   36386 36336B
 $$$379F       2 00004FBC 00000001     H   36430 36418B
 $$$380F       2 000050CE 00000001     H   36781 36712B
 $$$381S       2 0000507C 00000001     H   36645 36703B
 $$$386F       2 00005118 00000001     H   36925 36876B
 $$$386S       2 00005100 00000001     H   36863 36922B
 $$$391S       2 00005154 00000001     H   37064 37083B
 $$$394F       2 00005308 00000001     H   37760 37425B 37518B 37552B 37645B
 $$$395F       2 000051B0 00000001     H   37261 37230B
 $$$397F       2 000051B0 00000001     H   37257 37247B
 $$$398F       2 000051E2 00000001     H   37343 37276B
 $$$400B       4 000051C2 00000001     I   37295 37309
 $$$400F       2 000051CA 00000001     H   37305 37295B 37308
 $$$401E       2 000051CE 00000001     H   37316 37310
 $$$401F       2 000051DA 00000001     H   37337 37312B 37327B
 $$$403B       4 000051E6 00000001     I   37358 37377
 $$$403F       2 000051F2 00000001     H   37374 37358B 37376
 $$$406E       2 000051F6 00000001     H   37384 37378
1GSTINTF  (GSTI00) (09:40) (22MAR04) Ordinary Symbol and Literal Cross Reference                                            Page  308
 $$$406F       2 000051FA 00000001     H   37390 37380B
 $$$407F       2 00005226 00000001     H   37429 37417B
 $$$408B       4 00005230 00000001     I   37447 37461
 $$$408F       2 00005238 00000001     H   37457 37447B 37460
 $$$409E       2 0000523C 00000001     H   37468 37462
 $$$409F       2 00005248 00000001     H   37489 37464B 37479B
 $$$411F       2 00005264 00000001     H   37522 37510B
 $$$413F       2 00005284 00000001     H   37556 37544B
 $$$414B       4 0000528E 00000001     I   37574 37588
 $$$414F       2 00005296 00000001     H   37584 37574B 37587
 $$$415E       2 0000529A 00000001     H   37595 37589
 $$$415F       2 000052A6 00000001     H   37616 37591B 37606B
 $$$417F       2 000052C2 00000001     H   37649 37637B
 $$$419F       2 000052CE 00000001     H   37671 37661B
 $$$421B       4 000052DC 00000001     I   37690 37704
 $$$421F       2 000052E4 00000001     H   37700 37690B 37703
 $$$422E       2 000052E8 00000001     H   37711 37705
 $$$422F       2 000052F4 00000001     H   37732 37707B 37722B
 $$$426F       2 0000542A 00000001     H   38171 38013B
 $$$426S       2 000053C2 00000001     H   38004 38170B
 $$$428F       2 0000541E 00000001     H   38164 38029B
 $$$429        4 00005B02 00000001     I   38088 38080X
 $$$430        4 00005B02 00000001     I   38087 38088  38088
 $$$434B       4 0000576A 00000001     I   38895 38909
 $$$434F       2 00005772 00000001     H   38905 38895B 38908
 $$$435E       2 00005776 00000001     H   38916 38910
 $$$435F       2 00005782 00000001     H   38937 38912B 38927B
 $$$437F       2 000057D2 00000001     H   39032 38954B
 $$$437S       2 0000578A 00000001     H   38948 39031B
 $$$439B       4 0000579A 00000001     I   38973 38987
 $$$439F       2 000057A2 00000001     H   38983 38973B 38986
 $$$440E       2 000057A6 00000001     H   38994 38988
 $$$440F       2 000057B2 00000001     H   39015 38990B 39005B
 $$$444B       4 000058A8 00000001     I   39349 39363
 $$$444F       2 000058B0 00000001     H   39359 39349B 39362
 $$$445E       2 000058B4 00000001     H   39370 39364
 $$$445F       2 000058C0 00000001     H   39391 39366B 39381B
 $$$448B       4 00005942 00000001     I   39557 39571
 $$$448F       2 0000594A 00000001     H   39567 39557B 39570
 $$$449E       2 0000594E 00000001     H   39578 39572
 $$$449F       2 0000595A 00000001     H   39599 39574B 39589B
 $$$454F       2 00005DFC 00000001     H   40935 40341B 40438B 40505B 40556B 40617B 40768B 40832B
 $$$455F       2 00005B70 00000001     H   40345 40295B
 $$$456        4 000068A2 00000001     I   40288 40280X
 $$$457        4 000068A2 00000001     I   40287 40288  40288
 $$$458F       2 00005BDE 00000001     H   40442 40392B
 $$$459        4 000068A6 00000001     I   40385 40377X
 $$$460        4 000068A6 00000001     I   40384 40385  40385
 $$$461F       2 00005C88 00000001     H   40639 40481B
 $$$461S       2 00005C16 00000001     H   40474 40533B 40628B 40638B
 $$$463F       2 00005C32 00000001     H   40509 40496B
 $$$464F       2 00005C7C 00000001     H   40632 40519B
 $$$466F       2 00005C4A 00000001     H   40560 40548B
 $$$467F       2 00005C70 00000001     H   40621 40606B
 $$$468F       2 00005DF8 00000001     H   40915 40656B
 $$$468S       2 00005C88 00000001     H   40648 40914B
 $$$470F       2 00005D10 00000001     H   40772 40718B
 $$$471F       2 00005D4C 00000001     H   40836 40785B
 $$$472F       2 000060FC 00000001     H   41881 41158B 41255B 41334B 41406B 41457B 41518B 41661B
1GSTINTF  (GSTI00) (09:40) (22MAR04) Ordinary Symbol and Literal Cross Reference                                            Page  309
 $$$473F       2 00005E70 00000001     H   41162 41112B
 $$$474        4 000068BC 00000001     I   41105 41097X
 $$$475        4 000068BC 00000001     I   41104 41105  41105
 $$$476F       2 00005EDC 00000001     H   41259 41209B
 $$$476T       2 00005EAA 00000001     H   41212 41197B
 $$$478F       2 00005F1E 00000001     H   41338 41288B
 $$$479        4 000068C0 00000001     I   41281 41273X
 $$$480        4 000068C0 00000001     I   41280 41281  41281
 $$$481F       2 00005FDC 00000001     H   41540 41382B
 $$$481S       2 00005F6A 00000001     H   41375 41434B 41529B 41539B
 $$$483F       2 00005F86 00000001     H   41410 41397B
 $$$484F       2 00005FD0 00000001     H   41533 41420B
 $$$486F       2 00005F9E 00000001     H   41461 41449B
 $$$487F       2 00005FC4 00000001     H   41522 41507B
 $$$488F       2 00006076 00000001     H   41696 41685B
 $$$488S       2 00005FE6 00000001     H   41554 41695B
 $$$489F       2 00006058 00000001     H   41665 41611B
 $$$492F       2 000060BA 00000001     H   41796 41785B
 $$$492S       2 000060A2 00000001     H   41767 41795B
 $$$496F       2 000062E8 00000001     H   42550 42132B 42232B
 $$$497F       2 000061A4 00000001     H   42136 42086B
 $$$498        4 00006930 00000001     I   42079 42071X
 $$$499        4 00006930 00000001     I   42078 42079  42079
 $$$500F       2 00006202 00000001     H   42236 42182B
 $$$501F       2 00006236 00000001     H   42290 42259B
 $$$501S       2 00006214 00000001     H   42252 42289B
 $$$503F       2 0000622E 00000001     H   42284 42271B 42280B
 $$$504F       2 000062B2 00000001     H   42508 42305B
 $$$505F       2 00006282 00000001     H   42393 42353B 42371B
 $$$508F       2 00006292 00000001     H   42440 42408B
 $$$509F       2 000062B2 00000001     H   42499 42455B
 $$$510F       2 000062B2 00000001     H   42495 42485B
 $$$511F       2 00006536 00000001     H   43285 42832B 42955B
 $$$512F       2 000063CA 00000001     H   42836 42786B
 $$$512T       2 00006398 00000001     H   42789 42774B
 $$$514F       2 0000645C 00000001     H   42990 42979B
 $$$514S       2 000063CC 00000001     H   42848 42989B
 $$$515F       2 0000643E 00000001     H   42959 42905B
 $$$518F       2 000064D0 00000001     H   43168 43157B
 $$$518S       2 000064B8 00000001     H   43139 43167B
 $$$521F       2 00006516 00000001     H   43220 43210B
 $$$522F       2 0000685A 00000001     H   44284 43525B 43622B 43701B 43845B 44005B
 $$$523F       2 000065AA 00000001     H   43529 43479B
 $$$524        4 00006934 00000001     I   43472 43464X
 $$$525        4 00006934 00000001     I   43471 43472  43472
 $$$526F       2 00006616 00000001     H   43626 43576B
 $$$526T       2 000065E4 00000001     H   43579 43564B
 $$$528F       2 00006658 00000001     H   43705 43655B
 $$$529        4 00006938 00000001     I   43648 43640X
 $$$530        4 00006938 00000001     I   43647 43648  43648
 $$$531F       2 00006722 00000001     H   43880 43869B
 $$$531S       2 00006692 00000001     H   43738 43879B
 $$$532F       2 00006704 00000001     H   43849 43795B
 $$$535F       2 000067C4 00000001     H   44040 44029B
 $$$535S       2 00006734 00000001     H   43905 44039B
 $$$536F       2 000067A6 00000001     H   44009 43955B
 $$$539F       2 000067F2 00000001     H   44111 44100B
 $$$539S       2 000067DA 00000001     H   44082 44110B
 $$$542F       2 00006818 00000001     H   44161 44150B
1GSTINTF  (GSTI00) (09:40) (22MAR04) Ordinary Symbol and Literal Cross Reference                                            Page  310
 $$$542S       2 00006800 00000001     H   44132 44160B
 $$$545F       2 00006832 00000001     H   44194 44179B
 $$$547F       2 0000683E 00000001     H   44221 44206B
 $$$549F       2 0000685A 00000001     H   44265 44239B
 $$$550        4 0000693C 00000001     I   44255 44247X
 $$$551        4 0000693C 00000001     I   44254 44255  44255
 $$$552F       2 00006CE2 00000001     H   45488 44501B 44598B 44756B 44837B
 $$$553F       2 000069AA 00000001     H   44505 44455B
 $$$554        4 000072D8 00000001     I   44448 44440X
 $$$555        4 000072D8 00000001     I   44447 44448  44448
 $$$556F       2 00006A18 00000001     H   44602 44552B
 $$$557        4 000072DC 00000001     I   44545 44537X
 $$$558        4 000072DC 00000001     I   44544 44545  44545
 $$$559S       2 00006A4C 00000001     H   44628 44878B
 $$$560F       2 00006B20 00000001     H   44855 44646B
 $$$560S       2 00006A54 00000001     H   44640 44854B
 $$$562F       2 00006ACC 00000001     H   44760 44706B
 $$$563F       2 00006B16 00000001     H   44845 44773B
 $$$564F       2 00006B16 00000001     H   44841 44790B
 $$$567S       2 00006B60 00000001     H   44945 45021B
 $$$570F       2 00006C00 00000001     H   45169 45158B
 $$$570T       2 00006BF8 00000001     H   45161 45148B
 $$$572        4 000072E0 00000001     I   45197 45189X
 $$$573        4 000072E0 00000001     I   45196 45197  45197
 $$$574F       2 00006CA2 00000001     H   45380 45214B
 $$$575F       2 00006C54 00000001     H   45281 45264B
 $$$575T       2 00006C46 00000001     H   45267 45254B
 $$$578S       2 00006C54 00000001     H   45294 45371B
 $$$581F       2 000070F8 00000001     H   46741 45666B 45764B 45913B
 $$$582F       2 00006D56 00000001     H   45670 45620B
 $$$583        4 000072E4 00000001     I   45613 45605X
 $$$584        4 000072E4 00000001     I   45612 45613  45613
 $$$585F       2 00006DC8 00000001     H   45768 45718B
 $$$586        4 000072E8 00000001     I   45711 45703X
 $$$587        4 000072E8 00000001     I   45710 45711  45711
 $$$588F       2 00006E7E 00000001     H   45927 45803B
 $$$588S       2 00006DFC 00000001     H   45797 45926B
 $$$590F       2 00006E74 00000001     H   45917 45863B
 $$$591F       2 000070D8 00000001     H   46684 46241B 46305B
 $$$592S       2 00006EA8 00000001     H   45994 46070B
 $$$595B       4 00006F06 00000001     I   46118 46326
 $$$595F       2 00006FCC 00000001     H   46323 46118B 46325
 $$$595T       2 00006F0A 00000001     H   46121 46108B
 $$$597F       2 00006FCC 00000001     H   46319 46138B
 $$$597S       2 00006F0E 00000001     H   46132 46318B
 $$$599F       2 00006F86 00000001     H   46245 46191B
 $$$600F       2 00006FC2 00000001     H   46309 46258B
 $$$601E       2 00006FD0 00000001     H   46333 46327
 $$$601F       2 00006FD6 00000001     H   46340 46329B
 $$$602        4 000072EC 00000001     I   46453 46445X
 $$$603        4 000072EC 00000001     I   46452 46453  46453
 $$$604F       2 000070B8 00000001     H   46624 46470B
 $$$605B       4 00007040 00000001     I   46499 46605
 $$$605F       2 000070A6 00000001     H   46602 46499B 46604
 $$$605T       2 00007044 00000001     H   46502 46489B
 $$$607S       2 00007058 00000001     H   46516 46593B
 $$$610E       2 000070AA 00000001     H   46612 46606
 $$$610F       2 000070B8 00000001     H   46620 46608B
 $$$612F       2 000071A8 00000001     H   46961 46948B
1GSTINTF  (GSTI00) (09:40) (22MAR04) Ordinary Symbol and Literal Cross Reference                                            Page  311
 $$$613F       2 000071E8 00000001     H   47006 46995B
 $$$616F       2 00007820 00000001     H   49464 47613B 47858B
 $$$617F       2 000073B4 00000001     H   47646 47635B
 $$$617S       2 0000732E 00000001     H   47506 47645B
 $$$618F       2 000073A0 00000001     H   47617 47563B
 $$$620F       2 000074EE 00000001     H   47993 47668B
 $$$621B       4 000073C0 00000001     I   47689 47723
 $$$621F       2 00007402 00000001     H   47720 47689B 47722
 $$$622E       2 00007406 00000001     H   47730 47724
 $$$622F       2 0000740A 00000001     H   47737 47726B
 $$$623F       2 000074AA 00000001     H   47893 47882B
 $$$623S       2 0000741A 00000001     H   47758 47892B
 $$$624F       2 0000748C 00000001     H   47862 47808B
 $$$627F       2 000074EE 00000001     H   47989 47978B
 $$$627S       2 000074D6 00000001     H   47960 47988B
 $$$630B       4 000075DA 00000001     I   48434 49098
 $$$630F       2 00007754 00000001     H   49091 48434B 49097
 $$$631F       2 00007730 00000001     H   49018 48462B
 $$$631S       2 000075E6 00000001     H   48453 49017B
 $$$633F       2 00007724 00000001     H   49009 48483B
 $$$634F       2 00007724 00000001     H   49005 48943B
 $$$635F       2 00007754 00000001     H   49087 49028B
 $$$636B       4 0000775C 00000001     I   49117 49215
 $$$636E       2 00007758 00000001     H   49105 49099
 $$$636F       2 00007794 00000001     H   49208 49101B 49117B 49214
 $$$638E       2 00007798 00000001     H   49222 49216
 $$$638F       2 000077DE 00000001     H   49345 49218B 49231B
 $$$640F       2 00007820 00000001     H   49440 49406B
 $$$641F       2 000078BC 00000001     H   49764 49554B
 $$$643F       2 00007878 00000001     H   49619 49604B
 $$$644F       2 00007884 00000001     H   49645 49630B
 $$$645F       2 00007AF6 00000001     H   50448 50119B
 $$$646F       2 00007930 00000001     H   49941 49928B
 $$$647F       2 00007964 00000001     H   49977 49968B
 $$$648F       2 00007A2C 00000001     H   50154 50143B
 $$$648S       2 0000799C 00000001     H   50012 50153B
 $$$649F       2 00007A0E 00000001     H   50123 50069B
 $$$652F       2 00007A70 00000001     H   50251 50240B
 $$$652S       2 00007A58 00000001     H   50222 50250B
 $$$655F       2 00007A8C 00000001     H   50304 50289B
 $$$657F       2 00007A98 00000001     H   50331 50316B
 $$$659F       2 00007AA4 00000001     H   50358 50343B
 $$$661F       2 00007BE2 00000001     H   50893 50559B
 $$$663F       2 00007B36 00000001     H   50583 50574B
 $$$665B       4 00007B88 00000001     I   50689 50740
 $$$665F       2 00007B9C 00000001     H   50733 50689B 50739
 $$$667F       2 00007B9C 00000001     H   50729 50713B
 $$$669B       4 00007BA4 00000001     I   50756 50787
 $$$669E       2 00007BA0 00000001     H   50747 50741
 $$$669F       2 00007BB0 00000001     H   50781 50743B 50756B 50786
 $$$674E       2 00007BB4 00000001     H   50794 50788
 $$$674F       2 00007BBC 00000001     H   50816 50790B
 $$$679F       2 00007D94 00000001     H   51378 51186B 51286B 51350B
 $$$680F       2 00007CF0 00000001     H   51190 51140B
 $$$681F       2 00007D4E 00000001     H   51290 51236B
 $$$682F       2 00007D8A 00000001     H   51354 51303B
 $$$686B       4 00007E7A 00000001     I   51717 51751
 $$$686F       2 00007EB4 00000001     H   51748 51717B 51750
 $$$687E       2 00007EB8 00000001     H   51758 51752
1GSTINTF  (GSTI00) (09:40) (22MAR04) Ordinary Symbol and Literal Cross Reference                                            Page  312
 $$$687F       2 00007EBC 00000001     H   51765 51754B
 $$$688F       2 000080FC 00000001     H   52487 52001B 52098B 52246B
 $$$689F       2 00007F30 00000001     H   52005 51955B
 $$$690        4 00008202 00000001     I   51948 51940X
 $$$691        4 00008202 00000001     I   51947 51948  51948
 $$$692F       2 00007F9C 00000001     H   52102 52052B
 $$$692T       2 00007F6A 00000001     H   52055 52040B
 $$$694F       2 0000806A 00000001     H   52281 52270B
 $$$694S       2 00007FDA 00000001     H   52139 52280B
 $$$695F       2 0000804C 00000001     H   52250 52196B
 $$$698F       2 000080AE 00000001     H   52378 52367B
 $$$698S       2 00008096 00000001     H   52349 52377B
 $$$701F       2 000080DC 00000001     H   52430 52420B
 $$$703F       2 0000817C 00000001     H   52638 52628B
 $$$705F       2 0000831A 00000001     H   53071 52952B 53000B 53037B
 $$$710F       2 00008364 00000001     H   53188 53165B
 $$$710S       2 0000834C 00000001     H   53150 53184B
 $$$72F        2 000000B4 00000001     H   10904 10894B
 $$$73F        2 0000011C 00000001     H   11037 11023B
 $$$74F        2 0000017A 00000001     H   11156 11142B
 $$$75F        2 000001DE 00000001     H   11317 11307B
 $$$76F        2 00000226 00000001     H   11432 11422B
 $$$77F        2 000002FA 00000001     H   11747 11677B
 $$$77S        2 000002AE 00000001     H   11668 11746B
 $$$80F        2 000003A6 00000001     H   12009 11972B
 $$$82F        2 000004A4 00000001     H   12313 12238B
 $$$82S        2 0000041A 00000001     H   12229 12312B
 $$$84F        2 00000494 00000001     H   12302 12292B
 $$$86F        2 000007AE 00000001     H   13596 12625B 12635B
 $$$88F        2 0000057E 00000001     H   12754 12739B
 $$$89F        2 00000614 00000001     H   12992 12949B
 $$$90         6 000009A8 00000001     I   12968 12960X
 $$$91         6 000009A8 00000001     I   12967 12968  12968
 $$$92F        2 00000664 00000001     H   13130 13095B
 $$$93         6 000009AE 00000001     I   13114 13106X
 $$$94         6 000009AE 00000001     I   13113 13114  13114
 $$$95F        2 000006B0 00000001     H   13262 13233B
 $$$96         6 000009B4 00000001     I   13252 13244X
 $$$97         6 000009B4 00000001     I   13251 13252  13252
 $$$98F        2 000006F8 00000001     H   13376 13366B
 $$$99B        4 0000070A 00000001     I   13417 13445
 $$$99F        2 00000740 00000001     H   13439 13417B 13444
 $NLL14493
               2 00003CE8 00000001     I   30592 30596B
 $NLL14664
               2 00003E02 00000001     I   30946 30950B
 $NLL15005
               2 00003F72 00000001     I   31535 31539B
 $NLL15480
               2 00004328 00000001     I   32507 32511B
 $NLL18433
               2 000053E6 00000001     I   38096 38100B
 $NLM14493
               1 00004097 00000001     R   30565 30583
 $NLM14664
               1 0000409C 00000001     R   30919 30937
 $NLM15005
               1 000040A2 00000001     R   31508 31526
 $NLM15480
1GSTINTF  (GSTI00) (09:40) (22MAR04) Ordinary Symbol and Literal Cross Reference                                            Page  313
               1 0000504E 00000001     R   32480 32498
 $NLM18433
               1 00005B00 00000001     R   38069 38087
 $OLL13404
               2 00003322 00000001     I   28495 28499B
 $OLL14597
               2 00003D74 00000001     I   30760 30764B
 $OLL14766
               2 00003E70 00000001     I   31109 31113B
 $OLL15427
               2 000042F2 00000001     I   32390 32394B
 $OLL15499
               2 00004340 00000001     I   32524 32528B
 $OLL15566
               2 0000437E 00000001     I   32633 32637B
 $OLL15572
               2 00004396 00000001     I   32650 32654B
 $OLL15637
               2 000043DC 00000001     I   32765 32769B
 $OLL15721
               2 00004432 00000001     I   32904 32908B
 $OLL18452
               2 000053FE 00000001     I   38110 38114B
 $OLL3102      2 00000A8E 00000001     I   14146 14150B
 #DISP1       28 00000000 FFFFFFAA     J   13801 13847U
 #DISP1CP      1 0000001B FFFFFFAA     C   13793 13985M
 #DISP1M      27 00000000 FFFFFFAA     C   13792 13794  13966M 14072
 #DISP1ML      1 0000001C FFFFFFAA A   U   13794 14055
 #GDWA        16 00000000 FFFFFFA9     J   14992 15039U
 #GDWORK      16 00000000 FFFFFFA9     C   14985 16652  16713
 @AM24       148 00000000 FFFFFF91     J   53390 31930U 38758U 38790U 53414U 53434U 53462  53499
 @AM24CRS      4 00000054 FFFFFF91     A   53383 53416M 53436
 @AM24PRM      4 00000048 FFFFFF91     A   53379 53380  53381  53382  53418
 @AM24R0       4 0000004C FFFFFF91     A   53381 31938M
 @AM24R1       4 00000050 FFFFFF91     A   53382 31936M 38764M 38796M
 @AM24R15      4 00000048 FFFFFF91     A   53380 31940M 38766M 38798M
 @BTD         13 00000000 FFFFFFDC     J    8030 16621U 16629M 16629  26953U 26961M 26961  27188U 27196M 27196  48567U
                                                 48575M 48575
 @BTDFLG       1 0000000C FFFFFFDC     R    8011  8015   8020
 @BTDLEN       4 00000008 FFFFFFDC     A    8008  8023   8023  16674M 27006M 27236M 48620M
 @BTDLOC       4 00000004 FFFFFFDC     A    8007  8023   8023  16657M 26989M 27219M 48603M
 @BTDVAL       4 00000000 FFFFFFDC     F    8006 16639M 26971M 27201M 48585M
 @BTSLEN       4 00000004 FFFFFFDA     A    8067  8070   8070
 @BTSLOC       4 00000000 FFFFFFDA     A    8066  8070   8070
 @BTX         12 00000000 FFFFFFDB     J    8054 19371U 19379M 19379  19564U 19572M 19572  19757U 19765M 19765  20304U
                                                 20312M 20312  20720U 20728M 20728  20968U 20976M 20976  21676U 21684M
                                                 21684  22360U 22368M 22368
 @BTXLEN       4 00000008 FFFFFFDB     A    8044  8047   8047  19424M 19617M 19810M 20357M 20773M 21021M 21729M 22413M
 @BTXLOC       4 00000004 FFFFFFDB     A    8043  8047   8047  19407M 19600M 19793M 20340M 20756M 21004M 21712M 22396M
 @BTXVAL       4 00000000 FFFFFFDB     A    8042 19389M 19582M 19775M 20322M 20738M 20986M 21694M 22378M
 @CANTASK      4 00000000 FFFFFFE0     J    7899 14640U 14648M 14648
 @CANTID       4 00000000 FFFFFFE0     A    7892 14649M
 @CPTIME      16 00000000 FFFFFFD9     J    8104 29593U 29601M 29601
 @CPTINT       8 00000008 FFFFFFD9     D    8097 29608  29611
 @DOWTO       10 00000000 FFFFFFB0     J   10636 13886U 13894M 13894  13996M 13996  31345U 31353M 31353  49583U 49591M
                                                 49591  50267U 50275M 50275  50534U 50541U
 @DSALCF       1 0000004D FFFFFFC1     R    9167  9171   9176   9181   9186   9191
 @DSALLO      96 00000000 FFFFFFC1     J    9205 12787  12813U 13633
 @DSARLSE     16 0000004D FFFFFFC1         9186 12834M
1GSTINTF  (GSTI00) (09:40) (22MAR04) Ordinary Symbol and Literal Cross Reference                                            Page  314
 @DSDALLO      4 00000000 FFFFFFC2     J    9111 13392U 13400M 13400
 @DSDDN        8 00000038 FFFFFFC1     C    9132 12819M
 @DSDPARM      4 00000000 FFFFFFC2     A    9104 13401M
 @DSDSN       44 00000004 FFFFFFC1     C    9130 12817M 12924  12954M 12967M
 @DSFLAG       1 0000004C FFFFFFC1     R    9140  9144   9149   9154   9159
 @DSGDG       16 0000004C FFFFFFC1         9159 12827  12827  12988M 13126M
 @DSMEM        8 00000030 FFFFFFC1     C    9131 12818M 12981M 12981  13070  13100M 13113M
 @DSNEW       64 0000004C FFFFFFC1         9149 12827  12827  12828M
 @DSPTQ        4 00000054 FFFFFFC1     A    9196 12835M 13371M
 @DSRTN        2 00000046 FFFFFFC1     H    9134 13435
 @DSSTQ        4 00000058 FFFFFFC1     A    9197 12836M 13372M
 @DSVOL        6 00000040 FFFFFFC1     C    9133 13208  13238M 13251M
 @DTBFLG       1 00000008 FFFFFFDF     R    7916  7920
 @DTBLEN       4 00000004 FFFFFFDF     A    7912  7923   7923
 @DTBLOC       4 00000000 FFFFFFDF     A    7911  7923   7923
 @DUMPDTA      4 00000000 FFFFFFD6     A    8185 15042  15325  15342
 @DUMPPRM      8 00000000 FFFFFFD6     J    8193 15032U 15039U
 @DUMPSCB      4 00000004 FFFFFFD6     A    8186 15113  15151  15226  15296  15354  15425  15461  15521  15579  15634
                                                 15694  15752  15807  15867  15925  15980  16040  16098  16153  16191
                                                 16252  16355  16397  16435  16473  16511  16603  16742  16774  16812
                                                 16873  16931  16963  17001  17079  17137  17207  17283  17347  17405
                                                 17460  17498  17596  17638  17676  17739  17797  17829  17923  17965
                                                 18025  18057  18150  18192  18230  18265  18312  18350  18453  18526
                                                 18566  18604  18643  18723  18755  18793  18832  18915  18947  18985
                                                 19018
 @DWTFCON     64 00000008 FFFFFFB0        10618 49641M 50327M 50688
 @DWTFL        1 00000008 FFFFFFB0     R   10609 10613  10618  10623
 @DWTFND      32 00000008 FFFFFFB0        10623 50354M 50755
 @DWTFSYS    128 00000008 FFFFFFB0        10613 13900M 14002M 31393M 49615M 50300M 50712
 @DWTLEN       4 00000004 FFFFFFB0     A   10605 13925M 14019M 14060M 14101M 31387M 49593M 50277M 50547  50588  50590M
                                                 50646  50653
 @DWTLMAX      1 0000007E FFFFFFB0 A   U   10629 52689
 @DWTLOC       4 00000000 FFFFFFB0     A   10604 13942M 14036M 14077M 14118M 31370M 49592M 50276M 50645
 @FIXFLG       1 00000008 FFFFFFD8     R    8127  8131
 @FIXFREL    128 00000008 FFFFFFD8         8131 39629M
 @FIXLEN       4 00000004 FFFFFFD8     A    8124 28677M 33207M 33216M 34692M 34701M 39415M 39623M
 @FIXLOC       4 00000000 FFFFFFD8     A    8123 28676M 33206M 33215M 34691M 34700M 39414M 39622M
 @FIXPARM      9 00000000 FFFFFFD8     J    8140 28667U 28675M 28675  33197U 33205M 33205  34682U 34690M 34690  39405U
                                                 39413M 39413  39613U 39621M 39621
 @FPOST        4 00000000 FFFFFFC8     J    8814 14176U 14184M 14184  14430U 14438M 14438  28510U 28518M 28518  31464U
                                                 31472M 31472  31996U 32004M 32004  32406M 32406  32540M 32540  32669M
                                                 32669  32784M 32784  32923M 32923  38125U 38133M 38133  40070U 40078M
                                                 40078  52796U 52804M 52804
 @FPSTECB      4 00000000 FFFFFFC8     A    8807 14190M 14444M 28526M 31478M 32010M 32412M 32546M 32675M 32790M 32929M
                                                 38139M 40086M 52810M
 @FUNCDTA      4 00000000 FFFFFFD7     A    8162 13850  14350  14575  53131
 @FUNCPRM      4 00000000 FFFFFFD7     J    8169 13840U 13847U 14345U 14570U 53126U
 @FWAIT        4 00000000 FFFFFFC4     J    9011 14208U 14216M 14216  14463U 14471M 14471  28836U 28844M 28844  31170U
                                                 31178M 31178  39893U 39901M 39901
 @FWTECB       4 00000000 FFFFFFC4     A    9004 14221M 14476M 28849M 31183M 39906M
 @GSTICS       4 00000004 FFFFFFB8     A    9488 28415
 @GSTIIOT      8 00000000 FFFFFFB8     J    9495 28396U
 @GSTIRQI      4 00000000 FFFFFFB8     A    9487 28401
 @IORB        20 00000000 FFFFFFBA     J    9433 35929U 35937M 35937
 @IORCC        1 00000011 FFFFFFBA     X    9425 35951M 35953  35968
 @IORKEY       1 00000010 FFFFFFBA     X    9424 35942M 35943M
 @IOROFF       4 00000004 FFFFFFBA     A    9421 35939M
 @IORPARM      4 00000008 FFFFFFBA     A    9422 35940M
 @IORRQID      4 00000000 FFFFFFBA     A    9420 35938M
1GSTINTF  (GSTI00) (09:40) (22MAR04) Ordinary Symbol and Literal Cross Reference                                            Page  315
 @IORSCH       4 0000000C FFFFFFBA     A    9423 35941M
 @IOUDEVT      4 00000000 FFFFFFB9     A    9451 39777M
 @IOUPARM      4 00000000 FFFFFFB9     J    9468 39768U 39776M 39776
 @LOCKCRE     17 00000000 FFFFFFCB     J    8604 13564U 13572M 13572
 @LOCKFL       1 00000010 FFFFFFCB     R    8591  8595
 @LOCKID       4 00000000 FFFFFFCA     A    8616 31793M 31971M
 @LOCKNAM     16 00000000 FFFFFFCB     C    8588 13573M
 @LOCKS        4 00000000 FFFFFFCA     J    8623 31787U
 @MEMCODE      1 00000003 FFFFFFC9     R    8705  8713   8722   8731   8741   8750   8759   8768   8777
 @MEMFREE     10 00000000 FFFFFFD2     J    8444 11776U 11784M 11784  13618U 13626M 13626  41833U 41841M 41841  43240U
                                                 43248M 43248  45398U 45406M 45406  45444M 45444  46642U 46650M 46650
                                                 46697M 46697  49363U 49371M 49371  49423M 49423  50408U 50416M 50416
                                                 50842U 50850M 50850  52447U 52455M 52455
 @MEMGET      10 00000000 FFFFFFD3     J    8369 10789U 10797M 10797  12772U 12780M 12780  41726U 41734M 41734  43021U
                                                 43029M 43029  44901U 44909M 44909  45042U 45050M 45050  45945U 45953M
                                                 45953  46355U 46363M 46363  47922U 47930M 47930  48015M 48015  50184U
                                                 50192M 50192  50606U 50614M 50614  52311U 52319M 52319
 @MEMLEN       4 00000004 FFFFFFC9     A    8781 10745M 11464M 11503M 11942M 11990M 12030M 12184M 13484M 14693M 14787M
                                                 14825M 14865M 28724M 38437M 39186M
 @MEMLOC       4 00000008 FFFFFFC9     A    8782 11991M 12031M 14698M 14788M 14830M 14866M 39187M
 @MEMORY      12 00000000 FFFFFFC9     J    8789 10728U 10736M 10736  11454U 11462M 11462  11494M 11494  11932U 11940M
                                                 11940  11988M 11988  12028M 12028  12174U 12182M 12182  13467U 13475M
                                                 13475  14683U 14691M 14691  14778M 14778  14818M 14818  14856M 14856
                                                 28707U 28715M 28715  38422U 38430M 38430  39171U 39179M 39179
 @MEMPOOL      1 00000002 FFFFFFC9     R    8646  8654   8663   8672   8681   8690   8699  13491M 14795M 38444M 39194M
 @MFFTYPE      1 00000009 FFFFFFD2     R    8396  8407   8416   8425   8434
 @MFLEN        4 00000004 FFFFFFD2     A    8390 11792M 13634M 41849M 43256M 45412M 45450M 46656M 46703M 49379M 49431M
                                                 50424M 50856M 52463M
 @MFLL         8 00000000 FFFFFFD2     D    8387  8388
 @MFLOC        4 00000000 FFFFFFD2     A    8389 11793M 13635M 41850M 43257M 45417M 45455M 46661M 46708M 49384M 49432M
                                                 50425M 50861M 52464M
 @MFTYPE       2 00000008 FFFFFFD2     H    8392  8393
 @MGFTYPE      1 00000009 FFFFFFD3     R    8315  8323   8332   8341   8350   8359
 @MGLEN        4 00000004 FFFFFFD3     A    8306 10805M 12788M 41742M 43037M 44915M 45056M 45959M 46369M 47938M 48023M
                                                 50200M 50615M 52327M
 @MGLL         8 00000000 FFFFFFD3     D    8303  8304
 @MGTYPE       2 00000008 FFFFFFD3     H    8308  8312
 @MIFLAG       1 00000000 FFFFFFD4     R    8236  8240
 @MIWFLAG      1 00000001 FFFFFFD4     R    8248  8258   8267   8276
 @MVNQENQ    128 00000010 FFFFFF9A        43352 44190M
 @MVNQEXC     64 00000010 FFFFFF9A        43357 44217M
 @MVNQF        1 00000010 FFFFFF9A     R   43348 43352  43357
 @MVNQQNM      8 00000008 FFFFFF9A     C   43345 44126
 @MVNQRNL      4 00000004 FFFFFF9A     A   43344 44167M
 @MVNQRNM      4 00000000 FFFFFF9A     A   43343 44166M
 @MVSENQ      17 00000000 FFFFFF9A     J   43366 44067U 44075M 44075  44125M 44125
 @PARILEN      4 00000004 FFFFFFB7     A    9515 10875M 10974M 11093M 11258M 11373M 12561M 12685M 12895M 13041M 13179M
                                                 13311M 45131M 46424M
 @PARILOC      4 00000000 FFFFFFB7     A    9514 10873M 10957M 11076M 11241M 11356M 12544M 12668M 12878M 13024M 13162M
                                                 13294M 45126M 46419M
 @PARMDO      16 00000000 FFFFFFB7     J    9524 10863U 10871M 10871  10940M 10940  11059M 11059  11216U 11224M 11224
                                                 11339M 11339  12519U 12527M 12527  12651M 12651  12853U 12861M 12861
                                                 13007M 13007  13145M 13145  13277M 13277  45092U 45100M 45100  46406U
                                                 46414M 46414
 @PAROLEN      4 0000000C FFFFFFB7     A    9517 10879M 11008M 11127M 11292M 11407M 12595M 12719M 12929M 12955  13075M
                                                 13101  13213M 13239  13345M 45223  46434M 46509
 @PAROLOC      4 00000008 FFFFFFB7     A    9516 10877M 10991M 11110M 11275M 11390M 12578M 12702M 12912M 13058M 13196M
                                                 13328M 45170M 46429M
 @RA           0 00000000 FFFFFFFC     @    1035 11737  13914  13937  14654  18655  19234  25689  32192  35348  35349
1GSTINTF  (GSTI00) (09:40) (22MAR04) Ordinary Symbol and Literal Cross Reference                                            Page  316
                                                 37395  38018  38165  39017  41691  41707M 42264  42277  42285  42985
                                                 43001M 43875  43891M 44035  44051M 44849  45921  46313  46511M 46616M
                                                 47888  47904M 50149  50165M 52276  52292M
 @RB           0 00000000 FFFFFFFB     @    1047 16902  17013  20099  20111  20161  20164  24460  26857  26858  26860
                                                 26861  27840  32821  33766  33831M 34243  34308M 35126  35191M 35718
                                                 35910  36451M 36452M 36453M 38166  40486  41387  46616
 @RJ           0 00000000 FFFFFFFA     @    1059 20225  25380  25381  25411  25424  25437  25636  25893  25915  26059
                                                 26131  26153  26297  26369  26391  26535  26607  26624  26709  26767
                                                 27201  27394  27540  27599  27751  27839  28016  28050  40486  40524
                                                 40622  40989  40990  40991  41387  41425  41523  45270M 45277M 45277
                                                 47738
 @RK           0 00000000 FFFFFFF9     @    1071 21597  28471  28539  41741  43066  44634  44858  52326
 @RN           0 00000000 FFFFFFF5     @    1119 18068
 @RS           0 00000000 FFFFFFFD     @    1023 11725  12298  13512  23147  23174  33058  33075  33308M 33766  34243
                                                 34593  35126  35902  38313M 38468  38537M 38565M 38858M 38881  38964
                                                 39027  39335  39543  39777  39782M 40031  40362  40459  40875  40877M
                                                 40878  40880M 40902  40904M 41179  41355  41769  41782  41791  41848
                                                 42062  42241  42531M 42730  42754  42756  43006  43036  43141  43154
                                                 43163  43225  43255  43546  43722  44084  44097  44106  44134  44147
                                                 44156  44522  44619  45688  45786  46933M 47007M 47162M 47713  47962
                                                 47975  47984  48813  49907  49958  50000  50199  50224  50237  50246
                                                 50389M 50423  50591  50654  50996  51121  51127  51359M 51497M 51744M
                                                 52022  52124  52351  52364  52373  52462  52594  52938  52979
 @RX           0 00000000 FFFFFFF8     @    1083 14129
 @RY           0 00000000 FFFFFFF7     @    1095 21457  21536  22487  22931  25518  26712  31706  37495  37509  37524
                                                 37622  37636  37660  37675
 @R0           0 00000000 FFFFFFFE     @     715   991U  2558U 31836U
 @R1           0 00000000 FFFFFFFD     @     728   987U 11654U 26625U 28912U 29275U 29387U 30424U 30511U 30683U 30832U
                                                 30892U 31047U 31279U 31695  31947U 33623U 33686U 33753U 33815U 34100U
                                                 34163U 34230U 34292U 34580U 34651U 34983U 35046U 35113U 35175U 35404U
                                                 35702U 35833U 36037U 36378U 38773U 38805U 40337U 40434U 40599  40764U
                                                 40828U 41154U 41251U 41330U 41500  41657U 42128U 42228U 42828U 42951U
                                                 43521U 43618U 43697U 43841U 44001U 44497U 44594U 44752U 44833U 45662U
                                                 45760U 45909U 46237U 46301U 47609U 47854U 50115U 51182U 51282U 51346U
                                                 51997U 52094U 52242U 53424U
 @R10          0 00000000 FFFFFFF4     @     845   951U 11825U 12060U 12335U 13663U 14269U 14508U 14894U 14954U 19047U
                                                 23418U 24965U 28281U 28562U 31584U 32057U 33366U 33851U 34328U 34734U
                                                 35211U 35430U 36079U 36510U 36779U 36945U 37111U 37758U 37890U 38205U
                                                 38330U 38587U 39054U 39227U 39436U 39650U 39799U 39927U 40123U 40933U
                                                 41879U 42548U 43283U 44282U 45486U 46739U 47029U 47184U 47251U 49462U
                                                 49762U 50446U 50891U 51019U 51376U 51519U 51600U 51782U 52485U 52655U
                                                 52836U 53069U 53205U 53353U
 @R11          0 00000000 FFFFFFF3     @     858   947U 29146  29237U
 @R12          0 00000000 FFFFFFF2     @     871   943U 12055U 12330U 13658U 14264U 14503U 14889U 19042U 23413U 24960U
                                                 28276U 28557U 31579U 33361U 33846U 34323U 34729U 35206U 35425U 36074U
                                                 36505U 36774U 36940U 37106U 37753U 37885U 38200U 38325U 38582U 39049U
                                                 39222U 39431U 39645U 39794U 39922U 40118U 40928U 41874U 42543U 43278U
                                                 44277U 45481U 46734U 47024U 47179U 49457U 49757U 50441U 50886U 51014U
                                                 51371U 51514U 51595U 51777U 52480U 52650U 52831U 53064U 53200U
 @R13          0 00000000 FFFFFFF1     @     884   939U 10786U 10860U 11169U 11213U 11451U 11535U 11569U 11601U 11707U
                                                 11773U 11836U 12071U 12346U 12769U 12850U 13389U 13464U 13561U 13615U
                                                 13674U 14173U 14205U 14280U 14460U 14519U 14680U 14905U 16273U 16371U
                                                 16618U 16689U 17520U 17612U 17852U 17939U 18079U 18166U 18253U 18286U
                                                 18625U 18674U 18814U 18866U 19006U 19058U 19368U 19439U 19561U 19632U
                                                 19754U 19825U 19985U 20049U 20301U 20372U 20717U 20788U 20965U 21036U
                                                 21342U 21406U 21673U 21744U 22357U 22428U 23018U 23098U 23429U 23733U
                                                 23783U 23847U 23897U 23961U 24011U 24296U 24349U 24420U 24482U 24613U
                                                 24665U 24976U 25647U 25716U 26793U 26876U 26950U 27022U 27185U 27252U
                                                 28292U 28573U 28704U 28833U 29520U 29590U 29654U 30963U 31069U 31167U
1GSTINTF  (GSTI00) (09:40) (22MAR04) Ordinary Symbol and Literal Cross Reference                                            Page  317
                                                 31342U 31461U 31595U 31993U 33194U 33377U 33862U 34339U 34679U 34745U
                                                 35222U 35926U 36016U 36090U 36473U 36521U 38216U 38598U 39238U 39447U
                                                 39661U 39810U 39938U 40134U 40944U 41723U 41830U 41890U 42559U 43018U
                                                 43237U 43294U 44064U 44293U 44898U 44956U 45039U 45089U 45305U 45395U
                                                 45497U 45942U 46005U 46352U 46403U 46527U 46639U 46750U 47919U 48070U
                                                 48169U 48564U 48636U 49136U 49246U 49360U 49473U 49682U 49773U 50181U
                                                 50264U 50405U 50457U 50839U 50902U 51387U 51793U 52308U 52389U 52444U
                                                 52496U 52666U 52847U 53442U
 @R14          0 00000000 FFFFFFF0     @     897   935U 13915U 22048U 28952  40989M 40990M 40991M 53043
 @R15          0 00000000 FFFFFFEF     @     910   931U 29259U 31861U 31918U 40597U 41498U 43104U 43128U 46935
 @R2           0 00000000 FFFFFFFC     @     741   983U 13584U 14765U 28537U 29034  29056  29122  32432U 32566U 32696U
                                                 32811U 32950U 33043U 33257U 36686U 36905U 38835U 42435U 45288U 49747U
 @R3           0 00000000 FFFFFFFB     @     754   979U 11743U 14660U 18369U 18537U 42505U 46890U 47749U
 @R4           0 00000000 FFFFFFFA     @     767   975U 31957U 37096U 38159U 43268U 50881U 53338U
 @R5           0 00000000 FFFFFFF9     @     780   971U 13593U 31569U 32047U 46866U
 @R6           0 00000000 FFFFFFF8     @     793   967U 11815U 12325U 14488U 23408U 24955U 28271U 28552U 31055U 31434U
                                                 31489U 33351U 36064U 36495U 36764U 37880U 38190U 38572U 39039U 39212U
                                                 40108U 45177U 47014U 47169U 49447U 51504U 52821U 53054U 53195U 53289U
                                                 53343U
 @R7           0 00000000 FFFFFFF7     @     806   963U 11820U 12320U 13653U 14259U 14498U 14884U 19037U 26710U 28547U
                                                 31574U 32052U 32370U 32456U 32591U 32720U 32836U 32973U 33095U 33356U
                                                 33841U 34318U 34724U 35201U 35420U 36069U 36500U 36769U 36935U 37101U
                                                 38048U 38195U 38320U 38577U 39044U 39217U 39426U 39640U 39789U 39917U
                                                 40113U 40923U 41869U 42538U 43273U 44272U 45476U 46729U 47019U 47174U
                                                 49452U 49752U 50436U 51009U 51366U 51509U 51772U 52475U 52645U 52826U
                                                 53059U 53348U
 @R8           0 00000000 FFFFFFF6     @     819   959U 14254U 14493U 29245U 37748U 46681U
 @R9           0 00000000 FFFFFFF5     @     832   955U
 @SEG         13 00000000 FFFFFFC0     J    9267 15067U 15075M 15075  15136M 15136  15188M 15188  15258M 15258  15312M
                                                 15312  15387M 15387  15446M 15446  15483M 15483  15537M 15537  15596M
                                                 15596  15656M 15656  15710M 15710  15769M 15769  15829M 15829  15883M
                                                 15883  15942M 15942  16002M 16002  16056M 16056  16115M 16115  16176M
                                                 16176  16214M 16214  16374U 16382M 16382  16420M 16420  16458M 16458
                                                 16496M 16496  16565M 16565  16692U 16700M 16700  16759M 16759  16797M
                                                 16797  16835M 16835  16889M 16889  16948M 16948  16986M 16986  17041M
                                                 17041  17095M 17095  17169M 17169  17245M 17245  17309M 17309  17363M
                                                 17363  17422M 17422  17483M 17483  17615U 17623M 17623  17661M 17661
                                                 17701M 17701  17755M 17755  17814M 17814  17942U 17950M 17950  17987M
                                                 17987  18042M 18042  18169U 18177M 18177  18215M 18215  18289U 18297M
                                                 18297  18335M 18335  18415M 18415  18484M 18484  18551M 18551  18589M
                                                 18589  18677U 18685M 18685  18740M 18740  18778M 18778  18869U 18877M
                                                 18877  18932M 18932  18970M 18970  19307U 19315M 19315  19442U 19450M
                                                 19450  19508M 19508  19635U 19643M 19643  19701M 19701  19828U 19836M
                                                 19836  19894M 19894  19949M 19949  20052U 20060M 20060  20248M 20248
                                                 20375U 20383M 20383  20441M 20441  20496M 20496  20534M 20534  20664M
                                                 20664  20791U 20799M 20799  20857M 20857  20911M 20911  21039U 21047M
                                                 21047  21120M 21120  21189M 21189  21243M 21243  21306M 21306  21409U
                                                 21417M 21417  21620M 21620  21747U 21755M 21755  21813M 21813  21868M
                                                 21868  21906M 21906  22118M 22118  22187M 22187  22241M 22241  22303M
                                                 22303  22431U 22439M 22439  22511M 22511  22581M 22581  22639M 22639
                                                 22693M 22693  22752M 22752  22806M 22806  22864M 22864  22918M 22918
                                                 22978M 22978  23101U 23109M 23109  23201M 23201  23262M 23262  23300M
                                                 23300  23338M 23338  23376M 23376  23574U 23582M 23582  23643M 23643
                                                 23680M 23680  23786U 23794M 23794  23900U 23908M 23908  24014U 24022M
                                                 24022  24077M 24077  24115M 24115  24182M 24182  24236M 24236  24352U
                                                 24360M 24360  24485U 24493M 24493  24553M 24553  24668U 24676M 24676
                                                 24739M 24739  24786M 24786  24847M 24847  24885M 24885  24923M 24923
                                                 25108U 25116M 25116  25170M 25170  25229M 25229  25290M 25290  25471M
                                                 25471  25548M 25548  25585M 25585  25719U 25727M 25727  25796M 25796
1GSTINTF  (GSTI00) (09:40) (22MAR04) Ordinary Symbol and Literal Cross Reference                                            Page  318
                                                 25847M 25847  25947M 25947  25992M 25992  26046M 26046  26105M 26105
                                                 26185M 26185  26230M 26230  26284M 26284  26343M 26343  26423M 26423
                                                 26468M 26468  26522M 26522  26581M 26581  26670M 26670  26724M 26724
                                                 26879U 26887M 26887  27025U 27033M 27033  27113M 27113  27255U 27263M
                                                 27263  27327M 27327  27381M 27381  27439M 27439  27497M 27497  27552M
                                                 27552  27639M 27639  27676M 27676  27738M 27738  27796M 27796  27863M
                                                 27863  27912M 27912  27949M 27949  28003M 28003  28063M 28063  28109M
                                                 28109  28147M 28147  28184M 28184  28239M 28239  48172U 48180M 48180
                                                 48246M 48246  48316M 48316  48383M 48383  48499M 48499  48639U 48647M
                                                 48647  48717M 48717  48800M 48800  48870M 48870  48960M 48960  49046M
                                                 49046  49249U 49257M 49257  49304M 49304  49685U 49693M 49693
 @SEGB       128 0000000C FFFFFFC0         9227  9242   9242  25775M 26935M 27081M 27311M
 @SEGCB        4 00000000 FFFFFFC0     A    9218 15113M 15151M 15226M 15296M 15354M 15425M 15461M 15521M 15579M 15634M
                                                 15694M 15752M 15807M 15867M 15925M 15980M 16040M 16098M 16153M 16191M
                                                 16252M 16397M 16435M 16473M 16511M 16603M 16742M 16774M 16812M 16873M
                                                 16931M 16963M 17001M 17079M 17137M 17207M 17283M 17347M 17405M 17460M
                                                 17498M 17638M 17676M 17739M 17797M 17829M 17965M 18025M 18057M 18192M
                                                 18230M 18312M 18350M 18453M 18526M 18566M 18604M 18723M 18755M 18793M
                                                 18915M 18947M 18985M 19353M 19492M 19546M 19685M 19739M 19878M 19932M
                                                 19964M 20075M 20286M 20425M 20479M 20511M 20549M 20702M 20841M 20895M
                                                 20949M 21089M 21158M 21227M 21285M 21321M 21432M 21658M 21797M 21851M
                                                 21883M 21921M 22156M 22225M 22283M 22341M 22481M 22549M 22619M 22677M
                                                 22735M 22790M 22848M 22902M 22960M 22993M 23124M 23239M 23277M 23315M
                                                 23353M 23391M 23620M 23658M 23718M 23832M 23946M 24060M 24092M 24130M
                                                 24220M 24278M 24402M 24531M 24595M 24718M 24754M 24824M 24862M 24900M
                                                 24938M 25154M 25212M 25267M 25305M 25509M 25563M 25623M 25769M 25831M
                                                 25885M 25962M 26030M 26088M 26120M 26200M 26268M 26326M 26358M 26438M
                                                 26506M 26564M 26596M 26685M 26762M 26929M 27075M 27151M 27305M 27365M
                                                 27423M 27477M 27535M 27594M 27654M 27714M 27780M 27834M 27878M 27927M
                                                 27987M 28045M 28078M 28124M 28162M 28222M 28254M 48230M 48300M 48366M
                                                 48410M 48549M 48701M 48767M 48854M 48920M 48987M 49073M 49287M 49331M
                                                 49736M
 @SEGCCB       4 00000000 FFFFFFBE     A    9301 23768M 23882M 23996M 24331M 24455M 24648M
 @SEGCNUM      4 00000004 FFFFFFBE     A    9302 23761M 23875M 23989M 24324M 24448M 24641M
 @SEGCOL       8 00000000 FFFFFFBE     J    9309 23736U 23744M 23744  23850U 23858M 23858  23964U 23972M 23972  24299U
                                                 24307M 24307  24423U 24431M 24431  24616U 24624M 24624
 @SEGCORE     24 00000000 FFFFFFBD     J    9362 16276U 16284M 16284  17523U 17531M 17531  17855U 17863M 17863  18082U
                                                 18090M 18090  19988U 19996M 19996  21345U 21353M 21353  23021U 23029M
                                                 23029  49139U 49147M 49147
 @SEGEOB       8 0000000C FFFFFFC0         9258 15232M 16517M 18236M 23397M 24944M 28260M
 @SEGEOR      16 0000000C FFFFFFC0         9253 15119M 15157M 15467M 15640M 15813M 15986M 16159M 16197M 16258M 16403M
                                                 16441M 16479M 16780M 16818M 16969M 17007M 17213M 17289M 17466M 17504M
                                                 17644M 17682M 17835M 17971M 18063M 18198M 18318M 18356M 18572M 18610M
                                                 18761M 18799M 18953M 18991M 19970M 20081M 20517M 20555M 21327M 21438M
                                                 21889M 21927M 22999M 23130M 23245M 23283M 23321M 23359M 23626M 23664M
                                                 24098M 24136M 24760M 24830M 24868M 24906M 25273M 25311M 25569M 25968M
                                                 26126M 26206M 26364M 26444M 26602M 26691M 27660M 27884M 27933M 28084M
                                                 28130M 28168M 48416M 48993M 49079M 49337M
 @SEGICB       4 00000000 FFFFFFBF     A    9279 48152M
 @SEGILEN      2 0000000C FFFFFFBF     Y    9282 48116M
 @SEGILOC      4 00000008 FFFFFFBF     A    9281 48099M
 @SEGINIT     14 00000000 FFFFFFBF     J    9289 48073U 48081M 48081
 @SEGIRTN      4 00000004 FFFFFFBF     A    9280 48133M
 @SEGLEN       4 00000008 FFFFFFC0     A    9220 15106M 15144M 15144  15219M 15289M 15347M 15418M 15454M 15454  15514M
                                                 15572M 15627M 15687M 15745M 15800M 15860M 15918M 15973M 16033M 16091M
                                                 16146M 16184M 16184  16245M 16390M 16390  16428M 16428  16466M 16466
                                                 16504M 16504  16596M 16735M 16767M 16767  16805M 16805  16866M 16924M
                                                 16956M 16956  16994M 16994  17072M 17130M 17200M 17276M 17340M 17398M
                                                 17453M 17491M 17491  17631M 17631  17669M 17669  17732M 17790M 17822M
1GSTINTF  (GSTI00) (09:40) (22MAR04) Ordinary Symbol and Literal Cross Reference                                            Page  319
                                                 17822  17958M 17958  18018M 18050M 18050  18185M 18185  18223M 18223
                                                 18305M 18305  18343M 18343  18446M 18519M 18559M 18559  18597M 18597
                                                 18716M 18748M 18748  18786M 18786  18908M 18940M 18940  18978M 18978
                                                 19346M 19485M 19539M 19678M 19732M 19871M 19925M 19957M 19957  20068M
                                                 20068  20279M 20418M 20472M 20504M 20504  20542M 20542  20695M 20834M
                                                 20888M 20942M 21082M 21151M 21220M 21278M 21314M 21314  21425M 21425
                                                 21651M 21790M 21844M 21876M 21876  21914M 21914  22149M 22218M 22276M
                                                 22334M 22474M 22542M 22612M 22670M 22728M 22783M 22841M 22895M 22953M
                                                 22986M 22986  23117M 23117  23232M 23270M 23270  23308M 23308  23346M
                                                 23346  23384M 23384  23613M 23651M 23651  23711M 23825M 23939M 24053M
                                                 24085M 24085  24123M 24123  24213M 24271M 24395M 24524M 24588M 24711M
                                                 24747M 24747  24817M 24855M 24855  24893M 24893  24931M 24931  25147M
                                                 25205M 25260M 25298M 25298  25502M 25556M 25556  25616M 25762M 25824M
                                                 25878M 25955M 25955  26023M 26081M 26113M 26113  26193M 26193  26261M
                                                 26319M 26351M 26351  26431M 26431  26499M 26557M 26589M 26589  26678M
                                                 26678  26755M 26922M 27068M 27144M 27298M 27358M 27416M 27470M 27528M
                                                 27587M 27647M 27647  27707M 27773M 27827M 27871M 27871  27920M 27920
                                                 27980M 28038M 28071M 28071  28117M 28117  28155M 28155  28215M 28247M
                                                 28247  48211M 48281M 48347M 48391M 48391  48530M 48682M 48748M 48835M
                                                 48901M 48968M 48968  49054M 49054  49268M 49312M 49312  49724M
 @SEGLOC       4 00000004 FFFFFFC0     A    9219 15089M 15202M 15272M 15330M 15401M 15497M 15555M 15610M 15670M 15728M
                                                 15783M 15843M 15901M 15956M 16016M 16074M 16129M 16228M 16579M 16718M
                                                 16849M 16907M 17055M 17113M 17183M 17259M 17323M 17381M 17436M 17715M
                                                 17773M 18001M 18429M 18502M 18699M 18891M 19329M 19468M 19522M 19661M
                                                 19715M 19854M 19908M 20262M 20401M 20455M 20678M 20817M 20871M 20925M
                                                 21065M 21134M 21203M 21261M 21634M 21773M 21827M 22132M 22201M 22259M
                                                 22317M 22457M 22525M 22595M 22653M 22711M 22766M 22824M 22878M 22936M
                                                 23215M 23596M 23694M 23808M 23922M 24036M 24196M 24254M 24378M 24507M
                                                 24571M 24694M 24800M 25130M 25188M 25243M 25485M 25599M 25745M 25807M
                                                 25861M 26006M 26064M 26244M 26302M 26482M 26540M 26738M 26905M 27051M
                                                 27127M 27281M 27341M 27399M 27453M 27511M 27570M 27690M 27756M 27810M
                                                 27963M 28021M 28198M 48194M 48264M 48330M 48513M 48665M 48731M 48818M
                                                 48884M 49263M 49707M
 @SEGRCB       4 00000000 FFFFFFBC     A    9374 49528
 @SEGRTN       4 00000000 FFFFFFBC     J    9381 49523U
 @SEGT        64 0000000C FFFFFFC0         9232  9242   9242
 @SEGTYPE      1 0000000C FFFFFFC0     R    9223  9227   9232   9243   9248   9253   9258
 @SEGXCB       4 00000000 FFFFFFBD     A    9321 16355M 17596M 17923M 18150M 20033M 21390M 23082M 49200M
 @SEGXFAL     64 0000000D FFFFFFBD         9336 16339  16339  16340  16340  16343  16343  16346  16346  17584  17584
                                                 17585  17585  17588  17588  17911  17911  17912  17912  17915  17915
                                                 18138  18138  18139  18139  18142  18142  20025  20025  20026M 21382
                                                 21382  21383M 23072  23072  23074  23074  49178  49178  49180  49180
 @SEGXFID     16 0000000D FFFFFFBD         9346 16338  16338  16339  16339  16341  16341  16344  16344  16348M 17583
                                                 17583  17584  17584  17586  17586  17589M 17910  17910  17911  17911
                                                 17913  17913  17916M 18137  18137  18138  18138  18140  18140  18143M
 @SEGXFLG      1 0000000D FFFFFFBD     R    9327  9331   9336   9341   9346   9351
 @SEGXFOF     32 0000000D FFFFFFBD         9341 16338  16338  16340  16340  16342  16342  16345  16345  17583  17583
                                                 17585  17585  17587  17587  17910  17910  17912  17912  17914  17914
                                                 18137  18137  18139  18139  18141  18141  23072  23072  23073  23073
                                                 23075M 49178  49178  49179  49179  49181M
 @SEGXFRL      8 0000000D FFFFFFBD         9351 16344  16344  16345  16345  16346  16346  16347  16347
 @SEGXF16    128 0000000D FFFFFFBD         9331 16341  16341  16342  16342  16343  16343  16347  16347  17586  17586
                                                 17587  17587  17588  17588  17913  17913  17914  17914  17915  17915
                                                 18140  18140  18141  18141  18142  18142  20025  20025  21382  21382
                                                 23073  23073  23074  23074  49179  49179  49180  49180
 @SEGXID       4 00000014 FFFFFFBD     C    9355 16319M 17566M 17893M 18120M
 @SEGXLOC      4 00000004 FFFFFFBD     A    9322 16296M 16313M 16324  17543M 17560M 17571  17874M 17887M 17898  18101M
                                                 18114M 18125  20007M 20017M 21364M 21374M 23040M 23052M 49153M 49158M
 @SEGXOFF      4 00000010 FFFFFFBD     A    9354 16324M 17571M 17898M 18125M 23062M 49168M
1GSTINTF  (GSTI00) (09:40) (22MAR04) Ordinary Symbol and Literal Cross Reference                                            Page  320
 @SNDADDR      4 00000000 FFFFFF92     A   51833 52401M
 @SNDLEN       4 00000004 FFFFFF92     A   51834 52402M
 @SNDPPRM     12 00000000 FFFFFF92     J   51842 51694U 51702M 51702  52392U 52400M 52400  52604U 52612M 52612
 @SNDTOKN      4 00000008 FFFFFF92     A   51835 51744  52403M 52613M
 @SPAWN       28 00000000 FFFFFFC6     J    8869 11710U 11718M 11718
 @SPNDPRI      4 00000018 FFFFFFC6     A    8862 11729M
 @SPNEP        4 00000008 FFFFFFC6     A    8858 11730M
 @SPNNAME      8 00000000 FFFFFFC6     C    8857 11722M 11725M
 @SPNPARM      4 0000000C FFFFFFC6     A    8859 11731M
 @STBFLG       1 0000000C FFFFFFDD     R    7980  7984
 @STBLEN       4 00000004 FFFFFFDD     A    7974  7987   7987
 @STBLOC       4 00000000 FFFFFFDD     A    7973  7987   7987
 @TRTYPE       1 00000000 FFFFFFC5     R    8890  8899   8909   8919   8929   8939   8949   8959   8969
 @WAR          0 00000000 FFFFFFF2     @    1167 31744
 @XTBFLG       1 00000008 FFFFFFDE     R    7947  7951
 @XTBLEN       4 00000004 FFFFFFDE     A    7943  7954   7954
 @XTBLOC       4 00000000 FFFFFFDE     A    7942  7954   7954
 AHLHEAD       1 00000000 00000000 A   T    2968  2968
 AHLVCCR8      1 00000000 00000000 A   T    3459  3459
 AM24         18 000083C8 00000001     X   53446 53460  53497
 AM24CAP       2 000083C8 00000001     H   53406 13765  40146  53446  53446
 ASMVT         1 00000000 00000000 A   T    3348  3348
 BADICODE      2 00003902 00000001     H   29314 29290B 29298B 29307B
 BADSIGP       2 000042DE 00000001     H   32346 32317B 32325B 32332B 32333B 32334B 32335B 32336B 32337B
 BIT0          1 00000080 FFFFFFE7 A   U    4541  4556   4570   4625   4849   4855   5916   5925   5958   5967   5981
                                                  5990   6004   6013   6040   6071   6105   6117   6125   6135   6144
                                                  6162   6171   6185   6194   6222   6231   7312   7335   7336   7589
                                                  7616   7664   7668   7669   7751   7771   7785   7816
 BIT1          1 00000040 FFFFFFE7 A   U    4542  4557   4571   4626   4850   4856   5917   5926   5959   5968   5982
                                                  5991   6005   6014   6041   6072   6106   6118   6126   6136   6145
                                                  6163   6172   6186   6195   6223   6232   7313   7337   7339   7619
                                                  7664   7666   7667   7669   7752   7773   7786   7818
 BIT2          1 00000020 FFFFFFE7 A   U    4543  4558   4580   4627   4857   5918   5927   5960   5969   5983   5992
                                                  6006   6015   6042   6073   6107   6119   6127   6137   6146   6164
                                                  6173   6187   6196   6224   6233   7314   7622   7664   7666   7692
                                                  7755   7775   7788   7819
 BIT3          1 00000010 FFFFFFE7 A   U    4544  4559   4582   4628   4858   5919   5928   5961   5970   5984   5993
                                                  6007   6016   6043   6074   6120   6128   6138   6147   6165   6174
                                                  6188   6197   6225   6234   7315   7623   7670   7681   7694   7695
                                                  7757   7776   7790   7821
 BIT4          1 00000008 FFFFFFE7 A   U    4545  4560   4583   4629   4834   4859   5920   5929   5962   5971   5985
                                                  5994   6008   6017   6044   6075   6121   6129   6139   6148   6166
                                                  6175   6189   6198   6226   6235   7316   7625   7682   7696   7701
                                                  7702   7758   7777   7792   7824
 BIT5          1 00000004 FFFFFFE7 A   U    4546  4561   4562   4585   4630   4835   4860   5921   5930   5963   5972
                                                  5986   5995   6009   6018   6045   6076   6122   6130   6140   6149
                                                  6167   6176   6190   6199   6227   6236   7317   7329   7331   7626
                                                  7696   7699   7702   7759   7778   7794   7825
 BIT6          1 00000002 FFFFFFE7 A   U    4547  4563   4586   4631   4836   4861   5922   5931   5964   5973   5987
                                                  5996   6010   6019   6046   6077   6123   6131   6141   6150   6168
                                                  6177   6191   6200   6228   6237   7318   7321   7342   7343   7627
                                                  7685   7761   7764   7779   7795   7826
 BIT7          1 00000001 FFFFFFE7 A   U    4548  4565   4589   4633   4837   4862   5923   5932   5965   5974   5988
                                                  5997   6011   6020   6047   6078   6132   6142   6151   6169   6178
                                                  6192   6201   6229   6238   7318   7320   7321   7344   7349   7629
                                                  7686   7761   7765   7780   7796   7827
 BR           10 0000000A FFFFFFFF A   #    1136 10697M 10707U 11884M 11894U 12114M 12124U 12449M 12459U 13814M 13824U
                                                 14319M 14329U 14544M 14554U 14930M 14940U 15006M 15016U 19166M 19176U
                                                 23507M 23517U 25038M 25048U 28370M 28380U 28596M 28606U 31681M 31691U
1GSTINTF  (GSTI00) (09:40) (22MAR04) Ordinary Symbol and Literal Cross Reference                                            Page  321
                                                 32112M 32122U 33408M 33418U 33885M 33895U 34362M 34372U 34768M 34778U
                                                 35245M 35255U 35461M 35471U 36113M 36123U 36592M 36602U 36810M 36820U
                                                 36996M 37006U 37167M 37177U 37824M 37834U 37922M 37932U 38241M 38251U
                                                 38364M 38374U 38686M 38696U 39087M 39097U 39268M 39278U 39476M 39486U
                                                 39689M 39699U 39835M 39845U 39964M 39974U 40216M 40226U 41033M 41043U
                                                 41976M 41986U 42658M 42668U 43400M 43410U 44376M 44386U 45541M 45551U
                                                 46781M 46791U 47063M 47073U 47217M 47227U 47427M 47437U 49497M 49507U
                                                 49834M 49844U 50508M 50518U 50929M 50939U 51054M 51064U 51410M 51420U
                                                 51549M 51559U 51637M 51647U 51876M 51886U 52522M 52532U 52727M 52737U
                                                 52871M 52881U 53100M 53110U 53234M 53244U
 BRADDR        2 00002AC2 00000001     H   25787 25682B 25699B
 BRTDONE       4 00002B02 00000001     I   25893 25780B
 BTDBTD        1 00000000 00000010     T   19080 19080  28332  52684
 BTXBTX        1 00000000 00000011     T   23437 23437
 CANTASK       1 00000000 0000000C     T   19072 19072
 CBBRANCH      1 00000000 00000000 A   T    3504  3504
 CPCLAST       4 00000018 FFFFFFB2     A   10059 12257M 33710  34187  35070  35659  35790  36335
 CPCLEN        4 00000014 FFFFFFB2     A   10058 12254M 12256  12276  33163  34608  35361  38289
 CPCORE        4 00000010 FFFFFFB2     A   10057 12253M 12255  12266  12274  19293  20224  21595  25377  33179  34665
                                                 35644  35778  35939  36320  37338  37490  37617  37733  38938  39016
                                                 39392  39600
 CPCPUA        4 00000064 FFFFFFB2     A   10084 12261M 17108  18497  21256  22254  25183  28776M 28776  31816  32576
                                                 32705  32820  33077  33831
 CPCPUID       8 00000068 FFFFFFB2     D   10085 12262M 34308
 CPCPUTM       8 00000078 FFFFFFB2     D   10087 51359
 CPCREGS       4 000000BC FFFFFFB2     A   10110 28950  28953M 29459  31408  32189  32270  33072  33305  33503  33980
                                                 34457  34863  35345  35556  35899  36214  38310  38528  38556  38855
                                                 38878  39332  39540  39753  40028  40359  40456  40872  40899  41176
                                                 41352  42059  42528  42727  42751  43543  43719  44519  44616  45684
                                                 45782  46930  46975  47159  47710  48786  49904  49955  49997  50386
                                                 50993  51118  51494  51741  52019  52121  52591  52935  52976
 CPCS          1 00000060 FFFFFFB2     R   10067 10071  10076  10081
 CPCSDIS1     32 00000060 FFFFFFB2        10081 14162M 14242M 31327
 CPCSRUN     128 00000060 FFFFFFB2        10071 11646M 17151  28817  32387  32389  32389  32393M 32489  32489  32506
                                                 32510M 32630  32632  32632  32636M 32994  33137  38078  38078  38095
                                                 38099M
 CPCSTERM     64 00000060 FFFFFFB2        10076 14156M 14419M 31230  31242M
 CPECB         4 0000005C FFFFFFB2     A   10064 14189  14443  28525  28848  31182  32009  32411  32545  32674  32789
                                                 32928  38138  39905  40085
 CPEMERG       4 00000084 FFFFFFB2     A   10092 30600  30689  30698M 32847  32863  32872M
 CPEXCALL      4 00000080 FFFFFFB2     A   10091 30745M 30745  30779  30841M 32735M 33006
 CPGRSAVE      4 0000001C FFFFFFB2     A   10060 28934M 29253
 CPGSTCT       4 00000004 FFFFFFB2     A   10054 12250M 21957  28738  30968  31074  31436  31748  32157  35856  36021
                                                 36401  36478  37980  40035  46826  47108  51456  52772  53009
 CPLOADP       4 00000090 FFFFFFB2     A   10098 38449M 38731  39132  39205M 39205
 CPPSALOC      4 00000070 FFFFFFB2     A   10086 12266M 14378  17768  17785  17841  28676  28879  29352  30389  30476
                                                 30648  30797  30858  31008  31245  31409  33180  33181M 33215  33584
                                                 33651  33718  33780  34061  34128  34195  34257  34541  34616  34663
                                                 34666M 34700  34944  35011  35078  35140  35369  35667  35798  35977
                                                 36343  40302  40399  40725  40792  41119  41216  41295  41618  42093
                                                 42189  42793  42912  43486  43583  43662  43802  43962  44462  44559
                                                 44713  44797  45627  45725  45870  46198  46265  47570  47815  50076
                                                 51147  51243  51310  51962  52059  52203  53310
 CPRSTRT       4 00000088 FFFFFFB2     A   10093 11647M 28864  28918M 32606M
 CPSIERA       4 0000000C FFFFFFB2     A   10056 12252M 28949
 CPSPFX        4 0000008C FFFFFFB2     A   10094 33110M 33240M
 CPSTIMER     24 00000094 FFFFFFB2     X   10104 28785  32021  37970
 CPSTIMID      4 000000AC FFFFFFB2     A   10105 28789  32025
 CPSTPARM      4 000000B0 FFFFFFB2     A   10106 28693M 28795  32031
1GSTINTF  (GSTI00) (09:40) (22MAR04) Ordinary Symbol and Literal Cross Reference                                            Page  322
 CPSTRTCB      4 000000B8 FFFFFFB2     A   10108 28737M 31742
 CPSTSTK       4 000000B4 FFFFFFB2     A   10107 28736M 31743
 CPTASKID      4 00000008 FFFFFFB2     A   10055 11736M 14649  17376  17393
 CPTREAD       1 00000000 00000016     T   31613 31613
 CPTSTART      1 00000000 00000014     T   31602 31602
 CPUB        512 00000000 FFFFFFB2     J   10546 11636U 11694U 12213U 12249M 13767  13873U 14374U 14624U 17023U 17555
                                                 18467U 19092  19223U 25094U 28481U 28637U 28682  28945U 31738U 32153U
                                                 32373U 32387  32387  32389  32389  32393M 32393M 32427U 32459U 32489
                                                 32489  32506  32506  32510M 32510M 32561U 32594U 32630  32630  32632
                                                 32632  32636M 32636M 32691U 32723U 32806U 32839U 32945U 32976U 33038U
                                                 33098U 33221  33252U 33449U 33926U 34403U 34706  34809U 35286U 35502U
                                                 36154U 37208U 37963U 38051U 38078  38078  38095  38095  38099M 38099M
                                                 38154U 38282U 38405U 38727U 39128U 39309U 39517U 39730U 39876U 40005U
                                                 40055U 40262U 41079U 42022U 42704U 43446U 44422U 45587U 46822U 47104U
                                                 47473U 49880U 50970U 51095U 51451U 51678U 51922U 52568U 52768U 52912U
                                                 53262U
 CPUTASK       4 00003360 00000001     I   28595 13753  28606U
 CRBRANCH      1 00000000 00000000 A   T    3245  3245
 CSRTABLE      1 00000000 00000000 A   T    3265  3265
 CSVARMGR      1 00000000 00000000 A   T    3313  3313
 CSVEXIT       1 00000000 00000000 A   T    3186  3186
 CSVLLCB       1 00000000 00000000 A   T    2786  2786
 CSVLLTRM      1 00000000 00000000 A   T    2787  2787
 CSVMEM        1 00000000 00000000 A   T    3014  3014
 CSVVFGET      1 00000000 00000000 A   T    3578  3578
 CSVVFIND      1 00000000 00000000 A   T    3576  3576
 CVT           1 00000000 FFFFFFED     J    2756 29045  29135  40578U 41479U 42320U 43091U 46853U 53276U
 CVTBRET       2 00000052 FFFFFFED     H    2811  3324   3403
 CVTDICOM      1 00000080 FFFFFFED A   U    3076 42366
 CVTDIRST      1 00000168 FFFFFFED     X    3075 42368
 CVTEXT2       4 00000148 FFFFFFED     A    3050 53282
 CVTLDTO       8 00000038 FFFFFFEA     D    3875 53304
 CVTLPDSR      4 00000160 FFFFFFED     V    3070 42383
 CVTLSO        8 00000050 FFFFFFEA     D    3884 53306  53309
 CVTNUCLU      4 000004EC FFFFFFED     V    3673 42471
 CVTPTR        1 00000010 FFFFFFEE A   U    2752 28973  29085  40568  41469  42310  43081  46843  53266
 CVTPTRV       4 00000120 FFFFFFED     V    3021 40589  41490
 CVTQCDSR      4 000000B8 FFFFFFED     V    2925 42332
 CVTQLPAQ      4 000000BC FFFFFFED     V    2926 42325
 CVTRCEP       4 00000490 FFFFFFED     V    3617 46859
 CVTSMCA       4 000000C4 FFFFFFED     A    2930 43097
 CVTUSER       4 000000CC FFFFFFED     A    2936 29045  29135
 CVTVSTGX      1 00000000 FFFFFFEC     J    3776  3640
 CVTXTNT1      1 00000000 FFFFFFEB     J    3815  2983
 CVTXTNT2      1 00000000 FFFFFFEA     J    3823  3053   3979  53300U
 CVT4MS1       1 00000010 FFFFFFED A   U    2836  2844
 CVT6DAT       1 00000002 FFFFFFED A   U    2840  2844
 DCBBIT0       1 00000080 FFFFFFE5 A   U    5055  5143   5151   5165   5187   5229   5231   5232   5234   5254   5257
                                                  5279   5283   5298   5335   5391   5411   5449   5453   5472
 DCBBIT1       1 00000040 FFFFFFE5 A   U    5056  5144   5152   5167   5196   5197   5206   5212   5229   5231   5233
                                                  5234   5259   5279   5281   5283   5301   5302   5303   5338   5339
                                                  5391   5413   5455   5457   5475   5520
 DCBBIT2       1 00000020 FFFFFFE5 A   U    5057  5145   5153   5168   5169   5170   5196   5197   5201   5207   5212
                                                  5229   5230   5235   5261   5284   5285   5306   5307   5308   5342
                                                  5343   5392   5418   5458   5480   5523   5526
 DCBBIT3       1 00000010 FFFFFFE5 A   U    5058  5146   5168   5170   5171   5196   5209   5236   5264   5284   5287
                                                  5310   5311   5312   5346   5347   5392   5420   5422   5424   5460
                                                  5481   5523   5527
 DCBBIT4       1 00000008 FFFFFFE5 A   U    5059  5154   5210   5211   5212   5237   5265   5289   5294   5295   5315
1GSTINTF  (GSTI00) (09:40) (22MAR04) Ordinary Symbol and Literal Cross Reference                                            Page  323
                                                  5316   5350   5351   5353   5354   5393   5427   5462   5482   5523
                                                  5528
 DCBBIT5       1 00000004 FFFFFFE5 A   U    5060  5155   5217   5240   5241   5267   5289   5291   5292   5295   5319
                                                  5321   5322   5323   5357   5358   5359   5360   5393   5429   5432
                                                  5465   5484   5518
 DCBBIT6       1 00000002 FFFFFFE5 A   U    5061  5147   5219   5220   5223   5240   5242   5268   5326   5327   5328
                                                  5329   5363   5364   5365   5366   5394   5435   5467   5486   5529
 DCBBIT7       1 00000001 FFFFFFE5 A   U    5062  5148   5219   5221   5223   5244   5273   5331   5332   5369   5370
                                                  5372   5373   5438   5468   5469   5487   5531
 DCBDCBE       4 00000000 FFFFFFE5     A    5070  5074
 DCBFDAD       8 00000005 FFFFFFE5     C    5086  5088
 DCBLRECL      2 00000052 FFFFFFE5     H    5553 38828
 DCBOFIOF      1 00000001 FFFFFFE5 A   U    5273  5275
 DCBOFUEX      1 00000002 FFFFFFE5 A   U    5268  5272
 DFAIDTAB      1 00000000 00000000 A   T    3653  3653
 DGATWA        4 00000000 FFFFFFA7     J   23494 23540U
 DGSWK         4 00000010 FFFFFFA8     A   19136 21538M 22706  22723  22740M 22819  22836
 DGTRCLK       8 00000008 FFFFFFA6     D   25017 25380M 27540M 27565  27582
 DGTRLOC       4 00000010 FFFFFFA6     A   25018 26833M 26856  26859
 DGTRNAM       8 00000000 FFFFFFA6     C   25016 25689M 25690  25740  25757  26858M 26900  26917  26984  27046  27214
                                                 27276
 DGTRWA       20 00000000 FFFFFFA6     J   25025 25071U 25080M 25080
 DGVCPTE       4 00000004 FFFFFFA8     A   19133 20575M 21456  23146  23148M
 DGVCSTE       4 00000000 FFFFFFA8     A   19132 19294M 20098  23173  23175M
 DGVFCOMMON
              64 00000000 FFFFFFAF        10659 18831M 20612  21103  21492
 DGVFCSEG    128 00000014 FFFFFFA8        19143 20129M 20152M 20600  20632  21480  21512  22100
 DGVFLAG       1 00000000 FFFFFFAF     R   10650 10654  10659
 DGVFLG        1 00000014 FFFFFFA8     R   19139 19143
 DGVFLOCAL
             128 00000000 FFFFFFAF        10654 18642M 20644  21524
 DGVMCPUB      4 00000004 FFFFFFAF     A   10662 18266M 18644M 18834M 19019M 19213  23546  25084
 DGVMLOW       4 0000000C FFFFFFAF     A   10664 18645M 18835M 22081
 DGVMPARM     16 00000000 FFFFFFAF     J   10671 18256U 18264M 18264  18628U 18636M 18636  18817U 18825M 18825  19009U
                                                 19017M 19017  19192U 19199U 23533U 23540U 25064U 25071U
 DGVMSCB       4 00000008 FFFFFFAF     A   10663 18265M 18643M 18832M 19018M 19353  19492  19546  19685  19739  19878
                                                 19932  19964  20033  20075  20286  20425  20479  20511  20549  20702
                                                 20841  20895  20949  21089  21158  21227  21285  21321  21390  21432
                                                 21658  21797  21851  21883  21921  22156  22225  22283  22341  22481
                                                 22549  22619  22677  22735  22790  22848  22902  22960  22993  23082
                                                 23124  23239  23277  23315  23353  23391  23620  23658  23718  23768
                                                 23832  23882  23946  23996  24060  24092  24130  24220  24278  24331
                                                 24402  24455  24531  24595  24648  24718  24754  24824  24862  24900
                                                 24938  25154  25212  25267  25305  25509  25563  25623  25769  25831
                                                 25885  25962  26030  26088  26120  26200  26268  26326  26358  26438
                                                 26506  26564  26596  26685  26762  26929  27075  27151  27305  27365
                                                 27423  27477  27535  27594  27654  27714  27780  27834  27878  27927
                                                 27987  28045  28078  28124  28162  28222  28254
 DGVPVA        4 0000000C FFFFFFA8     A   19135 20582M 20582  21949  23005  23149  23151M
 DGVSVA        4 00000008 FFFFFFA8     A   19134 20954  21948  23004  23176  23178M
 DGVWA        37 00000000 FFFFFFA8     J   19153 19199U 19208M 19208
 DGVWORK      16 00000015 FFFFFFA8     X   19146 19402  19463  19595  19656  19788  19849  20335  20396  20751  20812
                                                 20999  21060  21707  21768  22391  22452
 DIAGMAX       1 00000078 00000001 A   U   30463 31612
 DIAGTAB       4 00003C1C 00000001     A   30432 29531  30463
 DISPLOCK      1 00000000 00000000 A   T    1659  1659
 DISP1AS      29 00000AE0 00000001     C   14282 14014  14031  14096  14113
 DISP1CP      27 00000AFD 00000001     C   14283 13966
 DISP1MC       1 00000005 00000001 A   U   14295 13901
1GSTINTF  (GSTI00) (09:40) (22MAR04) Ordinary Symbol and Literal Cross Reference                                            Page  324
 DISP1ML       1 00000B18 00000001     R   14285 13902
 DISP1M1      52 00000B19 00000001     C   14286 14285
 DISP1M2      47 00000B4E 00000001     C   14288 14287
 DISP1M3      25 00000B7E 00000001     C   14290 14289
 DISP1M4      43 00000B98 00000001     C   14292 14291
 DISP1M5      57 00000BC4 00000001     C   14294 14293
 DOIO          1 00000000 0000001A     T   36545 36545
 DOWTO         4 00007B0C 00000001     I   50507 19068  31625  49653  50366  50518U
 DPTOKEN       4 00000004 FFFFFF93     A   51811 52125M 52403
 DPWADDR       4 00000000 FFFFFF93     A   51810 52379M 52431
 DPWLEN        4 0000000C FFFFFF93     A   51813 52130  52296  52402  52432
 DPWLOCS       8 00000010 FFFFFF93     D   51814 52255M 52256M 52285  52344
 DPWUADR       4 00000008 FFFFFF93     A   51812 52023M 52129
 DPWWORK      32 00000000 FFFFFF93     J   51821 51909U 52555U
 DSALLO        1 00000000 00000008     T   13764 13764
 DTABEND       4 00005386 00000001     I   37921 30433  37932U
 DTALLOC       4 0000598E 00000001     I   39688 30440  39699U
 DTCPUINF      4 00007DAA 00000001     I   51409 30456  51420U
 DTCPUTM       4 00007C60 00000001     I   51053 30454  51064U
 DTDOM         4 00007BF8 00000001     I   50928 30453  50939U
 DTDPALLO      4 00007E50 00000001     I   51636 30458  51647U
 DTDPCLOS      4 00008112 00000001     I   52521 30460  52532U
 DTDPWRIT      4 00007ED2 00000001     I   51875 30459  51886U
 DTENQ         4 0000654C 00000001     I   43399 30447  43410U
 DTERMCOM      4 00008212 00000001     I   52726 30461  52737U
 DTLDBLK       4 000056A8 00000001     I   38685 30435  38696U
 DTLDEND       4 000057E8 00000001     I   39086 30437  39097U
 DTLDSTA       4 000054BA 00000001     I   38363 30436  38374U
 DTMEMSZ       4 00005450 00000001     I   38240 30434  38251U
 DTMVSNM       4 00006112 00000001     I   41975 30445  41986U
 DTMVSRD       4 00005B12 00000001     I   40215 30443  40226U
 DTMVSWRT      4 00005E12 00000001     I   41032 30444  41043U
 DTMXCPU       4 00007202 00000001     I   47062 30450  47073U
 DTMXREAL      4 0000710E 00000001     I   46780 30449  46791U
 DTNOPAGE      4 000058F0 00000001     I   39475 30439  39486U
 DTNOSPIN      4 00005A44 00000001     I   39963 30442  39974U
 DTNOTDMP      4 00008258 00000001     I   52870 30462  52881U
 DTPAGE        4 00005856 00000001     I   39267 30438  39278U
 DTPARM        4 0000694C 00000001     I   44375 30448  44386U
 DTPARM2       4 00006CF8 00000001     I   45540 30455  45551U
 DTQSERV       4 00007E16 00000001     I   51548 30457  51559U
 DTSMF         4 000062FE 00000001     I   42657 30446  42668U
 DTSNAP        4 000072FC 00000001     I   47426 30451  47437U
 DTSPIN        4 00005A02 00000001     I   39834 30441  39845U
 DTWTO         4 000078D2 00000001     I   49833 30452  49844U
 DUMPFRL       4 000024FC 00000001     I   23506 19091  23517U
 DUMPGVM       4 00001A38 00000001     I   19165 19089  19176U
 DUMPTRC       4 000028F0 00000001     I   25037 19087  25048U
 DVATEND       2 000027AE 00000001     H   24730 24536B
 DVATWD        4 00000000 FFFFFFA7     A   23487 24170M 24249  24266  24338M 24373  24390  24541M 24566  24583  24654M
                                                 24689
 DWTBUF        4 00000000 FFFFFF94     A   50474 50627M 50860
 DWTOWORK      8 00000000 FFFFFF94     J   50482 50541U
 DWTSIZ        4 00000004 FFFFFF94     A   50475 50594M 50855
 D13913        2 00003994 00000001     H   29461 29455B 29457B
 D15326        2 00004228 00000001     H   32191 32185B 32187B
 D15370        2 00004280 00000001     H   32272 32266B 32268B
 D15810        2 000044AA 00000001     H   33074 33068B 33070B
 D15926        2 00004568 00000001     H   33307 33301B 33303B
1GSTINTF  (GSTI00) (09:40) (22MAR04) Ordinary Symbol and Literal Cross Reference                                            Page  325
 D16015        2 000045FE 00000001     H   33505 33499B 33501B
 D16265        2 000047A6 00000001     H   33982 33976B 33978B
 D16515        2 0000494E 00000001     H   34459 34453B 34455B
 D16720        2 00004ABA 00000001     H   34865 34859B 34861B
 D16969        2 00004C5E 00000001     H   35347 35341B 35343B
 D17085        2 00004D12 00000001     H   35558 35552B 35554B
 D17274        2 00004E26 00000001     H   35901 35895B 35897B
 D17432        2 00004F2A 00000001     H   36216 36210B 36212B
 D18549        2 000054A0 00000001     H   38312 38306B 38308B
 D18652        2 00005594 00000001     H   38530 38524B 38526B
 D18661        2 000055CA 00000001     H   38558 38552B 38554B
 D18790        2 0000572C 00000001     H   38857 38851B 38853B
 D18796        2 00005760 00000001     H   38880 38874B 38876B
 D19045        2 0000589E 00000001     H   39334 39328B 39330B
 D19155        2 00005938 00000001     H   39542 39536B 39538B
 D19270        2 000059D6 00000001     H   39755 39749B 39751B
 D19418        2 00005A8C 00000001     H   40030 40024B 40026B
 D19577        2 00005B94 00000001     H   40361 40355B 40357B
 D19623        2 00005C02 00000001     H   40458 40452B 40454B
 D19831        2 00005D98 00000001     H   40874 40868B 40870B
 D19837        2 00005DDC 00000001     H   40901 40895B 40897B
 D19951        2 00005E94 00000001     H   41178 41172B 41174B
 D20043        2 00005F42 00000001     H   41354 41348B 41350B
 D20399        2 00006166 00000001     H   42061 42055B 42057B
 D20654        2 000062E2 00000001     H   42530 42524B 42526B
 D20726        2 00006346 00000001     H   42729 42723B 42725B
 D20732        2 0000637A 00000001     H   42753 42747B 42749B
 D21120        2 000065CE 00000001     H   43545 43539B 43541B
 D21212        2 0000667C 00000001     H   43721 43715B 43717B
 D21612        2 000069CE 00000001     H   44521 44515B 44517B
 D21658        2 00006A3C 00000001     H   44618 44612B 44614B
 D22253        2 00006D7A 00000001     H   45686 45680B 45682B
 D22299        2 00006DEC 00000001     H   45784 45778B 45780B
 D22930        2 00007196 00000001     H   46932 46926B 46928B
 D22955        2 000071CC 00000001     H   46977 46971B 46973B
 D23052        2 00007260 00000001     H   47161 47155B 47157B
 D23280        2 000073F4 00000001     H   47712 47706B 47708B
 D24020        2 000076B0 00000001     H   48788 48782B 48784B
 D24765        2 0000791C 00000001     H   49906 49900B 49902B
 D24792        2 00007954 00000001     H   49957 49951B 49953B
 D24810        2 00007994 00000001     H   49999 49993B 49995B
 D25034        2 00007AD6 00000001     H   50388 50382B 50384B
 D25364        2 00007C40 00000001     H   50995 50989B 50991B
 D25423        2 00007CA8 00000001     H   51120 51114B 51116B
 D25619        2 00007DFC 00000001     H   51496 51490B 51492B
 D25746        2 00007EAE 00000001     H   51743 51737B 51739B
 D25867        2 00007F54 00000001     H   52021 52015B 52017B
 D25919        2 00007FC8 00000001     H   52123 52117B 52119B
 D26173        2 0000815A 00000001     H   52593 52587B 52589B
 D26349        2 000082A0 00000001     H   52937 52931B 52933B
 D26369        2 000082DA 00000001     H   52978 52972B 52974B
 EMSLOOP       2 00003D04 00000001     I   30621 30638B
 EPAR         15 0000000F FFFFFFFF A   #    1196 10697  10755M 10756B 10818M 10819B 10882M 10883B 10910M 10911B 11011M
                                                 11012B 11130M 11131B 11190M 11191B 11295M 11296B 11410M 11411B 11477M
                                                 11478B 11520M 11521B 11555M 11556B 11587M 11588B 11621M 11622B 11734M
                                                 11735B 11803M 11804B 11884  11955M 11956B 12004M 12005B 12044M 12045B
                                                 12114  12201M 12202B 12449  12609M 12610B 12728M 12729B 12801M 12802B
                                                 12938M 12939B 13084M 13085B 13222M 13223B 13355M 13356B 13404M 13405B
                                                 13494M 13495B 13576M 13577B 13645M 13646B 13814  13949M 13950B 14042M
1GSTINTF  (GSTI00) (09:40) (22MAR04) Ordinary Symbol and Literal Cross Reference                                            Page  326
                                                 14043B 14083M 14084B 14124M 14125B 14193M 14194B 14224M 14225B 14319
                                                 14400M 14413  14447M 14448B 14479M 14480B 14544  14652M 14653B 14715M
                                                 14716B 14798M 14799B 14843M 14844B 14876M 14877B 14930  15006  15122M
                                                 15123B 15160M 15161B 15235M 15236B 15299M 15300B 15357M 15358B 15428M
                                                 15429B 15470M 15471B 15524M 15525B 15582M 15583B 15643M 15644B 15697M
                                                 15698B 15755M 15756B 15816M 15817B 15870M 15871B 15928M 15929B 15989M
                                                 15990B 16043M 16044B 16101M 16102B 16162M 16163B 16200M 16201B 16261M
                                                 16262B 16358M 16359B 16406M 16407B 16444M 16445B 16482M 16483B 16520M
                                                 16521B 16606M 16607B 16677M 16678B 16745M 16746B 16783M 16784B 16821M
                                                 16822B 16876M 16877B 16934M 16935B 16972M 16973B 17010M 17011B 17082M
                                                 17083B 17140M 17141B 17216M 17217B 17292M 17293B 17350M 17351B 17408M
                                                 17409B 17469M 17470B 17507M 17508B 17599M 17600B 17647M 17648B 17685M
                                                 17686B 17742M 17743B 17800M 17801B 17838M 17839B 17926M 17927B 17974M
                                                 17975B 18028M 18029B 18066M 18067B 18153M 18154B 18201M 18202B 18239M
                                                 18240B 18272M 18273B 18321M 18322B 18359M 18360B 18456M 18457B 18529M
                                                 18530B 18575M 18576B 18613M 18614B 18652M 18653B 18726M 18727B 18764M
                                                 18765B 18802M 18803B 18842M 18843B 18918M 18919B 18956M 18957B 18994M
                                                 18995B 19025M 19026B 19166  19356M 19357B 19427M 19428B 19495M 19496B
                                                 19549M 19550B 19620M 19621B 19688M 19689B 19742M 19743B 19813M 19814B
                                                 19881M 19882B 19935M 19936B 19973M 19974B 20036M 20037B 20084M 20085B
                                                 20289M 20290B 20360M 20361B 20428M 20429B 20482M 20483B 20520M 20521B
                                                 20558M 20559B 20705M 20706B 20776M 20777B 20844M 20845B 20898M 20899B
                                                 20952M 20953B 21024M 21025B 21092M 21093B 21161M 21162B 21230M 21231B
                                                 21288M 21289B 21330M 21331B 21393M 21394B 21441M 21442B 21661M 21662B
                                                 21732M 21733B 21800M 21801B 21854M 21855B 21892M 21893B 21930M 21931B
                                                 22159M 22160B 22228M 22229B 22286M 22287B 22344M 22345B 22416M 22417B
                                                 22484M 22485B 22552M 22553B 22622M 22623B 22680M 22681B 22738M 22739B
                                                 22793M 22794B 22851M 22852B 22905M 22906B 22963M 22964B 23002M 23003B
                                                 23085M 23086B 23133M 23134B 23248M 23249B 23286M 23287B 23324M 23325B
                                                 23362M 23363B 23400M 23401B 23507  23629M 23630B 23667M 23668B 23721M
                                                 23722B 23771M 23772B 23835M 23836B 23885M 23886B 23949M 23950B 23999M
                                                 24000B 24063M 24064B 24101M 24102B 24139M 24140B 24223M 24224B 24281M
                                                 24282B 24334M 24335B 24405M 24406B 24458M 24459B 24534M 24535B 24598M
                                                 24599B 24651M 24652B 24721M 24722B 24763M 24764B 24833M 24834B 24871M
                                                 24872B 24909M 24910B 24947M 24948B 25038  25157M 25158B 25215M 25216B
                                                 25276M 25277B 25314M 25315B 25512M 25513B 25572M 25573B 25626M 25627B
                                                 25666M 25667B 25778M 25779B 25834M 25835B 25888M 25889B 25971M 25972B
                                                 26033M 26034B 26091M 26092B 26129M 26130B 26209M 26210B 26271M 26272B
                                                 26329M 26330B 26367M 26368B 26447M 26448B 26509M 26510B 26567M 26568B
                                                 26605M 26606B 26694M 26695B 26765M 26766B 26831M 26832B 26938M 26939B
                                                 27009M 27010B 27084M 27085B 27154M 27155B 27239M 27240B 27314M 27315B
                                                 27368M 27369B 27426M 27427B 27480M 27481B 27538M 27539B 27597M 27598B
                                                 27663M 27664B 27717M 27718B 27783M 27784B 27837M 27838B 27887M 27888B
                                                 27936M 27937B 27990M 27991B 28048M 28049B 28087M 28088B 28133M 28134B
                                                 28171M 28172B 28225M 28226B 28263M 28264B 28370  28529M 28530B 28596
                                                 28646M 28647B 28653M 28654B 28680M 28681B 28688M 28689B 28734M 28735B
                                                 28852M 28853B 28899M 28905  29372M 29380  29430M 29467M 29468M 29469
                                                 29531M 29532B 29567M 29568B 29579M 29580B 29604M 29605B 29665M 29666B
                                                 29709M 29710B 29893M 29894B 29937M 29938B 29981M 29982B 30025M 30026B
                                                 30069M 30070B 30409M 30417  30496M 30504  30668M 30676  30817M 30825
                                                 30878M 30885  30974M 30975B 31081M 31082B 31186M 31187B 31265M 31272
                                                 31399M 31400B 31481M 31482B 31796M 31797B 31949M 31950B 31974M 31975B
                                                 32013M 32014B 32112  32241M 32278M 32279M 32280  32415M 32416B 32549M
                                                 32550B 32678M 32679B 32793M 32794B 32932M 32933B 33210M 33211B 33219M
                                                 33220B 33227M 33228B 33408  33474M 33511M 33512M 33513  33560M 33561B
                                                 33604M 33616  33671M 33679  33738M 33746  33800M 33808  33885  33951M
                                                 33988M 33989M 33990  34037M 34038B 34081M 34093  34148M 34156  34215M
                                                 34223  34277M 34285  34362  34428M 34465M 34466M 34467  34514M 34515B
                                                 34561M 34573  34636M 34644  34695M 34696B 34704M 34705B 34712M 34713B
1GSTINTF  (GSTI00) (09:40) (22MAR04) Ordinary Symbol and Literal Cross Reference                                            Page  327
                                                 34768  34834M 34871M 34872M 34873  34920M 34921B 34964M 34976  35031M
                                                 35039  35098M 35106  35160M 35168  35245  35389M 35397  35461  35527M
                                                 35564M 35565M 35566  35687M 35695  35818M 35826  35864M 35865B 35946M
                                                 35947B 36030M 36031B 36113  36185M 36222M 36223M 36224  36363M 36371
                                                 36409M 36410B 36487M 36488B 36592  36810  36996  37167  37824  37922
                                                 38142M 38143B 38241  38364  38447M 38448B 38686  38775M 38776B 38807M
                                                 38808B 39087  39197M 39198B 39268  39418M 39419B 39476  39632M 39633B
                                                 39689  39780M 39781B 39835  39909M 39910B 39964  40089M 40090B 40216
                                                 40322M 40330  40419M 40427  40589M 40590B 40701M 40702B 40745M 40757
                                                 40812M 40821  41033  41139M 41147  41236M 41244  41315M 41323  41490M
                                                 41491B 41594M 41595B 41638M 41650  41755M 41756B 41860M 41861B 41976
                                                 42113M 42121  42165M 42166B 42209M 42221  42332M 42333B 42383M 42384B
                                                 42471M 42472B 42658  42813M 42821  42888M 42889B 42932M 42944  43047M
                                                 43048B 43260M 43261B 43400  43506M 43514  43603M 43611  43682M 43690
                                                 43778M 43779B 43822M 43834  43938M 43939B 43982M 43994  44224M 44225B
                                                 44376  44482M 44490  44579M 44587  44689M 44690B 44733M 44745  44762M
                                                 44772  44817M 44826  44932M 44933B 44975M 44976B 44997M 45000  45073M
                                                 45074B 45181M 45182B 45324M 45325B 45347M 45350  45430M 45431B 45468M
                                                 45469B 45541  45647M 45655  45745M 45753  45846M 45847B 45890M 45902
                                                 45976M 45977B 46024M 46025B 46046M 46049  46174M 46175B 46218M 46230
                                                 46285M 46294  46386M 46387B 46437M 46438B 46546M 46547B 46569M 46572
                                                 46674M 46675B 46721M 46722B 46781  47063  47132M 47133B 47217  47427
                                                 47546M 47547B 47590M 47602  47791M 47792B 47835M 47847  47948M 47949B
                                                 48036M 48037B 48155M 48156B 48233M 48234B 48303M 48304B 48369M 48370B
                                                 48419M 48420B 48552M 48553B 48623M 48624B 48704M 48705B 48770M 48771B
                                                 48857M 48858B 48923M 48924B 48996M 48997B 49082M 49083B 49203M 49204B
                                                 49290M 49291B 49340M 49341B 49394M 49395B 49435M 49436B 49497  49653M
                                                 49654B 49739M 49740B 49834  50052M 50053B 50096M 50108  50210M 50211B
                                                 50366M 50367B 50428M 50429B 50508  50625M 50626B 50864M 50865B 50929
                                                 51054  51167M 51175  51219M 51220B 51263M 51275  51330M 51339  51410
                                                 51549  51637  51705M 51706B 51876  51982M 51990  52079M 52087  52179M
                                                 52180B 52223M 52235  52337M 52338B 52406M 52407B 52467M 52468B 52522
                                                 52616M 52617B 52727  52813M 52814B 52871  53100  53176M 53177B 53234
 EXTINT        2 00003DC4 00000001     H   30855 29303B
 EXTPEND       2 00003CD6 00000001     H   30548 29302B 31215B
 FLCEAMDID
               1 000000A3 FFFFFFEE     C    2459  2460   2462
 FLCEFACILITIESLIST
               4 000000C8 FFFFFFEE     C    2489  2490
 FLCEFACILITIESLISTBYTE0
               1 000000C8 FFFFFFEE     B    2491  2492   2496
 FLCEICOD      2 00000086 FFFFFFEE     H    1399  1400
 FLCENPSW      4 00000058 FFFFFFEE     X    1375  1377
 FLCEOPSW      8 00000018 FFFFFFEE     X    1358  1359
 FLCEPDATA
               4 0000008C FFFFFFEE     C    2410  2411   2427
 FLCEPDATABYTE0
               2 0000008C FFFFFFEE     C    2412  2413   2418
 FLCEPER       8 00000098 FFFFFFEE     C    2452  2453
 FLCEPERATMID
               1 00000097 FFFFFFEE     B    2442  2443
 FLCEPERCODE
               2 00000096 FFFFFFEE     C    2433  2434   2451
 FLCEPERCODE0
               1 00000096 FFFFFFEE     B    2435  2436   2441
 FLCEPICODE
               2 0000008E FFFFFFEE     C    2419  2420
 FLCEPICODE1
               1 0000008F FFFFFFEE     G    2422  2423
1GSTINTF  (GSTI00) (09:40) (22MAR04) Ordinary Symbol and Literal Cross Reference                                            Page  328
 FLCEPIINFORMATION
               4 00000090 FFFFFFEE     C    2428  2429
 FLCEPILC      1 0000008D FFFFFFEE     G    2415  2416
 FLCESAME      8 00000000 FFFFFFEE     D    2392  2521
 FLCESDATA
               4 00000088 FFFFFFEE     C    2400  2401
 FLCESDATABYTE0
               2 00000088 FFFFFFEE     C    2402  2403   2408
 FLCESILC      1 00000089 FFFFFFEE     G    2405  2406
 FLCETEA       8 000000A8 FFFFFFEE     C    2466  2467
 FLCETEASNINFO
               8 000000A8 FFFFFFEE     C    2475  2476
 FLCETEA7      1 000000AF FFFFFFEE     B    2469  2470
 FLCETEID      8 000000A8 FFFFFFEE     C    2464  2465   2474   2479
 FLCETEPCINFO
               8 000000A8 FFFFFFEE     C    2480  2481
 FLCINPSW      4 00000078 FFFFFFEE     X    1389  1391
 FLCIOPSW      8 00000038 FFFFFFEE     X    1367  1368
 FLCIPPSW      8 00000000 FFFFFFEE     C    1348  1351
 FLCMNPSW      4 00000070 FFFFFFEE     X    1385  1388
 FLCMOPSW      8 00000030 FFFFFFEE     X    1365  1366
 FLCPICOD      2 0000008E FFFFFFEE     H    1423  1424
 FLCPIILC      1 0000008D FFFFFFEE     G    1416  1422
 FLCPNPSW      4 00000068 FFFFFFEE     X    1381  1384
 FLCPOPSW      8 00000028 FFFFFFEE     X    1363  1364
 FLCSNPSW      4 00000060 FFFFFFEE     X    1378  1380
 FLCSOPSW      8 00000020 FFFFFFEE     X    1360  1362
 FLCSVCN       2 0000008A FFFFFFEE     H    1410  1413
 FLCSVILC      1 00000089 FFFFFFEE     G    1404  1409
 FMBRANCH      1 00000000 00000000 A   T    3429  3429
 FPOST         1 00000000 0000000A     T   19070 19070  31600  32068  36531  40141  53528
 FREEIOCB      4 00005130 00000001     I   36995 31624  36030  36487  37006U
 FRIGSTC       4 00000000 FFFFFFA3     A   36975 31074M 36021M 36478M 37027
 FRIIOCB       4 00000004 FFFFFFA3     A   36976 31075M 36022M 36479M 37041
 FRIOCBP       8 00000000 FFFFFFA3     J   36983 31072U 36019U 36476U 37022U
 FWAIT         1 00000000 0000000B     T   19071 19071  31607  40154
 GETCGSTC      4 00000000 FFFFFFAD     A   12094 11613M 12145
 GETCPU        4 000003E2 00000001     I   12113 11621  12124U
 GETCPUP       4 00000000 FFFFFFAD     J   12101 11604U 11612M 11612  12140U
 GETIOCB       4 00005060 00000001     I   36591 35864  36602U
 GETIOI        4 000050E4 00000001     I   36809 31623  36409  36820U
 GLBRANCH      1 00000000 00000000 A   T    3335  3335
 GMBRANCH      1 00000000 00000000 A   T    3431  3431
 GSTCCLEN      4 00000014 FFFFFFB3     A    9985 11193M 11438  12254  15723  15740  24161  46902
 GSTCCORE      4 00000010 FFFFFFB3     A    9984 11192M 12253  15550  15567  24337  37869
 GSTCCPUS      4 00000038 FFFFFFB3     A    9995 11626  11684  12245M 13978  14364  14614  14697  16550  18402  18833
                                                 28470  32219  37994  40050  53161  53178
 GSTCIOFQ      4 00000028 FFFFFFB3     A    9991 36640  36689M 37059  37069M
 GSTCIOIQ      4 00000030 FFFFFFB3     A    9993 28434  28445M 36858  36908M 37089
 GSTCMINL      4 00000018 FFFFFFB3     A    9986 11039M 46978
 GSTCNCPU      4 00000004 FFFFFFB3     A    9980 10918M 11676  12162  12237  14606  14668  16069  16086  16542  18394
                                                 28469  32208  38012  47137  47139  51473  53145
 GSTCNOTC      4 00000094 FFFFFFB3     F   10018 21980  53023  53044M
 GSTCNOTF      4 00000098 FFFFFFB3     A   10021 22009  53046M
 GSTCNOTI      8 00000098 FFFFFFB3     D   10020 10023  22032  53536
 GSTCNOTL      4 0000009C FFFFFFB3     A   10022 22023  53047M
 GSTCNOTM      1 00000010 FFFFFFB3 A   U   10019 10023  53534
 GSTCPFLG      1 00000090 FFFFFFB3     R   10008 10012
 GSTCPINT      8 00000088 FFFFFFB3     D   10005 12509M 12744M 12745M 12746  12749M 12750M 28791  32027
1GSTINTF  (GSTI00) (09:40) (22MAR04) Ordinary Symbol and Literal Cross Reference                                            Page  329
 GSTCPLCK      4 00000084 FFFFFFB3     A   10004 13578M 31792  31970
 GSTCPLOC      4 00000080 FFFFFFB3     A   10003 13496M 14735  31801
 GSTCPON     128 00000090 FFFFFFB3        10012 13547M 14729  28766  31771
 GSTCRCPA      4 0000001C FFFFFFB3     A    9987 11479M 12281  14829  15896  15913
 GSTCRCPL      4 00000020 FFFFFFB3     A    9988 11440M 14824
 GSTCRMOV      4 0000000C FFFFFFB3     A    9983 11434M 46892
 GSTCRMPC      4 00000008 FFFFFFB3     A    9982 11318M 46895
 GSTCSCA       4 00000024 FFFFFFB3     A    9989 11522M 12284
 GSTCT       280 00000000 FFFFFFB3     J   10030 10744  10767U 10771M 11754  11758  11758  12155U 12502U 13860U 14360U
                                                 14585U 14864  15052U 15370  16308  21967U 22032  23556U 28430U 28748U
                                                 31446U 31758U 32167U 36633U 36851U 37037U 37865U 37990U 40045U 46836U
                                                 47118U 51466U 52782U 53019U 53141U 53178
 GSTCTECB      8 00000078 FFFFFFB3     D    9999 14220  14475  31477  52809
 GSTDISP1      4 000009C6 00000001     I   13813 13808  13824U
 GSTDUMP       4 00000DAA 00000001     I   15005 15000  15016U
 GSTIIOT       4 000032CC 00000001     I   28369 28364  28380U
 GSTIKEY1      8 00000004 FFFFFFB5     C    9604 10844M 10922M 11041M
 GSTIKEY2      8 0000000C FFFFFFB5     C    9605 10923M 11042M 11197M 11322M
 GSTINIT       4 00000022 00000001     I   10696 10691  10707U
 GSTINTF       1 00000000 00000001     J    1220  1217   1218   1222   7874   7900   7931   7962   7995   8031   8055
                                                  8078   8105   8141   8170   8194   8217   8286   8370   8445   8465
                                                  8485   8508   8531   8551   8571   8605   8624   8790   8815   8840
                                                  8870   8987   9012   9086   9112   9206   9268   9290   9310   9363
                                                  9382   9402   9434   9469   9496   9525   9589   9617   9715  10031
                                                 10547  10587  10637  10672  11872  12102  12371  12401  12423  12973
                                                 13119  13257
 GSTINTF       1 00000000 0000001D     T   41932 41932
 GSTIPARM     76 00000000 FFFFFFB5     J    9616 10804  10830U 11791
 GSTIPRMI      4 00000000 FFFFFFB5     X    9603 10839U 10872  10952  11071  11236  11351
 GSTIVAL       4 0000001C FFFFFFB5     A    9607  9608  10876  10878  10900  10986  11003  11028  11105  11122  11147
                                                 11270  11287  11313  11385  11402  11428
 GSTI00        1 00000000 00000001     R    1229  1227
 GSTSTAT       4 00000D80 00000001     I   14929 14924  14940U
 GSTTERM       4 00000C82 00000001     I   14543 14538  14554U
 GSTTERMP      4 00000C0A 00000001     I   14318 14313  14329U
 GTIGSTC       4 00000000 FFFFFFA4     A   36572 30968M 35856M 36401M 36623  36841
 GTIOCBP       4 00000000 FFFFFFA4     J   36579 30966U 35854U 36399U 36618U 36836U
 GVA           4 00005180 00000001     I   37166 28327  36542  37177U 44303  47388  52673
 GVACPUB       4 00000000 FFFFFFA2     A   37145 25659M 26815M 33552M 34029M 34506M 34912M 37198  40694M 41587M 42158M
                                                 42881M 43771M 43931M 44682M 44968M 45317M 45839M 46017M 46167M 46539M
                                                 47539M 47784M 50045M 51212M 52172M
 GVAMLOC       4 00000008 FFFFFFA2     A   37147 25688  26833  33698  34175  34592  35058  37740M 40846  41669  42240
                                                 42963  43853  44013  44977  44998  45326  45348  46026  46047  46548
                                                 46570  47621  47866  50127  51358  52254
 GVAPARM      12 00000000 FFFFFFA2     J   37154 25650U 25658M 25658  26796U 26804M 26804  33543U 33551M 33551  34020U
                                                 34028M 34028  34497U 34505M 34505  34903U 34911M 34911  37193U 40685U
                                                 40693M 40693  41578U 41586M 41586  42149U 42157M 42157  42872U 42880M
                                                 42880  43762U 43770M 43770  43930M 43930  44673U 44681M 44681  44959U
                                                 44967M 44967  45308U 45316M 45316  45830U 45838M 45838  46008U 46016M
                                                 46016  46166M 46166  46530U 46538M 46538  47530U 47538M 47538  47783M
                                                 47783  50036U 50044M 50044  51203U 51211M 51211  52163U 52171M 52171
 GVAREAL       4 00005302 00000001     I   37740 37339B
 GVAVLOC       4 00000004 FFFFFFA2     A   37146 25660M 26825M 33553M 33609  34030M 34086  34507M 34566  34913M 34969
                                                 37246  37281  37370M 37394  37737  40695M 40750  40817  41588M 41643
                                                 42159M 42214  42882M 42937  43772M 43827  43932M 43987  44683M 44738
                                                 44822  44969M 45318M 45840M 45895  46018M 46168M 46223  46290  46540M
                                                 47540M 47595  47785M 47840  50046M 50101  51213M 51268  51335  52173M
                                                 52228
 GVT           1 00000000 00000000 A   T    3197  3197
1GSTINTF  (GSTI00) (09:40) (22MAR04) Ordinary Symbol and Literal Cross Reference                                            Page  330
 HIBAL         1 00000000 FFFFFFFF     J     700   716    729    742    755    768    781    794    807    820    833
                                                   846    859    872    885    898    911   1012   1024   1036   1048
                                                  1060   1072   1084   1096   1108   1120   1132   1144   1156   1168
                                                  1180   1192   1204
 HSPFMIL       1 00000080 FFFFFFE9 A   U    3907  3911   3912
 HSPFORV       1 00000020 FFFFFFE9 A   U    3909  3911
 HSPFORVR      1 00000010 FFFFFFE9 A   U    3910  3912
 HSPFWYL       1 00000040 FFFFFFE9 A   U    3908  3911   3912
 H13913        4 00003984 00000001     I   29456 29452B
 H15326        4 00004218 00000001     I   32186 32182B
 H15370        4 00004270 00000001     I   32267 32263B
 H15810        4 0000449A 00000001     I   33069 33065B
 H15926        4 00004558 00000001     I   33302 33298B
 H16015        4 000045EE 00000001     I   33500 33496B
 H16265        4 00004796 00000001     I   33977 33973B
 H16515        4 0000493E 00000001     I   34454 34450B
 H16720        4 00004AAA 00000001     I   34860 34856B
 H16969        4 00004C4E 00000001     I   35342 35338B
 H17085        4 00004D02 00000001     I   35553 35549B
 H17274        4 00004E16 00000001     I   35896 35892B
 H17432        4 00004F1A 00000001     I   36211 36207B
 H18549        4 00005490 00000001     I   38307 38303B
 H18652        4 00005584 00000001     I   38525 38521B
 H18661        4 000055BA 00000001     I   38553 38549B
 H18790        4 0000571C 00000001     I   38852 38848B
 H18796        4 00005750 00000001     I   38875 38871B
 H19045        4 0000588E 00000001     I   39329 39325B
 H19155        4 00005928 00000001     I   39537 39533B
 H19270        4 000059C6 00000001     I   39750 39746B
 H19418        4 00005A7C 00000001     I   40025 40021B
 H19577        4 00005B84 00000001     I   40356 40352B
 H19623        4 00005BF2 00000001     I   40453 40449B
 H19831        4 00005D88 00000001     I   40869 40865B
 H19837        4 00005DCC 00000001     I   40896 40892B
 H19951        4 00005E84 00000001     I   41173 41169B
 H20043        4 00005F32 00000001     I   41349 41345B
 H20399        4 00006156 00000001     I   42056 42052B
 H20654        4 000062D2 00000001     I   42525 42521B
 H20726        4 00006336 00000001     I   42724 42720B
 H20732        4 0000636A 00000001     I   42748 42744B
 H21120        4 000065BE 00000001     I   43540 43536B
 H21212        4 0000666C 00000001     I   43716 43712B
 H21612        4 000069BE 00000001     I   44516 44512B
 H21658        4 00006A2C 00000001     I   44613 44609B
 H22253        4 00006D6A 00000001     I   45681 45677B
 H22299        4 00006DDC 00000001     I   45779 45775B
 H22930        4 00007186 00000001     I   46927 46923B
 H22955        4 000071BC 00000001     I   46972 46968B
 H23052        4 00007250 00000001     I   47156 47152B
 H23280        4 000073E4 00000001     I   47707 47703B
 H24020        4 000076A0 00000001     I   48783 48779B
 H24765        4 0000790C 00000001     I   49901 49897B
 H24792        4 00007944 00000001     I   49952 49948B
 H24810        4 00007984 00000001     I   49994 49990B
 H25034        4 00007AC6 00000001     I   50383 50379B
 H25364        4 00007C30 00000001     I   50990 50986B
 H25423        4 00007C98 00000001     I   51115 51111B
 H25619        4 00007DEC 00000001     I   51491 51487B
 H25746        4 00007E9E 00000001     I   51738 51734B
1GSTINTF  (GSTI00) (09:40) (22MAR04) Ordinary Symbol and Literal Cross Reference                                            Page  331
 H25867        4 00007F44 00000001     I   52016 52012B
 H25919        4 00007FB8 00000001     I   52118 52114B
 H26173        4 0000814A 00000001     I   52588 52584B
 H26349        4 00008290 00000001     I   52932 52928B
 H26369        4 000082CA 00000001     I   52973 52969B
 IARMPVT       1 00000000 00000000 A   T    3072  3072
 IARMRRCE      1 00000000 00000000 A   T    3617  3617
 IARPIBR       1 00000000 00000000 A   T    3587  3587
 IARPSIV       1 00000000 00000000 A   T    3411  3411
 IARPSXM       1 00000000 00000000 A   T    3560  3560
 IARXKEY       1 00000000 00000000 A   T    3518  3518
 IARXVIO       1 00000000 00000000 A   T    3412  3412
 ICYMMVTC      1 00000000 00000000 A   T    3843  3843
 IDA121CV      1 00000000 00000000 A   T    3350  3350
 IEABEND       1 00000000 00000000 A   T    2934  2934
 IEACLTE       1 00000000 00000000 A   T    1981  1981
 IEACVT        1 00000000 00000000 A   T    1355  1355   1370
 IEADQIQE      1 00000000 00000000 A   T    3330  3330
 IEAECVT       1 00000000 00000000 A   T    2859  2859
 IEAGSMQ       1 00000000 00000000 A   T    3307  3307
 IEAIHASU      1 00000000 00000000 A   T    3547  3547
 IEALKPT       1 00000000 00000000 A   T    1974  1974
 IEALSMQ       1 00000000 00000000 A   T    3309  3309
 IEAMASCB      1 00000000 00000000 A   T    1508  1508   3277   3281
 IEAPATCH      1 00000000 00000000 A   T    2942  2942
 IEAPDSRT      1 00000000 00000000 A   T    3205  3205
 IEAPTRV       1 00000000 00000000 A   T    3021  3021
 IEAQCDSR      1 00000000 00000000 A   T    2925  2925
 IEAQCS01      1 00000000 00000000 A   T    3317  3317
 IEAQEX00      1 00000000 00000000 A   T    1376  1376
 IEAQIO00      1 00000000 00000000 A   T    1390  1390
 IEAQLPAQ      1 00000000 00000000 A   T    2926  2926
 IEAQPK00      1 00000000 00000000 A   T    1383  1383
 IEAQSC00      1 00000000 00000000 A   T    1379  1379
 IEAQTD00      1 00000000 00000000 A   T    2822  2822
 IEAQTE00      1 00000000 00000000 A   T    2820  2820
 IEARPOST      1 00000000 00000000 A   T    3332  3332
 IEASMFEX      1 00000000 00000000 A   T    3209  3209
 IEASMFSP      1 00000000 00000000 A   T    3555  3555
 IEASPOST      1 00000000 00000000 A   T    3352  3352
 IEASVDCB      1 00000000 00000000 A   T    2813  2813
 IEATCBP       1 00000000 00000000 A   T    2763  2763
 IEATPC        1 00000000 00000000 A   T    2815  2815
 IEATRSCN      1 00000000 00000000 A   T    3173  3173
 IEAVAR02      1 00000000 00000000 A   T    3257  3257
 IEAVBLDP      1 00000000 00000000 A   T    3241  3241
 IEAVDELP      1 00000000 00000000 A   T    3244  3244
 IEAVEAC0      1 00000000 00000000 A   T    3334  3334
 IEAVEADV      1 00000000 00000000 A   T    3492  3492
 IEAVEDR1      1 00000000 00000000 A   T    3377  3377
 IEAVELRM      1 00000000 00000000 A   T    3326  3326
 IEAVELT1      1 00000000 00000000 A   T    1745  1745
 IEAVELT2      1 00000000 00000000 A   T    1979  1979
 IEAVENLU      1 00000000 00000000 A   T    3673  3673
 IEAVENQ2      1 00000000 00000000 A   T    3323  3323
 IEAVEQV1      1 00000000 00000000 A   T    3480  3480
 IEAVEQV2      1 00000000 00000000 A   T    3483  3483
 IEAVEQV3      1 00000000 00000000 A   T    3486  3486
 IEAVERI1      1 00000000 00000000 A   T    3379  3379
1GSTINTF  (GSTI00) (09:40) (22MAR04) Ordinary Symbol and Literal Cross Reference                                            Page  332
 IEAVERP1      1 00000000 00000000 A   T    3381  3381
 IEAVERX1      1 00000000 00000000 A   T    3569  3569
 IEAVESC1      1 00000000 00000000 A   T    2271  2271   3508
 IEAVESC2      1 00000000 00000000 A   T    2273  2273
 IEAVESC7      1 00000000 00000000 A   T    2267  2267
 IEAVESC8      1 00000000 00000000 A   T    2269  2269
 IEAVESPR      1 00000000 00000000 A   T    3437  3437
 IEAVESTU      1 00000000 00000000 A   T    3671  3671
 IEAVESVT      1 00000000 00000000 A   T    2275  2275   3443
 IEAVETOT      1 00000000 00000000 A   T    2128  2128
 IEAVETVT      1 00000000 00000000 A   T    2126  2126
 IEAVET6E      1 00000000 00000000 A   T    3543  3543
 IEAVEVT2      1 00000000 00000000 A   T    3497  3497
 IEAVEXPR      1 00000000 00000000 A   T    3305  3305
 IEAVEXP1      1 00000000 00000000 A   T    3474  3474
 IEAVFRCL      1 00000000 00000000 A   T    3243  3243
 IEAVGSDA      1 00000000 00000000 A   T    3488  3488
 IEAVGTCL      1 00000000 00000000 A   T    3242  3242
 IEAVGWSA      1 00000000 00000000 A   T    3337  3337
 IEAVLKRM      1 00000000 00000000 A   T    3044  3044
 IEAVMFRM      1 00000000 00000000 A   T    3422  3422
 IEAVMSGS      1 00000000 00000000 A   T    2991  2991
 IEAVNVT0      1 00000000 00000000 A   T    3656  3656
 IEAVRSTR      1 00000000 00000000 A   T    1350  1350
 IEAVRSUH      1 00000000 00000000 A   T    3535  3535
 IEAVRT03      1 00000000 00000000 A   T    3149  3149
 IEAVSPND      1 00000000 00000000 A   T    3545  3545
 IEAVSTAG      1 00000000 00000000 A   T    3285  3285
 IEAVSVTX      1 00000000 00000000 A   T    2277  2277
 IEAVTCTL      1 00000000 00000000 A   T    3537  3537
 IEAVTEST      1 00000000 00000000 A   T    3048  3048
 IEAVTRGR      1 00000000 00000000 A   T    3345  3345
 IEAVTRG1      1 00000000 00000000 A   T    2794  2794
 IEAVTRV3      1 00000000 00000000 A   T    3041  3041
 IEAVTSBP      1 00000000 00000000 A   T    3291  3291
 IEAVTSFR      1 00000000 00000000 A   T    3012  3012
 IEAVTSGL      1 00000000 00000000 A   T    3289  3289
 IEAVVMSR      1 00000000 00000000 A   T    3070  3070
 IEAVWAIT      1 00000000 00000000 A   T    3312  3312
 IEAVWSAC      1 00000000 00000000 A   T    3343  3343
 IEAVWSAG      1 00000000 00000000 A   T    3341  3341
 IEAVWSAL      1 00000000 00000000 A   T    3339  3339
 IEAVXEXT      1 00000000 00000000 A   T    3420  3420
 IEAVXSFT      1 00000000 00000000 A   T    3387  3387
 IEAVXSTN      1 00000000 00000000 A   T    3393  3393
 IEAVXSTS      1 00000000 00000000 A   T    3391  3391
 IEAVXUNN      1 00000000 00000000 A   T    3416  3416
 IEAVXUNS      1 00000000 00000000 A   T    3395  3395
 IEAWTCB       1 00000000 00000000 A   T    3452  3452
 IEA0DS        1 00000000 00000000 A   T    2858  2858
 IEA0EF00      1 00000000 00000000 A   T    2764  2764
 IEA0EF01      1 00000000 00000000 A   T    2804  2804
 IEA0PT0E      1 00000000 00000000 A   T    3524  3524
 IEA0PT01      1 00000000 00000000 A   T    2865  2865
 IEA0PT02      1 00000000 00000000 A   T    3449  3449
 IEA0PT03      1 00000000 00000000 A   T    3526  3526
 IEA0VL00      1 00000000 00000000 A   T    2775  2775
 IEA0VL01      1 00000000 00000000 A   T    3182  3182
 IECIXAVL      1 00000000 00000000 A   T    2850  2850
1GSTINTF  (GSTI00) (09:40) (22MAR04) Ordinary Symbol and Literal Cross Reference                                            Page  333
 IECPCNVT      1 00000000 00000000 A   T    2778  2778
 IECPRLTV      1 00000000 00000000 A   T    2782  2782
 IECVEXCL      1 00000000 00000000 A   T    3414  3414
 IECXAPG       1 00000000 00000000 A   T    2773  2773
 IECXITP       1 00000000 00000000 A   T    2803  2803
 IECXTLER      1 00000000 00000000 A   T    2789  2789
 IEC0SCR1      1 00000000 00000000 A   T    2948  2948
 IEECUCB       1 00000000 00000000 A   T    2819  2819
 IEEMSER       1 00000000 00000000 A   T    2797  2797   2863
 IEEVEXSN      1 00000000 00000000 A   T    3152  3152
 IEEVSTOP      1 00000000 00000000 A   T    3462  3462
 IEFAQTOP      1 00000000 00000000 A   T    3269  3269
 IEFAUSDM      1 00000000 00000000 A   T    2769  2769
 IEFENFDM      1 00000000 00000000 A   T    2928  2928
 IEFJESCT      1 00000000 00000000 A   T    3028  3028
 IEFLINK       1 00000000 00000000 A   T    2766  2766
 IEFQMWR       1 00000000 00000000 A   T    2879  2879
 IEWFBOSV      1 00000000 00000000 A   T    2856  2856
 IEWMSEPT      1 00000000 00000000 A   T    3361  3361
 IFBDCB        1 00000000 00000000 A   T    2845  2845
 IFDOLT0A      1 00000000 00000000 A   T    3207  3207
 IFGDEBVR      1 00000000 00000000 A   T    3838  3838
 IGC043BR      1 00000000 00000000 A   T    3253  3253
 IGC044R2      1 00000000 00000000 A   T    3363  3363
 IGC062R1      1 00000000 00000000 A   T    3333  3333
 IGC07903      1 00000000 00000000 A   T    3478  3478
 IGC124        1 00000000 00000000 A   T    3494  3494
 IGFPMAIN      1 00000000 00000000 A   T    1386  1386
 IGFRVT        1 00000000 00000000 A   T    2943  2943
 IGVCPBDB      1 00000000 00000000 A   T    3609  3609
 IGVCPDLB      1 00000000 00000000 A   T    3611  3611
 IGVCPFRE      1 00000000 00000000 A   T    3601  3601
 IGVCPGTC      1 00000000 00000000 A   T    3599  3599
 IGVCPGUB      1 00000000 00000000 A   T    3593  3593
 IGVCPGUP      1 00000000 00000000 A   T    3596  3596
 IGVCPGUS      1 00000000 00000000 A   T    3619  3619
 IGVGCAS       1 00000000 00000000 A   T    3247  3247
 IGVGFAS       1 00000000 00000000 A   T    3251  3251
 IGVGRRGN      1 00000000 00000000 A   T    3623  3623
 IGVGVRGN      1 00000000 00000000 A   T    3625  3625
 IGVQSPET      1 00000000 00000000 A   T    3249  3249
 IGVSLIST      1 00000000 00000000 A   T    3603  3603
 IGVSLOC       1 00000000 00000000 A   T    3607  3607
 IGVSREGN      1 00000000 00000000 A   T    3605  3605
 IGVSTSKI      1 00000000 00000000 A   T    3590  3590
 IHADCB        1 00000000 FFFFFFE5     J    5045  5125   5175   5250   5377   5382   5397   5406   5506   5509   5514
                                                  5539   5557   5558  38822U
 IHAMPL        1 00000000 00000000 A   T    1464  1464
 IHB17704B
               4 000050A4 00000001     F   36727 36722B
 IHB17704F
               1 000050A0 00000001     B   36723 36729
 IHB2698A      2 00000736 00000001     H   13430 13424B
 ILRJTERM      1 00000000 00000000 A   T    3532  3532
 INITDEV       1 00000000 0000001C     T   40153 40153
 INSTPER       2 00003CC6 00000001     H   30525 29301B
 INSTRUCT      2 00003912 00000001     H   29332 29299B
 INTCPUB       4 00000000 FFFFFFA5     A   32092 29525M 29573M 29659M 29703M 29887M 29931M 29975M 30019M 30063M 32143
                                                 33439  33916  34393  34799  35276  35492  36144  37953  38272  38395
1GSTINTF  (GSTI00) (09:40) (22MAR04) Ordinary Symbol and Literal Cross Reference                                            Page  334
                                                 38717  39118  39299  39507  39720  39866  39995  40252  41069  42012
                                                 42694  43436  44412  45577  46812  47094  47463  49870  50960  51085
                                                 51441  51668  51912  52558  52758  52902
 INTERP        4 00000000 FFFFFFA5     J   32099 29523U 29657U 32138U 33434U 33911U 34388U 34794U 35271U 35487U 36139U
                                                 37948U 38267U 38390U 38712U 39113U 39294U 39502U 39715U 39861U 39990U
                                                 40242U 40249U 41059U 41066U 42002U 42009U 42684U 42691U 43426U 43433U
                                                 44402U 44409U 45567U 45574U 46807U 47089U 47453U 47460U 49860U 49867U
                                                 50955U 51080U 51436U 51575U 51663U 51902U 51909U 52548U 52555U 52753U
                                                 52897U
 INVOP         2 00003BE8 00000001     H   30388 29505B 30104B 30137B 30170B 30203B 30236B 30269B 30302B 30335B 30368B
                                                 30377
 IOCB         36 00000000 FFFFFFB1     J   10586 28411U 31003U 35876U 36440U 36673U 36717  36745U 36755M 36755  36756M
                                                 36891U 37051U
 IOCBCPA       4 00000018 FFFFFFB1     A   10573 35940
 IOCBGSTC      4 00000008 FFFFFFB1     A   10566 28420  36757M
 IOCBHSP       1 00000020 FFFFFFB1     C   10577 28416M 36053M 36898M 37055M
 IOCBIFLG      4 00000014 FFFFFFB1     A   10572 35942
 IOCBIPRM      4 00000010 FFFFFFB1     A   10571 10574  10574  31031  35999  36452
 IOCBNEXT      4 00000004 FFFFFFB1     A   10565 28444M 36679  36897  37066M
 IOCBORB      12 00000010 FFFFFFB1     X   10574 35910M
 IOCBSCH       4 0000000C FFFFFFB1     A   10570 31030  35902M 35941  35998  36451
 IOCBSTAT      4 0000001C FFFFFFB1     A   10575 28415M 31032  36453
 IOILP         4 00003312 00000001     I   28471 28540B
 IOPEND        2 00003DF0 00000001     H   30902 29304B
 IOSERV        1 00000000 0000001E     T   41933 41933
 IOSLOCK       1 00000000 00000000 A   T    1689  1689
 IOSTINIT      1 00000000 00000013     T   31601 31601
 IOSVDEVN      1 00000000 00000000 A   T    3549  3549
 IOSVHID       1 00000000 00000000 A   T    3559  3559
 IOSVSUCB      1 00000000 00000000 A   T    3562  3562
 IPLTEXT       1 00000000 0000001B     T   40139 40139  41934
 IRARMCNS      1 00000000 00000000 A   T    3303  3303
 IRARMEPS      1 00000000 00000000 A   T    3521  3521
 IRARMI00      1 00000000 00000000 A   T    3260  3260
 IRBEND        4 000000A0 FFFFFFE1     F    7724  7850   7855   7866
 ISNBRNCH      1 00000000 00000000 A   T    3418  3418
 ITAB          4 000038D2 00000001     I   29298 29296B 29310
 ITABL         1 00000030 00000001 A   U   29310 31610
 IXSIGP        4 000041E0 00000001     I   32111 31616  32122U
 IXSPX         4 000048F6 00000001     I   34361 31618  34372U
 IXSSCH        4 00004CBA 00000001     I   35460 31614  35471U
 IXSTAP        4 000045A6 00000001     I   33407 31617  33418U
 IXSTIDP       4 0000474E 00000001     I   33884 31619  33895U
 IXSTPX        4 00004A62 00000001     I   34767 31620  34778U
 IXTB          4 00004C0A 00000001     I   35244 31621  35255U
 IXTPI         4 00004ECE 00000001     I   36112 31615  36123U
 LAMPARM     148 00000014 FFFFFF90     X   53462 38748  38780
 LAM24        18 00000000 FFFFFF90     X   53460 38468M 38775  38807
 LBLDL        80 00000118 FFFFFF90     X   53469 38475M 38494  53470  53471  53472  53473
 LBUFFER       1 00000168 FFFFFF90     X   53475 38473  38942
 LDCB         88 000000C0 FFFFFF90     X   53468 38469M 38471  38484  38493  38500  38765  38797  38812  39154
 LDECB        20 000000AC FFFFFF90     X   53467 38470M 38472M 38474M 38763  38795
 LIPGSTCT      4 00000000 FFFFFFA1     A   37804 11581M 37855
 LKMOD         8 0000011C FFFFFF90     C   53470 38501
 LMEPA         3 00000139 FFFFFF90     A   53473 38564
 LMLEN         3 00000134 FFFFFF90     A   53472 38536
 LOADIP        4 00000000 FFFFFFA1     J   37811 11572U 11580M 11580  37850U
 LOADIPL       4 00005348 00000001     I   37823 13750  37834U
 LOADPARM   8552 00000000 FFFFFF90     J   53482 38460U 38741U 39142U 40144
1GSTINTF  (GSTI00) (09:40) (22MAR04) Ordinary Symbol and Literal Cross Reference                                            Page  335
 LOCKCRE       1 00000000 00000009     T   13766 13766
 LOCKOB        1 00000000 00000017     T   32065 32065
 LOCKREL       1 00000000 00000018     T   32067 32067
 LOPENP        4 000000A8 FFFFFF90     F   53464 38479M 38482  39149M 39152
 LPDE          1 00000000 FFFFFFE6     J    4890 42422U
 LPDENTP       4 00000010 FFFFFFE6     F    4994 42428
 L13913        4 0000398C 00000001     I   29458 29453B
 L15326        4 00004220 00000001     I   32188 32183B
 L15370        4 00004278 00000001     I   32269 32264B
 L15810        4 000044A2 00000001     I   33071 33066B
 L15926        4 00004560 00000001     I   33304 33299B
 L16015        4 000045F6 00000001     I   33502 33497B
 L16265        4 0000479E 00000001     I   33979 33974B
 L16515        4 00004946 00000001     I   34456 34451B
 L16720        4 00004AB2 00000001     I   34862 34857B
 L16969        4 00004C56 00000001     I   35344 35339B
 L17085        4 00004D0A 00000001     I   35555 35550B
 L17274        4 00004E1E 00000001     I   35898 35893B
 L17432        4 00004F22 00000001     I   36213 36208B
 L18549        4 00005498 00000001     I   38309 38304B
 L18652        4 0000558C 00000001     I   38527 38522B
 L18661        4 000055C2 00000001     I   38555 38550B
 L18790        4 00005724 00000001     I   38854 38849B
 L18796        4 00005758 00000001     I   38877 38872B
 L19045        4 00005896 00000001     I   39331 39326B
 L19155        4 00005930 00000001     I   39539 39534B
 L19270        4 000059CE 00000001     I   39752 39747B
 L19418        4 00005A84 00000001     I   40027 40022B
 L19577        4 00005B8C 00000001     I   40358 40353B
 L19623        4 00005BFA 00000001     I   40455 40450B
 L19831        4 00005D90 00000001     I   40871 40866B
 L19837        4 00005DD4 00000001     I   40898 40893B
 L19951        4 00005E8C 00000001     I   41175 41170B
 L20043        4 00005F3A 00000001     I   41351 41346B
 L20399        4 0000615E 00000001     I   42058 42053B
 L20654        4 000062DA 00000001     I   42527 42522B
 L20726        4 0000633E 00000001     I   42726 42721B
 L20732        4 00006372 00000001     I   42750 42745B
 L21120        4 000065C6 00000001     I   43542 43537B
 L21212        4 00006674 00000001     I   43718 43713B
 L21612        4 000069C6 00000001     I   44518 44513B
 L21658        4 00006A34 00000001     I   44615 44610B
 L22253        4 00006D72 00000001     I   45683 45678B
 L22299        4 00006DE4 00000001     I   45781 45776B
 L22930        4 0000718E 00000001     I   46929 46924B
 L22955        4 000071C4 00000001     I   46974 46969B
 L23052        4 00007258 00000001     I   47158 47153B
 L23280        4 000073EC 00000001     I   47709 47704B
 L24020        4 000076A8 00000001     I   48785 48780B
 L24765        4 00007914 00000001     I   49903 49898B
 L24792        4 0000794C 00000001     I   49954 49949B
 L24810        4 0000798C 00000001     I   49996 49991B
 L25034        4 00007ACE 00000001     I   50385 50380B
 L25364        4 00007C38 00000001     I   50992 50987B
 L25423        4 00007CA0 00000001     I   51117 51112B
 L25619        4 00007DF4 00000001     I   51493 51488B
 L25746        4 00007EA6 00000001     I   51740 51735B
 L25867        4 00007F4C 00000001     I   52018 52013B
 L25919        4 00007FC0 00000001     I   52120 52115B
1GSTINTF  (GSTI00) (09:40) (22MAR04) Ordinary Symbol and Literal Cross Reference                                            Page  336
 L26173        4 00008152 00000001     I   52590 52585B
 L26349        4 00008298 00000001     I   52934 52929B
 L26369        4 000082D2 00000001     I   52975 52970B
 MAXCPUS       4 0000727A 00000001     I   47216 13746  47132  47227U
 MEMFREE       1 00000000 00000006     T   13755 13755  44307  47393  52687
 MEMGET        1 00000000 00000003     T   13744 13744  44306  47390  52678
 MEMSERV       1 00000000 0000001F     T   41935 41935
 MEMTA16M     16 00000002 FFFFFFC9         8663 10752M 11473  11473  11474M 11514  11514  11515  11515  11517M 11951
                                                 11951  11952M 12000  12000  12001M 12040  12040  12041M 12195  12195
                                                 12196  12196  12198M 14709  14709  14710  14710  14712M 14839  14839
                                                 14840M 14873M 28731M
 MEMTFIX       4 00000002 FFFFFFC9         8681 11515  11515  11516  11516  12196  12196  12197  12197  14710  14710
                                                 14711  14711
 MEMTPAGE      2 00000002 FFFFFFC9         8690 11473  11473  11514  11514  11516  11516  11951  11951  12000  12000
                                                 12040  12040  12195  12195  12197  12197  14709  14709  14711  14711
                                                 14839  14839
 MFA16M       16 00000009 FFFFFFD2         8407 11800M 13642M 41857M 45426  45426  45427M 45464  45464  45465M 46670
                                                 46670  46671M 46717  46717  46718M 49391M
 MFGLOB        2 00000009 FFFFFFD2         8434 45426  45426  45464  45464  46670  46670  46717  46717
 MGA16M       16 00000009 FFFFFFD3         8323 10814  10814  10815M 12797  12797  12798M 41751  41751  41752M 44926
                                                 44926  44927  44927  44929M 45067  45067  45068  45068  45070M 45970
                                                 45970  45971  45971  45973M 46380  46380  46381  46381  46383M 48032
                                                 48032  48033M
 MGBEST        1 00000009 FFFFFFD3         8359 10814  10814  12797  12797  41751  41751  43044M 44927  44927  44928
                                                 44928  45068  45068  45069  45069  45971  45971  45972  45972  46381
                                                 46381  46382  46382  47945M 48032  48032  50207M 50622M 52334M
 MGGLOB        2 00000009 FFFFFFD3         8350 44926  44926  44928  44928  45067  45067  45069  45069  45970  45970
                                                 45972  45972  46380  46380  46382  46382
 MINMEG        1 00000005 FFFFFFB3 A   U    9981 13747  47398
 MODBLDL      80 000055DE 00000001     X   38606 38475  53469
 MODDCB       88 00005630 00000001     X   38649 38469  53468
 MODDECB      20 00005688 00000001     X   38659 38470  53467
 MPMAST        1 00000000 00000020     T   41936 41936
 MSGEND                   00000001 A   U   50663 50700  50767  50777  50802  50812
 MSGSERV       1 00000000 00000021     T   41937 41937
 MVENAME      44 00000030 FFFFFF9B     C   43317 44076  44165
 MVEOPTS       4 0000000C FFFFFF9B     A   43314 43724M 44178  44205
 MVEQADD       4 00000008 FFFFFF9B     A   43313 43723M 43895
 MVEQLOC       8 00000020 FFFFFF9B     D   43316 44014M 44015M 44044  44127
 MVERADD       4 00000000 FFFFFF9B     A   43311 43547M 43728
 MVERLEN       4 00000004 FFFFFF9B     A   43312 43729  44167
 MVERLOC       8 00000010 FFFFFF9B     D   43315 43854M 43855M 43884  44077
 MVEWORK      92 00000000 FFFFFF9B     J   43324 43433U
 MVNADDR       4 0000000C FFFFFF9E     A   41909 42039M 42039  42277M 42304M 42304  42428M 42454M 42454  42491M 42531
 MVNCDE        4 00000008 FFFFFF9E     A   41908 42032M 42032  42337M 42352M 42352  42388M 42406
 MVNNAME       8 00000000 FFFFFF9E     C   41907 42241M 42264  42326  42461
 MVNREGS       4 00000010 FFFFFF9E     A   41910 42324M 42338  42377M 42389
 MVNTAB        4 000068C4 00000001     V   41932 42245
 MVNTEND       1 00006930 00000001     U   41941 42246
 MVNWORK      32 00000000 FFFFFF9E     J   41917 42009U
 MVRADDR       4 00000000 FFFFFFA0     A   40173 40460M 40845
 MVRKEY        4 00000004 FFFFFFA0     A   40174 40467
 MVRLEN        4 0000000C FFFFFFA0     A   40176 40465  40654  40669  40671  40908  40910M
 MVRPLEN       4 00000010 FFFFFFA0     A   40177 40672M 40876  40879  40903  40909
 MVRUADR       4 00000008 FFFFFFA0     A   40175 40363M 40661
 MVRWORK      20 00000000 FFFFFFA0     J   40184 40249U
 MVSENQ        1 00000000 00000025     T   44310 44310
 MVWADDR       4 00000000 FFFFFF9F     A   40961 41356M 41365  41804
 MVWKEY        4 00000004 FFFFFF9F     A   40962 41359M 41368
1GSTINTF  (GSTI00) (09:40) (22MAR04) Ordinary Symbol and Literal Cross Reference                                            Page  337
 MVWLEN        4 0000000C FFFFFF9F     A   40964 41366  41545  41711  41818
 MVWLOCS       8 00000018 FFFFFF9F     D   40967 41670M 41671M 41700  41762
 MVWOPT        4 00000014 FFFFFF9F     A   40966 41361M 41805
 MVWTAB        6 000068AA 00000001     I   40989 41811X
 MVWUADR       4 00000008 FFFFFF9F     A   40963 41180M 41544
 MVWWORK      40 00000000 FFFFFF9F     J   40974 41066U
 NEWIOCB       4 00005096 00000001     I   36717 36658B
 NIZCONT       2 000038BC 00000001     H   29249 28992B 29066B
 NIZCVTID      7 000034E4 00000001     C   29071 29034  29122
 NIZCVTP       4 000034E0 00000001     F   29070 28985  28991M 29010  29086
 NIZFAIL       6 000037F8 00000001     I   29078 29013B 29037B 29059B
 NIZLOWC     768 000034F8 00000001     X   29073 29078M 29079M 29080M 29205  29209  29213  29217  29221  29225
 NIZSTCK       8 000034F0 00000001     D   29072 29081M 29201
 OMEMGET       4 00000340 00000001     I   11883 11190  11894U
 OMEMLOC       4 00000004 FFFFFFAE     A   11864 11192  11963M 12015
 OMEMP         8 00000000 FFFFFFAE     J   11871 11172U 11180M 11180  11910U
 OMEMSIZE      4 00000000 FFFFFFAE     F   11863 11182M 11193  11918  11920M 12016
 OPEXCEPT      2 00003FAE 00000001     H   31550 29309B
 OPTLOCK       1 00000000 00000000 A   T    1670  1670
 OTHER                    00000001 A   U   40055 40085
 PAGEFIX       1 00000000 00000015     T   31604 31604  36540  40151
 PAGEFREE      1 00000000 00000019     T   36539 36539  40152
 PAMPARM     148 00000014 FFFFFF8F     X   53499 31920
 PAM24        18 00000000 FFFFFF8F     X   53497 13512M 31949
 PARAREA       4 00000010 FFFFFF99     A   44352 44623M 44630  44761  44857  44859M
 PARIHLOC      4 00000014 FFFFFF99     A   44353 44935M 44940  45101  45225  45416  45979M 45989  46080  46419  46707
 PARILEN       4 00000004 FFFFFF99     A   44349 44914  44939  45131  45411  45958  45988  46424  46702
 PARILOC       4 00000000 FFFFFF99     A   44348 44620M 44622  44938  45787M 45791  45987  46126
 PARMDO        1 00000000 00000004     T   13745 13745  47391
 PARMFINT      4 00000000 FFFFFFB6         9557 10850M 10929M 11048M 11203M 11328M 12725M 13352M
 PARMFSTR      0 00000000 FFFFFFB6         9547 12935M 13081M 13219M 45145  45251  46105  46486
 PARMFYN       8 00000000 FFFFFFB6         9567 12606M 45157  45263  46117  46498
 PARMIN        4 00000000 FFFFFFB6     J    9588  9603  10839U 10874  10969  11088  11253  11368  12388  12490U 12539
                                                 12556  12663  12680  12873  12890  13019  13036  13157  13174  13289
                                                 13306  45111U 45235U 46090U
 PARMS         1 00000000 00000022     T   41938 41938
 PARMTYPE      1 00000000 FFFFFFB6     R    9538  9547   9557   9567   9577
 PAROHLOC      4 00000018 FFFFFF99     A   44354 45076M 45132  45224  45454  46389M 46429  46508  46615  46660
 PAROLEN       4 0000000C FFFFFF99     A   44351 45055  45133  45449  46336M 46368  46434  46655
 PAROLOC       4 00000008 FFFFFF99     A   44350 44523M 44762  44860  45222  45689M 46507
 PARR1         4 0000001C FFFFFF99     A   44355 45687M 46510  46614
 PARR2         4 00000020 FFFFFF99     A   44356 45785M
 PARWORK      36 00000000 FFFFFF99     J   44363 44409U 45574U
 PDCB         96 000000AC FFFFFF8F     X   53504 13513M 13519  13533  14755  31935  31939
 POOLFREE      1 00000000 00000007     T   13759 13759  19073  40150
 POOLGET       1 00000000 00000002     T   13742 13742  31606  40145
 POPENP        4 000000A8 FFFFFF8F     F   53501 13514M 13517  14750M 14753
 PRBEND        4 000000A8 FFFFFFE1     F    7739  7863
 PRFDSN       44 0000096C 00000001     C   12415 12817
 PRFGEN        8 000009A0 00000001     C   12418 12818
 PRFIGSTC      4 00000000 FFFFFFAC     A   12363 11547M 12492
 PRFINTP       4 00000000 FFFFFFAC     J   12370 11538U 11546M 11546  12475U 12482U
 PRFPTRKS      4 00000998 00000001     A   12416 12835
 PRFSTRKS      4 0000099C 00000001     A   12417 12836
 PRFWKEY1      8 00000004 FFFFFFAB     C   12389 12599M
 PRFWKEY2      8 0000000C FFFFFFAB     C   12390 12600M 12640M 12840M 12996M 13134M 13266M
 PRFWPARM      4 00000000 FFFFFFAB     X   12388 12490U
 PRFWSTR      80 00000020 FFFFFFAB     C   12393 12573  12590  12634  12907  12967  13053  13113  13191  13251
 PRFWVAL       4 0000001C FFFFFFAB     A   12392 12697  12714  12745  13323  13340  13371  13372
1GSTINTF  (GSTI00) (09:40) (22MAR04) Ordinary Symbol and Literal Cross Reference                                            Page  338
 PROFCPUA      1 00000110 FFFFFF8F     X   53509 31816M
 PROFDATA     24 00000110 FFFFFF8F     X   53515 13707  13714  31937
 PROFDCB      96 000007D4 00000001     X   13719 13513  53504
 PROFHIA       4 00000114 FFFFFF8F     A   53512 31911M
 PROFICOD      1 00000111 FFFFFF8F     X   53510 31817M
 PROFINIT      4 000004BA 00000001     I   12448 11555  12459U
 PROFINST      2 00000112 FFFFFF8F     H   53511 31818M
 PROFOUT       8 00000110 FFFFFF8F     D   53508 53515  53515
 PROFPARM    296 00000000 FFFFFF8F     J   53522 13483  13507U 14745U 14786  31811U
 PROFPSW       8 00000118 FFFFFF8F     D   53513 31819M
 PROFTOD       8 00000120 FFFFFF8F     D   53514 31820M
 PROFWORK    112 00000000 FFFFFFAB     J   12400 12482U
 PROGRAM       2 00003C94 00000001     H   30473 29300B
 PSA           1 00000000 FFFFFFEE     J    1346  1344U  2292   2522  31828U
 PSADTSAV      8 000006C0 FFFFFFEE     D    2092  2095   2096
 PSAEMS2S      4 0000026C FFFFFFEE     F    1625  1629
 PSAGSAV      64 000008A8 FFFFFFEE     X    2177  2179   2180
 PSAIPCIN      4 00000268 FFFFFFEE     F    1618  1622
 PSAJSTSA     64 00000998 FFFFFFEE     X    2226  2230   2231
 PSARTM1R      4 000003FC FFFFFFEE     F    1852  1857
 PSARV7E8      4 000007E8 FFFFFFEE     X    2108  2109   2110
 PSASLSA      72 00000950 FFFFFFEE     X    2218  2224   2225
 PSASTOSM      4 00000270 FFFFFFEE     F    1632  1641
 PSATNEW       4 00000218 FFFFFFEE     A    1502  1505
 PSATOLD       4 0000021C FFFFFFEE     A    1506 31830
 PSWMSG       43 00003F82 00000001     C   31541 31365  31382
 PZATERM      64 0000021A FFFFFFB4         9700 14410M
 PZCURPID      8 00000208 FFFFFFB4     D    9679 31427
 PZERO       640 00000000 FFFFFFB4     J    9714 14388U 18068  19085  28889U 29362U 30399U 30486U 30658U 30807U 30868U
                                                 31018U 31255U 31419U 33594U 33661U 33728U 33790U 34071U 34138U 34205U
                                                 34267U 34551U 34626U 34954U 35021U 35088U 35150U 35379U 35677U 35808U
                                                 35987U 36353U 40312U 40409U 40735U 40802U 41129U 41226U 41305U 41628U
                                                 42103U 42199U 42803U 42922U 43496U 43593U 43672U 43812U 43972U 44472U
                                                 44569U 44723U 44807U 45637U 45735U 45880U 46208U 46275U 47580U 47825U
                                                 50086U 51157U 51253U 51320U 51972U 52069U 52213U 53324U
 PZEXCPU       2 00000084 FFFFFFB4     H    9652 30673M 30822M
 PZEXIC        2 00000086 FFFFFFB4     H    9653 30672M 30821M 30882M 31269M
 PZEXNPSW      8 00000058 FFFFFFB4     D    9646 30671  30820  30881  31268
 PZEXOPSW      8 00000018 FFFFFFB4     D    9640 30670M 30819M 30880M 31267M
 PZIONPSW      8 00000078 FFFFFFB4     D    9650 31037
 PZIOOPSW      8 00000038 FFFFFFB4     D    9644 31036M
 PZIOPRM       4 000000BC FFFFFFB4     A    9665 31031M 35999M
 PZIOSCS       4 000000C0 FFFFFFB4     A    9666 31032M 36000M
 PZIOSID       4 000000B8 FFFFFFB4     A    9664 31030M 35998M
 PZPIIC        2 0000008E FFFFFFB4     H    9657 29376M 30413M 30500M 33608M 33675M 33742M 33804M 34085M 34152M 34219M
                                                 34281M 34565M 34640M 34968M 35035M 35102M 35164M 35393M 35691M 35822M
                                                 36367M 40326M 40423M 40749M 40816M 41143M 41240M 41319M 41642M 42117M
                                                 42213M 42817M 42936M 43510M 43607M 43686M 43826M 43986M 44486M 44583M
                                                 44737M 44821M 45651M 45749M 45894M 46222M 46289M 47594M 47839M 50100M
                                                 51171M 51267M 51334M 51986M 52083M 52227M
 PZPIILC       2 0000008C FFFFFFB4     H    9656 29377M 30414M 30501M 33610M 33612  33676M 33743M 33805M 34087M 34089
                                                 34153M 34220M 34282M 34567M 34569  34641M 34970M 34972  35036M 35103M
                                                 35165M 35394M 35692M 35823M 36368M 40327M 40424M 40751M 40753  40818M
                                                 41144M 41241M 41320M 41644M 41646  42118M 42215M 42217  42818M 42938M
                                                 42940  43511M 43608M 43687M 43828M 43830  43988M 43990  44487M 44584M
                                                 44739M 44741  44823M 45652M 45750M 45896M 45898  46224M 46226  46291M
                                                 47596M 47598  47841M 47843  50102M 50104  51172M 51269M 51271  51336M
                                                 51987M 52084M 52229M 52231
 PZPINPSW      8 00000068 FFFFFFB4     D    9648 29375  30412  30499  33607  33674  33741  33803  34084  34151  34218
1GSTINTF  (GSTI00) (09:40) (22MAR04) Ordinary Symbol and Literal Cross Reference                                            Page  339
                                                 34280  34564  34639  34967  35034  35101  35163  35392  35690  35821
                                                 36366  40325  40422  40748  40815  41142  41239  41318  41641  42116
                                                 42212  42816  42935  43509  43606  43685  43825  43985  44485  44582
                                                 44736  44820  45650  45748  45893  46221  46288  47593  47838  50099
                                                 51170  51266  51333  51985  52082  52226
 PZPIOPSW      8 00000028 FFFFFFB4     D    9642 29374M 30411M 30498M 33606M 33611  33613M 33673M 33740M 33802M 34083M
                                                 34088  34090M 34150M 34217M 34279M 34563M 34568  34570M 34638M 34966M
                                                 34971  34973M 35033M 35100M 35162M 35391M 35689M 35820M 36365M 40324M
                                                 40421M 40747M 40752  40754M 40814M 41141M 41238M 41317M 41640M 41645
                                                 41647M 42115M 42211M 42216  42218M 42815M 42934M 42939  42941M 43508M
                                                 43605M 43684M 43824M 43829  43831M 43984M 43989  43991M 44484M 44581M
                                                 44735M 44740  44742M 44819M 45649M 45747M 45892M 45897  45899M 46220M
                                                 46225  46227M 46287M 47592M 47597  47599M 47837M 47842  47844M 50098M
                                                 50103  50105M 51169M 51265M 51270  51272M 51332M 51984M 52081M 52225M
                                                 52230  52232M
 PZRSNPSW      8 00000000 FFFFFFB4     D    9637 28902
 PZRSOPSW      8 00000008 FFFFFFB4     D    9638 28901M
 PZTERMFL      1 0000021A FFFFFFB4     R    9691  9695   9700
 PZTREXA       4 00000090 FFFFFFB4     A    9658 33609M 34086M 34566M 34969M 40750M 40817M 41643M 42214M 42937M 43827M
                                                 43987M 44738M 44822M 45895M 46223M 46290M 47595M 47840M 50101M 51268M
                                                 51335M 52228M
 PZTZOFF       8 00000220 FFFFFFB4     D    9705 53328M
 RA            2 00000002 FFFFFFFF A   #    1028 10884M 10900M 10915  10917M 10918  11438M 11439M 11440  11464  11662M
                                                 11662  11676  11682  11724  11737M 11918M 11919M 11920  11921M 11942
                                                 12013M 12014M 12030  12162M 12163M 12184  12243M 12244M 12245  13497M
                                                 13507U 13902M 13943M 13943  13965M 13985  14128M 14592M 14592  14606
                                                 14612  14654M 14668M 14669M 14693  14735M 14745U 14788  16528M 16528
                                                 16542  16548  18363M 18380M 18380  18394  18400  18655M 19230M 19231
                                                 19233M 19234M 19235M 19236  24147M 24147  24161  24170  24336  24765M
                                                 25636M 25637M 25660  25688M 26767M 26778  28434M 28444  28445M 28471M
                                                 28481U 28864M 28865M 28865  29606M 29608M 29610M 29611M 29612  30619M
                                                 30619  30636M 30673  30696M 30697M 30698  30732M 30732  30779M 30780M
                                                 30780  30822  32174M 32175M 32181  32184M 32186M 32188M 32189M 32189
                                                 32192M 32193M 32208  32218M 32219M 32219  32373U 32459U 32594U 32723U
                                                 32839U 32976U 33098U 35309M 35325M 35331M 35337  35340M 35342M 35344M
                                                 35345M 35345  35348M 35349M 35361  36640M 36655M 36655  36673U 36689M
                                                 36709  36858M 36873M 36873  36891U 36908M 36928  37059M 37066  37069M
                                                 37394M 37395M 37396M 37416  37494M 37495  37869M 37873M 37994M 38165M
                                                 38812M 38822U 38964M 38966  38979M 39011M 39016M 39019  39026M 40050M
                                                 40661M 40663  40665  40695  40846M 40848M 40875M 40876M 40877  40878M
                                                 40879M 40880  40902M 40903M 40904  40908M 40909M 40910  41549M 41549
                                                 41670  41671  41691M 41700M 41700  41761M 41771M 42062M 42071  42159
                                                 42245M 42258  42285M 42406M 42407M 42407  42422U 42754M 42755  42843M
                                                 42843  42964  42965  42985M 42994M 42994  43133M 43143M 43733M 43733
                                                 43854  43855  43875M 43884M 43884  43900M 43900  44014  44015  44035M
                                                 44044M 44044  44076M 44086M 44126M 44136M 44634M 44652  44654  44683
                                                 44849M 44977M 44978  44981  44997  44998M 44999M 45000M 45132M 45164M
                                                 45170  45225M 45235U 45326M 45327  45330  45347  45348M 45349M 45350M
                                                 45791M 45809  45811  45840  45921M 46026M 46027  46030  46046  46047M
                                                 46048M 46049M 46126M 46144  46146  46168  46313M 46510M 46548M 46549
                                                 46552  46569  46570M 46571M 46572M 46614M 46892M 46893M 46894  46895M
                                                 46896M 46902M 46903M 46907  46909  46978M 46979M 46983  46985M 46994M
                                                 46994  47001M 47002M 47007  47497M 47623M 47753M 47753  47867  47868
                                                 47888M 47897M 47897  47954M 47964M 47997M 47998M 47999  48439M 48482
                                                 49010M 49560M 49570U 50007M 50007  50128  50129  50149M 50158M 50158
                                                 50216M 50226M 50647M 50649M 50824M 50866  51121M 51126  51213  51473M
                                                 51497  52134M 52134  52255  52256  52276M 52285M 52285  52343M 52353M
                                                 52431M 52938M 52949  52983  52984M 52984  52985M 52997  53046
 RAR          14 0000000E FFFFFFFF A   #    1184 10756M 10819M 10883M 10911M 11012M 11131M 11191M 11296M 11411M 11478M
1GSTINTF  (GSTI00) (09:40) (22MAR04) Ordinary Symbol and Literal Cross Reference                                            Page  340
                                                 11521M 11556M 11588M 11622M 11735M 11804M 11830B 11956M 12005M 12045M
                                                 12065B 12202M 12340B 12610M 12729M 12802M 12939M 13085M 13223M 13356M
                                                 13405M 13495M 13577M 13646M 13668B 13950M 14043M 14084M 14125M 14189M
                                                 14190  14194M 14220M 14221  14225M 14274B 14443M 14444  14448M 14475M
                                                 14476  14480M 14513B 14653M 14716M 14799M 14844M 14877M 14899B 14959B
                                                 15123M 15161M 15236M 15300M 15358M 15429M 15471M 15525M 15583M 15644M
                                                 15698M 15756M 15817M 15871M 15929M 15990M 16044M 16102M 16163M 16201M
                                                 16262M 16359M 16407M 16445M 16483M 16521M 16607M 16678M 16746M 16784M
                                                 16822M 16877M 16935M 16973M 17011M 17083M 17141M 17217M 17293M 17351M
                                                 17409M 17470M 17508M 17600M 17648M 17686M 17743M 17801M 17839M 17927M
                                                 17975M 18029M 18067M 18154M 18202M 18240M 18273M 18322M 18360M 18457M
                                                 18530M 18576M 18614M 18653M 18727M 18765M 18803M 18843M 18919M 18957M
                                                 18995M 19026M 19052B 19357M 19428M 19496M 19550M 19621M 19689M 19743M
                                                 19814M 19882M 19936M 19974M 20037M 20085M 20290M 20361M 20429M 20483M
                                                 20521M 20559M 20706M 20777M 20845M 20899M 20953M 21025M 21093M 21162M
                                                 21231M 21289M 21331M 21394M 21442M 21662M 21733M 21801M 21855M 21893M
                                                 21931M 22160M 22229M 22287M 22345M 22417M 22485M 22553M 22623M 22681M
                                                 22739M 22794M 22852M 22906M 22964M 23003M 23086M 23134M 23249M 23287M
                                                 23325M 23363M 23401M 23423B 23630M 23668M 23722M 23772M 23836M 23886M
                                                 23950M 24000M 24064M 24102M 24140M 24224M 24282M 24335M 24406M 24459M
                                                 24535M 24599M 24652M 24722M 24764M 24834M 24872M 24910M 24948M 24970B
                                                 25158M 25216M 25277M 25315M 25513M 25573M 25627M 25667M 25779M 25835M
                                                 25889M 25972M 26034M 26092M 26130M 26210M 26272M 26330M 26368M 26448M
                                                 26510M 26568M 26606M 26695M 26766M 26832M 26939M 27010M 27085M 27155M
                                                 27240M 27315M 27369M 27427M 27481M 27539M 27598M 27664M 27718M 27784M
                                                 27838M 27888M 27937M 27991M 28049M 28088M 28134M 28172M 28226M 28264M
                                                 28286B 28525M 28526  28530M 28567B 28647M 28654M 28681M 28689M 28735M
                                                 28848M 28849  28853M 29367M 29373  29532M 29568M 29580M 29605M 29666M
                                                 29710M 29894M 29938M 29982M 30026M 30070M 30404M 30410  30491M 30497
                                                 30975M 31082M 31182M 31183  31187M 31400M 31477M 31478  31482M 31589B
                                                 31797M 31950M 31975M 32009M 32010  32014M 32411M 32412  32416M 32545M
                                                 32546  32550M 32674M 32675  32679M 32789M 32790  32794M 32928M 32929
                                                 32933M 33211M 33220M 33228M 33371B 33561M 33599M 33605  33611M 33612M
                                                 33613  33666M 33672  33733M 33739  33795M 33801  33856B 34038M 34076M
                                                 34082  34088M 34089M 34090  34143M 34149  34210M 34216  34272M 34278
                                                 34333B 34515M 34556M 34562  34568M 34569M 34570  34631M 34637  34696M
                                                 34705M 34713M 34739B 34921M 34959M 34965  34971M 34972M 34973  35026M
                                                 35032  35093M 35099  35155M 35161  35216B 35384M 35390  35435B 35682M
                                                 35688  35813M 35819  35865M 35947M 36031M 36084B 36358M 36364  36410M
                                                 36488M 36515B 36784B 36950B 37116B 37763B 37895B 38138M 38139  38143M
                                                 38210B 38335B 38448M 38592B 38776M 38808M 39059B 39198M 39232B 39419M
                                                 39441B 39633M 39655B 39781M 39804B 39905M 39906  39910M 39932B 40085M
                                                 40086  40090M 40128B 40317M 40323  40414M 40420  40590M 40702M 40740M
                                                 40746  40752M 40753M 40754  40807M 40813  40938B 41134M 41140  41231M
                                                 41237  41310M 41316  41491M 41595M 41633M 41639  41645M 41646M 41647
                                                 41756M 41861M 41884B 42108M 42114  42166M 42204M 42210  42216M 42217M
                                                 42218  42333M 42384M 42472M 42553B 42808M 42814  42889M 42927M 42933
                                                 42939M 42940M 42941  43048M 43261M 43288B 43501M 43507  43598M 43604
                                                 43677M 43683  43779M 43817M 43823  43829M 43830M 43831  43939M 43977M
                                                 43983  43989M 43990M 43991  44225M 44287B 44477M 44483  44574M 44580
                                                 44690M 44728M 44734  44740M 44741M 44742  44812M 44818  44933M 44976M
                                                 45074M 45182M 45325M 45431M 45469M 45491B 45642M 45648  45740M 45746
                                                 45847M 45885M 45891  45897M 45898M 45899  45977M 46025M 46175M 46213M
                                                 46219  46225M 46226M 46227  46280M 46286  46387M 46438M 46547M 46675M
                                                 46722M 46744B 47034B 47133M 47189B 47256B 47547M 47585M 47591  47597M
                                                 47598M 47599  47792M 47830M 47836  47842M 47843M 47844  47949M 48037M
                                                 48156M 48234M 48304M 48370M 48420M 48553M 48624M 48705M 48771M 48858M
                                                 48924M 48997M 49083M 49204M 49291M 49341M 49395M 49436M 49467B 49654M
                                                 49740M 49767B 50053M 50091M 50097  50103M 50104M 50105  50211M 50367M
1GSTINTF  (GSTI00) (09:40) (22MAR04) Ordinary Symbol and Literal Cross Reference                                            Page  341
                                                 50429M 50451B 50626M 50865M 50896B 51024B 51162M 51168  51220M 51258M
                                                 51264  51270M 51271M 51272  51325M 51331  51381B 51524B 51605B 51706M
                                                 51787B 51977M 51983  52074M 52080  52180M 52218M 52224  52230M 52231M
                                                 52232  52338M 52407M 52468M 52490B 52617M 52660B 52809M 52810  52814M
                                                 52841B 53074B 53177M 53210B 53358B
 RB            3 00000003 FFFFFFFF A   #    1040 11682M 11683M 11684M 11684  11694U 11731  11965M 11990  12014  12015M
                                                 12016M 12031  13416M 13901M 14612M 14613M 14614M 14614  14624U 16548M
                                                 16549M 16550M 16550  17013M 17023U 18266  18400M 18401M 18402M 18402
                                                 18467U 18644  18833M 18834  19231M 19232M 19243  19256M 19288M 19293M
                                                 19294  20098M 20160  20161M 20162  20163M 20164M 20165M 20166  24336M
                                                 24337M 24338  24460M 24541  24653  26856M 26857M 26859M 26860M 26861M
                                                 27603M 27621  27722M 27722  27840M 28434M 28443  29606M 29612  30620M
                                                 30621  30637M 30688M 30697  32605M 32605  32606M 32734M 32734  32735M
                                                 32820M 32847M 32848M 32863M 32870  32872M 33077M 33110  33180M 33206
                                                 33698M 33710  34175M 34187  34663M 34691  35058M 35070  35525M 35526M
                                                 35527  35528M 35537M 35537  35548  35551M 35553M 35555M 35556M 35556
                                                 35559M 35559  35566M 35582M 35594  35607M 35639M 35644M 35659  36183M
                                                 36184M 36185  36186M 36195M 36195  36206  36209M 36211M 36213M 36214M
                                                 36214  36217M 36217  36224M 36240M 36246M 36246  36259M 36270  36283M
                                                 36315M 36320M 36335  36640M 36688  36858M 36907  37059M 37068  37397M
                                                 37543  37621M 37622  37872M 37998M 37998  38012  38166M 38289M 38290M
                                                 38313  38536M 38537  38564M 38565  39017M 39018M 39019M 39023  39025M
                                                 40467M 40662M 40663M 40664M 40665M 40669  40671M 40672  40847  41368M
                                                 41545M 41563  41565  41673M 41682M 41682  41770M 41805M 41806M 41811
                                                 42310M 42320U 42756M 42757  42771M 42771  42785  42857  42859  42967M
                                                 42976M 42976  43142M 43729M 43747  43749  43857M 43866M 43866  43896M
                                                 43914  43916  44017M 44026M 44026  44085M 44135M 44634M 44645M 44645
                                                 44658  44660  44850M 44990M 45133M 45165M 45170  45339M 45791M 45802M
                                                 45802  45815  45817  45922M 46039M 46126M 46137M 46137  46150  46152
                                                 46314M 46561M 46615M 46859M 46877U 46883M 46894M 46899  46901M 46907
                                                 46909M 46933  46983  46985  47001  47238M 47244  47498M 47515  47517
                                                 47632M 47632  47748M 47767  47769  47870M 47879M 47879  47963M 48443M
                                                 48443  48461  48777  49013M 49958M 49961  49973M 49978  50021  50023
                                                 50131M 50140M 50140  50225M 50648M 52130M 52148  52150  52258M 52267M
                                                 52267  52352M 52939M 52949  52979M 52983M 52986M 52987M 52997  53047
 RBEP          4 0000004C FFFFFFE1     A    7706  7813
 RBFTPRB       1 00000000 FFFFFFE1 A   U    7665 31900
 RBLINK        4 0000005C FFFFFFE1     A    7367 31883
 RBOPSW        8 00000050 FFFFFFE1     C    7351 31911
 RBPGMQ        4 00000058 FFFFFFE1     A    7714  7831   7840   7845
 RBPREFIX      1 00000000 FFFFFFE1     U    7537  7860
 RBPRFX        1 00000000 FFFFFFE1     J    7304  7535
 RBPRFXND      1 00000040 FFFFFFE1     C    7648  7860   7862
 RBPRFXST      8 00000020 FFFFFFE1     D    7577  7862   7863   7864   7865   7866   7868
 RBSECT        1 00000040 FFFFFFE1     U    7651 31872U
 RBSTAB1       1 0000004A FFFFFFE1     B    7326 31902
 RCE           1 00000000 FFFFFFE8     J    3988  4357  46877U
 RCEEND        8 00000228 FFFFFFE8     D    4356  4357
 RCEPOOL       4 00000004 FFFFFFE8     F    3990 46883
 RJ            4 00000004 FFFFFFFF A   #    1052 11957M 11964  11991  20162M 20167M 20174  20187M 20219M 20224M 20575
                                                 25378M 25379M 25381M 25401  25893M 26131M 26369M 26607M 27599M 27839M
                                                 28050M 28435M 28445  28469M 28540M 31801M 31811U 32870M 32871M 32872
                                                 35718M 35728  35741M 35773M 35778M 35790  36679M 36689  36897M 36908
                                                 37041M 37051U 37069  37870M 37873M 38018M 38028  38051U 38942M 39026M
                                                 40464M 40466  40480  40633M 40634M 41365M 41367  41381  41534M 41535M
                                                 41544M 41557  41559  41588  41672M 41757M 41761  41850  42730M 42731
                                                 42851  42853  42882  42966M 43049M 43059U 43257  43728M 43741  43743
                                                 43772  43856M 43895M 43908  43910  43932  44016M 44761M 44772  44860M
                                                 44875  44934M 44935  44940M 44999M 45224M 45349M 45978M 45979  45989M
1GSTINTF  (GSTI00) (09:40) (22MAR04) Ordinary Symbol and Literal Cross Reference                                            Page  342
                                                 46048M 46508M 46571M 47494M 47495M 47496  47508  47511  47540  47641M
                                                 47713M 47716M 47733M 47738M 47739  47761  47763  47785  47869M 48447M
                                                 48447  48927M 48942  49001M 49001  49027M 49027  49907M 50015  50017
                                                 50046  50130M 50212M 50216  50276  50425  50628M 50638U 52129M 52142
                                                 52144  52173  52257M 52339M 52343  52379  52401  52464  53310M 53324U
 RK            5 00000005 FFFFFFFF A   #    1064 12220M 12220  12237  12243  12259  12308M 12803M 12813U 13401  13635
                                                 14130M 21536M 21537M 21538  21545  21558M 21590M 21595M 22740  23007
                                                 25319M 25320M 25327  25340M 25372M 25377M 25378  25401  28442M 28443M
                                                 28470M 28539M 28738M 28748U 31748M 31758U 36688M 36907M 37067M 37068M
                                                 37871M 37872  38828M 38858  38953M 38953  39023  39025  40465M 40466M
                                                 40480  41366M 41367M 41381  41556M 41557M 41558M 41559M 41563  41565M
                                                 41671  41672  41673  41711M 41809M 41811  42850M 42851M 42852M 42853M
                                                 42857  42859M 42965  42966  42967  43176M 43189  43740M 43741M 43742M
                                                 43743M 43747  43749M 43855  43856  43857  43907M 43908M 43909M 43910M
                                                 43914  43916M 44015  44016  44017  44622M 44623  44630M 44651M 44652M
                                                 44653M 44654M 44658  44660M 44849  44850  44857M 44858M 44859  44875
                                                 44978M 44979M 44980M 44981M 44985  44987M 44988  44989  44990  45075M
                                                 45076  45327M 45328M 45329M 45330M 45334  45336M 45337  45338  45339
                                                 45808M 45809M 45810M 45811M 45815  45817M 45921  45922  46027M 46028M
                                                 46029M 46030M 46034  46036M 46037  46038  46039  46143M 46144M 46145M
                                                 46146M 46150  46152M 46313  46314  46388M 46389  46549M 46550M 46551M
                                                 46552M 46556  46558M 46559  46560  46561  46843M 46853U 47508M 47509M
                                                 47510M 47511M 47515  47517M 47622  47641  47760M 47761M 47762M 47763M
                                                 47767  47769M 47868  47869  47870  50014M 50015M 50016M 50017M 50021
                                                 50023M 50129  50130  50131  52141M 52142M 52143M 52144M 52148  52150M
                                                 52256  52257  52258  52296M
 RM            8 00000008 FFFFFFFF A   #    1100 13873U 13978M 13979M 13979  14364M 14374U 37198M 37208U 46080M 46090U
                                                 53304M 53306M 53308M 53309M 53328
 RMBRANCH      1 00000000 00000000 A   T    3428  3428
 RN            9 00000009 FFFFFFFF A   #    1112 17841M 18068M 53304M 53328
 RS            1 00000001 FFFFFFFF A   #    1016 10872M 10873  10874M 10875  10876M 10877  10878M 10879  11013M 11028M
                                                 11031  11033M 11038M 11039  11132M 11147M 11150  11152M 11181M 11182
                                                 11297M 11313M 11318  11412M 11428M 11433M 11434  11626M 11636U 11723M
                                                 11724M 12251M 12252  12255M 12256M 12257  12259M 12260M 12261  12274M
                                                 12275  12276M 12278M 12279  12284M 12285M 12285  12298M 12303  12955M
                                                 12958M 12960  13101M 13104M 13106  13239M 13242M 13244  13511M 20160M
                                                 20954M 21948M 21949M 22009  22023  22081  23146M 23147M 23148  23149M
                                                 23150M 23151  23173M 23174M 23175  23176M 23177M 23178  24653M 24654
                                                 26624M 26626M 26638  28879M 28889U 28917M 28917  28918  29274M 29287
                                                 29296B 29352M 29362U 29428M 29429M 29430  29431M 29440M 29440  29451
                                                 29454M 29456M 29458M 29459M 29459  29462M 29462  29469M 29485M 29490M
                                                 29502  29531  29743M 29744M 29745  29778M 29779M 29780  29813M 29814M
                                                 29815  29848M 29849M 29850  30389M 30399U 30476M 30486U 30600M 30601M
                                                 30601  30622  30648M 30658U 30689M 30696  30698M 30797M 30807U 30840M
                                                 30840  30841  30858M 30868U 31008M 31018U 31245M 31255U 31920M 31930U
                                                 32239M 32240M 32241  32242M 32251M 32251  32262  32265M 32267M 32269M
                                                 32270M 32270  32273M 32273  32280M 32296M 32302M 32314  32323B 32576M
                                                 32606  32705M 32735  32819M 32821M 32848  32871  33006M 33015M 33015
                                                 33055M 33056M 33057M 33058M 33064  33067M 33069M 33071M 33072M 33072
                                                 33075M 33076M 33163  33178  33179M 33181  33239M 33239  33240  33289M
                                                 33290M 33291M 33297  33300M 33302M 33304M 33305M 33305  33472M 33473M
                                                 33474  33475M 33484M 33484  33495  33498M 33500M 33502M 33503M 33503
                                                 33506M 33506  33513M 33529M 33553  33584M 33594U 33651M 33661U 33718M
                                                 33728U 33765M 33780M 33790U 33949M 33950M 33951  33952M 33961M 33961
                                                 33972  33975M 33977M 33979M 33980M 33980  33983M 33983  33990M 34006M
                                                 34030  34061M 34071U 34128M 34138U 34195M 34205U 34242M 34257M 34267U
                                                 34426M 34427M 34428  34429M 34438M 34438  34449  34452M 34454M 34456M
                                                 34457M 34457  34460M 34460  34467M 34483M 34507  34541M 34551U 34592M
                                                 34593M 34608  34616M 34626U 34664  34665M 34666  34832M 34833M 34834
1GSTINTF  (GSTI00) (09:40) (22MAR04) Ordinary Symbol and Literal Cross Reference                                            Page  343
                                                 34835M 34844M 34844  34855  34858M 34860M 34862M 34863M 34863  34866M
                                                 34866  34873M 34889M 34913  34944M 34954U 35011M 35021U 35078M 35088U
                                                 35125M 35140M 35150U 35369M 35379U 35667M 35677U 35798M 35808U 35890M
                                                 35891  35894M 35896M 35898M 35899M 35899  35977M 35987U 36343M 36353U
                                                 36734  36735  37281M 37288  37301M 37333M 37338M 37401M 37402M 37405M
                                                 37406M 37416  37528M 37529M 37532M 37533M 37543  37737M 37738M 37739M
                                                 37740  38294M 38295M 38296M 38302  38305M 38307M 38309M 38310M 38310
                                                 38467M 38471M 38472  38473M 38474  38512M 38513M 38514M 38520  38523M
                                                 38525M 38527M 38528M 38528  38541M 38542M 38548  38551M 38553M 38555M
                                                 38556M 38556  38748M 38758U 38780M 38790U 38840M 38841M 38847  38850M
                                                 38852M 38854M 38855M 38855  38862M 38863M 38864M 38870  38873M 38875M
                                                 38877M 38878M 38878  38881M 38888  38901M 38933M 38938M 39027M 39316M
                                                 39317M 39318M 39324  39327M 39329M 39331M 39332M 39332  39335M 39342
                                                 39355M 39387M 39392M 39414  39524M 39525M 39526M 39532  39535M 39537M
                                                 39539M 39540M 39540  39543M 39550  39563M 39595M 39600M 39622  39737M
                                                 39738M 39739M 39745  39748M 39750M 39752M 39753M 39753  40012M 40013M
                                                 40014M 40020  40023M 40025M 40027M 40028M 40028  40031M 40049M 40050
                                                 40269M 40270M 40271M 40280  40302M 40312U 40351  40354M 40356M 40358M
                                                 40359M 40359  40367M 40368M 40377  40399M 40409U 40448  40451M 40453M
                                                 40455M 40456M 40456  40524M 40654M 40655M 40655  40725M 40735U 40792M
                                                 40802U 40844M 40849  40856M 40857M 40858M 40864  40867M 40869M 40871M
                                                 40872M 40872  40884M 40885M 40891  40894M 40896M 40898M 40899M 40899
                                                 41086M 41087M 41088M 41097  41119M 41129U 41168  41171M 41173M 41175M
                                                 41176M 41176  41216M 41226U 41263M 41264M 41273  41295M 41305U 41344
                                                 41347M 41349M 41351M 41352M 41352  41425M 41618M 41628U 41669M 41670
                                                 41762M 41791M 41818M 42043M 42044M 42045M 42051  42054M 42056M 42058M
                                                 42059M 42059  42093M 42103U 42189M 42199U 42240M 42246M 42258  42512M
                                                 42513M 42514M 42520  42523M 42525M 42527M 42528M 42528  42711M 42712M
                                                 42713M 42719  42722M 42724M 42726M 42727M 42727  42736M 42737M 42743
                                                 42746M 42748M 42750M 42751M 42751  42793M 42803U 42912M 42922U 42963M
                                                 42964  43005M 43006M 43066M 43067  43134M 43163M 43224M 43225M 43453M
                                                 43454M 43455M 43464  43486M 43496U 43535  43538M 43540M 43542M 43543M
                                                 43543  43583M 43593U 43630M 43631M 43640  43662M 43672U 43711  43714M
                                                 43716M 43718M 43719M 43719  43802M 43812U 43853M 43854  43962M 43972U
                                                 44013M 44014  44077M 44106M 44127M 44156M 44165M 44166  44244M 44245M
                                                 44247  44429M 44430M 44431M 44440  44462M 44472U 44511  44514M 44516M
                                                 44518M 44519M 44519  44527M 44528M 44537  44559M 44569U 44608  44611M
                                                 44613M 44615M 44616M 44616  44713M 44723U 44797M 44807U 44939M 44985
                                                 44987  44989M 45018M 45018  45185M 45186M 45187M 45189  45223M 45269M
                                                 45270  45334  45336  45338M 45368M 45368  45594M 45595M 45596M 45605
                                                 45627M 45637U 45676  45679M 45681M 45683M 45684M 45684  45687  45693M
                                                 45694M 45703  45725M 45735U 45774  45777M 45779M 45781M 45782M 45782
                                                 45785  45870M 45880U 45988M 46034  46036  46038M 46067M 46067  46198M
                                                 46208U 46265M 46275U 46441M 46442M 46443M 46445  46509M 46511  46556
                                                 46558  46560M 46590M 46590  46913M 46914M 46915M 46916  46922  46925M
                                                 46927M 46929M 46930M 46930  46935M 46947  46957M 46957  46967  46970M
                                                 46972M 46974M 46975M 46975  47143M 47144M 47145M 47151  47154M 47156M
                                                 47158M 47159M 47159  47570M 47580U 47694M 47695M 47696M 47702  47705M
                                                 47707M 47709M 47710M 47710  47714M 47715M 47716  47815M 47825U 47866M
                                                 47867  47955M 47984M 48157M 48158  48777M 48778  48781M 48783M 48785M
                                                 48786M 48786  49122M 49123M 49123  49125M 49396M 49405M 49405  49432
                                                 49887M 49888M 49889M 49890  49896  49899M 49901M 49903M 49904M 49904
                                                 49912M 49915M 49927  49937M 49937  49947  49950M 49952M 49954M 49955M
                                                 49955  49982M 49983M 49989  49992M 49994M 49996M 49997M 49997  50076M
                                                 50086U 50127M 50128  50169M 50217M 50246M 50371M 50372M 50378  50381M
                                                 50383M 50385M 50386M 50386  50393M 50547M 50556M 50556  50567  50579M
                                                 50588  50590  50591M 50594  50615  50653M 50654M 50655  50977M 50978M
                                                 50979M 50985  50988M 50990M 50992M 50993M 50993  50996M 51102M 51103M
                                                 51104M 51110  51113M 51115M 51117M 51118M 51118  51125M 51126M 51127M
1GSTINTF  (GSTI00) (09:40) (22MAR04) Ordinary Symbol and Literal Cross Reference                                            Page  344
                                                 51139  51147M 51157U 51243M 51253U 51310M 51320U 51358M 51477M 51478M
                                                 51479M 51480  51486  51489M 51491M 51493M 51494M 51494  51725M 51726M
                                                 51727M 51733  51736M 51738M 51740M 51741M 51741  51929M 51930M 51931M
                                                 51940  51962M 51972U 52011  52014M 52016M 52018M 52019M 52019  52059M
                                                 52069U 52106M 52107M 52113  52116M 52118M 52120M 52121M 52121  52203M
                                                 52213U 52254M 52255  52344M 52373M 52432M 52575M 52576M 52577M 52583
                                                 52586M 52588M 52590M 52591M 52591  52919M 52920M 52921M 52927  52930M
                                                 52932M 52934M 52935M 52935  52961M 52962M 52968  52971M 52973M 52975M
                                                 52976M 52976
 RSMLOCK       1 00000000 00000000 A   T    1682  1682
 RTCBR         9 00000009 FFFFFFFF A   #    1124 28737  31742M
 RUNNING       2 00003470 00000001     H   28927 29389B 29533B 29613B 29667B 29711B 29746B 29781B 29816B 29851B 29895B
                                                 29939B 29983B 30027B 30071B 30380B 30426B 30513B 30765B 30846B 30894B
                                                 30985B 31118B 31285B
 RVR           0 00000000 FFFFFFFF A   #    1004 10757  10804M 10805  10820  10893M 10893  10915  10917  10952M 10969M
                                                 10986M 11003M 11022M 11022  11071M 11088M 11105M 11122M 11141M 11141
                                                 11236M 11253M 11270M 11287M 11306M 11306  11351M 11368M 11385M 11402M
                                                 11421M 11421  11479  11522  11736  11791M 11792  11808M 11957  11961M
                                                 11962M 11963  11964M 11965  12203  12539M 12556M 12573M 12590M 12624M
                                                 12624  12663M 12680M 12697M 12714M 12738M 12738  12787M 12788  12803
                                                 12873M 12890M 12907M 12924M 12948M 12948  13019M 13036M 13053M 13070M
                                                 13094M 13094  13157M 13174M 13191M 13208M 13232M 13232  13289M 13306M
                                                 13323M 13340M 13365M 13365  13416  13496  13497  13578  13633M 13634
                                                 13937M 14014M 14031M 14055M 14072M 14096M 14113M 14395M 14401  15084M
                                                 15101M 15197M 15214M 15267M 15284M 15325M 15342M 15396M 15413M 15492M
                                                 15509M 15550M 15567M 15605M 15622M 15665M 15682M 15723M 15740M 15778M
                                                 15795M 15838M 15855M 15896M 15913M 15951M 15968M 16011M 16028M 16069M
                                                 16086M 16124M 16141M 16223M 16240M 16308M 16574M 16591M 16652M 16669M
                                                 16713M 16730M 16844M 16861M 16902M 16919M 17050M 17067M 17108M 17125M
                                                 17178M 17195M 17254M 17271M 17318M 17335M 17376M 17393M 17431M 17448M
                                                 17555M 17710M 17727M 17768M 17785M 17882M 17996M 18013M 18109M 18424M
                                                 18441M 18497M 18514M 18694M 18711M 18886M 18903M 19242M 19243M 19281
                                                 19324M 19341M 19402M 19419M 19463M 19480M 19517M 19534M 19595M 19612M
                                                 19656M 19673M 19710M 19727M 19788M 19805M 19849M 19866M 19903M 19920M
                                                 20173M 20174M 20212  20257M 20274M 20335M 20352M 20396M 20413M 20450M
                                                 20467M 20673M 20690M 20751M 20768M 20812M 20829M 20866M 20883M 20920M
                                                 20937M 20999M 21016M 21060M 21077M 21129M 21146M 21198M 21215M 21256M
                                                 21273M 21544M 21545M 21583  21629M 21646M 21707M 21724M 21768M 21785M
                                                 21822M 21839M 22127M 22144M 22196M 22213M 22254M 22271M 22312M 22329M
                                                 22391M 22408M 22452M 22469M 22520M 22537M 22590M 22607M 22648M 22665M
                                                 22706M 22723M 22761M 22778M 22819M 22836M 22873M 22890M 22931M 22948M
                                                 23047M 23210M 23227M 23591M 23608M 23689M 23706M 23756M 23803M 23820M
                                                 23870M 23917M 23934M 23984M 24031M 24048M 24191M 24208M 24249M 24266M
                                                 24319M 24373M 24390M 24443M 24502M 24519M 24566M 24583M 24636M 24689M
                                                 24706M 24795M 24812M 25125M 25142M 25183M 25200M 25238M 25255M 25326M
                                                 25327M 25365  25480M 25497M 25594M 25611M 25679  25740M 25757M 25819M
                                                 25856M 25873M 26001M 26018M 26059M 26076M 26239M 26256M 26297M 26314M
                                                 26477M 26494M 26535M 26552M 26733M 26750M 26845  26900M 26917M 26984M
                                                 27001M 27046M 27063M 27122M 27139M 27214M 27231M 27276M 27293M 27336M
                                                 27353M 27394M 27411M 27448M 27465M 27506M 27523M 27565M 27582M 27685M
                                                 27702M 27751M 27768M 27805M 27822M 27958M 27975M 28016M 28033M 28193M
                                                 28210M 28736  28894M 28900  30621M 30622M 30663M 30669  30812M 30818
                                                 30873M 30879  30976  31094M 31094  31260M 31266  31365M 31382M 31792M
                                                 31793  31935M 31936  31937M 31938  31939M 31940  31970M 31971  32347M
                                                 32747M 32984M 32984  33001M 33022M 33109M 33109  33110M 33143M 33169M
                                                 33277M 33277  33308  33576  33608  33643M 33643  33675  34053  34085
                                                 34120M 34120  34152  34530  34565  34936  34968  35003M 35003  35035
                                                 35593M 35594M 35632  35727M 35728M 35766  35866  36000  36269M 36270M
                                                 36308  36411  36709M 36717M 36728  36734M 36928M 37089M 37287M 37288M
1GSTINTF  (GSTI00) (09:40) (22MAR04) Ordinary Symbol and Literal Cross Reference                                            Page  345
                                                 37326  37422M 37439M 37440M 37478  37515M 37549M 37566M 37567M 37605
                                                 37642M 37682M 37683M 37721  37741M 38449  38450  38763M 38764  38765M
                                                 38766  38795M 38796  38797M 38798  38887M 38888M 38926  38965M 38966M
                                                 39004  39341M 39342M 39380  39549M 39550M 39588  39782  40717  40749
                                                 40784M 40784  40816  41610  41642  41741M 41742  41757  41848M 41849
                                                 42181  42213  42904  42936  43036M 43037  43049  43255M 43256  43794
                                                 43826  43954  43986  44238M 44238  44705  44737  44789M 44789  44821
                                                 44914M 44915  44934  45055M 45056  45075  45163M 45164  45165  45184M
                                                 45184  45213M 45213  45411M 45412  45416M 45417  45449M 45450  45454M
                                                 45455  45862  45894  45958M 45959  45978  46190  46222  46257M 46257
                                                 46289  46368M 46369  46388  46440M 46440  46469M 46469  46655M 46656
                                                 46660M 46661  46702M 46703  46707M 46708  47137  47139M 47162  47244M
                                                 47562  47594  47807  47839  47937M 47938  47950  48022M 48023  48038
                                                 48039  48094M 48111M 48128M 48147M 48189M 48206M 48225M 48259M 48276M
                                                 48295M 48325M 48342M 48361M 48405M 48508M 48525M 48544M 48598M 48615M
                                                 48660M 48677M 48696M 48726M 48743M 48762M 48813M 48830M 48849M 48879M
                                                 48896M 48915M 48982M 49068M 49195M 49282M 49326M 49378M 49379  49383M
                                                 49384  49430M 49431  49702M 49719M 50068  50100  50199M 50200  50212
                                                 50389  50423M 50424  50627  50628  50855M 50856  50860M 50861  50866M
                                                 51235  51267  51302M 51302  51334  51716M 51716  52195  52227  52326M
                                                 52327  52339  52419M 52419  52462M 52463  52627M 52627
 RX            6 00000006 FFFFFFFF A   #    1076 10820M 10830U 11793  12145M 12155U 12250  13964M 13964  13978  14129M
                                                 14378M 14388U 19213M 19223U 23546M 23556U 25084M 25094U 25659  28401M
                                                 28411U 28435  30976M 31003U 31075  31409M 31419U 31436M 31446U 31680M
                                                 32039  32157M 32167U 35866M 35876U 35938  36022  36411M 36440U 36479
                                                 36735M 36745U 37215M 37215  37253M 37667M 37741  37855M 37865U 37980M
                                                 37990U 38450M 38460U 38731M 38741U 39132M 39142U 39187  40035M 40045U
                                                 44938M 44969  44988M 45101M 45111U 45222M 45318  45337M 45987M 46018
                                                 46037M 46507M 46540  46559M 46826M 46836U 47108M 47118U 48039M 48049U
                                                 51456M 51466U 52772M 52782U 53009M 53019U 53131M 53141U 53178M 53266M
                                                 53276U 53282M 53300U
 RY            7 00000007 FFFFFFFF A   #    1088 10757M 10767U 11547  11581  11613  11808  12203M 12213U 12245  12305M
                                                 12492M 12502U 13850M 13860U 14350M 14360U 14575M 14585U 14866  15042M
                                                 15052U 15170M 15170  19019  19236M 19295M 20166M 20583M 21456M 23004M
                                                 23005M 23006M 23006  23007M 25385M 25385  25454M 25454  25518M 25530
                                                 25628M 25929M 25929  25976M 25976  26167M 26167  26214M 26214  26405M
                                                 26405  26452M 26452  26652M 26652  26699M 26699  26709M 26711M 26712M
                                                 28420M 28430U 28627M 28637U 28693  28935  29525  29573  29659  29703
                                                 29887  29931  29975  30019  30063  31695M 31738U 32143M 32153U 33439M
                                                 33449U 33552  33916M 33926U 34029  34393M 34403U 34506  34799M 34809U
                                                 34912  35276M 35286U 35492M 35502U 36144M 36154U 36623M 36633U 36757
                                                 36841M 36851U 37027M 37037U 37363M 37386M 37401  37433M 37440  37453M
                                                 37485M 37490M 37495M 37524M 37528  37560M 37567  37580M 37612M 37617M
                                                 37622M 37675M 37676M 37683  37696M 37728M 37733M 37739  37953M 37963U
                                                 38028  38272M 38282U 38395M 38405U 38717M 38727U 39118M 39128U 39299M
                                                 39309U 39507M 39517U 39720M 39730U 39866M 39876U 39995M 40005U 40252M
                                                 40262U 40694  41069M 41079U 41587  42012M 42022U 42158  42694M 42704U
                                                 42881  43436M 43446U 43771  43931  44412M 44422U 44682  44968  45317
                                                 45577M 45587U 45839  46017  46167  46539  46812M 46822U 47094M 47104U
                                                 47463M 47473U 47539  47784  49528M 49538U 49870M 49880U 50045  50960M
                                                 50970U 51085M 51095U 51212  51441M 51451U 51668M 51678U 51912M 51922U
                                                 52172  52558M 52568U 52758M 52768U 52902M 52912U 53145M 53252M 53262U
 R0            0 00000000 FFFFFFFF A   #     708 10696  10744M 10745  11502M 11503  11883  12113  12448  12746M 12747M
                                                 12748M 12749  13483M 13484  13813  14146M 14147M 14149  14318  14543
                                                 14697M 14698  14786M 14787  14824M 14825  14829M 14830  14864M 14865
                                                 14929  15005  19165  21980M 21981M 21981  22060M 22060  23506  25037
                                                 28369  28495M 28496M 28498  28595  28682M 28723M 28724  28934  28950M
                                                 28953  29253M 30592M 30593M 30595  30760M 30761M 30763  30946M 30947M
                                                 30949  31109M 31110M 31112  31535M 31536M 31538  31828U 32111  32390M
1GSTINTF  (GSTI00) (09:40) (22MAR04) Ordinary Symbol and Literal Cross Reference                                            Page  346
                                                 32391M 32393  32507M 32508M 32510  32524M 32525M 32527  32633M 32634M
                                                 32636  32650M 32651M 32653  32765M 32766M 32768  32904M 32905M 32907
                                                 33221M 33407  33884  34361  34706M 34767  35244  35460  36112  36591
                                                 36809  36995  37166  37823  37921  38096M 38097M 38099  38110M 38111M
                                                 38113  38240  38363  38436M 38437  38685  39086  39185M 39186  39267
                                                 39475  39688  39834  39963  40215  41032  41975  42388  42465M 42465
                                                 42491  42657  43077  43399  44375  45540  46780  47062  47216  47426
                                                 49496  49833  50507  50928  51053  51409  51548  51636  51875  52521
                                                 52726  52870  53099  53161M 53162M 53162  53233  53252
 R1            1 00000001 FFFFFFFF A   #     721 11828M 12063M 12338M 13666M 14144M 14145M 14147  14272M 14511M 14897M
                                                 14957M 19050M 23421M 24968M 28284M 28493M 28494M 28496  28565M 28973M
                                                 28991  29010  29021  29045  29085M 29096  29109  29135  30573M 30583M
                                                 30593  30758M 30759M 30761  30927M 30937M 30947  31107M 31108M 31110
                                                 31516M 31526M 31536  31587M 32388M 32389M 32391  32488M 32498M 32508
                                                 32522M 32523M 32525  32631M 32632M 32634  32648M 32649M 32651  32763M
                                                 32764M 32766  32902M 32903M 32905  33369M 33854M 34331M 34737M 35214M
                                                 35433M 36082M 36513M 36782M 36948M 37114M 37761M 37893M 38077M 38087M
                                                 38097  38108M 38109M 38111  38208M 38333M 38590M 39057M 39230M 39439M
                                                 39653M 39802M 39930M 40126M 40936M 41882M 42461M 42551M 43076  43286M
                                                 44285M 45489M 46742M 47032M 47187M 47254M 49465M 49765M 50449M 50824
                                                 50894M 51022M 51379M 51522M 51603M 51785M 52488M 52658M 52839M 53072M
                                                 53208M 53356M 53414U 53417  53418M
 R11          11 0000000B FFFFFFFF A   #     851 29135M 29168U 42324  42337  42338M
 R12          12 0000000C FFFFFFFF A   #     864 31679  32040M
 R13          13 0000000D FFFFFFFF A   #     877 28950M 28953  31679  31680  32039M 32040  53417M 53434U
 R14          14 0000000E FFFFFFFF A   #     890 13914M 13943  21957M 21967U 22032M 28949M 31679  32040M 32041B 40362M
                                                 40363  40459M 40460  40464  40845M 40848M 41179M 41180  41355M 41356
                                                 41357M 41358M 41359  41769M 41771M 41804M 43141M 43143M 43546M 43547
                                                 43722M 43723  44084M 44086M 44134M 44136M 44522M 44523  44619M 44620
                                                 45688M 45689  45786M 45787  47621M 47623M 47962M 47964M 50224M 50226M
                                                 50645M 50649M 52022M 52023  52124M 52125  52351M 52353M 52594M 52613
                                                 53023M 53034  53045M 53046  53047  53416  53426M 53436M 53444B
 R15          15 0000000F FFFFFFFF A   #     903 10696  11828M 11883  12063M 12113  12338M 12448  13666M 13813  14143M
                                                 14146  14149M 14272M 14318  14511M 14543  14897M 14929  14957M 15005
                                                 19050M 19165  20225M 21597M 23421M 23506  24968M 25037  28284M 28369
                                                 28492M 28495  28498M 28565M 28595  28934  28935M 28945U 29253M 30572M
                                                 30573  30574M 30576  30591M 30592  30595M 30757M 30760  30763M 30926M
                                                 30927  30928M 30930  30945M 30946  30949M 31106M 31109  31112M 31515M
                                                 31516  31517M 31519  31534M 31535  31538M 31587M 31681  31830M 31848U
                                                 31854M 31872U 31883M 31884M 32111  32387M 32390  32393M 32487M 32488
                                                 32489M 32491  32506M 32507  32510M 32521M 32524  32527M 32630M 32633
                                                 32636M 32647M 32650  32653M 32762M 32765  32768M 32901M 32904  32907M
                                                 33369M 33407  33854M 33884  34331M 34361  34737M 34767  35214M 35244
                                                 35433M 35460  36082M 36112  36513M 36591  36782M 36809  36948M 36995
                                                 37114M 37166  37761M 37823  37893M 37921  38076M 38077  38078M 38080
                                                 38095M 38096  38099M 38107M 38110  38113M 38208M 38240  38333M 38363
                                                 38590M 38685  39057M 39086  39230M 39267  39439M 39475  39653M 39688
                                                 39802M 39834  39930M 39963  40126M 40215  40362M 40363  40459M 40460
                                                 40568M 40578U 40847M 40936M 41032  41179M 41180  41194M 41194  41208
                                                 41355M 41358  41360M 41361  41469M 41479U 41769M 41770  41882M 41975
                                                 42484M 42484  42551M 42657  43081M 43091U 43097M 43115U 43141M 43142
                                                 43209M 43209  43286M 43399  43546M 43547  43561M 43561  43575  43722M
                                                 43724  44084M 44085  44134M 44135  44285M 44375  44522M 44523  44619M
                                                 44620  45489M 45540  45688M 45689  45786M 45787  46742M 46780  46916M
                                                 47032M 47062  47187M 47216  47254M 47426  47622M 47962M 47963  48471M
                                                 48482M 49124M 49125  49465M 49496  49765M 49833  49890M 49912  50224M
                                                 50225  50449M 50507  50646M 50648  50894M 50928  51022M 51053  51379M
                                                 51409  51480M 51522M 51548  51603M 51636  51785M 51875  52022M 52023
                                                 52037M 52037  52051  52351M 52352  52488M 52521  52658M 52726  52839M
1GSTINTF  (GSTI00) (09:40) (22MAR04) Ordinary Symbol and Literal Cross Reference                                            Page  347
                                                 52870  53043M 53044  53072M 53099  53208M 53233  53356M 53418M 53426B
 R2            2 00000002 FFFFFFFF A   #     734 14395  14400  14401M 28894  28899  28900M 29021M 29022M 29045M 29086M
                                                 29096  29109M 29110M 29367  29372  29373M 30404  30409  30410M 30491
                                                 30496  30497M 30663  30668  30669M 30812  30817  30818M 30873  30878
                                                 30879M 31260  31265  31266M 33599  33604  33605M 33666  33671  33672M
                                                 33733  33738  33739M 33795  33800  33801M 34076  34081  34082M 34143
                                                 34148  34149M 34210  34215  34216M 34272  34277  34278M 34556  34561
                                                 34562M 34631  34636  34637M 34959  34964  34965M 35026  35031  35032M
                                                 35093  35098  35099M 35155  35160  35161M 35384  35389  35390M 35682
                                                 35687  35688M 35813  35818  35819M 36358  36363  36364M 40317  40322
                                                 40323M 40414  40419  40420M 40740  40745  40746M 40807  40812  40813M
                                                 40844  40849M 41134  41139  41140M 41231  41236  41237M 41310  41315
                                                 41316M 41633  41638  41639M 42108  42113  42114M 42204  42209  42210M
                                                 42808  42813  42814M 42927  42932  42933M 43501  43506  43507M 43598
                                                 43603  43604M 43677  43682  43683M 43817  43822  43823M 43977  43982
                                                 43983M 44477  44482  44483M 44574  44579  44580M 44728  44733  44734M
                                                 44812  44817  44818M 45642  45647  45648M 45740  45745  45746M 45885
                                                 45890  45891M 46213  46218  46219M 46280  46285  46286M 47585  47590
                                                 47591M 47830  47835  47836M 50091  50096  50097M 51162  51167  51168M
                                                 51258  51263  51264M 51325  51330  51331M 51977  51982  51983M 52074
                                                 52079  52080M 52218  52223  52224M 53416  53436M
 R3            3 00000003 FFFFFFFF A   #     747 29180M 29181M 29182  29197
 R5            5 00000005 FFFFFFFF A   #     773 28998M 29020M 29044M 29183  29197
 R6            6 00000006 FFFFFFFF A   #     786 29103M 29129M 29153M 42377  42389M
 R8            8 00000008 FFFFFFFF A   #     812 28957M 28968U 42324  42325M 42338M
 R9            9 00000009 FFFFFFFF A   #     825 42326M 42377  42389M
 SALCLOCK      1 00000000 00000000 A   T    1662  1662
 SBTDATA       4 00000000 FFFFFFC7     A    8832 28627
 SBTPARM       4 00000000 FFFFFFC7     J    8839 28622U
 SEG           1 00000000 0000000D     T   19075 19075  23436  24982  28320  52680
 SEGADD        4 00000000 FFFFFFC3     A    9027 49592
 SEGCBD       40 00000000 FFFFFFC3     J    9085 47339  48058U 49538U
 SEGCNT        2 0000000A FFFFFFC3     H    9030 49593  49661M 49661
 SEGCOL        1 00000000 00000012     T   24983 24983
 SEGCORE       1 00000000 0000000F     T   19079 19079  23438  52686
 SEGFINIT      0 00000010 FFFFFFC3         9044 49551
 SEGFLG1       1 00000010 FFFFFFC3     R    9035  9044   9054   9064   9074
 SEGHEX        1 00000000 0000000E     T   19076 19076  23443  24984  28321  52681
 SEGINIT       1 00000000 00000026     T   52679 52679
 SEGMCNT       2 0000000C FFFFFFC3     H    9031 49666M 49666
 SEGRCNT       2 0000000E FFFFFFC3     H    9032 49671M 49671
 SEGUSER       4 00000014 FFFFFFC3     A    9078 48158M 49560
 SETCLOCK      4 00008330 00000001     I   53099 53094  53110U
 SETCLOC2      4 0000837A 00000001     I   53233 31605  36541  53244U 53535
 SGEMERS       2 00004400 00000001     H   32818 32328B
 SGEXTC        2 000043BA 00000001     H   32704 32327B
 SGRSTRT       2 00004364 00000001     H   32575 32331B
 SGSENSE       2 00004456 00000001     H   32958 32326B
 SGSTART       2 000042E6 00000001     H   32355 32329B
 SGSTOP        2 00004316 00000001     H   32441 32330B
 SGSTPX        2 00004476 00000001     H   33051 32338B
 SIECPUTM      8 00000128 FFFFFFB2     D   10200 29606  29612M
 SIECRS       64 00000180 FFFFFFB2     X   10511 19230  25319  37229  37363  37386
 SIEDATA     256 00000100 FFFFFFB2     X   10121 12251  14143  14143  14145  14145  14149M 14149M 28492  28492  28494
                                                 28494  28498M 28498M 30574  30574  30591  30591  30595M 30595M 30757
                                                 30757  30759  30759  30763M 30763M 30928  30928  30945  30945  30949M
                                                 30949M 31106  31106  31108  31108  31112M 31112M 31517  31517  31534
                                                 31534  31538M 31538M 32521  32521  32523  32523  32527M 32527M 32647
                                                 32647  32649  32649  32653M 32653M 32762  32762  32764  32764  32768M
1GSTINTF  (GSTI00) (09:40) (22MAR04) Ordinary Symbol and Literal Cross Reference                                            Page  348
                                                 32768M 32901  32901  32903  32903  32907M 32907M 38107  38107  38109
                                                 38109  38113M 38113M
 SIEGMSIZ      2 0000010A FFFFFFB2     H   10192 12279M
 SIEICAD1      4 00000158 FFFFFFB2     A   10495 29428  29485  32239  32296  33472  33529  33949  34006  34426  34483
                                                 34832  34889  35309  35325  35525  35582  36183  36240
 SIEICFLG      1 00000151 FFFFFFB2     R   10461 10469  10478  10487
 SIEICIF2    128 00000151 FFFFFFB2        10469 29422  32233  33466  33943  34420  34826  35303  35519  36177
 SIEICODE      1 00000150 FFFFFFB2     X   10444 28951M 29274  31817
 SIEICTL0      1 00000148 FFFFFFB2     R   10240 10248  10257  10266  10275  10284  10293  10302
 SIEICTL1      1 00000149 FFFFFFB2     R   10307 10315  10324  10333  10342  10351  10360
 SIEICTL2      1 0000014A FFFFFFB2     R   10365 10373  10382  10391  10400  10409  10418  10427  10436
 SIEIEXCD      2 000001C6 FFFFFFB2     H   10518 30882
 SIEIHCPU      2 00000152 FFFFFFB2     H   10490 33232M 34717M
 SIEINST       2 00000156 FFFFFFB2     H   10494 29406  29559  29639  29693  29737  29772  29807  29842  29877  29921
                                                 29965  30009  30053  30097  30130  30163  30196  30229  30262  30295
                                                 30328  30361  31818  32174  33055  33289  38294  38512  38541  38840
                                                 38862  39316  39524  39737  40012  40269  40367  40856  40884  41086
                                                 41263  42043  42512  42711  42736  43453  43630  44429  44527  45594
                                                 45693  46913  47143  49887  49982  50371  50977  51102  51477  51725
                                                 51929  52106  52575  52919  52961
 SIEIPEXT      1 00000100 FFFFFFB2        10151 30574  30574  30591  30595M 30757  30759  30759  30763M 31199  32762
                                                 32764  32764  32768M 32901  32903  32903  32907M
 SIEIPRCC      2 000001CE FFFFFFB2     H   10525 30500
 SIEIPRCL      2 000001CC FFFFFFB2     H   10524 30501
 SIEIPSTP      4 00000100 FFFFFFB2        10133 14143  14145  14145  14149M 31517  31517  31534  31538M 32521  32523
                                                 32523  32527M 32647  32649  32649  32653M 38107  38109  38109  38113M
 SIEIPVIO      2 00000100 FFFFFFB2        10142 28492  28494  28494  28498M 30928  30928  30945  30949M 31106  31108
                                                 31108  31112M
 SIEISCAA      4 00000164 FFFFFFB2     A   10501 12303M
 SIEITMR       1 00000101 FFFFFFB2     R   10157 10161
 SIEMODE       1 00000103 FFFFFFB2     R   10169 10177  10186
 SIEMSORG      2 00000108 FFFFFFB2     H   10191 12275M
 SIENTVCT      1 00000100 FFFFFFB2     R   10125 10133  10142  10151
 SIEPREFX      4 00000104 FFFFFFB2     F   10190 19256  19281  20187  20212  21558  21583  25340  25365  33178M 34664M
                                                 35191  35607  35632  35741  35766  36283  36308  37301  37326  37453
                                                 37478  37580  37605  37696  37721  38901  38926  38979  39004  39355
                                                 39380  39563  39588
 SIEPSW        8 00000118 FFFFFFB2     D   10198 28901  28902M 29344  29374  29375M 29743  29745M 29778  29780M 29813
                                                 29815M 29848  29850M 30411  30412M 30498  30499M 30670  30671M 30819
                                                 30820M 30880  30881M 31036  31037M 31132  31212  31267  31268M 31404
                                                 31819  33309M 33310M 33320M 33331M 33332M 33343M 33606  33607M 33673
                                                 33674M 33740  33741M 33765  33802  33803M 34083  34084M 34150  34151M
                                                 34217  34218M 34242  34279  34280M 34563  34564M 34638  34639M 34966
                                                 34967M 35033  35034M 35100  35101M 35125  35162  35163M 35391  35392M
                                                 35413M 35689  35690M 35820  35821M 35952M 35953M 36161M 36365  36366M
                                                 36460M 37275  37357  40324  40325M 40421  40422M 40501M 40502M 40553M
                                                 40614M 40747  40748M 40814  40815M 40916M 41141  41142M 41238  41239M
                                                 41317  41318M 41402M 41403M 41454M 41515M 41640  41641M 41862M 42115
                                                 42116M 42211  42212M 42815  42816M 42934  42935M 43200M 43216M 43508
                                                 43509M 43605  43606M 43684  43685M 43824  43825M 43984  43985M 44229M
                                                 44254M 44484  44485M 44581  44582M 44735  44736M 44819  44820M 45183M
                                                 45196M 45649  45650M 45747  45748M 45892  45893M 46220  46221M 46287
                                                 46288M 46439M 46452M 47494  47592  47593M 47837  47838M 47998  47999M
                                                 50098  50099M 51169  51170M 51265  51266M 51332  51333M 51707M 51761M
                                                 51984  51985M 52081  52082M 52225  52226M 52410M 52426M 52618M 52634M
 SIERCP        4 00000160 FFFFFFB2     A   10500 12281M
 SIEREG14      4 00000110 FFFFFFB2     F   10196 29454  32184  32265  33067  33300  33498  33975  34452  34858  35340
                                                 35551  35894  36209  38305  38523  38551  38850  38873  39327  39535
                                                 39748  40023  40354  40451  40867  40894  41171  41347  42054  42523
1GSTINTF  (GSTI00) (09:40) (22MAR04) Ordinary Symbol and Literal Cross Reference                                            Page  349
                                                 42722  42746  43538  43714  44514  44611  45679  45777  46925  46970
                                                 47154  47705  48781  49899  49950  49992  50381  50988  51113  51489
                                                 51736  52014  52116  52586  52930  52971
 SIEREG15      4 00000114 FFFFFFB2     F   10197 29456  32186  32267  33069  33302  33500  33977  34454  34860  35342
                                                 35553  35896  36211  38307  38525  38553  38852  38875  39329  39537
                                                 39750  40025  40356  40453  40869  40896  41173  41349  42056  42525
                                                 42724  42748  43540  43716  44516  44613  45681  45779  46927  46972
                                                 47156  47707  48783  49901  49952  49994  50383  50990  51115  51491
                                                 51738  52016  52118  52588  52932  52973
 SIESA390     32 00000103 FFFFFFB2        10177 12273M
 SIESVCTL      1 00000140 FFFFFFB2     R   10208 10212  10217  10222  10227
 SIGPCC0       4 0000458C 00000001     I   33343 32434B 32568B 32680B 32795B 32857B 32934B 33241B 33280B
 SIGPCC1       2 00004532 00000001     H   33270 32348B 32748B 33027B 33144B 33170B
 SIGPCC2       4 00004580 00000001     I   33331 32615B 33119B
 SIGPCC3       4 00004578 00000001     I   33320 32211B
 SIGPEXCP      1 00000080 00000001 A   U   33383 36532
 SIGPICST      1 00000200 00000001 A   U   33385 36536
 SIGPINVO      1 00000002 00000001 A   U   33382 36530
 SIGPINVP      1 00000100 00000001 A   U   33386 36537
 SIGPMAX       1 00000038 00000001 A   U   32339 36529
 SIGPSTOP      1 00000040 00000001 A   U   33384 36533
 SIGPTAB       4 000042A6 00000001     I   32325 32323B 32339
 SIRBEND       4 000000E8 FFFFFFE1     F    7802  7864
 SMCABASE      1 00000000 FFFFFFE7     J    4537  4887  43115U 43182
 SMCAEND       1 000001E0 FFFFFFE7     U    4886  4887
 SMCAMACR      4 0000007C FFFFFFE7     F    4662 43182
 SMCASID       4 00000010 FFFFFFE7     C    4600 43121
 SMFADDRS      8 00000000 FFFFFF9C     D   42616 42964M 42965M 42994  43134
 SMFA20969
               1 000064F0 00000001     U   43184 43186
 SMFDATA       1 00000014 FFFFFF9D     X   42591 43133
 SMFDATE       4 0000000C FFFFFF9D     A   42585 43076M
 SMFHDR       18 00000012 FFFFFF9D A   X   42587 43066
 SMFLEN        2 00000002 FFFFFF9D     R   42580 42587  42587  43067M 43176
 SMFREC       20 00000000 FFFFFF9D     J   42598 43006  43059U 43225
 SMFSID        4 00000010 FFFFFF9D     C   42586 43121M
 SMFTIME       4 00000008 FFFFFF9D     A   42584 43077M
 SMFTYPE       1 00000007 FFFFFF9D     X   42583 43068M
 SMFUADD       4 00000048 FFFFFF9C     A   42617 42731M
 SMFULEN       4 0000004C FFFFFF9C     A   42618 42757M 43005  43224
 SMFUNUM       1 00000050 FFFFFF9C     X   42619 42755M 43068
 SMFWORK      81 00000000 FFFFFF9C     J   42626 42691U
 SMF120969
               1 00006500 00000001     U   43191 43181B
 SMF220969
               1 00006504 00000001     U   43193 43186
 SNAPBUFF    110 00000028 FFFFFF97     C   47340 48094  48111
 SNAPOUT       4 00007836 00000001     I   49496 48128  49507U
 SNAPPARM      6 00000000 FFFFFF98     J   47321 47365  47482U 47497  47498  47997  49570U
 SNAPSEG     150 00000000 FFFFFF97     J   47347 48022  48049U 49378
 SNAPWORK     48 00000000 FFFFFF96     J   47378 47460U 47490M 47490
 SNDPALLO      1 00000000 00000027     T   52690 52690
 SNDPCLS       1 00000000 00000029     T   52693 52693
 SNDPWRT       1 00000000 00000028     T   52692 52692
 SNPADDR       4 00000002 FFFFFF98     R   47312 47313  47314  47733
 SNPCNT        1 00000001 FFFFFF98     X   47311 47748  49158  49268
 SNPFADDR     32 00000000 FFFFFF98        47292 47664  47664  47665  47665  47667  49115  49115  49116
 SNPFLAG       1 00000000 FFFFFF98     R   47278 47282  47287  47292  47297  47302  47307
 SNPFMSG     128 00000000 FFFFFF98        47282 47665  47665  47666  47666  47687  47687  49230
1GSTINTF  (GSTI00) (09:40) (22MAR04) Ordinary Symbol and Literal Cross Reference                                            Page  350
 SNPFREGS     64 00000000 FFFFFF98        47287 48433
 SNPFSCON     16 00000000 FFFFFF98        47297 47664  47664  47666  47666  47687  47687  47688  49115  49115
 SNPFWTL       4 00000000 FFFFFF98        47307 49603
 SNPFWTO       8 00000000 FFFFFF98        47302 49629
 SNPREGS       2 00000004 FFFFFF98     H   47314 48471
 SNPSCON       2 00000004 FFFFFF98     H   47313 47694  47714
 SNSEGCB      40 00000000 FFFFFF97     X   47339 48058U 48147  48225  48295  48361  48405  48544  48696  48762  48849
                                                 48915  48982  49068  49195  49282  49326
 SNWADDRS      8 00000020 FFFFFF96     D   47371 47867M 47868M 47897  47955
 SNWBUFF       4 0000000C FFFFFF96     A   47367 47950M 47954  49124  49153  49263  49396
 SNWGVA        4 00000014 FFFFFF96     A   47369 47739M 49122
 SNWIA         4 00000010 FFFFFF96     A   47368 47496M 48259  48276
 SNWPARM       6 00000000 FFFFFF96     X   47365 47482U 48157
 SNWREG        4 00000018 FFFFFF96     A   47370 48598  48625M 48660
 SNWSCB        4 00000008 FFFFFF96     A   47366 48038M 49383
 SPAWN         1 00000000 00000005     T   13754 13754
 SPR          13 0000000D FFFFFFFF A   #    1172 10696  10711  10712  10714M 10728U 10789U 10863U 11172U 11216U 11454U
                                                 11538U 11572U 11604U 11710U 11776U 11883  11898  11899  11914M 11932U
                                                 12113  12128  12129  12144M 12174U 12448  12463  12464  12484M 12519U
                                                 12772U 12853U 13392U 13467U 13564U 13618U 13813  13828  13829  13849M
                                                 13886U 14176U 14208U 14318  14333  14334  14349M 14430U 14463U 14543
                                                 14558  14559  14574M 14640U 14683U 14929  14944  14945  14947M 15005
                                                 15020  15021  15041M 15067U 16276U 16374U 16621U 16692U 17523U 17615U
                                                 17855U 17942U 18082U 18169U 18256U 18289U 18628U 18677U 18817U 18869U
                                                 19009U 19165  19180  19181  19201M 19307U 19371U 19442U 19564U 19635U
                                                 19757U 19828U 19988U 20052U 20304U 20375U 20720U 20791U 20968U 21039U
                                                 21345U 21409U 21676U 21747U 22360U 22431U 23021U 23101U 23506  23521
                                                 23522  23542M 23574U 23736U 23786U 23850U 23900U 23964U 24014U 24299U
                                                 24352U 24423U 24485U 24616U 24668U 25037  25052  25053  25073M 25108U
                                                 25650U 25719U 26796U 26879U 26953U 27025U 27188U 27255U 28369  28384
                                                 28385  28400M 28510U 28595  28610  28611  28626M 28667U 28707U 28836U
                                                 29523U 29593U 29657U 30966U 31072U 31170U 31345U 31464U 31744M 31787U
                                                 31996U 32111  32126  32127  32142M 33197U 33407  33422  33423  33438M
                                                 33543U 33884  33899  33900  33915M 34020U 34361  34376  34377  34392M
                                                 34497U 34682U 34767  34782  34783  34798M 34903U 35244  35259  35260
                                                 35275M 35460  35475  35476  35491M 35854U 35929U 36019U 36112  36127
                                                 36128  36143M 36399U 36476U 36591  36606  36607  36622M 36809  36824
                                                 36825  36840M 36995  37010  37011  37026M 37166  37181  37182  37197M
                                                 37823  37838  37839  37854M 37921  37936  37937  37952M 38125U 38240
                                                 38255  38256  38271M 38363  38378  38379  38394M 38422U 38685  38700
                                                 38701  38716M 39086  39101  39102  39117M 39171U 39267  39282  39283
                                                 39298M 39405U 39475  39490  39491  39506M 39613U 39688  39703  39704
                                                 39719M 39768U 39834  39849  39850  39865M 39893U 39963  39978  39979
                                                 39994M 40070U 40215  40230  40231  40251M 40685U 41032  41047  41048
                                                 41068M 41578U 41726U 41833U 41975  41990  41991  42011M 42149U 42657
                                                 42672  42673  42693M 42872U 43021U 43240U 43399  43414  43415  43435M
                                                 43762U 44067U 44375  44390  44391  44411M 44673U 44901U 44959U 45042U
                                                 45092U 45308U 45398U 45540  45555  45556  45576M 45830U 45945U 46008U
                                                 46355U 46406U 46530U 46642U 46780  46795  46796  46811M 47062  47077
                                                 47078  47093M 47216  47231  47232  47234M 47426  47441  47442  47462M
                                                 47530U 47922U 48073U 48172U 48567U 48639U 49139U 49249U 49363U 49496
                                                 49511  49512  49527M 49583U 49685U 49833  49848  49849  49869M 50036U
                                                 50184U 50267U 50408U 50507  50522  50523  50543M 50606U 50842U 50928
                                                 50943  50944  50959M 51053  51068  51069  51084M 51203U 51409  51424
                                                 51425  51440M 51548  51563  51564  51579M 51636  51651  51652  51667M
                                                 51694U 51875  51890  51891  51911M 52163U 52311U 52392U 52447U 52521
                                                 52536  52537  52557M 52604U 52726  52741  52742  52757M 52796U 52870
                                                 52885  52886  52901M 53099  53114  53115  53130M 53233  53248  53249
                                                 53251M
1GSTINTF  (GSTI00) (09:40) (22MAR04) Ordinary Symbol and Literal Cross Reference                                            Page  351
 STOPCODE      2 00003F04 00000001     H   31317 29308B
 STOPPED       2 0000341E 00000001     H   28808 31540B
 SVRBEND       4 00000110 FFFFFFE1     F    7811  7868
 TASKSERV      1 00000000 00000023     T   41939 41939
 TCB           1 00000020 FFFFFFE3     U    6419  7118  31848U
 TCBAE         4 000000BC FFFFFFE3     A    6663  6666
 TCBDARPN      1 00000040 FFFFFFE3 A   U    6709  6711
 TCBDARTN      1 00000080 FFFFFFE3 A   U    6706  6708
 TCBFIX        1 00000000 FFFFFFE3     J    6407  6414
 TCBMNLEN      1 00000158 FFFFFFE3 A   U    7118  7163
 TCBPXLEN      1 00000020 FFFFFFE3 A   U    6414  7163
 TCBRBP        4 00000020 FFFFFFE3     A    6421 31854
 TCBRD         4 000000B8 FFFFFFE3     A    6658  6662
 TCBXTNT2      1 00000000 FFFFFFE2     J    7123  7161
 TCBX2LEN      1 00000020 FFFFFFE2 A   U    7161  7163
 TEXTCONV      1 00000000 00000024     T   41940 41940
 TIRBEND       4 000000A8 FFFFFFE1     F    7740  7865
 TRATAB      256 000030D2 00000001     C   28295 25690
 TRCELOCK      1 00000000 00000000 A   T    1686  1686
 TXIT          2 000040A8 00000001     H   31673 28793  31691U 32029
 USENIZH1      2 0000003C FFFFFFE9     H    3945 29181  29182M
 USENIZH2      2 0000003E FFFFFFE9     H    3946 29183M
 USERCVT     863 00000000 FFFFFFE9     J    3978 29168U
 VALIDITY      2 00003EF4 00000001     H   31293 29306B
 VFIXLOCK      1 00000000 00000000 A   T    1672  1672
 VPAGLOCK      1 00000000 00000000 A   T    1677  1677
 WAITST        2 00003E80 00000001     H   31128 29305B
 WAR          12 0000000C FFFFFFFF A   #    1160 10711  10712M 10713  10714  11828  11829  11898  11899M 11900  11910U
                                                 11914  12063  12064  12128  12129M 12130  12140U 12144  12338  12339
                                                 12463  12464M 12465  12475U 12484  13666  13667  13828  13829M 13830
                                                 13840U 13849  14272  14273  14333  14334M 14335  14345U 14349  14511
                                                 14512  14558  14559M 14560  14570U 14574  14897  14898  14944  14945M
                                                 14946  14947  14957  14958  15020  15021M 15022  15032U 15041  19050
                                                 19051  19180  19181M 19182  19192U 19201  23421  23422  23521  23522M
                                                 23523  23533U 23542  24968  24969  25052  25053M 25054  25064U 25073
                                                 28284  28285  28384  28385M 28386  28396U 28400  28565  28566  28610
                                                 28611M 28612  28622U 28626  31587  31588  31743M 32126  32127M 32128
                                                 32138U 32142  33369  33370  33422  33423M 33424  33434U 33438  33854
                                                 33855  33899  33900M 33901  33911U 33915  34331  34332  34376  34377M
                                                 34378  34388U 34392  34737  34738  34782  34783M 34784  34794U 34798
                                                 35214  35215  35259  35260M 35261  35271U 35275  35433  35434  35475
                                                 35476M 35477  35487U 35491  36082  36083  36127  36128M 36129  36139U
                                                 36143  36513  36514  36606  36607M 36608  36618U 36622  36782  36783
                                                 36824  36825M 36826  36836U 36840  36948  36949  37010  37011M 37012
                                                 37022U 37026  37114  37115  37181  37182M 37183  37193U 37197  37761
                                                 37762  37838  37839M 37840  37850U 37854  37893  37894  37936  37937M
                                                 37938  37948U 37952  38208  38209  38255  38256M 38257  38267U 38271
                                                 38333  38334  38378  38379M 38380  38390U 38394  38590  38591  38700
                                                 38701M 38702  38712U 38716  39057  39058  39101  39102M 39103  39113U
                                                 39117  39230  39231  39282  39283M 39284  39294U 39298  39439  39440
                                                 39490  39491M 39492  39502U 39506  39653  39654  39703  39704M 39705
                                                 39715U 39719  39802  39803  39849  39850M 39851  39861U 39865  39930
                                                 39931  39978  39979M 39980  39990U 39994  40126  40127  40230  40231M
                                                 40232  40242U 40251  40936  40937  41047  41048M 41049  41059U 41068
                                                 41882  41883  41990  41991M 41992  42002U 42011  42551  42552  42672
                                                 42673M 42674  42684U 42693  43286  43287  43414  43415M 43416  43426U
                                                 43435  44285  44286  44390  44391M 44392  44402U 44411  45489  45490
                                                 45555  45556M 45557  45567U 45576  46742  46743  46795  46796M 46797
                                                 46807U 46811  47032  47033  47077  47078M 47079  47089U 47093  47187
1GSTINTF  (GSTI00) (09:40) (22MAR04) Ordinary Symbol and Literal Cross Reference                                            Page  352
                                                 47188  47231  47232M 47233  47234  47254  47255  47441  47442M 47443
                                                 47453U 47462  49465  49466  49511  49512M 49513  49523U 49527  49765
                                                 49766  49848  49849M 49850  49860U 49869  50449  50450  50522  50523M
                                                 50524  50534U 50543  50894  50895  50943  50944M 50945  50955U 50959
                                                 51022  51023  51068  51069M 51070  51080U 51084  51379  51380  51424
                                                 51425M 51426  51436U 51440  51522  51523  51563  51564M 51565  51575U
                                                 51579  51603  51604  51651  51652M 51653  51663U 51667  51785  51786
                                                 51890  51891M 51892  51902U 51911  52488  52489  52536  52537M 52538
                                                 52548U 52557  52658  52659  52741  52742M 52743  52753U 52757  52839
                                                 52840  52885  52886M 52887  52897U 52901  53072  53073  53114  53115M
                                                 53116  53126U 53130  53208  53209  53248  53249M 53250  53251  53356
                                                 53357
 WPL           1 00000000 FFFFFFE4     U    5905 50591  50638U 50822
 WPLDESCB      1 00000040 FFFFFFE4 A   U    5959 50765
 WPLDESCD      1 00000010 FFFFFFE4 A   U    5961 50800
 WPLDESCG      1 00000002 FFFFFFE4 A   U    5964 50698
 WPLDESC1      1 00000000 FFFFFFE4     B    5957 50700M 50767M 50802M
 WPLFLGS       1 00000000 FFFFFFE4     U    5952 50663U
 WPLLGH        2 00000000 FFFFFFE4     H    5906 50654  50655M
 WPLLTF        2 00000000 FFFFFFE4     B    6038  6051
 WPLMCSF       2 00000002 FFFFFFE4     B    5914 50654  50673M
 WPLMCSFA      1 00000080 FFFFFFE4 A   U    5916 50671
 WPLMCSFN      1 00000004 FFFFFFE4 A   U    5930 50723
 WPLMCSF2      1 00000003 FFFFFFE4     B    5924 50725M
 WPLRF         1 00000000 FFFFFFE4     J    5875  5888   5903   5950   6033   6061   6092
 WPLROUT       2 00000002 FFFFFFE4     B    5979 50591
 WPLROUTA      1 00000080 FFFFFFE4 A   U    5981 50772
 WPLROUTB      1 00000040 FFFFFFE4 A   U    5982 50807
 WPLROUTH      1 00000001 FFFFFFE4 A   U    5988 50775  50810
 WPLROUT1      1 00000002 FFFFFFE4     B    5980 50777M 50812M
 WPLTXT      126 00000004 FFFFFFE4     C    5937 10629  50591  50647
 WPX           1 00000000 FFFFFFE4     U    6094  6252
 WPXS603       1 00000004 FFFFFFE4 A   U    6099  6100
 WTOADDRS      8 00000000 FFFFFF95     D   49790 50128M 50129M 50158  50217
 WTOULEN       4 00000014 FFFFFF95     A   49792 49978M 50169  50277  50393
 WTOUPRM       4 00000018 FFFFFF95     A   49793 50000M 50288  50315  50342
 WTOWORK      28 00000000 FFFFFF95     J   49800 49867U
 XBLD          2 000055DE 00000001     H   38601 38606  38606
 XDCB          4 00005630 00000001     F   38613 38649  38649
 XDECB         4 00005688 00000001     F   38652 38659  38659
 XPDCB         4 000007D4 00000001     F   13682 13719  13719
 =A(@DWTLMAX)
               4 000081D4 00000001     A   52689 49961  49973  50567  50579
 =A(AM24CAP)
               4 0000095C 00000001     A   13765 13511
 =A(AM24CAP)
               4 00005ADC 00000001     A   40146 38467
 =A(CPUTASK)
               4 00000904 00000001     A   13753 11730
 =A(DIAGMAX)
               4 00003FF8 00000001     A   31612 29502
 =A(DOWTO)
               4 000017F0 00000001     A   19068 13949  14042  14083  14124
 =A(DOWTO)
               4 0000402C 00000001     A   31625 31399
 =A(DUMPFRL)
               4 0000189C 00000001     A   19091 19025
 =A(DUMPGVM)
               4 0000186C 00000001     A   19089 18652  18842
1GSTINTF  (GSTI00) (09:40) (22MAR04) Ordinary Symbol and Literal Cross Reference                                            Page  353
 =A(DUMPTRC)
               4 00001864 00000001     A   19087 18272
 =A(FREEIOCB)
               4 00004028 00000001     A   31624 31081
 =A(GETIOI)
               4 00004024 00000001     A   31623 30974
 =A(GSTCNOTM)
               4 000083F8 00000001     A   53534 53034
 =A(GVA)       4 0000323C 00000001     A   28327 25666  26831
 =A(GVA)       4 00005038 00000001     A   36542 33560  34037  34514  34920
 =A(GVA)       4 0000687C 00000001     A   44303 40701  41594  42165  42888  43778  43938
 =A(GVA)       4 000072B0 00000001     A   47388 44689  44975  45324  45846  46024  46174  46546
 =A(GVA)       4 00008194 00000001     A   52673 47546  47791  50052  51219  52179
 =A(ITABL)
               4 00003FF0 00000001     A   31610 29287
 =A(IXSIGP)
               4 00004008 00000001     A   31616 29709
 =A(IXSPX)
               4 00004010 00000001     A   31618 29937
 =A(IXSSCH)
               4 00004000 00000001     A   31614 29579
 =A(IXSTAP)
               4 0000400C 00000001     A   31617 29893
 =A(IXSTIDP)
               4 00004014 00000001     A   31619 29981
 =A(IXSTPX)
               4 00004018 00000001     A   31620 30025
 =A(IXTB)      4 0000401C 00000001     A   31621 30069
 =A(IXTPI)
               4 00004004 00000001     A   31615 29665
 =A(L'LOADPARM)
               4 00005AD4 00000001     A   40144 38436  39185
 =A(LOADIPL)
               4 000008F8 00000001     A   13750 11587
 =A(MAXCPUS)
               4 000008E8 00000001     A   13746 10910
 =A(MINMEG*1024)
               4 000008EC 00000001     A   13747 11013  11031  11033  11132  11150  11152
 =A(SETCLOC2)
               4 00003FDC 00000001     A   31605 28688
 =A(SETCLOC2)
               4 00005034 00000001     A   36541 33227  34712
 =A(SETCLOC2)
               4 000083FC 00000001     A   53535 53176
 =A(SIGPEXCP)
               4 00005010 00000001     A   36532 32747  33022
 =A(SIGPICST)
               4 00005020 00000001     A   36536 33143
 =A(SIGPINVO)
               4 00005008 00000001     A   36530 32347
 =A(SIGPINVP)
               4 00005024 00000001     A   36537 33169
 =A(SIGPMAX)
               4 00005004 00000001     A   36529 32314
 =A(SIGPSTOP)
               4 00005014 00000001     A   36533 33001
 =A(X'7FFFF000')
               4 00006870 00000001     A   44300 40633  41534
 =A(1)         4 00000928 00000001     A   13762 12308
1GSTINTF  (GSTI00) (09:40) (22MAR04) Ordinary Symbol and Literal Cross Reference                                            Page  354
 =A(1)         4 000017F4 00000001     A   19069 14128  18363
 =A(1)         4 00004020 00000001     A   31622 30636
 =A(1)         4 0000532C 00000001     A   37775 37405  37532
 =A(1)         4 000081C4 00000001     A   52685 48927  49013  49915
 =A(100)       4 000072C8 00000001     A   47394 46896
 =A(1024)      4 00001868 00000001     A   19088 18645  18835
 =A(15)        4 000072CC 00000001     A   47395 46947
 =A(15)        4 000081D0 00000001     A   52688 49927
 =A(16*1024*1024)
               4 000083EC 00000001     A   53531 52939
 =A(16)        4 000081BC 00000001     A   52683 48461
 =A(235)       4 000081DC 00000001     A   52691 52051
 =A(256)       4 00006884 00000001     A   44305 41208
 =A(32768)
               4 00006890 00000001     A   44308 42785
 =A(33)        4 000008F0 00000001     A   13748 11297
 =A(4)         4 00003240 00000001     A   28328 25679  26845  27621
 =A(4)         4 0000503C 00000001     A   36543 33576  34053  34530  34936
 =A(4)         4 00006880 00000001     A   44304 40717  41610  42181  42904  43794  43954
 =A(4)         4 000072B4 00000001     A   47389 44705  45862  46190  46336
 =A(4)         4 00008198 00000001     A   52674 47562  47807  48942  50068  51235  52195
 =A(4095)      4 000023E8 00000001     A   23435 19288  20219  21590
 =A(4095)      4 00003234 00000001     A   28325 25372
 =A(4095)      4 00005040 00000001     A   36544 35639  35773  36315
 =A(4095)      4 00005324 00000001     A   37773 37333  37485  37612  37728
 =A(4095)      4 00005AE4 00000001     A   40148 38933  39011  39387  39595
 =A(4096)      4 00001854 00000001     A   19083 17882
 =A(4096)      4 0000324C 00000001     A   28331 26778
 =A(4096)      4 00003FD4 00000001     A   31603 28677
 =A(4096)      4 00005028 00000001     A   36538 33207  33216  34692  34701
 =A(4096)      4 00005AC4 00000001     A   40140 37871  39415  39623
 =A(4096)      4 00006874 00000001     A   44301 40634  40662  41535  41556  42850  43740  43907
 =A(4096)      4 000072A8 00000001     A   47386 44651  44979  45328  45808  46028  46143  46550
 =A(4096)      4 0000818C 00000001     A   52671 47509  47760  50014  51139  52141
 =A(4096-L'PZERO)
               4 0000185C 00000001     A   19085 18109
 =A(44)        4 00006894 00000001     A   44309 43575
 =A(50)        4 00000900 00000001     A   13752 11729
 =A(512)       4 0000531C 00000001     A   37771 37246
 =A(64*1024)
               4 00000914 00000001     A   13757 11921  12013
 =A(64*1024-1)
               4 00000918 00000001     A   13758 11961
 =A(7)         4 00003244 00000001     A   28329 26638
 =A(8*1024)
               4 000008F4 00000001     A   13749 11412
 =A(8)         4 00003238 00000001     A   28326 25530
 =AL2(X'40')
               2 00004030 00000001     R   31626 29022  29110
 =C'         '
               9 00003291 00000001     C   28342 27685
 =C'      '
               6 0000325A 00000001     C   28334 25594
 =C'     '
               5 000024C7 00000001     C   23461 22590
 =C'    TOD='
               8 00003218 00000001     C   28319 27506
 =C'   Guest Real '
              14 0000245E 00000001     C   23451 22648
1GSTINTF  (GSTI00) (09:40) (22MAR04) Ordinary Symbol and Literal Cross Reference                                            Page  355
 =C'   MVS Virtual '
              15 000024CC 00000001     C   23462 22761
 =C'   PT:'
               6 0000246C 00000001     C   23452 22873
 =C'  **The CPU is running (in RUN state)**'
              39 0000198B 00000001     C   19104 17178
 =C'  **The CPU is stopped (in STOP state)**'
              40 000017C8 00000001     C   19067 17254
 =C'  '        2 000081EA 00000001     C   52695 48879  49702
 =C'  R/O'
               5 000024C2 00000001     C   23460 22520
 =C' (Location of the Reference/Change table)'
              41 00001948 00000001     C   19101 15951
 =C' (MVS Virtual address of GUEST main memory)'
              43 0000190B 00000001     C   19098 15605
 =C' (Number of CPUs in the configuration)'
              38 000018A2 00000001     C   19093 16124
 =C' (Size of the guest machine main memory)'
              40 00001790 00000001     C   19064 15778
 =C' (Task ID of this subtask)'
              26 000018C8 00000001     C   19094 17431
 =C' *** ID Check Failed.  This may be Garbage. *** '
              48 00001760 00000001     C   19063 15396
 =C' ***'      4 00002420 00000001     C   23441 20450  21822
 =C' ***'      4 00003228 00000001     C   28322 25238
 =C' '         1 000028B5 00000001     C   24990 24191
 =C' '         1 00003280 00000001     C   28337 25856  27805
 =C' = '       3 000081FD 00000001     C   52701 48726
 =C' bytes'
               6 00002448 00000001     C   23448 19903
 =C' entries, '
              10 0000243E 00000001     C   23447 19710
 =C' COMMON'
               7 00002483 00000001     C   23455 21129
 =C' GUEST ABSOLUTE'
              15 00002890 00000001     C   24987 23689
 =C' LOCAL CPU '
              11 0000248A 00000001     C   23456 21198
 =C'('         1 0000328F 00000001     C   28340 27336
 =C'*** Current Trace table for CPU '
              32 000031D8 00000001     C   28316 25125
 =C'*** End of the Absolute Frame Table ***'
              39 000028BD 00000001     C   24992 24795
 =C'*** END OF MEMORY ***'
              21 000024DB 00000001     C   23463 23210
 =C'*** END OF TRACE TABLE *** '
              27 000032A5 00000001     C   28344 28193
 =C'*** GUEST ABSOLUTE FRAME TABLE ***'
              34 0000286C 00000001     C   24985 23591
 =C'*** GUEST MACHINE INTERFACE DATA ***'
              36 00001808 00000001     C   19074 15084
 =C'*** Invalid page table entry at: '
              33 00002495 00000001     C   23457 21629
 =C'*** Invalid segment table entry at: '
              36 000023FC 00000001     C   23440 20257
 =C'*** NOT INITIALIZED ***'
              23 000018E2 00000001     C   19095 15197
 =C')'         1 00003290 00000001     C   28341 27448
 =C'-COMMON'
1GSTINTF  (GSTI00) (09:40) (22MAR04) Ordinary Symbol and Literal Cross Reference                                            Page  356
               7 000024B6 00000001     C   23458 22127
 =C'-CPU '
               5 000024BD 00000001     C   23459 22196
 =C', '        2 0000243C 00000001     C   23446 19517  20866
 =C': '        2 0000245C 00000001     C   23450 22312
 =C':'         1 000081FB 00000001     C   52699 48325
 =C'==> Common memory for Guest'
              27 00001A10 00000001     C   19109 18694
 =C'==> CPU '
               8 000017B8 00000001     C   19065 16574
 =C'==> Local memory for CPU '
              25 000019F7 00000001     C   19108 18424
 =C'==> Orvyl to MVS memory correspondence table'
              44 00001870 00000001     C   19090 18886
 =C'first address '
              14 0000244E 00000001     C   23449 20920
 =C'BR -- '
               6 00003254 00000001     C   28333 25480
 =C'CPTASKID '
               9 000019B2 00000001     C   19105 17318
 =C'CPU Address '
              12 00001844 00000001     C   19081 17050
 =C'CPUB at '
               8 000017C0 00000001     C   19066 16844
 =C'CPUB'      4 00000920 00000001     C   13760 12249
 =C'CPUB'      4 000041C0 00000001     C   32064 31706
 =C'Dump of the GSTCT'
              17 0000197A 00000001     C   19103 16223
 =C'End of diagnostics'
              18 00004032 00000001     C   31627 29230
 =C'GSTC'      4 00001834 00000001     C   19077 15370
 =C'GSTCCLEN '
               9 00001936 00000001     C   19099 15665
 =C'GSTCCORE '
               9 00001902 00000001     C   19097 15492
 =C'GSTCNCPU '
               9 00001971 00000001     C   19102 16011
 =C'GSTCRCPA '
               9 0000193F 00000001     C   19100 15838
 =C'GSTCT at '
               9 000018F9 00000001     C   19096 15267
 =C'INVALID'
               7 000028B6 00000001     C   24991 24502
 =C'IOCB'      4 00005318 00000001     C   37770 36756
 =C'MVS REAL'
               8 00002858 00000001     C   24981 23917
 =C'MVS VIRTUAL'
              11 0000289F 00000001     C   24988 23803
 =C'Orvsnap at '
              11 000081F0 00000001     C   52698 48189
 =C'ORVYL soft failure diagnostics:'
              31 00004078 00000001     C   31654 29192
 =C'Page Table: '
              12 00002424 00000001     C   23442 20673
 =C'Page Zero of this CPU at '
              25 000019BB 00000001     C   19106 17710
 =C'Program Call -- '
              16 000031F8 00000001     C   28317 26239
 =C'Program Tran -- '
1GSTINTF  (GSTI00) (09:40) (22MAR04) Ordinary Symbol and Literal Cross Reference                                            Page  357
              16 00003208 00000001     C   28318 26477
 =C'PSA following Page Zero of this CPU'
              35 000019D4 00000001     C   19107 17996
 =C'R'         1 000081FC 00000001     C   52700 48508
 =C'Segment Table: '
              15 00002474 00000001     C   23454 19324
 =C'SCIP'      4 00003FEC 00000001     C   31609 29056  29146
 =C'SSAN '
               5 00003281 00000001     C   28338 26001
 =C'STORAGE KEY'
              11 000028AA 00000001     C   24989 24031
 =C'Trace parameter not accessible'
              30 00003262 00000001     C   28336 27122
 =C'TRACE -- '
               9 00003286 00000001     C   28339 26733
 =C'UNKNOWN -- '
              11 0000329A 00000001     C   28343 27958
 =C'0123456789ABCDEF'
              16 00000870 00000001     C   13730 11723
 =CL4'CPUB'
               4 00001850 00000001     C   19082 17566
 =CL4'GSTC'
               4 000008DC 00000001     C   13743 10771
 =CL4'GSTC'
               4 00001838 00000001     C   19078 16319
 =CL4'PSA'
               4 00001860 00000001     C   19086 18120
 =CL4'PZER'
               4 00001858 00000001     C   19084 17893
 =CL44' '     44 0000092C 00000001     C   13763 12954
 =CL6' '       6 00000966 00000001     C   13768 13238
 =CL8' '       8 000008C0 00000001     C   13739 13100
 =CL8'ACTIVE'
               8 00000890 00000001     C   13733 12600
 =CL8'CPUS'
               8 00000838 00000001     C   13723 10844
 =CL8'DSNAME'
               8 000008B0 00000001     C   13737 12840
 =CL8'GDG'
               8 000008B8 00000001     C   13738 12996
 =CL8'GSTCPUX'
               8 00000868 00000001     C   13729 11722
 =CL8'INTERVAL'
               8 00000898 00000001     C   13734 12640
 =CL8'MEMORY'
               8 00000840 00000001     C   13724 10922  11041
 =CL8'MINSIZE'
               8 00000848 00000001     C   13725 10923
 =CL8'OS_OVER'
               8 00000860 00000001     C   13728 11322
 =CL8'PERCENT'
               8 00000858 00000001     C   13727 11197
 =CL8'PROFILE'
               8 00000888 00000001     C   13732 12599  12819  13573
 =CL8'SIZE'
               8 00000850 00000001     C   13726 11042
 =CL8'TRACKS'
               8 000008D0 00000001     C   13741 13266
 =CL8'VOLUME'
1GSTINTF  (GSTI00) (09:40) (22MAR04) Ordinary Symbol and Literal Cross Reference                                            Page  358
               8 000008C8 00000001     C   13740 13134
 =D'4096E3'
               8 000008A8 00000001     D   13736 12747
 =F'-1'        4 00003FE8 00000001     F   31608 28985  30688
 =F'14'        4 00003FF4 00000001     F   31611 29451
 =F'14'        4 00004FFC 00000001     F   36527 32181  32262  33064  33297  33495  33972  34449  34855  35337  35548
                                                 35891  36206
 =F'14'        4 00005AD0 00000001     F   40143 38302  38520  38548  38847  38870  39324  39532  39745  40020
 =F'14'        4 0000686C 00000001     F   44299 40351  40448  40864  40891  41168  41344  42051  42520  42719  42743
                                                 43535  43711
 =F'14'        4 000072A4 00000001     F   47385 44511  44608  45676  45774  46922  46967  47151
 =F'14'        4 000081A0 00000001     F   52676 47702  48778  49896  49947  49989  50378  50985  51110  51486  51733
                                                 52011  52113  52583
 =F'14'        4 000083E8 00000001     F   53530 52927  52968
 =FL8S12E3'1000'
               8 00000880 00000001     G   13731 12509
 =H'12'        2 00003260 00000001     H   28335 25637
 =V(BTDBTD)
               4 00001840 00000001     V   19080 16677
 =V(BTDBTD)
               4 00003250 00000001     V   28332 27009  27239
 =V(BTDBTD)
               4 000081C0 00000001     V   52684 48623
 =V(BTXBTX)
               4 000023F0 00000001     V   23437 19427  19620  19813  20360  20776  21024  21732  22416
 =V(CANTASK)
               4 00001800 00000001     V   19072 14652
 =V(CPTREAD)
               4 00003FFC 00000001     V   31613 29567  29604
 =V(CPTSTART)
               4 00003FD0 00000001     V   31602 28653
 =V(DOIO)      4 00005044 00000001     V   36545 35946
 =V(DSALLO)
               4 00000958 00000001     V   13764 13404
 =V(FPOST)
               4 000017F8 00000001     V   19070 14193  14447
 =V(FPOST)
               4 00003FC8 00000001     V   31600 28529  31481
 =V(FPOST)
               4 000041D0 00000001     V   32068 32013
 =V(FPOST)
               4 0000500C 00000001     V   36531 32415  32549  32678  32793  32932
 =V(FPOST)
               4 00005AC8 00000001     V   40141 38142  40089
 =V(FPOST)
               4 000083E0 00000001     V   53528 52813
 =V(FWAIT)
               4 000017FC 00000001     V   19071 14224  14479
 =V(FWAIT)
               4 00003FE4 00000001     V   31607 28852  31186
 =V(FWAIT)
               4 00005AFC 00000001     V   40154 39909
 =V(INITDEV)
               4 00005AF8 00000001     V   40153 39780
 =V(IOSTINIT)
               4 00003FCC 00000001     V   31601 28646
 =V(IPLTEXT)
               4 00005AC0 00000001     V   40139 37870
 =V(LOCKCRE)
1GSTINTF  (GSTI00) (09:40) (22MAR04) Ordinary Symbol and Literal Cross Reference                                            Page  359
               4 00000960 00000001     V   13766 13576
 =V(LOCKOB)
               4 000041C4 00000001     V   32065 31796
 =V(LOCKREL)
               4 000041CC 00000001     V   32067 31974
 =V(MEMFREE)
               4 0000090C 00000001     V   13755 11803  13645
 =V(MEMFREE)
               4 0000688C 00000001     V   44307 41860  43260
 =V(MEMFREE)
               4 000072C4 00000001     V   47393 45430  45468  46674  46721
 =V(MEMFREE)
               4 000081CC 00000001     V   52687 49394  49435  50428  50864  52467
 =V(MEMGET)
               4 000008E0 00000001     V   13744 10818  12801
 =V(MEMGET)
               4 00006888 00000001     V   44306 41755  43047
 =V(MEMGET)
               4 000072B8 00000001     V   47390 44932  45073  45976  46386
 =V(MEMGET)
               4 000081A8 00000001     V   52678 47948  48036  50210  50625  52337
 =V(MVSENQ)
               4 00006898 00000001     V   44310 44224
 =V(PAGEFIX)
               4 00003FD8 00000001     V   31604 28680
 =V(PAGEFIX)
               4 00005030 00000001     V   36540 33219  34704
 =V(PAGEFIX)
               4 00005AF0 00000001     V   40151 39418
 =V(PAGEFREE)
               4 0000502C 00000001     V   36539 33210  34695
 =V(PAGEFREE)
               4 00005AF4 00000001     V   40152 39632
 =V(PARMDO)
               4 000008E4 00000001     V   13745 10882  11011  11130  11295  11410  12609  12728  12938  13084  13222
                                                 13355
 =V(PARMDO)
               4 000072BC 00000001     V   47391 45181  46437
 =V(POOLFREE)
               4 0000091C 00000001     V   13759 12004  12044
 =V(POOLFREE)
               4 00001804 00000001     V   19073 14715  14798  14843  14876
 =V(POOLFREE)
               4 00005AEC 00000001     V   40150 39197
 =V(POOLGET)
               4 000008D8 00000001     V   13742 10755  11477  11520  11955  12201  13494
 =V(POOLGET)
               4 00003FE0 00000001     V   31606 28734
 =V(POOLGET)
               4 00005AD8 00000001     V   40145 38447
 =V(SEG)       4 0000182C 00000001     V   19075 15122  15160  15235  15299  15428  15470  15524  15643  15697  15816
                                                 15870  15989  16043  16162  16200  16261  16406  16444  16482  16520
                                                 16606  16745  16783  16821  16876  16972  17010  17082  17216  17292
                                                 17350  17469  17507  17647  17685  17742  17838  17974  18028  18066
                                                 18201  18239  18321  18359  18456  18575  18613  18726  18764  18802
                                                 18918  18956  18994
 =V(SEG)       4 000023EC 00000001     V   23436 19356  19495  19549  19688  19742  19881  19935  19973  20084  20289
                                                 20428  20482  20520  20558  20705  20844  20898  20952  21092  21161
                                                 21230  21330  21441  21661  21800  21854  21892  21930  22159  22228
1GSTINTF  (GSTI00) (09:40) (22MAR04) Ordinary Symbol and Literal Cross Reference                                            Page  360
                                                 22344  22484  22552  22622  22680  22793  22905  23002  23133  23248
                                                 23286  23324  23362  23400
 =V(SEG)       4 00002860 00000001     V   24982 23629  23667  23721  23835  23949  24063  24101  24139  24223  24534
                                                 24763  24833  24871  24909  24947
 =V(SEG)       4 00003220 00000001     V   28320 25157  25276  25314  25512  25572  25626  25778  25888  25971  26033
                                                 26129  26209  26271  26367  26447  26509  26605  26694  26765  26938
                                                 27084  27154  27314  27368  27480  27538  27663  27717  27837  27887
                                                 27936  27990  28087  28133  28171  28225  28263
 =V(SEG)       4 000081B0 00000001     V   52680 48233  48369  48419  48552  48704  48770  48923  48996  49082  49290
                                                 49340  49739
 =V(SEGCOL)
               4 00002864 00000001     V   24983 23771  23885  23999  24334  24458  24651
 =V(SEGCORE)
               4 0000183C 00000001     V   19079 16358  17599  17926  18153
 =V(SEGCORE)
               4 000023F4 00000001     V   23438 20036  21393  23085
 =V(SEGCORE)
               4 000081C8 00000001     V   52686 49203
 =V(SEGHEX)
               4 00001830 00000001     V   19076 15357  15582  15755  15928  16101  16934  17140  17408  17800  18529
 =V(SEGHEX)
               4 00002430 00000001     V   23443 21288  22286  22738  22851  22963
 =V(SEGHEX)
               4 00002868 00000001     V   24984 24281  24405  24598  24721
 =V(SEGHEX)
               4 00003224 00000001     V   28321 25215  25834  26091  26329  26567  27426  27597  27783  28048
 =V(SEGHEX)
               4 000081B4 00000001     V   52681 48303  48857
 =V(SEGINIT)
               4 000081AC 00000001     V   52679 48155
 =V(SNDPALLO)
               4 000081D8 00000001     V   52690 51705
 =V(SNDPCLS)
               4 000081E4 00000001     V   52693 52616
 =V(SNDPWRT)
               4 000081E0 00000001     V   52692 52406
 =V(SPAWN)
               4 00000908 00000001     V   13754 11734
 =X'B202'      2 00004058 00000001     X   31638 29965
 =X'B204'      2 0000406C 00000001     X   31648 30328
 =X'B210'      2 00004056 00000001     X   31637 29921
 =X'B211'      2 0000405A 00000001     X   31639 30009
 =X'B212'      2 00004054 00000001     X   31636 29877
 =X'B214'      2 0000406E 00000001     X   31649 30361
 =X'B22A'      2 0000404E 00000001     X   31633 29772
 =X'B22B'      2 00004050 00000001     X   31634 29807
 =X'B22C'      2 0000405C 00000001     X   31640 30053
 =X'B221'      2 00004052 00000001     X   31635 29842
 =X'B229'      2 0000404C 00000001     X   31632 29737
 =X'B230'      2 00004062 00000001     X   31643 30163
 =X'B231'      2 00004064 00000001     X   31644 30196
 =X'B232'      2 00004066 00000001     X   31645 30229
 =X'B233'      2 00004048 00000001     X   31630 29559
 =X'B234'      2 0000405E 00000001     X   31641 30097
 =X'B235'      2 00004060 00000001     X   31642 30130
 =X'B236'      2 0000404A 00000001     X   31631 29639
 =X'B237'      2 0000406A 00000001     X   31647 30295
 =X'B238'      2 00004068 00000001     X   31646 30262
 =X'FFF'       2 000081EC 00000001     X   52696 51125
1GSTINTF  (GSTI00) (09:40) (22MAR04) Ordinary Symbol and Literal Cross Reference                                            Page  361
 =X'FFFF'      2 00005048 00000001     X   36546 33232  34717
 =X'FFFFFFFF'
               4 000008FC 00000001     X   13751 11647
 =X'FFFF0000'
               4 00000910 00000001     X   13756 11919  11962
 =X'00FFFFFF'
               4 000041C8 00000001     X   32066 31884
 =X'0000FFFF'
               4 00005000 00000001     X   36528 32193
 =X'00000FFF'
               4 00005338 00000001     X   37778 37738
 =X'00000FFF'
               4 000081A4 00000001     X   52677 47715
 =X'0000000E'
               4 00005018 00000001     X   36534 33057
 =X'0000000F'
               4 000023F8 00000001     X   23439 20163
 =X'0000000F'
               4 00003248 00000001     X   28330 26711
 =X'0000000F'
               4 00004FF8 00000001     X   36526 32175  33291  35331
 =X'0000000F'
               4 00005330 00000001     X   37776 37529
 =X'0000000F'
               4 00005ACC 00000001     X   40142 38296  38514  38542  38841  38864  39318  39526  39739  40014
 =X'0000000F'
               4 00006868 00000001     X   44298 40271  40368  40858  40885  41088  41264  42045  42514  42713  42737
                                                 43455  43631
 =X'0000000F'
               4 000072A0 00000001     X   47384 44431  44528  45596  45694  46915  47145
 =X'0000000F'
               4 0000819C 00000001     X   52675 47696  49889  49983  50372  50979  51104  51479  51727  51931  52107
                                                 52577
 =X'0000000F'
               4 000083E4 00000001     X   53529 52921  52962
 =X'0000007F'
               4 000023E4 00000001     X   23434 19233
 =X'0000007F'
               4 00005328 00000001     X   37774 37402
 =X'00001000'
               4 00002434 00000001     X   23444 23150
 =X'00001000'
               4 000083F4 00000001     X   53533 52987
 =X'00008000'
               4 000081B8 00000001     X   52682 48439
 =X'00100000'
               4 00002438 00000001     X   23445 23177
 =X'01'        1 000068A0 00000001     X   44313 40287  40384  41104  41280  43471  43647
 =X'01'        1 000072D6 00000001     X   47399 44447  44544  45612  45710
 =X'01'        1 00008200 00000001     X   52702 51947
 =X'07'        1 000068A1 00000001     X   44314 42078
 =X'30000000'
               4 000072C0 00000001     X   47392 45186  46442
 =X'7FFFFFC0'
               4 00005334 00000001     X   37777 37560
 =X'7FFFFFFC'
               4 0000322C 00000001     X   28323 25320
 =X'7FFFFFFF'
               4 00008188 00000001     X   52670 47495
1GSTINTF  (GSTI00) (09:40) (22MAR04) Ordinary Symbol and Literal Cross Reference                                            Page  362
 =X'7FFFF000'
               4 000023E0 00000001     X   23433 19232  19242  20167  20173  21537  21544
 =X'7FFFF000'
               4 00003230 00000001     X   28324 25326  25379
 =X'7FFFF000'
               4 0000501C 00000001     X   36535 33076  35593  35727  36269
 =X'7FFFF000'
               4 00005320 00000001     X   37772 37287  37433  37439  37566  37676  37682
 =X'7FFFF000'
               4 00005AE0 00000001     X   40147 38887  38965  39341  39549
 =X'7FFFF000'
               4 00006878 00000001     X   44302 40664  41558  42852  43742  43909
 =X'7FFFF000'
               4 000072AC 00000001     X   47387 44653  44980  45329  45810  46029  46145  46551
 =X'7FFFF000'
               4 00008190 00000001     X   52672 47510  47762  50016  52143
 =X'7FFFF000'
               4 000083F0 00000001     X   53532 52985  52986
 =X'7FFFF800'
               4 00005AE8 00000001     X   40149 39018
 =X'80000000'
               4 00000924 00000001     X   13761 12260
 =XL8'4E00000000000000'
               8 000008A0 00000001     X   13735 12744  12748
 =Y(L'CPUB)
               2 00000964 00000001     Y   13767 12163  12305
 =Y(L'CPUB)
               2 000018A0 00000001     Y   19092 14669
 =Y(L'GSTCNOTI)
               2 00008400 00000001     Y   53536 53045
 =Y(MINMEG*256)
               2 000072D4 00000001     Y   47398 46899  46901
 =Y(X'1201')
               2 00004072 00000001     Y   31651 30672
 =Y(X'1202')
               2 00004074 00000001     Y   31652 30821
 =Y(0)         2 00004076 00000001     Y   31653 31269
 =Y(1)         2 00004070 00000001     Y   31650 30413
 =Y(2)         2 00004044 00000001     Y   31628 29376
 =Y(4)         2 00004046 00000001     Y   31629 29377  29744  29779  29814  29849  30414
 =Y(4)         2 0000504A 00000001     Y   36547 33610  33676  33743  33804  33805  34087  34153  34220  34281  34282
                                                 34567  34641  34970  35036  35103  35164  35165  35394  35692  35823
                                                 36368
 =Y(4)         2 0000689E 00000001     Y   44312 40327  40424  40751  40818  41144  41241  41320  41644  42118  42215
                                                 42818  42938  43511  43608  43687  43828  43988
 =Y(4)         2 000072D2 00000001     Y   47397 44487  44584  44739  44823  45269  45652  45750  45896  46224  46291
 =Y(4)         2 000081E8 00000001     Y   52694 47596  47841  50102  51172  51269  51336  51987  52084  52229
 =Y(4096)      2 00002472 00000001     Y   23453 23047
 =Y(4096)      2 0000288E 00000001     Y   24986 24765
 =Y(5)         2 0000504C 00000001     Y   36548 33742  34219  34640  35102  35393  35691  35822  36367
 =Y(6)         2 0000689C 00000001     Y   44311 40326  40423  41143  41240  41319  41806  42117  42817  43510  43607
                                                 43686
 =Y(6)         2 000072D0 00000001     Y   47396 44486  44583  45651  45749
 =Y(6)         2 000081EE 00000001     Y   52697 51171  51986  52083

1GSTINTF  (GSTI00) (09:40) (22MAR04) Macro and Copy Code Source Summary                                                     Page  363
- Con Source                                        Volume    Members                        HLASM R4.0  2004/03/22 09.40
0     PRIMARY INPUT                                           CSECT    DROP     END      EX       EXINT    GETICAD  GRA
                                                              LREGA    LTORG    PIINT    POP      PRINT    PUSH
                                                              RSINT    START    USING
   L2 WYL.GG.ORV.MACLIB                             SYSB02    $LKPARM  ACALL    BTD      BTX      CANPARM  CONVPARM
                                                              CPTPARM  DSALPARM FIXPARM  FPOST    FUNCPARM FWAIT
                                                              GSTCT    GSTIPARM HEADER   IORPARM  KAPUT    LCALL
                                                              LOCKCRE  LOCKOB   LOCKPARM LOCKRL   MEMFREE  MEMGET
                                                              MEMPARM  MODULE   MOVSTR   MSGPARM  MVSPARM  PARMPARM PEND
                                                              PMOV     POOLFREE POOLGET  POOLPARM POSTPARM PROC     PSET
                                                              PZERO    REG      REGCH    SBTPARM  SEG      SEGB
                                                              SEGCBD   SEGCOL   SEGCORE  SEGDEF   SEGEOB   SEGEOR
                                                              SEGHEX   SEGINIT  SEGLD    SEGPARM  SIEDATA  SPLEVEL
                                                              SPNPARM  TRCEPARM VCALL    WAITPARM
   L3 WYL.GG.SYS.MACLIB                             SYSB05    $BC      $BFLKUP  $BV      $CCLKUP  $CRS     $CSS     $L
                                                              $LA      $LBLAD   $LEXP    $LOR     $NIL     $OIL     $REL
                                                              $RGLKUP  $USLKUP  AUSING   BEGIN    CEIL     CLEAR
                                                              CSECT    DATA     DECR     DEFCC    DEX      DROP     ELSE
                                                              ELSEIF   END      EX       EXIT     FLAG     FLOOR    GEN
                                                              HIBAL    IDENT    IF       INCR     LABEL    LC       LCM
                                                              LOOP     LT       LTORG    L3       NEXT     POP
                                                              PRINT    PUSH     RECORD   REGS     SDL      SET
                                                              START    STF      STMAX    UNTIL    USING    WHILE    WITH
   L4 SYS3.MACLIB                                   SYSB02    QSNAP    SCIPCVT  USERCVT
   L5 SYS1.MACLIB                                   MVSBR9    ABEND    BLDL     CLOSE    CVT      DCB      DCBD     DOM
                                                              FIND     IEESMCA  IHAPSA   IHAPSAE  IHARB    IHBINNRA
                                                              IHBINNRR IHBRDWRS IHB01    IKJTCB   MODESET  OPEN     READ
                                                              SMFEWTM  STIMERM  STORAGE  SYSSTATE TIME     WTO
   L6 SYS1.MODGEN                                   MVSBR9    IARRCE   IEZBITS  IEZWPL   IHALPDE  IKJRB

1         (GSTI00) (09:40) (22MAR04) General Purpose Register Cross Reference                                               Page  364
- Register  References (M=modified, B=branch, U=USING, D=DROP, N=index)                      HLASM R4.0  2004/03/22 09.40
0    0(0)      991U   992D  1344U  2558U  2559D 10696  10744M 10745  10757  10804M 10805  10820  10893M 10893  10915
             10917  10952M 10957  10969M 10974  10986M 10991  11003M 11008  11022M 11022  11071M 11076  11088M 11093
             11105M 11110  11122M 11127  11141M 11141  11236M 11241  11253M 11258  11270M 11275  11287M 11292  11306M
             11306  11351M 11356  11368M 11373  11385M 11390  11402M 11407  11421M 11421  11479  11502M 11503  11522
             11736  11791M 11792  11808M 11883  11957  11961M 11962M 11963  11964M 11965  12113  12203  12448  12539M
             12544  12556M 12561  12573M 12578  12590M 12595  12624M 12624  12663M 12668  12680M 12685  12697M 12702
             12714M 12719  12738M 12738  12787M 12788  12803  12873M 12878  12890M 12895  12907M 12912  12924M 12929
             12948M 12948  13019M 13024  13036M 13041  13053M 13058  13070M 13075  13094M 13094  13157M 13162  13174M
             13179  13191M 13196  13208M 13213  13232M 13232  13289M 13294  13306M 13311  13323M 13328  13340M 13345
             13365M 13365  13416  13483M 13484  13496  13497  13519M 13520  13578  13633M 13634  13813  13937M 13942
             14014M 14019  14031M 14036  14055M 14060  14072M 14077  14096M 14101  14113M 14118  14146M 14147M 14149
             14318  14395M 14401  14543  14697M 14698  14755M 14756  14786M 14787  14824M 14825  14829M 14830  14864M
             14865  14929  15005  15084M 15089  15101M 15106  15197M 15202  15214M 15219  15267M 15272  15284M 15289
             15325M 15330  15342M 15347  15396M 15401  15413M 15418  15492M 15497  15509M 15514  15550M 15555  15567M
             15572  15605M 15610  15622M 15627  15665M 15670  15682M 15687  15723M 15728  15740M 15745  15778M 15783
             15795M 15800  15838M 15843  15855M 15860  15896M 15901  15913M 15918  15951M 15956  15968M 15973  16011M
             16016  16028M 16033  16069M 16074  16086M 16091  16124M 16129  16141M 16146  16223M 16228  16240M 16245
             16308M 16313  16574M 16579  16591M 16596  16652M 16657  16669M 16674  16713M 16718  16730M 16735  16844M
             16849  16861M 16866  16902M 16907  16919M 16924  17050M 17055  17067M 17072  17108M 17113  17125M 17130
             17178M 17183  17195M 17200  17254M 17259  17271M 17276  17318M 17323  17335M 17340  17376M 17381  17393M
             17398  17431M 17436  17448M 17453  17555M 17560  17710M 17715  17727M 17732  17768M 17773  17785M 17790
             17882M 17887  17996M 18001  18013M 18018  18109M 18114  18424M 18429  18441M 18446  18497M 18502  18514M
             18519  18694M 18699  18711M 18716  18886M 18891  18903M 18908  19165  19242M 19243M 19281  19324M 19329
             19341M 19346  19402M 19407  19419M 19424  19463M 19468  19480M 19485  19517M 19522  19534M 19539  19595M
             19600  19612M 19617  19656M 19661  19673M 19678  19710M 19715  19727M 19732  19788M 19793  19805M 19810
             19849M 19854  19866M 19871  19903M 19908  19920M 19925  20173M 20174M 20212  20257M 20262  20274M 20279
             20335M 20340  20352M 20357  20396M 20401  20413M 20418  20450M 20455  20467M 20472  20673M 20678  20690M
             20695  20751M 20756  20768M 20773  20812M 20817  20829M 20834  20866M 20871  20883M 20888  20920M 20925
             20937M 20942  20999M 21004  21016M 21021  21060M 21065  21077M 21082  21129M 21134  21146M 21151  21198M
             21203  21215M 21220  21256M 21261  21273M 21278  21544M 21545M 21583  21629M 21634  21646M 21651  21707M
             21712  21724M 21729  21768M 21773  21785M 21790  21822M 21827  21839M 21844  21980M 21981M 21981  22038M
             22060M 22060  22127M 22132  22144M 22149  22196M 22201  22213M 22218  22254M 22259  22271M 22276  22312M
             22317  22329M 22334  22391M 22396  22408M 22413  22452M 22457  22469M 22474  22520M 22525  22537M 22542
             22590M 22595  22607M 22612  22648M 22653  22665M 22670  22706M 22711  22723M 22728  22761M 22766  22778M
             22783  22819M 22824  22836M 22841  22873M 22878  22890M 22895  22931M 22936  22948M 22953  23047M 23052
             23210M 23215  23227M 23232  23506  23591M 23596  23608M 23613  23689M 23694  23706M 23711  23756M 23761
             23803M 23808  23820M 23825  23870M 23875  23917M 23922  23934M 23939  23984M 23989  24031M 24036  24048M
             24053  24191M 24196  24208M 24213  24249M 24254  24266M 24271  24319M 24324  24373M 24378  24390M 24395
             24443M 24448  24502M 24507  24519M 24524  24566M 24571  24583M 24588  24636M 24641  24689M 24694  24706M
             24711  24795M 24800  24812M 24817  25037  25125M 25130  25142M 25147  25183M 25188  25200M 25205  25238M
             25243  25255M 25260  25326M 25327M 25365  25480M 25485  25497M 25502  25594M 25599  25611M 25616  25679
             25740M 25745  25757M 25762  25819M 25824  25856M 25861  25873M 25878  26001M 26006  26018M 26023  26059M
             26064  26076M 26081  26239M 26244  26256M 26261  26297M 26302  26314M 26319  26477M 26482  26494M 26499
             26535M 26540  26552M 26557  26733M 26738  26750M 26755  26845  26900M 26905  26917M 26922  26984M 26989
             27001M 27006  27046M 27051  27063M 27068  27122M 27127  27139M 27144  27214M 27219  27231M 27236  27276M
             27281  27293M 27298  27336M 27341  27353M 27358  27394M 27399  27411M 27416  27448M 27453  27465M 27470
             27506M 27511  27523M 27528  27565M 27570  27582M 27587  27685M 27690  27702M 27707  27751M 27756  27768M
             27773  27805M 27810  27822M 27827  27958M 27963  27975M 27980  28016M 28021  28033M 28038  28193M 28198
             28210M 28215  28369  28495M 28496M 28498  28595  28682M 28723M 28724  28736  28797M 28798M 28894M 28900
             28934  28950M 28953  29192M 29230M 29253M 29321M 29322M 29323  30534M 30535M 30536  30592M 30593M 30595
             30621M 30622M 30663M 30669  30760M 30761M 30763  30812M 30818  30873M 30879  30946M 30947M 30949  30976
             31094M 31094  31109M 31110M 31112  31149M 31150M 31151  31260M 31266  31302M 31303M 31304  31365M 31370
             31382M 31387  31535M 31536M 31538  31559M 31560M 31561  31679  31721M 31722M 31723  31792M 31793  31828U
             31836U 31837D 31935M 31936  31937M 31938  31939M 31940  31970M 31971  32033M 32034M 32040M 32111  32347M
             32390M 32391M 32393  32507M 32508M 32510  32524M 32525M 32527  32633M 32634M 32636  32650M 32651M 32653
1         (GSTI00) (09:40) (22MAR04) General Purpose Register Cross Reference                                               Page  365
             32747M 32765M 32766M 32768  32904M 32905M 32907  32984M 32984  33001M 33022M 33109M 33109  33110M 33143M
             33169M 33221M 33277M 33277  33308  33407  33576  33608  33643M 33643  33675  33884  34053  34085  34120M
             34120  34152  34361  34530  34565  34706M 34767  34936  34968  35003M 35003  35035  35244  35460  35593M
             35594M 35632  35727M 35728M 35766  35866  36000  36112  36269M 36270M 36308  36411  36591  36709M 36717M
             36728M 36728  36734M 36809  36928M 36995  37089M 37166  37287M 37288M 37326  37422M 37439M 37440M 37478
             37515M 37549M 37566M 37567M 37605  37642M 37682M 37683M 37721  37741M 37823  37921  37974M 38096M 38097M
             38099  38110M 38111M 38113  38180M 38181M 38182  38240  38363  38436M 38437  38449  38450  38484M 38485
             38494M 38501M 38505M 38685  38763M 38764  38765M 38766  38795M 38796  38797M 38798  38887M 38888M 38926
             38965M 38966M 39004  39086  39154M 39155  39185M 39186  39267  39341M 39342M 39380  39475  39549M 39550M
             39588  39688  39782  39834  39963  40215  40717  40749  40784M 40784  40816  41032  41610  41642  41741M
             41742  41757  41848M 41849  41975  42181  42213  42388  42465M 42465  42491  42657  42904  42936  43036M
             43037  43049  43077  43255M 43256  43399  43794  43826  43954  43986  44238M 44238  44375  44705  44737
             44789M 44789  44821  44914M 44915  44934  45055M 45056  45075  45163M 45164  45165  45184M 45184  45213M
             45213  45411M 45412  45416M 45417  45449M 45450  45454M 45455  45540  45862  45894  45958M 45959  45978
             46190  46222  46257M 46257  46289  46368M 46369  46388  46440M 46440  46469M 46469  46655M 46656  46660M
             46661  46702M 46703  46707M 46708  46780  47062  47137  47139M 47162  47216  47244M 47426  47562  47594
             47807  47839  47937M 47938  47950  48022M 48023  48038  48039  48094M 48099  48111M 48116  48128M 48133
             48147M 48152  48189M 48194  48206M 48211  48225M 48230  48259M 48264  48276M 48281  48295M 48300  48325M
             48330  48342M 48347  48361M 48366  48405M 48410  48508M 48513  48525M 48530  48544M 48549  48598M 48603
             48615M 48620  48660M 48665  48677M 48682  48696M 48701  48726M 48731  48743M 48748  48762M 48767  48813M
             48818  48830M 48835  48849M 48854  48879M 48884  48896M 48901  48915M 48920  48982M 48987  49068M 49073
             49195M 49200  49282M 49287  49326M 49331  49378M 49379  49383M 49384  49430M 49431  49496  49702M 49707
             49719M 49724  49833  50068  50100  50199M 50200  50212  50389  50423M 50424  50507  50627  50628  50855M
             50856  50860M 50861  50866M 50928  51001M 51053  51235  51267  51302M 51302  51334  51409  51548  51585M
             51586M 51587  51636  51716M 51716  51875  52195  52227  52326M 52327  52339  52419M 52419  52462M 52463
             52521  52627M 52627  52726  52870  53099  53161M 53162M 53162  53233  53252  53418M
     1(1)      987U 10696  10872M 10873  10874M 10875  10876M 10877  10878M 10879  11013M 11028M 11031  11033M 11038M
             11039  11132M 11147M 11150  11152M 11181M 11182  11297M 11313M 11318  11412M 11428M 11433M 11434  11626M
             11636U 11654U 11723M 11724M 11828M 11883  12063M 12113  12251M 12252  12255M 12256M 12257  12259M 12260M
             12261  12274M 12275  12276M 12278M 12279  12284M 12285M 12285  12298M 12303  12338M 12448  12955M 12958M
             12960  13101M 13104M 13106  13239M 13242M 13244  13424M 13511M 13517M 13518N 13520N 13521N 13666M 13813
             14144M 14145M 14147  14272M 14318  14511M 14543  14753M 14754N 14756N 14757N 14897M 14929  14957M 15005
             19050M 19165  20160M 20322  20954M 20986  21948M 21949M 22009  22023  22081  22378  23146M 23147M 23148
             23149M 23150M 23151  23173M 23174M 23175  23176M 23177M 23178  23421M 23506  24653M 24654  24968M 25037
             25690M 26621D 26623M 26623  26624M 26625U 26626M 26638  28284M 28369  28493M 28494M 28496  28565M 28595
             28785M 28786  28786  28787  28788  28790  28792  28794  28796  28879M 28889U 28912U 28917M 28917  28918
             28934  28950M 28953  28973M 28991  29010  29021  29045  29085M 29096  29109  29135  29253M 29271D 29273M
             29273  29274M 29275U 29287  29296N 29320M 29323M 29352M 29362U 29387U 29428M 29429M 29430  29431M 29440M
             29440  29451  29454M 29456M 29458M 29459M 29459N 29462M 29462  29469M 29485M 29490M 29502  29531N 29743M
             29744M 29745  29778M 29779M 29780  29813M 29814M 29815  29848M 29849M 29850  30389M 30399U 30424U 30476M
             30486U 30511U 30533M 30536M 30573M 30583M 30593  30600M 30601M 30601  30622  30648M 30658U 30683U 30689M
             30696  30698M 30758M 30759M 30761  30797M 30807U 30832U 30840M 30840  30841  30858M 30868U 30892U 30927M
             30937M 30947  31008M 31018U 31047U 31107M 31108M 31110  31148M 31151M 31245M 31255U 31279U 31301M 31304M
             31516M 31526M 31536  31558M 31561M 31587M 31679  31720M 31723M 31920M 31930U 31947U 32021M 32022  32022
             32023  32024  32026  32028  32030  32032  32040M 32111  32239M 32240M 32241  32242M 32251M 32251  32262
             32265M 32267M 32269M 32270M 32270N 32273M 32273  32280M 32296M 32302M 32314  32323N 32388M 32389M 32391
             32488M 32498M 32508  32522M 32523M 32525  32576M 32606  32631M 32632M 32634  32648M 32649M 32651  32705M
             32735  32763M 32764M 32766  32819M 32821M 32848  32871  32902M 32903M 32905  33006M 33015M 33015  33055M
             33056M 33057M 33058M 33064  33067M 33069M 33071M 33072M 33072N 33075M 33076M 33163  33178  33179M 33181
             33239M 33239  33240  33289M 33290M 33291M 33297  33300M 33302M 33304M 33305M 33305N 33369M 33407  33472M
             33473M 33474  33475M 33484M 33484  33495  33498M 33500M 33502M 33503M 33503N 33506M 33506  33513M 33529M
             33553  33584M 33594U 33623U 33651M 33661U 33686U 33718M 33728U 33753U 33765M 33780M 33790U 33815U 33854M
             33884  33949M 33950M 33951  33952M 33961M 33961  33972  33975M 33977M 33979M 33980M 33980N 33983M 33983
             33990M 34006M 34030  34061M 34071U 34100U 34128M 34138U 34163U 34195M 34205U 34230U 34242M 34257M 34267U
             34292U 34331M 34361  34426M 34427M 34428  34429M 34438M 34438  34449  34452M 34454M 34456M 34457M 34457N
             34460M 34460  34467M 34483M 34507  34541M 34551U 34580U 34592M 34593M 34608  34616M 34626U 34651U 34664
             34665M 34666  34737M 34767  34832M 34833M 34834  34835M 34844M 34844  34855  34858M 34860M 34862M 34863M
             34863N 34866M 34866  34873M 34889M 34913  34944M 34954U 34983U 35011M 35021U 35046U 35078M 35088U 35113U
             35125M 35140M 35150U 35175U 35214M 35244  35369M 35379U 35404U 35433M 35460  35667M 35677U 35702U 35798M
1         (GSTI00) (09:40) (22MAR04) General Purpose Register Cross Reference                                               Page  366
             35808U 35833U 35890M 35891  35894M 35896M 35898M 35899M 35899N 35977M 35987U 36037U 36082M 36112  36343M
             36353U 36378U 36513M 36591  36734  36735  36782M 36809  36948M 36995  37114M 37166  37281M 37288  37301M
             37333M 37338M 37401M 37402M 37405M 37406M 37416  37528M 37529M 37532M 37533M 37543  37737M 37738M 37739M
             37740  37761M 37823  37893M 37921  37970M 37971  37971  37972  37973  37974  37975M 38077M 38087M 38097
             38108M 38109M 38111  38179M 38182M 38208M 38240  38294M 38295M 38296M 38302  38305M 38307M 38309M 38310M
             38310N 38333M 38363  38467M 38471M 38472  38473M 38474  38482M 38483N 38485N 38486N 38493M 38495M 38495N
             38500M 38502M 38502  38507M 38507  38512M 38513M 38514M 38520  38523M 38525M 38527M 38528M 38528N 38541M
             38542M 38548  38551M 38553M 38555M 38556M 38556N 38590M 38685  38748M 38758U 38773U 38780M 38790U 38805U
             38840M 38841M 38847  38850M 38852M 38854M 38855M 38855N 38862M 38863M 38864M 38870  38873M 38875M 38877M
             38878M 38878N 38881M 38888  38901M 38933M 38938M 39027M 39057M 39086  39152M 39153N 39155N 39156N 39230M
             39267  39316M 39317M 39318M 39324  39327M 39329M 39331M 39332M 39332N 39335M 39342  39355M 39387M 39392M
             39414  39439M 39475  39524M 39525M 39526M 39532  39535M 39537M 39539M 39540M 39540N 39543M 39550  39563M
             39595M 39600M 39622  39653M 39688  39737M 39738M 39739M 39745  39748M 39750M 39752M 39753M 39753N 39802M
             39834  39930M 39963  40012M 40013M 40014M 40020  40023M 40025M 40027M 40028M 40028N 40031M 40049M 40050N
             40126M 40215  40269M 40270M 40271M 40280  40302M 40312U 40337U 40351  40354M 40356M 40358M 40359M 40359N
             40367M 40368M 40377  40399M 40409U 40434U 40448  40451M 40453M 40455M 40456M 40456N 40524M 40654M 40655M
             40655  40725M 40735U 40764U 40792M 40802U 40828U 40844M 40849  40856M 40857M 40858M 40864  40867M 40869M
             40871M 40872M 40872N 40884M 40885M 40891  40894M 40896M 40898M 40899M 40899N 40936M 41032  41086M 41087M
             41088M 41097  41119M 41129U 41154U 41168  41171M 41173M 41175M 41176M 41176N 41216M 41226U 41251U 41263M
             41264M 41273  41295M 41305U 41330U 41344  41347M 41349M 41351M 41352M 41352N 41425M 41618M 41628U 41657U
             41669M 41670  41762M 41791M 41818M 41882M 41975  42043M 42044M 42045M 42051  42054M 42056M 42058M 42059M
             42059N 42093M 42103U 42128U 42189M 42199U 42228U 42240M 42246M 42258  42461M 42512M 42513M 42514M 42520
             42523M 42525M 42527M 42528M 42528N 42551M 42657  42711M 42712M 42713M 42719  42722M 42724M 42726M 42727M
             42727N 42736M 42737M 42743  42746M 42748M 42750M 42751M 42751N 42793M 42803U 42828U 42912M 42922U 42951U
             42963M 42964  43005M 43006M 43066M 43067  43074M 43076  43134M 43163M 43224M 43225M 43286M 43399  43453M
             43454M 43455M 43464  43486M 43496U 43521U 43535  43538M 43540M 43542M 43543M 43543N 43583M 43593U 43618U
             43630M 43631M 43640  43662M 43672U 43697U 43711  43714M 43716M 43718M 43719M 43719N 43802M 43812U 43841U
             43853M 43854  43962M 43972U 44001U 44013M 44014  44077M 44106M 44127M 44156M 44165M 44166  44244M 44245M
             44247  44285M 44375  44429M 44430M 44431M 44440  44462M 44472U 44497U 44511  44514M 44516M 44518M 44519M
             44519N 44527M 44528M 44537  44559M 44569U 44594U 44608  44611M 44613M 44615M 44616M 44616N 44713M 44723U
             44752U 44797M 44807U 44833U 44939M 44985  44987  44989M 45018M 45018  45185M 45186M 45187M 45189  45223M
             45269M 45270  45334  45336  45338M 45368M 45368  45489M 45540  45594M 45595M 45596M 45605  45627M 45637U
             45662U 45676  45679M 45681M 45683M 45684M 45684N 45687  45693M 45694M 45703  45725M 45735U 45760U 45774
             45777M 45779M 45781M 45782M 45782N 45785  45870M 45880U 45909U 45988M 46034  46036  46038M 46067M 46067
             46198M 46208U 46237U 46265M 46275U 46301U 46441M 46442M 46443M 46445  46509M 46511  46556  46558  46560M
             46590M 46590  46742M 46780  46913M 46914M 46915M 46916  46922  46925M 46927M 46929M 46930M 46930N 46935M
             46947  46957M 46957  46967  46970M 46972M 46974M 46975M 46975N 47032M 47062  47143M 47144M 47145M 47151
             47154M 47156M 47158M 47159M 47159N 47187M 47216  47254M 47426  47570M 47580U 47609U 47694M 47695M 47696M
             47702  47705M 47707M 47709M 47710M 47710N 47714M 47715M 47716  47815M 47825U 47854U 47866M 47867  47955M
             47984M 48157M 48158  48777M 48778  48781M 48783M 48785M 48786M 48786N 49122M 49123M 49123  49125M 49168
             49396M 49405M 49405  49432  49465M 49496  49765M 49833  49887M 49888M 49889M 49890  49896  49899M 49901M
             49903M 49904M 49904N 49912M 49915M 49927  49937M 49937  49947  49950M 49952M 49954M 49955M 49955N 49982M
             49983M 49989  49992M 49994M 49996M 49997M 49997N 50076M 50086U 50115U 50127M 50128  50169M 50217M 50246M
             50371M 50372M 50378  50381M 50383M 50385M 50386M 50386N 50393M 50449M 50507  50547M 50556M 50556  50567
             50579M 50588  50590  50591M 50594  50615  50653M 50654M 50655  50822M 50824  50894M 50928  50977M 50978M
             50979M 50985  50988M 50990M 50992M 50993M 50993N 50996M 51022M 51053  51102M 51103M 51104M 51110  51113M
             51115M 51117M 51118M 51118N 51125M 51126M 51127M 51139  51147M 51157U 51182U 51243M 51253U 51282U 51310M
             51320U 51346U 51358M 51379M 51409  51477M 51478M 51479M 51480  51486  51489M 51491M 51493M 51494M 51494N
             51522M 51548  51584M 51587M 51603M 51636  51725M 51726M 51727M 51733  51736M 51738M 51740M 51741M 51741N
             51785M 51875  51929M 51930M 51931M 51940  51962M 51972U 51997U 52011  52014M 52016M 52018M 52019M 52019N
             52059M 52069U 52094U 52106M 52107M 52113  52116M 52118M 52120M 52121M 52121N 52203M 52213U 52242U 52254M
             52255  52344M 52373M 52432M 52488M 52521  52575M 52576M 52577M 52583  52586M 52588M 52590M 52591M 52591N
             52658M 52726  52839M 52870  52919M 52920M 52921M 52927  52930M 52932M 52934M 52935M 52935N 52961M 52962M
             52968  52971M 52973M 52975M 52976M 52976N 53072M 53099  53208M 53233  53356M 53417  53418M 53424U
     2(2)      983U 10696  10884M 10900M 10915  10917M 10918  11438M 11439M 11440  11464  11662M 11662  11676  11682
             11724  11737M 11828M 11883  11918M 11919M 11920  11921M 11942  12013M 12014M 12030  12063M 12113  12162M
             12163M 12184  12243M 12244M 12245N 12338M 12448  13497M 13507U 13584U 13666M 13813  13902M 13943M 13943N
             13965M 13985  14128M 14272M 14318  14395  14398M 14400  14401M 14511M 14543  14592M 14592  14606  14612
             14654M 14668M 14669M 14693  14735M 14745U 14765U 14788  14897M 14929  14957M 15005  16528M 16528  16542
1         (GSTI00) (09:40) (22MAR04) General Purpose Register Cross Reference                                               Page  367
             16548  16639  18363M 18380M 18380  18394  18400  18655M 19050M 19165  19230M 19231  19233M 19234M 19235M
             19236  19582  23184M 23421M 23506  24147M 24147  24161  24170  24336  24765M 24968M 25037  25636M 25637M
             25660  25688M 25690M 26767M 26778  26825  26854M 26864  28284M 28369  28434M 28444  28445M 28471M 28565M
             28595  28864M 28865M 28865  28894  28897M 28899  28900M 28934  28950M 28953  29021M 29022M 29045M 29086M
             29096  29109M 29110M 29175M 29186  29253M 29367  29370M 29372  29373M 29606M 29610M 29611M 29612  30404
             30407M 30409  30410M 30491  30494M 30496  30497M 30619M 30619  30636M 30663  30666M 30668  30669M 30673
             30696M 30697M 30698  30732M 30732  30779M 30780M 30780  30812  30815M 30817  30818M 30822  30873  30876M
             30878  30879M 31028M 31040  31260  31263M 31265  31266M 31587M 31679  32040M 32111  32174M 32175M 32181
             32184M 32186M 32188M 32189M 32189N 32192M 32193M 32208  32218M 32219M 32219N 32373U 32432U 32459U 32566U
             32594U 32696U 32723U 32811U 32839U 32950U 32976U 33043U 33098U 33257U 33369M 33407  33599  33602M 33604
             33605M 33666  33669M 33671  33672M 33733  33736M 33738  33739M 33795  33798M 33800  33801M 33829M 33834
             33854M 33884  34076  34079M 34081  34082M 34143  34146M 34148  34149M 34210  34213M 34215  34216M 34272
             34275M 34277  34278M 34306M 34311  34331M 34361  34556  34559M 34561  34562M 34631  34634M 34636  34637M
             34737M 34767  34959  34962M 34964  34965M 35026  35029M 35031  35032M 35093  35096M 35098  35099M 35155
             35158M 35160  35161M 35189M 35194  35214M 35244  35309M 35325M 35331M 35337  35340M 35342M 35344M 35345M
             35345N 35348M 35349M 35361  35384  35387M 35389  35390M 35433M 35460  35682  35685M 35687  35688M 35716M
             35721  35813  35816M 35818  35819M 35908M 35913  35996M 36003  36082M 36112  36358  36361M 36363  36364M
             36449M 36456  36513M 36591  36640M 36655M 36655  36689M 36709  36782M 36809  36858M 36873M 36873  36908M
             36928  36948M 36995  37059M 37066  37069M 37114M 37166  37394M 37395M 37396M 37416  37494M 37495N 37761M
             37823  37869M 37873M 37893M 37921  37994M 38165M 38208M 38240  38333M 38363  38590M 38685  38812M 38822U
             38835U 38964M 38966  38979M 39011M 39016M 39019  39026M 39057M 39086  39230M 39267  39439M 39475  39653M
             39688  39802M 39834  39930M 39963  40050M 40055U 40126M 40215  40317  40320M 40322  40323M 40414  40417M
             40419  40420M 40566M 40613  40625  40661M 40663  40665  40695  40740  40743M 40745  40746M 40807  40810M
             40812  40813M 40842M 40844  40846M 40848M 40849M 40852  40875M 40876M 40877  40878M 40879M 40880  40902M
             40903M 40904  40908M 40909M 40910  40936M 41032  41134  41137M 41139  41140M 41231  41234M 41236  41237M
             41310  41313M 41315  41316M 41467M 41514  41526  41549M 41549  41633  41636M 41638  41639M 41670N 41671N
             41691M 41700M 41700N 41761M 41771M 41802M 41814  41882M 41975  42062M 42071  42108  42111M 42113  42114M
             42159  42204  42207M 42209  42210M 42245M 42258  42285M 42406M 42407M 42407  42422U 42435U 42551M 42657
             42754M 42755  42808  42811M 42813  42814M 42843M 42843  42927  42930M 42932  42933M 42964N 42965N 42985M
             42994M 42994N 43133M 43143M 43174M 43196  43286M 43399  43501  43504M 43506  43507M 43598  43601M 43603
             43604M 43677  43680M 43682  43683M 43733M 43733  43817  43820M 43822  43823M 43854N 43855N 43875M 43884M
             43884N 43900M 43900  43977  43980M 43982  43983M 44014N 44015N 44035M 44044M 44044N 44076M 44086M 44126M
             44136M 44285M 44375  44477  44480M 44482  44483M 44574  44577M 44579  44580M 44634M 44652  44654  44683
             44728  44731M 44733  44734M 44812  44815M 44817  44818M 44849M 44977M 44978  44981  44995M 44997  44998M
             44999M 45000M 45003  45132M 45164M 45170  45225M 45326M 45327  45330  45345M 45347  45348M 45349M 45350M
             45353  45489M 45540  45642  45645M 45647  45648M 45740  45743M 45745  45746M 45791M 45809  45811  45840
             45885  45888M 45890  45891M 45921M 46026M 46027  46030  46044M 46046  46047M 46048M 46049M 46052  46126M
             46144  46146  46168  46213  46216M 46218  46219M 46280  46283M 46285  46286M 46313M 46510M 46548M 46549
             46552  46567M 46569  46570M 46571M 46572M 46575  46614M 46742M 46780  46892M 46893M 46894  46895M 46896M
             46902M 46903M 46907  46909  46978M 46979M 46983  46985M 46994M 46994  47001M 47002M 47007  47032M 47062
             47187M 47216  47254M 47426  47497M 47585  47588M 47590  47591M 47623M 47753M 47753  47830  47833M 47835
             47836M 47867N 47868N 47888M 47897M 47897N 47954M 47964M 47997M 47998M 47999  48439M 48482  49010M 49465M
             49496  49560M 49570U 49747U 49765M 49833  50007M 50007  50091  50094M 50096  50097M 50128N 50129N 50149M
             50158M 50158N 50216M 50226M 50449M 50507  50647M 50649M 50663U 50824M 50866  50894M 50928  51022M 51053
             51121M 51126  51162  51165M 51167  51168M 51213  51258  51261M 51263  51264M 51325  51328M 51330  51331M
             51379M 51409  51473M 51497  51522M 51548  51603M 51636  51785M 51875  51977  51980M 51982  51983M 52074
             52077M 52079  52080M 52134M 52134  52218  52221M 52223  52224M 52255N 52256N 52276M 52285M 52285N 52343M
             52353M 52431M 52488M 52521  52658M 52726  52839M 52870  52938M 52949  52983  52984M 52984N 52985M 52997
             53046  53072M 53099  53208M 53233  53313M 53331  53356M 53416  53436M
     3(3)      979U 10696  11682M 11683M 11684M 11684N 11694U 11731  11743U 11828M 11883  11965M 11990  12014  12015M
             12016M 12031  12063M 12113  12338M 12448  13416M 13666M 13813  13901M 13956M 14272M 14318  14511M 14543
             14612M 14613M 14614M 14614N 14624U 14660U 14897M 14929  14957M 15005  16548M 16549M 16550M 16550N 17013M
             17023U 17543  18266  18369U 18400M 18401M 18402M 18402N 18467U 18537U 18644  18833M 18834  19050M 19165
             19231M 19232M 19243  19256M 19288M 19293M 19294  19389  20007  20098M 20160  20161M 20162  20163M 20164M
             20165M 20166  23157M 23421M 23506  24336M 24337M 24338  24460M 24541  24653  24968M 25037  26856M 26857M
             26859M 26860M 26861M 26971  27603M 27621  27722M 27722  27840M 28284M 28369  28434M 28443  28445M 28565M
             28595  28934  28950M 28953  29180M 29181M 29182  29253M 29606M 29608M 29612  30620M 30621  30637M 30688M
             30697  31587M 31679  32040M 32111  32605M 32605  32606M 32734M 32734  32735M 32820M 32847M 32848M 32863M
             32870  32872M 33077M 33110  33180M 33206  33369M 33407  33698M 33710  33854M 33884  34175M 34187  34331M
1         (GSTI00) (09:40) (22MAR04) General Purpose Register Cross Reference                                               Page  368
             34361  34663M 34691  34737M 34767  35058M 35070  35214M 35244  35433M 35460  35525M 35526M 35527  35528M
             35537M 35537  35548  35551M 35553M 35555M 35556M 35556N 35559M 35559  35566M 35582M 35594  35607M 35639M
             35644M 35659  36082M 36112  36183M 36184M 36185  36186M 36195M 36195  36206  36209M 36211M 36213M 36214M
             36214N 36217M 36217  36224M 36240M 36246M 36246  36259M 36270  36283M 36315M 36320M 36335  36513M 36591
             36640M 36688  36689M 36733M 36782M 36809  36858M 36907  36908M 36948M 36995  37059M 37068  37069M 37114M
             37166  37396M 37397M 37543  37621M 37622N 37761M 37823  37872M 37873M 37893M 37921  37998M 37998  38012
             38166M 38208M 38240  38289M 38290M 38313  38333M 38363  38535M 38535  38536M 38537  38563M 38563  38564M
             38565  38590M 38685  39017M 39018M 39019M 39023  39025M 39026M 39057M 39086  39230M 39267  39439M 39475
             39653M 39688  39802M 39834  39930M 39963  40126M 40215  40467M 40662M 40663M 40664M 40665M 40669  40671M
             40672  40847  40848M 40936M 41032  41368M 41545M 41563  41565  41673M 41682M 41682  41770M 41771M 41805M
             41806M 41811N 41882M 41975  42310M 42320U 42505U 42551M 42657  42756M 42757  42771M 42771  42785  42857
             42859  42967M 42976M 42976  43142M 43143M 43286M 43399  43729M 43747  43749  43857M 43866M 43866  43896M
             43914  43916  44017M 44026M 44026  44085M 44086M 44135M 44136M 44285M 44375  44634M 44645M 44645  44658
             44660  44850M 44990M 44999M 45133M 45165M 45170  45339M 45349M 45489M 45540  45791M 45802M 45802  45815
             45817  45922M 46039M 46048M 46126M 46137M 46137  46150  46152  46314M 46561M 46571M 46615M 46742M 46780
             46859M 46877U 46883M 46890U 46894M 46895M 46896M 46899  46901M 46907  46909M 46933  46983  46985  47001
             47032M 47062  47187M 47216  47238M 47244  47254M 47426  47498M 47515  47517  47623M 47632M 47632  47745D
             47747M 47747  47748M 47749U 47767  47769  47870M 47879M 47879  47963M 47964M 48443M 48443  48461  48585
             48777  49013M 49465M 49496  49765M 49833  49958M 49961  49973M 49978  50021  50023  50131M 50140M 50140
             50225M 50226M 50449M 50507  50648M 50649M 50894M 50928  51022M 51053  51379M 51409  51522M 51548  51603M
             51636  51785M 51875  52130M 52148  52150  52258M 52267M 52267  52352M 52353M 52488M 52521  52658M 52726
             52839M 52870  52939M 52949  52979M 52983M 52986M 52987M 52997  53047  53072M 53099  53208M 53233  53356M
             53416  53436M
     4(4)      975U 10696  11828M 11883  11957M 11964  11991  12063M 12113  12338M 12448  13666M 13813  14272M 14318
             14511M 14543  14897M 14929  14957M 15005  19050M 19165  20162M 20167M 20174  20187M 20219M 20224M 20575
             20738  21364  23421M 23506  24968M 25037  25378M 25379M 25381M 25401  25807  25893M 26131M 26369M 26607M
             27599M 27839M 28050M 28284M 28369  28435M 28445  28469M 28540M 28565M 28595  28934  28950M 28953  29253M
             31587M 31679  31801M 31811U 31957U 32040M 32111  32870M 32871M 32872  33369M 33407  33854M 33884  34331M
             34361  34737M 34767  35214M 35244  35433M 35460  35718M 35728  35741M 35773M 35778M 35790  36082M 36112
             36513M 36591  36679M 36689  36733M 36782M 36809  36897M 36908  36948M 36995  37041M 37051U 37069  37096U
             37114M 37166  37761M 37823  37870M 37873M 37893M 37921  38018M 38028  38051U 38159U 38208M 38240  38333M
             38363  38590M 38685  38942M 39026M 39057M 39086  39230M 39267  39439M 39475  39653M 39688  39802M 39834
             39930M 39963  40126M 40215  40464M 40466  40480  40633M 40634M 40936M 41032  41365M 41367  41381  41534M
             41535M 41544M 41557  41559  41588  41672M 41757M 41761  41850  41882M 41975  42551M 42657  42730M 42731
             42851  42853  42882  42966M 43049M 43059U 43257  43268U 43286M 43399  43728M 43741  43743  43772  43856M
             43895M 43908  43910  43932  44016M 44285M 44375  44761M 44772  44860M 44875  44934M 44935  44940M 44999M
             45224M 45349M 45489M 45540  45978M 45979  45989M 46048M 46508M 46571M 46742M 46780  47032M 47062  47187M
             47216  47254M 47426  47494M 47495M 47496  47508  47511  47540  47641M 47713M 47716M 47733M 47738M 47739
             47761  47763  47785  47869M 48447M 48447  48927M 48942  49001M 49001  49027M 49027  49465M 49496  49765M
             49833  49907M 50015  50017  50046  50130M 50212M 50216  50276  50425  50449M 50507  50628M 50638U 50881U
             50894M 50928  51022M 51053  51379M 51409  51522M 51548  51603M 51636  51785M 51875  52129M 52142  52144
             52173  52257M 52339M 52343  52379  52401  52464  52488M 52521  52658M 52726  52839M 52870  53072M 53099
             53208M 53233  53310M 53324U 53338U 53356M 53416  53436M
     5(5)      971U 10696  11828M 11883  12063M 12113  12220M 12220  12237  12243  12259  12308M 12338M 12448  12803M
             12813U 13401  13593U 13635  13666M 13813  14130M 14231M 14272M 14318  14511M 14543  14897M 14929  14957M
             15005  19050M 19165  21536M 21537M 21538  21545  21558M 21590M 21595M 22740  23007  23040  23421M 23506
             24968M 25037  25319M 25320M 25327  25340M 25372M 25377M 25378  25401  28284M 28369  28442M 28443M 28445
             28470M 28539M 28565M 28595  28738M 28748U 28934  28950M 28953  28998M 29020M 29044M 29183  29253M 31569U
             31587M 31679  31748M 31758U 32040M 32047U 32111  33369M 33407  33854M 33884  34331M 34361  34737M 34767
             35214M 35244  35433M 35460  36082M 36112  36513M 36591  36688M 36689  36782M 36809  36907M 36908  36948M
             36995  37067M 37068M 37069  37114M 37166  37761M 37823  37871M 37872  37873M 37893M 37921  38208M 38240
             38333M 38363  38590M 38685  38828M 38858  38953M 38953  39023  39025  39026M 39057M 39086  39230M 39267
             39439M 39475  39653M 39688  39802M 39834  39930M 39963  40126M 40215  40465M 40466M 40480  40936M 41032
             41366M 41367M 41381  41556M 41557M 41558M 41559M 41563  41565M 41671  41672  41673  41711M 41809M 41811
             41882M 41975  42551M 42657  42850M 42851M 42852M 42853M 42857  42859M 42965  42966  42967  43176M 43286M
             43399  43740M 43741M 43742M 43743M 43747  43749M 43855  43856  43857  43907M 43908M 43909M 43910M 43914
             43916M 44015  44016  44017  44285M 44375  44622M 44623  44630M 44651M 44652M 44653M 44654M 44658  44660M
             44849N 44850  44857M 44858M 44859  44875  44978M 44979M 44980M 44981M 44985  44987M 44988  44989  44990
             44999M 45075M 45076  45327M 45328M 45329M 45330M 45334  45336M 45337  45338  45339  45349M 45489M 45540
1         (GSTI00) (09:40) (22MAR04) General Purpose Register Cross Reference                                               Page  369
             45808M 45809M 45810M 45811M 45815  45817M 45921N 45922  46027M 46028M 46029M 46030M 46034  46036M 46037
             46038  46039  46048M 46143M 46144M 46145M 46146M 46150  46152M 46313N 46314  46388M 46389  46549M 46550M
             46551M 46552M 46556  46558M 46559  46560  46561  46571M 46742M 46780  46843M 46853U 46866U 47032M 47062
             47187M 47216  47254M 47426  47508M 47509M 47510M 47511M 47515  47517M 47622  47641  47760M 47761M 47762M
             47763M 47767  47769M 47868  47869  47870  49465M 49496  49765M 49833  50014M 50015M 50016M 50017M 50021
             50023M 50129  50130  50131  50449M 50507  50894M 50928  51022M 51053  51379M 51409  51522M 51548  51603M
             51636  51785M 51875  52141M 52142M 52143M 52144M 52148  52150M 52256  52257  52258  52296M 52488M 52521
             52658M 52726  52839M 52870  53072M 53099  53208M 53233  53356M 53416  53436M
     6(6)      967U 10696  10820M 10830U 11793  11815U 11828M 11883  12063M 12113  12145M 12155U 12250  12325U 12338M
             12448  13666M 13813  13964M 13964  13978N 14129M 14272M 14318  14378M 14388U 14488U 14511M 14543  14897M
             14929  14957M 15005  19050M 19165  19213M 19223U 23408U 23421M 23506  23546M 23556U 24955U 24968M 25037
             25084M 25094U 25659  26815  28271U 28284M 28369  28401M 28411U 28435  28552U 28565M 28595  28934  28950M
             28953  29103M 29129M 29153M 29253M 30976M 31003U 31055U 31075  31409M 31419U 31434U 31436M 31446U 31489U
             31587M 31679  31680M 32039  32040M 32111  32157M 32167U 33351U 33369M 33407  33854M 33884  34331M 34361
             34737M 34767  35214M 35244  35433M 35460  35866M 35876U 35938  36022  36064U 36082M 36112  36411M 36440U
             36479  36495U 36513M 36591  36735M 36745U 36764U 36782M 36809  36948M 36995  37114M 37166  37215M 37215
             37253M 37667M 37741  37761M 37823  37855M 37865U 37880U 37893M 37921  37980M 37990U 38190U 38208M 38240
             38333M 38363  38450M 38460U 38572U 38590M 38685  38731M 38741U 39039U 39057M 39086  39132M 39142U 39187
             39212U 39230M 39267  39439M 39475  39653M 39688  39802M 39834  39930M 39963  40035M 40045U 40108U 40126M
             40215  40936M 41032  41882M 41975  42377  42389M 42551M 42657  43286M 43399  44285M 44375  44938M 44969
             44988M 45101M 45111U 45126  45177U 45222M 45318  45337M 45489M 45540  45987M 46018  46037M 46507M 46540
             46559M 46742M 46780  46826M 46836U 47014U 47032M 47062  47108M 47118U 47169U 47187M 47216  47254M 47426
             48039M 48049U 49447U 49465M 49496  49765M 49833  50449M 50507  50894M 50928  51022M 51053  51379M 51409
             51456M 51466U 51504U 51522M 51548  51603M 51636  51785M 51875  52488M 52521  52658M 52726  52772M 52782U
             52821U 52839M 52870  53009M 53019U 53054U 53072M 53099  53131M 53141U 53178M 53195U 53208M 53233  53266M
             53276U 53282M 53289U 53300U 53343U 53356M 53416  53436M
     7(7)      963U 10696  10757M 10767U 11547  11581  11613  11808  11820U 11828M 11883  12063M 12113  12203M 12213U
             12245  12305M 12320U 12338M 12448  12492M 12502U 13653U 13666M 13813  13850M 13860U 14259U 14272M 14318
             14350M 14360U 14498U 14511M 14543  14575M 14585U 14866  14884U 14897M 14929  14957M 15005  15042M 15052U
             15170M 15170  16296  19019  19037U 19050M 19165  19236M 19295M 19775  20017  20166M 20583M 21374  21456M
             21694  23004M 23005M 23006M 23006  23007M 23062  23421M 23506  24968M 25037  25385M 25385  25454M 25454
             25518M 25530  25628M 25929M 25929  25976M 25976  26167M 26167  26214M 26214  26405M 26405  26452M 26452
             26652M 26652  26699M 26699  26706D 26708M 26708  26709M 26710U 26711M 26712M 27846M 28284M 28369  28420M
             28430U 28547U 28565M 28595  28627M 28637U 28693  28934  28935  28950M 28953  29253M 29525  29573  29659
             29703  29887  29931  29975  30019  30063  31574U 31587M 31679  31695M 31738U 32040M 32052U 32111  32143M
             32153U 32370U 32427U 32456U 32561U 32591U 32691U 32720U 32806U 32836U 32945U 32973U 33038U 33095U 33252U
             33356U 33369M 33407  33439M 33449U 33552  33841U 33854M 33884  33916M 33926U 34029  34318U 34331M 34361
             34393M 34403U 34506  34724U 34737M 34767  34799M 34809U 34912  35201U 35214M 35244  35276M 35286U 35420U
             35433M 35460  35492M 35502U 36069U 36082M 36112  36144M 36154U 36500U 36513M 36591  36623M 36633U 36757
             36769U 36782M 36809  36841M 36851U 36935U 36948M 36995  37027M 37037U 37101U 37114M 37166  37363M 37386M
             37401  37433M 37440  37453M 37485M 37490M 37495M 37524M 37528  37560M 37567  37580M 37612M 37617M 37622M
             37675M 37676M 37683  37696M 37728M 37733M 37739  37761M 37823  37893M 37921  37953M 37963U 38028  38048U
             38154U 38195U 38208M 38240  38272M 38282U 38320U 38333M 38363  38395M 38405U 38577U 38590M 38685  38717M
             38727U 39044U 39057M 39086  39118M 39128U 39217U 39230M 39267  39299M 39309U 39426U 39439M 39475  39507M
             39517U 39640U 39653M 39688  39720M 39730U 39789U 39802M 39834  39866M 39876U 39917U 39930M 39963  39995M
             40005U 40113U 40126M 40215  40252M 40262U 40694  40923U 40936M 41032  41069M 41079U 41587  41869U 41882M
             41975  42012M 42022U 42158  42377  42389M 42538U 42551M 42657  42694M 42704U 42881  43273U 43286M 43399
             43436M 43446U 43771  43931  44272U 44285M 44375  44412M 44422U 44682  44968  45317  45476U 45489M 45540
             45577M 45587U 45839  46017  46167  46539  46729U 46742M 46780  46812M 46822U 47019U 47032M 47062  47094M
             47104U 47174U 47187M 47216  47254M 47426  47463M 47473U 47539  47784  49452U 49465M 49496  49528M 49538U
             49736  49752U 49765M 49833  49870M 49880U 50045  50436U 50449M 50507  50894M 50928  50960M 50970U 51009U
             51022M 51053  51085M 51095U 51212  51366U 51379M 51409  51441M 51451U 51509U 51522M 51548  51603M 51636
             51668M 51678U 51772U 51785M 51875  51912M 51922U 52172  52475U 52488M 52521  52558M 52568U 52645U 52658M
             52726  52758M 52768U 52826U 52839M 52870  52902M 52912U 53059U 53072M 53099  53145M 53184M 53208M 53233
             53252M 53262U 53348U 53356M 53416  53436M
     8(8)      959U 10696  11828M 11883  12063M 12113  12338M 12448  13666M 13813  13873U 13978M 13979M 13979  14254U
             14272M 14318  14364M 14374U 14493U 14511M 14543  14897M 14929  14957M 15005  19050M 19165  23421M 23506
             24968M 25037  28284M 28369  28565M 28595  28934  28950M 28953  28957M 28968U 29245U 29253M 31587M 31679
             32040M 32111  33369M 33407  33854M 33884  34331M 34361  34737M 34767  35214M 35244  35433M 35460  36082M
1         (GSTI00) (09:40) (22MAR04) General Purpose Register Cross Reference                                               Page  370
             36112  36513M 36591  36782M 36809  36948M 36995  37114M 37166  37198M 37208U 37748U 37761M 37823  37893M
             37921  38208M 38240  38333M 38363  38590M 38685  39057M 39086  39230M 39267  39439M 39475  39653M 39688
             39802M 39834  39930M 39963  40126M 40215  40936M 41032  41882M 41975  42324  42325M 42338M 42377  42389M
             42551M 42657  43286M 43399  44285M 44375  45489M 45540  46080M 46090U 46681U 46742M 46780  47032M 47062
             47187M 47216  47254M 47426  49465M 49496  49765M 49833  50449M 50507  50894M 50928  51022M 51053  51379M
             51409  51522M 51548  51603M 51636  51785M 51875  52488M 52521  52658M 52726  52839M 52870  53072M 53099
             53208M 53233  53304M 53308M 53309M 53328  53356M 53416  53436M
     9(9)      955U 10696  11828M 11883  12063M 12113  12338M 12448  13666M 13813  14272M 14318  14511M 14543  14897M
             14929  14957M 15005  17841M 17874  18068M 18101  19050M 19165  23421M 23506  24968M 25037  28284M 28369
             28565M 28595  28737  28934  28950M 28953  29253M 31587M 31679  31742M 32040M 32111  33369M 33407  33854M
             33884  34331M 34361  34737M 34767  35214M 35244  35433M 35460  36082M 36112  36513M 36591  36782M 36809
             36948M 36995  37114M 37166  37761M 37823  37893M 37921  38208M 38240  38333M 38363  38590M 38685  39057M
             39086  39230M 39267  39439M 39475  39653M 39688  39802M 39834  39930M 39963  40126M 40215  40936M 41032
             41882M 41975  42324  42326M 42338M 42377  42389M 42551M 42657  43286M 43399  44285M 44375  45489M 45540
             46742M 46780  47032M 47062  47187M 47216  47254M 47426  49465M 49496  49765M 49833  50449M 50507  50894M
             50928  51022M 51053  51379M 51409  51522M 51548  51603M 51636  51785M 51875  52488M 52521  52658M 52726
             52839M 52870  53072M 53099  53208M 53233  53304M 53306M 53328  53356M 53416  53436M
    10(A)      951U 10696  10697M 10707U 11825U 11828M 11883  11884M 11894U 12060U 12063M 12113  12114M 12124U 12335U
             12338M 12448  12449M 12459U 13663U 13666M 13813  13814M 13824U 14269U 14272M 14318  14319M 14329U 14508U
             14511M 14543  14544M 14554U 14894U 14897M 14929  14930M 14940U 14954U 14957M 15005  15006M 15016U 19047U
             19050M 19165  19166M 19176U 23418U 23421M 23506  23507M 23517U 24965U 24968M 25037  25038M 25048U 28281U
             28284M 28369  28370M 28380U 28562U 28565M 28595  28596M 28606U 28934  28950M 28953  29253M 31584U 31587M
             31679  31681M 31691U 32040M 32057U 32111  32112M 32122U 33366U 33369M 33407  33408M 33418U 33851U 33854M
             33884  33885M 33895U 34328U 34331M 34361  34362M 34372U 34734U 34737M 34767  34768M 34778U 35211U 35214M
             35244  35245M 35255U 35430U 35433M 35460  35461M 35471U 36079U 36082M 36112  36113M 36123U 36510U 36513M
             36591  36592M 36602U 36779U 36782M 36809  36810M 36820U 36945U 36948M 36995  36996M 37006U 37111U 37114M
             37166  37167M 37177U 37758U 37761M 37823  37824M 37834U 37890U 37893M 37921  37922M 37932U 38205U 38208M
             38240  38241M 38251U 38330U 38333M 38363  38364M 38374U 38587U 38590M 38685  38686M 38696U 39054U 39057M
             39086  39087M 39097U 39227U 39230M 39267  39268M 39278U 39436U 39439M 39475  39476M 39486U 39650U 39653M
             39688  39689M 39699U 39799U 39802M 39834  39835M 39845U 39927U 39930M 39963  39964M 39974U 40123U 40126M
             40215  40216M 40226U 40933U 40936M 41032  41033M 41043U 41879U 41882M 41975  41976M 41986U 42324  42338M
             42548U 42551M 42657  42658M 42668U 43283U 43286M 43399  43400M 43410U 44282U 44285M 44375  44376M 44386U
             45486U 45489M 45540  45541M 45551U 46739U 46742M 46780  46781M 46791U 47029U 47032M 47062  47063M 47073U
             47184U 47187M 47216  47217M 47227U 47251U 47254M 47426  47427M 47437U 49462U 49465M 49496  49497M 49507U
             49762U 49765M 49833  49834M 49844U 50446U 50449M 50507  50508M 50518U 50891U 50894M 50928  50929M 50939U
             51019U 51022M 51053  51054M 51064U 51376U 51379M 51409  51410M 51420U 51519U 51522M 51548  51549M 51559U
             51600U 51603M 51636  51637M 51647U 51782U 51785M 51875  51876M 51886U 52485U 52488M 52521  52522M 52532U
             52655U 52658M 52726  52727M 52737U 52836U 52839M 52870  52871M 52881U 53069U 53072M 53099  53100M 53110U
             53205U 53208M 53233  53234M 53244U 53353U 53356M 53416  53436M
    11(B)      947U  3171B  3172B 10696  11828M 11883  12063M 12113  12338M 12448  13666M 13813  14272M 14318  14511M
             14543  14897M 14929  14957M 15005  19050M 19165  23421M 23506  24968M 25037  28284M 28369  28565M 28595
             28934  28950M 28953  29135M 29168U 29237U 29253M 31587M 31679  32040M 32111  33369M 33407  33854M 33884
             34331M 34361  34737M 34767  35214M 35244  35433M 35460  36082M 36112  36513M 36591  36782M 36809  36948M
             36995  37114M 37166  37761M 37823  37893M 37921  38208M 38240  38333M 38363  38590M 38685  39057M 39086
             39230M 39267  39439M 39475  39653M 39688  39802M 39834  39930M 39963  40126M 40215  40936M 41032  41882M
             41975  42324  42337  42338M 42551M 42657  43286M 43399  44285M 44375  45489M 45540  46742M 46780  47032M
             47062  47187M 47216  47254M 47426  49465M 49496  49765M 49833  50449M 50507  50894M 50928  51022M 51053
             51379M 51409  51522M 51548  51603M 51636  51785M 51875  52488M 52521  52658M 52726  52839M 52870  53072M
             53099  53208M 53233  53356M 53416  53436M
    12(C)      943U 10696  10711  10712M 10713  10714  11828M 11828  11829  11883  11898  11899M 11900  11910U 11914
             12055U 12063M 12063  12064  12113  12128  12129M 12130  12140U 12144  12330U 12338M 12338  12339  12448
             12463  12464M 12465  12475U 12484  13658U 13666M 13666  13667  13813  13828  13829M 13830  13840U 13849
             14264U 14272M 14272  14273  14318  14333  14334M 14335  14345U 14349  14503U 14511M 14511  14512  14543
             14558  14559M 14560  14570U 14574  14889U 14897M 14897  14898  14929  14944  14945M 14946  14947  14957M
             14957  14958  15005  15020  15021M 15022  15032U 15041  19042U 19050M 19050  19051  19165  19180  19181M
             19182  19192U 19201  23413U 23421M 23421  23422  23506  23521  23522M 23523  23533U 23542  24960U 24968M
             24968  24969  25037  25052  25053M 25054  25064U 25073  28276U 28284M 28284  28285  28369  28384  28385M
             28386  28396U 28400  28557U 28565M 28565  28566  28595  28610  28611M 28612  28622U 28626  28934  28950M
             28953  29253M 31579U 31587M 31587  31588  31679  31743M 32040M 32111  32126  32127M 32128  32138U 32142
1         (GSTI00) (09:40) (22MAR04) General Purpose Register Cross Reference                                               Page  371
             33361U 33369M 33369  33370  33407  33422  33423M 33424  33434U 33438  33846U 33854M 33854  33855  33884
             33899  33900M 33901  33911U 33915  34323U 34331M 34331  34332  34361  34376  34377M 34378  34388U 34392
             34729U 34737M 34737  34738  34767  34782  34783M 34784  34794U 34798  35206U 35214M 35214  35215  35244
             35259  35260M 35261  35271U 35275  35425U 35433M 35433  35434  35460  35475  35476M 35477  35487U 35491
             36074U 36082M 36082  36083  36112  36127  36128M 36129  36139U 36143  36505U 36513M 36513  36514  36591
             36606  36607M 36608  36618U 36622  36774U 36782M 36782  36783  36809  36824  36825M 36826  36836U 36840
             36940U 36948M 36948  36949  36995  37010  37011M 37012  37022U 37026  37106U 37114M 37114  37115  37166
             37181  37182M 37183  37193U 37197  37753U 37761M 37761  37762  37823  37838  37839M 37840  37850U 37854
             37885U 37893M 37893  37894  37921  37936  37937M 37938  37948U 37952  38200U 38208M 38208  38209  38240
             38255  38256M 38257  38267U 38271  38325U 38333M 38333  38334  38363  38378  38379M 38380  38390U 38394
             38582U 38590M 38590  38591  38685  38700  38701M 38702  38712U 38716  39049U 39057M 39057  39058  39086
             39101  39102M 39103  39113U 39117  39222U 39230M 39230  39231  39267  39282  39283M 39284  39294U 39298
             39431U 39439M 39439  39440  39475  39490  39491M 39492  39502U 39506  39645U 39653M 39653  39654  39688
             39703  39704M 39705  39715U 39719  39794U 39802M 39802  39803  39834  39849  39850M 39851  39861U 39865
             39922U 39930M 39930  39931  39963  39978  39979M 39980  39990U 39994  40118U 40126M 40126  40127  40215
             40230  40231M 40232  40242U 40251  40928U 40936M 40936  40937  41032  41047  41048M 41049  41059U 41068
             41874U 41882M 41882  41883  41975  41990  41991M 41992  42002U 42011  42543U 42551M 42551  42552  42657
             42672  42673M 42674  42684U 42693  43278U 43286M 43286  43287  43399  43414  43415M 43416  43426U 43435
             44277U 44285M 44285  44286  44375  44390  44391M 44392  44402U 44411  45481U 45489M 45489  45490  45540
             45555  45556M 45557  45567U 45576  46734U 46742M 46742  46743  46780  46795  46796M 46797  46807U 46811
             47024U 47032M 47032  47033  47062  47077  47078M 47079  47089U 47093  47179U 47187M 47187  47188  47216
             47231  47232M 47233  47234  47254M 47254  47255  47426  47441  47442M 47443  47453U 47462  49457U 49465M
             49465  49466  49496  49511  49512M 49513  49523U 49527  49757U 49765M 49765  49766  49833  49848  49849M
             49850  49860U 49869  50441U 50449M 50449  50450  50507  50522  50523M 50524  50534U 50543  50886U 50894M
             50894  50895  50928  50943  50944M 50945  50955U 50959  51014U 51022M 51022  51023  51053  51068  51069M
             51070  51080U 51084  51371U 51379M 51379  51380  51409  51424  51425M 51426  51436U 51440  51514U 51522M
             51522  51523  51548  51563  51564M 51565  51575U 51579  51595U 51603M 51603  51604  51636  51651  51652M
             51653  51663U 51667  51777U 51785M 51785  51786  51875  51890  51891M 51892  51902U 51911  52480U 52488M
             52488  52489  52521  52536  52537M 52538  52548U 52557  52650U 52658M 52658  52659  52726  52741  52742M
             52743  52753U 52757  52831U 52839M 52839  52840  52870  52885  52886M 52887  52897U 52901  53064U 53072M
             53072  53073  53099  53114  53115M 53116  53126U 53130  53200U 53208M 53208  53209  53233  53248  53249M
             53250  53251  53356M 53356  53357  53416  53436M
    13(D)      939U 10696  10696  10711  10712  10714M 10728U 10786U 10789U 10860U 10863U 11169U 11172U 11213U 11216U
             11451U 11454U 11535U 11538U 11569U 11572U 11601U 11604U 11707U 11710U 11773U 11776U 11828M 11836U 11883
             11883  11898  11899  11914M 11932U 12063M 12071U 12113  12113  12128  12129  12144M 12174U 12338M 12346U
             12448  12448  12463  12464  12484M 12519U 12769U 12772U 12850U 12853U 13389U 13392U 13464U 13467U 13561U
             13564U 13615U 13618U 13666M 13674U 13813  13813  13828  13829  13849M 13886U 14173U 14176U 14205U 14208U
             14272M 14280U 14318  14318  14333  14334  14349M 14430U 14460U 14463U 14511M 14519U 14543  14543  14558
             14559  14574M 14640U 14680U 14683U 14897M 14905U 14929  14929  14944  14945  14947M 14957M 15005  15005
             15020  15021  15041M 15067U 16273U 16276U 16371U 16374U 16618U 16621U 16689U 16692U 17520U 17523U 17612U
             17615U 17852U 17855U 17939U 17942U 18079U 18082U 18166U 18169U 18253U 18256U 18286U 18289U 18625U 18628U
             18674U 18677U 18814U 18817U 18866U 18869U 19006U 19009U 19050M 19058U 19165  19165  19180  19181  19201M
             19307U 19368U 19371U 19439U 19442U 19561U 19564U 19632U 19635U 19754U 19757U 19825U 19828U 19985U 19988U
             20049U 20052U 20301U 20304U 20372U 20375U 20717U 20720U 20788U 20791U 20965U 20968U 21036U 21039U 21342U
             21345U 21406U 21409U 21673U 21676U 21744U 21747U 22357U 22360U 22428U 22431U 23018U 23021U 23098U 23101U
             23421M 23429U 23506  23506  23521  23522  23542M 23574U 23733U 23736U 23783U 23786U 23847U 23850U 23897U
             23900U 23961U 23964U 24011U 24014U 24296U 24299U 24349U 24352U 24420U 24423U 24482U 24485U 24613U 24616U
             24665U 24668U 24968M 24976U 25037  25037  25052  25053  25073M 25108U 25647U 25650U 25716U 25719U 26793U
             26796U 26876U 26879U 26950U 26953U 27022U 27025U 27185U 27188U 27252U 27255U 28284M 28292U 28369  28369
             28384  28385  28400M 28510U 28565M 28573U 28595  28595  28610  28611  28626M 28667U 28704U 28707U 28833U
             28836U 28934  28950M 28953  29253M 29520U 29523U 29590U 29593U 29654U 29657U 30963U 30966U 31069U 31072U
             31167U 31170U 31342U 31345U 31461U 31464U 31587M 31595U 31679  31680  31744M 31787U 31993U 31996U 32039M
             32040  32111  32111  32126  32127  32142M 33194U 33197U 33369M 33377U 33407  33407  33422  33423  33438M
             33543U 33854M 33862U 33884  33884  33899  33900  33915M 34020U 34331M 34339U 34361  34361  34376  34377
             34392M 34497U 34679U 34682U 34737M 34745U 34767  34767  34782  34783  34798M 34903U 35214M 35222U 35244
             35244  35259  35260  35275M 35433M 35460  35460  35475  35476  35491M 35854U 35926U 35929U 36016U 36019U
             36082M 36090U 36112  36112  36127  36128  36143M 36399U 36473U 36476U 36513M 36521U 36591  36591  36606
             36607  36622M 36782M 36809  36809  36824  36825  36840M 36948M 36995  36995  37010  37011  37026M 37114M
             37166  37166  37181  37182  37197M 37761M 37823  37823  37838  37839  37854M 37893M 37921  37921  37936
1         (GSTI00) (09:40) (22MAR04) General Purpose Register Cross Reference                                               Page  372
             37937  37952M 38125U 38208M 38216U 38240  38240  38255  38256  38271M 38333M 38363  38363  38378  38379
             38394M 38422U 38590M 38598U 38685  38685  38700  38701  38716M 39057M 39086  39086  39101  39102  39117M
             39171U 39230M 39238U 39267  39267  39282  39283  39298M 39405U 39439M 39447U 39475  39475  39490  39491
             39506M 39613U 39653M 39661U 39688  39688  39703  39704  39719M 39768U 39802M 39810U 39834  39834  39849
             39850  39865M 39893U 39930M 39938U 39963  39963  39978  39979  39994M 40070U 40126M 40134U 40215  40215
             40230  40231  40251M 40685U 40936M 40944U 41032  41032  41047  41048  41068M 41578U 41723U 41726U 41830U
             41833U 41882M 41890U 41975  41975  41990  41991  42011M 42149U 42551M 42559U 42657  42657  42672  42673
             42693M 42872U 43018U 43021U 43237U 43240U 43286M 43294U 43399  43399  43414  43415  43435M 43762U 44064U
             44067U 44285M 44293U 44375  44375  44390  44391  44411M 44673U 44898U 44901U 44956U 44959U 45039U 45042U
             45089U 45092U 45305U 45308U 45395U 45398U 45489M 45497U 45540  45540  45555  45556  45576M 45830U 45942U
             45945U 46005U 46008U 46352U 46355U 46403U 46406U 46527U 46530U 46639U 46642U 46742M 46750U 46780  46780
             46795  46796  46811M 47032M 47062  47062  47077  47078  47093M 47187M 47216  47216  47231  47232  47234M
             47254M 47426  47426  47441  47442  47462M 47530U 47919U 47922U 48070U 48073U 48169U 48172U 48564U 48567U
             48636U 48639U 49136U 49139U 49246U 49249U 49360U 49363U 49465M 49473U 49496  49496  49511  49512  49527M
             49583U 49682U 49685U 49765M 49773U 49833  49833  49848  49849  49869M 50036U 50181U 50184U 50264U 50267U
             50405U 50408U 50449M 50457U 50507  50507  50522  50523  50543M 50606U 50839U 50842U 50894M 50902U 50928
             50928  50943  50944  50959M 51022M 51053  51053  51068  51069  51084M 51203U 51379M 51387U 51409  51409
             51424  51425  51440M 51522M 51548  51548  51563  51564  51579M 51603M 51636  51636  51651  51652  51667M
             51694U 51785M 51793U 51875  51875  51890  51891  51911M 52163U 52308U 52311U 52389U 52392U 52444U 52447U
             52488M 52496U 52521  52521  52536  52537  52557M 52604U 52658M 52666U 52726  52726  52741  52742  52757M
             52796U 52839M 52847U 52870  52870  52885  52886  52901M 53072M 53099  53099  53114  53115  53130M 53208M
             53233  53233  53248  53249  53251M 53356M 53416  53417M 53434U 53436M 53442U
    14(E)      935U 10696  10756M 10819M 10883M 10911M 11012M 11131M 11191M 11296M 11411M 11478M 11521M 11556M 11588M
             11622M 11735M 11804M 11828M 11830B 11883  11956M 12005M 12045M 12063M 12065B 12113  12202M 12338M 12340B
             12448  12610M 12729M 12802M 12939M 13085M 13223M 13356M 13405M 13495M 13518M 13521  13577M 13646M 13666M
             13668B 13813  13911D 13913M 13913  13914M 13915U 13925  13943  13950M 14043M 14084M 14125M 14189M 14190
             14194M 14220M 14221  14225M 14272M 14274B 14318  14443M 14444  14448M 14475M 14476  14480M 14511M 14513B
             14543  14653M 14716M 14754M 14757  14799M 14844M 14877M 14897M 14899B 14929  14957M 14959B 15005  15123M
             15161M 15236M 15300M 15358M 15429M 15471M 15525M 15583M 15644M 15698M 15756M 15817M 15871M 15929M 15990M
             16044M 16102M 16163M 16201M 16262M 16359M 16407M 16445M 16483M 16521M 16607M 16678M 16746M 16784M 16822M
             16877M 16935M 16973M 17011M 17083M 17141M 17217M 17293M 17351M 17409M 17470M 17508M 17600M 17648M 17686M
             17743M 17801M 17839M 17927M 17975M 18029M 18067M 18154M 18202M 18240M 18273M 18322M 18360M 18457M 18530M
             18576M 18614M 18653M 18727M 18765M 18803M 18843M 18919M 18957M 18995M 19026M 19050M 19052B 19165  19357M
             19428M 19496M 19550M 19621M 19689M 19743M 19814M 19882M 19936M 19974M 20037M 20085M 20290M 20361M 20429M
             20483M 20521M 20559M 20706M 20777M 20845M 20899M 20953M 21025M 21093M 21162M 21231M 21289M 21331M 21394M
             21442M 21662M 21733M 21801M 21855M 21893M 21931M 21957M 21967U 22032M 22048U 22160M 22229M 22287M 22345M
             22417M 22485M 22553M 22623M 22681M 22739M 22794M 22852M 22906M 22964M 23003M 23086M 23134M 23249M 23287M
             23325M 23363M 23401M 23421M 23423B 23506  23630M 23668M 23722M 23772M 23836M 23886M 23950M 24000M 24064M
             24102M 24140M 24224M 24282M 24335M 24406M 24459M 24535M 24599M 24652M 24722M 24764M 24834M 24872M 24910M
             24948M 24968M 24970B 25037  25158M 25216M 25277M 25315M 25513M 25573M 25627M 25667M 25779M 25835M 25889M
             25972M 26034M 26092M 26130M 26210M 26272M 26330M 26368M 26448M 26510M 26568M 26606M 26695M 26766M 26832M
             26939M 27010M 27085M 27155M 27240M 27315M 27369M 27427M 27481M 27539M 27598M 27664M 27718M 27784M 27838M
             27888M 27937M 27991M 28049M 28088M 28134M 28172M 28226M 28264M 28284M 28286B 28369  28525M 28526  28530M
             28565M 28567B 28595  28647M 28654M 28681M 28689M 28735M 28848M 28849  28853M 28934  28949M 29253M 29367M
             29373  29532M 29568M 29580M 29605M 29666M 29710M 29894M 29938M 29982M 30026M 30070M 30404M 30410  30491M
             30497  30975M 31082M 31182M 31183  31187M 31400M 31477M 31478  31482M 31587M 31589B 31679  31797M 31950M
             31975M 32009M 32010  32014M 32040M 32041B 32111  32411M 32412  32416M 32545M 32546  32550M 32674M 32675
             32679M 32789M 32790  32794M 32928M 32929  32933M 33211M 33220M 33228M 33369M 33371B 33407  33561M 33599M
             33605  33611M 33612M 33613  33666M 33672  33733M 33739  33795M 33801  33854M 33856B 33884  34038M 34076M
             34082  34088M 34089M 34090  34143M 34149  34210M 34216  34272M 34278  34331M 34333B 34361  34515M 34556M
             34562  34568M 34569M 34570  34631M 34637  34696M 34705M 34713M 34737M 34739B 34767  34921M 34959M 34965
             34971M 34972M 34973  35026M 35032  35093M 35099  35155M 35161  35214M 35216B 35244  35384M 35390  35433M
             35435B 35460  35682M 35688  35813M 35819  35865M 35947M 36031M 36082M 36084B 36112  36358M 36364  36410M
             36488M 36513M 36515B 36591  36730M 36731M 36731N 36732M 36732N 36733  36733M 36782M 36784B 36809  36948M
             36950B 36995  37114M 37116B 37166  37761M 37763B 37823  37893M 37895B 37921  38138M 38139  38143M 38208M
             38210B 38240  38333M 38335B 38363  38448M 38483M 38486  38590M 38592B 38685  38776M 38808M 39057M 39059B
             39086  39153M 39156  39198M 39230M 39232B 39267  39419M 39439M 39441B 39475  39633M 39653M 39655B 39688
             39781M 39802M 39804B 39834  39905M 39906  39910M 39930M 39932B 39963  40085M 40086  40090M 40126M 40128B
             40215  40317M 40323  40362M 40363  40414M 40420  40459M 40460  40464  40590M 40702M 40740M 40746  40752M
1         (GSTI00) (09:40) (22MAR04) General Purpose Register Cross Reference                                               Page  373
             40753M 40754  40807M 40813  40845M 40848M 40936M 40938B 41032  41134M 41140  41179M 41180  41231M 41237
             41310M 41316  41355M 41356  41357M 41358M 41359  41491M 41595M 41633M 41639  41645M 41646M 41647  41756M
             41769M 41771M 41804M 41861M 41882M 41884B 41975  42108M 42114  42166M 42204M 42210  42216M 42217M 42218
             42333M 42384M 42472M 42551M 42553B 42657  42808M 42814  42889M 42927M 42933  42939M 42940M 42941  43048M
             43141M 43143M 43183M 43261M 43286M 43288B 43399  43501M 43507  43546M 43547  43598M 43604  43677M 43683
             43722M 43723  43779M 43817M 43823  43829M 43830M 43831  43939M 43977M 43983  43989M 43990M 43991  44084M
             44086M 44134M 44136M 44225M 44285M 44287B 44375  44477M 44483  44522M 44523  44574M 44580  44619M 44620
             44690M 44728M 44734  44740M 44741M 44742  44812M 44818  44933M 44976M 45074M 45182M 45325M 45431M 45469M
             45489M 45491B 45540  45642M 45648  45688M 45689  45740M 45746  45786M 45787  45847M 45885M 45891  45897M
             45898M 45899  45977M 46025M 46175M 46213M 46219  46225M 46226M 46227  46280M 46286  46387M 46438M 46547M
             46675M 46722M 46742M 46744B 46780  47032M 47034B 47062  47133M 47187M 47189B 47216  47254M 47256B 47426
             47547M 47585M 47591  47597M 47598M 47599  47621M 47623M 47792M 47830M 47836  47842M 47843M 47844  47949M
             47962M 47964M 48037M 48156M 48234M 48304M 48370M 48420M 48553M 48624M 48705M 48771M 48858M 48924M 48997M
             49083M 49204M 49291M 49341M 49395M 49436M 49465M 49467B 49496  49654M 49740M 49765M 49767B 49833  50053M
             50091M 50097  50103M 50104M 50105  50211M 50224M 50226M 50367M 50429M 50449M 50451B 50507  50626M 50645M
             50649M 50865M 50894M 50896B 50928  51022M 51024B 51053  51162M 51168  51220M 51258M 51264  51270M 51271M
             51272  51325M 51331  51379M 51381B 51409  51522M 51524B 51548  51603M 51605B 51636  51706M 51785M 51787B
             51875  51977M 51983  52022M 52023  52074M 52080  52124M 52125  52180M 52218M 52224  52230M 52231M 52232
             52338M 52351M 52353M 52407M 52468M 52488M 52490B 52521  52594M 52613  52617M 52658M 52660B 52726  52809M
             52810  52814M 52839M 52841B 52870  53023M 53034  53045M 53046N 53047N 53072M 53074B 53099  53177M 53208M
             53210B 53233  53356M 53358B 53416  53426M 53436M 53444B
    15(F)      931U  3633M  3633  10696  10697  10755M 10756B 10818M 10819B 10882M 10883B 10910M 10911B 11011M 11012B
             11130M 11131B 11190M 11191B 11295M 11296B 11410M 11411B 11477M 11478B 11520M 11521B 11555M 11556B 11587M
             11588B 11621M 11622B 11734M 11735B 11803M 11804B 11828M 11883  11884  11955M 11956B 12004M 12005B 12044M
             12045B 12063M 12113  12114  12201M 12202B 12338M 12448  12449  12609M 12610B 12728M 12729B 12801M 12802B
             12938M 12939B 13084M 13085B 13222M 13223B 13355M 13356B 13404M 13405B 13494M 13495B 13576M 13577B 13645M
             13646B 13666M 13813  13814  13949M 13950B 14042M 14043B 14083M 14084B 14124M 14125B 14143M 14146  14149M
             14193M 14194B 14224M 14225B 14272M 14318  14319  14400M 14413  14447M 14448B 14479M 14480B 14511M 14543
             14544  14652M 14653B 14715M 14716B 14798M 14799B 14843M 14844B 14876M 14877B 14897M 14929  14930  14957M
             15005  15006  15122M 15123B 15160M 15161B 15235M 15236B 15299M 15300B 15357M 15358B 15428M 15429B 15470M
             15471B 15524M 15525B 15582M 15583B 15643M 15644B 15697M 15698B 15755M 15756B 15816M 15817B 15870M 15871B
             15928M 15929B 15989M 15990B 16043M 16044B 16101M 16102B 16162M 16163B 16200M 16201B 16261M 16262B 16358M
             16359B 16406M 16407B 16444M 16445B 16482M 16483B 16520M 16521B 16606M 16607B 16677M 16678B 16745M 16746B
             16783M 16784B 16821M 16822B 16876M 16877B 16934M 16935B 16972M 16973B 17010M 17011B 17082M 17083B 17140M
             17141B 17216M 17217B 17292M 17293B 17350M 17351B 17408M 17409B 17469M 17470B 17507M 17508B 17599M 17600B
             17647M 17648B 17685M 17686B 17742M 17743B 17800M 17801B 17838M 17839B 17926M 17927B 17974M 17975B 18028M
             18029B 18066M 18067B 18153M 18154B 18201M 18202B 18239M 18240B 18272M 18273B 18321M 18322B 18359M 18360B
             18456M 18457B 18529M 18530B 18575M 18576B 18613M 18614B 18652M 18653B 18726M 18727B 18764M 18765B 18802M
             18803B 18842M 18843B 18918M 18919B 18956M 18957B 18994M 18995B 19025M 19026B 19050M 19165  19166  19356M
             19357B 19427M 19428B 19495M 19496B 19549M 19550B 19620M 19621B 19688M 19689B 19742M 19743B 19813M 19814B
             19881M 19882B 19935M 19936B 19973M 19974B 20036M 20037B 20084M 20085B 20225M 20289M 20290B 20360M 20361B
             20428M 20429B 20482M 20483B 20520M 20521B 20558M 20559B 20705M 20706B 20776M 20777B 20844M 20845B 20898M
             20899B 20952M 20953B 21024M 21025B 21092M 21093B 21161M 21162B 21230M 21231B 21288M 21289B 21330M 21331B
             21393M 21394B 21441M 21442B 21597M 21661M 21662B 21732M 21733B 21800M 21801B 21854M 21855B 21892M 21893B
             21930M 21931B 22159M 22160B 22228M 22229B 22286M 22287B 22344M 22345B 22416M 22417B 22484M 22485B 22552M
             22553B 22622M 22623B 22680M 22681B 22738M 22739B 22793M 22794B 22851M 22852B 22905M 22906B 22963M 22964B
             23002M 23003B 23085M 23086B 23133M 23134B 23248M 23249B 23286M 23287B 23324M 23325B 23362M 23363B 23400M
             23401B 23421M 23506  23507  23629M 23630B 23667M 23668B 23721M 23722B 23771M 23772B 23835M 23836B 23885M
             23886B 23949M 23950B 23999M 24000B 24063M 24064B 24101M 24102B 24139M 24140B 24223M 24224B 24281M 24282B
             24334M 24335B 24405M 24406B 24458M 24459B 24534M 24535B 24598M 24599B 24651M 24652B 24721M 24722B 24763M
             24764B 24833M 24834B 24871M 24872B 24909M 24910B 24947M 24948B 24968M 25037  25038  25157M 25158B 25215M
             25216B 25276M 25277B 25314M 25315B 25512M 25513B 25572M 25573B 25626M 25627B 25666M 25667B 25778M 25779B
             25834M 25835B 25888M 25889B 25971M 25972B 26033M 26034B 26091M 26092B 26129M 26130B 26209M 26210B 26271M
             26272B 26329M 26330B 26367M 26368B 26447M 26448B 26509M 26510B 26567M 26568B 26605M 26606B 26694M 26695B
             26765M 26766B 26831M 26832B 26938M 26939B 27009M 27010B 27084M 27085B 27154M 27155B 27239M 27240B 27314M
             27315B 27368M 27369B 27426M 27427B 27480M 27481B 27538M 27539B 27597M 27598B 27663M 27664B 27717M 27718B
             27783M 27784B 27837M 27838B 27887M 27888B 27936M 27937B 27990M 27991B 28048M 28049B 28087M 28088B 28133M
             28134B 28171M 28172B 28225M 28226B 28263M 28264B 28284M 28369  28370  28492M 28495  28498M 28529M 28530B
             28565M 28595  28596  28646M 28647B 28653M 28654B 28680M 28681B 28688M 28689B 28734M 28735B 28789M 28790
1         (GSTI00) (09:40) (22MAR04) General Purpose Register Cross Reference                                               Page  374
             28791M 28792  28793M 28794  28795M 28796  28852M 28853B 28899M 28905  28934  28935M 28945U 29253M 29259U
             29372M 29380  29430M 29467M 29468M 29469  29531M 29532B 29567M 29568B 29579M 29580B 29604M 29605B 29665M
             29666B 29709M 29710B 29893M 29894B 29937M 29938B 29981M 29982B 30025M 30026B 30069M 30070B 30409M 30417
             30496M 30504  30572M 30573  30574M 30576  30591M 30592  30595M 30668M 30676  30757M 30760  30763M 30817M
             30825  30878M 30885  30926M 30927  30928M 30930  30945M 30946  30949M 30974M 30975B 31081M 31082B 31106M
             31109  31112M 31186M 31187B 31265M 31272  31399M 31400B 31481M 31482B 31515M 31516  31517M 31519  31534M
             31535  31538M 31587M 31679  31681  31796M 31797B 31830M 31848U 31854M 31861U 31872U 31883M 31884M 31918U
             31949M 31950B 31974M 31975B 32013M 32014B 32025M 32026  32027M 32028  32029M 32030  32031M 32032  32040M
             32111  32112  32241M 32278M 32279M 32280  32387M 32390  32393M 32415M 32416B 32487M 32488  32489M 32491
             32506M 32507  32510M 32521M 32524  32527M 32549M 32550B 32630M 32633  32636M 32647M 32650  32653M 32678M
             32679B 32762M 32765  32768M 32793M 32794B 32901M 32904  32907M 32932M 32933B 33210M 33211B 33219M 33220B
             33227M 33228B 33369M 33407  33408  33474M 33511M 33512M 33513  33560M 33561B 33604M 33616  33671M 33679
             33738M 33746  33800M 33808  33854M 33884  33885  33951M 33988M 33989M 33990  34037M 34038B 34081M 34093
             34148M 34156  34215M 34223  34277M 34285  34331M 34361  34362  34428M 34465M 34466M 34467  34514M 34515B
             34561M 34573  34636M 34644  34695M 34696B 34704M 34705B 34712M 34713B 34737M 34767  34768  34834M 34871M
             34872M 34873  34920M 34921B 34964M 34976  35031M 35039  35098M 35106  35160M 35168  35214M 35244  35245
             35389M 35397  35433M 35460  35461  35527M 35564M 35565M 35566  35687M 35695  35818M 35826  35864M 35865B
             35946M 35947B 36030M 36031B 36082M 36112  36113  36185M 36222M 36223M 36224  36363M 36371  36409M 36410B
             36487M 36488B 36513M 36591  36592  36729M 36782M 36809  36810  36948M 36995  36996  37114M 37166  37167
             37761M 37823  37824  37893M 37921  37922  38076M 38077  38078M 38080  38095M 38096  38099M 38107M 38110
             38113M 38142M 38143B 38208M 38240  38241  38333M 38363  38364  38447M 38448B 38496M 38496  38504M 38590M
             38685  38686  38775M 38776B 38807M 38808B 39057M 39086  39087  39197M 39198B 39230M 39267  39268  39418M
             39419B 39439M 39475  39476  39632M 39633B 39653M 39688  39689  39780M 39781B 39802M 39834  39835  39909M
             39910B 39930M 39963  39964  40089M 40090B 40126M 40215  40216  40322M 40330  40362M 40363  40419M 40427
             40459M 40460  40568M 40578U 40589M 40590B 40597U 40701M 40702B 40745M 40757  40812M 40821  40847M 40848M
             40936M 41032  41033  41139M 41147  41179M 41180  41194M 41194  41208  41236M 41244  41315M 41323  41355M
             41358  41360M 41361  41469M 41479U 41490M 41491B 41498U 41594M 41595B 41638M 41650  41755M 41756B 41769M
             41770  41771M 41860M 41861B 41882M 41975  41976  42113M 42121  42165M 42166B 42209M 42221  42332M 42333B
             42383M 42384B 42471M 42472B 42484M 42484  42551M 42657  42658  42813M 42821  42888M 42889B 42932M 42944
             43047M 43048B 43081M 43091U 43097M 43104U 43115U 43128U 43141M 43142  43143M 43178M 43179M 43179  43180M
             43180  43182M 43182  43183B 43192M 43209M 43209  43260M 43261B 43286M 43399  43400  43506M 43514  43546M
             43547  43561M 43561  43575  43603M 43611  43682M 43690  43722M 43724  43778M 43779B 43822M 43834  43938M
             43939B 43982M 43994  44084M 44085  44086M 44134M 44135  44136M 44224M 44225B 44285M 44375  44376  44482M
             44490  44522M 44523  44579M 44587  44619M 44620  44689M 44690B 44733M 44745  44762M 44772  44817M 44826
             44932M 44933B 44975M 44976B 44997M 45000  45073M 45074B 45181M 45182B 45324M 45325B 45347M 45350  45430M
             45431B 45468M 45469B 45489M 45540  45541  45647M 45655  45688M 45689  45745M 45753  45786M 45787  45846M
             45847B 45890M 45902  45976M 45977B 46024M 46025B 46046M 46049  46174M 46175B 46218M 46230  46285M 46294
             46386M 46387B 46437M 46438B 46546M 46547B 46569M 46572  46674M 46675B 46721M 46722B 46742M 46780  46781
             46916M 47032M 47062  47063  47132M 47133B 47187M 47216  47217  47254M 47426  47427  47546M 47547B 47590M
             47602  47622M 47623M 47791M 47792B 47835M 47847  47948M 47949B 47962M 47963  47964M 48036M 48037B 48155M
             48156B 48233M 48234B 48303M 48304B 48369M 48370B 48419M 48420B 48470M 48470  48471M 48482M 48552M 48553B
             48623M 48624B 48704M 48705B 48770M 48771B 48857M 48858B 48923M 48924B 48996M 48997B 49082M 49083B 49124M
             49125  49203M 49204B 49290M 49291B 49340M 49341B 49394M 49395B 49435M 49436B 49465M 49496  49497  49653M
             49654B 49739M 49740B 49765M 49833  49834  49890M 49912  50052M 50053B 50096M 50108  50210M 50211B 50224M
             50225  50226M 50366M 50367B 50428M 50429B 50449M 50507  50508  50625M 50626B 50646M 50648  50649M 50864M
             50865B 50894M 50928  50929  51022M 51053  51054  51167M 51175  51219M 51220B 51263M 51275  51330M 51339
             51379M 51409  51410  51480M 51522M 51548  51549  51603M 51636  51637  51705M 51706B 51785M 51875  51876
             51982M 51990  52022M 52023  52037M 52037  52051  52079M 52087  52179M 52180B 52223M 52235  52337M 52338B
             52351M 52352  52353M 52406M 52407B 52467M 52468B 52488M 52521  52522  52616M 52617B 52658M 52726  52727
             52813M 52814B 52839M 52870  52871  53043M 53044  53072M 53099  53100  53176M 53177B 53208M 53233  53234
             53356M 53418M 53426B

1GSTINTF  (GSTI00) (09:40) (22MAR04) Diagnostic Cross Reference and Assembler Summary                                       Page  375
-                                                                                            HLASM R4.0  2004/03/22 09.40
0     No Statements Flagged in this Assembly
 HIGH LEVEL ASSEMBLER, 5696-234, RELEASE 4.0, PTF UQ57391
0SYSTEM: OS/390 02.10.00            JOBNAME: PJG#GINT    STEPNAME: ASM        PROCSTEP: (NOPROC)
0Datasets Allocated for this Assembly
  Con DDname   Dataset Name                                 Volume  Member
   P1 SYSIN    SYS04082.T094005.RA000.PJG#GINT.INPUT.H01    SCR100
   L1 SYSLIB   SYS3.DUMMYMAC                                SYSB02
   L2          WYL.GG.ORV.MACLIB                            SYSB02
   L3          WYL.GG.SYS.MACLIB                            SYSB05
   L4          SYS3.MACLIB                                  SYSB02
   L5          SYS1.MACLIB                                  MVSBR9
   L6          SYS1.MODGEN                                  MVSBR9
      SYSLIN   WYL.GG.PJG.OBJ                               SYSB05  GSTINTF
      SYSPRINT SYS04082.T094005.RA000.PJG#GINT.PRINT.H01    SCR100
      SYSTERM  GG$PJG.PJG#GINT.JOB05939.D0000103.?

    7812K allocated to Buffer Pool,         8693K would be required for this to be an In-Storage Assembly
    6759 Primary Input Records Read        26423 Library Records Read                162 Work File Reads
       0 ASMAOPT Records Read              26803 Primary Print Records Written       224 Work File Writes
     776 Punch Records Written                 0 ADATA Records Written
0Assembly Start Time: 09.40.08 Stop Time: 09.40.28 Processor Time: 00.00.10.7772
 Return Code 000
